{
  "_format": "hh-sol-artifact-1",
  "contractName": "GlyphRouter",
  "sourceName": "contracts/manifest/GlyphRouter.sol",
  "abi": [
    {
      "inputs": [],
      "stateMutability": "nonpayable",
      "type": "constructor"
    },
    {
      "anonymous": false,
      "inputs": [
        {
          "indexed": false,
          "internalType": "string",
          "name": "glyph",
          "type": "string"
        },
        {
          "indexed": false,
          "internalType": "address",
          "name": "target",
          "type": "address"
        },
        {
          "indexed": false,
          "internalType": "string",
          "name": "method",
          "type": "string"
        }
      ],
      "name": "RouteLinked",
      "type": "event"
    },
    {
      "inputs": [
        {
          "internalType": "string",
          "name": "glyph",
          "type": "string"
        }
      ],
      "name": "getRoute",
      "outputs": [
        {
          "internalType": "address",
          "name": "",
          "type": "address"
        },
        {
          "internalType": "string",
          "name": "",
          "type": "string"
        }
      ],
      "stateMutability": "view",
      "type": "function"
    },
    {
      "inputs": [
        {
          "internalType": "uint256",
          "name": "",
          "type": "uint256"
        }
      ],
      "name": "keys",
      "outputs": [
        {
          "internalType": "string",
          "name": "",
          "type": "string"
        }
      ],
      "stateMutability": "view",
      "type": "function"
    },
    {
      "inputs": [
        {
          "internalType": "string",
          "name": "glyph",
          "type": "string"
        },
        {
          "internalType": "address",
          "name": "target",
          "type": "address"
        },
        {
          "internalType": "string",
          "name": "method",
          "type": "string"
        }
      ],
      "name": "linkRoute",
      "outputs": [],
      "stateMutability": "nonpayable",
      "type": "function"
    },
    {
      "inputs": [
        {
          "internalType": "string",
          "name": "",
          "type": "string"
        }
      ],
      "name": "routes",
      "outputs": [
        {
          "internalType": "string",
          "name": "glyph",
          "type": "string"
        },
        {
          "internalType": "address",
          "name": "target",
          "type": "address"
        },
        {
          "internalType": "string",
          "name": "method",
          "type": "string"
        }
      ],
      "stateMutability": "view",
      "type": "function"
    },
    {
      "inputs": [],
      "name": "steward",
      "outputs": [
        {
          "internalType": "address",
          "name": "",
          "type": "address"
        }
      ],
      "stateMutability": "view",
      "type": "function"
    },
    {
      "inputs": [],
      "name": "totalRoutes",
      "outputs": [
        {
          "internalType": "uint256",
          "name": "",
          "type": "uint256"
        }
      ],
      "stateMutability": "view",
      "type": "function"
    }
  ],
  "bytecode": "0x6080806040523461002857600080546001600160a01b0319163317905561097f908161002e8239f35b600080fdfe608080604052600436101561001357600080fd5b60003560e01c90816305a2d3ac14610691575080630cb6aaf1146106465780631b5f03a6146105a1578063637eea1914610578578063bb71e7871461011e5763cffbffb51461006157600080fd5b346101195760203660031901126101195760043567ffffffffffffffff81116101195736602382011215610119576100be60206100ab61010293369060248160040135910161088d565b8160405193828580945193849201610817565b810160018152030190206101156100d482610771565b916100ee600260018060a01b036001840154169201610771565b60405194859460608652606086019061083a565b916020850152838203604085015261083a565b0390f35b600080fd5b346101195760603660031901126101195760043567ffffffffffffffff81116101195761014f90369060040161085f565b60243591906001600160a01b03831683036101195760443567ffffffffffffffff81116101195761018490369060040161085f565b6000549091906001600160a01b03163303610545576040516101a581610733565b6101b036858761088d565b81526001600160a01b03861660208201526101cc36848461088d565b6040820152604051848682376020818681016001815203019020815180519067ffffffffffffffff82116104305761020e8261020885546106f9565b856108d4565b602090601f83116001146104d8579180604094926002946000926104cd575b50508160011b916000199060031b1c19161781555b6001810160018060a01b036020860151166bffffffffffffffffffffffff60a01b8254161790550191015180519067ffffffffffffffff82116104305781906102958261028f86546106f9565b866108d4565b602090601f83116001146104675760009261045c575b50508160011b916000199060031b1c19161790555b60025468010000000000000000811015610430578060016102e492016002556106ac565b6104465767ffffffffffffffff84116104305761030b8461030583546106f9565b836108d4565b6000601f85116001146103a257916103929391857fd3d7accac29e452686ae7295c0ca76f7e788e77b9357f6940cc1267bdf516f789894600091610397575b508660011b906000198860031b1c19161790555b610375604051968796606088526060880191610928565b6001600160a01b0390931660208601528483036040860152610928565b0390a1005b90508701358961034a565b601f198516908260005260206000209160005b818110610418575091610392959391877fd3d7accac29e452686ae7295c0ca76f7e788e77b9357f6940cc1267bdf516f789a9694106103fe575b5050600186811b01905561035e565b880135600019600389901b60f8161c1916905588806103ef565b9192602060018192868c0135815501940192016103b5565b634e487b7160e01b600052604160045260246000fd5b634e487b7160e01b600052600060045260246000fd5b0151905088806102ab565b6000858152602081209350601f198516905b8181106104b5575090846001959493921061049c575b505050811b0190556102c0565b015160001960f88460031b161c1916905588808061048f565b92936020600181928786015181550195019301610479565b015190508b8061022d565b90601f198316918460005260206000209260005b81811061052d57509260019285926002966040989610610514575b505050811b018155610242565b015160001960f88460031b161c191690558b8080610507565b929360206001819287860151815501950193016104ec565b60405162461bcd60e51b815260206004820152600b60248201526a139bdd081cdd195dd85c9960aa1b6044820152606490fd5b34610119576000366003190112610119576000546040516001600160a01b039091168152602090f35b346101195760203660031901126101195760043567ffffffffffffffff81116101195760206105d6604092369060040161085f565b91908284519384928337810160018152030190208151906105f682610733565b6105ff81610771565b825260018060a01b0391610623600284600185015416936020840194855201610771565b93849101525116610115604051928392835260406020840152604083019061083a565b34610119576020366003190112610119576004356002548110156101195761066d906106ac565b6104465761067d61011591610771565b60405191829160208352602083019061083a565b34610119576000366003190112610119576020906002548152f35b6002548110156106e35760026000527f405787fa12a823e0f2b7631cc41b3ba8828b3321ca811111fa75cd3aa3bb5ace0190600090565b634e487b7160e01b600052603260045260246000fd5b90600182811c92168015610729575b602083101461071357565b634e487b7160e01b600052602260045260246000fd5b91607f1691610708565b6060810190811067ffffffffffffffff82111761043057604052565b90601f8019910116810190811067ffffffffffffffff82111761043057604052565b9060405191826000825492610785846106f9565b9081845260019485811690816000146107f457506001146107b1575b50506107af9250038361074f565b565b9093915060005260209081600020936000915b8183106107dc5750506107af935082010138806107a1565b855488840185015294850194879450918301916107c4565b9150506107af94506020925060ff191682840152151560051b82010138806107a1565b60005b83811061082a5750506000910152565b818101518382015260200161081a565b9060209161085381518092818552858086019101610817565b601f01601f1916010190565b9181601f840112156101195782359167ffffffffffffffff8311610119576020838186019501011161011957565b92919267ffffffffffffffff821161043057604051916108b7601f8201601f19166020018461074f565b829481845281830111610119578281602093846000960137010152565b90601f81116108e257505050565b600091825260208220906020601f850160051c8301941061091e575b601f0160051c01915b82811061091357505050565b818155600101610907565b90925082906108fe565b908060209392818452848401376000828201840152601f01601f191601019056fea264697066735822122013865cb219dd376c9f1aded2bb8ac04aeda0661482d5e1e79bf8bffe983c615864736f6c63430008140033",
  "linkReferences": {},
  "deployedLinkReferences": {}
}