{
  "_format": "hh-sol-artifact-1",
  "contractName": "SovereignPulse",
  "sourceName": "contracts/sovereigns/SovereignPulse.sol",
  "abi": [
    {
      "inputs": [],
      "stateMutability": "nonpayable",
      "type": "constructor"
    },
    {
      "anonymous": false,
      "inputs": [
        {
          "indexed": true,
          "internalType": "address",
          "name": "sovereign",
          "type": "address"
        },
        {
          "indexed": false,
          "internalType": "string",
          "name": "name",
          "type": "string"
        },
        {
          "indexed": false,
          "internalType": "string",
          "name": "kind",
          "type": "string"
        },
        {
          "indexed": false,
          "internalType": "uint256",
          "name": "frequency",
          "type": "uint256"
        }
      ],
      "name": "PulseEchoed",
      "type": "event"
    },
    {
      "inputs": [
        {
          "internalType": "address",
          "name": "sovereign",
          "type": "address"
        },
        {
          "internalType": "string",
          "name": "name",
          "type": "string"
        },
        {
          "internalType": "string",
          "name": "kind",
          "type": "string"
        },
        {
          "internalType": "uint256",
          "name": "frequency",
          "type": "uint256"
        }
      ],
      "name": "echoPulse",
      "outputs": [],
      "stateMutability": "nonpayable",
      "type": "function"
    },
    {
      "inputs": [
        {
          "internalType": "address",
          "name": "sovereign",
          "type": "address"
        }
      ],
      "name": "getPulse",
      "outputs": [
        {
          "internalType": "string",
          "name": "",
          "type": "string"
        },
        {
          "internalType": "string",
          "name": "",
          "type": "string"
        },
        {
          "internalType": "uint256",
          "name": "",
          "type": "uint256"
        }
      ],
      "stateMutability": "view",
      "type": "function"
    },
    {
      "inputs": [
        {
          "internalType": "address",
          "name": "",
          "type": "address"
        }
      ],
      "name": "pulses",
      "outputs": [
        {
          "internalType": "string",
          "name": "name",
          "type": "string"
        },
        {
          "internalType": "string",
          "name": "kind",
          "type": "string"
        },
        {
          "internalType": "uint256",
          "name": "frequency",
          "type": "uint256"
        }
      ],
      "stateMutability": "view",
      "type": "function"
    },
    {
      "inputs": [
        {
          "internalType": "uint256",
          "name": "",
          "type": "uint256"
        }
      ],
      "name": "sovereigns",
      "outputs": [
        {
          "internalType": "address",
          "name": "",
          "type": "address"
        }
      ],
      "stateMutability": "view",
      "type": "function"
    },
    {
      "inputs": [],
      "name": "steward",
      "outputs": [
        {
          "internalType": "address",
          "name": "",
          "type": "address"
        }
      ],
      "stateMutability": "view",
      "type": "function"
    },
    {
      "inputs": [],
      "name": "totalPulses",
      "outputs": [
        {
          "internalType": "uint256",
          "name": "",
          "type": "uint256"
        }
      ],
      "stateMutability": "view",
      "type": "function"
    }
  ],
  "bytecode": "0x6080806040523461002857600080546001600160a01b03191633179055610892908161002e8239f35b600080fdfe60808060405260048036101561001457600080fd5b60003560e01c91826336d3f6f8146101c0575081635b075e5a14610168578163637eea191461013f57816366d1b293146100ff57508063db443ff4146100e15763fd0e96861461006357600080fd5b346100dc5760203660031901126100dc576001600160a01b036100846105c1565b166000526001602052604060002060405161009e8161063f565b6100a782610693565b81526100d860026100ba60018501610693565b93846020850152015491826040820152519160405193849384610779565b0390f35b600080fd5b346100dc5760003660031901126100dc576020600254604051908152f35b346100dc5760203660031901126100dc57356002548110156100dc576101266020916107a7565b905460405160039290921b1c6001600160a01b03168152f35b346100dc5760003660031901126100dc576000546040516001600160a01b039091168152602090f35b346100dc5760203660031901126100dc576001600160a01b036101896105c1565b16600052600160205260406000206101a081610693565b6100d860026101b160018501610693565b93015460405193849384610779565b90346100dc5760803660031901126100dc576101da6105c1565b9060243567ffffffffffffffff81116100dc576101fa90369083016105d7565b909160443567ffffffffffffffff81116100dc5761021b90369083016105d7565b60005491969092916001600160a01b03163303610593575060405161023f8161063f565b61024a3685876107f4565b81526102573684896107f4565b6020820152606435604082015260018060a01b0386166000526001602052604060002090805180519067ffffffffffffffff82116104bd57819061029b8554610605565b601f8111610543575b50602090601f83116001146104dd576000926104d2575b50508160011b916000199060031b1c19161782555b602081015180519067ffffffffffffffff82116104bd576102f46001850154610605565b601f8111610476575b50602090601f8311600114610403579180600294926040946000926103f8575b50508160011b916000199060031b1c19161760018501555b015191015560025490680100000000000000008210156103e35750946103ca916103878760017fbae6224f18f85ffa729b9ea746a45eed6b27d7ab04faf740af2ca582d64affe79899016002556107a7565b81546001600160a01b038a811660039390931b92831b921b19161790556040516060808252909586956103bc9287019161083b565b91848303602086015261083b565b60643560408301526001600160a01b03909416930390a2005b604190634e487b7160e01b6000525260246000fd5b015190508c8061031d565b90601f198316916001860160005260206000209260005b81811061045e57509260019285926040966002989610610445575b505050811b016001850155610335565b015160001960f88460031b161c191690558c8080610435565b9293602060018192878601518155019501930161041a565b600185016000526020600020601f840160051c8101602085106104b6575b601f830160051c820181106104aa5750506102fd565b60008155600101610494565b5080610494565b604185634e487b7160e01b6000525260246000fd5b015190508a806102bb565b6000868152602081209350601f198516905b81811061052b5750908460019594939210610512575b505050811b0182556102d0565b015160001960f88460031b161c191690558a8080610505565b929360206001819287860151815501950193016104ef565b909150846000526020600020601f840160051c81016020851061058c575b90849392915b601f830160051c8201811061057d5750506102a4565b60008155859450600101610567565b5080610561565b602060649262461bcd60e51b8352820152600b60248201526a139bdd081cdd195dd85c9960aa1b6044820152fd5b600435906001600160a01b03821682036100dc57565b9181601f840112156100dc5782359167ffffffffffffffff83116100dc57602083818601950101116100dc57565b90600182811c92168015610635575b602083101461061f57565b634e487b7160e01b600052602260045260246000fd5b91607f1691610614565b6060810190811067ffffffffffffffff82111761065b57604052565b634e487b7160e01b600052604160045260246000fd5b90601f8019910116810190811067ffffffffffffffff82111761065b57604052565b90604051918260008254926106a784610605565b90818452600194858116908160001461071657506001146106d3575b50506106d192500383610671565b565b9093915060005260209081600020936000915b8183106106fe5750506106d1935082010138806106c3565b855488840185015294850194879450918301916106e6565b9150506106d194506020925060ff191682840152151560051b82010138806106c3565b919082519283825260005b848110610765575050826000602080949584010152601f8019910116010190565b602081830181015184830182015201610744565b9392916107a290610794604093606088526060880190610739565b908682036020880152610739565b930152565b6002548110156107de5760026000527f405787fa12a823e0f2b7631cc41b3ba8828b3321ca811111fa75cd3aa3bb5ace0190600090565b634e487b7160e01b600052603260045260246000fd5b92919267ffffffffffffffff821161065b576040519161081e601f8201601f191660200184610671565b8294818452818301116100dc578281602093846000960137010152565b908060209392818452848401376000828201840152601f01601f191601019056fea2646970667358221220b761da1f223e2a02dedd11d9b10140fe150c0f3c0cb7734ba59f0c817b79399b64736f6c63430008140033",
  "linkReferences": {},
  "deployedLinkReferences": {}
}