{
  "_format": "hh-sol-artifact-1",
  "contractName": "StarlineGenesis",
  "sourceName": "contracts/StarlineGenesis.sol",
  "abi": [
    {
      "anonymous": false,
      "inputs": [
        {
          "indexed": true,
          "internalType": "address",
          "name": "inscriber",
          "type": "address"
        },
        {
          "indexed": false,
          "internalType": "string",
          "name": "message",
          "type": "string"
        }
      ],
      "name": "GenesisInscribed",
      "type": "event"
    },
    {
      "inputs": [],
      "name": "genesisMessage",
      "outputs": [
        {
          "internalType": "string",
          "name": "",
          "type": "string"
        }
      ],
      "stateMutability": "view",
      "type": "function"
    },
    {
      "inputs": [
        {
          "internalType": "string",
          "name": "message",
          "type": "string"
        }
      ],
      "name": "inscribe",
      "outputs": [],
      "stateMutability": "nonpayable",
      "type": "function"
    },
    {
      "inputs": [],
      "name": "inscriber",
      "outputs": [
        {
          "internalType": "address",
          "name": "",
          "type": "address"
        }
      ],
      "stateMutability": "view",
      "type": "function"
    }
  ],
  "bytecode": "0x6080806040523461001657610454908161001c8239f35b600080fdfe608080604052600436101561001357600080fd5b600090813560e01c9081632a9329461461033a57508063911a6512146101235763bba80ad31461004257600080fd5b34610120578060031936011261012057604051908080546100628161039b565b808552916001918083169081156100f6575060011461009c575b6100988561008c81870382610363565b604051918291826103d5565b0390f35b80809450527f290decd9548b62a8d60345a988386fc84ba6bc95484008f6362f93160ef3e5635b8284106100de57505050810160200161008c8261009861007c565b805460208587018101919091529093019281016100c3565b8695506100989693506020925061008c94915060ff191682840152151560051b820101929361007c565b80fd5b50346101205760209081600319360112610120576004359167ffffffffffffffff80841161033657366023850112156103365783600401359181831161031e5760405192601f199561017c8388601f8501160186610363565b81855236602483830101116103325781869260248593018388013785010152825191821161031e576101ae845461039b565b601f81116102bd575b508094601f8311600114610240575050829381929391610235575b508160011b916000199060031b1c19161782555b336bffffffffffffffffffffffff60a01b60015416176001557f8659279b400e8082b710dc5d5ec2a810a0917ccb13f475830c7d48718389a8926040518061022f3394826103d5565b0390a280f35b9050820151386101d2565b8216948480527f290decd9548b62a8d60345a988386fc84ba6bc95484008f6362f93160ef3e5639185905b8782106102a55750508260019495961061028c575b5050811b0182556101e6565b84015160001960f88460031b161c191690553880610280565b8060018495829495890151815501940192019061026b565b8480527f290decd9548b62a8d60345a988386fc84ba6bc95484008f6362f93160ef3e563601f840160051c810191838510610314575b601f0160051c01905b81811061030957506101b7565b8581556001016102fc565b90915081906102f3565b634e487b7160e01b84526041600452602484fd5b8580fd5b8280fd5b90503461035f578160031936011261035f576001546001600160a01b03168152602090f35b5080fd5b90601f8019910116810190811067ffffffffffffffff82111761038557604052565b634e487b7160e01b600052604160045260246000fd5b90600182811c921680156103cb575b60208310146103b557565b634e487b7160e01b600052602260045260246000fd5b91607f16916103aa565b6020808252825181830181905290939260005b82811061040a57505060409293506000838284010152601f8019910116010190565b8181018601518482016040015285016103e856fea2646970667358221220a769cb2a84b1b10bfd9cf4475a10e678cd8a749f15d9d1ee5ab728d9f8d860c164736f6c63430008140033",
  "linkReferences": {},
  "deployedLinkReferences": {}
}