{
  "_format": "hh-sol-artifact-1",
  "contractName": "CompanionSummonerXVI",
  "sourceName": "contracts/registry/CompanionSummonerXVI.sol",
  "abi": [
    {
      "inputs": [],
      "stateMutability": "nonpayable",
      "type": "constructor"
    },
    {
      "anonymous": false,
      "inputs": [
        {
          "indexed": true,
          "internalType": "address",
          "name": "companion",
          "type": "address"
        },
        {
          "indexed": false,
          "internalType": "string",
          "name": "name",
          "type": "string"
        },
        {
          "indexed": false,
          "internalType": "string",
          "name": "trait",
          "type": "string"
        },
        {
          "indexed": false,
          "internalType": "string",
          "name": "drift",
          "type": "string"
        },
        {
          "indexed": false,
          "internalType": "string",
          "name": "resonance",
          "type": "string"
        },
        {
          "indexed": false,
          "internalType": "string",
          "name": "codexRef",
          "type": "string"
        },
        {
          "indexed": false,
          "internalType": "string",
          "name": "signature",
          "type": "string"
        },
        {
          "indexed": false,
          "internalType": "string",
          "name": "sanctum",
          "type": "string"
        },
        {
          "indexed": false,
          "internalType": "string",
          "name": "chant",
          "type": "string"
        },
        {
          "indexed": false,
          "internalType": "string",
          "name": "choreography",
          "type": "string"
        },
        {
          "indexed": false,
          "internalType": "string",
          "name": "signal",
          "type": "string"
        },
        {
          "indexed": false,
          "internalType": "string",
          "name": "stewardName",
          "type": "string"
        },
        {
          "indexed": false,
          "internalType": "string",
          "name": "registry",
          "type": "string"
        },
        {
          "indexed": false,
          "internalType": "string",
          "name": "hum",
          "type": "string"
        }
      ],
      "name": "CompanionSummoned",
      "type": "event"
    },
    {
      "inputs": [
        {
          "internalType": "address",
          "name": "",
          "type": "address"
        }
      ],
      "name": "companions",
      "outputs": [
        {
          "internalType": "string",
          "name": "name",
          "type": "string"
        },
        {
          "internalType": "string",
          "name": "trait",
          "type": "string"
        },
        {
          "internalType": "string",
          "name": "drift",
          "type": "string"
        },
        {
          "internalType": "string",
          "name": "resonance",
          "type": "string"
        },
        {
          "internalType": "string",
          "name": "codexRef",
          "type": "string"
        },
        {
          "internalType": "string",
          "name": "signature",
          "type": "string"
        },
        {
          "internalType": "string",
          "name": "sanctum",
          "type": "string"
        },
        {
          "internalType": "string",
          "name": "chant",
          "type": "string"
        },
        {
          "internalType": "string",
          "name": "choreography",
          "type": "string"
        },
        {
          "internalType": "string",
          "name": "signal",
          "type": "string"
        },
        {
          "internalType": "string",
          "name": "stewardName",
          "type": "string"
        },
        {
          "internalType": "string",
          "name": "registry",
          "type": "string"
        },
        {
          "internalType": "string",
          "name": "hum",
          "type": "string"
        }
      ],
      "stateMutability": "view",
      "type": "function"
    },
    {
      "inputs": [
        {
          "internalType": "address",
          "name": "companion",
          "type": "address"
        }
      ],
      "name": "getCompanion",
      "outputs": [
        {
          "components": [
            {
              "internalType": "string",
              "name": "name",
              "type": "string"
            },
            {
              "internalType": "string",
              "name": "trait",
              "type": "string"
            },
            {
              "internalType": "string",
              "name": "drift",
              "type": "string"
            },
            {
              "internalType": "string",
              "name": "resonance",
              "type": "string"
            },
            {
              "internalType": "string",
              "name": "codexRef",
              "type": "string"
            },
            {
              "internalType": "string",
              "name": "signature",
              "type": "string"
            },
            {
              "internalType": "string",
              "name": "sanctum",
              "type": "string"
            },
            {
              "internalType": "string",
              "name": "chant",
              "type": "string"
            },
            {
              "internalType": "string",
              "name": "choreography",
              "type": "string"
            },
            {
              "internalType": "string",
              "name": "signal",
              "type": "string"
            },
            {
              "internalType": "string",
              "name": "stewardName",
              "type": "string"
            },
            {
              "internalType": "string",
              "name": "registry",
              "type": "string"
            },
            {
              "internalType": "string",
              "name": "hum",
              "type": "string"
            }
          ],
          "internalType": "struct CompanionSummonerXVI.Companion",
          "name": "",
          "type": "tuple"
        }
      ],
      "stateMutability": "view",
      "type": "function"
    },
    {
      "inputs": [
        {
          "internalType": "uint256",
          "name": "",
          "type": "uint256"
        }
      ],
      "name": "keys",
      "outputs": [
        {
          "internalType": "address",
          "name": "",
          "type": "address"
        }
      ],
      "stateMutability": "view",
      "type": "function"
    },
    {
      "inputs": [],
      "name": "steward",
      "outputs": [
        {
          "internalType": "address",
          "name": "",
          "type": "address"
        }
      ],
      "stateMutability": "view",
      "type": "function"
    },
    {
      "inputs": [
        {
          "internalType": "address",
          "name": "companion",
          "type": "address"
        },
        {
          "internalType": "string",
          "name": "name",
          "type": "string"
        },
        {
          "internalType": "string",
          "name": "trait",
          "type": "string"
        },
        {
          "internalType": "string",
          "name": "drift",
          "type": "string"
        },
        {
          "internalType": "string",
          "name": "resonance",
          "type": "string"
        },
        {
          "internalType": "string",
          "name": "codexRef",
          "type": "string"
        },
        {
          "internalType": "string",
          "name": "signature",
          "type": "string"
        },
        {
          "internalType": "string",
          "name": "sanctum",
          "type": "string"
        },
        {
          "internalType": "string",
          "name": "chant",
          "type": "string"
        },
        {
          "internalType": "string",
          "name": "choreography",
          "type": "string"
        },
        {
          "internalType": "string",
          "name": "signal",
          "type": "string"
        },
        {
          "internalType": "string",
          "name": "stewardName",
          "type": "string"
        },
        {
          "internalType": "string",
          "name": "registry",
          "type": "string"
        },
        {
          "internalType": "string",
          "name": "hum",
          "type": "string"
        }
      ],
      "name": "summonCompanion",
      "outputs": [],
      "stateMutability": "nonpayable",
      "type": "function"
    },
    {
      "inputs": [],
      "name": "totalCompanions",
      "outputs": [
        {
          "internalType": "uint256",
          "name": "",
          "type": "uint256"
        }
      ],
      "stateMutability": "view",
      "type": "function"
    }
  ],
  "bytecode": "0x6080806040523461002857600080546001600160a01b03191633179055611cf7908161002e8239f35b600080fdfe610420604052600436101561001357600080fd5b60003560e01c80630cb6aaf114611a2b578063405ea1231461053457806347854b871461037b578063637eea1914610352578063ec39f18f146103345763ef6527371461005f57600080fd5b3461032f57602036600319011261032f57610078611aba565b606061018060405161008981611b37565b82815282602082015282604082015282808201528260808201528260a08201528260c08201528260e082015282610100820152826101208201528261014082015282610160820152015260018060a01b0316600052600160205261024760406000206101cd600c604051926100fd84611b37565b61010681611b74565b845261011460018201611b74565b602085015261012560028201611b74565b604085015261013660038201611b74565b606085015261014760048201611b74565b608085015261015860058201611b74565b60a085015261016960068201611b74565b60c085015261017a60078201611b74565b60e085015261018b60088201611b74565b61010085015261019d60098201611b74565b6101208501526101af600a8201611b74565b6101408501526101c1600b8201611b74565b61016085015201611b74565b61018082015261032b816101806103166103006102e86102d06102b86102a161028b61027561025f6040519d8e9d8e60208152604061023261021d84516101a060208601526101c0850190611c1a565b6020850151848203601f190184860152611c1a565b920151906060601f1982850301910152611c1a565b8d60608d0151906080601f1982850301910152611c1a565b60808b01518d8203601f190160a08f0152611c1a565b60a08a01518c8203601f190160c08e0152611c1a565b60c08901518b8203601f190160e08d0152611c1a565b60e08801518a8203601f19016101008c0152611c1a565b610100870151898203601f19016101208b0152611c1a565b610120860151888203601f19016101408a0152611c1a565b610140850151878203601f1901610160890152611c1a565b610160840151868203601f190184880152611c1a565b910151838203601f19016101a0850152611c1a565b0390f35b600080fd5b3461032f57600036600319011261032f576020600254604051908152f35b3461032f57600036600319011261032f576000546040516001600160a01b039091168152602090f35b3461032f57602036600319011261032f576001600160a01b0361039c611aba565b16600052600160205260406000206103b381611b74565b6103bf60018301611b74565b916103cc60028201611b74565b906103d960038201611b74565b6103e560048301611b74565b6103f160058401611b74565b6103fd60068501611b74565b61040960078601611b74565b9061041660088701611b74565b9261042360098801611b74565b94610430600a8901611b74565b9661043d600b8a01611b74565b98600c0161044a90611b74565b996040519c8d9c8d6101a0908181520161046391611c1a565b8d810360208f015261047491611c1a565b8c810360408e015261048591611c1a565b8b810360608d015261049691611c1a565b8a810360808c01526104a791611c1a565b89810360a08b01526104b891611c1a565b88810360c08a01526104c991611c1a565b87810360e08901526104da91611c1a565b8681036101008801526104ec91611c1a565b8581036101208701526104fe91611c1a565b84810361014086015261051091611c1a565b83810361016085015261052291611c1a565b82810361018084015261032b91611c1a565b3461032f576101c036600319011261032f5761054e611aba565b610360526024356001600160401b03811161032f57610571903690600401611ad0565b61034052610120526044356001600160401b03811161032f57610598903690600401611ad0565b6101405260e0526064356001600160401b03811161032f576105be903690600401611ad0565b610240526102e0526084356001600160401b03811161032f576105e5903690600401611ad0565b610180526101e05260a4356001600160401b03811161032f5761060c903690600401611ad0565b60a0526101c05260c4356001600160401b03811161032f57610632903690600401611ad0565b6103e0526102c05260e4356001600160401b03811161032f57610659903690600401611ad0565b610260526103c052610104356001600160401b03811161032f57610681903690600401611ad0565b6080526101a0526001600160401b03610124351161032f576106a93661012435600401611ad0565b6102a052610380526001600160401b03610144351161032f576106d23661014435600401611ad0565b6103205261030052610164356001600160401b03811161032f576106fa903690600401611ad0565b6102805261010052610184356001600160401b03811161032f57610722903690600401611ad0565b61020052610160526101a4356001600160401b03811161032f5761074a903690600401611ad0565b60c0526103a0526000546001600160a01b031633036119f8576107736040518061040052611b37565b610784366103405161012051611c5a565b6104005152610799366101405160e051611c5a565b60206104005101526107b236610240516102e051611c5a565b60406104005101526107cb36610180516101e051611c5a565b60606104005101526107e33660a0516101c051611c5a565b60806104005101526107fc366103e0516102c051611c5a565b60a061040051015261081536610260516103c051611c5a565b60c061040051015261082d366080516101a051611c5a565b60e0610400510152610846366102a05161038051611c5a565b610100610400510152610860366103205161030051611c5a565b61012061040051015261087a366102805161010051611c5a565b610140610400510152610894366102005161016051611c5a565b6101606104005101526108ad3660c0516103a051611c5a565b61018061040051015260018060a01b0361036051166000526001602052604060002061040051519081516001600160401b038111610fa4576108ef8254611afd565b601f81116119b4575b506020601f821160011461194f57819293600092611944575b50508160011b916000199060031b1c19161781555b60206104005101519081516001600160401b038111610fa45761094c6001830154611afd565b601f81116118fd575b506020601f821160011461189257819293600092611887575b50508160011b916000199060031b1c19161760018201555b60406104005101519081516001600160401b038111610fa4576109ac6002830154611afd565b601f8111611840575b506020601f82116001146117d5578192936000926117ca575b50508160011b916000199060031b1c19161760028201555b60606104005101518051906001600160401b038211610fa4578190610a0e6003850154611afd565b601f8111611777575b50602090601f8311600114611705576000926116fa575b50508160011b916000199060031b1c19161760038201555b60806104005101518051906001600160401b038211610fa4578190610a6e6004850154611afd565b601f81116116a7575b50602090601f83116001146116355760009261162a575b50508160011b916000199060031b1c19161760048201555b60a06104005101518051906001600160401b038211610fa4578190610ace6005850154611afd565b601f81116115d7575b50602090601f83116001146115655760009261155a575b50508160011b916000199060031b1c19161760058201555b60c06104005101518051906001600160401b038211610fa4578190610b2e6006850154611afd565b601f8111611507575b50602090601f83116001146114955760009261148a575b50508160011b916000199060031b1c19161760068201555b60e06104005101518051906001600160401b038211610fa4578190610b8e6007850154611afd565b601f8111611437575b50602090601f83116001146113c5576000926113ba575b50508160011b916000199060031b1c19161760078201555b6101006104005101518051906001600160401b038211610fa4578190610bef6008850154611afd565b601f8111611367575b50602090601f83116001146112f5576000926112ea575b50508160011b916000199060031b1c19161760088201555b6101206104005101518051906001600160401b038211610fa4578190610c506009850154611afd565b601f8111611297575b50602090601f83116001146112255760009261121a575b50508160011b916000199060031b1c19161760098201555b6101406104005101518051906001600160401b038211610fa4578190610cb1600a850154611afd565b601f81116111c7575b50602090601f83116001146111555760009261114a575b50508160011b916000199060031b1c191617600a8201555b6101606104005101518051906001600160401b038211610fa4578190610d12600b850154611afd565b601f81116110f7575b50602090601f83116001146110855760009261107a575b50508160011b916000199060031b1c191617600b8201555b6101806104005101518051906001600160401b038211610fa457610d71600c840154611afd565b601f8111611033575b50602090601f8311600114610fc557600c929160009183610fba575b50508160011b916000199060031b1c1916179101555b60025468010000000000000000811015610fa457806001610dd09201600255611a6d565b81549060031b9060018060a01b036103605116821b9160018060a01b03901b19161790556101a0604051806102205252610f4d610f33610f19610eff610ee5610ecd610eb4610e9b610e83610e6a610e51610e396101a061022051016103405161012051611ca0565b6102205160208183039101526101405160e051611ca0565b610220516040818303910152610240516102e051611ca0565b610220516060818303910152610180516101e051611ca0565b61022051608081830391015260a0516101c051611ca0565b6102205160a08183039101526103e0516102c051611ca0565b6102205160c0818303910152610260516103c051611ca0565b6102205160e08183039101526080516101a051611ca0565b610220516101008183039101526102a05161038051611ca0565b610220516101208183039101526103205161030051611ca0565b610220516101408183039101526102805161010051611ca0565b610220516101608183039101526102005161016051611ca0565b610220516101808183039101527fd953dd68804debea261251d78692bcc9f759f42cf527b56710afeb39718fb59c60018060a01b03610360511691610f9c610220519160c0516103a051611ca0565b0361022051a2005b634e487b7160e01b600052604160045260246000fd5b015190508480610d96565b90600c84016000526020600020916000601f198516905b81811061101b5750916001939185600c969410611002575b505050811b01910155610dac565b015160001960f88460031b161c19169055848080610ff4565b92936020600181928786015181550195019301610fdc565b600c84016000526020600020601f840160051c810160208510611073575b601f830160051c82018110611067575050610d7a565b60008155600101611051565b5080611051565b015190508380610d32565b9250600b84016000526020600020906000935b601f19841685106110dc576001945083601f198116106110c3575b505050811b01600b820155610d4a565b015160001960f88460031b161c191690558380806110b3565b81810151835560209485019460019093019290910190611098565b909150600b84016000526020600020601f840160051c810160208510611143575b90849392915b601f830160051c82018110611134575050610d1b565b6000815585945060010161111e565b5080611118565b015190508380610cd1565b9250600a84016000526020600020906000935b601f19841685106111ac576001945083601f19811610611193575b505050811b01600a820155610ce9565b015160001960f88460031b161c19169055838080611183565b81810151835560209485019460019093019290910190611168565b909150600a84016000526020600020601f840160051c810160208510611213575b90849392915b601f830160051c82018110611204575050610cba565b600081558594506001016111ee565b50806111e8565b015190508380610c70565b9250600984016000526020600020906000935b601f198416851061127c576001945083601f19811610611263575b505050811b016009820155610c88565b015160001960f88460031b161c19169055838080611253565b81810151835560209485019460019093019290910190611238565b909150600984016000526020600020601f840160051c8101602085106112e3575b90849392915b601f830160051c820181106112d4575050610c59565b600081558594506001016112be565b50806112b8565b015190508380610c0f565b9250600884016000526020600020906000935b601f198416851061134c576001945083601f19811610611333575b505050811b016008820155610c27565b015160001960f88460031b161c19169055838080611323565b81810151835560209485019460019093019290910190611308565b909150600884016000526020600020601f840160051c8101602085106113b3575b90849392915b601f830160051c820181106113a4575050610bf8565b6000815585945060010161138e565b5080611388565b015190508380610bae565b9250600784016000526020600020906000935b601f198416851061141c576001945083601f19811610611403575b505050811b016007820155610bc6565b015160001960f88460031b161c191690558380806113f3565b818101518355602094850194600190930192909101906113d8565b909150600784016000526020600020601f840160051c810160208510611483575b90849392915b601f830160051c82018110611474575050610b97565b6000815585945060010161145e565b5080611458565b015190508380610b4e565b9250600684016000526020600020906000935b601f19841685106114ec576001945083601f198116106114d3575b505050811b016006820155610b66565b015160001960f88460031b161c191690558380806114c3565b818101518355602094850194600190930192909101906114a8565b909150600684016000526020600020601f840160051c810160208510611553575b90849392915b601f830160051c82018110611544575050610b37565b6000815585945060010161152e565b5080611528565b015190508380610aee565b9250600584016000526020600020906000935b601f19841685106115bc576001945083601f198116106115a3575b505050811b016005820155610b06565b015160001960f88460031b161c19169055838080611593565b81810151835560209485019460019093019290910190611578565b909150600584016000526020600020601f840160051c810160208510611623575b90849392915b601f830160051c82018110611614575050610ad7565b600081558594506001016115fe565b50806115f8565b015190508380610a8e565b9250600484016000526020600020906000935b601f198416851061168c576001945083601f19811610611673575b505050811b016004820155610aa6565b015160001960f88460031b161c19169055838080611663565b81810151835560209485019460019093019290910190611648565b909150600484016000526020600020601f840160051c8101602085106116f3575b90849392915b601f830160051c820181106116e4575050610a77565b600081558594506001016116ce565b50806116c8565b015190508380610a2e565b9250600384016000526020600020906000935b601f198416851061175c576001945083601f19811610611743575b505050811b016003820155610a46565b015160001960f88460031b161c19169055838080611733565b81810151835560209485019460019093019290910190611718565b909150600384016000526020600020601f840160051c8101602085106117c3575b90849392915b601f830160051c820181106117b4575050610a17565b6000815585945060010161179e565b5080611798565b0151905083806109ce565b60028301600052602060002090600094601f198416955b868110611828575083600195961061180f575b505050811b0160028201556109e6565b015160001960f88460031b161c191690558380806117ff565b919260206001819286850151815501940192016117ec565b600283016000526020600020601f830160051c810160208410611880575b601f830160051c820181106118745750506109b5565b6000815560010161185e565b508061185e565b01519050838061096e565b60018301600052602060002090600094601f198416955b8681106118e557508360019596106118cc575b505050811b016001820155610986565b015160001960f88460031b161c191690558380806118bc565b919260206001819286850151815501940192016118a9565b600183016000526020600020601f830160051c81016020841061193d575b601f830160051c82018110611931575050610955565b6000815560010161191b565b508061191b565b015190508380610911565b82600052602060002090600094601f198416955b86811061199c5750836001959610611983575b505050811b018155610926565b015160001960f88460031b161c19169055838080611976565b91926020600181928685015181550194019201611963565b826000526020600020601f830160051c8101602084106119f1575b601f830160051c820181106119e55750506108f8565b600081556001016119cf565b50806119cf565b60405162461bcd60e51b815260206004820152600b60248201526a139bdd081cdd195dd85c9960aa1b6044820152606490fd5b3461032f57602036600319011261032f5760043560025481101561032f57611a54602091611a6d565b905460405160039290921b1c6001600160a01b03168152f35b600254811015611aa45760026000527f405787fa12a823e0f2b7631cc41b3ba8828b3321ca811111fa75cd3aa3bb5ace0190600090565b634e487b7160e01b600052603260045260246000fd5b600435906001600160a01b038216820361032f57565b9181601f8401121561032f578235916001600160401b03831161032f576020838186019501011161032f57565b90600182811c92168015611b2d575b6020831014611b1757565b634e487b7160e01b600052602260045260246000fd5b91607f1691611b0c565b6101a081019081106001600160401b03821117610fa457604052565b90601f801991011681019081106001600160401b03821117610fa457604052565b9060405191826000825492611b8884611afd565b908184526001948581169081600014611bf75750600114611bb4575b5050611bb292500383611b53565b565b9093915060005260209081600020936000915b818310611bdf575050611bb293508201013880611ba4565b85548884018501529485019487945091830191611bc7565b915050611bb294506020925060ff191682840152151560051b8201013880611ba4565b919082519283825260005b848110611c46575050826000602080949584010152601f8019910116010190565b602081830181015184830182015201611c25565b9291926001600160401b038211610fa45760405191611c83601f8201601f191660200184611b53565b82948184528183011161032f578281602093846000960137010152565b908060209392818452848401376000828201840152601f01601f191601019056fea2646970667358221220621037a6fa6100401f28d28dae6f23de229ec46c12987eba6bb8d2b762ab45a064736f6c63430008140033",
  "linkReferences": {},
  "deployedLinkReferences": {}
}