{
  "_format": "hh-sol-artifact-1",
  "contractName": "GenesisFinalSeal",
  "sourceName": "contracts/GenesisFinalSeal.sol",
  "abi": [
    {
      "inputs": [
        {
          "internalType": "string",
          "name": "initialSeal",
          "type": "string"
        }
      ],
      "stateMutability": "nonpayable",
      "type": "constructor"
    },
    {
      "inputs": [
        {
          "internalType": "address",
          "name": "owner",
          "type": "address"
        }
      ],
      "name": "OwnableInvalidOwner",
      "type": "error"
    },
    {
      "inputs": [
        {
          "internalType": "address",
          "name": "account",
          "type": "address"
        }
      ],
      "name": "OwnableUnauthorizedAccount",
      "type": "error"
    },
    {
      "anonymous": false,
      "inputs": [
        {
          "indexed": true,
          "internalType": "address",
          "name": "previousOwner",
          "type": "address"
        },
        {
          "indexed": true,
          "internalType": "address",
          "name": "newOwner",
          "type": "address"
        }
      ],
      "name": "OwnershipTransferred",
      "type": "event"
    },
    {
      "inputs": [],
      "name": "owner",
      "outputs": [
        {
          "internalType": "address",
          "name": "",
          "type": "address"
        }
      ],
      "stateMutability": "view",
      "type": "function"
    },
    {
      "inputs": [],
      "name": "renounceOwnership",
      "outputs": [],
      "stateMutability": "nonpayable",
      "type": "function"
    },
    {
      "inputs": [],
      "name": "seal",
      "outputs": [
        {
          "internalType": "string",
          "name": "",
          "type": "string"
        }
      ],
      "stateMutability": "view",
      "type": "function"
    },
    {
      "inputs": [
        {
          "internalType": "address",
          "name": "newOwner",
          "type": "address"
        }
      ],
      "name": "transferOwnership",
      "outputs": [],
      "stateMutability": "nonpayable",
      "type": "function"
    },
    {
      "inputs": [
        {
          "internalType": "string",
          "name": "newSeal",
          "type": "string"
        }
      ],
      "name": "updateSeal",
      "outputs": [],
      "stateMutability": "nonpayable",
      "type": "function"
    }
  ],
  "bytecode": "0x608060405234610250576107b58038038061001981610255565b92833981019060209081818403126102505780516001600160401b0391828211610250570191601f9084828501121561025057835183811161020d57601f199461006882850187168401610255565b9682885283838301011161025057829060005b83811061023c5750506000918701015233156102235760008054336001600160a01b0319821681178355916001600160a01b03909116907f8be0079c531659141344cd1fd0a4f28419497f9722a3daafe3b4186f6b6457e09080a3845192831161020d5760019384548581811c91168015610203575b838210146101ed578381116101a7575b508192841160011461014857505081929360009261013d575b5050600019600383901b1c191690821b1790555b60405161053a908161027b8239f35b01519050388061011a565b6000858152828120918516969193925b87821061019057505083859610610177575b505050811b01905561012e565b015160001960f88460031b161c1916905538808061016a565b808785968294968601518155019501930190610158565b85600052826000208480870160051c8201928588106101e4575b0160051c019086905b8281106101d8575050610101565b600081550186906101ca565b925081926101c1565b634e487b7160e01b600052602260045260246000fd5b90607f16906100f1565b634e487b7160e01b600052604160045260246000fd5b604051631e4fbdf760e01b815260006004820152602490fd5b81810183015189820184015284920161007b565b600080fd5b6040519190601f01601f191682016001600160401b0381118382101761020d5760405256fe608060409080825260048036101561001657600080fd5b600091823560e01c9081633fb27b851461035557508063715018a6146102f85780638da5cb5b146102d0578063f2fde38b146102465763f79fa03a1461005b57600080fd5b34610242576020908160031936011261023e57803567ffffffffffffffff9182821161023a573660238301121561023a578181013595838711610227575195601f19926100af601f830185168701896104a0565b8188523660248383010111610223578187926024889301838b0137880101526100d66104d8565b855192831161021057506001926100ed8454610466565b601f81116101ac575b508091601f8411600114610132575050839482939492610127575b5050600019600383901b1c191690821b17905580f35b015190503880610111565b8486528316957fb10e2d527612073b26eecdfd717e6a320cf44b4afac2b0732d9fcbe2b7fa0cf6929186905b888210610195575050838596971061017c575b505050811b01905580f35b015160001960f88460031b161c19169055388080610171565b80878596829496860151815501950193019061015e565b8486527fb10e2d527612073b26eecdfd717e6a320cf44b4afac2b0732d9fcbe2b7fa0cf6601f850160051c810191838610610206575b601f0160051c019085905b8281106101fb5750506100f6565b8781550185906101ed565b90915081906101e2565b634e487b7160e01b855260419052602484fd5b8680fd5b634e487b7160e01b865260418252602486fd5b8480fd5b8280fd5b5080fd5b50823461023e57602036600319011261023e576001600160a01b0382358181169391929084900361023a576102796104d8565b83156102ba57505082546001600160a01b0319811683178455167f8be0079c531659141344cd1fd0a4f28419497f9722a3daafe3b4186f6b6457e08380a380f35b51631e4fbdf760e01b8152908101849052602490fd5b828434610242578160031936011261024257905490516001600160a01b039091168152602090f35b82346103525780600319360112610352576103116104d8565b80546001600160a01b03198116825581906001600160a01b03167f8be0079c531659141344cd1fd0a4f28419497f9722a3daafe3b4186f6b6457e08280a380f35b80fd5b8484913461023e578260031936011261023e57828160019182549261037984610466565b8084529381811690811561044457506001146103e8575b506103a0925094929403846104a0565b815192839160208084528251928382860152825b8481106103d257505050828201840152601f01601f19168101030190f35b81810183015188820188015287955082016103b4565b8087528691507fb10e2d527612073b26eecdfd717e6a320cf44b4afac2b0732d9fcbe2b7fa0cf65b84831061042957506103a0935050810160200186610390565b81935090816020925483858901015201910190918492610410565b9050602092506103a094915060ff191682840152151560051b82010186610390565b90600182811c92168015610496575b602083101461048057565b634e487b7160e01b600052602260045260246000fd5b91607f1691610475565b90601f8019910116810190811067ffffffffffffffff8211176104c257604052565b634e487b7160e01b600052604160045260246000fd5b6000546001600160a01b031633036104ec57565b60405163118cdaa760e01b8152336004820152602490fdfea26469706673582212208387b6e4ded01c729c82978e35f400b983474c541c32b8190900d790c2bc675a64736f6c63430008140033",
  "linkReferences": {},
  "deployedLinkReferences": {}
}