{
  "_format": "hh-sol-artifact-1",
  "contractName": "Bootbark",
  "sourceName": "contracts/Bootbark.sol",
  "abi": [
    {
      "inputs": [],
      "name": "getWisdom",
      "outputs": [
        {
          "internalType": "string",
          "name": "",
          "type": "string"
        }
      ],
      "stateMutability": "view",
      "type": "function"
    }
  ],
  "bytecode": "0x608080604052346100165761010a908161001c8239f35b600080fdfe60806004361015600e57600080fd5b600090813560e01c6320f138ba14602457600080fd5b3460d0578160031936011260d05760409081810181811067ffffffffffffffff82111760bc578252601981526020907f426f6f746261726b20686f776c7320696e2073696c656e6365000000000000008282015282519382859384528251928382860152825b84811060a757505050828201840152601f01601f19168101030190f35b8181018301518882018801528795508201608a565b634e487b7160e01b84526041600452602484fd5b5080fdfea26469706673582212207732a345e4f2bcf121b27095c9009c6066e69bffe1270b4767727f7f2c23cc7564736f6c63430008140033",
  "linkReferences": {},
  "deployedLinkReferences": {}
}