{"contracts/registry/ApprenticeSummonerXIV.sol":{"ApprenticeSummonerXIV":{"abi":[{"inputs":[],"stateMutability":"nonpayable","type":"constructor"},{"anonymous":false,"inputs":[{"indexed":true,"internalType":"address","name":"apprentice","type":"address"},{"indexed":false,"internalType":"string","name":"name","type":"string"},{"indexed":false,"internalType":"string","name":"signal","type":"string"},{"indexed":false,"internalType":"string","name":"drift","type":"string"},{"indexed":false,"internalType":"string","name":"pulse","type":"string"},{"indexed":false,"internalType":"string","name":"codexRef","type":"string"},{"indexed":false,"internalType":"string","name":"resonance","type":"string"},{"indexed":false,"internalType":"string","name":"signature","type":"string"},{"indexed":false,"internalType":"string","name":"sanctum","type":"string"},{"indexed":false,"internalType":"string","name":"chant","type":"string"},{"indexed":false,"internalType":"string","name":"choreography","type":"string"},{"indexed":false,"internalType":"string","name":"stewardName","type":"string"}],"name":"ApprenticeSummoned","type":"event"},{"inputs":[{"internalType":"uint256","name":"","type":"uint256"}],"name":"apprentices","outputs":[{"internalType":"address","name":"","type":"address"}],"stateMutability":"view","type":"function"},{"inputs":[{"internalType":"address","name":"apprentice","type":"address"}],"name":"getSummons","outputs":[{"components":[{"internalType":"string","name":"name","type":"string"},{"internalType":"string","name":"signal","type":"string"},{"internalType":"string","name":"drift","type":"string"},{"internalType":"string","name":"pulse","type":"string"},{"internalType":"string","name":"codexRef","type":"string"},{"internalType":"string","name":"resonance","type":"string"},{"internalType":"string","name":"signature","type":"string"},{"internalType":"string","name":"sanctum","type":"string"},{"internalType":"string","name":"chant","type":"string"},{"internalType":"string","name":"choreography","type":"string"},{"internalType":"string","name":"stewardName","type":"string"}],"internalType":"struct ApprenticeSummonerXIV.Summons","name":"","type":"tuple"}],"stateMutability":"view","type":"function"},{"inputs":[],"name":"steward","outputs":[{"internalType":"address","name":"","type":"address"}],"stateMutability":"view","type":"function"},{"inputs":[{"internalType":"address","name":"apprentice","type":"address"},{"internalType":"string","name":"name","type":"string"},{"internalType":"string","name":"signal","type":"string"},{"internalType":"string","name":"drift","type":"string"},{"internalType":"string","name":"pulse","type":"string"},{"internalType":"string","name":"codexRef","type":"string"},{"internalType":"string","name":"resonance","type":"string"},{"internalType":"string","name":"signature","type":"string"},{"internalType":"string","name":"sanctum","type":"string"},{"internalType":"string","name":"chant","type":"string"},{"internalType":"string","name":"choreography","type":"string"},{"internalType":"string","name":"stewardName","type":"string"}],"name":"summonApprentice","outputs":[],"stateMutability":"nonpayable","type":"function"},{"inputs":[{"internalType":"address","name":"","type":"address"}],"name":"summons","outputs":[{"internalType":"string","name":"name","type":"string"},{"internalType":"string","name":"signal","type":"string"},{"internalType":"string","name":"drift","type":"string"},{"internalType":"string","name":"pulse","type":"string"},{"internalType":"string","name":"codexRef","type":"string"},{"internalType":"string","name":"resonance","type":"string"},{"internalType":"string","name":"signature","type":"string"},{"internalType":"string","name":"sanctum","type":"string"},{"internalType":"string","name":"chant","type":"string"},{"internalType":"string","name":"choreography","type":"string"},{"internalType":"string","name":"stewardName","type":"string"}],"stateMutability":"view","type":"function"},{"inputs":[],"name":"totalSummons","outputs":[{"internalType":"uint256","name":"","type":"uint256"}],"stateMutability":"view","type":"function"}],"evm":{"bytecode":{"linkReferences":{},"object":"6080806040523461002857600080546001600160a01b03191633179055611964908161002e8239f35b600080fdfe6103a080604052600436101561001457600080fd5b60003560e01c9081632a17d4cd146116bf57508063511cef7f146104b45780635a2ed66214610339578063637eea1914610310578063cf84c603146100a95763f31bee3e1461006257600080fd5b346100a45760203660031901126100a4576004356002548110156100a45761008b60209161187a565b905460405160039290921b1c6001600160a01b03168152f35b600080fd5b346100a45760203660031901126100a4576100c26116da565b60606101406040516100d381611757565b82815282602082015282604082015282808201528260808201528260a08201528260c08201528260e08201528261010082015282610120820152015260018060a01b0316600052600160205261030c60406000206101e5600a6040519261013984611757565b61014281611794565b845261015060018201611794565b602085015261016160028201611794565b604085015261017260038201611794565b606085015261018360048201611794565b608085015261019460058201611794565b60a08501526101a560068201611794565b60c08501526101b660078201611794565b60e08501526101c760088201611794565b6101008501526101d960098201611794565b61012085015201611794565b610140820152604051918291602083526101406102f76102e16102c96102b261029c61028661027061025a61024461022c8d6101808d51916101606020820152019061183a565b8d60208d0151906040601f198285030191015261183a565b60408b01518d8203601f190160608f015261183a565b60608a01518c8203601f190160808e015261183a565b60808901518b8203601f190160a08d015261183a565b60a08801518a8203601f190160c08c015261183a565b60c0870151898203601f190160e08b015261183a565b60e0860151888203601f19016101008a015261183a565b610100850151878203601f190161012089015261183a565b610120840151868203601f19018488015261183a565b910151838203601f190161016085015261183a565b0390f35b346100a45760003660031901126100a4576000546040516001600160a01b039091168152602090f35b346100a45760203660031901126100a4576001600160a01b0361035a6116da565b166000526001602052604060002061037181611794565b61037d60018301611794565b9161038a60028201611794565b9061039760038201611794565b6103a360048301611794565b6103af60058401611794565b6103bb60068501611794565b906103c860078601611794565b926103d560088701611794565b946103e260098801611794565b96600a016103ef90611794565b976040519a8b9a610160808d528c016104079161183a565b8b810360208d01526104189161183a565b8a810360408c01526104299161183a565b89810360608b015261043a9161183a565b88810360808a015261044b9161183a565b87810360a089015261045c9161183a565b86810360c088015261046d9161183a565b85810360e087015261047e9161183a565b8481036101008601526104909161183a565b8381036101208501526104a29161183a565b82810361014084015261030c9161183a565b346100a4576101803660031901126100a4576104ce6116da565b610280526024356001600160401b0381116100a4576104f19036906004016116f0565b6102e0526080526044356001600160401b0381116100a4576105179036906004016116f0565b60c05260a0526064356001600160401b0381116100a45761053c9036906004016116f0565b61022052610360526084356001600160401b0381116100a4576105639036906004016116f0565b610140526101c05260a4356001600160401b0381116100a45761058a9036906004016116f0565b6101a052610320526001600160401b0360c435116100a4576105b13660c4356004016116f0565b610340526101e05260e4356001600160401b0381116100a4576105d89036906004016116f0565b6102a052610160526001600160401b0361010435116100a45761060136610104356004016116f0565b6102005261026052610124356001600160401b0381116100a4576106299036906004016116f0565b6103805261018052610144356001600160401b0381116100a4576106519036906004016116f0565b6102c05261012052610164356001600160401b0381116100a4576106799036906004016116f0565b60e052610240526000546001600160a01b0316330361168c576106a26040518061010052611757565b6106b2366102e0516080516118c7565b61010051526106c63660c05160a0516118c7565b60206101005101526106df3661022051610360516118c7565b60406101005101526106f836610140516101c0516118c7565b6060610100510152610711366101a051610320516118c7565b608061010051015261072a36610340516101e0516118c7565b60a0610100510152610743366102a051610160516118c7565b60c061010051015261075c3661020051610260516118c7565b60e06101005101526107753661038051610180516118c7565b6101008051015261078d366102c051610120516118c7565b6101206101005101526107a63660e051610240516118c7565b61014061010051015260018060a01b0361028051166000526001602052604060002061010051518051906001600160401b038211610d9f5781906107ea845461171d565b601f811161163c575b50602090601f83116001146115d0576000926115c5575b50508160011b916000199060031b1c19161781555b60206101005101518051906001600160401b038211610d9f578190610847600185015461171d565b601f8111611572575b50602090601f8311600114611500576000926114f5575b50508160011b916000199060031b1c19161760018201555b60406101005101518051906001600160401b038211610d9f5781906108a7600285015461171d565b601f81116114a2575b50602090601f831160011461143057600092611425575b50508160011b916000199060031b1c19161760028201555b60606101005101518051906001600160401b038211610d9f578190610907600385015461171d565b601f81116113d2575b50602090601f831160011461136057600092611355575b50508160011b916000199060031b1c19161760038201555b60806101005101518051906001600160401b038211610d9f578190610967600485015461171d565b601f8111611302575b50602090601f831160011461129057600092611285575b50508160011b916000199060031b1c19161760048201555b60a06101005101518051906001600160401b038211610d9f5781906109c7600585015461171d565b601f8111611232575b50602090601f83116001146111c0576000926111b5575b50508160011b916000199060031b1c19161760058201555b60c06101005101518051906001600160401b038211610d9f578190610a27600685015461171d565b601f8111611162575b50602090601f83116001146110f0576000926110e5575b50508160011b916000199060031b1c19161760068201555b60e06101005101518051906001600160401b038211610d9f578190610a87600785015461171d565b601f8111611092575b50602090601f831160011461102057600092611015575b50508160011b916000199060031b1c19161760078201555b610100805101518051906001600160401b038211610d9f578190610ae6600885015461171d565b601f8111610fc2575b50602090601f8311600114610f5057600092610f45575b50508160011b916000199060031b1c19161760088201555b6101206101005101518051906001600160401b038211610d9f578190610b47600985015461171d565b601f8111610ef2575b50602090601f8311600114610e8057600092610e75575b50508160011b916000199060031b1c19161760098201555b6101406101005101518051906001600160401b038211610d9f57610ba6600a84015461171d565b601f8111610e2e575b50602090601f8311600114610dc057600a929160009183610db5575b50508160011b916000199060031b1c1916179101555b60025468010000000000000000811015610d9f57806001610c05920160025561187a565b81549060031b9060018060a01b036102805116821b9160018060a01b03901b1916179055610160604051806103005252610d48610d2e610d14610cfb610ce2610cc9610cb0610c97610c7e610c6761016061030051016102e05160805161190d565b61030051602081830391015260c05160a05161190d565b610300516040818303910152610220516103605161190d565b610300516060818303910152610140516101c05161190d565b6103005160808183039101526101a0516103205161190d565b6103005160a0818303910152610340516101e05161190d565b6103005160c08183039101526102a0516101605161190d565b6103005160e0818303910152610200516102605161190d565b61030051610100818303910152610380516101805161190d565b610300516101208183039101526102c0516101205161190d565b610300516101408183039101527fc9d9591e7430c4afab7bbe76d34ae6c440fdb04016979ccfed0f82364002d55560018060a01b03610280511691610d97610300519160e0516102405161190d565b0361030051a2005b634e487b7160e01b600052604160045260246000fd5b015190508480610bcb565b90601f19831691600a850160005260206000209260005b818110610e165750916001939185600a969410610dfd575b505050811b01910155610be1565b015160001960f88460031b161c19169055848080610def565b92936020600181928786015181550195019301610dd7565b600a84016000526020600020601f840160051c810160208510610e6e575b601f830160051c82018110610e62575050610baf565b60008155600101610e4c565b5080610e4c565b015190508380610b67565b9250600984016000526020600020906000935b601f1984168510610ed7576001945083601f19811610610ebe575b505050811b016009820155610b7f565b015160001960f88460031b161c19169055838080610eae565b81810151835560209485019460019093019290910190610e93565b909150600984016000526020600020601f840160051c810160208510610f3e575b90849392915b601f830160051c82018110610f2f575050610b50565b60008155859450600101610f19565b5080610f13565b015190508380610b06565b9250600884016000526020600020906000935b601f1984168510610fa7576001945083601f19811610610f8e575b505050811b016008820155610b1e565b015160001960f88460031b161c19169055838080610f7e565b81810151835560209485019460019093019290910190610f63565b909150600884016000526020600020601f840160051c81016020851061100e575b90849392915b601f830160051c82018110610fff575050610aef565b60008155859450600101610fe9565b5080610fe3565b015190508380610aa7565b9250600784016000526020600020906000935b601f1984168510611077576001945083601f1981161061105e575b505050811b016007820155610abf565b015160001960f88460031b161c1916905583808061104e565b81810151835560209485019460019093019290910190611033565b909150600784016000526020600020601f840160051c8101602085106110de575b90849392915b601f830160051c820181106110cf575050610a90565b600081558594506001016110b9565b50806110b3565b015190508380610a47565b9250600684016000526020600020906000935b601f1984168510611147576001945083601f1981161061112e575b505050811b016006820155610a5f565b015160001960f88460031b161c1916905583808061111e565b81810151835560209485019460019093019290910190611103565b909150600684016000526020600020601f840160051c8101602085106111ae575b90849392915b601f830160051c8201811061119f575050610a30565b60008155859450600101611189565b5080611183565b0151905083806109e7565b9250600584016000526020600020906000935b601f1984168510611217576001945083601f198116106111fe575b505050811b0160058201556109ff565b015160001960f88460031b161c191690558380806111ee565b818101518355602094850194600190930192909101906111d3565b909150600584016000526020600020601f840160051c81016020851061127e575b90849392915b601f830160051c8201811061126f5750506109d0565b60008155859450600101611259565b5080611253565b015190508380610987565b9250600484016000526020600020906000935b601f19841685106112e7576001945083601f198116106112ce575b505050811b01600482015561099f565b015160001960f88460031b161c191690558380806112be565b818101518355602094850194600190930192909101906112a3565b909150600484016000526020600020601f840160051c81016020851061134e575b90849392915b601f830160051c8201811061133f575050610970565b60008155859450600101611329565b5080611323565b015190508380610927565b9250600384016000526020600020906000935b601f19841685106113b7576001945083601f1981161061139e575b505050811b01600382015561093f565b015160001960f88460031b161c1916905583808061138e565b81810151835560209485019460019093019290910190611373565b909150600384016000526020600020601f840160051c81016020851061141e575b90849392915b601f830160051c8201811061140f575050610910565b600081558594506001016113f9565b50806113f3565b0151905083806108c7565b9250600284016000526020600020906000935b601f1984168510611487576001945083601f1981161061146e575b505050811b0160028201556108df565b015160001960f88460031b161c1916905583808061145e565b81810151835560209485019460019093019290910190611443565b909150600284016000526020600020601f840160051c8101602085106114ee575b90849392915b601f830160051c820181106114df5750506108b0565b600081558594506001016114c9565b50806114c3565b015190508380610867565b9250600184016000526020600020906000935b601f1984168510611557576001945083601f1981161061153e575b505050811b01600182015561087f565b015160001960f88460031b161c1916905583808061152e565b81810151835560209485019460019093019290910190611513565b909150600184016000526020600020601f840160051c8101602085106115be575b90849392915b601f830160051c820181106115af575050610850565b60008155859450600101611599565b5080611593565b01519050838061080a565b9250836000526020600020906000935b601f1984168510611621576001945083601f19811610611608575b505050811b01815561081f565b015160001960f88460031b161c191690558380806115fb565b818101518355602094850194600190930192909101906115e0565b909150836000526020600020601f840160051c810160208510611685575b90849392915b601f830160051c820181106116765750506107f3565b60008155859450600101611660565b508061165a565b60405162461bcd60e51b815260206004820152600b60248201526a139bdd081cdd195dd85c9960aa1b6044820152606490fd5b346100a45760003660031901126100a4576020906002548152f35b600435906001600160a01b03821682036100a457565b9181601f840112156100a4578235916001600160401b0383116100a457602083818601950101116100a457565b90600182811c9216801561174d575b602083101461173757565b634e487b7160e01b600052602260045260246000fd5b91607f169161172c565b61016081019081106001600160401b03821117610d9f57604052565b90601f801991011681019081106001600160401b03821117610d9f57604052565b90604051918260008254926117a88461171d565b90818452600194858116908160001461181757506001146117d4575b50506117d292500383611773565b565b9093915060005260209081600020936000915b8183106117ff5750506117d2935082010138806117c4565b855488840185015294850194879450918301916117e7565b9150506117d294506020925060ff191682840152151560051b82010138806117c4565b919082519283825260005b848110611866575050826000602080949584010152601f8019910116010190565b602081830181015184830182015201611845565b6002548110156118b15760026000527f405787fa12a823e0f2b7631cc41b3ba8828b3321ca811111fa75cd3aa3bb5ace0190600090565b634e487b7160e01b600052603260045260246000fd5b9291926001600160401b038211610d9f57604051916118f0601f8201601f191660200184611773565b8294818452818301116100a4578281602093846000960137010152565b908060209392818452848401376000828201840152601f01601f191601019056fea2646970667358221220ae410380f287d2a96bf03fe586de5d09b99b06092030484c411aa2b2a513576964736f6c63430008140033","opcodes":"PUSH1 0x80 DUP1 PUSH1 0x40 MSTORE CALLVALUE PUSH2 0x28 JUMPI PUSH1 0x0 DUP1 SLOAD PUSH1 0x1 PUSH1 0x1 PUSH1 0xA0 SHL SUB NOT AND CALLER OR SWAP1 SSTORE PUSH2 0x1964 SWAP1 DUP2 PUSH2 0x2E DUP3 CODECOPY RETURN JUMPDEST PUSH1 0x0 DUP1 REVERT INVALID PUSH2 0x3A0 DUP1 PUSH1 0x40 MSTORE PUSH1 0x4 CALLDATASIZE LT ISZERO PUSH2 0x14 JUMPI PUSH1 0x0 DUP1 REVERT JUMPDEST PUSH1 0x0 CALLDATALOAD PUSH1 0xE0 SHR SWAP1 DUP2 PUSH4 0x2A17D4CD EQ PUSH2 0x16BF JUMPI POP DUP1 PUSH4 0x511CEF7F EQ PUSH2 0x4B4 JUMPI DUP1 PUSH4 0x5A2ED662 EQ PUSH2 0x339 JUMPI DUP1 PUSH4 0x637EEA19 EQ PUSH2 0x310 JUMPI DUP1 PUSH4 0xCF84C603 EQ PUSH2 0xA9 JUMPI PUSH4 0xF31BEE3E EQ PUSH2 0x62 JUMPI PUSH1 0x0 DUP1 REVERT JUMPDEST CALLVALUE PUSH2 0xA4 JUMPI PUSH1 0x20 CALLDATASIZE PUSH1 0x3 NOT ADD SLT PUSH2 0xA4 JUMPI PUSH1 0x4 CALLDATALOAD PUSH1 0x2 SLOAD DUP2 LT ISZERO PUSH2 0xA4 JUMPI PUSH2 0x8B PUSH1 0x20 SWAP2 PUSH2 0x187A JUMP JUMPDEST SWAP1 SLOAD PUSH1 0x40 MLOAD PUSH1 0x3 SWAP3 SWAP1 SWAP3 SHL SHR PUSH1 0x1 PUSH1 0x1 PUSH1 0xA0 SHL SUB AND DUP2 MSTORE RETURN JUMPDEST PUSH1 0x0 DUP1 REVERT JUMPDEST CALLVALUE PUSH2 0xA4 JUMPI PUSH1 0x20 CALLDATASIZE PUSH1 0x3 NOT ADD SLT PUSH2 0xA4 JUMPI PUSH2 0xC2 PUSH2 0x16DA JUMP JUMPDEST PUSH1 0x60 PUSH2 0x140 PUSH1 0x40 MLOAD PUSH2 0xD3 DUP2 PUSH2 0x1757 JUMP JUMPDEST DUP3 DUP2 MSTORE DUP3 PUSH1 0x20 DUP3 ADD MSTORE DUP3 PUSH1 0x40 DUP3 ADD MSTORE DUP3 DUP1 DUP3 ADD MSTORE DUP3 PUSH1 0x80 DUP3 ADD MSTORE DUP3 PUSH1 0xA0 DUP3 ADD MSTORE DUP3 PUSH1 0xC0 DUP3 ADD MSTORE DUP3 PUSH1 0xE0 DUP3 ADD MSTORE DUP3 PUSH2 0x100 DUP3 ADD MSTORE DUP3 PUSH2 0x120 DUP3 ADD MSTORE ADD MSTORE PUSH1 0x1 DUP1 PUSH1 0xA0 SHL SUB AND PUSH1 0x0 MSTORE PUSH1 0x1 PUSH1 0x20 MSTORE PUSH2 0x30C PUSH1 0x40 PUSH1 0x0 KECCAK256 PUSH2 0x1E5 PUSH1 0xA PUSH1 0x40 MLOAD SWAP3 PUSH2 0x139 DUP5 PUSH2 0x1757 JUMP JUMPDEST PUSH2 0x142 DUP2 PUSH2 0x1794 JUMP JUMPDEST DUP5 MSTORE PUSH2 0x150 PUSH1 0x1 DUP3 ADD PUSH2 0x1794 JUMP JUMPDEST PUSH1 0x20 DUP6 ADD MSTORE PUSH2 0x161 PUSH1 0x2 DUP3 ADD PUSH2 0x1794 JUMP JUMPDEST PUSH1 0x40 DUP6 ADD MSTORE PUSH2 0x172 PUSH1 0x3 DUP3 ADD PUSH2 0x1794 JUMP JUMPDEST PUSH1 0x60 DUP6 ADD MSTORE PUSH2 0x183 PUSH1 0x4 DUP3 ADD PUSH2 0x1794 JUMP JUMPDEST PUSH1 0x80 DUP6 ADD MSTORE PUSH2 0x194 PUSH1 0x5 DUP3 ADD PUSH2 0x1794 JUMP JUMPDEST PUSH1 0xA0 DUP6 ADD MSTORE PUSH2 0x1A5 PUSH1 0x6 DUP3 ADD PUSH2 0x1794 JUMP JUMPDEST PUSH1 0xC0 DUP6 ADD MSTORE PUSH2 0x1B6 PUSH1 0x7 DUP3 ADD PUSH2 0x1794 JUMP JUMPDEST PUSH1 0xE0 DUP6 ADD MSTORE PUSH2 0x1C7 PUSH1 0x8 DUP3 ADD PUSH2 0x1794 JUMP JUMPDEST PUSH2 0x100 DUP6 ADD MSTORE PUSH2 0x1D9 PUSH1 0x9 DUP3 ADD PUSH2 0x1794 JUMP JUMPDEST PUSH2 0x120 DUP6 ADD MSTORE ADD PUSH2 0x1794 JUMP JUMPDEST PUSH2 0x140 DUP3 ADD MSTORE PUSH1 0x40 MLOAD SWAP2 DUP3 SWAP2 PUSH1 0x20 DUP4 MSTORE PUSH2 0x140 PUSH2 0x2F7 PUSH2 0x2E1 PUSH2 0x2C9 PUSH2 0x2B2 PUSH2 0x29C PUSH2 0x286 PUSH2 0x270 PUSH2 0x25A PUSH2 0x244 PUSH2 0x22C DUP14 PUSH2 0x180 DUP14 MLOAD SWAP2 PUSH2 0x160 PUSH1 0x20 DUP3 ADD MSTORE ADD SWAP1 PUSH2 0x183A JUMP JUMPDEST DUP14 PUSH1 0x20 DUP14 ADD MLOAD SWAP1 PUSH1 0x40 PUSH1 0x1F NOT DUP3 DUP6 SUB ADD SWAP2 ADD MSTORE PUSH2 0x183A JUMP JUMPDEST PUSH1 0x40 DUP12 ADD MLOAD DUP14 DUP3 SUB PUSH1 0x1F NOT ADD PUSH1 0x60 DUP16 ADD MSTORE PUSH2 0x183A JUMP JUMPDEST PUSH1 0x60 DUP11 ADD MLOAD DUP13 DUP3 SUB PUSH1 0x1F NOT ADD PUSH1 0x80 DUP15 ADD MSTORE PUSH2 0x183A JUMP JUMPDEST PUSH1 0x80 DUP10 ADD MLOAD DUP12 DUP3 SUB PUSH1 0x1F NOT ADD PUSH1 0xA0 DUP14 ADD MSTORE PUSH2 0x183A JUMP JUMPDEST PUSH1 0xA0 DUP9 ADD MLOAD DUP11 DUP3 SUB PUSH1 0x1F NOT ADD PUSH1 0xC0 DUP13 ADD MSTORE PUSH2 0x183A JUMP JUMPDEST PUSH1 0xC0 DUP8 ADD MLOAD DUP10 DUP3 SUB PUSH1 0x1F NOT ADD PUSH1 0xE0 DUP12 ADD MSTORE PUSH2 0x183A JUMP JUMPDEST PUSH1 0xE0 DUP7 ADD MLOAD DUP9 DUP3 SUB PUSH1 0x1F NOT ADD PUSH2 0x100 DUP11 ADD MSTORE PUSH2 0x183A JUMP JUMPDEST PUSH2 0x100 DUP6 ADD MLOAD DUP8 DUP3 SUB PUSH1 0x1F NOT ADD PUSH2 0x120 DUP10 ADD MSTORE PUSH2 0x183A JUMP JUMPDEST PUSH2 0x120 DUP5 ADD MLOAD DUP7 DUP3 SUB PUSH1 0x1F NOT ADD DUP5 DUP9 ADD MSTORE PUSH2 0x183A JUMP JUMPDEST SWAP2 ADD MLOAD DUP4 DUP3 SUB PUSH1 0x1F NOT ADD PUSH2 0x160 DUP6 ADD MSTORE PUSH2 0x183A JUMP JUMPDEST SUB SWAP1 RETURN JUMPDEST CALLVALUE PUSH2 0xA4 JUMPI PUSH1 0x0 CALLDATASIZE PUSH1 0x3 NOT ADD SLT PUSH2 0xA4 JUMPI PUSH1 0x0 SLOAD PUSH1 0x40 MLOAD PUSH1 0x1 PUSH1 0x1 PUSH1 0xA0 SHL SUB SWAP1 SWAP2 AND DUP2 MSTORE PUSH1 0x20 SWAP1 RETURN JUMPDEST CALLVALUE PUSH2 0xA4 JUMPI PUSH1 0x20 CALLDATASIZE PUSH1 0x3 NOT ADD SLT PUSH2 0xA4 JUMPI PUSH1 0x1 PUSH1 0x1 PUSH1 0xA0 SHL SUB PUSH2 0x35A PUSH2 0x16DA JUMP JUMPDEST AND PUSH1 0x0 MSTORE PUSH1 0x1 PUSH1 0x20 MSTORE PUSH1 0x40 PUSH1 0x0 KECCAK256 PUSH2 0x371 DUP2 PUSH2 0x1794 JUMP JUMPDEST PUSH2 0x37D PUSH1 0x1 DUP4 ADD PUSH2 0x1794 JUMP JUMPDEST SWAP2 PUSH2 0x38A PUSH1 0x2 DUP3 ADD PUSH2 0x1794 JUMP JUMPDEST SWAP1 PUSH2 0x397 PUSH1 0x3 DUP3 ADD PUSH2 0x1794 JUMP JUMPDEST PUSH2 0x3A3 PUSH1 0x4 DUP4 ADD PUSH2 0x1794 JUMP JUMPDEST PUSH2 0x3AF PUSH1 0x5 DUP5 ADD PUSH2 0x1794 JUMP JUMPDEST PUSH2 0x3BB PUSH1 0x6 DUP6 ADD PUSH2 0x1794 JUMP JUMPDEST SWAP1 PUSH2 0x3C8 PUSH1 0x7 DUP7 ADD PUSH2 0x1794 JUMP JUMPDEST SWAP3 PUSH2 0x3D5 PUSH1 0x8 DUP8 ADD PUSH2 0x1794 JUMP JUMPDEST SWAP5 PUSH2 0x3E2 PUSH1 0x9 DUP9 ADD PUSH2 0x1794 JUMP JUMPDEST SWAP7 PUSH1 0xA ADD PUSH2 0x3EF SWAP1 PUSH2 0x1794 JUMP JUMPDEST SWAP8 PUSH1 0x40 MLOAD SWAP11 DUP12 SWAP11 PUSH2 0x160 DUP1 DUP14 MSTORE DUP13 ADD PUSH2 0x407 SWAP2 PUSH2 0x183A JUMP JUMPDEST DUP12 DUP2 SUB PUSH1 0x20 DUP14 ADD MSTORE PUSH2 0x418 SWAP2 PUSH2 0x183A JUMP JUMPDEST DUP11 DUP2 SUB PUSH1 0x40 DUP13 ADD MSTORE PUSH2 0x429 SWAP2 PUSH2 0x183A JUMP JUMPDEST DUP10 DUP2 SUB PUSH1 0x60 DUP12 ADD MSTORE PUSH2 0x43A SWAP2 PUSH2 0x183A JUMP JUMPDEST DUP9 DUP2 SUB PUSH1 0x80 DUP11 ADD MSTORE PUSH2 0x44B SWAP2 PUSH2 0x183A JUMP JUMPDEST DUP8 DUP2 SUB PUSH1 0xA0 DUP10 ADD MSTORE PUSH2 0x45C SWAP2 PUSH2 0x183A JUMP JUMPDEST DUP7 DUP2 SUB PUSH1 0xC0 DUP9 ADD MSTORE PUSH2 0x46D SWAP2 PUSH2 0x183A JUMP JUMPDEST DUP6 DUP2 SUB PUSH1 0xE0 DUP8 ADD MSTORE PUSH2 0x47E SWAP2 PUSH2 0x183A JUMP JUMPDEST DUP5 DUP2 SUB PUSH2 0x100 DUP7 ADD MSTORE PUSH2 0x490 SWAP2 PUSH2 0x183A JUMP JUMPDEST DUP4 DUP2 SUB PUSH2 0x120 DUP6 ADD MSTORE PUSH2 0x4A2 SWAP2 PUSH2 0x183A JUMP JUMPDEST DUP3 DUP2 SUB PUSH2 0x140 DUP5 ADD MSTORE PUSH2 0x30C SWAP2 PUSH2 0x183A JUMP JUMPDEST CALLVALUE PUSH2 0xA4 JUMPI PUSH2 0x180 CALLDATASIZE PUSH1 0x3 NOT ADD SLT PUSH2 0xA4 JUMPI PUSH2 0x4CE PUSH2 0x16DA JUMP JUMPDEST PUSH2 0x280 MSTORE PUSH1 0x24 CALLDATALOAD PUSH1 0x1 PUSH1 0x1 PUSH1 0x40 SHL SUB DUP2 GT PUSH2 0xA4 JUMPI PUSH2 0x4F1 SWAP1 CALLDATASIZE SWAP1 PUSH1 0x4 ADD PUSH2 0x16F0 JUMP JUMPDEST PUSH2 0x2E0 MSTORE PUSH1 0x80 MSTORE PUSH1 0x44 CALLDATALOAD PUSH1 0x1 PUSH1 0x1 PUSH1 0x40 SHL SUB DUP2 GT PUSH2 0xA4 JUMPI PUSH2 0x517 SWAP1 CALLDATASIZE SWAP1 PUSH1 0x4 ADD PUSH2 0x16F0 JUMP JUMPDEST PUSH1 0xC0 MSTORE PUSH1 0xA0 MSTORE PUSH1 0x64 CALLDATALOAD PUSH1 0x1 PUSH1 0x1 PUSH1 0x40 SHL SUB DUP2 GT PUSH2 0xA4 JUMPI PUSH2 0x53C SWAP1 CALLDATASIZE SWAP1 PUSH1 0x4 ADD PUSH2 0x16F0 JUMP JUMPDEST PUSH2 0x220 MSTORE PUSH2 0x360 MSTORE PUSH1 0x84 CALLDATALOAD PUSH1 0x1 PUSH1 0x1 PUSH1 0x40 SHL SUB DUP2 GT PUSH2 0xA4 JUMPI PUSH2 0x563 SWAP1 CALLDATASIZE SWAP1 PUSH1 0x4 ADD PUSH2 0x16F0 JUMP JUMPDEST PUSH2 0x140 MSTORE PUSH2 0x1C0 MSTORE PUSH1 0xA4 CALLDATALOAD PUSH1 0x1 PUSH1 0x1 PUSH1 0x40 SHL SUB DUP2 GT PUSH2 0xA4 JUMPI PUSH2 0x58A SWAP1 CALLDATASIZE SWAP1 PUSH1 0x4 ADD PUSH2 0x16F0 JUMP JUMPDEST PUSH2 0x1A0 MSTORE PUSH2 0x320 MSTORE PUSH1 0x1 PUSH1 0x1 PUSH1 0x40 SHL SUB PUSH1 0xC4 CALLDATALOAD GT PUSH2 0xA4 JUMPI PUSH2 0x5B1 CALLDATASIZE PUSH1 0xC4 CALLDATALOAD PUSH1 0x4 ADD PUSH2 0x16F0 JUMP JUMPDEST PUSH2 0x340 MSTORE PUSH2 0x1E0 MSTORE PUSH1 0xE4 CALLDATALOAD PUSH1 0x1 PUSH1 0x1 PUSH1 0x40 SHL SUB DUP2 GT PUSH2 0xA4 JUMPI PUSH2 0x5D8 SWAP1 CALLDATASIZE SWAP1 PUSH1 0x4 ADD PUSH2 0x16F0 JUMP JUMPDEST PUSH2 0x2A0 MSTORE PUSH2 0x160 MSTORE PUSH1 0x1 PUSH1 0x1 PUSH1 0x40 SHL SUB PUSH2 0x104 CALLDATALOAD GT PUSH2 0xA4 JUMPI PUSH2 0x601 CALLDATASIZE PUSH2 0x104 CALLDATALOAD PUSH1 0x4 ADD PUSH2 0x16F0 JUMP JUMPDEST PUSH2 0x200 MSTORE PUSH2 0x260 MSTORE PUSH2 0x124 CALLDATALOAD PUSH1 0x1 PUSH1 0x1 PUSH1 0x40 SHL SUB DUP2 GT PUSH2 0xA4 JUMPI PUSH2 0x629 SWAP1 CALLDATASIZE SWAP1 PUSH1 0x4 ADD PUSH2 0x16F0 JUMP JUMPDEST PUSH2 0x380 MSTORE PUSH2 0x180 MSTORE PUSH2 0x144 CALLDATALOAD PUSH1 0x1 PUSH1 0x1 PUSH1 0x40 SHL SUB DUP2 GT PUSH2 0xA4 JUMPI PUSH2 0x651 SWAP1 CALLDATASIZE SWAP1 PUSH1 0x4 ADD PUSH2 0x16F0 JUMP JUMPDEST PUSH2 0x2C0 MSTORE PUSH2 0x120 MSTORE PUSH2 0x164 CALLDATALOAD PUSH1 0x1 PUSH1 0x1 PUSH1 0x40 SHL SUB DUP2 GT PUSH2 0xA4 JUMPI PUSH2 0x679 SWAP1 CALLDATASIZE SWAP1 PUSH1 0x4 ADD PUSH2 0x16F0 JUMP JUMPDEST PUSH1 0xE0 MSTORE PUSH2 0x240 MSTORE PUSH1 0x0 SLOAD PUSH1 0x1 PUSH1 0x1 PUSH1 0xA0 SHL SUB AND CALLER SUB PUSH2 0x168C JUMPI PUSH2 0x6A2 PUSH1 0x40 MLOAD DUP1 PUSH2 0x100 MSTORE PUSH2 0x1757 JUMP JUMPDEST PUSH2 0x6B2 CALLDATASIZE PUSH2 0x2E0 MLOAD PUSH1 0x80 MLOAD PUSH2 0x18C7 JUMP JUMPDEST PUSH2 0x100 MLOAD MSTORE PUSH2 0x6C6 CALLDATASIZE PUSH1 0xC0 MLOAD PUSH1 0xA0 MLOAD PUSH2 0x18C7 JUMP JUMPDEST PUSH1 0x20 PUSH2 0x100 MLOAD ADD MSTORE PUSH2 0x6DF CALLDATASIZE PUSH2 0x220 MLOAD PUSH2 0x360 MLOAD PUSH2 0x18C7 JUMP JUMPDEST PUSH1 0x40 PUSH2 0x100 MLOAD ADD MSTORE PUSH2 0x6F8 CALLDATASIZE PUSH2 0x140 MLOAD PUSH2 0x1C0 MLOAD PUSH2 0x18C7 JUMP JUMPDEST PUSH1 0x60 PUSH2 0x100 MLOAD ADD MSTORE PUSH2 0x711 CALLDATASIZE PUSH2 0x1A0 MLOAD PUSH2 0x320 MLOAD PUSH2 0x18C7 JUMP JUMPDEST PUSH1 0x80 PUSH2 0x100 MLOAD ADD MSTORE PUSH2 0x72A CALLDATASIZE PUSH2 0x340 MLOAD PUSH2 0x1E0 MLOAD PUSH2 0x18C7 JUMP JUMPDEST PUSH1 0xA0 PUSH2 0x100 MLOAD ADD MSTORE PUSH2 0x743 CALLDATASIZE PUSH2 0x2A0 MLOAD PUSH2 0x160 MLOAD PUSH2 0x18C7 JUMP JUMPDEST PUSH1 0xC0 PUSH2 0x100 MLOAD ADD MSTORE PUSH2 0x75C CALLDATASIZE PUSH2 0x200 MLOAD PUSH2 0x260 MLOAD PUSH2 0x18C7 JUMP JUMPDEST PUSH1 0xE0 PUSH2 0x100 MLOAD ADD MSTORE PUSH2 0x775 CALLDATASIZE PUSH2 0x380 MLOAD PUSH2 0x180 MLOAD PUSH2 0x18C7 JUMP JUMPDEST PUSH2 0x100 DUP1 MLOAD ADD MSTORE PUSH2 0x78D CALLDATASIZE PUSH2 0x2C0 MLOAD PUSH2 0x120 MLOAD PUSH2 0x18C7 JUMP JUMPDEST PUSH2 0x120 PUSH2 0x100 MLOAD ADD MSTORE PUSH2 0x7A6 CALLDATASIZE PUSH1 0xE0 MLOAD PUSH2 0x240 MLOAD PUSH2 0x18C7 JUMP JUMPDEST PUSH2 0x140 PUSH2 0x100 MLOAD ADD MSTORE PUSH1 0x1 DUP1 PUSH1 0xA0 SHL SUB PUSH2 0x280 MLOAD AND PUSH1 0x0 MSTORE PUSH1 0x1 PUSH1 0x20 MSTORE PUSH1 0x40 PUSH1 0x0 KECCAK256 PUSH2 0x100 MLOAD MLOAD DUP1 MLOAD SWAP1 PUSH1 0x1 PUSH1 0x1 PUSH1 0x40 SHL SUB DUP3 GT PUSH2 0xD9F JUMPI DUP2 SWAP1 PUSH2 0x7EA DUP5 SLOAD PUSH2 0x171D JUMP JUMPDEST PUSH1 0x1F DUP2 GT PUSH2 0x163C JUMPI JUMPDEST POP PUSH1 0x20 SWAP1 PUSH1 0x1F DUP4 GT PUSH1 0x1 EQ PUSH2 0x15D0 JUMPI PUSH1 0x0 SWAP3 PUSH2 0x15C5 JUMPI JUMPDEST POP POP DUP2 PUSH1 0x1 SHL SWAP2 PUSH1 0x0 NOT SWAP1 PUSH1 0x3 SHL SHR NOT AND OR DUP2 SSTORE JUMPDEST PUSH1 0x20 PUSH2 0x100 MLOAD ADD MLOAD DUP1 MLOAD SWAP1 PUSH1 0x1 PUSH1 0x1 PUSH1 0x40 SHL SUB DUP3 GT PUSH2 0xD9F JUMPI DUP2 SWAP1 PUSH2 0x847 PUSH1 0x1 DUP6 ADD SLOAD PUSH2 0x171D JUMP JUMPDEST PUSH1 0x1F DUP2 GT PUSH2 0x1572 JUMPI JUMPDEST POP PUSH1 0x20 SWAP1 PUSH1 0x1F DUP4 GT PUSH1 0x1 EQ PUSH2 0x1500 JUMPI PUSH1 0x0 SWAP3 PUSH2 0x14F5 JUMPI JUMPDEST POP POP DUP2 PUSH1 0x1 SHL SWAP2 PUSH1 0x0 NOT SWAP1 PUSH1 0x3 SHL SHR NOT AND OR PUSH1 0x1 DUP3 ADD SSTORE JUMPDEST PUSH1 0x40 PUSH2 0x100 MLOAD ADD MLOAD DUP1 MLOAD SWAP1 PUSH1 0x1 PUSH1 0x1 PUSH1 0x40 SHL SUB DUP3 GT PUSH2 0xD9F JUMPI DUP2 SWAP1 PUSH2 0x8A7 PUSH1 0x2 DUP6 ADD SLOAD PUSH2 0x171D JUMP JUMPDEST PUSH1 0x1F DUP2 GT PUSH2 0x14A2 JUMPI JUMPDEST POP PUSH1 0x20 SWAP1 PUSH1 0x1F DUP4 GT PUSH1 0x1 EQ PUSH2 0x1430 JUMPI PUSH1 0x0 SWAP3 PUSH2 0x1425 JUMPI JUMPDEST POP POP DUP2 PUSH1 0x1 SHL SWAP2 PUSH1 0x0 NOT SWAP1 PUSH1 0x3 SHL SHR NOT AND OR PUSH1 0x2 DUP3 ADD SSTORE JUMPDEST PUSH1 0x60 PUSH2 0x100 MLOAD ADD MLOAD DUP1 MLOAD SWAP1 PUSH1 0x1 PUSH1 0x1 PUSH1 0x40 SHL SUB DUP3 GT PUSH2 0xD9F JUMPI DUP2 SWAP1 PUSH2 0x907 PUSH1 0x3 DUP6 ADD SLOAD PUSH2 0x171D JUMP JUMPDEST PUSH1 0x1F DUP2 GT PUSH2 0x13D2 JUMPI JUMPDEST POP PUSH1 0x20 SWAP1 PUSH1 0x1F DUP4 GT PUSH1 0x1 EQ PUSH2 0x1360 JUMPI PUSH1 0x0 SWAP3 PUSH2 0x1355 JUMPI JUMPDEST POP POP DUP2 PUSH1 0x1 SHL SWAP2 PUSH1 0x0 NOT SWAP1 PUSH1 0x3 SHL SHR NOT AND OR PUSH1 0x3 DUP3 ADD SSTORE JUMPDEST PUSH1 0x80 PUSH2 0x100 MLOAD ADD MLOAD DUP1 MLOAD SWAP1 PUSH1 0x1 PUSH1 0x1 PUSH1 0x40 SHL SUB DUP3 GT PUSH2 0xD9F JUMPI DUP2 SWAP1 PUSH2 0x967 PUSH1 0x4 DUP6 ADD SLOAD PUSH2 0x171D JUMP JUMPDEST PUSH1 0x1F DUP2 GT PUSH2 0x1302 JUMPI JUMPDEST POP PUSH1 0x20 SWAP1 PUSH1 0x1F DUP4 GT PUSH1 0x1 EQ PUSH2 0x1290 JUMPI PUSH1 0x0 SWAP3 PUSH2 0x1285 JUMPI JUMPDEST POP POP DUP2 PUSH1 0x1 SHL SWAP2 PUSH1 0x0 NOT SWAP1 PUSH1 0x3 SHL SHR NOT AND OR PUSH1 0x4 DUP3 ADD SSTORE JUMPDEST PUSH1 0xA0 PUSH2 0x100 MLOAD ADD MLOAD DUP1 MLOAD SWAP1 PUSH1 0x1 PUSH1 0x1 PUSH1 0x40 SHL SUB DUP3 GT PUSH2 0xD9F JUMPI DUP2 SWAP1 PUSH2 0x9C7 PUSH1 0x5 DUP6 ADD SLOAD PUSH2 0x171D JUMP JUMPDEST PUSH1 0x1F DUP2 GT PUSH2 0x1232 JUMPI JUMPDEST POP PUSH1 0x20 SWAP1 PUSH1 0x1F DUP4 GT PUSH1 0x1 EQ PUSH2 0x11C0 JUMPI PUSH1 0x0 SWAP3 PUSH2 0x11B5 JUMPI JUMPDEST POP POP DUP2 PUSH1 0x1 SHL SWAP2 PUSH1 0x0 NOT SWAP1 PUSH1 0x3 SHL SHR NOT AND OR PUSH1 0x5 DUP3 ADD SSTORE JUMPDEST PUSH1 0xC0 PUSH2 0x100 MLOAD ADD MLOAD DUP1 MLOAD SWAP1 PUSH1 0x1 PUSH1 0x1 PUSH1 0x40 SHL SUB DUP3 GT PUSH2 0xD9F JUMPI DUP2 SWAP1 PUSH2 0xA27 PUSH1 0x6 DUP6 ADD SLOAD PUSH2 0x171D JUMP JUMPDEST PUSH1 0x1F DUP2 GT PUSH2 0x1162 JUMPI JUMPDEST POP PUSH1 0x20 SWAP1 PUSH1 0x1F DUP4 GT PUSH1 0x1 EQ PUSH2 0x10F0 JUMPI PUSH1 0x0 SWAP3 PUSH2 0x10E5 JUMPI JUMPDEST POP POP DUP2 PUSH1 0x1 SHL SWAP2 PUSH1 0x0 NOT SWAP1 PUSH1 0x3 SHL SHR NOT AND OR PUSH1 0x6 DUP3 ADD SSTORE JUMPDEST PUSH1 0xE0 PUSH2 0x100 MLOAD ADD MLOAD DUP1 MLOAD SWAP1 PUSH1 0x1 PUSH1 0x1 PUSH1 0x40 SHL SUB DUP3 GT PUSH2 0xD9F JUMPI DUP2 SWAP1 PUSH2 0xA87 PUSH1 0x7 DUP6 ADD SLOAD PUSH2 0x171D JUMP JUMPDEST PUSH1 0x1F DUP2 GT PUSH2 0x1092 JUMPI JUMPDEST POP PUSH1 0x20 SWAP1 PUSH1 0x1F DUP4 GT PUSH1 0x1 EQ PUSH2 0x1020 JUMPI PUSH1 0x0 SWAP3 PUSH2 0x1015 JUMPI JUMPDEST POP POP DUP2 PUSH1 0x1 SHL SWAP2 PUSH1 0x0 NOT SWAP1 PUSH1 0x3 SHL SHR NOT AND OR PUSH1 0x7 DUP3 ADD SSTORE JUMPDEST PUSH2 0x100 DUP1 MLOAD ADD MLOAD DUP1 MLOAD SWAP1 PUSH1 0x1 PUSH1 0x1 PUSH1 0x40 SHL SUB DUP3 GT PUSH2 0xD9F JUMPI DUP2 SWAP1 PUSH2 0xAE6 PUSH1 0x8 DUP6 ADD SLOAD PUSH2 0x171D JUMP JUMPDEST PUSH1 0x1F DUP2 GT PUSH2 0xFC2 JUMPI JUMPDEST POP PUSH1 0x20 SWAP1 PUSH1 0x1F DUP4 GT PUSH1 0x1 EQ PUSH2 0xF50 JUMPI PUSH1 0x0 SWAP3 PUSH2 0xF45 JUMPI JUMPDEST POP POP DUP2 PUSH1 0x1 SHL SWAP2 PUSH1 0x0 NOT SWAP1 PUSH1 0x3 SHL SHR NOT AND OR PUSH1 0x8 DUP3 ADD SSTORE JUMPDEST PUSH2 0x120 PUSH2 0x100 MLOAD ADD MLOAD DUP1 MLOAD SWAP1 PUSH1 0x1 PUSH1 0x1 PUSH1 0x40 SHL SUB DUP3 GT PUSH2 0xD9F JUMPI DUP2 SWAP1 PUSH2 0xB47 PUSH1 0x9 DUP6 ADD SLOAD PUSH2 0x171D JUMP JUMPDEST PUSH1 0x1F DUP2 GT PUSH2 0xEF2 JUMPI JUMPDEST POP PUSH1 0x20 SWAP1 PUSH1 0x1F DUP4 GT PUSH1 0x1 EQ PUSH2 0xE80 JUMPI PUSH1 0x0 SWAP3 PUSH2 0xE75 JUMPI JUMPDEST POP POP DUP2 PUSH1 0x1 SHL SWAP2 PUSH1 0x0 NOT SWAP1 PUSH1 0x3 SHL SHR NOT AND OR PUSH1 0x9 DUP3 ADD SSTORE JUMPDEST PUSH2 0x140 PUSH2 0x100 MLOAD ADD MLOAD DUP1 MLOAD SWAP1 PUSH1 0x1 PUSH1 0x1 PUSH1 0x40 SHL SUB DUP3 GT PUSH2 0xD9F JUMPI PUSH2 0xBA6 PUSH1 0xA DUP5 ADD SLOAD PUSH2 0x171D JUMP JUMPDEST PUSH1 0x1F DUP2 GT PUSH2 0xE2E JUMPI JUMPDEST POP PUSH1 0x20 SWAP1 PUSH1 0x1F DUP4 GT PUSH1 0x1 EQ PUSH2 0xDC0 JUMPI PUSH1 0xA SWAP3 SWAP2 PUSH1 0x0 SWAP2 DUP4 PUSH2 0xDB5 JUMPI JUMPDEST POP POP DUP2 PUSH1 0x1 SHL SWAP2 PUSH1 0x0 NOT SWAP1 PUSH1 0x3 SHL SHR NOT AND OR SWAP2 ADD SSTORE JUMPDEST PUSH1 0x2 SLOAD PUSH9 0x10000000000000000 DUP2 LT ISZERO PUSH2 0xD9F JUMPI DUP1 PUSH1 0x1 PUSH2 0xC05 SWAP3 ADD PUSH1 0x2 SSTORE PUSH2 0x187A JUMP JUMPDEST DUP2 SLOAD SWAP1 PUSH1 0x3 SHL SWAP1 PUSH1 0x1 DUP1 PUSH1 0xA0 SHL SUB PUSH2 0x280 MLOAD AND DUP3 SHL SWAP2 PUSH1 0x1 DUP1 PUSH1 0xA0 SHL SUB SWAP1 SHL NOT AND OR SWAP1 SSTORE PUSH2 0x160 PUSH1 0x40 MLOAD DUP1 PUSH2 0x300 MSTORE MSTORE PUSH2 0xD48 PUSH2 0xD2E PUSH2 0xD14 PUSH2 0xCFB PUSH2 0xCE2 PUSH2 0xCC9 PUSH2 0xCB0 PUSH2 0xC97 PUSH2 0xC7E PUSH2 0xC67 PUSH2 0x160 PUSH2 0x300 MLOAD ADD PUSH2 0x2E0 MLOAD PUSH1 0x80 MLOAD PUSH2 0x190D JUMP JUMPDEST PUSH2 0x300 MLOAD PUSH1 0x20 DUP2 DUP4 SUB SWAP2 ADD MSTORE PUSH1 0xC0 MLOAD PUSH1 0xA0 MLOAD PUSH2 0x190D JUMP JUMPDEST PUSH2 0x300 MLOAD PUSH1 0x40 DUP2 DUP4 SUB SWAP2 ADD MSTORE PUSH2 0x220 MLOAD PUSH2 0x360 MLOAD PUSH2 0x190D JUMP JUMPDEST PUSH2 0x300 MLOAD PUSH1 0x60 DUP2 DUP4 SUB SWAP2 ADD MSTORE PUSH2 0x140 MLOAD PUSH2 0x1C0 MLOAD PUSH2 0x190D JUMP JUMPDEST PUSH2 0x300 MLOAD PUSH1 0x80 DUP2 DUP4 SUB SWAP2 ADD MSTORE PUSH2 0x1A0 MLOAD PUSH2 0x320 MLOAD PUSH2 0x190D JUMP JUMPDEST PUSH2 0x300 MLOAD PUSH1 0xA0 DUP2 DUP4 SUB SWAP2 ADD MSTORE PUSH2 0x340 MLOAD PUSH2 0x1E0 MLOAD PUSH2 0x190D JUMP JUMPDEST PUSH2 0x300 MLOAD PUSH1 0xC0 DUP2 DUP4 SUB SWAP2 ADD MSTORE PUSH2 0x2A0 MLOAD PUSH2 0x160 MLOAD PUSH2 0x190D JUMP JUMPDEST PUSH2 0x300 MLOAD PUSH1 0xE0 DUP2 DUP4 SUB SWAP2 ADD MSTORE PUSH2 0x200 MLOAD PUSH2 0x260 MLOAD PUSH2 0x190D JUMP JUMPDEST PUSH2 0x300 MLOAD PUSH2 0x100 DUP2 DUP4 SUB SWAP2 ADD MSTORE PUSH2 0x380 MLOAD PUSH2 0x180 MLOAD PUSH2 0x190D JUMP JUMPDEST PUSH2 0x300 MLOAD PUSH2 0x120 DUP2 DUP4 SUB SWAP2 ADD MSTORE PUSH2 0x2C0 MLOAD PUSH2 0x120 MLOAD PUSH2 0x190D JUMP JUMPDEST PUSH2 0x300 MLOAD PUSH2 0x140 DUP2 DUP4 SUB SWAP2 ADD MSTORE PUSH32 0xC9D9591E7430C4AFAB7BBE76D34AE6C440FDB04016979CCFED0F82364002D555 PUSH1 0x1 DUP1 PUSH1 0xA0 SHL SUB PUSH2 0x280 MLOAD AND SWAP2 PUSH2 0xD97 PUSH2 0x300 MLOAD SWAP2 PUSH1 0xE0 MLOAD PUSH2 0x240 MLOAD PUSH2 0x190D JUMP JUMPDEST SUB PUSH2 0x300 MLOAD LOG2 STOP JUMPDEST PUSH4 0x4E487B71 PUSH1 0xE0 SHL PUSH1 0x0 MSTORE PUSH1 0x41 PUSH1 0x4 MSTORE PUSH1 0x24 PUSH1 0x0 REVERT JUMPDEST ADD MLOAD SWAP1 POP DUP5 DUP1 PUSH2 0xBCB JUMP JUMPDEST SWAP1 PUSH1 0x1F NOT DUP4 AND SWAP2 PUSH1 0xA DUP6 ADD PUSH1 0x0 MSTORE PUSH1 0x20 PUSH1 0x0 KECCAK256 SWAP3 PUSH1 0x0 JUMPDEST DUP2 DUP2 LT PUSH2 0xE16 JUMPI POP SWAP2 PUSH1 0x1 SWAP4 SWAP2 DUP6 PUSH1 0xA SWAP7 SWAP5 LT PUSH2 0xDFD JUMPI JUMPDEST POP POP POP DUP2 SHL ADD SWAP2 ADD SSTORE PUSH2 0xBE1 JUMP JUMPDEST ADD MLOAD PUSH1 0x0 NOT PUSH1 0xF8 DUP5 PUSH1 0x3 SHL AND SHR NOT AND SWAP1 SSTORE DUP5 DUP1 DUP1 PUSH2 0xDEF JUMP JUMPDEST SWAP3 SWAP4 PUSH1 0x20 PUSH1 0x1 DUP2 SWAP3 DUP8 DUP7 ADD MLOAD DUP2 SSTORE ADD SWAP6 ADD SWAP4 ADD PUSH2 0xDD7 JUMP JUMPDEST PUSH1 0xA DUP5 ADD PUSH1 0x0 MSTORE PUSH1 0x20 PUSH1 0x0 KECCAK256 PUSH1 0x1F DUP5 ADD PUSH1 0x5 SHR DUP2 ADD PUSH1 0x20 DUP6 LT PUSH2 0xE6E JUMPI JUMPDEST PUSH1 0x1F DUP4 ADD PUSH1 0x5 SHR DUP3 ADD DUP2 LT PUSH2 0xE62 JUMPI POP POP PUSH2 0xBAF JUMP JUMPDEST PUSH1 0x0 DUP2 SSTORE PUSH1 0x1 ADD PUSH2 0xE4C JUMP JUMPDEST POP DUP1 PUSH2 0xE4C JUMP JUMPDEST ADD MLOAD SWAP1 POP DUP4 DUP1 PUSH2 0xB67 JUMP JUMPDEST SWAP3 POP PUSH1 0x9 DUP5 ADD PUSH1 0x0 MSTORE PUSH1 0x20 PUSH1 0x0 KECCAK256 SWAP1 PUSH1 0x0 SWAP4 JUMPDEST PUSH1 0x1F NOT DUP5 AND DUP6 LT PUSH2 0xED7 JUMPI PUSH1 0x1 SWAP5 POP DUP4 PUSH1 0x1F NOT DUP2 AND LT PUSH2 0xEBE JUMPI JUMPDEST POP POP POP DUP2 SHL ADD PUSH1 0x9 DUP3 ADD SSTORE PUSH2 0xB7F JUMP JUMPDEST ADD MLOAD PUSH1 0x0 NOT PUSH1 0xF8 DUP5 PUSH1 0x3 SHL AND SHR NOT AND SWAP1 SSTORE DUP4 DUP1 DUP1 PUSH2 0xEAE JUMP JUMPDEST DUP2 DUP2 ADD MLOAD DUP4 SSTORE PUSH1 0x20 SWAP5 DUP6 ADD SWAP5 PUSH1 0x1 SWAP1 SWAP4 ADD SWAP3 SWAP1 SWAP2 ADD SWAP1 PUSH2 0xE93 JUMP JUMPDEST SWAP1 SWAP2 POP PUSH1 0x9 DUP5 ADD PUSH1 0x0 MSTORE PUSH1 0x20 PUSH1 0x0 KECCAK256 PUSH1 0x1F DUP5 ADD PUSH1 0x5 SHR DUP2 ADD PUSH1 0x20 DUP6 LT PUSH2 0xF3E JUMPI JUMPDEST SWAP1 DUP5 SWAP4 SWAP3 SWAP2 JUMPDEST PUSH1 0x1F DUP4 ADD PUSH1 0x5 SHR DUP3 ADD DUP2 LT PUSH2 0xF2F JUMPI POP POP PUSH2 0xB50 JUMP JUMPDEST PUSH1 0x0 DUP2 SSTORE DUP6 SWAP5 POP PUSH1 0x1 ADD PUSH2 0xF19 JUMP JUMPDEST POP DUP1 PUSH2 0xF13 JUMP JUMPDEST ADD MLOAD SWAP1 POP DUP4 DUP1 PUSH2 0xB06 JUMP JUMPDEST SWAP3 POP PUSH1 0x8 DUP5 ADD PUSH1 0x0 MSTORE PUSH1 0x20 PUSH1 0x0 KECCAK256 SWAP1 PUSH1 0x0 SWAP4 JUMPDEST PUSH1 0x1F NOT DUP5 AND DUP6 LT PUSH2 0xFA7 JUMPI PUSH1 0x1 SWAP5 POP DUP4 PUSH1 0x1F NOT DUP2 AND LT PUSH2 0xF8E JUMPI JUMPDEST POP POP POP DUP2 SHL ADD PUSH1 0x8 DUP3 ADD SSTORE PUSH2 0xB1E JUMP JUMPDEST ADD MLOAD PUSH1 0x0 NOT PUSH1 0xF8 DUP5 PUSH1 0x3 SHL AND SHR NOT AND SWAP1 SSTORE DUP4 DUP1 DUP1 PUSH2 0xF7E JUMP JUMPDEST DUP2 DUP2 ADD MLOAD DUP4 SSTORE PUSH1 0x20 SWAP5 DUP6 ADD SWAP5 PUSH1 0x1 SWAP1 SWAP4 ADD SWAP3 SWAP1 SWAP2 ADD SWAP1 PUSH2 0xF63 JUMP JUMPDEST SWAP1 SWAP2 POP PUSH1 0x8 DUP5 ADD PUSH1 0x0 MSTORE PUSH1 0x20 PUSH1 0x0 KECCAK256 PUSH1 0x1F DUP5 ADD PUSH1 0x5 SHR DUP2 ADD PUSH1 0x20 DUP6 LT PUSH2 0x100E JUMPI JUMPDEST SWAP1 DUP5 SWAP4 SWAP3 SWAP2 JUMPDEST PUSH1 0x1F DUP4 ADD PUSH1 0x5 SHR DUP3 ADD DUP2 LT PUSH2 0xFFF JUMPI POP POP PUSH2 0xAEF JUMP JUMPDEST PUSH1 0x0 DUP2 SSTORE DUP6 SWAP5 POP PUSH1 0x1 ADD PUSH2 0xFE9 JUMP JUMPDEST POP DUP1 PUSH2 0xFE3 JUMP JUMPDEST ADD MLOAD SWAP1 POP DUP4 DUP1 PUSH2 0xAA7 JUMP JUMPDEST SWAP3 POP PUSH1 0x7 DUP5 ADD PUSH1 0x0 MSTORE PUSH1 0x20 PUSH1 0x0 KECCAK256 SWAP1 PUSH1 0x0 SWAP4 JUMPDEST PUSH1 0x1F NOT DUP5 AND DUP6 LT PUSH2 0x1077 JUMPI PUSH1 0x1 SWAP5 POP DUP4 PUSH1 0x1F NOT DUP2 AND LT PUSH2 0x105E JUMPI JUMPDEST POP POP POP DUP2 SHL ADD PUSH1 0x7 DUP3 ADD SSTORE PUSH2 0xABF JUMP JUMPDEST ADD MLOAD PUSH1 0x0 NOT PUSH1 0xF8 DUP5 PUSH1 0x3 SHL AND SHR NOT AND SWAP1 SSTORE DUP4 DUP1 DUP1 PUSH2 0x104E JUMP JUMPDEST DUP2 DUP2 ADD MLOAD DUP4 SSTORE PUSH1 0x20 SWAP5 DUP6 ADD SWAP5 PUSH1 0x1 SWAP1 SWAP4 ADD SWAP3 SWAP1 SWAP2 ADD SWAP1 PUSH2 0x1033 JUMP JUMPDEST SWAP1 SWAP2 POP PUSH1 0x7 DUP5 ADD PUSH1 0x0 MSTORE PUSH1 0x20 PUSH1 0x0 KECCAK256 PUSH1 0x1F DUP5 ADD PUSH1 0x5 SHR DUP2 ADD PUSH1 0x20 DUP6 LT PUSH2 0x10DE JUMPI JUMPDEST SWAP1 DUP5 SWAP4 SWAP3 SWAP2 JUMPDEST PUSH1 0x1F DUP4 ADD PUSH1 0x5 SHR DUP3 ADD DUP2 LT PUSH2 0x10CF JUMPI POP POP PUSH2 0xA90 JUMP JUMPDEST PUSH1 0x0 DUP2 SSTORE DUP6 SWAP5 POP PUSH1 0x1 ADD PUSH2 0x10B9 JUMP JUMPDEST POP DUP1 PUSH2 0x10B3 JUMP JUMPDEST ADD MLOAD SWAP1 POP DUP4 DUP1 PUSH2 0xA47 JUMP JUMPDEST SWAP3 POP PUSH1 0x6 DUP5 ADD PUSH1 0x0 MSTORE PUSH1 0x20 PUSH1 0x0 KECCAK256 SWAP1 PUSH1 0x0 SWAP4 JUMPDEST PUSH1 0x1F NOT DUP5 AND DUP6 LT PUSH2 0x1147 JUMPI PUSH1 0x1 SWAP5 POP DUP4 PUSH1 0x1F NOT DUP2 AND LT PUSH2 0x112E JUMPI JUMPDEST POP POP POP DUP2 SHL ADD PUSH1 0x6 DUP3 ADD SSTORE PUSH2 0xA5F JUMP JUMPDEST ADD MLOAD PUSH1 0x0 NOT PUSH1 0xF8 DUP5 PUSH1 0x3 SHL AND SHR NOT AND SWAP1 SSTORE DUP4 DUP1 DUP1 PUSH2 0x111E JUMP JUMPDEST DUP2 DUP2 ADD MLOAD DUP4 SSTORE PUSH1 0x20 SWAP5 DUP6 ADD SWAP5 PUSH1 0x1 SWAP1 SWAP4 ADD SWAP3 SWAP1 SWAP2 ADD SWAP1 PUSH2 0x1103 JUMP JUMPDEST SWAP1 SWAP2 POP PUSH1 0x6 DUP5 ADD PUSH1 0x0 MSTORE PUSH1 0x20 PUSH1 0x0 KECCAK256 PUSH1 0x1F DUP5 ADD PUSH1 0x5 SHR DUP2 ADD PUSH1 0x20 DUP6 LT PUSH2 0x11AE JUMPI JUMPDEST SWAP1 DUP5 SWAP4 SWAP3 SWAP2 JUMPDEST PUSH1 0x1F DUP4 ADD PUSH1 0x5 SHR DUP3 ADD DUP2 LT PUSH2 0x119F JUMPI POP POP PUSH2 0xA30 JUMP JUMPDEST PUSH1 0x0 DUP2 SSTORE DUP6 SWAP5 POP PUSH1 0x1 ADD PUSH2 0x1189 JUMP JUMPDEST POP DUP1 PUSH2 0x1183 JUMP JUMPDEST ADD MLOAD SWAP1 POP DUP4 DUP1 PUSH2 0x9E7 JUMP JUMPDEST SWAP3 POP PUSH1 0x5 DUP5 ADD PUSH1 0x0 MSTORE PUSH1 0x20 PUSH1 0x0 KECCAK256 SWAP1 PUSH1 0x0 SWAP4 JUMPDEST PUSH1 0x1F NOT DUP5 AND DUP6 LT PUSH2 0x1217 JUMPI PUSH1 0x1 SWAP5 POP DUP4 PUSH1 0x1F NOT DUP2 AND LT PUSH2 0x11FE JUMPI JUMPDEST POP POP POP DUP2 SHL ADD PUSH1 0x5 DUP3 ADD SSTORE PUSH2 0x9FF JUMP JUMPDEST ADD MLOAD PUSH1 0x0 NOT PUSH1 0xF8 DUP5 PUSH1 0x3 SHL AND SHR NOT AND SWAP1 SSTORE DUP4 DUP1 DUP1 PUSH2 0x11EE JUMP JUMPDEST DUP2 DUP2 ADD MLOAD DUP4 SSTORE PUSH1 0x20 SWAP5 DUP6 ADD SWAP5 PUSH1 0x1 SWAP1 SWAP4 ADD SWAP3 SWAP1 SWAP2 ADD SWAP1 PUSH2 0x11D3 JUMP JUMPDEST SWAP1 SWAP2 POP PUSH1 0x5 DUP5 ADD PUSH1 0x0 MSTORE PUSH1 0x20 PUSH1 0x0 KECCAK256 PUSH1 0x1F DUP5 ADD PUSH1 0x5 SHR DUP2 ADD PUSH1 0x20 DUP6 LT PUSH2 0x127E JUMPI JUMPDEST SWAP1 DUP5 SWAP4 SWAP3 SWAP2 JUMPDEST PUSH1 0x1F DUP4 ADD PUSH1 0x5 SHR DUP3 ADD DUP2 LT PUSH2 0x126F JUMPI POP POP PUSH2 0x9D0 JUMP JUMPDEST PUSH1 0x0 DUP2 SSTORE DUP6 SWAP5 POP PUSH1 0x1 ADD PUSH2 0x1259 JUMP JUMPDEST POP DUP1 PUSH2 0x1253 JUMP JUMPDEST ADD MLOAD SWAP1 POP DUP4 DUP1 PUSH2 0x987 JUMP JUMPDEST SWAP3 POP PUSH1 0x4 DUP5 ADD PUSH1 0x0 MSTORE PUSH1 0x20 PUSH1 0x0 KECCAK256 SWAP1 PUSH1 0x0 SWAP4 JUMPDEST PUSH1 0x1F NOT DUP5 AND DUP6 LT PUSH2 0x12E7 JUMPI PUSH1 0x1 SWAP5 POP DUP4 PUSH1 0x1F NOT DUP2 AND LT PUSH2 0x12CE JUMPI JUMPDEST POP POP POP DUP2 SHL ADD PUSH1 0x4 DUP3 ADD SSTORE PUSH2 0x99F JUMP JUMPDEST ADD MLOAD PUSH1 0x0 NOT PUSH1 0xF8 DUP5 PUSH1 0x3 SHL AND SHR NOT AND SWAP1 SSTORE DUP4 DUP1 DUP1 PUSH2 0x12BE JUMP JUMPDEST DUP2 DUP2 ADD MLOAD DUP4 SSTORE PUSH1 0x20 SWAP5 DUP6 ADD SWAP5 PUSH1 0x1 SWAP1 SWAP4 ADD SWAP3 SWAP1 SWAP2 ADD SWAP1 PUSH2 0x12A3 JUMP JUMPDEST SWAP1 SWAP2 POP PUSH1 0x4 DUP5 ADD PUSH1 0x0 MSTORE PUSH1 0x20 PUSH1 0x0 KECCAK256 PUSH1 0x1F DUP5 ADD PUSH1 0x5 SHR DUP2 ADD PUSH1 0x20 DUP6 LT PUSH2 0x134E JUMPI JUMPDEST SWAP1 DUP5 SWAP4 SWAP3 SWAP2 JUMPDEST PUSH1 0x1F DUP4 ADD PUSH1 0x5 SHR DUP3 ADD DUP2 LT PUSH2 0x133F JUMPI POP POP PUSH2 0x970 JUMP JUMPDEST PUSH1 0x0 DUP2 SSTORE DUP6 SWAP5 POP PUSH1 0x1 ADD PUSH2 0x1329 JUMP JUMPDEST POP DUP1 PUSH2 0x1323 JUMP JUMPDEST ADD MLOAD SWAP1 POP DUP4 DUP1 PUSH2 0x927 JUMP JUMPDEST SWAP3 POP PUSH1 0x3 DUP5 ADD PUSH1 0x0 MSTORE PUSH1 0x20 PUSH1 0x0 KECCAK256 SWAP1 PUSH1 0x0 SWAP4 JUMPDEST PUSH1 0x1F NOT DUP5 AND DUP6 LT PUSH2 0x13B7 JUMPI PUSH1 0x1 SWAP5 POP DUP4 PUSH1 0x1F NOT DUP2 AND LT PUSH2 0x139E JUMPI JUMPDEST POP POP POP DUP2 SHL ADD PUSH1 0x3 DUP3 ADD SSTORE PUSH2 0x93F JUMP JUMPDEST ADD MLOAD PUSH1 0x0 NOT PUSH1 0xF8 DUP5 PUSH1 0x3 SHL AND SHR NOT AND SWAP1 SSTORE DUP4 DUP1 DUP1 PUSH2 0x138E JUMP JUMPDEST DUP2 DUP2 ADD MLOAD DUP4 SSTORE PUSH1 0x20 SWAP5 DUP6 ADD SWAP5 PUSH1 0x1 SWAP1 SWAP4 ADD SWAP3 SWAP1 SWAP2 ADD SWAP1 PUSH2 0x1373 JUMP JUMPDEST SWAP1 SWAP2 POP PUSH1 0x3 DUP5 ADD PUSH1 0x0 MSTORE PUSH1 0x20 PUSH1 0x0 KECCAK256 PUSH1 0x1F DUP5 ADD PUSH1 0x5 SHR DUP2 ADD PUSH1 0x20 DUP6 LT PUSH2 0x141E JUMPI JUMPDEST SWAP1 DUP5 SWAP4 SWAP3 SWAP2 JUMPDEST PUSH1 0x1F DUP4 ADD PUSH1 0x5 SHR DUP3 ADD DUP2 LT PUSH2 0x140F JUMPI POP POP PUSH2 0x910 JUMP JUMPDEST PUSH1 0x0 DUP2 SSTORE DUP6 SWAP5 POP PUSH1 0x1 ADD PUSH2 0x13F9 JUMP JUMPDEST POP DUP1 PUSH2 0x13F3 JUMP JUMPDEST ADD MLOAD SWAP1 POP DUP4 DUP1 PUSH2 0x8C7 JUMP JUMPDEST SWAP3 POP PUSH1 0x2 DUP5 ADD PUSH1 0x0 MSTORE PUSH1 0x20 PUSH1 0x0 KECCAK256 SWAP1 PUSH1 0x0 SWAP4 JUMPDEST PUSH1 0x1F NOT DUP5 AND DUP6 LT PUSH2 0x1487 JUMPI PUSH1 0x1 SWAP5 POP DUP4 PUSH1 0x1F NOT DUP2 AND LT PUSH2 0x146E JUMPI JUMPDEST POP POP POP DUP2 SHL ADD PUSH1 0x2 DUP3 ADD SSTORE PUSH2 0x8DF JUMP JUMPDEST ADD MLOAD PUSH1 0x0 NOT PUSH1 0xF8 DUP5 PUSH1 0x3 SHL AND SHR NOT AND SWAP1 SSTORE DUP4 DUP1 DUP1 PUSH2 0x145E JUMP JUMPDEST DUP2 DUP2 ADD MLOAD DUP4 SSTORE PUSH1 0x20 SWAP5 DUP6 ADD SWAP5 PUSH1 0x1 SWAP1 SWAP4 ADD SWAP3 SWAP1 SWAP2 ADD SWAP1 PUSH2 0x1443 JUMP JUMPDEST SWAP1 SWAP2 POP PUSH1 0x2 DUP5 ADD PUSH1 0x0 MSTORE PUSH1 0x20 PUSH1 0x0 KECCAK256 PUSH1 0x1F DUP5 ADD PUSH1 0x5 SHR DUP2 ADD PUSH1 0x20 DUP6 LT PUSH2 0x14EE JUMPI JUMPDEST SWAP1 DUP5 SWAP4 SWAP3 SWAP2 JUMPDEST PUSH1 0x1F DUP4 ADD PUSH1 0x5 SHR DUP3 ADD DUP2 LT PUSH2 0x14DF JUMPI POP POP PUSH2 0x8B0 JUMP JUMPDEST PUSH1 0x0 DUP2 SSTORE DUP6 SWAP5 POP PUSH1 0x1 ADD PUSH2 0x14C9 JUMP JUMPDEST POP DUP1 PUSH2 0x14C3 JUMP JUMPDEST ADD MLOAD SWAP1 POP DUP4 DUP1 PUSH2 0x867 JUMP JUMPDEST SWAP3 POP PUSH1 0x1 DUP5 ADD PUSH1 0x0 MSTORE PUSH1 0x20 PUSH1 0x0 KECCAK256 SWAP1 PUSH1 0x0 SWAP4 JUMPDEST PUSH1 0x1F NOT DUP5 AND DUP6 LT PUSH2 0x1557 JUMPI PUSH1 0x1 SWAP5 POP DUP4 PUSH1 0x1F NOT DUP2 AND LT PUSH2 0x153E JUMPI JUMPDEST POP POP POP DUP2 SHL ADD PUSH1 0x1 DUP3 ADD SSTORE PUSH2 0x87F JUMP JUMPDEST ADD MLOAD PUSH1 0x0 NOT PUSH1 0xF8 DUP5 PUSH1 0x3 SHL AND SHR NOT AND SWAP1 SSTORE DUP4 DUP1 DUP1 PUSH2 0x152E JUMP JUMPDEST DUP2 DUP2 ADD MLOAD DUP4 SSTORE PUSH1 0x20 SWAP5 DUP6 ADD SWAP5 PUSH1 0x1 SWAP1 SWAP4 ADD SWAP3 SWAP1 SWAP2 ADD SWAP1 PUSH2 0x1513 JUMP JUMPDEST SWAP1 SWAP2 POP PUSH1 0x1 DUP5 ADD PUSH1 0x0 MSTORE PUSH1 0x20 PUSH1 0x0 KECCAK256 PUSH1 0x1F DUP5 ADD PUSH1 0x5 SHR DUP2 ADD PUSH1 0x20 DUP6 LT PUSH2 0x15BE JUMPI JUMPDEST SWAP1 DUP5 SWAP4 SWAP3 SWAP2 JUMPDEST PUSH1 0x1F DUP4 ADD PUSH1 0x5 SHR DUP3 ADD DUP2 LT PUSH2 0x15AF JUMPI POP POP PUSH2 0x850 JUMP JUMPDEST PUSH1 0x0 DUP2 SSTORE DUP6 SWAP5 POP PUSH1 0x1 ADD PUSH2 0x1599 JUMP JUMPDEST POP DUP1 PUSH2 0x1593 JUMP JUMPDEST ADD MLOAD SWAP1 POP DUP4 DUP1 PUSH2 0x80A JUMP JUMPDEST SWAP3 POP DUP4 PUSH1 0x0 MSTORE PUSH1 0x20 PUSH1 0x0 KECCAK256 SWAP1 PUSH1 0x0 SWAP4 JUMPDEST PUSH1 0x1F NOT DUP5 AND DUP6 LT PUSH2 0x1621 JUMPI PUSH1 0x1 SWAP5 POP DUP4 PUSH1 0x1F NOT DUP2 AND LT PUSH2 0x1608 JUMPI JUMPDEST POP POP POP DUP2 SHL ADD DUP2 SSTORE PUSH2 0x81F JUMP JUMPDEST ADD MLOAD PUSH1 0x0 NOT PUSH1 0xF8 DUP5 PUSH1 0x3 SHL AND SHR NOT AND SWAP1 SSTORE DUP4 DUP1 DUP1 PUSH2 0x15FB JUMP JUMPDEST DUP2 DUP2 ADD MLOAD DUP4 SSTORE PUSH1 0x20 SWAP5 DUP6 ADD SWAP5 PUSH1 0x1 SWAP1 SWAP4 ADD SWAP3 SWAP1 SWAP2 ADD SWAP1 PUSH2 0x15E0 JUMP JUMPDEST SWAP1 SWAP2 POP DUP4 PUSH1 0x0 MSTORE PUSH1 0x20 PUSH1 0x0 KECCAK256 PUSH1 0x1F DUP5 ADD PUSH1 0x5 SHR DUP2 ADD PUSH1 0x20 DUP6 LT PUSH2 0x1685 JUMPI JUMPDEST SWAP1 DUP5 SWAP4 SWAP3 SWAP2 JUMPDEST PUSH1 0x1F DUP4 ADD PUSH1 0x5 SHR DUP3 ADD DUP2 LT PUSH2 0x1676 JUMPI POP POP PUSH2 0x7F3 JUMP JUMPDEST PUSH1 0x0 DUP2 SSTORE DUP6 SWAP5 POP PUSH1 0x1 ADD PUSH2 0x1660 JUMP JUMPDEST POP DUP1 PUSH2 0x165A JUMP JUMPDEST PUSH1 0x40 MLOAD PUSH3 0x461BCD PUSH1 0xE5 SHL DUP2 MSTORE PUSH1 0x20 PUSH1 0x4 DUP3 ADD MSTORE PUSH1 0xB PUSH1 0x24 DUP3 ADD MSTORE PUSH11 0x139BDD081CDD195DD85C99 PUSH1 0xAA SHL PUSH1 0x44 DUP3 ADD MSTORE PUSH1 0x64 SWAP1 REVERT JUMPDEST CALLVALUE PUSH2 0xA4 JUMPI PUSH1 0x0 CALLDATASIZE PUSH1 0x3 NOT ADD SLT PUSH2 0xA4 JUMPI PUSH1 0x20 SWAP1 PUSH1 0x2 SLOAD DUP2 MSTORE RETURN JUMPDEST PUSH1 0x4 CALLDATALOAD SWAP1 PUSH1 0x1 PUSH1 0x1 PUSH1 0xA0 SHL SUB DUP3 AND DUP3 SUB PUSH2 0xA4 JUMPI JUMP JUMPDEST SWAP2 DUP2 PUSH1 0x1F DUP5 ADD SLT ISZERO PUSH2 0xA4 JUMPI DUP3 CALLDATALOAD SWAP2 PUSH1 0x1 PUSH1 0x1 PUSH1 0x40 SHL SUB DUP4 GT PUSH2 0xA4 JUMPI PUSH1 0x20 DUP4 DUP2 DUP7 ADD SWAP6 ADD ADD GT PUSH2 0xA4 JUMPI JUMP JUMPDEST SWAP1 PUSH1 0x1 DUP3 DUP2 SHR SWAP3 AND DUP1 ISZERO PUSH2 0x174D JUMPI JUMPDEST PUSH1 0x20 DUP4 LT EQ PUSH2 0x1737 JUMPI JUMP JUMPDEST PUSH4 0x4E487B71 PUSH1 0xE0 SHL PUSH1 0x0 MSTORE PUSH1 0x22 PUSH1 0x4 MSTORE PUSH1 0x24 PUSH1 0x0 REVERT JUMPDEST SWAP2 PUSH1 0x7F AND SWAP2 PUSH2 0x172C JUMP JUMPDEST PUSH2 0x160 DUP2 ADD SWAP1 DUP2 LT PUSH1 0x1 PUSH1 0x1 PUSH1 0x40 SHL SUB DUP3 GT OR PUSH2 0xD9F JUMPI PUSH1 0x40 MSTORE JUMP JUMPDEST SWAP1 PUSH1 0x1F DUP1 NOT SWAP2 ADD AND DUP2 ADD SWAP1 DUP2 LT PUSH1 0x1 PUSH1 0x1 PUSH1 0x40 SHL SUB DUP3 GT OR PUSH2 0xD9F JUMPI PUSH1 0x40 MSTORE JUMP JUMPDEST SWAP1 PUSH1 0x40 MLOAD SWAP2 DUP3 PUSH1 0x0 DUP3 SLOAD SWAP3 PUSH2 0x17A8 DUP5 PUSH2 0x171D JUMP JUMPDEST SWAP1 DUP2 DUP5 MSTORE PUSH1 0x1 SWAP5 DUP6 DUP2 AND SWAP1 DUP2 PUSH1 0x0 EQ PUSH2 0x1817 JUMPI POP PUSH1 0x1 EQ PUSH2 0x17D4 JUMPI JUMPDEST POP POP PUSH2 0x17D2 SWAP3 POP SUB DUP4 PUSH2 0x1773 JUMP JUMPDEST JUMP JUMPDEST SWAP1 SWAP4 SWAP2 POP PUSH1 0x0 MSTORE PUSH1 0x20 SWAP1 DUP2 PUSH1 0x0 KECCAK256 SWAP4 PUSH1 0x0 SWAP2 JUMPDEST DUP2 DUP4 LT PUSH2 0x17FF JUMPI POP POP PUSH2 0x17D2 SWAP4 POP DUP3 ADD ADD CODESIZE DUP1 PUSH2 0x17C4 JUMP JUMPDEST DUP6 SLOAD DUP9 DUP5 ADD DUP6 ADD MSTORE SWAP5 DUP6 ADD SWAP5 DUP8 SWAP5 POP SWAP2 DUP4 ADD SWAP2 PUSH2 0x17E7 JUMP JUMPDEST SWAP2 POP POP PUSH2 0x17D2 SWAP5 POP PUSH1 0x20 SWAP3 POP PUSH1 0xFF NOT AND DUP3 DUP5 ADD MSTORE ISZERO ISZERO PUSH1 0x5 SHL DUP3 ADD ADD CODESIZE DUP1 PUSH2 0x17C4 JUMP JUMPDEST SWAP2 SWAP1 DUP3 MLOAD SWAP3 DUP4 DUP3 MSTORE PUSH1 0x0 JUMPDEST DUP5 DUP2 LT PUSH2 0x1866 JUMPI POP POP DUP3 PUSH1 0x0 PUSH1 0x20 DUP1 SWAP5 SWAP6 DUP5 ADD ADD MSTORE PUSH1 0x1F DUP1 NOT SWAP2 ADD AND ADD ADD SWAP1 JUMP JUMPDEST PUSH1 0x20 DUP2 DUP4 ADD DUP2 ADD MLOAD DUP5 DUP4 ADD DUP3 ADD MSTORE ADD PUSH2 0x1845 JUMP JUMPDEST PUSH1 0x2 SLOAD DUP2 LT ISZERO PUSH2 0x18B1 JUMPI PUSH1 0x2 PUSH1 0x0 MSTORE PUSH32 0x405787FA12A823E0F2B7631CC41B3BA8828B3321CA811111FA75CD3AA3BB5ACE ADD SWAP1 PUSH1 0x0 SWAP1 JUMP JUMPDEST PUSH4 0x4E487B71 PUSH1 0xE0 SHL PUSH1 0x0 MSTORE PUSH1 0x32 PUSH1 0x4 MSTORE PUSH1 0x24 PUSH1 0x0 REVERT JUMPDEST SWAP3 SWAP2 SWAP3 PUSH1 0x1 PUSH1 0x1 PUSH1 0x40 SHL SUB DUP3 GT PUSH2 0xD9F JUMPI PUSH1 0x40 MLOAD SWAP2 PUSH2 0x18F0 PUSH1 0x1F DUP3 ADD PUSH1 0x1F NOT AND PUSH1 0x20 ADD DUP5 PUSH2 0x1773 JUMP JUMPDEST DUP3 SWAP5 DUP2 DUP5 MSTORE DUP2 DUP4 ADD GT PUSH2 0xA4 JUMPI DUP3 DUP2 PUSH1 0x20 SWAP4 DUP5 PUSH1 0x0 SWAP7 ADD CALLDATACOPY ADD ADD MSTORE JUMP JUMPDEST SWAP1 DUP1 PUSH1 0x20 SWAP4 SWAP3 DUP2 DUP5 MSTORE DUP5 DUP5 ADD CALLDATACOPY PUSH1 0x0 DUP3 DUP3 ADD DUP5 ADD MSTORE PUSH1 0x1F ADD PUSH1 0x1F NOT AND ADD ADD SWAP1 JUMP INVALID LOG2 PUSH5 0x6970667358 0x22 SLT KECCAK256 0xAE COINBASE SUB DUP1 CALLCODE DUP8 0xD2 0xA9 PUSH12 0xF03FE586DE5D09B99B060920 ADDRESS BASEFEE 0x4C COINBASE BYTE LOG2 0xB2 0xA5 SGT JUMPI PUSH10 0x64736F6C634300081400 CALLER "},"methodIdentifiers":{"apprentices(uint256)":"f31bee3e","getSummons(address)":"cf84c603","steward()":"637eea19","summonApprentice(address,string,string,string,string,string,string,string,string,string,string,string)":"511cef7f","summons(address)":"5a2ed662","totalSummons()":"2a17d4cd"}}}}}