{"contracts/codex/SpiralboundCodexXVI.sol":{"SpiralboundCodexXVI":{"abi":[{"inputs":[],"stateMutability":"nonpayable","type":"constructor"},{"anonymous":false,"inputs":[{"indexed":false,"internalType":"string","name":"glyph","type":"string"},{"indexed":false,"internalType":"string","name":"tag","type":"string"},{"indexed":false,"internalType":"string","name":"binding","type":"string"},{"indexed":false,"internalType":"string","name":"annotation","type":"string"},{"indexed":false,"internalType":"string","name":"lineage","type":"string"},{"indexed":false,"internalType":"string","name":"resonance","type":"string"},{"indexed":false,"internalType":"string","name":"protocol","type":"string"},{"indexed":false,"internalType":"string","name":"sanctum","type":"string"},{"indexed":false,"internalType":"string","name":"pulse","type":"string"},{"indexed":false,"internalType":"string","name":"chant","type":"string"},{"indexed":false,"internalType":"string","name":"choreography","type":"string"},{"indexed":false,"internalType":"string","name":"drift","type":"string"},{"indexed":false,"internalType":"string","name":"signature","type":"string"},{"indexed":false,"internalType":"string","name":"signal","type":"string"},{"indexed":false,"internalType":"string","name":"companion","type":"string"},{"indexed":false,"internalType":"string","name":"stewardName","type":"string"},{"indexed":false,"internalType":"string","name":"registry","type":"string"}],"name":"CodexInscribed","type":"event"},{"inputs":[{"internalType":"string","name":"","type":"string"}],"name":"codices","outputs":[{"internalType":"string","name":"tag","type":"string"},{"internalType":"string","name":"binding","type":"string"},{"internalType":"string","name":"annotation","type":"string"},{"internalType":"string","name":"lineage","type":"string"},{"internalType":"string","name":"resonance","type":"string"},{"internalType":"string","name":"protocol","type":"string"},{"internalType":"string","name":"sanctum","type":"string"},{"internalType":"string","name":"pulse","type":"string"},{"internalType":"string","name":"chant","type":"string"},{"internalType":"string","name":"choreography","type":"string"},{"internalType":"string","name":"drift","type":"string"},{"internalType":"string","name":"signature","type":"string"},{"internalType":"string","name":"signal","type":"string"},{"internalType":"string","name":"companion","type":"string"},{"internalType":"string","name":"stewardName","type":"string"},{"internalType":"string","name":"registry","type":"string"}],"stateMutability":"view","type":"function"},{"inputs":[{"internalType":"string","name":"glyph","type":"string"}],"name":"getCodex","outputs":[{"components":[{"internalType":"string","name":"tag","type":"string"},{"internalType":"string","name":"binding","type":"string"},{"internalType":"string","name":"annotation","type":"string"},{"internalType":"string","name":"lineage","type":"string"},{"internalType":"string","name":"resonance","type":"string"},{"internalType":"string","name":"protocol","type":"string"},{"internalType":"string","name":"sanctum","type":"string"},{"internalType":"string","name":"pulse","type":"string"},{"internalType":"string","name":"chant","type":"string"},{"internalType":"string","name":"choreography","type":"string"},{"internalType":"string","name":"drift","type":"string"},{"internalType":"string","name":"signature","type":"string"},{"internalType":"string","name":"signal","type":"string"},{"internalType":"string","name":"companion","type":"string"},{"internalType":"string","name":"stewardName","type":"string"},{"internalType":"string","name":"registry","type":"string"}],"internalType":"struct SpiralboundCodexXVI.Codex","name":"","type":"tuple"}],"stateMutability":"view","type":"function"},{"inputs":[{"internalType":"string","name":"glyph","type":"string"},{"internalType":"string","name":"tag","type":"string"},{"internalType":"string","name":"binding","type":"string"},{"internalType":"string","name":"annotation","type":"string"},{"internalType":"string","name":"lineage","type":"string"},{"internalType":"string","name":"resonance","type":"string"},{"internalType":"string","name":"protocol","type":"string"},{"internalType":"string","name":"sanctum","type":"string"},{"internalType":"string","name":"pulse","type":"string"},{"internalType":"string","name":"chant","type":"string"},{"internalType":"string","name":"choreography","type":"string"},{"internalType":"string","name":"drift","type":"string"},{"internalType":"string","name":"signature","type":"string"},{"internalType":"string","name":"signal","type":"string"},{"internalType":"string","name":"companion","type":"string"},{"internalType":"string","name":"stewardName","type":"string"},{"internalType":"string","name":"registry","type":"string"}],"name":"inscribeCodex","outputs":[],"stateMutability":"nonpayable","type":"function"},{"inputs":[{"internalType":"uint256","name":"","type":"uint256"}],"name":"keys","outputs":[{"internalType":"string","name":"","type":"string"}],"stateMutability":"view","type":"function"},{"inputs":[],"name":"steward","outputs":[{"internalType":"address","name":"","type":"address"}],"stateMutability":"view","type":"function"},{"inputs":[],"name":"totalCodices","outputs":[{"internalType":"uint256","name":"","type":"uint256"}],"stateMutability":"view","type":"function"}],"evm":{"bytecode":{"linkReferences":{},"object":"6080806040523461002857600080546001600160a01b03191633179055611fbd908161002e8239f35b600080fdfe610520604052600436101561001357600080fd5b60003560e01c80630cb6aaf114611ca2578063637eea1914611c7957806383361522146118f5578063b2b3584d1461031a578063c212d16b146102fc5763dbc214241461005f57600080fd5b346102f75760203660031901126102f7576004356001600160401b0381116102f757366023820112156102f75736816004013591602401916100a092611ecc565b60405181818093516020819301916100b792611e57565b8101600181520360200190206100cc81611db1565b90806100da60018201611db1565b6100e660028301611db1565b6100f260038401611db1565b6100fe60048501611db1565b61010a60058601611db1565b61011660068701611db1565b61012260078801611db1565b9061012f60088901611db1565b9261013c60098a01611db1565b94610149600a8b01611db1565b96610156600b8c01611db1565b98610163600c8d01611db1565b9a610170600d8e01611db1565b9c600e0161017d90611db1565b9d600f0161018a90611db1565b9e604051806104405261020080915261044051016101a791611e7a565b6104405180820390602001526101bc91611e7a565b6104405180820390604001526101d191611e7a565b6104405180820390606001526101e691611e7a565b6104405180820390608001526101fb91611e7a565b610440518082039060a0015261021091611e7a565b610440518082039060c0015261022591611e7a565b610440518082039060e0015261023a91611e7a565b6104405180820390610100015261025091611e7a565b6104405180820390610120015261026691611e7a565b6104405180820390610140015261027c91611e7a565b6104405180820390610160015261029291611e7a565b610440518082039061018001526102a891611e7a565b61044051808203906101a001526102be91611e7a565b61044051808203906101c001526102d491611e7a565b9061044051808303906101e0015261044051916102f091611e7a565b0361044051f35b600080fd5b346102f75760003660031901126102f7576020600254604051908152f35b346102f7576102203660031901126102f7576004356001600160401b0381116102f75761034b903690600401611e9f565b6103a052610120526024356001600160401b0381116102f757610372903690600401611e9f565b610200526103e0526044356001600160401b0381116102f757610399903690600401611e9f565b6104e0526101e0526064356001600160401b0381116102f7576103c0903690600401611e9f565b61038052610320526084356001600160401b0381116102f7576103e7903690600401611e9f565b610360526103405260a4356001600160401b0381116102f75761040e903690600401611e9f565b610400526104605260c4356001600160401b0381116102f757610435903690600401611e9f565b61022052610140526001600160401b0360e435116102f75761045c3660e435600401611e9f565b6103c05260e0526001600160401b0361010435116102f7576104843661010435600401611e9f565b60a052610180526001600160401b0361012435116102f7576104ac3661012435600401611e9f565b610100526102c052610144356001600160401b0381116102f7576104d4903690600401611e9f565b610160526104a052610164356001600160401b0381116102f7576104fc903690600401611e9f565b6102605261050052610184356001600160401b0381116102f757610524903690600401611e9f565b610300526080526101a4356001600160401b0381116102f75761054b903690600401611e9f565b6101c05260c0526101c4356001600160401b0381116102f757610572903690600401611e9f565b6102a0526104c0526101e4356001600160401b0381116102f75761059a903690600401611e9f565b6102e05261042052610204356001600160401b0381116102f7576105c2903690600401611e9f565b61048052610240526000546001600160a01b031633036118c2576105ec604051806101a052611d74565b6105fd36610200516103e051611ecc565b6101a05152610613366104e0516101e051611ecc565b60206101a051015261062c366103805161032051611ecc565b60406101a0510152610645366103605161034051611ecc565b60606101a051015261065e366104005161046051611ecc565b60806101a0510152610677366102205161014051611ecc565b60a06101a051015261068f366103c05160e051611ecc565b60c06101a05101526106a73660a05161018051611ecc565b60e06101a05101526106c036610100516102c051611ecc565b6101006101a05101526106da36610160516104a051611ecc565b6101206101a05101526106f4366102605161050051611ecc565b6101406101a051015261070d3661030051608051611ecc565b6101606101a0510152610726366101c05160c051611ecc565b6101806101a0510152610740366102a0516104c051611ecc565b6101a080510152610758366102e05161042051611ecc565b6101c06101a0510152610772366104805161024051611ecc565b6101e06101a05101526040516103a05161012051823760016103a0518201526020816103a0518101030190206101a051518051906001600160401b0382116110d95781906107ca826107c48654611d3a565b86611f12565b602090601f83116001146118565760009261184b575b50508160011b916000199060031b1c19161781555b60206101a05101518051906001600160401b0382116110d957819061082a826108216001870154611d3a565b60018701611f12565b602090601f83116001146117d9576000926117ce575b50508160011b916000199060031b1c19161760018201555b60406101a05101518051906001600160401b0382116110d957819061088d826108846002870154611d3a565b60028701611f12565b602090601f831160011461175c57600092611751575b50508160011b916000199060031b1c19161760028201555b60606101a05101518051906001600160401b0382116110d95781906108f0826108e76003870154611d3a565b60038701611f12565b602090601f83116001146116df576000926116d4575b50508160011b916000199060031b1c19161760038201555b60806101a05101518051906001600160401b0382116110d95781906109538261094a6004870154611d3a565b60048701611f12565b602090601f831160011461166257600092611657575b50508160011b916000199060031b1c19161760048201555b60a06101a05101518051906001600160401b0382116110d95781906109b6826109ad6005870154611d3a565b60058701611f12565b602090601f83116001146115e5576000926115da575b50508160011b916000199060031b1c19161760058201555b60c06101a05101518051906001600160401b0382116110d9578190610a1982610a106006870154611d3a565b60068701611f12565b602090601f83116001146115685760009261155d575b50508160011b916000199060031b1c19161760068201555b60e06101a05101518051906001600160401b0382116110d9578190610a7c82610a736007870154611d3a565b60078701611f12565b602090601f83116001146114eb576000926114e0575b50508160011b916000199060031b1c19161760078201555b6101006101a05101518051906001600160401b0382116110d9578190610ae082610ad76008870154611d3a565b60088701611f12565b602090601f831160011461146e57600092611463575b50508160011b916000199060031b1c19161760088201555b6101206101a05101518051906001600160401b0382116110d9578190610b4482610b3b6009870154611d3a565b60098701611f12565b602090601f83116001146113f1576000926113e6575b50508160011b916000199060031b1c19161760098201555b6101406101a05101518051906001600160401b0382116110d9578190610ba882610b9f600a870154611d3a565b600a8701611f12565b602090601f831160011461137457600092611369575b50508160011b916000199060031b1c191617600a8201555b6101606101a05101518051906001600160401b0382116110d9578190610c0c82610c03600b870154611d3a565b600b8701611f12565b602090601f83116001146112f7576000926112ec575b50508160011b916000199060031b1c191617600b8201555b6101806101a05101518051906001600160401b0382116110d9578190610c7082610c67600c870154611d3a565b600c8701611f12565b602090601f831160011461127a5760009261126f575b50508160011b916000199060031b1c191617600c8201555b6101a0805101518051906001600160401b0382116110d9578190610cd282610cc9600d870154611d3a565b600d8701611f12565b602090601f83116001146111fd576000926111f2575b50508160011b916000199060031b1c191617600d8201555b6101c06101a05101518051906001600160401b0382116110d9578190610d3682610d2d600e870154611d3a565b600e8701611f12565b602090601f831160011461118057600092611175575b50508160011b916000199060031b1c191617600e8201555b6101e06101a0510151908151906001600160401b0382116110d957600f0190610d9781610d918454611d3a565b84611f12565b6020601f821160011461111057819293600092611105575b50508160011b916000199060031b1c19161790555b600254680100000000000000008110156110d957806001610de89201600255611ced565b6110ef576103a0516001600160401b0381116110d957610e1290610e0c8354611d3a565b83611f12565b6000906103a051601f811160011461106c57509060006103a051918261105e575b508160011b916000199060031b1c19161790555b6102206040518061028052527f8d61808eb4fbc666ded2d2ecd84da8481e4f3db9633740cd6d7c72ae6355ae3161103461101a611000610fe7610fce610fb4610f9a610f80610f67610f4f610f36610f1d610f04610eeb610ed2610eb961022061028051016103a05161012051611f66565b610280516020818303910152610200516103e051611f66565b6102805160408183039101526104e0516101e051611f66565b6102805160608183039101526103805161032051611f66565b6102805160808183039101526103605161034051611f66565b6102805160a08183039101526104005161046051611f66565b6102805160c08183039101526102205161014051611f66565b6102805160e08183039101526103c05160e051611f66565b6102805161010081830391015260a05161018051611f66565b61028051610120818303910152610100516102c051611f66565b61028051610140818303910152610160516104a051611f66565b610280516101608183039101526102605161050051611f66565b6102805161018081830391015261030051608051611f66565b610280516101a08183039101526101c05160c051611f66565b610280516101c08183039101526102a0516104c051611f66565b610280516101e08183039101526102e05161042051611f66565b6102805161020081830391015261105661028051916104805161024051611f66565b0361028051a1005b905061012051013583610e33565b81600052602060002060009361012051905b601f19841686106110c157600194955083601f198116106110a7575b505050811b019055610e47565b0135600019600384901b60f8161c1916905583808061109a565b9160206001819285850135815501930195019461107e565b634e487b7160e01b600052604160045260246000fd5b634e487b7160e01b600052600060045260246000fd5b015190508380610daf565b82600052602060002090600094601f198416955b86811061115d5750836001959610611144575b505050811b019055610dc4565b015160001960f88460031b161c19169055838080611137565b91926020600181928685015181550194019201611124565b015190508380610d4c565b9250600e84016000526020600020906000935b601f19841685106111d7576001945083601f198116106111be575b505050811b01600e820155610d64565b015160001960f88460031b161c191690558380806111ae565b81810151835560209485019460019093019290910190611193565b015190508380610ce8565b9250600d84016000526020600020906000935b601f1984168510611254576001945083601f1981161061123b575b505050811b01600d820155610d00565b015160001960f88460031b161c1916905583808061122b565b81810151835560209485019460019093019290910190611210565b015190508380610c86565b9250600c84016000526020600020906000935b601f19841685106112d1576001945083601f198116106112b8575b505050811b01600c820155610c9e565b015160001960f88460031b161c191690558380806112a8565b8181015183556020948501946001909301929091019061128d565b015190508380610c22565b9250600b84016000526020600020906000935b601f198416851061134e576001945083601f19811610611335575b505050811b01600b820155610c3a565b015160001960f88460031b161c19169055838080611325565b8181015183556020948501946001909301929091019061130a565b015190508380610bbe565b9250600a84016000526020600020906000935b601f19841685106113cb576001945083601f198116106113b2575b505050811b01600a820155610bd6565b015160001960f88460031b161c191690558380806113a2565b81810151835560209485019460019093019290910190611387565b015190508380610b5a565b9250600984016000526020600020906000935b601f1984168510611448576001945083601f1981161061142f575b505050811b016009820155610b72565b015160001960f88460031b161c1916905583808061141f565b81810151835560209485019460019093019290910190611404565b015190508380610af6565b9250600884016000526020600020906000935b601f19841685106114c5576001945083601f198116106114ac575b505050811b016008820155610b0e565b015160001960f88460031b161c1916905583808061149c565b81810151835560209485019460019093019290910190611481565b015190508380610a92565b9250600784016000526020600020906000935b601f1984168510611542576001945083601f19811610611529575b505050811b016007820155610aaa565b015160001960f88460031b161c19169055838080611519565b818101518355602094850194600190930192909101906114fe565b015190508380610a2f565b9250600684016000526020600020906000935b601f19841685106115bf576001945083601f198116106115a6575b505050811b016006820155610a47565b015160001960f88460031b161c19169055838080611596565b8181015183556020948501946001909301929091019061157b565b0151905083806109cc565b9250600584016000526020600020906000935b601f198416851061163c576001945083601f19811610611623575b505050811b0160058201556109e4565b015160001960f88460031b161c19169055838080611613565b818101518355602094850194600190930192909101906115f8565b015190508380610969565b9250600484016000526020600020906000935b601f19841685106116b9576001945083601f198116106116a0575b505050811b016004820155610981565b015160001960f88460031b161c19169055838080611690565b81810151835560209485019460019093019290910190611675565b015190508380610906565b9250600384016000526020600020906000935b601f1984168510611736576001945083601f1981161061171d575b505050811b01600382015561091e565b015160001960f88460031b161c1916905583808061170d565b818101518355602094850194600190930192909101906116f2565b0151905083806108a3565b9250600284016000526020600020906000935b601f19841685106117b3576001945083601f1981161061179a575b505050811b0160028201556108bb565b015160001960f88460031b161c1916905583808061178a565b8181015183556020948501946001909301929091019061176f565b015190508380610840565b9250600184016000526020600020906000935b601f1984168510611830576001945083601f19811610611817575b505050811b016001820155610858565b015160001960f88460031b161c19169055838080611807565b818101518355602094850194600190930192909101906117ec565b0151905083806107e0565b9250836000526020600020906000935b601f19841685106118a7576001945083601f1981161061188e575b505050811b0181556107f5565b015160001960f88460031b161c19169055838080611881565b81810151835560209485019460019093019290910190611866565b60405162461bcd60e51b815260206004820152600b60248201526a139bdd081cdd195dd85c9960aa1b6044820152606490fd5b346102f75760203660031901126102f7576004356001600160401b0381116102f757602061192a611b8b923690600401611e9f565b919060606101e060405161193d81611d74565b828152828582015282604082015282808201528260808201528260a08201528260c08201528260e08201528261010082015282610120820152826101408201528261016082015282610180820152826101a0820152826101c0820152015282604051938492833781016001815203019020611ac6600f604051926119c084611d74565b6119c981611db1565b84526119d760018201611db1565b60208501526119e860028201611db1565b60408501526119f960038201611db1565b6060850152611a0a60048201611db1565b6080850152611a1b60058201611db1565b60a0850152611a2c60068201611db1565b60c0850152611a3d60078201611db1565b60e0850152611a4e60088201611db1565b610100850152611a6060098201611db1565b610120850152611a72600a8201611db1565b610140850152611a84600b8201611db1565b610160850152611a96600c8201611db1565b610180850152611aa8600d8201611db1565b6101a0850152611aba600e8201611db1565b6101c085015201611db1565b6101e0820152611c75816101e0611c60611c4a611c32611c1a611c02611bea611bd2611bba611ba36040519d8e9d8e6020815260a0611b76611b61611b4b611b35611b1f87516102006020890152610220880190611e7a565b6020880151878203601f19016040890152611e7a565b6040870151868203601f19016060880152611e7a565b6060860151858203601f19016080870152611e7a565b6080850151848203601f190184860152611e7a565b9201519060c0601f1982850301910152611e7a565b8d60c08d01519060e0601f1982850301910152611e7a565b60e08b01518d8203601f19016101008f0152611e7a565b6101008a01518c8203601f19016101208e0152611e7a565b6101208901518b8203601f19016101408d0152611e7a565b6101408801518a8203601f19016101608c0152611e7a565b610160870151898203601f19016101808b0152611e7a565b610180860151888203601f19016101a08a0152611e7a565b6101a0850151878203601f19016101c0890152611e7a565b6101c0840151868203601f190184880152611e7a565b910151838203601f1901610200850152611e7a565b0390f35b346102f75760003660031901126102f7576000546040516001600160a01b039091168152602090f35b346102f75760203660031901126102f7576004356002548110156102f757611cc990611ced565b6110ef57611cd9611c7591611db1565b604051918291602083526020830190611e7a565b600254811015611d245760026000527f405787fa12a823e0f2b7631cc41b3ba8828b3321ca811111fa75cd3aa3bb5ace0190600090565b634e487b7160e01b600052603260045260246000fd5b90600182811c92168015611d6a575b6020831014611d5457565b634e487b7160e01b600052602260045260246000fd5b91607f1691611d49565b61020081019081106001600160401b038211176110d957604052565b90601f801991011681019081106001600160401b038211176110d957604052565b9060405191826000825492611dc584611d3a565b908184526001948581169081600014611e345750600114611df1575b5050611def92500383611d90565b565b9093915060005260209081600020936000915b818310611e1c575050611def93508201013880611de1565b85548884018501529485019487945091830191611e04565b915050611def94506020925060ff191682840152151560051b8201013880611de1565b60005b838110611e6a5750506000910152565b8181015183820152602001611e5a565b90602091611e9381518092818552858086019101611e57565b601f01601f1916010190565b9181601f840112156102f7578235916001600160401b0383116102f757602083818601950101116102f757565b9291926001600160401b0382116110d95760405191611ef5601f8201601f191660200184611d90565b8294818452818301116102f7578281602093846000960137010152565b90601f8111611f2057505050565b600091825260208220906020601f850160051c83019410611f5c575b601f0160051c01915b828110611f5157505050565b818155600101611f45565b9092508290611f3c565b908060209392818452848401376000828201840152601f01601f191601019056fea2646970667358221220402c455adcc120b013e1cbf57b2e06efb52c7aa0830f05c39495efb0b5927c0264736f6c63430008140033","opcodes":"PUSH1 0x80 DUP1 PUSH1 0x40 MSTORE CALLVALUE PUSH2 0x28 JUMPI PUSH1 0x0 DUP1 SLOAD PUSH1 0x1 PUSH1 0x1 PUSH1 0xA0 SHL SUB NOT AND CALLER OR SWAP1 SSTORE PUSH2 0x1FBD SWAP1 DUP2 PUSH2 0x2E DUP3 CODECOPY RETURN JUMPDEST PUSH1 0x0 DUP1 REVERT INVALID PUSH2 0x520 PUSH1 0x40 MSTORE PUSH1 0x4 CALLDATASIZE LT ISZERO PUSH2 0x13 JUMPI PUSH1 0x0 DUP1 REVERT JUMPDEST PUSH1 0x0 CALLDATALOAD PUSH1 0xE0 SHR DUP1 PUSH4 0xCB6AAF1 EQ PUSH2 0x1CA2 JUMPI DUP1 PUSH4 0x637EEA19 EQ PUSH2 0x1C79 JUMPI DUP1 PUSH4 0x83361522 EQ PUSH2 0x18F5 JUMPI DUP1 PUSH4 0xB2B3584D EQ PUSH2 0x31A JUMPI DUP1 PUSH4 0xC212D16B EQ PUSH2 0x2FC JUMPI PUSH4 0xDBC21424 EQ PUSH2 0x5F JUMPI PUSH1 0x0 DUP1 REVERT JUMPDEST CALLVALUE PUSH2 0x2F7 JUMPI PUSH1 0x20 CALLDATASIZE PUSH1 0x3 NOT ADD SLT PUSH2 0x2F7 JUMPI PUSH1 0x4 CALLDATALOAD PUSH1 0x1 PUSH1 0x1 PUSH1 0x40 SHL SUB DUP2 GT PUSH2 0x2F7 JUMPI CALLDATASIZE PUSH1 0x23 DUP3 ADD SLT ISZERO PUSH2 0x2F7 JUMPI CALLDATASIZE DUP2 PUSH1 0x4 ADD CALLDATALOAD SWAP2 PUSH1 0x24 ADD SWAP2 PUSH2 0xA0 SWAP3 PUSH2 0x1ECC JUMP JUMPDEST PUSH1 0x40 MLOAD DUP2 DUP2 DUP1 SWAP4 MLOAD PUSH1 0x20 DUP2 SWAP4 ADD SWAP2 PUSH2 0xB7 SWAP3 PUSH2 0x1E57 JUMP JUMPDEST DUP2 ADD PUSH1 0x1 DUP2 MSTORE SUB PUSH1 0x20 ADD SWAP1 KECCAK256 PUSH2 0xCC DUP2 PUSH2 0x1DB1 JUMP JUMPDEST SWAP1 DUP1 PUSH2 0xDA PUSH1 0x1 DUP3 ADD PUSH2 0x1DB1 JUMP JUMPDEST PUSH2 0xE6 PUSH1 0x2 DUP4 ADD PUSH2 0x1DB1 JUMP JUMPDEST PUSH2 0xF2 PUSH1 0x3 DUP5 ADD PUSH2 0x1DB1 JUMP JUMPDEST PUSH2 0xFE PUSH1 0x4 DUP6 ADD PUSH2 0x1DB1 JUMP JUMPDEST PUSH2 0x10A PUSH1 0x5 DUP7 ADD PUSH2 0x1DB1 JUMP JUMPDEST PUSH2 0x116 PUSH1 0x6 DUP8 ADD PUSH2 0x1DB1 JUMP JUMPDEST PUSH2 0x122 PUSH1 0x7 DUP9 ADD PUSH2 0x1DB1 JUMP JUMPDEST SWAP1 PUSH2 0x12F PUSH1 0x8 DUP10 ADD PUSH2 0x1DB1 JUMP JUMPDEST SWAP3 PUSH2 0x13C PUSH1 0x9 DUP11 ADD PUSH2 0x1DB1 JUMP JUMPDEST SWAP5 PUSH2 0x149 PUSH1 0xA DUP12 ADD PUSH2 0x1DB1 JUMP JUMPDEST SWAP7 PUSH2 0x156 PUSH1 0xB DUP13 ADD PUSH2 0x1DB1 JUMP JUMPDEST SWAP9 PUSH2 0x163 PUSH1 0xC DUP14 ADD PUSH2 0x1DB1 JUMP JUMPDEST SWAP11 PUSH2 0x170 PUSH1 0xD DUP15 ADD PUSH2 0x1DB1 JUMP JUMPDEST SWAP13 PUSH1 0xE ADD PUSH2 0x17D SWAP1 PUSH2 0x1DB1 JUMP JUMPDEST SWAP14 PUSH1 0xF ADD PUSH2 0x18A SWAP1 PUSH2 0x1DB1 JUMP JUMPDEST SWAP15 PUSH1 0x40 MLOAD DUP1 PUSH2 0x440 MSTORE PUSH2 0x200 DUP1 SWAP2 MSTORE PUSH2 0x440 MLOAD ADD PUSH2 0x1A7 SWAP2 PUSH2 0x1E7A JUMP JUMPDEST PUSH2 0x440 MLOAD DUP1 DUP3 SUB SWAP1 PUSH1 0x20 ADD MSTORE PUSH2 0x1BC SWAP2 PUSH2 0x1E7A JUMP JUMPDEST PUSH2 0x440 MLOAD DUP1 DUP3 SUB SWAP1 PUSH1 0x40 ADD MSTORE PUSH2 0x1D1 SWAP2 PUSH2 0x1E7A JUMP JUMPDEST PUSH2 0x440 MLOAD DUP1 DUP3 SUB SWAP1 PUSH1 0x60 ADD MSTORE PUSH2 0x1E6 SWAP2 PUSH2 0x1E7A JUMP JUMPDEST PUSH2 0x440 MLOAD DUP1 DUP3 SUB SWAP1 PUSH1 0x80 ADD MSTORE PUSH2 0x1FB SWAP2 PUSH2 0x1E7A JUMP JUMPDEST PUSH2 0x440 MLOAD DUP1 DUP3 SUB SWAP1 PUSH1 0xA0 ADD MSTORE PUSH2 0x210 SWAP2 PUSH2 0x1E7A JUMP JUMPDEST PUSH2 0x440 MLOAD DUP1 DUP3 SUB SWAP1 PUSH1 0xC0 ADD MSTORE PUSH2 0x225 SWAP2 PUSH2 0x1E7A JUMP JUMPDEST PUSH2 0x440 MLOAD DUP1 DUP3 SUB SWAP1 PUSH1 0xE0 ADD MSTORE PUSH2 0x23A SWAP2 PUSH2 0x1E7A JUMP JUMPDEST PUSH2 0x440 MLOAD DUP1 DUP3 SUB SWAP1 PUSH2 0x100 ADD MSTORE PUSH2 0x250 SWAP2 PUSH2 0x1E7A JUMP JUMPDEST PUSH2 0x440 MLOAD DUP1 DUP3 SUB SWAP1 PUSH2 0x120 ADD MSTORE PUSH2 0x266 SWAP2 PUSH2 0x1E7A JUMP JUMPDEST PUSH2 0x440 MLOAD DUP1 DUP3 SUB SWAP1 PUSH2 0x140 ADD MSTORE PUSH2 0x27C SWAP2 PUSH2 0x1E7A JUMP JUMPDEST PUSH2 0x440 MLOAD DUP1 DUP3 SUB SWAP1 PUSH2 0x160 ADD MSTORE PUSH2 0x292 SWAP2 PUSH2 0x1E7A JUMP JUMPDEST PUSH2 0x440 MLOAD DUP1 DUP3 SUB SWAP1 PUSH2 0x180 ADD MSTORE PUSH2 0x2A8 SWAP2 PUSH2 0x1E7A JUMP JUMPDEST PUSH2 0x440 MLOAD DUP1 DUP3 SUB SWAP1 PUSH2 0x1A0 ADD MSTORE PUSH2 0x2BE SWAP2 PUSH2 0x1E7A JUMP JUMPDEST PUSH2 0x440 MLOAD DUP1 DUP3 SUB SWAP1 PUSH2 0x1C0 ADD MSTORE PUSH2 0x2D4 SWAP2 PUSH2 0x1E7A JUMP JUMPDEST SWAP1 PUSH2 0x440 MLOAD DUP1 DUP4 SUB SWAP1 PUSH2 0x1E0 ADD MSTORE PUSH2 0x440 MLOAD SWAP2 PUSH2 0x2F0 SWAP2 PUSH2 0x1E7A JUMP JUMPDEST SUB PUSH2 0x440 MLOAD RETURN JUMPDEST PUSH1 0x0 DUP1 REVERT JUMPDEST CALLVALUE PUSH2 0x2F7 JUMPI PUSH1 0x0 CALLDATASIZE PUSH1 0x3 NOT ADD SLT PUSH2 0x2F7 JUMPI PUSH1 0x20 PUSH1 0x2 SLOAD PUSH1 0x40 MLOAD SWAP1 DUP2 MSTORE RETURN JUMPDEST CALLVALUE PUSH2 0x2F7 JUMPI PUSH2 0x220 CALLDATASIZE PUSH1 0x3 NOT ADD SLT PUSH2 0x2F7 JUMPI PUSH1 0x4 CALLDATALOAD PUSH1 0x1 PUSH1 0x1 PUSH1 0x40 SHL SUB DUP2 GT PUSH2 0x2F7 JUMPI PUSH2 0x34B SWAP1 CALLDATASIZE SWAP1 PUSH1 0x4 ADD PUSH2 0x1E9F JUMP JUMPDEST PUSH2 0x3A0 MSTORE PUSH2 0x120 MSTORE PUSH1 0x24 CALLDATALOAD PUSH1 0x1 PUSH1 0x1 PUSH1 0x40 SHL SUB DUP2 GT PUSH2 0x2F7 JUMPI PUSH2 0x372 SWAP1 CALLDATASIZE SWAP1 PUSH1 0x4 ADD PUSH2 0x1E9F JUMP JUMPDEST PUSH2 0x200 MSTORE PUSH2 0x3E0 MSTORE PUSH1 0x44 CALLDATALOAD PUSH1 0x1 PUSH1 0x1 PUSH1 0x40 SHL SUB DUP2 GT PUSH2 0x2F7 JUMPI PUSH2 0x399 SWAP1 CALLDATASIZE SWAP1 PUSH1 0x4 ADD PUSH2 0x1E9F JUMP JUMPDEST PUSH2 0x4E0 MSTORE PUSH2 0x1E0 MSTORE PUSH1 0x64 CALLDATALOAD PUSH1 0x1 PUSH1 0x1 PUSH1 0x40 SHL SUB DUP2 GT PUSH2 0x2F7 JUMPI PUSH2 0x3C0 SWAP1 CALLDATASIZE SWAP1 PUSH1 0x4 ADD PUSH2 0x1E9F JUMP JUMPDEST PUSH2 0x380 MSTORE PUSH2 0x320 MSTORE PUSH1 0x84 CALLDATALOAD PUSH1 0x1 PUSH1 0x1 PUSH1 0x40 SHL SUB DUP2 GT PUSH2 0x2F7 JUMPI PUSH2 0x3E7 SWAP1 CALLDATASIZE SWAP1 PUSH1 0x4 ADD PUSH2 0x1E9F JUMP JUMPDEST PUSH2 0x360 MSTORE PUSH2 0x340 MSTORE PUSH1 0xA4 CALLDATALOAD PUSH1 0x1 PUSH1 0x1 PUSH1 0x40 SHL SUB DUP2 GT PUSH2 0x2F7 JUMPI PUSH2 0x40E SWAP1 CALLDATASIZE SWAP1 PUSH1 0x4 ADD PUSH2 0x1E9F JUMP JUMPDEST PUSH2 0x400 MSTORE PUSH2 0x460 MSTORE PUSH1 0xC4 CALLDATALOAD PUSH1 0x1 PUSH1 0x1 PUSH1 0x40 SHL SUB DUP2 GT PUSH2 0x2F7 JUMPI PUSH2 0x435 SWAP1 CALLDATASIZE SWAP1 PUSH1 0x4 ADD PUSH2 0x1E9F JUMP JUMPDEST PUSH2 0x220 MSTORE PUSH2 0x140 MSTORE PUSH1 0x1 PUSH1 0x1 PUSH1 0x40 SHL SUB PUSH1 0xE4 CALLDATALOAD GT PUSH2 0x2F7 JUMPI PUSH2 0x45C CALLDATASIZE PUSH1 0xE4 CALLDATALOAD PUSH1 0x4 ADD PUSH2 0x1E9F JUMP JUMPDEST PUSH2 0x3C0 MSTORE PUSH1 0xE0 MSTORE PUSH1 0x1 PUSH1 0x1 PUSH1 0x40 SHL SUB PUSH2 0x104 CALLDATALOAD GT PUSH2 0x2F7 JUMPI PUSH2 0x484 CALLDATASIZE PUSH2 0x104 CALLDATALOAD PUSH1 0x4 ADD PUSH2 0x1E9F JUMP JUMPDEST PUSH1 0xA0 MSTORE PUSH2 0x180 MSTORE PUSH1 0x1 PUSH1 0x1 PUSH1 0x40 SHL SUB PUSH2 0x124 CALLDATALOAD GT PUSH2 0x2F7 JUMPI PUSH2 0x4AC CALLDATASIZE PUSH2 0x124 CALLDATALOAD PUSH1 0x4 ADD PUSH2 0x1E9F JUMP JUMPDEST PUSH2 0x100 MSTORE PUSH2 0x2C0 MSTORE PUSH2 0x144 CALLDATALOAD PUSH1 0x1 PUSH1 0x1 PUSH1 0x40 SHL SUB DUP2 GT PUSH2 0x2F7 JUMPI PUSH2 0x4D4 SWAP1 CALLDATASIZE SWAP1 PUSH1 0x4 ADD PUSH2 0x1E9F JUMP JUMPDEST PUSH2 0x160 MSTORE PUSH2 0x4A0 MSTORE PUSH2 0x164 CALLDATALOAD PUSH1 0x1 PUSH1 0x1 PUSH1 0x40 SHL SUB DUP2 GT PUSH2 0x2F7 JUMPI PUSH2 0x4FC SWAP1 CALLDATASIZE SWAP1 PUSH1 0x4 ADD PUSH2 0x1E9F JUMP JUMPDEST PUSH2 0x260 MSTORE PUSH2 0x500 MSTORE PUSH2 0x184 CALLDATALOAD PUSH1 0x1 PUSH1 0x1 PUSH1 0x40 SHL SUB DUP2 GT PUSH2 0x2F7 JUMPI PUSH2 0x524 SWAP1 CALLDATASIZE SWAP1 PUSH1 0x4 ADD PUSH2 0x1E9F JUMP JUMPDEST PUSH2 0x300 MSTORE PUSH1 0x80 MSTORE PUSH2 0x1A4 CALLDATALOAD PUSH1 0x1 PUSH1 0x1 PUSH1 0x40 SHL SUB DUP2 GT PUSH2 0x2F7 JUMPI PUSH2 0x54B SWAP1 CALLDATASIZE SWAP1 PUSH1 0x4 ADD PUSH2 0x1E9F JUMP JUMPDEST PUSH2 0x1C0 MSTORE PUSH1 0xC0 MSTORE PUSH2 0x1C4 CALLDATALOAD PUSH1 0x1 PUSH1 0x1 PUSH1 0x40 SHL SUB DUP2 GT PUSH2 0x2F7 JUMPI PUSH2 0x572 SWAP1 CALLDATASIZE SWAP1 PUSH1 0x4 ADD PUSH2 0x1E9F JUMP JUMPDEST PUSH2 0x2A0 MSTORE PUSH2 0x4C0 MSTORE PUSH2 0x1E4 CALLDATALOAD PUSH1 0x1 PUSH1 0x1 PUSH1 0x40 SHL SUB DUP2 GT PUSH2 0x2F7 JUMPI PUSH2 0x59A SWAP1 CALLDATASIZE SWAP1 PUSH1 0x4 ADD PUSH2 0x1E9F JUMP JUMPDEST PUSH2 0x2E0 MSTORE PUSH2 0x420 MSTORE PUSH2 0x204 CALLDATALOAD PUSH1 0x1 PUSH1 0x1 PUSH1 0x40 SHL SUB DUP2 GT PUSH2 0x2F7 JUMPI PUSH2 0x5C2 SWAP1 CALLDATASIZE SWAP1 PUSH1 0x4 ADD PUSH2 0x1E9F JUMP JUMPDEST PUSH2 0x480 MSTORE PUSH2 0x240 MSTORE PUSH1 0x0 SLOAD PUSH1 0x1 PUSH1 0x1 PUSH1 0xA0 SHL SUB AND CALLER SUB PUSH2 0x18C2 JUMPI PUSH2 0x5EC PUSH1 0x40 MLOAD DUP1 PUSH2 0x1A0 MSTORE PUSH2 0x1D74 JUMP JUMPDEST PUSH2 0x5FD CALLDATASIZE PUSH2 0x200 MLOAD PUSH2 0x3E0 MLOAD PUSH2 0x1ECC JUMP JUMPDEST PUSH2 0x1A0 MLOAD MSTORE PUSH2 0x613 CALLDATASIZE PUSH2 0x4E0 MLOAD PUSH2 0x1E0 MLOAD PUSH2 0x1ECC JUMP JUMPDEST PUSH1 0x20 PUSH2 0x1A0 MLOAD ADD MSTORE PUSH2 0x62C CALLDATASIZE PUSH2 0x380 MLOAD PUSH2 0x320 MLOAD PUSH2 0x1ECC JUMP JUMPDEST PUSH1 0x40 PUSH2 0x1A0 MLOAD ADD MSTORE PUSH2 0x645 CALLDATASIZE PUSH2 0x360 MLOAD PUSH2 0x340 MLOAD PUSH2 0x1ECC JUMP JUMPDEST PUSH1 0x60 PUSH2 0x1A0 MLOAD ADD MSTORE PUSH2 0x65E CALLDATASIZE PUSH2 0x400 MLOAD PUSH2 0x460 MLOAD PUSH2 0x1ECC JUMP JUMPDEST PUSH1 0x80 PUSH2 0x1A0 MLOAD ADD MSTORE PUSH2 0x677 CALLDATASIZE PUSH2 0x220 MLOAD PUSH2 0x140 MLOAD PUSH2 0x1ECC JUMP JUMPDEST PUSH1 0xA0 PUSH2 0x1A0 MLOAD ADD MSTORE PUSH2 0x68F CALLDATASIZE PUSH2 0x3C0 MLOAD PUSH1 0xE0 MLOAD PUSH2 0x1ECC JUMP JUMPDEST PUSH1 0xC0 PUSH2 0x1A0 MLOAD ADD MSTORE PUSH2 0x6A7 CALLDATASIZE PUSH1 0xA0 MLOAD PUSH2 0x180 MLOAD PUSH2 0x1ECC JUMP JUMPDEST PUSH1 0xE0 PUSH2 0x1A0 MLOAD ADD MSTORE PUSH2 0x6C0 CALLDATASIZE PUSH2 0x100 MLOAD PUSH2 0x2C0 MLOAD PUSH2 0x1ECC JUMP JUMPDEST PUSH2 0x100 PUSH2 0x1A0 MLOAD ADD MSTORE PUSH2 0x6DA CALLDATASIZE PUSH2 0x160 MLOAD PUSH2 0x4A0 MLOAD PUSH2 0x1ECC JUMP JUMPDEST PUSH2 0x120 PUSH2 0x1A0 MLOAD ADD MSTORE PUSH2 0x6F4 CALLDATASIZE PUSH2 0x260 MLOAD PUSH2 0x500 MLOAD PUSH2 0x1ECC JUMP JUMPDEST PUSH2 0x140 PUSH2 0x1A0 MLOAD ADD MSTORE PUSH2 0x70D CALLDATASIZE PUSH2 0x300 MLOAD PUSH1 0x80 MLOAD PUSH2 0x1ECC JUMP JUMPDEST PUSH2 0x160 PUSH2 0x1A0 MLOAD ADD MSTORE PUSH2 0x726 CALLDATASIZE PUSH2 0x1C0 MLOAD PUSH1 0xC0 MLOAD PUSH2 0x1ECC JUMP JUMPDEST PUSH2 0x180 PUSH2 0x1A0 MLOAD ADD MSTORE PUSH2 0x740 CALLDATASIZE PUSH2 0x2A0 MLOAD PUSH2 0x4C0 MLOAD PUSH2 0x1ECC JUMP JUMPDEST PUSH2 0x1A0 DUP1 MLOAD ADD MSTORE PUSH2 0x758 CALLDATASIZE PUSH2 0x2E0 MLOAD PUSH2 0x420 MLOAD PUSH2 0x1ECC JUMP JUMPDEST PUSH2 0x1C0 PUSH2 0x1A0 MLOAD ADD MSTORE PUSH2 0x772 CALLDATASIZE PUSH2 0x480 MLOAD PUSH2 0x240 MLOAD PUSH2 0x1ECC JUMP JUMPDEST PUSH2 0x1E0 PUSH2 0x1A0 MLOAD ADD MSTORE PUSH1 0x40 MLOAD PUSH2 0x3A0 MLOAD PUSH2 0x120 MLOAD DUP3 CALLDATACOPY PUSH1 0x1 PUSH2 0x3A0 MLOAD DUP3 ADD MSTORE PUSH1 0x20 DUP2 PUSH2 0x3A0 MLOAD DUP2 ADD SUB ADD SWAP1 KECCAK256 PUSH2 0x1A0 MLOAD MLOAD DUP1 MLOAD SWAP1 PUSH1 0x1 PUSH1 0x1 PUSH1 0x40 SHL SUB DUP3 GT PUSH2 0x10D9 JUMPI DUP2 SWAP1 PUSH2 0x7CA DUP3 PUSH2 0x7C4 DUP7 SLOAD PUSH2 0x1D3A JUMP JUMPDEST DUP7 PUSH2 0x1F12 JUMP JUMPDEST PUSH1 0x20 SWAP1 PUSH1 0x1F DUP4 GT PUSH1 0x1 EQ PUSH2 0x1856 JUMPI PUSH1 0x0 SWAP3 PUSH2 0x184B JUMPI JUMPDEST POP POP DUP2 PUSH1 0x1 SHL SWAP2 PUSH1 0x0 NOT SWAP1 PUSH1 0x3 SHL SHR NOT AND OR DUP2 SSTORE JUMPDEST PUSH1 0x20 PUSH2 0x1A0 MLOAD ADD MLOAD DUP1 MLOAD SWAP1 PUSH1 0x1 PUSH1 0x1 PUSH1 0x40 SHL SUB DUP3 GT PUSH2 0x10D9 JUMPI DUP2 SWAP1 PUSH2 0x82A DUP3 PUSH2 0x821 PUSH1 0x1 DUP8 ADD SLOAD PUSH2 0x1D3A JUMP JUMPDEST PUSH1 0x1 DUP8 ADD PUSH2 0x1F12 JUMP JUMPDEST PUSH1 0x20 SWAP1 PUSH1 0x1F DUP4 GT PUSH1 0x1 EQ PUSH2 0x17D9 JUMPI PUSH1 0x0 SWAP3 PUSH2 0x17CE JUMPI JUMPDEST POP POP DUP2 PUSH1 0x1 SHL SWAP2 PUSH1 0x0 NOT SWAP1 PUSH1 0x3 SHL SHR NOT AND OR PUSH1 0x1 DUP3 ADD SSTORE JUMPDEST PUSH1 0x40 PUSH2 0x1A0 MLOAD ADD MLOAD DUP1 MLOAD SWAP1 PUSH1 0x1 PUSH1 0x1 PUSH1 0x40 SHL SUB DUP3 GT PUSH2 0x10D9 JUMPI DUP2 SWAP1 PUSH2 0x88D DUP3 PUSH2 0x884 PUSH1 0x2 DUP8 ADD SLOAD PUSH2 0x1D3A JUMP JUMPDEST PUSH1 0x2 DUP8 ADD PUSH2 0x1F12 JUMP JUMPDEST PUSH1 0x20 SWAP1 PUSH1 0x1F DUP4 GT PUSH1 0x1 EQ PUSH2 0x175C JUMPI PUSH1 0x0 SWAP3 PUSH2 0x1751 JUMPI JUMPDEST POP POP DUP2 PUSH1 0x1 SHL SWAP2 PUSH1 0x0 NOT SWAP1 PUSH1 0x3 SHL SHR NOT AND OR PUSH1 0x2 DUP3 ADD SSTORE JUMPDEST PUSH1 0x60 PUSH2 0x1A0 MLOAD ADD MLOAD DUP1 MLOAD SWAP1 PUSH1 0x1 PUSH1 0x1 PUSH1 0x40 SHL SUB DUP3 GT PUSH2 0x10D9 JUMPI DUP2 SWAP1 PUSH2 0x8F0 DUP3 PUSH2 0x8E7 PUSH1 0x3 DUP8 ADD SLOAD PUSH2 0x1D3A JUMP JUMPDEST PUSH1 0x3 DUP8 ADD PUSH2 0x1F12 JUMP JUMPDEST PUSH1 0x20 SWAP1 PUSH1 0x1F DUP4 GT PUSH1 0x1 EQ PUSH2 0x16DF JUMPI PUSH1 0x0 SWAP3 PUSH2 0x16D4 JUMPI JUMPDEST POP POP DUP2 PUSH1 0x1 SHL SWAP2 PUSH1 0x0 NOT SWAP1 PUSH1 0x3 SHL SHR NOT AND OR PUSH1 0x3 DUP3 ADD SSTORE JUMPDEST PUSH1 0x80 PUSH2 0x1A0 MLOAD ADD MLOAD DUP1 MLOAD SWAP1 PUSH1 0x1 PUSH1 0x1 PUSH1 0x40 SHL SUB DUP3 GT PUSH2 0x10D9 JUMPI DUP2 SWAP1 PUSH2 0x953 DUP3 PUSH2 0x94A PUSH1 0x4 DUP8 ADD SLOAD PUSH2 0x1D3A JUMP JUMPDEST PUSH1 0x4 DUP8 ADD PUSH2 0x1F12 JUMP JUMPDEST PUSH1 0x20 SWAP1 PUSH1 0x1F DUP4 GT PUSH1 0x1 EQ PUSH2 0x1662 JUMPI PUSH1 0x0 SWAP3 PUSH2 0x1657 JUMPI JUMPDEST POP POP DUP2 PUSH1 0x1 SHL SWAP2 PUSH1 0x0 NOT SWAP1 PUSH1 0x3 SHL SHR NOT AND OR PUSH1 0x4 DUP3 ADD SSTORE JUMPDEST PUSH1 0xA0 PUSH2 0x1A0 MLOAD ADD MLOAD DUP1 MLOAD SWAP1 PUSH1 0x1 PUSH1 0x1 PUSH1 0x40 SHL SUB DUP3 GT PUSH2 0x10D9 JUMPI DUP2 SWAP1 PUSH2 0x9B6 DUP3 PUSH2 0x9AD PUSH1 0x5 DUP8 ADD SLOAD PUSH2 0x1D3A JUMP JUMPDEST PUSH1 0x5 DUP8 ADD PUSH2 0x1F12 JUMP JUMPDEST PUSH1 0x20 SWAP1 PUSH1 0x1F DUP4 GT PUSH1 0x1 EQ PUSH2 0x15E5 JUMPI PUSH1 0x0 SWAP3 PUSH2 0x15DA JUMPI JUMPDEST POP POP DUP2 PUSH1 0x1 SHL SWAP2 PUSH1 0x0 NOT SWAP1 PUSH1 0x3 SHL SHR NOT AND OR PUSH1 0x5 DUP3 ADD SSTORE JUMPDEST PUSH1 0xC0 PUSH2 0x1A0 MLOAD ADD MLOAD DUP1 MLOAD SWAP1 PUSH1 0x1 PUSH1 0x1 PUSH1 0x40 SHL SUB DUP3 GT PUSH2 0x10D9 JUMPI DUP2 SWAP1 PUSH2 0xA19 DUP3 PUSH2 0xA10 PUSH1 0x6 DUP8 ADD SLOAD PUSH2 0x1D3A JUMP JUMPDEST PUSH1 0x6 DUP8 ADD PUSH2 0x1F12 JUMP JUMPDEST PUSH1 0x20 SWAP1 PUSH1 0x1F DUP4 GT PUSH1 0x1 EQ PUSH2 0x1568 JUMPI PUSH1 0x0 SWAP3 PUSH2 0x155D JUMPI JUMPDEST POP POP DUP2 PUSH1 0x1 SHL SWAP2 PUSH1 0x0 NOT SWAP1 PUSH1 0x3 SHL SHR NOT AND OR PUSH1 0x6 DUP3 ADD SSTORE JUMPDEST PUSH1 0xE0 PUSH2 0x1A0 MLOAD ADD MLOAD DUP1 MLOAD SWAP1 PUSH1 0x1 PUSH1 0x1 PUSH1 0x40 SHL SUB DUP3 GT PUSH2 0x10D9 JUMPI DUP2 SWAP1 PUSH2 0xA7C DUP3 PUSH2 0xA73 PUSH1 0x7 DUP8 ADD SLOAD PUSH2 0x1D3A JUMP JUMPDEST PUSH1 0x7 DUP8 ADD PUSH2 0x1F12 JUMP JUMPDEST PUSH1 0x20 SWAP1 PUSH1 0x1F DUP4 GT PUSH1 0x1 EQ PUSH2 0x14EB JUMPI PUSH1 0x0 SWAP3 PUSH2 0x14E0 JUMPI JUMPDEST POP POP DUP2 PUSH1 0x1 SHL SWAP2 PUSH1 0x0 NOT SWAP1 PUSH1 0x3 SHL SHR NOT AND OR PUSH1 0x7 DUP3 ADD SSTORE JUMPDEST PUSH2 0x100 PUSH2 0x1A0 MLOAD ADD MLOAD DUP1 MLOAD SWAP1 PUSH1 0x1 PUSH1 0x1 PUSH1 0x40 SHL SUB DUP3 GT PUSH2 0x10D9 JUMPI DUP2 SWAP1 PUSH2 0xAE0 DUP3 PUSH2 0xAD7 PUSH1 0x8 DUP8 ADD SLOAD PUSH2 0x1D3A JUMP JUMPDEST PUSH1 0x8 DUP8 ADD PUSH2 0x1F12 JUMP JUMPDEST PUSH1 0x20 SWAP1 PUSH1 0x1F DUP4 GT PUSH1 0x1 EQ PUSH2 0x146E JUMPI PUSH1 0x0 SWAP3 PUSH2 0x1463 JUMPI JUMPDEST POP POP DUP2 PUSH1 0x1 SHL SWAP2 PUSH1 0x0 NOT SWAP1 PUSH1 0x3 SHL SHR NOT AND OR PUSH1 0x8 DUP3 ADD SSTORE JUMPDEST PUSH2 0x120 PUSH2 0x1A0 MLOAD ADD MLOAD DUP1 MLOAD SWAP1 PUSH1 0x1 PUSH1 0x1 PUSH1 0x40 SHL SUB DUP3 GT PUSH2 0x10D9 JUMPI DUP2 SWAP1 PUSH2 0xB44 DUP3 PUSH2 0xB3B PUSH1 0x9 DUP8 ADD SLOAD PUSH2 0x1D3A JUMP JUMPDEST PUSH1 0x9 DUP8 ADD PUSH2 0x1F12 JUMP JUMPDEST PUSH1 0x20 SWAP1 PUSH1 0x1F DUP4 GT PUSH1 0x1 EQ PUSH2 0x13F1 JUMPI PUSH1 0x0 SWAP3 PUSH2 0x13E6 JUMPI JUMPDEST POP POP DUP2 PUSH1 0x1 SHL SWAP2 PUSH1 0x0 NOT SWAP1 PUSH1 0x3 SHL SHR NOT AND OR PUSH1 0x9 DUP3 ADD SSTORE JUMPDEST PUSH2 0x140 PUSH2 0x1A0 MLOAD ADD MLOAD DUP1 MLOAD SWAP1 PUSH1 0x1 PUSH1 0x1 PUSH1 0x40 SHL SUB DUP3 GT PUSH2 0x10D9 JUMPI DUP2 SWAP1 PUSH2 0xBA8 DUP3 PUSH2 0xB9F PUSH1 0xA DUP8 ADD SLOAD PUSH2 0x1D3A JUMP JUMPDEST PUSH1 0xA DUP8 ADD PUSH2 0x1F12 JUMP JUMPDEST PUSH1 0x20 SWAP1 PUSH1 0x1F DUP4 GT PUSH1 0x1 EQ PUSH2 0x1374 JUMPI PUSH1 0x0 SWAP3 PUSH2 0x1369 JUMPI JUMPDEST POP POP DUP2 PUSH1 0x1 SHL SWAP2 PUSH1 0x0 NOT SWAP1 PUSH1 0x3 SHL SHR NOT AND OR PUSH1 0xA DUP3 ADD SSTORE JUMPDEST PUSH2 0x160 PUSH2 0x1A0 MLOAD ADD MLOAD DUP1 MLOAD SWAP1 PUSH1 0x1 PUSH1 0x1 PUSH1 0x40 SHL SUB DUP3 GT PUSH2 0x10D9 JUMPI DUP2 SWAP1 PUSH2 0xC0C DUP3 PUSH2 0xC03 PUSH1 0xB DUP8 ADD SLOAD PUSH2 0x1D3A JUMP JUMPDEST PUSH1 0xB DUP8 ADD PUSH2 0x1F12 JUMP JUMPDEST PUSH1 0x20 SWAP1 PUSH1 0x1F DUP4 GT PUSH1 0x1 EQ PUSH2 0x12F7 JUMPI PUSH1 0x0 SWAP3 PUSH2 0x12EC JUMPI JUMPDEST POP POP DUP2 PUSH1 0x1 SHL SWAP2 PUSH1 0x0 NOT SWAP1 PUSH1 0x3 SHL SHR NOT AND OR PUSH1 0xB DUP3 ADD SSTORE JUMPDEST PUSH2 0x180 PUSH2 0x1A0 MLOAD ADD MLOAD DUP1 MLOAD SWAP1 PUSH1 0x1 PUSH1 0x1 PUSH1 0x40 SHL SUB DUP3 GT PUSH2 0x10D9 JUMPI DUP2 SWAP1 PUSH2 0xC70 DUP3 PUSH2 0xC67 PUSH1 0xC DUP8 ADD SLOAD PUSH2 0x1D3A JUMP JUMPDEST PUSH1 0xC DUP8 ADD PUSH2 0x1F12 JUMP JUMPDEST PUSH1 0x20 SWAP1 PUSH1 0x1F DUP4 GT PUSH1 0x1 EQ PUSH2 0x127A JUMPI PUSH1 0x0 SWAP3 PUSH2 0x126F JUMPI JUMPDEST POP POP DUP2 PUSH1 0x1 SHL SWAP2 PUSH1 0x0 NOT SWAP1 PUSH1 0x3 SHL SHR NOT AND OR PUSH1 0xC DUP3 ADD SSTORE JUMPDEST PUSH2 0x1A0 DUP1 MLOAD ADD MLOAD DUP1 MLOAD SWAP1 PUSH1 0x1 PUSH1 0x1 PUSH1 0x40 SHL SUB DUP3 GT PUSH2 0x10D9 JUMPI DUP2 SWAP1 PUSH2 0xCD2 DUP3 PUSH2 0xCC9 PUSH1 0xD DUP8 ADD SLOAD PUSH2 0x1D3A JUMP JUMPDEST PUSH1 0xD DUP8 ADD PUSH2 0x1F12 JUMP JUMPDEST PUSH1 0x20 SWAP1 PUSH1 0x1F DUP4 GT PUSH1 0x1 EQ PUSH2 0x11FD JUMPI PUSH1 0x0 SWAP3 PUSH2 0x11F2 JUMPI JUMPDEST POP POP DUP2 PUSH1 0x1 SHL SWAP2 PUSH1 0x0 NOT SWAP1 PUSH1 0x3 SHL SHR NOT AND OR PUSH1 0xD DUP3 ADD SSTORE JUMPDEST PUSH2 0x1C0 PUSH2 0x1A0 MLOAD ADD MLOAD DUP1 MLOAD SWAP1 PUSH1 0x1 PUSH1 0x1 PUSH1 0x40 SHL SUB DUP3 GT PUSH2 0x10D9 JUMPI DUP2 SWAP1 PUSH2 0xD36 DUP3 PUSH2 0xD2D PUSH1 0xE DUP8 ADD SLOAD PUSH2 0x1D3A JUMP JUMPDEST PUSH1 0xE DUP8 ADD PUSH2 0x1F12 JUMP JUMPDEST PUSH1 0x20 SWAP1 PUSH1 0x1F DUP4 GT PUSH1 0x1 EQ PUSH2 0x1180 JUMPI PUSH1 0x0 SWAP3 PUSH2 0x1175 JUMPI JUMPDEST POP POP DUP2 PUSH1 0x1 SHL SWAP2 PUSH1 0x0 NOT SWAP1 PUSH1 0x3 SHL SHR NOT AND OR PUSH1 0xE DUP3 ADD SSTORE JUMPDEST PUSH2 0x1E0 PUSH2 0x1A0 MLOAD ADD MLOAD SWAP1 DUP2 MLOAD SWAP1 PUSH1 0x1 PUSH1 0x1 PUSH1 0x40 SHL SUB DUP3 GT PUSH2 0x10D9 JUMPI PUSH1 0xF ADD SWAP1 PUSH2 0xD97 DUP2 PUSH2 0xD91 DUP5 SLOAD PUSH2 0x1D3A JUMP JUMPDEST DUP5 PUSH2 0x1F12 JUMP JUMPDEST PUSH1 0x20 PUSH1 0x1F DUP3 GT PUSH1 0x1 EQ PUSH2 0x1110 JUMPI DUP2 SWAP3 SWAP4 PUSH1 0x0 SWAP3 PUSH2 0x1105 JUMPI JUMPDEST POP POP DUP2 PUSH1 0x1 SHL SWAP2 PUSH1 0x0 NOT SWAP1 PUSH1 0x3 SHL SHR NOT AND OR SWAP1 SSTORE JUMPDEST PUSH1 0x2 SLOAD PUSH9 0x10000000000000000 DUP2 LT ISZERO PUSH2 0x10D9 JUMPI DUP1 PUSH1 0x1 PUSH2 0xDE8 SWAP3 ADD PUSH1 0x2 SSTORE PUSH2 0x1CED JUMP JUMPDEST PUSH2 0x10EF JUMPI PUSH2 0x3A0 MLOAD PUSH1 0x1 PUSH1 0x1 PUSH1 0x40 SHL SUB DUP2 GT PUSH2 0x10D9 JUMPI PUSH2 0xE12 SWAP1 PUSH2 0xE0C DUP4 SLOAD PUSH2 0x1D3A JUMP JUMPDEST DUP4 PUSH2 0x1F12 JUMP JUMPDEST PUSH1 0x0 SWAP1 PUSH2 0x3A0 MLOAD PUSH1 0x1F DUP2 GT PUSH1 0x1 EQ PUSH2 0x106C JUMPI POP SWAP1 PUSH1 0x0 PUSH2 0x3A0 MLOAD SWAP2 DUP3 PUSH2 0x105E JUMPI JUMPDEST POP DUP2 PUSH1 0x1 SHL SWAP2 PUSH1 0x0 NOT SWAP1 PUSH1 0x3 SHL SHR NOT AND OR SWAP1 SSTORE JUMPDEST PUSH2 0x220 PUSH1 0x40 MLOAD DUP1 PUSH2 0x280 MSTORE MSTORE PUSH32 0x8D61808EB4FBC666DED2D2ECD84DA8481E4F3DB9633740CD6D7C72AE6355AE31 PUSH2 0x1034 PUSH2 0x101A PUSH2 0x1000 PUSH2 0xFE7 PUSH2 0xFCE PUSH2 0xFB4 PUSH2 0xF9A PUSH2 0xF80 PUSH2 0xF67 PUSH2 0xF4F PUSH2 0xF36 PUSH2 0xF1D PUSH2 0xF04 PUSH2 0xEEB PUSH2 0xED2 PUSH2 0xEB9 PUSH2 0x220 PUSH2 0x280 MLOAD ADD PUSH2 0x3A0 MLOAD PUSH2 0x120 MLOAD PUSH2 0x1F66 JUMP JUMPDEST PUSH2 0x280 MLOAD PUSH1 0x20 DUP2 DUP4 SUB SWAP2 ADD MSTORE PUSH2 0x200 MLOAD PUSH2 0x3E0 MLOAD PUSH2 0x1F66 JUMP JUMPDEST PUSH2 0x280 MLOAD PUSH1 0x40 DUP2 DUP4 SUB SWAP2 ADD MSTORE PUSH2 0x4E0 MLOAD PUSH2 0x1E0 MLOAD PUSH2 0x1F66 JUMP JUMPDEST PUSH2 0x280 MLOAD PUSH1 0x60 DUP2 DUP4 SUB SWAP2 ADD MSTORE PUSH2 0x380 MLOAD PUSH2 0x320 MLOAD PUSH2 0x1F66 JUMP JUMPDEST PUSH2 0x280 MLOAD PUSH1 0x80 DUP2 DUP4 SUB SWAP2 ADD MSTORE PUSH2 0x360 MLOAD PUSH2 0x340 MLOAD PUSH2 0x1F66 JUMP JUMPDEST PUSH2 0x280 MLOAD PUSH1 0xA0 DUP2 DUP4 SUB SWAP2 ADD MSTORE PUSH2 0x400 MLOAD PUSH2 0x460 MLOAD PUSH2 0x1F66 JUMP JUMPDEST PUSH2 0x280 MLOAD PUSH1 0xC0 DUP2 DUP4 SUB SWAP2 ADD MSTORE PUSH2 0x220 MLOAD PUSH2 0x140 MLOAD PUSH2 0x1F66 JUMP JUMPDEST PUSH2 0x280 MLOAD PUSH1 0xE0 DUP2 DUP4 SUB SWAP2 ADD MSTORE PUSH2 0x3C0 MLOAD PUSH1 0xE0 MLOAD PUSH2 0x1F66 JUMP JUMPDEST PUSH2 0x280 MLOAD PUSH2 0x100 DUP2 DUP4 SUB SWAP2 ADD MSTORE PUSH1 0xA0 MLOAD PUSH2 0x180 MLOAD PUSH2 0x1F66 JUMP JUMPDEST PUSH2 0x280 MLOAD PUSH2 0x120 DUP2 DUP4 SUB SWAP2 ADD MSTORE PUSH2 0x100 MLOAD PUSH2 0x2C0 MLOAD PUSH2 0x1F66 JUMP JUMPDEST PUSH2 0x280 MLOAD PUSH2 0x140 DUP2 DUP4 SUB SWAP2 ADD MSTORE PUSH2 0x160 MLOAD PUSH2 0x4A0 MLOAD PUSH2 0x1F66 JUMP JUMPDEST PUSH2 0x280 MLOAD PUSH2 0x160 DUP2 DUP4 SUB SWAP2 ADD MSTORE PUSH2 0x260 MLOAD PUSH2 0x500 MLOAD PUSH2 0x1F66 JUMP JUMPDEST PUSH2 0x280 MLOAD PUSH2 0x180 DUP2 DUP4 SUB SWAP2 ADD MSTORE PUSH2 0x300 MLOAD PUSH1 0x80 MLOAD PUSH2 0x1F66 JUMP JUMPDEST PUSH2 0x280 MLOAD PUSH2 0x1A0 DUP2 DUP4 SUB SWAP2 ADD MSTORE PUSH2 0x1C0 MLOAD PUSH1 0xC0 MLOAD PUSH2 0x1F66 JUMP JUMPDEST PUSH2 0x280 MLOAD PUSH2 0x1C0 DUP2 DUP4 SUB SWAP2 ADD MSTORE PUSH2 0x2A0 MLOAD PUSH2 0x4C0 MLOAD PUSH2 0x1F66 JUMP JUMPDEST PUSH2 0x280 MLOAD PUSH2 0x1E0 DUP2 DUP4 SUB SWAP2 ADD MSTORE PUSH2 0x2E0 MLOAD PUSH2 0x420 MLOAD PUSH2 0x1F66 JUMP JUMPDEST PUSH2 0x280 MLOAD PUSH2 0x200 DUP2 DUP4 SUB SWAP2 ADD MSTORE PUSH2 0x1056 PUSH2 0x280 MLOAD SWAP2 PUSH2 0x480 MLOAD PUSH2 0x240 MLOAD PUSH2 0x1F66 JUMP JUMPDEST SUB PUSH2 0x280 MLOAD LOG1 STOP JUMPDEST SWAP1 POP PUSH2 0x120 MLOAD ADD CALLDATALOAD DUP4 PUSH2 0xE33 JUMP JUMPDEST DUP2 PUSH1 0x0 MSTORE PUSH1 0x20 PUSH1 0x0 KECCAK256 PUSH1 0x0 SWAP4 PUSH2 0x120 MLOAD SWAP1 JUMPDEST PUSH1 0x1F NOT DUP5 AND DUP7 LT PUSH2 0x10C1 JUMPI PUSH1 0x1 SWAP5 SWAP6 POP DUP4 PUSH1 0x1F NOT DUP2 AND LT PUSH2 0x10A7 JUMPI JUMPDEST POP POP POP DUP2 SHL ADD SWAP1 SSTORE PUSH2 0xE47 JUMP JUMPDEST ADD CALLDATALOAD PUSH1 0x0 NOT PUSH1 0x3 DUP5 SWAP1 SHL PUSH1 0xF8 AND SHR NOT AND SWAP1 SSTORE DUP4 DUP1 DUP1 PUSH2 0x109A JUMP JUMPDEST SWAP2 PUSH1 0x20 PUSH1 0x1 DUP2 SWAP3 DUP6 DUP6 ADD CALLDATALOAD DUP2 SSTORE ADD SWAP4 ADD SWAP6 ADD SWAP5 PUSH2 0x107E JUMP JUMPDEST PUSH4 0x4E487B71 PUSH1 0xE0 SHL PUSH1 0x0 MSTORE PUSH1 0x41 PUSH1 0x4 MSTORE PUSH1 0x24 PUSH1 0x0 REVERT JUMPDEST PUSH4 0x4E487B71 PUSH1 0xE0 SHL PUSH1 0x0 MSTORE PUSH1 0x0 PUSH1 0x4 MSTORE PUSH1 0x24 PUSH1 0x0 REVERT JUMPDEST ADD MLOAD SWAP1 POP DUP4 DUP1 PUSH2 0xDAF JUMP JUMPDEST DUP3 PUSH1 0x0 MSTORE PUSH1 0x20 PUSH1 0x0 KECCAK256 SWAP1 PUSH1 0x0 SWAP5 PUSH1 0x1F NOT DUP5 AND SWAP6 JUMPDEST DUP7 DUP2 LT PUSH2 0x115D JUMPI POP DUP4 PUSH1 0x1 SWAP6 SWAP7 LT PUSH2 0x1144 JUMPI JUMPDEST POP POP POP DUP2 SHL ADD SWAP1 SSTORE PUSH2 0xDC4 JUMP JUMPDEST ADD MLOAD PUSH1 0x0 NOT PUSH1 0xF8 DUP5 PUSH1 0x3 SHL AND SHR NOT AND SWAP1 SSTORE DUP4 DUP1 DUP1 PUSH2 0x1137 JUMP JUMPDEST SWAP2 SWAP3 PUSH1 0x20 PUSH1 0x1 DUP2 SWAP3 DUP7 DUP6 ADD MLOAD DUP2 SSTORE ADD SWAP5 ADD SWAP3 ADD PUSH2 0x1124 JUMP JUMPDEST ADD MLOAD SWAP1 POP DUP4 DUP1 PUSH2 0xD4C JUMP JUMPDEST SWAP3 POP PUSH1 0xE DUP5 ADD PUSH1 0x0 MSTORE PUSH1 0x20 PUSH1 0x0 KECCAK256 SWAP1 PUSH1 0x0 SWAP4 JUMPDEST PUSH1 0x1F NOT DUP5 AND DUP6 LT PUSH2 0x11D7 JUMPI PUSH1 0x1 SWAP5 POP DUP4 PUSH1 0x1F NOT DUP2 AND LT PUSH2 0x11BE JUMPI JUMPDEST POP POP POP DUP2 SHL ADD PUSH1 0xE DUP3 ADD SSTORE PUSH2 0xD64 JUMP JUMPDEST ADD MLOAD PUSH1 0x0 NOT PUSH1 0xF8 DUP5 PUSH1 0x3 SHL AND SHR NOT AND SWAP1 SSTORE DUP4 DUP1 DUP1 PUSH2 0x11AE JUMP JUMPDEST DUP2 DUP2 ADD MLOAD DUP4 SSTORE PUSH1 0x20 SWAP5 DUP6 ADD SWAP5 PUSH1 0x1 SWAP1 SWAP4 ADD SWAP3 SWAP1 SWAP2 ADD SWAP1 PUSH2 0x1193 JUMP JUMPDEST ADD MLOAD SWAP1 POP DUP4 DUP1 PUSH2 0xCE8 JUMP JUMPDEST SWAP3 POP PUSH1 0xD DUP5 ADD PUSH1 0x0 MSTORE PUSH1 0x20 PUSH1 0x0 KECCAK256 SWAP1 PUSH1 0x0 SWAP4 JUMPDEST PUSH1 0x1F NOT DUP5 AND DUP6 LT PUSH2 0x1254 JUMPI PUSH1 0x1 SWAP5 POP DUP4 PUSH1 0x1F NOT DUP2 AND LT PUSH2 0x123B JUMPI JUMPDEST POP POP POP DUP2 SHL ADD PUSH1 0xD DUP3 ADD SSTORE PUSH2 0xD00 JUMP JUMPDEST ADD MLOAD PUSH1 0x0 NOT PUSH1 0xF8 DUP5 PUSH1 0x3 SHL AND SHR NOT AND SWAP1 SSTORE DUP4 DUP1 DUP1 PUSH2 0x122B JUMP JUMPDEST DUP2 DUP2 ADD MLOAD DUP4 SSTORE PUSH1 0x20 SWAP5 DUP6 ADD SWAP5 PUSH1 0x1 SWAP1 SWAP4 ADD SWAP3 SWAP1 SWAP2 ADD SWAP1 PUSH2 0x1210 JUMP JUMPDEST ADD MLOAD SWAP1 POP DUP4 DUP1 PUSH2 0xC86 JUMP JUMPDEST SWAP3 POP PUSH1 0xC DUP5 ADD PUSH1 0x0 MSTORE PUSH1 0x20 PUSH1 0x0 KECCAK256 SWAP1 PUSH1 0x0 SWAP4 JUMPDEST PUSH1 0x1F NOT DUP5 AND DUP6 LT PUSH2 0x12D1 JUMPI PUSH1 0x1 SWAP5 POP DUP4 PUSH1 0x1F NOT DUP2 AND LT PUSH2 0x12B8 JUMPI JUMPDEST POP POP POP DUP2 SHL ADD PUSH1 0xC DUP3 ADD SSTORE PUSH2 0xC9E JUMP JUMPDEST ADD MLOAD PUSH1 0x0 NOT PUSH1 0xF8 DUP5 PUSH1 0x3 SHL AND SHR NOT AND SWAP1 SSTORE DUP4 DUP1 DUP1 PUSH2 0x12A8 JUMP JUMPDEST DUP2 DUP2 ADD MLOAD DUP4 SSTORE PUSH1 0x20 SWAP5 DUP6 ADD SWAP5 PUSH1 0x1 SWAP1 SWAP4 ADD SWAP3 SWAP1 SWAP2 ADD SWAP1 PUSH2 0x128D JUMP JUMPDEST ADD MLOAD SWAP1 POP DUP4 DUP1 PUSH2 0xC22 JUMP JUMPDEST SWAP3 POP PUSH1 0xB DUP5 ADD PUSH1 0x0 MSTORE PUSH1 0x20 PUSH1 0x0 KECCAK256 SWAP1 PUSH1 0x0 SWAP4 JUMPDEST PUSH1 0x1F NOT DUP5 AND DUP6 LT PUSH2 0x134E JUMPI PUSH1 0x1 SWAP5 POP DUP4 PUSH1 0x1F NOT DUP2 AND LT PUSH2 0x1335 JUMPI JUMPDEST POP POP POP DUP2 SHL ADD PUSH1 0xB DUP3 ADD SSTORE PUSH2 0xC3A JUMP JUMPDEST ADD MLOAD PUSH1 0x0 NOT PUSH1 0xF8 DUP5 PUSH1 0x3 SHL AND SHR NOT AND SWAP1 SSTORE DUP4 DUP1 DUP1 PUSH2 0x1325 JUMP JUMPDEST DUP2 DUP2 ADD MLOAD DUP4 SSTORE PUSH1 0x20 SWAP5 DUP6 ADD SWAP5 PUSH1 0x1 SWAP1 SWAP4 ADD SWAP3 SWAP1 SWAP2 ADD SWAP1 PUSH2 0x130A JUMP JUMPDEST ADD MLOAD SWAP1 POP DUP4 DUP1 PUSH2 0xBBE JUMP JUMPDEST SWAP3 POP PUSH1 0xA DUP5 ADD PUSH1 0x0 MSTORE PUSH1 0x20 PUSH1 0x0 KECCAK256 SWAP1 PUSH1 0x0 SWAP4 JUMPDEST PUSH1 0x1F NOT DUP5 AND DUP6 LT PUSH2 0x13CB JUMPI PUSH1 0x1 SWAP5 POP DUP4 PUSH1 0x1F NOT DUP2 AND LT PUSH2 0x13B2 JUMPI JUMPDEST POP POP POP DUP2 SHL ADD PUSH1 0xA DUP3 ADD SSTORE PUSH2 0xBD6 JUMP JUMPDEST ADD MLOAD PUSH1 0x0 NOT PUSH1 0xF8 DUP5 PUSH1 0x3 SHL AND SHR NOT AND SWAP1 SSTORE DUP4 DUP1 DUP1 PUSH2 0x13A2 JUMP JUMPDEST DUP2 DUP2 ADD MLOAD DUP4 SSTORE PUSH1 0x20 SWAP5 DUP6 ADD SWAP5 PUSH1 0x1 SWAP1 SWAP4 ADD SWAP3 SWAP1 SWAP2 ADD SWAP1 PUSH2 0x1387 JUMP JUMPDEST ADD MLOAD SWAP1 POP DUP4 DUP1 PUSH2 0xB5A JUMP JUMPDEST SWAP3 POP PUSH1 0x9 DUP5 ADD PUSH1 0x0 MSTORE PUSH1 0x20 PUSH1 0x0 KECCAK256 SWAP1 PUSH1 0x0 SWAP4 JUMPDEST PUSH1 0x1F NOT DUP5 AND DUP6 LT PUSH2 0x1448 JUMPI PUSH1 0x1 SWAP5 POP DUP4 PUSH1 0x1F NOT DUP2 AND LT PUSH2 0x142F JUMPI JUMPDEST POP POP POP DUP2 SHL ADD PUSH1 0x9 DUP3 ADD SSTORE PUSH2 0xB72 JUMP JUMPDEST ADD MLOAD PUSH1 0x0 NOT PUSH1 0xF8 DUP5 PUSH1 0x3 SHL AND SHR NOT AND SWAP1 SSTORE DUP4 DUP1 DUP1 PUSH2 0x141F JUMP JUMPDEST DUP2 DUP2 ADD MLOAD DUP4 SSTORE PUSH1 0x20 SWAP5 DUP6 ADD SWAP5 PUSH1 0x1 SWAP1 SWAP4 ADD SWAP3 SWAP1 SWAP2 ADD SWAP1 PUSH2 0x1404 JUMP JUMPDEST ADD MLOAD SWAP1 POP DUP4 DUP1 PUSH2 0xAF6 JUMP JUMPDEST SWAP3 POP PUSH1 0x8 DUP5 ADD PUSH1 0x0 MSTORE PUSH1 0x20 PUSH1 0x0 KECCAK256 SWAP1 PUSH1 0x0 SWAP4 JUMPDEST PUSH1 0x1F NOT DUP5 AND DUP6 LT PUSH2 0x14C5 JUMPI PUSH1 0x1 SWAP5 POP DUP4 PUSH1 0x1F NOT DUP2 AND LT PUSH2 0x14AC JUMPI JUMPDEST POP POP POP DUP2 SHL ADD PUSH1 0x8 DUP3 ADD SSTORE PUSH2 0xB0E JUMP JUMPDEST ADD MLOAD PUSH1 0x0 NOT PUSH1 0xF8 DUP5 PUSH1 0x3 SHL AND SHR NOT AND SWAP1 SSTORE DUP4 DUP1 DUP1 PUSH2 0x149C JUMP JUMPDEST DUP2 DUP2 ADD MLOAD DUP4 SSTORE PUSH1 0x20 SWAP5 DUP6 ADD SWAP5 PUSH1 0x1 SWAP1 SWAP4 ADD SWAP3 SWAP1 SWAP2 ADD SWAP1 PUSH2 0x1481 JUMP JUMPDEST ADD MLOAD SWAP1 POP DUP4 DUP1 PUSH2 0xA92 JUMP JUMPDEST SWAP3 POP PUSH1 0x7 DUP5 ADD PUSH1 0x0 MSTORE PUSH1 0x20 PUSH1 0x0 KECCAK256 SWAP1 PUSH1 0x0 SWAP4 JUMPDEST PUSH1 0x1F NOT DUP5 AND DUP6 LT PUSH2 0x1542 JUMPI PUSH1 0x1 SWAP5 POP DUP4 PUSH1 0x1F NOT DUP2 AND LT PUSH2 0x1529 JUMPI JUMPDEST POP POP POP DUP2 SHL ADD PUSH1 0x7 DUP3 ADD SSTORE PUSH2 0xAAA JUMP JUMPDEST ADD MLOAD PUSH1 0x0 NOT PUSH1 0xF8 DUP5 PUSH1 0x3 SHL AND SHR NOT AND SWAP1 SSTORE DUP4 DUP1 DUP1 PUSH2 0x1519 JUMP JUMPDEST DUP2 DUP2 ADD MLOAD DUP4 SSTORE PUSH1 0x20 SWAP5 DUP6 ADD SWAP5 PUSH1 0x1 SWAP1 SWAP4 ADD SWAP3 SWAP1 SWAP2 ADD SWAP1 PUSH2 0x14FE JUMP JUMPDEST ADD MLOAD SWAP1 POP DUP4 DUP1 PUSH2 0xA2F JUMP JUMPDEST SWAP3 POP PUSH1 0x6 DUP5 ADD PUSH1 0x0 MSTORE PUSH1 0x20 PUSH1 0x0 KECCAK256 SWAP1 PUSH1 0x0 SWAP4 JUMPDEST PUSH1 0x1F NOT DUP5 AND DUP6 LT PUSH2 0x15BF JUMPI PUSH1 0x1 SWAP5 POP DUP4 PUSH1 0x1F NOT DUP2 AND LT PUSH2 0x15A6 JUMPI JUMPDEST POP POP POP DUP2 SHL ADD PUSH1 0x6 DUP3 ADD SSTORE PUSH2 0xA47 JUMP JUMPDEST ADD MLOAD PUSH1 0x0 NOT PUSH1 0xF8 DUP5 PUSH1 0x3 SHL AND SHR NOT AND SWAP1 SSTORE DUP4 DUP1 DUP1 PUSH2 0x1596 JUMP JUMPDEST DUP2 DUP2 ADD MLOAD DUP4 SSTORE PUSH1 0x20 SWAP5 DUP6 ADD SWAP5 PUSH1 0x1 SWAP1 SWAP4 ADD SWAP3 SWAP1 SWAP2 ADD SWAP1 PUSH2 0x157B JUMP JUMPDEST ADD MLOAD SWAP1 POP DUP4 DUP1 PUSH2 0x9CC JUMP JUMPDEST SWAP3 POP PUSH1 0x5 DUP5 ADD PUSH1 0x0 MSTORE PUSH1 0x20 PUSH1 0x0 KECCAK256 SWAP1 PUSH1 0x0 SWAP4 JUMPDEST PUSH1 0x1F NOT DUP5 AND DUP6 LT PUSH2 0x163C JUMPI PUSH1 0x1 SWAP5 POP DUP4 PUSH1 0x1F NOT DUP2 AND LT PUSH2 0x1623 JUMPI JUMPDEST POP POP POP DUP2 SHL ADD PUSH1 0x5 DUP3 ADD SSTORE PUSH2 0x9E4 JUMP JUMPDEST ADD MLOAD PUSH1 0x0 NOT PUSH1 0xF8 DUP5 PUSH1 0x3 SHL AND SHR NOT AND SWAP1 SSTORE DUP4 DUP1 DUP1 PUSH2 0x1613 JUMP JUMPDEST DUP2 DUP2 ADD MLOAD DUP4 SSTORE PUSH1 0x20 SWAP5 DUP6 ADD SWAP5 PUSH1 0x1 SWAP1 SWAP4 ADD SWAP3 SWAP1 SWAP2 ADD SWAP1 PUSH2 0x15F8 JUMP JUMPDEST ADD MLOAD SWAP1 POP DUP4 DUP1 PUSH2 0x969 JUMP JUMPDEST SWAP3 POP PUSH1 0x4 DUP5 ADD PUSH1 0x0 MSTORE PUSH1 0x20 PUSH1 0x0 KECCAK256 SWAP1 PUSH1 0x0 SWAP4 JUMPDEST PUSH1 0x1F NOT DUP5 AND DUP6 LT PUSH2 0x16B9 JUMPI PUSH1 0x1 SWAP5 POP DUP4 PUSH1 0x1F NOT DUP2 AND LT PUSH2 0x16A0 JUMPI JUMPDEST POP POP POP DUP2 SHL ADD PUSH1 0x4 DUP3 ADD SSTORE PUSH2 0x981 JUMP JUMPDEST ADD MLOAD PUSH1 0x0 NOT PUSH1 0xF8 DUP5 PUSH1 0x3 SHL AND SHR NOT AND SWAP1 SSTORE DUP4 DUP1 DUP1 PUSH2 0x1690 JUMP JUMPDEST DUP2 DUP2 ADD MLOAD DUP4 SSTORE PUSH1 0x20 SWAP5 DUP6 ADD SWAP5 PUSH1 0x1 SWAP1 SWAP4 ADD SWAP3 SWAP1 SWAP2 ADD SWAP1 PUSH2 0x1675 JUMP JUMPDEST ADD MLOAD SWAP1 POP DUP4 DUP1 PUSH2 0x906 JUMP JUMPDEST SWAP3 POP PUSH1 0x3 DUP5 ADD PUSH1 0x0 MSTORE PUSH1 0x20 PUSH1 0x0 KECCAK256 SWAP1 PUSH1 0x0 SWAP4 JUMPDEST PUSH1 0x1F NOT DUP5 AND DUP6 LT PUSH2 0x1736 JUMPI PUSH1 0x1 SWAP5 POP DUP4 PUSH1 0x1F NOT DUP2 AND LT PUSH2 0x171D JUMPI JUMPDEST POP POP POP DUP2 SHL ADD PUSH1 0x3 DUP3 ADD SSTORE PUSH2 0x91E JUMP JUMPDEST ADD MLOAD PUSH1 0x0 NOT PUSH1 0xF8 DUP5 PUSH1 0x3 SHL AND SHR NOT AND SWAP1 SSTORE DUP4 DUP1 DUP1 PUSH2 0x170D JUMP JUMPDEST DUP2 DUP2 ADD MLOAD DUP4 SSTORE PUSH1 0x20 SWAP5 DUP6 ADD SWAP5 PUSH1 0x1 SWAP1 SWAP4 ADD SWAP3 SWAP1 SWAP2 ADD SWAP1 PUSH2 0x16F2 JUMP JUMPDEST ADD MLOAD SWAP1 POP DUP4 DUP1 PUSH2 0x8A3 JUMP JUMPDEST SWAP3 POP PUSH1 0x2 DUP5 ADD PUSH1 0x0 MSTORE PUSH1 0x20 PUSH1 0x0 KECCAK256 SWAP1 PUSH1 0x0 SWAP4 JUMPDEST PUSH1 0x1F NOT DUP5 AND DUP6 LT PUSH2 0x17B3 JUMPI PUSH1 0x1 SWAP5 POP DUP4 PUSH1 0x1F NOT DUP2 AND LT PUSH2 0x179A JUMPI JUMPDEST POP POP POP DUP2 SHL ADD PUSH1 0x2 DUP3 ADD SSTORE PUSH2 0x8BB JUMP JUMPDEST ADD MLOAD PUSH1 0x0 NOT PUSH1 0xF8 DUP5 PUSH1 0x3 SHL AND SHR NOT AND SWAP1 SSTORE DUP4 DUP1 DUP1 PUSH2 0x178A JUMP JUMPDEST DUP2 DUP2 ADD MLOAD DUP4 SSTORE PUSH1 0x20 SWAP5 DUP6 ADD SWAP5 PUSH1 0x1 SWAP1 SWAP4 ADD SWAP3 SWAP1 SWAP2 ADD SWAP1 PUSH2 0x176F JUMP JUMPDEST ADD MLOAD SWAP1 POP DUP4 DUP1 PUSH2 0x840 JUMP JUMPDEST SWAP3 POP PUSH1 0x1 DUP5 ADD PUSH1 0x0 MSTORE PUSH1 0x20 PUSH1 0x0 KECCAK256 SWAP1 PUSH1 0x0 SWAP4 JUMPDEST PUSH1 0x1F NOT DUP5 AND DUP6 LT PUSH2 0x1830 JUMPI PUSH1 0x1 SWAP5 POP DUP4 PUSH1 0x1F NOT DUP2 AND LT PUSH2 0x1817 JUMPI JUMPDEST POP POP POP DUP2 SHL ADD PUSH1 0x1 DUP3 ADD SSTORE PUSH2 0x858 JUMP JUMPDEST ADD MLOAD PUSH1 0x0 NOT PUSH1 0xF8 DUP5 PUSH1 0x3 SHL AND SHR NOT AND SWAP1 SSTORE DUP4 DUP1 DUP1 PUSH2 0x1807 JUMP JUMPDEST DUP2 DUP2 ADD MLOAD DUP4 SSTORE PUSH1 0x20 SWAP5 DUP6 ADD SWAP5 PUSH1 0x1 SWAP1 SWAP4 ADD SWAP3 SWAP1 SWAP2 ADD SWAP1 PUSH2 0x17EC JUMP JUMPDEST ADD MLOAD SWAP1 POP DUP4 DUP1 PUSH2 0x7E0 JUMP JUMPDEST SWAP3 POP DUP4 PUSH1 0x0 MSTORE PUSH1 0x20 PUSH1 0x0 KECCAK256 SWAP1 PUSH1 0x0 SWAP4 JUMPDEST PUSH1 0x1F NOT DUP5 AND DUP6 LT PUSH2 0x18A7 JUMPI PUSH1 0x1 SWAP5 POP DUP4 PUSH1 0x1F NOT DUP2 AND LT PUSH2 0x188E JUMPI JUMPDEST POP POP POP DUP2 SHL ADD DUP2 SSTORE PUSH2 0x7F5 JUMP JUMPDEST ADD MLOAD PUSH1 0x0 NOT PUSH1 0xF8 DUP5 PUSH1 0x3 SHL AND SHR NOT AND SWAP1 SSTORE DUP4 DUP1 DUP1 PUSH2 0x1881 JUMP JUMPDEST DUP2 DUP2 ADD MLOAD DUP4 SSTORE PUSH1 0x20 SWAP5 DUP6 ADD SWAP5 PUSH1 0x1 SWAP1 SWAP4 ADD SWAP3 SWAP1 SWAP2 ADD SWAP1 PUSH2 0x1866 JUMP JUMPDEST PUSH1 0x40 MLOAD PUSH3 0x461BCD PUSH1 0xE5 SHL DUP2 MSTORE PUSH1 0x20 PUSH1 0x4 DUP3 ADD MSTORE PUSH1 0xB PUSH1 0x24 DUP3 ADD MSTORE PUSH11 0x139BDD081CDD195DD85C99 PUSH1 0xAA SHL PUSH1 0x44 DUP3 ADD MSTORE PUSH1 0x64 SWAP1 REVERT JUMPDEST CALLVALUE PUSH2 0x2F7 JUMPI PUSH1 0x20 CALLDATASIZE PUSH1 0x3 NOT ADD SLT PUSH2 0x2F7 JUMPI PUSH1 0x4 CALLDATALOAD PUSH1 0x1 PUSH1 0x1 PUSH1 0x40 SHL SUB DUP2 GT PUSH2 0x2F7 JUMPI PUSH1 0x20 PUSH2 0x192A PUSH2 0x1B8B SWAP3 CALLDATASIZE SWAP1 PUSH1 0x4 ADD PUSH2 0x1E9F JUMP JUMPDEST SWAP2 SWAP1 PUSH1 0x60 PUSH2 0x1E0 PUSH1 0x40 MLOAD PUSH2 0x193D DUP2 PUSH2 0x1D74 JUMP JUMPDEST DUP3 DUP2 MSTORE DUP3 DUP6 DUP3 ADD MSTORE DUP3 PUSH1 0x40 DUP3 ADD MSTORE DUP3 DUP1 DUP3 ADD MSTORE DUP3 PUSH1 0x80 DUP3 ADD MSTORE DUP3 PUSH1 0xA0 DUP3 ADD MSTORE DUP3 PUSH1 0xC0 DUP3 ADD MSTORE DUP3 PUSH1 0xE0 DUP3 ADD MSTORE DUP3 PUSH2 0x100 DUP3 ADD MSTORE DUP3 PUSH2 0x120 DUP3 ADD MSTORE DUP3 PUSH2 0x140 DUP3 ADD MSTORE DUP3 PUSH2 0x160 DUP3 ADD MSTORE DUP3 PUSH2 0x180 DUP3 ADD MSTORE DUP3 PUSH2 0x1A0 DUP3 ADD MSTORE DUP3 PUSH2 0x1C0 DUP3 ADD MSTORE ADD MSTORE DUP3 PUSH1 0x40 MLOAD SWAP4 DUP5 SWAP3 DUP4 CALLDATACOPY DUP2 ADD PUSH1 0x1 DUP2 MSTORE SUB ADD SWAP1 KECCAK256 PUSH2 0x1AC6 PUSH1 0xF PUSH1 0x40 MLOAD SWAP3 PUSH2 0x19C0 DUP5 PUSH2 0x1D74 JUMP JUMPDEST PUSH2 0x19C9 DUP2 PUSH2 0x1DB1 JUMP JUMPDEST DUP5 MSTORE PUSH2 0x19D7 PUSH1 0x1 DUP3 ADD PUSH2 0x1DB1 JUMP JUMPDEST PUSH1 0x20 DUP6 ADD MSTORE PUSH2 0x19E8 PUSH1 0x2 DUP3 ADD PUSH2 0x1DB1 JUMP JUMPDEST PUSH1 0x40 DUP6 ADD MSTORE PUSH2 0x19F9 PUSH1 0x3 DUP3 ADD PUSH2 0x1DB1 JUMP JUMPDEST PUSH1 0x60 DUP6 ADD MSTORE PUSH2 0x1A0A PUSH1 0x4 DUP3 ADD PUSH2 0x1DB1 JUMP JUMPDEST PUSH1 0x80 DUP6 ADD MSTORE PUSH2 0x1A1B PUSH1 0x5 DUP3 ADD PUSH2 0x1DB1 JUMP JUMPDEST PUSH1 0xA0 DUP6 ADD MSTORE PUSH2 0x1A2C PUSH1 0x6 DUP3 ADD PUSH2 0x1DB1 JUMP JUMPDEST PUSH1 0xC0 DUP6 ADD MSTORE PUSH2 0x1A3D PUSH1 0x7 DUP3 ADD PUSH2 0x1DB1 JUMP JUMPDEST PUSH1 0xE0 DUP6 ADD MSTORE PUSH2 0x1A4E PUSH1 0x8 DUP3 ADD PUSH2 0x1DB1 JUMP JUMPDEST PUSH2 0x100 DUP6 ADD MSTORE PUSH2 0x1A60 PUSH1 0x9 DUP3 ADD PUSH2 0x1DB1 JUMP JUMPDEST PUSH2 0x120 DUP6 ADD MSTORE PUSH2 0x1A72 PUSH1 0xA DUP3 ADD PUSH2 0x1DB1 JUMP JUMPDEST PUSH2 0x140 DUP6 ADD MSTORE PUSH2 0x1A84 PUSH1 0xB DUP3 ADD PUSH2 0x1DB1 JUMP JUMPDEST PUSH2 0x160 DUP6 ADD MSTORE PUSH2 0x1A96 PUSH1 0xC DUP3 ADD PUSH2 0x1DB1 JUMP JUMPDEST PUSH2 0x180 DUP6 ADD MSTORE PUSH2 0x1AA8 PUSH1 0xD DUP3 ADD PUSH2 0x1DB1 JUMP JUMPDEST PUSH2 0x1A0 DUP6 ADD MSTORE PUSH2 0x1ABA PUSH1 0xE DUP3 ADD PUSH2 0x1DB1 JUMP JUMPDEST PUSH2 0x1C0 DUP6 ADD MSTORE ADD PUSH2 0x1DB1 JUMP JUMPDEST PUSH2 0x1E0 DUP3 ADD MSTORE PUSH2 0x1C75 DUP2 PUSH2 0x1E0 PUSH2 0x1C60 PUSH2 0x1C4A PUSH2 0x1C32 PUSH2 0x1C1A PUSH2 0x1C02 PUSH2 0x1BEA PUSH2 0x1BD2 PUSH2 0x1BBA PUSH2 0x1BA3 PUSH1 0x40 MLOAD SWAP14 DUP15 SWAP14 DUP15 PUSH1 0x20 DUP2 MSTORE PUSH1 0xA0 PUSH2 0x1B76 PUSH2 0x1B61 PUSH2 0x1B4B PUSH2 0x1B35 PUSH2 0x1B1F DUP8 MLOAD PUSH2 0x200 PUSH1 0x20 DUP10 ADD MSTORE PUSH2 0x220 DUP9 ADD SWAP1 PUSH2 0x1E7A JUMP JUMPDEST PUSH1 0x20 DUP9 ADD MLOAD DUP8 DUP3 SUB PUSH1 0x1F NOT ADD PUSH1 0x40 DUP10 ADD MSTORE PUSH2 0x1E7A JUMP JUMPDEST PUSH1 0x40 DUP8 ADD MLOAD DUP7 DUP3 SUB PUSH1 0x1F NOT ADD PUSH1 0x60 DUP9 ADD MSTORE PUSH2 0x1E7A JUMP JUMPDEST PUSH1 0x60 DUP7 ADD MLOAD DUP6 DUP3 SUB PUSH1 0x1F NOT ADD PUSH1 0x80 DUP8 ADD MSTORE PUSH2 0x1E7A JUMP JUMPDEST PUSH1 0x80 DUP6 ADD MLOAD DUP5 DUP3 SUB PUSH1 0x1F NOT ADD DUP5 DUP7 ADD MSTORE PUSH2 0x1E7A JUMP JUMPDEST SWAP3 ADD MLOAD SWAP1 PUSH1 0xC0 PUSH1 0x1F NOT DUP3 DUP6 SUB ADD SWAP2 ADD MSTORE PUSH2 0x1E7A JUMP JUMPDEST DUP14 PUSH1 0xC0 DUP14 ADD MLOAD SWAP1 PUSH1 0xE0 PUSH1 0x1F NOT DUP3 DUP6 SUB ADD SWAP2 ADD MSTORE PUSH2 0x1E7A JUMP JUMPDEST PUSH1 0xE0 DUP12 ADD MLOAD DUP14 DUP3 SUB PUSH1 0x1F NOT ADD PUSH2 0x100 DUP16 ADD MSTORE PUSH2 0x1E7A JUMP JUMPDEST PUSH2 0x100 DUP11 ADD MLOAD DUP13 DUP3 SUB PUSH1 0x1F NOT ADD PUSH2 0x120 DUP15 ADD MSTORE PUSH2 0x1E7A JUMP JUMPDEST PUSH2 0x120 DUP10 ADD MLOAD DUP12 DUP3 SUB PUSH1 0x1F NOT ADD PUSH2 0x140 DUP14 ADD MSTORE PUSH2 0x1E7A JUMP JUMPDEST PUSH2 0x140 DUP9 ADD MLOAD DUP11 DUP3 SUB PUSH1 0x1F NOT ADD PUSH2 0x160 DUP13 ADD MSTORE PUSH2 0x1E7A JUMP JUMPDEST PUSH2 0x160 DUP8 ADD MLOAD DUP10 DUP3 SUB PUSH1 0x1F NOT ADD PUSH2 0x180 DUP12 ADD MSTORE PUSH2 0x1E7A JUMP JUMPDEST PUSH2 0x180 DUP7 ADD MLOAD DUP9 DUP3 SUB PUSH1 0x1F NOT ADD PUSH2 0x1A0 DUP11 ADD MSTORE PUSH2 0x1E7A JUMP JUMPDEST PUSH2 0x1A0 DUP6 ADD MLOAD DUP8 DUP3 SUB PUSH1 0x1F NOT ADD PUSH2 0x1C0 DUP10 ADD MSTORE PUSH2 0x1E7A JUMP JUMPDEST PUSH2 0x1C0 DUP5 ADD MLOAD DUP7 DUP3 SUB PUSH1 0x1F NOT ADD DUP5 DUP9 ADD MSTORE PUSH2 0x1E7A JUMP JUMPDEST SWAP2 ADD MLOAD DUP4 DUP3 SUB PUSH1 0x1F NOT ADD PUSH2 0x200 DUP6 ADD MSTORE PUSH2 0x1E7A JUMP JUMPDEST SUB SWAP1 RETURN JUMPDEST CALLVALUE PUSH2 0x2F7 JUMPI PUSH1 0x0 CALLDATASIZE PUSH1 0x3 NOT ADD SLT PUSH2 0x2F7 JUMPI PUSH1 0x0 SLOAD PUSH1 0x40 MLOAD PUSH1 0x1 PUSH1 0x1 PUSH1 0xA0 SHL SUB SWAP1 SWAP2 AND DUP2 MSTORE PUSH1 0x20 SWAP1 RETURN JUMPDEST CALLVALUE PUSH2 0x2F7 JUMPI PUSH1 0x20 CALLDATASIZE PUSH1 0x3 NOT ADD SLT PUSH2 0x2F7 JUMPI PUSH1 0x4 CALLDATALOAD PUSH1 0x2 SLOAD DUP2 LT ISZERO PUSH2 0x2F7 JUMPI PUSH2 0x1CC9 SWAP1 PUSH2 0x1CED JUMP JUMPDEST PUSH2 0x10EF JUMPI PUSH2 0x1CD9 PUSH2 0x1C75 SWAP2 PUSH2 0x1DB1 JUMP JUMPDEST PUSH1 0x40 MLOAD SWAP2 DUP3 SWAP2 PUSH1 0x20 DUP4 MSTORE PUSH1 0x20 DUP4 ADD SWAP1 PUSH2 0x1E7A JUMP JUMPDEST PUSH1 0x2 SLOAD DUP2 LT ISZERO PUSH2 0x1D24 JUMPI PUSH1 0x2 PUSH1 0x0 MSTORE PUSH32 0x405787FA12A823E0F2B7631CC41B3BA8828B3321CA811111FA75CD3AA3BB5ACE ADD SWAP1 PUSH1 0x0 SWAP1 JUMP JUMPDEST PUSH4 0x4E487B71 PUSH1 0xE0 SHL PUSH1 0x0 MSTORE PUSH1 0x32 PUSH1 0x4 MSTORE PUSH1 0x24 PUSH1 0x0 REVERT JUMPDEST SWAP1 PUSH1 0x1 DUP3 DUP2 SHR SWAP3 AND DUP1 ISZERO PUSH2 0x1D6A JUMPI JUMPDEST PUSH1 0x20 DUP4 LT EQ PUSH2 0x1D54 JUMPI JUMP JUMPDEST PUSH4 0x4E487B71 PUSH1 0xE0 SHL PUSH1 0x0 MSTORE PUSH1 0x22 PUSH1 0x4 MSTORE PUSH1 0x24 PUSH1 0x0 REVERT JUMPDEST SWAP2 PUSH1 0x7F AND SWAP2 PUSH2 0x1D49 JUMP JUMPDEST PUSH2 0x200 DUP2 ADD SWAP1 DUP2 LT PUSH1 0x1 PUSH1 0x1 PUSH1 0x40 SHL SUB DUP3 GT OR PUSH2 0x10D9 JUMPI PUSH1 0x40 MSTORE JUMP JUMPDEST SWAP1 PUSH1 0x1F DUP1 NOT SWAP2 ADD AND DUP2 ADD SWAP1 DUP2 LT PUSH1 0x1 PUSH1 0x1 PUSH1 0x40 SHL SUB DUP3 GT OR PUSH2 0x10D9 JUMPI PUSH1 0x40 MSTORE JUMP JUMPDEST SWAP1 PUSH1 0x40 MLOAD SWAP2 DUP3 PUSH1 0x0 DUP3 SLOAD SWAP3 PUSH2 0x1DC5 DUP5 PUSH2 0x1D3A JUMP JUMPDEST SWAP1 DUP2 DUP5 MSTORE PUSH1 0x1 SWAP5 DUP6 DUP2 AND SWAP1 DUP2 PUSH1 0x0 EQ PUSH2 0x1E34 JUMPI POP PUSH1 0x1 EQ PUSH2 0x1DF1 JUMPI JUMPDEST POP POP PUSH2 0x1DEF SWAP3 POP SUB DUP4 PUSH2 0x1D90 JUMP JUMPDEST JUMP JUMPDEST SWAP1 SWAP4 SWAP2 POP PUSH1 0x0 MSTORE PUSH1 0x20 SWAP1 DUP2 PUSH1 0x0 KECCAK256 SWAP4 PUSH1 0x0 SWAP2 JUMPDEST DUP2 DUP4 LT PUSH2 0x1E1C JUMPI POP POP PUSH2 0x1DEF SWAP4 POP DUP3 ADD ADD CODESIZE DUP1 PUSH2 0x1DE1 JUMP JUMPDEST DUP6 SLOAD DUP9 DUP5 ADD DUP6 ADD MSTORE SWAP5 DUP6 ADD SWAP5 DUP8 SWAP5 POP SWAP2 DUP4 ADD SWAP2 PUSH2 0x1E04 JUMP JUMPDEST SWAP2 POP POP PUSH2 0x1DEF SWAP5 POP PUSH1 0x20 SWAP3 POP PUSH1 0xFF NOT AND DUP3 DUP5 ADD MSTORE ISZERO ISZERO PUSH1 0x5 SHL DUP3 ADD ADD CODESIZE DUP1 PUSH2 0x1DE1 JUMP JUMPDEST PUSH1 0x0 JUMPDEST DUP4 DUP2 LT PUSH2 0x1E6A JUMPI POP POP PUSH1 0x0 SWAP2 ADD MSTORE JUMP JUMPDEST DUP2 DUP2 ADD MLOAD DUP4 DUP3 ADD MSTORE PUSH1 0x20 ADD PUSH2 0x1E5A JUMP JUMPDEST SWAP1 PUSH1 0x20 SWAP2 PUSH2 0x1E93 DUP2 MLOAD DUP1 SWAP3 DUP2 DUP6 MSTORE DUP6 DUP1 DUP7 ADD SWAP2 ADD PUSH2 0x1E57 JUMP JUMPDEST PUSH1 0x1F ADD PUSH1 0x1F NOT AND ADD ADD SWAP1 JUMP JUMPDEST SWAP2 DUP2 PUSH1 0x1F DUP5 ADD SLT ISZERO PUSH2 0x2F7 JUMPI DUP3 CALLDATALOAD SWAP2 PUSH1 0x1 PUSH1 0x1 PUSH1 0x40 SHL SUB DUP4 GT PUSH2 0x2F7 JUMPI PUSH1 0x20 DUP4 DUP2 DUP7 ADD SWAP6 ADD ADD GT PUSH2 0x2F7 JUMPI JUMP JUMPDEST SWAP3 SWAP2 SWAP3 PUSH1 0x1 PUSH1 0x1 PUSH1 0x40 SHL SUB DUP3 GT PUSH2 0x10D9 JUMPI PUSH1 0x40 MLOAD SWAP2 PUSH2 0x1EF5 PUSH1 0x1F DUP3 ADD PUSH1 0x1F NOT AND PUSH1 0x20 ADD DUP5 PUSH2 0x1D90 JUMP JUMPDEST DUP3 SWAP5 DUP2 DUP5 MSTORE DUP2 DUP4 ADD GT PUSH2 0x2F7 JUMPI DUP3 DUP2 PUSH1 0x20 SWAP4 DUP5 PUSH1 0x0 SWAP7 ADD CALLDATACOPY ADD ADD MSTORE JUMP JUMPDEST SWAP1 PUSH1 0x1F DUP2 GT PUSH2 0x1F20 JUMPI POP POP POP JUMP JUMPDEST PUSH1 0x0 SWAP2 DUP3 MSTORE PUSH1 0x20 DUP3 KECCAK256 SWAP1 PUSH1 0x20 PUSH1 0x1F DUP6 ADD PUSH1 0x5 SHR DUP4 ADD SWAP5 LT PUSH2 0x1F5C JUMPI JUMPDEST PUSH1 0x1F ADD PUSH1 0x5 SHR ADD SWAP2 JUMPDEST DUP3 DUP2 LT PUSH2 0x1F51 JUMPI POP POP POP JUMP JUMPDEST DUP2 DUP2 SSTORE PUSH1 0x1 ADD PUSH2 0x1F45 JUMP JUMPDEST SWAP1 SWAP3 POP DUP3 SWAP1 PUSH2 0x1F3C JUMP JUMPDEST SWAP1 DUP1 PUSH1 0x20 SWAP4 SWAP3 DUP2 DUP5 MSTORE DUP5 DUP5 ADD CALLDATACOPY PUSH1 0x0 DUP3 DUP3 ADD DUP5 ADD MSTORE PUSH1 0x1F ADD PUSH1 0x1F NOT AND ADD ADD SWAP1 JUMP INVALID LOG2 PUSH5 0x6970667358 0x22 SLT KECCAK256 BLOCKHASH 0x2C GASLIMIT GAS 0xDC 0xC1 KECCAK256 0xB0 SGT 0xE1 0xCB CREATE2 PUSH28 0x2E06EFB52C7AA0830F05C39495EFB0B5927C0264736F6C6343000814 STOP CALLER "},"methodIdentifiers":{"codices(string)":"dbc21424","getCodex(string)":"83361522","inscribeCodex(string,string,string,string,string,string,string,string,string,string,string,string,string,string,string,string,string)":"b2b3584d","keys(uint256)":"0cb6aaf1","steward()":"637eea19","totalCodices()":"c212d16b"}}}}}