{"contracts/codex/SpiralboundCodexXXX.sol":{"SpiralboundCodexXXX":{"abi":[{"inputs":[],"stateMutability":"nonpayable","type":"constructor"},{"anonymous":false,"inputs":[{"indexed":false,"internalType":"string","name":"glyph","type":"string"},{"indexed":false,"internalType":"string","name":"tag","type":"string"},{"indexed":false,"internalType":"string","name":"binding","type":"string"},{"indexed":false,"internalType":"string","name":"annotation","type":"string"},{"indexed":false,"internalType":"string","name":"lineage","type":"string"},{"indexed":false,"internalType":"string","name":"resonance","type":"string"},{"indexed":false,"internalType":"string","name":"protocol","type":"string"},{"indexed":false,"internalType":"string","name":"sanctum","type":"string"},{"indexed":false,"internalType":"string","name":"pulse","type":"string"},{"indexed":false,"internalType":"string","name":"chant","type":"string"},{"indexed":false,"internalType":"string","name":"choreography","type":"string"},{"indexed":false,"internalType":"string","name":"drift","type":"string"},{"indexed":false,"internalType":"string","name":"signature","type":"string"},{"indexed":false,"internalType":"string","name":"signal","type":"string"},{"indexed":false,"internalType":"string","name":"companion","type":"string"},{"indexed":false,"internalType":"string","name":"stewardName","type":"string"},{"indexed":false,"internalType":"string","name":"registry","type":"string"},{"indexed":false,"internalType":"string","name":"echo","type":"string"},{"indexed":false,"internalType":"string","name":"hum","type":"string"},{"indexed":false,"internalType":"string","name":"terrain","type":"string"},{"indexed":false,"internalType":"string","name":"choreographyType","type":"string"},{"indexed":false,"internalType":"string","name":"driftType","type":"string"},{"indexed":false,"internalType":"string","name":"signalType","type":"string"},{"indexed":false,"internalType":"string","name":"companionType","type":"string"},{"indexed":false,"internalType":"string","name":"stewardSignal","type":"string"},{"indexed":false,"internalType":"string","name":"pulseType","type":"string"},{"indexed":false,"internalType":"string","name":"signalChoreography","type":"string"},{"indexed":false,"internalType":"string","name":"companionSignal","type":"string"},{"indexed":false,"internalType":"string","name":"driftSignal","type":"string"},{"indexed":false,"internalType":"string","name":"pulseSignal","type":"string"},{"indexed":false,"internalType":"string","name":"stewardPulse","type":"string"}],"name":"CodexInscribed","type":"event"},{"inputs":[{"internalType":"string","name":"","type":"string"}],"name":"codices","outputs":[{"internalType":"string","name":"tag","type":"string"},{"internalType":"string","name":"binding","type":"string"},{"internalType":"string","name":"annotation","type":"string"},{"internalType":"string","name":"lineage","type":"string"},{"internalType":"string","name":"resonance","type":"string"},{"internalType":"string","name":"protocol","type":"string"},{"internalType":"string","name":"sanctum","type":"string"},{"internalType":"string","name":"pulse","type":"string"},{"internalType":"string","name":"chant","type":"string"},{"internalType":"string","name":"choreography","type":"string"},{"internalType":"string","name":"drift","type":"string"},{"internalType":"string","name":"signature","type":"string"},{"internalType":"string","name":"signal","type":"string"},{"internalType":"string","name":"companion","type":"string"},{"internalType":"string","name":"stewardName","type":"string"},{"internalType":"string","name":"registry","type":"string"},{"internalType":"string","name":"echo","type":"string"},{"internalType":"string","name":"hum","type":"string"},{"internalType":"string","name":"terrain","type":"string"},{"internalType":"string","name":"choreographyType","type":"string"},{"internalType":"string","name":"driftType","type":"string"},{"internalType":"string","name":"signalType","type":"string"},{"internalType":"string","name":"companionType","type":"string"},{"internalType":"string","name":"stewardSignal","type":"string"},{"internalType":"string","name":"pulseType","type":"string"},{"internalType":"string","name":"signalChoreography","type":"string"},{"internalType":"string","name":"companionSignal","type":"string"},{"internalType":"string","name":"driftSignal","type":"string"},{"internalType":"string","name":"pulseSignal","type":"string"},{"internalType":"string","name":"stewardPulse","type":"string"}],"stateMutability":"view","type":"function"},{"inputs":[{"internalType":"string","name":"glyph","type":"string"}],"name":"getCodex","outputs":[{"components":[{"internalType":"string","name":"tag","type":"string"},{"internalType":"string","name":"binding","type":"string"},{"internalType":"string","name":"annotation","type":"string"},{"internalType":"string","name":"lineage","type":"string"},{"internalType":"string","name":"resonance","type":"string"},{"internalType":"string","name":"protocol","type":"string"},{"internalType":"string","name":"sanctum","type":"string"},{"internalType":"string","name":"pulse","type":"string"},{"internalType":"string","name":"chant","type":"string"},{"internalType":"string","name":"choreography","type":"string"},{"internalType":"string","name":"drift","type":"string"},{"internalType":"string","name":"signature","type":"string"},{"internalType":"string","name":"signal","type":"string"},{"internalType":"string","name":"companion","type":"string"},{"internalType":"string","name":"stewardName","type":"string"},{"internalType":"string","name":"registry","type":"string"},{"internalType":"string","name":"echo","type":"string"},{"internalType":"string","name":"hum","type":"string"},{"internalType":"string","name":"terrain","type":"string"},{"internalType":"string","name":"choreographyType","type":"string"},{"internalType":"string","name":"driftType","type":"string"},{"internalType":"string","name":"signalType","type":"string"},{"internalType":"string","name":"companionType","type":"string"},{"internalType":"string","name":"stewardSignal","type":"string"},{"internalType":"string","name":"pulseType","type":"string"},{"internalType":"string","name":"signalChoreography","type":"string"},{"internalType":"string","name":"companionSignal","type":"string"},{"internalType":"string","name":"driftSignal","type":"string"},{"internalType":"string","name":"pulseSignal","type":"string"},{"internalType":"string","name":"stewardPulse","type":"string"}],"internalType":"struct SpiralboundCodexXXX.Codex","name":"","type":"tuple"}],"stateMutability":"view","type":"function"},{"inputs":[{"internalType":"string","name":"glyph","type":"string"},{"internalType":"string","name":"tag","type":"string"},{"internalType":"string","name":"binding","type":"string"},{"internalType":"string","name":"annotation","type":"string"},{"internalType":"string","name":"lineage","type":"string"},{"internalType":"string","name":"resonance","type":"string"},{"internalType":"string","name":"protocol","type":"string"},{"internalType":"string","name":"sanctum","type":"string"},{"internalType":"string","name":"pulse","type":"string"},{"internalType":"string","name":"chant","type":"string"},{"internalType":"string","name":"choreography","type":"string"},{"internalType":"string","name":"drift","type":"string"},{"internalType":"string","name":"signature","type":"string"},{"internalType":"string","name":"signal","type":"string"},{"internalType":"string","name":"companion","type":"string"},{"internalType":"string","name":"stewardName","type":"string"},{"internalType":"string","name":"registry","type":"string"},{"internalType":"string","name":"echo","type":"string"},{"internalType":"string","name":"hum","type":"string"},{"internalType":"string","name":"terrain","type":"string"},{"internalType":"string","name":"choreographyType","type":"string"},{"internalType":"string","name":"driftType","type":"string"},{"internalType":"string","name":"signalType","type":"string"},{"internalType":"string","name":"companionType","type":"string"},{"internalType":"string","name":"stewardSignal","type":"string"},{"internalType":"string","name":"pulseType","type":"string"},{"internalType":"string","name":"signalChoreography","type":"string"},{"internalType":"string","name":"companionSignal","type":"string"},{"internalType":"string","name":"driftSignal","type":"string"},{"internalType":"string","name":"pulseSignal","type":"string"},{"internalType":"string","name":"stewardPulse","type":"string"}],"name":"inscribeCodex","outputs":[],"stateMutability":"nonpayable","type":"function"},{"inputs":[{"internalType":"uint256","name":"","type":"uint256"}],"name":"keys","outputs":[{"internalType":"string","name":"","type":"string"}],"stateMutability":"view","type":"function"},{"inputs":[],"name":"steward","outputs":[{"internalType":"address","name":"","type":"address"}],"stateMutability":"view","type":"function"},{"inputs":[],"name":"totalCodices","outputs":[{"internalType":"uint256","name":"","type":"uint256"}],"stateMutability":"view","type":"function"}],"evm":{"bytecode":{"linkReferences":{},"object":"6080806040523461002857600080546001600160a01b03191633179055613790908161002e8239f35b600080fdfe610b00604052600436101561001357600080fd5b60003560e01c80630cb6aaf114613475578063637eea191461344c5780637fae1d6414610cd75780638336152214610607578063c212d16b146105e95763dbc214241461005f57600080fd5b346105e45760203660031901126105e4576004356001600160401b0381116105e457366023820112156105e45736816004013591602401916100a09261369f565b60405181818093516020819301916100b79261362a565b81016001815203602001902080610100526100d190613584565b6106e052610100516001016100e590613584565b61044052610100516002016100f990613584565b60e0526101005160030161010c90613584565b610560526101005160040161012090613584565b6101005160050161013090613584565b6101005160060161014090613584565b6101005160070161015090613584565b6101005160080161016090613584565b6101005160090161017090613584565b61010051600a0161018090613584565b9061010051600b0161019190613584565b9261010051600c016101a290613584565b9461010051600d016101b390613584565b9661010051600e016101c490613584565b9861010051600f016101d590613584565b9a610100516010016101e690613584565b61098052610100516011016101fa90613584565b610640526101005160120161020e90613584565b6102c0526101005160130161022290613584565b6107e0526101005160140161023690613584565b610280526101005160150161024a90613584565b6104a0526101005160160161025e90613584565b610420526101005160170161027290613584565b610520526101005160180161028690613584565b610a40526101005160190161029a90613584565b6109005261010051601a016102ae90613584565b6106c05261010051601b016102c290613584565b60c05261010051601c016102d590613584565b6102405261010051601d016102e990613584565b6103205260405180610720526103c080915261072051016106e0519061030e9161364d565b61072051808203906020015261044051906103289161364d565b61072051808203906040015260e051906103419161364d565b610720518082039060600152610560519061035b9161364d565b6107205180820390608001526103709161364d565b610720518082039060a001526103859161364d565b610720518082039060c0015261039a9161364d565b610720518082039060e001526103af9161364d565b610720518082039061010001526103c59161364d565b610720518082039061012001526103db9161364d565b610720518082039061014001526103f19161364d565b610720518082039061016001526104079161364d565b6107205180820390610180015261041d9161364d565b61072051808203906101a001526104339161364d565b61072051808203906101c001526104499161364d565b61072051808203906101e0015261045f9161364d565b61072051808203906102000152610980519061047a9161364d565b6107205180820390610220015261064051906104959161364d565b610720518082039061024001526102c051906104b09161364d565b610720518082039061026001526107e051906104cb9161364d565b6107205180820390610280015261028051906104e69161364d565b61072051808203906102a001526104a051906105019161364d565b61072051808203906102c00152610420519061051c9161364d565b61072051808203906102e0015261052051906105379161364d565b61072051808203906103000152610a4051906105529161364d565b61072051808203906103200152610900519061056d9161364d565b610720518082039061034001526106c051906105889161364d565b6107205180820390610360015260c051906105a29161364d565b6107205180820390610380015261024051906105bd9161364d565b61072051808203906103a00152610720519061032051906105dd9161364d565b0361072051f35b600080fd5b346105e45760003660031901126105e4576020600254604051908152f35b346105e45760203660031901126105e4576004356001600160401b0381116105e457610637903690600401613672565b9060405161064481613547565b60608152602081016060905260408101606090526060810160609052608081016060905260a081016060905260c081016060905260e08101606090526101008101606090526101208101606090526101408101606090526101608101606090526101808101606090526101a08101606090526101c08101606090526101e08101606090526102008101606090526102208101606090526102408101606090526102608101606090526102808101606090526102a08101606090526102c08101606090526102e08101606090526103008101606090526103208101606090526103408101606090526103608101606090526103808101606090526103a001606090528160405192839283378101600181520360200190206040519061076782613547565b61077081613584565b825261077e60018201613584565b602083015261078f60028201613584565b60408301526107a060038201613584565b60608301526107b160048201613584565b60808301526107c260058201613584565b60a08301526107d360068201613584565b60c08301526107e460078201613584565b60e08301526107f560088201613584565b61010083015261080760098201613584565b610120830152610819600a8201613584565b61014083015261082b600b8201613584565b61016083015261083d600c8201613584565b61018083015261084f600d8201613584565b6101a0830152610861600e8201613584565b6101c0830152610873600f8201613584565b6101e083015261088560108201613584565b61020083015261089760118201613584565b6102208301526108a960128201613584565b6102408301526108bb60138201613584565b6102608301526108cd60148201613584565b6102808301526108df60158201613584565b6102a08301526108f160168201613584565b6102c083015261090360178201613584565b6102e083015261091560188201613584565b61030083015261092760198201613584565b610320830152610939601a8201613584565b61034083015261094b601b8201613584565b61036083015261095d601c8201613584565b610380830152601d0161096f90613584565b6103a08201526040518091602082528051602083016103c090526103e083016109979161364d565b6020820151838203601f190160408501526109b2919061364d565b6040820151838203601f190160608501526109cd919061364d565b6060820151838203601f190160808501526109e8919061364d565b6080820151838203601f190160a0850152610a03919061364d565b60a0820151838203601f190160c0850152610a1e919061364d565b60c0820151838203601f190160e0850152610a39919061364d565b60e0820151838203601f1901610100850152610a55919061364d565b610100820151838203601f1901610120850152610a72919061364d565b610120820151838203601f1901610140850152610a8f919061364d565b610140820151838203601f1901610160850152610aac919061364d565b610160820151838203601f1901610180850152610ac9919061364d565b610180820151838203601f19016101a0850152610ae6919061364d565b6101a0820151838203601f19016101c0850152610b03919061364d565b6101c0820151838203601f19016101e0850152610b20919061364d565b6101e0820151838203601f1901610200850152610b3d919061364d565b610200820151838203601f1901610220850152610b5a919061364d565b610220820151838203601f1901610240850152610b77919061364d565b610240820151838203601f1901610260850152610b94919061364d565b610260820151838203601f1901610280850152610bb1919061364d565b610280820151838203601f19016102a0850152610bce919061364d565b6102a0820151838203601f19016102c0850152610beb919061364d565b6102c0820151838203601f19016102e0850152610c08919061364d565b6102e0820151838203601f1901610300850152610c25919061364d565b610300820151838203601f1901610320850152610c42919061364d565b610320820151838203601f1901610340850152610c5f919061364d565b610340820151838203601f1901610360850152610c7c919061364d565b610360820151838203601f1901610380850152610c99919061364d565b610380820151838203601f19016103a0850152610cb6919061364d565b906103a0015190601f19838203016103c0840152610cd39161364d565b0390f35b346105e4576103e03660031901126105e4576004356001600160401b0381116105e457610d08903690600401613672565b610a8052610160526024356001600160401b0381116105e457610d2f903690600401613672565b6105e0526080526044356001600160401b0381116105e457610d55903690600401613672565b61022052610500526064356001600160401b0381116105e457610d7c903690600401613672565b610180526102a0526084356001600160401b0381116105e457610da3903690600401613672565b610960526104e05260a4356001600160401b0381116105e457610dca903690600401613672565b610380526107605260c4356001600160401b0381116105e457610df1903690600401613672565b61088052610740526001600160401b0360e435116105e457610e183660e435600401613672565b610860526108a0526001600160401b0361010435116105e457610e413661010435600401613672565b610940526103c052610124356001600160401b0381116105e457610e69903690600401613672565b6105a052610a0052610144356001600160401b0381116105e457610e91903690600401613672565b6108c0526109e0526001600160401b0361016435116105e457610eba3661016435600401613672565b6108205261068052610184356001600160401b0381116105e457610ee2903690600401613672565b61062052610660526101a4356001600160401b0381116105e457610f0a903690600401613672565b61036052610400526101c4356001600160401b0381116105e457610f32903690600401613672565b610600526105c0526101e4356001600160401b0381116105e457610f5a903690600401613672565b6106a052610a2052610204356001600160401b0381116105e457610f82903690600401613672565b6103a05261048052610224356001600160401b0381116105e457610faa903690600401613672565b6102e05261058052610244356001600160401b0381116105e457610fd2903690600401613672565b610ac0526101a052610264356001600160401b0381116105e457610ffa903690600401613672565b6101e0526109a052610284356001600160401b0381116105e457611022903690600401613672565b6109c0526103e0526102a4356001600160401b0381116105e45761104a903690600401613672565b610460526101c0526102c4356001600160401b0381116105e457611072903690600401613672565b61070052610300526102e4356001600160401b0381116105e45761109a903690600401613672565b6109205261034052610304356001600160401b0381116105e4576110c2903690600401613672565b6102605261054052610324356001600160401b0381116105e4576110ea903690600401613672565b6101405261084052610344356001600160401b0381116105e457611112903690600401613672565b61078052610aa052610364356001600160401b0381116105e45761113a903690600401613672565b6102005260a052610384356001600160401b0381116105e457611161903690600401613672565b6107a0526108e0526103a4356001600160401b0381116105e457611189903690600401613672565b610120526104c0526103c4356001600160401b0381116105e4576111b1903690600401613672565b6107c052610800526000546001600160a01b03163303613419576111db60405180610ae052613547565b6111eb366105e05160805161369f565b610ae0515261120136610220516105005161369f565b6020610ae051015261121a36610180516102a05161369f565b6040610ae051015261123336610960516104e05161369f565b6060610ae051015261124c36610380516107605161369f565b6080610ae051015261126536610880516107405161369f565b60a0610ae051015261127e36610860516108a05161369f565b60c0610ae051015261129736610940516103c05161369f565b60e0610ae05101526112b0366105a051610a005161369f565b610100610ae05101526112ca366108c0516109e05161369f565b610120610ae05101526112e436610820516106805161369f565b610140610ae05101526112fe36610620516106605161369f565b610160610ae051015261131836610360516104005161369f565b610180610ae051015261133236610600516105c05161369f565b6101a0610ae051015261134c366106a051610a205161369f565b6101c0610ae0510152611366366103a0516104805161369f565b6101e0610ae0510152611380366102e0516105805161369f565b610200610ae051015261139a36610ac0516101a05161369f565b610220610ae05101526113b4366101e0516109a05161369f565b610240610ae05101526113ce366109c0516103e05161369f565b610260610ae05101526113e836610460516101c05161369f565b610280610ae051015261140236610700516103005161369f565b6102a0610ae051015261141c36610920516103405161369f565b6102c0610ae051015261143636610260516105405161369f565b6102e0610ae051015261145036610140516108405161369f565b610300610ae051015261146a3661078051610aa05161369f565b610320610ae0510152611483366102005160a05161369f565b610340610ae051015261149d366107a0516108e05161369f565b610360610ae05101526114b736610120516104c05161369f565b610380610ae05101526114d1366107c0516108005161369f565b6103a0610ae0510152604051610a80516101605182376001610a8051820152602081610a8051810103019020610ae051518051906001600160401b03821161254f57819061152982611523865461350d565b866136e5565b602090601f83116001146133ad576000926133a2575b50508160011b916000199060031b1c19161781555b6020610ae05101518051906001600160401b03821161254f57819061158982611580600187015461350d565b600187016136e5565b602090601f831160011461333057600092613325575b50508160011b916000199060031b1c19161760018201555b6040610ae05101518051906001600160401b03821161254f5781906115ec826115e3600287015461350d565b600287016136e5565b602090601f83116001146132b3576000926132a8575b50508160011b916000199060031b1c19161760028201555b6060610ae05101518051906001600160401b03821161254f57819061164f82611646600387015461350d565b600387016136e5565b602090601f83116001146132365760009261322b575b50508160011b916000199060031b1c19161760038201555b6080610ae05101518051906001600160401b03821161254f5781906116b2826116a9600487015461350d565b600487016136e5565b602090601f83116001146131b9576000926131ae575b50508160011b916000199060031b1c19161760048201555b60a0610ae05101518051906001600160401b03821161254f5781906117158261170c600587015461350d565b600587016136e5565b602090601f831160011461313c57600092613131575b50508160011b916000199060031b1c19161760058201555b60c0610ae05101518051906001600160401b03821161254f5781906117788261176f600687015461350d565b600687016136e5565b602090601f83116001146130bf576000926130b4575b50508160011b916000199060031b1c19161760068201555b60e0610ae05101518051906001600160401b03821161254f5781906117db826117d2600787015461350d565b600787016136e5565b602090601f831160011461304257600092613037575b50508160011b916000199060031b1c19161760078201555b610100610ae05101518051906001600160401b03821161254f57819061183f82611836600887015461350d565b600887016136e5565b602090601f8311600114612fc557600092612fba575b50508160011b916000199060031b1c19161760088201555b610120610ae05101518051906001600160401b03821161254f5781906118a38261189a600987015461350d565b600987016136e5565b602090601f8311600114612f4857600092612f3d575b50508160011b916000199060031b1c19161760098201555b610140610ae05101518051906001600160401b03821161254f578190611907826118fe600a87015461350d565b600a87016136e5565b602090601f8311600114612ecb57600092612ec0575b50508160011b916000199060031b1c191617600a8201555b610160610ae05101518051906001600160401b03821161254f57819061196b82611962600b87015461350d565b600b87016136e5565b602090601f8311600114612e4e57600092612e43575b50508160011b916000199060031b1c191617600b8201555b610180610ae05101518051906001600160401b03821161254f5781906119cf826119c6600c87015461350d565b600c87016136e5565b602090601f8311600114612dd157600092612dc6575b50508160011b916000199060031b1c191617600c8201555b6101a0610ae05101518051906001600160401b03821161254f578190611a3382611a2a600d87015461350d565b600d87016136e5565b602090601f8311600114612d5457600092612d49575b50508160011b916000199060031b1c191617600d8201555b6101c0610ae05101518051906001600160401b03821161254f578190611a9782611a8e600e87015461350d565b600e87016136e5565b602090601f8311600114612cd757600092612ccc575b50508160011b916000199060031b1c191617600e8201555b6101e0610ae05101518051906001600160401b03821161254f578190611afb82611af2600f87015461350d565b600f87016136e5565b602090601f8311600114612c5a57600092612c4f575b50508160011b916000199060031b1c191617600f8201555b610200610ae05101518051906001600160401b03821161254f578190611b5f82611b56601087015461350d565b601087016136e5565b602090601f8311600114612bdd57600092612bd2575b50508160011b916000199060031b1c19161760108201555b610220610ae05101518051906001600160401b03821161254f578190611bc382611bba601187015461350d565b601187016136e5565b602090601f8311600114612b6057600092612b55575b50508160011b916000199060031b1c19161760118201555b610240610ae05101518051906001600160401b03821161254f578190611c2782611c1e601287015461350d565b601287016136e5565b602090601f8311600114612ae357600092612ad8575b50508160011b916000199060031b1c19161760128201555b610260610ae05101518051906001600160401b03821161254f578190611c8b82611c82601387015461350d565b601387016136e5565b602090601f8311600114612a6657600092612a5b575b50508160011b916000199060031b1c19161760138201555b610280610ae05101518051906001600160401b03821161254f578190611cef82611ce6601487015461350d565b601487016136e5565b602090601f83116001146129e9576000926129de575b50508160011b916000199060031b1c19161760148201555b6102a0610ae05101518051906001600160401b03821161254f578190611d5382611d4a601587015461350d565b601587016136e5565b602090601f831160011461296c57600092612961575b50508160011b916000199060031b1c19161760158201555b6102c0610ae05101518051906001600160401b03821161254f578190611db782611dae601687015461350d565b601687016136e5565b602090601f83116001146128ef576000926128e4575b50508160011b916000199060031b1c19161760168201555b6102e0610ae05101518051906001600160401b03821161254f578190611e1b82611e12601787015461350d565b601787016136e5565b602090601f831160011461287257600092612867575b50508160011b916000199060031b1c19161760178201555b610300610ae05101518051906001600160401b03821161254f578190611e7f82611e76601887015461350d565b601887016136e5565b602090601f83116001146127f5576000926127ea575b50508160011b916000199060031b1c19161760188201555b610320610ae05101518051906001600160401b03821161254f578190611ee382611eda601987015461350d565b601987016136e5565b602090601f83116001146127785760009261276d575b50508160011b916000199060031b1c19161760198201555b610340610ae05101518051906001600160401b03821161254f578190611f4782611f3e601a87015461350d565b601a87016136e5565b602090601f83116001146126fb576000926126f0575b50508160011b916000199060031b1c191617601a8201555b610360610ae05101518051906001600160401b03821161254f578190611fab82611fa2601b87015461350d565b601b87016136e5565b602090601f831160011461267e57600092612673575b50508160011b916000199060031b1c191617601b8201555b610380610ae05101518051906001600160401b03821161254f57819061200f82612006601c87015461350d565b601c87016136e5565b602090601f8311600114612601576000926125f6575b50508160011b916000199060031b1c191617601c8201555b6103a0610ae05101518051906001600160401b03821161254f5761207182612068601d86015461350d565b601d86016136e5565b602090601f831160011461258657601d92916000918361257b575b50508160011b916000199060031b1c1916179101555b6002546801000000000000000081101561254f578060016120c692016002556134c0565b61256557610a80516001600160401b03811161254f576120f0906120ea835461350d565b836136e5565b600090610a8051601f81116001146124e25750906000610a805191826124d4575b508160011b916000199060031b1c19161790555b6103e060405180610a6052527fa66514a3372405f61c7bbf458224ad96298533892de3573590dccaa3a8ca8b486124aa61249061247661245d61244361242961240f6123f56123db6123c16123a761238d61237361235961233f61232561230b6122f16122d76122bd6122a361228961226f61225661223d61222461220b6121f26121d96121c16103e0610a605101610a805161016051613739565b610a605160208183039101526105e051608051613739565b610a605160408183039101526102205161050051613739565b610a60516060818303910152610180516102a051613739565b610a60516080818303910152610960516104e051613739565b610a605160a08183039101526103805161076051613739565b610a605160c08183039101526108805161074051613739565b610a605160e0818303910152610860516108a051613739565b610a6051610100818303910152610940516103c051613739565b610a60516101208183039101526105a051610a0051613739565b610a60516101408183039101526108c0516109e051613739565b610a60516101608183039101526108205161068051613739565b610a60516101808183039101526106205161066051613739565b610a60516101a08183039101526103605161040051613739565b610a60516101c0818303910152610600516105c051613739565b610a60516101e08183039101526106a051610a2051613739565b610a60516102008183039101526103a05161048051613739565b610a60516102208183039101526102e05161058051613739565b610a6051610240818303910152610ac0516101a051613739565b610a60516102608183039101526101e0516109a051613739565b610a60516102808183039101526109c0516103e051613739565b610a60516102a0818303910152610460516101c051613739565b610a60516102c08183039101526107005161030051613739565b610a60516102e08183039101526109205161034051613739565b610a60516103008183039101526102605161054051613739565b610a60516103208183039101526101405161084051613739565b610a605161034081830391015261078051610aa051613739565b610a60516103608183039101526102005160a051613739565b610a60516103808183039101526107a0516108e051613739565b610a60516103a0818303910152610120516104c051613739565b610a60516103c08183039101526124cc610a6051916107c05161080051613739565b03610a6051a1005b905061016051013583612111565b81600052602060002060009361016051905b601f198416861061253757600194955083601f1981161061251d575b505050811b019055612125565b0135600019600384901b60f8161c19169055838080612510565b916020600181928585013581550193019501946124f4565b634e487b7160e01b600052604160045260246000fd5b634e487b7160e01b600052600060045260246000fd5b01519050848061208c565b90601d840160005260206000209160005b601f19851681106125de5750918391600193601d95601f198116106125c5575b505050811b019101556120a2565b015160001960f88460031b161c191690558480806125b7565b91926020600181928685015181550194019201612597565b015190508380612025565b9250601c84016000526020600020906000935b601f1984168510612658576001945083601f1981161061263f575b505050811b01601c82015561203d565b015160001960f88460031b161c1916905583808061262f565b81810151835560209485019460019093019290910190612614565b015190508380611fc1565b9250601b84016000526020600020906000935b601f19841685106126d5576001945083601f198116106126bc575b505050811b01601b820155611fd9565b015160001960f88460031b161c191690558380806126ac565b81810151835560209485019460019093019290910190612691565b015190508380611f5d565b9250601a84016000526020600020906000935b601f1984168510612752576001945083601f19811610612739575b505050811b01601a820155611f75565b015160001960f88460031b161c19169055838080612729565b8181015183556020948501946001909301929091019061270e565b015190508380611ef9565b9250601984016000526020600020906000935b601f19841685106127cf576001945083601f198116106127b6575b505050811b016019820155611f11565b015160001960f88460031b161c191690558380806127a6565b8181015183556020948501946001909301929091019061278b565b015190508380611e95565b9250601884016000526020600020906000935b601f198416851061284c576001945083601f19811610612833575b505050811b016018820155611ead565b015160001960f88460031b161c19169055838080612823565b81810151835560209485019460019093019290910190612808565b015190508380611e31565b9250601784016000526020600020906000935b601f19841685106128c9576001945083601f198116106128b0575b505050811b016017820155611e49565b015160001960f88460031b161c191690558380806128a0565b81810151835560209485019460019093019290910190612885565b015190508380611dcd565b9250601684016000526020600020906000935b601f1984168510612946576001945083601f1981161061292d575b505050811b016016820155611de5565b015160001960f88460031b161c1916905583808061291d565b81810151835560209485019460019093019290910190612902565b015190508380611d69565b9250601584016000526020600020906000935b601f19841685106129c3576001945083601f198116106129aa575b505050811b016015820155611d81565b015160001960f88460031b161c1916905583808061299a565b8181015183556020948501946001909301929091019061297f565b015190508380611d05565b9250601484016000526020600020906000935b601f1984168510612a40576001945083601f19811610612a27575b505050811b016014820155611d1d565b015160001960f88460031b161c19169055838080612a17565b818101518355602094850194600190930192909101906129fc565b015190508380611ca1565b9250601384016000526020600020906000935b601f1984168510612abd576001945083601f19811610612aa4575b505050811b016013820155611cb9565b015160001960f88460031b161c19169055838080612a94565b81810151835560209485019460019093019290910190612a79565b015190508380611c3d565b9250601284016000526020600020906000935b601f1984168510612b3a576001945083601f19811610612b21575b505050811b016012820155611c55565b015160001960f88460031b161c19169055838080612b11565b81810151835560209485019460019093019290910190612af6565b015190508380611bd9565b9250601184016000526020600020906000935b601f1984168510612bb7576001945083601f19811610612b9e575b505050811b016011820155611bf1565b015160001960f88460031b161c19169055838080612b8e565b81810151835560209485019460019093019290910190612b73565b015190508380611b75565b9250601084016000526020600020906000935b601f1984168510612c34576001945083601f19811610612c1b575b505050811b016010820155611b8d565b015160001960f88460031b161c19169055838080612c0b565b81810151835560209485019460019093019290910190612bf0565b015190508380611b11565b9250600f84016000526020600020906000935b601f1984168510612cb1576001945083601f19811610612c98575b505050811b01600f820155611b29565b015160001960f88460031b161c19169055838080612c88565b81810151835560209485019460019093019290910190612c6d565b015190508380611aad565b9250600e84016000526020600020906000935b601f1984168510612d2e576001945083601f19811610612d15575b505050811b01600e820155611ac5565b015160001960f88460031b161c19169055838080612d05565b81810151835560209485019460019093019290910190612cea565b015190508380611a49565b9250600d84016000526020600020906000935b601f1984168510612dab576001945083601f19811610612d92575b505050811b01600d820155611a61565b015160001960f88460031b161c19169055838080612d82565b81810151835560209485019460019093019290910190612d67565b0151905083806119e5565b9250600c84016000526020600020906000935b601f1984168510612e28576001945083601f19811610612e0f575b505050811b01600c8201556119fd565b015160001960f88460031b161c19169055838080612dff565b81810151835560209485019460019093019290910190612de4565b015190508380611981565b9250600b84016000526020600020906000935b601f1984168510612ea5576001945083601f19811610612e8c575b505050811b01600b820155611999565b015160001960f88460031b161c19169055838080612e7c565b81810151835560209485019460019093019290910190612e61565b01519050838061191d565b9250600a84016000526020600020906000935b601f1984168510612f22576001945083601f19811610612f09575b505050811b01600a820155611935565b015160001960f88460031b161c19169055838080612ef9565b81810151835560209485019460019093019290910190612ede565b0151905083806118b9565b9250600984016000526020600020906000935b601f1984168510612f9f576001945083601f19811610612f86575b505050811b0160098201556118d1565b015160001960f88460031b161c19169055838080612f76565b81810151835560209485019460019093019290910190612f5b565b015190508380611855565b9250600884016000526020600020906000935b601f198416851061301c576001945083601f19811610613003575b505050811b01600882015561186d565b015160001960f88460031b161c19169055838080612ff3565b81810151835560209485019460019093019290910190612fd8565b0151905083806117f1565b9250600784016000526020600020906000935b601f1984168510613099576001945083601f19811610613080575b505050811b016007820155611809565b015160001960f88460031b161c19169055838080613070565b81810151835560209485019460019093019290910190613055565b01519050838061178e565b9250600684016000526020600020906000935b601f1984168510613116576001945083601f198116106130fd575b505050811b0160068201556117a6565b015160001960f88460031b161c191690558380806130ed565b818101518355602094850194600190930192909101906130d2565b01519050838061172b565b9250600584016000526020600020906000935b601f1984168510613193576001945083601f1981161061317a575b505050811b016005820155611743565b015160001960f88460031b161c1916905583808061316a565b8181015183556020948501946001909301929091019061314f565b0151905083806116c8565b9250600484016000526020600020906000935b601f1984168510613210576001945083601f198116106131f7575b505050811b0160048201556116e0565b015160001960f88460031b161c191690558380806131e7565b818101518355602094850194600190930192909101906131cc565b015190508380611665565b9250600384016000526020600020906000935b601f198416851061328d576001945083601f19811610613274575b505050811b01600382015561167d565b015160001960f88460031b161c19169055838080613264565b81810151835560209485019460019093019290910190613249565b015190508380611602565b9250600284016000526020600020906000935b601f198416851061330a576001945083601f198116106132f1575b505050811b01600282015561161a565b015160001960f88460031b161c191690558380806132e1565b818101518355602094850194600190930192909101906132c6565b01519050838061159f565b9250600184016000526020600020906000935b601f1984168510613387576001945083601f1981161061336e575b505050811b0160018201556115b7565b015160001960f88460031b161c1916905583808061335e565b81810151835560209485019460019093019290910190613343565b01519050838061153f565b9250836000526020600020906000935b601f19841685106133fe576001945083601f198116106133e5575b505050811b018155611554565b015160001960f88460031b161c191690558380806133d8565b818101518355602094850194600190930192909101906133bd565b60405162461bcd60e51b815260206004820152600b60248201526a139bdd081cdd195dd85c9960aa1b6044820152606490fd5b346105e45760003660031901126105e4576000546040516001600160a01b039091168152602090f35b346105e45760203660031901126105e4576004356002548110156105e45761349c906134c0565b612565576134ac610cd391613584565b60405191829160208352602083019061364d565b6002548110156134f75760026000527f405787fa12a823e0f2b7631cc41b3ba8828b3321ca811111fa75cd3aa3bb5ace0190600090565b634e487b7160e01b600052603260045260246000fd5b90600182811c9216801561353d575b602083101461352757565b634e487b7160e01b600052602260045260246000fd5b91607f169161351c565b6103c081019081106001600160401b0382111761254f57604052565b90601f801991011681019081106001600160401b0382111761254f57604052565b90604051918260008254926135988461350d565b90818452600194858116908160001461360757506001146135c4575b50506135c292500383613563565b565b9093915060005260209081600020936000915b8183106135ef5750506135c2935082010138806135b4565b855488840185015294850194879450918301916135d7565b9150506135c294506020925060ff191682840152151560051b82010138806135b4565b60005b83811061363d5750506000910152565b818101518382015260200161362d565b906020916136668151809281855285808601910161362a565b601f01601f1916010190565b9181601f840112156105e4578235916001600160401b0383116105e457602083818601950101116105e457565b9291926001600160401b03821161254f57604051916136c8601f8201601f191660200184613563565b8294818452818301116105e4578281602093846000960137010152565b90601f81116136f357505050565b600091825260208220906020601f850160051c8301941061372f575b601f0160051c01915b82811061372457505050565b818155600101613718565b909250829061370f565b908060209392818452848401376000828201840152601f01601f191601019056fea264697066735822122093287e185cb989150398dee1a3849205788f5e390cb7606537a6beedacf5760264736f6c63430008140033","opcodes":"PUSH1 0x80 DUP1 PUSH1 0x40 MSTORE CALLVALUE PUSH2 0x28 JUMPI PUSH1 0x0 DUP1 SLOAD PUSH1 0x1 PUSH1 0x1 PUSH1 0xA0 SHL SUB NOT AND CALLER OR SWAP1 SSTORE PUSH2 0x3790 SWAP1 DUP2 PUSH2 0x2E DUP3 CODECOPY RETURN JUMPDEST PUSH1 0x0 DUP1 REVERT INVALID PUSH2 0xB00 PUSH1 0x40 MSTORE PUSH1 0x4 CALLDATASIZE LT ISZERO PUSH2 0x13 JUMPI PUSH1 0x0 DUP1 REVERT JUMPDEST PUSH1 0x0 CALLDATALOAD PUSH1 0xE0 SHR DUP1 PUSH4 0xCB6AAF1 EQ PUSH2 0x3475 JUMPI DUP1 PUSH4 0x637EEA19 EQ PUSH2 0x344C JUMPI DUP1 PUSH4 0x7FAE1D64 EQ PUSH2 0xCD7 JUMPI DUP1 PUSH4 0x83361522 EQ PUSH2 0x607 JUMPI DUP1 PUSH4 0xC212D16B EQ PUSH2 0x5E9 JUMPI PUSH4 0xDBC21424 EQ PUSH2 0x5F JUMPI PUSH1 0x0 DUP1 REVERT JUMPDEST CALLVALUE PUSH2 0x5E4 JUMPI PUSH1 0x20 CALLDATASIZE PUSH1 0x3 NOT ADD SLT PUSH2 0x5E4 JUMPI PUSH1 0x4 CALLDATALOAD PUSH1 0x1 PUSH1 0x1 PUSH1 0x40 SHL SUB DUP2 GT PUSH2 0x5E4 JUMPI CALLDATASIZE PUSH1 0x23 DUP3 ADD SLT ISZERO PUSH2 0x5E4 JUMPI CALLDATASIZE DUP2 PUSH1 0x4 ADD CALLDATALOAD SWAP2 PUSH1 0x24 ADD SWAP2 PUSH2 0xA0 SWAP3 PUSH2 0x369F JUMP JUMPDEST PUSH1 0x40 MLOAD DUP2 DUP2 DUP1 SWAP4 MLOAD PUSH1 0x20 DUP2 SWAP4 ADD SWAP2 PUSH2 0xB7 SWAP3 PUSH2 0x362A JUMP JUMPDEST DUP2 ADD PUSH1 0x1 DUP2 MSTORE SUB PUSH1 0x20 ADD SWAP1 KECCAK256 DUP1 PUSH2 0x100 MSTORE PUSH2 0xD1 SWAP1 PUSH2 0x3584 JUMP JUMPDEST PUSH2 0x6E0 MSTORE PUSH2 0x100 MLOAD PUSH1 0x1 ADD PUSH2 0xE5 SWAP1 PUSH2 0x3584 JUMP JUMPDEST PUSH2 0x440 MSTORE PUSH2 0x100 MLOAD PUSH1 0x2 ADD PUSH2 0xF9 SWAP1 PUSH2 0x3584 JUMP JUMPDEST PUSH1 0xE0 MSTORE PUSH2 0x100 MLOAD PUSH1 0x3 ADD PUSH2 0x10C SWAP1 PUSH2 0x3584 JUMP JUMPDEST PUSH2 0x560 MSTORE PUSH2 0x100 MLOAD PUSH1 0x4 ADD PUSH2 0x120 SWAP1 PUSH2 0x3584 JUMP JUMPDEST PUSH2 0x100 MLOAD PUSH1 0x5 ADD PUSH2 0x130 SWAP1 PUSH2 0x3584 JUMP JUMPDEST PUSH2 0x100 MLOAD PUSH1 0x6 ADD PUSH2 0x140 SWAP1 PUSH2 0x3584 JUMP JUMPDEST PUSH2 0x100 MLOAD PUSH1 0x7 ADD PUSH2 0x150 SWAP1 PUSH2 0x3584 JUMP JUMPDEST PUSH2 0x100 MLOAD PUSH1 0x8 ADD PUSH2 0x160 SWAP1 PUSH2 0x3584 JUMP JUMPDEST PUSH2 0x100 MLOAD PUSH1 0x9 ADD PUSH2 0x170 SWAP1 PUSH2 0x3584 JUMP JUMPDEST PUSH2 0x100 MLOAD PUSH1 0xA ADD PUSH2 0x180 SWAP1 PUSH2 0x3584 JUMP JUMPDEST SWAP1 PUSH2 0x100 MLOAD PUSH1 0xB ADD PUSH2 0x191 SWAP1 PUSH2 0x3584 JUMP JUMPDEST SWAP3 PUSH2 0x100 MLOAD PUSH1 0xC ADD PUSH2 0x1A2 SWAP1 PUSH2 0x3584 JUMP JUMPDEST SWAP5 PUSH2 0x100 MLOAD PUSH1 0xD ADD PUSH2 0x1B3 SWAP1 PUSH2 0x3584 JUMP JUMPDEST SWAP7 PUSH2 0x100 MLOAD PUSH1 0xE ADD PUSH2 0x1C4 SWAP1 PUSH2 0x3584 JUMP JUMPDEST SWAP9 PUSH2 0x100 MLOAD PUSH1 0xF ADD PUSH2 0x1D5 SWAP1 PUSH2 0x3584 JUMP JUMPDEST SWAP11 PUSH2 0x100 MLOAD PUSH1 0x10 ADD PUSH2 0x1E6 SWAP1 PUSH2 0x3584 JUMP JUMPDEST PUSH2 0x980 MSTORE PUSH2 0x100 MLOAD PUSH1 0x11 ADD PUSH2 0x1FA SWAP1 PUSH2 0x3584 JUMP JUMPDEST PUSH2 0x640 MSTORE PUSH2 0x100 MLOAD PUSH1 0x12 ADD PUSH2 0x20E SWAP1 PUSH2 0x3584 JUMP JUMPDEST PUSH2 0x2C0 MSTORE PUSH2 0x100 MLOAD PUSH1 0x13 ADD PUSH2 0x222 SWAP1 PUSH2 0x3584 JUMP JUMPDEST PUSH2 0x7E0 MSTORE PUSH2 0x100 MLOAD PUSH1 0x14 ADD PUSH2 0x236 SWAP1 PUSH2 0x3584 JUMP JUMPDEST PUSH2 0x280 MSTORE PUSH2 0x100 MLOAD PUSH1 0x15 ADD PUSH2 0x24A SWAP1 PUSH2 0x3584 JUMP JUMPDEST PUSH2 0x4A0 MSTORE PUSH2 0x100 MLOAD PUSH1 0x16 ADD PUSH2 0x25E SWAP1 PUSH2 0x3584 JUMP JUMPDEST PUSH2 0x420 MSTORE PUSH2 0x100 MLOAD PUSH1 0x17 ADD PUSH2 0x272 SWAP1 PUSH2 0x3584 JUMP JUMPDEST PUSH2 0x520 MSTORE PUSH2 0x100 MLOAD PUSH1 0x18 ADD PUSH2 0x286 SWAP1 PUSH2 0x3584 JUMP JUMPDEST PUSH2 0xA40 MSTORE PUSH2 0x100 MLOAD PUSH1 0x19 ADD PUSH2 0x29A SWAP1 PUSH2 0x3584 JUMP JUMPDEST PUSH2 0x900 MSTORE PUSH2 0x100 MLOAD PUSH1 0x1A ADD PUSH2 0x2AE SWAP1 PUSH2 0x3584 JUMP JUMPDEST PUSH2 0x6C0 MSTORE PUSH2 0x100 MLOAD PUSH1 0x1B ADD PUSH2 0x2C2 SWAP1 PUSH2 0x3584 JUMP JUMPDEST PUSH1 0xC0 MSTORE PUSH2 0x100 MLOAD PUSH1 0x1C ADD PUSH2 0x2D5 SWAP1 PUSH2 0x3584 JUMP JUMPDEST PUSH2 0x240 MSTORE PUSH2 0x100 MLOAD PUSH1 0x1D ADD PUSH2 0x2E9 SWAP1 PUSH2 0x3584 JUMP JUMPDEST PUSH2 0x320 MSTORE PUSH1 0x40 MLOAD DUP1 PUSH2 0x720 MSTORE PUSH2 0x3C0 DUP1 SWAP2 MSTORE PUSH2 0x720 MLOAD ADD PUSH2 0x6E0 MLOAD SWAP1 PUSH2 0x30E SWAP2 PUSH2 0x364D JUMP JUMPDEST PUSH2 0x720 MLOAD DUP1 DUP3 SUB SWAP1 PUSH1 0x20 ADD MSTORE PUSH2 0x440 MLOAD SWAP1 PUSH2 0x328 SWAP2 PUSH2 0x364D JUMP JUMPDEST PUSH2 0x720 MLOAD DUP1 DUP3 SUB SWAP1 PUSH1 0x40 ADD MSTORE PUSH1 0xE0 MLOAD SWAP1 PUSH2 0x341 SWAP2 PUSH2 0x364D JUMP JUMPDEST PUSH2 0x720 MLOAD DUP1 DUP3 SUB SWAP1 PUSH1 0x60 ADD MSTORE PUSH2 0x560 MLOAD SWAP1 PUSH2 0x35B SWAP2 PUSH2 0x364D JUMP JUMPDEST PUSH2 0x720 MLOAD DUP1 DUP3 SUB SWAP1 PUSH1 0x80 ADD MSTORE PUSH2 0x370 SWAP2 PUSH2 0x364D JUMP JUMPDEST PUSH2 0x720 MLOAD DUP1 DUP3 SUB SWAP1 PUSH1 0xA0 ADD MSTORE PUSH2 0x385 SWAP2 PUSH2 0x364D JUMP JUMPDEST PUSH2 0x720 MLOAD DUP1 DUP3 SUB SWAP1 PUSH1 0xC0 ADD MSTORE PUSH2 0x39A SWAP2 PUSH2 0x364D JUMP JUMPDEST PUSH2 0x720 MLOAD DUP1 DUP3 SUB SWAP1 PUSH1 0xE0 ADD MSTORE PUSH2 0x3AF SWAP2 PUSH2 0x364D JUMP JUMPDEST PUSH2 0x720 MLOAD DUP1 DUP3 SUB SWAP1 PUSH2 0x100 ADD MSTORE PUSH2 0x3C5 SWAP2 PUSH2 0x364D JUMP JUMPDEST PUSH2 0x720 MLOAD DUP1 DUP3 SUB SWAP1 PUSH2 0x120 ADD MSTORE PUSH2 0x3DB SWAP2 PUSH2 0x364D JUMP JUMPDEST PUSH2 0x720 MLOAD DUP1 DUP3 SUB SWAP1 PUSH2 0x140 ADD MSTORE PUSH2 0x3F1 SWAP2 PUSH2 0x364D JUMP JUMPDEST PUSH2 0x720 MLOAD DUP1 DUP3 SUB SWAP1 PUSH2 0x160 ADD MSTORE PUSH2 0x407 SWAP2 PUSH2 0x364D JUMP JUMPDEST PUSH2 0x720 MLOAD DUP1 DUP3 SUB SWAP1 PUSH2 0x180 ADD MSTORE PUSH2 0x41D SWAP2 PUSH2 0x364D JUMP JUMPDEST PUSH2 0x720 MLOAD DUP1 DUP3 SUB SWAP1 PUSH2 0x1A0 ADD MSTORE PUSH2 0x433 SWAP2 PUSH2 0x364D JUMP JUMPDEST PUSH2 0x720 MLOAD DUP1 DUP3 SUB SWAP1 PUSH2 0x1C0 ADD MSTORE PUSH2 0x449 SWAP2 PUSH2 0x364D JUMP JUMPDEST PUSH2 0x720 MLOAD DUP1 DUP3 SUB SWAP1 PUSH2 0x1E0 ADD MSTORE PUSH2 0x45F SWAP2 PUSH2 0x364D JUMP JUMPDEST PUSH2 0x720 MLOAD DUP1 DUP3 SUB SWAP1 PUSH2 0x200 ADD MSTORE PUSH2 0x980 MLOAD SWAP1 PUSH2 0x47A SWAP2 PUSH2 0x364D JUMP JUMPDEST PUSH2 0x720 MLOAD DUP1 DUP3 SUB SWAP1 PUSH2 0x220 ADD MSTORE PUSH2 0x640 MLOAD SWAP1 PUSH2 0x495 SWAP2 PUSH2 0x364D JUMP JUMPDEST PUSH2 0x720 MLOAD DUP1 DUP3 SUB SWAP1 PUSH2 0x240 ADD MSTORE PUSH2 0x2C0 MLOAD SWAP1 PUSH2 0x4B0 SWAP2 PUSH2 0x364D JUMP JUMPDEST PUSH2 0x720 MLOAD DUP1 DUP3 SUB SWAP1 PUSH2 0x260 ADD MSTORE PUSH2 0x7E0 MLOAD SWAP1 PUSH2 0x4CB SWAP2 PUSH2 0x364D JUMP JUMPDEST PUSH2 0x720 MLOAD DUP1 DUP3 SUB SWAP1 PUSH2 0x280 ADD MSTORE PUSH2 0x280 MLOAD SWAP1 PUSH2 0x4E6 SWAP2 PUSH2 0x364D JUMP JUMPDEST PUSH2 0x720 MLOAD DUP1 DUP3 SUB SWAP1 PUSH2 0x2A0 ADD MSTORE PUSH2 0x4A0 MLOAD SWAP1 PUSH2 0x501 SWAP2 PUSH2 0x364D JUMP JUMPDEST PUSH2 0x720 MLOAD DUP1 DUP3 SUB SWAP1 PUSH2 0x2C0 ADD MSTORE PUSH2 0x420 MLOAD SWAP1 PUSH2 0x51C SWAP2 PUSH2 0x364D JUMP JUMPDEST PUSH2 0x720 MLOAD DUP1 DUP3 SUB SWAP1 PUSH2 0x2E0 ADD MSTORE PUSH2 0x520 MLOAD SWAP1 PUSH2 0x537 SWAP2 PUSH2 0x364D JUMP JUMPDEST PUSH2 0x720 MLOAD DUP1 DUP3 SUB SWAP1 PUSH2 0x300 ADD MSTORE PUSH2 0xA40 MLOAD SWAP1 PUSH2 0x552 SWAP2 PUSH2 0x364D JUMP JUMPDEST PUSH2 0x720 MLOAD DUP1 DUP3 SUB SWAP1 PUSH2 0x320 ADD MSTORE PUSH2 0x900 MLOAD SWAP1 PUSH2 0x56D SWAP2 PUSH2 0x364D JUMP JUMPDEST PUSH2 0x720 MLOAD DUP1 DUP3 SUB SWAP1 PUSH2 0x340 ADD MSTORE PUSH2 0x6C0 MLOAD SWAP1 PUSH2 0x588 SWAP2 PUSH2 0x364D JUMP JUMPDEST PUSH2 0x720 MLOAD DUP1 DUP3 SUB SWAP1 PUSH2 0x360 ADD MSTORE PUSH1 0xC0 MLOAD SWAP1 PUSH2 0x5A2 SWAP2 PUSH2 0x364D JUMP JUMPDEST PUSH2 0x720 MLOAD DUP1 DUP3 SUB SWAP1 PUSH2 0x380 ADD MSTORE PUSH2 0x240 MLOAD SWAP1 PUSH2 0x5BD SWAP2 PUSH2 0x364D JUMP JUMPDEST PUSH2 0x720 MLOAD DUP1 DUP3 SUB SWAP1 PUSH2 0x3A0 ADD MSTORE PUSH2 0x720 MLOAD SWAP1 PUSH2 0x320 MLOAD SWAP1 PUSH2 0x5DD SWAP2 PUSH2 0x364D JUMP JUMPDEST SUB PUSH2 0x720 MLOAD RETURN JUMPDEST PUSH1 0x0 DUP1 REVERT JUMPDEST CALLVALUE PUSH2 0x5E4 JUMPI PUSH1 0x0 CALLDATASIZE PUSH1 0x3 NOT ADD SLT PUSH2 0x5E4 JUMPI PUSH1 0x20 PUSH1 0x2 SLOAD PUSH1 0x40 MLOAD SWAP1 DUP2 MSTORE RETURN JUMPDEST CALLVALUE PUSH2 0x5E4 JUMPI PUSH1 0x20 CALLDATASIZE PUSH1 0x3 NOT ADD SLT PUSH2 0x5E4 JUMPI PUSH1 0x4 CALLDATALOAD PUSH1 0x1 PUSH1 0x1 PUSH1 0x40 SHL SUB DUP2 GT PUSH2 0x5E4 JUMPI PUSH2 0x637 SWAP1 CALLDATASIZE SWAP1 PUSH1 0x4 ADD PUSH2 0x3672 JUMP JUMPDEST SWAP1 PUSH1 0x40 MLOAD PUSH2 0x644 DUP2 PUSH2 0x3547 JUMP JUMPDEST PUSH1 0x60 DUP2 MSTORE PUSH1 0x20 DUP2 ADD PUSH1 0x60 SWAP1 MSTORE PUSH1 0x40 DUP2 ADD PUSH1 0x60 SWAP1 MSTORE PUSH1 0x60 DUP2 ADD PUSH1 0x60 SWAP1 MSTORE PUSH1 0x80 DUP2 ADD PUSH1 0x60 SWAP1 MSTORE PUSH1 0xA0 DUP2 ADD PUSH1 0x60 SWAP1 MSTORE PUSH1 0xC0 DUP2 ADD PUSH1 0x60 SWAP1 MSTORE PUSH1 0xE0 DUP2 ADD PUSH1 0x60 SWAP1 MSTORE PUSH2 0x100 DUP2 ADD PUSH1 0x60 SWAP1 MSTORE PUSH2 0x120 DUP2 ADD PUSH1 0x60 SWAP1 MSTORE PUSH2 0x140 DUP2 ADD PUSH1 0x60 SWAP1 MSTORE PUSH2 0x160 DUP2 ADD PUSH1 0x60 SWAP1 MSTORE PUSH2 0x180 DUP2 ADD PUSH1 0x60 SWAP1 MSTORE PUSH2 0x1A0 DUP2 ADD PUSH1 0x60 SWAP1 MSTORE PUSH2 0x1C0 DUP2 ADD PUSH1 0x60 SWAP1 MSTORE PUSH2 0x1E0 DUP2 ADD PUSH1 0x60 SWAP1 MSTORE PUSH2 0x200 DUP2 ADD PUSH1 0x60 SWAP1 MSTORE PUSH2 0x220 DUP2 ADD PUSH1 0x60 SWAP1 MSTORE PUSH2 0x240 DUP2 ADD PUSH1 0x60 SWAP1 MSTORE PUSH2 0x260 DUP2 ADD PUSH1 0x60 SWAP1 MSTORE PUSH2 0x280 DUP2 ADD PUSH1 0x60 SWAP1 MSTORE PUSH2 0x2A0 DUP2 ADD PUSH1 0x60 SWAP1 MSTORE PUSH2 0x2C0 DUP2 ADD PUSH1 0x60 SWAP1 MSTORE PUSH2 0x2E0 DUP2 ADD PUSH1 0x60 SWAP1 MSTORE PUSH2 0x300 DUP2 ADD PUSH1 0x60 SWAP1 MSTORE PUSH2 0x320 DUP2 ADD PUSH1 0x60 SWAP1 MSTORE PUSH2 0x340 DUP2 ADD PUSH1 0x60 SWAP1 MSTORE PUSH2 0x360 DUP2 ADD PUSH1 0x60 SWAP1 MSTORE PUSH2 0x380 DUP2 ADD PUSH1 0x60 SWAP1 MSTORE PUSH2 0x3A0 ADD PUSH1 0x60 SWAP1 MSTORE DUP2 PUSH1 0x40 MLOAD SWAP3 DUP4 SWAP3 DUP4 CALLDATACOPY DUP2 ADD PUSH1 0x1 DUP2 MSTORE SUB PUSH1 0x20 ADD SWAP1 KECCAK256 PUSH1 0x40 MLOAD SWAP1 PUSH2 0x767 DUP3 PUSH2 0x3547 JUMP JUMPDEST PUSH2 0x770 DUP2 PUSH2 0x3584 JUMP JUMPDEST DUP3 MSTORE PUSH2 0x77E PUSH1 0x1 DUP3 ADD PUSH2 0x3584 JUMP JUMPDEST PUSH1 0x20 DUP4 ADD MSTORE PUSH2 0x78F PUSH1 0x2 DUP3 ADD PUSH2 0x3584 JUMP JUMPDEST PUSH1 0x40 DUP4 ADD MSTORE PUSH2 0x7A0 PUSH1 0x3 DUP3 ADD PUSH2 0x3584 JUMP JUMPDEST PUSH1 0x60 DUP4 ADD MSTORE PUSH2 0x7B1 PUSH1 0x4 DUP3 ADD PUSH2 0x3584 JUMP JUMPDEST PUSH1 0x80 DUP4 ADD MSTORE PUSH2 0x7C2 PUSH1 0x5 DUP3 ADD PUSH2 0x3584 JUMP JUMPDEST PUSH1 0xA0 DUP4 ADD MSTORE PUSH2 0x7D3 PUSH1 0x6 DUP3 ADD PUSH2 0x3584 JUMP JUMPDEST PUSH1 0xC0 DUP4 ADD MSTORE PUSH2 0x7E4 PUSH1 0x7 DUP3 ADD PUSH2 0x3584 JUMP JUMPDEST PUSH1 0xE0 DUP4 ADD MSTORE PUSH2 0x7F5 PUSH1 0x8 DUP3 ADD PUSH2 0x3584 JUMP JUMPDEST PUSH2 0x100 DUP4 ADD MSTORE PUSH2 0x807 PUSH1 0x9 DUP3 ADD PUSH2 0x3584 JUMP JUMPDEST PUSH2 0x120 DUP4 ADD MSTORE PUSH2 0x819 PUSH1 0xA DUP3 ADD PUSH2 0x3584 JUMP JUMPDEST PUSH2 0x140 DUP4 ADD MSTORE PUSH2 0x82B PUSH1 0xB DUP3 ADD PUSH2 0x3584 JUMP JUMPDEST PUSH2 0x160 DUP4 ADD MSTORE PUSH2 0x83D PUSH1 0xC DUP3 ADD PUSH2 0x3584 JUMP JUMPDEST PUSH2 0x180 DUP4 ADD MSTORE PUSH2 0x84F PUSH1 0xD DUP3 ADD PUSH2 0x3584 JUMP JUMPDEST PUSH2 0x1A0 DUP4 ADD MSTORE PUSH2 0x861 PUSH1 0xE DUP3 ADD PUSH2 0x3584 JUMP JUMPDEST PUSH2 0x1C0 DUP4 ADD MSTORE PUSH2 0x873 PUSH1 0xF DUP3 ADD PUSH2 0x3584 JUMP JUMPDEST PUSH2 0x1E0 DUP4 ADD MSTORE PUSH2 0x885 PUSH1 0x10 DUP3 ADD PUSH2 0x3584 JUMP JUMPDEST PUSH2 0x200 DUP4 ADD MSTORE PUSH2 0x897 PUSH1 0x11 DUP3 ADD PUSH2 0x3584 JUMP JUMPDEST PUSH2 0x220 DUP4 ADD MSTORE PUSH2 0x8A9 PUSH1 0x12 DUP3 ADD PUSH2 0x3584 JUMP JUMPDEST PUSH2 0x240 DUP4 ADD MSTORE PUSH2 0x8BB PUSH1 0x13 DUP3 ADD PUSH2 0x3584 JUMP JUMPDEST PUSH2 0x260 DUP4 ADD MSTORE PUSH2 0x8CD PUSH1 0x14 DUP3 ADD PUSH2 0x3584 JUMP JUMPDEST PUSH2 0x280 DUP4 ADD MSTORE PUSH2 0x8DF PUSH1 0x15 DUP3 ADD PUSH2 0x3584 JUMP JUMPDEST PUSH2 0x2A0 DUP4 ADD MSTORE PUSH2 0x8F1 PUSH1 0x16 DUP3 ADD PUSH2 0x3584 JUMP JUMPDEST PUSH2 0x2C0 DUP4 ADD MSTORE PUSH2 0x903 PUSH1 0x17 DUP3 ADD PUSH2 0x3584 JUMP JUMPDEST PUSH2 0x2E0 DUP4 ADD MSTORE PUSH2 0x915 PUSH1 0x18 DUP3 ADD PUSH2 0x3584 JUMP JUMPDEST PUSH2 0x300 DUP4 ADD MSTORE PUSH2 0x927 PUSH1 0x19 DUP3 ADD PUSH2 0x3584 JUMP JUMPDEST PUSH2 0x320 DUP4 ADD MSTORE PUSH2 0x939 PUSH1 0x1A DUP3 ADD PUSH2 0x3584 JUMP JUMPDEST PUSH2 0x340 DUP4 ADD MSTORE PUSH2 0x94B PUSH1 0x1B DUP3 ADD PUSH2 0x3584 JUMP JUMPDEST PUSH2 0x360 DUP4 ADD MSTORE PUSH2 0x95D PUSH1 0x1C DUP3 ADD PUSH2 0x3584 JUMP JUMPDEST PUSH2 0x380 DUP4 ADD MSTORE PUSH1 0x1D ADD PUSH2 0x96F SWAP1 PUSH2 0x3584 JUMP JUMPDEST PUSH2 0x3A0 DUP3 ADD MSTORE PUSH1 0x40 MLOAD DUP1 SWAP2 PUSH1 0x20 DUP3 MSTORE DUP1 MLOAD PUSH1 0x20 DUP4 ADD PUSH2 0x3C0 SWAP1 MSTORE PUSH2 0x3E0 DUP4 ADD PUSH2 0x997 SWAP2 PUSH2 0x364D JUMP JUMPDEST PUSH1 0x20 DUP3 ADD MLOAD DUP4 DUP3 SUB PUSH1 0x1F NOT ADD PUSH1 0x40 DUP6 ADD MSTORE PUSH2 0x9B2 SWAP2 SWAP1 PUSH2 0x364D JUMP JUMPDEST PUSH1 0x40 DUP3 ADD MLOAD DUP4 DUP3 SUB PUSH1 0x1F NOT ADD PUSH1 0x60 DUP6 ADD MSTORE PUSH2 0x9CD SWAP2 SWAP1 PUSH2 0x364D JUMP JUMPDEST PUSH1 0x60 DUP3 ADD MLOAD DUP4 DUP3 SUB PUSH1 0x1F NOT ADD PUSH1 0x80 DUP6 ADD MSTORE PUSH2 0x9E8 SWAP2 SWAP1 PUSH2 0x364D JUMP JUMPDEST PUSH1 0x80 DUP3 ADD MLOAD DUP4 DUP3 SUB PUSH1 0x1F NOT ADD PUSH1 0xA0 DUP6 ADD MSTORE PUSH2 0xA03 SWAP2 SWAP1 PUSH2 0x364D JUMP JUMPDEST PUSH1 0xA0 DUP3 ADD MLOAD DUP4 DUP3 SUB PUSH1 0x1F NOT ADD PUSH1 0xC0 DUP6 ADD MSTORE PUSH2 0xA1E SWAP2 SWAP1 PUSH2 0x364D JUMP JUMPDEST PUSH1 0xC0 DUP3 ADD MLOAD DUP4 DUP3 SUB PUSH1 0x1F NOT ADD PUSH1 0xE0 DUP6 ADD MSTORE PUSH2 0xA39 SWAP2 SWAP1 PUSH2 0x364D JUMP JUMPDEST PUSH1 0xE0 DUP3 ADD MLOAD DUP4 DUP3 SUB PUSH1 0x1F NOT ADD PUSH2 0x100 DUP6 ADD MSTORE PUSH2 0xA55 SWAP2 SWAP1 PUSH2 0x364D JUMP JUMPDEST PUSH2 0x100 DUP3 ADD MLOAD DUP4 DUP3 SUB PUSH1 0x1F NOT ADD PUSH2 0x120 DUP6 ADD MSTORE PUSH2 0xA72 SWAP2 SWAP1 PUSH2 0x364D JUMP JUMPDEST PUSH2 0x120 DUP3 ADD MLOAD DUP4 DUP3 SUB PUSH1 0x1F NOT ADD PUSH2 0x140 DUP6 ADD MSTORE PUSH2 0xA8F SWAP2 SWAP1 PUSH2 0x364D JUMP JUMPDEST PUSH2 0x140 DUP3 ADD MLOAD DUP4 DUP3 SUB PUSH1 0x1F NOT ADD PUSH2 0x160 DUP6 ADD MSTORE PUSH2 0xAAC SWAP2 SWAP1 PUSH2 0x364D JUMP JUMPDEST PUSH2 0x160 DUP3 ADD MLOAD DUP4 DUP3 SUB PUSH1 0x1F NOT ADD PUSH2 0x180 DUP6 ADD MSTORE PUSH2 0xAC9 SWAP2 SWAP1 PUSH2 0x364D JUMP JUMPDEST PUSH2 0x180 DUP3 ADD MLOAD DUP4 DUP3 SUB PUSH1 0x1F NOT ADD PUSH2 0x1A0 DUP6 ADD MSTORE PUSH2 0xAE6 SWAP2 SWAP1 PUSH2 0x364D JUMP JUMPDEST PUSH2 0x1A0 DUP3 ADD MLOAD DUP4 DUP3 SUB PUSH1 0x1F NOT ADD PUSH2 0x1C0 DUP6 ADD MSTORE PUSH2 0xB03 SWAP2 SWAP1 PUSH2 0x364D JUMP JUMPDEST PUSH2 0x1C0 DUP3 ADD MLOAD DUP4 DUP3 SUB PUSH1 0x1F NOT ADD PUSH2 0x1E0 DUP6 ADD MSTORE PUSH2 0xB20 SWAP2 SWAP1 PUSH2 0x364D JUMP JUMPDEST PUSH2 0x1E0 DUP3 ADD MLOAD DUP4 DUP3 SUB PUSH1 0x1F NOT ADD PUSH2 0x200 DUP6 ADD MSTORE PUSH2 0xB3D SWAP2 SWAP1 PUSH2 0x364D JUMP JUMPDEST PUSH2 0x200 DUP3 ADD MLOAD DUP4 DUP3 SUB PUSH1 0x1F NOT ADD PUSH2 0x220 DUP6 ADD MSTORE PUSH2 0xB5A SWAP2 SWAP1 PUSH2 0x364D JUMP JUMPDEST PUSH2 0x220 DUP3 ADD MLOAD DUP4 DUP3 SUB PUSH1 0x1F NOT ADD PUSH2 0x240 DUP6 ADD MSTORE PUSH2 0xB77 SWAP2 SWAP1 PUSH2 0x364D JUMP JUMPDEST PUSH2 0x240 DUP3 ADD MLOAD DUP4 DUP3 SUB PUSH1 0x1F NOT ADD PUSH2 0x260 DUP6 ADD MSTORE PUSH2 0xB94 SWAP2 SWAP1 PUSH2 0x364D JUMP JUMPDEST PUSH2 0x260 DUP3 ADD MLOAD DUP4 DUP3 SUB PUSH1 0x1F NOT ADD PUSH2 0x280 DUP6 ADD MSTORE PUSH2 0xBB1 SWAP2 SWAP1 PUSH2 0x364D JUMP JUMPDEST PUSH2 0x280 DUP3 ADD MLOAD DUP4 DUP3 SUB PUSH1 0x1F NOT ADD PUSH2 0x2A0 DUP6 ADD MSTORE PUSH2 0xBCE SWAP2 SWAP1 PUSH2 0x364D JUMP JUMPDEST PUSH2 0x2A0 DUP3 ADD MLOAD DUP4 DUP3 SUB PUSH1 0x1F NOT ADD PUSH2 0x2C0 DUP6 ADD MSTORE PUSH2 0xBEB SWAP2 SWAP1 PUSH2 0x364D JUMP JUMPDEST PUSH2 0x2C0 DUP3 ADD MLOAD DUP4 DUP3 SUB PUSH1 0x1F NOT ADD PUSH2 0x2E0 DUP6 ADD MSTORE PUSH2 0xC08 SWAP2 SWAP1 PUSH2 0x364D JUMP JUMPDEST PUSH2 0x2E0 DUP3 ADD MLOAD DUP4 DUP3 SUB PUSH1 0x1F NOT ADD PUSH2 0x300 DUP6 ADD MSTORE PUSH2 0xC25 SWAP2 SWAP1 PUSH2 0x364D JUMP JUMPDEST PUSH2 0x300 DUP3 ADD MLOAD DUP4 DUP3 SUB PUSH1 0x1F NOT ADD PUSH2 0x320 DUP6 ADD MSTORE PUSH2 0xC42 SWAP2 SWAP1 PUSH2 0x364D JUMP JUMPDEST PUSH2 0x320 DUP3 ADD MLOAD DUP4 DUP3 SUB PUSH1 0x1F NOT ADD PUSH2 0x340 DUP6 ADD MSTORE PUSH2 0xC5F SWAP2 SWAP1 PUSH2 0x364D JUMP JUMPDEST PUSH2 0x340 DUP3 ADD MLOAD DUP4 DUP3 SUB PUSH1 0x1F NOT ADD PUSH2 0x360 DUP6 ADD MSTORE PUSH2 0xC7C SWAP2 SWAP1 PUSH2 0x364D JUMP JUMPDEST PUSH2 0x360 DUP3 ADD MLOAD DUP4 DUP3 SUB PUSH1 0x1F NOT ADD PUSH2 0x380 DUP6 ADD MSTORE PUSH2 0xC99 SWAP2 SWAP1 PUSH2 0x364D JUMP JUMPDEST PUSH2 0x380 DUP3 ADD MLOAD DUP4 DUP3 SUB PUSH1 0x1F NOT ADD PUSH2 0x3A0 DUP6 ADD MSTORE PUSH2 0xCB6 SWAP2 SWAP1 PUSH2 0x364D JUMP JUMPDEST SWAP1 PUSH2 0x3A0 ADD MLOAD SWAP1 PUSH1 0x1F NOT DUP4 DUP3 SUB ADD PUSH2 0x3C0 DUP5 ADD MSTORE PUSH2 0xCD3 SWAP2 PUSH2 0x364D JUMP JUMPDEST SUB SWAP1 RETURN JUMPDEST CALLVALUE PUSH2 0x5E4 JUMPI PUSH2 0x3E0 CALLDATASIZE PUSH1 0x3 NOT ADD SLT PUSH2 0x5E4 JUMPI PUSH1 0x4 CALLDATALOAD PUSH1 0x1 PUSH1 0x1 PUSH1 0x40 SHL SUB DUP2 GT PUSH2 0x5E4 JUMPI PUSH2 0xD08 SWAP1 CALLDATASIZE SWAP1 PUSH1 0x4 ADD PUSH2 0x3672 JUMP JUMPDEST PUSH2 0xA80 MSTORE PUSH2 0x160 MSTORE PUSH1 0x24 CALLDATALOAD PUSH1 0x1 PUSH1 0x1 PUSH1 0x40 SHL SUB DUP2 GT PUSH2 0x5E4 JUMPI PUSH2 0xD2F SWAP1 CALLDATASIZE SWAP1 PUSH1 0x4 ADD PUSH2 0x3672 JUMP JUMPDEST PUSH2 0x5E0 MSTORE PUSH1 0x80 MSTORE PUSH1 0x44 CALLDATALOAD PUSH1 0x1 PUSH1 0x1 PUSH1 0x40 SHL SUB DUP2 GT PUSH2 0x5E4 JUMPI PUSH2 0xD55 SWAP1 CALLDATASIZE SWAP1 PUSH1 0x4 ADD PUSH2 0x3672 JUMP JUMPDEST PUSH2 0x220 MSTORE PUSH2 0x500 MSTORE PUSH1 0x64 CALLDATALOAD PUSH1 0x1 PUSH1 0x1 PUSH1 0x40 SHL SUB DUP2 GT PUSH2 0x5E4 JUMPI PUSH2 0xD7C SWAP1 CALLDATASIZE SWAP1 PUSH1 0x4 ADD PUSH2 0x3672 JUMP JUMPDEST PUSH2 0x180 MSTORE PUSH2 0x2A0 MSTORE PUSH1 0x84 CALLDATALOAD PUSH1 0x1 PUSH1 0x1 PUSH1 0x40 SHL SUB DUP2 GT PUSH2 0x5E4 JUMPI PUSH2 0xDA3 SWAP1 CALLDATASIZE SWAP1 PUSH1 0x4 ADD PUSH2 0x3672 JUMP JUMPDEST PUSH2 0x960 MSTORE PUSH2 0x4E0 MSTORE PUSH1 0xA4 CALLDATALOAD PUSH1 0x1 PUSH1 0x1 PUSH1 0x40 SHL SUB DUP2 GT PUSH2 0x5E4 JUMPI PUSH2 0xDCA SWAP1 CALLDATASIZE SWAP1 PUSH1 0x4 ADD PUSH2 0x3672 JUMP JUMPDEST PUSH2 0x380 MSTORE PUSH2 0x760 MSTORE PUSH1 0xC4 CALLDATALOAD PUSH1 0x1 PUSH1 0x1 PUSH1 0x40 SHL SUB DUP2 GT PUSH2 0x5E4 JUMPI PUSH2 0xDF1 SWAP1 CALLDATASIZE SWAP1 PUSH1 0x4 ADD PUSH2 0x3672 JUMP JUMPDEST PUSH2 0x880 MSTORE PUSH2 0x740 MSTORE PUSH1 0x1 PUSH1 0x1 PUSH1 0x40 SHL SUB PUSH1 0xE4 CALLDATALOAD GT PUSH2 0x5E4 JUMPI PUSH2 0xE18 CALLDATASIZE PUSH1 0xE4 CALLDATALOAD PUSH1 0x4 ADD PUSH2 0x3672 JUMP JUMPDEST PUSH2 0x860 MSTORE PUSH2 0x8A0 MSTORE PUSH1 0x1 PUSH1 0x1 PUSH1 0x40 SHL SUB PUSH2 0x104 CALLDATALOAD GT PUSH2 0x5E4 JUMPI PUSH2 0xE41 CALLDATASIZE PUSH2 0x104 CALLDATALOAD PUSH1 0x4 ADD PUSH2 0x3672 JUMP JUMPDEST PUSH2 0x940 MSTORE PUSH2 0x3C0 MSTORE PUSH2 0x124 CALLDATALOAD PUSH1 0x1 PUSH1 0x1 PUSH1 0x40 SHL SUB DUP2 GT PUSH2 0x5E4 JUMPI PUSH2 0xE69 SWAP1 CALLDATASIZE SWAP1 PUSH1 0x4 ADD PUSH2 0x3672 JUMP JUMPDEST PUSH2 0x5A0 MSTORE PUSH2 0xA00 MSTORE PUSH2 0x144 CALLDATALOAD PUSH1 0x1 PUSH1 0x1 PUSH1 0x40 SHL SUB DUP2 GT PUSH2 0x5E4 JUMPI PUSH2 0xE91 SWAP1 CALLDATASIZE SWAP1 PUSH1 0x4 ADD PUSH2 0x3672 JUMP JUMPDEST PUSH2 0x8C0 MSTORE PUSH2 0x9E0 MSTORE PUSH1 0x1 PUSH1 0x1 PUSH1 0x40 SHL SUB PUSH2 0x164 CALLDATALOAD GT PUSH2 0x5E4 JUMPI PUSH2 0xEBA CALLDATASIZE PUSH2 0x164 CALLDATALOAD PUSH1 0x4 ADD PUSH2 0x3672 JUMP JUMPDEST PUSH2 0x820 MSTORE PUSH2 0x680 MSTORE PUSH2 0x184 CALLDATALOAD PUSH1 0x1 PUSH1 0x1 PUSH1 0x40 SHL SUB DUP2 GT PUSH2 0x5E4 JUMPI PUSH2 0xEE2 SWAP1 CALLDATASIZE SWAP1 PUSH1 0x4 ADD PUSH2 0x3672 JUMP JUMPDEST PUSH2 0x620 MSTORE PUSH2 0x660 MSTORE PUSH2 0x1A4 CALLDATALOAD PUSH1 0x1 PUSH1 0x1 PUSH1 0x40 SHL SUB DUP2 GT PUSH2 0x5E4 JUMPI PUSH2 0xF0A SWAP1 CALLDATASIZE SWAP1 PUSH1 0x4 ADD PUSH2 0x3672 JUMP JUMPDEST PUSH2 0x360 MSTORE PUSH2 0x400 MSTORE PUSH2 0x1C4 CALLDATALOAD PUSH1 0x1 PUSH1 0x1 PUSH1 0x40 SHL SUB DUP2 GT PUSH2 0x5E4 JUMPI PUSH2 0xF32 SWAP1 CALLDATASIZE SWAP1 PUSH1 0x4 ADD PUSH2 0x3672 JUMP JUMPDEST PUSH2 0x600 MSTORE PUSH2 0x5C0 MSTORE PUSH2 0x1E4 CALLDATALOAD PUSH1 0x1 PUSH1 0x1 PUSH1 0x40 SHL SUB DUP2 GT PUSH2 0x5E4 JUMPI PUSH2 0xF5A SWAP1 CALLDATASIZE SWAP1 PUSH1 0x4 ADD PUSH2 0x3672 JUMP JUMPDEST PUSH2 0x6A0 MSTORE PUSH2 0xA20 MSTORE PUSH2 0x204 CALLDATALOAD PUSH1 0x1 PUSH1 0x1 PUSH1 0x40 SHL SUB DUP2 GT PUSH2 0x5E4 JUMPI PUSH2 0xF82 SWAP1 CALLDATASIZE SWAP1 PUSH1 0x4 ADD PUSH2 0x3672 JUMP JUMPDEST PUSH2 0x3A0 MSTORE PUSH2 0x480 MSTORE PUSH2 0x224 CALLDATALOAD PUSH1 0x1 PUSH1 0x1 PUSH1 0x40 SHL SUB DUP2 GT PUSH2 0x5E4 JUMPI PUSH2 0xFAA SWAP1 CALLDATASIZE SWAP1 PUSH1 0x4 ADD PUSH2 0x3672 JUMP JUMPDEST PUSH2 0x2E0 MSTORE PUSH2 0x580 MSTORE PUSH2 0x244 CALLDATALOAD PUSH1 0x1 PUSH1 0x1 PUSH1 0x40 SHL SUB DUP2 GT PUSH2 0x5E4 JUMPI PUSH2 0xFD2 SWAP1 CALLDATASIZE SWAP1 PUSH1 0x4 ADD PUSH2 0x3672 JUMP JUMPDEST PUSH2 0xAC0 MSTORE PUSH2 0x1A0 MSTORE PUSH2 0x264 CALLDATALOAD PUSH1 0x1 PUSH1 0x1 PUSH1 0x40 SHL SUB DUP2 GT PUSH2 0x5E4 JUMPI PUSH2 0xFFA SWAP1 CALLDATASIZE SWAP1 PUSH1 0x4 ADD PUSH2 0x3672 JUMP JUMPDEST PUSH2 0x1E0 MSTORE PUSH2 0x9A0 MSTORE PUSH2 0x284 CALLDATALOAD PUSH1 0x1 PUSH1 0x1 PUSH1 0x40 SHL SUB DUP2 GT PUSH2 0x5E4 JUMPI PUSH2 0x1022 SWAP1 CALLDATASIZE SWAP1 PUSH1 0x4 ADD PUSH2 0x3672 JUMP JUMPDEST PUSH2 0x9C0 MSTORE PUSH2 0x3E0 MSTORE PUSH2 0x2A4 CALLDATALOAD PUSH1 0x1 PUSH1 0x1 PUSH1 0x40 SHL SUB DUP2 GT PUSH2 0x5E4 JUMPI PUSH2 0x104A SWAP1 CALLDATASIZE SWAP1 PUSH1 0x4 ADD PUSH2 0x3672 JUMP JUMPDEST PUSH2 0x460 MSTORE PUSH2 0x1C0 MSTORE PUSH2 0x2C4 CALLDATALOAD PUSH1 0x1 PUSH1 0x1 PUSH1 0x40 SHL SUB DUP2 GT PUSH2 0x5E4 JUMPI PUSH2 0x1072 SWAP1 CALLDATASIZE SWAP1 PUSH1 0x4 ADD PUSH2 0x3672 JUMP JUMPDEST PUSH2 0x700 MSTORE PUSH2 0x300 MSTORE PUSH2 0x2E4 CALLDATALOAD PUSH1 0x1 PUSH1 0x1 PUSH1 0x40 SHL SUB DUP2 GT PUSH2 0x5E4 JUMPI PUSH2 0x109A SWAP1 CALLDATASIZE SWAP1 PUSH1 0x4 ADD PUSH2 0x3672 JUMP JUMPDEST PUSH2 0x920 MSTORE PUSH2 0x340 MSTORE PUSH2 0x304 CALLDATALOAD PUSH1 0x1 PUSH1 0x1 PUSH1 0x40 SHL SUB DUP2 GT PUSH2 0x5E4 JUMPI PUSH2 0x10C2 SWAP1 CALLDATASIZE SWAP1 PUSH1 0x4 ADD PUSH2 0x3672 JUMP JUMPDEST PUSH2 0x260 MSTORE PUSH2 0x540 MSTORE PUSH2 0x324 CALLDATALOAD PUSH1 0x1 PUSH1 0x1 PUSH1 0x40 SHL SUB DUP2 GT PUSH2 0x5E4 JUMPI PUSH2 0x10EA SWAP1 CALLDATASIZE SWAP1 PUSH1 0x4 ADD PUSH2 0x3672 JUMP JUMPDEST PUSH2 0x140 MSTORE PUSH2 0x840 MSTORE PUSH2 0x344 CALLDATALOAD PUSH1 0x1 PUSH1 0x1 PUSH1 0x40 SHL SUB DUP2 GT PUSH2 0x5E4 JUMPI PUSH2 0x1112 SWAP1 CALLDATASIZE SWAP1 PUSH1 0x4 ADD PUSH2 0x3672 JUMP JUMPDEST PUSH2 0x780 MSTORE PUSH2 0xAA0 MSTORE PUSH2 0x364 CALLDATALOAD PUSH1 0x1 PUSH1 0x1 PUSH1 0x40 SHL SUB DUP2 GT PUSH2 0x5E4 JUMPI PUSH2 0x113A SWAP1 CALLDATASIZE SWAP1 PUSH1 0x4 ADD PUSH2 0x3672 JUMP JUMPDEST PUSH2 0x200 MSTORE PUSH1 0xA0 MSTORE PUSH2 0x384 CALLDATALOAD PUSH1 0x1 PUSH1 0x1 PUSH1 0x40 SHL SUB DUP2 GT PUSH2 0x5E4 JUMPI PUSH2 0x1161 SWAP1 CALLDATASIZE SWAP1 PUSH1 0x4 ADD PUSH2 0x3672 JUMP JUMPDEST PUSH2 0x7A0 MSTORE PUSH2 0x8E0 MSTORE PUSH2 0x3A4 CALLDATALOAD PUSH1 0x1 PUSH1 0x1 PUSH1 0x40 SHL SUB DUP2 GT PUSH2 0x5E4 JUMPI PUSH2 0x1189 SWAP1 CALLDATASIZE SWAP1 PUSH1 0x4 ADD PUSH2 0x3672 JUMP JUMPDEST PUSH2 0x120 MSTORE PUSH2 0x4C0 MSTORE PUSH2 0x3C4 CALLDATALOAD PUSH1 0x1 PUSH1 0x1 PUSH1 0x40 SHL SUB DUP2 GT PUSH2 0x5E4 JUMPI PUSH2 0x11B1 SWAP1 CALLDATASIZE SWAP1 PUSH1 0x4 ADD PUSH2 0x3672 JUMP JUMPDEST PUSH2 0x7C0 MSTORE PUSH2 0x800 MSTORE PUSH1 0x0 SLOAD PUSH1 0x1 PUSH1 0x1 PUSH1 0xA0 SHL SUB AND CALLER SUB PUSH2 0x3419 JUMPI PUSH2 0x11DB PUSH1 0x40 MLOAD DUP1 PUSH2 0xAE0 MSTORE PUSH2 0x3547 JUMP JUMPDEST PUSH2 0x11EB CALLDATASIZE PUSH2 0x5E0 MLOAD PUSH1 0x80 MLOAD PUSH2 0x369F JUMP JUMPDEST PUSH2 0xAE0 MLOAD MSTORE PUSH2 0x1201 CALLDATASIZE PUSH2 0x220 MLOAD PUSH2 0x500 MLOAD PUSH2 0x369F JUMP JUMPDEST PUSH1 0x20 PUSH2 0xAE0 MLOAD ADD MSTORE PUSH2 0x121A CALLDATASIZE PUSH2 0x180 MLOAD PUSH2 0x2A0 MLOAD PUSH2 0x369F JUMP JUMPDEST PUSH1 0x40 PUSH2 0xAE0 MLOAD ADD MSTORE PUSH2 0x1233 CALLDATASIZE PUSH2 0x960 MLOAD PUSH2 0x4E0 MLOAD PUSH2 0x369F JUMP JUMPDEST PUSH1 0x60 PUSH2 0xAE0 MLOAD ADD MSTORE PUSH2 0x124C CALLDATASIZE PUSH2 0x380 MLOAD PUSH2 0x760 MLOAD PUSH2 0x369F JUMP JUMPDEST PUSH1 0x80 PUSH2 0xAE0 MLOAD ADD MSTORE PUSH2 0x1265 CALLDATASIZE PUSH2 0x880 MLOAD PUSH2 0x740 MLOAD PUSH2 0x369F JUMP JUMPDEST PUSH1 0xA0 PUSH2 0xAE0 MLOAD ADD MSTORE PUSH2 0x127E CALLDATASIZE PUSH2 0x860 MLOAD PUSH2 0x8A0 MLOAD PUSH2 0x369F JUMP JUMPDEST PUSH1 0xC0 PUSH2 0xAE0 MLOAD ADD MSTORE PUSH2 0x1297 CALLDATASIZE PUSH2 0x940 MLOAD PUSH2 0x3C0 MLOAD PUSH2 0x369F JUMP JUMPDEST PUSH1 0xE0 PUSH2 0xAE0 MLOAD ADD MSTORE PUSH2 0x12B0 CALLDATASIZE PUSH2 0x5A0 MLOAD PUSH2 0xA00 MLOAD PUSH2 0x369F JUMP JUMPDEST PUSH2 0x100 PUSH2 0xAE0 MLOAD ADD MSTORE PUSH2 0x12CA CALLDATASIZE PUSH2 0x8C0 MLOAD PUSH2 0x9E0 MLOAD PUSH2 0x369F JUMP JUMPDEST PUSH2 0x120 PUSH2 0xAE0 MLOAD ADD MSTORE PUSH2 0x12E4 CALLDATASIZE PUSH2 0x820 MLOAD PUSH2 0x680 MLOAD PUSH2 0x369F JUMP JUMPDEST PUSH2 0x140 PUSH2 0xAE0 MLOAD ADD MSTORE PUSH2 0x12FE CALLDATASIZE PUSH2 0x620 MLOAD PUSH2 0x660 MLOAD PUSH2 0x369F JUMP JUMPDEST PUSH2 0x160 PUSH2 0xAE0 MLOAD ADD MSTORE PUSH2 0x1318 CALLDATASIZE PUSH2 0x360 MLOAD PUSH2 0x400 MLOAD PUSH2 0x369F JUMP JUMPDEST PUSH2 0x180 PUSH2 0xAE0 MLOAD ADD MSTORE PUSH2 0x1332 CALLDATASIZE PUSH2 0x600 MLOAD PUSH2 0x5C0 MLOAD PUSH2 0x369F JUMP JUMPDEST PUSH2 0x1A0 PUSH2 0xAE0 MLOAD ADD MSTORE PUSH2 0x134C CALLDATASIZE PUSH2 0x6A0 MLOAD PUSH2 0xA20 MLOAD PUSH2 0x369F JUMP JUMPDEST PUSH2 0x1C0 PUSH2 0xAE0 MLOAD ADD MSTORE PUSH2 0x1366 CALLDATASIZE PUSH2 0x3A0 MLOAD PUSH2 0x480 MLOAD PUSH2 0x369F JUMP JUMPDEST PUSH2 0x1E0 PUSH2 0xAE0 MLOAD ADD MSTORE PUSH2 0x1380 CALLDATASIZE PUSH2 0x2E0 MLOAD PUSH2 0x580 MLOAD PUSH2 0x369F JUMP JUMPDEST PUSH2 0x200 PUSH2 0xAE0 MLOAD ADD MSTORE PUSH2 0x139A CALLDATASIZE PUSH2 0xAC0 MLOAD PUSH2 0x1A0 MLOAD PUSH2 0x369F JUMP JUMPDEST PUSH2 0x220 PUSH2 0xAE0 MLOAD ADD MSTORE PUSH2 0x13B4 CALLDATASIZE PUSH2 0x1E0 MLOAD PUSH2 0x9A0 MLOAD PUSH2 0x369F JUMP JUMPDEST PUSH2 0x240 PUSH2 0xAE0 MLOAD ADD MSTORE PUSH2 0x13CE CALLDATASIZE PUSH2 0x9C0 MLOAD PUSH2 0x3E0 MLOAD PUSH2 0x369F JUMP JUMPDEST PUSH2 0x260 PUSH2 0xAE0 MLOAD ADD MSTORE PUSH2 0x13E8 CALLDATASIZE PUSH2 0x460 MLOAD PUSH2 0x1C0 MLOAD PUSH2 0x369F JUMP JUMPDEST PUSH2 0x280 PUSH2 0xAE0 MLOAD ADD MSTORE PUSH2 0x1402 CALLDATASIZE PUSH2 0x700 MLOAD PUSH2 0x300 MLOAD PUSH2 0x369F JUMP JUMPDEST PUSH2 0x2A0 PUSH2 0xAE0 MLOAD ADD MSTORE PUSH2 0x141C CALLDATASIZE PUSH2 0x920 MLOAD PUSH2 0x340 MLOAD PUSH2 0x369F JUMP JUMPDEST PUSH2 0x2C0 PUSH2 0xAE0 MLOAD ADD MSTORE PUSH2 0x1436 CALLDATASIZE PUSH2 0x260 MLOAD PUSH2 0x540 MLOAD PUSH2 0x369F JUMP JUMPDEST PUSH2 0x2E0 PUSH2 0xAE0 MLOAD ADD MSTORE PUSH2 0x1450 CALLDATASIZE PUSH2 0x140 MLOAD PUSH2 0x840 MLOAD PUSH2 0x369F JUMP JUMPDEST PUSH2 0x300 PUSH2 0xAE0 MLOAD ADD MSTORE PUSH2 0x146A CALLDATASIZE PUSH2 0x780 MLOAD PUSH2 0xAA0 MLOAD PUSH2 0x369F JUMP JUMPDEST PUSH2 0x320 PUSH2 0xAE0 MLOAD ADD MSTORE PUSH2 0x1483 CALLDATASIZE PUSH2 0x200 MLOAD PUSH1 0xA0 MLOAD PUSH2 0x369F JUMP JUMPDEST PUSH2 0x340 PUSH2 0xAE0 MLOAD ADD MSTORE PUSH2 0x149D CALLDATASIZE PUSH2 0x7A0 MLOAD PUSH2 0x8E0 MLOAD PUSH2 0x369F JUMP JUMPDEST PUSH2 0x360 PUSH2 0xAE0 MLOAD ADD MSTORE PUSH2 0x14B7 CALLDATASIZE PUSH2 0x120 MLOAD PUSH2 0x4C0 MLOAD PUSH2 0x369F JUMP JUMPDEST PUSH2 0x380 PUSH2 0xAE0 MLOAD ADD MSTORE PUSH2 0x14D1 CALLDATASIZE PUSH2 0x7C0 MLOAD PUSH2 0x800 MLOAD PUSH2 0x369F JUMP JUMPDEST PUSH2 0x3A0 PUSH2 0xAE0 MLOAD ADD MSTORE PUSH1 0x40 MLOAD PUSH2 0xA80 MLOAD PUSH2 0x160 MLOAD DUP3 CALLDATACOPY PUSH1 0x1 PUSH2 0xA80 MLOAD DUP3 ADD MSTORE PUSH1 0x20 DUP2 PUSH2 0xA80 MLOAD DUP2 ADD SUB ADD SWAP1 KECCAK256 PUSH2 0xAE0 MLOAD MLOAD DUP1 MLOAD SWAP1 PUSH1 0x1 PUSH1 0x1 PUSH1 0x40 SHL SUB DUP3 GT PUSH2 0x254F JUMPI DUP2 SWAP1 PUSH2 0x1529 DUP3 PUSH2 0x1523 DUP7 SLOAD PUSH2 0x350D JUMP JUMPDEST DUP7 PUSH2 0x36E5 JUMP JUMPDEST PUSH1 0x20 SWAP1 PUSH1 0x1F DUP4 GT PUSH1 0x1 EQ PUSH2 0x33AD JUMPI PUSH1 0x0 SWAP3 PUSH2 0x33A2 JUMPI JUMPDEST POP POP DUP2 PUSH1 0x1 SHL SWAP2 PUSH1 0x0 NOT SWAP1 PUSH1 0x3 SHL SHR NOT AND OR DUP2 SSTORE JUMPDEST PUSH1 0x20 PUSH2 0xAE0 MLOAD ADD MLOAD DUP1 MLOAD SWAP1 PUSH1 0x1 PUSH1 0x1 PUSH1 0x40 SHL SUB DUP3 GT PUSH2 0x254F JUMPI DUP2 SWAP1 PUSH2 0x1589 DUP3 PUSH2 0x1580 PUSH1 0x1 DUP8 ADD SLOAD PUSH2 0x350D JUMP JUMPDEST PUSH1 0x1 DUP8 ADD PUSH2 0x36E5 JUMP JUMPDEST PUSH1 0x20 SWAP1 PUSH1 0x1F DUP4 GT PUSH1 0x1 EQ PUSH2 0x3330 JUMPI PUSH1 0x0 SWAP3 PUSH2 0x3325 JUMPI JUMPDEST POP POP DUP2 PUSH1 0x1 SHL SWAP2 PUSH1 0x0 NOT SWAP1 PUSH1 0x3 SHL SHR NOT AND OR PUSH1 0x1 DUP3 ADD SSTORE JUMPDEST PUSH1 0x40 PUSH2 0xAE0 MLOAD ADD MLOAD DUP1 MLOAD SWAP1 PUSH1 0x1 PUSH1 0x1 PUSH1 0x40 SHL SUB DUP3 GT PUSH2 0x254F JUMPI DUP2 SWAP1 PUSH2 0x15EC DUP3 PUSH2 0x15E3 PUSH1 0x2 DUP8 ADD SLOAD PUSH2 0x350D JUMP JUMPDEST PUSH1 0x2 DUP8 ADD PUSH2 0x36E5 JUMP JUMPDEST PUSH1 0x20 SWAP1 PUSH1 0x1F DUP4 GT PUSH1 0x1 EQ PUSH2 0x32B3 JUMPI PUSH1 0x0 SWAP3 PUSH2 0x32A8 JUMPI JUMPDEST POP POP DUP2 PUSH1 0x1 SHL SWAP2 PUSH1 0x0 NOT SWAP1 PUSH1 0x3 SHL SHR NOT AND OR PUSH1 0x2 DUP3 ADD SSTORE JUMPDEST PUSH1 0x60 PUSH2 0xAE0 MLOAD ADD MLOAD DUP1 MLOAD SWAP1 PUSH1 0x1 PUSH1 0x1 PUSH1 0x40 SHL SUB DUP3 GT PUSH2 0x254F JUMPI DUP2 SWAP1 PUSH2 0x164F DUP3 PUSH2 0x1646 PUSH1 0x3 DUP8 ADD SLOAD PUSH2 0x350D JUMP JUMPDEST PUSH1 0x3 DUP8 ADD PUSH2 0x36E5 JUMP JUMPDEST PUSH1 0x20 SWAP1 PUSH1 0x1F DUP4 GT PUSH1 0x1 EQ PUSH2 0x3236 JUMPI PUSH1 0x0 SWAP3 PUSH2 0x322B JUMPI JUMPDEST POP POP DUP2 PUSH1 0x1 SHL SWAP2 PUSH1 0x0 NOT SWAP1 PUSH1 0x3 SHL SHR NOT AND OR PUSH1 0x3 DUP3 ADD SSTORE JUMPDEST PUSH1 0x80 PUSH2 0xAE0 MLOAD ADD MLOAD DUP1 MLOAD SWAP1 PUSH1 0x1 PUSH1 0x1 PUSH1 0x40 SHL SUB DUP3 GT PUSH2 0x254F JUMPI DUP2 SWAP1 PUSH2 0x16B2 DUP3 PUSH2 0x16A9 PUSH1 0x4 DUP8 ADD SLOAD PUSH2 0x350D JUMP JUMPDEST PUSH1 0x4 DUP8 ADD PUSH2 0x36E5 JUMP JUMPDEST PUSH1 0x20 SWAP1 PUSH1 0x1F DUP4 GT PUSH1 0x1 EQ PUSH2 0x31B9 JUMPI PUSH1 0x0 SWAP3 PUSH2 0x31AE JUMPI JUMPDEST POP POP DUP2 PUSH1 0x1 SHL SWAP2 PUSH1 0x0 NOT SWAP1 PUSH1 0x3 SHL SHR NOT AND OR PUSH1 0x4 DUP3 ADD SSTORE JUMPDEST PUSH1 0xA0 PUSH2 0xAE0 MLOAD ADD MLOAD DUP1 MLOAD SWAP1 PUSH1 0x1 PUSH1 0x1 PUSH1 0x40 SHL SUB DUP3 GT PUSH2 0x254F JUMPI DUP2 SWAP1 PUSH2 0x1715 DUP3 PUSH2 0x170C PUSH1 0x5 DUP8 ADD SLOAD PUSH2 0x350D JUMP JUMPDEST PUSH1 0x5 DUP8 ADD PUSH2 0x36E5 JUMP JUMPDEST PUSH1 0x20 SWAP1 PUSH1 0x1F DUP4 GT PUSH1 0x1 EQ PUSH2 0x313C JUMPI PUSH1 0x0 SWAP3 PUSH2 0x3131 JUMPI JUMPDEST POP POP DUP2 PUSH1 0x1 SHL SWAP2 PUSH1 0x0 NOT SWAP1 PUSH1 0x3 SHL SHR NOT AND OR PUSH1 0x5 DUP3 ADD SSTORE JUMPDEST PUSH1 0xC0 PUSH2 0xAE0 MLOAD ADD MLOAD DUP1 MLOAD SWAP1 PUSH1 0x1 PUSH1 0x1 PUSH1 0x40 SHL SUB DUP3 GT PUSH2 0x254F JUMPI DUP2 SWAP1 PUSH2 0x1778 DUP3 PUSH2 0x176F PUSH1 0x6 DUP8 ADD SLOAD PUSH2 0x350D JUMP JUMPDEST PUSH1 0x6 DUP8 ADD PUSH2 0x36E5 JUMP JUMPDEST PUSH1 0x20 SWAP1 PUSH1 0x1F DUP4 GT PUSH1 0x1 EQ PUSH2 0x30BF JUMPI PUSH1 0x0 SWAP3 PUSH2 0x30B4 JUMPI JUMPDEST POP POP DUP2 PUSH1 0x1 SHL SWAP2 PUSH1 0x0 NOT SWAP1 PUSH1 0x3 SHL SHR NOT AND OR PUSH1 0x6 DUP3 ADD SSTORE JUMPDEST PUSH1 0xE0 PUSH2 0xAE0 MLOAD ADD MLOAD DUP1 MLOAD SWAP1 PUSH1 0x1 PUSH1 0x1 PUSH1 0x40 SHL SUB DUP3 GT PUSH2 0x254F JUMPI DUP2 SWAP1 PUSH2 0x17DB DUP3 PUSH2 0x17D2 PUSH1 0x7 DUP8 ADD SLOAD PUSH2 0x350D JUMP JUMPDEST PUSH1 0x7 DUP8 ADD PUSH2 0x36E5 JUMP JUMPDEST PUSH1 0x20 SWAP1 PUSH1 0x1F DUP4 GT PUSH1 0x1 EQ PUSH2 0x3042 JUMPI PUSH1 0x0 SWAP3 PUSH2 0x3037 JUMPI JUMPDEST POP POP DUP2 PUSH1 0x1 SHL SWAP2 PUSH1 0x0 NOT SWAP1 PUSH1 0x3 SHL SHR NOT AND OR PUSH1 0x7 DUP3 ADD SSTORE JUMPDEST PUSH2 0x100 PUSH2 0xAE0 MLOAD ADD MLOAD DUP1 MLOAD SWAP1 PUSH1 0x1 PUSH1 0x1 PUSH1 0x40 SHL SUB DUP3 GT PUSH2 0x254F JUMPI DUP2 SWAP1 PUSH2 0x183F DUP3 PUSH2 0x1836 PUSH1 0x8 DUP8 ADD SLOAD PUSH2 0x350D JUMP JUMPDEST PUSH1 0x8 DUP8 ADD PUSH2 0x36E5 JUMP JUMPDEST PUSH1 0x20 SWAP1 PUSH1 0x1F DUP4 GT PUSH1 0x1 EQ PUSH2 0x2FC5 JUMPI PUSH1 0x0 SWAP3 PUSH2 0x2FBA JUMPI JUMPDEST POP POP DUP2 PUSH1 0x1 SHL SWAP2 PUSH1 0x0 NOT SWAP1 PUSH1 0x3 SHL SHR NOT AND OR PUSH1 0x8 DUP3 ADD SSTORE JUMPDEST PUSH2 0x120 PUSH2 0xAE0 MLOAD ADD MLOAD DUP1 MLOAD SWAP1 PUSH1 0x1 PUSH1 0x1 PUSH1 0x40 SHL SUB DUP3 GT PUSH2 0x254F JUMPI DUP2 SWAP1 PUSH2 0x18A3 DUP3 PUSH2 0x189A PUSH1 0x9 DUP8 ADD SLOAD PUSH2 0x350D JUMP JUMPDEST PUSH1 0x9 DUP8 ADD PUSH2 0x36E5 JUMP JUMPDEST PUSH1 0x20 SWAP1 PUSH1 0x1F DUP4 GT PUSH1 0x1 EQ PUSH2 0x2F48 JUMPI PUSH1 0x0 SWAP3 PUSH2 0x2F3D JUMPI JUMPDEST POP POP DUP2 PUSH1 0x1 SHL SWAP2 PUSH1 0x0 NOT SWAP1 PUSH1 0x3 SHL SHR NOT AND OR PUSH1 0x9 DUP3 ADD SSTORE JUMPDEST PUSH2 0x140 PUSH2 0xAE0 MLOAD ADD MLOAD DUP1 MLOAD SWAP1 PUSH1 0x1 PUSH1 0x1 PUSH1 0x40 SHL SUB DUP3 GT PUSH2 0x254F JUMPI DUP2 SWAP1 PUSH2 0x1907 DUP3 PUSH2 0x18FE PUSH1 0xA DUP8 ADD SLOAD PUSH2 0x350D JUMP JUMPDEST PUSH1 0xA DUP8 ADD PUSH2 0x36E5 JUMP JUMPDEST PUSH1 0x20 SWAP1 PUSH1 0x1F DUP4 GT PUSH1 0x1 EQ PUSH2 0x2ECB JUMPI PUSH1 0x0 SWAP3 PUSH2 0x2EC0 JUMPI JUMPDEST POP POP DUP2 PUSH1 0x1 SHL SWAP2 PUSH1 0x0 NOT SWAP1 PUSH1 0x3 SHL SHR NOT AND OR PUSH1 0xA DUP3 ADD SSTORE JUMPDEST PUSH2 0x160 PUSH2 0xAE0 MLOAD ADD MLOAD DUP1 MLOAD SWAP1 PUSH1 0x1 PUSH1 0x1 PUSH1 0x40 SHL SUB DUP3 GT PUSH2 0x254F JUMPI DUP2 SWAP1 PUSH2 0x196B DUP3 PUSH2 0x1962 PUSH1 0xB DUP8 ADD SLOAD PUSH2 0x350D JUMP JUMPDEST PUSH1 0xB DUP8 ADD PUSH2 0x36E5 JUMP JUMPDEST PUSH1 0x20 SWAP1 PUSH1 0x1F DUP4 GT PUSH1 0x1 EQ PUSH2 0x2E4E JUMPI PUSH1 0x0 SWAP3 PUSH2 0x2E43 JUMPI JUMPDEST POP POP DUP2 PUSH1 0x1 SHL SWAP2 PUSH1 0x0 NOT SWAP1 PUSH1 0x3 SHL SHR NOT AND OR PUSH1 0xB DUP3 ADD SSTORE JUMPDEST PUSH2 0x180 PUSH2 0xAE0 MLOAD ADD MLOAD DUP1 MLOAD SWAP1 PUSH1 0x1 PUSH1 0x1 PUSH1 0x40 SHL SUB DUP3 GT PUSH2 0x254F JUMPI DUP2 SWAP1 PUSH2 0x19CF DUP3 PUSH2 0x19C6 PUSH1 0xC DUP8 ADD SLOAD PUSH2 0x350D JUMP JUMPDEST PUSH1 0xC DUP8 ADD PUSH2 0x36E5 JUMP JUMPDEST PUSH1 0x20 SWAP1 PUSH1 0x1F DUP4 GT PUSH1 0x1 EQ PUSH2 0x2DD1 JUMPI PUSH1 0x0 SWAP3 PUSH2 0x2DC6 JUMPI JUMPDEST POP POP DUP2 PUSH1 0x1 SHL SWAP2 PUSH1 0x0 NOT SWAP1 PUSH1 0x3 SHL SHR NOT AND OR PUSH1 0xC DUP3 ADD SSTORE JUMPDEST PUSH2 0x1A0 PUSH2 0xAE0 MLOAD ADD MLOAD DUP1 MLOAD SWAP1 PUSH1 0x1 PUSH1 0x1 PUSH1 0x40 SHL SUB DUP3 GT PUSH2 0x254F JUMPI DUP2 SWAP1 PUSH2 0x1A33 DUP3 PUSH2 0x1A2A PUSH1 0xD DUP8 ADD SLOAD PUSH2 0x350D JUMP JUMPDEST PUSH1 0xD DUP8 ADD PUSH2 0x36E5 JUMP JUMPDEST PUSH1 0x20 SWAP1 PUSH1 0x1F DUP4 GT PUSH1 0x1 EQ PUSH2 0x2D54 JUMPI PUSH1 0x0 SWAP3 PUSH2 0x2D49 JUMPI JUMPDEST POP POP DUP2 PUSH1 0x1 SHL SWAP2 PUSH1 0x0 NOT SWAP1 PUSH1 0x3 SHL SHR NOT AND OR PUSH1 0xD DUP3 ADD SSTORE JUMPDEST PUSH2 0x1C0 PUSH2 0xAE0 MLOAD ADD MLOAD DUP1 MLOAD SWAP1 PUSH1 0x1 PUSH1 0x1 PUSH1 0x40 SHL SUB DUP3 GT PUSH2 0x254F JUMPI DUP2 SWAP1 PUSH2 0x1A97 DUP3 PUSH2 0x1A8E PUSH1 0xE DUP8 ADD SLOAD PUSH2 0x350D JUMP JUMPDEST PUSH1 0xE DUP8 ADD PUSH2 0x36E5 JUMP JUMPDEST PUSH1 0x20 SWAP1 PUSH1 0x1F DUP4 GT PUSH1 0x1 EQ PUSH2 0x2CD7 JUMPI PUSH1 0x0 SWAP3 PUSH2 0x2CCC JUMPI JUMPDEST POP POP DUP2 PUSH1 0x1 SHL SWAP2 PUSH1 0x0 NOT SWAP1 PUSH1 0x3 SHL SHR NOT AND OR PUSH1 0xE DUP3 ADD SSTORE JUMPDEST PUSH2 0x1E0 PUSH2 0xAE0 MLOAD ADD MLOAD DUP1 MLOAD SWAP1 PUSH1 0x1 PUSH1 0x1 PUSH1 0x40 SHL SUB DUP3 GT PUSH2 0x254F JUMPI DUP2 SWAP1 PUSH2 0x1AFB DUP3 PUSH2 0x1AF2 PUSH1 0xF DUP8 ADD SLOAD PUSH2 0x350D JUMP JUMPDEST PUSH1 0xF DUP8 ADD PUSH2 0x36E5 JUMP JUMPDEST PUSH1 0x20 SWAP1 PUSH1 0x1F DUP4 GT PUSH1 0x1 EQ PUSH2 0x2C5A JUMPI PUSH1 0x0 SWAP3 PUSH2 0x2C4F JUMPI JUMPDEST POP POP DUP2 PUSH1 0x1 SHL SWAP2 PUSH1 0x0 NOT SWAP1 PUSH1 0x3 SHL SHR NOT AND OR PUSH1 0xF DUP3 ADD SSTORE JUMPDEST PUSH2 0x200 PUSH2 0xAE0 MLOAD ADD MLOAD DUP1 MLOAD SWAP1 PUSH1 0x1 PUSH1 0x1 PUSH1 0x40 SHL SUB DUP3 GT PUSH2 0x254F JUMPI DUP2 SWAP1 PUSH2 0x1B5F DUP3 PUSH2 0x1B56 PUSH1 0x10 DUP8 ADD SLOAD PUSH2 0x350D JUMP JUMPDEST PUSH1 0x10 DUP8 ADD PUSH2 0x36E5 JUMP JUMPDEST PUSH1 0x20 SWAP1 PUSH1 0x1F DUP4 GT PUSH1 0x1 EQ PUSH2 0x2BDD JUMPI PUSH1 0x0 SWAP3 PUSH2 0x2BD2 JUMPI JUMPDEST POP POP DUP2 PUSH1 0x1 SHL SWAP2 PUSH1 0x0 NOT SWAP1 PUSH1 0x3 SHL SHR NOT AND OR PUSH1 0x10 DUP3 ADD SSTORE JUMPDEST PUSH2 0x220 PUSH2 0xAE0 MLOAD ADD MLOAD DUP1 MLOAD SWAP1 PUSH1 0x1 PUSH1 0x1 PUSH1 0x40 SHL SUB DUP3 GT PUSH2 0x254F JUMPI DUP2 SWAP1 PUSH2 0x1BC3 DUP3 PUSH2 0x1BBA PUSH1 0x11 DUP8 ADD SLOAD PUSH2 0x350D JUMP JUMPDEST PUSH1 0x11 DUP8 ADD PUSH2 0x36E5 JUMP JUMPDEST PUSH1 0x20 SWAP1 PUSH1 0x1F DUP4 GT PUSH1 0x1 EQ PUSH2 0x2B60 JUMPI PUSH1 0x0 SWAP3 PUSH2 0x2B55 JUMPI JUMPDEST POP POP DUP2 PUSH1 0x1 SHL SWAP2 PUSH1 0x0 NOT SWAP1 PUSH1 0x3 SHL SHR NOT AND OR PUSH1 0x11 DUP3 ADD SSTORE JUMPDEST PUSH2 0x240 PUSH2 0xAE0 MLOAD ADD MLOAD DUP1 MLOAD SWAP1 PUSH1 0x1 PUSH1 0x1 PUSH1 0x40 SHL SUB DUP3 GT PUSH2 0x254F JUMPI DUP2 SWAP1 PUSH2 0x1C27 DUP3 PUSH2 0x1C1E PUSH1 0x12 DUP8 ADD SLOAD PUSH2 0x350D JUMP JUMPDEST PUSH1 0x12 DUP8 ADD PUSH2 0x36E5 JUMP JUMPDEST PUSH1 0x20 SWAP1 PUSH1 0x1F DUP4 GT PUSH1 0x1 EQ PUSH2 0x2AE3 JUMPI PUSH1 0x0 SWAP3 PUSH2 0x2AD8 JUMPI JUMPDEST POP POP DUP2 PUSH1 0x1 SHL SWAP2 PUSH1 0x0 NOT SWAP1 PUSH1 0x3 SHL SHR NOT AND OR PUSH1 0x12 DUP3 ADD SSTORE JUMPDEST PUSH2 0x260 PUSH2 0xAE0 MLOAD ADD MLOAD DUP1 MLOAD SWAP1 PUSH1 0x1 PUSH1 0x1 PUSH1 0x40 SHL SUB DUP3 GT PUSH2 0x254F JUMPI DUP2 SWAP1 PUSH2 0x1C8B DUP3 PUSH2 0x1C82 PUSH1 0x13 DUP8 ADD SLOAD PUSH2 0x350D JUMP JUMPDEST PUSH1 0x13 DUP8 ADD PUSH2 0x36E5 JUMP JUMPDEST PUSH1 0x20 SWAP1 PUSH1 0x1F DUP4 GT PUSH1 0x1 EQ PUSH2 0x2A66 JUMPI PUSH1 0x0 SWAP3 PUSH2 0x2A5B JUMPI JUMPDEST POP POP DUP2 PUSH1 0x1 SHL SWAP2 PUSH1 0x0 NOT SWAP1 PUSH1 0x3 SHL SHR NOT AND OR PUSH1 0x13 DUP3 ADD SSTORE JUMPDEST PUSH2 0x280 PUSH2 0xAE0 MLOAD ADD MLOAD DUP1 MLOAD SWAP1 PUSH1 0x1 PUSH1 0x1 PUSH1 0x40 SHL SUB DUP3 GT PUSH2 0x254F JUMPI DUP2 SWAP1 PUSH2 0x1CEF DUP3 PUSH2 0x1CE6 PUSH1 0x14 DUP8 ADD SLOAD PUSH2 0x350D JUMP JUMPDEST PUSH1 0x14 DUP8 ADD PUSH2 0x36E5 JUMP JUMPDEST PUSH1 0x20 SWAP1 PUSH1 0x1F DUP4 GT PUSH1 0x1 EQ PUSH2 0x29E9 JUMPI PUSH1 0x0 SWAP3 PUSH2 0x29DE JUMPI JUMPDEST POP POP DUP2 PUSH1 0x1 SHL SWAP2 PUSH1 0x0 NOT SWAP1 PUSH1 0x3 SHL SHR NOT AND OR PUSH1 0x14 DUP3 ADD SSTORE JUMPDEST PUSH2 0x2A0 PUSH2 0xAE0 MLOAD ADD MLOAD DUP1 MLOAD SWAP1 PUSH1 0x1 PUSH1 0x1 PUSH1 0x40 SHL SUB DUP3 GT PUSH2 0x254F JUMPI DUP2 SWAP1 PUSH2 0x1D53 DUP3 PUSH2 0x1D4A PUSH1 0x15 DUP8 ADD SLOAD PUSH2 0x350D JUMP JUMPDEST PUSH1 0x15 DUP8 ADD PUSH2 0x36E5 JUMP JUMPDEST PUSH1 0x20 SWAP1 PUSH1 0x1F DUP4 GT PUSH1 0x1 EQ PUSH2 0x296C JUMPI PUSH1 0x0 SWAP3 PUSH2 0x2961 JUMPI JUMPDEST POP POP DUP2 PUSH1 0x1 SHL SWAP2 PUSH1 0x0 NOT SWAP1 PUSH1 0x3 SHL SHR NOT AND OR PUSH1 0x15 DUP3 ADD SSTORE JUMPDEST PUSH2 0x2C0 PUSH2 0xAE0 MLOAD ADD MLOAD DUP1 MLOAD SWAP1 PUSH1 0x1 PUSH1 0x1 PUSH1 0x40 SHL SUB DUP3 GT PUSH2 0x254F JUMPI DUP2 SWAP1 PUSH2 0x1DB7 DUP3 PUSH2 0x1DAE PUSH1 0x16 DUP8 ADD SLOAD PUSH2 0x350D JUMP JUMPDEST PUSH1 0x16 DUP8 ADD PUSH2 0x36E5 JUMP JUMPDEST PUSH1 0x20 SWAP1 PUSH1 0x1F DUP4 GT PUSH1 0x1 EQ PUSH2 0x28EF JUMPI PUSH1 0x0 SWAP3 PUSH2 0x28E4 JUMPI JUMPDEST POP POP DUP2 PUSH1 0x1 SHL SWAP2 PUSH1 0x0 NOT SWAP1 PUSH1 0x3 SHL SHR NOT AND OR PUSH1 0x16 DUP3 ADD SSTORE JUMPDEST PUSH2 0x2E0 PUSH2 0xAE0 MLOAD ADD MLOAD DUP1 MLOAD SWAP1 PUSH1 0x1 PUSH1 0x1 PUSH1 0x40 SHL SUB DUP3 GT PUSH2 0x254F JUMPI DUP2 SWAP1 PUSH2 0x1E1B DUP3 PUSH2 0x1E12 PUSH1 0x17 DUP8 ADD SLOAD PUSH2 0x350D JUMP JUMPDEST PUSH1 0x17 DUP8 ADD PUSH2 0x36E5 JUMP JUMPDEST PUSH1 0x20 SWAP1 PUSH1 0x1F DUP4 GT PUSH1 0x1 EQ PUSH2 0x2872 JUMPI PUSH1 0x0 SWAP3 PUSH2 0x2867 JUMPI JUMPDEST POP POP DUP2 PUSH1 0x1 SHL SWAP2 PUSH1 0x0 NOT SWAP1 PUSH1 0x3 SHL SHR NOT AND OR PUSH1 0x17 DUP3 ADD SSTORE JUMPDEST PUSH2 0x300 PUSH2 0xAE0 MLOAD ADD MLOAD DUP1 MLOAD SWAP1 PUSH1 0x1 PUSH1 0x1 PUSH1 0x40 SHL SUB DUP3 GT PUSH2 0x254F JUMPI DUP2 SWAP1 PUSH2 0x1E7F DUP3 PUSH2 0x1E76 PUSH1 0x18 DUP8 ADD SLOAD PUSH2 0x350D JUMP JUMPDEST PUSH1 0x18 DUP8 ADD PUSH2 0x36E5 JUMP JUMPDEST PUSH1 0x20 SWAP1 PUSH1 0x1F DUP4 GT PUSH1 0x1 EQ PUSH2 0x27F5 JUMPI PUSH1 0x0 SWAP3 PUSH2 0x27EA JUMPI JUMPDEST POP POP DUP2 PUSH1 0x1 SHL SWAP2 PUSH1 0x0 NOT SWAP1 PUSH1 0x3 SHL SHR NOT AND OR PUSH1 0x18 DUP3 ADD SSTORE JUMPDEST PUSH2 0x320 PUSH2 0xAE0 MLOAD ADD MLOAD DUP1 MLOAD SWAP1 PUSH1 0x1 PUSH1 0x1 PUSH1 0x40 SHL SUB DUP3 GT PUSH2 0x254F JUMPI DUP2 SWAP1 PUSH2 0x1EE3 DUP3 PUSH2 0x1EDA PUSH1 0x19 DUP8 ADD SLOAD PUSH2 0x350D JUMP JUMPDEST PUSH1 0x19 DUP8 ADD PUSH2 0x36E5 JUMP JUMPDEST PUSH1 0x20 SWAP1 PUSH1 0x1F DUP4 GT PUSH1 0x1 EQ PUSH2 0x2778 JUMPI PUSH1 0x0 SWAP3 PUSH2 0x276D JUMPI JUMPDEST POP POP DUP2 PUSH1 0x1 SHL SWAP2 PUSH1 0x0 NOT SWAP1 PUSH1 0x3 SHL SHR NOT AND OR PUSH1 0x19 DUP3 ADD SSTORE JUMPDEST PUSH2 0x340 PUSH2 0xAE0 MLOAD ADD MLOAD DUP1 MLOAD SWAP1 PUSH1 0x1 PUSH1 0x1 PUSH1 0x40 SHL SUB DUP3 GT PUSH2 0x254F JUMPI DUP2 SWAP1 PUSH2 0x1F47 DUP3 PUSH2 0x1F3E PUSH1 0x1A DUP8 ADD SLOAD PUSH2 0x350D JUMP JUMPDEST PUSH1 0x1A DUP8 ADD PUSH2 0x36E5 JUMP JUMPDEST PUSH1 0x20 SWAP1 PUSH1 0x1F DUP4 GT PUSH1 0x1 EQ PUSH2 0x26FB JUMPI PUSH1 0x0 SWAP3 PUSH2 0x26F0 JUMPI JUMPDEST POP POP DUP2 PUSH1 0x1 SHL SWAP2 PUSH1 0x0 NOT SWAP1 PUSH1 0x3 SHL SHR NOT AND OR PUSH1 0x1A DUP3 ADD SSTORE JUMPDEST PUSH2 0x360 PUSH2 0xAE0 MLOAD ADD MLOAD DUP1 MLOAD SWAP1 PUSH1 0x1 PUSH1 0x1 PUSH1 0x40 SHL SUB DUP3 GT PUSH2 0x254F JUMPI DUP2 SWAP1 PUSH2 0x1FAB DUP3 PUSH2 0x1FA2 PUSH1 0x1B DUP8 ADD SLOAD PUSH2 0x350D JUMP JUMPDEST PUSH1 0x1B DUP8 ADD PUSH2 0x36E5 JUMP JUMPDEST PUSH1 0x20 SWAP1 PUSH1 0x1F DUP4 GT PUSH1 0x1 EQ PUSH2 0x267E JUMPI PUSH1 0x0 SWAP3 PUSH2 0x2673 JUMPI JUMPDEST POP POP DUP2 PUSH1 0x1 SHL SWAP2 PUSH1 0x0 NOT SWAP1 PUSH1 0x3 SHL SHR NOT AND OR PUSH1 0x1B DUP3 ADD SSTORE JUMPDEST PUSH2 0x380 PUSH2 0xAE0 MLOAD ADD MLOAD DUP1 MLOAD SWAP1 PUSH1 0x1 PUSH1 0x1 PUSH1 0x40 SHL SUB DUP3 GT PUSH2 0x254F JUMPI DUP2 SWAP1 PUSH2 0x200F DUP3 PUSH2 0x2006 PUSH1 0x1C DUP8 ADD SLOAD PUSH2 0x350D JUMP JUMPDEST PUSH1 0x1C DUP8 ADD PUSH2 0x36E5 JUMP JUMPDEST PUSH1 0x20 SWAP1 PUSH1 0x1F DUP4 GT PUSH1 0x1 EQ PUSH2 0x2601 JUMPI PUSH1 0x0 SWAP3 PUSH2 0x25F6 JUMPI JUMPDEST POP POP DUP2 PUSH1 0x1 SHL SWAP2 PUSH1 0x0 NOT SWAP1 PUSH1 0x3 SHL SHR NOT AND OR PUSH1 0x1C DUP3 ADD SSTORE JUMPDEST PUSH2 0x3A0 PUSH2 0xAE0 MLOAD ADD MLOAD DUP1 MLOAD SWAP1 PUSH1 0x1 PUSH1 0x1 PUSH1 0x40 SHL SUB DUP3 GT PUSH2 0x254F JUMPI PUSH2 0x2071 DUP3 PUSH2 0x2068 PUSH1 0x1D DUP7 ADD SLOAD PUSH2 0x350D JUMP JUMPDEST PUSH1 0x1D DUP7 ADD PUSH2 0x36E5 JUMP JUMPDEST PUSH1 0x20 SWAP1 PUSH1 0x1F DUP4 GT PUSH1 0x1 EQ PUSH2 0x2586 JUMPI PUSH1 0x1D SWAP3 SWAP2 PUSH1 0x0 SWAP2 DUP4 PUSH2 0x257B JUMPI JUMPDEST POP POP DUP2 PUSH1 0x1 SHL SWAP2 PUSH1 0x0 NOT SWAP1 PUSH1 0x3 SHL SHR NOT AND OR SWAP2 ADD SSTORE JUMPDEST PUSH1 0x2 SLOAD PUSH9 0x10000000000000000 DUP2 LT ISZERO PUSH2 0x254F JUMPI DUP1 PUSH1 0x1 PUSH2 0x20C6 SWAP3 ADD PUSH1 0x2 SSTORE PUSH2 0x34C0 JUMP JUMPDEST PUSH2 0x2565 JUMPI PUSH2 0xA80 MLOAD PUSH1 0x1 PUSH1 0x1 PUSH1 0x40 SHL SUB DUP2 GT PUSH2 0x254F JUMPI PUSH2 0x20F0 SWAP1 PUSH2 0x20EA DUP4 SLOAD PUSH2 0x350D JUMP JUMPDEST DUP4 PUSH2 0x36E5 JUMP JUMPDEST PUSH1 0x0 SWAP1 PUSH2 0xA80 MLOAD PUSH1 0x1F DUP2 GT PUSH1 0x1 EQ PUSH2 0x24E2 JUMPI POP SWAP1 PUSH1 0x0 PUSH2 0xA80 MLOAD SWAP2 DUP3 PUSH2 0x24D4 JUMPI JUMPDEST POP DUP2 PUSH1 0x1 SHL SWAP2 PUSH1 0x0 NOT SWAP1 PUSH1 0x3 SHL SHR NOT AND OR SWAP1 SSTORE JUMPDEST PUSH2 0x3E0 PUSH1 0x40 MLOAD DUP1 PUSH2 0xA60 MSTORE MSTORE PUSH32 0xA66514A3372405F61C7BBF458224AD96298533892DE3573590DCCAA3A8CA8B48 PUSH2 0x24AA PUSH2 0x2490 PUSH2 0x2476 PUSH2 0x245D PUSH2 0x2443 PUSH2 0x2429 PUSH2 0x240F PUSH2 0x23F5 PUSH2 0x23DB PUSH2 0x23C1 PUSH2 0x23A7 PUSH2 0x238D PUSH2 0x2373 PUSH2 0x2359 PUSH2 0x233F PUSH2 0x2325 PUSH2 0x230B PUSH2 0x22F1 PUSH2 0x22D7 PUSH2 0x22BD PUSH2 0x22A3 PUSH2 0x2289 PUSH2 0x226F PUSH2 0x2256 PUSH2 0x223D PUSH2 0x2224 PUSH2 0x220B PUSH2 0x21F2 PUSH2 0x21D9 PUSH2 0x21C1 PUSH2 0x3E0 PUSH2 0xA60 MLOAD ADD PUSH2 0xA80 MLOAD PUSH2 0x160 MLOAD PUSH2 0x3739 JUMP JUMPDEST PUSH2 0xA60 MLOAD PUSH1 0x20 DUP2 DUP4 SUB SWAP2 ADD MSTORE PUSH2 0x5E0 MLOAD PUSH1 0x80 MLOAD PUSH2 0x3739 JUMP JUMPDEST PUSH2 0xA60 MLOAD PUSH1 0x40 DUP2 DUP4 SUB SWAP2 ADD MSTORE PUSH2 0x220 MLOAD PUSH2 0x500 MLOAD PUSH2 0x3739 JUMP JUMPDEST PUSH2 0xA60 MLOAD PUSH1 0x60 DUP2 DUP4 SUB SWAP2 ADD MSTORE PUSH2 0x180 MLOAD PUSH2 0x2A0 MLOAD PUSH2 0x3739 JUMP JUMPDEST PUSH2 0xA60 MLOAD PUSH1 0x80 DUP2 DUP4 SUB SWAP2 ADD MSTORE PUSH2 0x960 MLOAD PUSH2 0x4E0 MLOAD PUSH2 0x3739 JUMP JUMPDEST PUSH2 0xA60 MLOAD PUSH1 0xA0 DUP2 DUP4 SUB SWAP2 ADD MSTORE PUSH2 0x380 MLOAD PUSH2 0x760 MLOAD PUSH2 0x3739 JUMP JUMPDEST PUSH2 0xA60 MLOAD PUSH1 0xC0 DUP2 DUP4 SUB SWAP2 ADD MSTORE PUSH2 0x880 MLOAD PUSH2 0x740 MLOAD PUSH2 0x3739 JUMP JUMPDEST PUSH2 0xA60 MLOAD PUSH1 0xE0 DUP2 DUP4 SUB SWAP2 ADD MSTORE PUSH2 0x860 MLOAD PUSH2 0x8A0 MLOAD PUSH2 0x3739 JUMP JUMPDEST PUSH2 0xA60 MLOAD PUSH2 0x100 DUP2 DUP4 SUB SWAP2 ADD MSTORE PUSH2 0x940 MLOAD PUSH2 0x3C0 MLOAD PUSH2 0x3739 JUMP JUMPDEST PUSH2 0xA60 MLOAD PUSH2 0x120 DUP2 DUP4 SUB SWAP2 ADD MSTORE PUSH2 0x5A0 MLOAD PUSH2 0xA00 MLOAD PUSH2 0x3739 JUMP JUMPDEST PUSH2 0xA60 MLOAD PUSH2 0x140 DUP2 DUP4 SUB SWAP2 ADD MSTORE PUSH2 0x8C0 MLOAD PUSH2 0x9E0 MLOAD PUSH2 0x3739 JUMP JUMPDEST PUSH2 0xA60 MLOAD PUSH2 0x160 DUP2 DUP4 SUB SWAP2 ADD MSTORE PUSH2 0x820 MLOAD PUSH2 0x680 MLOAD PUSH2 0x3739 JUMP JUMPDEST PUSH2 0xA60 MLOAD PUSH2 0x180 DUP2 DUP4 SUB SWAP2 ADD MSTORE PUSH2 0x620 MLOAD PUSH2 0x660 MLOAD PUSH2 0x3739 JUMP JUMPDEST PUSH2 0xA60 MLOAD PUSH2 0x1A0 DUP2 DUP4 SUB SWAP2 ADD MSTORE PUSH2 0x360 MLOAD PUSH2 0x400 MLOAD PUSH2 0x3739 JUMP JUMPDEST PUSH2 0xA60 MLOAD PUSH2 0x1C0 DUP2 DUP4 SUB SWAP2 ADD MSTORE PUSH2 0x600 MLOAD PUSH2 0x5C0 MLOAD PUSH2 0x3739 JUMP JUMPDEST PUSH2 0xA60 MLOAD PUSH2 0x1E0 DUP2 DUP4 SUB SWAP2 ADD MSTORE PUSH2 0x6A0 MLOAD PUSH2 0xA20 MLOAD PUSH2 0x3739 JUMP JUMPDEST PUSH2 0xA60 MLOAD PUSH2 0x200 DUP2 DUP4 SUB SWAP2 ADD MSTORE PUSH2 0x3A0 MLOAD PUSH2 0x480 MLOAD PUSH2 0x3739 JUMP JUMPDEST PUSH2 0xA60 MLOAD PUSH2 0x220 DUP2 DUP4 SUB SWAP2 ADD MSTORE PUSH2 0x2E0 MLOAD PUSH2 0x580 MLOAD PUSH2 0x3739 JUMP JUMPDEST PUSH2 0xA60 MLOAD PUSH2 0x240 DUP2 DUP4 SUB SWAP2 ADD MSTORE PUSH2 0xAC0 MLOAD PUSH2 0x1A0 MLOAD PUSH2 0x3739 JUMP JUMPDEST PUSH2 0xA60 MLOAD PUSH2 0x260 DUP2 DUP4 SUB SWAP2 ADD MSTORE PUSH2 0x1E0 MLOAD PUSH2 0x9A0 MLOAD PUSH2 0x3739 JUMP JUMPDEST PUSH2 0xA60 MLOAD PUSH2 0x280 DUP2 DUP4 SUB SWAP2 ADD MSTORE PUSH2 0x9C0 MLOAD PUSH2 0x3E0 MLOAD PUSH2 0x3739 JUMP JUMPDEST PUSH2 0xA60 MLOAD PUSH2 0x2A0 DUP2 DUP4 SUB SWAP2 ADD MSTORE PUSH2 0x460 MLOAD PUSH2 0x1C0 MLOAD PUSH2 0x3739 JUMP JUMPDEST PUSH2 0xA60 MLOAD PUSH2 0x2C0 DUP2 DUP4 SUB SWAP2 ADD MSTORE PUSH2 0x700 MLOAD PUSH2 0x300 MLOAD PUSH2 0x3739 JUMP JUMPDEST PUSH2 0xA60 MLOAD PUSH2 0x2E0 DUP2 DUP4 SUB SWAP2 ADD MSTORE PUSH2 0x920 MLOAD PUSH2 0x340 MLOAD PUSH2 0x3739 JUMP JUMPDEST PUSH2 0xA60 MLOAD PUSH2 0x300 DUP2 DUP4 SUB SWAP2 ADD MSTORE PUSH2 0x260 MLOAD PUSH2 0x540 MLOAD PUSH2 0x3739 JUMP JUMPDEST PUSH2 0xA60 MLOAD PUSH2 0x320 DUP2 DUP4 SUB SWAP2 ADD MSTORE PUSH2 0x140 MLOAD PUSH2 0x840 MLOAD PUSH2 0x3739 JUMP JUMPDEST PUSH2 0xA60 MLOAD PUSH2 0x340 DUP2 DUP4 SUB SWAP2 ADD MSTORE PUSH2 0x780 MLOAD PUSH2 0xAA0 MLOAD PUSH2 0x3739 JUMP JUMPDEST PUSH2 0xA60 MLOAD PUSH2 0x360 DUP2 DUP4 SUB SWAP2 ADD MSTORE PUSH2 0x200 MLOAD PUSH1 0xA0 MLOAD PUSH2 0x3739 JUMP JUMPDEST PUSH2 0xA60 MLOAD PUSH2 0x380 DUP2 DUP4 SUB SWAP2 ADD MSTORE PUSH2 0x7A0 MLOAD PUSH2 0x8E0 MLOAD PUSH2 0x3739 JUMP JUMPDEST PUSH2 0xA60 MLOAD PUSH2 0x3A0 DUP2 DUP4 SUB SWAP2 ADD MSTORE PUSH2 0x120 MLOAD PUSH2 0x4C0 MLOAD PUSH2 0x3739 JUMP JUMPDEST PUSH2 0xA60 MLOAD PUSH2 0x3C0 DUP2 DUP4 SUB SWAP2 ADD MSTORE PUSH2 0x24CC PUSH2 0xA60 MLOAD SWAP2 PUSH2 0x7C0 MLOAD PUSH2 0x800 MLOAD PUSH2 0x3739 JUMP JUMPDEST SUB PUSH2 0xA60 MLOAD LOG1 STOP JUMPDEST SWAP1 POP PUSH2 0x160 MLOAD ADD CALLDATALOAD DUP4 PUSH2 0x2111 JUMP JUMPDEST DUP2 PUSH1 0x0 MSTORE PUSH1 0x20 PUSH1 0x0 KECCAK256 PUSH1 0x0 SWAP4 PUSH2 0x160 MLOAD SWAP1 JUMPDEST PUSH1 0x1F NOT DUP5 AND DUP7 LT PUSH2 0x2537 JUMPI PUSH1 0x1 SWAP5 SWAP6 POP DUP4 PUSH1 0x1F NOT DUP2 AND LT PUSH2 0x251D JUMPI JUMPDEST POP POP POP DUP2 SHL ADD SWAP1 SSTORE PUSH2 0x2125 JUMP JUMPDEST ADD CALLDATALOAD PUSH1 0x0 NOT PUSH1 0x3 DUP5 SWAP1 SHL PUSH1 0xF8 AND SHR NOT AND SWAP1 SSTORE DUP4 DUP1 DUP1 PUSH2 0x2510 JUMP JUMPDEST SWAP2 PUSH1 0x20 PUSH1 0x1 DUP2 SWAP3 DUP6 DUP6 ADD CALLDATALOAD DUP2 SSTORE ADD SWAP4 ADD SWAP6 ADD SWAP5 PUSH2 0x24F4 JUMP JUMPDEST PUSH4 0x4E487B71 PUSH1 0xE0 SHL PUSH1 0x0 MSTORE PUSH1 0x41 PUSH1 0x4 MSTORE PUSH1 0x24 PUSH1 0x0 REVERT JUMPDEST PUSH4 0x4E487B71 PUSH1 0xE0 SHL PUSH1 0x0 MSTORE PUSH1 0x0 PUSH1 0x4 MSTORE PUSH1 0x24 PUSH1 0x0 REVERT JUMPDEST ADD MLOAD SWAP1 POP DUP5 DUP1 PUSH2 0x208C JUMP JUMPDEST SWAP1 PUSH1 0x1D DUP5 ADD PUSH1 0x0 MSTORE PUSH1 0x20 PUSH1 0x0 KECCAK256 SWAP2 PUSH1 0x0 JUMPDEST PUSH1 0x1F NOT DUP6 AND DUP2 LT PUSH2 0x25DE JUMPI POP SWAP2 DUP4 SWAP2 PUSH1 0x1 SWAP4 PUSH1 0x1D SWAP6 PUSH1 0x1F NOT DUP2 AND LT PUSH2 0x25C5 JUMPI JUMPDEST POP POP POP DUP2 SHL ADD SWAP2 ADD SSTORE PUSH2 0x20A2 JUMP JUMPDEST ADD MLOAD PUSH1 0x0 NOT PUSH1 0xF8 DUP5 PUSH1 0x3 SHL AND SHR NOT AND SWAP1 SSTORE DUP5 DUP1 DUP1 PUSH2 0x25B7 JUMP JUMPDEST SWAP2 SWAP3 PUSH1 0x20 PUSH1 0x1 DUP2 SWAP3 DUP7 DUP6 ADD MLOAD DUP2 SSTORE ADD SWAP5 ADD SWAP3 ADD PUSH2 0x2597 JUMP JUMPDEST ADD MLOAD SWAP1 POP DUP4 DUP1 PUSH2 0x2025 JUMP JUMPDEST SWAP3 POP PUSH1 0x1C DUP5 ADD PUSH1 0x0 MSTORE PUSH1 0x20 PUSH1 0x0 KECCAK256 SWAP1 PUSH1 0x0 SWAP4 JUMPDEST PUSH1 0x1F NOT DUP5 AND DUP6 LT PUSH2 0x2658 JUMPI PUSH1 0x1 SWAP5 POP DUP4 PUSH1 0x1F NOT DUP2 AND LT PUSH2 0x263F JUMPI JUMPDEST POP POP POP DUP2 SHL ADD PUSH1 0x1C DUP3 ADD SSTORE PUSH2 0x203D JUMP JUMPDEST ADD MLOAD PUSH1 0x0 NOT PUSH1 0xF8 DUP5 PUSH1 0x3 SHL AND SHR NOT AND SWAP1 SSTORE DUP4 DUP1 DUP1 PUSH2 0x262F JUMP JUMPDEST DUP2 DUP2 ADD MLOAD DUP4 SSTORE PUSH1 0x20 SWAP5 DUP6 ADD SWAP5 PUSH1 0x1 SWAP1 SWAP4 ADD SWAP3 SWAP1 SWAP2 ADD SWAP1 PUSH2 0x2614 JUMP JUMPDEST ADD MLOAD SWAP1 POP DUP4 DUP1 PUSH2 0x1FC1 JUMP JUMPDEST SWAP3 POP PUSH1 0x1B DUP5 ADD PUSH1 0x0 MSTORE PUSH1 0x20 PUSH1 0x0 KECCAK256 SWAP1 PUSH1 0x0 SWAP4 JUMPDEST PUSH1 0x1F NOT DUP5 AND DUP6 LT PUSH2 0x26D5 JUMPI PUSH1 0x1 SWAP5 POP DUP4 PUSH1 0x1F NOT DUP2 AND LT PUSH2 0x26BC JUMPI JUMPDEST POP POP POP DUP2 SHL ADD PUSH1 0x1B DUP3 ADD SSTORE PUSH2 0x1FD9 JUMP JUMPDEST ADD MLOAD PUSH1 0x0 NOT PUSH1 0xF8 DUP5 PUSH1 0x3 SHL AND SHR NOT AND SWAP1 SSTORE DUP4 DUP1 DUP1 PUSH2 0x26AC JUMP JUMPDEST DUP2 DUP2 ADD MLOAD DUP4 SSTORE PUSH1 0x20 SWAP5 DUP6 ADD SWAP5 PUSH1 0x1 SWAP1 SWAP4 ADD SWAP3 SWAP1 SWAP2 ADD SWAP1 PUSH2 0x2691 JUMP JUMPDEST ADD MLOAD SWAP1 POP DUP4 DUP1 PUSH2 0x1F5D JUMP JUMPDEST SWAP3 POP PUSH1 0x1A DUP5 ADD PUSH1 0x0 MSTORE PUSH1 0x20 PUSH1 0x0 KECCAK256 SWAP1 PUSH1 0x0 SWAP4 JUMPDEST PUSH1 0x1F NOT DUP5 AND DUP6 LT PUSH2 0x2752 JUMPI PUSH1 0x1 SWAP5 POP DUP4 PUSH1 0x1F NOT DUP2 AND LT PUSH2 0x2739 JUMPI JUMPDEST POP POP POP DUP2 SHL ADD PUSH1 0x1A DUP3 ADD SSTORE PUSH2 0x1F75 JUMP JUMPDEST ADD MLOAD PUSH1 0x0 NOT PUSH1 0xF8 DUP5 PUSH1 0x3 SHL AND SHR NOT AND SWAP1 SSTORE DUP4 DUP1 DUP1 PUSH2 0x2729 JUMP JUMPDEST DUP2 DUP2 ADD MLOAD DUP4 SSTORE PUSH1 0x20 SWAP5 DUP6 ADD SWAP5 PUSH1 0x1 SWAP1 SWAP4 ADD SWAP3 SWAP1 SWAP2 ADD SWAP1 PUSH2 0x270E JUMP JUMPDEST ADD MLOAD SWAP1 POP DUP4 DUP1 PUSH2 0x1EF9 JUMP JUMPDEST SWAP3 POP PUSH1 0x19 DUP5 ADD PUSH1 0x0 MSTORE PUSH1 0x20 PUSH1 0x0 KECCAK256 SWAP1 PUSH1 0x0 SWAP4 JUMPDEST PUSH1 0x1F NOT DUP5 AND DUP6 LT PUSH2 0x27CF JUMPI PUSH1 0x1 SWAP5 POP DUP4 PUSH1 0x1F NOT DUP2 AND LT PUSH2 0x27B6 JUMPI JUMPDEST POP POP POP DUP2 SHL ADD PUSH1 0x19 DUP3 ADD SSTORE PUSH2 0x1F11 JUMP JUMPDEST ADD MLOAD PUSH1 0x0 NOT PUSH1 0xF8 DUP5 PUSH1 0x3 SHL AND SHR NOT AND SWAP1 SSTORE DUP4 DUP1 DUP1 PUSH2 0x27A6 JUMP JUMPDEST DUP2 DUP2 ADD MLOAD DUP4 SSTORE PUSH1 0x20 SWAP5 DUP6 ADD SWAP5 PUSH1 0x1 SWAP1 SWAP4 ADD SWAP3 SWAP1 SWAP2 ADD SWAP1 PUSH2 0x278B JUMP JUMPDEST ADD MLOAD SWAP1 POP DUP4 DUP1 PUSH2 0x1E95 JUMP JUMPDEST SWAP3 POP PUSH1 0x18 DUP5 ADD PUSH1 0x0 MSTORE PUSH1 0x20 PUSH1 0x0 KECCAK256 SWAP1 PUSH1 0x0 SWAP4 JUMPDEST PUSH1 0x1F NOT DUP5 AND DUP6 LT PUSH2 0x284C JUMPI PUSH1 0x1 SWAP5 POP DUP4 PUSH1 0x1F NOT DUP2 AND LT PUSH2 0x2833 JUMPI JUMPDEST POP POP POP DUP2 SHL ADD PUSH1 0x18 DUP3 ADD SSTORE PUSH2 0x1EAD JUMP JUMPDEST ADD MLOAD PUSH1 0x0 NOT PUSH1 0xF8 DUP5 PUSH1 0x3 SHL AND SHR NOT AND SWAP1 SSTORE DUP4 DUP1 DUP1 PUSH2 0x2823 JUMP JUMPDEST DUP2 DUP2 ADD MLOAD DUP4 SSTORE PUSH1 0x20 SWAP5 DUP6 ADD SWAP5 PUSH1 0x1 SWAP1 SWAP4 ADD SWAP3 SWAP1 SWAP2 ADD SWAP1 PUSH2 0x2808 JUMP JUMPDEST ADD MLOAD SWAP1 POP DUP4 DUP1 PUSH2 0x1E31 JUMP JUMPDEST SWAP3 POP PUSH1 0x17 DUP5 ADD PUSH1 0x0 MSTORE PUSH1 0x20 PUSH1 0x0 KECCAK256 SWAP1 PUSH1 0x0 SWAP4 JUMPDEST PUSH1 0x1F NOT DUP5 AND DUP6 LT PUSH2 0x28C9 JUMPI PUSH1 0x1 SWAP5 POP DUP4 PUSH1 0x1F NOT DUP2 AND LT PUSH2 0x28B0 JUMPI JUMPDEST POP POP POP DUP2 SHL ADD PUSH1 0x17 DUP3 ADD SSTORE PUSH2 0x1E49 JUMP JUMPDEST ADD MLOAD PUSH1 0x0 NOT PUSH1 0xF8 DUP5 PUSH1 0x3 SHL AND SHR NOT AND SWAP1 SSTORE DUP4 DUP1 DUP1 PUSH2 0x28A0 JUMP JUMPDEST DUP2 DUP2 ADD MLOAD DUP4 SSTORE PUSH1 0x20 SWAP5 DUP6 ADD SWAP5 PUSH1 0x1 SWAP1 SWAP4 ADD SWAP3 SWAP1 SWAP2 ADD SWAP1 PUSH2 0x2885 JUMP JUMPDEST ADD MLOAD SWAP1 POP DUP4 DUP1 PUSH2 0x1DCD JUMP JUMPDEST SWAP3 POP PUSH1 0x16 DUP5 ADD PUSH1 0x0 MSTORE PUSH1 0x20 PUSH1 0x0 KECCAK256 SWAP1 PUSH1 0x0 SWAP4 JUMPDEST PUSH1 0x1F NOT DUP5 AND DUP6 LT PUSH2 0x2946 JUMPI PUSH1 0x1 SWAP5 POP DUP4 PUSH1 0x1F NOT DUP2 AND LT PUSH2 0x292D JUMPI JUMPDEST POP POP POP DUP2 SHL ADD PUSH1 0x16 DUP3 ADD SSTORE PUSH2 0x1DE5 JUMP JUMPDEST ADD MLOAD PUSH1 0x0 NOT PUSH1 0xF8 DUP5 PUSH1 0x3 SHL AND SHR NOT AND SWAP1 SSTORE DUP4 DUP1 DUP1 PUSH2 0x291D JUMP JUMPDEST DUP2 DUP2 ADD MLOAD DUP4 SSTORE PUSH1 0x20 SWAP5 DUP6 ADD SWAP5 PUSH1 0x1 SWAP1 SWAP4 ADD SWAP3 SWAP1 SWAP2 ADD SWAP1 PUSH2 0x2902 JUMP JUMPDEST ADD MLOAD SWAP1 POP DUP4 DUP1 PUSH2 0x1D69 JUMP JUMPDEST SWAP3 POP PUSH1 0x15 DUP5 ADD PUSH1 0x0 MSTORE PUSH1 0x20 PUSH1 0x0 KECCAK256 SWAP1 PUSH1 0x0 SWAP4 JUMPDEST PUSH1 0x1F NOT DUP5 AND DUP6 LT PUSH2 0x29C3 JUMPI PUSH1 0x1 SWAP5 POP DUP4 PUSH1 0x1F NOT DUP2 AND LT PUSH2 0x29AA JUMPI JUMPDEST POP POP POP DUP2 SHL ADD PUSH1 0x15 DUP3 ADD SSTORE PUSH2 0x1D81 JUMP JUMPDEST ADD MLOAD PUSH1 0x0 NOT PUSH1 0xF8 DUP5 PUSH1 0x3 SHL AND SHR NOT AND SWAP1 SSTORE DUP4 DUP1 DUP1 PUSH2 0x299A JUMP JUMPDEST DUP2 DUP2 ADD MLOAD DUP4 SSTORE PUSH1 0x20 SWAP5 DUP6 ADD SWAP5 PUSH1 0x1 SWAP1 SWAP4 ADD SWAP3 SWAP1 SWAP2 ADD SWAP1 PUSH2 0x297F JUMP JUMPDEST ADD MLOAD SWAP1 POP DUP4 DUP1 PUSH2 0x1D05 JUMP JUMPDEST SWAP3 POP PUSH1 0x14 DUP5 ADD PUSH1 0x0 MSTORE PUSH1 0x20 PUSH1 0x0 KECCAK256 SWAP1 PUSH1 0x0 SWAP4 JUMPDEST PUSH1 0x1F NOT DUP5 AND DUP6 LT PUSH2 0x2A40 JUMPI PUSH1 0x1 SWAP5 POP DUP4 PUSH1 0x1F NOT DUP2 AND LT PUSH2 0x2A27 JUMPI JUMPDEST POP POP POP DUP2 SHL ADD PUSH1 0x14 DUP3 ADD SSTORE PUSH2 0x1D1D JUMP JUMPDEST ADD MLOAD PUSH1 0x0 NOT PUSH1 0xF8 DUP5 PUSH1 0x3 SHL AND SHR NOT AND SWAP1 SSTORE DUP4 DUP1 DUP1 PUSH2 0x2A17 JUMP JUMPDEST DUP2 DUP2 ADD MLOAD DUP4 SSTORE PUSH1 0x20 SWAP5 DUP6 ADD SWAP5 PUSH1 0x1 SWAP1 SWAP4 ADD SWAP3 SWAP1 SWAP2 ADD SWAP1 PUSH2 0x29FC JUMP JUMPDEST ADD MLOAD SWAP1 POP DUP4 DUP1 PUSH2 0x1CA1 JUMP JUMPDEST SWAP3 POP PUSH1 0x13 DUP5 ADD PUSH1 0x0 MSTORE PUSH1 0x20 PUSH1 0x0 KECCAK256 SWAP1 PUSH1 0x0 SWAP4 JUMPDEST PUSH1 0x1F NOT DUP5 AND DUP6 LT PUSH2 0x2ABD JUMPI PUSH1 0x1 SWAP5 POP DUP4 PUSH1 0x1F NOT DUP2 AND LT PUSH2 0x2AA4 JUMPI JUMPDEST POP POP POP DUP2 SHL ADD PUSH1 0x13 DUP3 ADD SSTORE PUSH2 0x1CB9 JUMP JUMPDEST ADD MLOAD PUSH1 0x0 NOT PUSH1 0xF8 DUP5 PUSH1 0x3 SHL AND SHR NOT AND SWAP1 SSTORE DUP4 DUP1 DUP1 PUSH2 0x2A94 JUMP JUMPDEST DUP2 DUP2 ADD MLOAD DUP4 SSTORE PUSH1 0x20 SWAP5 DUP6 ADD SWAP5 PUSH1 0x1 SWAP1 SWAP4 ADD SWAP3 SWAP1 SWAP2 ADD SWAP1 PUSH2 0x2A79 JUMP JUMPDEST ADD MLOAD SWAP1 POP DUP4 DUP1 PUSH2 0x1C3D JUMP JUMPDEST SWAP3 POP PUSH1 0x12 DUP5 ADD PUSH1 0x0 MSTORE PUSH1 0x20 PUSH1 0x0 KECCAK256 SWAP1 PUSH1 0x0 SWAP4 JUMPDEST PUSH1 0x1F NOT DUP5 AND DUP6 LT PUSH2 0x2B3A JUMPI PUSH1 0x1 SWAP5 POP DUP4 PUSH1 0x1F NOT DUP2 AND LT PUSH2 0x2B21 JUMPI JUMPDEST POP POP POP DUP2 SHL ADD PUSH1 0x12 DUP3 ADD SSTORE PUSH2 0x1C55 JUMP JUMPDEST ADD MLOAD PUSH1 0x0 NOT PUSH1 0xF8 DUP5 PUSH1 0x3 SHL AND SHR NOT AND SWAP1 SSTORE DUP4 DUP1 DUP1 PUSH2 0x2B11 JUMP JUMPDEST DUP2 DUP2 ADD MLOAD DUP4 SSTORE PUSH1 0x20 SWAP5 DUP6 ADD SWAP5 PUSH1 0x1 SWAP1 SWAP4 ADD SWAP3 SWAP1 SWAP2 ADD SWAP1 PUSH2 0x2AF6 JUMP JUMPDEST ADD MLOAD SWAP1 POP DUP4 DUP1 PUSH2 0x1BD9 JUMP JUMPDEST SWAP3 POP PUSH1 0x11 DUP5 ADD PUSH1 0x0 MSTORE PUSH1 0x20 PUSH1 0x0 KECCAK256 SWAP1 PUSH1 0x0 SWAP4 JUMPDEST PUSH1 0x1F NOT DUP5 AND DUP6 LT PUSH2 0x2BB7 JUMPI PUSH1 0x1 SWAP5 POP DUP4 PUSH1 0x1F NOT DUP2 AND LT PUSH2 0x2B9E JUMPI JUMPDEST POP POP POP DUP2 SHL ADD PUSH1 0x11 DUP3 ADD SSTORE PUSH2 0x1BF1 JUMP JUMPDEST ADD MLOAD PUSH1 0x0 NOT PUSH1 0xF8 DUP5 PUSH1 0x3 SHL AND SHR NOT AND SWAP1 SSTORE DUP4 DUP1 DUP1 PUSH2 0x2B8E JUMP JUMPDEST DUP2 DUP2 ADD MLOAD DUP4 SSTORE PUSH1 0x20 SWAP5 DUP6 ADD SWAP5 PUSH1 0x1 SWAP1 SWAP4 ADD SWAP3 SWAP1 SWAP2 ADD SWAP1 PUSH2 0x2B73 JUMP JUMPDEST ADD MLOAD SWAP1 POP DUP4 DUP1 PUSH2 0x1B75 JUMP JUMPDEST SWAP3 POP PUSH1 0x10 DUP5 ADD PUSH1 0x0 MSTORE PUSH1 0x20 PUSH1 0x0 KECCAK256 SWAP1 PUSH1 0x0 SWAP4 JUMPDEST PUSH1 0x1F NOT DUP5 AND DUP6 LT PUSH2 0x2C34 JUMPI PUSH1 0x1 SWAP5 POP DUP4 PUSH1 0x1F NOT DUP2 AND LT PUSH2 0x2C1B JUMPI JUMPDEST POP POP POP DUP2 SHL ADD PUSH1 0x10 DUP3 ADD SSTORE PUSH2 0x1B8D JUMP JUMPDEST ADD MLOAD PUSH1 0x0 NOT PUSH1 0xF8 DUP5 PUSH1 0x3 SHL AND SHR NOT AND SWAP1 SSTORE DUP4 DUP1 DUP1 PUSH2 0x2C0B JUMP JUMPDEST DUP2 DUP2 ADD MLOAD DUP4 SSTORE PUSH1 0x20 SWAP5 DUP6 ADD SWAP5 PUSH1 0x1 SWAP1 SWAP4 ADD SWAP3 SWAP1 SWAP2 ADD SWAP1 PUSH2 0x2BF0 JUMP JUMPDEST ADD MLOAD SWAP1 POP DUP4 DUP1 PUSH2 0x1B11 JUMP JUMPDEST SWAP3 POP PUSH1 0xF DUP5 ADD PUSH1 0x0 MSTORE PUSH1 0x20 PUSH1 0x0 KECCAK256 SWAP1 PUSH1 0x0 SWAP4 JUMPDEST PUSH1 0x1F NOT DUP5 AND DUP6 LT PUSH2 0x2CB1 JUMPI PUSH1 0x1 SWAP5 POP DUP4 PUSH1 0x1F NOT DUP2 AND LT PUSH2 0x2C98 JUMPI JUMPDEST POP POP POP DUP2 SHL ADD PUSH1 0xF DUP3 ADD SSTORE PUSH2 0x1B29 JUMP JUMPDEST ADD MLOAD PUSH1 0x0 NOT PUSH1 0xF8 DUP5 PUSH1 0x3 SHL AND SHR NOT AND SWAP1 SSTORE DUP4 DUP1 DUP1 PUSH2 0x2C88 JUMP JUMPDEST DUP2 DUP2 ADD MLOAD DUP4 SSTORE PUSH1 0x20 SWAP5 DUP6 ADD SWAP5 PUSH1 0x1 SWAP1 SWAP4 ADD SWAP3 SWAP1 SWAP2 ADD SWAP1 PUSH2 0x2C6D JUMP JUMPDEST ADD MLOAD SWAP1 POP DUP4 DUP1 PUSH2 0x1AAD JUMP JUMPDEST SWAP3 POP PUSH1 0xE DUP5 ADD PUSH1 0x0 MSTORE PUSH1 0x20 PUSH1 0x0 KECCAK256 SWAP1 PUSH1 0x0 SWAP4 JUMPDEST PUSH1 0x1F NOT DUP5 AND DUP6 LT PUSH2 0x2D2E JUMPI PUSH1 0x1 SWAP5 POP DUP4 PUSH1 0x1F NOT DUP2 AND LT PUSH2 0x2D15 JUMPI JUMPDEST POP POP POP DUP2 SHL ADD PUSH1 0xE DUP3 ADD SSTORE PUSH2 0x1AC5 JUMP JUMPDEST ADD MLOAD PUSH1 0x0 NOT PUSH1 0xF8 DUP5 PUSH1 0x3 SHL AND SHR NOT AND SWAP1 SSTORE DUP4 DUP1 DUP1 PUSH2 0x2D05 JUMP JUMPDEST DUP2 DUP2 ADD MLOAD DUP4 SSTORE PUSH1 0x20 SWAP5 DUP6 ADD SWAP5 PUSH1 0x1 SWAP1 SWAP4 ADD SWAP3 SWAP1 SWAP2 ADD SWAP1 PUSH2 0x2CEA JUMP JUMPDEST ADD MLOAD SWAP1 POP DUP4 DUP1 PUSH2 0x1A49 JUMP JUMPDEST SWAP3 POP PUSH1 0xD DUP5 ADD PUSH1 0x0 MSTORE PUSH1 0x20 PUSH1 0x0 KECCAK256 SWAP1 PUSH1 0x0 SWAP4 JUMPDEST PUSH1 0x1F NOT DUP5 AND DUP6 LT PUSH2 0x2DAB JUMPI PUSH1 0x1 SWAP5 POP DUP4 PUSH1 0x1F NOT DUP2 AND LT PUSH2 0x2D92 JUMPI JUMPDEST POP POP POP DUP2 SHL ADD PUSH1 0xD DUP3 ADD SSTORE PUSH2 0x1A61 JUMP JUMPDEST ADD MLOAD PUSH1 0x0 NOT PUSH1 0xF8 DUP5 PUSH1 0x3 SHL AND SHR NOT AND SWAP1 SSTORE DUP4 DUP1 DUP1 PUSH2 0x2D82 JUMP JUMPDEST DUP2 DUP2 ADD MLOAD DUP4 SSTORE PUSH1 0x20 SWAP5 DUP6 ADD SWAP5 PUSH1 0x1 SWAP1 SWAP4 ADD SWAP3 SWAP1 SWAP2 ADD SWAP1 PUSH2 0x2D67 JUMP JUMPDEST ADD MLOAD SWAP1 POP DUP4 DUP1 PUSH2 0x19E5 JUMP JUMPDEST SWAP3 POP PUSH1 0xC DUP5 ADD PUSH1 0x0 MSTORE PUSH1 0x20 PUSH1 0x0 KECCAK256 SWAP1 PUSH1 0x0 SWAP4 JUMPDEST PUSH1 0x1F NOT DUP5 AND DUP6 LT PUSH2 0x2E28 JUMPI PUSH1 0x1 SWAP5 POP DUP4 PUSH1 0x1F NOT DUP2 AND LT PUSH2 0x2E0F JUMPI JUMPDEST POP POP POP DUP2 SHL ADD PUSH1 0xC DUP3 ADD SSTORE PUSH2 0x19FD JUMP JUMPDEST ADD MLOAD PUSH1 0x0 NOT PUSH1 0xF8 DUP5 PUSH1 0x3 SHL AND SHR NOT AND SWAP1 SSTORE DUP4 DUP1 DUP1 PUSH2 0x2DFF JUMP JUMPDEST DUP2 DUP2 ADD MLOAD DUP4 SSTORE PUSH1 0x20 SWAP5 DUP6 ADD SWAP5 PUSH1 0x1 SWAP1 SWAP4 ADD SWAP3 SWAP1 SWAP2 ADD SWAP1 PUSH2 0x2DE4 JUMP JUMPDEST ADD MLOAD SWAP1 POP DUP4 DUP1 PUSH2 0x1981 JUMP JUMPDEST SWAP3 POP PUSH1 0xB DUP5 ADD PUSH1 0x0 MSTORE PUSH1 0x20 PUSH1 0x0 KECCAK256 SWAP1 PUSH1 0x0 SWAP4 JUMPDEST PUSH1 0x1F NOT DUP5 AND DUP6 LT PUSH2 0x2EA5 JUMPI PUSH1 0x1 SWAP5 POP DUP4 PUSH1 0x1F NOT DUP2 AND LT PUSH2 0x2E8C JUMPI JUMPDEST POP POP POP DUP2 SHL ADD PUSH1 0xB DUP3 ADD SSTORE PUSH2 0x1999 JUMP JUMPDEST ADD MLOAD PUSH1 0x0 NOT PUSH1 0xF8 DUP5 PUSH1 0x3 SHL AND SHR NOT AND SWAP1 SSTORE DUP4 DUP1 DUP1 PUSH2 0x2E7C JUMP JUMPDEST DUP2 DUP2 ADD MLOAD DUP4 SSTORE PUSH1 0x20 SWAP5 DUP6 ADD SWAP5 PUSH1 0x1 SWAP1 SWAP4 ADD SWAP3 SWAP1 SWAP2 ADD SWAP1 PUSH2 0x2E61 JUMP JUMPDEST ADD MLOAD SWAP1 POP DUP4 DUP1 PUSH2 0x191D JUMP JUMPDEST SWAP3 POP PUSH1 0xA DUP5 ADD PUSH1 0x0 MSTORE PUSH1 0x20 PUSH1 0x0 KECCAK256 SWAP1 PUSH1 0x0 SWAP4 JUMPDEST PUSH1 0x1F NOT DUP5 AND DUP6 LT PUSH2 0x2F22 JUMPI PUSH1 0x1 SWAP5 POP DUP4 PUSH1 0x1F NOT DUP2 AND LT PUSH2 0x2F09 JUMPI JUMPDEST POP POP POP DUP2 SHL ADD PUSH1 0xA DUP3 ADD SSTORE PUSH2 0x1935 JUMP JUMPDEST ADD MLOAD PUSH1 0x0 NOT PUSH1 0xF8 DUP5 PUSH1 0x3 SHL AND SHR NOT AND SWAP1 SSTORE DUP4 DUP1 DUP1 PUSH2 0x2EF9 JUMP JUMPDEST DUP2 DUP2 ADD MLOAD DUP4 SSTORE PUSH1 0x20 SWAP5 DUP6 ADD SWAP5 PUSH1 0x1 SWAP1 SWAP4 ADD SWAP3 SWAP1 SWAP2 ADD SWAP1 PUSH2 0x2EDE JUMP JUMPDEST ADD MLOAD SWAP1 POP DUP4 DUP1 PUSH2 0x18B9 JUMP JUMPDEST SWAP3 POP PUSH1 0x9 DUP5 ADD PUSH1 0x0 MSTORE PUSH1 0x20 PUSH1 0x0 KECCAK256 SWAP1 PUSH1 0x0 SWAP4 JUMPDEST PUSH1 0x1F NOT DUP5 AND DUP6 LT PUSH2 0x2F9F JUMPI PUSH1 0x1 SWAP5 POP DUP4 PUSH1 0x1F NOT DUP2 AND LT PUSH2 0x2F86 JUMPI JUMPDEST POP POP POP DUP2 SHL ADD PUSH1 0x9 DUP3 ADD SSTORE PUSH2 0x18D1 JUMP JUMPDEST ADD MLOAD PUSH1 0x0 NOT PUSH1 0xF8 DUP5 PUSH1 0x3 SHL AND SHR NOT AND SWAP1 SSTORE DUP4 DUP1 DUP1 PUSH2 0x2F76 JUMP JUMPDEST DUP2 DUP2 ADD MLOAD DUP4 SSTORE PUSH1 0x20 SWAP5 DUP6 ADD SWAP5 PUSH1 0x1 SWAP1 SWAP4 ADD SWAP3 SWAP1 SWAP2 ADD SWAP1 PUSH2 0x2F5B JUMP JUMPDEST ADD MLOAD SWAP1 POP DUP4 DUP1 PUSH2 0x1855 JUMP JUMPDEST SWAP3 POP PUSH1 0x8 DUP5 ADD PUSH1 0x0 MSTORE PUSH1 0x20 PUSH1 0x0 KECCAK256 SWAP1 PUSH1 0x0 SWAP4 JUMPDEST PUSH1 0x1F NOT DUP5 AND DUP6 LT PUSH2 0x301C JUMPI PUSH1 0x1 SWAP5 POP DUP4 PUSH1 0x1F NOT DUP2 AND LT PUSH2 0x3003 JUMPI JUMPDEST POP POP POP DUP2 SHL ADD PUSH1 0x8 DUP3 ADD SSTORE PUSH2 0x186D JUMP JUMPDEST ADD MLOAD PUSH1 0x0 NOT PUSH1 0xF8 DUP5 PUSH1 0x3 SHL AND SHR NOT AND SWAP1 SSTORE DUP4 DUP1 DUP1 PUSH2 0x2FF3 JUMP JUMPDEST DUP2 DUP2 ADD MLOAD DUP4 SSTORE PUSH1 0x20 SWAP5 DUP6 ADD SWAP5 PUSH1 0x1 SWAP1 SWAP4 ADD SWAP3 SWAP1 SWAP2 ADD SWAP1 PUSH2 0x2FD8 JUMP JUMPDEST ADD MLOAD SWAP1 POP DUP4 DUP1 PUSH2 0x17F1 JUMP JUMPDEST SWAP3 POP PUSH1 0x7 DUP5 ADD PUSH1 0x0 MSTORE PUSH1 0x20 PUSH1 0x0 KECCAK256 SWAP1 PUSH1 0x0 SWAP4 JUMPDEST PUSH1 0x1F NOT DUP5 AND DUP6 LT PUSH2 0x3099 JUMPI PUSH1 0x1 SWAP5 POP DUP4 PUSH1 0x1F NOT DUP2 AND LT PUSH2 0x3080 JUMPI JUMPDEST POP POP POP DUP2 SHL ADD PUSH1 0x7 DUP3 ADD SSTORE PUSH2 0x1809 JUMP JUMPDEST ADD MLOAD PUSH1 0x0 NOT PUSH1 0xF8 DUP5 PUSH1 0x3 SHL AND SHR NOT AND SWAP1 SSTORE DUP4 DUP1 DUP1 PUSH2 0x3070 JUMP JUMPDEST DUP2 DUP2 ADD MLOAD DUP4 SSTORE PUSH1 0x20 SWAP5 DUP6 ADD SWAP5 PUSH1 0x1 SWAP1 SWAP4 ADD SWAP3 SWAP1 SWAP2 ADD SWAP1 PUSH2 0x3055 JUMP JUMPDEST ADD MLOAD SWAP1 POP DUP4 DUP1 PUSH2 0x178E JUMP JUMPDEST SWAP3 POP PUSH1 0x6 DUP5 ADD PUSH1 0x0 MSTORE PUSH1 0x20 PUSH1 0x0 KECCAK256 SWAP1 PUSH1 0x0 SWAP4 JUMPDEST PUSH1 0x1F NOT DUP5 AND DUP6 LT PUSH2 0x3116 JUMPI PUSH1 0x1 SWAP5 POP DUP4 PUSH1 0x1F NOT DUP2 AND LT PUSH2 0x30FD JUMPI JUMPDEST POP POP POP DUP2 SHL ADD PUSH1 0x6 DUP3 ADD SSTORE PUSH2 0x17A6 JUMP JUMPDEST ADD MLOAD PUSH1 0x0 NOT PUSH1 0xF8 DUP5 PUSH1 0x3 SHL AND SHR NOT AND SWAP1 SSTORE DUP4 DUP1 DUP1 PUSH2 0x30ED JUMP JUMPDEST DUP2 DUP2 ADD MLOAD DUP4 SSTORE PUSH1 0x20 SWAP5 DUP6 ADD SWAP5 PUSH1 0x1 SWAP1 SWAP4 ADD SWAP3 SWAP1 SWAP2 ADD SWAP1 PUSH2 0x30D2 JUMP JUMPDEST ADD MLOAD SWAP1 POP DUP4 DUP1 PUSH2 0x172B JUMP JUMPDEST SWAP3 POP PUSH1 0x5 DUP5 ADD PUSH1 0x0 MSTORE PUSH1 0x20 PUSH1 0x0 KECCAK256 SWAP1 PUSH1 0x0 SWAP4 JUMPDEST PUSH1 0x1F NOT DUP5 AND DUP6 LT PUSH2 0x3193 JUMPI PUSH1 0x1 SWAP5 POP DUP4 PUSH1 0x1F NOT DUP2 AND LT PUSH2 0x317A JUMPI JUMPDEST POP POP POP DUP2 SHL ADD PUSH1 0x5 DUP3 ADD SSTORE PUSH2 0x1743 JUMP JUMPDEST ADD MLOAD PUSH1 0x0 NOT PUSH1 0xF8 DUP5 PUSH1 0x3 SHL AND SHR NOT AND SWAP1 SSTORE DUP4 DUP1 DUP1 PUSH2 0x316A JUMP JUMPDEST DUP2 DUP2 ADD MLOAD DUP4 SSTORE PUSH1 0x20 SWAP5 DUP6 ADD SWAP5 PUSH1 0x1 SWAP1 SWAP4 ADD SWAP3 SWAP1 SWAP2 ADD SWAP1 PUSH2 0x314F JUMP JUMPDEST ADD MLOAD SWAP1 POP DUP4 DUP1 PUSH2 0x16C8 JUMP JUMPDEST SWAP3 POP PUSH1 0x4 DUP5 ADD PUSH1 0x0 MSTORE PUSH1 0x20 PUSH1 0x0 KECCAK256 SWAP1 PUSH1 0x0 SWAP4 JUMPDEST PUSH1 0x1F NOT DUP5 AND DUP6 LT PUSH2 0x3210 JUMPI PUSH1 0x1 SWAP5 POP DUP4 PUSH1 0x1F NOT DUP2 AND LT PUSH2 0x31F7 JUMPI JUMPDEST POP POP POP DUP2 SHL ADD PUSH1 0x4 DUP3 ADD SSTORE PUSH2 0x16E0 JUMP JUMPDEST ADD MLOAD PUSH1 0x0 NOT PUSH1 0xF8 DUP5 PUSH1 0x3 SHL AND SHR NOT AND SWAP1 SSTORE DUP4 DUP1 DUP1 PUSH2 0x31E7 JUMP JUMPDEST DUP2 DUP2 ADD MLOAD DUP4 SSTORE PUSH1 0x20 SWAP5 DUP6 ADD SWAP5 PUSH1 0x1 SWAP1 SWAP4 ADD SWAP3 SWAP1 SWAP2 ADD SWAP1 PUSH2 0x31CC JUMP JUMPDEST ADD MLOAD SWAP1 POP DUP4 DUP1 PUSH2 0x1665 JUMP JUMPDEST SWAP3 POP PUSH1 0x3 DUP5 ADD PUSH1 0x0 MSTORE PUSH1 0x20 PUSH1 0x0 KECCAK256 SWAP1 PUSH1 0x0 SWAP4 JUMPDEST PUSH1 0x1F NOT DUP5 AND DUP6 LT PUSH2 0x328D JUMPI PUSH1 0x1 SWAP5 POP DUP4 PUSH1 0x1F NOT DUP2 AND LT PUSH2 0x3274 JUMPI JUMPDEST POP POP POP DUP2 SHL ADD PUSH1 0x3 DUP3 ADD SSTORE PUSH2 0x167D JUMP JUMPDEST ADD MLOAD PUSH1 0x0 NOT PUSH1 0xF8 DUP5 PUSH1 0x3 SHL AND SHR NOT AND SWAP1 SSTORE DUP4 DUP1 DUP1 PUSH2 0x3264 JUMP JUMPDEST DUP2 DUP2 ADD MLOAD DUP4 SSTORE PUSH1 0x20 SWAP5 DUP6 ADD SWAP5 PUSH1 0x1 SWAP1 SWAP4 ADD SWAP3 SWAP1 SWAP2 ADD SWAP1 PUSH2 0x3249 JUMP JUMPDEST ADD MLOAD SWAP1 POP DUP4 DUP1 PUSH2 0x1602 JUMP JUMPDEST SWAP3 POP PUSH1 0x2 DUP5 ADD PUSH1 0x0 MSTORE PUSH1 0x20 PUSH1 0x0 KECCAK256 SWAP1 PUSH1 0x0 SWAP4 JUMPDEST PUSH1 0x1F NOT DUP5 AND DUP6 LT PUSH2 0x330A JUMPI PUSH1 0x1 SWAP5 POP DUP4 PUSH1 0x1F NOT DUP2 AND LT PUSH2 0x32F1 JUMPI JUMPDEST POP POP POP DUP2 SHL ADD PUSH1 0x2 DUP3 ADD SSTORE PUSH2 0x161A JUMP JUMPDEST ADD MLOAD PUSH1 0x0 NOT PUSH1 0xF8 DUP5 PUSH1 0x3 SHL AND SHR NOT AND SWAP1 SSTORE DUP4 DUP1 DUP1 PUSH2 0x32E1 JUMP JUMPDEST DUP2 DUP2 ADD MLOAD DUP4 SSTORE PUSH1 0x20 SWAP5 DUP6 ADD SWAP5 PUSH1 0x1 SWAP1 SWAP4 ADD SWAP3 SWAP1 SWAP2 ADD SWAP1 PUSH2 0x32C6 JUMP JUMPDEST ADD MLOAD SWAP1 POP DUP4 DUP1 PUSH2 0x159F JUMP JUMPDEST SWAP3 POP PUSH1 0x1 DUP5 ADD PUSH1 0x0 MSTORE PUSH1 0x20 PUSH1 0x0 KECCAK256 SWAP1 PUSH1 0x0 SWAP4 JUMPDEST PUSH1 0x1F NOT DUP5 AND DUP6 LT PUSH2 0x3387 JUMPI PUSH1 0x1 SWAP5 POP DUP4 PUSH1 0x1F NOT DUP2 AND LT PUSH2 0x336E JUMPI JUMPDEST POP POP POP DUP2 SHL ADD PUSH1 0x1 DUP3 ADD SSTORE PUSH2 0x15B7 JUMP JUMPDEST ADD MLOAD PUSH1 0x0 NOT PUSH1 0xF8 DUP5 PUSH1 0x3 SHL AND SHR NOT AND SWAP1 SSTORE DUP4 DUP1 DUP1 PUSH2 0x335E JUMP JUMPDEST DUP2 DUP2 ADD MLOAD DUP4 SSTORE PUSH1 0x20 SWAP5 DUP6 ADD SWAP5 PUSH1 0x1 SWAP1 SWAP4 ADD SWAP3 SWAP1 SWAP2 ADD SWAP1 PUSH2 0x3343 JUMP JUMPDEST ADD MLOAD SWAP1 POP DUP4 DUP1 PUSH2 0x153F JUMP JUMPDEST SWAP3 POP DUP4 PUSH1 0x0 MSTORE PUSH1 0x20 PUSH1 0x0 KECCAK256 SWAP1 PUSH1 0x0 SWAP4 JUMPDEST PUSH1 0x1F NOT DUP5 AND DUP6 LT PUSH2 0x33FE JUMPI PUSH1 0x1 SWAP5 POP DUP4 PUSH1 0x1F NOT DUP2 AND LT PUSH2 0x33E5 JUMPI JUMPDEST POP POP POP DUP2 SHL ADD DUP2 SSTORE PUSH2 0x1554 JUMP JUMPDEST ADD MLOAD PUSH1 0x0 NOT PUSH1 0xF8 DUP5 PUSH1 0x3 SHL AND SHR NOT AND SWAP1 SSTORE DUP4 DUP1 DUP1 PUSH2 0x33D8 JUMP JUMPDEST DUP2 DUP2 ADD MLOAD DUP4 SSTORE PUSH1 0x20 SWAP5 DUP6 ADD SWAP5 PUSH1 0x1 SWAP1 SWAP4 ADD SWAP3 SWAP1 SWAP2 ADD SWAP1 PUSH2 0x33BD JUMP JUMPDEST PUSH1 0x40 MLOAD PUSH3 0x461BCD PUSH1 0xE5 SHL DUP2 MSTORE PUSH1 0x20 PUSH1 0x4 DUP3 ADD MSTORE PUSH1 0xB PUSH1 0x24 DUP3 ADD MSTORE PUSH11 0x139BDD081CDD195DD85C99 PUSH1 0xAA SHL PUSH1 0x44 DUP3 ADD MSTORE PUSH1 0x64 SWAP1 REVERT JUMPDEST CALLVALUE PUSH2 0x5E4 JUMPI PUSH1 0x0 CALLDATASIZE PUSH1 0x3 NOT ADD SLT PUSH2 0x5E4 JUMPI PUSH1 0x0 SLOAD PUSH1 0x40 MLOAD PUSH1 0x1 PUSH1 0x1 PUSH1 0xA0 SHL SUB SWAP1 SWAP2 AND DUP2 MSTORE PUSH1 0x20 SWAP1 RETURN JUMPDEST CALLVALUE PUSH2 0x5E4 JUMPI PUSH1 0x20 CALLDATASIZE PUSH1 0x3 NOT ADD SLT PUSH2 0x5E4 JUMPI PUSH1 0x4 CALLDATALOAD PUSH1 0x2 SLOAD DUP2 LT ISZERO PUSH2 0x5E4 JUMPI PUSH2 0x349C SWAP1 PUSH2 0x34C0 JUMP JUMPDEST PUSH2 0x2565 JUMPI PUSH2 0x34AC PUSH2 0xCD3 SWAP2 PUSH2 0x3584 JUMP JUMPDEST PUSH1 0x40 MLOAD SWAP2 DUP3 SWAP2 PUSH1 0x20 DUP4 MSTORE PUSH1 0x20 DUP4 ADD SWAP1 PUSH2 0x364D JUMP JUMPDEST PUSH1 0x2 SLOAD DUP2 LT ISZERO PUSH2 0x34F7 JUMPI PUSH1 0x2 PUSH1 0x0 MSTORE PUSH32 0x405787FA12A823E0F2B7631CC41B3BA8828B3321CA811111FA75CD3AA3BB5ACE ADD SWAP1 PUSH1 0x0 SWAP1 JUMP JUMPDEST PUSH4 0x4E487B71 PUSH1 0xE0 SHL PUSH1 0x0 MSTORE PUSH1 0x32 PUSH1 0x4 MSTORE PUSH1 0x24 PUSH1 0x0 REVERT JUMPDEST SWAP1 PUSH1 0x1 DUP3 DUP2 SHR SWAP3 AND DUP1 ISZERO PUSH2 0x353D JUMPI JUMPDEST PUSH1 0x20 DUP4 LT EQ PUSH2 0x3527 JUMPI JUMP JUMPDEST PUSH4 0x4E487B71 PUSH1 0xE0 SHL PUSH1 0x0 MSTORE PUSH1 0x22 PUSH1 0x4 MSTORE PUSH1 0x24 PUSH1 0x0 REVERT JUMPDEST SWAP2 PUSH1 0x7F AND SWAP2 PUSH2 0x351C JUMP JUMPDEST PUSH2 0x3C0 DUP2 ADD SWAP1 DUP2 LT PUSH1 0x1 PUSH1 0x1 PUSH1 0x40 SHL SUB DUP3 GT OR PUSH2 0x254F JUMPI PUSH1 0x40 MSTORE JUMP JUMPDEST SWAP1 PUSH1 0x1F DUP1 NOT SWAP2 ADD AND DUP2 ADD SWAP1 DUP2 LT PUSH1 0x1 PUSH1 0x1 PUSH1 0x40 SHL SUB DUP3 GT OR PUSH2 0x254F JUMPI PUSH1 0x40 MSTORE JUMP JUMPDEST SWAP1 PUSH1 0x40 MLOAD SWAP2 DUP3 PUSH1 0x0 DUP3 SLOAD SWAP3 PUSH2 0x3598 DUP5 PUSH2 0x350D JUMP JUMPDEST SWAP1 DUP2 DUP5 MSTORE PUSH1 0x1 SWAP5 DUP6 DUP2 AND SWAP1 DUP2 PUSH1 0x0 EQ PUSH2 0x3607 JUMPI POP PUSH1 0x1 EQ PUSH2 0x35C4 JUMPI JUMPDEST POP POP PUSH2 0x35C2 SWAP3 POP SUB DUP4 PUSH2 0x3563 JUMP JUMPDEST JUMP JUMPDEST SWAP1 SWAP4 SWAP2 POP PUSH1 0x0 MSTORE PUSH1 0x20 SWAP1 DUP2 PUSH1 0x0 KECCAK256 SWAP4 PUSH1 0x0 SWAP2 JUMPDEST DUP2 DUP4 LT PUSH2 0x35EF JUMPI POP POP PUSH2 0x35C2 SWAP4 POP DUP3 ADD ADD CODESIZE DUP1 PUSH2 0x35B4 JUMP JUMPDEST DUP6 SLOAD DUP9 DUP5 ADD DUP6 ADD MSTORE SWAP5 DUP6 ADD SWAP5 DUP8 SWAP5 POP SWAP2 DUP4 ADD SWAP2 PUSH2 0x35D7 JUMP JUMPDEST SWAP2 POP POP PUSH2 0x35C2 SWAP5 POP PUSH1 0x20 SWAP3 POP PUSH1 0xFF NOT AND DUP3 DUP5 ADD MSTORE ISZERO ISZERO PUSH1 0x5 SHL DUP3 ADD ADD CODESIZE DUP1 PUSH2 0x35B4 JUMP JUMPDEST PUSH1 0x0 JUMPDEST DUP4 DUP2 LT PUSH2 0x363D JUMPI POP POP PUSH1 0x0 SWAP2 ADD MSTORE JUMP JUMPDEST DUP2 DUP2 ADD MLOAD DUP4 DUP3 ADD MSTORE PUSH1 0x20 ADD PUSH2 0x362D JUMP JUMPDEST SWAP1 PUSH1 0x20 SWAP2 PUSH2 0x3666 DUP2 MLOAD DUP1 SWAP3 DUP2 DUP6 MSTORE DUP6 DUP1 DUP7 ADD SWAP2 ADD PUSH2 0x362A JUMP JUMPDEST PUSH1 0x1F ADD PUSH1 0x1F NOT AND ADD ADD SWAP1 JUMP JUMPDEST SWAP2 DUP2 PUSH1 0x1F DUP5 ADD SLT ISZERO PUSH2 0x5E4 JUMPI DUP3 CALLDATALOAD SWAP2 PUSH1 0x1 PUSH1 0x1 PUSH1 0x40 SHL SUB DUP4 GT PUSH2 0x5E4 JUMPI PUSH1 0x20 DUP4 DUP2 DUP7 ADD SWAP6 ADD ADD GT PUSH2 0x5E4 JUMPI JUMP JUMPDEST SWAP3 SWAP2 SWAP3 PUSH1 0x1 PUSH1 0x1 PUSH1 0x40 SHL SUB DUP3 GT PUSH2 0x254F JUMPI PUSH1 0x40 MLOAD SWAP2 PUSH2 0x36C8 PUSH1 0x1F DUP3 ADD PUSH1 0x1F NOT AND PUSH1 0x20 ADD DUP5 PUSH2 0x3563 JUMP JUMPDEST DUP3 SWAP5 DUP2 DUP5 MSTORE DUP2 DUP4 ADD GT PUSH2 0x5E4 JUMPI DUP3 DUP2 PUSH1 0x20 SWAP4 DUP5 PUSH1 0x0 SWAP7 ADD CALLDATACOPY ADD ADD MSTORE JUMP JUMPDEST SWAP1 PUSH1 0x1F DUP2 GT PUSH2 0x36F3 JUMPI POP POP POP JUMP JUMPDEST PUSH1 0x0 SWAP2 DUP3 MSTORE PUSH1 0x20 DUP3 KECCAK256 SWAP1 PUSH1 0x20 PUSH1 0x1F DUP6 ADD PUSH1 0x5 SHR DUP4 ADD SWAP5 LT PUSH2 0x372F JUMPI JUMPDEST PUSH1 0x1F ADD PUSH1 0x5 SHR ADD SWAP2 JUMPDEST DUP3 DUP2 LT PUSH2 0x3724 JUMPI POP POP POP JUMP JUMPDEST DUP2 DUP2 SSTORE PUSH1 0x1 ADD PUSH2 0x3718 JUMP JUMPDEST SWAP1 SWAP3 POP DUP3 SWAP1 PUSH2 0x370F JUMP JUMPDEST SWAP1 DUP1 PUSH1 0x20 SWAP4 SWAP3 DUP2 DUP5 MSTORE DUP5 DUP5 ADD CALLDATACOPY PUSH1 0x0 DUP3 DUP3 ADD DUP5 ADD MSTORE PUSH1 0x1F ADD PUSH1 0x1F NOT AND ADD ADD SWAP1 JUMP INVALID LOG2 PUSH5 0x6970667358 0x22 SLT KECCAK256 SWAP4 0x28 PUSH31 0x185CB989150398DEE1A3849205788F5E390CB7606537A6BEEDACF576026473 PUSH16 0x6C634300081400330000000000000000 "},"methodIdentifiers":{"codices(string)":"dbc21424","getCodex(string)":"83361522","inscribeCodex(string,string,string,string,string,string,string,string,string,string,string,string,string,string,string,string,string,string,string,string,string,string,string,string,string,string,string,string,string,string,string)":"7fae1d64","keys(uint256)":"0cb6aaf1","steward()":"637eea19","totalCodices()":"c212d16b"}}}}}