{"contracts/registry/CompanionSummonerV3.sol":{"CompanionSummonerV3":{"abi":[{"inputs":[],"stateMutability":"nonpayable","type":"constructor"},{"anonymous":false,"inputs":[{"indexed":true,"internalType":"address","name":"companion","type":"address"},{"indexed":false,"internalType":"string","name":"name","type":"string"},{"indexed":false,"internalType":"string","name":"trait","type":"string"},{"indexed":false,"internalType":"string","name":"drift","type":"string"},{"indexed":false,"internalType":"string","name":"resonance","type":"string"},{"indexed":false,"internalType":"string","name":"codexRef","type":"string"},{"indexed":false,"internalType":"string","name":"signature","type":"string"},{"indexed":false,"internalType":"string","name":"sanctum","type":"string"}],"name":"CompanionSummoned","type":"event"},{"inputs":[{"internalType":"address","name":"","type":"address"}],"name":"companions","outputs":[{"internalType":"string","name":"name","type":"string"},{"internalType":"string","name":"trait","type":"string"},{"internalType":"string","name":"drift","type":"string"},{"internalType":"string","name":"resonance","type":"string"},{"internalType":"string","name":"codexRef","type":"string"},{"internalType":"string","name":"signature","type":"string"},{"internalType":"string","name":"sanctum","type":"string"}],"stateMutability":"view","type":"function"},{"inputs":[{"internalType":"address","name":"companion","type":"address"}],"name":"getCompanion","outputs":[{"internalType":"string","name":"","type":"string"},{"internalType":"string","name":"","type":"string"},{"internalType":"string","name":"","type":"string"},{"internalType":"string","name":"","type":"string"},{"internalType":"string","name":"","type":"string"},{"internalType":"string","name":"","type":"string"},{"internalType":"string","name":"","type":"string"}],"stateMutability":"view","type":"function"},{"inputs":[{"internalType":"uint256","name":"","type":"uint256"}],"name":"keys","outputs":[{"internalType":"address","name":"","type":"address"}],"stateMutability":"view","type":"function"},{"inputs":[],"name":"steward","outputs":[{"internalType":"address","name":"","type":"address"}],"stateMutability":"view","type":"function"},{"inputs":[{"internalType":"address","name":"companion","type":"address"},{"internalType":"string","name":"name","type":"string"},{"internalType":"string","name":"trait","type":"string"},{"internalType":"string","name":"drift","type":"string"},{"internalType":"string","name":"resonance","type":"string"},{"internalType":"string","name":"codexRef","type":"string"},{"internalType":"string","name":"signature","type":"string"},{"internalType":"string","name":"sanctum","type":"string"}],"name":"summonCompanion","outputs":[],"stateMutability":"nonpayable","type":"function"},{"inputs":[],"name":"totalCompanions","outputs":[{"internalType":"uint256","name":"","type":"uint256"}],"stateMutability":"view","type":"function"}],"evm":{"bytecode":{"linkReferences":{},"object":"6080806040523461002857600080546001600160a01b0319163317905561106a908161002e8239f35b600080fdfe6080604052600436101561001257600080fd5b60003560e01c80630cb6aaf114610d1e57806347854b8714610c8b578063637eea1914610c62578063699fc0501461015b578063ec39f18f1461013d5763ef6527371461005e57600080fd5b34610138576020366003190112610138576001600160a01b0361007f610dad565b166000526001602052604060002060405161009981610dfd565b6100a282610e39565b81526101346100b360018401610e39565b91602081019283526100c760028501610e39565b93604082019485526100db60038201610e39565b90606083019182526100ef60048201610e39565b60808401908152610115600661010760058501610e39565b9360a0870194855201610e39565b938460c082015251955196519251905191519260405197889788610f1f565b0390f35b600080fd5b34610138576000366003190112610138576020600254604051908152f35b346101385761010036600319011261013857610175610dad565b6024356001600160401b03811161013857610194903690600401610fa0565b6044356001600160401b038111610138576101b3903690600401610fa0565b90936064356001600160401b038111610138576101d4903690600401610fa0565b906084356001600160401b038111610138576101f4903690600401610fa0565b9060a4356001600160401b03811161013857610214903690600401610fa0565b91909260c4356001600160401b03811161013857610236903690600401610fa0565b95909660e4356001600160401b03811161013857610258903690600401610fa0565b600054909e919b906001600160a01b03163303610c2f578c8f8f908e916040519361028285610dfd565b369061028d92610fcd565b835261029a368587610fcd565b60208401526102aa368789610fcd565b60408401526102ba36898b610fcd565b60608401526102ca368b8d610fcd565b60808401526102da368d8f610fcd565b60a084015236906102ea92610fcd565b60c08201526001600160a01b038c16600090815260016020526040902081518051919291906001600160401b03821161068d5781906103298554610dc3565b601f8111610bdf575b50602090601f8311600114610b7357600092610b68575b50508160011b916000199060031b1c19161782555b60208101518051906001600160401b03821161068d5781906103836001860154610dc3565b601f8111610b15575b50602090601f8311600114610aa357600092610a98575b50508160011b916000199060031b1c19161760018301555b60408101518051906001600160401b03821161068d5781906103e06002860154610dc3565b601f8111610a45575b50602090601f83116001146109d3576000926109c8575b50508160011b916000199060031b1c19161760028301555b60608101518051906001600160401b03821161068d57819061043d6003860154610dc3565b601f8111610975575b50602090601f8311600114610903576000926108f8575b50508160011b916000199060031b1c19161760038301555b60808101518051906001600160401b03821161068d57819061049a6004860154610dc3565b601f81116108a5575b50602090601f831160011461083357600092610828575b50508160011b916000199060031b1c19161760048301555b60a08101518051906001600160401b03821161068d576104f56005850154610dc3565b601f81116107e1575b50602090601f831160011461076e5760c093929160009183610763575b50508160011b916000199060031b1c19161760058401555b01518051906001600160401b03821161068d576105536006840154610dc3565b601f811161071c575b50602090601f83116001146106ae5760069291600091836106a3575b50508160011b916000199060031b1c1916179101555b6002546801000000000000000081101561068d57600181016002556105b290610d60565b81549060031b908d600160a01b6001900316821b91600160a01b60019003901b19161790556040519d8e9d8e60e0815260e001906105ef92611013565b908d808303906020015261060292611013565b908b820360408d015261061492611013565b9089820360608b015261062692611013565b90878203608089015261063892611013565b9085820360a087015261064a92611013565b83810360c08501526001600160a01b039091169461066792611013565b037ff0ea8ba8691f81805ff47e02158e13ef55804b501e7f30f55e3f768fff8e498c91a2005b634e487b7160e01b600052604160045260246000fd5b015190503880610578565b90601f198316916006850160005260206000209260005b818110610704575091600193918560069694106106eb575b505050811b0191015561058e565b015160001960f88460031b161c191690553880806106dd565b929360206001819287860151815501950193016106c5565b600684016000526020600020601f840160051c81016020851061075c575b601f830160051c8201811061075057505061055c565b6000815560010161073a565b508061073a565b01519050388061051b565b906005850160005260206000209160005b601f19851681106107c9575091839160019360c09695601f198116106107b0575b505050811b016005840155610533565b015160001960f88460031b161c191690553880806107a0565b9192602060018192868501518155019401920161077f565b600585016000526020600020601f840160051c810160208510610821575b601f830160051c820181106108155750506104fe565b600081556001016107ff565b50806107ff565b0151905038806104ba565b9250600485016000526020600020906000935b601f198416851061088a576001945083601f19811610610871575b505050811b0160048301556104d2565b015160001960f88460031b161c19169055388080610861565b81810151835560209485019460019093019290910190610846565b909150600485016000526020600020601f840160051c8101602085106108f1575b90849392915b601f830160051c820181106108e25750506104a3565b600081558594506001016108cc565b50806108c6565b01519050388061045d565b9250600385016000526020600020906000935b601f198416851061095a576001945083601f19811610610941575b505050811b016003830155610475565b015160001960f88460031b161c19169055388080610931565b81810151835560209485019460019093019290910190610916565b909150600385016000526020600020601f840160051c8101602085106109c1575b90849392915b601f830160051c820181106109b2575050610446565b6000815585945060010161099c565b5080610996565b015190503880610400565b9250600285016000526020600020906000935b601f1984168510610a2a576001945083601f19811610610a11575b505050811b016002830155610418565b015160001960f88460031b161c19169055388080610a01565b818101518355602094850194600190930192909101906109e6565b909150600285016000526020600020601f840160051c810160208510610a91575b90849392915b601f830160051c82018110610a825750506103e9565b60008155859450600101610a6c565b5080610a66565b0151905038806103a3565b9250600185016000526020600020906000935b601f1984168510610afa576001945083601f19811610610ae1575b505050811b0160018301556103bb565b015160001960f88460031b161c19169055388080610ad1565b81810151835560209485019460019093019290910190610ab6565b909150600185016000526020600020601f840160051c810160208510610b61575b90849392915b601f830160051c82018110610b5257505061038c565b60008155859450600101610b3c565b5080610b36565b015190503880610349565b9250846000526020600020906000935b601f1984168510610bc4576001945083601f19811610610bab575b505050811b01825561035e565b015160001960f88460031b161c19169055388080610b9e565b81810151835560209485019460019093019290910190610b83565b909150846000526020600020601f840160051c810160208510610c28575b90849392915b601f830160051c82018110610c19575050610332565b60008155859450600101610c03565b5080610bfd565b60405162461bcd60e51b815260206004820152600b60248201526a139bdd081cdd195dd85c9960aa1b6044820152606490fd5b34610138576000366003190112610138576000546040516001600160a01b039091168152602090f35b34610138576020366003190112610138576001600160a01b03610cac610dad565b1660005260016020526040600020610cc381610e39565b610134610cd260018401610e39565b92610cdf60028201610e39565b90610cec60038201610e39565b610cf860048301610e39565b90610d116006610d0a60058601610e39565b9401610e39565b9360405197889788610f1f565b346101385760203660031901126101385760043560025481101561013857610d47602091610d60565b905460405160039290921b1c6001600160a01b03168152f35b600254811015610d975760026000527f405787fa12a823e0f2b7631cc41b3ba8828b3321ca811111fa75cd3aa3bb5ace0190600090565b634e487b7160e01b600052603260045260246000fd5b600435906001600160a01b038216820361013857565b90600182811c92168015610df3575b6020831014610ddd57565b634e487b7160e01b600052602260045260246000fd5b91607f1691610dd2565b60e081019081106001600160401b0382111761068d57604052565b90601f801991011681019081106001600160401b0382111761068d57604052565b9060405191826000825492610e4d84610dc3565b908184526001948581169081600014610ebc5750600114610e79575b5050610e7792500383610e18565b565b9093915060005260209081600020936000915b818310610ea4575050610e7793508201013880610e69565b85548884018501529485019487945091830191610e8c565b915050610e7794506020925060ff191682840152151560051b8201013880610e69565b919082519283825260005b848110610f0b575050826000602080949584010152601f8019910116010190565b602081830181015184830182015201610eea565b9592610f8f94610f65610f7392610f57610f8196610f49610f9d9d9b9760e08e8181520190610edf565b8c810360208e015290610edf565b908a820360408c0152610edf565b9088820360608a0152610edf565b908682036080880152610edf565b9084820360a0860152610edf565b9160c0818403910152610edf565b90565b9181601f84011215610138578235916001600160401b038311610138576020838186019501011161013857565b9291926001600160401b03821161068d5760405191610ff6601f8201601f191660200184610e18565b829481845281830111610138578281602093846000960137010152565b908060209392818452848401376000828201840152601f01601f191601019056fea26469706673582212201fac62429e5fe32359f0bc027c423dfa5cd0cbc9dbbf61b2396d149acc91e15364736f6c63430008140033","opcodes":"PUSH1 0x80 DUP1 PUSH1 0x40 MSTORE CALLVALUE PUSH2 0x28 JUMPI PUSH1 0x0 DUP1 SLOAD PUSH1 0x1 PUSH1 0x1 PUSH1 0xA0 SHL SUB NOT AND CALLER OR SWAP1 SSTORE PUSH2 0x106A SWAP1 DUP2 PUSH2 0x2E DUP3 CODECOPY RETURN JUMPDEST PUSH1 0x0 DUP1 REVERT INVALID PUSH1 0x80 PUSH1 0x40 MSTORE PUSH1 0x4 CALLDATASIZE LT ISZERO PUSH2 0x12 JUMPI PUSH1 0x0 DUP1 REVERT JUMPDEST PUSH1 0x0 CALLDATALOAD PUSH1 0xE0 SHR DUP1 PUSH4 0xCB6AAF1 EQ PUSH2 0xD1E JUMPI DUP1 PUSH4 0x47854B87 EQ PUSH2 0xC8B JUMPI DUP1 PUSH4 0x637EEA19 EQ PUSH2 0xC62 JUMPI DUP1 PUSH4 0x699FC050 EQ PUSH2 0x15B JUMPI DUP1 PUSH4 0xEC39F18F EQ PUSH2 0x13D JUMPI PUSH4 0xEF652737 EQ PUSH2 0x5E JUMPI PUSH1 0x0 DUP1 REVERT JUMPDEST CALLVALUE PUSH2 0x138 JUMPI PUSH1 0x20 CALLDATASIZE PUSH1 0x3 NOT ADD SLT PUSH2 0x138 JUMPI PUSH1 0x1 PUSH1 0x1 PUSH1 0xA0 SHL SUB PUSH2 0x7F PUSH2 0xDAD JUMP JUMPDEST AND PUSH1 0x0 MSTORE PUSH1 0x1 PUSH1 0x20 MSTORE PUSH1 0x40 PUSH1 0x0 KECCAK256 PUSH1 0x40 MLOAD PUSH2 0x99 DUP2 PUSH2 0xDFD JUMP JUMPDEST PUSH2 0xA2 DUP3 PUSH2 0xE39 JUMP JUMPDEST DUP2 MSTORE PUSH2 0x134 PUSH2 0xB3 PUSH1 0x1 DUP5 ADD PUSH2 0xE39 JUMP JUMPDEST SWAP2 PUSH1 0x20 DUP2 ADD SWAP3 DUP4 MSTORE PUSH2 0xC7 PUSH1 0x2 DUP6 ADD PUSH2 0xE39 JUMP JUMPDEST SWAP4 PUSH1 0x40 DUP3 ADD SWAP5 DUP6 MSTORE PUSH2 0xDB PUSH1 0x3 DUP3 ADD PUSH2 0xE39 JUMP JUMPDEST SWAP1 PUSH1 0x60 DUP4 ADD SWAP2 DUP3 MSTORE PUSH2 0xEF PUSH1 0x4 DUP3 ADD PUSH2 0xE39 JUMP JUMPDEST PUSH1 0x80 DUP5 ADD SWAP1 DUP2 MSTORE PUSH2 0x115 PUSH1 0x6 PUSH2 0x107 PUSH1 0x5 DUP6 ADD PUSH2 0xE39 JUMP JUMPDEST SWAP4 PUSH1 0xA0 DUP8 ADD SWAP5 DUP6 MSTORE ADD PUSH2 0xE39 JUMP JUMPDEST SWAP4 DUP5 PUSH1 0xC0 DUP3 ADD MSTORE MLOAD SWAP6 MLOAD SWAP7 MLOAD SWAP3 MLOAD SWAP1 MLOAD SWAP2 MLOAD SWAP3 PUSH1 0x40 MLOAD SWAP8 DUP9 SWAP8 DUP9 PUSH2 0xF1F JUMP JUMPDEST SUB SWAP1 RETURN JUMPDEST PUSH1 0x0 DUP1 REVERT JUMPDEST CALLVALUE PUSH2 0x138 JUMPI PUSH1 0x0 CALLDATASIZE PUSH1 0x3 NOT ADD SLT PUSH2 0x138 JUMPI PUSH1 0x20 PUSH1 0x2 SLOAD PUSH1 0x40 MLOAD SWAP1 DUP2 MSTORE RETURN JUMPDEST CALLVALUE PUSH2 0x138 JUMPI PUSH2 0x100 CALLDATASIZE PUSH1 0x3 NOT ADD SLT PUSH2 0x138 JUMPI PUSH2 0x175 PUSH2 0xDAD JUMP JUMPDEST PUSH1 0x24 CALLDATALOAD PUSH1 0x1 PUSH1 0x1 PUSH1 0x40 SHL SUB DUP2 GT PUSH2 0x138 JUMPI PUSH2 0x194 SWAP1 CALLDATASIZE SWAP1 PUSH1 0x4 ADD PUSH2 0xFA0 JUMP JUMPDEST PUSH1 0x44 CALLDATALOAD PUSH1 0x1 PUSH1 0x1 PUSH1 0x40 SHL SUB DUP2 GT PUSH2 0x138 JUMPI PUSH2 0x1B3 SWAP1 CALLDATASIZE SWAP1 PUSH1 0x4 ADD PUSH2 0xFA0 JUMP JUMPDEST SWAP1 SWAP4 PUSH1 0x64 CALLDATALOAD PUSH1 0x1 PUSH1 0x1 PUSH1 0x40 SHL SUB DUP2 GT PUSH2 0x138 JUMPI PUSH2 0x1D4 SWAP1 CALLDATASIZE SWAP1 PUSH1 0x4 ADD PUSH2 0xFA0 JUMP JUMPDEST SWAP1 PUSH1 0x84 CALLDATALOAD PUSH1 0x1 PUSH1 0x1 PUSH1 0x40 SHL SUB DUP2 GT PUSH2 0x138 JUMPI PUSH2 0x1F4 SWAP1 CALLDATASIZE SWAP1 PUSH1 0x4 ADD PUSH2 0xFA0 JUMP JUMPDEST SWAP1 PUSH1 0xA4 CALLDATALOAD PUSH1 0x1 PUSH1 0x1 PUSH1 0x40 SHL SUB DUP2 GT PUSH2 0x138 JUMPI PUSH2 0x214 SWAP1 CALLDATASIZE SWAP1 PUSH1 0x4 ADD PUSH2 0xFA0 JUMP JUMPDEST SWAP2 SWAP1 SWAP3 PUSH1 0xC4 CALLDATALOAD PUSH1 0x1 PUSH1 0x1 PUSH1 0x40 SHL SUB DUP2 GT PUSH2 0x138 JUMPI PUSH2 0x236 SWAP1 CALLDATASIZE SWAP1 PUSH1 0x4 ADD PUSH2 0xFA0 JUMP JUMPDEST SWAP6 SWAP1 SWAP7 PUSH1 0xE4 CALLDATALOAD PUSH1 0x1 PUSH1 0x1 PUSH1 0x40 SHL SUB DUP2 GT PUSH2 0x138 JUMPI PUSH2 0x258 SWAP1 CALLDATASIZE SWAP1 PUSH1 0x4 ADD PUSH2 0xFA0 JUMP JUMPDEST PUSH1 0x0 SLOAD SWAP1 SWAP15 SWAP2 SWAP12 SWAP1 PUSH1 0x1 PUSH1 0x1 PUSH1 0xA0 SHL SUB AND CALLER SUB PUSH2 0xC2F JUMPI DUP13 DUP16 DUP16 SWAP1 DUP15 SWAP2 PUSH1 0x40 MLOAD SWAP4 PUSH2 0x282 DUP6 PUSH2 0xDFD JUMP JUMPDEST CALLDATASIZE SWAP1 PUSH2 0x28D SWAP3 PUSH2 0xFCD JUMP JUMPDEST DUP4 MSTORE PUSH2 0x29A CALLDATASIZE DUP6 DUP8 PUSH2 0xFCD JUMP JUMPDEST PUSH1 0x20 DUP5 ADD MSTORE PUSH2 0x2AA CALLDATASIZE DUP8 DUP10 PUSH2 0xFCD JUMP JUMPDEST PUSH1 0x40 DUP5 ADD MSTORE PUSH2 0x2BA CALLDATASIZE DUP10 DUP12 PUSH2 0xFCD JUMP JUMPDEST PUSH1 0x60 DUP5 ADD MSTORE PUSH2 0x2CA CALLDATASIZE DUP12 DUP14 PUSH2 0xFCD JUMP JUMPDEST PUSH1 0x80 DUP5 ADD MSTORE PUSH2 0x2DA CALLDATASIZE DUP14 DUP16 PUSH2 0xFCD JUMP JUMPDEST PUSH1 0xA0 DUP5 ADD MSTORE CALLDATASIZE SWAP1 PUSH2 0x2EA SWAP3 PUSH2 0xFCD JUMP JUMPDEST PUSH1 0xC0 DUP3 ADD MSTORE PUSH1 0x1 PUSH1 0x1 PUSH1 0xA0 SHL SUB DUP13 AND PUSH1 0x0 SWAP1 DUP2 MSTORE PUSH1 0x1 PUSH1 0x20 MSTORE PUSH1 0x40 SWAP1 KECCAK256 DUP2 MLOAD DUP1 MLOAD SWAP2 SWAP3 SWAP2 SWAP1 PUSH1 0x1 PUSH1 0x1 PUSH1 0x40 SHL SUB DUP3 GT PUSH2 0x68D JUMPI DUP2 SWAP1 PUSH2 0x329 DUP6 SLOAD PUSH2 0xDC3 JUMP JUMPDEST PUSH1 0x1F DUP2 GT PUSH2 0xBDF JUMPI JUMPDEST POP PUSH1 0x20 SWAP1 PUSH1 0x1F DUP4 GT PUSH1 0x1 EQ PUSH2 0xB73 JUMPI PUSH1 0x0 SWAP3 PUSH2 0xB68 JUMPI JUMPDEST POP POP DUP2 PUSH1 0x1 SHL SWAP2 PUSH1 0x0 NOT SWAP1 PUSH1 0x3 SHL SHR NOT AND OR DUP3 SSTORE JUMPDEST PUSH1 0x20 DUP2 ADD MLOAD DUP1 MLOAD SWAP1 PUSH1 0x1 PUSH1 0x1 PUSH1 0x40 SHL SUB DUP3 GT PUSH2 0x68D JUMPI DUP2 SWAP1 PUSH2 0x383 PUSH1 0x1 DUP7 ADD SLOAD PUSH2 0xDC3 JUMP JUMPDEST PUSH1 0x1F DUP2 GT PUSH2 0xB15 JUMPI JUMPDEST POP PUSH1 0x20 SWAP1 PUSH1 0x1F DUP4 GT PUSH1 0x1 EQ PUSH2 0xAA3 JUMPI PUSH1 0x0 SWAP3 PUSH2 0xA98 JUMPI JUMPDEST POP POP DUP2 PUSH1 0x1 SHL SWAP2 PUSH1 0x0 NOT SWAP1 PUSH1 0x3 SHL SHR NOT AND OR PUSH1 0x1 DUP4 ADD SSTORE JUMPDEST PUSH1 0x40 DUP2 ADD MLOAD DUP1 MLOAD SWAP1 PUSH1 0x1 PUSH1 0x1 PUSH1 0x40 SHL SUB DUP3 GT PUSH2 0x68D JUMPI DUP2 SWAP1 PUSH2 0x3E0 PUSH1 0x2 DUP7 ADD SLOAD PUSH2 0xDC3 JUMP JUMPDEST PUSH1 0x1F DUP2 GT PUSH2 0xA45 JUMPI JUMPDEST POP PUSH1 0x20 SWAP1 PUSH1 0x1F DUP4 GT PUSH1 0x1 EQ PUSH2 0x9D3 JUMPI PUSH1 0x0 SWAP3 PUSH2 0x9C8 JUMPI JUMPDEST POP POP DUP2 PUSH1 0x1 SHL SWAP2 PUSH1 0x0 NOT SWAP1 PUSH1 0x3 SHL SHR NOT AND OR PUSH1 0x2 DUP4 ADD SSTORE JUMPDEST PUSH1 0x60 DUP2 ADD MLOAD DUP1 MLOAD SWAP1 PUSH1 0x1 PUSH1 0x1 PUSH1 0x40 SHL SUB DUP3 GT PUSH2 0x68D JUMPI DUP2 SWAP1 PUSH2 0x43D PUSH1 0x3 DUP7 ADD SLOAD PUSH2 0xDC3 JUMP JUMPDEST PUSH1 0x1F DUP2 GT PUSH2 0x975 JUMPI JUMPDEST POP PUSH1 0x20 SWAP1 PUSH1 0x1F DUP4 GT PUSH1 0x1 EQ PUSH2 0x903 JUMPI PUSH1 0x0 SWAP3 PUSH2 0x8F8 JUMPI JUMPDEST POP POP DUP2 PUSH1 0x1 SHL SWAP2 PUSH1 0x0 NOT SWAP1 PUSH1 0x3 SHL SHR NOT AND OR PUSH1 0x3 DUP4 ADD SSTORE JUMPDEST PUSH1 0x80 DUP2 ADD MLOAD DUP1 MLOAD SWAP1 PUSH1 0x1 PUSH1 0x1 PUSH1 0x40 SHL SUB DUP3 GT PUSH2 0x68D JUMPI DUP2 SWAP1 PUSH2 0x49A PUSH1 0x4 DUP7 ADD SLOAD PUSH2 0xDC3 JUMP JUMPDEST PUSH1 0x1F DUP2 GT PUSH2 0x8A5 JUMPI JUMPDEST POP PUSH1 0x20 SWAP1 PUSH1 0x1F DUP4 GT PUSH1 0x1 EQ PUSH2 0x833 JUMPI PUSH1 0x0 SWAP3 PUSH2 0x828 JUMPI JUMPDEST POP POP DUP2 PUSH1 0x1 SHL SWAP2 PUSH1 0x0 NOT SWAP1 PUSH1 0x3 SHL SHR NOT AND OR PUSH1 0x4 DUP4 ADD SSTORE JUMPDEST PUSH1 0xA0 DUP2 ADD MLOAD DUP1 MLOAD SWAP1 PUSH1 0x1 PUSH1 0x1 PUSH1 0x40 SHL SUB DUP3 GT PUSH2 0x68D JUMPI PUSH2 0x4F5 PUSH1 0x5 DUP6 ADD SLOAD PUSH2 0xDC3 JUMP JUMPDEST PUSH1 0x1F DUP2 GT PUSH2 0x7E1 JUMPI JUMPDEST POP PUSH1 0x20 SWAP1 PUSH1 0x1F DUP4 GT PUSH1 0x1 EQ PUSH2 0x76E JUMPI PUSH1 0xC0 SWAP4 SWAP3 SWAP2 PUSH1 0x0 SWAP2 DUP4 PUSH2 0x763 JUMPI JUMPDEST POP POP DUP2 PUSH1 0x1 SHL SWAP2 PUSH1 0x0 NOT SWAP1 PUSH1 0x3 SHL SHR NOT AND OR PUSH1 0x5 DUP5 ADD SSTORE JUMPDEST ADD MLOAD DUP1 MLOAD SWAP1 PUSH1 0x1 PUSH1 0x1 PUSH1 0x40 SHL SUB DUP3 GT PUSH2 0x68D JUMPI PUSH2 0x553 PUSH1 0x6 DUP5 ADD SLOAD PUSH2 0xDC3 JUMP JUMPDEST PUSH1 0x1F DUP2 GT PUSH2 0x71C JUMPI JUMPDEST POP PUSH1 0x20 SWAP1 PUSH1 0x1F DUP4 GT PUSH1 0x1 EQ PUSH2 0x6AE JUMPI PUSH1 0x6 SWAP3 SWAP2 PUSH1 0x0 SWAP2 DUP4 PUSH2 0x6A3 JUMPI JUMPDEST POP POP DUP2 PUSH1 0x1 SHL SWAP2 PUSH1 0x0 NOT SWAP1 PUSH1 0x3 SHL SHR NOT AND OR SWAP2 ADD SSTORE JUMPDEST PUSH1 0x2 SLOAD PUSH9 0x10000000000000000 DUP2 LT ISZERO PUSH2 0x68D JUMPI PUSH1 0x1 DUP2 ADD PUSH1 0x2 SSTORE PUSH2 0x5B2 SWAP1 PUSH2 0xD60 JUMP JUMPDEST DUP2 SLOAD SWAP1 PUSH1 0x3 SHL SWAP1 DUP14 PUSH1 0x1 PUSH1 0xA0 SHL PUSH1 0x1 SWAP1 SUB AND DUP3 SHL SWAP2 PUSH1 0x1 PUSH1 0xA0 SHL PUSH1 0x1 SWAP1 SUB SWAP1 SHL NOT AND OR SWAP1 SSTORE PUSH1 0x40 MLOAD SWAP14 DUP15 SWAP14 DUP15 PUSH1 0xE0 DUP2 MSTORE PUSH1 0xE0 ADD SWAP1 PUSH2 0x5EF SWAP3 PUSH2 0x1013 JUMP JUMPDEST SWAP1 DUP14 DUP1 DUP4 SUB SWAP1 PUSH1 0x20 ADD MSTORE PUSH2 0x602 SWAP3 PUSH2 0x1013 JUMP JUMPDEST SWAP1 DUP12 DUP3 SUB PUSH1 0x40 DUP14 ADD MSTORE PUSH2 0x614 SWAP3 PUSH2 0x1013 JUMP JUMPDEST SWAP1 DUP10 DUP3 SUB PUSH1 0x60 DUP12 ADD MSTORE PUSH2 0x626 SWAP3 PUSH2 0x1013 JUMP JUMPDEST SWAP1 DUP8 DUP3 SUB PUSH1 0x80 DUP10 ADD MSTORE PUSH2 0x638 SWAP3 PUSH2 0x1013 JUMP JUMPDEST SWAP1 DUP6 DUP3 SUB PUSH1 0xA0 DUP8 ADD MSTORE PUSH2 0x64A SWAP3 PUSH2 0x1013 JUMP JUMPDEST DUP4 DUP2 SUB PUSH1 0xC0 DUP6 ADD MSTORE PUSH1 0x1 PUSH1 0x1 PUSH1 0xA0 SHL SUB SWAP1 SWAP2 AND SWAP5 PUSH2 0x667 SWAP3 PUSH2 0x1013 JUMP JUMPDEST SUB PUSH32 0xF0EA8BA8691F81805FF47E02158E13EF55804B501E7F30F55E3F768FFF8E498C SWAP2 LOG2 STOP JUMPDEST PUSH4 0x4E487B71 PUSH1 0xE0 SHL PUSH1 0x0 MSTORE PUSH1 0x41 PUSH1 0x4 MSTORE PUSH1 0x24 PUSH1 0x0 REVERT JUMPDEST ADD MLOAD SWAP1 POP CODESIZE DUP1 PUSH2 0x578 JUMP JUMPDEST SWAP1 PUSH1 0x1F NOT DUP4 AND SWAP2 PUSH1 0x6 DUP6 ADD PUSH1 0x0 MSTORE PUSH1 0x20 PUSH1 0x0 KECCAK256 SWAP3 PUSH1 0x0 JUMPDEST DUP2 DUP2 LT PUSH2 0x704 JUMPI POP SWAP2 PUSH1 0x1 SWAP4 SWAP2 DUP6 PUSH1 0x6 SWAP7 SWAP5 LT PUSH2 0x6EB JUMPI JUMPDEST POP POP POP DUP2 SHL ADD SWAP2 ADD SSTORE PUSH2 0x58E JUMP JUMPDEST ADD MLOAD PUSH1 0x0 NOT PUSH1 0xF8 DUP5 PUSH1 0x3 SHL AND SHR NOT AND SWAP1 SSTORE CODESIZE DUP1 DUP1 PUSH2 0x6DD JUMP JUMPDEST SWAP3 SWAP4 PUSH1 0x20 PUSH1 0x1 DUP2 SWAP3 DUP8 DUP7 ADD MLOAD DUP2 SSTORE ADD SWAP6 ADD SWAP4 ADD PUSH2 0x6C5 JUMP JUMPDEST PUSH1 0x6 DUP5 ADD PUSH1 0x0 MSTORE PUSH1 0x20 PUSH1 0x0 KECCAK256 PUSH1 0x1F DUP5 ADD PUSH1 0x5 SHR DUP2 ADD PUSH1 0x20 DUP6 LT PUSH2 0x75C JUMPI JUMPDEST PUSH1 0x1F DUP4 ADD PUSH1 0x5 SHR DUP3 ADD DUP2 LT PUSH2 0x750 JUMPI POP POP PUSH2 0x55C JUMP JUMPDEST PUSH1 0x0 DUP2 SSTORE PUSH1 0x1 ADD PUSH2 0x73A JUMP JUMPDEST POP DUP1 PUSH2 0x73A JUMP JUMPDEST ADD MLOAD SWAP1 POP CODESIZE DUP1 PUSH2 0x51B JUMP JUMPDEST SWAP1 PUSH1 0x5 DUP6 ADD PUSH1 0x0 MSTORE PUSH1 0x20 PUSH1 0x0 KECCAK256 SWAP2 PUSH1 0x0 JUMPDEST PUSH1 0x1F NOT DUP6 AND DUP2 LT PUSH2 0x7C9 JUMPI POP SWAP2 DUP4 SWAP2 PUSH1 0x1 SWAP4 PUSH1 0xC0 SWAP7 SWAP6 PUSH1 0x1F NOT DUP2 AND LT PUSH2 0x7B0 JUMPI JUMPDEST POP POP POP DUP2 SHL ADD PUSH1 0x5 DUP5 ADD SSTORE PUSH2 0x533 JUMP JUMPDEST ADD MLOAD PUSH1 0x0 NOT PUSH1 0xF8 DUP5 PUSH1 0x3 SHL AND SHR NOT AND SWAP1 SSTORE CODESIZE DUP1 DUP1 PUSH2 0x7A0 JUMP JUMPDEST SWAP2 SWAP3 PUSH1 0x20 PUSH1 0x1 DUP2 SWAP3 DUP7 DUP6 ADD MLOAD DUP2 SSTORE ADD SWAP5 ADD SWAP3 ADD PUSH2 0x77F JUMP JUMPDEST PUSH1 0x5 DUP6 ADD PUSH1 0x0 MSTORE PUSH1 0x20 PUSH1 0x0 KECCAK256 PUSH1 0x1F DUP5 ADD PUSH1 0x5 SHR DUP2 ADD PUSH1 0x20 DUP6 LT PUSH2 0x821 JUMPI JUMPDEST PUSH1 0x1F DUP4 ADD PUSH1 0x5 SHR DUP3 ADD DUP2 LT PUSH2 0x815 JUMPI POP POP PUSH2 0x4FE JUMP JUMPDEST PUSH1 0x0 DUP2 SSTORE PUSH1 0x1 ADD PUSH2 0x7FF JUMP JUMPDEST POP DUP1 PUSH2 0x7FF JUMP JUMPDEST ADD MLOAD SWAP1 POP CODESIZE DUP1 PUSH2 0x4BA JUMP JUMPDEST SWAP3 POP PUSH1 0x4 DUP6 ADD PUSH1 0x0 MSTORE PUSH1 0x20 PUSH1 0x0 KECCAK256 SWAP1 PUSH1 0x0 SWAP4 JUMPDEST PUSH1 0x1F NOT DUP5 AND DUP6 LT PUSH2 0x88A JUMPI PUSH1 0x1 SWAP5 POP DUP4 PUSH1 0x1F NOT DUP2 AND LT PUSH2 0x871 JUMPI JUMPDEST POP POP POP DUP2 SHL ADD PUSH1 0x4 DUP4 ADD SSTORE PUSH2 0x4D2 JUMP JUMPDEST ADD MLOAD PUSH1 0x0 NOT PUSH1 0xF8 DUP5 PUSH1 0x3 SHL AND SHR NOT AND SWAP1 SSTORE CODESIZE DUP1 DUP1 PUSH2 0x861 JUMP JUMPDEST DUP2 DUP2 ADD MLOAD DUP4 SSTORE PUSH1 0x20 SWAP5 DUP6 ADD SWAP5 PUSH1 0x1 SWAP1 SWAP4 ADD SWAP3 SWAP1 SWAP2 ADD SWAP1 PUSH2 0x846 JUMP JUMPDEST SWAP1 SWAP2 POP PUSH1 0x4 DUP6 ADD PUSH1 0x0 MSTORE PUSH1 0x20 PUSH1 0x0 KECCAK256 PUSH1 0x1F DUP5 ADD PUSH1 0x5 SHR DUP2 ADD PUSH1 0x20 DUP6 LT PUSH2 0x8F1 JUMPI JUMPDEST SWAP1 DUP5 SWAP4 SWAP3 SWAP2 JUMPDEST PUSH1 0x1F DUP4 ADD PUSH1 0x5 SHR DUP3 ADD DUP2 LT PUSH2 0x8E2 JUMPI POP POP PUSH2 0x4A3 JUMP JUMPDEST PUSH1 0x0 DUP2 SSTORE DUP6 SWAP5 POP PUSH1 0x1 ADD PUSH2 0x8CC JUMP JUMPDEST POP DUP1 PUSH2 0x8C6 JUMP JUMPDEST ADD MLOAD SWAP1 POP CODESIZE DUP1 PUSH2 0x45D JUMP JUMPDEST SWAP3 POP PUSH1 0x3 DUP6 ADD PUSH1 0x0 MSTORE PUSH1 0x20 PUSH1 0x0 KECCAK256 SWAP1 PUSH1 0x0 SWAP4 JUMPDEST PUSH1 0x1F NOT DUP5 AND DUP6 LT PUSH2 0x95A JUMPI PUSH1 0x1 SWAP5 POP DUP4 PUSH1 0x1F NOT DUP2 AND LT PUSH2 0x941 JUMPI JUMPDEST POP POP POP DUP2 SHL ADD PUSH1 0x3 DUP4 ADD SSTORE PUSH2 0x475 JUMP JUMPDEST ADD MLOAD PUSH1 0x0 NOT PUSH1 0xF8 DUP5 PUSH1 0x3 SHL AND SHR NOT AND SWAP1 SSTORE CODESIZE DUP1 DUP1 PUSH2 0x931 JUMP JUMPDEST DUP2 DUP2 ADD MLOAD DUP4 SSTORE PUSH1 0x20 SWAP5 DUP6 ADD SWAP5 PUSH1 0x1 SWAP1 SWAP4 ADD SWAP3 SWAP1 SWAP2 ADD SWAP1 PUSH2 0x916 JUMP JUMPDEST SWAP1 SWAP2 POP PUSH1 0x3 DUP6 ADD PUSH1 0x0 MSTORE PUSH1 0x20 PUSH1 0x0 KECCAK256 PUSH1 0x1F DUP5 ADD PUSH1 0x5 SHR DUP2 ADD PUSH1 0x20 DUP6 LT PUSH2 0x9C1 JUMPI JUMPDEST SWAP1 DUP5 SWAP4 SWAP3 SWAP2 JUMPDEST PUSH1 0x1F DUP4 ADD PUSH1 0x5 SHR DUP3 ADD DUP2 LT PUSH2 0x9B2 JUMPI POP POP PUSH2 0x446 JUMP JUMPDEST PUSH1 0x0 DUP2 SSTORE DUP6 SWAP5 POP PUSH1 0x1 ADD PUSH2 0x99C JUMP JUMPDEST POP DUP1 PUSH2 0x996 JUMP JUMPDEST ADD MLOAD SWAP1 POP CODESIZE DUP1 PUSH2 0x400 JUMP JUMPDEST SWAP3 POP PUSH1 0x2 DUP6 ADD PUSH1 0x0 MSTORE PUSH1 0x20 PUSH1 0x0 KECCAK256 SWAP1 PUSH1 0x0 SWAP4 JUMPDEST PUSH1 0x1F NOT DUP5 AND DUP6 LT PUSH2 0xA2A JUMPI PUSH1 0x1 SWAP5 POP DUP4 PUSH1 0x1F NOT DUP2 AND LT PUSH2 0xA11 JUMPI JUMPDEST POP POP POP DUP2 SHL ADD PUSH1 0x2 DUP4 ADD SSTORE PUSH2 0x418 JUMP JUMPDEST ADD MLOAD PUSH1 0x0 NOT PUSH1 0xF8 DUP5 PUSH1 0x3 SHL AND SHR NOT AND SWAP1 SSTORE CODESIZE DUP1 DUP1 PUSH2 0xA01 JUMP JUMPDEST DUP2 DUP2 ADD MLOAD DUP4 SSTORE PUSH1 0x20 SWAP5 DUP6 ADD SWAP5 PUSH1 0x1 SWAP1 SWAP4 ADD SWAP3 SWAP1 SWAP2 ADD SWAP1 PUSH2 0x9E6 JUMP JUMPDEST SWAP1 SWAP2 POP PUSH1 0x2 DUP6 ADD PUSH1 0x0 MSTORE PUSH1 0x20 PUSH1 0x0 KECCAK256 PUSH1 0x1F DUP5 ADD PUSH1 0x5 SHR DUP2 ADD PUSH1 0x20 DUP6 LT PUSH2 0xA91 JUMPI JUMPDEST SWAP1 DUP5 SWAP4 SWAP3 SWAP2 JUMPDEST PUSH1 0x1F DUP4 ADD PUSH1 0x5 SHR DUP3 ADD DUP2 LT PUSH2 0xA82 JUMPI POP POP PUSH2 0x3E9 JUMP JUMPDEST PUSH1 0x0 DUP2 SSTORE DUP6 SWAP5 POP PUSH1 0x1 ADD PUSH2 0xA6C JUMP JUMPDEST POP DUP1 PUSH2 0xA66 JUMP JUMPDEST ADD MLOAD SWAP1 POP CODESIZE DUP1 PUSH2 0x3A3 JUMP JUMPDEST SWAP3 POP PUSH1 0x1 DUP6 ADD PUSH1 0x0 MSTORE PUSH1 0x20 PUSH1 0x0 KECCAK256 SWAP1 PUSH1 0x0 SWAP4 JUMPDEST PUSH1 0x1F NOT DUP5 AND DUP6 LT PUSH2 0xAFA JUMPI PUSH1 0x1 SWAP5 POP DUP4 PUSH1 0x1F NOT DUP2 AND LT PUSH2 0xAE1 JUMPI JUMPDEST POP POP POP DUP2 SHL ADD PUSH1 0x1 DUP4 ADD SSTORE PUSH2 0x3BB JUMP JUMPDEST ADD MLOAD PUSH1 0x0 NOT PUSH1 0xF8 DUP5 PUSH1 0x3 SHL AND SHR NOT AND SWAP1 SSTORE CODESIZE DUP1 DUP1 PUSH2 0xAD1 JUMP JUMPDEST DUP2 DUP2 ADD MLOAD DUP4 SSTORE PUSH1 0x20 SWAP5 DUP6 ADD SWAP5 PUSH1 0x1 SWAP1 SWAP4 ADD SWAP3 SWAP1 SWAP2 ADD SWAP1 PUSH2 0xAB6 JUMP JUMPDEST SWAP1 SWAP2 POP PUSH1 0x1 DUP6 ADD PUSH1 0x0 MSTORE PUSH1 0x20 PUSH1 0x0 KECCAK256 PUSH1 0x1F DUP5 ADD PUSH1 0x5 SHR DUP2 ADD PUSH1 0x20 DUP6 LT PUSH2 0xB61 JUMPI JUMPDEST SWAP1 DUP5 SWAP4 SWAP3 SWAP2 JUMPDEST PUSH1 0x1F DUP4 ADD PUSH1 0x5 SHR DUP3 ADD DUP2 LT PUSH2 0xB52 JUMPI POP POP PUSH2 0x38C JUMP JUMPDEST PUSH1 0x0 DUP2 SSTORE DUP6 SWAP5 POP PUSH1 0x1 ADD PUSH2 0xB3C JUMP JUMPDEST POP DUP1 PUSH2 0xB36 JUMP JUMPDEST ADD MLOAD SWAP1 POP CODESIZE DUP1 PUSH2 0x349 JUMP JUMPDEST SWAP3 POP DUP5 PUSH1 0x0 MSTORE PUSH1 0x20 PUSH1 0x0 KECCAK256 SWAP1 PUSH1 0x0 SWAP4 JUMPDEST PUSH1 0x1F NOT DUP5 AND DUP6 LT PUSH2 0xBC4 JUMPI PUSH1 0x1 SWAP5 POP DUP4 PUSH1 0x1F NOT DUP2 AND LT PUSH2 0xBAB JUMPI JUMPDEST POP POP POP DUP2 SHL ADD DUP3 SSTORE PUSH2 0x35E JUMP JUMPDEST ADD MLOAD PUSH1 0x0 NOT PUSH1 0xF8 DUP5 PUSH1 0x3 SHL AND SHR NOT AND SWAP1 SSTORE CODESIZE DUP1 DUP1 PUSH2 0xB9E JUMP JUMPDEST DUP2 DUP2 ADD MLOAD DUP4 SSTORE PUSH1 0x20 SWAP5 DUP6 ADD SWAP5 PUSH1 0x1 SWAP1 SWAP4 ADD SWAP3 SWAP1 SWAP2 ADD SWAP1 PUSH2 0xB83 JUMP JUMPDEST SWAP1 SWAP2 POP DUP5 PUSH1 0x0 MSTORE PUSH1 0x20 PUSH1 0x0 KECCAK256 PUSH1 0x1F DUP5 ADD PUSH1 0x5 SHR DUP2 ADD PUSH1 0x20 DUP6 LT PUSH2 0xC28 JUMPI JUMPDEST SWAP1 DUP5 SWAP4 SWAP3 SWAP2 JUMPDEST PUSH1 0x1F DUP4 ADD PUSH1 0x5 SHR DUP3 ADD DUP2 LT PUSH2 0xC19 JUMPI POP POP PUSH2 0x332 JUMP JUMPDEST PUSH1 0x0 DUP2 SSTORE DUP6 SWAP5 POP PUSH1 0x1 ADD PUSH2 0xC03 JUMP JUMPDEST POP DUP1 PUSH2 0xBFD JUMP JUMPDEST PUSH1 0x40 MLOAD PUSH3 0x461BCD PUSH1 0xE5 SHL DUP2 MSTORE PUSH1 0x20 PUSH1 0x4 DUP3 ADD MSTORE PUSH1 0xB PUSH1 0x24 DUP3 ADD MSTORE PUSH11 0x139BDD081CDD195DD85C99 PUSH1 0xAA SHL PUSH1 0x44 DUP3 ADD MSTORE PUSH1 0x64 SWAP1 REVERT JUMPDEST CALLVALUE PUSH2 0x138 JUMPI PUSH1 0x0 CALLDATASIZE PUSH1 0x3 NOT ADD SLT PUSH2 0x138 JUMPI PUSH1 0x0 SLOAD PUSH1 0x40 MLOAD PUSH1 0x1 PUSH1 0x1 PUSH1 0xA0 SHL SUB SWAP1 SWAP2 AND DUP2 MSTORE PUSH1 0x20 SWAP1 RETURN JUMPDEST CALLVALUE PUSH2 0x138 JUMPI PUSH1 0x20 CALLDATASIZE PUSH1 0x3 NOT ADD SLT PUSH2 0x138 JUMPI PUSH1 0x1 PUSH1 0x1 PUSH1 0xA0 SHL SUB PUSH2 0xCAC PUSH2 0xDAD JUMP JUMPDEST AND PUSH1 0x0 MSTORE PUSH1 0x1 PUSH1 0x20 MSTORE PUSH1 0x40 PUSH1 0x0 KECCAK256 PUSH2 0xCC3 DUP2 PUSH2 0xE39 JUMP JUMPDEST PUSH2 0x134 PUSH2 0xCD2 PUSH1 0x1 DUP5 ADD PUSH2 0xE39 JUMP JUMPDEST SWAP3 PUSH2 0xCDF PUSH1 0x2 DUP3 ADD PUSH2 0xE39 JUMP JUMPDEST SWAP1 PUSH2 0xCEC PUSH1 0x3 DUP3 ADD PUSH2 0xE39 JUMP JUMPDEST PUSH2 0xCF8 PUSH1 0x4 DUP4 ADD PUSH2 0xE39 JUMP JUMPDEST SWAP1 PUSH2 0xD11 PUSH1 0x6 PUSH2 0xD0A PUSH1 0x5 DUP7 ADD PUSH2 0xE39 JUMP JUMPDEST SWAP5 ADD PUSH2 0xE39 JUMP JUMPDEST SWAP4 PUSH1 0x40 MLOAD SWAP8 DUP9 SWAP8 DUP9 PUSH2 0xF1F JUMP JUMPDEST CALLVALUE PUSH2 0x138 JUMPI PUSH1 0x20 CALLDATASIZE PUSH1 0x3 NOT ADD SLT PUSH2 0x138 JUMPI PUSH1 0x4 CALLDATALOAD PUSH1 0x2 SLOAD DUP2 LT ISZERO PUSH2 0x138 JUMPI PUSH2 0xD47 PUSH1 0x20 SWAP2 PUSH2 0xD60 JUMP JUMPDEST SWAP1 SLOAD PUSH1 0x40 MLOAD PUSH1 0x3 SWAP3 SWAP1 SWAP3 SHL SHR PUSH1 0x1 PUSH1 0x1 PUSH1 0xA0 SHL SUB AND DUP2 MSTORE RETURN JUMPDEST PUSH1 0x2 SLOAD DUP2 LT ISZERO PUSH2 0xD97 JUMPI PUSH1 0x2 PUSH1 0x0 MSTORE PUSH32 0x405787FA12A823E0F2B7631CC41B3BA8828B3321CA811111FA75CD3AA3BB5ACE ADD SWAP1 PUSH1 0x0 SWAP1 JUMP JUMPDEST PUSH4 0x4E487B71 PUSH1 0xE0 SHL PUSH1 0x0 MSTORE PUSH1 0x32 PUSH1 0x4 MSTORE PUSH1 0x24 PUSH1 0x0 REVERT JUMPDEST PUSH1 0x4 CALLDATALOAD SWAP1 PUSH1 0x1 PUSH1 0x1 PUSH1 0xA0 SHL SUB DUP3 AND DUP3 SUB PUSH2 0x138 JUMPI JUMP JUMPDEST SWAP1 PUSH1 0x1 DUP3 DUP2 SHR SWAP3 AND DUP1 ISZERO PUSH2 0xDF3 JUMPI JUMPDEST PUSH1 0x20 DUP4 LT EQ PUSH2 0xDDD JUMPI JUMP JUMPDEST PUSH4 0x4E487B71 PUSH1 0xE0 SHL PUSH1 0x0 MSTORE PUSH1 0x22 PUSH1 0x4 MSTORE PUSH1 0x24 PUSH1 0x0 REVERT JUMPDEST SWAP2 PUSH1 0x7F AND SWAP2 PUSH2 0xDD2 JUMP JUMPDEST PUSH1 0xE0 DUP2 ADD SWAP1 DUP2 LT PUSH1 0x1 PUSH1 0x1 PUSH1 0x40 SHL SUB DUP3 GT OR PUSH2 0x68D JUMPI PUSH1 0x40 MSTORE JUMP JUMPDEST SWAP1 PUSH1 0x1F DUP1 NOT SWAP2 ADD AND DUP2 ADD SWAP1 DUP2 LT PUSH1 0x1 PUSH1 0x1 PUSH1 0x40 SHL SUB DUP3 GT OR PUSH2 0x68D JUMPI PUSH1 0x40 MSTORE JUMP JUMPDEST SWAP1 PUSH1 0x40 MLOAD SWAP2 DUP3 PUSH1 0x0 DUP3 SLOAD SWAP3 PUSH2 0xE4D DUP5 PUSH2 0xDC3 JUMP JUMPDEST SWAP1 DUP2 DUP5 MSTORE PUSH1 0x1 SWAP5 DUP6 DUP2 AND SWAP1 DUP2 PUSH1 0x0 EQ PUSH2 0xEBC JUMPI POP PUSH1 0x1 EQ PUSH2 0xE79 JUMPI JUMPDEST POP POP PUSH2 0xE77 SWAP3 POP SUB DUP4 PUSH2 0xE18 JUMP JUMPDEST JUMP JUMPDEST SWAP1 SWAP4 SWAP2 POP PUSH1 0x0 MSTORE PUSH1 0x20 SWAP1 DUP2 PUSH1 0x0 KECCAK256 SWAP4 PUSH1 0x0 SWAP2 JUMPDEST DUP2 DUP4 LT PUSH2 0xEA4 JUMPI POP POP PUSH2 0xE77 SWAP4 POP DUP3 ADD ADD CODESIZE DUP1 PUSH2 0xE69 JUMP JUMPDEST DUP6 SLOAD DUP9 DUP5 ADD DUP6 ADD MSTORE SWAP5 DUP6 ADD SWAP5 DUP8 SWAP5 POP SWAP2 DUP4 ADD SWAP2 PUSH2 0xE8C JUMP JUMPDEST SWAP2 POP POP PUSH2 0xE77 SWAP5 POP PUSH1 0x20 SWAP3 POP PUSH1 0xFF NOT AND DUP3 DUP5 ADD MSTORE ISZERO ISZERO PUSH1 0x5 SHL DUP3 ADD ADD CODESIZE DUP1 PUSH2 0xE69 JUMP JUMPDEST SWAP2 SWAP1 DUP3 MLOAD SWAP3 DUP4 DUP3 MSTORE PUSH1 0x0 JUMPDEST DUP5 DUP2 LT PUSH2 0xF0B JUMPI POP POP DUP3 PUSH1 0x0 PUSH1 0x20 DUP1 SWAP5 SWAP6 DUP5 ADD ADD MSTORE PUSH1 0x1F DUP1 NOT SWAP2 ADD AND ADD ADD SWAP1 JUMP JUMPDEST PUSH1 0x20 DUP2 DUP4 ADD DUP2 ADD MLOAD DUP5 DUP4 ADD DUP3 ADD MSTORE ADD PUSH2 0xEEA JUMP JUMPDEST SWAP6 SWAP3 PUSH2 0xF8F SWAP5 PUSH2 0xF65 PUSH2 0xF73 SWAP3 PUSH2 0xF57 PUSH2 0xF81 SWAP7 PUSH2 0xF49 PUSH2 0xF9D SWAP14 SWAP12 SWAP8 PUSH1 0xE0 DUP15 DUP2 DUP2 MSTORE ADD SWAP1 PUSH2 0xEDF JUMP JUMPDEST DUP13 DUP2 SUB PUSH1 0x20 DUP15 ADD MSTORE SWAP1 PUSH2 0xEDF JUMP JUMPDEST SWAP1 DUP11 DUP3 SUB PUSH1 0x40 DUP13 ADD MSTORE PUSH2 0xEDF JUMP JUMPDEST SWAP1 DUP9 DUP3 SUB PUSH1 0x60 DUP11 ADD MSTORE PUSH2 0xEDF JUMP JUMPDEST SWAP1 DUP7 DUP3 SUB PUSH1 0x80 DUP9 ADD MSTORE PUSH2 0xEDF JUMP JUMPDEST SWAP1 DUP5 DUP3 SUB PUSH1 0xA0 DUP7 ADD MSTORE PUSH2 0xEDF JUMP JUMPDEST SWAP2 PUSH1 0xC0 DUP2 DUP5 SUB SWAP2 ADD MSTORE PUSH2 0xEDF JUMP JUMPDEST SWAP1 JUMP JUMPDEST SWAP2 DUP2 PUSH1 0x1F DUP5 ADD SLT ISZERO PUSH2 0x138 JUMPI DUP3 CALLDATALOAD SWAP2 PUSH1 0x1 PUSH1 0x1 PUSH1 0x40 SHL SUB DUP4 GT PUSH2 0x138 JUMPI PUSH1 0x20 DUP4 DUP2 DUP7 ADD SWAP6 ADD ADD GT PUSH2 0x138 JUMPI JUMP JUMPDEST SWAP3 SWAP2 SWAP3 PUSH1 0x1 PUSH1 0x1 PUSH1 0x40 SHL SUB DUP3 GT PUSH2 0x68D JUMPI PUSH1 0x40 MLOAD SWAP2 PUSH2 0xFF6 PUSH1 0x1F DUP3 ADD PUSH1 0x1F NOT AND PUSH1 0x20 ADD DUP5 PUSH2 0xE18 JUMP JUMPDEST DUP3 SWAP5 DUP2 DUP5 MSTORE DUP2 DUP4 ADD GT PUSH2 0x138 JUMPI DUP3 DUP2 PUSH1 0x20 SWAP4 DUP5 PUSH1 0x0 SWAP7 ADD CALLDATACOPY ADD ADD MSTORE JUMP JUMPDEST SWAP1 DUP1 PUSH1 0x20 SWAP4 SWAP3 DUP2 DUP5 MSTORE DUP5 DUP5 ADD CALLDATACOPY PUSH1 0x0 DUP3 DUP3 ADD DUP5 ADD MSTORE PUSH1 0x1F ADD PUSH1 0x1F NOT AND ADD ADD SWAP1 JUMP INVALID LOG2 PUSH5 0x6970667358 0x22 SLT KECCAK256 0x1F 0xAC PUSH3 0x429E5F 0xE3 0x23 MSIZE CREATE 0xBC MUL PUSH29 0x423DFA5CD0CBC9DBBF61B2396D149ACC91E15364736F6C634300081400 CALLER "},"methodIdentifiers":{"companions(address)":"47854b87","getCompanion(address)":"ef652737","keys(uint256)":"0cb6aaf1","steward()":"637eea19","summonCompanion(address,string,string,string,string,string,string,string)":"699fc050","totalCompanions()":"ec39f18f"}}}}}