{"contracts/codex/SpiralboundCodexV7.sol":{"SpiralboundCodexV7":{"abi":[{"inputs":[],"stateMutability":"nonpayable","type":"constructor"},{"anonymous":false,"inputs":[{"indexed":false,"internalType":"string","name":"glyph","type":"string"},{"indexed":false,"internalType":"string","name":"tag","type":"string"},{"indexed":false,"internalType":"string","name":"binding","type":"string"},{"indexed":false,"internalType":"string","name":"annotation","type":"string"},{"indexed":false,"internalType":"string","name":"lineage","type":"string"},{"indexed":false,"internalType":"string","name":"resonance","type":"string"},{"indexed":false,"internalType":"string","name":"protocol","type":"string"},{"indexed":false,"internalType":"string","name":"sanctum","type":"string"}],"name":"CodexInscribed","type":"event"},{"inputs":[{"internalType":"string","name":"","type":"string"}],"name":"codices","outputs":[{"internalType":"string","name":"tag","type":"string"},{"internalType":"string","name":"binding","type":"string"},{"internalType":"string","name":"annotation","type":"string"},{"internalType":"string","name":"lineage","type":"string"},{"internalType":"string","name":"resonance","type":"string"},{"internalType":"string","name":"protocol","type":"string"},{"internalType":"string","name":"sanctum","type":"string"}],"stateMutability":"view","type":"function"},{"inputs":[{"internalType":"string","name":"glyph","type":"string"}],"name":"getCodex","outputs":[{"internalType":"string","name":"","type":"string"},{"internalType":"string","name":"","type":"string"},{"internalType":"string","name":"","type":"string"}],"stateMutability":"view","type":"function"},{"inputs":[{"internalType":"string","name":"glyph","type":"string"}],"name":"getLineage","outputs":[{"internalType":"string","name":"","type":"string"}],"stateMutability":"view","type":"function"},{"inputs":[{"internalType":"string","name":"glyph","type":"string"}],"name":"getProtocol","outputs":[{"internalType":"string","name":"","type":"string"}],"stateMutability":"view","type":"function"},{"inputs":[{"internalType":"string","name":"glyph","type":"string"}],"name":"getResonance","outputs":[{"internalType":"string","name":"","type":"string"}],"stateMutability":"view","type":"function"},{"inputs":[{"internalType":"string","name":"glyph","type":"string"}],"name":"getSanctum","outputs":[{"internalType":"string","name":"","type":"string"}],"stateMutability":"view","type":"function"},{"inputs":[{"internalType":"string","name":"glyph","type":"string"},{"internalType":"string","name":"tag","type":"string"},{"internalType":"string","name":"binding","type":"string"},{"internalType":"string","name":"annotation","type":"string"},{"internalType":"string","name":"lineage","type":"string"},{"internalType":"string","name":"resonance","type":"string"},{"internalType":"string","name":"protocol","type":"string"},{"internalType":"string","name":"sanctum","type":"string"}],"name":"inscribeCodex","outputs":[],"stateMutability":"nonpayable","type":"function"},{"inputs":[{"internalType":"uint256","name":"","type":"uint256"}],"name":"keys","outputs":[{"internalType":"string","name":"","type":"string"}],"stateMutability":"view","type":"function"},{"inputs":[],"name":"steward","outputs":[{"internalType":"address","name":"","type":"address"}],"stateMutability":"view","type":"function"},{"inputs":[],"name":"totalCodices","outputs":[{"internalType":"uint256","name":"","type":"uint256"}],"stateMutability":"view","type":"function"}],"evm":{"bytecode":{"linkReferences":{},"object":"6080806040523461002857600080546001600160a01b031916331790556111a5908161002e8239f35b600080fdfe610160604052600436101561001357600080fd5b60003560e01c80630cb6aaf114610e8657806346b4106814610e4c578063637eea1914610e235780637beb410714610de85780638336152214610cdf578063ad46e9b51461027c578063c212d16b1461025e578063dbc214241461012a578063e206f33e146100ef5763f44571f91461008b57600080fd5b346100ea5760203660031901126100ea576004356001600160401b0381116100ea576100d260036100cc6100c66100e694369060040161106e565b906110e1565b01610f80565b604051918291602083526020830190611049565b0390f35b600080fd5b346100ea5760203660031901126100ea576004356001600160401b0381116100ea576100d260066100cc6100c66100e694369060040161106e565b346100ea5760203660031901126100ea576004356001600160401b0381116100ea57366023820112156100ea57602061017061018392369060248160040135910161109b565b8160405193828580945193849201611026565b8101600181520301902060e06100e661019b83610f80565b926102506101ab60018301610f80565b916102426101bb60028301610f80565b6102346101ca60038501610f80565b6102266101d960048701610f80565b936102186101f560066101ee60058b01610f80565b9901610f80565b9961020a6040519e8f9e8f8181520190611049565b8d810360208f015290611049565b908b820360408d0152611049565b9089820360608b0152611049565b908782036080890152611049565b9085820360a0870152611049565b9083820360c0850152611049565b346100ea5760003660031901126100ea576020600254604051908152f35b346100ea576101003660031901126100ea576004356001600160401b0381116100ea576102ad90369060040161106e565b9060a0526024356001600160401b0381116100ea576102d090369060040161106e565b906044356001600160401b0381116100ea576102f090369060040161106e565b906064356001600160401b0381116100ea5761031090369060040161106e565b906084356001600160401b0381116100ea5761033090369060040161106e565b92909360a4356001600160401b0381116100ea5761035290369060040161106e565b96909760c4356001600160401b0381116100ea5761037490369060040161106e565b9061012052996001600160401b0360e435116100ea576103993660e43560040161106e565b60805260e0526000546001600160a01b03163303610cac576040516103bd81610f44565b6103c836838561109b565b81526103d536858761109b565b60208201526103e536878961109b565b60408201526103f536898b61109b565b6060820152610405368b8d61109b565b6080820152610418368d6101205161109b565b60a082015261042c3660805160e05161109b565b60c08201528c602060405182819360a0518337810160018152030190209080518051906001600160401b03821161091c5781906104738261046d8754610f0a565b876110fa565b602090601f8311600114610c4057600092610c35575b50508160011b916000199060031b1c19161782555b60208101518051906001600160401b03821161091c5781906104d0826104c76001880154610f0a565b600188016110fa565b602090601f8311600114610bc357600092610bb8575b50508160011b916000199060031b1c19161760018301555b60408101518051906001600160401b03821161091c578190610530826105276002880154610f0a565b600288016110fa565b602090601f8311600114610b4657600092610b3b575b50508160011b916000199060031b1c19161760028301555b60608101518051906001600160401b03821161091c578190610590826105876003880154610f0a565b600388016110fa565b602090601f8311600114610ac957600092610abe575b50508160011b916000199060031b1c19161760038301555b60808101518051906001600160401b03821161091c5781906105f0826105e76004880154610f0a565b600488016110fa565b602090601f8311600114610a4c57600092610a41575b50508160011b916000199060031b1c19161760048301555b60a08101518051906001600160401b03821161091c5761064e826106456005870154610f0a565b600587016110fa565b602090601f83116001146109ce5760c0939291600091836109c3575b50508160011b916000199060031b1c19161760058401555b01518051906001600160401b03821161091c576106af826106a66006860154610f0a565b600686016110fa565b602090601f8311600114610953576006929160009183610948575b50508160011b916000199060031b1c1916179101555b6002546801000000000000000081101561091c578060016107049201600255610ebd565b9c909c610932576001600160401b03811161091c5761072e818e6107288154610f0a565b906110fa565b60009c601f821160011461085557946107ed946107cb7fe0e34a63ccba5bf0a0eca6b296fb3e27c229cac3cf0ec48e53b6ab9256a569989f956108249f9e9c99956107ba61080f9f9d9a966107dc97816107fe9f9b600091610848575b508260011b906000198460031b1c19161790555b6101006040518060c0525261010060c051019060a05161114e565b9160c051602081850391015261114e565b9160c051604081850391015261114e565b9160c051606081850391015261114e565b9160c051608081850391015261114e565b9160c05160a081850391015261114e565b9060c05160c08184039101526101205161114e565b60c05160e081830391015261084160c0519160805160e05161114e565b0360c051a1005b905060a05101353861078b565b80600052602060002060006101005260a051610140525b601f19831661010051106108f957946107cb7fe0e34a63ccba5bf0a0eca6b296fb3e27c229cac3cf0ec48e53b6ab9256a569989f956108249f9e9c99956107ba61080f9f9d9a95966107dc976107ed9b6107fe9f9b83601f198116106108dc575b5050600182811b01905561079f565b610140510135600019600385901b60f8161c1916905538806108cd565b60018f916020926101405101358155019e0160206101005101610100529d61086c565b634e487b7160e01b600052604160045260246000fd5b634e487b7160e01b600052600060045260246000fd5b0151905038806106ca565b906006840160005260206000209160005b601f19851681106109ab5750918391600193600695601f19811610610992575b505050811b019101556106e0565b015160001960f88460031b161c19169055388080610984565b91926020600181928685015181550194019201610964565b01519050388061066a565b906005850160005260206000209160005b601f1985168110610a29575091839160019360c09695601f19811610610a10575b505050811b016005840155610682565b015160001960f88460031b161c19169055388080610a00565b919260206001819286850151815501940192016109df565b015190503880610606565b9250600485016000526020600020906000935b601f1984168510610aa3576001945083601f19811610610a8a575b505050811b01600483015561061e565b015160001960f88460031b161c19169055388080610a7a565b81810151835560209485019460019093019290910190610a5f565b0151905038806105a6565b9250600385016000526020600020906000935b601f1984168510610b20576001945083601f19811610610b07575b505050811b0160038301556105be565b015160001960f88460031b161c19169055388080610af7565b81810151835560209485019460019093019290910190610adc565b015190503880610546565b9250600285016000526020600020906000935b601f1984168510610b9d576001945083601f19811610610b84575b505050811b01600283015561055e565b015160001960f88460031b161c19169055388080610b74565b81810151835560209485019460019093019290910190610b59565b0151905038806104e6565b9250600185016000526020600020906000935b601f1984168510610c1a576001945083601f19811610610c01575b505050811b0160018301556104fe565b015160001960f88460031b161c19169055388080610bf1565b81810151835560209485019460019093019290910190610bd6565b015190503880610489565b9250846000526020600020906000935b601f1984168510610c91576001945083601f19811610610c78575b505050811b01825561049e565b015160001960f88460031b161c19169055388080610c6b565b81810151835560209485019460019093019290910190610c50565b60405162461bcd60e51b815260206004820152600b60248201526a139bdd081cdd195dd85c9960aa1b6044820152606490fd5b346100ea5760203660031901126100ea576004356001600160401b0381116100ea576020610d14610dcc92369060040161106e565b9190826040519384928337810160018152030190206100e660405191610d3983610f44565b610d4281610f80565b8352610dda610d5360018301610f80565b9360208101948552610dad6006610d6c60028601610f80565b9460408401958652610d8060038201610f80565b6060850152610d9160048201610f80565b6080850152610da260058201610f80565b60a085015201610f80565b60c0820152519351915191604051958695606087526060870190611049565b908582036020870152611049565b908382036040850152611049565b346100ea5760203660031901126100ea576004356001600160401b0381116100ea576100d260056100cc6100c66100e694369060040161106e565b346100ea5760003660031901126100ea576000546040516001600160a01b039091168152602090f35b346100ea5760203660031901126100ea576004356001600160401b0381116100ea576100d260046100cc6100c66100e6943690840161106e565b346100ea5760203660031901126100ea576004356002548110156100ea57610ead90610ebd565b610932576100d26100e691610f80565b600254811015610ef45760026000527f405787fa12a823e0f2b7631cc41b3ba8828b3321ca811111fa75cd3aa3bb5ace0190600090565b634e487b7160e01b600052603260045260246000fd5b90600182811c92168015610f3a575b6020831014610f2457565b634e487b7160e01b600052602260045260246000fd5b91607f1691610f19565b60e081019081106001600160401b0382111761091c57604052565b90601f801991011681019081106001600160401b0382111761091c57604052565b9060405191826000825492610f9484610f0a565b9081845260019485811690816000146110035750600114610fc0575b5050610fbe92500383610f5f565b565b9093915060005260209081600020936000915b818310610feb575050610fbe93508201013880610fb0565b85548884018501529485019487945091830191610fd3565b915050610fbe94506020925060ff191682840152151560051b8201013880610fb0565b60005b8381106110395750506000910152565b8181015183820152602001611029565b9060209161106281518092818552858086019101611026565b601f01601f1916010190565b9181601f840112156100ea578235916001600160401b0383116100ea57602083818601950101116100ea57565b9291926001600160401b03821161091c57604051916110c4601f8201601f191660200184610f5f565b8294818452818301116100ea578281602093846000960137010152565b6020908260405193849283378101600181520301902090565b90601f811161110857505050565b600091825260208220906020601f850160051c83019410611144575b601f0160051c01915b82811061113957505050565b81815560010161112d565b9092508290611124565b908060209392818452848401376000828201840152601f01601f191601019056fea26469706673582212208483b83c08acd5d77201bdf3e70e7b9c3c42b070e740d35f6b977466be9a0aa064736f6c63430008140033","opcodes":"PUSH1 0x80 DUP1 PUSH1 0x40 MSTORE CALLVALUE PUSH2 0x28 JUMPI PUSH1 0x0 DUP1 SLOAD PUSH1 0x1 PUSH1 0x1 PUSH1 0xA0 SHL SUB NOT AND CALLER OR SWAP1 SSTORE PUSH2 0x11A5 SWAP1 DUP2 PUSH2 0x2E DUP3 CODECOPY RETURN JUMPDEST PUSH1 0x0 DUP1 REVERT INVALID PUSH2 0x160 PUSH1 0x40 MSTORE PUSH1 0x4 CALLDATASIZE LT ISZERO PUSH2 0x13 JUMPI PUSH1 0x0 DUP1 REVERT JUMPDEST PUSH1 0x0 CALLDATALOAD PUSH1 0xE0 SHR DUP1 PUSH4 0xCB6AAF1 EQ PUSH2 0xE86 JUMPI DUP1 PUSH4 0x46B41068 EQ PUSH2 0xE4C JUMPI DUP1 PUSH4 0x637EEA19 EQ PUSH2 0xE23 JUMPI DUP1 PUSH4 0x7BEB4107 EQ PUSH2 0xDE8 JUMPI DUP1 PUSH4 0x83361522 EQ PUSH2 0xCDF JUMPI DUP1 PUSH4 0xAD46E9B5 EQ PUSH2 0x27C JUMPI DUP1 PUSH4 0xC212D16B EQ PUSH2 0x25E JUMPI DUP1 PUSH4 0xDBC21424 EQ PUSH2 0x12A JUMPI DUP1 PUSH4 0xE206F33E EQ PUSH2 0xEF JUMPI PUSH4 0xF44571F9 EQ PUSH2 0x8B JUMPI PUSH1 0x0 DUP1 REVERT JUMPDEST CALLVALUE PUSH2 0xEA JUMPI PUSH1 0x20 CALLDATASIZE PUSH1 0x3 NOT ADD SLT PUSH2 0xEA JUMPI PUSH1 0x4 CALLDATALOAD PUSH1 0x1 PUSH1 0x1 PUSH1 0x40 SHL SUB DUP2 GT PUSH2 0xEA JUMPI PUSH2 0xD2 PUSH1 0x3 PUSH2 0xCC PUSH2 0xC6 PUSH2 0xE6 SWAP5 CALLDATASIZE SWAP1 PUSH1 0x4 ADD PUSH2 0x106E JUMP JUMPDEST SWAP1 PUSH2 0x10E1 JUMP JUMPDEST ADD PUSH2 0xF80 JUMP JUMPDEST PUSH1 0x40 MLOAD SWAP2 DUP3 SWAP2 PUSH1 0x20 DUP4 MSTORE PUSH1 0x20 DUP4 ADD SWAP1 PUSH2 0x1049 JUMP JUMPDEST SUB SWAP1 RETURN JUMPDEST PUSH1 0x0 DUP1 REVERT JUMPDEST CALLVALUE PUSH2 0xEA JUMPI PUSH1 0x20 CALLDATASIZE PUSH1 0x3 NOT ADD SLT PUSH2 0xEA JUMPI PUSH1 0x4 CALLDATALOAD PUSH1 0x1 PUSH1 0x1 PUSH1 0x40 SHL SUB DUP2 GT PUSH2 0xEA JUMPI PUSH2 0xD2 PUSH1 0x6 PUSH2 0xCC PUSH2 0xC6 PUSH2 0xE6 SWAP5 CALLDATASIZE SWAP1 PUSH1 0x4 ADD PUSH2 0x106E JUMP JUMPDEST CALLVALUE PUSH2 0xEA JUMPI PUSH1 0x20 CALLDATASIZE PUSH1 0x3 NOT ADD SLT PUSH2 0xEA JUMPI PUSH1 0x4 CALLDATALOAD PUSH1 0x1 PUSH1 0x1 PUSH1 0x40 SHL SUB DUP2 GT PUSH2 0xEA JUMPI CALLDATASIZE PUSH1 0x23 DUP3 ADD SLT ISZERO PUSH2 0xEA JUMPI PUSH1 0x20 PUSH2 0x170 PUSH2 0x183 SWAP3 CALLDATASIZE SWAP1 PUSH1 0x24 DUP2 PUSH1 0x4 ADD CALLDATALOAD SWAP2 ADD PUSH2 0x109B JUMP JUMPDEST DUP2 PUSH1 0x40 MLOAD SWAP4 DUP3 DUP6 DUP1 SWAP5 MLOAD SWAP4 DUP5 SWAP3 ADD PUSH2 0x1026 JUMP JUMPDEST DUP2 ADD PUSH1 0x1 DUP2 MSTORE SUB ADD SWAP1 KECCAK256 PUSH1 0xE0 PUSH2 0xE6 PUSH2 0x19B DUP4 PUSH2 0xF80 JUMP JUMPDEST SWAP3 PUSH2 0x250 PUSH2 0x1AB PUSH1 0x1 DUP4 ADD PUSH2 0xF80 JUMP JUMPDEST SWAP2 PUSH2 0x242 PUSH2 0x1BB PUSH1 0x2 DUP4 ADD PUSH2 0xF80 JUMP JUMPDEST PUSH2 0x234 PUSH2 0x1CA PUSH1 0x3 DUP6 ADD PUSH2 0xF80 JUMP JUMPDEST PUSH2 0x226 PUSH2 0x1D9 PUSH1 0x4 DUP8 ADD PUSH2 0xF80 JUMP JUMPDEST SWAP4 PUSH2 0x218 PUSH2 0x1F5 PUSH1 0x6 PUSH2 0x1EE PUSH1 0x5 DUP12 ADD PUSH2 0xF80 JUMP JUMPDEST SWAP10 ADD PUSH2 0xF80 JUMP JUMPDEST SWAP10 PUSH2 0x20A PUSH1 0x40 MLOAD SWAP15 DUP16 SWAP15 DUP16 DUP2 DUP2 MSTORE ADD SWAP1 PUSH2 0x1049 JUMP JUMPDEST DUP14 DUP2 SUB PUSH1 0x20 DUP16 ADD MSTORE SWAP1 PUSH2 0x1049 JUMP JUMPDEST SWAP1 DUP12 DUP3 SUB PUSH1 0x40 DUP14 ADD MSTORE PUSH2 0x1049 JUMP JUMPDEST SWAP1 DUP10 DUP3 SUB PUSH1 0x60 DUP12 ADD MSTORE PUSH2 0x1049 JUMP JUMPDEST SWAP1 DUP8 DUP3 SUB PUSH1 0x80 DUP10 ADD MSTORE PUSH2 0x1049 JUMP JUMPDEST SWAP1 DUP6 DUP3 SUB PUSH1 0xA0 DUP8 ADD MSTORE PUSH2 0x1049 JUMP JUMPDEST SWAP1 DUP4 DUP3 SUB PUSH1 0xC0 DUP6 ADD MSTORE PUSH2 0x1049 JUMP JUMPDEST CALLVALUE PUSH2 0xEA JUMPI PUSH1 0x0 CALLDATASIZE PUSH1 0x3 NOT ADD SLT PUSH2 0xEA JUMPI PUSH1 0x20 PUSH1 0x2 SLOAD PUSH1 0x40 MLOAD SWAP1 DUP2 MSTORE RETURN JUMPDEST CALLVALUE PUSH2 0xEA JUMPI PUSH2 0x100 CALLDATASIZE PUSH1 0x3 NOT ADD SLT PUSH2 0xEA JUMPI PUSH1 0x4 CALLDATALOAD PUSH1 0x1 PUSH1 0x1 PUSH1 0x40 SHL SUB DUP2 GT PUSH2 0xEA JUMPI PUSH2 0x2AD SWAP1 CALLDATASIZE SWAP1 PUSH1 0x4 ADD PUSH2 0x106E JUMP JUMPDEST SWAP1 PUSH1 0xA0 MSTORE PUSH1 0x24 CALLDATALOAD PUSH1 0x1 PUSH1 0x1 PUSH1 0x40 SHL SUB DUP2 GT PUSH2 0xEA JUMPI PUSH2 0x2D0 SWAP1 CALLDATASIZE SWAP1 PUSH1 0x4 ADD PUSH2 0x106E JUMP JUMPDEST SWAP1 PUSH1 0x44 CALLDATALOAD PUSH1 0x1 PUSH1 0x1 PUSH1 0x40 SHL SUB DUP2 GT PUSH2 0xEA JUMPI PUSH2 0x2F0 SWAP1 CALLDATASIZE SWAP1 PUSH1 0x4 ADD PUSH2 0x106E JUMP JUMPDEST SWAP1 PUSH1 0x64 CALLDATALOAD PUSH1 0x1 PUSH1 0x1 PUSH1 0x40 SHL SUB DUP2 GT PUSH2 0xEA JUMPI PUSH2 0x310 SWAP1 CALLDATASIZE SWAP1 PUSH1 0x4 ADD PUSH2 0x106E JUMP JUMPDEST SWAP1 PUSH1 0x84 CALLDATALOAD PUSH1 0x1 PUSH1 0x1 PUSH1 0x40 SHL SUB DUP2 GT PUSH2 0xEA JUMPI PUSH2 0x330 SWAP1 CALLDATASIZE SWAP1 PUSH1 0x4 ADD PUSH2 0x106E JUMP JUMPDEST SWAP3 SWAP1 SWAP4 PUSH1 0xA4 CALLDATALOAD PUSH1 0x1 PUSH1 0x1 PUSH1 0x40 SHL SUB DUP2 GT PUSH2 0xEA JUMPI PUSH2 0x352 SWAP1 CALLDATASIZE SWAP1 PUSH1 0x4 ADD PUSH2 0x106E JUMP JUMPDEST SWAP7 SWAP1 SWAP8 PUSH1 0xC4 CALLDATALOAD PUSH1 0x1 PUSH1 0x1 PUSH1 0x40 SHL SUB DUP2 GT PUSH2 0xEA JUMPI PUSH2 0x374 SWAP1 CALLDATASIZE SWAP1 PUSH1 0x4 ADD PUSH2 0x106E JUMP JUMPDEST SWAP1 PUSH2 0x120 MSTORE SWAP10 PUSH1 0x1 PUSH1 0x1 PUSH1 0x40 SHL SUB PUSH1 0xE4 CALLDATALOAD GT PUSH2 0xEA JUMPI PUSH2 0x399 CALLDATASIZE PUSH1 0xE4 CALLDATALOAD PUSH1 0x4 ADD PUSH2 0x106E JUMP JUMPDEST PUSH1 0x80 MSTORE PUSH1 0xE0 MSTORE PUSH1 0x0 SLOAD PUSH1 0x1 PUSH1 0x1 PUSH1 0xA0 SHL SUB AND CALLER SUB PUSH2 0xCAC JUMPI PUSH1 0x40 MLOAD PUSH2 0x3BD DUP2 PUSH2 0xF44 JUMP JUMPDEST PUSH2 0x3C8 CALLDATASIZE DUP4 DUP6 PUSH2 0x109B JUMP JUMPDEST DUP2 MSTORE PUSH2 0x3D5 CALLDATASIZE DUP6 DUP8 PUSH2 0x109B JUMP JUMPDEST PUSH1 0x20 DUP3 ADD MSTORE PUSH2 0x3E5 CALLDATASIZE DUP8 DUP10 PUSH2 0x109B JUMP JUMPDEST PUSH1 0x40 DUP3 ADD MSTORE PUSH2 0x3F5 CALLDATASIZE DUP10 DUP12 PUSH2 0x109B JUMP JUMPDEST PUSH1 0x60 DUP3 ADD MSTORE PUSH2 0x405 CALLDATASIZE DUP12 DUP14 PUSH2 0x109B JUMP JUMPDEST PUSH1 0x80 DUP3 ADD MSTORE PUSH2 0x418 CALLDATASIZE DUP14 PUSH2 0x120 MLOAD PUSH2 0x109B JUMP JUMPDEST PUSH1 0xA0 DUP3 ADD MSTORE PUSH2 0x42C CALLDATASIZE PUSH1 0x80 MLOAD PUSH1 0xE0 MLOAD PUSH2 0x109B JUMP JUMPDEST PUSH1 0xC0 DUP3 ADD MSTORE DUP13 PUSH1 0x20 PUSH1 0x40 MLOAD DUP3 DUP2 SWAP4 PUSH1 0xA0 MLOAD DUP4 CALLDATACOPY DUP2 ADD PUSH1 0x1 DUP2 MSTORE SUB ADD SWAP1 KECCAK256 SWAP1 DUP1 MLOAD DUP1 MLOAD SWAP1 PUSH1 0x1 PUSH1 0x1 PUSH1 0x40 SHL SUB DUP3 GT PUSH2 0x91C JUMPI DUP2 SWAP1 PUSH2 0x473 DUP3 PUSH2 0x46D DUP8 SLOAD PUSH2 0xF0A JUMP JUMPDEST DUP8 PUSH2 0x10FA JUMP JUMPDEST PUSH1 0x20 SWAP1 PUSH1 0x1F DUP4 GT PUSH1 0x1 EQ PUSH2 0xC40 JUMPI PUSH1 0x0 SWAP3 PUSH2 0xC35 JUMPI JUMPDEST POP POP DUP2 PUSH1 0x1 SHL SWAP2 PUSH1 0x0 NOT SWAP1 PUSH1 0x3 SHL SHR NOT AND OR DUP3 SSTORE JUMPDEST PUSH1 0x20 DUP2 ADD MLOAD DUP1 MLOAD SWAP1 PUSH1 0x1 PUSH1 0x1 PUSH1 0x40 SHL SUB DUP3 GT PUSH2 0x91C JUMPI DUP2 SWAP1 PUSH2 0x4D0 DUP3 PUSH2 0x4C7 PUSH1 0x1 DUP9 ADD SLOAD PUSH2 0xF0A JUMP JUMPDEST PUSH1 0x1 DUP9 ADD PUSH2 0x10FA JUMP JUMPDEST PUSH1 0x20 SWAP1 PUSH1 0x1F DUP4 GT PUSH1 0x1 EQ PUSH2 0xBC3 JUMPI PUSH1 0x0 SWAP3 PUSH2 0xBB8 JUMPI JUMPDEST POP POP DUP2 PUSH1 0x1 SHL SWAP2 PUSH1 0x0 NOT SWAP1 PUSH1 0x3 SHL SHR NOT AND OR PUSH1 0x1 DUP4 ADD SSTORE JUMPDEST PUSH1 0x40 DUP2 ADD MLOAD DUP1 MLOAD SWAP1 PUSH1 0x1 PUSH1 0x1 PUSH1 0x40 SHL SUB DUP3 GT PUSH2 0x91C JUMPI DUP2 SWAP1 PUSH2 0x530 DUP3 PUSH2 0x527 PUSH1 0x2 DUP9 ADD SLOAD PUSH2 0xF0A JUMP JUMPDEST PUSH1 0x2 DUP9 ADD PUSH2 0x10FA JUMP JUMPDEST PUSH1 0x20 SWAP1 PUSH1 0x1F DUP4 GT PUSH1 0x1 EQ PUSH2 0xB46 JUMPI PUSH1 0x0 SWAP3 PUSH2 0xB3B JUMPI JUMPDEST POP POP DUP2 PUSH1 0x1 SHL SWAP2 PUSH1 0x0 NOT SWAP1 PUSH1 0x3 SHL SHR NOT AND OR PUSH1 0x2 DUP4 ADD SSTORE JUMPDEST PUSH1 0x60 DUP2 ADD MLOAD DUP1 MLOAD SWAP1 PUSH1 0x1 PUSH1 0x1 PUSH1 0x40 SHL SUB DUP3 GT PUSH2 0x91C JUMPI DUP2 SWAP1 PUSH2 0x590 DUP3 PUSH2 0x587 PUSH1 0x3 DUP9 ADD SLOAD PUSH2 0xF0A JUMP JUMPDEST PUSH1 0x3 DUP9 ADD PUSH2 0x10FA JUMP JUMPDEST PUSH1 0x20 SWAP1 PUSH1 0x1F DUP4 GT PUSH1 0x1 EQ PUSH2 0xAC9 JUMPI PUSH1 0x0 SWAP3 PUSH2 0xABE JUMPI JUMPDEST POP POP DUP2 PUSH1 0x1 SHL SWAP2 PUSH1 0x0 NOT SWAP1 PUSH1 0x3 SHL SHR NOT AND OR PUSH1 0x3 DUP4 ADD SSTORE JUMPDEST PUSH1 0x80 DUP2 ADD MLOAD DUP1 MLOAD SWAP1 PUSH1 0x1 PUSH1 0x1 PUSH1 0x40 SHL SUB DUP3 GT PUSH2 0x91C JUMPI DUP2 SWAP1 PUSH2 0x5F0 DUP3 PUSH2 0x5E7 PUSH1 0x4 DUP9 ADD SLOAD PUSH2 0xF0A JUMP JUMPDEST PUSH1 0x4 DUP9 ADD PUSH2 0x10FA JUMP JUMPDEST PUSH1 0x20 SWAP1 PUSH1 0x1F DUP4 GT PUSH1 0x1 EQ PUSH2 0xA4C JUMPI PUSH1 0x0 SWAP3 PUSH2 0xA41 JUMPI JUMPDEST POP POP DUP2 PUSH1 0x1 SHL SWAP2 PUSH1 0x0 NOT SWAP1 PUSH1 0x3 SHL SHR NOT AND OR PUSH1 0x4 DUP4 ADD SSTORE JUMPDEST PUSH1 0xA0 DUP2 ADD MLOAD DUP1 MLOAD SWAP1 PUSH1 0x1 PUSH1 0x1 PUSH1 0x40 SHL SUB DUP3 GT PUSH2 0x91C JUMPI PUSH2 0x64E DUP3 PUSH2 0x645 PUSH1 0x5 DUP8 ADD SLOAD PUSH2 0xF0A JUMP JUMPDEST PUSH1 0x5 DUP8 ADD PUSH2 0x10FA JUMP JUMPDEST PUSH1 0x20 SWAP1 PUSH1 0x1F DUP4 GT PUSH1 0x1 EQ PUSH2 0x9CE JUMPI PUSH1 0xC0 SWAP4 SWAP3 SWAP2 PUSH1 0x0 SWAP2 DUP4 PUSH2 0x9C3 JUMPI JUMPDEST POP POP DUP2 PUSH1 0x1 SHL SWAP2 PUSH1 0x0 NOT SWAP1 PUSH1 0x3 SHL SHR NOT AND OR PUSH1 0x5 DUP5 ADD SSTORE JUMPDEST ADD MLOAD DUP1 MLOAD SWAP1 PUSH1 0x1 PUSH1 0x1 PUSH1 0x40 SHL SUB DUP3 GT PUSH2 0x91C JUMPI PUSH2 0x6AF DUP3 PUSH2 0x6A6 PUSH1 0x6 DUP7 ADD SLOAD PUSH2 0xF0A JUMP JUMPDEST PUSH1 0x6 DUP7 ADD PUSH2 0x10FA JUMP JUMPDEST PUSH1 0x20 SWAP1 PUSH1 0x1F DUP4 GT PUSH1 0x1 EQ PUSH2 0x953 JUMPI PUSH1 0x6 SWAP3 SWAP2 PUSH1 0x0 SWAP2 DUP4 PUSH2 0x948 JUMPI JUMPDEST POP POP DUP2 PUSH1 0x1 SHL SWAP2 PUSH1 0x0 NOT SWAP1 PUSH1 0x3 SHL SHR NOT AND OR SWAP2 ADD SSTORE JUMPDEST PUSH1 0x2 SLOAD PUSH9 0x10000000000000000 DUP2 LT ISZERO PUSH2 0x91C JUMPI DUP1 PUSH1 0x1 PUSH2 0x704 SWAP3 ADD PUSH1 0x2 SSTORE PUSH2 0xEBD JUMP JUMPDEST SWAP13 SWAP1 SWAP13 PUSH2 0x932 JUMPI PUSH1 0x1 PUSH1 0x1 PUSH1 0x40 SHL SUB DUP2 GT PUSH2 0x91C JUMPI PUSH2 0x72E DUP2 DUP15 PUSH2 0x728 DUP2 SLOAD PUSH2 0xF0A JUMP JUMPDEST SWAP1 PUSH2 0x10FA JUMP JUMPDEST PUSH1 0x0 SWAP13 PUSH1 0x1F DUP3 GT PUSH1 0x1 EQ PUSH2 0x855 JUMPI SWAP5 PUSH2 0x7ED SWAP5 PUSH2 0x7CB PUSH32 0xE0E34A63CCBA5BF0A0ECA6B296FB3E27C229CAC3CF0EC48E53B6AB9256A56998 SWAP16 SWAP6 PUSH2 0x824 SWAP16 SWAP15 SWAP13 SWAP10 SWAP6 PUSH2 0x7BA PUSH2 0x80F SWAP16 SWAP14 SWAP11 SWAP7 PUSH2 0x7DC SWAP8 DUP2 PUSH2 0x7FE SWAP16 SWAP12 PUSH1 0x0 SWAP2 PUSH2 0x848 JUMPI JUMPDEST POP DUP3 PUSH1 0x1 SHL SWAP1 PUSH1 0x0 NOT DUP5 PUSH1 0x3 SHL SHR NOT AND OR SWAP1 SSTORE JUMPDEST PUSH2 0x100 PUSH1 0x40 MLOAD DUP1 PUSH1 0xC0 MSTORE MSTORE PUSH2 0x100 PUSH1 0xC0 MLOAD ADD SWAP1 PUSH1 0xA0 MLOAD PUSH2 0x114E JUMP JUMPDEST SWAP2 PUSH1 0xC0 MLOAD PUSH1 0x20 DUP2 DUP6 SUB SWAP2 ADD MSTORE PUSH2 0x114E JUMP JUMPDEST SWAP2 PUSH1 0xC0 MLOAD PUSH1 0x40 DUP2 DUP6 SUB SWAP2 ADD MSTORE PUSH2 0x114E JUMP JUMPDEST SWAP2 PUSH1 0xC0 MLOAD PUSH1 0x60 DUP2 DUP6 SUB SWAP2 ADD MSTORE PUSH2 0x114E JUMP JUMPDEST SWAP2 PUSH1 0xC0 MLOAD PUSH1 0x80 DUP2 DUP6 SUB SWAP2 ADD MSTORE PUSH2 0x114E JUMP JUMPDEST SWAP2 PUSH1 0xC0 MLOAD PUSH1 0xA0 DUP2 DUP6 SUB SWAP2 ADD MSTORE PUSH2 0x114E JUMP JUMPDEST SWAP1 PUSH1 0xC0 MLOAD PUSH1 0xC0 DUP2 DUP5 SUB SWAP2 ADD MSTORE PUSH2 0x120 MLOAD PUSH2 0x114E JUMP JUMPDEST PUSH1 0xC0 MLOAD PUSH1 0xE0 DUP2 DUP4 SUB SWAP2 ADD MSTORE PUSH2 0x841 PUSH1 0xC0 MLOAD SWAP2 PUSH1 0x80 MLOAD PUSH1 0xE0 MLOAD PUSH2 0x114E JUMP JUMPDEST SUB PUSH1 0xC0 MLOAD LOG1 STOP JUMPDEST SWAP1 POP PUSH1 0xA0 MLOAD ADD CALLDATALOAD CODESIZE PUSH2 0x78B JUMP JUMPDEST DUP1 PUSH1 0x0 MSTORE PUSH1 0x20 PUSH1 0x0 KECCAK256 PUSH1 0x0 PUSH2 0x100 MSTORE PUSH1 0xA0 MLOAD PUSH2 0x140 MSTORE JUMPDEST PUSH1 0x1F NOT DUP4 AND PUSH2 0x100 MLOAD LT PUSH2 0x8F9 JUMPI SWAP5 PUSH2 0x7CB PUSH32 0xE0E34A63CCBA5BF0A0ECA6B296FB3E27C229CAC3CF0EC48E53B6AB9256A56998 SWAP16 SWAP6 PUSH2 0x824 SWAP16 SWAP15 SWAP13 SWAP10 SWAP6 PUSH2 0x7BA PUSH2 0x80F SWAP16 SWAP14 SWAP11 SWAP6 SWAP7 PUSH2 0x7DC SWAP8 PUSH2 0x7ED SWAP12 PUSH2 0x7FE SWAP16 SWAP12 DUP4 PUSH1 0x1F NOT DUP2 AND LT PUSH2 0x8DC JUMPI JUMPDEST POP POP PUSH1 0x1 DUP3 DUP2 SHL ADD SWAP1 SSTORE PUSH2 0x79F JUMP JUMPDEST PUSH2 0x140 MLOAD ADD CALLDATALOAD PUSH1 0x0 NOT PUSH1 0x3 DUP6 SWAP1 SHL PUSH1 0xF8 AND SHR NOT AND SWAP1 SSTORE CODESIZE DUP1 PUSH2 0x8CD JUMP JUMPDEST PUSH1 0x1 DUP16 SWAP2 PUSH1 0x20 SWAP3 PUSH2 0x140 MLOAD ADD CALLDATALOAD DUP2 SSTORE ADD SWAP15 ADD PUSH1 0x20 PUSH2 0x100 MLOAD ADD PUSH2 0x100 MSTORE SWAP14 PUSH2 0x86C JUMP JUMPDEST PUSH4 0x4E487B71 PUSH1 0xE0 SHL PUSH1 0x0 MSTORE PUSH1 0x41 PUSH1 0x4 MSTORE PUSH1 0x24 PUSH1 0x0 REVERT JUMPDEST PUSH4 0x4E487B71 PUSH1 0xE0 SHL PUSH1 0x0 MSTORE PUSH1 0x0 PUSH1 0x4 MSTORE PUSH1 0x24 PUSH1 0x0 REVERT JUMPDEST ADD MLOAD SWAP1 POP CODESIZE DUP1 PUSH2 0x6CA JUMP JUMPDEST SWAP1 PUSH1 0x6 DUP5 ADD PUSH1 0x0 MSTORE PUSH1 0x20 PUSH1 0x0 KECCAK256 SWAP2 PUSH1 0x0 JUMPDEST PUSH1 0x1F NOT DUP6 AND DUP2 LT PUSH2 0x9AB JUMPI POP SWAP2 DUP4 SWAP2 PUSH1 0x1 SWAP4 PUSH1 0x6 SWAP6 PUSH1 0x1F NOT DUP2 AND LT PUSH2 0x992 JUMPI JUMPDEST POP POP POP DUP2 SHL ADD SWAP2 ADD SSTORE PUSH2 0x6E0 JUMP JUMPDEST ADD MLOAD PUSH1 0x0 NOT PUSH1 0xF8 DUP5 PUSH1 0x3 SHL AND SHR NOT AND SWAP1 SSTORE CODESIZE DUP1 DUP1 PUSH2 0x984 JUMP JUMPDEST SWAP2 SWAP3 PUSH1 0x20 PUSH1 0x1 DUP2 SWAP3 DUP7 DUP6 ADD MLOAD DUP2 SSTORE ADD SWAP5 ADD SWAP3 ADD PUSH2 0x964 JUMP JUMPDEST ADD MLOAD SWAP1 POP CODESIZE DUP1 PUSH2 0x66A JUMP JUMPDEST SWAP1 PUSH1 0x5 DUP6 ADD PUSH1 0x0 MSTORE PUSH1 0x20 PUSH1 0x0 KECCAK256 SWAP2 PUSH1 0x0 JUMPDEST PUSH1 0x1F NOT DUP6 AND DUP2 LT PUSH2 0xA29 JUMPI POP SWAP2 DUP4 SWAP2 PUSH1 0x1 SWAP4 PUSH1 0xC0 SWAP7 SWAP6 PUSH1 0x1F NOT DUP2 AND LT PUSH2 0xA10 JUMPI JUMPDEST POP POP POP DUP2 SHL ADD PUSH1 0x5 DUP5 ADD SSTORE PUSH2 0x682 JUMP JUMPDEST ADD MLOAD PUSH1 0x0 NOT PUSH1 0xF8 DUP5 PUSH1 0x3 SHL AND SHR NOT AND SWAP1 SSTORE CODESIZE DUP1 DUP1 PUSH2 0xA00 JUMP JUMPDEST SWAP2 SWAP3 PUSH1 0x20 PUSH1 0x1 DUP2 SWAP3 DUP7 DUP6 ADD MLOAD DUP2 SSTORE ADD SWAP5 ADD SWAP3 ADD PUSH2 0x9DF JUMP JUMPDEST ADD MLOAD SWAP1 POP CODESIZE DUP1 PUSH2 0x606 JUMP JUMPDEST SWAP3 POP PUSH1 0x4 DUP6 ADD PUSH1 0x0 MSTORE PUSH1 0x20 PUSH1 0x0 KECCAK256 SWAP1 PUSH1 0x0 SWAP4 JUMPDEST PUSH1 0x1F NOT DUP5 AND DUP6 LT PUSH2 0xAA3 JUMPI PUSH1 0x1 SWAP5 POP DUP4 PUSH1 0x1F NOT DUP2 AND LT PUSH2 0xA8A JUMPI JUMPDEST POP POP POP DUP2 SHL ADD PUSH1 0x4 DUP4 ADD SSTORE PUSH2 0x61E JUMP JUMPDEST ADD MLOAD PUSH1 0x0 NOT PUSH1 0xF8 DUP5 PUSH1 0x3 SHL AND SHR NOT AND SWAP1 SSTORE CODESIZE DUP1 DUP1 PUSH2 0xA7A JUMP JUMPDEST DUP2 DUP2 ADD MLOAD DUP4 SSTORE PUSH1 0x20 SWAP5 DUP6 ADD SWAP5 PUSH1 0x1 SWAP1 SWAP4 ADD SWAP3 SWAP1 SWAP2 ADD SWAP1 PUSH2 0xA5F JUMP JUMPDEST ADD MLOAD SWAP1 POP CODESIZE DUP1 PUSH2 0x5A6 JUMP JUMPDEST SWAP3 POP PUSH1 0x3 DUP6 ADD PUSH1 0x0 MSTORE PUSH1 0x20 PUSH1 0x0 KECCAK256 SWAP1 PUSH1 0x0 SWAP4 JUMPDEST PUSH1 0x1F NOT DUP5 AND DUP6 LT PUSH2 0xB20 JUMPI PUSH1 0x1 SWAP5 POP DUP4 PUSH1 0x1F NOT DUP2 AND LT PUSH2 0xB07 JUMPI JUMPDEST POP POP POP DUP2 SHL ADD PUSH1 0x3 DUP4 ADD SSTORE PUSH2 0x5BE JUMP JUMPDEST ADD MLOAD PUSH1 0x0 NOT PUSH1 0xF8 DUP5 PUSH1 0x3 SHL AND SHR NOT AND SWAP1 SSTORE CODESIZE DUP1 DUP1 PUSH2 0xAF7 JUMP JUMPDEST DUP2 DUP2 ADD MLOAD DUP4 SSTORE PUSH1 0x20 SWAP5 DUP6 ADD SWAP5 PUSH1 0x1 SWAP1 SWAP4 ADD SWAP3 SWAP1 SWAP2 ADD SWAP1 PUSH2 0xADC JUMP JUMPDEST ADD MLOAD SWAP1 POP CODESIZE DUP1 PUSH2 0x546 JUMP JUMPDEST SWAP3 POP PUSH1 0x2 DUP6 ADD PUSH1 0x0 MSTORE PUSH1 0x20 PUSH1 0x0 KECCAK256 SWAP1 PUSH1 0x0 SWAP4 JUMPDEST PUSH1 0x1F NOT DUP5 AND DUP6 LT PUSH2 0xB9D JUMPI PUSH1 0x1 SWAP5 POP DUP4 PUSH1 0x1F NOT DUP2 AND LT PUSH2 0xB84 JUMPI JUMPDEST POP POP POP DUP2 SHL ADD PUSH1 0x2 DUP4 ADD SSTORE PUSH2 0x55E JUMP JUMPDEST ADD MLOAD PUSH1 0x0 NOT PUSH1 0xF8 DUP5 PUSH1 0x3 SHL AND SHR NOT AND SWAP1 SSTORE CODESIZE DUP1 DUP1 PUSH2 0xB74 JUMP JUMPDEST DUP2 DUP2 ADD MLOAD DUP4 SSTORE PUSH1 0x20 SWAP5 DUP6 ADD SWAP5 PUSH1 0x1 SWAP1 SWAP4 ADD SWAP3 SWAP1 SWAP2 ADD SWAP1 PUSH2 0xB59 JUMP JUMPDEST ADD MLOAD SWAP1 POP CODESIZE DUP1 PUSH2 0x4E6 JUMP JUMPDEST SWAP3 POP PUSH1 0x1 DUP6 ADD PUSH1 0x0 MSTORE PUSH1 0x20 PUSH1 0x0 KECCAK256 SWAP1 PUSH1 0x0 SWAP4 JUMPDEST PUSH1 0x1F NOT DUP5 AND DUP6 LT PUSH2 0xC1A JUMPI PUSH1 0x1 SWAP5 POP DUP4 PUSH1 0x1F NOT DUP2 AND LT PUSH2 0xC01 JUMPI JUMPDEST POP POP POP DUP2 SHL ADD PUSH1 0x1 DUP4 ADD SSTORE PUSH2 0x4FE JUMP JUMPDEST ADD MLOAD PUSH1 0x0 NOT PUSH1 0xF8 DUP5 PUSH1 0x3 SHL AND SHR NOT AND SWAP1 SSTORE CODESIZE DUP1 DUP1 PUSH2 0xBF1 JUMP JUMPDEST DUP2 DUP2 ADD MLOAD DUP4 SSTORE PUSH1 0x20 SWAP5 DUP6 ADD SWAP5 PUSH1 0x1 SWAP1 SWAP4 ADD SWAP3 SWAP1 SWAP2 ADD SWAP1 PUSH2 0xBD6 JUMP JUMPDEST ADD MLOAD SWAP1 POP CODESIZE DUP1 PUSH2 0x489 JUMP JUMPDEST SWAP3 POP DUP5 PUSH1 0x0 MSTORE PUSH1 0x20 PUSH1 0x0 KECCAK256 SWAP1 PUSH1 0x0 SWAP4 JUMPDEST PUSH1 0x1F NOT DUP5 AND DUP6 LT PUSH2 0xC91 JUMPI PUSH1 0x1 SWAP5 POP DUP4 PUSH1 0x1F NOT DUP2 AND LT PUSH2 0xC78 JUMPI JUMPDEST POP POP POP DUP2 SHL ADD DUP3 SSTORE PUSH2 0x49E JUMP JUMPDEST ADD MLOAD PUSH1 0x0 NOT PUSH1 0xF8 DUP5 PUSH1 0x3 SHL AND SHR NOT AND SWAP1 SSTORE CODESIZE DUP1 DUP1 PUSH2 0xC6B JUMP JUMPDEST DUP2 DUP2 ADD MLOAD DUP4 SSTORE PUSH1 0x20 SWAP5 DUP6 ADD SWAP5 PUSH1 0x1 SWAP1 SWAP4 ADD SWAP3 SWAP1 SWAP2 ADD SWAP1 PUSH2 0xC50 JUMP JUMPDEST PUSH1 0x40 MLOAD PUSH3 0x461BCD PUSH1 0xE5 SHL DUP2 MSTORE PUSH1 0x20 PUSH1 0x4 DUP3 ADD MSTORE PUSH1 0xB PUSH1 0x24 DUP3 ADD MSTORE PUSH11 0x139BDD081CDD195DD85C99 PUSH1 0xAA SHL PUSH1 0x44 DUP3 ADD MSTORE PUSH1 0x64 SWAP1 REVERT JUMPDEST CALLVALUE PUSH2 0xEA JUMPI PUSH1 0x20 CALLDATASIZE PUSH1 0x3 NOT ADD SLT PUSH2 0xEA JUMPI PUSH1 0x4 CALLDATALOAD PUSH1 0x1 PUSH1 0x1 PUSH1 0x40 SHL SUB DUP2 GT PUSH2 0xEA JUMPI PUSH1 0x20 PUSH2 0xD14 PUSH2 0xDCC SWAP3 CALLDATASIZE SWAP1 PUSH1 0x4 ADD PUSH2 0x106E JUMP JUMPDEST SWAP2 SWAP1 DUP3 PUSH1 0x40 MLOAD SWAP4 DUP5 SWAP3 DUP4 CALLDATACOPY DUP2 ADD PUSH1 0x1 DUP2 MSTORE SUB ADD SWAP1 KECCAK256 PUSH2 0xE6 PUSH1 0x40 MLOAD SWAP2 PUSH2 0xD39 DUP4 PUSH2 0xF44 JUMP JUMPDEST PUSH2 0xD42 DUP2 PUSH2 0xF80 JUMP JUMPDEST DUP4 MSTORE PUSH2 0xDDA PUSH2 0xD53 PUSH1 0x1 DUP4 ADD PUSH2 0xF80 JUMP JUMPDEST SWAP4 PUSH1 0x20 DUP2 ADD SWAP5 DUP6 MSTORE PUSH2 0xDAD PUSH1 0x6 PUSH2 0xD6C PUSH1 0x2 DUP7 ADD PUSH2 0xF80 JUMP JUMPDEST SWAP5 PUSH1 0x40 DUP5 ADD SWAP6 DUP7 MSTORE PUSH2 0xD80 PUSH1 0x3 DUP3 ADD PUSH2 0xF80 JUMP JUMPDEST PUSH1 0x60 DUP6 ADD MSTORE PUSH2 0xD91 PUSH1 0x4 DUP3 ADD PUSH2 0xF80 JUMP JUMPDEST PUSH1 0x80 DUP6 ADD MSTORE PUSH2 0xDA2 PUSH1 0x5 DUP3 ADD PUSH2 0xF80 JUMP JUMPDEST PUSH1 0xA0 DUP6 ADD MSTORE ADD PUSH2 0xF80 JUMP JUMPDEST PUSH1 0xC0 DUP3 ADD MSTORE MLOAD SWAP4 MLOAD SWAP2 MLOAD SWAP2 PUSH1 0x40 MLOAD SWAP6 DUP7 SWAP6 PUSH1 0x60 DUP8 MSTORE PUSH1 0x60 DUP8 ADD SWAP1 PUSH2 0x1049 JUMP JUMPDEST SWAP1 DUP6 DUP3 SUB PUSH1 0x20 DUP8 ADD MSTORE PUSH2 0x1049 JUMP JUMPDEST SWAP1 DUP4 DUP3 SUB PUSH1 0x40 DUP6 ADD MSTORE PUSH2 0x1049 JUMP JUMPDEST CALLVALUE PUSH2 0xEA JUMPI PUSH1 0x20 CALLDATASIZE PUSH1 0x3 NOT ADD SLT PUSH2 0xEA JUMPI PUSH1 0x4 CALLDATALOAD PUSH1 0x1 PUSH1 0x1 PUSH1 0x40 SHL SUB DUP2 GT PUSH2 0xEA JUMPI PUSH2 0xD2 PUSH1 0x5 PUSH2 0xCC PUSH2 0xC6 PUSH2 0xE6 SWAP5 CALLDATASIZE SWAP1 PUSH1 0x4 ADD PUSH2 0x106E JUMP JUMPDEST CALLVALUE PUSH2 0xEA JUMPI PUSH1 0x0 CALLDATASIZE PUSH1 0x3 NOT ADD SLT PUSH2 0xEA JUMPI PUSH1 0x0 SLOAD PUSH1 0x40 MLOAD PUSH1 0x1 PUSH1 0x1 PUSH1 0xA0 SHL SUB SWAP1 SWAP2 AND DUP2 MSTORE PUSH1 0x20 SWAP1 RETURN JUMPDEST CALLVALUE PUSH2 0xEA JUMPI PUSH1 0x20 CALLDATASIZE PUSH1 0x3 NOT ADD SLT PUSH2 0xEA JUMPI PUSH1 0x4 CALLDATALOAD PUSH1 0x1 PUSH1 0x1 PUSH1 0x40 SHL SUB DUP2 GT PUSH2 0xEA JUMPI PUSH2 0xD2 PUSH1 0x4 PUSH2 0xCC PUSH2 0xC6 PUSH2 0xE6 SWAP5 CALLDATASIZE SWAP1 DUP5 ADD PUSH2 0x106E JUMP JUMPDEST CALLVALUE PUSH2 0xEA JUMPI PUSH1 0x20 CALLDATASIZE PUSH1 0x3 NOT ADD SLT PUSH2 0xEA JUMPI PUSH1 0x4 CALLDATALOAD PUSH1 0x2 SLOAD DUP2 LT ISZERO PUSH2 0xEA JUMPI PUSH2 0xEAD SWAP1 PUSH2 0xEBD JUMP JUMPDEST PUSH2 0x932 JUMPI PUSH2 0xD2 PUSH2 0xE6 SWAP2 PUSH2 0xF80 JUMP JUMPDEST PUSH1 0x2 SLOAD DUP2 LT ISZERO PUSH2 0xEF4 JUMPI PUSH1 0x2 PUSH1 0x0 MSTORE PUSH32 0x405787FA12A823E0F2B7631CC41B3BA8828B3321CA811111FA75CD3AA3BB5ACE ADD SWAP1 PUSH1 0x0 SWAP1 JUMP JUMPDEST PUSH4 0x4E487B71 PUSH1 0xE0 SHL PUSH1 0x0 MSTORE PUSH1 0x32 PUSH1 0x4 MSTORE PUSH1 0x24 PUSH1 0x0 REVERT JUMPDEST SWAP1 PUSH1 0x1 DUP3 DUP2 SHR SWAP3 AND DUP1 ISZERO PUSH2 0xF3A JUMPI JUMPDEST PUSH1 0x20 DUP4 LT EQ PUSH2 0xF24 JUMPI JUMP JUMPDEST PUSH4 0x4E487B71 PUSH1 0xE0 SHL PUSH1 0x0 MSTORE PUSH1 0x22 PUSH1 0x4 MSTORE PUSH1 0x24 PUSH1 0x0 REVERT JUMPDEST SWAP2 PUSH1 0x7F AND SWAP2 PUSH2 0xF19 JUMP JUMPDEST PUSH1 0xE0 DUP2 ADD SWAP1 DUP2 LT PUSH1 0x1 PUSH1 0x1 PUSH1 0x40 SHL SUB DUP3 GT OR PUSH2 0x91C JUMPI PUSH1 0x40 MSTORE JUMP JUMPDEST SWAP1 PUSH1 0x1F DUP1 NOT SWAP2 ADD AND DUP2 ADD SWAP1 DUP2 LT PUSH1 0x1 PUSH1 0x1 PUSH1 0x40 SHL SUB DUP3 GT OR PUSH2 0x91C JUMPI PUSH1 0x40 MSTORE JUMP JUMPDEST SWAP1 PUSH1 0x40 MLOAD SWAP2 DUP3 PUSH1 0x0 DUP3 SLOAD SWAP3 PUSH2 0xF94 DUP5 PUSH2 0xF0A JUMP JUMPDEST SWAP1 DUP2 DUP5 MSTORE PUSH1 0x1 SWAP5 DUP6 DUP2 AND SWAP1 DUP2 PUSH1 0x0 EQ PUSH2 0x1003 JUMPI POP PUSH1 0x1 EQ PUSH2 0xFC0 JUMPI JUMPDEST POP POP PUSH2 0xFBE SWAP3 POP SUB DUP4 PUSH2 0xF5F JUMP JUMPDEST JUMP JUMPDEST SWAP1 SWAP4 SWAP2 POP PUSH1 0x0 MSTORE PUSH1 0x20 SWAP1 DUP2 PUSH1 0x0 KECCAK256 SWAP4 PUSH1 0x0 SWAP2 JUMPDEST DUP2 DUP4 LT PUSH2 0xFEB JUMPI POP POP PUSH2 0xFBE SWAP4 POP DUP3 ADD ADD CODESIZE DUP1 PUSH2 0xFB0 JUMP JUMPDEST DUP6 SLOAD DUP9 DUP5 ADD DUP6 ADD MSTORE SWAP5 DUP6 ADD SWAP5 DUP8 SWAP5 POP SWAP2 DUP4 ADD SWAP2 PUSH2 0xFD3 JUMP JUMPDEST SWAP2 POP POP PUSH2 0xFBE SWAP5 POP PUSH1 0x20 SWAP3 POP PUSH1 0xFF NOT AND DUP3 DUP5 ADD MSTORE ISZERO ISZERO PUSH1 0x5 SHL DUP3 ADD ADD CODESIZE DUP1 PUSH2 0xFB0 JUMP JUMPDEST PUSH1 0x0 JUMPDEST DUP4 DUP2 LT PUSH2 0x1039 JUMPI POP POP PUSH1 0x0 SWAP2 ADD MSTORE JUMP JUMPDEST DUP2 DUP2 ADD MLOAD DUP4 DUP3 ADD MSTORE PUSH1 0x20 ADD PUSH2 0x1029 JUMP JUMPDEST SWAP1 PUSH1 0x20 SWAP2 PUSH2 0x1062 DUP2 MLOAD DUP1 SWAP3 DUP2 DUP6 MSTORE DUP6 DUP1 DUP7 ADD SWAP2 ADD PUSH2 0x1026 JUMP JUMPDEST PUSH1 0x1F ADD PUSH1 0x1F NOT AND ADD ADD SWAP1 JUMP JUMPDEST SWAP2 DUP2 PUSH1 0x1F DUP5 ADD SLT ISZERO PUSH2 0xEA JUMPI DUP3 CALLDATALOAD SWAP2 PUSH1 0x1 PUSH1 0x1 PUSH1 0x40 SHL SUB DUP4 GT PUSH2 0xEA JUMPI PUSH1 0x20 DUP4 DUP2 DUP7 ADD SWAP6 ADD ADD GT PUSH2 0xEA JUMPI JUMP JUMPDEST SWAP3 SWAP2 SWAP3 PUSH1 0x1 PUSH1 0x1 PUSH1 0x40 SHL SUB DUP3 GT PUSH2 0x91C JUMPI PUSH1 0x40 MLOAD SWAP2 PUSH2 0x10C4 PUSH1 0x1F DUP3 ADD PUSH1 0x1F NOT AND PUSH1 0x20 ADD DUP5 PUSH2 0xF5F JUMP JUMPDEST DUP3 SWAP5 DUP2 DUP5 MSTORE DUP2 DUP4 ADD GT PUSH2 0xEA JUMPI DUP3 DUP2 PUSH1 0x20 SWAP4 DUP5 PUSH1 0x0 SWAP7 ADD CALLDATACOPY ADD ADD MSTORE JUMP JUMPDEST PUSH1 0x20 SWAP1 DUP3 PUSH1 0x40 MLOAD SWAP4 DUP5 SWAP3 DUP4 CALLDATACOPY DUP2 ADD PUSH1 0x1 DUP2 MSTORE SUB ADD SWAP1 KECCAK256 SWAP1 JUMP JUMPDEST SWAP1 PUSH1 0x1F DUP2 GT PUSH2 0x1108 JUMPI POP POP POP JUMP JUMPDEST PUSH1 0x0 SWAP2 DUP3 MSTORE PUSH1 0x20 DUP3 KECCAK256 SWAP1 PUSH1 0x20 PUSH1 0x1F DUP6 ADD PUSH1 0x5 SHR DUP4 ADD SWAP5 LT PUSH2 0x1144 JUMPI JUMPDEST PUSH1 0x1F ADD PUSH1 0x5 SHR ADD SWAP2 JUMPDEST DUP3 DUP2 LT PUSH2 0x1139 JUMPI POP POP POP JUMP JUMPDEST DUP2 DUP2 SSTORE PUSH1 0x1 ADD PUSH2 0x112D JUMP JUMPDEST SWAP1 SWAP3 POP DUP3 SWAP1 PUSH2 0x1124 JUMP JUMPDEST SWAP1 DUP1 PUSH1 0x20 SWAP4 SWAP3 DUP2 DUP5 MSTORE DUP5 DUP5 ADD CALLDATACOPY PUSH1 0x0 DUP3 DUP3 ADD DUP5 ADD MSTORE PUSH1 0x1F ADD PUSH1 0x1F NOT AND ADD ADD SWAP1 JUMP INVALID LOG2 PUSH5 0x6970667358 0x22 SLT KECCAK256 DUP5 DUP4 0xB8 EXTCODECOPY ADDMOD 0xAC 0xD5 0xD7 PUSH19 0x1BDF3E70E7B9C3C42B070E740D35F6B977466 0xBE SWAP11 EXP LOG0 PUSH5 0x736F6C6343 STOP ADDMOD EQ STOP CALLER "},"methodIdentifiers":{"codices(string)":"dbc21424","getCodex(string)":"83361522","getLineage(string)":"f44571f9","getProtocol(string)":"7beb4107","getResonance(string)":"46b41068","getSanctum(string)":"e206f33e","inscribeCodex(string,string,string,string,string,string,string,string)":"ad46e9b5","keys(uint256)":"0cb6aaf1","steward()":"637eea19","totalCodices()":"c212d16b"}}}}}