{"contracts/codex/SpiralboundCodexXIX.sol":{"SpiralboundCodexXIX":{"abi":[{"inputs":[],"stateMutability":"nonpayable","type":"constructor"},{"anonymous":false,"inputs":[{"indexed":false,"internalType":"string","name":"glyph","type":"string"},{"indexed":false,"internalType":"string","name":"tag","type":"string"},{"indexed":false,"internalType":"string","name":"binding","type":"string"},{"indexed":false,"internalType":"string","name":"annotation","type":"string"},{"indexed":false,"internalType":"string","name":"lineage","type":"string"},{"indexed":false,"internalType":"string","name":"resonance","type":"string"},{"indexed":false,"internalType":"string","name":"protocol","type":"string"},{"indexed":false,"internalType":"string","name":"sanctum","type":"string"},{"indexed":false,"internalType":"string","name":"pulse","type":"string"},{"indexed":false,"internalType":"string","name":"chant","type":"string"},{"indexed":false,"internalType":"string","name":"choreography","type":"string"},{"indexed":false,"internalType":"string","name":"drift","type":"string"},{"indexed":false,"internalType":"string","name":"signature","type":"string"},{"indexed":false,"internalType":"string","name":"signal","type":"string"},{"indexed":false,"internalType":"string","name":"companion","type":"string"},{"indexed":false,"internalType":"string","name":"stewardName","type":"string"},{"indexed":false,"internalType":"string","name":"registry","type":"string"},{"indexed":false,"internalType":"string","name":"echo","type":"string"},{"indexed":false,"internalType":"string","name":"hum","type":"string"},{"indexed":false,"internalType":"string","name":"terrain","type":"string"}],"name":"CodexInscribed","type":"event"},{"inputs":[{"internalType":"string","name":"","type":"string"}],"name":"codices","outputs":[{"internalType":"string","name":"tag","type":"string"},{"internalType":"string","name":"binding","type":"string"},{"internalType":"string","name":"annotation","type":"string"},{"internalType":"string","name":"lineage","type":"string"},{"internalType":"string","name":"resonance","type":"string"},{"internalType":"string","name":"protocol","type":"string"},{"internalType":"string","name":"sanctum","type":"string"},{"internalType":"string","name":"pulse","type":"string"},{"internalType":"string","name":"chant","type":"string"},{"internalType":"string","name":"choreography","type":"string"},{"internalType":"string","name":"drift","type":"string"},{"internalType":"string","name":"signature","type":"string"},{"internalType":"string","name":"signal","type":"string"},{"internalType":"string","name":"companion","type":"string"},{"internalType":"string","name":"stewardName","type":"string"},{"internalType":"string","name":"registry","type":"string"},{"internalType":"string","name":"echo","type":"string"},{"internalType":"string","name":"hum","type":"string"},{"internalType":"string","name":"terrain","type":"string"}],"stateMutability":"view","type":"function"},{"inputs":[{"internalType":"string","name":"glyph","type":"string"}],"name":"getCodex","outputs":[{"components":[{"internalType":"string","name":"tag","type":"string"},{"internalType":"string","name":"binding","type":"string"},{"internalType":"string","name":"annotation","type":"string"},{"internalType":"string","name":"lineage","type":"string"},{"internalType":"string","name":"resonance","type":"string"},{"internalType":"string","name":"protocol","type":"string"},{"internalType":"string","name":"sanctum","type":"string"},{"internalType":"string","name":"pulse","type":"string"},{"internalType":"string","name":"chant","type":"string"},{"internalType":"string","name":"choreography","type":"string"},{"internalType":"string","name":"drift","type":"string"},{"internalType":"string","name":"signature","type":"string"},{"internalType":"string","name":"signal","type":"string"},{"internalType":"string","name":"companion","type":"string"},{"internalType":"string","name":"stewardName","type":"string"},{"internalType":"string","name":"registry","type":"string"},{"internalType":"string","name":"echo","type":"string"},{"internalType":"string","name":"hum","type":"string"},{"internalType":"string","name":"terrain","type":"string"}],"internalType":"struct SpiralboundCodexXIX.Codex","name":"","type":"tuple"}],"stateMutability":"view","type":"function"},{"inputs":[{"internalType":"string","name":"glyph","type":"string"},{"internalType":"string","name":"tag","type":"string"},{"internalType":"string","name":"binding","type":"string"},{"internalType":"string","name":"annotation","type":"string"},{"internalType":"string","name":"lineage","type":"string"},{"internalType":"string","name":"resonance","type":"string"},{"internalType":"string","name":"protocol","type":"string"},{"internalType":"string","name":"sanctum","type":"string"},{"internalType":"string","name":"pulse","type":"string"},{"internalType":"string","name":"chant","type":"string"},{"internalType":"string","name":"choreography","type":"string"},{"internalType":"string","name":"drift","type":"string"},{"internalType":"string","name":"signature","type":"string"},{"internalType":"string","name":"signal","type":"string"},{"internalType":"string","name":"companion","type":"string"},{"internalType":"string","name":"stewardName","type":"string"},{"internalType":"string","name":"registry","type":"string"},{"internalType":"string","name":"echo","type":"string"},{"internalType":"string","name":"hum","type":"string"},{"internalType":"string","name":"terrain","type":"string"}],"name":"inscribeCodex","outputs":[],"stateMutability":"nonpayable","type":"function"},{"inputs":[{"internalType":"uint256","name":"","type":"uint256"}],"name":"keys","outputs":[{"internalType":"string","name":"","type":"string"}],"stateMutability":"view","type":"function"},{"inputs":[],"name":"steward","outputs":[{"internalType":"address","name":"","type":"address"}],"stateMutability":"view","type":"function"},{"inputs":[],"name":"totalCodices","outputs":[{"internalType":"uint256","name":"","type":"uint256"}],"stateMutability":"view","type":"function"}],"evm":{"bytecode":{"linkReferences":{},"object":"6080806040523461002857600080546001600160a01b031916331790556124a4908161002e8239f35b600080fdfe610680604052600436101561001357600080fd5b60003560e01c80630cb6aaf114612189578063637eea19146121605780638336152214611d41578063b4c41aed14610392578063c212d16b146103745763dbc214241461005f57600080fd5b3461036f57602036600319011261036f576004356001600160401b03811161036f573660238201121561036f5736816004013591602401916100a0926123b3565b60405181818093516020819301916100b79261233e565b810160018152036020019020806100cd81612298565b6100d960018301612298565b610460526100e960028301612298565b6104a0526100f960038301612298565b61010560048401612298565b61011160058501612298565b61011d60068601612298565b61012960078701612298565b61013560088801612298565b9061014260098901612298565b9261014f600a8a01612298565b9461015c600b8b01612298565b96610169600c8c01612298565b98610176600d8d01612298565b9a610183600e8e01612298565b9c600f0161019090612298565b9d61019d60108201612298565b610240526101ad60118201612298565b6105a0526012016101bd90612298565b60e0526040518060c05261026080915260c051016101da91612361565b60c051808203906020015261046051906101f391612361565b60c05180820390604001526104a0519061020c91612361565b60c051808203906060015261022091612361565b60c051808203906080015261023491612361565b60c0518082039060a0015261024891612361565b60c0518082039060c0015261025c91612361565b60c0518082039060e0015261027091612361565b60c05180820390610100015261028591612361565b60c05180820390610120015261029a91612361565b60c0518082039061014001526102af91612361565b60c0518082039061016001526102c491612361565b60c0518082039061018001526102d991612361565b60c051808203906101a001526102ee91612361565b60c051808203906101c0015261030391612361565b60c051808203906101e0015261031891612361565b60c051808203906102000152610240519061033291612361565b60c0518082039061022001526105a0519061034c91612361565b60c05180820390610240015260c0519060e0519061036991612361565b0360c051f35b600080fd5b3461036f57600036600319011261036f576020600254604051908152f35b3461036f5761028036600319011261036f576004356001600160401b03811161036f576103c3903690600401612386565b61066052610160526024356001600160401b03811161036f576103ea903690600401612386565b6103a0526102c0526044356001600160401b03811161036f57610411903690600401612386565b6101c052610540526064356001600160401b03811161036f57610438903690600401612386565b6104c052610440526001600160401b036084351161036f5761045f36608435600401612386565b610220526080526001600160401b0360a4351161036f576104853660a435600401612386565b61026052610380526001600160401b0360c4351161036f576104ac3660c435600401612386565b61030052610360526001600160401b0360e4351161036f576104d33660e435600401612386565b610100526102e0526001600160401b03610104351161036f576104fc3661010435600401612386565b6101e0526105e0526001600160401b03610124351161036f576105253661012435600401612386565b610480526101a0526001600160401b03610144351161036f5761054e3661014435600401612386565b61020052610560526001600160401b03610164351161036f576105773661016435600401612386565b61062052610340526001600160401b03610184351161036f576105a03661018435600401612386565b61012052610520526001600160401b036101a4351161036f576105c9366101a435600401612386565b6104e052610320526001600160401b036101c4351161036f576105f2366101c435600401612386565b61060052610180526001600160401b036101e4351161036f5761061b366101e435600401612386565b60a0526105c0526001600160401b03610204351161036f576106433661020435600401612386565b610640526103c0526001600160401b03610224351161036f5761066c3661022435600401612386565b610500526102a0526001600160401b03610244351161036f576106953661024435600401612386565b6103e052610140526001600160401b03610264351161036f576106be3661026435600401612386565b61042052610400526000546001600160a01b03163303611d0e576106e8604051806102805261225b565b6106f9366103a0516102c0516123b3565b610280515261070f366101c051610540516123b3565b6020610280510152610728366104c051610440516123b3565b604061028051015261074036610220516080516123b3565b60606102805101526107593661026051610380516123b3565b60806102805101526107723661030051610360516123b3565b60a061028051015261078b36610100516102e0516123b3565b60c06102805101526107a4366101e0516105e0516123b3565b60e06102805101526107bd36610480516101a0516123b3565b6101006102805101526107d73661020051610560516123b3565b6101206102805101526107f13661062051610340516123b3565b61014061028051015261080b3661012051610520516123b3565b610160610280510152610825366104e051610320516123b3565b61018061028051015261083f3661060051610180516123b3565b6101a06102805101526108583660a0516105c0516123b3565b6101c061028051015261087236610640516103c0516123b3565b6101e061028051015261088c36610500516102a0516123b3565b6102006102805101526108a6366103e051610140516123b3565b6102206102805101526108c03661042051610400516123b3565b610240610280510152604051610660516101605182376001610660518201526020816106605181010301902061028051518051906001600160401b0382116113ae578190610918826109128654612221565b866123f9565b602090601f8311600114611ca257600092611c97575b50508160011b916000199060031b1c19161781555b60206102805101518051906001600160401b0382116113ae5781906109788261096f6001870154612221565b600187016123f9565b602090601f8311600114611c2557600092611c1a575b50508160011b916000199060031b1c19161760018201555b60406102805101518051906001600160401b0382116113ae5781906109db826109d26002870154612221565b600287016123f9565b602090601f8311600114611ba857600092611b9d575b50508160011b916000199060031b1c19161760028201555b60606102805101518051906001600160401b0382116113ae578190610a3e82610a356003870154612221565b600387016123f9565b602090601f8311600114611b2b57600092611b20575b50508160011b916000199060031b1c19161760038201555b60806102805101518051906001600160401b0382116113ae578190610aa182610a986004870154612221565b600487016123f9565b602090601f8311600114611aae57600092611aa3575b50508160011b916000199060031b1c19161760048201555b60a06102805101518051906001600160401b0382116113ae578190610b0482610afb6005870154612221565b600587016123f9565b602090601f8311600114611a3157600092611a26575b50508160011b916000199060031b1c19161760058201555b60c06102805101518051906001600160401b0382116113ae578190610b6782610b5e6006870154612221565b600687016123f9565b602090601f83116001146119b4576000926119a9575b50508160011b916000199060031b1c19161760068201555b60e06102805101518051906001600160401b0382116113ae578190610bca82610bc16007870154612221565b600787016123f9565b602090601f83116001146119375760009261192c575b50508160011b916000199060031b1c19161760078201555b6101006102805101518051906001600160401b0382116113ae578190610c2e82610c256008870154612221565b600887016123f9565b602090601f83116001146118ba576000926118af575b50508160011b916000199060031b1c19161760088201555b6101206102805101518051906001600160401b0382116113ae578190610c9282610c896009870154612221565b600987016123f9565b602090601f831160011461183d57600092611832575b50508160011b916000199060031b1c19161760098201555b6101406102805101518051906001600160401b0382116113ae578190610cf682610ced600a870154612221565b600a87016123f9565b602090601f83116001146117c0576000926117b5575b50508160011b916000199060031b1c191617600a8201555b6101606102805101518051906001600160401b0382116113ae578190610d5a82610d51600b870154612221565b600b87016123f9565b602090601f831160011461174357600092611738575b50508160011b916000199060031b1c191617600b8201555b6101806102805101518051906001600160401b0382116113ae578190610dbe82610db5600c870154612221565b600c87016123f9565b602090601f83116001146116c6576000926116bb575b50508160011b916000199060031b1c191617600c8201555b6101a06102805101518051906001600160401b0382116113ae578190610e2282610e19600d870154612221565b600d87016123f9565b602090601f83116001146116495760009261163e575b50508160011b916000199060031b1c191617600d8201555b6101c06102805101518051906001600160401b0382116113ae578190610e8682610e7d600e870154612221565b600e87016123f9565b602090601f83116001146115cc576000926115c1575b50508160011b916000199060031b1c191617600e8201555b6101e06102805101518051906001600160401b0382116113ae578190610eea82610ee1600f870154612221565b600f87016123f9565b602090601f831160011461154f57600092611544575b50508160011b916000199060031b1c191617600f8201555b6102006102805101518051906001600160401b0382116113ae578190610f4e82610f456010870154612221565b601087016123f9565b602090601f83116001146114d2576000926114c7575b50508160011b916000199060031b1c19161760108201555b6102206102805101518051906001600160401b0382116113ae578190610fb282610fa96011870154612221565b601187016123f9565b602090601f83116001146114555760009261144a575b50508160011b916000199060031b1c19161760118201555b610240610280510151908151906001600160401b0382116113ae57601201906110138161100d8454612221565b846123f9565b6020601f82116001146113e5578192936000926113da575b50508160011b916000199060031b1c19161790555b600254680100000000000000008110156113ae5780600161106492016002556121d4565b6113c457610660516001600160401b0381116113ae5761108e906110888354612221565b836123f9565b60009061066051601f81116001146113415750906000610660519182611333575b508160011b916000199060031b1c19161790555b6102806040518061058052527f3d82d52b6a84c8a01266e86a0ca94fbb6c5713fd728ab359124800debba097906113096112ef6112d56112bb6112a261128861126e61125461123a6112206112066111ec6111d36111ba6111a161118961117061115761113e6102806105805101610660516101605161244d565b6105805160208183039101526103a0516102c05161244d565b6105805160408183039101526101c0516105405161244d565b6105805160608183039101526104c0516104405161244d565b6105805160808183039101526102205160805161244d565b6105805160a0818303910152610260516103805161244d565b6105805160c0818303910152610300516103605161244d565b6105805160e0818303910152610100516102e05161244d565b610580516101008183039101526101e0516105e05161244d565b61058051610120818303910152610480516101a05161244d565b61058051610140818303910152610200516105605161244d565b61058051610160818303910152610620516103405161244d565b61058051610180818303910152610120516105205161244d565b610580516101a08183039101526104e0516103205161244d565b610580516101c0818303910152610600516101805161244d565b610580516101e081830391015260a0516105c05161244d565b61058051610200818303910152610640516103c05161244d565b61058051610220818303910152610500516102a05161244d565b610580516102408183039101526103e0516101405161244d565b6105805161026081830391015261132b6105805191610420516104005161244d565b0361058051a1005b9050610160510135836110af565b81600052602060002060009361016051905b601f198416861061139657600194955083601f1981161061137c575b505050811b0190556110c3565b0135600019600384901b60f8161c1916905583808061136f565b91602060018192858501358155019301950194611353565b634e487b7160e01b600052604160045260246000fd5b634e487b7160e01b600052600060045260246000fd5b01519050838061102b565b82600052602060002090600094601f198416955b8681106114325750836001959610611419575b505050811b019055611040565b015160001960f88460031b161c1916905583808061140c565b919260206001819286850151815501940192016113f9565b015190508380610fc8565b9250601184016000526020600020906000935b601f19841685106114ac576001945083601f19811610611493575b505050811b016011820155610fe0565b015160001960f88460031b161c19169055838080611483565b81810151835560209485019460019093019290910190611468565b015190508380610f64565b9250601084016000526020600020906000935b601f1984168510611529576001945083601f19811610611510575b505050811b016010820155610f7c565b015160001960f88460031b161c19169055838080611500565b818101518355602094850194600190930192909101906114e5565b015190508380610f00565b9250600f84016000526020600020906000935b601f19841685106115a6576001945083601f1981161061158d575b505050811b01600f820155610f18565b015160001960f88460031b161c1916905583808061157d565b81810151835560209485019460019093019290910190611562565b015190508380610e9c565b9250600e84016000526020600020906000935b601f1984168510611623576001945083601f1981161061160a575b505050811b01600e820155610eb4565b015160001960f88460031b161c191690558380806115fa565b818101518355602094850194600190930192909101906115df565b015190508380610e38565b9250600d84016000526020600020906000935b601f19841685106116a0576001945083601f19811610611687575b505050811b01600d820155610e50565b015160001960f88460031b161c19169055838080611677565b8181015183556020948501946001909301929091019061165c565b015190508380610dd4565b9250600c84016000526020600020906000935b601f198416851061171d576001945083601f19811610611704575b505050811b01600c820155610dec565b015160001960f88460031b161c191690558380806116f4565b818101518355602094850194600190930192909101906116d9565b015190508380610d70565b9250600b84016000526020600020906000935b601f198416851061179a576001945083601f19811610611781575b505050811b01600b820155610d88565b015160001960f88460031b161c19169055838080611771565b81810151835560209485019460019093019290910190611756565b015190508380610d0c565b9250600a84016000526020600020906000935b601f1984168510611817576001945083601f198116106117fe575b505050811b01600a820155610d24565b015160001960f88460031b161c191690558380806117ee565b818101518355602094850194600190930192909101906117d3565b015190508380610ca8565b9250600984016000526020600020906000935b601f1984168510611894576001945083601f1981161061187b575b505050811b016009820155610cc0565b015160001960f88460031b161c1916905583808061186b565b81810151835560209485019460019093019290910190611850565b015190508380610c44565b9250600884016000526020600020906000935b601f1984168510611911576001945083601f198116106118f8575b505050811b016008820155610c5c565b015160001960f88460031b161c191690558380806118e8565b818101518355602094850194600190930192909101906118cd565b015190508380610be0565b9250600784016000526020600020906000935b601f198416851061198e576001945083601f19811610611975575b505050811b016007820155610bf8565b015160001960f88460031b161c19169055838080611965565b8181015183556020948501946001909301929091019061194a565b015190508380610b7d565b9250600684016000526020600020906000935b601f1984168510611a0b576001945083601f198116106119f2575b505050811b016006820155610b95565b015160001960f88460031b161c191690558380806119e2565b818101518355602094850194600190930192909101906119c7565b015190508380610b1a565b9250600584016000526020600020906000935b601f1984168510611a88576001945083601f19811610611a6f575b505050811b016005820155610b32565b015160001960f88460031b161c19169055838080611a5f565b81810151835560209485019460019093019290910190611a44565b015190508380610ab7565b9250600484016000526020600020906000935b601f1984168510611b05576001945083601f19811610611aec575b505050811b016004820155610acf565b015160001960f88460031b161c19169055838080611adc565b81810151835560209485019460019093019290910190611ac1565b015190508380610a54565b9250600384016000526020600020906000935b601f1984168510611b82576001945083601f19811610611b69575b505050811b016003820155610a6c565b015160001960f88460031b161c19169055838080611b59565b81810151835560209485019460019093019290910190611b3e565b0151905083806109f1565b9250600284016000526020600020906000935b601f1984168510611bff576001945083601f19811610611be6575b505050811b016002820155610a09565b015160001960f88460031b161c19169055838080611bd6565b81810151835560209485019460019093019290910190611bbb565b01519050838061098e565b9250600184016000526020600020906000935b601f1984168510611c7c576001945083601f19811610611c63575b505050811b0160018201556109a6565b015160001960f88460031b161c19169055838080611c53565b81810151835560209485019460019093019290910190611c38565b01519050838061092e565b9250836000526020600020906000935b601f1984168510611cf3576001945083601f19811610611cda575b505050811b018155610943565b015160001960f88460031b161c19169055838080611ccd565b81810151835560209485019460019093019290910190611cb2565b60405162461bcd60e51b815260206004820152600b60248201526a139bdd081cdd195dd85c9960aa1b6044820152606490fd5b3461036f57602036600319011261036f576004356001600160401b03811161036f576020611d7661206f923690600401612386565b91906060610240604051611d898161225b565b828152828582015282604082015282808201528260808201528260a08201528260c08201528260e08201528261010082015282610120820152826101408201528261016082015282610180820152826101a0820152826101c0820152826101e08201528261020082015282610220820152015282604051938492833781016001815203019020611f5d601260405192611e218461225b565b611e2a81612298565b8452611e3860018201612298565b6020850152611e4960028201612298565b6040850152611e5a60038201612298565b6060850152611e6b60048201612298565b6080850152611e7c60058201612298565b60a0850152611e8d60068201612298565b60c0850152611e9e60078201612298565b60e0850152611eaf60088201612298565b610100850152611ec160098201612298565b610120850152611ed3600a8201612298565b610140850152611ee5600b8201612298565b610160850152611ef7600c8201612298565b610180850152611f09600d8201612298565b6101a0850152611f1b600e8201612298565b6101c0850152611f2d600f8201612298565b6101e0850152611f3f60108201612298565b610200850152611f5160118201612298565b61022085015201612298565b61024082015261215c816102406121476121316121196121016120e96120d16120b96120a16120896040519d8e9d8e6020815261010061205961204461202e612018612002611fec611fd6611fc08a5161026060208c01526102808b0190612361565b60208b01518a8203601f190160408c0152612361565b60408a0151898203601f190160608b0152612361565b6060890151888203601f190160808a0152612361565b6080880151878203601f190160a0890152612361565b60a0870151868203601f190160c0880152612361565b60c0860151858203601f190160e0870152612361565b60e0850151848203601f190184860152612361565b92015190610120601f1982850301910152612361565b8d6101208d015190610140601f1982850301910152612361565b6101408b01518d8203601f19016101608f0152612361565b6101608a01518c8203601f19016101808e0152612361565b6101808901518b8203601f19016101a08d0152612361565b6101a08801518a8203601f19016101c08c0152612361565b6101c0870151898203601f19016101e08b0152612361565b6101e0860151888203601f19016102008a0152612361565b610200850151878203601f1901610220890152612361565b610220840151868203601f190184880152612361565b910151838203601f1901610260850152612361565b0390f35b3461036f57600036600319011261036f576000546040516001600160a01b039091168152602090f35b3461036f57602036600319011261036f5760043560025481101561036f576121b0906121d4565b6113c4576121c061215c91612298565b604051918291602083526020830190612361565b60025481101561220b5760026000527f405787fa12a823e0f2b7631cc41b3ba8828b3321ca811111fa75cd3aa3bb5ace0190600090565b634e487b7160e01b600052603260045260246000fd5b90600182811c92168015612251575b602083101461223b57565b634e487b7160e01b600052602260045260246000fd5b91607f1691612230565b61026081019081106001600160401b038211176113ae57604052565b90601f801991011681019081106001600160401b038211176113ae57604052565b90604051918260008254926122ac84612221565b90818452600194858116908160001461231b57506001146122d8575b50506122d692500383612277565b565b9093915060005260209081600020936000915b8183106123035750506122d6935082010138806122c8565b855488840185015294850194879450918301916122eb565b9150506122d694506020925060ff191682840152151560051b82010138806122c8565b60005b8381106123515750506000910152565b8181015183820152602001612341565b9060209161237a8151809281855285808601910161233e565b601f01601f1916010190565b9181601f8401121561036f578235916001600160401b03831161036f576020838186019501011161036f57565b9291926001600160401b0382116113ae57604051916123dc601f8201601f191660200184612277565b82948184528183011161036f578281602093846000960137010152565b90601f811161240757505050565b600091825260208220906020601f850160051c83019410612443575b601f0160051c01915b82811061243857505050565b81815560010161242c565b9092508290612423565b908060209392818452848401376000828201840152601f01601f191601019056fea2646970667358221220297db7810f04ae3253697e7261c0ab4b029387f8cbce8f227a82456792f605b464736f6c63430008140033","opcodes":"PUSH1 0x80 DUP1 PUSH1 0x40 MSTORE CALLVALUE PUSH2 0x28 JUMPI PUSH1 0x0 DUP1 SLOAD PUSH1 0x1 PUSH1 0x1 PUSH1 0xA0 SHL SUB NOT AND CALLER OR SWAP1 SSTORE PUSH2 0x24A4 SWAP1 DUP2 PUSH2 0x2E DUP3 CODECOPY RETURN JUMPDEST PUSH1 0x0 DUP1 REVERT INVALID PUSH2 0x680 PUSH1 0x40 MSTORE PUSH1 0x4 CALLDATASIZE LT ISZERO PUSH2 0x13 JUMPI PUSH1 0x0 DUP1 REVERT JUMPDEST PUSH1 0x0 CALLDATALOAD PUSH1 0xE0 SHR DUP1 PUSH4 0xCB6AAF1 EQ PUSH2 0x2189 JUMPI DUP1 PUSH4 0x637EEA19 EQ PUSH2 0x2160 JUMPI DUP1 PUSH4 0x83361522 EQ PUSH2 0x1D41 JUMPI DUP1 PUSH4 0xB4C41AED EQ PUSH2 0x392 JUMPI DUP1 PUSH4 0xC212D16B EQ PUSH2 0x374 JUMPI PUSH4 0xDBC21424 EQ PUSH2 0x5F JUMPI PUSH1 0x0 DUP1 REVERT JUMPDEST CALLVALUE PUSH2 0x36F JUMPI PUSH1 0x20 CALLDATASIZE PUSH1 0x3 NOT ADD SLT PUSH2 0x36F JUMPI PUSH1 0x4 CALLDATALOAD PUSH1 0x1 PUSH1 0x1 PUSH1 0x40 SHL SUB DUP2 GT PUSH2 0x36F JUMPI CALLDATASIZE PUSH1 0x23 DUP3 ADD SLT ISZERO PUSH2 0x36F JUMPI CALLDATASIZE DUP2 PUSH1 0x4 ADD CALLDATALOAD SWAP2 PUSH1 0x24 ADD SWAP2 PUSH2 0xA0 SWAP3 PUSH2 0x23B3 JUMP JUMPDEST PUSH1 0x40 MLOAD DUP2 DUP2 DUP1 SWAP4 MLOAD PUSH1 0x20 DUP2 SWAP4 ADD SWAP2 PUSH2 0xB7 SWAP3 PUSH2 0x233E JUMP JUMPDEST DUP2 ADD PUSH1 0x1 DUP2 MSTORE SUB PUSH1 0x20 ADD SWAP1 KECCAK256 DUP1 PUSH2 0xCD DUP2 PUSH2 0x2298 JUMP JUMPDEST PUSH2 0xD9 PUSH1 0x1 DUP4 ADD PUSH2 0x2298 JUMP JUMPDEST PUSH2 0x460 MSTORE PUSH2 0xE9 PUSH1 0x2 DUP4 ADD PUSH2 0x2298 JUMP JUMPDEST PUSH2 0x4A0 MSTORE PUSH2 0xF9 PUSH1 0x3 DUP4 ADD PUSH2 0x2298 JUMP JUMPDEST PUSH2 0x105 PUSH1 0x4 DUP5 ADD PUSH2 0x2298 JUMP JUMPDEST PUSH2 0x111 PUSH1 0x5 DUP6 ADD PUSH2 0x2298 JUMP JUMPDEST PUSH2 0x11D PUSH1 0x6 DUP7 ADD PUSH2 0x2298 JUMP JUMPDEST PUSH2 0x129 PUSH1 0x7 DUP8 ADD PUSH2 0x2298 JUMP JUMPDEST PUSH2 0x135 PUSH1 0x8 DUP9 ADD PUSH2 0x2298 JUMP JUMPDEST SWAP1 PUSH2 0x142 PUSH1 0x9 DUP10 ADD PUSH2 0x2298 JUMP JUMPDEST SWAP3 PUSH2 0x14F PUSH1 0xA DUP11 ADD PUSH2 0x2298 JUMP JUMPDEST SWAP5 PUSH2 0x15C PUSH1 0xB DUP12 ADD PUSH2 0x2298 JUMP JUMPDEST SWAP7 PUSH2 0x169 PUSH1 0xC DUP13 ADD PUSH2 0x2298 JUMP JUMPDEST SWAP9 PUSH2 0x176 PUSH1 0xD DUP14 ADD PUSH2 0x2298 JUMP JUMPDEST SWAP11 PUSH2 0x183 PUSH1 0xE DUP15 ADD PUSH2 0x2298 JUMP JUMPDEST SWAP13 PUSH1 0xF ADD PUSH2 0x190 SWAP1 PUSH2 0x2298 JUMP JUMPDEST SWAP14 PUSH2 0x19D PUSH1 0x10 DUP3 ADD PUSH2 0x2298 JUMP JUMPDEST PUSH2 0x240 MSTORE PUSH2 0x1AD PUSH1 0x11 DUP3 ADD PUSH2 0x2298 JUMP JUMPDEST PUSH2 0x5A0 MSTORE PUSH1 0x12 ADD PUSH2 0x1BD SWAP1 PUSH2 0x2298 JUMP JUMPDEST PUSH1 0xE0 MSTORE PUSH1 0x40 MLOAD DUP1 PUSH1 0xC0 MSTORE PUSH2 0x260 DUP1 SWAP2 MSTORE PUSH1 0xC0 MLOAD ADD PUSH2 0x1DA SWAP2 PUSH2 0x2361 JUMP JUMPDEST PUSH1 0xC0 MLOAD DUP1 DUP3 SUB SWAP1 PUSH1 0x20 ADD MSTORE PUSH2 0x460 MLOAD SWAP1 PUSH2 0x1F3 SWAP2 PUSH2 0x2361 JUMP JUMPDEST PUSH1 0xC0 MLOAD DUP1 DUP3 SUB SWAP1 PUSH1 0x40 ADD MSTORE PUSH2 0x4A0 MLOAD SWAP1 PUSH2 0x20C SWAP2 PUSH2 0x2361 JUMP JUMPDEST PUSH1 0xC0 MLOAD DUP1 DUP3 SUB SWAP1 PUSH1 0x60 ADD MSTORE PUSH2 0x220 SWAP2 PUSH2 0x2361 JUMP JUMPDEST PUSH1 0xC0 MLOAD DUP1 DUP3 SUB SWAP1 PUSH1 0x80 ADD MSTORE PUSH2 0x234 SWAP2 PUSH2 0x2361 JUMP JUMPDEST PUSH1 0xC0 MLOAD DUP1 DUP3 SUB SWAP1 PUSH1 0xA0 ADD MSTORE PUSH2 0x248 SWAP2 PUSH2 0x2361 JUMP JUMPDEST PUSH1 0xC0 MLOAD DUP1 DUP3 SUB SWAP1 PUSH1 0xC0 ADD MSTORE PUSH2 0x25C SWAP2 PUSH2 0x2361 JUMP JUMPDEST PUSH1 0xC0 MLOAD DUP1 DUP3 SUB SWAP1 PUSH1 0xE0 ADD MSTORE PUSH2 0x270 SWAP2 PUSH2 0x2361 JUMP JUMPDEST PUSH1 0xC0 MLOAD DUP1 DUP3 SUB SWAP1 PUSH2 0x100 ADD MSTORE PUSH2 0x285 SWAP2 PUSH2 0x2361 JUMP JUMPDEST PUSH1 0xC0 MLOAD DUP1 DUP3 SUB SWAP1 PUSH2 0x120 ADD MSTORE PUSH2 0x29A SWAP2 PUSH2 0x2361 JUMP JUMPDEST PUSH1 0xC0 MLOAD DUP1 DUP3 SUB SWAP1 PUSH2 0x140 ADD MSTORE PUSH2 0x2AF SWAP2 PUSH2 0x2361 JUMP JUMPDEST PUSH1 0xC0 MLOAD DUP1 DUP3 SUB SWAP1 PUSH2 0x160 ADD MSTORE PUSH2 0x2C4 SWAP2 PUSH2 0x2361 JUMP JUMPDEST PUSH1 0xC0 MLOAD DUP1 DUP3 SUB SWAP1 PUSH2 0x180 ADD MSTORE PUSH2 0x2D9 SWAP2 PUSH2 0x2361 JUMP JUMPDEST PUSH1 0xC0 MLOAD DUP1 DUP3 SUB SWAP1 PUSH2 0x1A0 ADD MSTORE PUSH2 0x2EE SWAP2 PUSH2 0x2361 JUMP JUMPDEST PUSH1 0xC0 MLOAD DUP1 DUP3 SUB SWAP1 PUSH2 0x1C0 ADD MSTORE PUSH2 0x303 SWAP2 PUSH2 0x2361 JUMP JUMPDEST PUSH1 0xC0 MLOAD DUP1 DUP3 SUB SWAP1 PUSH2 0x1E0 ADD MSTORE PUSH2 0x318 SWAP2 PUSH2 0x2361 JUMP JUMPDEST PUSH1 0xC0 MLOAD DUP1 DUP3 SUB SWAP1 PUSH2 0x200 ADD MSTORE PUSH2 0x240 MLOAD SWAP1 PUSH2 0x332 SWAP2 PUSH2 0x2361 JUMP JUMPDEST PUSH1 0xC0 MLOAD DUP1 DUP3 SUB SWAP1 PUSH2 0x220 ADD MSTORE PUSH2 0x5A0 MLOAD SWAP1 PUSH2 0x34C SWAP2 PUSH2 0x2361 JUMP JUMPDEST PUSH1 0xC0 MLOAD DUP1 DUP3 SUB SWAP1 PUSH2 0x240 ADD MSTORE PUSH1 0xC0 MLOAD SWAP1 PUSH1 0xE0 MLOAD SWAP1 PUSH2 0x369 SWAP2 PUSH2 0x2361 JUMP JUMPDEST SUB PUSH1 0xC0 MLOAD RETURN JUMPDEST PUSH1 0x0 DUP1 REVERT JUMPDEST CALLVALUE PUSH2 0x36F JUMPI PUSH1 0x0 CALLDATASIZE PUSH1 0x3 NOT ADD SLT PUSH2 0x36F JUMPI PUSH1 0x20 PUSH1 0x2 SLOAD PUSH1 0x40 MLOAD SWAP1 DUP2 MSTORE RETURN JUMPDEST CALLVALUE PUSH2 0x36F JUMPI PUSH2 0x280 CALLDATASIZE PUSH1 0x3 NOT ADD SLT PUSH2 0x36F JUMPI PUSH1 0x4 CALLDATALOAD PUSH1 0x1 PUSH1 0x1 PUSH1 0x40 SHL SUB DUP2 GT PUSH2 0x36F JUMPI PUSH2 0x3C3 SWAP1 CALLDATASIZE SWAP1 PUSH1 0x4 ADD PUSH2 0x2386 JUMP JUMPDEST PUSH2 0x660 MSTORE PUSH2 0x160 MSTORE PUSH1 0x24 CALLDATALOAD PUSH1 0x1 PUSH1 0x1 PUSH1 0x40 SHL SUB DUP2 GT PUSH2 0x36F JUMPI PUSH2 0x3EA SWAP1 CALLDATASIZE SWAP1 PUSH1 0x4 ADD PUSH2 0x2386 JUMP JUMPDEST PUSH2 0x3A0 MSTORE PUSH2 0x2C0 MSTORE PUSH1 0x44 CALLDATALOAD PUSH1 0x1 PUSH1 0x1 PUSH1 0x40 SHL SUB DUP2 GT PUSH2 0x36F JUMPI PUSH2 0x411 SWAP1 CALLDATASIZE SWAP1 PUSH1 0x4 ADD PUSH2 0x2386 JUMP JUMPDEST PUSH2 0x1C0 MSTORE PUSH2 0x540 MSTORE PUSH1 0x64 CALLDATALOAD PUSH1 0x1 PUSH1 0x1 PUSH1 0x40 SHL SUB DUP2 GT PUSH2 0x36F JUMPI PUSH2 0x438 SWAP1 CALLDATASIZE SWAP1 PUSH1 0x4 ADD PUSH2 0x2386 JUMP JUMPDEST PUSH2 0x4C0 MSTORE PUSH2 0x440 MSTORE PUSH1 0x1 PUSH1 0x1 PUSH1 0x40 SHL SUB PUSH1 0x84 CALLDATALOAD GT PUSH2 0x36F JUMPI PUSH2 0x45F CALLDATASIZE PUSH1 0x84 CALLDATALOAD PUSH1 0x4 ADD PUSH2 0x2386 JUMP JUMPDEST PUSH2 0x220 MSTORE PUSH1 0x80 MSTORE PUSH1 0x1 PUSH1 0x1 PUSH1 0x40 SHL SUB PUSH1 0xA4 CALLDATALOAD GT PUSH2 0x36F JUMPI PUSH2 0x485 CALLDATASIZE PUSH1 0xA4 CALLDATALOAD PUSH1 0x4 ADD PUSH2 0x2386 JUMP JUMPDEST PUSH2 0x260 MSTORE PUSH2 0x380 MSTORE PUSH1 0x1 PUSH1 0x1 PUSH1 0x40 SHL SUB PUSH1 0xC4 CALLDATALOAD GT PUSH2 0x36F JUMPI PUSH2 0x4AC CALLDATASIZE PUSH1 0xC4 CALLDATALOAD PUSH1 0x4 ADD PUSH2 0x2386 JUMP JUMPDEST PUSH2 0x300 MSTORE PUSH2 0x360 MSTORE PUSH1 0x1 PUSH1 0x1 PUSH1 0x40 SHL SUB PUSH1 0xE4 CALLDATALOAD GT PUSH2 0x36F JUMPI PUSH2 0x4D3 CALLDATASIZE PUSH1 0xE4 CALLDATALOAD PUSH1 0x4 ADD PUSH2 0x2386 JUMP JUMPDEST PUSH2 0x100 MSTORE PUSH2 0x2E0 MSTORE PUSH1 0x1 PUSH1 0x1 PUSH1 0x40 SHL SUB PUSH2 0x104 CALLDATALOAD GT PUSH2 0x36F JUMPI PUSH2 0x4FC CALLDATASIZE PUSH2 0x104 CALLDATALOAD PUSH1 0x4 ADD PUSH2 0x2386 JUMP JUMPDEST PUSH2 0x1E0 MSTORE PUSH2 0x5E0 MSTORE PUSH1 0x1 PUSH1 0x1 PUSH1 0x40 SHL SUB PUSH2 0x124 CALLDATALOAD GT PUSH2 0x36F JUMPI PUSH2 0x525 CALLDATASIZE PUSH2 0x124 CALLDATALOAD PUSH1 0x4 ADD PUSH2 0x2386 JUMP JUMPDEST PUSH2 0x480 MSTORE PUSH2 0x1A0 MSTORE PUSH1 0x1 PUSH1 0x1 PUSH1 0x40 SHL SUB PUSH2 0x144 CALLDATALOAD GT PUSH2 0x36F JUMPI PUSH2 0x54E CALLDATASIZE PUSH2 0x144 CALLDATALOAD PUSH1 0x4 ADD PUSH2 0x2386 JUMP JUMPDEST PUSH2 0x200 MSTORE PUSH2 0x560 MSTORE PUSH1 0x1 PUSH1 0x1 PUSH1 0x40 SHL SUB PUSH2 0x164 CALLDATALOAD GT PUSH2 0x36F JUMPI PUSH2 0x577 CALLDATASIZE PUSH2 0x164 CALLDATALOAD PUSH1 0x4 ADD PUSH2 0x2386 JUMP JUMPDEST PUSH2 0x620 MSTORE PUSH2 0x340 MSTORE PUSH1 0x1 PUSH1 0x1 PUSH1 0x40 SHL SUB PUSH2 0x184 CALLDATALOAD GT PUSH2 0x36F JUMPI PUSH2 0x5A0 CALLDATASIZE PUSH2 0x184 CALLDATALOAD PUSH1 0x4 ADD PUSH2 0x2386 JUMP JUMPDEST PUSH2 0x120 MSTORE PUSH2 0x520 MSTORE PUSH1 0x1 PUSH1 0x1 PUSH1 0x40 SHL SUB PUSH2 0x1A4 CALLDATALOAD GT PUSH2 0x36F JUMPI PUSH2 0x5C9 CALLDATASIZE PUSH2 0x1A4 CALLDATALOAD PUSH1 0x4 ADD PUSH2 0x2386 JUMP JUMPDEST PUSH2 0x4E0 MSTORE PUSH2 0x320 MSTORE PUSH1 0x1 PUSH1 0x1 PUSH1 0x40 SHL SUB PUSH2 0x1C4 CALLDATALOAD GT PUSH2 0x36F JUMPI PUSH2 0x5F2 CALLDATASIZE PUSH2 0x1C4 CALLDATALOAD PUSH1 0x4 ADD PUSH2 0x2386 JUMP JUMPDEST PUSH2 0x600 MSTORE PUSH2 0x180 MSTORE PUSH1 0x1 PUSH1 0x1 PUSH1 0x40 SHL SUB PUSH2 0x1E4 CALLDATALOAD GT PUSH2 0x36F JUMPI PUSH2 0x61B CALLDATASIZE PUSH2 0x1E4 CALLDATALOAD PUSH1 0x4 ADD PUSH2 0x2386 JUMP JUMPDEST PUSH1 0xA0 MSTORE PUSH2 0x5C0 MSTORE PUSH1 0x1 PUSH1 0x1 PUSH1 0x40 SHL SUB PUSH2 0x204 CALLDATALOAD GT PUSH2 0x36F JUMPI PUSH2 0x643 CALLDATASIZE PUSH2 0x204 CALLDATALOAD PUSH1 0x4 ADD PUSH2 0x2386 JUMP JUMPDEST PUSH2 0x640 MSTORE PUSH2 0x3C0 MSTORE PUSH1 0x1 PUSH1 0x1 PUSH1 0x40 SHL SUB PUSH2 0x224 CALLDATALOAD GT PUSH2 0x36F JUMPI PUSH2 0x66C CALLDATASIZE PUSH2 0x224 CALLDATALOAD PUSH1 0x4 ADD PUSH2 0x2386 JUMP JUMPDEST PUSH2 0x500 MSTORE PUSH2 0x2A0 MSTORE PUSH1 0x1 PUSH1 0x1 PUSH1 0x40 SHL SUB PUSH2 0x244 CALLDATALOAD GT PUSH2 0x36F JUMPI PUSH2 0x695 CALLDATASIZE PUSH2 0x244 CALLDATALOAD PUSH1 0x4 ADD PUSH2 0x2386 JUMP JUMPDEST PUSH2 0x3E0 MSTORE PUSH2 0x140 MSTORE PUSH1 0x1 PUSH1 0x1 PUSH1 0x40 SHL SUB PUSH2 0x264 CALLDATALOAD GT PUSH2 0x36F JUMPI PUSH2 0x6BE CALLDATASIZE PUSH2 0x264 CALLDATALOAD PUSH1 0x4 ADD PUSH2 0x2386 JUMP JUMPDEST PUSH2 0x420 MSTORE PUSH2 0x400 MSTORE PUSH1 0x0 SLOAD PUSH1 0x1 PUSH1 0x1 PUSH1 0xA0 SHL SUB AND CALLER SUB PUSH2 0x1D0E JUMPI PUSH2 0x6E8 PUSH1 0x40 MLOAD DUP1 PUSH2 0x280 MSTORE PUSH2 0x225B JUMP JUMPDEST PUSH2 0x6F9 CALLDATASIZE PUSH2 0x3A0 MLOAD PUSH2 0x2C0 MLOAD PUSH2 0x23B3 JUMP JUMPDEST PUSH2 0x280 MLOAD MSTORE PUSH2 0x70F CALLDATASIZE PUSH2 0x1C0 MLOAD PUSH2 0x540 MLOAD PUSH2 0x23B3 JUMP JUMPDEST PUSH1 0x20 PUSH2 0x280 MLOAD ADD MSTORE PUSH2 0x728 CALLDATASIZE PUSH2 0x4C0 MLOAD PUSH2 0x440 MLOAD PUSH2 0x23B3 JUMP JUMPDEST PUSH1 0x40 PUSH2 0x280 MLOAD ADD MSTORE PUSH2 0x740 CALLDATASIZE PUSH2 0x220 MLOAD PUSH1 0x80 MLOAD PUSH2 0x23B3 JUMP JUMPDEST PUSH1 0x60 PUSH2 0x280 MLOAD ADD MSTORE PUSH2 0x759 CALLDATASIZE PUSH2 0x260 MLOAD PUSH2 0x380 MLOAD PUSH2 0x23B3 JUMP JUMPDEST PUSH1 0x80 PUSH2 0x280 MLOAD ADD MSTORE PUSH2 0x772 CALLDATASIZE PUSH2 0x300 MLOAD PUSH2 0x360 MLOAD PUSH2 0x23B3 JUMP JUMPDEST PUSH1 0xA0 PUSH2 0x280 MLOAD ADD MSTORE PUSH2 0x78B CALLDATASIZE PUSH2 0x100 MLOAD PUSH2 0x2E0 MLOAD PUSH2 0x23B3 JUMP JUMPDEST PUSH1 0xC0 PUSH2 0x280 MLOAD ADD MSTORE PUSH2 0x7A4 CALLDATASIZE PUSH2 0x1E0 MLOAD PUSH2 0x5E0 MLOAD PUSH2 0x23B3 JUMP JUMPDEST PUSH1 0xE0 PUSH2 0x280 MLOAD ADD MSTORE PUSH2 0x7BD CALLDATASIZE PUSH2 0x480 MLOAD PUSH2 0x1A0 MLOAD PUSH2 0x23B3 JUMP JUMPDEST PUSH2 0x100 PUSH2 0x280 MLOAD ADD MSTORE PUSH2 0x7D7 CALLDATASIZE PUSH2 0x200 MLOAD PUSH2 0x560 MLOAD PUSH2 0x23B3 JUMP JUMPDEST PUSH2 0x120 PUSH2 0x280 MLOAD ADD MSTORE PUSH2 0x7F1 CALLDATASIZE PUSH2 0x620 MLOAD PUSH2 0x340 MLOAD PUSH2 0x23B3 JUMP JUMPDEST PUSH2 0x140 PUSH2 0x280 MLOAD ADD MSTORE PUSH2 0x80B CALLDATASIZE PUSH2 0x120 MLOAD PUSH2 0x520 MLOAD PUSH2 0x23B3 JUMP JUMPDEST PUSH2 0x160 PUSH2 0x280 MLOAD ADD MSTORE PUSH2 0x825 CALLDATASIZE PUSH2 0x4E0 MLOAD PUSH2 0x320 MLOAD PUSH2 0x23B3 JUMP JUMPDEST PUSH2 0x180 PUSH2 0x280 MLOAD ADD MSTORE PUSH2 0x83F CALLDATASIZE PUSH2 0x600 MLOAD PUSH2 0x180 MLOAD PUSH2 0x23B3 JUMP JUMPDEST PUSH2 0x1A0 PUSH2 0x280 MLOAD ADD MSTORE PUSH2 0x858 CALLDATASIZE PUSH1 0xA0 MLOAD PUSH2 0x5C0 MLOAD PUSH2 0x23B3 JUMP JUMPDEST PUSH2 0x1C0 PUSH2 0x280 MLOAD ADD MSTORE PUSH2 0x872 CALLDATASIZE PUSH2 0x640 MLOAD PUSH2 0x3C0 MLOAD PUSH2 0x23B3 JUMP JUMPDEST PUSH2 0x1E0 PUSH2 0x280 MLOAD ADD MSTORE PUSH2 0x88C CALLDATASIZE PUSH2 0x500 MLOAD PUSH2 0x2A0 MLOAD PUSH2 0x23B3 JUMP JUMPDEST PUSH2 0x200 PUSH2 0x280 MLOAD ADD MSTORE PUSH2 0x8A6 CALLDATASIZE PUSH2 0x3E0 MLOAD PUSH2 0x140 MLOAD PUSH2 0x23B3 JUMP JUMPDEST PUSH2 0x220 PUSH2 0x280 MLOAD ADD MSTORE PUSH2 0x8C0 CALLDATASIZE PUSH2 0x420 MLOAD PUSH2 0x400 MLOAD PUSH2 0x23B3 JUMP JUMPDEST PUSH2 0x240 PUSH2 0x280 MLOAD ADD MSTORE PUSH1 0x40 MLOAD PUSH2 0x660 MLOAD PUSH2 0x160 MLOAD DUP3 CALLDATACOPY PUSH1 0x1 PUSH2 0x660 MLOAD DUP3 ADD MSTORE PUSH1 0x20 DUP2 PUSH2 0x660 MLOAD DUP2 ADD SUB ADD SWAP1 KECCAK256 PUSH2 0x280 MLOAD MLOAD DUP1 MLOAD SWAP1 PUSH1 0x1 PUSH1 0x1 PUSH1 0x40 SHL SUB DUP3 GT PUSH2 0x13AE JUMPI DUP2 SWAP1 PUSH2 0x918 DUP3 PUSH2 0x912 DUP7 SLOAD PUSH2 0x2221 JUMP JUMPDEST DUP7 PUSH2 0x23F9 JUMP JUMPDEST PUSH1 0x20 SWAP1 PUSH1 0x1F DUP4 GT PUSH1 0x1 EQ PUSH2 0x1CA2 JUMPI PUSH1 0x0 SWAP3 PUSH2 0x1C97 JUMPI JUMPDEST POP POP DUP2 PUSH1 0x1 SHL SWAP2 PUSH1 0x0 NOT SWAP1 PUSH1 0x3 SHL SHR NOT AND OR DUP2 SSTORE JUMPDEST PUSH1 0x20 PUSH2 0x280 MLOAD ADD MLOAD DUP1 MLOAD SWAP1 PUSH1 0x1 PUSH1 0x1 PUSH1 0x40 SHL SUB DUP3 GT PUSH2 0x13AE JUMPI DUP2 SWAP1 PUSH2 0x978 DUP3 PUSH2 0x96F PUSH1 0x1 DUP8 ADD SLOAD PUSH2 0x2221 JUMP JUMPDEST PUSH1 0x1 DUP8 ADD PUSH2 0x23F9 JUMP JUMPDEST PUSH1 0x20 SWAP1 PUSH1 0x1F DUP4 GT PUSH1 0x1 EQ PUSH2 0x1C25 JUMPI PUSH1 0x0 SWAP3 PUSH2 0x1C1A JUMPI JUMPDEST POP POP DUP2 PUSH1 0x1 SHL SWAP2 PUSH1 0x0 NOT SWAP1 PUSH1 0x3 SHL SHR NOT AND OR PUSH1 0x1 DUP3 ADD SSTORE JUMPDEST PUSH1 0x40 PUSH2 0x280 MLOAD ADD MLOAD DUP1 MLOAD SWAP1 PUSH1 0x1 PUSH1 0x1 PUSH1 0x40 SHL SUB DUP3 GT PUSH2 0x13AE JUMPI DUP2 SWAP1 PUSH2 0x9DB DUP3 PUSH2 0x9D2 PUSH1 0x2 DUP8 ADD SLOAD PUSH2 0x2221 JUMP JUMPDEST PUSH1 0x2 DUP8 ADD PUSH2 0x23F9 JUMP JUMPDEST PUSH1 0x20 SWAP1 PUSH1 0x1F DUP4 GT PUSH1 0x1 EQ PUSH2 0x1BA8 JUMPI PUSH1 0x0 SWAP3 PUSH2 0x1B9D JUMPI JUMPDEST POP POP DUP2 PUSH1 0x1 SHL SWAP2 PUSH1 0x0 NOT SWAP1 PUSH1 0x3 SHL SHR NOT AND OR PUSH1 0x2 DUP3 ADD SSTORE JUMPDEST PUSH1 0x60 PUSH2 0x280 MLOAD ADD MLOAD DUP1 MLOAD SWAP1 PUSH1 0x1 PUSH1 0x1 PUSH1 0x40 SHL SUB DUP3 GT PUSH2 0x13AE JUMPI DUP2 SWAP1 PUSH2 0xA3E DUP3 PUSH2 0xA35 PUSH1 0x3 DUP8 ADD SLOAD PUSH2 0x2221 JUMP JUMPDEST PUSH1 0x3 DUP8 ADD PUSH2 0x23F9 JUMP JUMPDEST PUSH1 0x20 SWAP1 PUSH1 0x1F DUP4 GT PUSH1 0x1 EQ PUSH2 0x1B2B JUMPI PUSH1 0x0 SWAP3 PUSH2 0x1B20 JUMPI JUMPDEST POP POP DUP2 PUSH1 0x1 SHL SWAP2 PUSH1 0x0 NOT SWAP1 PUSH1 0x3 SHL SHR NOT AND OR PUSH1 0x3 DUP3 ADD SSTORE JUMPDEST PUSH1 0x80 PUSH2 0x280 MLOAD ADD MLOAD DUP1 MLOAD SWAP1 PUSH1 0x1 PUSH1 0x1 PUSH1 0x40 SHL SUB DUP3 GT PUSH2 0x13AE JUMPI DUP2 SWAP1 PUSH2 0xAA1 DUP3 PUSH2 0xA98 PUSH1 0x4 DUP8 ADD SLOAD PUSH2 0x2221 JUMP JUMPDEST PUSH1 0x4 DUP8 ADD PUSH2 0x23F9 JUMP JUMPDEST PUSH1 0x20 SWAP1 PUSH1 0x1F DUP4 GT PUSH1 0x1 EQ PUSH2 0x1AAE JUMPI PUSH1 0x0 SWAP3 PUSH2 0x1AA3 JUMPI JUMPDEST POP POP DUP2 PUSH1 0x1 SHL SWAP2 PUSH1 0x0 NOT SWAP1 PUSH1 0x3 SHL SHR NOT AND OR PUSH1 0x4 DUP3 ADD SSTORE JUMPDEST PUSH1 0xA0 PUSH2 0x280 MLOAD ADD MLOAD DUP1 MLOAD SWAP1 PUSH1 0x1 PUSH1 0x1 PUSH1 0x40 SHL SUB DUP3 GT PUSH2 0x13AE JUMPI DUP2 SWAP1 PUSH2 0xB04 DUP3 PUSH2 0xAFB PUSH1 0x5 DUP8 ADD SLOAD PUSH2 0x2221 JUMP JUMPDEST PUSH1 0x5 DUP8 ADD PUSH2 0x23F9 JUMP JUMPDEST PUSH1 0x20 SWAP1 PUSH1 0x1F DUP4 GT PUSH1 0x1 EQ PUSH2 0x1A31 JUMPI PUSH1 0x0 SWAP3 PUSH2 0x1A26 JUMPI JUMPDEST POP POP DUP2 PUSH1 0x1 SHL SWAP2 PUSH1 0x0 NOT SWAP1 PUSH1 0x3 SHL SHR NOT AND OR PUSH1 0x5 DUP3 ADD SSTORE JUMPDEST PUSH1 0xC0 PUSH2 0x280 MLOAD ADD MLOAD DUP1 MLOAD SWAP1 PUSH1 0x1 PUSH1 0x1 PUSH1 0x40 SHL SUB DUP3 GT PUSH2 0x13AE JUMPI DUP2 SWAP1 PUSH2 0xB67 DUP3 PUSH2 0xB5E PUSH1 0x6 DUP8 ADD SLOAD PUSH2 0x2221 JUMP JUMPDEST PUSH1 0x6 DUP8 ADD PUSH2 0x23F9 JUMP JUMPDEST PUSH1 0x20 SWAP1 PUSH1 0x1F DUP4 GT PUSH1 0x1 EQ PUSH2 0x19B4 JUMPI PUSH1 0x0 SWAP3 PUSH2 0x19A9 JUMPI JUMPDEST POP POP DUP2 PUSH1 0x1 SHL SWAP2 PUSH1 0x0 NOT SWAP1 PUSH1 0x3 SHL SHR NOT AND OR PUSH1 0x6 DUP3 ADD SSTORE JUMPDEST PUSH1 0xE0 PUSH2 0x280 MLOAD ADD MLOAD DUP1 MLOAD SWAP1 PUSH1 0x1 PUSH1 0x1 PUSH1 0x40 SHL SUB DUP3 GT PUSH2 0x13AE JUMPI DUP2 SWAP1 PUSH2 0xBCA DUP3 PUSH2 0xBC1 PUSH1 0x7 DUP8 ADD SLOAD PUSH2 0x2221 JUMP JUMPDEST PUSH1 0x7 DUP8 ADD PUSH2 0x23F9 JUMP JUMPDEST PUSH1 0x20 SWAP1 PUSH1 0x1F DUP4 GT PUSH1 0x1 EQ PUSH2 0x1937 JUMPI PUSH1 0x0 SWAP3 PUSH2 0x192C JUMPI JUMPDEST POP POP DUP2 PUSH1 0x1 SHL SWAP2 PUSH1 0x0 NOT SWAP1 PUSH1 0x3 SHL SHR NOT AND OR PUSH1 0x7 DUP3 ADD SSTORE JUMPDEST PUSH2 0x100 PUSH2 0x280 MLOAD ADD MLOAD DUP1 MLOAD SWAP1 PUSH1 0x1 PUSH1 0x1 PUSH1 0x40 SHL SUB DUP3 GT PUSH2 0x13AE JUMPI DUP2 SWAP1 PUSH2 0xC2E DUP3 PUSH2 0xC25 PUSH1 0x8 DUP8 ADD SLOAD PUSH2 0x2221 JUMP JUMPDEST PUSH1 0x8 DUP8 ADD PUSH2 0x23F9 JUMP JUMPDEST PUSH1 0x20 SWAP1 PUSH1 0x1F DUP4 GT PUSH1 0x1 EQ PUSH2 0x18BA JUMPI PUSH1 0x0 SWAP3 PUSH2 0x18AF JUMPI JUMPDEST POP POP DUP2 PUSH1 0x1 SHL SWAP2 PUSH1 0x0 NOT SWAP1 PUSH1 0x3 SHL SHR NOT AND OR PUSH1 0x8 DUP3 ADD SSTORE JUMPDEST PUSH2 0x120 PUSH2 0x280 MLOAD ADD MLOAD DUP1 MLOAD SWAP1 PUSH1 0x1 PUSH1 0x1 PUSH1 0x40 SHL SUB DUP3 GT PUSH2 0x13AE JUMPI DUP2 SWAP1 PUSH2 0xC92 DUP3 PUSH2 0xC89 PUSH1 0x9 DUP8 ADD SLOAD PUSH2 0x2221 JUMP JUMPDEST PUSH1 0x9 DUP8 ADD PUSH2 0x23F9 JUMP JUMPDEST PUSH1 0x20 SWAP1 PUSH1 0x1F DUP4 GT PUSH1 0x1 EQ PUSH2 0x183D JUMPI PUSH1 0x0 SWAP3 PUSH2 0x1832 JUMPI JUMPDEST POP POP DUP2 PUSH1 0x1 SHL SWAP2 PUSH1 0x0 NOT SWAP1 PUSH1 0x3 SHL SHR NOT AND OR PUSH1 0x9 DUP3 ADD SSTORE JUMPDEST PUSH2 0x140 PUSH2 0x280 MLOAD ADD MLOAD DUP1 MLOAD SWAP1 PUSH1 0x1 PUSH1 0x1 PUSH1 0x40 SHL SUB DUP3 GT PUSH2 0x13AE JUMPI DUP2 SWAP1 PUSH2 0xCF6 DUP3 PUSH2 0xCED PUSH1 0xA DUP8 ADD SLOAD PUSH2 0x2221 JUMP JUMPDEST PUSH1 0xA DUP8 ADD PUSH2 0x23F9 JUMP JUMPDEST PUSH1 0x20 SWAP1 PUSH1 0x1F DUP4 GT PUSH1 0x1 EQ PUSH2 0x17C0 JUMPI PUSH1 0x0 SWAP3 PUSH2 0x17B5 JUMPI JUMPDEST POP POP DUP2 PUSH1 0x1 SHL SWAP2 PUSH1 0x0 NOT SWAP1 PUSH1 0x3 SHL SHR NOT AND OR PUSH1 0xA DUP3 ADD SSTORE JUMPDEST PUSH2 0x160 PUSH2 0x280 MLOAD ADD MLOAD DUP1 MLOAD SWAP1 PUSH1 0x1 PUSH1 0x1 PUSH1 0x40 SHL SUB DUP3 GT PUSH2 0x13AE JUMPI DUP2 SWAP1 PUSH2 0xD5A DUP3 PUSH2 0xD51 PUSH1 0xB DUP8 ADD SLOAD PUSH2 0x2221 JUMP JUMPDEST PUSH1 0xB DUP8 ADD PUSH2 0x23F9 JUMP JUMPDEST PUSH1 0x20 SWAP1 PUSH1 0x1F DUP4 GT PUSH1 0x1 EQ PUSH2 0x1743 JUMPI PUSH1 0x0 SWAP3 PUSH2 0x1738 JUMPI JUMPDEST POP POP DUP2 PUSH1 0x1 SHL SWAP2 PUSH1 0x0 NOT SWAP1 PUSH1 0x3 SHL SHR NOT AND OR PUSH1 0xB DUP3 ADD SSTORE JUMPDEST PUSH2 0x180 PUSH2 0x280 MLOAD ADD MLOAD DUP1 MLOAD SWAP1 PUSH1 0x1 PUSH1 0x1 PUSH1 0x40 SHL SUB DUP3 GT PUSH2 0x13AE JUMPI DUP2 SWAP1 PUSH2 0xDBE DUP3 PUSH2 0xDB5 PUSH1 0xC DUP8 ADD SLOAD PUSH2 0x2221 JUMP JUMPDEST PUSH1 0xC DUP8 ADD PUSH2 0x23F9 JUMP JUMPDEST PUSH1 0x20 SWAP1 PUSH1 0x1F DUP4 GT PUSH1 0x1 EQ PUSH2 0x16C6 JUMPI PUSH1 0x0 SWAP3 PUSH2 0x16BB JUMPI JUMPDEST POP POP DUP2 PUSH1 0x1 SHL SWAP2 PUSH1 0x0 NOT SWAP1 PUSH1 0x3 SHL SHR NOT AND OR PUSH1 0xC DUP3 ADD SSTORE JUMPDEST PUSH2 0x1A0 PUSH2 0x280 MLOAD ADD MLOAD DUP1 MLOAD SWAP1 PUSH1 0x1 PUSH1 0x1 PUSH1 0x40 SHL SUB DUP3 GT PUSH2 0x13AE JUMPI DUP2 SWAP1 PUSH2 0xE22 DUP3 PUSH2 0xE19 PUSH1 0xD DUP8 ADD SLOAD PUSH2 0x2221 JUMP JUMPDEST PUSH1 0xD DUP8 ADD PUSH2 0x23F9 JUMP JUMPDEST PUSH1 0x20 SWAP1 PUSH1 0x1F DUP4 GT PUSH1 0x1 EQ PUSH2 0x1649 JUMPI PUSH1 0x0 SWAP3 PUSH2 0x163E JUMPI JUMPDEST POP POP DUP2 PUSH1 0x1 SHL SWAP2 PUSH1 0x0 NOT SWAP1 PUSH1 0x3 SHL SHR NOT AND OR PUSH1 0xD DUP3 ADD SSTORE JUMPDEST PUSH2 0x1C0 PUSH2 0x280 MLOAD ADD MLOAD DUP1 MLOAD SWAP1 PUSH1 0x1 PUSH1 0x1 PUSH1 0x40 SHL SUB DUP3 GT PUSH2 0x13AE JUMPI DUP2 SWAP1 PUSH2 0xE86 DUP3 PUSH2 0xE7D PUSH1 0xE DUP8 ADD SLOAD PUSH2 0x2221 JUMP JUMPDEST PUSH1 0xE DUP8 ADD PUSH2 0x23F9 JUMP JUMPDEST PUSH1 0x20 SWAP1 PUSH1 0x1F DUP4 GT PUSH1 0x1 EQ PUSH2 0x15CC JUMPI PUSH1 0x0 SWAP3 PUSH2 0x15C1 JUMPI JUMPDEST POP POP DUP2 PUSH1 0x1 SHL SWAP2 PUSH1 0x0 NOT SWAP1 PUSH1 0x3 SHL SHR NOT AND OR PUSH1 0xE DUP3 ADD SSTORE JUMPDEST PUSH2 0x1E0 PUSH2 0x280 MLOAD ADD MLOAD DUP1 MLOAD SWAP1 PUSH1 0x1 PUSH1 0x1 PUSH1 0x40 SHL SUB DUP3 GT PUSH2 0x13AE JUMPI DUP2 SWAP1 PUSH2 0xEEA DUP3 PUSH2 0xEE1 PUSH1 0xF DUP8 ADD SLOAD PUSH2 0x2221 JUMP JUMPDEST PUSH1 0xF DUP8 ADD PUSH2 0x23F9 JUMP JUMPDEST PUSH1 0x20 SWAP1 PUSH1 0x1F DUP4 GT PUSH1 0x1 EQ PUSH2 0x154F JUMPI PUSH1 0x0 SWAP3 PUSH2 0x1544 JUMPI JUMPDEST POP POP DUP2 PUSH1 0x1 SHL SWAP2 PUSH1 0x0 NOT SWAP1 PUSH1 0x3 SHL SHR NOT AND OR PUSH1 0xF DUP3 ADD SSTORE JUMPDEST PUSH2 0x200 PUSH2 0x280 MLOAD ADD MLOAD DUP1 MLOAD SWAP1 PUSH1 0x1 PUSH1 0x1 PUSH1 0x40 SHL SUB DUP3 GT PUSH2 0x13AE JUMPI DUP2 SWAP1 PUSH2 0xF4E DUP3 PUSH2 0xF45 PUSH1 0x10 DUP8 ADD SLOAD PUSH2 0x2221 JUMP JUMPDEST PUSH1 0x10 DUP8 ADD PUSH2 0x23F9 JUMP JUMPDEST PUSH1 0x20 SWAP1 PUSH1 0x1F DUP4 GT PUSH1 0x1 EQ PUSH2 0x14D2 JUMPI PUSH1 0x0 SWAP3 PUSH2 0x14C7 JUMPI JUMPDEST POP POP DUP2 PUSH1 0x1 SHL SWAP2 PUSH1 0x0 NOT SWAP1 PUSH1 0x3 SHL SHR NOT AND OR PUSH1 0x10 DUP3 ADD SSTORE JUMPDEST PUSH2 0x220 PUSH2 0x280 MLOAD ADD MLOAD DUP1 MLOAD SWAP1 PUSH1 0x1 PUSH1 0x1 PUSH1 0x40 SHL SUB DUP3 GT PUSH2 0x13AE JUMPI DUP2 SWAP1 PUSH2 0xFB2 DUP3 PUSH2 0xFA9 PUSH1 0x11 DUP8 ADD SLOAD PUSH2 0x2221 JUMP JUMPDEST PUSH1 0x11 DUP8 ADD PUSH2 0x23F9 JUMP JUMPDEST PUSH1 0x20 SWAP1 PUSH1 0x1F DUP4 GT PUSH1 0x1 EQ PUSH2 0x1455 JUMPI PUSH1 0x0 SWAP3 PUSH2 0x144A JUMPI JUMPDEST POP POP DUP2 PUSH1 0x1 SHL SWAP2 PUSH1 0x0 NOT SWAP1 PUSH1 0x3 SHL SHR NOT AND OR PUSH1 0x11 DUP3 ADD SSTORE JUMPDEST PUSH2 0x240 PUSH2 0x280 MLOAD ADD MLOAD SWAP1 DUP2 MLOAD SWAP1 PUSH1 0x1 PUSH1 0x1 PUSH1 0x40 SHL SUB DUP3 GT PUSH2 0x13AE JUMPI PUSH1 0x12 ADD SWAP1 PUSH2 0x1013 DUP2 PUSH2 0x100D DUP5 SLOAD PUSH2 0x2221 JUMP JUMPDEST DUP5 PUSH2 0x23F9 JUMP JUMPDEST PUSH1 0x20 PUSH1 0x1F DUP3 GT PUSH1 0x1 EQ PUSH2 0x13E5 JUMPI DUP2 SWAP3 SWAP4 PUSH1 0x0 SWAP3 PUSH2 0x13DA JUMPI JUMPDEST POP POP DUP2 PUSH1 0x1 SHL SWAP2 PUSH1 0x0 NOT SWAP1 PUSH1 0x3 SHL SHR NOT AND OR SWAP1 SSTORE JUMPDEST PUSH1 0x2 SLOAD PUSH9 0x10000000000000000 DUP2 LT ISZERO PUSH2 0x13AE JUMPI DUP1 PUSH1 0x1 PUSH2 0x1064 SWAP3 ADD PUSH1 0x2 SSTORE PUSH2 0x21D4 JUMP JUMPDEST PUSH2 0x13C4 JUMPI PUSH2 0x660 MLOAD PUSH1 0x1 PUSH1 0x1 PUSH1 0x40 SHL SUB DUP2 GT PUSH2 0x13AE JUMPI PUSH2 0x108E SWAP1 PUSH2 0x1088 DUP4 SLOAD PUSH2 0x2221 JUMP JUMPDEST DUP4 PUSH2 0x23F9 JUMP JUMPDEST PUSH1 0x0 SWAP1 PUSH2 0x660 MLOAD PUSH1 0x1F DUP2 GT PUSH1 0x1 EQ PUSH2 0x1341 JUMPI POP SWAP1 PUSH1 0x0 PUSH2 0x660 MLOAD SWAP2 DUP3 PUSH2 0x1333 JUMPI JUMPDEST POP DUP2 PUSH1 0x1 SHL SWAP2 PUSH1 0x0 NOT SWAP1 PUSH1 0x3 SHL SHR NOT AND OR SWAP1 SSTORE JUMPDEST PUSH2 0x280 PUSH1 0x40 MLOAD DUP1 PUSH2 0x580 MSTORE MSTORE PUSH32 0x3D82D52B6A84C8A01266E86A0CA94FBB6C5713FD728AB359124800DEBBA09790 PUSH2 0x1309 PUSH2 0x12EF PUSH2 0x12D5 PUSH2 0x12BB PUSH2 0x12A2 PUSH2 0x1288 PUSH2 0x126E PUSH2 0x1254 PUSH2 0x123A PUSH2 0x1220 PUSH2 0x1206 PUSH2 0x11EC PUSH2 0x11D3 PUSH2 0x11BA PUSH2 0x11A1 PUSH2 0x1189 PUSH2 0x1170 PUSH2 0x1157 PUSH2 0x113E PUSH2 0x280 PUSH2 0x580 MLOAD ADD PUSH2 0x660 MLOAD PUSH2 0x160 MLOAD PUSH2 0x244D JUMP JUMPDEST PUSH2 0x580 MLOAD PUSH1 0x20 DUP2 DUP4 SUB SWAP2 ADD MSTORE PUSH2 0x3A0 MLOAD PUSH2 0x2C0 MLOAD PUSH2 0x244D JUMP JUMPDEST PUSH2 0x580 MLOAD PUSH1 0x40 DUP2 DUP4 SUB SWAP2 ADD MSTORE PUSH2 0x1C0 MLOAD PUSH2 0x540 MLOAD PUSH2 0x244D JUMP JUMPDEST PUSH2 0x580 MLOAD PUSH1 0x60 DUP2 DUP4 SUB SWAP2 ADD MSTORE PUSH2 0x4C0 MLOAD PUSH2 0x440 MLOAD PUSH2 0x244D JUMP JUMPDEST PUSH2 0x580 MLOAD PUSH1 0x80 DUP2 DUP4 SUB SWAP2 ADD MSTORE PUSH2 0x220 MLOAD PUSH1 0x80 MLOAD PUSH2 0x244D JUMP JUMPDEST PUSH2 0x580 MLOAD PUSH1 0xA0 DUP2 DUP4 SUB SWAP2 ADD MSTORE PUSH2 0x260 MLOAD PUSH2 0x380 MLOAD PUSH2 0x244D JUMP JUMPDEST PUSH2 0x580 MLOAD PUSH1 0xC0 DUP2 DUP4 SUB SWAP2 ADD MSTORE PUSH2 0x300 MLOAD PUSH2 0x360 MLOAD PUSH2 0x244D JUMP JUMPDEST PUSH2 0x580 MLOAD PUSH1 0xE0 DUP2 DUP4 SUB SWAP2 ADD MSTORE PUSH2 0x100 MLOAD PUSH2 0x2E0 MLOAD PUSH2 0x244D JUMP JUMPDEST PUSH2 0x580 MLOAD PUSH2 0x100 DUP2 DUP4 SUB SWAP2 ADD MSTORE PUSH2 0x1E0 MLOAD PUSH2 0x5E0 MLOAD PUSH2 0x244D JUMP JUMPDEST PUSH2 0x580 MLOAD PUSH2 0x120 DUP2 DUP4 SUB SWAP2 ADD MSTORE PUSH2 0x480 MLOAD PUSH2 0x1A0 MLOAD PUSH2 0x244D JUMP JUMPDEST PUSH2 0x580 MLOAD PUSH2 0x140 DUP2 DUP4 SUB SWAP2 ADD MSTORE PUSH2 0x200 MLOAD PUSH2 0x560 MLOAD PUSH2 0x244D JUMP JUMPDEST PUSH2 0x580 MLOAD PUSH2 0x160 DUP2 DUP4 SUB SWAP2 ADD MSTORE PUSH2 0x620 MLOAD PUSH2 0x340 MLOAD PUSH2 0x244D JUMP JUMPDEST PUSH2 0x580 MLOAD PUSH2 0x180 DUP2 DUP4 SUB SWAP2 ADD MSTORE PUSH2 0x120 MLOAD PUSH2 0x520 MLOAD PUSH2 0x244D JUMP JUMPDEST PUSH2 0x580 MLOAD PUSH2 0x1A0 DUP2 DUP4 SUB SWAP2 ADD MSTORE PUSH2 0x4E0 MLOAD PUSH2 0x320 MLOAD PUSH2 0x244D JUMP JUMPDEST PUSH2 0x580 MLOAD PUSH2 0x1C0 DUP2 DUP4 SUB SWAP2 ADD MSTORE PUSH2 0x600 MLOAD PUSH2 0x180 MLOAD PUSH2 0x244D JUMP JUMPDEST PUSH2 0x580 MLOAD PUSH2 0x1E0 DUP2 DUP4 SUB SWAP2 ADD MSTORE PUSH1 0xA0 MLOAD PUSH2 0x5C0 MLOAD PUSH2 0x244D JUMP JUMPDEST PUSH2 0x580 MLOAD PUSH2 0x200 DUP2 DUP4 SUB SWAP2 ADD MSTORE PUSH2 0x640 MLOAD PUSH2 0x3C0 MLOAD PUSH2 0x244D JUMP JUMPDEST PUSH2 0x580 MLOAD PUSH2 0x220 DUP2 DUP4 SUB SWAP2 ADD MSTORE PUSH2 0x500 MLOAD PUSH2 0x2A0 MLOAD PUSH2 0x244D JUMP JUMPDEST PUSH2 0x580 MLOAD PUSH2 0x240 DUP2 DUP4 SUB SWAP2 ADD MSTORE PUSH2 0x3E0 MLOAD PUSH2 0x140 MLOAD PUSH2 0x244D JUMP JUMPDEST PUSH2 0x580 MLOAD PUSH2 0x260 DUP2 DUP4 SUB SWAP2 ADD MSTORE PUSH2 0x132B PUSH2 0x580 MLOAD SWAP2 PUSH2 0x420 MLOAD PUSH2 0x400 MLOAD PUSH2 0x244D JUMP JUMPDEST SUB PUSH2 0x580 MLOAD LOG1 STOP JUMPDEST SWAP1 POP PUSH2 0x160 MLOAD ADD CALLDATALOAD DUP4 PUSH2 0x10AF JUMP JUMPDEST DUP2 PUSH1 0x0 MSTORE PUSH1 0x20 PUSH1 0x0 KECCAK256 PUSH1 0x0 SWAP4 PUSH2 0x160 MLOAD SWAP1 JUMPDEST PUSH1 0x1F NOT DUP5 AND DUP7 LT PUSH2 0x1396 JUMPI PUSH1 0x1 SWAP5 SWAP6 POP DUP4 PUSH1 0x1F NOT DUP2 AND LT PUSH2 0x137C JUMPI JUMPDEST POP POP POP DUP2 SHL ADD SWAP1 SSTORE PUSH2 0x10C3 JUMP JUMPDEST ADD CALLDATALOAD PUSH1 0x0 NOT PUSH1 0x3 DUP5 SWAP1 SHL PUSH1 0xF8 AND SHR NOT AND SWAP1 SSTORE DUP4 DUP1 DUP1 PUSH2 0x136F JUMP JUMPDEST SWAP2 PUSH1 0x20 PUSH1 0x1 DUP2 SWAP3 DUP6 DUP6 ADD CALLDATALOAD DUP2 SSTORE ADD SWAP4 ADD SWAP6 ADD SWAP5 PUSH2 0x1353 JUMP JUMPDEST PUSH4 0x4E487B71 PUSH1 0xE0 SHL PUSH1 0x0 MSTORE PUSH1 0x41 PUSH1 0x4 MSTORE PUSH1 0x24 PUSH1 0x0 REVERT JUMPDEST PUSH4 0x4E487B71 PUSH1 0xE0 SHL PUSH1 0x0 MSTORE PUSH1 0x0 PUSH1 0x4 MSTORE PUSH1 0x24 PUSH1 0x0 REVERT JUMPDEST ADD MLOAD SWAP1 POP DUP4 DUP1 PUSH2 0x102B JUMP JUMPDEST DUP3 PUSH1 0x0 MSTORE PUSH1 0x20 PUSH1 0x0 KECCAK256 SWAP1 PUSH1 0x0 SWAP5 PUSH1 0x1F NOT DUP5 AND SWAP6 JUMPDEST DUP7 DUP2 LT PUSH2 0x1432 JUMPI POP DUP4 PUSH1 0x1 SWAP6 SWAP7 LT PUSH2 0x1419 JUMPI JUMPDEST POP POP POP DUP2 SHL ADD SWAP1 SSTORE PUSH2 0x1040 JUMP JUMPDEST ADD MLOAD PUSH1 0x0 NOT PUSH1 0xF8 DUP5 PUSH1 0x3 SHL AND SHR NOT AND SWAP1 SSTORE DUP4 DUP1 DUP1 PUSH2 0x140C JUMP JUMPDEST SWAP2 SWAP3 PUSH1 0x20 PUSH1 0x1 DUP2 SWAP3 DUP7 DUP6 ADD MLOAD DUP2 SSTORE ADD SWAP5 ADD SWAP3 ADD PUSH2 0x13F9 JUMP JUMPDEST ADD MLOAD SWAP1 POP DUP4 DUP1 PUSH2 0xFC8 JUMP JUMPDEST SWAP3 POP PUSH1 0x11 DUP5 ADD PUSH1 0x0 MSTORE PUSH1 0x20 PUSH1 0x0 KECCAK256 SWAP1 PUSH1 0x0 SWAP4 JUMPDEST PUSH1 0x1F NOT DUP5 AND DUP6 LT PUSH2 0x14AC JUMPI PUSH1 0x1 SWAP5 POP DUP4 PUSH1 0x1F NOT DUP2 AND LT PUSH2 0x1493 JUMPI JUMPDEST POP POP POP DUP2 SHL ADD PUSH1 0x11 DUP3 ADD SSTORE PUSH2 0xFE0 JUMP JUMPDEST ADD MLOAD PUSH1 0x0 NOT PUSH1 0xF8 DUP5 PUSH1 0x3 SHL AND SHR NOT AND SWAP1 SSTORE DUP4 DUP1 DUP1 PUSH2 0x1483 JUMP JUMPDEST DUP2 DUP2 ADD MLOAD DUP4 SSTORE PUSH1 0x20 SWAP5 DUP6 ADD SWAP5 PUSH1 0x1 SWAP1 SWAP4 ADD SWAP3 SWAP1 SWAP2 ADD SWAP1 PUSH2 0x1468 JUMP JUMPDEST ADD MLOAD SWAP1 POP DUP4 DUP1 PUSH2 0xF64 JUMP JUMPDEST SWAP3 POP PUSH1 0x10 DUP5 ADD PUSH1 0x0 MSTORE PUSH1 0x20 PUSH1 0x0 KECCAK256 SWAP1 PUSH1 0x0 SWAP4 JUMPDEST PUSH1 0x1F NOT DUP5 AND DUP6 LT PUSH2 0x1529 JUMPI PUSH1 0x1 SWAP5 POP DUP4 PUSH1 0x1F NOT DUP2 AND LT PUSH2 0x1510 JUMPI JUMPDEST POP POP POP DUP2 SHL ADD PUSH1 0x10 DUP3 ADD SSTORE PUSH2 0xF7C JUMP JUMPDEST ADD MLOAD PUSH1 0x0 NOT PUSH1 0xF8 DUP5 PUSH1 0x3 SHL AND SHR NOT AND SWAP1 SSTORE DUP4 DUP1 DUP1 PUSH2 0x1500 JUMP JUMPDEST DUP2 DUP2 ADD MLOAD DUP4 SSTORE PUSH1 0x20 SWAP5 DUP6 ADD SWAP5 PUSH1 0x1 SWAP1 SWAP4 ADD SWAP3 SWAP1 SWAP2 ADD SWAP1 PUSH2 0x14E5 JUMP JUMPDEST ADD MLOAD SWAP1 POP DUP4 DUP1 PUSH2 0xF00 JUMP JUMPDEST SWAP3 POP PUSH1 0xF DUP5 ADD PUSH1 0x0 MSTORE PUSH1 0x20 PUSH1 0x0 KECCAK256 SWAP1 PUSH1 0x0 SWAP4 JUMPDEST PUSH1 0x1F NOT DUP5 AND DUP6 LT PUSH2 0x15A6 JUMPI PUSH1 0x1 SWAP5 POP DUP4 PUSH1 0x1F NOT DUP2 AND LT PUSH2 0x158D JUMPI JUMPDEST POP POP POP DUP2 SHL ADD PUSH1 0xF DUP3 ADD SSTORE PUSH2 0xF18 JUMP JUMPDEST ADD MLOAD PUSH1 0x0 NOT PUSH1 0xF8 DUP5 PUSH1 0x3 SHL AND SHR NOT AND SWAP1 SSTORE DUP4 DUP1 DUP1 PUSH2 0x157D JUMP JUMPDEST DUP2 DUP2 ADD MLOAD DUP4 SSTORE PUSH1 0x20 SWAP5 DUP6 ADD SWAP5 PUSH1 0x1 SWAP1 SWAP4 ADD SWAP3 SWAP1 SWAP2 ADD SWAP1 PUSH2 0x1562 JUMP JUMPDEST ADD MLOAD SWAP1 POP DUP4 DUP1 PUSH2 0xE9C JUMP JUMPDEST SWAP3 POP PUSH1 0xE DUP5 ADD PUSH1 0x0 MSTORE PUSH1 0x20 PUSH1 0x0 KECCAK256 SWAP1 PUSH1 0x0 SWAP4 JUMPDEST PUSH1 0x1F NOT DUP5 AND DUP6 LT PUSH2 0x1623 JUMPI PUSH1 0x1 SWAP5 POP DUP4 PUSH1 0x1F NOT DUP2 AND LT PUSH2 0x160A JUMPI JUMPDEST POP POP POP DUP2 SHL ADD PUSH1 0xE DUP3 ADD SSTORE PUSH2 0xEB4 JUMP JUMPDEST ADD MLOAD PUSH1 0x0 NOT PUSH1 0xF8 DUP5 PUSH1 0x3 SHL AND SHR NOT AND SWAP1 SSTORE DUP4 DUP1 DUP1 PUSH2 0x15FA JUMP JUMPDEST DUP2 DUP2 ADD MLOAD DUP4 SSTORE PUSH1 0x20 SWAP5 DUP6 ADD SWAP5 PUSH1 0x1 SWAP1 SWAP4 ADD SWAP3 SWAP1 SWAP2 ADD SWAP1 PUSH2 0x15DF JUMP JUMPDEST ADD MLOAD SWAP1 POP DUP4 DUP1 PUSH2 0xE38 JUMP JUMPDEST SWAP3 POP PUSH1 0xD DUP5 ADD PUSH1 0x0 MSTORE PUSH1 0x20 PUSH1 0x0 KECCAK256 SWAP1 PUSH1 0x0 SWAP4 JUMPDEST PUSH1 0x1F NOT DUP5 AND DUP6 LT PUSH2 0x16A0 JUMPI PUSH1 0x1 SWAP5 POP DUP4 PUSH1 0x1F NOT DUP2 AND LT PUSH2 0x1687 JUMPI JUMPDEST POP POP POP DUP2 SHL ADD PUSH1 0xD DUP3 ADD SSTORE PUSH2 0xE50 JUMP JUMPDEST ADD MLOAD PUSH1 0x0 NOT PUSH1 0xF8 DUP5 PUSH1 0x3 SHL AND SHR NOT AND SWAP1 SSTORE DUP4 DUP1 DUP1 PUSH2 0x1677 JUMP JUMPDEST DUP2 DUP2 ADD MLOAD DUP4 SSTORE PUSH1 0x20 SWAP5 DUP6 ADD SWAP5 PUSH1 0x1 SWAP1 SWAP4 ADD SWAP3 SWAP1 SWAP2 ADD SWAP1 PUSH2 0x165C JUMP JUMPDEST ADD MLOAD SWAP1 POP DUP4 DUP1 PUSH2 0xDD4 JUMP JUMPDEST SWAP3 POP PUSH1 0xC DUP5 ADD PUSH1 0x0 MSTORE PUSH1 0x20 PUSH1 0x0 KECCAK256 SWAP1 PUSH1 0x0 SWAP4 JUMPDEST PUSH1 0x1F NOT DUP5 AND DUP6 LT PUSH2 0x171D JUMPI PUSH1 0x1 SWAP5 POP DUP4 PUSH1 0x1F NOT DUP2 AND LT PUSH2 0x1704 JUMPI JUMPDEST POP POP POP DUP2 SHL ADD PUSH1 0xC DUP3 ADD SSTORE PUSH2 0xDEC JUMP JUMPDEST ADD MLOAD PUSH1 0x0 NOT PUSH1 0xF8 DUP5 PUSH1 0x3 SHL AND SHR NOT AND SWAP1 SSTORE DUP4 DUP1 DUP1 PUSH2 0x16F4 JUMP JUMPDEST DUP2 DUP2 ADD MLOAD DUP4 SSTORE PUSH1 0x20 SWAP5 DUP6 ADD SWAP5 PUSH1 0x1 SWAP1 SWAP4 ADD SWAP3 SWAP1 SWAP2 ADD SWAP1 PUSH2 0x16D9 JUMP JUMPDEST ADD MLOAD SWAP1 POP DUP4 DUP1 PUSH2 0xD70 JUMP JUMPDEST SWAP3 POP PUSH1 0xB DUP5 ADD PUSH1 0x0 MSTORE PUSH1 0x20 PUSH1 0x0 KECCAK256 SWAP1 PUSH1 0x0 SWAP4 JUMPDEST PUSH1 0x1F NOT DUP5 AND DUP6 LT PUSH2 0x179A JUMPI PUSH1 0x1 SWAP5 POP DUP4 PUSH1 0x1F NOT DUP2 AND LT PUSH2 0x1781 JUMPI JUMPDEST POP POP POP DUP2 SHL ADD PUSH1 0xB DUP3 ADD SSTORE PUSH2 0xD88 JUMP JUMPDEST ADD MLOAD PUSH1 0x0 NOT PUSH1 0xF8 DUP5 PUSH1 0x3 SHL AND SHR NOT AND SWAP1 SSTORE DUP4 DUP1 DUP1 PUSH2 0x1771 JUMP JUMPDEST DUP2 DUP2 ADD MLOAD DUP4 SSTORE PUSH1 0x20 SWAP5 DUP6 ADD SWAP5 PUSH1 0x1 SWAP1 SWAP4 ADD SWAP3 SWAP1 SWAP2 ADD SWAP1 PUSH2 0x1756 JUMP JUMPDEST ADD MLOAD SWAP1 POP DUP4 DUP1 PUSH2 0xD0C JUMP JUMPDEST SWAP3 POP PUSH1 0xA DUP5 ADD PUSH1 0x0 MSTORE PUSH1 0x20 PUSH1 0x0 KECCAK256 SWAP1 PUSH1 0x0 SWAP4 JUMPDEST PUSH1 0x1F NOT DUP5 AND DUP6 LT PUSH2 0x1817 JUMPI PUSH1 0x1 SWAP5 POP DUP4 PUSH1 0x1F NOT DUP2 AND LT PUSH2 0x17FE JUMPI JUMPDEST POP POP POP DUP2 SHL ADD PUSH1 0xA DUP3 ADD SSTORE PUSH2 0xD24 JUMP JUMPDEST ADD MLOAD PUSH1 0x0 NOT PUSH1 0xF8 DUP5 PUSH1 0x3 SHL AND SHR NOT AND SWAP1 SSTORE DUP4 DUP1 DUP1 PUSH2 0x17EE JUMP JUMPDEST DUP2 DUP2 ADD MLOAD DUP4 SSTORE PUSH1 0x20 SWAP5 DUP6 ADD SWAP5 PUSH1 0x1 SWAP1 SWAP4 ADD SWAP3 SWAP1 SWAP2 ADD SWAP1 PUSH2 0x17D3 JUMP JUMPDEST ADD MLOAD SWAP1 POP DUP4 DUP1 PUSH2 0xCA8 JUMP JUMPDEST SWAP3 POP PUSH1 0x9 DUP5 ADD PUSH1 0x0 MSTORE PUSH1 0x20 PUSH1 0x0 KECCAK256 SWAP1 PUSH1 0x0 SWAP4 JUMPDEST PUSH1 0x1F NOT DUP5 AND DUP6 LT PUSH2 0x1894 JUMPI PUSH1 0x1 SWAP5 POP DUP4 PUSH1 0x1F NOT DUP2 AND LT PUSH2 0x187B JUMPI JUMPDEST POP POP POP DUP2 SHL ADD PUSH1 0x9 DUP3 ADD SSTORE PUSH2 0xCC0 JUMP JUMPDEST ADD MLOAD PUSH1 0x0 NOT PUSH1 0xF8 DUP5 PUSH1 0x3 SHL AND SHR NOT AND SWAP1 SSTORE DUP4 DUP1 DUP1 PUSH2 0x186B JUMP JUMPDEST DUP2 DUP2 ADD MLOAD DUP4 SSTORE PUSH1 0x20 SWAP5 DUP6 ADD SWAP5 PUSH1 0x1 SWAP1 SWAP4 ADD SWAP3 SWAP1 SWAP2 ADD SWAP1 PUSH2 0x1850 JUMP JUMPDEST ADD MLOAD SWAP1 POP DUP4 DUP1 PUSH2 0xC44 JUMP JUMPDEST SWAP3 POP PUSH1 0x8 DUP5 ADD PUSH1 0x0 MSTORE PUSH1 0x20 PUSH1 0x0 KECCAK256 SWAP1 PUSH1 0x0 SWAP4 JUMPDEST PUSH1 0x1F NOT DUP5 AND DUP6 LT PUSH2 0x1911 JUMPI PUSH1 0x1 SWAP5 POP DUP4 PUSH1 0x1F NOT DUP2 AND LT PUSH2 0x18F8 JUMPI JUMPDEST POP POP POP DUP2 SHL ADD PUSH1 0x8 DUP3 ADD SSTORE PUSH2 0xC5C JUMP JUMPDEST ADD MLOAD PUSH1 0x0 NOT PUSH1 0xF8 DUP5 PUSH1 0x3 SHL AND SHR NOT AND SWAP1 SSTORE DUP4 DUP1 DUP1 PUSH2 0x18E8 JUMP JUMPDEST DUP2 DUP2 ADD MLOAD DUP4 SSTORE PUSH1 0x20 SWAP5 DUP6 ADD SWAP5 PUSH1 0x1 SWAP1 SWAP4 ADD SWAP3 SWAP1 SWAP2 ADD SWAP1 PUSH2 0x18CD JUMP JUMPDEST ADD MLOAD SWAP1 POP DUP4 DUP1 PUSH2 0xBE0 JUMP JUMPDEST SWAP3 POP PUSH1 0x7 DUP5 ADD PUSH1 0x0 MSTORE PUSH1 0x20 PUSH1 0x0 KECCAK256 SWAP1 PUSH1 0x0 SWAP4 JUMPDEST PUSH1 0x1F NOT DUP5 AND DUP6 LT PUSH2 0x198E JUMPI PUSH1 0x1 SWAP5 POP DUP4 PUSH1 0x1F NOT DUP2 AND LT PUSH2 0x1975 JUMPI JUMPDEST POP POP POP DUP2 SHL ADD PUSH1 0x7 DUP3 ADD SSTORE PUSH2 0xBF8 JUMP JUMPDEST ADD MLOAD PUSH1 0x0 NOT PUSH1 0xF8 DUP5 PUSH1 0x3 SHL AND SHR NOT AND SWAP1 SSTORE DUP4 DUP1 DUP1 PUSH2 0x1965 JUMP JUMPDEST DUP2 DUP2 ADD MLOAD DUP4 SSTORE PUSH1 0x20 SWAP5 DUP6 ADD SWAP5 PUSH1 0x1 SWAP1 SWAP4 ADD SWAP3 SWAP1 SWAP2 ADD SWAP1 PUSH2 0x194A JUMP JUMPDEST ADD MLOAD SWAP1 POP DUP4 DUP1 PUSH2 0xB7D JUMP JUMPDEST SWAP3 POP PUSH1 0x6 DUP5 ADD PUSH1 0x0 MSTORE PUSH1 0x20 PUSH1 0x0 KECCAK256 SWAP1 PUSH1 0x0 SWAP4 JUMPDEST PUSH1 0x1F NOT DUP5 AND DUP6 LT PUSH2 0x1A0B JUMPI PUSH1 0x1 SWAP5 POP DUP4 PUSH1 0x1F NOT DUP2 AND LT PUSH2 0x19F2 JUMPI JUMPDEST POP POP POP DUP2 SHL ADD PUSH1 0x6 DUP3 ADD SSTORE PUSH2 0xB95 JUMP JUMPDEST ADD MLOAD PUSH1 0x0 NOT PUSH1 0xF8 DUP5 PUSH1 0x3 SHL AND SHR NOT AND SWAP1 SSTORE DUP4 DUP1 DUP1 PUSH2 0x19E2 JUMP JUMPDEST DUP2 DUP2 ADD MLOAD DUP4 SSTORE PUSH1 0x20 SWAP5 DUP6 ADD SWAP5 PUSH1 0x1 SWAP1 SWAP4 ADD SWAP3 SWAP1 SWAP2 ADD SWAP1 PUSH2 0x19C7 JUMP JUMPDEST ADD MLOAD SWAP1 POP DUP4 DUP1 PUSH2 0xB1A JUMP JUMPDEST SWAP3 POP PUSH1 0x5 DUP5 ADD PUSH1 0x0 MSTORE PUSH1 0x20 PUSH1 0x0 KECCAK256 SWAP1 PUSH1 0x0 SWAP4 JUMPDEST PUSH1 0x1F NOT DUP5 AND DUP6 LT PUSH2 0x1A88 JUMPI PUSH1 0x1 SWAP5 POP DUP4 PUSH1 0x1F NOT DUP2 AND LT PUSH2 0x1A6F JUMPI JUMPDEST POP POP POP DUP2 SHL ADD PUSH1 0x5 DUP3 ADD SSTORE PUSH2 0xB32 JUMP JUMPDEST ADD MLOAD PUSH1 0x0 NOT PUSH1 0xF8 DUP5 PUSH1 0x3 SHL AND SHR NOT AND SWAP1 SSTORE DUP4 DUP1 DUP1 PUSH2 0x1A5F JUMP JUMPDEST DUP2 DUP2 ADD MLOAD DUP4 SSTORE PUSH1 0x20 SWAP5 DUP6 ADD SWAP5 PUSH1 0x1 SWAP1 SWAP4 ADD SWAP3 SWAP1 SWAP2 ADD SWAP1 PUSH2 0x1A44 JUMP JUMPDEST ADD MLOAD SWAP1 POP DUP4 DUP1 PUSH2 0xAB7 JUMP JUMPDEST SWAP3 POP PUSH1 0x4 DUP5 ADD PUSH1 0x0 MSTORE PUSH1 0x20 PUSH1 0x0 KECCAK256 SWAP1 PUSH1 0x0 SWAP4 JUMPDEST PUSH1 0x1F NOT DUP5 AND DUP6 LT PUSH2 0x1B05 JUMPI PUSH1 0x1 SWAP5 POP DUP4 PUSH1 0x1F NOT DUP2 AND LT PUSH2 0x1AEC JUMPI JUMPDEST POP POP POP DUP2 SHL ADD PUSH1 0x4 DUP3 ADD SSTORE PUSH2 0xACF JUMP JUMPDEST ADD MLOAD PUSH1 0x0 NOT PUSH1 0xF8 DUP5 PUSH1 0x3 SHL AND SHR NOT AND SWAP1 SSTORE DUP4 DUP1 DUP1 PUSH2 0x1ADC JUMP JUMPDEST DUP2 DUP2 ADD MLOAD DUP4 SSTORE PUSH1 0x20 SWAP5 DUP6 ADD SWAP5 PUSH1 0x1 SWAP1 SWAP4 ADD SWAP3 SWAP1 SWAP2 ADD SWAP1 PUSH2 0x1AC1 JUMP JUMPDEST ADD MLOAD SWAP1 POP DUP4 DUP1 PUSH2 0xA54 JUMP JUMPDEST SWAP3 POP PUSH1 0x3 DUP5 ADD PUSH1 0x0 MSTORE PUSH1 0x20 PUSH1 0x0 KECCAK256 SWAP1 PUSH1 0x0 SWAP4 JUMPDEST PUSH1 0x1F NOT DUP5 AND DUP6 LT PUSH2 0x1B82 JUMPI PUSH1 0x1 SWAP5 POP DUP4 PUSH1 0x1F NOT DUP2 AND LT PUSH2 0x1B69 JUMPI JUMPDEST POP POP POP DUP2 SHL ADD PUSH1 0x3 DUP3 ADD SSTORE PUSH2 0xA6C JUMP JUMPDEST ADD MLOAD PUSH1 0x0 NOT PUSH1 0xF8 DUP5 PUSH1 0x3 SHL AND SHR NOT AND SWAP1 SSTORE DUP4 DUP1 DUP1 PUSH2 0x1B59 JUMP JUMPDEST DUP2 DUP2 ADD MLOAD DUP4 SSTORE PUSH1 0x20 SWAP5 DUP6 ADD SWAP5 PUSH1 0x1 SWAP1 SWAP4 ADD SWAP3 SWAP1 SWAP2 ADD SWAP1 PUSH2 0x1B3E JUMP JUMPDEST ADD MLOAD SWAP1 POP DUP4 DUP1 PUSH2 0x9F1 JUMP JUMPDEST SWAP3 POP PUSH1 0x2 DUP5 ADD PUSH1 0x0 MSTORE PUSH1 0x20 PUSH1 0x0 KECCAK256 SWAP1 PUSH1 0x0 SWAP4 JUMPDEST PUSH1 0x1F NOT DUP5 AND DUP6 LT PUSH2 0x1BFF JUMPI PUSH1 0x1 SWAP5 POP DUP4 PUSH1 0x1F NOT DUP2 AND LT PUSH2 0x1BE6 JUMPI JUMPDEST POP POP POP DUP2 SHL ADD PUSH1 0x2 DUP3 ADD SSTORE PUSH2 0xA09 JUMP JUMPDEST ADD MLOAD PUSH1 0x0 NOT PUSH1 0xF8 DUP5 PUSH1 0x3 SHL AND SHR NOT AND SWAP1 SSTORE DUP4 DUP1 DUP1 PUSH2 0x1BD6 JUMP JUMPDEST DUP2 DUP2 ADD MLOAD DUP4 SSTORE PUSH1 0x20 SWAP5 DUP6 ADD SWAP5 PUSH1 0x1 SWAP1 SWAP4 ADD SWAP3 SWAP1 SWAP2 ADD SWAP1 PUSH2 0x1BBB JUMP JUMPDEST ADD MLOAD SWAP1 POP DUP4 DUP1 PUSH2 0x98E JUMP JUMPDEST SWAP3 POP PUSH1 0x1 DUP5 ADD PUSH1 0x0 MSTORE PUSH1 0x20 PUSH1 0x0 KECCAK256 SWAP1 PUSH1 0x0 SWAP4 JUMPDEST PUSH1 0x1F NOT DUP5 AND DUP6 LT PUSH2 0x1C7C JUMPI PUSH1 0x1 SWAP5 POP DUP4 PUSH1 0x1F NOT DUP2 AND LT PUSH2 0x1C63 JUMPI JUMPDEST POP POP POP DUP2 SHL ADD PUSH1 0x1 DUP3 ADD SSTORE PUSH2 0x9A6 JUMP JUMPDEST ADD MLOAD PUSH1 0x0 NOT PUSH1 0xF8 DUP5 PUSH1 0x3 SHL AND SHR NOT AND SWAP1 SSTORE DUP4 DUP1 DUP1 PUSH2 0x1C53 JUMP JUMPDEST DUP2 DUP2 ADD MLOAD DUP4 SSTORE PUSH1 0x20 SWAP5 DUP6 ADD SWAP5 PUSH1 0x1 SWAP1 SWAP4 ADD SWAP3 SWAP1 SWAP2 ADD SWAP1 PUSH2 0x1C38 JUMP JUMPDEST ADD MLOAD SWAP1 POP DUP4 DUP1 PUSH2 0x92E JUMP JUMPDEST SWAP3 POP DUP4 PUSH1 0x0 MSTORE PUSH1 0x20 PUSH1 0x0 KECCAK256 SWAP1 PUSH1 0x0 SWAP4 JUMPDEST PUSH1 0x1F NOT DUP5 AND DUP6 LT PUSH2 0x1CF3 JUMPI PUSH1 0x1 SWAP5 POP DUP4 PUSH1 0x1F NOT DUP2 AND LT PUSH2 0x1CDA JUMPI JUMPDEST POP POP POP DUP2 SHL ADD DUP2 SSTORE PUSH2 0x943 JUMP JUMPDEST ADD MLOAD PUSH1 0x0 NOT PUSH1 0xF8 DUP5 PUSH1 0x3 SHL AND SHR NOT AND SWAP1 SSTORE DUP4 DUP1 DUP1 PUSH2 0x1CCD JUMP JUMPDEST DUP2 DUP2 ADD MLOAD DUP4 SSTORE PUSH1 0x20 SWAP5 DUP6 ADD SWAP5 PUSH1 0x1 SWAP1 SWAP4 ADD SWAP3 SWAP1 SWAP2 ADD SWAP1 PUSH2 0x1CB2 JUMP JUMPDEST PUSH1 0x40 MLOAD PUSH3 0x461BCD PUSH1 0xE5 SHL DUP2 MSTORE PUSH1 0x20 PUSH1 0x4 DUP3 ADD MSTORE PUSH1 0xB PUSH1 0x24 DUP3 ADD MSTORE PUSH11 0x139BDD081CDD195DD85C99 PUSH1 0xAA SHL PUSH1 0x44 DUP3 ADD MSTORE PUSH1 0x64 SWAP1 REVERT JUMPDEST CALLVALUE PUSH2 0x36F JUMPI PUSH1 0x20 CALLDATASIZE PUSH1 0x3 NOT ADD SLT PUSH2 0x36F JUMPI PUSH1 0x4 CALLDATALOAD PUSH1 0x1 PUSH1 0x1 PUSH1 0x40 SHL SUB DUP2 GT PUSH2 0x36F JUMPI PUSH1 0x20 PUSH2 0x1D76 PUSH2 0x206F SWAP3 CALLDATASIZE SWAP1 PUSH1 0x4 ADD PUSH2 0x2386 JUMP JUMPDEST SWAP2 SWAP1 PUSH1 0x60 PUSH2 0x240 PUSH1 0x40 MLOAD PUSH2 0x1D89 DUP2 PUSH2 0x225B JUMP JUMPDEST DUP3 DUP2 MSTORE DUP3 DUP6 DUP3 ADD MSTORE DUP3 PUSH1 0x40 DUP3 ADD MSTORE DUP3 DUP1 DUP3 ADD MSTORE DUP3 PUSH1 0x80 DUP3 ADD MSTORE DUP3 PUSH1 0xA0 DUP3 ADD MSTORE DUP3 PUSH1 0xC0 DUP3 ADD MSTORE DUP3 PUSH1 0xE0 DUP3 ADD MSTORE DUP3 PUSH2 0x100 DUP3 ADD MSTORE DUP3 PUSH2 0x120 DUP3 ADD MSTORE DUP3 PUSH2 0x140 DUP3 ADD MSTORE DUP3 PUSH2 0x160 DUP3 ADD MSTORE DUP3 PUSH2 0x180 DUP3 ADD MSTORE DUP3 PUSH2 0x1A0 DUP3 ADD MSTORE DUP3 PUSH2 0x1C0 DUP3 ADD MSTORE DUP3 PUSH2 0x1E0 DUP3 ADD MSTORE DUP3 PUSH2 0x200 DUP3 ADD MSTORE DUP3 PUSH2 0x220 DUP3 ADD MSTORE ADD MSTORE DUP3 PUSH1 0x40 MLOAD SWAP4 DUP5 SWAP3 DUP4 CALLDATACOPY DUP2 ADD PUSH1 0x1 DUP2 MSTORE SUB ADD SWAP1 KECCAK256 PUSH2 0x1F5D PUSH1 0x12 PUSH1 0x40 MLOAD SWAP3 PUSH2 0x1E21 DUP5 PUSH2 0x225B JUMP JUMPDEST PUSH2 0x1E2A DUP2 PUSH2 0x2298 JUMP JUMPDEST DUP5 MSTORE PUSH2 0x1E38 PUSH1 0x1 DUP3 ADD PUSH2 0x2298 JUMP JUMPDEST PUSH1 0x20 DUP6 ADD MSTORE PUSH2 0x1E49 PUSH1 0x2 DUP3 ADD PUSH2 0x2298 JUMP JUMPDEST PUSH1 0x40 DUP6 ADD MSTORE PUSH2 0x1E5A PUSH1 0x3 DUP3 ADD PUSH2 0x2298 JUMP JUMPDEST PUSH1 0x60 DUP6 ADD MSTORE PUSH2 0x1E6B PUSH1 0x4 DUP3 ADD PUSH2 0x2298 JUMP JUMPDEST PUSH1 0x80 DUP6 ADD MSTORE PUSH2 0x1E7C PUSH1 0x5 DUP3 ADD PUSH2 0x2298 JUMP JUMPDEST PUSH1 0xA0 DUP6 ADD MSTORE PUSH2 0x1E8D PUSH1 0x6 DUP3 ADD PUSH2 0x2298 JUMP JUMPDEST PUSH1 0xC0 DUP6 ADD MSTORE PUSH2 0x1E9E PUSH1 0x7 DUP3 ADD PUSH2 0x2298 JUMP JUMPDEST PUSH1 0xE0 DUP6 ADD MSTORE PUSH2 0x1EAF PUSH1 0x8 DUP3 ADD PUSH2 0x2298 JUMP JUMPDEST PUSH2 0x100 DUP6 ADD MSTORE PUSH2 0x1EC1 PUSH1 0x9 DUP3 ADD PUSH2 0x2298 JUMP JUMPDEST PUSH2 0x120 DUP6 ADD MSTORE PUSH2 0x1ED3 PUSH1 0xA DUP3 ADD PUSH2 0x2298 JUMP JUMPDEST PUSH2 0x140 DUP6 ADD MSTORE PUSH2 0x1EE5 PUSH1 0xB DUP3 ADD PUSH2 0x2298 JUMP JUMPDEST PUSH2 0x160 DUP6 ADD MSTORE PUSH2 0x1EF7 PUSH1 0xC DUP3 ADD PUSH2 0x2298 JUMP JUMPDEST PUSH2 0x180 DUP6 ADD MSTORE PUSH2 0x1F09 PUSH1 0xD DUP3 ADD PUSH2 0x2298 JUMP JUMPDEST PUSH2 0x1A0 DUP6 ADD MSTORE PUSH2 0x1F1B PUSH1 0xE DUP3 ADD PUSH2 0x2298 JUMP JUMPDEST PUSH2 0x1C0 DUP6 ADD MSTORE PUSH2 0x1F2D PUSH1 0xF DUP3 ADD PUSH2 0x2298 JUMP JUMPDEST PUSH2 0x1E0 DUP6 ADD MSTORE PUSH2 0x1F3F PUSH1 0x10 DUP3 ADD PUSH2 0x2298 JUMP JUMPDEST PUSH2 0x200 DUP6 ADD MSTORE PUSH2 0x1F51 PUSH1 0x11 DUP3 ADD PUSH2 0x2298 JUMP JUMPDEST PUSH2 0x220 DUP6 ADD MSTORE ADD PUSH2 0x2298 JUMP JUMPDEST PUSH2 0x240 DUP3 ADD MSTORE PUSH2 0x215C DUP2 PUSH2 0x240 PUSH2 0x2147 PUSH2 0x2131 PUSH2 0x2119 PUSH2 0x2101 PUSH2 0x20E9 PUSH2 0x20D1 PUSH2 0x20B9 PUSH2 0x20A1 PUSH2 0x2089 PUSH1 0x40 MLOAD SWAP14 DUP15 SWAP14 DUP15 PUSH1 0x20 DUP2 MSTORE PUSH2 0x100 PUSH2 0x2059 PUSH2 0x2044 PUSH2 0x202E PUSH2 0x2018 PUSH2 0x2002 PUSH2 0x1FEC PUSH2 0x1FD6 PUSH2 0x1FC0 DUP11 MLOAD PUSH2 0x260 PUSH1 0x20 DUP13 ADD MSTORE PUSH2 0x280 DUP12 ADD SWAP1 PUSH2 0x2361 JUMP JUMPDEST PUSH1 0x20 DUP12 ADD MLOAD DUP11 DUP3 SUB PUSH1 0x1F NOT ADD PUSH1 0x40 DUP13 ADD MSTORE PUSH2 0x2361 JUMP JUMPDEST PUSH1 0x40 DUP11 ADD MLOAD DUP10 DUP3 SUB PUSH1 0x1F NOT ADD PUSH1 0x60 DUP12 ADD MSTORE PUSH2 0x2361 JUMP JUMPDEST PUSH1 0x60 DUP10 ADD MLOAD DUP9 DUP3 SUB PUSH1 0x1F NOT ADD PUSH1 0x80 DUP11 ADD MSTORE PUSH2 0x2361 JUMP JUMPDEST PUSH1 0x80 DUP9 ADD MLOAD DUP8 DUP3 SUB PUSH1 0x1F NOT ADD PUSH1 0xA0 DUP10 ADD MSTORE PUSH2 0x2361 JUMP JUMPDEST PUSH1 0xA0 DUP8 ADD MLOAD DUP7 DUP3 SUB PUSH1 0x1F NOT ADD PUSH1 0xC0 DUP9 ADD MSTORE PUSH2 0x2361 JUMP JUMPDEST PUSH1 0xC0 DUP7 ADD MLOAD DUP6 DUP3 SUB PUSH1 0x1F NOT ADD PUSH1 0xE0 DUP8 ADD MSTORE PUSH2 0x2361 JUMP JUMPDEST PUSH1 0xE0 DUP6 ADD MLOAD DUP5 DUP3 SUB PUSH1 0x1F NOT ADD DUP5 DUP7 ADD MSTORE PUSH2 0x2361 JUMP JUMPDEST SWAP3 ADD MLOAD SWAP1 PUSH2 0x120 PUSH1 0x1F NOT DUP3 DUP6 SUB ADD SWAP2 ADD MSTORE PUSH2 0x2361 JUMP JUMPDEST DUP14 PUSH2 0x120 DUP14 ADD MLOAD SWAP1 PUSH2 0x140 PUSH1 0x1F NOT DUP3 DUP6 SUB ADD SWAP2 ADD MSTORE PUSH2 0x2361 JUMP JUMPDEST PUSH2 0x140 DUP12 ADD MLOAD DUP14 DUP3 SUB PUSH1 0x1F NOT ADD PUSH2 0x160 DUP16 ADD MSTORE PUSH2 0x2361 JUMP JUMPDEST PUSH2 0x160 DUP11 ADD MLOAD DUP13 DUP3 SUB PUSH1 0x1F NOT ADD PUSH2 0x180 DUP15 ADD MSTORE PUSH2 0x2361 JUMP JUMPDEST PUSH2 0x180 DUP10 ADD MLOAD DUP12 DUP3 SUB PUSH1 0x1F NOT ADD PUSH2 0x1A0 DUP14 ADD MSTORE PUSH2 0x2361 JUMP JUMPDEST PUSH2 0x1A0 DUP9 ADD MLOAD DUP11 DUP3 SUB PUSH1 0x1F NOT ADD PUSH2 0x1C0 DUP13 ADD MSTORE PUSH2 0x2361 JUMP JUMPDEST PUSH2 0x1C0 DUP8 ADD MLOAD DUP10 DUP3 SUB PUSH1 0x1F NOT ADD PUSH2 0x1E0 DUP12 ADD MSTORE PUSH2 0x2361 JUMP JUMPDEST PUSH2 0x1E0 DUP7 ADD MLOAD DUP9 DUP3 SUB PUSH1 0x1F NOT ADD PUSH2 0x200 DUP11 ADD MSTORE PUSH2 0x2361 JUMP JUMPDEST PUSH2 0x200 DUP6 ADD MLOAD DUP8 DUP3 SUB PUSH1 0x1F NOT ADD PUSH2 0x220 DUP10 ADD MSTORE PUSH2 0x2361 JUMP JUMPDEST PUSH2 0x220 DUP5 ADD MLOAD DUP7 DUP3 SUB PUSH1 0x1F NOT ADD DUP5 DUP9 ADD MSTORE PUSH2 0x2361 JUMP JUMPDEST SWAP2 ADD MLOAD DUP4 DUP3 SUB PUSH1 0x1F NOT ADD PUSH2 0x260 DUP6 ADD MSTORE PUSH2 0x2361 JUMP JUMPDEST SUB SWAP1 RETURN JUMPDEST CALLVALUE PUSH2 0x36F JUMPI PUSH1 0x0 CALLDATASIZE PUSH1 0x3 NOT ADD SLT PUSH2 0x36F JUMPI PUSH1 0x0 SLOAD PUSH1 0x40 MLOAD PUSH1 0x1 PUSH1 0x1 PUSH1 0xA0 SHL SUB SWAP1 SWAP2 AND DUP2 MSTORE PUSH1 0x20 SWAP1 RETURN JUMPDEST CALLVALUE PUSH2 0x36F JUMPI PUSH1 0x20 CALLDATASIZE PUSH1 0x3 NOT ADD SLT PUSH2 0x36F JUMPI PUSH1 0x4 CALLDATALOAD PUSH1 0x2 SLOAD DUP2 LT ISZERO PUSH2 0x36F JUMPI PUSH2 0x21B0 SWAP1 PUSH2 0x21D4 JUMP JUMPDEST PUSH2 0x13C4 JUMPI PUSH2 0x21C0 PUSH2 0x215C SWAP2 PUSH2 0x2298 JUMP JUMPDEST PUSH1 0x40 MLOAD SWAP2 DUP3 SWAP2 PUSH1 0x20 DUP4 MSTORE PUSH1 0x20 DUP4 ADD SWAP1 PUSH2 0x2361 JUMP JUMPDEST PUSH1 0x2 SLOAD DUP2 LT ISZERO PUSH2 0x220B JUMPI PUSH1 0x2 PUSH1 0x0 MSTORE PUSH32 0x405787FA12A823E0F2B7631CC41B3BA8828B3321CA811111FA75CD3AA3BB5ACE ADD SWAP1 PUSH1 0x0 SWAP1 JUMP JUMPDEST PUSH4 0x4E487B71 PUSH1 0xE0 SHL PUSH1 0x0 MSTORE PUSH1 0x32 PUSH1 0x4 MSTORE PUSH1 0x24 PUSH1 0x0 REVERT JUMPDEST SWAP1 PUSH1 0x1 DUP3 DUP2 SHR SWAP3 AND DUP1 ISZERO PUSH2 0x2251 JUMPI JUMPDEST PUSH1 0x20 DUP4 LT EQ PUSH2 0x223B JUMPI JUMP JUMPDEST PUSH4 0x4E487B71 PUSH1 0xE0 SHL PUSH1 0x0 MSTORE PUSH1 0x22 PUSH1 0x4 MSTORE PUSH1 0x24 PUSH1 0x0 REVERT JUMPDEST SWAP2 PUSH1 0x7F AND SWAP2 PUSH2 0x2230 JUMP JUMPDEST PUSH2 0x260 DUP2 ADD SWAP1 DUP2 LT PUSH1 0x1 PUSH1 0x1 PUSH1 0x40 SHL SUB DUP3 GT OR PUSH2 0x13AE JUMPI PUSH1 0x40 MSTORE JUMP JUMPDEST SWAP1 PUSH1 0x1F DUP1 NOT SWAP2 ADD AND DUP2 ADD SWAP1 DUP2 LT PUSH1 0x1 PUSH1 0x1 PUSH1 0x40 SHL SUB DUP3 GT OR PUSH2 0x13AE JUMPI PUSH1 0x40 MSTORE JUMP JUMPDEST SWAP1 PUSH1 0x40 MLOAD SWAP2 DUP3 PUSH1 0x0 DUP3 SLOAD SWAP3 PUSH2 0x22AC DUP5 PUSH2 0x2221 JUMP JUMPDEST SWAP1 DUP2 DUP5 MSTORE PUSH1 0x1 SWAP5 DUP6 DUP2 AND SWAP1 DUP2 PUSH1 0x0 EQ PUSH2 0x231B JUMPI POP PUSH1 0x1 EQ PUSH2 0x22D8 JUMPI JUMPDEST POP POP PUSH2 0x22D6 SWAP3 POP SUB DUP4 PUSH2 0x2277 JUMP JUMPDEST JUMP JUMPDEST SWAP1 SWAP4 SWAP2 POP PUSH1 0x0 MSTORE PUSH1 0x20 SWAP1 DUP2 PUSH1 0x0 KECCAK256 SWAP4 PUSH1 0x0 SWAP2 JUMPDEST DUP2 DUP4 LT PUSH2 0x2303 JUMPI POP POP PUSH2 0x22D6 SWAP4 POP DUP3 ADD ADD CODESIZE DUP1 PUSH2 0x22C8 JUMP JUMPDEST DUP6 SLOAD DUP9 DUP5 ADD DUP6 ADD MSTORE SWAP5 DUP6 ADD SWAP5 DUP8 SWAP5 POP SWAP2 DUP4 ADD SWAP2 PUSH2 0x22EB JUMP JUMPDEST SWAP2 POP POP PUSH2 0x22D6 SWAP5 POP PUSH1 0x20 SWAP3 POP PUSH1 0xFF NOT AND DUP3 DUP5 ADD MSTORE ISZERO ISZERO PUSH1 0x5 SHL DUP3 ADD ADD CODESIZE DUP1 PUSH2 0x22C8 JUMP JUMPDEST PUSH1 0x0 JUMPDEST DUP4 DUP2 LT PUSH2 0x2351 JUMPI POP POP PUSH1 0x0 SWAP2 ADD MSTORE JUMP JUMPDEST DUP2 DUP2 ADD MLOAD DUP4 DUP3 ADD MSTORE PUSH1 0x20 ADD PUSH2 0x2341 JUMP JUMPDEST SWAP1 PUSH1 0x20 SWAP2 PUSH2 0x237A DUP2 MLOAD DUP1 SWAP3 DUP2 DUP6 MSTORE DUP6 DUP1 DUP7 ADD SWAP2 ADD PUSH2 0x233E JUMP JUMPDEST PUSH1 0x1F ADD PUSH1 0x1F NOT AND ADD ADD SWAP1 JUMP JUMPDEST SWAP2 DUP2 PUSH1 0x1F DUP5 ADD SLT ISZERO PUSH2 0x36F JUMPI DUP3 CALLDATALOAD SWAP2 PUSH1 0x1 PUSH1 0x1 PUSH1 0x40 SHL SUB DUP4 GT PUSH2 0x36F JUMPI PUSH1 0x20 DUP4 DUP2 DUP7 ADD SWAP6 ADD ADD GT PUSH2 0x36F JUMPI JUMP JUMPDEST SWAP3 SWAP2 SWAP3 PUSH1 0x1 PUSH1 0x1 PUSH1 0x40 SHL SUB DUP3 GT PUSH2 0x13AE JUMPI PUSH1 0x40 MLOAD SWAP2 PUSH2 0x23DC PUSH1 0x1F DUP3 ADD PUSH1 0x1F NOT AND PUSH1 0x20 ADD DUP5 PUSH2 0x2277 JUMP JUMPDEST DUP3 SWAP5 DUP2 DUP5 MSTORE DUP2 DUP4 ADD GT PUSH2 0x36F JUMPI DUP3 DUP2 PUSH1 0x20 SWAP4 DUP5 PUSH1 0x0 SWAP7 ADD CALLDATACOPY ADD ADD MSTORE JUMP JUMPDEST SWAP1 PUSH1 0x1F DUP2 GT PUSH2 0x2407 JUMPI POP POP POP JUMP JUMPDEST PUSH1 0x0 SWAP2 DUP3 MSTORE PUSH1 0x20 DUP3 KECCAK256 SWAP1 PUSH1 0x20 PUSH1 0x1F DUP6 ADD PUSH1 0x5 SHR DUP4 ADD SWAP5 LT PUSH2 0x2443 JUMPI JUMPDEST PUSH1 0x1F ADD PUSH1 0x5 SHR ADD SWAP2 JUMPDEST DUP3 DUP2 LT PUSH2 0x2438 JUMPI POP POP POP JUMP JUMPDEST DUP2 DUP2 SSTORE PUSH1 0x1 ADD PUSH2 0x242C JUMP JUMPDEST SWAP1 SWAP3 POP DUP3 SWAP1 PUSH2 0x2423 JUMP JUMPDEST SWAP1 DUP1 PUSH1 0x20 SWAP4 SWAP3 DUP2 DUP5 MSTORE DUP5 DUP5 ADD CALLDATACOPY PUSH1 0x0 DUP3 DUP3 ADD DUP5 ADD MSTORE PUSH1 0x1F ADD PUSH1 0x1F NOT AND ADD ADD SWAP1 JUMP INVALID LOG2 PUSH5 0x6970667358 0x22 SLT KECCAK256 0x29 PUSH30 0xB7810F04AE3253697E7261C0AB4B029387F8CBCE8F227A82456792F605B4 PUSH5 0x736F6C6343 STOP ADDMOD EQ STOP CALLER "},"methodIdentifiers":{"codices(string)":"dbc21424","getCodex(string)":"83361522","inscribeCodex(string,string,string,string,string,string,string,string,string,string,string,string,string,string,string,string,string,string,string,string)":"b4c41aed","keys(uint256)":"0cb6aaf1","steward()":"637eea19","totalCodices()":"c212d16b"}}}}}