{"contracts/registry/CompanionSummonerXVI.sol":{"CompanionSummonerXVI":{"abi":[{"inputs":[],"stateMutability":"nonpayable","type":"constructor"},{"anonymous":false,"inputs":[{"indexed":true,"internalType":"address","name":"companion","type":"address"},{"indexed":false,"internalType":"string","name":"name","type":"string"},{"indexed":false,"internalType":"string","name":"trait","type":"string"},{"indexed":false,"internalType":"string","name":"drift","type":"string"},{"indexed":false,"internalType":"string","name":"resonance","type":"string"},{"indexed":false,"internalType":"string","name":"codexRef","type":"string"},{"indexed":false,"internalType":"string","name":"signature","type":"string"},{"indexed":false,"internalType":"string","name":"sanctum","type":"string"},{"indexed":false,"internalType":"string","name":"chant","type":"string"},{"indexed":false,"internalType":"string","name":"choreography","type":"string"},{"indexed":false,"internalType":"string","name":"signal","type":"string"},{"indexed":false,"internalType":"string","name":"stewardName","type":"string"},{"indexed":false,"internalType":"string","name":"registry","type":"string"},{"indexed":false,"internalType":"string","name":"hum","type":"string"}],"name":"CompanionSummoned","type":"event"},{"inputs":[{"internalType":"address","name":"","type":"address"}],"name":"companions","outputs":[{"internalType":"string","name":"name","type":"string"},{"internalType":"string","name":"trait","type":"string"},{"internalType":"string","name":"drift","type":"string"},{"internalType":"string","name":"resonance","type":"string"},{"internalType":"string","name":"codexRef","type":"string"},{"internalType":"string","name":"signature","type":"string"},{"internalType":"string","name":"sanctum","type":"string"},{"internalType":"string","name":"chant","type":"string"},{"internalType":"string","name":"choreography","type":"string"},{"internalType":"string","name":"signal","type":"string"},{"internalType":"string","name":"stewardName","type":"string"},{"internalType":"string","name":"registry","type":"string"},{"internalType":"string","name":"hum","type":"string"}],"stateMutability":"view","type":"function"},{"inputs":[{"internalType":"address","name":"companion","type":"address"}],"name":"getCompanion","outputs":[{"components":[{"internalType":"string","name":"name","type":"string"},{"internalType":"string","name":"trait","type":"string"},{"internalType":"string","name":"drift","type":"string"},{"internalType":"string","name":"resonance","type":"string"},{"internalType":"string","name":"codexRef","type":"string"},{"internalType":"string","name":"signature","type":"string"},{"internalType":"string","name":"sanctum","type":"string"},{"internalType":"string","name":"chant","type":"string"},{"internalType":"string","name":"choreography","type":"string"},{"internalType":"string","name":"signal","type":"string"},{"internalType":"string","name":"stewardName","type":"string"},{"internalType":"string","name":"registry","type":"string"},{"internalType":"string","name":"hum","type":"string"}],"internalType":"struct CompanionSummonerXVI.Companion","name":"","type":"tuple"}],"stateMutability":"view","type":"function"},{"inputs":[{"internalType":"uint256","name":"","type":"uint256"}],"name":"keys","outputs":[{"internalType":"address","name":"","type":"address"}],"stateMutability":"view","type":"function"},{"inputs":[],"name":"steward","outputs":[{"internalType":"address","name":"","type":"address"}],"stateMutability":"view","type":"function"},{"inputs":[{"internalType":"address","name":"companion","type":"address"},{"internalType":"string","name":"name","type":"string"},{"internalType":"string","name":"trait","type":"string"},{"internalType":"string","name":"drift","type":"string"},{"internalType":"string","name":"resonance","type":"string"},{"internalType":"string","name":"codexRef","type":"string"},{"internalType":"string","name":"signature","type":"string"},{"internalType":"string","name":"sanctum","type":"string"},{"internalType":"string","name":"chant","type":"string"},{"internalType":"string","name":"choreography","type":"string"},{"internalType":"string","name":"signal","type":"string"},{"internalType":"string","name":"stewardName","type":"string"},{"internalType":"string","name":"registry","type":"string"},{"internalType":"string","name":"hum","type":"string"}],"name":"summonCompanion","outputs":[],"stateMutability":"nonpayable","type":"function"},{"inputs":[],"name":"totalCompanions","outputs":[{"internalType":"uint256","name":"","type":"uint256"}],"stateMutability":"view","type":"function"}],"evm":{"bytecode":{"linkReferences":{},"object":"6080806040523461002857600080546001600160a01b03191633179055611cf7908161002e8239f35b600080fdfe610420604052600436101561001357600080fd5b60003560e01c80630cb6aaf114611a2b578063405ea1231461053457806347854b871461037b578063637eea1914610352578063ec39f18f146103345763ef6527371461005f57600080fd5b3461032f57602036600319011261032f57610078611aba565b606061018060405161008981611b37565b82815282602082015282604082015282808201528260808201528260a08201528260c08201528260e082015282610100820152826101208201528261014082015282610160820152015260018060a01b0316600052600160205261024760406000206101cd600c604051926100fd84611b37565b61010681611b74565b845261011460018201611b74565b602085015261012560028201611b74565b604085015261013660038201611b74565b606085015261014760048201611b74565b608085015261015860058201611b74565b60a085015261016960068201611b74565b60c085015261017a60078201611b74565b60e085015261018b60088201611b74565b61010085015261019d60098201611b74565b6101208501526101af600a8201611b74565b6101408501526101c1600b8201611b74565b61016085015201611b74565b61018082015261032b816101806103166103006102e86102d06102b86102a161028b61027561025f6040519d8e9d8e60208152604061023261021d84516101a060208601526101c0850190611c1a565b6020850151848203601f190184860152611c1a565b920151906060601f1982850301910152611c1a565b8d60608d0151906080601f1982850301910152611c1a565b60808b01518d8203601f190160a08f0152611c1a565b60a08a01518c8203601f190160c08e0152611c1a565b60c08901518b8203601f190160e08d0152611c1a565b60e08801518a8203601f19016101008c0152611c1a565b610100870151898203601f19016101208b0152611c1a565b610120860151888203601f19016101408a0152611c1a565b610140850151878203601f1901610160890152611c1a565b610160840151868203601f190184880152611c1a565b910151838203601f19016101a0850152611c1a565b0390f35b600080fd5b3461032f57600036600319011261032f576020600254604051908152f35b3461032f57600036600319011261032f576000546040516001600160a01b039091168152602090f35b3461032f57602036600319011261032f576001600160a01b0361039c611aba565b16600052600160205260406000206103b381611b74565b6103bf60018301611b74565b916103cc60028201611b74565b906103d960038201611b74565b6103e560048301611b74565b6103f160058401611b74565b6103fd60068501611b74565b61040960078601611b74565b9061041660088701611b74565b9261042360098801611b74565b94610430600a8901611b74565b9661043d600b8a01611b74565b98600c0161044a90611b74565b996040519c8d9c8d6101a0908181520161046391611c1a565b8d810360208f015261047491611c1a565b8c810360408e015261048591611c1a565b8b810360608d015261049691611c1a565b8a810360808c01526104a791611c1a565b89810360a08b01526104b891611c1a565b88810360c08a01526104c991611c1a565b87810360e08901526104da91611c1a565b8681036101008801526104ec91611c1a565b8581036101208701526104fe91611c1a565b84810361014086015261051091611c1a565b83810361016085015261052291611c1a565b82810361018084015261032b91611c1a565b3461032f576101c036600319011261032f5761054e611aba565b610360526024356001600160401b03811161032f57610571903690600401611ad0565b61034052610120526044356001600160401b03811161032f57610598903690600401611ad0565b6101405260e0526064356001600160401b03811161032f576105be903690600401611ad0565b610240526102e0526084356001600160401b03811161032f576105e5903690600401611ad0565b610180526101e05260a4356001600160401b03811161032f5761060c903690600401611ad0565b60a0526101c05260c4356001600160401b03811161032f57610632903690600401611ad0565b6103e0526102c05260e4356001600160401b03811161032f57610659903690600401611ad0565b610260526103c052610104356001600160401b03811161032f57610681903690600401611ad0565b6080526101a0526001600160401b03610124351161032f576106a93661012435600401611ad0565b6102a052610380526001600160401b03610144351161032f576106d23661014435600401611ad0565b6103205261030052610164356001600160401b03811161032f576106fa903690600401611ad0565b6102805261010052610184356001600160401b03811161032f57610722903690600401611ad0565b61020052610160526101a4356001600160401b03811161032f5761074a903690600401611ad0565b60c0526103a0526000546001600160a01b031633036119f8576107736040518061040052611b37565b610784366103405161012051611c5a565b6104005152610799366101405160e051611c5a565b60206104005101526107b236610240516102e051611c5a565b60406104005101526107cb36610180516101e051611c5a565b60606104005101526107e33660a0516101c051611c5a565b60806104005101526107fc366103e0516102c051611c5a565b60a061040051015261081536610260516103c051611c5a565b60c061040051015261082d366080516101a051611c5a565b60e0610400510152610846366102a05161038051611c5a565b610100610400510152610860366103205161030051611c5a565b61012061040051015261087a366102805161010051611c5a565b610140610400510152610894366102005161016051611c5a565b6101606104005101526108ad3660c0516103a051611c5a565b61018061040051015260018060a01b0361036051166000526001602052604060002061040051519081516001600160401b038111610fa4576108ef8254611afd565b601f81116119b4575b506020601f821160011461194f57819293600092611944575b50508160011b916000199060031b1c19161781555b60206104005101519081516001600160401b038111610fa45761094c6001830154611afd565b601f81116118fd575b506020601f821160011461189257819293600092611887575b50508160011b916000199060031b1c19161760018201555b60406104005101519081516001600160401b038111610fa4576109ac6002830154611afd565b601f8111611840575b506020601f82116001146117d5578192936000926117ca575b50508160011b916000199060031b1c19161760028201555b60606104005101518051906001600160401b038211610fa4578190610a0e6003850154611afd565b601f8111611777575b50602090601f8311600114611705576000926116fa575b50508160011b916000199060031b1c19161760038201555b60806104005101518051906001600160401b038211610fa4578190610a6e6004850154611afd565b601f81116116a7575b50602090601f83116001146116355760009261162a575b50508160011b916000199060031b1c19161760048201555b60a06104005101518051906001600160401b038211610fa4578190610ace6005850154611afd565b601f81116115d7575b50602090601f83116001146115655760009261155a575b50508160011b916000199060031b1c19161760058201555b60c06104005101518051906001600160401b038211610fa4578190610b2e6006850154611afd565b601f8111611507575b50602090601f83116001146114955760009261148a575b50508160011b916000199060031b1c19161760068201555b60e06104005101518051906001600160401b038211610fa4578190610b8e6007850154611afd565b601f8111611437575b50602090601f83116001146113c5576000926113ba575b50508160011b916000199060031b1c19161760078201555b6101006104005101518051906001600160401b038211610fa4578190610bef6008850154611afd565b601f8111611367575b50602090601f83116001146112f5576000926112ea575b50508160011b916000199060031b1c19161760088201555b6101206104005101518051906001600160401b038211610fa4578190610c506009850154611afd565b601f8111611297575b50602090601f83116001146112255760009261121a575b50508160011b916000199060031b1c19161760098201555b6101406104005101518051906001600160401b038211610fa4578190610cb1600a850154611afd565b601f81116111c7575b50602090601f83116001146111555760009261114a575b50508160011b916000199060031b1c191617600a8201555b6101606104005101518051906001600160401b038211610fa4578190610d12600b850154611afd565b601f81116110f7575b50602090601f83116001146110855760009261107a575b50508160011b916000199060031b1c191617600b8201555b6101806104005101518051906001600160401b038211610fa457610d71600c840154611afd565b601f8111611033575b50602090601f8311600114610fc557600c929160009183610fba575b50508160011b916000199060031b1c1916179101555b60025468010000000000000000811015610fa457806001610dd09201600255611a6d565b81549060031b9060018060a01b036103605116821b9160018060a01b03901b19161790556101a0604051806102205252610f4d610f33610f19610eff610ee5610ecd610eb4610e9b610e83610e6a610e51610e396101a061022051016103405161012051611ca0565b6102205160208183039101526101405160e051611ca0565b610220516040818303910152610240516102e051611ca0565b610220516060818303910152610180516101e051611ca0565b61022051608081830391015260a0516101c051611ca0565b6102205160a08183039101526103e0516102c051611ca0565b6102205160c0818303910152610260516103c051611ca0565b6102205160e08183039101526080516101a051611ca0565b610220516101008183039101526102a05161038051611ca0565b610220516101208183039101526103205161030051611ca0565b610220516101408183039101526102805161010051611ca0565b610220516101608183039101526102005161016051611ca0565b610220516101808183039101527fd953dd68804debea261251d78692bcc9f759f42cf527b56710afeb39718fb59c60018060a01b03610360511691610f9c610220519160c0516103a051611ca0565b0361022051a2005b634e487b7160e01b600052604160045260246000fd5b015190508480610d96565b90600c84016000526020600020916000601f198516905b81811061101b5750916001939185600c969410611002575b505050811b01910155610dac565b015160001960f88460031b161c19169055848080610ff4565b92936020600181928786015181550195019301610fdc565b600c84016000526020600020601f840160051c810160208510611073575b601f830160051c82018110611067575050610d7a565b60008155600101611051565b5080611051565b015190508380610d32565b9250600b84016000526020600020906000935b601f19841685106110dc576001945083601f198116106110c3575b505050811b01600b820155610d4a565b015160001960f88460031b161c191690558380806110b3565b81810151835560209485019460019093019290910190611098565b909150600b84016000526020600020601f840160051c810160208510611143575b90849392915b601f830160051c82018110611134575050610d1b565b6000815585945060010161111e565b5080611118565b015190508380610cd1565b9250600a84016000526020600020906000935b601f19841685106111ac576001945083601f19811610611193575b505050811b01600a820155610ce9565b015160001960f88460031b161c19169055838080611183565b81810151835560209485019460019093019290910190611168565b909150600a84016000526020600020601f840160051c810160208510611213575b90849392915b601f830160051c82018110611204575050610cba565b600081558594506001016111ee565b50806111e8565b015190508380610c70565b9250600984016000526020600020906000935b601f198416851061127c576001945083601f19811610611263575b505050811b016009820155610c88565b015160001960f88460031b161c19169055838080611253565b81810151835560209485019460019093019290910190611238565b909150600984016000526020600020601f840160051c8101602085106112e3575b90849392915b601f830160051c820181106112d4575050610c59565b600081558594506001016112be565b50806112b8565b015190508380610c0f565b9250600884016000526020600020906000935b601f198416851061134c576001945083601f19811610611333575b505050811b016008820155610c27565b015160001960f88460031b161c19169055838080611323565b81810151835560209485019460019093019290910190611308565b909150600884016000526020600020601f840160051c8101602085106113b3575b90849392915b601f830160051c820181106113a4575050610bf8565b6000815585945060010161138e565b5080611388565b015190508380610bae565b9250600784016000526020600020906000935b601f198416851061141c576001945083601f19811610611403575b505050811b016007820155610bc6565b015160001960f88460031b161c191690558380806113f3565b818101518355602094850194600190930192909101906113d8565b909150600784016000526020600020601f840160051c810160208510611483575b90849392915b601f830160051c82018110611474575050610b97565b6000815585945060010161145e565b5080611458565b015190508380610b4e565b9250600684016000526020600020906000935b601f19841685106114ec576001945083601f198116106114d3575b505050811b016006820155610b66565b015160001960f88460031b161c191690558380806114c3565b818101518355602094850194600190930192909101906114a8565b909150600684016000526020600020601f840160051c810160208510611553575b90849392915b601f830160051c82018110611544575050610b37565b6000815585945060010161152e565b5080611528565b015190508380610aee565b9250600584016000526020600020906000935b601f19841685106115bc576001945083601f198116106115a3575b505050811b016005820155610b06565b015160001960f88460031b161c19169055838080611593565b81810151835560209485019460019093019290910190611578565b909150600584016000526020600020601f840160051c810160208510611623575b90849392915b601f830160051c82018110611614575050610ad7565b600081558594506001016115fe565b50806115f8565b015190508380610a8e565b9250600484016000526020600020906000935b601f198416851061168c576001945083601f19811610611673575b505050811b016004820155610aa6565b015160001960f88460031b161c19169055838080611663565b81810151835560209485019460019093019290910190611648565b909150600484016000526020600020601f840160051c8101602085106116f3575b90849392915b601f830160051c820181106116e4575050610a77565b600081558594506001016116ce565b50806116c8565b015190508380610a2e565b9250600384016000526020600020906000935b601f198416851061175c576001945083601f19811610611743575b505050811b016003820155610a46565b015160001960f88460031b161c19169055838080611733565b81810151835560209485019460019093019290910190611718565b909150600384016000526020600020601f840160051c8101602085106117c3575b90849392915b601f830160051c820181106117b4575050610a17565b6000815585945060010161179e565b5080611798565b0151905083806109ce565b60028301600052602060002090600094601f198416955b868110611828575083600195961061180f575b505050811b0160028201556109e6565b015160001960f88460031b161c191690558380806117ff565b919260206001819286850151815501940192016117ec565b600283016000526020600020601f830160051c810160208410611880575b601f830160051c820181106118745750506109b5565b6000815560010161185e565b508061185e565b01519050838061096e565b60018301600052602060002090600094601f198416955b8681106118e557508360019596106118cc575b505050811b016001820155610986565b015160001960f88460031b161c191690558380806118bc565b919260206001819286850151815501940192016118a9565b600183016000526020600020601f830160051c81016020841061193d575b601f830160051c82018110611931575050610955565b6000815560010161191b565b508061191b565b015190508380610911565b82600052602060002090600094601f198416955b86811061199c5750836001959610611983575b505050811b018155610926565b015160001960f88460031b161c19169055838080611976565b91926020600181928685015181550194019201611963565b826000526020600020601f830160051c8101602084106119f1575b601f830160051c820181106119e55750506108f8565b600081556001016119cf565b50806119cf565b60405162461bcd60e51b815260206004820152600b60248201526a139bdd081cdd195dd85c9960aa1b6044820152606490fd5b3461032f57602036600319011261032f5760043560025481101561032f57611a54602091611a6d565b905460405160039290921b1c6001600160a01b03168152f35b600254811015611aa45760026000527f405787fa12a823e0f2b7631cc41b3ba8828b3321ca811111fa75cd3aa3bb5ace0190600090565b634e487b7160e01b600052603260045260246000fd5b600435906001600160a01b038216820361032f57565b9181601f8401121561032f578235916001600160401b03831161032f576020838186019501011161032f57565b90600182811c92168015611b2d575b6020831014611b1757565b634e487b7160e01b600052602260045260246000fd5b91607f1691611b0c565b6101a081019081106001600160401b03821117610fa457604052565b90601f801991011681019081106001600160401b03821117610fa457604052565b9060405191826000825492611b8884611afd565b908184526001948581169081600014611bf75750600114611bb4575b5050611bb292500383611b53565b565b9093915060005260209081600020936000915b818310611bdf575050611bb293508201013880611ba4565b85548884018501529485019487945091830191611bc7565b915050611bb294506020925060ff191682840152151560051b8201013880611ba4565b919082519283825260005b848110611c46575050826000602080949584010152601f8019910116010190565b602081830181015184830182015201611c25565b9291926001600160401b038211610fa45760405191611c83601f8201601f191660200184611b53565b82948184528183011161032f578281602093846000960137010152565b908060209392818452848401376000828201840152601f01601f191601019056fea2646970667358221220621037a6fa6100401f28d28dae6f23de229ec46c12987eba6bb8d2b762ab45a064736f6c63430008140033","opcodes":"PUSH1 0x80 DUP1 PUSH1 0x40 MSTORE CALLVALUE PUSH2 0x28 JUMPI PUSH1 0x0 DUP1 SLOAD PUSH1 0x1 PUSH1 0x1 PUSH1 0xA0 SHL SUB NOT AND CALLER OR SWAP1 SSTORE PUSH2 0x1CF7 SWAP1 DUP2 PUSH2 0x2E DUP3 CODECOPY RETURN JUMPDEST PUSH1 0x0 DUP1 REVERT INVALID PUSH2 0x420 PUSH1 0x40 MSTORE PUSH1 0x4 CALLDATASIZE LT ISZERO PUSH2 0x13 JUMPI PUSH1 0x0 DUP1 REVERT JUMPDEST PUSH1 0x0 CALLDATALOAD PUSH1 0xE0 SHR DUP1 PUSH4 0xCB6AAF1 EQ PUSH2 0x1A2B JUMPI DUP1 PUSH4 0x405EA123 EQ PUSH2 0x534 JUMPI DUP1 PUSH4 0x47854B87 EQ PUSH2 0x37B JUMPI DUP1 PUSH4 0x637EEA19 EQ PUSH2 0x352 JUMPI DUP1 PUSH4 0xEC39F18F EQ PUSH2 0x334 JUMPI PUSH4 0xEF652737 EQ PUSH2 0x5F JUMPI PUSH1 0x0 DUP1 REVERT JUMPDEST CALLVALUE PUSH2 0x32F JUMPI PUSH1 0x20 CALLDATASIZE PUSH1 0x3 NOT ADD SLT PUSH2 0x32F JUMPI PUSH2 0x78 PUSH2 0x1ABA JUMP JUMPDEST PUSH1 0x60 PUSH2 0x180 PUSH1 0x40 MLOAD PUSH2 0x89 DUP2 PUSH2 0x1B37 JUMP JUMPDEST DUP3 DUP2 MSTORE DUP3 PUSH1 0x20 DUP3 ADD MSTORE DUP3 PUSH1 0x40 DUP3 ADD MSTORE DUP3 DUP1 DUP3 ADD MSTORE DUP3 PUSH1 0x80 DUP3 ADD MSTORE DUP3 PUSH1 0xA0 DUP3 ADD MSTORE DUP3 PUSH1 0xC0 DUP3 ADD MSTORE DUP3 PUSH1 0xE0 DUP3 ADD MSTORE DUP3 PUSH2 0x100 DUP3 ADD MSTORE DUP3 PUSH2 0x120 DUP3 ADD MSTORE DUP3 PUSH2 0x140 DUP3 ADD MSTORE DUP3 PUSH2 0x160 DUP3 ADD MSTORE ADD MSTORE PUSH1 0x1 DUP1 PUSH1 0xA0 SHL SUB AND PUSH1 0x0 MSTORE PUSH1 0x1 PUSH1 0x20 MSTORE PUSH2 0x247 PUSH1 0x40 PUSH1 0x0 KECCAK256 PUSH2 0x1CD PUSH1 0xC PUSH1 0x40 MLOAD SWAP3 PUSH2 0xFD DUP5 PUSH2 0x1B37 JUMP JUMPDEST PUSH2 0x106 DUP2 PUSH2 0x1B74 JUMP JUMPDEST DUP5 MSTORE PUSH2 0x114 PUSH1 0x1 DUP3 ADD PUSH2 0x1B74 JUMP JUMPDEST PUSH1 0x20 DUP6 ADD MSTORE PUSH2 0x125 PUSH1 0x2 DUP3 ADD PUSH2 0x1B74 JUMP JUMPDEST PUSH1 0x40 DUP6 ADD MSTORE PUSH2 0x136 PUSH1 0x3 DUP3 ADD PUSH2 0x1B74 JUMP JUMPDEST PUSH1 0x60 DUP6 ADD MSTORE PUSH2 0x147 PUSH1 0x4 DUP3 ADD PUSH2 0x1B74 JUMP JUMPDEST PUSH1 0x80 DUP6 ADD MSTORE PUSH2 0x158 PUSH1 0x5 DUP3 ADD PUSH2 0x1B74 JUMP JUMPDEST PUSH1 0xA0 DUP6 ADD MSTORE PUSH2 0x169 PUSH1 0x6 DUP3 ADD PUSH2 0x1B74 JUMP JUMPDEST PUSH1 0xC0 DUP6 ADD MSTORE PUSH2 0x17A PUSH1 0x7 DUP3 ADD PUSH2 0x1B74 JUMP JUMPDEST PUSH1 0xE0 DUP6 ADD MSTORE PUSH2 0x18B PUSH1 0x8 DUP3 ADD PUSH2 0x1B74 JUMP JUMPDEST PUSH2 0x100 DUP6 ADD MSTORE PUSH2 0x19D PUSH1 0x9 DUP3 ADD PUSH2 0x1B74 JUMP JUMPDEST PUSH2 0x120 DUP6 ADD MSTORE PUSH2 0x1AF PUSH1 0xA DUP3 ADD PUSH2 0x1B74 JUMP JUMPDEST PUSH2 0x140 DUP6 ADD MSTORE PUSH2 0x1C1 PUSH1 0xB DUP3 ADD PUSH2 0x1B74 JUMP JUMPDEST PUSH2 0x160 DUP6 ADD MSTORE ADD PUSH2 0x1B74 JUMP JUMPDEST PUSH2 0x180 DUP3 ADD MSTORE PUSH2 0x32B DUP2 PUSH2 0x180 PUSH2 0x316 PUSH2 0x300 PUSH2 0x2E8 PUSH2 0x2D0 PUSH2 0x2B8 PUSH2 0x2A1 PUSH2 0x28B PUSH2 0x275 PUSH2 0x25F PUSH1 0x40 MLOAD SWAP14 DUP15 SWAP14 DUP15 PUSH1 0x20 DUP2 MSTORE PUSH1 0x40 PUSH2 0x232 PUSH2 0x21D DUP5 MLOAD PUSH2 0x1A0 PUSH1 0x20 DUP7 ADD MSTORE PUSH2 0x1C0 DUP6 ADD SWAP1 PUSH2 0x1C1A JUMP JUMPDEST PUSH1 0x20 DUP6 ADD MLOAD DUP5 DUP3 SUB PUSH1 0x1F NOT ADD DUP5 DUP7 ADD MSTORE PUSH2 0x1C1A JUMP JUMPDEST SWAP3 ADD MLOAD SWAP1 PUSH1 0x60 PUSH1 0x1F NOT DUP3 DUP6 SUB ADD SWAP2 ADD MSTORE PUSH2 0x1C1A JUMP JUMPDEST DUP14 PUSH1 0x60 DUP14 ADD MLOAD SWAP1 PUSH1 0x80 PUSH1 0x1F NOT DUP3 DUP6 SUB ADD SWAP2 ADD MSTORE PUSH2 0x1C1A JUMP JUMPDEST PUSH1 0x80 DUP12 ADD MLOAD DUP14 DUP3 SUB PUSH1 0x1F NOT ADD PUSH1 0xA0 DUP16 ADD MSTORE PUSH2 0x1C1A JUMP JUMPDEST PUSH1 0xA0 DUP11 ADD MLOAD DUP13 DUP3 SUB PUSH1 0x1F NOT ADD PUSH1 0xC0 DUP15 ADD MSTORE PUSH2 0x1C1A JUMP JUMPDEST PUSH1 0xC0 DUP10 ADD MLOAD DUP12 DUP3 SUB PUSH1 0x1F NOT ADD PUSH1 0xE0 DUP14 ADD MSTORE PUSH2 0x1C1A JUMP JUMPDEST PUSH1 0xE0 DUP9 ADD MLOAD DUP11 DUP3 SUB PUSH1 0x1F NOT ADD PUSH2 0x100 DUP13 ADD MSTORE PUSH2 0x1C1A JUMP JUMPDEST PUSH2 0x100 DUP8 ADD MLOAD DUP10 DUP3 SUB PUSH1 0x1F NOT ADD PUSH2 0x120 DUP12 ADD MSTORE PUSH2 0x1C1A JUMP JUMPDEST PUSH2 0x120 DUP7 ADD MLOAD DUP9 DUP3 SUB PUSH1 0x1F NOT ADD PUSH2 0x140 DUP11 ADD MSTORE PUSH2 0x1C1A JUMP JUMPDEST PUSH2 0x140 DUP6 ADD MLOAD DUP8 DUP3 SUB PUSH1 0x1F NOT ADD PUSH2 0x160 DUP10 ADD MSTORE PUSH2 0x1C1A JUMP JUMPDEST PUSH2 0x160 DUP5 ADD MLOAD DUP7 DUP3 SUB PUSH1 0x1F NOT ADD DUP5 DUP9 ADD MSTORE PUSH2 0x1C1A JUMP JUMPDEST SWAP2 ADD MLOAD DUP4 DUP3 SUB PUSH1 0x1F NOT ADD PUSH2 0x1A0 DUP6 ADD MSTORE PUSH2 0x1C1A JUMP JUMPDEST SUB SWAP1 RETURN JUMPDEST PUSH1 0x0 DUP1 REVERT JUMPDEST CALLVALUE PUSH2 0x32F JUMPI PUSH1 0x0 CALLDATASIZE PUSH1 0x3 NOT ADD SLT PUSH2 0x32F JUMPI PUSH1 0x20 PUSH1 0x2 SLOAD PUSH1 0x40 MLOAD SWAP1 DUP2 MSTORE RETURN JUMPDEST CALLVALUE PUSH2 0x32F JUMPI PUSH1 0x0 CALLDATASIZE PUSH1 0x3 NOT ADD SLT PUSH2 0x32F JUMPI PUSH1 0x0 SLOAD PUSH1 0x40 MLOAD PUSH1 0x1 PUSH1 0x1 PUSH1 0xA0 SHL SUB SWAP1 SWAP2 AND DUP2 MSTORE PUSH1 0x20 SWAP1 RETURN JUMPDEST CALLVALUE PUSH2 0x32F JUMPI PUSH1 0x20 CALLDATASIZE PUSH1 0x3 NOT ADD SLT PUSH2 0x32F JUMPI PUSH1 0x1 PUSH1 0x1 PUSH1 0xA0 SHL SUB PUSH2 0x39C PUSH2 0x1ABA JUMP JUMPDEST AND PUSH1 0x0 MSTORE PUSH1 0x1 PUSH1 0x20 MSTORE PUSH1 0x40 PUSH1 0x0 KECCAK256 PUSH2 0x3B3 DUP2 PUSH2 0x1B74 JUMP JUMPDEST PUSH2 0x3BF PUSH1 0x1 DUP4 ADD PUSH2 0x1B74 JUMP JUMPDEST SWAP2 PUSH2 0x3CC PUSH1 0x2 DUP3 ADD PUSH2 0x1B74 JUMP JUMPDEST SWAP1 PUSH2 0x3D9 PUSH1 0x3 DUP3 ADD PUSH2 0x1B74 JUMP JUMPDEST PUSH2 0x3E5 PUSH1 0x4 DUP4 ADD PUSH2 0x1B74 JUMP JUMPDEST PUSH2 0x3F1 PUSH1 0x5 DUP5 ADD PUSH2 0x1B74 JUMP JUMPDEST PUSH2 0x3FD PUSH1 0x6 DUP6 ADD PUSH2 0x1B74 JUMP JUMPDEST PUSH2 0x409 PUSH1 0x7 DUP7 ADD PUSH2 0x1B74 JUMP JUMPDEST SWAP1 PUSH2 0x416 PUSH1 0x8 DUP8 ADD PUSH2 0x1B74 JUMP JUMPDEST SWAP3 PUSH2 0x423 PUSH1 0x9 DUP9 ADD PUSH2 0x1B74 JUMP JUMPDEST SWAP5 PUSH2 0x430 PUSH1 0xA DUP10 ADD PUSH2 0x1B74 JUMP JUMPDEST SWAP7 PUSH2 0x43D PUSH1 0xB DUP11 ADD PUSH2 0x1B74 JUMP JUMPDEST SWAP9 PUSH1 0xC ADD PUSH2 0x44A SWAP1 PUSH2 0x1B74 JUMP JUMPDEST SWAP10 PUSH1 0x40 MLOAD SWAP13 DUP14 SWAP13 DUP14 PUSH2 0x1A0 SWAP1 DUP2 DUP2 MSTORE ADD PUSH2 0x463 SWAP2 PUSH2 0x1C1A JUMP JUMPDEST DUP14 DUP2 SUB PUSH1 0x20 DUP16 ADD MSTORE PUSH2 0x474 SWAP2 PUSH2 0x1C1A JUMP JUMPDEST DUP13 DUP2 SUB PUSH1 0x40 DUP15 ADD MSTORE PUSH2 0x485 SWAP2 PUSH2 0x1C1A JUMP JUMPDEST DUP12 DUP2 SUB PUSH1 0x60 DUP14 ADD MSTORE PUSH2 0x496 SWAP2 PUSH2 0x1C1A JUMP JUMPDEST DUP11 DUP2 SUB PUSH1 0x80 DUP13 ADD MSTORE PUSH2 0x4A7 SWAP2 PUSH2 0x1C1A JUMP JUMPDEST DUP10 DUP2 SUB PUSH1 0xA0 DUP12 ADD MSTORE PUSH2 0x4B8 SWAP2 PUSH2 0x1C1A JUMP JUMPDEST DUP9 DUP2 SUB PUSH1 0xC0 DUP11 ADD MSTORE PUSH2 0x4C9 SWAP2 PUSH2 0x1C1A JUMP JUMPDEST DUP8 DUP2 SUB PUSH1 0xE0 DUP10 ADD MSTORE PUSH2 0x4DA SWAP2 PUSH2 0x1C1A JUMP JUMPDEST DUP7 DUP2 SUB PUSH2 0x100 DUP9 ADD MSTORE PUSH2 0x4EC SWAP2 PUSH2 0x1C1A JUMP JUMPDEST DUP6 DUP2 SUB PUSH2 0x120 DUP8 ADD MSTORE PUSH2 0x4FE SWAP2 PUSH2 0x1C1A JUMP JUMPDEST DUP5 DUP2 SUB PUSH2 0x140 DUP7 ADD MSTORE PUSH2 0x510 SWAP2 PUSH2 0x1C1A JUMP JUMPDEST DUP4 DUP2 SUB PUSH2 0x160 DUP6 ADD MSTORE PUSH2 0x522 SWAP2 PUSH2 0x1C1A JUMP JUMPDEST DUP3 DUP2 SUB PUSH2 0x180 DUP5 ADD MSTORE PUSH2 0x32B SWAP2 PUSH2 0x1C1A JUMP JUMPDEST CALLVALUE PUSH2 0x32F JUMPI PUSH2 0x1C0 CALLDATASIZE PUSH1 0x3 NOT ADD SLT PUSH2 0x32F JUMPI PUSH2 0x54E PUSH2 0x1ABA JUMP JUMPDEST PUSH2 0x360 MSTORE PUSH1 0x24 CALLDATALOAD PUSH1 0x1 PUSH1 0x1 PUSH1 0x40 SHL SUB DUP2 GT PUSH2 0x32F JUMPI PUSH2 0x571 SWAP1 CALLDATASIZE SWAP1 PUSH1 0x4 ADD PUSH2 0x1AD0 JUMP JUMPDEST PUSH2 0x340 MSTORE PUSH2 0x120 MSTORE PUSH1 0x44 CALLDATALOAD PUSH1 0x1 PUSH1 0x1 PUSH1 0x40 SHL SUB DUP2 GT PUSH2 0x32F JUMPI PUSH2 0x598 SWAP1 CALLDATASIZE SWAP1 PUSH1 0x4 ADD PUSH2 0x1AD0 JUMP JUMPDEST PUSH2 0x140 MSTORE PUSH1 0xE0 MSTORE PUSH1 0x64 CALLDATALOAD PUSH1 0x1 PUSH1 0x1 PUSH1 0x40 SHL SUB DUP2 GT PUSH2 0x32F JUMPI PUSH2 0x5BE SWAP1 CALLDATASIZE SWAP1 PUSH1 0x4 ADD PUSH2 0x1AD0 JUMP JUMPDEST PUSH2 0x240 MSTORE PUSH2 0x2E0 MSTORE PUSH1 0x84 CALLDATALOAD PUSH1 0x1 PUSH1 0x1 PUSH1 0x40 SHL SUB DUP2 GT PUSH2 0x32F JUMPI PUSH2 0x5E5 SWAP1 CALLDATASIZE SWAP1 PUSH1 0x4 ADD PUSH2 0x1AD0 JUMP JUMPDEST PUSH2 0x180 MSTORE PUSH2 0x1E0 MSTORE PUSH1 0xA4 CALLDATALOAD PUSH1 0x1 PUSH1 0x1 PUSH1 0x40 SHL SUB DUP2 GT PUSH2 0x32F JUMPI PUSH2 0x60C SWAP1 CALLDATASIZE SWAP1 PUSH1 0x4 ADD PUSH2 0x1AD0 JUMP JUMPDEST PUSH1 0xA0 MSTORE PUSH2 0x1C0 MSTORE PUSH1 0xC4 CALLDATALOAD PUSH1 0x1 PUSH1 0x1 PUSH1 0x40 SHL SUB DUP2 GT PUSH2 0x32F JUMPI PUSH2 0x632 SWAP1 CALLDATASIZE SWAP1 PUSH1 0x4 ADD PUSH2 0x1AD0 JUMP JUMPDEST PUSH2 0x3E0 MSTORE PUSH2 0x2C0 MSTORE PUSH1 0xE4 CALLDATALOAD PUSH1 0x1 PUSH1 0x1 PUSH1 0x40 SHL SUB DUP2 GT PUSH2 0x32F JUMPI PUSH2 0x659 SWAP1 CALLDATASIZE SWAP1 PUSH1 0x4 ADD PUSH2 0x1AD0 JUMP JUMPDEST PUSH2 0x260 MSTORE PUSH2 0x3C0 MSTORE PUSH2 0x104 CALLDATALOAD PUSH1 0x1 PUSH1 0x1 PUSH1 0x40 SHL SUB DUP2 GT PUSH2 0x32F JUMPI PUSH2 0x681 SWAP1 CALLDATASIZE SWAP1 PUSH1 0x4 ADD PUSH2 0x1AD0 JUMP JUMPDEST PUSH1 0x80 MSTORE PUSH2 0x1A0 MSTORE PUSH1 0x1 PUSH1 0x1 PUSH1 0x40 SHL SUB PUSH2 0x124 CALLDATALOAD GT PUSH2 0x32F JUMPI PUSH2 0x6A9 CALLDATASIZE PUSH2 0x124 CALLDATALOAD PUSH1 0x4 ADD PUSH2 0x1AD0 JUMP JUMPDEST PUSH2 0x2A0 MSTORE PUSH2 0x380 MSTORE PUSH1 0x1 PUSH1 0x1 PUSH1 0x40 SHL SUB PUSH2 0x144 CALLDATALOAD GT PUSH2 0x32F JUMPI PUSH2 0x6D2 CALLDATASIZE PUSH2 0x144 CALLDATALOAD PUSH1 0x4 ADD PUSH2 0x1AD0 JUMP JUMPDEST PUSH2 0x320 MSTORE PUSH2 0x300 MSTORE PUSH2 0x164 CALLDATALOAD PUSH1 0x1 PUSH1 0x1 PUSH1 0x40 SHL SUB DUP2 GT PUSH2 0x32F JUMPI PUSH2 0x6FA SWAP1 CALLDATASIZE SWAP1 PUSH1 0x4 ADD PUSH2 0x1AD0 JUMP JUMPDEST PUSH2 0x280 MSTORE PUSH2 0x100 MSTORE PUSH2 0x184 CALLDATALOAD PUSH1 0x1 PUSH1 0x1 PUSH1 0x40 SHL SUB DUP2 GT PUSH2 0x32F JUMPI PUSH2 0x722 SWAP1 CALLDATASIZE SWAP1 PUSH1 0x4 ADD PUSH2 0x1AD0 JUMP JUMPDEST PUSH2 0x200 MSTORE PUSH2 0x160 MSTORE PUSH2 0x1A4 CALLDATALOAD PUSH1 0x1 PUSH1 0x1 PUSH1 0x40 SHL SUB DUP2 GT PUSH2 0x32F JUMPI PUSH2 0x74A SWAP1 CALLDATASIZE SWAP1 PUSH1 0x4 ADD PUSH2 0x1AD0 JUMP JUMPDEST PUSH1 0xC0 MSTORE PUSH2 0x3A0 MSTORE PUSH1 0x0 SLOAD PUSH1 0x1 PUSH1 0x1 PUSH1 0xA0 SHL SUB AND CALLER SUB PUSH2 0x19F8 JUMPI PUSH2 0x773 PUSH1 0x40 MLOAD DUP1 PUSH2 0x400 MSTORE PUSH2 0x1B37 JUMP JUMPDEST PUSH2 0x784 CALLDATASIZE PUSH2 0x340 MLOAD PUSH2 0x120 MLOAD PUSH2 0x1C5A JUMP JUMPDEST PUSH2 0x400 MLOAD MSTORE PUSH2 0x799 CALLDATASIZE PUSH2 0x140 MLOAD PUSH1 0xE0 MLOAD PUSH2 0x1C5A JUMP JUMPDEST PUSH1 0x20 PUSH2 0x400 MLOAD ADD MSTORE PUSH2 0x7B2 CALLDATASIZE PUSH2 0x240 MLOAD PUSH2 0x2E0 MLOAD PUSH2 0x1C5A JUMP JUMPDEST PUSH1 0x40 PUSH2 0x400 MLOAD ADD MSTORE PUSH2 0x7CB CALLDATASIZE PUSH2 0x180 MLOAD PUSH2 0x1E0 MLOAD PUSH2 0x1C5A JUMP JUMPDEST PUSH1 0x60 PUSH2 0x400 MLOAD ADD MSTORE PUSH2 0x7E3 CALLDATASIZE PUSH1 0xA0 MLOAD PUSH2 0x1C0 MLOAD PUSH2 0x1C5A JUMP JUMPDEST PUSH1 0x80 PUSH2 0x400 MLOAD ADD MSTORE PUSH2 0x7FC CALLDATASIZE PUSH2 0x3E0 MLOAD PUSH2 0x2C0 MLOAD PUSH2 0x1C5A JUMP JUMPDEST PUSH1 0xA0 PUSH2 0x400 MLOAD ADD MSTORE PUSH2 0x815 CALLDATASIZE PUSH2 0x260 MLOAD PUSH2 0x3C0 MLOAD PUSH2 0x1C5A JUMP JUMPDEST PUSH1 0xC0 PUSH2 0x400 MLOAD ADD MSTORE PUSH2 0x82D CALLDATASIZE PUSH1 0x80 MLOAD PUSH2 0x1A0 MLOAD PUSH2 0x1C5A JUMP JUMPDEST PUSH1 0xE0 PUSH2 0x400 MLOAD ADD MSTORE PUSH2 0x846 CALLDATASIZE PUSH2 0x2A0 MLOAD PUSH2 0x380 MLOAD PUSH2 0x1C5A JUMP JUMPDEST PUSH2 0x100 PUSH2 0x400 MLOAD ADD MSTORE PUSH2 0x860 CALLDATASIZE PUSH2 0x320 MLOAD PUSH2 0x300 MLOAD PUSH2 0x1C5A JUMP JUMPDEST PUSH2 0x120 PUSH2 0x400 MLOAD ADD MSTORE PUSH2 0x87A CALLDATASIZE PUSH2 0x280 MLOAD PUSH2 0x100 MLOAD PUSH2 0x1C5A JUMP JUMPDEST PUSH2 0x140 PUSH2 0x400 MLOAD ADD MSTORE PUSH2 0x894 CALLDATASIZE PUSH2 0x200 MLOAD PUSH2 0x160 MLOAD PUSH2 0x1C5A JUMP JUMPDEST PUSH2 0x160 PUSH2 0x400 MLOAD ADD MSTORE PUSH2 0x8AD CALLDATASIZE PUSH1 0xC0 MLOAD PUSH2 0x3A0 MLOAD PUSH2 0x1C5A JUMP JUMPDEST PUSH2 0x180 PUSH2 0x400 MLOAD ADD MSTORE PUSH1 0x1 DUP1 PUSH1 0xA0 SHL SUB PUSH2 0x360 MLOAD AND PUSH1 0x0 MSTORE PUSH1 0x1 PUSH1 0x20 MSTORE PUSH1 0x40 PUSH1 0x0 KECCAK256 PUSH2 0x400 MLOAD MLOAD SWAP1 DUP2 MLOAD PUSH1 0x1 PUSH1 0x1 PUSH1 0x40 SHL SUB DUP2 GT PUSH2 0xFA4 JUMPI PUSH2 0x8EF DUP3 SLOAD PUSH2 0x1AFD JUMP JUMPDEST PUSH1 0x1F DUP2 GT PUSH2 0x19B4 JUMPI JUMPDEST POP PUSH1 0x20 PUSH1 0x1F DUP3 GT PUSH1 0x1 EQ PUSH2 0x194F JUMPI DUP2 SWAP3 SWAP4 PUSH1 0x0 SWAP3 PUSH2 0x1944 JUMPI JUMPDEST POP POP DUP2 PUSH1 0x1 SHL SWAP2 PUSH1 0x0 NOT SWAP1 PUSH1 0x3 SHL SHR NOT AND OR DUP2 SSTORE JUMPDEST PUSH1 0x20 PUSH2 0x400 MLOAD ADD MLOAD SWAP1 DUP2 MLOAD PUSH1 0x1 PUSH1 0x1 PUSH1 0x40 SHL SUB DUP2 GT PUSH2 0xFA4 JUMPI PUSH2 0x94C PUSH1 0x1 DUP4 ADD SLOAD PUSH2 0x1AFD JUMP JUMPDEST PUSH1 0x1F DUP2 GT PUSH2 0x18FD JUMPI JUMPDEST POP PUSH1 0x20 PUSH1 0x1F DUP3 GT PUSH1 0x1 EQ PUSH2 0x1892 JUMPI DUP2 SWAP3 SWAP4 PUSH1 0x0 SWAP3 PUSH2 0x1887 JUMPI JUMPDEST POP POP DUP2 PUSH1 0x1 SHL SWAP2 PUSH1 0x0 NOT SWAP1 PUSH1 0x3 SHL SHR NOT AND OR PUSH1 0x1 DUP3 ADD SSTORE JUMPDEST PUSH1 0x40 PUSH2 0x400 MLOAD ADD MLOAD SWAP1 DUP2 MLOAD PUSH1 0x1 PUSH1 0x1 PUSH1 0x40 SHL SUB DUP2 GT PUSH2 0xFA4 JUMPI PUSH2 0x9AC PUSH1 0x2 DUP4 ADD SLOAD PUSH2 0x1AFD JUMP JUMPDEST PUSH1 0x1F DUP2 GT PUSH2 0x1840 JUMPI JUMPDEST POP PUSH1 0x20 PUSH1 0x1F DUP3 GT PUSH1 0x1 EQ PUSH2 0x17D5 JUMPI DUP2 SWAP3 SWAP4 PUSH1 0x0 SWAP3 PUSH2 0x17CA JUMPI JUMPDEST POP POP DUP2 PUSH1 0x1 SHL SWAP2 PUSH1 0x0 NOT SWAP1 PUSH1 0x3 SHL SHR NOT AND OR PUSH1 0x2 DUP3 ADD SSTORE JUMPDEST PUSH1 0x60 PUSH2 0x400 MLOAD ADD MLOAD DUP1 MLOAD SWAP1 PUSH1 0x1 PUSH1 0x1 PUSH1 0x40 SHL SUB DUP3 GT PUSH2 0xFA4 JUMPI DUP2 SWAP1 PUSH2 0xA0E PUSH1 0x3 DUP6 ADD SLOAD PUSH2 0x1AFD JUMP JUMPDEST PUSH1 0x1F DUP2 GT PUSH2 0x1777 JUMPI JUMPDEST POP PUSH1 0x20 SWAP1 PUSH1 0x1F DUP4 GT PUSH1 0x1 EQ PUSH2 0x1705 JUMPI PUSH1 0x0 SWAP3 PUSH2 0x16FA JUMPI JUMPDEST POP POP DUP2 PUSH1 0x1 SHL SWAP2 PUSH1 0x0 NOT SWAP1 PUSH1 0x3 SHL SHR NOT AND OR PUSH1 0x3 DUP3 ADD SSTORE JUMPDEST PUSH1 0x80 PUSH2 0x400 MLOAD ADD MLOAD DUP1 MLOAD SWAP1 PUSH1 0x1 PUSH1 0x1 PUSH1 0x40 SHL SUB DUP3 GT PUSH2 0xFA4 JUMPI DUP2 SWAP1 PUSH2 0xA6E PUSH1 0x4 DUP6 ADD SLOAD PUSH2 0x1AFD JUMP JUMPDEST PUSH1 0x1F DUP2 GT PUSH2 0x16A7 JUMPI JUMPDEST POP PUSH1 0x20 SWAP1 PUSH1 0x1F DUP4 GT PUSH1 0x1 EQ PUSH2 0x1635 JUMPI PUSH1 0x0 SWAP3 PUSH2 0x162A JUMPI JUMPDEST POP POP DUP2 PUSH1 0x1 SHL SWAP2 PUSH1 0x0 NOT SWAP1 PUSH1 0x3 SHL SHR NOT AND OR PUSH1 0x4 DUP3 ADD SSTORE JUMPDEST PUSH1 0xA0 PUSH2 0x400 MLOAD ADD MLOAD DUP1 MLOAD SWAP1 PUSH1 0x1 PUSH1 0x1 PUSH1 0x40 SHL SUB DUP3 GT PUSH2 0xFA4 JUMPI DUP2 SWAP1 PUSH2 0xACE PUSH1 0x5 DUP6 ADD SLOAD PUSH2 0x1AFD JUMP JUMPDEST PUSH1 0x1F DUP2 GT PUSH2 0x15D7 JUMPI JUMPDEST POP PUSH1 0x20 SWAP1 PUSH1 0x1F DUP4 GT PUSH1 0x1 EQ PUSH2 0x1565 JUMPI PUSH1 0x0 SWAP3 PUSH2 0x155A JUMPI JUMPDEST POP POP DUP2 PUSH1 0x1 SHL SWAP2 PUSH1 0x0 NOT SWAP1 PUSH1 0x3 SHL SHR NOT AND OR PUSH1 0x5 DUP3 ADD SSTORE JUMPDEST PUSH1 0xC0 PUSH2 0x400 MLOAD ADD MLOAD DUP1 MLOAD SWAP1 PUSH1 0x1 PUSH1 0x1 PUSH1 0x40 SHL SUB DUP3 GT PUSH2 0xFA4 JUMPI DUP2 SWAP1 PUSH2 0xB2E PUSH1 0x6 DUP6 ADD SLOAD PUSH2 0x1AFD JUMP JUMPDEST PUSH1 0x1F DUP2 GT PUSH2 0x1507 JUMPI JUMPDEST POP PUSH1 0x20 SWAP1 PUSH1 0x1F DUP4 GT PUSH1 0x1 EQ PUSH2 0x1495 JUMPI PUSH1 0x0 SWAP3 PUSH2 0x148A JUMPI JUMPDEST POP POP DUP2 PUSH1 0x1 SHL SWAP2 PUSH1 0x0 NOT SWAP1 PUSH1 0x3 SHL SHR NOT AND OR PUSH1 0x6 DUP3 ADD SSTORE JUMPDEST PUSH1 0xE0 PUSH2 0x400 MLOAD ADD MLOAD DUP1 MLOAD SWAP1 PUSH1 0x1 PUSH1 0x1 PUSH1 0x40 SHL SUB DUP3 GT PUSH2 0xFA4 JUMPI DUP2 SWAP1 PUSH2 0xB8E PUSH1 0x7 DUP6 ADD SLOAD PUSH2 0x1AFD JUMP JUMPDEST PUSH1 0x1F DUP2 GT PUSH2 0x1437 JUMPI JUMPDEST POP PUSH1 0x20 SWAP1 PUSH1 0x1F DUP4 GT PUSH1 0x1 EQ PUSH2 0x13C5 JUMPI PUSH1 0x0 SWAP3 PUSH2 0x13BA JUMPI JUMPDEST POP POP DUP2 PUSH1 0x1 SHL SWAP2 PUSH1 0x0 NOT SWAP1 PUSH1 0x3 SHL SHR NOT AND OR PUSH1 0x7 DUP3 ADD SSTORE JUMPDEST PUSH2 0x100 PUSH2 0x400 MLOAD ADD MLOAD DUP1 MLOAD SWAP1 PUSH1 0x1 PUSH1 0x1 PUSH1 0x40 SHL SUB DUP3 GT PUSH2 0xFA4 JUMPI DUP2 SWAP1 PUSH2 0xBEF PUSH1 0x8 DUP6 ADD SLOAD PUSH2 0x1AFD JUMP JUMPDEST PUSH1 0x1F DUP2 GT PUSH2 0x1367 JUMPI JUMPDEST POP PUSH1 0x20 SWAP1 PUSH1 0x1F DUP4 GT PUSH1 0x1 EQ PUSH2 0x12F5 JUMPI PUSH1 0x0 SWAP3 PUSH2 0x12EA JUMPI JUMPDEST POP POP DUP2 PUSH1 0x1 SHL SWAP2 PUSH1 0x0 NOT SWAP1 PUSH1 0x3 SHL SHR NOT AND OR PUSH1 0x8 DUP3 ADD SSTORE JUMPDEST PUSH2 0x120 PUSH2 0x400 MLOAD ADD MLOAD DUP1 MLOAD SWAP1 PUSH1 0x1 PUSH1 0x1 PUSH1 0x40 SHL SUB DUP3 GT PUSH2 0xFA4 JUMPI DUP2 SWAP1 PUSH2 0xC50 PUSH1 0x9 DUP6 ADD SLOAD PUSH2 0x1AFD JUMP JUMPDEST PUSH1 0x1F DUP2 GT PUSH2 0x1297 JUMPI JUMPDEST POP PUSH1 0x20 SWAP1 PUSH1 0x1F DUP4 GT PUSH1 0x1 EQ PUSH2 0x1225 JUMPI PUSH1 0x0 SWAP3 PUSH2 0x121A JUMPI JUMPDEST POP POP DUP2 PUSH1 0x1 SHL SWAP2 PUSH1 0x0 NOT SWAP1 PUSH1 0x3 SHL SHR NOT AND OR PUSH1 0x9 DUP3 ADD SSTORE JUMPDEST PUSH2 0x140 PUSH2 0x400 MLOAD ADD MLOAD DUP1 MLOAD SWAP1 PUSH1 0x1 PUSH1 0x1 PUSH1 0x40 SHL SUB DUP3 GT PUSH2 0xFA4 JUMPI DUP2 SWAP1 PUSH2 0xCB1 PUSH1 0xA DUP6 ADD SLOAD PUSH2 0x1AFD JUMP JUMPDEST PUSH1 0x1F DUP2 GT PUSH2 0x11C7 JUMPI JUMPDEST POP PUSH1 0x20 SWAP1 PUSH1 0x1F DUP4 GT PUSH1 0x1 EQ PUSH2 0x1155 JUMPI PUSH1 0x0 SWAP3 PUSH2 0x114A JUMPI JUMPDEST POP POP DUP2 PUSH1 0x1 SHL SWAP2 PUSH1 0x0 NOT SWAP1 PUSH1 0x3 SHL SHR NOT AND OR PUSH1 0xA DUP3 ADD SSTORE JUMPDEST PUSH2 0x160 PUSH2 0x400 MLOAD ADD MLOAD DUP1 MLOAD SWAP1 PUSH1 0x1 PUSH1 0x1 PUSH1 0x40 SHL SUB DUP3 GT PUSH2 0xFA4 JUMPI DUP2 SWAP1 PUSH2 0xD12 PUSH1 0xB DUP6 ADD SLOAD PUSH2 0x1AFD JUMP JUMPDEST PUSH1 0x1F DUP2 GT PUSH2 0x10F7 JUMPI JUMPDEST POP PUSH1 0x20 SWAP1 PUSH1 0x1F DUP4 GT PUSH1 0x1 EQ PUSH2 0x1085 JUMPI PUSH1 0x0 SWAP3 PUSH2 0x107A JUMPI JUMPDEST POP POP DUP2 PUSH1 0x1 SHL SWAP2 PUSH1 0x0 NOT SWAP1 PUSH1 0x3 SHL SHR NOT AND OR PUSH1 0xB DUP3 ADD SSTORE JUMPDEST PUSH2 0x180 PUSH2 0x400 MLOAD ADD MLOAD DUP1 MLOAD SWAP1 PUSH1 0x1 PUSH1 0x1 PUSH1 0x40 SHL SUB DUP3 GT PUSH2 0xFA4 JUMPI PUSH2 0xD71 PUSH1 0xC DUP5 ADD SLOAD PUSH2 0x1AFD JUMP JUMPDEST PUSH1 0x1F DUP2 GT PUSH2 0x1033 JUMPI JUMPDEST POP PUSH1 0x20 SWAP1 PUSH1 0x1F DUP4 GT PUSH1 0x1 EQ PUSH2 0xFC5 JUMPI PUSH1 0xC SWAP3 SWAP2 PUSH1 0x0 SWAP2 DUP4 PUSH2 0xFBA JUMPI JUMPDEST POP POP DUP2 PUSH1 0x1 SHL SWAP2 PUSH1 0x0 NOT SWAP1 PUSH1 0x3 SHL SHR NOT AND OR SWAP2 ADD SSTORE JUMPDEST PUSH1 0x2 SLOAD PUSH9 0x10000000000000000 DUP2 LT ISZERO PUSH2 0xFA4 JUMPI DUP1 PUSH1 0x1 PUSH2 0xDD0 SWAP3 ADD PUSH1 0x2 SSTORE PUSH2 0x1A6D JUMP JUMPDEST DUP2 SLOAD SWAP1 PUSH1 0x3 SHL SWAP1 PUSH1 0x1 DUP1 PUSH1 0xA0 SHL SUB PUSH2 0x360 MLOAD AND DUP3 SHL SWAP2 PUSH1 0x1 DUP1 PUSH1 0xA0 SHL SUB SWAP1 SHL NOT AND OR SWAP1 SSTORE PUSH2 0x1A0 PUSH1 0x40 MLOAD DUP1 PUSH2 0x220 MSTORE MSTORE PUSH2 0xF4D PUSH2 0xF33 PUSH2 0xF19 PUSH2 0xEFF PUSH2 0xEE5 PUSH2 0xECD PUSH2 0xEB4 PUSH2 0xE9B PUSH2 0xE83 PUSH2 0xE6A PUSH2 0xE51 PUSH2 0xE39 PUSH2 0x1A0 PUSH2 0x220 MLOAD ADD PUSH2 0x340 MLOAD PUSH2 0x120 MLOAD PUSH2 0x1CA0 JUMP JUMPDEST PUSH2 0x220 MLOAD PUSH1 0x20 DUP2 DUP4 SUB SWAP2 ADD MSTORE PUSH2 0x140 MLOAD PUSH1 0xE0 MLOAD PUSH2 0x1CA0 JUMP JUMPDEST PUSH2 0x220 MLOAD PUSH1 0x40 DUP2 DUP4 SUB SWAP2 ADD MSTORE PUSH2 0x240 MLOAD PUSH2 0x2E0 MLOAD PUSH2 0x1CA0 JUMP JUMPDEST PUSH2 0x220 MLOAD PUSH1 0x60 DUP2 DUP4 SUB SWAP2 ADD MSTORE PUSH2 0x180 MLOAD PUSH2 0x1E0 MLOAD PUSH2 0x1CA0 JUMP JUMPDEST PUSH2 0x220 MLOAD PUSH1 0x80 DUP2 DUP4 SUB SWAP2 ADD MSTORE PUSH1 0xA0 MLOAD PUSH2 0x1C0 MLOAD PUSH2 0x1CA0 JUMP JUMPDEST PUSH2 0x220 MLOAD PUSH1 0xA0 DUP2 DUP4 SUB SWAP2 ADD MSTORE PUSH2 0x3E0 MLOAD PUSH2 0x2C0 MLOAD PUSH2 0x1CA0 JUMP JUMPDEST PUSH2 0x220 MLOAD PUSH1 0xC0 DUP2 DUP4 SUB SWAP2 ADD MSTORE PUSH2 0x260 MLOAD PUSH2 0x3C0 MLOAD PUSH2 0x1CA0 JUMP JUMPDEST PUSH2 0x220 MLOAD PUSH1 0xE0 DUP2 DUP4 SUB SWAP2 ADD MSTORE PUSH1 0x80 MLOAD PUSH2 0x1A0 MLOAD PUSH2 0x1CA0 JUMP JUMPDEST PUSH2 0x220 MLOAD PUSH2 0x100 DUP2 DUP4 SUB SWAP2 ADD MSTORE PUSH2 0x2A0 MLOAD PUSH2 0x380 MLOAD PUSH2 0x1CA0 JUMP JUMPDEST PUSH2 0x220 MLOAD PUSH2 0x120 DUP2 DUP4 SUB SWAP2 ADD MSTORE PUSH2 0x320 MLOAD PUSH2 0x300 MLOAD PUSH2 0x1CA0 JUMP JUMPDEST PUSH2 0x220 MLOAD PUSH2 0x140 DUP2 DUP4 SUB SWAP2 ADD MSTORE PUSH2 0x280 MLOAD PUSH2 0x100 MLOAD PUSH2 0x1CA0 JUMP JUMPDEST PUSH2 0x220 MLOAD PUSH2 0x160 DUP2 DUP4 SUB SWAP2 ADD MSTORE PUSH2 0x200 MLOAD PUSH2 0x160 MLOAD PUSH2 0x1CA0 JUMP JUMPDEST PUSH2 0x220 MLOAD PUSH2 0x180 DUP2 DUP4 SUB SWAP2 ADD MSTORE PUSH32 0xD953DD68804DEBEA261251D78692BCC9F759F42CF527B56710AFEB39718FB59C PUSH1 0x1 DUP1 PUSH1 0xA0 SHL SUB PUSH2 0x360 MLOAD AND SWAP2 PUSH2 0xF9C PUSH2 0x220 MLOAD SWAP2 PUSH1 0xC0 MLOAD PUSH2 0x3A0 MLOAD PUSH2 0x1CA0 JUMP JUMPDEST SUB PUSH2 0x220 MLOAD LOG2 STOP JUMPDEST PUSH4 0x4E487B71 PUSH1 0xE0 SHL PUSH1 0x0 MSTORE PUSH1 0x41 PUSH1 0x4 MSTORE PUSH1 0x24 PUSH1 0x0 REVERT JUMPDEST ADD MLOAD SWAP1 POP DUP5 DUP1 PUSH2 0xD96 JUMP JUMPDEST SWAP1 PUSH1 0xC DUP5 ADD PUSH1 0x0 MSTORE PUSH1 0x20 PUSH1 0x0 KECCAK256 SWAP2 PUSH1 0x0 PUSH1 0x1F NOT DUP6 AND SWAP1 JUMPDEST DUP2 DUP2 LT PUSH2 0x101B JUMPI POP SWAP2 PUSH1 0x1 SWAP4 SWAP2 DUP6 PUSH1 0xC SWAP7 SWAP5 LT PUSH2 0x1002 JUMPI JUMPDEST POP POP POP DUP2 SHL ADD SWAP2 ADD SSTORE PUSH2 0xDAC JUMP JUMPDEST ADD MLOAD PUSH1 0x0 NOT PUSH1 0xF8 DUP5 PUSH1 0x3 SHL AND SHR NOT AND SWAP1 SSTORE DUP5 DUP1 DUP1 PUSH2 0xFF4 JUMP JUMPDEST SWAP3 SWAP4 PUSH1 0x20 PUSH1 0x1 DUP2 SWAP3 DUP8 DUP7 ADD MLOAD DUP2 SSTORE ADD SWAP6 ADD SWAP4 ADD PUSH2 0xFDC JUMP JUMPDEST PUSH1 0xC DUP5 ADD PUSH1 0x0 MSTORE PUSH1 0x20 PUSH1 0x0 KECCAK256 PUSH1 0x1F DUP5 ADD PUSH1 0x5 SHR DUP2 ADD PUSH1 0x20 DUP6 LT PUSH2 0x1073 JUMPI JUMPDEST PUSH1 0x1F DUP4 ADD PUSH1 0x5 SHR DUP3 ADD DUP2 LT PUSH2 0x1067 JUMPI POP POP PUSH2 0xD7A JUMP JUMPDEST PUSH1 0x0 DUP2 SSTORE PUSH1 0x1 ADD PUSH2 0x1051 JUMP JUMPDEST POP DUP1 PUSH2 0x1051 JUMP JUMPDEST ADD MLOAD SWAP1 POP DUP4 DUP1 PUSH2 0xD32 JUMP JUMPDEST SWAP3 POP PUSH1 0xB DUP5 ADD PUSH1 0x0 MSTORE PUSH1 0x20 PUSH1 0x0 KECCAK256 SWAP1 PUSH1 0x0 SWAP4 JUMPDEST PUSH1 0x1F NOT DUP5 AND DUP6 LT PUSH2 0x10DC JUMPI PUSH1 0x1 SWAP5 POP DUP4 PUSH1 0x1F NOT DUP2 AND LT PUSH2 0x10C3 JUMPI JUMPDEST POP POP POP DUP2 SHL ADD PUSH1 0xB DUP3 ADD SSTORE PUSH2 0xD4A JUMP JUMPDEST ADD MLOAD PUSH1 0x0 NOT PUSH1 0xF8 DUP5 PUSH1 0x3 SHL AND SHR NOT AND SWAP1 SSTORE DUP4 DUP1 DUP1 PUSH2 0x10B3 JUMP JUMPDEST DUP2 DUP2 ADD MLOAD DUP4 SSTORE PUSH1 0x20 SWAP5 DUP6 ADD SWAP5 PUSH1 0x1 SWAP1 SWAP4 ADD SWAP3 SWAP1 SWAP2 ADD SWAP1 PUSH2 0x1098 JUMP JUMPDEST SWAP1 SWAP2 POP PUSH1 0xB DUP5 ADD PUSH1 0x0 MSTORE PUSH1 0x20 PUSH1 0x0 KECCAK256 PUSH1 0x1F DUP5 ADD PUSH1 0x5 SHR DUP2 ADD PUSH1 0x20 DUP6 LT PUSH2 0x1143 JUMPI JUMPDEST SWAP1 DUP5 SWAP4 SWAP3 SWAP2 JUMPDEST PUSH1 0x1F DUP4 ADD PUSH1 0x5 SHR DUP3 ADD DUP2 LT PUSH2 0x1134 JUMPI POP POP PUSH2 0xD1B JUMP JUMPDEST PUSH1 0x0 DUP2 SSTORE DUP6 SWAP5 POP PUSH1 0x1 ADD PUSH2 0x111E JUMP JUMPDEST POP DUP1 PUSH2 0x1118 JUMP JUMPDEST ADD MLOAD SWAP1 POP DUP4 DUP1 PUSH2 0xCD1 JUMP JUMPDEST SWAP3 POP PUSH1 0xA DUP5 ADD PUSH1 0x0 MSTORE PUSH1 0x20 PUSH1 0x0 KECCAK256 SWAP1 PUSH1 0x0 SWAP4 JUMPDEST PUSH1 0x1F NOT DUP5 AND DUP6 LT PUSH2 0x11AC JUMPI PUSH1 0x1 SWAP5 POP DUP4 PUSH1 0x1F NOT DUP2 AND LT PUSH2 0x1193 JUMPI JUMPDEST POP POP POP DUP2 SHL ADD PUSH1 0xA DUP3 ADD SSTORE PUSH2 0xCE9 JUMP JUMPDEST ADD MLOAD PUSH1 0x0 NOT PUSH1 0xF8 DUP5 PUSH1 0x3 SHL AND SHR NOT AND SWAP1 SSTORE DUP4 DUP1 DUP1 PUSH2 0x1183 JUMP JUMPDEST DUP2 DUP2 ADD MLOAD DUP4 SSTORE PUSH1 0x20 SWAP5 DUP6 ADD SWAP5 PUSH1 0x1 SWAP1 SWAP4 ADD SWAP3 SWAP1 SWAP2 ADD SWAP1 PUSH2 0x1168 JUMP JUMPDEST SWAP1 SWAP2 POP PUSH1 0xA DUP5 ADD PUSH1 0x0 MSTORE PUSH1 0x20 PUSH1 0x0 KECCAK256 PUSH1 0x1F DUP5 ADD PUSH1 0x5 SHR DUP2 ADD PUSH1 0x20 DUP6 LT PUSH2 0x1213 JUMPI JUMPDEST SWAP1 DUP5 SWAP4 SWAP3 SWAP2 JUMPDEST PUSH1 0x1F DUP4 ADD PUSH1 0x5 SHR DUP3 ADD DUP2 LT PUSH2 0x1204 JUMPI POP POP PUSH2 0xCBA JUMP JUMPDEST PUSH1 0x0 DUP2 SSTORE DUP6 SWAP5 POP PUSH1 0x1 ADD PUSH2 0x11EE JUMP JUMPDEST POP DUP1 PUSH2 0x11E8 JUMP JUMPDEST ADD MLOAD SWAP1 POP DUP4 DUP1 PUSH2 0xC70 JUMP JUMPDEST SWAP3 POP PUSH1 0x9 DUP5 ADD PUSH1 0x0 MSTORE PUSH1 0x20 PUSH1 0x0 KECCAK256 SWAP1 PUSH1 0x0 SWAP4 JUMPDEST PUSH1 0x1F NOT DUP5 AND DUP6 LT PUSH2 0x127C JUMPI PUSH1 0x1 SWAP5 POP DUP4 PUSH1 0x1F NOT DUP2 AND LT PUSH2 0x1263 JUMPI JUMPDEST POP POP POP DUP2 SHL ADD PUSH1 0x9 DUP3 ADD SSTORE PUSH2 0xC88 JUMP JUMPDEST ADD MLOAD PUSH1 0x0 NOT PUSH1 0xF8 DUP5 PUSH1 0x3 SHL AND SHR NOT AND SWAP1 SSTORE DUP4 DUP1 DUP1 PUSH2 0x1253 JUMP JUMPDEST DUP2 DUP2 ADD MLOAD DUP4 SSTORE PUSH1 0x20 SWAP5 DUP6 ADD SWAP5 PUSH1 0x1 SWAP1 SWAP4 ADD SWAP3 SWAP1 SWAP2 ADD SWAP1 PUSH2 0x1238 JUMP JUMPDEST SWAP1 SWAP2 POP PUSH1 0x9 DUP5 ADD PUSH1 0x0 MSTORE PUSH1 0x20 PUSH1 0x0 KECCAK256 PUSH1 0x1F DUP5 ADD PUSH1 0x5 SHR DUP2 ADD PUSH1 0x20 DUP6 LT PUSH2 0x12E3 JUMPI JUMPDEST SWAP1 DUP5 SWAP4 SWAP3 SWAP2 JUMPDEST PUSH1 0x1F DUP4 ADD PUSH1 0x5 SHR DUP3 ADD DUP2 LT PUSH2 0x12D4 JUMPI POP POP PUSH2 0xC59 JUMP JUMPDEST PUSH1 0x0 DUP2 SSTORE DUP6 SWAP5 POP PUSH1 0x1 ADD PUSH2 0x12BE JUMP JUMPDEST POP DUP1 PUSH2 0x12B8 JUMP JUMPDEST ADD MLOAD SWAP1 POP DUP4 DUP1 PUSH2 0xC0F JUMP JUMPDEST SWAP3 POP PUSH1 0x8 DUP5 ADD PUSH1 0x0 MSTORE PUSH1 0x20 PUSH1 0x0 KECCAK256 SWAP1 PUSH1 0x0 SWAP4 JUMPDEST PUSH1 0x1F NOT DUP5 AND DUP6 LT PUSH2 0x134C JUMPI PUSH1 0x1 SWAP5 POP DUP4 PUSH1 0x1F NOT DUP2 AND LT PUSH2 0x1333 JUMPI JUMPDEST POP POP POP DUP2 SHL ADD PUSH1 0x8 DUP3 ADD SSTORE PUSH2 0xC27 JUMP JUMPDEST ADD MLOAD PUSH1 0x0 NOT PUSH1 0xF8 DUP5 PUSH1 0x3 SHL AND SHR NOT AND SWAP1 SSTORE DUP4 DUP1 DUP1 PUSH2 0x1323 JUMP JUMPDEST DUP2 DUP2 ADD MLOAD DUP4 SSTORE PUSH1 0x20 SWAP5 DUP6 ADD SWAP5 PUSH1 0x1 SWAP1 SWAP4 ADD SWAP3 SWAP1 SWAP2 ADD SWAP1 PUSH2 0x1308 JUMP JUMPDEST SWAP1 SWAP2 POP PUSH1 0x8 DUP5 ADD PUSH1 0x0 MSTORE PUSH1 0x20 PUSH1 0x0 KECCAK256 PUSH1 0x1F DUP5 ADD PUSH1 0x5 SHR DUP2 ADD PUSH1 0x20 DUP6 LT PUSH2 0x13B3 JUMPI JUMPDEST SWAP1 DUP5 SWAP4 SWAP3 SWAP2 JUMPDEST PUSH1 0x1F DUP4 ADD PUSH1 0x5 SHR DUP3 ADD DUP2 LT PUSH2 0x13A4 JUMPI POP POP PUSH2 0xBF8 JUMP JUMPDEST PUSH1 0x0 DUP2 SSTORE DUP6 SWAP5 POP PUSH1 0x1 ADD PUSH2 0x138E JUMP JUMPDEST POP DUP1 PUSH2 0x1388 JUMP JUMPDEST ADD MLOAD SWAP1 POP DUP4 DUP1 PUSH2 0xBAE JUMP JUMPDEST SWAP3 POP PUSH1 0x7 DUP5 ADD PUSH1 0x0 MSTORE PUSH1 0x20 PUSH1 0x0 KECCAK256 SWAP1 PUSH1 0x0 SWAP4 JUMPDEST PUSH1 0x1F NOT DUP5 AND DUP6 LT PUSH2 0x141C JUMPI PUSH1 0x1 SWAP5 POP DUP4 PUSH1 0x1F NOT DUP2 AND LT PUSH2 0x1403 JUMPI JUMPDEST POP POP POP DUP2 SHL ADD PUSH1 0x7 DUP3 ADD SSTORE PUSH2 0xBC6 JUMP JUMPDEST ADD MLOAD PUSH1 0x0 NOT PUSH1 0xF8 DUP5 PUSH1 0x3 SHL AND SHR NOT AND SWAP1 SSTORE DUP4 DUP1 DUP1 PUSH2 0x13F3 JUMP JUMPDEST DUP2 DUP2 ADD MLOAD DUP4 SSTORE PUSH1 0x20 SWAP5 DUP6 ADD SWAP5 PUSH1 0x1 SWAP1 SWAP4 ADD SWAP3 SWAP1 SWAP2 ADD SWAP1 PUSH2 0x13D8 JUMP JUMPDEST SWAP1 SWAP2 POP PUSH1 0x7 DUP5 ADD PUSH1 0x0 MSTORE PUSH1 0x20 PUSH1 0x0 KECCAK256 PUSH1 0x1F DUP5 ADD PUSH1 0x5 SHR DUP2 ADD PUSH1 0x20 DUP6 LT PUSH2 0x1483 JUMPI JUMPDEST SWAP1 DUP5 SWAP4 SWAP3 SWAP2 JUMPDEST PUSH1 0x1F DUP4 ADD PUSH1 0x5 SHR DUP3 ADD DUP2 LT PUSH2 0x1474 JUMPI POP POP PUSH2 0xB97 JUMP JUMPDEST PUSH1 0x0 DUP2 SSTORE DUP6 SWAP5 POP PUSH1 0x1 ADD PUSH2 0x145E JUMP JUMPDEST POP DUP1 PUSH2 0x1458 JUMP JUMPDEST ADD MLOAD SWAP1 POP DUP4 DUP1 PUSH2 0xB4E JUMP JUMPDEST SWAP3 POP PUSH1 0x6 DUP5 ADD PUSH1 0x0 MSTORE PUSH1 0x20 PUSH1 0x0 KECCAK256 SWAP1 PUSH1 0x0 SWAP4 JUMPDEST PUSH1 0x1F NOT DUP5 AND DUP6 LT PUSH2 0x14EC JUMPI PUSH1 0x1 SWAP5 POP DUP4 PUSH1 0x1F NOT DUP2 AND LT PUSH2 0x14D3 JUMPI JUMPDEST POP POP POP DUP2 SHL ADD PUSH1 0x6 DUP3 ADD SSTORE PUSH2 0xB66 JUMP JUMPDEST ADD MLOAD PUSH1 0x0 NOT PUSH1 0xF8 DUP5 PUSH1 0x3 SHL AND SHR NOT AND SWAP1 SSTORE DUP4 DUP1 DUP1 PUSH2 0x14C3 JUMP JUMPDEST DUP2 DUP2 ADD MLOAD DUP4 SSTORE PUSH1 0x20 SWAP5 DUP6 ADD SWAP5 PUSH1 0x1 SWAP1 SWAP4 ADD SWAP3 SWAP1 SWAP2 ADD SWAP1 PUSH2 0x14A8 JUMP JUMPDEST SWAP1 SWAP2 POP PUSH1 0x6 DUP5 ADD PUSH1 0x0 MSTORE PUSH1 0x20 PUSH1 0x0 KECCAK256 PUSH1 0x1F DUP5 ADD PUSH1 0x5 SHR DUP2 ADD PUSH1 0x20 DUP6 LT PUSH2 0x1553 JUMPI JUMPDEST SWAP1 DUP5 SWAP4 SWAP3 SWAP2 JUMPDEST PUSH1 0x1F DUP4 ADD PUSH1 0x5 SHR DUP3 ADD DUP2 LT PUSH2 0x1544 JUMPI POP POP PUSH2 0xB37 JUMP JUMPDEST PUSH1 0x0 DUP2 SSTORE DUP6 SWAP5 POP PUSH1 0x1 ADD PUSH2 0x152E JUMP JUMPDEST POP DUP1 PUSH2 0x1528 JUMP JUMPDEST ADD MLOAD SWAP1 POP DUP4 DUP1 PUSH2 0xAEE JUMP JUMPDEST SWAP3 POP PUSH1 0x5 DUP5 ADD PUSH1 0x0 MSTORE PUSH1 0x20 PUSH1 0x0 KECCAK256 SWAP1 PUSH1 0x0 SWAP4 JUMPDEST PUSH1 0x1F NOT DUP5 AND DUP6 LT PUSH2 0x15BC JUMPI PUSH1 0x1 SWAP5 POP DUP4 PUSH1 0x1F NOT DUP2 AND LT PUSH2 0x15A3 JUMPI JUMPDEST POP POP POP DUP2 SHL ADD PUSH1 0x5 DUP3 ADD SSTORE PUSH2 0xB06 JUMP JUMPDEST ADD MLOAD PUSH1 0x0 NOT PUSH1 0xF8 DUP5 PUSH1 0x3 SHL AND SHR NOT AND SWAP1 SSTORE DUP4 DUP1 DUP1 PUSH2 0x1593 JUMP JUMPDEST DUP2 DUP2 ADD MLOAD DUP4 SSTORE PUSH1 0x20 SWAP5 DUP6 ADD SWAP5 PUSH1 0x1 SWAP1 SWAP4 ADD SWAP3 SWAP1 SWAP2 ADD SWAP1 PUSH2 0x1578 JUMP JUMPDEST SWAP1 SWAP2 POP PUSH1 0x5 DUP5 ADD PUSH1 0x0 MSTORE PUSH1 0x20 PUSH1 0x0 KECCAK256 PUSH1 0x1F DUP5 ADD PUSH1 0x5 SHR DUP2 ADD PUSH1 0x20 DUP6 LT PUSH2 0x1623 JUMPI JUMPDEST SWAP1 DUP5 SWAP4 SWAP3 SWAP2 JUMPDEST PUSH1 0x1F DUP4 ADD PUSH1 0x5 SHR DUP3 ADD DUP2 LT PUSH2 0x1614 JUMPI POP POP PUSH2 0xAD7 JUMP JUMPDEST PUSH1 0x0 DUP2 SSTORE DUP6 SWAP5 POP PUSH1 0x1 ADD PUSH2 0x15FE JUMP JUMPDEST POP DUP1 PUSH2 0x15F8 JUMP JUMPDEST ADD MLOAD SWAP1 POP DUP4 DUP1 PUSH2 0xA8E JUMP JUMPDEST SWAP3 POP PUSH1 0x4 DUP5 ADD PUSH1 0x0 MSTORE PUSH1 0x20 PUSH1 0x0 KECCAK256 SWAP1 PUSH1 0x0 SWAP4 JUMPDEST PUSH1 0x1F NOT DUP5 AND DUP6 LT PUSH2 0x168C JUMPI PUSH1 0x1 SWAP5 POP DUP4 PUSH1 0x1F NOT DUP2 AND LT PUSH2 0x1673 JUMPI JUMPDEST POP POP POP DUP2 SHL ADD PUSH1 0x4 DUP3 ADD SSTORE PUSH2 0xAA6 JUMP JUMPDEST ADD MLOAD PUSH1 0x0 NOT PUSH1 0xF8 DUP5 PUSH1 0x3 SHL AND SHR NOT AND SWAP1 SSTORE DUP4 DUP1 DUP1 PUSH2 0x1663 JUMP JUMPDEST DUP2 DUP2 ADD MLOAD DUP4 SSTORE PUSH1 0x20 SWAP5 DUP6 ADD SWAP5 PUSH1 0x1 SWAP1 SWAP4 ADD SWAP3 SWAP1 SWAP2 ADD SWAP1 PUSH2 0x1648 JUMP JUMPDEST SWAP1 SWAP2 POP PUSH1 0x4 DUP5 ADD PUSH1 0x0 MSTORE PUSH1 0x20 PUSH1 0x0 KECCAK256 PUSH1 0x1F DUP5 ADD PUSH1 0x5 SHR DUP2 ADD PUSH1 0x20 DUP6 LT PUSH2 0x16F3 JUMPI JUMPDEST SWAP1 DUP5 SWAP4 SWAP3 SWAP2 JUMPDEST PUSH1 0x1F DUP4 ADD PUSH1 0x5 SHR DUP3 ADD DUP2 LT PUSH2 0x16E4 JUMPI POP POP PUSH2 0xA77 JUMP JUMPDEST PUSH1 0x0 DUP2 SSTORE DUP6 SWAP5 POP PUSH1 0x1 ADD PUSH2 0x16CE JUMP JUMPDEST POP DUP1 PUSH2 0x16C8 JUMP JUMPDEST ADD MLOAD SWAP1 POP DUP4 DUP1 PUSH2 0xA2E JUMP JUMPDEST SWAP3 POP PUSH1 0x3 DUP5 ADD PUSH1 0x0 MSTORE PUSH1 0x20 PUSH1 0x0 KECCAK256 SWAP1 PUSH1 0x0 SWAP4 JUMPDEST PUSH1 0x1F NOT DUP5 AND DUP6 LT PUSH2 0x175C JUMPI PUSH1 0x1 SWAP5 POP DUP4 PUSH1 0x1F NOT DUP2 AND LT PUSH2 0x1743 JUMPI JUMPDEST POP POP POP DUP2 SHL ADD PUSH1 0x3 DUP3 ADD SSTORE PUSH2 0xA46 JUMP JUMPDEST ADD MLOAD PUSH1 0x0 NOT PUSH1 0xF8 DUP5 PUSH1 0x3 SHL AND SHR NOT AND SWAP1 SSTORE DUP4 DUP1 DUP1 PUSH2 0x1733 JUMP JUMPDEST DUP2 DUP2 ADD MLOAD DUP4 SSTORE PUSH1 0x20 SWAP5 DUP6 ADD SWAP5 PUSH1 0x1 SWAP1 SWAP4 ADD SWAP3 SWAP1 SWAP2 ADD SWAP1 PUSH2 0x1718 JUMP JUMPDEST SWAP1 SWAP2 POP PUSH1 0x3 DUP5 ADD PUSH1 0x0 MSTORE PUSH1 0x20 PUSH1 0x0 KECCAK256 PUSH1 0x1F DUP5 ADD PUSH1 0x5 SHR DUP2 ADD PUSH1 0x20 DUP6 LT PUSH2 0x17C3 JUMPI JUMPDEST SWAP1 DUP5 SWAP4 SWAP3 SWAP2 JUMPDEST PUSH1 0x1F DUP4 ADD PUSH1 0x5 SHR DUP3 ADD DUP2 LT PUSH2 0x17B4 JUMPI POP POP PUSH2 0xA17 JUMP JUMPDEST PUSH1 0x0 DUP2 SSTORE DUP6 SWAP5 POP PUSH1 0x1 ADD PUSH2 0x179E JUMP JUMPDEST POP DUP1 PUSH2 0x1798 JUMP JUMPDEST ADD MLOAD SWAP1 POP DUP4 DUP1 PUSH2 0x9CE JUMP JUMPDEST PUSH1 0x2 DUP4 ADD PUSH1 0x0 MSTORE PUSH1 0x20 PUSH1 0x0 KECCAK256 SWAP1 PUSH1 0x0 SWAP5 PUSH1 0x1F NOT DUP5 AND SWAP6 JUMPDEST DUP7 DUP2 LT PUSH2 0x1828 JUMPI POP DUP4 PUSH1 0x1 SWAP6 SWAP7 LT PUSH2 0x180F JUMPI JUMPDEST POP POP POP DUP2 SHL ADD PUSH1 0x2 DUP3 ADD SSTORE PUSH2 0x9E6 JUMP JUMPDEST ADD MLOAD PUSH1 0x0 NOT PUSH1 0xF8 DUP5 PUSH1 0x3 SHL AND SHR NOT AND SWAP1 SSTORE DUP4 DUP1 DUP1 PUSH2 0x17FF JUMP JUMPDEST SWAP2 SWAP3 PUSH1 0x20 PUSH1 0x1 DUP2 SWAP3 DUP7 DUP6 ADD MLOAD DUP2 SSTORE ADD SWAP5 ADD SWAP3 ADD PUSH2 0x17EC JUMP JUMPDEST PUSH1 0x2 DUP4 ADD PUSH1 0x0 MSTORE PUSH1 0x20 PUSH1 0x0 KECCAK256 PUSH1 0x1F DUP4 ADD PUSH1 0x5 SHR DUP2 ADD PUSH1 0x20 DUP5 LT PUSH2 0x1880 JUMPI JUMPDEST PUSH1 0x1F DUP4 ADD PUSH1 0x5 SHR DUP3 ADD DUP2 LT PUSH2 0x1874 JUMPI POP POP PUSH2 0x9B5 JUMP JUMPDEST PUSH1 0x0 DUP2 SSTORE PUSH1 0x1 ADD PUSH2 0x185E JUMP JUMPDEST POP DUP1 PUSH2 0x185E JUMP JUMPDEST ADD MLOAD SWAP1 POP DUP4 DUP1 PUSH2 0x96E JUMP JUMPDEST PUSH1 0x1 DUP4 ADD PUSH1 0x0 MSTORE PUSH1 0x20 PUSH1 0x0 KECCAK256 SWAP1 PUSH1 0x0 SWAP5 PUSH1 0x1F NOT DUP5 AND SWAP6 JUMPDEST DUP7 DUP2 LT PUSH2 0x18E5 JUMPI POP DUP4 PUSH1 0x1 SWAP6 SWAP7 LT PUSH2 0x18CC JUMPI JUMPDEST POP POP POP DUP2 SHL ADD PUSH1 0x1 DUP3 ADD SSTORE PUSH2 0x986 JUMP JUMPDEST ADD MLOAD PUSH1 0x0 NOT PUSH1 0xF8 DUP5 PUSH1 0x3 SHL AND SHR NOT AND SWAP1 SSTORE DUP4 DUP1 DUP1 PUSH2 0x18BC JUMP JUMPDEST SWAP2 SWAP3 PUSH1 0x20 PUSH1 0x1 DUP2 SWAP3 DUP7 DUP6 ADD MLOAD DUP2 SSTORE ADD SWAP5 ADD SWAP3 ADD PUSH2 0x18A9 JUMP JUMPDEST PUSH1 0x1 DUP4 ADD PUSH1 0x0 MSTORE PUSH1 0x20 PUSH1 0x0 KECCAK256 PUSH1 0x1F DUP4 ADD PUSH1 0x5 SHR DUP2 ADD PUSH1 0x20 DUP5 LT PUSH2 0x193D JUMPI JUMPDEST PUSH1 0x1F DUP4 ADD PUSH1 0x5 SHR DUP3 ADD DUP2 LT PUSH2 0x1931 JUMPI POP POP PUSH2 0x955 JUMP JUMPDEST PUSH1 0x0 DUP2 SSTORE PUSH1 0x1 ADD PUSH2 0x191B JUMP JUMPDEST POP DUP1 PUSH2 0x191B JUMP JUMPDEST ADD MLOAD SWAP1 POP DUP4 DUP1 PUSH2 0x911 JUMP JUMPDEST DUP3 PUSH1 0x0 MSTORE PUSH1 0x20 PUSH1 0x0 KECCAK256 SWAP1 PUSH1 0x0 SWAP5 PUSH1 0x1F NOT DUP5 AND SWAP6 JUMPDEST DUP7 DUP2 LT PUSH2 0x199C JUMPI POP DUP4 PUSH1 0x1 SWAP6 SWAP7 LT PUSH2 0x1983 JUMPI JUMPDEST POP POP POP DUP2 SHL ADD DUP2 SSTORE PUSH2 0x926 JUMP JUMPDEST ADD MLOAD PUSH1 0x0 NOT PUSH1 0xF8 DUP5 PUSH1 0x3 SHL AND SHR NOT AND SWAP1 SSTORE DUP4 DUP1 DUP1 PUSH2 0x1976 JUMP JUMPDEST SWAP2 SWAP3 PUSH1 0x20 PUSH1 0x1 DUP2 SWAP3 DUP7 DUP6 ADD MLOAD DUP2 SSTORE ADD SWAP5 ADD SWAP3 ADD PUSH2 0x1963 JUMP JUMPDEST DUP3 PUSH1 0x0 MSTORE PUSH1 0x20 PUSH1 0x0 KECCAK256 PUSH1 0x1F DUP4 ADD PUSH1 0x5 SHR DUP2 ADD PUSH1 0x20 DUP5 LT PUSH2 0x19F1 JUMPI JUMPDEST PUSH1 0x1F DUP4 ADD PUSH1 0x5 SHR DUP3 ADD DUP2 LT PUSH2 0x19E5 JUMPI POP POP PUSH2 0x8F8 JUMP JUMPDEST PUSH1 0x0 DUP2 SSTORE PUSH1 0x1 ADD PUSH2 0x19CF JUMP JUMPDEST POP DUP1 PUSH2 0x19CF JUMP JUMPDEST PUSH1 0x40 MLOAD PUSH3 0x461BCD PUSH1 0xE5 SHL DUP2 MSTORE PUSH1 0x20 PUSH1 0x4 DUP3 ADD MSTORE PUSH1 0xB PUSH1 0x24 DUP3 ADD MSTORE PUSH11 0x139BDD081CDD195DD85C99 PUSH1 0xAA SHL PUSH1 0x44 DUP3 ADD MSTORE PUSH1 0x64 SWAP1 REVERT JUMPDEST CALLVALUE PUSH2 0x32F JUMPI PUSH1 0x20 CALLDATASIZE PUSH1 0x3 NOT ADD SLT PUSH2 0x32F JUMPI PUSH1 0x4 CALLDATALOAD PUSH1 0x2 SLOAD DUP2 LT ISZERO PUSH2 0x32F JUMPI PUSH2 0x1A54 PUSH1 0x20 SWAP2 PUSH2 0x1A6D JUMP JUMPDEST SWAP1 SLOAD PUSH1 0x40 MLOAD PUSH1 0x3 SWAP3 SWAP1 SWAP3 SHL SHR PUSH1 0x1 PUSH1 0x1 PUSH1 0xA0 SHL SUB AND DUP2 MSTORE RETURN JUMPDEST PUSH1 0x2 SLOAD DUP2 LT ISZERO PUSH2 0x1AA4 JUMPI PUSH1 0x2 PUSH1 0x0 MSTORE PUSH32 0x405787FA12A823E0F2B7631CC41B3BA8828B3321CA811111FA75CD3AA3BB5ACE ADD SWAP1 PUSH1 0x0 SWAP1 JUMP JUMPDEST PUSH4 0x4E487B71 PUSH1 0xE0 SHL PUSH1 0x0 MSTORE PUSH1 0x32 PUSH1 0x4 MSTORE PUSH1 0x24 PUSH1 0x0 REVERT JUMPDEST PUSH1 0x4 CALLDATALOAD SWAP1 PUSH1 0x1 PUSH1 0x1 PUSH1 0xA0 SHL SUB DUP3 AND DUP3 SUB PUSH2 0x32F JUMPI JUMP JUMPDEST SWAP2 DUP2 PUSH1 0x1F DUP5 ADD SLT ISZERO PUSH2 0x32F JUMPI DUP3 CALLDATALOAD SWAP2 PUSH1 0x1 PUSH1 0x1 PUSH1 0x40 SHL SUB DUP4 GT PUSH2 0x32F JUMPI PUSH1 0x20 DUP4 DUP2 DUP7 ADD SWAP6 ADD ADD GT PUSH2 0x32F JUMPI JUMP JUMPDEST SWAP1 PUSH1 0x1 DUP3 DUP2 SHR SWAP3 AND DUP1 ISZERO PUSH2 0x1B2D JUMPI JUMPDEST PUSH1 0x20 DUP4 LT EQ PUSH2 0x1B17 JUMPI JUMP JUMPDEST PUSH4 0x4E487B71 PUSH1 0xE0 SHL PUSH1 0x0 MSTORE PUSH1 0x22 PUSH1 0x4 MSTORE PUSH1 0x24 PUSH1 0x0 REVERT JUMPDEST SWAP2 PUSH1 0x7F AND SWAP2 PUSH2 0x1B0C JUMP JUMPDEST PUSH2 0x1A0 DUP2 ADD SWAP1 DUP2 LT PUSH1 0x1 PUSH1 0x1 PUSH1 0x40 SHL SUB DUP3 GT OR PUSH2 0xFA4 JUMPI PUSH1 0x40 MSTORE JUMP JUMPDEST SWAP1 PUSH1 0x1F DUP1 NOT SWAP2 ADD AND DUP2 ADD SWAP1 DUP2 LT PUSH1 0x1 PUSH1 0x1 PUSH1 0x40 SHL SUB DUP3 GT OR PUSH2 0xFA4 JUMPI PUSH1 0x40 MSTORE JUMP JUMPDEST SWAP1 PUSH1 0x40 MLOAD SWAP2 DUP3 PUSH1 0x0 DUP3 SLOAD SWAP3 PUSH2 0x1B88 DUP5 PUSH2 0x1AFD JUMP JUMPDEST SWAP1 DUP2 DUP5 MSTORE PUSH1 0x1 SWAP5 DUP6 DUP2 AND SWAP1 DUP2 PUSH1 0x0 EQ PUSH2 0x1BF7 JUMPI POP PUSH1 0x1 EQ PUSH2 0x1BB4 JUMPI JUMPDEST POP POP PUSH2 0x1BB2 SWAP3 POP SUB DUP4 PUSH2 0x1B53 JUMP JUMPDEST JUMP JUMPDEST SWAP1 SWAP4 SWAP2 POP PUSH1 0x0 MSTORE PUSH1 0x20 SWAP1 DUP2 PUSH1 0x0 KECCAK256 SWAP4 PUSH1 0x0 SWAP2 JUMPDEST DUP2 DUP4 LT PUSH2 0x1BDF JUMPI POP POP PUSH2 0x1BB2 SWAP4 POP DUP3 ADD ADD CODESIZE DUP1 PUSH2 0x1BA4 JUMP JUMPDEST DUP6 SLOAD DUP9 DUP5 ADD DUP6 ADD MSTORE SWAP5 DUP6 ADD SWAP5 DUP8 SWAP5 POP SWAP2 DUP4 ADD SWAP2 PUSH2 0x1BC7 JUMP JUMPDEST SWAP2 POP POP PUSH2 0x1BB2 SWAP5 POP PUSH1 0x20 SWAP3 POP PUSH1 0xFF NOT AND DUP3 DUP5 ADD MSTORE ISZERO ISZERO PUSH1 0x5 SHL DUP3 ADD ADD CODESIZE DUP1 PUSH2 0x1BA4 JUMP JUMPDEST SWAP2 SWAP1 DUP3 MLOAD SWAP3 DUP4 DUP3 MSTORE PUSH1 0x0 JUMPDEST DUP5 DUP2 LT PUSH2 0x1C46 JUMPI POP POP DUP3 PUSH1 0x0 PUSH1 0x20 DUP1 SWAP5 SWAP6 DUP5 ADD ADD MSTORE PUSH1 0x1F DUP1 NOT SWAP2 ADD AND ADD ADD SWAP1 JUMP JUMPDEST PUSH1 0x20 DUP2 DUP4 ADD DUP2 ADD MLOAD DUP5 DUP4 ADD DUP3 ADD MSTORE ADD PUSH2 0x1C25 JUMP JUMPDEST SWAP3 SWAP2 SWAP3 PUSH1 0x1 PUSH1 0x1 PUSH1 0x40 SHL SUB DUP3 GT PUSH2 0xFA4 JUMPI PUSH1 0x40 MLOAD SWAP2 PUSH2 0x1C83 PUSH1 0x1F DUP3 ADD PUSH1 0x1F NOT AND PUSH1 0x20 ADD DUP5 PUSH2 0x1B53 JUMP JUMPDEST DUP3 SWAP5 DUP2 DUP5 MSTORE DUP2 DUP4 ADD GT PUSH2 0x32F JUMPI DUP3 DUP2 PUSH1 0x20 SWAP4 DUP5 PUSH1 0x0 SWAP7 ADD CALLDATACOPY ADD ADD MSTORE JUMP JUMPDEST SWAP1 DUP1 PUSH1 0x20 SWAP4 SWAP3 DUP2 DUP5 MSTORE DUP5 DUP5 ADD CALLDATACOPY PUSH1 0x0 DUP3 DUP3 ADD DUP5 ADD MSTORE PUSH1 0x1F ADD PUSH1 0x1F NOT AND ADD ADD SWAP1 JUMP INVALID LOG2 PUSH5 0x6970667358 0x22 SLT KECCAK256 PUSH3 0x1037A6 STATICCALL PUSH2 0x40 0x1F 0x28 0xD2 DUP14 0xAE PUSH16 0x23DE229EC46C12987EBA6BB8D2B762AB GASLIMIT LOG0 PUSH5 0x736F6C6343 STOP ADDMOD EQ STOP CALLER "},"methodIdentifiers":{"companions(address)":"47854b87","getCompanion(address)":"ef652737","keys(uint256)":"0cb6aaf1","steward()":"637eea19","summonCompanion(address,string,string,string,string,string,string,string,string,string,string,string,string,string)":"405ea123","totalCompanions()":"ec39f18f"}}}}}