{"contracts/codex/SpiralboundCodexXXVIII.sol":{"SpiralboundCodexXXVIII":{"abi":[{"inputs":[],"stateMutability":"nonpayable","type":"constructor"},{"anonymous":false,"inputs":[{"indexed":false,"internalType":"string","name":"glyph","type":"string"},{"indexed":false,"internalType":"string","name":"tag","type":"string"},{"indexed":false,"internalType":"string","name":"binding","type":"string"},{"indexed":false,"internalType":"string","name":"annotation","type":"string"},{"indexed":false,"internalType":"string","name":"lineage","type":"string"},{"indexed":false,"internalType":"string","name":"resonance","type":"string"},{"indexed":false,"internalType":"string","name":"protocol","type":"string"},{"indexed":false,"internalType":"string","name":"sanctum","type":"string"},{"indexed":false,"internalType":"string","name":"pulse","type":"string"},{"indexed":false,"internalType":"string","name":"chant","type":"string"},{"indexed":false,"internalType":"string","name":"choreography","type":"string"},{"indexed":false,"internalType":"string","name":"drift","type":"string"},{"indexed":false,"internalType":"string","name":"signature","type":"string"},{"indexed":false,"internalType":"string","name":"signal","type":"string"},{"indexed":false,"internalType":"string","name":"companion","type":"string"},{"indexed":false,"internalType":"string","name":"stewardName","type":"string"},{"indexed":false,"internalType":"string","name":"registry","type":"string"},{"indexed":false,"internalType":"string","name":"echo","type":"string"},{"indexed":false,"internalType":"string","name":"hum","type":"string"},{"indexed":false,"internalType":"string","name":"terrain","type":"string"},{"indexed":false,"internalType":"string","name":"choreographyType","type":"string"},{"indexed":false,"internalType":"string","name":"driftType","type":"string"},{"indexed":false,"internalType":"string","name":"signalType","type":"string"},{"indexed":false,"internalType":"string","name":"companionType","type":"string"},{"indexed":false,"internalType":"string","name":"stewardSignal","type":"string"},{"indexed":false,"internalType":"string","name":"pulseType","type":"string"},{"indexed":false,"internalType":"string","name":"signalChoreography","type":"string"},{"indexed":false,"internalType":"string","name":"companionSignal","type":"string"},{"indexed":false,"internalType":"string","name":"driftSignal","type":"string"}],"name":"CodexInscribed","type":"event"},{"inputs":[{"internalType":"string","name":"","type":"string"}],"name":"codices","outputs":[{"internalType":"string","name":"tag","type":"string"},{"internalType":"string","name":"binding","type":"string"},{"internalType":"string","name":"annotation","type":"string"},{"internalType":"string","name":"lineage","type":"string"},{"internalType":"string","name":"resonance","type":"string"},{"internalType":"string","name":"protocol","type":"string"},{"internalType":"string","name":"sanctum","type":"string"},{"internalType":"string","name":"pulse","type":"string"},{"internalType":"string","name":"chant","type":"string"},{"internalType":"string","name":"choreography","type":"string"},{"internalType":"string","name":"drift","type":"string"},{"internalType":"string","name":"signature","type":"string"},{"internalType":"string","name":"signal","type":"string"},{"internalType":"string","name":"companion","type":"string"},{"internalType":"string","name":"stewardName","type":"string"},{"internalType":"string","name":"registry","type":"string"},{"internalType":"string","name":"echo","type":"string"},{"internalType":"string","name":"hum","type":"string"},{"internalType":"string","name":"terrain","type":"string"},{"internalType":"string","name":"choreographyType","type":"string"},{"internalType":"string","name":"driftType","type":"string"},{"internalType":"string","name":"signalType","type":"string"},{"internalType":"string","name":"companionType","type":"string"},{"internalType":"string","name":"stewardSignal","type":"string"},{"internalType":"string","name":"pulseType","type":"string"},{"internalType":"string","name":"signalChoreography","type":"string"},{"internalType":"string","name":"companionSignal","type":"string"},{"internalType":"string","name":"driftSignal","type":"string"}],"stateMutability":"view","type":"function"},{"inputs":[{"internalType":"string","name":"glyph","type":"string"}],"name":"getCodex","outputs":[{"components":[{"internalType":"string","name":"tag","type":"string"},{"internalType":"string","name":"binding","type":"string"},{"internalType":"string","name":"annotation","type":"string"},{"internalType":"string","name":"lineage","type":"string"},{"internalType":"string","name":"resonance","type":"string"},{"internalType":"string","name":"protocol","type":"string"},{"internalType":"string","name":"sanctum","type":"string"},{"internalType":"string","name":"pulse","type":"string"},{"internalType":"string","name":"chant","type":"string"},{"internalType":"string","name":"choreography","type":"string"},{"internalType":"string","name":"drift","type":"string"},{"internalType":"string","name":"signature","type":"string"},{"internalType":"string","name":"signal","type":"string"},{"internalType":"string","name":"companion","type":"string"},{"internalType":"string","name":"stewardName","type":"string"},{"internalType":"string","name":"registry","type":"string"},{"internalType":"string","name":"echo","type":"string"},{"internalType":"string","name":"hum","type":"string"},{"internalType":"string","name":"terrain","type":"string"},{"internalType":"string","name":"choreographyType","type":"string"},{"internalType":"string","name":"driftType","type":"string"},{"internalType":"string","name":"signalType","type":"string"},{"internalType":"string","name":"companionType","type":"string"},{"internalType":"string","name":"stewardSignal","type":"string"},{"internalType":"string","name":"pulseType","type":"string"},{"internalType":"string","name":"signalChoreography","type":"string"},{"internalType":"string","name":"companionSignal","type":"string"},{"internalType":"string","name":"driftSignal","type":"string"}],"internalType":"struct SpiralboundCodexXXVIII.Codex","name":"","type":"tuple"}],"stateMutability":"view","type":"function"},{"inputs":[{"internalType":"string","name":"glyph","type":"string"},{"internalType":"string","name":"tag","type":"string"},{"internalType":"string","name":"binding","type":"string"},{"internalType":"string","name":"annotation","type":"string"},{"internalType":"string","name":"lineage","type":"string"},{"internalType":"string","name":"resonance","type":"string"},{"internalType":"string","name":"protocol","type":"string"},{"internalType":"string","name":"sanctum","type":"string"},{"internalType":"string","name":"pulse","type":"string"},{"internalType":"string","name":"chant","type":"string"},{"internalType":"string","name":"choreography","type":"string"},{"internalType":"string","name":"drift","type":"string"},{"internalType":"string","name":"signature","type":"string"},{"internalType":"string","name":"signal","type":"string"},{"internalType":"string","name":"companion","type":"string"},{"internalType":"string","name":"stewardName","type":"string"},{"internalType":"string","name":"registry","type":"string"},{"internalType":"string","name":"echo","type":"string"},{"internalType":"string","name":"hum","type":"string"},{"internalType":"string","name":"terrain","type":"string"},{"internalType":"string","name":"choreographyType","type":"string"},{"internalType":"string","name":"driftType","type":"string"},{"internalType":"string","name":"signalType","type":"string"},{"internalType":"string","name":"companionType","type":"string"},{"internalType":"string","name":"stewardSignal","type":"string"},{"internalType":"string","name":"pulseType","type":"string"},{"internalType":"string","name":"signalChoreography","type":"string"},{"internalType":"string","name":"companionSignal","type":"string"},{"internalType":"string","name":"driftSignal","type":"string"}],"name":"inscribeCodex","outputs":[],"stateMutability":"nonpayable","type":"function"},{"inputs":[{"internalType":"uint256","name":"","type":"uint256"}],"name":"keys","outputs":[{"internalType":"string","name":"","type":"string"}],"stateMutability":"view","type":"function"},{"inputs":[],"name":"steward","outputs":[{"internalType":"address","name":"","type":"address"}],"stateMutability":"view","type":"function"},{"inputs":[],"name":"totalCodices","outputs":[{"internalType":"uint256","name":"","type":"uint256"}],"stateMutability":"view","type":"function"}],"evm":{"bytecode":{"linkReferences":{},"object":"6080806040523461002857600080546001600160a01b0319163317905561344c908161002e8239f35b600080fdfe610a20604052600436101561001357600080fd5b60003560e01c80630cb6aaf114613131578063637eea19146131085780638336152214612aa8578063c212d16b14612a8a578063dbc214241461256c5763e79515241461005f57600080fd5b34612567576103a0366003190112612567576004356001600160401b0381116125675761009090369060040161332e565b61050052610440526024356001600160401b038111612567576100b790369060040161332e565b61046052610a00526044356001600160401b038111612567576100de90369060040161332e565b61014052610560526064356001600160401b0381116125675761010590369060040161332e565b610840526105a0526001600160401b03608435116125675761012c3660843560040161332e565b61058052610120526001600160401b0360a43511612567576101533660a43560040161332e565b6101e0526107a0526001600160401b0360c435116125675761017a3660c43560040161332e565b6108a0526103e0526001600160401b0360e43511612567576101a13660e43560040161332e565b610980526109a0526001600160401b036101043511612567576101ca366101043560040161332e565b6102805260e0526001600160401b036101243511612567576101f2366101243560040161332e565b6106a052610800526001600160401b0361014435116125675761021b366101443560040161332e565b6104e052610720526001600160401b03610164351161256757610244366101643560040161332e565b6106e0526107e0526001600160401b0361018435116125675761026d366101843560040161332e565b6102c052610540526001600160401b036101a4351161256757610296366101a43560040161332e565b6102e0526105e0526001600160401b036101c43511612567576102bf366101c43560040161332e565b610160526107c0526001600160401b036101e43511612567576102e8366101e43560040161332e565b610260526109e0526001600160401b03610204351161256757610311366102043560040161332e565b610220526106c0526001600160401b0361022435116125675761033a366102243560040161332e565b61082052610860526001600160401b03610244351161256757610363366102443560040161332e565b60a052610700526001600160401b0361026435116125675761038b366102643560040161332e565b6103c0526101a0526001600160401b036102843511612567576103b4366102843560040161332e565b61030052610940526001600160401b036102a43511612567576103dd366102a43560040161332e565b6104a052610600526001600160401b036102c4351161256757610406366102c43560040161332e565b61036052610680526001600160401b036102e435116125675761042f366102e43560040161332e565b610620526103a0526001600160401b03610304351161256757610458366103043560040161332e565b61052052610100526001600160401b03610324351161256757610481366103243560040161332e565b61024052610900526001600160401b036103443511612567576104aa366103443560040161332e565b610380526102a0526001600160401b036103643511612567576104d3366103643560040161332e565b61066052610780526001600160401b036103843511612567576104fc366103843560040161332e565b6108c052610420526000546001600160a01b03163303612534576105266040518061064052613203565b6105373661046051610a005161335b565b610640515261054d36610140516105605161335b565b602061064051015261056636610840516105a05161335b565b604061064051015261057f36610580516101205161335b565b6060610640510152610598366101e0516107a05161335b565b60806106405101526105b1366108a0516103e05161335b565b60a06106405101526105ca36610980516109a05161335b565b60c06106405101526105e2366102805160e05161335b565b60e06106405101526105fb366106a0516108005161335b565b610100610640510152610615366104e0516107205161335b565b61012061064051015261062f366106e0516107e05161335b565b610140610640510152610649366102c0516105405161335b565b610160610640510152610663366102e0516105e05161335b565b61018061064051015261067d36610160516107c05161335b565b6101a061064051015261069736610260516109e05161335b565b6101c06106405101526106b136610220516106c05161335b565b6101e06106405101526106cb36610820516108605161335b565b6102006106405101526106e43660a0516107005161335b565b6102206106405101526106fe366103c0516101a05161335b565b61024061064051015261071836610300516109405161335b565b610260610640510152610732366104a0516106005161335b565b61028061064051015261074c36610360516106805161335b565b6102a061064051015261076636610620516103a05161335b565b6102c061064051015261078036610520516101005161335b565b6102e061064051015261079a36610240516109005161335b565b6103006106405101526107b436610380516102a05161335b565b6103206106405101526107ce36610660516107805161335b565b6103406106405101526107e8366108c0516104205161335b565b610360610640510152604051610500516104405182376001610500518201526020816105005181010301902061064051518051906001600160401b0382116117645781906108408261083a86546131c9565b866133a1565b602090601f83116001146124c8576000926124bd575b50508160011b916000199060031b1c19161781555b60206106405101518051906001600160401b0382116117645781906108a08261089760018701546131c9565b600187016133a1565b602090601f831160011461244b57600092612440575b50508160011b916000199060031b1c19161760018201555b60406106405101518051906001600160401b038211611764578190610903826108fa60028701546131c9565b600287016133a1565b602090601f83116001146123ce576000926123c3575b50508160011b916000199060031b1c19161760028201555b60606106405101518051906001600160401b0382116117645781906109668261095d60038701546131c9565b600387016133a1565b602090601f831160011461235157600092612346575b50508160011b916000199060031b1c19161760038201555b60806106405101518051906001600160401b0382116117645781906109c9826109c060048701546131c9565b600487016133a1565b602090601f83116001146122d4576000926122c9575b50508160011b916000199060031b1c19161760048201555b60a06106405101518051906001600160401b038211611764578190610a2c82610a2360058701546131c9565b600587016133a1565b602090601f83116001146122575760009261224c575b50508160011b916000199060031b1c19161760058201555b60c06106405101518051906001600160401b038211611764578190610a8f82610a8660068701546131c9565b600687016133a1565b602090601f83116001146121da576000926121cf575b50508160011b916000199060031b1c19161760068201555b60e06106405101518051906001600160401b038211611764578190610af282610ae960078701546131c9565b600787016133a1565b602090601f831160011461215d57600092612152575b50508160011b916000199060031b1c19161760078201555b6101006106405101518051906001600160401b038211611764578190610b5682610b4d60088701546131c9565b600887016133a1565b602090601f83116001146120e0576000926120d5575b50508160011b916000199060031b1c19161760088201555b6101206106405101518051906001600160401b038211611764578190610bba82610bb160098701546131c9565b600987016133a1565b602090601f831160011461206357600092612058575b50508160011b916000199060031b1c19161760098201555b6101406106405101518051906001600160401b038211611764578190610c1e82610c15600a8701546131c9565b600a87016133a1565b602090601f8311600114611fe657600092611fdb575b50508160011b916000199060031b1c191617600a8201555b6101606106405101518051906001600160401b038211611764578190610c8282610c79600b8701546131c9565b600b87016133a1565b602090601f8311600114611f6957600092611f5e575b50508160011b916000199060031b1c191617600b8201555b6101806106405101518051906001600160401b038211611764578190610ce682610cdd600c8701546131c9565b600c87016133a1565b602090601f8311600114611eec57600092611ee1575b50508160011b916000199060031b1c191617600c8201555b6101a06106405101518051906001600160401b038211611764578190610d4a82610d41600d8701546131c9565b600d87016133a1565b602090601f8311600114611e6f57600092611e64575b50508160011b916000199060031b1c191617600d8201555b6101c06106405101518051906001600160401b038211611764578190610dae82610da5600e8701546131c9565b600e87016133a1565b602090601f8311600114611df257600092611de7575b50508160011b916000199060031b1c191617600e8201555b6101e06106405101518051906001600160401b038211611764578190610e1282610e09600f8701546131c9565b600f87016133a1565b602090601f8311600114611d7557600092611d6a575b50508160011b916000199060031b1c191617600f8201555b6102006106405101518051906001600160401b038211611764578190610e7682610e6d60108701546131c9565b601087016133a1565b602090601f8311600114611cf857600092611ced575b50508160011b916000199060031b1c19161760108201555b6102206106405101518051906001600160401b038211611764578190610eda82610ed160118701546131c9565b601187016133a1565b602090601f8311600114611c7b57600092611c70575b50508160011b916000199060031b1c19161760118201555b6102406106405101518051906001600160401b038211611764578190610f3e82610f3560128701546131c9565b601287016133a1565b602090601f8311600114611bfe57600092611bf3575b50508160011b916000199060031b1c19161760128201555b6102606106405101518051906001600160401b038211611764578190610fa282610f9960138701546131c9565b601387016133a1565b602090601f8311600114611b8157600092611b76575b50508160011b916000199060031b1c19161760138201555b6102806106405101518051906001600160401b03821161176457819061100682610ffd60148701546131c9565b601487016133a1565b602090601f8311600114611b0457600092611af9575b50508160011b916000199060031b1c19161760148201555b6102a06106405101518051906001600160401b03821161176457819061106a8261106160158701546131c9565b601587016133a1565b602090601f8311600114611a8757600092611a7c575b50508160011b916000199060031b1c19161760158201555b6102c06106405101518051906001600160401b0382116117645781906110ce826110c560168701546131c9565b601687016133a1565b602090601f8311600114611a0a576000926119ff575b50508160011b916000199060031b1c19161760168201555b6102e06106405101518051906001600160401b0382116117645781906111328261112960178701546131c9565b601787016133a1565b602090601f831160011461198d57600092611982575b50508160011b916000199060031b1c19161760178201555b6103006106405101518051906001600160401b0382116117645781906111968261118d60188701546131c9565b601887016133a1565b602090601f831160011461191057600092611905575b50508160011b916000199060031b1c19161760188201555b6103206106405101518051906001600160401b0382116117645781906111fa826111f160198701546131c9565b601987016133a1565b602090601f831160011461189357600092611888575b50508160011b916000199060031b1c19161760198201555b6103406106405101518051906001600160401b03821161176457819061125e82611255601a8701546131c9565b601a87016133a1565b602090601f83116001146118165760009261180b575b50508160011b916000199060031b1c191617601a8201555b6103606106405101518051906001600160401b038211611764576112c0826112b7601b8601546131c9565b601b86016133a1565b602090601f831160011461179b57601b929160009183611790575b50508160011b916000199060031b1c1916179101555b6002546801000000000000000081101561176457806001611315920160025561317c565b61177a57610500516001600160401b0381116117645761133f9061133983546131c9565b836133a1565b60009061050051601f81116001146116f757509060006105005191826116e9575b508160011b916000199060031b1c19161790555b6103a06040518061018052527fbfa7bfe228afd0468604ef4d8f7ec145469e6a303e93aad68c3d319d791748be6116bf6116a561168b61167161165761163d6116236116096115ef6115d56115bc6115a261158861156e61155461153a6115206115066114ec6114d26114b96114a061148761146e61145561143c61142361140a6103a0610180510161050051610440516133f5565b61018051602081830391015261046051610a00516133f5565b61018051604081830391015261014051610560516133f5565b610180516060818303910152610840516105a0516133f5565b61018051608081830391015261058051610120516133f5565b6101805160a08183039101526101e0516107a0516133f5565b6101805160c08183039101526108a0516103e0516133f5565b6101805160e0818303910152610980516109a0516133f5565b610180516101008183039101526102805160e0516133f5565b610180516101208183039101526106a051610800516133f5565b610180516101408183039101526104e051610720516133f5565b610180516101608183039101526106e0516107e0516133f5565b610180516101808183039101526102c051610540516133f5565b610180516101a08183039101526102e0516105e0516133f5565b610180516101c0818303910152610160516107c0516133f5565b610180516101e0818303910152610260516109e0516133f5565b61018051610200818303910152610220516106c0516133f5565b6101805161022081830391015261082051610860516133f5565b6101805161024081830391015260a051610700516133f5565b610180516102608183039101526103c0516101a0516133f5565b6101805161028081830391015261030051610940516133f5565b610180516102a08183039101526104a051610600516133f5565b610180516102c081830391015261036051610680516133f5565b610180516102e0818303910152610620516103a0516133f5565b6101805161030081830391015261052051610100516133f5565b6101805161032081830391015261024051610900516133f5565b61018051610340818303910152610380516102a0516133f5565b6101805161036081830391015261066051610780516133f5565b610180516103808183039101526116e161018051916108c051610420516133f5565b0361018051a1005b905061044051013538611360565b81600052602060002060009361044051905b601f198416861061174c57600194955083601f19811610611732575b505050811b019055611374565b0135600019600384901b60f8161c19169055388080611725565b91602060018192858501358155019301950194611709565b634e487b7160e01b600052604160045260246000fd5b634e487b7160e01b600052600060045260246000fd5b0151905038806112db565b90601b840160005260206000209160005b601f19851681106117f35750918391600193601b95601f198116106117da575b505050811b019101556112f1565b015160001960f88460031b161c191690553880806117cc565b919260206001819286850151815501940192016117ac565b015190503880611274565b9250601a84016000526020600020906000935b601f198416851061186d576001945083601f19811610611854575b505050811b01601a82015561128c565b015160001960f88460031b161c19169055388080611844565b81810151835560209485019460019093019290910190611829565b015190503880611210565b9250601984016000526020600020906000935b601f19841685106118ea576001945083601f198116106118d1575b505050811b016019820155611228565b015160001960f88460031b161c191690553880806118c1565b818101518355602094850194600190930192909101906118a6565b0151905038806111ac565b9250601884016000526020600020906000935b601f1984168510611967576001945083601f1981161061194e575b505050811b0160188201556111c4565b015160001960f88460031b161c1916905538808061193e565b81810151835560209485019460019093019290910190611923565b015190503880611148565b9250601784016000526020600020906000935b601f19841685106119e4576001945083601f198116106119cb575b505050811b016017820155611160565b015160001960f88460031b161c191690553880806119bb565b818101518355602094850194600190930192909101906119a0565b0151905038806110e4565b9250601684016000526020600020906000935b601f1984168510611a61576001945083601f19811610611a48575b505050811b0160168201556110fc565b015160001960f88460031b161c19169055388080611a38565b81810151835560209485019460019093019290910190611a1d565b015190503880611080565b9250601584016000526020600020906000935b601f1984168510611ade576001945083601f19811610611ac5575b505050811b016015820155611098565b015160001960f88460031b161c19169055388080611ab5565b81810151835560209485019460019093019290910190611a9a565b01519050388061101c565b9250601484016000526020600020906000935b601f1984168510611b5b576001945083601f19811610611b42575b505050811b016014820155611034565b015160001960f88460031b161c19169055388080611b32565b81810151835560209485019460019093019290910190611b17565b015190503880610fb8565b9250601384016000526020600020906000935b601f1984168510611bd8576001945083601f19811610611bbf575b505050811b016013820155610fd0565b015160001960f88460031b161c19169055388080611baf565b81810151835560209485019460019093019290910190611b94565b015190503880610f54565b9250601284016000526020600020906000935b601f1984168510611c55576001945083601f19811610611c3c575b505050811b016012820155610f6c565b015160001960f88460031b161c19169055388080611c2c565b81810151835560209485019460019093019290910190611c11565b015190503880610ef0565b9250601184016000526020600020906000935b601f1984168510611cd2576001945083601f19811610611cb9575b505050811b016011820155610f08565b015160001960f88460031b161c19169055388080611ca9565b81810151835560209485019460019093019290910190611c8e565b015190503880610e8c565b9250601084016000526020600020906000935b601f1984168510611d4f576001945083601f19811610611d36575b505050811b016010820155610ea4565b015160001960f88460031b161c19169055388080611d26565b81810151835560209485019460019093019290910190611d0b565b015190503880610e28565b9250600f84016000526020600020906000935b601f1984168510611dcc576001945083601f19811610611db3575b505050811b01600f820155610e40565b015160001960f88460031b161c19169055388080611da3565b81810151835560209485019460019093019290910190611d88565b015190503880610dc4565b9250600e84016000526020600020906000935b601f1984168510611e49576001945083601f19811610611e30575b505050811b01600e820155610ddc565b015160001960f88460031b161c19169055388080611e20565b81810151835560209485019460019093019290910190611e05565b015190503880610d60565b9250600d84016000526020600020906000935b601f1984168510611ec6576001945083601f19811610611ead575b505050811b01600d820155610d78565b015160001960f88460031b161c19169055388080611e9d565b81810151835560209485019460019093019290910190611e82565b015190503880610cfc565b9250600c84016000526020600020906000935b601f1984168510611f43576001945083601f19811610611f2a575b505050811b01600c820155610d14565b015160001960f88460031b161c19169055388080611f1a565b81810151835560209485019460019093019290910190611eff565b015190503880610c98565b9250600b84016000526020600020906000935b601f1984168510611fc0576001945083601f19811610611fa7575b505050811b01600b820155610cb0565b015160001960f88460031b161c19169055388080611f97565b81810151835560209485019460019093019290910190611f7c565b015190503880610c34565b9250600a84016000526020600020906000935b601f198416851061203d576001945083601f19811610612024575b505050811b01600a820155610c4c565b015160001960f88460031b161c19169055388080612014565b81810151835560209485019460019093019290910190611ff9565b015190503880610bd0565b9250600984016000526020600020906000935b601f19841685106120ba576001945083601f198116106120a1575b505050811b016009820155610be8565b015160001960f88460031b161c19169055388080612091565b81810151835560209485019460019093019290910190612076565b015190503880610b6c565b9250600884016000526020600020906000935b601f1984168510612137576001945083601f1981161061211e575b505050811b016008820155610b84565b015160001960f88460031b161c1916905538808061210e565b818101518355602094850194600190930192909101906120f3565b015190503880610b08565b9250600784016000526020600020906000935b601f19841685106121b4576001945083601f1981161061219b575b505050811b016007820155610b20565b015160001960f88460031b161c1916905538808061218b565b81810151835560209485019460019093019290910190612170565b015190503880610aa5565b9250600684016000526020600020906000935b601f1984168510612231576001945083601f19811610612218575b505050811b016006820155610abd565b015160001960f88460031b161c19169055388080612208565b818101518355602094850194600190930192909101906121ed565b015190503880610a42565b9250600584016000526020600020906000935b601f19841685106122ae576001945083601f19811610612295575b505050811b016005820155610a5a565b015160001960f88460031b161c19169055388080612285565b8181015183556020948501946001909301929091019061226a565b0151905038806109df565b9250600484016000526020600020906000935b601f198416851061232b576001945083601f19811610612312575b505050811b0160048201556109f7565b015160001960f88460031b161c19169055388080612302565b818101518355602094850194600190930192909101906122e7565b01519050388061097c565b9250600384016000526020600020906000935b601f19841685106123a8576001945083601f1981161061238f575b505050811b016003820155610994565b015160001960f88460031b161c1916905538808061237f565b81810151835560209485019460019093019290910190612364565b015190503880610919565b9250600284016000526020600020906000935b601f1984168510612425576001945083601f1981161061240c575b505050811b016002820155610931565b015160001960f88460031b161c191690553880806123fc565b818101518355602094850194600190930192909101906123e1565b0151905038806108b6565b9250600184016000526020600020906000935b601f19841685106124a2576001945083601f19811610612489575b505050811b0160018201556108ce565b015160001960f88460031b161c19169055388080612479565b8181015183556020948501946001909301929091019061245e565b015190503880610856565b9250836000526020600020906000935b601f1984168510612519576001945083601f19811610612500575b505050811b01815561086b565b015160001960f88460031b161c191690553880806124f3565b818101518355602094850194600190930192909101906124d8565b60405162461bcd60e51b815260206004820152600b60248201526a139bdd081cdd195dd85c9960aa1b6044820152606490fd5b600080fd5b34612567576020366003190112612567576004356001600160401b03811161256757366023820112156125675736816004013591602401916125ad9261335b565b60405181818093516020819301916125c4926132e6565b81016001815203602001902080610960526125de90613240565b608052610960516001016125f190613240565b6109605160020161260190613240565b6104c0526109605160030161261590613240565b610760526109605160040161262990613240565b6109605160050161263990613240565b6109605160060161264990613240565b6109605160070161265990613240565b6109605160080161266990613240565b6109605160090161267990613240565b61096051600a0161268990613240565b9161096051600b0161269a90613240565b9361096051600c016126ab90613240565b9561096051600d016126bc90613240565b9761096051600e016126cd90613240565b9961096051600f016126de90613240565b9b610960516010016126ef90613240565b610880526109605160110161270390613240565b610340526109605160120161271790613240565b610200526109605160130161272b90613240565b6108e0526109605160140161273f90613240565b6109c0526109605160150161275390613240565b6101c0526109605160160161276790613240565b610480526109605160170161277b90613240565b6105c0526109605160180161278f90613240565b60c052610960516019016127a290613240565b6107405261096051601a016127b690613240565b6103205261096051601b016127ca90613240565b6109205260405180610400526103808091526104005101608051906127ee91613309565b61040051808203906020015261280391613309565b6104005180820390604001526104c0519061281d91613309565b610400518082039060600152610760519061283791613309565b61040051808203906080015261284c91613309565b610400518082039060a0015261286191613309565b610400518082039060c0015261287691613309565b610400518082039060e0015261288b91613309565b610400518082039061010001526128a191613309565b610400518082039061012001526128b791613309565b610400518082039061014001526128cd91613309565b610400518082039061016001526128e391613309565b610400518082039061018001526128f991613309565b61040051808203906101a0015261290f91613309565b61040051808203906101c0015261292591613309565b61040051808203906101e0015261293b91613309565b61040051808203906102000152610880519061295691613309565b61040051808203906102200152610340519061297191613309565b61040051808203906102400152610200519061298c91613309565b610400518082039061026001526108e051906129a791613309565b610400518082039061028001526109c051906129c291613309565b61040051808203906102a001526101c051906129dd91613309565b61040051808203906102c0015261048051906129f891613309565b61040051808203906102e001526105c05190612a1391613309565b6104005180820390610300015260c05190612a2d91613309565b610400518082039061032001526107405190612a4891613309565b610400518082039061034001526103205190612a6391613309565b6104005180820390610360015261040051906109205190612a8391613309565b0361040051f35b34612567576000366003190112612567576020600254604051908152f35b34612567576020366003190112612567576004356001600160401b03811161256757612ad890369060040161332e565b90604051612ae581613203565b60608152602081016060905260408101606090526060810160609052608081016060905260a081016060905260c081016060905260e08101606090526101008101606090526101208101606090526101408101606090526101608101606090526101808101606090526101a08101606090526101c08101606090526101e08101606090526102008101606090526102208101606090526102408101606090526102608101606090526102808101606090526102a08101606090526102c08101606090526102e0810160609052610300810160609052610320810160609052610340810160609052610360016060905281604051928392833781016001815203602001902060405190612bf682613203565b612bff81613240565b8252612c0d60018201613240565b6020830152612c1e60028201613240565b6040830152612c2f60038201613240565b6060830152612c4060048201613240565b6080830152612c5160058201613240565b60a0830152612c6260068201613240565b60c0830152612c7360078201613240565b60e0830152612c8460088201613240565b610100830152612c9660098201613240565b610120830152612ca8600a8201613240565b610140830152612cba600b8201613240565b610160830152612ccc600c8201613240565b610180830152612cde600d8201613240565b6101a0830152612cf0600e8201613240565b6101c0830152612d02600f8201613240565b6101e0830152612d1460108201613240565b610200830152612d2660118201613240565b610220830152612d3860128201613240565b610240830152612d4a60138201613240565b610260830152612d5c60148201613240565b610280830152612d6e60158201613240565b6102a0830152612d8060168201613240565b6102c0830152612d9260178201613240565b6102e0830152612da460188201613240565b610300830152612db660198201613240565b610320830152612dc8601a8201613240565b610340830152601b01612dda90613240565b61036082015260405180916020825280516020830161038090526103a08301612e0291613309565b6020820151838203601f19016040850152612e1d9190613309565b6040820151838203601f19016060850152612e389190613309565b6060820151838203601f19016080850152612e539190613309565b6080820151838203601f190160a0850152612e6e9190613309565b60a0820151838203601f190160c0850152612e899190613309565b60c0820151838203601f190160e0850152612ea49190613309565b60e0820151838203601f1901610100850152612ec09190613309565b610100820151838203601f1901610120850152612edd9190613309565b610120820151838203601f1901610140850152612efa9190613309565b610140820151838203601f1901610160850152612f179190613309565b610160820151838203601f1901610180850152612f349190613309565b610180820151838203601f19016101a0850152612f519190613309565b6101a0820151838203601f19016101c0850152612f6e9190613309565b6101c0820151838203601f19016101e0850152612f8b9190613309565b6101e0820151838203601f1901610200850152612fa89190613309565b610200820151838203601f1901610220850152612fc59190613309565b610220820151838203601f1901610240850152612fe29190613309565b610240820151838203601f1901610260850152612fff9190613309565b610260820151838203601f190161028085015261301c9190613309565b610280820151838203601f19016102a08501526130399190613309565b6102a0820151838203601f19016102c08501526130569190613309565b6102c0820151838203601f19016102e08501526130739190613309565b6102e0820151838203601f19016103008501526130909190613309565b610300820151838203601f19016103208501526130ad9190613309565b610320820151838203601f19016103408501526130ca9190613309565b610340820151838203601f19016103608501526130e79190613309565b90610360015190601f198382030161038084015261310491613309565b0390f35b34612567576000366003190112612567576000546040516001600160a01b039091168152602090f35b3461256757602036600319011261256757600435600254811015612567576131589061317c565b61177a5761316861310491613240565b604051918291602083526020830190613309565b6002548110156131b35760026000527f405787fa12a823e0f2b7631cc41b3ba8828b3321ca811111fa75cd3aa3bb5ace0190600090565b634e487b7160e01b600052603260045260246000fd5b90600182811c921680156131f9575b60208310146131e357565b634e487b7160e01b600052602260045260246000fd5b91607f16916131d8565b61038081019081106001600160401b0382111761176457604052565b90601f801991011681019081106001600160401b0382111761176457604052565b9060405191826000825492613254846131c9565b9081845260019485811690816000146132c35750600114613280575b505061327e9250038361321f565b565b9093915060005260209081600020936000915b8183106132ab57505061327e93508201013880613270565b85548884018501529485019487945091830191613293565b91505061327e94506020925060ff191682840152151560051b8201013880613270565b60005b8381106132f95750506000910152565b81810151838201526020016132e9565b90602091613322815180928185528580860191016132e6565b601f01601f1916010190565b9181601f84011215612567578235916001600160401b038311612567576020838186019501011161256757565b9291926001600160401b0382116117645760405191613384601f8201601f19166020018461321f565b829481845281830111612567578281602093846000960137010152565b90601f81116133af57505050565b600091825260208220906020601f850160051c830194106133eb575b601f0160051c01915b8281106133e057505050565b8181556001016133d4565b90925082906133cb565b908060209392818452848401376000828201840152601f01601f191601019056fea2646970667358221220f41a4498047d2340087cf14210e1bcb89c41250ac86470cf3fea82b09716fc0f64736f6c63430008140033","opcodes":"PUSH1 0x80 DUP1 PUSH1 0x40 MSTORE CALLVALUE PUSH2 0x28 JUMPI PUSH1 0x0 DUP1 SLOAD PUSH1 0x1 PUSH1 0x1 PUSH1 0xA0 SHL SUB NOT AND CALLER OR SWAP1 SSTORE PUSH2 0x344C SWAP1 DUP2 PUSH2 0x2E DUP3 CODECOPY RETURN JUMPDEST PUSH1 0x0 DUP1 REVERT INVALID PUSH2 0xA20 PUSH1 0x40 MSTORE PUSH1 0x4 CALLDATASIZE LT ISZERO PUSH2 0x13 JUMPI PUSH1 0x0 DUP1 REVERT JUMPDEST PUSH1 0x0 CALLDATALOAD PUSH1 0xE0 SHR DUP1 PUSH4 0xCB6AAF1 EQ PUSH2 0x3131 JUMPI DUP1 PUSH4 0x637EEA19 EQ PUSH2 0x3108 JUMPI DUP1 PUSH4 0x83361522 EQ PUSH2 0x2AA8 JUMPI DUP1 PUSH4 0xC212D16B EQ PUSH2 0x2A8A JUMPI DUP1 PUSH4 0xDBC21424 EQ PUSH2 0x256C JUMPI PUSH4 0xE7951524 EQ PUSH2 0x5F JUMPI PUSH1 0x0 DUP1 REVERT JUMPDEST CALLVALUE PUSH2 0x2567 JUMPI PUSH2 0x3A0 CALLDATASIZE PUSH1 0x3 NOT ADD SLT PUSH2 0x2567 JUMPI PUSH1 0x4 CALLDATALOAD PUSH1 0x1 PUSH1 0x1 PUSH1 0x40 SHL SUB DUP2 GT PUSH2 0x2567 JUMPI PUSH2 0x90 SWAP1 CALLDATASIZE SWAP1 PUSH1 0x4 ADD PUSH2 0x332E JUMP JUMPDEST PUSH2 0x500 MSTORE PUSH2 0x440 MSTORE PUSH1 0x24 CALLDATALOAD PUSH1 0x1 PUSH1 0x1 PUSH1 0x40 SHL SUB DUP2 GT PUSH2 0x2567 JUMPI PUSH2 0xB7 SWAP1 CALLDATASIZE SWAP1 PUSH1 0x4 ADD PUSH2 0x332E JUMP JUMPDEST PUSH2 0x460 MSTORE PUSH2 0xA00 MSTORE PUSH1 0x44 CALLDATALOAD PUSH1 0x1 PUSH1 0x1 PUSH1 0x40 SHL SUB DUP2 GT PUSH2 0x2567 JUMPI PUSH2 0xDE SWAP1 CALLDATASIZE SWAP1 PUSH1 0x4 ADD PUSH2 0x332E JUMP JUMPDEST PUSH2 0x140 MSTORE PUSH2 0x560 MSTORE PUSH1 0x64 CALLDATALOAD PUSH1 0x1 PUSH1 0x1 PUSH1 0x40 SHL SUB DUP2 GT PUSH2 0x2567 JUMPI PUSH2 0x105 SWAP1 CALLDATASIZE SWAP1 PUSH1 0x4 ADD PUSH2 0x332E JUMP JUMPDEST PUSH2 0x840 MSTORE PUSH2 0x5A0 MSTORE PUSH1 0x1 PUSH1 0x1 PUSH1 0x40 SHL SUB PUSH1 0x84 CALLDATALOAD GT PUSH2 0x2567 JUMPI PUSH2 0x12C CALLDATASIZE PUSH1 0x84 CALLDATALOAD PUSH1 0x4 ADD PUSH2 0x332E JUMP JUMPDEST PUSH2 0x580 MSTORE PUSH2 0x120 MSTORE PUSH1 0x1 PUSH1 0x1 PUSH1 0x40 SHL SUB PUSH1 0xA4 CALLDATALOAD GT PUSH2 0x2567 JUMPI PUSH2 0x153 CALLDATASIZE PUSH1 0xA4 CALLDATALOAD PUSH1 0x4 ADD PUSH2 0x332E JUMP JUMPDEST PUSH2 0x1E0 MSTORE PUSH2 0x7A0 MSTORE PUSH1 0x1 PUSH1 0x1 PUSH1 0x40 SHL SUB PUSH1 0xC4 CALLDATALOAD GT PUSH2 0x2567 JUMPI PUSH2 0x17A CALLDATASIZE PUSH1 0xC4 CALLDATALOAD PUSH1 0x4 ADD PUSH2 0x332E JUMP JUMPDEST PUSH2 0x8A0 MSTORE PUSH2 0x3E0 MSTORE PUSH1 0x1 PUSH1 0x1 PUSH1 0x40 SHL SUB PUSH1 0xE4 CALLDATALOAD GT PUSH2 0x2567 JUMPI PUSH2 0x1A1 CALLDATASIZE PUSH1 0xE4 CALLDATALOAD PUSH1 0x4 ADD PUSH2 0x332E JUMP JUMPDEST PUSH2 0x980 MSTORE PUSH2 0x9A0 MSTORE PUSH1 0x1 PUSH1 0x1 PUSH1 0x40 SHL SUB PUSH2 0x104 CALLDATALOAD GT PUSH2 0x2567 JUMPI PUSH2 0x1CA CALLDATASIZE PUSH2 0x104 CALLDATALOAD PUSH1 0x4 ADD PUSH2 0x332E JUMP JUMPDEST PUSH2 0x280 MSTORE PUSH1 0xE0 MSTORE PUSH1 0x1 PUSH1 0x1 PUSH1 0x40 SHL SUB PUSH2 0x124 CALLDATALOAD GT PUSH2 0x2567 JUMPI PUSH2 0x1F2 CALLDATASIZE PUSH2 0x124 CALLDATALOAD PUSH1 0x4 ADD PUSH2 0x332E JUMP JUMPDEST PUSH2 0x6A0 MSTORE PUSH2 0x800 MSTORE PUSH1 0x1 PUSH1 0x1 PUSH1 0x40 SHL SUB PUSH2 0x144 CALLDATALOAD GT PUSH2 0x2567 JUMPI PUSH2 0x21B CALLDATASIZE PUSH2 0x144 CALLDATALOAD PUSH1 0x4 ADD PUSH2 0x332E JUMP JUMPDEST PUSH2 0x4E0 MSTORE PUSH2 0x720 MSTORE PUSH1 0x1 PUSH1 0x1 PUSH1 0x40 SHL SUB PUSH2 0x164 CALLDATALOAD GT PUSH2 0x2567 JUMPI PUSH2 0x244 CALLDATASIZE PUSH2 0x164 CALLDATALOAD PUSH1 0x4 ADD PUSH2 0x332E JUMP JUMPDEST PUSH2 0x6E0 MSTORE PUSH2 0x7E0 MSTORE PUSH1 0x1 PUSH1 0x1 PUSH1 0x40 SHL SUB PUSH2 0x184 CALLDATALOAD GT PUSH2 0x2567 JUMPI PUSH2 0x26D CALLDATASIZE PUSH2 0x184 CALLDATALOAD PUSH1 0x4 ADD PUSH2 0x332E JUMP JUMPDEST PUSH2 0x2C0 MSTORE PUSH2 0x540 MSTORE PUSH1 0x1 PUSH1 0x1 PUSH1 0x40 SHL SUB PUSH2 0x1A4 CALLDATALOAD GT PUSH2 0x2567 JUMPI PUSH2 0x296 CALLDATASIZE PUSH2 0x1A4 CALLDATALOAD PUSH1 0x4 ADD PUSH2 0x332E JUMP JUMPDEST PUSH2 0x2E0 MSTORE PUSH2 0x5E0 MSTORE PUSH1 0x1 PUSH1 0x1 PUSH1 0x40 SHL SUB PUSH2 0x1C4 CALLDATALOAD GT PUSH2 0x2567 JUMPI PUSH2 0x2BF CALLDATASIZE PUSH2 0x1C4 CALLDATALOAD PUSH1 0x4 ADD PUSH2 0x332E JUMP JUMPDEST PUSH2 0x160 MSTORE PUSH2 0x7C0 MSTORE PUSH1 0x1 PUSH1 0x1 PUSH1 0x40 SHL SUB PUSH2 0x1E4 CALLDATALOAD GT PUSH2 0x2567 JUMPI PUSH2 0x2E8 CALLDATASIZE PUSH2 0x1E4 CALLDATALOAD PUSH1 0x4 ADD PUSH2 0x332E JUMP JUMPDEST PUSH2 0x260 MSTORE PUSH2 0x9E0 MSTORE PUSH1 0x1 PUSH1 0x1 PUSH1 0x40 SHL SUB PUSH2 0x204 CALLDATALOAD GT PUSH2 0x2567 JUMPI PUSH2 0x311 CALLDATASIZE PUSH2 0x204 CALLDATALOAD PUSH1 0x4 ADD PUSH2 0x332E JUMP JUMPDEST PUSH2 0x220 MSTORE PUSH2 0x6C0 MSTORE PUSH1 0x1 PUSH1 0x1 PUSH1 0x40 SHL SUB PUSH2 0x224 CALLDATALOAD GT PUSH2 0x2567 JUMPI PUSH2 0x33A CALLDATASIZE PUSH2 0x224 CALLDATALOAD PUSH1 0x4 ADD PUSH2 0x332E JUMP JUMPDEST PUSH2 0x820 MSTORE PUSH2 0x860 MSTORE PUSH1 0x1 PUSH1 0x1 PUSH1 0x40 SHL SUB PUSH2 0x244 CALLDATALOAD GT PUSH2 0x2567 JUMPI PUSH2 0x363 CALLDATASIZE PUSH2 0x244 CALLDATALOAD PUSH1 0x4 ADD PUSH2 0x332E JUMP JUMPDEST PUSH1 0xA0 MSTORE PUSH2 0x700 MSTORE PUSH1 0x1 PUSH1 0x1 PUSH1 0x40 SHL SUB PUSH2 0x264 CALLDATALOAD GT PUSH2 0x2567 JUMPI PUSH2 0x38B CALLDATASIZE PUSH2 0x264 CALLDATALOAD PUSH1 0x4 ADD PUSH2 0x332E JUMP JUMPDEST PUSH2 0x3C0 MSTORE PUSH2 0x1A0 MSTORE PUSH1 0x1 PUSH1 0x1 PUSH1 0x40 SHL SUB PUSH2 0x284 CALLDATALOAD GT PUSH2 0x2567 JUMPI PUSH2 0x3B4 CALLDATASIZE PUSH2 0x284 CALLDATALOAD PUSH1 0x4 ADD PUSH2 0x332E JUMP JUMPDEST PUSH2 0x300 MSTORE PUSH2 0x940 MSTORE PUSH1 0x1 PUSH1 0x1 PUSH1 0x40 SHL SUB PUSH2 0x2A4 CALLDATALOAD GT PUSH2 0x2567 JUMPI PUSH2 0x3DD CALLDATASIZE PUSH2 0x2A4 CALLDATALOAD PUSH1 0x4 ADD PUSH2 0x332E JUMP JUMPDEST PUSH2 0x4A0 MSTORE PUSH2 0x600 MSTORE PUSH1 0x1 PUSH1 0x1 PUSH1 0x40 SHL SUB PUSH2 0x2C4 CALLDATALOAD GT PUSH2 0x2567 JUMPI PUSH2 0x406 CALLDATASIZE PUSH2 0x2C4 CALLDATALOAD PUSH1 0x4 ADD PUSH2 0x332E JUMP JUMPDEST PUSH2 0x360 MSTORE PUSH2 0x680 MSTORE PUSH1 0x1 PUSH1 0x1 PUSH1 0x40 SHL SUB PUSH2 0x2E4 CALLDATALOAD GT PUSH2 0x2567 JUMPI PUSH2 0x42F CALLDATASIZE PUSH2 0x2E4 CALLDATALOAD PUSH1 0x4 ADD PUSH2 0x332E JUMP JUMPDEST PUSH2 0x620 MSTORE PUSH2 0x3A0 MSTORE PUSH1 0x1 PUSH1 0x1 PUSH1 0x40 SHL SUB PUSH2 0x304 CALLDATALOAD GT PUSH2 0x2567 JUMPI PUSH2 0x458 CALLDATASIZE PUSH2 0x304 CALLDATALOAD PUSH1 0x4 ADD PUSH2 0x332E JUMP JUMPDEST PUSH2 0x520 MSTORE PUSH2 0x100 MSTORE PUSH1 0x1 PUSH1 0x1 PUSH1 0x40 SHL SUB PUSH2 0x324 CALLDATALOAD GT PUSH2 0x2567 JUMPI PUSH2 0x481 CALLDATASIZE PUSH2 0x324 CALLDATALOAD PUSH1 0x4 ADD PUSH2 0x332E JUMP JUMPDEST PUSH2 0x240 MSTORE PUSH2 0x900 MSTORE PUSH1 0x1 PUSH1 0x1 PUSH1 0x40 SHL SUB PUSH2 0x344 CALLDATALOAD GT PUSH2 0x2567 JUMPI PUSH2 0x4AA CALLDATASIZE PUSH2 0x344 CALLDATALOAD PUSH1 0x4 ADD PUSH2 0x332E JUMP JUMPDEST PUSH2 0x380 MSTORE PUSH2 0x2A0 MSTORE PUSH1 0x1 PUSH1 0x1 PUSH1 0x40 SHL SUB PUSH2 0x364 CALLDATALOAD GT PUSH2 0x2567 JUMPI PUSH2 0x4D3 CALLDATASIZE PUSH2 0x364 CALLDATALOAD PUSH1 0x4 ADD PUSH2 0x332E JUMP JUMPDEST PUSH2 0x660 MSTORE PUSH2 0x780 MSTORE PUSH1 0x1 PUSH1 0x1 PUSH1 0x40 SHL SUB PUSH2 0x384 CALLDATALOAD GT PUSH2 0x2567 JUMPI PUSH2 0x4FC CALLDATASIZE PUSH2 0x384 CALLDATALOAD PUSH1 0x4 ADD PUSH2 0x332E JUMP JUMPDEST PUSH2 0x8C0 MSTORE PUSH2 0x420 MSTORE PUSH1 0x0 SLOAD PUSH1 0x1 PUSH1 0x1 PUSH1 0xA0 SHL SUB AND CALLER SUB PUSH2 0x2534 JUMPI PUSH2 0x526 PUSH1 0x40 MLOAD DUP1 PUSH2 0x640 MSTORE PUSH2 0x3203 JUMP JUMPDEST PUSH2 0x537 CALLDATASIZE PUSH2 0x460 MLOAD PUSH2 0xA00 MLOAD PUSH2 0x335B JUMP JUMPDEST PUSH2 0x640 MLOAD MSTORE PUSH2 0x54D CALLDATASIZE PUSH2 0x140 MLOAD PUSH2 0x560 MLOAD PUSH2 0x335B JUMP JUMPDEST PUSH1 0x20 PUSH2 0x640 MLOAD ADD MSTORE PUSH2 0x566 CALLDATASIZE PUSH2 0x840 MLOAD PUSH2 0x5A0 MLOAD PUSH2 0x335B JUMP JUMPDEST PUSH1 0x40 PUSH2 0x640 MLOAD ADD MSTORE PUSH2 0x57F CALLDATASIZE PUSH2 0x580 MLOAD PUSH2 0x120 MLOAD PUSH2 0x335B JUMP JUMPDEST PUSH1 0x60 PUSH2 0x640 MLOAD ADD MSTORE PUSH2 0x598 CALLDATASIZE PUSH2 0x1E0 MLOAD PUSH2 0x7A0 MLOAD PUSH2 0x335B JUMP JUMPDEST PUSH1 0x80 PUSH2 0x640 MLOAD ADD MSTORE PUSH2 0x5B1 CALLDATASIZE PUSH2 0x8A0 MLOAD PUSH2 0x3E0 MLOAD PUSH2 0x335B JUMP JUMPDEST PUSH1 0xA0 PUSH2 0x640 MLOAD ADD MSTORE PUSH2 0x5CA CALLDATASIZE PUSH2 0x980 MLOAD PUSH2 0x9A0 MLOAD PUSH2 0x335B JUMP JUMPDEST PUSH1 0xC0 PUSH2 0x640 MLOAD ADD MSTORE PUSH2 0x5E2 CALLDATASIZE PUSH2 0x280 MLOAD PUSH1 0xE0 MLOAD PUSH2 0x335B JUMP JUMPDEST PUSH1 0xE0 PUSH2 0x640 MLOAD ADD MSTORE PUSH2 0x5FB CALLDATASIZE PUSH2 0x6A0 MLOAD PUSH2 0x800 MLOAD PUSH2 0x335B JUMP JUMPDEST PUSH2 0x100 PUSH2 0x640 MLOAD ADD MSTORE PUSH2 0x615 CALLDATASIZE PUSH2 0x4E0 MLOAD PUSH2 0x720 MLOAD PUSH2 0x335B JUMP JUMPDEST PUSH2 0x120 PUSH2 0x640 MLOAD ADD MSTORE PUSH2 0x62F CALLDATASIZE PUSH2 0x6E0 MLOAD PUSH2 0x7E0 MLOAD PUSH2 0x335B JUMP JUMPDEST PUSH2 0x140 PUSH2 0x640 MLOAD ADD MSTORE PUSH2 0x649 CALLDATASIZE PUSH2 0x2C0 MLOAD PUSH2 0x540 MLOAD PUSH2 0x335B JUMP JUMPDEST PUSH2 0x160 PUSH2 0x640 MLOAD ADD MSTORE PUSH2 0x663 CALLDATASIZE PUSH2 0x2E0 MLOAD PUSH2 0x5E0 MLOAD PUSH2 0x335B JUMP JUMPDEST PUSH2 0x180 PUSH2 0x640 MLOAD ADD MSTORE PUSH2 0x67D CALLDATASIZE PUSH2 0x160 MLOAD PUSH2 0x7C0 MLOAD PUSH2 0x335B JUMP JUMPDEST PUSH2 0x1A0 PUSH2 0x640 MLOAD ADD MSTORE PUSH2 0x697 CALLDATASIZE PUSH2 0x260 MLOAD PUSH2 0x9E0 MLOAD PUSH2 0x335B JUMP JUMPDEST PUSH2 0x1C0 PUSH2 0x640 MLOAD ADD MSTORE PUSH2 0x6B1 CALLDATASIZE PUSH2 0x220 MLOAD PUSH2 0x6C0 MLOAD PUSH2 0x335B JUMP JUMPDEST PUSH2 0x1E0 PUSH2 0x640 MLOAD ADD MSTORE PUSH2 0x6CB CALLDATASIZE PUSH2 0x820 MLOAD PUSH2 0x860 MLOAD PUSH2 0x335B JUMP JUMPDEST PUSH2 0x200 PUSH2 0x640 MLOAD ADD MSTORE PUSH2 0x6E4 CALLDATASIZE PUSH1 0xA0 MLOAD PUSH2 0x700 MLOAD PUSH2 0x335B JUMP JUMPDEST PUSH2 0x220 PUSH2 0x640 MLOAD ADD MSTORE PUSH2 0x6FE CALLDATASIZE PUSH2 0x3C0 MLOAD PUSH2 0x1A0 MLOAD PUSH2 0x335B JUMP JUMPDEST PUSH2 0x240 PUSH2 0x640 MLOAD ADD MSTORE PUSH2 0x718 CALLDATASIZE PUSH2 0x300 MLOAD PUSH2 0x940 MLOAD PUSH2 0x335B JUMP JUMPDEST PUSH2 0x260 PUSH2 0x640 MLOAD ADD MSTORE PUSH2 0x732 CALLDATASIZE PUSH2 0x4A0 MLOAD PUSH2 0x600 MLOAD PUSH2 0x335B JUMP JUMPDEST PUSH2 0x280 PUSH2 0x640 MLOAD ADD MSTORE PUSH2 0x74C CALLDATASIZE PUSH2 0x360 MLOAD PUSH2 0x680 MLOAD PUSH2 0x335B JUMP JUMPDEST PUSH2 0x2A0 PUSH2 0x640 MLOAD ADD MSTORE PUSH2 0x766 CALLDATASIZE PUSH2 0x620 MLOAD PUSH2 0x3A0 MLOAD PUSH2 0x335B JUMP JUMPDEST PUSH2 0x2C0 PUSH2 0x640 MLOAD ADD MSTORE PUSH2 0x780 CALLDATASIZE PUSH2 0x520 MLOAD PUSH2 0x100 MLOAD PUSH2 0x335B JUMP JUMPDEST PUSH2 0x2E0 PUSH2 0x640 MLOAD ADD MSTORE PUSH2 0x79A CALLDATASIZE PUSH2 0x240 MLOAD PUSH2 0x900 MLOAD PUSH2 0x335B JUMP JUMPDEST PUSH2 0x300 PUSH2 0x640 MLOAD ADD MSTORE PUSH2 0x7B4 CALLDATASIZE PUSH2 0x380 MLOAD PUSH2 0x2A0 MLOAD PUSH2 0x335B JUMP JUMPDEST PUSH2 0x320 PUSH2 0x640 MLOAD ADD MSTORE PUSH2 0x7CE CALLDATASIZE PUSH2 0x660 MLOAD PUSH2 0x780 MLOAD PUSH2 0x335B JUMP JUMPDEST PUSH2 0x340 PUSH2 0x640 MLOAD ADD MSTORE PUSH2 0x7E8 CALLDATASIZE PUSH2 0x8C0 MLOAD PUSH2 0x420 MLOAD PUSH2 0x335B JUMP JUMPDEST PUSH2 0x360 PUSH2 0x640 MLOAD ADD MSTORE PUSH1 0x40 MLOAD PUSH2 0x500 MLOAD PUSH2 0x440 MLOAD DUP3 CALLDATACOPY PUSH1 0x1 PUSH2 0x500 MLOAD DUP3 ADD MSTORE PUSH1 0x20 DUP2 PUSH2 0x500 MLOAD DUP2 ADD SUB ADD SWAP1 KECCAK256 PUSH2 0x640 MLOAD MLOAD DUP1 MLOAD SWAP1 PUSH1 0x1 PUSH1 0x1 PUSH1 0x40 SHL SUB DUP3 GT PUSH2 0x1764 JUMPI DUP2 SWAP1 PUSH2 0x840 DUP3 PUSH2 0x83A DUP7 SLOAD PUSH2 0x31C9 JUMP JUMPDEST DUP7 PUSH2 0x33A1 JUMP JUMPDEST PUSH1 0x20 SWAP1 PUSH1 0x1F DUP4 GT PUSH1 0x1 EQ PUSH2 0x24C8 JUMPI PUSH1 0x0 SWAP3 PUSH2 0x24BD JUMPI JUMPDEST POP POP DUP2 PUSH1 0x1 SHL SWAP2 PUSH1 0x0 NOT SWAP1 PUSH1 0x3 SHL SHR NOT AND OR DUP2 SSTORE JUMPDEST PUSH1 0x20 PUSH2 0x640 MLOAD ADD MLOAD DUP1 MLOAD SWAP1 PUSH1 0x1 PUSH1 0x1 PUSH1 0x40 SHL SUB DUP3 GT PUSH2 0x1764 JUMPI DUP2 SWAP1 PUSH2 0x8A0 DUP3 PUSH2 0x897 PUSH1 0x1 DUP8 ADD SLOAD PUSH2 0x31C9 JUMP JUMPDEST PUSH1 0x1 DUP8 ADD PUSH2 0x33A1 JUMP JUMPDEST PUSH1 0x20 SWAP1 PUSH1 0x1F DUP4 GT PUSH1 0x1 EQ PUSH2 0x244B JUMPI PUSH1 0x0 SWAP3 PUSH2 0x2440 JUMPI JUMPDEST POP POP DUP2 PUSH1 0x1 SHL SWAP2 PUSH1 0x0 NOT SWAP1 PUSH1 0x3 SHL SHR NOT AND OR PUSH1 0x1 DUP3 ADD SSTORE JUMPDEST PUSH1 0x40 PUSH2 0x640 MLOAD ADD MLOAD DUP1 MLOAD SWAP1 PUSH1 0x1 PUSH1 0x1 PUSH1 0x40 SHL SUB DUP3 GT PUSH2 0x1764 JUMPI DUP2 SWAP1 PUSH2 0x903 DUP3 PUSH2 0x8FA PUSH1 0x2 DUP8 ADD SLOAD PUSH2 0x31C9 JUMP JUMPDEST PUSH1 0x2 DUP8 ADD PUSH2 0x33A1 JUMP JUMPDEST PUSH1 0x20 SWAP1 PUSH1 0x1F DUP4 GT PUSH1 0x1 EQ PUSH2 0x23CE JUMPI PUSH1 0x0 SWAP3 PUSH2 0x23C3 JUMPI JUMPDEST POP POP DUP2 PUSH1 0x1 SHL SWAP2 PUSH1 0x0 NOT SWAP1 PUSH1 0x3 SHL SHR NOT AND OR PUSH1 0x2 DUP3 ADD SSTORE JUMPDEST PUSH1 0x60 PUSH2 0x640 MLOAD ADD MLOAD DUP1 MLOAD SWAP1 PUSH1 0x1 PUSH1 0x1 PUSH1 0x40 SHL SUB DUP3 GT PUSH2 0x1764 JUMPI DUP2 SWAP1 PUSH2 0x966 DUP3 PUSH2 0x95D PUSH1 0x3 DUP8 ADD SLOAD PUSH2 0x31C9 JUMP JUMPDEST PUSH1 0x3 DUP8 ADD PUSH2 0x33A1 JUMP JUMPDEST PUSH1 0x20 SWAP1 PUSH1 0x1F DUP4 GT PUSH1 0x1 EQ PUSH2 0x2351 JUMPI PUSH1 0x0 SWAP3 PUSH2 0x2346 JUMPI JUMPDEST POP POP DUP2 PUSH1 0x1 SHL SWAP2 PUSH1 0x0 NOT SWAP1 PUSH1 0x3 SHL SHR NOT AND OR PUSH1 0x3 DUP3 ADD SSTORE JUMPDEST PUSH1 0x80 PUSH2 0x640 MLOAD ADD MLOAD DUP1 MLOAD SWAP1 PUSH1 0x1 PUSH1 0x1 PUSH1 0x40 SHL SUB DUP3 GT PUSH2 0x1764 JUMPI DUP2 SWAP1 PUSH2 0x9C9 DUP3 PUSH2 0x9C0 PUSH1 0x4 DUP8 ADD SLOAD PUSH2 0x31C9 JUMP JUMPDEST PUSH1 0x4 DUP8 ADD PUSH2 0x33A1 JUMP JUMPDEST PUSH1 0x20 SWAP1 PUSH1 0x1F DUP4 GT PUSH1 0x1 EQ PUSH2 0x22D4 JUMPI PUSH1 0x0 SWAP3 PUSH2 0x22C9 JUMPI JUMPDEST POP POP DUP2 PUSH1 0x1 SHL SWAP2 PUSH1 0x0 NOT SWAP1 PUSH1 0x3 SHL SHR NOT AND OR PUSH1 0x4 DUP3 ADD SSTORE JUMPDEST PUSH1 0xA0 PUSH2 0x640 MLOAD ADD MLOAD DUP1 MLOAD SWAP1 PUSH1 0x1 PUSH1 0x1 PUSH1 0x40 SHL SUB DUP3 GT PUSH2 0x1764 JUMPI DUP2 SWAP1 PUSH2 0xA2C DUP3 PUSH2 0xA23 PUSH1 0x5 DUP8 ADD SLOAD PUSH2 0x31C9 JUMP JUMPDEST PUSH1 0x5 DUP8 ADD PUSH2 0x33A1 JUMP JUMPDEST PUSH1 0x20 SWAP1 PUSH1 0x1F DUP4 GT PUSH1 0x1 EQ PUSH2 0x2257 JUMPI PUSH1 0x0 SWAP3 PUSH2 0x224C JUMPI JUMPDEST POP POP DUP2 PUSH1 0x1 SHL SWAP2 PUSH1 0x0 NOT SWAP1 PUSH1 0x3 SHL SHR NOT AND OR PUSH1 0x5 DUP3 ADD SSTORE JUMPDEST PUSH1 0xC0 PUSH2 0x640 MLOAD ADD MLOAD DUP1 MLOAD SWAP1 PUSH1 0x1 PUSH1 0x1 PUSH1 0x40 SHL SUB DUP3 GT PUSH2 0x1764 JUMPI DUP2 SWAP1 PUSH2 0xA8F DUP3 PUSH2 0xA86 PUSH1 0x6 DUP8 ADD SLOAD PUSH2 0x31C9 JUMP JUMPDEST PUSH1 0x6 DUP8 ADD PUSH2 0x33A1 JUMP JUMPDEST PUSH1 0x20 SWAP1 PUSH1 0x1F DUP4 GT PUSH1 0x1 EQ PUSH2 0x21DA JUMPI PUSH1 0x0 SWAP3 PUSH2 0x21CF JUMPI JUMPDEST POP POP DUP2 PUSH1 0x1 SHL SWAP2 PUSH1 0x0 NOT SWAP1 PUSH1 0x3 SHL SHR NOT AND OR PUSH1 0x6 DUP3 ADD SSTORE JUMPDEST PUSH1 0xE0 PUSH2 0x640 MLOAD ADD MLOAD DUP1 MLOAD SWAP1 PUSH1 0x1 PUSH1 0x1 PUSH1 0x40 SHL SUB DUP3 GT PUSH2 0x1764 JUMPI DUP2 SWAP1 PUSH2 0xAF2 DUP3 PUSH2 0xAE9 PUSH1 0x7 DUP8 ADD SLOAD PUSH2 0x31C9 JUMP JUMPDEST PUSH1 0x7 DUP8 ADD PUSH2 0x33A1 JUMP JUMPDEST PUSH1 0x20 SWAP1 PUSH1 0x1F DUP4 GT PUSH1 0x1 EQ PUSH2 0x215D JUMPI PUSH1 0x0 SWAP3 PUSH2 0x2152 JUMPI JUMPDEST POP POP DUP2 PUSH1 0x1 SHL SWAP2 PUSH1 0x0 NOT SWAP1 PUSH1 0x3 SHL SHR NOT AND OR PUSH1 0x7 DUP3 ADD SSTORE JUMPDEST PUSH2 0x100 PUSH2 0x640 MLOAD ADD MLOAD DUP1 MLOAD SWAP1 PUSH1 0x1 PUSH1 0x1 PUSH1 0x40 SHL SUB DUP3 GT PUSH2 0x1764 JUMPI DUP2 SWAP1 PUSH2 0xB56 DUP3 PUSH2 0xB4D PUSH1 0x8 DUP8 ADD SLOAD PUSH2 0x31C9 JUMP JUMPDEST PUSH1 0x8 DUP8 ADD PUSH2 0x33A1 JUMP JUMPDEST PUSH1 0x20 SWAP1 PUSH1 0x1F DUP4 GT PUSH1 0x1 EQ PUSH2 0x20E0 JUMPI PUSH1 0x0 SWAP3 PUSH2 0x20D5 JUMPI JUMPDEST POP POP DUP2 PUSH1 0x1 SHL SWAP2 PUSH1 0x0 NOT SWAP1 PUSH1 0x3 SHL SHR NOT AND OR PUSH1 0x8 DUP3 ADD SSTORE JUMPDEST PUSH2 0x120 PUSH2 0x640 MLOAD ADD MLOAD DUP1 MLOAD SWAP1 PUSH1 0x1 PUSH1 0x1 PUSH1 0x40 SHL SUB DUP3 GT PUSH2 0x1764 JUMPI DUP2 SWAP1 PUSH2 0xBBA DUP3 PUSH2 0xBB1 PUSH1 0x9 DUP8 ADD SLOAD PUSH2 0x31C9 JUMP JUMPDEST PUSH1 0x9 DUP8 ADD PUSH2 0x33A1 JUMP JUMPDEST PUSH1 0x20 SWAP1 PUSH1 0x1F DUP4 GT PUSH1 0x1 EQ PUSH2 0x2063 JUMPI PUSH1 0x0 SWAP3 PUSH2 0x2058 JUMPI JUMPDEST POP POP DUP2 PUSH1 0x1 SHL SWAP2 PUSH1 0x0 NOT SWAP1 PUSH1 0x3 SHL SHR NOT AND OR PUSH1 0x9 DUP3 ADD SSTORE JUMPDEST PUSH2 0x140 PUSH2 0x640 MLOAD ADD MLOAD DUP1 MLOAD SWAP1 PUSH1 0x1 PUSH1 0x1 PUSH1 0x40 SHL SUB DUP3 GT PUSH2 0x1764 JUMPI DUP2 SWAP1 PUSH2 0xC1E DUP3 PUSH2 0xC15 PUSH1 0xA DUP8 ADD SLOAD PUSH2 0x31C9 JUMP JUMPDEST PUSH1 0xA DUP8 ADD PUSH2 0x33A1 JUMP JUMPDEST PUSH1 0x20 SWAP1 PUSH1 0x1F DUP4 GT PUSH1 0x1 EQ PUSH2 0x1FE6 JUMPI PUSH1 0x0 SWAP3 PUSH2 0x1FDB JUMPI JUMPDEST POP POP DUP2 PUSH1 0x1 SHL SWAP2 PUSH1 0x0 NOT SWAP1 PUSH1 0x3 SHL SHR NOT AND OR PUSH1 0xA DUP3 ADD SSTORE JUMPDEST PUSH2 0x160 PUSH2 0x640 MLOAD ADD MLOAD DUP1 MLOAD SWAP1 PUSH1 0x1 PUSH1 0x1 PUSH1 0x40 SHL SUB DUP3 GT PUSH2 0x1764 JUMPI DUP2 SWAP1 PUSH2 0xC82 DUP3 PUSH2 0xC79 PUSH1 0xB DUP8 ADD SLOAD PUSH2 0x31C9 JUMP JUMPDEST PUSH1 0xB DUP8 ADD PUSH2 0x33A1 JUMP JUMPDEST PUSH1 0x20 SWAP1 PUSH1 0x1F DUP4 GT PUSH1 0x1 EQ PUSH2 0x1F69 JUMPI PUSH1 0x0 SWAP3 PUSH2 0x1F5E JUMPI JUMPDEST POP POP DUP2 PUSH1 0x1 SHL SWAP2 PUSH1 0x0 NOT SWAP1 PUSH1 0x3 SHL SHR NOT AND OR PUSH1 0xB DUP3 ADD SSTORE JUMPDEST PUSH2 0x180 PUSH2 0x640 MLOAD ADD MLOAD DUP1 MLOAD SWAP1 PUSH1 0x1 PUSH1 0x1 PUSH1 0x40 SHL SUB DUP3 GT PUSH2 0x1764 JUMPI DUP2 SWAP1 PUSH2 0xCE6 DUP3 PUSH2 0xCDD PUSH1 0xC DUP8 ADD SLOAD PUSH2 0x31C9 JUMP JUMPDEST PUSH1 0xC DUP8 ADD PUSH2 0x33A1 JUMP JUMPDEST PUSH1 0x20 SWAP1 PUSH1 0x1F DUP4 GT PUSH1 0x1 EQ PUSH2 0x1EEC JUMPI PUSH1 0x0 SWAP3 PUSH2 0x1EE1 JUMPI JUMPDEST POP POP DUP2 PUSH1 0x1 SHL SWAP2 PUSH1 0x0 NOT SWAP1 PUSH1 0x3 SHL SHR NOT AND OR PUSH1 0xC DUP3 ADD SSTORE JUMPDEST PUSH2 0x1A0 PUSH2 0x640 MLOAD ADD MLOAD DUP1 MLOAD SWAP1 PUSH1 0x1 PUSH1 0x1 PUSH1 0x40 SHL SUB DUP3 GT PUSH2 0x1764 JUMPI DUP2 SWAP1 PUSH2 0xD4A DUP3 PUSH2 0xD41 PUSH1 0xD DUP8 ADD SLOAD PUSH2 0x31C9 JUMP JUMPDEST PUSH1 0xD DUP8 ADD PUSH2 0x33A1 JUMP JUMPDEST PUSH1 0x20 SWAP1 PUSH1 0x1F DUP4 GT PUSH1 0x1 EQ PUSH2 0x1E6F JUMPI PUSH1 0x0 SWAP3 PUSH2 0x1E64 JUMPI JUMPDEST POP POP DUP2 PUSH1 0x1 SHL SWAP2 PUSH1 0x0 NOT SWAP1 PUSH1 0x3 SHL SHR NOT AND OR PUSH1 0xD DUP3 ADD SSTORE JUMPDEST PUSH2 0x1C0 PUSH2 0x640 MLOAD ADD MLOAD DUP1 MLOAD SWAP1 PUSH1 0x1 PUSH1 0x1 PUSH1 0x40 SHL SUB DUP3 GT PUSH2 0x1764 JUMPI DUP2 SWAP1 PUSH2 0xDAE DUP3 PUSH2 0xDA5 PUSH1 0xE DUP8 ADD SLOAD PUSH2 0x31C9 JUMP JUMPDEST PUSH1 0xE DUP8 ADD PUSH2 0x33A1 JUMP JUMPDEST PUSH1 0x20 SWAP1 PUSH1 0x1F DUP4 GT PUSH1 0x1 EQ PUSH2 0x1DF2 JUMPI PUSH1 0x0 SWAP3 PUSH2 0x1DE7 JUMPI JUMPDEST POP POP DUP2 PUSH1 0x1 SHL SWAP2 PUSH1 0x0 NOT SWAP1 PUSH1 0x3 SHL SHR NOT AND OR PUSH1 0xE DUP3 ADD SSTORE JUMPDEST PUSH2 0x1E0 PUSH2 0x640 MLOAD ADD MLOAD DUP1 MLOAD SWAP1 PUSH1 0x1 PUSH1 0x1 PUSH1 0x40 SHL SUB DUP3 GT PUSH2 0x1764 JUMPI DUP2 SWAP1 PUSH2 0xE12 DUP3 PUSH2 0xE09 PUSH1 0xF DUP8 ADD SLOAD PUSH2 0x31C9 JUMP JUMPDEST PUSH1 0xF DUP8 ADD PUSH2 0x33A1 JUMP JUMPDEST PUSH1 0x20 SWAP1 PUSH1 0x1F DUP4 GT PUSH1 0x1 EQ PUSH2 0x1D75 JUMPI PUSH1 0x0 SWAP3 PUSH2 0x1D6A JUMPI JUMPDEST POP POP DUP2 PUSH1 0x1 SHL SWAP2 PUSH1 0x0 NOT SWAP1 PUSH1 0x3 SHL SHR NOT AND OR PUSH1 0xF DUP3 ADD SSTORE JUMPDEST PUSH2 0x200 PUSH2 0x640 MLOAD ADD MLOAD DUP1 MLOAD SWAP1 PUSH1 0x1 PUSH1 0x1 PUSH1 0x40 SHL SUB DUP3 GT PUSH2 0x1764 JUMPI DUP2 SWAP1 PUSH2 0xE76 DUP3 PUSH2 0xE6D PUSH1 0x10 DUP8 ADD SLOAD PUSH2 0x31C9 JUMP JUMPDEST PUSH1 0x10 DUP8 ADD PUSH2 0x33A1 JUMP JUMPDEST PUSH1 0x20 SWAP1 PUSH1 0x1F DUP4 GT PUSH1 0x1 EQ PUSH2 0x1CF8 JUMPI PUSH1 0x0 SWAP3 PUSH2 0x1CED JUMPI JUMPDEST POP POP DUP2 PUSH1 0x1 SHL SWAP2 PUSH1 0x0 NOT SWAP1 PUSH1 0x3 SHL SHR NOT AND OR PUSH1 0x10 DUP3 ADD SSTORE JUMPDEST PUSH2 0x220 PUSH2 0x640 MLOAD ADD MLOAD DUP1 MLOAD SWAP1 PUSH1 0x1 PUSH1 0x1 PUSH1 0x40 SHL SUB DUP3 GT PUSH2 0x1764 JUMPI DUP2 SWAP1 PUSH2 0xEDA DUP3 PUSH2 0xED1 PUSH1 0x11 DUP8 ADD SLOAD PUSH2 0x31C9 JUMP JUMPDEST PUSH1 0x11 DUP8 ADD PUSH2 0x33A1 JUMP JUMPDEST PUSH1 0x20 SWAP1 PUSH1 0x1F DUP4 GT PUSH1 0x1 EQ PUSH2 0x1C7B JUMPI PUSH1 0x0 SWAP3 PUSH2 0x1C70 JUMPI JUMPDEST POP POP DUP2 PUSH1 0x1 SHL SWAP2 PUSH1 0x0 NOT SWAP1 PUSH1 0x3 SHL SHR NOT AND OR PUSH1 0x11 DUP3 ADD SSTORE JUMPDEST PUSH2 0x240 PUSH2 0x640 MLOAD ADD MLOAD DUP1 MLOAD SWAP1 PUSH1 0x1 PUSH1 0x1 PUSH1 0x40 SHL SUB DUP3 GT PUSH2 0x1764 JUMPI DUP2 SWAP1 PUSH2 0xF3E DUP3 PUSH2 0xF35 PUSH1 0x12 DUP8 ADD SLOAD PUSH2 0x31C9 JUMP JUMPDEST PUSH1 0x12 DUP8 ADD PUSH2 0x33A1 JUMP JUMPDEST PUSH1 0x20 SWAP1 PUSH1 0x1F DUP4 GT PUSH1 0x1 EQ PUSH2 0x1BFE JUMPI PUSH1 0x0 SWAP3 PUSH2 0x1BF3 JUMPI JUMPDEST POP POP DUP2 PUSH1 0x1 SHL SWAP2 PUSH1 0x0 NOT SWAP1 PUSH1 0x3 SHL SHR NOT AND OR PUSH1 0x12 DUP3 ADD SSTORE JUMPDEST PUSH2 0x260 PUSH2 0x640 MLOAD ADD MLOAD DUP1 MLOAD SWAP1 PUSH1 0x1 PUSH1 0x1 PUSH1 0x40 SHL SUB DUP3 GT PUSH2 0x1764 JUMPI DUP2 SWAP1 PUSH2 0xFA2 DUP3 PUSH2 0xF99 PUSH1 0x13 DUP8 ADD SLOAD PUSH2 0x31C9 JUMP JUMPDEST PUSH1 0x13 DUP8 ADD PUSH2 0x33A1 JUMP JUMPDEST PUSH1 0x20 SWAP1 PUSH1 0x1F DUP4 GT PUSH1 0x1 EQ PUSH2 0x1B81 JUMPI PUSH1 0x0 SWAP3 PUSH2 0x1B76 JUMPI JUMPDEST POP POP DUP2 PUSH1 0x1 SHL SWAP2 PUSH1 0x0 NOT SWAP1 PUSH1 0x3 SHL SHR NOT AND OR PUSH1 0x13 DUP3 ADD SSTORE JUMPDEST PUSH2 0x280 PUSH2 0x640 MLOAD ADD MLOAD DUP1 MLOAD SWAP1 PUSH1 0x1 PUSH1 0x1 PUSH1 0x40 SHL SUB DUP3 GT PUSH2 0x1764 JUMPI DUP2 SWAP1 PUSH2 0x1006 DUP3 PUSH2 0xFFD PUSH1 0x14 DUP8 ADD SLOAD PUSH2 0x31C9 JUMP JUMPDEST PUSH1 0x14 DUP8 ADD PUSH2 0x33A1 JUMP JUMPDEST PUSH1 0x20 SWAP1 PUSH1 0x1F DUP4 GT PUSH1 0x1 EQ PUSH2 0x1B04 JUMPI PUSH1 0x0 SWAP3 PUSH2 0x1AF9 JUMPI JUMPDEST POP POP DUP2 PUSH1 0x1 SHL SWAP2 PUSH1 0x0 NOT SWAP1 PUSH1 0x3 SHL SHR NOT AND OR PUSH1 0x14 DUP3 ADD SSTORE JUMPDEST PUSH2 0x2A0 PUSH2 0x640 MLOAD ADD MLOAD DUP1 MLOAD SWAP1 PUSH1 0x1 PUSH1 0x1 PUSH1 0x40 SHL SUB DUP3 GT PUSH2 0x1764 JUMPI DUP2 SWAP1 PUSH2 0x106A DUP3 PUSH2 0x1061 PUSH1 0x15 DUP8 ADD SLOAD PUSH2 0x31C9 JUMP JUMPDEST PUSH1 0x15 DUP8 ADD PUSH2 0x33A1 JUMP JUMPDEST PUSH1 0x20 SWAP1 PUSH1 0x1F DUP4 GT PUSH1 0x1 EQ PUSH2 0x1A87 JUMPI PUSH1 0x0 SWAP3 PUSH2 0x1A7C JUMPI JUMPDEST POP POP DUP2 PUSH1 0x1 SHL SWAP2 PUSH1 0x0 NOT SWAP1 PUSH1 0x3 SHL SHR NOT AND OR PUSH1 0x15 DUP3 ADD SSTORE JUMPDEST PUSH2 0x2C0 PUSH2 0x640 MLOAD ADD MLOAD DUP1 MLOAD SWAP1 PUSH1 0x1 PUSH1 0x1 PUSH1 0x40 SHL SUB DUP3 GT PUSH2 0x1764 JUMPI DUP2 SWAP1 PUSH2 0x10CE DUP3 PUSH2 0x10C5 PUSH1 0x16 DUP8 ADD SLOAD PUSH2 0x31C9 JUMP JUMPDEST PUSH1 0x16 DUP8 ADD PUSH2 0x33A1 JUMP JUMPDEST PUSH1 0x20 SWAP1 PUSH1 0x1F DUP4 GT PUSH1 0x1 EQ PUSH2 0x1A0A JUMPI PUSH1 0x0 SWAP3 PUSH2 0x19FF JUMPI JUMPDEST POP POP DUP2 PUSH1 0x1 SHL SWAP2 PUSH1 0x0 NOT SWAP1 PUSH1 0x3 SHL SHR NOT AND OR PUSH1 0x16 DUP3 ADD SSTORE JUMPDEST PUSH2 0x2E0 PUSH2 0x640 MLOAD ADD MLOAD DUP1 MLOAD SWAP1 PUSH1 0x1 PUSH1 0x1 PUSH1 0x40 SHL SUB DUP3 GT PUSH2 0x1764 JUMPI DUP2 SWAP1 PUSH2 0x1132 DUP3 PUSH2 0x1129 PUSH1 0x17 DUP8 ADD SLOAD PUSH2 0x31C9 JUMP JUMPDEST PUSH1 0x17 DUP8 ADD PUSH2 0x33A1 JUMP JUMPDEST PUSH1 0x20 SWAP1 PUSH1 0x1F DUP4 GT PUSH1 0x1 EQ PUSH2 0x198D JUMPI PUSH1 0x0 SWAP3 PUSH2 0x1982 JUMPI JUMPDEST POP POP DUP2 PUSH1 0x1 SHL SWAP2 PUSH1 0x0 NOT SWAP1 PUSH1 0x3 SHL SHR NOT AND OR PUSH1 0x17 DUP3 ADD SSTORE JUMPDEST PUSH2 0x300 PUSH2 0x640 MLOAD ADD MLOAD DUP1 MLOAD SWAP1 PUSH1 0x1 PUSH1 0x1 PUSH1 0x40 SHL SUB DUP3 GT PUSH2 0x1764 JUMPI DUP2 SWAP1 PUSH2 0x1196 DUP3 PUSH2 0x118D PUSH1 0x18 DUP8 ADD SLOAD PUSH2 0x31C9 JUMP JUMPDEST PUSH1 0x18 DUP8 ADD PUSH2 0x33A1 JUMP JUMPDEST PUSH1 0x20 SWAP1 PUSH1 0x1F DUP4 GT PUSH1 0x1 EQ PUSH2 0x1910 JUMPI PUSH1 0x0 SWAP3 PUSH2 0x1905 JUMPI JUMPDEST POP POP DUP2 PUSH1 0x1 SHL SWAP2 PUSH1 0x0 NOT SWAP1 PUSH1 0x3 SHL SHR NOT AND OR PUSH1 0x18 DUP3 ADD SSTORE JUMPDEST PUSH2 0x320 PUSH2 0x640 MLOAD ADD MLOAD DUP1 MLOAD SWAP1 PUSH1 0x1 PUSH1 0x1 PUSH1 0x40 SHL SUB DUP3 GT PUSH2 0x1764 JUMPI DUP2 SWAP1 PUSH2 0x11FA DUP3 PUSH2 0x11F1 PUSH1 0x19 DUP8 ADD SLOAD PUSH2 0x31C9 JUMP JUMPDEST PUSH1 0x19 DUP8 ADD PUSH2 0x33A1 JUMP JUMPDEST PUSH1 0x20 SWAP1 PUSH1 0x1F DUP4 GT PUSH1 0x1 EQ PUSH2 0x1893 JUMPI PUSH1 0x0 SWAP3 PUSH2 0x1888 JUMPI JUMPDEST POP POP DUP2 PUSH1 0x1 SHL SWAP2 PUSH1 0x0 NOT SWAP1 PUSH1 0x3 SHL SHR NOT AND OR PUSH1 0x19 DUP3 ADD SSTORE JUMPDEST PUSH2 0x340 PUSH2 0x640 MLOAD ADD MLOAD DUP1 MLOAD SWAP1 PUSH1 0x1 PUSH1 0x1 PUSH1 0x40 SHL SUB DUP3 GT PUSH2 0x1764 JUMPI DUP2 SWAP1 PUSH2 0x125E DUP3 PUSH2 0x1255 PUSH1 0x1A DUP8 ADD SLOAD PUSH2 0x31C9 JUMP JUMPDEST PUSH1 0x1A DUP8 ADD PUSH2 0x33A1 JUMP JUMPDEST PUSH1 0x20 SWAP1 PUSH1 0x1F DUP4 GT PUSH1 0x1 EQ PUSH2 0x1816 JUMPI PUSH1 0x0 SWAP3 PUSH2 0x180B JUMPI JUMPDEST POP POP DUP2 PUSH1 0x1 SHL SWAP2 PUSH1 0x0 NOT SWAP1 PUSH1 0x3 SHL SHR NOT AND OR PUSH1 0x1A DUP3 ADD SSTORE JUMPDEST PUSH2 0x360 PUSH2 0x640 MLOAD ADD MLOAD DUP1 MLOAD SWAP1 PUSH1 0x1 PUSH1 0x1 PUSH1 0x40 SHL SUB DUP3 GT PUSH2 0x1764 JUMPI PUSH2 0x12C0 DUP3 PUSH2 0x12B7 PUSH1 0x1B DUP7 ADD SLOAD PUSH2 0x31C9 JUMP JUMPDEST PUSH1 0x1B DUP7 ADD PUSH2 0x33A1 JUMP JUMPDEST PUSH1 0x20 SWAP1 PUSH1 0x1F DUP4 GT PUSH1 0x1 EQ PUSH2 0x179B JUMPI PUSH1 0x1B SWAP3 SWAP2 PUSH1 0x0 SWAP2 DUP4 PUSH2 0x1790 JUMPI JUMPDEST POP POP DUP2 PUSH1 0x1 SHL SWAP2 PUSH1 0x0 NOT SWAP1 PUSH1 0x3 SHL SHR NOT AND OR SWAP2 ADD SSTORE JUMPDEST PUSH1 0x2 SLOAD PUSH9 0x10000000000000000 DUP2 LT ISZERO PUSH2 0x1764 JUMPI DUP1 PUSH1 0x1 PUSH2 0x1315 SWAP3 ADD PUSH1 0x2 SSTORE PUSH2 0x317C JUMP JUMPDEST PUSH2 0x177A JUMPI PUSH2 0x500 MLOAD PUSH1 0x1 PUSH1 0x1 PUSH1 0x40 SHL SUB DUP2 GT PUSH2 0x1764 JUMPI PUSH2 0x133F SWAP1 PUSH2 0x1339 DUP4 SLOAD PUSH2 0x31C9 JUMP JUMPDEST DUP4 PUSH2 0x33A1 JUMP JUMPDEST PUSH1 0x0 SWAP1 PUSH2 0x500 MLOAD PUSH1 0x1F DUP2 GT PUSH1 0x1 EQ PUSH2 0x16F7 JUMPI POP SWAP1 PUSH1 0x0 PUSH2 0x500 MLOAD SWAP2 DUP3 PUSH2 0x16E9 JUMPI JUMPDEST POP DUP2 PUSH1 0x1 SHL SWAP2 PUSH1 0x0 NOT SWAP1 PUSH1 0x3 SHL SHR NOT AND OR SWAP1 SSTORE JUMPDEST PUSH2 0x3A0 PUSH1 0x40 MLOAD DUP1 PUSH2 0x180 MSTORE MSTORE PUSH32 0xBFA7BFE228AFD0468604EF4D8F7EC145469E6A303E93AAD68C3D319D791748BE PUSH2 0x16BF PUSH2 0x16A5 PUSH2 0x168B PUSH2 0x1671 PUSH2 0x1657 PUSH2 0x163D PUSH2 0x1623 PUSH2 0x1609 PUSH2 0x15EF PUSH2 0x15D5 PUSH2 0x15BC PUSH2 0x15A2 PUSH2 0x1588 PUSH2 0x156E PUSH2 0x1554 PUSH2 0x153A PUSH2 0x1520 PUSH2 0x1506 PUSH2 0x14EC PUSH2 0x14D2 PUSH2 0x14B9 PUSH2 0x14A0 PUSH2 0x1487 PUSH2 0x146E PUSH2 0x1455 PUSH2 0x143C PUSH2 0x1423 PUSH2 0x140A PUSH2 0x3A0 PUSH2 0x180 MLOAD ADD PUSH2 0x500 MLOAD PUSH2 0x440 MLOAD PUSH2 0x33F5 JUMP JUMPDEST PUSH2 0x180 MLOAD PUSH1 0x20 DUP2 DUP4 SUB SWAP2 ADD MSTORE PUSH2 0x460 MLOAD PUSH2 0xA00 MLOAD PUSH2 0x33F5 JUMP JUMPDEST PUSH2 0x180 MLOAD PUSH1 0x40 DUP2 DUP4 SUB SWAP2 ADD MSTORE PUSH2 0x140 MLOAD PUSH2 0x560 MLOAD PUSH2 0x33F5 JUMP JUMPDEST PUSH2 0x180 MLOAD PUSH1 0x60 DUP2 DUP4 SUB SWAP2 ADD MSTORE PUSH2 0x840 MLOAD PUSH2 0x5A0 MLOAD PUSH2 0x33F5 JUMP JUMPDEST PUSH2 0x180 MLOAD PUSH1 0x80 DUP2 DUP4 SUB SWAP2 ADD MSTORE PUSH2 0x580 MLOAD PUSH2 0x120 MLOAD PUSH2 0x33F5 JUMP JUMPDEST PUSH2 0x180 MLOAD PUSH1 0xA0 DUP2 DUP4 SUB SWAP2 ADD MSTORE PUSH2 0x1E0 MLOAD PUSH2 0x7A0 MLOAD PUSH2 0x33F5 JUMP JUMPDEST PUSH2 0x180 MLOAD PUSH1 0xC0 DUP2 DUP4 SUB SWAP2 ADD MSTORE PUSH2 0x8A0 MLOAD PUSH2 0x3E0 MLOAD PUSH2 0x33F5 JUMP JUMPDEST PUSH2 0x180 MLOAD PUSH1 0xE0 DUP2 DUP4 SUB SWAP2 ADD MSTORE PUSH2 0x980 MLOAD PUSH2 0x9A0 MLOAD PUSH2 0x33F5 JUMP JUMPDEST PUSH2 0x180 MLOAD PUSH2 0x100 DUP2 DUP4 SUB SWAP2 ADD MSTORE PUSH2 0x280 MLOAD PUSH1 0xE0 MLOAD PUSH2 0x33F5 JUMP JUMPDEST PUSH2 0x180 MLOAD PUSH2 0x120 DUP2 DUP4 SUB SWAP2 ADD MSTORE PUSH2 0x6A0 MLOAD PUSH2 0x800 MLOAD PUSH2 0x33F5 JUMP JUMPDEST PUSH2 0x180 MLOAD PUSH2 0x140 DUP2 DUP4 SUB SWAP2 ADD MSTORE PUSH2 0x4E0 MLOAD PUSH2 0x720 MLOAD PUSH2 0x33F5 JUMP JUMPDEST PUSH2 0x180 MLOAD PUSH2 0x160 DUP2 DUP4 SUB SWAP2 ADD MSTORE PUSH2 0x6E0 MLOAD PUSH2 0x7E0 MLOAD PUSH2 0x33F5 JUMP JUMPDEST PUSH2 0x180 MLOAD PUSH2 0x180 DUP2 DUP4 SUB SWAP2 ADD MSTORE PUSH2 0x2C0 MLOAD PUSH2 0x540 MLOAD PUSH2 0x33F5 JUMP JUMPDEST PUSH2 0x180 MLOAD PUSH2 0x1A0 DUP2 DUP4 SUB SWAP2 ADD MSTORE PUSH2 0x2E0 MLOAD PUSH2 0x5E0 MLOAD PUSH2 0x33F5 JUMP JUMPDEST PUSH2 0x180 MLOAD PUSH2 0x1C0 DUP2 DUP4 SUB SWAP2 ADD MSTORE PUSH2 0x160 MLOAD PUSH2 0x7C0 MLOAD PUSH2 0x33F5 JUMP JUMPDEST PUSH2 0x180 MLOAD PUSH2 0x1E0 DUP2 DUP4 SUB SWAP2 ADD MSTORE PUSH2 0x260 MLOAD PUSH2 0x9E0 MLOAD PUSH2 0x33F5 JUMP JUMPDEST PUSH2 0x180 MLOAD PUSH2 0x200 DUP2 DUP4 SUB SWAP2 ADD MSTORE PUSH2 0x220 MLOAD PUSH2 0x6C0 MLOAD PUSH2 0x33F5 JUMP JUMPDEST PUSH2 0x180 MLOAD PUSH2 0x220 DUP2 DUP4 SUB SWAP2 ADD MSTORE PUSH2 0x820 MLOAD PUSH2 0x860 MLOAD PUSH2 0x33F5 JUMP JUMPDEST PUSH2 0x180 MLOAD PUSH2 0x240 DUP2 DUP4 SUB SWAP2 ADD MSTORE PUSH1 0xA0 MLOAD PUSH2 0x700 MLOAD PUSH2 0x33F5 JUMP JUMPDEST PUSH2 0x180 MLOAD PUSH2 0x260 DUP2 DUP4 SUB SWAP2 ADD MSTORE PUSH2 0x3C0 MLOAD PUSH2 0x1A0 MLOAD PUSH2 0x33F5 JUMP JUMPDEST PUSH2 0x180 MLOAD PUSH2 0x280 DUP2 DUP4 SUB SWAP2 ADD MSTORE PUSH2 0x300 MLOAD PUSH2 0x940 MLOAD PUSH2 0x33F5 JUMP JUMPDEST PUSH2 0x180 MLOAD PUSH2 0x2A0 DUP2 DUP4 SUB SWAP2 ADD MSTORE PUSH2 0x4A0 MLOAD PUSH2 0x600 MLOAD PUSH2 0x33F5 JUMP JUMPDEST PUSH2 0x180 MLOAD PUSH2 0x2C0 DUP2 DUP4 SUB SWAP2 ADD MSTORE PUSH2 0x360 MLOAD PUSH2 0x680 MLOAD PUSH2 0x33F5 JUMP JUMPDEST PUSH2 0x180 MLOAD PUSH2 0x2E0 DUP2 DUP4 SUB SWAP2 ADD MSTORE PUSH2 0x620 MLOAD PUSH2 0x3A0 MLOAD PUSH2 0x33F5 JUMP JUMPDEST PUSH2 0x180 MLOAD PUSH2 0x300 DUP2 DUP4 SUB SWAP2 ADD MSTORE PUSH2 0x520 MLOAD PUSH2 0x100 MLOAD PUSH2 0x33F5 JUMP JUMPDEST PUSH2 0x180 MLOAD PUSH2 0x320 DUP2 DUP4 SUB SWAP2 ADD MSTORE PUSH2 0x240 MLOAD PUSH2 0x900 MLOAD PUSH2 0x33F5 JUMP JUMPDEST PUSH2 0x180 MLOAD PUSH2 0x340 DUP2 DUP4 SUB SWAP2 ADD MSTORE PUSH2 0x380 MLOAD PUSH2 0x2A0 MLOAD PUSH2 0x33F5 JUMP JUMPDEST PUSH2 0x180 MLOAD PUSH2 0x360 DUP2 DUP4 SUB SWAP2 ADD MSTORE PUSH2 0x660 MLOAD PUSH2 0x780 MLOAD PUSH2 0x33F5 JUMP JUMPDEST PUSH2 0x180 MLOAD PUSH2 0x380 DUP2 DUP4 SUB SWAP2 ADD MSTORE PUSH2 0x16E1 PUSH2 0x180 MLOAD SWAP2 PUSH2 0x8C0 MLOAD PUSH2 0x420 MLOAD PUSH2 0x33F5 JUMP JUMPDEST SUB PUSH2 0x180 MLOAD LOG1 STOP JUMPDEST SWAP1 POP PUSH2 0x440 MLOAD ADD CALLDATALOAD CODESIZE PUSH2 0x1360 JUMP JUMPDEST DUP2 PUSH1 0x0 MSTORE PUSH1 0x20 PUSH1 0x0 KECCAK256 PUSH1 0x0 SWAP4 PUSH2 0x440 MLOAD SWAP1 JUMPDEST PUSH1 0x1F NOT DUP5 AND DUP7 LT PUSH2 0x174C JUMPI PUSH1 0x1 SWAP5 SWAP6 POP DUP4 PUSH1 0x1F NOT DUP2 AND LT PUSH2 0x1732 JUMPI JUMPDEST POP POP POP DUP2 SHL ADD SWAP1 SSTORE PUSH2 0x1374 JUMP JUMPDEST ADD CALLDATALOAD PUSH1 0x0 NOT PUSH1 0x3 DUP5 SWAP1 SHL PUSH1 0xF8 AND SHR NOT AND SWAP1 SSTORE CODESIZE DUP1 DUP1 PUSH2 0x1725 JUMP JUMPDEST SWAP2 PUSH1 0x20 PUSH1 0x1 DUP2 SWAP3 DUP6 DUP6 ADD CALLDATALOAD DUP2 SSTORE ADD SWAP4 ADD SWAP6 ADD SWAP5 PUSH2 0x1709 JUMP JUMPDEST PUSH4 0x4E487B71 PUSH1 0xE0 SHL PUSH1 0x0 MSTORE PUSH1 0x41 PUSH1 0x4 MSTORE PUSH1 0x24 PUSH1 0x0 REVERT JUMPDEST PUSH4 0x4E487B71 PUSH1 0xE0 SHL PUSH1 0x0 MSTORE PUSH1 0x0 PUSH1 0x4 MSTORE PUSH1 0x24 PUSH1 0x0 REVERT JUMPDEST ADD MLOAD SWAP1 POP CODESIZE DUP1 PUSH2 0x12DB JUMP JUMPDEST SWAP1 PUSH1 0x1B DUP5 ADD PUSH1 0x0 MSTORE PUSH1 0x20 PUSH1 0x0 KECCAK256 SWAP2 PUSH1 0x0 JUMPDEST PUSH1 0x1F NOT DUP6 AND DUP2 LT PUSH2 0x17F3 JUMPI POP SWAP2 DUP4 SWAP2 PUSH1 0x1 SWAP4 PUSH1 0x1B SWAP6 PUSH1 0x1F NOT DUP2 AND LT PUSH2 0x17DA JUMPI JUMPDEST POP POP POP DUP2 SHL ADD SWAP2 ADD SSTORE PUSH2 0x12F1 JUMP JUMPDEST ADD MLOAD PUSH1 0x0 NOT PUSH1 0xF8 DUP5 PUSH1 0x3 SHL AND SHR NOT AND SWAP1 SSTORE CODESIZE DUP1 DUP1 PUSH2 0x17CC JUMP JUMPDEST SWAP2 SWAP3 PUSH1 0x20 PUSH1 0x1 DUP2 SWAP3 DUP7 DUP6 ADD MLOAD DUP2 SSTORE ADD SWAP5 ADD SWAP3 ADD PUSH2 0x17AC JUMP JUMPDEST ADD MLOAD SWAP1 POP CODESIZE DUP1 PUSH2 0x1274 JUMP JUMPDEST SWAP3 POP PUSH1 0x1A DUP5 ADD PUSH1 0x0 MSTORE PUSH1 0x20 PUSH1 0x0 KECCAK256 SWAP1 PUSH1 0x0 SWAP4 JUMPDEST PUSH1 0x1F NOT DUP5 AND DUP6 LT PUSH2 0x186D JUMPI PUSH1 0x1 SWAP5 POP DUP4 PUSH1 0x1F NOT DUP2 AND LT PUSH2 0x1854 JUMPI JUMPDEST POP POP POP DUP2 SHL ADD PUSH1 0x1A DUP3 ADD SSTORE PUSH2 0x128C JUMP JUMPDEST ADD MLOAD PUSH1 0x0 NOT PUSH1 0xF8 DUP5 PUSH1 0x3 SHL AND SHR NOT AND SWAP1 SSTORE CODESIZE DUP1 DUP1 PUSH2 0x1844 JUMP JUMPDEST DUP2 DUP2 ADD MLOAD DUP4 SSTORE PUSH1 0x20 SWAP5 DUP6 ADD SWAP5 PUSH1 0x1 SWAP1 SWAP4 ADD SWAP3 SWAP1 SWAP2 ADD SWAP1 PUSH2 0x1829 JUMP JUMPDEST ADD MLOAD SWAP1 POP CODESIZE DUP1 PUSH2 0x1210 JUMP JUMPDEST SWAP3 POP PUSH1 0x19 DUP5 ADD PUSH1 0x0 MSTORE PUSH1 0x20 PUSH1 0x0 KECCAK256 SWAP1 PUSH1 0x0 SWAP4 JUMPDEST PUSH1 0x1F NOT DUP5 AND DUP6 LT PUSH2 0x18EA JUMPI PUSH1 0x1 SWAP5 POP DUP4 PUSH1 0x1F NOT DUP2 AND LT PUSH2 0x18D1 JUMPI JUMPDEST POP POP POP DUP2 SHL ADD PUSH1 0x19 DUP3 ADD SSTORE PUSH2 0x1228 JUMP JUMPDEST ADD MLOAD PUSH1 0x0 NOT PUSH1 0xF8 DUP5 PUSH1 0x3 SHL AND SHR NOT AND SWAP1 SSTORE CODESIZE DUP1 DUP1 PUSH2 0x18C1 JUMP JUMPDEST DUP2 DUP2 ADD MLOAD DUP4 SSTORE PUSH1 0x20 SWAP5 DUP6 ADD SWAP5 PUSH1 0x1 SWAP1 SWAP4 ADD SWAP3 SWAP1 SWAP2 ADD SWAP1 PUSH2 0x18A6 JUMP JUMPDEST ADD MLOAD SWAP1 POP CODESIZE DUP1 PUSH2 0x11AC JUMP JUMPDEST SWAP3 POP PUSH1 0x18 DUP5 ADD PUSH1 0x0 MSTORE PUSH1 0x20 PUSH1 0x0 KECCAK256 SWAP1 PUSH1 0x0 SWAP4 JUMPDEST PUSH1 0x1F NOT DUP5 AND DUP6 LT PUSH2 0x1967 JUMPI PUSH1 0x1 SWAP5 POP DUP4 PUSH1 0x1F NOT DUP2 AND LT PUSH2 0x194E JUMPI JUMPDEST POP POP POP DUP2 SHL ADD PUSH1 0x18 DUP3 ADD SSTORE PUSH2 0x11C4 JUMP JUMPDEST ADD MLOAD PUSH1 0x0 NOT PUSH1 0xF8 DUP5 PUSH1 0x3 SHL AND SHR NOT AND SWAP1 SSTORE CODESIZE DUP1 DUP1 PUSH2 0x193E JUMP JUMPDEST DUP2 DUP2 ADD MLOAD DUP4 SSTORE PUSH1 0x20 SWAP5 DUP6 ADD SWAP5 PUSH1 0x1 SWAP1 SWAP4 ADD SWAP3 SWAP1 SWAP2 ADD SWAP1 PUSH2 0x1923 JUMP JUMPDEST ADD MLOAD SWAP1 POP CODESIZE DUP1 PUSH2 0x1148 JUMP JUMPDEST SWAP3 POP PUSH1 0x17 DUP5 ADD PUSH1 0x0 MSTORE PUSH1 0x20 PUSH1 0x0 KECCAK256 SWAP1 PUSH1 0x0 SWAP4 JUMPDEST PUSH1 0x1F NOT DUP5 AND DUP6 LT PUSH2 0x19E4 JUMPI PUSH1 0x1 SWAP5 POP DUP4 PUSH1 0x1F NOT DUP2 AND LT PUSH2 0x19CB JUMPI JUMPDEST POP POP POP DUP2 SHL ADD PUSH1 0x17 DUP3 ADD SSTORE PUSH2 0x1160 JUMP JUMPDEST ADD MLOAD PUSH1 0x0 NOT PUSH1 0xF8 DUP5 PUSH1 0x3 SHL AND SHR NOT AND SWAP1 SSTORE CODESIZE DUP1 DUP1 PUSH2 0x19BB JUMP JUMPDEST DUP2 DUP2 ADD MLOAD DUP4 SSTORE PUSH1 0x20 SWAP5 DUP6 ADD SWAP5 PUSH1 0x1 SWAP1 SWAP4 ADD SWAP3 SWAP1 SWAP2 ADD SWAP1 PUSH2 0x19A0 JUMP JUMPDEST ADD MLOAD SWAP1 POP CODESIZE DUP1 PUSH2 0x10E4 JUMP JUMPDEST SWAP3 POP PUSH1 0x16 DUP5 ADD PUSH1 0x0 MSTORE PUSH1 0x20 PUSH1 0x0 KECCAK256 SWAP1 PUSH1 0x0 SWAP4 JUMPDEST PUSH1 0x1F NOT DUP5 AND DUP6 LT PUSH2 0x1A61 JUMPI PUSH1 0x1 SWAP5 POP DUP4 PUSH1 0x1F NOT DUP2 AND LT PUSH2 0x1A48 JUMPI JUMPDEST POP POP POP DUP2 SHL ADD PUSH1 0x16 DUP3 ADD SSTORE PUSH2 0x10FC JUMP JUMPDEST ADD MLOAD PUSH1 0x0 NOT PUSH1 0xF8 DUP5 PUSH1 0x3 SHL AND SHR NOT AND SWAP1 SSTORE CODESIZE DUP1 DUP1 PUSH2 0x1A38 JUMP JUMPDEST DUP2 DUP2 ADD MLOAD DUP4 SSTORE PUSH1 0x20 SWAP5 DUP6 ADD SWAP5 PUSH1 0x1 SWAP1 SWAP4 ADD SWAP3 SWAP1 SWAP2 ADD SWAP1 PUSH2 0x1A1D JUMP JUMPDEST ADD MLOAD SWAP1 POP CODESIZE DUP1 PUSH2 0x1080 JUMP JUMPDEST SWAP3 POP PUSH1 0x15 DUP5 ADD PUSH1 0x0 MSTORE PUSH1 0x20 PUSH1 0x0 KECCAK256 SWAP1 PUSH1 0x0 SWAP4 JUMPDEST PUSH1 0x1F NOT DUP5 AND DUP6 LT PUSH2 0x1ADE JUMPI PUSH1 0x1 SWAP5 POP DUP4 PUSH1 0x1F NOT DUP2 AND LT PUSH2 0x1AC5 JUMPI JUMPDEST POP POP POP DUP2 SHL ADD PUSH1 0x15 DUP3 ADD SSTORE PUSH2 0x1098 JUMP JUMPDEST ADD MLOAD PUSH1 0x0 NOT PUSH1 0xF8 DUP5 PUSH1 0x3 SHL AND SHR NOT AND SWAP1 SSTORE CODESIZE DUP1 DUP1 PUSH2 0x1AB5 JUMP JUMPDEST DUP2 DUP2 ADD MLOAD DUP4 SSTORE PUSH1 0x20 SWAP5 DUP6 ADD SWAP5 PUSH1 0x1 SWAP1 SWAP4 ADD SWAP3 SWAP1 SWAP2 ADD SWAP1 PUSH2 0x1A9A JUMP JUMPDEST ADD MLOAD SWAP1 POP CODESIZE DUP1 PUSH2 0x101C JUMP JUMPDEST SWAP3 POP PUSH1 0x14 DUP5 ADD PUSH1 0x0 MSTORE PUSH1 0x20 PUSH1 0x0 KECCAK256 SWAP1 PUSH1 0x0 SWAP4 JUMPDEST PUSH1 0x1F NOT DUP5 AND DUP6 LT PUSH2 0x1B5B JUMPI PUSH1 0x1 SWAP5 POP DUP4 PUSH1 0x1F NOT DUP2 AND LT PUSH2 0x1B42 JUMPI JUMPDEST POP POP POP DUP2 SHL ADD PUSH1 0x14 DUP3 ADD SSTORE PUSH2 0x1034 JUMP JUMPDEST ADD MLOAD PUSH1 0x0 NOT PUSH1 0xF8 DUP5 PUSH1 0x3 SHL AND SHR NOT AND SWAP1 SSTORE CODESIZE DUP1 DUP1 PUSH2 0x1B32 JUMP JUMPDEST DUP2 DUP2 ADD MLOAD DUP4 SSTORE PUSH1 0x20 SWAP5 DUP6 ADD SWAP5 PUSH1 0x1 SWAP1 SWAP4 ADD SWAP3 SWAP1 SWAP2 ADD SWAP1 PUSH2 0x1B17 JUMP JUMPDEST ADD MLOAD SWAP1 POP CODESIZE DUP1 PUSH2 0xFB8 JUMP JUMPDEST SWAP3 POP PUSH1 0x13 DUP5 ADD PUSH1 0x0 MSTORE PUSH1 0x20 PUSH1 0x0 KECCAK256 SWAP1 PUSH1 0x0 SWAP4 JUMPDEST PUSH1 0x1F NOT DUP5 AND DUP6 LT PUSH2 0x1BD8 JUMPI PUSH1 0x1 SWAP5 POP DUP4 PUSH1 0x1F NOT DUP2 AND LT PUSH2 0x1BBF JUMPI JUMPDEST POP POP POP DUP2 SHL ADD PUSH1 0x13 DUP3 ADD SSTORE PUSH2 0xFD0 JUMP JUMPDEST ADD MLOAD PUSH1 0x0 NOT PUSH1 0xF8 DUP5 PUSH1 0x3 SHL AND SHR NOT AND SWAP1 SSTORE CODESIZE DUP1 DUP1 PUSH2 0x1BAF JUMP JUMPDEST DUP2 DUP2 ADD MLOAD DUP4 SSTORE PUSH1 0x20 SWAP5 DUP6 ADD SWAP5 PUSH1 0x1 SWAP1 SWAP4 ADD SWAP3 SWAP1 SWAP2 ADD SWAP1 PUSH2 0x1B94 JUMP JUMPDEST ADD MLOAD SWAP1 POP CODESIZE DUP1 PUSH2 0xF54 JUMP JUMPDEST SWAP3 POP PUSH1 0x12 DUP5 ADD PUSH1 0x0 MSTORE PUSH1 0x20 PUSH1 0x0 KECCAK256 SWAP1 PUSH1 0x0 SWAP4 JUMPDEST PUSH1 0x1F NOT DUP5 AND DUP6 LT PUSH2 0x1C55 JUMPI PUSH1 0x1 SWAP5 POP DUP4 PUSH1 0x1F NOT DUP2 AND LT PUSH2 0x1C3C JUMPI JUMPDEST POP POP POP DUP2 SHL ADD PUSH1 0x12 DUP3 ADD SSTORE PUSH2 0xF6C JUMP JUMPDEST ADD MLOAD PUSH1 0x0 NOT PUSH1 0xF8 DUP5 PUSH1 0x3 SHL AND SHR NOT AND SWAP1 SSTORE CODESIZE DUP1 DUP1 PUSH2 0x1C2C JUMP JUMPDEST DUP2 DUP2 ADD MLOAD DUP4 SSTORE PUSH1 0x20 SWAP5 DUP6 ADD SWAP5 PUSH1 0x1 SWAP1 SWAP4 ADD SWAP3 SWAP1 SWAP2 ADD SWAP1 PUSH2 0x1C11 JUMP JUMPDEST ADD MLOAD SWAP1 POP CODESIZE DUP1 PUSH2 0xEF0 JUMP JUMPDEST SWAP3 POP PUSH1 0x11 DUP5 ADD PUSH1 0x0 MSTORE PUSH1 0x20 PUSH1 0x0 KECCAK256 SWAP1 PUSH1 0x0 SWAP4 JUMPDEST PUSH1 0x1F NOT DUP5 AND DUP6 LT PUSH2 0x1CD2 JUMPI PUSH1 0x1 SWAP5 POP DUP4 PUSH1 0x1F NOT DUP2 AND LT PUSH2 0x1CB9 JUMPI JUMPDEST POP POP POP DUP2 SHL ADD PUSH1 0x11 DUP3 ADD SSTORE PUSH2 0xF08 JUMP JUMPDEST ADD MLOAD PUSH1 0x0 NOT PUSH1 0xF8 DUP5 PUSH1 0x3 SHL AND SHR NOT AND SWAP1 SSTORE CODESIZE DUP1 DUP1 PUSH2 0x1CA9 JUMP JUMPDEST DUP2 DUP2 ADD MLOAD DUP4 SSTORE PUSH1 0x20 SWAP5 DUP6 ADD SWAP5 PUSH1 0x1 SWAP1 SWAP4 ADD SWAP3 SWAP1 SWAP2 ADD SWAP1 PUSH2 0x1C8E JUMP JUMPDEST ADD MLOAD SWAP1 POP CODESIZE DUP1 PUSH2 0xE8C JUMP JUMPDEST SWAP3 POP PUSH1 0x10 DUP5 ADD PUSH1 0x0 MSTORE PUSH1 0x20 PUSH1 0x0 KECCAK256 SWAP1 PUSH1 0x0 SWAP4 JUMPDEST PUSH1 0x1F NOT DUP5 AND DUP6 LT PUSH2 0x1D4F JUMPI PUSH1 0x1 SWAP5 POP DUP4 PUSH1 0x1F NOT DUP2 AND LT PUSH2 0x1D36 JUMPI JUMPDEST POP POP POP DUP2 SHL ADD PUSH1 0x10 DUP3 ADD SSTORE PUSH2 0xEA4 JUMP JUMPDEST ADD MLOAD PUSH1 0x0 NOT PUSH1 0xF8 DUP5 PUSH1 0x3 SHL AND SHR NOT AND SWAP1 SSTORE CODESIZE DUP1 DUP1 PUSH2 0x1D26 JUMP JUMPDEST DUP2 DUP2 ADD MLOAD DUP4 SSTORE PUSH1 0x20 SWAP5 DUP6 ADD SWAP5 PUSH1 0x1 SWAP1 SWAP4 ADD SWAP3 SWAP1 SWAP2 ADD SWAP1 PUSH2 0x1D0B JUMP JUMPDEST ADD MLOAD SWAP1 POP CODESIZE DUP1 PUSH2 0xE28 JUMP JUMPDEST SWAP3 POP PUSH1 0xF DUP5 ADD PUSH1 0x0 MSTORE PUSH1 0x20 PUSH1 0x0 KECCAK256 SWAP1 PUSH1 0x0 SWAP4 JUMPDEST PUSH1 0x1F NOT DUP5 AND DUP6 LT PUSH2 0x1DCC JUMPI PUSH1 0x1 SWAP5 POP DUP4 PUSH1 0x1F NOT DUP2 AND LT PUSH2 0x1DB3 JUMPI JUMPDEST POP POP POP DUP2 SHL ADD PUSH1 0xF DUP3 ADD SSTORE PUSH2 0xE40 JUMP JUMPDEST ADD MLOAD PUSH1 0x0 NOT PUSH1 0xF8 DUP5 PUSH1 0x3 SHL AND SHR NOT AND SWAP1 SSTORE CODESIZE DUP1 DUP1 PUSH2 0x1DA3 JUMP JUMPDEST DUP2 DUP2 ADD MLOAD DUP4 SSTORE PUSH1 0x20 SWAP5 DUP6 ADD SWAP5 PUSH1 0x1 SWAP1 SWAP4 ADD SWAP3 SWAP1 SWAP2 ADD SWAP1 PUSH2 0x1D88 JUMP JUMPDEST ADD MLOAD SWAP1 POP CODESIZE DUP1 PUSH2 0xDC4 JUMP JUMPDEST SWAP3 POP PUSH1 0xE DUP5 ADD PUSH1 0x0 MSTORE PUSH1 0x20 PUSH1 0x0 KECCAK256 SWAP1 PUSH1 0x0 SWAP4 JUMPDEST PUSH1 0x1F NOT DUP5 AND DUP6 LT PUSH2 0x1E49 JUMPI PUSH1 0x1 SWAP5 POP DUP4 PUSH1 0x1F NOT DUP2 AND LT PUSH2 0x1E30 JUMPI JUMPDEST POP POP POP DUP2 SHL ADD PUSH1 0xE DUP3 ADD SSTORE PUSH2 0xDDC JUMP JUMPDEST ADD MLOAD PUSH1 0x0 NOT PUSH1 0xF8 DUP5 PUSH1 0x3 SHL AND SHR NOT AND SWAP1 SSTORE CODESIZE DUP1 DUP1 PUSH2 0x1E20 JUMP JUMPDEST DUP2 DUP2 ADD MLOAD DUP4 SSTORE PUSH1 0x20 SWAP5 DUP6 ADD SWAP5 PUSH1 0x1 SWAP1 SWAP4 ADD SWAP3 SWAP1 SWAP2 ADD SWAP1 PUSH2 0x1E05 JUMP JUMPDEST ADD MLOAD SWAP1 POP CODESIZE DUP1 PUSH2 0xD60 JUMP JUMPDEST SWAP3 POP PUSH1 0xD DUP5 ADD PUSH1 0x0 MSTORE PUSH1 0x20 PUSH1 0x0 KECCAK256 SWAP1 PUSH1 0x0 SWAP4 JUMPDEST PUSH1 0x1F NOT DUP5 AND DUP6 LT PUSH2 0x1EC6 JUMPI PUSH1 0x1 SWAP5 POP DUP4 PUSH1 0x1F NOT DUP2 AND LT PUSH2 0x1EAD JUMPI JUMPDEST POP POP POP DUP2 SHL ADD PUSH1 0xD DUP3 ADD SSTORE PUSH2 0xD78 JUMP JUMPDEST ADD MLOAD PUSH1 0x0 NOT PUSH1 0xF8 DUP5 PUSH1 0x3 SHL AND SHR NOT AND SWAP1 SSTORE CODESIZE DUP1 DUP1 PUSH2 0x1E9D JUMP JUMPDEST DUP2 DUP2 ADD MLOAD DUP4 SSTORE PUSH1 0x20 SWAP5 DUP6 ADD SWAP5 PUSH1 0x1 SWAP1 SWAP4 ADD SWAP3 SWAP1 SWAP2 ADD SWAP1 PUSH2 0x1E82 JUMP JUMPDEST ADD MLOAD SWAP1 POP CODESIZE DUP1 PUSH2 0xCFC JUMP JUMPDEST SWAP3 POP PUSH1 0xC DUP5 ADD PUSH1 0x0 MSTORE PUSH1 0x20 PUSH1 0x0 KECCAK256 SWAP1 PUSH1 0x0 SWAP4 JUMPDEST PUSH1 0x1F NOT DUP5 AND DUP6 LT PUSH2 0x1F43 JUMPI PUSH1 0x1 SWAP5 POP DUP4 PUSH1 0x1F NOT DUP2 AND LT PUSH2 0x1F2A JUMPI JUMPDEST POP POP POP DUP2 SHL ADD PUSH1 0xC DUP3 ADD SSTORE PUSH2 0xD14 JUMP JUMPDEST ADD MLOAD PUSH1 0x0 NOT PUSH1 0xF8 DUP5 PUSH1 0x3 SHL AND SHR NOT AND SWAP1 SSTORE CODESIZE DUP1 DUP1 PUSH2 0x1F1A JUMP JUMPDEST DUP2 DUP2 ADD MLOAD DUP4 SSTORE PUSH1 0x20 SWAP5 DUP6 ADD SWAP5 PUSH1 0x1 SWAP1 SWAP4 ADD SWAP3 SWAP1 SWAP2 ADD SWAP1 PUSH2 0x1EFF JUMP JUMPDEST ADD MLOAD SWAP1 POP CODESIZE DUP1 PUSH2 0xC98 JUMP JUMPDEST SWAP3 POP PUSH1 0xB DUP5 ADD PUSH1 0x0 MSTORE PUSH1 0x20 PUSH1 0x0 KECCAK256 SWAP1 PUSH1 0x0 SWAP4 JUMPDEST PUSH1 0x1F NOT DUP5 AND DUP6 LT PUSH2 0x1FC0 JUMPI PUSH1 0x1 SWAP5 POP DUP4 PUSH1 0x1F NOT DUP2 AND LT PUSH2 0x1FA7 JUMPI JUMPDEST POP POP POP DUP2 SHL ADD PUSH1 0xB DUP3 ADD SSTORE PUSH2 0xCB0 JUMP JUMPDEST ADD MLOAD PUSH1 0x0 NOT PUSH1 0xF8 DUP5 PUSH1 0x3 SHL AND SHR NOT AND SWAP1 SSTORE CODESIZE DUP1 DUP1 PUSH2 0x1F97 JUMP JUMPDEST DUP2 DUP2 ADD MLOAD DUP4 SSTORE PUSH1 0x20 SWAP5 DUP6 ADD SWAP5 PUSH1 0x1 SWAP1 SWAP4 ADD SWAP3 SWAP1 SWAP2 ADD SWAP1 PUSH2 0x1F7C JUMP JUMPDEST ADD MLOAD SWAP1 POP CODESIZE DUP1 PUSH2 0xC34 JUMP JUMPDEST SWAP3 POP PUSH1 0xA DUP5 ADD PUSH1 0x0 MSTORE PUSH1 0x20 PUSH1 0x0 KECCAK256 SWAP1 PUSH1 0x0 SWAP4 JUMPDEST PUSH1 0x1F NOT DUP5 AND DUP6 LT PUSH2 0x203D JUMPI PUSH1 0x1 SWAP5 POP DUP4 PUSH1 0x1F NOT DUP2 AND LT PUSH2 0x2024 JUMPI JUMPDEST POP POP POP DUP2 SHL ADD PUSH1 0xA DUP3 ADD SSTORE PUSH2 0xC4C JUMP JUMPDEST ADD MLOAD PUSH1 0x0 NOT PUSH1 0xF8 DUP5 PUSH1 0x3 SHL AND SHR NOT AND SWAP1 SSTORE CODESIZE DUP1 DUP1 PUSH2 0x2014 JUMP JUMPDEST DUP2 DUP2 ADD MLOAD DUP4 SSTORE PUSH1 0x20 SWAP5 DUP6 ADD SWAP5 PUSH1 0x1 SWAP1 SWAP4 ADD SWAP3 SWAP1 SWAP2 ADD SWAP1 PUSH2 0x1FF9 JUMP JUMPDEST ADD MLOAD SWAP1 POP CODESIZE DUP1 PUSH2 0xBD0 JUMP JUMPDEST SWAP3 POP PUSH1 0x9 DUP5 ADD PUSH1 0x0 MSTORE PUSH1 0x20 PUSH1 0x0 KECCAK256 SWAP1 PUSH1 0x0 SWAP4 JUMPDEST PUSH1 0x1F NOT DUP5 AND DUP6 LT PUSH2 0x20BA JUMPI PUSH1 0x1 SWAP5 POP DUP4 PUSH1 0x1F NOT DUP2 AND LT PUSH2 0x20A1 JUMPI JUMPDEST POP POP POP DUP2 SHL ADD PUSH1 0x9 DUP3 ADD SSTORE PUSH2 0xBE8 JUMP JUMPDEST ADD MLOAD PUSH1 0x0 NOT PUSH1 0xF8 DUP5 PUSH1 0x3 SHL AND SHR NOT AND SWAP1 SSTORE CODESIZE DUP1 DUP1 PUSH2 0x2091 JUMP JUMPDEST DUP2 DUP2 ADD MLOAD DUP4 SSTORE PUSH1 0x20 SWAP5 DUP6 ADD SWAP5 PUSH1 0x1 SWAP1 SWAP4 ADD SWAP3 SWAP1 SWAP2 ADD SWAP1 PUSH2 0x2076 JUMP JUMPDEST ADD MLOAD SWAP1 POP CODESIZE DUP1 PUSH2 0xB6C JUMP JUMPDEST SWAP3 POP PUSH1 0x8 DUP5 ADD PUSH1 0x0 MSTORE PUSH1 0x20 PUSH1 0x0 KECCAK256 SWAP1 PUSH1 0x0 SWAP4 JUMPDEST PUSH1 0x1F NOT DUP5 AND DUP6 LT PUSH2 0x2137 JUMPI PUSH1 0x1 SWAP5 POP DUP4 PUSH1 0x1F NOT DUP2 AND LT PUSH2 0x211E JUMPI JUMPDEST POP POP POP DUP2 SHL ADD PUSH1 0x8 DUP3 ADD SSTORE PUSH2 0xB84 JUMP JUMPDEST ADD MLOAD PUSH1 0x0 NOT PUSH1 0xF8 DUP5 PUSH1 0x3 SHL AND SHR NOT AND SWAP1 SSTORE CODESIZE DUP1 DUP1 PUSH2 0x210E JUMP JUMPDEST DUP2 DUP2 ADD MLOAD DUP4 SSTORE PUSH1 0x20 SWAP5 DUP6 ADD SWAP5 PUSH1 0x1 SWAP1 SWAP4 ADD SWAP3 SWAP1 SWAP2 ADD SWAP1 PUSH2 0x20F3 JUMP JUMPDEST ADD MLOAD SWAP1 POP CODESIZE DUP1 PUSH2 0xB08 JUMP JUMPDEST SWAP3 POP PUSH1 0x7 DUP5 ADD PUSH1 0x0 MSTORE PUSH1 0x20 PUSH1 0x0 KECCAK256 SWAP1 PUSH1 0x0 SWAP4 JUMPDEST PUSH1 0x1F NOT DUP5 AND DUP6 LT PUSH2 0x21B4 JUMPI PUSH1 0x1 SWAP5 POP DUP4 PUSH1 0x1F NOT DUP2 AND LT PUSH2 0x219B JUMPI JUMPDEST POP POP POP DUP2 SHL ADD PUSH1 0x7 DUP3 ADD SSTORE PUSH2 0xB20 JUMP JUMPDEST ADD MLOAD PUSH1 0x0 NOT PUSH1 0xF8 DUP5 PUSH1 0x3 SHL AND SHR NOT AND SWAP1 SSTORE CODESIZE DUP1 DUP1 PUSH2 0x218B JUMP JUMPDEST DUP2 DUP2 ADD MLOAD DUP4 SSTORE PUSH1 0x20 SWAP5 DUP6 ADD SWAP5 PUSH1 0x1 SWAP1 SWAP4 ADD SWAP3 SWAP1 SWAP2 ADD SWAP1 PUSH2 0x2170 JUMP JUMPDEST ADD MLOAD SWAP1 POP CODESIZE DUP1 PUSH2 0xAA5 JUMP JUMPDEST SWAP3 POP PUSH1 0x6 DUP5 ADD PUSH1 0x0 MSTORE PUSH1 0x20 PUSH1 0x0 KECCAK256 SWAP1 PUSH1 0x0 SWAP4 JUMPDEST PUSH1 0x1F NOT DUP5 AND DUP6 LT PUSH2 0x2231 JUMPI PUSH1 0x1 SWAP5 POP DUP4 PUSH1 0x1F NOT DUP2 AND LT PUSH2 0x2218 JUMPI JUMPDEST POP POP POP DUP2 SHL ADD PUSH1 0x6 DUP3 ADD SSTORE PUSH2 0xABD JUMP JUMPDEST ADD MLOAD PUSH1 0x0 NOT PUSH1 0xF8 DUP5 PUSH1 0x3 SHL AND SHR NOT AND SWAP1 SSTORE CODESIZE DUP1 DUP1 PUSH2 0x2208 JUMP JUMPDEST DUP2 DUP2 ADD MLOAD DUP4 SSTORE PUSH1 0x20 SWAP5 DUP6 ADD SWAP5 PUSH1 0x1 SWAP1 SWAP4 ADD SWAP3 SWAP1 SWAP2 ADD SWAP1 PUSH2 0x21ED JUMP JUMPDEST ADD MLOAD SWAP1 POP CODESIZE DUP1 PUSH2 0xA42 JUMP JUMPDEST SWAP3 POP PUSH1 0x5 DUP5 ADD PUSH1 0x0 MSTORE PUSH1 0x20 PUSH1 0x0 KECCAK256 SWAP1 PUSH1 0x0 SWAP4 JUMPDEST PUSH1 0x1F NOT DUP5 AND DUP6 LT PUSH2 0x22AE JUMPI PUSH1 0x1 SWAP5 POP DUP4 PUSH1 0x1F NOT DUP2 AND LT PUSH2 0x2295 JUMPI JUMPDEST POP POP POP DUP2 SHL ADD PUSH1 0x5 DUP3 ADD SSTORE PUSH2 0xA5A JUMP JUMPDEST ADD MLOAD PUSH1 0x0 NOT PUSH1 0xF8 DUP5 PUSH1 0x3 SHL AND SHR NOT AND SWAP1 SSTORE CODESIZE DUP1 DUP1 PUSH2 0x2285 JUMP JUMPDEST DUP2 DUP2 ADD MLOAD DUP4 SSTORE PUSH1 0x20 SWAP5 DUP6 ADD SWAP5 PUSH1 0x1 SWAP1 SWAP4 ADD SWAP3 SWAP1 SWAP2 ADD SWAP1 PUSH2 0x226A JUMP JUMPDEST ADD MLOAD SWAP1 POP CODESIZE DUP1 PUSH2 0x9DF JUMP JUMPDEST SWAP3 POP PUSH1 0x4 DUP5 ADD PUSH1 0x0 MSTORE PUSH1 0x20 PUSH1 0x0 KECCAK256 SWAP1 PUSH1 0x0 SWAP4 JUMPDEST PUSH1 0x1F NOT DUP5 AND DUP6 LT PUSH2 0x232B JUMPI PUSH1 0x1 SWAP5 POP DUP4 PUSH1 0x1F NOT DUP2 AND LT PUSH2 0x2312 JUMPI JUMPDEST POP POP POP DUP2 SHL ADD PUSH1 0x4 DUP3 ADD SSTORE PUSH2 0x9F7 JUMP JUMPDEST ADD MLOAD PUSH1 0x0 NOT PUSH1 0xF8 DUP5 PUSH1 0x3 SHL AND SHR NOT AND SWAP1 SSTORE CODESIZE DUP1 DUP1 PUSH2 0x2302 JUMP JUMPDEST DUP2 DUP2 ADD MLOAD DUP4 SSTORE PUSH1 0x20 SWAP5 DUP6 ADD SWAP5 PUSH1 0x1 SWAP1 SWAP4 ADD SWAP3 SWAP1 SWAP2 ADD SWAP1 PUSH2 0x22E7 JUMP JUMPDEST ADD MLOAD SWAP1 POP CODESIZE DUP1 PUSH2 0x97C JUMP JUMPDEST SWAP3 POP PUSH1 0x3 DUP5 ADD PUSH1 0x0 MSTORE PUSH1 0x20 PUSH1 0x0 KECCAK256 SWAP1 PUSH1 0x0 SWAP4 JUMPDEST PUSH1 0x1F NOT DUP5 AND DUP6 LT PUSH2 0x23A8 JUMPI PUSH1 0x1 SWAP5 POP DUP4 PUSH1 0x1F NOT DUP2 AND LT PUSH2 0x238F JUMPI JUMPDEST POP POP POP DUP2 SHL ADD PUSH1 0x3 DUP3 ADD SSTORE PUSH2 0x994 JUMP JUMPDEST ADD MLOAD PUSH1 0x0 NOT PUSH1 0xF8 DUP5 PUSH1 0x3 SHL AND SHR NOT AND SWAP1 SSTORE CODESIZE DUP1 DUP1 PUSH2 0x237F JUMP JUMPDEST DUP2 DUP2 ADD MLOAD DUP4 SSTORE PUSH1 0x20 SWAP5 DUP6 ADD SWAP5 PUSH1 0x1 SWAP1 SWAP4 ADD SWAP3 SWAP1 SWAP2 ADD SWAP1 PUSH2 0x2364 JUMP JUMPDEST ADD MLOAD SWAP1 POP CODESIZE DUP1 PUSH2 0x919 JUMP JUMPDEST SWAP3 POP PUSH1 0x2 DUP5 ADD PUSH1 0x0 MSTORE PUSH1 0x20 PUSH1 0x0 KECCAK256 SWAP1 PUSH1 0x0 SWAP4 JUMPDEST PUSH1 0x1F NOT DUP5 AND DUP6 LT PUSH2 0x2425 JUMPI PUSH1 0x1 SWAP5 POP DUP4 PUSH1 0x1F NOT DUP2 AND LT PUSH2 0x240C JUMPI JUMPDEST POP POP POP DUP2 SHL ADD PUSH1 0x2 DUP3 ADD SSTORE PUSH2 0x931 JUMP JUMPDEST ADD MLOAD PUSH1 0x0 NOT PUSH1 0xF8 DUP5 PUSH1 0x3 SHL AND SHR NOT AND SWAP1 SSTORE CODESIZE DUP1 DUP1 PUSH2 0x23FC JUMP JUMPDEST DUP2 DUP2 ADD MLOAD DUP4 SSTORE PUSH1 0x20 SWAP5 DUP6 ADD SWAP5 PUSH1 0x1 SWAP1 SWAP4 ADD SWAP3 SWAP1 SWAP2 ADD SWAP1 PUSH2 0x23E1 JUMP JUMPDEST ADD MLOAD SWAP1 POP CODESIZE DUP1 PUSH2 0x8B6 JUMP JUMPDEST SWAP3 POP PUSH1 0x1 DUP5 ADD PUSH1 0x0 MSTORE PUSH1 0x20 PUSH1 0x0 KECCAK256 SWAP1 PUSH1 0x0 SWAP4 JUMPDEST PUSH1 0x1F NOT DUP5 AND DUP6 LT PUSH2 0x24A2 JUMPI PUSH1 0x1 SWAP5 POP DUP4 PUSH1 0x1F NOT DUP2 AND LT PUSH2 0x2489 JUMPI JUMPDEST POP POP POP DUP2 SHL ADD PUSH1 0x1 DUP3 ADD SSTORE PUSH2 0x8CE JUMP JUMPDEST ADD MLOAD PUSH1 0x0 NOT PUSH1 0xF8 DUP5 PUSH1 0x3 SHL AND SHR NOT AND SWAP1 SSTORE CODESIZE DUP1 DUP1 PUSH2 0x2479 JUMP JUMPDEST DUP2 DUP2 ADD MLOAD DUP4 SSTORE PUSH1 0x20 SWAP5 DUP6 ADD SWAP5 PUSH1 0x1 SWAP1 SWAP4 ADD SWAP3 SWAP1 SWAP2 ADD SWAP1 PUSH2 0x245E JUMP JUMPDEST ADD MLOAD SWAP1 POP CODESIZE DUP1 PUSH2 0x856 JUMP JUMPDEST SWAP3 POP DUP4 PUSH1 0x0 MSTORE PUSH1 0x20 PUSH1 0x0 KECCAK256 SWAP1 PUSH1 0x0 SWAP4 JUMPDEST PUSH1 0x1F NOT DUP5 AND DUP6 LT PUSH2 0x2519 JUMPI PUSH1 0x1 SWAP5 POP DUP4 PUSH1 0x1F NOT DUP2 AND LT PUSH2 0x2500 JUMPI JUMPDEST POP POP POP DUP2 SHL ADD DUP2 SSTORE PUSH2 0x86B JUMP JUMPDEST ADD MLOAD PUSH1 0x0 NOT PUSH1 0xF8 DUP5 PUSH1 0x3 SHL AND SHR NOT AND SWAP1 SSTORE CODESIZE DUP1 DUP1 PUSH2 0x24F3 JUMP JUMPDEST DUP2 DUP2 ADD MLOAD DUP4 SSTORE PUSH1 0x20 SWAP5 DUP6 ADD SWAP5 PUSH1 0x1 SWAP1 SWAP4 ADD SWAP3 SWAP1 SWAP2 ADD SWAP1 PUSH2 0x24D8 JUMP JUMPDEST PUSH1 0x40 MLOAD PUSH3 0x461BCD PUSH1 0xE5 SHL DUP2 MSTORE PUSH1 0x20 PUSH1 0x4 DUP3 ADD MSTORE PUSH1 0xB PUSH1 0x24 DUP3 ADD MSTORE PUSH11 0x139BDD081CDD195DD85C99 PUSH1 0xAA SHL PUSH1 0x44 DUP3 ADD MSTORE PUSH1 0x64 SWAP1 REVERT JUMPDEST PUSH1 0x0 DUP1 REVERT JUMPDEST CALLVALUE PUSH2 0x2567 JUMPI PUSH1 0x20 CALLDATASIZE PUSH1 0x3 NOT ADD SLT PUSH2 0x2567 JUMPI PUSH1 0x4 CALLDATALOAD PUSH1 0x1 PUSH1 0x1 PUSH1 0x40 SHL SUB DUP2 GT PUSH2 0x2567 JUMPI CALLDATASIZE PUSH1 0x23 DUP3 ADD SLT ISZERO PUSH2 0x2567 JUMPI CALLDATASIZE DUP2 PUSH1 0x4 ADD CALLDATALOAD SWAP2 PUSH1 0x24 ADD SWAP2 PUSH2 0x25AD SWAP3 PUSH2 0x335B JUMP JUMPDEST PUSH1 0x40 MLOAD DUP2 DUP2 DUP1 SWAP4 MLOAD PUSH1 0x20 DUP2 SWAP4 ADD SWAP2 PUSH2 0x25C4 SWAP3 PUSH2 0x32E6 JUMP JUMPDEST DUP2 ADD PUSH1 0x1 DUP2 MSTORE SUB PUSH1 0x20 ADD SWAP1 KECCAK256 DUP1 PUSH2 0x960 MSTORE PUSH2 0x25DE SWAP1 PUSH2 0x3240 JUMP JUMPDEST PUSH1 0x80 MSTORE PUSH2 0x960 MLOAD PUSH1 0x1 ADD PUSH2 0x25F1 SWAP1 PUSH2 0x3240 JUMP JUMPDEST PUSH2 0x960 MLOAD PUSH1 0x2 ADD PUSH2 0x2601 SWAP1 PUSH2 0x3240 JUMP JUMPDEST PUSH2 0x4C0 MSTORE PUSH2 0x960 MLOAD PUSH1 0x3 ADD PUSH2 0x2615 SWAP1 PUSH2 0x3240 JUMP JUMPDEST PUSH2 0x760 MSTORE PUSH2 0x960 MLOAD PUSH1 0x4 ADD PUSH2 0x2629 SWAP1 PUSH2 0x3240 JUMP JUMPDEST PUSH2 0x960 MLOAD PUSH1 0x5 ADD PUSH2 0x2639 SWAP1 PUSH2 0x3240 JUMP JUMPDEST PUSH2 0x960 MLOAD PUSH1 0x6 ADD PUSH2 0x2649 SWAP1 PUSH2 0x3240 JUMP JUMPDEST PUSH2 0x960 MLOAD PUSH1 0x7 ADD PUSH2 0x2659 SWAP1 PUSH2 0x3240 JUMP JUMPDEST PUSH2 0x960 MLOAD PUSH1 0x8 ADD PUSH2 0x2669 SWAP1 PUSH2 0x3240 JUMP JUMPDEST PUSH2 0x960 MLOAD PUSH1 0x9 ADD PUSH2 0x2679 SWAP1 PUSH2 0x3240 JUMP JUMPDEST PUSH2 0x960 MLOAD PUSH1 0xA ADD PUSH2 0x2689 SWAP1 PUSH2 0x3240 JUMP JUMPDEST SWAP2 PUSH2 0x960 MLOAD PUSH1 0xB ADD PUSH2 0x269A SWAP1 PUSH2 0x3240 JUMP JUMPDEST SWAP4 PUSH2 0x960 MLOAD PUSH1 0xC ADD PUSH2 0x26AB SWAP1 PUSH2 0x3240 JUMP JUMPDEST SWAP6 PUSH2 0x960 MLOAD PUSH1 0xD ADD PUSH2 0x26BC SWAP1 PUSH2 0x3240 JUMP JUMPDEST SWAP8 PUSH2 0x960 MLOAD PUSH1 0xE ADD PUSH2 0x26CD SWAP1 PUSH2 0x3240 JUMP JUMPDEST SWAP10 PUSH2 0x960 MLOAD PUSH1 0xF ADD PUSH2 0x26DE SWAP1 PUSH2 0x3240 JUMP JUMPDEST SWAP12 PUSH2 0x960 MLOAD PUSH1 0x10 ADD PUSH2 0x26EF SWAP1 PUSH2 0x3240 JUMP JUMPDEST PUSH2 0x880 MSTORE PUSH2 0x960 MLOAD PUSH1 0x11 ADD PUSH2 0x2703 SWAP1 PUSH2 0x3240 JUMP JUMPDEST PUSH2 0x340 MSTORE PUSH2 0x960 MLOAD PUSH1 0x12 ADD PUSH2 0x2717 SWAP1 PUSH2 0x3240 JUMP JUMPDEST PUSH2 0x200 MSTORE PUSH2 0x960 MLOAD PUSH1 0x13 ADD PUSH2 0x272B SWAP1 PUSH2 0x3240 JUMP JUMPDEST PUSH2 0x8E0 MSTORE PUSH2 0x960 MLOAD PUSH1 0x14 ADD PUSH2 0x273F SWAP1 PUSH2 0x3240 JUMP JUMPDEST PUSH2 0x9C0 MSTORE PUSH2 0x960 MLOAD PUSH1 0x15 ADD PUSH2 0x2753 SWAP1 PUSH2 0x3240 JUMP JUMPDEST PUSH2 0x1C0 MSTORE PUSH2 0x960 MLOAD PUSH1 0x16 ADD PUSH2 0x2767 SWAP1 PUSH2 0x3240 JUMP JUMPDEST PUSH2 0x480 MSTORE PUSH2 0x960 MLOAD PUSH1 0x17 ADD PUSH2 0x277B SWAP1 PUSH2 0x3240 JUMP JUMPDEST PUSH2 0x5C0 MSTORE PUSH2 0x960 MLOAD PUSH1 0x18 ADD PUSH2 0x278F SWAP1 PUSH2 0x3240 JUMP JUMPDEST PUSH1 0xC0 MSTORE PUSH2 0x960 MLOAD PUSH1 0x19 ADD PUSH2 0x27A2 SWAP1 PUSH2 0x3240 JUMP JUMPDEST PUSH2 0x740 MSTORE PUSH2 0x960 MLOAD PUSH1 0x1A ADD PUSH2 0x27B6 SWAP1 PUSH2 0x3240 JUMP JUMPDEST PUSH2 0x320 MSTORE PUSH2 0x960 MLOAD PUSH1 0x1B ADD PUSH2 0x27CA SWAP1 PUSH2 0x3240 JUMP JUMPDEST PUSH2 0x920 MSTORE PUSH1 0x40 MLOAD DUP1 PUSH2 0x400 MSTORE PUSH2 0x380 DUP1 SWAP2 MSTORE PUSH2 0x400 MLOAD ADD PUSH1 0x80 MLOAD SWAP1 PUSH2 0x27EE SWAP2 PUSH2 0x3309 JUMP JUMPDEST PUSH2 0x400 MLOAD DUP1 DUP3 SUB SWAP1 PUSH1 0x20 ADD MSTORE PUSH2 0x2803 SWAP2 PUSH2 0x3309 JUMP JUMPDEST PUSH2 0x400 MLOAD DUP1 DUP3 SUB SWAP1 PUSH1 0x40 ADD MSTORE PUSH2 0x4C0 MLOAD SWAP1 PUSH2 0x281D SWAP2 PUSH2 0x3309 JUMP JUMPDEST PUSH2 0x400 MLOAD DUP1 DUP3 SUB SWAP1 PUSH1 0x60 ADD MSTORE PUSH2 0x760 MLOAD SWAP1 PUSH2 0x2837 SWAP2 PUSH2 0x3309 JUMP JUMPDEST PUSH2 0x400 MLOAD DUP1 DUP3 SUB SWAP1 PUSH1 0x80 ADD MSTORE PUSH2 0x284C SWAP2 PUSH2 0x3309 JUMP JUMPDEST PUSH2 0x400 MLOAD DUP1 DUP3 SUB SWAP1 PUSH1 0xA0 ADD MSTORE PUSH2 0x2861 SWAP2 PUSH2 0x3309 JUMP JUMPDEST PUSH2 0x400 MLOAD DUP1 DUP3 SUB SWAP1 PUSH1 0xC0 ADD MSTORE PUSH2 0x2876 SWAP2 PUSH2 0x3309 JUMP JUMPDEST PUSH2 0x400 MLOAD DUP1 DUP3 SUB SWAP1 PUSH1 0xE0 ADD MSTORE PUSH2 0x288B SWAP2 PUSH2 0x3309 JUMP JUMPDEST PUSH2 0x400 MLOAD DUP1 DUP3 SUB SWAP1 PUSH2 0x100 ADD MSTORE PUSH2 0x28A1 SWAP2 PUSH2 0x3309 JUMP JUMPDEST PUSH2 0x400 MLOAD DUP1 DUP3 SUB SWAP1 PUSH2 0x120 ADD MSTORE PUSH2 0x28B7 SWAP2 PUSH2 0x3309 JUMP JUMPDEST PUSH2 0x400 MLOAD DUP1 DUP3 SUB SWAP1 PUSH2 0x140 ADD MSTORE PUSH2 0x28CD SWAP2 PUSH2 0x3309 JUMP JUMPDEST PUSH2 0x400 MLOAD DUP1 DUP3 SUB SWAP1 PUSH2 0x160 ADD MSTORE PUSH2 0x28E3 SWAP2 PUSH2 0x3309 JUMP JUMPDEST PUSH2 0x400 MLOAD DUP1 DUP3 SUB SWAP1 PUSH2 0x180 ADD MSTORE PUSH2 0x28F9 SWAP2 PUSH2 0x3309 JUMP JUMPDEST PUSH2 0x400 MLOAD DUP1 DUP3 SUB SWAP1 PUSH2 0x1A0 ADD MSTORE PUSH2 0x290F SWAP2 PUSH2 0x3309 JUMP JUMPDEST PUSH2 0x400 MLOAD DUP1 DUP3 SUB SWAP1 PUSH2 0x1C0 ADD MSTORE PUSH2 0x2925 SWAP2 PUSH2 0x3309 JUMP JUMPDEST PUSH2 0x400 MLOAD DUP1 DUP3 SUB SWAP1 PUSH2 0x1E0 ADD MSTORE PUSH2 0x293B SWAP2 PUSH2 0x3309 JUMP JUMPDEST PUSH2 0x400 MLOAD DUP1 DUP3 SUB SWAP1 PUSH2 0x200 ADD MSTORE PUSH2 0x880 MLOAD SWAP1 PUSH2 0x2956 SWAP2 PUSH2 0x3309 JUMP JUMPDEST PUSH2 0x400 MLOAD DUP1 DUP3 SUB SWAP1 PUSH2 0x220 ADD MSTORE PUSH2 0x340 MLOAD SWAP1 PUSH2 0x2971 SWAP2 PUSH2 0x3309 JUMP JUMPDEST PUSH2 0x400 MLOAD DUP1 DUP3 SUB SWAP1 PUSH2 0x240 ADD MSTORE PUSH2 0x200 MLOAD SWAP1 PUSH2 0x298C SWAP2 PUSH2 0x3309 JUMP JUMPDEST PUSH2 0x400 MLOAD DUP1 DUP3 SUB SWAP1 PUSH2 0x260 ADD MSTORE PUSH2 0x8E0 MLOAD SWAP1 PUSH2 0x29A7 SWAP2 PUSH2 0x3309 JUMP JUMPDEST PUSH2 0x400 MLOAD DUP1 DUP3 SUB SWAP1 PUSH2 0x280 ADD MSTORE PUSH2 0x9C0 MLOAD SWAP1 PUSH2 0x29C2 SWAP2 PUSH2 0x3309 JUMP JUMPDEST PUSH2 0x400 MLOAD DUP1 DUP3 SUB SWAP1 PUSH2 0x2A0 ADD MSTORE PUSH2 0x1C0 MLOAD SWAP1 PUSH2 0x29DD SWAP2 PUSH2 0x3309 JUMP JUMPDEST PUSH2 0x400 MLOAD DUP1 DUP3 SUB SWAP1 PUSH2 0x2C0 ADD MSTORE PUSH2 0x480 MLOAD SWAP1 PUSH2 0x29F8 SWAP2 PUSH2 0x3309 JUMP JUMPDEST PUSH2 0x400 MLOAD DUP1 DUP3 SUB SWAP1 PUSH2 0x2E0 ADD MSTORE PUSH2 0x5C0 MLOAD SWAP1 PUSH2 0x2A13 SWAP2 PUSH2 0x3309 JUMP JUMPDEST PUSH2 0x400 MLOAD DUP1 DUP3 SUB SWAP1 PUSH2 0x300 ADD MSTORE PUSH1 0xC0 MLOAD SWAP1 PUSH2 0x2A2D SWAP2 PUSH2 0x3309 JUMP JUMPDEST PUSH2 0x400 MLOAD DUP1 DUP3 SUB SWAP1 PUSH2 0x320 ADD MSTORE PUSH2 0x740 MLOAD SWAP1 PUSH2 0x2A48 SWAP2 PUSH2 0x3309 JUMP JUMPDEST PUSH2 0x400 MLOAD DUP1 DUP3 SUB SWAP1 PUSH2 0x340 ADD MSTORE PUSH2 0x320 MLOAD SWAP1 PUSH2 0x2A63 SWAP2 PUSH2 0x3309 JUMP JUMPDEST PUSH2 0x400 MLOAD DUP1 DUP3 SUB SWAP1 PUSH2 0x360 ADD MSTORE PUSH2 0x400 MLOAD SWAP1 PUSH2 0x920 MLOAD SWAP1 PUSH2 0x2A83 SWAP2 PUSH2 0x3309 JUMP JUMPDEST SUB PUSH2 0x400 MLOAD RETURN JUMPDEST CALLVALUE PUSH2 0x2567 JUMPI PUSH1 0x0 CALLDATASIZE PUSH1 0x3 NOT ADD SLT PUSH2 0x2567 JUMPI PUSH1 0x20 PUSH1 0x2 SLOAD PUSH1 0x40 MLOAD SWAP1 DUP2 MSTORE RETURN JUMPDEST CALLVALUE PUSH2 0x2567 JUMPI PUSH1 0x20 CALLDATASIZE PUSH1 0x3 NOT ADD SLT PUSH2 0x2567 JUMPI PUSH1 0x4 CALLDATALOAD PUSH1 0x1 PUSH1 0x1 PUSH1 0x40 SHL SUB DUP2 GT PUSH2 0x2567 JUMPI PUSH2 0x2AD8 SWAP1 CALLDATASIZE SWAP1 PUSH1 0x4 ADD PUSH2 0x332E JUMP JUMPDEST SWAP1 PUSH1 0x40 MLOAD PUSH2 0x2AE5 DUP2 PUSH2 0x3203 JUMP JUMPDEST PUSH1 0x60 DUP2 MSTORE PUSH1 0x20 DUP2 ADD PUSH1 0x60 SWAP1 MSTORE PUSH1 0x40 DUP2 ADD PUSH1 0x60 SWAP1 MSTORE PUSH1 0x60 DUP2 ADD PUSH1 0x60 SWAP1 MSTORE PUSH1 0x80 DUP2 ADD PUSH1 0x60 SWAP1 MSTORE PUSH1 0xA0 DUP2 ADD PUSH1 0x60 SWAP1 MSTORE PUSH1 0xC0 DUP2 ADD PUSH1 0x60 SWAP1 MSTORE PUSH1 0xE0 DUP2 ADD PUSH1 0x60 SWAP1 MSTORE PUSH2 0x100 DUP2 ADD PUSH1 0x60 SWAP1 MSTORE PUSH2 0x120 DUP2 ADD PUSH1 0x60 SWAP1 MSTORE PUSH2 0x140 DUP2 ADD PUSH1 0x60 SWAP1 MSTORE PUSH2 0x160 DUP2 ADD PUSH1 0x60 SWAP1 MSTORE PUSH2 0x180 DUP2 ADD PUSH1 0x60 SWAP1 MSTORE PUSH2 0x1A0 DUP2 ADD PUSH1 0x60 SWAP1 MSTORE PUSH2 0x1C0 DUP2 ADD PUSH1 0x60 SWAP1 MSTORE PUSH2 0x1E0 DUP2 ADD PUSH1 0x60 SWAP1 MSTORE PUSH2 0x200 DUP2 ADD PUSH1 0x60 SWAP1 MSTORE PUSH2 0x220 DUP2 ADD PUSH1 0x60 SWAP1 MSTORE PUSH2 0x240 DUP2 ADD PUSH1 0x60 SWAP1 MSTORE PUSH2 0x260 DUP2 ADD PUSH1 0x60 SWAP1 MSTORE PUSH2 0x280 DUP2 ADD PUSH1 0x60 SWAP1 MSTORE PUSH2 0x2A0 DUP2 ADD PUSH1 0x60 SWAP1 MSTORE PUSH2 0x2C0 DUP2 ADD PUSH1 0x60 SWAP1 MSTORE PUSH2 0x2E0 DUP2 ADD PUSH1 0x60 SWAP1 MSTORE PUSH2 0x300 DUP2 ADD PUSH1 0x60 SWAP1 MSTORE PUSH2 0x320 DUP2 ADD PUSH1 0x60 SWAP1 MSTORE PUSH2 0x340 DUP2 ADD PUSH1 0x60 SWAP1 MSTORE PUSH2 0x360 ADD PUSH1 0x60 SWAP1 MSTORE DUP2 PUSH1 0x40 MLOAD SWAP3 DUP4 SWAP3 DUP4 CALLDATACOPY DUP2 ADD PUSH1 0x1 DUP2 MSTORE SUB PUSH1 0x20 ADD SWAP1 KECCAK256 PUSH1 0x40 MLOAD SWAP1 PUSH2 0x2BF6 DUP3 PUSH2 0x3203 JUMP JUMPDEST PUSH2 0x2BFF DUP2 PUSH2 0x3240 JUMP JUMPDEST DUP3 MSTORE PUSH2 0x2C0D PUSH1 0x1 DUP3 ADD PUSH2 0x3240 JUMP JUMPDEST PUSH1 0x20 DUP4 ADD MSTORE PUSH2 0x2C1E PUSH1 0x2 DUP3 ADD PUSH2 0x3240 JUMP JUMPDEST PUSH1 0x40 DUP4 ADD MSTORE PUSH2 0x2C2F PUSH1 0x3 DUP3 ADD PUSH2 0x3240 JUMP JUMPDEST PUSH1 0x60 DUP4 ADD MSTORE PUSH2 0x2C40 PUSH1 0x4 DUP3 ADD PUSH2 0x3240 JUMP JUMPDEST PUSH1 0x80 DUP4 ADD MSTORE PUSH2 0x2C51 PUSH1 0x5 DUP3 ADD PUSH2 0x3240 JUMP JUMPDEST PUSH1 0xA0 DUP4 ADD MSTORE PUSH2 0x2C62 PUSH1 0x6 DUP3 ADD PUSH2 0x3240 JUMP JUMPDEST PUSH1 0xC0 DUP4 ADD MSTORE PUSH2 0x2C73 PUSH1 0x7 DUP3 ADD PUSH2 0x3240 JUMP JUMPDEST PUSH1 0xE0 DUP4 ADD MSTORE PUSH2 0x2C84 PUSH1 0x8 DUP3 ADD PUSH2 0x3240 JUMP JUMPDEST PUSH2 0x100 DUP4 ADD MSTORE PUSH2 0x2C96 PUSH1 0x9 DUP3 ADD PUSH2 0x3240 JUMP JUMPDEST PUSH2 0x120 DUP4 ADD MSTORE PUSH2 0x2CA8 PUSH1 0xA DUP3 ADD PUSH2 0x3240 JUMP JUMPDEST PUSH2 0x140 DUP4 ADD MSTORE PUSH2 0x2CBA PUSH1 0xB DUP3 ADD PUSH2 0x3240 JUMP JUMPDEST PUSH2 0x160 DUP4 ADD MSTORE PUSH2 0x2CCC PUSH1 0xC DUP3 ADD PUSH2 0x3240 JUMP JUMPDEST PUSH2 0x180 DUP4 ADD MSTORE PUSH2 0x2CDE PUSH1 0xD DUP3 ADD PUSH2 0x3240 JUMP JUMPDEST PUSH2 0x1A0 DUP4 ADD MSTORE PUSH2 0x2CF0 PUSH1 0xE DUP3 ADD PUSH2 0x3240 JUMP JUMPDEST PUSH2 0x1C0 DUP4 ADD MSTORE PUSH2 0x2D02 PUSH1 0xF DUP3 ADD PUSH2 0x3240 JUMP JUMPDEST PUSH2 0x1E0 DUP4 ADD MSTORE PUSH2 0x2D14 PUSH1 0x10 DUP3 ADD PUSH2 0x3240 JUMP JUMPDEST PUSH2 0x200 DUP4 ADD MSTORE PUSH2 0x2D26 PUSH1 0x11 DUP3 ADD PUSH2 0x3240 JUMP JUMPDEST PUSH2 0x220 DUP4 ADD MSTORE PUSH2 0x2D38 PUSH1 0x12 DUP3 ADD PUSH2 0x3240 JUMP JUMPDEST PUSH2 0x240 DUP4 ADD MSTORE PUSH2 0x2D4A PUSH1 0x13 DUP3 ADD PUSH2 0x3240 JUMP JUMPDEST PUSH2 0x260 DUP4 ADD MSTORE PUSH2 0x2D5C PUSH1 0x14 DUP3 ADD PUSH2 0x3240 JUMP JUMPDEST PUSH2 0x280 DUP4 ADD MSTORE PUSH2 0x2D6E PUSH1 0x15 DUP3 ADD PUSH2 0x3240 JUMP JUMPDEST PUSH2 0x2A0 DUP4 ADD MSTORE PUSH2 0x2D80 PUSH1 0x16 DUP3 ADD PUSH2 0x3240 JUMP JUMPDEST PUSH2 0x2C0 DUP4 ADD MSTORE PUSH2 0x2D92 PUSH1 0x17 DUP3 ADD PUSH2 0x3240 JUMP JUMPDEST PUSH2 0x2E0 DUP4 ADD MSTORE PUSH2 0x2DA4 PUSH1 0x18 DUP3 ADD PUSH2 0x3240 JUMP JUMPDEST PUSH2 0x300 DUP4 ADD MSTORE PUSH2 0x2DB6 PUSH1 0x19 DUP3 ADD PUSH2 0x3240 JUMP JUMPDEST PUSH2 0x320 DUP4 ADD MSTORE PUSH2 0x2DC8 PUSH1 0x1A DUP3 ADD PUSH2 0x3240 JUMP JUMPDEST PUSH2 0x340 DUP4 ADD MSTORE PUSH1 0x1B ADD PUSH2 0x2DDA SWAP1 PUSH2 0x3240 JUMP JUMPDEST PUSH2 0x360 DUP3 ADD MSTORE PUSH1 0x40 MLOAD DUP1 SWAP2 PUSH1 0x20 DUP3 MSTORE DUP1 MLOAD PUSH1 0x20 DUP4 ADD PUSH2 0x380 SWAP1 MSTORE PUSH2 0x3A0 DUP4 ADD PUSH2 0x2E02 SWAP2 PUSH2 0x3309 JUMP JUMPDEST PUSH1 0x20 DUP3 ADD MLOAD DUP4 DUP3 SUB PUSH1 0x1F NOT ADD PUSH1 0x40 DUP6 ADD MSTORE PUSH2 0x2E1D SWAP2 SWAP1 PUSH2 0x3309 JUMP JUMPDEST PUSH1 0x40 DUP3 ADD MLOAD DUP4 DUP3 SUB PUSH1 0x1F NOT ADD PUSH1 0x60 DUP6 ADD MSTORE PUSH2 0x2E38 SWAP2 SWAP1 PUSH2 0x3309 JUMP JUMPDEST PUSH1 0x60 DUP3 ADD MLOAD DUP4 DUP3 SUB PUSH1 0x1F NOT ADD PUSH1 0x80 DUP6 ADD MSTORE PUSH2 0x2E53 SWAP2 SWAP1 PUSH2 0x3309 JUMP JUMPDEST PUSH1 0x80 DUP3 ADD MLOAD DUP4 DUP3 SUB PUSH1 0x1F NOT ADD PUSH1 0xA0 DUP6 ADD MSTORE PUSH2 0x2E6E SWAP2 SWAP1 PUSH2 0x3309 JUMP JUMPDEST PUSH1 0xA0 DUP3 ADD MLOAD DUP4 DUP3 SUB PUSH1 0x1F NOT ADD PUSH1 0xC0 DUP6 ADD MSTORE PUSH2 0x2E89 SWAP2 SWAP1 PUSH2 0x3309 JUMP JUMPDEST PUSH1 0xC0 DUP3 ADD MLOAD DUP4 DUP3 SUB PUSH1 0x1F NOT ADD PUSH1 0xE0 DUP6 ADD MSTORE PUSH2 0x2EA4 SWAP2 SWAP1 PUSH2 0x3309 JUMP JUMPDEST PUSH1 0xE0 DUP3 ADD MLOAD DUP4 DUP3 SUB PUSH1 0x1F NOT ADD PUSH2 0x100 DUP6 ADD MSTORE PUSH2 0x2EC0 SWAP2 SWAP1 PUSH2 0x3309 JUMP JUMPDEST PUSH2 0x100 DUP3 ADD MLOAD DUP4 DUP3 SUB PUSH1 0x1F NOT ADD PUSH2 0x120 DUP6 ADD MSTORE PUSH2 0x2EDD SWAP2 SWAP1 PUSH2 0x3309 JUMP JUMPDEST PUSH2 0x120 DUP3 ADD MLOAD DUP4 DUP3 SUB PUSH1 0x1F NOT ADD PUSH2 0x140 DUP6 ADD MSTORE PUSH2 0x2EFA SWAP2 SWAP1 PUSH2 0x3309 JUMP JUMPDEST PUSH2 0x140 DUP3 ADD MLOAD DUP4 DUP3 SUB PUSH1 0x1F NOT ADD PUSH2 0x160 DUP6 ADD MSTORE PUSH2 0x2F17 SWAP2 SWAP1 PUSH2 0x3309 JUMP JUMPDEST PUSH2 0x160 DUP3 ADD MLOAD DUP4 DUP3 SUB PUSH1 0x1F NOT ADD PUSH2 0x180 DUP6 ADD MSTORE PUSH2 0x2F34 SWAP2 SWAP1 PUSH2 0x3309 JUMP JUMPDEST PUSH2 0x180 DUP3 ADD MLOAD DUP4 DUP3 SUB PUSH1 0x1F NOT ADD PUSH2 0x1A0 DUP6 ADD MSTORE PUSH2 0x2F51 SWAP2 SWAP1 PUSH2 0x3309 JUMP JUMPDEST PUSH2 0x1A0 DUP3 ADD MLOAD DUP4 DUP3 SUB PUSH1 0x1F NOT ADD PUSH2 0x1C0 DUP6 ADD MSTORE PUSH2 0x2F6E SWAP2 SWAP1 PUSH2 0x3309 JUMP JUMPDEST PUSH2 0x1C0 DUP3 ADD MLOAD DUP4 DUP3 SUB PUSH1 0x1F NOT ADD PUSH2 0x1E0 DUP6 ADD MSTORE PUSH2 0x2F8B SWAP2 SWAP1 PUSH2 0x3309 JUMP JUMPDEST PUSH2 0x1E0 DUP3 ADD MLOAD DUP4 DUP3 SUB PUSH1 0x1F NOT ADD PUSH2 0x200 DUP6 ADD MSTORE PUSH2 0x2FA8 SWAP2 SWAP1 PUSH2 0x3309 JUMP JUMPDEST PUSH2 0x200 DUP3 ADD MLOAD DUP4 DUP3 SUB PUSH1 0x1F NOT ADD PUSH2 0x220 DUP6 ADD MSTORE PUSH2 0x2FC5 SWAP2 SWAP1 PUSH2 0x3309 JUMP JUMPDEST PUSH2 0x220 DUP3 ADD MLOAD DUP4 DUP3 SUB PUSH1 0x1F NOT ADD PUSH2 0x240 DUP6 ADD MSTORE PUSH2 0x2FE2 SWAP2 SWAP1 PUSH2 0x3309 JUMP JUMPDEST PUSH2 0x240 DUP3 ADD MLOAD DUP4 DUP3 SUB PUSH1 0x1F NOT ADD PUSH2 0x260 DUP6 ADD MSTORE PUSH2 0x2FFF SWAP2 SWAP1 PUSH2 0x3309 JUMP JUMPDEST PUSH2 0x260 DUP3 ADD MLOAD DUP4 DUP3 SUB PUSH1 0x1F NOT ADD PUSH2 0x280 DUP6 ADD MSTORE PUSH2 0x301C SWAP2 SWAP1 PUSH2 0x3309 JUMP JUMPDEST PUSH2 0x280 DUP3 ADD MLOAD DUP4 DUP3 SUB PUSH1 0x1F NOT ADD PUSH2 0x2A0 DUP6 ADD MSTORE PUSH2 0x3039 SWAP2 SWAP1 PUSH2 0x3309 JUMP JUMPDEST PUSH2 0x2A0 DUP3 ADD MLOAD DUP4 DUP3 SUB PUSH1 0x1F NOT ADD PUSH2 0x2C0 DUP6 ADD MSTORE PUSH2 0x3056 SWAP2 SWAP1 PUSH2 0x3309 JUMP JUMPDEST PUSH2 0x2C0 DUP3 ADD MLOAD DUP4 DUP3 SUB PUSH1 0x1F NOT ADD PUSH2 0x2E0 DUP6 ADD MSTORE PUSH2 0x3073 SWAP2 SWAP1 PUSH2 0x3309 JUMP JUMPDEST PUSH2 0x2E0 DUP3 ADD MLOAD DUP4 DUP3 SUB PUSH1 0x1F NOT ADD PUSH2 0x300 DUP6 ADD MSTORE PUSH2 0x3090 SWAP2 SWAP1 PUSH2 0x3309 JUMP JUMPDEST PUSH2 0x300 DUP3 ADD MLOAD DUP4 DUP3 SUB PUSH1 0x1F NOT ADD PUSH2 0x320 DUP6 ADD MSTORE PUSH2 0x30AD SWAP2 SWAP1 PUSH2 0x3309 JUMP JUMPDEST PUSH2 0x320 DUP3 ADD MLOAD DUP4 DUP3 SUB PUSH1 0x1F NOT ADD PUSH2 0x340 DUP6 ADD MSTORE PUSH2 0x30CA SWAP2 SWAP1 PUSH2 0x3309 JUMP JUMPDEST PUSH2 0x340 DUP3 ADD MLOAD DUP4 DUP3 SUB PUSH1 0x1F NOT ADD PUSH2 0x360 DUP6 ADD MSTORE PUSH2 0x30E7 SWAP2 SWAP1 PUSH2 0x3309 JUMP JUMPDEST SWAP1 PUSH2 0x360 ADD MLOAD SWAP1 PUSH1 0x1F NOT DUP4 DUP3 SUB ADD PUSH2 0x380 DUP5 ADD MSTORE PUSH2 0x3104 SWAP2 PUSH2 0x3309 JUMP JUMPDEST SUB SWAP1 RETURN JUMPDEST CALLVALUE PUSH2 0x2567 JUMPI PUSH1 0x0 CALLDATASIZE PUSH1 0x3 NOT ADD SLT PUSH2 0x2567 JUMPI PUSH1 0x0 SLOAD PUSH1 0x40 MLOAD PUSH1 0x1 PUSH1 0x1 PUSH1 0xA0 SHL SUB SWAP1 SWAP2 AND DUP2 MSTORE PUSH1 0x20 SWAP1 RETURN JUMPDEST CALLVALUE PUSH2 0x2567 JUMPI PUSH1 0x20 CALLDATASIZE PUSH1 0x3 NOT ADD SLT PUSH2 0x2567 JUMPI PUSH1 0x4 CALLDATALOAD PUSH1 0x2 SLOAD DUP2 LT ISZERO PUSH2 0x2567 JUMPI PUSH2 0x3158 SWAP1 PUSH2 0x317C JUMP JUMPDEST PUSH2 0x177A JUMPI PUSH2 0x3168 PUSH2 0x3104 SWAP2 PUSH2 0x3240 JUMP JUMPDEST PUSH1 0x40 MLOAD SWAP2 DUP3 SWAP2 PUSH1 0x20 DUP4 MSTORE PUSH1 0x20 DUP4 ADD SWAP1 PUSH2 0x3309 JUMP JUMPDEST PUSH1 0x2 SLOAD DUP2 LT ISZERO PUSH2 0x31B3 JUMPI PUSH1 0x2 PUSH1 0x0 MSTORE PUSH32 0x405787FA12A823E0F2B7631CC41B3BA8828B3321CA811111FA75CD3AA3BB5ACE ADD SWAP1 PUSH1 0x0 SWAP1 JUMP JUMPDEST PUSH4 0x4E487B71 PUSH1 0xE0 SHL PUSH1 0x0 MSTORE PUSH1 0x32 PUSH1 0x4 MSTORE PUSH1 0x24 PUSH1 0x0 REVERT JUMPDEST SWAP1 PUSH1 0x1 DUP3 DUP2 SHR SWAP3 AND DUP1 ISZERO PUSH2 0x31F9 JUMPI JUMPDEST PUSH1 0x20 DUP4 LT EQ PUSH2 0x31E3 JUMPI JUMP JUMPDEST PUSH4 0x4E487B71 PUSH1 0xE0 SHL PUSH1 0x0 MSTORE PUSH1 0x22 PUSH1 0x4 MSTORE PUSH1 0x24 PUSH1 0x0 REVERT JUMPDEST SWAP2 PUSH1 0x7F AND SWAP2 PUSH2 0x31D8 JUMP JUMPDEST PUSH2 0x380 DUP2 ADD SWAP1 DUP2 LT PUSH1 0x1 PUSH1 0x1 PUSH1 0x40 SHL SUB DUP3 GT OR PUSH2 0x1764 JUMPI PUSH1 0x40 MSTORE JUMP JUMPDEST SWAP1 PUSH1 0x1F DUP1 NOT SWAP2 ADD AND DUP2 ADD SWAP1 DUP2 LT PUSH1 0x1 PUSH1 0x1 PUSH1 0x40 SHL SUB DUP3 GT OR PUSH2 0x1764 JUMPI PUSH1 0x40 MSTORE JUMP JUMPDEST SWAP1 PUSH1 0x40 MLOAD SWAP2 DUP3 PUSH1 0x0 DUP3 SLOAD SWAP3 PUSH2 0x3254 DUP5 PUSH2 0x31C9 JUMP JUMPDEST SWAP1 DUP2 DUP5 MSTORE PUSH1 0x1 SWAP5 DUP6 DUP2 AND SWAP1 DUP2 PUSH1 0x0 EQ PUSH2 0x32C3 JUMPI POP PUSH1 0x1 EQ PUSH2 0x3280 JUMPI JUMPDEST POP POP PUSH2 0x327E SWAP3 POP SUB DUP4 PUSH2 0x321F JUMP JUMPDEST JUMP JUMPDEST SWAP1 SWAP4 SWAP2 POP PUSH1 0x0 MSTORE PUSH1 0x20 SWAP1 DUP2 PUSH1 0x0 KECCAK256 SWAP4 PUSH1 0x0 SWAP2 JUMPDEST DUP2 DUP4 LT PUSH2 0x32AB JUMPI POP POP PUSH2 0x327E SWAP4 POP DUP3 ADD ADD CODESIZE DUP1 PUSH2 0x3270 JUMP JUMPDEST DUP6 SLOAD DUP9 DUP5 ADD DUP6 ADD MSTORE SWAP5 DUP6 ADD SWAP5 DUP8 SWAP5 POP SWAP2 DUP4 ADD SWAP2 PUSH2 0x3293 JUMP JUMPDEST SWAP2 POP POP PUSH2 0x327E SWAP5 POP PUSH1 0x20 SWAP3 POP PUSH1 0xFF NOT AND DUP3 DUP5 ADD MSTORE ISZERO ISZERO PUSH1 0x5 SHL DUP3 ADD ADD CODESIZE DUP1 PUSH2 0x3270 JUMP JUMPDEST PUSH1 0x0 JUMPDEST DUP4 DUP2 LT PUSH2 0x32F9 JUMPI POP POP PUSH1 0x0 SWAP2 ADD MSTORE JUMP JUMPDEST DUP2 DUP2 ADD MLOAD DUP4 DUP3 ADD MSTORE PUSH1 0x20 ADD PUSH2 0x32E9 JUMP JUMPDEST SWAP1 PUSH1 0x20 SWAP2 PUSH2 0x3322 DUP2 MLOAD DUP1 SWAP3 DUP2 DUP6 MSTORE DUP6 DUP1 DUP7 ADD SWAP2 ADD PUSH2 0x32E6 JUMP JUMPDEST PUSH1 0x1F ADD PUSH1 0x1F NOT AND ADD ADD SWAP1 JUMP JUMPDEST SWAP2 DUP2 PUSH1 0x1F DUP5 ADD SLT ISZERO PUSH2 0x2567 JUMPI DUP3 CALLDATALOAD SWAP2 PUSH1 0x1 PUSH1 0x1 PUSH1 0x40 SHL SUB DUP4 GT PUSH2 0x2567 JUMPI PUSH1 0x20 DUP4 DUP2 DUP7 ADD SWAP6 ADD ADD GT PUSH2 0x2567 JUMPI JUMP JUMPDEST SWAP3 SWAP2 SWAP3 PUSH1 0x1 PUSH1 0x1 PUSH1 0x40 SHL SUB DUP3 GT PUSH2 0x1764 JUMPI PUSH1 0x40 MLOAD SWAP2 PUSH2 0x3384 PUSH1 0x1F DUP3 ADD PUSH1 0x1F NOT AND PUSH1 0x20 ADD DUP5 PUSH2 0x321F JUMP JUMPDEST DUP3 SWAP5 DUP2 DUP5 MSTORE DUP2 DUP4 ADD GT PUSH2 0x2567 JUMPI DUP3 DUP2 PUSH1 0x20 SWAP4 DUP5 PUSH1 0x0 SWAP7 ADD CALLDATACOPY ADD ADD MSTORE JUMP JUMPDEST SWAP1 PUSH1 0x1F DUP2 GT PUSH2 0x33AF JUMPI POP POP POP JUMP JUMPDEST PUSH1 0x0 SWAP2 DUP3 MSTORE PUSH1 0x20 DUP3 KECCAK256 SWAP1 PUSH1 0x20 PUSH1 0x1F DUP6 ADD PUSH1 0x5 SHR DUP4 ADD SWAP5 LT PUSH2 0x33EB JUMPI JUMPDEST PUSH1 0x1F ADD PUSH1 0x5 SHR ADD SWAP2 JUMPDEST DUP3 DUP2 LT PUSH2 0x33E0 JUMPI POP POP POP JUMP JUMPDEST DUP2 DUP2 SSTORE PUSH1 0x1 ADD PUSH2 0x33D4 JUMP JUMPDEST SWAP1 SWAP3 POP DUP3 SWAP1 PUSH2 0x33CB JUMP JUMPDEST SWAP1 DUP1 PUSH1 0x20 SWAP4 SWAP3 DUP2 DUP5 MSTORE DUP5 DUP5 ADD CALLDATACOPY PUSH1 0x0 DUP3 DUP3 ADD DUP5 ADD MSTORE PUSH1 0x1F ADD PUSH1 0x1F NOT AND ADD ADD SWAP1 JUMP INVALID LOG2 PUSH5 0x6970667358 0x22 SLT KECCAK256 DELEGATECALL BYTE PREVRANDAO SWAP9 DIV PUSH30 0x2340087CF14210E1BCB89C41250AC86470CF3FEA82B09716FC0F64736F6C PUSH4 0x43000814 STOP CALLER "},"methodIdentifiers":{"codices(string)":"dbc21424","getCodex(string)":"83361522","inscribeCodex(string,string,string,string,string,string,string,string,string,string,string,string,string,string,string,string,string,string,string,string,string,string,string,string,string,string,string,string,string)":"e7951524","keys(uint256)":"0cb6aaf1","steward()":"637eea19","totalCodices()":"c212d16b"}}}}}