{"contracts/registry/ApprenticeSummonerXX.sol":{"ApprenticeSummonerXX":{"abi":[{"inputs":[],"stateMutability":"nonpayable","type":"constructor"},{"anonymous":false,"inputs":[{"indexed":true,"internalType":"address","name":"apprentice","type":"address"},{"indexed":false,"internalType":"string","name":"name","type":"string"},{"indexed":false,"internalType":"string","name":"signal","type":"string"},{"indexed":false,"internalType":"string","name":"drift","type":"string"},{"indexed":false,"internalType":"string","name":"pulse","type":"string"},{"indexed":false,"internalType":"string","name":"codexRef","type":"string"},{"indexed":false,"internalType":"string","name":"resonance","type":"string"},{"indexed":false,"internalType":"string","name":"signature","type":"string"},{"indexed":false,"internalType":"string","name":"sanctum","type":"string"},{"indexed":false,"internalType":"string","name":"chant","type":"string"},{"indexed":false,"internalType":"string","name":"choreography","type":"string"},{"indexed":false,"internalType":"string","name":"stewardName","type":"string"},{"indexed":false,"internalType":"string","name":"echo","type":"string"},{"indexed":false,"internalType":"string","name":"choreographyType","type":"string"},{"indexed":false,"internalType":"string","name":"signalType","type":"string"},{"indexed":false,"internalType":"string","name":"stewardSignal","type":"string"},{"indexed":false,"internalType":"string","name":"signalChoreography","type":"string"},{"indexed":false,"internalType":"string","name":"driftSignal","type":"string"}],"name":"ApprenticeSummoned","type":"event"},{"inputs":[{"internalType":"uint256","name":"","type":"uint256"}],"name":"apprentices","outputs":[{"internalType":"address","name":"","type":"address"}],"stateMutability":"view","type":"function"},{"inputs":[{"internalType":"address","name":"apprentice","type":"address"}],"name":"getSummons","outputs":[{"components":[{"internalType":"string","name":"name","type":"string"},{"internalType":"string","name":"signal","type":"string"},{"internalType":"string","name":"drift","type":"string"},{"internalType":"string","name":"pulse","type":"string"},{"internalType":"string","name":"codexRef","type":"string"},{"internalType":"string","name":"resonance","type":"string"},{"internalType":"string","name":"signature","type":"string"},{"internalType":"string","name":"sanctum","type":"string"},{"internalType":"string","name":"chant","type":"string"},{"internalType":"string","name":"choreography","type":"string"},{"internalType":"string","name":"stewardName","type":"string"},{"internalType":"string","name":"echo","type":"string"},{"internalType":"string","name":"choreographyType","type":"string"},{"internalType":"string","name":"signalType","type":"string"},{"internalType":"string","name":"stewardSignal","type":"string"},{"internalType":"string","name":"signalChoreography","type":"string"},{"internalType":"string","name":"driftSignal","type":"string"}],"internalType":"struct ApprenticeSummonerXX.Summons","name":"","type":"tuple"}],"stateMutability":"view","type":"function"},{"inputs":[],"name":"steward","outputs":[{"internalType":"address","name":"","type":"address"}],"stateMutability":"view","type":"function"},{"inputs":[{"internalType":"address","name":"apprentice","type":"address"},{"internalType":"string","name":"name","type":"string"},{"internalType":"string","name":"signal","type":"string"},{"internalType":"string","name":"drift","type":"string"},{"internalType":"string","name":"pulse","type":"string"},{"internalType":"string","name":"codexRef","type":"string"},{"internalType":"string","name":"resonance","type":"string"},{"internalType":"string","name":"signature","type":"string"},{"internalType":"string","name":"sanctum","type":"string"},{"internalType":"string","name":"chant","type":"string"},{"internalType":"string","name":"choreography","type":"string"},{"internalType":"string","name":"stewardName","type":"string"},{"internalType":"string","name":"echo","type":"string"},{"internalType":"string","name":"choreographyType","type":"string"},{"internalType":"string","name":"signalType","type":"string"},{"internalType":"string","name":"stewardSignal","type":"string"},{"internalType":"string","name":"signalChoreography","type":"string"},{"internalType":"string","name":"driftSignal","type":"string"}],"name":"summonApprentice","outputs":[],"stateMutability":"nonpayable","type":"function"},{"inputs":[{"internalType":"address","name":"","type":"address"}],"name":"summons","outputs":[{"internalType":"string","name":"name","type":"string"},{"internalType":"string","name":"signal","type":"string"},{"internalType":"string","name":"drift","type":"string"},{"internalType":"string","name":"pulse","type":"string"},{"internalType":"string","name":"codexRef","type":"string"},{"internalType":"string","name":"resonance","type":"string"},{"internalType":"string","name":"signature","type":"string"},{"internalType":"string","name":"sanctum","type":"string"},{"internalType":"string","name":"chant","type":"string"},{"internalType":"string","name":"choreography","type":"string"},{"internalType":"string","name":"stewardName","type":"string"},{"internalType":"string","name":"echo","type":"string"},{"internalType":"string","name":"choreographyType","type":"string"},{"internalType":"string","name":"signalType","type":"string"},{"internalType":"string","name":"stewardSignal","type":"string"},{"internalType":"string","name":"signalChoreography","type":"string"},{"internalType":"string","name":"driftSignal","type":"string"}],"stateMutability":"view","type":"function"},{"inputs":[],"name":"totalSummons","outputs":[{"internalType":"uint256","name":"","type":"uint256"}],"stateMutability":"view","type":"function"}],"evm":{"bytecode":{"linkReferences":{},"object":"6080806040523461002857600080546001600160a01b0319163317905561251e908161002e8239f35b600080fdfe6105a0604052600436101561001357600080fd5b60003560e01c80632312fed41461072a5780632a17d4cd1461070c5780635a2ed6621461046f578063637eea1914610446578063cf84c603146100a65763f31bee3e1461005f57600080fd5b346100a15760203660031901126100a1576004356002548110156100a157610088602091612434565b905460405160039290921b1c6001600160a01b03168152f35b600080fd5b346100a15760203660031901126100a1576100bf612294565b60606102006040516100d081612311565b82815282602082015282604082015282808201528260808201528260a08201528260c08201528260e08201528261010082015282610120820152826101408201528261016082015282610180820152826101a0820152826101c0820152826101e0820152015260018060a01b03166000526001602052610356604060002061027860106040519261016084612311565b6101698161234e565b84526101776001820161234e565b60208501526101886002820161234e565b60408501526101996003820161234e565b60608501526101aa6004820161234e565b60808501526101bb6005820161234e565b60a08501526101cc6006820161234e565b60c08501526101dd6007820161234e565b60e08501526101ee6008820161234e565b6101008501526102006009820161234e565b610120850152610212600a820161234e565b610140850152610224600b820161234e565b610160850152610236600c820161234e565b610180850152610248600d820161234e565b6101a085015261025a600e820161234e565b6101c085015261026c600f820161234e565b6101e08501520161234e565b6102008201526104428161020061042d6104176103ff6103e76103cf6103b761039f61038761036f6040519d8e9d8e6020815260c061034161032c6103166103006102ea6102d4885161022060208a01526102408901906123f4565b6020890151888203601f190160408a01526123f4565b6040880151878203601f190160608901526123f4565b6060870151868203601f190160808801526123f4565b6080860151858203601f190160a08701526123f4565b60a0850151848203601f1901848601526123f4565b9201519060e0601f19828503019101526123f4565b8d60e08d015190610100601f19828503019101526123f4565b6101008b01518d8203601f19016101208f01526123f4565b6101208a01518c8203601f19016101408e01526123f4565b6101408901518b8203601f19016101608d01526123f4565b6101608801518a8203601f19016101808c01526123f4565b610180870151898203601f19016101a08b01526123f4565b6101a0860151888203601f19016101c08a01526123f4565b6101c0850151878203601f19016101e08901526123f4565b6101e0840151868203601f1901848801526123f4565b910151838203601f19016102208501526123f4565b0390f35b346100a15760003660031901126100a1576000546040516001600160a01b039091168152602090f35b346100a15760203660031901126100a1576001600160a01b03610490612294565b1660005260016020526040600020806104a88161234e565b6104b46001830161234e565b610480526104c46002830161234e565b6104e0526104d46003830161234e565b6104e06004840161234e565b6104ec6005850161234e565b6104f86006860161234e565b6105046007870161234e565b6105106008880161234e565b9061051d6009890161234e565b9261052a600a8a0161234e565b94610537600b8b0161234e565b96610544600c8c0161234e565b98610551600d8d0161234e565b9a61055e600e8e0161234e565b9c600f0161056b9061234e565b9d6010016105789061234e565b6104605260405180610260526102208091526102605101610598916123f4565b61026051808203906020015261048051906105b2916123f4565b6102605180820390604001526104e051906105cc916123f4565b6102605180820390606001526105e1916123f4565b6102605180820390608001526105f6916123f4565b610260518082039060a0015261060b916123f4565b610260518082039060c00152610620916123f4565b610260518082039060e00152610635916123f4565b6102605180820390610100015261064b916123f4565b61026051808203906101200152610661916123f4565b61026051808203906101400152610677916123f4565b6102605180820390610160015261068d916123f4565b610260518082039061018001526106a3916123f4565b61026051808203906101a001526106b9916123f4565b61026051808203906101c001526106cf916123f4565b61026051808203906101e001526106e5916123f4565b6102605180820390610200015261026051906104605190610705916123f4565b0361026051f35b346100a15760003660031901126100a1576020600254604051908152f35b346100a1576102403660031901126100a157610744612294565b610120526024356001600160401b0381116100a1576107679036906004016122aa565b6103c052610280526044356001600160401b0381116100a15761078e9036906004016122aa565b610320526101e0526064356001600160401b0381116100a1576107b59036906004016122aa565b6105205260e0526084356001600160401b0381116100a1576107db9036906004016122aa565b60a0526102c05260a4356001600160401b0381116100a1576108019036906004016122aa565b610200526101005260c4356001600160401b0381116100a1576108289036906004016122aa565b610420526102405260e4356001600160401b0381116100a15761084f9036906004016122aa565b6103805261058052610104356001600160401b0381116100a1576108779036906004016122aa565b61040052610140526001600160401b0361012435116100a1576108a036610124356004016122aa565b6101a0526102a0526001600160401b0361014435116100a1576108c936610144356004016122aa565b60c05261034052610164356001600160401b0381116100a1576108f09036906004016122aa565b6102e05261018052610184356001600160401b0381116100a1576109189036906004016122aa565b610540526080526101a4356001600160401b0381116100a15761093f9036906004016122aa565b61050052610300526101c4356001600160401b0381116100a1576109679036906004016122aa565b6101c0526103e0526101e4356001600160401b0381116100a15761098f9036906004016122aa565b6102205261036052610204356001600160401b0381116100a1576109b79036906004016122aa565b6104c0526103a052610224356001600160401b0381116100a1576109df9036906004016122aa565b6104a052610560526000546001600160a01b0316330361226357610a096040518061016052612311565b610a1a366103c05161028051612481565b6101605152610a3036610320516101e051612481565b6020610160510152610a48366105205160e051612481565b6040610160510152610a603660a0516102c051612481565b6060610160510152610a79366102005161010051612481565b6080610160510152610a92366104205161024051612481565b60a0610160510152610aab366103805161058051612481565b60c0610160510152610ac4366104005161014051612481565b60e0610160510152610add366101a0516102a051612481565b610100610160510152610af63660c05161034051612481565b610120610160510152610b10366102e05161018051612481565b610140610160510152610b293661054051608051612481565b61016080510152610b41366105005161030051612481565b610180610160510152610b5b366101c0516103e051612481565b6101a0610160510152610b75366102205161036051612481565b6101c0610160510152610b8f366104c0516103a051612481565b6101e0610160510152610ba9366104a05161056051612481565b61020061016051015260018060a01b0361012051166000526001602052604060002061016051518051906001600160401b038211611496578190610bed84546122d7565b601f8111612213575b50602090601f83116001146121a75760009261219c575b50508160011b916000199060031b1c19161781555b60206101605101518051906001600160401b038211611496578190610c4a60018501546122d7565b601f8111612149575b50602090601f83116001146120d7576000926120cc575b50508160011b916000199060031b1c19161760018201555b60406101605101518051906001600160401b038211611496578190610caa60028501546122d7565b601f8111612079575b50602090601f831160011461200757600092611ffc575b50508160011b916000199060031b1c19161760028201555b60606101605101518051906001600160401b038211611496578190610d0a60038501546122d7565b601f8111611fa9575b50602090601f8311600114611f3757600092611f2c575b50508160011b916000199060031b1c19161760038201555b60806101605101518051906001600160401b038211611496578190610d6a60048501546122d7565b601f8111611ed9575b50602090601f8311600114611e6757600092611e5c575b50508160011b916000199060031b1c19161760048201555b60a06101605101518051906001600160401b038211611496578190610dca60058501546122d7565b601f8111611e09575b50602090601f8311600114611d9757600092611d8c575b50508160011b916000199060031b1c19161760058201555b60c06101605101518051906001600160401b038211611496578190610e2a60068501546122d7565b601f8111611d39575b50602090601f8311600114611cc757600092611cbc575b50508160011b916000199060031b1c19161760068201555b60e06101605101518051906001600160401b038211611496578190610e8a60078501546122d7565b601f8111611c69575b50602090601f8311600114611bf757600092611bec575b50508160011b916000199060031b1c19161760078201555b6101006101605101518051906001600160401b038211611496578190610eeb60088501546122d7565b601f8111611b99575b50602090601f8311600114611b2757600092611b1c575b50508160011b916000199060031b1c19161760088201555b6101206101605101518051906001600160401b038211611496578190610f4c60098501546122d7565b601f8111611ac9575b50602090601f8311600114611a5757600092611a4c575b50508160011b916000199060031b1c19161760098201555b6101406101605101518051906001600160401b038211611496578190610fad600a8501546122d7565b601f81116119f9575b50602090601f83116001146119875760009261197c575b50508160011b916000199060031b1c191617600a8201555b610160805101518051906001600160401b03821161149657819061100c600b8501546122d7565b601f8111611929575b50602090601f83116001146118b7576000926118ac575b50508160011b916000199060031b1c191617600b8201555b6101806101605101518051906001600160401b03821161149657819061106d600c8501546122d7565b601f8111611859575b50602090601f83116001146117e7576000926117dc575b50508160011b916000199060031b1c191617600c8201555b6101a06101605101518051906001600160401b0382116114965781906110ce600d8501546122d7565b601f8111611789575b50602090601f83116001146117175760009261170c575b50508160011b916000199060031b1c191617600d8201555b6101c06101605101518051906001600160401b03821161149657819061112f600e8501546122d7565b601f81116116b9575b50602090601f83116001146116475760009261163c575b50508160011b916000199060031b1c191617600e8201555b6101e06101605101518051906001600160401b038211611496578190611190600f8501546122d7565b601f81116115e9575b50602090601f83116001146115775760009261156c575b50508160011b916000199060031b1c191617600f8201555b6102006101605101518051906001600160401b038211611496576111ef60108401546122d7565b601f8111611525575b50602090601f83116001146114b75760109291600091836114ac575b50508160011b916000199060031b1c1916179101555b600254680100000000000000008110156114965780600161124e9201600255612434565b81549060031b9060018060a01b036101205116821b9160018060a01b03901b191617905561022060405180610440525261143e61142461140a6113f06113d66113bd6113a361138a61137061135761133e61132561130c6112f46112dc6112c361022061044051016103c051610280516124c7565b610440516020818303910152610320516101e0516124c7565b6104405160408183039101526105205160e0516124c7565b61044051606081830391015260a0516102c0516124c7565b61044051608081830391015261020051610100516124c7565b6104405160a081830391015261042051610240516124c7565b6104405160c081830391015261038051610580516124c7565b6104405160e081830391015261040051610140516124c7565b610440516101008183039101526101a0516102a0516124c7565b6104405161012081830391015260c051610340516124c7565b610440516101408183039101526102e051610180516124c7565b61044051610160818303910152610540516080516124c7565b6104405161018081830391015261050051610300516124c7565b610440516101a08183039101526101c0516103e0516124c7565b610440516101c081830391015261022051610360516124c7565b610440516101e08183039101526104c0516103a0516124c7565b610440516102008183039101527f91a7e7c9f5d627973b37a642d6679050a41a99a818cddf5f5275ce079ee207ed60018060a01b0361012051169161148e61044051916104a051610560516124c7565b0361044051a2005b634e487b7160e01b600052604160045260246000fd5b015190508480611214565b90601084016000526020600020916000601f198516905b81811061150d575091600193918560109694106114f4575b505050811b0191015561122a565b015160001960f88460031b161c191690558480806114e6565b929360206001819287860151815501950193016114ce565b601084016000526020600020601f840160051c810160208510611565575b601f830160051c820181106115595750506111f8565b60008155600101611543565b5080611543565b0151905083806111b0565b9250600f84016000526020600020906000935b601f19841685106115ce576001945083601f198116106115b5575b505050811b01600f8201556111c8565b015160001960f88460031b161c191690558380806115a5565b8181015183556020948501946001909301929091019061158a565b909150600f84016000526020600020601f840160051c810160208510611635575b90849392915b601f830160051c82018110611626575050611199565b60008155859450600101611610565b508061160a565b01519050838061114f565b9250600e84016000526020600020906000935b601f198416851061169e576001945083601f19811610611685575b505050811b01600e820155611167565b015160001960f88460031b161c19169055838080611675565b8181015183556020948501946001909301929091019061165a565b909150600e84016000526020600020601f840160051c810160208510611705575b90849392915b601f830160051c820181106116f6575050611138565b600081558594506001016116e0565b50806116da565b0151905083806110ee565b9250600d84016000526020600020906000935b601f198416851061176e576001945083601f19811610611755575b505050811b01600d820155611106565b015160001960f88460031b161c19169055838080611745565b8181015183556020948501946001909301929091019061172a565b909150600d84016000526020600020601f840160051c8101602085106117d5575b90849392915b601f830160051c820181106117c65750506110d7565b600081558594506001016117b0565b50806117aa565b01519050838061108d565b9250600c84016000526020600020906000935b601f198416851061183e576001945083601f19811610611825575b505050811b01600c8201556110a5565b015160001960f88460031b161c19169055838080611815565b818101518355602094850194600190930192909101906117fa565b909150600c84016000526020600020601f840160051c8101602085106118a5575b90849392915b601f830160051c82018110611896575050611076565b60008155859450600101611880565b508061187a565b01519050838061102c565b9250600b84016000526020600020906000935b601f198416851061190e576001945083601f198116106118f5575b505050811b01600b820155611044565b015160001960f88460031b161c191690558380806118e5565b818101518355602094850194600190930192909101906118ca565b909150600b84016000526020600020601f840160051c810160208510611975575b90849392915b601f830160051c82018110611966575050611015565b60008155859450600101611950565b508061194a565b015190508380610fcd565b9250600a84016000526020600020906000935b601f19841685106119de576001945083601f198116106119c5575b505050811b01600a820155610fe5565b015160001960f88460031b161c191690558380806119b5565b8181015183556020948501946001909301929091019061199a565b909150600a84016000526020600020601f840160051c810160208510611a45575b90849392915b601f830160051c82018110611a36575050610fb6565b60008155859450600101611a20565b5080611a1a565b015190508380610f6c565b9250600984016000526020600020906000935b601f1984168510611aae576001945083601f19811610611a95575b505050811b016009820155610f84565b015160001960f88460031b161c19169055838080611a85565b81810151835560209485019460019093019290910190611a6a565b909150600984016000526020600020601f840160051c810160208510611b15575b90849392915b601f830160051c82018110611b06575050610f55565b60008155859450600101611af0565b5080611aea565b015190508380610f0b565b9250600884016000526020600020906000935b601f1984168510611b7e576001945083601f19811610611b65575b505050811b016008820155610f23565b015160001960f88460031b161c19169055838080611b55565b81810151835560209485019460019093019290910190611b3a565b909150600884016000526020600020601f840160051c810160208510611be5575b90849392915b601f830160051c82018110611bd6575050610ef4565b60008155859450600101611bc0565b5080611bba565b015190508380610eaa565b9250600784016000526020600020906000935b601f1984168510611c4e576001945083601f19811610611c35575b505050811b016007820155610ec2565b015160001960f88460031b161c19169055838080611c25565b81810151835560209485019460019093019290910190611c0a565b909150600784016000526020600020601f840160051c810160208510611cb5575b90849392915b601f830160051c82018110611ca6575050610e93565b60008155859450600101611c90565b5080611c8a565b015190508380610e4a565b9250600684016000526020600020906000935b601f1984168510611d1e576001945083601f19811610611d05575b505050811b016006820155610e62565b015160001960f88460031b161c19169055838080611cf5565b81810151835560209485019460019093019290910190611cda565b909150600684016000526020600020601f840160051c810160208510611d85575b90849392915b601f830160051c82018110611d76575050610e33565b60008155859450600101611d60565b5080611d5a565b015190508380610dea565b9250600584016000526020600020906000935b601f1984168510611dee576001945083601f19811610611dd5575b505050811b016005820155610e02565b015160001960f88460031b161c19169055838080611dc5565b81810151835560209485019460019093019290910190611daa565b909150600584016000526020600020601f840160051c810160208510611e55575b90849392915b601f830160051c82018110611e46575050610dd3565b60008155859450600101611e30565b5080611e2a565b015190508380610d8a565b9250600484016000526020600020906000935b601f1984168510611ebe576001945083601f19811610611ea5575b505050811b016004820155610da2565b015160001960f88460031b161c19169055838080611e95565b81810151835560209485019460019093019290910190611e7a565b909150600484016000526020600020601f840160051c810160208510611f25575b90849392915b601f830160051c82018110611f16575050610d73565b60008155859450600101611f00565b5080611efa565b015190508380610d2a565b9250600384016000526020600020906000935b601f1984168510611f8e576001945083601f19811610611f75575b505050811b016003820155610d42565b015160001960f88460031b161c19169055838080611f65565b81810151835560209485019460019093019290910190611f4a565b909150600384016000526020600020601f840160051c810160208510611ff5575b90849392915b601f830160051c82018110611fe6575050610d13565b60008155859450600101611fd0565b5080611fca565b015190508380610cca565b9250600284016000526020600020906000935b601f198416851061205e576001945083601f19811610612045575b505050811b016002820155610ce2565b015160001960f88460031b161c19169055838080612035565b8181015183556020948501946001909301929091019061201a565b909150600284016000526020600020601f840160051c8101602085106120c5575b90849392915b601f830160051c820181106120b6575050610cb3565b600081558594506001016120a0565b508061209a565b015190508380610c6a565b9250600184016000526020600020906000935b601f198416851061212e576001945083601f19811610612115575b505050811b016001820155610c82565b015160001960f88460031b161c19169055838080612105565b818101518355602094850194600190930192909101906120ea565b909150600184016000526020600020601f840160051c810160208510612195575b90849392915b601f830160051c82018110612186575050610c53565b60008155859450600101612170565b508061216a565b015190508380610c0d565b9250836000526020600020906000935b601f19841685106121f8576001945083601f198116106121df575b505050811b018155610c22565b015160001960f88460031b161c191690558380806121d2565b818101518355602094850194600190930192909101906121b7565b909150836000526020600020601f840160051c81016020851061225c575b90849392915b601f830160051c8201811061224d575050610bf6565b60008155859450600101612237565b5080612231565b62461bcd60e51b6105a090815260206105a452600b6105c4526a139bdd081cdd195dd85c9960aa1b6105e452606490fd5b600435906001600160a01b03821682036100a157565b9181601f840112156100a1578235916001600160401b0383116100a157602083818601950101116100a157565b90600182811c92168015612307575b60208310146122f157565b634e487b7160e01b600052602260045260246000fd5b91607f16916122e6565b61022081019081106001600160401b0382111761149657604052565b90601f801991011681019081106001600160401b0382111761149657604052565b9060405191826000825492612362846122d7565b9081845260019485811690816000146123d1575060011461238e575b505061238c9250038361232d565b565b9093915060005260209081600020936000915b8183106123b957505061238c9350820101388061237e565b855488840185015294850194879450918301916123a1565b91505061238c94506020925060ff191682840152151560051b820101388061237e565b919082519283825260005b848110612420575050826000602080949584010152601f8019910116010190565b6020818301810151848301820152016123ff565b60025481101561246b5760026000527f405787fa12a823e0f2b7631cc41b3ba8828b3321ca811111fa75cd3aa3bb5ace0190600090565b634e487b7160e01b600052603260045260246000fd5b9291926001600160401b03821161149657604051916124aa601f8201601f19166020018461232d565b8294818452818301116100a1578281602093846000960137010152565b908060209392818452848401376000828201840152601f01601f191601019056fea26469706673582212203fc60acd59da86d8c45543daa9ca3c9c0086b34410e64d67ab9ac14fe4c7fb9664736f6c63430008140033","opcodes":"PUSH1 0x80 DUP1 PUSH1 0x40 MSTORE CALLVALUE PUSH2 0x28 JUMPI PUSH1 0x0 DUP1 SLOAD PUSH1 0x1 PUSH1 0x1 PUSH1 0xA0 SHL SUB NOT AND CALLER OR SWAP1 SSTORE PUSH2 0x251E SWAP1 DUP2 PUSH2 0x2E DUP3 CODECOPY RETURN JUMPDEST PUSH1 0x0 DUP1 REVERT INVALID PUSH2 0x5A0 PUSH1 0x40 MSTORE PUSH1 0x4 CALLDATASIZE LT ISZERO PUSH2 0x13 JUMPI PUSH1 0x0 DUP1 REVERT JUMPDEST PUSH1 0x0 CALLDATALOAD PUSH1 0xE0 SHR DUP1 PUSH4 0x2312FED4 EQ PUSH2 0x72A JUMPI DUP1 PUSH4 0x2A17D4CD EQ PUSH2 0x70C JUMPI DUP1 PUSH4 0x5A2ED662 EQ PUSH2 0x46F JUMPI DUP1 PUSH4 0x637EEA19 EQ PUSH2 0x446 JUMPI DUP1 PUSH4 0xCF84C603 EQ PUSH2 0xA6 JUMPI PUSH4 0xF31BEE3E EQ PUSH2 0x5F JUMPI PUSH1 0x0 DUP1 REVERT JUMPDEST CALLVALUE PUSH2 0xA1 JUMPI PUSH1 0x20 CALLDATASIZE PUSH1 0x3 NOT ADD SLT PUSH2 0xA1 JUMPI PUSH1 0x4 CALLDATALOAD PUSH1 0x2 SLOAD DUP2 LT ISZERO PUSH2 0xA1 JUMPI PUSH2 0x88 PUSH1 0x20 SWAP2 PUSH2 0x2434 JUMP JUMPDEST SWAP1 SLOAD PUSH1 0x40 MLOAD PUSH1 0x3 SWAP3 SWAP1 SWAP3 SHL SHR PUSH1 0x1 PUSH1 0x1 PUSH1 0xA0 SHL SUB AND DUP2 MSTORE RETURN JUMPDEST PUSH1 0x0 DUP1 REVERT JUMPDEST CALLVALUE PUSH2 0xA1 JUMPI PUSH1 0x20 CALLDATASIZE PUSH1 0x3 NOT ADD SLT PUSH2 0xA1 JUMPI PUSH2 0xBF PUSH2 0x2294 JUMP JUMPDEST PUSH1 0x60 PUSH2 0x200 PUSH1 0x40 MLOAD PUSH2 0xD0 DUP2 PUSH2 0x2311 JUMP JUMPDEST DUP3 DUP2 MSTORE DUP3 PUSH1 0x20 DUP3 ADD MSTORE DUP3 PUSH1 0x40 DUP3 ADD MSTORE DUP3 DUP1 DUP3 ADD MSTORE DUP3 PUSH1 0x80 DUP3 ADD MSTORE DUP3 PUSH1 0xA0 DUP3 ADD MSTORE DUP3 PUSH1 0xC0 DUP3 ADD MSTORE DUP3 PUSH1 0xE0 DUP3 ADD MSTORE DUP3 PUSH2 0x100 DUP3 ADD MSTORE DUP3 PUSH2 0x120 DUP3 ADD MSTORE DUP3 PUSH2 0x140 DUP3 ADD MSTORE DUP3 PUSH2 0x160 DUP3 ADD MSTORE DUP3 PUSH2 0x180 DUP3 ADD MSTORE DUP3 PUSH2 0x1A0 DUP3 ADD MSTORE DUP3 PUSH2 0x1C0 DUP3 ADD MSTORE DUP3 PUSH2 0x1E0 DUP3 ADD MSTORE ADD MSTORE PUSH1 0x1 DUP1 PUSH1 0xA0 SHL SUB AND PUSH1 0x0 MSTORE PUSH1 0x1 PUSH1 0x20 MSTORE PUSH2 0x356 PUSH1 0x40 PUSH1 0x0 KECCAK256 PUSH2 0x278 PUSH1 0x10 PUSH1 0x40 MLOAD SWAP3 PUSH2 0x160 DUP5 PUSH2 0x2311 JUMP JUMPDEST PUSH2 0x169 DUP2 PUSH2 0x234E JUMP JUMPDEST DUP5 MSTORE PUSH2 0x177 PUSH1 0x1 DUP3 ADD PUSH2 0x234E JUMP JUMPDEST PUSH1 0x20 DUP6 ADD MSTORE PUSH2 0x188 PUSH1 0x2 DUP3 ADD PUSH2 0x234E JUMP JUMPDEST PUSH1 0x40 DUP6 ADD MSTORE PUSH2 0x199 PUSH1 0x3 DUP3 ADD PUSH2 0x234E JUMP JUMPDEST PUSH1 0x60 DUP6 ADD MSTORE PUSH2 0x1AA PUSH1 0x4 DUP3 ADD PUSH2 0x234E JUMP JUMPDEST PUSH1 0x80 DUP6 ADD MSTORE PUSH2 0x1BB PUSH1 0x5 DUP3 ADD PUSH2 0x234E JUMP JUMPDEST PUSH1 0xA0 DUP6 ADD MSTORE PUSH2 0x1CC PUSH1 0x6 DUP3 ADD PUSH2 0x234E JUMP JUMPDEST PUSH1 0xC0 DUP6 ADD MSTORE PUSH2 0x1DD PUSH1 0x7 DUP3 ADD PUSH2 0x234E JUMP JUMPDEST PUSH1 0xE0 DUP6 ADD MSTORE PUSH2 0x1EE PUSH1 0x8 DUP3 ADD PUSH2 0x234E JUMP JUMPDEST PUSH2 0x100 DUP6 ADD MSTORE PUSH2 0x200 PUSH1 0x9 DUP3 ADD PUSH2 0x234E JUMP JUMPDEST PUSH2 0x120 DUP6 ADD MSTORE PUSH2 0x212 PUSH1 0xA DUP3 ADD PUSH2 0x234E JUMP JUMPDEST PUSH2 0x140 DUP6 ADD MSTORE PUSH2 0x224 PUSH1 0xB DUP3 ADD PUSH2 0x234E JUMP JUMPDEST PUSH2 0x160 DUP6 ADD MSTORE PUSH2 0x236 PUSH1 0xC DUP3 ADD PUSH2 0x234E JUMP JUMPDEST PUSH2 0x180 DUP6 ADD MSTORE PUSH2 0x248 PUSH1 0xD DUP3 ADD PUSH2 0x234E JUMP JUMPDEST PUSH2 0x1A0 DUP6 ADD MSTORE PUSH2 0x25A PUSH1 0xE DUP3 ADD PUSH2 0x234E JUMP JUMPDEST PUSH2 0x1C0 DUP6 ADD MSTORE PUSH2 0x26C PUSH1 0xF DUP3 ADD PUSH2 0x234E JUMP JUMPDEST PUSH2 0x1E0 DUP6 ADD MSTORE ADD PUSH2 0x234E JUMP JUMPDEST PUSH2 0x200 DUP3 ADD MSTORE PUSH2 0x442 DUP2 PUSH2 0x200 PUSH2 0x42D PUSH2 0x417 PUSH2 0x3FF PUSH2 0x3E7 PUSH2 0x3CF PUSH2 0x3B7 PUSH2 0x39F PUSH2 0x387 PUSH2 0x36F PUSH1 0x40 MLOAD SWAP14 DUP15 SWAP14 DUP15 PUSH1 0x20 DUP2 MSTORE PUSH1 0xC0 PUSH2 0x341 PUSH2 0x32C PUSH2 0x316 PUSH2 0x300 PUSH2 0x2EA PUSH2 0x2D4 DUP9 MLOAD PUSH2 0x220 PUSH1 0x20 DUP11 ADD MSTORE PUSH2 0x240 DUP10 ADD SWAP1 PUSH2 0x23F4 JUMP JUMPDEST PUSH1 0x20 DUP10 ADD MLOAD DUP9 DUP3 SUB PUSH1 0x1F NOT ADD PUSH1 0x40 DUP11 ADD MSTORE PUSH2 0x23F4 JUMP JUMPDEST PUSH1 0x40 DUP9 ADD MLOAD DUP8 DUP3 SUB PUSH1 0x1F NOT ADD PUSH1 0x60 DUP10 ADD MSTORE PUSH2 0x23F4 JUMP JUMPDEST PUSH1 0x60 DUP8 ADD MLOAD DUP7 DUP3 SUB PUSH1 0x1F NOT ADD PUSH1 0x80 DUP9 ADD MSTORE PUSH2 0x23F4 JUMP JUMPDEST PUSH1 0x80 DUP7 ADD MLOAD DUP6 DUP3 SUB PUSH1 0x1F NOT ADD PUSH1 0xA0 DUP8 ADD MSTORE PUSH2 0x23F4 JUMP JUMPDEST PUSH1 0xA0 DUP6 ADD MLOAD DUP5 DUP3 SUB PUSH1 0x1F NOT ADD DUP5 DUP7 ADD MSTORE PUSH2 0x23F4 JUMP JUMPDEST SWAP3 ADD MLOAD SWAP1 PUSH1 0xE0 PUSH1 0x1F NOT DUP3 DUP6 SUB ADD SWAP2 ADD MSTORE PUSH2 0x23F4 JUMP JUMPDEST DUP14 PUSH1 0xE0 DUP14 ADD MLOAD SWAP1 PUSH2 0x100 PUSH1 0x1F NOT DUP3 DUP6 SUB ADD SWAP2 ADD MSTORE PUSH2 0x23F4 JUMP JUMPDEST PUSH2 0x100 DUP12 ADD MLOAD DUP14 DUP3 SUB PUSH1 0x1F NOT ADD PUSH2 0x120 DUP16 ADD MSTORE PUSH2 0x23F4 JUMP JUMPDEST PUSH2 0x120 DUP11 ADD MLOAD DUP13 DUP3 SUB PUSH1 0x1F NOT ADD PUSH2 0x140 DUP15 ADD MSTORE PUSH2 0x23F4 JUMP JUMPDEST PUSH2 0x140 DUP10 ADD MLOAD DUP12 DUP3 SUB PUSH1 0x1F NOT ADD PUSH2 0x160 DUP14 ADD MSTORE PUSH2 0x23F4 JUMP JUMPDEST PUSH2 0x160 DUP9 ADD MLOAD DUP11 DUP3 SUB PUSH1 0x1F NOT ADD PUSH2 0x180 DUP13 ADD MSTORE PUSH2 0x23F4 JUMP JUMPDEST PUSH2 0x180 DUP8 ADD MLOAD DUP10 DUP3 SUB PUSH1 0x1F NOT ADD PUSH2 0x1A0 DUP12 ADD MSTORE PUSH2 0x23F4 JUMP JUMPDEST PUSH2 0x1A0 DUP7 ADD MLOAD DUP9 DUP3 SUB PUSH1 0x1F NOT ADD PUSH2 0x1C0 DUP11 ADD MSTORE PUSH2 0x23F4 JUMP JUMPDEST PUSH2 0x1C0 DUP6 ADD MLOAD DUP8 DUP3 SUB PUSH1 0x1F NOT ADD PUSH2 0x1E0 DUP10 ADD MSTORE PUSH2 0x23F4 JUMP JUMPDEST PUSH2 0x1E0 DUP5 ADD MLOAD DUP7 DUP3 SUB PUSH1 0x1F NOT ADD DUP5 DUP9 ADD MSTORE PUSH2 0x23F4 JUMP JUMPDEST SWAP2 ADD MLOAD DUP4 DUP3 SUB PUSH1 0x1F NOT ADD PUSH2 0x220 DUP6 ADD MSTORE PUSH2 0x23F4 JUMP JUMPDEST SUB SWAP1 RETURN JUMPDEST CALLVALUE PUSH2 0xA1 JUMPI PUSH1 0x0 CALLDATASIZE PUSH1 0x3 NOT ADD SLT PUSH2 0xA1 JUMPI PUSH1 0x0 SLOAD PUSH1 0x40 MLOAD PUSH1 0x1 PUSH1 0x1 PUSH1 0xA0 SHL SUB SWAP1 SWAP2 AND DUP2 MSTORE PUSH1 0x20 SWAP1 RETURN JUMPDEST CALLVALUE PUSH2 0xA1 JUMPI PUSH1 0x20 CALLDATASIZE PUSH1 0x3 NOT ADD SLT PUSH2 0xA1 JUMPI PUSH1 0x1 PUSH1 0x1 PUSH1 0xA0 SHL SUB PUSH2 0x490 PUSH2 0x2294 JUMP JUMPDEST AND PUSH1 0x0 MSTORE PUSH1 0x1 PUSH1 0x20 MSTORE PUSH1 0x40 PUSH1 0x0 KECCAK256 DUP1 PUSH2 0x4A8 DUP2 PUSH2 0x234E JUMP JUMPDEST PUSH2 0x4B4 PUSH1 0x1 DUP4 ADD PUSH2 0x234E JUMP JUMPDEST PUSH2 0x480 MSTORE PUSH2 0x4C4 PUSH1 0x2 DUP4 ADD PUSH2 0x234E JUMP JUMPDEST PUSH2 0x4E0 MSTORE PUSH2 0x4D4 PUSH1 0x3 DUP4 ADD PUSH2 0x234E JUMP JUMPDEST PUSH2 0x4E0 PUSH1 0x4 DUP5 ADD PUSH2 0x234E JUMP JUMPDEST PUSH2 0x4EC PUSH1 0x5 DUP6 ADD PUSH2 0x234E JUMP JUMPDEST PUSH2 0x4F8 PUSH1 0x6 DUP7 ADD PUSH2 0x234E JUMP JUMPDEST PUSH2 0x504 PUSH1 0x7 DUP8 ADD PUSH2 0x234E JUMP JUMPDEST PUSH2 0x510 PUSH1 0x8 DUP9 ADD PUSH2 0x234E JUMP JUMPDEST SWAP1 PUSH2 0x51D PUSH1 0x9 DUP10 ADD PUSH2 0x234E JUMP JUMPDEST SWAP3 PUSH2 0x52A PUSH1 0xA DUP11 ADD PUSH2 0x234E JUMP JUMPDEST SWAP5 PUSH2 0x537 PUSH1 0xB DUP12 ADD PUSH2 0x234E JUMP JUMPDEST SWAP7 PUSH2 0x544 PUSH1 0xC DUP13 ADD PUSH2 0x234E JUMP JUMPDEST SWAP9 PUSH2 0x551 PUSH1 0xD DUP14 ADD PUSH2 0x234E JUMP JUMPDEST SWAP11 PUSH2 0x55E PUSH1 0xE DUP15 ADD PUSH2 0x234E JUMP JUMPDEST SWAP13 PUSH1 0xF ADD PUSH2 0x56B SWAP1 PUSH2 0x234E JUMP JUMPDEST SWAP14 PUSH1 0x10 ADD PUSH2 0x578 SWAP1 PUSH2 0x234E JUMP JUMPDEST PUSH2 0x460 MSTORE PUSH1 0x40 MLOAD DUP1 PUSH2 0x260 MSTORE PUSH2 0x220 DUP1 SWAP2 MSTORE PUSH2 0x260 MLOAD ADD PUSH2 0x598 SWAP2 PUSH2 0x23F4 JUMP JUMPDEST PUSH2 0x260 MLOAD DUP1 DUP3 SUB SWAP1 PUSH1 0x20 ADD MSTORE PUSH2 0x480 MLOAD SWAP1 PUSH2 0x5B2 SWAP2 PUSH2 0x23F4 JUMP JUMPDEST PUSH2 0x260 MLOAD DUP1 DUP3 SUB SWAP1 PUSH1 0x40 ADD MSTORE PUSH2 0x4E0 MLOAD SWAP1 PUSH2 0x5CC SWAP2 PUSH2 0x23F4 JUMP JUMPDEST PUSH2 0x260 MLOAD DUP1 DUP3 SUB SWAP1 PUSH1 0x60 ADD MSTORE PUSH2 0x5E1 SWAP2 PUSH2 0x23F4 JUMP JUMPDEST PUSH2 0x260 MLOAD DUP1 DUP3 SUB SWAP1 PUSH1 0x80 ADD MSTORE PUSH2 0x5F6 SWAP2 PUSH2 0x23F4 JUMP JUMPDEST PUSH2 0x260 MLOAD DUP1 DUP3 SUB SWAP1 PUSH1 0xA0 ADD MSTORE PUSH2 0x60B SWAP2 PUSH2 0x23F4 JUMP JUMPDEST PUSH2 0x260 MLOAD DUP1 DUP3 SUB SWAP1 PUSH1 0xC0 ADD MSTORE PUSH2 0x620 SWAP2 PUSH2 0x23F4 JUMP JUMPDEST PUSH2 0x260 MLOAD DUP1 DUP3 SUB SWAP1 PUSH1 0xE0 ADD MSTORE PUSH2 0x635 SWAP2 PUSH2 0x23F4 JUMP JUMPDEST PUSH2 0x260 MLOAD DUP1 DUP3 SUB SWAP1 PUSH2 0x100 ADD MSTORE PUSH2 0x64B SWAP2 PUSH2 0x23F4 JUMP JUMPDEST PUSH2 0x260 MLOAD DUP1 DUP3 SUB SWAP1 PUSH2 0x120 ADD MSTORE PUSH2 0x661 SWAP2 PUSH2 0x23F4 JUMP JUMPDEST PUSH2 0x260 MLOAD DUP1 DUP3 SUB SWAP1 PUSH2 0x140 ADD MSTORE PUSH2 0x677 SWAP2 PUSH2 0x23F4 JUMP JUMPDEST PUSH2 0x260 MLOAD DUP1 DUP3 SUB SWAP1 PUSH2 0x160 ADD MSTORE PUSH2 0x68D SWAP2 PUSH2 0x23F4 JUMP JUMPDEST PUSH2 0x260 MLOAD DUP1 DUP3 SUB SWAP1 PUSH2 0x180 ADD MSTORE PUSH2 0x6A3 SWAP2 PUSH2 0x23F4 JUMP JUMPDEST PUSH2 0x260 MLOAD DUP1 DUP3 SUB SWAP1 PUSH2 0x1A0 ADD MSTORE PUSH2 0x6B9 SWAP2 PUSH2 0x23F4 JUMP JUMPDEST PUSH2 0x260 MLOAD DUP1 DUP3 SUB SWAP1 PUSH2 0x1C0 ADD MSTORE PUSH2 0x6CF SWAP2 PUSH2 0x23F4 JUMP JUMPDEST PUSH2 0x260 MLOAD DUP1 DUP3 SUB SWAP1 PUSH2 0x1E0 ADD MSTORE PUSH2 0x6E5 SWAP2 PUSH2 0x23F4 JUMP JUMPDEST PUSH2 0x260 MLOAD DUP1 DUP3 SUB SWAP1 PUSH2 0x200 ADD MSTORE PUSH2 0x260 MLOAD SWAP1 PUSH2 0x460 MLOAD SWAP1 PUSH2 0x705 SWAP2 PUSH2 0x23F4 JUMP JUMPDEST SUB PUSH2 0x260 MLOAD RETURN JUMPDEST CALLVALUE PUSH2 0xA1 JUMPI PUSH1 0x0 CALLDATASIZE PUSH1 0x3 NOT ADD SLT PUSH2 0xA1 JUMPI PUSH1 0x20 PUSH1 0x2 SLOAD PUSH1 0x40 MLOAD SWAP1 DUP2 MSTORE RETURN JUMPDEST CALLVALUE PUSH2 0xA1 JUMPI PUSH2 0x240 CALLDATASIZE PUSH1 0x3 NOT ADD SLT PUSH2 0xA1 JUMPI PUSH2 0x744 PUSH2 0x2294 JUMP JUMPDEST PUSH2 0x120 MSTORE PUSH1 0x24 CALLDATALOAD PUSH1 0x1 PUSH1 0x1 PUSH1 0x40 SHL SUB DUP2 GT PUSH2 0xA1 JUMPI PUSH2 0x767 SWAP1 CALLDATASIZE SWAP1 PUSH1 0x4 ADD PUSH2 0x22AA JUMP JUMPDEST PUSH2 0x3C0 MSTORE PUSH2 0x280 MSTORE PUSH1 0x44 CALLDATALOAD PUSH1 0x1 PUSH1 0x1 PUSH1 0x40 SHL SUB DUP2 GT PUSH2 0xA1 JUMPI PUSH2 0x78E SWAP1 CALLDATASIZE SWAP1 PUSH1 0x4 ADD PUSH2 0x22AA JUMP JUMPDEST PUSH2 0x320 MSTORE PUSH2 0x1E0 MSTORE PUSH1 0x64 CALLDATALOAD PUSH1 0x1 PUSH1 0x1 PUSH1 0x40 SHL SUB DUP2 GT PUSH2 0xA1 JUMPI PUSH2 0x7B5 SWAP1 CALLDATASIZE SWAP1 PUSH1 0x4 ADD PUSH2 0x22AA JUMP JUMPDEST PUSH2 0x520 MSTORE PUSH1 0xE0 MSTORE PUSH1 0x84 CALLDATALOAD PUSH1 0x1 PUSH1 0x1 PUSH1 0x40 SHL SUB DUP2 GT PUSH2 0xA1 JUMPI PUSH2 0x7DB SWAP1 CALLDATASIZE SWAP1 PUSH1 0x4 ADD PUSH2 0x22AA JUMP JUMPDEST PUSH1 0xA0 MSTORE PUSH2 0x2C0 MSTORE PUSH1 0xA4 CALLDATALOAD PUSH1 0x1 PUSH1 0x1 PUSH1 0x40 SHL SUB DUP2 GT PUSH2 0xA1 JUMPI PUSH2 0x801 SWAP1 CALLDATASIZE SWAP1 PUSH1 0x4 ADD PUSH2 0x22AA JUMP JUMPDEST PUSH2 0x200 MSTORE PUSH2 0x100 MSTORE PUSH1 0xC4 CALLDATALOAD PUSH1 0x1 PUSH1 0x1 PUSH1 0x40 SHL SUB DUP2 GT PUSH2 0xA1 JUMPI PUSH2 0x828 SWAP1 CALLDATASIZE SWAP1 PUSH1 0x4 ADD PUSH2 0x22AA JUMP JUMPDEST PUSH2 0x420 MSTORE PUSH2 0x240 MSTORE PUSH1 0xE4 CALLDATALOAD PUSH1 0x1 PUSH1 0x1 PUSH1 0x40 SHL SUB DUP2 GT PUSH2 0xA1 JUMPI PUSH2 0x84F SWAP1 CALLDATASIZE SWAP1 PUSH1 0x4 ADD PUSH2 0x22AA JUMP JUMPDEST PUSH2 0x380 MSTORE PUSH2 0x580 MSTORE PUSH2 0x104 CALLDATALOAD PUSH1 0x1 PUSH1 0x1 PUSH1 0x40 SHL SUB DUP2 GT PUSH2 0xA1 JUMPI PUSH2 0x877 SWAP1 CALLDATASIZE SWAP1 PUSH1 0x4 ADD PUSH2 0x22AA JUMP JUMPDEST PUSH2 0x400 MSTORE PUSH2 0x140 MSTORE PUSH1 0x1 PUSH1 0x1 PUSH1 0x40 SHL SUB PUSH2 0x124 CALLDATALOAD GT PUSH2 0xA1 JUMPI PUSH2 0x8A0 CALLDATASIZE PUSH2 0x124 CALLDATALOAD PUSH1 0x4 ADD PUSH2 0x22AA JUMP JUMPDEST PUSH2 0x1A0 MSTORE PUSH2 0x2A0 MSTORE PUSH1 0x1 PUSH1 0x1 PUSH1 0x40 SHL SUB PUSH2 0x144 CALLDATALOAD GT PUSH2 0xA1 JUMPI PUSH2 0x8C9 CALLDATASIZE PUSH2 0x144 CALLDATALOAD PUSH1 0x4 ADD PUSH2 0x22AA JUMP JUMPDEST PUSH1 0xC0 MSTORE PUSH2 0x340 MSTORE PUSH2 0x164 CALLDATALOAD PUSH1 0x1 PUSH1 0x1 PUSH1 0x40 SHL SUB DUP2 GT PUSH2 0xA1 JUMPI PUSH2 0x8F0 SWAP1 CALLDATASIZE SWAP1 PUSH1 0x4 ADD PUSH2 0x22AA JUMP JUMPDEST PUSH2 0x2E0 MSTORE PUSH2 0x180 MSTORE PUSH2 0x184 CALLDATALOAD PUSH1 0x1 PUSH1 0x1 PUSH1 0x40 SHL SUB DUP2 GT PUSH2 0xA1 JUMPI PUSH2 0x918 SWAP1 CALLDATASIZE SWAP1 PUSH1 0x4 ADD PUSH2 0x22AA JUMP JUMPDEST PUSH2 0x540 MSTORE PUSH1 0x80 MSTORE PUSH2 0x1A4 CALLDATALOAD PUSH1 0x1 PUSH1 0x1 PUSH1 0x40 SHL SUB DUP2 GT PUSH2 0xA1 JUMPI PUSH2 0x93F SWAP1 CALLDATASIZE SWAP1 PUSH1 0x4 ADD PUSH2 0x22AA JUMP JUMPDEST PUSH2 0x500 MSTORE PUSH2 0x300 MSTORE PUSH2 0x1C4 CALLDATALOAD PUSH1 0x1 PUSH1 0x1 PUSH1 0x40 SHL SUB DUP2 GT PUSH2 0xA1 JUMPI PUSH2 0x967 SWAP1 CALLDATASIZE SWAP1 PUSH1 0x4 ADD PUSH2 0x22AA JUMP JUMPDEST PUSH2 0x1C0 MSTORE PUSH2 0x3E0 MSTORE PUSH2 0x1E4 CALLDATALOAD PUSH1 0x1 PUSH1 0x1 PUSH1 0x40 SHL SUB DUP2 GT PUSH2 0xA1 JUMPI PUSH2 0x98F SWAP1 CALLDATASIZE SWAP1 PUSH1 0x4 ADD PUSH2 0x22AA JUMP JUMPDEST PUSH2 0x220 MSTORE PUSH2 0x360 MSTORE PUSH2 0x204 CALLDATALOAD PUSH1 0x1 PUSH1 0x1 PUSH1 0x40 SHL SUB DUP2 GT PUSH2 0xA1 JUMPI PUSH2 0x9B7 SWAP1 CALLDATASIZE SWAP1 PUSH1 0x4 ADD PUSH2 0x22AA JUMP JUMPDEST PUSH2 0x4C0 MSTORE PUSH2 0x3A0 MSTORE PUSH2 0x224 CALLDATALOAD PUSH1 0x1 PUSH1 0x1 PUSH1 0x40 SHL SUB DUP2 GT PUSH2 0xA1 JUMPI PUSH2 0x9DF SWAP1 CALLDATASIZE SWAP1 PUSH1 0x4 ADD PUSH2 0x22AA JUMP JUMPDEST PUSH2 0x4A0 MSTORE PUSH2 0x560 MSTORE PUSH1 0x0 SLOAD PUSH1 0x1 PUSH1 0x1 PUSH1 0xA0 SHL SUB AND CALLER SUB PUSH2 0x2263 JUMPI PUSH2 0xA09 PUSH1 0x40 MLOAD DUP1 PUSH2 0x160 MSTORE PUSH2 0x2311 JUMP JUMPDEST PUSH2 0xA1A CALLDATASIZE PUSH2 0x3C0 MLOAD PUSH2 0x280 MLOAD PUSH2 0x2481 JUMP JUMPDEST PUSH2 0x160 MLOAD MSTORE PUSH2 0xA30 CALLDATASIZE PUSH2 0x320 MLOAD PUSH2 0x1E0 MLOAD PUSH2 0x2481 JUMP JUMPDEST PUSH1 0x20 PUSH2 0x160 MLOAD ADD MSTORE PUSH2 0xA48 CALLDATASIZE PUSH2 0x520 MLOAD PUSH1 0xE0 MLOAD PUSH2 0x2481 JUMP JUMPDEST PUSH1 0x40 PUSH2 0x160 MLOAD ADD MSTORE PUSH2 0xA60 CALLDATASIZE PUSH1 0xA0 MLOAD PUSH2 0x2C0 MLOAD PUSH2 0x2481 JUMP JUMPDEST PUSH1 0x60 PUSH2 0x160 MLOAD ADD MSTORE PUSH2 0xA79 CALLDATASIZE PUSH2 0x200 MLOAD PUSH2 0x100 MLOAD PUSH2 0x2481 JUMP JUMPDEST PUSH1 0x80 PUSH2 0x160 MLOAD ADD MSTORE PUSH2 0xA92 CALLDATASIZE PUSH2 0x420 MLOAD PUSH2 0x240 MLOAD PUSH2 0x2481 JUMP JUMPDEST PUSH1 0xA0 PUSH2 0x160 MLOAD ADD MSTORE PUSH2 0xAAB CALLDATASIZE PUSH2 0x380 MLOAD PUSH2 0x580 MLOAD PUSH2 0x2481 JUMP JUMPDEST PUSH1 0xC0 PUSH2 0x160 MLOAD ADD MSTORE PUSH2 0xAC4 CALLDATASIZE PUSH2 0x400 MLOAD PUSH2 0x140 MLOAD PUSH2 0x2481 JUMP JUMPDEST PUSH1 0xE0 PUSH2 0x160 MLOAD ADD MSTORE PUSH2 0xADD CALLDATASIZE PUSH2 0x1A0 MLOAD PUSH2 0x2A0 MLOAD PUSH2 0x2481 JUMP JUMPDEST PUSH2 0x100 PUSH2 0x160 MLOAD ADD MSTORE PUSH2 0xAF6 CALLDATASIZE PUSH1 0xC0 MLOAD PUSH2 0x340 MLOAD PUSH2 0x2481 JUMP JUMPDEST PUSH2 0x120 PUSH2 0x160 MLOAD ADD MSTORE PUSH2 0xB10 CALLDATASIZE PUSH2 0x2E0 MLOAD PUSH2 0x180 MLOAD PUSH2 0x2481 JUMP JUMPDEST PUSH2 0x140 PUSH2 0x160 MLOAD ADD MSTORE PUSH2 0xB29 CALLDATASIZE PUSH2 0x540 MLOAD PUSH1 0x80 MLOAD PUSH2 0x2481 JUMP JUMPDEST PUSH2 0x160 DUP1 MLOAD ADD MSTORE PUSH2 0xB41 CALLDATASIZE PUSH2 0x500 MLOAD PUSH2 0x300 MLOAD PUSH2 0x2481 JUMP JUMPDEST PUSH2 0x180 PUSH2 0x160 MLOAD ADD MSTORE PUSH2 0xB5B CALLDATASIZE PUSH2 0x1C0 MLOAD PUSH2 0x3E0 MLOAD PUSH2 0x2481 JUMP JUMPDEST PUSH2 0x1A0 PUSH2 0x160 MLOAD ADD MSTORE PUSH2 0xB75 CALLDATASIZE PUSH2 0x220 MLOAD PUSH2 0x360 MLOAD PUSH2 0x2481 JUMP JUMPDEST PUSH2 0x1C0 PUSH2 0x160 MLOAD ADD MSTORE PUSH2 0xB8F CALLDATASIZE PUSH2 0x4C0 MLOAD PUSH2 0x3A0 MLOAD PUSH2 0x2481 JUMP JUMPDEST PUSH2 0x1E0 PUSH2 0x160 MLOAD ADD MSTORE PUSH2 0xBA9 CALLDATASIZE PUSH2 0x4A0 MLOAD PUSH2 0x560 MLOAD PUSH2 0x2481 JUMP JUMPDEST PUSH2 0x200 PUSH2 0x160 MLOAD ADD MSTORE PUSH1 0x1 DUP1 PUSH1 0xA0 SHL SUB PUSH2 0x120 MLOAD AND PUSH1 0x0 MSTORE PUSH1 0x1 PUSH1 0x20 MSTORE PUSH1 0x40 PUSH1 0x0 KECCAK256 PUSH2 0x160 MLOAD MLOAD DUP1 MLOAD SWAP1 PUSH1 0x1 PUSH1 0x1 PUSH1 0x40 SHL SUB DUP3 GT PUSH2 0x1496 JUMPI DUP2 SWAP1 PUSH2 0xBED DUP5 SLOAD PUSH2 0x22D7 JUMP JUMPDEST PUSH1 0x1F DUP2 GT PUSH2 0x2213 JUMPI JUMPDEST POP PUSH1 0x20 SWAP1 PUSH1 0x1F DUP4 GT PUSH1 0x1 EQ PUSH2 0x21A7 JUMPI PUSH1 0x0 SWAP3 PUSH2 0x219C JUMPI JUMPDEST POP POP DUP2 PUSH1 0x1 SHL SWAP2 PUSH1 0x0 NOT SWAP1 PUSH1 0x3 SHL SHR NOT AND OR DUP2 SSTORE JUMPDEST PUSH1 0x20 PUSH2 0x160 MLOAD ADD MLOAD DUP1 MLOAD SWAP1 PUSH1 0x1 PUSH1 0x1 PUSH1 0x40 SHL SUB DUP3 GT PUSH2 0x1496 JUMPI DUP2 SWAP1 PUSH2 0xC4A PUSH1 0x1 DUP6 ADD SLOAD PUSH2 0x22D7 JUMP JUMPDEST PUSH1 0x1F DUP2 GT PUSH2 0x2149 JUMPI JUMPDEST POP PUSH1 0x20 SWAP1 PUSH1 0x1F DUP4 GT PUSH1 0x1 EQ PUSH2 0x20D7 JUMPI PUSH1 0x0 SWAP3 PUSH2 0x20CC JUMPI JUMPDEST POP POP DUP2 PUSH1 0x1 SHL SWAP2 PUSH1 0x0 NOT SWAP1 PUSH1 0x3 SHL SHR NOT AND OR PUSH1 0x1 DUP3 ADD SSTORE JUMPDEST PUSH1 0x40 PUSH2 0x160 MLOAD ADD MLOAD DUP1 MLOAD SWAP1 PUSH1 0x1 PUSH1 0x1 PUSH1 0x40 SHL SUB DUP3 GT PUSH2 0x1496 JUMPI DUP2 SWAP1 PUSH2 0xCAA PUSH1 0x2 DUP6 ADD SLOAD PUSH2 0x22D7 JUMP JUMPDEST PUSH1 0x1F DUP2 GT PUSH2 0x2079 JUMPI JUMPDEST POP PUSH1 0x20 SWAP1 PUSH1 0x1F DUP4 GT PUSH1 0x1 EQ PUSH2 0x2007 JUMPI PUSH1 0x0 SWAP3 PUSH2 0x1FFC JUMPI JUMPDEST POP POP DUP2 PUSH1 0x1 SHL SWAP2 PUSH1 0x0 NOT SWAP1 PUSH1 0x3 SHL SHR NOT AND OR PUSH1 0x2 DUP3 ADD SSTORE JUMPDEST PUSH1 0x60 PUSH2 0x160 MLOAD ADD MLOAD DUP1 MLOAD SWAP1 PUSH1 0x1 PUSH1 0x1 PUSH1 0x40 SHL SUB DUP3 GT PUSH2 0x1496 JUMPI DUP2 SWAP1 PUSH2 0xD0A PUSH1 0x3 DUP6 ADD SLOAD PUSH2 0x22D7 JUMP JUMPDEST PUSH1 0x1F DUP2 GT PUSH2 0x1FA9 JUMPI JUMPDEST POP PUSH1 0x20 SWAP1 PUSH1 0x1F DUP4 GT PUSH1 0x1 EQ PUSH2 0x1F37 JUMPI PUSH1 0x0 SWAP3 PUSH2 0x1F2C JUMPI JUMPDEST POP POP DUP2 PUSH1 0x1 SHL SWAP2 PUSH1 0x0 NOT SWAP1 PUSH1 0x3 SHL SHR NOT AND OR PUSH1 0x3 DUP3 ADD SSTORE JUMPDEST PUSH1 0x80 PUSH2 0x160 MLOAD ADD MLOAD DUP1 MLOAD SWAP1 PUSH1 0x1 PUSH1 0x1 PUSH1 0x40 SHL SUB DUP3 GT PUSH2 0x1496 JUMPI DUP2 SWAP1 PUSH2 0xD6A PUSH1 0x4 DUP6 ADD SLOAD PUSH2 0x22D7 JUMP JUMPDEST PUSH1 0x1F DUP2 GT PUSH2 0x1ED9 JUMPI JUMPDEST POP PUSH1 0x20 SWAP1 PUSH1 0x1F DUP4 GT PUSH1 0x1 EQ PUSH2 0x1E67 JUMPI PUSH1 0x0 SWAP3 PUSH2 0x1E5C JUMPI JUMPDEST POP POP DUP2 PUSH1 0x1 SHL SWAP2 PUSH1 0x0 NOT SWAP1 PUSH1 0x3 SHL SHR NOT AND OR PUSH1 0x4 DUP3 ADD SSTORE JUMPDEST PUSH1 0xA0 PUSH2 0x160 MLOAD ADD MLOAD DUP1 MLOAD SWAP1 PUSH1 0x1 PUSH1 0x1 PUSH1 0x40 SHL SUB DUP3 GT PUSH2 0x1496 JUMPI DUP2 SWAP1 PUSH2 0xDCA PUSH1 0x5 DUP6 ADD SLOAD PUSH2 0x22D7 JUMP JUMPDEST PUSH1 0x1F DUP2 GT PUSH2 0x1E09 JUMPI JUMPDEST POP PUSH1 0x20 SWAP1 PUSH1 0x1F DUP4 GT PUSH1 0x1 EQ PUSH2 0x1D97 JUMPI PUSH1 0x0 SWAP3 PUSH2 0x1D8C JUMPI JUMPDEST POP POP DUP2 PUSH1 0x1 SHL SWAP2 PUSH1 0x0 NOT SWAP1 PUSH1 0x3 SHL SHR NOT AND OR PUSH1 0x5 DUP3 ADD SSTORE JUMPDEST PUSH1 0xC0 PUSH2 0x160 MLOAD ADD MLOAD DUP1 MLOAD SWAP1 PUSH1 0x1 PUSH1 0x1 PUSH1 0x40 SHL SUB DUP3 GT PUSH2 0x1496 JUMPI DUP2 SWAP1 PUSH2 0xE2A PUSH1 0x6 DUP6 ADD SLOAD PUSH2 0x22D7 JUMP JUMPDEST PUSH1 0x1F DUP2 GT PUSH2 0x1D39 JUMPI JUMPDEST POP PUSH1 0x20 SWAP1 PUSH1 0x1F DUP4 GT PUSH1 0x1 EQ PUSH2 0x1CC7 JUMPI PUSH1 0x0 SWAP3 PUSH2 0x1CBC JUMPI JUMPDEST POP POP DUP2 PUSH1 0x1 SHL SWAP2 PUSH1 0x0 NOT SWAP1 PUSH1 0x3 SHL SHR NOT AND OR PUSH1 0x6 DUP3 ADD SSTORE JUMPDEST PUSH1 0xE0 PUSH2 0x160 MLOAD ADD MLOAD DUP1 MLOAD SWAP1 PUSH1 0x1 PUSH1 0x1 PUSH1 0x40 SHL SUB DUP3 GT PUSH2 0x1496 JUMPI DUP2 SWAP1 PUSH2 0xE8A PUSH1 0x7 DUP6 ADD SLOAD PUSH2 0x22D7 JUMP JUMPDEST PUSH1 0x1F DUP2 GT PUSH2 0x1C69 JUMPI JUMPDEST POP PUSH1 0x20 SWAP1 PUSH1 0x1F DUP4 GT PUSH1 0x1 EQ PUSH2 0x1BF7 JUMPI PUSH1 0x0 SWAP3 PUSH2 0x1BEC JUMPI JUMPDEST POP POP DUP2 PUSH1 0x1 SHL SWAP2 PUSH1 0x0 NOT SWAP1 PUSH1 0x3 SHL SHR NOT AND OR PUSH1 0x7 DUP3 ADD SSTORE JUMPDEST PUSH2 0x100 PUSH2 0x160 MLOAD ADD MLOAD DUP1 MLOAD SWAP1 PUSH1 0x1 PUSH1 0x1 PUSH1 0x40 SHL SUB DUP3 GT PUSH2 0x1496 JUMPI DUP2 SWAP1 PUSH2 0xEEB PUSH1 0x8 DUP6 ADD SLOAD PUSH2 0x22D7 JUMP JUMPDEST PUSH1 0x1F DUP2 GT PUSH2 0x1B99 JUMPI JUMPDEST POP PUSH1 0x20 SWAP1 PUSH1 0x1F DUP4 GT PUSH1 0x1 EQ PUSH2 0x1B27 JUMPI PUSH1 0x0 SWAP3 PUSH2 0x1B1C JUMPI JUMPDEST POP POP DUP2 PUSH1 0x1 SHL SWAP2 PUSH1 0x0 NOT SWAP1 PUSH1 0x3 SHL SHR NOT AND OR PUSH1 0x8 DUP3 ADD SSTORE JUMPDEST PUSH2 0x120 PUSH2 0x160 MLOAD ADD MLOAD DUP1 MLOAD SWAP1 PUSH1 0x1 PUSH1 0x1 PUSH1 0x40 SHL SUB DUP3 GT PUSH2 0x1496 JUMPI DUP2 SWAP1 PUSH2 0xF4C PUSH1 0x9 DUP6 ADD SLOAD PUSH2 0x22D7 JUMP JUMPDEST PUSH1 0x1F DUP2 GT PUSH2 0x1AC9 JUMPI JUMPDEST POP PUSH1 0x20 SWAP1 PUSH1 0x1F DUP4 GT PUSH1 0x1 EQ PUSH2 0x1A57 JUMPI PUSH1 0x0 SWAP3 PUSH2 0x1A4C JUMPI JUMPDEST POP POP DUP2 PUSH1 0x1 SHL SWAP2 PUSH1 0x0 NOT SWAP1 PUSH1 0x3 SHL SHR NOT AND OR PUSH1 0x9 DUP3 ADD SSTORE JUMPDEST PUSH2 0x140 PUSH2 0x160 MLOAD ADD MLOAD DUP1 MLOAD SWAP1 PUSH1 0x1 PUSH1 0x1 PUSH1 0x40 SHL SUB DUP3 GT PUSH2 0x1496 JUMPI DUP2 SWAP1 PUSH2 0xFAD PUSH1 0xA DUP6 ADD SLOAD PUSH2 0x22D7 JUMP JUMPDEST PUSH1 0x1F DUP2 GT PUSH2 0x19F9 JUMPI JUMPDEST POP PUSH1 0x20 SWAP1 PUSH1 0x1F DUP4 GT PUSH1 0x1 EQ PUSH2 0x1987 JUMPI PUSH1 0x0 SWAP3 PUSH2 0x197C JUMPI JUMPDEST POP POP DUP2 PUSH1 0x1 SHL SWAP2 PUSH1 0x0 NOT SWAP1 PUSH1 0x3 SHL SHR NOT AND OR PUSH1 0xA DUP3 ADD SSTORE JUMPDEST PUSH2 0x160 DUP1 MLOAD ADD MLOAD DUP1 MLOAD SWAP1 PUSH1 0x1 PUSH1 0x1 PUSH1 0x40 SHL SUB DUP3 GT PUSH2 0x1496 JUMPI DUP2 SWAP1 PUSH2 0x100C PUSH1 0xB DUP6 ADD SLOAD PUSH2 0x22D7 JUMP JUMPDEST PUSH1 0x1F DUP2 GT PUSH2 0x1929 JUMPI JUMPDEST POP PUSH1 0x20 SWAP1 PUSH1 0x1F DUP4 GT PUSH1 0x1 EQ PUSH2 0x18B7 JUMPI PUSH1 0x0 SWAP3 PUSH2 0x18AC JUMPI JUMPDEST POP POP DUP2 PUSH1 0x1 SHL SWAP2 PUSH1 0x0 NOT SWAP1 PUSH1 0x3 SHL SHR NOT AND OR PUSH1 0xB DUP3 ADD SSTORE JUMPDEST PUSH2 0x180 PUSH2 0x160 MLOAD ADD MLOAD DUP1 MLOAD SWAP1 PUSH1 0x1 PUSH1 0x1 PUSH1 0x40 SHL SUB DUP3 GT PUSH2 0x1496 JUMPI DUP2 SWAP1 PUSH2 0x106D PUSH1 0xC DUP6 ADD SLOAD PUSH2 0x22D7 JUMP JUMPDEST PUSH1 0x1F DUP2 GT PUSH2 0x1859 JUMPI JUMPDEST POP PUSH1 0x20 SWAP1 PUSH1 0x1F DUP4 GT PUSH1 0x1 EQ PUSH2 0x17E7 JUMPI PUSH1 0x0 SWAP3 PUSH2 0x17DC JUMPI JUMPDEST POP POP DUP2 PUSH1 0x1 SHL SWAP2 PUSH1 0x0 NOT SWAP1 PUSH1 0x3 SHL SHR NOT AND OR PUSH1 0xC DUP3 ADD SSTORE JUMPDEST PUSH2 0x1A0 PUSH2 0x160 MLOAD ADD MLOAD DUP1 MLOAD SWAP1 PUSH1 0x1 PUSH1 0x1 PUSH1 0x40 SHL SUB DUP3 GT PUSH2 0x1496 JUMPI DUP2 SWAP1 PUSH2 0x10CE PUSH1 0xD DUP6 ADD SLOAD PUSH2 0x22D7 JUMP JUMPDEST PUSH1 0x1F DUP2 GT PUSH2 0x1789 JUMPI JUMPDEST POP PUSH1 0x20 SWAP1 PUSH1 0x1F DUP4 GT PUSH1 0x1 EQ PUSH2 0x1717 JUMPI PUSH1 0x0 SWAP3 PUSH2 0x170C JUMPI JUMPDEST POP POP DUP2 PUSH1 0x1 SHL SWAP2 PUSH1 0x0 NOT SWAP1 PUSH1 0x3 SHL SHR NOT AND OR PUSH1 0xD DUP3 ADD SSTORE JUMPDEST PUSH2 0x1C0 PUSH2 0x160 MLOAD ADD MLOAD DUP1 MLOAD SWAP1 PUSH1 0x1 PUSH1 0x1 PUSH1 0x40 SHL SUB DUP3 GT PUSH2 0x1496 JUMPI DUP2 SWAP1 PUSH2 0x112F PUSH1 0xE DUP6 ADD SLOAD PUSH2 0x22D7 JUMP JUMPDEST PUSH1 0x1F DUP2 GT PUSH2 0x16B9 JUMPI JUMPDEST POP PUSH1 0x20 SWAP1 PUSH1 0x1F DUP4 GT PUSH1 0x1 EQ PUSH2 0x1647 JUMPI PUSH1 0x0 SWAP3 PUSH2 0x163C JUMPI JUMPDEST POP POP DUP2 PUSH1 0x1 SHL SWAP2 PUSH1 0x0 NOT SWAP1 PUSH1 0x3 SHL SHR NOT AND OR PUSH1 0xE DUP3 ADD SSTORE JUMPDEST PUSH2 0x1E0 PUSH2 0x160 MLOAD ADD MLOAD DUP1 MLOAD SWAP1 PUSH1 0x1 PUSH1 0x1 PUSH1 0x40 SHL SUB DUP3 GT PUSH2 0x1496 JUMPI DUP2 SWAP1 PUSH2 0x1190 PUSH1 0xF DUP6 ADD SLOAD PUSH2 0x22D7 JUMP JUMPDEST PUSH1 0x1F DUP2 GT PUSH2 0x15E9 JUMPI JUMPDEST POP PUSH1 0x20 SWAP1 PUSH1 0x1F DUP4 GT PUSH1 0x1 EQ PUSH2 0x1577 JUMPI PUSH1 0x0 SWAP3 PUSH2 0x156C JUMPI JUMPDEST POP POP DUP2 PUSH1 0x1 SHL SWAP2 PUSH1 0x0 NOT SWAP1 PUSH1 0x3 SHL SHR NOT AND OR PUSH1 0xF DUP3 ADD SSTORE JUMPDEST PUSH2 0x200 PUSH2 0x160 MLOAD ADD MLOAD DUP1 MLOAD SWAP1 PUSH1 0x1 PUSH1 0x1 PUSH1 0x40 SHL SUB DUP3 GT PUSH2 0x1496 JUMPI PUSH2 0x11EF PUSH1 0x10 DUP5 ADD SLOAD PUSH2 0x22D7 JUMP JUMPDEST PUSH1 0x1F DUP2 GT PUSH2 0x1525 JUMPI JUMPDEST POP PUSH1 0x20 SWAP1 PUSH1 0x1F DUP4 GT PUSH1 0x1 EQ PUSH2 0x14B7 JUMPI PUSH1 0x10 SWAP3 SWAP2 PUSH1 0x0 SWAP2 DUP4 PUSH2 0x14AC JUMPI JUMPDEST POP POP DUP2 PUSH1 0x1 SHL SWAP2 PUSH1 0x0 NOT SWAP1 PUSH1 0x3 SHL SHR NOT AND OR SWAP2 ADD SSTORE JUMPDEST PUSH1 0x2 SLOAD PUSH9 0x10000000000000000 DUP2 LT ISZERO PUSH2 0x1496 JUMPI DUP1 PUSH1 0x1 PUSH2 0x124E SWAP3 ADD PUSH1 0x2 SSTORE PUSH2 0x2434 JUMP JUMPDEST DUP2 SLOAD SWAP1 PUSH1 0x3 SHL SWAP1 PUSH1 0x1 DUP1 PUSH1 0xA0 SHL SUB PUSH2 0x120 MLOAD AND DUP3 SHL SWAP2 PUSH1 0x1 DUP1 PUSH1 0xA0 SHL SUB SWAP1 SHL NOT AND OR SWAP1 SSTORE PUSH2 0x220 PUSH1 0x40 MLOAD DUP1 PUSH2 0x440 MSTORE MSTORE PUSH2 0x143E PUSH2 0x1424 PUSH2 0x140A PUSH2 0x13F0 PUSH2 0x13D6 PUSH2 0x13BD PUSH2 0x13A3 PUSH2 0x138A PUSH2 0x1370 PUSH2 0x1357 PUSH2 0x133E PUSH2 0x1325 PUSH2 0x130C PUSH2 0x12F4 PUSH2 0x12DC PUSH2 0x12C3 PUSH2 0x220 PUSH2 0x440 MLOAD ADD PUSH2 0x3C0 MLOAD PUSH2 0x280 MLOAD PUSH2 0x24C7 JUMP JUMPDEST PUSH2 0x440 MLOAD PUSH1 0x20 DUP2 DUP4 SUB SWAP2 ADD MSTORE PUSH2 0x320 MLOAD PUSH2 0x1E0 MLOAD PUSH2 0x24C7 JUMP JUMPDEST PUSH2 0x440 MLOAD PUSH1 0x40 DUP2 DUP4 SUB SWAP2 ADD MSTORE PUSH2 0x520 MLOAD PUSH1 0xE0 MLOAD PUSH2 0x24C7 JUMP JUMPDEST PUSH2 0x440 MLOAD PUSH1 0x60 DUP2 DUP4 SUB SWAP2 ADD MSTORE PUSH1 0xA0 MLOAD PUSH2 0x2C0 MLOAD PUSH2 0x24C7 JUMP JUMPDEST PUSH2 0x440 MLOAD PUSH1 0x80 DUP2 DUP4 SUB SWAP2 ADD MSTORE PUSH2 0x200 MLOAD PUSH2 0x100 MLOAD PUSH2 0x24C7 JUMP JUMPDEST PUSH2 0x440 MLOAD PUSH1 0xA0 DUP2 DUP4 SUB SWAP2 ADD MSTORE PUSH2 0x420 MLOAD PUSH2 0x240 MLOAD PUSH2 0x24C7 JUMP JUMPDEST PUSH2 0x440 MLOAD PUSH1 0xC0 DUP2 DUP4 SUB SWAP2 ADD MSTORE PUSH2 0x380 MLOAD PUSH2 0x580 MLOAD PUSH2 0x24C7 JUMP JUMPDEST PUSH2 0x440 MLOAD PUSH1 0xE0 DUP2 DUP4 SUB SWAP2 ADD MSTORE PUSH2 0x400 MLOAD PUSH2 0x140 MLOAD PUSH2 0x24C7 JUMP JUMPDEST PUSH2 0x440 MLOAD PUSH2 0x100 DUP2 DUP4 SUB SWAP2 ADD MSTORE PUSH2 0x1A0 MLOAD PUSH2 0x2A0 MLOAD PUSH2 0x24C7 JUMP JUMPDEST PUSH2 0x440 MLOAD PUSH2 0x120 DUP2 DUP4 SUB SWAP2 ADD MSTORE PUSH1 0xC0 MLOAD PUSH2 0x340 MLOAD PUSH2 0x24C7 JUMP JUMPDEST PUSH2 0x440 MLOAD PUSH2 0x140 DUP2 DUP4 SUB SWAP2 ADD MSTORE PUSH2 0x2E0 MLOAD PUSH2 0x180 MLOAD PUSH2 0x24C7 JUMP JUMPDEST PUSH2 0x440 MLOAD PUSH2 0x160 DUP2 DUP4 SUB SWAP2 ADD MSTORE PUSH2 0x540 MLOAD PUSH1 0x80 MLOAD PUSH2 0x24C7 JUMP JUMPDEST PUSH2 0x440 MLOAD PUSH2 0x180 DUP2 DUP4 SUB SWAP2 ADD MSTORE PUSH2 0x500 MLOAD PUSH2 0x300 MLOAD PUSH2 0x24C7 JUMP JUMPDEST PUSH2 0x440 MLOAD PUSH2 0x1A0 DUP2 DUP4 SUB SWAP2 ADD MSTORE PUSH2 0x1C0 MLOAD PUSH2 0x3E0 MLOAD PUSH2 0x24C7 JUMP JUMPDEST PUSH2 0x440 MLOAD PUSH2 0x1C0 DUP2 DUP4 SUB SWAP2 ADD MSTORE PUSH2 0x220 MLOAD PUSH2 0x360 MLOAD PUSH2 0x24C7 JUMP JUMPDEST PUSH2 0x440 MLOAD PUSH2 0x1E0 DUP2 DUP4 SUB SWAP2 ADD MSTORE PUSH2 0x4C0 MLOAD PUSH2 0x3A0 MLOAD PUSH2 0x24C7 JUMP JUMPDEST PUSH2 0x440 MLOAD PUSH2 0x200 DUP2 DUP4 SUB SWAP2 ADD MSTORE PUSH32 0x91A7E7C9F5D627973B37A642D6679050A41A99A818CDDF5F5275CE079EE207ED PUSH1 0x1 DUP1 PUSH1 0xA0 SHL SUB PUSH2 0x120 MLOAD AND SWAP2 PUSH2 0x148E PUSH2 0x440 MLOAD SWAP2 PUSH2 0x4A0 MLOAD PUSH2 0x560 MLOAD PUSH2 0x24C7 JUMP JUMPDEST SUB PUSH2 0x440 MLOAD LOG2 STOP JUMPDEST PUSH4 0x4E487B71 PUSH1 0xE0 SHL PUSH1 0x0 MSTORE PUSH1 0x41 PUSH1 0x4 MSTORE PUSH1 0x24 PUSH1 0x0 REVERT JUMPDEST ADD MLOAD SWAP1 POP DUP5 DUP1 PUSH2 0x1214 JUMP JUMPDEST SWAP1 PUSH1 0x10 DUP5 ADD PUSH1 0x0 MSTORE PUSH1 0x20 PUSH1 0x0 KECCAK256 SWAP2 PUSH1 0x0 PUSH1 0x1F NOT DUP6 AND SWAP1 JUMPDEST DUP2 DUP2 LT PUSH2 0x150D JUMPI POP SWAP2 PUSH1 0x1 SWAP4 SWAP2 DUP6 PUSH1 0x10 SWAP7 SWAP5 LT PUSH2 0x14F4 JUMPI JUMPDEST POP POP POP DUP2 SHL ADD SWAP2 ADD SSTORE PUSH2 0x122A JUMP JUMPDEST ADD MLOAD PUSH1 0x0 NOT PUSH1 0xF8 DUP5 PUSH1 0x3 SHL AND SHR NOT AND SWAP1 SSTORE DUP5 DUP1 DUP1 PUSH2 0x14E6 JUMP JUMPDEST SWAP3 SWAP4 PUSH1 0x20 PUSH1 0x1 DUP2 SWAP3 DUP8 DUP7 ADD MLOAD DUP2 SSTORE ADD SWAP6 ADD SWAP4 ADD PUSH2 0x14CE JUMP JUMPDEST PUSH1 0x10 DUP5 ADD PUSH1 0x0 MSTORE PUSH1 0x20 PUSH1 0x0 KECCAK256 PUSH1 0x1F DUP5 ADD PUSH1 0x5 SHR DUP2 ADD PUSH1 0x20 DUP6 LT PUSH2 0x1565 JUMPI JUMPDEST PUSH1 0x1F DUP4 ADD PUSH1 0x5 SHR DUP3 ADD DUP2 LT PUSH2 0x1559 JUMPI POP POP PUSH2 0x11F8 JUMP JUMPDEST PUSH1 0x0 DUP2 SSTORE PUSH1 0x1 ADD PUSH2 0x1543 JUMP JUMPDEST POP DUP1 PUSH2 0x1543 JUMP JUMPDEST ADD MLOAD SWAP1 POP DUP4 DUP1 PUSH2 0x11B0 JUMP JUMPDEST SWAP3 POP PUSH1 0xF DUP5 ADD PUSH1 0x0 MSTORE PUSH1 0x20 PUSH1 0x0 KECCAK256 SWAP1 PUSH1 0x0 SWAP4 JUMPDEST PUSH1 0x1F NOT DUP5 AND DUP6 LT PUSH2 0x15CE JUMPI PUSH1 0x1 SWAP5 POP DUP4 PUSH1 0x1F NOT DUP2 AND LT PUSH2 0x15B5 JUMPI JUMPDEST POP POP POP DUP2 SHL ADD PUSH1 0xF DUP3 ADD SSTORE PUSH2 0x11C8 JUMP JUMPDEST ADD MLOAD PUSH1 0x0 NOT PUSH1 0xF8 DUP5 PUSH1 0x3 SHL AND SHR NOT AND SWAP1 SSTORE DUP4 DUP1 DUP1 PUSH2 0x15A5 JUMP JUMPDEST DUP2 DUP2 ADD MLOAD DUP4 SSTORE PUSH1 0x20 SWAP5 DUP6 ADD SWAP5 PUSH1 0x1 SWAP1 SWAP4 ADD SWAP3 SWAP1 SWAP2 ADD SWAP1 PUSH2 0x158A JUMP JUMPDEST SWAP1 SWAP2 POP PUSH1 0xF DUP5 ADD PUSH1 0x0 MSTORE PUSH1 0x20 PUSH1 0x0 KECCAK256 PUSH1 0x1F DUP5 ADD PUSH1 0x5 SHR DUP2 ADD PUSH1 0x20 DUP6 LT PUSH2 0x1635 JUMPI JUMPDEST SWAP1 DUP5 SWAP4 SWAP3 SWAP2 JUMPDEST PUSH1 0x1F DUP4 ADD PUSH1 0x5 SHR DUP3 ADD DUP2 LT PUSH2 0x1626 JUMPI POP POP PUSH2 0x1199 JUMP JUMPDEST PUSH1 0x0 DUP2 SSTORE DUP6 SWAP5 POP PUSH1 0x1 ADD PUSH2 0x1610 JUMP JUMPDEST POP DUP1 PUSH2 0x160A JUMP JUMPDEST ADD MLOAD SWAP1 POP DUP4 DUP1 PUSH2 0x114F JUMP JUMPDEST SWAP3 POP PUSH1 0xE DUP5 ADD PUSH1 0x0 MSTORE PUSH1 0x20 PUSH1 0x0 KECCAK256 SWAP1 PUSH1 0x0 SWAP4 JUMPDEST PUSH1 0x1F NOT DUP5 AND DUP6 LT PUSH2 0x169E JUMPI PUSH1 0x1 SWAP5 POP DUP4 PUSH1 0x1F NOT DUP2 AND LT PUSH2 0x1685 JUMPI JUMPDEST POP POP POP DUP2 SHL ADD PUSH1 0xE DUP3 ADD SSTORE PUSH2 0x1167 JUMP JUMPDEST ADD MLOAD PUSH1 0x0 NOT PUSH1 0xF8 DUP5 PUSH1 0x3 SHL AND SHR NOT AND SWAP1 SSTORE DUP4 DUP1 DUP1 PUSH2 0x1675 JUMP JUMPDEST DUP2 DUP2 ADD MLOAD DUP4 SSTORE PUSH1 0x20 SWAP5 DUP6 ADD SWAP5 PUSH1 0x1 SWAP1 SWAP4 ADD SWAP3 SWAP1 SWAP2 ADD SWAP1 PUSH2 0x165A JUMP JUMPDEST SWAP1 SWAP2 POP PUSH1 0xE DUP5 ADD PUSH1 0x0 MSTORE PUSH1 0x20 PUSH1 0x0 KECCAK256 PUSH1 0x1F DUP5 ADD PUSH1 0x5 SHR DUP2 ADD PUSH1 0x20 DUP6 LT PUSH2 0x1705 JUMPI JUMPDEST SWAP1 DUP5 SWAP4 SWAP3 SWAP2 JUMPDEST PUSH1 0x1F DUP4 ADD PUSH1 0x5 SHR DUP3 ADD DUP2 LT PUSH2 0x16F6 JUMPI POP POP PUSH2 0x1138 JUMP JUMPDEST PUSH1 0x0 DUP2 SSTORE DUP6 SWAP5 POP PUSH1 0x1 ADD PUSH2 0x16E0 JUMP JUMPDEST POP DUP1 PUSH2 0x16DA JUMP JUMPDEST ADD MLOAD SWAP1 POP DUP4 DUP1 PUSH2 0x10EE JUMP JUMPDEST SWAP3 POP PUSH1 0xD DUP5 ADD PUSH1 0x0 MSTORE PUSH1 0x20 PUSH1 0x0 KECCAK256 SWAP1 PUSH1 0x0 SWAP4 JUMPDEST PUSH1 0x1F NOT DUP5 AND DUP6 LT PUSH2 0x176E JUMPI PUSH1 0x1 SWAP5 POP DUP4 PUSH1 0x1F NOT DUP2 AND LT PUSH2 0x1755 JUMPI JUMPDEST POP POP POP DUP2 SHL ADD PUSH1 0xD DUP3 ADD SSTORE PUSH2 0x1106 JUMP JUMPDEST ADD MLOAD PUSH1 0x0 NOT PUSH1 0xF8 DUP5 PUSH1 0x3 SHL AND SHR NOT AND SWAP1 SSTORE DUP4 DUP1 DUP1 PUSH2 0x1745 JUMP JUMPDEST DUP2 DUP2 ADD MLOAD DUP4 SSTORE PUSH1 0x20 SWAP5 DUP6 ADD SWAP5 PUSH1 0x1 SWAP1 SWAP4 ADD SWAP3 SWAP1 SWAP2 ADD SWAP1 PUSH2 0x172A JUMP JUMPDEST SWAP1 SWAP2 POP PUSH1 0xD DUP5 ADD PUSH1 0x0 MSTORE PUSH1 0x20 PUSH1 0x0 KECCAK256 PUSH1 0x1F DUP5 ADD PUSH1 0x5 SHR DUP2 ADD PUSH1 0x20 DUP6 LT PUSH2 0x17D5 JUMPI JUMPDEST SWAP1 DUP5 SWAP4 SWAP3 SWAP2 JUMPDEST PUSH1 0x1F DUP4 ADD PUSH1 0x5 SHR DUP3 ADD DUP2 LT PUSH2 0x17C6 JUMPI POP POP PUSH2 0x10D7 JUMP JUMPDEST PUSH1 0x0 DUP2 SSTORE DUP6 SWAP5 POP PUSH1 0x1 ADD PUSH2 0x17B0 JUMP JUMPDEST POP DUP1 PUSH2 0x17AA JUMP JUMPDEST ADD MLOAD SWAP1 POP DUP4 DUP1 PUSH2 0x108D JUMP JUMPDEST SWAP3 POP PUSH1 0xC DUP5 ADD PUSH1 0x0 MSTORE PUSH1 0x20 PUSH1 0x0 KECCAK256 SWAP1 PUSH1 0x0 SWAP4 JUMPDEST PUSH1 0x1F NOT DUP5 AND DUP6 LT PUSH2 0x183E JUMPI PUSH1 0x1 SWAP5 POP DUP4 PUSH1 0x1F NOT DUP2 AND LT PUSH2 0x1825 JUMPI JUMPDEST POP POP POP DUP2 SHL ADD PUSH1 0xC DUP3 ADD SSTORE PUSH2 0x10A5 JUMP JUMPDEST ADD MLOAD PUSH1 0x0 NOT PUSH1 0xF8 DUP5 PUSH1 0x3 SHL AND SHR NOT AND SWAP1 SSTORE DUP4 DUP1 DUP1 PUSH2 0x1815 JUMP JUMPDEST DUP2 DUP2 ADD MLOAD DUP4 SSTORE PUSH1 0x20 SWAP5 DUP6 ADD SWAP5 PUSH1 0x1 SWAP1 SWAP4 ADD SWAP3 SWAP1 SWAP2 ADD SWAP1 PUSH2 0x17FA JUMP JUMPDEST SWAP1 SWAP2 POP PUSH1 0xC DUP5 ADD PUSH1 0x0 MSTORE PUSH1 0x20 PUSH1 0x0 KECCAK256 PUSH1 0x1F DUP5 ADD PUSH1 0x5 SHR DUP2 ADD PUSH1 0x20 DUP6 LT PUSH2 0x18A5 JUMPI JUMPDEST SWAP1 DUP5 SWAP4 SWAP3 SWAP2 JUMPDEST PUSH1 0x1F DUP4 ADD PUSH1 0x5 SHR DUP3 ADD DUP2 LT PUSH2 0x1896 JUMPI POP POP PUSH2 0x1076 JUMP JUMPDEST PUSH1 0x0 DUP2 SSTORE DUP6 SWAP5 POP PUSH1 0x1 ADD PUSH2 0x1880 JUMP JUMPDEST POP DUP1 PUSH2 0x187A JUMP JUMPDEST ADD MLOAD SWAP1 POP DUP4 DUP1 PUSH2 0x102C JUMP JUMPDEST SWAP3 POP PUSH1 0xB DUP5 ADD PUSH1 0x0 MSTORE PUSH1 0x20 PUSH1 0x0 KECCAK256 SWAP1 PUSH1 0x0 SWAP4 JUMPDEST PUSH1 0x1F NOT DUP5 AND DUP6 LT PUSH2 0x190E JUMPI PUSH1 0x1 SWAP5 POP DUP4 PUSH1 0x1F NOT DUP2 AND LT PUSH2 0x18F5 JUMPI JUMPDEST POP POP POP DUP2 SHL ADD PUSH1 0xB DUP3 ADD SSTORE PUSH2 0x1044 JUMP JUMPDEST ADD MLOAD PUSH1 0x0 NOT PUSH1 0xF8 DUP5 PUSH1 0x3 SHL AND SHR NOT AND SWAP1 SSTORE DUP4 DUP1 DUP1 PUSH2 0x18E5 JUMP JUMPDEST DUP2 DUP2 ADD MLOAD DUP4 SSTORE PUSH1 0x20 SWAP5 DUP6 ADD SWAP5 PUSH1 0x1 SWAP1 SWAP4 ADD SWAP3 SWAP1 SWAP2 ADD SWAP1 PUSH2 0x18CA JUMP JUMPDEST SWAP1 SWAP2 POP PUSH1 0xB DUP5 ADD PUSH1 0x0 MSTORE PUSH1 0x20 PUSH1 0x0 KECCAK256 PUSH1 0x1F DUP5 ADD PUSH1 0x5 SHR DUP2 ADD PUSH1 0x20 DUP6 LT PUSH2 0x1975 JUMPI JUMPDEST SWAP1 DUP5 SWAP4 SWAP3 SWAP2 JUMPDEST PUSH1 0x1F DUP4 ADD PUSH1 0x5 SHR DUP3 ADD DUP2 LT PUSH2 0x1966 JUMPI POP POP PUSH2 0x1015 JUMP JUMPDEST PUSH1 0x0 DUP2 SSTORE DUP6 SWAP5 POP PUSH1 0x1 ADD PUSH2 0x1950 JUMP JUMPDEST POP DUP1 PUSH2 0x194A JUMP JUMPDEST ADD MLOAD SWAP1 POP DUP4 DUP1 PUSH2 0xFCD JUMP JUMPDEST SWAP3 POP PUSH1 0xA DUP5 ADD PUSH1 0x0 MSTORE PUSH1 0x20 PUSH1 0x0 KECCAK256 SWAP1 PUSH1 0x0 SWAP4 JUMPDEST PUSH1 0x1F NOT DUP5 AND DUP6 LT PUSH2 0x19DE JUMPI PUSH1 0x1 SWAP5 POP DUP4 PUSH1 0x1F NOT DUP2 AND LT PUSH2 0x19C5 JUMPI JUMPDEST POP POP POP DUP2 SHL ADD PUSH1 0xA DUP3 ADD SSTORE PUSH2 0xFE5 JUMP JUMPDEST ADD MLOAD PUSH1 0x0 NOT PUSH1 0xF8 DUP5 PUSH1 0x3 SHL AND SHR NOT AND SWAP1 SSTORE DUP4 DUP1 DUP1 PUSH2 0x19B5 JUMP JUMPDEST DUP2 DUP2 ADD MLOAD DUP4 SSTORE PUSH1 0x20 SWAP5 DUP6 ADD SWAP5 PUSH1 0x1 SWAP1 SWAP4 ADD SWAP3 SWAP1 SWAP2 ADD SWAP1 PUSH2 0x199A JUMP JUMPDEST SWAP1 SWAP2 POP PUSH1 0xA DUP5 ADD PUSH1 0x0 MSTORE PUSH1 0x20 PUSH1 0x0 KECCAK256 PUSH1 0x1F DUP5 ADD PUSH1 0x5 SHR DUP2 ADD PUSH1 0x20 DUP6 LT PUSH2 0x1A45 JUMPI JUMPDEST SWAP1 DUP5 SWAP4 SWAP3 SWAP2 JUMPDEST PUSH1 0x1F DUP4 ADD PUSH1 0x5 SHR DUP3 ADD DUP2 LT PUSH2 0x1A36 JUMPI POP POP PUSH2 0xFB6 JUMP JUMPDEST PUSH1 0x0 DUP2 SSTORE DUP6 SWAP5 POP PUSH1 0x1 ADD PUSH2 0x1A20 JUMP JUMPDEST POP DUP1 PUSH2 0x1A1A JUMP JUMPDEST ADD MLOAD SWAP1 POP DUP4 DUP1 PUSH2 0xF6C JUMP JUMPDEST SWAP3 POP PUSH1 0x9 DUP5 ADD PUSH1 0x0 MSTORE PUSH1 0x20 PUSH1 0x0 KECCAK256 SWAP1 PUSH1 0x0 SWAP4 JUMPDEST PUSH1 0x1F NOT DUP5 AND DUP6 LT PUSH2 0x1AAE JUMPI PUSH1 0x1 SWAP5 POP DUP4 PUSH1 0x1F NOT DUP2 AND LT PUSH2 0x1A95 JUMPI JUMPDEST POP POP POP DUP2 SHL ADD PUSH1 0x9 DUP3 ADD SSTORE PUSH2 0xF84 JUMP JUMPDEST ADD MLOAD PUSH1 0x0 NOT PUSH1 0xF8 DUP5 PUSH1 0x3 SHL AND SHR NOT AND SWAP1 SSTORE DUP4 DUP1 DUP1 PUSH2 0x1A85 JUMP JUMPDEST DUP2 DUP2 ADD MLOAD DUP4 SSTORE PUSH1 0x20 SWAP5 DUP6 ADD SWAP5 PUSH1 0x1 SWAP1 SWAP4 ADD SWAP3 SWAP1 SWAP2 ADD SWAP1 PUSH2 0x1A6A JUMP JUMPDEST SWAP1 SWAP2 POP PUSH1 0x9 DUP5 ADD PUSH1 0x0 MSTORE PUSH1 0x20 PUSH1 0x0 KECCAK256 PUSH1 0x1F DUP5 ADD PUSH1 0x5 SHR DUP2 ADD PUSH1 0x20 DUP6 LT PUSH2 0x1B15 JUMPI JUMPDEST SWAP1 DUP5 SWAP4 SWAP3 SWAP2 JUMPDEST PUSH1 0x1F DUP4 ADD PUSH1 0x5 SHR DUP3 ADD DUP2 LT PUSH2 0x1B06 JUMPI POP POP PUSH2 0xF55 JUMP JUMPDEST PUSH1 0x0 DUP2 SSTORE DUP6 SWAP5 POP PUSH1 0x1 ADD PUSH2 0x1AF0 JUMP JUMPDEST POP DUP1 PUSH2 0x1AEA JUMP JUMPDEST ADD MLOAD SWAP1 POP DUP4 DUP1 PUSH2 0xF0B JUMP JUMPDEST SWAP3 POP PUSH1 0x8 DUP5 ADD PUSH1 0x0 MSTORE PUSH1 0x20 PUSH1 0x0 KECCAK256 SWAP1 PUSH1 0x0 SWAP4 JUMPDEST PUSH1 0x1F NOT DUP5 AND DUP6 LT PUSH2 0x1B7E JUMPI PUSH1 0x1 SWAP5 POP DUP4 PUSH1 0x1F NOT DUP2 AND LT PUSH2 0x1B65 JUMPI JUMPDEST POP POP POP DUP2 SHL ADD PUSH1 0x8 DUP3 ADD SSTORE PUSH2 0xF23 JUMP JUMPDEST ADD MLOAD PUSH1 0x0 NOT PUSH1 0xF8 DUP5 PUSH1 0x3 SHL AND SHR NOT AND SWAP1 SSTORE DUP4 DUP1 DUP1 PUSH2 0x1B55 JUMP JUMPDEST DUP2 DUP2 ADD MLOAD DUP4 SSTORE PUSH1 0x20 SWAP5 DUP6 ADD SWAP5 PUSH1 0x1 SWAP1 SWAP4 ADD SWAP3 SWAP1 SWAP2 ADD SWAP1 PUSH2 0x1B3A JUMP JUMPDEST SWAP1 SWAP2 POP PUSH1 0x8 DUP5 ADD PUSH1 0x0 MSTORE PUSH1 0x20 PUSH1 0x0 KECCAK256 PUSH1 0x1F DUP5 ADD PUSH1 0x5 SHR DUP2 ADD PUSH1 0x20 DUP6 LT PUSH2 0x1BE5 JUMPI JUMPDEST SWAP1 DUP5 SWAP4 SWAP3 SWAP2 JUMPDEST PUSH1 0x1F DUP4 ADD PUSH1 0x5 SHR DUP3 ADD DUP2 LT PUSH2 0x1BD6 JUMPI POP POP PUSH2 0xEF4 JUMP JUMPDEST PUSH1 0x0 DUP2 SSTORE DUP6 SWAP5 POP PUSH1 0x1 ADD PUSH2 0x1BC0 JUMP JUMPDEST POP DUP1 PUSH2 0x1BBA JUMP JUMPDEST ADD MLOAD SWAP1 POP DUP4 DUP1 PUSH2 0xEAA JUMP JUMPDEST SWAP3 POP PUSH1 0x7 DUP5 ADD PUSH1 0x0 MSTORE PUSH1 0x20 PUSH1 0x0 KECCAK256 SWAP1 PUSH1 0x0 SWAP4 JUMPDEST PUSH1 0x1F NOT DUP5 AND DUP6 LT PUSH2 0x1C4E JUMPI PUSH1 0x1 SWAP5 POP DUP4 PUSH1 0x1F NOT DUP2 AND LT PUSH2 0x1C35 JUMPI JUMPDEST POP POP POP DUP2 SHL ADD PUSH1 0x7 DUP3 ADD SSTORE PUSH2 0xEC2 JUMP JUMPDEST ADD MLOAD PUSH1 0x0 NOT PUSH1 0xF8 DUP5 PUSH1 0x3 SHL AND SHR NOT AND SWAP1 SSTORE DUP4 DUP1 DUP1 PUSH2 0x1C25 JUMP JUMPDEST DUP2 DUP2 ADD MLOAD DUP4 SSTORE PUSH1 0x20 SWAP5 DUP6 ADD SWAP5 PUSH1 0x1 SWAP1 SWAP4 ADD SWAP3 SWAP1 SWAP2 ADD SWAP1 PUSH2 0x1C0A JUMP JUMPDEST SWAP1 SWAP2 POP PUSH1 0x7 DUP5 ADD PUSH1 0x0 MSTORE PUSH1 0x20 PUSH1 0x0 KECCAK256 PUSH1 0x1F DUP5 ADD PUSH1 0x5 SHR DUP2 ADD PUSH1 0x20 DUP6 LT PUSH2 0x1CB5 JUMPI JUMPDEST SWAP1 DUP5 SWAP4 SWAP3 SWAP2 JUMPDEST PUSH1 0x1F DUP4 ADD PUSH1 0x5 SHR DUP3 ADD DUP2 LT PUSH2 0x1CA6 JUMPI POP POP PUSH2 0xE93 JUMP JUMPDEST PUSH1 0x0 DUP2 SSTORE DUP6 SWAP5 POP PUSH1 0x1 ADD PUSH2 0x1C90 JUMP JUMPDEST POP DUP1 PUSH2 0x1C8A JUMP JUMPDEST ADD MLOAD SWAP1 POP DUP4 DUP1 PUSH2 0xE4A JUMP JUMPDEST SWAP3 POP PUSH1 0x6 DUP5 ADD PUSH1 0x0 MSTORE PUSH1 0x20 PUSH1 0x0 KECCAK256 SWAP1 PUSH1 0x0 SWAP4 JUMPDEST PUSH1 0x1F NOT DUP5 AND DUP6 LT PUSH2 0x1D1E JUMPI PUSH1 0x1 SWAP5 POP DUP4 PUSH1 0x1F NOT DUP2 AND LT PUSH2 0x1D05 JUMPI JUMPDEST POP POP POP DUP2 SHL ADD PUSH1 0x6 DUP3 ADD SSTORE PUSH2 0xE62 JUMP JUMPDEST ADD MLOAD PUSH1 0x0 NOT PUSH1 0xF8 DUP5 PUSH1 0x3 SHL AND SHR NOT AND SWAP1 SSTORE DUP4 DUP1 DUP1 PUSH2 0x1CF5 JUMP JUMPDEST DUP2 DUP2 ADD MLOAD DUP4 SSTORE PUSH1 0x20 SWAP5 DUP6 ADD SWAP5 PUSH1 0x1 SWAP1 SWAP4 ADD SWAP3 SWAP1 SWAP2 ADD SWAP1 PUSH2 0x1CDA JUMP JUMPDEST SWAP1 SWAP2 POP PUSH1 0x6 DUP5 ADD PUSH1 0x0 MSTORE PUSH1 0x20 PUSH1 0x0 KECCAK256 PUSH1 0x1F DUP5 ADD PUSH1 0x5 SHR DUP2 ADD PUSH1 0x20 DUP6 LT PUSH2 0x1D85 JUMPI JUMPDEST SWAP1 DUP5 SWAP4 SWAP3 SWAP2 JUMPDEST PUSH1 0x1F DUP4 ADD PUSH1 0x5 SHR DUP3 ADD DUP2 LT PUSH2 0x1D76 JUMPI POP POP PUSH2 0xE33 JUMP JUMPDEST PUSH1 0x0 DUP2 SSTORE DUP6 SWAP5 POP PUSH1 0x1 ADD PUSH2 0x1D60 JUMP JUMPDEST POP DUP1 PUSH2 0x1D5A JUMP JUMPDEST ADD MLOAD SWAP1 POP DUP4 DUP1 PUSH2 0xDEA JUMP JUMPDEST SWAP3 POP PUSH1 0x5 DUP5 ADD PUSH1 0x0 MSTORE PUSH1 0x20 PUSH1 0x0 KECCAK256 SWAP1 PUSH1 0x0 SWAP4 JUMPDEST PUSH1 0x1F NOT DUP5 AND DUP6 LT PUSH2 0x1DEE JUMPI PUSH1 0x1 SWAP5 POP DUP4 PUSH1 0x1F NOT DUP2 AND LT PUSH2 0x1DD5 JUMPI JUMPDEST POP POP POP DUP2 SHL ADD PUSH1 0x5 DUP3 ADD SSTORE PUSH2 0xE02 JUMP JUMPDEST ADD MLOAD PUSH1 0x0 NOT PUSH1 0xF8 DUP5 PUSH1 0x3 SHL AND SHR NOT AND SWAP1 SSTORE DUP4 DUP1 DUP1 PUSH2 0x1DC5 JUMP JUMPDEST DUP2 DUP2 ADD MLOAD DUP4 SSTORE PUSH1 0x20 SWAP5 DUP6 ADD SWAP5 PUSH1 0x1 SWAP1 SWAP4 ADD SWAP3 SWAP1 SWAP2 ADD SWAP1 PUSH2 0x1DAA JUMP JUMPDEST SWAP1 SWAP2 POP PUSH1 0x5 DUP5 ADD PUSH1 0x0 MSTORE PUSH1 0x20 PUSH1 0x0 KECCAK256 PUSH1 0x1F DUP5 ADD PUSH1 0x5 SHR DUP2 ADD PUSH1 0x20 DUP6 LT PUSH2 0x1E55 JUMPI JUMPDEST SWAP1 DUP5 SWAP4 SWAP3 SWAP2 JUMPDEST PUSH1 0x1F DUP4 ADD PUSH1 0x5 SHR DUP3 ADD DUP2 LT PUSH2 0x1E46 JUMPI POP POP PUSH2 0xDD3 JUMP JUMPDEST PUSH1 0x0 DUP2 SSTORE DUP6 SWAP5 POP PUSH1 0x1 ADD PUSH2 0x1E30 JUMP JUMPDEST POP DUP1 PUSH2 0x1E2A JUMP JUMPDEST ADD MLOAD SWAP1 POP DUP4 DUP1 PUSH2 0xD8A JUMP JUMPDEST SWAP3 POP PUSH1 0x4 DUP5 ADD PUSH1 0x0 MSTORE PUSH1 0x20 PUSH1 0x0 KECCAK256 SWAP1 PUSH1 0x0 SWAP4 JUMPDEST PUSH1 0x1F NOT DUP5 AND DUP6 LT PUSH2 0x1EBE JUMPI PUSH1 0x1 SWAP5 POP DUP4 PUSH1 0x1F NOT DUP2 AND LT PUSH2 0x1EA5 JUMPI JUMPDEST POP POP POP DUP2 SHL ADD PUSH1 0x4 DUP3 ADD SSTORE PUSH2 0xDA2 JUMP JUMPDEST ADD MLOAD PUSH1 0x0 NOT PUSH1 0xF8 DUP5 PUSH1 0x3 SHL AND SHR NOT AND SWAP1 SSTORE DUP4 DUP1 DUP1 PUSH2 0x1E95 JUMP JUMPDEST DUP2 DUP2 ADD MLOAD DUP4 SSTORE PUSH1 0x20 SWAP5 DUP6 ADD SWAP5 PUSH1 0x1 SWAP1 SWAP4 ADD SWAP3 SWAP1 SWAP2 ADD SWAP1 PUSH2 0x1E7A JUMP JUMPDEST SWAP1 SWAP2 POP PUSH1 0x4 DUP5 ADD PUSH1 0x0 MSTORE PUSH1 0x20 PUSH1 0x0 KECCAK256 PUSH1 0x1F DUP5 ADD PUSH1 0x5 SHR DUP2 ADD PUSH1 0x20 DUP6 LT PUSH2 0x1F25 JUMPI JUMPDEST SWAP1 DUP5 SWAP4 SWAP3 SWAP2 JUMPDEST PUSH1 0x1F DUP4 ADD PUSH1 0x5 SHR DUP3 ADD DUP2 LT PUSH2 0x1F16 JUMPI POP POP PUSH2 0xD73 JUMP JUMPDEST PUSH1 0x0 DUP2 SSTORE DUP6 SWAP5 POP PUSH1 0x1 ADD PUSH2 0x1F00 JUMP JUMPDEST POP DUP1 PUSH2 0x1EFA JUMP JUMPDEST ADD MLOAD SWAP1 POP DUP4 DUP1 PUSH2 0xD2A JUMP JUMPDEST SWAP3 POP PUSH1 0x3 DUP5 ADD PUSH1 0x0 MSTORE PUSH1 0x20 PUSH1 0x0 KECCAK256 SWAP1 PUSH1 0x0 SWAP4 JUMPDEST PUSH1 0x1F NOT DUP5 AND DUP6 LT PUSH2 0x1F8E JUMPI PUSH1 0x1 SWAP5 POP DUP4 PUSH1 0x1F NOT DUP2 AND LT PUSH2 0x1F75 JUMPI JUMPDEST POP POP POP DUP2 SHL ADD PUSH1 0x3 DUP3 ADD SSTORE PUSH2 0xD42 JUMP JUMPDEST ADD MLOAD PUSH1 0x0 NOT PUSH1 0xF8 DUP5 PUSH1 0x3 SHL AND SHR NOT AND SWAP1 SSTORE DUP4 DUP1 DUP1 PUSH2 0x1F65 JUMP JUMPDEST DUP2 DUP2 ADD MLOAD DUP4 SSTORE PUSH1 0x20 SWAP5 DUP6 ADD SWAP5 PUSH1 0x1 SWAP1 SWAP4 ADD SWAP3 SWAP1 SWAP2 ADD SWAP1 PUSH2 0x1F4A JUMP JUMPDEST SWAP1 SWAP2 POP PUSH1 0x3 DUP5 ADD PUSH1 0x0 MSTORE PUSH1 0x20 PUSH1 0x0 KECCAK256 PUSH1 0x1F DUP5 ADD PUSH1 0x5 SHR DUP2 ADD PUSH1 0x20 DUP6 LT PUSH2 0x1FF5 JUMPI JUMPDEST SWAP1 DUP5 SWAP4 SWAP3 SWAP2 JUMPDEST PUSH1 0x1F DUP4 ADD PUSH1 0x5 SHR DUP3 ADD DUP2 LT PUSH2 0x1FE6 JUMPI POP POP PUSH2 0xD13 JUMP JUMPDEST PUSH1 0x0 DUP2 SSTORE DUP6 SWAP5 POP PUSH1 0x1 ADD PUSH2 0x1FD0 JUMP JUMPDEST POP DUP1 PUSH2 0x1FCA JUMP JUMPDEST ADD MLOAD SWAP1 POP DUP4 DUP1 PUSH2 0xCCA JUMP JUMPDEST SWAP3 POP PUSH1 0x2 DUP5 ADD PUSH1 0x0 MSTORE PUSH1 0x20 PUSH1 0x0 KECCAK256 SWAP1 PUSH1 0x0 SWAP4 JUMPDEST PUSH1 0x1F NOT DUP5 AND DUP6 LT PUSH2 0x205E JUMPI PUSH1 0x1 SWAP5 POP DUP4 PUSH1 0x1F NOT DUP2 AND LT PUSH2 0x2045 JUMPI JUMPDEST POP POP POP DUP2 SHL ADD PUSH1 0x2 DUP3 ADD SSTORE PUSH2 0xCE2 JUMP JUMPDEST ADD MLOAD PUSH1 0x0 NOT PUSH1 0xF8 DUP5 PUSH1 0x3 SHL AND SHR NOT AND SWAP1 SSTORE DUP4 DUP1 DUP1 PUSH2 0x2035 JUMP JUMPDEST DUP2 DUP2 ADD MLOAD DUP4 SSTORE PUSH1 0x20 SWAP5 DUP6 ADD SWAP5 PUSH1 0x1 SWAP1 SWAP4 ADD SWAP3 SWAP1 SWAP2 ADD SWAP1 PUSH2 0x201A JUMP JUMPDEST SWAP1 SWAP2 POP PUSH1 0x2 DUP5 ADD PUSH1 0x0 MSTORE PUSH1 0x20 PUSH1 0x0 KECCAK256 PUSH1 0x1F DUP5 ADD PUSH1 0x5 SHR DUP2 ADD PUSH1 0x20 DUP6 LT PUSH2 0x20C5 JUMPI JUMPDEST SWAP1 DUP5 SWAP4 SWAP3 SWAP2 JUMPDEST PUSH1 0x1F DUP4 ADD PUSH1 0x5 SHR DUP3 ADD DUP2 LT PUSH2 0x20B6 JUMPI POP POP PUSH2 0xCB3 JUMP JUMPDEST PUSH1 0x0 DUP2 SSTORE DUP6 SWAP5 POP PUSH1 0x1 ADD PUSH2 0x20A0 JUMP JUMPDEST POP DUP1 PUSH2 0x209A JUMP JUMPDEST ADD MLOAD SWAP1 POP DUP4 DUP1 PUSH2 0xC6A JUMP JUMPDEST SWAP3 POP PUSH1 0x1 DUP5 ADD PUSH1 0x0 MSTORE PUSH1 0x20 PUSH1 0x0 KECCAK256 SWAP1 PUSH1 0x0 SWAP4 JUMPDEST PUSH1 0x1F NOT DUP5 AND DUP6 LT PUSH2 0x212E JUMPI PUSH1 0x1 SWAP5 POP DUP4 PUSH1 0x1F NOT DUP2 AND LT PUSH2 0x2115 JUMPI JUMPDEST POP POP POP DUP2 SHL ADD PUSH1 0x1 DUP3 ADD SSTORE PUSH2 0xC82 JUMP JUMPDEST ADD MLOAD PUSH1 0x0 NOT PUSH1 0xF8 DUP5 PUSH1 0x3 SHL AND SHR NOT AND SWAP1 SSTORE DUP4 DUP1 DUP1 PUSH2 0x2105 JUMP JUMPDEST DUP2 DUP2 ADD MLOAD DUP4 SSTORE PUSH1 0x20 SWAP5 DUP6 ADD SWAP5 PUSH1 0x1 SWAP1 SWAP4 ADD SWAP3 SWAP1 SWAP2 ADD SWAP1 PUSH2 0x20EA JUMP JUMPDEST SWAP1 SWAP2 POP PUSH1 0x1 DUP5 ADD PUSH1 0x0 MSTORE PUSH1 0x20 PUSH1 0x0 KECCAK256 PUSH1 0x1F DUP5 ADD PUSH1 0x5 SHR DUP2 ADD PUSH1 0x20 DUP6 LT PUSH2 0x2195 JUMPI JUMPDEST SWAP1 DUP5 SWAP4 SWAP3 SWAP2 JUMPDEST PUSH1 0x1F DUP4 ADD PUSH1 0x5 SHR DUP3 ADD DUP2 LT PUSH2 0x2186 JUMPI POP POP PUSH2 0xC53 JUMP JUMPDEST PUSH1 0x0 DUP2 SSTORE DUP6 SWAP5 POP PUSH1 0x1 ADD PUSH2 0x2170 JUMP JUMPDEST POP DUP1 PUSH2 0x216A JUMP JUMPDEST ADD MLOAD SWAP1 POP DUP4 DUP1 PUSH2 0xC0D JUMP JUMPDEST SWAP3 POP DUP4 PUSH1 0x0 MSTORE PUSH1 0x20 PUSH1 0x0 KECCAK256 SWAP1 PUSH1 0x0 SWAP4 JUMPDEST PUSH1 0x1F NOT DUP5 AND DUP6 LT PUSH2 0x21F8 JUMPI PUSH1 0x1 SWAP5 POP DUP4 PUSH1 0x1F NOT DUP2 AND LT PUSH2 0x21DF JUMPI JUMPDEST POP POP POP DUP2 SHL ADD DUP2 SSTORE PUSH2 0xC22 JUMP JUMPDEST ADD MLOAD PUSH1 0x0 NOT PUSH1 0xF8 DUP5 PUSH1 0x3 SHL AND SHR NOT AND SWAP1 SSTORE DUP4 DUP1 DUP1 PUSH2 0x21D2 JUMP JUMPDEST DUP2 DUP2 ADD MLOAD DUP4 SSTORE PUSH1 0x20 SWAP5 DUP6 ADD SWAP5 PUSH1 0x1 SWAP1 SWAP4 ADD SWAP3 SWAP1 SWAP2 ADD SWAP1 PUSH2 0x21B7 JUMP JUMPDEST SWAP1 SWAP2 POP DUP4 PUSH1 0x0 MSTORE PUSH1 0x20 PUSH1 0x0 KECCAK256 PUSH1 0x1F DUP5 ADD PUSH1 0x5 SHR DUP2 ADD PUSH1 0x20 DUP6 LT PUSH2 0x225C JUMPI JUMPDEST SWAP1 DUP5 SWAP4 SWAP3 SWAP2 JUMPDEST PUSH1 0x1F DUP4 ADD PUSH1 0x5 SHR DUP3 ADD DUP2 LT PUSH2 0x224D JUMPI POP POP PUSH2 0xBF6 JUMP JUMPDEST PUSH1 0x0 DUP2 SSTORE DUP6 SWAP5 POP PUSH1 0x1 ADD PUSH2 0x2237 JUMP JUMPDEST POP DUP1 PUSH2 0x2231 JUMP JUMPDEST PUSH3 0x461BCD PUSH1 0xE5 SHL PUSH2 0x5A0 SWAP1 DUP2 MSTORE PUSH1 0x20 PUSH2 0x5A4 MSTORE PUSH1 0xB PUSH2 0x5C4 MSTORE PUSH11 0x139BDD081CDD195DD85C99 PUSH1 0xAA SHL PUSH2 0x5E4 MSTORE PUSH1 0x64 SWAP1 REVERT JUMPDEST PUSH1 0x4 CALLDATALOAD SWAP1 PUSH1 0x1 PUSH1 0x1 PUSH1 0xA0 SHL SUB DUP3 AND DUP3 SUB PUSH2 0xA1 JUMPI JUMP JUMPDEST SWAP2 DUP2 PUSH1 0x1F DUP5 ADD SLT ISZERO PUSH2 0xA1 JUMPI DUP3 CALLDATALOAD SWAP2 PUSH1 0x1 PUSH1 0x1 PUSH1 0x40 SHL SUB DUP4 GT PUSH2 0xA1 JUMPI PUSH1 0x20 DUP4 DUP2 DUP7 ADD SWAP6 ADD ADD GT PUSH2 0xA1 JUMPI JUMP JUMPDEST SWAP1 PUSH1 0x1 DUP3 DUP2 SHR SWAP3 AND DUP1 ISZERO PUSH2 0x2307 JUMPI JUMPDEST PUSH1 0x20 DUP4 LT EQ PUSH2 0x22F1 JUMPI JUMP JUMPDEST PUSH4 0x4E487B71 PUSH1 0xE0 SHL PUSH1 0x0 MSTORE PUSH1 0x22 PUSH1 0x4 MSTORE PUSH1 0x24 PUSH1 0x0 REVERT JUMPDEST SWAP2 PUSH1 0x7F AND SWAP2 PUSH2 0x22E6 JUMP JUMPDEST PUSH2 0x220 DUP2 ADD SWAP1 DUP2 LT PUSH1 0x1 PUSH1 0x1 PUSH1 0x40 SHL SUB DUP3 GT OR PUSH2 0x1496 JUMPI PUSH1 0x40 MSTORE JUMP JUMPDEST SWAP1 PUSH1 0x1F DUP1 NOT SWAP2 ADD AND DUP2 ADD SWAP1 DUP2 LT PUSH1 0x1 PUSH1 0x1 PUSH1 0x40 SHL SUB DUP3 GT OR PUSH2 0x1496 JUMPI PUSH1 0x40 MSTORE JUMP JUMPDEST SWAP1 PUSH1 0x40 MLOAD SWAP2 DUP3 PUSH1 0x0 DUP3 SLOAD SWAP3 PUSH2 0x2362 DUP5 PUSH2 0x22D7 JUMP JUMPDEST SWAP1 DUP2 DUP5 MSTORE PUSH1 0x1 SWAP5 DUP6 DUP2 AND SWAP1 DUP2 PUSH1 0x0 EQ PUSH2 0x23D1 JUMPI POP PUSH1 0x1 EQ PUSH2 0x238E JUMPI JUMPDEST POP POP PUSH2 0x238C SWAP3 POP SUB DUP4 PUSH2 0x232D JUMP JUMPDEST JUMP JUMPDEST SWAP1 SWAP4 SWAP2 POP PUSH1 0x0 MSTORE PUSH1 0x20 SWAP1 DUP2 PUSH1 0x0 KECCAK256 SWAP4 PUSH1 0x0 SWAP2 JUMPDEST DUP2 DUP4 LT PUSH2 0x23B9 JUMPI POP POP PUSH2 0x238C SWAP4 POP DUP3 ADD ADD CODESIZE DUP1 PUSH2 0x237E JUMP JUMPDEST DUP6 SLOAD DUP9 DUP5 ADD DUP6 ADD MSTORE SWAP5 DUP6 ADD SWAP5 DUP8 SWAP5 POP SWAP2 DUP4 ADD SWAP2 PUSH2 0x23A1 JUMP JUMPDEST SWAP2 POP POP PUSH2 0x238C SWAP5 POP PUSH1 0x20 SWAP3 POP PUSH1 0xFF NOT AND DUP3 DUP5 ADD MSTORE ISZERO ISZERO PUSH1 0x5 SHL DUP3 ADD ADD CODESIZE DUP1 PUSH2 0x237E JUMP JUMPDEST SWAP2 SWAP1 DUP3 MLOAD SWAP3 DUP4 DUP3 MSTORE PUSH1 0x0 JUMPDEST DUP5 DUP2 LT PUSH2 0x2420 JUMPI POP POP DUP3 PUSH1 0x0 PUSH1 0x20 DUP1 SWAP5 SWAP6 DUP5 ADD ADD MSTORE PUSH1 0x1F DUP1 NOT SWAP2 ADD AND ADD ADD SWAP1 JUMP JUMPDEST PUSH1 0x20 DUP2 DUP4 ADD DUP2 ADD MLOAD DUP5 DUP4 ADD DUP3 ADD MSTORE ADD PUSH2 0x23FF JUMP JUMPDEST PUSH1 0x2 SLOAD DUP2 LT ISZERO PUSH2 0x246B JUMPI PUSH1 0x2 PUSH1 0x0 MSTORE PUSH32 0x405787FA12A823E0F2B7631CC41B3BA8828B3321CA811111FA75CD3AA3BB5ACE ADD SWAP1 PUSH1 0x0 SWAP1 JUMP JUMPDEST PUSH4 0x4E487B71 PUSH1 0xE0 SHL PUSH1 0x0 MSTORE PUSH1 0x32 PUSH1 0x4 MSTORE PUSH1 0x24 PUSH1 0x0 REVERT JUMPDEST SWAP3 SWAP2 SWAP3 PUSH1 0x1 PUSH1 0x1 PUSH1 0x40 SHL SUB DUP3 GT PUSH2 0x1496 JUMPI PUSH1 0x40 MLOAD SWAP2 PUSH2 0x24AA PUSH1 0x1F DUP3 ADD PUSH1 0x1F NOT AND PUSH1 0x20 ADD DUP5 PUSH2 0x232D JUMP JUMPDEST DUP3 SWAP5 DUP2 DUP5 MSTORE DUP2 DUP4 ADD GT PUSH2 0xA1 JUMPI DUP3 DUP2 PUSH1 0x20 SWAP4 DUP5 PUSH1 0x0 SWAP7 ADD CALLDATACOPY ADD ADD MSTORE JUMP JUMPDEST SWAP1 DUP1 PUSH1 0x20 SWAP4 SWAP3 DUP2 DUP5 MSTORE DUP5 DUP5 ADD CALLDATACOPY PUSH1 0x0 DUP3 DUP3 ADD DUP5 ADD MSTORE PUSH1 0x1F ADD PUSH1 0x1F NOT AND ADD ADD SWAP1 JUMP INVALID LOG2 PUSH5 0x6970667358 0x22 SLT KECCAK256 EXTCODEHASH 0xC6 EXP 0xCD MSIZE 0xDA DUP7 0xD8 0xC4 SSTORE NUMBER 0xDA 0xA9 0xCA EXTCODECOPY SWAP13 STOP DUP7 0xB3 PREVRANDAO LT 0xE6 0x4D PUSH8 0xAB9AC14FE4C7FB96 PUSH5 0x736F6C6343 STOP ADDMOD EQ STOP CALLER "},"methodIdentifiers":{"apprentices(uint256)":"f31bee3e","getSummons(address)":"cf84c603","steward()":"637eea19","summonApprentice(address,string,string,string,string,string,string,string,string,string,string,string,string,string,string,string,string,string)":"2312fed4","summons(address)":"5a2ed662","totalSummons()":"2a17d4cd"}}}}}