{"contracts/registry/ApprenticeSummonerXVII.sol":{"ApprenticeSummonerXVII":{"abi":[{"inputs":[],"stateMutability":"nonpayable","type":"constructor"},{"anonymous":false,"inputs":[{"indexed":true,"internalType":"address","name":"apprentice","type":"address"},{"indexed":false,"internalType":"string","name":"name","type":"string"},{"indexed":false,"internalType":"string","name":"signal","type":"string"},{"indexed":false,"internalType":"string","name":"drift","type":"string"},{"indexed":false,"internalType":"string","name":"pulse","type":"string"},{"indexed":false,"internalType":"string","name":"codexRef","type":"string"},{"indexed":false,"internalType":"string","name":"resonance","type":"string"},{"indexed":false,"internalType":"string","name":"signature","type":"string"},{"indexed":false,"internalType":"string","name":"sanctum","type":"string"},{"indexed":false,"internalType":"string","name":"chant","type":"string"},{"indexed":false,"internalType":"string","name":"choreography","type":"string"},{"indexed":false,"internalType":"string","name":"stewardName","type":"string"},{"indexed":false,"internalType":"string","name":"echo","type":"string"},{"indexed":false,"internalType":"string","name":"choreographyType","type":"string"},{"indexed":false,"internalType":"string","name":"signalType","type":"string"}],"name":"ApprenticeSummoned","type":"event"},{"inputs":[{"internalType":"uint256","name":"","type":"uint256"}],"name":"apprentices","outputs":[{"internalType":"address","name":"","type":"address"}],"stateMutability":"view","type":"function"},{"inputs":[{"internalType":"address","name":"apprentice","type":"address"}],"name":"getSummons","outputs":[{"components":[{"internalType":"string","name":"name","type":"string"},{"internalType":"string","name":"signal","type":"string"},{"internalType":"string","name":"drift","type":"string"},{"internalType":"string","name":"pulse","type":"string"},{"internalType":"string","name":"codexRef","type":"string"},{"internalType":"string","name":"resonance","type":"string"},{"internalType":"string","name":"signature","type":"string"},{"internalType":"string","name":"sanctum","type":"string"},{"internalType":"string","name":"chant","type":"string"},{"internalType":"string","name":"choreography","type":"string"},{"internalType":"string","name":"stewardName","type":"string"},{"internalType":"string","name":"echo","type":"string"},{"internalType":"string","name":"choreographyType","type":"string"},{"internalType":"string","name":"signalType","type":"string"}],"internalType":"struct ApprenticeSummonerXVII.Summons","name":"","type":"tuple"}],"stateMutability":"view","type":"function"},{"inputs":[],"name":"steward","outputs":[{"internalType":"address","name":"","type":"address"}],"stateMutability":"view","type":"function"},{"inputs":[{"internalType":"address","name":"apprentice","type":"address"},{"internalType":"string","name":"name","type":"string"},{"internalType":"string","name":"signal","type":"string"},{"internalType":"string","name":"drift","type":"string"},{"internalType":"string","name":"pulse","type":"string"},{"internalType":"string","name":"codexRef","type":"string"},{"internalType":"string","name":"resonance","type":"string"},{"internalType":"string","name":"signature","type":"string"},{"internalType":"string","name":"sanctum","type":"string"},{"internalType":"string","name":"chant","type":"string"},{"internalType":"string","name":"choreography","type":"string"},{"internalType":"string","name":"stewardName","type":"string"},{"internalType":"string","name":"echo","type":"string"},{"internalType":"string","name":"choreographyType","type":"string"},{"internalType":"string","name":"signalType","type":"string"}],"name":"summonApprentice","outputs":[],"stateMutability":"nonpayable","type":"function"},{"inputs":[{"internalType":"address","name":"","type":"address"}],"name":"summons","outputs":[{"internalType":"string","name":"name","type":"string"},{"internalType":"string","name":"signal","type":"string"},{"internalType":"string","name":"drift","type":"string"},{"internalType":"string","name":"pulse","type":"string"},{"internalType":"string","name":"codexRef","type":"string"},{"internalType":"string","name":"resonance","type":"string"},{"internalType":"string","name":"signature","type":"string"},{"internalType":"string","name":"sanctum","type":"string"},{"internalType":"string","name":"chant","type":"string"},{"internalType":"string","name":"choreography","type":"string"},{"internalType":"string","name":"stewardName","type":"string"},{"internalType":"string","name":"echo","type":"string"},{"internalType":"string","name":"choreographyType","type":"string"},{"internalType":"string","name":"signalType","type":"string"}],"stateMutability":"view","type":"function"},{"inputs":[],"name":"totalSummons","outputs":[{"internalType":"uint256","name":"","type":"uint256"}],"stateMutability":"view","type":"function"}],"evm":{"bytecode":{"linkReferences":{},"object":"6080806040523461002857600080546001600160a01b03191633179055611efc908161002e8239f35b600080fdfe61046080604052600436101561001457600080fd5b60003560e01c9081632a17d4cd14611c57575080635a2ed66214611a7f5780635da9c05a146103d6578063637eea19146103ad578063cf84c603146100a95763f31bee3e1461006257600080fd5b346100a45760203660031901126100a4576004356002548110156100a45761008b602091611e12565b905460405160039290921b1c6001600160a01b03168152f35b600080fd5b346100a45760203660031901126100a4576100c2611c72565b60606101a06040516100d381611cc2565b82815282602082015282604082015282808201528260808201528260a08201528260c08201528260e08201528261010082015282610120820152826101408201528261016082015282610180820152015260018060a01b031660005260016020526102c36040600020610230600d6040519261014e84611cc2565b61015781611cff565b845261016560018201611cff565b602085015261017660028201611cff565b604085015261018760038201611cff565b606085015261019860048201611cff565b60808501526101a960058201611cff565b60a08501526101ba60068201611cff565b60c08501526101cb60078201611cff565b60e08501526101dc60088201611cff565b6101008501526101ee60098201611cff565b610120850152610200600a8201611cff565b610140850152610212600b8201611cff565b610160850152610224600c8201611cff565b61018085015201611cff565b6101a08201526103a9816101a061039461037e61036661034e61033661031e6103076102f16102db6040519d8e9d8e6020815260606102ae61029961028385516101c060208701526101e0860190611da5565b6020860151858203601f19016040870152611da5565b6040850151848203601f190184860152611da5565b920151906080601f1982850301910152611da5565b8d60808d01519060a0601f1982850301910152611da5565b60a08b01518d8203601f190160c08f0152611da5565b60c08a01518c8203601f190160e08e0152611da5565b60e08901518b8203601f19016101008d0152611da5565b6101008801518a8203601f19016101208c0152611da5565b610120870151898203601f19016101408b0152611da5565b610140860151888203601f19016101608a0152611da5565b610160850151878203601f1901610180890152611da5565b610180840151868203601f190184880152611da5565b910151838203601f19016101c0850152611da5565b0390f35b346100a45760003660031901126100a4576000546040516001600160a01b039091168152602090f35b346100a4576101e03660031901126100a4576103f0611c72565b610300526024356001600160401b0381116100a457610413903690600401611de5565b6102e052610360526044356001600160401b0381116100a45761043a903690600401611de5565b60c052610380526064356001600160401b0381116100a457610460903690600401611de5565b610280526102a0526084356001600160401b0381116100a457610487903690600401611de5565b610100526103a0526001600160401b0360a435116100a4576104ae3660a435600401611de5565b6102c052610200526001600160401b0360c435116100a4576104d53660c435600401611de5565b610120526101e0526001600160401b0360e435116100a4576104fc3660e435600401611de5565b6103c052610240526001600160401b0361010435116100a4576105253661010435600401611de5565b61044052610220526001600160401b0361012435116100a45761054e3661012435600401611de5565b61042052610320526001600160401b0361014435116100a4576105773661014435600401611de5565b6103405260e0526001600160401b0361016435116100a45761059f3661016435600401611de5565b610140526103e0526001600160401b0361018435116100a4576105c83661018435600401611de5565b610260526101c0526001600160401b036101a435116100a4576105f1366101a435600401611de5565b6101a052610400526001600160401b036101c435116100a45761061a366101c435600401611de5565b6101805260a0526000546001600160a01b03163303611a4c5761064260405180608052611cc2565b610653366102e05161036051611e5f565b608051526106673660c05161038051611e5f565b6020608051015261067f36610280516102a051611e5f565b6040608051015261069736610100516103a051611e5f565b606060805101526106af366102c05161020051611e5f565b6080805101526106c636610120516101e051611e5f565b60a060805101526106de366103c05161024051611e5f565b60c060805101526106f6366104405161022051611e5f565b60e0608051015261070e366104205161032051611e5f565b6101006080510152610726366103405160e051611e5f565b610120608051015261073f36610140516103e051611e5f565b610140608051015261075836610260516101c051611e5f565b6101606080510152610771366101a05161040051611e5f565b6101806080510152610789366101805160a051611e5f565b6101a0608051015260018060a01b03610300511660005260016020526040600020608051518051906001600160401b038211610eef5781906107cb8454611c88565b601f81116119fc575b50602090601f831160011461199057600092611985575b50508160011b916000199060031b1c19161781555b602060805101518051906001600160401b038211610eef5781906108276001850154611c88565b601f8111611932575b50602090601f83116001146118c0576000926118b5575b50508160011b916000199060031b1c19161760018201555b604060805101518051906001600160401b038211610eef5781906108866002850154611c88565b601f8111611862575b50602090601f83116001146117f0576000926117e5575b50508160011b916000199060031b1c19161760028201555b606060805101518051906001600160401b038211610eef5781906108e56003850154611c88565b601f8111611792575b50602090601f831160011461172057600092611715575b50508160011b916000199060031b1c19161760038201555b6080805101518051906001600160401b038211610eef5781906109436004850154611c88565b601f81116116c2575b50602090601f831160011461165057600092611645575b50508160011b916000199060031b1c19161760048201555b60a060805101518051906001600160401b038211610eef5781906109a26005850154611c88565b601f81116115f2575b50602090601f831160011461158057600092611575575b50508160011b916000199060031b1c19161760058201555b60c060805101518051906001600160401b038211610eef578190610a016006850154611c88565b601f8111611522575b50602090601f83116001146114b0576000926114a5575b50508160011b916000199060031b1c19161760068201555b60e060805101518051906001600160401b038211610eef578190610a606007850154611c88565b601f8111611452575b50602090601f83116001146113e0576000926113d5575b50508160011b916000199060031b1c19161760078201555b61010060805101518051906001600160401b038211610eef578190610ac06008850154611c88565b601f8111611382575b50602090601f831160011461131057600092611305575b50508160011b916000199060031b1c19161760088201555b61012060805101518051906001600160401b038211610eef578190610b206009850154611c88565b601f81116112b2575b50602090601f831160011461124057600092611235575b50508160011b916000199060031b1c19161760098201555b61014060805101518051906001600160401b038211610eef578190610b80600a850154611c88565b601f81116111e2575b50602090601f831160011461117057600092611165575b50508160011b916000199060031b1c191617600a8201555b61016060805101518051906001600160401b038211610eef578190610be0600b850154611c88565b601f8111611112575b50602090601f83116001146110a057600092611095575b50508160011b916000199060031b1c191617600b8201555b61018060805101518051906001600160401b038211610eef578190610c40600c850154611c88565b601f8111611042575b50602090601f8311600114610fd057600092610fc5575b50508160011b916000199060031b1c191617600c8201555b6101a060805101518051906001600160401b038211610eef57610c9e600d840154611c88565b601f8111610f7e575b50602090601f8311600114610f1057600d929160009183610f05575b50508160011b916000199060031b1c1916179101555b60025468010000000000000000811015610eef57806001610cfd9201600255611e12565b81549060031b9060018060a01b036103005116821b9160018060a01b03901b19161790556101c0604051806101605252610e98610e7e610e64610e4a610e31610e17610dfe610de5610dcc610db3610d9a610d81610d696101c061016051016102e05161036051611ea5565b61016051602081830391015260c05161038051611ea5565b610160516040818303910152610280516102a051611ea5565b610160516060818303910152610100516103a051611ea5565b6101605160808183039101526102c05161020051611ea5565b6101605160a0818303910152610120516101e051611ea5565b6101605160c08183039101526103c05161024051611ea5565b6101605160e08183039101526104405161022051611ea5565b610160516101008183039101526104205161032051611ea5565b610160516101208183039101526103405160e051611ea5565b61016051610140818303910152610140516103e051611ea5565b61016051610160818303910152610260516101c051611ea5565b610160516101808183039101526101a05161040051611ea5565b610160516101a08183039101527f63cb6bdcf475c66bce6432ffd152ea83900faa9eef6fab6d653178030d7bf57260018060a01b03610300511691610ee761016051916101805160a051611ea5565b0361016051a2005b634e487b7160e01b600052604160045260246000fd5b015190508480610cc3565b90600d84016000526020600020916000601f198516905b818110610f665750916001939185600d969410610f4d575b505050811b01910155610cd9565b015160001960f88460031b161c19169055848080610f3f565b92936020600181928786015181550195019301610f27565b600d84016000526020600020601f840160051c810160208510610fbe575b601f830160051c82018110610fb2575050610ca7565b60008155600101610f9c565b5080610f9c565b015190508380610c60565b9250600c84016000526020600020906000935b601f1984168510611027576001945083601f1981161061100e575b505050811b01600c820155610c78565b015160001960f88460031b161c19169055838080610ffe565b81810151835560209485019460019093019290910190610fe3565b909150600c84016000526020600020601f840160051c81016020851061108e575b90849392915b601f830160051c8201811061107f575050610c49565b60008155859450600101611069565b5080611063565b015190508380610c00565b9250600b84016000526020600020906000935b601f19841685106110f7576001945083601f198116106110de575b505050811b01600b820155610c18565b015160001960f88460031b161c191690558380806110ce565b818101518355602094850194600190930192909101906110b3565b909150600b84016000526020600020601f840160051c81016020851061115e575b90849392915b601f830160051c8201811061114f575050610be9565b60008155859450600101611139565b5080611133565b015190508380610ba0565b9250600a84016000526020600020906000935b601f19841685106111c7576001945083601f198116106111ae575b505050811b01600a820155610bb8565b015160001960f88460031b161c1916905583808061119e565b81810151835560209485019460019093019290910190611183565b909150600a84016000526020600020601f840160051c81016020851061122e575b90849392915b601f830160051c8201811061121f575050610b89565b60008155859450600101611209565b5080611203565b015190508380610b40565b9250600984016000526020600020906000935b601f1984168510611297576001945083601f1981161061127e575b505050811b016009820155610b58565b015160001960f88460031b161c1916905583808061126e565b81810151835560209485019460019093019290910190611253565b909150600984016000526020600020601f840160051c8101602085106112fe575b90849392915b601f830160051c820181106112ef575050610b29565b600081558594506001016112d9565b50806112d3565b015190508380610ae0565b9250600884016000526020600020906000935b601f1984168510611367576001945083601f1981161061134e575b505050811b016008820155610af8565b015160001960f88460031b161c1916905583808061133e565b81810151835560209485019460019093019290910190611323565b909150600884016000526020600020601f840160051c8101602085106113ce575b90849392915b601f830160051c820181106113bf575050610ac9565b600081558594506001016113a9565b50806113a3565b015190508380610a80565b9250600784016000526020600020906000935b601f1984168510611437576001945083601f1981161061141e575b505050811b016007820155610a98565b015160001960f88460031b161c1916905583808061140e565b818101518355602094850194600190930192909101906113f3565b909150600784016000526020600020601f840160051c81016020851061149e575b90849392915b601f830160051c8201811061148f575050610a69565b60008155859450600101611479565b5080611473565b015190508380610a21565b9250600684016000526020600020906000935b601f1984168510611507576001945083601f198116106114ee575b505050811b016006820155610a39565b015160001960f88460031b161c191690558380806114de565b818101518355602094850194600190930192909101906114c3565b909150600684016000526020600020601f840160051c81016020851061156e575b90849392915b601f830160051c8201811061155f575050610a0a565b60008155859450600101611549565b5080611543565b0151905083806109c2565b9250600584016000526020600020906000935b601f19841685106115d7576001945083601f198116106115be575b505050811b0160058201556109da565b015160001960f88460031b161c191690558380806115ae565b81810151835560209485019460019093019290910190611593565b909150600584016000526020600020601f840160051c81016020851061163e575b90849392915b601f830160051c8201811061162f5750506109ab565b60008155859450600101611619565b5080611613565b015190508380610963565b9250600484016000526020600020906000935b601f19841685106116a7576001945083601f1981161061168e575b505050811b01600482015561097b565b015160001960f88460031b161c1916905583808061167e565b81810151835560209485019460019093019290910190611663565b909150600484016000526020600020601f840160051c81016020851061170e575b90849392915b601f830160051c820181106116ff57505061094c565b600081558594506001016116e9565b50806116e3565b015190508380610905565b9250600384016000526020600020906000935b601f1984168510611777576001945083601f1981161061175e575b505050811b01600382015561091d565b015160001960f88460031b161c1916905583808061174e565b81810151835560209485019460019093019290910190611733565b909150600384016000526020600020601f840160051c8101602085106117de575b90849392915b601f830160051c820181106117cf5750506108ee565b600081558594506001016117b9565b50806117b3565b0151905083806108a6565b9250600284016000526020600020906000935b601f1984168510611847576001945083601f1981161061182e575b505050811b0160028201556108be565b015160001960f88460031b161c1916905583808061181e565b81810151835560209485019460019093019290910190611803565b909150600284016000526020600020601f840160051c8101602085106118ae575b90849392915b601f830160051c8201811061189f57505061088f565b60008155859450600101611889565b5080611883565b015190508380610847565b9250600184016000526020600020906000935b601f1984168510611917576001945083601f198116106118fe575b505050811b01600182015561085f565b015160001960f88460031b161c191690558380806118ee565b818101518355602094850194600190930192909101906118d3565b909150600184016000526020600020601f840160051c81016020851061197e575b90849392915b601f830160051c8201811061196f575050610830565b60008155859450600101611959565b5080611953565b0151905083806107eb565b9250836000526020600020906000935b601f19841685106119e1576001945083601f198116106119c8575b505050811b018155610800565b015160001960f88460031b161c191690558380806119bb565b818101518355602094850194600190930192909101906119a0565b909150836000526020600020601f840160051c810160208510611a45575b90849392915b601f830160051c82018110611a365750506107d4565b60008155859450600101611a20565b5080611a1a565b60405162461bcd60e51b815260206004820152600b60248201526a139bdd081cdd195dd85c9960aa1b6044820152606490fd5b346100a45760203660031901126100a4576001600160a01b03611aa0611c72565b1660005260016020526040600020611ab781611cff565b611ac360018301611cff565b91611ad060028201611cff565b90611add60038201611cff565b611ae960048301611cff565b611af560058401611cff565b611b0160068501611cff565b611b0d60078601611cff565b611b1960088701611cff565b91611b2660098801611cff565b93611b33600a8901611cff565b95611b40600b8a01611cff565b97611b4d600c8b01611cff565b99600d01611b5a90611cff565b9a6040519d8e809e6101c08083528201611b7391611da5565b908082039060200152611b8591611da5565b8d810360408f0152611b9691611da5565b8c810360608e0152611ba791611da5565b8b810360808d0152611bb891611da5565b8a810360a08c0152611bc991611da5565b89810360c08b0152611bda91611da5565b88810360e08a0152611beb91611da5565b878103610100890152611bfd91611da5565b868103610120880152611c0f91611da5565b858103610140870152611c2191611da5565b848103610160860152611c3391611da5565b838103610180850152611c4591611da5565b8281036101a08401526103a991611da5565b346100a45760003660031901126100a4576020906002548152f35b600435906001600160a01b03821682036100a457565b90600182811c92168015611cb8575b6020831014611ca257565b634e487b7160e01b600052602260045260246000fd5b91607f1691611c97565b6101c081019081106001600160401b03821117610eef57604052565b90601f801991011681019081106001600160401b03821117610eef57604052565b9060405191826000825492611d1384611c88565b908184526001948581169081600014611d825750600114611d3f575b5050611d3d92500383611cde565b565b9093915060005260209081600020936000915b818310611d6a575050611d3d93508201013880611d2f565b85548884018501529485019487945091830191611d52565b915050611d3d94506020925060ff191682840152151560051b8201013880611d2f565b919082519283825260005b848110611dd1575050826000602080949584010152601f8019910116010190565b602081830181015184830182015201611db0565b9181601f840112156100a4578235916001600160401b0383116100a457602083818601950101116100a457565b600254811015611e495760026000527f405787fa12a823e0f2b7631cc41b3ba8828b3321ca811111fa75cd3aa3bb5ace0190600090565b634e487b7160e01b600052603260045260246000fd5b9291926001600160401b038211610eef5760405191611e88601f8201601f191660200184611cde565b8294818452818301116100a4578281602093846000960137010152565b908060209392818452848401376000828201840152601f01601f191601019056fea264697066735822122051ab7ec2ca1b74c8973583ac059927b6ac5defc82e359bf7952b43d8b25d965264736f6c63430008140033","opcodes":"PUSH1 0x80 DUP1 PUSH1 0x40 MSTORE CALLVALUE PUSH2 0x28 JUMPI PUSH1 0x0 DUP1 SLOAD PUSH1 0x1 PUSH1 0x1 PUSH1 0xA0 SHL SUB NOT AND CALLER OR SWAP1 SSTORE PUSH2 0x1EFC SWAP1 DUP2 PUSH2 0x2E DUP3 CODECOPY RETURN JUMPDEST PUSH1 0x0 DUP1 REVERT INVALID PUSH2 0x460 DUP1 PUSH1 0x40 MSTORE PUSH1 0x4 CALLDATASIZE LT ISZERO PUSH2 0x14 JUMPI PUSH1 0x0 DUP1 REVERT JUMPDEST PUSH1 0x0 CALLDATALOAD PUSH1 0xE0 SHR SWAP1 DUP2 PUSH4 0x2A17D4CD EQ PUSH2 0x1C57 JUMPI POP DUP1 PUSH4 0x5A2ED662 EQ PUSH2 0x1A7F JUMPI DUP1 PUSH4 0x5DA9C05A EQ PUSH2 0x3D6 JUMPI DUP1 PUSH4 0x637EEA19 EQ PUSH2 0x3AD JUMPI DUP1 PUSH4 0xCF84C603 EQ PUSH2 0xA9 JUMPI PUSH4 0xF31BEE3E EQ PUSH2 0x62 JUMPI PUSH1 0x0 DUP1 REVERT JUMPDEST CALLVALUE PUSH2 0xA4 JUMPI PUSH1 0x20 CALLDATASIZE PUSH1 0x3 NOT ADD SLT PUSH2 0xA4 JUMPI PUSH1 0x4 CALLDATALOAD PUSH1 0x2 SLOAD DUP2 LT ISZERO PUSH2 0xA4 JUMPI PUSH2 0x8B PUSH1 0x20 SWAP2 PUSH2 0x1E12 JUMP JUMPDEST SWAP1 SLOAD PUSH1 0x40 MLOAD PUSH1 0x3 SWAP3 SWAP1 SWAP3 SHL SHR PUSH1 0x1 PUSH1 0x1 PUSH1 0xA0 SHL SUB AND DUP2 MSTORE RETURN JUMPDEST PUSH1 0x0 DUP1 REVERT JUMPDEST CALLVALUE PUSH2 0xA4 JUMPI PUSH1 0x20 CALLDATASIZE PUSH1 0x3 NOT ADD SLT PUSH2 0xA4 JUMPI PUSH2 0xC2 PUSH2 0x1C72 JUMP JUMPDEST PUSH1 0x60 PUSH2 0x1A0 PUSH1 0x40 MLOAD PUSH2 0xD3 DUP2 PUSH2 0x1CC2 JUMP JUMPDEST DUP3 DUP2 MSTORE DUP3 PUSH1 0x20 DUP3 ADD MSTORE DUP3 PUSH1 0x40 DUP3 ADD MSTORE DUP3 DUP1 DUP3 ADD MSTORE DUP3 PUSH1 0x80 DUP3 ADD MSTORE DUP3 PUSH1 0xA0 DUP3 ADD MSTORE DUP3 PUSH1 0xC0 DUP3 ADD MSTORE DUP3 PUSH1 0xE0 DUP3 ADD MSTORE DUP3 PUSH2 0x100 DUP3 ADD MSTORE DUP3 PUSH2 0x120 DUP3 ADD MSTORE DUP3 PUSH2 0x140 DUP3 ADD MSTORE DUP3 PUSH2 0x160 DUP3 ADD MSTORE DUP3 PUSH2 0x180 DUP3 ADD MSTORE ADD MSTORE PUSH1 0x1 DUP1 PUSH1 0xA0 SHL SUB AND PUSH1 0x0 MSTORE PUSH1 0x1 PUSH1 0x20 MSTORE PUSH2 0x2C3 PUSH1 0x40 PUSH1 0x0 KECCAK256 PUSH2 0x230 PUSH1 0xD PUSH1 0x40 MLOAD SWAP3 PUSH2 0x14E DUP5 PUSH2 0x1CC2 JUMP JUMPDEST PUSH2 0x157 DUP2 PUSH2 0x1CFF JUMP JUMPDEST DUP5 MSTORE PUSH2 0x165 PUSH1 0x1 DUP3 ADD PUSH2 0x1CFF JUMP JUMPDEST PUSH1 0x20 DUP6 ADD MSTORE PUSH2 0x176 PUSH1 0x2 DUP3 ADD PUSH2 0x1CFF JUMP JUMPDEST PUSH1 0x40 DUP6 ADD MSTORE PUSH2 0x187 PUSH1 0x3 DUP3 ADD PUSH2 0x1CFF JUMP JUMPDEST PUSH1 0x60 DUP6 ADD MSTORE PUSH2 0x198 PUSH1 0x4 DUP3 ADD PUSH2 0x1CFF JUMP JUMPDEST PUSH1 0x80 DUP6 ADD MSTORE PUSH2 0x1A9 PUSH1 0x5 DUP3 ADD PUSH2 0x1CFF JUMP JUMPDEST PUSH1 0xA0 DUP6 ADD MSTORE PUSH2 0x1BA PUSH1 0x6 DUP3 ADD PUSH2 0x1CFF JUMP JUMPDEST PUSH1 0xC0 DUP6 ADD MSTORE PUSH2 0x1CB PUSH1 0x7 DUP3 ADD PUSH2 0x1CFF JUMP JUMPDEST PUSH1 0xE0 DUP6 ADD MSTORE PUSH2 0x1DC PUSH1 0x8 DUP3 ADD PUSH2 0x1CFF JUMP JUMPDEST PUSH2 0x100 DUP6 ADD MSTORE PUSH2 0x1EE PUSH1 0x9 DUP3 ADD PUSH2 0x1CFF JUMP JUMPDEST PUSH2 0x120 DUP6 ADD MSTORE PUSH2 0x200 PUSH1 0xA DUP3 ADD PUSH2 0x1CFF JUMP JUMPDEST PUSH2 0x140 DUP6 ADD MSTORE PUSH2 0x212 PUSH1 0xB DUP3 ADD PUSH2 0x1CFF JUMP JUMPDEST PUSH2 0x160 DUP6 ADD MSTORE PUSH2 0x224 PUSH1 0xC DUP3 ADD PUSH2 0x1CFF JUMP JUMPDEST PUSH2 0x180 DUP6 ADD MSTORE ADD PUSH2 0x1CFF JUMP JUMPDEST PUSH2 0x1A0 DUP3 ADD MSTORE PUSH2 0x3A9 DUP2 PUSH2 0x1A0 PUSH2 0x394 PUSH2 0x37E PUSH2 0x366 PUSH2 0x34E PUSH2 0x336 PUSH2 0x31E PUSH2 0x307 PUSH2 0x2F1 PUSH2 0x2DB PUSH1 0x40 MLOAD SWAP14 DUP15 SWAP14 DUP15 PUSH1 0x20 DUP2 MSTORE PUSH1 0x60 PUSH2 0x2AE PUSH2 0x299 PUSH2 0x283 DUP6 MLOAD PUSH2 0x1C0 PUSH1 0x20 DUP8 ADD MSTORE PUSH2 0x1E0 DUP7 ADD SWAP1 PUSH2 0x1DA5 JUMP JUMPDEST PUSH1 0x20 DUP7 ADD MLOAD DUP6 DUP3 SUB PUSH1 0x1F NOT ADD PUSH1 0x40 DUP8 ADD MSTORE PUSH2 0x1DA5 JUMP JUMPDEST PUSH1 0x40 DUP6 ADD MLOAD DUP5 DUP3 SUB PUSH1 0x1F NOT ADD DUP5 DUP7 ADD MSTORE PUSH2 0x1DA5 JUMP JUMPDEST SWAP3 ADD MLOAD SWAP1 PUSH1 0x80 PUSH1 0x1F NOT DUP3 DUP6 SUB ADD SWAP2 ADD MSTORE PUSH2 0x1DA5 JUMP JUMPDEST DUP14 PUSH1 0x80 DUP14 ADD MLOAD SWAP1 PUSH1 0xA0 PUSH1 0x1F NOT DUP3 DUP6 SUB ADD SWAP2 ADD MSTORE PUSH2 0x1DA5 JUMP JUMPDEST PUSH1 0xA0 DUP12 ADD MLOAD DUP14 DUP3 SUB PUSH1 0x1F NOT ADD PUSH1 0xC0 DUP16 ADD MSTORE PUSH2 0x1DA5 JUMP JUMPDEST PUSH1 0xC0 DUP11 ADD MLOAD DUP13 DUP3 SUB PUSH1 0x1F NOT ADD PUSH1 0xE0 DUP15 ADD MSTORE PUSH2 0x1DA5 JUMP JUMPDEST PUSH1 0xE0 DUP10 ADD MLOAD DUP12 DUP3 SUB PUSH1 0x1F NOT ADD PUSH2 0x100 DUP14 ADD MSTORE PUSH2 0x1DA5 JUMP JUMPDEST PUSH2 0x100 DUP9 ADD MLOAD DUP11 DUP3 SUB PUSH1 0x1F NOT ADD PUSH2 0x120 DUP13 ADD MSTORE PUSH2 0x1DA5 JUMP JUMPDEST PUSH2 0x120 DUP8 ADD MLOAD DUP10 DUP3 SUB PUSH1 0x1F NOT ADD PUSH2 0x140 DUP12 ADD MSTORE PUSH2 0x1DA5 JUMP JUMPDEST PUSH2 0x140 DUP7 ADD MLOAD DUP9 DUP3 SUB PUSH1 0x1F NOT ADD PUSH2 0x160 DUP11 ADD MSTORE PUSH2 0x1DA5 JUMP JUMPDEST PUSH2 0x160 DUP6 ADD MLOAD DUP8 DUP3 SUB PUSH1 0x1F NOT ADD PUSH2 0x180 DUP10 ADD MSTORE PUSH2 0x1DA5 JUMP JUMPDEST PUSH2 0x180 DUP5 ADD MLOAD DUP7 DUP3 SUB PUSH1 0x1F NOT ADD DUP5 DUP9 ADD MSTORE PUSH2 0x1DA5 JUMP JUMPDEST SWAP2 ADD MLOAD DUP4 DUP3 SUB PUSH1 0x1F NOT ADD PUSH2 0x1C0 DUP6 ADD MSTORE PUSH2 0x1DA5 JUMP JUMPDEST SUB SWAP1 RETURN JUMPDEST CALLVALUE PUSH2 0xA4 JUMPI PUSH1 0x0 CALLDATASIZE PUSH1 0x3 NOT ADD SLT PUSH2 0xA4 JUMPI PUSH1 0x0 SLOAD PUSH1 0x40 MLOAD PUSH1 0x1 PUSH1 0x1 PUSH1 0xA0 SHL SUB SWAP1 SWAP2 AND DUP2 MSTORE PUSH1 0x20 SWAP1 RETURN JUMPDEST CALLVALUE PUSH2 0xA4 JUMPI PUSH2 0x1E0 CALLDATASIZE PUSH1 0x3 NOT ADD SLT PUSH2 0xA4 JUMPI PUSH2 0x3F0 PUSH2 0x1C72 JUMP JUMPDEST PUSH2 0x300 MSTORE PUSH1 0x24 CALLDATALOAD PUSH1 0x1 PUSH1 0x1 PUSH1 0x40 SHL SUB DUP2 GT PUSH2 0xA4 JUMPI PUSH2 0x413 SWAP1 CALLDATASIZE SWAP1 PUSH1 0x4 ADD PUSH2 0x1DE5 JUMP JUMPDEST PUSH2 0x2E0 MSTORE PUSH2 0x360 MSTORE PUSH1 0x44 CALLDATALOAD PUSH1 0x1 PUSH1 0x1 PUSH1 0x40 SHL SUB DUP2 GT PUSH2 0xA4 JUMPI PUSH2 0x43A SWAP1 CALLDATASIZE SWAP1 PUSH1 0x4 ADD PUSH2 0x1DE5 JUMP JUMPDEST PUSH1 0xC0 MSTORE PUSH2 0x380 MSTORE PUSH1 0x64 CALLDATALOAD PUSH1 0x1 PUSH1 0x1 PUSH1 0x40 SHL SUB DUP2 GT PUSH2 0xA4 JUMPI PUSH2 0x460 SWAP1 CALLDATASIZE SWAP1 PUSH1 0x4 ADD PUSH2 0x1DE5 JUMP JUMPDEST PUSH2 0x280 MSTORE PUSH2 0x2A0 MSTORE PUSH1 0x84 CALLDATALOAD PUSH1 0x1 PUSH1 0x1 PUSH1 0x40 SHL SUB DUP2 GT PUSH2 0xA4 JUMPI PUSH2 0x487 SWAP1 CALLDATASIZE SWAP1 PUSH1 0x4 ADD PUSH2 0x1DE5 JUMP JUMPDEST PUSH2 0x100 MSTORE PUSH2 0x3A0 MSTORE PUSH1 0x1 PUSH1 0x1 PUSH1 0x40 SHL SUB PUSH1 0xA4 CALLDATALOAD GT PUSH2 0xA4 JUMPI PUSH2 0x4AE CALLDATASIZE PUSH1 0xA4 CALLDATALOAD PUSH1 0x4 ADD PUSH2 0x1DE5 JUMP JUMPDEST PUSH2 0x2C0 MSTORE PUSH2 0x200 MSTORE PUSH1 0x1 PUSH1 0x1 PUSH1 0x40 SHL SUB PUSH1 0xC4 CALLDATALOAD GT PUSH2 0xA4 JUMPI PUSH2 0x4D5 CALLDATASIZE PUSH1 0xC4 CALLDATALOAD PUSH1 0x4 ADD PUSH2 0x1DE5 JUMP JUMPDEST PUSH2 0x120 MSTORE PUSH2 0x1E0 MSTORE PUSH1 0x1 PUSH1 0x1 PUSH1 0x40 SHL SUB PUSH1 0xE4 CALLDATALOAD GT PUSH2 0xA4 JUMPI PUSH2 0x4FC CALLDATASIZE PUSH1 0xE4 CALLDATALOAD PUSH1 0x4 ADD PUSH2 0x1DE5 JUMP JUMPDEST PUSH2 0x3C0 MSTORE PUSH2 0x240 MSTORE PUSH1 0x1 PUSH1 0x1 PUSH1 0x40 SHL SUB PUSH2 0x104 CALLDATALOAD GT PUSH2 0xA4 JUMPI PUSH2 0x525 CALLDATASIZE PUSH2 0x104 CALLDATALOAD PUSH1 0x4 ADD PUSH2 0x1DE5 JUMP JUMPDEST PUSH2 0x440 MSTORE PUSH2 0x220 MSTORE PUSH1 0x1 PUSH1 0x1 PUSH1 0x40 SHL SUB PUSH2 0x124 CALLDATALOAD GT PUSH2 0xA4 JUMPI PUSH2 0x54E CALLDATASIZE PUSH2 0x124 CALLDATALOAD PUSH1 0x4 ADD PUSH2 0x1DE5 JUMP JUMPDEST PUSH2 0x420 MSTORE PUSH2 0x320 MSTORE PUSH1 0x1 PUSH1 0x1 PUSH1 0x40 SHL SUB PUSH2 0x144 CALLDATALOAD GT PUSH2 0xA4 JUMPI PUSH2 0x577 CALLDATASIZE PUSH2 0x144 CALLDATALOAD PUSH1 0x4 ADD PUSH2 0x1DE5 JUMP JUMPDEST PUSH2 0x340 MSTORE PUSH1 0xE0 MSTORE PUSH1 0x1 PUSH1 0x1 PUSH1 0x40 SHL SUB PUSH2 0x164 CALLDATALOAD GT PUSH2 0xA4 JUMPI PUSH2 0x59F CALLDATASIZE PUSH2 0x164 CALLDATALOAD PUSH1 0x4 ADD PUSH2 0x1DE5 JUMP JUMPDEST PUSH2 0x140 MSTORE PUSH2 0x3E0 MSTORE PUSH1 0x1 PUSH1 0x1 PUSH1 0x40 SHL SUB PUSH2 0x184 CALLDATALOAD GT PUSH2 0xA4 JUMPI PUSH2 0x5C8 CALLDATASIZE PUSH2 0x184 CALLDATALOAD PUSH1 0x4 ADD PUSH2 0x1DE5 JUMP JUMPDEST PUSH2 0x260 MSTORE PUSH2 0x1C0 MSTORE PUSH1 0x1 PUSH1 0x1 PUSH1 0x40 SHL SUB PUSH2 0x1A4 CALLDATALOAD GT PUSH2 0xA4 JUMPI PUSH2 0x5F1 CALLDATASIZE PUSH2 0x1A4 CALLDATALOAD PUSH1 0x4 ADD PUSH2 0x1DE5 JUMP JUMPDEST PUSH2 0x1A0 MSTORE PUSH2 0x400 MSTORE PUSH1 0x1 PUSH1 0x1 PUSH1 0x40 SHL SUB PUSH2 0x1C4 CALLDATALOAD GT PUSH2 0xA4 JUMPI PUSH2 0x61A CALLDATASIZE PUSH2 0x1C4 CALLDATALOAD PUSH1 0x4 ADD PUSH2 0x1DE5 JUMP JUMPDEST PUSH2 0x180 MSTORE PUSH1 0xA0 MSTORE PUSH1 0x0 SLOAD PUSH1 0x1 PUSH1 0x1 PUSH1 0xA0 SHL SUB AND CALLER SUB PUSH2 0x1A4C JUMPI PUSH2 0x642 PUSH1 0x40 MLOAD DUP1 PUSH1 0x80 MSTORE PUSH2 0x1CC2 JUMP JUMPDEST PUSH2 0x653 CALLDATASIZE PUSH2 0x2E0 MLOAD PUSH2 0x360 MLOAD PUSH2 0x1E5F JUMP JUMPDEST PUSH1 0x80 MLOAD MSTORE PUSH2 0x667 CALLDATASIZE PUSH1 0xC0 MLOAD PUSH2 0x380 MLOAD PUSH2 0x1E5F JUMP JUMPDEST PUSH1 0x20 PUSH1 0x80 MLOAD ADD MSTORE PUSH2 0x67F CALLDATASIZE PUSH2 0x280 MLOAD PUSH2 0x2A0 MLOAD PUSH2 0x1E5F JUMP JUMPDEST PUSH1 0x40 PUSH1 0x80 MLOAD ADD MSTORE PUSH2 0x697 CALLDATASIZE PUSH2 0x100 MLOAD PUSH2 0x3A0 MLOAD PUSH2 0x1E5F JUMP JUMPDEST PUSH1 0x60 PUSH1 0x80 MLOAD ADD MSTORE PUSH2 0x6AF CALLDATASIZE PUSH2 0x2C0 MLOAD PUSH2 0x200 MLOAD PUSH2 0x1E5F JUMP JUMPDEST PUSH1 0x80 DUP1 MLOAD ADD MSTORE PUSH2 0x6C6 CALLDATASIZE PUSH2 0x120 MLOAD PUSH2 0x1E0 MLOAD PUSH2 0x1E5F JUMP JUMPDEST PUSH1 0xA0 PUSH1 0x80 MLOAD ADD MSTORE PUSH2 0x6DE CALLDATASIZE PUSH2 0x3C0 MLOAD PUSH2 0x240 MLOAD PUSH2 0x1E5F JUMP JUMPDEST PUSH1 0xC0 PUSH1 0x80 MLOAD ADD MSTORE PUSH2 0x6F6 CALLDATASIZE PUSH2 0x440 MLOAD PUSH2 0x220 MLOAD PUSH2 0x1E5F JUMP JUMPDEST PUSH1 0xE0 PUSH1 0x80 MLOAD ADD MSTORE PUSH2 0x70E CALLDATASIZE PUSH2 0x420 MLOAD PUSH2 0x320 MLOAD PUSH2 0x1E5F JUMP JUMPDEST PUSH2 0x100 PUSH1 0x80 MLOAD ADD MSTORE PUSH2 0x726 CALLDATASIZE PUSH2 0x340 MLOAD PUSH1 0xE0 MLOAD PUSH2 0x1E5F JUMP JUMPDEST PUSH2 0x120 PUSH1 0x80 MLOAD ADD MSTORE PUSH2 0x73F CALLDATASIZE PUSH2 0x140 MLOAD PUSH2 0x3E0 MLOAD PUSH2 0x1E5F JUMP JUMPDEST PUSH2 0x140 PUSH1 0x80 MLOAD ADD MSTORE PUSH2 0x758 CALLDATASIZE PUSH2 0x260 MLOAD PUSH2 0x1C0 MLOAD PUSH2 0x1E5F JUMP JUMPDEST PUSH2 0x160 PUSH1 0x80 MLOAD ADD MSTORE PUSH2 0x771 CALLDATASIZE PUSH2 0x1A0 MLOAD PUSH2 0x400 MLOAD PUSH2 0x1E5F JUMP JUMPDEST PUSH2 0x180 PUSH1 0x80 MLOAD ADD MSTORE PUSH2 0x789 CALLDATASIZE PUSH2 0x180 MLOAD PUSH1 0xA0 MLOAD PUSH2 0x1E5F JUMP JUMPDEST PUSH2 0x1A0 PUSH1 0x80 MLOAD ADD MSTORE PUSH1 0x1 DUP1 PUSH1 0xA0 SHL SUB PUSH2 0x300 MLOAD AND PUSH1 0x0 MSTORE PUSH1 0x1 PUSH1 0x20 MSTORE PUSH1 0x40 PUSH1 0x0 KECCAK256 PUSH1 0x80 MLOAD MLOAD DUP1 MLOAD SWAP1 PUSH1 0x1 PUSH1 0x1 PUSH1 0x40 SHL SUB DUP3 GT PUSH2 0xEEF JUMPI DUP2 SWAP1 PUSH2 0x7CB DUP5 SLOAD PUSH2 0x1C88 JUMP JUMPDEST PUSH1 0x1F DUP2 GT PUSH2 0x19FC JUMPI JUMPDEST POP PUSH1 0x20 SWAP1 PUSH1 0x1F DUP4 GT PUSH1 0x1 EQ PUSH2 0x1990 JUMPI PUSH1 0x0 SWAP3 PUSH2 0x1985 JUMPI JUMPDEST POP POP DUP2 PUSH1 0x1 SHL SWAP2 PUSH1 0x0 NOT SWAP1 PUSH1 0x3 SHL SHR NOT AND OR DUP2 SSTORE JUMPDEST PUSH1 0x20 PUSH1 0x80 MLOAD ADD MLOAD DUP1 MLOAD SWAP1 PUSH1 0x1 PUSH1 0x1 PUSH1 0x40 SHL SUB DUP3 GT PUSH2 0xEEF JUMPI DUP2 SWAP1 PUSH2 0x827 PUSH1 0x1 DUP6 ADD SLOAD PUSH2 0x1C88 JUMP JUMPDEST PUSH1 0x1F DUP2 GT PUSH2 0x1932 JUMPI JUMPDEST POP PUSH1 0x20 SWAP1 PUSH1 0x1F DUP4 GT PUSH1 0x1 EQ PUSH2 0x18C0 JUMPI PUSH1 0x0 SWAP3 PUSH2 0x18B5 JUMPI JUMPDEST POP POP DUP2 PUSH1 0x1 SHL SWAP2 PUSH1 0x0 NOT SWAP1 PUSH1 0x3 SHL SHR NOT AND OR PUSH1 0x1 DUP3 ADD SSTORE JUMPDEST PUSH1 0x40 PUSH1 0x80 MLOAD ADD MLOAD DUP1 MLOAD SWAP1 PUSH1 0x1 PUSH1 0x1 PUSH1 0x40 SHL SUB DUP3 GT PUSH2 0xEEF JUMPI DUP2 SWAP1 PUSH2 0x886 PUSH1 0x2 DUP6 ADD SLOAD PUSH2 0x1C88 JUMP JUMPDEST PUSH1 0x1F DUP2 GT PUSH2 0x1862 JUMPI JUMPDEST POP PUSH1 0x20 SWAP1 PUSH1 0x1F DUP4 GT PUSH1 0x1 EQ PUSH2 0x17F0 JUMPI PUSH1 0x0 SWAP3 PUSH2 0x17E5 JUMPI JUMPDEST POP POP DUP2 PUSH1 0x1 SHL SWAP2 PUSH1 0x0 NOT SWAP1 PUSH1 0x3 SHL SHR NOT AND OR PUSH1 0x2 DUP3 ADD SSTORE JUMPDEST PUSH1 0x60 PUSH1 0x80 MLOAD ADD MLOAD DUP1 MLOAD SWAP1 PUSH1 0x1 PUSH1 0x1 PUSH1 0x40 SHL SUB DUP3 GT PUSH2 0xEEF JUMPI DUP2 SWAP1 PUSH2 0x8E5 PUSH1 0x3 DUP6 ADD SLOAD PUSH2 0x1C88 JUMP JUMPDEST PUSH1 0x1F DUP2 GT PUSH2 0x1792 JUMPI JUMPDEST POP PUSH1 0x20 SWAP1 PUSH1 0x1F DUP4 GT PUSH1 0x1 EQ PUSH2 0x1720 JUMPI PUSH1 0x0 SWAP3 PUSH2 0x1715 JUMPI JUMPDEST POP POP DUP2 PUSH1 0x1 SHL SWAP2 PUSH1 0x0 NOT SWAP1 PUSH1 0x3 SHL SHR NOT AND OR PUSH1 0x3 DUP3 ADD SSTORE JUMPDEST PUSH1 0x80 DUP1 MLOAD ADD MLOAD DUP1 MLOAD SWAP1 PUSH1 0x1 PUSH1 0x1 PUSH1 0x40 SHL SUB DUP3 GT PUSH2 0xEEF JUMPI DUP2 SWAP1 PUSH2 0x943 PUSH1 0x4 DUP6 ADD SLOAD PUSH2 0x1C88 JUMP JUMPDEST PUSH1 0x1F DUP2 GT PUSH2 0x16C2 JUMPI JUMPDEST POP PUSH1 0x20 SWAP1 PUSH1 0x1F DUP4 GT PUSH1 0x1 EQ PUSH2 0x1650 JUMPI PUSH1 0x0 SWAP3 PUSH2 0x1645 JUMPI JUMPDEST POP POP DUP2 PUSH1 0x1 SHL SWAP2 PUSH1 0x0 NOT SWAP1 PUSH1 0x3 SHL SHR NOT AND OR PUSH1 0x4 DUP3 ADD SSTORE JUMPDEST PUSH1 0xA0 PUSH1 0x80 MLOAD ADD MLOAD DUP1 MLOAD SWAP1 PUSH1 0x1 PUSH1 0x1 PUSH1 0x40 SHL SUB DUP3 GT PUSH2 0xEEF JUMPI DUP2 SWAP1 PUSH2 0x9A2 PUSH1 0x5 DUP6 ADD SLOAD PUSH2 0x1C88 JUMP JUMPDEST PUSH1 0x1F DUP2 GT PUSH2 0x15F2 JUMPI JUMPDEST POP PUSH1 0x20 SWAP1 PUSH1 0x1F DUP4 GT PUSH1 0x1 EQ PUSH2 0x1580 JUMPI PUSH1 0x0 SWAP3 PUSH2 0x1575 JUMPI JUMPDEST POP POP DUP2 PUSH1 0x1 SHL SWAP2 PUSH1 0x0 NOT SWAP1 PUSH1 0x3 SHL SHR NOT AND OR PUSH1 0x5 DUP3 ADD SSTORE JUMPDEST PUSH1 0xC0 PUSH1 0x80 MLOAD ADD MLOAD DUP1 MLOAD SWAP1 PUSH1 0x1 PUSH1 0x1 PUSH1 0x40 SHL SUB DUP3 GT PUSH2 0xEEF JUMPI DUP2 SWAP1 PUSH2 0xA01 PUSH1 0x6 DUP6 ADD SLOAD PUSH2 0x1C88 JUMP JUMPDEST PUSH1 0x1F DUP2 GT PUSH2 0x1522 JUMPI JUMPDEST POP PUSH1 0x20 SWAP1 PUSH1 0x1F DUP4 GT PUSH1 0x1 EQ PUSH2 0x14B0 JUMPI PUSH1 0x0 SWAP3 PUSH2 0x14A5 JUMPI JUMPDEST POP POP DUP2 PUSH1 0x1 SHL SWAP2 PUSH1 0x0 NOT SWAP1 PUSH1 0x3 SHL SHR NOT AND OR PUSH1 0x6 DUP3 ADD SSTORE JUMPDEST PUSH1 0xE0 PUSH1 0x80 MLOAD ADD MLOAD DUP1 MLOAD SWAP1 PUSH1 0x1 PUSH1 0x1 PUSH1 0x40 SHL SUB DUP3 GT PUSH2 0xEEF JUMPI DUP2 SWAP1 PUSH2 0xA60 PUSH1 0x7 DUP6 ADD SLOAD PUSH2 0x1C88 JUMP JUMPDEST PUSH1 0x1F DUP2 GT PUSH2 0x1452 JUMPI JUMPDEST POP PUSH1 0x20 SWAP1 PUSH1 0x1F DUP4 GT PUSH1 0x1 EQ PUSH2 0x13E0 JUMPI PUSH1 0x0 SWAP3 PUSH2 0x13D5 JUMPI JUMPDEST POP POP DUP2 PUSH1 0x1 SHL SWAP2 PUSH1 0x0 NOT SWAP1 PUSH1 0x3 SHL SHR NOT AND OR PUSH1 0x7 DUP3 ADD SSTORE JUMPDEST PUSH2 0x100 PUSH1 0x80 MLOAD ADD MLOAD DUP1 MLOAD SWAP1 PUSH1 0x1 PUSH1 0x1 PUSH1 0x40 SHL SUB DUP3 GT PUSH2 0xEEF JUMPI DUP2 SWAP1 PUSH2 0xAC0 PUSH1 0x8 DUP6 ADD SLOAD PUSH2 0x1C88 JUMP JUMPDEST PUSH1 0x1F DUP2 GT PUSH2 0x1382 JUMPI JUMPDEST POP PUSH1 0x20 SWAP1 PUSH1 0x1F DUP4 GT PUSH1 0x1 EQ PUSH2 0x1310 JUMPI PUSH1 0x0 SWAP3 PUSH2 0x1305 JUMPI JUMPDEST POP POP DUP2 PUSH1 0x1 SHL SWAP2 PUSH1 0x0 NOT SWAP1 PUSH1 0x3 SHL SHR NOT AND OR PUSH1 0x8 DUP3 ADD SSTORE JUMPDEST PUSH2 0x120 PUSH1 0x80 MLOAD ADD MLOAD DUP1 MLOAD SWAP1 PUSH1 0x1 PUSH1 0x1 PUSH1 0x40 SHL SUB DUP3 GT PUSH2 0xEEF JUMPI DUP2 SWAP1 PUSH2 0xB20 PUSH1 0x9 DUP6 ADD SLOAD PUSH2 0x1C88 JUMP JUMPDEST PUSH1 0x1F DUP2 GT PUSH2 0x12B2 JUMPI JUMPDEST POP PUSH1 0x20 SWAP1 PUSH1 0x1F DUP4 GT PUSH1 0x1 EQ PUSH2 0x1240 JUMPI PUSH1 0x0 SWAP3 PUSH2 0x1235 JUMPI JUMPDEST POP POP DUP2 PUSH1 0x1 SHL SWAP2 PUSH1 0x0 NOT SWAP1 PUSH1 0x3 SHL SHR NOT AND OR PUSH1 0x9 DUP3 ADD SSTORE JUMPDEST PUSH2 0x140 PUSH1 0x80 MLOAD ADD MLOAD DUP1 MLOAD SWAP1 PUSH1 0x1 PUSH1 0x1 PUSH1 0x40 SHL SUB DUP3 GT PUSH2 0xEEF JUMPI DUP2 SWAP1 PUSH2 0xB80 PUSH1 0xA DUP6 ADD SLOAD PUSH2 0x1C88 JUMP JUMPDEST PUSH1 0x1F DUP2 GT PUSH2 0x11E2 JUMPI JUMPDEST POP PUSH1 0x20 SWAP1 PUSH1 0x1F DUP4 GT PUSH1 0x1 EQ PUSH2 0x1170 JUMPI PUSH1 0x0 SWAP3 PUSH2 0x1165 JUMPI JUMPDEST POP POP DUP2 PUSH1 0x1 SHL SWAP2 PUSH1 0x0 NOT SWAP1 PUSH1 0x3 SHL SHR NOT AND OR PUSH1 0xA DUP3 ADD SSTORE JUMPDEST PUSH2 0x160 PUSH1 0x80 MLOAD ADD MLOAD DUP1 MLOAD SWAP1 PUSH1 0x1 PUSH1 0x1 PUSH1 0x40 SHL SUB DUP3 GT PUSH2 0xEEF JUMPI DUP2 SWAP1 PUSH2 0xBE0 PUSH1 0xB DUP6 ADD SLOAD PUSH2 0x1C88 JUMP JUMPDEST PUSH1 0x1F DUP2 GT PUSH2 0x1112 JUMPI JUMPDEST POP PUSH1 0x20 SWAP1 PUSH1 0x1F DUP4 GT PUSH1 0x1 EQ PUSH2 0x10A0 JUMPI PUSH1 0x0 SWAP3 PUSH2 0x1095 JUMPI JUMPDEST POP POP DUP2 PUSH1 0x1 SHL SWAP2 PUSH1 0x0 NOT SWAP1 PUSH1 0x3 SHL SHR NOT AND OR PUSH1 0xB DUP3 ADD SSTORE JUMPDEST PUSH2 0x180 PUSH1 0x80 MLOAD ADD MLOAD DUP1 MLOAD SWAP1 PUSH1 0x1 PUSH1 0x1 PUSH1 0x40 SHL SUB DUP3 GT PUSH2 0xEEF JUMPI DUP2 SWAP1 PUSH2 0xC40 PUSH1 0xC DUP6 ADD SLOAD PUSH2 0x1C88 JUMP JUMPDEST PUSH1 0x1F DUP2 GT PUSH2 0x1042 JUMPI JUMPDEST POP PUSH1 0x20 SWAP1 PUSH1 0x1F DUP4 GT PUSH1 0x1 EQ PUSH2 0xFD0 JUMPI PUSH1 0x0 SWAP3 PUSH2 0xFC5 JUMPI JUMPDEST POP POP DUP2 PUSH1 0x1 SHL SWAP2 PUSH1 0x0 NOT SWAP1 PUSH1 0x3 SHL SHR NOT AND OR PUSH1 0xC DUP3 ADD SSTORE JUMPDEST PUSH2 0x1A0 PUSH1 0x80 MLOAD ADD MLOAD DUP1 MLOAD SWAP1 PUSH1 0x1 PUSH1 0x1 PUSH1 0x40 SHL SUB DUP3 GT PUSH2 0xEEF JUMPI PUSH2 0xC9E PUSH1 0xD DUP5 ADD SLOAD PUSH2 0x1C88 JUMP JUMPDEST PUSH1 0x1F DUP2 GT PUSH2 0xF7E JUMPI JUMPDEST POP PUSH1 0x20 SWAP1 PUSH1 0x1F DUP4 GT PUSH1 0x1 EQ PUSH2 0xF10 JUMPI PUSH1 0xD SWAP3 SWAP2 PUSH1 0x0 SWAP2 DUP4 PUSH2 0xF05 JUMPI JUMPDEST POP POP DUP2 PUSH1 0x1 SHL SWAP2 PUSH1 0x0 NOT SWAP1 PUSH1 0x3 SHL SHR NOT AND OR SWAP2 ADD SSTORE JUMPDEST PUSH1 0x2 SLOAD PUSH9 0x10000000000000000 DUP2 LT ISZERO PUSH2 0xEEF JUMPI DUP1 PUSH1 0x1 PUSH2 0xCFD SWAP3 ADD PUSH1 0x2 SSTORE PUSH2 0x1E12 JUMP JUMPDEST DUP2 SLOAD SWAP1 PUSH1 0x3 SHL SWAP1 PUSH1 0x1 DUP1 PUSH1 0xA0 SHL SUB PUSH2 0x300 MLOAD AND DUP3 SHL SWAP2 PUSH1 0x1 DUP1 PUSH1 0xA0 SHL SUB SWAP1 SHL NOT AND OR SWAP1 SSTORE PUSH2 0x1C0 PUSH1 0x40 MLOAD DUP1 PUSH2 0x160 MSTORE MSTORE PUSH2 0xE98 PUSH2 0xE7E PUSH2 0xE64 PUSH2 0xE4A PUSH2 0xE31 PUSH2 0xE17 PUSH2 0xDFE PUSH2 0xDE5 PUSH2 0xDCC PUSH2 0xDB3 PUSH2 0xD9A PUSH2 0xD81 PUSH2 0xD69 PUSH2 0x1C0 PUSH2 0x160 MLOAD ADD PUSH2 0x2E0 MLOAD PUSH2 0x360 MLOAD PUSH2 0x1EA5 JUMP JUMPDEST PUSH2 0x160 MLOAD PUSH1 0x20 DUP2 DUP4 SUB SWAP2 ADD MSTORE PUSH1 0xC0 MLOAD PUSH2 0x380 MLOAD PUSH2 0x1EA5 JUMP JUMPDEST PUSH2 0x160 MLOAD PUSH1 0x40 DUP2 DUP4 SUB SWAP2 ADD MSTORE PUSH2 0x280 MLOAD PUSH2 0x2A0 MLOAD PUSH2 0x1EA5 JUMP JUMPDEST PUSH2 0x160 MLOAD PUSH1 0x60 DUP2 DUP4 SUB SWAP2 ADD MSTORE PUSH2 0x100 MLOAD PUSH2 0x3A0 MLOAD PUSH2 0x1EA5 JUMP JUMPDEST PUSH2 0x160 MLOAD PUSH1 0x80 DUP2 DUP4 SUB SWAP2 ADD MSTORE PUSH2 0x2C0 MLOAD PUSH2 0x200 MLOAD PUSH2 0x1EA5 JUMP JUMPDEST PUSH2 0x160 MLOAD PUSH1 0xA0 DUP2 DUP4 SUB SWAP2 ADD MSTORE PUSH2 0x120 MLOAD PUSH2 0x1E0 MLOAD PUSH2 0x1EA5 JUMP JUMPDEST PUSH2 0x160 MLOAD PUSH1 0xC0 DUP2 DUP4 SUB SWAP2 ADD MSTORE PUSH2 0x3C0 MLOAD PUSH2 0x240 MLOAD PUSH2 0x1EA5 JUMP JUMPDEST PUSH2 0x160 MLOAD PUSH1 0xE0 DUP2 DUP4 SUB SWAP2 ADD MSTORE PUSH2 0x440 MLOAD PUSH2 0x220 MLOAD PUSH2 0x1EA5 JUMP JUMPDEST PUSH2 0x160 MLOAD PUSH2 0x100 DUP2 DUP4 SUB SWAP2 ADD MSTORE PUSH2 0x420 MLOAD PUSH2 0x320 MLOAD PUSH2 0x1EA5 JUMP JUMPDEST PUSH2 0x160 MLOAD PUSH2 0x120 DUP2 DUP4 SUB SWAP2 ADD MSTORE PUSH2 0x340 MLOAD PUSH1 0xE0 MLOAD PUSH2 0x1EA5 JUMP JUMPDEST PUSH2 0x160 MLOAD PUSH2 0x140 DUP2 DUP4 SUB SWAP2 ADD MSTORE PUSH2 0x140 MLOAD PUSH2 0x3E0 MLOAD PUSH2 0x1EA5 JUMP JUMPDEST PUSH2 0x160 MLOAD PUSH2 0x160 DUP2 DUP4 SUB SWAP2 ADD MSTORE PUSH2 0x260 MLOAD PUSH2 0x1C0 MLOAD PUSH2 0x1EA5 JUMP JUMPDEST PUSH2 0x160 MLOAD PUSH2 0x180 DUP2 DUP4 SUB SWAP2 ADD MSTORE PUSH2 0x1A0 MLOAD PUSH2 0x400 MLOAD PUSH2 0x1EA5 JUMP JUMPDEST PUSH2 0x160 MLOAD PUSH2 0x1A0 DUP2 DUP4 SUB SWAP2 ADD MSTORE PUSH32 0x63CB6BDCF475C66BCE6432FFD152EA83900FAA9EEF6FAB6D653178030D7BF572 PUSH1 0x1 DUP1 PUSH1 0xA0 SHL SUB PUSH2 0x300 MLOAD AND SWAP2 PUSH2 0xEE7 PUSH2 0x160 MLOAD SWAP2 PUSH2 0x180 MLOAD PUSH1 0xA0 MLOAD PUSH2 0x1EA5 JUMP JUMPDEST SUB PUSH2 0x160 MLOAD LOG2 STOP JUMPDEST PUSH4 0x4E487B71 PUSH1 0xE0 SHL PUSH1 0x0 MSTORE PUSH1 0x41 PUSH1 0x4 MSTORE PUSH1 0x24 PUSH1 0x0 REVERT JUMPDEST ADD MLOAD SWAP1 POP DUP5 DUP1 PUSH2 0xCC3 JUMP JUMPDEST SWAP1 PUSH1 0xD DUP5 ADD PUSH1 0x0 MSTORE PUSH1 0x20 PUSH1 0x0 KECCAK256 SWAP2 PUSH1 0x0 PUSH1 0x1F NOT DUP6 AND SWAP1 JUMPDEST DUP2 DUP2 LT PUSH2 0xF66 JUMPI POP SWAP2 PUSH1 0x1 SWAP4 SWAP2 DUP6 PUSH1 0xD SWAP7 SWAP5 LT PUSH2 0xF4D JUMPI JUMPDEST POP POP POP DUP2 SHL ADD SWAP2 ADD SSTORE PUSH2 0xCD9 JUMP JUMPDEST ADD MLOAD PUSH1 0x0 NOT PUSH1 0xF8 DUP5 PUSH1 0x3 SHL AND SHR NOT AND SWAP1 SSTORE DUP5 DUP1 DUP1 PUSH2 0xF3F JUMP JUMPDEST SWAP3 SWAP4 PUSH1 0x20 PUSH1 0x1 DUP2 SWAP3 DUP8 DUP7 ADD MLOAD DUP2 SSTORE ADD SWAP6 ADD SWAP4 ADD PUSH2 0xF27 JUMP JUMPDEST PUSH1 0xD DUP5 ADD PUSH1 0x0 MSTORE PUSH1 0x20 PUSH1 0x0 KECCAK256 PUSH1 0x1F DUP5 ADD PUSH1 0x5 SHR DUP2 ADD PUSH1 0x20 DUP6 LT PUSH2 0xFBE JUMPI JUMPDEST PUSH1 0x1F DUP4 ADD PUSH1 0x5 SHR DUP3 ADD DUP2 LT PUSH2 0xFB2 JUMPI POP POP PUSH2 0xCA7 JUMP JUMPDEST PUSH1 0x0 DUP2 SSTORE PUSH1 0x1 ADD PUSH2 0xF9C JUMP JUMPDEST POP DUP1 PUSH2 0xF9C JUMP JUMPDEST ADD MLOAD SWAP1 POP DUP4 DUP1 PUSH2 0xC60 JUMP JUMPDEST SWAP3 POP PUSH1 0xC DUP5 ADD PUSH1 0x0 MSTORE PUSH1 0x20 PUSH1 0x0 KECCAK256 SWAP1 PUSH1 0x0 SWAP4 JUMPDEST PUSH1 0x1F NOT DUP5 AND DUP6 LT PUSH2 0x1027 JUMPI PUSH1 0x1 SWAP5 POP DUP4 PUSH1 0x1F NOT DUP2 AND LT PUSH2 0x100E JUMPI JUMPDEST POP POP POP DUP2 SHL ADD PUSH1 0xC DUP3 ADD SSTORE PUSH2 0xC78 JUMP JUMPDEST ADD MLOAD PUSH1 0x0 NOT PUSH1 0xF8 DUP5 PUSH1 0x3 SHL AND SHR NOT AND SWAP1 SSTORE DUP4 DUP1 DUP1 PUSH2 0xFFE JUMP JUMPDEST DUP2 DUP2 ADD MLOAD DUP4 SSTORE PUSH1 0x20 SWAP5 DUP6 ADD SWAP5 PUSH1 0x1 SWAP1 SWAP4 ADD SWAP3 SWAP1 SWAP2 ADD SWAP1 PUSH2 0xFE3 JUMP JUMPDEST SWAP1 SWAP2 POP PUSH1 0xC DUP5 ADD PUSH1 0x0 MSTORE PUSH1 0x20 PUSH1 0x0 KECCAK256 PUSH1 0x1F DUP5 ADD PUSH1 0x5 SHR DUP2 ADD PUSH1 0x20 DUP6 LT PUSH2 0x108E JUMPI JUMPDEST SWAP1 DUP5 SWAP4 SWAP3 SWAP2 JUMPDEST PUSH1 0x1F DUP4 ADD PUSH1 0x5 SHR DUP3 ADD DUP2 LT PUSH2 0x107F JUMPI POP POP PUSH2 0xC49 JUMP JUMPDEST PUSH1 0x0 DUP2 SSTORE DUP6 SWAP5 POP PUSH1 0x1 ADD PUSH2 0x1069 JUMP JUMPDEST POP DUP1 PUSH2 0x1063 JUMP JUMPDEST ADD MLOAD SWAP1 POP DUP4 DUP1 PUSH2 0xC00 JUMP JUMPDEST SWAP3 POP PUSH1 0xB DUP5 ADD PUSH1 0x0 MSTORE PUSH1 0x20 PUSH1 0x0 KECCAK256 SWAP1 PUSH1 0x0 SWAP4 JUMPDEST PUSH1 0x1F NOT DUP5 AND DUP6 LT PUSH2 0x10F7 JUMPI PUSH1 0x1 SWAP5 POP DUP4 PUSH1 0x1F NOT DUP2 AND LT PUSH2 0x10DE JUMPI JUMPDEST POP POP POP DUP2 SHL ADD PUSH1 0xB DUP3 ADD SSTORE PUSH2 0xC18 JUMP JUMPDEST ADD MLOAD PUSH1 0x0 NOT PUSH1 0xF8 DUP5 PUSH1 0x3 SHL AND SHR NOT AND SWAP1 SSTORE DUP4 DUP1 DUP1 PUSH2 0x10CE JUMP JUMPDEST DUP2 DUP2 ADD MLOAD DUP4 SSTORE PUSH1 0x20 SWAP5 DUP6 ADD SWAP5 PUSH1 0x1 SWAP1 SWAP4 ADD SWAP3 SWAP1 SWAP2 ADD SWAP1 PUSH2 0x10B3 JUMP JUMPDEST SWAP1 SWAP2 POP PUSH1 0xB DUP5 ADD PUSH1 0x0 MSTORE PUSH1 0x20 PUSH1 0x0 KECCAK256 PUSH1 0x1F DUP5 ADD PUSH1 0x5 SHR DUP2 ADD PUSH1 0x20 DUP6 LT PUSH2 0x115E JUMPI JUMPDEST SWAP1 DUP5 SWAP4 SWAP3 SWAP2 JUMPDEST PUSH1 0x1F DUP4 ADD PUSH1 0x5 SHR DUP3 ADD DUP2 LT PUSH2 0x114F JUMPI POP POP PUSH2 0xBE9 JUMP JUMPDEST PUSH1 0x0 DUP2 SSTORE DUP6 SWAP5 POP PUSH1 0x1 ADD PUSH2 0x1139 JUMP JUMPDEST POP DUP1 PUSH2 0x1133 JUMP JUMPDEST ADD MLOAD SWAP1 POP DUP4 DUP1 PUSH2 0xBA0 JUMP JUMPDEST SWAP3 POP PUSH1 0xA DUP5 ADD PUSH1 0x0 MSTORE PUSH1 0x20 PUSH1 0x0 KECCAK256 SWAP1 PUSH1 0x0 SWAP4 JUMPDEST PUSH1 0x1F NOT DUP5 AND DUP6 LT PUSH2 0x11C7 JUMPI PUSH1 0x1 SWAP5 POP DUP4 PUSH1 0x1F NOT DUP2 AND LT PUSH2 0x11AE JUMPI JUMPDEST POP POP POP DUP2 SHL ADD PUSH1 0xA DUP3 ADD SSTORE PUSH2 0xBB8 JUMP JUMPDEST ADD MLOAD PUSH1 0x0 NOT PUSH1 0xF8 DUP5 PUSH1 0x3 SHL AND SHR NOT AND SWAP1 SSTORE DUP4 DUP1 DUP1 PUSH2 0x119E JUMP JUMPDEST DUP2 DUP2 ADD MLOAD DUP4 SSTORE PUSH1 0x20 SWAP5 DUP6 ADD SWAP5 PUSH1 0x1 SWAP1 SWAP4 ADD SWAP3 SWAP1 SWAP2 ADD SWAP1 PUSH2 0x1183 JUMP JUMPDEST SWAP1 SWAP2 POP PUSH1 0xA DUP5 ADD PUSH1 0x0 MSTORE PUSH1 0x20 PUSH1 0x0 KECCAK256 PUSH1 0x1F DUP5 ADD PUSH1 0x5 SHR DUP2 ADD PUSH1 0x20 DUP6 LT PUSH2 0x122E JUMPI JUMPDEST SWAP1 DUP5 SWAP4 SWAP3 SWAP2 JUMPDEST PUSH1 0x1F DUP4 ADD PUSH1 0x5 SHR DUP3 ADD DUP2 LT PUSH2 0x121F JUMPI POP POP PUSH2 0xB89 JUMP JUMPDEST PUSH1 0x0 DUP2 SSTORE DUP6 SWAP5 POP PUSH1 0x1 ADD PUSH2 0x1209 JUMP JUMPDEST POP DUP1 PUSH2 0x1203 JUMP JUMPDEST ADD MLOAD SWAP1 POP DUP4 DUP1 PUSH2 0xB40 JUMP JUMPDEST SWAP3 POP PUSH1 0x9 DUP5 ADD PUSH1 0x0 MSTORE PUSH1 0x20 PUSH1 0x0 KECCAK256 SWAP1 PUSH1 0x0 SWAP4 JUMPDEST PUSH1 0x1F NOT DUP5 AND DUP6 LT PUSH2 0x1297 JUMPI PUSH1 0x1 SWAP5 POP DUP4 PUSH1 0x1F NOT DUP2 AND LT PUSH2 0x127E JUMPI JUMPDEST POP POP POP DUP2 SHL ADD PUSH1 0x9 DUP3 ADD SSTORE PUSH2 0xB58 JUMP JUMPDEST ADD MLOAD PUSH1 0x0 NOT PUSH1 0xF8 DUP5 PUSH1 0x3 SHL AND SHR NOT AND SWAP1 SSTORE DUP4 DUP1 DUP1 PUSH2 0x126E JUMP JUMPDEST DUP2 DUP2 ADD MLOAD DUP4 SSTORE PUSH1 0x20 SWAP5 DUP6 ADD SWAP5 PUSH1 0x1 SWAP1 SWAP4 ADD SWAP3 SWAP1 SWAP2 ADD SWAP1 PUSH2 0x1253 JUMP JUMPDEST SWAP1 SWAP2 POP PUSH1 0x9 DUP5 ADD PUSH1 0x0 MSTORE PUSH1 0x20 PUSH1 0x0 KECCAK256 PUSH1 0x1F DUP5 ADD PUSH1 0x5 SHR DUP2 ADD PUSH1 0x20 DUP6 LT PUSH2 0x12FE JUMPI JUMPDEST SWAP1 DUP5 SWAP4 SWAP3 SWAP2 JUMPDEST PUSH1 0x1F DUP4 ADD PUSH1 0x5 SHR DUP3 ADD DUP2 LT PUSH2 0x12EF JUMPI POP POP PUSH2 0xB29 JUMP JUMPDEST PUSH1 0x0 DUP2 SSTORE DUP6 SWAP5 POP PUSH1 0x1 ADD PUSH2 0x12D9 JUMP JUMPDEST POP DUP1 PUSH2 0x12D3 JUMP JUMPDEST ADD MLOAD SWAP1 POP DUP4 DUP1 PUSH2 0xAE0 JUMP JUMPDEST SWAP3 POP PUSH1 0x8 DUP5 ADD PUSH1 0x0 MSTORE PUSH1 0x20 PUSH1 0x0 KECCAK256 SWAP1 PUSH1 0x0 SWAP4 JUMPDEST PUSH1 0x1F NOT DUP5 AND DUP6 LT PUSH2 0x1367 JUMPI PUSH1 0x1 SWAP5 POP DUP4 PUSH1 0x1F NOT DUP2 AND LT PUSH2 0x134E JUMPI JUMPDEST POP POP POP DUP2 SHL ADD PUSH1 0x8 DUP3 ADD SSTORE PUSH2 0xAF8 JUMP JUMPDEST ADD MLOAD PUSH1 0x0 NOT PUSH1 0xF8 DUP5 PUSH1 0x3 SHL AND SHR NOT AND SWAP1 SSTORE DUP4 DUP1 DUP1 PUSH2 0x133E JUMP JUMPDEST DUP2 DUP2 ADD MLOAD DUP4 SSTORE PUSH1 0x20 SWAP5 DUP6 ADD SWAP5 PUSH1 0x1 SWAP1 SWAP4 ADD SWAP3 SWAP1 SWAP2 ADD SWAP1 PUSH2 0x1323 JUMP JUMPDEST SWAP1 SWAP2 POP PUSH1 0x8 DUP5 ADD PUSH1 0x0 MSTORE PUSH1 0x20 PUSH1 0x0 KECCAK256 PUSH1 0x1F DUP5 ADD PUSH1 0x5 SHR DUP2 ADD PUSH1 0x20 DUP6 LT PUSH2 0x13CE JUMPI JUMPDEST SWAP1 DUP5 SWAP4 SWAP3 SWAP2 JUMPDEST PUSH1 0x1F DUP4 ADD PUSH1 0x5 SHR DUP3 ADD DUP2 LT PUSH2 0x13BF JUMPI POP POP PUSH2 0xAC9 JUMP JUMPDEST PUSH1 0x0 DUP2 SSTORE DUP6 SWAP5 POP PUSH1 0x1 ADD PUSH2 0x13A9 JUMP JUMPDEST POP DUP1 PUSH2 0x13A3 JUMP JUMPDEST ADD MLOAD SWAP1 POP DUP4 DUP1 PUSH2 0xA80 JUMP JUMPDEST SWAP3 POP PUSH1 0x7 DUP5 ADD PUSH1 0x0 MSTORE PUSH1 0x20 PUSH1 0x0 KECCAK256 SWAP1 PUSH1 0x0 SWAP4 JUMPDEST PUSH1 0x1F NOT DUP5 AND DUP6 LT PUSH2 0x1437 JUMPI PUSH1 0x1 SWAP5 POP DUP4 PUSH1 0x1F NOT DUP2 AND LT PUSH2 0x141E JUMPI JUMPDEST POP POP POP DUP2 SHL ADD PUSH1 0x7 DUP3 ADD SSTORE PUSH2 0xA98 JUMP JUMPDEST ADD MLOAD PUSH1 0x0 NOT PUSH1 0xF8 DUP5 PUSH1 0x3 SHL AND SHR NOT AND SWAP1 SSTORE DUP4 DUP1 DUP1 PUSH2 0x140E JUMP JUMPDEST DUP2 DUP2 ADD MLOAD DUP4 SSTORE PUSH1 0x20 SWAP5 DUP6 ADD SWAP5 PUSH1 0x1 SWAP1 SWAP4 ADD SWAP3 SWAP1 SWAP2 ADD SWAP1 PUSH2 0x13F3 JUMP JUMPDEST SWAP1 SWAP2 POP PUSH1 0x7 DUP5 ADD PUSH1 0x0 MSTORE PUSH1 0x20 PUSH1 0x0 KECCAK256 PUSH1 0x1F DUP5 ADD PUSH1 0x5 SHR DUP2 ADD PUSH1 0x20 DUP6 LT PUSH2 0x149E JUMPI JUMPDEST SWAP1 DUP5 SWAP4 SWAP3 SWAP2 JUMPDEST PUSH1 0x1F DUP4 ADD PUSH1 0x5 SHR DUP3 ADD DUP2 LT PUSH2 0x148F JUMPI POP POP PUSH2 0xA69 JUMP JUMPDEST PUSH1 0x0 DUP2 SSTORE DUP6 SWAP5 POP PUSH1 0x1 ADD PUSH2 0x1479 JUMP JUMPDEST POP DUP1 PUSH2 0x1473 JUMP JUMPDEST ADD MLOAD SWAP1 POP DUP4 DUP1 PUSH2 0xA21 JUMP JUMPDEST SWAP3 POP PUSH1 0x6 DUP5 ADD PUSH1 0x0 MSTORE PUSH1 0x20 PUSH1 0x0 KECCAK256 SWAP1 PUSH1 0x0 SWAP4 JUMPDEST PUSH1 0x1F NOT DUP5 AND DUP6 LT PUSH2 0x1507 JUMPI PUSH1 0x1 SWAP5 POP DUP4 PUSH1 0x1F NOT DUP2 AND LT PUSH2 0x14EE JUMPI JUMPDEST POP POP POP DUP2 SHL ADD PUSH1 0x6 DUP3 ADD SSTORE PUSH2 0xA39 JUMP JUMPDEST ADD MLOAD PUSH1 0x0 NOT PUSH1 0xF8 DUP5 PUSH1 0x3 SHL AND SHR NOT AND SWAP1 SSTORE DUP4 DUP1 DUP1 PUSH2 0x14DE JUMP JUMPDEST DUP2 DUP2 ADD MLOAD DUP4 SSTORE PUSH1 0x20 SWAP5 DUP6 ADD SWAP5 PUSH1 0x1 SWAP1 SWAP4 ADD SWAP3 SWAP1 SWAP2 ADD SWAP1 PUSH2 0x14C3 JUMP JUMPDEST SWAP1 SWAP2 POP PUSH1 0x6 DUP5 ADD PUSH1 0x0 MSTORE PUSH1 0x20 PUSH1 0x0 KECCAK256 PUSH1 0x1F DUP5 ADD PUSH1 0x5 SHR DUP2 ADD PUSH1 0x20 DUP6 LT PUSH2 0x156E JUMPI JUMPDEST SWAP1 DUP5 SWAP4 SWAP3 SWAP2 JUMPDEST PUSH1 0x1F DUP4 ADD PUSH1 0x5 SHR DUP3 ADD DUP2 LT PUSH2 0x155F JUMPI POP POP PUSH2 0xA0A JUMP JUMPDEST PUSH1 0x0 DUP2 SSTORE DUP6 SWAP5 POP PUSH1 0x1 ADD PUSH2 0x1549 JUMP JUMPDEST POP DUP1 PUSH2 0x1543 JUMP JUMPDEST ADD MLOAD SWAP1 POP DUP4 DUP1 PUSH2 0x9C2 JUMP JUMPDEST SWAP3 POP PUSH1 0x5 DUP5 ADD PUSH1 0x0 MSTORE PUSH1 0x20 PUSH1 0x0 KECCAK256 SWAP1 PUSH1 0x0 SWAP4 JUMPDEST PUSH1 0x1F NOT DUP5 AND DUP6 LT PUSH2 0x15D7 JUMPI PUSH1 0x1 SWAP5 POP DUP4 PUSH1 0x1F NOT DUP2 AND LT PUSH2 0x15BE JUMPI JUMPDEST POP POP POP DUP2 SHL ADD PUSH1 0x5 DUP3 ADD SSTORE PUSH2 0x9DA JUMP JUMPDEST ADD MLOAD PUSH1 0x0 NOT PUSH1 0xF8 DUP5 PUSH1 0x3 SHL AND SHR NOT AND SWAP1 SSTORE DUP4 DUP1 DUP1 PUSH2 0x15AE JUMP JUMPDEST DUP2 DUP2 ADD MLOAD DUP4 SSTORE PUSH1 0x20 SWAP5 DUP6 ADD SWAP5 PUSH1 0x1 SWAP1 SWAP4 ADD SWAP3 SWAP1 SWAP2 ADD SWAP1 PUSH2 0x1593 JUMP JUMPDEST SWAP1 SWAP2 POP PUSH1 0x5 DUP5 ADD PUSH1 0x0 MSTORE PUSH1 0x20 PUSH1 0x0 KECCAK256 PUSH1 0x1F DUP5 ADD PUSH1 0x5 SHR DUP2 ADD PUSH1 0x20 DUP6 LT PUSH2 0x163E JUMPI JUMPDEST SWAP1 DUP5 SWAP4 SWAP3 SWAP2 JUMPDEST PUSH1 0x1F DUP4 ADD PUSH1 0x5 SHR DUP3 ADD DUP2 LT PUSH2 0x162F JUMPI POP POP PUSH2 0x9AB JUMP JUMPDEST PUSH1 0x0 DUP2 SSTORE DUP6 SWAP5 POP PUSH1 0x1 ADD PUSH2 0x1619 JUMP JUMPDEST POP DUP1 PUSH2 0x1613 JUMP JUMPDEST ADD MLOAD SWAP1 POP DUP4 DUP1 PUSH2 0x963 JUMP JUMPDEST SWAP3 POP PUSH1 0x4 DUP5 ADD PUSH1 0x0 MSTORE PUSH1 0x20 PUSH1 0x0 KECCAK256 SWAP1 PUSH1 0x0 SWAP4 JUMPDEST PUSH1 0x1F NOT DUP5 AND DUP6 LT PUSH2 0x16A7 JUMPI PUSH1 0x1 SWAP5 POP DUP4 PUSH1 0x1F NOT DUP2 AND LT PUSH2 0x168E JUMPI JUMPDEST POP POP POP DUP2 SHL ADD PUSH1 0x4 DUP3 ADD SSTORE PUSH2 0x97B JUMP JUMPDEST ADD MLOAD PUSH1 0x0 NOT PUSH1 0xF8 DUP5 PUSH1 0x3 SHL AND SHR NOT AND SWAP1 SSTORE DUP4 DUP1 DUP1 PUSH2 0x167E JUMP JUMPDEST DUP2 DUP2 ADD MLOAD DUP4 SSTORE PUSH1 0x20 SWAP5 DUP6 ADD SWAP5 PUSH1 0x1 SWAP1 SWAP4 ADD SWAP3 SWAP1 SWAP2 ADD SWAP1 PUSH2 0x1663 JUMP JUMPDEST SWAP1 SWAP2 POP PUSH1 0x4 DUP5 ADD PUSH1 0x0 MSTORE PUSH1 0x20 PUSH1 0x0 KECCAK256 PUSH1 0x1F DUP5 ADD PUSH1 0x5 SHR DUP2 ADD PUSH1 0x20 DUP6 LT PUSH2 0x170E JUMPI JUMPDEST SWAP1 DUP5 SWAP4 SWAP3 SWAP2 JUMPDEST PUSH1 0x1F DUP4 ADD PUSH1 0x5 SHR DUP3 ADD DUP2 LT PUSH2 0x16FF JUMPI POP POP PUSH2 0x94C JUMP JUMPDEST PUSH1 0x0 DUP2 SSTORE DUP6 SWAP5 POP PUSH1 0x1 ADD PUSH2 0x16E9 JUMP JUMPDEST POP DUP1 PUSH2 0x16E3 JUMP JUMPDEST ADD MLOAD SWAP1 POP DUP4 DUP1 PUSH2 0x905 JUMP JUMPDEST SWAP3 POP PUSH1 0x3 DUP5 ADD PUSH1 0x0 MSTORE PUSH1 0x20 PUSH1 0x0 KECCAK256 SWAP1 PUSH1 0x0 SWAP4 JUMPDEST PUSH1 0x1F NOT DUP5 AND DUP6 LT PUSH2 0x1777 JUMPI PUSH1 0x1 SWAP5 POP DUP4 PUSH1 0x1F NOT DUP2 AND LT PUSH2 0x175E JUMPI JUMPDEST POP POP POP DUP2 SHL ADD PUSH1 0x3 DUP3 ADD SSTORE PUSH2 0x91D JUMP JUMPDEST ADD MLOAD PUSH1 0x0 NOT PUSH1 0xF8 DUP5 PUSH1 0x3 SHL AND SHR NOT AND SWAP1 SSTORE DUP4 DUP1 DUP1 PUSH2 0x174E JUMP JUMPDEST DUP2 DUP2 ADD MLOAD DUP4 SSTORE PUSH1 0x20 SWAP5 DUP6 ADD SWAP5 PUSH1 0x1 SWAP1 SWAP4 ADD SWAP3 SWAP1 SWAP2 ADD SWAP1 PUSH2 0x1733 JUMP JUMPDEST SWAP1 SWAP2 POP PUSH1 0x3 DUP5 ADD PUSH1 0x0 MSTORE PUSH1 0x20 PUSH1 0x0 KECCAK256 PUSH1 0x1F DUP5 ADD PUSH1 0x5 SHR DUP2 ADD PUSH1 0x20 DUP6 LT PUSH2 0x17DE JUMPI JUMPDEST SWAP1 DUP5 SWAP4 SWAP3 SWAP2 JUMPDEST PUSH1 0x1F DUP4 ADD PUSH1 0x5 SHR DUP3 ADD DUP2 LT PUSH2 0x17CF JUMPI POP POP PUSH2 0x8EE JUMP JUMPDEST PUSH1 0x0 DUP2 SSTORE DUP6 SWAP5 POP PUSH1 0x1 ADD PUSH2 0x17B9 JUMP JUMPDEST POP DUP1 PUSH2 0x17B3 JUMP JUMPDEST ADD MLOAD SWAP1 POP DUP4 DUP1 PUSH2 0x8A6 JUMP JUMPDEST SWAP3 POP PUSH1 0x2 DUP5 ADD PUSH1 0x0 MSTORE PUSH1 0x20 PUSH1 0x0 KECCAK256 SWAP1 PUSH1 0x0 SWAP4 JUMPDEST PUSH1 0x1F NOT DUP5 AND DUP6 LT PUSH2 0x1847 JUMPI PUSH1 0x1 SWAP5 POP DUP4 PUSH1 0x1F NOT DUP2 AND LT PUSH2 0x182E JUMPI JUMPDEST POP POP POP DUP2 SHL ADD PUSH1 0x2 DUP3 ADD SSTORE PUSH2 0x8BE JUMP JUMPDEST ADD MLOAD PUSH1 0x0 NOT PUSH1 0xF8 DUP5 PUSH1 0x3 SHL AND SHR NOT AND SWAP1 SSTORE DUP4 DUP1 DUP1 PUSH2 0x181E JUMP JUMPDEST DUP2 DUP2 ADD MLOAD DUP4 SSTORE PUSH1 0x20 SWAP5 DUP6 ADD SWAP5 PUSH1 0x1 SWAP1 SWAP4 ADD SWAP3 SWAP1 SWAP2 ADD SWAP1 PUSH2 0x1803 JUMP JUMPDEST SWAP1 SWAP2 POP PUSH1 0x2 DUP5 ADD PUSH1 0x0 MSTORE PUSH1 0x20 PUSH1 0x0 KECCAK256 PUSH1 0x1F DUP5 ADD PUSH1 0x5 SHR DUP2 ADD PUSH1 0x20 DUP6 LT PUSH2 0x18AE JUMPI JUMPDEST SWAP1 DUP5 SWAP4 SWAP3 SWAP2 JUMPDEST PUSH1 0x1F DUP4 ADD PUSH1 0x5 SHR DUP3 ADD DUP2 LT PUSH2 0x189F JUMPI POP POP PUSH2 0x88F JUMP JUMPDEST PUSH1 0x0 DUP2 SSTORE DUP6 SWAP5 POP PUSH1 0x1 ADD PUSH2 0x1889 JUMP JUMPDEST POP DUP1 PUSH2 0x1883 JUMP JUMPDEST ADD MLOAD SWAP1 POP DUP4 DUP1 PUSH2 0x847 JUMP JUMPDEST SWAP3 POP PUSH1 0x1 DUP5 ADD PUSH1 0x0 MSTORE PUSH1 0x20 PUSH1 0x0 KECCAK256 SWAP1 PUSH1 0x0 SWAP4 JUMPDEST PUSH1 0x1F NOT DUP5 AND DUP6 LT PUSH2 0x1917 JUMPI PUSH1 0x1 SWAP5 POP DUP4 PUSH1 0x1F NOT DUP2 AND LT PUSH2 0x18FE JUMPI JUMPDEST POP POP POP DUP2 SHL ADD PUSH1 0x1 DUP3 ADD SSTORE PUSH2 0x85F JUMP JUMPDEST ADD MLOAD PUSH1 0x0 NOT PUSH1 0xF8 DUP5 PUSH1 0x3 SHL AND SHR NOT AND SWAP1 SSTORE DUP4 DUP1 DUP1 PUSH2 0x18EE JUMP JUMPDEST DUP2 DUP2 ADD MLOAD DUP4 SSTORE PUSH1 0x20 SWAP5 DUP6 ADD SWAP5 PUSH1 0x1 SWAP1 SWAP4 ADD SWAP3 SWAP1 SWAP2 ADD SWAP1 PUSH2 0x18D3 JUMP JUMPDEST SWAP1 SWAP2 POP PUSH1 0x1 DUP5 ADD PUSH1 0x0 MSTORE PUSH1 0x20 PUSH1 0x0 KECCAK256 PUSH1 0x1F DUP5 ADD PUSH1 0x5 SHR DUP2 ADD PUSH1 0x20 DUP6 LT PUSH2 0x197E JUMPI JUMPDEST SWAP1 DUP5 SWAP4 SWAP3 SWAP2 JUMPDEST PUSH1 0x1F DUP4 ADD PUSH1 0x5 SHR DUP3 ADD DUP2 LT PUSH2 0x196F JUMPI POP POP PUSH2 0x830 JUMP JUMPDEST PUSH1 0x0 DUP2 SSTORE DUP6 SWAP5 POP PUSH1 0x1 ADD PUSH2 0x1959 JUMP JUMPDEST POP DUP1 PUSH2 0x1953 JUMP JUMPDEST ADD MLOAD SWAP1 POP DUP4 DUP1 PUSH2 0x7EB JUMP JUMPDEST SWAP3 POP DUP4 PUSH1 0x0 MSTORE PUSH1 0x20 PUSH1 0x0 KECCAK256 SWAP1 PUSH1 0x0 SWAP4 JUMPDEST PUSH1 0x1F NOT DUP5 AND DUP6 LT PUSH2 0x19E1 JUMPI PUSH1 0x1 SWAP5 POP DUP4 PUSH1 0x1F NOT DUP2 AND LT PUSH2 0x19C8 JUMPI JUMPDEST POP POP POP DUP2 SHL ADD DUP2 SSTORE PUSH2 0x800 JUMP JUMPDEST ADD MLOAD PUSH1 0x0 NOT PUSH1 0xF8 DUP5 PUSH1 0x3 SHL AND SHR NOT AND SWAP1 SSTORE DUP4 DUP1 DUP1 PUSH2 0x19BB JUMP JUMPDEST DUP2 DUP2 ADD MLOAD DUP4 SSTORE PUSH1 0x20 SWAP5 DUP6 ADD SWAP5 PUSH1 0x1 SWAP1 SWAP4 ADD SWAP3 SWAP1 SWAP2 ADD SWAP1 PUSH2 0x19A0 JUMP JUMPDEST SWAP1 SWAP2 POP DUP4 PUSH1 0x0 MSTORE PUSH1 0x20 PUSH1 0x0 KECCAK256 PUSH1 0x1F DUP5 ADD PUSH1 0x5 SHR DUP2 ADD PUSH1 0x20 DUP6 LT PUSH2 0x1A45 JUMPI JUMPDEST SWAP1 DUP5 SWAP4 SWAP3 SWAP2 JUMPDEST PUSH1 0x1F DUP4 ADD PUSH1 0x5 SHR DUP3 ADD DUP2 LT PUSH2 0x1A36 JUMPI POP POP PUSH2 0x7D4 JUMP JUMPDEST PUSH1 0x0 DUP2 SSTORE DUP6 SWAP5 POP PUSH1 0x1 ADD PUSH2 0x1A20 JUMP JUMPDEST POP DUP1 PUSH2 0x1A1A JUMP JUMPDEST PUSH1 0x40 MLOAD PUSH3 0x461BCD PUSH1 0xE5 SHL DUP2 MSTORE PUSH1 0x20 PUSH1 0x4 DUP3 ADD MSTORE PUSH1 0xB PUSH1 0x24 DUP3 ADD MSTORE PUSH11 0x139BDD081CDD195DD85C99 PUSH1 0xAA SHL PUSH1 0x44 DUP3 ADD MSTORE PUSH1 0x64 SWAP1 REVERT JUMPDEST CALLVALUE PUSH2 0xA4 JUMPI PUSH1 0x20 CALLDATASIZE PUSH1 0x3 NOT ADD SLT PUSH2 0xA4 JUMPI PUSH1 0x1 PUSH1 0x1 PUSH1 0xA0 SHL SUB PUSH2 0x1AA0 PUSH2 0x1C72 JUMP JUMPDEST AND PUSH1 0x0 MSTORE PUSH1 0x1 PUSH1 0x20 MSTORE PUSH1 0x40 PUSH1 0x0 KECCAK256 PUSH2 0x1AB7 DUP2 PUSH2 0x1CFF JUMP JUMPDEST PUSH2 0x1AC3 PUSH1 0x1 DUP4 ADD PUSH2 0x1CFF JUMP JUMPDEST SWAP2 PUSH2 0x1AD0 PUSH1 0x2 DUP3 ADD PUSH2 0x1CFF JUMP JUMPDEST SWAP1 PUSH2 0x1ADD PUSH1 0x3 DUP3 ADD PUSH2 0x1CFF JUMP JUMPDEST PUSH2 0x1AE9 PUSH1 0x4 DUP4 ADD PUSH2 0x1CFF JUMP JUMPDEST PUSH2 0x1AF5 PUSH1 0x5 DUP5 ADD PUSH2 0x1CFF JUMP JUMPDEST PUSH2 0x1B01 PUSH1 0x6 DUP6 ADD PUSH2 0x1CFF JUMP JUMPDEST PUSH2 0x1B0D PUSH1 0x7 DUP7 ADD PUSH2 0x1CFF JUMP JUMPDEST PUSH2 0x1B19 PUSH1 0x8 DUP8 ADD PUSH2 0x1CFF JUMP JUMPDEST SWAP2 PUSH2 0x1B26 PUSH1 0x9 DUP9 ADD PUSH2 0x1CFF JUMP JUMPDEST SWAP4 PUSH2 0x1B33 PUSH1 0xA DUP10 ADD PUSH2 0x1CFF JUMP JUMPDEST SWAP6 PUSH2 0x1B40 PUSH1 0xB DUP11 ADD PUSH2 0x1CFF JUMP JUMPDEST SWAP8 PUSH2 0x1B4D PUSH1 0xC DUP12 ADD PUSH2 0x1CFF JUMP JUMPDEST SWAP10 PUSH1 0xD ADD PUSH2 0x1B5A SWAP1 PUSH2 0x1CFF JUMP JUMPDEST SWAP11 PUSH1 0x40 MLOAD SWAP14 DUP15 DUP1 SWAP15 PUSH2 0x1C0 DUP1 DUP4 MSTORE DUP3 ADD PUSH2 0x1B73 SWAP2 PUSH2 0x1DA5 JUMP JUMPDEST SWAP1 DUP1 DUP3 SUB SWAP1 PUSH1 0x20 ADD MSTORE PUSH2 0x1B85 SWAP2 PUSH2 0x1DA5 JUMP JUMPDEST DUP14 DUP2 SUB PUSH1 0x40 DUP16 ADD MSTORE PUSH2 0x1B96 SWAP2 PUSH2 0x1DA5 JUMP JUMPDEST DUP13 DUP2 SUB PUSH1 0x60 DUP15 ADD MSTORE PUSH2 0x1BA7 SWAP2 PUSH2 0x1DA5 JUMP JUMPDEST DUP12 DUP2 SUB PUSH1 0x80 DUP14 ADD MSTORE PUSH2 0x1BB8 SWAP2 PUSH2 0x1DA5 JUMP JUMPDEST DUP11 DUP2 SUB PUSH1 0xA0 DUP13 ADD MSTORE PUSH2 0x1BC9 SWAP2 PUSH2 0x1DA5 JUMP JUMPDEST DUP10 DUP2 SUB PUSH1 0xC0 DUP12 ADD MSTORE PUSH2 0x1BDA SWAP2 PUSH2 0x1DA5 JUMP JUMPDEST DUP9 DUP2 SUB PUSH1 0xE0 DUP11 ADD MSTORE PUSH2 0x1BEB SWAP2 PUSH2 0x1DA5 JUMP JUMPDEST DUP8 DUP2 SUB PUSH2 0x100 DUP10 ADD MSTORE PUSH2 0x1BFD SWAP2 PUSH2 0x1DA5 JUMP JUMPDEST DUP7 DUP2 SUB PUSH2 0x120 DUP9 ADD MSTORE PUSH2 0x1C0F SWAP2 PUSH2 0x1DA5 JUMP JUMPDEST DUP6 DUP2 SUB PUSH2 0x140 DUP8 ADD MSTORE PUSH2 0x1C21 SWAP2 PUSH2 0x1DA5 JUMP JUMPDEST DUP5 DUP2 SUB PUSH2 0x160 DUP7 ADD MSTORE PUSH2 0x1C33 SWAP2 PUSH2 0x1DA5 JUMP JUMPDEST DUP4 DUP2 SUB PUSH2 0x180 DUP6 ADD MSTORE PUSH2 0x1C45 SWAP2 PUSH2 0x1DA5 JUMP JUMPDEST DUP3 DUP2 SUB PUSH2 0x1A0 DUP5 ADD MSTORE PUSH2 0x3A9 SWAP2 PUSH2 0x1DA5 JUMP JUMPDEST CALLVALUE PUSH2 0xA4 JUMPI PUSH1 0x0 CALLDATASIZE PUSH1 0x3 NOT ADD SLT PUSH2 0xA4 JUMPI PUSH1 0x20 SWAP1 PUSH1 0x2 SLOAD DUP2 MSTORE RETURN JUMPDEST PUSH1 0x4 CALLDATALOAD SWAP1 PUSH1 0x1 PUSH1 0x1 PUSH1 0xA0 SHL SUB DUP3 AND DUP3 SUB PUSH2 0xA4 JUMPI JUMP JUMPDEST SWAP1 PUSH1 0x1 DUP3 DUP2 SHR SWAP3 AND DUP1 ISZERO PUSH2 0x1CB8 JUMPI JUMPDEST PUSH1 0x20 DUP4 LT EQ PUSH2 0x1CA2 JUMPI JUMP JUMPDEST PUSH4 0x4E487B71 PUSH1 0xE0 SHL PUSH1 0x0 MSTORE PUSH1 0x22 PUSH1 0x4 MSTORE PUSH1 0x24 PUSH1 0x0 REVERT JUMPDEST SWAP2 PUSH1 0x7F AND SWAP2 PUSH2 0x1C97 JUMP JUMPDEST PUSH2 0x1C0 DUP2 ADD SWAP1 DUP2 LT PUSH1 0x1 PUSH1 0x1 PUSH1 0x40 SHL SUB DUP3 GT OR PUSH2 0xEEF JUMPI PUSH1 0x40 MSTORE JUMP JUMPDEST SWAP1 PUSH1 0x1F DUP1 NOT SWAP2 ADD AND DUP2 ADD SWAP1 DUP2 LT PUSH1 0x1 PUSH1 0x1 PUSH1 0x40 SHL SUB DUP3 GT OR PUSH2 0xEEF JUMPI PUSH1 0x40 MSTORE JUMP JUMPDEST SWAP1 PUSH1 0x40 MLOAD SWAP2 DUP3 PUSH1 0x0 DUP3 SLOAD SWAP3 PUSH2 0x1D13 DUP5 PUSH2 0x1C88 JUMP JUMPDEST SWAP1 DUP2 DUP5 MSTORE PUSH1 0x1 SWAP5 DUP6 DUP2 AND SWAP1 DUP2 PUSH1 0x0 EQ PUSH2 0x1D82 JUMPI POP PUSH1 0x1 EQ PUSH2 0x1D3F JUMPI JUMPDEST POP POP PUSH2 0x1D3D SWAP3 POP SUB DUP4 PUSH2 0x1CDE JUMP JUMPDEST JUMP JUMPDEST SWAP1 SWAP4 SWAP2 POP PUSH1 0x0 MSTORE PUSH1 0x20 SWAP1 DUP2 PUSH1 0x0 KECCAK256 SWAP4 PUSH1 0x0 SWAP2 JUMPDEST DUP2 DUP4 LT PUSH2 0x1D6A JUMPI POP POP PUSH2 0x1D3D SWAP4 POP DUP3 ADD ADD CODESIZE DUP1 PUSH2 0x1D2F JUMP JUMPDEST DUP6 SLOAD DUP9 DUP5 ADD DUP6 ADD MSTORE SWAP5 DUP6 ADD SWAP5 DUP8 SWAP5 POP SWAP2 DUP4 ADD SWAP2 PUSH2 0x1D52 JUMP JUMPDEST SWAP2 POP POP PUSH2 0x1D3D SWAP5 POP PUSH1 0x20 SWAP3 POP PUSH1 0xFF NOT AND DUP3 DUP5 ADD MSTORE ISZERO ISZERO PUSH1 0x5 SHL DUP3 ADD ADD CODESIZE DUP1 PUSH2 0x1D2F JUMP JUMPDEST SWAP2 SWAP1 DUP3 MLOAD SWAP3 DUP4 DUP3 MSTORE PUSH1 0x0 JUMPDEST DUP5 DUP2 LT PUSH2 0x1DD1 JUMPI POP POP DUP3 PUSH1 0x0 PUSH1 0x20 DUP1 SWAP5 SWAP6 DUP5 ADD ADD MSTORE PUSH1 0x1F DUP1 NOT SWAP2 ADD AND ADD ADD SWAP1 JUMP JUMPDEST PUSH1 0x20 DUP2 DUP4 ADD DUP2 ADD MLOAD DUP5 DUP4 ADD DUP3 ADD MSTORE ADD PUSH2 0x1DB0 JUMP JUMPDEST SWAP2 DUP2 PUSH1 0x1F DUP5 ADD SLT ISZERO PUSH2 0xA4 JUMPI DUP3 CALLDATALOAD SWAP2 PUSH1 0x1 PUSH1 0x1 PUSH1 0x40 SHL SUB DUP4 GT PUSH2 0xA4 JUMPI PUSH1 0x20 DUP4 DUP2 DUP7 ADD SWAP6 ADD ADD GT PUSH2 0xA4 JUMPI JUMP JUMPDEST PUSH1 0x2 SLOAD DUP2 LT ISZERO PUSH2 0x1E49 JUMPI PUSH1 0x2 PUSH1 0x0 MSTORE PUSH32 0x405787FA12A823E0F2B7631CC41B3BA8828B3321CA811111FA75CD3AA3BB5ACE ADD SWAP1 PUSH1 0x0 SWAP1 JUMP JUMPDEST PUSH4 0x4E487B71 PUSH1 0xE0 SHL PUSH1 0x0 MSTORE PUSH1 0x32 PUSH1 0x4 MSTORE PUSH1 0x24 PUSH1 0x0 REVERT JUMPDEST SWAP3 SWAP2 SWAP3 PUSH1 0x1 PUSH1 0x1 PUSH1 0x40 SHL SUB DUP3 GT PUSH2 0xEEF JUMPI PUSH1 0x40 MLOAD SWAP2 PUSH2 0x1E88 PUSH1 0x1F DUP3 ADD PUSH1 0x1F NOT AND PUSH1 0x20 ADD DUP5 PUSH2 0x1CDE JUMP JUMPDEST DUP3 SWAP5 DUP2 DUP5 MSTORE DUP2 DUP4 ADD GT PUSH2 0xA4 JUMPI DUP3 DUP2 PUSH1 0x20 SWAP4 DUP5 PUSH1 0x0 SWAP7 ADD CALLDATACOPY ADD ADD MSTORE JUMP JUMPDEST SWAP1 DUP1 PUSH1 0x20 SWAP4 SWAP3 DUP2 DUP5 MSTORE DUP5 DUP5 ADD CALLDATACOPY PUSH1 0x0 DUP3 DUP3 ADD DUP5 ADD MSTORE PUSH1 0x1F ADD PUSH1 0x1F NOT AND ADD ADD SWAP1 JUMP INVALID LOG2 PUSH5 0x6970667358 0x22 SLT KECCAK256 MLOAD 0xAB PUSH31 0xC2CA1B74C8973583AC059927B6AC5DEFC82E359BF7952B43D8B25D96526473 PUSH16 0x6C634300081400330000000000000000 "},"methodIdentifiers":{"apprentices(uint256)":"f31bee3e","getSummons(address)":"cf84c603","steward()":"637eea19","summonApprentice(address,string,string,string,string,string,string,string,string,string,string,string,string,string,string)":"5da9c05a","summons(address)":"5a2ed662","totalSummons()":"2a17d4cd"}}}}}