{"contracts/codex/SpiralboundCodexXXII.sol":{"SpiralboundCodexXXII":{"abi":[{"inputs":[],"stateMutability":"nonpayable","type":"constructor"},{"anonymous":false,"inputs":[{"indexed":false,"internalType":"string","name":"glyph","type":"string"},{"indexed":false,"internalType":"string","name":"tag","type":"string"},{"indexed":false,"internalType":"string","name":"binding","type":"string"},{"indexed":false,"internalType":"string","name":"annotation","type":"string"},{"indexed":false,"internalType":"string","name":"lineage","type":"string"},{"indexed":false,"internalType":"string","name":"resonance","type":"string"},{"indexed":false,"internalType":"string","name":"protocol","type":"string"},{"indexed":false,"internalType":"string","name":"sanctum","type":"string"},{"indexed":false,"internalType":"string","name":"pulse","type":"string"},{"indexed":false,"internalType":"string","name":"chant","type":"string"},{"indexed":false,"internalType":"string","name":"choreography","type":"string"},{"indexed":false,"internalType":"string","name":"drift","type":"string"},{"indexed":false,"internalType":"string","name":"signature","type":"string"},{"indexed":false,"internalType":"string","name":"signal","type":"string"},{"indexed":false,"internalType":"string","name":"companion","type":"string"},{"indexed":false,"internalType":"string","name":"stewardName","type":"string"},{"indexed":false,"internalType":"string","name":"registry","type":"string"},{"indexed":false,"internalType":"string","name":"echo","type":"string"},{"indexed":false,"internalType":"string","name":"hum","type":"string"},{"indexed":false,"internalType":"string","name":"terrain","type":"string"},{"indexed":false,"internalType":"string","name":"choreographyType","type":"string"},{"indexed":false,"internalType":"string","name":"driftType","type":"string"},{"indexed":false,"internalType":"string","name":"signalType","type":"string"}],"name":"CodexInscribed","type":"event"},{"inputs":[{"internalType":"string","name":"","type":"string"}],"name":"codices","outputs":[{"internalType":"string","name":"tag","type":"string"},{"internalType":"string","name":"binding","type":"string"},{"internalType":"string","name":"annotation","type":"string"},{"internalType":"string","name":"lineage","type":"string"},{"internalType":"string","name":"resonance","type":"string"},{"internalType":"string","name":"protocol","type":"string"},{"internalType":"string","name":"sanctum","type":"string"},{"internalType":"string","name":"pulse","type":"string"},{"internalType":"string","name":"chant","type":"string"},{"internalType":"string","name":"choreography","type":"string"},{"internalType":"string","name":"drift","type":"string"},{"internalType":"string","name":"signature","type":"string"},{"internalType":"string","name":"signal","type":"string"},{"internalType":"string","name":"companion","type":"string"},{"internalType":"string","name":"stewardName","type":"string"},{"internalType":"string","name":"registry","type":"string"},{"internalType":"string","name":"echo","type":"string"},{"internalType":"string","name":"hum","type":"string"},{"internalType":"string","name":"terrain","type":"string"},{"internalType":"string","name":"choreographyType","type":"string"},{"internalType":"string","name":"driftType","type":"string"},{"internalType":"string","name":"signalType","type":"string"}],"stateMutability":"view","type":"function"},{"inputs":[{"internalType":"string","name":"glyph","type":"string"}],"name":"getCodex","outputs":[{"components":[{"internalType":"string","name":"tag","type":"string"},{"internalType":"string","name":"binding","type":"string"},{"internalType":"string","name":"annotation","type":"string"},{"internalType":"string","name":"lineage","type":"string"},{"internalType":"string","name":"resonance","type":"string"},{"internalType":"string","name":"protocol","type":"string"},{"internalType":"string","name":"sanctum","type":"string"},{"internalType":"string","name":"pulse","type":"string"},{"internalType":"string","name":"chant","type":"string"},{"internalType":"string","name":"choreography","type":"string"},{"internalType":"string","name":"drift","type":"string"},{"internalType":"string","name":"signature","type":"string"},{"internalType":"string","name":"signal","type":"string"},{"internalType":"string","name":"companion","type":"string"},{"internalType":"string","name":"stewardName","type":"string"},{"internalType":"string","name":"registry","type":"string"},{"internalType":"string","name":"echo","type":"string"},{"internalType":"string","name":"hum","type":"string"},{"internalType":"string","name":"terrain","type":"string"},{"internalType":"string","name":"choreographyType","type":"string"},{"internalType":"string","name":"driftType","type":"string"},{"internalType":"string","name":"signalType","type":"string"}],"internalType":"struct SpiralboundCodexXXII.Codex","name":"","type":"tuple"}],"stateMutability":"view","type":"function"},{"inputs":[{"internalType":"string","name":"glyph","type":"string"},{"internalType":"string","name":"tag","type":"string"},{"internalType":"string","name":"binding","type":"string"},{"internalType":"string","name":"annotation","type":"string"},{"internalType":"string","name":"lineage","type":"string"},{"internalType":"string","name":"resonance","type":"string"},{"internalType":"string","name":"protocol","type":"string"},{"internalType":"string","name":"sanctum","type":"string"},{"internalType":"string","name":"pulse","type":"string"},{"internalType":"string","name":"chant","type":"string"},{"internalType":"string","name":"choreography","type":"string"},{"internalType":"string","name":"drift","type":"string"},{"internalType":"string","name":"signature","type":"string"},{"internalType":"string","name":"signal","type":"string"},{"internalType":"string","name":"companion","type":"string"},{"internalType":"string","name":"stewardName","type":"string"},{"internalType":"string","name":"registry","type":"string"},{"internalType":"string","name":"echo","type":"string"},{"internalType":"string","name":"hum","type":"string"},{"internalType":"string","name":"terrain","type":"string"},{"internalType":"string","name":"choreographyType","type":"string"},{"internalType":"string","name":"driftType","type":"string"},{"internalType":"string","name":"signalType","type":"string"}],"name":"inscribeCodex","outputs":[],"stateMutability":"nonpayable","type":"function"},{"inputs":[{"internalType":"uint256","name":"","type":"uint256"}],"name":"keys","outputs":[{"internalType":"string","name":"","type":"string"}],"stateMutability":"view","type":"function"},{"inputs":[],"name":"steward","outputs":[{"internalType":"address","name":"","type":"address"}],"stateMutability":"view","type":"function"},{"inputs":[],"name":"totalCodices","outputs":[{"internalType":"uint256","name":"","type":"uint256"}],"stateMutability":"view","type":"function"}],"evm":{"bytecode":{"linkReferences":{},"object":"6080806040523461002857600080546001600160a01b03191633179055612a57908161002e8239f35b600080fdfe6107e0604052600436101561001357600080fd5b60003560e01c80630cb6aaf11461273c578063637eea19146127135780638336152214612203578063c212d16b146121e5578063dbc2142414611ddf5763dde3d2ec1461005f57600080fd5b34611dda576102e0366003190112611dda576004356001600160401b038111611dda57610090903690600401612939565b61062052610760526024356001600160401b038111611dda576100b7903690600401612939565b610440526101a0526044356001600160401b038111611dda576100de903690600401612939565b610660526102a0526064356001600160401b038111611dda57610105903690600401612939565b610100526106e0526001600160401b0360843511611dda5761012c36608435600401612939565b610500526080526001600160401b0360a43511611dda576101523660a435600401612939565b6102c052610320526001600160401b0360c43511611dda576101793660c435600401612939565b61078052610120526001600160401b0360e43511611dda576101a03660e435600401612939565b61058052610600526001600160401b036101043511611dda576101c93661010435600401612939565b61072052610220526001600160401b036101243511611dda576101f23661012435600401612939565b6105c052610160526001600160401b036101443511611dda5761021b3661014435600401612939565b610740526107c0526001600160401b036101643511611dda576102443661016435600401612939565b6106c0526105a0526001600160401b036101843511611dda5761026d3661018435600401612939565b60a0526104e0526001600160401b036101a43511611dda57610295366101a435600401612939565b6103e0526104c0526001600160401b036101c43511611dda576102be366101c435600401612939565b610480526107a0526001600160401b036101e43511611dda576102e7366101e435600401612939565b61064052610560526001600160401b036102043511611dda576103103661020435600401612939565b6105e052610240526001600160401b036102243511611dda576103393661022435600401612939565b6103c052610700526001600160401b036102443511611dda576103623661024435600401612939565b6103a052610520526001600160401b036102643511611dda5761038b3661026435600401612939565b6101c052610340526001600160401b036102843511611dda576103b43661028435600401612939565b60e0526106a0526001600160401b036102a43511611dda576103dc366102a435600401612939565b61042052610140526001600160401b036102c43511611dda57610405366102c435600401612939565b61040052610180526000546001600160a01b03163303611da75761042f604051806102805261280e565b61044036610440516101a051612966565b610280515261045636610660516102a051612966565b602061028051015261046f36610100516106e051612966565b60406102805101526104873661050051608051612966565b60606102805101526104a0366102c05161032051612966565b60806102805101526104b9366107805161012051612966565b60a06102805101526104d2366105805161060051612966565b60c06102805101526104eb366107205161022051612966565b60e0610280510152610504366105c05161016051612966565b61010061028051015261051e36610740516107c051612966565b610120610280510152610538366106c0516105a051612966565b6101406102805101526105513660a0516104e051612966565b61016061028051015261056b366103e0516104c051612966565b61018061028051015261058536610480516107a051612966565b6101a061028051015261059f366106405161056051612966565b6101c06102805101526105b9366105e05161024051612966565b6101e06102805101526105d3366103c05161070051612966565b6102006102805101526105ed366103a05161052051612966565b610220610280510152610607366101c05161034051612966565b6102406102805101526106203660e0516106a051612966565b61026061028051015261063a366104205161014051612966565b61028080510152610652366104005161018051612966565b6102a0610280510152604051610620516107605182376001610620518201526020816106205181010301902061028051518051906001600160401b0382116112c55781906106aa826106a486546127d4565b866129ac565b602090601f8311600114611d3b57600092611d30575b50508160011b916000199060031b1c19161781555b60206102805101518051906001600160401b0382116112c557819061070a8261070160018701546127d4565b600187016129ac565b602090601f8311600114611cbe57600092611cb3575b50508160011b916000199060031b1c19161760018201555b60406102805101518051906001600160401b0382116112c557819061076d8261076460028701546127d4565b600287016129ac565b602090601f8311600114611c4157600092611c36575b50508160011b916000199060031b1c19161760028201555b60606102805101518051906001600160401b0382116112c55781906107d0826107c760038701546127d4565b600387016129ac565b602090601f8311600114611bc457600092611bb9575b50508160011b916000199060031b1c19161760038201555b60806102805101518051906001600160401b0382116112c55781906108338261082a60048701546127d4565b600487016129ac565b602090601f8311600114611b4757600092611b3c575b50508160011b916000199060031b1c19161760048201555b60a06102805101518051906001600160401b0382116112c55781906108968261088d60058701546127d4565b600587016129ac565b602090601f8311600114611aca57600092611abf575b50508160011b916000199060031b1c19161760058201555b60c06102805101518051906001600160401b0382116112c55781906108f9826108f060068701546127d4565b600687016129ac565b602090601f8311600114611a4d57600092611a42575b50508160011b916000199060031b1c19161760068201555b60e06102805101518051906001600160401b0382116112c557819061095c8261095360078701546127d4565b600787016129ac565b602090601f83116001146119d0576000926119c5575b50508160011b916000199060031b1c19161760078201555b6101006102805101518051906001600160401b0382116112c55781906109c0826109b760088701546127d4565b600887016129ac565b602090601f831160011461195357600092611948575b50508160011b916000199060031b1c19161760088201555b6101206102805101518051906001600160401b0382116112c5578190610a2482610a1b60098701546127d4565b600987016129ac565b602090601f83116001146118d6576000926118cb575b50508160011b916000199060031b1c19161760098201555b6101406102805101518051906001600160401b0382116112c5578190610a8882610a7f600a8701546127d4565b600a87016129ac565b602090601f83116001146118595760009261184e575b50508160011b916000199060031b1c191617600a8201555b6101606102805101518051906001600160401b0382116112c5578190610aec82610ae3600b8701546127d4565b600b87016129ac565b602090601f83116001146117dc576000926117d1575b50508160011b916000199060031b1c191617600b8201555b6101806102805101518051906001600160401b0382116112c5578190610b5082610b47600c8701546127d4565b600c87016129ac565b602090601f831160011461175f57600092611754575b50508160011b916000199060031b1c191617600c8201555b6101a06102805101518051906001600160401b0382116112c5578190610bb482610bab600d8701546127d4565b600d87016129ac565b602090601f83116001146116e2576000926116d7575b50508160011b916000199060031b1c191617600d8201555b6101c06102805101518051906001600160401b0382116112c5578190610c1882610c0f600e8701546127d4565b600e87016129ac565b602090601f83116001146116655760009261165a575b50508160011b916000199060031b1c191617600e8201555b6101e06102805101518051906001600160401b0382116112c5578190610c7c82610c73600f8701546127d4565b600f87016129ac565b602090601f83116001146115e8576000926115dd575b50508160011b916000199060031b1c191617600f8201555b6102006102805101518051906001600160401b0382116112c5578190610ce082610cd760108701546127d4565b601087016129ac565b602090601f831160011461156b57600092611560575b50508160011b916000199060031b1c19161760108201555b6102206102805101518051906001600160401b0382116112c5578190610d4482610d3b60118701546127d4565b601187016129ac565b602090601f83116001146114ee576000926114e3575b50508160011b916000199060031b1c19161760118201555b6102406102805101518051906001600160401b0382116112c5578190610da882610d9f60128701546127d4565b601287016129ac565b602090601f831160011461147157600092611466575b50508160011b916000199060031b1c19161760128201555b6102606102805101518051906001600160401b0382116112c5578190610e0c82610e0360138701546127d4565b601387016129ac565b602090601f83116001146113f4576000926113e9575b50508160011b916000199060031b1c19161760138201555b610280805101518051906001600160401b0382116112c5578190610e6e82610e6560148701546127d4565b601487016129ac565b602090601f83116001146113775760009261136c575b50508160011b916000199060031b1c19161760148201555b6102a06102805101518051906001600160401b0382116112c557610ed082610ec760158601546127d4565b601586016129ac565b602090601f83116001146112fc5760159291600091836112f1575b50508160011b916000199060031b1c1916179101555b600254680100000000000000008110156112c557806001610f259201600255612787565b6112db57610620516001600160401b0381116112c557610f4f90610f4983546127d4565b836129ac565b60009061062051601f8111600114611258575090600061062051918261124a575b508160011b916000199060031b1c19161790555b6102e06040518061020052527f2b56e80e35952c5261b037970a379a845cc0c90dca0c16268537b7c399ff43416112206112066111ed6111d36111b961119f61118561116b61115161113761111e6111046110ea6110d06110b661109d61108461106b61105361103a6110216110086102e061020051016106205161076051612a00565b610200516020818303910152610440516101a051612a00565b610200516040818303910152610660516102a051612a00565b610200516060818303910152610100516106e051612a00565b61020051608081830391015261050051608051612a00565b6102005160a08183039101526102c05161032051612a00565b6102005160c08183039101526107805161012051612a00565b6102005160e08183039101526105805161060051612a00565b610200516101008183039101526107205161022051612a00565b610200516101208183039101526105c05161016051612a00565b61020051610140818303910152610740516107c051612a00565b610200516101608183039101526106c0516105a051612a00565b6102005161018081830391015260a0516104e051612a00565b610200516101a08183039101526103e0516104c051612a00565b610200516101c0818303910152610480516107a051612a00565b610200516101e08183039101526106405161056051612a00565b610200516102008183039101526105e05161024051612a00565b610200516102208183039101526103c05161070051612a00565b610200516102408183039101526103a05161052051612a00565b610200516102608183039101526101c05161034051612a00565b6102005161028081830391015260e0516106a051612a00565b610200516102a08183039101526104205161014051612a00565b610200516102c081830391015261124261020051916104005161018051612a00565b0361020051a1005b905061076051013538610f70565b81600052602060002060009361076051905b601f19841686106112ad57600194955083601f19811610611293575b505050811b019055610f84565b0135600019600384901b60f8161c19169055388080611286565b9160206001819285850135815501930195019461126a565b634e487b7160e01b600052604160045260246000fd5b634e487b7160e01b600052600060045260246000fd5b015190503880610eeb565b906015840160005260206000209160005b601f19851681106113545750918391600193601595601f1981161061133b575b505050811b01910155610f01565b015160001960f88460031b161c1916905538808061132d565b9192602060018192868501518155019401920161130d565b015190503880610e84565b9250601484016000526020600020906000935b601f19841685106113ce576001945083601f198116106113b5575b505050811b016014820155610e9c565b015160001960f88460031b161c191690553880806113a5565b8181015183556020948501946001909301929091019061138a565b015190503880610e22565b9250601384016000526020600020906000935b601f198416851061144b576001945083601f19811610611432575b505050811b016013820155610e3a565b015160001960f88460031b161c19169055388080611422565b81810151835560209485019460019093019290910190611407565b015190503880610dbe565b9250601284016000526020600020906000935b601f19841685106114c8576001945083601f198116106114af575b505050811b016012820155610dd6565b015160001960f88460031b161c1916905538808061149f565b81810151835560209485019460019093019290910190611484565b015190503880610d5a565b9250601184016000526020600020906000935b601f1984168510611545576001945083601f1981161061152c575b505050811b016011820155610d72565b015160001960f88460031b161c1916905538808061151c565b81810151835560209485019460019093019290910190611501565b015190503880610cf6565b9250601084016000526020600020906000935b601f19841685106115c2576001945083601f198116106115a9575b505050811b016010820155610d0e565b015160001960f88460031b161c19169055388080611599565b8181015183556020948501946001909301929091019061157e565b015190503880610c92565b9250600f84016000526020600020906000935b601f198416851061163f576001945083601f19811610611626575b505050811b01600f820155610caa565b015160001960f88460031b161c19169055388080611616565b818101518355602094850194600190930192909101906115fb565b015190503880610c2e565b9250600e84016000526020600020906000935b601f19841685106116bc576001945083601f198116106116a3575b505050811b01600e820155610c46565b015160001960f88460031b161c19169055388080611693565b81810151835560209485019460019093019290910190611678565b015190503880610bca565b9250600d84016000526020600020906000935b601f1984168510611739576001945083601f19811610611720575b505050811b01600d820155610be2565b015160001960f88460031b161c19169055388080611710565b818101518355602094850194600190930192909101906116f5565b015190503880610b66565b9250600c84016000526020600020906000935b601f19841685106117b6576001945083601f1981161061179d575b505050811b01600c820155610b7e565b015160001960f88460031b161c1916905538808061178d565b81810151835560209485019460019093019290910190611772565b015190503880610b02565b9250600b84016000526020600020906000935b601f1984168510611833576001945083601f1981161061181a575b505050811b01600b820155610b1a565b015160001960f88460031b161c1916905538808061180a565b818101518355602094850194600190930192909101906117ef565b015190503880610a9e565b9250600a84016000526020600020906000935b601f19841685106118b0576001945083601f19811610611897575b505050811b01600a820155610ab6565b015160001960f88460031b161c19169055388080611887565b8181015183556020948501946001909301929091019061186c565b015190503880610a3a565b9250600984016000526020600020906000935b601f198416851061192d576001945083601f19811610611914575b505050811b016009820155610a52565b015160001960f88460031b161c19169055388080611904565b818101518355602094850194600190930192909101906118e9565b0151905038806109d6565b9250600884016000526020600020906000935b601f19841685106119aa576001945083601f19811610611991575b505050811b0160088201556109ee565b015160001960f88460031b161c19169055388080611981565b81810151835560209485019460019093019290910190611966565b015190503880610972565b9250600784016000526020600020906000935b601f1984168510611a27576001945083601f19811610611a0e575b505050811b01600782015561098a565b015160001960f88460031b161c191690553880806119fe565b818101518355602094850194600190930192909101906119e3565b01519050388061090f565b9250600684016000526020600020906000935b601f1984168510611aa4576001945083601f19811610611a8b575b505050811b016006820155610927565b015160001960f88460031b161c19169055388080611a7b565b81810151835560209485019460019093019290910190611a60565b0151905038806108ac565b9250600584016000526020600020906000935b601f1984168510611b21576001945083601f19811610611b08575b505050811b0160058201556108c4565b015160001960f88460031b161c19169055388080611af8565b81810151835560209485019460019093019290910190611add565b015190503880610849565b9250600484016000526020600020906000935b601f1984168510611b9e576001945083601f19811610611b85575b505050811b016004820155610861565b015160001960f88460031b161c19169055388080611b75565b81810151835560209485019460019093019290910190611b5a565b0151905038806107e6565b9250600384016000526020600020906000935b601f1984168510611c1b576001945083601f19811610611c02575b505050811b0160038201556107fe565b015160001960f88460031b161c19169055388080611bf2565b81810151835560209485019460019093019290910190611bd7565b015190503880610783565b9250600284016000526020600020906000935b601f1984168510611c98576001945083601f19811610611c7f575b505050811b01600282015561079b565b015160001960f88460031b161c19169055388080611c6f565b81810151835560209485019460019093019290910190611c54565b015190503880610720565b9250600184016000526020600020906000935b601f1984168510611d15576001945083601f19811610611cfc575b505050811b016001820155610738565b015160001960f88460031b161c19169055388080611cec565b81810151835560209485019460019093019290910190611cd1565b0151905038806106c0565b9250836000526020600020906000935b601f1984168510611d8c576001945083601f19811610611d73575b505050811b0181556106d5565b015160001960f88460031b161c19169055388080611d66565b81810151835560209485019460019093019290910190611d4b565b60405162461bcd60e51b815260206004820152600b60248201526a139bdd081cdd195dd85c9960aa1b6044820152606490fd5b600080fd5b34611dda576020366003190112611dda576004356001600160401b038111611dda5736602382011215611dda573681600401359160240191611e2092612966565b6040518181809351602081930191611e37926128f1565b810160018152036020019020806102e052611e519061284b565b6102e051600101611e619061284b565b610680526102e051600201611e759061284b565b610540526102e051600301611e899061284b565b610380526102e051600401611e9d9061284b565b6102e051600501611ead9061284b565b6102e051600601611ebd9061284b565b6102e051600701611ecd9061284b565b6102e051600801611edd9061284b565b6102e051600901611eed9061284b565b6102e051600a01611efd9061284b565b916102e051600b01611f0e9061284b565b936102e051600c01611f1f9061284b565b956102e051600d01611f309061284b565b976102e051600e01611f419061284b565b996102e051600f01611f529061284b565b9b6102e051601001611f639061284b565b610460526102e051601101611f779061284b565b610300526102e051601201611f8b9061284b565b6101e0526102e051601301611f9f9061284b565b610360526102e051601401611fb39061284b565b610260526102e051601501611fc79061284b565b60c052604051806104a0526102c08091526104a05101611fe691612914565b6104a0518082039060200152610680519061200091612914565b6104a0518082039060400152610540519061201a91612914565b6104a0518082039060600152610380519061203491612914565b6104a051808203906080015261204991612914565b6104a0518082039060a0015261205e91612914565b6104a0518082039060c0015261207391612914565b6104a0518082039060e0015261208891612914565b6104a05180820390610100015261209e91612914565b6104a0518082039061012001526120b491612914565b6104a0518082039061014001526120ca91612914565b6104a0518082039061016001526120e091612914565b6104a0518082039061018001526120f691612914565b6104a051808203906101a0015261210c91612914565b6104a051808203906101c0015261212291612914565b6104a051808203906101e0015261213891612914565b6104a051808203906102000152610460519061215391612914565b6104a051808203906102200152610300519061216e91612914565b6104a0518082039061024001526101e0519061218991612914565b6104a05180820390610260015261036051906121a491612914565b6104a05180820390610280015261026051906121bf91612914565b6104a051808203906102a001526104a0519060c051906121de91612914565b036104a051f35b34611dda576000366003190112611dda576020600254604051908152f35b34611dda576020366003190112611dda576004356001600160401b038111611dda57612233903690600401612939565b906040516122408161280e565b60608152602081016060905260408101606090526060810160609052608081016060905260a081016060905260c081016060905260e08101606090526101008101606090526101208101606090526101408101606090526101608101606090526101808101606090526101a08101606090526101c08101606090526101e08101606090526102008101606090526102208101606090526102408101606090526102608101606090526102808101606090526102a001606090528160405192839283378101600181520360200190206040519061231b8261280e565b6123248161284b565b82526123326001820161284b565b60208301526123436002820161284b565b60408301526123546003820161284b565b60608301526123656004820161284b565b60808301526123766005820161284b565b60a08301526123876006820161284b565b60c08301526123986007820161284b565b60e08301526123a96008820161284b565b6101008301526123bb6009820161284b565b6101208301526123cd600a820161284b565b6101408301526123df600b820161284b565b6101608301526123f1600c820161284b565b610180830152612403600d820161284b565b6101a0830152612415600e820161284b565b6101c0830152612427600f820161284b565b6101e08301526124396010820161284b565b61020083015261244b6011820161284b565b61022083015261245d6012820161284b565b61024083015261246f6013820161284b565b6102608301526124816014820161284b565b6102808301526015016124939061284b565b6102a08201526040518091602082528051602083016102c090526102e083016124bb91612914565b6020820151838203601f190160408501526124d69190612914565b6040820151838203601f190160608501526124f19190612914565b6060820151838203601f1901608085015261250c9190612914565b6080820151838203601f190160a08501526125279190612914565b60a0820151838203601f190160c08501526125429190612914565b60c0820151838203601f190160e085015261255d9190612914565b60e0820151838203601f19016101008501526125799190612914565b610100820151838203601f19016101208501526125969190612914565b610120820151838203601f19016101408501526125b39190612914565b610140820151838203601f19016101608501526125d09190612914565b610160820151838203601f19016101808501526125ed9190612914565b610180820151838203601f19016101a085015261260a9190612914565b6101a0820151838203601f19016101c08501526126279190612914565b6101c0820151838203601f19016101e08501526126449190612914565b6101e0820151838203601f19016102008501526126619190612914565b610200820151838203601f190161022085015261267e9190612914565b610220820151838203601f190161024085015261269b9190612914565b610240820151838203601f19016102608501526126b89190612914565b610260820151838203601f19016102808501526126d59190612914565b610280820151838203601f19016102a08501526126f29190612914565b906102a0015190601f19838203016102c084015261270f91612914565b0390f35b34611dda576000366003190112611dda576000546040516001600160a01b039091168152602090f35b34611dda576020366003190112611dda57600435600254811015611dda5761276390612787565b6112db5761277361270f9161284b565b604051918291602083526020830190612914565b6002548110156127be5760026000527f405787fa12a823e0f2b7631cc41b3ba8828b3321ca811111fa75cd3aa3bb5ace0190600090565b634e487b7160e01b600052603260045260246000fd5b90600182811c92168015612804575b60208310146127ee57565b634e487b7160e01b600052602260045260246000fd5b91607f16916127e3565b6102c081019081106001600160401b038211176112c557604052565b90601f801991011681019081106001600160401b038211176112c557604052565b906040519182600082549261285f846127d4565b9081845260019485811690816000146128ce575060011461288b575b50506128899250038361282a565b565b9093915060005260209081600020936000915b8183106128b65750506128899350820101388061287b565b8554888401850152948501948794509183019161289e565b91505061288994506020925060ff191682840152151560051b820101388061287b565b60005b8381106129045750506000910152565b81810151838201526020016128f4565b9060209161292d815180928185528580860191016128f1565b601f01601f1916010190565b9181601f84011215611dda578235916001600160401b038311611dda5760208381860195010111611dda57565b9291926001600160401b0382116112c5576040519161298f601f8201601f19166020018461282a565b829481845281830111611dda578281602093846000960137010152565b90601f81116129ba57505050565b600091825260208220906020601f850160051c830194106129f6575b601f0160051c01915b8281106129eb57505050565b8181556001016129df565b90925082906129d6565b908060209392818452848401376000828201840152601f01601f191601019056fea2646970667358221220e8bb669eca4b1bc5c4801671b705171ef2572d9f4602250a22ba772f48c8981764736f6c63430008140033","opcodes":"PUSH1 0x80 DUP1 PUSH1 0x40 MSTORE CALLVALUE PUSH2 0x28 JUMPI PUSH1 0x0 DUP1 SLOAD PUSH1 0x1 PUSH1 0x1 PUSH1 0xA0 SHL SUB NOT AND CALLER OR SWAP1 SSTORE PUSH2 0x2A57 SWAP1 DUP2 PUSH2 0x2E DUP3 CODECOPY RETURN JUMPDEST PUSH1 0x0 DUP1 REVERT INVALID PUSH2 0x7E0 PUSH1 0x40 MSTORE PUSH1 0x4 CALLDATASIZE LT ISZERO PUSH2 0x13 JUMPI PUSH1 0x0 DUP1 REVERT JUMPDEST PUSH1 0x0 CALLDATALOAD PUSH1 0xE0 SHR DUP1 PUSH4 0xCB6AAF1 EQ PUSH2 0x273C JUMPI DUP1 PUSH4 0x637EEA19 EQ PUSH2 0x2713 JUMPI DUP1 PUSH4 0x83361522 EQ PUSH2 0x2203 JUMPI DUP1 PUSH4 0xC212D16B EQ PUSH2 0x21E5 JUMPI DUP1 PUSH4 0xDBC21424 EQ PUSH2 0x1DDF JUMPI PUSH4 0xDDE3D2EC EQ PUSH2 0x5F JUMPI PUSH1 0x0 DUP1 REVERT JUMPDEST CALLVALUE PUSH2 0x1DDA JUMPI PUSH2 0x2E0 CALLDATASIZE PUSH1 0x3 NOT ADD SLT PUSH2 0x1DDA JUMPI PUSH1 0x4 CALLDATALOAD PUSH1 0x1 PUSH1 0x1 PUSH1 0x40 SHL SUB DUP2 GT PUSH2 0x1DDA JUMPI PUSH2 0x90 SWAP1 CALLDATASIZE SWAP1 PUSH1 0x4 ADD PUSH2 0x2939 JUMP JUMPDEST PUSH2 0x620 MSTORE PUSH2 0x760 MSTORE PUSH1 0x24 CALLDATALOAD PUSH1 0x1 PUSH1 0x1 PUSH1 0x40 SHL SUB DUP2 GT PUSH2 0x1DDA JUMPI PUSH2 0xB7 SWAP1 CALLDATASIZE SWAP1 PUSH1 0x4 ADD PUSH2 0x2939 JUMP JUMPDEST PUSH2 0x440 MSTORE PUSH2 0x1A0 MSTORE PUSH1 0x44 CALLDATALOAD PUSH1 0x1 PUSH1 0x1 PUSH1 0x40 SHL SUB DUP2 GT PUSH2 0x1DDA JUMPI PUSH2 0xDE SWAP1 CALLDATASIZE SWAP1 PUSH1 0x4 ADD PUSH2 0x2939 JUMP JUMPDEST PUSH2 0x660 MSTORE PUSH2 0x2A0 MSTORE PUSH1 0x64 CALLDATALOAD PUSH1 0x1 PUSH1 0x1 PUSH1 0x40 SHL SUB DUP2 GT PUSH2 0x1DDA JUMPI PUSH2 0x105 SWAP1 CALLDATASIZE SWAP1 PUSH1 0x4 ADD PUSH2 0x2939 JUMP JUMPDEST PUSH2 0x100 MSTORE PUSH2 0x6E0 MSTORE PUSH1 0x1 PUSH1 0x1 PUSH1 0x40 SHL SUB PUSH1 0x84 CALLDATALOAD GT PUSH2 0x1DDA JUMPI PUSH2 0x12C CALLDATASIZE PUSH1 0x84 CALLDATALOAD PUSH1 0x4 ADD PUSH2 0x2939 JUMP JUMPDEST PUSH2 0x500 MSTORE PUSH1 0x80 MSTORE PUSH1 0x1 PUSH1 0x1 PUSH1 0x40 SHL SUB PUSH1 0xA4 CALLDATALOAD GT PUSH2 0x1DDA JUMPI PUSH2 0x152 CALLDATASIZE PUSH1 0xA4 CALLDATALOAD PUSH1 0x4 ADD PUSH2 0x2939 JUMP JUMPDEST PUSH2 0x2C0 MSTORE PUSH2 0x320 MSTORE PUSH1 0x1 PUSH1 0x1 PUSH1 0x40 SHL SUB PUSH1 0xC4 CALLDATALOAD GT PUSH2 0x1DDA JUMPI PUSH2 0x179 CALLDATASIZE PUSH1 0xC4 CALLDATALOAD PUSH1 0x4 ADD PUSH2 0x2939 JUMP JUMPDEST PUSH2 0x780 MSTORE PUSH2 0x120 MSTORE PUSH1 0x1 PUSH1 0x1 PUSH1 0x40 SHL SUB PUSH1 0xE4 CALLDATALOAD GT PUSH2 0x1DDA JUMPI PUSH2 0x1A0 CALLDATASIZE PUSH1 0xE4 CALLDATALOAD PUSH1 0x4 ADD PUSH2 0x2939 JUMP JUMPDEST PUSH2 0x580 MSTORE PUSH2 0x600 MSTORE PUSH1 0x1 PUSH1 0x1 PUSH1 0x40 SHL SUB PUSH2 0x104 CALLDATALOAD GT PUSH2 0x1DDA JUMPI PUSH2 0x1C9 CALLDATASIZE PUSH2 0x104 CALLDATALOAD PUSH1 0x4 ADD PUSH2 0x2939 JUMP JUMPDEST PUSH2 0x720 MSTORE PUSH2 0x220 MSTORE PUSH1 0x1 PUSH1 0x1 PUSH1 0x40 SHL SUB PUSH2 0x124 CALLDATALOAD GT PUSH2 0x1DDA JUMPI PUSH2 0x1F2 CALLDATASIZE PUSH2 0x124 CALLDATALOAD PUSH1 0x4 ADD PUSH2 0x2939 JUMP JUMPDEST PUSH2 0x5C0 MSTORE PUSH2 0x160 MSTORE PUSH1 0x1 PUSH1 0x1 PUSH1 0x40 SHL SUB PUSH2 0x144 CALLDATALOAD GT PUSH2 0x1DDA JUMPI PUSH2 0x21B CALLDATASIZE PUSH2 0x144 CALLDATALOAD PUSH1 0x4 ADD PUSH2 0x2939 JUMP JUMPDEST PUSH2 0x740 MSTORE PUSH2 0x7C0 MSTORE PUSH1 0x1 PUSH1 0x1 PUSH1 0x40 SHL SUB PUSH2 0x164 CALLDATALOAD GT PUSH2 0x1DDA JUMPI PUSH2 0x244 CALLDATASIZE PUSH2 0x164 CALLDATALOAD PUSH1 0x4 ADD PUSH2 0x2939 JUMP JUMPDEST PUSH2 0x6C0 MSTORE PUSH2 0x5A0 MSTORE PUSH1 0x1 PUSH1 0x1 PUSH1 0x40 SHL SUB PUSH2 0x184 CALLDATALOAD GT PUSH2 0x1DDA JUMPI PUSH2 0x26D CALLDATASIZE PUSH2 0x184 CALLDATALOAD PUSH1 0x4 ADD PUSH2 0x2939 JUMP JUMPDEST PUSH1 0xA0 MSTORE PUSH2 0x4E0 MSTORE PUSH1 0x1 PUSH1 0x1 PUSH1 0x40 SHL SUB PUSH2 0x1A4 CALLDATALOAD GT PUSH2 0x1DDA JUMPI PUSH2 0x295 CALLDATASIZE PUSH2 0x1A4 CALLDATALOAD PUSH1 0x4 ADD PUSH2 0x2939 JUMP JUMPDEST PUSH2 0x3E0 MSTORE PUSH2 0x4C0 MSTORE PUSH1 0x1 PUSH1 0x1 PUSH1 0x40 SHL SUB PUSH2 0x1C4 CALLDATALOAD GT PUSH2 0x1DDA JUMPI PUSH2 0x2BE CALLDATASIZE PUSH2 0x1C4 CALLDATALOAD PUSH1 0x4 ADD PUSH2 0x2939 JUMP JUMPDEST PUSH2 0x480 MSTORE PUSH2 0x7A0 MSTORE PUSH1 0x1 PUSH1 0x1 PUSH1 0x40 SHL SUB PUSH2 0x1E4 CALLDATALOAD GT PUSH2 0x1DDA JUMPI PUSH2 0x2E7 CALLDATASIZE PUSH2 0x1E4 CALLDATALOAD PUSH1 0x4 ADD PUSH2 0x2939 JUMP JUMPDEST PUSH2 0x640 MSTORE PUSH2 0x560 MSTORE PUSH1 0x1 PUSH1 0x1 PUSH1 0x40 SHL SUB PUSH2 0x204 CALLDATALOAD GT PUSH2 0x1DDA JUMPI PUSH2 0x310 CALLDATASIZE PUSH2 0x204 CALLDATALOAD PUSH1 0x4 ADD PUSH2 0x2939 JUMP JUMPDEST PUSH2 0x5E0 MSTORE PUSH2 0x240 MSTORE PUSH1 0x1 PUSH1 0x1 PUSH1 0x40 SHL SUB PUSH2 0x224 CALLDATALOAD GT PUSH2 0x1DDA JUMPI PUSH2 0x339 CALLDATASIZE PUSH2 0x224 CALLDATALOAD PUSH1 0x4 ADD PUSH2 0x2939 JUMP JUMPDEST PUSH2 0x3C0 MSTORE PUSH2 0x700 MSTORE PUSH1 0x1 PUSH1 0x1 PUSH1 0x40 SHL SUB PUSH2 0x244 CALLDATALOAD GT PUSH2 0x1DDA JUMPI PUSH2 0x362 CALLDATASIZE PUSH2 0x244 CALLDATALOAD PUSH1 0x4 ADD PUSH2 0x2939 JUMP JUMPDEST PUSH2 0x3A0 MSTORE PUSH2 0x520 MSTORE PUSH1 0x1 PUSH1 0x1 PUSH1 0x40 SHL SUB PUSH2 0x264 CALLDATALOAD GT PUSH2 0x1DDA JUMPI PUSH2 0x38B CALLDATASIZE PUSH2 0x264 CALLDATALOAD PUSH1 0x4 ADD PUSH2 0x2939 JUMP JUMPDEST PUSH2 0x1C0 MSTORE PUSH2 0x340 MSTORE PUSH1 0x1 PUSH1 0x1 PUSH1 0x40 SHL SUB PUSH2 0x284 CALLDATALOAD GT PUSH2 0x1DDA JUMPI PUSH2 0x3B4 CALLDATASIZE PUSH2 0x284 CALLDATALOAD PUSH1 0x4 ADD PUSH2 0x2939 JUMP JUMPDEST PUSH1 0xE0 MSTORE PUSH2 0x6A0 MSTORE PUSH1 0x1 PUSH1 0x1 PUSH1 0x40 SHL SUB PUSH2 0x2A4 CALLDATALOAD GT PUSH2 0x1DDA JUMPI PUSH2 0x3DC CALLDATASIZE PUSH2 0x2A4 CALLDATALOAD PUSH1 0x4 ADD PUSH2 0x2939 JUMP JUMPDEST PUSH2 0x420 MSTORE PUSH2 0x140 MSTORE PUSH1 0x1 PUSH1 0x1 PUSH1 0x40 SHL SUB PUSH2 0x2C4 CALLDATALOAD GT PUSH2 0x1DDA JUMPI PUSH2 0x405 CALLDATASIZE PUSH2 0x2C4 CALLDATALOAD PUSH1 0x4 ADD PUSH2 0x2939 JUMP JUMPDEST PUSH2 0x400 MSTORE PUSH2 0x180 MSTORE PUSH1 0x0 SLOAD PUSH1 0x1 PUSH1 0x1 PUSH1 0xA0 SHL SUB AND CALLER SUB PUSH2 0x1DA7 JUMPI PUSH2 0x42F PUSH1 0x40 MLOAD DUP1 PUSH2 0x280 MSTORE PUSH2 0x280E JUMP JUMPDEST PUSH2 0x440 CALLDATASIZE PUSH2 0x440 MLOAD PUSH2 0x1A0 MLOAD PUSH2 0x2966 JUMP JUMPDEST PUSH2 0x280 MLOAD MSTORE PUSH2 0x456 CALLDATASIZE PUSH2 0x660 MLOAD PUSH2 0x2A0 MLOAD PUSH2 0x2966 JUMP JUMPDEST PUSH1 0x20 PUSH2 0x280 MLOAD ADD MSTORE PUSH2 0x46F CALLDATASIZE PUSH2 0x100 MLOAD PUSH2 0x6E0 MLOAD PUSH2 0x2966 JUMP JUMPDEST PUSH1 0x40 PUSH2 0x280 MLOAD ADD MSTORE PUSH2 0x487 CALLDATASIZE PUSH2 0x500 MLOAD PUSH1 0x80 MLOAD PUSH2 0x2966 JUMP JUMPDEST PUSH1 0x60 PUSH2 0x280 MLOAD ADD MSTORE PUSH2 0x4A0 CALLDATASIZE PUSH2 0x2C0 MLOAD PUSH2 0x320 MLOAD PUSH2 0x2966 JUMP JUMPDEST PUSH1 0x80 PUSH2 0x280 MLOAD ADD MSTORE PUSH2 0x4B9 CALLDATASIZE PUSH2 0x780 MLOAD PUSH2 0x120 MLOAD PUSH2 0x2966 JUMP JUMPDEST PUSH1 0xA0 PUSH2 0x280 MLOAD ADD MSTORE PUSH2 0x4D2 CALLDATASIZE PUSH2 0x580 MLOAD PUSH2 0x600 MLOAD PUSH2 0x2966 JUMP JUMPDEST PUSH1 0xC0 PUSH2 0x280 MLOAD ADD MSTORE PUSH2 0x4EB CALLDATASIZE PUSH2 0x720 MLOAD PUSH2 0x220 MLOAD PUSH2 0x2966 JUMP JUMPDEST PUSH1 0xE0 PUSH2 0x280 MLOAD ADD MSTORE PUSH2 0x504 CALLDATASIZE PUSH2 0x5C0 MLOAD PUSH2 0x160 MLOAD PUSH2 0x2966 JUMP JUMPDEST PUSH2 0x100 PUSH2 0x280 MLOAD ADD MSTORE PUSH2 0x51E CALLDATASIZE PUSH2 0x740 MLOAD PUSH2 0x7C0 MLOAD PUSH2 0x2966 JUMP JUMPDEST PUSH2 0x120 PUSH2 0x280 MLOAD ADD MSTORE PUSH2 0x538 CALLDATASIZE PUSH2 0x6C0 MLOAD PUSH2 0x5A0 MLOAD PUSH2 0x2966 JUMP JUMPDEST PUSH2 0x140 PUSH2 0x280 MLOAD ADD MSTORE PUSH2 0x551 CALLDATASIZE PUSH1 0xA0 MLOAD PUSH2 0x4E0 MLOAD PUSH2 0x2966 JUMP JUMPDEST PUSH2 0x160 PUSH2 0x280 MLOAD ADD MSTORE PUSH2 0x56B CALLDATASIZE PUSH2 0x3E0 MLOAD PUSH2 0x4C0 MLOAD PUSH2 0x2966 JUMP JUMPDEST PUSH2 0x180 PUSH2 0x280 MLOAD ADD MSTORE PUSH2 0x585 CALLDATASIZE PUSH2 0x480 MLOAD PUSH2 0x7A0 MLOAD PUSH2 0x2966 JUMP JUMPDEST PUSH2 0x1A0 PUSH2 0x280 MLOAD ADD MSTORE PUSH2 0x59F CALLDATASIZE PUSH2 0x640 MLOAD PUSH2 0x560 MLOAD PUSH2 0x2966 JUMP JUMPDEST PUSH2 0x1C0 PUSH2 0x280 MLOAD ADD MSTORE PUSH2 0x5B9 CALLDATASIZE PUSH2 0x5E0 MLOAD PUSH2 0x240 MLOAD PUSH2 0x2966 JUMP JUMPDEST PUSH2 0x1E0 PUSH2 0x280 MLOAD ADD MSTORE PUSH2 0x5D3 CALLDATASIZE PUSH2 0x3C0 MLOAD PUSH2 0x700 MLOAD PUSH2 0x2966 JUMP JUMPDEST PUSH2 0x200 PUSH2 0x280 MLOAD ADD MSTORE PUSH2 0x5ED CALLDATASIZE PUSH2 0x3A0 MLOAD PUSH2 0x520 MLOAD PUSH2 0x2966 JUMP JUMPDEST PUSH2 0x220 PUSH2 0x280 MLOAD ADD MSTORE PUSH2 0x607 CALLDATASIZE PUSH2 0x1C0 MLOAD PUSH2 0x340 MLOAD PUSH2 0x2966 JUMP JUMPDEST PUSH2 0x240 PUSH2 0x280 MLOAD ADD MSTORE PUSH2 0x620 CALLDATASIZE PUSH1 0xE0 MLOAD PUSH2 0x6A0 MLOAD PUSH2 0x2966 JUMP JUMPDEST PUSH2 0x260 PUSH2 0x280 MLOAD ADD MSTORE PUSH2 0x63A CALLDATASIZE PUSH2 0x420 MLOAD PUSH2 0x140 MLOAD PUSH2 0x2966 JUMP JUMPDEST PUSH2 0x280 DUP1 MLOAD ADD MSTORE PUSH2 0x652 CALLDATASIZE PUSH2 0x400 MLOAD PUSH2 0x180 MLOAD PUSH2 0x2966 JUMP JUMPDEST PUSH2 0x2A0 PUSH2 0x280 MLOAD ADD MSTORE PUSH1 0x40 MLOAD PUSH2 0x620 MLOAD PUSH2 0x760 MLOAD DUP3 CALLDATACOPY PUSH1 0x1 PUSH2 0x620 MLOAD DUP3 ADD MSTORE PUSH1 0x20 DUP2 PUSH2 0x620 MLOAD DUP2 ADD SUB ADD SWAP1 KECCAK256 PUSH2 0x280 MLOAD MLOAD DUP1 MLOAD SWAP1 PUSH1 0x1 PUSH1 0x1 PUSH1 0x40 SHL SUB DUP3 GT PUSH2 0x12C5 JUMPI DUP2 SWAP1 PUSH2 0x6AA DUP3 PUSH2 0x6A4 DUP7 SLOAD PUSH2 0x27D4 JUMP JUMPDEST DUP7 PUSH2 0x29AC JUMP JUMPDEST PUSH1 0x20 SWAP1 PUSH1 0x1F DUP4 GT PUSH1 0x1 EQ PUSH2 0x1D3B JUMPI PUSH1 0x0 SWAP3 PUSH2 0x1D30 JUMPI JUMPDEST POP POP DUP2 PUSH1 0x1 SHL SWAP2 PUSH1 0x0 NOT SWAP1 PUSH1 0x3 SHL SHR NOT AND OR DUP2 SSTORE JUMPDEST PUSH1 0x20 PUSH2 0x280 MLOAD ADD MLOAD DUP1 MLOAD SWAP1 PUSH1 0x1 PUSH1 0x1 PUSH1 0x40 SHL SUB DUP3 GT PUSH2 0x12C5 JUMPI DUP2 SWAP1 PUSH2 0x70A DUP3 PUSH2 0x701 PUSH1 0x1 DUP8 ADD SLOAD PUSH2 0x27D4 JUMP JUMPDEST PUSH1 0x1 DUP8 ADD PUSH2 0x29AC JUMP JUMPDEST PUSH1 0x20 SWAP1 PUSH1 0x1F DUP4 GT PUSH1 0x1 EQ PUSH2 0x1CBE JUMPI PUSH1 0x0 SWAP3 PUSH2 0x1CB3 JUMPI JUMPDEST POP POP DUP2 PUSH1 0x1 SHL SWAP2 PUSH1 0x0 NOT SWAP1 PUSH1 0x3 SHL SHR NOT AND OR PUSH1 0x1 DUP3 ADD SSTORE JUMPDEST PUSH1 0x40 PUSH2 0x280 MLOAD ADD MLOAD DUP1 MLOAD SWAP1 PUSH1 0x1 PUSH1 0x1 PUSH1 0x40 SHL SUB DUP3 GT PUSH2 0x12C5 JUMPI DUP2 SWAP1 PUSH2 0x76D DUP3 PUSH2 0x764 PUSH1 0x2 DUP8 ADD SLOAD PUSH2 0x27D4 JUMP JUMPDEST PUSH1 0x2 DUP8 ADD PUSH2 0x29AC JUMP JUMPDEST PUSH1 0x20 SWAP1 PUSH1 0x1F DUP4 GT PUSH1 0x1 EQ PUSH2 0x1C41 JUMPI PUSH1 0x0 SWAP3 PUSH2 0x1C36 JUMPI JUMPDEST POP POP DUP2 PUSH1 0x1 SHL SWAP2 PUSH1 0x0 NOT SWAP1 PUSH1 0x3 SHL SHR NOT AND OR PUSH1 0x2 DUP3 ADD SSTORE JUMPDEST PUSH1 0x60 PUSH2 0x280 MLOAD ADD MLOAD DUP1 MLOAD SWAP1 PUSH1 0x1 PUSH1 0x1 PUSH1 0x40 SHL SUB DUP3 GT PUSH2 0x12C5 JUMPI DUP2 SWAP1 PUSH2 0x7D0 DUP3 PUSH2 0x7C7 PUSH1 0x3 DUP8 ADD SLOAD PUSH2 0x27D4 JUMP JUMPDEST PUSH1 0x3 DUP8 ADD PUSH2 0x29AC JUMP JUMPDEST PUSH1 0x20 SWAP1 PUSH1 0x1F DUP4 GT PUSH1 0x1 EQ PUSH2 0x1BC4 JUMPI PUSH1 0x0 SWAP3 PUSH2 0x1BB9 JUMPI JUMPDEST POP POP DUP2 PUSH1 0x1 SHL SWAP2 PUSH1 0x0 NOT SWAP1 PUSH1 0x3 SHL SHR NOT AND OR PUSH1 0x3 DUP3 ADD SSTORE JUMPDEST PUSH1 0x80 PUSH2 0x280 MLOAD ADD MLOAD DUP1 MLOAD SWAP1 PUSH1 0x1 PUSH1 0x1 PUSH1 0x40 SHL SUB DUP3 GT PUSH2 0x12C5 JUMPI DUP2 SWAP1 PUSH2 0x833 DUP3 PUSH2 0x82A PUSH1 0x4 DUP8 ADD SLOAD PUSH2 0x27D4 JUMP JUMPDEST PUSH1 0x4 DUP8 ADD PUSH2 0x29AC JUMP JUMPDEST PUSH1 0x20 SWAP1 PUSH1 0x1F DUP4 GT PUSH1 0x1 EQ PUSH2 0x1B47 JUMPI PUSH1 0x0 SWAP3 PUSH2 0x1B3C JUMPI JUMPDEST POP POP DUP2 PUSH1 0x1 SHL SWAP2 PUSH1 0x0 NOT SWAP1 PUSH1 0x3 SHL SHR NOT AND OR PUSH1 0x4 DUP3 ADD SSTORE JUMPDEST PUSH1 0xA0 PUSH2 0x280 MLOAD ADD MLOAD DUP1 MLOAD SWAP1 PUSH1 0x1 PUSH1 0x1 PUSH1 0x40 SHL SUB DUP3 GT PUSH2 0x12C5 JUMPI DUP2 SWAP1 PUSH2 0x896 DUP3 PUSH2 0x88D PUSH1 0x5 DUP8 ADD SLOAD PUSH2 0x27D4 JUMP JUMPDEST PUSH1 0x5 DUP8 ADD PUSH2 0x29AC JUMP JUMPDEST PUSH1 0x20 SWAP1 PUSH1 0x1F DUP4 GT PUSH1 0x1 EQ PUSH2 0x1ACA JUMPI PUSH1 0x0 SWAP3 PUSH2 0x1ABF JUMPI JUMPDEST POP POP DUP2 PUSH1 0x1 SHL SWAP2 PUSH1 0x0 NOT SWAP1 PUSH1 0x3 SHL SHR NOT AND OR PUSH1 0x5 DUP3 ADD SSTORE JUMPDEST PUSH1 0xC0 PUSH2 0x280 MLOAD ADD MLOAD DUP1 MLOAD SWAP1 PUSH1 0x1 PUSH1 0x1 PUSH1 0x40 SHL SUB DUP3 GT PUSH2 0x12C5 JUMPI DUP2 SWAP1 PUSH2 0x8F9 DUP3 PUSH2 0x8F0 PUSH1 0x6 DUP8 ADD SLOAD PUSH2 0x27D4 JUMP JUMPDEST PUSH1 0x6 DUP8 ADD PUSH2 0x29AC JUMP JUMPDEST PUSH1 0x20 SWAP1 PUSH1 0x1F DUP4 GT PUSH1 0x1 EQ PUSH2 0x1A4D JUMPI PUSH1 0x0 SWAP3 PUSH2 0x1A42 JUMPI JUMPDEST POP POP DUP2 PUSH1 0x1 SHL SWAP2 PUSH1 0x0 NOT SWAP1 PUSH1 0x3 SHL SHR NOT AND OR PUSH1 0x6 DUP3 ADD SSTORE JUMPDEST PUSH1 0xE0 PUSH2 0x280 MLOAD ADD MLOAD DUP1 MLOAD SWAP1 PUSH1 0x1 PUSH1 0x1 PUSH1 0x40 SHL SUB DUP3 GT PUSH2 0x12C5 JUMPI DUP2 SWAP1 PUSH2 0x95C DUP3 PUSH2 0x953 PUSH1 0x7 DUP8 ADD SLOAD PUSH2 0x27D4 JUMP JUMPDEST PUSH1 0x7 DUP8 ADD PUSH2 0x29AC JUMP JUMPDEST PUSH1 0x20 SWAP1 PUSH1 0x1F DUP4 GT PUSH1 0x1 EQ PUSH2 0x19D0 JUMPI PUSH1 0x0 SWAP3 PUSH2 0x19C5 JUMPI JUMPDEST POP POP DUP2 PUSH1 0x1 SHL SWAP2 PUSH1 0x0 NOT SWAP1 PUSH1 0x3 SHL SHR NOT AND OR PUSH1 0x7 DUP3 ADD SSTORE JUMPDEST PUSH2 0x100 PUSH2 0x280 MLOAD ADD MLOAD DUP1 MLOAD SWAP1 PUSH1 0x1 PUSH1 0x1 PUSH1 0x40 SHL SUB DUP3 GT PUSH2 0x12C5 JUMPI DUP2 SWAP1 PUSH2 0x9C0 DUP3 PUSH2 0x9B7 PUSH1 0x8 DUP8 ADD SLOAD PUSH2 0x27D4 JUMP JUMPDEST PUSH1 0x8 DUP8 ADD PUSH2 0x29AC JUMP JUMPDEST PUSH1 0x20 SWAP1 PUSH1 0x1F DUP4 GT PUSH1 0x1 EQ PUSH2 0x1953 JUMPI PUSH1 0x0 SWAP3 PUSH2 0x1948 JUMPI JUMPDEST POP POP DUP2 PUSH1 0x1 SHL SWAP2 PUSH1 0x0 NOT SWAP1 PUSH1 0x3 SHL SHR NOT AND OR PUSH1 0x8 DUP3 ADD SSTORE JUMPDEST PUSH2 0x120 PUSH2 0x280 MLOAD ADD MLOAD DUP1 MLOAD SWAP1 PUSH1 0x1 PUSH1 0x1 PUSH1 0x40 SHL SUB DUP3 GT PUSH2 0x12C5 JUMPI DUP2 SWAP1 PUSH2 0xA24 DUP3 PUSH2 0xA1B PUSH1 0x9 DUP8 ADD SLOAD PUSH2 0x27D4 JUMP JUMPDEST PUSH1 0x9 DUP8 ADD PUSH2 0x29AC JUMP JUMPDEST PUSH1 0x20 SWAP1 PUSH1 0x1F DUP4 GT PUSH1 0x1 EQ PUSH2 0x18D6 JUMPI PUSH1 0x0 SWAP3 PUSH2 0x18CB JUMPI JUMPDEST POP POP DUP2 PUSH1 0x1 SHL SWAP2 PUSH1 0x0 NOT SWAP1 PUSH1 0x3 SHL SHR NOT AND OR PUSH1 0x9 DUP3 ADD SSTORE JUMPDEST PUSH2 0x140 PUSH2 0x280 MLOAD ADD MLOAD DUP1 MLOAD SWAP1 PUSH1 0x1 PUSH1 0x1 PUSH1 0x40 SHL SUB DUP3 GT PUSH2 0x12C5 JUMPI DUP2 SWAP1 PUSH2 0xA88 DUP3 PUSH2 0xA7F PUSH1 0xA DUP8 ADD SLOAD PUSH2 0x27D4 JUMP JUMPDEST PUSH1 0xA DUP8 ADD PUSH2 0x29AC JUMP JUMPDEST PUSH1 0x20 SWAP1 PUSH1 0x1F DUP4 GT PUSH1 0x1 EQ PUSH2 0x1859 JUMPI PUSH1 0x0 SWAP3 PUSH2 0x184E JUMPI JUMPDEST POP POP DUP2 PUSH1 0x1 SHL SWAP2 PUSH1 0x0 NOT SWAP1 PUSH1 0x3 SHL SHR NOT AND OR PUSH1 0xA DUP3 ADD SSTORE JUMPDEST PUSH2 0x160 PUSH2 0x280 MLOAD ADD MLOAD DUP1 MLOAD SWAP1 PUSH1 0x1 PUSH1 0x1 PUSH1 0x40 SHL SUB DUP3 GT PUSH2 0x12C5 JUMPI DUP2 SWAP1 PUSH2 0xAEC DUP3 PUSH2 0xAE3 PUSH1 0xB DUP8 ADD SLOAD PUSH2 0x27D4 JUMP JUMPDEST PUSH1 0xB DUP8 ADD PUSH2 0x29AC JUMP JUMPDEST PUSH1 0x20 SWAP1 PUSH1 0x1F DUP4 GT PUSH1 0x1 EQ PUSH2 0x17DC JUMPI PUSH1 0x0 SWAP3 PUSH2 0x17D1 JUMPI JUMPDEST POP POP DUP2 PUSH1 0x1 SHL SWAP2 PUSH1 0x0 NOT SWAP1 PUSH1 0x3 SHL SHR NOT AND OR PUSH1 0xB DUP3 ADD SSTORE JUMPDEST PUSH2 0x180 PUSH2 0x280 MLOAD ADD MLOAD DUP1 MLOAD SWAP1 PUSH1 0x1 PUSH1 0x1 PUSH1 0x40 SHL SUB DUP3 GT PUSH2 0x12C5 JUMPI DUP2 SWAP1 PUSH2 0xB50 DUP3 PUSH2 0xB47 PUSH1 0xC DUP8 ADD SLOAD PUSH2 0x27D4 JUMP JUMPDEST PUSH1 0xC DUP8 ADD PUSH2 0x29AC JUMP JUMPDEST PUSH1 0x20 SWAP1 PUSH1 0x1F DUP4 GT PUSH1 0x1 EQ PUSH2 0x175F JUMPI PUSH1 0x0 SWAP3 PUSH2 0x1754 JUMPI JUMPDEST POP POP DUP2 PUSH1 0x1 SHL SWAP2 PUSH1 0x0 NOT SWAP1 PUSH1 0x3 SHL SHR NOT AND OR PUSH1 0xC DUP3 ADD SSTORE JUMPDEST PUSH2 0x1A0 PUSH2 0x280 MLOAD ADD MLOAD DUP1 MLOAD SWAP1 PUSH1 0x1 PUSH1 0x1 PUSH1 0x40 SHL SUB DUP3 GT PUSH2 0x12C5 JUMPI DUP2 SWAP1 PUSH2 0xBB4 DUP3 PUSH2 0xBAB PUSH1 0xD DUP8 ADD SLOAD PUSH2 0x27D4 JUMP JUMPDEST PUSH1 0xD DUP8 ADD PUSH2 0x29AC JUMP JUMPDEST PUSH1 0x20 SWAP1 PUSH1 0x1F DUP4 GT PUSH1 0x1 EQ PUSH2 0x16E2 JUMPI PUSH1 0x0 SWAP3 PUSH2 0x16D7 JUMPI JUMPDEST POP POP DUP2 PUSH1 0x1 SHL SWAP2 PUSH1 0x0 NOT SWAP1 PUSH1 0x3 SHL SHR NOT AND OR PUSH1 0xD DUP3 ADD SSTORE JUMPDEST PUSH2 0x1C0 PUSH2 0x280 MLOAD ADD MLOAD DUP1 MLOAD SWAP1 PUSH1 0x1 PUSH1 0x1 PUSH1 0x40 SHL SUB DUP3 GT PUSH2 0x12C5 JUMPI DUP2 SWAP1 PUSH2 0xC18 DUP3 PUSH2 0xC0F PUSH1 0xE DUP8 ADD SLOAD PUSH2 0x27D4 JUMP JUMPDEST PUSH1 0xE DUP8 ADD PUSH2 0x29AC JUMP JUMPDEST PUSH1 0x20 SWAP1 PUSH1 0x1F DUP4 GT PUSH1 0x1 EQ PUSH2 0x1665 JUMPI PUSH1 0x0 SWAP3 PUSH2 0x165A JUMPI JUMPDEST POP POP DUP2 PUSH1 0x1 SHL SWAP2 PUSH1 0x0 NOT SWAP1 PUSH1 0x3 SHL SHR NOT AND OR PUSH1 0xE DUP3 ADD SSTORE JUMPDEST PUSH2 0x1E0 PUSH2 0x280 MLOAD ADD MLOAD DUP1 MLOAD SWAP1 PUSH1 0x1 PUSH1 0x1 PUSH1 0x40 SHL SUB DUP3 GT PUSH2 0x12C5 JUMPI DUP2 SWAP1 PUSH2 0xC7C DUP3 PUSH2 0xC73 PUSH1 0xF DUP8 ADD SLOAD PUSH2 0x27D4 JUMP JUMPDEST PUSH1 0xF DUP8 ADD PUSH2 0x29AC JUMP JUMPDEST PUSH1 0x20 SWAP1 PUSH1 0x1F DUP4 GT PUSH1 0x1 EQ PUSH2 0x15E8 JUMPI PUSH1 0x0 SWAP3 PUSH2 0x15DD JUMPI JUMPDEST POP POP DUP2 PUSH1 0x1 SHL SWAP2 PUSH1 0x0 NOT SWAP1 PUSH1 0x3 SHL SHR NOT AND OR PUSH1 0xF DUP3 ADD SSTORE JUMPDEST PUSH2 0x200 PUSH2 0x280 MLOAD ADD MLOAD DUP1 MLOAD SWAP1 PUSH1 0x1 PUSH1 0x1 PUSH1 0x40 SHL SUB DUP3 GT PUSH2 0x12C5 JUMPI DUP2 SWAP1 PUSH2 0xCE0 DUP3 PUSH2 0xCD7 PUSH1 0x10 DUP8 ADD SLOAD PUSH2 0x27D4 JUMP JUMPDEST PUSH1 0x10 DUP8 ADD PUSH2 0x29AC JUMP JUMPDEST PUSH1 0x20 SWAP1 PUSH1 0x1F DUP4 GT PUSH1 0x1 EQ PUSH2 0x156B JUMPI PUSH1 0x0 SWAP3 PUSH2 0x1560 JUMPI JUMPDEST POP POP DUP2 PUSH1 0x1 SHL SWAP2 PUSH1 0x0 NOT SWAP1 PUSH1 0x3 SHL SHR NOT AND OR PUSH1 0x10 DUP3 ADD SSTORE JUMPDEST PUSH2 0x220 PUSH2 0x280 MLOAD ADD MLOAD DUP1 MLOAD SWAP1 PUSH1 0x1 PUSH1 0x1 PUSH1 0x40 SHL SUB DUP3 GT PUSH2 0x12C5 JUMPI DUP2 SWAP1 PUSH2 0xD44 DUP3 PUSH2 0xD3B PUSH1 0x11 DUP8 ADD SLOAD PUSH2 0x27D4 JUMP JUMPDEST PUSH1 0x11 DUP8 ADD PUSH2 0x29AC JUMP JUMPDEST PUSH1 0x20 SWAP1 PUSH1 0x1F DUP4 GT PUSH1 0x1 EQ PUSH2 0x14EE JUMPI PUSH1 0x0 SWAP3 PUSH2 0x14E3 JUMPI JUMPDEST POP POP DUP2 PUSH1 0x1 SHL SWAP2 PUSH1 0x0 NOT SWAP1 PUSH1 0x3 SHL SHR NOT AND OR PUSH1 0x11 DUP3 ADD SSTORE JUMPDEST PUSH2 0x240 PUSH2 0x280 MLOAD ADD MLOAD DUP1 MLOAD SWAP1 PUSH1 0x1 PUSH1 0x1 PUSH1 0x40 SHL SUB DUP3 GT PUSH2 0x12C5 JUMPI DUP2 SWAP1 PUSH2 0xDA8 DUP3 PUSH2 0xD9F PUSH1 0x12 DUP8 ADD SLOAD PUSH2 0x27D4 JUMP JUMPDEST PUSH1 0x12 DUP8 ADD PUSH2 0x29AC JUMP JUMPDEST PUSH1 0x20 SWAP1 PUSH1 0x1F DUP4 GT PUSH1 0x1 EQ PUSH2 0x1471 JUMPI PUSH1 0x0 SWAP3 PUSH2 0x1466 JUMPI JUMPDEST POP POP DUP2 PUSH1 0x1 SHL SWAP2 PUSH1 0x0 NOT SWAP1 PUSH1 0x3 SHL SHR NOT AND OR PUSH1 0x12 DUP3 ADD SSTORE JUMPDEST PUSH2 0x260 PUSH2 0x280 MLOAD ADD MLOAD DUP1 MLOAD SWAP1 PUSH1 0x1 PUSH1 0x1 PUSH1 0x40 SHL SUB DUP3 GT PUSH2 0x12C5 JUMPI DUP2 SWAP1 PUSH2 0xE0C DUP3 PUSH2 0xE03 PUSH1 0x13 DUP8 ADD SLOAD PUSH2 0x27D4 JUMP JUMPDEST PUSH1 0x13 DUP8 ADD PUSH2 0x29AC JUMP JUMPDEST PUSH1 0x20 SWAP1 PUSH1 0x1F DUP4 GT PUSH1 0x1 EQ PUSH2 0x13F4 JUMPI PUSH1 0x0 SWAP3 PUSH2 0x13E9 JUMPI JUMPDEST POP POP DUP2 PUSH1 0x1 SHL SWAP2 PUSH1 0x0 NOT SWAP1 PUSH1 0x3 SHL SHR NOT AND OR PUSH1 0x13 DUP3 ADD SSTORE JUMPDEST PUSH2 0x280 DUP1 MLOAD ADD MLOAD DUP1 MLOAD SWAP1 PUSH1 0x1 PUSH1 0x1 PUSH1 0x40 SHL SUB DUP3 GT PUSH2 0x12C5 JUMPI DUP2 SWAP1 PUSH2 0xE6E DUP3 PUSH2 0xE65 PUSH1 0x14 DUP8 ADD SLOAD PUSH2 0x27D4 JUMP JUMPDEST PUSH1 0x14 DUP8 ADD PUSH2 0x29AC JUMP JUMPDEST PUSH1 0x20 SWAP1 PUSH1 0x1F DUP4 GT PUSH1 0x1 EQ PUSH2 0x1377 JUMPI PUSH1 0x0 SWAP3 PUSH2 0x136C JUMPI JUMPDEST POP POP DUP2 PUSH1 0x1 SHL SWAP2 PUSH1 0x0 NOT SWAP1 PUSH1 0x3 SHL SHR NOT AND OR PUSH1 0x14 DUP3 ADD SSTORE JUMPDEST PUSH2 0x2A0 PUSH2 0x280 MLOAD ADD MLOAD DUP1 MLOAD SWAP1 PUSH1 0x1 PUSH1 0x1 PUSH1 0x40 SHL SUB DUP3 GT PUSH2 0x12C5 JUMPI PUSH2 0xED0 DUP3 PUSH2 0xEC7 PUSH1 0x15 DUP7 ADD SLOAD PUSH2 0x27D4 JUMP JUMPDEST PUSH1 0x15 DUP7 ADD PUSH2 0x29AC JUMP JUMPDEST PUSH1 0x20 SWAP1 PUSH1 0x1F DUP4 GT PUSH1 0x1 EQ PUSH2 0x12FC JUMPI PUSH1 0x15 SWAP3 SWAP2 PUSH1 0x0 SWAP2 DUP4 PUSH2 0x12F1 JUMPI JUMPDEST POP POP DUP2 PUSH1 0x1 SHL SWAP2 PUSH1 0x0 NOT SWAP1 PUSH1 0x3 SHL SHR NOT AND OR SWAP2 ADD SSTORE JUMPDEST PUSH1 0x2 SLOAD PUSH9 0x10000000000000000 DUP2 LT ISZERO PUSH2 0x12C5 JUMPI DUP1 PUSH1 0x1 PUSH2 0xF25 SWAP3 ADD PUSH1 0x2 SSTORE PUSH2 0x2787 JUMP JUMPDEST PUSH2 0x12DB JUMPI PUSH2 0x620 MLOAD PUSH1 0x1 PUSH1 0x1 PUSH1 0x40 SHL SUB DUP2 GT PUSH2 0x12C5 JUMPI PUSH2 0xF4F SWAP1 PUSH2 0xF49 DUP4 SLOAD PUSH2 0x27D4 JUMP JUMPDEST DUP4 PUSH2 0x29AC JUMP JUMPDEST PUSH1 0x0 SWAP1 PUSH2 0x620 MLOAD PUSH1 0x1F DUP2 GT PUSH1 0x1 EQ PUSH2 0x1258 JUMPI POP SWAP1 PUSH1 0x0 PUSH2 0x620 MLOAD SWAP2 DUP3 PUSH2 0x124A JUMPI JUMPDEST POP DUP2 PUSH1 0x1 SHL SWAP2 PUSH1 0x0 NOT SWAP1 PUSH1 0x3 SHL SHR NOT AND OR SWAP1 SSTORE JUMPDEST PUSH2 0x2E0 PUSH1 0x40 MLOAD DUP1 PUSH2 0x200 MSTORE MSTORE PUSH32 0x2B56E80E35952C5261B037970A379A845CC0C90DCA0C16268537B7C399FF4341 PUSH2 0x1220 PUSH2 0x1206 PUSH2 0x11ED PUSH2 0x11D3 PUSH2 0x11B9 PUSH2 0x119F PUSH2 0x1185 PUSH2 0x116B PUSH2 0x1151 PUSH2 0x1137 PUSH2 0x111E PUSH2 0x1104 PUSH2 0x10EA PUSH2 0x10D0 PUSH2 0x10B6 PUSH2 0x109D PUSH2 0x1084 PUSH2 0x106B PUSH2 0x1053 PUSH2 0x103A PUSH2 0x1021 PUSH2 0x1008 PUSH2 0x2E0 PUSH2 0x200 MLOAD ADD PUSH2 0x620 MLOAD PUSH2 0x760 MLOAD PUSH2 0x2A00 JUMP JUMPDEST PUSH2 0x200 MLOAD PUSH1 0x20 DUP2 DUP4 SUB SWAP2 ADD MSTORE PUSH2 0x440 MLOAD PUSH2 0x1A0 MLOAD PUSH2 0x2A00 JUMP JUMPDEST PUSH2 0x200 MLOAD PUSH1 0x40 DUP2 DUP4 SUB SWAP2 ADD MSTORE PUSH2 0x660 MLOAD PUSH2 0x2A0 MLOAD PUSH2 0x2A00 JUMP JUMPDEST PUSH2 0x200 MLOAD PUSH1 0x60 DUP2 DUP4 SUB SWAP2 ADD MSTORE PUSH2 0x100 MLOAD PUSH2 0x6E0 MLOAD PUSH2 0x2A00 JUMP JUMPDEST PUSH2 0x200 MLOAD PUSH1 0x80 DUP2 DUP4 SUB SWAP2 ADD MSTORE PUSH2 0x500 MLOAD PUSH1 0x80 MLOAD PUSH2 0x2A00 JUMP JUMPDEST PUSH2 0x200 MLOAD PUSH1 0xA0 DUP2 DUP4 SUB SWAP2 ADD MSTORE PUSH2 0x2C0 MLOAD PUSH2 0x320 MLOAD PUSH2 0x2A00 JUMP JUMPDEST PUSH2 0x200 MLOAD PUSH1 0xC0 DUP2 DUP4 SUB SWAP2 ADD MSTORE PUSH2 0x780 MLOAD PUSH2 0x120 MLOAD PUSH2 0x2A00 JUMP JUMPDEST PUSH2 0x200 MLOAD PUSH1 0xE0 DUP2 DUP4 SUB SWAP2 ADD MSTORE PUSH2 0x580 MLOAD PUSH2 0x600 MLOAD PUSH2 0x2A00 JUMP JUMPDEST PUSH2 0x200 MLOAD PUSH2 0x100 DUP2 DUP4 SUB SWAP2 ADD MSTORE PUSH2 0x720 MLOAD PUSH2 0x220 MLOAD PUSH2 0x2A00 JUMP JUMPDEST PUSH2 0x200 MLOAD PUSH2 0x120 DUP2 DUP4 SUB SWAP2 ADD MSTORE PUSH2 0x5C0 MLOAD PUSH2 0x160 MLOAD PUSH2 0x2A00 JUMP JUMPDEST PUSH2 0x200 MLOAD PUSH2 0x140 DUP2 DUP4 SUB SWAP2 ADD MSTORE PUSH2 0x740 MLOAD PUSH2 0x7C0 MLOAD PUSH2 0x2A00 JUMP JUMPDEST PUSH2 0x200 MLOAD PUSH2 0x160 DUP2 DUP4 SUB SWAP2 ADD MSTORE PUSH2 0x6C0 MLOAD PUSH2 0x5A0 MLOAD PUSH2 0x2A00 JUMP JUMPDEST PUSH2 0x200 MLOAD PUSH2 0x180 DUP2 DUP4 SUB SWAP2 ADD MSTORE PUSH1 0xA0 MLOAD PUSH2 0x4E0 MLOAD PUSH2 0x2A00 JUMP JUMPDEST PUSH2 0x200 MLOAD PUSH2 0x1A0 DUP2 DUP4 SUB SWAP2 ADD MSTORE PUSH2 0x3E0 MLOAD PUSH2 0x4C0 MLOAD PUSH2 0x2A00 JUMP JUMPDEST PUSH2 0x200 MLOAD PUSH2 0x1C0 DUP2 DUP4 SUB SWAP2 ADD MSTORE PUSH2 0x480 MLOAD PUSH2 0x7A0 MLOAD PUSH2 0x2A00 JUMP JUMPDEST PUSH2 0x200 MLOAD PUSH2 0x1E0 DUP2 DUP4 SUB SWAP2 ADD MSTORE PUSH2 0x640 MLOAD PUSH2 0x560 MLOAD PUSH2 0x2A00 JUMP JUMPDEST PUSH2 0x200 MLOAD PUSH2 0x200 DUP2 DUP4 SUB SWAP2 ADD MSTORE PUSH2 0x5E0 MLOAD PUSH2 0x240 MLOAD PUSH2 0x2A00 JUMP JUMPDEST PUSH2 0x200 MLOAD PUSH2 0x220 DUP2 DUP4 SUB SWAP2 ADD MSTORE PUSH2 0x3C0 MLOAD PUSH2 0x700 MLOAD PUSH2 0x2A00 JUMP JUMPDEST PUSH2 0x200 MLOAD PUSH2 0x240 DUP2 DUP4 SUB SWAP2 ADD MSTORE PUSH2 0x3A0 MLOAD PUSH2 0x520 MLOAD PUSH2 0x2A00 JUMP JUMPDEST PUSH2 0x200 MLOAD PUSH2 0x260 DUP2 DUP4 SUB SWAP2 ADD MSTORE PUSH2 0x1C0 MLOAD PUSH2 0x340 MLOAD PUSH2 0x2A00 JUMP JUMPDEST PUSH2 0x200 MLOAD PUSH2 0x280 DUP2 DUP4 SUB SWAP2 ADD MSTORE PUSH1 0xE0 MLOAD PUSH2 0x6A0 MLOAD PUSH2 0x2A00 JUMP JUMPDEST PUSH2 0x200 MLOAD PUSH2 0x2A0 DUP2 DUP4 SUB SWAP2 ADD MSTORE PUSH2 0x420 MLOAD PUSH2 0x140 MLOAD PUSH2 0x2A00 JUMP JUMPDEST PUSH2 0x200 MLOAD PUSH2 0x2C0 DUP2 DUP4 SUB SWAP2 ADD MSTORE PUSH2 0x1242 PUSH2 0x200 MLOAD SWAP2 PUSH2 0x400 MLOAD PUSH2 0x180 MLOAD PUSH2 0x2A00 JUMP JUMPDEST SUB PUSH2 0x200 MLOAD LOG1 STOP JUMPDEST SWAP1 POP PUSH2 0x760 MLOAD ADD CALLDATALOAD CODESIZE PUSH2 0xF70 JUMP JUMPDEST DUP2 PUSH1 0x0 MSTORE PUSH1 0x20 PUSH1 0x0 KECCAK256 PUSH1 0x0 SWAP4 PUSH2 0x760 MLOAD SWAP1 JUMPDEST PUSH1 0x1F NOT DUP5 AND DUP7 LT PUSH2 0x12AD JUMPI PUSH1 0x1 SWAP5 SWAP6 POP DUP4 PUSH1 0x1F NOT DUP2 AND LT PUSH2 0x1293 JUMPI JUMPDEST POP POP POP DUP2 SHL ADD SWAP1 SSTORE PUSH2 0xF84 JUMP JUMPDEST ADD CALLDATALOAD PUSH1 0x0 NOT PUSH1 0x3 DUP5 SWAP1 SHL PUSH1 0xF8 AND SHR NOT AND SWAP1 SSTORE CODESIZE DUP1 DUP1 PUSH2 0x1286 JUMP JUMPDEST SWAP2 PUSH1 0x20 PUSH1 0x1 DUP2 SWAP3 DUP6 DUP6 ADD CALLDATALOAD DUP2 SSTORE ADD SWAP4 ADD SWAP6 ADD SWAP5 PUSH2 0x126A JUMP JUMPDEST PUSH4 0x4E487B71 PUSH1 0xE0 SHL PUSH1 0x0 MSTORE PUSH1 0x41 PUSH1 0x4 MSTORE PUSH1 0x24 PUSH1 0x0 REVERT JUMPDEST PUSH4 0x4E487B71 PUSH1 0xE0 SHL PUSH1 0x0 MSTORE PUSH1 0x0 PUSH1 0x4 MSTORE PUSH1 0x24 PUSH1 0x0 REVERT JUMPDEST ADD MLOAD SWAP1 POP CODESIZE DUP1 PUSH2 0xEEB JUMP JUMPDEST SWAP1 PUSH1 0x15 DUP5 ADD PUSH1 0x0 MSTORE PUSH1 0x20 PUSH1 0x0 KECCAK256 SWAP2 PUSH1 0x0 JUMPDEST PUSH1 0x1F NOT DUP6 AND DUP2 LT PUSH2 0x1354 JUMPI POP SWAP2 DUP4 SWAP2 PUSH1 0x1 SWAP4 PUSH1 0x15 SWAP6 PUSH1 0x1F NOT DUP2 AND LT PUSH2 0x133B JUMPI JUMPDEST POP POP POP DUP2 SHL ADD SWAP2 ADD SSTORE PUSH2 0xF01 JUMP JUMPDEST ADD MLOAD PUSH1 0x0 NOT PUSH1 0xF8 DUP5 PUSH1 0x3 SHL AND SHR NOT AND SWAP1 SSTORE CODESIZE DUP1 DUP1 PUSH2 0x132D JUMP JUMPDEST SWAP2 SWAP3 PUSH1 0x20 PUSH1 0x1 DUP2 SWAP3 DUP7 DUP6 ADD MLOAD DUP2 SSTORE ADD SWAP5 ADD SWAP3 ADD PUSH2 0x130D JUMP JUMPDEST ADD MLOAD SWAP1 POP CODESIZE DUP1 PUSH2 0xE84 JUMP JUMPDEST SWAP3 POP PUSH1 0x14 DUP5 ADD PUSH1 0x0 MSTORE PUSH1 0x20 PUSH1 0x0 KECCAK256 SWAP1 PUSH1 0x0 SWAP4 JUMPDEST PUSH1 0x1F NOT DUP5 AND DUP6 LT PUSH2 0x13CE JUMPI PUSH1 0x1 SWAP5 POP DUP4 PUSH1 0x1F NOT DUP2 AND LT PUSH2 0x13B5 JUMPI JUMPDEST POP POP POP DUP2 SHL ADD PUSH1 0x14 DUP3 ADD SSTORE PUSH2 0xE9C JUMP JUMPDEST ADD MLOAD PUSH1 0x0 NOT PUSH1 0xF8 DUP5 PUSH1 0x3 SHL AND SHR NOT AND SWAP1 SSTORE CODESIZE DUP1 DUP1 PUSH2 0x13A5 JUMP JUMPDEST DUP2 DUP2 ADD MLOAD DUP4 SSTORE PUSH1 0x20 SWAP5 DUP6 ADD SWAP5 PUSH1 0x1 SWAP1 SWAP4 ADD SWAP3 SWAP1 SWAP2 ADD SWAP1 PUSH2 0x138A JUMP JUMPDEST ADD MLOAD SWAP1 POP CODESIZE DUP1 PUSH2 0xE22 JUMP JUMPDEST SWAP3 POP PUSH1 0x13 DUP5 ADD PUSH1 0x0 MSTORE PUSH1 0x20 PUSH1 0x0 KECCAK256 SWAP1 PUSH1 0x0 SWAP4 JUMPDEST PUSH1 0x1F NOT DUP5 AND DUP6 LT PUSH2 0x144B JUMPI PUSH1 0x1 SWAP5 POP DUP4 PUSH1 0x1F NOT DUP2 AND LT PUSH2 0x1432 JUMPI JUMPDEST POP POP POP DUP2 SHL ADD PUSH1 0x13 DUP3 ADD SSTORE PUSH2 0xE3A JUMP JUMPDEST ADD MLOAD PUSH1 0x0 NOT PUSH1 0xF8 DUP5 PUSH1 0x3 SHL AND SHR NOT AND SWAP1 SSTORE CODESIZE DUP1 DUP1 PUSH2 0x1422 JUMP JUMPDEST DUP2 DUP2 ADD MLOAD DUP4 SSTORE PUSH1 0x20 SWAP5 DUP6 ADD SWAP5 PUSH1 0x1 SWAP1 SWAP4 ADD SWAP3 SWAP1 SWAP2 ADD SWAP1 PUSH2 0x1407 JUMP JUMPDEST ADD MLOAD SWAP1 POP CODESIZE DUP1 PUSH2 0xDBE JUMP JUMPDEST SWAP3 POP PUSH1 0x12 DUP5 ADD PUSH1 0x0 MSTORE PUSH1 0x20 PUSH1 0x0 KECCAK256 SWAP1 PUSH1 0x0 SWAP4 JUMPDEST PUSH1 0x1F NOT DUP5 AND DUP6 LT PUSH2 0x14C8 JUMPI PUSH1 0x1 SWAP5 POP DUP4 PUSH1 0x1F NOT DUP2 AND LT PUSH2 0x14AF JUMPI JUMPDEST POP POP POP DUP2 SHL ADD PUSH1 0x12 DUP3 ADD SSTORE PUSH2 0xDD6 JUMP JUMPDEST ADD MLOAD PUSH1 0x0 NOT PUSH1 0xF8 DUP5 PUSH1 0x3 SHL AND SHR NOT AND SWAP1 SSTORE CODESIZE DUP1 DUP1 PUSH2 0x149F JUMP JUMPDEST DUP2 DUP2 ADD MLOAD DUP4 SSTORE PUSH1 0x20 SWAP5 DUP6 ADD SWAP5 PUSH1 0x1 SWAP1 SWAP4 ADD SWAP3 SWAP1 SWAP2 ADD SWAP1 PUSH2 0x1484 JUMP JUMPDEST ADD MLOAD SWAP1 POP CODESIZE DUP1 PUSH2 0xD5A JUMP JUMPDEST SWAP3 POP PUSH1 0x11 DUP5 ADD PUSH1 0x0 MSTORE PUSH1 0x20 PUSH1 0x0 KECCAK256 SWAP1 PUSH1 0x0 SWAP4 JUMPDEST PUSH1 0x1F NOT DUP5 AND DUP6 LT PUSH2 0x1545 JUMPI PUSH1 0x1 SWAP5 POP DUP4 PUSH1 0x1F NOT DUP2 AND LT PUSH2 0x152C JUMPI JUMPDEST POP POP POP DUP2 SHL ADD PUSH1 0x11 DUP3 ADD SSTORE PUSH2 0xD72 JUMP JUMPDEST ADD MLOAD PUSH1 0x0 NOT PUSH1 0xF8 DUP5 PUSH1 0x3 SHL AND SHR NOT AND SWAP1 SSTORE CODESIZE DUP1 DUP1 PUSH2 0x151C JUMP JUMPDEST DUP2 DUP2 ADD MLOAD DUP4 SSTORE PUSH1 0x20 SWAP5 DUP6 ADD SWAP5 PUSH1 0x1 SWAP1 SWAP4 ADD SWAP3 SWAP1 SWAP2 ADD SWAP1 PUSH2 0x1501 JUMP JUMPDEST ADD MLOAD SWAP1 POP CODESIZE DUP1 PUSH2 0xCF6 JUMP JUMPDEST SWAP3 POP PUSH1 0x10 DUP5 ADD PUSH1 0x0 MSTORE PUSH1 0x20 PUSH1 0x0 KECCAK256 SWAP1 PUSH1 0x0 SWAP4 JUMPDEST PUSH1 0x1F NOT DUP5 AND DUP6 LT PUSH2 0x15C2 JUMPI PUSH1 0x1 SWAP5 POP DUP4 PUSH1 0x1F NOT DUP2 AND LT PUSH2 0x15A9 JUMPI JUMPDEST POP POP POP DUP2 SHL ADD PUSH1 0x10 DUP3 ADD SSTORE PUSH2 0xD0E JUMP JUMPDEST ADD MLOAD PUSH1 0x0 NOT PUSH1 0xF8 DUP5 PUSH1 0x3 SHL AND SHR NOT AND SWAP1 SSTORE CODESIZE DUP1 DUP1 PUSH2 0x1599 JUMP JUMPDEST DUP2 DUP2 ADD MLOAD DUP4 SSTORE PUSH1 0x20 SWAP5 DUP6 ADD SWAP5 PUSH1 0x1 SWAP1 SWAP4 ADD SWAP3 SWAP1 SWAP2 ADD SWAP1 PUSH2 0x157E JUMP JUMPDEST ADD MLOAD SWAP1 POP CODESIZE DUP1 PUSH2 0xC92 JUMP JUMPDEST SWAP3 POP PUSH1 0xF DUP5 ADD PUSH1 0x0 MSTORE PUSH1 0x20 PUSH1 0x0 KECCAK256 SWAP1 PUSH1 0x0 SWAP4 JUMPDEST PUSH1 0x1F NOT DUP5 AND DUP6 LT PUSH2 0x163F JUMPI PUSH1 0x1 SWAP5 POP DUP4 PUSH1 0x1F NOT DUP2 AND LT PUSH2 0x1626 JUMPI JUMPDEST POP POP POP DUP2 SHL ADD PUSH1 0xF DUP3 ADD SSTORE PUSH2 0xCAA JUMP JUMPDEST ADD MLOAD PUSH1 0x0 NOT PUSH1 0xF8 DUP5 PUSH1 0x3 SHL AND SHR NOT AND SWAP1 SSTORE CODESIZE DUP1 DUP1 PUSH2 0x1616 JUMP JUMPDEST DUP2 DUP2 ADD MLOAD DUP4 SSTORE PUSH1 0x20 SWAP5 DUP6 ADD SWAP5 PUSH1 0x1 SWAP1 SWAP4 ADD SWAP3 SWAP1 SWAP2 ADD SWAP1 PUSH2 0x15FB JUMP JUMPDEST ADD MLOAD SWAP1 POP CODESIZE DUP1 PUSH2 0xC2E JUMP JUMPDEST SWAP3 POP PUSH1 0xE DUP5 ADD PUSH1 0x0 MSTORE PUSH1 0x20 PUSH1 0x0 KECCAK256 SWAP1 PUSH1 0x0 SWAP4 JUMPDEST PUSH1 0x1F NOT DUP5 AND DUP6 LT PUSH2 0x16BC JUMPI PUSH1 0x1 SWAP5 POP DUP4 PUSH1 0x1F NOT DUP2 AND LT PUSH2 0x16A3 JUMPI JUMPDEST POP POP POP DUP2 SHL ADD PUSH1 0xE DUP3 ADD SSTORE PUSH2 0xC46 JUMP JUMPDEST ADD MLOAD PUSH1 0x0 NOT PUSH1 0xF8 DUP5 PUSH1 0x3 SHL AND SHR NOT AND SWAP1 SSTORE CODESIZE DUP1 DUP1 PUSH2 0x1693 JUMP JUMPDEST DUP2 DUP2 ADD MLOAD DUP4 SSTORE PUSH1 0x20 SWAP5 DUP6 ADD SWAP5 PUSH1 0x1 SWAP1 SWAP4 ADD SWAP3 SWAP1 SWAP2 ADD SWAP1 PUSH2 0x1678 JUMP JUMPDEST ADD MLOAD SWAP1 POP CODESIZE DUP1 PUSH2 0xBCA JUMP JUMPDEST SWAP3 POP PUSH1 0xD DUP5 ADD PUSH1 0x0 MSTORE PUSH1 0x20 PUSH1 0x0 KECCAK256 SWAP1 PUSH1 0x0 SWAP4 JUMPDEST PUSH1 0x1F NOT DUP5 AND DUP6 LT PUSH2 0x1739 JUMPI PUSH1 0x1 SWAP5 POP DUP4 PUSH1 0x1F NOT DUP2 AND LT PUSH2 0x1720 JUMPI JUMPDEST POP POP POP DUP2 SHL ADD PUSH1 0xD DUP3 ADD SSTORE PUSH2 0xBE2 JUMP JUMPDEST ADD MLOAD PUSH1 0x0 NOT PUSH1 0xF8 DUP5 PUSH1 0x3 SHL AND SHR NOT AND SWAP1 SSTORE CODESIZE DUP1 DUP1 PUSH2 0x1710 JUMP JUMPDEST DUP2 DUP2 ADD MLOAD DUP4 SSTORE PUSH1 0x20 SWAP5 DUP6 ADD SWAP5 PUSH1 0x1 SWAP1 SWAP4 ADD SWAP3 SWAP1 SWAP2 ADD SWAP1 PUSH2 0x16F5 JUMP JUMPDEST ADD MLOAD SWAP1 POP CODESIZE DUP1 PUSH2 0xB66 JUMP JUMPDEST SWAP3 POP PUSH1 0xC DUP5 ADD PUSH1 0x0 MSTORE PUSH1 0x20 PUSH1 0x0 KECCAK256 SWAP1 PUSH1 0x0 SWAP4 JUMPDEST PUSH1 0x1F NOT DUP5 AND DUP6 LT PUSH2 0x17B6 JUMPI PUSH1 0x1 SWAP5 POP DUP4 PUSH1 0x1F NOT DUP2 AND LT PUSH2 0x179D JUMPI JUMPDEST POP POP POP DUP2 SHL ADD PUSH1 0xC DUP3 ADD SSTORE PUSH2 0xB7E JUMP JUMPDEST ADD MLOAD PUSH1 0x0 NOT PUSH1 0xF8 DUP5 PUSH1 0x3 SHL AND SHR NOT AND SWAP1 SSTORE CODESIZE DUP1 DUP1 PUSH2 0x178D JUMP JUMPDEST DUP2 DUP2 ADD MLOAD DUP4 SSTORE PUSH1 0x20 SWAP5 DUP6 ADD SWAP5 PUSH1 0x1 SWAP1 SWAP4 ADD SWAP3 SWAP1 SWAP2 ADD SWAP1 PUSH2 0x1772 JUMP JUMPDEST ADD MLOAD SWAP1 POP CODESIZE DUP1 PUSH2 0xB02 JUMP JUMPDEST SWAP3 POP PUSH1 0xB DUP5 ADD PUSH1 0x0 MSTORE PUSH1 0x20 PUSH1 0x0 KECCAK256 SWAP1 PUSH1 0x0 SWAP4 JUMPDEST PUSH1 0x1F NOT DUP5 AND DUP6 LT PUSH2 0x1833 JUMPI PUSH1 0x1 SWAP5 POP DUP4 PUSH1 0x1F NOT DUP2 AND LT PUSH2 0x181A JUMPI JUMPDEST POP POP POP DUP2 SHL ADD PUSH1 0xB DUP3 ADD SSTORE PUSH2 0xB1A JUMP JUMPDEST ADD MLOAD PUSH1 0x0 NOT PUSH1 0xF8 DUP5 PUSH1 0x3 SHL AND SHR NOT AND SWAP1 SSTORE CODESIZE DUP1 DUP1 PUSH2 0x180A JUMP JUMPDEST DUP2 DUP2 ADD MLOAD DUP4 SSTORE PUSH1 0x20 SWAP5 DUP6 ADD SWAP5 PUSH1 0x1 SWAP1 SWAP4 ADD SWAP3 SWAP1 SWAP2 ADD SWAP1 PUSH2 0x17EF JUMP JUMPDEST ADD MLOAD SWAP1 POP CODESIZE DUP1 PUSH2 0xA9E JUMP JUMPDEST SWAP3 POP PUSH1 0xA DUP5 ADD PUSH1 0x0 MSTORE PUSH1 0x20 PUSH1 0x0 KECCAK256 SWAP1 PUSH1 0x0 SWAP4 JUMPDEST PUSH1 0x1F NOT DUP5 AND DUP6 LT PUSH2 0x18B0 JUMPI PUSH1 0x1 SWAP5 POP DUP4 PUSH1 0x1F NOT DUP2 AND LT PUSH2 0x1897 JUMPI JUMPDEST POP POP POP DUP2 SHL ADD PUSH1 0xA DUP3 ADD SSTORE PUSH2 0xAB6 JUMP JUMPDEST ADD MLOAD PUSH1 0x0 NOT PUSH1 0xF8 DUP5 PUSH1 0x3 SHL AND SHR NOT AND SWAP1 SSTORE CODESIZE DUP1 DUP1 PUSH2 0x1887 JUMP JUMPDEST DUP2 DUP2 ADD MLOAD DUP4 SSTORE PUSH1 0x20 SWAP5 DUP6 ADD SWAP5 PUSH1 0x1 SWAP1 SWAP4 ADD SWAP3 SWAP1 SWAP2 ADD SWAP1 PUSH2 0x186C JUMP JUMPDEST ADD MLOAD SWAP1 POP CODESIZE DUP1 PUSH2 0xA3A JUMP JUMPDEST SWAP3 POP PUSH1 0x9 DUP5 ADD PUSH1 0x0 MSTORE PUSH1 0x20 PUSH1 0x0 KECCAK256 SWAP1 PUSH1 0x0 SWAP4 JUMPDEST PUSH1 0x1F NOT DUP5 AND DUP6 LT PUSH2 0x192D JUMPI PUSH1 0x1 SWAP5 POP DUP4 PUSH1 0x1F NOT DUP2 AND LT PUSH2 0x1914 JUMPI JUMPDEST POP POP POP DUP2 SHL ADD PUSH1 0x9 DUP3 ADD SSTORE PUSH2 0xA52 JUMP JUMPDEST ADD MLOAD PUSH1 0x0 NOT PUSH1 0xF8 DUP5 PUSH1 0x3 SHL AND SHR NOT AND SWAP1 SSTORE CODESIZE DUP1 DUP1 PUSH2 0x1904 JUMP JUMPDEST DUP2 DUP2 ADD MLOAD DUP4 SSTORE PUSH1 0x20 SWAP5 DUP6 ADD SWAP5 PUSH1 0x1 SWAP1 SWAP4 ADD SWAP3 SWAP1 SWAP2 ADD SWAP1 PUSH2 0x18E9 JUMP JUMPDEST ADD MLOAD SWAP1 POP CODESIZE DUP1 PUSH2 0x9D6 JUMP JUMPDEST SWAP3 POP PUSH1 0x8 DUP5 ADD PUSH1 0x0 MSTORE PUSH1 0x20 PUSH1 0x0 KECCAK256 SWAP1 PUSH1 0x0 SWAP4 JUMPDEST PUSH1 0x1F NOT DUP5 AND DUP6 LT PUSH2 0x19AA JUMPI PUSH1 0x1 SWAP5 POP DUP4 PUSH1 0x1F NOT DUP2 AND LT PUSH2 0x1991 JUMPI JUMPDEST POP POP POP DUP2 SHL ADD PUSH1 0x8 DUP3 ADD SSTORE PUSH2 0x9EE JUMP JUMPDEST ADD MLOAD PUSH1 0x0 NOT PUSH1 0xF8 DUP5 PUSH1 0x3 SHL AND SHR NOT AND SWAP1 SSTORE CODESIZE DUP1 DUP1 PUSH2 0x1981 JUMP JUMPDEST DUP2 DUP2 ADD MLOAD DUP4 SSTORE PUSH1 0x20 SWAP5 DUP6 ADD SWAP5 PUSH1 0x1 SWAP1 SWAP4 ADD SWAP3 SWAP1 SWAP2 ADD SWAP1 PUSH2 0x1966 JUMP JUMPDEST ADD MLOAD SWAP1 POP CODESIZE DUP1 PUSH2 0x972 JUMP JUMPDEST SWAP3 POP PUSH1 0x7 DUP5 ADD PUSH1 0x0 MSTORE PUSH1 0x20 PUSH1 0x0 KECCAK256 SWAP1 PUSH1 0x0 SWAP4 JUMPDEST PUSH1 0x1F NOT DUP5 AND DUP6 LT PUSH2 0x1A27 JUMPI PUSH1 0x1 SWAP5 POP DUP4 PUSH1 0x1F NOT DUP2 AND LT PUSH2 0x1A0E JUMPI JUMPDEST POP POP POP DUP2 SHL ADD PUSH1 0x7 DUP3 ADD SSTORE PUSH2 0x98A JUMP JUMPDEST ADD MLOAD PUSH1 0x0 NOT PUSH1 0xF8 DUP5 PUSH1 0x3 SHL AND SHR NOT AND SWAP1 SSTORE CODESIZE DUP1 DUP1 PUSH2 0x19FE JUMP JUMPDEST DUP2 DUP2 ADD MLOAD DUP4 SSTORE PUSH1 0x20 SWAP5 DUP6 ADD SWAP5 PUSH1 0x1 SWAP1 SWAP4 ADD SWAP3 SWAP1 SWAP2 ADD SWAP1 PUSH2 0x19E3 JUMP JUMPDEST ADD MLOAD SWAP1 POP CODESIZE DUP1 PUSH2 0x90F JUMP JUMPDEST SWAP3 POP PUSH1 0x6 DUP5 ADD PUSH1 0x0 MSTORE PUSH1 0x20 PUSH1 0x0 KECCAK256 SWAP1 PUSH1 0x0 SWAP4 JUMPDEST PUSH1 0x1F NOT DUP5 AND DUP6 LT PUSH2 0x1AA4 JUMPI PUSH1 0x1 SWAP5 POP DUP4 PUSH1 0x1F NOT DUP2 AND LT PUSH2 0x1A8B JUMPI JUMPDEST POP POP POP DUP2 SHL ADD PUSH1 0x6 DUP3 ADD SSTORE PUSH2 0x927 JUMP JUMPDEST ADD MLOAD PUSH1 0x0 NOT PUSH1 0xF8 DUP5 PUSH1 0x3 SHL AND SHR NOT AND SWAP1 SSTORE CODESIZE DUP1 DUP1 PUSH2 0x1A7B JUMP JUMPDEST DUP2 DUP2 ADD MLOAD DUP4 SSTORE PUSH1 0x20 SWAP5 DUP6 ADD SWAP5 PUSH1 0x1 SWAP1 SWAP4 ADD SWAP3 SWAP1 SWAP2 ADD SWAP1 PUSH2 0x1A60 JUMP JUMPDEST ADD MLOAD SWAP1 POP CODESIZE DUP1 PUSH2 0x8AC JUMP JUMPDEST SWAP3 POP PUSH1 0x5 DUP5 ADD PUSH1 0x0 MSTORE PUSH1 0x20 PUSH1 0x0 KECCAK256 SWAP1 PUSH1 0x0 SWAP4 JUMPDEST PUSH1 0x1F NOT DUP5 AND DUP6 LT PUSH2 0x1B21 JUMPI PUSH1 0x1 SWAP5 POP DUP4 PUSH1 0x1F NOT DUP2 AND LT PUSH2 0x1B08 JUMPI JUMPDEST POP POP POP DUP2 SHL ADD PUSH1 0x5 DUP3 ADD SSTORE PUSH2 0x8C4 JUMP JUMPDEST ADD MLOAD PUSH1 0x0 NOT PUSH1 0xF8 DUP5 PUSH1 0x3 SHL AND SHR NOT AND SWAP1 SSTORE CODESIZE DUP1 DUP1 PUSH2 0x1AF8 JUMP JUMPDEST DUP2 DUP2 ADD MLOAD DUP4 SSTORE PUSH1 0x20 SWAP5 DUP6 ADD SWAP5 PUSH1 0x1 SWAP1 SWAP4 ADD SWAP3 SWAP1 SWAP2 ADD SWAP1 PUSH2 0x1ADD JUMP JUMPDEST ADD MLOAD SWAP1 POP CODESIZE DUP1 PUSH2 0x849 JUMP JUMPDEST SWAP3 POP PUSH1 0x4 DUP5 ADD PUSH1 0x0 MSTORE PUSH1 0x20 PUSH1 0x0 KECCAK256 SWAP1 PUSH1 0x0 SWAP4 JUMPDEST PUSH1 0x1F NOT DUP5 AND DUP6 LT PUSH2 0x1B9E JUMPI PUSH1 0x1 SWAP5 POP DUP4 PUSH1 0x1F NOT DUP2 AND LT PUSH2 0x1B85 JUMPI JUMPDEST POP POP POP DUP2 SHL ADD PUSH1 0x4 DUP3 ADD SSTORE PUSH2 0x861 JUMP JUMPDEST ADD MLOAD PUSH1 0x0 NOT PUSH1 0xF8 DUP5 PUSH1 0x3 SHL AND SHR NOT AND SWAP1 SSTORE CODESIZE DUP1 DUP1 PUSH2 0x1B75 JUMP JUMPDEST DUP2 DUP2 ADD MLOAD DUP4 SSTORE PUSH1 0x20 SWAP5 DUP6 ADD SWAP5 PUSH1 0x1 SWAP1 SWAP4 ADD SWAP3 SWAP1 SWAP2 ADD SWAP1 PUSH2 0x1B5A JUMP JUMPDEST ADD MLOAD SWAP1 POP CODESIZE DUP1 PUSH2 0x7E6 JUMP JUMPDEST SWAP3 POP PUSH1 0x3 DUP5 ADD PUSH1 0x0 MSTORE PUSH1 0x20 PUSH1 0x0 KECCAK256 SWAP1 PUSH1 0x0 SWAP4 JUMPDEST PUSH1 0x1F NOT DUP5 AND DUP6 LT PUSH2 0x1C1B JUMPI PUSH1 0x1 SWAP5 POP DUP4 PUSH1 0x1F NOT DUP2 AND LT PUSH2 0x1C02 JUMPI JUMPDEST POP POP POP DUP2 SHL ADD PUSH1 0x3 DUP3 ADD SSTORE PUSH2 0x7FE JUMP JUMPDEST ADD MLOAD PUSH1 0x0 NOT PUSH1 0xF8 DUP5 PUSH1 0x3 SHL AND SHR NOT AND SWAP1 SSTORE CODESIZE DUP1 DUP1 PUSH2 0x1BF2 JUMP JUMPDEST DUP2 DUP2 ADD MLOAD DUP4 SSTORE PUSH1 0x20 SWAP5 DUP6 ADD SWAP5 PUSH1 0x1 SWAP1 SWAP4 ADD SWAP3 SWAP1 SWAP2 ADD SWAP1 PUSH2 0x1BD7 JUMP JUMPDEST ADD MLOAD SWAP1 POP CODESIZE DUP1 PUSH2 0x783 JUMP JUMPDEST SWAP3 POP PUSH1 0x2 DUP5 ADD PUSH1 0x0 MSTORE PUSH1 0x20 PUSH1 0x0 KECCAK256 SWAP1 PUSH1 0x0 SWAP4 JUMPDEST PUSH1 0x1F NOT DUP5 AND DUP6 LT PUSH2 0x1C98 JUMPI PUSH1 0x1 SWAP5 POP DUP4 PUSH1 0x1F NOT DUP2 AND LT PUSH2 0x1C7F JUMPI JUMPDEST POP POP POP DUP2 SHL ADD PUSH1 0x2 DUP3 ADD SSTORE PUSH2 0x79B JUMP JUMPDEST ADD MLOAD PUSH1 0x0 NOT PUSH1 0xF8 DUP5 PUSH1 0x3 SHL AND SHR NOT AND SWAP1 SSTORE CODESIZE DUP1 DUP1 PUSH2 0x1C6F JUMP JUMPDEST DUP2 DUP2 ADD MLOAD DUP4 SSTORE PUSH1 0x20 SWAP5 DUP6 ADD SWAP5 PUSH1 0x1 SWAP1 SWAP4 ADD SWAP3 SWAP1 SWAP2 ADD SWAP1 PUSH2 0x1C54 JUMP JUMPDEST ADD MLOAD SWAP1 POP CODESIZE DUP1 PUSH2 0x720 JUMP JUMPDEST SWAP3 POP PUSH1 0x1 DUP5 ADD PUSH1 0x0 MSTORE PUSH1 0x20 PUSH1 0x0 KECCAK256 SWAP1 PUSH1 0x0 SWAP4 JUMPDEST PUSH1 0x1F NOT DUP5 AND DUP6 LT PUSH2 0x1D15 JUMPI PUSH1 0x1 SWAP5 POP DUP4 PUSH1 0x1F NOT DUP2 AND LT PUSH2 0x1CFC JUMPI JUMPDEST POP POP POP DUP2 SHL ADD PUSH1 0x1 DUP3 ADD SSTORE PUSH2 0x738 JUMP JUMPDEST ADD MLOAD PUSH1 0x0 NOT PUSH1 0xF8 DUP5 PUSH1 0x3 SHL AND SHR NOT AND SWAP1 SSTORE CODESIZE DUP1 DUP1 PUSH2 0x1CEC JUMP JUMPDEST DUP2 DUP2 ADD MLOAD DUP4 SSTORE PUSH1 0x20 SWAP5 DUP6 ADD SWAP5 PUSH1 0x1 SWAP1 SWAP4 ADD SWAP3 SWAP1 SWAP2 ADD SWAP1 PUSH2 0x1CD1 JUMP JUMPDEST ADD MLOAD SWAP1 POP CODESIZE DUP1 PUSH2 0x6C0 JUMP JUMPDEST SWAP3 POP DUP4 PUSH1 0x0 MSTORE PUSH1 0x20 PUSH1 0x0 KECCAK256 SWAP1 PUSH1 0x0 SWAP4 JUMPDEST PUSH1 0x1F NOT DUP5 AND DUP6 LT PUSH2 0x1D8C JUMPI PUSH1 0x1 SWAP5 POP DUP4 PUSH1 0x1F NOT DUP2 AND LT PUSH2 0x1D73 JUMPI JUMPDEST POP POP POP DUP2 SHL ADD DUP2 SSTORE PUSH2 0x6D5 JUMP JUMPDEST ADD MLOAD PUSH1 0x0 NOT PUSH1 0xF8 DUP5 PUSH1 0x3 SHL AND SHR NOT AND SWAP1 SSTORE CODESIZE DUP1 DUP1 PUSH2 0x1D66 JUMP JUMPDEST DUP2 DUP2 ADD MLOAD DUP4 SSTORE PUSH1 0x20 SWAP5 DUP6 ADD SWAP5 PUSH1 0x1 SWAP1 SWAP4 ADD SWAP3 SWAP1 SWAP2 ADD SWAP1 PUSH2 0x1D4B JUMP JUMPDEST PUSH1 0x40 MLOAD PUSH3 0x461BCD PUSH1 0xE5 SHL DUP2 MSTORE PUSH1 0x20 PUSH1 0x4 DUP3 ADD MSTORE PUSH1 0xB PUSH1 0x24 DUP3 ADD MSTORE PUSH11 0x139BDD081CDD195DD85C99 PUSH1 0xAA SHL PUSH1 0x44 DUP3 ADD MSTORE PUSH1 0x64 SWAP1 REVERT JUMPDEST PUSH1 0x0 DUP1 REVERT JUMPDEST CALLVALUE PUSH2 0x1DDA JUMPI PUSH1 0x20 CALLDATASIZE PUSH1 0x3 NOT ADD SLT PUSH2 0x1DDA JUMPI PUSH1 0x4 CALLDATALOAD PUSH1 0x1 PUSH1 0x1 PUSH1 0x40 SHL SUB DUP2 GT PUSH2 0x1DDA JUMPI CALLDATASIZE PUSH1 0x23 DUP3 ADD SLT ISZERO PUSH2 0x1DDA JUMPI CALLDATASIZE DUP2 PUSH1 0x4 ADD CALLDATALOAD SWAP2 PUSH1 0x24 ADD SWAP2 PUSH2 0x1E20 SWAP3 PUSH2 0x2966 JUMP JUMPDEST PUSH1 0x40 MLOAD DUP2 DUP2 DUP1 SWAP4 MLOAD PUSH1 0x20 DUP2 SWAP4 ADD SWAP2 PUSH2 0x1E37 SWAP3 PUSH2 0x28F1 JUMP JUMPDEST DUP2 ADD PUSH1 0x1 DUP2 MSTORE SUB PUSH1 0x20 ADD SWAP1 KECCAK256 DUP1 PUSH2 0x2E0 MSTORE PUSH2 0x1E51 SWAP1 PUSH2 0x284B JUMP JUMPDEST PUSH2 0x2E0 MLOAD PUSH1 0x1 ADD PUSH2 0x1E61 SWAP1 PUSH2 0x284B JUMP JUMPDEST PUSH2 0x680 MSTORE PUSH2 0x2E0 MLOAD PUSH1 0x2 ADD PUSH2 0x1E75 SWAP1 PUSH2 0x284B JUMP JUMPDEST PUSH2 0x540 MSTORE PUSH2 0x2E0 MLOAD PUSH1 0x3 ADD PUSH2 0x1E89 SWAP1 PUSH2 0x284B JUMP JUMPDEST PUSH2 0x380 MSTORE PUSH2 0x2E0 MLOAD PUSH1 0x4 ADD PUSH2 0x1E9D SWAP1 PUSH2 0x284B JUMP JUMPDEST PUSH2 0x2E0 MLOAD PUSH1 0x5 ADD PUSH2 0x1EAD SWAP1 PUSH2 0x284B JUMP JUMPDEST PUSH2 0x2E0 MLOAD PUSH1 0x6 ADD PUSH2 0x1EBD SWAP1 PUSH2 0x284B JUMP JUMPDEST PUSH2 0x2E0 MLOAD PUSH1 0x7 ADD PUSH2 0x1ECD SWAP1 PUSH2 0x284B JUMP JUMPDEST PUSH2 0x2E0 MLOAD PUSH1 0x8 ADD PUSH2 0x1EDD SWAP1 PUSH2 0x284B JUMP JUMPDEST PUSH2 0x2E0 MLOAD PUSH1 0x9 ADD PUSH2 0x1EED SWAP1 PUSH2 0x284B JUMP JUMPDEST PUSH2 0x2E0 MLOAD PUSH1 0xA ADD PUSH2 0x1EFD SWAP1 PUSH2 0x284B JUMP JUMPDEST SWAP2 PUSH2 0x2E0 MLOAD PUSH1 0xB ADD PUSH2 0x1F0E SWAP1 PUSH2 0x284B JUMP JUMPDEST SWAP4 PUSH2 0x2E0 MLOAD PUSH1 0xC ADD PUSH2 0x1F1F SWAP1 PUSH2 0x284B JUMP JUMPDEST SWAP6 PUSH2 0x2E0 MLOAD PUSH1 0xD ADD PUSH2 0x1F30 SWAP1 PUSH2 0x284B JUMP JUMPDEST SWAP8 PUSH2 0x2E0 MLOAD PUSH1 0xE ADD PUSH2 0x1F41 SWAP1 PUSH2 0x284B JUMP JUMPDEST SWAP10 PUSH2 0x2E0 MLOAD PUSH1 0xF ADD PUSH2 0x1F52 SWAP1 PUSH2 0x284B JUMP JUMPDEST SWAP12 PUSH2 0x2E0 MLOAD PUSH1 0x10 ADD PUSH2 0x1F63 SWAP1 PUSH2 0x284B JUMP JUMPDEST PUSH2 0x460 MSTORE PUSH2 0x2E0 MLOAD PUSH1 0x11 ADD PUSH2 0x1F77 SWAP1 PUSH2 0x284B JUMP JUMPDEST PUSH2 0x300 MSTORE PUSH2 0x2E0 MLOAD PUSH1 0x12 ADD PUSH2 0x1F8B SWAP1 PUSH2 0x284B JUMP JUMPDEST PUSH2 0x1E0 MSTORE PUSH2 0x2E0 MLOAD PUSH1 0x13 ADD PUSH2 0x1F9F SWAP1 PUSH2 0x284B JUMP JUMPDEST PUSH2 0x360 MSTORE PUSH2 0x2E0 MLOAD PUSH1 0x14 ADD PUSH2 0x1FB3 SWAP1 PUSH2 0x284B JUMP JUMPDEST PUSH2 0x260 MSTORE PUSH2 0x2E0 MLOAD PUSH1 0x15 ADD PUSH2 0x1FC7 SWAP1 PUSH2 0x284B JUMP JUMPDEST PUSH1 0xC0 MSTORE PUSH1 0x40 MLOAD DUP1 PUSH2 0x4A0 MSTORE PUSH2 0x2C0 DUP1 SWAP2 MSTORE PUSH2 0x4A0 MLOAD ADD PUSH2 0x1FE6 SWAP2 PUSH2 0x2914 JUMP JUMPDEST PUSH2 0x4A0 MLOAD DUP1 DUP3 SUB SWAP1 PUSH1 0x20 ADD MSTORE PUSH2 0x680 MLOAD SWAP1 PUSH2 0x2000 SWAP2 PUSH2 0x2914 JUMP JUMPDEST PUSH2 0x4A0 MLOAD DUP1 DUP3 SUB SWAP1 PUSH1 0x40 ADD MSTORE PUSH2 0x540 MLOAD SWAP1 PUSH2 0x201A SWAP2 PUSH2 0x2914 JUMP JUMPDEST PUSH2 0x4A0 MLOAD DUP1 DUP3 SUB SWAP1 PUSH1 0x60 ADD MSTORE PUSH2 0x380 MLOAD SWAP1 PUSH2 0x2034 SWAP2 PUSH2 0x2914 JUMP JUMPDEST PUSH2 0x4A0 MLOAD DUP1 DUP3 SUB SWAP1 PUSH1 0x80 ADD MSTORE PUSH2 0x2049 SWAP2 PUSH2 0x2914 JUMP JUMPDEST PUSH2 0x4A0 MLOAD DUP1 DUP3 SUB SWAP1 PUSH1 0xA0 ADD MSTORE PUSH2 0x205E SWAP2 PUSH2 0x2914 JUMP JUMPDEST PUSH2 0x4A0 MLOAD DUP1 DUP3 SUB SWAP1 PUSH1 0xC0 ADD MSTORE PUSH2 0x2073 SWAP2 PUSH2 0x2914 JUMP JUMPDEST PUSH2 0x4A0 MLOAD DUP1 DUP3 SUB SWAP1 PUSH1 0xE0 ADD MSTORE PUSH2 0x2088 SWAP2 PUSH2 0x2914 JUMP JUMPDEST PUSH2 0x4A0 MLOAD DUP1 DUP3 SUB SWAP1 PUSH2 0x100 ADD MSTORE PUSH2 0x209E SWAP2 PUSH2 0x2914 JUMP JUMPDEST PUSH2 0x4A0 MLOAD DUP1 DUP3 SUB SWAP1 PUSH2 0x120 ADD MSTORE PUSH2 0x20B4 SWAP2 PUSH2 0x2914 JUMP JUMPDEST PUSH2 0x4A0 MLOAD DUP1 DUP3 SUB SWAP1 PUSH2 0x140 ADD MSTORE PUSH2 0x20CA SWAP2 PUSH2 0x2914 JUMP JUMPDEST PUSH2 0x4A0 MLOAD DUP1 DUP3 SUB SWAP1 PUSH2 0x160 ADD MSTORE PUSH2 0x20E0 SWAP2 PUSH2 0x2914 JUMP JUMPDEST PUSH2 0x4A0 MLOAD DUP1 DUP3 SUB SWAP1 PUSH2 0x180 ADD MSTORE PUSH2 0x20F6 SWAP2 PUSH2 0x2914 JUMP JUMPDEST PUSH2 0x4A0 MLOAD DUP1 DUP3 SUB SWAP1 PUSH2 0x1A0 ADD MSTORE PUSH2 0x210C SWAP2 PUSH2 0x2914 JUMP JUMPDEST PUSH2 0x4A0 MLOAD DUP1 DUP3 SUB SWAP1 PUSH2 0x1C0 ADD MSTORE PUSH2 0x2122 SWAP2 PUSH2 0x2914 JUMP JUMPDEST PUSH2 0x4A0 MLOAD DUP1 DUP3 SUB SWAP1 PUSH2 0x1E0 ADD MSTORE PUSH2 0x2138 SWAP2 PUSH2 0x2914 JUMP JUMPDEST PUSH2 0x4A0 MLOAD DUP1 DUP3 SUB SWAP1 PUSH2 0x200 ADD MSTORE PUSH2 0x460 MLOAD SWAP1 PUSH2 0x2153 SWAP2 PUSH2 0x2914 JUMP JUMPDEST PUSH2 0x4A0 MLOAD DUP1 DUP3 SUB SWAP1 PUSH2 0x220 ADD MSTORE PUSH2 0x300 MLOAD SWAP1 PUSH2 0x216E SWAP2 PUSH2 0x2914 JUMP JUMPDEST PUSH2 0x4A0 MLOAD DUP1 DUP3 SUB SWAP1 PUSH2 0x240 ADD MSTORE PUSH2 0x1E0 MLOAD SWAP1 PUSH2 0x2189 SWAP2 PUSH2 0x2914 JUMP JUMPDEST PUSH2 0x4A0 MLOAD DUP1 DUP3 SUB SWAP1 PUSH2 0x260 ADD MSTORE PUSH2 0x360 MLOAD SWAP1 PUSH2 0x21A4 SWAP2 PUSH2 0x2914 JUMP JUMPDEST PUSH2 0x4A0 MLOAD DUP1 DUP3 SUB SWAP1 PUSH2 0x280 ADD MSTORE PUSH2 0x260 MLOAD SWAP1 PUSH2 0x21BF SWAP2 PUSH2 0x2914 JUMP JUMPDEST PUSH2 0x4A0 MLOAD DUP1 DUP3 SUB SWAP1 PUSH2 0x2A0 ADD MSTORE PUSH2 0x4A0 MLOAD SWAP1 PUSH1 0xC0 MLOAD SWAP1 PUSH2 0x21DE SWAP2 PUSH2 0x2914 JUMP JUMPDEST SUB PUSH2 0x4A0 MLOAD RETURN JUMPDEST CALLVALUE PUSH2 0x1DDA JUMPI PUSH1 0x0 CALLDATASIZE PUSH1 0x3 NOT ADD SLT PUSH2 0x1DDA JUMPI PUSH1 0x20 PUSH1 0x2 SLOAD PUSH1 0x40 MLOAD SWAP1 DUP2 MSTORE RETURN JUMPDEST CALLVALUE PUSH2 0x1DDA JUMPI PUSH1 0x20 CALLDATASIZE PUSH1 0x3 NOT ADD SLT PUSH2 0x1DDA JUMPI PUSH1 0x4 CALLDATALOAD PUSH1 0x1 PUSH1 0x1 PUSH1 0x40 SHL SUB DUP2 GT PUSH2 0x1DDA JUMPI PUSH2 0x2233 SWAP1 CALLDATASIZE SWAP1 PUSH1 0x4 ADD PUSH2 0x2939 JUMP JUMPDEST SWAP1 PUSH1 0x40 MLOAD PUSH2 0x2240 DUP2 PUSH2 0x280E JUMP JUMPDEST PUSH1 0x60 DUP2 MSTORE PUSH1 0x20 DUP2 ADD PUSH1 0x60 SWAP1 MSTORE PUSH1 0x40 DUP2 ADD PUSH1 0x60 SWAP1 MSTORE PUSH1 0x60 DUP2 ADD PUSH1 0x60 SWAP1 MSTORE PUSH1 0x80 DUP2 ADD PUSH1 0x60 SWAP1 MSTORE PUSH1 0xA0 DUP2 ADD PUSH1 0x60 SWAP1 MSTORE PUSH1 0xC0 DUP2 ADD PUSH1 0x60 SWAP1 MSTORE PUSH1 0xE0 DUP2 ADD PUSH1 0x60 SWAP1 MSTORE PUSH2 0x100 DUP2 ADD PUSH1 0x60 SWAP1 MSTORE PUSH2 0x120 DUP2 ADD PUSH1 0x60 SWAP1 MSTORE PUSH2 0x140 DUP2 ADD PUSH1 0x60 SWAP1 MSTORE PUSH2 0x160 DUP2 ADD PUSH1 0x60 SWAP1 MSTORE PUSH2 0x180 DUP2 ADD PUSH1 0x60 SWAP1 MSTORE PUSH2 0x1A0 DUP2 ADD PUSH1 0x60 SWAP1 MSTORE PUSH2 0x1C0 DUP2 ADD PUSH1 0x60 SWAP1 MSTORE PUSH2 0x1E0 DUP2 ADD PUSH1 0x60 SWAP1 MSTORE PUSH2 0x200 DUP2 ADD PUSH1 0x60 SWAP1 MSTORE PUSH2 0x220 DUP2 ADD PUSH1 0x60 SWAP1 MSTORE PUSH2 0x240 DUP2 ADD PUSH1 0x60 SWAP1 MSTORE PUSH2 0x260 DUP2 ADD PUSH1 0x60 SWAP1 MSTORE PUSH2 0x280 DUP2 ADD PUSH1 0x60 SWAP1 MSTORE PUSH2 0x2A0 ADD PUSH1 0x60 SWAP1 MSTORE DUP2 PUSH1 0x40 MLOAD SWAP3 DUP4 SWAP3 DUP4 CALLDATACOPY DUP2 ADD PUSH1 0x1 DUP2 MSTORE SUB PUSH1 0x20 ADD SWAP1 KECCAK256 PUSH1 0x40 MLOAD SWAP1 PUSH2 0x231B DUP3 PUSH2 0x280E JUMP JUMPDEST PUSH2 0x2324 DUP2 PUSH2 0x284B JUMP JUMPDEST DUP3 MSTORE PUSH2 0x2332 PUSH1 0x1 DUP3 ADD PUSH2 0x284B JUMP JUMPDEST PUSH1 0x20 DUP4 ADD MSTORE PUSH2 0x2343 PUSH1 0x2 DUP3 ADD PUSH2 0x284B JUMP JUMPDEST PUSH1 0x40 DUP4 ADD MSTORE PUSH2 0x2354 PUSH1 0x3 DUP3 ADD PUSH2 0x284B JUMP JUMPDEST PUSH1 0x60 DUP4 ADD MSTORE PUSH2 0x2365 PUSH1 0x4 DUP3 ADD PUSH2 0x284B JUMP JUMPDEST PUSH1 0x80 DUP4 ADD MSTORE PUSH2 0x2376 PUSH1 0x5 DUP3 ADD PUSH2 0x284B JUMP JUMPDEST PUSH1 0xA0 DUP4 ADD MSTORE PUSH2 0x2387 PUSH1 0x6 DUP3 ADD PUSH2 0x284B JUMP JUMPDEST PUSH1 0xC0 DUP4 ADD MSTORE PUSH2 0x2398 PUSH1 0x7 DUP3 ADD PUSH2 0x284B JUMP JUMPDEST PUSH1 0xE0 DUP4 ADD MSTORE PUSH2 0x23A9 PUSH1 0x8 DUP3 ADD PUSH2 0x284B JUMP JUMPDEST PUSH2 0x100 DUP4 ADD MSTORE PUSH2 0x23BB PUSH1 0x9 DUP3 ADD PUSH2 0x284B JUMP JUMPDEST PUSH2 0x120 DUP4 ADD MSTORE PUSH2 0x23CD PUSH1 0xA DUP3 ADD PUSH2 0x284B JUMP JUMPDEST PUSH2 0x140 DUP4 ADD MSTORE PUSH2 0x23DF PUSH1 0xB DUP3 ADD PUSH2 0x284B JUMP JUMPDEST PUSH2 0x160 DUP4 ADD MSTORE PUSH2 0x23F1 PUSH1 0xC DUP3 ADD PUSH2 0x284B JUMP JUMPDEST PUSH2 0x180 DUP4 ADD MSTORE PUSH2 0x2403 PUSH1 0xD DUP3 ADD PUSH2 0x284B JUMP JUMPDEST PUSH2 0x1A0 DUP4 ADD MSTORE PUSH2 0x2415 PUSH1 0xE DUP3 ADD PUSH2 0x284B JUMP JUMPDEST PUSH2 0x1C0 DUP4 ADD MSTORE PUSH2 0x2427 PUSH1 0xF DUP3 ADD PUSH2 0x284B JUMP JUMPDEST PUSH2 0x1E0 DUP4 ADD MSTORE PUSH2 0x2439 PUSH1 0x10 DUP3 ADD PUSH2 0x284B JUMP JUMPDEST PUSH2 0x200 DUP4 ADD MSTORE PUSH2 0x244B PUSH1 0x11 DUP3 ADD PUSH2 0x284B JUMP JUMPDEST PUSH2 0x220 DUP4 ADD MSTORE PUSH2 0x245D PUSH1 0x12 DUP3 ADD PUSH2 0x284B JUMP JUMPDEST PUSH2 0x240 DUP4 ADD MSTORE PUSH2 0x246F PUSH1 0x13 DUP3 ADD PUSH2 0x284B JUMP JUMPDEST PUSH2 0x260 DUP4 ADD MSTORE PUSH2 0x2481 PUSH1 0x14 DUP3 ADD PUSH2 0x284B JUMP JUMPDEST PUSH2 0x280 DUP4 ADD MSTORE PUSH1 0x15 ADD PUSH2 0x2493 SWAP1 PUSH2 0x284B JUMP JUMPDEST PUSH2 0x2A0 DUP3 ADD MSTORE PUSH1 0x40 MLOAD DUP1 SWAP2 PUSH1 0x20 DUP3 MSTORE DUP1 MLOAD PUSH1 0x20 DUP4 ADD PUSH2 0x2C0 SWAP1 MSTORE PUSH2 0x2E0 DUP4 ADD PUSH2 0x24BB SWAP2 PUSH2 0x2914 JUMP JUMPDEST PUSH1 0x20 DUP3 ADD MLOAD DUP4 DUP3 SUB PUSH1 0x1F NOT ADD PUSH1 0x40 DUP6 ADD MSTORE PUSH2 0x24D6 SWAP2 SWAP1 PUSH2 0x2914 JUMP JUMPDEST PUSH1 0x40 DUP3 ADD MLOAD DUP4 DUP3 SUB PUSH1 0x1F NOT ADD PUSH1 0x60 DUP6 ADD MSTORE PUSH2 0x24F1 SWAP2 SWAP1 PUSH2 0x2914 JUMP JUMPDEST PUSH1 0x60 DUP3 ADD MLOAD DUP4 DUP3 SUB PUSH1 0x1F NOT ADD PUSH1 0x80 DUP6 ADD MSTORE PUSH2 0x250C SWAP2 SWAP1 PUSH2 0x2914 JUMP JUMPDEST PUSH1 0x80 DUP3 ADD MLOAD DUP4 DUP3 SUB PUSH1 0x1F NOT ADD PUSH1 0xA0 DUP6 ADD MSTORE PUSH2 0x2527 SWAP2 SWAP1 PUSH2 0x2914 JUMP JUMPDEST PUSH1 0xA0 DUP3 ADD MLOAD DUP4 DUP3 SUB PUSH1 0x1F NOT ADD PUSH1 0xC0 DUP6 ADD MSTORE PUSH2 0x2542 SWAP2 SWAP1 PUSH2 0x2914 JUMP JUMPDEST PUSH1 0xC0 DUP3 ADD MLOAD DUP4 DUP3 SUB PUSH1 0x1F NOT ADD PUSH1 0xE0 DUP6 ADD MSTORE PUSH2 0x255D SWAP2 SWAP1 PUSH2 0x2914 JUMP JUMPDEST PUSH1 0xE0 DUP3 ADD MLOAD DUP4 DUP3 SUB PUSH1 0x1F NOT ADD PUSH2 0x100 DUP6 ADD MSTORE PUSH2 0x2579 SWAP2 SWAP1 PUSH2 0x2914 JUMP JUMPDEST PUSH2 0x100 DUP3 ADD MLOAD DUP4 DUP3 SUB PUSH1 0x1F NOT ADD PUSH2 0x120 DUP6 ADD MSTORE PUSH2 0x2596 SWAP2 SWAP1 PUSH2 0x2914 JUMP JUMPDEST PUSH2 0x120 DUP3 ADD MLOAD DUP4 DUP3 SUB PUSH1 0x1F NOT ADD PUSH2 0x140 DUP6 ADD MSTORE PUSH2 0x25B3 SWAP2 SWAP1 PUSH2 0x2914 JUMP JUMPDEST PUSH2 0x140 DUP3 ADD MLOAD DUP4 DUP3 SUB PUSH1 0x1F NOT ADD PUSH2 0x160 DUP6 ADD MSTORE PUSH2 0x25D0 SWAP2 SWAP1 PUSH2 0x2914 JUMP JUMPDEST PUSH2 0x160 DUP3 ADD MLOAD DUP4 DUP3 SUB PUSH1 0x1F NOT ADD PUSH2 0x180 DUP6 ADD MSTORE PUSH2 0x25ED SWAP2 SWAP1 PUSH2 0x2914 JUMP JUMPDEST PUSH2 0x180 DUP3 ADD MLOAD DUP4 DUP3 SUB PUSH1 0x1F NOT ADD PUSH2 0x1A0 DUP6 ADD MSTORE PUSH2 0x260A SWAP2 SWAP1 PUSH2 0x2914 JUMP JUMPDEST PUSH2 0x1A0 DUP3 ADD MLOAD DUP4 DUP3 SUB PUSH1 0x1F NOT ADD PUSH2 0x1C0 DUP6 ADD MSTORE PUSH2 0x2627 SWAP2 SWAP1 PUSH2 0x2914 JUMP JUMPDEST PUSH2 0x1C0 DUP3 ADD MLOAD DUP4 DUP3 SUB PUSH1 0x1F NOT ADD PUSH2 0x1E0 DUP6 ADD MSTORE PUSH2 0x2644 SWAP2 SWAP1 PUSH2 0x2914 JUMP JUMPDEST PUSH2 0x1E0 DUP3 ADD MLOAD DUP4 DUP3 SUB PUSH1 0x1F NOT ADD PUSH2 0x200 DUP6 ADD MSTORE PUSH2 0x2661 SWAP2 SWAP1 PUSH2 0x2914 JUMP JUMPDEST PUSH2 0x200 DUP3 ADD MLOAD DUP4 DUP3 SUB PUSH1 0x1F NOT ADD PUSH2 0x220 DUP6 ADD MSTORE PUSH2 0x267E SWAP2 SWAP1 PUSH2 0x2914 JUMP JUMPDEST PUSH2 0x220 DUP3 ADD MLOAD DUP4 DUP3 SUB PUSH1 0x1F NOT ADD PUSH2 0x240 DUP6 ADD MSTORE PUSH2 0x269B SWAP2 SWAP1 PUSH2 0x2914 JUMP JUMPDEST PUSH2 0x240 DUP3 ADD MLOAD DUP4 DUP3 SUB PUSH1 0x1F NOT ADD PUSH2 0x260 DUP6 ADD MSTORE PUSH2 0x26B8 SWAP2 SWAP1 PUSH2 0x2914 JUMP JUMPDEST PUSH2 0x260 DUP3 ADD MLOAD DUP4 DUP3 SUB PUSH1 0x1F NOT ADD PUSH2 0x280 DUP6 ADD MSTORE PUSH2 0x26D5 SWAP2 SWAP1 PUSH2 0x2914 JUMP JUMPDEST PUSH2 0x280 DUP3 ADD MLOAD DUP4 DUP3 SUB PUSH1 0x1F NOT ADD PUSH2 0x2A0 DUP6 ADD MSTORE PUSH2 0x26F2 SWAP2 SWAP1 PUSH2 0x2914 JUMP JUMPDEST SWAP1 PUSH2 0x2A0 ADD MLOAD SWAP1 PUSH1 0x1F NOT DUP4 DUP3 SUB ADD PUSH2 0x2C0 DUP5 ADD MSTORE PUSH2 0x270F SWAP2 PUSH2 0x2914 JUMP JUMPDEST SUB SWAP1 RETURN JUMPDEST CALLVALUE PUSH2 0x1DDA JUMPI PUSH1 0x0 CALLDATASIZE PUSH1 0x3 NOT ADD SLT PUSH2 0x1DDA JUMPI PUSH1 0x0 SLOAD PUSH1 0x40 MLOAD PUSH1 0x1 PUSH1 0x1 PUSH1 0xA0 SHL SUB SWAP1 SWAP2 AND DUP2 MSTORE PUSH1 0x20 SWAP1 RETURN JUMPDEST CALLVALUE PUSH2 0x1DDA JUMPI PUSH1 0x20 CALLDATASIZE PUSH1 0x3 NOT ADD SLT PUSH2 0x1DDA JUMPI PUSH1 0x4 CALLDATALOAD PUSH1 0x2 SLOAD DUP2 LT ISZERO PUSH2 0x1DDA JUMPI PUSH2 0x2763 SWAP1 PUSH2 0x2787 JUMP JUMPDEST PUSH2 0x12DB JUMPI PUSH2 0x2773 PUSH2 0x270F SWAP2 PUSH2 0x284B JUMP JUMPDEST PUSH1 0x40 MLOAD SWAP2 DUP3 SWAP2 PUSH1 0x20 DUP4 MSTORE PUSH1 0x20 DUP4 ADD SWAP1 PUSH2 0x2914 JUMP JUMPDEST PUSH1 0x2 SLOAD DUP2 LT ISZERO PUSH2 0x27BE JUMPI PUSH1 0x2 PUSH1 0x0 MSTORE PUSH32 0x405787FA12A823E0F2B7631CC41B3BA8828B3321CA811111FA75CD3AA3BB5ACE ADD SWAP1 PUSH1 0x0 SWAP1 JUMP JUMPDEST PUSH4 0x4E487B71 PUSH1 0xE0 SHL PUSH1 0x0 MSTORE PUSH1 0x32 PUSH1 0x4 MSTORE PUSH1 0x24 PUSH1 0x0 REVERT JUMPDEST SWAP1 PUSH1 0x1 DUP3 DUP2 SHR SWAP3 AND DUP1 ISZERO PUSH2 0x2804 JUMPI JUMPDEST PUSH1 0x20 DUP4 LT EQ PUSH2 0x27EE JUMPI JUMP JUMPDEST PUSH4 0x4E487B71 PUSH1 0xE0 SHL PUSH1 0x0 MSTORE PUSH1 0x22 PUSH1 0x4 MSTORE PUSH1 0x24 PUSH1 0x0 REVERT JUMPDEST SWAP2 PUSH1 0x7F AND SWAP2 PUSH2 0x27E3 JUMP JUMPDEST PUSH2 0x2C0 DUP2 ADD SWAP1 DUP2 LT PUSH1 0x1 PUSH1 0x1 PUSH1 0x40 SHL SUB DUP3 GT OR PUSH2 0x12C5 JUMPI PUSH1 0x40 MSTORE JUMP JUMPDEST SWAP1 PUSH1 0x1F DUP1 NOT SWAP2 ADD AND DUP2 ADD SWAP1 DUP2 LT PUSH1 0x1 PUSH1 0x1 PUSH1 0x40 SHL SUB DUP3 GT OR PUSH2 0x12C5 JUMPI PUSH1 0x40 MSTORE JUMP JUMPDEST SWAP1 PUSH1 0x40 MLOAD SWAP2 DUP3 PUSH1 0x0 DUP3 SLOAD SWAP3 PUSH2 0x285F DUP5 PUSH2 0x27D4 JUMP JUMPDEST SWAP1 DUP2 DUP5 MSTORE PUSH1 0x1 SWAP5 DUP6 DUP2 AND SWAP1 DUP2 PUSH1 0x0 EQ PUSH2 0x28CE JUMPI POP PUSH1 0x1 EQ PUSH2 0x288B JUMPI JUMPDEST POP POP PUSH2 0x2889 SWAP3 POP SUB DUP4 PUSH2 0x282A JUMP JUMPDEST JUMP JUMPDEST SWAP1 SWAP4 SWAP2 POP PUSH1 0x0 MSTORE PUSH1 0x20 SWAP1 DUP2 PUSH1 0x0 KECCAK256 SWAP4 PUSH1 0x0 SWAP2 JUMPDEST DUP2 DUP4 LT PUSH2 0x28B6 JUMPI POP POP PUSH2 0x2889 SWAP4 POP DUP3 ADD ADD CODESIZE DUP1 PUSH2 0x287B JUMP JUMPDEST DUP6 SLOAD DUP9 DUP5 ADD DUP6 ADD MSTORE SWAP5 DUP6 ADD SWAP5 DUP8 SWAP5 POP SWAP2 DUP4 ADD SWAP2 PUSH2 0x289E JUMP JUMPDEST SWAP2 POP POP PUSH2 0x2889 SWAP5 POP PUSH1 0x20 SWAP3 POP PUSH1 0xFF NOT AND DUP3 DUP5 ADD MSTORE ISZERO ISZERO PUSH1 0x5 SHL DUP3 ADD ADD CODESIZE DUP1 PUSH2 0x287B JUMP JUMPDEST PUSH1 0x0 JUMPDEST DUP4 DUP2 LT PUSH2 0x2904 JUMPI POP POP PUSH1 0x0 SWAP2 ADD MSTORE JUMP JUMPDEST DUP2 DUP2 ADD MLOAD DUP4 DUP3 ADD MSTORE PUSH1 0x20 ADD PUSH2 0x28F4 JUMP JUMPDEST SWAP1 PUSH1 0x20 SWAP2 PUSH2 0x292D DUP2 MLOAD DUP1 SWAP3 DUP2 DUP6 MSTORE DUP6 DUP1 DUP7 ADD SWAP2 ADD PUSH2 0x28F1 JUMP JUMPDEST PUSH1 0x1F ADD PUSH1 0x1F NOT AND ADD ADD SWAP1 JUMP JUMPDEST SWAP2 DUP2 PUSH1 0x1F DUP5 ADD SLT ISZERO PUSH2 0x1DDA JUMPI DUP3 CALLDATALOAD SWAP2 PUSH1 0x1 PUSH1 0x1 PUSH1 0x40 SHL SUB DUP4 GT PUSH2 0x1DDA JUMPI PUSH1 0x20 DUP4 DUP2 DUP7 ADD SWAP6 ADD ADD GT PUSH2 0x1DDA JUMPI JUMP JUMPDEST SWAP3 SWAP2 SWAP3 PUSH1 0x1 PUSH1 0x1 PUSH1 0x40 SHL SUB DUP3 GT PUSH2 0x12C5 JUMPI PUSH1 0x40 MLOAD SWAP2 PUSH2 0x298F PUSH1 0x1F DUP3 ADD PUSH1 0x1F NOT AND PUSH1 0x20 ADD DUP5 PUSH2 0x282A JUMP JUMPDEST DUP3 SWAP5 DUP2 DUP5 MSTORE DUP2 DUP4 ADD GT PUSH2 0x1DDA JUMPI DUP3 DUP2 PUSH1 0x20 SWAP4 DUP5 PUSH1 0x0 SWAP7 ADD CALLDATACOPY ADD ADD MSTORE JUMP JUMPDEST SWAP1 PUSH1 0x1F DUP2 GT PUSH2 0x29BA JUMPI POP POP POP JUMP JUMPDEST PUSH1 0x0 SWAP2 DUP3 MSTORE PUSH1 0x20 DUP3 KECCAK256 SWAP1 PUSH1 0x20 PUSH1 0x1F DUP6 ADD PUSH1 0x5 SHR DUP4 ADD SWAP5 LT PUSH2 0x29F6 JUMPI JUMPDEST PUSH1 0x1F ADD PUSH1 0x5 SHR ADD SWAP2 JUMPDEST DUP3 DUP2 LT PUSH2 0x29EB JUMPI POP POP POP JUMP JUMPDEST DUP2 DUP2 SSTORE PUSH1 0x1 ADD PUSH2 0x29DF JUMP JUMPDEST SWAP1 SWAP3 POP DUP3 SWAP1 PUSH2 0x29D6 JUMP JUMPDEST SWAP1 DUP1 PUSH1 0x20 SWAP4 SWAP3 DUP2 DUP5 MSTORE DUP5 DUP5 ADD CALLDATACOPY PUSH1 0x0 DUP3 DUP3 ADD DUP5 ADD MSTORE PUSH1 0x1F ADD PUSH1 0x1F NOT AND ADD ADD SWAP1 JUMP INVALID LOG2 PUSH5 0x6970667358 0x22 SLT KECCAK256 0xE8 0xBB PUSH7 0x9ECA4B1BC5C480 AND PUSH18 0xB705171EF2572D9F4602250A22BA772F48C8 SWAP9 OR PUSH5 0x736F6C6343 STOP ADDMOD EQ STOP CALLER "},"methodIdentifiers":{"codices(string)":"dbc21424","getCodex(string)":"83361522","inscribeCodex(string,string,string,string,string,string,string,string,string,string,string,string,string,string,string,string,string,string,string,string,string,string,string)":"dde3d2ec","keys(uint256)":"0cb6aaf1","steward()":"637eea19","totalCodices()":"c212d16b"}}}}}