{"contracts/registry/ApprenticeSummonerX.sol":{"ApprenticeSummonerX":{"abi":[{"inputs":[],"stateMutability":"nonpayable","type":"constructor"},{"anonymous":false,"inputs":[{"indexed":true,"internalType":"address","name":"apprentice","type":"address"},{"indexed":false,"internalType":"string","name":"name","type":"string"},{"indexed":false,"internalType":"string","name":"signal","type":"string"},{"indexed":false,"internalType":"string","name":"drift","type":"string"},{"indexed":false,"internalType":"string","name":"pulse","type":"string"},{"indexed":false,"internalType":"string","name":"codexRef","type":"string"},{"indexed":false,"internalType":"string","name":"resonance","type":"string"},{"indexed":false,"internalType":"string","name":"signature","type":"string"},{"indexed":false,"internalType":"string","name":"sanctum","type":"string"},{"indexed":false,"internalType":"string","name":"choreography","type":"string"}],"name":"ApprenticeSummoned","type":"event"},{"inputs":[{"internalType":"uint256","name":"","type":"uint256"}],"name":"apprentices","outputs":[{"internalType":"address","name":"","type":"address"}],"stateMutability":"view","type":"function"},{"inputs":[{"internalType":"address","name":"apprentice","type":"address"}],"name":"getSummons","outputs":[{"components":[{"internalType":"string","name":"name","type":"string"},{"internalType":"string","name":"signal","type":"string"},{"internalType":"string","name":"drift","type":"string"},{"internalType":"string","name":"pulse","type":"string"},{"internalType":"string","name":"codexRef","type":"string"},{"internalType":"string","name":"resonance","type":"string"},{"internalType":"string","name":"signature","type":"string"},{"internalType":"string","name":"sanctum","type":"string"},{"internalType":"string","name":"choreography","type":"string"}],"internalType":"struct ApprenticeSummonerX.Summons","name":"","type":"tuple"}],"stateMutability":"view","type":"function"},{"inputs":[],"name":"steward","outputs":[{"internalType":"address","name":"","type":"address"}],"stateMutability":"view","type":"function"},{"inputs":[{"internalType":"address","name":"apprentice","type":"address"},{"internalType":"string","name":"name","type":"string"},{"internalType":"string","name":"signal","type":"string"},{"internalType":"string","name":"drift","type":"string"},{"internalType":"string","name":"pulse","type":"string"},{"internalType":"string","name":"codexRef","type":"string"},{"internalType":"string","name":"resonance","type":"string"},{"internalType":"string","name":"signature","type":"string"},{"internalType":"string","name":"sanctum","type":"string"},{"internalType":"string","name":"choreography","type":"string"}],"name":"summonApprentice","outputs":[],"stateMutability":"nonpayable","type":"function"},{"inputs":[{"internalType":"address","name":"","type":"address"}],"name":"summons","outputs":[{"internalType":"string","name":"name","type":"string"},{"internalType":"string","name":"signal","type":"string"},{"internalType":"string","name":"drift","type":"string"},{"internalType":"string","name":"pulse","type":"string"},{"internalType":"string","name":"codexRef","type":"string"},{"internalType":"string","name":"resonance","type":"string"},{"internalType":"string","name":"signature","type":"string"},{"internalType":"string","name":"sanctum","type":"string"},{"internalType":"string","name":"choreography","type":"string"}],"stateMutability":"view","type":"function"},{"inputs":[],"name":"totalSummons","outputs":[{"internalType":"uint256","name":"","type":"uint256"}],"stateMutability":"view","type":"function"}],"evm":{"bytecode":{"linkReferences":{},"object":"6080806040523461002857600080546001600160a01b0319163317905561158b908161002e8239f35b600080fdfe61032080604052600436101561001457600080fd5b60003560e01c9081632a17d4cd146112e6575080635a2ed662146111a8578063637eea191461117f578063c91f2b33146102a4578063cf84c603146100a95763f31bee3e1461006257600080fd5b346100a45760203660031901126100a4576004356002548110156100a45761008b6020916114a1565b905460405160039290921b1c6001600160a01b03168152f35b600080fd5b346100a4576020806003193601126100a4576100c3611301565b906040516100d081611351565b606092838252838383015283604083015283808301528360808301528360a08301528360c08301528360e08301528361010080930152600160a01b6001900316600052600182526040600020926040519261012a84611351565b6101338561138e565b84526101416001860161138e565b848201908152926101546002870161138e565b60408601908152956101686003820161138e565b86850190815261017a6004830161138e565b6080880190815261018d6005840161138e565b60a08901908152906101a16006850161138e565b60c08a01908152926101b56007860161138e565b9460e08b019586526008016101c99061138e565b97868b019889526040519b8c9b898d52518c6101209a8b9101526101408d016101f191611434565b9a51601f198d8d03810160408f01529b61020a91611434565b9051918b8d830301908d015261021f91611434565b905190898b82030160808c015261023591611434565b905190888a82030160a08b015261024b91611434565b905190878982030160c08a015261026191611434565b905190868882030160e089015261027791611434565b90519185878303019087015261028c91611434565b91519284830301908401526102a091611434565b0390f35b346100a4576101403660031901126100a4576102be611301565b60c0526024356001600160401b0381116100a4576102e0903690600401611474565b61010052610240526044356001600160401b0381116100a457610307903690600401611474565b6101a0526102a0526064356001600160401b0381116100a45761032e903690600401611474565b61020052610300526084356001600160401b0381116100a457610355903690600401611474565b6102c0526101e05260a4356001600160401b0381116100a45761037c903690600401611474565b60a0526101c05260c4356001600160401b0381116100a4576103a2903690600401611474565b610140526102805260e4356001600160401b0381116100a4576103c9903690600401611474565b61012052610260526001600160401b0361010435116100a4576103f23661010435600401611474565b60e05261018052610124356001600160401b0381116100a457610419903690600401611474565b608052610220526000546001600160a01b0316330361114c57610442604051806102e052611351565b6104533661010051610240516114ee565b6102e05152610469366101a0516102a0516114ee565b60206102e05101526104823661020051610300516114ee565b60406102e051015261049b366102c0516101e0516114ee565b60606102e05101526104b33660a0516101c0516114ee565b60806102e05101526104cc3661014051610280516114ee565b60a06102e05101526104e53661012051610260516114ee565b60c06102e05101526104fd3660e051610180516114ee565b60e06102e051015261051536608051610220516114ee565b6101006102e051015260018060a01b0360c05116600052600160205260406000206102e051519081516001600160401b038111610a12576105568254611317565b601f8111611108575b506020601f82116001146110a357819293600092611098575b50508160011b916000199060031b1c19161781555b60206102e05101518051906001600160401b038211610a125781906105b56001850154611317565b601f8111611045575b50602090601f8311600114610fd357600092610fc8575b50508160011b916000199060031b1c19161760018201555b60406102e05101518051906001600160401b038211610a125781906106156002850154611317565b601f8111610f75575b50602090601f8311600114610f0357600092610ef8575b50508160011b916000199060031b1c19161760028201555b60606102e05101518051906001600160401b038211610a125781906106756003850154611317565b601f8111610ea5575b50602090601f8311600114610e3357600092610e28575b50508160011b916000199060031b1c19161760038201555b60806102e05101518051906001600160401b038211610a125781906106d56004850154611317565b601f8111610dd5575b50602090601f8311600114610d6357600092610d58575b50508160011b916000199060031b1c19161760048201555b60a06102e05101518051906001600160401b038211610a125781906107356005850154611317565b601f8111610d05575b50602090601f8311600114610c9357600092610c88575b50508160011b916000199060031b1c19161760058201555b60c06102e05101518051906001600160401b038211610a125781906107956006850154611317565b601f8111610c35575b50602090601f8311600114610bc357600092610bb8575b50508160011b916000199060031b1c19161760068201555b60e06102e05101518051906001600160401b038211610a125781906107f56007850154611317565b601f8111610b65575b50602090601f8311600114610af357600092610ae8575b50508160011b916000199060031b1c19161760078201555b6101006102e05101518051906001600160401b038211610a12576108546008840154611317565b601f8111610aa1575b50602090601f8311600114610a33576008929160009183610a28575b50508160011b916000199060031b1c1916179101555b60025468010000000000000000811015610a12578060016108b392016002556114a1565b81549060031b9060018060a01b0360c05116821b9160018060a01b03901b19161790556101206040518061016052526109bc6109a461098b61097261095a61094161092861090f61012061016051016101005161024051611534565b6101605160208183039101526101a0516102a051611534565b6101605160408183039101526102005161030051611534565b6101605160608183039101526102c0516101e051611534565b61016051608081830391015260a0516101c051611534565b6101605160a08183039101526101405161028051611534565b6101605160c08183039101526101205161026051611534565b6101605160e081830391015260e05161018051611534565b610160516101008183039101527f35e2d56d6eac535901538b699d3477f791896e2466cbfc9f5d01349d2dcc4fb460018060a01b0360c0511691610a0a610160519160805161022051611534565b0361016051a2005b634e487b7160e01b600052604160045260246000fd5b015190508480610879565b90601f198316916008850160005260206000209260005b818110610a8957509160019391856008969410610a70575b505050811b0191015561088f565b015160001960f88460031b161c19169055848080610a62565b92936020600181928786015181550195019301610a4a565b600884016000526020600020601f840160051c810160208510610ae1575b601f830160051c82018110610ad557505061085d565b60008155600101610abf565b5080610abf565b015190508380610815565b9250600784016000526020600020906000935b601f1984168510610b4a576001945083601f19811610610b31575b505050811b01600782015561082d565b015160001960f88460031b161c19169055838080610b21565b81810151835560209485019460019093019290910190610b06565b909150600784016000526020600020601f840160051c810160208510610bb1575b90849392915b601f830160051c82018110610ba25750506107fe565b60008155859450600101610b8c565b5080610b86565b0151905083806107b5565b9250600684016000526020600020906000935b601f1984168510610c1a576001945083601f19811610610c01575b505050811b0160068201556107cd565b015160001960f88460031b161c19169055838080610bf1565b81810151835560209485019460019093019290910190610bd6565b909150600684016000526020600020601f840160051c810160208510610c81575b90849392915b601f830160051c82018110610c7257505061079e565b60008155859450600101610c5c565b5080610c56565b015190508380610755565b9250600584016000526020600020906000935b601f1984168510610cea576001945083601f19811610610cd1575b505050811b01600582015561076d565b015160001960f88460031b161c19169055838080610cc1565b81810151835560209485019460019093019290910190610ca6565b909150600584016000526020600020601f840160051c810160208510610d51575b90849392915b601f830160051c82018110610d4257505061073e565b60008155859450600101610d2c565b5080610d26565b0151905083806106f5565b9250600484016000526020600020906000935b601f1984168510610dba576001945083601f19811610610da1575b505050811b01600482015561070d565b015160001960f88460031b161c19169055838080610d91565b81810151835560209485019460019093019290910190610d76565b909150600484016000526020600020601f840160051c810160208510610e21575b90849392915b601f830160051c82018110610e125750506106de565b60008155859450600101610dfc565b5080610df6565b015190508380610695565b9250600384016000526020600020906000935b601f1984168510610e8a576001945083601f19811610610e71575b505050811b0160038201556106ad565b015160001960f88460031b161c19169055838080610e61565b81810151835560209485019460019093019290910190610e46565b909150600384016000526020600020601f840160051c810160208510610ef1575b90849392915b601f830160051c82018110610ee257505061067e565b60008155859450600101610ecc565b5080610ec6565b015190508380610635565b9250600284016000526020600020906000935b601f1984168510610f5a576001945083601f19811610610f41575b505050811b01600282015561064d565b015160001960f88460031b161c19169055838080610f31565b81810151835560209485019460019093019290910190610f16565b909150600284016000526020600020601f840160051c810160208510610fc1575b90849392915b601f830160051c82018110610fb257505061061e565b60008155859450600101610f9c565b5080610f96565b0151905083806105d5565b9250600184016000526020600020906000935b601f198416851061102a576001945083601f19811610611011575b505050811b0160018201556105ed565b015160001960f88460031b161c19169055838080611001565b81810151835560209485019460019093019290910190610fe6565b909150600184016000526020600020601f840160051c810160208510611091575b90849392915b601f830160051c820181106110825750506105be565b6000815585945060010161106c565b5080611066565b015190508380610578565b82600052602060002090600094601f198416955b8681106110f057508360019596106110d7575b505050811b01815561058d565b015160001960f88460031b161c191690558380806110ca565b919260206001819286850151815501940192016110b7565b826000526020600020601f830160051c810160208410611145575b601f830160051c8201811061113957505061055f565b60008155600101611123565b5080611123565b60405162461bcd60e51b815260206004820152600b60248201526a139bdd081cdd195dd85c9960aa1b6044820152606490fd5b346100a45760003660031901126100a4576000546040516001600160a01b039091168152602090f35b346100a45760203660031901126100a4576001600160a01b036111c9611301565b16600052600160205260406000206111e08161138e565b6111ec6001830161138e565b916111f96002820161138e565b906112066003820161138e565b6112126004830161138e565b61121e6005840161138e565b9061122b6006850161138e565b926112386007860161138e565b946008016112459061138e565b95604051988998610120808b528a0161125d91611434565b89810360208b015261126e91611434565b88810360408a015261127f91611434565b878103606089015261129091611434565b86810360808801526112a191611434565b85810360a08701526112b291611434565b84810360c08601526112c391611434565b83810360e08501526112d491611434565b8281036101008401526102a091611434565b346100a45760003660031901126100a4576020906002548152f35b600435906001600160a01b03821682036100a457565b90600182811c92168015611347575b602083101461133157565b634e487b7160e01b600052602260045260246000fd5b91607f1691611326565b61012081019081106001600160401b03821117610a1257604052565b90601f801991011681019081106001600160401b03821117610a1257604052565b90604051918260008254926113a284611317565b90818452600194858116908160001461141157506001146113ce575b50506113cc9250038361136d565b565b9093915060005260209081600020936000915b8183106113f95750506113cc935082010138806113be565b855488840185015294850194879450918301916113e1565b9150506113cc94506020925060ff191682840152151560051b82010138806113be565b919082519283825260005b848110611460575050826000602080949584010152601f8019910116010190565b60208183018101518483018201520161143f565b9181601f840112156100a4578235916001600160401b0383116100a457602083818601950101116100a457565b6002548110156114d85760026000527f405787fa12a823e0f2b7631cc41b3ba8828b3321ca811111fa75cd3aa3bb5ace0190600090565b634e487b7160e01b600052603260045260246000fd5b9291926001600160401b038211610a125760405191611517601f8201601f19166020018461136d565b8294818452818301116100a4578281602093846000960137010152565b908060209392818452848401376000828201840152601f01601f191601019056fea2646970667358221220523b679b418abcabf987deb5b2bc326fb706b30c15724a458db1034f1beb352064736f6c63430008140033","opcodes":"PUSH1 0x80 DUP1 PUSH1 0x40 MSTORE CALLVALUE PUSH2 0x28 JUMPI PUSH1 0x0 DUP1 SLOAD PUSH1 0x1 PUSH1 0x1 PUSH1 0xA0 SHL SUB NOT AND CALLER OR SWAP1 SSTORE PUSH2 0x158B SWAP1 DUP2 PUSH2 0x2E DUP3 CODECOPY RETURN JUMPDEST PUSH1 0x0 DUP1 REVERT INVALID PUSH2 0x320 DUP1 PUSH1 0x40 MSTORE PUSH1 0x4 CALLDATASIZE LT ISZERO PUSH2 0x14 JUMPI PUSH1 0x0 DUP1 REVERT JUMPDEST PUSH1 0x0 CALLDATALOAD PUSH1 0xE0 SHR SWAP1 DUP2 PUSH4 0x2A17D4CD EQ PUSH2 0x12E6 JUMPI POP DUP1 PUSH4 0x5A2ED662 EQ PUSH2 0x11A8 JUMPI DUP1 PUSH4 0x637EEA19 EQ PUSH2 0x117F JUMPI DUP1 PUSH4 0xC91F2B33 EQ PUSH2 0x2A4 JUMPI DUP1 PUSH4 0xCF84C603 EQ PUSH2 0xA9 JUMPI PUSH4 0xF31BEE3E EQ PUSH2 0x62 JUMPI PUSH1 0x0 DUP1 REVERT JUMPDEST CALLVALUE PUSH2 0xA4 JUMPI PUSH1 0x20 CALLDATASIZE PUSH1 0x3 NOT ADD SLT PUSH2 0xA4 JUMPI PUSH1 0x4 CALLDATALOAD PUSH1 0x2 SLOAD DUP2 LT ISZERO PUSH2 0xA4 JUMPI PUSH2 0x8B PUSH1 0x20 SWAP2 PUSH2 0x14A1 JUMP JUMPDEST SWAP1 SLOAD PUSH1 0x40 MLOAD PUSH1 0x3 SWAP3 SWAP1 SWAP3 SHL SHR PUSH1 0x1 PUSH1 0x1 PUSH1 0xA0 SHL SUB AND DUP2 MSTORE RETURN JUMPDEST PUSH1 0x0 DUP1 REVERT JUMPDEST CALLVALUE PUSH2 0xA4 JUMPI PUSH1 0x20 DUP1 PUSH1 0x3 NOT CALLDATASIZE ADD SLT PUSH2 0xA4 JUMPI PUSH2 0xC3 PUSH2 0x1301 JUMP JUMPDEST SWAP1 PUSH1 0x40 MLOAD PUSH2 0xD0 DUP2 PUSH2 0x1351 JUMP JUMPDEST PUSH1 0x60 SWAP3 DUP4 DUP3 MSTORE DUP4 DUP4 DUP4 ADD MSTORE DUP4 PUSH1 0x40 DUP4 ADD MSTORE DUP4 DUP1 DUP4 ADD MSTORE DUP4 PUSH1 0x80 DUP4 ADD MSTORE DUP4 PUSH1 0xA0 DUP4 ADD MSTORE DUP4 PUSH1 0xC0 DUP4 ADD MSTORE DUP4 PUSH1 0xE0 DUP4 ADD MSTORE DUP4 PUSH2 0x100 DUP1 SWAP4 ADD MSTORE PUSH1 0x1 PUSH1 0xA0 SHL PUSH1 0x1 SWAP1 SUB AND PUSH1 0x0 MSTORE PUSH1 0x1 DUP3 MSTORE PUSH1 0x40 PUSH1 0x0 KECCAK256 SWAP3 PUSH1 0x40 MLOAD SWAP3 PUSH2 0x12A DUP5 PUSH2 0x1351 JUMP JUMPDEST PUSH2 0x133 DUP6 PUSH2 0x138E JUMP JUMPDEST DUP5 MSTORE PUSH2 0x141 PUSH1 0x1 DUP7 ADD PUSH2 0x138E JUMP JUMPDEST DUP5 DUP3 ADD SWAP1 DUP2 MSTORE SWAP3 PUSH2 0x154 PUSH1 0x2 DUP8 ADD PUSH2 0x138E JUMP JUMPDEST PUSH1 0x40 DUP7 ADD SWAP1 DUP2 MSTORE SWAP6 PUSH2 0x168 PUSH1 0x3 DUP3 ADD PUSH2 0x138E JUMP JUMPDEST DUP7 DUP6 ADD SWAP1 DUP2 MSTORE PUSH2 0x17A PUSH1 0x4 DUP4 ADD PUSH2 0x138E JUMP JUMPDEST PUSH1 0x80 DUP9 ADD SWAP1 DUP2 MSTORE PUSH2 0x18D PUSH1 0x5 DUP5 ADD PUSH2 0x138E JUMP JUMPDEST PUSH1 0xA0 DUP10 ADD SWAP1 DUP2 MSTORE SWAP1 PUSH2 0x1A1 PUSH1 0x6 DUP6 ADD PUSH2 0x138E JUMP JUMPDEST PUSH1 0xC0 DUP11 ADD SWAP1 DUP2 MSTORE SWAP3 PUSH2 0x1B5 PUSH1 0x7 DUP7 ADD PUSH2 0x138E JUMP JUMPDEST SWAP5 PUSH1 0xE0 DUP12 ADD SWAP6 DUP7 MSTORE PUSH1 0x8 ADD PUSH2 0x1C9 SWAP1 PUSH2 0x138E JUMP JUMPDEST SWAP8 DUP7 DUP12 ADD SWAP9 DUP10 MSTORE PUSH1 0x40 MLOAD SWAP12 DUP13 SWAP12 DUP10 DUP14 MSTORE MLOAD DUP13 PUSH2 0x120 SWAP11 DUP12 SWAP2 ADD MSTORE PUSH2 0x140 DUP14 ADD PUSH2 0x1F1 SWAP2 PUSH2 0x1434 JUMP JUMPDEST SWAP11 MLOAD PUSH1 0x1F NOT DUP14 DUP14 SUB DUP2 ADD PUSH1 0x40 DUP16 ADD MSTORE SWAP12 PUSH2 0x20A SWAP2 PUSH2 0x1434 JUMP JUMPDEST SWAP1 MLOAD SWAP2 DUP12 DUP14 DUP4 SUB ADD SWAP1 DUP14 ADD MSTORE PUSH2 0x21F SWAP2 PUSH2 0x1434 JUMP JUMPDEST SWAP1 MLOAD SWAP1 DUP10 DUP12 DUP3 SUB ADD PUSH1 0x80 DUP13 ADD MSTORE PUSH2 0x235 SWAP2 PUSH2 0x1434 JUMP JUMPDEST SWAP1 MLOAD SWAP1 DUP9 DUP11 DUP3 SUB ADD PUSH1 0xA0 DUP12 ADD MSTORE PUSH2 0x24B SWAP2 PUSH2 0x1434 JUMP JUMPDEST SWAP1 MLOAD SWAP1 DUP8 DUP10 DUP3 SUB ADD PUSH1 0xC0 DUP11 ADD MSTORE PUSH2 0x261 SWAP2 PUSH2 0x1434 JUMP JUMPDEST SWAP1 MLOAD SWAP1 DUP7 DUP9 DUP3 SUB ADD PUSH1 0xE0 DUP10 ADD MSTORE PUSH2 0x277 SWAP2 PUSH2 0x1434 JUMP JUMPDEST SWAP1 MLOAD SWAP2 DUP6 DUP8 DUP4 SUB ADD SWAP1 DUP8 ADD MSTORE PUSH2 0x28C SWAP2 PUSH2 0x1434 JUMP JUMPDEST SWAP2 MLOAD SWAP3 DUP5 DUP4 SUB ADD SWAP1 DUP5 ADD MSTORE PUSH2 0x2A0 SWAP2 PUSH2 0x1434 JUMP JUMPDEST SUB SWAP1 RETURN JUMPDEST CALLVALUE PUSH2 0xA4 JUMPI PUSH2 0x140 CALLDATASIZE PUSH1 0x3 NOT ADD SLT PUSH2 0xA4 JUMPI PUSH2 0x2BE PUSH2 0x1301 JUMP JUMPDEST PUSH1 0xC0 MSTORE PUSH1 0x24 CALLDATALOAD PUSH1 0x1 PUSH1 0x1 PUSH1 0x40 SHL SUB DUP2 GT PUSH2 0xA4 JUMPI PUSH2 0x2E0 SWAP1 CALLDATASIZE SWAP1 PUSH1 0x4 ADD PUSH2 0x1474 JUMP JUMPDEST PUSH2 0x100 MSTORE PUSH2 0x240 MSTORE PUSH1 0x44 CALLDATALOAD PUSH1 0x1 PUSH1 0x1 PUSH1 0x40 SHL SUB DUP2 GT PUSH2 0xA4 JUMPI PUSH2 0x307 SWAP1 CALLDATASIZE SWAP1 PUSH1 0x4 ADD PUSH2 0x1474 JUMP JUMPDEST PUSH2 0x1A0 MSTORE PUSH2 0x2A0 MSTORE PUSH1 0x64 CALLDATALOAD PUSH1 0x1 PUSH1 0x1 PUSH1 0x40 SHL SUB DUP2 GT PUSH2 0xA4 JUMPI PUSH2 0x32E SWAP1 CALLDATASIZE SWAP1 PUSH1 0x4 ADD PUSH2 0x1474 JUMP JUMPDEST PUSH2 0x200 MSTORE PUSH2 0x300 MSTORE PUSH1 0x84 CALLDATALOAD PUSH1 0x1 PUSH1 0x1 PUSH1 0x40 SHL SUB DUP2 GT PUSH2 0xA4 JUMPI PUSH2 0x355 SWAP1 CALLDATASIZE SWAP1 PUSH1 0x4 ADD PUSH2 0x1474 JUMP JUMPDEST PUSH2 0x2C0 MSTORE PUSH2 0x1E0 MSTORE PUSH1 0xA4 CALLDATALOAD PUSH1 0x1 PUSH1 0x1 PUSH1 0x40 SHL SUB DUP2 GT PUSH2 0xA4 JUMPI PUSH2 0x37C SWAP1 CALLDATASIZE SWAP1 PUSH1 0x4 ADD PUSH2 0x1474 JUMP JUMPDEST PUSH1 0xA0 MSTORE PUSH2 0x1C0 MSTORE PUSH1 0xC4 CALLDATALOAD PUSH1 0x1 PUSH1 0x1 PUSH1 0x40 SHL SUB DUP2 GT PUSH2 0xA4 JUMPI PUSH2 0x3A2 SWAP1 CALLDATASIZE SWAP1 PUSH1 0x4 ADD PUSH2 0x1474 JUMP JUMPDEST PUSH2 0x140 MSTORE PUSH2 0x280 MSTORE PUSH1 0xE4 CALLDATALOAD PUSH1 0x1 PUSH1 0x1 PUSH1 0x40 SHL SUB DUP2 GT PUSH2 0xA4 JUMPI PUSH2 0x3C9 SWAP1 CALLDATASIZE SWAP1 PUSH1 0x4 ADD PUSH2 0x1474 JUMP JUMPDEST PUSH2 0x120 MSTORE PUSH2 0x260 MSTORE PUSH1 0x1 PUSH1 0x1 PUSH1 0x40 SHL SUB PUSH2 0x104 CALLDATALOAD GT PUSH2 0xA4 JUMPI PUSH2 0x3F2 CALLDATASIZE PUSH2 0x104 CALLDATALOAD PUSH1 0x4 ADD PUSH2 0x1474 JUMP JUMPDEST PUSH1 0xE0 MSTORE PUSH2 0x180 MSTORE PUSH2 0x124 CALLDATALOAD PUSH1 0x1 PUSH1 0x1 PUSH1 0x40 SHL SUB DUP2 GT PUSH2 0xA4 JUMPI PUSH2 0x419 SWAP1 CALLDATASIZE SWAP1 PUSH1 0x4 ADD PUSH2 0x1474 JUMP JUMPDEST PUSH1 0x80 MSTORE PUSH2 0x220 MSTORE PUSH1 0x0 SLOAD PUSH1 0x1 PUSH1 0x1 PUSH1 0xA0 SHL SUB AND CALLER SUB PUSH2 0x114C JUMPI PUSH2 0x442 PUSH1 0x40 MLOAD DUP1 PUSH2 0x2E0 MSTORE PUSH2 0x1351 JUMP JUMPDEST PUSH2 0x453 CALLDATASIZE PUSH2 0x100 MLOAD PUSH2 0x240 MLOAD PUSH2 0x14EE JUMP JUMPDEST PUSH2 0x2E0 MLOAD MSTORE PUSH2 0x469 CALLDATASIZE PUSH2 0x1A0 MLOAD PUSH2 0x2A0 MLOAD PUSH2 0x14EE JUMP JUMPDEST PUSH1 0x20 PUSH2 0x2E0 MLOAD ADD MSTORE PUSH2 0x482 CALLDATASIZE PUSH2 0x200 MLOAD PUSH2 0x300 MLOAD PUSH2 0x14EE JUMP JUMPDEST PUSH1 0x40 PUSH2 0x2E0 MLOAD ADD MSTORE PUSH2 0x49B CALLDATASIZE PUSH2 0x2C0 MLOAD PUSH2 0x1E0 MLOAD PUSH2 0x14EE JUMP JUMPDEST PUSH1 0x60 PUSH2 0x2E0 MLOAD ADD MSTORE PUSH2 0x4B3 CALLDATASIZE PUSH1 0xA0 MLOAD PUSH2 0x1C0 MLOAD PUSH2 0x14EE JUMP JUMPDEST PUSH1 0x80 PUSH2 0x2E0 MLOAD ADD MSTORE PUSH2 0x4CC CALLDATASIZE PUSH2 0x140 MLOAD PUSH2 0x280 MLOAD PUSH2 0x14EE JUMP JUMPDEST PUSH1 0xA0 PUSH2 0x2E0 MLOAD ADD MSTORE PUSH2 0x4E5 CALLDATASIZE PUSH2 0x120 MLOAD PUSH2 0x260 MLOAD PUSH2 0x14EE JUMP JUMPDEST PUSH1 0xC0 PUSH2 0x2E0 MLOAD ADD MSTORE PUSH2 0x4FD CALLDATASIZE PUSH1 0xE0 MLOAD PUSH2 0x180 MLOAD PUSH2 0x14EE JUMP JUMPDEST PUSH1 0xE0 PUSH2 0x2E0 MLOAD ADD MSTORE PUSH2 0x515 CALLDATASIZE PUSH1 0x80 MLOAD PUSH2 0x220 MLOAD PUSH2 0x14EE JUMP JUMPDEST PUSH2 0x100 PUSH2 0x2E0 MLOAD ADD MSTORE PUSH1 0x1 DUP1 PUSH1 0xA0 SHL SUB PUSH1 0xC0 MLOAD AND PUSH1 0x0 MSTORE PUSH1 0x1 PUSH1 0x20 MSTORE PUSH1 0x40 PUSH1 0x0 KECCAK256 PUSH2 0x2E0 MLOAD MLOAD SWAP1 DUP2 MLOAD PUSH1 0x1 PUSH1 0x1 PUSH1 0x40 SHL SUB DUP2 GT PUSH2 0xA12 JUMPI PUSH2 0x556 DUP3 SLOAD PUSH2 0x1317 JUMP JUMPDEST PUSH1 0x1F DUP2 GT PUSH2 0x1108 JUMPI JUMPDEST POP PUSH1 0x20 PUSH1 0x1F DUP3 GT PUSH1 0x1 EQ PUSH2 0x10A3 JUMPI DUP2 SWAP3 SWAP4 PUSH1 0x0 SWAP3 PUSH2 0x1098 JUMPI JUMPDEST POP POP DUP2 PUSH1 0x1 SHL SWAP2 PUSH1 0x0 NOT SWAP1 PUSH1 0x3 SHL SHR NOT AND OR DUP2 SSTORE JUMPDEST PUSH1 0x20 PUSH2 0x2E0 MLOAD ADD MLOAD DUP1 MLOAD SWAP1 PUSH1 0x1 PUSH1 0x1 PUSH1 0x40 SHL SUB DUP3 GT PUSH2 0xA12 JUMPI DUP2 SWAP1 PUSH2 0x5B5 PUSH1 0x1 DUP6 ADD SLOAD PUSH2 0x1317 JUMP JUMPDEST PUSH1 0x1F DUP2 GT PUSH2 0x1045 JUMPI JUMPDEST POP PUSH1 0x20 SWAP1 PUSH1 0x1F DUP4 GT PUSH1 0x1 EQ PUSH2 0xFD3 JUMPI PUSH1 0x0 SWAP3 PUSH2 0xFC8 JUMPI JUMPDEST POP POP DUP2 PUSH1 0x1 SHL SWAP2 PUSH1 0x0 NOT SWAP1 PUSH1 0x3 SHL SHR NOT AND OR PUSH1 0x1 DUP3 ADD SSTORE JUMPDEST PUSH1 0x40 PUSH2 0x2E0 MLOAD ADD MLOAD DUP1 MLOAD SWAP1 PUSH1 0x1 PUSH1 0x1 PUSH1 0x40 SHL SUB DUP3 GT PUSH2 0xA12 JUMPI DUP2 SWAP1 PUSH2 0x615 PUSH1 0x2 DUP6 ADD SLOAD PUSH2 0x1317 JUMP JUMPDEST PUSH1 0x1F DUP2 GT PUSH2 0xF75 JUMPI JUMPDEST POP PUSH1 0x20 SWAP1 PUSH1 0x1F DUP4 GT PUSH1 0x1 EQ PUSH2 0xF03 JUMPI PUSH1 0x0 SWAP3 PUSH2 0xEF8 JUMPI JUMPDEST POP POP DUP2 PUSH1 0x1 SHL SWAP2 PUSH1 0x0 NOT SWAP1 PUSH1 0x3 SHL SHR NOT AND OR PUSH1 0x2 DUP3 ADD SSTORE JUMPDEST PUSH1 0x60 PUSH2 0x2E0 MLOAD ADD MLOAD DUP1 MLOAD SWAP1 PUSH1 0x1 PUSH1 0x1 PUSH1 0x40 SHL SUB DUP3 GT PUSH2 0xA12 JUMPI DUP2 SWAP1 PUSH2 0x675 PUSH1 0x3 DUP6 ADD SLOAD PUSH2 0x1317 JUMP JUMPDEST PUSH1 0x1F DUP2 GT PUSH2 0xEA5 JUMPI JUMPDEST POP PUSH1 0x20 SWAP1 PUSH1 0x1F DUP4 GT PUSH1 0x1 EQ PUSH2 0xE33 JUMPI PUSH1 0x0 SWAP3 PUSH2 0xE28 JUMPI JUMPDEST POP POP DUP2 PUSH1 0x1 SHL SWAP2 PUSH1 0x0 NOT SWAP1 PUSH1 0x3 SHL SHR NOT AND OR PUSH1 0x3 DUP3 ADD SSTORE JUMPDEST PUSH1 0x80 PUSH2 0x2E0 MLOAD ADD MLOAD DUP1 MLOAD SWAP1 PUSH1 0x1 PUSH1 0x1 PUSH1 0x40 SHL SUB DUP3 GT PUSH2 0xA12 JUMPI DUP2 SWAP1 PUSH2 0x6D5 PUSH1 0x4 DUP6 ADD SLOAD PUSH2 0x1317 JUMP JUMPDEST PUSH1 0x1F DUP2 GT PUSH2 0xDD5 JUMPI JUMPDEST POP PUSH1 0x20 SWAP1 PUSH1 0x1F DUP4 GT PUSH1 0x1 EQ PUSH2 0xD63 JUMPI PUSH1 0x0 SWAP3 PUSH2 0xD58 JUMPI JUMPDEST POP POP DUP2 PUSH1 0x1 SHL SWAP2 PUSH1 0x0 NOT SWAP1 PUSH1 0x3 SHL SHR NOT AND OR PUSH1 0x4 DUP3 ADD SSTORE JUMPDEST PUSH1 0xA0 PUSH2 0x2E0 MLOAD ADD MLOAD DUP1 MLOAD SWAP1 PUSH1 0x1 PUSH1 0x1 PUSH1 0x40 SHL SUB DUP3 GT PUSH2 0xA12 JUMPI DUP2 SWAP1 PUSH2 0x735 PUSH1 0x5 DUP6 ADD SLOAD PUSH2 0x1317 JUMP JUMPDEST PUSH1 0x1F DUP2 GT PUSH2 0xD05 JUMPI JUMPDEST POP PUSH1 0x20 SWAP1 PUSH1 0x1F DUP4 GT PUSH1 0x1 EQ PUSH2 0xC93 JUMPI PUSH1 0x0 SWAP3 PUSH2 0xC88 JUMPI JUMPDEST POP POP DUP2 PUSH1 0x1 SHL SWAP2 PUSH1 0x0 NOT SWAP1 PUSH1 0x3 SHL SHR NOT AND OR PUSH1 0x5 DUP3 ADD SSTORE JUMPDEST PUSH1 0xC0 PUSH2 0x2E0 MLOAD ADD MLOAD DUP1 MLOAD SWAP1 PUSH1 0x1 PUSH1 0x1 PUSH1 0x40 SHL SUB DUP3 GT PUSH2 0xA12 JUMPI DUP2 SWAP1 PUSH2 0x795 PUSH1 0x6 DUP6 ADD SLOAD PUSH2 0x1317 JUMP JUMPDEST PUSH1 0x1F DUP2 GT PUSH2 0xC35 JUMPI JUMPDEST POP PUSH1 0x20 SWAP1 PUSH1 0x1F DUP4 GT PUSH1 0x1 EQ PUSH2 0xBC3 JUMPI PUSH1 0x0 SWAP3 PUSH2 0xBB8 JUMPI JUMPDEST POP POP DUP2 PUSH1 0x1 SHL SWAP2 PUSH1 0x0 NOT SWAP1 PUSH1 0x3 SHL SHR NOT AND OR PUSH1 0x6 DUP3 ADD SSTORE JUMPDEST PUSH1 0xE0 PUSH2 0x2E0 MLOAD ADD MLOAD DUP1 MLOAD SWAP1 PUSH1 0x1 PUSH1 0x1 PUSH1 0x40 SHL SUB DUP3 GT PUSH2 0xA12 JUMPI DUP2 SWAP1 PUSH2 0x7F5 PUSH1 0x7 DUP6 ADD SLOAD PUSH2 0x1317 JUMP JUMPDEST PUSH1 0x1F DUP2 GT PUSH2 0xB65 JUMPI JUMPDEST POP PUSH1 0x20 SWAP1 PUSH1 0x1F DUP4 GT PUSH1 0x1 EQ PUSH2 0xAF3 JUMPI PUSH1 0x0 SWAP3 PUSH2 0xAE8 JUMPI JUMPDEST POP POP DUP2 PUSH1 0x1 SHL SWAP2 PUSH1 0x0 NOT SWAP1 PUSH1 0x3 SHL SHR NOT AND OR PUSH1 0x7 DUP3 ADD SSTORE JUMPDEST PUSH2 0x100 PUSH2 0x2E0 MLOAD ADD MLOAD DUP1 MLOAD SWAP1 PUSH1 0x1 PUSH1 0x1 PUSH1 0x40 SHL SUB DUP3 GT PUSH2 0xA12 JUMPI PUSH2 0x854 PUSH1 0x8 DUP5 ADD SLOAD PUSH2 0x1317 JUMP JUMPDEST PUSH1 0x1F DUP2 GT PUSH2 0xAA1 JUMPI JUMPDEST POP PUSH1 0x20 SWAP1 PUSH1 0x1F DUP4 GT PUSH1 0x1 EQ PUSH2 0xA33 JUMPI PUSH1 0x8 SWAP3 SWAP2 PUSH1 0x0 SWAP2 DUP4 PUSH2 0xA28 JUMPI JUMPDEST POP POP DUP2 PUSH1 0x1 SHL SWAP2 PUSH1 0x0 NOT SWAP1 PUSH1 0x3 SHL SHR NOT AND OR SWAP2 ADD SSTORE JUMPDEST PUSH1 0x2 SLOAD PUSH9 0x10000000000000000 DUP2 LT ISZERO PUSH2 0xA12 JUMPI DUP1 PUSH1 0x1 PUSH2 0x8B3 SWAP3 ADD PUSH1 0x2 SSTORE PUSH2 0x14A1 JUMP JUMPDEST DUP2 SLOAD SWAP1 PUSH1 0x3 SHL SWAP1 PUSH1 0x1 DUP1 PUSH1 0xA0 SHL SUB PUSH1 0xC0 MLOAD AND DUP3 SHL SWAP2 PUSH1 0x1 DUP1 PUSH1 0xA0 SHL SUB SWAP1 SHL NOT AND OR SWAP1 SSTORE PUSH2 0x120 PUSH1 0x40 MLOAD DUP1 PUSH2 0x160 MSTORE MSTORE PUSH2 0x9BC PUSH2 0x9A4 PUSH2 0x98B PUSH2 0x972 PUSH2 0x95A PUSH2 0x941 PUSH2 0x928 PUSH2 0x90F PUSH2 0x120 PUSH2 0x160 MLOAD ADD PUSH2 0x100 MLOAD PUSH2 0x240 MLOAD PUSH2 0x1534 JUMP JUMPDEST PUSH2 0x160 MLOAD PUSH1 0x20 DUP2 DUP4 SUB SWAP2 ADD MSTORE PUSH2 0x1A0 MLOAD PUSH2 0x2A0 MLOAD PUSH2 0x1534 JUMP JUMPDEST PUSH2 0x160 MLOAD PUSH1 0x40 DUP2 DUP4 SUB SWAP2 ADD MSTORE PUSH2 0x200 MLOAD PUSH2 0x300 MLOAD PUSH2 0x1534 JUMP JUMPDEST PUSH2 0x160 MLOAD PUSH1 0x60 DUP2 DUP4 SUB SWAP2 ADD MSTORE PUSH2 0x2C0 MLOAD PUSH2 0x1E0 MLOAD PUSH2 0x1534 JUMP JUMPDEST PUSH2 0x160 MLOAD PUSH1 0x80 DUP2 DUP4 SUB SWAP2 ADD MSTORE PUSH1 0xA0 MLOAD PUSH2 0x1C0 MLOAD PUSH2 0x1534 JUMP JUMPDEST PUSH2 0x160 MLOAD PUSH1 0xA0 DUP2 DUP4 SUB SWAP2 ADD MSTORE PUSH2 0x140 MLOAD PUSH2 0x280 MLOAD PUSH2 0x1534 JUMP JUMPDEST PUSH2 0x160 MLOAD PUSH1 0xC0 DUP2 DUP4 SUB SWAP2 ADD MSTORE PUSH2 0x120 MLOAD PUSH2 0x260 MLOAD PUSH2 0x1534 JUMP JUMPDEST PUSH2 0x160 MLOAD PUSH1 0xE0 DUP2 DUP4 SUB SWAP2 ADD MSTORE PUSH1 0xE0 MLOAD PUSH2 0x180 MLOAD PUSH2 0x1534 JUMP JUMPDEST PUSH2 0x160 MLOAD PUSH2 0x100 DUP2 DUP4 SUB SWAP2 ADD MSTORE PUSH32 0x35E2D56D6EAC535901538B699D3477F791896E2466CBFC9F5D01349D2DCC4FB4 PUSH1 0x1 DUP1 PUSH1 0xA0 SHL SUB PUSH1 0xC0 MLOAD AND SWAP2 PUSH2 0xA0A PUSH2 0x160 MLOAD SWAP2 PUSH1 0x80 MLOAD PUSH2 0x220 MLOAD PUSH2 0x1534 JUMP JUMPDEST SUB PUSH2 0x160 MLOAD LOG2 STOP JUMPDEST PUSH4 0x4E487B71 PUSH1 0xE0 SHL PUSH1 0x0 MSTORE PUSH1 0x41 PUSH1 0x4 MSTORE PUSH1 0x24 PUSH1 0x0 REVERT JUMPDEST ADD MLOAD SWAP1 POP DUP5 DUP1 PUSH2 0x879 JUMP JUMPDEST SWAP1 PUSH1 0x1F NOT DUP4 AND SWAP2 PUSH1 0x8 DUP6 ADD PUSH1 0x0 MSTORE PUSH1 0x20 PUSH1 0x0 KECCAK256 SWAP3 PUSH1 0x0 JUMPDEST DUP2 DUP2 LT PUSH2 0xA89 JUMPI POP SWAP2 PUSH1 0x1 SWAP4 SWAP2 DUP6 PUSH1 0x8 SWAP7 SWAP5 LT PUSH2 0xA70 JUMPI JUMPDEST POP POP POP DUP2 SHL ADD SWAP2 ADD SSTORE PUSH2 0x88F JUMP JUMPDEST ADD MLOAD PUSH1 0x0 NOT PUSH1 0xF8 DUP5 PUSH1 0x3 SHL AND SHR NOT AND SWAP1 SSTORE DUP5 DUP1 DUP1 PUSH2 0xA62 JUMP JUMPDEST SWAP3 SWAP4 PUSH1 0x20 PUSH1 0x1 DUP2 SWAP3 DUP8 DUP7 ADD MLOAD DUP2 SSTORE ADD SWAP6 ADD SWAP4 ADD PUSH2 0xA4A JUMP JUMPDEST PUSH1 0x8 DUP5 ADD PUSH1 0x0 MSTORE PUSH1 0x20 PUSH1 0x0 KECCAK256 PUSH1 0x1F DUP5 ADD PUSH1 0x5 SHR DUP2 ADD PUSH1 0x20 DUP6 LT PUSH2 0xAE1 JUMPI JUMPDEST PUSH1 0x1F DUP4 ADD PUSH1 0x5 SHR DUP3 ADD DUP2 LT PUSH2 0xAD5 JUMPI POP POP PUSH2 0x85D JUMP JUMPDEST PUSH1 0x0 DUP2 SSTORE PUSH1 0x1 ADD PUSH2 0xABF JUMP JUMPDEST POP DUP1 PUSH2 0xABF JUMP JUMPDEST ADD MLOAD SWAP1 POP DUP4 DUP1 PUSH2 0x815 JUMP JUMPDEST SWAP3 POP PUSH1 0x7 DUP5 ADD PUSH1 0x0 MSTORE PUSH1 0x20 PUSH1 0x0 KECCAK256 SWAP1 PUSH1 0x0 SWAP4 JUMPDEST PUSH1 0x1F NOT DUP5 AND DUP6 LT PUSH2 0xB4A JUMPI PUSH1 0x1 SWAP5 POP DUP4 PUSH1 0x1F NOT DUP2 AND LT PUSH2 0xB31 JUMPI JUMPDEST POP POP POP DUP2 SHL ADD PUSH1 0x7 DUP3 ADD SSTORE PUSH2 0x82D JUMP JUMPDEST ADD MLOAD PUSH1 0x0 NOT PUSH1 0xF8 DUP5 PUSH1 0x3 SHL AND SHR NOT AND SWAP1 SSTORE DUP4 DUP1 DUP1 PUSH2 0xB21 JUMP JUMPDEST DUP2 DUP2 ADD MLOAD DUP4 SSTORE PUSH1 0x20 SWAP5 DUP6 ADD SWAP5 PUSH1 0x1 SWAP1 SWAP4 ADD SWAP3 SWAP1 SWAP2 ADD SWAP1 PUSH2 0xB06 JUMP JUMPDEST SWAP1 SWAP2 POP PUSH1 0x7 DUP5 ADD PUSH1 0x0 MSTORE PUSH1 0x20 PUSH1 0x0 KECCAK256 PUSH1 0x1F DUP5 ADD PUSH1 0x5 SHR DUP2 ADD PUSH1 0x20 DUP6 LT PUSH2 0xBB1 JUMPI JUMPDEST SWAP1 DUP5 SWAP4 SWAP3 SWAP2 JUMPDEST PUSH1 0x1F DUP4 ADD PUSH1 0x5 SHR DUP3 ADD DUP2 LT PUSH2 0xBA2 JUMPI POP POP PUSH2 0x7FE JUMP JUMPDEST PUSH1 0x0 DUP2 SSTORE DUP6 SWAP5 POP PUSH1 0x1 ADD PUSH2 0xB8C JUMP JUMPDEST POP DUP1 PUSH2 0xB86 JUMP JUMPDEST ADD MLOAD SWAP1 POP DUP4 DUP1 PUSH2 0x7B5 JUMP JUMPDEST SWAP3 POP PUSH1 0x6 DUP5 ADD PUSH1 0x0 MSTORE PUSH1 0x20 PUSH1 0x0 KECCAK256 SWAP1 PUSH1 0x0 SWAP4 JUMPDEST PUSH1 0x1F NOT DUP5 AND DUP6 LT PUSH2 0xC1A JUMPI PUSH1 0x1 SWAP5 POP DUP4 PUSH1 0x1F NOT DUP2 AND LT PUSH2 0xC01 JUMPI JUMPDEST POP POP POP DUP2 SHL ADD PUSH1 0x6 DUP3 ADD SSTORE PUSH2 0x7CD JUMP JUMPDEST ADD MLOAD PUSH1 0x0 NOT PUSH1 0xF8 DUP5 PUSH1 0x3 SHL AND SHR NOT AND SWAP1 SSTORE DUP4 DUP1 DUP1 PUSH2 0xBF1 JUMP JUMPDEST DUP2 DUP2 ADD MLOAD DUP4 SSTORE PUSH1 0x20 SWAP5 DUP6 ADD SWAP5 PUSH1 0x1 SWAP1 SWAP4 ADD SWAP3 SWAP1 SWAP2 ADD SWAP1 PUSH2 0xBD6 JUMP JUMPDEST SWAP1 SWAP2 POP PUSH1 0x6 DUP5 ADD PUSH1 0x0 MSTORE PUSH1 0x20 PUSH1 0x0 KECCAK256 PUSH1 0x1F DUP5 ADD PUSH1 0x5 SHR DUP2 ADD PUSH1 0x20 DUP6 LT PUSH2 0xC81 JUMPI JUMPDEST SWAP1 DUP5 SWAP4 SWAP3 SWAP2 JUMPDEST PUSH1 0x1F DUP4 ADD PUSH1 0x5 SHR DUP3 ADD DUP2 LT PUSH2 0xC72 JUMPI POP POP PUSH2 0x79E JUMP JUMPDEST PUSH1 0x0 DUP2 SSTORE DUP6 SWAP5 POP PUSH1 0x1 ADD PUSH2 0xC5C JUMP JUMPDEST POP DUP1 PUSH2 0xC56 JUMP JUMPDEST ADD MLOAD SWAP1 POP DUP4 DUP1 PUSH2 0x755 JUMP JUMPDEST SWAP3 POP PUSH1 0x5 DUP5 ADD PUSH1 0x0 MSTORE PUSH1 0x20 PUSH1 0x0 KECCAK256 SWAP1 PUSH1 0x0 SWAP4 JUMPDEST PUSH1 0x1F NOT DUP5 AND DUP6 LT PUSH2 0xCEA JUMPI PUSH1 0x1 SWAP5 POP DUP4 PUSH1 0x1F NOT DUP2 AND LT PUSH2 0xCD1 JUMPI JUMPDEST POP POP POP DUP2 SHL ADD PUSH1 0x5 DUP3 ADD SSTORE PUSH2 0x76D JUMP JUMPDEST ADD MLOAD PUSH1 0x0 NOT PUSH1 0xF8 DUP5 PUSH1 0x3 SHL AND SHR NOT AND SWAP1 SSTORE DUP4 DUP1 DUP1 PUSH2 0xCC1 JUMP JUMPDEST DUP2 DUP2 ADD MLOAD DUP4 SSTORE PUSH1 0x20 SWAP5 DUP6 ADD SWAP5 PUSH1 0x1 SWAP1 SWAP4 ADD SWAP3 SWAP1 SWAP2 ADD SWAP1 PUSH2 0xCA6 JUMP JUMPDEST SWAP1 SWAP2 POP PUSH1 0x5 DUP5 ADD PUSH1 0x0 MSTORE PUSH1 0x20 PUSH1 0x0 KECCAK256 PUSH1 0x1F DUP5 ADD PUSH1 0x5 SHR DUP2 ADD PUSH1 0x20 DUP6 LT PUSH2 0xD51 JUMPI JUMPDEST SWAP1 DUP5 SWAP4 SWAP3 SWAP2 JUMPDEST PUSH1 0x1F DUP4 ADD PUSH1 0x5 SHR DUP3 ADD DUP2 LT PUSH2 0xD42 JUMPI POP POP PUSH2 0x73E JUMP JUMPDEST PUSH1 0x0 DUP2 SSTORE DUP6 SWAP5 POP PUSH1 0x1 ADD PUSH2 0xD2C JUMP JUMPDEST POP DUP1 PUSH2 0xD26 JUMP JUMPDEST ADD MLOAD SWAP1 POP DUP4 DUP1 PUSH2 0x6F5 JUMP JUMPDEST SWAP3 POP PUSH1 0x4 DUP5 ADD PUSH1 0x0 MSTORE PUSH1 0x20 PUSH1 0x0 KECCAK256 SWAP1 PUSH1 0x0 SWAP4 JUMPDEST PUSH1 0x1F NOT DUP5 AND DUP6 LT PUSH2 0xDBA JUMPI PUSH1 0x1 SWAP5 POP DUP4 PUSH1 0x1F NOT DUP2 AND LT PUSH2 0xDA1 JUMPI JUMPDEST POP POP POP DUP2 SHL ADD PUSH1 0x4 DUP3 ADD SSTORE PUSH2 0x70D JUMP JUMPDEST ADD MLOAD PUSH1 0x0 NOT PUSH1 0xF8 DUP5 PUSH1 0x3 SHL AND SHR NOT AND SWAP1 SSTORE DUP4 DUP1 DUP1 PUSH2 0xD91 JUMP JUMPDEST DUP2 DUP2 ADD MLOAD DUP4 SSTORE PUSH1 0x20 SWAP5 DUP6 ADD SWAP5 PUSH1 0x1 SWAP1 SWAP4 ADD SWAP3 SWAP1 SWAP2 ADD SWAP1 PUSH2 0xD76 JUMP JUMPDEST SWAP1 SWAP2 POP PUSH1 0x4 DUP5 ADD PUSH1 0x0 MSTORE PUSH1 0x20 PUSH1 0x0 KECCAK256 PUSH1 0x1F DUP5 ADD PUSH1 0x5 SHR DUP2 ADD PUSH1 0x20 DUP6 LT PUSH2 0xE21 JUMPI JUMPDEST SWAP1 DUP5 SWAP4 SWAP3 SWAP2 JUMPDEST PUSH1 0x1F DUP4 ADD PUSH1 0x5 SHR DUP3 ADD DUP2 LT PUSH2 0xE12 JUMPI POP POP PUSH2 0x6DE JUMP JUMPDEST PUSH1 0x0 DUP2 SSTORE DUP6 SWAP5 POP PUSH1 0x1 ADD PUSH2 0xDFC JUMP JUMPDEST POP DUP1 PUSH2 0xDF6 JUMP JUMPDEST ADD MLOAD SWAP1 POP DUP4 DUP1 PUSH2 0x695 JUMP JUMPDEST SWAP3 POP PUSH1 0x3 DUP5 ADD PUSH1 0x0 MSTORE PUSH1 0x20 PUSH1 0x0 KECCAK256 SWAP1 PUSH1 0x0 SWAP4 JUMPDEST PUSH1 0x1F NOT DUP5 AND DUP6 LT PUSH2 0xE8A JUMPI PUSH1 0x1 SWAP5 POP DUP4 PUSH1 0x1F NOT DUP2 AND LT PUSH2 0xE71 JUMPI JUMPDEST POP POP POP DUP2 SHL ADD PUSH1 0x3 DUP3 ADD SSTORE PUSH2 0x6AD JUMP JUMPDEST ADD MLOAD PUSH1 0x0 NOT PUSH1 0xF8 DUP5 PUSH1 0x3 SHL AND SHR NOT AND SWAP1 SSTORE DUP4 DUP1 DUP1 PUSH2 0xE61 JUMP JUMPDEST DUP2 DUP2 ADD MLOAD DUP4 SSTORE PUSH1 0x20 SWAP5 DUP6 ADD SWAP5 PUSH1 0x1 SWAP1 SWAP4 ADD SWAP3 SWAP1 SWAP2 ADD SWAP1 PUSH2 0xE46 JUMP JUMPDEST SWAP1 SWAP2 POP PUSH1 0x3 DUP5 ADD PUSH1 0x0 MSTORE PUSH1 0x20 PUSH1 0x0 KECCAK256 PUSH1 0x1F DUP5 ADD PUSH1 0x5 SHR DUP2 ADD PUSH1 0x20 DUP6 LT PUSH2 0xEF1 JUMPI JUMPDEST SWAP1 DUP5 SWAP4 SWAP3 SWAP2 JUMPDEST PUSH1 0x1F DUP4 ADD PUSH1 0x5 SHR DUP3 ADD DUP2 LT PUSH2 0xEE2 JUMPI POP POP PUSH2 0x67E JUMP JUMPDEST PUSH1 0x0 DUP2 SSTORE DUP6 SWAP5 POP PUSH1 0x1 ADD PUSH2 0xECC JUMP JUMPDEST POP DUP1 PUSH2 0xEC6 JUMP JUMPDEST ADD MLOAD SWAP1 POP DUP4 DUP1 PUSH2 0x635 JUMP JUMPDEST SWAP3 POP PUSH1 0x2 DUP5 ADD PUSH1 0x0 MSTORE PUSH1 0x20 PUSH1 0x0 KECCAK256 SWAP1 PUSH1 0x0 SWAP4 JUMPDEST PUSH1 0x1F NOT DUP5 AND DUP6 LT PUSH2 0xF5A JUMPI PUSH1 0x1 SWAP5 POP DUP4 PUSH1 0x1F NOT DUP2 AND LT PUSH2 0xF41 JUMPI JUMPDEST POP POP POP DUP2 SHL ADD PUSH1 0x2 DUP3 ADD SSTORE PUSH2 0x64D JUMP JUMPDEST ADD MLOAD PUSH1 0x0 NOT PUSH1 0xF8 DUP5 PUSH1 0x3 SHL AND SHR NOT AND SWAP1 SSTORE DUP4 DUP1 DUP1 PUSH2 0xF31 JUMP JUMPDEST DUP2 DUP2 ADD MLOAD DUP4 SSTORE PUSH1 0x20 SWAP5 DUP6 ADD SWAP5 PUSH1 0x1 SWAP1 SWAP4 ADD SWAP3 SWAP1 SWAP2 ADD SWAP1 PUSH2 0xF16 JUMP JUMPDEST SWAP1 SWAP2 POP PUSH1 0x2 DUP5 ADD PUSH1 0x0 MSTORE PUSH1 0x20 PUSH1 0x0 KECCAK256 PUSH1 0x1F DUP5 ADD PUSH1 0x5 SHR DUP2 ADD PUSH1 0x20 DUP6 LT PUSH2 0xFC1 JUMPI JUMPDEST SWAP1 DUP5 SWAP4 SWAP3 SWAP2 JUMPDEST PUSH1 0x1F DUP4 ADD PUSH1 0x5 SHR DUP3 ADD DUP2 LT PUSH2 0xFB2 JUMPI POP POP PUSH2 0x61E JUMP JUMPDEST PUSH1 0x0 DUP2 SSTORE DUP6 SWAP5 POP PUSH1 0x1 ADD PUSH2 0xF9C JUMP JUMPDEST POP DUP1 PUSH2 0xF96 JUMP JUMPDEST ADD MLOAD SWAP1 POP DUP4 DUP1 PUSH2 0x5D5 JUMP JUMPDEST SWAP3 POP PUSH1 0x1 DUP5 ADD PUSH1 0x0 MSTORE PUSH1 0x20 PUSH1 0x0 KECCAK256 SWAP1 PUSH1 0x0 SWAP4 JUMPDEST PUSH1 0x1F NOT DUP5 AND DUP6 LT PUSH2 0x102A JUMPI PUSH1 0x1 SWAP5 POP DUP4 PUSH1 0x1F NOT DUP2 AND LT PUSH2 0x1011 JUMPI JUMPDEST POP POP POP DUP2 SHL ADD PUSH1 0x1 DUP3 ADD SSTORE PUSH2 0x5ED JUMP JUMPDEST ADD MLOAD PUSH1 0x0 NOT PUSH1 0xF8 DUP5 PUSH1 0x3 SHL AND SHR NOT AND SWAP1 SSTORE DUP4 DUP1 DUP1 PUSH2 0x1001 JUMP JUMPDEST DUP2 DUP2 ADD MLOAD DUP4 SSTORE PUSH1 0x20 SWAP5 DUP6 ADD SWAP5 PUSH1 0x1 SWAP1 SWAP4 ADD SWAP3 SWAP1 SWAP2 ADD SWAP1 PUSH2 0xFE6 JUMP JUMPDEST SWAP1 SWAP2 POP PUSH1 0x1 DUP5 ADD PUSH1 0x0 MSTORE PUSH1 0x20 PUSH1 0x0 KECCAK256 PUSH1 0x1F DUP5 ADD PUSH1 0x5 SHR DUP2 ADD PUSH1 0x20 DUP6 LT PUSH2 0x1091 JUMPI JUMPDEST SWAP1 DUP5 SWAP4 SWAP3 SWAP2 JUMPDEST PUSH1 0x1F DUP4 ADD PUSH1 0x5 SHR DUP3 ADD DUP2 LT PUSH2 0x1082 JUMPI POP POP PUSH2 0x5BE JUMP JUMPDEST PUSH1 0x0 DUP2 SSTORE DUP6 SWAP5 POP PUSH1 0x1 ADD PUSH2 0x106C JUMP JUMPDEST POP DUP1 PUSH2 0x1066 JUMP JUMPDEST ADD MLOAD SWAP1 POP DUP4 DUP1 PUSH2 0x578 JUMP JUMPDEST DUP3 PUSH1 0x0 MSTORE PUSH1 0x20 PUSH1 0x0 KECCAK256 SWAP1 PUSH1 0x0 SWAP5 PUSH1 0x1F NOT DUP5 AND SWAP6 JUMPDEST DUP7 DUP2 LT PUSH2 0x10F0 JUMPI POP DUP4 PUSH1 0x1 SWAP6 SWAP7 LT PUSH2 0x10D7 JUMPI JUMPDEST POP POP POP DUP2 SHL ADD DUP2 SSTORE PUSH2 0x58D JUMP JUMPDEST ADD MLOAD PUSH1 0x0 NOT PUSH1 0xF8 DUP5 PUSH1 0x3 SHL AND SHR NOT AND SWAP1 SSTORE DUP4 DUP1 DUP1 PUSH2 0x10CA JUMP JUMPDEST SWAP2 SWAP3 PUSH1 0x20 PUSH1 0x1 DUP2 SWAP3 DUP7 DUP6 ADD MLOAD DUP2 SSTORE ADD SWAP5 ADD SWAP3 ADD PUSH2 0x10B7 JUMP JUMPDEST DUP3 PUSH1 0x0 MSTORE PUSH1 0x20 PUSH1 0x0 KECCAK256 PUSH1 0x1F DUP4 ADD PUSH1 0x5 SHR DUP2 ADD PUSH1 0x20 DUP5 LT PUSH2 0x1145 JUMPI JUMPDEST PUSH1 0x1F DUP4 ADD PUSH1 0x5 SHR DUP3 ADD DUP2 LT PUSH2 0x1139 JUMPI POP POP PUSH2 0x55F JUMP JUMPDEST PUSH1 0x0 DUP2 SSTORE PUSH1 0x1 ADD PUSH2 0x1123 JUMP JUMPDEST POP DUP1 PUSH2 0x1123 JUMP JUMPDEST PUSH1 0x40 MLOAD PUSH3 0x461BCD PUSH1 0xE5 SHL DUP2 MSTORE PUSH1 0x20 PUSH1 0x4 DUP3 ADD MSTORE PUSH1 0xB PUSH1 0x24 DUP3 ADD MSTORE PUSH11 0x139BDD081CDD195DD85C99 PUSH1 0xAA SHL PUSH1 0x44 DUP3 ADD MSTORE PUSH1 0x64 SWAP1 REVERT JUMPDEST CALLVALUE PUSH2 0xA4 JUMPI PUSH1 0x0 CALLDATASIZE PUSH1 0x3 NOT ADD SLT PUSH2 0xA4 JUMPI PUSH1 0x0 SLOAD PUSH1 0x40 MLOAD PUSH1 0x1 PUSH1 0x1 PUSH1 0xA0 SHL SUB SWAP1 SWAP2 AND DUP2 MSTORE PUSH1 0x20 SWAP1 RETURN JUMPDEST CALLVALUE PUSH2 0xA4 JUMPI PUSH1 0x20 CALLDATASIZE PUSH1 0x3 NOT ADD SLT PUSH2 0xA4 JUMPI PUSH1 0x1 PUSH1 0x1 PUSH1 0xA0 SHL SUB PUSH2 0x11C9 PUSH2 0x1301 JUMP JUMPDEST AND PUSH1 0x0 MSTORE PUSH1 0x1 PUSH1 0x20 MSTORE PUSH1 0x40 PUSH1 0x0 KECCAK256 PUSH2 0x11E0 DUP2 PUSH2 0x138E JUMP JUMPDEST PUSH2 0x11EC PUSH1 0x1 DUP4 ADD PUSH2 0x138E JUMP JUMPDEST SWAP2 PUSH2 0x11F9 PUSH1 0x2 DUP3 ADD PUSH2 0x138E JUMP JUMPDEST SWAP1 PUSH2 0x1206 PUSH1 0x3 DUP3 ADD PUSH2 0x138E JUMP JUMPDEST PUSH2 0x1212 PUSH1 0x4 DUP4 ADD PUSH2 0x138E JUMP JUMPDEST PUSH2 0x121E PUSH1 0x5 DUP5 ADD PUSH2 0x138E JUMP JUMPDEST SWAP1 PUSH2 0x122B PUSH1 0x6 DUP6 ADD PUSH2 0x138E JUMP JUMPDEST SWAP3 PUSH2 0x1238 PUSH1 0x7 DUP7 ADD PUSH2 0x138E JUMP JUMPDEST SWAP5 PUSH1 0x8 ADD PUSH2 0x1245 SWAP1 PUSH2 0x138E JUMP JUMPDEST SWAP6 PUSH1 0x40 MLOAD SWAP9 DUP10 SWAP9 PUSH2 0x120 DUP1 DUP12 MSTORE DUP11 ADD PUSH2 0x125D SWAP2 PUSH2 0x1434 JUMP JUMPDEST DUP10 DUP2 SUB PUSH1 0x20 DUP12 ADD MSTORE PUSH2 0x126E SWAP2 PUSH2 0x1434 JUMP JUMPDEST DUP9 DUP2 SUB PUSH1 0x40 DUP11 ADD MSTORE PUSH2 0x127F SWAP2 PUSH2 0x1434 JUMP JUMPDEST DUP8 DUP2 SUB PUSH1 0x60 DUP10 ADD MSTORE PUSH2 0x1290 SWAP2 PUSH2 0x1434 JUMP JUMPDEST DUP7 DUP2 SUB PUSH1 0x80 DUP9 ADD MSTORE PUSH2 0x12A1 SWAP2 PUSH2 0x1434 JUMP JUMPDEST DUP6 DUP2 SUB PUSH1 0xA0 DUP8 ADD MSTORE PUSH2 0x12B2 SWAP2 PUSH2 0x1434 JUMP JUMPDEST DUP5 DUP2 SUB PUSH1 0xC0 DUP7 ADD MSTORE PUSH2 0x12C3 SWAP2 PUSH2 0x1434 JUMP JUMPDEST DUP4 DUP2 SUB PUSH1 0xE0 DUP6 ADD MSTORE PUSH2 0x12D4 SWAP2 PUSH2 0x1434 JUMP JUMPDEST DUP3 DUP2 SUB PUSH2 0x100 DUP5 ADD MSTORE PUSH2 0x2A0 SWAP2 PUSH2 0x1434 JUMP JUMPDEST CALLVALUE PUSH2 0xA4 JUMPI PUSH1 0x0 CALLDATASIZE PUSH1 0x3 NOT ADD SLT PUSH2 0xA4 JUMPI PUSH1 0x20 SWAP1 PUSH1 0x2 SLOAD DUP2 MSTORE RETURN JUMPDEST PUSH1 0x4 CALLDATALOAD SWAP1 PUSH1 0x1 PUSH1 0x1 PUSH1 0xA0 SHL SUB DUP3 AND DUP3 SUB PUSH2 0xA4 JUMPI JUMP JUMPDEST SWAP1 PUSH1 0x1 DUP3 DUP2 SHR SWAP3 AND DUP1 ISZERO PUSH2 0x1347 JUMPI JUMPDEST PUSH1 0x20 DUP4 LT EQ PUSH2 0x1331 JUMPI JUMP JUMPDEST PUSH4 0x4E487B71 PUSH1 0xE0 SHL PUSH1 0x0 MSTORE PUSH1 0x22 PUSH1 0x4 MSTORE PUSH1 0x24 PUSH1 0x0 REVERT JUMPDEST SWAP2 PUSH1 0x7F AND SWAP2 PUSH2 0x1326 JUMP JUMPDEST PUSH2 0x120 DUP2 ADD SWAP1 DUP2 LT PUSH1 0x1 PUSH1 0x1 PUSH1 0x40 SHL SUB DUP3 GT OR PUSH2 0xA12 JUMPI PUSH1 0x40 MSTORE JUMP JUMPDEST SWAP1 PUSH1 0x1F DUP1 NOT SWAP2 ADD AND DUP2 ADD SWAP1 DUP2 LT PUSH1 0x1 PUSH1 0x1 PUSH1 0x40 SHL SUB DUP3 GT OR PUSH2 0xA12 JUMPI PUSH1 0x40 MSTORE JUMP JUMPDEST SWAP1 PUSH1 0x40 MLOAD SWAP2 DUP3 PUSH1 0x0 DUP3 SLOAD SWAP3 PUSH2 0x13A2 DUP5 PUSH2 0x1317 JUMP JUMPDEST SWAP1 DUP2 DUP5 MSTORE PUSH1 0x1 SWAP5 DUP6 DUP2 AND SWAP1 DUP2 PUSH1 0x0 EQ PUSH2 0x1411 JUMPI POP PUSH1 0x1 EQ PUSH2 0x13CE JUMPI JUMPDEST POP POP PUSH2 0x13CC SWAP3 POP SUB DUP4 PUSH2 0x136D JUMP JUMPDEST JUMP JUMPDEST SWAP1 SWAP4 SWAP2 POP PUSH1 0x0 MSTORE PUSH1 0x20 SWAP1 DUP2 PUSH1 0x0 KECCAK256 SWAP4 PUSH1 0x0 SWAP2 JUMPDEST DUP2 DUP4 LT PUSH2 0x13F9 JUMPI POP POP PUSH2 0x13CC SWAP4 POP DUP3 ADD ADD CODESIZE DUP1 PUSH2 0x13BE JUMP JUMPDEST DUP6 SLOAD DUP9 DUP5 ADD DUP6 ADD MSTORE SWAP5 DUP6 ADD SWAP5 DUP8 SWAP5 POP SWAP2 DUP4 ADD SWAP2 PUSH2 0x13E1 JUMP JUMPDEST SWAP2 POP POP PUSH2 0x13CC SWAP5 POP PUSH1 0x20 SWAP3 POP PUSH1 0xFF NOT AND DUP3 DUP5 ADD MSTORE ISZERO ISZERO PUSH1 0x5 SHL DUP3 ADD ADD CODESIZE DUP1 PUSH2 0x13BE JUMP JUMPDEST SWAP2 SWAP1 DUP3 MLOAD SWAP3 DUP4 DUP3 MSTORE PUSH1 0x0 JUMPDEST DUP5 DUP2 LT PUSH2 0x1460 JUMPI POP POP DUP3 PUSH1 0x0 PUSH1 0x20 DUP1 SWAP5 SWAP6 DUP5 ADD ADD MSTORE PUSH1 0x1F DUP1 NOT SWAP2 ADD AND ADD ADD SWAP1 JUMP JUMPDEST PUSH1 0x20 DUP2 DUP4 ADD DUP2 ADD MLOAD DUP5 DUP4 ADD DUP3 ADD MSTORE ADD PUSH2 0x143F JUMP JUMPDEST SWAP2 DUP2 PUSH1 0x1F DUP5 ADD SLT ISZERO PUSH2 0xA4 JUMPI DUP3 CALLDATALOAD SWAP2 PUSH1 0x1 PUSH1 0x1 PUSH1 0x40 SHL SUB DUP4 GT PUSH2 0xA4 JUMPI PUSH1 0x20 DUP4 DUP2 DUP7 ADD SWAP6 ADD ADD GT PUSH2 0xA4 JUMPI JUMP JUMPDEST PUSH1 0x2 SLOAD DUP2 LT ISZERO PUSH2 0x14D8 JUMPI PUSH1 0x2 PUSH1 0x0 MSTORE PUSH32 0x405787FA12A823E0F2B7631CC41B3BA8828B3321CA811111FA75CD3AA3BB5ACE ADD SWAP1 PUSH1 0x0 SWAP1 JUMP JUMPDEST PUSH4 0x4E487B71 PUSH1 0xE0 SHL PUSH1 0x0 MSTORE PUSH1 0x32 PUSH1 0x4 MSTORE PUSH1 0x24 PUSH1 0x0 REVERT JUMPDEST SWAP3 SWAP2 SWAP3 PUSH1 0x1 PUSH1 0x1 PUSH1 0x40 SHL SUB DUP3 GT PUSH2 0xA12 JUMPI PUSH1 0x40 MLOAD SWAP2 PUSH2 0x1517 PUSH1 0x1F DUP3 ADD PUSH1 0x1F NOT AND PUSH1 0x20 ADD DUP5 PUSH2 0x136D JUMP JUMPDEST DUP3 SWAP5 DUP2 DUP5 MSTORE DUP2 DUP4 ADD GT PUSH2 0xA4 JUMPI DUP3 DUP2 PUSH1 0x20 SWAP4 DUP5 PUSH1 0x0 SWAP7 ADD CALLDATACOPY ADD ADD MSTORE JUMP JUMPDEST SWAP1 DUP1 PUSH1 0x20 SWAP4 SWAP3 DUP2 DUP5 MSTORE DUP5 DUP5 ADD CALLDATACOPY PUSH1 0x0 DUP3 DUP3 ADD DUP5 ADD MSTORE PUSH1 0x1F ADD PUSH1 0x1F NOT AND ADD ADD SWAP1 JUMP INVALID LOG2 PUSH5 0x6970667358 0x22 SLT KECCAK256 MSTORE EXTCODESIZE PUSH8 0x9B418ABCABF987DE 0xB5 0xB2 0xBC ORIGIN PUSH16 0xB706B30C15724A458DB1034F1BEB3520 PUSH5 0x736F6C6343 STOP ADDMOD EQ STOP CALLER "},"methodIdentifiers":{"apprentices(uint256)":"f31bee3e","getSummons(address)":"cf84c603","steward()":"637eea19","summonApprentice(address,string,string,string,string,string,string,string,string,string)":"c91f2b33","summons(address)":"5a2ed662","totalSummons()":"2a17d4cd"}}}}}