{"contracts/manifest/TerrainChoreographySanctum.sol":{"TerrainChoreographySanctum":{"abi":[{"inputs":[],"stateMutability":"nonpayable","type":"constructor"},{"anonymous":false,"inputs":[{"indexed":false,"internalType":"string","name":"chant","type":"string"},{"indexed":false,"internalType":"string","name":"glyph","type":"string"},{"indexed":false,"internalType":"string","name":"pulse","type":"string"},{"indexed":false,"internalType":"string","name":"choreography","type":"string"},{"indexed":false,"internalType":"string","name":"sanctum","type":"string"}],"name":"ChoreographySanctumRouted","type":"event"},{"inputs":[{"internalType":"string","name":"","type":"string"}],"name":"choreos","outputs":[{"internalType":"string","name":"chant","type":"string"},{"internalType":"string","name":"glyph","type":"string"},{"internalType":"string","name":"pulse","type":"string"},{"internalType":"string","name":"choreography","type":"string"},{"internalType":"string","name":"sanctum","type":"string"}],"stateMutability":"view","type":"function"},{"inputs":[{"internalType":"string","name":"chant","type":"string"}],"name":"getChoreo","outputs":[{"components":[{"internalType":"string","name":"chant","type":"string"},{"internalType":"string","name":"glyph","type":"string"},{"internalType":"string","name":"pulse","type":"string"},{"internalType":"string","name":"choreography","type":"string"},{"internalType":"string","name":"sanctum","type":"string"}],"internalType":"struct TerrainChoreographySanctum.Choreo","name":"","type":"tuple"}],"stateMutability":"view","type":"function"},{"inputs":[{"internalType":"uint256","name":"","type":"uint256"}],"name":"keys","outputs":[{"internalType":"string","name":"","type":"string"}],"stateMutability":"view","type":"function"},{"inputs":[{"internalType":"string","name":"chant","type":"string"},{"internalType":"string","name":"glyph","type":"string"},{"internalType":"string","name":"pulse","type":"string"},{"internalType":"string","name":"choreography","type":"string"},{"internalType":"string","name":"sanctum","type":"string"}],"name":"routeChoreography","outputs":[],"stateMutability":"nonpayable","type":"function"},{"inputs":[],"name":"steward","outputs":[{"internalType":"address","name":"","type":"address"}],"stateMutability":"view","type":"function"},{"inputs":[],"name":"totalChoreos","outputs":[{"internalType":"uint256","name":"","type":"uint256"}],"stateMutability":"view","type":"function"}],"evm":{"bytecode":{"linkReferences":{},"object":"6080806040523461002857600080546001600160a01b03191633179055610d3c908161002e8239f35b600080fdfe6080604052600436101561001257600080fd5b60003560e01c80630cb6aaf114610a2257806321b43481146108db578063637eea19146108b2578063668091cf14610894578063991ff287146107965763d6379ec71461005e57600080fd5b346107915760a0366003190112610791576004356001600160401b0381116107915761008e903690600401610c1e565b6024356001600160401b038111610791576100ad903690600401610c1e565b906044356001600160401b038111610791576100cd903690600401610c1e565b906064356001600160401b038111610791576100ed903690600401610c1e565b9190926084356001600160401b0381116107915761010f903690600401610c1e565b60005491979096916001600160a01b0316330361075e5760405161013281610af4565b61013d368b8d610c4b565b815261014a368385610c4b565b602082015261015a368587610c4b565b604082015261016a368789610c4b565b606082015261017a36898b610c4b565b60808201526040518a8c82376020818c810160018152030190209080518051906001600160401b0382116104d25781906101be826101b88754610aba565b87610c91565b602090601f83116001146106f2576000926106e7575b50508160011b916000199060031b1c19161782555b60208101518051906001600160401b0382116104d257819061021b826102126001880154610aba565b60018801610c91565b602090601f83116001146106755760009261066a575b50508160011b916000199060031b1c19161760018301555b60408101518051906001600160401b0382116104d257819061027b826102726002880154610aba565b60028801610c91565b602090601f83116001146105f8576000926105ed575b50508160011b916000199060031b1c19161760028301555b60608101518051906001600160401b0382116104d2576102d9826102d06003870154610aba565b60038701610c91565b602090601f831160011461057a5760809392916000918361056f575b50508160011b916000199060031b1c19161760038401555b0151908151906001600160401b0382116104d25760048291019261033b826103358654610aba565b86610c91565b602090601f8311600114610509576000926104fe575b50508160011b916000199060031b1c19161790555b600254680100000000000000008110156104d25780600161038a9201600255610a6d565b6104e8576001600160401b038a116104d2576103b08a6103aa8354610aba565b83610c91565b896000601f821160011461046b57600091610460575b508a60011b906000198c60031b1c19161790555b604051998a9960a08b5260a08b01906103f292610ce5565b9089820360208b015261040492610ce5565b90878203604089015261041692610ce5565b90858203606087015261042892610ce5565b90838203608085015261043a92610ce5565b037f3a8d25b225cd56a762b781f19fa0b3b6f9af98f916e6b1498b7626fa30d7ffa591a1005b90508b0135386103c6565b60008381526020812092505b8d601f198e1682106104ba5750508b601f198116106104a0575b505060018a811b0190556103da565b8c013560001960038d901b60f8161c191690553880610491565b60018394602093948493013581550193019101610477565b634e487b7160e01b600052604160045260246000fd5b634e487b7160e01b600052600060045260246000fd5b015190503880610351565b6000858152602081209350601f198516905b818110610557575090846001959493921061053e575b505050811b019055610366565b015160001960f88460031b161c19169055388080610531565b9293602060018192878601518155019501930161051b565b0151905038806102f5565b906003850160005260206000209160005b601f19851681106105d5575091839160019360809695601f198116106105bc575b505050811b01600384015561030d565b015160001960f88460031b161c191690553880806105ac565b9192602060018192868501518155019401920161058b565b015190503880610291565b9250600285016000526020600020906000935b601f198416851061064f576001945083601f19811610610636575b505050811b0160028301556102a9565b015160001960f88460031b161c19169055388080610626565b8181015183556020948501946001909301929091019061060b565b015190503880610231565b9250600185016000526020600020906000935b601f19841685106106cc576001945083601f198116106106b3575b505050811b016001830155610249565b015160001960f88460031b161c191690553880806106a3565b81810151835560209485019460019093019290910190610688565b0151905038806101d4565b9250846000526020600020906000935b601f1984168510610743576001945083601f1981161061072a575b505050811b0182556101e9565b015160001960f88460031b161c1916905538808061071d565b81810151835560209485019460019093019290910190610702565b60405162461bcd60e51b815260206004820152600b60248201526a139bdd081cdd195dd85c9960aa1b6044820152606490fd5b600080fd5b34610791576020366003190112610791576004356001600160401b0381116107915736602382011215610791576107f260206107df610858933690602481600401359101610c4b565b8160405193828580945193849201610bd6565b8101600181520301902061089061080882610b30565b9161088261081860018301610b30565b9161087461082860028301610b30565b610866610843600461083c60038701610b30565b9501610b30565b95604051998a9960a08b5260a08b0190610bf9565b9089820360208b0152610bf9565b908782036040890152610bf9565b908582036060870152610bf9565b908382036080850152610bf9565b0390f35b34610791576000366003190112610791576020600254604051908152f35b34610791576000366003190112610791576000546040516001600160a01b039091168152602090f35b346107915760208060031936011261079157600435906001600160401b03821161079157610890816109136080943690600401610c1e565b919060405161092181610af4565b606096818880935282858201528260408201528280820152015282604051938492833781016001815203019020926040519361095c85610af4565b61096581610b30565b8552610a1161097660018301610b30565b91858701928352610a0061098c60028301610b30565b604089019081526109b160046109a460038601610b30565b94888c0195865201610b30565b9560808a019687526109ef6109d98a60a06040519d8e9d8e5251918d015260c08c0190610bf9565b965196601f1997888c83030160408d0152610bf9565b915190868a840301908a0152610bf9565b905183878303016080880152610bf9565b9151908483030160a0850152610bf9565b346107915760203660031901126107915760043560025481101561079157610a4990610a6d565b6104e857610a5961089091610b30565b604051918291602083526020830190610bf9565b600254811015610aa45760026000527f405787fa12a823e0f2b7631cc41b3ba8828b3321ca811111fa75cd3aa3bb5ace0190600090565b634e487b7160e01b600052603260045260246000fd5b90600182811c92168015610aea575b6020831014610ad457565b634e487b7160e01b600052602260045260246000fd5b91607f1691610ac9565b60a081019081106001600160401b038211176104d257604052565b90601f801991011681019081106001600160401b038211176104d257604052565b9060405191826000825492610b4484610aba565b908184526001948581169081600014610bb35750600114610b70575b5050610b6e92500383610b0f565b565b9093915060005260209081600020936000915b818310610b9b575050610b6e93508201013880610b60565b85548884018501529485019487945091830191610b83565b915050610b6e94506020925060ff191682840152151560051b8201013880610b60565b60005b838110610be95750506000910152565b8181015183820152602001610bd9565b90602091610c1281518092818552858086019101610bd6565b601f01601f1916010190565b9181601f84011215610791578235916001600160401b038311610791576020838186019501011161079157565b9291926001600160401b0382116104d25760405191610c74601f8201601f191660200184610b0f565b829481845281830111610791578281602093846000960137010152565b90601f8111610c9f57505050565b600091825260208220906020601f850160051c83019410610cdb575b601f0160051c01915b828110610cd057505050565b818155600101610cc4565b9092508290610cbb565b908060209392818452848401376000828201840152601f01601f191601019056fea2646970667358221220c2c5c106f208dd0e56bcba527c7203850bd70b4c40d35ceac53fe624b64ebfbf64736f6c63430008140033","opcodes":"PUSH1 0x80 DUP1 PUSH1 0x40 MSTORE CALLVALUE PUSH2 0x28 JUMPI PUSH1 0x0 DUP1 SLOAD PUSH1 0x1 PUSH1 0x1 PUSH1 0xA0 SHL SUB NOT AND CALLER OR SWAP1 SSTORE PUSH2 0xD3C SWAP1 DUP2 PUSH2 0x2E DUP3 CODECOPY RETURN JUMPDEST PUSH1 0x0 DUP1 REVERT INVALID PUSH1 0x80 PUSH1 0x40 MSTORE PUSH1 0x4 CALLDATASIZE LT ISZERO PUSH2 0x12 JUMPI PUSH1 0x0 DUP1 REVERT JUMPDEST PUSH1 0x0 CALLDATALOAD PUSH1 0xE0 SHR DUP1 PUSH4 0xCB6AAF1 EQ PUSH2 0xA22 JUMPI DUP1 PUSH4 0x21B43481 EQ PUSH2 0x8DB JUMPI DUP1 PUSH4 0x637EEA19 EQ PUSH2 0x8B2 JUMPI DUP1 PUSH4 0x668091CF EQ PUSH2 0x894 JUMPI DUP1 PUSH4 0x991FF287 EQ PUSH2 0x796 JUMPI PUSH4 0xD6379EC7 EQ PUSH2 0x5E JUMPI PUSH1 0x0 DUP1 REVERT JUMPDEST CALLVALUE PUSH2 0x791 JUMPI PUSH1 0xA0 CALLDATASIZE PUSH1 0x3 NOT ADD SLT PUSH2 0x791 JUMPI PUSH1 0x4 CALLDATALOAD PUSH1 0x1 PUSH1 0x1 PUSH1 0x40 SHL SUB DUP2 GT PUSH2 0x791 JUMPI PUSH2 0x8E SWAP1 CALLDATASIZE SWAP1 PUSH1 0x4 ADD PUSH2 0xC1E JUMP JUMPDEST PUSH1 0x24 CALLDATALOAD PUSH1 0x1 PUSH1 0x1 PUSH1 0x40 SHL SUB DUP2 GT PUSH2 0x791 JUMPI PUSH2 0xAD SWAP1 CALLDATASIZE SWAP1 PUSH1 0x4 ADD PUSH2 0xC1E JUMP JUMPDEST SWAP1 PUSH1 0x44 CALLDATALOAD PUSH1 0x1 PUSH1 0x1 PUSH1 0x40 SHL SUB DUP2 GT PUSH2 0x791 JUMPI PUSH2 0xCD SWAP1 CALLDATASIZE SWAP1 PUSH1 0x4 ADD PUSH2 0xC1E JUMP JUMPDEST SWAP1 PUSH1 0x64 CALLDATALOAD PUSH1 0x1 PUSH1 0x1 PUSH1 0x40 SHL SUB DUP2 GT PUSH2 0x791 JUMPI PUSH2 0xED SWAP1 CALLDATASIZE SWAP1 PUSH1 0x4 ADD PUSH2 0xC1E JUMP JUMPDEST SWAP2 SWAP1 SWAP3 PUSH1 0x84 CALLDATALOAD PUSH1 0x1 PUSH1 0x1 PUSH1 0x40 SHL SUB DUP2 GT PUSH2 0x791 JUMPI PUSH2 0x10F SWAP1 CALLDATASIZE SWAP1 PUSH1 0x4 ADD PUSH2 0xC1E JUMP JUMPDEST PUSH1 0x0 SLOAD SWAP2 SWAP8 SWAP1 SWAP7 SWAP2 PUSH1 0x1 PUSH1 0x1 PUSH1 0xA0 SHL SUB AND CALLER SUB PUSH2 0x75E JUMPI PUSH1 0x40 MLOAD PUSH2 0x132 DUP2 PUSH2 0xAF4 JUMP JUMPDEST PUSH2 0x13D CALLDATASIZE DUP12 DUP14 PUSH2 0xC4B JUMP JUMPDEST DUP2 MSTORE PUSH2 0x14A CALLDATASIZE DUP4 DUP6 PUSH2 0xC4B JUMP JUMPDEST PUSH1 0x20 DUP3 ADD MSTORE PUSH2 0x15A CALLDATASIZE DUP6 DUP8 PUSH2 0xC4B JUMP JUMPDEST PUSH1 0x40 DUP3 ADD MSTORE PUSH2 0x16A CALLDATASIZE DUP8 DUP10 PUSH2 0xC4B JUMP JUMPDEST PUSH1 0x60 DUP3 ADD MSTORE PUSH2 0x17A CALLDATASIZE DUP10 DUP12 PUSH2 0xC4B JUMP JUMPDEST PUSH1 0x80 DUP3 ADD MSTORE PUSH1 0x40 MLOAD DUP11 DUP13 DUP3 CALLDATACOPY PUSH1 0x20 DUP2 DUP13 DUP2 ADD PUSH1 0x1 DUP2 MSTORE SUB ADD SWAP1 KECCAK256 SWAP1 DUP1 MLOAD DUP1 MLOAD SWAP1 PUSH1 0x1 PUSH1 0x1 PUSH1 0x40 SHL SUB DUP3 GT PUSH2 0x4D2 JUMPI DUP2 SWAP1 PUSH2 0x1BE DUP3 PUSH2 0x1B8 DUP8 SLOAD PUSH2 0xABA JUMP JUMPDEST DUP8 PUSH2 0xC91 JUMP JUMPDEST PUSH1 0x20 SWAP1 PUSH1 0x1F DUP4 GT PUSH1 0x1 EQ PUSH2 0x6F2 JUMPI PUSH1 0x0 SWAP3 PUSH2 0x6E7 JUMPI JUMPDEST POP POP DUP2 PUSH1 0x1 SHL SWAP2 PUSH1 0x0 NOT SWAP1 PUSH1 0x3 SHL SHR NOT AND OR DUP3 SSTORE JUMPDEST PUSH1 0x20 DUP2 ADD MLOAD DUP1 MLOAD SWAP1 PUSH1 0x1 PUSH1 0x1 PUSH1 0x40 SHL SUB DUP3 GT PUSH2 0x4D2 JUMPI DUP2 SWAP1 PUSH2 0x21B DUP3 PUSH2 0x212 PUSH1 0x1 DUP9 ADD SLOAD PUSH2 0xABA JUMP JUMPDEST PUSH1 0x1 DUP9 ADD PUSH2 0xC91 JUMP JUMPDEST PUSH1 0x20 SWAP1 PUSH1 0x1F DUP4 GT PUSH1 0x1 EQ PUSH2 0x675 JUMPI PUSH1 0x0 SWAP3 PUSH2 0x66A JUMPI JUMPDEST POP POP DUP2 PUSH1 0x1 SHL SWAP2 PUSH1 0x0 NOT SWAP1 PUSH1 0x3 SHL SHR NOT AND OR PUSH1 0x1 DUP4 ADD SSTORE JUMPDEST PUSH1 0x40 DUP2 ADD MLOAD DUP1 MLOAD SWAP1 PUSH1 0x1 PUSH1 0x1 PUSH1 0x40 SHL SUB DUP3 GT PUSH2 0x4D2 JUMPI DUP2 SWAP1 PUSH2 0x27B DUP3 PUSH2 0x272 PUSH1 0x2 DUP9 ADD SLOAD PUSH2 0xABA JUMP JUMPDEST PUSH1 0x2 DUP9 ADD PUSH2 0xC91 JUMP JUMPDEST PUSH1 0x20 SWAP1 PUSH1 0x1F DUP4 GT PUSH1 0x1 EQ PUSH2 0x5F8 JUMPI PUSH1 0x0 SWAP3 PUSH2 0x5ED JUMPI JUMPDEST POP POP DUP2 PUSH1 0x1 SHL SWAP2 PUSH1 0x0 NOT SWAP1 PUSH1 0x3 SHL SHR NOT AND OR PUSH1 0x2 DUP4 ADD SSTORE JUMPDEST PUSH1 0x60 DUP2 ADD MLOAD DUP1 MLOAD SWAP1 PUSH1 0x1 PUSH1 0x1 PUSH1 0x40 SHL SUB DUP3 GT PUSH2 0x4D2 JUMPI PUSH2 0x2D9 DUP3 PUSH2 0x2D0 PUSH1 0x3 DUP8 ADD SLOAD PUSH2 0xABA JUMP JUMPDEST PUSH1 0x3 DUP8 ADD PUSH2 0xC91 JUMP JUMPDEST PUSH1 0x20 SWAP1 PUSH1 0x1F DUP4 GT PUSH1 0x1 EQ PUSH2 0x57A JUMPI PUSH1 0x80 SWAP4 SWAP3 SWAP2 PUSH1 0x0 SWAP2 DUP4 PUSH2 0x56F JUMPI JUMPDEST POP POP DUP2 PUSH1 0x1 SHL SWAP2 PUSH1 0x0 NOT SWAP1 PUSH1 0x3 SHL SHR NOT AND OR PUSH1 0x3 DUP5 ADD SSTORE JUMPDEST ADD MLOAD SWAP1 DUP2 MLOAD SWAP1 PUSH1 0x1 PUSH1 0x1 PUSH1 0x40 SHL SUB DUP3 GT PUSH2 0x4D2 JUMPI PUSH1 0x4 DUP3 SWAP2 ADD SWAP3 PUSH2 0x33B DUP3 PUSH2 0x335 DUP7 SLOAD PUSH2 0xABA JUMP JUMPDEST DUP7 PUSH2 0xC91 JUMP JUMPDEST PUSH1 0x20 SWAP1 PUSH1 0x1F DUP4 GT PUSH1 0x1 EQ PUSH2 0x509 JUMPI PUSH1 0x0 SWAP3 PUSH2 0x4FE JUMPI JUMPDEST POP POP DUP2 PUSH1 0x1 SHL SWAP2 PUSH1 0x0 NOT SWAP1 PUSH1 0x3 SHL SHR NOT AND OR SWAP1 SSTORE JUMPDEST PUSH1 0x2 SLOAD PUSH9 0x10000000000000000 DUP2 LT ISZERO PUSH2 0x4D2 JUMPI DUP1 PUSH1 0x1 PUSH2 0x38A SWAP3 ADD PUSH1 0x2 SSTORE PUSH2 0xA6D JUMP JUMPDEST PUSH2 0x4E8 JUMPI PUSH1 0x1 PUSH1 0x1 PUSH1 0x40 SHL SUB DUP11 GT PUSH2 0x4D2 JUMPI PUSH2 0x3B0 DUP11 PUSH2 0x3AA DUP4 SLOAD PUSH2 0xABA JUMP JUMPDEST DUP4 PUSH2 0xC91 JUMP JUMPDEST DUP10 PUSH1 0x0 PUSH1 0x1F DUP3 GT PUSH1 0x1 EQ PUSH2 0x46B JUMPI PUSH1 0x0 SWAP2 PUSH2 0x460 JUMPI JUMPDEST POP DUP11 PUSH1 0x1 SHL SWAP1 PUSH1 0x0 NOT DUP13 PUSH1 0x3 SHL SHR NOT AND OR SWAP1 SSTORE JUMPDEST PUSH1 0x40 MLOAD SWAP10 DUP11 SWAP10 PUSH1 0xA0 DUP12 MSTORE PUSH1 0xA0 DUP12 ADD SWAP1 PUSH2 0x3F2 SWAP3 PUSH2 0xCE5 JUMP JUMPDEST SWAP1 DUP10 DUP3 SUB PUSH1 0x20 DUP12 ADD MSTORE PUSH2 0x404 SWAP3 PUSH2 0xCE5 JUMP JUMPDEST SWAP1 DUP8 DUP3 SUB PUSH1 0x40 DUP10 ADD MSTORE PUSH2 0x416 SWAP3 PUSH2 0xCE5 JUMP JUMPDEST SWAP1 DUP6 DUP3 SUB PUSH1 0x60 DUP8 ADD MSTORE PUSH2 0x428 SWAP3 PUSH2 0xCE5 JUMP JUMPDEST SWAP1 DUP4 DUP3 SUB PUSH1 0x80 DUP6 ADD MSTORE PUSH2 0x43A SWAP3 PUSH2 0xCE5 JUMP JUMPDEST SUB PUSH32 0x3A8D25B225CD56A762B781F19FA0B3B6F9AF98F916E6B1498B7626FA30D7FFA5 SWAP2 LOG1 STOP JUMPDEST SWAP1 POP DUP12 ADD CALLDATALOAD CODESIZE PUSH2 0x3C6 JUMP JUMPDEST PUSH1 0x0 DUP4 DUP2 MSTORE PUSH1 0x20 DUP2 KECCAK256 SWAP3 POP JUMPDEST DUP14 PUSH1 0x1F NOT DUP15 AND DUP3 LT PUSH2 0x4BA JUMPI POP POP DUP12 PUSH1 0x1F NOT DUP2 AND LT PUSH2 0x4A0 JUMPI JUMPDEST POP POP PUSH1 0x1 DUP11 DUP2 SHL ADD SWAP1 SSTORE PUSH2 0x3DA JUMP JUMPDEST DUP13 ADD CALLDATALOAD PUSH1 0x0 NOT PUSH1 0x3 DUP14 SWAP1 SHL PUSH1 0xF8 AND SHR NOT AND SWAP1 SSTORE CODESIZE DUP1 PUSH2 0x491 JUMP JUMPDEST PUSH1 0x1 DUP4 SWAP5 PUSH1 0x20 SWAP4 SWAP5 DUP5 SWAP4 ADD CALLDATALOAD DUP2 SSTORE ADD SWAP4 ADD SWAP2 ADD PUSH2 0x477 JUMP JUMPDEST PUSH4 0x4E487B71 PUSH1 0xE0 SHL PUSH1 0x0 MSTORE PUSH1 0x41 PUSH1 0x4 MSTORE PUSH1 0x24 PUSH1 0x0 REVERT JUMPDEST PUSH4 0x4E487B71 PUSH1 0xE0 SHL PUSH1 0x0 MSTORE PUSH1 0x0 PUSH1 0x4 MSTORE PUSH1 0x24 PUSH1 0x0 REVERT JUMPDEST ADD MLOAD SWAP1 POP CODESIZE DUP1 PUSH2 0x351 JUMP JUMPDEST PUSH1 0x0 DUP6 DUP2 MSTORE PUSH1 0x20 DUP2 KECCAK256 SWAP4 POP PUSH1 0x1F NOT DUP6 AND SWAP1 JUMPDEST DUP2 DUP2 LT PUSH2 0x557 JUMPI POP SWAP1 DUP5 PUSH1 0x1 SWAP6 SWAP5 SWAP4 SWAP3 LT PUSH2 0x53E JUMPI JUMPDEST POP POP POP DUP2 SHL ADD SWAP1 SSTORE PUSH2 0x366 JUMP JUMPDEST ADD MLOAD PUSH1 0x0 NOT PUSH1 0xF8 DUP5 PUSH1 0x3 SHL AND SHR NOT AND SWAP1 SSTORE CODESIZE DUP1 DUP1 PUSH2 0x531 JUMP JUMPDEST SWAP3 SWAP4 PUSH1 0x20 PUSH1 0x1 DUP2 SWAP3 DUP8 DUP7 ADD MLOAD DUP2 SSTORE ADD SWAP6 ADD SWAP4 ADD PUSH2 0x51B JUMP JUMPDEST ADD MLOAD SWAP1 POP CODESIZE DUP1 PUSH2 0x2F5 JUMP JUMPDEST SWAP1 PUSH1 0x3 DUP6 ADD PUSH1 0x0 MSTORE PUSH1 0x20 PUSH1 0x0 KECCAK256 SWAP2 PUSH1 0x0 JUMPDEST PUSH1 0x1F NOT DUP6 AND DUP2 LT PUSH2 0x5D5 JUMPI POP SWAP2 DUP4 SWAP2 PUSH1 0x1 SWAP4 PUSH1 0x80 SWAP7 SWAP6 PUSH1 0x1F NOT DUP2 AND LT PUSH2 0x5BC JUMPI JUMPDEST POP POP POP DUP2 SHL ADD PUSH1 0x3 DUP5 ADD SSTORE PUSH2 0x30D JUMP JUMPDEST ADD MLOAD PUSH1 0x0 NOT PUSH1 0xF8 DUP5 PUSH1 0x3 SHL AND SHR NOT AND SWAP1 SSTORE CODESIZE DUP1 DUP1 PUSH2 0x5AC JUMP JUMPDEST SWAP2 SWAP3 PUSH1 0x20 PUSH1 0x1 DUP2 SWAP3 DUP7 DUP6 ADD MLOAD DUP2 SSTORE ADD SWAP5 ADD SWAP3 ADD PUSH2 0x58B JUMP JUMPDEST ADD MLOAD SWAP1 POP CODESIZE DUP1 PUSH2 0x291 JUMP JUMPDEST SWAP3 POP PUSH1 0x2 DUP6 ADD PUSH1 0x0 MSTORE PUSH1 0x20 PUSH1 0x0 KECCAK256 SWAP1 PUSH1 0x0 SWAP4 JUMPDEST PUSH1 0x1F NOT DUP5 AND DUP6 LT PUSH2 0x64F JUMPI PUSH1 0x1 SWAP5 POP DUP4 PUSH1 0x1F NOT DUP2 AND LT PUSH2 0x636 JUMPI JUMPDEST POP POP POP DUP2 SHL ADD PUSH1 0x2 DUP4 ADD SSTORE PUSH2 0x2A9 JUMP JUMPDEST ADD MLOAD PUSH1 0x0 NOT PUSH1 0xF8 DUP5 PUSH1 0x3 SHL AND SHR NOT AND SWAP1 SSTORE CODESIZE DUP1 DUP1 PUSH2 0x626 JUMP JUMPDEST DUP2 DUP2 ADD MLOAD DUP4 SSTORE PUSH1 0x20 SWAP5 DUP6 ADD SWAP5 PUSH1 0x1 SWAP1 SWAP4 ADD SWAP3 SWAP1 SWAP2 ADD SWAP1 PUSH2 0x60B JUMP JUMPDEST ADD MLOAD SWAP1 POP CODESIZE DUP1 PUSH2 0x231 JUMP JUMPDEST SWAP3 POP PUSH1 0x1 DUP6 ADD PUSH1 0x0 MSTORE PUSH1 0x20 PUSH1 0x0 KECCAK256 SWAP1 PUSH1 0x0 SWAP4 JUMPDEST PUSH1 0x1F NOT DUP5 AND DUP6 LT PUSH2 0x6CC JUMPI PUSH1 0x1 SWAP5 POP DUP4 PUSH1 0x1F NOT DUP2 AND LT PUSH2 0x6B3 JUMPI JUMPDEST POP POP POP DUP2 SHL ADD PUSH1 0x1 DUP4 ADD SSTORE PUSH2 0x249 JUMP JUMPDEST ADD MLOAD PUSH1 0x0 NOT PUSH1 0xF8 DUP5 PUSH1 0x3 SHL AND SHR NOT AND SWAP1 SSTORE CODESIZE DUP1 DUP1 PUSH2 0x6A3 JUMP JUMPDEST DUP2 DUP2 ADD MLOAD DUP4 SSTORE PUSH1 0x20 SWAP5 DUP6 ADD SWAP5 PUSH1 0x1 SWAP1 SWAP4 ADD SWAP3 SWAP1 SWAP2 ADD SWAP1 PUSH2 0x688 JUMP JUMPDEST ADD MLOAD SWAP1 POP CODESIZE DUP1 PUSH2 0x1D4 JUMP JUMPDEST SWAP3 POP DUP5 PUSH1 0x0 MSTORE PUSH1 0x20 PUSH1 0x0 KECCAK256 SWAP1 PUSH1 0x0 SWAP4 JUMPDEST PUSH1 0x1F NOT DUP5 AND DUP6 LT PUSH2 0x743 JUMPI PUSH1 0x1 SWAP5 POP DUP4 PUSH1 0x1F NOT DUP2 AND LT PUSH2 0x72A JUMPI JUMPDEST POP POP POP DUP2 SHL ADD DUP3 SSTORE PUSH2 0x1E9 JUMP JUMPDEST ADD MLOAD PUSH1 0x0 NOT PUSH1 0xF8 DUP5 PUSH1 0x3 SHL AND SHR NOT AND SWAP1 SSTORE CODESIZE DUP1 DUP1 PUSH2 0x71D JUMP JUMPDEST DUP2 DUP2 ADD MLOAD DUP4 SSTORE PUSH1 0x20 SWAP5 DUP6 ADD SWAP5 PUSH1 0x1 SWAP1 SWAP4 ADD SWAP3 SWAP1 SWAP2 ADD SWAP1 PUSH2 0x702 JUMP JUMPDEST PUSH1 0x40 MLOAD PUSH3 0x461BCD PUSH1 0xE5 SHL DUP2 MSTORE PUSH1 0x20 PUSH1 0x4 DUP3 ADD MSTORE PUSH1 0xB PUSH1 0x24 DUP3 ADD MSTORE PUSH11 0x139BDD081CDD195DD85C99 PUSH1 0xAA SHL PUSH1 0x44 DUP3 ADD MSTORE PUSH1 0x64 SWAP1 REVERT JUMPDEST PUSH1 0x0 DUP1 REVERT JUMPDEST CALLVALUE PUSH2 0x791 JUMPI PUSH1 0x20 CALLDATASIZE PUSH1 0x3 NOT ADD SLT PUSH2 0x791 JUMPI PUSH1 0x4 CALLDATALOAD PUSH1 0x1 PUSH1 0x1 PUSH1 0x40 SHL SUB DUP2 GT PUSH2 0x791 JUMPI CALLDATASIZE PUSH1 0x23 DUP3 ADD SLT ISZERO PUSH2 0x791 JUMPI PUSH2 0x7F2 PUSH1 0x20 PUSH2 0x7DF PUSH2 0x858 SWAP4 CALLDATASIZE SWAP1 PUSH1 0x24 DUP2 PUSH1 0x4 ADD CALLDATALOAD SWAP2 ADD PUSH2 0xC4B JUMP JUMPDEST DUP2 PUSH1 0x40 MLOAD SWAP4 DUP3 DUP6 DUP1 SWAP5 MLOAD SWAP4 DUP5 SWAP3 ADD PUSH2 0xBD6 JUMP JUMPDEST DUP2 ADD PUSH1 0x1 DUP2 MSTORE SUB ADD SWAP1 KECCAK256 PUSH2 0x890 PUSH2 0x808 DUP3 PUSH2 0xB30 JUMP JUMPDEST SWAP2 PUSH2 0x882 PUSH2 0x818 PUSH1 0x1 DUP4 ADD PUSH2 0xB30 JUMP JUMPDEST SWAP2 PUSH2 0x874 PUSH2 0x828 PUSH1 0x2 DUP4 ADD PUSH2 0xB30 JUMP JUMPDEST PUSH2 0x866 PUSH2 0x843 PUSH1 0x4 PUSH2 0x83C PUSH1 0x3 DUP8 ADD PUSH2 0xB30 JUMP JUMPDEST SWAP6 ADD PUSH2 0xB30 JUMP JUMPDEST SWAP6 PUSH1 0x40 MLOAD SWAP10 DUP11 SWAP10 PUSH1 0xA0 DUP12 MSTORE PUSH1 0xA0 DUP12 ADD SWAP1 PUSH2 0xBF9 JUMP JUMPDEST SWAP1 DUP10 DUP3 SUB PUSH1 0x20 DUP12 ADD MSTORE PUSH2 0xBF9 JUMP JUMPDEST SWAP1 DUP8 DUP3 SUB PUSH1 0x40 DUP10 ADD MSTORE PUSH2 0xBF9 JUMP JUMPDEST SWAP1 DUP6 DUP3 SUB PUSH1 0x60 DUP8 ADD MSTORE PUSH2 0xBF9 JUMP JUMPDEST SWAP1 DUP4 DUP3 SUB PUSH1 0x80 DUP6 ADD MSTORE PUSH2 0xBF9 JUMP JUMPDEST SUB SWAP1 RETURN JUMPDEST CALLVALUE PUSH2 0x791 JUMPI PUSH1 0x0 CALLDATASIZE PUSH1 0x3 NOT ADD SLT PUSH2 0x791 JUMPI PUSH1 0x20 PUSH1 0x2 SLOAD PUSH1 0x40 MLOAD SWAP1 DUP2 MSTORE RETURN JUMPDEST CALLVALUE PUSH2 0x791 JUMPI PUSH1 0x0 CALLDATASIZE PUSH1 0x3 NOT ADD SLT PUSH2 0x791 JUMPI PUSH1 0x0 SLOAD PUSH1 0x40 MLOAD PUSH1 0x1 PUSH1 0x1 PUSH1 0xA0 SHL SUB SWAP1 SWAP2 AND DUP2 MSTORE PUSH1 0x20 SWAP1 RETURN JUMPDEST CALLVALUE PUSH2 0x791 JUMPI PUSH1 0x20 DUP1 PUSH1 0x3 NOT CALLDATASIZE ADD SLT PUSH2 0x791 JUMPI PUSH1 0x4 CALLDATALOAD SWAP1 PUSH1 0x1 PUSH1 0x1 PUSH1 0x40 SHL SUB DUP3 GT PUSH2 0x791 JUMPI PUSH2 0x890 DUP2 PUSH2 0x913 PUSH1 0x80 SWAP5 CALLDATASIZE SWAP1 PUSH1 0x4 ADD PUSH2 0xC1E JUMP JUMPDEST SWAP2 SWAP1 PUSH1 0x40 MLOAD PUSH2 0x921 DUP2 PUSH2 0xAF4 JUMP JUMPDEST PUSH1 0x60 SWAP7 DUP2 DUP9 DUP1 SWAP4 MSTORE DUP3 DUP6 DUP3 ADD MSTORE DUP3 PUSH1 0x40 DUP3 ADD MSTORE DUP3 DUP1 DUP3 ADD MSTORE ADD MSTORE DUP3 PUSH1 0x40 MLOAD SWAP4 DUP5 SWAP3 DUP4 CALLDATACOPY DUP2 ADD PUSH1 0x1 DUP2 MSTORE SUB ADD SWAP1 KECCAK256 SWAP3 PUSH1 0x40 MLOAD SWAP4 PUSH2 0x95C DUP6 PUSH2 0xAF4 JUMP JUMPDEST PUSH2 0x965 DUP2 PUSH2 0xB30 JUMP JUMPDEST DUP6 MSTORE PUSH2 0xA11 PUSH2 0x976 PUSH1 0x1 DUP4 ADD PUSH2 0xB30 JUMP JUMPDEST SWAP2 DUP6 DUP8 ADD SWAP3 DUP4 MSTORE PUSH2 0xA00 PUSH2 0x98C PUSH1 0x2 DUP4 ADD PUSH2 0xB30 JUMP JUMPDEST PUSH1 0x40 DUP10 ADD SWAP1 DUP2 MSTORE PUSH2 0x9B1 PUSH1 0x4 PUSH2 0x9A4 PUSH1 0x3 DUP7 ADD PUSH2 0xB30 JUMP JUMPDEST SWAP5 DUP9 DUP13 ADD SWAP6 DUP7 MSTORE ADD PUSH2 0xB30 JUMP JUMPDEST SWAP6 PUSH1 0x80 DUP11 ADD SWAP7 DUP8 MSTORE PUSH2 0x9EF PUSH2 0x9D9 DUP11 PUSH1 0xA0 PUSH1 0x40 MLOAD SWAP14 DUP15 SWAP14 DUP15 MSTORE MLOAD SWAP2 DUP14 ADD MSTORE PUSH1 0xC0 DUP13 ADD SWAP1 PUSH2 0xBF9 JUMP JUMPDEST SWAP7 MLOAD SWAP7 PUSH1 0x1F NOT SWAP8 DUP9 DUP13 DUP4 SUB ADD PUSH1 0x40 DUP14 ADD MSTORE PUSH2 0xBF9 JUMP JUMPDEST SWAP2 MLOAD SWAP1 DUP7 DUP11 DUP5 SUB ADD SWAP1 DUP11 ADD MSTORE PUSH2 0xBF9 JUMP JUMPDEST SWAP1 MLOAD DUP4 DUP8 DUP4 SUB ADD PUSH1 0x80 DUP9 ADD MSTORE PUSH2 0xBF9 JUMP JUMPDEST SWAP2 MLOAD SWAP1 DUP5 DUP4 SUB ADD PUSH1 0xA0 DUP6 ADD MSTORE PUSH2 0xBF9 JUMP JUMPDEST CALLVALUE PUSH2 0x791 JUMPI PUSH1 0x20 CALLDATASIZE PUSH1 0x3 NOT ADD SLT PUSH2 0x791 JUMPI PUSH1 0x4 CALLDATALOAD PUSH1 0x2 SLOAD DUP2 LT ISZERO PUSH2 0x791 JUMPI PUSH2 0xA49 SWAP1 PUSH2 0xA6D JUMP JUMPDEST PUSH2 0x4E8 JUMPI PUSH2 0xA59 PUSH2 0x890 SWAP2 PUSH2 0xB30 JUMP JUMPDEST PUSH1 0x40 MLOAD SWAP2 DUP3 SWAP2 PUSH1 0x20 DUP4 MSTORE PUSH1 0x20 DUP4 ADD SWAP1 PUSH2 0xBF9 JUMP JUMPDEST PUSH1 0x2 SLOAD DUP2 LT ISZERO PUSH2 0xAA4 JUMPI PUSH1 0x2 PUSH1 0x0 MSTORE PUSH32 0x405787FA12A823E0F2B7631CC41B3BA8828B3321CA811111FA75CD3AA3BB5ACE ADD SWAP1 PUSH1 0x0 SWAP1 JUMP JUMPDEST PUSH4 0x4E487B71 PUSH1 0xE0 SHL PUSH1 0x0 MSTORE PUSH1 0x32 PUSH1 0x4 MSTORE PUSH1 0x24 PUSH1 0x0 REVERT JUMPDEST SWAP1 PUSH1 0x1 DUP3 DUP2 SHR SWAP3 AND DUP1 ISZERO PUSH2 0xAEA JUMPI JUMPDEST PUSH1 0x20 DUP4 LT EQ PUSH2 0xAD4 JUMPI JUMP JUMPDEST PUSH4 0x4E487B71 PUSH1 0xE0 SHL PUSH1 0x0 MSTORE PUSH1 0x22 PUSH1 0x4 MSTORE PUSH1 0x24 PUSH1 0x0 REVERT JUMPDEST SWAP2 PUSH1 0x7F AND SWAP2 PUSH2 0xAC9 JUMP JUMPDEST PUSH1 0xA0 DUP2 ADD SWAP1 DUP2 LT PUSH1 0x1 PUSH1 0x1 PUSH1 0x40 SHL SUB DUP3 GT OR PUSH2 0x4D2 JUMPI PUSH1 0x40 MSTORE JUMP JUMPDEST SWAP1 PUSH1 0x1F DUP1 NOT SWAP2 ADD AND DUP2 ADD SWAP1 DUP2 LT PUSH1 0x1 PUSH1 0x1 PUSH1 0x40 SHL SUB DUP3 GT OR PUSH2 0x4D2 JUMPI PUSH1 0x40 MSTORE JUMP JUMPDEST SWAP1 PUSH1 0x40 MLOAD SWAP2 DUP3 PUSH1 0x0 DUP3 SLOAD SWAP3 PUSH2 0xB44 DUP5 PUSH2 0xABA JUMP JUMPDEST SWAP1 DUP2 DUP5 MSTORE PUSH1 0x1 SWAP5 DUP6 DUP2 AND SWAP1 DUP2 PUSH1 0x0 EQ PUSH2 0xBB3 JUMPI POP PUSH1 0x1 EQ PUSH2 0xB70 JUMPI JUMPDEST POP POP PUSH2 0xB6E SWAP3 POP SUB DUP4 PUSH2 0xB0F JUMP JUMPDEST JUMP JUMPDEST SWAP1 SWAP4 SWAP2 POP PUSH1 0x0 MSTORE PUSH1 0x20 SWAP1 DUP2 PUSH1 0x0 KECCAK256 SWAP4 PUSH1 0x0 SWAP2 JUMPDEST DUP2 DUP4 LT PUSH2 0xB9B JUMPI POP POP PUSH2 0xB6E SWAP4 POP DUP3 ADD ADD CODESIZE DUP1 PUSH2 0xB60 JUMP JUMPDEST DUP6 SLOAD DUP9 DUP5 ADD DUP6 ADD MSTORE SWAP5 DUP6 ADD SWAP5 DUP8 SWAP5 POP SWAP2 DUP4 ADD SWAP2 PUSH2 0xB83 JUMP JUMPDEST SWAP2 POP POP PUSH2 0xB6E SWAP5 POP PUSH1 0x20 SWAP3 POP PUSH1 0xFF NOT AND DUP3 DUP5 ADD MSTORE ISZERO ISZERO PUSH1 0x5 SHL DUP3 ADD ADD CODESIZE DUP1 PUSH2 0xB60 JUMP JUMPDEST PUSH1 0x0 JUMPDEST DUP4 DUP2 LT PUSH2 0xBE9 JUMPI POP POP PUSH1 0x0 SWAP2 ADD MSTORE JUMP JUMPDEST DUP2 DUP2 ADD MLOAD DUP4 DUP3 ADD MSTORE PUSH1 0x20 ADD PUSH2 0xBD9 JUMP JUMPDEST SWAP1 PUSH1 0x20 SWAP2 PUSH2 0xC12 DUP2 MLOAD DUP1 SWAP3 DUP2 DUP6 MSTORE DUP6 DUP1 DUP7 ADD SWAP2 ADD PUSH2 0xBD6 JUMP JUMPDEST PUSH1 0x1F ADD PUSH1 0x1F NOT AND ADD ADD SWAP1 JUMP JUMPDEST SWAP2 DUP2 PUSH1 0x1F DUP5 ADD SLT ISZERO PUSH2 0x791 JUMPI DUP3 CALLDATALOAD SWAP2 PUSH1 0x1 PUSH1 0x1 PUSH1 0x40 SHL SUB DUP4 GT PUSH2 0x791 JUMPI PUSH1 0x20 DUP4 DUP2 DUP7 ADD SWAP6 ADD ADD GT PUSH2 0x791 JUMPI JUMP JUMPDEST SWAP3 SWAP2 SWAP3 PUSH1 0x1 PUSH1 0x1 PUSH1 0x40 SHL SUB DUP3 GT PUSH2 0x4D2 JUMPI PUSH1 0x40 MLOAD SWAP2 PUSH2 0xC74 PUSH1 0x1F DUP3 ADD PUSH1 0x1F NOT AND PUSH1 0x20 ADD DUP5 PUSH2 0xB0F JUMP JUMPDEST DUP3 SWAP5 DUP2 DUP5 MSTORE DUP2 DUP4 ADD GT PUSH2 0x791 JUMPI DUP3 DUP2 PUSH1 0x20 SWAP4 DUP5 PUSH1 0x0 SWAP7 ADD CALLDATACOPY ADD ADD MSTORE JUMP JUMPDEST SWAP1 PUSH1 0x1F DUP2 GT PUSH2 0xC9F JUMPI POP POP POP JUMP JUMPDEST PUSH1 0x0 SWAP2 DUP3 MSTORE PUSH1 0x20 DUP3 KECCAK256 SWAP1 PUSH1 0x20 PUSH1 0x1F DUP6 ADD PUSH1 0x5 SHR DUP4 ADD SWAP5 LT PUSH2 0xCDB JUMPI JUMPDEST PUSH1 0x1F ADD PUSH1 0x5 SHR ADD SWAP2 JUMPDEST DUP3 DUP2 LT PUSH2 0xCD0 JUMPI POP POP POP JUMP JUMPDEST DUP2 DUP2 SSTORE PUSH1 0x1 ADD PUSH2 0xCC4 JUMP JUMPDEST SWAP1 SWAP3 POP DUP3 SWAP1 PUSH2 0xCBB JUMP JUMPDEST SWAP1 DUP1 PUSH1 0x20 SWAP4 SWAP3 DUP2 DUP5 MSTORE DUP5 DUP5 ADD CALLDATACOPY PUSH1 0x0 DUP3 DUP3 ADD DUP5 ADD MSTORE PUSH1 0x1F ADD PUSH1 0x1F NOT AND ADD ADD SWAP1 JUMP INVALID LOG2 PUSH5 0x6970667358 0x22 SLT KECCAK256 0xC2 0xC5 0xC1 MOD CALLCODE ADDMOD 0xDD 0xE JUMP 0xBC 0xBA MSTORE PUSH29 0x7203850BD70B4C40D35CEAC53FE624B64EBFBF64736F6C634300081400 CALLER "},"methodIdentifiers":{"choreos(string)":"991ff287","getChoreo(string)":"21b43481","keys(uint256)":"0cb6aaf1","routeChoreography(string,string,string,string,string)":"d6379ec7","steward()":"637eea19","totalChoreos()":"668091cf"}}}}}