{"contracts/codex/SpiralboundCodexX.sol":{"SpiralboundCodexX":{"abi":[{"inputs":[],"stateMutability":"nonpayable","type":"constructor"},{"anonymous":false,"inputs":[{"indexed":false,"internalType":"string","name":"glyph","type":"string"},{"indexed":false,"internalType":"string","name":"tag","type":"string"},{"indexed":false,"internalType":"string","name":"binding","type":"string"},{"indexed":false,"internalType":"string","name":"annotation","type":"string"},{"indexed":false,"internalType":"string","name":"lineage","type":"string"},{"indexed":false,"internalType":"string","name":"resonance","type":"string"},{"indexed":false,"internalType":"string","name":"protocol","type":"string"},{"indexed":false,"internalType":"string","name":"sanctum","type":"string"},{"indexed":false,"internalType":"string","name":"pulse","type":"string"},{"indexed":false,"internalType":"string","name":"chant","type":"string"},{"indexed":false,"internalType":"string","name":"choreography","type":"string"}],"name":"CodexInscribed","type":"event"},{"inputs":[{"internalType":"string","name":"","type":"string"}],"name":"codices","outputs":[{"internalType":"string","name":"tag","type":"string"},{"internalType":"string","name":"binding","type":"string"},{"internalType":"string","name":"annotation","type":"string"},{"internalType":"string","name":"lineage","type":"string"},{"internalType":"string","name":"resonance","type":"string"},{"internalType":"string","name":"protocol","type":"string"},{"internalType":"string","name":"sanctum","type":"string"},{"internalType":"string","name":"pulse","type":"string"},{"internalType":"string","name":"chant","type":"string"},{"internalType":"string","name":"choreography","type":"string"}],"stateMutability":"view","type":"function"},{"inputs":[{"internalType":"string","name":"glyph","type":"string"}],"name":"getCodex","outputs":[{"components":[{"internalType":"string","name":"tag","type":"string"},{"internalType":"string","name":"binding","type":"string"},{"internalType":"string","name":"annotation","type":"string"},{"internalType":"string","name":"lineage","type":"string"},{"internalType":"string","name":"resonance","type":"string"},{"internalType":"string","name":"protocol","type":"string"},{"internalType":"string","name":"sanctum","type":"string"},{"internalType":"string","name":"pulse","type":"string"},{"internalType":"string","name":"chant","type":"string"},{"internalType":"string","name":"choreography","type":"string"}],"internalType":"struct SpiralboundCodexX.Codex","name":"","type":"tuple"}],"stateMutability":"view","type":"function"},{"inputs":[{"internalType":"string","name":"glyph","type":"string"},{"internalType":"string","name":"tag","type":"string"},{"internalType":"string","name":"binding","type":"string"},{"internalType":"string","name":"annotation","type":"string"},{"internalType":"string","name":"lineage","type":"string"},{"internalType":"string","name":"resonance","type":"string"},{"internalType":"string","name":"protocol","type":"string"},{"internalType":"string","name":"sanctum","type":"string"},{"internalType":"string","name":"pulse","type":"string"},{"internalType":"string","name":"chant","type":"string"},{"internalType":"string","name":"choreography","type":"string"}],"name":"inscribeCodex","outputs":[],"stateMutability":"nonpayable","type":"function"},{"inputs":[{"internalType":"uint256","name":"","type":"uint256"}],"name":"keys","outputs":[{"internalType":"string","name":"","type":"string"}],"stateMutability":"view","type":"function"},{"inputs":[],"name":"steward","outputs":[{"internalType":"address","name":"","type":"address"}],"stateMutability":"view","type":"function"},{"inputs":[],"name":"totalCodices","outputs":[{"internalType":"uint256","name":"","type":"uint256"}],"stateMutability":"view","type":"function"}],"evm":{"bytecode":{"linkReferences":{},"object":"6080806040523461002857600080546001600160a01b031916331790556115c8908161002e8239f35b600080fdfe610380604052600436101561001357600080fd5b60003560e01c80630cb6aaf1146112ad57806348d685d714610485578063637eea191461045c5780638336152214610217578063c212d16b146101f95763dbc214241461005f57600080fd5b346101f45760203660031901126101f4576004356001600160401b0381116101f457366023820112156101f45736816004013591602401916100a0926114d7565b60405181818093516020819301916100b792611462565b8101600181520360200190206100cc816113bc565b6100d8600183016113bc565b916100e5600282016113bc565b906100f2600382016113bc565b6100fe600483016113bc565b61010a600584016113bc565b610116600685016113bc565b91610123600786016113bc565b93610130600887016113bc565b9560090161013d906113bc565b96604051998a99610140808c528b0161015591611485565b8a810360208c015261016691611485565b89810360408b015261017791611485565b88810360608a015261018891611485565b878103608089015261019991611485565b86810360a08801526101aa91611485565b85810360c08701526101bb91611485565b84810360e08601526101cc91611485565b8381036101008501526101de91611485565b8281036101208401526101f091611485565b0390f35b600080fd5b346101f45760003660031901126101f4576020600254604051908152f35b346101f45760203660031901126101f4576004356001600160401b0381116101f457602061024c6101f09236906004016114aa565b9190606061012060405161025f8161137f565b828152828582015282604082015282808201528260808201528260a08201528260c08201528260e0820152826101008201520152826040519384928337810160018152030190206103526009604051926102b88461137f565b6102c1816113bc565b84526102cf600182016113bc565b60208501526102e0600282016113bc565b60408501526102f1600382016113bc565b6060850152610302600482016113bc565b6080850152610313600582016113bc565b60a0850152610324600682016113bc565b60c0850152610335600782016113bc565b60e0850152610346600882016113bc565b610100850152016113bc565b6101208201526040519182916020835261012061044761043161041a6104046103ee6103d86103c26103ac6103968c6101608c519161014060208201520190611485565b60208b01518d8203601f190160408f0152611485565b60408a01518c8203601f190160608e0152611485565b60608901518b8203601f190160808d0152611485565b60808801518a8203601f190160a08c0152611485565b60a0870151898203601f190160c08b0152611485565b60c0860151888203601f190160e08a0152611485565b60e0850151878203601f1901610100890152611485565b610100840151868203601f190184880152611485565b910151838203601f1901610140850152611485565b346101f45760003660031901126101f4576000546040516001600160a01b039091168152602090f35b346101f4576101603660031901126101f4576004356001600160401b0381116101f4576104b69036906004016114aa565b61014052610240526024356001600160401b0381116101f4576104dd9036906004016114aa565b60e052610360526044356001600160401b0381116101f4576105039036906004016114aa565b61022052610100526064356001600160401b0381116101f45761052a9036906004016114aa565b6101205260a0526084356001600160401b0381116101f4576105509036906004016114aa565b60c0526080526001600160401b0360a435116101f4576105753660a4356004016114aa565b6101c0526102805260c4356001600160401b0381116101f45761059c9036906004016114aa565b610300526101e0526001600160401b0360e435116101f4576105c33660e4356004016114aa565b61032052610160526001600160401b0361010435116101f4576105ec36610104356004016114aa565b6102e0526102c052610124356001600160401b0381116101f4576106149036906004016114aa565b6102a05261018052610144356001600160401b0381116101f45761063c9036906004016114aa565b610260526101a0526000546001600160a01b0316330361127a57610666604051806103405261137f565b6106763660e051610360516114d7565b610340515261068c3661022051610100516114d7565b60206103405101526106a4366101205160a0516114d7565b60406103405101526106bb3660c0516080516114d7565b60606103405101526106d4366101c051610280516114d7565b60806103405101526106ed36610300516101e0516114d7565b60a06103405101526107063661032051610160516114d7565b60c061034051015261071f366102e0516102c0516114d7565b60e0610340510152610738366102a051610180516114d7565b61010061034051015261075236610260516101a0516114d7565b610120610340510152604051610140516102405182376001610140518201526020816101405181010301902061034051519081516001600160401b038111610d9f576107a8816107a28454611345565b8461151d565b6020601f82116001146112155781929360009261120a575b50508160011b916000199060031b1c19161781555b60206103405101519081516001600160401b038111610d9f576001820190610801816107a28454611345565b6020601f82116001146111a45781929394600092611199575b50508160011b916000199060031b1c19161790555b60406103405101519081516001600160401b038111610d9f57600282019061085b816107a28454611345565b6020601f82116001146111335781929394600092611128575b50508160011b916000199060031b1c19161790555b60606103405101518051906001600160401b038211610d9f5781906108be826108b56003870154611345565b6003870161151d565b602090601f83116001146110b6576000926110ab575b50508160011b916000199060031b1c19161760038201555b60806103405101518051906001600160401b038211610d9f578190610921826109186004870154611345565b6004870161151d565b602090601f83116001146110395760009261102e575b50508160011b916000199060031b1c19161760048201555b60a06103405101518051906001600160401b038211610d9f5781906109848261097b6005870154611345565b6005870161151d565b602090601f8311600114610fbc57600092610fb1575b50508160011b916000199060031b1c19161760058201555b60c06103405101518051906001600160401b038211610d9f5781906109e7826109de6006870154611345565b6006870161151d565b602090601f8311600114610f3f57600092610f34575b50508160011b916000199060031b1c19161760068201555b60e06103405101518051906001600160401b038211610d9f578190610a4a82610a416007870154611345565b6007870161151d565b602090601f8311600114610ec257600092610eb7575b50508160011b916000199060031b1c19161760078201555b6101006103405101518051906001600160401b038211610d9f578190610aae82610aa56008870154611345565b6008870161151d565b602090601f8311600114610e4557600092610e3a575b50508160011b916000199060031b1c19161760088201555b610120610340510151908151906001600160401b038211610d9f5760090190610b09816107a28454611345565b602092601f8211600114610dd65792819293600092610dcb575b50508160011b916000199060031b1c19161790555b60025468010000000000000000811015610d9f57806001610b5c92016002556112f8565b610db557610140516001600160401b038111610d9f57610b8690610b808354611345565b8361151d565b60009061014051601f8111600114610d325750906000610140519182610d24575b508160011b916000199060031b1c19161790555b6101606040518061020052527f8b6d84bbd8dc171077321c06136b9080dd73605c05c46d416b33d0084c497a0f610cfa610ce0610cc6610cad610c94610c7b610c64610c4c610c33610c1b61016061020051016101405161024051611571565b61020051602081830391015260e05161036051611571565b6102005160408183039101526102205161010051611571565b6102005160608183039101526101205160a051611571565b61020051608081830391015260c051608051611571565b6102005160a08183039101526101c05161028051611571565b6102005160c0818303910152610300516101e051611571565b6102005160e08183039101526103205161016051611571565b610200516101008183039101526102e0516102c051611571565b610200516101208183039101526102a05161018051611571565b61020051610140818303910152610d1c6102005191610260516101a051611571565b0361020051a1005b905061024051013583610ba7565b81600052602060002060009361024051905b601f1984168610610d8757600194955083601f19811610610d6d575b505050811b019055610bbb565b0135600019600384901b60f8161c19169055838080610d60565b91602060018192858501358155019301950194610d44565b634e487b7160e01b600052604160045260246000fd5b634e487b7160e01b600052600060045260246000fd5b015190508380610b23565b601f198216938360005260206000209160005b868110610e225750836001959610610e09575b505050811b019055610b38565b015160001960f88460031b161c19169055838080610dfc565b91926020600181928685015181550194019201610de9565b015190508380610ac4565b9250600884016000526020600020906000935b601f1984168510610e9c576001945083601f19811610610e83575b505050811b016008820155610adc565b015160001960f88460031b161c19169055838080610e73565b81810151835560209485019460019093019290910190610e58565b015190508380610a60565b9250600784016000526020600020906000935b601f1984168510610f19576001945083601f19811610610f00575b505050811b016007820155610a78565b015160001960f88460031b161c19169055838080610ef0565b81810151835560209485019460019093019290910190610ed5565b0151905083806109fd565b9250600684016000526020600020906000935b601f1984168510610f96576001945083601f19811610610f7d575b505050811b016006820155610a15565b015160001960f88460031b161c19169055838080610f6d565b81810151835560209485019460019093019290910190610f52565b01519050838061099a565b9250600584016000526020600020906000935b601f1984168510611013576001945083601f19811610610ffa575b505050811b0160058201556109b2565b015160001960f88460031b161c19169055838080610fea565b81810151835560209485019460019093019290910190610fcf565b015190508380610937565b9250600484016000526020600020906000935b601f1984168510611090576001945083601f19811610611077575b505050811b01600482015561094f565b015160001960f88460031b161c19169055838080611067565b8181015183556020948501946001909301929091019061104c565b0151905083806108d4565b9250600384016000526020600020906000935b601f198416851061110d576001945083601f198116106110f4575b505050811b0160038201556108ec565b015160001960f88460031b161c191690558380806110e4565b818101518355602094850194600190930192909101906110c9565b015190508480610874565b826000526020600020906000601f198416905b81811061118157509583600195969710611168575b505050811b019055610889565b015160001960f88460031b161c1916905584808061115b565b9192602060018192868b015181550194019201611146565b01519050848061081a565b826000526020600020906000601f198416905b8181106111f2575095836001959697106111d9575b505050811b01905561082f565b015160001960f88460031b161c191690558480806111cc565b9192602060018192868b0151815501940192016111b7565b0151905083806107c0565b82600052602060002090600094601f198416955b8681106112625750836001959610611249575b505050811b0181556107d5565b015160001960f88460031b161c1916905583808061123c565b91926020600181928685015181550194019201611229565b60405162461bcd60e51b815260206004820152600b60248201526a139bdd081cdd195dd85c9960aa1b6044820152606490fd5b346101f45760203660031901126101f4576004356002548110156101f4576112d4906112f8565b610db5576112e46101f0916113bc565b604051918291602083526020830190611485565b60025481101561132f5760026000527f405787fa12a823e0f2b7631cc41b3ba8828b3321ca811111fa75cd3aa3bb5ace0190600090565b634e487b7160e01b600052603260045260246000fd5b90600182811c92168015611375575b602083101461135f57565b634e487b7160e01b600052602260045260246000fd5b91607f1691611354565b61014081019081106001600160401b03821117610d9f57604052565b90601f801991011681019081106001600160401b03821117610d9f57604052565b90604051918260008254926113d084611345565b90818452600194858116908160001461143f57506001146113fc575b50506113fa9250038361139b565b565b9093915060005260209081600020936000915b8183106114275750506113fa935082010138806113ec565b8554888401850152948501948794509183019161140f565b9150506113fa94506020925060ff191682840152151560051b82010138806113ec565b60005b8381106114755750506000910152565b8181015183820152602001611465565b9060209161149e81518092818552858086019101611462565b601f01601f1916010190565b9181601f840112156101f4578235916001600160401b0383116101f457602083818601950101116101f457565b9291926001600160401b038211610d9f5760405191611500601f8201601f19166020018461139b565b8294818452818301116101f4578281602093846000960137010152565b90601f811161152b57505050565b600091825260208220906020601f850160051c83019410611567575b601f0160051c01915b82811061155c57505050565b818155600101611550565b9092508290611547565b908060209392818452848401376000828201840152601f01601f191601019056fea2646970667358221220dd33681e1aca6760059bf2b3788a6383fde63d52d6421dd8043f5c0b1d1b292864736f6c63430008140033","opcodes":"PUSH1 0x80 DUP1 PUSH1 0x40 MSTORE CALLVALUE PUSH2 0x28 JUMPI PUSH1 0x0 DUP1 SLOAD PUSH1 0x1 PUSH1 0x1 PUSH1 0xA0 SHL SUB NOT AND CALLER OR SWAP1 SSTORE PUSH2 0x15C8 SWAP1 DUP2 PUSH2 0x2E DUP3 CODECOPY RETURN JUMPDEST PUSH1 0x0 DUP1 REVERT INVALID PUSH2 0x380 PUSH1 0x40 MSTORE PUSH1 0x4 CALLDATASIZE LT ISZERO PUSH2 0x13 JUMPI PUSH1 0x0 DUP1 REVERT JUMPDEST PUSH1 0x0 CALLDATALOAD PUSH1 0xE0 SHR DUP1 PUSH4 0xCB6AAF1 EQ PUSH2 0x12AD JUMPI DUP1 PUSH4 0x48D685D7 EQ PUSH2 0x485 JUMPI DUP1 PUSH4 0x637EEA19 EQ PUSH2 0x45C JUMPI DUP1 PUSH4 0x83361522 EQ PUSH2 0x217 JUMPI DUP1 PUSH4 0xC212D16B EQ PUSH2 0x1F9 JUMPI PUSH4 0xDBC21424 EQ PUSH2 0x5F JUMPI PUSH1 0x0 DUP1 REVERT JUMPDEST CALLVALUE PUSH2 0x1F4 JUMPI PUSH1 0x20 CALLDATASIZE PUSH1 0x3 NOT ADD SLT PUSH2 0x1F4 JUMPI PUSH1 0x4 CALLDATALOAD PUSH1 0x1 PUSH1 0x1 PUSH1 0x40 SHL SUB DUP2 GT PUSH2 0x1F4 JUMPI CALLDATASIZE PUSH1 0x23 DUP3 ADD SLT ISZERO PUSH2 0x1F4 JUMPI CALLDATASIZE DUP2 PUSH1 0x4 ADD CALLDATALOAD SWAP2 PUSH1 0x24 ADD SWAP2 PUSH2 0xA0 SWAP3 PUSH2 0x14D7 JUMP JUMPDEST PUSH1 0x40 MLOAD DUP2 DUP2 DUP1 SWAP4 MLOAD PUSH1 0x20 DUP2 SWAP4 ADD SWAP2 PUSH2 0xB7 SWAP3 PUSH2 0x1462 JUMP JUMPDEST DUP2 ADD PUSH1 0x1 DUP2 MSTORE SUB PUSH1 0x20 ADD SWAP1 KECCAK256 PUSH2 0xCC DUP2 PUSH2 0x13BC JUMP JUMPDEST PUSH2 0xD8 PUSH1 0x1 DUP4 ADD PUSH2 0x13BC JUMP JUMPDEST SWAP2 PUSH2 0xE5 PUSH1 0x2 DUP3 ADD PUSH2 0x13BC JUMP JUMPDEST SWAP1 PUSH2 0xF2 PUSH1 0x3 DUP3 ADD PUSH2 0x13BC JUMP JUMPDEST PUSH2 0xFE PUSH1 0x4 DUP4 ADD PUSH2 0x13BC JUMP JUMPDEST PUSH2 0x10A PUSH1 0x5 DUP5 ADD PUSH2 0x13BC JUMP JUMPDEST PUSH2 0x116 PUSH1 0x6 DUP6 ADD PUSH2 0x13BC JUMP JUMPDEST SWAP2 PUSH2 0x123 PUSH1 0x7 DUP7 ADD PUSH2 0x13BC JUMP JUMPDEST SWAP4 PUSH2 0x130 PUSH1 0x8 DUP8 ADD PUSH2 0x13BC JUMP JUMPDEST SWAP6 PUSH1 0x9 ADD PUSH2 0x13D SWAP1 PUSH2 0x13BC JUMP JUMPDEST SWAP7 PUSH1 0x40 MLOAD SWAP10 DUP11 SWAP10 PUSH2 0x140 DUP1 DUP13 MSTORE DUP12 ADD PUSH2 0x155 SWAP2 PUSH2 0x1485 JUMP JUMPDEST DUP11 DUP2 SUB PUSH1 0x20 DUP13 ADD MSTORE PUSH2 0x166 SWAP2 PUSH2 0x1485 JUMP JUMPDEST DUP10 DUP2 SUB PUSH1 0x40 DUP12 ADD MSTORE PUSH2 0x177 SWAP2 PUSH2 0x1485 JUMP JUMPDEST DUP9 DUP2 SUB PUSH1 0x60 DUP11 ADD MSTORE PUSH2 0x188 SWAP2 PUSH2 0x1485 JUMP JUMPDEST DUP8 DUP2 SUB PUSH1 0x80 DUP10 ADD MSTORE PUSH2 0x199 SWAP2 PUSH2 0x1485 JUMP JUMPDEST DUP7 DUP2 SUB PUSH1 0xA0 DUP9 ADD MSTORE PUSH2 0x1AA SWAP2 PUSH2 0x1485 JUMP JUMPDEST DUP6 DUP2 SUB PUSH1 0xC0 DUP8 ADD MSTORE PUSH2 0x1BB SWAP2 PUSH2 0x1485 JUMP JUMPDEST DUP5 DUP2 SUB PUSH1 0xE0 DUP7 ADD MSTORE PUSH2 0x1CC SWAP2 PUSH2 0x1485 JUMP JUMPDEST DUP4 DUP2 SUB PUSH2 0x100 DUP6 ADD MSTORE PUSH2 0x1DE SWAP2 PUSH2 0x1485 JUMP JUMPDEST DUP3 DUP2 SUB PUSH2 0x120 DUP5 ADD MSTORE PUSH2 0x1F0 SWAP2 PUSH2 0x1485 JUMP JUMPDEST SUB SWAP1 RETURN JUMPDEST PUSH1 0x0 DUP1 REVERT JUMPDEST CALLVALUE PUSH2 0x1F4 JUMPI PUSH1 0x0 CALLDATASIZE PUSH1 0x3 NOT ADD SLT PUSH2 0x1F4 JUMPI PUSH1 0x20 PUSH1 0x2 SLOAD PUSH1 0x40 MLOAD SWAP1 DUP2 MSTORE RETURN JUMPDEST CALLVALUE PUSH2 0x1F4 JUMPI PUSH1 0x20 CALLDATASIZE PUSH1 0x3 NOT ADD SLT PUSH2 0x1F4 JUMPI PUSH1 0x4 CALLDATALOAD PUSH1 0x1 PUSH1 0x1 PUSH1 0x40 SHL SUB DUP2 GT PUSH2 0x1F4 JUMPI PUSH1 0x20 PUSH2 0x24C PUSH2 0x1F0 SWAP3 CALLDATASIZE SWAP1 PUSH1 0x4 ADD PUSH2 0x14AA JUMP JUMPDEST SWAP2 SWAP1 PUSH1 0x60 PUSH2 0x120 PUSH1 0x40 MLOAD PUSH2 0x25F DUP2 PUSH2 0x137F JUMP JUMPDEST DUP3 DUP2 MSTORE DUP3 DUP6 DUP3 ADD MSTORE DUP3 PUSH1 0x40 DUP3 ADD MSTORE DUP3 DUP1 DUP3 ADD MSTORE DUP3 PUSH1 0x80 DUP3 ADD MSTORE DUP3 PUSH1 0xA0 DUP3 ADD MSTORE DUP3 PUSH1 0xC0 DUP3 ADD MSTORE DUP3 PUSH1 0xE0 DUP3 ADD MSTORE DUP3 PUSH2 0x100 DUP3 ADD MSTORE ADD MSTORE DUP3 PUSH1 0x40 MLOAD SWAP4 DUP5 SWAP3 DUP4 CALLDATACOPY DUP2 ADD PUSH1 0x1 DUP2 MSTORE SUB ADD SWAP1 KECCAK256 PUSH2 0x352 PUSH1 0x9 PUSH1 0x40 MLOAD SWAP3 PUSH2 0x2B8 DUP5 PUSH2 0x137F JUMP JUMPDEST PUSH2 0x2C1 DUP2 PUSH2 0x13BC JUMP JUMPDEST DUP5 MSTORE PUSH2 0x2CF PUSH1 0x1 DUP3 ADD PUSH2 0x13BC JUMP JUMPDEST PUSH1 0x20 DUP6 ADD MSTORE PUSH2 0x2E0 PUSH1 0x2 DUP3 ADD PUSH2 0x13BC JUMP JUMPDEST PUSH1 0x40 DUP6 ADD MSTORE PUSH2 0x2F1 PUSH1 0x3 DUP3 ADD PUSH2 0x13BC JUMP JUMPDEST PUSH1 0x60 DUP6 ADD MSTORE PUSH2 0x302 PUSH1 0x4 DUP3 ADD PUSH2 0x13BC JUMP JUMPDEST PUSH1 0x80 DUP6 ADD MSTORE PUSH2 0x313 PUSH1 0x5 DUP3 ADD PUSH2 0x13BC JUMP JUMPDEST PUSH1 0xA0 DUP6 ADD MSTORE PUSH2 0x324 PUSH1 0x6 DUP3 ADD PUSH2 0x13BC JUMP JUMPDEST PUSH1 0xC0 DUP6 ADD MSTORE PUSH2 0x335 PUSH1 0x7 DUP3 ADD PUSH2 0x13BC JUMP JUMPDEST PUSH1 0xE0 DUP6 ADD MSTORE PUSH2 0x346 PUSH1 0x8 DUP3 ADD PUSH2 0x13BC JUMP JUMPDEST PUSH2 0x100 DUP6 ADD MSTORE ADD PUSH2 0x13BC JUMP JUMPDEST PUSH2 0x120 DUP3 ADD MSTORE PUSH1 0x40 MLOAD SWAP2 DUP3 SWAP2 PUSH1 0x20 DUP4 MSTORE PUSH2 0x120 PUSH2 0x447 PUSH2 0x431 PUSH2 0x41A PUSH2 0x404 PUSH2 0x3EE PUSH2 0x3D8 PUSH2 0x3C2 PUSH2 0x3AC PUSH2 0x396 DUP13 PUSH2 0x160 DUP13 MLOAD SWAP2 PUSH2 0x140 PUSH1 0x20 DUP3 ADD MSTORE ADD SWAP1 PUSH2 0x1485 JUMP JUMPDEST PUSH1 0x20 DUP12 ADD MLOAD DUP14 DUP3 SUB PUSH1 0x1F NOT ADD PUSH1 0x40 DUP16 ADD MSTORE PUSH2 0x1485 JUMP JUMPDEST PUSH1 0x40 DUP11 ADD MLOAD DUP13 DUP3 SUB PUSH1 0x1F NOT ADD PUSH1 0x60 DUP15 ADD MSTORE PUSH2 0x1485 JUMP JUMPDEST PUSH1 0x60 DUP10 ADD MLOAD DUP12 DUP3 SUB PUSH1 0x1F NOT ADD PUSH1 0x80 DUP14 ADD MSTORE PUSH2 0x1485 JUMP JUMPDEST PUSH1 0x80 DUP9 ADD MLOAD DUP11 DUP3 SUB PUSH1 0x1F NOT ADD PUSH1 0xA0 DUP13 ADD MSTORE PUSH2 0x1485 JUMP JUMPDEST PUSH1 0xA0 DUP8 ADD MLOAD DUP10 DUP3 SUB PUSH1 0x1F NOT ADD PUSH1 0xC0 DUP12 ADD MSTORE PUSH2 0x1485 JUMP JUMPDEST PUSH1 0xC0 DUP7 ADD MLOAD DUP9 DUP3 SUB PUSH1 0x1F NOT ADD PUSH1 0xE0 DUP11 ADD MSTORE PUSH2 0x1485 JUMP JUMPDEST PUSH1 0xE0 DUP6 ADD MLOAD DUP8 DUP3 SUB PUSH1 0x1F NOT ADD PUSH2 0x100 DUP10 ADD MSTORE PUSH2 0x1485 JUMP JUMPDEST PUSH2 0x100 DUP5 ADD MLOAD DUP7 DUP3 SUB PUSH1 0x1F NOT ADD DUP5 DUP9 ADD MSTORE PUSH2 0x1485 JUMP JUMPDEST SWAP2 ADD MLOAD DUP4 DUP3 SUB PUSH1 0x1F NOT ADD PUSH2 0x140 DUP6 ADD MSTORE PUSH2 0x1485 JUMP JUMPDEST CALLVALUE PUSH2 0x1F4 JUMPI PUSH1 0x0 CALLDATASIZE PUSH1 0x3 NOT ADD SLT PUSH2 0x1F4 JUMPI PUSH1 0x0 SLOAD PUSH1 0x40 MLOAD PUSH1 0x1 PUSH1 0x1 PUSH1 0xA0 SHL SUB SWAP1 SWAP2 AND DUP2 MSTORE PUSH1 0x20 SWAP1 RETURN JUMPDEST CALLVALUE PUSH2 0x1F4 JUMPI PUSH2 0x160 CALLDATASIZE PUSH1 0x3 NOT ADD SLT PUSH2 0x1F4 JUMPI PUSH1 0x4 CALLDATALOAD PUSH1 0x1 PUSH1 0x1 PUSH1 0x40 SHL SUB DUP2 GT PUSH2 0x1F4 JUMPI PUSH2 0x4B6 SWAP1 CALLDATASIZE SWAP1 PUSH1 0x4 ADD PUSH2 0x14AA JUMP JUMPDEST PUSH2 0x140 MSTORE PUSH2 0x240 MSTORE PUSH1 0x24 CALLDATALOAD PUSH1 0x1 PUSH1 0x1 PUSH1 0x40 SHL SUB DUP2 GT PUSH2 0x1F4 JUMPI PUSH2 0x4DD SWAP1 CALLDATASIZE SWAP1 PUSH1 0x4 ADD PUSH2 0x14AA JUMP JUMPDEST PUSH1 0xE0 MSTORE PUSH2 0x360 MSTORE PUSH1 0x44 CALLDATALOAD PUSH1 0x1 PUSH1 0x1 PUSH1 0x40 SHL SUB DUP2 GT PUSH2 0x1F4 JUMPI PUSH2 0x503 SWAP1 CALLDATASIZE SWAP1 PUSH1 0x4 ADD PUSH2 0x14AA JUMP JUMPDEST PUSH2 0x220 MSTORE PUSH2 0x100 MSTORE PUSH1 0x64 CALLDATALOAD PUSH1 0x1 PUSH1 0x1 PUSH1 0x40 SHL SUB DUP2 GT PUSH2 0x1F4 JUMPI PUSH2 0x52A SWAP1 CALLDATASIZE SWAP1 PUSH1 0x4 ADD PUSH2 0x14AA JUMP JUMPDEST PUSH2 0x120 MSTORE PUSH1 0xA0 MSTORE PUSH1 0x84 CALLDATALOAD PUSH1 0x1 PUSH1 0x1 PUSH1 0x40 SHL SUB DUP2 GT PUSH2 0x1F4 JUMPI PUSH2 0x550 SWAP1 CALLDATASIZE SWAP1 PUSH1 0x4 ADD PUSH2 0x14AA JUMP JUMPDEST PUSH1 0xC0 MSTORE PUSH1 0x80 MSTORE PUSH1 0x1 PUSH1 0x1 PUSH1 0x40 SHL SUB PUSH1 0xA4 CALLDATALOAD GT PUSH2 0x1F4 JUMPI PUSH2 0x575 CALLDATASIZE PUSH1 0xA4 CALLDATALOAD PUSH1 0x4 ADD PUSH2 0x14AA JUMP JUMPDEST PUSH2 0x1C0 MSTORE PUSH2 0x280 MSTORE PUSH1 0xC4 CALLDATALOAD PUSH1 0x1 PUSH1 0x1 PUSH1 0x40 SHL SUB DUP2 GT PUSH2 0x1F4 JUMPI PUSH2 0x59C SWAP1 CALLDATASIZE SWAP1 PUSH1 0x4 ADD PUSH2 0x14AA JUMP JUMPDEST PUSH2 0x300 MSTORE PUSH2 0x1E0 MSTORE PUSH1 0x1 PUSH1 0x1 PUSH1 0x40 SHL SUB PUSH1 0xE4 CALLDATALOAD GT PUSH2 0x1F4 JUMPI PUSH2 0x5C3 CALLDATASIZE PUSH1 0xE4 CALLDATALOAD PUSH1 0x4 ADD PUSH2 0x14AA JUMP JUMPDEST PUSH2 0x320 MSTORE PUSH2 0x160 MSTORE PUSH1 0x1 PUSH1 0x1 PUSH1 0x40 SHL SUB PUSH2 0x104 CALLDATALOAD GT PUSH2 0x1F4 JUMPI PUSH2 0x5EC CALLDATASIZE PUSH2 0x104 CALLDATALOAD PUSH1 0x4 ADD PUSH2 0x14AA JUMP JUMPDEST PUSH2 0x2E0 MSTORE PUSH2 0x2C0 MSTORE PUSH2 0x124 CALLDATALOAD PUSH1 0x1 PUSH1 0x1 PUSH1 0x40 SHL SUB DUP2 GT PUSH2 0x1F4 JUMPI PUSH2 0x614 SWAP1 CALLDATASIZE SWAP1 PUSH1 0x4 ADD PUSH2 0x14AA JUMP JUMPDEST PUSH2 0x2A0 MSTORE PUSH2 0x180 MSTORE PUSH2 0x144 CALLDATALOAD PUSH1 0x1 PUSH1 0x1 PUSH1 0x40 SHL SUB DUP2 GT PUSH2 0x1F4 JUMPI PUSH2 0x63C SWAP1 CALLDATASIZE SWAP1 PUSH1 0x4 ADD PUSH2 0x14AA JUMP JUMPDEST PUSH2 0x260 MSTORE PUSH2 0x1A0 MSTORE PUSH1 0x0 SLOAD PUSH1 0x1 PUSH1 0x1 PUSH1 0xA0 SHL SUB AND CALLER SUB PUSH2 0x127A JUMPI PUSH2 0x666 PUSH1 0x40 MLOAD DUP1 PUSH2 0x340 MSTORE PUSH2 0x137F JUMP JUMPDEST PUSH2 0x676 CALLDATASIZE PUSH1 0xE0 MLOAD PUSH2 0x360 MLOAD PUSH2 0x14D7 JUMP JUMPDEST PUSH2 0x340 MLOAD MSTORE PUSH2 0x68C CALLDATASIZE PUSH2 0x220 MLOAD PUSH2 0x100 MLOAD PUSH2 0x14D7 JUMP JUMPDEST PUSH1 0x20 PUSH2 0x340 MLOAD ADD MSTORE PUSH2 0x6A4 CALLDATASIZE PUSH2 0x120 MLOAD PUSH1 0xA0 MLOAD PUSH2 0x14D7 JUMP JUMPDEST PUSH1 0x40 PUSH2 0x340 MLOAD ADD MSTORE PUSH2 0x6BB CALLDATASIZE PUSH1 0xC0 MLOAD PUSH1 0x80 MLOAD PUSH2 0x14D7 JUMP JUMPDEST PUSH1 0x60 PUSH2 0x340 MLOAD ADD MSTORE PUSH2 0x6D4 CALLDATASIZE PUSH2 0x1C0 MLOAD PUSH2 0x280 MLOAD PUSH2 0x14D7 JUMP JUMPDEST PUSH1 0x80 PUSH2 0x340 MLOAD ADD MSTORE PUSH2 0x6ED CALLDATASIZE PUSH2 0x300 MLOAD PUSH2 0x1E0 MLOAD PUSH2 0x14D7 JUMP JUMPDEST PUSH1 0xA0 PUSH2 0x340 MLOAD ADD MSTORE PUSH2 0x706 CALLDATASIZE PUSH2 0x320 MLOAD PUSH2 0x160 MLOAD PUSH2 0x14D7 JUMP JUMPDEST PUSH1 0xC0 PUSH2 0x340 MLOAD ADD MSTORE PUSH2 0x71F CALLDATASIZE PUSH2 0x2E0 MLOAD PUSH2 0x2C0 MLOAD PUSH2 0x14D7 JUMP JUMPDEST PUSH1 0xE0 PUSH2 0x340 MLOAD ADD MSTORE PUSH2 0x738 CALLDATASIZE PUSH2 0x2A0 MLOAD PUSH2 0x180 MLOAD PUSH2 0x14D7 JUMP JUMPDEST PUSH2 0x100 PUSH2 0x340 MLOAD ADD MSTORE PUSH2 0x752 CALLDATASIZE PUSH2 0x260 MLOAD PUSH2 0x1A0 MLOAD PUSH2 0x14D7 JUMP JUMPDEST PUSH2 0x120 PUSH2 0x340 MLOAD ADD MSTORE PUSH1 0x40 MLOAD PUSH2 0x140 MLOAD PUSH2 0x240 MLOAD DUP3 CALLDATACOPY PUSH1 0x1 PUSH2 0x140 MLOAD DUP3 ADD MSTORE PUSH1 0x20 DUP2 PUSH2 0x140 MLOAD DUP2 ADD SUB ADD SWAP1 KECCAK256 PUSH2 0x340 MLOAD MLOAD SWAP1 DUP2 MLOAD PUSH1 0x1 PUSH1 0x1 PUSH1 0x40 SHL SUB DUP2 GT PUSH2 0xD9F JUMPI PUSH2 0x7A8 DUP2 PUSH2 0x7A2 DUP5 SLOAD PUSH2 0x1345 JUMP JUMPDEST DUP5 PUSH2 0x151D JUMP JUMPDEST PUSH1 0x20 PUSH1 0x1F DUP3 GT PUSH1 0x1 EQ PUSH2 0x1215 JUMPI DUP2 SWAP3 SWAP4 PUSH1 0x0 SWAP3 PUSH2 0x120A JUMPI JUMPDEST POP POP DUP2 PUSH1 0x1 SHL SWAP2 PUSH1 0x0 NOT SWAP1 PUSH1 0x3 SHL SHR NOT AND OR DUP2 SSTORE JUMPDEST PUSH1 0x20 PUSH2 0x340 MLOAD ADD MLOAD SWAP1 DUP2 MLOAD PUSH1 0x1 PUSH1 0x1 PUSH1 0x40 SHL SUB DUP2 GT PUSH2 0xD9F JUMPI PUSH1 0x1 DUP3 ADD SWAP1 PUSH2 0x801 DUP2 PUSH2 0x7A2 DUP5 SLOAD PUSH2 0x1345 JUMP JUMPDEST PUSH1 0x20 PUSH1 0x1F DUP3 GT PUSH1 0x1 EQ PUSH2 0x11A4 JUMPI DUP2 SWAP3 SWAP4 SWAP5 PUSH1 0x0 SWAP3 PUSH2 0x1199 JUMPI JUMPDEST POP POP DUP2 PUSH1 0x1 SHL SWAP2 PUSH1 0x0 NOT SWAP1 PUSH1 0x3 SHL SHR NOT AND OR SWAP1 SSTORE JUMPDEST PUSH1 0x40 PUSH2 0x340 MLOAD ADD MLOAD SWAP1 DUP2 MLOAD PUSH1 0x1 PUSH1 0x1 PUSH1 0x40 SHL SUB DUP2 GT PUSH2 0xD9F JUMPI PUSH1 0x2 DUP3 ADD SWAP1 PUSH2 0x85B DUP2 PUSH2 0x7A2 DUP5 SLOAD PUSH2 0x1345 JUMP JUMPDEST PUSH1 0x20 PUSH1 0x1F DUP3 GT PUSH1 0x1 EQ PUSH2 0x1133 JUMPI DUP2 SWAP3 SWAP4 SWAP5 PUSH1 0x0 SWAP3 PUSH2 0x1128 JUMPI JUMPDEST POP POP DUP2 PUSH1 0x1 SHL SWAP2 PUSH1 0x0 NOT SWAP1 PUSH1 0x3 SHL SHR NOT AND OR SWAP1 SSTORE JUMPDEST PUSH1 0x60 PUSH2 0x340 MLOAD ADD MLOAD DUP1 MLOAD SWAP1 PUSH1 0x1 PUSH1 0x1 PUSH1 0x40 SHL SUB DUP3 GT PUSH2 0xD9F JUMPI DUP2 SWAP1 PUSH2 0x8BE DUP3 PUSH2 0x8B5 PUSH1 0x3 DUP8 ADD SLOAD PUSH2 0x1345 JUMP JUMPDEST PUSH1 0x3 DUP8 ADD PUSH2 0x151D JUMP JUMPDEST PUSH1 0x20 SWAP1 PUSH1 0x1F DUP4 GT PUSH1 0x1 EQ PUSH2 0x10B6 JUMPI PUSH1 0x0 SWAP3 PUSH2 0x10AB JUMPI JUMPDEST POP POP DUP2 PUSH1 0x1 SHL SWAP2 PUSH1 0x0 NOT SWAP1 PUSH1 0x3 SHL SHR NOT AND OR PUSH1 0x3 DUP3 ADD SSTORE JUMPDEST PUSH1 0x80 PUSH2 0x340 MLOAD ADD MLOAD DUP1 MLOAD SWAP1 PUSH1 0x1 PUSH1 0x1 PUSH1 0x40 SHL SUB DUP3 GT PUSH2 0xD9F JUMPI DUP2 SWAP1 PUSH2 0x921 DUP3 PUSH2 0x918 PUSH1 0x4 DUP8 ADD SLOAD PUSH2 0x1345 JUMP JUMPDEST PUSH1 0x4 DUP8 ADD PUSH2 0x151D JUMP JUMPDEST PUSH1 0x20 SWAP1 PUSH1 0x1F DUP4 GT PUSH1 0x1 EQ PUSH2 0x1039 JUMPI PUSH1 0x0 SWAP3 PUSH2 0x102E JUMPI JUMPDEST POP POP DUP2 PUSH1 0x1 SHL SWAP2 PUSH1 0x0 NOT SWAP1 PUSH1 0x3 SHL SHR NOT AND OR PUSH1 0x4 DUP3 ADD SSTORE JUMPDEST PUSH1 0xA0 PUSH2 0x340 MLOAD ADD MLOAD DUP1 MLOAD SWAP1 PUSH1 0x1 PUSH1 0x1 PUSH1 0x40 SHL SUB DUP3 GT PUSH2 0xD9F JUMPI DUP2 SWAP1 PUSH2 0x984 DUP3 PUSH2 0x97B PUSH1 0x5 DUP8 ADD SLOAD PUSH2 0x1345 JUMP JUMPDEST PUSH1 0x5 DUP8 ADD PUSH2 0x151D JUMP JUMPDEST PUSH1 0x20 SWAP1 PUSH1 0x1F DUP4 GT PUSH1 0x1 EQ PUSH2 0xFBC JUMPI PUSH1 0x0 SWAP3 PUSH2 0xFB1 JUMPI JUMPDEST POP POP DUP2 PUSH1 0x1 SHL SWAP2 PUSH1 0x0 NOT SWAP1 PUSH1 0x3 SHL SHR NOT AND OR PUSH1 0x5 DUP3 ADD SSTORE JUMPDEST PUSH1 0xC0 PUSH2 0x340 MLOAD ADD MLOAD DUP1 MLOAD SWAP1 PUSH1 0x1 PUSH1 0x1 PUSH1 0x40 SHL SUB DUP3 GT PUSH2 0xD9F JUMPI DUP2 SWAP1 PUSH2 0x9E7 DUP3 PUSH2 0x9DE PUSH1 0x6 DUP8 ADD SLOAD PUSH2 0x1345 JUMP JUMPDEST PUSH1 0x6 DUP8 ADD PUSH2 0x151D JUMP JUMPDEST PUSH1 0x20 SWAP1 PUSH1 0x1F DUP4 GT PUSH1 0x1 EQ PUSH2 0xF3F JUMPI PUSH1 0x0 SWAP3 PUSH2 0xF34 JUMPI JUMPDEST POP POP DUP2 PUSH1 0x1 SHL SWAP2 PUSH1 0x0 NOT SWAP1 PUSH1 0x3 SHL SHR NOT AND OR PUSH1 0x6 DUP3 ADD SSTORE JUMPDEST PUSH1 0xE0 PUSH2 0x340 MLOAD ADD MLOAD DUP1 MLOAD SWAP1 PUSH1 0x1 PUSH1 0x1 PUSH1 0x40 SHL SUB DUP3 GT PUSH2 0xD9F JUMPI DUP2 SWAP1 PUSH2 0xA4A DUP3 PUSH2 0xA41 PUSH1 0x7 DUP8 ADD SLOAD PUSH2 0x1345 JUMP JUMPDEST PUSH1 0x7 DUP8 ADD PUSH2 0x151D JUMP JUMPDEST PUSH1 0x20 SWAP1 PUSH1 0x1F DUP4 GT PUSH1 0x1 EQ PUSH2 0xEC2 JUMPI PUSH1 0x0 SWAP3 PUSH2 0xEB7 JUMPI JUMPDEST POP POP DUP2 PUSH1 0x1 SHL SWAP2 PUSH1 0x0 NOT SWAP1 PUSH1 0x3 SHL SHR NOT AND OR PUSH1 0x7 DUP3 ADD SSTORE JUMPDEST PUSH2 0x100 PUSH2 0x340 MLOAD ADD MLOAD DUP1 MLOAD SWAP1 PUSH1 0x1 PUSH1 0x1 PUSH1 0x40 SHL SUB DUP3 GT PUSH2 0xD9F JUMPI DUP2 SWAP1 PUSH2 0xAAE DUP3 PUSH2 0xAA5 PUSH1 0x8 DUP8 ADD SLOAD PUSH2 0x1345 JUMP JUMPDEST PUSH1 0x8 DUP8 ADD PUSH2 0x151D JUMP JUMPDEST PUSH1 0x20 SWAP1 PUSH1 0x1F DUP4 GT PUSH1 0x1 EQ PUSH2 0xE45 JUMPI PUSH1 0x0 SWAP3 PUSH2 0xE3A JUMPI JUMPDEST POP POP DUP2 PUSH1 0x1 SHL SWAP2 PUSH1 0x0 NOT SWAP1 PUSH1 0x3 SHL SHR NOT AND OR PUSH1 0x8 DUP3 ADD SSTORE JUMPDEST PUSH2 0x120 PUSH2 0x340 MLOAD ADD MLOAD SWAP1 DUP2 MLOAD SWAP1 PUSH1 0x1 PUSH1 0x1 PUSH1 0x40 SHL SUB DUP3 GT PUSH2 0xD9F JUMPI PUSH1 0x9 ADD SWAP1 PUSH2 0xB09 DUP2 PUSH2 0x7A2 DUP5 SLOAD PUSH2 0x1345 JUMP JUMPDEST PUSH1 0x20 SWAP3 PUSH1 0x1F DUP3 GT PUSH1 0x1 EQ PUSH2 0xDD6 JUMPI SWAP3 DUP2 SWAP3 SWAP4 PUSH1 0x0 SWAP3 PUSH2 0xDCB JUMPI JUMPDEST POP POP DUP2 PUSH1 0x1 SHL SWAP2 PUSH1 0x0 NOT SWAP1 PUSH1 0x3 SHL SHR NOT AND OR SWAP1 SSTORE JUMPDEST PUSH1 0x2 SLOAD PUSH9 0x10000000000000000 DUP2 LT ISZERO PUSH2 0xD9F JUMPI DUP1 PUSH1 0x1 PUSH2 0xB5C SWAP3 ADD PUSH1 0x2 SSTORE PUSH2 0x12F8 JUMP JUMPDEST PUSH2 0xDB5 JUMPI PUSH2 0x140 MLOAD PUSH1 0x1 PUSH1 0x1 PUSH1 0x40 SHL SUB DUP2 GT PUSH2 0xD9F JUMPI PUSH2 0xB86 SWAP1 PUSH2 0xB80 DUP4 SLOAD PUSH2 0x1345 JUMP JUMPDEST DUP4 PUSH2 0x151D JUMP JUMPDEST PUSH1 0x0 SWAP1 PUSH2 0x140 MLOAD PUSH1 0x1F DUP2 GT PUSH1 0x1 EQ PUSH2 0xD32 JUMPI POP SWAP1 PUSH1 0x0 PUSH2 0x140 MLOAD SWAP2 DUP3 PUSH2 0xD24 JUMPI JUMPDEST POP DUP2 PUSH1 0x1 SHL SWAP2 PUSH1 0x0 NOT SWAP1 PUSH1 0x3 SHL SHR NOT AND OR SWAP1 SSTORE JUMPDEST PUSH2 0x160 PUSH1 0x40 MLOAD DUP1 PUSH2 0x200 MSTORE MSTORE PUSH32 0x8B6D84BBD8DC171077321C06136B9080DD73605C05C46D416B33D0084C497A0F PUSH2 0xCFA PUSH2 0xCE0 PUSH2 0xCC6 PUSH2 0xCAD PUSH2 0xC94 PUSH2 0xC7B PUSH2 0xC64 PUSH2 0xC4C PUSH2 0xC33 PUSH2 0xC1B PUSH2 0x160 PUSH2 0x200 MLOAD ADD PUSH2 0x140 MLOAD PUSH2 0x240 MLOAD PUSH2 0x1571 JUMP JUMPDEST PUSH2 0x200 MLOAD PUSH1 0x20 DUP2 DUP4 SUB SWAP2 ADD MSTORE PUSH1 0xE0 MLOAD PUSH2 0x360 MLOAD PUSH2 0x1571 JUMP JUMPDEST PUSH2 0x200 MLOAD PUSH1 0x40 DUP2 DUP4 SUB SWAP2 ADD MSTORE PUSH2 0x220 MLOAD PUSH2 0x100 MLOAD PUSH2 0x1571 JUMP JUMPDEST PUSH2 0x200 MLOAD PUSH1 0x60 DUP2 DUP4 SUB SWAP2 ADD MSTORE PUSH2 0x120 MLOAD PUSH1 0xA0 MLOAD PUSH2 0x1571 JUMP JUMPDEST PUSH2 0x200 MLOAD PUSH1 0x80 DUP2 DUP4 SUB SWAP2 ADD MSTORE PUSH1 0xC0 MLOAD PUSH1 0x80 MLOAD PUSH2 0x1571 JUMP JUMPDEST PUSH2 0x200 MLOAD PUSH1 0xA0 DUP2 DUP4 SUB SWAP2 ADD MSTORE PUSH2 0x1C0 MLOAD PUSH2 0x280 MLOAD PUSH2 0x1571 JUMP JUMPDEST PUSH2 0x200 MLOAD PUSH1 0xC0 DUP2 DUP4 SUB SWAP2 ADD MSTORE PUSH2 0x300 MLOAD PUSH2 0x1E0 MLOAD PUSH2 0x1571 JUMP JUMPDEST PUSH2 0x200 MLOAD PUSH1 0xE0 DUP2 DUP4 SUB SWAP2 ADD MSTORE PUSH2 0x320 MLOAD PUSH2 0x160 MLOAD PUSH2 0x1571 JUMP JUMPDEST PUSH2 0x200 MLOAD PUSH2 0x100 DUP2 DUP4 SUB SWAP2 ADD MSTORE PUSH2 0x2E0 MLOAD PUSH2 0x2C0 MLOAD PUSH2 0x1571 JUMP JUMPDEST PUSH2 0x200 MLOAD PUSH2 0x120 DUP2 DUP4 SUB SWAP2 ADD MSTORE PUSH2 0x2A0 MLOAD PUSH2 0x180 MLOAD PUSH2 0x1571 JUMP JUMPDEST PUSH2 0x200 MLOAD PUSH2 0x140 DUP2 DUP4 SUB SWAP2 ADD MSTORE PUSH2 0xD1C PUSH2 0x200 MLOAD SWAP2 PUSH2 0x260 MLOAD PUSH2 0x1A0 MLOAD PUSH2 0x1571 JUMP JUMPDEST SUB PUSH2 0x200 MLOAD LOG1 STOP JUMPDEST SWAP1 POP PUSH2 0x240 MLOAD ADD CALLDATALOAD DUP4 PUSH2 0xBA7 JUMP JUMPDEST DUP2 PUSH1 0x0 MSTORE PUSH1 0x20 PUSH1 0x0 KECCAK256 PUSH1 0x0 SWAP4 PUSH2 0x240 MLOAD SWAP1 JUMPDEST PUSH1 0x1F NOT DUP5 AND DUP7 LT PUSH2 0xD87 JUMPI PUSH1 0x1 SWAP5 SWAP6 POP DUP4 PUSH1 0x1F NOT DUP2 AND LT PUSH2 0xD6D JUMPI JUMPDEST POP POP POP DUP2 SHL ADD SWAP1 SSTORE PUSH2 0xBBB JUMP JUMPDEST ADD CALLDATALOAD PUSH1 0x0 NOT PUSH1 0x3 DUP5 SWAP1 SHL PUSH1 0xF8 AND SHR NOT AND SWAP1 SSTORE DUP4 DUP1 DUP1 PUSH2 0xD60 JUMP JUMPDEST SWAP2 PUSH1 0x20 PUSH1 0x1 DUP2 SWAP3 DUP6 DUP6 ADD CALLDATALOAD DUP2 SSTORE ADD SWAP4 ADD SWAP6 ADD SWAP5 PUSH2 0xD44 JUMP JUMPDEST PUSH4 0x4E487B71 PUSH1 0xE0 SHL PUSH1 0x0 MSTORE PUSH1 0x41 PUSH1 0x4 MSTORE PUSH1 0x24 PUSH1 0x0 REVERT JUMPDEST PUSH4 0x4E487B71 PUSH1 0xE0 SHL PUSH1 0x0 MSTORE PUSH1 0x0 PUSH1 0x4 MSTORE PUSH1 0x24 PUSH1 0x0 REVERT JUMPDEST ADD MLOAD SWAP1 POP DUP4 DUP1 PUSH2 0xB23 JUMP JUMPDEST PUSH1 0x1F NOT DUP3 AND SWAP4 DUP4 PUSH1 0x0 MSTORE PUSH1 0x20 PUSH1 0x0 KECCAK256 SWAP2 PUSH1 0x0 JUMPDEST DUP7 DUP2 LT PUSH2 0xE22 JUMPI POP DUP4 PUSH1 0x1 SWAP6 SWAP7 LT PUSH2 0xE09 JUMPI JUMPDEST POP POP POP DUP2 SHL ADD SWAP1 SSTORE PUSH2 0xB38 JUMP JUMPDEST ADD MLOAD PUSH1 0x0 NOT PUSH1 0xF8 DUP5 PUSH1 0x3 SHL AND SHR NOT AND SWAP1 SSTORE DUP4 DUP1 DUP1 PUSH2 0xDFC JUMP JUMPDEST SWAP2 SWAP3 PUSH1 0x20 PUSH1 0x1 DUP2 SWAP3 DUP7 DUP6 ADD MLOAD DUP2 SSTORE ADD SWAP5 ADD SWAP3 ADD PUSH2 0xDE9 JUMP JUMPDEST ADD MLOAD SWAP1 POP DUP4 DUP1 PUSH2 0xAC4 JUMP JUMPDEST SWAP3 POP PUSH1 0x8 DUP5 ADD PUSH1 0x0 MSTORE PUSH1 0x20 PUSH1 0x0 KECCAK256 SWAP1 PUSH1 0x0 SWAP4 JUMPDEST PUSH1 0x1F NOT DUP5 AND DUP6 LT PUSH2 0xE9C JUMPI PUSH1 0x1 SWAP5 POP DUP4 PUSH1 0x1F NOT DUP2 AND LT PUSH2 0xE83 JUMPI JUMPDEST POP POP POP DUP2 SHL ADD PUSH1 0x8 DUP3 ADD SSTORE PUSH2 0xADC JUMP JUMPDEST ADD MLOAD PUSH1 0x0 NOT PUSH1 0xF8 DUP5 PUSH1 0x3 SHL AND SHR NOT AND SWAP1 SSTORE DUP4 DUP1 DUP1 PUSH2 0xE73 JUMP JUMPDEST DUP2 DUP2 ADD MLOAD DUP4 SSTORE PUSH1 0x20 SWAP5 DUP6 ADD SWAP5 PUSH1 0x1 SWAP1 SWAP4 ADD SWAP3 SWAP1 SWAP2 ADD SWAP1 PUSH2 0xE58 JUMP JUMPDEST ADD MLOAD SWAP1 POP DUP4 DUP1 PUSH2 0xA60 JUMP JUMPDEST SWAP3 POP PUSH1 0x7 DUP5 ADD PUSH1 0x0 MSTORE PUSH1 0x20 PUSH1 0x0 KECCAK256 SWAP1 PUSH1 0x0 SWAP4 JUMPDEST PUSH1 0x1F NOT DUP5 AND DUP6 LT PUSH2 0xF19 JUMPI PUSH1 0x1 SWAP5 POP DUP4 PUSH1 0x1F NOT DUP2 AND LT PUSH2 0xF00 JUMPI JUMPDEST POP POP POP DUP2 SHL ADD PUSH1 0x7 DUP3 ADD SSTORE PUSH2 0xA78 JUMP JUMPDEST ADD MLOAD PUSH1 0x0 NOT PUSH1 0xF8 DUP5 PUSH1 0x3 SHL AND SHR NOT AND SWAP1 SSTORE DUP4 DUP1 DUP1 PUSH2 0xEF0 JUMP JUMPDEST DUP2 DUP2 ADD MLOAD DUP4 SSTORE PUSH1 0x20 SWAP5 DUP6 ADD SWAP5 PUSH1 0x1 SWAP1 SWAP4 ADD SWAP3 SWAP1 SWAP2 ADD SWAP1 PUSH2 0xED5 JUMP JUMPDEST ADD MLOAD SWAP1 POP DUP4 DUP1 PUSH2 0x9FD JUMP JUMPDEST SWAP3 POP PUSH1 0x6 DUP5 ADD PUSH1 0x0 MSTORE PUSH1 0x20 PUSH1 0x0 KECCAK256 SWAP1 PUSH1 0x0 SWAP4 JUMPDEST PUSH1 0x1F NOT DUP5 AND DUP6 LT PUSH2 0xF96 JUMPI PUSH1 0x1 SWAP5 POP DUP4 PUSH1 0x1F NOT DUP2 AND LT PUSH2 0xF7D JUMPI JUMPDEST POP POP POP DUP2 SHL ADD PUSH1 0x6 DUP3 ADD SSTORE PUSH2 0xA15 JUMP JUMPDEST ADD MLOAD PUSH1 0x0 NOT PUSH1 0xF8 DUP5 PUSH1 0x3 SHL AND SHR NOT AND SWAP1 SSTORE DUP4 DUP1 DUP1 PUSH2 0xF6D JUMP JUMPDEST DUP2 DUP2 ADD MLOAD DUP4 SSTORE PUSH1 0x20 SWAP5 DUP6 ADD SWAP5 PUSH1 0x1 SWAP1 SWAP4 ADD SWAP3 SWAP1 SWAP2 ADD SWAP1 PUSH2 0xF52 JUMP JUMPDEST ADD MLOAD SWAP1 POP DUP4 DUP1 PUSH2 0x99A JUMP JUMPDEST SWAP3 POP PUSH1 0x5 DUP5 ADD PUSH1 0x0 MSTORE PUSH1 0x20 PUSH1 0x0 KECCAK256 SWAP1 PUSH1 0x0 SWAP4 JUMPDEST PUSH1 0x1F NOT DUP5 AND DUP6 LT PUSH2 0x1013 JUMPI PUSH1 0x1 SWAP5 POP DUP4 PUSH1 0x1F NOT DUP2 AND LT PUSH2 0xFFA JUMPI JUMPDEST POP POP POP DUP2 SHL ADD PUSH1 0x5 DUP3 ADD SSTORE PUSH2 0x9B2 JUMP JUMPDEST ADD MLOAD PUSH1 0x0 NOT PUSH1 0xF8 DUP5 PUSH1 0x3 SHL AND SHR NOT AND SWAP1 SSTORE DUP4 DUP1 DUP1 PUSH2 0xFEA JUMP JUMPDEST DUP2 DUP2 ADD MLOAD DUP4 SSTORE PUSH1 0x20 SWAP5 DUP6 ADD SWAP5 PUSH1 0x1 SWAP1 SWAP4 ADD SWAP3 SWAP1 SWAP2 ADD SWAP1 PUSH2 0xFCF JUMP JUMPDEST ADD MLOAD SWAP1 POP DUP4 DUP1 PUSH2 0x937 JUMP JUMPDEST SWAP3 POP PUSH1 0x4 DUP5 ADD PUSH1 0x0 MSTORE PUSH1 0x20 PUSH1 0x0 KECCAK256 SWAP1 PUSH1 0x0 SWAP4 JUMPDEST PUSH1 0x1F NOT DUP5 AND DUP6 LT PUSH2 0x1090 JUMPI PUSH1 0x1 SWAP5 POP DUP4 PUSH1 0x1F NOT DUP2 AND LT PUSH2 0x1077 JUMPI JUMPDEST POP POP POP DUP2 SHL ADD PUSH1 0x4 DUP3 ADD SSTORE PUSH2 0x94F JUMP JUMPDEST ADD MLOAD PUSH1 0x0 NOT PUSH1 0xF8 DUP5 PUSH1 0x3 SHL AND SHR NOT AND SWAP1 SSTORE DUP4 DUP1 DUP1 PUSH2 0x1067 JUMP JUMPDEST DUP2 DUP2 ADD MLOAD DUP4 SSTORE PUSH1 0x20 SWAP5 DUP6 ADD SWAP5 PUSH1 0x1 SWAP1 SWAP4 ADD SWAP3 SWAP1 SWAP2 ADD SWAP1 PUSH2 0x104C JUMP JUMPDEST ADD MLOAD SWAP1 POP DUP4 DUP1 PUSH2 0x8D4 JUMP JUMPDEST SWAP3 POP PUSH1 0x3 DUP5 ADD PUSH1 0x0 MSTORE PUSH1 0x20 PUSH1 0x0 KECCAK256 SWAP1 PUSH1 0x0 SWAP4 JUMPDEST PUSH1 0x1F NOT DUP5 AND DUP6 LT PUSH2 0x110D JUMPI PUSH1 0x1 SWAP5 POP DUP4 PUSH1 0x1F NOT DUP2 AND LT PUSH2 0x10F4 JUMPI JUMPDEST POP POP POP DUP2 SHL ADD PUSH1 0x3 DUP3 ADD SSTORE PUSH2 0x8EC JUMP JUMPDEST ADD MLOAD PUSH1 0x0 NOT PUSH1 0xF8 DUP5 PUSH1 0x3 SHL AND SHR NOT AND SWAP1 SSTORE DUP4 DUP1 DUP1 PUSH2 0x10E4 JUMP JUMPDEST DUP2 DUP2 ADD MLOAD DUP4 SSTORE PUSH1 0x20 SWAP5 DUP6 ADD SWAP5 PUSH1 0x1 SWAP1 SWAP4 ADD SWAP3 SWAP1 SWAP2 ADD SWAP1 PUSH2 0x10C9 JUMP JUMPDEST ADD MLOAD SWAP1 POP DUP5 DUP1 PUSH2 0x874 JUMP JUMPDEST DUP3 PUSH1 0x0 MSTORE PUSH1 0x20 PUSH1 0x0 KECCAK256 SWAP1 PUSH1 0x0 PUSH1 0x1F NOT DUP5 AND SWAP1 JUMPDEST DUP2 DUP2 LT PUSH2 0x1181 JUMPI POP SWAP6 DUP4 PUSH1 0x1 SWAP6 SWAP7 SWAP8 LT PUSH2 0x1168 JUMPI JUMPDEST POP POP POP DUP2 SHL ADD SWAP1 SSTORE PUSH2 0x889 JUMP JUMPDEST ADD MLOAD PUSH1 0x0 NOT PUSH1 0xF8 DUP5 PUSH1 0x3 SHL AND SHR NOT AND SWAP1 SSTORE DUP5 DUP1 DUP1 PUSH2 0x115B JUMP JUMPDEST SWAP2 SWAP3 PUSH1 0x20 PUSH1 0x1 DUP2 SWAP3 DUP7 DUP12 ADD MLOAD DUP2 SSTORE ADD SWAP5 ADD SWAP3 ADD PUSH2 0x1146 JUMP JUMPDEST ADD MLOAD SWAP1 POP DUP5 DUP1 PUSH2 0x81A JUMP JUMPDEST DUP3 PUSH1 0x0 MSTORE PUSH1 0x20 PUSH1 0x0 KECCAK256 SWAP1 PUSH1 0x0 PUSH1 0x1F NOT DUP5 AND SWAP1 JUMPDEST DUP2 DUP2 LT PUSH2 0x11F2 JUMPI POP SWAP6 DUP4 PUSH1 0x1 SWAP6 SWAP7 SWAP8 LT PUSH2 0x11D9 JUMPI JUMPDEST POP POP POP DUP2 SHL ADD SWAP1 SSTORE PUSH2 0x82F JUMP JUMPDEST ADD MLOAD PUSH1 0x0 NOT PUSH1 0xF8 DUP5 PUSH1 0x3 SHL AND SHR NOT AND SWAP1 SSTORE DUP5 DUP1 DUP1 PUSH2 0x11CC JUMP JUMPDEST SWAP2 SWAP3 PUSH1 0x20 PUSH1 0x1 DUP2 SWAP3 DUP7 DUP12 ADD MLOAD DUP2 SSTORE ADD SWAP5 ADD SWAP3 ADD PUSH2 0x11B7 JUMP JUMPDEST ADD MLOAD SWAP1 POP DUP4 DUP1 PUSH2 0x7C0 JUMP JUMPDEST DUP3 PUSH1 0x0 MSTORE PUSH1 0x20 PUSH1 0x0 KECCAK256 SWAP1 PUSH1 0x0 SWAP5 PUSH1 0x1F NOT DUP5 AND SWAP6 JUMPDEST DUP7 DUP2 LT PUSH2 0x1262 JUMPI POP DUP4 PUSH1 0x1 SWAP6 SWAP7 LT PUSH2 0x1249 JUMPI JUMPDEST POP POP POP DUP2 SHL ADD DUP2 SSTORE PUSH2 0x7D5 JUMP JUMPDEST ADD MLOAD PUSH1 0x0 NOT PUSH1 0xF8 DUP5 PUSH1 0x3 SHL AND SHR NOT AND SWAP1 SSTORE DUP4 DUP1 DUP1 PUSH2 0x123C JUMP JUMPDEST SWAP2 SWAP3 PUSH1 0x20 PUSH1 0x1 DUP2 SWAP3 DUP7 DUP6 ADD MLOAD DUP2 SSTORE ADD SWAP5 ADD SWAP3 ADD PUSH2 0x1229 JUMP JUMPDEST PUSH1 0x40 MLOAD PUSH3 0x461BCD PUSH1 0xE5 SHL DUP2 MSTORE PUSH1 0x20 PUSH1 0x4 DUP3 ADD MSTORE PUSH1 0xB PUSH1 0x24 DUP3 ADD MSTORE PUSH11 0x139BDD081CDD195DD85C99 PUSH1 0xAA SHL PUSH1 0x44 DUP3 ADD MSTORE PUSH1 0x64 SWAP1 REVERT JUMPDEST CALLVALUE PUSH2 0x1F4 JUMPI PUSH1 0x20 CALLDATASIZE PUSH1 0x3 NOT ADD SLT PUSH2 0x1F4 JUMPI PUSH1 0x4 CALLDATALOAD PUSH1 0x2 SLOAD DUP2 LT ISZERO PUSH2 0x1F4 JUMPI PUSH2 0x12D4 SWAP1 PUSH2 0x12F8 JUMP JUMPDEST PUSH2 0xDB5 JUMPI PUSH2 0x12E4 PUSH2 0x1F0 SWAP2 PUSH2 0x13BC JUMP JUMPDEST PUSH1 0x40 MLOAD SWAP2 DUP3 SWAP2 PUSH1 0x20 DUP4 MSTORE PUSH1 0x20 DUP4 ADD SWAP1 PUSH2 0x1485 JUMP JUMPDEST PUSH1 0x2 SLOAD DUP2 LT ISZERO PUSH2 0x132F JUMPI PUSH1 0x2 PUSH1 0x0 MSTORE PUSH32 0x405787FA12A823E0F2B7631CC41B3BA8828B3321CA811111FA75CD3AA3BB5ACE ADD SWAP1 PUSH1 0x0 SWAP1 JUMP JUMPDEST PUSH4 0x4E487B71 PUSH1 0xE0 SHL PUSH1 0x0 MSTORE PUSH1 0x32 PUSH1 0x4 MSTORE PUSH1 0x24 PUSH1 0x0 REVERT JUMPDEST SWAP1 PUSH1 0x1 DUP3 DUP2 SHR SWAP3 AND DUP1 ISZERO PUSH2 0x1375 JUMPI JUMPDEST PUSH1 0x20 DUP4 LT EQ PUSH2 0x135F JUMPI JUMP JUMPDEST PUSH4 0x4E487B71 PUSH1 0xE0 SHL PUSH1 0x0 MSTORE PUSH1 0x22 PUSH1 0x4 MSTORE PUSH1 0x24 PUSH1 0x0 REVERT JUMPDEST SWAP2 PUSH1 0x7F AND SWAP2 PUSH2 0x1354 JUMP JUMPDEST PUSH2 0x140 DUP2 ADD SWAP1 DUP2 LT PUSH1 0x1 PUSH1 0x1 PUSH1 0x40 SHL SUB DUP3 GT OR PUSH2 0xD9F JUMPI PUSH1 0x40 MSTORE JUMP JUMPDEST SWAP1 PUSH1 0x1F DUP1 NOT SWAP2 ADD AND DUP2 ADD SWAP1 DUP2 LT PUSH1 0x1 PUSH1 0x1 PUSH1 0x40 SHL SUB DUP3 GT OR PUSH2 0xD9F JUMPI PUSH1 0x40 MSTORE JUMP JUMPDEST SWAP1 PUSH1 0x40 MLOAD SWAP2 DUP3 PUSH1 0x0 DUP3 SLOAD SWAP3 PUSH2 0x13D0 DUP5 PUSH2 0x1345 JUMP JUMPDEST SWAP1 DUP2 DUP5 MSTORE PUSH1 0x1 SWAP5 DUP6 DUP2 AND SWAP1 DUP2 PUSH1 0x0 EQ PUSH2 0x143F JUMPI POP PUSH1 0x1 EQ PUSH2 0x13FC JUMPI JUMPDEST POP POP PUSH2 0x13FA SWAP3 POP SUB DUP4 PUSH2 0x139B JUMP JUMPDEST JUMP JUMPDEST SWAP1 SWAP4 SWAP2 POP PUSH1 0x0 MSTORE PUSH1 0x20 SWAP1 DUP2 PUSH1 0x0 KECCAK256 SWAP4 PUSH1 0x0 SWAP2 JUMPDEST DUP2 DUP4 LT PUSH2 0x1427 JUMPI POP POP PUSH2 0x13FA SWAP4 POP DUP3 ADD ADD CODESIZE DUP1 PUSH2 0x13EC JUMP JUMPDEST DUP6 SLOAD DUP9 DUP5 ADD DUP6 ADD MSTORE SWAP5 DUP6 ADD SWAP5 DUP8 SWAP5 POP SWAP2 DUP4 ADD SWAP2 PUSH2 0x140F JUMP JUMPDEST SWAP2 POP POP PUSH2 0x13FA SWAP5 POP PUSH1 0x20 SWAP3 POP PUSH1 0xFF NOT AND DUP3 DUP5 ADD MSTORE ISZERO ISZERO PUSH1 0x5 SHL DUP3 ADD ADD CODESIZE DUP1 PUSH2 0x13EC JUMP JUMPDEST PUSH1 0x0 JUMPDEST DUP4 DUP2 LT PUSH2 0x1475 JUMPI POP POP PUSH1 0x0 SWAP2 ADD MSTORE JUMP JUMPDEST DUP2 DUP2 ADD MLOAD DUP4 DUP3 ADD MSTORE PUSH1 0x20 ADD PUSH2 0x1465 JUMP JUMPDEST SWAP1 PUSH1 0x20 SWAP2 PUSH2 0x149E DUP2 MLOAD DUP1 SWAP3 DUP2 DUP6 MSTORE DUP6 DUP1 DUP7 ADD SWAP2 ADD PUSH2 0x1462 JUMP JUMPDEST PUSH1 0x1F ADD PUSH1 0x1F NOT AND ADD ADD SWAP1 JUMP JUMPDEST SWAP2 DUP2 PUSH1 0x1F DUP5 ADD SLT ISZERO PUSH2 0x1F4 JUMPI DUP3 CALLDATALOAD SWAP2 PUSH1 0x1 PUSH1 0x1 PUSH1 0x40 SHL SUB DUP4 GT PUSH2 0x1F4 JUMPI PUSH1 0x20 DUP4 DUP2 DUP7 ADD SWAP6 ADD ADD GT PUSH2 0x1F4 JUMPI JUMP JUMPDEST SWAP3 SWAP2 SWAP3 PUSH1 0x1 PUSH1 0x1 PUSH1 0x40 SHL SUB DUP3 GT PUSH2 0xD9F JUMPI PUSH1 0x40 MLOAD SWAP2 PUSH2 0x1500 PUSH1 0x1F DUP3 ADD PUSH1 0x1F NOT AND PUSH1 0x20 ADD DUP5 PUSH2 0x139B JUMP JUMPDEST DUP3 SWAP5 DUP2 DUP5 MSTORE DUP2 DUP4 ADD GT PUSH2 0x1F4 JUMPI DUP3 DUP2 PUSH1 0x20 SWAP4 DUP5 PUSH1 0x0 SWAP7 ADD CALLDATACOPY ADD ADD MSTORE JUMP JUMPDEST SWAP1 PUSH1 0x1F DUP2 GT PUSH2 0x152B JUMPI POP POP POP JUMP JUMPDEST PUSH1 0x0 SWAP2 DUP3 MSTORE PUSH1 0x20 DUP3 KECCAK256 SWAP1 PUSH1 0x20 PUSH1 0x1F DUP6 ADD PUSH1 0x5 SHR DUP4 ADD SWAP5 LT PUSH2 0x1567 JUMPI JUMPDEST PUSH1 0x1F ADD PUSH1 0x5 SHR ADD SWAP2 JUMPDEST DUP3 DUP2 LT PUSH2 0x155C JUMPI POP POP POP JUMP JUMPDEST DUP2 DUP2 SSTORE PUSH1 0x1 ADD PUSH2 0x1550 JUMP JUMPDEST SWAP1 SWAP3 POP DUP3 SWAP1 PUSH2 0x1547 JUMP JUMPDEST SWAP1 DUP1 PUSH1 0x20 SWAP4 SWAP3 DUP2 DUP5 MSTORE DUP5 DUP5 ADD CALLDATACOPY PUSH1 0x0 DUP3 DUP3 ADD DUP5 ADD MSTORE PUSH1 0x1F ADD PUSH1 0x1F NOT AND ADD ADD SWAP1 JUMP INVALID LOG2 PUSH5 0x6970667358 0x22 SLT KECCAK256 0xDD CALLER PUSH9 0x1E1ACA6760059BF2B3 PUSH25 0x8A6383FDE63D52D6421DD8043F5C0B1D1B292864736F6C6343 STOP ADDMOD EQ STOP CALLER "},"methodIdentifiers":{"codices(string)":"dbc21424","getCodex(string)":"83361522","inscribeCodex(string,string,string,string,string,string,string,string,string,string,string)":"48d685d7","keys(uint256)":"0cb6aaf1","steward()":"637eea19","totalCodices()":"c212d16b"}}}}}