{"contracts/codex/SpiralboundCodexXXVI.sol":{"SpiralboundCodexXXVI":{"abi":[{"inputs":[],"stateMutability":"nonpayable","type":"constructor"},{"anonymous":false,"inputs":[{"indexed":false,"internalType":"string","name":"glyph","type":"string"},{"indexed":false,"internalType":"string","name":"tag","type":"string"},{"indexed":false,"internalType":"string","name":"binding","type":"string"},{"indexed":false,"internalType":"string","name":"annotation","type":"string"},{"indexed":false,"internalType":"string","name":"lineage","type":"string"},{"indexed":false,"internalType":"string","name":"resonance","type":"string"},{"indexed":false,"internalType":"string","name":"protocol","type":"string"},{"indexed":false,"internalType":"string","name":"sanctum","type":"string"},{"indexed":false,"internalType":"string","name":"pulse","type":"string"},{"indexed":false,"internalType":"string","name":"chant","type":"string"},{"indexed":false,"internalType":"string","name":"choreography","type":"string"},{"indexed":false,"internalType":"string","name":"drift","type":"string"},{"indexed":false,"internalType":"string","name":"signature","type":"string"},{"indexed":false,"internalType":"string","name":"signal","type":"string"},{"indexed":false,"internalType":"string","name":"companion","type":"string"},{"indexed":false,"internalType":"string","name":"stewardName","type":"string"},{"indexed":false,"internalType":"string","name":"registry","type":"string"},{"indexed":false,"internalType":"string","name":"echo","type":"string"},{"indexed":false,"internalType":"string","name":"hum","type":"string"},{"indexed":false,"internalType":"string","name":"terrain","type":"string"},{"indexed":false,"internalType":"string","name":"choreographyType","type":"string"},{"indexed":false,"internalType":"string","name":"driftType","type":"string"},{"indexed":false,"internalType":"string","name":"signalType","type":"string"},{"indexed":false,"internalType":"string","name":"companionType","type":"string"},{"indexed":false,"internalType":"string","name":"stewardSignal","type":"string"},{"indexed":false,"internalType":"string","name":"pulseType","type":"string"},{"indexed":false,"internalType":"string","name":"signalChoreography","type":"string"}],"name":"CodexInscribed","type":"event"},{"inputs":[{"internalType":"string","name":"","type":"string"}],"name":"codices","outputs":[{"internalType":"string","name":"tag","type":"string"},{"internalType":"string","name":"binding","type":"string"},{"internalType":"string","name":"annotation","type":"string"},{"internalType":"string","name":"lineage","type":"string"},{"internalType":"string","name":"resonance","type":"string"},{"internalType":"string","name":"protocol","type":"string"},{"internalType":"string","name":"sanctum","type":"string"},{"internalType":"string","name":"pulse","type":"string"},{"internalType":"string","name":"chant","type":"string"},{"internalType":"string","name":"choreography","type":"string"},{"internalType":"string","name":"drift","type":"string"},{"internalType":"string","name":"signature","type":"string"},{"internalType":"string","name":"signal","type":"string"},{"internalType":"string","name":"companion","type":"string"},{"internalType":"string","name":"stewardName","type":"string"},{"internalType":"string","name":"registry","type":"string"},{"internalType":"string","name":"echo","type":"string"},{"internalType":"string","name":"hum","type":"string"},{"internalType":"string","name":"terrain","type":"string"},{"internalType":"string","name":"choreographyType","type":"string"},{"internalType":"string","name":"driftType","type":"string"},{"internalType":"string","name":"signalType","type":"string"},{"internalType":"string","name":"companionType","type":"string"},{"internalType":"string","name":"stewardSignal","type":"string"},{"internalType":"string","name":"pulseType","type":"string"},{"internalType":"string","name":"signalChoreography","type":"string"}],"stateMutability":"view","type":"function"},{"inputs":[{"internalType":"string","name":"glyph","type":"string"}],"name":"getCodex","outputs":[{"components":[{"internalType":"string","name":"tag","type":"string"},{"internalType":"string","name":"binding","type":"string"},{"internalType":"string","name":"annotation","type":"string"},{"internalType":"string","name":"lineage","type":"string"},{"internalType":"string","name":"resonance","type":"string"},{"internalType":"string","name":"protocol","type":"string"},{"internalType":"string","name":"sanctum","type":"string"},{"internalType":"string","name":"pulse","type":"string"},{"internalType":"string","name":"chant","type":"string"},{"internalType":"string","name":"choreography","type":"string"},{"internalType":"string","name":"drift","type":"string"},{"internalType":"string","name":"signature","type":"string"},{"internalType":"string","name":"signal","type":"string"},{"internalType":"string","name":"companion","type":"string"},{"internalType":"string","name":"stewardName","type":"string"},{"internalType":"string","name":"registry","type":"string"},{"internalType":"string","name":"echo","type":"string"},{"internalType":"string","name":"hum","type":"string"},{"internalType":"string","name":"terrain","type":"string"},{"internalType":"string","name":"choreographyType","type":"string"},{"internalType":"string","name":"driftType","type":"string"},{"internalType":"string","name":"signalType","type":"string"},{"internalType":"string","name":"companionType","type":"string"},{"internalType":"string","name":"stewardSignal","type":"string"},{"internalType":"string","name":"pulseType","type":"string"},{"internalType":"string","name":"signalChoreography","type":"string"}],"internalType":"struct SpiralboundCodexXXVI.Codex","name":"","type":"tuple"}],"stateMutability":"view","type":"function"},{"inputs":[{"internalType":"string","name":"glyph","type":"string"},{"internalType":"string","name":"tag","type":"string"},{"internalType":"string","name":"binding","type":"string"},{"internalType":"string","name":"annotation","type":"string"},{"internalType":"string","name":"lineage","type":"string"},{"internalType":"string","name":"resonance","type":"string"},{"internalType":"string","name":"protocol","type":"string"},{"internalType":"string","name":"sanctum","type":"string"},{"internalType":"string","name":"pulse","type":"string"},{"internalType":"string","name":"chant","type":"string"},{"internalType":"string","name":"choreography","type":"string"},{"internalType":"string","name":"drift","type":"string"},{"internalType":"string","name":"signature","type":"string"},{"internalType":"string","name":"signal","type":"string"},{"internalType":"string","name":"companion","type":"string"},{"internalType":"string","name":"stewardName","type":"string"},{"internalType":"string","name":"registry","type":"string"},{"internalType":"string","name":"echo","type":"string"},{"internalType":"string","name":"hum","type":"string"},{"internalType":"string","name":"terrain","type":"string"},{"internalType":"string","name":"choreographyType","type":"string"},{"internalType":"string","name":"driftType","type":"string"},{"internalType":"string","name":"signalType","type":"string"},{"internalType":"string","name":"companionType","type":"string"},{"internalType":"string","name":"stewardSignal","type":"string"},{"internalType":"string","name":"pulseType","type":"string"},{"internalType":"string","name":"signalChoreography","type":"string"}],"name":"inscribeCodex","outputs":[],"stateMutability":"nonpayable","type":"function"},{"inputs":[{"internalType":"uint256","name":"","type":"uint256"}],"name":"keys","outputs":[{"internalType":"string","name":"","type":"string"}],"stateMutability":"view","type":"function"},{"inputs":[],"name":"steward","outputs":[{"internalType":"address","name":"","type":"address"}],"stateMutability":"view","type":"function"},{"inputs":[],"name":"totalCodices","outputs":[{"internalType":"uint256","name":"","type":"uint256"}],"stateMutability":"view","type":"function"}],"evm":{"bytecode":{"linkReferences":{},"object":"6080806040523461002857600080546001600160a01b031916331790556130f8908161002e8239f35b600080fdfe610960604052600436101561001357600080fd5b60003560e01c80630cb6aaf114612ddd578063637eea1914612db457806383361522146127c4578063c212d16b146127a6578063cf49234a1461052a5763dbc214241461005f57600080fd5b34610525576020366003190112610525576004356001600160401b03811161052557366023820112156105255736816004013591602401916100a092613007565b60405181818093516020819301916100b792612f92565b81016001815203602001902080610500526100d190612eec565b610500516001016100e190612eec565b61034052610500516002016100f590612eec565b6106a0526105005160030161010990612eec565b610100526105005160040161011d90612eec565b6105005160050161012d90612eec565b6105005160060161013d90612eec565b6105005160070161014d90612eec565b6105005160080161015d90612eec565b6105005160090161016d90612eec565b61050051600a0161017d90612eec565b9161050051600b0161018e90612eec565b9361050051600c0161019f90612eec565b9561050051600d016101b090612eec565b9761050051600e016101c190612eec565b9961050051600f016101d290612eec565b9b610500516010016101e390612eec565b61046052610500516011016101f790612eec565b610600526105005160120161020b90612eec565b610280526105005160130161021f90612eec565b6105c0526105005160140161023390612eec565b610860526105005160150161024790612eec565b610720526105005160160161025b90612eec565b610580526105005160170161026f90612eec565b6108a0526105005160180161028390612eec565b610820526105005160190161029790612eec565b610620526040518061020052610340905261020051610340016102b991612fb5565b61020051808203906020015261034051906102d391612fb5565b6102005180820390604001526106a051906102ed91612fb5565b610200518082039060600152610100519061030791612fb5565b61020051808203906080015261031c91612fb5565b610200518082039060a0015261033191612fb5565b610200518082039060c0015261034691612fb5565b610200518082039060e0015261035b91612fb5565b6102005180820390610100015261037191612fb5565b6102005180820390610120015261038791612fb5565b6102005180820390610140015261039d91612fb5565b610200518082039061016001526103b391612fb5565b610200518082039061018001526103c991612fb5565b61020051808203906101a001526103df91612fb5565b61020051808203906101c001526103f591612fb5565b61020051808203906101e0015261040b91612fb5565b61020051808203906102000152610460519061042691612fb5565b61020051808203906102200152610600519061044191612fb5565b61020051808203906102400152610280519061045c91612fb5565b610200518082039061026001526105c0519061047791612fb5565b61020051808203906102800152610860519061049291612fb5565b61020051808203906102a0015261072051906104ad91612fb5565b61020051808203906102c0015261058051906104c891612fb5565b61020051808203906102e001526108a051906104e391612fb5565b6102005180820390610300015261082051906104fe91612fb5565b610200518082039061032001526102005190610620519061051e91612fb5565b0361020051f35b600080fd5b3461052557610360366003190112610525576004356001600160401b0381116105255761055b903690600401612fda565b6103c0526102e0526024356001600160401b03811161052557610582903690600401612fda565b6108c052610940526044356001600160401b038111610525576105a9903690600401612fda565b610160526080526064356001600160401b038111610525576105cf903690600401612fda565b6101c052610560526001600160401b0360843511610525576105f636608435600401612fda565b610380526108e0526001600160401b0360a435116105255761061d3660a435600401612fda565b610880526101a0526001600160401b0360c43511610525576106443660c435600401612fda565b6103a052610840526001600160401b0360e435116105255761066b3660e435600401612fda565b6106c052610120526001600160401b036101043511610525576106943661010435600401612fda565b61044052610180526001600160401b036101243511610525576106bd3661012435600401612fda565b6107c052610260526001600160401b036101443511610525576106e63661014435600401612fda565b6104c0526103e0526001600160401b0361016435116105255761070f3661016435600401612fda565b61048052610920526001600160401b036101843511610525576107383661018435600401612fda565b60c052610780526001600160401b036101a4351161052557610760366101a435600401612fda565b6103205260e0526001600160401b036101c4351161052557610788366101c435600401612fda565b6104e0526105a0526001600160401b036101e43511610525576107b1366101e435600401612fda565b6107e052610240526001600160401b036102043511610525576107da3661020435600401612fda565b61014052610360526001600160401b036102243511610525576108033661022435600401612fda565b6102a052610760526001600160401b0361024435116105255761082c3661024435600401612fda565b61074052610800526001600160401b036102643511610525576108553661026435600401612fda565b6105e0526101e0526001600160401b0361028435116105255761087e3661028435600401612fda565b6106e052610700526001600160401b036102a43511610525576108a7366102a435600401612fda565b61042052610660526001600160401b036102c43511610525576108d0366102c435600401612fda565b610540526107a0526001600160401b036102e43511610525576108f9366102e435600401612fda565b61064052610400526001600160401b036103043511610525576109223661030435600401612fda565b61090052610680526001600160401b0361032435116105255761094b3661032435600401612fda565b610220526102c0526001600160401b036103443511610525576109743661034435600401612fda565b60a0526104a0526000546001600160a01b031633036127735761099d6040518061030052612eaf565b6109ae366108c05161094051613007565b61030051526109c33661016051608051613007565b60206103005101526109dc366101c05161056051613007565b60406103005101526109f536610380516108e051613007565b6060610300510152610a0e36610880516101a051613007565b6080610300510152610a27366103a05161084051613007565b60a0610300510152610a40366106c05161012051613007565b60c0610300510152610a59366104405161018051613007565b60e0610300510152610a72366107c05161026051613007565b610100610300510152610a8c366104c0516103e051613007565b610120610300510152610aa6366104805161092051613007565b610140610300510152610abf3660c05161078051613007565b610160610300510152610ad8366103205160e051613007565b610180610300510152610af2366104e0516105a051613007565b6101a0610300510152610b0c366107e05161024051613007565b6101c0610300510152610b26366101405161036051613007565b6101e0610300510152610b40366102a05161076051613007565b610200610300510152610b5a366107405161080051613007565b610220610300510152610b74366105e0516101e051613007565b610240610300510152610b8e366106e05161070051613007565b610260610300510152610ba8366104205161066051613007565b610280610300510152610bc236610540516107a051613007565b6102a0610300510152610bdc366106405161040051613007565b6102c0610300510152610bf6366109005161068051613007565b6102e0610300510152610c1036610220516102c051613007565b61030080510152610c273660a0516104a051613007565b6103206103005101526040516103c0516102e051823760016103c0518201526020816103c05181010301902061030051518051906001600160401b038211611a9d578190610c7f82610c798654612e75565b8661304d565b602090601f8311600114612707576000926126fc575b50508160011b916000199060031b1c19161781555b60206103005101518051906001600160401b038211611a9d578190610cdf82610cd66001870154612e75565b6001870161304d565b602090601f831160011461268a5760009261267f575b50508160011b916000199060031b1c19161760018201555b60406103005101518051906001600160401b038211611a9d578190610d4282610d396002870154612e75565b6002870161304d565b602090601f831160011461260d57600092612602575b50508160011b916000199060031b1c19161760028201555b60606103005101518051906001600160401b038211611a9d578190610da582610d9c6003870154612e75565b6003870161304d565b602090601f831160011461259057600092612585575b50508160011b916000199060031b1c19161760038201555b60806103005101518051906001600160401b038211611a9d578190610e0882610dff6004870154612e75565b6004870161304d565b602090601f831160011461251357600092612508575b50508160011b916000199060031b1c19161760048201555b60a06103005101518051906001600160401b038211611a9d578190610e6b82610e626005870154612e75565b6005870161304d565b602090601f83116001146124965760009261248b575b50508160011b916000199060031b1c19161760058201555b60c06103005101518051906001600160401b038211611a9d578190610ece82610ec56006870154612e75565b6006870161304d565b602090601f83116001146124195760009261240e575b50508160011b916000199060031b1c19161760068201555b60e06103005101518051906001600160401b038211611a9d578190610f3182610f286007870154612e75565b6007870161304d565b602090601f831160011461239c57600092612391575b50508160011b916000199060031b1c19161760078201555b6101006103005101518051906001600160401b038211611a9d578190610f9582610f8c6008870154612e75565b6008870161304d565b602090601f831160011461231f57600092612314575b50508160011b916000199060031b1c19161760088201555b6101206103005101518051906001600160401b038211611a9d578190610ff982610ff06009870154612e75565b6009870161304d565b602090601f83116001146122a257600092612297575b50508160011b916000199060031b1c19161760098201555b6101406103005101518051906001600160401b038211611a9d57819061105d82611054600a870154612e75565b600a870161304d565b602090601f83116001146122255760009261221a575b50508160011b916000199060031b1c191617600a8201555b6101606103005101518051906001600160401b038211611a9d5781906110c1826110b8600b870154612e75565b600b870161304d565b602090601f83116001146121a85760009261219d575b50508160011b916000199060031b1c191617600b8201555b6101806103005101518051906001600160401b038211611a9d5781906111258261111c600c870154612e75565b600c870161304d565b602090601f831160011461212b57600092612120575b50508160011b916000199060031b1c191617600c8201555b6101a06103005101518051906001600160401b038211611a9d57819061118982611180600d870154612e75565b600d870161304d565b602090601f83116001146120ae576000926120a3575b50508160011b916000199060031b1c191617600d8201555b6101c06103005101518051906001600160401b038211611a9d5781906111ed826111e4600e870154612e75565b600e870161304d565b602090601f831160011461203157600092612026575b50508160011b916000199060031b1c191617600e8201555b6101e06103005101518051906001600160401b038211611a9d57819061125182611248600f870154612e75565b600f870161304d565b602090601f8311600114611fb457600092611fa9575b50508160011b916000199060031b1c191617600f8201555b6102006103005101518051906001600160401b038211611a9d5781906112b5826112ac6010870154612e75565b6010870161304d565b602090601f8311600114611f3757600092611f2c575b50508160011b916000199060031b1c19161760108201555b6102206103005101518051906001600160401b038211611a9d578190611319826113106011870154612e75565b6011870161304d565b602090601f8311600114611eba57600092611eaf575b50508160011b916000199060031b1c19161760118201555b6102406103005101518051906001600160401b038211611a9d57819061137d826113746012870154612e75565b6012870161304d565b602090601f8311600114611e3d57600092611e32575b50508160011b916000199060031b1c19161760128201555b6102606103005101518051906001600160401b038211611a9d5781906113e1826113d86013870154612e75565b6013870161304d565b602090601f8311600114611dc057600092611db5575b50508160011b916000199060031b1c19161760138201555b6102806103005101518051906001600160401b038211611a9d5781906114458261143c6014870154612e75565b6014870161304d565b602090601f8311600114611d4357600092611d38575b50508160011b916000199060031b1c19161760148201555b6102a06103005101518051906001600160401b038211611a9d5781906114a9826114a06015870154612e75565b6015870161304d565b602090601f8311600114611cc657600092611cbb575b50508160011b916000199060031b1c19161760158201555b6102c06103005101518051906001600160401b038211611a9d57819061150d826115046016870154612e75565b6016870161304d565b602090601f8311600114611c4957600092611c3e575b50508160011b916000199060031b1c19161760168201555b6102e06103005101518051906001600160401b038211611a9d578190611571826115686017870154612e75565b6017870161304d565b602090601f8311600114611bcc57600092611bc1575b50508160011b916000199060031b1c19161760178201555b610300805101518051906001600160401b038211611a9d5781906115d3826115ca6018870154612e75565b6018870161304d565b602090601f8311600114611b4f57600092611b44575b50508160011b916000199060031b1c19161760188201555b6103206103005101518051906001600160401b038211611a9d576116358261162c6019860154612e75565b6019860161304d565b602090601f8311600114611ad4576019929160009183611ac9575b50508160011b916000199060031b1c1916179101555b60025468010000000000000000811015611a9d5780600161168a9201600255612e28565b611ab3576103c0516001600160401b038111611a9d576116b4906116ae8354612e75565b8361304d565b6000906103c051601f8111600114611a3057509060006103c0519182611a22575b508160011b916000199060031b1c19161790555b6103606040518061052052527f98294a5c238215c17c0453ef0a215f72b82e6674bfd030d8e1858095c1879a8b6119f96119df6119c56119ab61199161197761195d61194361192961190f6118f56118db6118c16118a861188f61187561185b61184161182761180e6117f56117dc6117c36117aa61179261177961036061052051016103c0516102e0516130a1565b6105205160208183039101526108c051610940516130a1565b610520516040818303910152610160516080516130a1565b6105205160608183039101526101c051610560516130a1565b610520516080818303910152610380516108e0516130a1565b6105205160a0818303910152610880516101a0516130a1565b6105205160c08183039101526103a051610840516130a1565b6105205160e08183039101526106c051610120516130a1565b6105205161010081830391015261044051610180516130a1565b610520516101208183039101526107c051610260516130a1565b610520516101408183039101526104c0516103e0516130a1565b6105205161016081830391015261048051610920516130a1565b6105205161018081830391015260c051610780516130a1565b610520516101a08183039101526103205160e0516130a1565b610520516101c08183039101526104e0516105a0516130a1565b610520516101e08183039101526107e051610240516130a1565b6105205161020081830391015261014051610360516130a1565b610520516102208183039101526102a051610760516130a1565b6105205161024081830391015261074051610800516130a1565b610520516102608183039101526105e0516101e0516130a1565b610520516102808183039101526106e051610700516130a1565b610520516102a081830391015261042051610660516130a1565b610520516102c0818303910152610540516107a0516130a1565b610520516102e081830391015261064051610400516130a1565b6105205161030081830391015261090051610680516130a1565b61052051610320818303910152610220516102c0516130a1565b61052051610340818303910152611a1a610520519160a0516104a0516130a1565b0361052051a1005b90506102e0510135836116d5565b8160005260206000206000936102e051905b601f1984168610611a8557600194955083601f19811610611a6b575b505050811b0190556116e9565b0135600019600384901b60f8161c19169055838080611a5e565b91602060018192858501358155019301950194611a42565b634e487b7160e01b600052604160045260246000fd5b634e487b7160e01b600052600060045260246000fd5b015190508480611650565b906019840160005260206000209160005b601f1985168110611b2c5750918391600193601995601f19811610611b13575b505050811b01910155611666565b015160001960f88460031b161c19169055848080611b05565b91926020600181928685015181550194019201611ae5565b0151905083806115e9565b9250601884016000526020600020906000935b601f1984168510611ba6576001945083601f19811610611b8d575b505050811b016018820155611601565b015160001960f88460031b161c19169055838080611b7d565b81810151835560209485019460019093019290910190611b62565b015190508380611587565b9250601784016000526020600020906000935b601f1984168510611c23576001945083601f19811610611c0a575b505050811b01601782015561159f565b015160001960f88460031b161c19169055838080611bfa565b81810151835560209485019460019093019290910190611bdf565b015190508380611523565b9250601684016000526020600020906000935b601f1984168510611ca0576001945083601f19811610611c87575b505050811b01601682015561153b565b015160001960f88460031b161c19169055838080611c77565b81810151835560209485019460019093019290910190611c5c565b0151905083806114bf565b9250601584016000526020600020906000935b601f1984168510611d1d576001945083601f19811610611d04575b505050811b0160158201556114d7565b015160001960f88460031b161c19169055838080611cf4565b81810151835560209485019460019093019290910190611cd9565b01519050838061145b565b9250601484016000526020600020906000935b601f1984168510611d9a576001945083601f19811610611d81575b505050811b016014820155611473565b015160001960f88460031b161c19169055838080611d71565b81810151835560209485019460019093019290910190611d56565b0151905083806113f7565b9250601384016000526020600020906000935b601f1984168510611e17576001945083601f19811610611dfe575b505050811b01601382015561140f565b015160001960f88460031b161c19169055838080611dee565b81810151835560209485019460019093019290910190611dd3565b015190508380611393565b9250601284016000526020600020906000935b601f1984168510611e94576001945083601f19811610611e7b575b505050811b0160128201556113ab565b015160001960f88460031b161c19169055838080611e6b565b81810151835560209485019460019093019290910190611e50565b01519050838061132f565b9250601184016000526020600020906000935b601f1984168510611f11576001945083601f19811610611ef8575b505050811b016011820155611347565b015160001960f88460031b161c19169055838080611ee8565b81810151835560209485019460019093019290910190611ecd565b0151905083806112cb565b9250601084016000526020600020906000935b601f1984168510611f8e576001945083601f19811610611f75575b505050811b0160108201556112e3565b015160001960f88460031b161c19169055838080611f65565b81810151835560209485019460019093019290910190611f4a565b015190508380611267565b9250600f84016000526020600020906000935b601f198416851061200b576001945083601f19811610611ff2575b505050811b01600f82015561127f565b015160001960f88460031b161c19169055838080611fe2565b81810151835560209485019460019093019290910190611fc7565b015190508380611203565b9250600e84016000526020600020906000935b601f1984168510612088576001945083601f1981161061206f575b505050811b01600e82015561121b565b015160001960f88460031b161c1916905583808061205f565b81810151835560209485019460019093019290910190612044565b01519050838061119f565b9250600d84016000526020600020906000935b601f1984168510612105576001945083601f198116106120ec575b505050811b01600d8201556111b7565b015160001960f88460031b161c191690558380806120dc565b818101518355602094850194600190930192909101906120c1565b01519050838061113b565b9250600c84016000526020600020906000935b601f1984168510612182576001945083601f19811610612169575b505050811b01600c820155611153565b015160001960f88460031b161c19169055838080612159565b8181015183556020948501946001909301929091019061213e565b0151905083806110d7565b9250600b84016000526020600020906000935b601f19841685106121ff576001945083601f198116106121e6575b505050811b01600b8201556110ef565b015160001960f88460031b161c191690558380806121d6565b818101518355602094850194600190930192909101906121bb565b015190508380611073565b9250600a84016000526020600020906000935b601f198416851061227c576001945083601f19811610612263575b505050811b01600a82015561108b565b015160001960f88460031b161c19169055838080612253565b81810151835560209485019460019093019290910190612238565b01519050838061100f565b9250600984016000526020600020906000935b601f19841685106122f9576001945083601f198116106122e0575b505050811b016009820155611027565b015160001960f88460031b161c191690558380806122d0565b818101518355602094850194600190930192909101906122b5565b015190508380610fab565b9250600884016000526020600020906000935b601f1984168510612376576001945083601f1981161061235d575b505050811b016008820155610fc3565b015160001960f88460031b161c1916905583808061234d565b81810151835560209485019460019093019290910190612332565b015190508380610f47565b9250600784016000526020600020906000935b601f19841685106123f3576001945083601f198116106123da575b505050811b016007820155610f5f565b015160001960f88460031b161c191690558380806123ca565b818101518355602094850194600190930192909101906123af565b015190508380610ee4565b9250600684016000526020600020906000935b601f1984168510612470576001945083601f19811610612457575b505050811b016006820155610efc565b015160001960f88460031b161c19169055838080612447565b8181015183556020948501946001909301929091019061242c565b015190508380610e81565b9250600584016000526020600020906000935b601f19841685106124ed576001945083601f198116106124d4575b505050811b016005820155610e99565b015160001960f88460031b161c191690558380806124c4565b818101518355602094850194600190930192909101906124a9565b015190508380610e1e565b9250600484016000526020600020906000935b601f198416851061256a576001945083601f19811610612551575b505050811b016004820155610e36565b015160001960f88460031b161c19169055838080612541565b81810151835560209485019460019093019290910190612526565b015190508380610dbb565b9250600384016000526020600020906000935b601f19841685106125e7576001945083601f198116106125ce575b505050811b016003820155610dd3565b015160001960f88460031b161c191690558380806125be565b818101518355602094850194600190930192909101906125a3565b015190508380610d58565b9250600284016000526020600020906000935b601f1984168510612664576001945083601f1981161061264b575b505050811b016002820155610d70565b015160001960f88460031b161c1916905583808061263b565b81810151835560209485019460019093019290910190612620565b015190508380610cf5565b9250600184016000526020600020906000935b601f19841685106126e1576001945083601f198116106126c8575b505050811b016001820155610d0d565b015160001960f88460031b161c191690558380806126b8565b8181015183556020948501946001909301929091019061269d565b015190508380610c95565b9250836000526020600020906000935b601f1984168510612758576001945083601f1981161061273f575b505050811b018155610caa565b015160001960f88460031b161c19169055838080612732565b81810151835560209485019460019093019290910190612717565b60405162461bcd60e51b815260206004820152600b60248201526a139bdd081cdd195dd85c9960aa1b6044820152606490fd5b34610525576000366003190112610525576020600254604051908152f35b34610525576020366003190112610525576004356001600160401b038111610525576127f4903690600401612fda565b9060405161280181612eaf565b60608152602081016060905260408101606090526060810160609052608081016060905260a081016060905260c081016060905260e08101606090526101008101606090526101208101606090526101408101606090526101608101606090526101808101606090526101a08101606090526101c08101606090526101e08101606090526102008101606090526102208101606090526102408101606090526102608101606090526102808101606090526102a08101606090526102c08101606090526102e081016060905261030081016060905261032001606090528160405192839283378101600181520360200190206040519061290082612eaf565b61290981612eec565b825261291760018201612eec565b602083015261292860028201612eec565b604083015261293960038201612eec565b606083015261294a60048201612eec565b608083015261295b60058201612eec565b60a083015261296c60068201612eec565b60c083015261297d60078201612eec565b60e083015261298e60088201612eec565b6101008301526129a060098201612eec565b6101208301526129b2600a8201612eec565b6101408301526129c4600b8201612eec565b6101608301526129d6600c8201612eec565b6101808301526129e8600d8201612eec565b6101a08301526129fa600e8201612eec565b6101c0830152612a0c600f8201612eec565b6101e0830152612a1e60108201612eec565b610200830152612a3060118201612eec565b610220830152612a4260128201612eec565b610240830152612a5460138201612eec565b610260830152612a6660148201612eec565b610280830152612a7860158201612eec565b6102a0830152612a8a60168201612eec565b6102c0830152612a9c60178201612eec565b6102e0830152612aae60188201612eec565b610300830152601901612ac090612eec565b61032082015260405180916020825280516020830161034090526103608301612ae891612fb5565b6020820151838203601f19016040850152612b039190612fb5565b6040820151838203601f19016060850152612b1e9190612fb5565b6060820151838203601f19016080850152612b399190612fb5565b6080820151838203601f190160a0850152612b549190612fb5565b60a0820151838203601f190160c0850152612b6f9190612fb5565b60c0820151838203601f190160e0850152612b8a9190612fb5565b60e0820151838203601f1901610100850152612ba69190612fb5565b610100820151838203601f1901610120850152612bc39190612fb5565b610120820151838203601f1901610140850152612be09190612fb5565b610140820151838203601f1901610160850152612bfd9190612fb5565b610160820151838203601f1901610180850152612c1a9190612fb5565b610180820151838203601f19016101a0850152612c379190612fb5565b6101a0820151838203601f19016101c0850152612c549190612fb5565b6101c0820151838203601f19016101e0850152612c719190612fb5565b6101e0820151838203601f1901610200850152612c8e9190612fb5565b610200820151838203601f1901610220850152612cab9190612fb5565b610220820151838203601f1901610240850152612cc89190612fb5565b610240820151838203601f1901610260850152612ce59190612fb5565b610260820151838203601f1901610280850152612d029190612fb5565b610280820151838203601f19016102a0850152612d1f9190612fb5565b6102a0820151838203601f19016102c0850152612d3c9190612fb5565b6102c0820151838203601f19016102e0850152612d599190612fb5565b6102e0820151838203601f1901610300850152612d769190612fb5565b610300820151838203601f1901610320850152612d939190612fb5565b90610320015190601f1983820301610340840152612db091612fb5565b0390f35b34610525576000366003190112610525576000546040516001600160a01b039091168152602090f35b346105255760203660031901126105255760043560025481101561052557612e0490612e28565b611ab357612e14612db091612eec565b604051918291602083526020830190612fb5565b600254811015612e5f5760026000527f405787fa12a823e0f2b7631cc41b3ba8828b3321ca811111fa75cd3aa3bb5ace0190600090565b634e487b7160e01b600052603260045260246000fd5b90600182811c92168015612ea5575b6020831014612e8f57565b634e487b7160e01b600052602260045260246000fd5b91607f1691612e84565b61034081019081106001600160401b03821117611a9d57604052565b90601f801991011681019081106001600160401b03821117611a9d57604052565b9060405191826000825492612f0084612e75565b908184526001948581169081600014612f6f5750600114612f2c575b5050612f2a92500383612ecb565b565b9093915060005260209081600020936000915b818310612f57575050612f2a93508201013880612f1c565b85548884018501529485019487945091830191612f3f565b915050612f2a94506020925060ff191682840152151560051b8201013880612f1c565b60005b838110612fa55750506000910152565b8181015183820152602001612f95565b90602091612fce81518092818552858086019101612f92565b601f01601f1916010190565b9181601f84011215610525578235916001600160401b038311610525576020838186019501011161052557565b9291926001600160401b038211611a9d5760405191613030601f8201601f191660200184612ecb565b829481845281830111610525578281602093846000960137010152565b90601f811161305b57505050565b600091825260208220906020601f850160051c83019410613097575b601f0160051c01915b82811061308c57505050565b818155600101613080565b9092508290613077565b908060209392818452848401376000828201840152601f01601f191601019056fea2646970667358221220ca4d4b2e02dad556f8f1ab98607768d7570bda06cb6759406dad94349452594f64736f6c63430008140033","opcodes":"PUSH1 0x80 DUP1 PUSH1 0x40 MSTORE CALLVALUE PUSH2 0x28 JUMPI PUSH1 0x0 DUP1 SLOAD PUSH1 0x1 PUSH1 0x1 PUSH1 0xA0 SHL SUB NOT AND CALLER OR SWAP1 SSTORE PUSH2 0x30F8 SWAP1 DUP2 PUSH2 0x2E DUP3 CODECOPY RETURN JUMPDEST PUSH1 0x0 DUP1 REVERT INVALID PUSH2 0x960 PUSH1 0x40 MSTORE PUSH1 0x4 CALLDATASIZE LT ISZERO PUSH2 0x13 JUMPI PUSH1 0x0 DUP1 REVERT JUMPDEST PUSH1 0x0 CALLDATALOAD PUSH1 0xE0 SHR DUP1 PUSH4 0xCB6AAF1 EQ PUSH2 0x2DDD JUMPI DUP1 PUSH4 0x637EEA19 EQ PUSH2 0x2DB4 JUMPI DUP1 PUSH4 0x83361522 EQ PUSH2 0x27C4 JUMPI DUP1 PUSH4 0xC212D16B EQ PUSH2 0x27A6 JUMPI DUP1 PUSH4 0xCF49234A EQ PUSH2 0x52A JUMPI PUSH4 0xDBC21424 EQ PUSH2 0x5F JUMPI PUSH1 0x0 DUP1 REVERT JUMPDEST CALLVALUE PUSH2 0x525 JUMPI PUSH1 0x20 CALLDATASIZE PUSH1 0x3 NOT ADD SLT PUSH2 0x525 JUMPI PUSH1 0x4 CALLDATALOAD PUSH1 0x1 PUSH1 0x1 PUSH1 0x40 SHL SUB DUP2 GT PUSH2 0x525 JUMPI CALLDATASIZE PUSH1 0x23 DUP3 ADD SLT ISZERO PUSH2 0x525 JUMPI CALLDATASIZE DUP2 PUSH1 0x4 ADD CALLDATALOAD SWAP2 PUSH1 0x24 ADD SWAP2 PUSH2 0xA0 SWAP3 PUSH2 0x3007 JUMP JUMPDEST PUSH1 0x40 MLOAD DUP2 DUP2 DUP1 SWAP4 MLOAD PUSH1 0x20 DUP2 SWAP4 ADD SWAP2 PUSH2 0xB7 SWAP3 PUSH2 0x2F92 JUMP JUMPDEST DUP2 ADD PUSH1 0x1 DUP2 MSTORE SUB PUSH1 0x20 ADD SWAP1 KECCAK256 DUP1 PUSH2 0x500 MSTORE PUSH2 0xD1 SWAP1 PUSH2 0x2EEC JUMP JUMPDEST PUSH2 0x500 MLOAD PUSH1 0x1 ADD PUSH2 0xE1 SWAP1 PUSH2 0x2EEC JUMP JUMPDEST PUSH2 0x340 MSTORE PUSH2 0x500 MLOAD PUSH1 0x2 ADD PUSH2 0xF5 SWAP1 PUSH2 0x2EEC JUMP JUMPDEST PUSH2 0x6A0 MSTORE PUSH2 0x500 MLOAD PUSH1 0x3 ADD PUSH2 0x109 SWAP1 PUSH2 0x2EEC JUMP JUMPDEST PUSH2 0x100 MSTORE PUSH2 0x500 MLOAD PUSH1 0x4 ADD PUSH2 0x11D SWAP1 PUSH2 0x2EEC JUMP JUMPDEST PUSH2 0x500 MLOAD PUSH1 0x5 ADD PUSH2 0x12D SWAP1 PUSH2 0x2EEC JUMP JUMPDEST PUSH2 0x500 MLOAD PUSH1 0x6 ADD PUSH2 0x13D SWAP1 PUSH2 0x2EEC JUMP JUMPDEST PUSH2 0x500 MLOAD PUSH1 0x7 ADD PUSH2 0x14D SWAP1 PUSH2 0x2EEC JUMP JUMPDEST PUSH2 0x500 MLOAD PUSH1 0x8 ADD PUSH2 0x15D SWAP1 PUSH2 0x2EEC JUMP JUMPDEST PUSH2 0x500 MLOAD PUSH1 0x9 ADD PUSH2 0x16D SWAP1 PUSH2 0x2EEC JUMP JUMPDEST PUSH2 0x500 MLOAD PUSH1 0xA ADD PUSH2 0x17D SWAP1 PUSH2 0x2EEC JUMP JUMPDEST SWAP2 PUSH2 0x500 MLOAD PUSH1 0xB ADD PUSH2 0x18E SWAP1 PUSH2 0x2EEC JUMP JUMPDEST SWAP4 PUSH2 0x500 MLOAD PUSH1 0xC ADD PUSH2 0x19F SWAP1 PUSH2 0x2EEC JUMP JUMPDEST SWAP6 PUSH2 0x500 MLOAD PUSH1 0xD ADD PUSH2 0x1B0 SWAP1 PUSH2 0x2EEC JUMP JUMPDEST SWAP8 PUSH2 0x500 MLOAD PUSH1 0xE ADD PUSH2 0x1C1 SWAP1 PUSH2 0x2EEC JUMP JUMPDEST SWAP10 PUSH2 0x500 MLOAD PUSH1 0xF ADD PUSH2 0x1D2 SWAP1 PUSH2 0x2EEC JUMP JUMPDEST SWAP12 PUSH2 0x500 MLOAD PUSH1 0x10 ADD PUSH2 0x1E3 SWAP1 PUSH2 0x2EEC JUMP JUMPDEST PUSH2 0x460 MSTORE PUSH2 0x500 MLOAD PUSH1 0x11 ADD PUSH2 0x1F7 SWAP1 PUSH2 0x2EEC JUMP JUMPDEST PUSH2 0x600 MSTORE PUSH2 0x500 MLOAD PUSH1 0x12 ADD PUSH2 0x20B SWAP1 PUSH2 0x2EEC JUMP JUMPDEST PUSH2 0x280 MSTORE PUSH2 0x500 MLOAD PUSH1 0x13 ADD PUSH2 0x21F SWAP1 PUSH2 0x2EEC JUMP JUMPDEST PUSH2 0x5C0 MSTORE PUSH2 0x500 MLOAD PUSH1 0x14 ADD PUSH2 0x233 SWAP1 PUSH2 0x2EEC JUMP JUMPDEST PUSH2 0x860 MSTORE PUSH2 0x500 MLOAD PUSH1 0x15 ADD PUSH2 0x247 SWAP1 PUSH2 0x2EEC JUMP JUMPDEST PUSH2 0x720 MSTORE PUSH2 0x500 MLOAD PUSH1 0x16 ADD PUSH2 0x25B SWAP1 PUSH2 0x2EEC JUMP JUMPDEST PUSH2 0x580 MSTORE PUSH2 0x500 MLOAD PUSH1 0x17 ADD PUSH2 0x26F SWAP1 PUSH2 0x2EEC JUMP JUMPDEST PUSH2 0x8A0 MSTORE PUSH2 0x500 MLOAD PUSH1 0x18 ADD PUSH2 0x283 SWAP1 PUSH2 0x2EEC JUMP JUMPDEST PUSH2 0x820 MSTORE PUSH2 0x500 MLOAD PUSH1 0x19 ADD PUSH2 0x297 SWAP1 PUSH2 0x2EEC JUMP JUMPDEST PUSH2 0x620 MSTORE PUSH1 0x40 MLOAD DUP1 PUSH2 0x200 MSTORE PUSH2 0x340 SWAP1 MSTORE PUSH2 0x200 MLOAD PUSH2 0x340 ADD PUSH2 0x2B9 SWAP2 PUSH2 0x2FB5 JUMP JUMPDEST PUSH2 0x200 MLOAD DUP1 DUP3 SUB SWAP1 PUSH1 0x20 ADD MSTORE PUSH2 0x340 MLOAD SWAP1 PUSH2 0x2D3 SWAP2 PUSH2 0x2FB5 JUMP JUMPDEST PUSH2 0x200 MLOAD DUP1 DUP3 SUB SWAP1 PUSH1 0x40 ADD MSTORE PUSH2 0x6A0 MLOAD SWAP1 PUSH2 0x2ED SWAP2 PUSH2 0x2FB5 JUMP JUMPDEST PUSH2 0x200 MLOAD DUP1 DUP3 SUB SWAP1 PUSH1 0x60 ADD MSTORE PUSH2 0x100 MLOAD SWAP1 PUSH2 0x307 SWAP2 PUSH2 0x2FB5 JUMP JUMPDEST PUSH2 0x200 MLOAD DUP1 DUP3 SUB SWAP1 PUSH1 0x80 ADD MSTORE PUSH2 0x31C SWAP2 PUSH2 0x2FB5 JUMP JUMPDEST PUSH2 0x200 MLOAD DUP1 DUP3 SUB SWAP1 PUSH1 0xA0 ADD MSTORE PUSH2 0x331 SWAP2 PUSH2 0x2FB5 JUMP JUMPDEST PUSH2 0x200 MLOAD DUP1 DUP3 SUB SWAP1 PUSH1 0xC0 ADD MSTORE PUSH2 0x346 SWAP2 PUSH2 0x2FB5 JUMP JUMPDEST PUSH2 0x200 MLOAD DUP1 DUP3 SUB SWAP1 PUSH1 0xE0 ADD MSTORE PUSH2 0x35B SWAP2 PUSH2 0x2FB5 JUMP JUMPDEST PUSH2 0x200 MLOAD DUP1 DUP3 SUB SWAP1 PUSH2 0x100 ADD MSTORE PUSH2 0x371 SWAP2 PUSH2 0x2FB5 JUMP JUMPDEST PUSH2 0x200 MLOAD DUP1 DUP3 SUB SWAP1 PUSH2 0x120 ADD MSTORE PUSH2 0x387 SWAP2 PUSH2 0x2FB5 JUMP JUMPDEST PUSH2 0x200 MLOAD DUP1 DUP3 SUB SWAP1 PUSH2 0x140 ADD MSTORE PUSH2 0x39D SWAP2 PUSH2 0x2FB5 JUMP JUMPDEST PUSH2 0x200 MLOAD DUP1 DUP3 SUB SWAP1 PUSH2 0x160 ADD MSTORE PUSH2 0x3B3 SWAP2 PUSH2 0x2FB5 JUMP JUMPDEST PUSH2 0x200 MLOAD DUP1 DUP3 SUB SWAP1 PUSH2 0x180 ADD MSTORE PUSH2 0x3C9 SWAP2 PUSH2 0x2FB5 JUMP JUMPDEST PUSH2 0x200 MLOAD DUP1 DUP3 SUB SWAP1 PUSH2 0x1A0 ADD MSTORE PUSH2 0x3DF SWAP2 PUSH2 0x2FB5 JUMP JUMPDEST PUSH2 0x200 MLOAD DUP1 DUP3 SUB SWAP1 PUSH2 0x1C0 ADD MSTORE PUSH2 0x3F5 SWAP2 PUSH2 0x2FB5 JUMP JUMPDEST PUSH2 0x200 MLOAD DUP1 DUP3 SUB SWAP1 PUSH2 0x1E0 ADD MSTORE PUSH2 0x40B SWAP2 PUSH2 0x2FB5 JUMP JUMPDEST PUSH2 0x200 MLOAD DUP1 DUP3 SUB SWAP1 PUSH2 0x200 ADD MSTORE PUSH2 0x460 MLOAD SWAP1 PUSH2 0x426 SWAP2 PUSH2 0x2FB5 JUMP JUMPDEST PUSH2 0x200 MLOAD DUP1 DUP3 SUB SWAP1 PUSH2 0x220 ADD MSTORE PUSH2 0x600 MLOAD SWAP1 PUSH2 0x441 SWAP2 PUSH2 0x2FB5 JUMP JUMPDEST PUSH2 0x200 MLOAD DUP1 DUP3 SUB SWAP1 PUSH2 0x240 ADD MSTORE PUSH2 0x280 MLOAD SWAP1 PUSH2 0x45C SWAP2 PUSH2 0x2FB5 JUMP JUMPDEST PUSH2 0x200 MLOAD DUP1 DUP3 SUB SWAP1 PUSH2 0x260 ADD MSTORE PUSH2 0x5C0 MLOAD SWAP1 PUSH2 0x477 SWAP2 PUSH2 0x2FB5 JUMP JUMPDEST PUSH2 0x200 MLOAD DUP1 DUP3 SUB SWAP1 PUSH2 0x280 ADD MSTORE PUSH2 0x860 MLOAD SWAP1 PUSH2 0x492 SWAP2 PUSH2 0x2FB5 JUMP JUMPDEST PUSH2 0x200 MLOAD DUP1 DUP3 SUB SWAP1 PUSH2 0x2A0 ADD MSTORE PUSH2 0x720 MLOAD SWAP1 PUSH2 0x4AD SWAP2 PUSH2 0x2FB5 JUMP JUMPDEST PUSH2 0x200 MLOAD DUP1 DUP3 SUB SWAP1 PUSH2 0x2C0 ADD MSTORE PUSH2 0x580 MLOAD SWAP1 PUSH2 0x4C8 SWAP2 PUSH2 0x2FB5 JUMP JUMPDEST PUSH2 0x200 MLOAD DUP1 DUP3 SUB SWAP1 PUSH2 0x2E0 ADD MSTORE PUSH2 0x8A0 MLOAD SWAP1 PUSH2 0x4E3 SWAP2 PUSH2 0x2FB5 JUMP JUMPDEST PUSH2 0x200 MLOAD DUP1 DUP3 SUB SWAP1 PUSH2 0x300 ADD MSTORE PUSH2 0x820 MLOAD SWAP1 PUSH2 0x4FE SWAP2 PUSH2 0x2FB5 JUMP JUMPDEST PUSH2 0x200 MLOAD DUP1 DUP3 SUB SWAP1 PUSH2 0x320 ADD MSTORE PUSH2 0x200 MLOAD SWAP1 PUSH2 0x620 MLOAD SWAP1 PUSH2 0x51E SWAP2 PUSH2 0x2FB5 JUMP JUMPDEST SUB PUSH2 0x200 MLOAD RETURN JUMPDEST PUSH1 0x0 DUP1 REVERT JUMPDEST CALLVALUE PUSH2 0x525 JUMPI PUSH2 0x360 CALLDATASIZE PUSH1 0x3 NOT ADD SLT PUSH2 0x525 JUMPI PUSH1 0x4 CALLDATALOAD PUSH1 0x1 PUSH1 0x1 PUSH1 0x40 SHL SUB DUP2 GT PUSH2 0x525 JUMPI PUSH2 0x55B SWAP1 CALLDATASIZE SWAP1 PUSH1 0x4 ADD PUSH2 0x2FDA JUMP JUMPDEST PUSH2 0x3C0 MSTORE PUSH2 0x2E0 MSTORE PUSH1 0x24 CALLDATALOAD PUSH1 0x1 PUSH1 0x1 PUSH1 0x40 SHL SUB DUP2 GT PUSH2 0x525 JUMPI PUSH2 0x582 SWAP1 CALLDATASIZE SWAP1 PUSH1 0x4 ADD PUSH2 0x2FDA JUMP JUMPDEST PUSH2 0x8C0 MSTORE PUSH2 0x940 MSTORE PUSH1 0x44 CALLDATALOAD PUSH1 0x1 PUSH1 0x1 PUSH1 0x40 SHL SUB DUP2 GT PUSH2 0x525 JUMPI PUSH2 0x5A9 SWAP1 CALLDATASIZE SWAP1 PUSH1 0x4 ADD PUSH2 0x2FDA JUMP JUMPDEST PUSH2 0x160 MSTORE PUSH1 0x80 MSTORE PUSH1 0x64 CALLDATALOAD PUSH1 0x1 PUSH1 0x1 PUSH1 0x40 SHL SUB DUP2 GT PUSH2 0x525 JUMPI PUSH2 0x5CF SWAP1 CALLDATASIZE SWAP1 PUSH1 0x4 ADD PUSH2 0x2FDA JUMP JUMPDEST PUSH2 0x1C0 MSTORE PUSH2 0x560 MSTORE PUSH1 0x1 PUSH1 0x1 PUSH1 0x40 SHL SUB PUSH1 0x84 CALLDATALOAD GT PUSH2 0x525 JUMPI PUSH2 0x5F6 CALLDATASIZE PUSH1 0x84 CALLDATALOAD PUSH1 0x4 ADD PUSH2 0x2FDA JUMP JUMPDEST PUSH2 0x380 MSTORE PUSH2 0x8E0 MSTORE PUSH1 0x1 PUSH1 0x1 PUSH1 0x40 SHL SUB PUSH1 0xA4 CALLDATALOAD GT PUSH2 0x525 JUMPI PUSH2 0x61D CALLDATASIZE PUSH1 0xA4 CALLDATALOAD PUSH1 0x4 ADD PUSH2 0x2FDA JUMP JUMPDEST PUSH2 0x880 MSTORE PUSH2 0x1A0 MSTORE PUSH1 0x1 PUSH1 0x1 PUSH1 0x40 SHL SUB PUSH1 0xC4 CALLDATALOAD GT PUSH2 0x525 JUMPI PUSH2 0x644 CALLDATASIZE PUSH1 0xC4 CALLDATALOAD PUSH1 0x4 ADD PUSH2 0x2FDA JUMP JUMPDEST PUSH2 0x3A0 MSTORE PUSH2 0x840 MSTORE PUSH1 0x1 PUSH1 0x1 PUSH1 0x40 SHL SUB PUSH1 0xE4 CALLDATALOAD GT PUSH2 0x525 JUMPI PUSH2 0x66B CALLDATASIZE PUSH1 0xE4 CALLDATALOAD PUSH1 0x4 ADD PUSH2 0x2FDA JUMP JUMPDEST PUSH2 0x6C0 MSTORE PUSH2 0x120 MSTORE PUSH1 0x1 PUSH1 0x1 PUSH1 0x40 SHL SUB PUSH2 0x104 CALLDATALOAD GT PUSH2 0x525 JUMPI PUSH2 0x694 CALLDATASIZE PUSH2 0x104 CALLDATALOAD PUSH1 0x4 ADD PUSH2 0x2FDA JUMP JUMPDEST PUSH2 0x440 MSTORE PUSH2 0x180 MSTORE PUSH1 0x1 PUSH1 0x1 PUSH1 0x40 SHL SUB PUSH2 0x124 CALLDATALOAD GT PUSH2 0x525 JUMPI PUSH2 0x6BD CALLDATASIZE PUSH2 0x124 CALLDATALOAD PUSH1 0x4 ADD PUSH2 0x2FDA JUMP JUMPDEST PUSH2 0x7C0 MSTORE PUSH2 0x260 MSTORE PUSH1 0x1 PUSH1 0x1 PUSH1 0x40 SHL SUB PUSH2 0x144 CALLDATALOAD GT PUSH2 0x525 JUMPI PUSH2 0x6E6 CALLDATASIZE PUSH2 0x144 CALLDATALOAD PUSH1 0x4 ADD PUSH2 0x2FDA JUMP JUMPDEST PUSH2 0x4C0 MSTORE PUSH2 0x3E0 MSTORE PUSH1 0x1 PUSH1 0x1 PUSH1 0x40 SHL SUB PUSH2 0x164 CALLDATALOAD GT PUSH2 0x525 JUMPI PUSH2 0x70F CALLDATASIZE PUSH2 0x164 CALLDATALOAD PUSH1 0x4 ADD PUSH2 0x2FDA JUMP JUMPDEST PUSH2 0x480 MSTORE PUSH2 0x920 MSTORE PUSH1 0x1 PUSH1 0x1 PUSH1 0x40 SHL SUB PUSH2 0x184 CALLDATALOAD GT PUSH2 0x525 JUMPI PUSH2 0x738 CALLDATASIZE PUSH2 0x184 CALLDATALOAD PUSH1 0x4 ADD PUSH2 0x2FDA JUMP JUMPDEST PUSH1 0xC0 MSTORE PUSH2 0x780 MSTORE PUSH1 0x1 PUSH1 0x1 PUSH1 0x40 SHL SUB PUSH2 0x1A4 CALLDATALOAD GT PUSH2 0x525 JUMPI PUSH2 0x760 CALLDATASIZE PUSH2 0x1A4 CALLDATALOAD PUSH1 0x4 ADD PUSH2 0x2FDA JUMP JUMPDEST PUSH2 0x320 MSTORE PUSH1 0xE0 MSTORE PUSH1 0x1 PUSH1 0x1 PUSH1 0x40 SHL SUB PUSH2 0x1C4 CALLDATALOAD GT PUSH2 0x525 JUMPI PUSH2 0x788 CALLDATASIZE PUSH2 0x1C4 CALLDATALOAD PUSH1 0x4 ADD PUSH2 0x2FDA JUMP JUMPDEST PUSH2 0x4E0 MSTORE PUSH2 0x5A0 MSTORE PUSH1 0x1 PUSH1 0x1 PUSH1 0x40 SHL SUB PUSH2 0x1E4 CALLDATALOAD GT PUSH2 0x525 JUMPI PUSH2 0x7B1 CALLDATASIZE PUSH2 0x1E4 CALLDATALOAD PUSH1 0x4 ADD PUSH2 0x2FDA JUMP JUMPDEST PUSH2 0x7E0 MSTORE PUSH2 0x240 MSTORE PUSH1 0x1 PUSH1 0x1 PUSH1 0x40 SHL SUB PUSH2 0x204 CALLDATALOAD GT PUSH2 0x525 JUMPI PUSH2 0x7DA CALLDATASIZE PUSH2 0x204 CALLDATALOAD PUSH1 0x4 ADD PUSH2 0x2FDA JUMP JUMPDEST PUSH2 0x140 MSTORE PUSH2 0x360 MSTORE PUSH1 0x1 PUSH1 0x1 PUSH1 0x40 SHL SUB PUSH2 0x224 CALLDATALOAD GT PUSH2 0x525 JUMPI PUSH2 0x803 CALLDATASIZE PUSH2 0x224 CALLDATALOAD PUSH1 0x4 ADD PUSH2 0x2FDA JUMP JUMPDEST PUSH2 0x2A0 MSTORE PUSH2 0x760 MSTORE PUSH1 0x1 PUSH1 0x1 PUSH1 0x40 SHL SUB PUSH2 0x244 CALLDATALOAD GT PUSH2 0x525 JUMPI PUSH2 0x82C CALLDATASIZE PUSH2 0x244 CALLDATALOAD PUSH1 0x4 ADD PUSH2 0x2FDA JUMP JUMPDEST PUSH2 0x740 MSTORE PUSH2 0x800 MSTORE PUSH1 0x1 PUSH1 0x1 PUSH1 0x40 SHL SUB PUSH2 0x264 CALLDATALOAD GT PUSH2 0x525 JUMPI PUSH2 0x855 CALLDATASIZE PUSH2 0x264 CALLDATALOAD PUSH1 0x4 ADD PUSH2 0x2FDA JUMP JUMPDEST PUSH2 0x5E0 MSTORE PUSH2 0x1E0 MSTORE PUSH1 0x1 PUSH1 0x1 PUSH1 0x40 SHL SUB PUSH2 0x284 CALLDATALOAD GT PUSH2 0x525 JUMPI PUSH2 0x87E CALLDATASIZE PUSH2 0x284 CALLDATALOAD PUSH1 0x4 ADD PUSH2 0x2FDA JUMP JUMPDEST PUSH2 0x6E0 MSTORE PUSH2 0x700 MSTORE PUSH1 0x1 PUSH1 0x1 PUSH1 0x40 SHL SUB PUSH2 0x2A4 CALLDATALOAD GT PUSH2 0x525 JUMPI PUSH2 0x8A7 CALLDATASIZE PUSH2 0x2A4 CALLDATALOAD PUSH1 0x4 ADD PUSH2 0x2FDA JUMP JUMPDEST PUSH2 0x420 MSTORE PUSH2 0x660 MSTORE PUSH1 0x1 PUSH1 0x1 PUSH1 0x40 SHL SUB PUSH2 0x2C4 CALLDATALOAD GT PUSH2 0x525 JUMPI PUSH2 0x8D0 CALLDATASIZE PUSH2 0x2C4 CALLDATALOAD PUSH1 0x4 ADD PUSH2 0x2FDA JUMP JUMPDEST PUSH2 0x540 MSTORE PUSH2 0x7A0 MSTORE PUSH1 0x1 PUSH1 0x1 PUSH1 0x40 SHL SUB PUSH2 0x2E4 CALLDATALOAD GT PUSH2 0x525 JUMPI PUSH2 0x8F9 CALLDATASIZE PUSH2 0x2E4 CALLDATALOAD PUSH1 0x4 ADD PUSH2 0x2FDA JUMP JUMPDEST PUSH2 0x640 MSTORE PUSH2 0x400 MSTORE PUSH1 0x1 PUSH1 0x1 PUSH1 0x40 SHL SUB PUSH2 0x304 CALLDATALOAD GT PUSH2 0x525 JUMPI PUSH2 0x922 CALLDATASIZE PUSH2 0x304 CALLDATALOAD PUSH1 0x4 ADD PUSH2 0x2FDA JUMP JUMPDEST PUSH2 0x900 MSTORE PUSH2 0x680 MSTORE PUSH1 0x1 PUSH1 0x1 PUSH1 0x40 SHL SUB PUSH2 0x324 CALLDATALOAD GT PUSH2 0x525 JUMPI PUSH2 0x94B CALLDATASIZE PUSH2 0x324 CALLDATALOAD PUSH1 0x4 ADD PUSH2 0x2FDA JUMP JUMPDEST PUSH2 0x220 MSTORE PUSH2 0x2C0 MSTORE PUSH1 0x1 PUSH1 0x1 PUSH1 0x40 SHL SUB PUSH2 0x344 CALLDATALOAD GT PUSH2 0x525 JUMPI PUSH2 0x974 CALLDATASIZE PUSH2 0x344 CALLDATALOAD PUSH1 0x4 ADD PUSH2 0x2FDA JUMP JUMPDEST PUSH1 0xA0 MSTORE PUSH2 0x4A0 MSTORE PUSH1 0x0 SLOAD PUSH1 0x1 PUSH1 0x1 PUSH1 0xA0 SHL SUB AND CALLER SUB PUSH2 0x2773 JUMPI PUSH2 0x99D PUSH1 0x40 MLOAD DUP1 PUSH2 0x300 MSTORE PUSH2 0x2EAF JUMP JUMPDEST PUSH2 0x9AE CALLDATASIZE PUSH2 0x8C0 MLOAD PUSH2 0x940 MLOAD PUSH2 0x3007 JUMP JUMPDEST PUSH2 0x300 MLOAD MSTORE PUSH2 0x9C3 CALLDATASIZE PUSH2 0x160 MLOAD PUSH1 0x80 MLOAD PUSH2 0x3007 JUMP JUMPDEST PUSH1 0x20 PUSH2 0x300 MLOAD ADD MSTORE PUSH2 0x9DC CALLDATASIZE PUSH2 0x1C0 MLOAD PUSH2 0x560 MLOAD PUSH2 0x3007 JUMP JUMPDEST PUSH1 0x40 PUSH2 0x300 MLOAD ADD MSTORE PUSH2 0x9F5 CALLDATASIZE PUSH2 0x380 MLOAD PUSH2 0x8E0 MLOAD PUSH2 0x3007 JUMP JUMPDEST PUSH1 0x60 PUSH2 0x300 MLOAD ADD MSTORE PUSH2 0xA0E CALLDATASIZE PUSH2 0x880 MLOAD PUSH2 0x1A0 MLOAD PUSH2 0x3007 JUMP JUMPDEST PUSH1 0x80 PUSH2 0x300 MLOAD ADD MSTORE PUSH2 0xA27 CALLDATASIZE PUSH2 0x3A0 MLOAD PUSH2 0x840 MLOAD PUSH2 0x3007 JUMP JUMPDEST PUSH1 0xA0 PUSH2 0x300 MLOAD ADD MSTORE PUSH2 0xA40 CALLDATASIZE PUSH2 0x6C0 MLOAD PUSH2 0x120 MLOAD PUSH2 0x3007 JUMP JUMPDEST PUSH1 0xC0 PUSH2 0x300 MLOAD ADD MSTORE PUSH2 0xA59 CALLDATASIZE PUSH2 0x440 MLOAD PUSH2 0x180 MLOAD PUSH2 0x3007 JUMP JUMPDEST PUSH1 0xE0 PUSH2 0x300 MLOAD ADD MSTORE PUSH2 0xA72 CALLDATASIZE PUSH2 0x7C0 MLOAD PUSH2 0x260 MLOAD PUSH2 0x3007 JUMP JUMPDEST PUSH2 0x100 PUSH2 0x300 MLOAD ADD MSTORE PUSH2 0xA8C CALLDATASIZE PUSH2 0x4C0 MLOAD PUSH2 0x3E0 MLOAD PUSH2 0x3007 JUMP JUMPDEST PUSH2 0x120 PUSH2 0x300 MLOAD ADD MSTORE PUSH2 0xAA6 CALLDATASIZE PUSH2 0x480 MLOAD PUSH2 0x920 MLOAD PUSH2 0x3007 JUMP JUMPDEST PUSH2 0x140 PUSH2 0x300 MLOAD ADD MSTORE PUSH2 0xABF CALLDATASIZE PUSH1 0xC0 MLOAD PUSH2 0x780 MLOAD PUSH2 0x3007 JUMP JUMPDEST PUSH2 0x160 PUSH2 0x300 MLOAD ADD MSTORE PUSH2 0xAD8 CALLDATASIZE PUSH2 0x320 MLOAD PUSH1 0xE0 MLOAD PUSH2 0x3007 JUMP JUMPDEST PUSH2 0x180 PUSH2 0x300 MLOAD ADD MSTORE PUSH2 0xAF2 CALLDATASIZE PUSH2 0x4E0 MLOAD PUSH2 0x5A0 MLOAD PUSH2 0x3007 JUMP JUMPDEST PUSH2 0x1A0 PUSH2 0x300 MLOAD ADD MSTORE PUSH2 0xB0C CALLDATASIZE PUSH2 0x7E0 MLOAD PUSH2 0x240 MLOAD PUSH2 0x3007 JUMP JUMPDEST PUSH2 0x1C0 PUSH2 0x300 MLOAD ADD MSTORE PUSH2 0xB26 CALLDATASIZE PUSH2 0x140 MLOAD PUSH2 0x360 MLOAD PUSH2 0x3007 JUMP JUMPDEST PUSH2 0x1E0 PUSH2 0x300 MLOAD ADD MSTORE PUSH2 0xB40 CALLDATASIZE PUSH2 0x2A0 MLOAD PUSH2 0x760 MLOAD PUSH2 0x3007 JUMP JUMPDEST PUSH2 0x200 PUSH2 0x300 MLOAD ADD MSTORE PUSH2 0xB5A CALLDATASIZE PUSH2 0x740 MLOAD PUSH2 0x800 MLOAD PUSH2 0x3007 JUMP JUMPDEST PUSH2 0x220 PUSH2 0x300 MLOAD ADD MSTORE PUSH2 0xB74 CALLDATASIZE PUSH2 0x5E0 MLOAD PUSH2 0x1E0 MLOAD PUSH2 0x3007 JUMP JUMPDEST PUSH2 0x240 PUSH2 0x300 MLOAD ADD MSTORE PUSH2 0xB8E CALLDATASIZE PUSH2 0x6E0 MLOAD PUSH2 0x700 MLOAD PUSH2 0x3007 JUMP JUMPDEST PUSH2 0x260 PUSH2 0x300 MLOAD ADD MSTORE PUSH2 0xBA8 CALLDATASIZE PUSH2 0x420 MLOAD PUSH2 0x660 MLOAD PUSH2 0x3007 JUMP JUMPDEST PUSH2 0x280 PUSH2 0x300 MLOAD ADD MSTORE PUSH2 0xBC2 CALLDATASIZE PUSH2 0x540 MLOAD PUSH2 0x7A0 MLOAD PUSH2 0x3007 JUMP JUMPDEST PUSH2 0x2A0 PUSH2 0x300 MLOAD ADD MSTORE PUSH2 0xBDC CALLDATASIZE PUSH2 0x640 MLOAD PUSH2 0x400 MLOAD PUSH2 0x3007 JUMP JUMPDEST PUSH2 0x2C0 PUSH2 0x300 MLOAD ADD MSTORE PUSH2 0xBF6 CALLDATASIZE PUSH2 0x900 MLOAD PUSH2 0x680 MLOAD PUSH2 0x3007 JUMP JUMPDEST PUSH2 0x2E0 PUSH2 0x300 MLOAD ADD MSTORE PUSH2 0xC10 CALLDATASIZE PUSH2 0x220 MLOAD PUSH2 0x2C0 MLOAD PUSH2 0x3007 JUMP JUMPDEST PUSH2 0x300 DUP1 MLOAD ADD MSTORE PUSH2 0xC27 CALLDATASIZE PUSH1 0xA0 MLOAD PUSH2 0x4A0 MLOAD PUSH2 0x3007 JUMP JUMPDEST PUSH2 0x320 PUSH2 0x300 MLOAD ADD MSTORE PUSH1 0x40 MLOAD PUSH2 0x3C0 MLOAD PUSH2 0x2E0 MLOAD DUP3 CALLDATACOPY PUSH1 0x1 PUSH2 0x3C0 MLOAD DUP3 ADD MSTORE PUSH1 0x20 DUP2 PUSH2 0x3C0 MLOAD DUP2 ADD SUB ADD SWAP1 KECCAK256 PUSH2 0x300 MLOAD MLOAD DUP1 MLOAD SWAP1 PUSH1 0x1 PUSH1 0x1 PUSH1 0x40 SHL SUB DUP3 GT PUSH2 0x1A9D JUMPI DUP2 SWAP1 PUSH2 0xC7F DUP3 PUSH2 0xC79 DUP7 SLOAD PUSH2 0x2E75 JUMP JUMPDEST DUP7 PUSH2 0x304D JUMP JUMPDEST PUSH1 0x20 SWAP1 PUSH1 0x1F DUP4 GT PUSH1 0x1 EQ PUSH2 0x2707 JUMPI PUSH1 0x0 SWAP3 PUSH2 0x26FC JUMPI JUMPDEST POP POP DUP2 PUSH1 0x1 SHL SWAP2 PUSH1 0x0 NOT SWAP1 PUSH1 0x3 SHL SHR NOT AND OR DUP2 SSTORE JUMPDEST PUSH1 0x20 PUSH2 0x300 MLOAD ADD MLOAD DUP1 MLOAD SWAP1 PUSH1 0x1 PUSH1 0x1 PUSH1 0x40 SHL SUB DUP3 GT PUSH2 0x1A9D JUMPI DUP2 SWAP1 PUSH2 0xCDF DUP3 PUSH2 0xCD6 PUSH1 0x1 DUP8 ADD SLOAD PUSH2 0x2E75 JUMP JUMPDEST PUSH1 0x1 DUP8 ADD PUSH2 0x304D JUMP JUMPDEST PUSH1 0x20 SWAP1 PUSH1 0x1F DUP4 GT PUSH1 0x1 EQ PUSH2 0x268A JUMPI PUSH1 0x0 SWAP3 PUSH2 0x267F JUMPI JUMPDEST POP POP DUP2 PUSH1 0x1 SHL SWAP2 PUSH1 0x0 NOT SWAP1 PUSH1 0x3 SHL SHR NOT AND OR PUSH1 0x1 DUP3 ADD SSTORE JUMPDEST PUSH1 0x40 PUSH2 0x300 MLOAD ADD MLOAD DUP1 MLOAD SWAP1 PUSH1 0x1 PUSH1 0x1 PUSH1 0x40 SHL SUB DUP3 GT PUSH2 0x1A9D JUMPI DUP2 SWAP1 PUSH2 0xD42 DUP3 PUSH2 0xD39 PUSH1 0x2 DUP8 ADD SLOAD PUSH2 0x2E75 JUMP JUMPDEST PUSH1 0x2 DUP8 ADD PUSH2 0x304D JUMP JUMPDEST PUSH1 0x20 SWAP1 PUSH1 0x1F DUP4 GT PUSH1 0x1 EQ PUSH2 0x260D JUMPI PUSH1 0x0 SWAP3 PUSH2 0x2602 JUMPI JUMPDEST POP POP DUP2 PUSH1 0x1 SHL SWAP2 PUSH1 0x0 NOT SWAP1 PUSH1 0x3 SHL SHR NOT AND OR PUSH1 0x2 DUP3 ADD SSTORE JUMPDEST PUSH1 0x60 PUSH2 0x300 MLOAD ADD MLOAD DUP1 MLOAD SWAP1 PUSH1 0x1 PUSH1 0x1 PUSH1 0x40 SHL SUB DUP3 GT PUSH2 0x1A9D JUMPI DUP2 SWAP1 PUSH2 0xDA5 DUP3 PUSH2 0xD9C PUSH1 0x3 DUP8 ADD SLOAD PUSH2 0x2E75 JUMP JUMPDEST PUSH1 0x3 DUP8 ADD PUSH2 0x304D JUMP JUMPDEST PUSH1 0x20 SWAP1 PUSH1 0x1F DUP4 GT PUSH1 0x1 EQ PUSH2 0x2590 JUMPI PUSH1 0x0 SWAP3 PUSH2 0x2585 JUMPI JUMPDEST POP POP DUP2 PUSH1 0x1 SHL SWAP2 PUSH1 0x0 NOT SWAP1 PUSH1 0x3 SHL SHR NOT AND OR PUSH1 0x3 DUP3 ADD SSTORE JUMPDEST PUSH1 0x80 PUSH2 0x300 MLOAD ADD MLOAD DUP1 MLOAD SWAP1 PUSH1 0x1 PUSH1 0x1 PUSH1 0x40 SHL SUB DUP3 GT PUSH2 0x1A9D JUMPI DUP2 SWAP1 PUSH2 0xE08 DUP3 PUSH2 0xDFF PUSH1 0x4 DUP8 ADD SLOAD PUSH2 0x2E75 JUMP JUMPDEST PUSH1 0x4 DUP8 ADD PUSH2 0x304D JUMP JUMPDEST PUSH1 0x20 SWAP1 PUSH1 0x1F DUP4 GT PUSH1 0x1 EQ PUSH2 0x2513 JUMPI PUSH1 0x0 SWAP3 PUSH2 0x2508 JUMPI JUMPDEST POP POP DUP2 PUSH1 0x1 SHL SWAP2 PUSH1 0x0 NOT SWAP1 PUSH1 0x3 SHL SHR NOT AND OR PUSH1 0x4 DUP3 ADD SSTORE JUMPDEST PUSH1 0xA0 PUSH2 0x300 MLOAD ADD MLOAD DUP1 MLOAD SWAP1 PUSH1 0x1 PUSH1 0x1 PUSH1 0x40 SHL SUB DUP3 GT PUSH2 0x1A9D JUMPI DUP2 SWAP1 PUSH2 0xE6B DUP3 PUSH2 0xE62 PUSH1 0x5 DUP8 ADD SLOAD PUSH2 0x2E75 JUMP JUMPDEST PUSH1 0x5 DUP8 ADD PUSH2 0x304D JUMP JUMPDEST PUSH1 0x20 SWAP1 PUSH1 0x1F DUP4 GT PUSH1 0x1 EQ PUSH2 0x2496 JUMPI PUSH1 0x0 SWAP3 PUSH2 0x248B JUMPI JUMPDEST POP POP DUP2 PUSH1 0x1 SHL SWAP2 PUSH1 0x0 NOT SWAP1 PUSH1 0x3 SHL SHR NOT AND OR PUSH1 0x5 DUP3 ADD SSTORE JUMPDEST PUSH1 0xC0 PUSH2 0x300 MLOAD ADD MLOAD DUP1 MLOAD SWAP1 PUSH1 0x1 PUSH1 0x1 PUSH1 0x40 SHL SUB DUP3 GT PUSH2 0x1A9D JUMPI DUP2 SWAP1 PUSH2 0xECE DUP3 PUSH2 0xEC5 PUSH1 0x6 DUP8 ADD SLOAD PUSH2 0x2E75 JUMP JUMPDEST PUSH1 0x6 DUP8 ADD PUSH2 0x304D JUMP JUMPDEST PUSH1 0x20 SWAP1 PUSH1 0x1F DUP4 GT PUSH1 0x1 EQ PUSH2 0x2419 JUMPI PUSH1 0x0 SWAP3 PUSH2 0x240E JUMPI JUMPDEST POP POP DUP2 PUSH1 0x1 SHL SWAP2 PUSH1 0x0 NOT SWAP1 PUSH1 0x3 SHL SHR NOT AND OR PUSH1 0x6 DUP3 ADD SSTORE JUMPDEST PUSH1 0xE0 PUSH2 0x300 MLOAD ADD MLOAD DUP1 MLOAD SWAP1 PUSH1 0x1 PUSH1 0x1 PUSH1 0x40 SHL SUB DUP3 GT PUSH2 0x1A9D JUMPI DUP2 SWAP1 PUSH2 0xF31 DUP3 PUSH2 0xF28 PUSH1 0x7 DUP8 ADD SLOAD PUSH2 0x2E75 JUMP JUMPDEST PUSH1 0x7 DUP8 ADD PUSH2 0x304D JUMP JUMPDEST PUSH1 0x20 SWAP1 PUSH1 0x1F DUP4 GT PUSH1 0x1 EQ PUSH2 0x239C JUMPI PUSH1 0x0 SWAP3 PUSH2 0x2391 JUMPI JUMPDEST POP POP DUP2 PUSH1 0x1 SHL SWAP2 PUSH1 0x0 NOT SWAP1 PUSH1 0x3 SHL SHR NOT AND OR PUSH1 0x7 DUP3 ADD SSTORE JUMPDEST PUSH2 0x100 PUSH2 0x300 MLOAD ADD MLOAD DUP1 MLOAD SWAP1 PUSH1 0x1 PUSH1 0x1 PUSH1 0x40 SHL SUB DUP3 GT PUSH2 0x1A9D JUMPI DUP2 SWAP1 PUSH2 0xF95 DUP3 PUSH2 0xF8C PUSH1 0x8 DUP8 ADD SLOAD PUSH2 0x2E75 JUMP JUMPDEST PUSH1 0x8 DUP8 ADD PUSH2 0x304D JUMP JUMPDEST PUSH1 0x20 SWAP1 PUSH1 0x1F DUP4 GT PUSH1 0x1 EQ PUSH2 0x231F JUMPI PUSH1 0x0 SWAP3 PUSH2 0x2314 JUMPI JUMPDEST POP POP DUP2 PUSH1 0x1 SHL SWAP2 PUSH1 0x0 NOT SWAP1 PUSH1 0x3 SHL SHR NOT AND OR PUSH1 0x8 DUP3 ADD SSTORE JUMPDEST PUSH2 0x120 PUSH2 0x300 MLOAD ADD MLOAD DUP1 MLOAD SWAP1 PUSH1 0x1 PUSH1 0x1 PUSH1 0x40 SHL SUB DUP3 GT PUSH2 0x1A9D JUMPI DUP2 SWAP1 PUSH2 0xFF9 DUP3 PUSH2 0xFF0 PUSH1 0x9 DUP8 ADD SLOAD PUSH2 0x2E75 JUMP JUMPDEST PUSH1 0x9 DUP8 ADD PUSH2 0x304D JUMP JUMPDEST PUSH1 0x20 SWAP1 PUSH1 0x1F DUP4 GT PUSH1 0x1 EQ PUSH2 0x22A2 JUMPI PUSH1 0x0 SWAP3 PUSH2 0x2297 JUMPI JUMPDEST POP POP DUP2 PUSH1 0x1 SHL SWAP2 PUSH1 0x0 NOT SWAP1 PUSH1 0x3 SHL SHR NOT AND OR PUSH1 0x9 DUP3 ADD SSTORE JUMPDEST PUSH2 0x140 PUSH2 0x300 MLOAD ADD MLOAD DUP1 MLOAD SWAP1 PUSH1 0x1 PUSH1 0x1 PUSH1 0x40 SHL SUB DUP3 GT PUSH2 0x1A9D JUMPI DUP2 SWAP1 PUSH2 0x105D DUP3 PUSH2 0x1054 PUSH1 0xA DUP8 ADD SLOAD PUSH2 0x2E75 JUMP JUMPDEST PUSH1 0xA DUP8 ADD PUSH2 0x304D JUMP JUMPDEST PUSH1 0x20 SWAP1 PUSH1 0x1F DUP4 GT PUSH1 0x1 EQ PUSH2 0x2225 JUMPI PUSH1 0x0 SWAP3 PUSH2 0x221A JUMPI JUMPDEST POP POP DUP2 PUSH1 0x1 SHL SWAP2 PUSH1 0x0 NOT SWAP1 PUSH1 0x3 SHL SHR NOT AND OR PUSH1 0xA DUP3 ADD SSTORE JUMPDEST PUSH2 0x160 PUSH2 0x300 MLOAD ADD MLOAD DUP1 MLOAD SWAP1 PUSH1 0x1 PUSH1 0x1 PUSH1 0x40 SHL SUB DUP3 GT PUSH2 0x1A9D JUMPI DUP2 SWAP1 PUSH2 0x10C1 DUP3 PUSH2 0x10B8 PUSH1 0xB DUP8 ADD SLOAD PUSH2 0x2E75 JUMP JUMPDEST PUSH1 0xB DUP8 ADD PUSH2 0x304D JUMP JUMPDEST PUSH1 0x20 SWAP1 PUSH1 0x1F DUP4 GT PUSH1 0x1 EQ PUSH2 0x21A8 JUMPI PUSH1 0x0 SWAP3 PUSH2 0x219D JUMPI JUMPDEST POP POP DUP2 PUSH1 0x1 SHL SWAP2 PUSH1 0x0 NOT SWAP1 PUSH1 0x3 SHL SHR NOT AND OR PUSH1 0xB DUP3 ADD SSTORE JUMPDEST PUSH2 0x180 PUSH2 0x300 MLOAD ADD MLOAD DUP1 MLOAD SWAP1 PUSH1 0x1 PUSH1 0x1 PUSH1 0x40 SHL SUB DUP3 GT PUSH2 0x1A9D JUMPI DUP2 SWAP1 PUSH2 0x1125 DUP3 PUSH2 0x111C PUSH1 0xC DUP8 ADD SLOAD PUSH2 0x2E75 JUMP JUMPDEST PUSH1 0xC DUP8 ADD PUSH2 0x304D JUMP JUMPDEST PUSH1 0x20 SWAP1 PUSH1 0x1F DUP4 GT PUSH1 0x1 EQ PUSH2 0x212B JUMPI PUSH1 0x0 SWAP3 PUSH2 0x2120 JUMPI JUMPDEST POP POP DUP2 PUSH1 0x1 SHL SWAP2 PUSH1 0x0 NOT SWAP1 PUSH1 0x3 SHL SHR NOT AND OR PUSH1 0xC DUP3 ADD SSTORE JUMPDEST PUSH2 0x1A0 PUSH2 0x300 MLOAD ADD MLOAD DUP1 MLOAD SWAP1 PUSH1 0x1 PUSH1 0x1 PUSH1 0x40 SHL SUB DUP3 GT PUSH2 0x1A9D JUMPI DUP2 SWAP1 PUSH2 0x1189 DUP3 PUSH2 0x1180 PUSH1 0xD DUP8 ADD SLOAD PUSH2 0x2E75 JUMP JUMPDEST PUSH1 0xD DUP8 ADD PUSH2 0x304D JUMP JUMPDEST PUSH1 0x20 SWAP1 PUSH1 0x1F DUP4 GT PUSH1 0x1 EQ PUSH2 0x20AE JUMPI PUSH1 0x0 SWAP3 PUSH2 0x20A3 JUMPI JUMPDEST POP POP DUP2 PUSH1 0x1 SHL SWAP2 PUSH1 0x0 NOT SWAP1 PUSH1 0x3 SHL SHR NOT AND OR PUSH1 0xD DUP3 ADD SSTORE JUMPDEST PUSH2 0x1C0 PUSH2 0x300 MLOAD ADD MLOAD DUP1 MLOAD SWAP1 PUSH1 0x1 PUSH1 0x1 PUSH1 0x40 SHL SUB DUP3 GT PUSH2 0x1A9D JUMPI DUP2 SWAP1 PUSH2 0x11ED DUP3 PUSH2 0x11E4 PUSH1 0xE DUP8 ADD SLOAD PUSH2 0x2E75 JUMP JUMPDEST PUSH1 0xE DUP8 ADD PUSH2 0x304D JUMP JUMPDEST PUSH1 0x20 SWAP1 PUSH1 0x1F DUP4 GT PUSH1 0x1 EQ PUSH2 0x2031 JUMPI PUSH1 0x0 SWAP3 PUSH2 0x2026 JUMPI JUMPDEST POP POP DUP2 PUSH1 0x1 SHL SWAP2 PUSH1 0x0 NOT SWAP1 PUSH1 0x3 SHL SHR NOT AND OR PUSH1 0xE DUP3 ADD SSTORE JUMPDEST PUSH2 0x1E0 PUSH2 0x300 MLOAD ADD MLOAD DUP1 MLOAD SWAP1 PUSH1 0x1 PUSH1 0x1 PUSH1 0x40 SHL SUB DUP3 GT PUSH2 0x1A9D JUMPI DUP2 SWAP1 PUSH2 0x1251 DUP3 PUSH2 0x1248 PUSH1 0xF DUP8 ADD SLOAD PUSH2 0x2E75 JUMP JUMPDEST PUSH1 0xF DUP8 ADD PUSH2 0x304D JUMP JUMPDEST PUSH1 0x20 SWAP1 PUSH1 0x1F DUP4 GT PUSH1 0x1 EQ PUSH2 0x1FB4 JUMPI PUSH1 0x0 SWAP3 PUSH2 0x1FA9 JUMPI JUMPDEST POP POP DUP2 PUSH1 0x1 SHL SWAP2 PUSH1 0x0 NOT SWAP1 PUSH1 0x3 SHL SHR NOT AND OR PUSH1 0xF DUP3 ADD SSTORE JUMPDEST PUSH2 0x200 PUSH2 0x300 MLOAD ADD MLOAD DUP1 MLOAD SWAP1 PUSH1 0x1 PUSH1 0x1 PUSH1 0x40 SHL SUB DUP3 GT PUSH2 0x1A9D JUMPI DUP2 SWAP1 PUSH2 0x12B5 DUP3 PUSH2 0x12AC PUSH1 0x10 DUP8 ADD SLOAD PUSH2 0x2E75 JUMP JUMPDEST PUSH1 0x10 DUP8 ADD PUSH2 0x304D JUMP JUMPDEST PUSH1 0x20 SWAP1 PUSH1 0x1F DUP4 GT PUSH1 0x1 EQ PUSH2 0x1F37 JUMPI PUSH1 0x0 SWAP3 PUSH2 0x1F2C JUMPI JUMPDEST POP POP DUP2 PUSH1 0x1 SHL SWAP2 PUSH1 0x0 NOT SWAP1 PUSH1 0x3 SHL SHR NOT AND OR PUSH1 0x10 DUP3 ADD SSTORE JUMPDEST PUSH2 0x220 PUSH2 0x300 MLOAD ADD MLOAD DUP1 MLOAD SWAP1 PUSH1 0x1 PUSH1 0x1 PUSH1 0x40 SHL SUB DUP3 GT PUSH2 0x1A9D JUMPI DUP2 SWAP1 PUSH2 0x1319 DUP3 PUSH2 0x1310 PUSH1 0x11 DUP8 ADD SLOAD PUSH2 0x2E75 JUMP JUMPDEST PUSH1 0x11 DUP8 ADD PUSH2 0x304D JUMP JUMPDEST PUSH1 0x20 SWAP1 PUSH1 0x1F DUP4 GT PUSH1 0x1 EQ PUSH2 0x1EBA JUMPI PUSH1 0x0 SWAP3 PUSH2 0x1EAF JUMPI JUMPDEST POP POP DUP2 PUSH1 0x1 SHL SWAP2 PUSH1 0x0 NOT SWAP1 PUSH1 0x3 SHL SHR NOT AND OR PUSH1 0x11 DUP3 ADD SSTORE JUMPDEST PUSH2 0x240 PUSH2 0x300 MLOAD ADD MLOAD DUP1 MLOAD SWAP1 PUSH1 0x1 PUSH1 0x1 PUSH1 0x40 SHL SUB DUP3 GT PUSH2 0x1A9D JUMPI DUP2 SWAP1 PUSH2 0x137D DUP3 PUSH2 0x1374 PUSH1 0x12 DUP8 ADD SLOAD PUSH2 0x2E75 JUMP JUMPDEST PUSH1 0x12 DUP8 ADD PUSH2 0x304D JUMP JUMPDEST PUSH1 0x20 SWAP1 PUSH1 0x1F DUP4 GT PUSH1 0x1 EQ PUSH2 0x1E3D JUMPI PUSH1 0x0 SWAP3 PUSH2 0x1E32 JUMPI JUMPDEST POP POP DUP2 PUSH1 0x1 SHL SWAP2 PUSH1 0x0 NOT SWAP1 PUSH1 0x3 SHL SHR NOT AND OR PUSH1 0x12 DUP3 ADD SSTORE JUMPDEST PUSH2 0x260 PUSH2 0x300 MLOAD ADD MLOAD DUP1 MLOAD SWAP1 PUSH1 0x1 PUSH1 0x1 PUSH1 0x40 SHL SUB DUP3 GT PUSH2 0x1A9D JUMPI DUP2 SWAP1 PUSH2 0x13E1 DUP3 PUSH2 0x13D8 PUSH1 0x13 DUP8 ADD SLOAD PUSH2 0x2E75 JUMP JUMPDEST PUSH1 0x13 DUP8 ADD PUSH2 0x304D JUMP JUMPDEST PUSH1 0x20 SWAP1 PUSH1 0x1F DUP4 GT PUSH1 0x1 EQ PUSH2 0x1DC0 JUMPI PUSH1 0x0 SWAP3 PUSH2 0x1DB5 JUMPI JUMPDEST POP POP DUP2 PUSH1 0x1 SHL SWAP2 PUSH1 0x0 NOT SWAP1 PUSH1 0x3 SHL SHR NOT AND OR PUSH1 0x13 DUP3 ADD SSTORE JUMPDEST PUSH2 0x280 PUSH2 0x300 MLOAD ADD MLOAD DUP1 MLOAD SWAP1 PUSH1 0x1 PUSH1 0x1 PUSH1 0x40 SHL SUB DUP3 GT PUSH2 0x1A9D JUMPI DUP2 SWAP1 PUSH2 0x1445 DUP3 PUSH2 0x143C PUSH1 0x14 DUP8 ADD SLOAD PUSH2 0x2E75 JUMP JUMPDEST PUSH1 0x14 DUP8 ADD PUSH2 0x304D JUMP JUMPDEST PUSH1 0x20 SWAP1 PUSH1 0x1F DUP4 GT PUSH1 0x1 EQ PUSH2 0x1D43 JUMPI PUSH1 0x0 SWAP3 PUSH2 0x1D38 JUMPI JUMPDEST POP POP DUP2 PUSH1 0x1 SHL SWAP2 PUSH1 0x0 NOT SWAP1 PUSH1 0x3 SHL SHR NOT AND OR PUSH1 0x14 DUP3 ADD SSTORE JUMPDEST PUSH2 0x2A0 PUSH2 0x300 MLOAD ADD MLOAD DUP1 MLOAD SWAP1 PUSH1 0x1 PUSH1 0x1 PUSH1 0x40 SHL SUB DUP3 GT PUSH2 0x1A9D JUMPI DUP2 SWAP1 PUSH2 0x14A9 DUP3 PUSH2 0x14A0 PUSH1 0x15 DUP8 ADD SLOAD PUSH2 0x2E75 JUMP JUMPDEST PUSH1 0x15 DUP8 ADD PUSH2 0x304D JUMP JUMPDEST PUSH1 0x20 SWAP1 PUSH1 0x1F DUP4 GT PUSH1 0x1 EQ PUSH2 0x1CC6 JUMPI PUSH1 0x0 SWAP3 PUSH2 0x1CBB JUMPI JUMPDEST POP POP DUP2 PUSH1 0x1 SHL SWAP2 PUSH1 0x0 NOT SWAP1 PUSH1 0x3 SHL SHR NOT AND OR PUSH1 0x15 DUP3 ADD SSTORE JUMPDEST PUSH2 0x2C0 PUSH2 0x300 MLOAD ADD MLOAD DUP1 MLOAD SWAP1 PUSH1 0x1 PUSH1 0x1 PUSH1 0x40 SHL SUB DUP3 GT PUSH2 0x1A9D JUMPI DUP2 SWAP1 PUSH2 0x150D DUP3 PUSH2 0x1504 PUSH1 0x16 DUP8 ADD SLOAD PUSH2 0x2E75 JUMP JUMPDEST PUSH1 0x16 DUP8 ADD PUSH2 0x304D JUMP JUMPDEST PUSH1 0x20 SWAP1 PUSH1 0x1F DUP4 GT PUSH1 0x1 EQ PUSH2 0x1C49 JUMPI PUSH1 0x0 SWAP3 PUSH2 0x1C3E JUMPI JUMPDEST POP POP DUP2 PUSH1 0x1 SHL SWAP2 PUSH1 0x0 NOT SWAP1 PUSH1 0x3 SHL SHR NOT AND OR PUSH1 0x16 DUP3 ADD SSTORE JUMPDEST PUSH2 0x2E0 PUSH2 0x300 MLOAD ADD MLOAD DUP1 MLOAD SWAP1 PUSH1 0x1 PUSH1 0x1 PUSH1 0x40 SHL SUB DUP3 GT PUSH2 0x1A9D JUMPI DUP2 SWAP1 PUSH2 0x1571 DUP3 PUSH2 0x1568 PUSH1 0x17 DUP8 ADD SLOAD PUSH2 0x2E75 JUMP JUMPDEST PUSH1 0x17 DUP8 ADD PUSH2 0x304D JUMP JUMPDEST PUSH1 0x20 SWAP1 PUSH1 0x1F DUP4 GT PUSH1 0x1 EQ PUSH2 0x1BCC JUMPI PUSH1 0x0 SWAP3 PUSH2 0x1BC1 JUMPI JUMPDEST POP POP DUP2 PUSH1 0x1 SHL SWAP2 PUSH1 0x0 NOT SWAP1 PUSH1 0x3 SHL SHR NOT AND OR PUSH1 0x17 DUP3 ADD SSTORE JUMPDEST PUSH2 0x300 DUP1 MLOAD ADD MLOAD DUP1 MLOAD SWAP1 PUSH1 0x1 PUSH1 0x1 PUSH1 0x40 SHL SUB DUP3 GT PUSH2 0x1A9D JUMPI DUP2 SWAP1 PUSH2 0x15D3 DUP3 PUSH2 0x15CA PUSH1 0x18 DUP8 ADD SLOAD PUSH2 0x2E75 JUMP JUMPDEST PUSH1 0x18 DUP8 ADD PUSH2 0x304D JUMP JUMPDEST PUSH1 0x20 SWAP1 PUSH1 0x1F DUP4 GT PUSH1 0x1 EQ PUSH2 0x1B4F JUMPI PUSH1 0x0 SWAP3 PUSH2 0x1B44 JUMPI JUMPDEST POP POP DUP2 PUSH1 0x1 SHL SWAP2 PUSH1 0x0 NOT SWAP1 PUSH1 0x3 SHL SHR NOT AND OR PUSH1 0x18 DUP3 ADD SSTORE JUMPDEST PUSH2 0x320 PUSH2 0x300 MLOAD ADD MLOAD DUP1 MLOAD SWAP1 PUSH1 0x1 PUSH1 0x1 PUSH1 0x40 SHL SUB DUP3 GT PUSH2 0x1A9D JUMPI PUSH2 0x1635 DUP3 PUSH2 0x162C PUSH1 0x19 DUP7 ADD SLOAD PUSH2 0x2E75 JUMP JUMPDEST PUSH1 0x19 DUP7 ADD PUSH2 0x304D JUMP JUMPDEST PUSH1 0x20 SWAP1 PUSH1 0x1F DUP4 GT PUSH1 0x1 EQ PUSH2 0x1AD4 JUMPI PUSH1 0x19 SWAP3 SWAP2 PUSH1 0x0 SWAP2 DUP4 PUSH2 0x1AC9 JUMPI JUMPDEST POP POP DUP2 PUSH1 0x1 SHL SWAP2 PUSH1 0x0 NOT SWAP1 PUSH1 0x3 SHL SHR NOT AND OR SWAP2 ADD SSTORE JUMPDEST PUSH1 0x2 SLOAD PUSH9 0x10000000000000000 DUP2 LT ISZERO PUSH2 0x1A9D JUMPI DUP1 PUSH1 0x1 PUSH2 0x168A SWAP3 ADD PUSH1 0x2 SSTORE PUSH2 0x2E28 JUMP JUMPDEST PUSH2 0x1AB3 JUMPI PUSH2 0x3C0 MLOAD PUSH1 0x1 PUSH1 0x1 PUSH1 0x40 SHL SUB DUP2 GT PUSH2 0x1A9D JUMPI PUSH2 0x16B4 SWAP1 PUSH2 0x16AE DUP4 SLOAD PUSH2 0x2E75 JUMP JUMPDEST DUP4 PUSH2 0x304D JUMP JUMPDEST PUSH1 0x0 SWAP1 PUSH2 0x3C0 MLOAD PUSH1 0x1F DUP2 GT PUSH1 0x1 EQ PUSH2 0x1A30 JUMPI POP SWAP1 PUSH1 0x0 PUSH2 0x3C0 MLOAD SWAP2 DUP3 PUSH2 0x1A22 JUMPI JUMPDEST POP DUP2 PUSH1 0x1 SHL SWAP2 PUSH1 0x0 NOT SWAP1 PUSH1 0x3 SHL SHR NOT AND OR SWAP1 SSTORE JUMPDEST PUSH2 0x360 PUSH1 0x40 MLOAD DUP1 PUSH2 0x520 MSTORE MSTORE PUSH32 0x98294A5C238215C17C0453EF0A215F72B82E6674BFD030D8E1858095C1879A8B PUSH2 0x19F9 PUSH2 0x19DF PUSH2 0x19C5 PUSH2 0x19AB PUSH2 0x1991 PUSH2 0x1977 PUSH2 0x195D PUSH2 0x1943 PUSH2 0x1929 PUSH2 0x190F PUSH2 0x18F5 PUSH2 0x18DB PUSH2 0x18C1 PUSH2 0x18A8 PUSH2 0x188F PUSH2 0x1875 PUSH2 0x185B PUSH2 0x1841 PUSH2 0x1827 PUSH2 0x180E PUSH2 0x17F5 PUSH2 0x17DC PUSH2 0x17C3 PUSH2 0x17AA PUSH2 0x1792 PUSH2 0x1779 PUSH2 0x360 PUSH2 0x520 MLOAD ADD PUSH2 0x3C0 MLOAD PUSH2 0x2E0 MLOAD PUSH2 0x30A1 JUMP JUMPDEST PUSH2 0x520 MLOAD PUSH1 0x20 DUP2 DUP4 SUB SWAP2 ADD MSTORE PUSH2 0x8C0 MLOAD PUSH2 0x940 MLOAD PUSH2 0x30A1 JUMP JUMPDEST PUSH2 0x520 MLOAD PUSH1 0x40 DUP2 DUP4 SUB SWAP2 ADD MSTORE PUSH2 0x160 MLOAD PUSH1 0x80 MLOAD PUSH2 0x30A1 JUMP JUMPDEST PUSH2 0x520 MLOAD PUSH1 0x60 DUP2 DUP4 SUB SWAP2 ADD MSTORE PUSH2 0x1C0 MLOAD PUSH2 0x560 MLOAD PUSH2 0x30A1 JUMP JUMPDEST PUSH2 0x520 MLOAD PUSH1 0x80 DUP2 DUP4 SUB SWAP2 ADD MSTORE PUSH2 0x380 MLOAD PUSH2 0x8E0 MLOAD PUSH2 0x30A1 JUMP JUMPDEST PUSH2 0x520 MLOAD PUSH1 0xA0 DUP2 DUP4 SUB SWAP2 ADD MSTORE PUSH2 0x880 MLOAD PUSH2 0x1A0 MLOAD PUSH2 0x30A1 JUMP JUMPDEST PUSH2 0x520 MLOAD PUSH1 0xC0 DUP2 DUP4 SUB SWAP2 ADD MSTORE PUSH2 0x3A0 MLOAD PUSH2 0x840 MLOAD PUSH2 0x30A1 JUMP JUMPDEST PUSH2 0x520 MLOAD PUSH1 0xE0 DUP2 DUP4 SUB SWAP2 ADD MSTORE PUSH2 0x6C0 MLOAD PUSH2 0x120 MLOAD PUSH2 0x30A1 JUMP JUMPDEST PUSH2 0x520 MLOAD PUSH2 0x100 DUP2 DUP4 SUB SWAP2 ADD MSTORE PUSH2 0x440 MLOAD PUSH2 0x180 MLOAD PUSH2 0x30A1 JUMP JUMPDEST PUSH2 0x520 MLOAD PUSH2 0x120 DUP2 DUP4 SUB SWAP2 ADD MSTORE PUSH2 0x7C0 MLOAD PUSH2 0x260 MLOAD PUSH2 0x30A1 JUMP JUMPDEST PUSH2 0x520 MLOAD PUSH2 0x140 DUP2 DUP4 SUB SWAP2 ADD MSTORE PUSH2 0x4C0 MLOAD PUSH2 0x3E0 MLOAD PUSH2 0x30A1 JUMP JUMPDEST PUSH2 0x520 MLOAD PUSH2 0x160 DUP2 DUP4 SUB SWAP2 ADD MSTORE PUSH2 0x480 MLOAD PUSH2 0x920 MLOAD PUSH2 0x30A1 JUMP JUMPDEST PUSH2 0x520 MLOAD PUSH2 0x180 DUP2 DUP4 SUB SWAP2 ADD MSTORE PUSH1 0xC0 MLOAD PUSH2 0x780 MLOAD PUSH2 0x30A1 JUMP JUMPDEST PUSH2 0x520 MLOAD PUSH2 0x1A0 DUP2 DUP4 SUB SWAP2 ADD MSTORE PUSH2 0x320 MLOAD PUSH1 0xE0 MLOAD PUSH2 0x30A1 JUMP JUMPDEST PUSH2 0x520 MLOAD PUSH2 0x1C0 DUP2 DUP4 SUB SWAP2 ADD MSTORE PUSH2 0x4E0 MLOAD PUSH2 0x5A0 MLOAD PUSH2 0x30A1 JUMP JUMPDEST PUSH2 0x520 MLOAD PUSH2 0x1E0 DUP2 DUP4 SUB SWAP2 ADD MSTORE PUSH2 0x7E0 MLOAD PUSH2 0x240 MLOAD PUSH2 0x30A1 JUMP JUMPDEST PUSH2 0x520 MLOAD PUSH2 0x200 DUP2 DUP4 SUB SWAP2 ADD MSTORE PUSH2 0x140 MLOAD PUSH2 0x360 MLOAD PUSH2 0x30A1 JUMP JUMPDEST PUSH2 0x520 MLOAD PUSH2 0x220 DUP2 DUP4 SUB SWAP2 ADD MSTORE PUSH2 0x2A0 MLOAD PUSH2 0x760 MLOAD PUSH2 0x30A1 JUMP JUMPDEST PUSH2 0x520 MLOAD PUSH2 0x240 DUP2 DUP4 SUB SWAP2 ADD MSTORE PUSH2 0x740 MLOAD PUSH2 0x800 MLOAD PUSH2 0x30A1 JUMP JUMPDEST PUSH2 0x520 MLOAD PUSH2 0x260 DUP2 DUP4 SUB SWAP2 ADD MSTORE PUSH2 0x5E0 MLOAD PUSH2 0x1E0 MLOAD PUSH2 0x30A1 JUMP JUMPDEST PUSH2 0x520 MLOAD PUSH2 0x280 DUP2 DUP4 SUB SWAP2 ADD MSTORE PUSH2 0x6E0 MLOAD PUSH2 0x700 MLOAD PUSH2 0x30A1 JUMP JUMPDEST PUSH2 0x520 MLOAD PUSH2 0x2A0 DUP2 DUP4 SUB SWAP2 ADD MSTORE PUSH2 0x420 MLOAD PUSH2 0x660 MLOAD PUSH2 0x30A1 JUMP JUMPDEST PUSH2 0x520 MLOAD PUSH2 0x2C0 DUP2 DUP4 SUB SWAP2 ADD MSTORE PUSH2 0x540 MLOAD PUSH2 0x7A0 MLOAD PUSH2 0x30A1 JUMP JUMPDEST PUSH2 0x520 MLOAD PUSH2 0x2E0 DUP2 DUP4 SUB SWAP2 ADD MSTORE PUSH2 0x640 MLOAD PUSH2 0x400 MLOAD PUSH2 0x30A1 JUMP JUMPDEST PUSH2 0x520 MLOAD PUSH2 0x300 DUP2 DUP4 SUB SWAP2 ADD MSTORE PUSH2 0x900 MLOAD PUSH2 0x680 MLOAD PUSH2 0x30A1 JUMP JUMPDEST PUSH2 0x520 MLOAD PUSH2 0x320 DUP2 DUP4 SUB SWAP2 ADD MSTORE PUSH2 0x220 MLOAD PUSH2 0x2C0 MLOAD PUSH2 0x30A1 JUMP JUMPDEST PUSH2 0x520 MLOAD PUSH2 0x340 DUP2 DUP4 SUB SWAP2 ADD MSTORE PUSH2 0x1A1A PUSH2 0x520 MLOAD SWAP2 PUSH1 0xA0 MLOAD PUSH2 0x4A0 MLOAD PUSH2 0x30A1 JUMP JUMPDEST SUB PUSH2 0x520 MLOAD LOG1 STOP JUMPDEST SWAP1 POP PUSH2 0x2E0 MLOAD ADD CALLDATALOAD DUP4 PUSH2 0x16D5 JUMP JUMPDEST DUP2 PUSH1 0x0 MSTORE PUSH1 0x20 PUSH1 0x0 KECCAK256 PUSH1 0x0 SWAP4 PUSH2 0x2E0 MLOAD SWAP1 JUMPDEST PUSH1 0x1F NOT DUP5 AND DUP7 LT PUSH2 0x1A85 JUMPI PUSH1 0x1 SWAP5 SWAP6 POP DUP4 PUSH1 0x1F NOT DUP2 AND LT PUSH2 0x1A6B JUMPI JUMPDEST POP POP POP DUP2 SHL ADD SWAP1 SSTORE PUSH2 0x16E9 JUMP JUMPDEST ADD CALLDATALOAD PUSH1 0x0 NOT PUSH1 0x3 DUP5 SWAP1 SHL PUSH1 0xF8 AND SHR NOT AND SWAP1 SSTORE DUP4 DUP1 DUP1 PUSH2 0x1A5E JUMP JUMPDEST SWAP2 PUSH1 0x20 PUSH1 0x1 DUP2 SWAP3 DUP6 DUP6 ADD CALLDATALOAD DUP2 SSTORE ADD SWAP4 ADD SWAP6 ADD SWAP5 PUSH2 0x1A42 JUMP JUMPDEST PUSH4 0x4E487B71 PUSH1 0xE0 SHL PUSH1 0x0 MSTORE PUSH1 0x41 PUSH1 0x4 MSTORE PUSH1 0x24 PUSH1 0x0 REVERT JUMPDEST PUSH4 0x4E487B71 PUSH1 0xE0 SHL PUSH1 0x0 MSTORE PUSH1 0x0 PUSH1 0x4 MSTORE PUSH1 0x24 PUSH1 0x0 REVERT JUMPDEST ADD MLOAD SWAP1 POP DUP5 DUP1 PUSH2 0x1650 JUMP JUMPDEST SWAP1 PUSH1 0x19 DUP5 ADD PUSH1 0x0 MSTORE PUSH1 0x20 PUSH1 0x0 KECCAK256 SWAP2 PUSH1 0x0 JUMPDEST PUSH1 0x1F NOT DUP6 AND DUP2 LT PUSH2 0x1B2C JUMPI POP SWAP2 DUP4 SWAP2 PUSH1 0x1 SWAP4 PUSH1 0x19 SWAP6 PUSH1 0x1F NOT DUP2 AND LT PUSH2 0x1B13 JUMPI JUMPDEST POP POP POP DUP2 SHL ADD SWAP2 ADD SSTORE PUSH2 0x1666 JUMP JUMPDEST ADD MLOAD PUSH1 0x0 NOT PUSH1 0xF8 DUP5 PUSH1 0x3 SHL AND SHR NOT AND SWAP1 SSTORE DUP5 DUP1 DUP1 PUSH2 0x1B05 JUMP JUMPDEST SWAP2 SWAP3 PUSH1 0x20 PUSH1 0x1 DUP2 SWAP3 DUP7 DUP6 ADD MLOAD DUP2 SSTORE ADD SWAP5 ADD SWAP3 ADD PUSH2 0x1AE5 JUMP JUMPDEST ADD MLOAD SWAP1 POP DUP4 DUP1 PUSH2 0x15E9 JUMP JUMPDEST SWAP3 POP PUSH1 0x18 DUP5 ADD PUSH1 0x0 MSTORE PUSH1 0x20 PUSH1 0x0 KECCAK256 SWAP1 PUSH1 0x0 SWAP4 JUMPDEST PUSH1 0x1F NOT DUP5 AND DUP6 LT PUSH2 0x1BA6 JUMPI PUSH1 0x1 SWAP5 POP DUP4 PUSH1 0x1F NOT DUP2 AND LT PUSH2 0x1B8D JUMPI JUMPDEST POP POP POP DUP2 SHL ADD PUSH1 0x18 DUP3 ADD SSTORE PUSH2 0x1601 JUMP JUMPDEST ADD MLOAD PUSH1 0x0 NOT PUSH1 0xF8 DUP5 PUSH1 0x3 SHL AND SHR NOT AND SWAP1 SSTORE DUP4 DUP1 DUP1 PUSH2 0x1B7D JUMP JUMPDEST DUP2 DUP2 ADD MLOAD DUP4 SSTORE PUSH1 0x20 SWAP5 DUP6 ADD SWAP5 PUSH1 0x1 SWAP1 SWAP4 ADD SWAP3 SWAP1 SWAP2 ADD SWAP1 PUSH2 0x1B62 JUMP JUMPDEST ADD MLOAD SWAP1 POP DUP4 DUP1 PUSH2 0x1587 JUMP JUMPDEST SWAP3 POP PUSH1 0x17 DUP5 ADD PUSH1 0x0 MSTORE PUSH1 0x20 PUSH1 0x0 KECCAK256 SWAP1 PUSH1 0x0 SWAP4 JUMPDEST PUSH1 0x1F NOT DUP5 AND DUP6 LT PUSH2 0x1C23 JUMPI PUSH1 0x1 SWAP5 POP DUP4 PUSH1 0x1F NOT DUP2 AND LT PUSH2 0x1C0A JUMPI JUMPDEST POP POP POP DUP2 SHL ADD PUSH1 0x17 DUP3 ADD SSTORE PUSH2 0x159F JUMP JUMPDEST ADD MLOAD PUSH1 0x0 NOT PUSH1 0xF8 DUP5 PUSH1 0x3 SHL AND SHR NOT AND SWAP1 SSTORE DUP4 DUP1 DUP1 PUSH2 0x1BFA JUMP JUMPDEST DUP2 DUP2 ADD MLOAD DUP4 SSTORE PUSH1 0x20 SWAP5 DUP6 ADD SWAP5 PUSH1 0x1 SWAP1 SWAP4 ADD SWAP3 SWAP1 SWAP2 ADD SWAP1 PUSH2 0x1BDF JUMP JUMPDEST ADD MLOAD SWAP1 POP DUP4 DUP1 PUSH2 0x1523 JUMP JUMPDEST SWAP3 POP PUSH1 0x16 DUP5 ADD PUSH1 0x0 MSTORE PUSH1 0x20 PUSH1 0x0 KECCAK256 SWAP1 PUSH1 0x0 SWAP4 JUMPDEST PUSH1 0x1F NOT DUP5 AND DUP6 LT PUSH2 0x1CA0 JUMPI PUSH1 0x1 SWAP5 POP DUP4 PUSH1 0x1F NOT DUP2 AND LT PUSH2 0x1C87 JUMPI JUMPDEST POP POP POP DUP2 SHL ADD PUSH1 0x16 DUP3 ADD SSTORE PUSH2 0x153B JUMP JUMPDEST ADD MLOAD PUSH1 0x0 NOT PUSH1 0xF8 DUP5 PUSH1 0x3 SHL AND SHR NOT AND SWAP1 SSTORE DUP4 DUP1 DUP1 PUSH2 0x1C77 JUMP JUMPDEST DUP2 DUP2 ADD MLOAD DUP4 SSTORE PUSH1 0x20 SWAP5 DUP6 ADD SWAP5 PUSH1 0x1 SWAP1 SWAP4 ADD SWAP3 SWAP1 SWAP2 ADD SWAP1 PUSH2 0x1C5C JUMP JUMPDEST ADD MLOAD SWAP1 POP DUP4 DUP1 PUSH2 0x14BF JUMP JUMPDEST SWAP3 POP PUSH1 0x15 DUP5 ADD PUSH1 0x0 MSTORE PUSH1 0x20 PUSH1 0x0 KECCAK256 SWAP1 PUSH1 0x0 SWAP4 JUMPDEST PUSH1 0x1F NOT DUP5 AND DUP6 LT PUSH2 0x1D1D JUMPI PUSH1 0x1 SWAP5 POP DUP4 PUSH1 0x1F NOT DUP2 AND LT PUSH2 0x1D04 JUMPI JUMPDEST POP POP POP DUP2 SHL ADD PUSH1 0x15 DUP3 ADD SSTORE PUSH2 0x14D7 JUMP JUMPDEST ADD MLOAD PUSH1 0x0 NOT PUSH1 0xF8 DUP5 PUSH1 0x3 SHL AND SHR NOT AND SWAP1 SSTORE DUP4 DUP1 DUP1 PUSH2 0x1CF4 JUMP JUMPDEST DUP2 DUP2 ADD MLOAD DUP4 SSTORE PUSH1 0x20 SWAP5 DUP6 ADD SWAP5 PUSH1 0x1 SWAP1 SWAP4 ADD SWAP3 SWAP1 SWAP2 ADD SWAP1 PUSH2 0x1CD9 JUMP JUMPDEST ADD MLOAD SWAP1 POP DUP4 DUP1 PUSH2 0x145B JUMP JUMPDEST SWAP3 POP PUSH1 0x14 DUP5 ADD PUSH1 0x0 MSTORE PUSH1 0x20 PUSH1 0x0 KECCAK256 SWAP1 PUSH1 0x0 SWAP4 JUMPDEST PUSH1 0x1F NOT DUP5 AND DUP6 LT PUSH2 0x1D9A JUMPI PUSH1 0x1 SWAP5 POP DUP4 PUSH1 0x1F NOT DUP2 AND LT PUSH2 0x1D81 JUMPI JUMPDEST POP POP POP DUP2 SHL ADD PUSH1 0x14 DUP3 ADD SSTORE PUSH2 0x1473 JUMP JUMPDEST ADD MLOAD PUSH1 0x0 NOT PUSH1 0xF8 DUP5 PUSH1 0x3 SHL AND SHR NOT AND SWAP1 SSTORE DUP4 DUP1 DUP1 PUSH2 0x1D71 JUMP JUMPDEST DUP2 DUP2 ADD MLOAD DUP4 SSTORE PUSH1 0x20 SWAP5 DUP6 ADD SWAP5 PUSH1 0x1 SWAP1 SWAP4 ADD SWAP3 SWAP1 SWAP2 ADD SWAP1 PUSH2 0x1D56 JUMP JUMPDEST ADD MLOAD SWAP1 POP DUP4 DUP1 PUSH2 0x13F7 JUMP JUMPDEST SWAP3 POP PUSH1 0x13 DUP5 ADD PUSH1 0x0 MSTORE PUSH1 0x20 PUSH1 0x0 KECCAK256 SWAP1 PUSH1 0x0 SWAP4 JUMPDEST PUSH1 0x1F NOT DUP5 AND DUP6 LT PUSH2 0x1E17 JUMPI PUSH1 0x1 SWAP5 POP DUP4 PUSH1 0x1F NOT DUP2 AND LT PUSH2 0x1DFE JUMPI JUMPDEST POP POP POP DUP2 SHL ADD PUSH1 0x13 DUP3 ADD SSTORE PUSH2 0x140F JUMP JUMPDEST ADD MLOAD PUSH1 0x0 NOT PUSH1 0xF8 DUP5 PUSH1 0x3 SHL AND SHR NOT AND SWAP1 SSTORE DUP4 DUP1 DUP1 PUSH2 0x1DEE JUMP JUMPDEST DUP2 DUP2 ADD MLOAD DUP4 SSTORE PUSH1 0x20 SWAP5 DUP6 ADD SWAP5 PUSH1 0x1 SWAP1 SWAP4 ADD SWAP3 SWAP1 SWAP2 ADD SWAP1 PUSH2 0x1DD3 JUMP JUMPDEST ADD MLOAD SWAP1 POP DUP4 DUP1 PUSH2 0x1393 JUMP JUMPDEST SWAP3 POP PUSH1 0x12 DUP5 ADD PUSH1 0x0 MSTORE PUSH1 0x20 PUSH1 0x0 KECCAK256 SWAP1 PUSH1 0x0 SWAP4 JUMPDEST PUSH1 0x1F NOT DUP5 AND DUP6 LT PUSH2 0x1E94 JUMPI PUSH1 0x1 SWAP5 POP DUP4 PUSH1 0x1F NOT DUP2 AND LT PUSH2 0x1E7B JUMPI JUMPDEST POP POP POP DUP2 SHL ADD PUSH1 0x12 DUP3 ADD SSTORE PUSH2 0x13AB JUMP JUMPDEST ADD MLOAD PUSH1 0x0 NOT PUSH1 0xF8 DUP5 PUSH1 0x3 SHL AND SHR NOT AND SWAP1 SSTORE DUP4 DUP1 DUP1 PUSH2 0x1E6B JUMP JUMPDEST DUP2 DUP2 ADD MLOAD DUP4 SSTORE PUSH1 0x20 SWAP5 DUP6 ADD SWAP5 PUSH1 0x1 SWAP1 SWAP4 ADD SWAP3 SWAP1 SWAP2 ADD SWAP1 PUSH2 0x1E50 JUMP JUMPDEST ADD MLOAD SWAP1 POP DUP4 DUP1 PUSH2 0x132F JUMP JUMPDEST SWAP3 POP PUSH1 0x11 DUP5 ADD PUSH1 0x0 MSTORE PUSH1 0x20 PUSH1 0x0 KECCAK256 SWAP1 PUSH1 0x0 SWAP4 JUMPDEST PUSH1 0x1F NOT DUP5 AND DUP6 LT PUSH2 0x1F11 JUMPI PUSH1 0x1 SWAP5 POP DUP4 PUSH1 0x1F NOT DUP2 AND LT PUSH2 0x1EF8 JUMPI JUMPDEST POP POP POP DUP2 SHL ADD PUSH1 0x11 DUP3 ADD SSTORE PUSH2 0x1347 JUMP JUMPDEST ADD MLOAD PUSH1 0x0 NOT PUSH1 0xF8 DUP5 PUSH1 0x3 SHL AND SHR NOT AND SWAP1 SSTORE DUP4 DUP1 DUP1 PUSH2 0x1EE8 JUMP JUMPDEST DUP2 DUP2 ADD MLOAD DUP4 SSTORE PUSH1 0x20 SWAP5 DUP6 ADD SWAP5 PUSH1 0x1 SWAP1 SWAP4 ADD SWAP3 SWAP1 SWAP2 ADD SWAP1 PUSH2 0x1ECD JUMP JUMPDEST ADD MLOAD SWAP1 POP DUP4 DUP1 PUSH2 0x12CB JUMP JUMPDEST SWAP3 POP PUSH1 0x10 DUP5 ADD PUSH1 0x0 MSTORE PUSH1 0x20 PUSH1 0x0 KECCAK256 SWAP1 PUSH1 0x0 SWAP4 JUMPDEST PUSH1 0x1F NOT DUP5 AND DUP6 LT PUSH2 0x1F8E JUMPI PUSH1 0x1 SWAP5 POP DUP4 PUSH1 0x1F NOT DUP2 AND LT PUSH2 0x1F75 JUMPI JUMPDEST POP POP POP DUP2 SHL ADD PUSH1 0x10 DUP3 ADD SSTORE PUSH2 0x12E3 JUMP JUMPDEST ADD MLOAD PUSH1 0x0 NOT PUSH1 0xF8 DUP5 PUSH1 0x3 SHL AND SHR NOT AND SWAP1 SSTORE DUP4 DUP1 DUP1 PUSH2 0x1F65 JUMP JUMPDEST DUP2 DUP2 ADD MLOAD DUP4 SSTORE PUSH1 0x20 SWAP5 DUP6 ADD SWAP5 PUSH1 0x1 SWAP1 SWAP4 ADD SWAP3 SWAP1 SWAP2 ADD SWAP1 PUSH2 0x1F4A JUMP JUMPDEST ADD MLOAD SWAP1 POP DUP4 DUP1 PUSH2 0x1267 JUMP JUMPDEST SWAP3 POP PUSH1 0xF DUP5 ADD PUSH1 0x0 MSTORE PUSH1 0x20 PUSH1 0x0 KECCAK256 SWAP1 PUSH1 0x0 SWAP4 JUMPDEST PUSH1 0x1F NOT DUP5 AND DUP6 LT PUSH2 0x200B JUMPI PUSH1 0x1 SWAP5 POP DUP4 PUSH1 0x1F NOT DUP2 AND LT PUSH2 0x1FF2 JUMPI JUMPDEST POP POP POP DUP2 SHL ADD PUSH1 0xF DUP3 ADD SSTORE PUSH2 0x127F JUMP JUMPDEST ADD MLOAD PUSH1 0x0 NOT PUSH1 0xF8 DUP5 PUSH1 0x3 SHL AND SHR NOT AND SWAP1 SSTORE DUP4 DUP1 DUP1 PUSH2 0x1FE2 JUMP JUMPDEST DUP2 DUP2 ADD MLOAD DUP4 SSTORE PUSH1 0x20 SWAP5 DUP6 ADD SWAP5 PUSH1 0x1 SWAP1 SWAP4 ADD SWAP3 SWAP1 SWAP2 ADD SWAP1 PUSH2 0x1FC7 JUMP JUMPDEST ADD MLOAD SWAP1 POP DUP4 DUP1 PUSH2 0x1203 JUMP JUMPDEST SWAP3 POP PUSH1 0xE DUP5 ADD PUSH1 0x0 MSTORE PUSH1 0x20 PUSH1 0x0 KECCAK256 SWAP1 PUSH1 0x0 SWAP4 JUMPDEST PUSH1 0x1F NOT DUP5 AND DUP6 LT PUSH2 0x2088 JUMPI PUSH1 0x1 SWAP5 POP DUP4 PUSH1 0x1F NOT DUP2 AND LT PUSH2 0x206F JUMPI JUMPDEST POP POP POP DUP2 SHL ADD PUSH1 0xE DUP3 ADD SSTORE PUSH2 0x121B JUMP JUMPDEST ADD MLOAD PUSH1 0x0 NOT PUSH1 0xF8 DUP5 PUSH1 0x3 SHL AND SHR NOT AND SWAP1 SSTORE DUP4 DUP1 DUP1 PUSH2 0x205F JUMP JUMPDEST DUP2 DUP2 ADD MLOAD DUP4 SSTORE PUSH1 0x20 SWAP5 DUP6 ADD SWAP5 PUSH1 0x1 SWAP1 SWAP4 ADD SWAP3 SWAP1 SWAP2 ADD SWAP1 PUSH2 0x2044 JUMP JUMPDEST ADD MLOAD SWAP1 POP DUP4 DUP1 PUSH2 0x119F JUMP JUMPDEST SWAP3 POP PUSH1 0xD DUP5 ADD PUSH1 0x0 MSTORE PUSH1 0x20 PUSH1 0x0 KECCAK256 SWAP1 PUSH1 0x0 SWAP4 JUMPDEST PUSH1 0x1F NOT DUP5 AND DUP6 LT PUSH2 0x2105 JUMPI PUSH1 0x1 SWAP5 POP DUP4 PUSH1 0x1F NOT DUP2 AND LT PUSH2 0x20EC JUMPI JUMPDEST POP POP POP DUP2 SHL ADD PUSH1 0xD DUP3 ADD SSTORE PUSH2 0x11B7 JUMP JUMPDEST ADD MLOAD PUSH1 0x0 NOT PUSH1 0xF8 DUP5 PUSH1 0x3 SHL AND SHR NOT AND SWAP1 SSTORE DUP4 DUP1 DUP1 PUSH2 0x20DC JUMP JUMPDEST DUP2 DUP2 ADD MLOAD DUP4 SSTORE PUSH1 0x20 SWAP5 DUP6 ADD SWAP5 PUSH1 0x1 SWAP1 SWAP4 ADD SWAP3 SWAP1 SWAP2 ADD SWAP1 PUSH2 0x20C1 JUMP JUMPDEST ADD MLOAD SWAP1 POP DUP4 DUP1 PUSH2 0x113B JUMP JUMPDEST SWAP3 POP PUSH1 0xC DUP5 ADD PUSH1 0x0 MSTORE PUSH1 0x20 PUSH1 0x0 KECCAK256 SWAP1 PUSH1 0x0 SWAP4 JUMPDEST PUSH1 0x1F NOT DUP5 AND DUP6 LT PUSH2 0x2182 JUMPI PUSH1 0x1 SWAP5 POP DUP4 PUSH1 0x1F NOT DUP2 AND LT PUSH2 0x2169 JUMPI JUMPDEST POP POP POP DUP2 SHL ADD PUSH1 0xC DUP3 ADD SSTORE PUSH2 0x1153 JUMP JUMPDEST ADD MLOAD PUSH1 0x0 NOT PUSH1 0xF8 DUP5 PUSH1 0x3 SHL AND SHR NOT AND SWAP1 SSTORE DUP4 DUP1 DUP1 PUSH2 0x2159 JUMP JUMPDEST DUP2 DUP2 ADD MLOAD DUP4 SSTORE PUSH1 0x20 SWAP5 DUP6 ADD SWAP5 PUSH1 0x1 SWAP1 SWAP4 ADD SWAP3 SWAP1 SWAP2 ADD SWAP1 PUSH2 0x213E JUMP JUMPDEST ADD MLOAD SWAP1 POP DUP4 DUP1 PUSH2 0x10D7 JUMP JUMPDEST SWAP3 POP PUSH1 0xB DUP5 ADD PUSH1 0x0 MSTORE PUSH1 0x20 PUSH1 0x0 KECCAK256 SWAP1 PUSH1 0x0 SWAP4 JUMPDEST PUSH1 0x1F NOT DUP5 AND DUP6 LT PUSH2 0x21FF JUMPI PUSH1 0x1 SWAP5 POP DUP4 PUSH1 0x1F NOT DUP2 AND LT PUSH2 0x21E6 JUMPI JUMPDEST POP POP POP DUP2 SHL ADD PUSH1 0xB DUP3 ADD SSTORE PUSH2 0x10EF JUMP JUMPDEST ADD MLOAD PUSH1 0x0 NOT PUSH1 0xF8 DUP5 PUSH1 0x3 SHL AND SHR NOT AND SWAP1 SSTORE DUP4 DUP1 DUP1 PUSH2 0x21D6 JUMP JUMPDEST DUP2 DUP2 ADD MLOAD DUP4 SSTORE PUSH1 0x20 SWAP5 DUP6 ADD SWAP5 PUSH1 0x1 SWAP1 SWAP4 ADD SWAP3 SWAP1 SWAP2 ADD SWAP1 PUSH2 0x21BB JUMP JUMPDEST ADD MLOAD SWAP1 POP DUP4 DUP1 PUSH2 0x1073 JUMP JUMPDEST SWAP3 POP PUSH1 0xA DUP5 ADD PUSH1 0x0 MSTORE PUSH1 0x20 PUSH1 0x0 KECCAK256 SWAP1 PUSH1 0x0 SWAP4 JUMPDEST PUSH1 0x1F NOT DUP5 AND DUP6 LT PUSH2 0x227C JUMPI PUSH1 0x1 SWAP5 POP DUP4 PUSH1 0x1F NOT DUP2 AND LT PUSH2 0x2263 JUMPI JUMPDEST POP POP POP DUP2 SHL ADD PUSH1 0xA DUP3 ADD SSTORE PUSH2 0x108B JUMP JUMPDEST ADD MLOAD PUSH1 0x0 NOT PUSH1 0xF8 DUP5 PUSH1 0x3 SHL AND SHR NOT AND SWAP1 SSTORE DUP4 DUP1 DUP1 PUSH2 0x2253 JUMP JUMPDEST DUP2 DUP2 ADD MLOAD DUP4 SSTORE PUSH1 0x20 SWAP5 DUP6 ADD SWAP5 PUSH1 0x1 SWAP1 SWAP4 ADD SWAP3 SWAP1 SWAP2 ADD SWAP1 PUSH2 0x2238 JUMP JUMPDEST ADD MLOAD SWAP1 POP DUP4 DUP1 PUSH2 0x100F JUMP JUMPDEST SWAP3 POP PUSH1 0x9 DUP5 ADD PUSH1 0x0 MSTORE PUSH1 0x20 PUSH1 0x0 KECCAK256 SWAP1 PUSH1 0x0 SWAP4 JUMPDEST PUSH1 0x1F NOT DUP5 AND DUP6 LT PUSH2 0x22F9 JUMPI PUSH1 0x1 SWAP5 POP DUP4 PUSH1 0x1F NOT DUP2 AND LT PUSH2 0x22E0 JUMPI JUMPDEST POP POP POP DUP2 SHL ADD PUSH1 0x9 DUP3 ADD SSTORE PUSH2 0x1027 JUMP JUMPDEST ADD MLOAD PUSH1 0x0 NOT PUSH1 0xF8 DUP5 PUSH1 0x3 SHL AND SHR NOT AND SWAP1 SSTORE DUP4 DUP1 DUP1 PUSH2 0x22D0 JUMP JUMPDEST DUP2 DUP2 ADD MLOAD DUP4 SSTORE PUSH1 0x20 SWAP5 DUP6 ADD SWAP5 PUSH1 0x1 SWAP1 SWAP4 ADD SWAP3 SWAP1 SWAP2 ADD SWAP1 PUSH2 0x22B5 JUMP JUMPDEST ADD MLOAD SWAP1 POP DUP4 DUP1 PUSH2 0xFAB JUMP JUMPDEST SWAP3 POP PUSH1 0x8 DUP5 ADD PUSH1 0x0 MSTORE PUSH1 0x20 PUSH1 0x0 KECCAK256 SWAP1 PUSH1 0x0 SWAP4 JUMPDEST PUSH1 0x1F NOT DUP5 AND DUP6 LT PUSH2 0x2376 JUMPI PUSH1 0x1 SWAP5 POP DUP4 PUSH1 0x1F NOT DUP2 AND LT PUSH2 0x235D JUMPI JUMPDEST POP POP POP DUP2 SHL ADD PUSH1 0x8 DUP3 ADD SSTORE PUSH2 0xFC3 JUMP JUMPDEST ADD MLOAD PUSH1 0x0 NOT PUSH1 0xF8 DUP5 PUSH1 0x3 SHL AND SHR NOT AND SWAP1 SSTORE DUP4 DUP1 DUP1 PUSH2 0x234D JUMP JUMPDEST DUP2 DUP2 ADD MLOAD DUP4 SSTORE PUSH1 0x20 SWAP5 DUP6 ADD SWAP5 PUSH1 0x1 SWAP1 SWAP4 ADD SWAP3 SWAP1 SWAP2 ADD SWAP1 PUSH2 0x2332 JUMP JUMPDEST ADD MLOAD SWAP1 POP DUP4 DUP1 PUSH2 0xF47 JUMP JUMPDEST SWAP3 POP PUSH1 0x7 DUP5 ADD PUSH1 0x0 MSTORE PUSH1 0x20 PUSH1 0x0 KECCAK256 SWAP1 PUSH1 0x0 SWAP4 JUMPDEST PUSH1 0x1F NOT DUP5 AND DUP6 LT PUSH2 0x23F3 JUMPI PUSH1 0x1 SWAP5 POP DUP4 PUSH1 0x1F NOT DUP2 AND LT PUSH2 0x23DA JUMPI JUMPDEST POP POP POP DUP2 SHL ADD PUSH1 0x7 DUP3 ADD SSTORE PUSH2 0xF5F JUMP JUMPDEST ADD MLOAD PUSH1 0x0 NOT PUSH1 0xF8 DUP5 PUSH1 0x3 SHL AND SHR NOT AND SWAP1 SSTORE DUP4 DUP1 DUP1 PUSH2 0x23CA JUMP JUMPDEST DUP2 DUP2 ADD MLOAD DUP4 SSTORE PUSH1 0x20 SWAP5 DUP6 ADD SWAP5 PUSH1 0x1 SWAP1 SWAP4 ADD SWAP3 SWAP1 SWAP2 ADD SWAP1 PUSH2 0x23AF JUMP JUMPDEST ADD MLOAD SWAP1 POP DUP4 DUP1 PUSH2 0xEE4 JUMP JUMPDEST SWAP3 POP PUSH1 0x6 DUP5 ADD PUSH1 0x0 MSTORE PUSH1 0x20 PUSH1 0x0 KECCAK256 SWAP1 PUSH1 0x0 SWAP4 JUMPDEST PUSH1 0x1F NOT DUP5 AND DUP6 LT PUSH2 0x2470 JUMPI PUSH1 0x1 SWAP5 POP DUP4 PUSH1 0x1F NOT DUP2 AND LT PUSH2 0x2457 JUMPI JUMPDEST POP POP POP DUP2 SHL ADD PUSH1 0x6 DUP3 ADD SSTORE PUSH2 0xEFC JUMP JUMPDEST ADD MLOAD PUSH1 0x0 NOT PUSH1 0xF8 DUP5 PUSH1 0x3 SHL AND SHR NOT AND SWAP1 SSTORE DUP4 DUP1 DUP1 PUSH2 0x2447 JUMP JUMPDEST DUP2 DUP2 ADD MLOAD DUP4 SSTORE PUSH1 0x20 SWAP5 DUP6 ADD SWAP5 PUSH1 0x1 SWAP1 SWAP4 ADD SWAP3 SWAP1 SWAP2 ADD SWAP1 PUSH2 0x242C JUMP JUMPDEST ADD MLOAD SWAP1 POP DUP4 DUP1 PUSH2 0xE81 JUMP JUMPDEST SWAP3 POP PUSH1 0x5 DUP5 ADD PUSH1 0x0 MSTORE PUSH1 0x20 PUSH1 0x0 KECCAK256 SWAP1 PUSH1 0x0 SWAP4 JUMPDEST PUSH1 0x1F NOT DUP5 AND DUP6 LT PUSH2 0x24ED JUMPI PUSH1 0x1 SWAP5 POP DUP4 PUSH1 0x1F NOT DUP2 AND LT PUSH2 0x24D4 JUMPI JUMPDEST POP POP POP DUP2 SHL ADD PUSH1 0x5 DUP3 ADD SSTORE PUSH2 0xE99 JUMP JUMPDEST ADD MLOAD PUSH1 0x0 NOT PUSH1 0xF8 DUP5 PUSH1 0x3 SHL AND SHR NOT AND SWAP1 SSTORE DUP4 DUP1 DUP1 PUSH2 0x24C4 JUMP JUMPDEST DUP2 DUP2 ADD MLOAD DUP4 SSTORE PUSH1 0x20 SWAP5 DUP6 ADD SWAP5 PUSH1 0x1 SWAP1 SWAP4 ADD SWAP3 SWAP1 SWAP2 ADD SWAP1 PUSH2 0x24A9 JUMP JUMPDEST ADD MLOAD SWAP1 POP DUP4 DUP1 PUSH2 0xE1E JUMP JUMPDEST SWAP3 POP PUSH1 0x4 DUP5 ADD PUSH1 0x0 MSTORE PUSH1 0x20 PUSH1 0x0 KECCAK256 SWAP1 PUSH1 0x0 SWAP4 JUMPDEST PUSH1 0x1F NOT DUP5 AND DUP6 LT PUSH2 0x256A JUMPI PUSH1 0x1 SWAP5 POP DUP4 PUSH1 0x1F NOT DUP2 AND LT PUSH2 0x2551 JUMPI JUMPDEST POP POP POP DUP2 SHL ADD PUSH1 0x4 DUP3 ADD SSTORE PUSH2 0xE36 JUMP JUMPDEST ADD MLOAD PUSH1 0x0 NOT PUSH1 0xF8 DUP5 PUSH1 0x3 SHL AND SHR NOT AND SWAP1 SSTORE DUP4 DUP1 DUP1 PUSH2 0x2541 JUMP JUMPDEST DUP2 DUP2 ADD MLOAD DUP4 SSTORE PUSH1 0x20 SWAP5 DUP6 ADD SWAP5 PUSH1 0x1 SWAP1 SWAP4 ADD SWAP3 SWAP1 SWAP2 ADD SWAP1 PUSH2 0x2526 JUMP JUMPDEST ADD MLOAD SWAP1 POP DUP4 DUP1 PUSH2 0xDBB JUMP JUMPDEST SWAP3 POP PUSH1 0x3 DUP5 ADD PUSH1 0x0 MSTORE PUSH1 0x20 PUSH1 0x0 KECCAK256 SWAP1 PUSH1 0x0 SWAP4 JUMPDEST PUSH1 0x1F NOT DUP5 AND DUP6 LT PUSH2 0x25E7 JUMPI PUSH1 0x1 SWAP5 POP DUP4 PUSH1 0x1F NOT DUP2 AND LT PUSH2 0x25CE JUMPI JUMPDEST POP POP POP DUP2 SHL ADD PUSH1 0x3 DUP3 ADD SSTORE PUSH2 0xDD3 JUMP JUMPDEST ADD MLOAD PUSH1 0x0 NOT PUSH1 0xF8 DUP5 PUSH1 0x3 SHL AND SHR NOT AND SWAP1 SSTORE DUP4 DUP1 DUP1 PUSH2 0x25BE JUMP JUMPDEST DUP2 DUP2 ADD MLOAD DUP4 SSTORE PUSH1 0x20 SWAP5 DUP6 ADD SWAP5 PUSH1 0x1 SWAP1 SWAP4 ADD SWAP3 SWAP1 SWAP2 ADD SWAP1 PUSH2 0x25A3 JUMP JUMPDEST ADD MLOAD SWAP1 POP DUP4 DUP1 PUSH2 0xD58 JUMP JUMPDEST SWAP3 POP PUSH1 0x2 DUP5 ADD PUSH1 0x0 MSTORE PUSH1 0x20 PUSH1 0x0 KECCAK256 SWAP1 PUSH1 0x0 SWAP4 JUMPDEST PUSH1 0x1F NOT DUP5 AND DUP6 LT PUSH2 0x2664 JUMPI PUSH1 0x1 SWAP5 POP DUP4 PUSH1 0x1F NOT DUP2 AND LT PUSH2 0x264B JUMPI JUMPDEST POP POP POP DUP2 SHL ADD PUSH1 0x2 DUP3 ADD SSTORE PUSH2 0xD70 JUMP JUMPDEST ADD MLOAD PUSH1 0x0 NOT PUSH1 0xF8 DUP5 PUSH1 0x3 SHL AND SHR NOT AND SWAP1 SSTORE DUP4 DUP1 DUP1 PUSH2 0x263B JUMP JUMPDEST DUP2 DUP2 ADD MLOAD DUP4 SSTORE PUSH1 0x20 SWAP5 DUP6 ADD SWAP5 PUSH1 0x1 SWAP1 SWAP4 ADD SWAP3 SWAP1 SWAP2 ADD SWAP1 PUSH2 0x2620 JUMP JUMPDEST ADD MLOAD SWAP1 POP DUP4 DUP1 PUSH2 0xCF5 JUMP JUMPDEST SWAP3 POP PUSH1 0x1 DUP5 ADD PUSH1 0x0 MSTORE PUSH1 0x20 PUSH1 0x0 KECCAK256 SWAP1 PUSH1 0x0 SWAP4 JUMPDEST PUSH1 0x1F NOT DUP5 AND DUP6 LT PUSH2 0x26E1 JUMPI PUSH1 0x1 SWAP5 POP DUP4 PUSH1 0x1F NOT DUP2 AND LT PUSH2 0x26C8 JUMPI JUMPDEST POP POP POP DUP2 SHL ADD PUSH1 0x1 DUP3 ADD SSTORE PUSH2 0xD0D JUMP JUMPDEST ADD MLOAD PUSH1 0x0 NOT PUSH1 0xF8 DUP5 PUSH1 0x3 SHL AND SHR NOT AND SWAP1 SSTORE DUP4 DUP1 DUP1 PUSH2 0x26B8 JUMP JUMPDEST DUP2 DUP2 ADD MLOAD DUP4 SSTORE PUSH1 0x20 SWAP5 DUP6 ADD SWAP5 PUSH1 0x1 SWAP1 SWAP4 ADD SWAP3 SWAP1 SWAP2 ADD SWAP1 PUSH2 0x269D JUMP JUMPDEST ADD MLOAD SWAP1 POP DUP4 DUP1 PUSH2 0xC95 JUMP JUMPDEST SWAP3 POP DUP4 PUSH1 0x0 MSTORE PUSH1 0x20 PUSH1 0x0 KECCAK256 SWAP1 PUSH1 0x0 SWAP4 JUMPDEST PUSH1 0x1F NOT DUP5 AND DUP6 LT PUSH2 0x2758 JUMPI PUSH1 0x1 SWAP5 POP DUP4 PUSH1 0x1F NOT DUP2 AND LT PUSH2 0x273F JUMPI JUMPDEST POP POP POP DUP2 SHL ADD DUP2 SSTORE PUSH2 0xCAA JUMP JUMPDEST ADD MLOAD PUSH1 0x0 NOT PUSH1 0xF8 DUP5 PUSH1 0x3 SHL AND SHR NOT AND SWAP1 SSTORE DUP4 DUP1 DUP1 PUSH2 0x2732 JUMP JUMPDEST DUP2 DUP2 ADD MLOAD DUP4 SSTORE PUSH1 0x20 SWAP5 DUP6 ADD SWAP5 PUSH1 0x1 SWAP1 SWAP4 ADD SWAP3 SWAP1 SWAP2 ADD SWAP1 PUSH2 0x2717 JUMP JUMPDEST PUSH1 0x40 MLOAD PUSH3 0x461BCD PUSH1 0xE5 SHL DUP2 MSTORE PUSH1 0x20 PUSH1 0x4 DUP3 ADD MSTORE PUSH1 0xB PUSH1 0x24 DUP3 ADD MSTORE PUSH11 0x139BDD081CDD195DD85C99 PUSH1 0xAA SHL PUSH1 0x44 DUP3 ADD MSTORE PUSH1 0x64 SWAP1 REVERT JUMPDEST CALLVALUE PUSH2 0x525 JUMPI PUSH1 0x0 CALLDATASIZE PUSH1 0x3 NOT ADD SLT PUSH2 0x525 JUMPI PUSH1 0x20 PUSH1 0x2 SLOAD PUSH1 0x40 MLOAD SWAP1 DUP2 MSTORE RETURN JUMPDEST CALLVALUE PUSH2 0x525 JUMPI PUSH1 0x20 CALLDATASIZE PUSH1 0x3 NOT ADD SLT PUSH2 0x525 JUMPI PUSH1 0x4 CALLDATALOAD PUSH1 0x1 PUSH1 0x1 PUSH1 0x40 SHL SUB DUP2 GT PUSH2 0x525 JUMPI PUSH2 0x27F4 SWAP1 CALLDATASIZE SWAP1 PUSH1 0x4 ADD PUSH2 0x2FDA JUMP JUMPDEST SWAP1 PUSH1 0x40 MLOAD PUSH2 0x2801 DUP2 PUSH2 0x2EAF JUMP JUMPDEST PUSH1 0x60 DUP2 MSTORE PUSH1 0x20 DUP2 ADD PUSH1 0x60 SWAP1 MSTORE PUSH1 0x40 DUP2 ADD PUSH1 0x60 SWAP1 MSTORE PUSH1 0x60 DUP2 ADD PUSH1 0x60 SWAP1 MSTORE PUSH1 0x80 DUP2 ADD PUSH1 0x60 SWAP1 MSTORE PUSH1 0xA0 DUP2 ADD PUSH1 0x60 SWAP1 MSTORE PUSH1 0xC0 DUP2 ADD PUSH1 0x60 SWAP1 MSTORE PUSH1 0xE0 DUP2 ADD PUSH1 0x60 SWAP1 MSTORE PUSH2 0x100 DUP2 ADD PUSH1 0x60 SWAP1 MSTORE PUSH2 0x120 DUP2 ADD PUSH1 0x60 SWAP1 MSTORE PUSH2 0x140 DUP2 ADD PUSH1 0x60 SWAP1 MSTORE PUSH2 0x160 DUP2 ADD PUSH1 0x60 SWAP1 MSTORE PUSH2 0x180 DUP2 ADD PUSH1 0x60 SWAP1 MSTORE PUSH2 0x1A0 DUP2 ADD PUSH1 0x60 SWAP1 MSTORE PUSH2 0x1C0 DUP2 ADD PUSH1 0x60 SWAP1 MSTORE PUSH2 0x1E0 DUP2 ADD PUSH1 0x60 SWAP1 MSTORE PUSH2 0x200 DUP2 ADD PUSH1 0x60 SWAP1 MSTORE PUSH2 0x220 DUP2 ADD PUSH1 0x60 SWAP1 MSTORE PUSH2 0x240 DUP2 ADD PUSH1 0x60 SWAP1 MSTORE PUSH2 0x260 DUP2 ADD PUSH1 0x60 SWAP1 MSTORE PUSH2 0x280 DUP2 ADD PUSH1 0x60 SWAP1 MSTORE PUSH2 0x2A0 DUP2 ADD PUSH1 0x60 SWAP1 MSTORE PUSH2 0x2C0 DUP2 ADD PUSH1 0x60 SWAP1 MSTORE PUSH2 0x2E0 DUP2 ADD PUSH1 0x60 SWAP1 MSTORE PUSH2 0x300 DUP2 ADD PUSH1 0x60 SWAP1 MSTORE PUSH2 0x320 ADD PUSH1 0x60 SWAP1 MSTORE DUP2 PUSH1 0x40 MLOAD SWAP3 DUP4 SWAP3 DUP4 CALLDATACOPY DUP2 ADD PUSH1 0x1 DUP2 MSTORE SUB PUSH1 0x20 ADD SWAP1 KECCAK256 PUSH1 0x40 MLOAD SWAP1 PUSH2 0x2900 DUP3 PUSH2 0x2EAF JUMP JUMPDEST PUSH2 0x2909 DUP2 PUSH2 0x2EEC JUMP JUMPDEST DUP3 MSTORE PUSH2 0x2917 PUSH1 0x1 DUP3 ADD PUSH2 0x2EEC JUMP JUMPDEST PUSH1 0x20 DUP4 ADD MSTORE PUSH2 0x2928 PUSH1 0x2 DUP3 ADD PUSH2 0x2EEC JUMP JUMPDEST PUSH1 0x40 DUP4 ADD MSTORE PUSH2 0x2939 PUSH1 0x3 DUP3 ADD PUSH2 0x2EEC JUMP JUMPDEST PUSH1 0x60 DUP4 ADD MSTORE PUSH2 0x294A PUSH1 0x4 DUP3 ADD PUSH2 0x2EEC JUMP JUMPDEST PUSH1 0x80 DUP4 ADD MSTORE PUSH2 0x295B PUSH1 0x5 DUP3 ADD PUSH2 0x2EEC JUMP JUMPDEST PUSH1 0xA0 DUP4 ADD MSTORE PUSH2 0x296C PUSH1 0x6 DUP3 ADD PUSH2 0x2EEC JUMP JUMPDEST PUSH1 0xC0 DUP4 ADD MSTORE PUSH2 0x297D PUSH1 0x7 DUP3 ADD PUSH2 0x2EEC JUMP JUMPDEST PUSH1 0xE0 DUP4 ADD MSTORE PUSH2 0x298E PUSH1 0x8 DUP3 ADD PUSH2 0x2EEC JUMP JUMPDEST PUSH2 0x100 DUP4 ADD MSTORE PUSH2 0x29A0 PUSH1 0x9 DUP3 ADD PUSH2 0x2EEC JUMP JUMPDEST PUSH2 0x120 DUP4 ADD MSTORE PUSH2 0x29B2 PUSH1 0xA DUP3 ADD PUSH2 0x2EEC JUMP JUMPDEST PUSH2 0x140 DUP4 ADD MSTORE PUSH2 0x29C4 PUSH1 0xB DUP3 ADD PUSH2 0x2EEC JUMP JUMPDEST PUSH2 0x160 DUP4 ADD MSTORE PUSH2 0x29D6 PUSH1 0xC DUP3 ADD PUSH2 0x2EEC JUMP JUMPDEST PUSH2 0x180 DUP4 ADD MSTORE PUSH2 0x29E8 PUSH1 0xD DUP3 ADD PUSH2 0x2EEC JUMP JUMPDEST PUSH2 0x1A0 DUP4 ADD MSTORE PUSH2 0x29FA PUSH1 0xE DUP3 ADD PUSH2 0x2EEC JUMP JUMPDEST PUSH2 0x1C0 DUP4 ADD MSTORE PUSH2 0x2A0C PUSH1 0xF DUP3 ADD PUSH2 0x2EEC JUMP JUMPDEST PUSH2 0x1E0 DUP4 ADD MSTORE PUSH2 0x2A1E PUSH1 0x10 DUP3 ADD PUSH2 0x2EEC JUMP JUMPDEST PUSH2 0x200 DUP4 ADD MSTORE PUSH2 0x2A30 PUSH1 0x11 DUP3 ADD PUSH2 0x2EEC JUMP JUMPDEST PUSH2 0x220 DUP4 ADD MSTORE PUSH2 0x2A42 PUSH1 0x12 DUP3 ADD PUSH2 0x2EEC JUMP JUMPDEST PUSH2 0x240 DUP4 ADD MSTORE PUSH2 0x2A54 PUSH1 0x13 DUP3 ADD PUSH2 0x2EEC JUMP JUMPDEST PUSH2 0x260 DUP4 ADD MSTORE PUSH2 0x2A66 PUSH1 0x14 DUP3 ADD PUSH2 0x2EEC JUMP JUMPDEST PUSH2 0x280 DUP4 ADD MSTORE PUSH2 0x2A78 PUSH1 0x15 DUP3 ADD PUSH2 0x2EEC JUMP JUMPDEST PUSH2 0x2A0 DUP4 ADD MSTORE PUSH2 0x2A8A PUSH1 0x16 DUP3 ADD PUSH2 0x2EEC JUMP JUMPDEST PUSH2 0x2C0 DUP4 ADD MSTORE PUSH2 0x2A9C PUSH1 0x17 DUP3 ADD PUSH2 0x2EEC JUMP JUMPDEST PUSH2 0x2E0 DUP4 ADD MSTORE PUSH2 0x2AAE PUSH1 0x18 DUP3 ADD PUSH2 0x2EEC JUMP JUMPDEST PUSH2 0x300 DUP4 ADD MSTORE PUSH1 0x19 ADD PUSH2 0x2AC0 SWAP1 PUSH2 0x2EEC JUMP JUMPDEST PUSH2 0x320 DUP3 ADD MSTORE PUSH1 0x40 MLOAD DUP1 SWAP2 PUSH1 0x20 DUP3 MSTORE DUP1 MLOAD PUSH1 0x20 DUP4 ADD PUSH2 0x340 SWAP1 MSTORE PUSH2 0x360 DUP4 ADD PUSH2 0x2AE8 SWAP2 PUSH2 0x2FB5 JUMP JUMPDEST PUSH1 0x20 DUP3 ADD MLOAD DUP4 DUP3 SUB PUSH1 0x1F NOT ADD PUSH1 0x40 DUP6 ADD MSTORE PUSH2 0x2B03 SWAP2 SWAP1 PUSH2 0x2FB5 JUMP JUMPDEST PUSH1 0x40 DUP3 ADD MLOAD DUP4 DUP3 SUB PUSH1 0x1F NOT ADD PUSH1 0x60 DUP6 ADD MSTORE PUSH2 0x2B1E SWAP2 SWAP1 PUSH2 0x2FB5 JUMP JUMPDEST PUSH1 0x60 DUP3 ADD MLOAD DUP4 DUP3 SUB PUSH1 0x1F NOT ADD PUSH1 0x80 DUP6 ADD MSTORE PUSH2 0x2B39 SWAP2 SWAP1 PUSH2 0x2FB5 JUMP JUMPDEST PUSH1 0x80 DUP3 ADD MLOAD DUP4 DUP3 SUB PUSH1 0x1F NOT ADD PUSH1 0xA0 DUP6 ADD MSTORE PUSH2 0x2B54 SWAP2 SWAP1 PUSH2 0x2FB5 JUMP JUMPDEST PUSH1 0xA0 DUP3 ADD MLOAD DUP4 DUP3 SUB PUSH1 0x1F NOT ADD PUSH1 0xC0 DUP6 ADD MSTORE PUSH2 0x2B6F SWAP2 SWAP1 PUSH2 0x2FB5 JUMP JUMPDEST PUSH1 0xC0 DUP3 ADD MLOAD DUP4 DUP3 SUB PUSH1 0x1F NOT ADD PUSH1 0xE0 DUP6 ADD MSTORE PUSH2 0x2B8A SWAP2 SWAP1 PUSH2 0x2FB5 JUMP JUMPDEST PUSH1 0xE0 DUP3 ADD MLOAD DUP4 DUP3 SUB PUSH1 0x1F NOT ADD PUSH2 0x100 DUP6 ADD MSTORE PUSH2 0x2BA6 SWAP2 SWAP1 PUSH2 0x2FB5 JUMP JUMPDEST PUSH2 0x100 DUP3 ADD MLOAD DUP4 DUP3 SUB PUSH1 0x1F NOT ADD PUSH2 0x120 DUP6 ADD MSTORE PUSH2 0x2BC3 SWAP2 SWAP1 PUSH2 0x2FB5 JUMP JUMPDEST PUSH2 0x120 DUP3 ADD MLOAD DUP4 DUP3 SUB PUSH1 0x1F NOT ADD PUSH2 0x140 DUP6 ADD MSTORE PUSH2 0x2BE0 SWAP2 SWAP1 PUSH2 0x2FB5 JUMP JUMPDEST PUSH2 0x140 DUP3 ADD MLOAD DUP4 DUP3 SUB PUSH1 0x1F NOT ADD PUSH2 0x160 DUP6 ADD MSTORE PUSH2 0x2BFD SWAP2 SWAP1 PUSH2 0x2FB5 JUMP JUMPDEST PUSH2 0x160 DUP3 ADD MLOAD DUP4 DUP3 SUB PUSH1 0x1F NOT ADD PUSH2 0x180 DUP6 ADD MSTORE PUSH2 0x2C1A SWAP2 SWAP1 PUSH2 0x2FB5 JUMP JUMPDEST PUSH2 0x180 DUP3 ADD MLOAD DUP4 DUP3 SUB PUSH1 0x1F NOT ADD PUSH2 0x1A0 DUP6 ADD MSTORE PUSH2 0x2C37 SWAP2 SWAP1 PUSH2 0x2FB5 JUMP JUMPDEST PUSH2 0x1A0 DUP3 ADD MLOAD DUP4 DUP3 SUB PUSH1 0x1F NOT ADD PUSH2 0x1C0 DUP6 ADD MSTORE PUSH2 0x2C54 SWAP2 SWAP1 PUSH2 0x2FB5 JUMP JUMPDEST PUSH2 0x1C0 DUP3 ADD MLOAD DUP4 DUP3 SUB PUSH1 0x1F NOT ADD PUSH2 0x1E0 DUP6 ADD MSTORE PUSH2 0x2C71 SWAP2 SWAP1 PUSH2 0x2FB5 JUMP JUMPDEST PUSH2 0x1E0 DUP3 ADD MLOAD DUP4 DUP3 SUB PUSH1 0x1F NOT ADD PUSH2 0x200 DUP6 ADD MSTORE PUSH2 0x2C8E SWAP2 SWAP1 PUSH2 0x2FB5 JUMP JUMPDEST PUSH2 0x200 DUP3 ADD MLOAD DUP4 DUP3 SUB PUSH1 0x1F NOT ADD PUSH2 0x220 DUP6 ADD MSTORE PUSH2 0x2CAB SWAP2 SWAP1 PUSH2 0x2FB5 JUMP JUMPDEST PUSH2 0x220 DUP3 ADD MLOAD DUP4 DUP3 SUB PUSH1 0x1F NOT ADD PUSH2 0x240 DUP6 ADD MSTORE PUSH2 0x2CC8 SWAP2 SWAP1 PUSH2 0x2FB5 JUMP JUMPDEST PUSH2 0x240 DUP3 ADD MLOAD DUP4 DUP3 SUB PUSH1 0x1F NOT ADD PUSH2 0x260 DUP6 ADD MSTORE PUSH2 0x2CE5 SWAP2 SWAP1 PUSH2 0x2FB5 JUMP JUMPDEST PUSH2 0x260 DUP3 ADD MLOAD DUP4 DUP3 SUB PUSH1 0x1F NOT ADD PUSH2 0x280 DUP6 ADD MSTORE PUSH2 0x2D02 SWAP2 SWAP1 PUSH2 0x2FB5 JUMP JUMPDEST PUSH2 0x280 DUP3 ADD MLOAD DUP4 DUP3 SUB PUSH1 0x1F NOT ADD PUSH2 0x2A0 DUP6 ADD MSTORE PUSH2 0x2D1F SWAP2 SWAP1 PUSH2 0x2FB5 JUMP JUMPDEST PUSH2 0x2A0 DUP3 ADD MLOAD DUP4 DUP3 SUB PUSH1 0x1F NOT ADD PUSH2 0x2C0 DUP6 ADD MSTORE PUSH2 0x2D3C SWAP2 SWAP1 PUSH2 0x2FB5 JUMP JUMPDEST PUSH2 0x2C0 DUP3 ADD MLOAD DUP4 DUP3 SUB PUSH1 0x1F NOT ADD PUSH2 0x2E0 DUP6 ADD MSTORE PUSH2 0x2D59 SWAP2 SWAP1 PUSH2 0x2FB5 JUMP JUMPDEST PUSH2 0x2E0 DUP3 ADD MLOAD DUP4 DUP3 SUB PUSH1 0x1F NOT ADD PUSH2 0x300 DUP6 ADD MSTORE PUSH2 0x2D76 SWAP2 SWAP1 PUSH2 0x2FB5 JUMP JUMPDEST PUSH2 0x300 DUP3 ADD MLOAD DUP4 DUP3 SUB PUSH1 0x1F NOT ADD PUSH2 0x320 DUP6 ADD MSTORE PUSH2 0x2D93 SWAP2 SWAP1 PUSH2 0x2FB5 JUMP JUMPDEST SWAP1 PUSH2 0x320 ADD MLOAD SWAP1 PUSH1 0x1F NOT DUP4 DUP3 SUB ADD PUSH2 0x340 DUP5 ADD MSTORE PUSH2 0x2DB0 SWAP2 PUSH2 0x2FB5 JUMP JUMPDEST SUB SWAP1 RETURN JUMPDEST CALLVALUE PUSH2 0x525 JUMPI PUSH1 0x0 CALLDATASIZE PUSH1 0x3 NOT ADD SLT PUSH2 0x525 JUMPI PUSH1 0x0 SLOAD PUSH1 0x40 MLOAD PUSH1 0x1 PUSH1 0x1 PUSH1 0xA0 SHL SUB SWAP1 SWAP2 AND DUP2 MSTORE PUSH1 0x20 SWAP1 RETURN JUMPDEST CALLVALUE PUSH2 0x525 JUMPI PUSH1 0x20 CALLDATASIZE PUSH1 0x3 NOT ADD SLT PUSH2 0x525 JUMPI PUSH1 0x4 CALLDATALOAD PUSH1 0x2 SLOAD DUP2 LT ISZERO PUSH2 0x525 JUMPI PUSH2 0x2E04 SWAP1 PUSH2 0x2E28 JUMP JUMPDEST PUSH2 0x1AB3 JUMPI PUSH2 0x2E14 PUSH2 0x2DB0 SWAP2 PUSH2 0x2EEC JUMP JUMPDEST PUSH1 0x40 MLOAD SWAP2 DUP3 SWAP2 PUSH1 0x20 DUP4 MSTORE PUSH1 0x20 DUP4 ADD SWAP1 PUSH2 0x2FB5 JUMP JUMPDEST PUSH1 0x2 SLOAD DUP2 LT ISZERO PUSH2 0x2E5F JUMPI PUSH1 0x2 PUSH1 0x0 MSTORE PUSH32 0x405787FA12A823E0F2B7631CC41B3BA8828B3321CA811111FA75CD3AA3BB5ACE ADD SWAP1 PUSH1 0x0 SWAP1 JUMP JUMPDEST PUSH4 0x4E487B71 PUSH1 0xE0 SHL PUSH1 0x0 MSTORE PUSH1 0x32 PUSH1 0x4 MSTORE PUSH1 0x24 PUSH1 0x0 REVERT JUMPDEST SWAP1 PUSH1 0x1 DUP3 DUP2 SHR SWAP3 AND DUP1 ISZERO PUSH2 0x2EA5 JUMPI JUMPDEST PUSH1 0x20 DUP4 LT EQ PUSH2 0x2E8F JUMPI JUMP JUMPDEST PUSH4 0x4E487B71 PUSH1 0xE0 SHL PUSH1 0x0 MSTORE PUSH1 0x22 PUSH1 0x4 MSTORE PUSH1 0x24 PUSH1 0x0 REVERT JUMPDEST SWAP2 PUSH1 0x7F AND SWAP2 PUSH2 0x2E84 JUMP JUMPDEST PUSH2 0x340 DUP2 ADD SWAP1 DUP2 LT PUSH1 0x1 PUSH1 0x1 PUSH1 0x40 SHL SUB DUP3 GT OR PUSH2 0x1A9D JUMPI PUSH1 0x40 MSTORE JUMP JUMPDEST SWAP1 PUSH1 0x1F DUP1 NOT SWAP2 ADD AND DUP2 ADD SWAP1 DUP2 LT PUSH1 0x1 PUSH1 0x1 PUSH1 0x40 SHL SUB DUP3 GT OR PUSH2 0x1A9D JUMPI PUSH1 0x40 MSTORE JUMP JUMPDEST SWAP1 PUSH1 0x40 MLOAD SWAP2 DUP3 PUSH1 0x0 DUP3 SLOAD SWAP3 PUSH2 0x2F00 DUP5 PUSH2 0x2E75 JUMP JUMPDEST SWAP1 DUP2 DUP5 MSTORE PUSH1 0x1 SWAP5 DUP6 DUP2 AND SWAP1 DUP2 PUSH1 0x0 EQ PUSH2 0x2F6F JUMPI POP PUSH1 0x1 EQ PUSH2 0x2F2C JUMPI JUMPDEST POP POP PUSH2 0x2F2A SWAP3 POP SUB DUP4 PUSH2 0x2ECB JUMP JUMPDEST JUMP JUMPDEST SWAP1 SWAP4 SWAP2 POP PUSH1 0x0 MSTORE PUSH1 0x20 SWAP1 DUP2 PUSH1 0x0 KECCAK256 SWAP4 PUSH1 0x0 SWAP2 JUMPDEST DUP2 DUP4 LT PUSH2 0x2F57 JUMPI POP POP PUSH2 0x2F2A SWAP4 POP DUP3 ADD ADD CODESIZE DUP1 PUSH2 0x2F1C JUMP JUMPDEST DUP6 SLOAD DUP9 DUP5 ADD DUP6 ADD MSTORE SWAP5 DUP6 ADD SWAP5 DUP8 SWAP5 POP SWAP2 DUP4 ADD SWAP2 PUSH2 0x2F3F JUMP JUMPDEST SWAP2 POP POP PUSH2 0x2F2A SWAP5 POP PUSH1 0x20 SWAP3 POP PUSH1 0xFF NOT AND DUP3 DUP5 ADD MSTORE ISZERO ISZERO PUSH1 0x5 SHL DUP3 ADD ADD CODESIZE DUP1 PUSH2 0x2F1C JUMP JUMPDEST PUSH1 0x0 JUMPDEST DUP4 DUP2 LT PUSH2 0x2FA5 JUMPI POP POP PUSH1 0x0 SWAP2 ADD MSTORE JUMP JUMPDEST DUP2 DUP2 ADD MLOAD DUP4 DUP3 ADD MSTORE PUSH1 0x20 ADD PUSH2 0x2F95 JUMP JUMPDEST SWAP1 PUSH1 0x20 SWAP2 PUSH2 0x2FCE DUP2 MLOAD DUP1 SWAP3 DUP2 DUP6 MSTORE DUP6 DUP1 DUP7 ADD SWAP2 ADD PUSH2 0x2F92 JUMP JUMPDEST PUSH1 0x1F ADD PUSH1 0x1F NOT AND ADD ADD SWAP1 JUMP JUMPDEST SWAP2 DUP2 PUSH1 0x1F DUP5 ADD SLT ISZERO PUSH2 0x525 JUMPI DUP3 CALLDATALOAD SWAP2 PUSH1 0x1 PUSH1 0x1 PUSH1 0x40 SHL SUB DUP4 GT PUSH2 0x525 JUMPI PUSH1 0x20 DUP4 DUP2 DUP7 ADD SWAP6 ADD ADD GT PUSH2 0x525 JUMPI JUMP JUMPDEST SWAP3 SWAP2 SWAP3 PUSH1 0x1 PUSH1 0x1 PUSH1 0x40 SHL SUB DUP3 GT PUSH2 0x1A9D JUMPI PUSH1 0x40 MLOAD SWAP2 PUSH2 0x3030 PUSH1 0x1F DUP3 ADD PUSH1 0x1F NOT AND PUSH1 0x20 ADD DUP5 PUSH2 0x2ECB JUMP JUMPDEST DUP3 SWAP5 DUP2 DUP5 MSTORE DUP2 DUP4 ADD GT PUSH2 0x525 JUMPI DUP3 DUP2 PUSH1 0x20 SWAP4 DUP5 PUSH1 0x0 SWAP7 ADD CALLDATACOPY ADD ADD MSTORE JUMP JUMPDEST SWAP1 PUSH1 0x1F DUP2 GT PUSH2 0x305B JUMPI POP POP POP JUMP JUMPDEST PUSH1 0x0 SWAP2 DUP3 MSTORE PUSH1 0x20 DUP3 KECCAK256 SWAP1 PUSH1 0x20 PUSH1 0x1F DUP6 ADD PUSH1 0x5 SHR DUP4 ADD SWAP5 LT PUSH2 0x3097 JUMPI JUMPDEST PUSH1 0x1F ADD PUSH1 0x5 SHR ADD SWAP2 JUMPDEST DUP3 DUP2 LT PUSH2 0x308C JUMPI POP POP POP JUMP JUMPDEST DUP2 DUP2 SSTORE PUSH1 0x1 ADD PUSH2 0x3080 JUMP JUMPDEST SWAP1 SWAP3 POP DUP3 SWAP1 PUSH2 0x3077 JUMP JUMPDEST SWAP1 DUP1 PUSH1 0x20 SWAP4 SWAP3 DUP2 DUP5 MSTORE DUP5 DUP5 ADD CALLDATACOPY PUSH1 0x0 DUP3 DUP3 ADD DUP5 ADD MSTORE PUSH1 0x1F ADD PUSH1 0x1F NOT AND ADD ADD SWAP1 JUMP INVALID LOG2 PUSH5 0x6970667358 0x22 SLT KECCAK256 0xCA 0x4D 0x4B 0x2E MUL 0xDA 0xD5 JUMP 0xF8 CALL 0xAB SWAP9 PUSH1 0x77 PUSH9 0xD7570BDA06CB675940 PUSH14 0xAD94349452594F64736F6C634300 ADDMOD EQ STOP CALLER "},"methodIdentifiers":{"codices(string)":"dbc21424","getCodex(string)":"83361522","inscribeCodex(string,string,string,string,string,string,string,string,string,string,string,string,string,string,string,string,string,string,string,string,string,string,string,string,string,string,string)":"cf49234a","keys(uint256)":"0cb6aaf1","steward()":"637eea19","totalCodices()":"c212d16b"}}}}}