{"contracts/manifest/TerrainSignalSanctum.sol":{"TerrainSignalSanctum":{"abi":[{"inputs":[],"stateMutability":"nonpayable","type":"constructor"},{"anonymous":false,"inputs":[{"indexed":false,"internalType":"string","name":"glyph","type":"string"},{"indexed":false,"internalType":"string","name":"signalChoreography","type":"string"},{"indexed":false,"internalType":"string","name":"sanctum","type":"string"},{"indexed":false,"internalType":"string","name":"choreography","type":"string"},{"indexed":false,"internalType":"string","name":"chant","type":"string"}],"name":"SignalSanctumRouted","type":"event"},{"inputs":[{"internalType":"string","name":"glyph","type":"string"}],"name":"getRoute","outputs":[{"components":[{"internalType":"string","name":"glyph","type":"string"},{"internalType":"string","name":"signalChoreography","type":"string"},{"internalType":"string","name":"sanctum","type":"string"},{"internalType":"string","name":"choreography","type":"string"},{"internalType":"string","name":"chant","type":"string"}],"internalType":"struct TerrainSignalSanctum.Route","name":"","type":"tuple"}],"stateMutability":"view","type":"function"},{"inputs":[{"internalType":"uint256","name":"","type":"uint256"}],"name":"keys","outputs":[{"internalType":"string","name":"","type":"string"}],"stateMutability":"view","type":"function"},{"inputs":[{"internalType":"string","name":"glyph","type":"string"},{"internalType":"string","name":"signalChoreography","type":"string"},{"internalType":"string","name":"sanctum","type":"string"},{"internalType":"string","name":"choreography","type":"string"},{"internalType":"string","name":"chant","type":"string"}],"name":"routeSignalSanctum","outputs":[],"stateMutability":"nonpayable","type":"function"},{"inputs":[{"internalType":"string","name":"","type":"string"}],"name":"routes","outputs":[{"internalType":"string","name":"glyph","type":"string"},{"internalType":"string","name":"signalChoreography","type":"string"},{"internalType":"string","name":"sanctum","type":"string"},{"internalType":"string","name":"choreography","type":"string"},{"internalType":"string","name":"chant","type":"string"}],"stateMutability":"view","type":"function"},{"inputs":[],"name":"steward","outputs":[{"internalType":"address","name":"","type":"address"}],"stateMutability":"view","type":"function"},{"inputs":[],"name":"totalRoutes","outputs":[{"internalType":"uint256","name":"","type":"uint256"}],"stateMutability":"view","type":"function"}],"evm":{"bytecode":{"linkReferences":{},"object":"6080806040523461002857600080546001600160a01b03191633179055610d3c908161002e8239f35b600080fdfe608080604052600436101561001357600080fd5b60003560e01c90816305a2d3ac14610a52575080630cb6aaf114610a0757806310073aea146102d45780631b5f03a61461018d578063637eea19146101645763cffbffb51461006157600080fd5b3461015f57602036600319011261015f576004356001600160401b03811161015f573660238201121561015f576100bd60206100aa610123933690602481600401359101610c4b565b8160405193828580945193849201610bd6565b8101600181520301902061015b6100d382610b30565b9161014d6100e360018301610b30565b9161013f6100f360028301610b30565b61013161010e600461010760038701610b30565b9501610b30565b95604051998a9960a08b5260a08b0190610bf9565b9089820360208b0152610bf9565b908782036040890152610bf9565b908582036060870152610bf9565b908382036080850152610bf9565b0390f35b600080fd5b3461015f57600036600319011261015f576000546040516001600160a01b039091168152602090f35b3461015f5760208060031936011261015f57600435906001600160401b03821161015f5761015b816101c56080943690600401610c1e565b91906040516101d381610af4565b606096818880935282858201528260408201528280820152015282604051938492833781016001815203019020926040519361020e85610af4565b61021781610b30565b85526102c361022860018301610b30565b918587019283526102b261023e60028301610b30565b60408901908152610263600461025660038601610b30565b94888c0195865201610b30565b9560808a019687526102a161028b8a60a06040519d8e9d8e5251918d015260c08c0190610bf9565b965196601f1997888c83030160408d0152610bf9565b915190868a840301908a0152610bf9565b905183878303016080880152610bf9565b9151908483030160a0850152610bf9565b3461015f5760a036600319011261015f576004356001600160401b03811161015f57610304903690600401610c1e565b6024356001600160401b03811161015f57610323903690600401610c1e565b906044356001600160401b03811161015f57610343903690600401610c1e565b906064356001600160401b03811161015f57610363903690600401610c1e565b9190926084356001600160401b03811161015f57610385903690600401610c1e565b60005491979096916001600160a01b031633036109d4576040516103a881610af4565b6103b3368b8d610c4b565b81526103c0368385610c4b565b60208201526103d0368587610c4b565b60408201526103e0368789610c4b565b60608201526103f036898b610c4b565b60808201526040518a8c82376020818c810160018152030190209080518051906001600160401b0382116107485781906104348261042e8754610aba565b87610c91565b602090601f83116001146109685760009261095d575b50508160011b916000199060031b1c19161782555b60208101518051906001600160401b038211610748578190610491826104886001880154610aba565b60018801610c91565b602090601f83116001146108eb576000926108e0575b50508160011b916000199060031b1c19161760018301555b60408101518051906001600160401b0382116107485781906104f1826104e86002880154610aba565b60028801610c91565b602090601f831160011461086e57600092610863575b50508160011b916000199060031b1c19161760028301555b60608101518051906001600160401b0382116107485761054f826105466003870154610aba565b60038701610c91565b602090601f83116001146107f0576080939291600091836107e5575b50508160011b916000199060031b1c19161760038401555b0151908151906001600160401b038211610748576004829101926105b1826105ab8654610aba565b86610c91565b602090601f831160011461077f57600092610774575b50508160011b916000199060031b1c19161790555b60025468010000000000000000811015610748578060016106009201600255610a6d565b61075e576001600160401b038a11610748576106268a6106208354610aba565b83610c91565b896000601f82116001146106e1576000916106d6575b508a60011b906000198c60031b1c19161790555b604051998a9960a08b5260a08b019061066892610ce5565b9089820360208b015261067a92610ce5565b90878203604089015261068c92610ce5565b90858203606087015261069e92610ce5565b9083820360808501526106b092610ce5565b037fd08ea42c81a64e64bf7f9ccf6721889e2e6cbae3395cf68f0cc6dcf9dba59a1c91a1005b90508b01358c61063c565b60008381526020812092505b8d601f198e1682106107305750508b601f19811610610716575b505060018a811b019055610650565b8c013560001960038d901b60f8161c191690558b80610707565b600183946020939484930135815501930191016106ed565b634e487b7160e01b600052604160045260246000fd5b634e487b7160e01b600052600060045260246000fd5b015190508d806105c7565b6000858152602081209350601f198516905b8181106107cd57509084600195949392106107b4575b505050811b0190556105dc565b015160001960f88460031b161c191690558d80806107a7565b92936020600181928786015181550195019301610791565b015190508f8061056b565b906003850160005260206000209160005b601f198516811061084b575091839160019360809695601f19811610610832575b505050811b016003840155610583565b015160001960f88460031b161c191690558f8080610822565b91926020600181928685015181550194019201610801565b015190508e80610507565b9250600285016000526020600020906000935b601f19841685106108c5576001945083601f198116106108ac575b505050811b01600283015561051f565b015160001960f88460031b161c191690558e808061089c565b81810151835560209485019460019093019290910190610881565b015190508e806104a7565b9250600185016000526020600020906000935b601f1984168510610942576001945083601f19811610610929575b505050811b0160018301556104bf565b015160001960f88460031b161c191690558e8080610919565b818101518355602094850194600190930192909101906108fe565b015190508e8061044a565b9250846000526020600020906000935b601f19841685106109b9576001945083601f198116106109a0575b505050811b01825561045f565b015160001960f88460031b161c191690558e8080610993565b81810151835560209485019460019093019290910190610978565b60405162461bcd60e51b815260206004820152600b60248201526a139bdd081cdd195dd85c9960aa1b6044820152606490fd5b3461015f57602036600319011261015f5760043560025481101561015f57610a2e90610a6d565b61075e57610a3e61015b91610b30565b604051918291602083526020830190610bf9565b3461015f57600036600319011261015f576020906002548152f35b600254811015610aa45760026000527f405787fa12a823e0f2b7631cc41b3ba8828b3321ca811111fa75cd3aa3bb5ace0190600090565b634e487b7160e01b600052603260045260246000fd5b90600182811c92168015610aea575b6020831014610ad457565b634e487b7160e01b600052602260045260246000fd5b91607f1691610ac9565b60a081019081106001600160401b0382111761074857604052565b90601f801991011681019081106001600160401b0382111761074857604052565b9060405191826000825492610b4484610aba565b908184526001948581169081600014610bb35750600114610b70575b5050610b6e92500383610b0f565b565b9093915060005260209081600020936000915b818310610b9b575050610b6e93508201013880610b60565b85548884018501529485019487945091830191610b83565b915050610b6e94506020925060ff191682840152151560051b8201013880610b60565b60005b838110610be95750506000910152565b8181015183820152602001610bd9565b90602091610c1281518092818552858086019101610bd6565b601f01601f1916010190565b9181601f8401121561015f578235916001600160401b03831161015f576020838186019501011161015f57565b9291926001600160401b0382116107485760405191610c74601f8201601f191660200184610b0f565b82948184528183011161015f578281602093846000960137010152565b90601f8111610c9f57505050565b600091825260208220906020601f850160051c83019410610cdb575b601f0160051c01915b828110610cd057505050565b818155600101610cc4565b9092508290610cbb565b908060209392818452848401376000828201840152601f01601f191601019056fea264697066735822122051d542b401186390c59a17d47dc8d132ddc343f9fad975ea5c6c82b22202aa7d64736f6c63430008140033","opcodes":"PUSH1 0x80 DUP1 PUSH1 0x40 MSTORE CALLVALUE PUSH2 0x28 JUMPI PUSH1 0x0 DUP1 SLOAD PUSH1 0x1 PUSH1 0x1 PUSH1 0xA0 SHL SUB NOT AND CALLER OR SWAP1 SSTORE PUSH2 0xD3C SWAP1 DUP2 PUSH2 0x2E DUP3 CODECOPY RETURN JUMPDEST PUSH1 0x0 DUP1 REVERT INVALID PUSH1 0x80 DUP1 PUSH1 0x40 MSTORE PUSH1 0x4 CALLDATASIZE LT ISZERO PUSH2 0x13 JUMPI PUSH1 0x0 DUP1 REVERT JUMPDEST PUSH1 0x0 CALLDATALOAD PUSH1 0xE0 SHR SWAP1 DUP2 PUSH4 0x5A2D3AC EQ PUSH2 0xA52 JUMPI POP DUP1 PUSH4 0xCB6AAF1 EQ PUSH2 0xA07 JUMPI DUP1 PUSH4 0x10073AEA EQ PUSH2 0x2D4 JUMPI DUP1 PUSH4 0x1B5F03A6 EQ PUSH2 0x18D JUMPI DUP1 PUSH4 0x637EEA19 EQ PUSH2 0x164 JUMPI PUSH4 0xCFFBFFB5 EQ PUSH2 0x61 JUMPI PUSH1 0x0 DUP1 REVERT JUMPDEST CALLVALUE PUSH2 0x15F JUMPI PUSH1 0x20 CALLDATASIZE PUSH1 0x3 NOT ADD SLT PUSH2 0x15F JUMPI PUSH1 0x4 CALLDATALOAD PUSH1 0x1 PUSH1 0x1 PUSH1 0x40 SHL SUB DUP2 GT PUSH2 0x15F JUMPI CALLDATASIZE PUSH1 0x23 DUP3 ADD SLT ISZERO PUSH2 0x15F JUMPI PUSH2 0xBD PUSH1 0x20 PUSH2 0xAA PUSH2 0x123 SWAP4 CALLDATASIZE SWAP1 PUSH1 0x24 DUP2 PUSH1 0x4 ADD CALLDATALOAD SWAP2 ADD PUSH2 0xC4B JUMP JUMPDEST DUP2 PUSH1 0x40 MLOAD SWAP4 DUP3 DUP6 DUP1 SWAP5 MLOAD SWAP4 DUP5 SWAP3 ADD PUSH2 0xBD6 JUMP JUMPDEST DUP2 ADD PUSH1 0x1 DUP2 MSTORE SUB ADD SWAP1 KECCAK256 PUSH2 0x15B PUSH2 0xD3 DUP3 PUSH2 0xB30 JUMP JUMPDEST SWAP2 PUSH2 0x14D PUSH2 0xE3 PUSH1 0x1 DUP4 ADD PUSH2 0xB30 JUMP JUMPDEST SWAP2 PUSH2 0x13F PUSH2 0xF3 PUSH1 0x2 DUP4 ADD PUSH2 0xB30 JUMP JUMPDEST PUSH2 0x131 PUSH2 0x10E PUSH1 0x4 PUSH2 0x107 PUSH1 0x3 DUP8 ADD PUSH2 0xB30 JUMP JUMPDEST SWAP6 ADD PUSH2 0xB30 JUMP JUMPDEST SWAP6 PUSH1 0x40 MLOAD SWAP10 DUP11 SWAP10 PUSH1 0xA0 DUP12 MSTORE PUSH1 0xA0 DUP12 ADD SWAP1 PUSH2 0xBF9 JUMP JUMPDEST SWAP1 DUP10 DUP3 SUB PUSH1 0x20 DUP12 ADD MSTORE PUSH2 0xBF9 JUMP JUMPDEST SWAP1 DUP8 DUP3 SUB PUSH1 0x40 DUP10 ADD MSTORE PUSH2 0xBF9 JUMP JUMPDEST SWAP1 DUP6 DUP3 SUB PUSH1 0x60 DUP8 ADD MSTORE PUSH2 0xBF9 JUMP JUMPDEST SWAP1 DUP4 DUP3 SUB PUSH1 0x80 DUP6 ADD MSTORE PUSH2 0xBF9 JUMP JUMPDEST SUB SWAP1 RETURN JUMPDEST PUSH1 0x0 DUP1 REVERT JUMPDEST CALLVALUE PUSH2 0x15F JUMPI PUSH1 0x0 CALLDATASIZE PUSH1 0x3 NOT ADD SLT PUSH2 0x15F JUMPI PUSH1 0x0 SLOAD PUSH1 0x40 MLOAD PUSH1 0x1 PUSH1 0x1 PUSH1 0xA0 SHL SUB SWAP1 SWAP2 AND DUP2 MSTORE PUSH1 0x20 SWAP1 RETURN JUMPDEST CALLVALUE PUSH2 0x15F JUMPI PUSH1 0x20 DUP1 PUSH1 0x3 NOT CALLDATASIZE ADD SLT PUSH2 0x15F JUMPI PUSH1 0x4 CALLDATALOAD SWAP1 PUSH1 0x1 PUSH1 0x1 PUSH1 0x40 SHL SUB DUP3 GT PUSH2 0x15F JUMPI PUSH2 0x15B DUP2 PUSH2 0x1C5 PUSH1 0x80 SWAP5 CALLDATASIZE SWAP1 PUSH1 0x4 ADD PUSH2 0xC1E JUMP JUMPDEST SWAP2 SWAP1 PUSH1 0x40 MLOAD PUSH2 0x1D3 DUP2 PUSH2 0xAF4 JUMP JUMPDEST PUSH1 0x60 SWAP7 DUP2 DUP9 DUP1 SWAP4 MSTORE DUP3 DUP6 DUP3 ADD MSTORE DUP3 PUSH1 0x40 DUP3 ADD MSTORE DUP3 DUP1 DUP3 ADD MSTORE ADD MSTORE DUP3 PUSH1 0x40 MLOAD SWAP4 DUP5 SWAP3 DUP4 CALLDATACOPY DUP2 ADD PUSH1 0x1 DUP2 MSTORE SUB ADD SWAP1 KECCAK256 SWAP3 PUSH1 0x40 MLOAD SWAP4 PUSH2 0x20E DUP6 PUSH2 0xAF4 JUMP JUMPDEST PUSH2 0x217 DUP2 PUSH2 0xB30 JUMP JUMPDEST DUP6 MSTORE PUSH2 0x2C3 PUSH2 0x228 PUSH1 0x1 DUP4 ADD PUSH2 0xB30 JUMP JUMPDEST SWAP2 DUP6 DUP8 ADD SWAP3 DUP4 MSTORE PUSH2 0x2B2 PUSH2 0x23E PUSH1 0x2 DUP4 ADD PUSH2 0xB30 JUMP JUMPDEST PUSH1 0x40 DUP10 ADD SWAP1 DUP2 MSTORE PUSH2 0x263 PUSH1 0x4 PUSH2 0x256 PUSH1 0x3 DUP7 ADD PUSH2 0xB30 JUMP JUMPDEST SWAP5 DUP9 DUP13 ADD SWAP6 DUP7 MSTORE ADD PUSH2 0xB30 JUMP JUMPDEST SWAP6 PUSH1 0x80 DUP11 ADD SWAP7 DUP8 MSTORE PUSH2 0x2A1 PUSH2 0x28B DUP11 PUSH1 0xA0 PUSH1 0x40 MLOAD SWAP14 DUP15 SWAP14 DUP15 MSTORE MLOAD SWAP2 DUP14 ADD MSTORE PUSH1 0xC0 DUP13 ADD SWAP1 PUSH2 0xBF9 JUMP JUMPDEST SWAP7 MLOAD SWAP7 PUSH1 0x1F NOT SWAP8 DUP9 DUP13 DUP4 SUB ADD PUSH1 0x40 DUP14 ADD MSTORE PUSH2 0xBF9 JUMP JUMPDEST SWAP2 MLOAD SWAP1 DUP7 DUP11 DUP5 SUB ADD SWAP1 DUP11 ADD MSTORE PUSH2 0xBF9 JUMP JUMPDEST SWAP1 MLOAD DUP4 DUP8 DUP4 SUB ADD PUSH1 0x80 DUP9 ADD MSTORE PUSH2 0xBF9 JUMP JUMPDEST SWAP2 MLOAD SWAP1 DUP5 DUP4 SUB ADD PUSH1 0xA0 DUP6 ADD MSTORE PUSH2 0xBF9 JUMP JUMPDEST CALLVALUE PUSH2 0x15F JUMPI PUSH1 0xA0 CALLDATASIZE PUSH1 0x3 NOT ADD SLT PUSH2 0x15F JUMPI PUSH1 0x4 CALLDATALOAD PUSH1 0x1 PUSH1 0x1 PUSH1 0x40 SHL SUB DUP2 GT PUSH2 0x15F JUMPI PUSH2 0x304 SWAP1 CALLDATASIZE SWAP1 PUSH1 0x4 ADD PUSH2 0xC1E JUMP JUMPDEST PUSH1 0x24 CALLDATALOAD PUSH1 0x1 PUSH1 0x1 PUSH1 0x40 SHL SUB DUP2 GT PUSH2 0x15F JUMPI PUSH2 0x323 SWAP1 CALLDATASIZE SWAP1 PUSH1 0x4 ADD PUSH2 0xC1E JUMP JUMPDEST SWAP1 PUSH1 0x44 CALLDATALOAD PUSH1 0x1 PUSH1 0x1 PUSH1 0x40 SHL SUB DUP2 GT PUSH2 0x15F JUMPI PUSH2 0x343 SWAP1 CALLDATASIZE SWAP1 PUSH1 0x4 ADD PUSH2 0xC1E JUMP JUMPDEST SWAP1 PUSH1 0x64 CALLDATALOAD PUSH1 0x1 PUSH1 0x1 PUSH1 0x40 SHL SUB DUP2 GT PUSH2 0x15F JUMPI PUSH2 0x363 SWAP1 CALLDATASIZE SWAP1 PUSH1 0x4 ADD PUSH2 0xC1E JUMP JUMPDEST SWAP2 SWAP1 SWAP3 PUSH1 0x84 CALLDATALOAD PUSH1 0x1 PUSH1 0x1 PUSH1 0x40 SHL SUB DUP2 GT PUSH2 0x15F JUMPI PUSH2 0x385 SWAP1 CALLDATASIZE SWAP1 PUSH1 0x4 ADD PUSH2 0xC1E JUMP JUMPDEST PUSH1 0x0 SLOAD SWAP2 SWAP8 SWAP1 SWAP7 SWAP2 PUSH1 0x1 PUSH1 0x1 PUSH1 0xA0 SHL SUB AND CALLER SUB PUSH2 0x9D4 JUMPI PUSH1 0x40 MLOAD PUSH2 0x3A8 DUP2 PUSH2 0xAF4 JUMP JUMPDEST PUSH2 0x3B3 CALLDATASIZE DUP12 DUP14 PUSH2 0xC4B JUMP JUMPDEST DUP2 MSTORE PUSH2 0x3C0 CALLDATASIZE DUP4 DUP6 PUSH2 0xC4B JUMP JUMPDEST PUSH1 0x20 DUP3 ADD MSTORE PUSH2 0x3D0 CALLDATASIZE DUP6 DUP8 PUSH2 0xC4B JUMP JUMPDEST PUSH1 0x40 DUP3 ADD MSTORE PUSH2 0x3E0 CALLDATASIZE DUP8 DUP10 PUSH2 0xC4B JUMP JUMPDEST PUSH1 0x60 DUP3 ADD MSTORE PUSH2 0x3F0 CALLDATASIZE DUP10 DUP12 PUSH2 0xC4B JUMP JUMPDEST PUSH1 0x80 DUP3 ADD MSTORE PUSH1 0x40 MLOAD DUP11 DUP13 DUP3 CALLDATACOPY PUSH1 0x20 DUP2 DUP13 DUP2 ADD PUSH1 0x1 DUP2 MSTORE SUB ADD SWAP1 KECCAK256 SWAP1 DUP1 MLOAD DUP1 MLOAD SWAP1 PUSH1 0x1 PUSH1 0x1 PUSH1 0x40 SHL SUB DUP3 GT PUSH2 0x748 JUMPI DUP2 SWAP1 PUSH2 0x434 DUP3 PUSH2 0x42E DUP8 SLOAD PUSH2 0xABA JUMP JUMPDEST DUP8 PUSH2 0xC91 JUMP JUMPDEST PUSH1 0x20 SWAP1 PUSH1 0x1F DUP4 GT PUSH1 0x1 EQ PUSH2 0x968 JUMPI PUSH1 0x0 SWAP3 PUSH2 0x95D JUMPI JUMPDEST POP POP DUP2 PUSH1 0x1 SHL SWAP2 PUSH1 0x0 NOT SWAP1 PUSH1 0x3 SHL SHR NOT AND OR DUP3 SSTORE JUMPDEST PUSH1 0x20 DUP2 ADD MLOAD DUP1 MLOAD SWAP1 PUSH1 0x1 PUSH1 0x1 PUSH1 0x40 SHL SUB DUP3 GT PUSH2 0x748 JUMPI DUP2 SWAP1 PUSH2 0x491 DUP3 PUSH2 0x488 PUSH1 0x1 DUP9 ADD SLOAD PUSH2 0xABA JUMP JUMPDEST PUSH1 0x1 DUP9 ADD PUSH2 0xC91 JUMP JUMPDEST PUSH1 0x20 SWAP1 PUSH1 0x1F DUP4 GT PUSH1 0x1 EQ PUSH2 0x8EB JUMPI PUSH1 0x0 SWAP3 PUSH2 0x8E0 JUMPI JUMPDEST POP POP DUP2 PUSH1 0x1 SHL SWAP2 PUSH1 0x0 NOT SWAP1 PUSH1 0x3 SHL SHR NOT AND OR PUSH1 0x1 DUP4 ADD SSTORE JUMPDEST PUSH1 0x40 DUP2 ADD MLOAD DUP1 MLOAD SWAP1 PUSH1 0x1 PUSH1 0x1 PUSH1 0x40 SHL SUB DUP3 GT PUSH2 0x748 JUMPI DUP2 SWAP1 PUSH2 0x4F1 DUP3 PUSH2 0x4E8 PUSH1 0x2 DUP9 ADD SLOAD PUSH2 0xABA JUMP JUMPDEST PUSH1 0x2 DUP9 ADD PUSH2 0xC91 JUMP JUMPDEST PUSH1 0x20 SWAP1 PUSH1 0x1F DUP4 GT PUSH1 0x1 EQ PUSH2 0x86E JUMPI PUSH1 0x0 SWAP3 PUSH2 0x863 JUMPI JUMPDEST POP POP DUP2 PUSH1 0x1 SHL SWAP2 PUSH1 0x0 NOT SWAP1 PUSH1 0x3 SHL SHR NOT AND OR PUSH1 0x2 DUP4 ADD SSTORE JUMPDEST PUSH1 0x60 DUP2 ADD MLOAD DUP1 MLOAD SWAP1 PUSH1 0x1 PUSH1 0x1 PUSH1 0x40 SHL SUB DUP3 GT PUSH2 0x748 JUMPI PUSH2 0x54F DUP3 PUSH2 0x546 PUSH1 0x3 DUP8 ADD SLOAD PUSH2 0xABA JUMP JUMPDEST PUSH1 0x3 DUP8 ADD PUSH2 0xC91 JUMP JUMPDEST PUSH1 0x20 SWAP1 PUSH1 0x1F DUP4 GT PUSH1 0x1 EQ PUSH2 0x7F0 JUMPI PUSH1 0x80 SWAP4 SWAP3 SWAP2 PUSH1 0x0 SWAP2 DUP4 PUSH2 0x7E5 JUMPI JUMPDEST POP POP DUP2 PUSH1 0x1 SHL SWAP2 PUSH1 0x0 NOT SWAP1 PUSH1 0x3 SHL SHR NOT AND OR PUSH1 0x3 DUP5 ADD SSTORE JUMPDEST ADD MLOAD SWAP1 DUP2 MLOAD SWAP1 PUSH1 0x1 PUSH1 0x1 PUSH1 0x40 SHL SUB DUP3 GT PUSH2 0x748 JUMPI PUSH1 0x4 DUP3 SWAP2 ADD SWAP3 PUSH2 0x5B1 DUP3 PUSH2 0x5AB DUP7 SLOAD PUSH2 0xABA JUMP JUMPDEST DUP7 PUSH2 0xC91 JUMP JUMPDEST PUSH1 0x20 SWAP1 PUSH1 0x1F DUP4 GT PUSH1 0x1 EQ PUSH2 0x77F JUMPI PUSH1 0x0 SWAP3 PUSH2 0x774 JUMPI JUMPDEST POP POP DUP2 PUSH1 0x1 SHL SWAP2 PUSH1 0x0 NOT SWAP1 PUSH1 0x3 SHL SHR NOT AND OR SWAP1 SSTORE JUMPDEST PUSH1 0x2 SLOAD PUSH9 0x10000000000000000 DUP2 LT ISZERO PUSH2 0x748 JUMPI DUP1 PUSH1 0x1 PUSH2 0x600 SWAP3 ADD PUSH1 0x2 SSTORE PUSH2 0xA6D JUMP JUMPDEST PUSH2 0x75E JUMPI PUSH1 0x1 PUSH1 0x1 PUSH1 0x40 SHL SUB DUP11 GT PUSH2 0x748 JUMPI PUSH2 0x626 DUP11 PUSH2 0x620 DUP4 SLOAD PUSH2 0xABA JUMP JUMPDEST DUP4 PUSH2 0xC91 JUMP JUMPDEST DUP10 PUSH1 0x0 PUSH1 0x1F DUP3 GT PUSH1 0x1 EQ PUSH2 0x6E1 JUMPI PUSH1 0x0 SWAP2 PUSH2 0x6D6 JUMPI JUMPDEST POP DUP11 PUSH1 0x1 SHL SWAP1 PUSH1 0x0 NOT DUP13 PUSH1 0x3 SHL SHR NOT AND OR SWAP1 SSTORE JUMPDEST PUSH1 0x40 MLOAD SWAP10 DUP11 SWAP10 PUSH1 0xA0 DUP12 MSTORE PUSH1 0xA0 DUP12 ADD SWAP1 PUSH2 0x668 SWAP3 PUSH2 0xCE5 JUMP JUMPDEST SWAP1 DUP10 DUP3 SUB PUSH1 0x20 DUP12 ADD MSTORE PUSH2 0x67A SWAP3 PUSH2 0xCE5 JUMP JUMPDEST SWAP1 DUP8 DUP3 SUB PUSH1 0x40 DUP10 ADD MSTORE PUSH2 0x68C SWAP3 PUSH2 0xCE5 JUMP JUMPDEST SWAP1 DUP6 DUP3 SUB PUSH1 0x60 DUP8 ADD MSTORE PUSH2 0x69E SWAP3 PUSH2 0xCE5 JUMP JUMPDEST SWAP1 DUP4 DUP3 SUB PUSH1 0x80 DUP6 ADD MSTORE PUSH2 0x6B0 SWAP3 PUSH2 0xCE5 JUMP JUMPDEST SUB PUSH32 0xD08EA42C81A64E64BF7F9CCF6721889E2E6CBAE3395CF68F0CC6DCF9DBA59A1C SWAP2 LOG1 STOP JUMPDEST SWAP1 POP DUP12 ADD CALLDATALOAD DUP13 PUSH2 0x63C JUMP JUMPDEST PUSH1 0x0 DUP4 DUP2 MSTORE PUSH1 0x20 DUP2 KECCAK256 SWAP3 POP JUMPDEST DUP14 PUSH1 0x1F NOT DUP15 AND DUP3 LT PUSH2 0x730 JUMPI POP POP DUP12 PUSH1 0x1F NOT DUP2 AND LT PUSH2 0x716 JUMPI JUMPDEST POP POP PUSH1 0x1 DUP11 DUP2 SHL ADD SWAP1 SSTORE PUSH2 0x650 JUMP JUMPDEST DUP13 ADD CALLDATALOAD PUSH1 0x0 NOT PUSH1 0x3 DUP14 SWAP1 SHL PUSH1 0xF8 AND SHR NOT AND SWAP1 SSTORE DUP12 DUP1 PUSH2 0x707 JUMP JUMPDEST PUSH1 0x1 DUP4 SWAP5 PUSH1 0x20 SWAP4 SWAP5 DUP5 SWAP4 ADD CALLDATALOAD DUP2 SSTORE ADD SWAP4 ADD SWAP2 ADD PUSH2 0x6ED JUMP JUMPDEST PUSH4 0x4E487B71 PUSH1 0xE0 SHL PUSH1 0x0 MSTORE PUSH1 0x41 PUSH1 0x4 MSTORE PUSH1 0x24 PUSH1 0x0 REVERT JUMPDEST PUSH4 0x4E487B71 PUSH1 0xE0 SHL PUSH1 0x0 MSTORE PUSH1 0x0 PUSH1 0x4 MSTORE PUSH1 0x24 PUSH1 0x0 REVERT JUMPDEST ADD MLOAD SWAP1 POP DUP14 DUP1 PUSH2 0x5C7 JUMP JUMPDEST PUSH1 0x0 DUP6 DUP2 MSTORE PUSH1 0x20 DUP2 KECCAK256 SWAP4 POP PUSH1 0x1F NOT DUP6 AND SWAP1 JUMPDEST DUP2 DUP2 LT PUSH2 0x7CD JUMPI POP SWAP1 DUP5 PUSH1 0x1 SWAP6 SWAP5 SWAP4 SWAP3 LT PUSH2 0x7B4 JUMPI JUMPDEST POP POP POP DUP2 SHL ADD SWAP1 SSTORE PUSH2 0x5DC JUMP JUMPDEST ADD MLOAD PUSH1 0x0 NOT PUSH1 0xF8 DUP5 PUSH1 0x3 SHL AND SHR NOT AND SWAP1 SSTORE DUP14 DUP1 DUP1 PUSH2 0x7A7 JUMP JUMPDEST SWAP3 SWAP4 PUSH1 0x20 PUSH1 0x1 DUP2 SWAP3 DUP8 DUP7 ADD MLOAD DUP2 SSTORE ADD SWAP6 ADD SWAP4 ADD PUSH2 0x791 JUMP JUMPDEST ADD MLOAD SWAP1 POP DUP16 DUP1 PUSH2 0x56B JUMP JUMPDEST SWAP1 PUSH1 0x3 DUP6 ADD PUSH1 0x0 MSTORE PUSH1 0x20 PUSH1 0x0 KECCAK256 SWAP2 PUSH1 0x0 JUMPDEST PUSH1 0x1F NOT DUP6 AND DUP2 LT PUSH2 0x84B JUMPI POP SWAP2 DUP4 SWAP2 PUSH1 0x1 SWAP4 PUSH1 0x80 SWAP7 SWAP6 PUSH1 0x1F NOT DUP2 AND LT PUSH2 0x832 JUMPI JUMPDEST POP POP POP DUP2 SHL ADD PUSH1 0x3 DUP5 ADD SSTORE PUSH2 0x583 JUMP JUMPDEST ADD MLOAD PUSH1 0x0 NOT PUSH1 0xF8 DUP5 PUSH1 0x3 SHL AND SHR NOT AND SWAP1 SSTORE DUP16 DUP1 DUP1 PUSH2 0x822 JUMP JUMPDEST SWAP2 SWAP3 PUSH1 0x20 PUSH1 0x1 DUP2 SWAP3 DUP7 DUP6 ADD MLOAD DUP2 SSTORE ADD SWAP5 ADD SWAP3 ADD PUSH2 0x801 JUMP JUMPDEST ADD MLOAD SWAP1 POP DUP15 DUP1 PUSH2 0x507 JUMP JUMPDEST SWAP3 POP PUSH1 0x2 DUP6 ADD PUSH1 0x0 MSTORE PUSH1 0x20 PUSH1 0x0 KECCAK256 SWAP1 PUSH1 0x0 SWAP4 JUMPDEST PUSH1 0x1F NOT DUP5 AND DUP6 LT PUSH2 0x8C5 JUMPI PUSH1 0x1 SWAP5 POP DUP4 PUSH1 0x1F NOT DUP2 AND LT PUSH2 0x8AC JUMPI JUMPDEST POP POP POP DUP2 SHL ADD PUSH1 0x2 DUP4 ADD SSTORE PUSH2 0x51F JUMP JUMPDEST ADD MLOAD PUSH1 0x0 NOT PUSH1 0xF8 DUP5 PUSH1 0x3 SHL AND SHR NOT AND SWAP1 SSTORE DUP15 DUP1 DUP1 PUSH2 0x89C JUMP JUMPDEST DUP2 DUP2 ADD MLOAD DUP4 SSTORE PUSH1 0x20 SWAP5 DUP6 ADD SWAP5 PUSH1 0x1 SWAP1 SWAP4 ADD SWAP3 SWAP1 SWAP2 ADD SWAP1 PUSH2 0x881 JUMP JUMPDEST ADD MLOAD SWAP1 POP DUP15 DUP1 PUSH2 0x4A7 JUMP JUMPDEST SWAP3 POP PUSH1 0x1 DUP6 ADD PUSH1 0x0 MSTORE PUSH1 0x20 PUSH1 0x0 KECCAK256 SWAP1 PUSH1 0x0 SWAP4 JUMPDEST PUSH1 0x1F NOT DUP5 AND DUP6 LT PUSH2 0x942 JUMPI PUSH1 0x1 SWAP5 POP DUP4 PUSH1 0x1F NOT DUP2 AND LT PUSH2 0x929 JUMPI JUMPDEST POP POP POP DUP2 SHL ADD PUSH1 0x1 DUP4 ADD SSTORE PUSH2 0x4BF JUMP JUMPDEST ADD MLOAD PUSH1 0x0 NOT PUSH1 0xF8 DUP5 PUSH1 0x3 SHL AND SHR NOT AND SWAP1 SSTORE DUP15 DUP1 DUP1 PUSH2 0x919 JUMP JUMPDEST DUP2 DUP2 ADD MLOAD DUP4 SSTORE PUSH1 0x20 SWAP5 DUP6 ADD SWAP5 PUSH1 0x1 SWAP1 SWAP4 ADD SWAP3 SWAP1 SWAP2 ADD SWAP1 PUSH2 0x8FE JUMP JUMPDEST ADD MLOAD SWAP1 POP DUP15 DUP1 PUSH2 0x44A JUMP JUMPDEST SWAP3 POP DUP5 PUSH1 0x0 MSTORE PUSH1 0x20 PUSH1 0x0 KECCAK256 SWAP1 PUSH1 0x0 SWAP4 JUMPDEST PUSH1 0x1F NOT DUP5 AND DUP6 LT PUSH2 0x9B9 JUMPI PUSH1 0x1 SWAP5 POP DUP4 PUSH1 0x1F NOT DUP2 AND LT PUSH2 0x9A0 JUMPI JUMPDEST POP POP POP DUP2 SHL ADD DUP3 SSTORE PUSH2 0x45F JUMP JUMPDEST ADD MLOAD PUSH1 0x0 NOT PUSH1 0xF8 DUP5 PUSH1 0x3 SHL AND SHR NOT AND SWAP1 SSTORE DUP15 DUP1 DUP1 PUSH2 0x993 JUMP JUMPDEST DUP2 DUP2 ADD MLOAD DUP4 SSTORE PUSH1 0x20 SWAP5 DUP6 ADD SWAP5 PUSH1 0x1 SWAP1 SWAP4 ADD SWAP3 SWAP1 SWAP2 ADD SWAP1 PUSH2 0x978 JUMP JUMPDEST PUSH1 0x40 MLOAD PUSH3 0x461BCD PUSH1 0xE5 SHL DUP2 MSTORE PUSH1 0x20 PUSH1 0x4 DUP3 ADD MSTORE PUSH1 0xB PUSH1 0x24 DUP3 ADD MSTORE PUSH11 0x139BDD081CDD195DD85C99 PUSH1 0xAA SHL PUSH1 0x44 DUP3 ADD MSTORE PUSH1 0x64 SWAP1 REVERT JUMPDEST CALLVALUE PUSH2 0x15F JUMPI PUSH1 0x20 CALLDATASIZE PUSH1 0x3 NOT ADD SLT PUSH2 0x15F JUMPI PUSH1 0x4 CALLDATALOAD PUSH1 0x2 SLOAD DUP2 LT ISZERO PUSH2 0x15F JUMPI PUSH2 0xA2E SWAP1 PUSH2 0xA6D JUMP JUMPDEST PUSH2 0x75E JUMPI PUSH2 0xA3E PUSH2 0x15B SWAP2 PUSH2 0xB30 JUMP JUMPDEST PUSH1 0x40 MLOAD SWAP2 DUP3 SWAP2 PUSH1 0x20 DUP4 MSTORE PUSH1 0x20 DUP4 ADD SWAP1 PUSH2 0xBF9 JUMP JUMPDEST CALLVALUE PUSH2 0x15F JUMPI PUSH1 0x0 CALLDATASIZE PUSH1 0x3 NOT ADD SLT PUSH2 0x15F JUMPI PUSH1 0x20 SWAP1 PUSH1 0x2 SLOAD DUP2 MSTORE RETURN JUMPDEST PUSH1 0x2 SLOAD DUP2 LT ISZERO PUSH2 0xAA4 JUMPI PUSH1 0x2 PUSH1 0x0 MSTORE PUSH32 0x405787FA12A823E0F2B7631CC41B3BA8828B3321CA811111FA75CD3AA3BB5ACE ADD SWAP1 PUSH1 0x0 SWAP1 JUMP JUMPDEST PUSH4 0x4E487B71 PUSH1 0xE0 SHL PUSH1 0x0 MSTORE PUSH1 0x32 PUSH1 0x4 MSTORE PUSH1 0x24 PUSH1 0x0 REVERT JUMPDEST SWAP1 PUSH1 0x1 DUP3 DUP2 SHR SWAP3 AND DUP1 ISZERO PUSH2 0xAEA JUMPI JUMPDEST PUSH1 0x20 DUP4 LT EQ PUSH2 0xAD4 JUMPI JUMP JUMPDEST PUSH4 0x4E487B71 PUSH1 0xE0 SHL PUSH1 0x0 MSTORE PUSH1 0x22 PUSH1 0x4 MSTORE PUSH1 0x24 PUSH1 0x0 REVERT JUMPDEST SWAP2 PUSH1 0x7F AND SWAP2 PUSH2 0xAC9 JUMP JUMPDEST PUSH1 0xA0 DUP2 ADD SWAP1 DUP2 LT PUSH1 0x1 PUSH1 0x1 PUSH1 0x40 SHL SUB DUP3 GT OR PUSH2 0x748 JUMPI PUSH1 0x40 MSTORE JUMP JUMPDEST SWAP1 PUSH1 0x1F DUP1 NOT SWAP2 ADD AND DUP2 ADD SWAP1 DUP2 LT PUSH1 0x1 PUSH1 0x1 PUSH1 0x40 SHL SUB DUP3 GT OR PUSH2 0x748 JUMPI PUSH1 0x40 MSTORE JUMP JUMPDEST SWAP1 PUSH1 0x40 MLOAD SWAP2 DUP3 PUSH1 0x0 DUP3 SLOAD SWAP3 PUSH2 0xB44 DUP5 PUSH2 0xABA JUMP JUMPDEST SWAP1 DUP2 DUP5 MSTORE PUSH1 0x1 SWAP5 DUP6 DUP2 AND SWAP1 DUP2 PUSH1 0x0 EQ PUSH2 0xBB3 JUMPI POP PUSH1 0x1 EQ PUSH2 0xB70 JUMPI JUMPDEST POP POP PUSH2 0xB6E SWAP3 POP SUB DUP4 PUSH2 0xB0F JUMP JUMPDEST JUMP JUMPDEST SWAP1 SWAP4 SWAP2 POP PUSH1 0x0 MSTORE PUSH1 0x20 SWAP1 DUP2 PUSH1 0x0 KECCAK256 SWAP4 PUSH1 0x0 SWAP2 JUMPDEST DUP2 DUP4 LT PUSH2 0xB9B JUMPI POP POP PUSH2 0xB6E SWAP4 POP DUP3 ADD ADD CODESIZE DUP1 PUSH2 0xB60 JUMP JUMPDEST DUP6 SLOAD DUP9 DUP5 ADD DUP6 ADD MSTORE SWAP5 DUP6 ADD SWAP5 DUP8 SWAP5 POP SWAP2 DUP4 ADD SWAP2 PUSH2 0xB83 JUMP JUMPDEST SWAP2 POP POP PUSH2 0xB6E SWAP5 POP PUSH1 0x20 SWAP3 POP PUSH1 0xFF NOT AND DUP3 DUP5 ADD MSTORE ISZERO ISZERO PUSH1 0x5 SHL DUP3 ADD ADD CODESIZE DUP1 PUSH2 0xB60 JUMP JUMPDEST PUSH1 0x0 JUMPDEST DUP4 DUP2 LT PUSH2 0xBE9 JUMPI POP POP PUSH1 0x0 SWAP2 ADD MSTORE JUMP JUMPDEST DUP2 DUP2 ADD MLOAD DUP4 DUP3 ADD MSTORE PUSH1 0x20 ADD PUSH2 0xBD9 JUMP JUMPDEST SWAP1 PUSH1 0x20 SWAP2 PUSH2 0xC12 DUP2 MLOAD DUP1 SWAP3 DUP2 DUP6 MSTORE DUP6 DUP1 DUP7 ADD SWAP2 ADD PUSH2 0xBD6 JUMP JUMPDEST PUSH1 0x1F ADD PUSH1 0x1F NOT AND ADD ADD SWAP1 JUMP JUMPDEST SWAP2 DUP2 PUSH1 0x1F DUP5 ADD SLT ISZERO PUSH2 0x15F JUMPI DUP3 CALLDATALOAD SWAP2 PUSH1 0x1 PUSH1 0x1 PUSH1 0x40 SHL SUB DUP4 GT PUSH2 0x15F JUMPI PUSH1 0x20 DUP4 DUP2 DUP7 ADD SWAP6 ADD ADD GT PUSH2 0x15F JUMPI JUMP JUMPDEST SWAP3 SWAP2 SWAP3 PUSH1 0x1 PUSH1 0x1 PUSH1 0x40 SHL SUB DUP3 GT PUSH2 0x748 JUMPI PUSH1 0x40 MLOAD SWAP2 PUSH2 0xC74 PUSH1 0x1F DUP3 ADD PUSH1 0x1F NOT AND PUSH1 0x20 ADD DUP5 PUSH2 0xB0F JUMP JUMPDEST DUP3 SWAP5 DUP2 DUP5 MSTORE DUP2 DUP4 ADD GT PUSH2 0x15F JUMPI DUP3 DUP2 PUSH1 0x20 SWAP4 DUP5 PUSH1 0x0 SWAP7 ADD CALLDATACOPY ADD ADD MSTORE JUMP JUMPDEST SWAP1 PUSH1 0x1F DUP2 GT PUSH2 0xC9F JUMPI POP POP POP JUMP JUMPDEST PUSH1 0x0 SWAP2 DUP3 MSTORE PUSH1 0x20 DUP3 KECCAK256 SWAP1 PUSH1 0x20 PUSH1 0x1F DUP6 ADD PUSH1 0x5 SHR DUP4 ADD SWAP5 LT PUSH2 0xCDB JUMPI JUMPDEST PUSH1 0x1F ADD PUSH1 0x5 SHR ADD SWAP2 JUMPDEST DUP3 DUP2 LT PUSH2 0xCD0 JUMPI POP POP POP JUMP JUMPDEST DUP2 DUP2 SSTORE PUSH1 0x1 ADD PUSH2 0xCC4 JUMP JUMPDEST SWAP1 SWAP3 POP DUP3 SWAP1 PUSH2 0xCBB JUMP JUMPDEST SWAP1 DUP1 PUSH1 0x20 SWAP4 SWAP3 DUP2 DUP5 MSTORE DUP5 DUP5 ADD CALLDATACOPY PUSH1 0x0 DUP3 DUP3 ADD DUP5 ADD MSTORE PUSH1 0x1F ADD PUSH1 0x1F NOT AND ADD ADD SWAP1 JUMP INVALID LOG2 PUSH5 0x6970667358 0x22 SLT KECCAK256 MLOAD 0xD5 TIMESTAMP 0xB4 ADD XOR PUSH4 0x90C59A17 0xD4 PUSH30 0xC8D132DDC343F9FAD975EA5C6C82B22202AA7D64736F6C63430008140033 "},"methodIdentifiers":{"getRoute(string)":"1b5f03a6","keys(uint256)":"0cb6aaf1","routeSignalSanctum(string,string,string,string,string)":"10073aea","routes(string)":"cffbffb5","steward()":"637eea19","totalRoutes()":"05a2d3ac"}}}}}