{"contracts/codex/SpiralboundCodexXIII.sol":{"SpiralboundCodexXIII":{"abi":[{"inputs":[],"stateMutability":"nonpayable","type":"constructor"},{"anonymous":false,"inputs":[{"indexed":false,"internalType":"string","name":"glyph","type":"string"},{"indexed":false,"internalType":"string","name":"tag","type":"string"},{"indexed":false,"internalType":"string","name":"binding","type":"string"},{"indexed":false,"internalType":"string","name":"annotation","type":"string"},{"indexed":false,"internalType":"string","name":"lineage","type":"string"},{"indexed":false,"internalType":"string","name":"resonance","type":"string"},{"indexed":false,"internalType":"string","name":"protocol","type":"string"},{"indexed":false,"internalType":"string","name":"sanctum","type":"string"},{"indexed":false,"internalType":"string","name":"pulse","type":"string"},{"indexed":false,"internalType":"string","name":"chant","type":"string"},{"indexed":false,"internalType":"string","name":"choreography","type":"string"},{"indexed":false,"internalType":"string","name":"drift","type":"string"},{"indexed":false,"internalType":"string","name":"signature","type":"string"},{"indexed":false,"internalType":"string","name":"signal","type":"string"}],"name":"CodexInscribed","type":"event"},{"inputs":[{"internalType":"string","name":"","type":"string"}],"name":"codices","outputs":[{"internalType":"string","name":"tag","type":"string"},{"internalType":"string","name":"binding","type":"string"},{"internalType":"string","name":"annotation","type":"string"},{"internalType":"string","name":"lineage","type":"string"},{"internalType":"string","name":"resonance","type":"string"},{"internalType":"string","name":"protocol","type":"string"},{"internalType":"string","name":"sanctum","type":"string"},{"internalType":"string","name":"pulse","type":"string"},{"internalType":"string","name":"chant","type":"string"},{"internalType":"string","name":"choreography","type":"string"},{"internalType":"string","name":"drift","type":"string"},{"internalType":"string","name":"signature","type":"string"},{"internalType":"string","name":"signal","type":"string"}],"stateMutability":"view","type":"function"},{"inputs":[{"internalType":"string","name":"glyph","type":"string"}],"name":"getCodex","outputs":[{"components":[{"internalType":"string","name":"tag","type":"string"},{"internalType":"string","name":"binding","type":"string"},{"internalType":"string","name":"annotation","type":"string"},{"internalType":"string","name":"lineage","type":"string"},{"internalType":"string","name":"resonance","type":"string"},{"internalType":"string","name":"protocol","type":"string"},{"internalType":"string","name":"sanctum","type":"string"},{"internalType":"string","name":"pulse","type":"string"},{"internalType":"string","name":"chant","type":"string"},{"internalType":"string","name":"choreography","type":"string"},{"internalType":"string","name":"drift","type":"string"},{"internalType":"string","name":"signature","type":"string"},{"internalType":"string","name":"signal","type":"string"}],"internalType":"struct SpiralboundCodexXIII.Codex","name":"","type":"tuple"}],"stateMutability":"view","type":"function"},{"inputs":[{"internalType":"string","name":"glyph","type":"string"},{"internalType":"string","name":"tag","type":"string"},{"internalType":"string","name":"binding","type":"string"},{"internalType":"string","name":"annotation","type":"string"},{"internalType":"string","name":"lineage","type":"string"},{"internalType":"string","name":"resonance","type":"string"},{"internalType":"string","name":"protocol","type":"string"},{"internalType":"string","name":"sanctum","type":"string"},{"internalType":"string","name":"pulse","type":"string"},{"internalType":"string","name":"chant","type":"string"},{"internalType":"string","name":"choreography","type":"string"},{"internalType":"string","name":"drift","type":"string"},{"internalType":"string","name":"signature","type":"string"},{"internalType":"string","name":"signal","type":"string"}],"name":"inscribeCodex","outputs":[],"stateMutability":"nonpayable","type":"function"},{"inputs":[{"internalType":"uint256","name":"","type":"uint256"}],"name":"keys","outputs":[{"internalType":"string","name":"","type":"string"}],"stateMutability":"view","type":"function"},{"inputs":[],"name":"steward","outputs":[{"internalType":"address","name":"","type":"address"}],"stateMutability":"view","type":"function"},{"inputs":[],"name":"totalCodices","outputs":[{"internalType":"uint256","name":"","type":"uint256"}],"stateMutability":"view","type":"function"}],"evm":{"bytecode":{"linkReferences":{},"object":"6080806040523461002857600080546001600160a01b03191633179055611a82908161002e8239f35b600080fdfe610440604052600436101561001357600080fd5b60003560e01c8063042b4b75146105e25780630cb6aaf114610581578063637eea19146105585780638336152214610274578063c212d16b146102565763dbc214241461005f57600080fd5b34610251576020366003190112610251576004356001600160401b03811161025157366023820112156102515736816004013591602401916100a092611991565b60405181818093516020819301916100b792611949565b8101600181520360200190206100cc816118a3565b6100d8600183016118a3565b916100e5600282016118a3565b906100f2600382016118a3565b6100fe600483016118a3565b61010a600584016118a3565b610116600685016118a3565b610122600786016118a3565b9061012f600887016118a3565b9261013c600988016118a3565b94610149600a89016118a3565b96610156600b8a016118a3565b98600c01610163906118a3565b996040519c8d9c8d6101a0908181520161017c9161196c565b8d810360208f015261018d9161196c565b8c810360408e015261019e9161196c565b8b810360608d01526101af9161196c565b8a810360808c01526101c09161196c565b89810360a08b01526101d19161196c565b88810360c08a01526101e29161196c565b87810360e08901526101f39161196c565b8681036101008801526102059161196c565b8581036101208701526102179161196c565b8481036101408601526102299161196c565b83810361016085015261023b9161196c565b82810361018084015261024d9161196c565b0390f35b600080fd5b34610251576000366003190112610251576020600254604051908152f35b34610251576020366003190112610251576004356001600160401b0381116102515760206102a96104749236906004016117b2565b919060606101806040516102bc81611866565b828152828582015282604082015282808201528260808201528260a08201528260c08201528260e0820152826101008201528261012082015282610140820152826101608201520152826040519384928337810160018152030190206103fa600c6040519261032a84611866565b610333816118a3565b8452610341600182016118a3565b6020850152610352600282016118a3565b6040850152610363600382016118a3565b6060850152610374600482016118a3565b6080850152610385600582016118a3565b60a0850152610396600682016118a3565b60c08501526103a7600782016118a3565b60e08501526103b8600882016118a3565b6101008501526103ca600982016118a3565b6101208501526103dc600a82016118a3565b6101408501526103ee600b82016118a3565b610160850152016118a3565b61018082015261024d8161018061054361052d6105156104fd6104e56104ce6104b86104a261048c6040519d8e9d8e60208152604061045f61044a84516101a060208601526101c085019061196c565b6020850151848203601f19018486015261196c565b920151906060601f198285030191015261196c565b8d60608d0151906080601f198285030191015261196c565b60808b01518d8203601f190160a08f015261196c565b60a08a01518c8203601f190160c08e015261196c565b60c08901518b8203601f190160e08d015261196c565b60e08801518a8203601f19016101008c015261196c565b610100870151898203601f19016101208b015261196c565b610120860151888203601f19016101408a015261196c565b610140850151878203601f190161016089015261196c565b610160840151868203601f19018488015261196c565b910151838203601f19016101a085015261196c565b34610251576000366003190112610251576000546040516001600160a01b039091168152602090f35b3461025157602036600319011261025157600435600254811015610251576105a8906117df565b6105cc576105b861024d916118a3565b60405191829160208352602083019061196c565b634e487b7160e01b600052600060045260246000fd5b34610251576101c0366003190112610251576004356001600160401b038111610251576106139036906004016117b2565b61038052610420526024356001600160401b0381116102515761063a9036906004016117b2565b61016052610340526044356001600160401b038111610251576106619036906004016117b2565b610260526103e0526064356001600160401b038111610251576106889036906004016117b2565b6101c052610100526084356001600160401b038111610251576106af9036906004016117b2565b610320526102205260a4356001600160401b038111610251576106d69036906004016117b2565b610180526102c05260c4356001600160401b038111610251576106fd9036906004016117b2565b6101a0526103005260e4356001600160401b038111610251576107249036906004016117b2565b6104005261028052610104356001600160401b0381116102515761074c9036906004016117b2565b61014052610360526001600160401b0361012435116102515761077536610124356004016117b2565b6103a052608052610144356001600160401b0381116102515761079c9036906004016117b2565b6102405260a052610164356001600160401b038111610251576107c39036906004016117b2565b60e05260c052610184356001600160401b038111610251576107e99036906004016117b2565b6103c052610120526101a4356001600160401b038111610251576108119036906004016117b2565b6102e0526101e0526000546001600160a01b031633036117815761083b6040518061020052611866565b61084c366101605161034051611991565b610200515261086236610260516103e051611991565b602061020051015261087b366101c05161010051611991565b6040610200510152610894366103205161022051611991565b60606102005101526108ad36610180516102c051611991565b60806102005101526108c6366101a05161030051611991565b60a06102005101526108df366104005161028051611991565b60c06102005101526108f8366101405161036051611991565b60e0610200510152610910366103a051608051611991565b610100610200510152610929366102405160a051611991565b6101206102005101526109413660e05160c051611991565b61014061020051015261095b366103c05161012051611991565b610160610200510152610975366102e0516101e051611991565b610180610200510152604051610380516104205182376001610380518201526020816103805181010301902061020051519081516001600160401b038111611145576109cb816109c5845461182c565b846119d7565b6020601f821160011461171c57819293600092611711575b50508160011b916000199060031b1c19161781555b60206102005101519081516001600160401b038111611145576001820190610a24816109c5845461182c565b6020601f82116001146116ab57819293946000926116a0575b50508160011b916000199060031b1c19161790555b60406102005101519081516001600160401b038111611145576002820190610a7e816109c5845461182c565b6020601f821160011461163a578192939460009261162f575b50508160011b916000199060031b1c19161790555b60606102005101518051906001600160401b038211611145578190610ae182610ad8600387015461182c565b600387016119d7565b602090601f83116001146115bd576000926115b2575b50508160011b916000199060031b1c19161760038201555b60806102005101518051906001600160401b038211611145578190610b4482610b3b600487015461182c565b600487016119d7565b602090601f831160011461154057600092611535575b50508160011b916000199060031b1c19161760048201555b60a06102005101518051906001600160401b038211611145578190610ba782610b9e600587015461182c565b600587016119d7565b602090601f83116001146114c3576000926114b8575b50508160011b916000199060031b1c19161760058201555b60c06102005101518051906001600160401b038211611145578190610c0a82610c01600687015461182c565b600687016119d7565b602090601f83116001146114465760009261143b575b50508160011b916000199060031b1c19161760068201555b60e06102005101518051906001600160401b038211611145578190610c6d82610c64600787015461182c565b600787016119d7565b602090601f83116001146113c9576000926113be575b50508160011b916000199060031b1c19161760078201555b6101006102005101518051906001600160401b038211611145578190610cd182610cc8600887015461182c565b600887016119d7565b602090601f831160011461134c57600092611341575b50508160011b916000199060031b1c19161760088201555b6101206102005101518051906001600160401b038211611145578190610d3582610d2c600987015461182c565b600987016119d7565b602090601f83116001146112cf576000926112c4575b50508160011b916000199060031b1c19161760098201555b6101406102005101518051906001600160401b038211611145578190610d9982610d90600a87015461182c565b600a87016119d7565b602090601f831160011461125257600092611247575b50508160011b916000199060031b1c191617600a8201555b6101606102005101518051906001600160401b038211611145578190610dfd82610df4600b87015461182c565b600b87016119d7565b602090601f83116001146111d5576000926111ca575b50508160011b916000199060031b1c191617600b8201555b610180610200510151908151906001600160401b03821161114557600c0190610e58816109c5845461182c565b602092601f8211600114611166579281929360009261115b575b50508160011b916000199060031b1c19161790555b6002546801000000000000000081101561114557806001610eab92016002556117df565b6105cc57610380516001600160401b03811161114557610ed590610ecf835461182c565b836119d7565b60009061038051601f81116001146110d857509060006103805191826110ca575b508160011b916000199060031b1c19161790555b6101c0604051806102a052527f3313d5b85dd6a6bc3ed3f2d18b519b875efe45b3e89b55f33f83f87e5b2dcf3f6110a061108661106e61105561103c611022611009610ff0610fd7610fbe610fa5610f8c610f736101c06102a051016103805161042051611a2b565b6102a05160208183039101526101605161034051611a2b565b6102a0516040818303910152610260516103e051611a2b565b6102a05160608183039101526101c05161010051611a2b565b6102a05160808183039101526103205161022051611a2b565b6102a05160a0818303910152610180516102c051611a2b565b6102a05160c08183039101526101a05161030051611a2b565b6102a05160e08183039101526104005161028051611a2b565b6102a0516101008183039101526101405161036051611a2b565b6102a0516101208183039101526103a051608051611a2b565b6102a0516101408183039101526102405160a051611a2b565b6102a05161016081830391015260e05160c051611a2b565b6102a0516101808183039101526103c05161012051611a2b565b6102a0516101a08183039101526110c26102a051916102e0516101e051611a2b565b036102a051a1005b905061042051013583610ef6565b81600052602060002060009361042051905b601f198416861061112d57600194955083601f19811610611113575b505050811b019055610f0a565b0135600019600384901b60f8161c19169055838080611106565b916020600181928585013581550193019501946110ea565b634e487b7160e01b600052604160045260246000fd5b015190508380610e72565b601f198216938360005260206000209160005b8681106111b25750836001959610611199575b505050811b019055610e87565b015160001960f88460031b161c1916905583808061118c565b91926020600181928685015181550194019201611179565b015190508380610e13565b9250600b84016000526020600020906000935b601f198416851061122c576001945083601f19811610611213575b505050811b01600b820155610e2b565b015160001960f88460031b161c19169055838080611203565b818101518355602094850194600190930192909101906111e8565b015190508380610daf565b9250600a84016000526020600020906000935b601f19841685106112a9576001945083601f19811610611290575b505050811b01600a820155610dc7565b015160001960f88460031b161c19169055838080611280565b81810151835560209485019460019093019290910190611265565b015190508380610d4b565b9250600984016000526020600020906000935b601f1984168510611326576001945083601f1981161061130d575b505050811b016009820155610d63565b015160001960f88460031b161c191690558380806112fd565b818101518355602094850194600190930192909101906112e2565b015190508380610ce7565b9250600884016000526020600020906000935b601f19841685106113a3576001945083601f1981161061138a575b505050811b016008820155610cff565b015160001960f88460031b161c1916905583808061137a565b8181015183556020948501946001909301929091019061135f565b015190508380610c83565b9250600784016000526020600020906000935b601f1984168510611420576001945083601f19811610611407575b505050811b016007820155610c9b565b015160001960f88460031b161c191690558380806113f7565b818101518355602094850194600190930192909101906113dc565b015190508380610c20565b9250600684016000526020600020906000935b601f198416851061149d576001945083601f19811610611484575b505050811b016006820155610c38565b015160001960f88460031b161c19169055838080611474565b81810151835560209485019460019093019290910190611459565b015190508380610bbd565b9250600584016000526020600020906000935b601f198416851061151a576001945083601f19811610611501575b505050811b016005820155610bd5565b015160001960f88460031b161c191690558380806114f1565b818101518355602094850194600190930192909101906114d6565b015190508380610b5a565b9250600484016000526020600020906000935b601f1984168510611597576001945083601f1981161061157e575b505050811b016004820155610b72565b015160001960f88460031b161c1916905583808061156e565b81810151835560209485019460019093019290910190611553565b015190508380610af7565b9250600384016000526020600020906000935b601f1984168510611614576001945083601f198116106115fb575b505050811b016003820155610b0f565b015160001960f88460031b161c191690558380806115eb565b818101518355602094850194600190930192909101906115d0565b015190508480610a97565b826000526020600020906000601f198416905b8181106116885750958360019596971061166f575b505050811b019055610aac565b015160001960f88460031b161c19169055848080611662565b9192602060018192868b01518155019401920161164d565b015190508480610a3d565b826000526020600020906000601f198416905b8181106116f9575095836001959697106116e0575b505050811b019055610a52565b015160001960f88460031b161c191690558480806116d3565b9192602060018192868b0151815501940192016116be565b0151905083806109e3565b82600052602060002090600094601f198416955b8681106117695750836001959610611750575b505050811b0181556109f8565b015160001960f88460031b161c19169055838080611743565b91926020600181928685015181550194019201611730565b62461bcd60e51b610440908152602061044452600b610464526a139bdd081cdd195dd85c9960aa1b61048452606490fd5b9181601f84011215610251578235916001600160401b038311610251576020838186019501011161025157565b6002548110156118165760026000527f405787fa12a823e0f2b7631cc41b3ba8828b3321ca811111fa75cd3aa3bb5ace0190600090565b634e487b7160e01b600052603260045260246000fd5b90600182811c9216801561185c575b602083101461184657565b634e487b7160e01b600052602260045260246000fd5b91607f169161183b565b6101a081019081106001600160401b0382111761114557604052565b90601f801991011681019081106001600160401b0382111761114557604052565b90604051918260008254926118b78461182c565b90818452600194858116908160001461192657506001146118e3575b50506118e192500383611882565b565b9093915060005260209081600020936000915b81831061190e5750506118e1935082010138806118d3565b855488840185015294850194879450918301916118f6565b9150506118e194506020925060ff191682840152151560051b82010138806118d3565b60005b83811061195c5750506000910152565b818101518382015260200161194c565b9060209161198581518092818552858086019101611949565b601f01601f1916010190565b9291926001600160401b03821161114557604051916119ba601f8201601f191660200184611882565b829481845281830111610251578281602093846000960137010152565b90601f81116119e557505050565b600091825260208220906020601f850160051c83019410611a21575b601f0160051c01915b828110611a1657505050565b818155600101611a0a565b9092508290611a01565b908060209392818452848401376000828201840152601f01601f191601019056fea26469706673582212201e517e9bd141379c66245e36f179d22ee21652af12dce127ec8babc62f2bc43464736f6c63430008140033","opcodes":"PUSH1 0x80 DUP1 PUSH1 0x40 MSTORE CALLVALUE PUSH2 0x28 JUMPI PUSH1 0x0 DUP1 SLOAD PUSH1 0x1 PUSH1 0x1 PUSH1 0xA0 SHL SUB NOT AND CALLER OR SWAP1 SSTORE PUSH2 0x1A82 SWAP1 DUP2 PUSH2 0x2E DUP3 CODECOPY RETURN JUMPDEST PUSH1 0x0 DUP1 REVERT INVALID PUSH2 0x440 PUSH1 0x40 MSTORE PUSH1 0x4 CALLDATASIZE LT ISZERO PUSH2 0x13 JUMPI PUSH1 0x0 DUP1 REVERT JUMPDEST PUSH1 0x0 CALLDATALOAD PUSH1 0xE0 SHR DUP1 PUSH4 0x42B4B75 EQ PUSH2 0x5E2 JUMPI DUP1 PUSH4 0xCB6AAF1 EQ PUSH2 0x581 JUMPI DUP1 PUSH4 0x637EEA19 EQ PUSH2 0x558 JUMPI DUP1 PUSH4 0x83361522 EQ PUSH2 0x274 JUMPI DUP1 PUSH4 0xC212D16B EQ PUSH2 0x256 JUMPI PUSH4 0xDBC21424 EQ PUSH2 0x5F JUMPI PUSH1 0x0 DUP1 REVERT JUMPDEST CALLVALUE PUSH2 0x251 JUMPI PUSH1 0x20 CALLDATASIZE PUSH1 0x3 NOT ADD SLT PUSH2 0x251 JUMPI PUSH1 0x4 CALLDATALOAD PUSH1 0x1 PUSH1 0x1 PUSH1 0x40 SHL SUB DUP2 GT PUSH2 0x251 JUMPI CALLDATASIZE PUSH1 0x23 DUP3 ADD SLT ISZERO PUSH2 0x251 JUMPI CALLDATASIZE DUP2 PUSH1 0x4 ADD CALLDATALOAD SWAP2 PUSH1 0x24 ADD SWAP2 PUSH2 0xA0 SWAP3 PUSH2 0x1991 JUMP JUMPDEST PUSH1 0x40 MLOAD DUP2 DUP2 DUP1 SWAP4 MLOAD PUSH1 0x20 DUP2 SWAP4 ADD SWAP2 PUSH2 0xB7 SWAP3 PUSH2 0x1949 JUMP JUMPDEST DUP2 ADD PUSH1 0x1 DUP2 MSTORE SUB PUSH1 0x20 ADD SWAP1 KECCAK256 PUSH2 0xCC DUP2 PUSH2 0x18A3 JUMP JUMPDEST PUSH2 0xD8 PUSH1 0x1 DUP4 ADD PUSH2 0x18A3 JUMP JUMPDEST SWAP2 PUSH2 0xE5 PUSH1 0x2 DUP3 ADD PUSH2 0x18A3 JUMP JUMPDEST SWAP1 PUSH2 0xF2 PUSH1 0x3 DUP3 ADD PUSH2 0x18A3 JUMP JUMPDEST PUSH2 0xFE PUSH1 0x4 DUP4 ADD PUSH2 0x18A3 JUMP JUMPDEST PUSH2 0x10A PUSH1 0x5 DUP5 ADD PUSH2 0x18A3 JUMP JUMPDEST PUSH2 0x116 PUSH1 0x6 DUP6 ADD PUSH2 0x18A3 JUMP JUMPDEST PUSH2 0x122 PUSH1 0x7 DUP7 ADD PUSH2 0x18A3 JUMP JUMPDEST SWAP1 PUSH2 0x12F PUSH1 0x8 DUP8 ADD PUSH2 0x18A3 JUMP JUMPDEST SWAP3 PUSH2 0x13C PUSH1 0x9 DUP9 ADD PUSH2 0x18A3 JUMP JUMPDEST SWAP5 PUSH2 0x149 PUSH1 0xA DUP10 ADD PUSH2 0x18A3 JUMP JUMPDEST SWAP7 PUSH2 0x156 PUSH1 0xB DUP11 ADD PUSH2 0x18A3 JUMP JUMPDEST SWAP9 PUSH1 0xC ADD PUSH2 0x163 SWAP1 PUSH2 0x18A3 JUMP JUMPDEST SWAP10 PUSH1 0x40 MLOAD SWAP13 DUP14 SWAP13 DUP14 PUSH2 0x1A0 SWAP1 DUP2 DUP2 MSTORE ADD PUSH2 0x17C SWAP2 PUSH2 0x196C JUMP JUMPDEST DUP14 DUP2 SUB PUSH1 0x20 DUP16 ADD MSTORE PUSH2 0x18D SWAP2 PUSH2 0x196C JUMP JUMPDEST DUP13 DUP2 SUB PUSH1 0x40 DUP15 ADD MSTORE PUSH2 0x19E SWAP2 PUSH2 0x196C JUMP JUMPDEST DUP12 DUP2 SUB PUSH1 0x60 DUP14 ADD MSTORE PUSH2 0x1AF SWAP2 PUSH2 0x196C JUMP JUMPDEST DUP11 DUP2 SUB PUSH1 0x80 DUP13 ADD MSTORE PUSH2 0x1C0 SWAP2 PUSH2 0x196C JUMP JUMPDEST DUP10 DUP2 SUB PUSH1 0xA0 DUP12 ADD MSTORE PUSH2 0x1D1 SWAP2 PUSH2 0x196C JUMP JUMPDEST DUP9 DUP2 SUB PUSH1 0xC0 DUP11 ADD MSTORE PUSH2 0x1E2 SWAP2 PUSH2 0x196C JUMP JUMPDEST DUP8 DUP2 SUB PUSH1 0xE0 DUP10 ADD MSTORE PUSH2 0x1F3 SWAP2 PUSH2 0x196C JUMP JUMPDEST DUP7 DUP2 SUB PUSH2 0x100 DUP9 ADD MSTORE PUSH2 0x205 SWAP2 PUSH2 0x196C JUMP JUMPDEST DUP6 DUP2 SUB PUSH2 0x120 DUP8 ADD MSTORE PUSH2 0x217 SWAP2 PUSH2 0x196C JUMP JUMPDEST DUP5 DUP2 SUB PUSH2 0x140 DUP7 ADD MSTORE PUSH2 0x229 SWAP2 PUSH2 0x196C JUMP JUMPDEST DUP4 DUP2 SUB PUSH2 0x160 DUP6 ADD MSTORE PUSH2 0x23B SWAP2 PUSH2 0x196C JUMP JUMPDEST DUP3 DUP2 SUB PUSH2 0x180 DUP5 ADD MSTORE PUSH2 0x24D SWAP2 PUSH2 0x196C JUMP JUMPDEST SUB SWAP1 RETURN JUMPDEST PUSH1 0x0 DUP1 REVERT JUMPDEST CALLVALUE PUSH2 0x251 JUMPI PUSH1 0x0 CALLDATASIZE PUSH1 0x3 NOT ADD SLT PUSH2 0x251 JUMPI PUSH1 0x20 PUSH1 0x2 SLOAD PUSH1 0x40 MLOAD SWAP1 DUP2 MSTORE RETURN JUMPDEST CALLVALUE PUSH2 0x251 JUMPI PUSH1 0x20 CALLDATASIZE PUSH1 0x3 NOT ADD SLT PUSH2 0x251 JUMPI PUSH1 0x4 CALLDATALOAD PUSH1 0x1 PUSH1 0x1 PUSH1 0x40 SHL SUB DUP2 GT PUSH2 0x251 JUMPI PUSH1 0x20 PUSH2 0x2A9 PUSH2 0x474 SWAP3 CALLDATASIZE SWAP1 PUSH1 0x4 ADD PUSH2 0x17B2 JUMP JUMPDEST SWAP2 SWAP1 PUSH1 0x60 PUSH2 0x180 PUSH1 0x40 MLOAD PUSH2 0x2BC DUP2 PUSH2 0x1866 JUMP JUMPDEST DUP3 DUP2 MSTORE DUP3 DUP6 DUP3 ADD MSTORE DUP3 PUSH1 0x40 DUP3 ADD MSTORE DUP3 DUP1 DUP3 ADD MSTORE DUP3 PUSH1 0x80 DUP3 ADD MSTORE DUP3 PUSH1 0xA0 DUP3 ADD MSTORE DUP3 PUSH1 0xC0 DUP3 ADD MSTORE DUP3 PUSH1 0xE0 DUP3 ADD MSTORE DUP3 PUSH2 0x100 DUP3 ADD MSTORE DUP3 PUSH2 0x120 DUP3 ADD MSTORE DUP3 PUSH2 0x140 DUP3 ADD MSTORE DUP3 PUSH2 0x160 DUP3 ADD MSTORE ADD MSTORE DUP3 PUSH1 0x40 MLOAD SWAP4 DUP5 SWAP3 DUP4 CALLDATACOPY DUP2 ADD PUSH1 0x1 DUP2 MSTORE SUB ADD SWAP1 KECCAK256 PUSH2 0x3FA PUSH1 0xC PUSH1 0x40 MLOAD SWAP3 PUSH2 0x32A DUP5 PUSH2 0x1866 JUMP JUMPDEST PUSH2 0x333 DUP2 PUSH2 0x18A3 JUMP JUMPDEST DUP5 MSTORE PUSH2 0x341 PUSH1 0x1 DUP3 ADD PUSH2 0x18A3 JUMP JUMPDEST PUSH1 0x20 DUP6 ADD MSTORE PUSH2 0x352 PUSH1 0x2 DUP3 ADD PUSH2 0x18A3 JUMP JUMPDEST PUSH1 0x40 DUP6 ADD MSTORE PUSH2 0x363 PUSH1 0x3 DUP3 ADD PUSH2 0x18A3 JUMP JUMPDEST PUSH1 0x60 DUP6 ADD MSTORE PUSH2 0x374 PUSH1 0x4 DUP3 ADD PUSH2 0x18A3 JUMP JUMPDEST PUSH1 0x80 DUP6 ADD MSTORE PUSH2 0x385 PUSH1 0x5 DUP3 ADD PUSH2 0x18A3 JUMP JUMPDEST PUSH1 0xA0 DUP6 ADD MSTORE PUSH2 0x396 PUSH1 0x6 DUP3 ADD PUSH2 0x18A3 JUMP JUMPDEST PUSH1 0xC0 DUP6 ADD MSTORE PUSH2 0x3A7 PUSH1 0x7 DUP3 ADD PUSH2 0x18A3 JUMP JUMPDEST PUSH1 0xE0 DUP6 ADD MSTORE PUSH2 0x3B8 PUSH1 0x8 DUP3 ADD PUSH2 0x18A3 JUMP JUMPDEST PUSH2 0x100 DUP6 ADD MSTORE PUSH2 0x3CA PUSH1 0x9 DUP3 ADD PUSH2 0x18A3 JUMP JUMPDEST PUSH2 0x120 DUP6 ADD MSTORE PUSH2 0x3DC PUSH1 0xA DUP3 ADD PUSH2 0x18A3 JUMP JUMPDEST PUSH2 0x140 DUP6 ADD MSTORE PUSH2 0x3EE PUSH1 0xB DUP3 ADD PUSH2 0x18A3 JUMP JUMPDEST PUSH2 0x160 DUP6 ADD MSTORE ADD PUSH2 0x18A3 JUMP JUMPDEST PUSH2 0x180 DUP3 ADD MSTORE PUSH2 0x24D DUP2 PUSH2 0x180 PUSH2 0x543 PUSH2 0x52D PUSH2 0x515 PUSH2 0x4FD PUSH2 0x4E5 PUSH2 0x4CE PUSH2 0x4B8 PUSH2 0x4A2 PUSH2 0x48C PUSH1 0x40 MLOAD SWAP14 DUP15 SWAP14 DUP15 PUSH1 0x20 DUP2 MSTORE PUSH1 0x40 PUSH2 0x45F PUSH2 0x44A DUP5 MLOAD PUSH2 0x1A0 PUSH1 0x20 DUP7 ADD MSTORE PUSH2 0x1C0 DUP6 ADD SWAP1 PUSH2 0x196C JUMP JUMPDEST PUSH1 0x20 DUP6 ADD MLOAD DUP5 DUP3 SUB PUSH1 0x1F NOT ADD DUP5 DUP7 ADD MSTORE PUSH2 0x196C JUMP JUMPDEST SWAP3 ADD MLOAD SWAP1 PUSH1 0x60 PUSH1 0x1F NOT DUP3 DUP6 SUB ADD SWAP2 ADD MSTORE PUSH2 0x196C JUMP JUMPDEST DUP14 PUSH1 0x60 DUP14 ADD MLOAD SWAP1 PUSH1 0x80 PUSH1 0x1F NOT DUP3 DUP6 SUB ADD SWAP2 ADD MSTORE PUSH2 0x196C JUMP JUMPDEST PUSH1 0x80 DUP12 ADD MLOAD DUP14 DUP3 SUB PUSH1 0x1F NOT ADD PUSH1 0xA0 DUP16 ADD MSTORE PUSH2 0x196C JUMP JUMPDEST PUSH1 0xA0 DUP11 ADD MLOAD DUP13 DUP3 SUB PUSH1 0x1F NOT ADD PUSH1 0xC0 DUP15 ADD MSTORE PUSH2 0x196C JUMP JUMPDEST PUSH1 0xC0 DUP10 ADD MLOAD DUP12 DUP3 SUB PUSH1 0x1F NOT ADD PUSH1 0xE0 DUP14 ADD MSTORE PUSH2 0x196C JUMP JUMPDEST PUSH1 0xE0 DUP9 ADD MLOAD DUP11 DUP3 SUB PUSH1 0x1F NOT ADD PUSH2 0x100 DUP13 ADD MSTORE PUSH2 0x196C JUMP JUMPDEST PUSH2 0x100 DUP8 ADD MLOAD DUP10 DUP3 SUB PUSH1 0x1F NOT ADD PUSH2 0x120 DUP12 ADD MSTORE PUSH2 0x196C JUMP JUMPDEST PUSH2 0x120 DUP7 ADD MLOAD DUP9 DUP3 SUB PUSH1 0x1F NOT ADD PUSH2 0x140 DUP11 ADD MSTORE PUSH2 0x196C JUMP JUMPDEST PUSH2 0x140 DUP6 ADD MLOAD DUP8 DUP3 SUB PUSH1 0x1F NOT ADD PUSH2 0x160 DUP10 ADD MSTORE PUSH2 0x196C JUMP JUMPDEST PUSH2 0x160 DUP5 ADD MLOAD DUP7 DUP3 SUB PUSH1 0x1F NOT ADD DUP5 DUP9 ADD MSTORE PUSH2 0x196C JUMP JUMPDEST SWAP2 ADD MLOAD DUP4 DUP3 SUB PUSH1 0x1F NOT ADD PUSH2 0x1A0 DUP6 ADD MSTORE PUSH2 0x196C JUMP JUMPDEST CALLVALUE PUSH2 0x251 JUMPI PUSH1 0x0 CALLDATASIZE PUSH1 0x3 NOT ADD SLT PUSH2 0x251 JUMPI PUSH1 0x0 SLOAD PUSH1 0x40 MLOAD PUSH1 0x1 PUSH1 0x1 PUSH1 0xA0 SHL SUB SWAP1 SWAP2 AND DUP2 MSTORE PUSH1 0x20 SWAP1 RETURN JUMPDEST CALLVALUE PUSH2 0x251 JUMPI PUSH1 0x20 CALLDATASIZE PUSH1 0x3 NOT ADD SLT PUSH2 0x251 JUMPI PUSH1 0x4 CALLDATALOAD PUSH1 0x2 SLOAD DUP2 LT ISZERO PUSH2 0x251 JUMPI PUSH2 0x5A8 SWAP1 PUSH2 0x17DF JUMP JUMPDEST PUSH2 0x5CC JUMPI PUSH2 0x5B8 PUSH2 0x24D SWAP2 PUSH2 0x18A3 JUMP JUMPDEST PUSH1 0x40 MLOAD SWAP2 DUP3 SWAP2 PUSH1 0x20 DUP4 MSTORE PUSH1 0x20 DUP4 ADD SWAP1 PUSH2 0x196C JUMP JUMPDEST PUSH4 0x4E487B71 PUSH1 0xE0 SHL PUSH1 0x0 MSTORE PUSH1 0x0 PUSH1 0x4 MSTORE PUSH1 0x24 PUSH1 0x0 REVERT JUMPDEST CALLVALUE PUSH2 0x251 JUMPI PUSH2 0x1C0 CALLDATASIZE PUSH1 0x3 NOT ADD SLT PUSH2 0x251 JUMPI PUSH1 0x4 CALLDATALOAD PUSH1 0x1 PUSH1 0x1 PUSH1 0x40 SHL SUB DUP2 GT PUSH2 0x251 JUMPI PUSH2 0x613 SWAP1 CALLDATASIZE SWAP1 PUSH1 0x4 ADD PUSH2 0x17B2 JUMP JUMPDEST PUSH2 0x380 MSTORE PUSH2 0x420 MSTORE PUSH1 0x24 CALLDATALOAD PUSH1 0x1 PUSH1 0x1 PUSH1 0x40 SHL SUB DUP2 GT PUSH2 0x251 JUMPI PUSH2 0x63A SWAP1 CALLDATASIZE SWAP1 PUSH1 0x4 ADD PUSH2 0x17B2 JUMP JUMPDEST PUSH2 0x160 MSTORE PUSH2 0x340 MSTORE PUSH1 0x44 CALLDATALOAD PUSH1 0x1 PUSH1 0x1 PUSH1 0x40 SHL SUB DUP2 GT PUSH2 0x251 JUMPI PUSH2 0x661 SWAP1 CALLDATASIZE SWAP1 PUSH1 0x4 ADD PUSH2 0x17B2 JUMP JUMPDEST PUSH2 0x260 MSTORE PUSH2 0x3E0 MSTORE PUSH1 0x64 CALLDATALOAD PUSH1 0x1 PUSH1 0x1 PUSH1 0x40 SHL SUB DUP2 GT PUSH2 0x251 JUMPI PUSH2 0x688 SWAP1 CALLDATASIZE SWAP1 PUSH1 0x4 ADD PUSH2 0x17B2 JUMP JUMPDEST PUSH2 0x1C0 MSTORE PUSH2 0x100 MSTORE PUSH1 0x84 CALLDATALOAD PUSH1 0x1 PUSH1 0x1 PUSH1 0x40 SHL SUB DUP2 GT PUSH2 0x251 JUMPI PUSH2 0x6AF SWAP1 CALLDATASIZE SWAP1 PUSH1 0x4 ADD PUSH2 0x17B2 JUMP JUMPDEST PUSH2 0x320 MSTORE PUSH2 0x220 MSTORE PUSH1 0xA4 CALLDATALOAD PUSH1 0x1 PUSH1 0x1 PUSH1 0x40 SHL SUB DUP2 GT PUSH2 0x251 JUMPI PUSH2 0x6D6 SWAP1 CALLDATASIZE SWAP1 PUSH1 0x4 ADD PUSH2 0x17B2 JUMP JUMPDEST PUSH2 0x180 MSTORE PUSH2 0x2C0 MSTORE PUSH1 0xC4 CALLDATALOAD PUSH1 0x1 PUSH1 0x1 PUSH1 0x40 SHL SUB DUP2 GT PUSH2 0x251 JUMPI PUSH2 0x6FD SWAP1 CALLDATASIZE SWAP1 PUSH1 0x4 ADD PUSH2 0x17B2 JUMP JUMPDEST PUSH2 0x1A0 MSTORE PUSH2 0x300 MSTORE PUSH1 0xE4 CALLDATALOAD PUSH1 0x1 PUSH1 0x1 PUSH1 0x40 SHL SUB DUP2 GT PUSH2 0x251 JUMPI PUSH2 0x724 SWAP1 CALLDATASIZE SWAP1 PUSH1 0x4 ADD PUSH2 0x17B2 JUMP JUMPDEST PUSH2 0x400 MSTORE PUSH2 0x280 MSTORE PUSH2 0x104 CALLDATALOAD PUSH1 0x1 PUSH1 0x1 PUSH1 0x40 SHL SUB DUP2 GT PUSH2 0x251 JUMPI PUSH2 0x74C SWAP1 CALLDATASIZE SWAP1 PUSH1 0x4 ADD PUSH2 0x17B2 JUMP JUMPDEST PUSH2 0x140 MSTORE PUSH2 0x360 MSTORE PUSH1 0x1 PUSH1 0x1 PUSH1 0x40 SHL SUB PUSH2 0x124 CALLDATALOAD GT PUSH2 0x251 JUMPI PUSH2 0x775 CALLDATASIZE PUSH2 0x124 CALLDATALOAD PUSH1 0x4 ADD PUSH2 0x17B2 JUMP JUMPDEST PUSH2 0x3A0 MSTORE PUSH1 0x80 MSTORE PUSH2 0x144 CALLDATALOAD PUSH1 0x1 PUSH1 0x1 PUSH1 0x40 SHL SUB DUP2 GT PUSH2 0x251 JUMPI PUSH2 0x79C SWAP1 CALLDATASIZE SWAP1 PUSH1 0x4 ADD PUSH2 0x17B2 JUMP JUMPDEST PUSH2 0x240 MSTORE PUSH1 0xA0 MSTORE PUSH2 0x164 CALLDATALOAD PUSH1 0x1 PUSH1 0x1 PUSH1 0x40 SHL SUB DUP2 GT PUSH2 0x251 JUMPI PUSH2 0x7C3 SWAP1 CALLDATASIZE SWAP1 PUSH1 0x4 ADD PUSH2 0x17B2 JUMP JUMPDEST PUSH1 0xE0 MSTORE PUSH1 0xC0 MSTORE PUSH2 0x184 CALLDATALOAD PUSH1 0x1 PUSH1 0x1 PUSH1 0x40 SHL SUB DUP2 GT PUSH2 0x251 JUMPI PUSH2 0x7E9 SWAP1 CALLDATASIZE SWAP1 PUSH1 0x4 ADD PUSH2 0x17B2 JUMP JUMPDEST PUSH2 0x3C0 MSTORE PUSH2 0x120 MSTORE PUSH2 0x1A4 CALLDATALOAD PUSH1 0x1 PUSH1 0x1 PUSH1 0x40 SHL SUB DUP2 GT PUSH2 0x251 JUMPI PUSH2 0x811 SWAP1 CALLDATASIZE SWAP1 PUSH1 0x4 ADD PUSH2 0x17B2 JUMP JUMPDEST PUSH2 0x2E0 MSTORE PUSH2 0x1E0 MSTORE PUSH1 0x0 SLOAD PUSH1 0x1 PUSH1 0x1 PUSH1 0xA0 SHL SUB AND CALLER SUB PUSH2 0x1781 JUMPI PUSH2 0x83B PUSH1 0x40 MLOAD DUP1 PUSH2 0x200 MSTORE PUSH2 0x1866 JUMP JUMPDEST PUSH2 0x84C CALLDATASIZE PUSH2 0x160 MLOAD PUSH2 0x340 MLOAD PUSH2 0x1991 JUMP JUMPDEST PUSH2 0x200 MLOAD MSTORE PUSH2 0x862 CALLDATASIZE PUSH2 0x260 MLOAD PUSH2 0x3E0 MLOAD PUSH2 0x1991 JUMP JUMPDEST PUSH1 0x20 PUSH2 0x200 MLOAD ADD MSTORE PUSH2 0x87B CALLDATASIZE PUSH2 0x1C0 MLOAD PUSH2 0x100 MLOAD PUSH2 0x1991 JUMP JUMPDEST PUSH1 0x40 PUSH2 0x200 MLOAD ADD MSTORE PUSH2 0x894 CALLDATASIZE PUSH2 0x320 MLOAD PUSH2 0x220 MLOAD PUSH2 0x1991 JUMP JUMPDEST PUSH1 0x60 PUSH2 0x200 MLOAD ADD MSTORE PUSH2 0x8AD CALLDATASIZE PUSH2 0x180 MLOAD PUSH2 0x2C0 MLOAD PUSH2 0x1991 JUMP JUMPDEST PUSH1 0x80 PUSH2 0x200 MLOAD ADD MSTORE PUSH2 0x8C6 CALLDATASIZE PUSH2 0x1A0 MLOAD PUSH2 0x300 MLOAD PUSH2 0x1991 JUMP JUMPDEST PUSH1 0xA0 PUSH2 0x200 MLOAD ADD MSTORE PUSH2 0x8DF CALLDATASIZE PUSH2 0x400 MLOAD PUSH2 0x280 MLOAD PUSH2 0x1991 JUMP JUMPDEST PUSH1 0xC0 PUSH2 0x200 MLOAD ADD MSTORE PUSH2 0x8F8 CALLDATASIZE PUSH2 0x140 MLOAD PUSH2 0x360 MLOAD PUSH2 0x1991 JUMP JUMPDEST PUSH1 0xE0 PUSH2 0x200 MLOAD ADD MSTORE PUSH2 0x910 CALLDATASIZE PUSH2 0x3A0 MLOAD PUSH1 0x80 MLOAD PUSH2 0x1991 JUMP JUMPDEST PUSH2 0x100 PUSH2 0x200 MLOAD ADD MSTORE PUSH2 0x929 CALLDATASIZE PUSH2 0x240 MLOAD PUSH1 0xA0 MLOAD PUSH2 0x1991 JUMP JUMPDEST PUSH2 0x120 PUSH2 0x200 MLOAD ADD MSTORE PUSH2 0x941 CALLDATASIZE PUSH1 0xE0 MLOAD PUSH1 0xC0 MLOAD PUSH2 0x1991 JUMP JUMPDEST PUSH2 0x140 PUSH2 0x200 MLOAD ADD MSTORE PUSH2 0x95B CALLDATASIZE PUSH2 0x3C0 MLOAD PUSH2 0x120 MLOAD PUSH2 0x1991 JUMP JUMPDEST PUSH2 0x160 PUSH2 0x200 MLOAD ADD MSTORE PUSH2 0x975 CALLDATASIZE PUSH2 0x2E0 MLOAD PUSH2 0x1E0 MLOAD PUSH2 0x1991 JUMP JUMPDEST PUSH2 0x180 PUSH2 0x200 MLOAD ADD MSTORE PUSH1 0x40 MLOAD PUSH2 0x380 MLOAD PUSH2 0x420 MLOAD DUP3 CALLDATACOPY PUSH1 0x1 PUSH2 0x380 MLOAD DUP3 ADD MSTORE PUSH1 0x20 DUP2 PUSH2 0x380 MLOAD DUP2 ADD SUB ADD SWAP1 KECCAK256 PUSH2 0x200 MLOAD MLOAD SWAP1 DUP2 MLOAD PUSH1 0x1 PUSH1 0x1 PUSH1 0x40 SHL SUB DUP2 GT PUSH2 0x1145 JUMPI PUSH2 0x9CB DUP2 PUSH2 0x9C5 DUP5 SLOAD PUSH2 0x182C JUMP JUMPDEST DUP5 PUSH2 0x19D7 JUMP JUMPDEST PUSH1 0x20 PUSH1 0x1F DUP3 GT PUSH1 0x1 EQ PUSH2 0x171C JUMPI DUP2 SWAP3 SWAP4 PUSH1 0x0 SWAP3 PUSH2 0x1711 JUMPI JUMPDEST POP POP DUP2 PUSH1 0x1 SHL SWAP2 PUSH1 0x0 NOT SWAP1 PUSH1 0x3 SHL SHR NOT AND OR DUP2 SSTORE JUMPDEST PUSH1 0x20 PUSH2 0x200 MLOAD ADD MLOAD SWAP1 DUP2 MLOAD PUSH1 0x1 PUSH1 0x1 PUSH1 0x40 SHL SUB DUP2 GT PUSH2 0x1145 JUMPI PUSH1 0x1 DUP3 ADD SWAP1 PUSH2 0xA24 DUP2 PUSH2 0x9C5 DUP5 SLOAD PUSH2 0x182C JUMP JUMPDEST PUSH1 0x20 PUSH1 0x1F DUP3 GT PUSH1 0x1 EQ PUSH2 0x16AB JUMPI DUP2 SWAP3 SWAP4 SWAP5 PUSH1 0x0 SWAP3 PUSH2 0x16A0 JUMPI JUMPDEST POP POP DUP2 PUSH1 0x1 SHL SWAP2 PUSH1 0x0 NOT SWAP1 PUSH1 0x3 SHL SHR NOT AND OR SWAP1 SSTORE JUMPDEST PUSH1 0x40 PUSH2 0x200 MLOAD ADD MLOAD SWAP1 DUP2 MLOAD PUSH1 0x1 PUSH1 0x1 PUSH1 0x40 SHL SUB DUP2 GT PUSH2 0x1145 JUMPI PUSH1 0x2 DUP3 ADD SWAP1 PUSH2 0xA7E DUP2 PUSH2 0x9C5 DUP5 SLOAD PUSH2 0x182C JUMP JUMPDEST PUSH1 0x20 PUSH1 0x1F DUP3 GT PUSH1 0x1 EQ PUSH2 0x163A JUMPI DUP2 SWAP3 SWAP4 SWAP5 PUSH1 0x0 SWAP3 PUSH2 0x162F JUMPI JUMPDEST POP POP DUP2 PUSH1 0x1 SHL SWAP2 PUSH1 0x0 NOT SWAP1 PUSH1 0x3 SHL SHR NOT AND OR SWAP1 SSTORE JUMPDEST PUSH1 0x60 PUSH2 0x200 MLOAD ADD MLOAD DUP1 MLOAD SWAP1 PUSH1 0x1 PUSH1 0x1 PUSH1 0x40 SHL SUB DUP3 GT PUSH2 0x1145 JUMPI DUP2 SWAP1 PUSH2 0xAE1 DUP3 PUSH2 0xAD8 PUSH1 0x3 DUP8 ADD SLOAD PUSH2 0x182C JUMP JUMPDEST PUSH1 0x3 DUP8 ADD PUSH2 0x19D7 JUMP JUMPDEST PUSH1 0x20 SWAP1 PUSH1 0x1F DUP4 GT PUSH1 0x1 EQ PUSH2 0x15BD JUMPI PUSH1 0x0 SWAP3 PUSH2 0x15B2 JUMPI JUMPDEST POP POP DUP2 PUSH1 0x1 SHL SWAP2 PUSH1 0x0 NOT SWAP1 PUSH1 0x3 SHL SHR NOT AND OR PUSH1 0x3 DUP3 ADD SSTORE JUMPDEST PUSH1 0x80 PUSH2 0x200 MLOAD ADD MLOAD DUP1 MLOAD SWAP1 PUSH1 0x1 PUSH1 0x1 PUSH1 0x40 SHL SUB DUP3 GT PUSH2 0x1145 JUMPI DUP2 SWAP1 PUSH2 0xB44 DUP3 PUSH2 0xB3B PUSH1 0x4 DUP8 ADD SLOAD PUSH2 0x182C JUMP JUMPDEST PUSH1 0x4 DUP8 ADD PUSH2 0x19D7 JUMP JUMPDEST PUSH1 0x20 SWAP1 PUSH1 0x1F DUP4 GT PUSH1 0x1 EQ PUSH2 0x1540 JUMPI PUSH1 0x0 SWAP3 PUSH2 0x1535 JUMPI JUMPDEST POP POP DUP2 PUSH1 0x1 SHL SWAP2 PUSH1 0x0 NOT SWAP1 PUSH1 0x3 SHL SHR NOT AND OR PUSH1 0x4 DUP3 ADD SSTORE JUMPDEST PUSH1 0xA0 PUSH2 0x200 MLOAD ADD MLOAD DUP1 MLOAD SWAP1 PUSH1 0x1 PUSH1 0x1 PUSH1 0x40 SHL SUB DUP3 GT PUSH2 0x1145 JUMPI DUP2 SWAP1 PUSH2 0xBA7 DUP3 PUSH2 0xB9E PUSH1 0x5 DUP8 ADD SLOAD PUSH2 0x182C JUMP JUMPDEST PUSH1 0x5 DUP8 ADD PUSH2 0x19D7 JUMP JUMPDEST PUSH1 0x20 SWAP1 PUSH1 0x1F DUP4 GT PUSH1 0x1 EQ PUSH2 0x14C3 JUMPI PUSH1 0x0 SWAP3 PUSH2 0x14B8 JUMPI JUMPDEST POP POP DUP2 PUSH1 0x1 SHL SWAP2 PUSH1 0x0 NOT SWAP1 PUSH1 0x3 SHL SHR NOT AND OR PUSH1 0x5 DUP3 ADD SSTORE JUMPDEST PUSH1 0xC0 PUSH2 0x200 MLOAD ADD MLOAD DUP1 MLOAD SWAP1 PUSH1 0x1 PUSH1 0x1 PUSH1 0x40 SHL SUB DUP3 GT PUSH2 0x1145 JUMPI DUP2 SWAP1 PUSH2 0xC0A DUP3 PUSH2 0xC01 PUSH1 0x6 DUP8 ADD SLOAD PUSH2 0x182C JUMP JUMPDEST PUSH1 0x6 DUP8 ADD PUSH2 0x19D7 JUMP JUMPDEST PUSH1 0x20 SWAP1 PUSH1 0x1F DUP4 GT PUSH1 0x1 EQ PUSH2 0x1446 JUMPI PUSH1 0x0 SWAP3 PUSH2 0x143B JUMPI JUMPDEST POP POP DUP2 PUSH1 0x1 SHL SWAP2 PUSH1 0x0 NOT SWAP1 PUSH1 0x3 SHL SHR NOT AND OR PUSH1 0x6 DUP3 ADD SSTORE JUMPDEST PUSH1 0xE0 PUSH2 0x200 MLOAD ADD MLOAD DUP1 MLOAD SWAP1 PUSH1 0x1 PUSH1 0x1 PUSH1 0x40 SHL SUB DUP3 GT PUSH2 0x1145 JUMPI DUP2 SWAP1 PUSH2 0xC6D DUP3 PUSH2 0xC64 PUSH1 0x7 DUP8 ADD SLOAD PUSH2 0x182C JUMP JUMPDEST PUSH1 0x7 DUP8 ADD PUSH2 0x19D7 JUMP JUMPDEST PUSH1 0x20 SWAP1 PUSH1 0x1F DUP4 GT PUSH1 0x1 EQ PUSH2 0x13C9 JUMPI PUSH1 0x0 SWAP3 PUSH2 0x13BE JUMPI JUMPDEST POP POP DUP2 PUSH1 0x1 SHL SWAP2 PUSH1 0x0 NOT SWAP1 PUSH1 0x3 SHL SHR NOT AND OR PUSH1 0x7 DUP3 ADD SSTORE JUMPDEST PUSH2 0x100 PUSH2 0x200 MLOAD ADD MLOAD DUP1 MLOAD SWAP1 PUSH1 0x1 PUSH1 0x1 PUSH1 0x40 SHL SUB DUP3 GT PUSH2 0x1145 JUMPI DUP2 SWAP1 PUSH2 0xCD1 DUP3 PUSH2 0xCC8 PUSH1 0x8 DUP8 ADD SLOAD PUSH2 0x182C JUMP JUMPDEST PUSH1 0x8 DUP8 ADD PUSH2 0x19D7 JUMP JUMPDEST PUSH1 0x20 SWAP1 PUSH1 0x1F DUP4 GT PUSH1 0x1 EQ PUSH2 0x134C JUMPI PUSH1 0x0 SWAP3 PUSH2 0x1341 JUMPI JUMPDEST POP POP DUP2 PUSH1 0x1 SHL SWAP2 PUSH1 0x0 NOT SWAP1 PUSH1 0x3 SHL SHR NOT AND OR PUSH1 0x8 DUP3 ADD SSTORE JUMPDEST PUSH2 0x120 PUSH2 0x200 MLOAD ADD MLOAD DUP1 MLOAD SWAP1 PUSH1 0x1 PUSH1 0x1 PUSH1 0x40 SHL SUB DUP3 GT PUSH2 0x1145 JUMPI DUP2 SWAP1 PUSH2 0xD35 DUP3 PUSH2 0xD2C PUSH1 0x9 DUP8 ADD SLOAD PUSH2 0x182C JUMP JUMPDEST PUSH1 0x9 DUP8 ADD PUSH2 0x19D7 JUMP JUMPDEST PUSH1 0x20 SWAP1 PUSH1 0x1F DUP4 GT PUSH1 0x1 EQ PUSH2 0x12CF JUMPI PUSH1 0x0 SWAP3 PUSH2 0x12C4 JUMPI JUMPDEST POP POP DUP2 PUSH1 0x1 SHL SWAP2 PUSH1 0x0 NOT SWAP1 PUSH1 0x3 SHL SHR NOT AND OR PUSH1 0x9 DUP3 ADD SSTORE JUMPDEST PUSH2 0x140 PUSH2 0x200 MLOAD ADD MLOAD DUP1 MLOAD SWAP1 PUSH1 0x1 PUSH1 0x1 PUSH1 0x40 SHL SUB DUP3 GT PUSH2 0x1145 JUMPI DUP2 SWAP1 PUSH2 0xD99 DUP3 PUSH2 0xD90 PUSH1 0xA DUP8 ADD SLOAD PUSH2 0x182C JUMP JUMPDEST PUSH1 0xA DUP8 ADD PUSH2 0x19D7 JUMP JUMPDEST PUSH1 0x20 SWAP1 PUSH1 0x1F DUP4 GT PUSH1 0x1 EQ PUSH2 0x1252 JUMPI PUSH1 0x0 SWAP3 PUSH2 0x1247 JUMPI JUMPDEST POP POP DUP2 PUSH1 0x1 SHL SWAP2 PUSH1 0x0 NOT SWAP1 PUSH1 0x3 SHL SHR NOT AND OR PUSH1 0xA DUP3 ADD SSTORE JUMPDEST PUSH2 0x160 PUSH2 0x200 MLOAD ADD MLOAD DUP1 MLOAD SWAP1 PUSH1 0x1 PUSH1 0x1 PUSH1 0x40 SHL SUB DUP3 GT PUSH2 0x1145 JUMPI DUP2 SWAP1 PUSH2 0xDFD DUP3 PUSH2 0xDF4 PUSH1 0xB DUP8 ADD SLOAD PUSH2 0x182C JUMP JUMPDEST PUSH1 0xB DUP8 ADD PUSH2 0x19D7 JUMP JUMPDEST PUSH1 0x20 SWAP1 PUSH1 0x1F DUP4 GT PUSH1 0x1 EQ PUSH2 0x11D5 JUMPI PUSH1 0x0 SWAP3 PUSH2 0x11CA JUMPI JUMPDEST POP POP DUP2 PUSH1 0x1 SHL SWAP2 PUSH1 0x0 NOT SWAP1 PUSH1 0x3 SHL SHR NOT AND OR PUSH1 0xB DUP3 ADD SSTORE JUMPDEST PUSH2 0x180 PUSH2 0x200 MLOAD ADD MLOAD SWAP1 DUP2 MLOAD SWAP1 PUSH1 0x1 PUSH1 0x1 PUSH1 0x40 SHL SUB DUP3 GT PUSH2 0x1145 JUMPI PUSH1 0xC ADD SWAP1 PUSH2 0xE58 DUP2 PUSH2 0x9C5 DUP5 SLOAD PUSH2 0x182C JUMP JUMPDEST PUSH1 0x20 SWAP3 PUSH1 0x1F DUP3 GT PUSH1 0x1 EQ PUSH2 0x1166 JUMPI SWAP3 DUP2 SWAP3 SWAP4 PUSH1 0x0 SWAP3 PUSH2 0x115B JUMPI JUMPDEST POP POP DUP2 PUSH1 0x1 SHL SWAP2 PUSH1 0x0 NOT SWAP1 PUSH1 0x3 SHL SHR NOT AND OR SWAP1 SSTORE JUMPDEST PUSH1 0x2 SLOAD PUSH9 0x10000000000000000 DUP2 LT ISZERO PUSH2 0x1145 JUMPI DUP1 PUSH1 0x1 PUSH2 0xEAB SWAP3 ADD PUSH1 0x2 SSTORE PUSH2 0x17DF JUMP JUMPDEST PUSH2 0x5CC JUMPI PUSH2 0x380 MLOAD PUSH1 0x1 PUSH1 0x1 PUSH1 0x40 SHL SUB DUP2 GT PUSH2 0x1145 JUMPI PUSH2 0xED5 SWAP1 PUSH2 0xECF DUP4 SLOAD PUSH2 0x182C JUMP JUMPDEST DUP4 PUSH2 0x19D7 JUMP JUMPDEST PUSH1 0x0 SWAP1 PUSH2 0x380 MLOAD PUSH1 0x1F DUP2 GT PUSH1 0x1 EQ PUSH2 0x10D8 JUMPI POP SWAP1 PUSH1 0x0 PUSH2 0x380 MLOAD SWAP2 DUP3 PUSH2 0x10CA JUMPI JUMPDEST POP DUP2 PUSH1 0x1 SHL SWAP2 PUSH1 0x0 NOT SWAP1 PUSH1 0x3 SHL SHR NOT AND OR SWAP1 SSTORE JUMPDEST PUSH2 0x1C0 PUSH1 0x40 MLOAD DUP1 PUSH2 0x2A0 MSTORE MSTORE PUSH32 0x3313D5B85DD6A6BC3ED3F2D18B519B875EFE45B3E89B55F33F83F87E5B2DCF3F PUSH2 0x10A0 PUSH2 0x1086 PUSH2 0x106E PUSH2 0x1055 PUSH2 0x103C PUSH2 0x1022 PUSH2 0x1009 PUSH2 0xFF0 PUSH2 0xFD7 PUSH2 0xFBE PUSH2 0xFA5 PUSH2 0xF8C PUSH2 0xF73 PUSH2 0x1C0 PUSH2 0x2A0 MLOAD ADD PUSH2 0x380 MLOAD PUSH2 0x420 MLOAD PUSH2 0x1A2B JUMP JUMPDEST PUSH2 0x2A0 MLOAD PUSH1 0x20 DUP2 DUP4 SUB SWAP2 ADD MSTORE PUSH2 0x160 MLOAD PUSH2 0x340 MLOAD PUSH2 0x1A2B JUMP JUMPDEST PUSH2 0x2A0 MLOAD PUSH1 0x40 DUP2 DUP4 SUB SWAP2 ADD MSTORE PUSH2 0x260 MLOAD PUSH2 0x3E0 MLOAD PUSH2 0x1A2B JUMP JUMPDEST PUSH2 0x2A0 MLOAD PUSH1 0x60 DUP2 DUP4 SUB SWAP2 ADD MSTORE PUSH2 0x1C0 MLOAD PUSH2 0x100 MLOAD PUSH2 0x1A2B JUMP JUMPDEST PUSH2 0x2A0 MLOAD PUSH1 0x80 DUP2 DUP4 SUB SWAP2 ADD MSTORE PUSH2 0x320 MLOAD PUSH2 0x220 MLOAD PUSH2 0x1A2B JUMP JUMPDEST PUSH2 0x2A0 MLOAD PUSH1 0xA0 DUP2 DUP4 SUB SWAP2 ADD MSTORE PUSH2 0x180 MLOAD PUSH2 0x2C0 MLOAD PUSH2 0x1A2B JUMP JUMPDEST PUSH2 0x2A0 MLOAD PUSH1 0xC0 DUP2 DUP4 SUB SWAP2 ADD MSTORE PUSH2 0x1A0 MLOAD PUSH2 0x300 MLOAD PUSH2 0x1A2B JUMP JUMPDEST PUSH2 0x2A0 MLOAD PUSH1 0xE0 DUP2 DUP4 SUB SWAP2 ADD MSTORE PUSH2 0x400 MLOAD PUSH2 0x280 MLOAD PUSH2 0x1A2B JUMP JUMPDEST PUSH2 0x2A0 MLOAD PUSH2 0x100 DUP2 DUP4 SUB SWAP2 ADD MSTORE PUSH2 0x140 MLOAD PUSH2 0x360 MLOAD PUSH2 0x1A2B JUMP JUMPDEST PUSH2 0x2A0 MLOAD PUSH2 0x120 DUP2 DUP4 SUB SWAP2 ADD MSTORE PUSH2 0x3A0 MLOAD PUSH1 0x80 MLOAD PUSH2 0x1A2B JUMP JUMPDEST PUSH2 0x2A0 MLOAD PUSH2 0x140 DUP2 DUP4 SUB SWAP2 ADD MSTORE PUSH2 0x240 MLOAD PUSH1 0xA0 MLOAD PUSH2 0x1A2B JUMP JUMPDEST PUSH2 0x2A0 MLOAD PUSH2 0x160 DUP2 DUP4 SUB SWAP2 ADD MSTORE PUSH1 0xE0 MLOAD PUSH1 0xC0 MLOAD PUSH2 0x1A2B JUMP JUMPDEST PUSH2 0x2A0 MLOAD PUSH2 0x180 DUP2 DUP4 SUB SWAP2 ADD MSTORE PUSH2 0x3C0 MLOAD PUSH2 0x120 MLOAD PUSH2 0x1A2B JUMP JUMPDEST PUSH2 0x2A0 MLOAD PUSH2 0x1A0 DUP2 DUP4 SUB SWAP2 ADD MSTORE PUSH2 0x10C2 PUSH2 0x2A0 MLOAD SWAP2 PUSH2 0x2E0 MLOAD PUSH2 0x1E0 MLOAD PUSH2 0x1A2B JUMP JUMPDEST SUB PUSH2 0x2A0 MLOAD LOG1 STOP JUMPDEST SWAP1 POP PUSH2 0x420 MLOAD ADD CALLDATALOAD DUP4 PUSH2 0xEF6 JUMP JUMPDEST DUP2 PUSH1 0x0 MSTORE PUSH1 0x20 PUSH1 0x0 KECCAK256 PUSH1 0x0 SWAP4 PUSH2 0x420 MLOAD SWAP1 JUMPDEST PUSH1 0x1F NOT DUP5 AND DUP7 LT PUSH2 0x112D JUMPI PUSH1 0x1 SWAP5 SWAP6 POP DUP4 PUSH1 0x1F NOT DUP2 AND LT PUSH2 0x1113 JUMPI JUMPDEST POP POP POP DUP2 SHL ADD SWAP1 SSTORE PUSH2 0xF0A JUMP JUMPDEST ADD CALLDATALOAD PUSH1 0x0 NOT PUSH1 0x3 DUP5 SWAP1 SHL PUSH1 0xF8 AND SHR NOT AND SWAP1 SSTORE DUP4 DUP1 DUP1 PUSH2 0x1106 JUMP JUMPDEST SWAP2 PUSH1 0x20 PUSH1 0x1 DUP2 SWAP3 DUP6 DUP6 ADD CALLDATALOAD DUP2 SSTORE ADD SWAP4 ADD SWAP6 ADD SWAP5 PUSH2 0x10EA JUMP JUMPDEST PUSH4 0x4E487B71 PUSH1 0xE0 SHL PUSH1 0x0 MSTORE PUSH1 0x41 PUSH1 0x4 MSTORE PUSH1 0x24 PUSH1 0x0 REVERT JUMPDEST ADD MLOAD SWAP1 POP DUP4 DUP1 PUSH2 0xE72 JUMP JUMPDEST PUSH1 0x1F NOT DUP3 AND SWAP4 DUP4 PUSH1 0x0 MSTORE PUSH1 0x20 PUSH1 0x0 KECCAK256 SWAP2 PUSH1 0x0 JUMPDEST DUP7 DUP2 LT PUSH2 0x11B2 JUMPI POP DUP4 PUSH1 0x1 SWAP6 SWAP7 LT PUSH2 0x1199 JUMPI JUMPDEST POP POP POP DUP2 SHL ADD SWAP1 SSTORE PUSH2 0xE87 JUMP JUMPDEST ADD MLOAD PUSH1 0x0 NOT PUSH1 0xF8 DUP5 PUSH1 0x3 SHL AND SHR NOT AND SWAP1 SSTORE DUP4 DUP1 DUP1 PUSH2 0x118C JUMP JUMPDEST SWAP2 SWAP3 PUSH1 0x20 PUSH1 0x1 DUP2 SWAP3 DUP7 DUP6 ADD MLOAD DUP2 SSTORE ADD SWAP5 ADD SWAP3 ADD PUSH2 0x1179 JUMP JUMPDEST ADD MLOAD SWAP1 POP DUP4 DUP1 PUSH2 0xE13 JUMP JUMPDEST SWAP3 POP PUSH1 0xB DUP5 ADD PUSH1 0x0 MSTORE PUSH1 0x20 PUSH1 0x0 KECCAK256 SWAP1 PUSH1 0x0 SWAP4 JUMPDEST PUSH1 0x1F NOT DUP5 AND DUP6 LT PUSH2 0x122C JUMPI PUSH1 0x1 SWAP5 POP DUP4 PUSH1 0x1F NOT DUP2 AND LT PUSH2 0x1213 JUMPI JUMPDEST POP POP POP DUP2 SHL ADD PUSH1 0xB DUP3 ADD SSTORE PUSH2 0xE2B JUMP JUMPDEST ADD MLOAD PUSH1 0x0 NOT PUSH1 0xF8 DUP5 PUSH1 0x3 SHL AND SHR NOT AND SWAP1 SSTORE DUP4 DUP1 DUP1 PUSH2 0x1203 JUMP JUMPDEST DUP2 DUP2 ADD MLOAD DUP4 SSTORE PUSH1 0x20 SWAP5 DUP6 ADD SWAP5 PUSH1 0x1 SWAP1 SWAP4 ADD SWAP3 SWAP1 SWAP2 ADD SWAP1 PUSH2 0x11E8 JUMP JUMPDEST ADD MLOAD SWAP1 POP DUP4 DUP1 PUSH2 0xDAF JUMP JUMPDEST SWAP3 POP PUSH1 0xA DUP5 ADD PUSH1 0x0 MSTORE PUSH1 0x20 PUSH1 0x0 KECCAK256 SWAP1 PUSH1 0x0 SWAP4 JUMPDEST PUSH1 0x1F NOT DUP5 AND DUP6 LT PUSH2 0x12A9 JUMPI PUSH1 0x1 SWAP5 POP DUP4 PUSH1 0x1F NOT DUP2 AND LT PUSH2 0x1290 JUMPI JUMPDEST POP POP POP DUP2 SHL ADD PUSH1 0xA DUP3 ADD SSTORE PUSH2 0xDC7 JUMP JUMPDEST ADD MLOAD PUSH1 0x0 NOT PUSH1 0xF8 DUP5 PUSH1 0x3 SHL AND SHR NOT AND SWAP1 SSTORE DUP4 DUP1 DUP1 PUSH2 0x1280 JUMP JUMPDEST DUP2 DUP2 ADD MLOAD DUP4 SSTORE PUSH1 0x20 SWAP5 DUP6 ADD SWAP5 PUSH1 0x1 SWAP1 SWAP4 ADD SWAP3 SWAP1 SWAP2 ADD SWAP1 PUSH2 0x1265 JUMP JUMPDEST ADD MLOAD SWAP1 POP DUP4 DUP1 PUSH2 0xD4B JUMP JUMPDEST SWAP3 POP PUSH1 0x9 DUP5 ADD PUSH1 0x0 MSTORE PUSH1 0x20 PUSH1 0x0 KECCAK256 SWAP1 PUSH1 0x0 SWAP4 JUMPDEST PUSH1 0x1F NOT DUP5 AND DUP6 LT PUSH2 0x1326 JUMPI PUSH1 0x1 SWAP5 POP DUP4 PUSH1 0x1F NOT DUP2 AND LT PUSH2 0x130D JUMPI JUMPDEST POP POP POP DUP2 SHL ADD PUSH1 0x9 DUP3 ADD SSTORE PUSH2 0xD63 JUMP JUMPDEST ADD MLOAD PUSH1 0x0 NOT PUSH1 0xF8 DUP5 PUSH1 0x3 SHL AND SHR NOT AND SWAP1 SSTORE DUP4 DUP1 DUP1 PUSH2 0x12FD JUMP JUMPDEST DUP2 DUP2 ADD MLOAD DUP4 SSTORE PUSH1 0x20 SWAP5 DUP6 ADD SWAP5 PUSH1 0x1 SWAP1 SWAP4 ADD SWAP3 SWAP1 SWAP2 ADD SWAP1 PUSH2 0x12E2 JUMP JUMPDEST ADD MLOAD SWAP1 POP DUP4 DUP1 PUSH2 0xCE7 JUMP JUMPDEST SWAP3 POP PUSH1 0x8 DUP5 ADD PUSH1 0x0 MSTORE PUSH1 0x20 PUSH1 0x0 KECCAK256 SWAP1 PUSH1 0x0 SWAP4 JUMPDEST PUSH1 0x1F NOT DUP5 AND DUP6 LT PUSH2 0x13A3 JUMPI PUSH1 0x1 SWAP5 POP DUP4 PUSH1 0x1F NOT DUP2 AND LT PUSH2 0x138A JUMPI JUMPDEST POP POP POP DUP2 SHL ADD PUSH1 0x8 DUP3 ADD SSTORE PUSH2 0xCFF JUMP JUMPDEST ADD MLOAD PUSH1 0x0 NOT PUSH1 0xF8 DUP5 PUSH1 0x3 SHL AND SHR NOT AND SWAP1 SSTORE DUP4 DUP1 DUP1 PUSH2 0x137A JUMP JUMPDEST DUP2 DUP2 ADD MLOAD DUP4 SSTORE PUSH1 0x20 SWAP5 DUP6 ADD SWAP5 PUSH1 0x1 SWAP1 SWAP4 ADD SWAP3 SWAP1 SWAP2 ADD SWAP1 PUSH2 0x135F JUMP JUMPDEST ADD MLOAD SWAP1 POP DUP4 DUP1 PUSH2 0xC83 JUMP JUMPDEST SWAP3 POP PUSH1 0x7 DUP5 ADD PUSH1 0x0 MSTORE PUSH1 0x20 PUSH1 0x0 KECCAK256 SWAP1 PUSH1 0x0 SWAP4 JUMPDEST PUSH1 0x1F NOT DUP5 AND DUP6 LT PUSH2 0x1420 JUMPI PUSH1 0x1 SWAP5 POP DUP4 PUSH1 0x1F NOT DUP2 AND LT PUSH2 0x1407 JUMPI JUMPDEST POP POP POP DUP2 SHL ADD PUSH1 0x7 DUP3 ADD SSTORE PUSH2 0xC9B JUMP JUMPDEST ADD MLOAD PUSH1 0x0 NOT PUSH1 0xF8 DUP5 PUSH1 0x3 SHL AND SHR NOT AND SWAP1 SSTORE DUP4 DUP1 DUP1 PUSH2 0x13F7 JUMP JUMPDEST DUP2 DUP2 ADD MLOAD DUP4 SSTORE PUSH1 0x20 SWAP5 DUP6 ADD SWAP5 PUSH1 0x1 SWAP1 SWAP4 ADD SWAP3 SWAP1 SWAP2 ADD SWAP1 PUSH2 0x13DC JUMP JUMPDEST ADD MLOAD SWAP1 POP DUP4 DUP1 PUSH2 0xC20 JUMP JUMPDEST SWAP3 POP PUSH1 0x6 DUP5 ADD PUSH1 0x0 MSTORE PUSH1 0x20 PUSH1 0x0 KECCAK256 SWAP1 PUSH1 0x0 SWAP4 JUMPDEST PUSH1 0x1F NOT DUP5 AND DUP6 LT PUSH2 0x149D JUMPI PUSH1 0x1 SWAP5 POP DUP4 PUSH1 0x1F NOT DUP2 AND LT PUSH2 0x1484 JUMPI JUMPDEST POP POP POP DUP2 SHL ADD PUSH1 0x6 DUP3 ADD SSTORE PUSH2 0xC38 JUMP JUMPDEST ADD MLOAD PUSH1 0x0 NOT PUSH1 0xF8 DUP5 PUSH1 0x3 SHL AND SHR NOT AND SWAP1 SSTORE DUP4 DUP1 DUP1 PUSH2 0x1474 JUMP JUMPDEST DUP2 DUP2 ADD MLOAD DUP4 SSTORE PUSH1 0x20 SWAP5 DUP6 ADD SWAP5 PUSH1 0x1 SWAP1 SWAP4 ADD SWAP3 SWAP1 SWAP2 ADD SWAP1 PUSH2 0x1459 JUMP JUMPDEST ADD MLOAD SWAP1 POP DUP4 DUP1 PUSH2 0xBBD JUMP JUMPDEST SWAP3 POP PUSH1 0x5 DUP5 ADD PUSH1 0x0 MSTORE PUSH1 0x20 PUSH1 0x0 KECCAK256 SWAP1 PUSH1 0x0 SWAP4 JUMPDEST PUSH1 0x1F NOT DUP5 AND DUP6 LT PUSH2 0x151A JUMPI PUSH1 0x1 SWAP5 POP DUP4 PUSH1 0x1F NOT DUP2 AND LT PUSH2 0x1501 JUMPI JUMPDEST POP POP POP DUP2 SHL ADD PUSH1 0x5 DUP3 ADD SSTORE PUSH2 0xBD5 JUMP JUMPDEST ADD MLOAD PUSH1 0x0 NOT PUSH1 0xF8 DUP5 PUSH1 0x3 SHL AND SHR NOT AND SWAP1 SSTORE DUP4 DUP1 DUP1 PUSH2 0x14F1 JUMP JUMPDEST DUP2 DUP2 ADD MLOAD DUP4 SSTORE PUSH1 0x20 SWAP5 DUP6 ADD SWAP5 PUSH1 0x1 SWAP1 SWAP4 ADD SWAP3 SWAP1 SWAP2 ADD SWAP1 PUSH2 0x14D6 JUMP JUMPDEST ADD MLOAD SWAP1 POP DUP4 DUP1 PUSH2 0xB5A JUMP JUMPDEST SWAP3 POP PUSH1 0x4 DUP5 ADD PUSH1 0x0 MSTORE PUSH1 0x20 PUSH1 0x0 KECCAK256 SWAP1 PUSH1 0x0 SWAP4 JUMPDEST PUSH1 0x1F NOT DUP5 AND DUP6 LT PUSH2 0x1597 JUMPI PUSH1 0x1 SWAP5 POP DUP4 PUSH1 0x1F NOT DUP2 AND LT PUSH2 0x157E JUMPI JUMPDEST POP POP POP DUP2 SHL ADD PUSH1 0x4 DUP3 ADD SSTORE PUSH2 0xB72 JUMP JUMPDEST ADD MLOAD PUSH1 0x0 NOT PUSH1 0xF8 DUP5 PUSH1 0x3 SHL AND SHR NOT AND SWAP1 SSTORE DUP4 DUP1 DUP1 PUSH2 0x156E JUMP JUMPDEST DUP2 DUP2 ADD MLOAD DUP4 SSTORE PUSH1 0x20 SWAP5 DUP6 ADD SWAP5 PUSH1 0x1 SWAP1 SWAP4 ADD SWAP3 SWAP1 SWAP2 ADD SWAP1 PUSH2 0x1553 JUMP JUMPDEST ADD MLOAD SWAP1 POP DUP4 DUP1 PUSH2 0xAF7 JUMP JUMPDEST SWAP3 POP PUSH1 0x3 DUP5 ADD PUSH1 0x0 MSTORE PUSH1 0x20 PUSH1 0x0 KECCAK256 SWAP1 PUSH1 0x0 SWAP4 JUMPDEST PUSH1 0x1F NOT DUP5 AND DUP6 LT PUSH2 0x1614 JUMPI PUSH1 0x1 SWAP5 POP DUP4 PUSH1 0x1F NOT DUP2 AND LT PUSH2 0x15FB JUMPI JUMPDEST POP POP POP DUP2 SHL ADD PUSH1 0x3 DUP3 ADD SSTORE PUSH2 0xB0F JUMP JUMPDEST ADD MLOAD PUSH1 0x0 NOT PUSH1 0xF8 DUP5 PUSH1 0x3 SHL AND SHR NOT AND SWAP1 SSTORE DUP4 DUP1 DUP1 PUSH2 0x15EB JUMP JUMPDEST DUP2 DUP2 ADD MLOAD DUP4 SSTORE PUSH1 0x20 SWAP5 DUP6 ADD SWAP5 PUSH1 0x1 SWAP1 SWAP4 ADD SWAP3 SWAP1 SWAP2 ADD SWAP1 PUSH2 0x15D0 JUMP JUMPDEST ADD MLOAD SWAP1 POP DUP5 DUP1 PUSH2 0xA97 JUMP JUMPDEST DUP3 PUSH1 0x0 MSTORE PUSH1 0x20 PUSH1 0x0 KECCAK256 SWAP1 PUSH1 0x0 PUSH1 0x1F NOT DUP5 AND SWAP1 JUMPDEST DUP2 DUP2 LT PUSH2 0x1688 JUMPI POP SWAP6 DUP4 PUSH1 0x1 SWAP6 SWAP7 SWAP8 LT PUSH2 0x166F JUMPI JUMPDEST POP POP POP DUP2 SHL ADD SWAP1 SSTORE PUSH2 0xAAC JUMP JUMPDEST ADD MLOAD PUSH1 0x0 NOT PUSH1 0xF8 DUP5 PUSH1 0x3 SHL AND SHR NOT AND SWAP1 SSTORE DUP5 DUP1 DUP1 PUSH2 0x1662 JUMP JUMPDEST SWAP2 SWAP3 PUSH1 0x20 PUSH1 0x1 DUP2 SWAP3 DUP7 DUP12 ADD MLOAD DUP2 SSTORE ADD SWAP5 ADD SWAP3 ADD PUSH2 0x164D JUMP JUMPDEST ADD MLOAD SWAP1 POP DUP5 DUP1 PUSH2 0xA3D JUMP JUMPDEST DUP3 PUSH1 0x0 MSTORE PUSH1 0x20 PUSH1 0x0 KECCAK256 SWAP1 PUSH1 0x0 PUSH1 0x1F NOT DUP5 AND SWAP1 JUMPDEST DUP2 DUP2 LT PUSH2 0x16F9 JUMPI POP SWAP6 DUP4 PUSH1 0x1 SWAP6 SWAP7 SWAP8 LT PUSH2 0x16E0 JUMPI JUMPDEST POP POP POP DUP2 SHL ADD SWAP1 SSTORE PUSH2 0xA52 JUMP JUMPDEST ADD MLOAD PUSH1 0x0 NOT PUSH1 0xF8 DUP5 PUSH1 0x3 SHL AND SHR NOT AND SWAP1 SSTORE DUP5 DUP1 DUP1 PUSH2 0x16D3 JUMP JUMPDEST SWAP2 SWAP3 PUSH1 0x20 PUSH1 0x1 DUP2 SWAP3 DUP7 DUP12 ADD MLOAD DUP2 SSTORE ADD SWAP5 ADD SWAP3 ADD PUSH2 0x16BE JUMP JUMPDEST ADD MLOAD SWAP1 POP DUP4 DUP1 PUSH2 0x9E3 JUMP JUMPDEST DUP3 PUSH1 0x0 MSTORE PUSH1 0x20 PUSH1 0x0 KECCAK256 SWAP1 PUSH1 0x0 SWAP5 PUSH1 0x1F NOT DUP5 AND SWAP6 JUMPDEST DUP7 DUP2 LT PUSH2 0x1769 JUMPI POP DUP4 PUSH1 0x1 SWAP6 SWAP7 LT PUSH2 0x1750 JUMPI JUMPDEST POP POP POP DUP2 SHL ADD DUP2 SSTORE PUSH2 0x9F8 JUMP JUMPDEST ADD MLOAD PUSH1 0x0 NOT PUSH1 0xF8 DUP5 PUSH1 0x3 SHL AND SHR NOT AND SWAP1 SSTORE DUP4 DUP1 DUP1 PUSH2 0x1743 JUMP JUMPDEST SWAP2 SWAP3 PUSH1 0x20 PUSH1 0x1 DUP2 SWAP3 DUP7 DUP6 ADD MLOAD DUP2 SSTORE ADD SWAP5 ADD SWAP3 ADD PUSH2 0x1730 JUMP JUMPDEST PUSH3 0x461BCD PUSH1 0xE5 SHL PUSH2 0x440 SWAP1 DUP2 MSTORE PUSH1 0x20 PUSH2 0x444 MSTORE PUSH1 0xB PUSH2 0x464 MSTORE PUSH11 0x139BDD081CDD195DD85C99 PUSH1 0xAA SHL PUSH2 0x484 MSTORE PUSH1 0x64 SWAP1 REVERT JUMPDEST SWAP2 DUP2 PUSH1 0x1F DUP5 ADD SLT ISZERO PUSH2 0x251 JUMPI DUP3 CALLDATALOAD SWAP2 PUSH1 0x1 PUSH1 0x1 PUSH1 0x40 SHL SUB DUP4 GT PUSH2 0x251 JUMPI PUSH1 0x20 DUP4 DUP2 DUP7 ADD SWAP6 ADD ADD GT PUSH2 0x251 JUMPI JUMP JUMPDEST PUSH1 0x2 SLOAD DUP2 LT ISZERO PUSH2 0x1816 JUMPI PUSH1 0x2 PUSH1 0x0 MSTORE PUSH32 0x405787FA12A823E0F2B7631CC41B3BA8828B3321CA811111FA75CD3AA3BB5ACE ADD SWAP1 PUSH1 0x0 SWAP1 JUMP JUMPDEST PUSH4 0x4E487B71 PUSH1 0xE0 SHL PUSH1 0x0 MSTORE PUSH1 0x32 PUSH1 0x4 MSTORE PUSH1 0x24 PUSH1 0x0 REVERT JUMPDEST SWAP1 PUSH1 0x1 DUP3 DUP2 SHR SWAP3 AND DUP1 ISZERO PUSH2 0x185C JUMPI JUMPDEST PUSH1 0x20 DUP4 LT EQ PUSH2 0x1846 JUMPI JUMP JUMPDEST PUSH4 0x4E487B71 PUSH1 0xE0 SHL PUSH1 0x0 MSTORE PUSH1 0x22 PUSH1 0x4 MSTORE PUSH1 0x24 PUSH1 0x0 REVERT JUMPDEST SWAP2 PUSH1 0x7F AND SWAP2 PUSH2 0x183B JUMP JUMPDEST PUSH2 0x1A0 DUP2 ADD SWAP1 DUP2 LT PUSH1 0x1 PUSH1 0x1 PUSH1 0x40 SHL SUB DUP3 GT OR PUSH2 0x1145 JUMPI PUSH1 0x40 MSTORE JUMP JUMPDEST SWAP1 PUSH1 0x1F DUP1 NOT SWAP2 ADD AND DUP2 ADD SWAP1 DUP2 LT PUSH1 0x1 PUSH1 0x1 PUSH1 0x40 SHL SUB DUP3 GT OR PUSH2 0x1145 JUMPI PUSH1 0x40 MSTORE JUMP JUMPDEST SWAP1 PUSH1 0x40 MLOAD SWAP2 DUP3 PUSH1 0x0 DUP3 SLOAD SWAP3 PUSH2 0x18B7 DUP5 PUSH2 0x182C JUMP JUMPDEST SWAP1 DUP2 DUP5 MSTORE PUSH1 0x1 SWAP5 DUP6 DUP2 AND SWAP1 DUP2 PUSH1 0x0 EQ PUSH2 0x1926 JUMPI POP PUSH1 0x1 EQ PUSH2 0x18E3 JUMPI JUMPDEST POP POP PUSH2 0x18E1 SWAP3 POP SUB DUP4 PUSH2 0x1882 JUMP JUMPDEST JUMP JUMPDEST SWAP1 SWAP4 SWAP2 POP PUSH1 0x0 MSTORE PUSH1 0x20 SWAP1 DUP2 PUSH1 0x0 KECCAK256 SWAP4 PUSH1 0x0 SWAP2 JUMPDEST DUP2 DUP4 LT PUSH2 0x190E JUMPI POP POP PUSH2 0x18E1 SWAP4 POP DUP3 ADD ADD CODESIZE DUP1 PUSH2 0x18D3 JUMP JUMPDEST DUP6 SLOAD DUP9 DUP5 ADD DUP6 ADD MSTORE SWAP5 DUP6 ADD SWAP5 DUP8 SWAP5 POP SWAP2 DUP4 ADD SWAP2 PUSH2 0x18F6 JUMP JUMPDEST SWAP2 POP POP PUSH2 0x18E1 SWAP5 POP PUSH1 0x20 SWAP3 POP PUSH1 0xFF NOT AND DUP3 DUP5 ADD MSTORE ISZERO ISZERO PUSH1 0x5 SHL DUP3 ADD ADD CODESIZE DUP1 PUSH2 0x18D3 JUMP JUMPDEST PUSH1 0x0 JUMPDEST DUP4 DUP2 LT PUSH2 0x195C JUMPI POP POP PUSH1 0x0 SWAP2 ADD MSTORE JUMP JUMPDEST DUP2 DUP2 ADD MLOAD DUP4 DUP3 ADD MSTORE PUSH1 0x20 ADD PUSH2 0x194C JUMP JUMPDEST SWAP1 PUSH1 0x20 SWAP2 PUSH2 0x1985 DUP2 MLOAD DUP1 SWAP3 DUP2 DUP6 MSTORE DUP6 DUP1 DUP7 ADD SWAP2 ADD PUSH2 0x1949 JUMP JUMPDEST PUSH1 0x1F ADD PUSH1 0x1F NOT AND ADD ADD SWAP1 JUMP JUMPDEST SWAP3 SWAP2 SWAP3 PUSH1 0x1 PUSH1 0x1 PUSH1 0x40 SHL SUB DUP3 GT PUSH2 0x1145 JUMPI PUSH1 0x40 MLOAD SWAP2 PUSH2 0x19BA PUSH1 0x1F DUP3 ADD PUSH1 0x1F NOT AND PUSH1 0x20 ADD DUP5 PUSH2 0x1882 JUMP JUMPDEST DUP3 SWAP5 DUP2 DUP5 MSTORE DUP2 DUP4 ADD GT PUSH2 0x251 JUMPI DUP3 DUP2 PUSH1 0x20 SWAP4 DUP5 PUSH1 0x0 SWAP7 ADD CALLDATACOPY ADD ADD MSTORE JUMP JUMPDEST SWAP1 PUSH1 0x1F DUP2 GT PUSH2 0x19E5 JUMPI POP POP POP JUMP JUMPDEST PUSH1 0x0 SWAP2 DUP3 MSTORE PUSH1 0x20 DUP3 KECCAK256 SWAP1 PUSH1 0x20 PUSH1 0x1F DUP6 ADD PUSH1 0x5 SHR DUP4 ADD SWAP5 LT PUSH2 0x1A21 JUMPI JUMPDEST PUSH1 0x1F ADD PUSH1 0x5 SHR ADD SWAP2 JUMPDEST DUP3 DUP2 LT PUSH2 0x1A16 JUMPI POP POP POP JUMP JUMPDEST DUP2 DUP2 SSTORE PUSH1 0x1 ADD PUSH2 0x1A0A JUMP JUMPDEST SWAP1 SWAP3 POP DUP3 SWAP1 PUSH2 0x1A01 JUMP JUMPDEST SWAP1 DUP1 PUSH1 0x20 SWAP4 SWAP3 DUP2 DUP5 MSTORE DUP5 DUP5 ADD CALLDATACOPY PUSH1 0x0 DUP3 DUP3 ADD DUP5 ADD MSTORE PUSH1 0x1F ADD PUSH1 0x1F NOT AND ADD ADD SWAP1 JUMP INVALID LOG2 PUSH5 0x6970667358 0x22 SLT KECCAK256 0x1E MLOAD PUSH31 0x9BD141379C66245E36F179D22EE21652AF12DCE127EC8BABC62F2BC4346473 PUSH16 0x6C634300081400330000000000000000 "},"methodIdentifiers":{"codices(string)":"dbc21424","getCodex(string)":"83361522","inscribeCodex(string,string,string,string,string,string,string,string,string,string,string,string,string,string)":"042b4b75","keys(uint256)":"0cb6aaf1","steward()":"637eea19","totalCodices()":"c212d16b"}}}}}