{"contracts/registry/CompanionSummonerXIII.sol":{"CompanionSummonerXIII":{"abi":[{"inputs":[],"stateMutability":"nonpayable","type":"constructor"},{"anonymous":false,"inputs":[{"indexed":true,"internalType":"address","name":"companion","type":"address"},{"indexed":false,"internalType":"string","name":"name","type":"string"},{"indexed":false,"internalType":"string","name":"trait","type":"string"},{"indexed":false,"internalType":"string","name":"drift","type":"string"},{"indexed":false,"internalType":"string","name":"resonance","type":"string"},{"indexed":false,"internalType":"string","name":"codexRef","type":"string"},{"indexed":false,"internalType":"string","name":"signature","type":"string"},{"indexed":false,"internalType":"string","name":"sanctum","type":"string"},{"indexed":false,"internalType":"string","name":"chant","type":"string"},{"indexed":false,"internalType":"string","name":"choreography","type":"string"},{"indexed":false,"internalType":"string","name":"signal","type":"string"}],"name":"CompanionSummoned","type":"event"},{"inputs":[{"internalType":"address","name":"","type":"address"}],"name":"companions","outputs":[{"internalType":"string","name":"name","type":"string"},{"internalType":"string","name":"trait","type":"string"},{"internalType":"string","name":"drift","type":"string"},{"internalType":"string","name":"resonance","type":"string"},{"internalType":"string","name":"codexRef","type":"string"},{"internalType":"string","name":"signature","type":"string"},{"internalType":"string","name":"sanctum","type":"string"},{"internalType":"string","name":"chant","type":"string"},{"internalType":"string","name":"choreography","type":"string"},{"internalType":"string","name":"signal","type":"string"}],"stateMutability":"view","type":"function"},{"inputs":[{"internalType":"address","name":"companion","type":"address"}],"name":"getCompanion","outputs":[{"components":[{"internalType":"string","name":"name","type":"string"},{"internalType":"string","name":"trait","type":"string"},{"internalType":"string","name":"drift","type":"string"},{"internalType":"string","name":"resonance","type":"string"},{"internalType":"string","name":"codexRef","type":"string"},{"internalType":"string","name":"signature","type":"string"},{"internalType":"string","name":"sanctum","type":"string"},{"internalType":"string","name":"chant","type":"string"},{"internalType":"string","name":"choreography","type":"string"},{"internalType":"string","name":"signal","type":"string"}],"internalType":"struct CompanionSummonerXIII.Companion","name":"","type":"tuple"}],"stateMutability":"view","type":"function"},{"inputs":[{"internalType":"uint256","name":"","type":"uint256"}],"name":"keys","outputs":[{"internalType":"address","name":"","type":"address"}],"stateMutability":"view","type":"function"},{"inputs":[],"name":"steward","outputs":[{"internalType":"address","name":"","type":"address"}],"stateMutability":"view","type":"function"},{"inputs":[{"internalType":"address","name":"companion","type":"address"},{"internalType":"string","name":"name","type":"string"},{"internalType":"string","name":"trait","type":"string"},{"internalType":"string","name":"drift","type":"string"},{"internalType":"string","name":"resonance","type":"string"},{"internalType":"string","name":"codexRef","type":"string"},{"internalType":"string","name":"signature","type":"string"},{"internalType":"string","name":"sanctum","type":"string"},{"internalType":"string","name":"chant","type":"string"},{"internalType":"string","name":"choreography","type":"string"},{"internalType":"string","name":"signal","type":"string"}],"name":"summonCompanion","outputs":[],"stateMutability":"nonpayable","type":"function"},{"inputs":[],"name":"totalCompanions","outputs":[{"internalType":"uint256","name":"","type":"uint256"}],"stateMutability":"view","type":"function"}],"evm":{"bytecode":{"linkReferences":{},"object":"6080806040523461002857600080546001600160a01b03191633179055611749908161002e8239f35b600080fdfe610360604052600436101561001357600080fd5b60003560e01c80630cb6aaf11461147d578063242441571461043857806347854b87146102dc578063637eea19146102b3578063ec39f18f146102955763ef6527371461005f57600080fd5b346102905760203660031901126102905761007861150c565b606061012060405161008981611589565b82815282602082015282604082015282808201528260808201528260a08201528260c08201528260e082015282610100820152015260018060a01b0316600052600160205261028c60406000206101826009604051926100e884611589565b6100f1816115c6565b84526100ff600182016115c6565b6020850152610110600282016115c6565b6040850152610121600382016115c6565b6060850152610132600482016115c6565b6080850152610143600582016115c6565b60a0850152610154600682016115c6565b60c0850152610165600782016115c6565b60e0850152610176600882016115c6565b610100850152016115c6565b6101208201526040519182916020835261012061027761026161024a61023461021e6102086101f26101dc6101c68c6101608c51916101406020820152019061166c565b60208b01518d8203601f190160408f015261166c565b60408a01518c8203601f190160608e015261166c565b60608901518b8203601f190160808d015261166c565b60808801518a8203601f190160a08c015261166c565b60a0870151898203601f190160c08b015261166c565b60c0860151888203601f190160e08a015261166c565b60e0850151878203601f190161010089015261166c565b610100840151868203601f19018488015261166c565b910151838203601f190161014085015261166c565b0390f35b600080fd5b34610290576000366003190112610290576020600254604051908152f35b34610290576000366003190112610290576000546040516001600160a01b039091168152602090f35b34610290576020366003190112610290576001600160a01b036102fd61150c565b1660005260016020526040600020610314816115c6565b610320600183016115c6565b9161032d600282016115c6565b9061033a600382016115c6565b610346600483016115c6565b610352600584016115c6565b61035e600685016115c6565b9161036b600786016115c6565b93610378600887016115c6565b95600901610385906115c6565b96604051998a99610140808c528b0161039d9161166c565b8a810360208c01526103ae9161166c565b89810360408b01526103bf9161166c565b88810360608a01526103d09161166c565b87810360808901526103e19161166c565b86810360a08801526103f29161166c565b85810360c08701526104039161166c565b84810360e08601526104149161166c565b8381036101008501526104269161166c565b82810361012084015261028c9161166c565b34610290576101603660031901126102905761045261150c565b610120526024356001600160401b03811161029057610475903690600401611522565b608052610340526044356001600160401b0381116102905761049b903690600401611522565b610160526102a0526064356001600160401b038111610290576104c2903690600401611522565b61030052610280526084356001600160401b038111610290576104e9903690600401611522565b610320526101805260a4356001600160401b03811161029057610510903690600401611522565b6101c0526102205260c4356001600160401b03811161029057610537903690600401611522565b610260526101405260e4356001600160401b0381116102905761055e903690600401611522565b6101005261024052610104356001600160401b03811161029057610586903690600401611522565b60c0526102c052610124356001600160401b038111610290576105ad903690600401611522565b60e0526101e052610144356001600160401b038111610290576105d4903690600401611522565b6102005260a0526000546001600160a01b0316330361144a576105fd604051806101a052611589565b61060d36608051610340516116ac565b6101a0515261062336610160516102a0516116ac565b60206101a051015261063c3661030051610280516116ac565b60406101a05101526106553661032051610180516116ac565b60606101a051015261066e366101c051610220516116ac565b60806101a05101526106873661026051610140516116ac565b60a06101a05101526106a03661010051610240516116ac565b60c06101a05101526106b83660c0516102c0516116ac565b60e06101a05101526106d03660e0516101e0516116ac565b6101006101a05101526106e9366102005160a0516116ac565b6101206101a051015260018060a01b036101205116600052600160205260406000206101a051519081516001600160401b038111610c665761072b825461154f565b601f8111611406575b506020601f82116001146113a157819293600092611396575b50508160011b916000199060031b1c19161781555b60206101a05101519081516001600160401b038111610c6657610788600183015461154f565b601f811161134f575b506020601f82116001146112e4578192936000926112d9575b50508160011b916000199060031b1c19161760018201555b60406101a05101519081516001600160401b038111610c66576107e8600283015461154f565b601f8111611292575b506020601f82116001146112275781929360009261121c575b50508160011b916000199060031b1c19161760028201555b60606101a05101518051906001600160401b038211610c6657819061084a600385015461154f565b601f81116111c9575b50602090601f83116001146111575760009261114c575b50508160011b916000199060031b1c19161760038201555b60806101a05101518051906001600160401b038211610c665781906108aa600485015461154f565b601f81116110f9575b50602090601f83116001146110875760009261107c575b50508160011b916000199060031b1c19161760048201555b60a06101a05101518051906001600160401b038211610c6657819061090a600585015461154f565b601f8111611029575b50602090601f8311600114610fb757600092610fac575b50508160011b916000199060031b1c19161760058201555b60c06101a05101518051906001600160401b038211610c6657819061096a600685015461154f565b601f8111610f59575b50602090601f8311600114610ee757600092610edc575b50508160011b916000199060031b1c19161760068201555b60e06101a05101518051906001600160401b038211610c665781906109ca600785015461154f565b601f8111610e89575b50602090601f8311600114610e1757600092610e0c575b50508160011b916000199060031b1c19161760078201555b6101006101a05101518051906001600160401b038211610c66578190610a2b600885015461154f565b601f8111610db9575b50602090601f8311600114610d4757600092610d3c575b50508160011b916000199060031b1c19161760088201555b6101206101a05101518051906001600160401b038211610c6657610a8a600984015461154f565b601f8111610cf5575b50602090601f8311600114610c87576009929160009183610c7c575b50508160011b916000199060031b1c1916179101555b60025468010000000000000000811015610c6657806001610ae992016002556114bf565b81549060031b9060018060a01b036101205116821b9160018060a01b03901b1916179055610140604051806102e05252610c0f610bf6610bde610bc5610bac610b93610b7a610b61610b486101406102e05101608051610340516116f2565b6102e0516020818303910152610160516102a0516116f2565b6102e051604081830391015261030051610280516116f2565b6102e051606081830391015261032051610180516116f2565b6102e05160808183039101526101c051610220516116f2565b6102e05160a081830391015261026051610140516116f2565b6102e05160c081830391015261010051610240516116f2565b6102e05160e081830391015260c0516102c0516116f2565b6102e05161010081830391015260e0516101e0516116f2565b6102e0516101208183039101527fc3074eb450413679b67cd39baf0df5ff05327d643143fc5d4f6b8781dfefeed960018060a01b03610120511691610c5e6102e051916102005160a0516116f2565b036102e051a2005b634e487b7160e01b600052604160045260246000fd5b015190508480610aaf565b90601f198316916009850160005260206000209260005b818110610cdd57509160019391856009969410610cc4575b505050811b01910155610ac5565b015160001960f88460031b161c19169055848080610cb6565b92936020600181928786015181550195019301610c9e565b600984016000526020600020601f840160051c810160208510610d35575b601f830160051c82018110610d29575050610a93565b60008155600101610d13565b5080610d13565b015190508380610a4b565b9250600884016000526020600020906000935b601f1984168510610d9e576001945083601f19811610610d85575b505050811b016008820155610a63565b015160001960f88460031b161c19169055838080610d75565b81810151835560209485019460019093019290910190610d5a565b909150600884016000526020600020601f840160051c810160208510610e05575b90849392915b601f830160051c82018110610df6575050610a34565b60008155859450600101610de0565b5080610dda565b0151905083806109ea565b9250600784016000526020600020906000935b601f1984168510610e6e576001945083601f19811610610e55575b505050811b016007820155610a02565b015160001960f88460031b161c19169055838080610e45565b81810151835560209485019460019093019290910190610e2a565b909150600784016000526020600020601f840160051c810160208510610ed5575b90849392915b601f830160051c82018110610ec65750506109d3565b60008155859450600101610eb0565b5080610eaa565b01519050838061098a565b9250600684016000526020600020906000935b601f1984168510610f3e576001945083601f19811610610f25575b505050811b0160068201556109a2565b015160001960f88460031b161c19169055838080610f15565b81810151835560209485019460019093019290910190610efa565b909150600684016000526020600020601f840160051c810160208510610fa5575b90849392915b601f830160051c82018110610f96575050610973565b60008155859450600101610f80565b5080610f7a565b01519050838061092a565b9250600584016000526020600020906000935b601f198416851061100e576001945083601f19811610610ff5575b505050811b016005820155610942565b015160001960f88460031b161c19169055838080610fe5565b81810151835560209485019460019093019290910190610fca565b909150600584016000526020600020601f840160051c810160208510611075575b90849392915b601f830160051c82018110611066575050610913565b60008155859450600101611050565b508061104a565b0151905083806108ca565b9250600484016000526020600020906000935b601f19841685106110de576001945083601f198116106110c5575b505050811b0160048201556108e2565b015160001960f88460031b161c191690558380806110b5565b8181015183556020948501946001909301929091019061109a565b909150600484016000526020600020601f840160051c810160208510611145575b90849392915b601f830160051c820181106111365750506108b3565b60008155859450600101611120565b508061111a565b01519050838061086a565b9250600384016000526020600020906000935b601f19841685106111ae576001945083601f19811610611195575b505050811b016003820155610882565b015160001960f88460031b161c19169055838080611185565b8181015183556020948501946001909301929091019061116a565b909150600384016000526020600020601f840160051c810160208510611215575b90849392915b601f830160051c82018110611206575050610853565b600081558594506001016111f0565b50806111ea565b01519050838061080a565b60028301600052602060002090600094601f198416955b86811061127a5750836001959610611261575b505050811b016002820155610822565b015160001960f88460031b161c19169055838080611251565b9192602060018192868501518155019401920161123e565b600283016000526020600020601f830160051c8101602084106112d2575b601f830160051c820181106112c65750506107f1565b600081556001016112b0565b50806112b0565b0151905083806107aa565b60018301600052602060002090600094601f198416955b868110611337575083600195961061131e575b505050811b0160018201556107c2565b015160001960f88460031b161c1916905583808061130e565b919260206001819286850151815501940192016112fb565b600183016000526020600020601f830160051c81016020841061138f575b601f830160051c82018110611383575050610791565b6000815560010161136d565b508061136d565b01519050838061074d565b82600052602060002090600094601f198416955b8681106113ee57508360019596106113d5575b505050811b018155610762565b015160001960f88460031b161c191690558380806113c8565b919260206001819286850151815501940192016113b5565b826000526020600020601f830160051c810160208410611443575b601f830160051c82018110611437575050610734565b60008155600101611421565b5080611421565b60405162461bcd60e51b815260206004820152600b60248201526a139bdd081cdd195dd85c9960aa1b6044820152606490fd5b3461029057602036600319011261029057600435600254811015610290576114a66020916114bf565b905460405160039290921b1c6001600160a01b03168152f35b6002548110156114f65760026000527f405787fa12a823e0f2b7631cc41b3ba8828b3321ca811111fa75cd3aa3bb5ace0190600090565b634e487b7160e01b600052603260045260246000fd5b600435906001600160a01b038216820361029057565b9181601f84011215610290578235916001600160401b038311610290576020838186019501011161029057565b90600182811c9216801561157f575b602083101461156957565b634e487b7160e01b600052602260045260246000fd5b91607f169161155e565b61014081019081106001600160401b03821117610c6657604052565b90601f801991011681019081106001600160401b03821117610c6657604052565b90604051918260008254926115da8461154f565b9081845260019485811690816000146116495750600114611606575b5050611604925003836115a5565b565b9093915060005260209081600020936000915b818310611631575050611604935082010138806115f6565b85548884018501529485019487945091830191611619565b91505061160494506020925060ff191682840152151560051b82010138806115f6565b919082519283825260005b848110611698575050826000602080949584010152601f8019910116010190565b602081830181015184830182015201611677565b9291926001600160401b038211610c6657604051916116d5601f8201601f1916602001846115a5565b829481845281830111610290578281602093846000960137010152565b908060209392818452848401376000828201840152601f01601f191601019056fea2646970667358221220e301c0deb6eae60623f9b64d06207a0fa234c400b81f67373eaa857ad51c3a6d64736f6c63430008140033","opcodes":"PUSH1 0x80 DUP1 PUSH1 0x40 MSTORE CALLVALUE PUSH2 0x28 JUMPI PUSH1 0x0 DUP1 SLOAD PUSH1 0x1 PUSH1 0x1 PUSH1 0xA0 SHL SUB NOT AND CALLER OR SWAP1 SSTORE PUSH2 0x1749 SWAP1 DUP2 PUSH2 0x2E DUP3 CODECOPY RETURN JUMPDEST PUSH1 0x0 DUP1 REVERT INVALID PUSH2 0x360 PUSH1 0x40 MSTORE PUSH1 0x4 CALLDATASIZE LT ISZERO PUSH2 0x13 JUMPI PUSH1 0x0 DUP1 REVERT JUMPDEST PUSH1 0x0 CALLDATALOAD PUSH1 0xE0 SHR DUP1 PUSH4 0xCB6AAF1 EQ PUSH2 0x147D JUMPI DUP1 PUSH4 0x24244157 EQ PUSH2 0x438 JUMPI DUP1 PUSH4 0x47854B87 EQ PUSH2 0x2DC JUMPI DUP1 PUSH4 0x637EEA19 EQ PUSH2 0x2B3 JUMPI DUP1 PUSH4 0xEC39F18F EQ PUSH2 0x295 JUMPI PUSH4 0xEF652737 EQ PUSH2 0x5F JUMPI PUSH1 0x0 DUP1 REVERT JUMPDEST CALLVALUE PUSH2 0x290 JUMPI PUSH1 0x20 CALLDATASIZE PUSH1 0x3 NOT ADD SLT PUSH2 0x290 JUMPI PUSH2 0x78 PUSH2 0x150C JUMP JUMPDEST PUSH1 0x60 PUSH2 0x120 PUSH1 0x40 MLOAD PUSH2 0x89 DUP2 PUSH2 0x1589 JUMP JUMPDEST DUP3 DUP2 MSTORE DUP3 PUSH1 0x20 DUP3 ADD MSTORE DUP3 PUSH1 0x40 DUP3 ADD MSTORE DUP3 DUP1 DUP3 ADD MSTORE DUP3 PUSH1 0x80 DUP3 ADD MSTORE DUP3 PUSH1 0xA0 DUP3 ADD MSTORE DUP3 PUSH1 0xC0 DUP3 ADD MSTORE DUP3 PUSH1 0xE0 DUP3 ADD MSTORE DUP3 PUSH2 0x100 DUP3 ADD MSTORE ADD MSTORE PUSH1 0x1 DUP1 PUSH1 0xA0 SHL SUB AND PUSH1 0x0 MSTORE PUSH1 0x1 PUSH1 0x20 MSTORE PUSH2 0x28C PUSH1 0x40 PUSH1 0x0 KECCAK256 PUSH2 0x182 PUSH1 0x9 PUSH1 0x40 MLOAD SWAP3 PUSH2 0xE8 DUP5 PUSH2 0x1589 JUMP JUMPDEST PUSH2 0xF1 DUP2 PUSH2 0x15C6 JUMP JUMPDEST DUP5 MSTORE PUSH2 0xFF PUSH1 0x1 DUP3 ADD PUSH2 0x15C6 JUMP JUMPDEST PUSH1 0x20 DUP6 ADD MSTORE PUSH2 0x110 PUSH1 0x2 DUP3 ADD PUSH2 0x15C6 JUMP JUMPDEST PUSH1 0x40 DUP6 ADD MSTORE PUSH2 0x121 PUSH1 0x3 DUP3 ADD PUSH2 0x15C6 JUMP JUMPDEST PUSH1 0x60 DUP6 ADD MSTORE PUSH2 0x132 PUSH1 0x4 DUP3 ADD PUSH2 0x15C6 JUMP JUMPDEST PUSH1 0x80 DUP6 ADD MSTORE PUSH2 0x143 PUSH1 0x5 DUP3 ADD PUSH2 0x15C6 JUMP JUMPDEST PUSH1 0xA0 DUP6 ADD MSTORE PUSH2 0x154 PUSH1 0x6 DUP3 ADD PUSH2 0x15C6 JUMP JUMPDEST PUSH1 0xC0 DUP6 ADD MSTORE PUSH2 0x165 PUSH1 0x7 DUP3 ADD PUSH2 0x15C6 JUMP JUMPDEST PUSH1 0xE0 DUP6 ADD MSTORE PUSH2 0x176 PUSH1 0x8 DUP3 ADD PUSH2 0x15C6 JUMP JUMPDEST PUSH2 0x100 DUP6 ADD MSTORE ADD PUSH2 0x15C6 JUMP JUMPDEST PUSH2 0x120 DUP3 ADD MSTORE PUSH1 0x40 MLOAD SWAP2 DUP3 SWAP2 PUSH1 0x20 DUP4 MSTORE PUSH2 0x120 PUSH2 0x277 PUSH2 0x261 PUSH2 0x24A PUSH2 0x234 PUSH2 0x21E PUSH2 0x208 PUSH2 0x1F2 PUSH2 0x1DC PUSH2 0x1C6 DUP13 PUSH2 0x160 DUP13 MLOAD SWAP2 PUSH2 0x140 PUSH1 0x20 DUP3 ADD MSTORE ADD SWAP1 PUSH2 0x166C JUMP JUMPDEST PUSH1 0x20 DUP12 ADD MLOAD DUP14 DUP3 SUB PUSH1 0x1F NOT ADD PUSH1 0x40 DUP16 ADD MSTORE PUSH2 0x166C JUMP JUMPDEST PUSH1 0x40 DUP11 ADD MLOAD DUP13 DUP3 SUB PUSH1 0x1F NOT ADD PUSH1 0x60 DUP15 ADD MSTORE PUSH2 0x166C JUMP JUMPDEST PUSH1 0x60 DUP10 ADD MLOAD DUP12 DUP3 SUB PUSH1 0x1F NOT ADD PUSH1 0x80 DUP14 ADD MSTORE PUSH2 0x166C JUMP JUMPDEST PUSH1 0x80 DUP9 ADD MLOAD DUP11 DUP3 SUB PUSH1 0x1F NOT ADD PUSH1 0xA0 DUP13 ADD MSTORE PUSH2 0x166C JUMP JUMPDEST PUSH1 0xA0 DUP8 ADD MLOAD DUP10 DUP3 SUB PUSH1 0x1F NOT ADD PUSH1 0xC0 DUP12 ADD MSTORE PUSH2 0x166C JUMP JUMPDEST PUSH1 0xC0 DUP7 ADD MLOAD DUP9 DUP3 SUB PUSH1 0x1F NOT ADD PUSH1 0xE0 DUP11 ADD MSTORE PUSH2 0x166C JUMP JUMPDEST PUSH1 0xE0 DUP6 ADD MLOAD DUP8 DUP3 SUB PUSH1 0x1F NOT ADD PUSH2 0x100 DUP10 ADD MSTORE PUSH2 0x166C JUMP JUMPDEST PUSH2 0x100 DUP5 ADD MLOAD DUP7 DUP3 SUB PUSH1 0x1F NOT ADD DUP5 DUP9 ADD MSTORE PUSH2 0x166C JUMP JUMPDEST SWAP2 ADD MLOAD DUP4 DUP3 SUB PUSH1 0x1F NOT ADD PUSH2 0x140 DUP6 ADD MSTORE PUSH2 0x166C JUMP JUMPDEST SUB SWAP1 RETURN JUMPDEST PUSH1 0x0 DUP1 REVERT JUMPDEST CALLVALUE PUSH2 0x290 JUMPI PUSH1 0x0 CALLDATASIZE PUSH1 0x3 NOT ADD SLT PUSH2 0x290 JUMPI PUSH1 0x20 PUSH1 0x2 SLOAD PUSH1 0x40 MLOAD SWAP1 DUP2 MSTORE RETURN JUMPDEST CALLVALUE PUSH2 0x290 JUMPI PUSH1 0x0 CALLDATASIZE PUSH1 0x3 NOT ADD SLT PUSH2 0x290 JUMPI PUSH1 0x0 SLOAD PUSH1 0x40 MLOAD PUSH1 0x1 PUSH1 0x1 PUSH1 0xA0 SHL SUB SWAP1 SWAP2 AND DUP2 MSTORE PUSH1 0x20 SWAP1 RETURN JUMPDEST CALLVALUE PUSH2 0x290 JUMPI PUSH1 0x20 CALLDATASIZE PUSH1 0x3 NOT ADD SLT PUSH2 0x290 JUMPI PUSH1 0x1 PUSH1 0x1 PUSH1 0xA0 SHL SUB PUSH2 0x2FD PUSH2 0x150C JUMP JUMPDEST AND PUSH1 0x0 MSTORE PUSH1 0x1 PUSH1 0x20 MSTORE PUSH1 0x40 PUSH1 0x0 KECCAK256 PUSH2 0x314 DUP2 PUSH2 0x15C6 JUMP JUMPDEST PUSH2 0x320 PUSH1 0x1 DUP4 ADD PUSH2 0x15C6 JUMP JUMPDEST SWAP2 PUSH2 0x32D PUSH1 0x2 DUP3 ADD PUSH2 0x15C6 JUMP JUMPDEST SWAP1 PUSH2 0x33A PUSH1 0x3 DUP3 ADD PUSH2 0x15C6 JUMP JUMPDEST PUSH2 0x346 PUSH1 0x4 DUP4 ADD PUSH2 0x15C6 JUMP JUMPDEST PUSH2 0x352 PUSH1 0x5 DUP5 ADD PUSH2 0x15C6 JUMP JUMPDEST PUSH2 0x35E PUSH1 0x6 DUP6 ADD PUSH2 0x15C6 JUMP JUMPDEST SWAP2 PUSH2 0x36B PUSH1 0x7 DUP7 ADD PUSH2 0x15C6 JUMP JUMPDEST SWAP4 PUSH2 0x378 PUSH1 0x8 DUP8 ADD PUSH2 0x15C6 JUMP JUMPDEST SWAP6 PUSH1 0x9 ADD PUSH2 0x385 SWAP1 PUSH2 0x15C6 JUMP JUMPDEST SWAP7 PUSH1 0x40 MLOAD SWAP10 DUP11 SWAP10 PUSH2 0x140 DUP1 DUP13 MSTORE DUP12 ADD PUSH2 0x39D SWAP2 PUSH2 0x166C JUMP JUMPDEST DUP11 DUP2 SUB PUSH1 0x20 DUP13 ADD MSTORE PUSH2 0x3AE SWAP2 PUSH2 0x166C JUMP JUMPDEST DUP10 DUP2 SUB PUSH1 0x40 DUP12 ADD MSTORE PUSH2 0x3BF SWAP2 PUSH2 0x166C JUMP JUMPDEST DUP9 DUP2 SUB PUSH1 0x60 DUP11 ADD MSTORE PUSH2 0x3D0 SWAP2 PUSH2 0x166C JUMP JUMPDEST DUP8 DUP2 SUB PUSH1 0x80 DUP10 ADD MSTORE PUSH2 0x3E1 SWAP2 PUSH2 0x166C JUMP JUMPDEST DUP7 DUP2 SUB PUSH1 0xA0 DUP9 ADD MSTORE PUSH2 0x3F2 SWAP2 PUSH2 0x166C JUMP JUMPDEST DUP6 DUP2 SUB PUSH1 0xC0 DUP8 ADD MSTORE PUSH2 0x403 SWAP2 PUSH2 0x166C JUMP JUMPDEST DUP5 DUP2 SUB PUSH1 0xE0 DUP7 ADD MSTORE PUSH2 0x414 SWAP2 PUSH2 0x166C JUMP JUMPDEST DUP4 DUP2 SUB PUSH2 0x100 DUP6 ADD MSTORE PUSH2 0x426 SWAP2 PUSH2 0x166C JUMP JUMPDEST DUP3 DUP2 SUB PUSH2 0x120 DUP5 ADD MSTORE PUSH2 0x28C SWAP2 PUSH2 0x166C JUMP JUMPDEST CALLVALUE PUSH2 0x290 JUMPI PUSH2 0x160 CALLDATASIZE PUSH1 0x3 NOT ADD SLT PUSH2 0x290 JUMPI PUSH2 0x452 PUSH2 0x150C JUMP JUMPDEST PUSH2 0x120 MSTORE PUSH1 0x24 CALLDATALOAD PUSH1 0x1 PUSH1 0x1 PUSH1 0x40 SHL SUB DUP2 GT PUSH2 0x290 JUMPI PUSH2 0x475 SWAP1 CALLDATASIZE SWAP1 PUSH1 0x4 ADD PUSH2 0x1522 JUMP JUMPDEST PUSH1 0x80 MSTORE PUSH2 0x340 MSTORE PUSH1 0x44 CALLDATALOAD PUSH1 0x1 PUSH1 0x1 PUSH1 0x40 SHL SUB DUP2 GT PUSH2 0x290 JUMPI PUSH2 0x49B SWAP1 CALLDATASIZE SWAP1 PUSH1 0x4 ADD PUSH2 0x1522 JUMP JUMPDEST PUSH2 0x160 MSTORE PUSH2 0x2A0 MSTORE PUSH1 0x64 CALLDATALOAD PUSH1 0x1 PUSH1 0x1 PUSH1 0x40 SHL SUB DUP2 GT PUSH2 0x290 JUMPI PUSH2 0x4C2 SWAP1 CALLDATASIZE SWAP1 PUSH1 0x4 ADD PUSH2 0x1522 JUMP JUMPDEST PUSH2 0x300 MSTORE PUSH2 0x280 MSTORE PUSH1 0x84 CALLDATALOAD PUSH1 0x1 PUSH1 0x1 PUSH1 0x40 SHL SUB DUP2 GT PUSH2 0x290 JUMPI PUSH2 0x4E9 SWAP1 CALLDATASIZE SWAP1 PUSH1 0x4 ADD PUSH2 0x1522 JUMP JUMPDEST PUSH2 0x320 MSTORE PUSH2 0x180 MSTORE PUSH1 0xA4 CALLDATALOAD PUSH1 0x1 PUSH1 0x1 PUSH1 0x40 SHL SUB DUP2 GT PUSH2 0x290 JUMPI PUSH2 0x510 SWAP1 CALLDATASIZE SWAP1 PUSH1 0x4 ADD PUSH2 0x1522 JUMP JUMPDEST PUSH2 0x1C0 MSTORE PUSH2 0x220 MSTORE PUSH1 0xC4 CALLDATALOAD PUSH1 0x1 PUSH1 0x1 PUSH1 0x40 SHL SUB DUP2 GT PUSH2 0x290 JUMPI PUSH2 0x537 SWAP1 CALLDATASIZE SWAP1 PUSH1 0x4 ADD PUSH2 0x1522 JUMP JUMPDEST PUSH2 0x260 MSTORE PUSH2 0x140 MSTORE PUSH1 0xE4 CALLDATALOAD PUSH1 0x1 PUSH1 0x1 PUSH1 0x40 SHL SUB DUP2 GT PUSH2 0x290 JUMPI PUSH2 0x55E SWAP1 CALLDATASIZE SWAP1 PUSH1 0x4 ADD PUSH2 0x1522 JUMP JUMPDEST PUSH2 0x100 MSTORE PUSH2 0x240 MSTORE PUSH2 0x104 CALLDATALOAD PUSH1 0x1 PUSH1 0x1 PUSH1 0x40 SHL SUB DUP2 GT PUSH2 0x290 JUMPI PUSH2 0x586 SWAP1 CALLDATASIZE SWAP1 PUSH1 0x4 ADD PUSH2 0x1522 JUMP JUMPDEST PUSH1 0xC0 MSTORE PUSH2 0x2C0 MSTORE PUSH2 0x124 CALLDATALOAD PUSH1 0x1 PUSH1 0x1 PUSH1 0x40 SHL SUB DUP2 GT PUSH2 0x290 JUMPI PUSH2 0x5AD SWAP1 CALLDATASIZE SWAP1 PUSH1 0x4 ADD PUSH2 0x1522 JUMP JUMPDEST PUSH1 0xE0 MSTORE PUSH2 0x1E0 MSTORE PUSH2 0x144 CALLDATALOAD PUSH1 0x1 PUSH1 0x1 PUSH1 0x40 SHL SUB DUP2 GT PUSH2 0x290 JUMPI PUSH2 0x5D4 SWAP1 CALLDATASIZE SWAP1 PUSH1 0x4 ADD PUSH2 0x1522 JUMP JUMPDEST PUSH2 0x200 MSTORE PUSH1 0xA0 MSTORE PUSH1 0x0 SLOAD PUSH1 0x1 PUSH1 0x1 PUSH1 0xA0 SHL SUB AND CALLER SUB PUSH2 0x144A JUMPI PUSH2 0x5FD PUSH1 0x40 MLOAD DUP1 PUSH2 0x1A0 MSTORE PUSH2 0x1589 JUMP JUMPDEST PUSH2 0x60D CALLDATASIZE PUSH1 0x80 MLOAD PUSH2 0x340 MLOAD PUSH2 0x16AC JUMP JUMPDEST PUSH2 0x1A0 MLOAD MSTORE PUSH2 0x623 CALLDATASIZE PUSH2 0x160 MLOAD PUSH2 0x2A0 MLOAD PUSH2 0x16AC JUMP JUMPDEST PUSH1 0x20 PUSH2 0x1A0 MLOAD ADD MSTORE PUSH2 0x63C CALLDATASIZE PUSH2 0x300 MLOAD PUSH2 0x280 MLOAD PUSH2 0x16AC JUMP JUMPDEST PUSH1 0x40 PUSH2 0x1A0 MLOAD ADD MSTORE PUSH2 0x655 CALLDATASIZE PUSH2 0x320 MLOAD PUSH2 0x180 MLOAD PUSH2 0x16AC JUMP JUMPDEST PUSH1 0x60 PUSH2 0x1A0 MLOAD ADD MSTORE PUSH2 0x66E CALLDATASIZE PUSH2 0x1C0 MLOAD PUSH2 0x220 MLOAD PUSH2 0x16AC JUMP JUMPDEST PUSH1 0x80 PUSH2 0x1A0 MLOAD ADD MSTORE PUSH2 0x687 CALLDATASIZE PUSH2 0x260 MLOAD PUSH2 0x140 MLOAD PUSH2 0x16AC JUMP JUMPDEST PUSH1 0xA0 PUSH2 0x1A0 MLOAD ADD MSTORE PUSH2 0x6A0 CALLDATASIZE PUSH2 0x100 MLOAD PUSH2 0x240 MLOAD PUSH2 0x16AC JUMP JUMPDEST PUSH1 0xC0 PUSH2 0x1A0 MLOAD ADD MSTORE PUSH2 0x6B8 CALLDATASIZE PUSH1 0xC0 MLOAD PUSH2 0x2C0 MLOAD PUSH2 0x16AC JUMP JUMPDEST PUSH1 0xE0 PUSH2 0x1A0 MLOAD ADD MSTORE PUSH2 0x6D0 CALLDATASIZE PUSH1 0xE0 MLOAD PUSH2 0x1E0 MLOAD PUSH2 0x16AC JUMP JUMPDEST PUSH2 0x100 PUSH2 0x1A0 MLOAD ADD MSTORE PUSH2 0x6E9 CALLDATASIZE PUSH2 0x200 MLOAD PUSH1 0xA0 MLOAD PUSH2 0x16AC JUMP JUMPDEST PUSH2 0x120 PUSH2 0x1A0 MLOAD ADD MSTORE PUSH1 0x1 DUP1 PUSH1 0xA0 SHL SUB PUSH2 0x120 MLOAD AND PUSH1 0x0 MSTORE PUSH1 0x1 PUSH1 0x20 MSTORE PUSH1 0x40 PUSH1 0x0 KECCAK256 PUSH2 0x1A0 MLOAD MLOAD SWAP1 DUP2 MLOAD PUSH1 0x1 PUSH1 0x1 PUSH1 0x40 SHL SUB DUP2 GT PUSH2 0xC66 JUMPI PUSH2 0x72B DUP3 SLOAD PUSH2 0x154F JUMP JUMPDEST PUSH1 0x1F DUP2 GT PUSH2 0x1406 JUMPI JUMPDEST POP PUSH1 0x20 PUSH1 0x1F DUP3 GT PUSH1 0x1 EQ PUSH2 0x13A1 JUMPI DUP2 SWAP3 SWAP4 PUSH1 0x0 SWAP3 PUSH2 0x1396 JUMPI JUMPDEST POP POP DUP2 PUSH1 0x1 SHL SWAP2 PUSH1 0x0 NOT SWAP1 PUSH1 0x3 SHL SHR NOT AND OR DUP2 SSTORE JUMPDEST PUSH1 0x20 PUSH2 0x1A0 MLOAD ADD MLOAD SWAP1 DUP2 MLOAD PUSH1 0x1 PUSH1 0x1 PUSH1 0x40 SHL SUB DUP2 GT PUSH2 0xC66 JUMPI PUSH2 0x788 PUSH1 0x1 DUP4 ADD SLOAD PUSH2 0x154F JUMP JUMPDEST PUSH1 0x1F DUP2 GT PUSH2 0x134F JUMPI JUMPDEST POP PUSH1 0x20 PUSH1 0x1F DUP3 GT PUSH1 0x1 EQ PUSH2 0x12E4 JUMPI DUP2 SWAP3 SWAP4 PUSH1 0x0 SWAP3 PUSH2 0x12D9 JUMPI JUMPDEST POP POP DUP2 PUSH1 0x1 SHL SWAP2 PUSH1 0x0 NOT SWAP1 PUSH1 0x3 SHL SHR NOT AND OR PUSH1 0x1 DUP3 ADD SSTORE JUMPDEST PUSH1 0x40 PUSH2 0x1A0 MLOAD ADD MLOAD SWAP1 DUP2 MLOAD PUSH1 0x1 PUSH1 0x1 PUSH1 0x40 SHL SUB DUP2 GT PUSH2 0xC66 JUMPI PUSH2 0x7E8 PUSH1 0x2 DUP4 ADD SLOAD PUSH2 0x154F JUMP JUMPDEST PUSH1 0x1F DUP2 GT PUSH2 0x1292 JUMPI JUMPDEST POP PUSH1 0x20 PUSH1 0x1F DUP3 GT PUSH1 0x1 EQ PUSH2 0x1227 JUMPI DUP2 SWAP3 SWAP4 PUSH1 0x0 SWAP3 PUSH2 0x121C JUMPI JUMPDEST POP POP DUP2 PUSH1 0x1 SHL SWAP2 PUSH1 0x0 NOT SWAP1 PUSH1 0x3 SHL SHR NOT AND OR PUSH1 0x2 DUP3 ADD SSTORE JUMPDEST PUSH1 0x60 PUSH2 0x1A0 MLOAD ADD MLOAD DUP1 MLOAD SWAP1 PUSH1 0x1 PUSH1 0x1 PUSH1 0x40 SHL SUB DUP3 GT PUSH2 0xC66 JUMPI DUP2 SWAP1 PUSH2 0x84A PUSH1 0x3 DUP6 ADD SLOAD PUSH2 0x154F JUMP JUMPDEST PUSH1 0x1F DUP2 GT PUSH2 0x11C9 JUMPI JUMPDEST POP PUSH1 0x20 SWAP1 PUSH1 0x1F DUP4 GT PUSH1 0x1 EQ PUSH2 0x1157 JUMPI PUSH1 0x0 SWAP3 PUSH2 0x114C JUMPI JUMPDEST POP POP DUP2 PUSH1 0x1 SHL SWAP2 PUSH1 0x0 NOT SWAP1 PUSH1 0x3 SHL SHR NOT AND OR PUSH1 0x3 DUP3 ADD SSTORE JUMPDEST PUSH1 0x80 PUSH2 0x1A0 MLOAD ADD MLOAD DUP1 MLOAD SWAP1 PUSH1 0x1 PUSH1 0x1 PUSH1 0x40 SHL SUB DUP3 GT PUSH2 0xC66 JUMPI DUP2 SWAP1 PUSH2 0x8AA PUSH1 0x4 DUP6 ADD SLOAD PUSH2 0x154F JUMP JUMPDEST PUSH1 0x1F DUP2 GT PUSH2 0x10F9 JUMPI JUMPDEST POP PUSH1 0x20 SWAP1 PUSH1 0x1F DUP4 GT PUSH1 0x1 EQ PUSH2 0x1087 JUMPI PUSH1 0x0 SWAP3 PUSH2 0x107C JUMPI JUMPDEST POP POP DUP2 PUSH1 0x1 SHL SWAP2 PUSH1 0x0 NOT SWAP1 PUSH1 0x3 SHL SHR NOT AND OR PUSH1 0x4 DUP3 ADD SSTORE JUMPDEST PUSH1 0xA0 PUSH2 0x1A0 MLOAD ADD MLOAD DUP1 MLOAD SWAP1 PUSH1 0x1 PUSH1 0x1 PUSH1 0x40 SHL SUB DUP3 GT PUSH2 0xC66 JUMPI DUP2 SWAP1 PUSH2 0x90A PUSH1 0x5 DUP6 ADD SLOAD PUSH2 0x154F JUMP JUMPDEST PUSH1 0x1F DUP2 GT PUSH2 0x1029 JUMPI JUMPDEST POP PUSH1 0x20 SWAP1 PUSH1 0x1F DUP4 GT PUSH1 0x1 EQ PUSH2 0xFB7 JUMPI PUSH1 0x0 SWAP3 PUSH2 0xFAC JUMPI JUMPDEST POP POP DUP2 PUSH1 0x1 SHL SWAP2 PUSH1 0x0 NOT SWAP1 PUSH1 0x3 SHL SHR NOT AND OR PUSH1 0x5 DUP3 ADD SSTORE JUMPDEST PUSH1 0xC0 PUSH2 0x1A0 MLOAD ADD MLOAD DUP1 MLOAD SWAP1 PUSH1 0x1 PUSH1 0x1 PUSH1 0x40 SHL SUB DUP3 GT PUSH2 0xC66 JUMPI DUP2 SWAP1 PUSH2 0x96A PUSH1 0x6 DUP6 ADD SLOAD PUSH2 0x154F JUMP JUMPDEST PUSH1 0x1F DUP2 GT PUSH2 0xF59 JUMPI JUMPDEST POP PUSH1 0x20 SWAP1 PUSH1 0x1F DUP4 GT PUSH1 0x1 EQ PUSH2 0xEE7 JUMPI PUSH1 0x0 SWAP3 PUSH2 0xEDC JUMPI JUMPDEST POP POP DUP2 PUSH1 0x1 SHL SWAP2 PUSH1 0x0 NOT SWAP1 PUSH1 0x3 SHL SHR NOT AND OR PUSH1 0x6 DUP3 ADD SSTORE JUMPDEST PUSH1 0xE0 PUSH2 0x1A0 MLOAD ADD MLOAD DUP1 MLOAD SWAP1 PUSH1 0x1 PUSH1 0x1 PUSH1 0x40 SHL SUB DUP3 GT PUSH2 0xC66 JUMPI DUP2 SWAP1 PUSH2 0x9CA PUSH1 0x7 DUP6 ADD SLOAD PUSH2 0x154F JUMP JUMPDEST PUSH1 0x1F DUP2 GT PUSH2 0xE89 JUMPI JUMPDEST POP PUSH1 0x20 SWAP1 PUSH1 0x1F DUP4 GT PUSH1 0x1 EQ PUSH2 0xE17 JUMPI PUSH1 0x0 SWAP3 PUSH2 0xE0C JUMPI JUMPDEST POP POP DUP2 PUSH1 0x1 SHL SWAP2 PUSH1 0x0 NOT SWAP1 PUSH1 0x3 SHL SHR NOT AND OR PUSH1 0x7 DUP3 ADD SSTORE JUMPDEST PUSH2 0x100 PUSH2 0x1A0 MLOAD ADD MLOAD DUP1 MLOAD SWAP1 PUSH1 0x1 PUSH1 0x1 PUSH1 0x40 SHL SUB DUP3 GT PUSH2 0xC66 JUMPI DUP2 SWAP1 PUSH2 0xA2B PUSH1 0x8 DUP6 ADD SLOAD PUSH2 0x154F JUMP JUMPDEST PUSH1 0x1F DUP2 GT PUSH2 0xDB9 JUMPI JUMPDEST POP PUSH1 0x20 SWAP1 PUSH1 0x1F DUP4 GT PUSH1 0x1 EQ PUSH2 0xD47 JUMPI PUSH1 0x0 SWAP3 PUSH2 0xD3C JUMPI JUMPDEST POP POP DUP2 PUSH1 0x1 SHL SWAP2 PUSH1 0x0 NOT SWAP1 PUSH1 0x3 SHL SHR NOT AND OR PUSH1 0x8 DUP3 ADD SSTORE JUMPDEST PUSH2 0x120 PUSH2 0x1A0 MLOAD ADD MLOAD DUP1 MLOAD SWAP1 PUSH1 0x1 PUSH1 0x1 PUSH1 0x40 SHL SUB DUP3 GT PUSH2 0xC66 JUMPI PUSH2 0xA8A PUSH1 0x9 DUP5 ADD SLOAD PUSH2 0x154F JUMP JUMPDEST PUSH1 0x1F DUP2 GT PUSH2 0xCF5 JUMPI JUMPDEST POP PUSH1 0x20 SWAP1 PUSH1 0x1F DUP4 GT PUSH1 0x1 EQ PUSH2 0xC87 JUMPI PUSH1 0x9 SWAP3 SWAP2 PUSH1 0x0 SWAP2 DUP4 PUSH2 0xC7C JUMPI JUMPDEST POP POP DUP2 PUSH1 0x1 SHL SWAP2 PUSH1 0x0 NOT SWAP1 PUSH1 0x3 SHL SHR NOT AND OR SWAP2 ADD SSTORE JUMPDEST PUSH1 0x2 SLOAD PUSH9 0x10000000000000000 DUP2 LT ISZERO PUSH2 0xC66 JUMPI DUP1 PUSH1 0x1 PUSH2 0xAE9 SWAP3 ADD PUSH1 0x2 SSTORE PUSH2 0x14BF JUMP JUMPDEST DUP2 SLOAD SWAP1 PUSH1 0x3 SHL SWAP1 PUSH1 0x1 DUP1 PUSH1 0xA0 SHL SUB PUSH2 0x120 MLOAD AND DUP3 SHL SWAP2 PUSH1 0x1 DUP1 PUSH1 0xA0 SHL SUB SWAP1 SHL NOT AND OR SWAP1 SSTORE PUSH2 0x140 PUSH1 0x40 MLOAD DUP1 PUSH2 0x2E0 MSTORE MSTORE PUSH2 0xC0F PUSH2 0xBF6 PUSH2 0xBDE PUSH2 0xBC5 PUSH2 0xBAC PUSH2 0xB93 PUSH2 0xB7A PUSH2 0xB61 PUSH2 0xB48 PUSH2 0x140 PUSH2 0x2E0 MLOAD ADD PUSH1 0x80 MLOAD PUSH2 0x340 MLOAD PUSH2 0x16F2 JUMP JUMPDEST PUSH2 0x2E0 MLOAD PUSH1 0x20 DUP2 DUP4 SUB SWAP2 ADD MSTORE PUSH2 0x160 MLOAD PUSH2 0x2A0 MLOAD PUSH2 0x16F2 JUMP JUMPDEST PUSH2 0x2E0 MLOAD PUSH1 0x40 DUP2 DUP4 SUB SWAP2 ADD MSTORE PUSH2 0x300 MLOAD PUSH2 0x280 MLOAD PUSH2 0x16F2 JUMP JUMPDEST PUSH2 0x2E0 MLOAD PUSH1 0x60 DUP2 DUP4 SUB SWAP2 ADD MSTORE PUSH2 0x320 MLOAD PUSH2 0x180 MLOAD PUSH2 0x16F2 JUMP JUMPDEST PUSH2 0x2E0 MLOAD PUSH1 0x80 DUP2 DUP4 SUB SWAP2 ADD MSTORE PUSH2 0x1C0 MLOAD PUSH2 0x220 MLOAD PUSH2 0x16F2 JUMP JUMPDEST PUSH2 0x2E0 MLOAD PUSH1 0xA0 DUP2 DUP4 SUB SWAP2 ADD MSTORE PUSH2 0x260 MLOAD PUSH2 0x140 MLOAD PUSH2 0x16F2 JUMP JUMPDEST PUSH2 0x2E0 MLOAD PUSH1 0xC0 DUP2 DUP4 SUB SWAP2 ADD MSTORE PUSH2 0x100 MLOAD PUSH2 0x240 MLOAD PUSH2 0x16F2 JUMP JUMPDEST PUSH2 0x2E0 MLOAD PUSH1 0xE0 DUP2 DUP4 SUB SWAP2 ADD MSTORE PUSH1 0xC0 MLOAD PUSH2 0x2C0 MLOAD PUSH2 0x16F2 JUMP JUMPDEST PUSH2 0x2E0 MLOAD PUSH2 0x100 DUP2 DUP4 SUB SWAP2 ADD MSTORE PUSH1 0xE0 MLOAD PUSH2 0x1E0 MLOAD PUSH2 0x16F2 JUMP JUMPDEST PUSH2 0x2E0 MLOAD PUSH2 0x120 DUP2 DUP4 SUB SWAP2 ADD MSTORE PUSH32 0xC3074EB450413679B67CD39BAF0DF5FF05327D643143FC5D4F6B8781DFEFEED9 PUSH1 0x1 DUP1 PUSH1 0xA0 SHL SUB PUSH2 0x120 MLOAD AND SWAP2 PUSH2 0xC5E PUSH2 0x2E0 MLOAD SWAP2 PUSH2 0x200 MLOAD PUSH1 0xA0 MLOAD PUSH2 0x16F2 JUMP JUMPDEST SUB PUSH2 0x2E0 MLOAD LOG2 STOP JUMPDEST PUSH4 0x4E487B71 PUSH1 0xE0 SHL PUSH1 0x0 MSTORE PUSH1 0x41 PUSH1 0x4 MSTORE PUSH1 0x24 PUSH1 0x0 REVERT JUMPDEST ADD MLOAD SWAP1 POP DUP5 DUP1 PUSH2 0xAAF JUMP JUMPDEST SWAP1 PUSH1 0x1F NOT DUP4 AND SWAP2 PUSH1 0x9 DUP6 ADD PUSH1 0x0 MSTORE PUSH1 0x20 PUSH1 0x0 KECCAK256 SWAP3 PUSH1 0x0 JUMPDEST DUP2 DUP2 LT PUSH2 0xCDD JUMPI POP SWAP2 PUSH1 0x1 SWAP4 SWAP2 DUP6 PUSH1 0x9 SWAP7 SWAP5 LT PUSH2 0xCC4 JUMPI JUMPDEST POP POP POP DUP2 SHL ADD SWAP2 ADD SSTORE PUSH2 0xAC5 JUMP JUMPDEST ADD MLOAD PUSH1 0x0 NOT PUSH1 0xF8 DUP5 PUSH1 0x3 SHL AND SHR NOT AND SWAP1 SSTORE DUP5 DUP1 DUP1 PUSH2 0xCB6 JUMP JUMPDEST SWAP3 SWAP4 PUSH1 0x20 PUSH1 0x1 DUP2 SWAP3 DUP8 DUP7 ADD MLOAD DUP2 SSTORE ADD SWAP6 ADD SWAP4 ADD PUSH2 0xC9E JUMP JUMPDEST PUSH1 0x9 DUP5 ADD PUSH1 0x0 MSTORE PUSH1 0x20 PUSH1 0x0 KECCAK256 PUSH1 0x1F DUP5 ADD PUSH1 0x5 SHR DUP2 ADD PUSH1 0x20 DUP6 LT PUSH2 0xD35 JUMPI JUMPDEST PUSH1 0x1F DUP4 ADD PUSH1 0x5 SHR DUP3 ADD DUP2 LT PUSH2 0xD29 JUMPI POP POP PUSH2 0xA93 JUMP JUMPDEST PUSH1 0x0 DUP2 SSTORE PUSH1 0x1 ADD PUSH2 0xD13 JUMP JUMPDEST POP DUP1 PUSH2 0xD13 JUMP JUMPDEST ADD MLOAD SWAP1 POP DUP4 DUP1 PUSH2 0xA4B JUMP JUMPDEST SWAP3 POP PUSH1 0x8 DUP5 ADD PUSH1 0x0 MSTORE PUSH1 0x20 PUSH1 0x0 KECCAK256 SWAP1 PUSH1 0x0 SWAP4 JUMPDEST PUSH1 0x1F NOT DUP5 AND DUP6 LT PUSH2 0xD9E JUMPI PUSH1 0x1 SWAP5 POP DUP4 PUSH1 0x1F NOT DUP2 AND LT PUSH2 0xD85 JUMPI JUMPDEST POP POP POP DUP2 SHL ADD PUSH1 0x8 DUP3 ADD SSTORE PUSH2 0xA63 JUMP JUMPDEST ADD MLOAD PUSH1 0x0 NOT PUSH1 0xF8 DUP5 PUSH1 0x3 SHL AND SHR NOT AND SWAP1 SSTORE DUP4 DUP1 DUP1 PUSH2 0xD75 JUMP JUMPDEST DUP2 DUP2 ADD MLOAD DUP4 SSTORE PUSH1 0x20 SWAP5 DUP6 ADD SWAP5 PUSH1 0x1 SWAP1 SWAP4 ADD SWAP3 SWAP1 SWAP2 ADD SWAP1 PUSH2 0xD5A JUMP JUMPDEST SWAP1 SWAP2 POP PUSH1 0x8 DUP5 ADD PUSH1 0x0 MSTORE PUSH1 0x20 PUSH1 0x0 KECCAK256 PUSH1 0x1F DUP5 ADD PUSH1 0x5 SHR DUP2 ADD PUSH1 0x20 DUP6 LT PUSH2 0xE05 JUMPI JUMPDEST SWAP1 DUP5 SWAP4 SWAP3 SWAP2 JUMPDEST PUSH1 0x1F DUP4 ADD PUSH1 0x5 SHR DUP3 ADD DUP2 LT PUSH2 0xDF6 JUMPI POP POP PUSH2 0xA34 JUMP JUMPDEST PUSH1 0x0 DUP2 SSTORE DUP6 SWAP5 POP PUSH1 0x1 ADD PUSH2 0xDE0 JUMP JUMPDEST POP DUP1 PUSH2 0xDDA JUMP JUMPDEST ADD MLOAD SWAP1 POP DUP4 DUP1 PUSH2 0x9EA JUMP JUMPDEST SWAP3 POP PUSH1 0x7 DUP5 ADD PUSH1 0x0 MSTORE PUSH1 0x20 PUSH1 0x0 KECCAK256 SWAP1 PUSH1 0x0 SWAP4 JUMPDEST PUSH1 0x1F NOT DUP5 AND DUP6 LT PUSH2 0xE6E JUMPI PUSH1 0x1 SWAP5 POP DUP4 PUSH1 0x1F NOT DUP2 AND LT PUSH2 0xE55 JUMPI JUMPDEST POP POP POP DUP2 SHL ADD PUSH1 0x7 DUP3 ADD SSTORE PUSH2 0xA02 JUMP JUMPDEST ADD MLOAD PUSH1 0x0 NOT PUSH1 0xF8 DUP5 PUSH1 0x3 SHL AND SHR NOT AND SWAP1 SSTORE DUP4 DUP1 DUP1 PUSH2 0xE45 JUMP JUMPDEST DUP2 DUP2 ADD MLOAD DUP4 SSTORE PUSH1 0x20 SWAP5 DUP6 ADD SWAP5 PUSH1 0x1 SWAP1 SWAP4 ADD SWAP3 SWAP1 SWAP2 ADD SWAP1 PUSH2 0xE2A JUMP JUMPDEST SWAP1 SWAP2 POP PUSH1 0x7 DUP5 ADD PUSH1 0x0 MSTORE PUSH1 0x20 PUSH1 0x0 KECCAK256 PUSH1 0x1F DUP5 ADD PUSH1 0x5 SHR DUP2 ADD PUSH1 0x20 DUP6 LT PUSH2 0xED5 JUMPI JUMPDEST SWAP1 DUP5 SWAP4 SWAP3 SWAP2 JUMPDEST PUSH1 0x1F DUP4 ADD PUSH1 0x5 SHR DUP3 ADD DUP2 LT PUSH2 0xEC6 JUMPI POP POP PUSH2 0x9D3 JUMP JUMPDEST PUSH1 0x0 DUP2 SSTORE DUP6 SWAP5 POP PUSH1 0x1 ADD PUSH2 0xEB0 JUMP JUMPDEST POP DUP1 PUSH2 0xEAA JUMP JUMPDEST ADD MLOAD SWAP1 POP DUP4 DUP1 PUSH2 0x98A JUMP JUMPDEST SWAP3 POP PUSH1 0x6 DUP5 ADD PUSH1 0x0 MSTORE PUSH1 0x20 PUSH1 0x0 KECCAK256 SWAP1 PUSH1 0x0 SWAP4 JUMPDEST PUSH1 0x1F NOT DUP5 AND DUP6 LT PUSH2 0xF3E JUMPI PUSH1 0x1 SWAP5 POP DUP4 PUSH1 0x1F NOT DUP2 AND LT PUSH2 0xF25 JUMPI JUMPDEST POP POP POP DUP2 SHL ADD PUSH1 0x6 DUP3 ADD SSTORE PUSH2 0x9A2 JUMP JUMPDEST ADD MLOAD PUSH1 0x0 NOT PUSH1 0xF8 DUP5 PUSH1 0x3 SHL AND SHR NOT AND SWAP1 SSTORE DUP4 DUP1 DUP1 PUSH2 0xF15 JUMP JUMPDEST DUP2 DUP2 ADD MLOAD DUP4 SSTORE PUSH1 0x20 SWAP5 DUP6 ADD SWAP5 PUSH1 0x1 SWAP1 SWAP4 ADD SWAP3 SWAP1 SWAP2 ADD SWAP1 PUSH2 0xEFA JUMP JUMPDEST SWAP1 SWAP2 POP PUSH1 0x6 DUP5 ADD PUSH1 0x0 MSTORE PUSH1 0x20 PUSH1 0x0 KECCAK256 PUSH1 0x1F DUP5 ADD PUSH1 0x5 SHR DUP2 ADD PUSH1 0x20 DUP6 LT PUSH2 0xFA5 JUMPI JUMPDEST SWAP1 DUP5 SWAP4 SWAP3 SWAP2 JUMPDEST PUSH1 0x1F DUP4 ADD PUSH1 0x5 SHR DUP3 ADD DUP2 LT PUSH2 0xF96 JUMPI POP POP PUSH2 0x973 JUMP JUMPDEST PUSH1 0x0 DUP2 SSTORE DUP6 SWAP5 POP PUSH1 0x1 ADD PUSH2 0xF80 JUMP JUMPDEST POP DUP1 PUSH2 0xF7A JUMP JUMPDEST ADD MLOAD SWAP1 POP DUP4 DUP1 PUSH2 0x92A JUMP JUMPDEST SWAP3 POP PUSH1 0x5 DUP5 ADD PUSH1 0x0 MSTORE PUSH1 0x20 PUSH1 0x0 KECCAK256 SWAP1 PUSH1 0x0 SWAP4 JUMPDEST PUSH1 0x1F NOT DUP5 AND DUP6 LT PUSH2 0x100E JUMPI PUSH1 0x1 SWAP5 POP DUP4 PUSH1 0x1F NOT DUP2 AND LT PUSH2 0xFF5 JUMPI JUMPDEST POP POP POP DUP2 SHL ADD PUSH1 0x5 DUP3 ADD SSTORE PUSH2 0x942 JUMP JUMPDEST ADD MLOAD PUSH1 0x0 NOT PUSH1 0xF8 DUP5 PUSH1 0x3 SHL AND SHR NOT AND SWAP1 SSTORE DUP4 DUP1 DUP1 PUSH2 0xFE5 JUMP JUMPDEST DUP2 DUP2 ADD MLOAD DUP4 SSTORE PUSH1 0x20 SWAP5 DUP6 ADD SWAP5 PUSH1 0x1 SWAP1 SWAP4 ADD SWAP3 SWAP1 SWAP2 ADD SWAP1 PUSH2 0xFCA JUMP JUMPDEST SWAP1 SWAP2 POP PUSH1 0x5 DUP5 ADD PUSH1 0x0 MSTORE PUSH1 0x20 PUSH1 0x0 KECCAK256 PUSH1 0x1F DUP5 ADD PUSH1 0x5 SHR DUP2 ADD PUSH1 0x20 DUP6 LT PUSH2 0x1075 JUMPI JUMPDEST SWAP1 DUP5 SWAP4 SWAP3 SWAP2 JUMPDEST PUSH1 0x1F DUP4 ADD PUSH1 0x5 SHR DUP3 ADD DUP2 LT PUSH2 0x1066 JUMPI POP POP PUSH2 0x913 JUMP JUMPDEST PUSH1 0x0 DUP2 SSTORE DUP6 SWAP5 POP PUSH1 0x1 ADD PUSH2 0x1050 JUMP JUMPDEST POP DUP1 PUSH2 0x104A JUMP JUMPDEST ADD MLOAD SWAP1 POP DUP4 DUP1 PUSH2 0x8CA JUMP JUMPDEST SWAP3 POP PUSH1 0x4 DUP5 ADD PUSH1 0x0 MSTORE PUSH1 0x20 PUSH1 0x0 KECCAK256 SWAP1 PUSH1 0x0 SWAP4 JUMPDEST PUSH1 0x1F NOT DUP5 AND DUP6 LT PUSH2 0x10DE JUMPI PUSH1 0x1 SWAP5 POP DUP4 PUSH1 0x1F NOT DUP2 AND LT PUSH2 0x10C5 JUMPI JUMPDEST POP POP POP DUP2 SHL ADD PUSH1 0x4 DUP3 ADD SSTORE PUSH2 0x8E2 JUMP JUMPDEST ADD MLOAD PUSH1 0x0 NOT PUSH1 0xF8 DUP5 PUSH1 0x3 SHL AND SHR NOT AND SWAP1 SSTORE DUP4 DUP1 DUP1 PUSH2 0x10B5 JUMP JUMPDEST DUP2 DUP2 ADD MLOAD DUP4 SSTORE PUSH1 0x20 SWAP5 DUP6 ADD SWAP5 PUSH1 0x1 SWAP1 SWAP4 ADD SWAP3 SWAP1 SWAP2 ADD SWAP1 PUSH2 0x109A JUMP JUMPDEST SWAP1 SWAP2 POP PUSH1 0x4 DUP5 ADD PUSH1 0x0 MSTORE PUSH1 0x20 PUSH1 0x0 KECCAK256 PUSH1 0x1F DUP5 ADD PUSH1 0x5 SHR DUP2 ADD PUSH1 0x20 DUP6 LT PUSH2 0x1145 JUMPI JUMPDEST SWAP1 DUP5 SWAP4 SWAP3 SWAP2 JUMPDEST PUSH1 0x1F DUP4 ADD PUSH1 0x5 SHR DUP3 ADD DUP2 LT PUSH2 0x1136 JUMPI POP POP PUSH2 0x8B3 JUMP JUMPDEST PUSH1 0x0 DUP2 SSTORE DUP6 SWAP5 POP PUSH1 0x1 ADD PUSH2 0x1120 JUMP JUMPDEST POP DUP1 PUSH2 0x111A JUMP JUMPDEST ADD MLOAD SWAP1 POP DUP4 DUP1 PUSH2 0x86A JUMP JUMPDEST SWAP3 POP PUSH1 0x3 DUP5 ADD PUSH1 0x0 MSTORE PUSH1 0x20 PUSH1 0x0 KECCAK256 SWAP1 PUSH1 0x0 SWAP4 JUMPDEST PUSH1 0x1F NOT DUP5 AND DUP6 LT PUSH2 0x11AE JUMPI PUSH1 0x1 SWAP5 POP DUP4 PUSH1 0x1F NOT DUP2 AND LT PUSH2 0x1195 JUMPI JUMPDEST POP POP POP DUP2 SHL ADD PUSH1 0x3 DUP3 ADD SSTORE PUSH2 0x882 JUMP JUMPDEST ADD MLOAD PUSH1 0x0 NOT PUSH1 0xF8 DUP5 PUSH1 0x3 SHL AND SHR NOT AND SWAP1 SSTORE DUP4 DUP1 DUP1 PUSH2 0x1185 JUMP JUMPDEST DUP2 DUP2 ADD MLOAD DUP4 SSTORE PUSH1 0x20 SWAP5 DUP6 ADD SWAP5 PUSH1 0x1 SWAP1 SWAP4 ADD SWAP3 SWAP1 SWAP2 ADD SWAP1 PUSH2 0x116A JUMP JUMPDEST SWAP1 SWAP2 POP PUSH1 0x3 DUP5 ADD PUSH1 0x0 MSTORE PUSH1 0x20 PUSH1 0x0 KECCAK256 PUSH1 0x1F DUP5 ADD PUSH1 0x5 SHR DUP2 ADD PUSH1 0x20 DUP6 LT PUSH2 0x1215 JUMPI JUMPDEST SWAP1 DUP5 SWAP4 SWAP3 SWAP2 JUMPDEST PUSH1 0x1F DUP4 ADD PUSH1 0x5 SHR DUP3 ADD DUP2 LT PUSH2 0x1206 JUMPI POP POP PUSH2 0x853 JUMP JUMPDEST PUSH1 0x0 DUP2 SSTORE DUP6 SWAP5 POP PUSH1 0x1 ADD PUSH2 0x11F0 JUMP JUMPDEST POP DUP1 PUSH2 0x11EA JUMP JUMPDEST ADD MLOAD SWAP1 POP DUP4 DUP1 PUSH2 0x80A JUMP JUMPDEST PUSH1 0x2 DUP4 ADD PUSH1 0x0 MSTORE PUSH1 0x20 PUSH1 0x0 KECCAK256 SWAP1 PUSH1 0x0 SWAP5 PUSH1 0x1F NOT DUP5 AND SWAP6 JUMPDEST DUP7 DUP2 LT PUSH2 0x127A JUMPI POP DUP4 PUSH1 0x1 SWAP6 SWAP7 LT PUSH2 0x1261 JUMPI JUMPDEST POP POP POP DUP2 SHL ADD PUSH1 0x2 DUP3 ADD SSTORE PUSH2 0x822 JUMP JUMPDEST ADD MLOAD PUSH1 0x0 NOT PUSH1 0xF8 DUP5 PUSH1 0x3 SHL AND SHR NOT AND SWAP1 SSTORE DUP4 DUP1 DUP1 PUSH2 0x1251 JUMP JUMPDEST SWAP2 SWAP3 PUSH1 0x20 PUSH1 0x1 DUP2 SWAP3 DUP7 DUP6 ADD MLOAD DUP2 SSTORE ADD SWAP5 ADD SWAP3 ADD PUSH2 0x123E JUMP JUMPDEST PUSH1 0x2 DUP4 ADD PUSH1 0x0 MSTORE PUSH1 0x20 PUSH1 0x0 KECCAK256 PUSH1 0x1F DUP4 ADD PUSH1 0x5 SHR DUP2 ADD PUSH1 0x20 DUP5 LT PUSH2 0x12D2 JUMPI JUMPDEST PUSH1 0x1F DUP4 ADD PUSH1 0x5 SHR DUP3 ADD DUP2 LT PUSH2 0x12C6 JUMPI POP POP PUSH2 0x7F1 JUMP JUMPDEST PUSH1 0x0 DUP2 SSTORE PUSH1 0x1 ADD PUSH2 0x12B0 JUMP JUMPDEST POP DUP1 PUSH2 0x12B0 JUMP JUMPDEST ADD MLOAD SWAP1 POP DUP4 DUP1 PUSH2 0x7AA JUMP JUMPDEST PUSH1 0x1 DUP4 ADD PUSH1 0x0 MSTORE PUSH1 0x20 PUSH1 0x0 KECCAK256 SWAP1 PUSH1 0x0 SWAP5 PUSH1 0x1F NOT DUP5 AND SWAP6 JUMPDEST DUP7 DUP2 LT PUSH2 0x1337 JUMPI POP DUP4 PUSH1 0x1 SWAP6 SWAP7 LT PUSH2 0x131E JUMPI JUMPDEST POP POP POP DUP2 SHL ADD PUSH1 0x1 DUP3 ADD SSTORE PUSH2 0x7C2 JUMP JUMPDEST ADD MLOAD PUSH1 0x0 NOT PUSH1 0xF8 DUP5 PUSH1 0x3 SHL AND SHR NOT AND SWAP1 SSTORE DUP4 DUP1 DUP1 PUSH2 0x130E JUMP JUMPDEST SWAP2 SWAP3 PUSH1 0x20 PUSH1 0x1 DUP2 SWAP3 DUP7 DUP6 ADD MLOAD DUP2 SSTORE ADD SWAP5 ADD SWAP3 ADD PUSH2 0x12FB JUMP JUMPDEST PUSH1 0x1 DUP4 ADD PUSH1 0x0 MSTORE PUSH1 0x20 PUSH1 0x0 KECCAK256 PUSH1 0x1F DUP4 ADD PUSH1 0x5 SHR DUP2 ADD PUSH1 0x20 DUP5 LT PUSH2 0x138F JUMPI JUMPDEST PUSH1 0x1F DUP4 ADD PUSH1 0x5 SHR DUP3 ADD DUP2 LT PUSH2 0x1383 JUMPI POP POP PUSH2 0x791 JUMP JUMPDEST PUSH1 0x0 DUP2 SSTORE PUSH1 0x1 ADD PUSH2 0x136D JUMP JUMPDEST POP DUP1 PUSH2 0x136D JUMP JUMPDEST ADD MLOAD SWAP1 POP DUP4 DUP1 PUSH2 0x74D JUMP JUMPDEST DUP3 PUSH1 0x0 MSTORE PUSH1 0x20 PUSH1 0x0 KECCAK256 SWAP1 PUSH1 0x0 SWAP5 PUSH1 0x1F NOT DUP5 AND SWAP6 JUMPDEST DUP7 DUP2 LT PUSH2 0x13EE JUMPI POP DUP4 PUSH1 0x1 SWAP6 SWAP7 LT PUSH2 0x13D5 JUMPI JUMPDEST POP POP POP DUP2 SHL ADD DUP2 SSTORE PUSH2 0x762 JUMP JUMPDEST ADD MLOAD PUSH1 0x0 NOT PUSH1 0xF8 DUP5 PUSH1 0x3 SHL AND SHR NOT AND SWAP1 SSTORE DUP4 DUP1 DUP1 PUSH2 0x13C8 JUMP JUMPDEST SWAP2 SWAP3 PUSH1 0x20 PUSH1 0x1 DUP2 SWAP3 DUP7 DUP6 ADD MLOAD DUP2 SSTORE ADD SWAP5 ADD SWAP3 ADD PUSH2 0x13B5 JUMP JUMPDEST DUP3 PUSH1 0x0 MSTORE PUSH1 0x20 PUSH1 0x0 KECCAK256 PUSH1 0x1F DUP4 ADD PUSH1 0x5 SHR DUP2 ADD PUSH1 0x20 DUP5 LT PUSH2 0x1443 JUMPI JUMPDEST PUSH1 0x1F DUP4 ADD PUSH1 0x5 SHR DUP3 ADD DUP2 LT PUSH2 0x1437 JUMPI POP POP PUSH2 0x734 JUMP JUMPDEST PUSH1 0x0 DUP2 SSTORE PUSH1 0x1 ADD PUSH2 0x1421 JUMP JUMPDEST POP DUP1 PUSH2 0x1421 JUMP JUMPDEST PUSH1 0x40 MLOAD PUSH3 0x461BCD PUSH1 0xE5 SHL DUP2 MSTORE PUSH1 0x20 PUSH1 0x4 DUP3 ADD MSTORE PUSH1 0xB PUSH1 0x24 DUP3 ADD MSTORE PUSH11 0x139BDD081CDD195DD85C99 PUSH1 0xAA SHL PUSH1 0x44 DUP3 ADD MSTORE PUSH1 0x64 SWAP1 REVERT JUMPDEST CALLVALUE PUSH2 0x290 JUMPI PUSH1 0x20 CALLDATASIZE PUSH1 0x3 NOT ADD SLT PUSH2 0x290 JUMPI PUSH1 0x4 CALLDATALOAD PUSH1 0x2 SLOAD DUP2 LT ISZERO PUSH2 0x290 JUMPI PUSH2 0x14A6 PUSH1 0x20 SWAP2 PUSH2 0x14BF JUMP JUMPDEST SWAP1 SLOAD PUSH1 0x40 MLOAD PUSH1 0x3 SWAP3 SWAP1 SWAP3 SHL SHR PUSH1 0x1 PUSH1 0x1 PUSH1 0xA0 SHL SUB AND DUP2 MSTORE RETURN JUMPDEST PUSH1 0x2 SLOAD DUP2 LT ISZERO PUSH2 0x14F6 JUMPI PUSH1 0x2 PUSH1 0x0 MSTORE PUSH32 0x405787FA12A823E0F2B7631CC41B3BA8828B3321CA811111FA75CD3AA3BB5ACE ADD SWAP1 PUSH1 0x0 SWAP1 JUMP JUMPDEST PUSH4 0x4E487B71 PUSH1 0xE0 SHL PUSH1 0x0 MSTORE PUSH1 0x32 PUSH1 0x4 MSTORE PUSH1 0x24 PUSH1 0x0 REVERT JUMPDEST PUSH1 0x4 CALLDATALOAD SWAP1 PUSH1 0x1 PUSH1 0x1 PUSH1 0xA0 SHL SUB DUP3 AND DUP3 SUB PUSH2 0x290 JUMPI JUMP JUMPDEST SWAP2 DUP2 PUSH1 0x1F DUP5 ADD SLT ISZERO PUSH2 0x290 JUMPI DUP3 CALLDATALOAD SWAP2 PUSH1 0x1 PUSH1 0x1 PUSH1 0x40 SHL SUB DUP4 GT PUSH2 0x290 JUMPI PUSH1 0x20 DUP4 DUP2 DUP7 ADD SWAP6 ADD ADD GT PUSH2 0x290 JUMPI JUMP JUMPDEST SWAP1 PUSH1 0x1 DUP3 DUP2 SHR SWAP3 AND DUP1 ISZERO PUSH2 0x157F JUMPI JUMPDEST PUSH1 0x20 DUP4 LT EQ PUSH2 0x1569 JUMPI JUMP JUMPDEST PUSH4 0x4E487B71 PUSH1 0xE0 SHL PUSH1 0x0 MSTORE PUSH1 0x22 PUSH1 0x4 MSTORE PUSH1 0x24 PUSH1 0x0 REVERT JUMPDEST SWAP2 PUSH1 0x7F AND SWAP2 PUSH2 0x155E JUMP JUMPDEST PUSH2 0x140 DUP2 ADD SWAP1 DUP2 LT PUSH1 0x1 PUSH1 0x1 PUSH1 0x40 SHL SUB DUP3 GT OR PUSH2 0xC66 JUMPI PUSH1 0x40 MSTORE JUMP JUMPDEST SWAP1 PUSH1 0x1F DUP1 NOT SWAP2 ADD AND DUP2 ADD SWAP1 DUP2 LT PUSH1 0x1 PUSH1 0x1 PUSH1 0x40 SHL SUB DUP3 GT OR PUSH2 0xC66 JUMPI PUSH1 0x40 MSTORE JUMP JUMPDEST SWAP1 PUSH1 0x40 MLOAD SWAP2 DUP3 PUSH1 0x0 DUP3 SLOAD SWAP3 PUSH2 0x15DA DUP5 PUSH2 0x154F JUMP JUMPDEST SWAP1 DUP2 DUP5 MSTORE PUSH1 0x1 SWAP5 DUP6 DUP2 AND SWAP1 DUP2 PUSH1 0x0 EQ PUSH2 0x1649 JUMPI POP PUSH1 0x1 EQ PUSH2 0x1606 JUMPI JUMPDEST POP POP PUSH2 0x1604 SWAP3 POP SUB DUP4 PUSH2 0x15A5 JUMP JUMPDEST JUMP JUMPDEST SWAP1 SWAP4 SWAP2 POP PUSH1 0x0 MSTORE PUSH1 0x20 SWAP1 DUP2 PUSH1 0x0 KECCAK256 SWAP4 PUSH1 0x0 SWAP2 JUMPDEST DUP2 DUP4 LT PUSH2 0x1631 JUMPI POP POP PUSH2 0x1604 SWAP4 POP DUP3 ADD ADD CODESIZE DUP1 PUSH2 0x15F6 JUMP JUMPDEST DUP6 SLOAD DUP9 DUP5 ADD DUP6 ADD MSTORE SWAP5 DUP6 ADD SWAP5 DUP8 SWAP5 POP SWAP2 DUP4 ADD SWAP2 PUSH2 0x1619 JUMP JUMPDEST SWAP2 POP POP PUSH2 0x1604 SWAP5 POP PUSH1 0x20 SWAP3 POP PUSH1 0xFF NOT AND DUP3 DUP5 ADD MSTORE ISZERO ISZERO PUSH1 0x5 SHL DUP3 ADD ADD CODESIZE DUP1 PUSH2 0x15F6 JUMP JUMPDEST SWAP2 SWAP1 DUP3 MLOAD SWAP3 DUP4 DUP3 MSTORE PUSH1 0x0 JUMPDEST DUP5 DUP2 LT PUSH2 0x1698 JUMPI POP POP DUP3 PUSH1 0x0 PUSH1 0x20 DUP1 SWAP5 SWAP6 DUP5 ADD ADD MSTORE PUSH1 0x1F DUP1 NOT SWAP2 ADD AND ADD ADD SWAP1 JUMP JUMPDEST PUSH1 0x20 DUP2 DUP4 ADD DUP2 ADD MLOAD DUP5 DUP4 ADD DUP3 ADD MSTORE ADD PUSH2 0x1677 JUMP JUMPDEST SWAP3 SWAP2 SWAP3 PUSH1 0x1 PUSH1 0x1 PUSH1 0x40 SHL SUB DUP3 GT PUSH2 0xC66 JUMPI PUSH1 0x40 MLOAD SWAP2 PUSH2 0x16D5 PUSH1 0x1F DUP3 ADD PUSH1 0x1F NOT AND PUSH1 0x20 ADD DUP5 PUSH2 0x15A5 JUMP JUMPDEST DUP3 SWAP5 DUP2 DUP5 MSTORE DUP2 DUP4 ADD GT PUSH2 0x290 JUMPI DUP3 DUP2 PUSH1 0x20 SWAP4 DUP5 PUSH1 0x0 SWAP7 ADD CALLDATACOPY ADD ADD MSTORE JUMP JUMPDEST SWAP1 DUP1 PUSH1 0x20 SWAP4 SWAP3 DUP2 DUP5 MSTORE DUP5 DUP5 ADD CALLDATACOPY PUSH1 0x0 DUP3 DUP3 ADD DUP5 ADD MSTORE PUSH1 0x1F ADD PUSH1 0x1F NOT AND ADD ADD SWAP1 JUMP INVALID LOG2 PUSH5 0x6970667358 0x22 SLT KECCAK256 0xE3 ADD 0xC0 0xDE 0xB6 0xEA 0xE6 MOD 0x23 0xF9 0xB6 0x4D MOD KECCAK256 PUSH27 0xFA234C400B81F67373EAA857AD51C3A6D64736F6C634300081400 CALLER "},"methodIdentifiers":{"companions(address)":"47854b87","getCompanion(address)":"ef652737","keys(uint256)":"0cb6aaf1","steward()":"637eea19","summonCompanion(address,string,string,string,string,string,string,string,string,string,string)":"24244157","totalCompanions()":"ec39f18f"}}}}}