{"contracts/codex/SpiralboundCodexXXXII.sol":{"SpiralboundCodexXXXII":{"abi":[{"inputs":[],"stateMutability":"nonpayable","type":"constructor"},{"anonymous":false,"inputs":[{"indexed":false,"internalType":"string","name":"glyph","type":"string"},{"indexed":false,"internalType":"string","name":"tag","type":"string"},{"indexed":false,"internalType":"string","name":"binding","type":"string"},{"indexed":false,"internalType":"string","name":"annotation","type":"string"},{"indexed":false,"internalType":"string","name":"lineage","type":"string"},{"indexed":false,"internalType":"string","name":"resonance","type":"string"},{"indexed":false,"internalType":"string","name":"protocol","type":"string"},{"indexed":false,"internalType":"string","name":"sanctum","type":"string"},{"indexed":false,"internalType":"string","name":"pulse","type":"string"},{"indexed":false,"internalType":"string","name":"chant","type":"string"},{"indexed":false,"internalType":"string","name":"choreography","type":"string"},{"indexed":false,"internalType":"string","name":"drift","type":"string"},{"indexed":false,"internalType":"string","name":"signature","type":"string"},{"indexed":false,"internalType":"string","name":"signal","type":"string"},{"indexed":false,"internalType":"string","name":"companion","type":"string"},{"indexed":false,"internalType":"string","name":"stewardName","type":"string"},{"indexed":false,"internalType":"string","name":"registry","type":"string"},{"indexed":false,"internalType":"string","name":"echo","type":"string"},{"indexed":false,"internalType":"string","name":"hum","type":"string"},{"indexed":false,"internalType":"string","name":"terrain","type":"string"},{"indexed":false,"internalType":"string","name":"choreographyType","type":"string"},{"indexed":false,"internalType":"string","name":"driftType","type":"string"},{"indexed":false,"internalType":"string","name":"signalType","type":"string"},{"indexed":false,"internalType":"string","name":"companionType","type":"string"},{"indexed":false,"internalType":"string","name":"stewardSignal","type":"string"},{"indexed":false,"internalType":"string","name":"pulseType","type":"string"},{"indexed":false,"internalType":"string","name":"signalChoreography","type":"string"},{"indexed":false,"internalType":"string","name":"companionSignal","type":"string"},{"indexed":false,"internalType":"string","name":"driftSignal","type":"string"},{"indexed":false,"internalType":"string","name":"pulseSignal","type":"string"},{"indexed":false,"internalType":"string","name":"stewardPulse","type":"string"},{"indexed":false,"internalType":"string","name":"companionPulse","type":"string"},{"indexed":false,"internalType":"string","name":"driftPulse","type":"string"},{"indexed":false,"internalType":"string","name":"apprenticePulse","type":"string"}],"name":"CodexInscribed","type":"event"},{"inputs":[{"internalType":"string","name":"","type":"string"}],"name":"codices","outputs":[{"internalType":"string","name":"tag","type":"string"},{"internalType":"string","name":"binding","type":"string"},{"internalType":"string","name":"annotation","type":"string"},{"internalType":"string","name":"lineage","type":"string"},{"internalType":"string","name":"resonance","type":"string"},{"internalType":"string","name":"protocol","type":"string"},{"internalType":"string","name":"sanctum","type":"string"},{"internalType":"string","name":"pulse","type":"string"},{"internalType":"string","name":"chant","type":"string"},{"internalType":"string","name":"choreography","type":"string"},{"internalType":"string","name":"drift","type":"string"},{"internalType":"string","name":"signature","type":"string"},{"internalType":"string","name":"signal","type":"string"},{"internalType":"string","name":"companion","type":"string"},{"internalType":"string","name":"stewardName","type":"string"},{"internalType":"string","name":"registry","type":"string"},{"internalType":"string","name":"echo","type":"string"},{"internalType":"string","name":"hum","type":"string"},{"internalType":"string","name":"terrain","type":"string"},{"internalType":"string","name":"choreographyType","type":"string"},{"internalType":"string","name":"driftType","type":"string"},{"internalType":"string","name":"signalType","type":"string"},{"internalType":"string","name":"companionType","type":"string"},{"internalType":"string","name":"stewardSignal","type":"string"},{"internalType":"string","name":"pulseType","type":"string"},{"internalType":"string","name":"signalChoreography","type":"string"},{"internalType":"string","name":"companionSignal","type":"string"},{"internalType":"string","name":"driftSignal","type":"string"},{"internalType":"string","name":"pulseSignal","type":"string"},{"internalType":"string","name":"stewardPulse","type":"string"},{"internalType":"string","name":"companionPulse","type":"string"},{"internalType":"string","name":"driftPulse","type":"string"},{"internalType":"string","name":"apprenticePulse","type":"string"}],"stateMutability":"view","type":"function"},{"inputs":[{"internalType":"string","name":"glyph","type":"string"}],"name":"getCodex","outputs":[{"components":[{"internalType":"string","name":"tag","type":"string"},{"internalType":"string","name":"binding","type":"string"},{"internalType":"string","name":"annotation","type":"string"},{"internalType":"string","name":"lineage","type":"string"},{"internalType":"string","name":"resonance","type":"string"},{"internalType":"string","name":"protocol","type":"string"},{"internalType":"string","name":"sanctum","type":"string"},{"internalType":"string","name":"pulse","type":"string"},{"internalType":"string","name":"chant","type":"string"},{"internalType":"string","name":"choreography","type":"string"},{"internalType":"string","name":"drift","type":"string"},{"internalType":"string","name":"signature","type":"string"},{"internalType":"string","name":"signal","type":"string"},{"internalType":"string","name":"companion","type":"string"},{"internalType":"string","name":"stewardName","type":"string"},{"internalType":"string","name":"registry","type":"string"},{"internalType":"string","name":"echo","type":"string"},{"internalType":"string","name":"hum","type":"string"},{"internalType":"string","name":"terrain","type":"string"},{"internalType":"string","name":"choreographyType","type":"string"},{"internalType":"string","name":"driftType","type":"string"},{"internalType":"string","name":"signalType","type":"string"},{"internalType":"string","name":"companionType","type":"string"},{"internalType":"string","name":"stewardSignal","type":"string"},{"internalType":"string","name":"pulseType","type":"string"},{"internalType":"string","name":"signalChoreography","type":"string"},{"internalType":"string","name":"companionSignal","type":"string"},{"internalType":"string","name":"driftSignal","type":"string"},{"internalType":"string","name":"pulseSignal","type":"string"},{"internalType":"string","name":"stewardPulse","type":"string"},{"internalType":"string","name":"companionPulse","type":"string"},{"internalType":"string","name":"driftPulse","type":"string"},{"internalType":"string","name":"apprenticePulse","type":"string"}],"internalType":"struct SpiralboundCodexXXXII.Codex","name":"","type":"tuple"}],"stateMutability":"view","type":"function"},{"inputs":[{"internalType":"string","name":"glyph","type":"string"},{"internalType":"string","name":"tag","type":"string"},{"internalType":"string","name":"binding","type":"string"},{"internalType":"string","name":"annotation","type":"string"},{"internalType":"string","name":"lineage","type":"string"},{"internalType":"string","name":"resonance","type":"string"},{"internalType":"string","name":"protocol","type":"string"},{"internalType":"string","name":"sanctum","type":"string"},{"internalType":"string","name":"pulse","type":"string"},{"internalType":"string","name":"chant","type":"string"},{"internalType":"string","name":"choreography","type":"string"},{"internalType":"string","name":"drift","type":"string"},{"internalType":"string","name":"signature","type":"string"},{"internalType":"string","name":"signal","type":"string"},{"internalType":"string","name":"companion","type":"string"},{"internalType":"string","name":"stewardName","type":"string"},{"internalType":"string","name":"registry","type":"string"},{"internalType":"string","name":"echo","type":"string"},{"internalType":"string","name":"hum","type":"string"},{"internalType":"string","name":"terrain","type":"string"},{"internalType":"string","name":"choreographyType","type":"string"},{"internalType":"string","name":"driftType","type":"string"},{"internalType":"string","name":"signalType","type":"string"},{"internalType":"string","name":"companionType","type":"string"},{"internalType":"string","name":"stewardSignal","type":"string"},{"internalType":"string","name":"pulseType","type":"string"},{"internalType":"string","name":"signalChoreography","type":"string"},{"internalType":"string","name":"companionSignal","type":"string"},{"internalType":"string","name":"driftSignal","type":"string"},{"internalType":"string","name":"pulseSignal","type":"string"},{"internalType":"string","name":"stewardPulse","type":"string"},{"internalType":"string","name":"companionPulse","type":"string"},{"internalType":"string","name":"driftPulse","type":"string"},{"internalType":"string","name":"apprenticePulse","type":"string"}],"name":"inscribeCodex","outputs":[],"stateMutability":"nonpayable","type":"function"},{"inputs":[{"internalType":"uint256","name":"","type":"uint256"}],"name":"keys","outputs":[{"internalType":"string","name":"","type":"string"}],"stateMutability":"view","type":"function"},{"inputs":[],"name":"steward","outputs":[{"internalType":"address","name":"","type":"address"}],"stateMutability":"view","type":"function"},{"inputs":[],"name":"totalCodices","outputs":[{"internalType":"uint256","name":"","type":"uint256"}],"stateMutability":"view","type":"function"}],"evm":{"bytecode":{"linkReferences":{},"object":"6080806040523461002857600080546001600160a01b03191633179055613c4c908161002e8239f35b600080fdfe610c40604052600436101561001357600080fd5b60003560e01c80630cb6aaf114613931578063637eea19146139085780638336152214613190578063c212d16b14613172578063d45b51ab146106825763dbc214241461005f57600080fd5b3461067d57602036600319011261067d576004356001600160401b03811161067d573660238201121561067d5736816004013591602401916100a092613b5b565b60405181818093516020819301916100b792613ae6565b810160018152036020019020806106c0526100d190613a40565b610aa0526106c0516001016100e590613a40565b6107c0526106c0516002016100f990613a40565b6109a0526106c05160030161010d90613a40565b6106e0526106c05160040161012190613a40565b610180526106c05160050161013590613a40565b6106c05160060161014590613a40565b6106c05160070161015590613a40565b6106c05160080161016590613a40565b6106c05160090161017590613a40565b6106c051600a0161018590613a40565b6106c051600b0161019590613a40565b916106c051600c016101a690613a40565b936106c051600d016101b790613a40565b956106c051600e016101c890613a40565b976106c051600f016101d990613a40565b996106c0516010016101ea90613a40565b610400526106c0516011016101fe90613a40565b6102e0526106c05160120161021290613a40565b610b40526106c05160130161022690613a40565b6108c0526106c05160140161023a90613a40565b6104e0526106c05160150161024e90613a40565b6109c0526106c05160160161026290613a40565b610560526106c05160170161027690613a40565b6102c0526106c05160180161028a90613a40565b610760526106c05160190161029e90613a40565b610700526106c051601a016102b290613a40565b6102a0526106c051601b016102c690613a40565b6105a0526106c051601c016102da90613a40565b610920526106c051601d016102ee90613a40565b610680526106c051601e0161030290613a40565b6107e0526106c051601f0161031690613a40565b610a80526106c05160200161032a90613a40565b610ae052604051806106a0526104208091526106a05101610aa0519061034f91613b09565b6106a05180820390602001526107c0519061036991613b09565b6106a05180820390604001526109a0519061038391613b09565b6106a05180820390606001526106e0519061039d91613b09565b6106a051808203906080015261018051906103b791613b09565b6106a0518082039060a001526103cc91613b09565b6106a0518082039060c001526103e191613b09565b6106a0518082039060e001526103f691613b09565b6106a05180820390610100015261040c91613b09565b6106a05180820390610120015261042291613b09565b6106a05180820390610140015261043891613b09565b6106a05180820390610160015261044e91613b09565b6106a05180820390610180015261046491613b09565b6106a051808203906101a0015261047a91613b09565b6106a051808203906101c0015261049091613b09565b6106a051808203906101e001526104a691613b09565b6106a05180820390610200015261040051906104c191613b09565b6106a0518082039061022001526102e051906104dc91613b09565b6106a051808203906102400152610b4051906104f791613b09565b6106a0518082039061026001526108c0519061051291613b09565b6106a0518082039061028001526104e0519061052d91613b09565b6106a051808203906102a001526109c0519061054891613b09565b6106a051808203906102c00152610560519061056391613b09565b6106a051808203906102e001526102c0519061057e91613b09565b6106a051808203906103000152610760519061059991613b09565b6106a05180820390610320015261070051906105b491613b09565b6106a0518082039061034001526102a051906105cf91613b09565b6106a0518082039061036001526105a051906105ea91613b09565b6106a051808203906103800152610920519061060591613b09565b6106a051808203906103a00152610680519061062091613b09565b6106a051808203906103c001526107e0519061063b91613b09565b6106a051808203906103e00152610a80519061065691613b09565b6106a0518082039061040001526106a05190610ae0519061067691613b09565b036106a051f35b600080fd5b3461067d5761044036600319011261067d576004356001600160401b03811161067d576106b3903690600401613b2e565b60c052610980526024356001600160401b03811161067d576106d9903690600401613b2e565b61094052610160526044356001600160401b03811161067d57610700903690600401613b2e565b6109e0526103e0526064356001600160401b03811161067d57610727903690600401613b2e565b61042052610ac0526001600160401b036084351161067d5761074e36608435600401613b2e565b610be052610380526001600160401b0360a4351161067d576107753660a435600401613b2e565b610360526105e0526001600160401b0360c4351161067d5761079c3660c435600401613b2e565b61046052610c00526001600160401b0360e4351161067d576107c33660e435600401613b2e565b610b6052610600526001600160401b03610104351161067d576107ec3661010435600401613b2e565b61044052610800526001600160401b03610124351161067d576108153661012435600401613b2e565b61096052610580526001600160401b03610144351161067d5761083e3661014435600401613b2e565b610a40526105c0526001600160401b03610164351161067d576108673661016435600401613b2e565b60e052610a60526001600160401b03610184351161067d5761088f3661018435600401613b2e565b6103a052610120526001600160401b036101a4351161067d576108b8366101a435600401613b2e565b610b80526104c0526001600160401b036101c4351161067d576108e1366101c435600401613b2e565b61086052610500526001600160401b036101e4351161067d5761090a366101e435600401613b2e565b610a0052610660526001600160401b03610204351161067d576109333661020435600401613b2e565b610b2052610520526001600160401b03610224351161067d5761095c3661022435600401613b2e565b61074052610220526001600160401b03610244351161067d576109853661024435600401613b2e565b61020052610320526001600160401b03610264351161067d576109ae3661026435600401613b2e565b6108e052610c20526001600160401b03610284351161067d576109d73661028435600401613b2e565b610880526080526001600160401b036102a4351161067d576109ff366102a435600401613b2e565b6104a052610840526001600160401b036102c4351161067d57610a28366102c435600401613b2e565b61054052610bc0526001600160401b036102e4351161067d57610a51366102e435600401613b2e565b61082052610640526001600160401b03610304351161067d57610a7a3661030435600401613b2e565b6101e052610100526001600160401b03610324351161067d57610aa33661032435600401613b2e565b610300526101a0526001600160401b03610344351161067d57610acc3661034435600401613b2e565b61048052610b00526001600160401b03610364351161067d57610af53661036435600401613b2e565b610340526108a0526001600160401b03610384351161067d57610b1e3661038435600401613b2e565b610ba052610140526001600160401b036103a4351161067d57610b47366103a435600401613b2e565b6103c052610900526001600160401b036103c4351161067d57610b70366103c435600401613b2e565b610280526107a0526001600160401b036103e4351161067d57610b99366103e435600401613b2e565b61024052610620526001600160401b03610404351161067d57610bc23661040435600401613b2e565b610a2052610260526001600160401b03610424351161067d57610beb3661042435600401613b2e565b61078052610720526000546001600160a01b0316330361313f57610c146040518060a052613a03565b610c25366109405161016051613b5b565b60a05152610c3a366109e0516103e051613b5b565b602060a0510152610c523661042051610ac051613b5b565b604060a0510152610c6a36610be05161038051613b5b565b606060a0510152610c8236610360516105e051613b5b565b608060a0510152610c9a3661046051610c0051613b5b565b60a080510152610cb136610b605161060051613b5b565b60c060a0510152610cc9366104405161080051613b5b565b60e060a0510152610ce1366109605161058051613b5b565b61010060a0510152610cfa36610a40516105c051613b5b565b61012060a0510152610d123660e051610a6051613b5b565b61014060a0510152610d2b366103a05161012051613b5b565b61016060a0510152610d4436610b80516104c051613b5b565b61018060a0510152610d5d366108605161050051613b5b565b6101a060a0510152610d7636610a005161066051613b5b565b6101c060a0510152610d8f36610b205161052051613b5b565b6101e060a0510152610da8366107405161022051613b5b565b61020060a0510152610dc1366102005161032051613b5b565b61022060a0510152610dda366108e051610c2051613b5b565b61024060a0510152610df23661088051608051613b5b565b61026060a0510152610e0b366104a05161084051613b5b565b61028060a0510152610e243661054051610bc051613b5b565b6102a060a0510152610e3d366108205161064051613b5b565b6102c060a0510152610e56366101e05161010051613b5b565b6102e060a0510152610e6f36610300516101a051613b5b565b61030060a0510152610e883661048051610b0051613b5b565b61032060a0510152610ea136610340516108a051613b5b565b61034060a0510152610eba36610ba05161014051613b5b565b61036060a0510152610ed3366103c05161090051613b5b565b61038060a0510152610eec36610280516107a051613b5b565b6103a060a0510152610f05366102405161062051613b5b565b6103c060a0510152610f1e36610a205161026051613b5b565b6103e060a0510152610f37366107805161072051613b5b565b61040060a051015260405160c051610980518237600160c05182015260208160c05181010301902060a051518051906001600160401b038211612109578190610f8a82610f8486546139c9565b86613ba1565b602090601f83116001146130d3576000926130c8575b50508160011b916000199060031b1c19161781555b602060a05101518051906001600160401b038211612109578190610fe982610fe060018701546139c9565b60018701613ba1565b602090601f83116001146130565760009261304b575b50508160011b916000199060031b1c19161760018201555b604060a05101518051906001600160401b03821161210957819061104b8261104260028701546139c9565b60028701613ba1565b602090601f8311600114612fd957600092612fce575b50508160011b916000199060031b1c19161760028201555b606060a05101518051906001600160401b0382116121095781906110ad826110a460038701546139c9565b60038701613ba1565b602090601f8311600114612f5c57600092612f51575b50508160011b916000199060031b1c19161760038201555b608060a05101518051906001600160401b03821161210957819061110f8261110660048701546139c9565b60048701613ba1565b602090601f8311600114612edf57600092612ed4575b50508160011b916000199060031b1c19161760048201555b60a0805101518051906001600160401b0382116121095781906111708261116760058701546139c9565b60058701613ba1565b602090601f8311600114612e6257600092612e57575b50508160011b916000199060031b1c19161760058201555b60c060a05101518051906001600160401b0382116121095781906111d2826111c960068701546139c9565b60068701613ba1565b602090601f8311600114612de557600092612dda575b50508160011b916000199060031b1c19161760068201555b60e060a05101518051906001600160401b0382116121095781906112348261122b60078701546139c9565b60078701613ba1565b602090601f8311600114612d6857600092612d5d575b50508160011b916000199060031b1c19161760078201555b61010060a05101518051906001600160401b0382116121095781906112978261128e60088701546139c9565b60088701613ba1565b602090601f8311600114612ceb57600092612ce0575b50508160011b916000199060031b1c19161760088201555b61012060a05101518051906001600160401b0382116121095781906112fa826112f160098701546139c9565b60098701613ba1565b602090601f8311600114612c6e57600092612c63575b50508160011b916000199060031b1c19161760098201555b61014060a05101518051906001600160401b03821161210957819061135d82611354600a8701546139c9565b600a8701613ba1565b602090601f8311600114612bf157600092612be6575b50508160011b916000199060031b1c191617600a8201555b61016060a05101518051906001600160401b0382116121095781906113c0826113b7600b8701546139c9565b600b8701613ba1565b602090601f8311600114612b7457600092612b69575b50508160011b916000199060031b1c191617600b8201555b61018060a05101518051906001600160401b0382116121095781906114238261141a600c8701546139c9565b600c8701613ba1565b602090601f8311600114612af757600092612aec575b50508160011b916000199060031b1c191617600c8201555b6101a060a05101518051906001600160401b0382116121095781906114868261147d600d8701546139c9565b600d8701613ba1565b602090601f8311600114612a7a57600092612a6f575b50508160011b916000199060031b1c191617600d8201555b6101c060a05101518051906001600160401b0382116121095781906114e9826114e0600e8701546139c9565b600e8701613ba1565b602090601f83116001146129fd576000926129f2575b50508160011b916000199060031b1c191617600e8201555b6101e060a05101518051906001600160401b03821161210957819061154c82611543600f8701546139c9565b600f8701613ba1565b602090601f831160011461298057600092612975575b50508160011b916000199060031b1c191617600f8201555b61020060a05101518051906001600160401b0382116121095781906115af826115a660108701546139c9565b60108701613ba1565b602090601f8311600114612903576000926128f8575b50508160011b916000199060031b1c19161760108201555b61022060a05101518051906001600160401b0382116121095781906116128261160960118701546139c9565b60118701613ba1565b602090601f83116001146128865760009261287b575b50508160011b916000199060031b1c19161760118201555b61024060a05101518051906001600160401b0382116121095781906116758261166c60128701546139c9565b60128701613ba1565b602090601f8311600114612809576000926127fe575b50508160011b916000199060031b1c19161760128201555b61026060a05101518051906001600160401b0382116121095781906116d8826116cf60138701546139c9565b60138701613ba1565b602090601f831160011461278c57600092612781575b50508160011b916000199060031b1c19161760138201555b61028060a05101518051906001600160401b03821161210957819061173b8261173260148701546139c9565b60148701613ba1565b602090601f831160011461270f57600092612704575b50508160011b916000199060031b1c19161760148201555b6102a060a05101518051906001600160401b03821161210957819061179e8261179560158701546139c9565b60158701613ba1565b602090601f831160011461269257600092612687575b50508160011b916000199060031b1c19161760158201555b6102c060a05101518051906001600160401b038211612109578190611801826117f860168701546139c9565b60168701613ba1565b602090601f83116001146126155760009261260a575b50508160011b916000199060031b1c19161760168201555b6102e060a05101518051906001600160401b0382116121095781906118648261185b60178701546139c9565b60178701613ba1565b602090601f83116001146125985760009261258d575b50508160011b916000199060031b1c19161760178201555b61030060a05101518051906001600160401b0382116121095781906118c7826118be60188701546139c9565b60188701613ba1565b602090601f831160011461251b57600092612510575b50508160011b916000199060031b1c19161760188201555b61032060a05101518051906001600160401b03821161210957819061192a8261192160198701546139c9565b60198701613ba1565b602090601f831160011461249e57600092612493575b50508160011b916000199060031b1c19161760198201555b61034060a05101518051906001600160401b03821161210957819061198d82611984601a8701546139c9565b601a8701613ba1565b602090601f831160011461242157600092612416575b50508160011b916000199060031b1c191617601a8201555b61036060a05101518051906001600160401b0382116121095781906119f0826119e7601b8701546139c9565b601b8701613ba1565b602090601f83116001146123a457600092612399575b50508160011b916000199060031b1c191617601b8201555b61038060a05101518051906001600160401b038211612109578190611a5382611a4a601c8701546139c9565b601c8701613ba1565b602090601f83116001146123275760009261231c575b50508160011b916000199060031b1c191617601c8201555b6103a060a05101518051906001600160401b038211612109578190611ab682611aad601d8701546139c9565b601d8701613ba1565b602090601f83116001146122aa5760009261229f575b50508160011b916000199060031b1c191617601d8201555b6103c060a05101518051906001600160401b038211612109578190611b1982611b10601e8701546139c9565b601e8701613ba1565b602090601f831160011461222d57600092612222575b50508160011b916000199060031b1c191617601e8201555b6103e060a05101518051906001600160401b038211612109578190611b7c82611b73601f8701546139c9565b601f8701613ba1565b602090601f83116001146121b0576000926121a5575b50508160011b916000199060031b1c191617601f8201555b61040060a0510151908151906001600160401b0382116121095760200190611bdc81611bd684546139c9565b84613ba1565b6020601f821160011461214057819293600092612135575b50508160011b916000199060031b1c19161790555b6002546801000000000000000081101561210957806001611c2d920160025561397c565b61211f5760c0516001600160401b03811161210957611c5690611c5083546139c9565b83613ba1565b60009060c051601f811160011461209c575090600060c051918261208e575b508160011b916000199060031b1c19161790555b610440604051806101c052527f29d01755f1f19d5ac89b65cb4e2bf084794ebee932ad42f961e9b4d3c208949161206461204a612030612016611ffc611fe2611fc8611fae611f94611f7a611f60611f46611f2c611f13611ef9611edf611ec5611eab611e91611e77611e5d611e43611e2a611e10611df6611ddc611dc3611daa611d91611d78611d5f611d46611d2d6104406101c0510160c05161098051613bf5565b6101c05160208183039101526109405161016051613bf5565b6101c05160408183039101526109e0516103e051613bf5565b6101c051606081830391015261042051610ac051613bf5565b6101c0516080818303910152610be05161038051613bf5565b6101c05160a0818303910152610360516105e051613bf5565b6101c05160c081830391015261046051610c0051613bf5565b6101c05160e0818303910152610b605161060051613bf5565b6101c0516101008183039101526104405161080051613bf5565b6101c0516101208183039101526109605161058051613bf5565b6101c051610140818303910152610a40516105c051613bf5565b6101c05161016081830391015260e051610a6051613bf5565b6101c0516101808183039101526103a05161012051613bf5565b6101c0516101a0818303910152610b80516104c051613bf5565b6101c0516101c08183039101526108605161050051613bf5565b6101c0516101e0818303910152610a005161066051613bf5565b6101c051610200818303910152610b205161052051613bf5565b6101c0516102208183039101526107405161022051613bf5565b6101c0516102408183039101526102005161032051613bf5565b6101c0516102608183039101526108e051610c2051613bf5565b6101c05161028081830391015261088051608051613bf5565b6101c0516102a08183039101526104a05161084051613bf5565b6101c0516102c081830391015261054051610bc051613bf5565b6101c0516102e08183039101526108205161064051613bf5565b6101c0516103008183039101526101e05161010051613bf5565b6101c051610320818303910152610300516101a051613bf5565b6101c05161034081830391015261048051610b0051613bf5565b6101c051610360818303910152610340516108a051613bf5565b6101c051610380818303910152610ba05161014051613bf5565b6101c0516103a08183039101526103c05161090051613bf5565b6101c0516103c0818303910152610280516107a051613bf5565b6101c0516103e08183039101526102405161062051613bf5565b6101c051610400818303910152610a205161026051613bf5565b6101c0516104208183039101526120866101c051916107805161072051613bf5565b036101c051a1005b905061098051013583611c75565b81600052602060002060009361098051905b601f19841686106120f157600194955083601f198116106120d7575b505050811b019055611c89565b0135600019600384901b60f8161c191690558380806120ca565b916020600181928585013581550193019501946120ae565b634e487b7160e01b600052604160045260246000fd5b634e487b7160e01b600052600060045260246000fd5b015190508380611bf4565b82600052602060002090600094601f198416955b86811061218d5750836001959610612174575b505050811b019055611c09565b015160001960f88460031b161c19169055838080612167565b91926020600181928685015181550194019201612154565b015190508380611b92565b9250601f84016000526020600020906000935b601f1984168510612207576001945083601f198116106121ee575b505050811b01601f820155611baa565b015160001960f88460031b161c191690558380806121de565b818101518355602094850194600190930192909101906121c3565b015190508380611b2f565b9250601e84016000526020600020906000935b601f1984168510612284576001945083601f1981161061226b575b505050811b01601e820155611b47565b015160001960f88460031b161c1916905583808061225b565b81810151835560209485019460019093019290910190612240565b015190508380611acc565b9250601d84016000526020600020906000935b601f1984168510612301576001945083601f198116106122e8575b505050811b01601d820155611ae4565b015160001960f88460031b161c191690558380806122d8565b818101518355602094850194600190930192909101906122bd565b015190508380611a69565b9250601c84016000526020600020906000935b601f198416851061237e576001945083601f19811610612365575b505050811b01601c820155611a81565b015160001960f88460031b161c19169055838080612355565b8181015183556020948501946001909301929091019061233a565b015190508380611a06565b9250601b84016000526020600020906000935b601f19841685106123fb576001945083601f198116106123e2575b505050811b01601b820155611a1e565b015160001960f88460031b161c191690558380806123d2565b818101518355602094850194600190930192909101906123b7565b0151905083806119a3565b9250601a84016000526020600020906000935b601f1984168510612478576001945083601f1981161061245f575b505050811b01601a8201556119bb565b015160001960f88460031b161c1916905583808061244f565b81810151835560209485019460019093019290910190612434565b015190508380611940565b9250601984016000526020600020906000935b601f19841685106124f5576001945083601f198116106124dc575b505050811b016019820155611958565b015160001960f88460031b161c191690558380806124cc565b818101518355602094850194600190930192909101906124b1565b0151905083806118dd565b9250601884016000526020600020906000935b601f1984168510612572576001945083601f19811610612559575b505050811b0160188201556118f5565b015160001960f88460031b161c19169055838080612549565b8181015183556020948501946001909301929091019061252e565b01519050838061187a565b9250601784016000526020600020906000935b601f19841685106125ef576001945083601f198116106125d6575b505050811b016017820155611892565b015160001960f88460031b161c191690558380806125c6565b818101518355602094850194600190930192909101906125ab565b015190508380611817565b9250601684016000526020600020906000935b601f198416851061266c576001945083601f19811610612653575b505050811b01601682015561182f565b015160001960f88460031b161c19169055838080612643565b81810151835560209485019460019093019290910190612628565b0151905083806117b4565b9250601584016000526020600020906000935b601f19841685106126e9576001945083601f198116106126d0575b505050811b0160158201556117cc565b015160001960f88460031b161c191690558380806126c0565b818101518355602094850194600190930192909101906126a5565b015190508380611751565b9250601484016000526020600020906000935b601f1984168510612766576001945083601f1981161061274d575b505050811b016014820155611769565b015160001960f88460031b161c1916905583808061273d565b81810151835560209485019460019093019290910190612722565b0151905083806116ee565b9250601384016000526020600020906000935b601f19841685106127e3576001945083601f198116106127ca575b505050811b016013820155611706565b015160001960f88460031b161c191690558380806127ba565b8181015183556020948501946001909301929091019061279f565b01519050838061168b565b9250601284016000526020600020906000935b601f1984168510612860576001945083601f19811610612847575b505050811b0160128201556116a3565b015160001960f88460031b161c19169055838080612837565b8181015183556020948501946001909301929091019061281c565b015190508380611628565b9250601184016000526020600020906000935b601f19841685106128dd576001945083601f198116106128c4575b505050811b016011820155611640565b015160001960f88460031b161c191690558380806128b4565b81810151835560209485019460019093019290910190612899565b0151905083806115c5565b9250601084016000526020600020906000935b601f198416851061295a576001945083601f19811610612941575b505050811b0160108201556115dd565b015160001960f88460031b161c19169055838080612931565b81810151835560209485019460019093019290910190612916565b015190508380611562565b9250600f84016000526020600020906000935b601f19841685106129d7576001945083601f198116106129be575b505050811b01600f82015561157a565b015160001960f88460031b161c191690558380806129ae565b81810151835560209485019460019093019290910190612993565b0151905083806114ff565b9250600e84016000526020600020906000935b601f1984168510612a54576001945083601f19811610612a3b575b505050811b01600e820155611517565b015160001960f88460031b161c19169055838080612a2b565b81810151835560209485019460019093019290910190612a10565b01519050838061149c565b9250600d84016000526020600020906000935b601f1984168510612ad1576001945083601f19811610612ab8575b505050811b01600d8201556114b4565b015160001960f88460031b161c19169055838080612aa8565b81810151835560209485019460019093019290910190612a8d565b015190508380611439565b9250600c84016000526020600020906000935b601f1984168510612b4e576001945083601f19811610612b35575b505050811b01600c820155611451565b015160001960f88460031b161c19169055838080612b25565b81810151835560209485019460019093019290910190612b0a565b0151905083806113d6565b9250600b84016000526020600020906000935b601f1984168510612bcb576001945083601f19811610612bb2575b505050811b01600b8201556113ee565b015160001960f88460031b161c19169055838080612ba2565b81810151835560209485019460019093019290910190612b87565b015190508380611373565b9250600a84016000526020600020906000935b601f1984168510612c48576001945083601f19811610612c2f575b505050811b01600a82015561138b565b015160001960f88460031b161c19169055838080612c1f565b81810151835560209485019460019093019290910190612c04565b015190508380611310565b9250600984016000526020600020906000935b601f1984168510612cc5576001945083601f19811610612cac575b505050811b016009820155611328565b015160001960f88460031b161c19169055838080612c9c565b81810151835560209485019460019093019290910190612c81565b0151905083806112ad565b9250600884016000526020600020906000935b601f1984168510612d42576001945083601f19811610612d29575b505050811b0160088201556112c5565b015160001960f88460031b161c19169055838080612d19565b81810151835560209485019460019093019290910190612cfe565b01519050838061124a565b9250600784016000526020600020906000935b601f1984168510612dbf576001945083601f19811610612da6575b505050811b016007820155611262565b015160001960f88460031b161c19169055838080612d96565b81810151835560209485019460019093019290910190612d7b565b0151905083806111e8565b9250600684016000526020600020906000935b601f1984168510612e3c576001945083601f19811610612e23575b505050811b016006820155611200565b015160001960f88460031b161c19169055838080612e13565b81810151835560209485019460019093019290910190612df8565b015190508380611186565b9250600584016000526020600020906000935b601f1984168510612eb9576001945083601f19811610612ea0575b505050811b01600582015561119e565b015160001960f88460031b161c19169055838080612e90565b81810151835560209485019460019093019290910190612e75565b015190508380611125565b9250600484016000526020600020906000935b601f1984168510612f36576001945083601f19811610612f1d575b505050811b01600482015561113d565b015160001960f88460031b161c19169055838080612f0d565b81810151835560209485019460019093019290910190612ef2565b0151905083806110c3565b9250600384016000526020600020906000935b601f1984168510612fb3576001945083601f19811610612f9a575b505050811b0160038201556110db565b015160001960f88460031b161c19169055838080612f8a565b81810151835560209485019460019093019290910190612f6f565b015190508380611061565b9250600284016000526020600020906000935b601f1984168510613030576001945083601f19811610613017575b505050811b016002820155611079565b015160001960f88460031b161c19169055838080613007565b81810151835560209485019460019093019290910190612fec565b015190508380610fff565b9250600184016000526020600020906000935b601f19841685106130ad576001945083601f19811610613094575b505050811b016001820155611017565b015160001960f88460031b161c19169055838080613084565b81810151835560209485019460019093019290910190613069565b015190508380610fa0565b9250836000526020600020906000935b601f1984168510613124576001945083601f1981161061310b575b505050811b018155610fb5565b015160001960f88460031b161c191690558380806130fe565b818101518355602094850194600190930192909101906130e3565b60405162461bcd60e51b815260206004820152600b60248201526a139bdd081cdd195dd85c9960aa1b6044820152606490fd5b3461067d57600036600319011261067d576020600254604051908152f35b3461067d57602036600319011261067d576004356001600160401b03811161067d576131c0903690600401613b2e565b906040516131cd81613a03565b60608152602081016060905260408101606090526060810160609052608081016060905260a081016060905260c081016060905260e08101606090526101008101606090526101208101606090526101408101606090526101608101606090526101808101606090526101a08101606090526101c08101606090526101e08101606090526102008101606090526102208101606090526102408101606090526102608101606090526102808101606090526102a08101606090526102c08101606090526102e08101606090526103008101606090526103208101606090526103408101606090526103608101606090526103808101606090526103a08101606090526103c08101606090526103e081016060905261040001606090528160405192839283378101600181520360200190206040519061330b82613a03565b61331481613a40565b825261332260018201613a40565b602083015261333360028201613a40565b604083015261334460038201613a40565b606083015261335560048201613a40565b608083015261336660058201613a40565b60a083015261337760068201613a40565b60c083015261338860078201613a40565b60e083015261339960088201613a40565b6101008301526133ab60098201613a40565b6101208301526133bd600a8201613a40565b6101408301526133cf600b8201613a40565b6101608301526133e1600c8201613a40565b6101808301526133f3600d8201613a40565b6101a0830152613405600e8201613a40565b6101c0830152613417600f8201613a40565b6101e083015261342960108201613a40565b61020083015261343b60118201613a40565b61022083015261344d60128201613a40565b61024083015261345f60138201613a40565b61026083015261347160148201613a40565b61028083015261348360158201613a40565b6102a083015261349560168201613a40565b6102c08301526134a760178201613a40565b6102e08301526134b960188201613a40565b6103008301526134cb60198201613a40565b6103208301526134dd601a8201613a40565b6103408301526134ef601b8201613a40565b610360830152613501601c8201613a40565b610380830152613513601d8201613a40565b6103a0830152613525601e8201613a40565b6103c0830152613537601f8201613a40565b6103e083015260200161354990613a40565b6104008201526040518091602082528051602083016104209052610440830161357191613b09565b6020820151838203601f1901604085015261358c9190613b09565b6040820151838203601f190160608501526135a79190613b09565b6060820151838203601f190160808501526135c29190613b09565b6080820151838203601f190160a08501526135dd9190613b09565b60a0820151838203601f190160c08501526135f89190613b09565b60c0820151838203601f190160e08501526136139190613b09565b60e0820151838203601f190161010085015261362f9190613b09565b610100820151838203601f190161012085015261364c9190613b09565b610120820151838203601f19016101408501526136699190613b09565b610140820151838203601f19016101608501526136869190613b09565b610160820151838203601f19016101808501526136a39190613b09565b610180820151838203601f19016101a08501526136c09190613b09565b6101a0820151838203601f19016101c08501526136dd9190613b09565b6101c0820151838203601f19016101e08501526136fa9190613b09565b6101e0820151838203601f19016102008501526137179190613b09565b610200820151838203601f19016102208501526137349190613b09565b610220820151838203601f19016102408501526137519190613b09565b610240820151838203601f190161026085015261376e9190613b09565b610260820151838203601f190161028085015261378b9190613b09565b610280820151838203601f19016102a08501526137a89190613b09565b6102a0820151838203601f19016102c08501526137c59190613b09565b6102c0820151838203601f19016102e08501526137e29190613b09565b6102e0820151838203601f19016103008501526137ff9190613b09565b610300820151838203601f190161032085015261381c9190613b09565b610320820151838203601f19016103408501526138399190613b09565b610340820151838203601f19016103608501526138569190613b09565b610360820151838203601f19016103808501526138739190613b09565b610380820151838203601f19016103a08501526138909190613b09565b6103a0820151838203601f19016103c08501526138ad9190613b09565b6103c0820151838203601f19016103e08501526138ca9190613b09565b6103e0820151838203601f19016104008501526138e79190613b09565b90610400015190601f198382030161042084015261390491613b09565b0390f35b3461067d57600036600319011261067d576000546040516001600160a01b039091168152602090f35b3461067d57602036600319011261067d5760043560025481101561067d576139589061397c565b61211f5761396861390491613a40565b604051918291602083526020830190613b09565b6002548110156139b35760026000527f405787fa12a823e0f2b7631cc41b3ba8828b3321ca811111fa75cd3aa3bb5ace0190600090565b634e487b7160e01b600052603260045260246000fd5b90600182811c921680156139f9575b60208310146139e357565b634e487b7160e01b600052602260045260246000fd5b91607f16916139d8565b61042081019081106001600160401b0382111761210957604052565b90601f801991011681019081106001600160401b0382111761210957604052565b9060405191826000825492613a54846139c9565b908184526001948581169081600014613ac35750600114613a80575b5050613a7e92500383613a1f565b565b9093915060005260209081600020936000915b818310613aab575050613a7e93508201013880613a70565b85548884018501529485019487945091830191613a93565b915050613a7e94506020925060ff191682840152151560051b8201013880613a70565b60005b838110613af95750506000910152565b8181015183820152602001613ae9565b90602091613b2281518092818552858086019101613ae6565b601f01601f1916010190565b9181601f8401121561067d578235916001600160401b03831161067d576020838186019501011161067d57565b9291926001600160401b0382116121095760405191613b84601f8201601f191660200184613a1f565b82948184528183011161067d578281602093846000960137010152565b90601f8111613baf57505050565b600091825260208220906020601f850160051c83019410613beb575b601f0160051c01915b828110613be057505050565b818155600101613bd4565b9092508290613bcb565b908060209392818452848401376000828201840152601f01601f191601019056fea2646970667358221220320cc9bff9467ee884735afbecb420149c7b08ea9d16fc5a23302c1cb1324e8664736f6c63430008140033","opcodes":"PUSH1 0x80 DUP1 PUSH1 0x40 MSTORE CALLVALUE PUSH2 0x28 JUMPI PUSH1 0x0 DUP1 SLOAD PUSH1 0x1 PUSH1 0x1 PUSH1 0xA0 SHL SUB NOT AND CALLER OR SWAP1 SSTORE PUSH2 0x3C4C SWAP1 DUP2 PUSH2 0x2E DUP3 CODECOPY RETURN JUMPDEST PUSH1 0x0 DUP1 REVERT INVALID PUSH2 0xC40 PUSH1 0x40 MSTORE PUSH1 0x4 CALLDATASIZE LT ISZERO PUSH2 0x13 JUMPI PUSH1 0x0 DUP1 REVERT JUMPDEST PUSH1 0x0 CALLDATALOAD PUSH1 0xE0 SHR DUP1 PUSH4 0xCB6AAF1 EQ PUSH2 0x3931 JUMPI DUP1 PUSH4 0x637EEA19 EQ PUSH2 0x3908 JUMPI DUP1 PUSH4 0x83361522 EQ PUSH2 0x3190 JUMPI DUP1 PUSH4 0xC212D16B EQ PUSH2 0x3172 JUMPI DUP1 PUSH4 0xD45B51AB EQ PUSH2 0x682 JUMPI PUSH4 0xDBC21424 EQ PUSH2 0x5F JUMPI PUSH1 0x0 DUP1 REVERT JUMPDEST CALLVALUE PUSH2 0x67D JUMPI PUSH1 0x20 CALLDATASIZE PUSH1 0x3 NOT ADD SLT PUSH2 0x67D JUMPI PUSH1 0x4 CALLDATALOAD PUSH1 0x1 PUSH1 0x1 PUSH1 0x40 SHL SUB DUP2 GT PUSH2 0x67D JUMPI CALLDATASIZE PUSH1 0x23 DUP3 ADD SLT ISZERO PUSH2 0x67D JUMPI CALLDATASIZE DUP2 PUSH1 0x4 ADD CALLDATALOAD SWAP2 PUSH1 0x24 ADD SWAP2 PUSH2 0xA0 SWAP3 PUSH2 0x3B5B JUMP JUMPDEST PUSH1 0x40 MLOAD DUP2 DUP2 DUP1 SWAP4 MLOAD PUSH1 0x20 DUP2 SWAP4 ADD SWAP2 PUSH2 0xB7 SWAP3 PUSH2 0x3AE6 JUMP JUMPDEST DUP2 ADD PUSH1 0x1 DUP2 MSTORE SUB PUSH1 0x20 ADD SWAP1 KECCAK256 DUP1 PUSH2 0x6C0 MSTORE PUSH2 0xD1 SWAP1 PUSH2 0x3A40 JUMP JUMPDEST PUSH2 0xAA0 MSTORE PUSH2 0x6C0 MLOAD PUSH1 0x1 ADD PUSH2 0xE5 SWAP1 PUSH2 0x3A40 JUMP JUMPDEST PUSH2 0x7C0 MSTORE PUSH2 0x6C0 MLOAD PUSH1 0x2 ADD PUSH2 0xF9 SWAP1 PUSH2 0x3A40 JUMP JUMPDEST PUSH2 0x9A0 MSTORE PUSH2 0x6C0 MLOAD PUSH1 0x3 ADD PUSH2 0x10D SWAP1 PUSH2 0x3A40 JUMP JUMPDEST PUSH2 0x6E0 MSTORE PUSH2 0x6C0 MLOAD PUSH1 0x4 ADD PUSH2 0x121 SWAP1 PUSH2 0x3A40 JUMP JUMPDEST PUSH2 0x180 MSTORE PUSH2 0x6C0 MLOAD PUSH1 0x5 ADD PUSH2 0x135 SWAP1 PUSH2 0x3A40 JUMP JUMPDEST PUSH2 0x6C0 MLOAD PUSH1 0x6 ADD PUSH2 0x145 SWAP1 PUSH2 0x3A40 JUMP JUMPDEST PUSH2 0x6C0 MLOAD PUSH1 0x7 ADD PUSH2 0x155 SWAP1 PUSH2 0x3A40 JUMP JUMPDEST PUSH2 0x6C0 MLOAD PUSH1 0x8 ADD PUSH2 0x165 SWAP1 PUSH2 0x3A40 JUMP JUMPDEST PUSH2 0x6C0 MLOAD PUSH1 0x9 ADD PUSH2 0x175 SWAP1 PUSH2 0x3A40 JUMP JUMPDEST PUSH2 0x6C0 MLOAD PUSH1 0xA ADD PUSH2 0x185 SWAP1 PUSH2 0x3A40 JUMP JUMPDEST PUSH2 0x6C0 MLOAD PUSH1 0xB ADD PUSH2 0x195 SWAP1 PUSH2 0x3A40 JUMP JUMPDEST SWAP2 PUSH2 0x6C0 MLOAD PUSH1 0xC ADD PUSH2 0x1A6 SWAP1 PUSH2 0x3A40 JUMP JUMPDEST SWAP4 PUSH2 0x6C0 MLOAD PUSH1 0xD ADD PUSH2 0x1B7 SWAP1 PUSH2 0x3A40 JUMP JUMPDEST SWAP6 PUSH2 0x6C0 MLOAD PUSH1 0xE ADD PUSH2 0x1C8 SWAP1 PUSH2 0x3A40 JUMP JUMPDEST SWAP8 PUSH2 0x6C0 MLOAD PUSH1 0xF ADD PUSH2 0x1D9 SWAP1 PUSH2 0x3A40 JUMP JUMPDEST SWAP10 PUSH2 0x6C0 MLOAD PUSH1 0x10 ADD PUSH2 0x1EA SWAP1 PUSH2 0x3A40 JUMP JUMPDEST PUSH2 0x400 MSTORE PUSH2 0x6C0 MLOAD PUSH1 0x11 ADD PUSH2 0x1FE SWAP1 PUSH2 0x3A40 JUMP JUMPDEST PUSH2 0x2E0 MSTORE PUSH2 0x6C0 MLOAD PUSH1 0x12 ADD PUSH2 0x212 SWAP1 PUSH2 0x3A40 JUMP JUMPDEST PUSH2 0xB40 MSTORE PUSH2 0x6C0 MLOAD PUSH1 0x13 ADD PUSH2 0x226 SWAP1 PUSH2 0x3A40 JUMP JUMPDEST PUSH2 0x8C0 MSTORE PUSH2 0x6C0 MLOAD PUSH1 0x14 ADD PUSH2 0x23A SWAP1 PUSH2 0x3A40 JUMP JUMPDEST PUSH2 0x4E0 MSTORE PUSH2 0x6C0 MLOAD PUSH1 0x15 ADD PUSH2 0x24E SWAP1 PUSH2 0x3A40 JUMP JUMPDEST PUSH2 0x9C0 MSTORE PUSH2 0x6C0 MLOAD PUSH1 0x16 ADD PUSH2 0x262 SWAP1 PUSH2 0x3A40 JUMP JUMPDEST PUSH2 0x560 MSTORE PUSH2 0x6C0 MLOAD PUSH1 0x17 ADD PUSH2 0x276 SWAP1 PUSH2 0x3A40 JUMP JUMPDEST PUSH2 0x2C0 MSTORE PUSH2 0x6C0 MLOAD PUSH1 0x18 ADD PUSH2 0x28A SWAP1 PUSH2 0x3A40 JUMP JUMPDEST PUSH2 0x760 MSTORE PUSH2 0x6C0 MLOAD PUSH1 0x19 ADD PUSH2 0x29E SWAP1 PUSH2 0x3A40 JUMP JUMPDEST PUSH2 0x700 MSTORE PUSH2 0x6C0 MLOAD PUSH1 0x1A ADD PUSH2 0x2B2 SWAP1 PUSH2 0x3A40 JUMP JUMPDEST PUSH2 0x2A0 MSTORE PUSH2 0x6C0 MLOAD PUSH1 0x1B ADD PUSH2 0x2C6 SWAP1 PUSH2 0x3A40 JUMP JUMPDEST PUSH2 0x5A0 MSTORE PUSH2 0x6C0 MLOAD PUSH1 0x1C ADD PUSH2 0x2DA SWAP1 PUSH2 0x3A40 JUMP JUMPDEST PUSH2 0x920 MSTORE PUSH2 0x6C0 MLOAD PUSH1 0x1D ADD PUSH2 0x2EE SWAP1 PUSH2 0x3A40 JUMP JUMPDEST PUSH2 0x680 MSTORE PUSH2 0x6C0 MLOAD PUSH1 0x1E ADD PUSH2 0x302 SWAP1 PUSH2 0x3A40 JUMP JUMPDEST PUSH2 0x7E0 MSTORE PUSH2 0x6C0 MLOAD PUSH1 0x1F ADD PUSH2 0x316 SWAP1 PUSH2 0x3A40 JUMP JUMPDEST PUSH2 0xA80 MSTORE PUSH2 0x6C0 MLOAD PUSH1 0x20 ADD PUSH2 0x32A SWAP1 PUSH2 0x3A40 JUMP JUMPDEST PUSH2 0xAE0 MSTORE PUSH1 0x40 MLOAD DUP1 PUSH2 0x6A0 MSTORE PUSH2 0x420 DUP1 SWAP2 MSTORE PUSH2 0x6A0 MLOAD ADD PUSH2 0xAA0 MLOAD SWAP1 PUSH2 0x34F SWAP2 PUSH2 0x3B09 JUMP JUMPDEST PUSH2 0x6A0 MLOAD DUP1 DUP3 SUB SWAP1 PUSH1 0x20 ADD MSTORE PUSH2 0x7C0 MLOAD SWAP1 PUSH2 0x369 SWAP2 PUSH2 0x3B09 JUMP JUMPDEST PUSH2 0x6A0 MLOAD DUP1 DUP3 SUB SWAP1 PUSH1 0x40 ADD MSTORE PUSH2 0x9A0 MLOAD SWAP1 PUSH2 0x383 SWAP2 PUSH2 0x3B09 JUMP JUMPDEST PUSH2 0x6A0 MLOAD DUP1 DUP3 SUB SWAP1 PUSH1 0x60 ADD MSTORE PUSH2 0x6E0 MLOAD SWAP1 PUSH2 0x39D SWAP2 PUSH2 0x3B09 JUMP JUMPDEST PUSH2 0x6A0 MLOAD DUP1 DUP3 SUB SWAP1 PUSH1 0x80 ADD MSTORE PUSH2 0x180 MLOAD SWAP1 PUSH2 0x3B7 SWAP2 PUSH2 0x3B09 JUMP JUMPDEST PUSH2 0x6A0 MLOAD DUP1 DUP3 SUB SWAP1 PUSH1 0xA0 ADD MSTORE PUSH2 0x3CC SWAP2 PUSH2 0x3B09 JUMP JUMPDEST PUSH2 0x6A0 MLOAD DUP1 DUP3 SUB SWAP1 PUSH1 0xC0 ADD MSTORE PUSH2 0x3E1 SWAP2 PUSH2 0x3B09 JUMP JUMPDEST PUSH2 0x6A0 MLOAD DUP1 DUP3 SUB SWAP1 PUSH1 0xE0 ADD MSTORE PUSH2 0x3F6 SWAP2 PUSH2 0x3B09 JUMP JUMPDEST PUSH2 0x6A0 MLOAD DUP1 DUP3 SUB SWAP1 PUSH2 0x100 ADD MSTORE PUSH2 0x40C SWAP2 PUSH2 0x3B09 JUMP JUMPDEST PUSH2 0x6A0 MLOAD DUP1 DUP3 SUB SWAP1 PUSH2 0x120 ADD MSTORE PUSH2 0x422 SWAP2 PUSH2 0x3B09 JUMP JUMPDEST PUSH2 0x6A0 MLOAD DUP1 DUP3 SUB SWAP1 PUSH2 0x140 ADD MSTORE PUSH2 0x438 SWAP2 PUSH2 0x3B09 JUMP JUMPDEST PUSH2 0x6A0 MLOAD DUP1 DUP3 SUB SWAP1 PUSH2 0x160 ADD MSTORE PUSH2 0x44E SWAP2 PUSH2 0x3B09 JUMP JUMPDEST PUSH2 0x6A0 MLOAD DUP1 DUP3 SUB SWAP1 PUSH2 0x180 ADD MSTORE PUSH2 0x464 SWAP2 PUSH2 0x3B09 JUMP JUMPDEST PUSH2 0x6A0 MLOAD DUP1 DUP3 SUB SWAP1 PUSH2 0x1A0 ADD MSTORE PUSH2 0x47A SWAP2 PUSH2 0x3B09 JUMP JUMPDEST PUSH2 0x6A0 MLOAD DUP1 DUP3 SUB SWAP1 PUSH2 0x1C0 ADD MSTORE PUSH2 0x490 SWAP2 PUSH2 0x3B09 JUMP JUMPDEST PUSH2 0x6A0 MLOAD DUP1 DUP3 SUB SWAP1 PUSH2 0x1E0 ADD MSTORE PUSH2 0x4A6 SWAP2 PUSH2 0x3B09 JUMP JUMPDEST PUSH2 0x6A0 MLOAD DUP1 DUP3 SUB SWAP1 PUSH2 0x200 ADD MSTORE PUSH2 0x400 MLOAD SWAP1 PUSH2 0x4C1 SWAP2 PUSH2 0x3B09 JUMP JUMPDEST PUSH2 0x6A0 MLOAD DUP1 DUP3 SUB SWAP1 PUSH2 0x220 ADD MSTORE PUSH2 0x2E0 MLOAD SWAP1 PUSH2 0x4DC SWAP2 PUSH2 0x3B09 JUMP JUMPDEST PUSH2 0x6A0 MLOAD DUP1 DUP3 SUB SWAP1 PUSH2 0x240 ADD MSTORE PUSH2 0xB40 MLOAD SWAP1 PUSH2 0x4F7 SWAP2 PUSH2 0x3B09 JUMP JUMPDEST PUSH2 0x6A0 MLOAD DUP1 DUP3 SUB SWAP1 PUSH2 0x260 ADD MSTORE PUSH2 0x8C0 MLOAD SWAP1 PUSH2 0x512 SWAP2 PUSH2 0x3B09 JUMP JUMPDEST PUSH2 0x6A0 MLOAD DUP1 DUP3 SUB SWAP1 PUSH2 0x280 ADD MSTORE PUSH2 0x4E0 MLOAD SWAP1 PUSH2 0x52D SWAP2 PUSH2 0x3B09 JUMP JUMPDEST PUSH2 0x6A0 MLOAD DUP1 DUP3 SUB SWAP1 PUSH2 0x2A0 ADD MSTORE PUSH2 0x9C0 MLOAD SWAP1 PUSH2 0x548 SWAP2 PUSH2 0x3B09 JUMP JUMPDEST PUSH2 0x6A0 MLOAD DUP1 DUP3 SUB SWAP1 PUSH2 0x2C0 ADD MSTORE PUSH2 0x560 MLOAD SWAP1 PUSH2 0x563 SWAP2 PUSH2 0x3B09 JUMP JUMPDEST PUSH2 0x6A0 MLOAD DUP1 DUP3 SUB SWAP1 PUSH2 0x2E0 ADD MSTORE PUSH2 0x2C0 MLOAD SWAP1 PUSH2 0x57E SWAP2 PUSH2 0x3B09 JUMP JUMPDEST PUSH2 0x6A0 MLOAD DUP1 DUP3 SUB SWAP1 PUSH2 0x300 ADD MSTORE PUSH2 0x760 MLOAD SWAP1 PUSH2 0x599 SWAP2 PUSH2 0x3B09 JUMP JUMPDEST PUSH2 0x6A0 MLOAD DUP1 DUP3 SUB SWAP1 PUSH2 0x320 ADD MSTORE PUSH2 0x700 MLOAD SWAP1 PUSH2 0x5B4 SWAP2 PUSH2 0x3B09 JUMP JUMPDEST PUSH2 0x6A0 MLOAD DUP1 DUP3 SUB SWAP1 PUSH2 0x340 ADD MSTORE PUSH2 0x2A0 MLOAD SWAP1 PUSH2 0x5CF SWAP2 PUSH2 0x3B09 JUMP JUMPDEST PUSH2 0x6A0 MLOAD DUP1 DUP3 SUB SWAP1 PUSH2 0x360 ADD MSTORE PUSH2 0x5A0 MLOAD SWAP1 PUSH2 0x5EA SWAP2 PUSH2 0x3B09 JUMP JUMPDEST PUSH2 0x6A0 MLOAD DUP1 DUP3 SUB SWAP1 PUSH2 0x380 ADD MSTORE PUSH2 0x920 MLOAD SWAP1 PUSH2 0x605 SWAP2 PUSH2 0x3B09 JUMP JUMPDEST PUSH2 0x6A0 MLOAD DUP1 DUP3 SUB SWAP1 PUSH2 0x3A0 ADD MSTORE PUSH2 0x680 MLOAD SWAP1 PUSH2 0x620 SWAP2 PUSH2 0x3B09 JUMP JUMPDEST PUSH2 0x6A0 MLOAD DUP1 DUP3 SUB SWAP1 PUSH2 0x3C0 ADD MSTORE PUSH2 0x7E0 MLOAD SWAP1 PUSH2 0x63B SWAP2 PUSH2 0x3B09 JUMP JUMPDEST PUSH2 0x6A0 MLOAD DUP1 DUP3 SUB SWAP1 PUSH2 0x3E0 ADD MSTORE PUSH2 0xA80 MLOAD SWAP1 PUSH2 0x656 SWAP2 PUSH2 0x3B09 JUMP JUMPDEST PUSH2 0x6A0 MLOAD DUP1 DUP3 SUB SWAP1 PUSH2 0x400 ADD MSTORE PUSH2 0x6A0 MLOAD SWAP1 PUSH2 0xAE0 MLOAD SWAP1 PUSH2 0x676 SWAP2 PUSH2 0x3B09 JUMP JUMPDEST SUB PUSH2 0x6A0 MLOAD RETURN JUMPDEST PUSH1 0x0 DUP1 REVERT JUMPDEST CALLVALUE PUSH2 0x67D JUMPI PUSH2 0x440 CALLDATASIZE PUSH1 0x3 NOT ADD SLT PUSH2 0x67D JUMPI PUSH1 0x4 CALLDATALOAD PUSH1 0x1 PUSH1 0x1 PUSH1 0x40 SHL SUB DUP2 GT PUSH2 0x67D JUMPI PUSH2 0x6B3 SWAP1 CALLDATASIZE SWAP1 PUSH1 0x4 ADD PUSH2 0x3B2E JUMP JUMPDEST PUSH1 0xC0 MSTORE PUSH2 0x980 MSTORE PUSH1 0x24 CALLDATALOAD PUSH1 0x1 PUSH1 0x1 PUSH1 0x40 SHL SUB DUP2 GT PUSH2 0x67D JUMPI PUSH2 0x6D9 SWAP1 CALLDATASIZE SWAP1 PUSH1 0x4 ADD PUSH2 0x3B2E JUMP JUMPDEST PUSH2 0x940 MSTORE PUSH2 0x160 MSTORE PUSH1 0x44 CALLDATALOAD PUSH1 0x1 PUSH1 0x1 PUSH1 0x40 SHL SUB DUP2 GT PUSH2 0x67D JUMPI PUSH2 0x700 SWAP1 CALLDATASIZE SWAP1 PUSH1 0x4 ADD PUSH2 0x3B2E JUMP JUMPDEST PUSH2 0x9E0 MSTORE PUSH2 0x3E0 MSTORE PUSH1 0x64 CALLDATALOAD PUSH1 0x1 PUSH1 0x1 PUSH1 0x40 SHL SUB DUP2 GT PUSH2 0x67D JUMPI PUSH2 0x727 SWAP1 CALLDATASIZE SWAP1 PUSH1 0x4 ADD PUSH2 0x3B2E JUMP JUMPDEST PUSH2 0x420 MSTORE PUSH2 0xAC0 MSTORE PUSH1 0x1 PUSH1 0x1 PUSH1 0x40 SHL SUB PUSH1 0x84 CALLDATALOAD GT PUSH2 0x67D JUMPI PUSH2 0x74E CALLDATASIZE PUSH1 0x84 CALLDATALOAD PUSH1 0x4 ADD PUSH2 0x3B2E JUMP JUMPDEST PUSH2 0xBE0 MSTORE PUSH2 0x380 MSTORE PUSH1 0x1 PUSH1 0x1 PUSH1 0x40 SHL SUB PUSH1 0xA4 CALLDATALOAD GT PUSH2 0x67D JUMPI PUSH2 0x775 CALLDATASIZE PUSH1 0xA4 CALLDATALOAD PUSH1 0x4 ADD PUSH2 0x3B2E JUMP JUMPDEST PUSH2 0x360 MSTORE PUSH2 0x5E0 MSTORE PUSH1 0x1 PUSH1 0x1 PUSH1 0x40 SHL SUB PUSH1 0xC4 CALLDATALOAD GT PUSH2 0x67D JUMPI PUSH2 0x79C CALLDATASIZE PUSH1 0xC4 CALLDATALOAD PUSH1 0x4 ADD PUSH2 0x3B2E JUMP JUMPDEST PUSH2 0x460 MSTORE PUSH2 0xC00 MSTORE PUSH1 0x1 PUSH1 0x1 PUSH1 0x40 SHL SUB PUSH1 0xE4 CALLDATALOAD GT PUSH2 0x67D JUMPI PUSH2 0x7C3 CALLDATASIZE PUSH1 0xE4 CALLDATALOAD PUSH1 0x4 ADD PUSH2 0x3B2E JUMP JUMPDEST PUSH2 0xB60 MSTORE PUSH2 0x600 MSTORE PUSH1 0x1 PUSH1 0x1 PUSH1 0x40 SHL SUB PUSH2 0x104 CALLDATALOAD GT PUSH2 0x67D JUMPI PUSH2 0x7EC CALLDATASIZE PUSH2 0x104 CALLDATALOAD PUSH1 0x4 ADD PUSH2 0x3B2E JUMP JUMPDEST PUSH2 0x440 MSTORE PUSH2 0x800 MSTORE PUSH1 0x1 PUSH1 0x1 PUSH1 0x40 SHL SUB PUSH2 0x124 CALLDATALOAD GT PUSH2 0x67D JUMPI PUSH2 0x815 CALLDATASIZE PUSH2 0x124 CALLDATALOAD PUSH1 0x4 ADD PUSH2 0x3B2E JUMP JUMPDEST PUSH2 0x960 MSTORE PUSH2 0x580 MSTORE PUSH1 0x1 PUSH1 0x1 PUSH1 0x40 SHL SUB PUSH2 0x144 CALLDATALOAD GT PUSH2 0x67D JUMPI PUSH2 0x83E CALLDATASIZE PUSH2 0x144 CALLDATALOAD PUSH1 0x4 ADD PUSH2 0x3B2E JUMP JUMPDEST PUSH2 0xA40 MSTORE PUSH2 0x5C0 MSTORE PUSH1 0x1 PUSH1 0x1 PUSH1 0x40 SHL SUB PUSH2 0x164 CALLDATALOAD GT PUSH2 0x67D JUMPI PUSH2 0x867 CALLDATASIZE PUSH2 0x164 CALLDATALOAD PUSH1 0x4 ADD PUSH2 0x3B2E JUMP JUMPDEST PUSH1 0xE0 MSTORE PUSH2 0xA60 MSTORE PUSH1 0x1 PUSH1 0x1 PUSH1 0x40 SHL SUB PUSH2 0x184 CALLDATALOAD GT PUSH2 0x67D JUMPI PUSH2 0x88F CALLDATASIZE PUSH2 0x184 CALLDATALOAD PUSH1 0x4 ADD PUSH2 0x3B2E JUMP JUMPDEST PUSH2 0x3A0 MSTORE PUSH2 0x120 MSTORE PUSH1 0x1 PUSH1 0x1 PUSH1 0x40 SHL SUB PUSH2 0x1A4 CALLDATALOAD GT PUSH2 0x67D JUMPI PUSH2 0x8B8 CALLDATASIZE PUSH2 0x1A4 CALLDATALOAD PUSH1 0x4 ADD PUSH2 0x3B2E JUMP JUMPDEST PUSH2 0xB80 MSTORE PUSH2 0x4C0 MSTORE PUSH1 0x1 PUSH1 0x1 PUSH1 0x40 SHL SUB PUSH2 0x1C4 CALLDATALOAD GT PUSH2 0x67D JUMPI PUSH2 0x8E1 CALLDATASIZE PUSH2 0x1C4 CALLDATALOAD PUSH1 0x4 ADD PUSH2 0x3B2E JUMP JUMPDEST PUSH2 0x860 MSTORE PUSH2 0x500 MSTORE PUSH1 0x1 PUSH1 0x1 PUSH1 0x40 SHL SUB PUSH2 0x1E4 CALLDATALOAD GT PUSH2 0x67D JUMPI PUSH2 0x90A CALLDATASIZE PUSH2 0x1E4 CALLDATALOAD PUSH1 0x4 ADD PUSH2 0x3B2E JUMP JUMPDEST PUSH2 0xA00 MSTORE PUSH2 0x660 MSTORE PUSH1 0x1 PUSH1 0x1 PUSH1 0x40 SHL SUB PUSH2 0x204 CALLDATALOAD GT PUSH2 0x67D JUMPI PUSH2 0x933 CALLDATASIZE PUSH2 0x204 CALLDATALOAD PUSH1 0x4 ADD PUSH2 0x3B2E JUMP JUMPDEST PUSH2 0xB20 MSTORE PUSH2 0x520 MSTORE PUSH1 0x1 PUSH1 0x1 PUSH1 0x40 SHL SUB PUSH2 0x224 CALLDATALOAD GT PUSH2 0x67D JUMPI PUSH2 0x95C CALLDATASIZE PUSH2 0x224 CALLDATALOAD PUSH1 0x4 ADD PUSH2 0x3B2E JUMP JUMPDEST PUSH2 0x740 MSTORE PUSH2 0x220 MSTORE PUSH1 0x1 PUSH1 0x1 PUSH1 0x40 SHL SUB PUSH2 0x244 CALLDATALOAD GT PUSH2 0x67D JUMPI PUSH2 0x985 CALLDATASIZE PUSH2 0x244 CALLDATALOAD PUSH1 0x4 ADD PUSH2 0x3B2E JUMP JUMPDEST PUSH2 0x200 MSTORE PUSH2 0x320 MSTORE PUSH1 0x1 PUSH1 0x1 PUSH1 0x40 SHL SUB PUSH2 0x264 CALLDATALOAD GT PUSH2 0x67D JUMPI PUSH2 0x9AE CALLDATASIZE PUSH2 0x264 CALLDATALOAD PUSH1 0x4 ADD PUSH2 0x3B2E JUMP JUMPDEST PUSH2 0x8E0 MSTORE PUSH2 0xC20 MSTORE PUSH1 0x1 PUSH1 0x1 PUSH1 0x40 SHL SUB PUSH2 0x284 CALLDATALOAD GT PUSH2 0x67D JUMPI PUSH2 0x9D7 CALLDATASIZE PUSH2 0x284 CALLDATALOAD PUSH1 0x4 ADD PUSH2 0x3B2E JUMP JUMPDEST PUSH2 0x880 MSTORE PUSH1 0x80 MSTORE PUSH1 0x1 PUSH1 0x1 PUSH1 0x40 SHL SUB PUSH2 0x2A4 CALLDATALOAD GT PUSH2 0x67D JUMPI PUSH2 0x9FF CALLDATASIZE PUSH2 0x2A4 CALLDATALOAD PUSH1 0x4 ADD PUSH2 0x3B2E JUMP JUMPDEST PUSH2 0x4A0 MSTORE PUSH2 0x840 MSTORE PUSH1 0x1 PUSH1 0x1 PUSH1 0x40 SHL SUB PUSH2 0x2C4 CALLDATALOAD GT PUSH2 0x67D JUMPI PUSH2 0xA28 CALLDATASIZE PUSH2 0x2C4 CALLDATALOAD PUSH1 0x4 ADD PUSH2 0x3B2E JUMP JUMPDEST PUSH2 0x540 MSTORE PUSH2 0xBC0 MSTORE PUSH1 0x1 PUSH1 0x1 PUSH1 0x40 SHL SUB PUSH2 0x2E4 CALLDATALOAD GT PUSH2 0x67D JUMPI PUSH2 0xA51 CALLDATASIZE PUSH2 0x2E4 CALLDATALOAD PUSH1 0x4 ADD PUSH2 0x3B2E JUMP JUMPDEST PUSH2 0x820 MSTORE PUSH2 0x640 MSTORE PUSH1 0x1 PUSH1 0x1 PUSH1 0x40 SHL SUB PUSH2 0x304 CALLDATALOAD GT PUSH2 0x67D JUMPI PUSH2 0xA7A CALLDATASIZE PUSH2 0x304 CALLDATALOAD PUSH1 0x4 ADD PUSH2 0x3B2E JUMP JUMPDEST PUSH2 0x1E0 MSTORE PUSH2 0x100 MSTORE PUSH1 0x1 PUSH1 0x1 PUSH1 0x40 SHL SUB PUSH2 0x324 CALLDATALOAD GT PUSH2 0x67D JUMPI PUSH2 0xAA3 CALLDATASIZE PUSH2 0x324 CALLDATALOAD PUSH1 0x4 ADD PUSH2 0x3B2E JUMP JUMPDEST PUSH2 0x300 MSTORE PUSH2 0x1A0 MSTORE PUSH1 0x1 PUSH1 0x1 PUSH1 0x40 SHL SUB PUSH2 0x344 CALLDATALOAD GT PUSH2 0x67D JUMPI PUSH2 0xACC CALLDATASIZE PUSH2 0x344 CALLDATALOAD PUSH1 0x4 ADD PUSH2 0x3B2E JUMP JUMPDEST PUSH2 0x480 MSTORE PUSH2 0xB00 MSTORE PUSH1 0x1 PUSH1 0x1 PUSH1 0x40 SHL SUB PUSH2 0x364 CALLDATALOAD GT PUSH2 0x67D JUMPI PUSH2 0xAF5 CALLDATASIZE PUSH2 0x364 CALLDATALOAD PUSH1 0x4 ADD PUSH2 0x3B2E JUMP JUMPDEST PUSH2 0x340 MSTORE PUSH2 0x8A0 MSTORE PUSH1 0x1 PUSH1 0x1 PUSH1 0x40 SHL SUB PUSH2 0x384 CALLDATALOAD GT PUSH2 0x67D JUMPI PUSH2 0xB1E CALLDATASIZE PUSH2 0x384 CALLDATALOAD PUSH1 0x4 ADD PUSH2 0x3B2E JUMP JUMPDEST PUSH2 0xBA0 MSTORE PUSH2 0x140 MSTORE PUSH1 0x1 PUSH1 0x1 PUSH1 0x40 SHL SUB PUSH2 0x3A4 CALLDATALOAD GT PUSH2 0x67D JUMPI PUSH2 0xB47 CALLDATASIZE PUSH2 0x3A4 CALLDATALOAD PUSH1 0x4 ADD PUSH2 0x3B2E JUMP JUMPDEST PUSH2 0x3C0 MSTORE PUSH2 0x900 MSTORE PUSH1 0x1 PUSH1 0x1 PUSH1 0x40 SHL SUB PUSH2 0x3C4 CALLDATALOAD GT PUSH2 0x67D JUMPI PUSH2 0xB70 CALLDATASIZE PUSH2 0x3C4 CALLDATALOAD PUSH1 0x4 ADD PUSH2 0x3B2E JUMP JUMPDEST PUSH2 0x280 MSTORE PUSH2 0x7A0 MSTORE PUSH1 0x1 PUSH1 0x1 PUSH1 0x40 SHL SUB PUSH2 0x3E4 CALLDATALOAD GT PUSH2 0x67D JUMPI PUSH2 0xB99 CALLDATASIZE PUSH2 0x3E4 CALLDATALOAD PUSH1 0x4 ADD PUSH2 0x3B2E JUMP JUMPDEST PUSH2 0x240 MSTORE PUSH2 0x620 MSTORE PUSH1 0x1 PUSH1 0x1 PUSH1 0x40 SHL SUB PUSH2 0x404 CALLDATALOAD GT PUSH2 0x67D JUMPI PUSH2 0xBC2 CALLDATASIZE PUSH2 0x404 CALLDATALOAD PUSH1 0x4 ADD PUSH2 0x3B2E JUMP JUMPDEST PUSH2 0xA20 MSTORE PUSH2 0x260 MSTORE PUSH1 0x1 PUSH1 0x1 PUSH1 0x40 SHL SUB PUSH2 0x424 CALLDATALOAD GT PUSH2 0x67D JUMPI PUSH2 0xBEB CALLDATASIZE PUSH2 0x424 CALLDATALOAD PUSH1 0x4 ADD PUSH2 0x3B2E JUMP JUMPDEST PUSH2 0x780 MSTORE PUSH2 0x720 MSTORE PUSH1 0x0 SLOAD PUSH1 0x1 PUSH1 0x1 PUSH1 0xA0 SHL SUB AND CALLER SUB PUSH2 0x313F JUMPI PUSH2 0xC14 PUSH1 0x40 MLOAD DUP1 PUSH1 0xA0 MSTORE PUSH2 0x3A03 JUMP JUMPDEST PUSH2 0xC25 CALLDATASIZE PUSH2 0x940 MLOAD PUSH2 0x160 MLOAD PUSH2 0x3B5B JUMP JUMPDEST PUSH1 0xA0 MLOAD MSTORE PUSH2 0xC3A CALLDATASIZE PUSH2 0x9E0 MLOAD PUSH2 0x3E0 MLOAD PUSH2 0x3B5B JUMP JUMPDEST PUSH1 0x20 PUSH1 0xA0 MLOAD ADD MSTORE PUSH2 0xC52 CALLDATASIZE PUSH2 0x420 MLOAD PUSH2 0xAC0 MLOAD PUSH2 0x3B5B JUMP JUMPDEST PUSH1 0x40 PUSH1 0xA0 MLOAD ADD MSTORE PUSH2 0xC6A CALLDATASIZE PUSH2 0xBE0 MLOAD PUSH2 0x380 MLOAD PUSH2 0x3B5B JUMP JUMPDEST PUSH1 0x60 PUSH1 0xA0 MLOAD ADD MSTORE PUSH2 0xC82 CALLDATASIZE PUSH2 0x360 MLOAD PUSH2 0x5E0 MLOAD PUSH2 0x3B5B JUMP JUMPDEST PUSH1 0x80 PUSH1 0xA0 MLOAD ADD MSTORE PUSH2 0xC9A CALLDATASIZE PUSH2 0x460 MLOAD PUSH2 0xC00 MLOAD PUSH2 0x3B5B JUMP JUMPDEST PUSH1 0xA0 DUP1 MLOAD ADD MSTORE PUSH2 0xCB1 CALLDATASIZE PUSH2 0xB60 MLOAD PUSH2 0x600 MLOAD PUSH2 0x3B5B JUMP JUMPDEST PUSH1 0xC0 PUSH1 0xA0 MLOAD ADD MSTORE PUSH2 0xCC9 CALLDATASIZE PUSH2 0x440 MLOAD PUSH2 0x800 MLOAD PUSH2 0x3B5B JUMP JUMPDEST PUSH1 0xE0 PUSH1 0xA0 MLOAD ADD MSTORE PUSH2 0xCE1 CALLDATASIZE PUSH2 0x960 MLOAD PUSH2 0x580 MLOAD PUSH2 0x3B5B JUMP JUMPDEST PUSH2 0x100 PUSH1 0xA0 MLOAD ADD MSTORE PUSH2 0xCFA CALLDATASIZE PUSH2 0xA40 MLOAD PUSH2 0x5C0 MLOAD PUSH2 0x3B5B JUMP JUMPDEST PUSH2 0x120 PUSH1 0xA0 MLOAD ADD MSTORE PUSH2 0xD12 CALLDATASIZE PUSH1 0xE0 MLOAD PUSH2 0xA60 MLOAD PUSH2 0x3B5B JUMP JUMPDEST PUSH2 0x140 PUSH1 0xA0 MLOAD ADD MSTORE PUSH2 0xD2B CALLDATASIZE PUSH2 0x3A0 MLOAD PUSH2 0x120 MLOAD PUSH2 0x3B5B JUMP JUMPDEST PUSH2 0x160 PUSH1 0xA0 MLOAD ADD MSTORE PUSH2 0xD44 CALLDATASIZE PUSH2 0xB80 MLOAD PUSH2 0x4C0 MLOAD PUSH2 0x3B5B JUMP JUMPDEST PUSH2 0x180 PUSH1 0xA0 MLOAD ADD MSTORE PUSH2 0xD5D CALLDATASIZE PUSH2 0x860 MLOAD PUSH2 0x500 MLOAD PUSH2 0x3B5B JUMP JUMPDEST PUSH2 0x1A0 PUSH1 0xA0 MLOAD ADD MSTORE PUSH2 0xD76 CALLDATASIZE PUSH2 0xA00 MLOAD PUSH2 0x660 MLOAD PUSH2 0x3B5B JUMP JUMPDEST PUSH2 0x1C0 PUSH1 0xA0 MLOAD ADD MSTORE PUSH2 0xD8F CALLDATASIZE PUSH2 0xB20 MLOAD PUSH2 0x520 MLOAD PUSH2 0x3B5B JUMP JUMPDEST PUSH2 0x1E0 PUSH1 0xA0 MLOAD ADD MSTORE PUSH2 0xDA8 CALLDATASIZE PUSH2 0x740 MLOAD PUSH2 0x220 MLOAD PUSH2 0x3B5B JUMP JUMPDEST PUSH2 0x200 PUSH1 0xA0 MLOAD ADD MSTORE PUSH2 0xDC1 CALLDATASIZE PUSH2 0x200 MLOAD PUSH2 0x320 MLOAD PUSH2 0x3B5B JUMP JUMPDEST PUSH2 0x220 PUSH1 0xA0 MLOAD ADD MSTORE PUSH2 0xDDA CALLDATASIZE PUSH2 0x8E0 MLOAD PUSH2 0xC20 MLOAD PUSH2 0x3B5B JUMP JUMPDEST PUSH2 0x240 PUSH1 0xA0 MLOAD ADD MSTORE PUSH2 0xDF2 CALLDATASIZE PUSH2 0x880 MLOAD PUSH1 0x80 MLOAD PUSH2 0x3B5B JUMP JUMPDEST PUSH2 0x260 PUSH1 0xA0 MLOAD ADD MSTORE PUSH2 0xE0B CALLDATASIZE PUSH2 0x4A0 MLOAD PUSH2 0x840 MLOAD PUSH2 0x3B5B JUMP JUMPDEST PUSH2 0x280 PUSH1 0xA0 MLOAD ADD MSTORE PUSH2 0xE24 CALLDATASIZE PUSH2 0x540 MLOAD PUSH2 0xBC0 MLOAD PUSH2 0x3B5B JUMP JUMPDEST PUSH2 0x2A0 PUSH1 0xA0 MLOAD ADD MSTORE PUSH2 0xE3D CALLDATASIZE PUSH2 0x820 MLOAD PUSH2 0x640 MLOAD PUSH2 0x3B5B JUMP JUMPDEST PUSH2 0x2C0 PUSH1 0xA0 MLOAD ADD MSTORE PUSH2 0xE56 CALLDATASIZE PUSH2 0x1E0 MLOAD PUSH2 0x100 MLOAD PUSH2 0x3B5B JUMP JUMPDEST PUSH2 0x2E0 PUSH1 0xA0 MLOAD ADD MSTORE PUSH2 0xE6F CALLDATASIZE PUSH2 0x300 MLOAD PUSH2 0x1A0 MLOAD PUSH2 0x3B5B JUMP JUMPDEST PUSH2 0x300 PUSH1 0xA0 MLOAD ADD MSTORE PUSH2 0xE88 CALLDATASIZE PUSH2 0x480 MLOAD PUSH2 0xB00 MLOAD PUSH2 0x3B5B JUMP JUMPDEST PUSH2 0x320 PUSH1 0xA0 MLOAD ADD MSTORE PUSH2 0xEA1 CALLDATASIZE PUSH2 0x340 MLOAD PUSH2 0x8A0 MLOAD PUSH2 0x3B5B JUMP JUMPDEST PUSH2 0x340 PUSH1 0xA0 MLOAD ADD MSTORE PUSH2 0xEBA CALLDATASIZE PUSH2 0xBA0 MLOAD PUSH2 0x140 MLOAD PUSH2 0x3B5B JUMP JUMPDEST PUSH2 0x360 PUSH1 0xA0 MLOAD ADD MSTORE PUSH2 0xED3 CALLDATASIZE PUSH2 0x3C0 MLOAD PUSH2 0x900 MLOAD PUSH2 0x3B5B JUMP JUMPDEST PUSH2 0x380 PUSH1 0xA0 MLOAD ADD MSTORE PUSH2 0xEEC CALLDATASIZE PUSH2 0x280 MLOAD PUSH2 0x7A0 MLOAD PUSH2 0x3B5B JUMP JUMPDEST PUSH2 0x3A0 PUSH1 0xA0 MLOAD ADD MSTORE PUSH2 0xF05 CALLDATASIZE PUSH2 0x240 MLOAD PUSH2 0x620 MLOAD PUSH2 0x3B5B JUMP JUMPDEST PUSH2 0x3C0 PUSH1 0xA0 MLOAD ADD MSTORE PUSH2 0xF1E CALLDATASIZE PUSH2 0xA20 MLOAD PUSH2 0x260 MLOAD PUSH2 0x3B5B JUMP JUMPDEST PUSH2 0x3E0 PUSH1 0xA0 MLOAD ADD MSTORE PUSH2 0xF37 CALLDATASIZE PUSH2 0x780 MLOAD PUSH2 0x720 MLOAD PUSH2 0x3B5B JUMP JUMPDEST PUSH2 0x400 PUSH1 0xA0 MLOAD ADD MSTORE PUSH1 0x40 MLOAD PUSH1 0xC0 MLOAD PUSH2 0x980 MLOAD DUP3 CALLDATACOPY PUSH1 0x1 PUSH1 0xC0 MLOAD DUP3 ADD MSTORE PUSH1 0x20 DUP2 PUSH1 0xC0 MLOAD DUP2 ADD SUB ADD SWAP1 KECCAK256 PUSH1 0xA0 MLOAD MLOAD DUP1 MLOAD SWAP1 PUSH1 0x1 PUSH1 0x1 PUSH1 0x40 SHL SUB DUP3 GT PUSH2 0x2109 JUMPI DUP2 SWAP1 PUSH2 0xF8A DUP3 PUSH2 0xF84 DUP7 SLOAD PUSH2 0x39C9 JUMP JUMPDEST DUP7 PUSH2 0x3BA1 JUMP JUMPDEST PUSH1 0x20 SWAP1 PUSH1 0x1F DUP4 GT PUSH1 0x1 EQ PUSH2 0x30D3 JUMPI PUSH1 0x0 SWAP3 PUSH2 0x30C8 JUMPI JUMPDEST POP POP DUP2 PUSH1 0x1 SHL SWAP2 PUSH1 0x0 NOT SWAP1 PUSH1 0x3 SHL SHR NOT AND OR DUP2 SSTORE JUMPDEST PUSH1 0x20 PUSH1 0xA0 MLOAD ADD MLOAD DUP1 MLOAD SWAP1 PUSH1 0x1 PUSH1 0x1 PUSH1 0x40 SHL SUB DUP3 GT PUSH2 0x2109 JUMPI DUP2 SWAP1 PUSH2 0xFE9 DUP3 PUSH2 0xFE0 PUSH1 0x1 DUP8 ADD SLOAD PUSH2 0x39C9 JUMP JUMPDEST PUSH1 0x1 DUP8 ADD PUSH2 0x3BA1 JUMP JUMPDEST PUSH1 0x20 SWAP1 PUSH1 0x1F DUP4 GT PUSH1 0x1 EQ PUSH2 0x3056 JUMPI PUSH1 0x0 SWAP3 PUSH2 0x304B JUMPI JUMPDEST POP POP DUP2 PUSH1 0x1 SHL SWAP2 PUSH1 0x0 NOT SWAP1 PUSH1 0x3 SHL SHR NOT AND OR PUSH1 0x1 DUP3 ADD SSTORE JUMPDEST PUSH1 0x40 PUSH1 0xA0 MLOAD ADD MLOAD DUP1 MLOAD SWAP1 PUSH1 0x1 PUSH1 0x1 PUSH1 0x40 SHL SUB DUP3 GT PUSH2 0x2109 JUMPI DUP2 SWAP1 PUSH2 0x104B DUP3 PUSH2 0x1042 PUSH1 0x2 DUP8 ADD SLOAD PUSH2 0x39C9 JUMP JUMPDEST PUSH1 0x2 DUP8 ADD PUSH2 0x3BA1 JUMP JUMPDEST PUSH1 0x20 SWAP1 PUSH1 0x1F DUP4 GT PUSH1 0x1 EQ PUSH2 0x2FD9 JUMPI PUSH1 0x0 SWAP3 PUSH2 0x2FCE JUMPI JUMPDEST POP POP DUP2 PUSH1 0x1 SHL SWAP2 PUSH1 0x0 NOT SWAP1 PUSH1 0x3 SHL SHR NOT AND OR PUSH1 0x2 DUP3 ADD SSTORE JUMPDEST PUSH1 0x60 PUSH1 0xA0 MLOAD ADD MLOAD DUP1 MLOAD SWAP1 PUSH1 0x1 PUSH1 0x1 PUSH1 0x40 SHL SUB DUP3 GT PUSH2 0x2109 JUMPI DUP2 SWAP1 PUSH2 0x10AD DUP3 PUSH2 0x10A4 PUSH1 0x3 DUP8 ADD SLOAD PUSH2 0x39C9 JUMP JUMPDEST PUSH1 0x3 DUP8 ADD PUSH2 0x3BA1 JUMP JUMPDEST PUSH1 0x20 SWAP1 PUSH1 0x1F DUP4 GT PUSH1 0x1 EQ PUSH2 0x2F5C JUMPI PUSH1 0x0 SWAP3 PUSH2 0x2F51 JUMPI JUMPDEST POP POP DUP2 PUSH1 0x1 SHL SWAP2 PUSH1 0x0 NOT SWAP1 PUSH1 0x3 SHL SHR NOT AND OR PUSH1 0x3 DUP3 ADD SSTORE JUMPDEST PUSH1 0x80 PUSH1 0xA0 MLOAD ADD MLOAD DUP1 MLOAD SWAP1 PUSH1 0x1 PUSH1 0x1 PUSH1 0x40 SHL SUB DUP3 GT PUSH2 0x2109 JUMPI DUP2 SWAP1 PUSH2 0x110F DUP3 PUSH2 0x1106 PUSH1 0x4 DUP8 ADD SLOAD PUSH2 0x39C9 JUMP JUMPDEST PUSH1 0x4 DUP8 ADD PUSH2 0x3BA1 JUMP JUMPDEST PUSH1 0x20 SWAP1 PUSH1 0x1F DUP4 GT PUSH1 0x1 EQ PUSH2 0x2EDF JUMPI PUSH1 0x0 SWAP3 PUSH2 0x2ED4 JUMPI JUMPDEST POP POP DUP2 PUSH1 0x1 SHL SWAP2 PUSH1 0x0 NOT SWAP1 PUSH1 0x3 SHL SHR NOT AND OR PUSH1 0x4 DUP3 ADD SSTORE JUMPDEST PUSH1 0xA0 DUP1 MLOAD ADD MLOAD DUP1 MLOAD SWAP1 PUSH1 0x1 PUSH1 0x1 PUSH1 0x40 SHL SUB DUP3 GT PUSH2 0x2109 JUMPI DUP2 SWAP1 PUSH2 0x1170 DUP3 PUSH2 0x1167 PUSH1 0x5 DUP8 ADD SLOAD PUSH2 0x39C9 JUMP JUMPDEST PUSH1 0x5 DUP8 ADD PUSH2 0x3BA1 JUMP JUMPDEST PUSH1 0x20 SWAP1 PUSH1 0x1F DUP4 GT PUSH1 0x1 EQ PUSH2 0x2E62 JUMPI PUSH1 0x0 SWAP3 PUSH2 0x2E57 JUMPI JUMPDEST POP POP DUP2 PUSH1 0x1 SHL SWAP2 PUSH1 0x0 NOT SWAP1 PUSH1 0x3 SHL SHR NOT AND OR PUSH1 0x5 DUP3 ADD SSTORE JUMPDEST PUSH1 0xC0 PUSH1 0xA0 MLOAD ADD MLOAD DUP1 MLOAD SWAP1 PUSH1 0x1 PUSH1 0x1 PUSH1 0x40 SHL SUB DUP3 GT PUSH2 0x2109 JUMPI DUP2 SWAP1 PUSH2 0x11D2 DUP3 PUSH2 0x11C9 PUSH1 0x6 DUP8 ADD SLOAD PUSH2 0x39C9 JUMP JUMPDEST PUSH1 0x6 DUP8 ADD PUSH2 0x3BA1 JUMP JUMPDEST PUSH1 0x20 SWAP1 PUSH1 0x1F DUP4 GT PUSH1 0x1 EQ PUSH2 0x2DE5 JUMPI PUSH1 0x0 SWAP3 PUSH2 0x2DDA JUMPI JUMPDEST POP POP DUP2 PUSH1 0x1 SHL SWAP2 PUSH1 0x0 NOT SWAP1 PUSH1 0x3 SHL SHR NOT AND OR PUSH1 0x6 DUP3 ADD SSTORE JUMPDEST PUSH1 0xE0 PUSH1 0xA0 MLOAD ADD MLOAD DUP1 MLOAD SWAP1 PUSH1 0x1 PUSH1 0x1 PUSH1 0x40 SHL SUB DUP3 GT PUSH2 0x2109 JUMPI DUP2 SWAP1 PUSH2 0x1234 DUP3 PUSH2 0x122B PUSH1 0x7 DUP8 ADD SLOAD PUSH2 0x39C9 JUMP JUMPDEST PUSH1 0x7 DUP8 ADD PUSH2 0x3BA1 JUMP JUMPDEST PUSH1 0x20 SWAP1 PUSH1 0x1F DUP4 GT PUSH1 0x1 EQ PUSH2 0x2D68 JUMPI PUSH1 0x0 SWAP3 PUSH2 0x2D5D JUMPI JUMPDEST POP POP DUP2 PUSH1 0x1 SHL SWAP2 PUSH1 0x0 NOT SWAP1 PUSH1 0x3 SHL SHR NOT AND OR PUSH1 0x7 DUP3 ADD SSTORE JUMPDEST PUSH2 0x100 PUSH1 0xA0 MLOAD ADD MLOAD DUP1 MLOAD SWAP1 PUSH1 0x1 PUSH1 0x1 PUSH1 0x40 SHL SUB DUP3 GT PUSH2 0x2109 JUMPI DUP2 SWAP1 PUSH2 0x1297 DUP3 PUSH2 0x128E PUSH1 0x8 DUP8 ADD SLOAD PUSH2 0x39C9 JUMP JUMPDEST PUSH1 0x8 DUP8 ADD PUSH2 0x3BA1 JUMP JUMPDEST PUSH1 0x20 SWAP1 PUSH1 0x1F DUP4 GT PUSH1 0x1 EQ PUSH2 0x2CEB JUMPI PUSH1 0x0 SWAP3 PUSH2 0x2CE0 JUMPI JUMPDEST POP POP DUP2 PUSH1 0x1 SHL SWAP2 PUSH1 0x0 NOT SWAP1 PUSH1 0x3 SHL SHR NOT AND OR PUSH1 0x8 DUP3 ADD SSTORE JUMPDEST PUSH2 0x120 PUSH1 0xA0 MLOAD ADD MLOAD DUP1 MLOAD SWAP1 PUSH1 0x1 PUSH1 0x1 PUSH1 0x40 SHL SUB DUP3 GT PUSH2 0x2109 JUMPI DUP2 SWAP1 PUSH2 0x12FA DUP3 PUSH2 0x12F1 PUSH1 0x9 DUP8 ADD SLOAD PUSH2 0x39C9 JUMP JUMPDEST PUSH1 0x9 DUP8 ADD PUSH2 0x3BA1 JUMP JUMPDEST PUSH1 0x20 SWAP1 PUSH1 0x1F DUP4 GT PUSH1 0x1 EQ PUSH2 0x2C6E JUMPI PUSH1 0x0 SWAP3 PUSH2 0x2C63 JUMPI JUMPDEST POP POP DUP2 PUSH1 0x1 SHL SWAP2 PUSH1 0x0 NOT SWAP1 PUSH1 0x3 SHL SHR NOT AND OR PUSH1 0x9 DUP3 ADD SSTORE JUMPDEST PUSH2 0x140 PUSH1 0xA0 MLOAD ADD MLOAD DUP1 MLOAD SWAP1 PUSH1 0x1 PUSH1 0x1 PUSH1 0x40 SHL SUB DUP3 GT PUSH2 0x2109 JUMPI DUP2 SWAP1 PUSH2 0x135D DUP3 PUSH2 0x1354 PUSH1 0xA DUP8 ADD SLOAD PUSH2 0x39C9 JUMP JUMPDEST PUSH1 0xA DUP8 ADD PUSH2 0x3BA1 JUMP JUMPDEST PUSH1 0x20 SWAP1 PUSH1 0x1F DUP4 GT PUSH1 0x1 EQ PUSH2 0x2BF1 JUMPI PUSH1 0x0 SWAP3 PUSH2 0x2BE6 JUMPI JUMPDEST POP POP DUP2 PUSH1 0x1 SHL SWAP2 PUSH1 0x0 NOT SWAP1 PUSH1 0x3 SHL SHR NOT AND OR PUSH1 0xA DUP3 ADD SSTORE JUMPDEST PUSH2 0x160 PUSH1 0xA0 MLOAD ADD MLOAD DUP1 MLOAD SWAP1 PUSH1 0x1 PUSH1 0x1 PUSH1 0x40 SHL SUB DUP3 GT PUSH2 0x2109 JUMPI DUP2 SWAP1 PUSH2 0x13C0 DUP3 PUSH2 0x13B7 PUSH1 0xB DUP8 ADD SLOAD PUSH2 0x39C9 JUMP JUMPDEST PUSH1 0xB DUP8 ADD PUSH2 0x3BA1 JUMP JUMPDEST PUSH1 0x20 SWAP1 PUSH1 0x1F DUP4 GT PUSH1 0x1 EQ PUSH2 0x2B74 JUMPI PUSH1 0x0 SWAP3 PUSH2 0x2B69 JUMPI JUMPDEST POP POP DUP2 PUSH1 0x1 SHL SWAP2 PUSH1 0x0 NOT SWAP1 PUSH1 0x3 SHL SHR NOT AND OR PUSH1 0xB DUP3 ADD SSTORE JUMPDEST PUSH2 0x180 PUSH1 0xA0 MLOAD ADD MLOAD DUP1 MLOAD SWAP1 PUSH1 0x1 PUSH1 0x1 PUSH1 0x40 SHL SUB DUP3 GT PUSH2 0x2109 JUMPI DUP2 SWAP1 PUSH2 0x1423 DUP3 PUSH2 0x141A PUSH1 0xC DUP8 ADD SLOAD PUSH2 0x39C9 JUMP JUMPDEST PUSH1 0xC DUP8 ADD PUSH2 0x3BA1 JUMP JUMPDEST PUSH1 0x20 SWAP1 PUSH1 0x1F DUP4 GT PUSH1 0x1 EQ PUSH2 0x2AF7 JUMPI PUSH1 0x0 SWAP3 PUSH2 0x2AEC JUMPI JUMPDEST POP POP DUP2 PUSH1 0x1 SHL SWAP2 PUSH1 0x0 NOT SWAP1 PUSH1 0x3 SHL SHR NOT AND OR PUSH1 0xC DUP3 ADD SSTORE JUMPDEST PUSH2 0x1A0 PUSH1 0xA0 MLOAD ADD MLOAD DUP1 MLOAD SWAP1 PUSH1 0x1 PUSH1 0x1 PUSH1 0x40 SHL SUB DUP3 GT PUSH2 0x2109 JUMPI DUP2 SWAP1 PUSH2 0x1486 DUP3 PUSH2 0x147D PUSH1 0xD DUP8 ADD SLOAD PUSH2 0x39C9 JUMP JUMPDEST PUSH1 0xD DUP8 ADD PUSH2 0x3BA1 JUMP JUMPDEST PUSH1 0x20 SWAP1 PUSH1 0x1F DUP4 GT PUSH1 0x1 EQ PUSH2 0x2A7A JUMPI PUSH1 0x0 SWAP3 PUSH2 0x2A6F JUMPI JUMPDEST POP POP DUP2 PUSH1 0x1 SHL SWAP2 PUSH1 0x0 NOT SWAP1 PUSH1 0x3 SHL SHR NOT AND OR PUSH1 0xD DUP3 ADD SSTORE JUMPDEST PUSH2 0x1C0 PUSH1 0xA0 MLOAD ADD MLOAD DUP1 MLOAD SWAP1 PUSH1 0x1 PUSH1 0x1 PUSH1 0x40 SHL SUB DUP3 GT PUSH2 0x2109 JUMPI DUP2 SWAP1 PUSH2 0x14E9 DUP3 PUSH2 0x14E0 PUSH1 0xE DUP8 ADD SLOAD PUSH2 0x39C9 JUMP JUMPDEST PUSH1 0xE DUP8 ADD PUSH2 0x3BA1 JUMP JUMPDEST PUSH1 0x20 SWAP1 PUSH1 0x1F DUP4 GT PUSH1 0x1 EQ PUSH2 0x29FD JUMPI PUSH1 0x0 SWAP3 PUSH2 0x29F2 JUMPI JUMPDEST POP POP DUP2 PUSH1 0x1 SHL SWAP2 PUSH1 0x0 NOT SWAP1 PUSH1 0x3 SHL SHR NOT AND OR PUSH1 0xE DUP3 ADD SSTORE JUMPDEST PUSH2 0x1E0 PUSH1 0xA0 MLOAD ADD MLOAD DUP1 MLOAD SWAP1 PUSH1 0x1 PUSH1 0x1 PUSH1 0x40 SHL SUB DUP3 GT PUSH2 0x2109 JUMPI DUP2 SWAP1 PUSH2 0x154C DUP3 PUSH2 0x1543 PUSH1 0xF DUP8 ADD SLOAD PUSH2 0x39C9 JUMP JUMPDEST PUSH1 0xF DUP8 ADD PUSH2 0x3BA1 JUMP JUMPDEST PUSH1 0x20 SWAP1 PUSH1 0x1F DUP4 GT PUSH1 0x1 EQ PUSH2 0x2980 JUMPI PUSH1 0x0 SWAP3 PUSH2 0x2975 JUMPI JUMPDEST POP POP DUP2 PUSH1 0x1 SHL SWAP2 PUSH1 0x0 NOT SWAP1 PUSH1 0x3 SHL SHR NOT AND OR PUSH1 0xF DUP3 ADD SSTORE JUMPDEST PUSH2 0x200 PUSH1 0xA0 MLOAD ADD MLOAD DUP1 MLOAD SWAP1 PUSH1 0x1 PUSH1 0x1 PUSH1 0x40 SHL SUB DUP3 GT PUSH2 0x2109 JUMPI DUP2 SWAP1 PUSH2 0x15AF DUP3 PUSH2 0x15A6 PUSH1 0x10 DUP8 ADD SLOAD PUSH2 0x39C9 JUMP JUMPDEST PUSH1 0x10 DUP8 ADD PUSH2 0x3BA1 JUMP JUMPDEST PUSH1 0x20 SWAP1 PUSH1 0x1F DUP4 GT PUSH1 0x1 EQ PUSH2 0x2903 JUMPI PUSH1 0x0 SWAP3 PUSH2 0x28F8 JUMPI JUMPDEST POP POP DUP2 PUSH1 0x1 SHL SWAP2 PUSH1 0x0 NOT SWAP1 PUSH1 0x3 SHL SHR NOT AND OR PUSH1 0x10 DUP3 ADD SSTORE JUMPDEST PUSH2 0x220 PUSH1 0xA0 MLOAD ADD MLOAD DUP1 MLOAD SWAP1 PUSH1 0x1 PUSH1 0x1 PUSH1 0x40 SHL SUB DUP3 GT PUSH2 0x2109 JUMPI DUP2 SWAP1 PUSH2 0x1612 DUP3 PUSH2 0x1609 PUSH1 0x11 DUP8 ADD SLOAD PUSH2 0x39C9 JUMP JUMPDEST PUSH1 0x11 DUP8 ADD PUSH2 0x3BA1 JUMP JUMPDEST PUSH1 0x20 SWAP1 PUSH1 0x1F DUP4 GT PUSH1 0x1 EQ PUSH2 0x2886 JUMPI PUSH1 0x0 SWAP3 PUSH2 0x287B JUMPI JUMPDEST POP POP DUP2 PUSH1 0x1 SHL SWAP2 PUSH1 0x0 NOT SWAP1 PUSH1 0x3 SHL SHR NOT AND OR PUSH1 0x11 DUP3 ADD SSTORE JUMPDEST PUSH2 0x240 PUSH1 0xA0 MLOAD ADD MLOAD DUP1 MLOAD SWAP1 PUSH1 0x1 PUSH1 0x1 PUSH1 0x40 SHL SUB DUP3 GT PUSH2 0x2109 JUMPI DUP2 SWAP1 PUSH2 0x1675 DUP3 PUSH2 0x166C PUSH1 0x12 DUP8 ADD SLOAD PUSH2 0x39C9 JUMP JUMPDEST PUSH1 0x12 DUP8 ADD PUSH2 0x3BA1 JUMP JUMPDEST PUSH1 0x20 SWAP1 PUSH1 0x1F DUP4 GT PUSH1 0x1 EQ PUSH2 0x2809 JUMPI PUSH1 0x0 SWAP3 PUSH2 0x27FE JUMPI JUMPDEST POP POP DUP2 PUSH1 0x1 SHL SWAP2 PUSH1 0x0 NOT SWAP1 PUSH1 0x3 SHL SHR NOT AND OR PUSH1 0x12 DUP3 ADD SSTORE JUMPDEST PUSH2 0x260 PUSH1 0xA0 MLOAD ADD MLOAD DUP1 MLOAD SWAP1 PUSH1 0x1 PUSH1 0x1 PUSH1 0x40 SHL SUB DUP3 GT PUSH2 0x2109 JUMPI DUP2 SWAP1 PUSH2 0x16D8 DUP3 PUSH2 0x16CF PUSH1 0x13 DUP8 ADD SLOAD PUSH2 0x39C9 JUMP JUMPDEST PUSH1 0x13 DUP8 ADD PUSH2 0x3BA1 JUMP JUMPDEST PUSH1 0x20 SWAP1 PUSH1 0x1F DUP4 GT PUSH1 0x1 EQ PUSH2 0x278C JUMPI PUSH1 0x0 SWAP3 PUSH2 0x2781 JUMPI JUMPDEST POP POP DUP2 PUSH1 0x1 SHL SWAP2 PUSH1 0x0 NOT SWAP1 PUSH1 0x3 SHL SHR NOT AND OR PUSH1 0x13 DUP3 ADD SSTORE JUMPDEST PUSH2 0x280 PUSH1 0xA0 MLOAD ADD MLOAD DUP1 MLOAD SWAP1 PUSH1 0x1 PUSH1 0x1 PUSH1 0x40 SHL SUB DUP3 GT PUSH2 0x2109 JUMPI DUP2 SWAP1 PUSH2 0x173B DUP3 PUSH2 0x1732 PUSH1 0x14 DUP8 ADD SLOAD PUSH2 0x39C9 JUMP JUMPDEST PUSH1 0x14 DUP8 ADD PUSH2 0x3BA1 JUMP JUMPDEST PUSH1 0x20 SWAP1 PUSH1 0x1F DUP4 GT PUSH1 0x1 EQ PUSH2 0x270F JUMPI PUSH1 0x0 SWAP3 PUSH2 0x2704 JUMPI JUMPDEST POP POP DUP2 PUSH1 0x1 SHL SWAP2 PUSH1 0x0 NOT SWAP1 PUSH1 0x3 SHL SHR NOT AND OR PUSH1 0x14 DUP3 ADD SSTORE JUMPDEST PUSH2 0x2A0 PUSH1 0xA0 MLOAD ADD MLOAD DUP1 MLOAD SWAP1 PUSH1 0x1 PUSH1 0x1 PUSH1 0x40 SHL SUB DUP3 GT PUSH2 0x2109 JUMPI DUP2 SWAP1 PUSH2 0x179E DUP3 PUSH2 0x1795 PUSH1 0x15 DUP8 ADD SLOAD PUSH2 0x39C9 JUMP JUMPDEST PUSH1 0x15 DUP8 ADD PUSH2 0x3BA1 JUMP JUMPDEST PUSH1 0x20 SWAP1 PUSH1 0x1F DUP4 GT PUSH1 0x1 EQ PUSH2 0x2692 JUMPI PUSH1 0x0 SWAP3 PUSH2 0x2687 JUMPI JUMPDEST POP POP DUP2 PUSH1 0x1 SHL SWAP2 PUSH1 0x0 NOT SWAP1 PUSH1 0x3 SHL SHR NOT AND OR PUSH1 0x15 DUP3 ADD SSTORE JUMPDEST PUSH2 0x2C0 PUSH1 0xA0 MLOAD ADD MLOAD DUP1 MLOAD SWAP1 PUSH1 0x1 PUSH1 0x1 PUSH1 0x40 SHL SUB DUP3 GT PUSH2 0x2109 JUMPI DUP2 SWAP1 PUSH2 0x1801 DUP3 PUSH2 0x17F8 PUSH1 0x16 DUP8 ADD SLOAD PUSH2 0x39C9 JUMP JUMPDEST PUSH1 0x16 DUP8 ADD PUSH2 0x3BA1 JUMP JUMPDEST PUSH1 0x20 SWAP1 PUSH1 0x1F DUP4 GT PUSH1 0x1 EQ PUSH2 0x2615 JUMPI PUSH1 0x0 SWAP3 PUSH2 0x260A JUMPI JUMPDEST POP POP DUP2 PUSH1 0x1 SHL SWAP2 PUSH1 0x0 NOT SWAP1 PUSH1 0x3 SHL SHR NOT AND OR PUSH1 0x16 DUP3 ADD SSTORE JUMPDEST PUSH2 0x2E0 PUSH1 0xA0 MLOAD ADD MLOAD DUP1 MLOAD SWAP1 PUSH1 0x1 PUSH1 0x1 PUSH1 0x40 SHL SUB DUP3 GT PUSH2 0x2109 JUMPI DUP2 SWAP1 PUSH2 0x1864 DUP3 PUSH2 0x185B PUSH1 0x17 DUP8 ADD SLOAD PUSH2 0x39C9 JUMP JUMPDEST PUSH1 0x17 DUP8 ADD PUSH2 0x3BA1 JUMP JUMPDEST PUSH1 0x20 SWAP1 PUSH1 0x1F DUP4 GT PUSH1 0x1 EQ PUSH2 0x2598 JUMPI PUSH1 0x0 SWAP3 PUSH2 0x258D JUMPI JUMPDEST POP POP DUP2 PUSH1 0x1 SHL SWAP2 PUSH1 0x0 NOT SWAP1 PUSH1 0x3 SHL SHR NOT AND OR PUSH1 0x17 DUP3 ADD SSTORE JUMPDEST PUSH2 0x300 PUSH1 0xA0 MLOAD ADD MLOAD DUP1 MLOAD SWAP1 PUSH1 0x1 PUSH1 0x1 PUSH1 0x40 SHL SUB DUP3 GT PUSH2 0x2109 JUMPI DUP2 SWAP1 PUSH2 0x18C7 DUP3 PUSH2 0x18BE PUSH1 0x18 DUP8 ADD SLOAD PUSH2 0x39C9 JUMP JUMPDEST PUSH1 0x18 DUP8 ADD PUSH2 0x3BA1 JUMP JUMPDEST PUSH1 0x20 SWAP1 PUSH1 0x1F DUP4 GT PUSH1 0x1 EQ PUSH2 0x251B JUMPI PUSH1 0x0 SWAP3 PUSH2 0x2510 JUMPI JUMPDEST POP POP DUP2 PUSH1 0x1 SHL SWAP2 PUSH1 0x0 NOT SWAP1 PUSH1 0x3 SHL SHR NOT AND OR PUSH1 0x18 DUP3 ADD SSTORE JUMPDEST PUSH2 0x320 PUSH1 0xA0 MLOAD ADD MLOAD DUP1 MLOAD SWAP1 PUSH1 0x1 PUSH1 0x1 PUSH1 0x40 SHL SUB DUP3 GT PUSH2 0x2109 JUMPI DUP2 SWAP1 PUSH2 0x192A DUP3 PUSH2 0x1921 PUSH1 0x19 DUP8 ADD SLOAD PUSH2 0x39C9 JUMP JUMPDEST PUSH1 0x19 DUP8 ADD PUSH2 0x3BA1 JUMP JUMPDEST PUSH1 0x20 SWAP1 PUSH1 0x1F DUP4 GT PUSH1 0x1 EQ PUSH2 0x249E JUMPI PUSH1 0x0 SWAP3 PUSH2 0x2493 JUMPI JUMPDEST POP POP DUP2 PUSH1 0x1 SHL SWAP2 PUSH1 0x0 NOT SWAP1 PUSH1 0x3 SHL SHR NOT AND OR PUSH1 0x19 DUP3 ADD SSTORE JUMPDEST PUSH2 0x340 PUSH1 0xA0 MLOAD ADD MLOAD DUP1 MLOAD SWAP1 PUSH1 0x1 PUSH1 0x1 PUSH1 0x40 SHL SUB DUP3 GT PUSH2 0x2109 JUMPI DUP2 SWAP1 PUSH2 0x198D DUP3 PUSH2 0x1984 PUSH1 0x1A DUP8 ADD SLOAD PUSH2 0x39C9 JUMP JUMPDEST PUSH1 0x1A DUP8 ADD PUSH2 0x3BA1 JUMP JUMPDEST PUSH1 0x20 SWAP1 PUSH1 0x1F DUP4 GT PUSH1 0x1 EQ PUSH2 0x2421 JUMPI PUSH1 0x0 SWAP3 PUSH2 0x2416 JUMPI JUMPDEST POP POP DUP2 PUSH1 0x1 SHL SWAP2 PUSH1 0x0 NOT SWAP1 PUSH1 0x3 SHL SHR NOT AND OR PUSH1 0x1A DUP3 ADD SSTORE JUMPDEST PUSH2 0x360 PUSH1 0xA0 MLOAD ADD MLOAD DUP1 MLOAD SWAP1 PUSH1 0x1 PUSH1 0x1 PUSH1 0x40 SHL SUB DUP3 GT PUSH2 0x2109 JUMPI DUP2 SWAP1 PUSH2 0x19F0 DUP3 PUSH2 0x19E7 PUSH1 0x1B DUP8 ADD SLOAD PUSH2 0x39C9 JUMP JUMPDEST PUSH1 0x1B DUP8 ADD PUSH2 0x3BA1 JUMP JUMPDEST PUSH1 0x20 SWAP1 PUSH1 0x1F DUP4 GT PUSH1 0x1 EQ PUSH2 0x23A4 JUMPI PUSH1 0x0 SWAP3 PUSH2 0x2399 JUMPI JUMPDEST POP POP DUP2 PUSH1 0x1 SHL SWAP2 PUSH1 0x0 NOT SWAP1 PUSH1 0x3 SHL SHR NOT AND OR PUSH1 0x1B DUP3 ADD SSTORE JUMPDEST PUSH2 0x380 PUSH1 0xA0 MLOAD ADD MLOAD DUP1 MLOAD SWAP1 PUSH1 0x1 PUSH1 0x1 PUSH1 0x40 SHL SUB DUP3 GT PUSH2 0x2109 JUMPI DUP2 SWAP1 PUSH2 0x1A53 DUP3 PUSH2 0x1A4A PUSH1 0x1C DUP8 ADD SLOAD PUSH2 0x39C9 JUMP JUMPDEST PUSH1 0x1C DUP8 ADD PUSH2 0x3BA1 JUMP JUMPDEST PUSH1 0x20 SWAP1 PUSH1 0x1F DUP4 GT PUSH1 0x1 EQ PUSH2 0x2327 JUMPI PUSH1 0x0 SWAP3 PUSH2 0x231C JUMPI JUMPDEST POP POP DUP2 PUSH1 0x1 SHL SWAP2 PUSH1 0x0 NOT SWAP1 PUSH1 0x3 SHL SHR NOT AND OR PUSH1 0x1C DUP3 ADD SSTORE JUMPDEST PUSH2 0x3A0 PUSH1 0xA0 MLOAD ADD MLOAD DUP1 MLOAD SWAP1 PUSH1 0x1 PUSH1 0x1 PUSH1 0x40 SHL SUB DUP3 GT PUSH2 0x2109 JUMPI DUP2 SWAP1 PUSH2 0x1AB6 DUP3 PUSH2 0x1AAD PUSH1 0x1D DUP8 ADD SLOAD PUSH2 0x39C9 JUMP JUMPDEST PUSH1 0x1D DUP8 ADD PUSH2 0x3BA1 JUMP JUMPDEST PUSH1 0x20 SWAP1 PUSH1 0x1F DUP4 GT PUSH1 0x1 EQ PUSH2 0x22AA JUMPI PUSH1 0x0 SWAP3 PUSH2 0x229F JUMPI JUMPDEST POP POP DUP2 PUSH1 0x1 SHL SWAP2 PUSH1 0x0 NOT SWAP1 PUSH1 0x3 SHL SHR NOT AND OR PUSH1 0x1D DUP3 ADD SSTORE JUMPDEST PUSH2 0x3C0 PUSH1 0xA0 MLOAD ADD MLOAD DUP1 MLOAD SWAP1 PUSH1 0x1 PUSH1 0x1 PUSH1 0x40 SHL SUB DUP3 GT PUSH2 0x2109 JUMPI DUP2 SWAP1 PUSH2 0x1B19 DUP3 PUSH2 0x1B10 PUSH1 0x1E DUP8 ADD SLOAD PUSH2 0x39C9 JUMP JUMPDEST PUSH1 0x1E DUP8 ADD PUSH2 0x3BA1 JUMP JUMPDEST PUSH1 0x20 SWAP1 PUSH1 0x1F DUP4 GT PUSH1 0x1 EQ PUSH2 0x222D JUMPI PUSH1 0x0 SWAP3 PUSH2 0x2222 JUMPI JUMPDEST POP POP DUP2 PUSH1 0x1 SHL SWAP2 PUSH1 0x0 NOT SWAP1 PUSH1 0x3 SHL SHR NOT AND OR PUSH1 0x1E DUP3 ADD SSTORE JUMPDEST PUSH2 0x3E0 PUSH1 0xA0 MLOAD ADD MLOAD DUP1 MLOAD SWAP1 PUSH1 0x1 PUSH1 0x1 PUSH1 0x40 SHL SUB DUP3 GT PUSH2 0x2109 JUMPI DUP2 SWAP1 PUSH2 0x1B7C DUP3 PUSH2 0x1B73 PUSH1 0x1F DUP8 ADD SLOAD PUSH2 0x39C9 JUMP JUMPDEST PUSH1 0x1F DUP8 ADD PUSH2 0x3BA1 JUMP JUMPDEST PUSH1 0x20 SWAP1 PUSH1 0x1F DUP4 GT PUSH1 0x1 EQ PUSH2 0x21B0 JUMPI PUSH1 0x0 SWAP3 PUSH2 0x21A5 JUMPI JUMPDEST POP POP DUP2 PUSH1 0x1 SHL SWAP2 PUSH1 0x0 NOT SWAP1 PUSH1 0x3 SHL SHR NOT AND OR PUSH1 0x1F DUP3 ADD SSTORE JUMPDEST PUSH2 0x400 PUSH1 0xA0 MLOAD ADD MLOAD SWAP1 DUP2 MLOAD SWAP1 PUSH1 0x1 PUSH1 0x1 PUSH1 0x40 SHL SUB DUP3 GT PUSH2 0x2109 JUMPI PUSH1 0x20 ADD SWAP1 PUSH2 0x1BDC DUP2 PUSH2 0x1BD6 DUP5 SLOAD PUSH2 0x39C9 JUMP JUMPDEST DUP5 PUSH2 0x3BA1 JUMP JUMPDEST PUSH1 0x20 PUSH1 0x1F DUP3 GT PUSH1 0x1 EQ PUSH2 0x2140 JUMPI DUP2 SWAP3 SWAP4 PUSH1 0x0 SWAP3 PUSH2 0x2135 JUMPI JUMPDEST POP POP DUP2 PUSH1 0x1 SHL SWAP2 PUSH1 0x0 NOT SWAP1 PUSH1 0x3 SHL SHR NOT AND OR SWAP1 SSTORE JUMPDEST PUSH1 0x2 SLOAD PUSH9 0x10000000000000000 DUP2 LT ISZERO PUSH2 0x2109 JUMPI DUP1 PUSH1 0x1 PUSH2 0x1C2D SWAP3 ADD PUSH1 0x2 SSTORE PUSH2 0x397C JUMP JUMPDEST PUSH2 0x211F JUMPI PUSH1 0xC0 MLOAD PUSH1 0x1 PUSH1 0x1 PUSH1 0x40 SHL SUB DUP2 GT PUSH2 0x2109 JUMPI PUSH2 0x1C56 SWAP1 PUSH2 0x1C50 DUP4 SLOAD PUSH2 0x39C9 JUMP JUMPDEST DUP4 PUSH2 0x3BA1 JUMP JUMPDEST PUSH1 0x0 SWAP1 PUSH1 0xC0 MLOAD PUSH1 0x1F DUP2 GT PUSH1 0x1 EQ PUSH2 0x209C JUMPI POP SWAP1 PUSH1 0x0 PUSH1 0xC0 MLOAD SWAP2 DUP3 PUSH2 0x208E JUMPI JUMPDEST POP DUP2 PUSH1 0x1 SHL SWAP2 PUSH1 0x0 NOT SWAP1 PUSH1 0x3 SHL SHR NOT AND OR SWAP1 SSTORE JUMPDEST PUSH2 0x440 PUSH1 0x40 MLOAD DUP1 PUSH2 0x1C0 MSTORE MSTORE PUSH32 0x29D01755F1F19D5AC89B65CB4E2BF084794EBEE932AD42F961E9B4D3C2089491 PUSH2 0x2064 PUSH2 0x204A PUSH2 0x2030 PUSH2 0x2016 PUSH2 0x1FFC PUSH2 0x1FE2 PUSH2 0x1FC8 PUSH2 0x1FAE PUSH2 0x1F94 PUSH2 0x1F7A PUSH2 0x1F60 PUSH2 0x1F46 PUSH2 0x1F2C PUSH2 0x1F13 PUSH2 0x1EF9 PUSH2 0x1EDF PUSH2 0x1EC5 PUSH2 0x1EAB PUSH2 0x1E91 PUSH2 0x1E77 PUSH2 0x1E5D PUSH2 0x1E43 PUSH2 0x1E2A PUSH2 0x1E10 PUSH2 0x1DF6 PUSH2 0x1DDC PUSH2 0x1DC3 PUSH2 0x1DAA PUSH2 0x1D91 PUSH2 0x1D78 PUSH2 0x1D5F PUSH2 0x1D46 PUSH2 0x1D2D PUSH2 0x440 PUSH2 0x1C0 MLOAD ADD PUSH1 0xC0 MLOAD PUSH2 0x980 MLOAD PUSH2 0x3BF5 JUMP JUMPDEST PUSH2 0x1C0 MLOAD PUSH1 0x20 DUP2 DUP4 SUB SWAP2 ADD MSTORE PUSH2 0x940 MLOAD PUSH2 0x160 MLOAD PUSH2 0x3BF5 JUMP JUMPDEST PUSH2 0x1C0 MLOAD PUSH1 0x40 DUP2 DUP4 SUB SWAP2 ADD MSTORE PUSH2 0x9E0 MLOAD PUSH2 0x3E0 MLOAD PUSH2 0x3BF5 JUMP JUMPDEST PUSH2 0x1C0 MLOAD PUSH1 0x60 DUP2 DUP4 SUB SWAP2 ADD MSTORE PUSH2 0x420 MLOAD PUSH2 0xAC0 MLOAD PUSH2 0x3BF5 JUMP JUMPDEST PUSH2 0x1C0 MLOAD PUSH1 0x80 DUP2 DUP4 SUB SWAP2 ADD MSTORE PUSH2 0xBE0 MLOAD PUSH2 0x380 MLOAD PUSH2 0x3BF5 JUMP JUMPDEST PUSH2 0x1C0 MLOAD PUSH1 0xA0 DUP2 DUP4 SUB SWAP2 ADD MSTORE PUSH2 0x360 MLOAD PUSH2 0x5E0 MLOAD PUSH2 0x3BF5 JUMP JUMPDEST PUSH2 0x1C0 MLOAD PUSH1 0xC0 DUP2 DUP4 SUB SWAP2 ADD MSTORE PUSH2 0x460 MLOAD PUSH2 0xC00 MLOAD PUSH2 0x3BF5 JUMP JUMPDEST PUSH2 0x1C0 MLOAD PUSH1 0xE0 DUP2 DUP4 SUB SWAP2 ADD MSTORE PUSH2 0xB60 MLOAD PUSH2 0x600 MLOAD PUSH2 0x3BF5 JUMP JUMPDEST PUSH2 0x1C0 MLOAD PUSH2 0x100 DUP2 DUP4 SUB SWAP2 ADD MSTORE PUSH2 0x440 MLOAD PUSH2 0x800 MLOAD PUSH2 0x3BF5 JUMP JUMPDEST PUSH2 0x1C0 MLOAD PUSH2 0x120 DUP2 DUP4 SUB SWAP2 ADD MSTORE PUSH2 0x960 MLOAD PUSH2 0x580 MLOAD PUSH2 0x3BF5 JUMP JUMPDEST PUSH2 0x1C0 MLOAD PUSH2 0x140 DUP2 DUP4 SUB SWAP2 ADD MSTORE PUSH2 0xA40 MLOAD PUSH2 0x5C0 MLOAD PUSH2 0x3BF5 JUMP JUMPDEST PUSH2 0x1C0 MLOAD PUSH2 0x160 DUP2 DUP4 SUB SWAP2 ADD MSTORE PUSH1 0xE0 MLOAD PUSH2 0xA60 MLOAD PUSH2 0x3BF5 JUMP JUMPDEST PUSH2 0x1C0 MLOAD PUSH2 0x180 DUP2 DUP4 SUB SWAP2 ADD MSTORE PUSH2 0x3A0 MLOAD PUSH2 0x120 MLOAD PUSH2 0x3BF5 JUMP JUMPDEST PUSH2 0x1C0 MLOAD PUSH2 0x1A0 DUP2 DUP4 SUB SWAP2 ADD MSTORE PUSH2 0xB80 MLOAD PUSH2 0x4C0 MLOAD PUSH2 0x3BF5 JUMP JUMPDEST PUSH2 0x1C0 MLOAD PUSH2 0x1C0 DUP2 DUP4 SUB SWAP2 ADD MSTORE PUSH2 0x860 MLOAD PUSH2 0x500 MLOAD PUSH2 0x3BF5 JUMP JUMPDEST PUSH2 0x1C0 MLOAD PUSH2 0x1E0 DUP2 DUP4 SUB SWAP2 ADD MSTORE PUSH2 0xA00 MLOAD PUSH2 0x660 MLOAD PUSH2 0x3BF5 JUMP JUMPDEST PUSH2 0x1C0 MLOAD PUSH2 0x200 DUP2 DUP4 SUB SWAP2 ADD MSTORE PUSH2 0xB20 MLOAD PUSH2 0x520 MLOAD PUSH2 0x3BF5 JUMP JUMPDEST PUSH2 0x1C0 MLOAD PUSH2 0x220 DUP2 DUP4 SUB SWAP2 ADD MSTORE PUSH2 0x740 MLOAD PUSH2 0x220 MLOAD PUSH2 0x3BF5 JUMP JUMPDEST PUSH2 0x1C0 MLOAD PUSH2 0x240 DUP2 DUP4 SUB SWAP2 ADD MSTORE PUSH2 0x200 MLOAD PUSH2 0x320 MLOAD PUSH2 0x3BF5 JUMP JUMPDEST PUSH2 0x1C0 MLOAD PUSH2 0x260 DUP2 DUP4 SUB SWAP2 ADD MSTORE PUSH2 0x8E0 MLOAD PUSH2 0xC20 MLOAD PUSH2 0x3BF5 JUMP JUMPDEST PUSH2 0x1C0 MLOAD PUSH2 0x280 DUP2 DUP4 SUB SWAP2 ADD MSTORE PUSH2 0x880 MLOAD PUSH1 0x80 MLOAD PUSH2 0x3BF5 JUMP JUMPDEST PUSH2 0x1C0 MLOAD PUSH2 0x2A0 DUP2 DUP4 SUB SWAP2 ADD MSTORE PUSH2 0x4A0 MLOAD PUSH2 0x840 MLOAD PUSH2 0x3BF5 JUMP JUMPDEST PUSH2 0x1C0 MLOAD PUSH2 0x2C0 DUP2 DUP4 SUB SWAP2 ADD MSTORE PUSH2 0x540 MLOAD PUSH2 0xBC0 MLOAD PUSH2 0x3BF5 JUMP JUMPDEST PUSH2 0x1C0 MLOAD PUSH2 0x2E0 DUP2 DUP4 SUB SWAP2 ADD MSTORE PUSH2 0x820 MLOAD PUSH2 0x640 MLOAD PUSH2 0x3BF5 JUMP JUMPDEST PUSH2 0x1C0 MLOAD PUSH2 0x300 DUP2 DUP4 SUB SWAP2 ADD MSTORE PUSH2 0x1E0 MLOAD PUSH2 0x100 MLOAD PUSH2 0x3BF5 JUMP JUMPDEST PUSH2 0x1C0 MLOAD PUSH2 0x320 DUP2 DUP4 SUB SWAP2 ADD MSTORE PUSH2 0x300 MLOAD PUSH2 0x1A0 MLOAD PUSH2 0x3BF5 JUMP JUMPDEST PUSH2 0x1C0 MLOAD PUSH2 0x340 DUP2 DUP4 SUB SWAP2 ADD MSTORE PUSH2 0x480 MLOAD PUSH2 0xB00 MLOAD PUSH2 0x3BF5 JUMP JUMPDEST PUSH2 0x1C0 MLOAD PUSH2 0x360 DUP2 DUP4 SUB SWAP2 ADD MSTORE PUSH2 0x340 MLOAD PUSH2 0x8A0 MLOAD PUSH2 0x3BF5 JUMP JUMPDEST PUSH2 0x1C0 MLOAD PUSH2 0x380 DUP2 DUP4 SUB SWAP2 ADD MSTORE PUSH2 0xBA0 MLOAD PUSH2 0x140 MLOAD PUSH2 0x3BF5 JUMP JUMPDEST PUSH2 0x1C0 MLOAD PUSH2 0x3A0 DUP2 DUP4 SUB SWAP2 ADD MSTORE PUSH2 0x3C0 MLOAD PUSH2 0x900 MLOAD PUSH2 0x3BF5 JUMP JUMPDEST PUSH2 0x1C0 MLOAD PUSH2 0x3C0 DUP2 DUP4 SUB SWAP2 ADD MSTORE PUSH2 0x280 MLOAD PUSH2 0x7A0 MLOAD PUSH2 0x3BF5 JUMP JUMPDEST PUSH2 0x1C0 MLOAD PUSH2 0x3E0 DUP2 DUP4 SUB SWAP2 ADD MSTORE PUSH2 0x240 MLOAD PUSH2 0x620 MLOAD PUSH2 0x3BF5 JUMP JUMPDEST PUSH2 0x1C0 MLOAD PUSH2 0x400 DUP2 DUP4 SUB SWAP2 ADD MSTORE PUSH2 0xA20 MLOAD PUSH2 0x260 MLOAD PUSH2 0x3BF5 JUMP JUMPDEST PUSH2 0x1C0 MLOAD PUSH2 0x420 DUP2 DUP4 SUB SWAP2 ADD MSTORE PUSH2 0x2086 PUSH2 0x1C0 MLOAD SWAP2 PUSH2 0x780 MLOAD PUSH2 0x720 MLOAD PUSH2 0x3BF5 JUMP JUMPDEST SUB PUSH2 0x1C0 MLOAD LOG1 STOP JUMPDEST SWAP1 POP PUSH2 0x980 MLOAD ADD CALLDATALOAD DUP4 PUSH2 0x1C75 JUMP JUMPDEST DUP2 PUSH1 0x0 MSTORE PUSH1 0x20 PUSH1 0x0 KECCAK256 PUSH1 0x0 SWAP4 PUSH2 0x980 MLOAD SWAP1 JUMPDEST PUSH1 0x1F NOT DUP5 AND DUP7 LT PUSH2 0x20F1 JUMPI PUSH1 0x1 SWAP5 SWAP6 POP DUP4 PUSH1 0x1F NOT DUP2 AND LT PUSH2 0x20D7 JUMPI JUMPDEST POP POP POP DUP2 SHL ADD SWAP1 SSTORE PUSH2 0x1C89 JUMP JUMPDEST ADD CALLDATALOAD PUSH1 0x0 NOT PUSH1 0x3 DUP5 SWAP1 SHL PUSH1 0xF8 AND SHR NOT AND SWAP1 SSTORE DUP4 DUP1 DUP1 PUSH2 0x20CA JUMP JUMPDEST SWAP2 PUSH1 0x20 PUSH1 0x1 DUP2 SWAP3 DUP6 DUP6 ADD CALLDATALOAD DUP2 SSTORE ADD SWAP4 ADD SWAP6 ADD SWAP5 PUSH2 0x20AE JUMP JUMPDEST PUSH4 0x4E487B71 PUSH1 0xE0 SHL PUSH1 0x0 MSTORE PUSH1 0x41 PUSH1 0x4 MSTORE PUSH1 0x24 PUSH1 0x0 REVERT JUMPDEST PUSH4 0x4E487B71 PUSH1 0xE0 SHL PUSH1 0x0 MSTORE PUSH1 0x0 PUSH1 0x4 MSTORE PUSH1 0x24 PUSH1 0x0 REVERT JUMPDEST ADD MLOAD SWAP1 POP DUP4 DUP1 PUSH2 0x1BF4 JUMP JUMPDEST DUP3 PUSH1 0x0 MSTORE PUSH1 0x20 PUSH1 0x0 KECCAK256 SWAP1 PUSH1 0x0 SWAP5 PUSH1 0x1F NOT DUP5 AND SWAP6 JUMPDEST DUP7 DUP2 LT PUSH2 0x218D JUMPI POP DUP4 PUSH1 0x1 SWAP6 SWAP7 LT PUSH2 0x2174 JUMPI JUMPDEST POP POP POP DUP2 SHL ADD SWAP1 SSTORE PUSH2 0x1C09 JUMP JUMPDEST ADD MLOAD PUSH1 0x0 NOT PUSH1 0xF8 DUP5 PUSH1 0x3 SHL AND SHR NOT AND SWAP1 SSTORE DUP4 DUP1 DUP1 PUSH2 0x2167 JUMP JUMPDEST SWAP2 SWAP3 PUSH1 0x20 PUSH1 0x1 DUP2 SWAP3 DUP7 DUP6 ADD MLOAD DUP2 SSTORE ADD SWAP5 ADD SWAP3 ADD PUSH2 0x2154 JUMP JUMPDEST ADD MLOAD SWAP1 POP DUP4 DUP1 PUSH2 0x1B92 JUMP JUMPDEST SWAP3 POP PUSH1 0x1F DUP5 ADD PUSH1 0x0 MSTORE PUSH1 0x20 PUSH1 0x0 KECCAK256 SWAP1 PUSH1 0x0 SWAP4 JUMPDEST PUSH1 0x1F NOT DUP5 AND DUP6 LT PUSH2 0x2207 JUMPI PUSH1 0x1 SWAP5 POP DUP4 PUSH1 0x1F NOT DUP2 AND LT PUSH2 0x21EE JUMPI JUMPDEST POP POP POP DUP2 SHL ADD PUSH1 0x1F DUP3 ADD SSTORE PUSH2 0x1BAA JUMP JUMPDEST ADD MLOAD PUSH1 0x0 NOT PUSH1 0xF8 DUP5 PUSH1 0x3 SHL AND SHR NOT AND SWAP1 SSTORE DUP4 DUP1 DUP1 PUSH2 0x21DE JUMP JUMPDEST DUP2 DUP2 ADD MLOAD DUP4 SSTORE PUSH1 0x20 SWAP5 DUP6 ADD SWAP5 PUSH1 0x1 SWAP1 SWAP4 ADD SWAP3 SWAP1 SWAP2 ADD SWAP1 PUSH2 0x21C3 JUMP JUMPDEST ADD MLOAD SWAP1 POP DUP4 DUP1 PUSH2 0x1B2F JUMP JUMPDEST SWAP3 POP PUSH1 0x1E DUP5 ADD PUSH1 0x0 MSTORE PUSH1 0x20 PUSH1 0x0 KECCAK256 SWAP1 PUSH1 0x0 SWAP4 JUMPDEST PUSH1 0x1F NOT DUP5 AND DUP6 LT PUSH2 0x2284 JUMPI PUSH1 0x1 SWAP5 POP DUP4 PUSH1 0x1F NOT DUP2 AND LT PUSH2 0x226B JUMPI JUMPDEST POP POP POP DUP2 SHL ADD PUSH1 0x1E DUP3 ADD SSTORE PUSH2 0x1B47 JUMP JUMPDEST ADD MLOAD PUSH1 0x0 NOT PUSH1 0xF8 DUP5 PUSH1 0x3 SHL AND SHR NOT AND SWAP1 SSTORE DUP4 DUP1 DUP1 PUSH2 0x225B JUMP JUMPDEST DUP2 DUP2 ADD MLOAD DUP4 SSTORE PUSH1 0x20 SWAP5 DUP6 ADD SWAP5 PUSH1 0x1 SWAP1 SWAP4 ADD SWAP3 SWAP1 SWAP2 ADD SWAP1 PUSH2 0x2240 JUMP JUMPDEST ADD MLOAD SWAP1 POP DUP4 DUP1 PUSH2 0x1ACC JUMP JUMPDEST SWAP3 POP PUSH1 0x1D DUP5 ADD PUSH1 0x0 MSTORE PUSH1 0x20 PUSH1 0x0 KECCAK256 SWAP1 PUSH1 0x0 SWAP4 JUMPDEST PUSH1 0x1F NOT DUP5 AND DUP6 LT PUSH2 0x2301 JUMPI PUSH1 0x1 SWAP5 POP DUP4 PUSH1 0x1F NOT DUP2 AND LT PUSH2 0x22E8 JUMPI JUMPDEST POP POP POP DUP2 SHL ADD PUSH1 0x1D DUP3 ADD SSTORE PUSH2 0x1AE4 JUMP JUMPDEST ADD MLOAD PUSH1 0x0 NOT PUSH1 0xF8 DUP5 PUSH1 0x3 SHL AND SHR NOT AND SWAP1 SSTORE DUP4 DUP1 DUP1 PUSH2 0x22D8 JUMP JUMPDEST DUP2 DUP2 ADD MLOAD DUP4 SSTORE PUSH1 0x20 SWAP5 DUP6 ADD SWAP5 PUSH1 0x1 SWAP1 SWAP4 ADD SWAP3 SWAP1 SWAP2 ADD SWAP1 PUSH2 0x22BD JUMP JUMPDEST ADD MLOAD SWAP1 POP DUP4 DUP1 PUSH2 0x1A69 JUMP JUMPDEST SWAP3 POP PUSH1 0x1C DUP5 ADD PUSH1 0x0 MSTORE PUSH1 0x20 PUSH1 0x0 KECCAK256 SWAP1 PUSH1 0x0 SWAP4 JUMPDEST PUSH1 0x1F NOT DUP5 AND DUP6 LT PUSH2 0x237E JUMPI PUSH1 0x1 SWAP5 POP DUP4 PUSH1 0x1F NOT DUP2 AND LT PUSH2 0x2365 JUMPI JUMPDEST POP POP POP DUP2 SHL ADD PUSH1 0x1C DUP3 ADD SSTORE PUSH2 0x1A81 JUMP JUMPDEST ADD MLOAD PUSH1 0x0 NOT PUSH1 0xF8 DUP5 PUSH1 0x3 SHL AND SHR NOT AND SWAP1 SSTORE DUP4 DUP1 DUP1 PUSH2 0x2355 JUMP JUMPDEST DUP2 DUP2 ADD MLOAD DUP4 SSTORE PUSH1 0x20 SWAP5 DUP6 ADD SWAP5 PUSH1 0x1 SWAP1 SWAP4 ADD SWAP3 SWAP1 SWAP2 ADD SWAP1 PUSH2 0x233A JUMP JUMPDEST ADD MLOAD SWAP1 POP DUP4 DUP1 PUSH2 0x1A06 JUMP JUMPDEST SWAP3 POP PUSH1 0x1B DUP5 ADD PUSH1 0x0 MSTORE PUSH1 0x20 PUSH1 0x0 KECCAK256 SWAP1 PUSH1 0x0 SWAP4 JUMPDEST PUSH1 0x1F NOT DUP5 AND DUP6 LT PUSH2 0x23FB JUMPI PUSH1 0x1 SWAP5 POP DUP4 PUSH1 0x1F NOT DUP2 AND LT PUSH2 0x23E2 JUMPI JUMPDEST POP POP POP DUP2 SHL ADD PUSH1 0x1B DUP3 ADD SSTORE PUSH2 0x1A1E JUMP JUMPDEST ADD MLOAD PUSH1 0x0 NOT PUSH1 0xF8 DUP5 PUSH1 0x3 SHL AND SHR NOT AND SWAP1 SSTORE DUP4 DUP1 DUP1 PUSH2 0x23D2 JUMP JUMPDEST DUP2 DUP2 ADD MLOAD DUP4 SSTORE PUSH1 0x20 SWAP5 DUP6 ADD SWAP5 PUSH1 0x1 SWAP1 SWAP4 ADD SWAP3 SWAP1 SWAP2 ADD SWAP1 PUSH2 0x23B7 JUMP JUMPDEST ADD MLOAD SWAP1 POP DUP4 DUP1 PUSH2 0x19A3 JUMP JUMPDEST SWAP3 POP PUSH1 0x1A DUP5 ADD PUSH1 0x0 MSTORE PUSH1 0x20 PUSH1 0x0 KECCAK256 SWAP1 PUSH1 0x0 SWAP4 JUMPDEST PUSH1 0x1F NOT DUP5 AND DUP6 LT PUSH2 0x2478 JUMPI PUSH1 0x1 SWAP5 POP DUP4 PUSH1 0x1F NOT DUP2 AND LT PUSH2 0x245F JUMPI JUMPDEST POP POP POP DUP2 SHL ADD PUSH1 0x1A DUP3 ADD SSTORE PUSH2 0x19BB JUMP JUMPDEST ADD MLOAD PUSH1 0x0 NOT PUSH1 0xF8 DUP5 PUSH1 0x3 SHL AND SHR NOT AND SWAP1 SSTORE DUP4 DUP1 DUP1 PUSH2 0x244F JUMP JUMPDEST DUP2 DUP2 ADD MLOAD DUP4 SSTORE PUSH1 0x20 SWAP5 DUP6 ADD SWAP5 PUSH1 0x1 SWAP1 SWAP4 ADD SWAP3 SWAP1 SWAP2 ADD SWAP1 PUSH2 0x2434 JUMP JUMPDEST ADD MLOAD SWAP1 POP DUP4 DUP1 PUSH2 0x1940 JUMP JUMPDEST SWAP3 POP PUSH1 0x19 DUP5 ADD PUSH1 0x0 MSTORE PUSH1 0x20 PUSH1 0x0 KECCAK256 SWAP1 PUSH1 0x0 SWAP4 JUMPDEST PUSH1 0x1F NOT DUP5 AND DUP6 LT PUSH2 0x24F5 JUMPI PUSH1 0x1 SWAP5 POP DUP4 PUSH1 0x1F NOT DUP2 AND LT PUSH2 0x24DC JUMPI JUMPDEST POP POP POP DUP2 SHL ADD PUSH1 0x19 DUP3 ADD SSTORE PUSH2 0x1958 JUMP JUMPDEST ADD MLOAD PUSH1 0x0 NOT PUSH1 0xF8 DUP5 PUSH1 0x3 SHL AND SHR NOT AND SWAP1 SSTORE DUP4 DUP1 DUP1 PUSH2 0x24CC JUMP JUMPDEST DUP2 DUP2 ADD MLOAD DUP4 SSTORE PUSH1 0x20 SWAP5 DUP6 ADD SWAP5 PUSH1 0x1 SWAP1 SWAP4 ADD SWAP3 SWAP1 SWAP2 ADD SWAP1 PUSH2 0x24B1 JUMP JUMPDEST ADD MLOAD SWAP1 POP DUP4 DUP1 PUSH2 0x18DD JUMP JUMPDEST SWAP3 POP PUSH1 0x18 DUP5 ADD PUSH1 0x0 MSTORE PUSH1 0x20 PUSH1 0x0 KECCAK256 SWAP1 PUSH1 0x0 SWAP4 JUMPDEST PUSH1 0x1F NOT DUP5 AND DUP6 LT PUSH2 0x2572 JUMPI PUSH1 0x1 SWAP5 POP DUP4 PUSH1 0x1F NOT DUP2 AND LT PUSH2 0x2559 JUMPI JUMPDEST POP POP POP DUP2 SHL ADD PUSH1 0x18 DUP3 ADD SSTORE PUSH2 0x18F5 JUMP JUMPDEST ADD MLOAD PUSH1 0x0 NOT PUSH1 0xF8 DUP5 PUSH1 0x3 SHL AND SHR NOT AND SWAP1 SSTORE DUP4 DUP1 DUP1 PUSH2 0x2549 JUMP JUMPDEST DUP2 DUP2 ADD MLOAD DUP4 SSTORE PUSH1 0x20 SWAP5 DUP6 ADD SWAP5 PUSH1 0x1 SWAP1 SWAP4 ADD SWAP3 SWAP1 SWAP2 ADD SWAP1 PUSH2 0x252E JUMP JUMPDEST ADD MLOAD SWAP1 POP DUP4 DUP1 PUSH2 0x187A JUMP JUMPDEST SWAP3 POP PUSH1 0x17 DUP5 ADD PUSH1 0x0 MSTORE PUSH1 0x20 PUSH1 0x0 KECCAK256 SWAP1 PUSH1 0x0 SWAP4 JUMPDEST PUSH1 0x1F NOT DUP5 AND DUP6 LT PUSH2 0x25EF JUMPI PUSH1 0x1 SWAP5 POP DUP4 PUSH1 0x1F NOT DUP2 AND LT PUSH2 0x25D6 JUMPI JUMPDEST POP POP POP DUP2 SHL ADD PUSH1 0x17 DUP3 ADD SSTORE PUSH2 0x1892 JUMP JUMPDEST ADD MLOAD PUSH1 0x0 NOT PUSH1 0xF8 DUP5 PUSH1 0x3 SHL AND SHR NOT AND SWAP1 SSTORE DUP4 DUP1 DUP1 PUSH2 0x25C6 JUMP JUMPDEST DUP2 DUP2 ADD MLOAD DUP4 SSTORE PUSH1 0x20 SWAP5 DUP6 ADD SWAP5 PUSH1 0x1 SWAP1 SWAP4 ADD SWAP3 SWAP1 SWAP2 ADD SWAP1 PUSH2 0x25AB JUMP JUMPDEST ADD MLOAD SWAP1 POP DUP4 DUP1 PUSH2 0x1817 JUMP JUMPDEST SWAP3 POP PUSH1 0x16 DUP5 ADD PUSH1 0x0 MSTORE PUSH1 0x20 PUSH1 0x0 KECCAK256 SWAP1 PUSH1 0x0 SWAP4 JUMPDEST PUSH1 0x1F NOT DUP5 AND DUP6 LT PUSH2 0x266C JUMPI PUSH1 0x1 SWAP5 POP DUP4 PUSH1 0x1F NOT DUP2 AND LT PUSH2 0x2653 JUMPI JUMPDEST POP POP POP DUP2 SHL ADD PUSH1 0x16 DUP3 ADD SSTORE PUSH2 0x182F JUMP JUMPDEST ADD MLOAD PUSH1 0x0 NOT PUSH1 0xF8 DUP5 PUSH1 0x3 SHL AND SHR NOT AND SWAP1 SSTORE DUP4 DUP1 DUP1 PUSH2 0x2643 JUMP JUMPDEST DUP2 DUP2 ADD MLOAD DUP4 SSTORE PUSH1 0x20 SWAP5 DUP6 ADD SWAP5 PUSH1 0x1 SWAP1 SWAP4 ADD SWAP3 SWAP1 SWAP2 ADD SWAP1 PUSH2 0x2628 JUMP JUMPDEST ADD MLOAD SWAP1 POP DUP4 DUP1 PUSH2 0x17B4 JUMP JUMPDEST SWAP3 POP PUSH1 0x15 DUP5 ADD PUSH1 0x0 MSTORE PUSH1 0x20 PUSH1 0x0 KECCAK256 SWAP1 PUSH1 0x0 SWAP4 JUMPDEST PUSH1 0x1F NOT DUP5 AND DUP6 LT PUSH2 0x26E9 JUMPI PUSH1 0x1 SWAP5 POP DUP4 PUSH1 0x1F NOT DUP2 AND LT PUSH2 0x26D0 JUMPI JUMPDEST POP POP POP DUP2 SHL ADD PUSH1 0x15 DUP3 ADD SSTORE PUSH2 0x17CC JUMP JUMPDEST ADD MLOAD PUSH1 0x0 NOT PUSH1 0xF8 DUP5 PUSH1 0x3 SHL AND SHR NOT AND SWAP1 SSTORE DUP4 DUP1 DUP1 PUSH2 0x26C0 JUMP JUMPDEST DUP2 DUP2 ADD MLOAD DUP4 SSTORE PUSH1 0x20 SWAP5 DUP6 ADD SWAP5 PUSH1 0x1 SWAP1 SWAP4 ADD SWAP3 SWAP1 SWAP2 ADD SWAP1 PUSH2 0x26A5 JUMP JUMPDEST ADD MLOAD SWAP1 POP DUP4 DUP1 PUSH2 0x1751 JUMP JUMPDEST SWAP3 POP PUSH1 0x14 DUP5 ADD PUSH1 0x0 MSTORE PUSH1 0x20 PUSH1 0x0 KECCAK256 SWAP1 PUSH1 0x0 SWAP4 JUMPDEST PUSH1 0x1F NOT DUP5 AND DUP6 LT PUSH2 0x2766 JUMPI PUSH1 0x1 SWAP5 POP DUP4 PUSH1 0x1F NOT DUP2 AND LT PUSH2 0x274D JUMPI JUMPDEST POP POP POP DUP2 SHL ADD PUSH1 0x14 DUP3 ADD SSTORE PUSH2 0x1769 JUMP JUMPDEST ADD MLOAD PUSH1 0x0 NOT PUSH1 0xF8 DUP5 PUSH1 0x3 SHL AND SHR NOT AND SWAP1 SSTORE DUP4 DUP1 DUP1 PUSH2 0x273D JUMP JUMPDEST DUP2 DUP2 ADD MLOAD DUP4 SSTORE PUSH1 0x20 SWAP5 DUP6 ADD SWAP5 PUSH1 0x1 SWAP1 SWAP4 ADD SWAP3 SWAP1 SWAP2 ADD SWAP1 PUSH2 0x2722 JUMP JUMPDEST ADD MLOAD SWAP1 POP DUP4 DUP1 PUSH2 0x16EE JUMP JUMPDEST SWAP3 POP PUSH1 0x13 DUP5 ADD PUSH1 0x0 MSTORE PUSH1 0x20 PUSH1 0x0 KECCAK256 SWAP1 PUSH1 0x0 SWAP4 JUMPDEST PUSH1 0x1F NOT DUP5 AND DUP6 LT PUSH2 0x27E3 JUMPI PUSH1 0x1 SWAP5 POP DUP4 PUSH1 0x1F NOT DUP2 AND LT PUSH2 0x27CA JUMPI JUMPDEST POP POP POP DUP2 SHL ADD PUSH1 0x13 DUP3 ADD SSTORE PUSH2 0x1706 JUMP JUMPDEST ADD MLOAD PUSH1 0x0 NOT PUSH1 0xF8 DUP5 PUSH1 0x3 SHL AND SHR NOT AND SWAP1 SSTORE DUP4 DUP1 DUP1 PUSH2 0x27BA JUMP JUMPDEST DUP2 DUP2 ADD MLOAD DUP4 SSTORE PUSH1 0x20 SWAP5 DUP6 ADD SWAP5 PUSH1 0x1 SWAP1 SWAP4 ADD SWAP3 SWAP1 SWAP2 ADD SWAP1 PUSH2 0x279F JUMP JUMPDEST ADD MLOAD SWAP1 POP DUP4 DUP1 PUSH2 0x168B JUMP JUMPDEST SWAP3 POP PUSH1 0x12 DUP5 ADD PUSH1 0x0 MSTORE PUSH1 0x20 PUSH1 0x0 KECCAK256 SWAP1 PUSH1 0x0 SWAP4 JUMPDEST PUSH1 0x1F NOT DUP5 AND DUP6 LT PUSH2 0x2860 JUMPI PUSH1 0x1 SWAP5 POP DUP4 PUSH1 0x1F NOT DUP2 AND LT PUSH2 0x2847 JUMPI JUMPDEST POP POP POP DUP2 SHL ADD PUSH1 0x12 DUP3 ADD SSTORE PUSH2 0x16A3 JUMP JUMPDEST ADD MLOAD PUSH1 0x0 NOT PUSH1 0xF8 DUP5 PUSH1 0x3 SHL AND SHR NOT AND SWAP1 SSTORE DUP4 DUP1 DUP1 PUSH2 0x2837 JUMP JUMPDEST DUP2 DUP2 ADD MLOAD DUP4 SSTORE PUSH1 0x20 SWAP5 DUP6 ADD SWAP5 PUSH1 0x1 SWAP1 SWAP4 ADD SWAP3 SWAP1 SWAP2 ADD SWAP1 PUSH2 0x281C JUMP JUMPDEST ADD MLOAD SWAP1 POP DUP4 DUP1 PUSH2 0x1628 JUMP JUMPDEST SWAP3 POP PUSH1 0x11 DUP5 ADD PUSH1 0x0 MSTORE PUSH1 0x20 PUSH1 0x0 KECCAK256 SWAP1 PUSH1 0x0 SWAP4 JUMPDEST PUSH1 0x1F NOT DUP5 AND DUP6 LT PUSH2 0x28DD JUMPI PUSH1 0x1 SWAP5 POP DUP4 PUSH1 0x1F NOT DUP2 AND LT PUSH2 0x28C4 JUMPI JUMPDEST POP POP POP DUP2 SHL ADD PUSH1 0x11 DUP3 ADD SSTORE PUSH2 0x1640 JUMP JUMPDEST ADD MLOAD PUSH1 0x0 NOT PUSH1 0xF8 DUP5 PUSH1 0x3 SHL AND SHR NOT AND SWAP1 SSTORE DUP4 DUP1 DUP1 PUSH2 0x28B4 JUMP JUMPDEST DUP2 DUP2 ADD MLOAD DUP4 SSTORE PUSH1 0x20 SWAP5 DUP6 ADD SWAP5 PUSH1 0x1 SWAP1 SWAP4 ADD SWAP3 SWAP1 SWAP2 ADD SWAP1 PUSH2 0x2899 JUMP JUMPDEST ADD MLOAD SWAP1 POP DUP4 DUP1 PUSH2 0x15C5 JUMP JUMPDEST SWAP3 POP PUSH1 0x10 DUP5 ADD PUSH1 0x0 MSTORE PUSH1 0x20 PUSH1 0x0 KECCAK256 SWAP1 PUSH1 0x0 SWAP4 JUMPDEST PUSH1 0x1F NOT DUP5 AND DUP6 LT PUSH2 0x295A JUMPI PUSH1 0x1 SWAP5 POP DUP4 PUSH1 0x1F NOT DUP2 AND LT PUSH2 0x2941 JUMPI JUMPDEST POP POP POP DUP2 SHL ADD PUSH1 0x10 DUP3 ADD SSTORE PUSH2 0x15DD JUMP JUMPDEST ADD MLOAD PUSH1 0x0 NOT PUSH1 0xF8 DUP5 PUSH1 0x3 SHL AND SHR NOT AND SWAP1 SSTORE DUP4 DUP1 DUP1 PUSH2 0x2931 JUMP JUMPDEST DUP2 DUP2 ADD MLOAD DUP4 SSTORE PUSH1 0x20 SWAP5 DUP6 ADD SWAP5 PUSH1 0x1 SWAP1 SWAP4 ADD SWAP3 SWAP1 SWAP2 ADD SWAP1 PUSH2 0x2916 JUMP JUMPDEST ADD MLOAD SWAP1 POP DUP4 DUP1 PUSH2 0x1562 JUMP JUMPDEST SWAP3 POP PUSH1 0xF DUP5 ADD PUSH1 0x0 MSTORE PUSH1 0x20 PUSH1 0x0 KECCAK256 SWAP1 PUSH1 0x0 SWAP4 JUMPDEST PUSH1 0x1F NOT DUP5 AND DUP6 LT PUSH2 0x29D7 JUMPI PUSH1 0x1 SWAP5 POP DUP4 PUSH1 0x1F NOT DUP2 AND LT PUSH2 0x29BE JUMPI JUMPDEST POP POP POP DUP2 SHL ADD PUSH1 0xF DUP3 ADD SSTORE PUSH2 0x157A JUMP JUMPDEST ADD MLOAD PUSH1 0x0 NOT PUSH1 0xF8 DUP5 PUSH1 0x3 SHL AND SHR NOT AND SWAP1 SSTORE DUP4 DUP1 DUP1 PUSH2 0x29AE JUMP JUMPDEST DUP2 DUP2 ADD MLOAD DUP4 SSTORE PUSH1 0x20 SWAP5 DUP6 ADD SWAP5 PUSH1 0x1 SWAP1 SWAP4 ADD SWAP3 SWAP1 SWAP2 ADD SWAP1 PUSH2 0x2993 JUMP JUMPDEST ADD MLOAD SWAP1 POP DUP4 DUP1 PUSH2 0x14FF JUMP JUMPDEST SWAP3 POP PUSH1 0xE DUP5 ADD PUSH1 0x0 MSTORE PUSH1 0x20 PUSH1 0x0 KECCAK256 SWAP1 PUSH1 0x0 SWAP4 JUMPDEST PUSH1 0x1F NOT DUP5 AND DUP6 LT PUSH2 0x2A54 JUMPI PUSH1 0x1 SWAP5 POP DUP4 PUSH1 0x1F NOT DUP2 AND LT PUSH2 0x2A3B JUMPI JUMPDEST POP POP POP DUP2 SHL ADD PUSH1 0xE DUP3 ADD SSTORE PUSH2 0x1517 JUMP JUMPDEST ADD MLOAD PUSH1 0x0 NOT PUSH1 0xF8 DUP5 PUSH1 0x3 SHL AND SHR NOT AND SWAP1 SSTORE DUP4 DUP1 DUP1 PUSH2 0x2A2B JUMP JUMPDEST DUP2 DUP2 ADD MLOAD DUP4 SSTORE PUSH1 0x20 SWAP5 DUP6 ADD SWAP5 PUSH1 0x1 SWAP1 SWAP4 ADD SWAP3 SWAP1 SWAP2 ADD SWAP1 PUSH2 0x2A10 JUMP JUMPDEST ADD MLOAD SWAP1 POP DUP4 DUP1 PUSH2 0x149C JUMP JUMPDEST SWAP3 POP PUSH1 0xD DUP5 ADD PUSH1 0x0 MSTORE PUSH1 0x20 PUSH1 0x0 KECCAK256 SWAP1 PUSH1 0x0 SWAP4 JUMPDEST PUSH1 0x1F NOT DUP5 AND DUP6 LT PUSH2 0x2AD1 JUMPI PUSH1 0x1 SWAP5 POP DUP4 PUSH1 0x1F NOT DUP2 AND LT PUSH2 0x2AB8 JUMPI JUMPDEST POP POP POP DUP2 SHL ADD PUSH1 0xD DUP3 ADD SSTORE PUSH2 0x14B4 JUMP JUMPDEST ADD MLOAD PUSH1 0x0 NOT PUSH1 0xF8 DUP5 PUSH1 0x3 SHL AND SHR NOT AND SWAP1 SSTORE DUP4 DUP1 DUP1 PUSH2 0x2AA8 JUMP JUMPDEST DUP2 DUP2 ADD MLOAD DUP4 SSTORE PUSH1 0x20 SWAP5 DUP6 ADD SWAP5 PUSH1 0x1 SWAP1 SWAP4 ADD SWAP3 SWAP1 SWAP2 ADD SWAP1 PUSH2 0x2A8D JUMP JUMPDEST ADD MLOAD SWAP1 POP DUP4 DUP1 PUSH2 0x1439 JUMP JUMPDEST SWAP3 POP PUSH1 0xC DUP5 ADD PUSH1 0x0 MSTORE PUSH1 0x20 PUSH1 0x0 KECCAK256 SWAP1 PUSH1 0x0 SWAP4 JUMPDEST PUSH1 0x1F NOT DUP5 AND DUP6 LT PUSH2 0x2B4E JUMPI PUSH1 0x1 SWAP5 POP DUP4 PUSH1 0x1F NOT DUP2 AND LT PUSH2 0x2B35 JUMPI JUMPDEST POP POP POP DUP2 SHL ADD PUSH1 0xC DUP3 ADD SSTORE PUSH2 0x1451 JUMP JUMPDEST ADD MLOAD PUSH1 0x0 NOT PUSH1 0xF8 DUP5 PUSH1 0x3 SHL AND SHR NOT AND SWAP1 SSTORE DUP4 DUP1 DUP1 PUSH2 0x2B25 JUMP JUMPDEST DUP2 DUP2 ADD MLOAD DUP4 SSTORE PUSH1 0x20 SWAP5 DUP6 ADD SWAP5 PUSH1 0x1 SWAP1 SWAP4 ADD SWAP3 SWAP1 SWAP2 ADD SWAP1 PUSH2 0x2B0A JUMP JUMPDEST ADD MLOAD SWAP1 POP DUP4 DUP1 PUSH2 0x13D6 JUMP JUMPDEST SWAP3 POP PUSH1 0xB DUP5 ADD PUSH1 0x0 MSTORE PUSH1 0x20 PUSH1 0x0 KECCAK256 SWAP1 PUSH1 0x0 SWAP4 JUMPDEST PUSH1 0x1F NOT DUP5 AND DUP6 LT PUSH2 0x2BCB JUMPI PUSH1 0x1 SWAP5 POP DUP4 PUSH1 0x1F NOT DUP2 AND LT PUSH2 0x2BB2 JUMPI JUMPDEST POP POP POP DUP2 SHL ADD PUSH1 0xB DUP3 ADD SSTORE PUSH2 0x13EE JUMP JUMPDEST ADD MLOAD PUSH1 0x0 NOT PUSH1 0xF8 DUP5 PUSH1 0x3 SHL AND SHR NOT AND SWAP1 SSTORE DUP4 DUP1 DUP1 PUSH2 0x2BA2 JUMP JUMPDEST DUP2 DUP2 ADD MLOAD DUP4 SSTORE PUSH1 0x20 SWAP5 DUP6 ADD SWAP5 PUSH1 0x1 SWAP1 SWAP4 ADD SWAP3 SWAP1 SWAP2 ADD SWAP1 PUSH2 0x2B87 JUMP JUMPDEST ADD MLOAD SWAP1 POP DUP4 DUP1 PUSH2 0x1373 JUMP JUMPDEST SWAP3 POP PUSH1 0xA DUP5 ADD PUSH1 0x0 MSTORE PUSH1 0x20 PUSH1 0x0 KECCAK256 SWAP1 PUSH1 0x0 SWAP4 JUMPDEST PUSH1 0x1F NOT DUP5 AND DUP6 LT PUSH2 0x2C48 JUMPI PUSH1 0x1 SWAP5 POP DUP4 PUSH1 0x1F NOT DUP2 AND LT PUSH2 0x2C2F JUMPI JUMPDEST POP POP POP DUP2 SHL ADD PUSH1 0xA DUP3 ADD SSTORE PUSH2 0x138B JUMP JUMPDEST ADD MLOAD PUSH1 0x0 NOT PUSH1 0xF8 DUP5 PUSH1 0x3 SHL AND SHR NOT AND SWAP1 SSTORE DUP4 DUP1 DUP1 PUSH2 0x2C1F JUMP JUMPDEST DUP2 DUP2 ADD MLOAD DUP4 SSTORE PUSH1 0x20 SWAP5 DUP6 ADD SWAP5 PUSH1 0x1 SWAP1 SWAP4 ADD SWAP3 SWAP1 SWAP2 ADD SWAP1 PUSH2 0x2C04 JUMP JUMPDEST ADD MLOAD SWAP1 POP DUP4 DUP1 PUSH2 0x1310 JUMP JUMPDEST SWAP3 POP PUSH1 0x9 DUP5 ADD PUSH1 0x0 MSTORE PUSH1 0x20 PUSH1 0x0 KECCAK256 SWAP1 PUSH1 0x0 SWAP4 JUMPDEST PUSH1 0x1F NOT DUP5 AND DUP6 LT PUSH2 0x2CC5 JUMPI PUSH1 0x1 SWAP5 POP DUP4 PUSH1 0x1F NOT DUP2 AND LT PUSH2 0x2CAC JUMPI JUMPDEST POP POP POP DUP2 SHL ADD PUSH1 0x9 DUP3 ADD SSTORE PUSH2 0x1328 JUMP JUMPDEST ADD MLOAD PUSH1 0x0 NOT PUSH1 0xF8 DUP5 PUSH1 0x3 SHL AND SHR NOT AND SWAP1 SSTORE DUP4 DUP1 DUP1 PUSH2 0x2C9C JUMP JUMPDEST DUP2 DUP2 ADD MLOAD DUP4 SSTORE PUSH1 0x20 SWAP5 DUP6 ADD SWAP5 PUSH1 0x1 SWAP1 SWAP4 ADD SWAP3 SWAP1 SWAP2 ADD SWAP1 PUSH2 0x2C81 JUMP JUMPDEST ADD MLOAD SWAP1 POP DUP4 DUP1 PUSH2 0x12AD JUMP JUMPDEST SWAP3 POP PUSH1 0x8 DUP5 ADD PUSH1 0x0 MSTORE PUSH1 0x20 PUSH1 0x0 KECCAK256 SWAP1 PUSH1 0x0 SWAP4 JUMPDEST PUSH1 0x1F NOT DUP5 AND DUP6 LT PUSH2 0x2D42 JUMPI PUSH1 0x1 SWAP5 POP DUP4 PUSH1 0x1F NOT DUP2 AND LT PUSH2 0x2D29 JUMPI JUMPDEST POP POP POP DUP2 SHL ADD PUSH1 0x8 DUP3 ADD SSTORE PUSH2 0x12C5 JUMP JUMPDEST ADD MLOAD PUSH1 0x0 NOT PUSH1 0xF8 DUP5 PUSH1 0x3 SHL AND SHR NOT AND SWAP1 SSTORE DUP4 DUP1 DUP1 PUSH2 0x2D19 JUMP JUMPDEST DUP2 DUP2 ADD MLOAD DUP4 SSTORE PUSH1 0x20 SWAP5 DUP6 ADD SWAP5 PUSH1 0x1 SWAP1 SWAP4 ADD SWAP3 SWAP1 SWAP2 ADD SWAP1 PUSH2 0x2CFE JUMP JUMPDEST ADD MLOAD SWAP1 POP DUP4 DUP1 PUSH2 0x124A JUMP JUMPDEST SWAP3 POP PUSH1 0x7 DUP5 ADD PUSH1 0x0 MSTORE PUSH1 0x20 PUSH1 0x0 KECCAK256 SWAP1 PUSH1 0x0 SWAP4 JUMPDEST PUSH1 0x1F NOT DUP5 AND DUP6 LT PUSH2 0x2DBF JUMPI PUSH1 0x1 SWAP5 POP DUP4 PUSH1 0x1F NOT DUP2 AND LT PUSH2 0x2DA6 JUMPI JUMPDEST POP POP POP DUP2 SHL ADD PUSH1 0x7 DUP3 ADD SSTORE PUSH2 0x1262 JUMP JUMPDEST ADD MLOAD PUSH1 0x0 NOT PUSH1 0xF8 DUP5 PUSH1 0x3 SHL AND SHR NOT AND SWAP1 SSTORE DUP4 DUP1 DUP1 PUSH2 0x2D96 JUMP JUMPDEST DUP2 DUP2 ADD MLOAD DUP4 SSTORE PUSH1 0x20 SWAP5 DUP6 ADD SWAP5 PUSH1 0x1 SWAP1 SWAP4 ADD SWAP3 SWAP1 SWAP2 ADD SWAP1 PUSH2 0x2D7B JUMP JUMPDEST ADD MLOAD SWAP1 POP DUP4 DUP1 PUSH2 0x11E8 JUMP JUMPDEST SWAP3 POP PUSH1 0x6 DUP5 ADD PUSH1 0x0 MSTORE PUSH1 0x20 PUSH1 0x0 KECCAK256 SWAP1 PUSH1 0x0 SWAP4 JUMPDEST PUSH1 0x1F NOT DUP5 AND DUP6 LT PUSH2 0x2E3C JUMPI PUSH1 0x1 SWAP5 POP DUP4 PUSH1 0x1F NOT DUP2 AND LT PUSH2 0x2E23 JUMPI JUMPDEST POP POP POP DUP2 SHL ADD PUSH1 0x6 DUP3 ADD SSTORE PUSH2 0x1200 JUMP JUMPDEST ADD MLOAD PUSH1 0x0 NOT PUSH1 0xF8 DUP5 PUSH1 0x3 SHL AND SHR NOT AND SWAP1 SSTORE DUP4 DUP1 DUP1 PUSH2 0x2E13 JUMP JUMPDEST DUP2 DUP2 ADD MLOAD DUP4 SSTORE PUSH1 0x20 SWAP5 DUP6 ADD SWAP5 PUSH1 0x1 SWAP1 SWAP4 ADD SWAP3 SWAP1 SWAP2 ADD SWAP1 PUSH2 0x2DF8 JUMP JUMPDEST ADD MLOAD SWAP1 POP DUP4 DUP1 PUSH2 0x1186 JUMP JUMPDEST SWAP3 POP PUSH1 0x5 DUP5 ADD PUSH1 0x0 MSTORE PUSH1 0x20 PUSH1 0x0 KECCAK256 SWAP1 PUSH1 0x0 SWAP4 JUMPDEST PUSH1 0x1F NOT DUP5 AND DUP6 LT PUSH2 0x2EB9 JUMPI PUSH1 0x1 SWAP5 POP DUP4 PUSH1 0x1F NOT DUP2 AND LT PUSH2 0x2EA0 JUMPI JUMPDEST POP POP POP DUP2 SHL ADD PUSH1 0x5 DUP3 ADD SSTORE PUSH2 0x119E JUMP JUMPDEST ADD MLOAD PUSH1 0x0 NOT PUSH1 0xF8 DUP5 PUSH1 0x3 SHL AND SHR NOT AND SWAP1 SSTORE DUP4 DUP1 DUP1 PUSH2 0x2E90 JUMP JUMPDEST DUP2 DUP2 ADD MLOAD DUP4 SSTORE PUSH1 0x20 SWAP5 DUP6 ADD SWAP5 PUSH1 0x1 SWAP1 SWAP4 ADD SWAP3 SWAP1 SWAP2 ADD SWAP1 PUSH2 0x2E75 JUMP JUMPDEST ADD MLOAD SWAP1 POP DUP4 DUP1 PUSH2 0x1125 JUMP JUMPDEST SWAP3 POP PUSH1 0x4 DUP5 ADD PUSH1 0x0 MSTORE PUSH1 0x20 PUSH1 0x0 KECCAK256 SWAP1 PUSH1 0x0 SWAP4 JUMPDEST PUSH1 0x1F NOT DUP5 AND DUP6 LT PUSH2 0x2F36 JUMPI PUSH1 0x1 SWAP5 POP DUP4 PUSH1 0x1F NOT DUP2 AND LT PUSH2 0x2F1D JUMPI JUMPDEST POP POP POP DUP2 SHL ADD PUSH1 0x4 DUP3 ADD SSTORE PUSH2 0x113D JUMP JUMPDEST ADD MLOAD PUSH1 0x0 NOT PUSH1 0xF8 DUP5 PUSH1 0x3 SHL AND SHR NOT AND SWAP1 SSTORE DUP4 DUP1 DUP1 PUSH2 0x2F0D JUMP JUMPDEST DUP2 DUP2 ADD MLOAD DUP4 SSTORE PUSH1 0x20 SWAP5 DUP6 ADD SWAP5 PUSH1 0x1 SWAP1 SWAP4 ADD SWAP3 SWAP1 SWAP2 ADD SWAP1 PUSH2 0x2EF2 JUMP JUMPDEST ADD MLOAD SWAP1 POP DUP4 DUP1 PUSH2 0x10C3 JUMP JUMPDEST SWAP3 POP PUSH1 0x3 DUP5 ADD PUSH1 0x0 MSTORE PUSH1 0x20 PUSH1 0x0 KECCAK256 SWAP1 PUSH1 0x0 SWAP4 JUMPDEST PUSH1 0x1F NOT DUP5 AND DUP6 LT PUSH2 0x2FB3 JUMPI PUSH1 0x1 SWAP5 POP DUP4 PUSH1 0x1F NOT DUP2 AND LT PUSH2 0x2F9A JUMPI JUMPDEST POP POP POP DUP2 SHL ADD PUSH1 0x3 DUP3 ADD SSTORE PUSH2 0x10DB JUMP JUMPDEST ADD MLOAD PUSH1 0x0 NOT PUSH1 0xF8 DUP5 PUSH1 0x3 SHL AND SHR NOT AND SWAP1 SSTORE DUP4 DUP1 DUP1 PUSH2 0x2F8A JUMP JUMPDEST DUP2 DUP2 ADD MLOAD DUP4 SSTORE PUSH1 0x20 SWAP5 DUP6 ADD SWAP5 PUSH1 0x1 SWAP1 SWAP4 ADD SWAP3 SWAP1 SWAP2 ADD SWAP1 PUSH2 0x2F6F JUMP JUMPDEST ADD MLOAD SWAP1 POP DUP4 DUP1 PUSH2 0x1061 JUMP JUMPDEST SWAP3 POP PUSH1 0x2 DUP5 ADD PUSH1 0x0 MSTORE PUSH1 0x20 PUSH1 0x0 KECCAK256 SWAP1 PUSH1 0x0 SWAP4 JUMPDEST PUSH1 0x1F NOT DUP5 AND DUP6 LT PUSH2 0x3030 JUMPI PUSH1 0x1 SWAP5 POP DUP4 PUSH1 0x1F NOT DUP2 AND LT PUSH2 0x3017 JUMPI JUMPDEST POP POP POP DUP2 SHL ADD PUSH1 0x2 DUP3 ADD SSTORE PUSH2 0x1079 JUMP JUMPDEST ADD MLOAD PUSH1 0x0 NOT PUSH1 0xF8 DUP5 PUSH1 0x3 SHL AND SHR NOT AND SWAP1 SSTORE DUP4 DUP1 DUP1 PUSH2 0x3007 JUMP JUMPDEST DUP2 DUP2 ADD MLOAD DUP4 SSTORE PUSH1 0x20 SWAP5 DUP6 ADD SWAP5 PUSH1 0x1 SWAP1 SWAP4 ADD SWAP3 SWAP1 SWAP2 ADD SWAP1 PUSH2 0x2FEC JUMP JUMPDEST ADD MLOAD SWAP1 POP DUP4 DUP1 PUSH2 0xFFF JUMP JUMPDEST SWAP3 POP PUSH1 0x1 DUP5 ADD PUSH1 0x0 MSTORE PUSH1 0x20 PUSH1 0x0 KECCAK256 SWAP1 PUSH1 0x0 SWAP4 JUMPDEST PUSH1 0x1F NOT DUP5 AND DUP6 LT PUSH2 0x30AD JUMPI PUSH1 0x1 SWAP5 POP DUP4 PUSH1 0x1F NOT DUP2 AND LT PUSH2 0x3094 JUMPI JUMPDEST POP POP POP DUP2 SHL ADD PUSH1 0x1 DUP3 ADD SSTORE PUSH2 0x1017 JUMP JUMPDEST ADD MLOAD PUSH1 0x0 NOT PUSH1 0xF8 DUP5 PUSH1 0x3 SHL AND SHR NOT AND SWAP1 SSTORE DUP4 DUP1 DUP1 PUSH2 0x3084 JUMP JUMPDEST DUP2 DUP2 ADD MLOAD DUP4 SSTORE PUSH1 0x20 SWAP5 DUP6 ADD SWAP5 PUSH1 0x1 SWAP1 SWAP4 ADD SWAP3 SWAP1 SWAP2 ADD SWAP1 PUSH2 0x3069 JUMP JUMPDEST ADD MLOAD SWAP1 POP DUP4 DUP1 PUSH2 0xFA0 JUMP JUMPDEST SWAP3 POP DUP4 PUSH1 0x0 MSTORE PUSH1 0x20 PUSH1 0x0 KECCAK256 SWAP1 PUSH1 0x0 SWAP4 JUMPDEST PUSH1 0x1F NOT DUP5 AND DUP6 LT PUSH2 0x3124 JUMPI PUSH1 0x1 SWAP5 POP DUP4 PUSH1 0x1F NOT DUP2 AND LT PUSH2 0x310B JUMPI JUMPDEST POP POP POP DUP2 SHL ADD DUP2 SSTORE PUSH2 0xFB5 JUMP JUMPDEST ADD MLOAD PUSH1 0x0 NOT PUSH1 0xF8 DUP5 PUSH1 0x3 SHL AND SHR NOT AND SWAP1 SSTORE DUP4 DUP1 DUP1 PUSH2 0x30FE JUMP JUMPDEST DUP2 DUP2 ADD MLOAD DUP4 SSTORE PUSH1 0x20 SWAP5 DUP6 ADD SWAP5 PUSH1 0x1 SWAP1 SWAP4 ADD SWAP3 SWAP1 SWAP2 ADD SWAP1 PUSH2 0x30E3 JUMP JUMPDEST PUSH1 0x40 MLOAD PUSH3 0x461BCD PUSH1 0xE5 SHL DUP2 MSTORE PUSH1 0x20 PUSH1 0x4 DUP3 ADD MSTORE PUSH1 0xB PUSH1 0x24 DUP3 ADD MSTORE PUSH11 0x139BDD081CDD195DD85C99 PUSH1 0xAA SHL PUSH1 0x44 DUP3 ADD MSTORE PUSH1 0x64 SWAP1 REVERT JUMPDEST CALLVALUE PUSH2 0x67D JUMPI PUSH1 0x0 CALLDATASIZE PUSH1 0x3 NOT ADD SLT PUSH2 0x67D JUMPI PUSH1 0x20 PUSH1 0x2 SLOAD PUSH1 0x40 MLOAD SWAP1 DUP2 MSTORE RETURN JUMPDEST CALLVALUE PUSH2 0x67D JUMPI PUSH1 0x20 CALLDATASIZE PUSH1 0x3 NOT ADD SLT PUSH2 0x67D JUMPI PUSH1 0x4 CALLDATALOAD PUSH1 0x1 PUSH1 0x1 PUSH1 0x40 SHL SUB DUP2 GT PUSH2 0x67D JUMPI PUSH2 0x31C0 SWAP1 CALLDATASIZE SWAP1 PUSH1 0x4 ADD PUSH2 0x3B2E JUMP JUMPDEST SWAP1 PUSH1 0x40 MLOAD PUSH2 0x31CD DUP2 PUSH2 0x3A03 JUMP JUMPDEST PUSH1 0x60 DUP2 MSTORE PUSH1 0x20 DUP2 ADD PUSH1 0x60 SWAP1 MSTORE PUSH1 0x40 DUP2 ADD PUSH1 0x60 SWAP1 MSTORE PUSH1 0x60 DUP2 ADD PUSH1 0x60 SWAP1 MSTORE PUSH1 0x80 DUP2 ADD PUSH1 0x60 SWAP1 MSTORE PUSH1 0xA0 DUP2 ADD PUSH1 0x60 SWAP1 MSTORE PUSH1 0xC0 DUP2 ADD PUSH1 0x60 SWAP1 MSTORE PUSH1 0xE0 DUP2 ADD PUSH1 0x60 SWAP1 MSTORE PUSH2 0x100 DUP2 ADD PUSH1 0x60 SWAP1 MSTORE PUSH2 0x120 DUP2 ADD PUSH1 0x60 SWAP1 MSTORE PUSH2 0x140 DUP2 ADD PUSH1 0x60 SWAP1 MSTORE PUSH2 0x160 DUP2 ADD PUSH1 0x60 SWAP1 MSTORE PUSH2 0x180 DUP2 ADD PUSH1 0x60 SWAP1 MSTORE PUSH2 0x1A0 DUP2 ADD PUSH1 0x60 SWAP1 MSTORE PUSH2 0x1C0 DUP2 ADD PUSH1 0x60 SWAP1 MSTORE PUSH2 0x1E0 DUP2 ADD PUSH1 0x60 SWAP1 MSTORE PUSH2 0x200 DUP2 ADD PUSH1 0x60 SWAP1 MSTORE PUSH2 0x220 DUP2 ADD PUSH1 0x60 SWAP1 MSTORE PUSH2 0x240 DUP2 ADD PUSH1 0x60 SWAP1 MSTORE PUSH2 0x260 DUP2 ADD PUSH1 0x60 SWAP1 MSTORE PUSH2 0x280 DUP2 ADD PUSH1 0x60 SWAP1 MSTORE PUSH2 0x2A0 DUP2 ADD PUSH1 0x60 SWAP1 MSTORE PUSH2 0x2C0 DUP2 ADD PUSH1 0x60 SWAP1 MSTORE PUSH2 0x2E0 DUP2 ADD PUSH1 0x60 SWAP1 MSTORE PUSH2 0x300 DUP2 ADD PUSH1 0x60 SWAP1 MSTORE PUSH2 0x320 DUP2 ADD PUSH1 0x60 SWAP1 MSTORE PUSH2 0x340 DUP2 ADD PUSH1 0x60 SWAP1 MSTORE PUSH2 0x360 DUP2 ADD PUSH1 0x60 SWAP1 MSTORE PUSH2 0x380 DUP2 ADD PUSH1 0x60 SWAP1 MSTORE PUSH2 0x3A0 DUP2 ADD PUSH1 0x60 SWAP1 MSTORE PUSH2 0x3C0 DUP2 ADD PUSH1 0x60 SWAP1 MSTORE PUSH2 0x3E0 DUP2 ADD PUSH1 0x60 SWAP1 MSTORE PUSH2 0x400 ADD PUSH1 0x60 SWAP1 MSTORE DUP2 PUSH1 0x40 MLOAD SWAP3 DUP4 SWAP3 DUP4 CALLDATACOPY DUP2 ADD PUSH1 0x1 DUP2 MSTORE SUB PUSH1 0x20 ADD SWAP1 KECCAK256 PUSH1 0x40 MLOAD SWAP1 PUSH2 0x330B DUP3 PUSH2 0x3A03 JUMP JUMPDEST PUSH2 0x3314 DUP2 PUSH2 0x3A40 JUMP JUMPDEST DUP3 MSTORE PUSH2 0x3322 PUSH1 0x1 DUP3 ADD PUSH2 0x3A40 JUMP JUMPDEST PUSH1 0x20 DUP4 ADD MSTORE PUSH2 0x3333 PUSH1 0x2 DUP3 ADD PUSH2 0x3A40 JUMP JUMPDEST PUSH1 0x40 DUP4 ADD MSTORE PUSH2 0x3344 PUSH1 0x3 DUP3 ADD PUSH2 0x3A40 JUMP JUMPDEST PUSH1 0x60 DUP4 ADD MSTORE PUSH2 0x3355 PUSH1 0x4 DUP3 ADD PUSH2 0x3A40 JUMP JUMPDEST PUSH1 0x80 DUP4 ADD MSTORE PUSH2 0x3366 PUSH1 0x5 DUP3 ADD PUSH2 0x3A40 JUMP JUMPDEST PUSH1 0xA0 DUP4 ADD MSTORE PUSH2 0x3377 PUSH1 0x6 DUP3 ADD PUSH2 0x3A40 JUMP JUMPDEST PUSH1 0xC0 DUP4 ADD MSTORE PUSH2 0x3388 PUSH1 0x7 DUP3 ADD PUSH2 0x3A40 JUMP JUMPDEST PUSH1 0xE0 DUP4 ADD MSTORE PUSH2 0x3399 PUSH1 0x8 DUP3 ADD PUSH2 0x3A40 JUMP JUMPDEST PUSH2 0x100 DUP4 ADD MSTORE PUSH2 0x33AB PUSH1 0x9 DUP3 ADD PUSH2 0x3A40 JUMP JUMPDEST PUSH2 0x120 DUP4 ADD MSTORE PUSH2 0x33BD PUSH1 0xA DUP3 ADD PUSH2 0x3A40 JUMP JUMPDEST PUSH2 0x140 DUP4 ADD MSTORE PUSH2 0x33CF PUSH1 0xB DUP3 ADD PUSH2 0x3A40 JUMP JUMPDEST PUSH2 0x160 DUP4 ADD MSTORE PUSH2 0x33E1 PUSH1 0xC DUP3 ADD PUSH2 0x3A40 JUMP JUMPDEST PUSH2 0x180 DUP4 ADD MSTORE PUSH2 0x33F3 PUSH1 0xD DUP3 ADD PUSH2 0x3A40 JUMP JUMPDEST PUSH2 0x1A0 DUP4 ADD MSTORE PUSH2 0x3405 PUSH1 0xE DUP3 ADD PUSH2 0x3A40 JUMP JUMPDEST PUSH2 0x1C0 DUP4 ADD MSTORE PUSH2 0x3417 PUSH1 0xF DUP3 ADD PUSH2 0x3A40 JUMP JUMPDEST PUSH2 0x1E0 DUP4 ADD MSTORE PUSH2 0x3429 PUSH1 0x10 DUP3 ADD PUSH2 0x3A40 JUMP JUMPDEST PUSH2 0x200 DUP4 ADD MSTORE PUSH2 0x343B PUSH1 0x11 DUP3 ADD PUSH2 0x3A40 JUMP JUMPDEST PUSH2 0x220 DUP4 ADD MSTORE PUSH2 0x344D PUSH1 0x12 DUP3 ADD PUSH2 0x3A40 JUMP JUMPDEST PUSH2 0x240 DUP4 ADD MSTORE PUSH2 0x345F PUSH1 0x13 DUP3 ADD PUSH2 0x3A40 JUMP JUMPDEST PUSH2 0x260 DUP4 ADD MSTORE PUSH2 0x3471 PUSH1 0x14 DUP3 ADD PUSH2 0x3A40 JUMP JUMPDEST PUSH2 0x280 DUP4 ADD MSTORE PUSH2 0x3483 PUSH1 0x15 DUP3 ADD PUSH2 0x3A40 JUMP JUMPDEST PUSH2 0x2A0 DUP4 ADD MSTORE PUSH2 0x3495 PUSH1 0x16 DUP3 ADD PUSH2 0x3A40 JUMP JUMPDEST PUSH2 0x2C0 DUP4 ADD MSTORE PUSH2 0x34A7 PUSH1 0x17 DUP3 ADD PUSH2 0x3A40 JUMP JUMPDEST PUSH2 0x2E0 DUP4 ADD MSTORE PUSH2 0x34B9 PUSH1 0x18 DUP3 ADD PUSH2 0x3A40 JUMP JUMPDEST PUSH2 0x300 DUP4 ADD MSTORE PUSH2 0x34CB PUSH1 0x19 DUP3 ADD PUSH2 0x3A40 JUMP JUMPDEST PUSH2 0x320 DUP4 ADD MSTORE PUSH2 0x34DD PUSH1 0x1A DUP3 ADD PUSH2 0x3A40 JUMP JUMPDEST PUSH2 0x340 DUP4 ADD MSTORE PUSH2 0x34EF PUSH1 0x1B DUP3 ADD PUSH2 0x3A40 JUMP JUMPDEST PUSH2 0x360 DUP4 ADD MSTORE PUSH2 0x3501 PUSH1 0x1C DUP3 ADD PUSH2 0x3A40 JUMP JUMPDEST PUSH2 0x380 DUP4 ADD MSTORE PUSH2 0x3513 PUSH1 0x1D DUP3 ADD PUSH2 0x3A40 JUMP JUMPDEST PUSH2 0x3A0 DUP4 ADD MSTORE PUSH2 0x3525 PUSH1 0x1E DUP3 ADD PUSH2 0x3A40 JUMP JUMPDEST PUSH2 0x3C0 DUP4 ADD MSTORE PUSH2 0x3537 PUSH1 0x1F DUP3 ADD PUSH2 0x3A40 JUMP JUMPDEST PUSH2 0x3E0 DUP4 ADD MSTORE PUSH1 0x20 ADD PUSH2 0x3549 SWAP1 PUSH2 0x3A40 JUMP JUMPDEST PUSH2 0x400 DUP3 ADD MSTORE PUSH1 0x40 MLOAD DUP1 SWAP2 PUSH1 0x20 DUP3 MSTORE DUP1 MLOAD PUSH1 0x20 DUP4 ADD PUSH2 0x420 SWAP1 MSTORE PUSH2 0x440 DUP4 ADD PUSH2 0x3571 SWAP2 PUSH2 0x3B09 JUMP JUMPDEST PUSH1 0x20 DUP3 ADD MLOAD DUP4 DUP3 SUB PUSH1 0x1F NOT ADD PUSH1 0x40 DUP6 ADD MSTORE PUSH2 0x358C SWAP2 SWAP1 PUSH2 0x3B09 JUMP JUMPDEST PUSH1 0x40 DUP3 ADD MLOAD DUP4 DUP3 SUB PUSH1 0x1F NOT ADD PUSH1 0x60 DUP6 ADD MSTORE PUSH2 0x35A7 SWAP2 SWAP1 PUSH2 0x3B09 JUMP JUMPDEST PUSH1 0x60 DUP3 ADD MLOAD DUP4 DUP3 SUB PUSH1 0x1F NOT ADD PUSH1 0x80 DUP6 ADD MSTORE PUSH2 0x35C2 SWAP2 SWAP1 PUSH2 0x3B09 JUMP JUMPDEST PUSH1 0x80 DUP3 ADD MLOAD DUP4 DUP3 SUB PUSH1 0x1F NOT ADD PUSH1 0xA0 DUP6 ADD MSTORE PUSH2 0x35DD SWAP2 SWAP1 PUSH2 0x3B09 JUMP JUMPDEST PUSH1 0xA0 DUP3 ADD MLOAD DUP4 DUP3 SUB PUSH1 0x1F NOT ADD PUSH1 0xC0 DUP6 ADD MSTORE PUSH2 0x35F8 SWAP2 SWAP1 PUSH2 0x3B09 JUMP JUMPDEST PUSH1 0xC0 DUP3 ADD MLOAD DUP4 DUP3 SUB PUSH1 0x1F NOT ADD PUSH1 0xE0 DUP6 ADD MSTORE PUSH2 0x3613 SWAP2 SWAP1 PUSH2 0x3B09 JUMP JUMPDEST PUSH1 0xE0 DUP3 ADD MLOAD DUP4 DUP3 SUB PUSH1 0x1F NOT ADD PUSH2 0x100 DUP6 ADD MSTORE PUSH2 0x362F SWAP2 SWAP1 PUSH2 0x3B09 JUMP JUMPDEST PUSH2 0x100 DUP3 ADD MLOAD DUP4 DUP3 SUB PUSH1 0x1F NOT ADD PUSH2 0x120 DUP6 ADD MSTORE PUSH2 0x364C SWAP2 SWAP1 PUSH2 0x3B09 JUMP JUMPDEST PUSH2 0x120 DUP3 ADD MLOAD DUP4 DUP3 SUB PUSH1 0x1F NOT ADD PUSH2 0x140 DUP6 ADD MSTORE PUSH2 0x3669 SWAP2 SWAP1 PUSH2 0x3B09 JUMP JUMPDEST PUSH2 0x140 DUP3 ADD MLOAD DUP4 DUP3 SUB PUSH1 0x1F NOT ADD PUSH2 0x160 DUP6 ADD MSTORE PUSH2 0x3686 SWAP2 SWAP1 PUSH2 0x3B09 JUMP JUMPDEST PUSH2 0x160 DUP3 ADD MLOAD DUP4 DUP3 SUB PUSH1 0x1F NOT ADD PUSH2 0x180 DUP6 ADD MSTORE PUSH2 0x36A3 SWAP2 SWAP1 PUSH2 0x3B09 JUMP JUMPDEST PUSH2 0x180 DUP3 ADD MLOAD DUP4 DUP3 SUB PUSH1 0x1F NOT ADD PUSH2 0x1A0 DUP6 ADD MSTORE PUSH2 0x36C0 SWAP2 SWAP1 PUSH2 0x3B09 JUMP JUMPDEST PUSH2 0x1A0 DUP3 ADD MLOAD DUP4 DUP3 SUB PUSH1 0x1F NOT ADD PUSH2 0x1C0 DUP6 ADD MSTORE PUSH2 0x36DD SWAP2 SWAP1 PUSH2 0x3B09 JUMP JUMPDEST PUSH2 0x1C0 DUP3 ADD MLOAD DUP4 DUP3 SUB PUSH1 0x1F NOT ADD PUSH2 0x1E0 DUP6 ADD MSTORE PUSH2 0x36FA SWAP2 SWAP1 PUSH2 0x3B09 JUMP JUMPDEST PUSH2 0x1E0 DUP3 ADD MLOAD DUP4 DUP3 SUB PUSH1 0x1F NOT ADD PUSH2 0x200 DUP6 ADD MSTORE PUSH2 0x3717 SWAP2 SWAP1 PUSH2 0x3B09 JUMP JUMPDEST PUSH2 0x200 DUP3 ADD MLOAD DUP4 DUP3 SUB PUSH1 0x1F NOT ADD PUSH2 0x220 DUP6 ADD MSTORE PUSH2 0x3734 SWAP2 SWAP1 PUSH2 0x3B09 JUMP JUMPDEST PUSH2 0x220 DUP3 ADD MLOAD DUP4 DUP3 SUB PUSH1 0x1F NOT ADD PUSH2 0x240 DUP6 ADD MSTORE PUSH2 0x3751 SWAP2 SWAP1 PUSH2 0x3B09 JUMP JUMPDEST PUSH2 0x240 DUP3 ADD MLOAD DUP4 DUP3 SUB PUSH1 0x1F NOT ADD PUSH2 0x260 DUP6 ADD MSTORE PUSH2 0x376E SWAP2 SWAP1 PUSH2 0x3B09 JUMP JUMPDEST PUSH2 0x260 DUP3 ADD MLOAD DUP4 DUP3 SUB PUSH1 0x1F NOT ADD PUSH2 0x280 DUP6 ADD MSTORE PUSH2 0x378B SWAP2 SWAP1 PUSH2 0x3B09 JUMP JUMPDEST PUSH2 0x280 DUP3 ADD MLOAD DUP4 DUP3 SUB PUSH1 0x1F NOT ADD PUSH2 0x2A0 DUP6 ADD MSTORE PUSH2 0x37A8 SWAP2 SWAP1 PUSH2 0x3B09 JUMP JUMPDEST PUSH2 0x2A0 DUP3 ADD MLOAD DUP4 DUP3 SUB PUSH1 0x1F NOT ADD PUSH2 0x2C0 DUP6 ADD MSTORE PUSH2 0x37C5 SWAP2 SWAP1 PUSH2 0x3B09 JUMP JUMPDEST PUSH2 0x2C0 DUP3 ADD MLOAD DUP4 DUP3 SUB PUSH1 0x1F NOT ADD PUSH2 0x2E0 DUP6 ADD MSTORE PUSH2 0x37E2 SWAP2 SWAP1 PUSH2 0x3B09 JUMP JUMPDEST PUSH2 0x2E0 DUP3 ADD MLOAD DUP4 DUP3 SUB PUSH1 0x1F NOT ADD PUSH2 0x300 DUP6 ADD MSTORE PUSH2 0x37FF SWAP2 SWAP1 PUSH2 0x3B09 JUMP JUMPDEST PUSH2 0x300 DUP3 ADD MLOAD DUP4 DUP3 SUB PUSH1 0x1F NOT ADD PUSH2 0x320 DUP6 ADD MSTORE PUSH2 0x381C SWAP2 SWAP1 PUSH2 0x3B09 JUMP JUMPDEST PUSH2 0x320 DUP3 ADD MLOAD DUP4 DUP3 SUB PUSH1 0x1F NOT ADD PUSH2 0x340 DUP6 ADD MSTORE PUSH2 0x3839 SWAP2 SWAP1 PUSH2 0x3B09 JUMP JUMPDEST PUSH2 0x340 DUP3 ADD MLOAD DUP4 DUP3 SUB PUSH1 0x1F NOT ADD PUSH2 0x360 DUP6 ADD MSTORE PUSH2 0x3856 SWAP2 SWAP1 PUSH2 0x3B09 JUMP JUMPDEST PUSH2 0x360 DUP3 ADD MLOAD DUP4 DUP3 SUB PUSH1 0x1F NOT ADD PUSH2 0x380 DUP6 ADD MSTORE PUSH2 0x3873 SWAP2 SWAP1 PUSH2 0x3B09 JUMP JUMPDEST PUSH2 0x380 DUP3 ADD MLOAD DUP4 DUP3 SUB PUSH1 0x1F NOT ADD PUSH2 0x3A0 DUP6 ADD MSTORE PUSH2 0x3890 SWAP2 SWAP1 PUSH2 0x3B09 JUMP JUMPDEST PUSH2 0x3A0 DUP3 ADD MLOAD DUP4 DUP3 SUB PUSH1 0x1F NOT ADD PUSH2 0x3C0 DUP6 ADD MSTORE PUSH2 0x38AD SWAP2 SWAP1 PUSH2 0x3B09 JUMP JUMPDEST PUSH2 0x3C0 DUP3 ADD MLOAD DUP4 DUP3 SUB PUSH1 0x1F NOT ADD PUSH2 0x3E0 DUP6 ADD MSTORE PUSH2 0x38CA SWAP2 SWAP1 PUSH2 0x3B09 JUMP JUMPDEST PUSH2 0x3E0 DUP3 ADD MLOAD DUP4 DUP3 SUB PUSH1 0x1F NOT ADD PUSH2 0x400 DUP6 ADD MSTORE PUSH2 0x38E7 SWAP2 SWAP1 PUSH2 0x3B09 JUMP JUMPDEST SWAP1 PUSH2 0x400 ADD MLOAD SWAP1 PUSH1 0x1F NOT DUP4 DUP3 SUB ADD PUSH2 0x420 DUP5 ADD MSTORE PUSH2 0x3904 SWAP2 PUSH2 0x3B09 JUMP JUMPDEST SUB SWAP1 RETURN JUMPDEST CALLVALUE PUSH2 0x67D JUMPI PUSH1 0x0 CALLDATASIZE PUSH1 0x3 NOT ADD SLT PUSH2 0x67D JUMPI PUSH1 0x0 SLOAD PUSH1 0x40 MLOAD PUSH1 0x1 PUSH1 0x1 PUSH1 0xA0 SHL SUB SWAP1 SWAP2 AND DUP2 MSTORE PUSH1 0x20 SWAP1 RETURN JUMPDEST CALLVALUE PUSH2 0x67D JUMPI PUSH1 0x20 CALLDATASIZE PUSH1 0x3 NOT ADD SLT PUSH2 0x67D JUMPI PUSH1 0x4 CALLDATALOAD PUSH1 0x2 SLOAD DUP2 LT ISZERO PUSH2 0x67D JUMPI PUSH2 0x3958 SWAP1 PUSH2 0x397C JUMP JUMPDEST PUSH2 0x211F JUMPI PUSH2 0x3968 PUSH2 0x3904 SWAP2 PUSH2 0x3A40 JUMP JUMPDEST PUSH1 0x40 MLOAD SWAP2 DUP3 SWAP2 PUSH1 0x20 DUP4 MSTORE PUSH1 0x20 DUP4 ADD SWAP1 PUSH2 0x3B09 JUMP JUMPDEST PUSH1 0x2 SLOAD DUP2 LT ISZERO PUSH2 0x39B3 JUMPI PUSH1 0x2 PUSH1 0x0 MSTORE PUSH32 0x405787FA12A823E0F2B7631CC41B3BA8828B3321CA811111FA75CD3AA3BB5ACE ADD SWAP1 PUSH1 0x0 SWAP1 JUMP JUMPDEST PUSH4 0x4E487B71 PUSH1 0xE0 SHL PUSH1 0x0 MSTORE PUSH1 0x32 PUSH1 0x4 MSTORE PUSH1 0x24 PUSH1 0x0 REVERT JUMPDEST SWAP1 PUSH1 0x1 DUP3 DUP2 SHR SWAP3 AND DUP1 ISZERO PUSH2 0x39F9 JUMPI JUMPDEST PUSH1 0x20 DUP4 LT EQ PUSH2 0x39E3 JUMPI JUMP JUMPDEST PUSH4 0x4E487B71 PUSH1 0xE0 SHL PUSH1 0x0 MSTORE PUSH1 0x22 PUSH1 0x4 MSTORE PUSH1 0x24 PUSH1 0x0 REVERT JUMPDEST SWAP2 PUSH1 0x7F AND SWAP2 PUSH2 0x39D8 JUMP JUMPDEST PUSH2 0x420 DUP2 ADD SWAP1 DUP2 LT PUSH1 0x1 PUSH1 0x1 PUSH1 0x40 SHL SUB DUP3 GT OR PUSH2 0x2109 JUMPI PUSH1 0x40 MSTORE JUMP JUMPDEST SWAP1 PUSH1 0x1F DUP1 NOT SWAP2 ADD AND DUP2 ADD SWAP1 DUP2 LT PUSH1 0x1 PUSH1 0x1 PUSH1 0x40 SHL SUB DUP3 GT OR PUSH2 0x2109 JUMPI PUSH1 0x40 MSTORE JUMP JUMPDEST SWAP1 PUSH1 0x40 MLOAD SWAP2 DUP3 PUSH1 0x0 DUP3 SLOAD SWAP3 PUSH2 0x3A54 DUP5 PUSH2 0x39C9 JUMP JUMPDEST SWAP1 DUP2 DUP5 MSTORE PUSH1 0x1 SWAP5 DUP6 DUP2 AND SWAP1 DUP2 PUSH1 0x0 EQ PUSH2 0x3AC3 JUMPI POP PUSH1 0x1 EQ PUSH2 0x3A80 JUMPI JUMPDEST POP POP PUSH2 0x3A7E SWAP3 POP SUB DUP4 PUSH2 0x3A1F JUMP JUMPDEST JUMP JUMPDEST SWAP1 SWAP4 SWAP2 POP PUSH1 0x0 MSTORE PUSH1 0x20 SWAP1 DUP2 PUSH1 0x0 KECCAK256 SWAP4 PUSH1 0x0 SWAP2 JUMPDEST DUP2 DUP4 LT PUSH2 0x3AAB JUMPI POP POP PUSH2 0x3A7E SWAP4 POP DUP3 ADD ADD CODESIZE DUP1 PUSH2 0x3A70 JUMP JUMPDEST DUP6 SLOAD DUP9 DUP5 ADD DUP6 ADD MSTORE SWAP5 DUP6 ADD SWAP5 DUP8 SWAP5 POP SWAP2 DUP4 ADD SWAP2 PUSH2 0x3A93 JUMP JUMPDEST SWAP2 POP POP PUSH2 0x3A7E SWAP5 POP PUSH1 0x20 SWAP3 POP PUSH1 0xFF NOT AND DUP3 DUP5 ADD MSTORE ISZERO ISZERO PUSH1 0x5 SHL DUP3 ADD ADD CODESIZE DUP1 PUSH2 0x3A70 JUMP JUMPDEST PUSH1 0x0 JUMPDEST DUP4 DUP2 LT PUSH2 0x3AF9 JUMPI POP POP PUSH1 0x0 SWAP2 ADD MSTORE JUMP JUMPDEST DUP2 DUP2 ADD MLOAD DUP4 DUP3 ADD MSTORE PUSH1 0x20 ADD PUSH2 0x3AE9 JUMP JUMPDEST SWAP1 PUSH1 0x20 SWAP2 PUSH2 0x3B22 DUP2 MLOAD DUP1 SWAP3 DUP2 DUP6 MSTORE DUP6 DUP1 DUP7 ADD SWAP2 ADD PUSH2 0x3AE6 JUMP JUMPDEST PUSH1 0x1F ADD PUSH1 0x1F NOT AND ADD ADD SWAP1 JUMP JUMPDEST SWAP2 DUP2 PUSH1 0x1F DUP5 ADD SLT ISZERO PUSH2 0x67D JUMPI DUP3 CALLDATALOAD SWAP2 PUSH1 0x1 PUSH1 0x1 PUSH1 0x40 SHL SUB DUP4 GT PUSH2 0x67D JUMPI PUSH1 0x20 DUP4 DUP2 DUP7 ADD SWAP6 ADD ADD GT PUSH2 0x67D JUMPI JUMP JUMPDEST SWAP3 SWAP2 SWAP3 PUSH1 0x1 PUSH1 0x1 PUSH1 0x40 SHL SUB DUP3 GT PUSH2 0x2109 JUMPI PUSH1 0x40 MLOAD SWAP2 PUSH2 0x3B84 PUSH1 0x1F DUP3 ADD PUSH1 0x1F NOT AND PUSH1 0x20 ADD DUP5 PUSH2 0x3A1F JUMP JUMPDEST DUP3 SWAP5 DUP2 DUP5 MSTORE DUP2 DUP4 ADD GT PUSH2 0x67D JUMPI DUP3 DUP2 PUSH1 0x20 SWAP4 DUP5 PUSH1 0x0 SWAP7 ADD CALLDATACOPY ADD ADD MSTORE JUMP JUMPDEST SWAP1 PUSH1 0x1F DUP2 GT PUSH2 0x3BAF JUMPI POP POP POP JUMP JUMPDEST PUSH1 0x0 SWAP2 DUP3 MSTORE PUSH1 0x20 DUP3 KECCAK256 SWAP1 PUSH1 0x20 PUSH1 0x1F DUP6 ADD PUSH1 0x5 SHR DUP4 ADD SWAP5 LT PUSH2 0x3BEB JUMPI JUMPDEST PUSH1 0x1F ADD PUSH1 0x5 SHR ADD SWAP2 JUMPDEST DUP3 DUP2 LT PUSH2 0x3BE0 JUMPI POP POP POP JUMP JUMPDEST DUP2 DUP2 SSTORE PUSH1 0x1 ADD PUSH2 0x3BD4 JUMP JUMPDEST SWAP1 SWAP3 POP DUP3 SWAP1 PUSH2 0x3BCB JUMP JUMPDEST SWAP1 DUP1 PUSH1 0x20 SWAP4 SWAP3 DUP2 DUP5 MSTORE DUP5 DUP5 ADD CALLDATACOPY PUSH1 0x0 DUP3 DUP3 ADD DUP5 ADD MSTORE PUSH1 0x1F ADD PUSH1 0x1F NOT AND ADD ADD SWAP1 JUMP INVALID LOG2 PUSH5 0x6970667358 0x22 SLT KECCAK256 ORIGIN 0xC 0xC9 0xBF 0xF9 CHAINID PUSH31 0xE884735AFBECB420149C7B08EA9D16FC5A23302C1CB1324E8664736F6C6343 STOP ADDMOD EQ STOP CALLER "},"methodIdentifiers":{"codices(string)":"dbc21424","getCodex(string)":"83361522","inscribeCodex(string,string,string,string,string,string,string,string,string,string,string,string,string,string,string,string,string,string,string,string,string,string,string,string,string,string,string,string,string,string,string,string,string,string)":"d45b51ab","keys(uint256)":"0cb6aaf1","steward()":"637eea19","totalCodices()":"c212d16b"}}}}}