{"contracts/registry/ApprenticeSummonerXXII.sol":{"ApprenticeSummonerXXII":{"abi":[{"inputs":[],"stateMutability":"nonpayable","type":"constructor"},{"anonymous":false,"inputs":[{"indexed":true,"internalType":"address","name":"apprentice","type":"address"},{"indexed":false,"internalType":"string","name":"name","type":"string"},{"indexed":false,"internalType":"string","name":"signal","type":"string"},{"indexed":false,"internalType":"string","name":"drift","type":"string"},{"indexed":false,"internalType":"string","name":"pulse","type":"string"},{"indexed":false,"internalType":"string","name":"codexRef","type":"string"},{"indexed":false,"internalType":"string","name":"resonance","type":"string"},{"indexed":false,"internalType":"string","name":"signature","type":"string"},{"indexed":false,"internalType":"string","name":"sanctum","type":"string"},{"indexed":false,"internalType":"string","name":"chant","type":"string"},{"indexed":false,"internalType":"string","name":"choreography","type":"string"},{"indexed":false,"internalType":"string","name":"stewardName","type":"string"},{"indexed":false,"internalType":"string","name":"echo","type":"string"},{"indexed":false,"internalType":"string","name":"choreographyType","type":"string"},{"indexed":false,"internalType":"string","name":"signalType","type":"string"},{"indexed":false,"internalType":"string","name":"stewardSignal","type":"string"},{"indexed":false,"internalType":"string","name":"signalChoreography","type":"string"},{"indexed":false,"internalType":"string","name":"driftSignal","type":"string"},{"indexed":false,"internalType":"string","name":"stewardPulse","type":"string"},{"indexed":false,"internalType":"string","name":"driftPulse","type":"string"},{"indexed":false,"internalType":"string","name":"apprenticePulse","type":"string"}],"name":"ApprenticeSummoned","type":"event"},{"inputs":[{"internalType":"uint256","name":"","type":"uint256"}],"name":"apprentices","outputs":[{"internalType":"address","name":"","type":"address"}],"stateMutability":"view","type":"function"},{"inputs":[{"internalType":"address","name":"apprentice","type":"address"}],"name":"getSummons","outputs":[{"components":[{"internalType":"string","name":"name","type":"string"},{"internalType":"string","name":"signal","type":"string"},{"internalType":"string","name":"drift","type":"string"},{"internalType":"string","name":"pulse","type":"string"},{"internalType":"string","name":"codexRef","type":"string"},{"internalType":"string","name":"resonance","type":"string"},{"internalType":"string","name":"signature","type":"string"},{"internalType":"string","name":"sanctum","type":"string"},{"internalType":"string","name":"chant","type":"string"},{"internalType":"string","name":"choreography","type":"string"},{"internalType":"string","name":"stewardName","type":"string"},{"internalType":"string","name":"echo","type":"string"},{"internalType":"string","name":"choreographyType","type":"string"},{"internalType":"string","name":"signalType","type":"string"},{"internalType":"string","name":"stewardSignal","type":"string"},{"internalType":"string","name":"signalChoreography","type":"string"},{"internalType":"string","name":"driftSignal","type":"string"},{"internalType":"string","name":"stewardPulse","type":"string"},{"internalType":"string","name":"driftPulse","type":"string"},{"internalType":"string","name":"apprenticePulse","type":"string"}],"internalType":"struct ApprenticeSummonerXXII.Summons","name":"","type":"tuple"}],"stateMutability":"view","type":"function"},{"inputs":[],"name":"steward","outputs":[{"internalType":"address","name":"","type":"address"}],"stateMutability":"view","type":"function"},{"inputs":[{"internalType":"address","name":"apprentice","type":"address"},{"internalType":"string","name":"name","type":"string"},{"internalType":"string","name":"signal","type":"string"},{"internalType":"string","name":"drift","type":"string"},{"internalType":"string","name":"pulse","type":"string"},{"internalType":"string","name":"codexRef","type":"string"},{"internalType":"string","name":"resonance","type":"string"},{"internalType":"string","name":"signature","type":"string"},{"internalType":"string","name":"sanctum","type":"string"},{"internalType":"string","name":"chant","type":"string"},{"internalType":"string","name":"choreography","type":"string"},{"internalType":"string","name":"stewardName","type":"string"},{"internalType":"string","name":"echo","type":"string"},{"internalType":"string","name":"choreographyType","type":"string"},{"internalType":"string","name":"signalType","type":"string"},{"internalType":"string","name":"stewardSignal","type":"string"},{"internalType":"string","name":"signalChoreography","type":"string"},{"internalType":"string","name":"driftSignal","type":"string"},{"internalType":"string","name":"stewardPulse","type":"string"},{"internalType":"string","name":"driftPulse","type":"string"},{"internalType":"string","name":"apprenticePulse","type":"string"}],"name":"summonApprentice","outputs":[],"stateMutability":"nonpayable","type":"function"},{"inputs":[{"internalType":"address","name":"","type":"address"}],"name":"summons","outputs":[{"internalType":"string","name":"name","type":"string"},{"internalType":"string","name":"signal","type":"string"},{"internalType":"string","name":"drift","type":"string"},{"internalType":"string","name":"pulse","type":"string"},{"internalType":"string","name":"codexRef","type":"string"},{"internalType":"string","name":"resonance","type":"string"},{"internalType":"string","name":"signature","type":"string"},{"internalType":"string","name":"sanctum","type":"string"},{"internalType":"string","name":"chant","type":"string"},{"internalType":"string","name":"choreography","type":"string"},{"internalType":"string","name":"stewardName","type":"string"},{"internalType":"string","name":"echo","type":"string"},{"internalType":"string","name":"choreographyType","type":"string"},{"internalType":"string","name":"signalType","type":"string"},{"internalType":"string","name":"stewardSignal","type":"string"},{"internalType":"string","name":"signalChoreography","type":"string"},{"internalType":"string","name":"driftSignal","type":"string"},{"internalType":"string","name":"stewardPulse","type":"string"},{"internalType":"string","name":"driftPulse","type":"string"},{"internalType":"string","name":"apprenticePulse","type":"string"}],"stateMutability":"view","type":"function"},{"inputs":[],"name":"totalSummons","outputs":[{"internalType":"uint256","name":"","type":"uint256"}],"stateMutability":"view","type":"function"}],"evm":{"bytecode":{"linkReferences":{},"object":"6080806040523461002857600080546001600160a01b03191633179055612ac3908161002e8239f35b600080fdfe6106e080604052600436101561001457600080fd5b60003560e01c9081632a17d4cd1461281e575080635a2ed662146124ff578063637eea19146124d6578063c3cd134d146104e4578063cf84c603146100a95763f31bee3e1461006257600080fd5b346100a45760203660031901126100a4576004356002548110156100a45761008b6020916129d9565b905460405160039290921b1c6001600160a01b03168152f35b600080fd5b346100a45760203660031901126100a4576100c2612839565b60606102606040516100d381612889565b82815282602082015282604082015282808201528260808201528260a08201528260c08201528260e08201528261010082015282610120820152826101408201528261016082015282610180820152826101a0820152826101c0820152826101e0820152826102008201528261022082015282610240820152015260018060a01b031660005260016020526103f360406000206102c660136040519261017884612889565b610181816128c6565b845261018f600182016128c6565b60208501526101a0600282016128c6565b60408501526101b1600382016128c6565b60608501526101c2600482016128c6565b60808501526101d3600582016128c6565b60a08501526101e4600682016128c6565b60c08501526101f5600782016128c6565b60e0850152610206600882016128c6565b610100850152610218600982016128c6565b61012085015261022a600a82016128c6565b61014085015261023c600b82016128c6565b61016085015261024e600c82016128c6565b610180850152610260600d82016128c6565b6101a0850152610272600e82016128c6565b6101c0850152610284600f82016128c6565b6101e0850152610296601082016128c6565b6102008501526102a8601182016128c6565b6102208501526102ba601282016128c6565b610240850152016128c6565b6102608201526104e0816102606104cb6104b561049d61048561046d61045561043d61042561040d6040519d8e9d8e602081526101206103dd6103c76103b061039a61038461036e61035861034261032c8b5161028060208d01526102a08c019061296c565b60208c01518b8203601f190160408d015261296c565b60408b01518a8203601f190160608c015261296c565b60608a0151898203601f190160808b015261296c565b6080890151888203601f190160a08a015261296c565b60a0880151878203601f190160c089015261296c565b60c0870151868203601f190160e088015261296c565b60e0860151858203601f190161010087015261296c565b610100850151848203601f19018486015261296c565b92015190610140601f198285030191015261296c565b8d6101408d015190610160601f198285030191015261296c565b6101608b01518d8203601f19016101808f015261296c565b6101808a01518c8203601f19016101a08e015261296c565b6101a08901518b8203601f19016101c08d015261296c565b6101c08801518a8203601f19016101e08c015261296c565b6101e0870151898203601f19016102008b015261296c565b610200860151888203601f19016102208a015261296c565b610220850151878203601f190161024089015261296c565b610240840151868203601f19018488015261296c565b910151838203601f190161028085015261296c565b0390f35b346100a4576102a03660031901126100a4576104fe612839565b6106c0526024356001600160401b0381116100a4576105219036906004016129ac565b61050052610480526044356001600160401b0381116100a4576105489036906004016129ac565b610320526101c0526064356001600160401b0381116100a45761056f9036906004016129ac565b6104a052610680526084356001600160401b0381116100a4576105969036906004016129ac565b6105a0526104e05260a4356001600160401b0381116100a4576105bd9036906004016129ac565b61030052610540526001600160401b0360c435116100a4576105e43660c4356004016129ac565b610520526101e05260e4356001600160401b0381116100a45761060b9036906004016129ac565b61064052610220526001600160401b0361010435116100a45761063436610104356004016129ac565b6102e052610260526001600160401b0361012435116100a45761065d36610124356004016129ac565b6106a052610240526001600160401b0361014435116100a45761068636610144356004016129ac565b610180526103e0526001600160401b0361016435116100a4576106af36610164356004016129ac565b6101605261040052610184356001600160401b0381116100a4576106d79036906004016129ac565b60a052610340526101a4356001600160401b0381116100a4576106fe9036906004016129ac565b6102a052610120526101c4356001600160401b0381116100a4576107269036906004016129ac565b61038052610360526101e4356001600160401b0381116100a45761074e9036906004016129ac565b6105e05261020052610204356001600160401b0381116100a4576107769036906004016129ac565b6101a05261028052610224356001600160401b0381116100a45761079e9036906004016129ac565b6104405261010052610244356001600160401b0381116100a4576107c69036906004016129ac565b6101405261046052610264356001600160401b0381116100a4576107ee9036906004016129ac565b610600526104c052610284356001600160401b0381116100a4576108169036906004016129ac565b610560526102c0526000546001600160a01b031633036124a357610840604051806103a052612889565b610851366105005161048051612a26565b6103a0515261086736610320516101c051612a26565b60206103a0510152610880366104a05161068051612a26565b60406103a0510152610899366105a0516104e051612a26565b60606103a05101526108b2366103005161054051612a26565b60806103a05101526108cb36610520516101e051612a26565b60a06103a05101526108e4366106405161022051612a26565b60c06103a05101526108fd366102e05161026051612a26565b60e06103a0510152610916366106a05161024051612a26565b6101006103a051015261093036610180516103e051612a26565b6101206103a051015261094a366101605161040051612a26565b6101406103a05101526109633660a05161034051612a26565b6101606103a051015261097d366102a05161012051612a26565b6101806103a0510152610997366103805161036051612a26565b6101a06103a05101526109b1366105e05161020051612a26565b6101c06103a05101526109cb366101a05161028051612a26565b6101e06103a05101526109e5366104405161010051612a26565b6102006103a05101526109ff366101405161046051612a26565b6102206103a0510152610a1936610600516104c051612a26565b6102406103a0510152610a3336610560516102c051612a26565b6102606103a051015260018060a01b036106c05116600052600160205260406000206103a051519081516001600160401b03811161149f57610a75825461284f565b601f811161245f575b506020601f82116001146123fa578192936000926123ef575b50508160011b916000199060031b1c19161781555b60206103a05101519081516001600160401b03811161149f57610ad2600183015461284f565b601f81116123a8575b506020601f821160011461233d57819293600092612332575b50508160011b916000199060031b1c19161760018201555b60406103a05101519081516001600160401b03811161149f57610b32600283015461284f565b601f81116122eb575b506020601f821160011461228057819293600092612275575b50508160011b916000199060031b1c19161760028201555b60606103a05101518051906001600160401b03821161149f578190610b94600385015461284f565b601f8111612222575b50602090601f83116001146121b0576000926121a5575b50508160011b916000199060031b1c19161760038201555b60806103a05101518051906001600160401b03821161149f578190610bf4600485015461284f565b601f8111612152575b50602090601f83116001146120e0576000926120d5575b50508160011b916000199060031b1c19161760048201555b60a06103a05101518051906001600160401b03821161149f578190610c54600585015461284f565b601f8111612082575b50602090601f831160011461201057600092612005575b50508160011b916000199060031b1c19161760058201555b60c06103a05101518051906001600160401b03821161149f578190610cb4600685015461284f565b601f8111611fb2575b50602090601f8311600114611f4057600092611f35575b50508160011b916000199060031b1c19161760068201555b60e06103a05101518051906001600160401b03821161149f578190610d14600785015461284f565b601f8111611ee2575b50602090601f8311600114611e7057600092611e65575b50508160011b916000199060031b1c19161760078201555b6101006103a05101518051906001600160401b03821161149f578190610d75600885015461284f565b601f8111611e12575b50602090601f8311600114611da057600092611d95575b50508160011b916000199060031b1c19161760088201555b6101206103a05101518051906001600160401b03821161149f578190610dd6600985015461284f565b601f8111611d42575b50602090601f8311600114611cd057600092611cc5575b50508160011b916000199060031b1c19161760098201555b6101406103a05101518051906001600160401b03821161149f578190610e37600a85015461284f565b601f8111611c72575b50602090601f8311600114611c0057600092611bf5575b50508160011b916000199060031b1c191617600a8201555b6101606103a05101518051906001600160401b03821161149f578190610e98600b85015461284f565b601f8111611ba2575b50602090601f8311600114611b3057600092611b25575b50508160011b916000199060031b1c191617600b8201555b6101806103a05101518051906001600160401b03821161149f578190610ef9600c85015461284f565b601f8111611ad2575b50602090601f8311600114611a6057600092611a55575b50508160011b916000199060031b1c191617600c8201555b6101a06103a05101518051906001600160401b03821161149f578190610f5a600d85015461284f565b601f8111611a02575b50602090601f831160011461199057600092611985575b50508160011b916000199060031b1c191617600d8201555b6101c06103a05101518051906001600160401b03821161149f578190610fbb600e85015461284f565b601f8111611932575b50602090601f83116001146118c0576000926118b5575b50508160011b916000199060031b1c191617600e8201555b6101e06103a05101518051906001600160401b03821161149f57819061101c600f85015461284f565b601f8111611862575b50602090601f83116001146117f0576000926117e5575b50508160011b916000199060031b1c191617600f8201555b6102006103a05101518051906001600160401b03821161149f57819061107d601085015461284f565b601f8111611792575b50602090601f831160011461172057600092611715575b50508160011b916000199060031b1c19161760108201555b6102206103a05101518051906001600160401b03821161149f5781906110de601185015461284f565b601f81116116c2575b50602090601f831160011461165057600092611645575b50508160011b916000199060031b1c19161760118201555b6102406103a05101518051906001600160401b03821161149f57819061113f601285015461284f565b601f81116115f2575b50602090601f831160011461158057600092611575575b50508160011b916000199060031b1c19161760128201555b6102606103a05101518051906001600160401b03821161149f5761119e601384015461284f565b601f811161152e575b50602090601f83116001146114c05760139291600091836114b5575b50508160011b916000199060031b1c1916179101555b6002546801000000000000000081101561149f578060016111fd92016002556129d9565b81549060031b9060018060a01b036106c05116821b9160018060a01b03901b1916179055610280604051806103c0525261144761142d6114136113f96113df6113c56113ab61139161137861135e61134461132a6113116112f86112df6112c66112ad61129461127b6102806103c051016105005161048051612a6c565b6103c0516020818303910152610320516101c051612a6c565b6103c05160408183039101526104a05161068051612a6c565b6103c05160608183039101526105a0516104e051612a6c565b6103c05160808183039101526103005161054051612a6c565b6103c05160a0818303910152610520516101e051612a6c565b6103c05160c08183039101526106405161022051612a6c565b6103c05160e08183039101526102e05161026051612a6c565b6103c0516101008183039101526106a05161024051612a6c565b6103c051610120818303910152610180516103e051612a6c565b6103c0516101408183039101526101605161040051612a6c565b6103c05161016081830391015260a05161034051612a6c565b6103c0516101808183039101526102a05161012051612a6c565b6103c0516101a08183039101526103805161036051612a6c565b6103c0516101c08183039101526105e05161020051612a6c565b6103c0516101e08183039101526101a05161028051612a6c565b6103c0516102008183039101526104405161010051612a6c565b6103c0516102208183039101526101405161046051612a6c565b6103c051610240818303910152610600516104c051612a6c565b6103c0516102608183039101527f621730c4c99da8e3fc168ab43599067dcf1a3819db7130d92bc7d1c684f013df60018060a01b036106c05116916114976103c05191610560516102c051612a6c565b036103c051a2005b634e487b7160e01b600052604160045260246000fd5b0151905084806111c3565b90601384016000526020600020916000601f198516905b818110611516575091600193918560139694106114fd575b505050811b019101556111d9565b015160001960f88460031b161c191690558480806114ef565b929360206001819287860151815501950193016114d7565b601384016000526020600020601f840160051c81016020851061156e575b601f830160051c820181106115625750506111a7565b6000815560010161154c565b508061154c565b01519050838061115f565b9250601284016000526020600020906000935b601f19841685106115d7576001945083601f198116106115be575b505050811b016012820155611177565b015160001960f88460031b161c191690558380806115ae565b81810151835560209485019460019093019290910190611593565b909150601284016000526020600020601f840160051c81016020851061163e575b90849392915b601f830160051c8201811061162f575050611148565b60008155859450600101611619565b5080611613565b0151905083806110fe565b9250601184016000526020600020906000935b601f19841685106116a7576001945083601f1981161061168e575b505050811b016011820155611116565b015160001960f88460031b161c1916905583808061167e565b81810151835560209485019460019093019290910190611663565b909150601184016000526020600020601f840160051c81016020851061170e575b90849392915b601f830160051c820181106116ff5750506110e7565b600081558594506001016116e9565b50806116e3565b01519050838061109d565b9250601084016000526020600020906000935b601f1984168510611777576001945083601f1981161061175e575b505050811b0160108201556110b5565b015160001960f88460031b161c1916905583808061174e565b81810151835560209485019460019093019290910190611733565b909150601084016000526020600020601f840160051c8101602085106117de575b90849392915b601f830160051c820181106117cf575050611086565b600081558594506001016117b9565b50806117b3565b01519050838061103c565b9250600f84016000526020600020906000935b601f1984168510611847576001945083601f1981161061182e575b505050811b01600f820155611054565b015160001960f88460031b161c1916905583808061181e565b81810151835560209485019460019093019290910190611803565b909150600f84016000526020600020601f840160051c8101602085106118ae575b90849392915b601f830160051c8201811061189f575050611025565b60008155859450600101611889565b5080611883565b015190508380610fdb565b9250600e84016000526020600020906000935b601f1984168510611917576001945083601f198116106118fe575b505050811b01600e820155610ff3565b015160001960f88460031b161c191690558380806118ee565b818101518355602094850194600190930192909101906118d3565b909150600e84016000526020600020601f840160051c81016020851061197e575b90849392915b601f830160051c8201811061196f575050610fc4565b60008155859450600101611959565b5080611953565b015190508380610f7a565b9250600d84016000526020600020906000935b601f19841685106119e7576001945083601f198116106119ce575b505050811b01600d820155610f92565b015160001960f88460031b161c191690558380806119be565b818101518355602094850194600190930192909101906119a3565b909150600d84016000526020600020601f840160051c810160208510611a4e575b90849392915b601f830160051c82018110611a3f575050610f63565b60008155859450600101611a29565b5080611a23565b015190508380610f19565b9250600c84016000526020600020906000935b601f1984168510611ab7576001945083601f19811610611a9e575b505050811b01600c820155610f31565b015160001960f88460031b161c19169055838080611a8e565b81810151835560209485019460019093019290910190611a73565b909150600c84016000526020600020601f840160051c810160208510611b1e575b90849392915b601f830160051c82018110611b0f575050610f02565b60008155859450600101611af9565b5080611af3565b015190508380610eb8565b9250600b84016000526020600020906000935b601f1984168510611b87576001945083601f19811610611b6e575b505050811b01600b820155610ed0565b015160001960f88460031b161c19169055838080611b5e565b81810151835560209485019460019093019290910190611b43565b909150600b84016000526020600020601f840160051c810160208510611bee575b90849392915b601f830160051c82018110611bdf575050610ea1565b60008155859450600101611bc9565b5080611bc3565b015190508380610e57565b9250600a84016000526020600020906000935b601f1984168510611c57576001945083601f19811610611c3e575b505050811b01600a820155610e6f565b015160001960f88460031b161c19169055838080611c2e565b81810151835560209485019460019093019290910190611c13565b909150600a84016000526020600020601f840160051c810160208510611cbe575b90849392915b601f830160051c82018110611caf575050610e40565b60008155859450600101611c99565b5080611c93565b015190508380610df6565b9250600984016000526020600020906000935b601f1984168510611d27576001945083601f19811610611d0e575b505050811b016009820155610e0e565b015160001960f88460031b161c19169055838080611cfe565b81810151835560209485019460019093019290910190611ce3565b909150600984016000526020600020601f840160051c810160208510611d8e575b90849392915b601f830160051c82018110611d7f575050610ddf565b60008155859450600101611d69565b5080611d63565b015190508380610d95565b9250600884016000526020600020906000935b601f1984168510611df7576001945083601f19811610611dde575b505050811b016008820155610dad565b015160001960f88460031b161c19169055838080611dce565b81810151835560209485019460019093019290910190611db3565b909150600884016000526020600020601f840160051c810160208510611e5e575b90849392915b601f830160051c82018110611e4f575050610d7e565b60008155859450600101611e39565b5080611e33565b015190508380610d34565b9250600784016000526020600020906000935b601f1984168510611ec7576001945083601f19811610611eae575b505050811b016007820155610d4c565b015160001960f88460031b161c19169055838080611e9e565b81810151835560209485019460019093019290910190611e83565b909150600784016000526020600020601f840160051c810160208510611f2e575b90849392915b601f830160051c82018110611f1f575050610d1d565b60008155859450600101611f09565b5080611f03565b015190508380610cd4565b9250600684016000526020600020906000935b601f1984168510611f97576001945083601f19811610611f7e575b505050811b016006820155610cec565b015160001960f88460031b161c19169055838080611f6e565b81810151835560209485019460019093019290910190611f53565b909150600684016000526020600020601f840160051c810160208510611ffe575b90849392915b601f830160051c82018110611fef575050610cbd565b60008155859450600101611fd9565b5080611fd3565b015190508380610c74565b9250600584016000526020600020906000935b601f1984168510612067576001945083601f1981161061204e575b505050811b016005820155610c8c565b015160001960f88460031b161c1916905583808061203e565b81810151835560209485019460019093019290910190612023565b909150600584016000526020600020601f840160051c8101602085106120ce575b90849392915b601f830160051c820181106120bf575050610c5d565b600081558594506001016120a9565b50806120a3565b015190508380610c14565b9250600484016000526020600020906000935b601f1984168510612137576001945083601f1981161061211e575b505050811b016004820155610c2c565b015160001960f88460031b161c1916905583808061210e565b818101518355602094850194600190930192909101906120f3565b909150600484016000526020600020601f840160051c81016020851061219e575b90849392915b601f830160051c8201811061218f575050610bfd565b60008155859450600101612179565b5080612173565b015190508380610bb4565b9250600384016000526020600020906000935b601f1984168510612207576001945083601f198116106121ee575b505050811b016003820155610bcc565b015160001960f88460031b161c191690558380806121de565b818101518355602094850194600190930192909101906121c3565b909150600384016000526020600020601f840160051c81016020851061226e575b90849392915b601f830160051c8201811061225f575050610b9d565b60008155859450600101612249565b5080612243565b015190508380610b54565b60028301600052602060002090600094601f198416955b8681106122d357508360019596106122ba575b505050811b016002820155610b6c565b015160001960f88460031b161c191690558380806122aa565b91926020600181928685015181550194019201612297565b600283016000526020600020601f830160051c81016020841061232b575b601f830160051c8201811061231f575050610b3b565b60008155600101612309565b5080612309565b015190508380610af4565b60018301600052602060002090600094601f198416955b8681106123905750836001959610612377575b505050811b016001820155610b0c565b015160001960f88460031b161c19169055838080612367565b91926020600181928685015181550194019201612354565b600183016000526020600020601f830160051c8101602084106123e8575b601f830160051c820181106123dc575050610adb565b600081556001016123c6565b50806123c6565b015190508380610a97565b82600052602060002090600094601f198416955b868110612447575083600195961061242e575b505050811b018155610aac565b015160001960f88460031b161c19169055838080612421565b9192602060018192868501518155019401920161240e565b826000526020600020601f830160051c81016020841061249c575b601f830160051c82018110612490575050610a7e565b6000815560010161247a565b508061247a565b60405162461bcd60e51b815260206004820152600b60248201526a139bdd081cdd195dd85c9960aa1b6044820152606490fd5b346100a45760003660031901126100a4576000546040516001600160a01b039091168152602090f35b346100a45760203660031901126100a4576001600160a01b03612520612839565b1660005260016020526040600020612537816128c6565b612543600183016128c6565b61058052612553600283016128c6565b61042052612563600383016128c6565b61062052612573600483016128c6565b61257f600584016128c6565b61258b600685016128c6565b612597600786016128c6565b6125a3600887016128c6565b6125af600988016128c6565b906125bc600a89016128c6565b926125c9600b8a016128c6565b946125d6600c8b016128c6565b966125e3600d8c016128c6565b986125f0600e8d016128c6565b9a6125fd600f8e016128c6565b9c61260a601082016128c6565b608052612619601182016128c6565b60e052612628601282016128c6565b60c052601301612637906128c6565b61066052604051806105c0526102808091526105c051016126579161296c565b6105c051808203906020015261058051906126719161296c565b6105c0518082039060400152610420519061268b9161296c565b6105c051808203906060015261062051906126a59161296c565b6105c05180820390608001526126ba9161296c565b6105c0518082039060a001526126cf9161296c565b6105c0518082039060c001526126e49161296c565b6105c0518082039060e001526126f99161296c565b6105c05180820390610100015261270f9161296c565b6105c0518082039061012001526127259161296c565b6105c05180820390610140015261273b9161296c565b6105c0518082039061016001526127519161296c565b6105c0518082039061018001526127679161296c565b6105c051808203906101a0015261277d9161296c565b6105c051808203906101c001526127939161296c565b6105c051808203906101e001526127a99161296c565b6105c051808203906102000152608051906127c39161296c565b6105c05180820390610220015260e051906127dd9161296c565b6105c05180820390610240015260c051906127f79161296c565b6105c0518082039061026001526105c0519061066051906128179161296c565b036105c051f35b346100a45760003660031901126100a4576020906002548152f35b600435906001600160a01b03821682036100a457565b90600182811c9216801561287f575b602083101461286957565b634e487b7160e01b600052602260045260246000fd5b91607f169161285e565b61028081019081106001600160401b0382111761149f57604052565b90601f801991011681019081106001600160401b0382111761149f57604052565b90604051918260008254926128da8461284f565b9081845260019485811690816000146129495750600114612906575b5050612904925003836128a5565b565b9093915060005260209081600020936000915b818310612931575050612904935082010138806128f6565b85548884018501529485019487945091830191612919565b91505061290494506020925060ff191682840152151560051b82010138806128f6565b919082519283825260005b848110612998575050826000602080949584010152601f8019910116010190565b602081830181015184830182015201612977565b9181601f840112156100a4578235916001600160401b0383116100a457602083818601950101116100a457565b600254811015612a105760026000527f405787fa12a823e0f2b7631cc41b3ba8828b3321ca811111fa75cd3aa3bb5ace0190600090565b634e487b7160e01b600052603260045260246000fd5b9291926001600160401b03821161149f5760405191612a4f601f8201601f1916602001846128a5565b8294818452818301116100a4578281602093846000960137010152565b908060209392818452848401376000828201840152601f01601f191601019056fea264697066735822122048df1e6921b3cb472b6cde7eddfe2c4d683aabe8e56b1a9a3f3c47223a8b43c464736f6c63430008140033","opcodes":"PUSH1 0x80 DUP1 PUSH1 0x40 MSTORE CALLVALUE PUSH2 0x28 JUMPI PUSH1 0x0 DUP1 SLOAD PUSH1 0x1 PUSH1 0x1 PUSH1 0xA0 SHL SUB NOT AND CALLER OR SWAP1 SSTORE PUSH2 0x2AC3 SWAP1 DUP2 PUSH2 0x2E DUP3 CODECOPY RETURN JUMPDEST PUSH1 0x0 DUP1 REVERT INVALID PUSH2 0x6E0 DUP1 PUSH1 0x40 MSTORE PUSH1 0x4 CALLDATASIZE LT ISZERO PUSH2 0x14 JUMPI PUSH1 0x0 DUP1 REVERT JUMPDEST PUSH1 0x0 CALLDATALOAD PUSH1 0xE0 SHR SWAP1 DUP2 PUSH4 0x2A17D4CD EQ PUSH2 0x281E JUMPI POP DUP1 PUSH4 0x5A2ED662 EQ PUSH2 0x24FF JUMPI DUP1 PUSH4 0x637EEA19 EQ PUSH2 0x24D6 JUMPI DUP1 PUSH4 0xC3CD134D EQ PUSH2 0x4E4 JUMPI DUP1 PUSH4 0xCF84C603 EQ PUSH2 0xA9 JUMPI PUSH4 0xF31BEE3E EQ PUSH2 0x62 JUMPI PUSH1 0x0 DUP1 REVERT JUMPDEST CALLVALUE PUSH2 0xA4 JUMPI PUSH1 0x20 CALLDATASIZE PUSH1 0x3 NOT ADD SLT PUSH2 0xA4 JUMPI PUSH1 0x4 CALLDATALOAD PUSH1 0x2 SLOAD DUP2 LT ISZERO PUSH2 0xA4 JUMPI PUSH2 0x8B PUSH1 0x20 SWAP2 PUSH2 0x29D9 JUMP JUMPDEST SWAP1 SLOAD PUSH1 0x40 MLOAD PUSH1 0x3 SWAP3 SWAP1 SWAP3 SHL SHR PUSH1 0x1 PUSH1 0x1 PUSH1 0xA0 SHL SUB AND DUP2 MSTORE RETURN JUMPDEST PUSH1 0x0 DUP1 REVERT JUMPDEST CALLVALUE PUSH2 0xA4 JUMPI PUSH1 0x20 CALLDATASIZE PUSH1 0x3 NOT ADD SLT PUSH2 0xA4 JUMPI PUSH2 0xC2 PUSH2 0x2839 JUMP JUMPDEST PUSH1 0x60 PUSH2 0x260 PUSH1 0x40 MLOAD PUSH2 0xD3 DUP2 PUSH2 0x2889 JUMP JUMPDEST DUP3 DUP2 MSTORE DUP3 PUSH1 0x20 DUP3 ADD MSTORE DUP3 PUSH1 0x40 DUP3 ADD MSTORE DUP3 DUP1 DUP3 ADD MSTORE DUP3 PUSH1 0x80 DUP3 ADD MSTORE DUP3 PUSH1 0xA0 DUP3 ADD MSTORE DUP3 PUSH1 0xC0 DUP3 ADD MSTORE DUP3 PUSH1 0xE0 DUP3 ADD MSTORE DUP3 PUSH2 0x100 DUP3 ADD MSTORE DUP3 PUSH2 0x120 DUP3 ADD MSTORE DUP3 PUSH2 0x140 DUP3 ADD MSTORE DUP3 PUSH2 0x160 DUP3 ADD MSTORE DUP3 PUSH2 0x180 DUP3 ADD MSTORE DUP3 PUSH2 0x1A0 DUP3 ADD MSTORE DUP3 PUSH2 0x1C0 DUP3 ADD MSTORE DUP3 PUSH2 0x1E0 DUP3 ADD MSTORE DUP3 PUSH2 0x200 DUP3 ADD MSTORE DUP3 PUSH2 0x220 DUP3 ADD MSTORE DUP3 PUSH2 0x240 DUP3 ADD MSTORE ADD MSTORE PUSH1 0x1 DUP1 PUSH1 0xA0 SHL SUB AND PUSH1 0x0 MSTORE PUSH1 0x1 PUSH1 0x20 MSTORE PUSH2 0x3F3 PUSH1 0x40 PUSH1 0x0 KECCAK256 PUSH2 0x2C6 PUSH1 0x13 PUSH1 0x40 MLOAD SWAP3 PUSH2 0x178 DUP5 PUSH2 0x2889 JUMP JUMPDEST PUSH2 0x181 DUP2 PUSH2 0x28C6 JUMP JUMPDEST DUP5 MSTORE PUSH2 0x18F PUSH1 0x1 DUP3 ADD PUSH2 0x28C6 JUMP JUMPDEST PUSH1 0x20 DUP6 ADD MSTORE PUSH2 0x1A0 PUSH1 0x2 DUP3 ADD PUSH2 0x28C6 JUMP JUMPDEST PUSH1 0x40 DUP6 ADD MSTORE PUSH2 0x1B1 PUSH1 0x3 DUP3 ADD PUSH2 0x28C6 JUMP JUMPDEST PUSH1 0x60 DUP6 ADD MSTORE PUSH2 0x1C2 PUSH1 0x4 DUP3 ADD PUSH2 0x28C6 JUMP JUMPDEST PUSH1 0x80 DUP6 ADD MSTORE PUSH2 0x1D3 PUSH1 0x5 DUP3 ADD PUSH2 0x28C6 JUMP JUMPDEST PUSH1 0xA0 DUP6 ADD MSTORE PUSH2 0x1E4 PUSH1 0x6 DUP3 ADD PUSH2 0x28C6 JUMP JUMPDEST PUSH1 0xC0 DUP6 ADD MSTORE PUSH2 0x1F5 PUSH1 0x7 DUP3 ADD PUSH2 0x28C6 JUMP JUMPDEST PUSH1 0xE0 DUP6 ADD MSTORE PUSH2 0x206 PUSH1 0x8 DUP3 ADD PUSH2 0x28C6 JUMP JUMPDEST PUSH2 0x100 DUP6 ADD MSTORE PUSH2 0x218 PUSH1 0x9 DUP3 ADD PUSH2 0x28C6 JUMP JUMPDEST PUSH2 0x120 DUP6 ADD MSTORE PUSH2 0x22A PUSH1 0xA DUP3 ADD PUSH2 0x28C6 JUMP JUMPDEST PUSH2 0x140 DUP6 ADD MSTORE PUSH2 0x23C PUSH1 0xB DUP3 ADD PUSH2 0x28C6 JUMP JUMPDEST PUSH2 0x160 DUP6 ADD MSTORE PUSH2 0x24E PUSH1 0xC DUP3 ADD PUSH2 0x28C6 JUMP JUMPDEST PUSH2 0x180 DUP6 ADD MSTORE PUSH2 0x260 PUSH1 0xD DUP3 ADD PUSH2 0x28C6 JUMP JUMPDEST PUSH2 0x1A0 DUP6 ADD MSTORE PUSH2 0x272 PUSH1 0xE DUP3 ADD PUSH2 0x28C6 JUMP JUMPDEST PUSH2 0x1C0 DUP6 ADD MSTORE PUSH2 0x284 PUSH1 0xF DUP3 ADD PUSH2 0x28C6 JUMP JUMPDEST PUSH2 0x1E0 DUP6 ADD MSTORE PUSH2 0x296 PUSH1 0x10 DUP3 ADD PUSH2 0x28C6 JUMP JUMPDEST PUSH2 0x200 DUP6 ADD MSTORE PUSH2 0x2A8 PUSH1 0x11 DUP3 ADD PUSH2 0x28C6 JUMP JUMPDEST PUSH2 0x220 DUP6 ADD MSTORE PUSH2 0x2BA PUSH1 0x12 DUP3 ADD PUSH2 0x28C6 JUMP JUMPDEST PUSH2 0x240 DUP6 ADD MSTORE ADD PUSH2 0x28C6 JUMP JUMPDEST PUSH2 0x260 DUP3 ADD MSTORE PUSH2 0x4E0 DUP2 PUSH2 0x260 PUSH2 0x4CB PUSH2 0x4B5 PUSH2 0x49D PUSH2 0x485 PUSH2 0x46D PUSH2 0x455 PUSH2 0x43D PUSH2 0x425 PUSH2 0x40D PUSH1 0x40 MLOAD SWAP14 DUP15 SWAP14 DUP15 PUSH1 0x20 DUP2 MSTORE PUSH2 0x120 PUSH2 0x3DD PUSH2 0x3C7 PUSH2 0x3B0 PUSH2 0x39A PUSH2 0x384 PUSH2 0x36E PUSH2 0x358 PUSH2 0x342 PUSH2 0x32C DUP12 MLOAD PUSH2 0x280 PUSH1 0x20 DUP14 ADD MSTORE PUSH2 0x2A0 DUP13 ADD SWAP1 PUSH2 0x296C JUMP JUMPDEST PUSH1 0x20 DUP13 ADD MLOAD DUP12 DUP3 SUB PUSH1 0x1F NOT ADD PUSH1 0x40 DUP14 ADD MSTORE PUSH2 0x296C JUMP JUMPDEST PUSH1 0x40 DUP12 ADD MLOAD DUP11 DUP3 SUB PUSH1 0x1F NOT ADD PUSH1 0x60 DUP13 ADD MSTORE PUSH2 0x296C JUMP JUMPDEST PUSH1 0x60 DUP11 ADD MLOAD DUP10 DUP3 SUB PUSH1 0x1F NOT ADD PUSH1 0x80 DUP12 ADD MSTORE PUSH2 0x296C JUMP JUMPDEST PUSH1 0x80 DUP10 ADD MLOAD DUP9 DUP3 SUB PUSH1 0x1F NOT ADD PUSH1 0xA0 DUP11 ADD MSTORE PUSH2 0x296C JUMP JUMPDEST PUSH1 0xA0 DUP9 ADD MLOAD DUP8 DUP3 SUB PUSH1 0x1F NOT ADD PUSH1 0xC0 DUP10 ADD MSTORE PUSH2 0x296C JUMP JUMPDEST PUSH1 0xC0 DUP8 ADD MLOAD DUP7 DUP3 SUB PUSH1 0x1F NOT ADD PUSH1 0xE0 DUP9 ADD MSTORE PUSH2 0x296C JUMP JUMPDEST PUSH1 0xE0 DUP7 ADD MLOAD DUP6 DUP3 SUB PUSH1 0x1F NOT ADD PUSH2 0x100 DUP8 ADD MSTORE PUSH2 0x296C JUMP JUMPDEST PUSH2 0x100 DUP6 ADD MLOAD DUP5 DUP3 SUB PUSH1 0x1F NOT ADD DUP5 DUP7 ADD MSTORE PUSH2 0x296C JUMP JUMPDEST SWAP3 ADD MLOAD SWAP1 PUSH2 0x140 PUSH1 0x1F NOT DUP3 DUP6 SUB ADD SWAP2 ADD MSTORE PUSH2 0x296C JUMP JUMPDEST DUP14 PUSH2 0x140 DUP14 ADD MLOAD SWAP1 PUSH2 0x160 PUSH1 0x1F NOT DUP3 DUP6 SUB ADD SWAP2 ADD MSTORE PUSH2 0x296C JUMP JUMPDEST PUSH2 0x160 DUP12 ADD MLOAD DUP14 DUP3 SUB PUSH1 0x1F NOT ADD PUSH2 0x180 DUP16 ADD MSTORE PUSH2 0x296C JUMP JUMPDEST PUSH2 0x180 DUP11 ADD MLOAD DUP13 DUP3 SUB PUSH1 0x1F NOT ADD PUSH2 0x1A0 DUP15 ADD MSTORE PUSH2 0x296C JUMP JUMPDEST PUSH2 0x1A0 DUP10 ADD MLOAD DUP12 DUP3 SUB PUSH1 0x1F NOT ADD PUSH2 0x1C0 DUP14 ADD MSTORE PUSH2 0x296C JUMP JUMPDEST PUSH2 0x1C0 DUP9 ADD MLOAD DUP11 DUP3 SUB PUSH1 0x1F NOT ADD PUSH2 0x1E0 DUP13 ADD MSTORE PUSH2 0x296C JUMP JUMPDEST PUSH2 0x1E0 DUP8 ADD MLOAD DUP10 DUP3 SUB PUSH1 0x1F NOT ADD PUSH2 0x200 DUP12 ADD MSTORE PUSH2 0x296C JUMP JUMPDEST PUSH2 0x200 DUP7 ADD MLOAD DUP9 DUP3 SUB PUSH1 0x1F NOT ADD PUSH2 0x220 DUP11 ADD MSTORE PUSH2 0x296C JUMP JUMPDEST PUSH2 0x220 DUP6 ADD MLOAD DUP8 DUP3 SUB PUSH1 0x1F NOT ADD PUSH2 0x240 DUP10 ADD MSTORE PUSH2 0x296C JUMP JUMPDEST PUSH2 0x240 DUP5 ADD MLOAD DUP7 DUP3 SUB PUSH1 0x1F NOT ADD DUP5 DUP9 ADD MSTORE PUSH2 0x296C JUMP JUMPDEST SWAP2 ADD MLOAD DUP4 DUP3 SUB PUSH1 0x1F NOT ADD PUSH2 0x280 DUP6 ADD MSTORE PUSH2 0x296C JUMP JUMPDEST SUB SWAP1 RETURN JUMPDEST CALLVALUE PUSH2 0xA4 JUMPI PUSH2 0x2A0 CALLDATASIZE PUSH1 0x3 NOT ADD SLT PUSH2 0xA4 JUMPI PUSH2 0x4FE PUSH2 0x2839 JUMP JUMPDEST PUSH2 0x6C0 MSTORE PUSH1 0x24 CALLDATALOAD PUSH1 0x1 PUSH1 0x1 PUSH1 0x40 SHL SUB DUP2 GT PUSH2 0xA4 JUMPI PUSH2 0x521 SWAP1 CALLDATASIZE SWAP1 PUSH1 0x4 ADD PUSH2 0x29AC JUMP JUMPDEST PUSH2 0x500 MSTORE PUSH2 0x480 MSTORE PUSH1 0x44 CALLDATALOAD PUSH1 0x1 PUSH1 0x1 PUSH1 0x40 SHL SUB DUP2 GT PUSH2 0xA4 JUMPI PUSH2 0x548 SWAP1 CALLDATASIZE SWAP1 PUSH1 0x4 ADD PUSH2 0x29AC JUMP JUMPDEST PUSH2 0x320 MSTORE PUSH2 0x1C0 MSTORE PUSH1 0x64 CALLDATALOAD PUSH1 0x1 PUSH1 0x1 PUSH1 0x40 SHL SUB DUP2 GT PUSH2 0xA4 JUMPI PUSH2 0x56F SWAP1 CALLDATASIZE SWAP1 PUSH1 0x4 ADD PUSH2 0x29AC JUMP JUMPDEST PUSH2 0x4A0 MSTORE PUSH2 0x680 MSTORE PUSH1 0x84 CALLDATALOAD PUSH1 0x1 PUSH1 0x1 PUSH1 0x40 SHL SUB DUP2 GT PUSH2 0xA4 JUMPI PUSH2 0x596 SWAP1 CALLDATASIZE SWAP1 PUSH1 0x4 ADD PUSH2 0x29AC JUMP JUMPDEST PUSH2 0x5A0 MSTORE PUSH2 0x4E0 MSTORE PUSH1 0xA4 CALLDATALOAD PUSH1 0x1 PUSH1 0x1 PUSH1 0x40 SHL SUB DUP2 GT PUSH2 0xA4 JUMPI PUSH2 0x5BD SWAP1 CALLDATASIZE SWAP1 PUSH1 0x4 ADD PUSH2 0x29AC JUMP JUMPDEST PUSH2 0x300 MSTORE PUSH2 0x540 MSTORE PUSH1 0x1 PUSH1 0x1 PUSH1 0x40 SHL SUB PUSH1 0xC4 CALLDATALOAD GT PUSH2 0xA4 JUMPI PUSH2 0x5E4 CALLDATASIZE PUSH1 0xC4 CALLDATALOAD PUSH1 0x4 ADD PUSH2 0x29AC JUMP JUMPDEST PUSH2 0x520 MSTORE PUSH2 0x1E0 MSTORE PUSH1 0xE4 CALLDATALOAD PUSH1 0x1 PUSH1 0x1 PUSH1 0x40 SHL SUB DUP2 GT PUSH2 0xA4 JUMPI PUSH2 0x60B SWAP1 CALLDATASIZE SWAP1 PUSH1 0x4 ADD PUSH2 0x29AC JUMP JUMPDEST PUSH2 0x640 MSTORE PUSH2 0x220 MSTORE PUSH1 0x1 PUSH1 0x1 PUSH1 0x40 SHL SUB PUSH2 0x104 CALLDATALOAD GT PUSH2 0xA4 JUMPI PUSH2 0x634 CALLDATASIZE PUSH2 0x104 CALLDATALOAD PUSH1 0x4 ADD PUSH2 0x29AC JUMP JUMPDEST PUSH2 0x2E0 MSTORE PUSH2 0x260 MSTORE PUSH1 0x1 PUSH1 0x1 PUSH1 0x40 SHL SUB PUSH2 0x124 CALLDATALOAD GT PUSH2 0xA4 JUMPI PUSH2 0x65D CALLDATASIZE PUSH2 0x124 CALLDATALOAD PUSH1 0x4 ADD PUSH2 0x29AC JUMP JUMPDEST PUSH2 0x6A0 MSTORE PUSH2 0x240 MSTORE PUSH1 0x1 PUSH1 0x1 PUSH1 0x40 SHL SUB PUSH2 0x144 CALLDATALOAD GT PUSH2 0xA4 JUMPI PUSH2 0x686 CALLDATASIZE PUSH2 0x144 CALLDATALOAD PUSH1 0x4 ADD PUSH2 0x29AC JUMP JUMPDEST PUSH2 0x180 MSTORE PUSH2 0x3E0 MSTORE PUSH1 0x1 PUSH1 0x1 PUSH1 0x40 SHL SUB PUSH2 0x164 CALLDATALOAD GT PUSH2 0xA4 JUMPI PUSH2 0x6AF CALLDATASIZE PUSH2 0x164 CALLDATALOAD PUSH1 0x4 ADD PUSH2 0x29AC JUMP JUMPDEST PUSH2 0x160 MSTORE PUSH2 0x400 MSTORE PUSH2 0x184 CALLDATALOAD PUSH1 0x1 PUSH1 0x1 PUSH1 0x40 SHL SUB DUP2 GT PUSH2 0xA4 JUMPI PUSH2 0x6D7 SWAP1 CALLDATASIZE SWAP1 PUSH1 0x4 ADD PUSH2 0x29AC JUMP JUMPDEST PUSH1 0xA0 MSTORE PUSH2 0x340 MSTORE PUSH2 0x1A4 CALLDATALOAD PUSH1 0x1 PUSH1 0x1 PUSH1 0x40 SHL SUB DUP2 GT PUSH2 0xA4 JUMPI PUSH2 0x6FE SWAP1 CALLDATASIZE SWAP1 PUSH1 0x4 ADD PUSH2 0x29AC JUMP JUMPDEST PUSH2 0x2A0 MSTORE PUSH2 0x120 MSTORE PUSH2 0x1C4 CALLDATALOAD PUSH1 0x1 PUSH1 0x1 PUSH1 0x40 SHL SUB DUP2 GT PUSH2 0xA4 JUMPI PUSH2 0x726 SWAP1 CALLDATASIZE SWAP1 PUSH1 0x4 ADD PUSH2 0x29AC JUMP JUMPDEST PUSH2 0x380 MSTORE PUSH2 0x360 MSTORE PUSH2 0x1E4 CALLDATALOAD PUSH1 0x1 PUSH1 0x1 PUSH1 0x40 SHL SUB DUP2 GT PUSH2 0xA4 JUMPI PUSH2 0x74E SWAP1 CALLDATASIZE SWAP1 PUSH1 0x4 ADD PUSH2 0x29AC JUMP JUMPDEST PUSH2 0x5E0 MSTORE PUSH2 0x200 MSTORE PUSH2 0x204 CALLDATALOAD PUSH1 0x1 PUSH1 0x1 PUSH1 0x40 SHL SUB DUP2 GT PUSH2 0xA4 JUMPI PUSH2 0x776 SWAP1 CALLDATASIZE SWAP1 PUSH1 0x4 ADD PUSH2 0x29AC JUMP JUMPDEST PUSH2 0x1A0 MSTORE PUSH2 0x280 MSTORE PUSH2 0x224 CALLDATALOAD PUSH1 0x1 PUSH1 0x1 PUSH1 0x40 SHL SUB DUP2 GT PUSH2 0xA4 JUMPI PUSH2 0x79E SWAP1 CALLDATASIZE SWAP1 PUSH1 0x4 ADD PUSH2 0x29AC JUMP JUMPDEST PUSH2 0x440 MSTORE PUSH2 0x100 MSTORE PUSH2 0x244 CALLDATALOAD PUSH1 0x1 PUSH1 0x1 PUSH1 0x40 SHL SUB DUP2 GT PUSH2 0xA4 JUMPI PUSH2 0x7C6 SWAP1 CALLDATASIZE SWAP1 PUSH1 0x4 ADD PUSH2 0x29AC JUMP JUMPDEST PUSH2 0x140 MSTORE PUSH2 0x460 MSTORE PUSH2 0x264 CALLDATALOAD PUSH1 0x1 PUSH1 0x1 PUSH1 0x40 SHL SUB DUP2 GT PUSH2 0xA4 JUMPI PUSH2 0x7EE SWAP1 CALLDATASIZE SWAP1 PUSH1 0x4 ADD PUSH2 0x29AC JUMP JUMPDEST PUSH2 0x600 MSTORE PUSH2 0x4C0 MSTORE PUSH2 0x284 CALLDATALOAD PUSH1 0x1 PUSH1 0x1 PUSH1 0x40 SHL SUB DUP2 GT PUSH2 0xA4 JUMPI PUSH2 0x816 SWAP1 CALLDATASIZE SWAP1 PUSH1 0x4 ADD PUSH2 0x29AC JUMP JUMPDEST PUSH2 0x560 MSTORE PUSH2 0x2C0 MSTORE PUSH1 0x0 SLOAD PUSH1 0x1 PUSH1 0x1 PUSH1 0xA0 SHL SUB AND CALLER SUB PUSH2 0x24A3 JUMPI PUSH2 0x840 PUSH1 0x40 MLOAD DUP1 PUSH2 0x3A0 MSTORE PUSH2 0x2889 JUMP JUMPDEST PUSH2 0x851 CALLDATASIZE PUSH2 0x500 MLOAD PUSH2 0x480 MLOAD PUSH2 0x2A26 JUMP JUMPDEST PUSH2 0x3A0 MLOAD MSTORE PUSH2 0x867 CALLDATASIZE PUSH2 0x320 MLOAD PUSH2 0x1C0 MLOAD PUSH2 0x2A26 JUMP JUMPDEST PUSH1 0x20 PUSH2 0x3A0 MLOAD ADD MSTORE PUSH2 0x880 CALLDATASIZE PUSH2 0x4A0 MLOAD PUSH2 0x680 MLOAD PUSH2 0x2A26 JUMP JUMPDEST PUSH1 0x40 PUSH2 0x3A0 MLOAD ADD MSTORE PUSH2 0x899 CALLDATASIZE PUSH2 0x5A0 MLOAD PUSH2 0x4E0 MLOAD PUSH2 0x2A26 JUMP JUMPDEST PUSH1 0x60 PUSH2 0x3A0 MLOAD ADD MSTORE PUSH2 0x8B2 CALLDATASIZE PUSH2 0x300 MLOAD PUSH2 0x540 MLOAD PUSH2 0x2A26 JUMP JUMPDEST PUSH1 0x80 PUSH2 0x3A0 MLOAD ADD MSTORE PUSH2 0x8CB CALLDATASIZE PUSH2 0x520 MLOAD PUSH2 0x1E0 MLOAD PUSH2 0x2A26 JUMP JUMPDEST PUSH1 0xA0 PUSH2 0x3A0 MLOAD ADD MSTORE PUSH2 0x8E4 CALLDATASIZE PUSH2 0x640 MLOAD PUSH2 0x220 MLOAD PUSH2 0x2A26 JUMP JUMPDEST PUSH1 0xC0 PUSH2 0x3A0 MLOAD ADD MSTORE PUSH2 0x8FD CALLDATASIZE PUSH2 0x2E0 MLOAD PUSH2 0x260 MLOAD PUSH2 0x2A26 JUMP JUMPDEST PUSH1 0xE0 PUSH2 0x3A0 MLOAD ADD MSTORE PUSH2 0x916 CALLDATASIZE PUSH2 0x6A0 MLOAD PUSH2 0x240 MLOAD PUSH2 0x2A26 JUMP JUMPDEST PUSH2 0x100 PUSH2 0x3A0 MLOAD ADD MSTORE PUSH2 0x930 CALLDATASIZE PUSH2 0x180 MLOAD PUSH2 0x3E0 MLOAD PUSH2 0x2A26 JUMP JUMPDEST PUSH2 0x120 PUSH2 0x3A0 MLOAD ADD MSTORE PUSH2 0x94A CALLDATASIZE PUSH2 0x160 MLOAD PUSH2 0x400 MLOAD PUSH2 0x2A26 JUMP JUMPDEST PUSH2 0x140 PUSH2 0x3A0 MLOAD ADD MSTORE PUSH2 0x963 CALLDATASIZE PUSH1 0xA0 MLOAD PUSH2 0x340 MLOAD PUSH2 0x2A26 JUMP JUMPDEST PUSH2 0x160 PUSH2 0x3A0 MLOAD ADD MSTORE PUSH2 0x97D CALLDATASIZE PUSH2 0x2A0 MLOAD PUSH2 0x120 MLOAD PUSH2 0x2A26 JUMP JUMPDEST PUSH2 0x180 PUSH2 0x3A0 MLOAD ADD MSTORE PUSH2 0x997 CALLDATASIZE PUSH2 0x380 MLOAD PUSH2 0x360 MLOAD PUSH2 0x2A26 JUMP JUMPDEST PUSH2 0x1A0 PUSH2 0x3A0 MLOAD ADD MSTORE PUSH2 0x9B1 CALLDATASIZE PUSH2 0x5E0 MLOAD PUSH2 0x200 MLOAD PUSH2 0x2A26 JUMP JUMPDEST PUSH2 0x1C0 PUSH2 0x3A0 MLOAD ADD MSTORE PUSH2 0x9CB CALLDATASIZE PUSH2 0x1A0 MLOAD PUSH2 0x280 MLOAD PUSH2 0x2A26 JUMP JUMPDEST PUSH2 0x1E0 PUSH2 0x3A0 MLOAD ADD MSTORE PUSH2 0x9E5 CALLDATASIZE PUSH2 0x440 MLOAD PUSH2 0x100 MLOAD PUSH2 0x2A26 JUMP JUMPDEST PUSH2 0x200 PUSH2 0x3A0 MLOAD ADD MSTORE PUSH2 0x9FF CALLDATASIZE PUSH2 0x140 MLOAD PUSH2 0x460 MLOAD PUSH2 0x2A26 JUMP JUMPDEST PUSH2 0x220 PUSH2 0x3A0 MLOAD ADD MSTORE PUSH2 0xA19 CALLDATASIZE PUSH2 0x600 MLOAD PUSH2 0x4C0 MLOAD PUSH2 0x2A26 JUMP JUMPDEST PUSH2 0x240 PUSH2 0x3A0 MLOAD ADD MSTORE PUSH2 0xA33 CALLDATASIZE PUSH2 0x560 MLOAD PUSH2 0x2C0 MLOAD PUSH2 0x2A26 JUMP JUMPDEST PUSH2 0x260 PUSH2 0x3A0 MLOAD ADD MSTORE PUSH1 0x1 DUP1 PUSH1 0xA0 SHL SUB PUSH2 0x6C0 MLOAD AND PUSH1 0x0 MSTORE PUSH1 0x1 PUSH1 0x20 MSTORE PUSH1 0x40 PUSH1 0x0 KECCAK256 PUSH2 0x3A0 MLOAD MLOAD SWAP1 DUP2 MLOAD PUSH1 0x1 PUSH1 0x1 PUSH1 0x40 SHL SUB DUP2 GT PUSH2 0x149F JUMPI PUSH2 0xA75 DUP3 SLOAD PUSH2 0x284F JUMP JUMPDEST PUSH1 0x1F DUP2 GT PUSH2 0x245F JUMPI JUMPDEST POP PUSH1 0x20 PUSH1 0x1F DUP3 GT PUSH1 0x1 EQ PUSH2 0x23FA JUMPI DUP2 SWAP3 SWAP4 PUSH1 0x0 SWAP3 PUSH2 0x23EF JUMPI JUMPDEST POP POP DUP2 PUSH1 0x1 SHL SWAP2 PUSH1 0x0 NOT SWAP1 PUSH1 0x3 SHL SHR NOT AND OR DUP2 SSTORE JUMPDEST PUSH1 0x20 PUSH2 0x3A0 MLOAD ADD MLOAD SWAP1 DUP2 MLOAD PUSH1 0x1 PUSH1 0x1 PUSH1 0x40 SHL SUB DUP2 GT PUSH2 0x149F JUMPI PUSH2 0xAD2 PUSH1 0x1 DUP4 ADD SLOAD PUSH2 0x284F JUMP JUMPDEST PUSH1 0x1F DUP2 GT PUSH2 0x23A8 JUMPI JUMPDEST POP PUSH1 0x20 PUSH1 0x1F DUP3 GT PUSH1 0x1 EQ PUSH2 0x233D JUMPI DUP2 SWAP3 SWAP4 PUSH1 0x0 SWAP3 PUSH2 0x2332 JUMPI JUMPDEST POP POP DUP2 PUSH1 0x1 SHL SWAP2 PUSH1 0x0 NOT SWAP1 PUSH1 0x3 SHL SHR NOT AND OR PUSH1 0x1 DUP3 ADD SSTORE JUMPDEST PUSH1 0x40 PUSH2 0x3A0 MLOAD ADD MLOAD SWAP1 DUP2 MLOAD PUSH1 0x1 PUSH1 0x1 PUSH1 0x40 SHL SUB DUP2 GT PUSH2 0x149F JUMPI PUSH2 0xB32 PUSH1 0x2 DUP4 ADD SLOAD PUSH2 0x284F JUMP JUMPDEST PUSH1 0x1F DUP2 GT PUSH2 0x22EB JUMPI JUMPDEST POP PUSH1 0x20 PUSH1 0x1F DUP3 GT PUSH1 0x1 EQ PUSH2 0x2280 JUMPI DUP2 SWAP3 SWAP4 PUSH1 0x0 SWAP3 PUSH2 0x2275 JUMPI JUMPDEST POP POP DUP2 PUSH1 0x1 SHL SWAP2 PUSH1 0x0 NOT SWAP1 PUSH1 0x3 SHL SHR NOT AND OR PUSH1 0x2 DUP3 ADD SSTORE JUMPDEST PUSH1 0x60 PUSH2 0x3A0 MLOAD ADD MLOAD DUP1 MLOAD SWAP1 PUSH1 0x1 PUSH1 0x1 PUSH1 0x40 SHL SUB DUP3 GT PUSH2 0x149F JUMPI DUP2 SWAP1 PUSH2 0xB94 PUSH1 0x3 DUP6 ADD SLOAD PUSH2 0x284F JUMP JUMPDEST PUSH1 0x1F DUP2 GT PUSH2 0x2222 JUMPI JUMPDEST POP PUSH1 0x20 SWAP1 PUSH1 0x1F DUP4 GT PUSH1 0x1 EQ PUSH2 0x21B0 JUMPI PUSH1 0x0 SWAP3 PUSH2 0x21A5 JUMPI JUMPDEST POP POP DUP2 PUSH1 0x1 SHL SWAP2 PUSH1 0x0 NOT SWAP1 PUSH1 0x3 SHL SHR NOT AND OR PUSH1 0x3 DUP3 ADD SSTORE JUMPDEST PUSH1 0x80 PUSH2 0x3A0 MLOAD ADD MLOAD DUP1 MLOAD SWAP1 PUSH1 0x1 PUSH1 0x1 PUSH1 0x40 SHL SUB DUP3 GT PUSH2 0x149F JUMPI DUP2 SWAP1 PUSH2 0xBF4 PUSH1 0x4 DUP6 ADD SLOAD PUSH2 0x284F JUMP JUMPDEST PUSH1 0x1F DUP2 GT PUSH2 0x2152 JUMPI JUMPDEST POP PUSH1 0x20 SWAP1 PUSH1 0x1F DUP4 GT PUSH1 0x1 EQ PUSH2 0x20E0 JUMPI PUSH1 0x0 SWAP3 PUSH2 0x20D5 JUMPI JUMPDEST POP POP DUP2 PUSH1 0x1 SHL SWAP2 PUSH1 0x0 NOT SWAP1 PUSH1 0x3 SHL SHR NOT AND OR PUSH1 0x4 DUP3 ADD SSTORE JUMPDEST PUSH1 0xA0 PUSH2 0x3A0 MLOAD ADD MLOAD DUP1 MLOAD SWAP1 PUSH1 0x1 PUSH1 0x1 PUSH1 0x40 SHL SUB DUP3 GT PUSH2 0x149F JUMPI DUP2 SWAP1 PUSH2 0xC54 PUSH1 0x5 DUP6 ADD SLOAD PUSH2 0x284F JUMP JUMPDEST PUSH1 0x1F DUP2 GT PUSH2 0x2082 JUMPI JUMPDEST POP PUSH1 0x20 SWAP1 PUSH1 0x1F DUP4 GT PUSH1 0x1 EQ PUSH2 0x2010 JUMPI PUSH1 0x0 SWAP3 PUSH2 0x2005 JUMPI JUMPDEST POP POP DUP2 PUSH1 0x1 SHL SWAP2 PUSH1 0x0 NOT SWAP1 PUSH1 0x3 SHL SHR NOT AND OR PUSH1 0x5 DUP3 ADD SSTORE JUMPDEST PUSH1 0xC0 PUSH2 0x3A0 MLOAD ADD MLOAD DUP1 MLOAD SWAP1 PUSH1 0x1 PUSH1 0x1 PUSH1 0x40 SHL SUB DUP3 GT PUSH2 0x149F JUMPI DUP2 SWAP1 PUSH2 0xCB4 PUSH1 0x6 DUP6 ADD SLOAD PUSH2 0x284F JUMP JUMPDEST PUSH1 0x1F DUP2 GT PUSH2 0x1FB2 JUMPI JUMPDEST POP PUSH1 0x20 SWAP1 PUSH1 0x1F DUP4 GT PUSH1 0x1 EQ PUSH2 0x1F40 JUMPI PUSH1 0x0 SWAP3 PUSH2 0x1F35 JUMPI JUMPDEST POP POP DUP2 PUSH1 0x1 SHL SWAP2 PUSH1 0x0 NOT SWAP1 PUSH1 0x3 SHL SHR NOT AND OR PUSH1 0x6 DUP3 ADD SSTORE JUMPDEST PUSH1 0xE0 PUSH2 0x3A0 MLOAD ADD MLOAD DUP1 MLOAD SWAP1 PUSH1 0x1 PUSH1 0x1 PUSH1 0x40 SHL SUB DUP3 GT PUSH2 0x149F JUMPI DUP2 SWAP1 PUSH2 0xD14 PUSH1 0x7 DUP6 ADD SLOAD PUSH2 0x284F JUMP JUMPDEST PUSH1 0x1F DUP2 GT PUSH2 0x1EE2 JUMPI JUMPDEST POP PUSH1 0x20 SWAP1 PUSH1 0x1F DUP4 GT PUSH1 0x1 EQ PUSH2 0x1E70 JUMPI PUSH1 0x0 SWAP3 PUSH2 0x1E65 JUMPI JUMPDEST POP POP DUP2 PUSH1 0x1 SHL SWAP2 PUSH1 0x0 NOT SWAP1 PUSH1 0x3 SHL SHR NOT AND OR PUSH1 0x7 DUP3 ADD SSTORE JUMPDEST PUSH2 0x100 PUSH2 0x3A0 MLOAD ADD MLOAD DUP1 MLOAD SWAP1 PUSH1 0x1 PUSH1 0x1 PUSH1 0x40 SHL SUB DUP3 GT PUSH2 0x149F JUMPI DUP2 SWAP1 PUSH2 0xD75 PUSH1 0x8 DUP6 ADD SLOAD PUSH2 0x284F JUMP JUMPDEST PUSH1 0x1F DUP2 GT PUSH2 0x1E12 JUMPI JUMPDEST POP PUSH1 0x20 SWAP1 PUSH1 0x1F DUP4 GT PUSH1 0x1 EQ PUSH2 0x1DA0 JUMPI PUSH1 0x0 SWAP3 PUSH2 0x1D95 JUMPI JUMPDEST POP POP DUP2 PUSH1 0x1 SHL SWAP2 PUSH1 0x0 NOT SWAP1 PUSH1 0x3 SHL SHR NOT AND OR PUSH1 0x8 DUP3 ADD SSTORE JUMPDEST PUSH2 0x120 PUSH2 0x3A0 MLOAD ADD MLOAD DUP1 MLOAD SWAP1 PUSH1 0x1 PUSH1 0x1 PUSH1 0x40 SHL SUB DUP3 GT PUSH2 0x149F JUMPI DUP2 SWAP1 PUSH2 0xDD6 PUSH1 0x9 DUP6 ADD SLOAD PUSH2 0x284F JUMP JUMPDEST PUSH1 0x1F DUP2 GT PUSH2 0x1D42 JUMPI JUMPDEST POP PUSH1 0x20 SWAP1 PUSH1 0x1F DUP4 GT PUSH1 0x1 EQ PUSH2 0x1CD0 JUMPI PUSH1 0x0 SWAP3 PUSH2 0x1CC5 JUMPI JUMPDEST POP POP DUP2 PUSH1 0x1 SHL SWAP2 PUSH1 0x0 NOT SWAP1 PUSH1 0x3 SHL SHR NOT AND OR PUSH1 0x9 DUP3 ADD SSTORE JUMPDEST PUSH2 0x140 PUSH2 0x3A0 MLOAD ADD MLOAD DUP1 MLOAD SWAP1 PUSH1 0x1 PUSH1 0x1 PUSH1 0x40 SHL SUB DUP3 GT PUSH2 0x149F JUMPI DUP2 SWAP1 PUSH2 0xE37 PUSH1 0xA DUP6 ADD SLOAD PUSH2 0x284F JUMP JUMPDEST PUSH1 0x1F DUP2 GT PUSH2 0x1C72 JUMPI JUMPDEST POP PUSH1 0x20 SWAP1 PUSH1 0x1F DUP4 GT PUSH1 0x1 EQ PUSH2 0x1C00 JUMPI PUSH1 0x0 SWAP3 PUSH2 0x1BF5 JUMPI JUMPDEST POP POP DUP2 PUSH1 0x1 SHL SWAP2 PUSH1 0x0 NOT SWAP1 PUSH1 0x3 SHL SHR NOT AND OR PUSH1 0xA DUP3 ADD SSTORE JUMPDEST PUSH2 0x160 PUSH2 0x3A0 MLOAD ADD MLOAD DUP1 MLOAD SWAP1 PUSH1 0x1 PUSH1 0x1 PUSH1 0x40 SHL SUB DUP3 GT PUSH2 0x149F JUMPI DUP2 SWAP1 PUSH2 0xE98 PUSH1 0xB DUP6 ADD SLOAD PUSH2 0x284F JUMP JUMPDEST PUSH1 0x1F DUP2 GT PUSH2 0x1BA2 JUMPI JUMPDEST POP PUSH1 0x20 SWAP1 PUSH1 0x1F DUP4 GT PUSH1 0x1 EQ PUSH2 0x1B30 JUMPI PUSH1 0x0 SWAP3 PUSH2 0x1B25 JUMPI JUMPDEST POP POP DUP2 PUSH1 0x1 SHL SWAP2 PUSH1 0x0 NOT SWAP1 PUSH1 0x3 SHL SHR NOT AND OR PUSH1 0xB DUP3 ADD SSTORE JUMPDEST PUSH2 0x180 PUSH2 0x3A0 MLOAD ADD MLOAD DUP1 MLOAD SWAP1 PUSH1 0x1 PUSH1 0x1 PUSH1 0x40 SHL SUB DUP3 GT PUSH2 0x149F JUMPI DUP2 SWAP1 PUSH2 0xEF9 PUSH1 0xC DUP6 ADD SLOAD PUSH2 0x284F JUMP JUMPDEST PUSH1 0x1F DUP2 GT PUSH2 0x1AD2 JUMPI JUMPDEST POP PUSH1 0x20 SWAP1 PUSH1 0x1F DUP4 GT PUSH1 0x1 EQ PUSH2 0x1A60 JUMPI PUSH1 0x0 SWAP3 PUSH2 0x1A55 JUMPI JUMPDEST POP POP DUP2 PUSH1 0x1 SHL SWAP2 PUSH1 0x0 NOT SWAP1 PUSH1 0x3 SHL SHR NOT AND OR PUSH1 0xC DUP3 ADD SSTORE JUMPDEST PUSH2 0x1A0 PUSH2 0x3A0 MLOAD ADD MLOAD DUP1 MLOAD SWAP1 PUSH1 0x1 PUSH1 0x1 PUSH1 0x40 SHL SUB DUP3 GT PUSH2 0x149F JUMPI DUP2 SWAP1 PUSH2 0xF5A PUSH1 0xD DUP6 ADD SLOAD PUSH2 0x284F JUMP JUMPDEST PUSH1 0x1F DUP2 GT PUSH2 0x1A02 JUMPI JUMPDEST POP PUSH1 0x20 SWAP1 PUSH1 0x1F DUP4 GT PUSH1 0x1 EQ PUSH2 0x1990 JUMPI PUSH1 0x0 SWAP3 PUSH2 0x1985 JUMPI JUMPDEST POP POP DUP2 PUSH1 0x1 SHL SWAP2 PUSH1 0x0 NOT SWAP1 PUSH1 0x3 SHL SHR NOT AND OR PUSH1 0xD DUP3 ADD SSTORE JUMPDEST PUSH2 0x1C0 PUSH2 0x3A0 MLOAD ADD MLOAD DUP1 MLOAD SWAP1 PUSH1 0x1 PUSH1 0x1 PUSH1 0x40 SHL SUB DUP3 GT PUSH2 0x149F JUMPI DUP2 SWAP1 PUSH2 0xFBB PUSH1 0xE DUP6 ADD SLOAD PUSH2 0x284F JUMP JUMPDEST PUSH1 0x1F DUP2 GT PUSH2 0x1932 JUMPI JUMPDEST POP PUSH1 0x20 SWAP1 PUSH1 0x1F DUP4 GT PUSH1 0x1 EQ PUSH2 0x18C0 JUMPI PUSH1 0x0 SWAP3 PUSH2 0x18B5 JUMPI JUMPDEST POP POP DUP2 PUSH1 0x1 SHL SWAP2 PUSH1 0x0 NOT SWAP1 PUSH1 0x3 SHL SHR NOT AND OR PUSH1 0xE DUP3 ADD SSTORE JUMPDEST PUSH2 0x1E0 PUSH2 0x3A0 MLOAD ADD MLOAD DUP1 MLOAD SWAP1 PUSH1 0x1 PUSH1 0x1 PUSH1 0x40 SHL SUB DUP3 GT PUSH2 0x149F JUMPI DUP2 SWAP1 PUSH2 0x101C PUSH1 0xF DUP6 ADD SLOAD PUSH2 0x284F JUMP JUMPDEST PUSH1 0x1F DUP2 GT PUSH2 0x1862 JUMPI JUMPDEST POP PUSH1 0x20 SWAP1 PUSH1 0x1F DUP4 GT PUSH1 0x1 EQ PUSH2 0x17F0 JUMPI PUSH1 0x0 SWAP3 PUSH2 0x17E5 JUMPI JUMPDEST POP POP DUP2 PUSH1 0x1 SHL SWAP2 PUSH1 0x0 NOT SWAP1 PUSH1 0x3 SHL SHR NOT AND OR PUSH1 0xF DUP3 ADD SSTORE JUMPDEST PUSH2 0x200 PUSH2 0x3A0 MLOAD ADD MLOAD DUP1 MLOAD SWAP1 PUSH1 0x1 PUSH1 0x1 PUSH1 0x40 SHL SUB DUP3 GT PUSH2 0x149F JUMPI DUP2 SWAP1 PUSH2 0x107D PUSH1 0x10 DUP6 ADD SLOAD PUSH2 0x284F JUMP JUMPDEST PUSH1 0x1F DUP2 GT PUSH2 0x1792 JUMPI JUMPDEST POP PUSH1 0x20 SWAP1 PUSH1 0x1F DUP4 GT PUSH1 0x1 EQ PUSH2 0x1720 JUMPI PUSH1 0x0 SWAP3 PUSH2 0x1715 JUMPI JUMPDEST POP POP DUP2 PUSH1 0x1 SHL SWAP2 PUSH1 0x0 NOT SWAP1 PUSH1 0x3 SHL SHR NOT AND OR PUSH1 0x10 DUP3 ADD SSTORE JUMPDEST PUSH2 0x220 PUSH2 0x3A0 MLOAD ADD MLOAD DUP1 MLOAD SWAP1 PUSH1 0x1 PUSH1 0x1 PUSH1 0x40 SHL SUB DUP3 GT PUSH2 0x149F JUMPI DUP2 SWAP1 PUSH2 0x10DE PUSH1 0x11 DUP6 ADD SLOAD PUSH2 0x284F JUMP JUMPDEST PUSH1 0x1F DUP2 GT PUSH2 0x16C2 JUMPI JUMPDEST POP PUSH1 0x20 SWAP1 PUSH1 0x1F DUP4 GT PUSH1 0x1 EQ PUSH2 0x1650 JUMPI PUSH1 0x0 SWAP3 PUSH2 0x1645 JUMPI JUMPDEST POP POP DUP2 PUSH1 0x1 SHL SWAP2 PUSH1 0x0 NOT SWAP1 PUSH1 0x3 SHL SHR NOT AND OR PUSH1 0x11 DUP3 ADD SSTORE JUMPDEST PUSH2 0x240 PUSH2 0x3A0 MLOAD ADD MLOAD DUP1 MLOAD SWAP1 PUSH1 0x1 PUSH1 0x1 PUSH1 0x40 SHL SUB DUP3 GT PUSH2 0x149F JUMPI DUP2 SWAP1 PUSH2 0x113F PUSH1 0x12 DUP6 ADD SLOAD PUSH2 0x284F JUMP JUMPDEST PUSH1 0x1F DUP2 GT PUSH2 0x15F2 JUMPI JUMPDEST POP PUSH1 0x20 SWAP1 PUSH1 0x1F DUP4 GT PUSH1 0x1 EQ PUSH2 0x1580 JUMPI PUSH1 0x0 SWAP3 PUSH2 0x1575 JUMPI JUMPDEST POP POP DUP2 PUSH1 0x1 SHL SWAP2 PUSH1 0x0 NOT SWAP1 PUSH1 0x3 SHL SHR NOT AND OR PUSH1 0x12 DUP3 ADD SSTORE JUMPDEST PUSH2 0x260 PUSH2 0x3A0 MLOAD ADD MLOAD DUP1 MLOAD SWAP1 PUSH1 0x1 PUSH1 0x1 PUSH1 0x40 SHL SUB DUP3 GT PUSH2 0x149F JUMPI PUSH2 0x119E PUSH1 0x13 DUP5 ADD SLOAD PUSH2 0x284F JUMP JUMPDEST PUSH1 0x1F DUP2 GT PUSH2 0x152E JUMPI JUMPDEST POP PUSH1 0x20 SWAP1 PUSH1 0x1F DUP4 GT PUSH1 0x1 EQ PUSH2 0x14C0 JUMPI PUSH1 0x13 SWAP3 SWAP2 PUSH1 0x0 SWAP2 DUP4 PUSH2 0x14B5 JUMPI JUMPDEST POP POP DUP2 PUSH1 0x1 SHL SWAP2 PUSH1 0x0 NOT SWAP1 PUSH1 0x3 SHL SHR NOT AND OR SWAP2 ADD SSTORE JUMPDEST PUSH1 0x2 SLOAD PUSH9 0x10000000000000000 DUP2 LT ISZERO PUSH2 0x149F JUMPI DUP1 PUSH1 0x1 PUSH2 0x11FD SWAP3 ADD PUSH1 0x2 SSTORE PUSH2 0x29D9 JUMP JUMPDEST DUP2 SLOAD SWAP1 PUSH1 0x3 SHL SWAP1 PUSH1 0x1 DUP1 PUSH1 0xA0 SHL SUB PUSH2 0x6C0 MLOAD AND DUP3 SHL SWAP2 PUSH1 0x1 DUP1 PUSH1 0xA0 SHL SUB SWAP1 SHL NOT AND OR SWAP1 SSTORE PUSH2 0x280 PUSH1 0x40 MLOAD DUP1 PUSH2 0x3C0 MSTORE MSTORE PUSH2 0x1447 PUSH2 0x142D PUSH2 0x1413 PUSH2 0x13F9 PUSH2 0x13DF PUSH2 0x13C5 PUSH2 0x13AB PUSH2 0x1391 PUSH2 0x1378 PUSH2 0x135E PUSH2 0x1344 PUSH2 0x132A PUSH2 0x1311 PUSH2 0x12F8 PUSH2 0x12DF PUSH2 0x12C6 PUSH2 0x12AD PUSH2 0x1294 PUSH2 0x127B PUSH2 0x280 PUSH2 0x3C0 MLOAD ADD PUSH2 0x500 MLOAD PUSH2 0x480 MLOAD PUSH2 0x2A6C JUMP JUMPDEST PUSH2 0x3C0 MLOAD PUSH1 0x20 DUP2 DUP4 SUB SWAP2 ADD MSTORE PUSH2 0x320 MLOAD PUSH2 0x1C0 MLOAD PUSH2 0x2A6C JUMP JUMPDEST PUSH2 0x3C0 MLOAD PUSH1 0x40 DUP2 DUP4 SUB SWAP2 ADD MSTORE PUSH2 0x4A0 MLOAD PUSH2 0x680 MLOAD PUSH2 0x2A6C JUMP JUMPDEST PUSH2 0x3C0 MLOAD PUSH1 0x60 DUP2 DUP4 SUB SWAP2 ADD MSTORE PUSH2 0x5A0 MLOAD PUSH2 0x4E0 MLOAD PUSH2 0x2A6C JUMP JUMPDEST PUSH2 0x3C0 MLOAD PUSH1 0x80 DUP2 DUP4 SUB SWAP2 ADD MSTORE PUSH2 0x300 MLOAD PUSH2 0x540 MLOAD PUSH2 0x2A6C JUMP JUMPDEST PUSH2 0x3C0 MLOAD PUSH1 0xA0 DUP2 DUP4 SUB SWAP2 ADD MSTORE PUSH2 0x520 MLOAD PUSH2 0x1E0 MLOAD PUSH2 0x2A6C JUMP JUMPDEST PUSH2 0x3C0 MLOAD PUSH1 0xC0 DUP2 DUP4 SUB SWAP2 ADD MSTORE PUSH2 0x640 MLOAD PUSH2 0x220 MLOAD PUSH2 0x2A6C JUMP JUMPDEST PUSH2 0x3C0 MLOAD PUSH1 0xE0 DUP2 DUP4 SUB SWAP2 ADD MSTORE PUSH2 0x2E0 MLOAD PUSH2 0x260 MLOAD PUSH2 0x2A6C JUMP JUMPDEST PUSH2 0x3C0 MLOAD PUSH2 0x100 DUP2 DUP4 SUB SWAP2 ADD MSTORE PUSH2 0x6A0 MLOAD PUSH2 0x240 MLOAD PUSH2 0x2A6C JUMP JUMPDEST PUSH2 0x3C0 MLOAD PUSH2 0x120 DUP2 DUP4 SUB SWAP2 ADD MSTORE PUSH2 0x180 MLOAD PUSH2 0x3E0 MLOAD PUSH2 0x2A6C JUMP JUMPDEST PUSH2 0x3C0 MLOAD PUSH2 0x140 DUP2 DUP4 SUB SWAP2 ADD MSTORE PUSH2 0x160 MLOAD PUSH2 0x400 MLOAD PUSH2 0x2A6C JUMP JUMPDEST PUSH2 0x3C0 MLOAD PUSH2 0x160 DUP2 DUP4 SUB SWAP2 ADD MSTORE PUSH1 0xA0 MLOAD PUSH2 0x340 MLOAD PUSH2 0x2A6C JUMP JUMPDEST PUSH2 0x3C0 MLOAD PUSH2 0x180 DUP2 DUP4 SUB SWAP2 ADD MSTORE PUSH2 0x2A0 MLOAD PUSH2 0x120 MLOAD PUSH2 0x2A6C JUMP JUMPDEST PUSH2 0x3C0 MLOAD PUSH2 0x1A0 DUP2 DUP4 SUB SWAP2 ADD MSTORE PUSH2 0x380 MLOAD PUSH2 0x360 MLOAD PUSH2 0x2A6C JUMP JUMPDEST PUSH2 0x3C0 MLOAD PUSH2 0x1C0 DUP2 DUP4 SUB SWAP2 ADD MSTORE PUSH2 0x5E0 MLOAD PUSH2 0x200 MLOAD PUSH2 0x2A6C JUMP JUMPDEST PUSH2 0x3C0 MLOAD PUSH2 0x1E0 DUP2 DUP4 SUB SWAP2 ADD MSTORE PUSH2 0x1A0 MLOAD PUSH2 0x280 MLOAD PUSH2 0x2A6C JUMP JUMPDEST PUSH2 0x3C0 MLOAD PUSH2 0x200 DUP2 DUP4 SUB SWAP2 ADD MSTORE PUSH2 0x440 MLOAD PUSH2 0x100 MLOAD PUSH2 0x2A6C JUMP JUMPDEST PUSH2 0x3C0 MLOAD PUSH2 0x220 DUP2 DUP4 SUB SWAP2 ADD MSTORE PUSH2 0x140 MLOAD PUSH2 0x460 MLOAD PUSH2 0x2A6C JUMP JUMPDEST PUSH2 0x3C0 MLOAD PUSH2 0x240 DUP2 DUP4 SUB SWAP2 ADD MSTORE PUSH2 0x600 MLOAD PUSH2 0x4C0 MLOAD PUSH2 0x2A6C JUMP JUMPDEST PUSH2 0x3C0 MLOAD PUSH2 0x260 DUP2 DUP4 SUB SWAP2 ADD MSTORE PUSH32 0x621730C4C99DA8E3FC168AB43599067DCF1A3819DB7130D92BC7D1C684F013DF PUSH1 0x1 DUP1 PUSH1 0xA0 SHL SUB PUSH2 0x6C0 MLOAD AND SWAP2 PUSH2 0x1497 PUSH2 0x3C0 MLOAD SWAP2 PUSH2 0x560 MLOAD PUSH2 0x2C0 MLOAD PUSH2 0x2A6C JUMP JUMPDEST SUB PUSH2 0x3C0 MLOAD LOG2 STOP JUMPDEST PUSH4 0x4E487B71 PUSH1 0xE0 SHL PUSH1 0x0 MSTORE PUSH1 0x41 PUSH1 0x4 MSTORE PUSH1 0x24 PUSH1 0x0 REVERT JUMPDEST ADD MLOAD SWAP1 POP DUP5 DUP1 PUSH2 0x11C3 JUMP JUMPDEST SWAP1 PUSH1 0x13 DUP5 ADD PUSH1 0x0 MSTORE PUSH1 0x20 PUSH1 0x0 KECCAK256 SWAP2 PUSH1 0x0 PUSH1 0x1F NOT DUP6 AND SWAP1 JUMPDEST DUP2 DUP2 LT PUSH2 0x1516 JUMPI POP SWAP2 PUSH1 0x1 SWAP4 SWAP2 DUP6 PUSH1 0x13 SWAP7 SWAP5 LT PUSH2 0x14FD JUMPI JUMPDEST POP POP POP DUP2 SHL ADD SWAP2 ADD SSTORE PUSH2 0x11D9 JUMP JUMPDEST ADD MLOAD PUSH1 0x0 NOT PUSH1 0xF8 DUP5 PUSH1 0x3 SHL AND SHR NOT AND SWAP1 SSTORE DUP5 DUP1 DUP1 PUSH2 0x14EF JUMP JUMPDEST SWAP3 SWAP4 PUSH1 0x20 PUSH1 0x1 DUP2 SWAP3 DUP8 DUP7 ADD MLOAD DUP2 SSTORE ADD SWAP6 ADD SWAP4 ADD PUSH2 0x14D7 JUMP JUMPDEST PUSH1 0x13 DUP5 ADD PUSH1 0x0 MSTORE PUSH1 0x20 PUSH1 0x0 KECCAK256 PUSH1 0x1F DUP5 ADD PUSH1 0x5 SHR DUP2 ADD PUSH1 0x20 DUP6 LT PUSH2 0x156E JUMPI JUMPDEST PUSH1 0x1F DUP4 ADD PUSH1 0x5 SHR DUP3 ADD DUP2 LT PUSH2 0x1562 JUMPI POP POP PUSH2 0x11A7 JUMP JUMPDEST PUSH1 0x0 DUP2 SSTORE PUSH1 0x1 ADD PUSH2 0x154C JUMP JUMPDEST POP DUP1 PUSH2 0x154C JUMP JUMPDEST ADD MLOAD SWAP1 POP DUP4 DUP1 PUSH2 0x115F JUMP JUMPDEST SWAP3 POP PUSH1 0x12 DUP5 ADD PUSH1 0x0 MSTORE PUSH1 0x20 PUSH1 0x0 KECCAK256 SWAP1 PUSH1 0x0 SWAP4 JUMPDEST PUSH1 0x1F NOT DUP5 AND DUP6 LT PUSH2 0x15D7 JUMPI PUSH1 0x1 SWAP5 POP DUP4 PUSH1 0x1F NOT DUP2 AND LT PUSH2 0x15BE JUMPI JUMPDEST POP POP POP DUP2 SHL ADD PUSH1 0x12 DUP3 ADD SSTORE PUSH2 0x1177 JUMP JUMPDEST ADD MLOAD PUSH1 0x0 NOT PUSH1 0xF8 DUP5 PUSH1 0x3 SHL AND SHR NOT AND SWAP1 SSTORE DUP4 DUP1 DUP1 PUSH2 0x15AE JUMP JUMPDEST DUP2 DUP2 ADD MLOAD DUP4 SSTORE PUSH1 0x20 SWAP5 DUP6 ADD SWAP5 PUSH1 0x1 SWAP1 SWAP4 ADD SWAP3 SWAP1 SWAP2 ADD SWAP1 PUSH2 0x1593 JUMP JUMPDEST SWAP1 SWAP2 POP PUSH1 0x12 DUP5 ADD PUSH1 0x0 MSTORE PUSH1 0x20 PUSH1 0x0 KECCAK256 PUSH1 0x1F DUP5 ADD PUSH1 0x5 SHR DUP2 ADD PUSH1 0x20 DUP6 LT PUSH2 0x163E JUMPI JUMPDEST SWAP1 DUP5 SWAP4 SWAP3 SWAP2 JUMPDEST PUSH1 0x1F DUP4 ADD PUSH1 0x5 SHR DUP3 ADD DUP2 LT PUSH2 0x162F JUMPI POP POP PUSH2 0x1148 JUMP JUMPDEST PUSH1 0x0 DUP2 SSTORE DUP6 SWAP5 POP PUSH1 0x1 ADD PUSH2 0x1619 JUMP JUMPDEST POP DUP1 PUSH2 0x1613 JUMP JUMPDEST ADD MLOAD SWAP1 POP DUP4 DUP1 PUSH2 0x10FE JUMP JUMPDEST SWAP3 POP PUSH1 0x11 DUP5 ADD PUSH1 0x0 MSTORE PUSH1 0x20 PUSH1 0x0 KECCAK256 SWAP1 PUSH1 0x0 SWAP4 JUMPDEST PUSH1 0x1F NOT DUP5 AND DUP6 LT PUSH2 0x16A7 JUMPI PUSH1 0x1 SWAP5 POP DUP4 PUSH1 0x1F NOT DUP2 AND LT PUSH2 0x168E JUMPI JUMPDEST POP POP POP DUP2 SHL ADD PUSH1 0x11 DUP3 ADD SSTORE PUSH2 0x1116 JUMP JUMPDEST ADD MLOAD PUSH1 0x0 NOT PUSH1 0xF8 DUP5 PUSH1 0x3 SHL AND SHR NOT AND SWAP1 SSTORE DUP4 DUP1 DUP1 PUSH2 0x167E JUMP JUMPDEST DUP2 DUP2 ADD MLOAD DUP4 SSTORE PUSH1 0x20 SWAP5 DUP6 ADD SWAP5 PUSH1 0x1 SWAP1 SWAP4 ADD SWAP3 SWAP1 SWAP2 ADD SWAP1 PUSH2 0x1663 JUMP JUMPDEST SWAP1 SWAP2 POP PUSH1 0x11 DUP5 ADD PUSH1 0x0 MSTORE PUSH1 0x20 PUSH1 0x0 KECCAK256 PUSH1 0x1F DUP5 ADD PUSH1 0x5 SHR DUP2 ADD PUSH1 0x20 DUP6 LT PUSH2 0x170E JUMPI JUMPDEST SWAP1 DUP5 SWAP4 SWAP3 SWAP2 JUMPDEST PUSH1 0x1F DUP4 ADD PUSH1 0x5 SHR DUP3 ADD DUP2 LT PUSH2 0x16FF JUMPI POP POP PUSH2 0x10E7 JUMP JUMPDEST PUSH1 0x0 DUP2 SSTORE DUP6 SWAP5 POP PUSH1 0x1 ADD PUSH2 0x16E9 JUMP JUMPDEST POP DUP1 PUSH2 0x16E3 JUMP JUMPDEST ADD MLOAD SWAP1 POP DUP4 DUP1 PUSH2 0x109D JUMP JUMPDEST SWAP3 POP PUSH1 0x10 DUP5 ADD PUSH1 0x0 MSTORE PUSH1 0x20 PUSH1 0x0 KECCAK256 SWAP1 PUSH1 0x0 SWAP4 JUMPDEST PUSH1 0x1F NOT DUP5 AND DUP6 LT PUSH2 0x1777 JUMPI PUSH1 0x1 SWAP5 POP DUP4 PUSH1 0x1F NOT DUP2 AND LT PUSH2 0x175E JUMPI JUMPDEST POP POP POP DUP2 SHL ADD PUSH1 0x10 DUP3 ADD SSTORE PUSH2 0x10B5 JUMP JUMPDEST ADD MLOAD PUSH1 0x0 NOT PUSH1 0xF8 DUP5 PUSH1 0x3 SHL AND SHR NOT AND SWAP1 SSTORE DUP4 DUP1 DUP1 PUSH2 0x174E JUMP JUMPDEST DUP2 DUP2 ADD MLOAD DUP4 SSTORE PUSH1 0x20 SWAP5 DUP6 ADD SWAP5 PUSH1 0x1 SWAP1 SWAP4 ADD SWAP3 SWAP1 SWAP2 ADD SWAP1 PUSH2 0x1733 JUMP JUMPDEST SWAP1 SWAP2 POP PUSH1 0x10 DUP5 ADD PUSH1 0x0 MSTORE PUSH1 0x20 PUSH1 0x0 KECCAK256 PUSH1 0x1F DUP5 ADD PUSH1 0x5 SHR DUP2 ADD PUSH1 0x20 DUP6 LT PUSH2 0x17DE JUMPI JUMPDEST SWAP1 DUP5 SWAP4 SWAP3 SWAP2 JUMPDEST PUSH1 0x1F DUP4 ADD PUSH1 0x5 SHR DUP3 ADD DUP2 LT PUSH2 0x17CF JUMPI POP POP PUSH2 0x1086 JUMP JUMPDEST PUSH1 0x0 DUP2 SSTORE DUP6 SWAP5 POP PUSH1 0x1 ADD PUSH2 0x17B9 JUMP JUMPDEST POP DUP1 PUSH2 0x17B3 JUMP JUMPDEST ADD MLOAD SWAP1 POP DUP4 DUP1 PUSH2 0x103C JUMP JUMPDEST SWAP3 POP PUSH1 0xF DUP5 ADD PUSH1 0x0 MSTORE PUSH1 0x20 PUSH1 0x0 KECCAK256 SWAP1 PUSH1 0x0 SWAP4 JUMPDEST PUSH1 0x1F NOT DUP5 AND DUP6 LT PUSH2 0x1847 JUMPI PUSH1 0x1 SWAP5 POP DUP4 PUSH1 0x1F NOT DUP2 AND LT PUSH2 0x182E JUMPI JUMPDEST POP POP POP DUP2 SHL ADD PUSH1 0xF DUP3 ADD SSTORE PUSH2 0x1054 JUMP JUMPDEST ADD MLOAD PUSH1 0x0 NOT PUSH1 0xF8 DUP5 PUSH1 0x3 SHL AND SHR NOT AND SWAP1 SSTORE DUP4 DUP1 DUP1 PUSH2 0x181E JUMP JUMPDEST DUP2 DUP2 ADD MLOAD DUP4 SSTORE PUSH1 0x20 SWAP5 DUP6 ADD SWAP5 PUSH1 0x1 SWAP1 SWAP4 ADD SWAP3 SWAP1 SWAP2 ADD SWAP1 PUSH2 0x1803 JUMP JUMPDEST SWAP1 SWAP2 POP PUSH1 0xF DUP5 ADD PUSH1 0x0 MSTORE PUSH1 0x20 PUSH1 0x0 KECCAK256 PUSH1 0x1F DUP5 ADD PUSH1 0x5 SHR DUP2 ADD PUSH1 0x20 DUP6 LT PUSH2 0x18AE JUMPI JUMPDEST SWAP1 DUP5 SWAP4 SWAP3 SWAP2 JUMPDEST PUSH1 0x1F DUP4 ADD PUSH1 0x5 SHR DUP3 ADD DUP2 LT PUSH2 0x189F JUMPI POP POP PUSH2 0x1025 JUMP JUMPDEST PUSH1 0x0 DUP2 SSTORE DUP6 SWAP5 POP PUSH1 0x1 ADD PUSH2 0x1889 JUMP JUMPDEST POP DUP1 PUSH2 0x1883 JUMP JUMPDEST ADD MLOAD SWAP1 POP DUP4 DUP1 PUSH2 0xFDB JUMP JUMPDEST SWAP3 POP PUSH1 0xE DUP5 ADD PUSH1 0x0 MSTORE PUSH1 0x20 PUSH1 0x0 KECCAK256 SWAP1 PUSH1 0x0 SWAP4 JUMPDEST PUSH1 0x1F NOT DUP5 AND DUP6 LT PUSH2 0x1917 JUMPI PUSH1 0x1 SWAP5 POP DUP4 PUSH1 0x1F NOT DUP2 AND LT PUSH2 0x18FE JUMPI JUMPDEST POP POP POP DUP2 SHL ADD PUSH1 0xE DUP3 ADD SSTORE PUSH2 0xFF3 JUMP JUMPDEST ADD MLOAD PUSH1 0x0 NOT PUSH1 0xF8 DUP5 PUSH1 0x3 SHL AND SHR NOT AND SWAP1 SSTORE DUP4 DUP1 DUP1 PUSH2 0x18EE JUMP JUMPDEST DUP2 DUP2 ADD MLOAD DUP4 SSTORE PUSH1 0x20 SWAP5 DUP6 ADD SWAP5 PUSH1 0x1 SWAP1 SWAP4 ADD SWAP3 SWAP1 SWAP2 ADD SWAP1 PUSH2 0x18D3 JUMP JUMPDEST SWAP1 SWAP2 POP PUSH1 0xE DUP5 ADD PUSH1 0x0 MSTORE PUSH1 0x20 PUSH1 0x0 KECCAK256 PUSH1 0x1F DUP5 ADD PUSH1 0x5 SHR DUP2 ADD PUSH1 0x20 DUP6 LT PUSH2 0x197E JUMPI JUMPDEST SWAP1 DUP5 SWAP4 SWAP3 SWAP2 JUMPDEST PUSH1 0x1F DUP4 ADD PUSH1 0x5 SHR DUP3 ADD DUP2 LT PUSH2 0x196F JUMPI POP POP PUSH2 0xFC4 JUMP JUMPDEST PUSH1 0x0 DUP2 SSTORE DUP6 SWAP5 POP PUSH1 0x1 ADD PUSH2 0x1959 JUMP JUMPDEST POP DUP1 PUSH2 0x1953 JUMP JUMPDEST ADD MLOAD SWAP1 POP DUP4 DUP1 PUSH2 0xF7A JUMP JUMPDEST SWAP3 POP PUSH1 0xD DUP5 ADD PUSH1 0x0 MSTORE PUSH1 0x20 PUSH1 0x0 KECCAK256 SWAP1 PUSH1 0x0 SWAP4 JUMPDEST PUSH1 0x1F NOT DUP5 AND DUP6 LT PUSH2 0x19E7 JUMPI PUSH1 0x1 SWAP5 POP DUP4 PUSH1 0x1F NOT DUP2 AND LT PUSH2 0x19CE JUMPI JUMPDEST POP POP POP DUP2 SHL ADD PUSH1 0xD DUP3 ADD SSTORE PUSH2 0xF92 JUMP JUMPDEST ADD MLOAD PUSH1 0x0 NOT PUSH1 0xF8 DUP5 PUSH1 0x3 SHL AND SHR NOT AND SWAP1 SSTORE DUP4 DUP1 DUP1 PUSH2 0x19BE JUMP JUMPDEST DUP2 DUP2 ADD MLOAD DUP4 SSTORE PUSH1 0x20 SWAP5 DUP6 ADD SWAP5 PUSH1 0x1 SWAP1 SWAP4 ADD SWAP3 SWAP1 SWAP2 ADD SWAP1 PUSH2 0x19A3 JUMP JUMPDEST SWAP1 SWAP2 POP PUSH1 0xD DUP5 ADD PUSH1 0x0 MSTORE PUSH1 0x20 PUSH1 0x0 KECCAK256 PUSH1 0x1F DUP5 ADD PUSH1 0x5 SHR DUP2 ADD PUSH1 0x20 DUP6 LT PUSH2 0x1A4E JUMPI JUMPDEST SWAP1 DUP5 SWAP4 SWAP3 SWAP2 JUMPDEST PUSH1 0x1F DUP4 ADD PUSH1 0x5 SHR DUP3 ADD DUP2 LT PUSH2 0x1A3F JUMPI POP POP PUSH2 0xF63 JUMP JUMPDEST PUSH1 0x0 DUP2 SSTORE DUP6 SWAP5 POP PUSH1 0x1 ADD PUSH2 0x1A29 JUMP JUMPDEST POP DUP1 PUSH2 0x1A23 JUMP JUMPDEST ADD MLOAD SWAP1 POP DUP4 DUP1 PUSH2 0xF19 JUMP JUMPDEST SWAP3 POP PUSH1 0xC DUP5 ADD PUSH1 0x0 MSTORE PUSH1 0x20 PUSH1 0x0 KECCAK256 SWAP1 PUSH1 0x0 SWAP4 JUMPDEST PUSH1 0x1F NOT DUP5 AND DUP6 LT PUSH2 0x1AB7 JUMPI PUSH1 0x1 SWAP5 POP DUP4 PUSH1 0x1F NOT DUP2 AND LT PUSH2 0x1A9E JUMPI JUMPDEST POP POP POP DUP2 SHL ADD PUSH1 0xC DUP3 ADD SSTORE PUSH2 0xF31 JUMP JUMPDEST ADD MLOAD PUSH1 0x0 NOT PUSH1 0xF8 DUP5 PUSH1 0x3 SHL AND SHR NOT AND SWAP1 SSTORE DUP4 DUP1 DUP1 PUSH2 0x1A8E JUMP JUMPDEST DUP2 DUP2 ADD MLOAD DUP4 SSTORE PUSH1 0x20 SWAP5 DUP6 ADD SWAP5 PUSH1 0x1 SWAP1 SWAP4 ADD SWAP3 SWAP1 SWAP2 ADD SWAP1 PUSH2 0x1A73 JUMP JUMPDEST SWAP1 SWAP2 POP PUSH1 0xC DUP5 ADD PUSH1 0x0 MSTORE PUSH1 0x20 PUSH1 0x0 KECCAK256 PUSH1 0x1F DUP5 ADD PUSH1 0x5 SHR DUP2 ADD PUSH1 0x20 DUP6 LT PUSH2 0x1B1E JUMPI JUMPDEST SWAP1 DUP5 SWAP4 SWAP3 SWAP2 JUMPDEST PUSH1 0x1F DUP4 ADD PUSH1 0x5 SHR DUP3 ADD DUP2 LT PUSH2 0x1B0F JUMPI POP POP PUSH2 0xF02 JUMP JUMPDEST PUSH1 0x0 DUP2 SSTORE DUP6 SWAP5 POP PUSH1 0x1 ADD PUSH2 0x1AF9 JUMP JUMPDEST POP DUP1 PUSH2 0x1AF3 JUMP JUMPDEST ADD MLOAD SWAP1 POP DUP4 DUP1 PUSH2 0xEB8 JUMP JUMPDEST SWAP3 POP PUSH1 0xB DUP5 ADD PUSH1 0x0 MSTORE PUSH1 0x20 PUSH1 0x0 KECCAK256 SWAP1 PUSH1 0x0 SWAP4 JUMPDEST PUSH1 0x1F NOT DUP5 AND DUP6 LT PUSH2 0x1B87 JUMPI PUSH1 0x1 SWAP5 POP DUP4 PUSH1 0x1F NOT DUP2 AND LT PUSH2 0x1B6E JUMPI JUMPDEST POP POP POP DUP2 SHL ADD PUSH1 0xB DUP3 ADD SSTORE PUSH2 0xED0 JUMP JUMPDEST ADD MLOAD PUSH1 0x0 NOT PUSH1 0xF8 DUP5 PUSH1 0x3 SHL AND SHR NOT AND SWAP1 SSTORE DUP4 DUP1 DUP1 PUSH2 0x1B5E JUMP JUMPDEST DUP2 DUP2 ADD MLOAD DUP4 SSTORE PUSH1 0x20 SWAP5 DUP6 ADD SWAP5 PUSH1 0x1 SWAP1 SWAP4 ADD SWAP3 SWAP1 SWAP2 ADD SWAP1 PUSH2 0x1B43 JUMP JUMPDEST SWAP1 SWAP2 POP PUSH1 0xB DUP5 ADD PUSH1 0x0 MSTORE PUSH1 0x20 PUSH1 0x0 KECCAK256 PUSH1 0x1F DUP5 ADD PUSH1 0x5 SHR DUP2 ADD PUSH1 0x20 DUP6 LT PUSH2 0x1BEE JUMPI JUMPDEST SWAP1 DUP5 SWAP4 SWAP3 SWAP2 JUMPDEST PUSH1 0x1F DUP4 ADD PUSH1 0x5 SHR DUP3 ADD DUP2 LT PUSH2 0x1BDF JUMPI POP POP PUSH2 0xEA1 JUMP JUMPDEST PUSH1 0x0 DUP2 SSTORE DUP6 SWAP5 POP PUSH1 0x1 ADD PUSH2 0x1BC9 JUMP JUMPDEST POP DUP1 PUSH2 0x1BC3 JUMP JUMPDEST ADD MLOAD SWAP1 POP DUP4 DUP1 PUSH2 0xE57 JUMP JUMPDEST SWAP3 POP PUSH1 0xA DUP5 ADD PUSH1 0x0 MSTORE PUSH1 0x20 PUSH1 0x0 KECCAK256 SWAP1 PUSH1 0x0 SWAP4 JUMPDEST PUSH1 0x1F NOT DUP5 AND DUP6 LT PUSH2 0x1C57 JUMPI PUSH1 0x1 SWAP5 POP DUP4 PUSH1 0x1F NOT DUP2 AND LT PUSH2 0x1C3E JUMPI JUMPDEST POP POP POP DUP2 SHL ADD PUSH1 0xA DUP3 ADD SSTORE PUSH2 0xE6F JUMP JUMPDEST ADD MLOAD PUSH1 0x0 NOT PUSH1 0xF8 DUP5 PUSH1 0x3 SHL AND SHR NOT AND SWAP1 SSTORE DUP4 DUP1 DUP1 PUSH2 0x1C2E JUMP JUMPDEST DUP2 DUP2 ADD MLOAD DUP4 SSTORE PUSH1 0x20 SWAP5 DUP6 ADD SWAP5 PUSH1 0x1 SWAP1 SWAP4 ADD SWAP3 SWAP1 SWAP2 ADD SWAP1 PUSH2 0x1C13 JUMP JUMPDEST SWAP1 SWAP2 POP PUSH1 0xA DUP5 ADD PUSH1 0x0 MSTORE PUSH1 0x20 PUSH1 0x0 KECCAK256 PUSH1 0x1F DUP5 ADD PUSH1 0x5 SHR DUP2 ADD PUSH1 0x20 DUP6 LT PUSH2 0x1CBE JUMPI JUMPDEST SWAP1 DUP5 SWAP4 SWAP3 SWAP2 JUMPDEST PUSH1 0x1F DUP4 ADD PUSH1 0x5 SHR DUP3 ADD DUP2 LT PUSH2 0x1CAF JUMPI POP POP PUSH2 0xE40 JUMP JUMPDEST PUSH1 0x0 DUP2 SSTORE DUP6 SWAP5 POP PUSH1 0x1 ADD PUSH2 0x1C99 JUMP JUMPDEST POP DUP1 PUSH2 0x1C93 JUMP JUMPDEST ADD MLOAD SWAP1 POP DUP4 DUP1 PUSH2 0xDF6 JUMP JUMPDEST SWAP3 POP PUSH1 0x9 DUP5 ADD PUSH1 0x0 MSTORE PUSH1 0x20 PUSH1 0x0 KECCAK256 SWAP1 PUSH1 0x0 SWAP4 JUMPDEST PUSH1 0x1F NOT DUP5 AND DUP6 LT PUSH2 0x1D27 JUMPI PUSH1 0x1 SWAP5 POP DUP4 PUSH1 0x1F NOT DUP2 AND LT PUSH2 0x1D0E JUMPI JUMPDEST POP POP POP DUP2 SHL ADD PUSH1 0x9 DUP3 ADD SSTORE PUSH2 0xE0E JUMP JUMPDEST ADD MLOAD PUSH1 0x0 NOT PUSH1 0xF8 DUP5 PUSH1 0x3 SHL AND SHR NOT AND SWAP1 SSTORE DUP4 DUP1 DUP1 PUSH2 0x1CFE JUMP JUMPDEST DUP2 DUP2 ADD MLOAD DUP4 SSTORE PUSH1 0x20 SWAP5 DUP6 ADD SWAP5 PUSH1 0x1 SWAP1 SWAP4 ADD SWAP3 SWAP1 SWAP2 ADD SWAP1 PUSH2 0x1CE3 JUMP JUMPDEST SWAP1 SWAP2 POP PUSH1 0x9 DUP5 ADD PUSH1 0x0 MSTORE PUSH1 0x20 PUSH1 0x0 KECCAK256 PUSH1 0x1F DUP5 ADD PUSH1 0x5 SHR DUP2 ADD PUSH1 0x20 DUP6 LT PUSH2 0x1D8E JUMPI JUMPDEST SWAP1 DUP5 SWAP4 SWAP3 SWAP2 JUMPDEST PUSH1 0x1F DUP4 ADD PUSH1 0x5 SHR DUP3 ADD DUP2 LT PUSH2 0x1D7F JUMPI POP POP PUSH2 0xDDF JUMP JUMPDEST PUSH1 0x0 DUP2 SSTORE DUP6 SWAP5 POP PUSH1 0x1 ADD PUSH2 0x1D69 JUMP JUMPDEST POP DUP1 PUSH2 0x1D63 JUMP JUMPDEST ADD MLOAD SWAP1 POP DUP4 DUP1 PUSH2 0xD95 JUMP JUMPDEST SWAP3 POP PUSH1 0x8 DUP5 ADD PUSH1 0x0 MSTORE PUSH1 0x20 PUSH1 0x0 KECCAK256 SWAP1 PUSH1 0x0 SWAP4 JUMPDEST PUSH1 0x1F NOT DUP5 AND DUP6 LT PUSH2 0x1DF7 JUMPI PUSH1 0x1 SWAP5 POP DUP4 PUSH1 0x1F NOT DUP2 AND LT PUSH2 0x1DDE JUMPI JUMPDEST POP POP POP DUP2 SHL ADD PUSH1 0x8 DUP3 ADD SSTORE PUSH2 0xDAD JUMP JUMPDEST ADD MLOAD PUSH1 0x0 NOT PUSH1 0xF8 DUP5 PUSH1 0x3 SHL AND SHR NOT AND SWAP1 SSTORE DUP4 DUP1 DUP1 PUSH2 0x1DCE JUMP JUMPDEST DUP2 DUP2 ADD MLOAD DUP4 SSTORE PUSH1 0x20 SWAP5 DUP6 ADD SWAP5 PUSH1 0x1 SWAP1 SWAP4 ADD SWAP3 SWAP1 SWAP2 ADD SWAP1 PUSH2 0x1DB3 JUMP JUMPDEST SWAP1 SWAP2 POP PUSH1 0x8 DUP5 ADD PUSH1 0x0 MSTORE PUSH1 0x20 PUSH1 0x0 KECCAK256 PUSH1 0x1F DUP5 ADD PUSH1 0x5 SHR DUP2 ADD PUSH1 0x20 DUP6 LT PUSH2 0x1E5E JUMPI JUMPDEST SWAP1 DUP5 SWAP4 SWAP3 SWAP2 JUMPDEST PUSH1 0x1F DUP4 ADD PUSH1 0x5 SHR DUP3 ADD DUP2 LT PUSH2 0x1E4F JUMPI POP POP PUSH2 0xD7E JUMP JUMPDEST PUSH1 0x0 DUP2 SSTORE DUP6 SWAP5 POP PUSH1 0x1 ADD PUSH2 0x1E39 JUMP JUMPDEST POP DUP1 PUSH2 0x1E33 JUMP JUMPDEST ADD MLOAD SWAP1 POP DUP4 DUP1 PUSH2 0xD34 JUMP JUMPDEST SWAP3 POP PUSH1 0x7 DUP5 ADD PUSH1 0x0 MSTORE PUSH1 0x20 PUSH1 0x0 KECCAK256 SWAP1 PUSH1 0x0 SWAP4 JUMPDEST PUSH1 0x1F NOT DUP5 AND DUP6 LT PUSH2 0x1EC7 JUMPI PUSH1 0x1 SWAP5 POP DUP4 PUSH1 0x1F NOT DUP2 AND LT PUSH2 0x1EAE JUMPI JUMPDEST POP POP POP DUP2 SHL ADD PUSH1 0x7 DUP3 ADD SSTORE PUSH2 0xD4C JUMP JUMPDEST ADD MLOAD PUSH1 0x0 NOT PUSH1 0xF8 DUP5 PUSH1 0x3 SHL AND SHR NOT AND SWAP1 SSTORE DUP4 DUP1 DUP1 PUSH2 0x1E9E JUMP JUMPDEST DUP2 DUP2 ADD MLOAD DUP4 SSTORE PUSH1 0x20 SWAP5 DUP6 ADD SWAP5 PUSH1 0x1 SWAP1 SWAP4 ADD SWAP3 SWAP1 SWAP2 ADD SWAP1 PUSH2 0x1E83 JUMP JUMPDEST SWAP1 SWAP2 POP PUSH1 0x7 DUP5 ADD PUSH1 0x0 MSTORE PUSH1 0x20 PUSH1 0x0 KECCAK256 PUSH1 0x1F DUP5 ADD PUSH1 0x5 SHR DUP2 ADD PUSH1 0x20 DUP6 LT PUSH2 0x1F2E JUMPI JUMPDEST SWAP1 DUP5 SWAP4 SWAP3 SWAP2 JUMPDEST PUSH1 0x1F DUP4 ADD PUSH1 0x5 SHR DUP3 ADD DUP2 LT PUSH2 0x1F1F JUMPI POP POP PUSH2 0xD1D JUMP JUMPDEST PUSH1 0x0 DUP2 SSTORE DUP6 SWAP5 POP PUSH1 0x1 ADD PUSH2 0x1F09 JUMP JUMPDEST POP DUP1 PUSH2 0x1F03 JUMP JUMPDEST ADD MLOAD SWAP1 POP DUP4 DUP1 PUSH2 0xCD4 JUMP JUMPDEST SWAP3 POP PUSH1 0x6 DUP5 ADD PUSH1 0x0 MSTORE PUSH1 0x20 PUSH1 0x0 KECCAK256 SWAP1 PUSH1 0x0 SWAP4 JUMPDEST PUSH1 0x1F NOT DUP5 AND DUP6 LT PUSH2 0x1F97 JUMPI PUSH1 0x1 SWAP5 POP DUP4 PUSH1 0x1F NOT DUP2 AND LT PUSH2 0x1F7E JUMPI JUMPDEST POP POP POP DUP2 SHL ADD PUSH1 0x6 DUP3 ADD SSTORE PUSH2 0xCEC JUMP JUMPDEST ADD MLOAD PUSH1 0x0 NOT PUSH1 0xF8 DUP5 PUSH1 0x3 SHL AND SHR NOT AND SWAP1 SSTORE DUP4 DUP1 DUP1 PUSH2 0x1F6E JUMP JUMPDEST DUP2 DUP2 ADD MLOAD DUP4 SSTORE PUSH1 0x20 SWAP5 DUP6 ADD SWAP5 PUSH1 0x1 SWAP1 SWAP4 ADD SWAP3 SWAP1 SWAP2 ADD SWAP1 PUSH2 0x1F53 JUMP JUMPDEST SWAP1 SWAP2 POP PUSH1 0x6 DUP5 ADD PUSH1 0x0 MSTORE PUSH1 0x20 PUSH1 0x0 KECCAK256 PUSH1 0x1F DUP5 ADD PUSH1 0x5 SHR DUP2 ADD PUSH1 0x20 DUP6 LT PUSH2 0x1FFE JUMPI JUMPDEST SWAP1 DUP5 SWAP4 SWAP3 SWAP2 JUMPDEST PUSH1 0x1F DUP4 ADD PUSH1 0x5 SHR DUP3 ADD DUP2 LT PUSH2 0x1FEF JUMPI POP POP PUSH2 0xCBD JUMP JUMPDEST PUSH1 0x0 DUP2 SSTORE DUP6 SWAP5 POP PUSH1 0x1 ADD PUSH2 0x1FD9 JUMP JUMPDEST POP DUP1 PUSH2 0x1FD3 JUMP JUMPDEST ADD MLOAD SWAP1 POP DUP4 DUP1 PUSH2 0xC74 JUMP JUMPDEST SWAP3 POP PUSH1 0x5 DUP5 ADD PUSH1 0x0 MSTORE PUSH1 0x20 PUSH1 0x0 KECCAK256 SWAP1 PUSH1 0x0 SWAP4 JUMPDEST PUSH1 0x1F NOT DUP5 AND DUP6 LT PUSH2 0x2067 JUMPI PUSH1 0x1 SWAP5 POP DUP4 PUSH1 0x1F NOT DUP2 AND LT PUSH2 0x204E JUMPI JUMPDEST POP POP POP DUP2 SHL ADD PUSH1 0x5 DUP3 ADD SSTORE PUSH2 0xC8C JUMP JUMPDEST ADD MLOAD PUSH1 0x0 NOT PUSH1 0xF8 DUP5 PUSH1 0x3 SHL AND SHR NOT AND SWAP1 SSTORE DUP4 DUP1 DUP1 PUSH2 0x203E JUMP JUMPDEST DUP2 DUP2 ADD MLOAD DUP4 SSTORE PUSH1 0x20 SWAP5 DUP6 ADD SWAP5 PUSH1 0x1 SWAP1 SWAP4 ADD SWAP3 SWAP1 SWAP2 ADD SWAP1 PUSH2 0x2023 JUMP JUMPDEST SWAP1 SWAP2 POP PUSH1 0x5 DUP5 ADD PUSH1 0x0 MSTORE PUSH1 0x20 PUSH1 0x0 KECCAK256 PUSH1 0x1F DUP5 ADD PUSH1 0x5 SHR DUP2 ADD PUSH1 0x20 DUP6 LT PUSH2 0x20CE JUMPI JUMPDEST SWAP1 DUP5 SWAP4 SWAP3 SWAP2 JUMPDEST PUSH1 0x1F DUP4 ADD PUSH1 0x5 SHR DUP3 ADD DUP2 LT PUSH2 0x20BF JUMPI POP POP PUSH2 0xC5D JUMP JUMPDEST PUSH1 0x0 DUP2 SSTORE DUP6 SWAP5 POP PUSH1 0x1 ADD PUSH2 0x20A9 JUMP JUMPDEST POP DUP1 PUSH2 0x20A3 JUMP JUMPDEST ADD MLOAD SWAP1 POP DUP4 DUP1 PUSH2 0xC14 JUMP JUMPDEST SWAP3 POP PUSH1 0x4 DUP5 ADD PUSH1 0x0 MSTORE PUSH1 0x20 PUSH1 0x0 KECCAK256 SWAP1 PUSH1 0x0 SWAP4 JUMPDEST PUSH1 0x1F NOT DUP5 AND DUP6 LT PUSH2 0x2137 JUMPI PUSH1 0x1 SWAP5 POP DUP4 PUSH1 0x1F NOT DUP2 AND LT PUSH2 0x211E JUMPI JUMPDEST POP POP POP DUP2 SHL ADD PUSH1 0x4 DUP3 ADD SSTORE PUSH2 0xC2C JUMP JUMPDEST ADD MLOAD PUSH1 0x0 NOT PUSH1 0xF8 DUP5 PUSH1 0x3 SHL AND SHR NOT AND SWAP1 SSTORE DUP4 DUP1 DUP1 PUSH2 0x210E JUMP JUMPDEST DUP2 DUP2 ADD MLOAD DUP4 SSTORE PUSH1 0x20 SWAP5 DUP6 ADD SWAP5 PUSH1 0x1 SWAP1 SWAP4 ADD SWAP3 SWAP1 SWAP2 ADD SWAP1 PUSH2 0x20F3 JUMP JUMPDEST SWAP1 SWAP2 POP PUSH1 0x4 DUP5 ADD PUSH1 0x0 MSTORE PUSH1 0x20 PUSH1 0x0 KECCAK256 PUSH1 0x1F DUP5 ADD PUSH1 0x5 SHR DUP2 ADD PUSH1 0x20 DUP6 LT PUSH2 0x219E JUMPI JUMPDEST SWAP1 DUP5 SWAP4 SWAP3 SWAP2 JUMPDEST PUSH1 0x1F DUP4 ADD PUSH1 0x5 SHR DUP3 ADD DUP2 LT PUSH2 0x218F JUMPI POP POP PUSH2 0xBFD JUMP JUMPDEST PUSH1 0x0 DUP2 SSTORE DUP6 SWAP5 POP PUSH1 0x1 ADD PUSH2 0x2179 JUMP JUMPDEST POP DUP1 PUSH2 0x2173 JUMP JUMPDEST ADD MLOAD SWAP1 POP DUP4 DUP1 PUSH2 0xBB4 JUMP JUMPDEST SWAP3 POP PUSH1 0x3 DUP5 ADD PUSH1 0x0 MSTORE PUSH1 0x20 PUSH1 0x0 KECCAK256 SWAP1 PUSH1 0x0 SWAP4 JUMPDEST PUSH1 0x1F NOT DUP5 AND DUP6 LT PUSH2 0x2207 JUMPI PUSH1 0x1 SWAP5 POP DUP4 PUSH1 0x1F NOT DUP2 AND LT PUSH2 0x21EE JUMPI JUMPDEST POP POP POP DUP2 SHL ADD PUSH1 0x3 DUP3 ADD SSTORE PUSH2 0xBCC JUMP JUMPDEST ADD MLOAD PUSH1 0x0 NOT PUSH1 0xF8 DUP5 PUSH1 0x3 SHL AND SHR NOT AND SWAP1 SSTORE DUP4 DUP1 DUP1 PUSH2 0x21DE JUMP JUMPDEST DUP2 DUP2 ADD MLOAD DUP4 SSTORE PUSH1 0x20 SWAP5 DUP6 ADD SWAP5 PUSH1 0x1 SWAP1 SWAP4 ADD SWAP3 SWAP1 SWAP2 ADD SWAP1 PUSH2 0x21C3 JUMP JUMPDEST SWAP1 SWAP2 POP PUSH1 0x3 DUP5 ADD PUSH1 0x0 MSTORE PUSH1 0x20 PUSH1 0x0 KECCAK256 PUSH1 0x1F DUP5 ADD PUSH1 0x5 SHR DUP2 ADD PUSH1 0x20 DUP6 LT PUSH2 0x226E JUMPI JUMPDEST SWAP1 DUP5 SWAP4 SWAP3 SWAP2 JUMPDEST PUSH1 0x1F DUP4 ADD PUSH1 0x5 SHR DUP3 ADD DUP2 LT PUSH2 0x225F JUMPI POP POP PUSH2 0xB9D JUMP JUMPDEST PUSH1 0x0 DUP2 SSTORE DUP6 SWAP5 POP PUSH1 0x1 ADD PUSH2 0x2249 JUMP JUMPDEST POP DUP1 PUSH2 0x2243 JUMP JUMPDEST ADD MLOAD SWAP1 POP DUP4 DUP1 PUSH2 0xB54 JUMP JUMPDEST PUSH1 0x2 DUP4 ADD PUSH1 0x0 MSTORE PUSH1 0x20 PUSH1 0x0 KECCAK256 SWAP1 PUSH1 0x0 SWAP5 PUSH1 0x1F NOT DUP5 AND SWAP6 JUMPDEST DUP7 DUP2 LT PUSH2 0x22D3 JUMPI POP DUP4 PUSH1 0x1 SWAP6 SWAP7 LT PUSH2 0x22BA JUMPI JUMPDEST POP POP POP DUP2 SHL ADD PUSH1 0x2 DUP3 ADD SSTORE PUSH2 0xB6C JUMP JUMPDEST ADD MLOAD PUSH1 0x0 NOT PUSH1 0xF8 DUP5 PUSH1 0x3 SHL AND SHR NOT AND SWAP1 SSTORE DUP4 DUP1 DUP1 PUSH2 0x22AA JUMP JUMPDEST SWAP2 SWAP3 PUSH1 0x20 PUSH1 0x1 DUP2 SWAP3 DUP7 DUP6 ADD MLOAD DUP2 SSTORE ADD SWAP5 ADD SWAP3 ADD PUSH2 0x2297 JUMP JUMPDEST PUSH1 0x2 DUP4 ADD PUSH1 0x0 MSTORE PUSH1 0x20 PUSH1 0x0 KECCAK256 PUSH1 0x1F DUP4 ADD PUSH1 0x5 SHR DUP2 ADD PUSH1 0x20 DUP5 LT PUSH2 0x232B JUMPI JUMPDEST PUSH1 0x1F DUP4 ADD PUSH1 0x5 SHR DUP3 ADD DUP2 LT PUSH2 0x231F JUMPI POP POP PUSH2 0xB3B JUMP JUMPDEST PUSH1 0x0 DUP2 SSTORE PUSH1 0x1 ADD PUSH2 0x2309 JUMP JUMPDEST POP DUP1 PUSH2 0x2309 JUMP JUMPDEST ADD MLOAD SWAP1 POP DUP4 DUP1 PUSH2 0xAF4 JUMP JUMPDEST PUSH1 0x1 DUP4 ADD PUSH1 0x0 MSTORE PUSH1 0x20 PUSH1 0x0 KECCAK256 SWAP1 PUSH1 0x0 SWAP5 PUSH1 0x1F NOT DUP5 AND SWAP6 JUMPDEST DUP7 DUP2 LT PUSH2 0x2390 JUMPI POP DUP4 PUSH1 0x1 SWAP6 SWAP7 LT PUSH2 0x2377 JUMPI JUMPDEST POP POP POP DUP2 SHL ADD PUSH1 0x1 DUP3 ADD SSTORE PUSH2 0xB0C JUMP JUMPDEST ADD MLOAD PUSH1 0x0 NOT PUSH1 0xF8 DUP5 PUSH1 0x3 SHL AND SHR NOT AND SWAP1 SSTORE DUP4 DUP1 DUP1 PUSH2 0x2367 JUMP JUMPDEST SWAP2 SWAP3 PUSH1 0x20 PUSH1 0x1 DUP2 SWAP3 DUP7 DUP6 ADD MLOAD DUP2 SSTORE ADD SWAP5 ADD SWAP3 ADD PUSH2 0x2354 JUMP JUMPDEST PUSH1 0x1 DUP4 ADD PUSH1 0x0 MSTORE PUSH1 0x20 PUSH1 0x0 KECCAK256 PUSH1 0x1F DUP4 ADD PUSH1 0x5 SHR DUP2 ADD PUSH1 0x20 DUP5 LT PUSH2 0x23E8 JUMPI JUMPDEST PUSH1 0x1F DUP4 ADD PUSH1 0x5 SHR DUP3 ADD DUP2 LT PUSH2 0x23DC JUMPI POP POP PUSH2 0xADB JUMP JUMPDEST PUSH1 0x0 DUP2 SSTORE PUSH1 0x1 ADD PUSH2 0x23C6 JUMP JUMPDEST POP DUP1 PUSH2 0x23C6 JUMP JUMPDEST ADD MLOAD SWAP1 POP DUP4 DUP1 PUSH2 0xA97 JUMP JUMPDEST DUP3 PUSH1 0x0 MSTORE PUSH1 0x20 PUSH1 0x0 KECCAK256 SWAP1 PUSH1 0x0 SWAP5 PUSH1 0x1F NOT DUP5 AND SWAP6 JUMPDEST DUP7 DUP2 LT PUSH2 0x2447 JUMPI POP DUP4 PUSH1 0x1 SWAP6 SWAP7 LT PUSH2 0x242E JUMPI JUMPDEST POP POP POP DUP2 SHL ADD DUP2 SSTORE PUSH2 0xAAC JUMP JUMPDEST ADD MLOAD PUSH1 0x0 NOT PUSH1 0xF8 DUP5 PUSH1 0x3 SHL AND SHR NOT AND SWAP1 SSTORE DUP4 DUP1 DUP1 PUSH2 0x2421 JUMP JUMPDEST SWAP2 SWAP3 PUSH1 0x20 PUSH1 0x1 DUP2 SWAP3 DUP7 DUP6 ADD MLOAD DUP2 SSTORE ADD SWAP5 ADD SWAP3 ADD PUSH2 0x240E JUMP JUMPDEST DUP3 PUSH1 0x0 MSTORE PUSH1 0x20 PUSH1 0x0 KECCAK256 PUSH1 0x1F DUP4 ADD PUSH1 0x5 SHR DUP2 ADD PUSH1 0x20 DUP5 LT PUSH2 0x249C JUMPI JUMPDEST PUSH1 0x1F DUP4 ADD PUSH1 0x5 SHR DUP3 ADD DUP2 LT PUSH2 0x2490 JUMPI POP POP PUSH2 0xA7E JUMP JUMPDEST PUSH1 0x0 DUP2 SSTORE PUSH1 0x1 ADD PUSH2 0x247A JUMP JUMPDEST POP DUP1 PUSH2 0x247A JUMP JUMPDEST PUSH1 0x40 MLOAD PUSH3 0x461BCD PUSH1 0xE5 SHL DUP2 MSTORE PUSH1 0x20 PUSH1 0x4 DUP3 ADD MSTORE PUSH1 0xB PUSH1 0x24 DUP3 ADD MSTORE PUSH11 0x139BDD081CDD195DD85C99 PUSH1 0xAA SHL PUSH1 0x44 DUP3 ADD MSTORE PUSH1 0x64 SWAP1 REVERT JUMPDEST CALLVALUE PUSH2 0xA4 JUMPI PUSH1 0x0 CALLDATASIZE PUSH1 0x3 NOT ADD SLT PUSH2 0xA4 JUMPI PUSH1 0x0 SLOAD PUSH1 0x40 MLOAD PUSH1 0x1 PUSH1 0x1 PUSH1 0xA0 SHL SUB SWAP1 SWAP2 AND DUP2 MSTORE PUSH1 0x20 SWAP1 RETURN JUMPDEST CALLVALUE PUSH2 0xA4 JUMPI PUSH1 0x20 CALLDATASIZE PUSH1 0x3 NOT ADD SLT PUSH2 0xA4 JUMPI PUSH1 0x1 PUSH1 0x1 PUSH1 0xA0 SHL SUB PUSH2 0x2520 PUSH2 0x2839 JUMP JUMPDEST AND PUSH1 0x0 MSTORE PUSH1 0x1 PUSH1 0x20 MSTORE PUSH1 0x40 PUSH1 0x0 KECCAK256 PUSH2 0x2537 DUP2 PUSH2 0x28C6 JUMP JUMPDEST PUSH2 0x2543 PUSH1 0x1 DUP4 ADD PUSH2 0x28C6 JUMP JUMPDEST PUSH2 0x580 MSTORE PUSH2 0x2553 PUSH1 0x2 DUP4 ADD PUSH2 0x28C6 JUMP JUMPDEST PUSH2 0x420 MSTORE PUSH2 0x2563 PUSH1 0x3 DUP4 ADD PUSH2 0x28C6 JUMP JUMPDEST PUSH2 0x620 MSTORE PUSH2 0x2573 PUSH1 0x4 DUP4 ADD PUSH2 0x28C6 JUMP JUMPDEST PUSH2 0x257F PUSH1 0x5 DUP5 ADD PUSH2 0x28C6 JUMP JUMPDEST PUSH2 0x258B PUSH1 0x6 DUP6 ADD PUSH2 0x28C6 JUMP JUMPDEST PUSH2 0x2597 PUSH1 0x7 DUP7 ADD PUSH2 0x28C6 JUMP JUMPDEST PUSH2 0x25A3 PUSH1 0x8 DUP8 ADD PUSH2 0x28C6 JUMP JUMPDEST PUSH2 0x25AF PUSH1 0x9 DUP9 ADD PUSH2 0x28C6 JUMP JUMPDEST SWAP1 PUSH2 0x25BC PUSH1 0xA DUP10 ADD PUSH2 0x28C6 JUMP JUMPDEST SWAP3 PUSH2 0x25C9 PUSH1 0xB DUP11 ADD PUSH2 0x28C6 JUMP JUMPDEST SWAP5 PUSH2 0x25D6 PUSH1 0xC DUP12 ADD PUSH2 0x28C6 JUMP JUMPDEST SWAP7 PUSH2 0x25E3 PUSH1 0xD DUP13 ADD PUSH2 0x28C6 JUMP JUMPDEST SWAP9 PUSH2 0x25F0 PUSH1 0xE DUP14 ADD PUSH2 0x28C6 JUMP JUMPDEST SWAP11 PUSH2 0x25FD PUSH1 0xF DUP15 ADD PUSH2 0x28C6 JUMP JUMPDEST SWAP13 PUSH2 0x260A PUSH1 0x10 DUP3 ADD PUSH2 0x28C6 JUMP JUMPDEST PUSH1 0x80 MSTORE PUSH2 0x2619 PUSH1 0x11 DUP3 ADD PUSH2 0x28C6 JUMP JUMPDEST PUSH1 0xE0 MSTORE PUSH2 0x2628 PUSH1 0x12 DUP3 ADD PUSH2 0x28C6 JUMP JUMPDEST PUSH1 0xC0 MSTORE PUSH1 0x13 ADD PUSH2 0x2637 SWAP1 PUSH2 0x28C6 JUMP JUMPDEST PUSH2 0x660 MSTORE PUSH1 0x40 MLOAD DUP1 PUSH2 0x5C0 MSTORE PUSH2 0x280 DUP1 SWAP2 MSTORE PUSH2 0x5C0 MLOAD ADD PUSH2 0x2657 SWAP2 PUSH2 0x296C JUMP JUMPDEST PUSH2 0x5C0 MLOAD DUP1 DUP3 SUB SWAP1 PUSH1 0x20 ADD MSTORE PUSH2 0x580 MLOAD SWAP1 PUSH2 0x2671 SWAP2 PUSH2 0x296C JUMP JUMPDEST PUSH2 0x5C0 MLOAD DUP1 DUP3 SUB SWAP1 PUSH1 0x40 ADD MSTORE PUSH2 0x420 MLOAD SWAP1 PUSH2 0x268B SWAP2 PUSH2 0x296C JUMP JUMPDEST PUSH2 0x5C0 MLOAD DUP1 DUP3 SUB SWAP1 PUSH1 0x60 ADD MSTORE PUSH2 0x620 MLOAD SWAP1 PUSH2 0x26A5 SWAP2 PUSH2 0x296C JUMP JUMPDEST PUSH2 0x5C0 MLOAD DUP1 DUP3 SUB SWAP1 PUSH1 0x80 ADD MSTORE PUSH2 0x26BA SWAP2 PUSH2 0x296C JUMP JUMPDEST PUSH2 0x5C0 MLOAD DUP1 DUP3 SUB SWAP1 PUSH1 0xA0 ADD MSTORE PUSH2 0x26CF SWAP2 PUSH2 0x296C JUMP JUMPDEST PUSH2 0x5C0 MLOAD DUP1 DUP3 SUB SWAP1 PUSH1 0xC0 ADD MSTORE PUSH2 0x26E4 SWAP2 PUSH2 0x296C JUMP JUMPDEST PUSH2 0x5C0 MLOAD DUP1 DUP3 SUB SWAP1 PUSH1 0xE0 ADD MSTORE PUSH2 0x26F9 SWAP2 PUSH2 0x296C JUMP JUMPDEST PUSH2 0x5C0 MLOAD DUP1 DUP3 SUB SWAP1 PUSH2 0x100 ADD MSTORE PUSH2 0x270F SWAP2 PUSH2 0x296C JUMP JUMPDEST PUSH2 0x5C0 MLOAD DUP1 DUP3 SUB SWAP1 PUSH2 0x120 ADD MSTORE PUSH2 0x2725 SWAP2 PUSH2 0x296C JUMP JUMPDEST PUSH2 0x5C0 MLOAD DUP1 DUP3 SUB SWAP1 PUSH2 0x140 ADD MSTORE PUSH2 0x273B SWAP2 PUSH2 0x296C JUMP JUMPDEST PUSH2 0x5C0 MLOAD DUP1 DUP3 SUB SWAP1 PUSH2 0x160 ADD MSTORE PUSH2 0x2751 SWAP2 PUSH2 0x296C JUMP JUMPDEST PUSH2 0x5C0 MLOAD DUP1 DUP3 SUB SWAP1 PUSH2 0x180 ADD MSTORE PUSH2 0x2767 SWAP2 PUSH2 0x296C JUMP JUMPDEST PUSH2 0x5C0 MLOAD DUP1 DUP3 SUB SWAP1 PUSH2 0x1A0 ADD MSTORE PUSH2 0x277D SWAP2 PUSH2 0x296C JUMP JUMPDEST PUSH2 0x5C0 MLOAD DUP1 DUP3 SUB SWAP1 PUSH2 0x1C0 ADD MSTORE PUSH2 0x2793 SWAP2 PUSH2 0x296C JUMP JUMPDEST PUSH2 0x5C0 MLOAD DUP1 DUP3 SUB SWAP1 PUSH2 0x1E0 ADD MSTORE PUSH2 0x27A9 SWAP2 PUSH2 0x296C JUMP JUMPDEST PUSH2 0x5C0 MLOAD DUP1 DUP3 SUB SWAP1 PUSH2 0x200 ADD MSTORE PUSH1 0x80 MLOAD SWAP1 PUSH2 0x27C3 SWAP2 PUSH2 0x296C JUMP JUMPDEST PUSH2 0x5C0 MLOAD DUP1 DUP3 SUB SWAP1 PUSH2 0x220 ADD MSTORE PUSH1 0xE0 MLOAD SWAP1 PUSH2 0x27DD SWAP2 PUSH2 0x296C JUMP JUMPDEST PUSH2 0x5C0 MLOAD DUP1 DUP3 SUB SWAP1 PUSH2 0x240 ADD MSTORE PUSH1 0xC0 MLOAD SWAP1 PUSH2 0x27F7 SWAP2 PUSH2 0x296C JUMP JUMPDEST PUSH2 0x5C0 MLOAD DUP1 DUP3 SUB SWAP1 PUSH2 0x260 ADD MSTORE PUSH2 0x5C0 MLOAD SWAP1 PUSH2 0x660 MLOAD SWAP1 PUSH2 0x2817 SWAP2 PUSH2 0x296C JUMP JUMPDEST SUB PUSH2 0x5C0 MLOAD RETURN JUMPDEST CALLVALUE PUSH2 0xA4 JUMPI PUSH1 0x0 CALLDATASIZE PUSH1 0x3 NOT ADD SLT PUSH2 0xA4 JUMPI PUSH1 0x20 SWAP1 PUSH1 0x2 SLOAD DUP2 MSTORE RETURN JUMPDEST PUSH1 0x4 CALLDATALOAD SWAP1 PUSH1 0x1 PUSH1 0x1 PUSH1 0xA0 SHL SUB DUP3 AND DUP3 SUB PUSH2 0xA4 JUMPI JUMP JUMPDEST SWAP1 PUSH1 0x1 DUP3 DUP2 SHR SWAP3 AND DUP1 ISZERO PUSH2 0x287F JUMPI JUMPDEST PUSH1 0x20 DUP4 LT EQ PUSH2 0x2869 JUMPI JUMP JUMPDEST PUSH4 0x4E487B71 PUSH1 0xE0 SHL PUSH1 0x0 MSTORE PUSH1 0x22 PUSH1 0x4 MSTORE PUSH1 0x24 PUSH1 0x0 REVERT JUMPDEST SWAP2 PUSH1 0x7F AND SWAP2 PUSH2 0x285E JUMP JUMPDEST PUSH2 0x280 DUP2 ADD SWAP1 DUP2 LT PUSH1 0x1 PUSH1 0x1 PUSH1 0x40 SHL SUB DUP3 GT OR PUSH2 0x149F JUMPI PUSH1 0x40 MSTORE JUMP JUMPDEST SWAP1 PUSH1 0x1F DUP1 NOT SWAP2 ADD AND DUP2 ADD SWAP1 DUP2 LT PUSH1 0x1 PUSH1 0x1 PUSH1 0x40 SHL SUB DUP3 GT OR PUSH2 0x149F JUMPI PUSH1 0x40 MSTORE JUMP JUMPDEST SWAP1 PUSH1 0x40 MLOAD SWAP2 DUP3 PUSH1 0x0 DUP3 SLOAD SWAP3 PUSH2 0x28DA DUP5 PUSH2 0x284F JUMP JUMPDEST SWAP1 DUP2 DUP5 MSTORE PUSH1 0x1 SWAP5 DUP6 DUP2 AND SWAP1 DUP2 PUSH1 0x0 EQ PUSH2 0x2949 JUMPI POP PUSH1 0x1 EQ PUSH2 0x2906 JUMPI JUMPDEST POP POP PUSH2 0x2904 SWAP3 POP SUB DUP4 PUSH2 0x28A5 JUMP JUMPDEST JUMP JUMPDEST SWAP1 SWAP4 SWAP2 POP PUSH1 0x0 MSTORE PUSH1 0x20 SWAP1 DUP2 PUSH1 0x0 KECCAK256 SWAP4 PUSH1 0x0 SWAP2 JUMPDEST DUP2 DUP4 LT PUSH2 0x2931 JUMPI POP POP PUSH2 0x2904 SWAP4 POP DUP3 ADD ADD CODESIZE DUP1 PUSH2 0x28F6 JUMP JUMPDEST DUP6 SLOAD DUP9 DUP5 ADD DUP6 ADD MSTORE SWAP5 DUP6 ADD SWAP5 DUP8 SWAP5 POP SWAP2 DUP4 ADD SWAP2 PUSH2 0x2919 JUMP JUMPDEST SWAP2 POP POP PUSH2 0x2904 SWAP5 POP PUSH1 0x20 SWAP3 POP PUSH1 0xFF NOT AND DUP3 DUP5 ADD MSTORE ISZERO ISZERO PUSH1 0x5 SHL DUP3 ADD ADD CODESIZE DUP1 PUSH2 0x28F6 JUMP JUMPDEST SWAP2 SWAP1 DUP3 MLOAD SWAP3 DUP4 DUP3 MSTORE PUSH1 0x0 JUMPDEST DUP5 DUP2 LT PUSH2 0x2998 JUMPI POP POP DUP3 PUSH1 0x0 PUSH1 0x20 DUP1 SWAP5 SWAP6 DUP5 ADD ADD MSTORE PUSH1 0x1F DUP1 NOT SWAP2 ADD AND ADD ADD SWAP1 JUMP JUMPDEST PUSH1 0x20 DUP2 DUP4 ADD DUP2 ADD MLOAD DUP5 DUP4 ADD DUP3 ADD MSTORE ADD PUSH2 0x2977 JUMP JUMPDEST SWAP2 DUP2 PUSH1 0x1F DUP5 ADD SLT ISZERO PUSH2 0xA4 JUMPI DUP3 CALLDATALOAD SWAP2 PUSH1 0x1 PUSH1 0x1 PUSH1 0x40 SHL SUB DUP4 GT PUSH2 0xA4 JUMPI PUSH1 0x20 DUP4 DUP2 DUP7 ADD SWAP6 ADD ADD GT PUSH2 0xA4 JUMPI JUMP JUMPDEST PUSH1 0x2 SLOAD DUP2 LT ISZERO PUSH2 0x2A10 JUMPI PUSH1 0x2 PUSH1 0x0 MSTORE PUSH32 0x405787FA12A823E0F2B7631CC41B3BA8828B3321CA811111FA75CD3AA3BB5ACE ADD SWAP1 PUSH1 0x0 SWAP1 JUMP JUMPDEST PUSH4 0x4E487B71 PUSH1 0xE0 SHL PUSH1 0x0 MSTORE PUSH1 0x32 PUSH1 0x4 MSTORE PUSH1 0x24 PUSH1 0x0 REVERT JUMPDEST SWAP3 SWAP2 SWAP3 PUSH1 0x1 PUSH1 0x1 PUSH1 0x40 SHL SUB DUP3 GT PUSH2 0x149F JUMPI PUSH1 0x40 MLOAD SWAP2 PUSH2 0x2A4F PUSH1 0x1F DUP3 ADD PUSH1 0x1F NOT AND PUSH1 0x20 ADD DUP5 PUSH2 0x28A5 JUMP JUMPDEST DUP3 SWAP5 DUP2 DUP5 MSTORE DUP2 DUP4 ADD GT PUSH2 0xA4 JUMPI DUP3 DUP2 PUSH1 0x20 SWAP4 DUP5 PUSH1 0x0 SWAP7 ADD CALLDATACOPY ADD ADD MSTORE JUMP JUMPDEST SWAP1 DUP1 PUSH1 0x20 SWAP4 SWAP3 DUP2 DUP5 MSTORE DUP5 DUP5 ADD CALLDATACOPY PUSH1 0x0 DUP3 DUP3 ADD DUP5 ADD MSTORE PUSH1 0x1F ADD PUSH1 0x1F NOT AND ADD ADD SWAP1 JUMP INVALID LOG2 PUSH5 0x6970667358 0x22 SLT KECCAK256 BASEFEE 0xDF 0x1E PUSH10 0x21B3CB472B6CDE7EDDFE 0x2C 0x4D PUSH9 0x3AABE8E56B1A9A3F3C SELFBALANCE 0x22 GASPRICE DUP12 NUMBER 0xC4 PUSH5 0x736F6C6343 STOP ADDMOD EQ STOP CALLER "},"methodIdentifiers":{"apprentices(uint256)":"f31bee3e","getSummons(address)":"cf84c603","steward()":"637eea19","summonApprentice(address,string,string,string,string,string,string,string,string,string,string,string,string,string,string,string,string,string,string,string,string)":"c3cd134d","summons(address)":"5a2ed662","totalSummons()":"2a17d4cd"}}}}}