{"contracts/manifest/TerrainDriftPulse.sol":{"TerrainDriftPulse":{"abi":[{"inputs":[],"stateMutability":"nonpayable","type":"constructor"},{"anonymous":false,"inputs":[{"indexed":false,"internalType":"string","name":"glyph","type":"string"},{"indexed":false,"internalType":"string","name":"driftPulse","type":"string"},{"indexed":false,"internalType":"string","name":"sanctum","type":"string"},{"indexed":false,"internalType":"string","name":"choreography","type":"string"},{"indexed":false,"internalType":"string","name":"chant","type":"string"}],"name":"DriftPulseRouted","type":"event"},{"inputs":[{"internalType":"string","name":"glyph","type":"string"}],"name":"getRoute","outputs":[{"components":[{"internalType":"string","name":"glyph","type":"string"},{"internalType":"string","name":"driftPulse","type":"string"},{"internalType":"string","name":"sanctum","type":"string"},{"internalType":"string","name":"choreography","type":"string"},{"internalType":"string","name":"chant","type":"string"}],"internalType":"struct TerrainDriftPulse.Route","name":"","type":"tuple"}],"stateMutability":"view","type":"function"},{"inputs":[{"internalType":"uint256","name":"","type":"uint256"}],"name":"keys","outputs":[{"internalType":"string","name":"","type":"string"}],"stateMutability":"view","type":"function"},{"inputs":[{"internalType":"string","name":"glyph","type":"string"},{"internalType":"string","name":"driftPulse","type":"string"},{"internalType":"string","name":"sanctum","type":"string"},{"internalType":"string","name":"choreography","type":"string"},{"internalType":"string","name":"chant","type":"string"}],"name":"routeDriftPulse","outputs":[],"stateMutability":"nonpayable","type":"function"},{"inputs":[{"internalType":"string","name":"","type":"string"}],"name":"routes","outputs":[{"internalType":"string","name":"glyph","type":"string"},{"internalType":"string","name":"driftPulse","type":"string"},{"internalType":"string","name":"sanctum","type":"string"},{"internalType":"string","name":"choreography","type":"string"},{"internalType":"string","name":"chant","type":"string"}],"stateMutability":"view","type":"function"},{"inputs":[],"name":"steward","outputs":[{"internalType":"address","name":"","type":"address"}],"stateMutability":"view","type":"function"},{"inputs":[],"name":"totalRoutes","outputs":[{"internalType":"uint256","name":"","type":"uint256"}],"stateMutability":"view","type":"function"}],"evm":{"bytecode":{"linkReferences":{},"object":"6080806040523461002857600080546001600160a01b03191633179055610d3c908161002e8239f35b600080fdfe608080604052600436101561001357600080fd5b60003560e01c90816305a2d3ac14610a52575080630cb6aaf114610a075780631b5f03a6146108c0578063637eea1914610897578063cffbffb5146107995763e7e390461461006157600080fd5b346107945760a0366003190112610794576004356001600160401b03811161079457610091903690600401610c1e565b6024356001600160401b038111610794576100b0903690600401610c1e565b906044356001600160401b038111610794576100d0903690600401610c1e565b906064356001600160401b038111610794576100f0903690600401610c1e565b9190926084356001600160401b03811161079457610112903690600401610c1e565b60005491979096916001600160a01b031633036107615760405161013581610af4565b610140368b8d610c4b565b815261014d368385610c4b565b602082015261015d368587610c4b565b604082015261016d368789610c4b565b606082015261017d36898b610c4b565b60808201526040518a8c82376020818c810160018152030190209080518051906001600160401b0382116104d55781906101c1826101bb8754610aba565b87610c91565b602090601f83116001146106f5576000926106ea575b50508160011b916000199060031b1c19161782555b60208101518051906001600160401b0382116104d557819061021e826102156001880154610aba565b60018801610c91565b602090601f83116001146106785760009261066d575b50508160011b916000199060031b1c19161760018301555b60408101518051906001600160401b0382116104d557819061027e826102756002880154610aba565b60028801610c91565b602090601f83116001146105fb576000926105f0575b50508160011b916000199060031b1c19161760028301555b60608101518051906001600160401b0382116104d5576102dc826102d36003870154610aba565b60038701610c91565b602090601f831160011461057d57608093929160009183610572575b50508160011b916000199060031b1c19161760038401555b0151908151906001600160401b0382116104d55760048291019261033e826103388654610aba565b86610c91565b602090601f831160011461050c57600092610501575b50508160011b916000199060031b1c19161790555b600254680100000000000000008110156104d55780600161038d9201600255610a6d565b6104eb576001600160401b038a116104d5576103b38a6103ad8354610aba565b83610c91565b896000601f821160011461046e57600091610463575b508a60011b906000198c60031b1c19161790555b604051998a9960a08b5260a08b01906103f592610ce5565b9089820360208b015261040792610ce5565b90878203604089015261041992610ce5565b90858203606087015261042b92610ce5565b90838203608085015261043d92610ce5565b037f908db1e48dd76b6abb25829f1cf434c857c1f773a140cf07c8c6b874014d3b4091a1005b90508b0135386103c9565b60008381526020812092505b8d601f198e1682106104bd5750508b601f198116106104a3575b505060018a811b0190556103dd565b8c013560001960038d901b60f8161c191690553880610494565b6001839460209394849301358155019301910161047a565b634e487b7160e01b600052604160045260246000fd5b634e487b7160e01b600052600060045260246000fd5b015190503880610354565b6000858152602081209350601f198516905b81811061055a5750908460019594939210610541575b505050811b019055610369565b015160001960f88460031b161c19169055388080610534565b9293602060018192878601518155019501930161051e565b0151905038806102f8565b906003850160005260206000209160005b601f19851681106105d8575091839160019360809695601f198116106105bf575b505050811b016003840155610310565b015160001960f88460031b161c191690553880806105af565b9192602060018192868501518155019401920161058e565b015190503880610294565b9250600285016000526020600020906000935b601f1984168510610652576001945083601f19811610610639575b505050811b0160028301556102ac565b015160001960f88460031b161c19169055388080610629565b8181015183556020948501946001909301929091019061060e565b015190503880610234565b9250600185016000526020600020906000935b601f19841685106106cf576001945083601f198116106106b6575b505050811b01600183015561024c565b015160001960f88460031b161c191690553880806106a6565b8181015183556020948501946001909301929091019061068b565b0151905038806101d7565b9250846000526020600020906000935b601f1984168510610746576001945083601f1981161061072d575b505050811b0182556101ec565b015160001960f88460031b161c19169055388080610720565b81810151835560209485019460019093019290910190610705565b60405162461bcd60e51b815260206004820152600b60248201526a139bdd081cdd195dd85c9960aa1b6044820152606490fd5b600080fd5b34610794576020366003190112610794576004356001600160401b0381116107945736602382011215610794576107f560206107e261085b933690602481600401359101610c4b565b8160405193828580945193849201610bd6565b8101600181520301902061089361080b82610b30565b9161088561081b60018301610b30565b9161087761082b60028301610b30565b610869610846600461083f60038701610b30565b9501610b30565b95604051998a9960a08b5260a08b0190610bf9565b9089820360208b0152610bf9565b908782036040890152610bf9565b908582036060870152610bf9565b908382036080850152610bf9565b0390f35b34610794576000366003190112610794576000546040516001600160a01b039091168152602090f35b346107945760208060031936011261079457600435906001600160401b03821161079457610893816108f86080943690600401610c1e565b919060405161090681610af4565b606096818880935282858201528260408201528280820152015282604051938492833781016001815203019020926040519361094185610af4565b61094a81610b30565b85526109f661095b60018301610b30565b918587019283526109e561097160028301610b30565b60408901908152610996600461098960038601610b30565b94888c0195865201610b30565b9560808a019687526109d46109be8a60a06040519d8e9d8e5251918d015260c08c0190610bf9565b965196601f1997888c83030160408d0152610bf9565b915190868a840301908a0152610bf9565b905183878303016080880152610bf9565b9151908483030160a0850152610bf9565b346107945760203660031901126107945760043560025481101561079457610a2e90610a6d565b6104eb57610a3e61089391610b30565b604051918291602083526020830190610bf9565b34610794576000366003190112610794576020906002548152f35b600254811015610aa45760026000527f405787fa12a823e0f2b7631cc41b3ba8828b3321ca811111fa75cd3aa3bb5ace0190600090565b634e487b7160e01b600052603260045260246000fd5b90600182811c92168015610aea575b6020831014610ad457565b634e487b7160e01b600052602260045260246000fd5b91607f1691610ac9565b60a081019081106001600160401b038211176104d557604052565b90601f801991011681019081106001600160401b038211176104d557604052565b9060405191826000825492610b4484610aba565b908184526001948581169081600014610bb35750600114610b70575b5050610b6e92500383610b0f565b565b9093915060005260209081600020936000915b818310610b9b575050610b6e93508201013880610b60565b85548884018501529485019487945091830191610b83565b915050610b6e94506020925060ff191682840152151560051b8201013880610b60565b60005b838110610be95750506000910152565b8181015183820152602001610bd9565b90602091610c1281518092818552858086019101610bd6565b601f01601f1916010190565b9181601f84011215610794578235916001600160401b038311610794576020838186019501011161079457565b9291926001600160401b0382116104d55760405191610c74601f8201601f191660200184610b0f565b829481845281830111610794578281602093846000960137010152565b90601f8111610c9f57505050565b600091825260208220906020601f850160051c83019410610cdb575b601f0160051c01915b828110610cd057505050565b818155600101610cc4565b9092508290610cbb565b908060209392818452848401376000828201840152601f01601f191601019056fea2646970667358221220e99ff62dbcb07cd96032308f9383a92420e331e5a697df042d2d560342da5aaf64736f6c63430008140033","opcodes":"PUSH1 0x80 DUP1 PUSH1 0x40 MSTORE CALLVALUE PUSH2 0x28 JUMPI PUSH1 0x0 DUP1 SLOAD PUSH1 0x1 PUSH1 0x1 PUSH1 0xA0 SHL SUB NOT AND CALLER OR SWAP1 SSTORE PUSH2 0xD3C SWAP1 DUP2 PUSH2 0x2E DUP3 CODECOPY RETURN JUMPDEST PUSH1 0x0 DUP1 REVERT INVALID PUSH1 0x80 DUP1 PUSH1 0x40 MSTORE PUSH1 0x4 CALLDATASIZE LT ISZERO PUSH2 0x13 JUMPI PUSH1 0x0 DUP1 REVERT JUMPDEST PUSH1 0x0 CALLDATALOAD PUSH1 0xE0 SHR SWAP1 DUP2 PUSH4 0x5A2D3AC EQ PUSH2 0xA52 JUMPI POP DUP1 PUSH4 0xCB6AAF1 EQ PUSH2 0xA07 JUMPI DUP1 PUSH4 0x1B5F03A6 EQ PUSH2 0x8C0 JUMPI DUP1 PUSH4 0x637EEA19 EQ PUSH2 0x897 JUMPI DUP1 PUSH4 0xCFFBFFB5 EQ PUSH2 0x799 JUMPI PUSH4 0xE7E39046 EQ PUSH2 0x61 JUMPI PUSH1 0x0 DUP1 REVERT JUMPDEST CALLVALUE PUSH2 0x794 JUMPI PUSH1 0xA0 CALLDATASIZE PUSH1 0x3 NOT ADD SLT PUSH2 0x794 JUMPI PUSH1 0x4 CALLDATALOAD PUSH1 0x1 PUSH1 0x1 PUSH1 0x40 SHL SUB DUP2 GT PUSH2 0x794 JUMPI PUSH2 0x91 SWAP1 CALLDATASIZE SWAP1 PUSH1 0x4 ADD PUSH2 0xC1E JUMP JUMPDEST PUSH1 0x24 CALLDATALOAD PUSH1 0x1 PUSH1 0x1 PUSH1 0x40 SHL SUB DUP2 GT PUSH2 0x794 JUMPI PUSH2 0xB0 SWAP1 CALLDATASIZE SWAP1 PUSH1 0x4 ADD PUSH2 0xC1E JUMP JUMPDEST SWAP1 PUSH1 0x44 CALLDATALOAD PUSH1 0x1 PUSH1 0x1 PUSH1 0x40 SHL SUB DUP2 GT PUSH2 0x794 JUMPI PUSH2 0xD0 SWAP1 CALLDATASIZE SWAP1 PUSH1 0x4 ADD PUSH2 0xC1E JUMP JUMPDEST SWAP1 PUSH1 0x64 CALLDATALOAD PUSH1 0x1 PUSH1 0x1 PUSH1 0x40 SHL SUB DUP2 GT PUSH2 0x794 JUMPI PUSH2 0xF0 SWAP1 CALLDATASIZE SWAP1 PUSH1 0x4 ADD PUSH2 0xC1E JUMP JUMPDEST SWAP2 SWAP1 SWAP3 PUSH1 0x84 CALLDATALOAD PUSH1 0x1 PUSH1 0x1 PUSH1 0x40 SHL SUB DUP2 GT PUSH2 0x794 JUMPI PUSH2 0x112 SWAP1 CALLDATASIZE SWAP1 PUSH1 0x4 ADD PUSH2 0xC1E JUMP JUMPDEST PUSH1 0x0 SLOAD SWAP2 SWAP8 SWAP1 SWAP7 SWAP2 PUSH1 0x1 PUSH1 0x1 PUSH1 0xA0 SHL SUB AND CALLER SUB PUSH2 0x761 JUMPI PUSH1 0x40 MLOAD PUSH2 0x135 DUP2 PUSH2 0xAF4 JUMP JUMPDEST PUSH2 0x140 CALLDATASIZE DUP12 DUP14 PUSH2 0xC4B JUMP JUMPDEST DUP2 MSTORE PUSH2 0x14D CALLDATASIZE DUP4 DUP6 PUSH2 0xC4B JUMP JUMPDEST PUSH1 0x20 DUP3 ADD MSTORE PUSH2 0x15D CALLDATASIZE DUP6 DUP8 PUSH2 0xC4B JUMP JUMPDEST PUSH1 0x40 DUP3 ADD MSTORE PUSH2 0x16D CALLDATASIZE DUP8 DUP10 PUSH2 0xC4B JUMP JUMPDEST PUSH1 0x60 DUP3 ADD MSTORE PUSH2 0x17D CALLDATASIZE DUP10 DUP12 PUSH2 0xC4B JUMP JUMPDEST PUSH1 0x80 DUP3 ADD MSTORE PUSH1 0x40 MLOAD DUP11 DUP13 DUP3 CALLDATACOPY PUSH1 0x20 DUP2 DUP13 DUP2 ADD PUSH1 0x1 DUP2 MSTORE SUB ADD SWAP1 KECCAK256 SWAP1 DUP1 MLOAD DUP1 MLOAD SWAP1 PUSH1 0x1 PUSH1 0x1 PUSH1 0x40 SHL SUB DUP3 GT PUSH2 0x4D5 JUMPI DUP2 SWAP1 PUSH2 0x1C1 DUP3 PUSH2 0x1BB DUP8 SLOAD PUSH2 0xABA JUMP JUMPDEST DUP8 PUSH2 0xC91 JUMP JUMPDEST PUSH1 0x20 SWAP1 PUSH1 0x1F DUP4 GT PUSH1 0x1 EQ PUSH2 0x6F5 JUMPI PUSH1 0x0 SWAP3 PUSH2 0x6EA JUMPI JUMPDEST POP POP DUP2 PUSH1 0x1 SHL SWAP2 PUSH1 0x0 NOT SWAP1 PUSH1 0x3 SHL SHR NOT AND OR DUP3 SSTORE JUMPDEST PUSH1 0x20 DUP2 ADD MLOAD DUP1 MLOAD SWAP1 PUSH1 0x1 PUSH1 0x1 PUSH1 0x40 SHL SUB DUP3 GT PUSH2 0x4D5 JUMPI DUP2 SWAP1 PUSH2 0x21E DUP3 PUSH2 0x215 PUSH1 0x1 DUP9 ADD SLOAD PUSH2 0xABA JUMP JUMPDEST PUSH1 0x1 DUP9 ADD PUSH2 0xC91 JUMP JUMPDEST PUSH1 0x20 SWAP1 PUSH1 0x1F DUP4 GT PUSH1 0x1 EQ PUSH2 0x678 JUMPI PUSH1 0x0 SWAP3 PUSH2 0x66D JUMPI JUMPDEST POP POP DUP2 PUSH1 0x1 SHL SWAP2 PUSH1 0x0 NOT SWAP1 PUSH1 0x3 SHL SHR NOT AND OR PUSH1 0x1 DUP4 ADD SSTORE JUMPDEST PUSH1 0x40 DUP2 ADD MLOAD DUP1 MLOAD SWAP1 PUSH1 0x1 PUSH1 0x1 PUSH1 0x40 SHL SUB DUP3 GT PUSH2 0x4D5 JUMPI DUP2 SWAP1 PUSH2 0x27E DUP3 PUSH2 0x275 PUSH1 0x2 DUP9 ADD SLOAD PUSH2 0xABA JUMP JUMPDEST PUSH1 0x2 DUP9 ADD PUSH2 0xC91 JUMP JUMPDEST PUSH1 0x20 SWAP1 PUSH1 0x1F DUP4 GT PUSH1 0x1 EQ PUSH2 0x5FB JUMPI PUSH1 0x0 SWAP3 PUSH2 0x5F0 JUMPI JUMPDEST POP POP DUP2 PUSH1 0x1 SHL SWAP2 PUSH1 0x0 NOT SWAP1 PUSH1 0x3 SHL SHR NOT AND OR PUSH1 0x2 DUP4 ADD SSTORE JUMPDEST PUSH1 0x60 DUP2 ADD MLOAD DUP1 MLOAD SWAP1 PUSH1 0x1 PUSH1 0x1 PUSH1 0x40 SHL SUB DUP3 GT PUSH2 0x4D5 JUMPI PUSH2 0x2DC DUP3 PUSH2 0x2D3 PUSH1 0x3 DUP8 ADD SLOAD PUSH2 0xABA JUMP JUMPDEST PUSH1 0x3 DUP8 ADD PUSH2 0xC91 JUMP JUMPDEST PUSH1 0x20 SWAP1 PUSH1 0x1F DUP4 GT PUSH1 0x1 EQ PUSH2 0x57D JUMPI PUSH1 0x80 SWAP4 SWAP3 SWAP2 PUSH1 0x0 SWAP2 DUP4 PUSH2 0x572 JUMPI JUMPDEST POP POP DUP2 PUSH1 0x1 SHL SWAP2 PUSH1 0x0 NOT SWAP1 PUSH1 0x3 SHL SHR NOT AND OR PUSH1 0x3 DUP5 ADD SSTORE JUMPDEST ADD MLOAD SWAP1 DUP2 MLOAD SWAP1 PUSH1 0x1 PUSH1 0x1 PUSH1 0x40 SHL SUB DUP3 GT PUSH2 0x4D5 JUMPI PUSH1 0x4 DUP3 SWAP2 ADD SWAP3 PUSH2 0x33E DUP3 PUSH2 0x338 DUP7 SLOAD PUSH2 0xABA JUMP JUMPDEST DUP7 PUSH2 0xC91 JUMP JUMPDEST PUSH1 0x20 SWAP1 PUSH1 0x1F DUP4 GT PUSH1 0x1 EQ PUSH2 0x50C JUMPI PUSH1 0x0 SWAP3 PUSH2 0x501 JUMPI JUMPDEST POP POP DUP2 PUSH1 0x1 SHL SWAP2 PUSH1 0x0 NOT SWAP1 PUSH1 0x3 SHL SHR NOT AND OR SWAP1 SSTORE JUMPDEST PUSH1 0x2 SLOAD PUSH9 0x10000000000000000 DUP2 LT ISZERO PUSH2 0x4D5 JUMPI DUP1 PUSH1 0x1 PUSH2 0x38D SWAP3 ADD PUSH1 0x2 SSTORE PUSH2 0xA6D JUMP JUMPDEST PUSH2 0x4EB JUMPI PUSH1 0x1 PUSH1 0x1 PUSH1 0x40 SHL SUB DUP11 GT PUSH2 0x4D5 JUMPI PUSH2 0x3B3 DUP11 PUSH2 0x3AD DUP4 SLOAD PUSH2 0xABA JUMP JUMPDEST DUP4 PUSH2 0xC91 JUMP JUMPDEST DUP10 PUSH1 0x0 PUSH1 0x1F DUP3 GT PUSH1 0x1 EQ PUSH2 0x46E JUMPI PUSH1 0x0 SWAP2 PUSH2 0x463 JUMPI JUMPDEST POP DUP11 PUSH1 0x1 SHL SWAP1 PUSH1 0x0 NOT DUP13 PUSH1 0x3 SHL SHR NOT AND OR SWAP1 SSTORE JUMPDEST PUSH1 0x40 MLOAD SWAP10 DUP11 SWAP10 PUSH1 0xA0 DUP12 MSTORE PUSH1 0xA0 DUP12 ADD SWAP1 PUSH2 0x3F5 SWAP3 PUSH2 0xCE5 JUMP JUMPDEST SWAP1 DUP10 DUP3 SUB PUSH1 0x20 DUP12 ADD MSTORE PUSH2 0x407 SWAP3 PUSH2 0xCE5 JUMP JUMPDEST SWAP1 DUP8 DUP3 SUB PUSH1 0x40 DUP10 ADD MSTORE PUSH2 0x419 SWAP3 PUSH2 0xCE5 JUMP JUMPDEST SWAP1 DUP6 DUP3 SUB PUSH1 0x60 DUP8 ADD MSTORE PUSH2 0x42B SWAP3 PUSH2 0xCE5 JUMP JUMPDEST SWAP1 DUP4 DUP3 SUB PUSH1 0x80 DUP6 ADD MSTORE PUSH2 0x43D SWAP3 PUSH2 0xCE5 JUMP JUMPDEST SUB PUSH32 0x908DB1E48DD76B6ABB25829F1CF434C857C1F773A140CF07C8C6B874014D3B40 SWAP2 LOG1 STOP JUMPDEST SWAP1 POP DUP12 ADD CALLDATALOAD CODESIZE PUSH2 0x3C9 JUMP JUMPDEST PUSH1 0x0 DUP4 DUP2 MSTORE PUSH1 0x20 DUP2 KECCAK256 SWAP3 POP JUMPDEST DUP14 PUSH1 0x1F NOT DUP15 AND DUP3 LT PUSH2 0x4BD JUMPI POP POP DUP12 PUSH1 0x1F NOT DUP2 AND LT PUSH2 0x4A3 JUMPI JUMPDEST POP POP PUSH1 0x1 DUP11 DUP2 SHL ADD SWAP1 SSTORE PUSH2 0x3DD JUMP JUMPDEST DUP13 ADD CALLDATALOAD PUSH1 0x0 NOT PUSH1 0x3 DUP14 SWAP1 SHL PUSH1 0xF8 AND SHR NOT AND SWAP1 SSTORE CODESIZE DUP1 PUSH2 0x494 JUMP JUMPDEST PUSH1 0x1 DUP4 SWAP5 PUSH1 0x20 SWAP4 SWAP5 DUP5 SWAP4 ADD CALLDATALOAD DUP2 SSTORE ADD SWAP4 ADD SWAP2 ADD PUSH2 0x47A JUMP JUMPDEST PUSH4 0x4E487B71 PUSH1 0xE0 SHL PUSH1 0x0 MSTORE PUSH1 0x41 PUSH1 0x4 MSTORE PUSH1 0x24 PUSH1 0x0 REVERT JUMPDEST PUSH4 0x4E487B71 PUSH1 0xE0 SHL PUSH1 0x0 MSTORE PUSH1 0x0 PUSH1 0x4 MSTORE PUSH1 0x24 PUSH1 0x0 REVERT JUMPDEST ADD MLOAD SWAP1 POP CODESIZE DUP1 PUSH2 0x354 JUMP JUMPDEST PUSH1 0x0 DUP6 DUP2 MSTORE PUSH1 0x20 DUP2 KECCAK256 SWAP4 POP PUSH1 0x1F NOT DUP6 AND SWAP1 JUMPDEST DUP2 DUP2 LT PUSH2 0x55A JUMPI POP SWAP1 DUP5 PUSH1 0x1 SWAP6 SWAP5 SWAP4 SWAP3 LT PUSH2 0x541 JUMPI JUMPDEST POP POP POP DUP2 SHL ADD SWAP1 SSTORE PUSH2 0x369 JUMP JUMPDEST ADD MLOAD PUSH1 0x0 NOT PUSH1 0xF8 DUP5 PUSH1 0x3 SHL AND SHR NOT AND SWAP1 SSTORE CODESIZE DUP1 DUP1 PUSH2 0x534 JUMP JUMPDEST SWAP3 SWAP4 PUSH1 0x20 PUSH1 0x1 DUP2 SWAP3 DUP8 DUP7 ADD MLOAD DUP2 SSTORE ADD SWAP6 ADD SWAP4 ADD PUSH2 0x51E JUMP JUMPDEST ADD MLOAD SWAP1 POP CODESIZE DUP1 PUSH2 0x2F8 JUMP JUMPDEST SWAP1 PUSH1 0x3 DUP6 ADD PUSH1 0x0 MSTORE PUSH1 0x20 PUSH1 0x0 KECCAK256 SWAP2 PUSH1 0x0 JUMPDEST PUSH1 0x1F NOT DUP6 AND DUP2 LT PUSH2 0x5D8 JUMPI POP SWAP2 DUP4 SWAP2 PUSH1 0x1 SWAP4 PUSH1 0x80 SWAP7 SWAP6 PUSH1 0x1F NOT DUP2 AND LT PUSH2 0x5BF JUMPI JUMPDEST POP POP POP DUP2 SHL ADD PUSH1 0x3 DUP5 ADD SSTORE PUSH2 0x310 JUMP JUMPDEST ADD MLOAD PUSH1 0x0 NOT PUSH1 0xF8 DUP5 PUSH1 0x3 SHL AND SHR NOT AND SWAP1 SSTORE CODESIZE DUP1 DUP1 PUSH2 0x5AF JUMP JUMPDEST SWAP2 SWAP3 PUSH1 0x20 PUSH1 0x1 DUP2 SWAP3 DUP7 DUP6 ADD MLOAD DUP2 SSTORE ADD SWAP5 ADD SWAP3 ADD PUSH2 0x58E JUMP JUMPDEST ADD MLOAD SWAP1 POP CODESIZE DUP1 PUSH2 0x294 JUMP JUMPDEST SWAP3 POP PUSH1 0x2 DUP6 ADD PUSH1 0x0 MSTORE PUSH1 0x20 PUSH1 0x0 KECCAK256 SWAP1 PUSH1 0x0 SWAP4 JUMPDEST PUSH1 0x1F NOT DUP5 AND DUP6 LT PUSH2 0x652 JUMPI PUSH1 0x1 SWAP5 POP DUP4 PUSH1 0x1F NOT DUP2 AND LT PUSH2 0x639 JUMPI JUMPDEST POP POP POP DUP2 SHL ADD PUSH1 0x2 DUP4 ADD SSTORE PUSH2 0x2AC JUMP JUMPDEST ADD MLOAD PUSH1 0x0 NOT PUSH1 0xF8 DUP5 PUSH1 0x3 SHL AND SHR NOT AND SWAP1 SSTORE CODESIZE DUP1 DUP1 PUSH2 0x629 JUMP JUMPDEST DUP2 DUP2 ADD MLOAD DUP4 SSTORE PUSH1 0x20 SWAP5 DUP6 ADD SWAP5 PUSH1 0x1 SWAP1 SWAP4 ADD SWAP3 SWAP1 SWAP2 ADD SWAP1 PUSH2 0x60E JUMP JUMPDEST ADD MLOAD SWAP1 POP CODESIZE DUP1 PUSH2 0x234 JUMP JUMPDEST SWAP3 POP PUSH1 0x1 DUP6 ADD PUSH1 0x0 MSTORE PUSH1 0x20 PUSH1 0x0 KECCAK256 SWAP1 PUSH1 0x0 SWAP4 JUMPDEST PUSH1 0x1F NOT DUP5 AND DUP6 LT PUSH2 0x6CF JUMPI PUSH1 0x1 SWAP5 POP DUP4 PUSH1 0x1F NOT DUP2 AND LT PUSH2 0x6B6 JUMPI JUMPDEST POP POP POP DUP2 SHL ADD PUSH1 0x1 DUP4 ADD SSTORE PUSH2 0x24C JUMP JUMPDEST ADD MLOAD PUSH1 0x0 NOT PUSH1 0xF8 DUP5 PUSH1 0x3 SHL AND SHR NOT AND SWAP1 SSTORE CODESIZE DUP1 DUP1 PUSH2 0x6A6 JUMP JUMPDEST DUP2 DUP2 ADD MLOAD DUP4 SSTORE PUSH1 0x20 SWAP5 DUP6 ADD SWAP5 PUSH1 0x1 SWAP1 SWAP4 ADD SWAP3 SWAP1 SWAP2 ADD SWAP1 PUSH2 0x68B JUMP JUMPDEST ADD MLOAD SWAP1 POP CODESIZE DUP1 PUSH2 0x1D7 JUMP JUMPDEST SWAP3 POP DUP5 PUSH1 0x0 MSTORE PUSH1 0x20 PUSH1 0x0 KECCAK256 SWAP1 PUSH1 0x0 SWAP4 JUMPDEST PUSH1 0x1F NOT DUP5 AND DUP6 LT PUSH2 0x746 JUMPI PUSH1 0x1 SWAP5 POP DUP4 PUSH1 0x1F NOT DUP2 AND LT PUSH2 0x72D JUMPI JUMPDEST POP POP POP DUP2 SHL ADD DUP3 SSTORE PUSH2 0x1EC JUMP JUMPDEST ADD MLOAD PUSH1 0x0 NOT PUSH1 0xF8 DUP5 PUSH1 0x3 SHL AND SHR NOT AND SWAP1 SSTORE CODESIZE DUP1 DUP1 PUSH2 0x720 JUMP JUMPDEST DUP2 DUP2 ADD MLOAD DUP4 SSTORE PUSH1 0x20 SWAP5 DUP6 ADD SWAP5 PUSH1 0x1 SWAP1 SWAP4 ADD SWAP3 SWAP1 SWAP2 ADD SWAP1 PUSH2 0x705 JUMP JUMPDEST PUSH1 0x40 MLOAD PUSH3 0x461BCD PUSH1 0xE5 SHL DUP2 MSTORE PUSH1 0x20 PUSH1 0x4 DUP3 ADD MSTORE PUSH1 0xB PUSH1 0x24 DUP3 ADD MSTORE PUSH11 0x139BDD081CDD195DD85C99 PUSH1 0xAA SHL PUSH1 0x44 DUP3 ADD MSTORE PUSH1 0x64 SWAP1 REVERT JUMPDEST PUSH1 0x0 DUP1 REVERT JUMPDEST CALLVALUE PUSH2 0x794 JUMPI PUSH1 0x20 CALLDATASIZE PUSH1 0x3 NOT ADD SLT PUSH2 0x794 JUMPI PUSH1 0x4 CALLDATALOAD PUSH1 0x1 PUSH1 0x1 PUSH1 0x40 SHL SUB DUP2 GT PUSH2 0x794 JUMPI CALLDATASIZE PUSH1 0x23 DUP3 ADD SLT ISZERO PUSH2 0x794 JUMPI PUSH2 0x7F5 PUSH1 0x20 PUSH2 0x7E2 PUSH2 0x85B SWAP4 CALLDATASIZE SWAP1 PUSH1 0x24 DUP2 PUSH1 0x4 ADD CALLDATALOAD SWAP2 ADD PUSH2 0xC4B JUMP JUMPDEST DUP2 PUSH1 0x40 MLOAD SWAP4 DUP3 DUP6 DUP1 SWAP5 MLOAD SWAP4 DUP5 SWAP3 ADD PUSH2 0xBD6 JUMP JUMPDEST DUP2 ADD PUSH1 0x1 DUP2 MSTORE SUB ADD SWAP1 KECCAK256 PUSH2 0x893 PUSH2 0x80B DUP3 PUSH2 0xB30 JUMP JUMPDEST SWAP2 PUSH2 0x885 PUSH2 0x81B PUSH1 0x1 DUP4 ADD PUSH2 0xB30 JUMP JUMPDEST SWAP2 PUSH2 0x877 PUSH2 0x82B PUSH1 0x2 DUP4 ADD PUSH2 0xB30 JUMP JUMPDEST PUSH2 0x869 PUSH2 0x846 PUSH1 0x4 PUSH2 0x83F PUSH1 0x3 DUP8 ADD PUSH2 0xB30 JUMP JUMPDEST SWAP6 ADD PUSH2 0xB30 JUMP JUMPDEST SWAP6 PUSH1 0x40 MLOAD SWAP10 DUP11 SWAP10 PUSH1 0xA0 DUP12 MSTORE PUSH1 0xA0 DUP12 ADD SWAP1 PUSH2 0xBF9 JUMP JUMPDEST SWAP1 DUP10 DUP3 SUB PUSH1 0x20 DUP12 ADD MSTORE PUSH2 0xBF9 JUMP JUMPDEST SWAP1 DUP8 DUP3 SUB PUSH1 0x40 DUP10 ADD MSTORE PUSH2 0xBF9 JUMP JUMPDEST SWAP1 DUP6 DUP3 SUB PUSH1 0x60 DUP8 ADD MSTORE PUSH2 0xBF9 JUMP JUMPDEST SWAP1 DUP4 DUP3 SUB PUSH1 0x80 DUP6 ADD MSTORE PUSH2 0xBF9 JUMP JUMPDEST SUB SWAP1 RETURN JUMPDEST CALLVALUE PUSH2 0x794 JUMPI PUSH1 0x0 CALLDATASIZE PUSH1 0x3 NOT ADD SLT PUSH2 0x794 JUMPI PUSH1 0x0 SLOAD PUSH1 0x40 MLOAD PUSH1 0x1 PUSH1 0x1 PUSH1 0xA0 SHL SUB SWAP1 SWAP2 AND DUP2 MSTORE PUSH1 0x20 SWAP1 RETURN JUMPDEST CALLVALUE PUSH2 0x794 JUMPI PUSH1 0x20 DUP1 PUSH1 0x3 NOT CALLDATASIZE ADD SLT PUSH2 0x794 JUMPI PUSH1 0x4 CALLDATALOAD SWAP1 PUSH1 0x1 PUSH1 0x1 PUSH1 0x40 SHL SUB DUP3 GT PUSH2 0x794 JUMPI PUSH2 0x893 DUP2 PUSH2 0x8F8 PUSH1 0x80 SWAP5 CALLDATASIZE SWAP1 PUSH1 0x4 ADD PUSH2 0xC1E JUMP JUMPDEST SWAP2 SWAP1 PUSH1 0x40 MLOAD PUSH2 0x906 DUP2 PUSH2 0xAF4 JUMP JUMPDEST PUSH1 0x60 SWAP7 DUP2 DUP9 DUP1 SWAP4 MSTORE DUP3 DUP6 DUP3 ADD MSTORE DUP3 PUSH1 0x40 DUP3 ADD MSTORE DUP3 DUP1 DUP3 ADD MSTORE ADD MSTORE DUP3 PUSH1 0x40 MLOAD SWAP4 DUP5 SWAP3 DUP4 CALLDATACOPY DUP2 ADD PUSH1 0x1 DUP2 MSTORE SUB ADD SWAP1 KECCAK256 SWAP3 PUSH1 0x40 MLOAD SWAP4 PUSH2 0x941 DUP6 PUSH2 0xAF4 JUMP JUMPDEST PUSH2 0x94A DUP2 PUSH2 0xB30 JUMP JUMPDEST DUP6 MSTORE PUSH2 0x9F6 PUSH2 0x95B PUSH1 0x1 DUP4 ADD PUSH2 0xB30 JUMP JUMPDEST SWAP2 DUP6 DUP8 ADD SWAP3 DUP4 MSTORE PUSH2 0x9E5 PUSH2 0x971 PUSH1 0x2 DUP4 ADD PUSH2 0xB30 JUMP JUMPDEST PUSH1 0x40 DUP10 ADD SWAP1 DUP2 MSTORE PUSH2 0x996 PUSH1 0x4 PUSH2 0x989 PUSH1 0x3 DUP7 ADD PUSH2 0xB30 JUMP JUMPDEST SWAP5 DUP9 DUP13 ADD SWAP6 DUP7 MSTORE ADD PUSH2 0xB30 JUMP JUMPDEST SWAP6 PUSH1 0x80 DUP11 ADD SWAP7 DUP8 MSTORE PUSH2 0x9D4 PUSH2 0x9BE DUP11 PUSH1 0xA0 PUSH1 0x40 MLOAD SWAP14 DUP15 SWAP14 DUP15 MSTORE MLOAD SWAP2 DUP14 ADD MSTORE PUSH1 0xC0 DUP13 ADD SWAP1 PUSH2 0xBF9 JUMP JUMPDEST SWAP7 MLOAD SWAP7 PUSH1 0x1F NOT SWAP8 DUP9 DUP13 DUP4 SUB ADD PUSH1 0x40 DUP14 ADD MSTORE PUSH2 0xBF9 JUMP JUMPDEST SWAP2 MLOAD SWAP1 DUP7 DUP11 DUP5 SUB ADD SWAP1 DUP11 ADD MSTORE PUSH2 0xBF9 JUMP JUMPDEST SWAP1 MLOAD DUP4 DUP8 DUP4 SUB ADD PUSH1 0x80 DUP9 ADD MSTORE PUSH2 0xBF9 JUMP JUMPDEST SWAP2 MLOAD SWAP1 DUP5 DUP4 SUB ADD PUSH1 0xA0 DUP6 ADD MSTORE PUSH2 0xBF9 JUMP JUMPDEST CALLVALUE PUSH2 0x794 JUMPI PUSH1 0x20 CALLDATASIZE PUSH1 0x3 NOT ADD SLT PUSH2 0x794 JUMPI PUSH1 0x4 CALLDATALOAD PUSH1 0x2 SLOAD DUP2 LT ISZERO PUSH2 0x794 JUMPI PUSH2 0xA2E SWAP1 PUSH2 0xA6D JUMP JUMPDEST PUSH2 0x4EB JUMPI PUSH2 0xA3E PUSH2 0x893 SWAP2 PUSH2 0xB30 JUMP JUMPDEST PUSH1 0x40 MLOAD SWAP2 DUP3 SWAP2 PUSH1 0x20 DUP4 MSTORE PUSH1 0x20 DUP4 ADD SWAP1 PUSH2 0xBF9 JUMP JUMPDEST CALLVALUE PUSH2 0x794 JUMPI PUSH1 0x0 CALLDATASIZE PUSH1 0x3 NOT ADD SLT PUSH2 0x794 JUMPI PUSH1 0x20 SWAP1 PUSH1 0x2 SLOAD DUP2 MSTORE RETURN JUMPDEST PUSH1 0x2 SLOAD DUP2 LT ISZERO PUSH2 0xAA4 JUMPI PUSH1 0x2 PUSH1 0x0 MSTORE PUSH32 0x405787FA12A823E0F2B7631CC41B3BA8828B3321CA811111FA75CD3AA3BB5ACE ADD SWAP1 PUSH1 0x0 SWAP1 JUMP JUMPDEST PUSH4 0x4E487B71 PUSH1 0xE0 SHL PUSH1 0x0 MSTORE PUSH1 0x32 PUSH1 0x4 MSTORE PUSH1 0x24 PUSH1 0x0 REVERT JUMPDEST SWAP1 PUSH1 0x1 DUP3 DUP2 SHR SWAP3 AND DUP1 ISZERO PUSH2 0xAEA JUMPI JUMPDEST PUSH1 0x20 DUP4 LT EQ PUSH2 0xAD4 JUMPI JUMP JUMPDEST PUSH4 0x4E487B71 PUSH1 0xE0 SHL PUSH1 0x0 MSTORE PUSH1 0x22 PUSH1 0x4 MSTORE PUSH1 0x24 PUSH1 0x0 REVERT JUMPDEST SWAP2 PUSH1 0x7F AND SWAP2 PUSH2 0xAC9 JUMP JUMPDEST PUSH1 0xA0 DUP2 ADD SWAP1 DUP2 LT PUSH1 0x1 PUSH1 0x1 PUSH1 0x40 SHL SUB DUP3 GT OR PUSH2 0x4D5 JUMPI PUSH1 0x40 MSTORE JUMP JUMPDEST SWAP1 PUSH1 0x1F DUP1 NOT SWAP2 ADD AND DUP2 ADD SWAP1 DUP2 LT PUSH1 0x1 PUSH1 0x1 PUSH1 0x40 SHL SUB DUP3 GT OR PUSH2 0x4D5 JUMPI PUSH1 0x40 MSTORE JUMP JUMPDEST SWAP1 PUSH1 0x40 MLOAD SWAP2 DUP3 PUSH1 0x0 DUP3 SLOAD SWAP3 PUSH2 0xB44 DUP5 PUSH2 0xABA JUMP JUMPDEST SWAP1 DUP2 DUP5 MSTORE PUSH1 0x1 SWAP5 DUP6 DUP2 AND SWAP1 DUP2 PUSH1 0x0 EQ PUSH2 0xBB3 JUMPI POP PUSH1 0x1 EQ PUSH2 0xB70 JUMPI JUMPDEST POP POP PUSH2 0xB6E SWAP3 POP SUB DUP4 PUSH2 0xB0F JUMP JUMPDEST JUMP JUMPDEST SWAP1 SWAP4 SWAP2 POP PUSH1 0x0 MSTORE PUSH1 0x20 SWAP1 DUP2 PUSH1 0x0 KECCAK256 SWAP4 PUSH1 0x0 SWAP2 JUMPDEST DUP2 DUP4 LT PUSH2 0xB9B JUMPI POP POP PUSH2 0xB6E SWAP4 POP DUP3 ADD ADD CODESIZE DUP1 PUSH2 0xB60 JUMP JUMPDEST DUP6 SLOAD DUP9 DUP5 ADD DUP6 ADD MSTORE SWAP5 DUP6 ADD SWAP5 DUP8 SWAP5 POP SWAP2 DUP4 ADD SWAP2 PUSH2 0xB83 JUMP JUMPDEST SWAP2 POP POP PUSH2 0xB6E SWAP5 POP PUSH1 0x20 SWAP3 POP PUSH1 0xFF NOT AND DUP3 DUP5 ADD MSTORE ISZERO ISZERO PUSH1 0x5 SHL DUP3 ADD ADD CODESIZE DUP1 PUSH2 0xB60 JUMP JUMPDEST PUSH1 0x0 JUMPDEST DUP4 DUP2 LT PUSH2 0xBE9 JUMPI POP POP PUSH1 0x0 SWAP2 ADD MSTORE JUMP JUMPDEST DUP2 DUP2 ADD MLOAD DUP4 DUP3 ADD MSTORE PUSH1 0x20 ADD PUSH2 0xBD9 JUMP JUMPDEST SWAP1 PUSH1 0x20 SWAP2 PUSH2 0xC12 DUP2 MLOAD DUP1 SWAP3 DUP2 DUP6 MSTORE DUP6 DUP1 DUP7 ADD SWAP2 ADD PUSH2 0xBD6 JUMP JUMPDEST PUSH1 0x1F ADD PUSH1 0x1F NOT AND ADD ADD SWAP1 JUMP JUMPDEST SWAP2 DUP2 PUSH1 0x1F DUP5 ADD SLT ISZERO PUSH2 0x794 JUMPI DUP3 CALLDATALOAD SWAP2 PUSH1 0x1 PUSH1 0x1 PUSH1 0x40 SHL SUB DUP4 GT PUSH2 0x794 JUMPI PUSH1 0x20 DUP4 DUP2 DUP7 ADD SWAP6 ADD ADD GT PUSH2 0x794 JUMPI JUMP JUMPDEST SWAP3 SWAP2 SWAP3 PUSH1 0x1 PUSH1 0x1 PUSH1 0x40 SHL SUB DUP3 GT PUSH2 0x4D5 JUMPI PUSH1 0x40 MLOAD SWAP2 PUSH2 0xC74 PUSH1 0x1F DUP3 ADD PUSH1 0x1F NOT AND PUSH1 0x20 ADD DUP5 PUSH2 0xB0F JUMP JUMPDEST DUP3 SWAP5 DUP2 DUP5 MSTORE DUP2 DUP4 ADD GT PUSH2 0x794 JUMPI DUP3 DUP2 PUSH1 0x20 SWAP4 DUP5 PUSH1 0x0 SWAP7 ADD CALLDATACOPY ADD ADD MSTORE JUMP JUMPDEST SWAP1 PUSH1 0x1F DUP2 GT PUSH2 0xC9F JUMPI POP POP POP JUMP JUMPDEST PUSH1 0x0 SWAP2 DUP3 MSTORE PUSH1 0x20 DUP3 KECCAK256 SWAP1 PUSH1 0x20 PUSH1 0x1F DUP6 ADD PUSH1 0x5 SHR DUP4 ADD SWAP5 LT PUSH2 0xCDB JUMPI JUMPDEST PUSH1 0x1F ADD PUSH1 0x5 SHR ADD SWAP2 JUMPDEST DUP3 DUP2 LT PUSH2 0xCD0 JUMPI POP POP POP JUMP JUMPDEST DUP2 DUP2 SSTORE PUSH1 0x1 ADD PUSH2 0xCC4 JUMP JUMPDEST SWAP1 SWAP3 POP DUP3 SWAP1 PUSH2 0xCBB JUMP JUMPDEST SWAP1 DUP1 PUSH1 0x20 SWAP4 SWAP3 DUP2 DUP5 MSTORE DUP5 DUP5 ADD CALLDATACOPY PUSH1 0x0 DUP3 DUP3 ADD DUP5 ADD MSTORE PUSH1 0x1F ADD PUSH1 0x1F NOT AND ADD ADD SWAP1 JUMP INVALID LOG2 PUSH5 0x6970667358 0x22 SLT KECCAK256 0xE9 SWAP16 0xF6 0x2D 0xBC 0xB0 PUSH29 0xD96032308F9383A92420E331E5A697DF042D2D560342DA5AAF64736F6C PUSH4 0x43000814 STOP CALLER "},"methodIdentifiers":{"getRoute(string)":"1b5f03a6","keys(uint256)":"0cb6aaf1","routeDriftPulse(string,string,string,string,string)":"e7e39046","routes(string)":"cffbffb5","steward()":"637eea19","totalRoutes()":"05a2d3ac"}}}}}