{"contracts/registry/CompanionSummonerXVIII.sol":{"CompanionSummonerXVIII":{"abi":[{"inputs":[],"stateMutability":"nonpayable","type":"constructor"},{"anonymous":false,"inputs":[{"indexed":true,"internalType":"address","name":"companion","type":"address"},{"indexed":false,"internalType":"string","name":"name","type":"string"},{"indexed":false,"internalType":"string","name":"trait","type":"string"},{"indexed":false,"internalType":"string","name":"drift","type":"string"},{"indexed":false,"internalType":"string","name":"resonance","type":"string"},{"indexed":false,"internalType":"string","name":"codexRef","type":"string"},{"indexed":false,"internalType":"string","name":"signature","type":"string"},{"indexed":false,"internalType":"string","name":"sanctum","type":"string"},{"indexed":false,"internalType":"string","name":"chant","type":"string"},{"indexed":false,"internalType":"string","name":"choreography","type":"string"},{"indexed":false,"internalType":"string","name":"signal","type":"string"},{"indexed":false,"internalType":"string","name":"stewardName","type":"string"},{"indexed":false,"internalType":"string","name":"registry","type":"string"},{"indexed":false,"internalType":"string","name":"hum","type":"string"},{"indexed":false,"internalType":"string","name":"driftType","type":"string"},{"indexed":false,"internalType":"string","name":"companionType","type":"string"}],"name":"CompanionSummoned","type":"event"},{"inputs":[{"internalType":"address","name":"","type":"address"}],"name":"companions","outputs":[{"internalType":"string","name":"name","type":"string"},{"internalType":"string","name":"trait","type":"string"},{"internalType":"string","name":"drift","type":"string"},{"internalType":"string","name":"resonance","type":"string"},{"internalType":"string","name":"codexRef","type":"string"},{"internalType":"string","name":"signature","type":"string"},{"internalType":"string","name":"sanctum","type":"string"},{"internalType":"string","name":"chant","type":"string"},{"internalType":"string","name":"choreography","type":"string"},{"internalType":"string","name":"signal","type":"string"},{"internalType":"string","name":"stewardName","type":"string"},{"internalType":"string","name":"registry","type":"string"},{"internalType":"string","name":"hum","type":"string"},{"internalType":"string","name":"driftType","type":"string"},{"internalType":"string","name":"companionType","type":"string"}],"stateMutability":"view","type":"function"},{"inputs":[{"internalType":"address","name":"companion","type":"address"}],"name":"getCompanion","outputs":[{"components":[{"internalType":"string","name":"name","type":"string"},{"internalType":"string","name":"trait","type":"string"},{"internalType":"string","name":"drift","type":"string"},{"internalType":"string","name":"resonance","type":"string"},{"internalType":"string","name":"codexRef","type":"string"},{"internalType":"string","name":"signature","type":"string"},{"internalType":"string","name":"sanctum","type":"string"},{"internalType":"string","name":"chant","type":"string"},{"internalType":"string","name":"choreography","type":"string"},{"internalType":"string","name":"signal","type":"string"},{"internalType":"string","name":"stewardName","type":"string"},{"internalType":"string","name":"registry","type":"string"},{"internalType":"string","name":"hum","type":"string"},{"internalType":"string","name":"driftType","type":"string"},{"internalType":"string","name":"companionType","type":"string"}],"internalType":"struct CompanionSummonerXVIII.Companion","name":"","type":"tuple"}],"stateMutability":"view","type":"function"},{"inputs":[{"internalType":"uint256","name":"","type":"uint256"}],"name":"keys","outputs":[{"internalType":"address","name":"","type":"address"}],"stateMutability":"view","type":"function"},{"inputs":[],"name":"steward","outputs":[{"internalType":"address","name":"","type":"address"}],"stateMutability":"view","type":"function"},{"inputs":[{"internalType":"address","name":"companion","type":"address"},{"internalType":"string","name":"name","type":"string"},{"internalType":"string","name":"trait","type":"string"},{"internalType":"string","name":"drift","type":"string"},{"internalType":"string","name":"resonance","type":"string"},{"internalType":"string","name":"codexRef","type":"string"},{"internalType":"string","name":"signature","type":"string"},{"internalType":"string","name":"sanctum","type":"string"},{"internalType":"string","name":"chant","type":"string"},{"internalType":"string","name":"choreography","type":"string"},{"internalType":"string","name":"signal","type":"string"},{"internalType":"string","name":"stewardName","type":"string"},{"internalType":"string","name":"registry","type":"string"},{"internalType":"string","name":"hum","type":"string"},{"internalType":"string","name":"driftType","type":"string"},{"internalType":"string","name":"companionType","type":"string"}],"name":"summonCompanion","outputs":[],"stateMutability":"nonpayable","type":"function"},{"inputs":[],"name":"totalCompanions","outputs":[{"internalType":"uint256","name":"","type":"uint256"}],"stateMutability":"view","type":"function"}],"evm":{"bytecode":{"linkReferences":{},"object":"6080806040523461002857600080546001600160a01b031916331790556120e4908161002e8239f35b600080fdfe6104a0604052600436101561001357600080fd5b60003560e01c80630cb6aaf114611e1857806345f0e3d2146105dc57806347854b87146103e3578063637eea19146103ba578063ec39f18f1461039c5763ef6527371461005f57600080fd5b3461039757602036600319011261039757610078611ea7565b60606101c060405161008981611f24565b82815282602082015282604082015282808201528260808201528260a08201528260c08201528260e08201528261010082015282610120820152826101408201528261016082015282610180820152826101a0820152015260018060a01b031660005260016020526102ab60406000206101ff600e6040519261010b84611f24565b61011481611f61565b845261012260018201611f61565b602085015261013360028201611f61565b604085015261014460038201611f61565b606085015261015560048201611f61565b608085015261016660058201611f61565b60a085015261017760068201611f61565b60c085015261018860078201611f61565b60e085015261019960088201611f61565b6101008501526101ab60098201611f61565b6101208501526101bd600a8201611f61565b6101408501526101cf600b8201611f61565b6101608501526101e1600c8201611f61565b6101808501526101f3600d8201611f61565b6101a085015201611f61565b6101c0820152610393816101c061037e6103686103506103386103206103086102f06102d96102c36040519d8e9d8e60208152608061029661028161026b61025586516101e06020880152610200870190612007565b6020870151868203601f19016040880152612007565b6040860151858203601f19016060870152612007565b6060850151848203601f190184860152612007565b9201519060a0601f1982850301910152612007565b8d60a08d01519060c0601f1982850301910152612007565b60c08b01518d8203601f190160e08f0152612007565b60e08a01518c8203601f19016101008e0152612007565b6101008901518b8203601f19016101208d0152612007565b6101208801518a8203601f19016101408c0152612007565b610140870151898203601f19016101608b0152612007565b610160860151888203601f19016101808a0152612007565b610180850151878203601f19016101a0890152612007565b6101a0840151868203601f190184880152612007565b910151838203601f19016101e0850152612007565b0390f35b600080fd5b34610397576000366003190112610397576020600254604051908152f35b34610397576000366003190112610397576000546040516001600160a01b039091168152602090f35b34610397576020366003190112610397576001600160a01b03610404611ea7565b166000526001602052604060002061041b81611f61565b9061042860018201611f61565b9061043560028201611f61565b9061044260038201611f61565b61044e60048301611f61565b61045a60058401611f61565b61046660068501611f61565b61047260078601611f61565b61047e60088701611f61565b9061048b60098801611f61565b92610498600a8901611f61565b946104a5600b8a01611f61565b966104b2600c8b01611f61565b986104bf600d8c01611f61565b9a600e016104cc90611f61565b9b6040519e8f9e8f916101e080845283016104e691612007565b82810360208401526104f791612007565b90808203906040015261050991612007565b8d810360608f015261051a91612007565b8c810360808e015261052b91612007565b8b810360a08d015261053c91612007565b8a810360c08c015261054d91612007565b89810360e08b015261055e91612007565b8881036101008a015261057091612007565b87810361012089015261058291612007565b86810361014088015261059491612007565b8581036101608701526105a691612007565b8481036101808601526105b891612007565b8381036101a08501526105ca91612007565b8281036101c084015261039391612007565b3461039757610200366003190112610397576105f6611ea7565b60a0526024356001600160401b03811161039757610618903690600401611ebd565b61038052610400526044356001600160401b0381116103975761063f903690600401611ebd565b61024052610480526064356001600160401b03811161039757610666903690600401611ebd565b6102a052610100526084356001600160401b0381116103975761068d903690600401611ebd565b608052610440526001600160401b0360a43511610397576106b33660a435600401611ebd565b6102c0526104605260c4356001600160401b038111610397576106da903690600401611ebd565b60c052610340526001600160401b0360e43511610397576107003660e435600401611ebd565b60e0526103e0526001600160401b036101043511610397576107283661010435600401611ebd565b6103a052610320526001600160401b036101243511610397576107513661012435600401611ebd565b610220526101a052610144356001600160401b03811161039757610779903690600401611ebd565b6101c05261018052610164356001600160401b038111610397576107a1903690600401611ebd565b6102605261042052610184356001600160401b038111610397576107c9903690600401611ebd565b61014052610280526101a4356001600160401b038111610397576107f1903690600401611ebd565b6101e052610160526101c4356001600160401b03811161039757610819903690600401611ebd565b61030052610360526101e4356001600160401b03811161039757610841903690600401611ebd565b61012052610200526000546001600160a01b03163303611de55761086b604051806102e052611f24565b61087c366103805161040051612047565b6102e05152610892366102405161048051612047565b60206102e05101526108ab366102a05161010051612047565b60406102e05101526108c33660805161044051612047565b60606102e05101526108dc366102c05161046051612047565b60806102e05101526108f43660c05161034051612047565b60a06102e051015261090c3660e0516103e051612047565b60c06102e0510152610925366103a05161032051612047565b60e06102e051015261093e36610220516101a051612047565b6101006102e0510152610958366101c05161018051612047565b6101206102e0510152610972366102605161042051612047565b6101406102e051015261098c366101405161028051612047565b6101606102e05101526109a6366101e05161016051612047565b6101806102e05101526109c0366103005161036051612047565b6101a06102e05101526109da366101205161020051612047565b6101c06102e051015260018060a01b0360a05116600052600160205260406000206102e051519081516001600160401b0381116111cb57610a1b8254611eea565b601f8111611da1575b506020601f8211600114611d3c57819293600092611d31575b50508160011b916000199060031b1c19161781555b60206102e05101518051906001600160401b0382116111cb578190610a7a6001850154611eea565b601f8111611cde575b50602090601f8311600114611c6c57600092611c61575b50508160011b916000199060031b1c19161760018201555b60406102e05101518051906001600160401b0382116111cb578190610ada6002850154611eea565b601f8111611c0e575b50602090601f8311600114611b9c57600092611b91575b50508160011b916000199060031b1c19161760028201555b60606102e05101518051906001600160401b0382116111cb578190610b3a6003850154611eea565b601f8111611b3e575b50602090601f8311600114611acc57600092611ac1575b50508160011b916000199060031b1c19161760038201555b60806102e05101518051906001600160401b0382116111cb578190610b9a6004850154611eea565b601f8111611a6e575b50602090601f83116001146119fc576000926119f1575b50508160011b916000199060031b1c19161760048201555b60a06102e05101518051906001600160401b0382116111cb578190610bfa6005850154611eea565b601f811161199e575b50602090601f831160011461192c57600092611921575b50508160011b916000199060031b1c19161760058201555b60c06102e05101518051906001600160401b0382116111cb578190610c5a6006850154611eea565b601f81116118ce575b50602090601f831160011461185c57600092611851575b50508160011b916000199060031b1c19161760068201555b60e06102e05101518051906001600160401b0382116111cb578190610cba6007850154611eea565b601f81116117fe575b50602090601f831160011461178c57600092611781575b50508160011b916000199060031b1c19161760078201555b6101006102e05101518051906001600160401b0382116111cb578190610d1b6008850154611eea565b601f811161172e575b50602090601f83116001146116bc576000926116b1575b50508160011b916000199060031b1c19161760088201555b6101206102e05101518051906001600160401b0382116111cb578190610d7c6009850154611eea565b601f811161165e575b50602090601f83116001146115ec576000926115e1575b50508160011b916000199060031b1c19161760098201555b6101406102e05101518051906001600160401b0382116111cb578190610ddd600a850154611eea565b601f811161158e575b50602090601f831160011461151c57600092611511575b50508160011b916000199060031b1c191617600a8201555b6101606102e05101518051906001600160401b0382116111cb578190610e3e600b850154611eea565b601f81116114be575b50602090601f831160011461144c57600092611441575b50508160011b916000199060031b1c191617600b8201555b6101806102e05101518051906001600160401b0382116111cb578190610e9f600c850154611eea565b601f81116113ee575b50602090601f831160011461137c57600092611371575b50508160011b916000199060031b1c191617600c8201555b6101a06102e05101518051906001600160401b0382116111cb578190610f00600d850154611eea565b601f811161131e575b50602090601f83116001146112ac576000926112a1575b50508160011b916000199060031b1c191617600d8201555b6101c06102e05101518051906001600160401b0382116111cb57610f5f600e840154611eea565b601f811161125a575b50602090601f83116001146111ec57600e9291600091836111e1575b50508160011b916000199060031b1c1916179101555b600254680100000000000000008110156111cb57806001610fbe9201600255611e5a565b81549060031b9060018060a01b0360a05116821b9160018060a01b03901b19161790556101e0604051806103c0525261117461115a61114061112661110c6110f26110d86110bf6110a761108f61107661105e61104561102c6101e06103c05101610380516104005161208d565b6103c0516020818303910152610240516104805161208d565b6103c05160408183039101526102a0516101005161208d565b6103c05160608183039101526080516104405161208d565b6103c05160808183039101526102c0516104605161208d565b6103c05160a081830391015260c0516103405161208d565b6103c05160c081830391015260e0516103e05161208d565b6103c05160e08183039101526103a0516103205161208d565b6103c051610100818303910152610220516101a05161208d565b6103c0516101208183039101526101c0516101805161208d565b6103c051610140818303910152610260516104205161208d565b6103c051610160818303910152610140516102805161208d565b6103c0516101808183039101526101e0516101605161208d565b6103c0516101a0818303910152610300516103605161208d565b6103c0516101c08183039101527f662fc05ebe5ba4b780fc72b590d59dca821253305bb33ba26a13813d249c522760018060a01b0360a05116916111c36103c05191610120516102005161208d565b036103c051a2005b634e487b7160e01b600052604160045260246000fd5b015190508480610f84565b90600e84016000526020600020916000601f198516905b8181106112425750916001939185600e969410611229575b505050811b01910155610f9a565b015160001960f88460031b161c1916905584808061121b565b92936020600181928786015181550195019301611203565b600e84016000526020600020601f840160051c81016020851061129a575b601f830160051c8201811061128e575050610f68565b60008155600101611278565b5080611278565b015190508380610f20565b9250600d84016000526020600020906000935b601f1984168510611303576001945083601f198116106112ea575b505050811b01600d820155610f38565b015160001960f88460031b161c191690558380806112da565b818101518355602094850194600190930192909101906112bf565b909150600d84016000526020600020601f840160051c81016020851061136a575b90849392915b601f830160051c8201811061135b575050610f09565b60008155859450600101611345565b508061133f565b015190508380610ebf565b9250600c84016000526020600020906000935b601f19841685106113d3576001945083601f198116106113ba575b505050811b01600c820155610ed7565b015160001960f88460031b161c191690558380806113aa565b8181015183556020948501946001909301929091019061138f565b909150600c84016000526020600020601f840160051c81016020851061143a575b90849392915b601f830160051c8201811061142b575050610ea8565b60008155859450600101611415565b508061140f565b015190508380610e5e565b9250600b84016000526020600020906000935b601f19841685106114a3576001945083601f1981161061148a575b505050811b01600b820155610e76565b015160001960f88460031b161c1916905583808061147a565b8181015183556020948501946001909301929091019061145f565b909150600b84016000526020600020601f840160051c81016020851061150a575b90849392915b601f830160051c820181106114fb575050610e47565b600081558594506001016114e5565b50806114df565b015190508380610dfd565b9250600a84016000526020600020906000935b601f1984168510611573576001945083601f1981161061155a575b505050811b01600a820155610e15565b015160001960f88460031b161c1916905583808061154a565b8181015183556020948501946001909301929091019061152f565b909150600a84016000526020600020601f840160051c8101602085106115da575b90849392915b601f830160051c820181106115cb575050610de6565b600081558594506001016115b5565b50806115af565b015190508380610d9c565b9250600984016000526020600020906000935b601f1984168510611643576001945083601f1981161061162a575b505050811b016009820155610db4565b015160001960f88460031b161c1916905583808061161a565b818101518355602094850194600190930192909101906115ff565b909150600984016000526020600020601f840160051c8101602085106116aa575b90849392915b601f830160051c8201811061169b575050610d85565b60008155859450600101611685565b508061167f565b015190508380610d3b565b9250600884016000526020600020906000935b601f1984168510611713576001945083601f198116106116fa575b505050811b016008820155610d53565b015160001960f88460031b161c191690558380806116ea565b818101518355602094850194600190930192909101906116cf565b909150600884016000526020600020601f840160051c81016020851061177a575b90849392915b601f830160051c8201811061176b575050610d24565b60008155859450600101611755565b508061174f565b015190508380610cda565b9250600784016000526020600020906000935b601f19841685106117e3576001945083601f198116106117ca575b505050811b016007820155610cf2565b015160001960f88460031b161c191690558380806117ba565b8181015183556020948501946001909301929091019061179f565b909150600784016000526020600020601f840160051c81016020851061184a575b90849392915b601f830160051c8201811061183b575050610cc3565b60008155859450600101611825565b508061181f565b015190508380610c7a565b9250600684016000526020600020906000935b601f19841685106118b3576001945083601f1981161061189a575b505050811b016006820155610c92565b015160001960f88460031b161c1916905583808061188a565b8181015183556020948501946001909301929091019061186f565b909150600684016000526020600020601f840160051c81016020851061191a575b90849392915b601f830160051c8201811061190b575050610c63565b600081558594506001016118f5565b50806118ef565b015190508380610c1a565b9250600584016000526020600020906000935b601f1984168510611983576001945083601f1981161061196a575b505050811b016005820155610c32565b015160001960f88460031b161c1916905583808061195a565b8181015183556020948501946001909301929091019061193f565b909150600584016000526020600020601f840160051c8101602085106119ea575b90849392915b601f830160051c820181106119db575050610c03565b600081558594506001016119c5565b50806119bf565b015190508380610bba565b9250600484016000526020600020906000935b601f1984168510611a53576001945083601f19811610611a3a575b505050811b016004820155610bd2565b015160001960f88460031b161c19169055838080611a2a565b81810151835560209485019460019093019290910190611a0f565b909150600484016000526020600020601f840160051c810160208510611aba575b90849392915b601f830160051c82018110611aab575050610ba3565b60008155859450600101611a95565b5080611a8f565b015190508380610b5a565b9250600384016000526020600020906000935b601f1984168510611b23576001945083601f19811610611b0a575b505050811b016003820155610b72565b015160001960f88460031b161c19169055838080611afa565b81810151835560209485019460019093019290910190611adf565b909150600384016000526020600020601f840160051c810160208510611b8a575b90849392915b601f830160051c82018110611b7b575050610b43565b60008155859450600101611b65565b5080611b5f565b015190508380610afa565b9250600284016000526020600020906000935b601f1984168510611bf3576001945083601f19811610611bda575b505050811b016002820155610b12565b015160001960f88460031b161c19169055838080611bca565b81810151835560209485019460019093019290910190611baf565b909150600284016000526020600020601f840160051c810160208510611c5a575b90849392915b601f830160051c82018110611c4b575050610ae3565b60008155859450600101611c35565b5080611c2f565b015190508380610a9a565b9250600184016000526020600020906000935b601f1984168510611cc3576001945083601f19811610611caa575b505050811b016001820155610ab2565b015160001960f88460031b161c19169055838080611c9a565b81810151835560209485019460019093019290910190611c7f565b909150600184016000526020600020601f840160051c810160208510611d2a575b90849392915b601f830160051c82018110611d1b575050610a83565b60008155859450600101611d05565b5080611cff565b015190508380610a3d565b82600052602060002090600094601f198416955b868110611d895750836001959610611d70575b505050811b018155610a52565b015160001960f88460031b161c19169055838080611d63565b91926020600181928685015181550194019201611d50565b826000526020600020601f830160051c810160208410611dde575b601f830160051c82018110611dd2575050610a24565b60008155600101611dbc565b5080611dbc565b60405162461bcd60e51b815260206004820152600b60248201526a139bdd081cdd195dd85c9960aa1b6044820152606490fd5b346103975760203660031901126103975760043560025481101561039757611e41602091611e5a565b905460405160039290921b1c6001600160a01b03168152f35b600254811015611e915760026000527f405787fa12a823e0f2b7631cc41b3ba8828b3321ca811111fa75cd3aa3bb5ace0190600090565b634e487b7160e01b600052603260045260246000fd5b600435906001600160a01b038216820361039757565b9181601f84011215610397578235916001600160401b038311610397576020838186019501011161039757565b90600182811c92168015611f1a575b6020831014611f0457565b634e487b7160e01b600052602260045260246000fd5b91607f1691611ef9565b6101e081019081106001600160401b038211176111cb57604052565b90601f801991011681019081106001600160401b038211176111cb57604052565b9060405191826000825492611f7584611eea565b908184526001948581169081600014611fe45750600114611fa1575b5050611f9f92500383611f40565b565b9093915060005260209081600020936000915b818310611fcc575050611f9f93508201013880611f91565b85548884018501529485019487945091830191611fb4565b915050611f9f94506020925060ff191682840152151560051b8201013880611f91565b919082519283825260005b848110612033575050826000602080949584010152601f8019910116010190565b602081830181015184830182015201612012565b9291926001600160401b0382116111cb5760405191612070601f8201601f191660200184611f40565b829481845281830111610397578281602093846000960137010152565b908060209392818452848401376000828201840152601f01601f191601019056fea2646970667358221220e543db84114c3a59679b85a9bf778db5dcecf066f93d9d7c409964698fa36ec664736f6c63430008140033","opcodes":"PUSH1 0x80 DUP1 PUSH1 0x40 MSTORE CALLVALUE PUSH2 0x28 JUMPI PUSH1 0x0 DUP1 SLOAD PUSH1 0x1 PUSH1 0x1 PUSH1 0xA0 SHL SUB NOT AND CALLER OR SWAP1 SSTORE PUSH2 0x20E4 SWAP1 DUP2 PUSH2 0x2E DUP3 CODECOPY RETURN JUMPDEST PUSH1 0x0 DUP1 REVERT INVALID PUSH2 0x4A0 PUSH1 0x40 MSTORE PUSH1 0x4 CALLDATASIZE LT ISZERO PUSH2 0x13 JUMPI PUSH1 0x0 DUP1 REVERT JUMPDEST PUSH1 0x0 CALLDATALOAD PUSH1 0xE0 SHR DUP1 PUSH4 0xCB6AAF1 EQ PUSH2 0x1E18 JUMPI DUP1 PUSH4 0x45F0E3D2 EQ PUSH2 0x5DC JUMPI DUP1 PUSH4 0x47854B87 EQ PUSH2 0x3E3 JUMPI DUP1 PUSH4 0x637EEA19 EQ PUSH2 0x3BA JUMPI DUP1 PUSH4 0xEC39F18F EQ PUSH2 0x39C JUMPI PUSH4 0xEF652737 EQ PUSH2 0x5F JUMPI PUSH1 0x0 DUP1 REVERT JUMPDEST CALLVALUE PUSH2 0x397 JUMPI PUSH1 0x20 CALLDATASIZE PUSH1 0x3 NOT ADD SLT PUSH2 0x397 JUMPI PUSH2 0x78 PUSH2 0x1EA7 JUMP JUMPDEST PUSH1 0x60 PUSH2 0x1C0 PUSH1 0x40 MLOAD PUSH2 0x89 DUP2 PUSH2 0x1F24 JUMP JUMPDEST DUP3 DUP2 MSTORE DUP3 PUSH1 0x20 DUP3 ADD MSTORE DUP3 PUSH1 0x40 DUP3 ADD MSTORE DUP3 DUP1 DUP3 ADD MSTORE DUP3 PUSH1 0x80 DUP3 ADD MSTORE DUP3 PUSH1 0xA0 DUP3 ADD MSTORE DUP3 PUSH1 0xC0 DUP3 ADD MSTORE DUP3 PUSH1 0xE0 DUP3 ADD MSTORE DUP3 PUSH2 0x100 DUP3 ADD MSTORE DUP3 PUSH2 0x120 DUP3 ADD MSTORE DUP3 PUSH2 0x140 DUP3 ADD MSTORE DUP3 PUSH2 0x160 DUP3 ADD MSTORE DUP3 PUSH2 0x180 DUP3 ADD MSTORE DUP3 PUSH2 0x1A0 DUP3 ADD MSTORE ADD MSTORE PUSH1 0x1 DUP1 PUSH1 0xA0 SHL SUB AND PUSH1 0x0 MSTORE PUSH1 0x1 PUSH1 0x20 MSTORE PUSH2 0x2AB PUSH1 0x40 PUSH1 0x0 KECCAK256 PUSH2 0x1FF PUSH1 0xE PUSH1 0x40 MLOAD SWAP3 PUSH2 0x10B DUP5 PUSH2 0x1F24 JUMP JUMPDEST PUSH2 0x114 DUP2 PUSH2 0x1F61 JUMP JUMPDEST DUP5 MSTORE PUSH2 0x122 PUSH1 0x1 DUP3 ADD PUSH2 0x1F61 JUMP JUMPDEST PUSH1 0x20 DUP6 ADD MSTORE PUSH2 0x133 PUSH1 0x2 DUP3 ADD PUSH2 0x1F61 JUMP JUMPDEST PUSH1 0x40 DUP6 ADD MSTORE PUSH2 0x144 PUSH1 0x3 DUP3 ADD PUSH2 0x1F61 JUMP JUMPDEST PUSH1 0x60 DUP6 ADD MSTORE PUSH2 0x155 PUSH1 0x4 DUP3 ADD PUSH2 0x1F61 JUMP JUMPDEST PUSH1 0x80 DUP6 ADD MSTORE PUSH2 0x166 PUSH1 0x5 DUP3 ADD PUSH2 0x1F61 JUMP JUMPDEST PUSH1 0xA0 DUP6 ADD MSTORE PUSH2 0x177 PUSH1 0x6 DUP3 ADD PUSH2 0x1F61 JUMP JUMPDEST PUSH1 0xC0 DUP6 ADD MSTORE PUSH2 0x188 PUSH1 0x7 DUP3 ADD PUSH2 0x1F61 JUMP JUMPDEST PUSH1 0xE0 DUP6 ADD MSTORE PUSH2 0x199 PUSH1 0x8 DUP3 ADD PUSH2 0x1F61 JUMP JUMPDEST PUSH2 0x100 DUP6 ADD MSTORE PUSH2 0x1AB PUSH1 0x9 DUP3 ADD PUSH2 0x1F61 JUMP JUMPDEST PUSH2 0x120 DUP6 ADD MSTORE PUSH2 0x1BD PUSH1 0xA DUP3 ADD PUSH2 0x1F61 JUMP JUMPDEST PUSH2 0x140 DUP6 ADD MSTORE PUSH2 0x1CF PUSH1 0xB DUP3 ADD PUSH2 0x1F61 JUMP JUMPDEST PUSH2 0x160 DUP6 ADD MSTORE PUSH2 0x1E1 PUSH1 0xC DUP3 ADD PUSH2 0x1F61 JUMP JUMPDEST PUSH2 0x180 DUP6 ADD MSTORE PUSH2 0x1F3 PUSH1 0xD DUP3 ADD PUSH2 0x1F61 JUMP JUMPDEST PUSH2 0x1A0 DUP6 ADD MSTORE ADD PUSH2 0x1F61 JUMP JUMPDEST PUSH2 0x1C0 DUP3 ADD MSTORE PUSH2 0x393 DUP2 PUSH2 0x1C0 PUSH2 0x37E PUSH2 0x368 PUSH2 0x350 PUSH2 0x338 PUSH2 0x320 PUSH2 0x308 PUSH2 0x2F0 PUSH2 0x2D9 PUSH2 0x2C3 PUSH1 0x40 MLOAD SWAP14 DUP15 SWAP14 DUP15 PUSH1 0x20 DUP2 MSTORE PUSH1 0x80 PUSH2 0x296 PUSH2 0x281 PUSH2 0x26B PUSH2 0x255 DUP7 MLOAD PUSH2 0x1E0 PUSH1 0x20 DUP9 ADD MSTORE PUSH2 0x200 DUP8 ADD SWAP1 PUSH2 0x2007 JUMP JUMPDEST PUSH1 0x20 DUP8 ADD MLOAD DUP7 DUP3 SUB PUSH1 0x1F NOT ADD PUSH1 0x40 DUP9 ADD MSTORE PUSH2 0x2007 JUMP JUMPDEST PUSH1 0x40 DUP7 ADD MLOAD DUP6 DUP3 SUB PUSH1 0x1F NOT ADD PUSH1 0x60 DUP8 ADD MSTORE PUSH2 0x2007 JUMP JUMPDEST PUSH1 0x60 DUP6 ADD MLOAD DUP5 DUP3 SUB PUSH1 0x1F NOT ADD DUP5 DUP7 ADD MSTORE PUSH2 0x2007 JUMP JUMPDEST SWAP3 ADD MLOAD SWAP1 PUSH1 0xA0 PUSH1 0x1F NOT DUP3 DUP6 SUB ADD SWAP2 ADD MSTORE PUSH2 0x2007 JUMP JUMPDEST DUP14 PUSH1 0xA0 DUP14 ADD MLOAD SWAP1 PUSH1 0xC0 PUSH1 0x1F NOT DUP3 DUP6 SUB ADD SWAP2 ADD MSTORE PUSH2 0x2007 JUMP JUMPDEST PUSH1 0xC0 DUP12 ADD MLOAD DUP14 DUP3 SUB PUSH1 0x1F NOT ADD PUSH1 0xE0 DUP16 ADD MSTORE PUSH2 0x2007 JUMP JUMPDEST PUSH1 0xE0 DUP11 ADD MLOAD DUP13 DUP3 SUB PUSH1 0x1F NOT ADD PUSH2 0x100 DUP15 ADD MSTORE PUSH2 0x2007 JUMP JUMPDEST PUSH2 0x100 DUP10 ADD MLOAD DUP12 DUP3 SUB PUSH1 0x1F NOT ADD PUSH2 0x120 DUP14 ADD MSTORE PUSH2 0x2007 JUMP JUMPDEST PUSH2 0x120 DUP9 ADD MLOAD DUP11 DUP3 SUB PUSH1 0x1F NOT ADD PUSH2 0x140 DUP13 ADD MSTORE PUSH2 0x2007 JUMP JUMPDEST PUSH2 0x140 DUP8 ADD MLOAD DUP10 DUP3 SUB PUSH1 0x1F NOT ADD PUSH2 0x160 DUP12 ADD MSTORE PUSH2 0x2007 JUMP JUMPDEST PUSH2 0x160 DUP7 ADD MLOAD DUP9 DUP3 SUB PUSH1 0x1F NOT ADD PUSH2 0x180 DUP11 ADD MSTORE PUSH2 0x2007 JUMP JUMPDEST PUSH2 0x180 DUP6 ADD MLOAD DUP8 DUP3 SUB PUSH1 0x1F NOT ADD PUSH2 0x1A0 DUP10 ADD MSTORE PUSH2 0x2007 JUMP JUMPDEST PUSH2 0x1A0 DUP5 ADD MLOAD DUP7 DUP3 SUB PUSH1 0x1F NOT ADD DUP5 DUP9 ADD MSTORE PUSH2 0x2007 JUMP JUMPDEST SWAP2 ADD MLOAD DUP4 DUP3 SUB PUSH1 0x1F NOT ADD PUSH2 0x1E0 DUP6 ADD MSTORE PUSH2 0x2007 JUMP JUMPDEST SUB SWAP1 RETURN JUMPDEST PUSH1 0x0 DUP1 REVERT JUMPDEST CALLVALUE PUSH2 0x397 JUMPI PUSH1 0x0 CALLDATASIZE PUSH1 0x3 NOT ADD SLT PUSH2 0x397 JUMPI PUSH1 0x20 PUSH1 0x2 SLOAD PUSH1 0x40 MLOAD SWAP1 DUP2 MSTORE RETURN JUMPDEST CALLVALUE PUSH2 0x397 JUMPI PUSH1 0x0 CALLDATASIZE PUSH1 0x3 NOT ADD SLT PUSH2 0x397 JUMPI PUSH1 0x0 SLOAD PUSH1 0x40 MLOAD PUSH1 0x1 PUSH1 0x1 PUSH1 0xA0 SHL SUB SWAP1 SWAP2 AND DUP2 MSTORE PUSH1 0x20 SWAP1 RETURN JUMPDEST CALLVALUE PUSH2 0x397 JUMPI PUSH1 0x20 CALLDATASIZE PUSH1 0x3 NOT ADD SLT PUSH2 0x397 JUMPI PUSH1 0x1 PUSH1 0x1 PUSH1 0xA0 SHL SUB PUSH2 0x404 PUSH2 0x1EA7 JUMP JUMPDEST AND PUSH1 0x0 MSTORE PUSH1 0x1 PUSH1 0x20 MSTORE PUSH1 0x40 PUSH1 0x0 KECCAK256 PUSH2 0x41B DUP2 PUSH2 0x1F61 JUMP JUMPDEST SWAP1 PUSH2 0x428 PUSH1 0x1 DUP3 ADD PUSH2 0x1F61 JUMP JUMPDEST SWAP1 PUSH2 0x435 PUSH1 0x2 DUP3 ADD PUSH2 0x1F61 JUMP JUMPDEST SWAP1 PUSH2 0x442 PUSH1 0x3 DUP3 ADD PUSH2 0x1F61 JUMP JUMPDEST PUSH2 0x44E PUSH1 0x4 DUP4 ADD PUSH2 0x1F61 JUMP JUMPDEST PUSH2 0x45A PUSH1 0x5 DUP5 ADD PUSH2 0x1F61 JUMP JUMPDEST PUSH2 0x466 PUSH1 0x6 DUP6 ADD PUSH2 0x1F61 JUMP JUMPDEST PUSH2 0x472 PUSH1 0x7 DUP7 ADD PUSH2 0x1F61 JUMP JUMPDEST PUSH2 0x47E PUSH1 0x8 DUP8 ADD PUSH2 0x1F61 JUMP JUMPDEST SWAP1 PUSH2 0x48B PUSH1 0x9 DUP9 ADD PUSH2 0x1F61 JUMP JUMPDEST SWAP3 PUSH2 0x498 PUSH1 0xA DUP10 ADD PUSH2 0x1F61 JUMP JUMPDEST SWAP5 PUSH2 0x4A5 PUSH1 0xB DUP11 ADD PUSH2 0x1F61 JUMP JUMPDEST SWAP7 PUSH2 0x4B2 PUSH1 0xC DUP12 ADD PUSH2 0x1F61 JUMP JUMPDEST SWAP9 PUSH2 0x4BF PUSH1 0xD DUP13 ADD PUSH2 0x1F61 JUMP JUMPDEST SWAP11 PUSH1 0xE ADD PUSH2 0x4CC SWAP1 PUSH2 0x1F61 JUMP JUMPDEST SWAP12 PUSH1 0x40 MLOAD SWAP15 DUP16 SWAP15 DUP16 SWAP2 PUSH2 0x1E0 DUP1 DUP5 MSTORE DUP4 ADD PUSH2 0x4E6 SWAP2 PUSH2 0x2007 JUMP JUMPDEST DUP3 DUP2 SUB PUSH1 0x20 DUP5 ADD MSTORE PUSH2 0x4F7 SWAP2 PUSH2 0x2007 JUMP JUMPDEST SWAP1 DUP1 DUP3 SUB SWAP1 PUSH1 0x40 ADD MSTORE PUSH2 0x509 SWAP2 PUSH2 0x2007 JUMP JUMPDEST DUP14 DUP2 SUB PUSH1 0x60 DUP16 ADD MSTORE PUSH2 0x51A SWAP2 PUSH2 0x2007 JUMP JUMPDEST DUP13 DUP2 SUB PUSH1 0x80 DUP15 ADD MSTORE PUSH2 0x52B SWAP2 PUSH2 0x2007 JUMP JUMPDEST DUP12 DUP2 SUB PUSH1 0xA0 DUP14 ADD MSTORE PUSH2 0x53C SWAP2 PUSH2 0x2007 JUMP JUMPDEST DUP11 DUP2 SUB PUSH1 0xC0 DUP13 ADD MSTORE PUSH2 0x54D SWAP2 PUSH2 0x2007 JUMP JUMPDEST DUP10 DUP2 SUB PUSH1 0xE0 DUP12 ADD MSTORE PUSH2 0x55E SWAP2 PUSH2 0x2007 JUMP JUMPDEST DUP9 DUP2 SUB PUSH2 0x100 DUP11 ADD MSTORE PUSH2 0x570 SWAP2 PUSH2 0x2007 JUMP JUMPDEST DUP8 DUP2 SUB PUSH2 0x120 DUP10 ADD MSTORE PUSH2 0x582 SWAP2 PUSH2 0x2007 JUMP JUMPDEST DUP7 DUP2 SUB PUSH2 0x140 DUP9 ADD MSTORE PUSH2 0x594 SWAP2 PUSH2 0x2007 JUMP JUMPDEST DUP6 DUP2 SUB PUSH2 0x160 DUP8 ADD MSTORE PUSH2 0x5A6 SWAP2 PUSH2 0x2007 JUMP JUMPDEST DUP5 DUP2 SUB PUSH2 0x180 DUP7 ADD MSTORE PUSH2 0x5B8 SWAP2 PUSH2 0x2007 JUMP JUMPDEST DUP4 DUP2 SUB PUSH2 0x1A0 DUP6 ADD MSTORE PUSH2 0x5CA SWAP2 PUSH2 0x2007 JUMP JUMPDEST DUP3 DUP2 SUB PUSH2 0x1C0 DUP5 ADD MSTORE PUSH2 0x393 SWAP2 PUSH2 0x2007 JUMP JUMPDEST CALLVALUE PUSH2 0x397 JUMPI PUSH2 0x200 CALLDATASIZE PUSH1 0x3 NOT ADD SLT PUSH2 0x397 JUMPI PUSH2 0x5F6 PUSH2 0x1EA7 JUMP JUMPDEST PUSH1 0xA0 MSTORE PUSH1 0x24 CALLDATALOAD PUSH1 0x1 PUSH1 0x1 PUSH1 0x40 SHL SUB DUP2 GT PUSH2 0x397 JUMPI PUSH2 0x618 SWAP1 CALLDATASIZE SWAP1 PUSH1 0x4 ADD PUSH2 0x1EBD JUMP JUMPDEST PUSH2 0x380 MSTORE PUSH2 0x400 MSTORE PUSH1 0x44 CALLDATALOAD PUSH1 0x1 PUSH1 0x1 PUSH1 0x40 SHL SUB DUP2 GT PUSH2 0x397 JUMPI PUSH2 0x63F SWAP1 CALLDATASIZE SWAP1 PUSH1 0x4 ADD PUSH2 0x1EBD JUMP JUMPDEST PUSH2 0x240 MSTORE PUSH2 0x480 MSTORE PUSH1 0x64 CALLDATALOAD PUSH1 0x1 PUSH1 0x1 PUSH1 0x40 SHL SUB DUP2 GT PUSH2 0x397 JUMPI PUSH2 0x666 SWAP1 CALLDATASIZE SWAP1 PUSH1 0x4 ADD PUSH2 0x1EBD JUMP JUMPDEST PUSH2 0x2A0 MSTORE PUSH2 0x100 MSTORE PUSH1 0x84 CALLDATALOAD PUSH1 0x1 PUSH1 0x1 PUSH1 0x40 SHL SUB DUP2 GT PUSH2 0x397 JUMPI PUSH2 0x68D SWAP1 CALLDATASIZE SWAP1 PUSH1 0x4 ADD PUSH2 0x1EBD JUMP JUMPDEST PUSH1 0x80 MSTORE PUSH2 0x440 MSTORE PUSH1 0x1 PUSH1 0x1 PUSH1 0x40 SHL SUB PUSH1 0xA4 CALLDATALOAD GT PUSH2 0x397 JUMPI PUSH2 0x6B3 CALLDATASIZE PUSH1 0xA4 CALLDATALOAD PUSH1 0x4 ADD PUSH2 0x1EBD JUMP JUMPDEST PUSH2 0x2C0 MSTORE PUSH2 0x460 MSTORE PUSH1 0xC4 CALLDATALOAD PUSH1 0x1 PUSH1 0x1 PUSH1 0x40 SHL SUB DUP2 GT PUSH2 0x397 JUMPI PUSH2 0x6DA SWAP1 CALLDATASIZE SWAP1 PUSH1 0x4 ADD PUSH2 0x1EBD JUMP JUMPDEST PUSH1 0xC0 MSTORE PUSH2 0x340 MSTORE PUSH1 0x1 PUSH1 0x1 PUSH1 0x40 SHL SUB PUSH1 0xE4 CALLDATALOAD GT PUSH2 0x397 JUMPI PUSH2 0x700 CALLDATASIZE PUSH1 0xE4 CALLDATALOAD PUSH1 0x4 ADD PUSH2 0x1EBD JUMP JUMPDEST PUSH1 0xE0 MSTORE PUSH2 0x3E0 MSTORE PUSH1 0x1 PUSH1 0x1 PUSH1 0x40 SHL SUB PUSH2 0x104 CALLDATALOAD GT PUSH2 0x397 JUMPI PUSH2 0x728 CALLDATASIZE PUSH2 0x104 CALLDATALOAD PUSH1 0x4 ADD PUSH2 0x1EBD JUMP JUMPDEST PUSH2 0x3A0 MSTORE PUSH2 0x320 MSTORE PUSH1 0x1 PUSH1 0x1 PUSH1 0x40 SHL SUB PUSH2 0x124 CALLDATALOAD GT PUSH2 0x397 JUMPI PUSH2 0x751 CALLDATASIZE PUSH2 0x124 CALLDATALOAD PUSH1 0x4 ADD PUSH2 0x1EBD JUMP JUMPDEST PUSH2 0x220 MSTORE PUSH2 0x1A0 MSTORE PUSH2 0x144 CALLDATALOAD PUSH1 0x1 PUSH1 0x1 PUSH1 0x40 SHL SUB DUP2 GT PUSH2 0x397 JUMPI PUSH2 0x779 SWAP1 CALLDATASIZE SWAP1 PUSH1 0x4 ADD PUSH2 0x1EBD JUMP JUMPDEST PUSH2 0x1C0 MSTORE PUSH2 0x180 MSTORE PUSH2 0x164 CALLDATALOAD PUSH1 0x1 PUSH1 0x1 PUSH1 0x40 SHL SUB DUP2 GT PUSH2 0x397 JUMPI PUSH2 0x7A1 SWAP1 CALLDATASIZE SWAP1 PUSH1 0x4 ADD PUSH2 0x1EBD JUMP JUMPDEST PUSH2 0x260 MSTORE PUSH2 0x420 MSTORE PUSH2 0x184 CALLDATALOAD PUSH1 0x1 PUSH1 0x1 PUSH1 0x40 SHL SUB DUP2 GT PUSH2 0x397 JUMPI PUSH2 0x7C9 SWAP1 CALLDATASIZE SWAP1 PUSH1 0x4 ADD PUSH2 0x1EBD JUMP JUMPDEST PUSH2 0x140 MSTORE PUSH2 0x280 MSTORE PUSH2 0x1A4 CALLDATALOAD PUSH1 0x1 PUSH1 0x1 PUSH1 0x40 SHL SUB DUP2 GT PUSH2 0x397 JUMPI PUSH2 0x7F1 SWAP1 CALLDATASIZE SWAP1 PUSH1 0x4 ADD PUSH2 0x1EBD JUMP JUMPDEST PUSH2 0x1E0 MSTORE PUSH2 0x160 MSTORE PUSH2 0x1C4 CALLDATALOAD PUSH1 0x1 PUSH1 0x1 PUSH1 0x40 SHL SUB DUP2 GT PUSH2 0x397 JUMPI PUSH2 0x819 SWAP1 CALLDATASIZE SWAP1 PUSH1 0x4 ADD PUSH2 0x1EBD JUMP JUMPDEST PUSH2 0x300 MSTORE PUSH2 0x360 MSTORE PUSH2 0x1E4 CALLDATALOAD PUSH1 0x1 PUSH1 0x1 PUSH1 0x40 SHL SUB DUP2 GT PUSH2 0x397 JUMPI PUSH2 0x841 SWAP1 CALLDATASIZE SWAP1 PUSH1 0x4 ADD PUSH2 0x1EBD JUMP JUMPDEST PUSH2 0x120 MSTORE PUSH2 0x200 MSTORE PUSH1 0x0 SLOAD PUSH1 0x1 PUSH1 0x1 PUSH1 0xA0 SHL SUB AND CALLER SUB PUSH2 0x1DE5 JUMPI PUSH2 0x86B PUSH1 0x40 MLOAD DUP1 PUSH2 0x2E0 MSTORE PUSH2 0x1F24 JUMP JUMPDEST PUSH2 0x87C CALLDATASIZE PUSH2 0x380 MLOAD PUSH2 0x400 MLOAD PUSH2 0x2047 JUMP JUMPDEST PUSH2 0x2E0 MLOAD MSTORE PUSH2 0x892 CALLDATASIZE PUSH2 0x240 MLOAD PUSH2 0x480 MLOAD PUSH2 0x2047 JUMP JUMPDEST PUSH1 0x20 PUSH2 0x2E0 MLOAD ADD MSTORE PUSH2 0x8AB CALLDATASIZE PUSH2 0x2A0 MLOAD PUSH2 0x100 MLOAD PUSH2 0x2047 JUMP JUMPDEST PUSH1 0x40 PUSH2 0x2E0 MLOAD ADD MSTORE PUSH2 0x8C3 CALLDATASIZE PUSH1 0x80 MLOAD PUSH2 0x440 MLOAD PUSH2 0x2047 JUMP JUMPDEST PUSH1 0x60 PUSH2 0x2E0 MLOAD ADD MSTORE PUSH2 0x8DC CALLDATASIZE PUSH2 0x2C0 MLOAD PUSH2 0x460 MLOAD PUSH2 0x2047 JUMP JUMPDEST PUSH1 0x80 PUSH2 0x2E0 MLOAD ADD MSTORE PUSH2 0x8F4 CALLDATASIZE PUSH1 0xC0 MLOAD PUSH2 0x340 MLOAD PUSH2 0x2047 JUMP JUMPDEST PUSH1 0xA0 PUSH2 0x2E0 MLOAD ADD MSTORE PUSH2 0x90C CALLDATASIZE PUSH1 0xE0 MLOAD PUSH2 0x3E0 MLOAD PUSH2 0x2047 JUMP JUMPDEST PUSH1 0xC0 PUSH2 0x2E0 MLOAD ADD MSTORE PUSH2 0x925 CALLDATASIZE PUSH2 0x3A0 MLOAD PUSH2 0x320 MLOAD PUSH2 0x2047 JUMP JUMPDEST PUSH1 0xE0 PUSH2 0x2E0 MLOAD ADD MSTORE PUSH2 0x93E CALLDATASIZE PUSH2 0x220 MLOAD PUSH2 0x1A0 MLOAD PUSH2 0x2047 JUMP JUMPDEST PUSH2 0x100 PUSH2 0x2E0 MLOAD ADD MSTORE PUSH2 0x958 CALLDATASIZE PUSH2 0x1C0 MLOAD PUSH2 0x180 MLOAD PUSH2 0x2047 JUMP JUMPDEST PUSH2 0x120 PUSH2 0x2E0 MLOAD ADD MSTORE PUSH2 0x972 CALLDATASIZE PUSH2 0x260 MLOAD PUSH2 0x420 MLOAD PUSH2 0x2047 JUMP JUMPDEST PUSH2 0x140 PUSH2 0x2E0 MLOAD ADD MSTORE PUSH2 0x98C CALLDATASIZE PUSH2 0x140 MLOAD PUSH2 0x280 MLOAD PUSH2 0x2047 JUMP JUMPDEST PUSH2 0x160 PUSH2 0x2E0 MLOAD ADD MSTORE PUSH2 0x9A6 CALLDATASIZE PUSH2 0x1E0 MLOAD PUSH2 0x160 MLOAD PUSH2 0x2047 JUMP JUMPDEST PUSH2 0x180 PUSH2 0x2E0 MLOAD ADD MSTORE PUSH2 0x9C0 CALLDATASIZE PUSH2 0x300 MLOAD PUSH2 0x360 MLOAD PUSH2 0x2047 JUMP JUMPDEST PUSH2 0x1A0 PUSH2 0x2E0 MLOAD ADD MSTORE PUSH2 0x9DA CALLDATASIZE PUSH2 0x120 MLOAD PUSH2 0x200 MLOAD PUSH2 0x2047 JUMP JUMPDEST PUSH2 0x1C0 PUSH2 0x2E0 MLOAD ADD MSTORE PUSH1 0x1 DUP1 PUSH1 0xA0 SHL SUB PUSH1 0xA0 MLOAD AND PUSH1 0x0 MSTORE PUSH1 0x1 PUSH1 0x20 MSTORE PUSH1 0x40 PUSH1 0x0 KECCAK256 PUSH2 0x2E0 MLOAD MLOAD SWAP1 DUP2 MLOAD PUSH1 0x1 PUSH1 0x1 PUSH1 0x40 SHL SUB DUP2 GT PUSH2 0x11CB JUMPI PUSH2 0xA1B DUP3 SLOAD PUSH2 0x1EEA JUMP JUMPDEST PUSH1 0x1F DUP2 GT PUSH2 0x1DA1 JUMPI JUMPDEST POP PUSH1 0x20 PUSH1 0x1F DUP3 GT PUSH1 0x1 EQ PUSH2 0x1D3C JUMPI DUP2 SWAP3 SWAP4 PUSH1 0x0 SWAP3 PUSH2 0x1D31 JUMPI JUMPDEST POP POP DUP2 PUSH1 0x1 SHL SWAP2 PUSH1 0x0 NOT SWAP1 PUSH1 0x3 SHL SHR NOT AND OR DUP2 SSTORE JUMPDEST PUSH1 0x20 PUSH2 0x2E0 MLOAD ADD MLOAD DUP1 MLOAD SWAP1 PUSH1 0x1 PUSH1 0x1 PUSH1 0x40 SHL SUB DUP3 GT PUSH2 0x11CB JUMPI DUP2 SWAP1 PUSH2 0xA7A PUSH1 0x1 DUP6 ADD SLOAD PUSH2 0x1EEA JUMP JUMPDEST PUSH1 0x1F DUP2 GT PUSH2 0x1CDE JUMPI JUMPDEST POP PUSH1 0x20 SWAP1 PUSH1 0x1F DUP4 GT PUSH1 0x1 EQ PUSH2 0x1C6C JUMPI PUSH1 0x0 SWAP3 PUSH2 0x1C61 JUMPI JUMPDEST POP POP DUP2 PUSH1 0x1 SHL SWAP2 PUSH1 0x0 NOT SWAP1 PUSH1 0x3 SHL SHR NOT AND OR PUSH1 0x1 DUP3 ADD SSTORE JUMPDEST PUSH1 0x40 PUSH2 0x2E0 MLOAD ADD MLOAD DUP1 MLOAD SWAP1 PUSH1 0x1 PUSH1 0x1 PUSH1 0x40 SHL SUB DUP3 GT PUSH2 0x11CB JUMPI DUP2 SWAP1 PUSH2 0xADA PUSH1 0x2 DUP6 ADD SLOAD PUSH2 0x1EEA JUMP JUMPDEST PUSH1 0x1F DUP2 GT PUSH2 0x1C0E JUMPI JUMPDEST POP PUSH1 0x20 SWAP1 PUSH1 0x1F DUP4 GT PUSH1 0x1 EQ PUSH2 0x1B9C JUMPI PUSH1 0x0 SWAP3 PUSH2 0x1B91 JUMPI JUMPDEST POP POP DUP2 PUSH1 0x1 SHL SWAP2 PUSH1 0x0 NOT SWAP1 PUSH1 0x3 SHL SHR NOT AND OR PUSH1 0x2 DUP3 ADD SSTORE JUMPDEST PUSH1 0x60 PUSH2 0x2E0 MLOAD ADD MLOAD DUP1 MLOAD SWAP1 PUSH1 0x1 PUSH1 0x1 PUSH1 0x40 SHL SUB DUP3 GT PUSH2 0x11CB JUMPI DUP2 SWAP1 PUSH2 0xB3A PUSH1 0x3 DUP6 ADD SLOAD PUSH2 0x1EEA JUMP JUMPDEST PUSH1 0x1F DUP2 GT PUSH2 0x1B3E JUMPI JUMPDEST POP PUSH1 0x20 SWAP1 PUSH1 0x1F DUP4 GT PUSH1 0x1 EQ PUSH2 0x1ACC JUMPI PUSH1 0x0 SWAP3 PUSH2 0x1AC1 JUMPI JUMPDEST POP POP DUP2 PUSH1 0x1 SHL SWAP2 PUSH1 0x0 NOT SWAP1 PUSH1 0x3 SHL SHR NOT AND OR PUSH1 0x3 DUP3 ADD SSTORE JUMPDEST PUSH1 0x80 PUSH2 0x2E0 MLOAD ADD MLOAD DUP1 MLOAD SWAP1 PUSH1 0x1 PUSH1 0x1 PUSH1 0x40 SHL SUB DUP3 GT PUSH2 0x11CB JUMPI DUP2 SWAP1 PUSH2 0xB9A PUSH1 0x4 DUP6 ADD SLOAD PUSH2 0x1EEA JUMP JUMPDEST PUSH1 0x1F DUP2 GT PUSH2 0x1A6E JUMPI JUMPDEST POP PUSH1 0x20 SWAP1 PUSH1 0x1F DUP4 GT PUSH1 0x1 EQ PUSH2 0x19FC JUMPI PUSH1 0x0 SWAP3 PUSH2 0x19F1 JUMPI JUMPDEST POP POP DUP2 PUSH1 0x1 SHL SWAP2 PUSH1 0x0 NOT SWAP1 PUSH1 0x3 SHL SHR NOT AND OR PUSH1 0x4 DUP3 ADD SSTORE JUMPDEST PUSH1 0xA0 PUSH2 0x2E0 MLOAD ADD MLOAD DUP1 MLOAD SWAP1 PUSH1 0x1 PUSH1 0x1 PUSH1 0x40 SHL SUB DUP3 GT PUSH2 0x11CB JUMPI DUP2 SWAP1 PUSH2 0xBFA PUSH1 0x5 DUP6 ADD SLOAD PUSH2 0x1EEA JUMP JUMPDEST PUSH1 0x1F DUP2 GT PUSH2 0x199E JUMPI JUMPDEST POP PUSH1 0x20 SWAP1 PUSH1 0x1F DUP4 GT PUSH1 0x1 EQ PUSH2 0x192C JUMPI PUSH1 0x0 SWAP3 PUSH2 0x1921 JUMPI JUMPDEST POP POP DUP2 PUSH1 0x1 SHL SWAP2 PUSH1 0x0 NOT SWAP1 PUSH1 0x3 SHL SHR NOT AND OR PUSH1 0x5 DUP3 ADD SSTORE JUMPDEST PUSH1 0xC0 PUSH2 0x2E0 MLOAD ADD MLOAD DUP1 MLOAD SWAP1 PUSH1 0x1 PUSH1 0x1 PUSH1 0x40 SHL SUB DUP3 GT PUSH2 0x11CB JUMPI DUP2 SWAP1 PUSH2 0xC5A PUSH1 0x6 DUP6 ADD SLOAD PUSH2 0x1EEA JUMP JUMPDEST PUSH1 0x1F DUP2 GT PUSH2 0x18CE JUMPI JUMPDEST POP PUSH1 0x20 SWAP1 PUSH1 0x1F DUP4 GT PUSH1 0x1 EQ PUSH2 0x185C JUMPI PUSH1 0x0 SWAP3 PUSH2 0x1851 JUMPI JUMPDEST POP POP DUP2 PUSH1 0x1 SHL SWAP2 PUSH1 0x0 NOT SWAP1 PUSH1 0x3 SHL SHR NOT AND OR PUSH1 0x6 DUP3 ADD SSTORE JUMPDEST PUSH1 0xE0 PUSH2 0x2E0 MLOAD ADD MLOAD DUP1 MLOAD SWAP1 PUSH1 0x1 PUSH1 0x1 PUSH1 0x40 SHL SUB DUP3 GT PUSH2 0x11CB JUMPI DUP2 SWAP1 PUSH2 0xCBA PUSH1 0x7 DUP6 ADD SLOAD PUSH2 0x1EEA JUMP JUMPDEST PUSH1 0x1F DUP2 GT PUSH2 0x17FE JUMPI JUMPDEST POP PUSH1 0x20 SWAP1 PUSH1 0x1F DUP4 GT PUSH1 0x1 EQ PUSH2 0x178C JUMPI PUSH1 0x0 SWAP3 PUSH2 0x1781 JUMPI JUMPDEST POP POP DUP2 PUSH1 0x1 SHL SWAP2 PUSH1 0x0 NOT SWAP1 PUSH1 0x3 SHL SHR NOT AND OR PUSH1 0x7 DUP3 ADD SSTORE JUMPDEST PUSH2 0x100 PUSH2 0x2E0 MLOAD ADD MLOAD DUP1 MLOAD SWAP1 PUSH1 0x1 PUSH1 0x1 PUSH1 0x40 SHL SUB DUP3 GT PUSH2 0x11CB JUMPI DUP2 SWAP1 PUSH2 0xD1B PUSH1 0x8 DUP6 ADD SLOAD PUSH2 0x1EEA JUMP JUMPDEST PUSH1 0x1F DUP2 GT PUSH2 0x172E JUMPI JUMPDEST POP PUSH1 0x20 SWAP1 PUSH1 0x1F DUP4 GT PUSH1 0x1 EQ PUSH2 0x16BC JUMPI PUSH1 0x0 SWAP3 PUSH2 0x16B1 JUMPI JUMPDEST POP POP DUP2 PUSH1 0x1 SHL SWAP2 PUSH1 0x0 NOT SWAP1 PUSH1 0x3 SHL SHR NOT AND OR PUSH1 0x8 DUP3 ADD SSTORE JUMPDEST PUSH2 0x120 PUSH2 0x2E0 MLOAD ADD MLOAD DUP1 MLOAD SWAP1 PUSH1 0x1 PUSH1 0x1 PUSH1 0x40 SHL SUB DUP3 GT PUSH2 0x11CB JUMPI DUP2 SWAP1 PUSH2 0xD7C PUSH1 0x9 DUP6 ADD SLOAD PUSH2 0x1EEA JUMP JUMPDEST PUSH1 0x1F DUP2 GT PUSH2 0x165E JUMPI JUMPDEST POP PUSH1 0x20 SWAP1 PUSH1 0x1F DUP4 GT PUSH1 0x1 EQ PUSH2 0x15EC JUMPI PUSH1 0x0 SWAP3 PUSH2 0x15E1 JUMPI JUMPDEST POP POP DUP2 PUSH1 0x1 SHL SWAP2 PUSH1 0x0 NOT SWAP1 PUSH1 0x3 SHL SHR NOT AND OR PUSH1 0x9 DUP3 ADD SSTORE JUMPDEST PUSH2 0x140 PUSH2 0x2E0 MLOAD ADD MLOAD DUP1 MLOAD SWAP1 PUSH1 0x1 PUSH1 0x1 PUSH1 0x40 SHL SUB DUP3 GT PUSH2 0x11CB JUMPI DUP2 SWAP1 PUSH2 0xDDD PUSH1 0xA DUP6 ADD SLOAD PUSH2 0x1EEA JUMP JUMPDEST PUSH1 0x1F DUP2 GT PUSH2 0x158E JUMPI JUMPDEST POP PUSH1 0x20 SWAP1 PUSH1 0x1F DUP4 GT PUSH1 0x1 EQ PUSH2 0x151C JUMPI PUSH1 0x0 SWAP3 PUSH2 0x1511 JUMPI JUMPDEST POP POP DUP2 PUSH1 0x1 SHL SWAP2 PUSH1 0x0 NOT SWAP1 PUSH1 0x3 SHL SHR NOT AND OR PUSH1 0xA DUP3 ADD SSTORE JUMPDEST PUSH2 0x160 PUSH2 0x2E0 MLOAD ADD MLOAD DUP1 MLOAD SWAP1 PUSH1 0x1 PUSH1 0x1 PUSH1 0x40 SHL SUB DUP3 GT PUSH2 0x11CB JUMPI DUP2 SWAP1 PUSH2 0xE3E PUSH1 0xB DUP6 ADD SLOAD PUSH2 0x1EEA JUMP JUMPDEST PUSH1 0x1F DUP2 GT PUSH2 0x14BE JUMPI JUMPDEST POP PUSH1 0x20 SWAP1 PUSH1 0x1F DUP4 GT PUSH1 0x1 EQ PUSH2 0x144C JUMPI PUSH1 0x0 SWAP3 PUSH2 0x1441 JUMPI JUMPDEST POP POP DUP2 PUSH1 0x1 SHL SWAP2 PUSH1 0x0 NOT SWAP1 PUSH1 0x3 SHL SHR NOT AND OR PUSH1 0xB DUP3 ADD SSTORE JUMPDEST PUSH2 0x180 PUSH2 0x2E0 MLOAD ADD MLOAD DUP1 MLOAD SWAP1 PUSH1 0x1 PUSH1 0x1 PUSH1 0x40 SHL SUB DUP3 GT PUSH2 0x11CB JUMPI DUP2 SWAP1 PUSH2 0xE9F PUSH1 0xC DUP6 ADD SLOAD PUSH2 0x1EEA JUMP JUMPDEST PUSH1 0x1F DUP2 GT PUSH2 0x13EE JUMPI JUMPDEST POP PUSH1 0x20 SWAP1 PUSH1 0x1F DUP4 GT PUSH1 0x1 EQ PUSH2 0x137C JUMPI PUSH1 0x0 SWAP3 PUSH2 0x1371 JUMPI JUMPDEST POP POP DUP2 PUSH1 0x1 SHL SWAP2 PUSH1 0x0 NOT SWAP1 PUSH1 0x3 SHL SHR NOT AND OR PUSH1 0xC DUP3 ADD SSTORE JUMPDEST PUSH2 0x1A0 PUSH2 0x2E0 MLOAD ADD MLOAD DUP1 MLOAD SWAP1 PUSH1 0x1 PUSH1 0x1 PUSH1 0x40 SHL SUB DUP3 GT PUSH2 0x11CB JUMPI DUP2 SWAP1 PUSH2 0xF00 PUSH1 0xD DUP6 ADD SLOAD PUSH2 0x1EEA JUMP JUMPDEST PUSH1 0x1F DUP2 GT PUSH2 0x131E JUMPI JUMPDEST POP PUSH1 0x20 SWAP1 PUSH1 0x1F DUP4 GT PUSH1 0x1 EQ PUSH2 0x12AC JUMPI PUSH1 0x0 SWAP3 PUSH2 0x12A1 JUMPI JUMPDEST POP POP DUP2 PUSH1 0x1 SHL SWAP2 PUSH1 0x0 NOT SWAP1 PUSH1 0x3 SHL SHR NOT AND OR PUSH1 0xD DUP3 ADD SSTORE JUMPDEST PUSH2 0x1C0 PUSH2 0x2E0 MLOAD ADD MLOAD DUP1 MLOAD SWAP1 PUSH1 0x1 PUSH1 0x1 PUSH1 0x40 SHL SUB DUP3 GT PUSH2 0x11CB JUMPI PUSH2 0xF5F PUSH1 0xE DUP5 ADD SLOAD PUSH2 0x1EEA JUMP JUMPDEST PUSH1 0x1F DUP2 GT PUSH2 0x125A JUMPI JUMPDEST POP PUSH1 0x20 SWAP1 PUSH1 0x1F DUP4 GT PUSH1 0x1 EQ PUSH2 0x11EC JUMPI PUSH1 0xE SWAP3 SWAP2 PUSH1 0x0 SWAP2 DUP4 PUSH2 0x11E1 JUMPI JUMPDEST POP POP DUP2 PUSH1 0x1 SHL SWAP2 PUSH1 0x0 NOT SWAP1 PUSH1 0x3 SHL SHR NOT AND OR SWAP2 ADD SSTORE JUMPDEST PUSH1 0x2 SLOAD PUSH9 0x10000000000000000 DUP2 LT ISZERO PUSH2 0x11CB JUMPI DUP1 PUSH1 0x1 PUSH2 0xFBE SWAP3 ADD PUSH1 0x2 SSTORE PUSH2 0x1E5A JUMP JUMPDEST DUP2 SLOAD SWAP1 PUSH1 0x3 SHL SWAP1 PUSH1 0x1 DUP1 PUSH1 0xA0 SHL SUB PUSH1 0xA0 MLOAD AND DUP3 SHL SWAP2 PUSH1 0x1 DUP1 PUSH1 0xA0 SHL SUB SWAP1 SHL NOT AND OR SWAP1 SSTORE PUSH2 0x1E0 PUSH1 0x40 MLOAD DUP1 PUSH2 0x3C0 MSTORE MSTORE PUSH2 0x1174 PUSH2 0x115A PUSH2 0x1140 PUSH2 0x1126 PUSH2 0x110C PUSH2 0x10F2 PUSH2 0x10D8 PUSH2 0x10BF PUSH2 0x10A7 PUSH2 0x108F PUSH2 0x1076 PUSH2 0x105E PUSH2 0x1045 PUSH2 0x102C PUSH2 0x1E0 PUSH2 0x3C0 MLOAD ADD PUSH2 0x380 MLOAD PUSH2 0x400 MLOAD PUSH2 0x208D JUMP JUMPDEST PUSH2 0x3C0 MLOAD PUSH1 0x20 DUP2 DUP4 SUB SWAP2 ADD MSTORE PUSH2 0x240 MLOAD PUSH2 0x480 MLOAD PUSH2 0x208D JUMP JUMPDEST PUSH2 0x3C0 MLOAD PUSH1 0x40 DUP2 DUP4 SUB SWAP2 ADD MSTORE PUSH2 0x2A0 MLOAD PUSH2 0x100 MLOAD PUSH2 0x208D JUMP JUMPDEST PUSH2 0x3C0 MLOAD PUSH1 0x60 DUP2 DUP4 SUB SWAP2 ADD MSTORE PUSH1 0x80 MLOAD PUSH2 0x440 MLOAD PUSH2 0x208D JUMP JUMPDEST PUSH2 0x3C0 MLOAD PUSH1 0x80 DUP2 DUP4 SUB SWAP2 ADD MSTORE PUSH2 0x2C0 MLOAD PUSH2 0x460 MLOAD PUSH2 0x208D JUMP JUMPDEST PUSH2 0x3C0 MLOAD PUSH1 0xA0 DUP2 DUP4 SUB SWAP2 ADD MSTORE PUSH1 0xC0 MLOAD PUSH2 0x340 MLOAD PUSH2 0x208D JUMP JUMPDEST PUSH2 0x3C0 MLOAD PUSH1 0xC0 DUP2 DUP4 SUB SWAP2 ADD MSTORE PUSH1 0xE0 MLOAD PUSH2 0x3E0 MLOAD PUSH2 0x208D JUMP JUMPDEST PUSH2 0x3C0 MLOAD PUSH1 0xE0 DUP2 DUP4 SUB SWAP2 ADD MSTORE PUSH2 0x3A0 MLOAD PUSH2 0x320 MLOAD PUSH2 0x208D JUMP JUMPDEST PUSH2 0x3C0 MLOAD PUSH2 0x100 DUP2 DUP4 SUB SWAP2 ADD MSTORE PUSH2 0x220 MLOAD PUSH2 0x1A0 MLOAD PUSH2 0x208D JUMP JUMPDEST PUSH2 0x3C0 MLOAD PUSH2 0x120 DUP2 DUP4 SUB SWAP2 ADD MSTORE PUSH2 0x1C0 MLOAD PUSH2 0x180 MLOAD PUSH2 0x208D JUMP JUMPDEST PUSH2 0x3C0 MLOAD PUSH2 0x140 DUP2 DUP4 SUB SWAP2 ADD MSTORE PUSH2 0x260 MLOAD PUSH2 0x420 MLOAD PUSH2 0x208D JUMP JUMPDEST PUSH2 0x3C0 MLOAD PUSH2 0x160 DUP2 DUP4 SUB SWAP2 ADD MSTORE PUSH2 0x140 MLOAD PUSH2 0x280 MLOAD PUSH2 0x208D JUMP JUMPDEST PUSH2 0x3C0 MLOAD PUSH2 0x180 DUP2 DUP4 SUB SWAP2 ADD MSTORE PUSH2 0x1E0 MLOAD PUSH2 0x160 MLOAD PUSH2 0x208D JUMP JUMPDEST PUSH2 0x3C0 MLOAD PUSH2 0x1A0 DUP2 DUP4 SUB SWAP2 ADD MSTORE PUSH2 0x300 MLOAD PUSH2 0x360 MLOAD PUSH2 0x208D JUMP JUMPDEST PUSH2 0x3C0 MLOAD PUSH2 0x1C0 DUP2 DUP4 SUB SWAP2 ADD MSTORE PUSH32 0x662FC05EBE5BA4B780FC72B590D59DCA821253305BB33BA26A13813D249C5227 PUSH1 0x1 DUP1 PUSH1 0xA0 SHL SUB PUSH1 0xA0 MLOAD AND SWAP2 PUSH2 0x11C3 PUSH2 0x3C0 MLOAD SWAP2 PUSH2 0x120 MLOAD PUSH2 0x200 MLOAD PUSH2 0x208D JUMP JUMPDEST SUB PUSH2 0x3C0 MLOAD LOG2 STOP JUMPDEST PUSH4 0x4E487B71 PUSH1 0xE0 SHL PUSH1 0x0 MSTORE PUSH1 0x41 PUSH1 0x4 MSTORE PUSH1 0x24 PUSH1 0x0 REVERT JUMPDEST ADD MLOAD SWAP1 POP DUP5 DUP1 PUSH2 0xF84 JUMP JUMPDEST SWAP1 PUSH1 0xE DUP5 ADD PUSH1 0x0 MSTORE PUSH1 0x20 PUSH1 0x0 KECCAK256 SWAP2 PUSH1 0x0 PUSH1 0x1F NOT DUP6 AND SWAP1 JUMPDEST DUP2 DUP2 LT PUSH2 0x1242 JUMPI POP SWAP2 PUSH1 0x1 SWAP4 SWAP2 DUP6 PUSH1 0xE SWAP7 SWAP5 LT PUSH2 0x1229 JUMPI JUMPDEST POP POP POP DUP2 SHL ADD SWAP2 ADD SSTORE PUSH2 0xF9A JUMP JUMPDEST ADD MLOAD PUSH1 0x0 NOT PUSH1 0xF8 DUP5 PUSH1 0x3 SHL AND SHR NOT AND SWAP1 SSTORE DUP5 DUP1 DUP1 PUSH2 0x121B JUMP JUMPDEST SWAP3 SWAP4 PUSH1 0x20 PUSH1 0x1 DUP2 SWAP3 DUP8 DUP7 ADD MLOAD DUP2 SSTORE ADD SWAP6 ADD SWAP4 ADD PUSH2 0x1203 JUMP JUMPDEST PUSH1 0xE DUP5 ADD PUSH1 0x0 MSTORE PUSH1 0x20 PUSH1 0x0 KECCAK256 PUSH1 0x1F DUP5 ADD PUSH1 0x5 SHR DUP2 ADD PUSH1 0x20 DUP6 LT PUSH2 0x129A JUMPI JUMPDEST PUSH1 0x1F DUP4 ADD PUSH1 0x5 SHR DUP3 ADD DUP2 LT PUSH2 0x128E JUMPI POP POP PUSH2 0xF68 JUMP JUMPDEST PUSH1 0x0 DUP2 SSTORE PUSH1 0x1 ADD PUSH2 0x1278 JUMP JUMPDEST POP DUP1 PUSH2 0x1278 JUMP JUMPDEST ADD MLOAD SWAP1 POP DUP4 DUP1 PUSH2 0xF20 JUMP JUMPDEST SWAP3 POP PUSH1 0xD DUP5 ADD PUSH1 0x0 MSTORE PUSH1 0x20 PUSH1 0x0 KECCAK256 SWAP1 PUSH1 0x0 SWAP4 JUMPDEST PUSH1 0x1F NOT DUP5 AND DUP6 LT PUSH2 0x1303 JUMPI PUSH1 0x1 SWAP5 POP DUP4 PUSH1 0x1F NOT DUP2 AND LT PUSH2 0x12EA JUMPI JUMPDEST POP POP POP DUP2 SHL ADD PUSH1 0xD DUP3 ADD SSTORE PUSH2 0xF38 JUMP JUMPDEST ADD MLOAD PUSH1 0x0 NOT PUSH1 0xF8 DUP5 PUSH1 0x3 SHL AND SHR NOT AND SWAP1 SSTORE DUP4 DUP1 DUP1 PUSH2 0x12DA JUMP JUMPDEST DUP2 DUP2 ADD MLOAD DUP4 SSTORE PUSH1 0x20 SWAP5 DUP6 ADD SWAP5 PUSH1 0x1 SWAP1 SWAP4 ADD SWAP3 SWAP1 SWAP2 ADD SWAP1 PUSH2 0x12BF JUMP JUMPDEST SWAP1 SWAP2 POP PUSH1 0xD DUP5 ADD PUSH1 0x0 MSTORE PUSH1 0x20 PUSH1 0x0 KECCAK256 PUSH1 0x1F DUP5 ADD PUSH1 0x5 SHR DUP2 ADD PUSH1 0x20 DUP6 LT PUSH2 0x136A JUMPI JUMPDEST SWAP1 DUP5 SWAP4 SWAP3 SWAP2 JUMPDEST PUSH1 0x1F DUP4 ADD PUSH1 0x5 SHR DUP3 ADD DUP2 LT PUSH2 0x135B JUMPI POP POP PUSH2 0xF09 JUMP JUMPDEST PUSH1 0x0 DUP2 SSTORE DUP6 SWAP5 POP PUSH1 0x1 ADD PUSH2 0x1345 JUMP JUMPDEST POP DUP1 PUSH2 0x133F JUMP JUMPDEST ADD MLOAD SWAP1 POP DUP4 DUP1 PUSH2 0xEBF JUMP JUMPDEST SWAP3 POP PUSH1 0xC DUP5 ADD PUSH1 0x0 MSTORE PUSH1 0x20 PUSH1 0x0 KECCAK256 SWAP1 PUSH1 0x0 SWAP4 JUMPDEST PUSH1 0x1F NOT DUP5 AND DUP6 LT PUSH2 0x13D3 JUMPI PUSH1 0x1 SWAP5 POP DUP4 PUSH1 0x1F NOT DUP2 AND LT PUSH2 0x13BA JUMPI JUMPDEST POP POP POP DUP2 SHL ADD PUSH1 0xC DUP3 ADD SSTORE PUSH2 0xED7 JUMP JUMPDEST ADD MLOAD PUSH1 0x0 NOT PUSH1 0xF8 DUP5 PUSH1 0x3 SHL AND SHR NOT AND SWAP1 SSTORE DUP4 DUP1 DUP1 PUSH2 0x13AA JUMP JUMPDEST DUP2 DUP2 ADD MLOAD DUP4 SSTORE PUSH1 0x20 SWAP5 DUP6 ADD SWAP5 PUSH1 0x1 SWAP1 SWAP4 ADD SWAP3 SWAP1 SWAP2 ADD SWAP1 PUSH2 0x138F JUMP JUMPDEST SWAP1 SWAP2 POP PUSH1 0xC DUP5 ADD PUSH1 0x0 MSTORE PUSH1 0x20 PUSH1 0x0 KECCAK256 PUSH1 0x1F DUP5 ADD PUSH1 0x5 SHR DUP2 ADD PUSH1 0x20 DUP6 LT PUSH2 0x143A JUMPI JUMPDEST SWAP1 DUP5 SWAP4 SWAP3 SWAP2 JUMPDEST PUSH1 0x1F DUP4 ADD PUSH1 0x5 SHR DUP3 ADD DUP2 LT PUSH2 0x142B JUMPI POP POP PUSH2 0xEA8 JUMP JUMPDEST PUSH1 0x0 DUP2 SSTORE DUP6 SWAP5 POP PUSH1 0x1 ADD PUSH2 0x1415 JUMP JUMPDEST POP DUP1 PUSH2 0x140F JUMP JUMPDEST ADD MLOAD SWAP1 POP DUP4 DUP1 PUSH2 0xE5E JUMP JUMPDEST SWAP3 POP PUSH1 0xB DUP5 ADD PUSH1 0x0 MSTORE PUSH1 0x20 PUSH1 0x0 KECCAK256 SWAP1 PUSH1 0x0 SWAP4 JUMPDEST PUSH1 0x1F NOT DUP5 AND DUP6 LT PUSH2 0x14A3 JUMPI PUSH1 0x1 SWAP5 POP DUP4 PUSH1 0x1F NOT DUP2 AND LT PUSH2 0x148A JUMPI JUMPDEST POP POP POP DUP2 SHL ADD PUSH1 0xB DUP3 ADD SSTORE PUSH2 0xE76 JUMP JUMPDEST ADD MLOAD PUSH1 0x0 NOT PUSH1 0xF8 DUP5 PUSH1 0x3 SHL AND SHR NOT AND SWAP1 SSTORE DUP4 DUP1 DUP1 PUSH2 0x147A JUMP JUMPDEST DUP2 DUP2 ADD MLOAD DUP4 SSTORE PUSH1 0x20 SWAP5 DUP6 ADD SWAP5 PUSH1 0x1 SWAP1 SWAP4 ADD SWAP3 SWAP1 SWAP2 ADD SWAP1 PUSH2 0x145F JUMP JUMPDEST SWAP1 SWAP2 POP PUSH1 0xB DUP5 ADD PUSH1 0x0 MSTORE PUSH1 0x20 PUSH1 0x0 KECCAK256 PUSH1 0x1F DUP5 ADD PUSH1 0x5 SHR DUP2 ADD PUSH1 0x20 DUP6 LT PUSH2 0x150A JUMPI JUMPDEST SWAP1 DUP5 SWAP4 SWAP3 SWAP2 JUMPDEST PUSH1 0x1F DUP4 ADD PUSH1 0x5 SHR DUP3 ADD DUP2 LT PUSH2 0x14FB JUMPI POP POP PUSH2 0xE47 JUMP JUMPDEST PUSH1 0x0 DUP2 SSTORE DUP6 SWAP5 POP PUSH1 0x1 ADD PUSH2 0x14E5 JUMP JUMPDEST POP DUP1 PUSH2 0x14DF JUMP JUMPDEST ADD MLOAD SWAP1 POP DUP4 DUP1 PUSH2 0xDFD JUMP JUMPDEST SWAP3 POP PUSH1 0xA DUP5 ADD PUSH1 0x0 MSTORE PUSH1 0x20 PUSH1 0x0 KECCAK256 SWAP1 PUSH1 0x0 SWAP4 JUMPDEST PUSH1 0x1F NOT DUP5 AND DUP6 LT PUSH2 0x1573 JUMPI PUSH1 0x1 SWAP5 POP DUP4 PUSH1 0x1F NOT DUP2 AND LT PUSH2 0x155A JUMPI JUMPDEST POP POP POP DUP2 SHL ADD PUSH1 0xA DUP3 ADD SSTORE PUSH2 0xE15 JUMP JUMPDEST ADD MLOAD PUSH1 0x0 NOT PUSH1 0xF8 DUP5 PUSH1 0x3 SHL AND SHR NOT AND SWAP1 SSTORE DUP4 DUP1 DUP1 PUSH2 0x154A JUMP JUMPDEST DUP2 DUP2 ADD MLOAD DUP4 SSTORE PUSH1 0x20 SWAP5 DUP6 ADD SWAP5 PUSH1 0x1 SWAP1 SWAP4 ADD SWAP3 SWAP1 SWAP2 ADD SWAP1 PUSH2 0x152F JUMP JUMPDEST SWAP1 SWAP2 POP PUSH1 0xA DUP5 ADD PUSH1 0x0 MSTORE PUSH1 0x20 PUSH1 0x0 KECCAK256 PUSH1 0x1F DUP5 ADD PUSH1 0x5 SHR DUP2 ADD PUSH1 0x20 DUP6 LT PUSH2 0x15DA JUMPI JUMPDEST SWAP1 DUP5 SWAP4 SWAP3 SWAP2 JUMPDEST PUSH1 0x1F DUP4 ADD PUSH1 0x5 SHR DUP3 ADD DUP2 LT PUSH2 0x15CB JUMPI POP POP PUSH2 0xDE6 JUMP JUMPDEST PUSH1 0x0 DUP2 SSTORE DUP6 SWAP5 POP PUSH1 0x1 ADD PUSH2 0x15B5 JUMP JUMPDEST POP DUP1 PUSH2 0x15AF JUMP JUMPDEST ADD MLOAD SWAP1 POP DUP4 DUP1 PUSH2 0xD9C JUMP JUMPDEST SWAP3 POP PUSH1 0x9 DUP5 ADD PUSH1 0x0 MSTORE PUSH1 0x20 PUSH1 0x0 KECCAK256 SWAP1 PUSH1 0x0 SWAP4 JUMPDEST PUSH1 0x1F NOT DUP5 AND DUP6 LT PUSH2 0x1643 JUMPI PUSH1 0x1 SWAP5 POP DUP4 PUSH1 0x1F NOT DUP2 AND LT PUSH2 0x162A JUMPI JUMPDEST POP POP POP DUP2 SHL ADD PUSH1 0x9 DUP3 ADD SSTORE PUSH2 0xDB4 JUMP JUMPDEST ADD MLOAD PUSH1 0x0 NOT PUSH1 0xF8 DUP5 PUSH1 0x3 SHL AND SHR NOT AND SWAP1 SSTORE DUP4 DUP1 DUP1 PUSH2 0x161A JUMP JUMPDEST DUP2 DUP2 ADD MLOAD DUP4 SSTORE PUSH1 0x20 SWAP5 DUP6 ADD SWAP5 PUSH1 0x1 SWAP1 SWAP4 ADD SWAP3 SWAP1 SWAP2 ADD SWAP1 PUSH2 0x15FF JUMP JUMPDEST SWAP1 SWAP2 POP PUSH1 0x9 DUP5 ADD PUSH1 0x0 MSTORE PUSH1 0x20 PUSH1 0x0 KECCAK256 PUSH1 0x1F DUP5 ADD PUSH1 0x5 SHR DUP2 ADD PUSH1 0x20 DUP6 LT PUSH2 0x16AA JUMPI JUMPDEST SWAP1 DUP5 SWAP4 SWAP3 SWAP2 JUMPDEST PUSH1 0x1F DUP4 ADD PUSH1 0x5 SHR DUP3 ADD DUP2 LT PUSH2 0x169B JUMPI POP POP PUSH2 0xD85 JUMP JUMPDEST PUSH1 0x0 DUP2 SSTORE DUP6 SWAP5 POP PUSH1 0x1 ADD PUSH2 0x1685 JUMP JUMPDEST POP DUP1 PUSH2 0x167F JUMP JUMPDEST ADD MLOAD SWAP1 POP DUP4 DUP1 PUSH2 0xD3B JUMP JUMPDEST SWAP3 POP PUSH1 0x8 DUP5 ADD PUSH1 0x0 MSTORE PUSH1 0x20 PUSH1 0x0 KECCAK256 SWAP1 PUSH1 0x0 SWAP4 JUMPDEST PUSH1 0x1F NOT DUP5 AND DUP6 LT PUSH2 0x1713 JUMPI PUSH1 0x1 SWAP5 POP DUP4 PUSH1 0x1F NOT DUP2 AND LT PUSH2 0x16FA JUMPI JUMPDEST POP POP POP DUP2 SHL ADD PUSH1 0x8 DUP3 ADD SSTORE PUSH2 0xD53 JUMP JUMPDEST ADD MLOAD PUSH1 0x0 NOT PUSH1 0xF8 DUP5 PUSH1 0x3 SHL AND SHR NOT AND SWAP1 SSTORE DUP4 DUP1 DUP1 PUSH2 0x16EA JUMP JUMPDEST DUP2 DUP2 ADD MLOAD DUP4 SSTORE PUSH1 0x20 SWAP5 DUP6 ADD SWAP5 PUSH1 0x1 SWAP1 SWAP4 ADD SWAP3 SWAP1 SWAP2 ADD SWAP1 PUSH2 0x16CF JUMP JUMPDEST SWAP1 SWAP2 POP PUSH1 0x8 DUP5 ADD PUSH1 0x0 MSTORE PUSH1 0x20 PUSH1 0x0 KECCAK256 PUSH1 0x1F DUP5 ADD PUSH1 0x5 SHR DUP2 ADD PUSH1 0x20 DUP6 LT PUSH2 0x177A JUMPI JUMPDEST SWAP1 DUP5 SWAP4 SWAP3 SWAP2 JUMPDEST PUSH1 0x1F DUP4 ADD PUSH1 0x5 SHR DUP3 ADD DUP2 LT PUSH2 0x176B JUMPI POP POP PUSH2 0xD24 JUMP JUMPDEST PUSH1 0x0 DUP2 SSTORE DUP6 SWAP5 POP PUSH1 0x1 ADD PUSH2 0x1755 JUMP JUMPDEST POP DUP1 PUSH2 0x174F JUMP JUMPDEST ADD MLOAD SWAP1 POP DUP4 DUP1 PUSH2 0xCDA JUMP JUMPDEST SWAP3 POP PUSH1 0x7 DUP5 ADD PUSH1 0x0 MSTORE PUSH1 0x20 PUSH1 0x0 KECCAK256 SWAP1 PUSH1 0x0 SWAP4 JUMPDEST PUSH1 0x1F NOT DUP5 AND DUP6 LT PUSH2 0x17E3 JUMPI PUSH1 0x1 SWAP5 POP DUP4 PUSH1 0x1F NOT DUP2 AND LT PUSH2 0x17CA JUMPI JUMPDEST POP POP POP DUP2 SHL ADD PUSH1 0x7 DUP3 ADD SSTORE PUSH2 0xCF2 JUMP JUMPDEST ADD MLOAD PUSH1 0x0 NOT PUSH1 0xF8 DUP5 PUSH1 0x3 SHL AND SHR NOT AND SWAP1 SSTORE DUP4 DUP1 DUP1 PUSH2 0x17BA JUMP JUMPDEST DUP2 DUP2 ADD MLOAD DUP4 SSTORE PUSH1 0x20 SWAP5 DUP6 ADD SWAP5 PUSH1 0x1 SWAP1 SWAP4 ADD SWAP3 SWAP1 SWAP2 ADD SWAP1 PUSH2 0x179F JUMP JUMPDEST SWAP1 SWAP2 POP PUSH1 0x7 DUP5 ADD PUSH1 0x0 MSTORE PUSH1 0x20 PUSH1 0x0 KECCAK256 PUSH1 0x1F DUP5 ADD PUSH1 0x5 SHR DUP2 ADD PUSH1 0x20 DUP6 LT PUSH2 0x184A JUMPI JUMPDEST SWAP1 DUP5 SWAP4 SWAP3 SWAP2 JUMPDEST PUSH1 0x1F DUP4 ADD PUSH1 0x5 SHR DUP3 ADD DUP2 LT PUSH2 0x183B JUMPI POP POP PUSH2 0xCC3 JUMP JUMPDEST PUSH1 0x0 DUP2 SSTORE DUP6 SWAP5 POP PUSH1 0x1 ADD PUSH2 0x1825 JUMP JUMPDEST POP DUP1 PUSH2 0x181F JUMP JUMPDEST ADD MLOAD SWAP1 POP DUP4 DUP1 PUSH2 0xC7A JUMP JUMPDEST SWAP3 POP PUSH1 0x6 DUP5 ADD PUSH1 0x0 MSTORE PUSH1 0x20 PUSH1 0x0 KECCAK256 SWAP1 PUSH1 0x0 SWAP4 JUMPDEST PUSH1 0x1F NOT DUP5 AND DUP6 LT PUSH2 0x18B3 JUMPI PUSH1 0x1 SWAP5 POP DUP4 PUSH1 0x1F NOT DUP2 AND LT PUSH2 0x189A JUMPI JUMPDEST POP POP POP DUP2 SHL ADD PUSH1 0x6 DUP3 ADD SSTORE PUSH2 0xC92 JUMP JUMPDEST ADD MLOAD PUSH1 0x0 NOT PUSH1 0xF8 DUP5 PUSH1 0x3 SHL AND SHR NOT AND SWAP1 SSTORE DUP4 DUP1 DUP1 PUSH2 0x188A JUMP JUMPDEST DUP2 DUP2 ADD MLOAD DUP4 SSTORE PUSH1 0x20 SWAP5 DUP6 ADD SWAP5 PUSH1 0x1 SWAP1 SWAP4 ADD SWAP3 SWAP1 SWAP2 ADD SWAP1 PUSH2 0x186F JUMP JUMPDEST SWAP1 SWAP2 POP PUSH1 0x6 DUP5 ADD PUSH1 0x0 MSTORE PUSH1 0x20 PUSH1 0x0 KECCAK256 PUSH1 0x1F DUP5 ADD PUSH1 0x5 SHR DUP2 ADD PUSH1 0x20 DUP6 LT PUSH2 0x191A JUMPI JUMPDEST SWAP1 DUP5 SWAP4 SWAP3 SWAP2 JUMPDEST PUSH1 0x1F DUP4 ADD PUSH1 0x5 SHR DUP3 ADD DUP2 LT PUSH2 0x190B JUMPI POP POP PUSH2 0xC63 JUMP JUMPDEST PUSH1 0x0 DUP2 SSTORE DUP6 SWAP5 POP PUSH1 0x1 ADD PUSH2 0x18F5 JUMP JUMPDEST POP DUP1 PUSH2 0x18EF JUMP JUMPDEST ADD MLOAD SWAP1 POP DUP4 DUP1 PUSH2 0xC1A JUMP JUMPDEST SWAP3 POP PUSH1 0x5 DUP5 ADD PUSH1 0x0 MSTORE PUSH1 0x20 PUSH1 0x0 KECCAK256 SWAP1 PUSH1 0x0 SWAP4 JUMPDEST PUSH1 0x1F NOT DUP5 AND DUP6 LT PUSH2 0x1983 JUMPI PUSH1 0x1 SWAP5 POP DUP4 PUSH1 0x1F NOT DUP2 AND LT PUSH2 0x196A JUMPI JUMPDEST POP POP POP DUP2 SHL ADD PUSH1 0x5 DUP3 ADD SSTORE PUSH2 0xC32 JUMP JUMPDEST ADD MLOAD PUSH1 0x0 NOT PUSH1 0xF8 DUP5 PUSH1 0x3 SHL AND SHR NOT AND SWAP1 SSTORE DUP4 DUP1 DUP1 PUSH2 0x195A JUMP JUMPDEST DUP2 DUP2 ADD MLOAD DUP4 SSTORE PUSH1 0x20 SWAP5 DUP6 ADD SWAP5 PUSH1 0x1 SWAP1 SWAP4 ADD SWAP3 SWAP1 SWAP2 ADD SWAP1 PUSH2 0x193F JUMP JUMPDEST SWAP1 SWAP2 POP PUSH1 0x5 DUP5 ADD PUSH1 0x0 MSTORE PUSH1 0x20 PUSH1 0x0 KECCAK256 PUSH1 0x1F DUP5 ADD PUSH1 0x5 SHR DUP2 ADD PUSH1 0x20 DUP6 LT PUSH2 0x19EA JUMPI JUMPDEST SWAP1 DUP5 SWAP4 SWAP3 SWAP2 JUMPDEST PUSH1 0x1F DUP4 ADD PUSH1 0x5 SHR DUP3 ADD DUP2 LT PUSH2 0x19DB JUMPI POP POP PUSH2 0xC03 JUMP JUMPDEST PUSH1 0x0 DUP2 SSTORE DUP6 SWAP5 POP PUSH1 0x1 ADD PUSH2 0x19C5 JUMP JUMPDEST POP DUP1 PUSH2 0x19BF JUMP JUMPDEST ADD MLOAD SWAP1 POP DUP4 DUP1 PUSH2 0xBBA JUMP JUMPDEST SWAP3 POP PUSH1 0x4 DUP5 ADD PUSH1 0x0 MSTORE PUSH1 0x20 PUSH1 0x0 KECCAK256 SWAP1 PUSH1 0x0 SWAP4 JUMPDEST PUSH1 0x1F NOT DUP5 AND DUP6 LT PUSH2 0x1A53 JUMPI PUSH1 0x1 SWAP5 POP DUP4 PUSH1 0x1F NOT DUP2 AND LT PUSH2 0x1A3A JUMPI JUMPDEST POP POP POP DUP2 SHL ADD PUSH1 0x4 DUP3 ADD SSTORE PUSH2 0xBD2 JUMP JUMPDEST ADD MLOAD PUSH1 0x0 NOT PUSH1 0xF8 DUP5 PUSH1 0x3 SHL AND SHR NOT AND SWAP1 SSTORE DUP4 DUP1 DUP1 PUSH2 0x1A2A JUMP JUMPDEST DUP2 DUP2 ADD MLOAD DUP4 SSTORE PUSH1 0x20 SWAP5 DUP6 ADD SWAP5 PUSH1 0x1 SWAP1 SWAP4 ADD SWAP3 SWAP1 SWAP2 ADD SWAP1 PUSH2 0x1A0F JUMP JUMPDEST SWAP1 SWAP2 POP PUSH1 0x4 DUP5 ADD PUSH1 0x0 MSTORE PUSH1 0x20 PUSH1 0x0 KECCAK256 PUSH1 0x1F DUP5 ADD PUSH1 0x5 SHR DUP2 ADD PUSH1 0x20 DUP6 LT PUSH2 0x1ABA JUMPI JUMPDEST SWAP1 DUP5 SWAP4 SWAP3 SWAP2 JUMPDEST PUSH1 0x1F DUP4 ADD PUSH1 0x5 SHR DUP3 ADD DUP2 LT PUSH2 0x1AAB JUMPI POP POP PUSH2 0xBA3 JUMP JUMPDEST PUSH1 0x0 DUP2 SSTORE DUP6 SWAP5 POP PUSH1 0x1 ADD PUSH2 0x1A95 JUMP JUMPDEST POP DUP1 PUSH2 0x1A8F JUMP JUMPDEST ADD MLOAD SWAP1 POP DUP4 DUP1 PUSH2 0xB5A JUMP JUMPDEST SWAP3 POP PUSH1 0x3 DUP5 ADD PUSH1 0x0 MSTORE PUSH1 0x20 PUSH1 0x0 KECCAK256 SWAP1 PUSH1 0x0 SWAP4 JUMPDEST PUSH1 0x1F NOT DUP5 AND DUP6 LT PUSH2 0x1B23 JUMPI PUSH1 0x1 SWAP5 POP DUP4 PUSH1 0x1F NOT DUP2 AND LT PUSH2 0x1B0A JUMPI JUMPDEST POP POP POP DUP2 SHL ADD PUSH1 0x3 DUP3 ADD SSTORE PUSH2 0xB72 JUMP JUMPDEST ADD MLOAD PUSH1 0x0 NOT PUSH1 0xF8 DUP5 PUSH1 0x3 SHL AND SHR NOT AND SWAP1 SSTORE DUP4 DUP1 DUP1 PUSH2 0x1AFA JUMP JUMPDEST DUP2 DUP2 ADD MLOAD DUP4 SSTORE PUSH1 0x20 SWAP5 DUP6 ADD SWAP5 PUSH1 0x1 SWAP1 SWAP4 ADD SWAP3 SWAP1 SWAP2 ADD SWAP1 PUSH2 0x1ADF JUMP JUMPDEST SWAP1 SWAP2 POP PUSH1 0x3 DUP5 ADD PUSH1 0x0 MSTORE PUSH1 0x20 PUSH1 0x0 KECCAK256 PUSH1 0x1F DUP5 ADD PUSH1 0x5 SHR DUP2 ADD PUSH1 0x20 DUP6 LT PUSH2 0x1B8A JUMPI JUMPDEST SWAP1 DUP5 SWAP4 SWAP3 SWAP2 JUMPDEST PUSH1 0x1F DUP4 ADD PUSH1 0x5 SHR DUP3 ADD DUP2 LT PUSH2 0x1B7B JUMPI POP POP PUSH2 0xB43 JUMP JUMPDEST PUSH1 0x0 DUP2 SSTORE DUP6 SWAP5 POP PUSH1 0x1 ADD PUSH2 0x1B65 JUMP JUMPDEST POP DUP1 PUSH2 0x1B5F JUMP JUMPDEST ADD MLOAD SWAP1 POP DUP4 DUP1 PUSH2 0xAFA JUMP JUMPDEST SWAP3 POP PUSH1 0x2 DUP5 ADD PUSH1 0x0 MSTORE PUSH1 0x20 PUSH1 0x0 KECCAK256 SWAP1 PUSH1 0x0 SWAP4 JUMPDEST PUSH1 0x1F NOT DUP5 AND DUP6 LT PUSH2 0x1BF3 JUMPI PUSH1 0x1 SWAP5 POP DUP4 PUSH1 0x1F NOT DUP2 AND LT PUSH2 0x1BDA JUMPI JUMPDEST POP POP POP DUP2 SHL ADD PUSH1 0x2 DUP3 ADD SSTORE PUSH2 0xB12 JUMP JUMPDEST ADD MLOAD PUSH1 0x0 NOT PUSH1 0xF8 DUP5 PUSH1 0x3 SHL AND SHR NOT AND SWAP1 SSTORE DUP4 DUP1 DUP1 PUSH2 0x1BCA JUMP JUMPDEST DUP2 DUP2 ADD MLOAD DUP4 SSTORE PUSH1 0x20 SWAP5 DUP6 ADD SWAP5 PUSH1 0x1 SWAP1 SWAP4 ADD SWAP3 SWAP1 SWAP2 ADD SWAP1 PUSH2 0x1BAF JUMP JUMPDEST SWAP1 SWAP2 POP PUSH1 0x2 DUP5 ADD PUSH1 0x0 MSTORE PUSH1 0x20 PUSH1 0x0 KECCAK256 PUSH1 0x1F DUP5 ADD PUSH1 0x5 SHR DUP2 ADD PUSH1 0x20 DUP6 LT PUSH2 0x1C5A JUMPI JUMPDEST SWAP1 DUP5 SWAP4 SWAP3 SWAP2 JUMPDEST PUSH1 0x1F DUP4 ADD PUSH1 0x5 SHR DUP3 ADD DUP2 LT PUSH2 0x1C4B JUMPI POP POP PUSH2 0xAE3 JUMP JUMPDEST PUSH1 0x0 DUP2 SSTORE DUP6 SWAP5 POP PUSH1 0x1 ADD PUSH2 0x1C35 JUMP JUMPDEST POP DUP1 PUSH2 0x1C2F JUMP JUMPDEST ADD MLOAD SWAP1 POP DUP4 DUP1 PUSH2 0xA9A JUMP JUMPDEST SWAP3 POP PUSH1 0x1 DUP5 ADD PUSH1 0x0 MSTORE PUSH1 0x20 PUSH1 0x0 KECCAK256 SWAP1 PUSH1 0x0 SWAP4 JUMPDEST PUSH1 0x1F NOT DUP5 AND DUP6 LT PUSH2 0x1CC3 JUMPI PUSH1 0x1 SWAP5 POP DUP4 PUSH1 0x1F NOT DUP2 AND LT PUSH2 0x1CAA JUMPI JUMPDEST POP POP POP DUP2 SHL ADD PUSH1 0x1 DUP3 ADD SSTORE PUSH2 0xAB2 JUMP JUMPDEST ADD MLOAD PUSH1 0x0 NOT PUSH1 0xF8 DUP5 PUSH1 0x3 SHL AND SHR NOT AND SWAP1 SSTORE DUP4 DUP1 DUP1 PUSH2 0x1C9A JUMP JUMPDEST DUP2 DUP2 ADD MLOAD DUP4 SSTORE PUSH1 0x20 SWAP5 DUP6 ADD SWAP5 PUSH1 0x1 SWAP1 SWAP4 ADD SWAP3 SWAP1 SWAP2 ADD SWAP1 PUSH2 0x1C7F JUMP JUMPDEST SWAP1 SWAP2 POP PUSH1 0x1 DUP5 ADD PUSH1 0x0 MSTORE PUSH1 0x20 PUSH1 0x0 KECCAK256 PUSH1 0x1F DUP5 ADD PUSH1 0x5 SHR DUP2 ADD PUSH1 0x20 DUP6 LT PUSH2 0x1D2A JUMPI JUMPDEST SWAP1 DUP5 SWAP4 SWAP3 SWAP2 JUMPDEST PUSH1 0x1F DUP4 ADD PUSH1 0x5 SHR DUP3 ADD DUP2 LT PUSH2 0x1D1B JUMPI POP POP PUSH2 0xA83 JUMP JUMPDEST PUSH1 0x0 DUP2 SSTORE DUP6 SWAP5 POP PUSH1 0x1 ADD PUSH2 0x1D05 JUMP JUMPDEST POP DUP1 PUSH2 0x1CFF JUMP JUMPDEST ADD MLOAD SWAP1 POP DUP4 DUP1 PUSH2 0xA3D JUMP JUMPDEST DUP3 PUSH1 0x0 MSTORE PUSH1 0x20 PUSH1 0x0 KECCAK256 SWAP1 PUSH1 0x0 SWAP5 PUSH1 0x1F NOT DUP5 AND SWAP6 JUMPDEST DUP7 DUP2 LT PUSH2 0x1D89 JUMPI POP DUP4 PUSH1 0x1 SWAP6 SWAP7 LT PUSH2 0x1D70 JUMPI JUMPDEST POP POP POP DUP2 SHL ADD DUP2 SSTORE PUSH2 0xA52 JUMP JUMPDEST ADD MLOAD PUSH1 0x0 NOT PUSH1 0xF8 DUP5 PUSH1 0x3 SHL AND SHR NOT AND SWAP1 SSTORE DUP4 DUP1 DUP1 PUSH2 0x1D63 JUMP JUMPDEST SWAP2 SWAP3 PUSH1 0x20 PUSH1 0x1 DUP2 SWAP3 DUP7 DUP6 ADD MLOAD DUP2 SSTORE ADD SWAP5 ADD SWAP3 ADD PUSH2 0x1D50 JUMP JUMPDEST DUP3 PUSH1 0x0 MSTORE PUSH1 0x20 PUSH1 0x0 KECCAK256 PUSH1 0x1F DUP4 ADD PUSH1 0x5 SHR DUP2 ADD PUSH1 0x20 DUP5 LT PUSH2 0x1DDE JUMPI JUMPDEST PUSH1 0x1F DUP4 ADD PUSH1 0x5 SHR DUP3 ADD DUP2 LT PUSH2 0x1DD2 JUMPI POP POP PUSH2 0xA24 JUMP JUMPDEST PUSH1 0x0 DUP2 SSTORE PUSH1 0x1 ADD PUSH2 0x1DBC JUMP JUMPDEST POP DUP1 PUSH2 0x1DBC JUMP JUMPDEST PUSH1 0x40 MLOAD PUSH3 0x461BCD PUSH1 0xE5 SHL DUP2 MSTORE PUSH1 0x20 PUSH1 0x4 DUP3 ADD MSTORE PUSH1 0xB PUSH1 0x24 DUP3 ADD MSTORE PUSH11 0x139BDD081CDD195DD85C99 PUSH1 0xAA SHL PUSH1 0x44 DUP3 ADD MSTORE PUSH1 0x64 SWAP1 REVERT JUMPDEST CALLVALUE PUSH2 0x397 JUMPI PUSH1 0x20 CALLDATASIZE PUSH1 0x3 NOT ADD SLT PUSH2 0x397 JUMPI PUSH1 0x4 CALLDATALOAD PUSH1 0x2 SLOAD DUP2 LT ISZERO PUSH2 0x397 JUMPI PUSH2 0x1E41 PUSH1 0x20 SWAP2 PUSH2 0x1E5A JUMP JUMPDEST SWAP1 SLOAD PUSH1 0x40 MLOAD PUSH1 0x3 SWAP3 SWAP1 SWAP3 SHL SHR PUSH1 0x1 PUSH1 0x1 PUSH1 0xA0 SHL SUB AND DUP2 MSTORE RETURN JUMPDEST PUSH1 0x2 SLOAD DUP2 LT ISZERO PUSH2 0x1E91 JUMPI PUSH1 0x2 PUSH1 0x0 MSTORE PUSH32 0x405787FA12A823E0F2B7631CC41B3BA8828B3321CA811111FA75CD3AA3BB5ACE ADD SWAP1 PUSH1 0x0 SWAP1 JUMP JUMPDEST PUSH4 0x4E487B71 PUSH1 0xE0 SHL PUSH1 0x0 MSTORE PUSH1 0x32 PUSH1 0x4 MSTORE PUSH1 0x24 PUSH1 0x0 REVERT JUMPDEST PUSH1 0x4 CALLDATALOAD SWAP1 PUSH1 0x1 PUSH1 0x1 PUSH1 0xA0 SHL SUB DUP3 AND DUP3 SUB PUSH2 0x397 JUMPI JUMP JUMPDEST SWAP2 DUP2 PUSH1 0x1F DUP5 ADD SLT ISZERO PUSH2 0x397 JUMPI DUP3 CALLDATALOAD SWAP2 PUSH1 0x1 PUSH1 0x1 PUSH1 0x40 SHL SUB DUP4 GT PUSH2 0x397 JUMPI PUSH1 0x20 DUP4 DUP2 DUP7 ADD SWAP6 ADD ADD GT PUSH2 0x397 JUMPI JUMP JUMPDEST SWAP1 PUSH1 0x1 DUP3 DUP2 SHR SWAP3 AND DUP1 ISZERO PUSH2 0x1F1A JUMPI JUMPDEST PUSH1 0x20 DUP4 LT EQ PUSH2 0x1F04 JUMPI JUMP JUMPDEST PUSH4 0x4E487B71 PUSH1 0xE0 SHL PUSH1 0x0 MSTORE PUSH1 0x22 PUSH1 0x4 MSTORE PUSH1 0x24 PUSH1 0x0 REVERT JUMPDEST SWAP2 PUSH1 0x7F AND SWAP2 PUSH2 0x1EF9 JUMP JUMPDEST PUSH2 0x1E0 DUP2 ADD SWAP1 DUP2 LT PUSH1 0x1 PUSH1 0x1 PUSH1 0x40 SHL SUB DUP3 GT OR PUSH2 0x11CB JUMPI PUSH1 0x40 MSTORE JUMP JUMPDEST SWAP1 PUSH1 0x1F DUP1 NOT SWAP2 ADD AND DUP2 ADD SWAP1 DUP2 LT PUSH1 0x1 PUSH1 0x1 PUSH1 0x40 SHL SUB DUP3 GT OR PUSH2 0x11CB JUMPI PUSH1 0x40 MSTORE JUMP JUMPDEST SWAP1 PUSH1 0x40 MLOAD SWAP2 DUP3 PUSH1 0x0 DUP3 SLOAD SWAP3 PUSH2 0x1F75 DUP5 PUSH2 0x1EEA JUMP JUMPDEST SWAP1 DUP2 DUP5 MSTORE PUSH1 0x1 SWAP5 DUP6 DUP2 AND SWAP1 DUP2 PUSH1 0x0 EQ PUSH2 0x1FE4 JUMPI POP PUSH1 0x1 EQ PUSH2 0x1FA1 JUMPI JUMPDEST POP POP PUSH2 0x1F9F SWAP3 POP SUB DUP4 PUSH2 0x1F40 JUMP JUMPDEST JUMP JUMPDEST SWAP1 SWAP4 SWAP2 POP PUSH1 0x0 MSTORE PUSH1 0x20 SWAP1 DUP2 PUSH1 0x0 KECCAK256 SWAP4 PUSH1 0x0 SWAP2 JUMPDEST DUP2 DUP4 LT PUSH2 0x1FCC JUMPI POP POP PUSH2 0x1F9F SWAP4 POP DUP3 ADD ADD CODESIZE DUP1 PUSH2 0x1F91 JUMP JUMPDEST DUP6 SLOAD DUP9 DUP5 ADD DUP6 ADD MSTORE SWAP5 DUP6 ADD SWAP5 DUP8 SWAP5 POP SWAP2 DUP4 ADD SWAP2 PUSH2 0x1FB4 JUMP JUMPDEST SWAP2 POP POP PUSH2 0x1F9F SWAP5 POP PUSH1 0x20 SWAP3 POP PUSH1 0xFF NOT AND DUP3 DUP5 ADD MSTORE ISZERO ISZERO PUSH1 0x5 SHL DUP3 ADD ADD CODESIZE DUP1 PUSH2 0x1F91 JUMP JUMPDEST SWAP2 SWAP1 DUP3 MLOAD SWAP3 DUP4 DUP3 MSTORE PUSH1 0x0 JUMPDEST DUP5 DUP2 LT PUSH2 0x2033 JUMPI POP POP DUP3 PUSH1 0x0 PUSH1 0x20 DUP1 SWAP5 SWAP6 DUP5 ADD ADD MSTORE PUSH1 0x1F DUP1 NOT SWAP2 ADD AND ADD ADD SWAP1 JUMP JUMPDEST PUSH1 0x20 DUP2 DUP4 ADD DUP2 ADD MLOAD DUP5 DUP4 ADD DUP3 ADD MSTORE ADD PUSH2 0x2012 JUMP JUMPDEST SWAP3 SWAP2 SWAP3 PUSH1 0x1 PUSH1 0x1 PUSH1 0x40 SHL SUB DUP3 GT PUSH2 0x11CB JUMPI PUSH1 0x40 MLOAD SWAP2 PUSH2 0x2070 PUSH1 0x1F DUP3 ADD PUSH1 0x1F NOT AND PUSH1 0x20 ADD DUP5 PUSH2 0x1F40 JUMP JUMPDEST DUP3 SWAP5 DUP2 DUP5 MSTORE DUP2 DUP4 ADD GT PUSH2 0x397 JUMPI DUP3 DUP2 PUSH1 0x20 SWAP4 DUP5 PUSH1 0x0 SWAP7 ADD CALLDATACOPY ADD ADD MSTORE JUMP JUMPDEST SWAP1 DUP1 PUSH1 0x20 SWAP4 SWAP3 DUP2 DUP5 MSTORE DUP5 DUP5 ADD CALLDATACOPY PUSH1 0x0 DUP3 DUP3 ADD DUP5 ADD MSTORE PUSH1 0x1F ADD PUSH1 0x1F NOT AND ADD ADD SWAP1 JUMP INVALID LOG2 PUSH5 0x6970667358 0x22 SLT KECCAK256 0xE5 NUMBER 0xDB DUP5 GT 0x4C GASPRICE MSIZE PUSH8 0x9B85A9BF778DB5DC 0xEC CREATE PUSH7 0xF93D9D7C409964 PUSH10 0x8FA36EC664736F6C6343 STOP ADDMOD EQ STOP CALLER "},"methodIdentifiers":{"companions(address)":"47854b87","getCompanion(address)":"ef652737","keys(uint256)":"0cb6aaf1","steward()":"637eea19","summonCompanion(address,string,string,string,string,string,string,string,string,string,string,string,string,string,string,string)":"45f0e3d2","totalCompanions()":"ec39f18f"}}}}}