{"contracts/manifest/TerrainCompanionDrift.sol":{"TerrainCompanionDrift":{"abi":[{"inputs":[],"stateMutability":"nonpayable","type":"constructor"},{"anonymous":false,"inputs":[{"indexed":false,"internalType":"string","name":"glyph","type":"string"},{"indexed":false,"internalType":"string","name":"companionType","type":"string"},{"indexed":false,"internalType":"string","name":"driftType","type":"string"},{"indexed":false,"internalType":"string","name":"sanctum","type":"string"},{"indexed":false,"internalType":"string","name":"choreography","type":"string"},{"indexed":false,"internalType":"string","name":"chant","type":"string"}],"name":"CompanionDriftRouted","type":"event"},{"inputs":[{"internalType":"string","name":"glyph","type":"string"}],"name":"getRoute","outputs":[{"components":[{"internalType":"string","name":"glyph","type":"string"},{"internalType":"string","name":"companionType","type":"string"},{"internalType":"string","name":"driftType","type":"string"},{"internalType":"string","name":"sanctum","type":"string"},{"internalType":"string","name":"choreography","type":"string"},{"internalType":"string","name":"chant","type":"string"}],"internalType":"struct TerrainCompanionDrift.Route","name":"","type":"tuple"}],"stateMutability":"view","type":"function"},{"inputs":[{"internalType":"uint256","name":"","type":"uint256"}],"name":"keys","outputs":[{"internalType":"string","name":"","type":"string"}],"stateMutability":"view","type":"function"},{"inputs":[{"internalType":"string","name":"glyph","type":"string"},{"internalType":"string","name":"companionType","type":"string"},{"internalType":"string","name":"driftType","type":"string"},{"internalType":"string","name":"sanctum","type":"string"},{"internalType":"string","name":"choreography","type":"string"},{"internalType":"string","name":"chant","type":"string"}],"name":"routeCompanionDrift","outputs":[],"stateMutability":"nonpayable","type":"function"},{"inputs":[{"internalType":"string","name":"","type":"string"}],"name":"routes","outputs":[{"internalType":"string","name":"glyph","type":"string"},{"internalType":"string","name":"companionType","type":"string"},{"internalType":"string","name":"driftType","type":"string"},{"internalType":"string","name":"sanctum","type":"string"},{"internalType":"string","name":"choreography","type":"string"},{"internalType":"string","name":"chant","type":"string"}],"stateMutability":"view","type":"function"},{"inputs":[],"name":"steward","outputs":[{"internalType":"address","name":"","type":"address"}],"stateMutability":"view","type":"function"},{"inputs":[],"name":"totalRoutes","outputs":[{"internalType":"uint256","name":"","type":"uint256"}],"stateMutability":"view","type":"function"}],"evm":{"bytecode":{"linkReferences":{},"object":"6080806040523461002857600080546001600160a01b03191633179055610ec5908161002e8239f35b600080fdfe60a080604052600436101561001357600080fd5b60003560e01c90816305a2d3ac14610bdb575080630cb6aaf114610b905780631b5f03a614610a16578063637eea19146109ed5780636ccfb1e7146101825763cffbffb51461006157600080fd5b3461017d57602036600319011261017d576004356001600160401b03811161017d573660238201121561017d576100bd60206100aa610133933690602481600401359101610dd4565b8160405193828580945193849201610d5f565b810160018152030190206101796100d382610cb9565b9161016b6100e360018301610cb9565b9161015d6100f360028301610cb9565b61014f61010260038501610cb9565b9161014161011e600561011760048901610cb9565b9701610cb9565b976040519b8c9b60c08d5260c08d0190610d82565b908b820360208d0152610d82565b9089820360408b0152610d82565b908782036060890152610d82565b908582036080870152610d82565b9083820360a0850152610d82565b0390f35b600080fd5b3461017d5760c036600319011261017d576004356001600160401b03811161017d576101b2903690600401610da7565b906080526024356001600160401b03811161017d576101d5903690600401610da7565b91906044356001600160401b03811161017d576101f6903690600401610da7565b906064356001600160401b03811161017d57610216903690600401610da7565b906084356001600160401b03811161017d57610236903690600401610da7565b92909360a4356001600160401b03811161017d57610258903690600401610da7565b60005491989097916001600160a01b031633036109ba5760405161027b81610c7d565b610288368c608051610dd4565b8152610295368d84610dd4565b60208201526102a5368486610dd4565b60408201526102b5368688610dd4565b60608201526102c536888a610dd4565b60808201526102d5368a8c610dd4565b60a08201526040518b60805182376020818d810160018152030190209080518051906001600160401b0382116106b057819061031b826103158754610c43565b87610e1a565b602090601f831160011461094e57600092610943575b50508160011b916000199060031b1c19161782555b60208101518051906001600160401b0382116106b05781906103788261036f6001880154610c43565b60018801610e1a565b602090601f83116001146108d1576000926108c6575b50508160011b916000199060031b1c19161760018301555b60408101518051906001600160401b0382116106b05781906103d8826103cf6002880154610c43565b60028801610e1a565b602090601f831160011461085457600092610849575b50508160011b916000199060031b1c19161760028301555b60608101518051906001600160401b0382116106b05781906104388261042f6003880154610c43565b60038801610e1a565b602090601f83116001146107d7576000926107cc575b50508160011b916000199060031b1c19161760038301555b608081015180516001600160401b0381116106b05760048401916104948261048e8554610c43565b85610e1a565b602090601f83116001146107605760a09493929160009183610755575b50508160011b916000199060031b1c19161790555b01518051906001600160401b0382116106b0576104f3826104ea6005860154610c43565b60058601610e1a565b602090601f83116001146106e75760059291600091836106dc575b50508160011b916000199060031b1c1916179101555b600254680100000000000000008110156106b0578060016105489201600255610bf6565b6106c6576001600160401b038b116106b05761056e8b6105688354610c43565b83610e1a565b8a6000601f821160011461064057600091610633575b508b60011b906000198d60031b1c19161790555b6040519a8b9a60c08c5260c08c01608051916105b392610e6e565b908b820360208d01526105c592610e6e565b9089820360408b01526105d792610e6e565b9087820360608901526105e992610e6e565b9085820360808701526105fb92610e6e565b9083820360a085015261060d92610e6e565b037f5414a46c4ba3f18e14ca3d019c7e76c871eeae3242919c022f52810d9e45a2b091a1005b905060805101358d610584565b9050816000528b6020600020916000608051925b601f198116821061069657601f19811610905061067c575b50505060018b811b019055610598565b013560001960038e901b60f8161c191690558c808061066c565b909193602060018192878701358155019501920190610654565b634e487b7160e01b600052604160045260246000fd5b634e487b7160e01b600052600060045260246000fd5b015190508f8061050e565b90601f198316916005850160005260206000209260005b81811061073d57509160019391856005969410610724575b505050811b01910155610524565b015160001960f88460031b161c191690558f8080610716565b929360206001819287860151815501950193016106fe565b0151905038806104b1565b90601f198316918460005260206000209260005b8181106107b4575091600193918560a0989796941061079b575b505050811b0190556104c6565b015160001960f88460031b161c1916905538808061078e565b92936020600181928786015181550195019301610774565b015190508f8061044e565b9250600385016000526020600020906000935b601f198416851061082e576001945083601f19811610610815575b505050811b016003830155610466565b015160001960f88460031b161c191690558f8080610805565b818101518355602094850194600190930192909101906107ea565b015190508f806103ee565b9250600285016000526020600020906000935b601f19841685106108ab576001945083601f19811610610892575b505050811b016002830155610406565b015160001960f88460031b161c191690558f8080610882565b81810151835560209485019460019093019290910190610867565b015190508f8061038e565b9250600185016000526020600020906000935b601f1984168510610928576001945083601f1981161061090f575b505050811b0160018301556103a6565b015160001960f88460031b161c191690558f80806108ff565b818101518355602094850194600190930192909101906108e4565b015190508f80610331565b9250846000526020600020906000935b601f198416851061099f576001945083601f19811610610986575b505050811b018255610346565b015160001960f88460031b161c191690558f8080610979565b8181015183556020948501946001909301929091019061095e565b60405162461bcd60e51b815260206004820152600b60248201526a139bdd081cdd195dd85c9960aa1b6044820152606490fd5b3461017d57600036600319011261017d576000546040516001600160a01b039091168152602090f35b3461017d5760208060031936011261017d576004356001600160401b03811161017d57610a47903690600401610da7565b8260405192610a5584610c7d565b606084818096528184820152816040820152818082015281608082015260a001528260405193849283378101600181520301902060405191610a9683610c7d565b610a9f82610cb9565b8352610aad60018301610cb9565b83850190815291610ac060028201610cb9565b6040850190815291610ad460038301610cb9565b85820190815290610ae760048401610cb9565b9260808701938452600501610afb90610cb9565b9360a087019485526040519788978189525190880160c0905260e08801610b2191610d82565b9551601f1996878982030160408a0152610b3a91610d82565b905191868883030190880152610b4f91610d82565b90519084868203016080870152610b6591610d82565b905190838582030160a0860152610b7b91610d82565b9051918382030160c084015261017991610d82565b3461017d57602036600319011261017d5760043560025481101561017d57610bb790610bf6565b6106c657610bc761017991610cb9565b604051918291602083526020830190610d82565b3461017d57600036600319011261017d576020906002548152f35b600254811015610c2d5760026000527f405787fa12a823e0f2b7631cc41b3ba8828b3321ca811111fa75cd3aa3bb5ace0190600090565b634e487b7160e01b600052603260045260246000fd5b90600182811c92168015610c73575b6020831014610c5d57565b634e487b7160e01b600052602260045260246000fd5b91607f1691610c52565b60c081019081106001600160401b038211176106b057604052565b90601f801991011681019081106001600160401b038211176106b057604052565b9060405191826000825492610ccd84610c43565b908184526001948581169081600014610d3c5750600114610cf9575b5050610cf792500383610c98565b565b9093915060005260209081600020936000915b818310610d24575050610cf793508201013880610ce9565b85548884018501529485019487945091830191610d0c565b915050610cf794506020925060ff191682840152151560051b8201013880610ce9565b60005b838110610d725750506000910152565b8181015183820152602001610d62565b90602091610d9b81518092818552858086019101610d5f565b601f01601f1916010190565b9181601f8401121561017d578235916001600160401b03831161017d576020838186019501011161017d57565b9291926001600160401b0382116106b05760405191610dfd601f8201601f191660200184610c98565b82948184528183011161017d578281602093846000960137010152565b90601f8111610e2857505050565b600091825260208220906020601f850160051c83019410610e64575b601f0160051c01915b828110610e5957505050565b818155600101610e4d565b9092508290610e44565b908060209392818452848401376000828201840152601f01601f191601019056fea26469706673582212207c23eb0fe5d068a0a2be69148590cdbe3e962a4a2a72e02c7c93d61833f3c62c64736f6c63430008140033","opcodes":"PUSH1 0x80 DUP1 PUSH1 0x40 MSTORE CALLVALUE PUSH2 0x28 JUMPI PUSH1 0x0 DUP1 SLOAD PUSH1 0x1 PUSH1 0x1 PUSH1 0xA0 SHL SUB NOT AND CALLER OR SWAP1 SSTORE PUSH2 0xEC5 SWAP1 DUP2 PUSH2 0x2E DUP3 CODECOPY RETURN JUMPDEST PUSH1 0x0 DUP1 REVERT INVALID PUSH1 0xA0 DUP1 PUSH1 0x40 MSTORE PUSH1 0x4 CALLDATASIZE LT ISZERO PUSH2 0x13 JUMPI PUSH1 0x0 DUP1 REVERT JUMPDEST PUSH1 0x0 CALLDATALOAD PUSH1 0xE0 SHR SWAP1 DUP2 PUSH4 0x5A2D3AC EQ PUSH2 0xBDB JUMPI POP DUP1 PUSH4 0xCB6AAF1 EQ PUSH2 0xB90 JUMPI DUP1 PUSH4 0x1B5F03A6 EQ PUSH2 0xA16 JUMPI DUP1 PUSH4 0x637EEA19 EQ PUSH2 0x9ED JUMPI DUP1 PUSH4 0x6CCFB1E7 EQ PUSH2 0x182 JUMPI PUSH4 0xCFFBFFB5 EQ PUSH2 0x61 JUMPI PUSH1 0x0 DUP1 REVERT JUMPDEST CALLVALUE PUSH2 0x17D JUMPI PUSH1 0x20 CALLDATASIZE PUSH1 0x3 NOT ADD SLT PUSH2 0x17D JUMPI PUSH1 0x4 CALLDATALOAD PUSH1 0x1 PUSH1 0x1 PUSH1 0x40 SHL SUB DUP2 GT PUSH2 0x17D JUMPI CALLDATASIZE PUSH1 0x23 DUP3 ADD SLT ISZERO PUSH2 0x17D JUMPI PUSH2 0xBD PUSH1 0x20 PUSH2 0xAA PUSH2 0x133 SWAP4 CALLDATASIZE SWAP1 PUSH1 0x24 DUP2 PUSH1 0x4 ADD CALLDATALOAD SWAP2 ADD PUSH2 0xDD4 JUMP JUMPDEST DUP2 PUSH1 0x40 MLOAD SWAP4 DUP3 DUP6 DUP1 SWAP5 MLOAD SWAP4 DUP5 SWAP3 ADD PUSH2 0xD5F JUMP JUMPDEST DUP2 ADD PUSH1 0x1 DUP2 MSTORE SUB ADD SWAP1 KECCAK256 PUSH2 0x179 PUSH2 0xD3 DUP3 PUSH2 0xCB9 JUMP JUMPDEST SWAP2 PUSH2 0x16B PUSH2 0xE3 PUSH1 0x1 DUP4 ADD PUSH2 0xCB9 JUMP JUMPDEST SWAP2 PUSH2 0x15D PUSH2 0xF3 PUSH1 0x2 DUP4 ADD PUSH2 0xCB9 JUMP JUMPDEST PUSH2 0x14F PUSH2 0x102 PUSH1 0x3 DUP6 ADD PUSH2 0xCB9 JUMP JUMPDEST SWAP2 PUSH2 0x141 PUSH2 0x11E PUSH1 0x5 PUSH2 0x117 PUSH1 0x4 DUP10 ADD PUSH2 0xCB9 JUMP JUMPDEST SWAP8 ADD PUSH2 0xCB9 JUMP JUMPDEST SWAP8 PUSH1 0x40 MLOAD SWAP12 DUP13 SWAP12 PUSH1 0xC0 DUP14 MSTORE PUSH1 0xC0 DUP14 ADD SWAP1 PUSH2 0xD82 JUMP JUMPDEST SWAP1 DUP12 DUP3 SUB PUSH1 0x20 DUP14 ADD MSTORE PUSH2 0xD82 JUMP JUMPDEST SWAP1 DUP10 DUP3 SUB PUSH1 0x40 DUP12 ADD MSTORE PUSH2 0xD82 JUMP JUMPDEST SWAP1 DUP8 DUP3 SUB PUSH1 0x60 DUP10 ADD MSTORE PUSH2 0xD82 JUMP JUMPDEST SWAP1 DUP6 DUP3 SUB PUSH1 0x80 DUP8 ADD MSTORE PUSH2 0xD82 JUMP JUMPDEST SWAP1 DUP4 DUP3 SUB PUSH1 0xA0 DUP6 ADD MSTORE PUSH2 0xD82 JUMP JUMPDEST SUB SWAP1 RETURN JUMPDEST PUSH1 0x0 DUP1 REVERT JUMPDEST CALLVALUE PUSH2 0x17D JUMPI PUSH1 0xC0 CALLDATASIZE PUSH1 0x3 NOT ADD SLT PUSH2 0x17D JUMPI PUSH1 0x4 CALLDATALOAD PUSH1 0x1 PUSH1 0x1 PUSH1 0x40 SHL SUB DUP2 GT PUSH2 0x17D JUMPI PUSH2 0x1B2 SWAP1 CALLDATASIZE SWAP1 PUSH1 0x4 ADD PUSH2 0xDA7 JUMP JUMPDEST SWAP1 PUSH1 0x80 MSTORE PUSH1 0x24 CALLDATALOAD PUSH1 0x1 PUSH1 0x1 PUSH1 0x40 SHL SUB DUP2 GT PUSH2 0x17D JUMPI PUSH2 0x1D5 SWAP1 CALLDATASIZE SWAP1 PUSH1 0x4 ADD PUSH2 0xDA7 JUMP JUMPDEST SWAP2 SWAP1 PUSH1 0x44 CALLDATALOAD PUSH1 0x1 PUSH1 0x1 PUSH1 0x40 SHL SUB DUP2 GT PUSH2 0x17D JUMPI PUSH2 0x1F6 SWAP1 CALLDATASIZE SWAP1 PUSH1 0x4 ADD PUSH2 0xDA7 JUMP JUMPDEST SWAP1 PUSH1 0x64 CALLDATALOAD PUSH1 0x1 PUSH1 0x1 PUSH1 0x40 SHL SUB DUP2 GT PUSH2 0x17D JUMPI PUSH2 0x216 SWAP1 CALLDATASIZE SWAP1 PUSH1 0x4 ADD PUSH2 0xDA7 JUMP JUMPDEST SWAP1 PUSH1 0x84 CALLDATALOAD PUSH1 0x1 PUSH1 0x1 PUSH1 0x40 SHL SUB DUP2 GT PUSH2 0x17D JUMPI PUSH2 0x236 SWAP1 CALLDATASIZE SWAP1 PUSH1 0x4 ADD PUSH2 0xDA7 JUMP JUMPDEST SWAP3 SWAP1 SWAP4 PUSH1 0xA4 CALLDATALOAD PUSH1 0x1 PUSH1 0x1 PUSH1 0x40 SHL SUB DUP2 GT PUSH2 0x17D JUMPI PUSH2 0x258 SWAP1 CALLDATASIZE SWAP1 PUSH1 0x4 ADD PUSH2 0xDA7 JUMP JUMPDEST PUSH1 0x0 SLOAD SWAP2 SWAP9 SWAP1 SWAP8 SWAP2 PUSH1 0x1 PUSH1 0x1 PUSH1 0xA0 SHL SUB AND CALLER SUB PUSH2 0x9BA JUMPI PUSH1 0x40 MLOAD PUSH2 0x27B DUP2 PUSH2 0xC7D JUMP JUMPDEST PUSH2 0x288 CALLDATASIZE DUP13 PUSH1 0x80 MLOAD PUSH2 0xDD4 JUMP JUMPDEST DUP2 MSTORE PUSH2 0x295 CALLDATASIZE DUP14 DUP5 PUSH2 0xDD4 JUMP JUMPDEST PUSH1 0x20 DUP3 ADD MSTORE PUSH2 0x2A5 CALLDATASIZE DUP5 DUP7 PUSH2 0xDD4 JUMP JUMPDEST PUSH1 0x40 DUP3 ADD MSTORE PUSH2 0x2B5 CALLDATASIZE DUP7 DUP9 PUSH2 0xDD4 JUMP JUMPDEST PUSH1 0x60 DUP3 ADD MSTORE PUSH2 0x2C5 CALLDATASIZE DUP9 DUP11 PUSH2 0xDD4 JUMP JUMPDEST PUSH1 0x80 DUP3 ADD MSTORE PUSH2 0x2D5 CALLDATASIZE DUP11 DUP13 PUSH2 0xDD4 JUMP JUMPDEST PUSH1 0xA0 DUP3 ADD MSTORE PUSH1 0x40 MLOAD DUP12 PUSH1 0x80 MLOAD DUP3 CALLDATACOPY PUSH1 0x20 DUP2 DUP14 DUP2 ADD PUSH1 0x1 DUP2 MSTORE SUB ADD SWAP1 KECCAK256 SWAP1 DUP1 MLOAD DUP1 MLOAD SWAP1 PUSH1 0x1 PUSH1 0x1 PUSH1 0x40 SHL SUB DUP3 GT PUSH2 0x6B0 JUMPI DUP2 SWAP1 PUSH2 0x31B DUP3 PUSH2 0x315 DUP8 SLOAD PUSH2 0xC43 JUMP JUMPDEST DUP8 PUSH2 0xE1A JUMP JUMPDEST PUSH1 0x20 SWAP1 PUSH1 0x1F DUP4 GT PUSH1 0x1 EQ PUSH2 0x94E JUMPI PUSH1 0x0 SWAP3 PUSH2 0x943 JUMPI JUMPDEST POP POP DUP2 PUSH1 0x1 SHL SWAP2 PUSH1 0x0 NOT SWAP1 PUSH1 0x3 SHL SHR NOT AND OR DUP3 SSTORE JUMPDEST PUSH1 0x20 DUP2 ADD MLOAD DUP1 MLOAD SWAP1 PUSH1 0x1 PUSH1 0x1 PUSH1 0x40 SHL SUB DUP3 GT PUSH2 0x6B0 JUMPI DUP2 SWAP1 PUSH2 0x378 DUP3 PUSH2 0x36F PUSH1 0x1 DUP9 ADD SLOAD PUSH2 0xC43 JUMP JUMPDEST PUSH1 0x1 DUP9 ADD PUSH2 0xE1A JUMP JUMPDEST PUSH1 0x20 SWAP1 PUSH1 0x1F DUP4 GT PUSH1 0x1 EQ PUSH2 0x8D1 JUMPI PUSH1 0x0 SWAP3 PUSH2 0x8C6 JUMPI JUMPDEST POP POP DUP2 PUSH1 0x1 SHL SWAP2 PUSH1 0x0 NOT SWAP1 PUSH1 0x3 SHL SHR NOT AND OR PUSH1 0x1 DUP4 ADD SSTORE JUMPDEST PUSH1 0x40 DUP2 ADD MLOAD DUP1 MLOAD SWAP1 PUSH1 0x1 PUSH1 0x1 PUSH1 0x40 SHL SUB DUP3 GT PUSH2 0x6B0 JUMPI DUP2 SWAP1 PUSH2 0x3D8 DUP3 PUSH2 0x3CF PUSH1 0x2 DUP9 ADD SLOAD PUSH2 0xC43 JUMP JUMPDEST PUSH1 0x2 DUP9 ADD PUSH2 0xE1A JUMP JUMPDEST PUSH1 0x20 SWAP1 PUSH1 0x1F DUP4 GT PUSH1 0x1 EQ PUSH2 0x854 JUMPI PUSH1 0x0 SWAP3 PUSH2 0x849 JUMPI JUMPDEST POP POP DUP2 PUSH1 0x1 SHL SWAP2 PUSH1 0x0 NOT SWAP1 PUSH1 0x3 SHL SHR NOT AND OR PUSH1 0x2 DUP4 ADD SSTORE JUMPDEST PUSH1 0x60 DUP2 ADD MLOAD DUP1 MLOAD SWAP1 PUSH1 0x1 PUSH1 0x1 PUSH1 0x40 SHL SUB DUP3 GT PUSH2 0x6B0 JUMPI DUP2 SWAP1 PUSH2 0x438 DUP3 PUSH2 0x42F PUSH1 0x3 DUP9 ADD SLOAD PUSH2 0xC43 JUMP JUMPDEST PUSH1 0x3 DUP9 ADD PUSH2 0xE1A JUMP JUMPDEST PUSH1 0x20 SWAP1 PUSH1 0x1F DUP4 GT PUSH1 0x1 EQ PUSH2 0x7D7 JUMPI PUSH1 0x0 SWAP3 PUSH2 0x7CC JUMPI JUMPDEST POP POP DUP2 PUSH1 0x1 SHL SWAP2 PUSH1 0x0 NOT SWAP1 PUSH1 0x3 SHL SHR NOT AND OR PUSH1 0x3 DUP4 ADD SSTORE JUMPDEST PUSH1 0x80 DUP2 ADD MLOAD DUP1 MLOAD PUSH1 0x1 PUSH1 0x1 PUSH1 0x40 SHL SUB DUP2 GT PUSH2 0x6B0 JUMPI PUSH1 0x4 DUP5 ADD SWAP2 PUSH2 0x494 DUP3 PUSH2 0x48E DUP6 SLOAD PUSH2 0xC43 JUMP JUMPDEST DUP6 PUSH2 0xE1A JUMP JUMPDEST PUSH1 0x20 SWAP1 PUSH1 0x1F DUP4 GT PUSH1 0x1 EQ PUSH2 0x760 JUMPI PUSH1 0xA0 SWAP5 SWAP4 SWAP3 SWAP2 PUSH1 0x0 SWAP2 DUP4 PUSH2 0x755 JUMPI JUMPDEST POP POP DUP2 PUSH1 0x1 SHL SWAP2 PUSH1 0x0 NOT SWAP1 PUSH1 0x3 SHL SHR NOT AND OR SWAP1 SSTORE JUMPDEST ADD MLOAD DUP1 MLOAD SWAP1 PUSH1 0x1 PUSH1 0x1 PUSH1 0x40 SHL SUB DUP3 GT PUSH2 0x6B0 JUMPI PUSH2 0x4F3 DUP3 PUSH2 0x4EA PUSH1 0x5 DUP7 ADD SLOAD PUSH2 0xC43 JUMP JUMPDEST PUSH1 0x5 DUP7 ADD PUSH2 0xE1A JUMP JUMPDEST PUSH1 0x20 SWAP1 PUSH1 0x1F DUP4 GT PUSH1 0x1 EQ PUSH2 0x6E7 JUMPI PUSH1 0x5 SWAP3 SWAP2 PUSH1 0x0 SWAP2 DUP4 PUSH2 0x6DC JUMPI JUMPDEST POP POP DUP2 PUSH1 0x1 SHL SWAP2 PUSH1 0x0 NOT SWAP1 PUSH1 0x3 SHL SHR NOT AND OR SWAP2 ADD SSTORE JUMPDEST PUSH1 0x2 SLOAD PUSH9 0x10000000000000000 DUP2 LT ISZERO PUSH2 0x6B0 JUMPI DUP1 PUSH1 0x1 PUSH2 0x548 SWAP3 ADD PUSH1 0x2 SSTORE PUSH2 0xBF6 JUMP JUMPDEST PUSH2 0x6C6 JUMPI PUSH1 0x1 PUSH1 0x1 PUSH1 0x40 SHL SUB DUP12 GT PUSH2 0x6B0 JUMPI PUSH2 0x56E DUP12 PUSH2 0x568 DUP4 SLOAD PUSH2 0xC43 JUMP JUMPDEST DUP4 PUSH2 0xE1A JUMP JUMPDEST DUP11 PUSH1 0x0 PUSH1 0x1F DUP3 GT PUSH1 0x1 EQ PUSH2 0x640 JUMPI PUSH1 0x0 SWAP2 PUSH2 0x633 JUMPI JUMPDEST POP DUP12 PUSH1 0x1 SHL SWAP1 PUSH1 0x0 NOT DUP14 PUSH1 0x3 SHL SHR NOT AND OR SWAP1 SSTORE JUMPDEST PUSH1 0x40 MLOAD SWAP11 DUP12 SWAP11 PUSH1 0xC0 DUP13 MSTORE PUSH1 0xC0 DUP13 ADD PUSH1 0x80 MLOAD SWAP2 PUSH2 0x5B3 SWAP3 PUSH2 0xE6E JUMP JUMPDEST SWAP1 DUP12 DUP3 SUB PUSH1 0x20 DUP14 ADD MSTORE PUSH2 0x5C5 SWAP3 PUSH2 0xE6E JUMP JUMPDEST SWAP1 DUP10 DUP3 SUB PUSH1 0x40 DUP12 ADD MSTORE PUSH2 0x5D7 SWAP3 PUSH2 0xE6E JUMP JUMPDEST SWAP1 DUP8 DUP3 SUB PUSH1 0x60 DUP10 ADD MSTORE PUSH2 0x5E9 SWAP3 PUSH2 0xE6E JUMP JUMPDEST SWAP1 DUP6 DUP3 SUB PUSH1 0x80 DUP8 ADD MSTORE PUSH2 0x5FB SWAP3 PUSH2 0xE6E JUMP JUMPDEST SWAP1 DUP4 DUP3 SUB PUSH1 0xA0 DUP6 ADD MSTORE PUSH2 0x60D SWAP3 PUSH2 0xE6E JUMP JUMPDEST SUB PUSH32 0x5414A46C4BA3F18E14CA3D019C7E76C871EEAE3242919C022F52810D9E45A2B0 SWAP2 LOG1 STOP JUMPDEST SWAP1 POP PUSH1 0x80 MLOAD ADD CALLDATALOAD DUP14 PUSH2 0x584 JUMP JUMPDEST SWAP1 POP DUP2 PUSH1 0x0 MSTORE DUP12 PUSH1 0x20 PUSH1 0x0 KECCAK256 SWAP2 PUSH1 0x0 PUSH1 0x80 MLOAD SWAP3 JUMPDEST PUSH1 0x1F NOT DUP2 AND DUP3 LT PUSH2 0x696 JUMPI PUSH1 0x1F NOT DUP2 AND LT SWAP1 POP PUSH2 0x67C JUMPI JUMPDEST POP POP POP PUSH1 0x1 DUP12 DUP2 SHL ADD SWAP1 SSTORE PUSH2 0x598 JUMP JUMPDEST ADD CALLDATALOAD PUSH1 0x0 NOT PUSH1 0x3 DUP15 SWAP1 SHL PUSH1 0xF8 AND SHR NOT AND SWAP1 SSTORE DUP13 DUP1 DUP1 PUSH2 0x66C JUMP JUMPDEST SWAP1 SWAP2 SWAP4 PUSH1 0x20 PUSH1 0x1 DUP2 SWAP3 DUP8 DUP8 ADD CALLDATALOAD DUP2 SSTORE ADD SWAP6 ADD SWAP3 ADD SWAP1 PUSH2 0x654 JUMP JUMPDEST PUSH4 0x4E487B71 PUSH1 0xE0 SHL PUSH1 0x0 MSTORE PUSH1 0x41 PUSH1 0x4 MSTORE PUSH1 0x24 PUSH1 0x0 REVERT JUMPDEST PUSH4 0x4E487B71 PUSH1 0xE0 SHL PUSH1 0x0 MSTORE PUSH1 0x0 PUSH1 0x4 MSTORE PUSH1 0x24 PUSH1 0x0 REVERT JUMPDEST ADD MLOAD SWAP1 POP DUP16 DUP1 PUSH2 0x50E JUMP JUMPDEST SWAP1 PUSH1 0x1F NOT DUP4 AND SWAP2 PUSH1 0x5 DUP6 ADD PUSH1 0x0 MSTORE PUSH1 0x20 PUSH1 0x0 KECCAK256 SWAP3 PUSH1 0x0 JUMPDEST DUP2 DUP2 LT PUSH2 0x73D JUMPI POP SWAP2 PUSH1 0x1 SWAP4 SWAP2 DUP6 PUSH1 0x5 SWAP7 SWAP5 LT PUSH2 0x724 JUMPI JUMPDEST POP POP POP DUP2 SHL ADD SWAP2 ADD SSTORE PUSH2 0x524 JUMP JUMPDEST ADD MLOAD PUSH1 0x0 NOT PUSH1 0xF8 DUP5 PUSH1 0x3 SHL AND SHR NOT AND SWAP1 SSTORE DUP16 DUP1 DUP1 PUSH2 0x716 JUMP JUMPDEST SWAP3 SWAP4 PUSH1 0x20 PUSH1 0x1 DUP2 SWAP3 DUP8 DUP7 ADD MLOAD DUP2 SSTORE ADD SWAP6 ADD SWAP4 ADD PUSH2 0x6FE JUMP JUMPDEST ADD MLOAD SWAP1 POP CODESIZE DUP1 PUSH2 0x4B1 JUMP JUMPDEST SWAP1 PUSH1 0x1F NOT DUP4 AND SWAP2 DUP5 PUSH1 0x0 MSTORE PUSH1 0x20 PUSH1 0x0 KECCAK256 SWAP3 PUSH1 0x0 JUMPDEST DUP2 DUP2 LT PUSH2 0x7B4 JUMPI POP SWAP2 PUSH1 0x1 SWAP4 SWAP2 DUP6 PUSH1 0xA0 SWAP9 SWAP8 SWAP7 SWAP5 LT PUSH2 0x79B JUMPI JUMPDEST POP POP POP DUP2 SHL ADD SWAP1 SSTORE PUSH2 0x4C6 JUMP JUMPDEST ADD MLOAD PUSH1 0x0 NOT PUSH1 0xF8 DUP5 PUSH1 0x3 SHL AND SHR NOT AND SWAP1 SSTORE CODESIZE DUP1 DUP1 PUSH2 0x78E JUMP JUMPDEST SWAP3 SWAP4 PUSH1 0x20 PUSH1 0x1 DUP2 SWAP3 DUP8 DUP7 ADD MLOAD DUP2 SSTORE ADD SWAP6 ADD SWAP4 ADD PUSH2 0x774 JUMP JUMPDEST ADD MLOAD SWAP1 POP DUP16 DUP1 PUSH2 0x44E JUMP JUMPDEST SWAP3 POP PUSH1 0x3 DUP6 ADD PUSH1 0x0 MSTORE PUSH1 0x20 PUSH1 0x0 KECCAK256 SWAP1 PUSH1 0x0 SWAP4 JUMPDEST PUSH1 0x1F NOT DUP5 AND DUP6 LT PUSH2 0x82E JUMPI PUSH1 0x1 SWAP5 POP DUP4 PUSH1 0x1F NOT DUP2 AND LT PUSH2 0x815 JUMPI JUMPDEST POP POP POP DUP2 SHL ADD PUSH1 0x3 DUP4 ADD SSTORE PUSH2 0x466 JUMP JUMPDEST ADD MLOAD PUSH1 0x0 NOT PUSH1 0xF8 DUP5 PUSH1 0x3 SHL AND SHR NOT AND SWAP1 SSTORE DUP16 DUP1 DUP1 PUSH2 0x805 JUMP JUMPDEST DUP2 DUP2 ADD MLOAD DUP4 SSTORE PUSH1 0x20 SWAP5 DUP6 ADD SWAP5 PUSH1 0x1 SWAP1 SWAP4 ADD SWAP3 SWAP1 SWAP2 ADD SWAP1 PUSH2 0x7EA JUMP JUMPDEST ADD MLOAD SWAP1 POP DUP16 DUP1 PUSH2 0x3EE JUMP JUMPDEST SWAP3 POP PUSH1 0x2 DUP6 ADD PUSH1 0x0 MSTORE PUSH1 0x20 PUSH1 0x0 KECCAK256 SWAP1 PUSH1 0x0 SWAP4 JUMPDEST PUSH1 0x1F NOT DUP5 AND DUP6 LT PUSH2 0x8AB JUMPI PUSH1 0x1 SWAP5 POP DUP4 PUSH1 0x1F NOT DUP2 AND LT PUSH2 0x892 JUMPI JUMPDEST POP POP POP DUP2 SHL ADD PUSH1 0x2 DUP4 ADD SSTORE PUSH2 0x406 JUMP JUMPDEST ADD MLOAD PUSH1 0x0 NOT PUSH1 0xF8 DUP5 PUSH1 0x3 SHL AND SHR NOT AND SWAP1 SSTORE DUP16 DUP1 DUP1 PUSH2 0x882 JUMP JUMPDEST DUP2 DUP2 ADD MLOAD DUP4 SSTORE PUSH1 0x20 SWAP5 DUP6 ADD SWAP5 PUSH1 0x1 SWAP1 SWAP4 ADD SWAP3 SWAP1 SWAP2 ADD SWAP1 PUSH2 0x867 JUMP JUMPDEST ADD MLOAD SWAP1 POP DUP16 DUP1 PUSH2 0x38E JUMP JUMPDEST SWAP3 POP PUSH1 0x1 DUP6 ADD PUSH1 0x0 MSTORE PUSH1 0x20 PUSH1 0x0 KECCAK256 SWAP1 PUSH1 0x0 SWAP4 JUMPDEST PUSH1 0x1F NOT DUP5 AND DUP6 LT PUSH2 0x928 JUMPI PUSH1 0x1 SWAP5 POP DUP4 PUSH1 0x1F NOT DUP2 AND LT PUSH2 0x90F JUMPI JUMPDEST POP POP POP DUP2 SHL ADD PUSH1 0x1 DUP4 ADD SSTORE PUSH2 0x3A6 JUMP JUMPDEST ADD MLOAD PUSH1 0x0 NOT PUSH1 0xF8 DUP5 PUSH1 0x3 SHL AND SHR NOT AND SWAP1 SSTORE DUP16 DUP1 DUP1 PUSH2 0x8FF JUMP JUMPDEST DUP2 DUP2 ADD MLOAD DUP4 SSTORE PUSH1 0x20 SWAP5 DUP6 ADD SWAP5 PUSH1 0x1 SWAP1 SWAP4 ADD SWAP3 SWAP1 SWAP2 ADD SWAP1 PUSH2 0x8E4 JUMP JUMPDEST ADD MLOAD SWAP1 POP DUP16 DUP1 PUSH2 0x331 JUMP JUMPDEST SWAP3 POP DUP5 PUSH1 0x0 MSTORE PUSH1 0x20 PUSH1 0x0 KECCAK256 SWAP1 PUSH1 0x0 SWAP4 JUMPDEST PUSH1 0x1F NOT DUP5 AND DUP6 LT PUSH2 0x99F JUMPI PUSH1 0x1 SWAP5 POP DUP4 PUSH1 0x1F NOT DUP2 AND LT PUSH2 0x986 JUMPI JUMPDEST POP POP POP DUP2 SHL ADD DUP3 SSTORE PUSH2 0x346 JUMP JUMPDEST ADD MLOAD PUSH1 0x0 NOT PUSH1 0xF8 DUP5 PUSH1 0x3 SHL AND SHR NOT AND SWAP1 SSTORE DUP16 DUP1 DUP1 PUSH2 0x979 JUMP JUMPDEST DUP2 DUP2 ADD MLOAD DUP4 SSTORE PUSH1 0x20 SWAP5 DUP6 ADD SWAP5 PUSH1 0x1 SWAP1 SWAP4 ADD SWAP3 SWAP1 SWAP2 ADD SWAP1 PUSH2 0x95E JUMP JUMPDEST PUSH1 0x40 MLOAD PUSH3 0x461BCD PUSH1 0xE5 SHL DUP2 MSTORE PUSH1 0x20 PUSH1 0x4 DUP3 ADD MSTORE PUSH1 0xB PUSH1 0x24 DUP3 ADD MSTORE PUSH11 0x139BDD081CDD195DD85C99 PUSH1 0xAA SHL PUSH1 0x44 DUP3 ADD MSTORE PUSH1 0x64 SWAP1 REVERT JUMPDEST CALLVALUE PUSH2 0x17D JUMPI PUSH1 0x0 CALLDATASIZE PUSH1 0x3 NOT ADD SLT PUSH2 0x17D JUMPI PUSH1 0x0 SLOAD PUSH1 0x40 MLOAD PUSH1 0x1 PUSH1 0x1 PUSH1 0xA0 SHL SUB SWAP1 SWAP2 AND DUP2 MSTORE PUSH1 0x20 SWAP1 RETURN JUMPDEST CALLVALUE PUSH2 0x17D JUMPI PUSH1 0x20 DUP1 PUSH1 0x3 NOT CALLDATASIZE ADD SLT PUSH2 0x17D JUMPI PUSH1 0x4 CALLDATALOAD PUSH1 0x1 PUSH1 0x1 PUSH1 0x40 SHL SUB DUP2 GT PUSH2 0x17D JUMPI PUSH2 0xA47 SWAP1 CALLDATASIZE SWAP1 PUSH1 0x4 ADD PUSH2 0xDA7 JUMP JUMPDEST DUP3 PUSH1 0x40 MLOAD SWAP3 PUSH2 0xA55 DUP5 PUSH2 0xC7D JUMP JUMPDEST PUSH1 0x60 DUP5 DUP2 DUP1 SWAP7 MSTORE DUP2 DUP5 DUP3 ADD MSTORE DUP2 PUSH1 0x40 DUP3 ADD MSTORE DUP2 DUP1 DUP3 ADD MSTORE DUP2 PUSH1 0x80 DUP3 ADD MSTORE PUSH1 0xA0 ADD MSTORE DUP3 PUSH1 0x40 MLOAD SWAP4 DUP5 SWAP3 DUP4 CALLDATACOPY DUP2 ADD PUSH1 0x1 DUP2 MSTORE SUB ADD SWAP1 KECCAK256 PUSH1 0x40 MLOAD SWAP2 PUSH2 0xA96 DUP4 PUSH2 0xC7D JUMP JUMPDEST PUSH2 0xA9F DUP3 PUSH2 0xCB9 JUMP JUMPDEST DUP4 MSTORE PUSH2 0xAAD PUSH1 0x1 DUP4 ADD PUSH2 0xCB9 JUMP JUMPDEST DUP4 DUP6 ADD SWAP1 DUP2 MSTORE SWAP2 PUSH2 0xAC0 PUSH1 0x2 DUP3 ADD PUSH2 0xCB9 JUMP JUMPDEST PUSH1 0x40 DUP6 ADD SWAP1 DUP2 MSTORE SWAP2 PUSH2 0xAD4 PUSH1 0x3 DUP4 ADD PUSH2 0xCB9 JUMP JUMPDEST DUP6 DUP3 ADD SWAP1 DUP2 MSTORE SWAP1 PUSH2 0xAE7 PUSH1 0x4 DUP5 ADD PUSH2 0xCB9 JUMP JUMPDEST SWAP3 PUSH1 0x80 DUP8 ADD SWAP4 DUP5 MSTORE PUSH1 0x5 ADD PUSH2 0xAFB SWAP1 PUSH2 0xCB9 JUMP JUMPDEST SWAP4 PUSH1 0xA0 DUP8 ADD SWAP5 DUP6 MSTORE PUSH1 0x40 MLOAD SWAP8 DUP9 SWAP8 DUP2 DUP10 MSTORE MLOAD SWAP1 DUP9 ADD PUSH1 0xC0 SWAP1 MSTORE PUSH1 0xE0 DUP9 ADD PUSH2 0xB21 SWAP2 PUSH2 0xD82 JUMP JUMPDEST SWAP6 MLOAD PUSH1 0x1F NOT SWAP7 DUP8 DUP10 DUP3 SUB ADD PUSH1 0x40 DUP11 ADD MSTORE PUSH2 0xB3A SWAP2 PUSH2 0xD82 JUMP JUMPDEST SWAP1 MLOAD SWAP2 DUP7 DUP9 DUP4 SUB ADD SWAP1 DUP9 ADD MSTORE PUSH2 0xB4F SWAP2 PUSH2 0xD82 JUMP JUMPDEST SWAP1 MLOAD SWAP1 DUP5 DUP7 DUP3 SUB ADD PUSH1 0x80 DUP8 ADD MSTORE PUSH2 0xB65 SWAP2 PUSH2 0xD82 JUMP JUMPDEST SWAP1 MLOAD SWAP1 DUP4 DUP6 DUP3 SUB ADD PUSH1 0xA0 DUP7 ADD MSTORE PUSH2 0xB7B SWAP2 PUSH2 0xD82 JUMP JUMPDEST SWAP1 MLOAD SWAP2 DUP4 DUP3 SUB ADD PUSH1 0xC0 DUP5 ADD MSTORE PUSH2 0x179 SWAP2 PUSH2 0xD82 JUMP JUMPDEST CALLVALUE PUSH2 0x17D JUMPI PUSH1 0x20 CALLDATASIZE PUSH1 0x3 NOT ADD SLT PUSH2 0x17D JUMPI PUSH1 0x4 CALLDATALOAD PUSH1 0x2 SLOAD DUP2 LT ISZERO PUSH2 0x17D JUMPI PUSH2 0xBB7 SWAP1 PUSH2 0xBF6 JUMP JUMPDEST PUSH2 0x6C6 JUMPI PUSH2 0xBC7 PUSH2 0x179 SWAP2 PUSH2 0xCB9 JUMP JUMPDEST PUSH1 0x40 MLOAD SWAP2 DUP3 SWAP2 PUSH1 0x20 DUP4 MSTORE PUSH1 0x20 DUP4 ADD SWAP1 PUSH2 0xD82 JUMP JUMPDEST CALLVALUE PUSH2 0x17D JUMPI PUSH1 0x0 CALLDATASIZE PUSH1 0x3 NOT ADD SLT PUSH2 0x17D JUMPI PUSH1 0x20 SWAP1 PUSH1 0x2 SLOAD DUP2 MSTORE RETURN JUMPDEST PUSH1 0x2 SLOAD DUP2 LT ISZERO PUSH2 0xC2D JUMPI PUSH1 0x2 PUSH1 0x0 MSTORE PUSH32 0x405787FA12A823E0F2B7631CC41B3BA8828B3321CA811111FA75CD3AA3BB5ACE ADD SWAP1 PUSH1 0x0 SWAP1 JUMP JUMPDEST PUSH4 0x4E487B71 PUSH1 0xE0 SHL PUSH1 0x0 MSTORE PUSH1 0x32 PUSH1 0x4 MSTORE PUSH1 0x24 PUSH1 0x0 REVERT JUMPDEST SWAP1 PUSH1 0x1 DUP3 DUP2 SHR SWAP3 AND DUP1 ISZERO PUSH2 0xC73 JUMPI JUMPDEST PUSH1 0x20 DUP4 LT EQ PUSH2 0xC5D JUMPI JUMP JUMPDEST PUSH4 0x4E487B71 PUSH1 0xE0 SHL PUSH1 0x0 MSTORE PUSH1 0x22 PUSH1 0x4 MSTORE PUSH1 0x24 PUSH1 0x0 REVERT JUMPDEST SWAP2 PUSH1 0x7F AND SWAP2 PUSH2 0xC52 JUMP JUMPDEST PUSH1 0xC0 DUP2 ADD SWAP1 DUP2 LT PUSH1 0x1 PUSH1 0x1 PUSH1 0x40 SHL SUB DUP3 GT OR PUSH2 0x6B0 JUMPI PUSH1 0x40 MSTORE JUMP JUMPDEST SWAP1 PUSH1 0x1F DUP1 NOT SWAP2 ADD AND DUP2 ADD SWAP1 DUP2 LT PUSH1 0x1 PUSH1 0x1 PUSH1 0x40 SHL SUB DUP3 GT OR PUSH2 0x6B0 JUMPI PUSH1 0x40 MSTORE JUMP JUMPDEST SWAP1 PUSH1 0x40 MLOAD SWAP2 DUP3 PUSH1 0x0 DUP3 SLOAD SWAP3 PUSH2 0xCCD DUP5 PUSH2 0xC43 JUMP JUMPDEST SWAP1 DUP2 DUP5 MSTORE PUSH1 0x1 SWAP5 DUP6 DUP2 AND SWAP1 DUP2 PUSH1 0x0 EQ PUSH2 0xD3C JUMPI POP PUSH1 0x1 EQ PUSH2 0xCF9 JUMPI JUMPDEST POP POP PUSH2 0xCF7 SWAP3 POP SUB DUP4 PUSH2 0xC98 JUMP JUMPDEST JUMP JUMPDEST SWAP1 SWAP4 SWAP2 POP PUSH1 0x0 MSTORE PUSH1 0x20 SWAP1 DUP2 PUSH1 0x0 KECCAK256 SWAP4 PUSH1 0x0 SWAP2 JUMPDEST DUP2 DUP4 LT PUSH2 0xD24 JUMPI POP POP PUSH2 0xCF7 SWAP4 POP DUP3 ADD ADD CODESIZE DUP1 PUSH2 0xCE9 JUMP JUMPDEST DUP6 SLOAD DUP9 DUP5 ADD DUP6 ADD MSTORE SWAP5 DUP6 ADD SWAP5 DUP8 SWAP5 POP SWAP2 DUP4 ADD SWAP2 PUSH2 0xD0C JUMP JUMPDEST SWAP2 POP POP PUSH2 0xCF7 SWAP5 POP PUSH1 0x20 SWAP3 POP PUSH1 0xFF NOT AND DUP3 DUP5 ADD MSTORE ISZERO ISZERO PUSH1 0x5 SHL DUP3 ADD ADD CODESIZE DUP1 PUSH2 0xCE9 JUMP JUMPDEST PUSH1 0x0 JUMPDEST DUP4 DUP2 LT PUSH2 0xD72 JUMPI POP POP PUSH1 0x0 SWAP2 ADD MSTORE JUMP JUMPDEST DUP2 DUP2 ADD MLOAD DUP4 DUP3 ADD MSTORE PUSH1 0x20 ADD PUSH2 0xD62 JUMP JUMPDEST SWAP1 PUSH1 0x20 SWAP2 PUSH2 0xD9B DUP2 MLOAD DUP1 SWAP3 DUP2 DUP6 MSTORE DUP6 DUP1 DUP7 ADD SWAP2 ADD PUSH2 0xD5F JUMP JUMPDEST PUSH1 0x1F ADD PUSH1 0x1F NOT AND ADD ADD SWAP1 JUMP JUMPDEST SWAP2 DUP2 PUSH1 0x1F DUP5 ADD SLT ISZERO PUSH2 0x17D JUMPI DUP3 CALLDATALOAD SWAP2 PUSH1 0x1 PUSH1 0x1 PUSH1 0x40 SHL SUB DUP4 GT PUSH2 0x17D JUMPI PUSH1 0x20 DUP4 DUP2 DUP7 ADD SWAP6 ADD ADD GT PUSH2 0x17D JUMPI JUMP JUMPDEST SWAP3 SWAP2 SWAP3 PUSH1 0x1 PUSH1 0x1 PUSH1 0x40 SHL SUB DUP3 GT PUSH2 0x6B0 JUMPI PUSH1 0x40 MLOAD SWAP2 PUSH2 0xDFD PUSH1 0x1F DUP3 ADD PUSH1 0x1F NOT AND PUSH1 0x20 ADD DUP5 PUSH2 0xC98 JUMP JUMPDEST DUP3 SWAP5 DUP2 DUP5 MSTORE DUP2 DUP4 ADD GT PUSH2 0x17D JUMPI DUP3 DUP2 PUSH1 0x20 SWAP4 DUP5 PUSH1 0x0 SWAP7 ADD CALLDATACOPY ADD ADD MSTORE JUMP JUMPDEST SWAP1 PUSH1 0x1F DUP2 GT PUSH2 0xE28 JUMPI POP POP POP JUMP JUMPDEST PUSH1 0x0 SWAP2 DUP3 MSTORE PUSH1 0x20 DUP3 KECCAK256 SWAP1 PUSH1 0x20 PUSH1 0x1F DUP6 ADD PUSH1 0x5 SHR DUP4 ADD SWAP5 LT PUSH2 0xE64 JUMPI JUMPDEST PUSH1 0x1F ADD PUSH1 0x5 SHR ADD SWAP2 JUMPDEST DUP3 DUP2 LT PUSH2 0xE59 JUMPI POP POP POP JUMP JUMPDEST DUP2 DUP2 SSTORE PUSH1 0x1 ADD PUSH2 0xE4D JUMP JUMPDEST SWAP1 SWAP3 POP DUP3 SWAP1 PUSH2 0xE44 JUMP JUMPDEST SWAP1 DUP1 PUSH1 0x20 SWAP4 SWAP3 DUP2 DUP5 MSTORE DUP5 DUP5 ADD CALLDATACOPY PUSH1 0x0 DUP3 DUP3 ADD DUP5 ADD MSTORE PUSH1 0x1F ADD PUSH1 0x1F NOT AND ADD ADD SWAP1 JUMP INVALID LOG2 PUSH5 0x6970667358 0x22 SLT KECCAK256 PUSH29 0x23EB0FE5D068A0A2BE69148590CDBE3E962A4A2A72E02C7C93D61833F3 0xC6 0x2C PUSH5 0x736F6C6343 STOP ADDMOD EQ STOP CALLER "},"methodIdentifiers":{"getRoute(string)":"1b5f03a6","keys(uint256)":"0cb6aaf1","routeCompanionDrift(string,string,string,string,string,string)":"6ccfb1e7","routes(string)":"cffbffb5","steward()":"637eea19","totalRoutes()":"05a2d3ac"}}}}}