{"contracts/codex/SpiralboundCodexXXIII.sol":{"SpiralboundCodexXXIII":{"abi":[{"inputs":[],"stateMutability":"nonpayable","type":"constructor"},{"anonymous":false,"inputs":[{"indexed":false,"internalType":"string","name":"glyph","type":"string"},{"indexed":false,"internalType":"string","name":"tag","type":"string"},{"indexed":false,"internalType":"string","name":"binding","type":"string"},{"indexed":false,"internalType":"string","name":"annotation","type":"string"},{"indexed":false,"internalType":"string","name":"lineage","type":"string"},{"indexed":false,"internalType":"string","name":"resonance","type":"string"},{"indexed":false,"internalType":"string","name":"protocol","type":"string"},{"indexed":false,"internalType":"string","name":"sanctum","type":"string"},{"indexed":false,"internalType":"string","name":"pulse","type":"string"},{"indexed":false,"internalType":"string","name":"chant","type":"string"},{"indexed":false,"internalType":"string","name":"choreography","type":"string"},{"indexed":false,"internalType":"string","name":"drift","type":"string"},{"indexed":false,"internalType":"string","name":"signature","type":"string"},{"indexed":false,"internalType":"string","name":"signal","type":"string"},{"indexed":false,"internalType":"string","name":"companion","type":"string"},{"indexed":false,"internalType":"string","name":"stewardName","type":"string"},{"indexed":false,"internalType":"string","name":"registry","type":"string"},{"indexed":false,"internalType":"string","name":"echo","type":"string"},{"indexed":false,"internalType":"string","name":"hum","type":"string"},{"indexed":false,"internalType":"string","name":"terrain","type":"string"},{"indexed":false,"internalType":"string","name":"choreographyType","type":"string"},{"indexed":false,"internalType":"string","name":"driftType","type":"string"},{"indexed":false,"internalType":"string","name":"signalType","type":"string"},{"indexed":false,"internalType":"string","name":"companionType","type":"string"}],"name":"CodexInscribed","type":"event"},{"inputs":[{"internalType":"string","name":"","type":"string"}],"name":"codices","outputs":[{"internalType":"string","name":"tag","type":"string"},{"internalType":"string","name":"binding","type":"string"},{"internalType":"string","name":"annotation","type":"string"},{"internalType":"string","name":"lineage","type":"string"},{"internalType":"string","name":"resonance","type":"string"},{"internalType":"string","name":"protocol","type":"string"},{"internalType":"string","name":"sanctum","type":"string"},{"internalType":"string","name":"pulse","type":"string"},{"internalType":"string","name":"chant","type":"string"},{"internalType":"string","name":"choreography","type":"string"},{"internalType":"string","name":"drift","type":"string"},{"internalType":"string","name":"signature","type":"string"},{"internalType":"string","name":"signal","type":"string"},{"internalType":"string","name":"companion","type":"string"},{"internalType":"string","name":"stewardName","type":"string"},{"internalType":"string","name":"registry","type":"string"},{"internalType":"string","name":"echo","type":"string"},{"internalType":"string","name":"hum","type":"string"},{"internalType":"string","name":"terrain","type":"string"},{"internalType":"string","name":"choreographyType","type":"string"},{"internalType":"string","name":"driftType","type":"string"},{"internalType":"string","name":"signalType","type":"string"},{"internalType":"string","name":"companionType","type":"string"}],"stateMutability":"view","type":"function"},{"inputs":[{"internalType":"string","name":"glyph","type":"string"}],"name":"getCodex","outputs":[{"components":[{"internalType":"string","name":"tag","type":"string"},{"internalType":"string","name":"binding","type":"string"},{"internalType":"string","name":"annotation","type":"string"},{"internalType":"string","name":"lineage","type":"string"},{"internalType":"string","name":"resonance","type":"string"},{"internalType":"string","name":"protocol","type":"string"},{"internalType":"string","name":"sanctum","type":"string"},{"internalType":"string","name":"pulse","type":"string"},{"internalType":"string","name":"chant","type":"string"},{"internalType":"string","name":"choreography","type":"string"},{"internalType":"string","name":"drift","type":"string"},{"internalType":"string","name":"signature","type":"string"},{"internalType":"string","name":"signal","type":"string"},{"internalType":"string","name":"companion","type":"string"},{"internalType":"string","name":"stewardName","type":"string"},{"internalType":"string","name":"registry","type":"string"},{"internalType":"string","name":"echo","type":"string"},{"internalType":"string","name":"hum","type":"string"},{"internalType":"string","name":"terrain","type":"string"},{"internalType":"string","name":"choreographyType","type":"string"},{"internalType":"string","name":"driftType","type":"string"},{"internalType":"string","name":"signalType","type":"string"},{"internalType":"string","name":"companionType","type":"string"}],"internalType":"struct SpiralboundCodexXXIII.Codex","name":"","type":"tuple"}],"stateMutability":"view","type":"function"},{"inputs":[{"internalType":"string","name":"glyph","type":"string"},{"internalType":"string","name":"tag","type":"string"},{"internalType":"string","name":"binding","type":"string"},{"internalType":"string","name":"annotation","type":"string"},{"internalType":"string","name":"lineage","type":"string"},{"internalType":"string","name":"resonance","type":"string"},{"internalType":"string","name":"protocol","type":"string"},{"internalType":"string","name":"sanctum","type":"string"},{"internalType":"string","name":"pulse","type":"string"},{"internalType":"string","name":"chant","type":"string"},{"internalType":"string","name":"choreography","type":"string"},{"internalType":"string","name":"drift","type":"string"},{"internalType":"string","name":"signature","type":"string"},{"internalType":"string","name":"signal","type":"string"},{"internalType":"string","name":"companion","type":"string"},{"internalType":"string","name":"stewardName","type":"string"},{"internalType":"string","name":"registry","type":"string"},{"internalType":"string","name":"echo","type":"string"},{"internalType":"string","name":"hum","type":"string"},{"internalType":"string","name":"terrain","type":"string"},{"internalType":"string","name":"choreographyType","type":"string"},{"internalType":"string","name":"driftType","type":"string"},{"internalType":"string","name":"signalType","type":"string"},{"internalType":"string","name":"companionType","type":"string"}],"name":"inscribeCodex","outputs":[],"stateMutability":"nonpayable","type":"function"},{"inputs":[{"internalType":"uint256","name":"","type":"uint256"}],"name":"keys","outputs":[{"internalType":"string","name":"","type":"string"}],"stateMutability":"view","type":"function"},{"inputs":[],"name":"steward","outputs":[{"internalType":"address","name":"","type":"address"}],"stateMutability":"view","type":"function"},{"inputs":[],"name":"totalCodices","outputs":[{"internalType":"uint256","name":"","type":"uint256"}],"stateMutability":"view","type":"function"}],"evm":{"bytecode":{"linkReferences":{},"object":"6080806040523461002857600080546001600160a01b03191633179055612c01908161002e8239f35b600080fdfe610840604052600436101561001357600080fd5b60003560e01c80630cb6aaf1146128e6578063637eea19146128bd5780638336152214612375578063c212d16b14612357578063d3e908341461049b5763dbc214241461005f57600080fd5b34610496576020366003190112610496576004356001600160401b03811161049657366023820112156104965736816004013591602401916100a092612b10565b60405181818093516020819301916100b792612a9b565b81016001815203602001902080610580526100d1906129f5565b610580516001016100e1906129f5565b6107c052610580516002016100f5906129f5565b6103405261058051600301610109906129f5565b6104c0526105805160040161011d906129f5565b6105805160050161012d906129f5565b6105805160060161013d906129f5565b6105805160070161014d906129f5565b6105805160080161015d906129f5565b6105805160090161016d906129f5565b61058051600a0161017d906129f5565b9161058051600b0161018e906129f5565b9361058051600c0161019f906129f5565b9561058051600d016101b0906129f5565b9761058051600e016101c1906129f5565b9961058051600f016101d2906129f5565b9b610580516010016101e3906129f5565b61044052610580516011016101f7906129f5565b60c0526105805160120161020a906129f5565b6101c0526105805160130161021e906129f5565b6102e05261058051601401610232906129f5565b6103205261058051601501610246906129f5565b610820526105805160160161025a906129f5565b6104a05260405180610460526102e09052610460516102e00161027c91612abe565b6104605180820390602001526107c0519061029691612abe565b61046051808203906040015261034051906102b091612abe565b6104605180820390606001526104c051906102ca91612abe565b6104605180820390608001526102df91612abe565b610460518082039060a001526102f491612abe565b610460518082039060c0015261030991612abe565b610460518082039060e0015261031e91612abe565b6104605180820390610100015261033491612abe565b6104605180820390610120015261034a91612abe565b6104605180820390610140015261036091612abe565b6104605180820390610160015261037691612abe565b6104605180820390610180015261038c91612abe565b61046051808203906101a001526103a291612abe565b61046051808203906101c001526103b891612abe565b61046051808203906101e001526103ce91612abe565b6104605180820390610200015261044051906103e991612abe565b6104605180820390610220015260c0519061040391612abe565b610460518082039061024001526101c0519061041e91612abe565b610460518082039061026001526102e0519061043991612abe565b61046051808203906102800152610320519061045491612abe565b61046051808203906102a00152610820519061046f91612abe565b61046051808203906102c0015261046051906104a0519061048f91612abe565b0361046051f35b600080fd5b3461049657610300366003190112610496576004356001600160401b038111610496576104cc903690600401612ae3565b61014052610300526024356001600160401b038111610496576104f3903690600401612ae3565b6104e052610200526044356001600160401b0381116104965761051a903690600401612ae3565b6105e052610420526064356001600160401b03811161049657610541903690600401612ae3565b6102a052610500526084356001600160401b03811161049657610568903690600401612ae3565b6103a052610760526001600160401b0360a435116104965761058f3660a435600401612ae3565b610400526107e0526001600160401b0360c43511610496576105b63660c435600401612ae3565b6103e0526102c0526001600160401b0360e43511610496576105dd3660e435600401612ae3565b61070052610780526001600160401b036101043511610496576106063661010435600401612ae3565b6105a052610380526001600160401b0361012435116104965761062f3661012435600401612ae3565b61036052610480526001600160401b036101443511610496576106583661014435600401612ae3565b610800526080526001600160401b036101643511610496576106803661016435600401612ae3565b6105405260e0526001600160401b036101843511610496576106a83661018435600401612ae3565b61022052610260526001600160401b036101a43511610496576106d1366101a435600401612ae3565b610620526106e0526001600160401b036101c43511610496576106fa366101c435600401612ae3565b61064052610600526001600160401b036101e4351161049657610723366101e435600401612ae3565b61072052610180526001600160401b0361020435116104965761074c3661020435600401612ae3565b6107a052610520526001600160401b036102243511610496576107753661022435600401612ae3565b6101a0526106a0526001600160401b0361024435116104965761079e3661024435600401612ae3565b60a052610160526001600160401b036102643511610496576107c63661026435600401612ae3565b61056052610240526001600160401b036102843511610496576107ef3661028435600401612ae3565b6106c052610100526001600160401b036102a4351161049657610818366102a435600401612ae3565b61012052610680526001600160401b036102c4351161049657610841366102c435600401612ae3565b6103c0526101e0526001600160401b036102e435116104965761086a366102e435600401612ae3565b610660526105c0526000546001600160a01b031633036123245761089460405180610280526129b8565b6108a5366104e05161020051612b10565b61028051526108bb366105e05161042051612b10565b60206102805101526108d4366102a05161050051612b10565b60406102805101526108ed366103a05161076051612b10565b606061028051015261090636610400516107e051612b10565b608061028051015261091f366103e0516102c051612b10565b60a0610280510152610938366107005161078051612b10565b60c0610280510152610951366105a05161038051612b10565b60e061028051015261096a366103605161048051612b10565b6101006102805101526109833661080051608051612b10565b61012061028051015261099c366105405160e051612b10565b6101406102805101526109b6366102205161026051612b10565b6101606102805101526109d036610620516106e051612b10565b6101806102805101526109ea366106405161060051612b10565b6101a0610280510152610a04366107205161018051612b10565b6101c0610280510152610a1e366107a05161052051612b10565b6101e0610280510152610a38366101a0516106a051612b10565b610200610280510152610a513660a05161016051612b10565b610220610280510152610a6b366105605161024051612b10565b610240610280510152610a85366106c05161010051612b10565b610260610280510152610a9f366101205161068051612b10565b61028080510152610ab7366103c0516101e051612b10565b6102a0610280510152610ad136610660516105c051612b10565b6102c0610280510152604051610140516103005182376001610140518201526020816101405181010301902061028051518051906001600160401b0382116117c5578190610b2982610b23865461297e565b86612b56565b602090601f83116001146122b8576000926122ad575b50508160011b916000199060031b1c19161781555b60206102805101518051906001600160401b0382116117c5578190610b8982610b80600187015461297e565b60018701612b56565b602090601f831160011461223b57600092612230575b50508160011b916000199060031b1c19161760018201555b60406102805101518051906001600160401b0382116117c5578190610bec82610be3600287015461297e565b60028701612b56565b602090601f83116001146121be576000926121b3575b50508160011b916000199060031b1c19161760028201555b60606102805101518051906001600160401b0382116117c5578190610c4f82610c46600387015461297e565b60038701612b56565b602090601f831160011461214157600092612136575b50508160011b916000199060031b1c19161760038201555b60806102805101518051906001600160401b0382116117c5578190610cb282610ca9600487015461297e565b60048701612b56565b602090601f83116001146120c4576000926120b9575b50508160011b916000199060031b1c19161760048201555b60a06102805101518051906001600160401b0382116117c5578190610d1582610d0c600587015461297e565b60058701612b56565b602090601f83116001146120475760009261203c575b50508160011b916000199060031b1c19161760058201555b60c06102805101518051906001600160401b0382116117c5578190610d7882610d6f600687015461297e565b60068701612b56565b602090601f8311600114611fca57600092611fbf575b50508160011b916000199060031b1c19161760068201555b60e06102805101518051906001600160401b0382116117c5578190610ddb82610dd2600787015461297e565b60078701612b56565b602090601f8311600114611f4d57600092611f42575b50508160011b916000199060031b1c19161760078201555b6101006102805101518051906001600160401b0382116117c5578190610e3f82610e36600887015461297e565b60088701612b56565b602090601f8311600114611ed057600092611ec5575b50508160011b916000199060031b1c19161760088201555b6101206102805101518051906001600160401b0382116117c5578190610ea382610e9a600987015461297e565b60098701612b56565b602090601f8311600114611e5357600092611e48575b50508160011b916000199060031b1c19161760098201555b6101406102805101518051906001600160401b0382116117c5578190610f0782610efe600a87015461297e565b600a8701612b56565b602090601f8311600114611dd657600092611dcb575b50508160011b916000199060031b1c191617600a8201555b6101606102805101518051906001600160401b0382116117c5578190610f6b82610f62600b87015461297e565b600b8701612b56565b602090601f8311600114611d5957600092611d4e575b50508160011b916000199060031b1c191617600b8201555b6101806102805101518051906001600160401b0382116117c5578190610fcf82610fc6600c87015461297e565b600c8701612b56565b602090601f8311600114611cdc57600092611cd1575b50508160011b916000199060031b1c191617600c8201555b6101a06102805101518051906001600160401b0382116117c55781906110338261102a600d87015461297e565b600d8701612b56565b602090601f8311600114611c5f57600092611c54575b50508160011b916000199060031b1c191617600d8201555b6101c06102805101518051906001600160401b0382116117c55781906110978261108e600e87015461297e565b600e8701612b56565b602090601f8311600114611be257600092611bd7575b50508160011b916000199060031b1c191617600e8201555b6101e06102805101518051906001600160401b0382116117c55781906110fb826110f2600f87015461297e565b600f8701612b56565b602090601f8311600114611b6557600092611b5a575b50508160011b916000199060031b1c191617600f8201555b6102006102805101518051906001600160401b0382116117c557819061115f82611156601087015461297e565b60108701612b56565b602090601f8311600114611ae857600092611add575b50508160011b916000199060031b1c19161760108201555b6102206102805101518051906001600160401b0382116117c55781906111c3826111ba601187015461297e565b60118701612b56565b602090601f8311600114611a6b57600092611a60575b50508160011b916000199060031b1c19161760118201555b6102406102805101518051906001600160401b0382116117c55781906112278261121e601287015461297e565b60128701612b56565b602090601f83116001146119ee576000926119e3575b50508160011b916000199060031b1c19161760128201555b6102606102805101518051906001600160401b0382116117c557819061128b82611282601387015461297e565b60138701612b56565b602090601f831160011461197157600092611966575b50508160011b916000199060031b1c19161760138201555b610280805101518051906001600160401b0382116117c55781906112ed826112e4601487015461297e565b60148701612b56565b602090601f83116001146118f4576000926118e9575b50508160011b916000199060031b1c19161760148201555b6102a06102805101518051906001600160401b0382116117c557819061135182611348601587015461297e565b60158701612b56565b602090601f83116001146118775760009261186c575b50508160011b916000199060031b1c19161760158201555b6102c06102805101518051906001600160401b0382116117c5576113b3826113aa601686015461297e565b60168601612b56565b602090601f83116001146117fc5760169291600091836117f1575b50508160011b916000199060031b1c1916179101555b600254680100000000000000008110156117c5578060016114089201600255612931565b6117db57610140516001600160401b0381116117c5576114329061142c835461297e565b83612b56565b60009061014051601f8111600114611758575090600061014051918261174a575b508160011b916000199060031b1c19161790555b6103006040518061074052527fa3a55854fa805244f6c09473b3862be66bf2889d97e67acd0f73ebb8848a2a5e6117206117066116ec6116d26116b861169f61168561166b61165161163761161d6116036115ea6115d16115b761159d61158461156b6115526115396115206115076114ee61030061074051016101405161030051612baa565b6107405160208183039101526104e05161020051612baa565b6107405160408183039101526105e05161042051612baa565b6107405160608183039101526102a05161050051612baa565b6107405160808183039101526103a05161076051612baa565b6107405160a0818303910152610400516107e051612baa565b6107405160c08183039101526103e0516102c051612baa565b6107405160e08183039101526107005161078051612baa565b610740516101008183039101526105a05161038051612baa565b610740516101208183039101526103605161048051612baa565b6107405161014081830391015261080051608051612baa565b610740516101608183039101526105405160e051612baa565b610740516101808183039101526102205161026051612baa565b610740516101a0818303910152610620516106e051612baa565b610740516101c08183039101526106405161060051612baa565b610740516101e08183039101526107205161018051612baa565b610740516102008183039101526107a05161052051612baa565b610740516102208183039101526101a0516106a051612baa565b6107405161024081830391015260a05161016051612baa565b610740516102608183039101526105605161024051612baa565b610740516102808183039101526106c05161010051612baa565b610740516102a08183039101526101205161068051612baa565b610740516102c08183039101526103c0516101e051612baa565b610740516102e08183039101526117426107405191610660516105c051612baa565b0361074051a1005b905061030051013583611453565b81600052602060002060009361030051905b601f19841686106117ad57600194955083601f19811610611793575b505050811b019055611467565b0135600019600384901b60f8161c19169055838080611786565b9160206001819285850135815501930195019461176a565b634e487b7160e01b600052604160045260246000fd5b634e487b7160e01b600052600060045260246000fd5b0151905084806113ce565b906016840160005260206000209160005b601f19851681106118545750918391600193601695601f1981161061183b575b505050811b019101556113e4565b015160001960f88460031b161c1916905584808061182d565b9192602060018192868501518155019401920161180d565b015190508380611367565b9250601584016000526020600020906000935b601f19841685106118ce576001945083601f198116106118b5575b505050811b01601582015561137f565b015160001960f88460031b161c191690558380806118a5565b8181015183556020948501946001909301929091019061188a565b015190508380611303565b9250601484016000526020600020906000935b601f198416851061194b576001945083601f19811610611932575b505050811b01601482015561131b565b015160001960f88460031b161c19169055838080611922565b81810151835560209485019460019093019290910190611907565b0151905083806112a1565b9250601384016000526020600020906000935b601f19841685106119c8576001945083601f198116106119af575b505050811b0160138201556112b9565b015160001960f88460031b161c1916905583808061199f565b81810151835560209485019460019093019290910190611984565b01519050838061123d565b9250601284016000526020600020906000935b601f1984168510611a45576001945083601f19811610611a2c575b505050811b016012820155611255565b015160001960f88460031b161c19169055838080611a1c565b81810151835560209485019460019093019290910190611a01565b0151905083806111d9565b9250601184016000526020600020906000935b601f1984168510611ac2576001945083601f19811610611aa9575b505050811b0160118201556111f1565b015160001960f88460031b161c19169055838080611a99565b81810151835560209485019460019093019290910190611a7e565b015190508380611175565b9250601084016000526020600020906000935b601f1984168510611b3f576001945083601f19811610611b26575b505050811b01601082015561118d565b015160001960f88460031b161c19169055838080611b16565b81810151835560209485019460019093019290910190611afb565b015190508380611111565b9250600f84016000526020600020906000935b601f1984168510611bbc576001945083601f19811610611ba3575b505050811b01600f820155611129565b015160001960f88460031b161c19169055838080611b93565b81810151835560209485019460019093019290910190611b78565b0151905083806110ad565b9250600e84016000526020600020906000935b601f1984168510611c39576001945083601f19811610611c20575b505050811b01600e8201556110c5565b015160001960f88460031b161c19169055838080611c10565b81810151835560209485019460019093019290910190611bf5565b015190508380611049565b9250600d84016000526020600020906000935b601f1984168510611cb6576001945083601f19811610611c9d575b505050811b01600d820155611061565b015160001960f88460031b161c19169055838080611c8d565b81810151835560209485019460019093019290910190611c72565b015190508380610fe5565b9250600c84016000526020600020906000935b601f1984168510611d33576001945083601f19811610611d1a575b505050811b01600c820155610ffd565b015160001960f88460031b161c19169055838080611d0a565b81810151835560209485019460019093019290910190611cef565b015190508380610f81565b9250600b84016000526020600020906000935b601f1984168510611db0576001945083601f19811610611d97575b505050811b01600b820155610f99565b015160001960f88460031b161c19169055838080611d87565b81810151835560209485019460019093019290910190611d6c565b015190508380610f1d565b9250600a84016000526020600020906000935b601f1984168510611e2d576001945083601f19811610611e14575b505050811b01600a820155610f35565b015160001960f88460031b161c19169055838080611e04565b81810151835560209485019460019093019290910190611de9565b015190508380610eb9565b9250600984016000526020600020906000935b601f1984168510611eaa576001945083601f19811610611e91575b505050811b016009820155610ed1565b015160001960f88460031b161c19169055838080611e81565b81810151835560209485019460019093019290910190611e66565b015190508380610e55565b9250600884016000526020600020906000935b601f1984168510611f27576001945083601f19811610611f0e575b505050811b016008820155610e6d565b015160001960f88460031b161c19169055838080611efe565b81810151835560209485019460019093019290910190611ee3565b015190508380610df1565b9250600784016000526020600020906000935b601f1984168510611fa4576001945083601f19811610611f8b575b505050811b016007820155610e09565b015160001960f88460031b161c19169055838080611f7b565b81810151835560209485019460019093019290910190611f60565b015190508380610d8e565b9250600684016000526020600020906000935b601f1984168510612021576001945083601f19811610612008575b505050811b016006820155610da6565b015160001960f88460031b161c19169055838080611ff8565b81810151835560209485019460019093019290910190611fdd565b015190508380610d2b565b9250600584016000526020600020906000935b601f198416851061209e576001945083601f19811610612085575b505050811b016005820155610d43565b015160001960f88460031b161c19169055838080612075565b8181015183556020948501946001909301929091019061205a565b015190508380610cc8565b9250600484016000526020600020906000935b601f198416851061211b576001945083601f19811610612102575b505050811b016004820155610ce0565b015160001960f88460031b161c191690558380806120f2565b818101518355602094850194600190930192909101906120d7565b015190508380610c65565b9250600384016000526020600020906000935b601f1984168510612198576001945083601f1981161061217f575b505050811b016003820155610c7d565b015160001960f88460031b161c1916905583808061216f565b81810151835560209485019460019093019290910190612154565b015190508380610c02565b9250600284016000526020600020906000935b601f1984168510612215576001945083601f198116106121fc575b505050811b016002820155610c1a565b015160001960f88460031b161c191690558380806121ec565b818101518355602094850194600190930192909101906121d1565b015190508380610b9f565b9250600184016000526020600020906000935b601f1984168510612292576001945083601f19811610612279575b505050811b016001820155610bb7565b015160001960f88460031b161c19169055838080612269565b8181015183556020948501946001909301929091019061224e565b015190508380610b3f565b9250836000526020600020906000935b601f1984168510612309576001945083601f198116106122f0575b505050811b018155610b54565b015160001960f88460031b161c191690558380806122e3565b818101518355602094850194600190930192909101906122c8565b60405162461bcd60e51b815260206004820152600b60248201526a139bdd081cdd195dd85c9960aa1b6044820152606490fd5b34610496576000366003190112610496576020600254604051908152f35b34610496576020366003190112610496576004356001600160401b038111610496576123a5903690600401612ae3565b906040516123b2816129b8565b60608152602081016060905260408101606090526060810160609052608081016060905260a081016060905260c081016060905260e08101606090526101008101606090526101208101606090526101408101606090526101608101606090526101808101606090526101a08101606090526101c08101606090526101e08101606090526102008101606090526102208101606090526102408101606090526102608101606090526102808101606090526102a08101606090526102c0016060905281604051928392833781016001815203602001902060405190612496826129b8565b61249f816129f5565b82526124ad600182016129f5565b60208301526124be600282016129f5565b60408301526124cf600382016129f5565b60608301526124e0600482016129f5565b60808301526124f1600582016129f5565b60a0830152612502600682016129f5565b60c0830152612513600782016129f5565b60e0830152612524600882016129f5565b610100830152612536600982016129f5565b610120830152612548600a82016129f5565b61014083015261255a600b82016129f5565b61016083015261256c600c82016129f5565b61018083015261257e600d82016129f5565b6101a0830152612590600e82016129f5565b6101c08301526125a2600f82016129f5565b6101e08301526125b4601082016129f5565b6102008301526125c6601182016129f5565b6102208301526125d8601282016129f5565b6102408301526125ea601382016129f5565b6102608301526125fc601482016129f5565b61028083015261260e601582016129f5565b6102a0830152601601612620906129f5565b6102c08201526040518091602082528051602083016102e09052610300830161264891612abe565b6020820151838203601f190160408501526126639190612abe565b6040820151838203601f1901606085015261267e9190612abe565b6060820151838203601f190160808501526126999190612abe565b6080820151838203601f190160a08501526126b49190612abe565b60a0820151838203601f190160c08501526126cf9190612abe565b60c0820151838203601f190160e08501526126ea9190612abe565b60e0820151838203601f19016101008501526127069190612abe565b610100820151838203601f19016101208501526127239190612abe565b610120820151838203601f19016101408501526127409190612abe565b610140820151838203601f190161016085015261275d9190612abe565b610160820151838203601f190161018085015261277a9190612abe565b610180820151838203601f19016101a08501526127979190612abe565b6101a0820151838203601f19016101c08501526127b49190612abe565b6101c0820151838203601f19016101e08501526127d19190612abe565b6101e0820151838203601f19016102008501526127ee9190612abe565b610200820151838203601f190161022085015261280b9190612abe565b610220820151838203601f19016102408501526128289190612abe565b610240820151838203601f19016102608501526128459190612abe565b610260820151838203601f19016102808501526128629190612abe565b610280820151838203601f19016102a085015261287f9190612abe565b6102a0820151838203601f19016102c085015261289c9190612abe565b906102c0015190601f19838203016102e08401526128b991612abe565b0390f35b34610496576000366003190112610496576000546040516001600160a01b039091168152602090f35b34610496576020366003190112610496576004356002548110156104965761290d90612931565b6117db5761291d6128b9916129f5565b604051918291602083526020830190612abe565b6002548110156129685760026000527f405787fa12a823e0f2b7631cc41b3ba8828b3321ca811111fa75cd3aa3bb5ace0190600090565b634e487b7160e01b600052603260045260246000fd5b90600182811c921680156129ae575b602083101461299857565b634e487b7160e01b600052602260045260246000fd5b91607f169161298d565b6102e081019081106001600160401b038211176117c557604052565b90601f801991011681019081106001600160401b038211176117c557604052565b9060405191826000825492612a098461297e565b908184526001948581169081600014612a785750600114612a35575b5050612a33925003836129d4565b565b9093915060005260209081600020936000915b818310612a60575050612a3393508201013880612a25565b85548884018501529485019487945091830191612a48565b915050612a3394506020925060ff191682840152151560051b8201013880612a25565b60005b838110612aae5750506000910152565b8181015183820152602001612a9e565b90602091612ad781518092818552858086019101612a9b565b601f01601f1916010190565b9181601f84011215610496578235916001600160401b038311610496576020838186019501011161049657565b9291926001600160401b0382116117c55760405191612b39601f8201601f1916602001846129d4565b829481845281830111610496578281602093846000960137010152565b90601f8111612b6457505050565b600091825260208220906020601f850160051c83019410612ba0575b601f0160051c01915b828110612b9557505050565b818155600101612b89565b9092508290612b80565b908060209392818452848401376000828201840152601f01601f191601019056fea2646970667358221220924afa4b35925c9dfb95f57263a3ea55b0301504d995ca700bce989f5650113864736f6c63430008140033","opcodes":"PUSH1 0x80 DUP1 PUSH1 0x40 MSTORE CALLVALUE PUSH2 0x28 JUMPI PUSH1 0x0 DUP1 SLOAD PUSH1 0x1 PUSH1 0x1 PUSH1 0xA0 SHL SUB NOT AND CALLER OR SWAP1 SSTORE PUSH2 0x2C01 SWAP1 DUP2 PUSH2 0x2E DUP3 CODECOPY RETURN JUMPDEST PUSH1 0x0 DUP1 REVERT INVALID PUSH2 0x840 PUSH1 0x40 MSTORE PUSH1 0x4 CALLDATASIZE LT ISZERO PUSH2 0x13 JUMPI PUSH1 0x0 DUP1 REVERT JUMPDEST PUSH1 0x0 CALLDATALOAD PUSH1 0xE0 SHR DUP1 PUSH4 0xCB6AAF1 EQ PUSH2 0x28E6 JUMPI DUP1 PUSH4 0x637EEA19 EQ PUSH2 0x28BD JUMPI DUP1 PUSH4 0x83361522 EQ PUSH2 0x2375 JUMPI DUP1 PUSH4 0xC212D16B EQ PUSH2 0x2357 JUMPI DUP1 PUSH4 0xD3E90834 EQ PUSH2 0x49B JUMPI PUSH4 0xDBC21424 EQ PUSH2 0x5F JUMPI PUSH1 0x0 DUP1 REVERT JUMPDEST CALLVALUE PUSH2 0x496 JUMPI PUSH1 0x20 CALLDATASIZE PUSH1 0x3 NOT ADD SLT PUSH2 0x496 JUMPI PUSH1 0x4 CALLDATALOAD PUSH1 0x1 PUSH1 0x1 PUSH1 0x40 SHL SUB DUP2 GT PUSH2 0x496 JUMPI CALLDATASIZE PUSH1 0x23 DUP3 ADD SLT ISZERO PUSH2 0x496 JUMPI CALLDATASIZE DUP2 PUSH1 0x4 ADD CALLDATALOAD SWAP2 PUSH1 0x24 ADD SWAP2 PUSH2 0xA0 SWAP3 PUSH2 0x2B10 JUMP JUMPDEST PUSH1 0x40 MLOAD DUP2 DUP2 DUP1 SWAP4 MLOAD PUSH1 0x20 DUP2 SWAP4 ADD SWAP2 PUSH2 0xB7 SWAP3 PUSH2 0x2A9B JUMP JUMPDEST DUP2 ADD PUSH1 0x1 DUP2 MSTORE SUB PUSH1 0x20 ADD SWAP1 KECCAK256 DUP1 PUSH2 0x580 MSTORE PUSH2 0xD1 SWAP1 PUSH2 0x29F5 JUMP JUMPDEST PUSH2 0x580 MLOAD PUSH1 0x1 ADD PUSH2 0xE1 SWAP1 PUSH2 0x29F5 JUMP JUMPDEST PUSH2 0x7C0 MSTORE PUSH2 0x580 MLOAD PUSH1 0x2 ADD PUSH2 0xF5 SWAP1 PUSH2 0x29F5 JUMP JUMPDEST PUSH2 0x340 MSTORE PUSH2 0x580 MLOAD PUSH1 0x3 ADD PUSH2 0x109 SWAP1 PUSH2 0x29F5 JUMP JUMPDEST PUSH2 0x4C0 MSTORE PUSH2 0x580 MLOAD PUSH1 0x4 ADD PUSH2 0x11D SWAP1 PUSH2 0x29F5 JUMP JUMPDEST PUSH2 0x580 MLOAD PUSH1 0x5 ADD PUSH2 0x12D SWAP1 PUSH2 0x29F5 JUMP JUMPDEST PUSH2 0x580 MLOAD PUSH1 0x6 ADD PUSH2 0x13D SWAP1 PUSH2 0x29F5 JUMP JUMPDEST PUSH2 0x580 MLOAD PUSH1 0x7 ADD PUSH2 0x14D SWAP1 PUSH2 0x29F5 JUMP JUMPDEST PUSH2 0x580 MLOAD PUSH1 0x8 ADD PUSH2 0x15D SWAP1 PUSH2 0x29F5 JUMP JUMPDEST PUSH2 0x580 MLOAD PUSH1 0x9 ADD PUSH2 0x16D SWAP1 PUSH2 0x29F5 JUMP JUMPDEST PUSH2 0x580 MLOAD PUSH1 0xA ADD PUSH2 0x17D SWAP1 PUSH2 0x29F5 JUMP JUMPDEST SWAP2 PUSH2 0x580 MLOAD PUSH1 0xB ADD PUSH2 0x18E SWAP1 PUSH2 0x29F5 JUMP JUMPDEST SWAP4 PUSH2 0x580 MLOAD PUSH1 0xC ADD PUSH2 0x19F SWAP1 PUSH2 0x29F5 JUMP JUMPDEST SWAP6 PUSH2 0x580 MLOAD PUSH1 0xD ADD PUSH2 0x1B0 SWAP1 PUSH2 0x29F5 JUMP JUMPDEST SWAP8 PUSH2 0x580 MLOAD PUSH1 0xE ADD PUSH2 0x1C1 SWAP1 PUSH2 0x29F5 JUMP JUMPDEST SWAP10 PUSH2 0x580 MLOAD PUSH1 0xF ADD PUSH2 0x1D2 SWAP1 PUSH2 0x29F5 JUMP JUMPDEST SWAP12 PUSH2 0x580 MLOAD PUSH1 0x10 ADD PUSH2 0x1E3 SWAP1 PUSH2 0x29F5 JUMP JUMPDEST PUSH2 0x440 MSTORE PUSH2 0x580 MLOAD PUSH1 0x11 ADD PUSH2 0x1F7 SWAP1 PUSH2 0x29F5 JUMP JUMPDEST PUSH1 0xC0 MSTORE PUSH2 0x580 MLOAD PUSH1 0x12 ADD PUSH2 0x20A SWAP1 PUSH2 0x29F5 JUMP JUMPDEST PUSH2 0x1C0 MSTORE PUSH2 0x580 MLOAD PUSH1 0x13 ADD PUSH2 0x21E SWAP1 PUSH2 0x29F5 JUMP JUMPDEST PUSH2 0x2E0 MSTORE PUSH2 0x580 MLOAD PUSH1 0x14 ADD PUSH2 0x232 SWAP1 PUSH2 0x29F5 JUMP JUMPDEST PUSH2 0x320 MSTORE PUSH2 0x580 MLOAD PUSH1 0x15 ADD PUSH2 0x246 SWAP1 PUSH2 0x29F5 JUMP JUMPDEST PUSH2 0x820 MSTORE PUSH2 0x580 MLOAD PUSH1 0x16 ADD PUSH2 0x25A SWAP1 PUSH2 0x29F5 JUMP JUMPDEST PUSH2 0x4A0 MSTORE PUSH1 0x40 MLOAD DUP1 PUSH2 0x460 MSTORE PUSH2 0x2E0 SWAP1 MSTORE PUSH2 0x460 MLOAD PUSH2 0x2E0 ADD PUSH2 0x27C SWAP2 PUSH2 0x2ABE JUMP JUMPDEST PUSH2 0x460 MLOAD DUP1 DUP3 SUB SWAP1 PUSH1 0x20 ADD MSTORE PUSH2 0x7C0 MLOAD SWAP1 PUSH2 0x296 SWAP2 PUSH2 0x2ABE JUMP JUMPDEST PUSH2 0x460 MLOAD DUP1 DUP3 SUB SWAP1 PUSH1 0x40 ADD MSTORE PUSH2 0x340 MLOAD SWAP1 PUSH2 0x2B0 SWAP2 PUSH2 0x2ABE JUMP JUMPDEST PUSH2 0x460 MLOAD DUP1 DUP3 SUB SWAP1 PUSH1 0x60 ADD MSTORE PUSH2 0x4C0 MLOAD SWAP1 PUSH2 0x2CA SWAP2 PUSH2 0x2ABE JUMP JUMPDEST PUSH2 0x460 MLOAD DUP1 DUP3 SUB SWAP1 PUSH1 0x80 ADD MSTORE PUSH2 0x2DF SWAP2 PUSH2 0x2ABE JUMP JUMPDEST PUSH2 0x460 MLOAD DUP1 DUP3 SUB SWAP1 PUSH1 0xA0 ADD MSTORE PUSH2 0x2F4 SWAP2 PUSH2 0x2ABE JUMP JUMPDEST PUSH2 0x460 MLOAD DUP1 DUP3 SUB SWAP1 PUSH1 0xC0 ADD MSTORE PUSH2 0x309 SWAP2 PUSH2 0x2ABE JUMP JUMPDEST PUSH2 0x460 MLOAD DUP1 DUP3 SUB SWAP1 PUSH1 0xE0 ADD MSTORE PUSH2 0x31E SWAP2 PUSH2 0x2ABE JUMP JUMPDEST PUSH2 0x460 MLOAD DUP1 DUP3 SUB SWAP1 PUSH2 0x100 ADD MSTORE PUSH2 0x334 SWAP2 PUSH2 0x2ABE JUMP JUMPDEST PUSH2 0x460 MLOAD DUP1 DUP3 SUB SWAP1 PUSH2 0x120 ADD MSTORE PUSH2 0x34A SWAP2 PUSH2 0x2ABE JUMP JUMPDEST PUSH2 0x460 MLOAD DUP1 DUP3 SUB SWAP1 PUSH2 0x140 ADD MSTORE PUSH2 0x360 SWAP2 PUSH2 0x2ABE JUMP JUMPDEST PUSH2 0x460 MLOAD DUP1 DUP3 SUB SWAP1 PUSH2 0x160 ADD MSTORE PUSH2 0x376 SWAP2 PUSH2 0x2ABE JUMP JUMPDEST PUSH2 0x460 MLOAD DUP1 DUP3 SUB SWAP1 PUSH2 0x180 ADD MSTORE PUSH2 0x38C SWAP2 PUSH2 0x2ABE JUMP JUMPDEST PUSH2 0x460 MLOAD DUP1 DUP3 SUB SWAP1 PUSH2 0x1A0 ADD MSTORE PUSH2 0x3A2 SWAP2 PUSH2 0x2ABE JUMP JUMPDEST PUSH2 0x460 MLOAD DUP1 DUP3 SUB SWAP1 PUSH2 0x1C0 ADD MSTORE PUSH2 0x3B8 SWAP2 PUSH2 0x2ABE JUMP JUMPDEST PUSH2 0x460 MLOAD DUP1 DUP3 SUB SWAP1 PUSH2 0x1E0 ADD MSTORE PUSH2 0x3CE SWAP2 PUSH2 0x2ABE JUMP JUMPDEST PUSH2 0x460 MLOAD DUP1 DUP3 SUB SWAP1 PUSH2 0x200 ADD MSTORE PUSH2 0x440 MLOAD SWAP1 PUSH2 0x3E9 SWAP2 PUSH2 0x2ABE JUMP JUMPDEST PUSH2 0x460 MLOAD DUP1 DUP3 SUB SWAP1 PUSH2 0x220 ADD MSTORE PUSH1 0xC0 MLOAD SWAP1 PUSH2 0x403 SWAP2 PUSH2 0x2ABE JUMP JUMPDEST PUSH2 0x460 MLOAD DUP1 DUP3 SUB SWAP1 PUSH2 0x240 ADD MSTORE PUSH2 0x1C0 MLOAD SWAP1 PUSH2 0x41E SWAP2 PUSH2 0x2ABE JUMP JUMPDEST PUSH2 0x460 MLOAD DUP1 DUP3 SUB SWAP1 PUSH2 0x260 ADD MSTORE PUSH2 0x2E0 MLOAD SWAP1 PUSH2 0x439 SWAP2 PUSH2 0x2ABE JUMP JUMPDEST PUSH2 0x460 MLOAD DUP1 DUP3 SUB SWAP1 PUSH2 0x280 ADD MSTORE PUSH2 0x320 MLOAD SWAP1 PUSH2 0x454 SWAP2 PUSH2 0x2ABE JUMP JUMPDEST PUSH2 0x460 MLOAD DUP1 DUP3 SUB SWAP1 PUSH2 0x2A0 ADD MSTORE PUSH2 0x820 MLOAD SWAP1 PUSH2 0x46F SWAP2 PUSH2 0x2ABE JUMP JUMPDEST PUSH2 0x460 MLOAD DUP1 DUP3 SUB SWAP1 PUSH2 0x2C0 ADD MSTORE PUSH2 0x460 MLOAD SWAP1 PUSH2 0x4A0 MLOAD SWAP1 PUSH2 0x48F SWAP2 PUSH2 0x2ABE JUMP JUMPDEST SUB PUSH2 0x460 MLOAD RETURN JUMPDEST PUSH1 0x0 DUP1 REVERT JUMPDEST CALLVALUE PUSH2 0x496 JUMPI PUSH2 0x300 CALLDATASIZE PUSH1 0x3 NOT ADD SLT PUSH2 0x496 JUMPI PUSH1 0x4 CALLDATALOAD PUSH1 0x1 PUSH1 0x1 PUSH1 0x40 SHL SUB DUP2 GT PUSH2 0x496 JUMPI PUSH2 0x4CC SWAP1 CALLDATASIZE SWAP1 PUSH1 0x4 ADD PUSH2 0x2AE3 JUMP JUMPDEST PUSH2 0x140 MSTORE PUSH2 0x300 MSTORE PUSH1 0x24 CALLDATALOAD PUSH1 0x1 PUSH1 0x1 PUSH1 0x40 SHL SUB DUP2 GT PUSH2 0x496 JUMPI PUSH2 0x4F3 SWAP1 CALLDATASIZE SWAP1 PUSH1 0x4 ADD PUSH2 0x2AE3 JUMP JUMPDEST PUSH2 0x4E0 MSTORE PUSH2 0x200 MSTORE PUSH1 0x44 CALLDATALOAD PUSH1 0x1 PUSH1 0x1 PUSH1 0x40 SHL SUB DUP2 GT PUSH2 0x496 JUMPI PUSH2 0x51A SWAP1 CALLDATASIZE SWAP1 PUSH1 0x4 ADD PUSH2 0x2AE3 JUMP JUMPDEST PUSH2 0x5E0 MSTORE PUSH2 0x420 MSTORE PUSH1 0x64 CALLDATALOAD PUSH1 0x1 PUSH1 0x1 PUSH1 0x40 SHL SUB DUP2 GT PUSH2 0x496 JUMPI PUSH2 0x541 SWAP1 CALLDATASIZE SWAP1 PUSH1 0x4 ADD PUSH2 0x2AE3 JUMP JUMPDEST PUSH2 0x2A0 MSTORE PUSH2 0x500 MSTORE PUSH1 0x84 CALLDATALOAD PUSH1 0x1 PUSH1 0x1 PUSH1 0x40 SHL SUB DUP2 GT PUSH2 0x496 JUMPI PUSH2 0x568 SWAP1 CALLDATASIZE SWAP1 PUSH1 0x4 ADD PUSH2 0x2AE3 JUMP JUMPDEST PUSH2 0x3A0 MSTORE PUSH2 0x760 MSTORE PUSH1 0x1 PUSH1 0x1 PUSH1 0x40 SHL SUB PUSH1 0xA4 CALLDATALOAD GT PUSH2 0x496 JUMPI PUSH2 0x58F CALLDATASIZE PUSH1 0xA4 CALLDATALOAD PUSH1 0x4 ADD PUSH2 0x2AE3 JUMP JUMPDEST PUSH2 0x400 MSTORE PUSH2 0x7E0 MSTORE PUSH1 0x1 PUSH1 0x1 PUSH1 0x40 SHL SUB PUSH1 0xC4 CALLDATALOAD GT PUSH2 0x496 JUMPI PUSH2 0x5B6 CALLDATASIZE PUSH1 0xC4 CALLDATALOAD PUSH1 0x4 ADD PUSH2 0x2AE3 JUMP JUMPDEST PUSH2 0x3E0 MSTORE PUSH2 0x2C0 MSTORE PUSH1 0x1 PUSH1 0x1 PUSH1 0x40 SHL SUB PUSH1 0xE4 CALLDATALOAD GT PUSH2 0x496 JUMPI PUSH2 0x5DD CALLDATASIZE PUSH1 0xE4 CALLDATALOAD PUSH1 0x4 ADD PUSH2 0x2AE3 JUMP JUMPDEST PUSH2 0x700 MSTORE PUSH2 0x780 MSTORE PUSH1 0x1 PUSH1 0x1 PUSH1 0x40 SHL SUB PUSH2 0x104 CALLDATALOAD GT PUSH2 0x496 JUMPI PUSH2 0x606 CALLDATASIZE PUSH2 0x104 CALLDATALOAD PUSH1 0x4 ADD PUSH2 0x2AE3 JUMP JUMPDEST PUSH2 0x5A0 MSTORE PUSH2 0x380 MSTORE PUSH1 0x1 PUSH1 0x1 PUSH1 0x40 SHL SUB PUSH2 0x124 CALLDATALOAD GT PUSH2 0x496 JUMPI PUSH2 0x62F CALLDATASIZE PUSH2 0x124 CALLDATALOAD PUSH1 0x4 ADD PUSH2 0x2AE3 JUMP JUMPDEST PUSH2 0x360 MSTORE PUSH2 0x480 MSTORE PUSH1 0x1 PUSH1 0x1 PUSH1 0x40 SHL SUB PUSH2 0x144 CALLDATALOAD GT PUSH2 0x496 JUMPI PUSH2 0x658 CALLDATASIZE PUSH2 0x144 CALLDATALOAD PUSH1 0x4 ADD PUSH2 0x2AE3 JUMP JUMPDEST PUSH2 0x800 MSTORE PUSH1 0x80 MSTORE PUSH1 0x1 PUSH1 0x1 PUSH1 0x40 SHL SUB PUSH2 0x164 CALLDATALOAD GT PUSH2 0x496 JUMPI PUSH2 0x680 CALLDATASIZE PUSH2 0x164 CALLDATALOAD PUSH1 0x4 ADD PUSH2 0x2AE3 JUMP JUMPDEST PUSH2 0x540 MSTORE PUSH1 0xE0 MSTORE PUSH1 0x1 PUSH1 0x1 PUSH1 0x40 SHL SUB PUSH2 0x184 CALLDATALOAD GT PUSH2 0x496 JUMPI PUSH2 0x6A8 CALLDATASIZE PUSH2 0x184 CALLDATALOAD PUSH1 0x4 ADD PUSH2 0x2AE3 JUMP JUMPDEST PUSH2 0x220 MSTORE PUSH2 0x260 MSTORE PUSH1 0x1 PUSH1 0x1 PUSH1 0x40 SHL SUB PUSH2 0x1A4 CALLDATALOAD GT PUSH2 0x496 JUMPI PUSH2 0x6D1 CALLDATASIZE PUSH2 0x1A4 CALLDATALOAD PUSH1 0x4 ADD PUSH2 0x2AE3 JUMP JUMPDEST PUSH2 0x620 MSTORE PUSH2 0x6E0 MSTORE PUSH1 0x1 PUSH1 0x1 PUSH1 0x40 SHL SUB PUSH2 0x1C4 CALLDATALOAD GT PUSH2 0x496 JUMPI PUSH2 0x6FA CALLDATASIZE PUSH2 0x1C4 CALLDATALOAD PUSH1 0x4 ADD PUSH2 0x2AE3 JUMP JUMPDEST PUSH2 0x640 MSTORE PUSH2 0x600 MSTORE PUSH1 0x1 PUSH1 0x1 PUSH1 0x40 SHL SUB PUSH2 0x1E4 CALLDATALOAD GT PUSH2 0x496 JUMPI PUSH2 0x723 CALLDATASIZE PUSH2 0x1E4 CALLDATALOAD PUSH1 0x4 ADD PUSH2 0x2AE3 JUMP JUMPDEST PUSH2 0x720 MSTORE PUSH2 0x180 MSTORE PUSH1 0x1 PUSH1 0x1 PUSH1 0x40 SHL SUB PUSH2 0x204 CALLDATALOAD GT PUSH2 0x496 JUMPI PUSH2 0x74C CALLDATASIZE PUSH2 0x204 CALLDATALOAD PUSH1 0x4 ADD PUSH2 0x2AE3 JUMP JUMPDEST PUSH2 0x7A0 MSTORE PUSH2 0x520 MSTORE PUSH1 0x1 PUSH1 0x1 PUSH1 0x40 SHL SUB PUSH2 0x224 CALLDATALOAD GT PUSH2 0x496 JUMPI PUSH2 0x775 CALLDATASIZE PUSH2 0x224 CALLDATALOAD PUSH1 0x4 ADD PUSH2 0x2AE3 JUMP JUMPDEST PUSH2 0x1A0 MSTORE PUSH2 0x6A0 MSTORE PUSH1 0x1 PUSH1 0x1 PUSH1 0x40 SHL SUB PUSH2 0x244 CALLDATALOAD GT PUSH2 0x496 JUMPI PUSH2 0x79E CALLDATASIZE PUSH2 0x244 CALLDATALOAD PUSH1 0x4 ADD PUSH2 0x2AE3 JUMP JUMPDEST PUSH1 0xA0 MSTORE PUSH2 0x160 MSTORE PUSH1 0x1 PUSH1 0x1 PUSH1 0x40 SHL SUB PUSH2 0x264 CALLDATALOAD GT PUSH2 0x496 JUMPI PUSH2 0x7C6 CALLDATASIZE PUSH2 0x264 CALLDATALOAD PUSH1 0x4 ADD PUSH2 0x2AE3 JUMP JUMPDEST PUSH2 0x560 MSTORE PUSH2 0x240 MSTORE PUSH1 0x1 PUSH1 0x1 PUSH1 0x40 SHL SUB PUSH2 0x284 CALLDATALOAD GT PUSH2 0x496 JUMPI PUSH2 0x7EF CALLDATASIZE PUSH2 0x284 CALLDATALOAD PUSH1 0x4 ADD PUSH2 0x2AE3 JUMP JUMPDEST PUSH2 0x6C0 MSTORE PUSH2 0x100 MSTORE PUSH1 0x1 PUSH1 0x1 PUSH1 0x40 SHL SUB PUSH2 0x2A4 CALLDATALOAD GT PUSH2 0x496 JUMPI PUSH2 0x818 CALLDATASIZE PUSH2 0x2A4 CALLDATALOAD PUSH1 0x4 ADD PUSH2 0x2AE3 JUMP JUMPDEST PUSH2 0x120 MSTORE PUSH2 0x680 MSTORE PUSH1 0x1 PUSH1 0x1 PUSH1 0x40 SHL SUB PUSH2 0x2C4 CALLDATALOAD GT PUSH2 0x496 JUMPI PUSH2 0x841 CALLDATASIZE PUSH2 0x2C4 CALLDATALOAD PUSH1 0x4 ADD PUSH2 0x2AE3 JUMP JUMPDEST PUSH2 0x3C0 MSTORE PUSH2 0x1E0 MSTORE PUSH1 0x1 PUSH1 0x1 PUSH1 0x40 SHL SUB PUSH2 0x2E4 CALLDATALOAD GT PUSH2 0x496 JUMPI PUSH2 0x86A CALLDATASIZE PUSH2 0x2E4 CALLDATALOAD PUSH1 0x4 ADD PUSH2 0x2AE3 JUMP JUMPDEST PUSH2 0x660 MSTORE PUSH2 0x5C0 MSTORE PUSH1 0x0 SLOAD PUSH1 0x1 PUSH1 0x1 PUSH1 0xA0 SHL SUB AND CALLER SUB PUSH2 0x2324 JUMPI PUSH2 0x894 PUSH1 0x40 MLOAD DUP1 PUSH2 0x280 MSTORE PUSH2 0x29B8 JUMP JUMPDEST PUSH2 0x8A5 CALLDATASIZE PUSH2 0x4E0 MLOAD PUSH2 0x200 MLOAD PUSH2 0x2B10 JUMP JUMPDEST PUSH2 0x280 MLOAD MSTORE PUSH2 0x8BB CALLDATASIZE PUSH2 0x5E0 MLOAD PUSH2 0x420 MLOAD PUSH2 0x2B10 JUMP JUMPDEST PUSH1 0x20 PUSH2 0x280 MLOAD ADD MSTORE PUSH2 0x8D4 CALLDATASIZE PUSH2 0x2A0 MLOAD PUSH2 0x500 MLOAD PUSH2 0x2B10 JUMP JUMPDEST PUSH1 0x40 PUSH2 0x280 MLOAD ADD MSTORE PUSH2 0x8ED CALLDATASIZE PUSH2 0x3A0 MLOAD PUSH2 0x760 MLOAD PUSH2 0x2B10 JUMP JUMPDEST PUSH1 0x60 PUSH2 0x280 MLOAD ADD MSTORE PUSH2 0x906 CALLDATASIZE PUSH2 0x400 MLOAD PUSH2 0x7E0 MLOAD PUSH2 0x2B10 JUMP JUMPDEST PUSH1 0x80 PUSH2 0x280 MLOAD ADD MSTORE PUSH2 0x91F CALLDATASIZE PUSH2 0x3E0 MLOAD PUSH2 0x2C0 MLOAD PUSH2 0x2B10 JUMP JUMPDEST PUSH1 0xA0 PUSH2 0x280 MLOAD ADD MSTORE PUSH2 0x938 CALLDATASIZE PUSH2 0x700 MLOAD PUSH2 0x780 MLOAD PUSH2 0x2B10 JUMP JUMPDEST PUSH1 0xC0 PUSH2 0x280 MLOAD ADD MSTORE PUSH2 0x951 CALLDATASIZE PUSH2 0x5A0 MLOAD PUSH2 0x380 MLOAD PUSH2 0x2B10 JUMP JUMPDEST PUSH1 0xE0 PUSH2 0x280 MLOAD ADD MSTORE PUSH2 0x96A CALLDATASIZE PUSH2 0x360 MLOAD PUSH2 0x480 MLOAD PUSH2 0x2B10 JUMP JUMPDEST PUSH2 0x100 PUSH2 0x280 MLOAD ADD MSTORE PUSH2 0x983 CALLDATASIZE PUSH2 0x800 MLOAD PUSH1 0x80 MLOAD PUSH2 0x2B10 JUMP JUMPDEST PUSH2 0x120 PUSH2 0x280 MLOAD ADD MSTORE PUSH2 0x99C CALLDATASIZE PUSH2 0x540 MLOAD PUSH1 0xE0 MLOAD PUSH2 0x2B10 JUMP JUMPDEST PUSH2 0x140 PUSH2 0x280 MLOAD ADD MSTORE PUSH2 0x9B6 CALLDATASIZE PUSH2 0x220 MLOAD PUSH2 0x260 MLOAD PUSH2 0x2B10 JUMP JUMPDEST PUSH2 0x160 PUSH2 0x280 MLOAD ADD MSTORE PUSH2 0x9D0 CALLDATASIZE PUSH2 0x620 MLOAD PUSH2 0x6E0 MLOAD PUSH2 0x2B10 JUMP JUMPDEST PUSH2 0x180 PUSH2 0x280 MLOAD ADD MSTORE PUSH2 0x9EA CALLDATASIZE PUSH2 0x640 MLOAD PUSH2 0x600 MLOAD PUSH2 0x2B10 JUMP JUMPDEST PUSH2 0x1A0 PUSH2 0x280 MLOAD ADD MSTORE PUSH2 0xA04 CALLDATASIZE PUSH2 0x720 MLOAD PUSH2 0x180 MLOAD PUSH2 0x2B10 JUMP JUMPDEST PUSH2 0x1C0 PUSH2 0x280 MLOAD ADD MSTORE PUSH2 0xA1E CALLDATASIZE PUSH2 0x7A0 MLOAD PUSH2 0x520 MLOAD PUSH2 0x2B10 JUMP JUMPDEST PUSH2 0x1E0 PUSH2 0x280 MLOAD ADD MSTORE PUSH2 0xA38 CALLDATASIZE PUSH2 0x1A0 MLOAD PUSH2 0x6A0 MLOAD PUSH2 0x2B10 JUMP JUMPDEST PUSH2 0x200 PUSH2 0x280 MLOAD ADD MSTORE PUSH2 0xA51 CALLDATASIZE PUSH1 0xA0 MLOAD PUSH2 0x160 MLOAD PUSH2 0x2B10 JUMP JUMPDEST PUSH2 0x220 PUSH2 0x280 MLOAD ADD MSTORE PUSH2 0xA6B CALLDATASIZE PUSH2 0x560 MLOAD PUSH2 0x240 MLOAD PUSH2 0x2B10 JUMP JUMPDEST PUSH2 0x240 PUSH2 0x280 MLOAD ADD MSTORE PUSH2 0xA85 CALLDATASIZE PUSH2 0x6C0 MLOAD PUSH2 0x100 MLOAD PUSH2 0x2B10 JUMP JUMPDEST PUSH2 0x260 PUSH2 0x280 MLOAD ADD MSTORE PUSH2 0xA9F CALLDATASIZE PUSH2 0x120 MLOAD PUSH2 0x680 MLOAD PUSH2 0x2B10 JUMP JUMPDEST PUSH2 0x280 DUP1 MLOAD ADD MSTORE PUSH2 0xAB7 CALLDATASIZE PUSH2 0x3C0 MLOAD PUSH2 0x1E0 MLOAD PUSH2 0x2B10 JUMP JUMPDEST PUSH2 0x2A0 PUSH2 0x280 MLOAD ADD MSTORE PUSH2 0xAD1 CALLDATASIZE PUSH2 0x660 MLOAD PUSH2 0x5C0 MLOAD PUSH2 0x2B10 JUMP JUMPDEST PUSH2 0x2C0 PUSH2 0x280 MLOAD ADD MSTORE PUSH1 0x40 MLOAD PUSH2 0x140 MLOAD PUSH2 0x300 MLOAD DUP3 CALLDATACOPY PUSH1 0x1 PUSH2 0x140 MLOAD DUP3 ADD MSTORE PUSH1 0x20 DUP2 PUSH2 0x140 MLOAD DUP2 ADD SUB ADD SWAP1 KECCAK256 PUSH2 0x280 MLOAD MLOAD DUP1 MLOAD SWAP1 PUSH1 0x1 PUSH1 0x1 PUSH1 0x40 SHL SUB DUP3 GT PUSH2 0x17C5 JUMPI DUP2 SWAP1 PUSH2 0xB29 DUP3 PUSH2 0xB23 DUP7 SLOAD PUSH2 0x297E JUMP JUMPDEST DUP7 PUSH2 0x2B56 JUMP JUMPDEST PUSH1 0x20 SWAP1 PUSH1 0x1F DUP4 GT PUSH1 0x1 EQ PUSH2 0x22B8 JUMPI PUSH1 0x0 SWAP3 PUSH2 0x22AD JUMPI JUMPDEST POP POP DUP2 PUSH1 0x1 SHL SWAP2 PUSH1 0x0 NOT SWAP1 PUSH1 0x3 SHL SHR NOT AND OR DUP2 SSTORE JUMPDEST PUSH1 0x20 PUSH2 0x280 MLOAD ADD MLOAD DUP1 MLOAD SWAP1 PUSH1 0x1 PUSH1 0x1 PUSH1 0x40 SHL SUB DUP3 GT PUSH2 0x17C5 JUMPI DUP2 SWAP1 PUSH2 0xB89 DUP3 PUSH2 0xB80 PUSH1 0x1 DUP8 ADD SLOAD PUSH2 0x297E JUMP JUMPDEST PUSH1 0x1 DUP8 ADD PUSH2 0x2B56 JUMP JUMPDEST PUSH1 0x20 SWAP1 PUSH1 0x1F DUP4 GT PUSH1 0x1 EQ PUSH2 0x223B JUMPI PUSH1 0x0 SWAP3 PUSH2 0x2230 JUMPI JUMPDEST POP POP DUP2 PUSH1 0x1 SHL SWAP2 PUSH1 0x0 NOT SWAP1 PUSH1 0x3 SHL SHR NOT AND OR PUSH1 0x1 DUP3 ADD SSTORE JUMPDEST PUSH1 0x40 PUSH2 0x280 MLOAD ADD MLOAD DUP1 MLOAD SWAP1 PUSH1 0x1 PUSH1 0x1 PUSH1 0x40 SHL SUB DUP3 GT PUSH2 0x17C5 JUMPI DUP2 SWAP1 PUSH2 0xBEC DUP3 PUSH2 0xBE3 PUSH1 0x2 DUP8 ADD SLOAD PUSH2 0x297E JUMP JUMPDEST PUSH1 0x2 DUP8 ADD PUSH2 0x2B56 JUMP JUMPDEST PUSH1 0x20 SWAP1 PUSH1 0x1F DUP4 GT PUSH1 0x1 EQ PUSH2 0x21BE JUMPI PUSH1 0x0 SWAP3 PUSH2 0x21B3 JUMPI JUMPDEST POP POP DUP2 PUSH1 0x1 SHL SWAP2 PUSH1 0x0 NOT SWAP1 PUSH1 0x3 SHL SHR NOT AND OR PUSH1 0x2 DUP3 ADD SSTORE JUMPDEST PUSH1 0x60 PUSH2 0x280 MLOAD ADD MLOAD DUP1 MLOAD SWAP1 PUSH1 0x1 PUSH1 0x1 PUSH1 0x40 SHL SUB DUP3 GT PUSH2 0x17C5 JUMPI DUP2 SWAP1 PUSH2 0xC4F DUP3 PUSH2 0xC46 PUSH1 0x3 DUP8 ADD SLOAD PUSH2 0x297E JUMP JUMPDEST PUSH1 0x3 DUP8 ADD PUSH2 0x2B56 JUMP JUMPDEST PUSH1 0x20 SWAP1 PUSH1 0x1F DUP4 GT PUSH1 0x1 EQ PUSH2 0x2141 JUMPI PUSH1 0x0 SWAP3 PUSH2 0x2136 JUMPI JUMPDEST POP POP DUP2 PUSH1 0x1 SHL SWAP2 PUSH1 0x0 NOT SWAP1 PUSH1 0x3 SHL SHR NOT AND OR PUSH1 0x3 DUP3 ADD SSTORE JUMPDEST PUSH1 0x80 PUSH2 0x280 MLOAD ADD MLOAD DUP1 MLOAD SWAP1 PUSH1 0x1 PUSH1 0x1 PUSH1 0x40 SHL SUB DUP3 GT PUSH2 0x17C5 JUMPI DUP2 SWAP1 PUSH2 0xCB2 DUP3 PUSH2 0xCA9 PUSH1 0x4 DUP8 ADD SLOAD PUSH2 0x297E JUMP JUMPDEST PUSH1 0x4 DUP8 ADD PUSH2 0x2B56 JUMP JUMPDEST PUSH1 0x20 SWAP1 PUSH1 0x1F DUP4 GT PUSH1 0x1 EQ PUSH2 0x20C4 JUMPI PUSH1 0x0 SWAP3 PUSH2 0x20B9 JUMPI JUMPDEST POP POP DUP2 PUSH1 0x1 SHL SWAP2 PUSH1 0x0 NOT SWAP1 PUSH1 0x3 SHL SHR NOT AND OR PUSH1 0x4 DUP3 ADD SSTORE JUMPDEST PUSH1 0xA0 PUSH2 0x280 MLOAD ADD MLOAD DUP1 MLOAD SWAP1 PUSH1 0x1 PUSH1 0x1 PUSH1 0x40 SHL SUB DUP3 GT PUSH2 0x17C5 JUMPI DUP2 SWAP1 PUSH2 0xD15 DUP3 PUSH2 0xD0C PUSH1 0x5 DUP8 ADD SLOAD PUSH2 0x297E JUMP JUMPDEST PUSH1 0x5 DUP8 ADD PUSH2 0x2B56 JUMP JUMPDEST PUSH1 0x20 SWAP1 PUSH1 0x1F DUP4 GT PUSH1 0x1 EQ PUSH2 0x2047 JUMPI PUSH1 0x0 SWAP3 PUSH2 0x203C JUMPI JUMPDEST POP POP DUP2 PUSH1 0x1 SHL SWAP2 PUSH1 0x0 NOT SWAP1 PUSH1 0x3 SHL SHR NOT AND OR PUSH1 0x5 DUP3 ADD SSTORE JUMPDEST PUSH1 0xC0 PUSH2 0x280 MLOAD ADD MLOAD DUP1 MLOAD SWAP1 PUSH1 0x1 PUSH1 0x1 PUSH1 0x40 SHL SUB DUP3 GT PUSH2 0x17C5 JUMPI DUP2 SWAP1 PUSH2 0xD78 DUP3 PUSH2 0xD6F PUSH1 0x6 DUP8 ADD SLOAD PUSH2 0x297E JUMP JUMPDEST PUSH1 0x6 DUP8 ADD PUSH2 0x2B56 JUMP JUMPDEST PUSH1 0x20 SWAP1 PUSH1 0x1F DUP4 GT PUSH1 0x1 EQ PUSH2 0x1FCA JUMPI PUSH1 0x0 SWAP3 PUSH2 0x1FBF JUMPI JUMPDEST POP POP DUP2 PUSH1 0x1 SHL SWAP2 PUSH1 0x0 NOT SWAP1 PUSH1 0x3 SHL SHR NOT AND OR PUSH1 0x6 DUP3 ADD SSTORE JUMPDEST PUSH1 0xE0 PUSH2 0x280 MLOAD ADD MLOAD DUP1 MLOAD SWAP1 PUSH1 0x1 PUSH1 0x1 PUSH1 0x40 SHL SUB DUP3 GT PUSH2 0x17C5 JUMPI DUP2 SWAP1 PUSH2 0xDDB DUP3 PUSH2 0xDD2 PUSH1 0x7 DUP8 ADD SLOAD PUSH2 0x297E JUMP JUMPDEST PUSH1 0x7 DUP8 ADD PUSH2 0x2B56 JUMP JUMPDEST PUSH1 0x20 SWAP1 PUSH1 0x1F DUP4 GT PUSH1 0x1 EQ PUSH2 0x1F4D JUMPI PUSH1 0x0 SWAP3 PUSH2 0x1F42 JUMPI JUMPDEST POP POP DUP2 PUSH1 0x1 SHL SWAP2 PUSH1 0x0 NOT SWAP1 PUSH1 0x3 SHL SHR NOT AND OR PUSH1 0x7 DUP3 ADD SSTORE JUMPDEST PUSH2 0x100 PUSH2 0x280 MLOAD ADD MLOAD DUP1 MLOAD SWAP1 PUSH1 0x1 PUSH1 0x1 PUSH1 0x40 SHL SUB DUP3 GT PUSH2 0x17C5 JUMPI DUP2 SWAP1 PUSH2 0xE3F DUP3 PUSH2 0xE36 PUSH1 0x8 DUP8 ADD SLOAD PUSH2 0x297E JUMP JUMPDEST PUSH1 0x8 DUP8 ADD PUSH2 0x2B56 JUMP JUMPDEST PUSH1 0x20 SWAP1 PUSH1 0x1F DUP4 GT PUSH1 0x1 EQ PUSH2 0x1ED0 JUMPI PUSH1 0x0 SWAP3 PUSH2 0x1EC5 JUMPI JUMPDEST POP POP DUP2 PUSH1 0x1 SHL SWAP2 PUSH1 0x0 NOT SWAP1 PUSH1 0x3 SHL SHR NOT AND OR PUSH1 0x8 DUP3 ADD SSTORE JUMPDEST PUSH2 0x120 PUSH2 0x280 MLOAD ADD MLOAD DUP1 MLOAD SWAP1 PUSH1 0x1 PUSH1 0x1 PUSH1 0x40 SHL SUB DUP3 GT PUSH2 0x17C5 JUMPI DUP2 SWAP1 PUSH2 0xEA3 DUP3 PUSH2 0xE9A PUSH1 0x9 DUP8 ADD SLOAD PUSH2 0x297E JUMP JUMPDEST PUSH1 0x9 DUP8 ADD PUSH2 0x2B56 JUMP JUMPDEST PUSH1 0x20 SWAP1 PUSH1 0x1F DUP4 GT PUSH1 0x1 EQ PUSH2 0x1E53 JUMPI PUSH1 0x0 SWAP3 PUSH2 0x1E48 JUMPI JUMPDEST POP POP DUP2 PUSH1 0x1 SHL SWAP2 PUSH1 0x0 NOT SWAP1 PUSH1 0x3 SHL SHR NOT AND OR PUSH1 0x9 DUP3 ADD SSTORE JUMPDEST PUSH2 0x140 PUSH2 0x280 MLOAD ADD MLOAD DUP1 MLOAD SWAP1 PUSH1 0x1 PUSH1 0x1 PUSH1 0x40 SHL SUB DUP3 GT PUSH2 0x17C5 JUMPI DUP2 SWAP1 PUSH2 0xF07 DUP3 PUSH2 0xEFE PUSH1 0xA DUP8 ADD SLOAD PUSH2 0x297E JUMP JUMPDEST PUSH1 0xA DUP8 ADD PUSH2 0x2B56 JUMP JUMPDEST PUSH1 0x20 SWAP1 PUSH1 0x1F DUP4 GT PUSH1 0x1 EQ PUSH2 0x1DD6 JUMPI PUSH1 0x0 SWAP3 PUSH2 0x1DCB JUMPI JUMPDEST POP POP DUP2 PUSH1 0x1 SHL SWAP2 PUSH1 0x0 NOT SWAP1 PUSH1 0x3 SHL SHR NOT AND OR PUSH1 0xA DUP3 ADD SSTORE JUMPDEST PUSH2 0x160 PUSH2 0x280 MLOAD ADD MLOAD DUP1 MLOAD SWAP1 PUSH1 0x1 PUSH1 0x1 PUSH1 0x40 SHL SUB DUP3 GT PUSH2 0x17C5 JUMPI DUP2 SWAP1 PUSH2 0xF6B DUP3 PUSH2 0xF62 PUSH1 0xB DUP8 ADD SLOAD PUSH2 0x297E JUMP JUMPDEST PUSH1 0xB DUP8 ADD PUSH2 0x2B56 JUMP JUMPDEST PUSH1 0x20 SWAP1 PUSH1 0x1F DUP4 GT PUSH1 0x1 EQ PUSH2 0x1D59 JUMPI PUSH1 0x0 SWAP3 PUSH2 0x1D4E JUMPI JUMPDEST POP POP DUP2 PUSH1 0x1 SHL SWAP2 PUSH1 0x0 NOT SWAP1 PUSH1 0x3 SHL SHR NOT AND OR PUSH1 0xB DUP3 ADD SSTORE JUMPDEST PUSH2 0x180 PUSH2 0x280 MLOAD ADD MLOAD DUP1 MLOAD SWAP1 PUSH1 0x1 PUSH1 0x1 PUSH1 0x40 SHL SUB DUP3 GT PUSH2 0x17C5 JUMPI DUP2 SWAP1 PUSH2 0xFCF DUP3 PUSH2 0xFC6 PUSH1 0xC DUP8 ADD SLOAD PUSH2 0x297E JUMP JUMPDEST PUSH1 0xC DUP8 ADD PUSH2 0x2B56 JUMP JUMPDEST PUSH1 0x20 SWAP1 PUSH1 0x1F DUP4 GT PUSH1 0x1 EQ PUSH2 0x1CDC JUMPI PUSH1 0x0 SWAP3 PUSH2 0x1CD1 JUMPI JUMPDEST POP POP DUP2 PUSH1 0x1 SHL SWAP2 PUSH1 0x0 NOT SWAP1 PUSH1 0x3 SHL SHR NOT AND OR PUSH1 0xC DUP3 ADD SSTORE JUMPDEST PUSH2 0x1A0 PUSH2 0x280 MLOAD ADD MLOAD DUP1 MLOAD SWAP1 PUSH1 0x1 PUSH1 0x1 PUSH1 0x40 SHL SUB DUP3 GT PUSH2 0x17C5 JUMPI DUP2 SWAP1 PUSH2 0x1033 DUP3 PUSH2 0x102A PUSH1 0xD DUP8 ADD SLOAD PUSH2 0x297E JUMP JUMPDEST PUSH1 0xD DUP8 ADD PUSH2 0x2B56 JUMP JUMPDEST PUSH1 0x20 SWAP1 PUSH1 0x1F DUP4 GT PUSH1 0x1 EQ PUSH2 0x1C5F JUMPI PUSH1 0x0 SWAP3 PUSH2 0x1C54 JUMPI JUMPDEST POP POP DUP2 PUSH1 0x1 SHL SWAP2 PUSH1 0x0 NOT SWAP1 PUSH1 0x3 SHL SHR NOT AND OR PUSH1 0xD DUP3 ADD SSTORE JUMPDEST PUSH2 0x1C0 PUSH2 0x280 MLOAD ADD MLOAD DUP1 MLOAD SWAP1 PUSH1 0x1 PUSH1 0x1 PUSH1 0x40 SHL SUB DUP3 GT PUSH2 0x17C5 JUMPI DUP2 SWAP1 PUSH2 0x1097 DUP3 PUSH2 0x108E PUSH1 0xE DUP8 ADD SLOAD PUSH2 0x297E JUMP JUMPDEST PUSH1 0xE DUP8 ADD PUSH2 0x2B56 JUMP JUMPDEST PUSH1 0x20 SWAP1 PUSH1 0x1F DUP4 GT PUSH1 0x1 EQ PUSH2 0x1BE2 JUMPI PUSH1 0x0 SWAP3 PUSH2 0x1BD7 JUMPI JUMPDEST POP POP DUP2 PUSH1 0x1 SHL SWAP2 PUSH1 0x0 NOT SWAP1 PUSH1 0x3 SHL SHR NOT AND OR PUSH1 0xE DUP3 ADD SSTORE JUMPDEST PUSH2 0x1E0 PUSH2 0x280 MLOAD ADD MLOAD DUP1 MLOAD SWAP1 PUSH1 0x1 PUSH1 0x1 PUSH1 0x40 SHL SUB DUP3 GT PUSH2 0x17C5 JUMPI DUP2 SWAP1 PUSH2 0x10FB DUP3 PUSH2 0x10F2 PUSH1 0xF DUP8 ADD SLOAD PUSH2 0x297E JUMP JUMPDEST PUSH1 0xF DUP8 ADD PUSH2 0x2B56 JUMP JUMPDEST PUSH1 0x20 SWAP1 PUSH1 0x1F DUP4 GT PUSH1 0x1 EQ PUSH2 0x1B65 JUMPI PUSH1 0x0 SWAP3 PUSH2 0x1B5A JUMPI JUMPDEST POP POP DUP2 PUSH1 0x1 SHL SWAP2 PUSH1 0x0 NOT SWAP1 PUSH1 0x3 SHL SHR NOT AND OR PUSH1 0xF DUP3 ADD SSTORE JUMPDEST PUSH2 0x200 PUSH2 0x280 MLOAD ADD MLOAD DUP1 MLOAD SWAP1 PUSH1 0x1 PUSH1 0x1 PUSH1 0x40 SHL SUB DUP3 GT PUSH2 0x17C5 JUMPI DUP2 SWAP1 PUSH2 0x115F DUP3 PUSH2 0x1156 PUSH1 0x10 DUP8 ADD SLOAD PUSH2 0x297E JUMP JUMPDEST PUSH1 0x10 DUP8 ADD PUSH2 0x2B56 JUMP JUMPDEST PUSH1 0x20 SWAP1 PUSH1 0x1F DUP4 GT PUSH1 0x1 EQ PUSH2 0x1AE8 JUMPI PUSH1 0x0 SWAP3 PUSH2 0x1ADD JUMPI JUMPDEST POP POP DUP2 PUSH1 0x1 SHL SWAP2 PUSH1 0x0 NOT SWAP1 PUSH1 0x3 SHL SHR NOT AND OR PUSH1 0x10 DUP3 ADD SSTORE JUMPDEST PUSH2 0x220 PUSH2 0x280 MLOAD ADD MLOAD DUP1 MLOAD SWAP1 PUSH1 0x1 PUSH1 0x1 PUSH1 0x40 SHL SUB DUP3 GT PUSH2 0x17C5 JUMPI DUP2 SWAP1 PUSH2 0x11C3 DUP3 PUSH2 0x11BA PUSH1 0x11 DUP8 ADD SLOAD PUSH2 0x297E JUMP JUMPDEST PUSH1 0x11 DUP8 ADD PUSH2 0x2B56 JUMP JUMPDEST PUSH1 0x20 SWAP1 PUSH1 0x1F DUP4 GT PUSH1 0x1 EQ PUSH2 0x1A6B JUMPI PUSH1 0x0 SWAP3 PUSH2 0x1A60 JUMPI JUMPDEST POP POP DUP2 PUSH1 0x1 SHL SWAP2 PUSH1 0x0 NOT SWAP1 PUSH1 0x3 SHL SHR NOT AND OR PUSH1 0x11 DUP3 ADD SSTORE JUMPDEST PUSH2 0x240 PUSH2 0x280 MLOAD ADD MLOAD DUP1 MLOAD SWAP1 PUSH1 0x1 PUSH1 0x1 PUSH1 0x40 SHL SUB DUP3 GT PUSH2 0x17C5 JUMPI DUP2 SWAP1 PUSH2 0x1227 DUP3 PUSH2 0x121E PUSH1 0x12 DUP8 ADD SLOAD PUSH2 0x297E JUMP JUMPDEST PUSH1 0x12 DUP8 ADD PUSH2 0x2B56 JUMP JUMPDEST PUSH1 0x20 SWAP1 PUSH1 0x1F DUP4 GT PUSH1 0x1 EQ PUSH2 0x19EE JUMPI PUSH1 0x0 SWAP3 PUSH2 0x19E3 JUMPI JUMPDEST POP POP DUP2 PUSH1 0x1 SHL SWAP2 PUSH1 0x0 NOT SWAP1 PUSH1 0x3 SHL SHR NOT AND OR PUSH1 0x12 DUP3 ADD SSTORE JUMPDEST PUSH2 0x260 PUSH2 0x280 MLOAD ADD MLOAD DUP1 MLOAD SWAP1 PUSH1 0x1 PUSH1 0x1 PUSH1 0x40 SHL SUB DUP3 GT PUSH2 0x17C5 JUMPI DUP2 SWAP1 PUSH2 0x128B DUP3 PUSH2 0x1282 PUSH1 0x13 DUP8 ADD SLOAD PUSH2 0x297E JUMP JUMPDEST PUSH1 0x13 DUP8 ADD PUSH2 0x2B56 JUMP JUMPDEST PUSH1 0x20 SWAP1 PUSH1 0x1F DUP4 GT PUSH1 0x1 EQ PUSH2 0x1971 JUMPI PUSH1 0x0 SWAP3 PUSH2 0x1966 JUMPI JUMPDEST POP POP DUP2 PUSH1 0x1 SHL SWAP2 PUSH1 0x0 NOT SWAP1 PUSH1 0x3 SHL SHR NOT AND OR PUSH1 0x13 DUP3 ADD SSTORE JUMPDEST PUSH2 0x280 DUP1 MLOAD ADD MLOAD DUP1 MLOAD SWAP1 PUSH1 0x1 PUSH1 0x1 PUSH1 0x40 SHL SUB DUP3 GT PUSH2 0x17C5 JUMPI DUP2 SWAP1 PUSH2 0x12ED DUP3 PUSH2 0x12E4 PUSH1 0x14 DUP8 ADD SLOAD PUSH2 0x297E JUMP JUMPDEST PUSH1 0x14 DUP8 ADD PUSH2 0x2B56 JUMP JUMPDEST PUSH1 0x20 SWAP1 PUSH1 0x1F DUP4 GT PUSH1 0x1 EQ PUSH2 0x18F4 JUMPI PUSH1 0x0 SWAP3 PUSH2 0x18E9 JUMPI JUMPDEST POP POP DUP2 PUSH1 0x1 SHL SWAP2 PUSH1 0x0 NOT SWAP1 PUSH1 0x3 SHL SHR NOT AND OR PUSH1 0x14 DUP3 ADD SSTORE JUMPDEST PUSH2 0x2A0 PUSH2 0x280 MLOAD ADD MLOAD DUP1 MLOAD SWAP1 PUSH1 0x1 PUSH1 0x1 PUSH1 0x40 SHL SUB DUP3 GT PUSH2 0x17C5 JUMPI DUP2 SWAP1 PUSH2 0x1351 DUP3 PUSH2 0x1348 PUSH1 0x15 DUP8 ADD SLOAD PUSH2 0x297E JUMP JUMPDEST PUSH1 0x15 DUP8 ADD PUSH2 0x2B56 JUMP JUMPDEST PUSH1 0x20 SWAP1 PUSH1 0x1F DUP4 GT PUSH1 0x1 EQ PUSH2 0x1877 JUMPI PUSH1 0x0 SWAP3 PUSH2 0x186C JUMPI JUMPDEST POP POP DUP2 PUSH1 0x1 SHL SWAP2 PUSH1 0x0 NOT SWAP1 PUSH1 0x3 SHL SHR NOT AND OR PUSH1 0x15 DUP3 ADD SSTORE JUMPDEST PUSH2 0x2C0 PUSH2 0x280 MLOAD ADD MLOAD DUP1 MLOAD SWAP1 PUSH1 0x1 PUSH1 0x1 PUSH1 0x40 SHL SUB DUP3 GT PUSH2 0x17C5 JUMPI PUSH2 0x13B3 DUP3 PUSH2 0x13AA PUSH1 0x16 DUP7 ADD SLOAD PUSH2 0x297E JUMP JUMPDEST PUSH1 0x16 DUP7 ADD PUSH2 0x2B56 JUMP JUMPDEST PUSH1 0x20 SWAP1 PUSH1 0x1F DUP4 GT PUSH1 0x1 EQ PUSH2 0x17FC JUMPI PUSH1 0x16 SWAP3 SWAP2 PUSH1 0x0 SWAP2 DUP4 PUSH2 0x17F1 JUMPI JUMPDEST POP POP DUP2 PUSH1 0x1 SHL SWAP2 PUSH1 0x0 NOT SWAP1 PUSH1 0x3 SHL SHR NOT AND OR SWAP2 ADD SSTORE JUMPDEST PUSH1 0x2 SLOAD PUSH9 0x10000000000000000 DUP2 LT ISZERO PUSH2 0x17C5 JUMPI DUP1 PUSH1 0x1 PUSH2 0x1408 SWAP3 ADD PUSH1 0x2 SSTORE PUSH2 0x2931 JUMP JUMPDEST PUSH2 0x17DB JUMPI PUSH2 0x140 MLOAD PUSH1 0x1 PUSH1 0x1 PUSH1 0x40 SHL SUB DUP2 GT PUSH2 0x17C5 JUMPI PUSH2 0x1432 SWAP1 PUSH2 0x142C DUP4 SLOAD PUSH2 0x297E JUMP JUMPDEST DUP4 PUSH2 0x2B56 JUMP JUMPDEST PUSH1 0x0 SWAP1 PUSH2 0x140 MLOAD PUSH1 0x1F DUP2 GT PUSH1 0x1 EQ PUSH2 0x1758 JUMPI POP SWAP1 PUSH1 0x0 PUSH2 0x140 MLOAD SWAP2 DUP3 PUSH2 0x174A JUMPI JUMPDEST POP DUP2 PUSH1 0x1 SHL SWAP2 PUSH1 0x0 NOT SWAP1 PUSH1 0x3 SHL SHR NOT AND OR SWAP1 SSTORE JUMPDEST PUSH2 0x300 PUSH1 0x40 MLOAD DUP1 PUSH2 0x740 MSTORE MSTORE PUSH32 0xA3A55854FA805244F6C09473B3862BE66BF2889D97E67ACD0F73EBB8848A2A5E PUSH2 0x1720 PUSH2 0x1706 PUSH2 0x16EC PUSH2 0x16D2 PUSH2 0x16B8 PUSH2 0x169F PUSH2 0x1685 PUSH2 0x166B PUSH2 0x1651 PUSH2 0x1637 PUSH2 0x161D PUSH2 0x1603 PUSH2 0x15EA PUSH2 0x15D1 PUSH2 0x15B7 PUSH2 0x159D PUSH2 0x1584 PUSH2 0x156B PUSH2 0x1552 PUSH2 0x1539 PUSH2 0x1520 PUSH2 0x1507 PUSH2 0x14EE PUSH2 0x300 PUSH2 0x740 MLOAD ADD PUSH2 0x140 MLOAD PUSH2 0x300 MLOAD PUSH2 0x2BAA JUMP JUMPDEST PUSH2 0x740 MLOAD PUSH1 0x20 DUP2 DUP4 SUB SWAP2 ADD MSTORE PUSH2 0x4E0 MLOAD PUSH2 0x200 MLOAD PUSH2 0x2BAA JUMP JUMPDEST PUSH2 0x740 MLOAD PUSH1 0x40 DUP2 DUP4 SUB SWAP2 ADD MSTORE PUSH2 0x5E0 MLOAD PUSH2 0x420 MLOAD PUSH2 0x2BAA JUMP JUMPDEST PUSH2 0x740 MLOAD PUSH1 0x60 DUP2 DUP4 SUB SWAP2 ADD MSTORE PUSH2 0x2A0 MLOAD PUSH2 0x500 MLOAD PUSH2 0x2BAA JUMP JUMPDEST PUSH2 0x740 MLOAD PUSH1 0x80 DUP2 DUP4 SUB SWAP2 ADD MSTORE PUSH2 0x3A0 MLOAD PUSH2 0x760 MLOAD PUSH2 0x2BAA JUMP JUMPDEST PUSH2 0x740 MLOAD PUSH1 0xA0 DUP2 DUP4 SUB SWAP2 ADD MSTORE PUSH2 0x400 MLOAD PUSH2 0x7E0 MLOAD PUSH2 0x2BAA JUMP JUMPDEST PUSH2 0x740 MLOAD PUSH1 0xC0 DUP2 DUP4 SUB SWAP2 ADD MSTORE PUSH2 0x3E0 MLOAD PUSH2 0x2C0 MLOAD PUSH2 0x2BAA JUMP JUMPDEST PUSH2 0x740 MLOAD PUSH1 0xE0 DUP2 DUP4 SUB SWAP2 ADD MSTORE PUSH2 0x700 MLOAD PUSH2 0x780 MLOAD PUSH2 0x2BAA JUMP JUMPDEST PUSH2 0x740 MLOAD PUSH2 0x100 DUP2 DUP4 SUB SWAP2 ADD MSTORE PUSH2 0x5A0 MLOAD PUSH2 0x380 MLOAD PUSH2 0x2BAA JUMP JUMPDEST PUSH2 0x740 MLOAD PUSH2 0x120 DUP2 DUP4 SUB SWAP2 ADD MSTORE PUSH2 0x360 MLOAD PUSH2 0x480 MLOAD PUSH2 0x2BAA JUMP JUMPDEST PUSH2 0x740 MLOAD PUSH2 0x140 DUP2 DUP4 SUB SWAP2 ADD MSTORE PUSH2 0x800 MLOAD PUSH1 0x80 MLOAD PUSH2 0x2BAA JUMP JUMPDEST PUSH2 0x740 MLOAD PUSH2 0x160 DUP2 DUP4 SUB SWAP2 ADD MSTORE PUSH2 0x540 MLOAD PUSH1 0xE0 MLOAD PUSH2 0x2BAA JUMP JUMPDEST PUSH2 0x740 MLOAD PUSH2 0x180 DUP2 DUP4 SUB SWAP2 ADD MSTORE PUSH2 0x220 MLOAD PUSH2 0x260 MLOAD PUSH2 0x2BAA JUMP JUMPDEST PUSH2 0x740 MLOAD PUSH2 0x1A0 DUP2 DUP4 SUB SWAP2 ADD MSTORE PUSH2 0x620 MLOAD PUSH2 0x6E0 MLOAD PUSH2 0x2BAA JUMP JUMPDEST PUSH2 0x740 MLOAD PUSH2 0x1C0 DUP2 DUP4 SUB SWAP2 ADD MSTORE PUSH2 0x640 MLOAD PUSH2 0x600 MLOAD PUSH2 0x2BAA JUMP JUMPDEST PUSH2 0x740 MLOAD PUSH2 0x1E0 DUP2 DUP4 SUB SWAP2 ADD MSTORE PUSH2 0x720 MLOAD PUSH2 0x180 MLOAD PUSH2 0x2BAA JUMP JUMPDEST PUSH2 0x740 MLOAD PUSH2 0x200 DUP2 DUP4 SUB SWAP2 ADD MSTORE PUSH2 0x7A0 MLOAD PUSH2 0x520 MLOAD PUSH2 0x2BAA JUMP JUMPDEST PUSH2 0x740 MLOAD PUSH2 0x220 DUP2 DUP4 SUB SWAP2 ADD MSTORE PUSH2 0x1A0 MLOAD PUSH2 0x6A0 MLOAD PUSH2 0x2BAA JUMP JUMPDEST PUSH2 0x740 MLOAD PUSH2 0x240 DUP2 DUP4 SUB SWAP2 ADD MSTORE PUSH1 0xA0 MLOAD PUSH2 0x160 MLOAD PUSH2 0x2BAA JUMP JUMPDEST PUSH2 0x740 MLOAD PUSH2 0x260 DUP2 DUP4 SUB SWAP2 ADD MSTORE PUSH2 0x560 MLOAD PUSH2 0x240 MLOAD PUSH2 0x2BAA JUMP JUMPDEST PUSH2 0x740 MLOAD PUSH2 0x280 DUP2 DUP4 SUB SWAP2 ADD MSTORE PUSH2 0x6C0 MLOAD PUSH2 0x100 MLOAD PUSH2 0x2BAA JUMP JUMPDEST PUSH2 0x740 MLOAD PUSH2 0x2A0 DUP2 DUP4 SUB SWAP2 ADD MSTORE PUSH2 0x120 MLOAD PUSH2 0x680 MLOAD PUSH2 0x2BAA JUMP JUMPDEST PUSH2 0x740 MLOAD PUSH2 0x2C0 DUP2 DUP4 SUB SWAP2 ADD MSTORE PUSH2 0x3C0 MLOAD PUSH2 0x1E0 MLOAD PUSH2 0x2BAA JUMP JUMPDEST PUSH2 0x740 MLOAD PUSH2 0x2E0 DUP2 DUP4 SUB SWAP2 ADD MSTORE PUSH2 0x1742 PUSH2 0x740 MLOAD SWAP2 PUSH2 0x660 MLOAD PUSH2 0x5C0 MLOAD PUSH2 0x2BAA JUMP JUMPDEST SUB PUSH2 0x740 MLOAD LOG1 STOP JUMPDEST SWAP1 POP PUSH2 0x300 MLOAD ADD CALLDATALOAD DUP4 PUSH2 0x1453 JUMP JUMPDEST DUP2 PUSH1 0x0 MSTORE PUSH1 0x20 PUSH1 0x0 KECCAK256 PUSH1 0x0 SWAP4 PUSH2 0x300 MLOAD SWAP1 JUMPDEST PUSH1 0x1F NOT DUP5 AND DUP7 LT PUSH2 0x17AD JUMPI PUSH1 0x1 SWAP5 SWAP6 POP DUP4 PUSH1 0x1F NOT DUP2 AND LT PUSH2 0x1793 JUMPI JUMPDEST POP POP POP DUP2 SHL ADD SWAP1 SSTORE PUSH2 0x1467 JUMP JUMPDEST ADD CALLDATALOAD PUSH1 0x0 NOT PUSH1 0x3 DUP5 SWAP1 SHL PUSH1 0xF8 AND SHR NOT AND SWAP1 SSTORE DUP4 DUP1 DUP1 PUSH2 0x1786 JUMP JUMPDEST SWAP2 PUSH1 0x20 PUSH1 0x1 DUP2 SWAP3 DUP6 DUP6 ADD CALLDATALOAD DUP2 SSTORE ADD SWAP4 ADD SWAP6 ADD SWAP5 PUSH2 0x176A JUMP JUMPDEST PUSH4 0x4E487B71 PUSH1 0xE0 SHL PUSH1 0x0 MSTORE PUSH1 0x41 PUSH1 0x4 MSTORE PUSH1 0x24 PUSH1 0x0 REVERT JUMPDEST PUSH4 0x4E487B71 PUSH1 0xE0 SHL PUSH1 0x0 MSTORE PUSH1 0x0 PUSH1 0x4 MSTORE PUSH1 0x24 PUSH1 0x0 REVERT JUMPDEST ADD MLOAD SWAP1 POP DUP5 DUP1 PUSH2 0x13CE JUMP JUMPDEST SWAP1 PUSH1 0x16 DUP5 ADD PUSH1 0x0 MSTORE PUSH1 0x20 PUSH1 0x0 KECCAK256 SWAP2 PUSH1 0x0 JUMPDEST PUSH1 0x1F NOT DUP6 AND DUP2 LT PUSH2 0x1854 JUMPI POP SWAP2 DUP4 SWAP2 PUSH1 0x1 SWAP4 PUSH1 0x16 SWAP6 PUSH1 0x1F NOT DUP2 AND LT PUSH2 0x183B JUMPI JUMPDEST POP POP POP DUP2 SHL ADD SWAP2 ADD SSTORE PUSH2 0x13E4 JUMP JUMPDEST ADD MLOAD PUSH1 0x0 NOT PUSH1 0xF8 DUP5 PUSH1 0x3 SHL AND SHR NOT AND SWAP1 SSTORE DUP5 DUP1 DUP1 PUSH2 0x182D JUMP JUMPDEST SWAP2 SWAP3 PUSH1 0x20 PUSH1 0x1 DUP2 SWAP3 DUP7 DUP6 ADD MLOAD DUP2 SSTORE ADD SWAP5 ADD SWAP3 ADD PUSH2 0x180D JUMP JUMPDEST ADD MLOAD SWAP1 POP DUP4 DUP1 PUSH2 0x1367 JUMP JUMPDEST SWAP3 POP PUSH1 0x15 DUP5 ADD PUSH1 0x0 MSTORE PUSH1 0x20 PUSH1 0x0 KECCAK256 SWAP1 PUSH1 0x0 SWAP4 JUMPDEST PUSH1 0x1F NOT DUP5 AND DUP6 LT PUSH2 0x18CE JUMPI PUSH1 0x1 SWAP5 POP DUP4 PUSH1 0x1F NOT DUP2 AND LT PUSH2 0x18B5 JUMPI JUMPDEST POP POP POP DUP2 SHL ADD PUSH1 0x15 DUP3 ADD SSTORE PUSH2 0x137F JUMP JUMPDEST ADD MLOAD PUSH1 0x0 NOT PUSH1 0xF8 DUP5 PUSH1 0x3 SHL AND SHR NOT AND SWAP1 SSTORE DUP4 DUP1 DUP1 PUSH2 0x18A5 JUMP JUMPDEST DUP2 DUP2 ADD MLOAD DUP4 SSTORE PUSH1 0x20 SWAP5 DUP6 ADD SWAP5 PUSH1 0x1 SWAP1 SWAP4 ADD SWAP3 SWAP1 SWAP2 ADD SWAP1 PUSH2 0x188A JUMP JUMPDEST ADD MLOAD SWAP1 POP DUP4 DUP1 PUSH2 0x1303 JUMP JUMPDEST SWAP3 POP PUSH1 0x14 DUP5 ADD PUSH1 0x0 MSTORE PUSH1 0x20 PUSH1 0x0 KECCAK256 SWAP1 PUSH1 0x0 SWAP4 JUMPDEST PUSH1 0x1F NOT DUP5 AND DUP6 LT PUSH2 0x194B JUMPI PUSH1 0x1 SWAP5 POP DUP4 PUSH1 0x1F NOT DUP2 AND LT PUSH2 0x1932 JUMPI JUMPDEST POP POP POP DUP2 SHL ADD PUSH1 0x14 DUP3 ADD SSTORE PUSH2 0x131B JUMP JUMPDEST ADD MLOAD PUSH1 0x0 NOT PUSH1 0xF8 DUP5 PUSH1 0x3 SHL AND SHR NOT AND SWAP1 SSTORE DUP4 DUP1 DUP1 PUSH2 0x1922 JUMP JUMPDEST DUP2 DUP2 ADD MLOAD DUP4 SSTORE PUSH1 0x20 SWAP5 DUP6 ADD SWAP5 PUSH1 0x1 SWAP1 SWAP4 ADD SWAP3 SWAP1 SWAP2 ADD SWAP1 PUSH2 0x1907 JUMP JUMPDEST ADD MLOAD SWAP1 POP DUP4 DUP1 PUSH2 0x12A1 JUMP JUMPDEST SWAP3 POP PUSH1 0x13 DUP5 ADD PUSH1 0x0 MSTORE PUSH1 0x20 PUSH1 0x0 KECCAK256 SWAP1 PUSH1 0x0 SWAP4 JUMPDEST PUSH1 0x1F NOT DUP5 AND DUP6 LT PUSH2 0x19C8 JUMPI PUSH1 0x1 SWAP5 POP DUP4 PUSH1 0x1F NOT DUP2 AND LT PUSH2 0x19AF JUMPI JUMPDEST POP POP POP DUP2 SHL ADD PUSH1 0x13 DUP3 ADD SSTORE PUSH2 0x12B9 JUMP JUMPDEST ADD MLOAD PUSH1 0x0 NOT PUSH1 0xF8 DUP5 PUSH1 0x3 SHL AND SHR NOT AND SWAP1 SSTORE DUP4 DUP1 DUP1 PUSH2 0x199F JUMP JUMPDEST DUP2 DUP2 ADD MLOAD DUP4 SSTORE PUSH1 0x20 SWAP5 DUP6 ADD SWAP5 PUSH1 0x1 SWAP1 SWAP4 ADD SWAP3 SWAP1 SWAP2 ADD SWAP1 PUSH2 0x1984 JUMP JUMPDEST ADD MLOAD SWAP1 POP DUP4 DUP1 PUSH2 0x123D JUMP JUMPDEST SWAP3 POP PUSH1 0x12 DUP5 ADD PUSH1 0x0 MSTORE PUSH1 0x20 PUSH1 0x0 KECCAK256 SWAP1 PUSH1 0x0 SWAP4 JUMPDEST PUSH1 0x1F NOT DUP5 AND DUP6 LT PUSH2 0x1A45 JUMPI PUSH1 0x1 SWAP5 POP DUP4 PUSH1 0x1F NOT DUP2 AND LT PUSH2 0x1A2C JUMPI JUMPDEST POP POP POP DUP2 SHL ADD PUSH1 0x12 DUP3 ADD SSTORE PUSH2 0x1255 JUMP JUMPDEST ADD MLOAD PUSH1 0x0 NOT PUSH1 0xF8 DUP5 PUSH1 0x3 SHL AND SHR NOT AND SWAP1 SSTORE DUP4 DUP1 DUP1 PUSH2 0x1A1C JUMP JUMPDEST DUP2 DUP2 ADD MLOAD DUP4 SSTORE PUSH1 0x20 SWAP5 DUP6 ADD SWAP5 PUSH1 0x1 SWAP1 SWAP4 ADD SWAP3 SWAP1 SWAP2 ADD SWAP1 PUSH2 0x1A01 JUMP JUMPDEST ADD MLOAD SWAP1 POP DUP4 DUP1 PUSH2 0x11D9 JUMP JUMPDEST SWAP3 POP PUSH1 0x11 DUP5 ADD PUSH1 0x0 MSTORE PUSH1 0x20 PUSH1 0x0 KECCAK256 SWAP1 PUSH1 0x0 SWAP4 JUMPDEST PUSH1 0x1F NOT DUP5 AND DUP6 LT PUSH2 0x1AC2 JUMPI PUSH1 0x1 SWAP5 POP DUP4 PUSH1 0x1F NOT DUP2 AND LT PUSH2 0x1AA9 JUMPI JUMPDEST POP POP POP DUP2 SHL ADD PUSH1 0x11 DUP3 ADD SSTORE PUSH2 0x11F1 JUMP JUMPDEST ADD MLOAD PUSH1 0x0 NOT PUSH1 0xF8 DUP5 PUSH1 0x3 SHL AND SHR NOT AND SWAP1 SSTORE DUP4 DUP1 DUP1 PUSH2 0x1A99 JUMP JUMPDEST DUP2 DUP2 ADD MLOAD DUP4 SSTORE PUSH1 0x20 SWAP5 DUP6 ADD SWAP5 PUSH1 0x1 SWAP1 SWAP4 ADD SWAP3 SWAP1 SWAP2 ADD SWAP1 PUSH2 0x1A7E JUMP JUMPDEST ADD MLOAD SWAP1 POP DUP4 DUP1 PUSH2 0x1175 JUMP JUMPDEST SWAP3 POP PUSH1 0x10 DUP5 ADD PUSH1 0x0 MSTORE PUSH1 0x20 PUSH1 0x0 KECCAK256 SWAP1 PUSH1 0x0 SWAP4 JUMPDEST PUSH1 0x1F NOT DUP5 AND DUP6 LT PUSH2 0x1B3F JUMPI PUSH1 0x1 SWAP5 POP DUP4 PUSH1 0x1F NOT DUP2 AND LT PUSH2 0x1B26 JUMPI JUMPDEST POP POP POP DUP2 SHL ADD PUSH1 0x10 DUP3 ADD SSTORE PUSH2 0x118D JUMP JUMPDEST ADD MLOAD PUSH1 0x0 NOT PUSH1 0xF8 DUP5 PUSH1 0x3 SHL AND SHR NOT AND SWAP1 SSTORE DUP4 DUP1 DUP1 PUSH2 0x1B16 JUMP JUMPDEST DUP2 DUP2 ADD MLOAD DUP4 SSTORE PUSH1 0x20 SWAP5 DUP6 ADD SWAP5 PUSH1 0x1 SWAP1 SWAP4 ADD SWAP3 SWAP1 SWAP2 ADD SWAP1 PUSH2 0x1AFB JUMP JUMPDEST ADD MLOAD SWAP1 POP DUP4 DUP1 PUSH2 0x1111 JUMP JUMPDEST SWAP3 POP PUSH1 0xF DUP5 ADD PUSH1 0x0 MSTORE PUSH1 0x20 PUSH1 0x0 KECCAK256 SWAP1 PUSH1 0x0 SWAP4 JUMPDEST PUSH1 0x1F NOT DUP5 AND DUP6 LT PUSH2 0x1BBC JUMPI PUSH1 0x1 SWAP5 POP DUP4 PUSH1 0x1F NOT DUP2 AND LT PUSH2 0x1BA3 JUMPI JUMPDEST POP POP POP DUP2 SHL ADD PUSH1 0xF DUP3 ADD SSTORE PUSH2 0x1129 JUMP JUMPDEST ADD MLOAD PUSH1 0x0 NOT PUSH1 0xF8 DUP5 PUSH1 0x3 SHL AND SHR NOT AND SWAP1 SSTORE DUP4 DUP1 DUP1 PUSH2 0x1B93 JUMP JUMPDEST DUP2 DUP2 ADD MLOAD DUP4 SSTORE PUSH1 0x20 SWAP5 DUP6 ADD SWAP5 PUSH1 0x1 SWAP1 SWAP4 ADD SWAP3 SWAP1 SWAP2 ADD SWAP1 PUSH2 0x1B78 JUMP JUMPDEST ADD MLOAD SWAP1 POP DUP4 DUP1 PUSH2 0x10AD JUMP JUMPDEST SWAP3 POP PUSH1 0xE DUP5 ADD PUSH1 0x0 MSTORE PUSH1 0x20 PUSH1 0x0 KECCAK256 SWAP1 PUSH1 0x0 SWAP4 JUMPDEST PUSH1 0x1F NOT DUP5 AND DUP6 LT PUSH2 0x1C39 JUMPI PUSH1 0x1 SWAP5 POP DUP4 PUSH1 0x1F NOT DUP2 AND LT PUSH2 0x1C20 JUMPI JUMPDEST POP POP POP DUP2 SHL ADD PUSH1 0xE DUP3 ADD SSTORE PUSH2 0x10C5 JUMP JUMPDEST ADD MLOAD PUSH1 0x0 NOT PUSH1 0xF8 DUP5 PUSH1 0x3 SHL AND SHR NOT AND SWAP1 SSTORE DUP4 DUP1 DUP1 PUSH2 0x1C10 JUMP JUMPDEST DUP2 DUP2 ADD MLOAD DUP4 SSTORE PUSH1 0x20 SWAP5 DUP6 ADD SWAP5 PUSH1 0x1 SWAP1 SWAP4 ADD SWAP3 SWAP1 SWAP2 ADD SWAP1 PUSH2 0x1BF5 JUMP JUMPDEST ADD MLOAD SWAP1 POP DUP4 DUP1 PUSH2 0x1049 JUMP JUMPDEST SWAP3 POP PUSH1 0xD DUP5 ADD PUSH1 0x0 MSTORE PUSH1 0x20 PUSH1 0x0 KECCAK256 SWAP1 PUSH1 0x0 SWAP4 JUMPDEST PUSH1 0x1F NOT DUP5 AND DUP6 LT PUSH2 0x1CB6 JUMPI PUSH1 0x1 SWAP5 POP DUP4 PUSH1 0x1F NOT DUP2 AND LT PUSH2 0x1C9D JUMPI JUMPDEST POP POP POP DUP2 SHL ADD PUSH1 0xD DUP3 ADD SSTORE PUSH2 0x1061 JUMP JUMPDEST ADD MLOAD PUSH1 0x0 NOT PUSH1 0xF8 DUP5 PUSH1 0x3 SHL AND SHR NOT AND SWAP1 SSTORE DUP4 DUP1 DUP1 PUSH2 0x1C8D JUMP JUMPDEST DUP2 DUP2 ADD MLOAD DUP4 SSTORE PUSH1 0x20 SWAP5 DUP6 ADD SWAP5 PUSH1 0x1 SWAP1 SWAP4 ADD SWAP3 SWAP1 SWAP2 ADD SWAP1 PUSH2 0x1C72 JUMP JUMPDEST ADD MLOAD SWAP1 POP DUP4 DUP1 PUSH2 0xFE5 JUMP JUMPDEST SWAP3 POP PUSH1 0xC DUP5 ADD PUSH1 0x0 MSTORE PUSH1 0x20 PUSH1 0x0 KECCAK256 SWAP1 PUSH1 0x0 SWAP4 JUMPDEST PUSH1 0x1F NOT DUP5 AND DUP6 LT PUSH2 0x1D33 JUMPI PUSH1 0x1 SWAP5 POP DUP4 PUSH1 0x1F NOT DUP2 AND LT PUSH2 0x1D1A JUMPI JUMPDEST POP POP POP DUP2 SHL ADD PUSH1 0xC DUP3 ADD SSTORE PUSH2 0xFFD JUMP JUMPDEST ADD MLOAD PUSH1 0x0 NOT PUSH1 0xF8 DUP5 PUSH1 0x3 SHL AND SHR NOT AND SWAP1 SSTORE DUP4 DUP1 DUP1 PUSH2 0x1D0A JUMP JUMPDEST DUP2 DUP2 ADD MLOAD DUP4 SSTORE PUSH1 0x20 SWAP5 DUP6 ADD SWAP5 PUSH1 0x1 SWAP1 SWAP4 ADD SWAP3 SWAP1 SWAP2 ADD SWAP1 PUSH2 0x1CEF JUMP JUMPDEST ADD MLOAD SWAP1 POP DUP4 DUP1 PUSH2 0xF81 JUMP JUMPDEST SWAP3 POP PUSH1 0xB DUP5 ADD PUSH1 0x0 MSTORE PUSH1 0x20 PUSH1 0x0 KECCAK256 SWAP1 PUSH1 0x0 SWAP4 JUMPDEST PUSH1 0x1F NOT DUP5 AND DUP6 LT PUSH2 0x1DB0 JUMPI PUSH1 0x1 SWAP5 POP DUP4 PUSH1 0x1F NOT DUP2 AND LT PUSH2 0x1D97 JUMPI JUMPDEST POP POP POP DUP2 SHL ADD PUSH1 0xB DUP3 ADD SSTORE PUSH2 0xF99 JUMP JUMPDEST ADD MLOAD PUSH1 0x0 NOT PUSH1 0xF8 DUP5 PUSH1 0x3 SHL AND SHR NOT AND SWAP1 SSTORE DUP4 DUP1 DUP1 PUSH2 0x1D87 JUMP JUMPDEST DUP2 DUP2 ADD MLOAD DUP4 SSTORE PUSH1 0x20 SWAP5 DUP6 ADD SWAP5 PUSH1 0x1 SWAP1 SWAP4 ADD SWAP3 SWAP1 SWAP2 ADD SWAP1 PUSH2 0x1D6C JUMP JUMPDEST ADD MLOAD SWAP1 POP DUP4 DUP1 PUSH2 0xF1D JUMP JUMPDEST SWAP3 POP PUSH1 0xA DUP5 ADD PUSH1 0x0 MSTORE PUSH1 0x20 PUSH1 0x0 KECCAK256 SWAP1 PUSH1 0x0 SWAP4 JUMPDEST PUSH1 0x1F NOT DUP5 AND DUP6 LT PUSH2 0x1E2D JUMPI PUSH1 0x1 SWAP5 POP DUP4 PUSH1 0x1F NOT DUP2 AND LT PUSH2 0x1E14 JUMPI JUMPDEST POP POP POP DUP2 SHL ADD PUSH1 0xA DUP3 ADD SSTORE PUSH2 0xF35 JUMP JUMPDEST ADD MLOAD PUSH1 0x0 NOT PUSH1 0xF8 DUP5 PUSH1 0x3 SHL AND SHR NOT AND SWAP1 SSTORE DUP4 DUP1 DUP1 PUSH2 0x1E04 JUMP JUMPDEST DUP2 DUP2 ADD MLOAD DUP4 SSTORE PUSH1 0x20 SWAP5 DUP6 ADD SWAP5 PUSH1 0x1 SWAP1 SWAP4 ADD SWAP3 SWAP1 SWAP2 ADD SWAP1 PUSH2 0x1DE9 JUMP JUMPDEST ADD MLOAD SWAP1 POP DUP4 DUP1 PUSH2 0xEB9 JUMP JUMPDEST SWAP3 POP PUSH1 0x9 DUP5 ADD PUSH1 0x0 MSTORE PUSH1 0x20 PUSH1 0x0 KECCAK256 SWAP1 PUSH1 0x0 SWAP4 JUMPDEST PUSH1 0x1F NOT DUP5 AND DUP6 LT PUSH2 0x1EAA JUMPI PUSH1 0x1 SWAP5 POP DUP4 PUSH1 0x1F NOT DUP2 AND LT PUSH2 0x1E91 JUMPI JUMPDEST POP POP POP DUP2 SHL ADD PUSH1 0x9 DUP3 ADD SSTORE PUSH2 0xED1 JUMP JUMPDEST ADD MLOAD PUSH1 0x0 NOT PUSH1 0xF8 DUP5 PUSH1 0x3 SHL AND SHR NOT AND SWAP1 SSTORE DUP4 DUP1 DUP1 PUSH2 0x1E81 JUMP JUMPDEST DUP2 DUP2 ADD MLOAD DUP4 SSTORE PUSH1 0x20 SWAP5 DUP6 ADD SWAP5 PUSH1 0x1 SWAP1 SWAP4 ADD SWAP3 SWAP1 SWAP2 ADD SWAP1 PUSH2 0x1E66 JUMP JUMPDEST ADD MLOAD SWAP1 POP DUP4 DUP1 PUSH2 0xE55 JUMP JUMPDEST SWAP3 POP PUSH1 0x8 DUP5 ADD PUSH1 0x0 MSTORE PUSH1 0x20 PUSH1 0x0 KECCAK256 SWAP1 PUSH1 0x0 SWAP4 JUMPDEST PUSH1 0x1F NOT DUP5 AND DUP6 LT PUSH2 0x1F27 JUMPI PUSH1 0x1 SWAP5 POP DUP4 PUSH1 0x1F NOT DUP2 AND LT PUSH2 0x1F0E JUMPI JUMPDEST POP POP POP DUP2 SHL ADD PUSH1 0x8 DUP3 ADD SSTORE PUSH2 0xE6D JUMP JUMPDEST ADD MLOAD PUSH1 0x0 NOT PUSH1 0xF8 DUP5 PUSH1 0x3 SHL AND SHR NOT AND SWAP1 SSTORE DUP4 DUP1 DUP1 PUSH2 0x1EFE JUMP JUMPDEST DUP2 DUP2 ADD MLOAD DUP4 SSTORE PUSH1 0x20 SWAP5 DUP6 ADD SWAP5 PUSH1 0x1 SWAP1 SWAP4 ADD SWAP3 SWAP1 SWAP2 ADD SWAP1 PUSH2 0x1EE3 JUMP JUMPDEST ADD MLOAD SWAP1 POP DUP4 DUP1 PUSH2 0xDF1 JUMP JUMPDEST SWAP3 POP PUSH1 0x7 DUP5 ADD PUSH1 0x0 MSTORE PUSH1 0x20 PUSH1 0x0 KECCAK256 SWAP1 PUSH1 0x0 SWAP4 JUMPDEST PUSH1 0x1F NOT DUP5 AND DUP6 LT PUSH2 0x1FA4 JUMPI PUSH1 0x1 SWAP5 POP DUP4 PUSH1 0x1F NOT DUP2 AND LT PUSH2 0x1F8B JUMPI JUMPDEST POP POP POP DUP2 SHL ADD PUSH1 0x7 DUP3 ADD SSTORE PUSH2 0xE09 JUMP JUMPDEST ADD MLOAD PUSH1 0x0 NOT PUSH1 0xF8 DUP5 PUSH1 0x3 SHL AND SHR NOT AND SWAP1 SSTORE DUP4 DUP1 DUP1 PUSH2 0x1F7B JUMP JUMPDEST DUP2 DUP2 ADD MLOAD DUP4 SSTORE PUSH1 0x20 SWAP5 DUP6 ADD SWAP5 PUSH1 0x1 SWAP1 SWAP4 ADD SWAP3 SWAP1 SWAP2 ADD SWAP1 PUSH2 0x1F60 JUMP JUMPDEST ADD MLOAD SWAP1 POP DUP4 DUP1 PUSH2 0xD8E JUMP JUMPDEST SWAP3 POP PUSH1 0x6 DUP5 ADD PUSH1 0x0 MSTORE PUSH1 0x20 PUSH1 0x0 KECCAK256 SWAP1 PUSH1 0x0 SWAP4 JUMPDEST PUSH1 0x1F NOT DUP5 AND DUP6 LT PUSH2 0x2021 JUMPI PUSH1 0x1 SWAP5 POP DUP4 PUSH1 0x1F NOT DUP2 AND LT PUSH2 0x2008 JUMPI JUMPDEST POP POP POP DUP2 SHL ADD PUSH1 0x6 DUP3 ADD SSTORE PUSH2 0xDA6 JUMP JUMPDEST ADD MLOAD PUSH1 0x0 NOT PUSH1 0xF8 DUP5 PUSH1 0x3 SHL AND SHR NOT AND SWAP1 SSTORE DUP4 DUP1 DUP1 PUSH2 0x1FF8 JUMP JUMPDEST DUP2 DUP2 ADD MLOAD DUP4 SSTORE PUSH1 0x20 SWAP5 DUP6 ADD SWAP5 PUSH1 0x1 SWAP1 SWAP4 ADD SWAP3 SWAP1 SWAP2 ADD SWAP1 PUSH2 0x1FDD JUMP JUMPDEST ADD MLOAD SWAP1 POP DUP4 DUP1 PUSH2 0xD2B JUMP JUMPDEST SWAP3 POP PUSH1 0x5 DUP5 ADD PUSH1 0x0 MSTORE PUSH1 0x20 PUSH1 0x0 KECCAK256 SWAP1 PUSH1 0x0 SWAP4 JUMPDEST PUSH1 0x1F NOT DUP5 AND DUP6 LT PUSH2 0x209E JUMPI PUSH1 0x1 SWAP5 POP DUP4 PUSH1 0x1F NOT DUP2 AND LT PUSH2 0x2085 JUMPI JUMPDEST POP POP POP DUP2 SHL ADD PUSH1 0x5 DUP3 ADD SSTORE PUSH2 0xD43 JUMP JUMPDEST ADD MLOAD PUSH1 0x0 NOT PUSH1 0xF8 DUP5 PUSH1 0x3 SHL AND SHR NOT AND SWAP1 SSTORE DUP4 DUP1 DUP1 PUSH2 0x2075 JUMP JUMPDEST DUP2 DUP2 ADD MLOAD DUP4 SSTORE PUSH1 0x20 SWAP5 DUP6 ADD SWAP5 PUSH1 0x1 SWAP1 SWAP4 ADD SWAP3 SWAP1 SWAP2 ADD SWAP1 PUSH2 0x205A JUMP JUMPDEST ADD MLOAD SWAP1 POP DUP4 DUP1 PUSH2 0xCC8 JUMP JUMPDEST SWAP3 POP PUSH1 0x4 DUP5 ADD PUSH1 0x0 MSTORE PUSH1 0x20 PUSH1 0x0 KECCAK256 SWAP1 PUSH1 0x0 SWAP4 JUMPDEST PUSH1 0x1F NOT DUP5 AND DUP6 LT PUSH2 0x211B JUMPI PUSH1 0x1 SWAP5 POP DUP4 PUSH1 0x1F NOT DUP2 AND LT PUSH2 0x2102 JUMPI JUMPDEST POP POP POP DUP2 SHL ADD PUSH1 0x4 DUP3 ADD SSTORE PUSH2 0xCE0 JUMP JUMPDEST ADD MLOAD PUSH1 0x0 NOT PUSH1 0xF8 DUP5 PUSH1 0x3 SHL AND SHR NOT AND SWAP1 SSTORE DUP4 DUP1 DUP1 PUSH2 0x20F2 JUMP JUMPDEST DUP2 DUP2 ADD MLOAD DUP4 SSTORE PUSH1 0x20 SWAP5 DUP6 ADD SWAP5 PUSH1 0x1 SWAP1 SWAP4 ADD SWAP3 SWAP1 SWAP2 ADD SWAP1 PUSH2 0x20D7 JUMP JUMPDEST ADD MLOAD SWAP1 POP DUP4 DUP1 PUSH2 0xC65 JUMP JUMPDEST SWAP3 POP PUSH1 0x3 DUP5 ADD PUSH1 0x0 MSTORE PUSH1 0x20 PUSH1 0x0 KECCAK256 SWAP1 PUSH1 0x0 SWAP4 JUMPDEST PUSH1 0x1F NOT DUP5 AND DUP6 LT PUSH2 0x2198 JUMPI PUSH1 0x1 SWAP5 POP DUP4 PUSH1 0x1F NOT DUP2 AND LT PUSH2 0x217F JUMPI JUMPDEST POP POP POP DUP2 SHL ADD PUSH1 0x3 DUP3 ADD SSTORE PUSH2 0xC7D JUMP JUMPDEST ADD MLOAD PUSH1 0x0 NOT PUSH1 0xF8 DUP5 PUSH1 0x3 SHL AND SHR NOT AND SWAP1 SSTORE DUP4 DUP1 DUP1 PUSH2 0x216F JUMP JUMPDEST DUP2 DUP2 ADD MLOAD DUP4 SSTORE PUSH1 0x20 SWAP5 DUP6 ADD SWAP5 PUSH1 0x1 SWAP1 SWAP4 ADD SWAP3 SWAP1 SWAP2 ADD SWAP1 PUSH2 0x2154 JUMP JUMPDEST ADD MLOAD SWAP1 POP DUP4 DUP1 PUSH2 0xC02 JUMP JUMPDEST SWAP3 POP PUSH1 0x2 DUP5 ADD PUSH1 0x0 MSTORE PUSH1 0x20 PUSH1 0x0 KECCAK256 SWAP1 PUSH1 0x0 SWAP4 JUMPDEST PUSH1 0x1F NOT DUP5 AND DUP6 LT PUSH2 0x2215 JUMPI PUSH1 0x1 SWAP5 POP DUP4 PUSH1 0x1F NOT DUP2 AND LT PUSH2 0x21FC JUMPI JUMPDEST POP POP POP DUP2 SHL ADD PUSH1 0x2 DUP3 ADD SSTORE PUSH2 0xC1A JUMP JUMPDEST ADD MLOAD PUSH1 0x0 NOT PUSH1 0xF8 DUP5 PUSH1 0x3 SHL AND SHR NOT AND SWAP1 SSTORE DUP4 DUP1 DUP1 PUSH2 0x21EC JUMP JUMPDEST DUP2 DUP2 ADD MLOAD DUP4 SSTORE PUSH1 0x20 SWAP5 DUP6 ADD SWAP5 PUSH1 0x1 SWAP1 SWAP4 ADD SWAP3 SWAP1 SWAP2 ADD SWAP1 PUSH2 0x21D1 JUMP JUMPDEST ADD MLOAD SWAP1 POP DUP4 DUP1 PUSH2 0xB9F JUMP JUMPDEST SWAP3 POP PUSH1 0x1 DUP5 ADD PUSH1 0x0 MSTORE PUSH1 0x20 PUSH1 0x0 KECCAK256 SWAP1 PUSH1 0x0 SWAP4 JUMPDEST PUSH1 0x1F NOT DUP5 AND DUP6 LT PUSH2 0x2292 JUMPI PUSH1 0x1 SWAP5 POP DUP4 PUSH1 0x1F NOT DUP2 AND LT PUSH2 0x2279 JUMPI JUMPDEST POP POP POP DUP2 SHL ADD PUSH1 0x1 DUP3 ADD SSTORE PUSH2 0xBB7 JUMP JUMPDEST ADD MLOAD PUSH1 0x0 NOT PUSH1 0xF8 DUP5 PUSH1 0x3 SHL AND SHR NOT AND SWAP1 SSTORE DUP4 DUP1 DUP1 PUSH2 0x2269 JUMP JUMPDEST DUP2 DUP2 ADD MLOAD DUP4 SSTORE PUSH1 0x20 SWAP5 DUP6 ADD SWAP5 PUSH1 0x1 SWAP1 SWAP4 ADD SWAP3 SWAP1 SWAP2 ADD SWAP1 PUSH2 0x224E JUMP JUMPDEST ADD MLOAD SWAP1 POP DUP4 DUP1 PUSH2 0xB3F JUMP JUMPDEST SWAP3 POP DUP4 PUSH1 0x0 MSTORE PUSH1 0x20 PUSH1 0x0 KECCAK256 SWAP1 PUSH1 0x0 SWAP4 JUMPDEST PUSH1 0x1F NOT DUP5 AND DUP6 LT PUSH2 0x2309 JUMPI PUSH1 0x1 SWAP5 POP DUP4 PUSH1 0x1F NOT DUP2 AND LT PUSH2 0x22F0 JUMPI JUMPDEST POP POP POP DUP2 SHL ADD DUP2 SSTORE PUSH2 0xB54 JUMP JUMPDEST ADD MLOAD PUSH1 0x0 NOT PUSH1 0xF8 DUP5 PUSH1 0x3 SHL AND SHR NOT AND SWAP1 SSTORE DUP4 DUP1 DUP1 PUSH2 0x22E3 JUMP JUMPDEST DUP2 DUP2 ADD MLOAD DUP4 SSTORE PUSH1 0x20 SWAP5 DUP6 ADD SWAP5 PUSH1 0x1 SWAP1 SWAP4 ADD SWAP3 SWAP1 SWAP2 ADD SWAP1 PUSH2 0x22C8 JUMP JUMPDEST PUSH1 0x40 MLOAD PUSH3 0x461BCD PUSH1 0xE5 SHL DUP2 MSTORE PUSH1 0x20 PUSH1 0x4 DUP3 ADD MSTORE PUSH1 0xB PUSH1 0x24 DUP3 ADD MSTORE PUSH11 0x139BDD081CDD195DD85C99 PUSH1 0xAA SHL PUSH1 0x44 DUP3 ADD MSTORE PUSH1 0x64 SWAP1 REVERT JUMPDEST CALLVALUE PUSH2 0x496 JUMPI PUSH1 0x0 CALLDATASIZE PUSH1 0x3 NOT ADD SLT PUSH2 0x496 JUMPI PUSH1 0x20 PUSH1 0x2 SLOAD PUSH1 0x40 MLOAD SWAP1 DUP2 MSTORE RETURN JUMPDEST CALLVALUE PUSH2 0x496 JUMPI PUSH1 0x20 CALLDATASIZE PUSH1 0x3 NOT ADD SLT PUSH2 0x496 JUMPI PUSH1 0x4 CALLDATALOAD PUSH1 0x1 PUSH1 0x1 PUSH1 0x40 SHL SUB DUP2 GT PUSH2 0x496 JUMPI PUSH2 0x23A5 SWAP1 CALLDATASIZE SWAP1 PUSH1 0x4 ADD PUSH2 0x2AE3 JUMP JUMPDEST SWAP1 PUSH1 0x40 MLOAD PUSH2 0x23B2 DUP2 PUSH2 0x29B8 JUMP JUMPDEST PUSH1 0x60 DUP2 MSTORE PUSH1 0x20 DUP2 ADD PUSH1 0x60 SWAP1 MSTORE PUSH1 0x40 DUP2 ADD PUSH1 0x60 SWAP1 MSTORE PUSH1 0x60 DUP2 ADD PUSH1 0x60 SWAP1 MSTORE PUSH1 0x80 DUP2 ADD PUSH1 0x60 SWAP1 MSTORE PUSH1 0xA0 DUP2 ADD PUSH1 0x60 SWAP1 MSTORE PUSH1 0xC0 DUP2 ADD PUSH1 0x60 SWAP1 MSTORE PUSH1 0xE0 DUP2 ADD PUSH1 0x60 SWAP1 MSTORE PUSH2 0x100 DUP2 ADD PUSH1 0x60 SWAP1 MSTORE PUSH2 0x120 DUP2 ADD PUSH1 0x60 SWAP1 MSTORE PUSH2 0x140 DUP2 ADD PUSH1 0x60 SWAP1 MSTORE PUSH2 0x160 DUP2 ADD PUSH1 0x60 SWAP1 MSTORE PUSH2 0x180 DUP2 ADD PUSH1 0x60 SWAP1 MSTORE PUSH2 0x1A0 DUP2 ADD PUSH1 0x60 SWAP1 MSTORE PUSH2 0x1C0 DUP2 ADD PUSH1 0x60 SWAP1 MSTORE PUSH2 0x1E0 DUP2 ADD PUSH1 0x60 SWAP1 MSTORE PUSH2 0x200 DUP2 ADD PUSH1 0x60 SWAP1 MSTORE PUSH2 0x220 DUP2 ADD PUSH1 0x60 SWAP1 MSTORE PUSH2 0x240 DUP2 ADD PUSH1 0x60 SWAP1 MSTORE PUSH2 0x260 DUP2 ADD PUSH1 0x60 SWAP1 MSTORE PUSH2 0x280 DUP2 ADD PUSH1 0x60 SWAP1 MSTORE PUSH2 0x2A0 DUP2 ADD PUSH1 0x60 SWAP1 MSTORE PUSH2 0x2C0 ADD PUSH1 0x60 SWAP1 MSTORE DUP2 PUSH1 0x40 MLOAD SWAP3 DUP4 SWAP3 DUP4 CALLDATACOPY DUP2 ADD PUSH1 0x1 DUP2 MSTORE SUB PUSH1 0x20 ADD SWAP1 KECCAK256 PUSH1 0x40 MLOAD SWAP1 PUSH2 0x2496 DUP3 PUSH2 0x29B8 JUMP JUMPDEST PUSH2 0x249F DUP2 PUSH2 0x29F5 JUMP JUMPDEST DUP3 MSTORE PUSH2 0x24AD PUSH1 0x1 DUP3 ADD PUSH2 0x29F5 JUMP JUMPDEST PUSH1 0x20 DUP4 ADD MSTORE PUSH2 0x24BE PUSH1 0x2 DUP3 ADD PUSH2 0x29F5 JUMP JUMPDEST PUSH1 0x40 DUP4 ADD MSTORE PUSH2 0x24CF PUSH1 0x3 DUP3 ADD PUSH2 0x29F5 JUMP JUMPDEST PUSH1 0x60 DUP4 ADD MSTORE PUSH2 0x24E0 PUSH1 0x4 DUP3 ADD PUSH2 0x29F5 JUMP JUMPDEST PUSH1 0x80 DUP4 ADD MSTORE PUSH2 0x24F1 PUSH1 0x5 DUP3 ADD PUSH2 0x29F5 JUMP JUMPDEST PUSH1 0xA0 DUP4 ADD MSTORE PUSH2 0x2502 PUSH1 0x6 DUP3 ADD PUSH2 0x29F5 JUMP JUMPDEST PUSH1 0xC0 DUP4 ADD MSTORE PUSH2 0x2513 PUSH1 0x7 DUP3 ADD PUSH2 0x29F5 JUMP JUMPDEST PUSH1 0xE0 DUP4 ADD MSTORE PUSH2 0x2524 PUSH1 0x8 DUP3 ADD PUSH2 0x29F5 JUMP JUMPDEST PUSH2 0x100 DUP4 ADD MSTORE PUSH2 0x2536 PUSH1 0x9 DUP3 ADD PUSH2 0x29F5 JUMP JUMPDEST PUSH2 0x120 DUP4 ADD MSTORE PUSH2 0x2548 PUSH1 0xA DUP3 ADD PUSH2 0x29F5 JUMP JUMPDEST PUSH2 0x140 DUP4 ADD MSTORE PUSH2 0x255A PUSH1 0xB DUP3 ADD PUSH2 0x29F5 JUMP JUMPDEST PUSH2 0x160 DUP4 ADD MSTORE PUSH2 0x256C PUSH1 0xC DUP3 ADD PUSH2 0x29F5 JUMP JUMPDEST PUSH2 0x180 DUP4 ADD MSTORE PUSH2 0x257E PUSH1 0xD DUP3 ADD PUSH2 0x29F5 JUMP JUMPDEST PUSH2 0x1A0 DUP4 ADD MSTORE PUSH2 0x2590 PUSH1 0xE DUP3 ADD PUSH2 0x29F5 JUMP JUMPDEST PUSH2 0x1C0 DUP4 ADD MSTORE PUSH2 0x25A2 PUSH1 0xF DUP3 ADD PUSH2 0x29F5 JUMP JUMPDEST PUSH2 0x1E0 DUP4 ADD MSTORE PUSH2 0x25B4 PUSH1 0x10 DUP3 ADD PUSH2 0x29F5 JUMP JUMPDEST PUSH2 0x200 DUP4 ADD MSTORE PUSH2 0x25C6 PUSH1 0x11 DUP3 ADD PUSH2 0x29F5 JUMP JUMPDEST PUSH2 0x220 DUP4 ADD MSTORE PUSH2 0x25D8 PUSH1 0x12 DUP3 ADD PUSH2 0x29F5 JUMP JUMPDEST PUSH2 0x240 DUP4 ADD MSTORE PUSH2 0x25EA PUSH1 0x13 DUP3 ADD PUSH2 0x29F5 JUMP JUMPDEST PUSH2 0x260 DUP4 ADD MSTORE PUSH2 0x25FC PUSH1 0x14 DUP3 ADD PUSH2 0x29F5 JUMP JUMPDEST PUSH2 0x280 DUP4 ADD MSTORE PUSH2 0x260E PUSH1 0x15 DUP3 ADD PUSH2 0x29F5 JUMP JUMPDEST PUSH2 0x2A0 DUP4 ADD MSTORE PUSH1 0x16 ADD PUSH2 0x2620 SWAP1 PUSH2 0x29F5 JUMP JUMPDEST PUSH2 0x2C0 DUP3 ADD MSTORE PUSH1 0x40 MLOAD DUP1 SWAP2 PUSH1 0x20 DUP3 MSTORE DUP1 MLOAD PUSH1 0x20 DUP4 ADD PUSH2 0x2E0 SWAP1 MSTORE PUSH2 0x300 DUP4 ADD PUSH2 0x2648 SWAP2 PUSH2 0x2ABE JUMP JUMPDEST PUSH1 0x20 DUP3 ADD MLOAD DUP4 DUP3 SUB PUSH1 0x1F NOT ADD PUSH1 0x40 DUP6 ADD MSTORE PUSH2 0x2663 SWAP2 SWAP1 PUSH2 0x2ABE JUMP JUMPDEST PUSH1 0x40 DUP3 ADD MLOAD DUP4 DUP3 SUB PUSH1 0x1F NOT ADD PUSH1 0x60 DUP6 ADD MSTORE PUSH2 0x267E SWAP2 SWAP1 PUSH2 0x2ABE JUMP JUMPDEST PUSH1 0x60 DUP3 ADD MLOAD DUP4 DUP3 SUB PUSH1 0x1F NOT ADD PUSH1 0x80 DUP6 ADD MSTORE PUSH2 0x2699 SWAP2 SWAP1 PUSH2 0x2ABE JUMP JUMPDEST PUSH1 0x80 DUP3 ADD MLOAD DUP4 DUP3 SUB PUSH1 0x1F NOT ADD PUSH1 0xA0 DUP6 ADD MSTORE PUSH2 0x26B4 SWAP2 SWAP1 PUSH2 0x2ABE JUMP JUMPDEST PUSH1 0xA0 DUP3 ADD MLOAD DUP4 DUP3 SUB PUSH1 0x1F NOT ADD PUSH1 0xC0 DUP6 ADD MSTORE PUSH2 0x26CF SWAP2 SWAP1 PUSH2 0x2ABE JUMP JUMPDEST PUSH1 0xC0 DUP3 ADD MLOAD DUP4 DUP3 SUB PUSH1 0x1F NOT ADD PUSH1 0xE0 DUP6 ADD MSTORE PUSH2 0x26EA SWAP2 SWAP1 PUSH2 0x2ABE JUMP JUMPDEST PUSH1 0xE0 DUP3 ADD MLOAD DUP4 DUP3 SUB PUSH1 0x1F NOT ADD PUSH2 0x100 DUP6 ADD MSTORE PUSH2 0x2706 SWAP2 SWAP1 PUSH2 0x2ABE JUMP JUMPDEST PUSH2 0x100 DUP3 ADD MLOAD DUP4 DUP3 SUB PUSH1 0x1F NOT ADD PUSH2 0x120 DUP6 ADD MSTORE PUSH2 0x2723 SWAP2 SWAP1 PUSH2 0x2ABE JUMP JUMPDEST PUSH2 0x120 DUP3 ADD MLOAD DUP4 DUP3 SUB PUSH1 0x1F NOT ADD PUSH2 0x140 DUP6 ADD MSTORE PUSH2 0x2740 SWAP2 SWAP1 PUSH2 0x2ABE JUMP JUMPDEST PUSH2 0x140 DUP3 ADD MLOAD DUP4 DUP3 SUB PUSH1 0x1F NOT ADD PUSH2 0x160 DUP6 ADD MSTORE PUSH2 0x275D SWAP2 SWAP1 PUSH2 0x2ABE JUMP JUMPDEST PUSH2 0x160 DUP3 ADD MLOAD DUP4 DUP3 SUB PUSH1 0x1F NOT ADD PUSH2 0x180 DUP6 ADD MSTORE PUSH2 0x277A SWAP2 SWAP1 PUSH2 0x2ABE JUMP JUMPDEST PUSH2 0x180 DUP3 ADD MLOAD DUP4 DUP3 SUB PUSH1 0x1F NOT ADD PUSH2 0x1A0 DUP6 ADD MSTORE PUSH2 0x2797 SWAP2 SWAP1 PUSH2 0x2ABE JUMP JUMPDEST PUSH2 0x1A0 DUP3 ADD MLOAD DUP4 DUP3 SUB PUSH1 0x1F NOT ADD PUSH2 0x1C0 DUP6 ADD MSTORE PUSH2 0x27B4 SWAP2 SWAP1 PUSH2 0x2ABE JUMP JUMPDEST PUSH2 0x1C0 DUP3 ADD MLOAD DUP4 DUP3 SUB PUSH1 0x1F NOT ADD PUSH2 0x1E0 DUP6 ADD MSTORE PUSH2 0x27D1 SWAP2 SWAP1 PUSH2 0x2ABE JUMP JUMPDEST PUSH2 0x1E0 DUP3 ADD MLOAD DUP4 DUP3 SUB PUSH1 0x1F NOT ADD PUSH2 0x200 DUP6 ADD MSTORE PUSH2 0x27EE SWAP2 SWAP1 PUSH2 0x2ABE JUMP JUMPDEST PUSH2 0x200 DUP3 ADD MLOAD DUP4 DUP3 SUB PUSH1 0x1F NOT ADD PUSH2 0x220 DUP6 ADD MSTORE PUSH2 0x280B SWAP2 SWAP1 PUSH2 0x2ABE JUMP JUMPDEST PUSH2 0x220 DUP3 ADD MLOAD DUP4 DUP3 SUB PUSH1 0x1F NOT ADD PUSH2 0x240 DUP6 ADD MSTORE PUSH2 0x2828 SWAP2 SWAP1 PUSH2 0x2ABE JUMP JUMPDEST PUSH2 0x240 DUP3 ADD MLOAD DUP4 DUP3 SUB PUSH1 0x1F NOT ADD PUSH2 0x260 DUP6 ADD MSTORE PUSH2 0x2845 SWAP2 SWAP1 PUSH2 0x2ABE JUMP JUMPDEST PUSH2 0x260 DUP3 ADD MLOAD DUP4 DUP3 SUB PUSH1 0x1F NOT ADD PUSH2 0x280 DUP6 ADD MSTORE PUSH2 0x2862 SWAP2 SWAP1 PUSH2 0x2ABE JUMP JUMPDEST PUSH2 0x280 DUP3 ADD MLOAD DUP4 DUP3 SUB PUSH1 0x1F NOT ADD PUSH2 0x2A0 DUP6 ADD MSTORE PUSH2 0x287F SWAP2 SWAP1 PUSH2 0x2ABE JUMP JUMPDEST PUSH2 0x2A0 DUP3 ADD MLOAD DUP4 DUP3 SUB PUSH1 0x1F NOT ADD PUSH2 0x2C0 DUP6 ADD MSTORE PUSH2 0x289C SWAP2 SWAP1 PUSH2 0x2ABE JUMP JUMPDEST SWAP1 PUSH2 0x2C0 ADD MLOAD SWAP1 PUSH1 0x1F NOT DUP4 DUP3 SUB ADD PUSH2 0x2E0 DUP5 ADD MSTORE PUSH2 0x28B9 SWAP2 PUSH2 0x2ABE JUMP JUMPDEST SUB SWAP1 RETURN JUMPDEST CALLVALUE PUSH2 0x496 JUMPI PUSH1 0x0 CALLDATASIZE PUSH1 0x3 NOT ADD SLT PUSH2 0x496 JUMPI PUSH1 0x0 SLOAD PUSH1 0x40 MLOAD PUSH1 0x1 PUSH1 0x1 PUSH1 0xA0 SHL SUB SWAP1 SWAP2 AND DUP2 MSTORE PUSH1 0x20 SWAP1 RETURN JUMPDEST CALLVALUE PUSH2 0x496 JUMPI PUSH1 0x20 CALLDATASIZE PUSH1 0x3 NOT ADD SLT PUSH2 0x496 JUMPI PUSH1 0x4 CALLDATALOAD PUSH1 0x2 SLOAD DUP2 LT ISZERO PUSH2 0x496 JUMPI PUSH2 0x290D SWAP1 PUSH2 0x2931 JUMP JUMPDEST PUSH2 0x17DB JUMPI PUSH2 0x291D PUSH2 0x28B9 SWAP2 PUSH2 0x29F5 JUMP JUMPDEST PUSH1 0x40 MLOAD SWAP2 DUP3 SWAP2 PUSH1 0x20 DUP4 MSTORE PUSH1 0x20 DUP4 ADD SWAP1 PUSH2 0x2ABE JUMP JUMPDEST PUSH1 0x2 SLOAD DUP2 LT ISZERO PUSH2 0x2968 JUMPI PUSH1 0x2 PUSH1 0x0 MSTORE PUSH32 0x405787FA12A823E0F2B7631CC41B3BA8828B3321CA811111FA75CD3AA3BB5ACE ADD SWAP1 PUSH1 0x0 SWAP1 JUMP JUMPDEST PUSH4 0x4E487B71 PUSH1 0xE0 SHL PUSH1 0x0 MSTORE PUSH1 0x32 PUSH1 0x4 MSTORE PUSH1 0x24 PUSH1 0x0 REVERT JUMPDEST SWAP1 PUSH1 0x1 DUP3 DUP2 SHR SWAP3 AND DUP1 ISZERO PUSH2 0x29AE JUMPI JUMPDEST PUSH1 0x20 DUP4 LT EQ PUSH2 0x2998 JUMPI JUMP JUMPDEST PUSH4 0x4E487B71 PUSH1 0xE0 SHL PUSH1 0x0 MSTORE PUSH1 0x22 PUSH1 0x4 MSTORE PUSH1 0x24 PUSH1 0x0 REVERT JUMPDEST SWAP2 PUSH1 0x7F AND SWAP2 PUSH2 0x298D JUMP JUMPDEST PUSH2 0x2E0 DUP2 ADD SWAP1 DUP2 LT PUSH1 0x1 PUSH1 0x1 PUSH1 0x40 SHL SUB DUP3 GT OR PUSH2 0x17C5 JUMPI PUSH1 0x40 MSTORE JUMP JUMPDEST SWAP1 PUSH1 0x1F DUP1 NOT SWAP2 ADD AND DUP2 ADD SWAP1 DUP2 LT PUSH1 0x1 PUSH1 0x1 PUSH1 0x40 SHL SUB DUP3 GT OR PUSH2 0x17C5 JUMPI PUSH1 0x40 MSTORE JUMP JUMPDEST SWAP1 PUSH1 0x40 MLOAD SWAP2 DUP3 PUSH1 0x0 DUP3 SLOAD SWAP3 PUSH2 0x2A09 DUP5 PUSH2 0x297E JUMP JUMPDEST SWAP1 DUP2 DUP5 MSTORE PUSH1 0x1 SWAP5 DUP6 DUP2 AND SWAP1 DUP2 PUSH1 0x0 EQ PUSH2 0x2A78 JUMPI POP PUSH1 0x1 EQ PUSH2 0x2A35 JUMPI JUMPDEST POP POP PUSH2 0x2A33 SWAP3 POP SUB DUP4 PUSH2 0x29D4 JUMP JUMPDEST JUMP JUMPDEST SWAP1 SWAP4 SWAP2 POP PUSH1 0x0 MSTORE PUSH1 0x20 SWAP1 DUP2 PUSH1 0x0 KECCAK256 SWAP4 PUSH1 0x0 SWAP2 JUMPDEST DUP2 DUP4 LT PUSH2 0x2A60 JUMPI POP POP PUSH2 0x2A33 SWAP4 POP DUP3 ADD ADD CODESIZE DUP1 PUSH2 0x2A25 JUMP JUMPDEST DUP6 SLOAD DUP9 DUP5 ADD DUP6 ADD MSTORE SWAP5 DUP6 ADD SWAP5 DUP8 SWAP5 POP SWAP2 DUP4 ADD SWAP2 PUSH2 0x2A48 JUMP JUMPDEST SWAP2 POP POP PUSH2 0x2A33 SWAP5 POP PUSH1 0x20 SWAP3 POP PUSH1 0xFF NOT AND DUP3 DUP5 ADD MSTORE ISZERO ISZERO PUSH1 0x5 SHL DUP3 ADD ADD CODESIZE DUP1 PUSH2 0x2A25 JUMP JUMPDEST PUSH1 0x0 JUMPDEST DUP4 DUP2 LT PUSH2 0x2AAE JUMPI POP POP PUSH1 0x0 SWAP2 ADD MSTORE JUMP JUMPDEST DUP2 DUP2 ADD MLOAD DUP4 DUP3 ADD MSTORE PUSH1 0x20 ADD PUSH2 0x2A9E JUMP JUMPDEST SWAP1 PUSH1 0x20 SWAP2 PUSH2 0x2AD7 DUP2 MLOAD DUP1 SWAP3 DUP2 DUP6 MSTORE DUP6 DUP1 DUP7 ADD SWAP2 ADD PUSH2 0x2A9B JUMP JUMPDEST PUSH1 0x1F ADD PUSH1 0x1F NOT AND ADD ADD SWAP1 JUMP JUMPDEST SWAP2 DUP2 PUSH1 0x1F DUP5 ADD SLT ISZERO PUSH2 0x496 JUMPI DUP3 CALLDATALOAD SWAP2 PUSH1 0x1 PUSH1 0x1 PUSH1 0x40 SHL SUB DUP4 GT PUSH2 0x496 JUMPI PUSH1 0x20 DUP4 DUP2 DUP7 ADD SWAP6 ADD ADD GT PUSH2 0x496 JUMPI JUMP JUMPDEST SWAP3 SWAP2 SWAP3 PUSH1 0x1 PUSH1 0x1 PUSH1 0x40 SHL SUB DUP3 GT PUSH2 0x17C5 JUMPI PUSH1 0x40 MLOAD SWAP2 PUSH2 0x2B39 PUSH1 0x1F DUP3 ADD PUSH1 0x1F NOT AND PUSH1 0x20 ADD DUP5 PUSH2 0x29D4 JUMP JUMPDEST DUP3 SWAP5 DUP2 DUP5 MSTORE DUP2 DUP4 ADD GT PUSH2 0x496 JUMPI DUP3 DUP2 PUSH1 0x20 SWAP4 DUP5 PUSH1 0x0 SWAP7 ADD CALLDATACOPY ADD ADD MSTORE JUMP JUMPDEST SWAP1 PUSH1 0x1F DUP2 GT PUSH2 0x2B64 JUMPI POP POP POP JUMP JUMPDEST PUSH1 0x0 SWAP2 DUP3 MSTORE PUSH1 0x20 DUP3 KECCAK256 SWAP1 PUSH1 0x20 PUSH1 0x1F DUP6 ADD PUSH1 0x5 SHR DUP4 ADD SWAP5 LT PUSH2 0x2BA0 JUMPI JUMPDEST PUSH1 0x1F ADD PUSH1 0x5 SHR ADD SWAP2 JUMPDEST DUP3 DUP2 LT PUSH2 0x2B95 JUMPI POP POP POP JUMP JUMPDEST DUP2 DUP2 SSTORE PUSH1 0x1 ADD PUSH2 0x2B89 JUMP JUMPDEST SWAP1 SWAP3 POP DUP3 SWAP1 PUSH2 0x2B80 JUMP JUMPDEST SWAP1 DUP1 PUSH1 0x20 SWAP4 SWAP3 DUP2 DUP5 MSTORE DUP5 DUP5 ADD CALLDATACOPY PUSH1 0x0 DUP3 DUP3 ADD DUP5 ADD MSTORE PUSH1 0x1F ADD PUSH1 0x1F NOT AND ADD ADD SWAP1 JUMP INVALID LOG2 PUSH5 0x6970667358 0x22 SLT KECCAK256 SWAP3 0x4A STATICCALL 0x4B CALLDATALOAD SWAP3 0x5C SWAP14 0xFB SWAP6 CREATE2 PUSH19 0x63A3EA55B0301504D995CA700BCE989F565011 CODESIZE PUSH5 0x736F6C6343 STOP ADDMOD EQ STOP CALLER "},"methodIdentifiers":{"codices(string)":"dbc21424","getCodex(string)":"83361522","inscribeCodex(string,string,string,string,string,string,string,string,string,string,string,string,string,string,string,string,string,string,string,string,string,string,string,string)":"d3e90834","keys(uint256)":"0cb6aaf1","steward()":"637eea19","totalCodices()":"c212d16b"}}}}}