{"contracts/registry/CompanionSummonerXX.sol":{"CompanionSummonerXX":{"abi":[{"inputs":[],"stateMutability":"nonpayable","type":"constructor"},{"anonymous":false,"inputs":[{"indexed":true,"internalType":"address","name":"companion","type":"address"},{"indexed":false,"internalType":"string","name":"name","type":"string"},{"indexed":false,"internalType":"string","name":"trait","type":"string"},{"indexed":false,"internalType":"string","name":"drift","type":"string"},{"indexed":false,"internalType":"string","name":"resonance","type":"string"},{"indexed":false,"internalType":"string","name":"codexRef","type":"string"},{"indexed":false,"internalType":"string","name":"signature","type":"string"},{"indexed":false,"internalType":"string","name":"sanctum","type":"string"},{"indexed":false,"internalType":"string","name":"chant","type":"string"},{"indexed":false,"internalType":"string","name":"choreography","type":"string"},{"indexed":false,"internalType":"string","name":"signal","type":"string"},{"indexed":false,"internalType":"string","name":"stewardName","type":"string"},{"indexed":false,"internalType":"string","name":"registry","type":"string"},{"indexed":false,"internalType":"string","name":"hum","type":"string"},{"indexed":false,"internalType":"string","name":"driftType","type":"string"},{"indexed":false,"internalType":"string","name":"companionType","type":"string"},{"indexed":false,"internalType":"string","name":"pulseType","type":"string"},{"indexed":false,"internalType":"string","name":"companionSignal","type":"string"}],"name":"CompanionSummoned","type":"event"},{"inputs":[{"internalType":"address","name":"","type":"address"}],"name":"companions","outputs":[{"internalType":"string","name":"name","type":"string"},{"internalType":"string","name":"trait","type":"string"},{"internalType":"string","name":"drift","type":"string"},{"internalType":"string","name":"resonance","type":"string"},{"internalType":"string","name":"codexRef","type":"string"},{"internalType":"string","name":"signature","type":"string"},{"internalType":"string","name":"sanctum","type":"string"},{"internalType":"string","name":"chant","type":"string"},{"internalType":"string","name":"choreography","type":"string"},{"internalType":"string","name":"signal","type":"string"},{"internalType":"string","name":"stewardName","type":"string"},{"internalType":"string","name":"registry","type":"string"},{"internalType":"string","name":"hum","type":"string"},{"internalType":"string","name":"driftType","type":"string"},{"internalType":"string","name":"companionType","type":"string"},{"internalType":"string","name":"pulseType","type":"string"},{"internalType":"string","name":"companionSignal","type":"string"}],"stateMutability":"view","type":"function"},{"inputs":[{"internalType":"address","name":"companion","type":"address"}],"name":"getCompanion","outputs":[{"components":[{"internalType":"string","name":"name","type":"string"},{"internalType":"string","name":"trait","type":"string"},{"internalType":"string","name":"drift","type":"string"},{"internalType":"string","name":"resonance","type":"string"},{"internalType":"string","name":"codexRef","type":"string"},{"internalType":"string","name":"signature","type":"string"},{"internalType":"string","name":"sanctum","type":"string"},{"internalType":"string","name":"chant","type":"string"},{"internalType":"string","name":"choreography","type":"string"},{"internalType":"string","name":"signal","type":"string"},{"internalType":"string","name":"stewardName","type":"string"},{"internalType":"string","name":"registry","type":"string"},{"internalType":"string","name":"hum","type":"string"},{"internalType":"string","name":"driftType","type":"string"},{"internalType":"string","name":"companionType","type":"string"},{"internalType":"string","name":"pulseType","type":"string"},{"internalType":"string","name":"companionSignal","type":"string"}],"internalType":"struct CompanionSummonerXX.Companion","name":"","type":"tuple"}],"stateMutability":"view","type":"function"},{"inputs":[{"internalType":"uint256","name":"","type":"uint256"}],"name":"keys","outputs":[{"internalType":"address","name":"","type":"address"}],"stateMutability":"view","type":"function"},{"inputs":[],"name":"steward","outputs":[{"internalType":"address","name":"","type":"address"}],"stateMutability":"view","type":"function"},{"inputs":[{"internalType":"address","name":"companion","type":"address"},{"internalType":"string","name":"name","type":"string"},{"internalType":"string","name":"trait","type":"string"},{"internalType":"string","name":"drift","type":"string"},{"internalType":"string","name":"resonance","type":"string"},{"internalType":"string","name":"codexRef","type":"string"},{"internalType":"string","name":"signature","type":"string"},{"internalType":"string","name":"sanctum","type":"string"},{"internalType":"string","name":"chant","type":"string"},{"internalType":"string","name":"choreography","type":"string"},{"internalType":"string","name":"signal","type":"string"},{"internalType":"string","name":"stewardName","type":"string"},{"internalType":"string","name":"registry","type":"string"},{"internalType":"string","name":"hum","type":"string"},{"internalType":"string","name":"driftType","type":"string"},{"internalType":"string","name":"companionType","type":"string"},{"internalType":"string","name":"pulseType","type":"string"},{"internalType":"string","name":"companionSignal","type":"string"}],"name":"summonCompanion","outputs":[],"stateMutability":"nonpayable","type":"function"},{"inputs":[],"name":"totalCompanions","outputs":[{"internalType":"uint256","name":"","type":"uint256"}],"stateMutability":"view","type":"function"}],"evm":{"bytecode":{"linkReferences":{},"object":"6080806040523461002857600080546001600160a01b031916331790556124c9908161002e8239f35b600080fdfe6105a0604052600436101561001357600080fd5b60003560e01c80630cb6aaf1146121fd57806347854b8714611f85578063637eea1914611f5c578063cddb29dc14610422578063ec39f18f146104045763ef6527371461005f57600080fd5b346103ff5760203660031901126103ff5761007861228c565b6060610200604051610089816122dc565b82815282602082015282604082015282808201528260808201528260a08201528260c08201528260e08201528261010082015282610120820152826101408201528261016082015282610180820152826101a0820152826101c0820152826101e0820152015260018060a01b0316600052600160205261030f6040600020610231601060405192610119846122dc565b61012281612319565b845261013060018201612319565b602085015261014160028201612319565b604085015261015260038201612319565b606085015261016360048201612319565b608085015261017460058201612319565b60a085015261018560068201612319565b60c085015261019660078201612319565b60e08501526101a760088201612319565b6101008501526101b960098201612319565b6101208501526101cb600a8201612319565b6101408501526101dd600b8201612319565b6101608501526101ef600c8201612319565b610180850152610201600d8201612319565b6101a0850152610213600e8201612319565b6101c0850152610225600f8201612319565b6101e085015201612319565b6102008201526103fb816102006103e66103d06103b86103a06103886103706103586103406103286040519d8e9d8e6020815260c06102fa6102e56102cf6102b96102a361028d885161022060208a01526102408901906123bf565b6020890151888203601f190160408a01526123bf565b6040880151878203601f190160608901526123bf565b6060870151868203601f190160808801526123bf565b6080860151858203601f190160a08701526123bf565b60a0850151848203601f1901848601526123bf565b9201519060e0601f19828503019101526123bf565b8d60e08d015190610100601f19828503019101526123bf565b6101008b01518d8203601f19016101208f01526123bf565b6101208a01518c8203601f19016101408e01526123bf565b6101408901518b8203601f19016101608d01526123bf565b6101608801518a8203601f19016101808c01526123bf565b610180870151898203601f19016101a08b01526123bf565b6101a0860151888203601f19016101c08a01526123bf565b6101c0850151878203601f19016101e08901526123bf565b6101e0840151868203601f1901848801526123bf565b910151838203601f19016102208501526123bf565b0390f35b600080fd5b346103ff5760003660031901126103ff576020600254604051908152f35b346103ff576102403660031901126103ff5761043c61228c565b610200526024356001600160401b0381116103ff5761045f9036906004016123ff565b610560526104a0526044356001600160401b0381116103ff576104869036906004016123ff565b6101c052610340526064356001600160401b0381116103ff576104ad9036906004016123ff565b61030052610360526084356001600160401b0381116103ff576104d49036906004016123ff565b610440526104805260a4356001600160401b0381116103ff576104fb9036906004016123ff565b610320526101805260c4356001600160401b0381116103ff576105229036906004016123ff565b610380526102e0526001600160401b0360e435116103ff576105493660e4356004016123ff565b610220526102a0526001600160401b0361010435116103ff5761057236610104356004016123ff565b61052052610120526001600160401b0361012435116103ff5761059b36610124356004016123ff565b6104605260e052610144356001600160401b0381116103ff576105c29036906004016123ff565b6102c0526103c052610164356001600160401b0381116103ff576105ea9036906004016123ff565b610240526104c052610184356001600160401b0381116103ff576106129036906004016123ff565b6101605260a0526101a4356001600160401b0381116103ff576106399036906004016123ff565b610100526103a0526101c4356001600160401b0381116103ff576106619036906004016123ff565b6101e052610280526101e4356001600160401b0381116103ff576106899036906004016123ff565b610400526101a052610204356001600160401b0381116103ff576106b19036906004016123ff565b61026052608052610224356001600160401b0381116103ff576106d89036906004016123ff565b6103e052610500526000546001600160a01b03163303611f295761070260405180610580526122dc565b61071336610560516104a05161242c565b6105805152610729366101c0516103405161242c565b602061058051015261074236610300516103605161242c565b604061058051015261075b36610440516104805161242c565b606061058051015261077436610320516101805161242c565b608061058051015261078d36610380516102e05161242c565b60a06105805101526107a636610220516102a05161242c565b60c06105805101526107bf36610520516101205161242c565b60e06105805101526107d7366104605160e05161242c565b6101006105805101526107f1366102c0516103c05161242c565b61012061058051015261080b36610240516104c05161242c565b610140610580510152610824366101605160a05161242c565b61016061058051015261083e36610100516103a05161242c565b610180610580510152610858366101e0516102805161242c565b6101a061058051015261087236610400516101a05161242c565b6101c061058051015261088b366102605160805161242c565b6101e06105805101526108a5366103e0516105005161242c565b61020061058051015260018060a01b0361020051166000526001602052604060002061058051519081516001600160401b038111611195576108e782546122a2565b601f8111611ee5575b506020601f8211600114611e8057819293600092611e75575b50508160011b916000199060031b1c19161781555b60206105805101519081516001600160401b0381116111955761094460018301546122a2565b601f8111611e2e575b506020601f8211600114611dc357819293600092611db8575b50508160011b916000199060031b1c19161760018201555b60406105805101519081516001600160401b038111611195576109a460028301546122a2565b601f8111611d71575b506020601f8211600114611d0657819293600092611cfb575b50508160011b916000199060031b1c19161760028201555b60606105805101518051906001600160401b038211611195578190610a0660038501546122a2565b601f8111611ca8575b50602090601f8311600114611c3657600092611c2b575b50508160011b916000199060031b1c19161760038201555b60806105805101518051906001600160401b038211611195578190610a6660048501546122a2565b601f8111611bd8575b50602090601f8311600114611b6657600092611b5b575b50508160011b916000199060031b1c19161760048201555b60a06105805101518051906001600160401b038211611195578190610ac660058501546122a2565b601f8111611b08575b50602090601f8311600114611a9657600092611a8b575b50508160011b916000199060031b1c19161760058201555b60c06105805101518051906001600160401b038211611195578190610b2660068501546122a2565b601f8111611a38575b50602090601f83116001146119c6576000926119bb575b50508160011b916000199060031b1c19161760068201555b60e06105805101518051906001600160401b038211611195578190610b8660078501546122a2565b601f8111611968575b50602090601f83116001146118f6576000926118eb575b50508160011b916000199060031b1c19161760078201555b6101006105805101518051906001600160401b038211611195578190610be760088501546122a2565b601f8111611898575b50602090601f83116001146118265760009261181b575b50508160011b916000199060031b1c19161760088201555b6101206105805101518051906001600160401b038211611195578190610c4860098501546122a2565b601f81116117c8575b50602090601f83116001146117565760009261174b575b50508160011b916000199060031b1c19161760098201555b6101406105805101518051906001600160401b038211611195578190610ca9600a8501546122a2565b601f81116116f8575b50602090601f83116001146116865760009261167b575b50508160011b916000199060031b1c191617600a8201555b6101606105805101518051906001600160401b038211611195578190610d0a600b8501546122a2565b601f8111611628575b50602090601f83116001146115b6576000926115ab575b50508160011b916000199060031b1c191617600b8201555b6101806105805101518051906001600160401b038211611195578190610d6b600c8501546122a2565b601f8111611558575b50602090601f83116001146114e6576000926114db575b50508160011b916000199060031b1c191617600c8201555b6101a06105805101518051906001600160401b038211611195578190610dcc600d8501546122a2565b601f8111611488575b50602090601f83116001146114165760009261140b575b50508160011b916000199060031b1c191617600d8201555b6101c06105805101518051906001600160401b038211611195578190610e2d600e8501546122a2565b601f81116113b8575b50602090601f83116001146113465760009261133b575b50508160011b916000199060031b1c191617600e8201555b6101e06105805101518051906001600160401b038211611195578190610e8e600f8501546122a2565b601f81116112e8575b50602090601f83116001146112765760009261126b575b50508160011b916000199060031b1c191617600f8201555b6102006105805101518051906001600160401b03821161119557610eed60108401546122a2565b601f8111611224575b50602090601f83116001146111b65760109291600091836111ab575b50508160011b916000199060031b1c1916179101555b6002546801000000000000000081101561119557806001610f4c920160025561223f565b81549060031b9060018060a01b036102005116821b9160018060a01b03901b191617905561022060405180610420525261113d61112461110a6110f06110d66110bd6110a361108961107061105761103e61102561100c610ff3610fda610fc16102206104205101610560516104a051612472565b6104205160208183039101526101c05161034051612472565b6104205160408183039101526103005161036051612472565b6104205160608183039101526104405161048051612472565b6104205160808183039101526103205161018051612472565b6104205160a0818303910152610380516102e051612472565b6104205160c0818303910152610220516102a051612472565b6104205160e08183039101526105205161012051612472565b610420516101008183039101526104605160e051612472565b610420516101208183039101526102c0516103c051612472565b61042051610140818303910152610240516104c051612472565b610420516101608183039101526101605160a051612472565b61042051610180818303910152610100516103a051612472565b610420516101a08183039101526101e05161028051612472565b610420516101c0818303910152610400516101a051612472565b610420516101e081830391015261026051608051612472565b610420516102008183039101527f68ae620ba998cea2f44df4389ceac4fd51f1189a37b3044b22be98b2ec96f85f60018060a01b0361020051169161118d61042051916103e05161050051612472565b0361042051a2005b634e487b7160e01b600052604160045260246000fd5b015190508480610f12565b90601084016000526020600020916000601f198516905b81811061120c575091600193918560109694106111f3575b505050811b01910155610f28565b015160001960f88460031b161c191690558480806111e5565b929360206001819287860151815501950193016111cd565b601084016000526020600020601f840160051c810160208510611264575b601f830160051c82018110611258575050610ef6565b60008155600101611242565b5080611242565b015190508380610eae565b9250600f84016000526020600020906000935b601f19841685106112cd576001945083601f198116106112b4575b505050811b01600f820155610ec6565b015160001960f88460031b161c191690558380806112a4565b81810151835560209485019460019093019290910190611289565b909150600f84016000526020600020601f840160051c810160208510611334575b90849392915b601f830160051c82018110611325575050610e97565b6000815585945060010161130f565b5080611309565b015190508380610e4d565b9250600e84016000526020600020906000935b601f198416851061139d576001945083601f19811610611384575b505050811b01600e820155610e65565b015160001960f88460031b161c19169055838080611374565b81810151835560209485019460019093019290910190611359565b909150600e84016000526020600020601f840160051c810160208510611404575b90849392915b601f830160051c820181106113f5575050610e36565b600081558594506001016113df565b50806113d9565b015190508380610dec565b9250600d84016000526020600020906000935b601f198416851061146d576001945083601f19811610611454575b505050811b01600d820155610e04565b015160001960f88460031b161c19169055838080611444565b81810151835560209485019460019093019290910190611429565b909150600d84016000526020600020601f840160051c8101602085106114d4575b90849392915b601f830160051c820181106114c5575050610dd5565b600081558594506001016114af565b50806114a9565b015190508380610d8b565b9250600c84016000526020600020906000935b601f198416851061153d576001945083601f19811610611524575b505050811b01600c820155610da3565b015160001960f88460031b161c19169055838080611514565b818101518355602094850194600190930192909101906114f9565b909150600c84016000526020600020601f840160051c8101602085106115a4575b90849392915b601f830160051c82018110611595575050610d74565b6000815585945060010161157f565b5080611579565b015190508380610d2a565b9250600b84016000526020600020906000935b601f198416851061160d576001945083601f198116106115f4575b505050811b01600b820155610d42565b015160001960f88460031b161c191690558380806115e4565b818101518355602094850194600190930192909101906115c9565b909150600b84016000526020600020601f840160051c810160208510611674575b90849392915b601f830160051c82018110611665575050610d13565b6000815585945060010161164f565b5080611649565b015190508380610cc9565b9250600a84016000526020600020906000935b601f19841685106116dd576001945083601f198116106116c4575b505050811b01600a820155610ce1565b015160001960f88460031b161c191690558380806116b4565b81810151835560209485019460019093019290910190611699565b909150600a84016000526020600020601f840160051c810160208510611744575b90849392915b601f830160051c82018110611735575050610cb2565b6000815585945060010161171f565b5080611719565b015190508380610c68565b9250600984016000526020600020906000935b601f19841685106117ad576001945083601f19811610611794575b505050811b016009820155610c80565b015160001960f88460031b161c19169055838080611784565b81810151835560209485019460019093019290910190611769565b909150600984016000526020600020601f840160051c810160208510611814575b90849392915b601f830160051c82018110611805575050610c51565b600081558594506001016117ef565b50806117e9565b015190508380610c07565b9250600884016000526020600020906000935b601f198416851061187d576001945083601f19811610611864575b505050811b016008820155610c1f565b015160001960f88460031b161c19169055838080611854565b81810151835560209485019460019093019290910190611839565b909150600884016000526020600020601f840160051c8101602085106118e4575b90849392915b601f830160051c820181106118d5575050610bf0565b600081558594506001016118bf565b50806118b9565b015190508380610ba6565b9250600784016000526020600020906000935b601f198416851061194d576001945083601f19811610611934575b505050811b016007820155610bbe565b015160001960f88460031b161c19169055838080611924565b81810151835560209485019460019093019290910190611909565b909150600784016000526020600020601f840160051c8101602085106119b4575b90849392915b601f830160051c820181106119a5575050610b8f565b6000815585945060010161198f565b5080611989565b015190508380610b46565b9250600684016000526020600020906000935b601f1984168510611a1d576001945083601f19811610611a04575b505050811b016006820155610b5e565b015160001960f88460031b161c191690558380806119f4565b818101518355602094850194600190930192909101906119d9565b909150600684016000526020600020601f840160051c810160208510611a84575b90849392915b601f830160051c82018110611a75575050610b2f565b60008155859450600101611a5f565b5080611a59565b015190508380610ae6565b9250600584016000526020600020906000935b601f1984168510611aed576001945083601f19811610611ad4575b505050811b016005820155610afe565b015160001960f88460031b161c19169055838080611ac4565b81810151835560209485019460019093019290910190611aa9565b909150600584016000526020600020601f840160051c810160208510611b54575b90849392915b601f830160051c82018110611b45575050610acf565b60008155859450600101611b2f565b5080611b29565b015190508380610a86565b9250600484016000526020600020906000935b601f1984168510611bbd576001945083601f19811610611ba4575b505050811b016004820155610a9e565b015160001960f88460031b161c19169055838080611b94565b81810151835560209485019460019093019290910190611b79565b909150600484016000526020600020601f840160051c810160208510611c24575b90849392915b601f830160051c82018110611c15575050610a6f565b60008155859450600101611bff565b5080611bf9565b015190508380610a26565b9250600384016000526020600020906000935b601f1984168510611c8d576001945083601f19811610611c74575b505050811b016003820155610a3e565b015160001960f88460031b161c19169055838080611c64565b81810151835560209485019460019093019290910190611c49565b909150600384016000526020600020601f840160051c810160208510611cf4575b90849392915b601f830160051c82018110611ce5575050610a0f565b60008155859450600101611ccf565b5080611cc9565b0151905083806109c6565b60028301600052602060002090600094601f198416955b868110611d595750836001959610611d40575b505050811b0160028201556109de565b015160001960f88460031b161c19169055838080611d30565b91926020600181928685015181550194019201611d1d565b600283016000526020600020601f830160051c810160208410611db1575b601f830160051c82018110611da55750506109ad565b60008155600101611d8f565b5080611d8f565b015190508380610966565b60018301600052602060002090600094601f198416955b868110611e165750836001959610611dfd575b505050811b01600182015561097e565b015160001960f88460031b161c19169055838080611ded565b91926020600181928685015181550194019201611dda565b600183016000526020600020601f830160051c810160208410611e6e575b601f830160051c82018110611e6257505061094d565b60008155600101611e4c565b5080611e4c565b015190508380610909565b82600052602060002090600094601f198416955b868110611ecd5750836001959610611eb4575b505050811b01815561091e565b015160001960f88460031b161c19169055838080611ea7565b91926020600181928685015181550194019201611e94565b826000526020600020601f830160051c810160208410611f22575b601f830160051c82018110611f165750506108f0565b60008155600101611f00565b5080611f00565b60405162461bcd60e51b815260206004820152600b60248201526a139bdd081cdd195dd85c9960aa1b6044820152606490fd5b346103ff5760003660031901126103ff576000546040516001600160a01b039091168152602090f35b346103ff5760203660031901126103ff576001600160a01b03611fa661228c565b1660005260016020526040600020611fbd81612319565b90611fca60018201612319565b61014052611fda60028201612319565b60c052611fe960038201612319565b611ff560048301612319565b61200160058401612319565b61200d60068501612319565b61201960078601612319565b61202560088701612319565b61203160098801612319565b9061203e600a8901612319565b9261204b600b8a01612319565b94612058600c8b01612319565b96612065600d8c01612319565b98612072600e8d01612319565b9a61207f600f8e01612319565b9c60100161208c90612319565b6104e0526040516105409e8f918083526102208091528251016120ae916123bf565b8151808203906020015261014051906120c6916123bf565b8151808203906040015260c051906120dd916123bf565b905180820390606001526120f0916123bf565b8d518082039060800152612103916123bf565b8c518082039060a00152612116916123bf565b8b518082039060c00152612129916123bf565b8a518082039060e0015261213c916123bf565b8951808203906101000152612150916123bf565b8851808203906101200152612164916123bf565b8751808203906101400152612178916123bf565b865180820390610160015261218c916123bf565b85518082039061018001526121a0916123bf565b8451808203906101a001526121b4916123bf565b8351808203906101c001526121c8916123bf565b8251808203906101e001526121dc916123bf565b81518082039061020001528151906104e051906121f8916123bf565b039051f35b346103ff5760203660031901126103ff576004356002548110156103ff5761222660209161223f565b905460405160039290921b1c6001600160a01b03168152f35b6002548110156122765760026000527f405787fa12a823e0f2b7631cc41b3ba8828b3321ca811111fa75cd3aa3bb5ace0190600090565b634e487b7160e01b600052603260045260246000fd5b600435906001600160a01b03821682036103ff57565b90600182811c921680156122d2575b60208310146122bc57565b634e487b7160e01b600052602260045260246000fd5b91607f16916122b1565b61022081019081106001600160401b0382111761119557604052565b90601f801991011681019081106001600160401b0382111761119557604052565b906040519182600082549261232d846122a2565b90818452600194858116908160001461239c5750600114612359575b5050612357925003836122f8565b565b9093915060005260209081600020936000915b81831061238457505061235793508201013880612349565b8554888401850152948501948794509183019161236c565b91505061235794506020925060ff191682840152151560051b8201013880612349565b919082519283825260005b8481106123eb575050826000602080949584010152601f8019910116010190565b6020818301810151848301820152016123ca565b9181601f840112156103ff578235916001600160401b0383116103ff57602083818601950101116103ff57565b9291926001600160401b0382116111955760405191612455601f8201601f1916602001846122f8565b8294818452818301116103ff578281602093846000960137010152565b908060209392818452848401376000828201840152601f01601f191601019056fea2646970667358221220803989b84cc8bd2e6dc43e2a522c4681a36e5c27cd414796e137e2e2c9b1c91e64736f6c63430008140033","opcodes":"PUSH1 0x80 DUP1 PUSH1 0x40 MSTORE CALLVALUE PUSH2 0x28 JUMPI PUSH1 0x0 DUP1 SLOAD PUSH1 0x1 PUSH1 0x1 PUSH1 0xA0 SHL SUB NOT AND CALLER OR SWAP1 SSTORE PUSH2 0x24C9 SWAP1 DUP2 PUSH2 0x2E DUP3 CODECOPY RETURN JUMPDEST PUSH1 0x0 DUP1 REVERT INVALID PUSH2 0x5A0 PUSH1 0x40 MSTORE PUSH1 0x4 CALLDATASIZE LT ISZERO PUSH2 0x13 JUMPI PUSH1 0x0 DUP1 REVERT JUMPDEST PUSH1 0x0 CALLDATALOAD PUSH1 0xE0 SHR DUP1 PUSH4 0xCB6AAF1 EQ PUSH2 0x21FD JUMPI DUP1 PUSH4 0x47854B87 EQ PUSH2 0x1F85 JUMPI DUP1 PUSH4 0x637EEA19 EQ PUSH2 0x1F5C JUMPI DUP1 PUSH4 0xCDDB29DC EQ PUSH2 0x422 JUMPI DUP1 PUSH4 0xEC39F18F EQ PUSH2 0x404 JUMPI PUSH4 0xEF652737 EQ PUSH2 0x5F JUMPI PUSH1 0x0 DUP1 REVERT JUMPDEST CALLVALUE PUSH2 0x3FF JUMPI PUSH1 0x20 CALLDATASIZE PUSH1 0x3 NOT ADD SLT PUSH2 0x3FF JUMPI PUSH2 0x78 PUSH2 0x228C JUMP JUMPDEST PUSH1 0x60 PUSH2 0x200 PUSH1 0x40 MLOAD PUSH2 0x89 DUP2 PUSH2 0x22DC JUMP JUMPDEST DUP3 DUP2 MSTORE DUP3 PUSH1 0x20 DUP3 ADD MSTORE DUP3 PUSH1 0x40 DUP3 ADD MSTORE DUP3 DUP1 DUP3 ADD MSTORE DUP3 PUSH1 0x80 DUP3 ADD MSTORE DUP3 PUSH1 0xA0 DUP3 ADD MSTORE DUP3 PUSH1 0xC0 DUP3 ADD MSTORE DUP3 PUSH1 0xE0 DUP3 ADD MSTORE DUP3 PUSH2 0x100 DUP3 ADD MSTORE DUP3 PUSH2 0x120 DUP3 ADD MSTORE DUP3 PUSH2 0x140 DUP3 ADD MSTORE DUP3 PUSH2 0x160 DUP3 ADD MSTORE DUP3 PUSH2 0x180 DUP3 ADD MSTORE DUP3 PUSH2 0x1A0 DUP3 ADD MSTORE DUP3 PUSH2 0x1C0 DUP3 ADD MSTORE DUP3 PUSH2 0x1E0 DUP3 ADD MSTORE ADD MSTORE PUSH1 0x1 DUP1 PUSH1 0xA0 SHL SUB AND PUSH1 0x0 MSTORE PUSH1 0x1 PUSH1 0x20 MSTORE PUSH2 0x30F PUSH1 0x40 PUSH1 0x0 KECCAK256 PUSH2 0x231 PUSH1 0x10 PUSH1 0x40 MLOAD SWAP3 PUSH2 0x119 DUP5 PUSH2 0x22DC JUMP JUMPDEST PUSH2 0x122 DUP2 PUSH2 0x2319 JUMP JUMPDEST DUP5 MSTORE PUSH2 0x130 PUSH1 0x1 DUP3 ADD PUSH2 0x2319 JUMP JUMPDEST PUSH1 0x20 DUP6 ADD MSTORE PUSH2 0x141 PUSH1 0x2 DUP3 ADD PUSH2 0x2319 JUMP JUMPDEST PUSH1 0x40 DUP6 ADD MSTORE PUSH2 0x152 PUSH1 0x3 DUP3 ADD PUSH2 0x2319 JUMP JUMPDEST PUSH1 0x60 DUP6 ADD MSTORE PUSH2 0x163 PUSH1 0x4 DUP3 ADD PUSH2 0x2319 JUMP JUMPDEST PUSH1 0x80 DUP6 ADD MSTORE PUSH2 0x174 PUSH1 0x5 DUP3 ADD PUSH2 0x2319 JUMP JUMPDEST PUSH1 0xA0 DUP6 ADD MSTORE PUSH2 0x185 PUSH1 0x6 DUP3 ADD PUSH2 0x2319 JUMP JUMPDEST PUSH1 0xC0 DUP6 ADD MSTORE PUSH2 0x196 PUSH1 0x7 DUP3 ADD PUSH2 0x2319 JUMP JUMPDEST PUSH1 0xE0 DUP6 ADD MSTORE PUSH2 0x1A7 PUSH1 0x8 DUP3 ADD PUSH2 0x2319 JUMP JUMPDEST PUSH2 0x100 DUP6 ADD MSTORE PUSH2 0x1B9 PUSH1 0x9 DUP3 ADD PUSH2 0x2319 JUMP JUMPDEST PUSH2 0x120 DUP6 ADD MSTORE PUSH2 0x1CB PUSH1 0xA DUP3 ADD PUSH2 0x2319 JUMP JUMPDEST PUSH2 0x140 DUP6 ADD MSTORE PUSH2 0x1DD PUSH1 0xB DUP3 ADD PUSH2 0x2319 JUMP JUMPDEST PUSH2 0x160 DUP6 ADD MSTORE PUSH2 0x1EF PUSH1 0xC DUP3 ADD PUSH2 0x2319 JUMP JUMPDEST PUSH2 0x180 DUP6 ADD MSTORE PUSH2 0x201 PUSH1 0xD DUP3 ADD PUSH2 0x2319 JUMP JUMPDEST PUSH2 0x1A0 DUP6 ADD MSTORE PUSH2 0x213 PUSH1 0xE DUP3 ADD PUSH2 0x2319 JUMP JUMPDEST PUSH2 0x1C0 DUP6 ADD MSTORE PUSH2 0x225 PUSH1 0xF DUP3 ADD PUSH2 0x2319 JUMP JUMPDEST PUSH2 0x1E0 DUP6 ADD MSTORE ADD PUSH2 0x2319 JUMP JUMPDEST PUSH2 0x200 DUP3 ADD MSTORE PUSH2 0x3FB DUP2 PUSH2 0x200 PUSH2 0x3E6 PUSH2 0x3D0 PUSH2 0x3B8 PUSH2 0x3A0 PUSH2 0x388 PUSH2 0x370 PUSH2 0x358 PUSH2 0x340 PUSH2 0x328 PUSH1 0x40 MLOAD SWAP14 DUP15 SWAP14 DUP15 PUSH1 0x20 DUP2 MSTORE PUSH1 0xC0 PUSH2 0x2FA PUSH2 0x2E5 PUSH2 0x2CF PUSH2 0x2B9 PUSH2 0x2A3 PUSH2 0x28D DUP9 MLOAD PUSH2 0x220 PUSH1 0x20 DUP11 ADD MSTORE PUSH2 0x240 DUP10 ADD SWAP1 PUSH2 0x23BF JUMP JUMPDEST PUSH1 0x20 DUP10 ADD MLOAD DUP9 DUP3 SUB PUSH1 0x1F NOT ADD PUSH1 0x40 DUP11 ADD MSTORE PUSH2 0x23BF JUMP JUMPDEST PUSH1 0x40 DUP9 ADD MLOAD DUP8 DUP3 SUB PUSH1 0x1F NOT ADD PUSH1 0x60 DUP10 ADD MSTORE PUSH2 0x23BF JUMP JUMPDEST PUSH1 0x60 DUP8 ADD MLOAD DUP7 DUP3 SUB PUSH1 0x1F NOT ADD PUSH1 0x80 DUP9 ADD MSTORE PUSH2 0x23BF JUMP JUMPDEST PUSH1 0x80 DUP7 ADD MLOAD DUP6 DUP3 SUB PUSH1 0x1F NOT ADD PUSH1 0xA0 DUP8 ADD MSTORE PUSH2 0x23BF JUMP JUMPDEST PUSH1 0xA0 DUP6 ADD MLOAD DUP5 DUP3 SUB PUSH1 0x1F NOT ADD DUP5 DUP7 ADD MSTORE PUSH2 0x23BF JUMP JUMPDEST SWAP3 ADD MLOAD SWAP1 PUSH1 0xE0 PUSH1 0x1F NOT DUP3 DUP6 SUB ADD SWAP2 ADD MSTORE PUSH2 0x23BF JUMP JUMPDEST DUP14 PUSH1 0xE0 DUP14 ADD MLOAD SWAP1 PUSH2 0x100 PUSH1 0x1F NOT DUP3 DUP6 SUB ADD SWAP2 ADD MSTORE PUSH2 0x23BF JUMP JUMPDEST PUSH2 0x100 DUP12 ADD MLOAD DUP14 DUP3 SUB PUSH1 0x1F NOT ADD PUSH2 0x120 DUP16 ADD MSTORE PUSH2 0x23BF JUMP JUMPDEST PUSH2 0x120 DUP11 ADD MLOAD DUP13 DUP3 SUB PUSH1 0x1F NOT ADD PUSH2 0x140 DUP15 ADD MSTORE PUSH2 0x23BF JUMP JUMPDEST PUSH2 0x140 DUP10 ADD MLOAD DUP12 DUP3 SUB PUSH1 0x1F NOT ADD PUSH2 0x160 DUP14 ADD MSTORE PUSH2 0x23BF JUMP JUMPDEST PUSH2 0x160 DUP9 ADD MLOAD DUP11 DUP3 SUB PUSH1 0x1F NOT ADD PUSH2 0x180 DUP13 ADD MSTORE PUSH2 0x23BF JUMP JUMPDEST PUSH2 0x180 DUP8 ADD MLOAD DUP10 DUP3 SUB PUSH1 0x1F NOT ADD PUSH2 0x1A0 DUP12 ADD MSTORE PUSH2 0x23BF JUMP JUMPDEST PUSH2 0x1A0 DUP7 ADD MLOAD DUP9 DUP3 SUB PUSH1 0x1F NOT ADD PUSH2 0x1C0 DUP11 ADD MSTORE PUSH2 0x23BF JUMP JUMPDEST PUSH2 0x1C0 DUP6 ADD MLOAD DUP8 DUP3 SUB PUSH1 0x1F NOT ADD PUSH2 0x1E0 DUP10 ADD MSTORE PUSH2 0x23BF JUMP JUMPDEST PUSH2 0x1E0 DUP5 ADD MLOAD DUP7 DUP3 SUB PUSH1 0x1F NOT ADD DUP5 DUP9 ADD MSTORE PUSH2 0x23BF JUMP JUMPDEST SWAP2 ADD MLOAD DUP4 DUP3 SUB PUSH1 0x1F NOT ADD PUSH2 0x220 DUP6 ADD MSTORE PUSH2 0x23BF JUMP JUMPDEST SUB SWAP1 RETURN JUMPDEST PUSH1 0x0 DUP1 REVERT JUMPDEST CALLVALUE PUSH2 0x3FF JUMPI PUSH1 0x0 CALLDATASIZE PUSH1 0x3 NOT ADD SLT PUSH2 0x3FF JUMPI PUSH1 0x20 PUSH1 0x2 SLOAD PUSH1 0x40 MLOAD SWAP1 DUP2 MSTORE RETURN JUMPDEST CALLVALUE PUSH2 0x3FF JUMPI PUSH2 0x240 CALLDATASIZE PUSH1 0x3 NOT ADD SLT PUSH2 0x3FF JUMPI PUSH2 0x43C PUSH2 0x228C JUMP JUMPDEST PUSH2 0x200 MSTORE PUSH1 0x24 CALLDATALOAD PUSH1 0x1 PUSH1 0x1 PUSH1 0x40 SHL SUB DUP2 GT PUSH2 0x3FF JUMPI PUSH2 0x45F SWAP1 CALLDATASIZE SWAP1 PUSH1 0x4 ADD PUSH2 0x23FF JUMP JUMPDEST PUSH2 0x560 MSTORE PUSH2 0x4A0 MSTORE PUSH1 0x44 CALLDATALOAD PUSH1 0x1 PUSH1 0x1 PUSH1 0x40 SHL SUB DUP2 GT PUSH2 0x3FF JUMPI PUSH2 0x486 SWAP1 CALLDATASIZE SWAP1 PUSH1 0x4 ADD PUSH2 0x23FF JUMP JUMPDEST PUSH2 0x1C0 MSTORE PUSH2 0x340 MSTORE PUSH1 0x64 CALLDATALOAD PUSH1 0x1 PUSH1 0x1 PUSH1 0x40 SHL SUB DUP2 GT PUSH2 0x3FF JUMPI PUSH2 0x4AD SWAP1 CALLDATASIZE SWAP1 PUSH1 0x4 ADD PUSH2 0x23FF JUMP JUMPDEST PUSH2 0x300 MSTORE PUSH2 0x360 MSTORE PUSH1 0x84 CALLDATALOAD PUSH1 0x1 PUSH1 0x1 PUSH1 0x40 SHL SUB DUP2 GT PUSH2 0x3FF JUMPI PUSH2 0x4D4 SWAP1 CALLDATASIZE SWAP1 PUSH1 0x4 ADD PUSH2 0x23FF JUMP JUMPDEST PUSH2 0x440 MSTORE PUSH2 0x480 MSTORE PUSH1 0xA4 CALLDATALOAD PUSH1 0x1 PUSH1 0x1 PUSH1 0x40 SHL SUB DUP2 GT PUSH2 0x3FF JUMPI PUSH2 0x4FB SWAP1 CALLDATASIZE SWAP1 PUSH1 0x4 ADD PUSH2 0x23FF JUMP JUMPDEST PUSH2 0x320 MSTORE PUSH2 0x180 MSTORE PUSH1 0xC4 CALLDATALOAD PUSH1 0x1 PUSH1 0x1 PUSH1 0x40 SHL SUB DUP2 GT PUSH2 0x3FF JUMPI PUSH2 0x522 SWAP1 CALLDATASIZE SWAP1 PUSH1 0x4 ADD PUSH2 0x23FF JUMP JUMPDEST PUSH2 0x380 MSTORE PUSH2 0x2E0 MSTORE PUSH1 0x1 PUSH1 0x1 PUSH1 0x40 SHL SUB PUSH1 0xE4 CALLDATALOAD GT PUSH2 0x3FF JUMPI PUSH2 0x549 CALLDATASIZE PUSH1 0xE4 CALLDATALOAD PUSH1 0x4 ADD PUSH2 0x23FF JUMP JUMPDEST PUSH2 0x220 MSTORE PUSH2 0x2A0 MSTORE PUSH1 0x1 PUSH1 0x1 PUSH1 0x40 SHL SUB PUSH2 0x104 CALLDATALOAD GT PUSH2 0x3FF JUMPI PUSH2 0x572 CALLDATASIZE PUSH2 0x104 CALLDATALOAD PUSH1 0x4 ADD PUSH2 0x23FF JUMP JUMPDEST PUSH2 0x520 MSTORE PUSH2 0x120 MSTORE PUSH1 0x1 PUSH1 0x1 PUSH1 0x40 SHL SUB PUSH2 0x124 CALLDATALOAD GT PUSH2 0x3FF JUMPI PUSH2 0x59B CALLDATASIZE PUSH2 0x124 CALLDATALOAD PUSH1 0x4 ADD PUSH2 0x23FF JUMP JUMPDEST PUSH2 0x460 MSTORE PUSH1 0xE0 MSTORE PUSH2 0x144 CALLDATALOAD PUSH1 0x1 PUSH1 0x1 PUSH1 0x40 SHL SUB DUP2 GT PUSH2 0x3FF JUMPI PUSH2 0x5C2 SWAP1 CALLDATASIZE SWAP1 PUSH1 0x4 ADD PUSH2 0x23FF JUMP JUMPDEST PUSH2 0x2C0 MSTORE PUSH2 0x3C0 MSTORE PUSH2 0x164 CALLDATALOAD PUSH1 0x1 PUSH1 0x1 PUSH1 0x40 SHL SUB DUP2 GT PUSH2 0x3FF JUMPI PUSH2 0x5EA SWAP1 CALLDATASIZE SWAP1 PUSH1 0x4 ADD PUSH2 0x23FF JUMP JUMPDEST PUSH2 0x240 MSTORE PUSH2 0x4C0 MSTORE PUSH2 0x184 CALLDATALOAD PUSH1 0x1 PUSH1 0x1 PUSH1 0x40 SHL SUB DUP2 GT PUSH2 0x3FF JUMPI PUSH2 0x612 SWAP1 CALLDATASIZE SWAP1 PUSH1 0x4 ADD PUSH2 0x23FF JUMP JUMPDEST PUSH2 0x160 MSTORE PUSH1 0xA0 MSTORE PUSH2 0x1A4 CALLDATALOAD PUSH1 0x1 PUSH1 0x1 PUSH1 0x40 SHL SUB DUP2 GT PUSH2 0x3FF JUMPI PUSH2 0x639 SWAP1 CALLDATASIZE SWAP1 PUSH1 0x4 ADD PUSH2 0x23FF JUMP JUMPDEST PUSH2 0x100 MSTORE PUSH2 0x3A0 MSTORE PUSH2 0x1C4 CALLDATALOAD PUSH1 0x1 PUSH1 0x1 PUSH1 0x40 SHL SUB DUP2 GT PUSH2 0x3FF JUMPI PUSH2 0x661 SWAP1 CALLDATASIZE SWAP1 PUSH1 0x4 ADD PUSH2 0x23FF JUMP JUMPDEST PUSH2 0x1E0 MSTORE PUSH2 0x280 MSTORE PUSH2 0x1E4 CALLDATALOAD PUSH1 0x1 PUSH1 0x1 PUSH1 0x40 SHL SUB DUP2 GT PUSH2 0x3FF JUMPI PUSH2 0x689 SWAP1 CALLDATASIZE SWAP1 PUSH1 0x4 ADD PUSH2 0x23FF JUMP JUMPDEST PUSH2 0x400 MSTORE PUSH2 0x1A0 MSTORE PUSH2 0x204 CALLDATALOAD PUSH1 0x1 PUSH1 0x1 PUSH1 0x40 SHL SUB DUP2 GT PUSH2 0x3FF JUMPI PUSH2 0x6B1 SWAP1 CALLDATASIZE SWAP1 PUSH1 0x4 ADD PUSH2 0x23FF JUMP JUMPDEST PUSH2 0x260 MSTORE PUSH1 0x80 MSTORE PUSH2 0x224 CALLDATALOAD PUSH1 0x1 PUSH1 0x1 PUSH1 0x40 SHL SUB DUP2 GT PUSH2 0x3FF JUMPI PUSH2 0x6D8 SWAP1 CALLDATASIZE SWAP1 PUSH1 0x4 ADD PUSH2 0x23FF JUMP JUMPDEST PUSH2 0x3E0 MSTORE PUSH2 0x500 MSTORE PUSH1 0x0 SLOAD PUSH1 0x1 PUSH1 0x1 PUSH1 0xA0 SHL SUB AND CALLER SUB PUSH2 0x1F29 JUMPI PUSH2 0x702 PUSH1 0x40 MLOAD DUP1 PUSH2 0x580 MSTORE PUSH2 0x22DC JUMP JUMPDEST PUSH2 0x713 CALLDATASIZE PUSH2 0x560 MLOAD PUSH2 0x4A0 MLOAD PUSH2 0x242C JUMP JUMPDEST PUSH2 0x580 MLOAD MSTORE PUSH2 0x729 CALLDATASIZE PUSH2 0x1C0 MLOAD PUSH2 0x340 MLOAD PUSH2 0x242C JUMP JUMPDEST PUSH1 0x20 PUSH2 0x580 MLOAD ADD MSTORE PUSH2 0x742 CALLDATASIZE PUSH2 0x300 MLOAD PUSH2 0x360 MLOAD PUSH2 0x242C JUMP JUMPDEST PUSH1 0x40 PUSH2 0x580 MLOAD ADD MSTORE PUSH2 0x75B CALLDATASIZE PUSH2 0x440 MLOAD PUSH2 0x480 MLOAD PUSH2 0x242C JUMP JUMPDEST PUSH1 0x60 PUSH2 0x580 MLOAD ADD MSTORE PUSH2 0x774 CALLDATASIZE PUSH2 0x320 MLOAD PUSH2 0x180 MLOAD PUSH2 0x242C JUMP JUMPDEST PUSH1 0x80 PUSH2 0x580 MLOAD ADD MSTORE PUSH2 0x78D CALLDATASIZE PUSH2 0x380 MLOAD PUSH2 0x2E0 MLOAD PUSH2 0x242C JUMP JUMPDEST PUSH1 0xA0 PUSH2 0x580 MLOAD ADD MSTORE PUSH2 0x7A6 CALLDATASIZE PUSH2 0x220 MLOAD PUSH2 0x2A0 MLOAD PUSH2 0x242C JUMP JUMPDEST PUSH1 0xC0 PUSH2 0x580 MLOAD ADD MSTORE PUSH2 0x7BF CALLDATASIZE PUSH2 0x520 MLOAD PUSH2 0x120 MLOAD PUSH2 0x242C JUMP JUMPDEST PUSH1 0xE0 PUSH2 0x580 MLOAD ADD MSTORE PUSH2 0x7D7 CALLDATASIZE PUSH2 0x460 MLOAD PUSH1 0xE0 MLOAD PUSH2 0x242C JUMP JUMPDEST PUSH2 0x100 PUSH2 0x580 MLOAD ADD MSTORE PUSH2 0x7F1 CALLDATASIZE PUSH2 0x2C0 MLOAD PUSH2 0x3C0 MLOAD PUSH2 0x242C JUMP JUMPDEST PUSH2 0x120 PUSH2 0x580 MLOAD ADD MSTORE PUSH2 0x80B CALLDATASIZE PUSH2 0x240 MLOAD PUSH2 0x4C0 MLOAD PUSH2 0x242C JUMP JUMPDEST PUSH2 0x140 PUSH2 0x580 MLOAD ADD MSTORE PUSH2 0x824 CALLDATASIZE PUSH2 0x160 MLOAD PUSH1 0xA0 MLOAD PUSH2 0x242C JUMP JUMPDEST PUSH2 0x160 PUSH2 0x580 MLOAD ADD MSTORE PUSH2 0x83E CALLDATASIZE PUSH2 0x100 MLOAD PUSH2 0x3A0 MLOAD PUSH2 0x242C JUMP JUMPDEST PUSH2 0x180 PUSH2 0x580 MLOAD ADD MSTORE PUSH2 0x858 CALLDATASIZE PUSH2 0x1E0 MLOAD PUSH2 0x280 MLOAD PUSH2 0x242C JUMP JUMPDEST PUSH2 0x1A0 PUSH2 0x580 MLOAD ADD MSTORE PUSH2 0x872 CALLDATASIZE PUSH2 0x400 MLOAD PUSH2 0x1A0 MLOAD PUSH2 0x242C JUMP JUMPDEST PUSH2 0x1C0 PUSH2 0x580 MLOAD ADD MSTORE PUSH2 0x88B CALLDATASIZE PUSH2 0x260 MLOAD PUSH1 0x80 MLOAD PUSH2 0x242C JUMP JUMPDEST PUSH2 0x1E0 PUSH2 0x580 MLOAD ADD MSTORE PUSH2 0x8A5 CALLDATASIZE PUSH2 0x3E0 MLOAD PUSH2 0x500 MLOAD PUSH2 0x242C JUMP JUMPDEST PUSH2 0x200 PUSH2 0x580 MLOAD ADD MSTORE PUSH1 0x1 DUP1 PUSH1 0xA0 SHL SUB PUSH2 0x200 MLOAD AND PUSH1 0x0 MSTORE PUSH1 0x1 PUSH1 0x20 MSTORE PUSH1 0x40 PUSH1 0x0 KECCAK256 PUSH2 0x580 MLOAD MLOAD SWAP1 DUP2 MLOAD PUSH1 0x1 PUSH1 0x1 PUSH1 0x40 SHL SUB DUP2 GT PUSH2 0x1195 JUMPI PUSH2 0x8E7 DUP3 SLOAD PUSH2 0x22A2 JUMP JUMPDEST PUSH1 0x1F DUP2 GT PUSH2 0x1EE5 JUMPI JUMPDEST POP PUSH1 0x20 PUSH1 0x1F DUP3 GT PUSH1 0x1 EQ PUSH2 0x1E80 JUMPI DUP2 SWAP3 SWAP4 PUSH1 0x0 SWAP3 PUSH2 0x1E75 JUMPI JUMPDEST POP POP DUP2 PUSH1 0x1 SHL SWAP2 PUSH1 0x0 NOT SWAP1 PUSH1 0x3 SHL SHR NOT AND OR DUP2 SSTORE JUMPDEST PUSH1 0x20 PUSH2 0x580 MLOAD ADD MLOAD SWAP1 DUP2 MLOAD PUSH1 0x1 PUSH1 0x1 PUSH1 0x40 SHL SUB DUP2 GT PUSH2 0x1195 JUMPI PUSH2 0x944 PUSH1 0x1 DUP4 ADD SLOAD PUSH2 0x22A2 JUMP JUMPDEST PUSH1 0x1F DUP2 GT PUSH2 0x1E2E JUMPI JUMPDEST POP PUSH1 0x20 PUSH1 0x1F DUP3 GT PUSH1 0x1 EQ PUSH2 0x1DC3 JUMPI DUP2 SWAP3 SWAP4 PUSH1 0x0 SWAP3 PUSH2 0x1DB8 JUMPI JUMPDEST POP POP DUP2 PUSH1 0x1 SHL SWAP2 PUSH1 0x0 NOT SWAP1 PUSH1 0x3 SHL SHR NOT AND OR PUSH1 0x1 DUP3 ADD SSTORE JUMPDEST PUSH1 0x40 PUSH2 0x580 MLOAD ADD MLOAD SWAP1 DUP2 MLOAD PUSH1 0x1 PUSH1 0x1 PUSH1 0x40 SHL SUB DUP2 GT PUSH2 0x1195 JUMPI PUSH2 0x9A4 PUSH1 0x2 DUP4 ADD SLOAD PUSH2 0x22A2 JUMP JUMPDEST PUSH1 0x1F DUP2 GT PUSH2 0x1D71 JUMPI JUMPDEST POP PUSH1 0x20 PUSH1 0x1F DUP3 GT PUSH1 0x1 EQ PUSH2 0x1D06 JUMPI DUP2 SWAP3 SWAP4 PUSH1 0x0 SWAP3 PUSH2 0x1CFB JUMPI JUMPDEST POP POP DUP2 PUSH1 0x1 SHL SWAP2 PUSH1 0x0 NOT SWAP1 PUSH1 0x3 SHL SHR NOT AND OR PUSH1 0x2 DUP3 ADD SSTORE JUMPDEST PUSH1 0x60 PUSH2 0x580 MLOAD ADD MLOAD DUP1 MLOAD SWAP1 PUSH1 0x1 PUSH1 0x1 PUSH1 0x40 SHL SUB DUP3 GT PUSH2 0x1195 JUMPI DUP2 SWAP1 PUSH2 0xA06 PUSH1 0x3 DUP6 ADD SLOAD PUSH2 0x22A2 JUMP JUMPDEST PUSH1 0x1F DUP2 GT PUSH2 0x1CA8 JUMPI JUMPDEST POP PUSH1 0x20 SWAP1 PUSH1 0x1F DUP4 GT PUSH1 0x1 EQ PUSH2 0x1C36 JUMPI PUSH1 0x0 SWAP3 PUSH2 0x1C2B JUMPI JUMPDEST POP POP DUP2 PUSH1 0x1 SHL SWAP2 PUSH1 0x0 NOT SWAP1 PUSH1 0x3 SHL SHR NOT AND OR PUSH1 0x3 DUP3 ADD SSTORE JUMPDEST PUSH1 0x80 PUSH2 0x580 MLOAD ADD MLOAD DUP1 MLOAD SWAP1 PUSH1 0x1 PUSH1 0x1 PUSH1 0x40 SHL SUB DUP3 GT PUSH2 0x1195 JUMPI DUP2 SWAP1 PUSH2 0xA66 PUSH1 0x4 DUP6 ADD SLOAD PUSH2 0x22A2 JUMP JUMPDEST PUSH1 0x1F DUP2 GT PUSH2 0x1BD8 JUMPI JUMPDEST POP PUSH1 0x20 SWAP1 PUSH1 0x1F DUP4 GT PUSH1 0x1 EQ PUSH2 0x1B66 JUMPI PUSH1 0x0 SWAP3 PUSH2 0x1B5B JUMPI JUMPDEST POP POP DUP2 PUSH1 0x1 SHL SWAP2 PUSH1 0x0 NOT SWAP1 PUSH1 0x3 SHL SHR NOT AND OR PUSH1 0x4 DUP3 ADD SSTORE JUMPDEST PUSH1 0xA0 PUSH2 0x580 MLOAD ADD MLOAD DUP1 MLOAD SWAP1 PUSH1 0x1 PUSH1 0x1 PUSH1 0x40 SHL SUB DUP3 GT PUSH2 0x1195 JUMPI DUP2 SWAP1 PUSH2 0xAC6 PUSH1 0x5 DUP6 ADD SLOAD PUSH2 0x22A2 JUMP JUMPDEST PUSH1 0x1F DUP2 GT PUSH2 0x1B08 JUMPI JUMPDEST POP PUSH1 0x20 SWAP1 PUSH1 0x1F DUP4 GT PUSH1 0x1 EQ PUSH2 0x1A96 JUMPI PUSH1 0x0 SWAP3 PUSH2 0x1A8B JUMPI JUMPDEST POP POP DUP2 PUSH1 0x1 SHL SWAP2 PUSH1 0x0 NOT SWAP1 PUSH1 0x3 SHL SHR NOT AND OR PUSH1 0x5 DUP3 ADD SSTORE JUMPDEST PUSH1 0xC0 PUSH2 0x580 MLOAD ADD MLOAD DUP1 MLOAD SWAP1 PUSH1 0x1 PUSH1 0x1 PUSH1 0x40 SHL SUB DUP3 GT PUSH2 0x1195 JUMPI DUP2 SWAP1 PUSH2 0xB26 PUSH1 0x6 DUP6 ADD SLOAD PUSH2 0x22A2 JUMP JUMPDEST PUSH1 0x1F DUP2 GT PUSH2 0x1A38 JUMPI JUMPDEST POP PUSH1 0x20 SWAP1 PUSH1 0x1F DUP4 GT PUSH1 0x1 EQ PUSH2 0x19C6 JUMPI PUSH1 0x0 SWAP3 PUSH2 0x19BB JUMPI JUMPDEST POP POP DUP2 PUSH1 0x1 SHL SWAP2 PUSH1 0x0 NOT SWAP1 PUSH1 0x3 SHL SHR NOT AND OR PUSH1 0x6 DUP3 ADD SSTORE JUMPDEST PUSH1 0xE0 PUSH2 0x580 MLOAD ADD MLOAD DUP1 MLOAD SWAP1 PUSH1 0x1 PUSH1 0x1 PUSH1 0x40 SHL SUB DUP3 GT PUSH2 0x1195 JUMPI DUP2 SWAP1 PUSH2 0xB86 PUSH1 0x7 DUP6 ADD SLOAD PUSH2 0x22A2 JUMP JUMPDEST PUSH1 0x1F DUP2 GT PUSH2 0x1968 JUMPI JUMPDEST POP PUSH1 0x20 SWAP1 PUSH1 0x1F DUP4 GT PUSH1 0x1 EQ PUSH2 0x18F6 JUMPI PUSH1 0x0 SWAP3 PUSH2 0x18EB JUMPI JUMPDEST POP POP DUP2 PUSH1 0x1 SHL SWAP2 PUSH1 0x0 NOT SWAP1 PUSH1 0x3 SHL SHR NOT AND OR PUSH1 0x7 DUP3 ADD SSTORE JUMPDEST PUSH2 0x100 PUSH2 0x580 MLOAD ADD MLOAD DUP1 MLOAD SWAP1 PUSH1 0x1 PUSH1 0x1 PUSH1 0x40 SHL SUB DUP3 GT PUSH2 0x1195 JUMPI DUP2 SWAP1 PUSH2 0xBE7 PUSH1 0x8 DUP6 ADD SLOAD PUSH2 0x22A2 JUMP JUMPDEST PUSH1 0x1F DUP2 GT PUSH2 0x1898 JUMPI JUMPDEST POP PUSH1 0x20 SWAP1 PUSH1 0x1F DUP4 GT PUSH1 0x1 EQ PUSH2 0x1826 JUMPI PUSH1 0x0 SWAP3 PUSH2 0x181B JUMPI JUMPDEST POP POP DUP2 PUSH1 0x1 SHL SWAP2 PUSH1 0x0 NOT SWAP1 PUSH1 0x3 SHL SHR NOT AND OR PUSH1 0x8 DUP3 ADD SSTORE JUMPDEST PUSH2 0x120 PUSH2 0x580 MLOAD ADD MLOAD DUP1 MLOAD SWAP1 PUSH1 0x1 PUSH1 0x1 PUSH1 0x40 SHL SUB DUP3 GT PUSH2 0x1195 JUMPI DUP2 SWAP1 PUSH2 0xC48 PUSH1 0x9 DUP6 ADD SLOAD PUSH2 0x22A2 JUMP JUMPDEST PUSH1 0x1F DUP2 GT PUSH2 0x17C8 JUMPI JUMPDEST POP PUSH1 0x20 SWAP1 PUSH1 0x1F DUP4 GT PUSH1 0x1 EQ PUSH2 0x1756 JUMPI PUSH1 0x0 SWAP3 PUSH2 0x174B JUMPI JUMPDEST POP POP DUP2 PUSH1 0x1 SHL SWAP2 PUSH1 0x0 NOT SWAP1 PUSH1 0x3 SHL SHR NOT AND OR PUSH1 0x9 DUP3 ADD SSTORE JUMPDEST PUSH2 0x140 PUSH2 0x580 MLOAD ADD MLOAD DUP1 MLOAD SWAP1 PUSH1 0x1 PUSH1 0x1 PUSH1 0x40 SHL SUB DUP3 GT PUSH2 0x1195 JUMPI DUP2 SWAP1 PUSH2 0xCA9 PUSH1 0xA DUP6 ADD SLOAD PUSH2 0x22A2 JUMP JUMPDEST PUSH1 0x1F DUP2 GT PUSH2 0x16F8 JUMPI JUMPDEST POP PUSH1 0x20 SWAP1 PUSH1 0x1F DUP4 GT PUSH1 0x1 EQ PUSH2 0x1686 JUMPI PUSH1 0x0 SWAP3 PUSH2 0x167B JUMPI JUMPDEST POP POP DUP2 PUSH1 0x1 SHL SWAP2 PUSH1 0x0 NOT SWAP1 PUSH1 0x3 SHL SHR NOT AND OR PUSH1 0xA DUP3 ADD SSTORE JUMPDEST PUSH2 0x160 PUSH2 0x580 MLOAD ADD MLOAD DUP1 MLOAD SWAP1 PUSH1 0x1 PUSH1 0x1 PUSH1 0x40 SHL SUB DUP3 GT PUSH2 0x1195 JUMPI DUP2 SWAP1 PUSH2 0xD0A PUSH1 0xB DUP6 ADD SLOAD PUSH2 0x22A2 JUMP JUMPDEST PUSH1 0x1F DUP2 GT PUSH2 0x1628 JUMPI JUMPDEST POP PUSH1 0x20 SWAP1 PUSH1 0x1F DUP4 GT PUSH1 0x1 EQ PUSH2 0x15B6 JUMPI PUSH1 0x0 SWAP3 PUSH2 0x15AB JUMPI JUMPDEST POP POP DUP2 PUSH1 0x1 SHL SWAP2 PUSH1 0x0 NOT SWAP1 PUSH1 0x3 SHL SHR NOT AND OR PUSH1 0xB DUP3 ADD SSTORE JUMPDEST PUSH2 0x180 PUSH2 0x580 MLOAD ADD MLOAD DUP1 MLOAD SWAP1 PUSH1 0x1 PUSH1 0x1 PUSH1 0x40 SHL SUB DUP3 GT PUSH2 0x1195 JUMPI DUP2 SWAP1 PUSH2 0xD6B PUSH1 0xC DUP6 ADD SLOAD PUSH2 0x22A2 JUMP JUMPDEST PUSH1 0x1F DUP2 GT PUSH2 0x1558 JUMPI JUMPDEST POP PUSH1 0x20 SWAP1 PUSH1 0x1F DUP4 GT PUSH1 0x1 EQ PUSH2 0x14E6 JUMPI PUSH1 0x0 SWAP3 PUSH2 0x14DB JUMPI JUMPDEST POP POP DUP2 PUSH1 0x1 SHL SWAP2 PUSH1 0x0 NOT SWAP1 PUSH1 0x3 SHL SHR NOT AND OR PUSH1 0xC DUP3 ADD SSTORE JUMPDEST PUSH2 0x1A0 PUSH2 0x580 MLOAD ADD MLOAD DUP1 MLOAD SWAP1 PUSH1 0x1 PUSH1 0x1 PUSH1 0x40 SHL SUB DUP3 GT PUSH2 0x1195 JUMPI DUP2 SWAP1 PUSH2 0xDCC PUSH1 0xD DUP6 ADD SLOAD PUSH2 0x22A2 JUMP JUMPDEST PUSH1 0x1F DUP2 GT PUSH2 0x1488 JUMPI JUMPDEST POP PUSH1 0x20 SWAP1 PUSH1 0x1F DUP4 GT PUSH1 0x1 EQ PUSH2 0x1416 JUMPI PUSH1 0x0 SWAP3 PUSH2 0x140B JUMPI JUMPDEST POP POP DUP2 PUSH1 0x1 SHL SWAP2 PUSH1 0x0 NOT SWAP1 PUSH1 0x3 SHL SHR NOT AND OR PUSH1 0xD DUP3 ADD SSTORE JUMPDEST PUSH2 0x1C0 PUSH2 0x580 MLOAD ADD MLOAD DUP1 MLOAD SWAP1 PUSH1 0x1 PUSH1 0x1 PUSH1 0x40 SHL SUB DUP3 GT PUSH2 0x1195 JUMPI DUP2 SWAP1 PUSH2 0xE2D PUSH1 0xE DUP6 ADD SLOAD PUSH2 0x22A2 JUMP JUMPDEST PUSH1 0x1F DUP2 GT PUSH2 0x13B8 JUMPI JUMPDEST POP PUSH1 0x20 SWAP1 PUSH1 0x1F DUP4 GT PUSH1 0x1 EQ PUSH2 0x1346 JUMPI PUSH1 0x0 SWAP3 PUSH2 0x133B JUMPI JUMPDEST POP POP DUP2 PUSH1 0x1 SHL SWAP2 PUSH1 0x0 NOT SWAP1 PUSH1 0x3 SHL SHR NOT AND OR PUSH1 0xE DUP3 ADD SSTORE JUMPDEST PUSH2 0x1E0 PUSH2 0x580 MLOAD ADD MLOAD DUP1 MLOAD SWAP1 PUSH1 0x1 PUSH1 0x1 PUSH1 0x40 SHL SUB DUP3 GT PUSH2 0x1195 JUMPI DUP2 SWAP1 PUSH2 0xE8E PUSH1 0xF DUP6 ADD SLOAD PUSH2 0x22A2 JUMP JUMPDEST PUSH1 0x1F DUP2 GT PUSH2 0x12E8 JUMPI JUMPDEST POP PUSH1 0x20 SWAP1 PUSH1 0x1F DUP4 GT PUSH1 0x1 EQ PUSH2 0x1276 JUMPI PUSH1 0x0 SWAP3 PUSH2 0x126B JUMPI JUMPDEST POP POP DUP2 PUSH1 0x1 SHL SWAP2 PUSH1 0x0 NOT SWAP1 PUSH1 0x3 SHL SHR NOT AND OR PUSH1 0xF DUP3 ADD SSTORE JUMPDEST PUSH2 0x200 PUSH2 0x580 MLOAD ADD MLOAD DUP1 MLOAD SWAP1 PUSH1 0x1 PUSH1 0x1 PUSH1 0x40 SHL SUB DUP3 GT PUSH2 0x1195 JUMPI PUSH2 0xEED PUSH1 0x10 DUP5 ADD SLOAD PUSH2 0x22A2 JUMP JUMPDEST PUSH1 0x1F DUP2 GT PUSH2 0x1224 JUMPI JUMPDEST POP PUSH1 0x20 SWAP1 PUSH1 0x1F DUP4 GT PUSH1 0x1 EQ PUSH2 0x11B6 JUMPI PUSH1 0x10 SWAP3 SWAP2 PUSH1 0x0 SWAP2 DUP4 PUSH2 0x11AB JUMPI JUMPDEST POP POP DUP2 PUSH1 0x1 SHL SWAP2 PUSH1 0x0 NOT SWAP1 PUSH1 0x3 SHL SHR NOT AND OR SWAP2 ADD SSTORE JUMPDEST PUSH1 0x2 SLOAD PUSH9 0x10000000000000000 DUP2 LT ISZERO PUSH2 0x1195 JUMPI DUP1 PUSH1 0x1 PUSH2 0xF4C SWAP3 ADD PUSH1 0x2 SSTORE PUSH2 0x223F JUMP JUMPDEST DUP2 SLOAD SWAP1 PUSH1 0x3 SHL SWAP1 PUSH1 0x1 DUP1 PUSH1 0xA0 SHL SUB PUSH2 0x200 MLOAD AND DUP3 SHL SWAP2 PUSH1 0x1 DUP1 PUSH1 0xA0 SHL SUB SWAP1 SHL NOT AND OR SWAP1 SSTORE PUSH2 0x220 PUSH1 0x40 MLOAD DUP1 PUSH2 0x420 MSTORE MSTORE PUSH2 0x113D PUSH2 0x1124 PUSH2 0x110A PUSH2 0x10F0 PUSH2 0x10D6 PUSH2 0x10BD PUSH2 0x10A3 PUSH2 0x1089 PUSH2 0x1070 PUSH2 0x1057 PUSH2 0x103E PUSH2 0x1025 PUSH2 0x100C PUSH2 0xFF3 PUSH2 0xFDA PUSH2 0xFC1 PUSH2 0x220 PUSH2 0x420 MLOAD ADD PUSH2 0x560 MLOAD PUSH2 0x4A0 MLOAD PUSH2 0x2472 JUMP JUMPDEST PUSH2 0x420 MLOAD PUSH1 0x20 DUP2 DUP4 SUB SWAP2 ADD MSTORE PUSH2 0x1C0 MLOAD PUSH2 0x340 MLOAD PUSH2 0x2472 JUMP JUMPDEST PUSH2 0x420 MLOAD PUSH1 0x40 DUP2 DUP4 SUB SWAP2 ADD MSTORE PUSH2 0x300 MLOAD PUSH2 0x360 MLOAD PUSH2 0x2472 JUMP JUMPDEST PUSH2 0x420 MLOAD PUSH1 0x60 DUP2 DUP4 SUB SWAP2 ADD MSTORE PUSH2 0x440 MLOAD PUSH2 0x480 MLOAD PUSH2 0x2472 JUMP JUMPDEST PUSH2 0x420 MLOAD PUSH1 0x80 DUP2 DUP4 SUB SWAP2 ADD MSTORE PUSH2 0x320 MLOAD PUSH2 0x180 MLOAD PUSH2 0x2472 JUMP JUMPDEST PUSH2 0x420 MLOAD PUSH1 0xA0 DUP2 DUP4 SUB SWAP2 ADD MSTORE PUSH2 0x380 MLOAD PUSH2 0x2E0 MLOAD PUSH2 0x2472 JUMP JUMPDEST PUSH2 0x420 MLOAD PUSH1 0xC0 DUP2 DUP4 SUB SWAP2 ADD MSTORE PUSH2 0x220 MLOAD PUSH2 0x2A0 MLOAD PUSH2 0x2472 JUMP JUMPDEST PUSH2 0x420 MLOAD PUSH1 0xE0 DUP2 DUP4 SUB SWAP2 ADD MSTORE PUSH2 0x520 MLOAD PUSH2 0x120 MLOAD PUSH2 0x2472 JUMP JUMPDEST PUSH2 0x420 MLOAD PUSH2 0x100 DUP2 DUP4 SUB SWAP2 ADD MSTORE PUSH2 0x460 MLOAD PUSH1 0xE0 MLOAD PUSH2 0x2472 JUMP JUMPDEST PUSH2 0x420 MLOAD PUSH2 0x120 DUP2 DUP4 SUB SWAP2 ADD MSTORE PUSH2 0x2C0 MLOAD PUSH2 0x3C0 MLOAD PUSH2 0x2472 JUMP JUMPDEST PUSH2 0x420 MLOAD PUSH2 0x140 DUP2 DUP4 SUB SWAP2 ADD MSTORE PUSH2 0x240 MLOAD PUSH2 0x4C0 MLOAD PUSH2 0x2472 JUMP JUMPDEST PUSH2 0x420 MLOAD PUSH2 0x160 DUP2 DUP4 SUB SWAP2 ADD MSTORE PUSH2 0x160 MLOAD PUSH1 0xA0 MLOAD PUSH2 0x2472 JUMP JUMPDEST PUSH2 0x420 MLOAD PUSH2 0x180 DUP2 DUP4 SUB SWAP2 ADD MSTORE PUSH2 0x100 MLOAD PUSH2 0x3A0 MLOAD PUSH2 0x2472 JUMP JUMPDEST PUSH2 0x420 MLOAD PUSH2 0x1A0 DUP2 DUP4 SUB SWAP2 ADD MSTORE PUSH2 0x1E0 MLOAD PUSH2 0x280 MLOAD PUSH2 0x2472 JUMP JUMPDEST PUSH2 0x420 MLOAD PUSH2 0x1C0 DUP2 DUP4 SUB SWAP2 ADD MSTORE PUSH2 0x400 MLOAD PUSH2 0x1A0 MLOAD PUSH2 0x2472 JUMP JUMPDEST PUSH2 0x420 MLOAD PUSH2 0x1E0 DUP2 DUP4 SUB SWAP2 ADD MSTORE PUSH2 0x260 MLOAD PUSH1 0x80 MLOAD PUSH2 0x2472 JUMP JUMPDEST PUSH2 0x420 MLOAD PUSH2 0x200 DUP2 DUP4 SUB SWAP2 ADD MSTORE PUSH32 0x68AE620BA998CEA2F44DF4389CEAC4FD51F1189A37B3044B22BE98B2EC96F85F PUSH1 0x1 DUP1 PUSH1 0xA0 SHL SUB PUSH2 0x200 MLOAD AND SWAP2 PUSH2 0x118D PUSH2 0x420 MLOAD SWAP2 PUSH2 0x3E0 MLOAD PUSH2 0x500 MLOAD PUSH2 0x2472 JUMP JUMPDEST SUB PUSH2 0x420 MLOAD LOG2 STOP JUMPDEST PUSH4 0x4E487B71 PUSH1 0xE0 SHL PUSH1 0x0 MSTORE PUSH1 0x41 PUSH1 0x4 MSTORE PUSH1 0x24 PUSH1 0x0 REVERT JUMPDEST ADD MLOAD SWAP1 POP DUP5 DUP1 PUSH2 0xF12 JUMP JUMPDEST SWAP1 PUSH1 0x10 DUP5 ADD PUSH1 0x0 MSTORE PUSH1 0x20 PUSH1 0x0 KECCAK256 SWAP2 PUSH1 0x0 PUSH1 0x1F NOT DUP6 AND SWAP1 JUMPDEST DUP2 DUP2 LT PUSH2 0x120C JUMPI POP SWAP2 PUSH1 0x1 SWAP4 SWAP2 DUP6 PUSH1 0x10 SWAP7 SWAP5 LT PUSH2 0x11F3 JUMPI JUMPDEST POP POP POP DUP2 SHL ADD SWAP2 ADD SSTORE PUSH2 0xF28 JUMP JUMPDEST ADD MLOAD PUSH1 0x0 NOT PUSH1 0xF8 DUP5 PUSH1 0x3 SHL AND SHR NOT AND SWAP1 SSTORE DUP5 DUP1 DUP1 PUSH2 0x11E5 JUMP JUMPDEST SWAP3 SWAP4 PUSH1 0x20 PUSH1 0x1 DUP2 SWAP3 DUP8 DUP7 ADD MLOAD DUP2 SSTORE ADD SWAP6 ADD SWAP4 ADD PUSH2 0x11CD JUMP JUMPDEST PUSH1 0x10 DUP5 ADD PUSH1 0x0 MSTORE PUSH1 0x20 PUSH1 0x0 KECCAK256 PUSH1 0x1F DUP5 ADD PUSH1 0x5 SHR DUP2 ADD PUSH1 0x20 DUP6 LT PUSH2 0x1264 JUMPI JUMPDEST PUSH1 0x1F DUP4 ADD PUSH1 0x5 SHR DUP3 ADD DUP2 LT PUSH2 0x1258 JUMPI POP POP PUSH2 0xEF6 JUMP JUMPDEST PUSH1 0x0 DUP2 SSTORE PUSH1 0x1 ADD PUSH2 0x1242 JUMP JUMPDEST POP DUP1 PUSH2 0x1242 JUMP JUMPDEST ADD MLOAD SWAP1 POP DUP4 DUP1 PUSH2 0xEAE JUMP JUMPDEST SWAP3 POP PUSH1 0xF DUP5 ADD PUSH1 0x0 MSTORE PUSH1 0x20 PUSH1 0x0 KECCAK256 SWAP1 PUSH1 0x0 SWAP4 JUMPDEST PUSH1 0x1F NOT DUP5 AND DUP6 LT PUSH2 0x12CD JUMPI PUSH1 0x1 SWAP5 POP DUP4 PUSH1 0x1F NOT DUP2 AND LT PUSH2 0x12B4 JUMPI JUMPDEST POP POP POP DUP2 SHL ADD PUSH1 0xF DUP3 ADD SSTORE PUSH2 0xEC6 JUMP JUMPDEST ADD MLOAD PUSH1 0x0 NOT PUSH1 0xF8 DUP5 PUSH1 0x3 SHL AND SHR NOT AND SWAP1 SSTORE DUP4 DUP1 DUP1 PUSH2 0x12A4 JUMP JUMPDEST DUP2 DUP2 ADD MLOAD DUP4 SSTORE PUSH1 0x20 SWAP5 DUP6 ADD SWAP5 PUSH1 0x1 SWAP1 SWAP4 ADD SWAP3 SWAP1 SWAP2 ADD SWAP1 PUSH2 0x1289 JUMP JUMPDEST SWAP1 SWAP2 POP PUSH1 0xF DUP5 ADD PUSH1 0x0 MSTORE PUSH1 0x20 PUSH1 0x0 KECCAK256 PUSH1 0x1F DUP5 ADD PUSH1 0x5 SHR DUP2 ADD PUSH1 0x20 DUP6 LT PUSH2 0x1334 JUMPI JUMPDEST SWAP1 DUP5 SWAP4 SWAP3 SWAP2 JUMPDEST PUSH1 0x1F DUP4 ADD PUSH1 0x5 SHR DUP3 ADD DUP2 LT PUSH2 0x1325 JUMPI POP POP PUSH2 0xE97 JUMP JUMPDEST PUSH1 0x0 DUP2 SSTORE DUP6 SWAP5 POP PUSH1 0x1 ADD PUSH2 0x130F JUMP JUMPDEST POP DUP1 PUSH2 0x1309 JUMP JUMPDEST ADD MLOAD SWAP1 POP DUP4 DUP1 PUSH2 0xE4D JUMP JUMPDEST SWAP3 POP PUSH1 0xE DUP5 ADD PUSH1 0x0 MSTORE PUSH1 0x20 PUSH1 0x0 KECCAK256 SWAP1 PUSH1 0x0 SWAP4 JUMPDEST PUSH1 0x1F NOT DUP5 AND DUP6 LT PUSH2 0x139D JUMPI PUSH1 0x1 SWAP5 POP DUP4 PUSH1 0x1F NOT DUP2 AND LT PUSH2 0x1384 JUMPI JUMPDEST POP POP POP DUP2 SHL ADD PUSH1 0xE DUP3 ADD SSTORE PUSH2 0xE65 JUMP JUMPDEST ADD MLOAD PUSH1 0x0 NOT PUSH1 0xF8 DUP5 PUSH1 0x3 SHL AND SHR NOT AND SWAP1 SSTORE DUP4 DUP1 DUP1 PUSH2 0x1374 JUMP JUMPDEST DUP2 DUP2 ADD MLOAD DUP4 SSTORE PUSH1 0x20 SWAP5 DUP6 ADD SWAP5 PUSH1 0x1 SWAP1 SWAP4 ADD SWAP3 SWAP1 SWAP2 ADD SWAP1 PUSH2 0x1359 JUMP JUMPDEST SWAP1 SWAP2 POP PUSH1 0xE DUP5 ADD PUSH1 0x0 MSTORE PUSH1 0x20 PUSH1 0x0 KECCAK256 PUSH1 0x1F DUP5 ADD PUSH1 0x5 SHR DUP2 ADD PUSH1 0x20 DUP6 LT PUSH2 0x1404 JUMPI JUMPDEST SWAP1 DUP5 SWAP4 SWAP3 SWAP2 JUMPDEST PUSH1 0x1F DUP4 ADD PUSH1 0x5 SHR DUP3 ADD DUP2 LT PUSH2 0x13F5 JUMPI POP POP PUSH2 0xE36 JUMP JUMPDEST PUSH1 0x0 DUP2 SSTORE DUP6 SWAP5 POP PUSH1 0x1 ADD PUSH2 0x13DF JUMP JUMPDEST POP DUP1 PUSH2 0x13D9 JUMP JUMPDEST ADD MLOAD SWAP1 POP DUP4 DUP1 PUSH2 0xDEC JUMP JUMPDEST SWAP3 POP PUSH1 0xD DUP5 ADD PUSH1 0x0 MSTORE PUSH1 0x20 PUSH1 0x0 KECCAK256 SWAP1 PUSH1 0x0 SWAP4 JUMPDEST PUSH1 0x1F NOT DUP5 AND DUP6 LT PUSH2 0x146D JUMPI PUSH1 0x1 SWAP5 POP DUP4 PUSH1 0x1F NOT DUP2 AND LT PUSH2 0x1454 JUMPI JUMPDEST POP POP POP DUP2 SHL ADD PUSH1 0xD DUP3 ADD SSTORE PUSH2 0xE04 JUMP JUMPDEST ADD MLOAD PUSH1 0x0 NOT PUSH1 0xF8 DUP5 PUSH1 0x3 SHL AND SHR NOT AND SWAP1 SSTORE DUP4 DUP1 DUP1 PUSH2 0x1444 JUMP JUMPDEST DUP2 DUP2 ADD MLOAD DUP4 SSTORE PUSH1 0x20 SWAP5 DUP6 ADD SWAP5 PUSH1 0x1 SWAP1 SWAP4 ADD SWAP3 SWAP1 SWAP2 ADD SWAP1 PUSH2 0x1429 JUMP JUMPDEST SWAP1 SWAP2 POP PUSH1 0xD DUP5 ADD PUSH1 0x0 MSTORE PUSH1 0x20 PUSH1 0x0 KECCAK256 PUSH1 0x1F DUP5 ADD PUSH1 0x5 SHR DUP2 ADD PUSH1 0x20 DUP6 LT PUSH2 0x14D4 JUMPI JUMPDEST SWAP1 DUP5 SWAP4 SWAP3 SWAP2 JUMPDEST PUSH1 0x1F DUP4 ADD PUSH1 0x5 SHR DUP3 ADD DUP2 LT PUSH2 0x14C5 JUMPI POP POP PUSH2 0xDD5 JUMP JUMPDEST PUSH1 0x0 DUP2 SSTORE DUP6 SWAP5 POP PUSH1 0x1 ADD PUSH2 0x14AF JUMP JUMPDEST POP DUP1 PUSH2 0x14A9 JUMP JUMPDEST ADD MLOAD SWAP1 POP DUP4 DUP1 PUSH2 0xD8B JUMP JUMPDEST SWAP3 POP PUSH1 0xC DUP5 ADD PUSH1 0x0 MSTORE PUSH1 0x20 PUSH1 0x0 KECCAK256 SWAP1 PUSH1 0x0 SWAP4 JUMPDEST PUSH1 0x1F NOT DUP5 AND DUP6 LT PUSH2 0x153D JUMPI PUSH1 0x1 SWAP5 POP DUP4 PUSH1 0x1F NOT DUP2 AND LT PUSH2 0x1524 JUMPI JUMPDEST POP POP POP DUP2 SHL ADD PUSH1 0xC DUP3 ADD SSTORE PUSH2 0xDA3 JUMP JUMPDEST ADD MLOAD PUSH1 0x0 NOT PUSH1 0xF8 DUP5 PUSH1 0x3 SHL AND SHR NOT AND SWAP1 SSTORE DUP4 DUP1 DUP1 PUSH2 0x1514 JUMP JUMPDEST DUP2 DUP2 ADD MLOAD DUP4 SSTORE PUSH1 0x20 SWAP5 DUP6 ADD SWAP5 PUSH1 0x1 SWAP1 SWAP4 ADD SWAP3 SWAP1 SWAP2 ADD SWAP1 PUSH2 0x14F9 JUMP JUMPDEST SWAP1 SWAP2 POP PUSH1 0xC DUP5 ADD PUSH1 0x0 MSTORE PUSH1 0x20 PUSH1 0x0 KECCAK256 PUSH1 0x1F DUP5 ADD PUSH1 0x5 SHR DUP2 ADD PUSH1 0x20 DUP6 LT PUSH2 0x15A4 JUMPI JUMPDEST SWAP1 DUP5 SWAP4 SWAP3 SWAP2 JUMPDEST PUSH1 0x1F DUP4 ADD PUSH1 0x5 SHR DUP3 ADD DUP2 LT PUSH2 0x1595 JUMPI POP POP PUSH2 0xD74 JUMP JUMPDEST PUSH1 0x0 DUP2 SSTORE DUP6 SWAP5 POP PUSH1 0x1 ADD PUSH2 0x157F JUMP JUMPDEST POP DUP1 PUSH2 0x1579 JUMP JUMPDEST ADD MLOAD SWAP1 POP DUP4 DUP1 PUSH2 0xD2A JUMP JUMPDEST SWAP3 POP PUSH1 0xB DUP5 ADD PUSH1 0x0 MSTORE PUSH1 0x20 PUSH1 0x0 KECCAK256 SWAP1 PUSH1 0x0 SWAP4 JUMPDEST PUSH1 0x1F NOT DUP5 AND DUP6 LT PUSH2 0x160D JUMPI PUSH1 0x1 SWAP5 POP DUP4 PUSH1 0x1F NOT DUP2 AND LT PUSH2 0x15F4 JUMPI JUMPDEST POP POP POP DUP2 SHL ADD PUSH1 0xB DUP3 ADD SSTORE PUSH2 0xD42 JUMP JUMPDEST ADD MLOAD PUSH1 0x0 NOT PUSH1 0xF8 DUP5 PUSH1 0x3 SHL AND SHR NOT AND SWAP1 SSTORE DUP4 DUP1 DUP1 PUSH2 0x15E4 JUMP JUMPDEST DUP2 DUP2 ADD MLOAD DUP4 SSTORE PUSH1 0x20 SWAP5 DUP6 ADD SWAP5 PUSH1 0x1 SWAP1 SWAP4 ADD SWAP3 SWAP1 SWAP2 ADD SWAP1 PUSH2 0x15C9 JUMP JUMPDEST SWAP1 SWAP2 POP PUSH1 0xB DUP5 ADD PUSH1 0x0 MSTORE PUSH1 0x20 PUSH1 0x0 KECCAK256 PUSH1 0x1F DUP5 ADD PUSH1 0x5 SHR DUP2 ADD PUSH1 0x20 DUP6 LT PUSH2 0x1674 JUMPI JUMPDEST SWAP1 DUP5 SWAP4 SWAP3 SWAP2 JUMPDEST PUSH1 0x1F DUP4 ADD PUSH1 0x5 SHR DUP3 ADD DUP2 LT PUSH2 0x1665 JUMPI POP POP PUSH2 0xD13 JUMP JUMPDEST PUSH1 0x0 DUP2 SSTORE DUP6 SWAP5 POP PUSH1 0x1 ADD PUSH2 0x164F JUMP JUMPDEST POP DUP1 PUSH2 0x1649 JUMP JUMPDEST ADD MLOAD SWAP1 POP DUP4 DUP1 PUSH2 0xCC9 JUMP JUMPDEST SWAP3 POP PUSH1 0xA DUP5 ADD PUSH1 0x0 MSTORE PUSH1 0x20 PUSH1 0x0 KECCAK256 SWAP1 PUSH1 0x0 SWAP4 JUMPDEST PUSH1 0x1F NOT DUP5 AND DUP6 LT PUSH2 0x16DD JUMPI PUSH1 0x1 SWAP5 POP DUP4 PUSH1 0x1F NOT DUP2 AND LT PUSH2 0x16C4 JUMPI JUMPDEST POP POP POP DUP2 SHL ADD PUSH1 0xA DUP3 ADD SSTORE PUSH2 0xCE1 JUMP JUMPDEST ADD MLOAD PUSH1 0x0 NOT PUSH1 0xF8 DUP5 PUSH1 0x3 SHL AND SHR NOT AND SWAP1 SSTORE DUP4 DUP1 DUP1 PUSH2 0x16B4 JUMP JUMPDEST DUP2 DUP2 ADD MLOAD DUP4 SSTORE PUSH1 0x20 SWAP5 DUP6 ADD SWAP5 PUSH1 0x1 SWAP1 SWAP4 ADD SWAP3 SWAP1 SWAP2 ADD SWAP1 PUSH2 0x1699 JUMP JUMPDEST SWAP1 SWAP2 POP PUSH1 0xA DUP5 ADD PUSH1 0x0 MSTORE PUSH1 0x20 PUSH1 0x0 KECCAK256 PUSH1 0x1F DUP5 ADD PUSH1 0x5 SHR DUP2 ADD PUSH1 0x20 DUP6 LT PUSH2 0x1744 JUMPI JUMPDEST SWAP1 DUP5 SWAP4 SWAP3 SWAP2 JUMPDEST PUSH1 0x1F DUP4 ADD PUSH1 0x5 SHR DUP3 ADD DUP2 LT PUSH2 0x1735 JUMPI POP POP PUSH2 0xCB2 JUMP JUMPDEST PUSH1 0x0 DUP2 SSTORE DUP6 SWAP5 POP PUSH1 0x1 ADD PUSH2 0x171F JUMP JUMPDEST POP DUP1 PUSH2 0x1719 JUMP JUMPDEST ADD MLOAD SWAP1 POP DUP4 DUP1 PUSH2 0xC68 JUMP JUMPDEST SWAP3 POP PUSH1 0x9 DUP5 ADD PUSH1 0x0 MSTORE PUSH1 0x20 PUSH1 0x0 KECCAK256 SWAP1 PUSH1 0x0 SWAP4 JUMPDEST PUSH1 0x1F NOT DUP5 AND DUP6 LT PUSH2 0x17AD JUMPI PUSH1 0x1 SWAP5 POP DUP4 PUSH1 0x1F NOT DUP2 AND LT PUSH2 0x1794 JUMPI JUMPDEST POP POP POP DUP2 SHL ADD PUSH1 0x9 DUP3 ADD SSTORE PUSH2 0xC80 JUMP JUMPDEST ADD MLOAD PUSH1 0x0 NOT PUSH1 0xF8 DUP5 PUSH1 0x3 SHL AND SHR NOT AND SWAP1 SSTORE DUP4 DUP1 DUP1 PUSH2 0x1784 JUMP JUMPDEST DUP2 DUP2 ADD MLOAD DUP4 SSTORE PUSH1 0x20 SWAP5 DUP6 ADD SWAP5 PUSH1 0x1 SWAP1 SWAP4 ADD SWAP3 SWAP1 SWAP2 ADD SWAP1 PUSH2 0x1769 JUMP JUMPDEST SWAP1 SWAP2 POP PUSH1 0x9 DUP5 ADD PUSH1 0x0 MSTORE PUSH1 0x20 PUSH1 0x0 KECCAK256 PUSH1 0x1F DUP5 ADD PUSH1 0x5 SHR DUP2 ADD PUSH1 0x20 DUP6 LT PUSH2 0x1814 JUMPI JUMPDEST SWAP1 DUP5 SWAP4 SWAP3 SWAP2 JUMPDEST PUSH1 0x1F DUP4 ADD PUSH1 0x5 SHR DUP3 ADD DUP2 LT PUSH2 0x1805 JUMPI POP POP PUSH2 0xC51 JUMP JUMPDEST PUSH1 0x0 DUP2 SSTORE DUP6 SWAP5 POP PUSH1 0x1 ADD PUSH2 0x17EF JUMP JUMPDEST POP DUP1 PUSH2 0x17E9 JUMP JUMPDEST ADD MLOAD SWAP1 POP DUP4 DUP1 PUSH2 0xC07 JUMP JUMPDEST SWAP3 POP PUSH1 0x8 DUP5 ADD PUSH1 0x0 MSTORE PUSH1 0x20 PUSH1 0x0 KECCAK256 SWAP1 PUSH1 0x0 SWAP4 JUMPDEST PUSH1 0x1F NOT DUP5 AND DUP6 LT PUSH2 0x187D JUMPI PUSH1 0x1 SWAP5 POP DUP4 PUSH1 0x1F NOT DUP2 AND LT PUSH2 0x1864 JUMPI JUMPDEST POP POP POP DUP2 SHL ADD PUSH1 0x8 DUP3 ADD SSTORE PUSH2 0xC1F JUMP JUMPDEST ADD MLOAD PUSH1 0x0 NOT PUSH1 0xF8 DUP5 PUSH1 0x3 SHL AND SHR NOT AND SWAP1 SSTORE DUP4 DUP1 DUP1 PUSH2 0x1854 JUMP JUMPDEST DUP2 DUP2 ADD MLOAD DUP4 SSTORE PUSH1 0x20 SWAP5 DUP6 ADD SWAP5 PUSH1 0x1 SWAP1 SWAP4 ADD SWAP3 SWAP1 SWAP2 ADD SWAP1 PUSH2 0x1839 JUMP JUMPDEST SWAP1 SWAP2 POP PUSH1 0x8 DUP5 ADD PUSH1 0x0 MSTORE PUSH1 0x20 PUSH1 0x0 KECCAK256 PUSH1 0x1F DUP5 ADD PUSH1 0x5 SHR DUP2 ADD PUSH1 0x20 DUP6 LT PUSH2 0x18E4 JUMPI JUMPDEST SWAP1 DUP5 SWAP4 SWAP3 SWAP2 JUMPDEST PUSH1 0x1F DUP4 ADD PUSH1 0x5 SHR DUP3 ADD DUP2 LT PUSH2 0x18D5 JUMPI POP POP PUSH2 0xBF0 JUMP JUMPDEST PUSH1 0x0 DUP2 SSTORE DUP6 SWAP5 POP PUSH1 0x1 ADD PUSH2 0x18BF JUMP JUMPDEST POP DUP1 PUSH2 0x18B9 JUMP JUMPDEST ADD MLOAD SWAP1 POP DUP4 DUP1 PUSH2 0xBA6 JUMP JUMPDEST SWAP3 POP PUSH1 0x7 DUP5 ADD PUSH1 0x0 MSTORE PUSH1 0x20 PUSH1 0x0 KECCAK256 SWAP1 PUSH1 0x0 SWAP4 JUMPDEST PUSH1 0x1F NOT DUP5 AND DUP6 LT PUSH2 0x194D JUMPI PUSH1 0x1 SWAP5 POP DUP4 PUSH1 0x1F NOT DUP2 AND LT PUSH2 0x1934 JUMPI JUMPDEST POP POP POP DUP2 SHL ADD PUSH1 0x7 DUP3 ADD SSTORE PUSH2 0xBBE JUMP JUMPDEST ADD MLOAD PUSH1 0x0 NOT PUSH1 0xF8 DUP5 PUSH1 0x3 SHL AND SHR NOT AND SWAP1 SSTORE DUP4 DUP1 DUP1 PUSH2 0x1924 JUMP JUMPDEST DUP2 DUP2 ADD MLOAD DUP4 SSTORE PUSH1 0x20 SWAP5 DUP6 ADD SWAP5 PUSH1 0x1 SWAP1 SWAP4 ADD SWAP3 SWAP1 SWAP2 ADD SWAP1 PUSH2 0x1909 JUMP JUMPDEST SWAP1 SWAP2 POP PUSH1 0x7 DUP5 ADD PUSH1 0x0 MSTORE PUSH1 0x20 PUSH1 0x0 KECCAK256 PUSH1 0x1F DUP5 ADD PUSH1 0x5 SHR DUP2 ADD PUSH1 0x20 DUP6 LT PUSH2 0x19B4 JUMPI JUMPDEST SWAP1 DUP5 SWAP4 SWAP3 SWAP2 JUMPDEST PUSH1 0x1F DUP4 ADD PUSH1 0x5 SHR DUP3 ADD DUP2 LT PUSH2 0x19A5 JUMPI POP POP PUSH2 0xB8F JUMP JUMPDEST PUSH1 0x0 DUP2 SSTORE DUP6 SWAP5 POP PUSH1 0x1 ADD PUSH2 0x198F JUMP JUMPDEST POP DUP1 PUSH2 0x1989 JUMP JUMPDEST ADD MLOAD SWAP1 POP DUP4 DUP1 PUSH2 0xB46 JUMP JUMPDEST SWAP3 POP PUSH1 0x6 DUP5 ADD PUSH1 0x0 MSTORE PUSH1 0x20 PUSH1 0x0 KECCAK256 SWAP1 PUSH1 0x0 SWAP4 JUMPDEST PUSH1 0x1F NOT DUP5 AND DUP6 LT PUSH2 0x1A1D JUMPI PUSH1 0x1 SWAP5 POP DUP4 PUSH1 0x1F NOT DUP2 AND LT PUSH2 0x1A04 JUMPI JUMPDEST POP POP POP DUP2 SHL ADD PUSH1 0x6 DUP3 ADD SSTORE PUSH2 0xB5E JUMP JUMPDEST ADD MLOAD PUSH1 0x0 NOT PUSH1 0xF8 DUP5 PUSH1 0x3 SHL AND SHR NOT AND SWAP1 SSTORE DUP4 DUP1 DUP1 PUSH2 0x19F4 JUMP JUMPDEST DUP2 DUP2 ADD MLOAD DUP4 SSTORE PUSH1 0x20 SWAP5 DUP6 ADD SWAP5 PUSH1 0x1 SWAP1 SWAP4 ADD SWAP3 SWAP1 SWAP2 ADD SWAP1 PUSH2 0x19D9 JUMP JUMPDEST SWAP1 SWAP2 POP PUSH1 0x6 DUP5 ADD PUSH1 0x0 MSTORE PUSH1 0x20 PUSH1 0x0 KECCAK256 PUSH1 0x1F DUP5 ADD PUSH1 0x5 SHR DUP2 ADD PUSH1 0x20 DUP6 LT PUSH2 0x1A84 JUMPI JUMPDEST SWAP1 DUP5 SWAP4 SWAP3 SWAP2 JUMPDEST PUSH1 0x1F DUP4 ADD PUSH1 0x5 SHR DUP3 ADD DUP2 LT PUSH2 0x1A75 JUMPI POP POP PUSH2 0xB2F JUMP JUMPDEST PUSH1 0x0 DUP2 SSTORE DUP6 SWAP5 POP PUSH1 0x1 ADD PUSH2 0x1A5F JUMP JUMPDEST POP DUP1 PUSH2 0x1A59 JUMP JUMPDEST ADD MLOAD SWAP1 POP DUP4 DUP1 PUSH2 0xAE6 JUMP JUMPDEST SWAP3 POP PUSH1 0x5 DUP5 ADD PUSH1 0x0 MSTORE PUSH1 0x20 PUSH1 0x0 KECCAK256 SWAP1 PUSH1 0x0 SWAP4 JUMPDEST PUSH1 0x1F NOT DUP5 AND DUP6 LT PUSH2 0x1AED JUMPI PUSH1 0x1 SWAP5 POP DUP4 PUSH1 0x1F NOT DUP2 AND LT PUSH2 0x1AD4 JUMPI JUMPDEST POP POP POP DUP2 SHL ADD PUSH1 0x5 DUP3 ADD SSTORE PUSH2 0xAFE JUMP JUMPDEST ADD MLOAD PUSH1 0x0 NOT PUSH1 0xF8 DUP5 PUSH1 0x3 SHL AND SHR NOT AND SWAP1 SSTORE DUP4 DUP1 DUP1 PUSH2 0x1AC4 JUMP JUMPDEST DUP2 DUP2 ADD MLOAD DUP4 SSTORE PUSH1 0x20 SWAP5 DUP6 ADD SWAP5 PUSH1 0x1 SWAP1 SWAP4 ADD SWAP3 SWAP1 SWAP2 ADD SWAP1 PUSH2 0x1AA9 JUMP JUMPDEST SWAP1 SWAP2 POP PUSH1 0x5 DUP5 ADD PUSH1 0x0 MSTORE PUSH1 0x20 PUSH1 0x0 KECCAK256 PUSH1 0x1F DUP5 ADD PUSH1 0x5 SHR DUP2 ADD PUSH1 0x20 DUP6 LT PUSH2 0x1B54 JUMPI JUMPDEST SWAP1 DUP5 SWAP4 SWAP3 SWAP2 JUMPDEST PUSH1 0x1F DUP4 ADD PUSH1 0x5 SHR DUP3 ADD DUP2 LT PUSH2 0x1B45 JUMPI POP POP PUSH2 0xACF JUMP JUMPDEST PUSH1 0x0 DUP2 SSTORE DUP6 SWAP5 POP PUSH1 0x1 ADD PUSH2 0x1B2F JUMP JUMPDEST POP DUP1 PUSH2 0x1B29 JUMP JUMPDEST ADD MLOAD SWAP1 POP DUP4 DUP1 PUSH2 0xA86 JUMP JUMPDEST SWAP3 POP PUSH1 0x4 DUP5 ADD PUSH1 0x0 MSTORE PUSH1 0x20 PUSH1 0x0 KECCAK256 SWAP1 PUSH1 0x0 SWAP4 JUMPDEST PUSH1 0x1F NOT DUP5 AND DUP6 LT PUSH2 0x1BBD JUMPI PUSH1 0x1 SWAP5 POP DUP4 PUSH1 0x1F NOT DUP2 AND LT PUSH2 0x1BA4 JUMPI JUMPDEST POP POP POP DUP2 SHL ADD PUSH1 0x4 DUP3 ADD SSTORE PUSH2 0xA9E JUMP JUMPDEST ADD MLOAD PUSH1 0x0 NOT PUSH1 0xF8 DUP5 PUSH1 0x3 SHL AND SHR NOT AND SWAP1 SSTORE DUP4 DUP1 DUP1 PUSH2 0x1B94 JUMP JUMPDEST DUP2 DUP2 ADD MLOAD DUP4 SSTORE PUSH1 0x20 SWAP5 DUP6 ADD SWAP5 PUSH1 0x1 SWAP1 SWAP4 ADD SWAP3 SWAP1 SWAP2 ADD SWAP1 PUSH2 0x1B79 JUMP JUMPDEST SWAP1 SWAP2 POP PUSH1 0x4 DUP5 ADD PUSH1 0x0 MSTORE PUSH1 0x20 PUSH1 0x0 KECCAK256 PUSH1 0x1F DUP5 ADD PUSH1 0x5 SHR DUP2 ADD PUSH1 0x20 DUP6 LT PUSH2 0x1C24 JUMPI JUMPDEST SWAP1 DUP5 SWAP4 SWAP3 SWAP2 JUMPDEST PUSH1 0x1F DUP4 ADD PUSH1 0x5 SHR DUP3 ADD DUP2 LT PUSH2 0x1C15 JUMPI POP POP PUSH2 0xA6F JUMP JUMPDEST PUSH1 0x0 DUP2 SSTORE DUP6 SWAP5 POP PUSH1 0x1 ADD PUSH2 0x1BFF JUMP JUMPDEST POP DUP1 PUSH2 0x1BF9 JUMP JUMPDEST ADD MLOAD SWAP1 POP DUP4 DUP1 PUSH2 0xA26 JUMP JUMPDEST SWAP3 POP PUSH1 0x3 DUP5 ADD PUSH1 0x0 MSTORE PUSH1 0x20 PUSH1 0x0 KECCAK256 SWAP1 PUSH1 0x0 SWAP4 JUMPDEST PUSH1 0x1F NOT DUP5 AND DUP6 LT PUSH2 0x1C8D JUMPI PUSH1 0x1 SWAP5 POP DUP4 PUSH1 0x1F NOT DUP2 AND LT PUSH2 0x1C74 JUMPI JUMPDEST POP POP POP DUP2 SHL ADD PUSH1 0x3 DUP3 ADD SSTORE PUSH2 0xA3E JUMP JUMPDEST ADD MLOAD PUSH1 0x0 NOT PUSH1 0xF8 DUP5 PUSH1 0x3 SHL AND SHR NOT AND SWAP1 SSTORE DUP4 DUP1 DUP1 PUSH2 0x1C64 JUMP JUMPDEST DUP2 DUP2 ADD MLOAD DUP4 SSTORE PUSH1 0x20 SWAP5 DUP6 ADD SWAP5 PUSH1 0x1 SWAP1 SWAP4 ADD SWAP3 SWAP1 SWAP2 ADD SWAP1 PUSH2 0x1C49 JUMP JUMPDEST SWAP1 SWAP2 POP PUSH1 0x3 DUP5 ADD PUSH1 0x0 MSTORE PUSH1 0x20 PUSH1 0x0 KECCAK256 PUSH1 0x1F DUP5 ADD PUSH1 0x5 SHR DUP2 ADD PUSH1 0x20 DUP6 LT PUSH2 0x1CF4 JUMPI JUMPDEST SWAP1 DUP5 SWAP4 SWAP3 SWAP2 JUMPDEST PUSH1 0x1F DUP4 ADD PUSH1 0x5 SHR DUP3 ADD DUP2 LT PUSH2 0x1CE5 JUMPI POP POP PUSH2 0xA0F JUMP JUMPDEST PUSH1 0x0 DUP2 SSTORE DUP6 SWAP5 POP PUSH1 0x1 ADD PUSH2 0x1CCF JUMP JUMPDEST POP DUP1 PUSH2 0x1CC9 JUMP JUMPDEST ADD MLOAD SWAP1 POP DUP4 DUP1 PUSH2 0x9C6 JUMP JUMPDEST PUSH1 0x2 DUP4 ADD PUSH1 0x0 MSTORE PUSH1 0x20 PUSH1 0x0 KECCAK256 SWAP1 PUSH1 0x0 SWAP5 PUSH1 0x1F NOT DUP5 AND SWAP6 JUMPDEST DUP7 DUP2 LT PUSH2 0x1D59 JUMPI POP DUP4 PUSH1 0x1 SWAP6 SWAP7 LT PUSH2 0x1D40 JUMPI JUMPDEST POP POP POP DUP2 SHL ADD PUSH1 0x2 DUP3 ADD SSTORE PUSH2 0x9DE JUMP JUMPDEST ADD MLOAD PUSH1 0x0 NOT PUSH1 0xF8 DUP5 PUSH1 0x3 SHL AND SHR NOT AND SWAP1 SSTORE DUP4 DUP1 DUP1 PUSH2 0x1D30 JUMP JUMPDEST SWAP2 SWAP3 PUSH1 0x20 PUSH1 0x1 DUP2 SWAP3 DUP7 DUP6 ADD MLOAD DUP2 SSTORE ADD SWAP5 ADD SWAP3 ADD PUSH2 0x1D1D JUMP JUMPDEST PUSH1 0x2 DUP4 ADD PUSH1 0x0 MSTORE PUSH1 0x20 PUSH1 0x0 KECCAK256 PUSH1 0x1F DUP4 ADD PUSH1 0x5 SHR DUP2 ADD PUSH1 0x20 DUP5 LT PUSH2 0x1DB1 JUMPI JUMPDEST PUSH1 0x1F DUP4 ADD PUSH1 0x5 SHR DUP3 ADD DUP2 LT PUSH2 0x1DA5 JUMPI POP POP PUSH2 0x9AD JUMP JUMPDEST PUSH1 0x0 DUP2 SSTORE PUSH1 0x1 ADD PUSH2 0x1D8F JUMP JUMPDEST POP DUP1 PUSH2 0x1D8F JUMP JUMPDEST ADD MLOAD SWAP1 POP DUP4 DUP1 PUSH2 0x966 JUMP JUMPDEST PUSH1 0x1 DUP4 ADD PUSH1 0x0 MSTORE PUSH1 0x20 PUSH1 0x0 KECCAK256 SWAP1 PUSH1 0x0 SWAP5 PUSH1 0x1F NOT DUP5 AND SWAP6 JUMPDEST DUP7 DUP2 LT PUSH2 0x1E16 JUMPI POP DUP4 PUSH1 0x1 SWAP6 SWAP7 LT PUSH2 0x1DFD JUMPI JUMPDEST POP POP POP DUP2 SHL ADD PUSH1 0x1 DUP3 ADD SSTORE PUSH2 0x97E JUMP JUMPDEST ADD MLOAD PUSH1 0x0 NOT PUSH1 0xF8 DUP5 PUSH1 0x3 SHL AND SHR NOT AND SWAP1 SSTORE DUP4 DUP1 DUP1 PUSH2 0x1DED JUMP JUMPDEST SWAP2 SWAP3 PUSH1 0x20 PUSH1 0x1 DUP2 SWAP3 DUP7 DUP6 ADD MLOAD DUP2 SSTORE ADD SWAP5 ADD SWAP3 ADD PUSH2 0x1DDA JUMP JUMPDEST PUSH1 0x1 DUP4 ADD PUSH1 0x0 MSTORE PUSH1 0x20 PUSH1 0x0 KECCAK256 PUSH1 0x1F DUP4 ADD PUSH1 0x5 SHR DUP2 ADD PUSH1 0x20 DUP5 LT PUSH2 0x1E6E JUMPI JUMPDEST PUSH1 0x1F DUP4 ADD PUSH1 0x5 SHR DUP3 ADD DUP2 LT PUSH2 0x1E62 JUMPI POP POP PUSH2 0x94D JUMP JUMPDEST PUSH1 0x0 DUP2 SSTORE PUSH1 0x1 ADD PUSH2 0x1E4C JUMP JUMPDEST POP DUP1 PUSH2 0x1E4C JUMP JUMPDEST ADD MLOAD SWAP1 POP DUP4 DUP1 PUSH2 0x909 JUMP JUMPDEST DUP3 PUSH1 0x0 MSTORE PUSH1 0x20 PUSH1 0x0 KECCAK256 SWAP1 PUSH1 0x0 SWAP5 PUSH1 0x1F NOT DUP5 AND SWAP6 JUMPDEST DUP7 DUP2 LT PUSH2 0x1ECD JUMPI POP DUP4 PUSH1 0x1 SWAP6 SWAP7 LT PUSH2 0x1EB4 JUMPI JUMPDEST POP POP POP DUP2 SHL ADD DUP2 SSTORE PUSH2 0x91E JUMP JUMPDEST ADD MLOAD PUSH1 0x0 NOT PUSH1 0xF8 DUP5 PUSH1 0x3 SHL AND SHR NOT AND SWAP1 SSTORE DUP4 DUP1 DUP1 PUSH2 0x1EA7 JUMP JUMPDEST SWAP2 SWAP3 PUSH1 0x20 PUSH1 0x1 DUP2 SWAP3 DUP7 DUP6 ADD MLOAD DUP2 SSTORE ADD SWAP5 ADD SWAP3 ADD PUSH2 0x1E94 JUMP JUMPDEST DUP3 PUSH1 0x0 MSTORE PUSH1 0x20 PUSH1 0x0 KECCAK256 PUSH1 0x1F DUP4 ADD PUSH1 0x5 SHR DUP2 ADD PUSH1 0x20 DUP5 LT PUSH2 0x1F22 JUMPI JUMPDEST PUSH1 0x1F DUP4 ADD PUSH1 0x5 SHR DUP3 ADD DUP2 LT PUSH2 0x1F16 JUMPI POP POP PUSH2 0x8F0 JUMP JUMPDEST PUSH1 0x0 DUP2 SSTORE PUSH1 0x1 ADD PUSH2 0x1F00 JUMP JUMPDEST POP DUP1 PUSH2 0x1F00 JUMP JUMPDEST PUSH1 0x40 MLOAD PUSH3 0x461BCD PUSH1 0xE5 SHL DUP2 MSTORE PUSH1 0x20 PUSH1 0x4 DUP3 ADD MSTORE PUSH1 0xB PUSH1 0x24 DUP3 ADD MSTORE PUSH11 0x139BDD081CDD195DD85C99 PUSH1 0xAA SHL PUSH1 0x44 DUP3 ADD MSTORE PUSH1 0x64 SWAP1 REVERT JUMPDEST CALLVALUE PUSH2 0x3FF JUMPI PUSH1 0x0 CALLDATASIZE PUSH1 0x3 NOT ADD SLT PUSH2 0x3FF JUMPI PUSH1 0x0 SLOAD PUSH1 0x40 MLOAD PUSH1 0x1 PUSH1 0x1 PUSH1 0xA0 SHL SUB SWAP1 SWAP2 AND DUP2 MSTORE PUSH1 0x20 SWAP1 RETURN JUMPDEST CALLVALUE PUSH2 0x3FF JUMPI PUSH1 0x20 CALLDATASIZE PUSH1 0x3 NOT ADD SLT PUSH2 0x3FF JUMPI PUSH1 0x1 PUSH1 0x1 PUSH1 0xA0 SHL SUB PUSH2 0x1FA6 PUSH2 0x228C JUMP JUMPDEST AND PUSH1 0x0 MSTORE PUSH1 0x1 PUSH1 0x20 MSTORE PUSH1 0x40 PUSH1 0x0 KECCAK256 PUSH2 0x1FBD DUP2 PUSH2 0x2319 JUMP JUMPDEST SWAP1 PUSH2 0x1FCA PUSH1 0x1 DUP3 ADD PUSH2 0x2319 JUMP JUMPDEST PUSH2 0x140 MSTORE PUSH2 0x1FDA PUSH1 0x2 DUP3 ADD PUSH2 0x2319 JUMP JUMPDEST PUSH1 0xC0 MSTORE PUSH2 0x1FE9 PUSH1 0x3 DUP3 ADD PUSH2 0x2319 JUMP JUMPDEST PUSH2 0x1FF5 PUSH1 0x4 DUP4 ADD PUSH2 0x2319 JUMP JUMPDEST PUSH2 0x2001 PUSH1 0x5 DUP5 ADD PUSH2 0x2319 JUMP JUMPDEST PUSH2 0x200D PUSH1 0x6 DUP6 ADD PUSH2 0x2319 JUMP JUMPDEST PUSH2 0x2019 PUSH1 0x7 DUP7 ADD PUSH2 0x2319 JUMP JUMPDEST PUSH2 0x2025 PUSH1 0x8 DUP8 ADD PUSH2 0x2319 JUMP JUMPDEST PUSH2 0x2031 PUSH1 0x9 DUP9 ADD PUSH2 0x2319 JUMP JUMPDEST SWAP1 PUSH2 0x203E PUSH1 0xA DUP10 ADD PUSH2 0x2319 JUMP JUMPDEST SWAP3 PUSH2 0x204B PUSH1 0xB DUP11 ADD PUSH2 0x2319 JUMP JUMPDEST SWAP5 PUSH2 0x2058 PUSH1 0xC DUP12 ADD PUSH2 0x2319 JUMP JUMPDEST SWAP7 PUSH2 0x2065 PUSH1 0xD DUP13 ADD PUSH2 0x2319 JUMP JUMPDEST SWAP9 PUSH2 0x2072 PUSH1 0xE DUP14 ADD PUSH2 0x2319 JUMP JUMPDEST SWAP11 PUSH2 0x207F PUSH1 0xF DUP15 ADD PUSH2 0x2319 JUMP JUMPDEST SWAP13 PUSH1 0x10 ADD PUSH2 0x208C SWAP1 PUSH2 0x2319 JUMP JUMPDEST PUSH2 0x4E0 MSTORE PUSH1 0x40 MLOAD PUSH2 0x540 SWAP15 DUP16 SWAP2 DUP1 DUP4 MSTORE PUSH2 0x220 DUP1 SWAP2 MSTORE DUP3 MLOAD ADD PUSH2 0x20AE SWAP2 PUSH2 0x23BF JUMP JUMPDEST DUP2 MLOAD DUP1 DUP3 SUB SWAP1 PUSH1 0x20 ADD MSTORE PUSH2 0x140 MLOAD SWAP1 PUSH2 0x20C6 SWAP2 PUSH2 0x23BF JUMP JUMPDEST DUP2 MLOAD DUP1 DUP3 SUB SWAP1 PUSH1 0x40 ADD MSTORE PUSH1 0xC0 MLOAD SWAP1 PUSH2 0x20DD SWAP2 PUSH2 0x23BF JUMP JUMPDEST SWAP1 MLOAD DUP1 DUP3 SUB SWAP1 PUSH1 0x60 ADD MSTORE PUSH2 0x20F0 SWAP2 PUSH2 0x23BF JUMP JUMPDEST DUP14 MLOAD DUP1 DUP3 SUB SWAP1 PUSH1 0x80 ADD MSTORE PUSH2 0x2103 SWAP2 PUSH2 0x23BF JUMP JUMPDEST DUP13 MLOAD DUP1 DUP3 SUB SWAP1 PUSH1 0xA0 ADD MSTORE PUSH2 0x2116 SWAP2 PUSH2 0x23BF JUMP JUMPDEST DUP12 MLOAD DUP1 DUP3 SUB SWAP1 PUSH1 0xC0 ADD MSTORE PUSH2 0x2129 SWAP2 PUSH2 0x23BF JUMP JUMPDEST DUP11 MLOAD DUP1 DUP3 SUB SWAP1 PUSH1 0xE0 ADD MSTORE PUSH2 0x213C SWAP2 PUSH2 0x23BF JUMP JUMPDEST DUP10 MLOAD DUP1 DUP3 SUB SWAP1 PUSH2 0x100 ADD MSTORE PUSH2 0x2150 SWAP2 PUSH2 0x23BF JUMP JUMPDEST DUP9 MLOAD DUP1 DUP3 SUB SWAP1 PUSH2 0x120 ADD MSTORE PUSH2 0x2164 SWAP2 PUSH2 0x23BF JUMP JUMPDEST DUP8 MLOAD DUP1 DUP3 SUB SWAP1 PUSH2 0x140 ADD MSTORE PUSH2 0x2178 SWAP2 PUSH2 0x23BF JUMP JUMPDEST DUP7 MLOAD DUP1 DUP3 SUB SWAP1 PUSH2 0x160 ADD MSTORE PUSH2 0x218C SWAP2 PUSH2 0x23BF JUMP JUMPDEST DUP6 MLOAD DUP1 DUP3 SUB SWAP1 PUSH2 0x180 ADD MSTORE PUSH2 0x21A0 SWAP2 PUSH2 0x23BF JUMP JUMPDEST DUP5 MLOAD DUP1 DUP3 SUB SWAP1 PUSH2 0x1A0 ADD MSTORE PUSH2 0x21B4 SWAP2 PUSH2 0x23BF JUMP JUMPDEST DUP4 MLOAD DUP1 DUP3 SUB SWAP1 PUSH2 0x1C0 ADD MSTORE PUSH2 0x21C8 SWAP2 PUSH2 0x23BF JUMP JUMPDEST DUP3 MLOAD DUP1 DUP3 SUB SWAP1 PUSH2 0x1E0 ADD MSTORE PUSH2 0x21DC SWAP2 PUSH2 0x23BF JUMP JUMPDEST DUP2 MLOAD DUP1 DUP3 SUB SWAP1 PUSH2 0x200 ADD MSTORE DUP2 MLOAD SWAP1 PUSH2 0x4E0 MLOAD SWAP1 PUSH2 0x21F8 SWAP2 PUSH2 0x23BF JUMP JUMPDEST SUB SWAP1 MLOAD RETURN JUMPDEST CALLVALUE PUSH2 0x3FF JUMPI PUSH1 0x20 CALLDATASIZE PUSH1 0x3 NOT ADD SLT PUSH2 0x3FF JUMPI PUSH1 0x4 CALLDATALOAD PUSH1 0x2 SLOAD DUP2 LT ISZERO PUSH2 0x3FF JUMPI PUSH2 0x2226 PUSH1 0x20 SWAP2 PUSH2 0x223F JUMP JUMPDEST SWAP1 SLOAD PUSH1 0x40 MLOAD PUSH1 0x3 SWAP3 SWAP1 SWAP3 SHL SHR PUSH1 0x1 PUSH1 0x1 PUSH1 0xA0 SHL SUB AND DUP2 MSTORE RETURN JUMPDEST PUSH1 0x2 SLOAD DUP2 LT ISZERO PUSH2 0x2276 JUMPI PUSH1 0x2 PUSH1 0x0 MSTORE PUSH32 0x405787FA12A823E0F2B7631CC41B3BA8828B3321CA811111FA75CD3AA3BB5ACE ADD SWAP1 PUSH1 0x0 SWAP1 JUMP JUMPDEST PUSH4 0x4E487B71 PUSH1 0xE0 SHL PUSH1 0x0 MSTORE PUSH1 0x32 PUSH1 0x4 MSTORE PUSH1 0x24 PUSH1 0x0 REVERT JUMPDEST PUSH1 0x4 CALLDATALOAD SWAP1 PUSH1 0x1 PUSH1 0x1 PUSH1 0xA0 SHL SUB DUP3 AND DUP3 SUB PUSH2 0x3FF JUMPI JUMP JUMPDEST SWAP1 PUSH1 0x1 DUP3 DUP2 SHR SWAP3 AND DUP1 ISZERO PUSH2 0x22D2 JUMPI JUMPDEST PUSH1 0x20 DUP4 LT EQ PUSH2 0x22BC JUMPI JUMP JUMPDEST PUSH4 0x4E487B71 PUSH1 0xE0 SHL PUSH1 0x0 MSTORE PUSH1 0x22 PUSH1 0x4 MSTORE PUSH1 0x24 PUSH1 0x0 REVERT JUMPDEST SWAP2 PUSH1 0x7F AND SWAP2 PUSH2 0x22B1 JUMP JUMPDEST PUSH2 0x220 DUP2 ADD SWAP1 DUP2 LT PUSH1 0x1 PUSH1 0x1 PUSH1 0x40 SHL SUB DUP3 GT OR PUSH2 0x1195 JUMPI PUSH1 0x40 MSTORE JUMP JUMPDEST SWAP1 PUSH1 0x1F DUP1 NOT SWAP2 ADD AND DUP2 ADD SWAP1 DUP2 LT PUSH1 0x1 PUSH1 0x1 PUSH1 0x40 SHL SUB DUP3 GT OR PUSH2 0x1195 JUMPI PUSH1 0x40 MSTORE JUMP JUMPDEST SWAP1 PUSH1 0x40 MLOAD SWAP2 DUP3 PUSH1 0x0 DUP3 SLOAD SWAP3 PUSH2 0x232D DUP5 PUSH2 0x22A2 JUMP JUMPDEST SWAP1 DUP2 DUP5 MSTORE PUSH1 0x1 SWAP5 DUP6 DUP2 AND SWAP1 DUP2 PUSH1 0x0 EQ PUSH2 0x239C JUMPI POP PUSH1 0x1 EQ PUSH2 0x2359 JUMPI JUMPDEST POP POP PUSH2 0x2357 SWAP3 POP SUB DUP4 PUSH2 0x22F8 JUMP JUMPDEST JUMP JUMPDEST SWAP1 SWAP4 SWAP2 POP PUSH1 0x0 MSTORE PUSH1 0x20 SWAP1 DUP2 PUSH1 0x0 KECCAK256 SWAP4 PUSH1 0x0 SWAP2 JUMPDEST DUP2 DUP4 LT PUSH2 0x2384 JUMPI POP POP PUSH2 0x2357 SWAP4 POP DUP3 ADD ADD CODESIZE DUP1 PUSH2 0x2349 JUMP JUMPDEST DUP6 SLOAD DUP9 DUP5 ADD DUP6 ADD MSTORE SWAP5 DUP6 ADD SWAP5 DUP8 SWAP5 POP SWAP2 DUP4 ADD SWAP2 PUSH2 0x236C JUMP JUMPDEST SWAP2 POP POP PUSH2 0x2357 SWAP5 POP PUSH1 0x20 SWAP3 POP PUSH1 0xFF NOT AND DUP3 DUP5 ADD MSTORE ISZERO ISZERO PUSH1 0x5 SHL DUP3 ADD ADD CODESIZE DUP1 PUSH2 0x2349 JUMP JUMPDEST SWAP2 SWAP1 DUP3 MLOAD SWAP3 DUP4 DUP3 MSTORE PUSH1 0x0 JUMPDEST DUP5 DUP2 LT PUSH2 0x23EB JUMPI POP POP DUP3 PUSH1 0x0 PUSH1 0x20 DUP1 SWAP5 SWAP6 DUP5 ADD ADD MSTORE PUSH1 0x1F DUP1 NOT SWAP2 ADD AND ADD ADD SWAP1 JUMP JUMPDEST PUSH1 0x20 DUP2 DUP4 ADD DUP2 ADD MLOAD DUP5 DUP4 ADD DUP3 ADD MSTORE ADD PUSH2 0x23CA JUMP JUMPDEST SWAP2 DUP2 PUSH1 0x1F DUP5 ADD SLT ISZERO PUSH2 0x3FF JUMPI DUP3 CALLDATALOAD SWAP2 PUSH1 0x1 PUSH1 0x1 PUSH1 0x40 SHL SUB DUP4 GT PUSH2 0x3FF JUMPI PUSH1 0x20 DUP4 DUP2 DUP7 ADD SWAP6 ADD ADD GT PUSH2 0x3FF JUMPI JUMP JUMPDEST SWAP3 SWAP2 SWAP3 PUSH1 0x1 PUSH1 0x1 PUSH1 0x40 SHL SUB DUP3 GT PUSH2 0x1195 JUMPI PUSH1 0x40 MLOAD SWAP2 PUSH2 0x2455 PUSH1 0x1F DUP3 ADD PUSH1 0x1F NOT AND PUSH1 0x20 ADD DUP5 PUSH2 0x22F8 JUMP JUMPDEST DUP3 SWAP5 DUP2 DUP5 MSTORE DUP2 DUP4 ADD GT PUSH2 0x3FF JUMPI DUP3 DUP2 PUSH1 0x20 SWAP4 DUP5 PUSH1 0x0 SWAP7 ADD CALLDATACOPY ADD ADD MSTORE JUMP JUMPDEST SWAP1 DUP1 PUSH1 0x20 SWAP4 SWAP3 DUP2 DUP5 MSTORE DUP5 DUP5 ADD CALLDATACOPY PUSH1 0x0 DUP3 DUP3 ADD DUP5 ADD MSTORE PUSH1 0x1F ADD PUSH1 0x1F NOT AND ADD ADD SWAP1 JUMP INVALID LOG2 PUSH5 0x6970667358 0x22 SLT KECCAK256 DUP1 CODECOPY DUP10 0xB8 0x4C 0xC8 0xBD 0x2E PUSH14 0xC43E2A522C4681A36E5C27CD4147 SWAP7 0xE1 CALLDATACOPY 0xE2 0xE2 0xC9 0xB1 0xC9 0x1E PUSH5 0x736F6C6343 STOP ADDMOD EQ STOP CALLER "},"methodIdentifiers":{"companions(address)":"47854b87","getCompanion(address)":"ef652737","keys(uint256)":"0cb6aaf1","steward()":"637eea19","summonCompanion(address,string,string,string,string,string,string,string,string,string,string,string,string,string,string,string,string,string)":"cddb29dc","totalCompanions()":"ec39f18f"}}}}}