{"contracts/codex/SpiralboundCodexXXVII.sol":{"SpiralboundCodexXXVII":{"abi":[{"inputs":[],"stateMutability":"nonpayable","type":"constructor"},{"anonymous":false,"inputs":[{"indexed":false,"internalType":"string","name":"glyph","type":"string"},{"indexed":false,"internalType":"string","name":"tag","type":"string"},{"indexed":false,"internalType":"string","name":"binding","type":"string"},{"indexed":false,"internalType":"string","name":"annotation","type":"string"},{"indexed":false,"internalType":"string","name":"lineage","type":"string"},{"indexed":false,"internalType":"string","name":"resonance","type":"string"},{"indexed":false,"internalType":"string","name":"protocol","type":"string"},{"indexed":false,"internalType":"string","name":"sanctum","type":"string"},{"indexed":false,"internalType":"string","name":"pulse","type":"string"},{"indexed":false,"internalType":"string","name":"chant","type":"string"},{"indexed":false,"internalType":"string","name":"choreography","type":"string"},{"indexed":false,"internalType":"string","name":"drift","type":"string"},{"indexed":false,"internalType":"string","name":"signature","type":"string"},{"indexed":false,"internalType":"string","name":"signal","type":"string"},{"indexed":false,"internalType":"string","name":"companion","type":"string"},{"indexed":false,"internalType":"string","name":"stewardName","type":"string"},{"indexed":false,"internalType":"string","name":"registry","type":"string"},{"indexed":false,"internalType":"string","name":"echo","type":"string"},{"indexed":false,"internalType":"string","name":"hum","type":"string"},{"indexed":false,"internalType":"string","name":"terrain","type":"string"},{"indexed":false,"internalType":"string","name":"choreographyType","type":"string"},{"indexed":false,"internalType":"string","name":"driftType","type":"string"},{"indexed":false,"internalType":"string","name":"signalType","type":"string"},{"indexed":false,"internalType":"string","name":"companionType","type":"string"},{"indexed":false,"internalType":"string","name":"stewardSignal","type":"string"},{"indexed":false,"internalType":"string","name":"pulseType","type":"string"},{"indexed":false,"internalType":"string","name":"signalChoreography","type":"string"},{"indexed":false,"internalType":"string","name":"companionSignal","type":"string"}],"name":"CodexInscribed","type":"event"},{"inputs":[{"internalType":"string","name":"","type":"string"}],"name":"codices","outputs":[{"internalType":"string","name":"tag","type":"string"},{"internalType":"string","name":"binding","type":"string"},{"internalType":"string","name":"annotation","type":"string"},{"internalType":"string","name":"lineage","type":"string"},{"internalType":"string","name":"resonance","type":"string"},{"internalType":"string","name":"protocol","type":"string"},{"internalType":"string","name":"sanctum","type":"string"},{"internalType":"string","name":"pulse","type":"string"},{"internalType":"string","name":"chant","type":"string"},{"internalType":"string","name":"choreography","type":"string"},{"internalType":"string","name":"drift","type":"string"},{"internalType":"string","name":"signature","type":"string"},{"internalType":"string","name":"signal","type":"string"},{"internalType":"string","name":"companion","type":"string"},{"internalType":"string","name":"stewardName","type":"string"},{"internalType":"string","name":"registry","type":"string"},{"internalType":"string","name":"echo","type":"string"},{"internalType":"string","name":"hum","type":"string"},{"internalType":"string","name":"terrain","type":"string"},{"internalType":"string","name":"choreographyType","type":"string"},{"internalType":"string","name":"driftType","type":"string"},{"internalType":"string","name":"signalType","type":"string"},{"internalType":"string","name":"companionType","type":"string"},{"internalType":"string","name":"stewardSignal","type":"string"},{"internalType":"string","name":"pulseType","type":"string"},{"internalType":"string","name":"signalChoreography","type":"string"},{"internalType":"string","name":"companionSignal","type":"string"}],"stateMutability":"view","type":"function"},{"inputs":[{"internalType":"string","name":"glyph","type":"string"}],"name":"getCodex","outputs":[{"components":[{"internalType":"string","name":"tag","type":"string"},{"internalType":"string","name":"binding","type":"string"},{"internalType":"string","name":"annotation","type":"string"},{"internalType":"string","name":"lineage","type":"string"},{"internalType":"string","name":"resonance","type":"string"},{"internalType":"string","name":"protocol","type":"string"},{"internalType":"string","name":"sanctum","type":"string"},{"internalType":"string","name":"pulse","type":"string"},{"internalType":"string","name":"chant","type":"string"},{"internalType":"string","name":"choreography","type":"string"},{"internalType":"string","name":"drift","type":"string"},{"internalType":"string","name":"signature","type":"string"},{"internalType":"string","name":"signal","type":"string"},{"internalType":"string","name":"companion","type":"string"},{"internalType":"string","name":"stewardName","type":"string"},{"internalType":"string","name":"registry","type":"string"},{"internalType":"string","name":"echo","type":"string"},{"internalType":"string","name":"hum","type":"string"},{"internalType":"string","name":"terrain","type":"string"},{"internalType":"string","name":"choreographyType","type":"string"},{"internalType":"string","name":"driftType","type":"string"},{"internalType":"string","name":"signalType","type":"string"},{"internalType":"string","name":"companionType","type":"string"},{"internalType":"string","name":"stewardSignal","type":"string"},{"internalType":"string","name":"pulseType","type":"string"},{"internalType":"string","name":"signalChoreography","type":"string"},{"internalType":"string","name":"companionSignal","type":"string"}],"internalType":"struct SpiralboundCodexXXVII.Codex","name":"","type":"tuple"}],"stateMutability":"view","type":"function"},{"inputs":[{"internalType":"string","name":"glyph","type":"string"},{"internalType":"string","name":"tag","type":"string"},{"internalType":"string","name":"binding","type":"string"},{"internalType":"string","name":"annotation","type":"string"},{"internalType":"string","name":"lineage","type":"string"},{"internalType":"string","name":"resonance","type":"string"},{"internalType":"string","name":"protocol","type":"string"},{"internalType":"string","name":"sanctum","type":"string"},{"internalType":"string","name":"pulse","type":"string"},{"internalType":"string","name":"chant","type":"string"},{"internalType":"string","name":"choreography","type":"string"},{"internalType":"string","name":"drift","type":"string"},{"internalType":"string","name":"signature","type":"string"},{"internalType":"string","name":"signal","type":"string"},{"internalType":"string","name":"companion","type":"string"},{"internalType":"string","name":"stewardName","type":"string"},{"internalType":"string","name":"registry","type":"string"},{"internalType":"string","name":"echo","type":"string"},{"internalType":"string","name":"hum","type":"string"},{"internalType":"string","name":"terrain","type":"string"},{"internalType":"string","name":"choreographyType","type":"string"},{"internalType":"string","name":"driftType","type":"string"},{"internalType":"string","name":"signalType","type":"string"},{"internalType":"string","name":"companionType","type":"string"},{"internalType":"string","name":"stewardSignal","type":"string"},{"internalType":"string","name":"pulseType","type":"string"},{"internalType":"string","name":"signalChoreography","type":"string"},{"internalType":"string","name":"companionSignal","type":"string"}],"name":"inscribeCodex","outputs":[],"stateMutability":"nonpayable","type":"function"},{"inputs":[{"internalType":"uint256","name":"","type":"uint256"}],"name":"keys","outputs":[{"internalType":"string","name":"","type":"string"}],"stateMutability":"view","type":"function"},{"inputs":[],"name":"steward","outputs":[{"internalType":"address","name":"","type":"address"}],"stateMutability":"view","type":"function"},{"inputs":[],"name":"totalCodices","outputs":[{"internalType":"uint256","name":"","type":"uint256"}],"stateMutability":"view","type":"function"}],"evm":{"bytecode":{"linkReferences":{},"object":"6080806040523461002857600080546001600160a01b031916331790556132a2908161002e8239f35b600080fdfe6109c0604052600436101561001357600080fd5b60003560e01c80630b0a124f14610c235780630cb6aaf114610bc2578063637eea1914610b995780638336152214610571578063c212d16b146105535763dbc214241461005f57600080fd5b3461054e57602036600319011261054e576004356001600160401b03811161054e573660238201121561054e5736816004013591602401916100a0926131b1565b60405181818093516020819301916100b792613169565b81016001815203602001902080610680526100d1906130c3565b610680516001016100e1906130c3565b6104c052610680516002016100f5906130c3565b6103405261068051600301610109906130c3565b610740526106805160040161011d906130c3565b6106805160050161012d906130c3565b6106805160060161013d906130c3565b6106805160070161014d906130c3565b6106805160080161015d906130c3565b6106805160090161016d906130c3565b61068051600a0161017d906130c3565b9161068051600b0161018e906130c3565b9361068051600c0161019f906130c3565b9561068051600d016101b0906130c3565b9761068051600e016101c1906130c3565b9961068051600f016101d2906130c3565b9b610680516010016101e3906130c3565b6101a052610680516011016101f7906130c3565b6105a0526106805160120161020b906130c3565b6102a0526106805160130161021f906130c3565b60a05261068051601401610232906130c3565b6105205261068051601501610246906130c3565b610120526106805160160161025a906130c3565b610300526106805160170161026e906130c3565b60e05261068051601801610281906130c3565b6105e05261068051601901610295906130c3565b6107e05261068051601a016102a9906130c3565b61078052604051806102805261036080915261028051016102c99161318c565b6102805180820390602001526104c051906102e39161318c565b61028051808203906040015261034051906102fd9161318c565b61028051808203906060015261074051906103179161318c565b61028051808203906080015261032c9161318c565b610280518082039060a001526103419161318c565b610280518082039060c001526103569161318c565b610280518082039060e0015261036b9161318c565b610280518082039061010001526103819161318c565b610280518082039061012001526103979161318c565b610280518082039061014001526103ad9161318c565b610280518082039061016001526103c39161318c565b610280518082039061018001526103d99161318c565b61028051808203906101a001526103ef9161318c565b61028051808203906101c001526104059161318c565b61028051808203906101e0015261041b9161318c565b610280518082039061020001526101a051906104369161318c565b610280518082039061022001526105a051906104519161318c565b610280518082039061024001526102a0519061046c9161318c565b6102805180820390610260015260a051906104869161318c565b6102805180820390610280015261052051906104a19161318c565b61028051808203906102a0015261012051906104bc9161318c565b61028051808203906102c0015261030051906104d79161318c565b61028051808203906102e0015260e051906104f19161318c565b610280518082039061030001526105e0519061050c9161318c565b610280518082039061032001526107e051906105279161318c565b61028051808203906103400152610280519061078051906105479161318c565b0361028051f35b600080fd5b3461054e57600036600319011261054e576020600254604051908152f35b3461054e57602036600319011261054e576004356001600160401b03811161054e576105a1903690600401612fd2565b906040516105ae81613086565b60608152602081016060905260408101606090526060810160609052608081016060905260a081016060905260c081016060905260e08101606090526101008101606090526101208101606090526101408101606090526101608101606090526101808101606090526101a08101606090526101c08101606090526101e08101606090526102008101606090526102208101606090526102408101606090526102608101606090526102808101606090526102a08101606090526102c08101606090526102e08101606090526103008101606090526103208101606090526103400160609052816040519283928337810160018152036020019020604051906106b682613086565b6106bf816130c3565b82526106cd600182016130c3565b60208301526106de600282016130c3565b60408301526106ef600382016130c3565b6060830152610700600482016130c3565b6080830152610711600582016130c3565b60a0830152610722600682016130c3565b60c0830152610733600782016130c3565b60e0830152610744600882016130c3565b610100830152610756600982016130c3565b610120830152610768600a82016130c3565b61014083015261077a600b82016130c3565b61016083015261078c600c82016130c3565b61018083015261079e600d82016130c3565b6101a08301526107b0600e82016130c3565b6101c08301526107c2600f82016130c3565b6101e08301526107d4601082016130c3565b6102008301526107e6601182016130c3565b6102208301526107f8601282016130c3565b61024083015261080a601382016130c3565b61026083015261081c601482016130c3565b61028083015261082e601582016130c3565b6102a0830152610840601682016130c3565b6102c0830152610852601782016130c3565b6102e0830152610864601882016130c3565b610300830152610876601982016130c3565b610320830152601a01610888906130c3565b610340820152604051809160208252805160208301610360905261038083016108b09161318c565b6020820151838203601f190160408501526108cb919061318c565b6040820151838203601f190160608501526108e6919061318c565b6060820151838203601f19016080850152610901919061318c565b6080820151838203601f190160a085015261091c919061318c565b60a0820151838203601f190160c0850152610937919061318c565b60c0820151838203601f190160e0850152610952919061318c565b60e0820151838203601f190161010085015261096e919061318c565b610100820151838203601f190161012085015261098b919061318c565b610120820151838203601f19016101408501526109a8919061318c565b610140820151838203601f19016101608501526109c5919061318c565b610160820151838203601f19016101808501526109e2919061318c565b610180820151838203601f19016101a08501526109ff919061318c565b6101a0820151838203601f19016101c0850152610a1c919061318c565b6101c0820151838203601f19016101e0850152610a39919061318c565b6101e0820151838203601f1901610200850152610a56919061318c565b610200820151838203601f1901610220850152610a73919061318c565b610220820151838203601f1901610240850152610a90919061318c565b610240820151838203601f1901610260850152610aad919061318c565b610260820151838203601f1901610280850152610aca919061318c565b610280820151838203601f19016102a0850152610ae7919061318c565b6102a0820151838203601f19016102c0850152610b04919061318c565b6102c0820151838203601f19016102e0850152610b21919061318c565b6102e0820151838203601f1901610300850152610b3e919061318c565b610300820151838203601f1901610320850152610b5b919061318c565b610320820151838203601f1901610340850152610b78919061318c565b90610340015190601f1983820301610360840152610b959161318c565b0390f35b3461054e57600036600319011261054e576000546040516001600160a01b039091168152602090f35b3461054e57602036600319011261054e5760043560025481101561054e57610be990612fff565b610c0d57610bf9610b95916130c3565b60405191829160208352602083019061318c565b634e487b7160e01b600052600060045260246000fd5b3461054e5761038036600319011261054e576004356001600160401b03811161054e57610c54903690600401612fd2565b61038052610620526024356001600160401b03811161054e57610c7b903690600401612fd2565b610820526107a0526044356001600160401b03811161054e57610ca2903690600401612fd2565b610440526103e0526064356001600160401b03811161054e57610cc9903690600401612fd2565b6109a052610560526001600160401b036084351161054e57610cf036608435600401612fd2565b610920526108a0526001600160401b0360a4351161054e57610d173660a435600401612fd2565b6108c052610360526001600160401b0360c4351161054e57610d3e3660c435600401612fd2565b610980526106e0526001600160401b0360e4351161054e57610d653660e435600401612fd2565b6106c052610660526001600160401b03610104351161054e57610d8e3661010435600401612fd2565b61050052610320526001600160401b03610124351161054e57610db73661012435600401612fd2565b61096052610400526001600160401b03610144351161054e57610de03661014435600401612fd2565b61064052610700526001600160401b03610164351161054e57610e093661016435600401612fd2565b610940526101e0526001600160401b03610184351161054e57610e323661018435600401612fd2565b61026052610580526001600160401b036101a4351161054e57610e5b366101a435600401612fd2565b6107c05260c0526001600160401b036101c4351161054e57610e83366101c435600401612fd2565b61022052610240526001600160401b036101e4351161054e57610eac366101e435600401612fd2565b6108e052610720526001600160401b03610204351161054e57610ed53661020435600401612fd2565b6101c052610460526001600160401b03610224351161054e57610efe3661022435600401612fd2565b6104e052610480526001600160401b03610244351161054e57610f273661024435600401612fd2565b610140526103c0526001600160401b03610264351161054e57610f503661026435600401612fd2565b6102c052610540526001600160401b03610284351161054e57610f793661028435600401612fd2565b6104a052610600526001600160401b036102a4351161054e57610fa2366102a435600401612fd2565b61088052610860526001600160401b036102c4351161054e57610fcb366102c435600401612fd2565b610200526106a0526001600160401b036102e4351161054e57610ff4366102e435600401612fd2565b61010052610160526001600160401b03610304351161054e5761101d3661030435600401612fd2565b6080526103a0526001600160401b03610324351161054e576110453661032435600401612fd2565b61080052610760526001600160401b03610344351161054e5761106e3661034435600401612fd2565b6105c0526102e0526001600160401b03610364351161054e576110973661036435600401612fd2565b61084052610900526000546001600160a01b03163303612fa1576110c16040518061042052613086565b6110d236610820516107a0516131b1565b61042051526110e836610440516103e0516131b1565b6020610420510152611101366109a051610560516131b1565b604061042051015261111a36610920516108a0516131b1565b6060610420510152611133366108c051610360516131b1565b608061042051015261114c36610980516106e0516131b1565b60a0610420510152611165366106c051610660516131b1565b60c061042051015261117e3661050051610320516131b1565b60e06104205101526111973661096051610400516131b1565b6101006104205101526111b13661064051610700516131b1565b6101206104205101526111cb36610940516101e0516131b1565b6101406104205101526111e53661026051610580516131b1565b6101606104205101526111fe366107c05160c0516131b1565b6101806104205101526112183661022051610240516131b1565b6101a0610420510152611232366108e051610720516131b1565b6101c061042051015261124c366101c051610460516131b1565b6101e0610420510152611266366104e051610480516131b1565b61020061042051015261128036610140516103c0516131b1565b61022061042051015261129a366102c051610540516131b1565b6102406104205101526112b4366104a051610600516131b1565b6102606104205101526112ce3661088051610860516131b1565b6102806104205101526112e836610200516106a0516131b1565b6102a06104205101526113023661010051610160516131b1565b6102c061042051015261131b366080516103a0516131b1565b6102e06104205101526113353661080051610760516131b1565b61030061042051015261134f366105c0516102e0516131b1565b6103206104205101526113693661084051610900516131b1565b610340610420510152604051610380516106205182376001610380518201526020816103805181010301902061042051518051906001600160401b0382116122645781906113c1826113bb865461304c565b866131f7565b602090601f8311600114612f3557600092612f2a575b50508160011b916000199060031b1c19161781555b60206104205101518051906001600160401b03821161226457819061142182611418600187015461304c565b600187016131f7565b602090601f8311600114612eb857600092612ead575b50508160011b916000199060031b1c19161760018201555b60406104205101518051906001600160401b0382116122645781906114848261147b600287015461304c565b600287016131f7565b602090601f8311600114612e3b57600092612e30575b50508160011b916000199060031b1c19161760028201555b60606104205101518051906001600160401b0382116122645781906114e7826114de600387015461304c565b600387016131f7565b602090601f8311600114612dbe57600092612db3575b50508160011b916000199060031b1c19161760038201555b60806104205101518051906001600160401b03821161226457819061154a82611541600487015461304c565b600487016131f7565b602090601f8311600114612d4157600092612d36575b50508160011b916000199060031b1c19161760048201555b60a06104205101518051906001600160401b0382116122645781906115ad826115a4600587015461304c565b600587016131f7565b602090601f8311600114612cc457600092612cb9575b50508160011b916000199060031b1c19161760058201555b60c06104205101518051906001600160401b03821161226457819061161082611607600687015461304c565b600687016131f7565b602090601f8311600114612c4757600092612c3c575b50508160011b916000199060031b1c19161760068201555b60e06104205101518051906001600160401b0382116122645781906116738261166a600787015461304c565b600787016131f7565b602090601f8311600114612bca57600092612bbf575b50508160011b916000199060031b1c19161760078201555b6101006104205101518051906001600160401b0382116122645781906116d7826116ce600887015461304c565b600887016131f7565b602090601f8311600114612b4d57600092612b42575b50508160011b916000199060031b1c19161760088201555b6101206104205101518051906001600160401b03821161226457819061173b82611732600987015461304c565b600987016131f7565b602090601f8311600114612ad057600092612ac5575b50508160011b916000199060031b1c19161760098201555b6101406104205101518051906001600160401b03821161226457819061179f82611796600a87015461304c565b600a87016131f7565b602090601f8311600114612a5357600092612a48575b50508160011b916000199060031b1c191617600a8201555b6101606104205101518051906001600160401b038211612264578190611803826117fa600b87015461304c565b600b87016131f7565b602090601f83116001146129d6576000926129cb575b50508160011b916000199060031b1c191617600b8201555b6101806104205101518051906001600160401b0382116122645781906118678261185e600c87015461304c565b600c87016131f7565b602090601f83116001146129595760009261294e575b50508160011b916000199060031b1c191617600c8201555b6101a06104205101518051906001600160401b0382116122645781906118cb826118c2600d87015461304c565b600d87016131f7565b602090601f83116001146128dc576000926128d1575b50508160011b916000199060031b1c191617600d8201555b6101c06104205101518051906001600160401b03821161226457819061192f82611926600e87015461304c565b600e87016131f7565b602090601f831160011461285f57600092612854575b50508160011b916000199060031b1c191617600e8201555b6101e06104205101518051906001600160401b0382116122645781906119938261198a600f87015461304c565b600f87016131f7565b602090601f83116001146127e2576000926127d7575b50508160011b916000199060031b1c191617600f8201555b6102006104205101518051906001600160401b0382116122645781906119f7826119ee601087015461304c565b601087016131f7565b602090601f83116001146127655760009261275a575b50508160011b916000199060031b1c19161760108201555b6102206104205101518051906001600160401b038211612264578190611a5b82611a52601187015461304c565b601187016131f7565b602090601f83116001146126e8576000926126dd575b50508160011b916000199060031b1c19161760118201555b6102406104205101518051906001600160401b038211612264578190611abf82611ab6601287015461304c565b601287016131f7565b602090601f831160011461266b57600092612660575b50508160011b916000199060031b1c19161760128201555b6102606104205101518051906001600160401b038211612264578190611b2382611b1a601387015461304c565b601387016131f7565b602090601f83116001146125ee576000926125e3575b50508160011b916000199060031b1c19161760138201555b6102806104205101518051906001600160401b038211612264578190611b8782611b7e601487015461304c565b601487016131f7565b602090601f831160011461257157600092612566575b50508160011b916000199060031b1c19161760148201555b6102a06104205101518051906001600160401b038211612264578190611beb82611be2601587015461304c565b601587016131f7565b602090601f83116001146124f4576000926124e9575b50508160011b916000199060031b1c19161760158201555b6102c06104205101518051906001600160401b038211612264578190611c4f82611c46601687015461304c565b601687016131f7565b602090601f83116001146124775760009261246c575b50508160011b916000199060031b1c19161760168201555b6102e06104205101518051906001600160401b038211612264578190611cb382611caa601787015461304c565b601787016131f7565b602090601f83116001146123fa576000926123ef575b50508160011b916000199060031b1c19161760178201555b6103006104205101518051906001600160401b038211612264578190611d1782611d0e601887015461304c565b601887016131f7565b602090601f831160011461237d57600092612372575b50508160011b916000199060031b1c19161760188201555b6103206104205101518051906001600160401b038211612264578190611d7b82611d72601987015461304c565b601987016131f7565b602090601f8311600114612300576000926122f5575b50508160011b916000199060031b1c19161760198201555b6103406104205101518051906001600160401b03821161226457611ddd82611dd4601a86015461304c565b601a86016131f7565b602090601f831160011461228557601a92916000918361227a575b50508160011b916000199060031b1c1916179101555b6002546801000000000000000081101561226457806001611e329201600255612fff565b610c0d57610380516001600160401b03811161226457611e5c90611e56835461304c565b836131f7565b60009061038051601f81116001146121f757509060006103805191826121e9575b508160011b916000199060031b1c19161790555b6103806040518061018052527f9a547019dcd325aae1770565d9973279611a6f42bbbc092717adb48f436a44836121bf6121a561218b61217261215861213e61212461210a6120f06120d66120bc6120a261208861206e61205561203b612021612007611fed611fd3611fba611fa1611f88611f6f611f56611f3d611f246103806101805101610380516106205161324b565b610180516020818303910152610820516107a05161324b565b610180516040818303910152610440516103e05161324b565b6101805160608183039101526109a0516105605161324b565b610180516080818303910152610920516108a05161324b565b6101805160a08183039101526108c0516103605161324b565b6101805160c0818303910152610980516106e05161324b565b6101805160e08183039101526106c0516106605161324b565b61018051610100818303910152610500516103205161324b565b61018051610120818303910152610960516104005161324b565b61018051610140818303910152610640516107005161324b565b61018051610160818303910152610940516101e05161324b565b61018051610180818303910152610260516105805161324b565b610180516101a08183039101526107c05160c05161324b565b610180516101c0818303910152610220516102405161324b565b610180516101e08183039101526108e0516107205161324b565b610180516102008183039101526101c0516104605161324b565b610180516102208183039101526104e0516104805161324b565b61018051610240818303910152610140516103c05161324b565b610180516102608183039101526102c0516105405161324b565b610180516102808183039101526104a0516106005161324b565b610180516102a0818303910152610880516108605161324b565b610180516102c0818303910152610200516106a05161324b565b610180516102e0818303910152610100516101605161324b565b610180516103008183039101526080516103a05161324b565b61018051610320818303910152610800516107605161324b565b610180516103408183039101526105c0516102e05161324b565b610180516103608183039101526121e16101805191610840516109005161324b565b0361018051a1005b905061062051013583611e7d565b81600052602060002060009361062051905b601f198416861061224c57600194955083601f19811610612232575b505050811b019055611e91565b0135600019600384901b60f8161c19169055838080612225565b91602060018192858501358155019301950194612209565b634e487b7160e01b600052604160045260246000fd5b015190508480611df8565b90601a840160005260206000209160005b601f19851681106122dd5750918391600193601a95601f198116106122c4575b505050811b01910155611e0e565b015160001960f88460031b161c191690558480806122b6565b91926020600181928685015181550194019201612296565b015190508380611d91565b9250601984016000526020600020906000935b601f1984168510612357576001945083601f1981161061233e575b505050811b016019820155611da9565b015160001960f88460031b161c1916905583808061232e565b81810151835560209485019460019093019290910190612313565b015190508380611d2d565b9250601884016000526020600020906000935b601f19841685106123d4576001945083601f198116106123bb575b505050811b016018820155611d45565b015160001960f88460031b161c191690558380806123ab565b81810151835560209485019460019093019290910190612390565b015190508380611cc9565b9250601784016000526020600020906000935b601f1984168510612451576001945083601f19811610612438575b505050811b016017820155611ce1565b015160001960f88460031b161c19169055838080612428565b8181015183556020948501946001909301929091019061240d565b015190508380611c65565b9250601684016000526020600020906000935b601f19841685106124ce576001945083601f198116106124b5575b505050811b016016820155611c7d565b015160001960f88460031b161c191690558380806124a5565b8181015183556020948501946001909301929091019061248a565b015190508380611c01565b9250601584016000526020600020906000935b601f198416851061254b576001945083601f19811610612532575b505050811b016015820155611c19565b015160001960f88460031b161c19169055838080612522565b81810151835560209485019460019093019290910190612507565b015190508380611b9d565b9250601484016000526020600020906000935b601f19841685106125c8576001945083601f198116106125af575b505050811b016014820155611bb5565b015160001960f88460031b161c1916905583808061259f565b81810151835560209485019460019093019290910190612584565b015190508380611b39565b9250601384016000526020600020906000935b601f1984168510612645576001945083601f1981161061262c575b505050811b016013820155611b51565b015160001960f88460031b161c1916905583808061261c565b81810151835560209485019460019093019290910190612601565b015190508380611ad5565b9250601284016000526020600020906000935b601f19841685106126c2576001945083601f198116106126a9575b505050811b016012820155611aed565b015160001960f88460031b161c19169055838080612699565b8181015183556020948501946001909301929091019061267e565b015190508380611a71565b9250601184016000526020600020906000935b601f198416851061273f576001945083601f19811610612726575b505050811b016011820155611a89565b015160001960f88460031b161c19169055838080612716565b818101518355602094850194600190930192909101906126fb565b015190508380611a0d565b9250601084016000526020600020906000935b601f19841685106127bc576001945083601f198116106127a3575b505050811b016010820155611a25565b015160001960f88460031b161c19169055838080612793565b81810151835560209485019460019093019290910190612778565b0151905083806119a9565b9250600f84016000526020600020906000935b601f1984168510612839576001945083601f19811610612820575b505050811b01600f8201556119c1565b015160001960f88460031b161c19169055838080612810565b818101518355602094850194600190930192909101906127f5565b015190508380611945565b9250600e84016000526020600020906000935b601f19841685106128b6576001945083601f1981161061289d575b505050811b01600e82015561195d565b015160001960f88460031b161c1916905583808061288d565b81810151835560209485019460019093019290910190612872565b0151905083806118e1565b9250600d84016000526020600020906000935b601f1984168510612933576001945083601f1981161061291a575b505050811b01600d8201556118f9565b015160001960f88460031b161c1916905583808061290a565b818101518355602094850194600190930192909101906128ef565b01519050838061187d565b9250600c84016000526020600020906000935b601f19841685106129b0576001945083601f19811610612997575b505050811b01600c820155611895565b015160001960f88460031b161c19169055838080612987565b8181015183556020948501946001909301929091019061296c565b015190508380611819565b9250600b84016000526020600020906000935b601f1984168510612a2d576001945083601f19811610612a14575b505050811b01600b820155611831565b015160001960f88460031b161c19169055838080612a04565b818101518355602094850194600190930192909101906129e9565b0151905083806117b5565b9250600a84016000526020600020906000935b601f1984168510612aaa576001945083601f19811610612a91575b505050811b01600a8201556117cd565b015160001960f88460031b161c19169055838080612a81565b81810151835560209485019460019093019290910190612a66565b015190508380611751565b9250600984016000526020600020906000935b601f1984168510612b27576001945083601f19811610612b0e575b505050811b016009820155611769565b015160001960f88460031b161c19169055838080612afe565b81810151835560209485019460019093019290910190612ae3565b0151905083806116ed565b9250600884016000526020600020906000935b601f1984168510612ba4576001945083601f19811610612b8b575b505050811b016008820155611705565b015160001960f88460031b161c19169055838080612b7b565b81810151835560209485019460019093019290910190612b60565b015190508380611689565b9250600784016000526020600020906000935b601f1984168510612c21576001945083601f19811610612c08575b505050811b0160078201556116a1565b015160001960f88460031b161c19169055838080612bf8565b81810151835560209485019460019093019290910190612bdd565b015190508380611626565b9250600684016000526020600020906000935b601f1984168510612c9e576001945083601f19811610612c85575b505050811b01600682015561163e565b015160001960f88460031b161c19169055838080612c75565b81810151835560209485019460019093019290910190612c5a565b0151905083806115c3565b9250600584016000526020600020906000935b601f1984168510612d1b576001945083601f19811610612d02575b505050811b0160058201556115db565b015160001960f88460031b161c19169055838080612cf2565b81810151835560209485019460019093019290910190612cd7565b015190508380611560565b9250600484016000526020600020906000935b601f1984168510612d98576001945083601f19811610612d7f575b505050811b016004820155611578565b015160001960f88460031b161c19169055838080612d6f565b81810151835560209485019460019093019290910190612d54565b0151905083806114fd565b9250600384016000526020600020906000935b601f1984168510612e15576001945083601f19811610612dfc575b505050811b016003820155611515565b015160001960f88460031b161c19169055838080612dec565b81810151835560209485019460019093019290910190612dd1565b01519050838061149a565b9250600284016000526020600020906000935b601f1984168510612e92576001945083601f19811610612e79575b505050811b0160028201556114b2565b015160001960f88460031b161c19169055838080612e69565b81810151835560209485019460019093019290910190612e4e565b015190508380611437565b9250600184016000526020600020906000935b601f1984168510612f0f576001945083601f19811610612ef6575b505050811b01600182015561144f565b015160001960f88460031b161c19169055838080612ee6565b81810151835560209485019460019093019290910190612ecb565b0151905083806113d7565b9250836000526020600020906000935b601f1984168510612f86576001945083601f19811610612f6d575b505050811b0181556113ec565b015160001960f88460031b161c19169055838080612f60565b81810151835560209485019460019093019290910190612f45565b62461bcd60e51b6109c090815260206109c452600b6109e4526a139bdd081cdd195dd85c9960aa1b610a0452606490fd5b9181601f8401121561054e578235916001600160401b03831161054e576020838186019501011161054e57565b6002548110156130365760026000527f405787fa12a823e0f2b7631cc41b3ba8828b3321ca811111fa75cd3aa3bb5ace0190600090565b634e487b7160e01b600052603260045260246000fd5b90600182811c9216801561307c575b602083101461306657565b634e487b7160e01b600052602260045260246000fd5b91607f169161305b565b61036081019081106001600160401b0382111761226457604052565b90601f801991011681019081106001600160401b0382111761226457604052565b90604051918260008254926130d78461304c565b9081845260019485811690816000146131465750600114613103575b5050613101925003836130a2565b565b9093915060005260209081600020936000915b81831061312e575050613101935082010138806130f3565b85548884018501529485019487945091830191613116565b91505061310194506020925060ff191682840152151560051b82010138806130f3565b60005b83811061317c5750506000910152565b818101518382015260200161316c565b906020916131a581518092818552858086019101613169565b601f01601f1916010190565b9291926001600160401b03821161226457604051916131da601f8201601f1916602001846130a2565b82948184528183011161054e578281602093846000960137010152565b90601f811161320557505050565b600091825260208220906020601f850160051c83019410613241575b601f0160051c01915b82811061323657505050565b81815560010161322a565b9092508290613221565b908060209392818452848401376000828201840152601f01601f191601019056fea264697066735822122030b624ebb36581d18cbe8ba0bbadf538ac10a45e5e8b5b892e6a76a41801cc8864736f6c63430008140033","opcodes":"PUSH1 0x80 DUP1 PUSH1 0x40 MSTORE CALLVALUE PUSH2 0x28 JUMPI PUSH1 0x0 DUP1 SLOAD PUSH1 0x1 PUSH1 0x1 PUSH1 0xA0 SHL SUB NOT AND CALLER OR SWAP1 SSTORE PUSH2 0x32A2 SWAP1 DUP2 PUSH2 0x2E DUP3 CODECOPY RETURN JUMPDEST PUSH1 0x0 DUP1 REVERT INVALID PUSH2 0x9C0 PUSH1 0x40 MSTORE PUSH1 0x4 CALLDATASIZE LT ISZERO PUSH2 0x13 JUMPI PUSH1 0x0 DUP1 REVERT JUMPDEST PUSH1 0x0 CALLDATALOAD PUSH1 0xE0 SHR DUP1 PUSH4 0xB0A124F EQ PUSH2 0xC23 JUMPI DUP1 PUSH4 0xCB6AAF1 EQ PUSH2 0xBC2 JUMPI DUP1 PUSH4 0x637EEA19 EQ PUSH2 0xB99 JUMPI DUP1 PUSH4 0x83361522 EQ PUSH2 0x571 JUMPI DUP1 PUSH4 0xC212D16B EQ PUSH2 0x553 JUMPI PUSH4 0xDBC21424 EQ PUSH2 0x5F JUMPI PUSH1 0x0 DUP1 REVERT JUMPDEST CALLVALUE PUSH2 0x54E JUMPI PUSH1 0x20 CALLDATASIZE PUSH1 0x3 NOT ADD SLT PUSH2 0x54E JUMPI PUSH1 0x4 CALLDATALOAD PUSH1 0x1 PUSH1 0x1 PUSH1 0x40 SHL SUB DUP2 GT PUSH2 0x54E JUMPI CALLDATASIZE PUSH1 0x23 DUP3 ADD SLT ISZERO PUSH2 0x54E JUMPI CALLDATASIZE DUP2 PUSH1 0x4 ADD CALLDATALOAD SWAP2 PUSH1 0x24 ADD SWAP2 PUSH2 0xA0 SWAP3 PUSH2 0x31B1 JUMP JUMPDEST PUSH1 0x40 MLOAD DUP2 DUP2 DUP1 SWAP4 MLOAD PUSH1 0x20 DUP2 SWAP4 ADD SWAP2 PUSH2 0xB7 SWAP3 PUSH2 0x3169 JUMP JUMPDEST DUP2 ADD PUSH1 0x1 DUP2 MSTORE SUB PUSH1 0x20 ADD SWAP1 KECCAK256 DUP1 PUSH2 0x680 MSTORE PUSH2 0xD1 SWAP1 PUSH2 0x30C3 JUMP JUMPDEST PUSH2 0x680 MLOAD PUSH1 0x1 ADD PUSH2 0xE1 SWAP1 PUSH2 0x30C3 JUMP JUMPDEST PUSH2 0x4C0 MSTORE PUSH2 0x680 MLOAD PUSH1 0x2 ADD PUSH2 0xF5 SWAP1 PUSH2 0x30C3 JUMP JUMPDEST PUSH2 0x340 MSTORE PUSH2 0x680 MLOAD PUSH1 0x3 ADD PUSH2 0x109 SWAP1 PUSH2 0x30C3 JUMP JUMPDEST PUSH2 0x740 MSTORE PUSH2 0x680 MLOAD PUSH1 0x4 ADD PUSH2 0x11D SWAP1 PUSH2 0x30C3 JUMP JUMPDEST PUSH2 0x680 MLOAD PUSH1 0x5 ADD PUSH2 0x12D SWAP1 PUSH2 0x30C3 JUMP JUMPDEST PUSH2 0x680 MLOAD PUSH1 0x6 ADD PUSH2 0x13D SWAP1 PUSH2 0x30C3 JUMP JUMPDEST PUSH2 0x680 MLOAD PUSH1 0x7 ADD PUSH2 0x14D SWAP1 PUSH2 0x30C3 JUMP JUMPDEST PUSH2 0x680 MLOAD PUSH1 0x8 ADD PUSH2 0x15D SWAP1 PUSH2 0x30C3 JUMP JUMPDEST PUSH2 0x680 MLOAD PUSH1 0x9 ADD PUSH2 0x16D SWAP1 PUSH2 0x30C3 JUMP JUMPDEST PUSH2 0x680 MLOAD PUSH1 0xA ADD PUSH2 0x17D SWAP1 PUSH2 0x30C3 JUMP JUMPDEST SWAP2 PUSH2 0x680 MLOAD PUSH1 0xB ADD PUSH2 0x18E SWAP1 PUSH2 0x30C3 JUMP JUMPDEST SWAP4 PUSH2 0x680 MLOAD PUSH1 0xC ADD PUSH2 0x19F SWAP1 PUSH2 0x30C3 JUMP JUMPDEST SWAP6 PUSH2 0x680 MLOAD PUSH1 0xD ADD PUSH2 0x1B0 SWAP1 PUSH2 0x30C3 JUMP JUMPDEST SWAP8 PUSH2 0x680 MLOAD PUSH1 0xE ADD PUSH2 0x1C1 SWAP1 PUSH2 0x30C3 JUMP JUMPDEST SWAP10 PUSH2 0x680 MLOAD PUSH1 0xF ADD PUSH2 0x1D2 SWAP1 PUSH2 0x30C3 JUMP JUMPDEST SWAP12 PUSH2 0x680 MLOAD PUSH1 0x10 ADD PUSH2 0x1E3 SWAP1 PUSH2 0x30C3 JUMP JUMPDEST PUSH2 0x1A0 MSTORE PUSH2 0x680 MLOAD PUSH1 0x11 ADD PUSH2 0x1F7 SWAP1 PUSH2 0x30C3 JUMP JUMPDEST PUSH2 0x5A0 MSTORE PUSH2 0x680 MLOAD PUSH1 0x12 ADD PUSH2 0x20B SWAP1 PUSH2 0x30C3 JUMP JUMPDEST PUSH2 0x2A0 MSTORE PUSH2 0x680 MLOAD PUSH1 0x13 ADD PUSH2 0x21F SWAP1 PUSH2 0x30C3 JUMP JUMPDEST PUSH1 0xA0 MSTORE PUSH2 0x680 MLOAD PUSH1 0x14 ADD PUSH2 0x232 SWAP1 PUSH2 0x30C3 JUMP JUMPDEST PUSH2 0x520 MSTORE PUSH2 0x680 MLOAD PUSH1 0x15 ADD PUSH2 0x246 SWAP1 PUSH2 0x30C3 JUMP JUMPDEST PUSH2 0x120 MSTORE PUSH2 0x680 MLOAD PUSH1 0x16 ADD PUSH2 0x25A SWAP1 PUSH2 0x30C3 JUMP JUMPDEST PUSH2 0x300 MSTORE PUSH2 0x680 MLOAD PUSH1 0x17 ADD PUSH2 0x26E SWAP1 PUSH2 0x30C3 JUMP JUMPDEST PUSH1 0xE0 MSTORE PUSH2 0x680 MLOAD PUSH1 0x18 ADD PUSH2 0x281 SWAP1 PUSH2 0x30C3 JUMP JUMPDEST PUSH2 0x5E0 MSTORE PUSH2 0x680 MLOAD PUSH1 0x19 ADD PUSH2 0x295 SWAP1 PUSH2 0x30C3 JUMP JUMPDEST PUSH2 0x7E0 MSTORE PUSH2 0x680 MLOAD PUSH1 0x1A ADD PUSH2 0x2A9 SWAP1 PUSH2 0x30C3 JUMP JUMPDEST PUSH2 0x780 MSTORE PUSH1 0x40 MLOAD DUP1 PUSH2 0x280 MSTORE PUSH2 0x360 DUP1 SWAP2 MSTORE PUSH2 0x280 MLOAD ADD PUSH2 0x2C9 SWAP2 PUSH2 0x318C JUMP JUMPDEST PUSH2 0x280 MLOAD DUP1 DUP3 SUB SWAP1 PUSH1 0x20 ADD MSTORE PUSH2 0x4C0 MLOAD SWAP1 PUSH2 0x2E3 SWAP2 PUSH2 0x318C JUMP JUMPDEST PUSH2 0x280 MLOAD DUP1 DUP3 SUB SWAP1 PUSH1 0x40 ADD MSTORE PUSH2 0x340 MLOAD SWAP1 PUSH2 0x2FD SWAP2 PUSH2 0x318C JUMP JUMPDEST PUSH2 0x280 MLOAD DUP1 DUP3 SUB SWAP1 PUSH1 0x60 ADD MSTORE PUSH2 0x740 MLOAD SWAP1 PUSH2 0x317 SWAP2 PUSH2 0x318C JUMP JUMPDEST PUSH2 0x280 MLOAD DUP1 DUP3 SUB SWAP1 PUSH1 0x80 ADD MSTORE PUSH2 0x32C SWAP2 PUSH2 0x318C JUMP JUMPDEST PUSH2 0x280 MLOAD DUP1 DUP3 SUB SWAP1 PUSH1 0xA0 ADD MSTORE PUSH2 0x341 SWAP2 PUSH2 0x318C JUMP JUMPDEST PUSH2 0x280 MLOAD DUP1 DUP3 SUB SWAP1 PUSH1 0xC0 ADD MSTORE PUSH2 0x356 SWAP2 PUSH2 0x318C JUMP JUMPDEST PUSH2 0x280 MLOAD DUP1 DUP3 SUB SWAP1 PUSH1 0xE0 ADD MSTORE PUSH2 0x36B SWAP2 PUSH2 0x318C JUMP JUMPDEST PUSH2 0x280 MLOAD DUP1 DUP3 SUB SWAP1 PUSH2 0x100 ADD MSTORE PUSH2 0x381 SWAP2 PUSH2 0x318C JUMP JUMPDEST PUSH2 0x280 MLOAD DUP1 DUP3 SUB SWAP1 PUSH2 0x120 ADD MSTORE PUSH2 0x397 SWAP2 PUSH2 0x318C JUMP JUMPDEST PUSH2 0x280 MLOAD DUP1 DUP3 SUB SWAP1 PUSH2 0x140 ADD MSTORE PUSH2 0x3AD SWAP2 PUSH2 0x318C JUMP JUMPDEST PUSH2 0x280 MLOAD DUP1 DUP3 SUB SWAP1 PUSH2 0x160 ADD MSTORE PUSH2 0x3C3 SWAP2 PUSH2 0x318C JUMP JUMPDEST PUSH2 0x280 MLOAD DUP1 DUP3 SUB SWAP1 PUSH2 0x180 ADD MSTORE PUSH2 0x3D9 SWAP2 PUSH2 0x318C JUMP JUMPDEST PUSH2 0x280 MLOAD DUP1 DUP3 SUB SWAP1 PUSH2 0x1A0 ADD MSTORE PUSH2 0x3EF SWAP2 PUSH2 0x318C JUMP JUMPDEST PUSH2 0x280 MLOAD DUP1 DUP3 SUB SWAP1 PUSH2 0x1C0 ADD MSTORE PUSH2 0x405 SWAP2 PUSH2 0x318C JUMP JUMPDEST PUSH2 0x280 MLOAD DUP1 DUP3 SUB SWAP1 PUSH2 0x1E0 ADD MSTORE PUSH2 0x41B SWAP2 PUSH2 0x318C JUMP JUMPDEST PUSH2 0x280 MLOAD DUP1 DUP3 SUB SWAP1 PUSH2 0x200 ADD MSTORE PUSH2 0x1A0 MLOAD SWAP1 PUSH2 0x436 SWAP2 PUSH2 0x318C JUMP JUMPDEST PUSH2 0x280 MLOAD DUP1 DUP3 SUB SWAP1 PUSH2 0x220 ADD MSTORE PUSH2 0x5A0 MLOAD SWAP1 PUSH2 0x451 SWAP2 PUSH2 0x318C JUMP JUMPDEST PUSH2 0x280 MLOAD DUP1 DUP3 SUB SWAP1 PUSH2 0x240 ADD MSTORE PUSH2 0x2A0 MLOAD SWAP1 PUSH2 0x46C SWAP2 PUSH2 0x318C JUMP JUMPDEST PUSH2 0x280 MLOAD DUP1 DUP3 SUB SWAP1 PUSH2 0x260 ADD MSTORE PUSH1 0xA0 MLOAD SWAP1 PUSH2 0x486 SWAP2 PUSH2 0x318C JUMP JUMPDEST PUSH2 0x280 MLOAD DUP1 DUP3 SUB SWAP1 PUSH2 0x280 ADD MSTORE PUSH2 0x520 MLOAD SWAP1 PUSH2 0x4A1 SWAP2 PUSH2 0x318C JUMP JUMPDEST PUSH2 0x280 MLOAD DUP1 DUP3 SUB SWAP1 PUSH2 0x2A0 ADD MSTORE PUSH2 0x120 MLOAD SWAP1 PUSH2 0x4BC SWAP2 PUSH2 0x318C JUMP JUMPDEST PUSH2 0x280 MLOAD DUP1 DUP3 SUB SWAP1 PUSH2 0x2C0 ADD MSTORE PUSH2 0x300 MLOAD SWAP1 PUSH2 0x4D7 SWAP2 PUSH2 0x318C JUMP JUMPDEST PUSH2 0x280 MLOAD DUP1 DUP3 SUB SWAP1 PUSH2 0x2E0 ADD MSTORE PUSH1 0xE0 MLOAD SWAP1 PUSH2 0x4F1 SWAP2 PUSH2 0x318C JUMP JUMPDEST PUSH2 0x280 MLOAD DUP1 DUP3 SUB SWAP1 PUSH2 0x300 ADD MSTORE PUSH2 0x5E0 MLOAD SWAP1 PUSH2 0x50C SWAP2 PUSH2 0x318C JUMP JUMPDEST PUSH2 0x280 MLOAD DUP1 DUP3 SUB SWAP1 PUSH2 0x320 ADD MSTORE PUSH2 0x7E0 MLOAD SWAP1 PUSH2 0x527 SWAP2 PUSH2 0x318C JUMP JUMPDEST PUSH2 0x280 MLOAD DUP1 DUP3 SUB SWAP1 PUSH2 0x340 ADD MSTORE PUSH2 0x280 MLOAD SWAP1 PUSH2 0x780 MLOAD SWAP1 PUSH2 0x547 SWAP2 PUSH2 0x318C JUMP JUMPDEST SUB PUSH2 0x280 MLOAD RETURN JUMPDEST PUSH1 0x0 DUP1 REVERT JUMPDEST CALLVALUE PUSH2 0x54E JUMPI PUSH1 0x0 CALLDATASIZE PUSH1 0x3 NOT ADD SLT PUSH2 0x54E JUMPI PUSH1 0x20 PUSH1 0x2 SLOAD PUSH1 0x40 MLOAD SWAP1 DUP2 MSTORE RETURN JUMPDEST CALLVALUE PUSH2 0x54E JUMPI PUSH1 0x20 CALLDATASIZE PUSH1 0x3 NOT ADD SLT PUSH2 0x54E JUMPI PUSH1 0x4 CALLDATALOAD PUSH1 0x1 PUSH1 0x1 PUSH1 0x40 SHL SUB DUP2 GT PUSH2 0x54E JUMPI PUSH2 0x5A1 SWAP1 CALLDATASIZE SWAP1 PUSH1 0x4 ADD PUSH2 0x2FD2 JUMP JUMPDEST SWAP1 PUSH1 0x40 MLOAD PUSH2 0x5AE DUP2 PUSH2 0x3086 JUMP JUMPDEST PUSH1 0x60 DUP2 MSTORE PUSH1 0x20 DUP2 ADD PUSH1 0x60 SWAP1 MSTORE PUSH1 0x40 DUP2 ADD PUSH1 0x60 SWAP1 MSTORE PUSH1 0x60 DUP2 ADD PUSH1 0x60 SWAP1 MSTORE PUSH1 0x80 DUP2 ADD PUSH1 0x60 SWAP1 MSTORE PUSH1 0xA0 DUP2 ADD PUSH1 0x60 SWAP1 MSTORE PUSH1 0xC0 DUP2 ADD PUSH1 0x60 SWAP1 MSTORE PUSH1 0xE0 DUP2 ADD PUSH1 0x60 SWAP1 MSTORE PUSH2 0x100 DUP2 ADD PUSH1 0x60 SWAP1 MSTORE PUSH2 0x120 DUP2 ADD PUSH1 0x60 SWAP1 MSTORE PUSH2 0x140 DUP2 ADD PUSH1 0x60 SWAP1 MSTORE PUSH2 0x160 DUP2 ADD PUSH1 0x60 SWAP1 MSTORE PUSH2 0x180 DUP2 ADD PUSH1 0x60 SWAP1 MSTORE PUSH2 0x1A0 DUP2 ADD PUSH1 0x60 SWAP1 MSTORE PUSH2 0x1C0 DUP2 ADD PUSH1 0x60 SWAP1 MSTORE PUSH2 0x1E0 DUP2 ADD PUSH1 0x60 SWAP1 MSTORE PUSH2 0x200 DUP2 ADD PUSH1 0x60 SWAP1 MSTORE PUSH2 0x220 DUP2 ADD PUSH1 0x60 SWAP1 MSTORE PUSH2 0x240 DUP2 ADD PUSH1 0x60 SWAP1 MSTORE PUSH2 0x260 DUP2 ADD PUSH1 0x60 SWAP1 MSTORE PUSH2 0x280 DUP2 ADD PUSH1 0x60 SWAP1 MSTORE PUSH2 0x2A0 DUP2 ADD PUSH1 0x60 SWAP1 MSTORE PUSH2 0x2C0 DUP2 ADD PUSH1 0x60 SWAP1 MSTORE PUSH2 0x2E0 DUP2 ADD PUSH1 0x60 SWAP1 MSTORE PUSH2 0x300 DUP2 ADD PUSH1 0x60 SWAP1 MSTORE PUSH2 0x320 DUP2 ADD PUSH1 0x60 SWAP1 MSTORE PUSH2 0x340 ADD PUSH1 0x60 SWAP1 MSTORE DUP2 PUSH1 0x40 MLOAD SWAP3 DUP4 SWAP3 DUP4 CALLDATACOPY DUP2 ADD PUSH1 0x1 DUP2 MSTORE SUB PUSH1 0x20 ADD SWAP1 KECCAK256 PUSH1 0x40 MLOAD SWAP1 PUSH2 0x6B6 DUP3 PUSH2 0x3086 JUMP JUMPDEST PUSH2 0x6BF DUP2 PUSH2 0x30C3 JUMP JUMPDEST DUP3 MSTORE PUSH2 0x6CD PUSH1 0x1 DUP3 ADD PUSH2 0x30C3 JUMP JUMPDEST PUSH1 0x20 DUP4 ADD MSTORE PUSH2 0x6DE PUSH1 0x2 DUP3 ADD PUSH2 0x30C3 JUMP JUMPDEST PUSH1 0x40 DUP4 ADD MSTORE PUSH2 0x6EF PUSH1 0x3 DUP3 ADD PUSH2 0x30C3 JUMP JUMPDEST PUSH1 0x60 DUP4 ADD MSTORE PUSH2 0x700 PUSH1 0x4 DUP3 ADD PUSH2 0x30C3 JUMP JUMPDEST PUSH1 0x80 DUP4 ADD MSTORE PUSH2 0x711 PUSH1 0x5 DUP3 ADD PUSH2 0x30C3 JUMP JUMPDEST PUSH1 0xA0 DUP4 ADD MSTORE PUSH2 0x722 PUSH1 0x6 DUP3 ADD PUSH2 0x30C3 JUMP JUMPDEST PUSH1 0xC0 DUP4 ADD MSTORE PUSH2 0x733 PUSH1 0x7 DUP3 ADD PUSH2 0x30C3 JUMP JUMPDEST PUSH1 0xE0 DUP4 ADD MSTORE PUSH2 0x744 PUSH1 0x8 DUP3 ADD PUSH2 0x30C3 JUMP JUMPDEST PUSH2 0x100 DUP4 ADD MSTORE PUSH2 0x756 PUSH1 0x9 DUP3 ADD PUSH2 0x30C3 JUMP JUMPDEST PUSH2 0x120 DUP4 ADD MSTORE PUSH2 0x768 PUSH1 0xA DUP3 ADD PUSH2 0x30C3 JUMP JUMPDEST PUSH2 0x140 DUP4 ADD MSTORE PUSH2 0x77A PUSH1 0xB DUP3 ADD PUSH2 0x30C3 JUMP JUMPDEST PUSH2 0x160 DUP4 ADD MSTORE PUSH2 0x78C PUSH1 0xC DUP3 ADD PUSH2 0x30C3 JUMP JUMPDEST PUSH2 0x180 DUP4 ADD MSTORE PUSH2 0x79E PUSH1 0xD DUP3 ADD PUSH2 0x30C3 JUMP JUMPDEST PUSH2 0x1A0 DUP4 ADD MSTORE PUSH2 0x7B0 PUSH1 0xE DUP3 ADD PUSH2 0x30C3 JUMP JUMPDEST PUSH2 0x1C0 DUP4 ADD MSTORE PUSH2 0x7C2 PUSH1 0xF DUP3 ADD PUSH2 0x30C3 JUMP JUMPDEST PUSH2 0x1E0 DUP4 ADD MSTORE PUSH2 0x7D4 PUSH1 0x10 DUP3 ADD PUSH2 0x30C3 JUMP JUMPDEST PUSH2 0x200 DUP4 ADD MSTORE PUSH2 0x7E6 PUSH1 0x11 DUP3 ADD PUSH2 0x30C3 JUMP JUMPDEST PUSH2 0x220 DUP4 ADD MSTORE PUSH2 0x7F8 PUSH1 0x12 DUP3 ADD PUSH2 0x30C3 JUMP JUMPDEST PUSH2 0x240 DUP4 ADD MSTORE PUSH2 0x80A PUSH1 0x13 DUP3 ADD PUSH2 0x30C3 JUMP JUMPDEST PUSH2 0x260 DUP4 ADD MSTORE PUSH2 0x81C PUSH1 0x14 DUP3 ADD PUSH2 0x30C3 JUMP JUMPDEST PUSH2 0x280 DUP4 ADD MSTORE PUSH2 0x82E PUSH1 0x15 DUP3 ADD PUSH2 0x30C3 JUMP JUMPDEST PUSH2 0x2A0 DUP4 ADD MSTORE PUSH2 0x840 PUSH1 0x16 DUP3 ADD PUSH2 0x30C3 JUMP JUMPDEST PUSH2 0x2C0 DUP4 ADD MSTORE PUSH2 0x852 PUSH1 0x17 DUP3 ADD PUSH2 0x30C3 JUMP JUMPDEST PUSH2 0x2E0 DUP4 ADD MSTORE PUSH2 0x864 PUSH1 0x18 DUP3 ADD PUSH2 0x30C3 JUMP JUMPDEST PUSH2 0x300 DUP4 ADD MSTORE PUSH2 0x876 PUSH1 0x19 DUP3 ADD PUSH2 0x30C3 JUMP JUMPDEST PUSH2 0x320 DUP4 ADD MSTORE PUSH1 0x1A ADD PUSH2 0x888 SWAP1 PUSH2 0x30C3 JUMP JUMPDEST PUSH2 0x340 DUP3 ADD MSTORE PUSH1 0x40 MLOAD DUP1 SWAP2 PUSH1 0x20 DUP3 MSTORE DUP1 MLOAD PUSH1 0x20 DUP4 ADD PUSH2 0x360 SWAP1 MSTORE PUSH2 0x380 DUP4 ADD PUSH2 0x8B0 SWAP2 PUSH2 0x318C JUMP JUMPDEST PUSH1 0x20 DUP3 ADD MLOAD DUP4 DUP3 SUB PUSH1 0x1F NOT ADD PUSH1 0x40 DUP6 ADD MSTORE PUSH2 0x8CB SWAP2 SWAP1 PUSH2 0x318C JUMP JUMPDEST PUSH1 0x40 DUP3 ADD MLOAD DUP4 DUP3 SUB PUSH1 0x1F NOT ADD PUSH1 0x60 DUP6 ADD MSTORE PUSH2 0x8E6 SWAP2 SWAP1 PUSH2 0x318C JUMP JUMPDEST PUSH1 0x60 DUP3 ADD MLOAD DUP4 DUP3 SUB PUSH1 0x1F NOT ADD PUSH1 0x80 DUP6 ADD MSTORE PUSH2 0x901 SWAP2 SWAP1 PUSH2 0x318C JUMP JUMPDEST PUSH1 0x80 DUP3 ADD MLOAD DUP4 DUP3 SUB PUSH1 0x1F NOT ADD PUSH1 0xA0 DUP6 ADD MSTORE PUSH2 0x91C SWAP2 SWAP1 PUSH2 0x318C JUMP JUMPDEST PUSH1 0xA0 DUP3 ADD MLOAD DUP4 DUP3 SUB PUSH1 0x1F NOT ADD PUSH1 0xC0 DUP6 ADD MSTORE PUSH2 0x937 SWAP2 SWAP1 PUSH2 0x318C JUMP JUMPDEST PUSH1 0xC0 DUP3 ADD MLOAD DUP4 DUP3 SUB PUSH1 0x1F NOT ADD PUSH1 0xE0 DUP6 ADD MSTORE PUSH2 0x952 SWAP2 SWAP1 PUSH2 0x318C JUMP JUMPDEST PUSH1 0xE0 DUP3 ADD MLOAD DUP4 DUP3 SUB PUSH1 0x1F NOT ADD PUSH2 0x100 DUP6 ADD MSTORE PUSH2 0x96E SWAP2 SWAP1 PUSH2 0x318C JUMP JUMPDEST PUSH2 0x100 DUP3 ADD MLOAD DUP4 DUP3 SUB PUSH1 0x1F NOT ADD PUSH2 0x120 DUP6 ADD MSTORE PUSH2 0x98B SWAP2 SWAP1 PUSH2 0x318C JUMP JUMPDEST PUSH2 0x120 DUP3 ADD MLOAD DUP4 DUP3 SUB PUSH1 0x1F NOT ADD PUSH2 0x140 DUP6 ADD MSTORE PUSH2 0x9A8 SWAP2 SWAP1 PUSH2 0x318C JUMP JUMPDEST PUSH2 0x140 DUP3 ADD MLOAD DUP4 DUP3 SUB PUSH1 0x1F NOT ADD PUSH2 0x160 DUP6 ADD MSTORE PUSH2 0x9C5 SWAP2 SWAP1 PUSH2 0x318C JUMP JUMPDEST PUSH2 0x160 DUP3 ADD MLOAD DUP4 DUP3 SUB PUSH1 0x1F NOT ADD PUSH2 0x180 DUP6 ADD MSTORE PUSH2 0x9E2 SWAP2 SWAP1 PUSH2 0x318C JUMP JUMPDEST PUSH2 0x180 DUP3 ADD MLOAD DUP4 DUP3 SUB PUSH1 0x1F NOT ADD PUSH2 0x1A0 DUP6 ADD MSTORE PUSH2 0x9FF SWAP2 SWAP1 PUSH2 0x318C JUMP JUMPDEST PUSH2 0x1A0 DUP3 ADD MLOAD DUP4 DUP3 SUB PUSH1 0x1F NOT ADD PUSH2 0x1C0 DUP6 ADD MSTORE PUSH2 0xA1C SWAP2 SWAP1 PUSH2 0x318C JUMP JUMPDEST PUSH2 0x1C0 DUP3 ADD MLOAD DUP4 DUP3 SUB PUSH1 0x1F NOT ADD PUSH2 0x1E0 DUP6 ADD MSTORE PUSH2 0xA39 SWAP2 SWAP1 PUSH2 0x318C JUMP JUMPDEST PUSH2 0x1E0 DUP3 ADD MLOAD DUP4 DUP3 SUB PUSH1 0x1F NOT ADD PUSH2 0x200 DUP6 ADD MSTORE PUSH2 0xA56 SWAP2 SWAP1 PUSH2 0x318C JUMP JUMPDEST PUSH2 0x200 DUP3 ADD MLOAD DUP4 DUP3 SUB PUSH1 0x1F NOT ADD PUSH2 0x220 DUP6 ADD MSTORE PUSH2 0xA73 SWAP2 SWAP1 PUSH2 0x318C JUMP JUMPDEST PUSH2 0x220 DUP3 ADD MLOAD DUP4 DUP3 SUB PUSH1 0x1F NOT ADD PUSH2 0x240 DUP6 ADD MSTORE PUSH2 0xA90 SWAP2 SWAP1 PUSH2 0x318C JUMP JUMPDEST PUSH2 0x240 DUP3 ADD MLOAD DUP4 DUP3 SUB PUSH1 0x1F NOT ADD PUSH2 0x260 DUP6 ADD MSTORE PUSH2 0xAAD SWAP2 SWAP1 PUSH2 0x318C JUMP JUMPDEST PUSH2 0x260 DUP3 ADD MLOAD DUP4 DUP3 SUB PUSH1 0x1F NOT ADD PUSH2 0x280 DUP6 ADD MSTORE PUSH2 0xACA SWAP2 SWAP1 PUSH2 0x318C JUMP JUMPDEST PUSH2 0x280 DUP3 ADD MLOAD DUP4 DUP3 SUB PUSH1 0x1F NOT ADD PUSH2 0x2A0 DUP6 ADD MSTORE PUSH2 0xAE7 SWAP2 SWAP1 PUSH2 0x318C JUMP JUMPDEST PUSH2 0x2A0 DUP3 ADD MLOAD DUP4 DUP3 SUB PUSH1 0x1F NOT ADD PUSH2 0x2C0 DUP6 ADD MSTORE PUSH2 0xB04 SWAP2 SWAP1 PUSH2 0x318C JUMP JUMPDEST PUSH2 0x2C0 DUP3 ADD MLOAD DUP4 DUP3 SUB PUSH1 0x1F NOT ADD PUSH2 0x2E0 DUP6 ADD MSTORE PUSH2 0xB21 SWAP2 SWAP1 PUSH2 0x318C JUMP JUMPDEST PUSH2 0x2E0 DUP3 ADD MLOAD DUP4 DUP3 SUB PUSH1 0x1F NOT ADD PUSH2 0x300 DUP6 ADD MSTORE PUSH2 0xB3E SWAP2 SWAP1 PUSH2 0x318C JUMP JUMPDEST PUSH2 0x300 DUP3 ADD MLOAD DUP4 DUP3 SUB PUSH1 0x1F NOT ADD PUSH2 0x320 DUP6 ADD MSTORE PUSH2 0xB5B SWAP2 SWAP1 PUSH2 0x318C JUMP JUMPDEST PUSH2 0x320 DUP3 ADD MLOAD DUP4 DUP3 SUB PUSH1 0x1F NOT ADD PUSH2 0x340 DUP6 ADD MSTORE PUSH2 0xB78 SWAP2 SWAP1 PUSH2 0x318C JUMP JUMPDEST SWAP1 PUSH2 0x340 ADD MLOAD SWAP1 PUSH1 0x1F NOT DUP4 DUP3 SUB ADD PUSH2 0x360 DUP5 ADD MSTORE PUSH2 0xB95 SWAP2 PUSH2 0x318C JUMP JUMPDEST SUB SWAP1 RETURN JUMPDEST CALLVALUE PUSH2 0x54E JUMPI PUSH1 0x0 CALLDATASIZE PUSH1 0x3 NOT ADD SLT PUSH2 0x54E JUMPI PUSH1 0x0 SLOAD PUSH1 0x40 MLOAD PUSH1 0x1 PUSH1 0x1 PUSH1 0xA0 SHL SUB SWAP1 SWAP2 AND DUP2 MSTORE PUSH1 0x20 SWAP1 RETURN JUMPDEST CALLVALUE PUSH2 0x54E JUMPI PUSH1 0x20 CALLDATASIZE PUSH1 0x3 NOT ADD SLT PUSH2 0x54E JUMPI PUSH1 0x4 CALLDATALOAD PUSH1 0x2 SLOAD DUP2 LT ISZERO PUSH2 0x54E JUMPI PUSH2 0xBE9 SWAP1 PUSH2 0x2FFF JUMP JUMPDEST PUSH2 0xC0D JUMPI PUSH2 0xBF9 PUSH2 0xB95 SWAP2 PUSH2 0x30C3 JUMP JUMPDEST PUSH1 0x40 MLOAD SWAP2 DUP3 SWAP2 PUSH1 0x20 DUP4 MSTORE PUSH1 0x20 DUP4 ADD SWAP1 PUSH2 0x318C JUMP JUMPDEST PUSH4 0x4E487B71 PUSH1 0xE0 SHL PUSH1 0x0 MSTORE PUSH1 0x0 PUSH1 0x4 MSTORE PUSH1 0x24 PUSH1 0x0 REVERT JUMPDEST CALLVALUE PUSH2 0x54E JUMPI PUSH2 0x380 CALLDATASIZE PUSH1 0x3 NOT ADD SLT PUSH2 0x54E JUMPI PUSH1 0x4 CALLDATALOAD PUSH1 0x1 PUSH1 0x1 PUSH1 0x40 SHL SUB DUP2 GT PUSH2 0x54E JUMPI PUSH2 0xC54 SWAP1 CALLDATASIZE SWAP1 PUSH1 0x4 ADD PUSH2 0x2FD2 JUMP JUMPDEST PUSH2 0x380 MSTORE PUSH2 0x620 MSTORE PUSH1 0x24 CALLDATALOAD PUSH1 0x1 PUSH1 0x1 PUSH1 0x40 SHL SUB DUP2 GT PUSH2 0x54E JUMPI PUSH2 0xC7B SWAP1 CALLDATASIZE SWAP1 PUSH1 0x4 ADD PUSH2 0x2FD2 JUMP JUMPDEST PUSH2 0x820 MSTORE PUSH2 0x7A0 MSTORE PUSH1 0x44 CALLDATALOAD PUSH1 0x1 PUSH1 0x1 PUSH1 0x40 SHL SUB DUP2 GT PUSH2 0x54E JUMPI PUSH2 0xCA2 SWAP1 CALLDATASIZE SWAP1 PUSH1 0x4 ADD PUSH2 0x2FD2 JUMP JUMPDEST PUSH2 0x440 MSTORE PUSH2 0x3E0 MSTORE PUSH1 0x64 CALLDATALOAD PUSH1 0x1 PUSH1 0x1 PUSH1 0x40 SHL SUB DUP2 GT PUSH2 0x54E JUMPI PUSH2 0xCC9 SWAP1 CALLDATASIZE SWAP1 PUSH1 0x4 ADD PUSH2 0x2FD2 JUMP JUMPDEST PUSH2 0x9A0 MSTORE PUSH2 0x560 MSTORE PUSH1 0x1 PUSH1 0x1 PUSH1 0x40 SHL SUB PUSH1 0x84 CALLDATALOAD GT PUSH2 0x54E JUMPI PUSH2 0xCF0 CALLDATASIZE PUSH1 0x84 CALLDATALOAD PUSH1 0x4 ADD PUSH2 0x2FD2 JUMP JUMPDEST PUSH2 0x920 MSTORE PUSH2 0x8A0 MSTORE PUSH1 0x1 PUSH1 0x1 PUSH1 0x40 SHL SUB PUSH1 0xA4 CALLDATALOAD GT PUSH2 0x54E JUMPI PUSH2 0xD17 CALLDATASIZE PUSH1 0xA4 CALLDATALOAD PUSH1 0x4 ADD PUSH2 0x2FD2 JUMP JUMPDEST PUSH2 0x8C0 MSTORE PUSH2 0x360 MSTORE PUSH1 0x1 PUSH1 0x1 PUSH1 0x40 SHL SUB PUSH1 0xC4 CALLDATALOAD GT PUSH2 0x54E JUMPI PUSH2 0xD3E CALLDATASIZE PUSH1 0xC4 CALLDATALOAD PUSH1 0x4 ADD PUSH2 0x2FD2 JUMP JUMPDEST PUSH2 0x980 MSTORE PUSH2 0x6E0 MSTORE PUSH1 0x1 PUSH1 0x1 PUSH1 0x40 SHL SUB PUSH1 0xE4 CALLDATALOAD GT PUSH2 0x54E JUMPI PUSH2 0xD65 CALLDATASIZE PUSH1 0xE4 CALLDATALOAD PUSH1 0x4 ADD PUSH2 0x2FD2 JUMP JUMPDEST PUSH2 0x6C0 MSTORE PUSH2 0x660 MSTORE PUSH1 0x1 PUSH1 0x1 PUSH1 0x40 SHL SUB PUSH2 0x104 CALLDATALOAD GT PUSH2 0x54E JUMPI PUSH2 0xD8E CALLDATASIZE PUSH2 0x104 CALLDATALOAD PUSH1 0x4 ADD PUSH2 0x2FD2 JUMP JUMPDEST PUSH2 0x500 MSTORE PUSH2 0x320 MSTORE PUSH1 0x1 PUSH1 0x1 PUSH1 0x40 SHL SUB PUSH2 0x124 CALLDATALOAD GT PUSH2 0x54E JUMPI PUSH2 0xDB7 CALLDATASIZE PUSH2 0x124 CALLDATALOAD PUSH1 0x4 ADD PUSH2 0x2FD2 JUMP JUMPDEST PUSH2 0x960 MSTORE PUSH2 0x400 MSTORE PUSH1 0x1 PUSH1 0x1 PUSH1 0x40 SHL SUB PUSH2 0x144 CALLDATALOAD GT PUSH2 0x54E JUMPI PUSH2 0xDE0 CALLDATASIZE PUSH2 0x144 CALLDATALOAD PUSH1 0x4 ADD PUSH2 0x2FD2 JUMP JUMPDEST PUSH2 0x640 MSTORE PUSH2 0x700 MSTORE PUSH1 0x1 PUSH1 0x1 PUSH1 0x40 SHL SUB PUSH2 0x164 CALLDATALOAD GT PUSH2 0x54E JUMPI PUSH2 0xE09 CALLDATASIZE PUSH2 0x164 CALLDATALOAD PUSH1 0x4 ADD PUSH2 0x2FD2 JUMP JUMPDEST PUSH2 0x940 MSTORE PUSH2 0x1E0 MSTORE PUSH1 0x1 PUSH1 0x1 PUSH1 0x40 SHL SUB PUSH2 0x184 CALLDATALOAD GT PUSH2 0x54E JUMPI PUSH2 0xE32 CALLDATASIZE PUSH2 0x184 CALLDATALOAD PUSH1 0x4 ADD PUSH2 0x2FD2 JUMP JUMPDEST PUSH2 0x260 MSTORE PUSH2 0x580 MSTORE PUSH1 0x1 PUSH1 0x1 PUSH1 0x40 SHL SUB PUSH2 0x1A4 CALLDATALOAD GT PUSH2 0x54E JUMPI PUSH2 0xE5B CALLDATASIZE PUSH2 0x1A4 CALLDATALOAD PUSH1 0x4 ADD PUSH2 0x2FD2 JUMP JUMPDEST PUSH2 0x7C0 MSTORE PUSH1 0xC0 MSTORE PUSH1 0x1 PUSH1 0x1 PUSH1 0x40 SHL SUB PUSH2 0x1C4 CALLDATALOAD GT PUSH2 0x54E JUMPI PUSH2 0xE83 CALLDATASIZE PUSH2 0x1C4 CALLDATALOAD PUSH1 0x4 ADD PUSH2 0x2FD2 JUMP JUMPDEST PUSH2 0x220 MSTORE PUSH2 0x240 MSTORE PUSH1 0x1 PUSH1 0x1 PUSH1 0x40 SHL SUB PUSH2 0x1E4 CALLDATALOAD GT PUSH2 0x54E JUMPI PUSH2 0xEAC CALLDATASIZE PUSH2 0x1E4 CALLDATALOAD PUSH1 0x4 ADD PUSH2 0x2FD2 JUMP JUMPDEST PUSH2 0x8E0 MSTORE PUSH2 0x720 MSTORE PUSH1 0x1 PUSH1 0x1 PUSH1 0x40 SHL SUB PUSH2 0x204 CALLDATALOAD GT PUSH2 0x54E JUMPI PUSH2 0xED5 CALLDATASIZE PUSH2 0x204 CALLDATALOAD PUSH1 0x4 ADD PUSH2 0x2FD2 JUMP JUMPDEST PUSH2 0x1C0 MSTORE PUSH2 0x460 MSTORE PUSH1 0x1 PUSH1 0x1 PUSH1 0x40 SHL SUB PUSH2 0x224 CALLDATALOAD GT PUSH2 0x54E JUMPI PUSH2 0xEFE CALLDATASIZE PUSH2 0x224 CALLDATALOAD PUSH1 0x4 ADD PUSH2 0x2FD2 JUMP JUMPDEST PUSH2 0x4E0 MSTORE PUSH2 0x480 MSTORE PUSH1 0x1 PUSH1 0x1 PUSH1 0x40 SHL SUB PUSH2 0x244 CALLDATALOAD GT PUSH2 0x54E JUMPI PUSH2 0xF27 CALLDATASIZE PUSH2 0x244 CALLDATALOAD PUSH1 0x4 ADD PUSH2 0x2FD2 JUMP JUMPDEST PUSH2 0x140 MSTORE PUSH2 0x3C0 MSTORE PUSH1 0x1 PUSH1 0x1 PUSH1 0x40 SHL SUB PUSH2 0x264 CALLDATALOAD GT PUSH2 0x54E JUMPI PUSH2 0xF50 CALLDATASIZE PUSH2 0x264 CALLDATALOAD PUSH1 0x4 ADD PUSH2 0x2FD2 JUMP JUMPDEST PUSH2 0x2C0 MSTORE PUSH2 0x540 MSTORE PUSH1 0x1 PUSH1 0x1 PUSH1 0x40 SHL SUB PUSH2 0x284 CALLDATALOAD GT PUSH2 0x54E JUMPI PUSH2 0xF79 CALLDATASIZE PUSH2 0x284 CALLDATALOAD PUSH1 0x4 ADD PUSH2 0x2FD2 JUMP JUMPDEST PUSH2 0x4A0 MSTORE PUSH2 0x600 MSTORE PUSH1 0x1 PUSH1 0x1 PUSH1 0x40 SHL SUB PUSH2 0x2A4 CALLDATALOAD GT PUSH2 0x54E JUMPI PUSH2 0xFA2 CALLDATASIZE PUSH2 0x2A4 CALLDATALOAD PUSH1 0x4 ADD PUSH2 0x2FD2 JUMP JUMPDEST PUSH2 0x880 MSTORE PUSH2 0x860 MSTORE PUSH1 0x1 PUSH1 0x1 PUSH1 0x40 SHL SUB PUSH2 0x2C4 CALLDATALOAD GT PUSH2 0x54E JUMPI PUSH2 0xFCB CALLDATASIZE PUSH2 0x2C4 CALLDATALOAD PUSH1 0x4 ADD PUSH2 0x2FD2 JUMP JUMPDEST PUSH2 0x200 MSTORE PUSH2 0x6A0 MSTORE PUSH1 0x1 PUSH1 0x1 PUSH1 0x40 SHL SUB PUSH2 0x2E4 CALLDATALOAD GT PUSH2 0x54E JUMPI PUSH2 0xFF4 CALLDATASIZE PUSH2 0x2E4 CALLDATALOAD PUSH1 0x4 ADD PUSH2 0x2FD2 JUMP JUMPDEST PUSH2 0x100 MSTORE PUSH2 0x160 MSTORE PUSH1 0x1 PUSH1 0x1 PUSH1 0x40 SHL SUB PUSH2 0x304 CALLDATALOAD GT PUSH2 0x54E JUMPI PUSH2 0x101D CALLDATASIZE PUSH2 0x304 CALLDATALOAD PUSH1 0x4 ADD PUSH2 0x2FD2 JUMP JUMPDEST PUSH1 0x80 MSTORE PUSH2 0x3A0 MSTORE PUSH1 0x1 PUSH1 0x1 PUSH1 0x40 SHL SUB PUSH2 0x324 CALLDATALOAD GT PUSH2 0x54E JUMPI PUSH2 0x1045 CALLDATASIZE PUSH2 0x324 CALLDATALOAD PUSH1 0x4 ADD PUSH2 0x2FD2 JUMP JUMPDEST PUSH2 0x800 MSTORE PUSH2 0x760 MSTORE PUSH1 0x1 PUSH1 0x1 PUSH1 0x40 SHL SUB PUSH2 0x344 CALLDATALOAD GT PUSH2 0x54E JUMPI PUSH2 0x106E CALLDATASIZE PUSH2 0x344 CALLDATALOAD PUSH1 0x4 ADD PUSH2 0x2FD2 JUMP JUMPDEST PUSH2 0x5C0 MSTORE PUSH2 0x2E0 MSTORE PUSH1 0x1 PUSH1 0x1 PUSH1 0x40 SHL SUB PUSH2 0x364 CALLDATALOAD GT PUSH2 0x54E JUMPI PUSH2 0x1097 CALLDATASIZE PUSH2 0x364 CALLDATALOAD PUSH1 0x4 ADD PUSH2 0x2FD2 JUMP JUMPDEST PUSH2 0x840 MSTORE PUSH2 0x900 MSTORE PUSH1 0x0 SLOAD PUSH1 0x1 PUSH1 0x1 PUSH1 0xA0 SHL SUB AND CALLER SUB PUSH2 0x2FA1 JUMPI PUSH2 0x10C1 PUSH1 0x40 MLOAD DUP1 PUSH2 0x420 MSTORE PUSH2 0x3086 JUMP JUMPDEST PUSH2 0x10D2 CALLDATASIZE PUSH2 0x820 MLOAD PUSH2 0x7A0 MLOAD PUSH2 0x31B1 JUMP JUMPDEST PUSH2 0x420 MLOAD MSTORE PUSH2 0x10E8 CALLDATASIZE PUSH2 0x440 MLOAD PUSH2 0x3E0 MLOAD PUSH2 0x31B1 JUMP JUMPDEST PUSH1 0x20 PUSH2 0x420 MLOAD ADD MSTORE PUSH2 0x1101 CALLDATASIZE PUSH2 0x9A0 MLOAD PUSH2 0x560 MLOAD PUSH2 0x31B1 JUMP JUMPDEST PUSH1 0x40 PUSH2 0x420 MLOAD ADD MSTORE PUSH2 0x111A CALLDATASIZE PUSH2 0x920 MLOAD PUSH2 0x8A0 MLOAD PUSH2 0x31B1 JUMP JUMPDEST PUSH1 0x60 PUSH2 0x420 MLOAD ADD MSTORE PUSH2 0x1133 CALLDATASIZE PUSH2 0x8C0 MLOAD PUSH2 0x360 MLOAD PUSH2 0x31B1 JUMP JUMPDEST PUSH1 0x80 PUSH2 0x420 MLOAD ADD MSTORE PUSH2 0x114C CALLDATASIZE PUSH2 0x980 MLOAD PUSH2 0x6E0 MLOAD PUSH2 0x31B1 JUMP JUMPDEST PUSH1 0xA0 PUSH2 0x420 MLOAD ADD MSTORE PUSH2 0x1165 CALLDATASIZE PUSH2 0x6C0 MLOAD PUSH2 0x660 MLOAD PUSH2 0x31B1 JUMP JUMPDEST PUSH1 0xC0 PUSH2 0x420 MLOAD ADD MSTORE PUSH2 0x117E CALLDATASIZE PUSH2 0x500 MLOAD PUSH2 0x320 MLOAD PUSH2 0x31B1 JUMP JUMPDEST PUSH1 0xE0 PUSH2 0x420 MLOAD ADD MSTORE PUSH2 0x1197 CALLDATASIZE PUSH2 0x960 MLOAD PUSH2 0x400 MLOAD PUSH2 0x31B1 JUMP JUMPDEST PUSH2 0x100 PUSH2 0x420 MLOAD ADD MSTORE PUSH2 0x11B1 CALLDATASIZE PUSH2 0x640 MLOAD PUSH2 0x700 MLOAD PUSH2 0x31B1 JUMP JUMPDEST PUSH2 0x120 PUSH2 0x420 MLOAD ADD MSTORE PUSH2 0x11CB CALLDATASIZE PUSH2 0x940 MLOAD PUSH2 0x1E0 MLOAD PUSH2 0x31B1 JUMP JUMPDEST PUSH2 0x140 PUSH2 0x420 MLOAD ADD MSTORE PUSH2 0x11E5 CALLDATASIZE PUSH2 0x260 MLOAD PUSH2 0x580 MLOAD PUSH2 0x31B1 JUMP JUMPDEST PUSH2 0x160 PUSH2 0x420 MLOAD ADD MSTORE PUSH2 0x11FE CALLDATASIZE PUSH2 0x7C0 MLOAD PUSH1 0xC0 MLOAD PUSH2 0x31B1 JUMP JUMPDEST PUSH2 0x180 PUSH2 0x420 MLOAD ADD MSTORE PUSH2 0x1218 CALLDATASIZE PUSH2 0x220 MLOAD PUSH2 0x240 MLOAD PUSH2 0x31B1 JUMP JUMPDEST PUSH2 0x1A0 PUSH2 0x420 MLOAD ADD MSTORE PUSH2 0x1232 CALLDATASIZE PUSH2 0x8E0 MLOAD PUSH2 0x720 MLOAD PUSH2 0x31B1 JUMP JUMPDEST PUSH2 0x1C0 PUSH2 0x420 MLOAD ADD MSTORE PUSH2 0x124C CALLDATASIZE PUSH2 0x1C0 MLOAD PUSH2 0x460 MLOAD PUSH2 0x31B1 JUMP JUMPDEST PUSH2 0x1E0 PUSH2 0x420 MLOAD ADD MSTORE PUSH2 0x1266 CALLDATASIZE PUSH2 0x4E0 MLOAD PUSH2 0x480 MLOAD PUSH2 0x31B1 JUMP JUMPDEST PUSH2 0x200 PUSH2 0x420 MLOAD ADD MSTORE PUSH2 0x1280 CALLDATASIZE PUSH2 0x140 MLOAD PUSH2 0x3C0 MLOAD PUSH2 0x31B1 JUMP JUMPDEST PUSH2 0x220 PUSH2 0x420 MLOAD ADD MSTORE PUSH2 0x129A CALLDATASIZE PUSH2 0x2C0 MLOAD PUSH2 0x540 MLOAD PUSH2 0x31B1 JUMP JUMPDEST PUSH2 0x240 PUSH2 0x420 MLOAD ADD MSTORE PUSH2 0x12B4 CALLDATASIZE PUSH2 0x4A0 MLOAD PUSH2 0x600 MLOAD PUSH2 0x31B1 JUMP JUMPDEST PUSH2 0x260 PUSH2 0x420 MLOAD ADD MSTORE PUSH2 0x12CE CALLDATASIZE PUSH2 0x880 MLOAD PUSH2 0x860 MLOAD PUSH2 0x31B1 JUMP JUMPDEST PUSH2 0x280 PUSH2 0x420 MLOAD ADD MSTORE PUSH2 0x12E8 CALLDATASIZE PUSH2 0x200 MLOAD PUSH2 0x6A0 MLOAD PUSH2 0x31B1 JUMP JUMPDEST PUSH2 0x2A0 PUSH2 0x420 MLOAD ADD MSTORE PUSH2 0x1302 CALLDATASIZE PUSH2 0x100 MLOAD PUSH2 0x160 MLOAD PUSH2 0x31B1 JUMP JUMPDEST PUSH2 0x2C0 PUSH2 0x420 MLOAD ADD MSTORE PUSH2 0x131B CALLDATASIZE PUSH1 0x80 MLOAD PUSH2 0x3A0 MLOAD PUSH2 0x31B1 JUMP JUMPDEST PUSH2 0x2E0 PUSH2 0x420 MLOAD ADD MSTORE PUSH2 0x1335 CALLDATASIZE PUSH2 0x800 MLOAD PUSH2 0x760 MLOAD PUSH2 0x31B1 JUMP JUMPDEST PUSH2 0x300 PUSH2 0x420 MLOAD ADD MSTORE PUSH2 0x134F CALLDATASIZE PUSH2 0x5C0 MLOAD PUSH2 0x2E0 MLOAD PUSH2 0x31B1 JUMP JUMPDEST PUSH2 0x320 PUSH2 0x420 MLOAD ADD MSTORE PUSH2 0x1369 CALLDATASIZE PUSH2 0x840 MLOAD PUSH2 0x900 MLOAD PUSH2 0x31B1 JUMP JUMPDEST PUSH2 0x340 PUSH2 0x420 MLOAD ADD MSTORE PUSH1 0x40 MLOAD PUSH2 0x380 MLOAD PUSH2 0x620 MLOAD DUP3 CALLDATACOPY PUSH1 0x1 PUSH2 0x380 MLOAD DUP3 ADD MSTORE PUSH1 0x20 DUP2 PUSH2 0x380 MLOAD DUP2 ADD SUB ADD SWAP1 KECCAK256 PUSH2 0x420 MLOAD MLOAD DUP1 MLOAD SWAP1 PUSH1 0x1 PUSH1 0x1 PUSH1 0x40 SHL SUB DUP3 GT PUSH2 0x2264 JUMPI DUP2 SWAP1 PUSH2 0x13C1 DUP3 PUSH2 0x13BB DUP7 SLOAD PUSH2 0x304C JUMP JUMPDEST DUP7 PUSH2 0x31F7 JUMP JUMPDEST PUSH1 0x20 SWAP1 PUSH1 0x1F DUP4 GT PUSH1 0x1 EQ PUSH2 0x2F35 JUMPI PUSH1 0x0 SWAP3 PUSH2 0x2F2A JUMPI JUMPDEST POP POP DUP2 PUSH1 0x1 SHL SWAP2 PUSH1 0x0 NOT SWAP1 PUSH1 0x3 SHL SHR NOT AND OR DUP2 SSTORE JUMPDEST PUSH1 0x20 PUSH2 0x420 MLOAD ADD MLOAD DUP1 MLOAD SWAP1 PUSH1 0x1 PUSH1 0x1 PUSH1 0x40 SHL SUB DUP3 GT PUSH2 0x2264 JUMPI DUP2 SWAP1 PUSH2 0x1421 DUP3 PUSH2 0x1418 PUSH1 0x1 DUP8 ADD SLOAD PUSH2 0x304C JUMP JUMPDEST PUSH1 0x1 DUP8 ADD PUSH2 0x31F7 JUMP JUMPDEST PUSH1 0x20 SWAP1 PUSH1 0x1F DUP4 GT PUSH1 0x1 EQ PUSH2 0x2EB8 JUMPI PUSH1 0x0 SWAP3 PUSH2 0x2EAD JUMPI JUMPDEST POP POP DUP2 PUSH1 0x1 SHL SWAP2 PUSH1 0x0 NOT SWAP1 PUSH1 0x3 SHL SHR NOT AND OR PUSH1 0x1 DUP3 ADD SSTORE JUMPDEST PUSH1 0x40 PUSH2 0x420 MLOAD ADD MLOAD DUP1 MLOAD SWAP1 PUSH1 0x1 PUSH1 0x1 PUSH1 0x40 SHL SUB DUP3 GT PUSH2 0x2264 JUMPI DUP2 SWAP1 PUSH2 0x1484 DUP3 PUSH2 0x147B PUSH1 0x2 DUP8 ADD SLOAD PUSH2 0x304C JUMP JUMPDEST PUSH1 0x2 DUP8 ADD PUSH2 0x31F7 JUMP JUMPDEST PUSH1 0x20 SWAP1 PUSH1 0x1F DUP4 GT PUSH1 0x1 EQ PUSH2 0x2E3B JUMPI PUSH1 0x0 SWAP3 PUSH2 0x2E30 JUMPI JUMPDEST POP POP DUP2 PUSH1 0x1 SHL SWAP2 PUSH1 0x0 NOT SWAP1 PUSH1 0x3 SHL SHR NOT AND OR PUSH1 0x2 DUP3 ADD SSTORE JUMPDEST PUSH1 0x60 PUSH2 0x420 MLOAD ADD MLOAD DUP1 MLOAD SWAP1 PUSH1 0x1 PUSH1 0x1 PUSH1 0x40 SHL SUB DUP3 GT PUSH2 0x2264 JUMPI DUP2 SWAP1 PUSH2 0x14E7 DUP3 PUSH2 0x14DE PUSH1 0x3 DUP8 ADD SLOAD PUSH2 0x304C JUMP JUMPDEST PUSH1 0x3 DUP8 ADD PUSH2 0x31F7 JUMP JUMPDEST PUSH1 0x20 SWAP1 PUSH1 0x1F DUP4 GT PUSH1 0x1 EQ PUSH2 0x2DBE JUMPI PUSH1 0x0 SWAP3 PUSH2 0x2DB3 JUMPI JUMPDEST POP POP DUP2 PUSH1 0x1 SHL SWAP2 PUSH1 0x0 NOT SWAP1 PUSH1 0x3 SHL SHR NOT AND OR PUSH1 0x3 DUP3 ADD SSTORE JUMPDEST PUSH1 0x80 PUSH2 0x420 MLOAD ADD MLOAD DUP1 MLOAD SWAP1 PUSH1 0x1 PUSH1 0x1 PUSH1 0x40 SHL SUB DUP3 GT PUSH2 0x2264 JUMPI DUP2 SWAP1 PUSH2 0x154A DUP3 PUSH2 0x1541 PUSH1 0x4 DUP8 ADD SLOAD PUSH2 0x304C JUMP JUMPDEST PUSH1 0x4 DUP8 ADD PUSH2 0x31F7 JUMP JUMPDEST PUSH1 0x20 SWAP1 PUSH1 0x1F DUP4 GT PUSH1 0x1 EQ PUSH2 0x2D41 JUMPI PUSH1 0x0 SWAP3 PUSH2 0x2D36 JUMPI JUMPDEST POP POP DUP2 PUSH1 0x1 SHL SWAP2 PUSH1 0x0 NOT SWAP1 PUSH1 0x3 SHL SHR NOT AND OR PUSH1 0x4 DUP3 ADD SSTORE JUMPDEST PUSH1 0xA0 PUSH2 0x420 MLOAD ADD MLOAD DUP1 MLOAD SWAP1 PUSH1 0x1 PUSH1 0x1 PUSH1 0x40 SHL SUB DUP3 GT PUSH2 0x2264 JUMPI DUP2 SWAP1 PUSH2 0x15AD DUP3 PUSH2 0x15A4 PUSH1 0x5 DUP8 ADD SLOAD PUSH2 0x304C JUMP JUMPDEST PUSH1 0x5 DUP8 ADD PUSH2 0x31F7 JUMP JUMPDEST PUSH1 0x20 SWAP1 PUSH1 0x1F DUP4 GT PUSH1 0x1 EQ PUSH2 0x2CC4 JUMPI PUSH1 0x0 SWAP3 PUSH2 0x2CB9 JUMPI JUMPDEST POP POP DUP2 PUSH1 0x1 SHL SWAP2 PUSH1 0x0 NOT SWAP1 PUSH1 0x3 SHL SHR NOT AND OR PUSH1 0x5 DUP3 ADD SSTORE JUMPDEST PUSH1 0xC0 PUSH2 0x420 MLOAD ADD MLOAD DUP1 MLOAD SWAP1 PUSH1 0x1 PUSH1 0x1 PUSH1 0x40 SHL SUB DUP3 GT PUSH2 0x2264 JUMPI DUP2 SWAP1 PUSH2 0x1610 DUP3 PUSH2 0x1607 PUSH1 0x6 DUP8 ADD SLOAD PUSH2 0x304C JUMP JUMPDEST PUSH1 0x6 DUP8 ADD PUSH2 0x31F7 JUMP JUMPDEST PUSH1 0x20 SWAP1 PUSH1 0x1F DUP4 GT PUSH1 0x1 EQ PUSH2 0x2C47 JUMPI PUSH1 0x0 SWAP3 PUSH2 0x2C3C JUMPI JUMPDEST POP POP DUP2 PUSH1 0x1 SHL SWAP2 PUSH1 0x0 NOT SWAP1 PUSH1 0x3 SHL SHR NOT AND OR PUSH1 0x6 DUP3 ADD SSTORE JUMPDEST PUSH1 0xE0 PUSH2 0x420 MLOAD ADD MLOAD DUP1 MLOAD SWAP1 PUSH1 0x1 PUSH1 0x1 PUSH1 0x40 SHL SUB DUP3 GT PUSH2 0x2264 JUMPI DUP2 SWAP1 PUSH2 0x1673 DUP3 PUSH2 0x166A PUSH1 0x7 DUP8 ADD SLOAD PUSH2 0x304C JUMP JUMPDEST PUSH1 0x7 DUP8 ADD PUSH2 0x31F7 JUMP JUMPDEST PUSH1 0x20 SWAP1 PUSH1 0x1F DUP4 GT PUSH1 0x1 EQ PUSH2 0x2BCA JUMPI PUSH1 0x0 SWAP3 PUSH2 0x2BBF JUMPI JUMPDEST POP POP DUP2 PUSH1 0x1 SHL SWAP2 PUSH1 0x0 NOT SWAP1 PUSH1 0x3 SHL SHR NOT AND OR PUSH1 0x7 DUP3 ADD SSTORE JUMPDEST PUSH2 0x100 PUSH2 0x420 MLOAD ADD MLOAD DUP1 MLOAD SWAP1 PUSH1 0x1 PUSH1 0x1 PUSH1 0x40 SHL SUB DUP3 GT PUSH2 0x2264 JUMPI DUP2 SWAP1 PUSH2 0x16D7 DUP3 PUSH2 0x16CE PUSH1 0x8 DUP8 ADD SLOAD PUSH2 0x304C JUMP JUMPDEST PUSH1 0x8 DUP8 ADD PUSH2 0x31F7 JUMP JUMPDEST PUSH1 0x20 SWAP1 PUSH1 0x1F DUP4 GT PUSH1 0x1 EQ PUSH2 0x2B4D JUMPI PUSH1 0x0 SWAP3 PUSH2 0x2B42 JUMPI JUMPDEST POP POP DUP2 PUSH1 0x1 SHL SWAP2 PUSH1 0x0 NOT SWAP1 PUSH1 0x3 SHL SHR NOT AND OR PUSH1 0x8 DUP3 ADD SSTORE JUMPDEST PUSH2 0x120 PUSH2 0x420 MLOAD ADD MLOAD DUP1 MLOAD SWAP1 PUSH1 0x1 PUSH1 0x1 PUSH1 0x40 SHL SUB DUP3 GT PUSH2 0x2264 JUMPI DUP2 SWAP1 PUSH2 0x173B DUP3 PUSH2 0x1732 PUSH1 0x9 DUP8 ADD SLOAD PUSH2 0x304C JUMP JUMPDEST PUSH1 0x9 DUP8 ADD PUSH2 0x31F7 JUMP JUMPDEST PUSH1 0x20 SWAP1 PUSH1 0x1F DUP4 GT PUSH1 0x1 EQ PUSH2 0x2AD0 JUMPI PUSH1 0x0 SWAP3 PUSH2 0x2AC5 JUMPI JUMPDEST POP POP DUP2 PUSH1 0x1 SHL SWAP2 PUSH1 0x0 NOT SWAP1 PUSH1 0x3 SHL SHR NOT AND OR PUSH1 0x9 DUP3 ADD SSTORE JUMPDEST PUSH2 0x140 PUSH2 0x420 MLOAD ADD MLOAD DUP1 MLOAD SWAP1 PUSH1 0x1 PUSH1 0x1 PUSH1 0x40 SHL SUB DUP3 GT PUSH2 0x2264 JUMPI DUP2 SWAP1 PUSH2 0x179F DUP3 PUSH2 0x1796 PUSH1 0xA DUP8 ADD SLOAD PUSH2 0x304C JUMP JUMPDEST PUSH1 0xA DUP8 ADD PUSH2 0x31F7 JUMP JUMPDEST PUSH1 0x20 SWAP1 PUSH1 0x1F DUP4 GT PUSH1 0x1 EQ PUSH2 0x2A53 JUMPI PUSH1 0x0 SWAP3 PUSH2 0x2A48 JUMPI JUMPDEST POP POP DUP2 PUSH1 0x1 SHL SWAP2 PUSH1 0x0 NOT SWAP1 PUSH1 0x3 SHL SHR NOT AND OR PUSH1 0xA DUP3 ADD SSTORE JUMPDEST PUSH2 0x160 PUSH2 0x420 MLOAD ADD MLOAD DUP1 MLOAD SWAP1 PUSH1 0x1 PUSH1 0x1 PUSH1 0x40 SHL SUB DUP3 GT PUSH2 0x2264 JUMPI DUP2 SWAP1 PUSH2 0x1803 DUP3 PUSH2 0x17FA PUSH1 0xB DUP8 ADD SLOAD PUSH2 0x304C JUMP JUMPDEST PUSH1 0xB DUP8 ADD PUSH2 0x31F7 JUMP JUMPDEST PUSH1 0x20 SWAP1 PUSH1 0x1F DUP4 GT PUSH1 0x1 EQ PUSH2 0x29D6 JUMPI PUSH1 0x0 SWAP3 PUSH2 0x29CB JUMPI JUMPDEST POP POP DUP2 PUSH1 0x1 SHL SWAP2 PUSH1 0x0 NOT SWAP1 PUSH1 0x3 SHL SHR NOT AND OR PUSH1 0xB DUP3 ADD SSTORE JUMPDEST PUSH2 0x180 PUSH2 0x420 MLOAD ADD MLOAD DUP1 MLOAD SWAP1 PUSH1 0x1 PUSH1 0x1 PUSH1 0x40 SHL SUB DUP3 GT PUSH2 0x2264 JUMPI DUP2 SWAP1 PUSH2 0x1867 DUP3 PUSH2 0x185E PUSH1 0xC DUP8 ADD SLOAD PUSH2 0x304C JUMP JUMPDEST PUSH1 0xC DUP8 ADD PUSH2 0x31F7 JUMP JUMPDEST PUSH1 0x20 SWAP1 PUSH1 0x1F DUP4 GT PUSH1 0x1 EQ PUSH2 0x2959 JUMPI PUSH1 0x0 SWAP3 PUSH2 0x294E JUMPI JUMPDEST POP POP DUP2 PUSH1 0x1 SHL SWAP2 PUSH1 0x0 NOT SWAP1 PUSH1 0x3 SHL SHR NOT AND OR PUSH1 0xC DUP3 ADD SSTORE JUMPDEST PUSH2 0x1A0 PUSH2 0x420 MLOAD ADD MLOAD DUP1 MLOAD SWAP1 PUSH1 0x1 PUSH1 0x1 PUSH1 0x40 SHL SUB DUP3 GT PUSH2 0x2264 JUMPI DUP2 SWAP1 PUSH2 0x18CB DUP3 PUSH2 0x18C2 PUSH1 0xD DUP8 ADD SLOAD PUSH2 0x304C JUMP JUMPDEST PUSH1 0xD DUP8 ADD PUSH2 0x31F7 JUMP JUMPDEST PUSH1 0x20 SWAP1 PUSH1 0x1F DUP4 GT PUSH1 0x1 EQ PUSH2 0x28DC JUMPI PUSH1 0x0 SWAP3 PUSH2 0x28D1 JUMPI JUMPDEST POP POP DUP2 PUSH1 0x1 SHL SWAP2 PUSH1 0x0 NOT SWAP1 PUSH1 0x3 SHL SHR NOT AND OR PUSH1 0xD DUP3 ADD SSTORE JUMPDEST PUSH2 0x1C0 PUSH2 0x420 MLOAD ADD MLOAD DUP1 MLOAD SWAP1 PUSH1 0x1 PUSH1 0x1 PUSH1 0x40 SHL SUB DUP3 GT PUSH2 0x2264 JUMPI DUP2 SWAP1 PUSH2 0x192F DUP3 PUSH2 0x1926 PUSH1 0xE DUP8 ADD SLOAD PUSH2 0x304C JUMP JUMPDEST PUSH1 0xE DUP8 ADD PUSH2 0x31F7 JUMP JUMPDEST PUSH1 0x20 SWAP1 PUSH1 0x1F DUP4 GT PUSH1 0x1 EQ PUSH2 0x285F JUMPI PUSH1 0x0 SWAP3 PUSH2 0x2854 JUMPI JUMPDEST POP POP DUP2 PUSH1 0x1 SHL SWAP2 PUSH1 0x0 NOT SWAP1 PUSH1 0x3 SHL SHR NOT AND OR PUSH1 0xE DUP3 ADD SSTORE JUMPDEST PUSH2 0x1E0 PUSH2 0x420 MLOAD ADD MLOAD DUP1 MLOAD SWAP1 PUSH1 0x1 PUSH1 0x1 PUSH1 0x40 SHL SUB DUP3 GT PUSH2 0x2264 JUMPI DUP2 SWAP1 PUSH2 0x1993 DUP3 PUSH2 0x198A PUSH1 0xF DUP8 ADD SLOAD PUSH2 0x304C JUMP JUMPDEST PUSH1 0xF DUP8 ADD PUSH2 0x31F7 JUMP JUMPDEST PUSH1 0x20 SWAP1 PUSH1 0x1F DUP4 GT PUSH1 0x1 EQ PUSH2 0x27E2 JUMPI PUSH1 0x0 SWAP3 PUSH2 0x27D7 JUMPI JUMPDEST POP POP DUP2 PUSH1 0x1 SHL SWAP2 PUSH1 0x0 NOT SWAP1 PUSH1 0x3 SHL SHR NOT AND OR PUSH1 0xF DUP3 ADD SSTORE JUMPDEST PUSH2 0x200 PUSH2 0x420 MLOAD ADD MLOAD DUP1 MLOAD SWAP1 PUSH1 0x1 PUSH1 0x1 PUSH1 0x40 SHL SUB DUP3 GT PUSH2 0x2264 JUMPI DUP2 SWAP1 PUSH2 0x19F7 DUP3 PUSH2 0x19EE PUSH1 0x10 DUP8 ADD SLOAD PUSH2 0x304C JUMP JUMPDEST PUSH1 0x10 DUP8 ADD PUSH2 0x31F7 JUMP JUMPDEST PUSH1 0x20 SWAP1 PUSH1 0x1F DUP4 GT PUSH1 0x1 EQ PUSH2 0x2765 JUMPI PUSH1 0x0 SWAP3 PUSH2 0x275A JUMPI JUMPDEST POP POP DUP2 PUSH1 0x1 SHL SWAP2 PUSH1 0x0 NOT SWAP1 PUSH1 0x3 SHL SHR NOT AND OR PUSH1 0x10 DUP3 ADD SSTORE JUMPDEST PUSH2 0x220 PUSH2 0x420 MLOAD ADD MLOAD DUP1 MLOAD SWAP1 PUSH1 0x1 PUSH1 0x1 PUSH1 0x40 SHL SUB DUP3 GT PUSH2 0x2264 JUMPI DUP2 SWAP1 PUSH2 0x1A5B DUP3 PUSH2 0x1A52 PUSH1 0x11 DUP8 ADD SLOAD PUSH2 0x304C JUMP JUMPDEST PUSH1 0x11 DUP8 ADD PUSH2 0x31F7 JUMP JUMPDEST PUSH1 0x20 SWAP1 PUSH1 0x1F DUP4 GT PUSH1 0x1 EQ PUSH2 0x26E8 JUMPI PUSH1 0x0 SWAP3 PUSH2 0x26DD JUMPI JUMPDEST POP POP DUP2 PUSH1 0x1 SHL SWAP2 PUSH1 0x0 NOT SWAP1 PUSH1 0x3 SHL SHR NOT AND OR PUSH1 0x11 DUP3 ADD SSTORE JUMPDEST PUSH2 0x240 PUSH2 0x420 MLOAD ADD MLOAD DUP1 MLOAD SWAP1 PUSH1 0x1 PUSH1 0x1 PUSH1 0x40 SHL SUB DUP3 GT PUSH2 0x2264 JUMPI DUP2 SWAP1 PUSH2 0x1ABF DUP3 PUSH2 0x1AB6 PUSH1 0x12 DUP8 ADD SLOAD PUSH2 0x304C JUMP JUMPDEST PUSH1 0x12 DUP8 ADD PUSH2 0x31F7 JUMP JUMPDEST PUSH1 0x20 SWAP1 PUSH1 0x1F DUP4 GT PUSH1 0x1 EQ PUSH2 0x266B JUMPI PUSH1 0x0 SWAP3 PUSH2 0x2660 JUMPI JUMPDEST POP POP DUP2 PUSH1 0x1 SHL SWAP2 PUSH1 0x0 NOT SWAP1 PUSH1 0x3 SHL SHR NOT AND OR PUSH1 0x12 DUP3 ADD SSTORE JUMPDEST PUSH2 0x260 PUSH2 0x420 MLOAD ADD MLOAD DUP1 MLOAD SWAP1 PUSH1 0x1 PUSH1 0x1 PUSH1 0x40 SHL SUB DUP3 GT PUSH2 0x2264 JUMPI DUP2 SWAP1 PUSH2 0x1B23 DUP3 PUSH2 0x1B1A PUSH1 0x13 DUP8 ADD SLOAD PUSH2 0x304C JUMP JUMPDEST PUSH1 0x13 DUP8 ADD PUSH2 0x31F7 JUMP JUMPDEST PUSH1 0x20 SWAP1 PUSH1 0x1F DUP4 GT PUSH1 0x1 EQ PUSH2 0x25EE JUMPI PUSH1 0x0 SWAP3 PUSH2 0x25E3 JUMPI JUMPDEST POP POP DUP2 PUSH1 0x1 SHL SWAP2 PUSH1 0x0 NOT SWAP1 PUSH1 0x3 SHL SHR NOT AND OR PUSH1 0x13 DUP3 ADD SSTORE JUMPDEST PUSH2 0x280 PUSH2 0x420 MLOAD ADD MLOAD DUP1 MLOAD SWAP1 PUSH1 0x1 PUSH1 0x1 PUSH1 0x40 SHL SUB DUP3 GT PUSH2 0x2264 JUMPI DUP2 SWAP1 PUSH2 0x1B87 DUP3 PUSH2 0x1B7E PUSH1 0x14 DUP8 ADD SLOAD PUSH2 0x304C JUMP JUMPDEST PUSH1 0x14 DUP8 ADD PUSH2 0x31F7 JUMP JUMPDEST PUSH1 0x20 SWAP1 PUSH1 0x1F DUP4 GT PUSH1 0x1 EQ PUSH2 0x2571 JUMPI PUSH1 0x0 SWAP3 PUSH2 0x2566 JUMPI JUMPDEST POP POP DUP2 PUSH1 0x1 SHL SWAP2 PUSH1 0x0 NOT SWAP1 PUSH1 0x3 SHL SHR NOT AND OR PUSH1 0x14 DUP3 ADD SSTORE JUMPDEST PUSH2 0x2A0 PUSH2 0x420 MLOAD ADD MLOAD DUP1 MLOAD SWAP1 PUSH1 0x1 PUSH1 0x1 PUSH1 0x40 SHL SUB DUP3 GT PUSH2 0x2264 JUMPI DUP2 SWAP1 PUSH2 0x1BEB DUP3 PUSH2 0x1BE2 PUSH1 0x15 DUP8 ADD SLOAD PUSH2 0x304C JUMP JUMPDEST PUSH1 0x15 DUP8 ADD PUSH2 0x31F7 JUMP JUMPDEST PUSH1 0x20 SWAP1 PUSH1 0x1F DUP4 GT PUSH1 0x1 EQ PUSH2 0x24F4 JUMPI PUSH1 0x0 SWAP3 PUSH2 0x24E9 JUMPI JUMPDEST POP POP DUP2 PUSH1 0x1 SHL SWAP2 PUSH1 0x0 NOT SWAP1 PUSH1 0x3 SHL SHR NOT AND OR PUSH1 0x15 DUP3 ADD SSTORE JUMPDEST PUSH2 0x2C0 PUSH2 0x420 MLOAD ADD MLOAD DUP1 MLOAD SWAP1 PUSH1 0x1 PUSH1 0x1 PUSH1 0x40 SHL SUB DUP3 GT PUSH2 0x2264 JUMPI DUP2 SWAP1 PUSH2 0x1C4F DUP3 PUSH2 0x1C46 PUSH1 0x16 DUP8 ADD SLOAD PUSH2 0x304C JUMP JUMPDEST PUSH1 0x16 DUP8 ADD PUSH2 0x31F7 JUMP JUMPDEST PUSH1 0x20 SWAP1 PUSH1 0x1F DUP4 GT PUSH1 0x1 EQ PUSH2 0x2477 JUMPI PUSH1 0x0 SWAP3 PUSH2 0x246C JUMPI JUMPDEST POP POP DUP2 PUSH1 0x1 SHL SWAP2 PUSH1 0x0 NOT SWAP1 PUSH1 0x3 SHL SHR NOT AND OR PUSH1 0x16 DUP3 ADD SSTORE JUMPDEST PUSH2 0x2E0 PUSH2 0x420 MLOAD ADD MLOAD DUP1 MLOAD SWAP1 PUSH1 0x1 PUSH1 0x1 PUSH1 0x40 SHL SUB DUP3 GT PUSH2 0x2264 JUMPI DUP2 SWAP1 PUSH2 0x1CB3 DUP3 PUSH2 0x1CAA PUSH1 0x17 DUP8 ADD SLOAD PUSH2 0x304C JUMP JUMPDEST PUSH1 0x17 DUP8 ADD PUSH2 0x31F7 JUMP JUMPDEST PUSH1 0x20 SWAP1 PUSH1 0x1F DUP4 GT PUSH1 0x1 EQ PUSH2 0x23FA JUMPI PUSH1 0x0 SWAP3 PUSH2 0x23EF JUMPI JUMPDEST POP POP DUP2 PUSH1 0x1 SHL SWAP2 PUSH1 0x0 NOT SWAP1 PUSH1 0x3 SHL SHR NOT AND OR PUSH1 0x17 DUP3 ADD SSTORE JUMPDEST PUSH2 0x300 PUSH2 0x420 MLOAD ADD MLOAD DUP1 MLOAD SWAP1 PUSH1 0x1 PUSH1 0x1 PUSH1 0x40 SHL SUB DUP3 GT PUSH2 0x2264 JUMPI DUP2 SWAP1 PUSH2 0x1D17 DUP3 PUSH2 0x1D0E PUSH1 0x18 DUP8 ADD SLOAD PUSH2 0x304C JUMP JUMPDEST PUSH1 0x18 DUP8 ADD PUSH2 0x31F7 JUMP JUMPDEST PUSH1 0x20 SWAP1 PUSH1 0x1F DUP4 GT PUSH1 0x1 EQ PUSH2 0x237D JUMPI PUSH1 0x0 SWAP3 PUSH2 0x2372 JUMPI JUMPDEST POP POP DUP2 PUSH1 0x1 SHL SWAP2 PUSH1 0x0 NOT SWAP1 PUSH1 0x3 SHL SHR NOT AND OR PUSH1 0x18 DUP3 ADD SSTORE JUMPDEST PUSH2 0x320 PUSH2 0x420 MLOAD ADD MLOAD DUP1 MLOAD SWAP1 PUSH1 0x1 PUSH1 0x1 PUSH1 0x40 SHL SUB DUP3 GT PUSH2 0x2264 JUMPI DUP2 SWAP1 PUSH2 0x1D7B DUP3 PUSH2 0x1D72 PUSH1 0x19 DUP8 ADD SLOAD PUSH2 0x304C JUMP JUMPDEST PUSH1 0x19 DUP8 ADD PUSH2 0x31F7 JUMP JUMPDEST PUSH1 0x20 SWAP1 PUSH1 0x1F DUP4 GT PUSH1 0x1 EQ PUSH2 0x2300 JUMPI PUSH1 0x0 SWAP3 PUSH2 0x22F5 JUMPI JUMPDEST POP POP DUP2 PUSH1 0x1 SHL SWAP2 PUSH1 0x0 NOT SWAP1 PUSH1 0x3 SHL SHR NOT AND OR PUSH1 0x19 DUP3 ADD SSTORE JUMPDEST PUSH2 0x340 PUSH2 0x420 MLOAD ADD MLOAD DUP1 MLOAD SWAP1 PUSH1 0x1 PUSH1 0x1 PUSH1 0x40 SHL SUB DUP3 GT PUSH2 0x2264 JUMPI PUSH2 0x1DDD DUP3 PUSH2 0x1DD4 PUSH1 0x1A DUP7 ADD SLOAD PUSH2 0x304C JUMP JUMPDEST PUSH1 0x1A DUP7 ADD PUSH2 0x31F7 JUMP JUMPDEST PUSH1 0x20 SWAP1 PUSH1 0x1F DUP4 GT PUSH1 0x1 EQ PUSH2 0x2285 JUMPI PUSH1 0x1A SWAP3 SWAP2 PUSH1 0x0 SWAP2 DUP4 PUSH2 0x227A JUMPI JUMPDEST POP POP DUP2 PUSH1 0x1 SHL SWAP2 PUSH1 0x0 NOT SWAP1 PUSH1 0x3 SHL SHR NOT AND OR SWAP2 ADD SSTORE JUMPDEST PUSH1 0x2 SLOAD PUSH9 0x10000000000000000 DUP2 LT ISZERO PUSH2 0x2264 JUMPI DUP1 PUSH1 0x1 PUSH2 0x1E32 SWAP3 ADD PUSH1 0x2 SSTORE PUSH2 0x2FFF JUMP JUMPDEST PUSH2 0xC0D JUMPI PUSH2 0x380 MLOAD PUSH1 0x1 PUSH1 0x1 PUSH1 0x40 SHL SUB DUP2 GT PUSH2 0x2264 JUMPI PUSH2 0x1E5C SWAP1 PUSH2 0x1E56 DUP4 SLOAD PUSH2 0x304C JUMP JUMPDEST DUP4 PUSH2 0x31F7 JUMP JUMPDEST PUSH1 0x0 SWAP1 PUSH2 0x380 MLOAD PUSH1 0x1F DUP2 GT PUSH1 0x1 EQ PUSH2 0x21F7 JUMPI POP SWAP1 PUSH1 0x0 PUSH2 0x380 MLOAD SWAP2 DUP3 PUSH2 0x21E9 JUMPI JUMPDEST POP DUP2 PUSH1 0x1 SHL SWAP2 PUSH1 0x0 NOT SWAP1 PUSH1 0x3 SHL SHR NOT AND OR SWAP1 SSTORE JUMPDEST PUSH2 0x380 PUSH1 0x40 MLOAD DUP1 PUSH2 0x180 MSTORE MSTORE PUSH32 0x9A547019DCD325AAE1770565D9973279611A6F42BBBC092717ADB48F436A4483 PUSH2 0x21BF PUSH2 0x21A5 PUSH2 0x218B PUSH2 0x2172 PUSH2 0x2158 PUSH2 0x213E PUSH2 0x2124 PUSH2 0x210A PUSH2 0x20F0 PUSH2 0x20D6 PUSH2 0x20BC PUSH2 0x20A2 PUSH2 0x2088 PUSH2 0x206E PUSH2 0x2055 PUSH2 0x203B PUSH2 0x2021 PUSH2 0x2007 PUSH2 0x1FED PUSH2 0x1FD3 PUSH2 0x1FBA PUSH2 0x1FA1 PUSH2 0x1F88 PUSH2 0x1F6F PUSH2 0x1F56 PUSH2 0x1F3D PUSH2 0x1F24 PUSH2 0x380 PUSH2 0x180 MLOAD ADD PUSH2 0x380 MLOAD PUSH2 0x620 MLOAD PUSH2 0x324B JUMP JUMPDEST PUSH2 0x180 MLOAD PUSH1 0x20 DUP2 DUP4 SUB SWAP2 ADD MSTORE PUSH2 0x820 MLOAD PUSH2 0x7A0 MLOAD PUSH2 0x324B JUMP JUMPDEST PUSH2 0x180 MLOAD PUSH1 0x40 DUP2 DUP4 SUB SWAP2 ADD MSTORE PUSH2 0x440 MLOAD PUSH2 0x3E0 MLOAD PUSH2 0x324B JUMP JUMPDEST PUSH2 0x180 MLOAD PUSH1 0x60 DUP2 DUP4 SUB SWAP2 ADD MSTORE PUSH2 0x9A0 MLOAD PUSH2 0x560 MLOAD PUSH2 0x324B JUMP JUMPDEST PUSH2 0x180 MLOAD PUSH1 0x80 DUP2 DUP4 SUB SWAP2 ADD MSTORE PUSH2 0x920 MLOAD PUSH2 0x8A0 MLOAD PUSH2 0x324B JUMP JUMPDEST PUSH2 0x180 MLOAD PUSH1 0xA0 DUP2 DUP4 SUB SWAP2 ADD MSTORE PUSH2 0x8C0 MLOAD PUSH2 0x360 MLOAD PUSH2 0x324B JUMP JUMPDEST PUSH2 0x180 MLOAD PUSH1 0xC0 DUP2 DUP4 SUB SWAP2 ADD MSTORE PUSH2 0x980 MLOAD PUSH2 0x6E0 MLOAD PUSH2 0x324B JUMP JUMPDEST PUSH2 0x180 MLOAD PUSH1 0xE0 DUP2 DUP4 SUB SWAP2 ADD MSTORE PUSH2 0x6C0 MLOAD PUSH2 0x660 MLOAD PUSH2 0x324B JUMP JUMPDEST PUSH2 0x180 MLOAD PUSH2 0x100 DUP2 DUP4 SUB SWAP2 ADD MSTORE PUSH2 0x500 MLOAD PUSH2 0x320 MLOAD PUSH2 0x324B JUMP JUMPDEST PUSH2 0x180 MLOAD PUSH2 0x120 DUP2 DUP4 SUB SWAP2 ADD MSTORE PUSH2 0x960 MLOAD PUSH2 0x400 MLOAD PUSH2 0x324B JUMP JUMPDEST PUSH2 0x180 MLOAD PUSH2 0x140 DUP2 DUP4 SUB SWAP2 ADD MSTORE PUSH2 0x640 MLOAD PUSH2 0x700 MLOAD PUSH2 0x324B JUMP JUMPDEST PUSH2 0x180 MLOAD PUSH2 0x160 DUP2 DUP4 SUB SWAP2 ADD MSTORE PUSH2 0x940 MLOAD PUSH2 0x1E0 MLOAD PUSH2 0x324B JUMP JUMPDEST PUSH2 0x180 MLOAD PUSH2 0x180 DUP2 DUP4 SUB SWAP2 ADD MSTORE PUSH2 0x260 MLOAD PUSH2 0x580 MLOAD PUSH2 0x324B JUMP JUMPDEST PUSH2 0x180 MLOAD PUSH2 0x1A0 DUP2 DUP4 SUB SWAP2 ADD MSTORE PUSH2 0x7C0 MLOAD PUSH1 0xC0 MLOAD PUSH2 0x324B JUMP JUMPDEST PUSH2 0x180 MLOAD PUSH2 0x1C0 DUP2 DUP4 SUB SWAP2 ADD MSTORE PUSH2 0x220 MLOAD PUSH2 0x240 MLOAD PUSH2 0x324B JUMP JUMPDEST PUSH2 0x180 MLOAD PUSH2 0x1E0 DUP2 DUP4 SUB SWAP2 ADD MSTORE PUSH2 0x8E0 MLOAD PUSH2 0x720 MLOAD PUSH2 0x324B JUMP JUMPDEST PUSH2 0x180 MLOAD PUSH2 0x200 DUP2 DUP4 SUB SWAP2 ADD MSTORE PUSH2 0x1C0 MLOAD PUSH2 0x460 MLOAD PUSH2 0x324B JUMP JUMPDEST PUSH2 0x180 MLOAD PUSH2 0x220 DUP2 DUP4 SUB SWAP2 ADD MSTORE PUSH2 0x4E0 MLOAD PUSH2 0x480 MLOAD PUSH2 0x324B JUMP JUMPDEST PUSH2 0x180 MLOAD PUSH2 0x240 DUP2 DUP4 SUB SWAP2 ADD MSTORE PUSH2 0x140 MLOAD PUSH2 0x3C0 MLOAD PUSH2 0x324B JUMP JUMPDEST PUSH2 0x180 MLOAD PUSH2 0x260 DUP2 DUP4 SUB SWAP2 ADD MSTORE PUSH2 0x2C0 MLOAD PUSH2 0x540 MLOAD PUSH2 0x324B JUMP JUMPDEST PUSH2 0x180 MLOAD PUSH2 0x280 DUP2 DUP4 SUB SWAP2 ADD MSTORE PUSH2 0x4A0 MLOAD PUSH2 0x600 MLOAD PUSH2 0x324B JUMP JUMPDEST PUSH2 0x180 MLOAD PUSH2 0x2A0 DUP2 DUP4 SUB SWAP2 ADD MSTORE PUSH2 0x880 MLOAD PUSH2 0x860 MLOAD PUSH2 0x324B JUMP JUMPDEST PUSH2 0x180 MLOAD PUSH2 0x2C0 DUP2 DUP4 SUB SWAP2 ADD MSTORE PUSH2 0x200 MLOAD PUSH2 0x6A0 MLOAD PUSH2 0x324B JUMP JUMPDEST PUSH2 0x180 MLOAD PUSH2 0x2E0 DUP2 DUP4 SUB SWAP2 ADD MSTORE PUSH2 0x100 MLOAD PUSH2 0x160 MLOAD PUSH2 0x324B JUMP JUMPDEST PUSH2 0x180 MLOAD PUSH2 0x300 DUP2 DUP4 SUB SWAP2 ADD MSTORE PUSH1 0x80 MLOAD PUSH2 0x3A0 MLOAD PUSH2 0x324B JUMP JUMPDEST PUSH2 0x180 MLOAD PUSH2 0x320 DUP2 DUP4 SUB SWAP2 ADD MSTORE PUSH2 0x800 MLOAD PUSH2 0x760 MLOAD PUSH2 0x324B JUMP JUMPDEST PUSH2 0x180 MLOAD PUSH2 0x340 DUP2 DUP4 SUB SWAP2 ADD MSTORE PUSH2 0x5C0 MLOAD PUSH2 0x2E0 MLOAD PUSH2 0x324B JUMP JUMPDEST PUSH2 0x180 MLOAD PUSH2 0x360 DUP2 DUP4 SUB SWAP2 ADD MSTORE PUSH2 0x21E1 PUSH2 0x180 MLOAD SWAP2 PUSH2 0x840 MLOAD PUSH2 0x900 MLOAD PUSH2 0x324B JUMP JUMPDEST SUB PUSH2 0x180 MLOAD LOG1 STOP JUMPDEST SWAP1 POP PUSH2 0x620 MLOAD ADD CALLDATALOAD DUP4 PUSH2 0x1E7D JUMP JUMPDEST DUP2 PUSH1 0x0 MSTORE PUSH1 0x20 PUSH1 0x0 KECCAK256 PUSH1 0x0 SWAP4 PUSH2 0x620 MLOAD SWAP1 JUMPDEST PUSH1 0x1F NOT DUP5 AND DUP7 LT PUSH2 0x224C JUMPI PUSH1 0x1 SWAP5 SWAP6 POP DUP4 PUSH1 0x1F NOT DUP2 AND LT PUSH2 0x2232 JUMPI JUMPDEST POP POP POP DUP2 SHL ADD SWAP1 SSTORE PUSH2 0x1E91 JUMP JUMPDEST ADD CALLDATALOAD PUSH1 0x0 NOT PUSH1 0x3 DUP5 SWAP1 SHL PUSH1 0xF8 AND SHR NOT AND SWAP1 SSTORE DUP4 DUP1 DUP1 PUSH2 0x2225 JUMP JUMPDEST SWAP2 PUSH1 0x20 PUSH1 0x1 DUP2 SWAP3 DUP6 DUP6 ADD CALLDATALOAD DUP2 SSTORE ADD SWAP4 ADD SWAP6 ADD SWAP5 PUSH2 0x2209 JUMP JUMPDEST PUSH4 0x4E487B71 PUSH1 0xE0 SHL PUSH1 0x0 MSTORE PUSH1 0x41 PUSH1 0x4 MSTORE PUSH1 0x24 PUSH1 0x0 REVERT JUMPDEST ADD MLOAD SWAP1 POP DUP5 DUP1 PUSH2 0x1DF8 JUMP JUMPDEST SWAP1 PUSH1 0x1A DUP5 ADD PUSH1 0x0 MSTORE PUSH1 0x20 PUSH1 0x0 KECCAK256 SWAP2 PUSH1 0x0 JUMPDEST PUSH1 0x1F NOT DUP6 AND DUP2 LT PUSH2 0x22DD JUMPI POP SWAP2 DUP4 SWAP2 PUSH1 0x1 SWAP4 PUSH1 0x1A SWAP6 PUSH1 0x1F NOT DUP2 AND LT PUSH2 0x22C4 JUMPI JUMPDEST POP POP POP DUP2 SHL ADD SWAP2 ADD SSTORE PUSH2 0x1E0E JUMP JUMPDEST ADD MLOAD PUSH1 0x0 NOT PUSH1 0xF8 DUP5 PUSH1 0x3 SHL AND SHR NOT AND SWAP1 SSTORE DUP5 DUP1 DUP1 PUSH2 0x22B6 JUMP JUMPDEST SWAP2 SWAP3 PUSH1 0x20 PUSH1 0x1 DUP2 SWAP3 DUP7 DUP6 ADD MLOAD DUP2 SSTORE ADD SWAP5 ADD SWAP3 ADD PUSH2 0x2296 JUMP JUMPDEST ADD MLOAD SWAP1 POP DUP4 DUP1 PUSH2 0x1D91 JUMP JUMPDEST SWAP3 POP PUSH1 0x19 DUP5 ADD PUSH1 0x0 MSTORE PUSH1 0x20 PUSH1 0x0 KECCAK256 SWAP1 PUSH1 0x0 SWAP4 JUMPDEST PUSH1 0x1F NOT DUP5 AND DUP6 LT PUSH2 0x2357 JUMPI PUSH1 0x1 SWAP5 POP DUP4 PUSH1 0x1F NOT DUP2 AND LT PUSH2 0x233E JUMPI JUMPDEST POP POP POP DUP2 SHL ADD PUSH1 0x19 DUP3 ADD SSTORE PUSH2 0x1DA9 JUMP JUMPDEST ADD MLOAD PUSH1 0x0 NOT PUSH1 0xF8 DUP5 PUSH1 0x3 SHL AND SHR NOT AND SWAP1 SSTORE DUP4 DUP1 DUP1 PUSH2 0x232E JUMP JUMPDEST DUP2 DUP2 ADD MLOAD DUP4 SSTORE PUSH1 0x20 SWAP5 DUP6 ADD SWAP5 PUSH1 0x1 SWAP1 SWAP4 ADD SWAP3 SWAP1 SWAP2 ADD SWAP1 PUSH2 0x2313 JUMP JUMPDEST ADD MLOAD SWAP1 POP DUP4 DUP1 PUSH2 0x1D2D JUMP JUMPDEST SWAP3 POP PUSH1 0x18 DUP5 ADD PUSH1 0x0 MSTORE PUSH1 0x20 PUSH1 0x0 KECCAK256 SWAP1 PUSH1 0x0 SWAP4 JUMPDEST PUSH1 0x1F NOT DUP5 AND DUP6 LT PUSH2 0x23D4 JUMPI PUSH1 0x1 SWAP5 POP DUP4 PUSH1 0x1F NOT DUP2 AND LT PUSH2 0x23BB JUMPI JUMPDEST POP POP POP DUP2 SHL ADD PUSH1 0x18 DUP3 ADD SSTORE PUSH2 0x1D45 JUMP JUMPDEST ADD MLOAD PUSH1 0x0 NOT PUSH1 0xF8 DUP5 PUSH1 0x3 SHL AND SHR NOT AND SWAP1 SSTORE DUP4 DUP1 DUP1 PUSH2 0x23AB JUMP JUMPDEST DUP2 DUP2 ADD MLOAD DUP4 SSTORE PUSH1 0x20 SWAP5 DUP6 ADD SWAP5 PUSH1 0x1 SWAP1 SWAP4 ADD SWAP3 SWAP1 SWAP2 ADD SWAP1 PUSH2 0x2390 JUMP JUMPDEST ADD MLOAD SWAP1 POP DUP4 DUP1 PUSH2 0x1CC9 JUMP JUMPDEST SWAP3 POP PUSH1 0x17 DUP5 ADD PUSH1 0x0 MSTORE PUSH1 0x20 PUSH1 0x0 KECCAK256 SWAP1 PUSH1 0x0 SWAP4 JUMPDEST PUSH1 0x1F NOT DUP5 AND DUP6 LT PUSH2 0x2451 JUMPI PUSH1 0x1 SWAP5 POP DUP4 PUSH1 0x1F NOT DUP2 AND LT PUSH2 0x2438 JUMPI JUMPDEST POP POP POP DUP2 SHL ADD PUSH1 0x17 DUP3 ADD SSTORE PUSH2 0x1CE1 JUMP JUMPDEST ADD MLOAD PUSH1 0x0 NOT PUSH1 0xF8 DUP5 PUSH1 0x3 SHL AND SHR NOT AND SWAP1 SSTORE DUP4 DUP1 DUP1 PUSH2 0x2428 JUMP JUMPDEST DUP2 DUP2 ADD MLOAD DUP4 SSTORE PUSH1 0x20 SWAP5 DUP6 ADD SWAP5 PUSH1 0x1 SWAP1 SWAP4 ADD SWAP3 SWAP1 SWAP2 ADD SWAP1 PUSH2 0x240D JUMP JUMPDEST ADD MLOAD SWAP1 POP DUP4 DUP1 PUSH2 0x1C65 JUMP JUMPDEST SWAP3 POP PUSH1 0x16 DUP5 ADD PUSH1 0x0 MSTORE PUSH1 0x20 PUSH1 0x0 KECCAK256 SWAP1 PUSH1 0x0 SWAP4 JUMPDEST PUSH1 0x1F NOT DUP5 AND DUP6 LT PUSH2 0x24CE JUMPI PUSH1 0x1 SWAP5 POP DUP4 PUSH1 0x1F NOT DUP2 AND LT PUSH2 0x24B5 JUMPI JUMPDEST POP POP POP DUP2 SHL ADD PUSH1 0x16 DUP3 ADD SSTORE PUSH2 0x1C7D JUMP JUMPDEST ADD MLOAD PUSH1 0x0 NOT PUSH1 0xF8 DUP5 PUSH1 0x3 SHL AND SHR NOT AND SWAP1 SSTORE DUP4 DUP1 DUP1 PUSH2 0x24A5 JUMP JUMPDEST DUP2 DUP2 ADD MLOAD DUP4 SSTORE PUSH1 0x20 SWAP5 DUP6 ADD SWAP5 PUSH1 0x1 SWAP1 SWAP4 ADD SWAP3 SWAP1 SWAP2 ADD SWAP1 PUSH2 0x248A JUMP JUMPDEST ADD MLOAD SWAP1 POP DUP4 DUP1 PUSH2 0x1C01 JUMP JUMPDEST SWAP3 POP PUSH1 0x15 DUP5 ADD PUSH1 0x0 MSTORE PUSH1 0x20 PUSH1 0x0 KECCAK256 SWAP1 PUSH1 0x0 SWAP4 JUMPDEST PUSH1 0x1F NOT DUP5 AND DUP6 LT PUSH2 0x254B JUMPI PUSH1 0x1 SWAP5 POP DUP4 PUSH1 0x1F NOT DUP2 AND LT PUSH2 0x2532 JUMPI JUMPDEST POP POP POP DUP2 SHL ADD PUSH1 0x15 DUP3 ADD SSTORE PUSH2 0x1C19 JUMP JUMPDEST ADD MLOAD PUSH1 0x0 NOT PUSH1 0xF8 DUP5 PUSH1 0x3 SHL AND SHR NOT AND SWAP1 SSTORE DUP4 DUP1 DUP1 PUSH2 0x2522 JUMP JUMPDEST DUP2 DUP2 ADD MLOAD DUP4 SSTORE PUSH1 0x20 SWAP5 DUP6 ADD SWAP5 PUSH1 0x1 SWAP1 SWAP4 ADD SWAP3 SWAP1 SWAP2 ADD SWAP1 PUSH2 0x2507 JUMP JUMPDEST ADD MLOAD SWAP1 POP DUP4 DUP1 PUSH2 0x1B9D JUMP JUMPDEST SWAP3 POP PUSH1 0x14 DUP5 ADD PUSH1 0x0 MSTORE PUSH1 0x20 PUSH1 0x0 KECCAK256 SWAP1 PUSH1 0x0 SWAP4 JUMPDEST PUSH1 0x1F NOT DUP5 AND DUP6 LT PUSH2 0x25C8 JUMPI PUSH1 0x1 SWAP5 POP DUP4 PUSH1 0x1F NOT DUP2 AND LT PUSH2 0x25AF JUMPI JUMPDEST POP POP POP DUP2 SHL ADD PUSH1 0x14 DUP3 ADD SSTORE PUSH2 0x1BB5 JUMP JUMPDEST ADD MLOAD PUSH1 0x0 NOT PUSH1 0xF8 DUP5 PUSH1 0x3 SHL AND SHR NOT AND SWAP1 SSTORE DUP4 DUP1 DUP1 PUSH2 0x259F JUMP JUMPDEST DUP2 DUP2 ADD MLOAD DUP4 SSTORE PUSH1 0x20 SWAP5 DUP6 ADD SWAP5 PUSH1 0x1 SWAP1 SWAP4 ADD SWAP3 SWAP1 SWAP2 ADD SWAP1 PUSH2 0x2584 JUMP JUMPDEST ADD MLOAD SWAP1 POP DUP4 DUP1 PUSH2 0x1B39 JUMP JUMPDEST SWAP3 POP PUSH1 0x13 DUP5 ADD PUSH1 0x0 MSTORE PUSH1 0x20 PUSH1 0x0 KECCAK256 SWAP1 PUSH1 0x0 SWAP4 JUMPDEST PUSH1 0x1F NOT DUP5 AND DUP6 LT PUSH2 0x2645 JUMPI PUSH1 0x1 SWAP5 POP DUP4 PUSH1 0x1F NOT DUP2 AND LT PUSH2 0x262C JUMPI JUMPDEST POP POP POP DUP2 SHL ADD PUSH1 0x13 DUP3 ADD SSTORE PUSH2 0x1B51 JUMP JUMPDEST ADD MLOAD PUSH1 0x0 NOT PUSH1 0xF8 DUP5 PUSH1 0x3 SHL AND SHR NOT AND SWAP1 SSTORE DUP4 DUP1 DUP1 PUSH2 0x261C JUMP JUMPDEST DUP2 DUP2 ADD MLOAD DUP4 SSTORE PUSH1 0x20 SWAP5 DUP6 ADD SWAP5 PUSH1 0x1 SWAP1 SWAP4 ADD SWAP3 SWAP1 SWAP2 ADD SWAP1 PUSH2 0x2601 JUMP JUMPDEST ADD MLOAD SWAP1 POP DUP4 DUP1 PUSH2 0x1AD5 JUMP JUMPDEST SWAP3 POP PUSH1 0x12 DUP5 ADD PUSH1 0x0 MSTORE PUSH1 0x20 PUSH1 0x0 KECCAK256 SWAP1 PUSH1 0x0 SWAP4 JUMPDEST PUSH1 0x1F NOT DUP5 AND DUP6 LT PUSH2 0x26C2 JUMPI PUSH1 0x1 SWAP5 POP DUP4 PUSH1 0x1F NOT DUP2 AND LT PUSH2 0x26A9 JUMPI JUMPDEST POP POP POP DUP2 SHL ADD PUSH1 0x12 DUP3 ADD SSTORE PUSH2 0x1AED JUMP JUMPDEST ADD MLOAD PUSH1 0x0 NOT PUSH1 0xF8 DUP5 PUSH1 0x3 SHL AND SHR NOT AND SWAP1 SSTORE DUP4 DUP1 DUP1 PUSH2 0x2699 JUMP JUMPDEST DUP2 DUP2 ADD MLOAD DUP4 SSTORE PUSH1 0x20 SWAP5 DUP6 ADD SWAP5 PUSH1 0x1 SWAP1 SWAP4 ADD SWAP3 SWAP1 SWAP2 ADD SWAP1 PUSH2 0x267E JUMP JUMPDEST ADD MLOAD SWAP1 POP DUP4 DUP1 PUSH2 0x1A71 JUMP JUMPDEST SWAP3 POP PUSH1 0x11 DUP5 ADD PUSH1 0x0 MSTORE PUSH1 0x20 PUSH1 0x0 KECCAK256 SWAP1 PUSH1 0x0 SWAP4 JUMPDEST PUSH1 0x1F NOT DUP5 AND DUP6 LT PUSH2 0x273F JUMPI PUSH1 0x1 SWAP5 POP DUP4 PUSH1 0x1F NOT DUP2 AND LT PUSH2 0x2726 JUMPI JUMPDEST POP POP POP DUP2 SHL ADD PUSH1 0x11 DUP3 ADD SSTORE PUSH2 0x1A89 JUMP JUMPDEST ADD MLOAD PUSH1 0x0 NOT PUSH1 0xF8 DUP5 PUSH1 0x3 SHL AND SHR NOT AND SWAP1 SSTORE DUP4 DUP1 DUP1 PUSH2 0x2716 JUMP JUMPDEST DUP2 DUP2 ADD MLOAD DUP4 SSTORE PUSH1 0x20 SWAP5 DUP6 ADD SWAP5 PUSH1 0x1 SWAP1 SWAP4 ADD SWAP3 SWAP1 SWAP2 ADD SWAP1 PUSH2 0x26FB JUMP JUMPDEST ADD MLOAD SWAP1 POP DUP4 DUP1 PUSH2 0x1A0D JUMP JUMPDEST SWAP3 POP PUSH1 0x10 DUP5 ADD PUSH1 0x0 MSTORE PUSH1 0x20 PUSH1 0x0 KECCAK256 SWAP1 PUSH1 0x0 SWAP4 JUMPDEST PUSH1 0x1F NOT DUP5 AND DUP6 LT PUSH2 0x27BC JUMPI PUSH1 0x1 SWAP5 POP DUP4 PUSH1 0x1F NOT DUP2 AND LT PUSH2 0x27A3 JUMPI JUMPDEST POP POP POP DUP2 SHL ADD PUSH1 0x10 DUP3 ADD SSTORE PUSH2 0x1A25 JUMP JUMPDEST ADD MLOAD PUSH1 0x0 NOT PUSH1 0xF8 DUP5 PUSH1 0x3 SHL AND SHR NOT AND SWAP1 SSTORE DUP4 DUP1 DUP1 PUSH2 0x2793 JUMP JUMPDEST DUP2 DUP2 ADD MLOAD DUP4 SSTORE PUSH1 0x20 SWAP5 DUP6 ADD SWAP5 PUSH1 0x1 SWAP1 SWAP4 ADD SWAP3 SWAP1 SWAP2 ADD SWAP1 PUSH2 0x2778 JUMP JUMPDEST ADD MLOAD SWAP1 POP DUP4 DUP1 PUSH2 0x19A9 JUMP JUMPDEST SWAP3 POP PUSH1 0xF DUP5 ADD PUSH1 0x0 MSTORE PUSH1 0x20 PUSH1 0x0 KECCAK256 SWAP1 PUSH1 0x0 SWAP4 JUMPDEST PUSH1 0x1F NOT DUP5 AND DUP6 LT PUSH2 0x2839 JUMPI PUSH1 0x1 SWAP5 POP DUP4 PUSH1 0x1F NOT DUP2 AND LT PUSH2 0x2820 JUMPI JUMPDEST POP POP POP DUP2 SHL ADD PUSH1 0xF DUP3 ADD SSTORE PUSH2 0x19C1 JUMP JUMPDEST ADD MLOAD PUSH1 0x0 NOT PUSH1 0xF8 DUP5 PUSH1 0x3 SHL AND SHR NOT AND SWAP1 SSTORE DUP4 DUP1 DUP1 PUSH2 0x2810 JUMP JUMPDEST DUP2 DUP2 ADD MLOAD DUP4 SSTORE PUSH1 0x20 SWAP5 DUP6 ADD SWAP5 PUSH1 0x1 SWAP1 SWAP4 ADD SWAP3 SWAP1 SWAP2 ADD SWAP1 PUSH2 0x27F5 JUMP JUMPDEST ADD MLOAD SWAP1 POP DUP4 DUP1 PUSH2 0x1945 JUMP JUMPDEST SWAP3 POP PUSH1 0xE DUP5 ADD PUSH1 0x0 MSTORE PUSH1 0x20 PUSH1 0x0 KECCAK256 SWAP1 PUSH1 0x0 SWAP4 JUMPDEST PUSH1 0x1F NOT DUP5 AND DUP6 LT PUSH2 0x28B6 JUMPI PUSH1 0x1 SWAP5 POP DUP4 PUSH1 0x1F NOT DUP2 AND LT PUSH2 0x289D JUMPI JUMPDEST POP POP POP DUP2 SHL ADD PUSH1 0xE DUP3 ADD SSTORE PUSH2 0x195D JUMP JUMPDEST ADD MLOAD PUSH1 0x0 NOT PUSH1 0xF8 DUP5 PUSH1 0x3 SHL AND SHR NOT AND SWAP1 SSTORE DUP4 DUP1 DUP1 PUSH2 0x288D JUMP JUMPDEST DUP2 DUP2 ADD MLOAD DUP4 SSTORE PUSH1 0x20 SWAP5 DUP6 ADD SWAP5 PUSH1 0x1 SWAP1 SWAP4 ADD SWAP3 SWAP1 SWAP2 ADD SWAP1 PUSH2 0x2872 JUMP JUMPDEST ADD MLOAD SWAP1 POP DUP4 DUP1 PUSH2 0x18E1 JUMP JUMPDEST SWAP3 POP PUSH1 0xD DUP5 ADD PUSH1 0x0 MSTORE PUSH1 0x20 PUSH1 0x0 KECCAK256 SWAP1 PUSH1 0x0 SWAP4 JUMPDEST PUSH1 0x1F NOT DUP5 AND DUP6 LT PUSH2 0x2933 JUMPI PUSH1 0x1 SWAP5 POP DUP4 PUSH1 0x1F NOT DUP2 AND LT PUSH2 0x291A JUMPI JUMPDEST POP POP POP DUP2 SHL ADD PUSH1 0xD DUP3 ADD SSTORE PUSH2 0x18F9 JUMP JUMPDEST ADD MLOAD PUSH1 0x0 NOT PUSH1 0xF8 DUP5 PUSH1 0x3 SHL AND SHR NOT AND SWAP1 SSTORE DUP4 DUP1 DUP1 PUSH2 0x290A JUMP JUMPDEST DUP2 DUP2 ADD MLOAD DUP4 SSTORE PUSH1 0x20 SWAP5 DUP6 ADD SWAP5 PUSH1 0x1 SWAP1 SWAP4 ADD SWAP3 SWAP1 SWAP2 ADD SWAP1 PUSH2 0x28EF JUMP JUMPDEST ADD MLOAD SWAP1 POP DUP4 DUP1 PUSH2 0x187D JUMP JUMPDEST SWAP3 POP PUSH1 0xC DUP5 ADD PUSH1 0x0 MSTORE PUSH1 0x20 PUSH1 0x0 KECCAK256 SWAP1 PUSH1 0x0 SWAP4 JUMPDEST PUSH1 0x1F NOT DUP5 AND DUP6 LT PUSH2 0x29B0 JUMPI PUSH1 0x1 SWAP5 POP DUP4 PUSH1 0x1F NOT DUP2 AND LT PUSH2 0x2997 JUMPI JUMPDEST POP POP POP DUP2 SHL ADD PUSH1 0xC DUP3 ADD SSTORE PUSH2 0x1895 JUMP JUMPDEST ADD MLOAD PUSH1 0x0 NOT PUSH1 0xF8 DUP5 PUSH1 0x3 SHL AND SHR NOT AND SWAP1 SSTORE DUP4 DUP1 DUP1 PUSH2 0x2987 JUMP JUMPDEST DUP2 DUP2 ADD MLOAD DUP4 SSTORE PUSH1 0x20 SWAP5 DUP6 ADD SWAP5 PUSH1 0x1 SWAP1 SWAP4 ADD SWAP3 SWAP1 SWAP2 ADD SWAP1 PUSH2 0x296C JUMP JUMPDEST ADD MLOAD SWAP1 POP DUP4 DUP1 PUSH2 0x1819 JUMP JUMPDEST SWAP3 POP PUSH1 0xB DUP5 ADD PUSH1 0x0 MSTORE PUSH1 0x20 PUSH1 0x0 KECCAK256 SWAP1 PUSH1 0x0 SWAP4 JUMPDEST PUSH1 0x1F NOT DUP5 AND DUP6 LT PUSH2 0x2A2D JUMPI PUSH1 0x1 SWAP5 POP DUP4 PUSH1 0x1F NOT DUP2 AND LT PUSH2 0x2A14 JUMPI JUMPDEST POP POP POP DUP2 SHL ADD PUSH1 0xB DUP3 ADD SSTORE PUSH2 0x1831 JUMP JUMPDEST ADD MLOAD PUSH1 0x0 NOT PUSH1 0xF8 DUP5 PUSH1 0x3 SHL AND SHR NOT AND SWAP1 SSTORE DUP4 DUP1 DUP1 PUSH2 0x2A04 JUMP JUMPDEST DUP2 DUP2 ADD MLOAD DUP4 SSTORE PUSH1 0x20 SWAP5 DUP6 ADD SWAP5 PUSH1 0x1 SWAP1 SWAP4 ADD SWAP3 SWAP1 SWAP2 ADD SWAP1 PUSH2 0x29E9 JUMP JUMPDEST ADD MLOAD SWAP1 POP DUP4 DUP1 PUSH2 0x17B5 JUMP JUMPDEST SWAP3 POP PUSH1 0xA DUP5 ADD PUSH1 0x0 MSTORE PUSH1 0x20 PUSH1 0x0 KECCAK256 SWAP1 PUSH1 0x0 SWAP4 JUMPDEST PUSH1 0x1F NOT DUP5 AND DUP6 LT PUSH2 0x2AAA JUMPI PUSH1 0x1 SWAP5 POP DUP4 PUSH1 0x1F NOT DUP2 AND LT PUSH2 0x2A91 JUMPI JUMPDEST POP POP POP DUP2 SHL ADD PUSH1 0xA DUP3 ADD SSTORE PUSH2 0x17CD JUMP JUMPDEST ADD MLOAD PUSH1 0x0 NOT PUSH1 0xF8 DUP5 PUSH1 0x3 SHL AND SHR NOT AND SWAP1 SSTORE DUP4 DUP1 DUP1 PUSH2 0x2A81 JUMP JUMPDEST DUP2 DUP2 ADD MLOAD DUP4 SSTORE PUSH1 0x20 SWAP5 DUP6 ADD SWAP5 PUSH1 0x1 SWAP1 SWAP4 ADD SWAP3 SWAP1 SWAP2 ADD SWAP1 PUSH2 0x2A66 JUMP JUMPDEST ADD MLOAD SWAP1 POP DUP4 DUP1 PUSH2 0x1751 JUMP JUMPDEST SWAP3 POP PUSH1 0x9 DUP5 ADD PUSH1 0x0 MSTORE PUSH1 0x20 PUSH1 0x0 KECCAK256 SWAP1 PUSH1 0x0 SWAP4 JUMPDEST PUSH1 0x1F NOT DUP5 AND DUP6 LT PUSH2 0x2B27 JUMPI PUSH1 0x1 SWAP5 POP DUP4 PUSH1 0x1F NOT DUP2 AND LT PUSH2 0x2B0E JUMPI JUMPDEST POP POP POP DUP2 SHL ADD PUSH1 0x9 DUP3 ADD SSTORE PUSH2 0x1769 JUMP JUMPDEST ADD MLOAD PUSH1 0x0 NOT PUSH1 0xF8 DUP5 PUSH1 0x3 SHL AND SHR NOT AND SWAP1 SSTORE DUP4 DUP1 DUP1 PUSH2 0x2AFE JUMP JUMPDEST DUP2 DUP2 ADD MLOAD DUP4 SSTORE PUSH1 0x20 SWAP5 DUP6 ADD SWAP5 PUSH1 0x1 SWAP1 SWAP4 ADD SWAP3 SWAP1 SWAP2 ADD SWAP1 PUSH2 0x2AE3 JUMP JUMPDEST ADD MLOAD SWAP1 POP DUP4 DUP1 PUSH2 0x16ED JUMP JUMPDEST SWAP3 POP PUSH1 0x8 DUP5 ADD PUSH1 0x0 MSTORE PUSH1 0x20 PUSH1 0x0 KECCAK256 SWAP1 PUSH1 0x0 SWAP4 JUMPDEST PUSH1 0x1F NOT DUP5 AND DUP6 LT PUSH2 0x2BA4 JUMPI PUSH1 0x1 SWAP5 POP DUP4 PUSH1 0x1F NOT DUP2 AND LT PUSH2 0x2B8B JUMPI JUMPDEST POP POP POP DUP2 SHL ADD PUSH1 0x8 DUP3 ADD SSTORE PUSH2 0x1705 JUMP JUMPDEST ADD MLOAD PUSH1 0x0 NOT PUSH1 0xF8 DUP5 PUSH1 0x3 SHL AND SHR NOT AND SWAP1 SSTORE DUP4 DUP1 DUP1 PUSH2 0x2B7B JUMP JUMPDEST DUP2 DUP2 ADD MLOAD DUP4 SSTORE PUSH1 0x20 SWAP5 DUP6 ADD SWAP5 PUSH1 0x1 SWAP1 SWAP4 ADD SWAP3 SWAP1 SWAP2 ADD SWAP1 PUSH2 0x2B60 JUMP JUMPDEST ADD MLOAD SWAP1 POP DUP4 DUP1 PUSH2 0x1689 JUMP JUMPDEST SWAP3 POP PUSH1 0x7 DUP5 ADD PUSH1 0x0 MSTORE PUSH1 0x20 PUSH1 0x0 KECCAK256 SWAP1 PUSH1 0x0 SWAP4 JUMPDEST PUSH1 0x1F NOT DUP5 AND DUP6 LT PUSH2 0x2C21 JUMPI PUSH1 0x1 SWAP5 POP DUP4 PUSH1 0x1F NOT DUP2 AND LT PUSH2 0x2C08 JUMPI JUMPDEST POP POP POP DUP2 SHL ADD PUSH1 0x7 DUP3 ADD SSTORE PUSH2 0x16A1 JUMP JUMPDEST ADD MLOAD PUSH1 0x0 NOT PUSH1 0xF8 DUP5 PUSH1 0x3 SHL AND SHR NOT AND SWAP1 SSTORE DUP4 DUP1 DUP1 PUSH2 0x2BF8 JUMP JUMPDEST DUP2 DUP2 ADD MLOAD DUP4 SSTORE PUSH1 0x20 SWAP5 DUP6 ADD SWAP5 PUSH1 0x1 SWAP1 SWAP4 ADD SWAP3 SWAP1 SWAP2 ADD SWAP1 PUSH2 0x2BDD JUMP JUMPDEST ADD MLOAD SWAP1 POP DUP4 DUP1 PUSH2 0x1626 JUMP JUMPDEST SWAP3 POP PUSH1 0x6 DUP5 ADD PUSH1 0x0 MSTORE PUSH1 0x20 PUSH1 0x0 KECCAK256 SWAP1 PUSH1 0x0 SWAP4 JUMPDEST PUSH1 0x1F NOT DUP5 AND DUP6 LT PUSH2 0x2C9E JUMPI PUSH1 0x1 SWAP5 POP DUP4 PUSH1 0x1F NOT DUP2 AND LT PUSH2 0x2C85 JUMPI JUMPDEST POP POP POP DUP2 SHL ADD PUSH1 0x6 DUP3 ADD SSTORE PUSH2 0x163E JUMP JUMPDEST ADD MLOAD PUSH1 0x0 NOT PUSH1 0xF8 DUP5 PUSH1 0x3 SHL AND SHR NOT AND SWAP1 SSTORE DUP4 DUP1 DUP1 PUSH2 0x2C75 JUMP JUMPDEST DUP2 DUP2 ADD MLOAD DUP4 SSTORE PUSH1 0x20 SWAP5 DUP6 ADD SWAP5 PUSH1 0x1 SWAP1 SWAP4 ADD SWAP3 SWAP1 SWAP2 ADD SWAP1 PUSH2 0x2C5A JUMP JUMPDEST ADD MLOAD SWAP1 POP DUP4 DUP1 PUSH2 0x15C3 JUMP JUMPDEST SWAP3 POP PUSH1 0x5 DUP5 ADD PUSH1 0x0 MSTORE PUSH1 0x20 PUSH1 0x0 KECCAK256 SWAP1 PUSH1 0x0 SWAP4 JUMPDEST PUSH1 0x1F NOT DUP5 AND DUP6 LT PUSH2 0x2D1B JUMPI PUSH1 0x1 SWAP5 POP DUP4 PUSH1 0x1F NOT DUP2 AND LT PUSH2 0x2D02 JUMPI JUMPDEST POP POP POP DUP2 SHL ADD PUSH1 0x5 DUP3 ADD SSTORE PUSH2 0x15DB JUMP JUMPDEST ADD MLOAD PUSH1 0x0 NOT PUSH1 0xF8 DUP5 PUSH1 0x3 SHL AND SHR NOT AND SWAP1 SSTORE DUP4 DUP1 DUP1 PUSH2 0x2CF2 JUMP JUMPDEST DUP2 DUP2 ADD MLOAD DUP4 SSTORE PUSH1 0x20 SWAP5 DUP6 ADD SWAP5 PUSH1 0x1 SWAP1 SWAP4 ADD SWAP3 SWAP1 SWAP2 ADD SWAP1 PUSH2 0x2CD7 JUMP JUMPDEST ADD MLOAD SWAP1 POP DUP4 DUP1 PUSH2 0x1560 JUMP JUMPDEST SWAP3 POP PUSH1 0x4 DUP5 ADD PUSH1 0x0 MSTORE PUSH1 0x20 PUSH1 0x0 KECCAK256 SWAP1 PUSH1 0x0 SWAP4 JUMPDEST PUSH1 0x1F NOT DUP5 AND DUP6 LT PUSH2 0x2D98 JUMPI PUSH1 0x1 SWAP5 POP DUP4 PUSH1 0x1F NOT DUP2 AND LT PUSH2 0x2D7F JUMPI JUMPDEST POP POP POP DUP2 SHL ADD PUSH1 0x4 DUP3 ADD SSTORE PUSH2 0x1578 JUMP JUMPDEST ADD MLOAD PUSH1 0x0 NOT PUSH1 0xF8 DUP5 PUSH1 0x3 SHL AND SHR NOT AND SWAP1 SSTORE DUP4 DUP1 DUP1 PUSH2 0x2D6F JUMP JUMPDEST DUP2 DUP2 ADD MLOAD DUP4 SSTORE PUSH1 0x20 SWAP5 DUP6 ADD SWAP5 PUSH1 0x1 SWAP1 SWAP4 ADD SWAP3 SWAP1 SWAP2 ADD SWAP1 PUSH2 0x2D54 JUMP JUMPDEST ADD MLOAD SWAP1 POP DUP4 DUP1 PUSH2 0x14FD JUMP JUMPDEST SWAP3 POP PUSH1 0x3 DUP5 ADD PUSH1 0x0 MSTORE PUSH1 0x20 PUSH1 0x0 KECCAK256 SWAP1 PUSH1 0x0 SWAP4 JUMPDEST PUSH1 0x1F NOT DUP5 AND DUP6 LT PUSH2 0x2E15 JUMPI PUSH1 0x1 SWAP5 POP DUP4 PUSH1 0x1F NOT DUP2 AND LT PUSH2 0x2DFC JUMPI JUMPDEST POP POP POP DUP2 SHL ADD PUSH1 0x3 DUP3 ADD SSTORE PUSH2 0x1515 JUMP JUMPDEST ADD MLOAD PUSH1 0x0 NOT PUSH1 0xF8 DUP5 PUSH1 0x3 SHL AND SHR NOT AND SWAP1 SSTORE DUP4 DUP1 DUP1 PUSH2 0x2DEC JUMP JUMPDEST DUP2 DUP2 ADD MLOAD DUP4 SSTORE PUSH1 0x20 SWAP5 DUP6 ADD SWAP5 PUSH1 0x1 SWAP1 SWAP4 ADD SWAP3 SWAP1 SWAP2 ADD SWAP1 PUSH2 0x2DD1 JUMP JUMPDEST ADD MLOAD SWAP1 POP DUP4 DUP1 PUSH2 0x149A JUMP JUMPDEST SWAP3 POP PUSH1 0x2 DUP5 ADD PUSH1 0x0 MSTORE PUSH1 0x20 PUSH1 0x0 KECCAK256 SWAP1 PUSH1 0x0 SWAP4 JUMPDEST PUSH1 0x1F NOT DUP5 AND DUP6 LT PUSH2 0x2E92 JUMPI PUSH1 0x1 SWAP5 POP DUP4 PUSH1 0x1F NOT DUP2 AND LT PUSH2 0x2E79 JUMPI JUMPDEST POP POP POP DUP2 SHL ADD PUSH1 0x2 DUP3 ADD SSTORE PUSH2 0x14B2 JUMP JUMPDEST ADD MLOAD PUSH1 0x0 NOT PUSH1 0xF8 DUP5 PUSH1 0x3 SHL AND SHR NOT AND SWAP1 SSTORE DUP4 DUP1 DUP1 PUSH2 0x2E69 JUMP JUMPDEST DUP2 DUP2 ADD MLOAD DUP4 SSTORE PUSH1 0x20 SWAP5 DUP6 ADD SWAP5 PUSH1 0x1 SWAP1 SWAP4 ADD SWAP3 SWAP1 SWAP2 ADD SWAP1 PUSH2 0x2E4E JUMP JUMPDEST ADD MLOAD SWAP1 POP DUP4 DUP1 PUSH2 0x1437 JUMP JUMPDEST SWAP3 POP PUSH1 0x1 DUP5 ADD PUSH1 0x0 MSTORE PUSH1 0x20 PUSH1 0x0 KECCAK256 SWAP1 PUSH1 0x0 SWAP4 JUMPDEST PUSH1 0x1F NOT DUP5 AND DUP6 LT PUSH2 0x2F0F JUMPI PUSH1 0x1 SWAP5 POP DUP4 PUSH1 0x1F NOT DUP2 AND LT PUSH2 0x2EF6 JUMPI JUMPDEST POP POP POP DUP2 SHL ADD PUSH1 0x1 DUP3 ADD SSTORE PUSH2 0x144F JUMP JUMPDEST ADD MLOAD PUSH1 0x0 NOT PUSH1 0xF8 DUP5 PUSH1 0x3 SHL AND SHR NOT AND SWAP1 SSTORE DUP4 DUP1 DUP1 PUSH2 0x2EE6 JUMP JUMPDEST DUP2 DUP2 ADD MLOAD DUP4 SSTORE PUSH1 0x20 SWAP5 DUP6 ADD SWAP5 PUSH1 0x1 SWAP1 SWAP4 ADD SWAP3 SWAP1 SWAP2 ADD SWAP1 PUSH2 0x2ECB JUMP JUMPDEST ADD MLOAD SWAP1 POP DUP4 DUP1 PUSH2 0x13D7 JUMP JUMPDEST SWAP3 POP DUP4 PUSH1 0x0 MSTORE PUSH1 0x20 PUSH1 0x0 KECCAK256 SWAP1 PUSH1 0x0 SWAP4 JUMPDEST PUSH1 0x1F NOT DUP5 AND DUP6 LT PUSH2 0x2F86 JUMPI PUSH1 0x1 SWAP5 POP DUP4 PUSH1 0x1F NOT DUP2 AND LT PUSH2 0x2F6D JUMPI JUMPDEST POP POP POP DUP2 SHL ADD DUP2 SSTORE PUSH2 0x13EC JUMP JUMPDEST ADD MLOAD PUSH1 0x0 NOT PUSH1 0xF8 DUP5 PUSH1 0x3 SHL AND SHR NOT AND SWAP1 SSTORE DUP4 DUP1 DUP1 PUSH2 0x2F60 JUMP JUMPDEST DUP2 DUP2 ADD MLOAD DUP4 SSTORE PUSH1 0x20 SWAP5 DUP6 ADD SWAP5 PUSH1 0x1 SWAP1 SWAP4 ADD SWAP3 SWAP1 SWAP2 ADD SWAP1 PUSH2 0x2F45 JUMP JUMPDEST PUSH3 0x461BCD PUSH1 0xE5 SHL PUSH2 0x9C0 SWAP1 DUP2 MSTORE PUSH1 0x20 PUSH2 0x9C4 MSTORE PUSH1 0xB PUSH2 0x9E4 MSTORE PUSH11 0x139BDD081CDD195DD85C99 PUSH1 0xAA SHL PUSH2 0xA04 MSTORE PUSH1 0x64 SWAP1 REVERT JUMPDEST SWAP2 DUP2 PUSH1 0x1F DUP5 ADD SLT ISZERO PUSH2 0x54E JUMPI DUP3 CALLDATALOAD SWAP2 PUSH1 0x1 PUSH1 0x1 PUSH1 0x40 SHL SUB DUP4 GT PUSH2 0x54E JUMPI PUSH1 0x20 DUP4 DUP2 DUP7 ADD SWAP6 ADD ADD GT PUSH2 0x54E JUMPI JUMP JUMPDEST PUSH1 0x2 SLOAD DUP2 LT ISZERO PUSH2 0x3036 JUMPI PUSH1 0x2 PUSH1 0x0 MSTORE PUSH32 0x405787FA12A823E0F2B7631CC41B3BA8828B3321CA811111FA75CD3AA3BB5ACE ADD SWAP1 PUSH1 0x0 SWAP1 JUMP JUMPDEST PUSH4 0x4E487B71 PUSH1 0xE0 SHL PUSH1 0x0 MSTORE PUSH1 0x32 PUSH1 0x4 MSTORE PUSH1 0x24 PUSH1 0x0 REVERT JUMPDEST SWAP1 PUSH1 0x1 DUP3 DUP2 SHR SWAP3 AND DUP1 ISZERO PUSH2 0x307C JUMPI JUMPDEST PUSH1 0x20 DUP4 LT EQ PUSH2 0x3066 JUMPI JUMP JUMPDEST PUSH4 0x4E487B71 PUSH1 0xE0 SHL PUSH1 0x0 MSTORE PUSH1 0x22 PUSH1 0x4 MSTORE PUSH1 0x24 PUSH1 0x0 REVERT JUMPDEST SWAP2 PUSH1 0x7F AND SWAP2 PUSH2 0x305B JUMP JUMPDEST PUSH2 0x360 DUP2 ADD SWAP1 DUP2 LT PUSH1 0x1 PUSH1 0x1 PUSH1 0x40 SHL SUB DUP3 GT OR PUSH2 0x2264 JUMPI PUSH1 0x40 MSTORE JUMP JUMPDEST SWAP1 PUSH1 0x1F DUP1 NOT SWAP2 ADD AND DUP2 ADD SWAP1 DUP2 LT PUSH1 0x1 PUSH1 0x1 PUSH1 0x40 SHL SUB DUP3 GT OR PUSH2 0x2264 JUMPI PUSH1 0x40 MSTORE JUMP JUMPDEST SWAP1 PUSH1 0x40 MLOAD SWAP2 DUP3 PUSH1 0x0 DUP3 SLOAD SWAP3 PUSH2 0x30D7 DUP5 PUSH2 0x304C JUMP JUMPDEST SWAP1 DUP2 DUP5 MSTORE PUSH1 0x1 SWAP5 DUP6 DUP2 AND SWAP1 DUP2 PUSH1 0x0 EQ PUSH2 0x3146 JUMPI POP PUSH1 0x1 EQ PUSH2 0x3103 JUMPI JUMPDEST POP POP PUSH2 0x3101 SWAP3 POP SUB DUP4 PUSH2 0x30A2 JUMP JUMPDEST JUMP JUMPDEST SWAP1 SWAP4 SWAP2 POP PUSH1 0x0 MSTORE PUSH1 0x20 SWAP1 DUP2 PUSH1 0x0 KECCAK256 SWAP4 PUSH1 0x0 SWAP2 JUMPDEST DUP2 DUP4 LT PUSH2 0x312E JUMPI POP POP PUSH2 0x3101 SWAP4 POP DUP3 ADD ADD CODESIZE DUP1 PUSH2 0x30F3 JUMP JUMPDEST DUP6 SLOAD DUP9 DUP5 ADD DUP6 ADD MSTORE SWAP5 DUP6 ADD SWAP5 DUP8 SWAP5 POP SWAP2 DUP4 ADD SWAP2 PUSH2 0x3116 JUMP JUMPDEST SWAP2 POP POP PUSH2 0x3101 SWAP5 POP PUSH1 0x20 SWAP3 POP PUSH1 0xFF NOT AND DUP3 DUP5 ADD MSTORE ISZERO ISZERO PUSH1 0x5 SHL DUP3 ADD ADD CODESIZE DUP1 PUSH2 0x30F3 JUMP JUMPDEST PUSH1 0x0 JUMPDEST DUP4 DUP2 LT PUSH2 0x317C JUMPI POP POP PUSH1 0x0 SWAP2 ADD MSTORE JUMP JUMPDEST DUP2 DUP2 ADD MLOAD DUP4 DUP3 ADD MSTORE PUSH1 0x20 ADD PUSH2 0x316C JUMP JUMPDEST SWAP1 PUSH1 0x20 SWAP2 PUSH2 0x31A5 DUP2 MLOAD DUP1 SWAP3 DUP2 DUP6 MSTORE DUP6 DUP1 DUP7 ADD SWAP2 ADD PUSH2 0x3169 JUMP JUMPDEST PUSH1 0x1F ADD PUSH1 0x1F NOT AND ADD ADD SWAP1 JUMP JUMPDEST SWAP3 SWAP2 SWAP3 PUSH1 0x1 PUSH1 0x1 PUSH1 0x40 SHL SUB DUP3 GT PUSH2 0x2264 JUMPI PUSH1 0x40 MLOAD SWAP2 PUSH2 0x31DA PUSH1 0x1F DUP3 ADD PUSH1 0x1F NOT AND PUSH1 0x20 ADD DUP5 PUSH2 0x30A2 JUMP JUMPDEST DUP3 SWAP5 DUP2 DUP5 MSTORE DUP2 DUP4 ADD GT PUSH2 0x54E JUMPI DUP3 DUP2 PUSH1 0x20 SWAP4 DUP5 PUSH1 0x0 SWAP7 ADD CALLDATACOPY ADD ADD MSTORE JUMP JUMPDEST SWAP1 PUSH1 0x1F DUP2 GT PUSH2 0x3205 JUMPI POP POP POP JUMP JUMPDEST PUSH1 0x0 SWAP2 DUP3 MSTORE PUSH1 0x20 DUP3 KECCAK256 SWAP1 PUSH1 0x20 PUSH1 0x1F DUP6 ADD PUSH1 0x5 SHR DUP4 ADD SWAP5 LT PUSH2 0x3241 JUMPI JUMPDEST PUSH1 0x1F ADD PUSH1 0x5 SHR ADD SWAP2 JUMPDEST DUP3 DUP2 LT PUSH2 0x3236 JUMPI POP POP POP JUMP JUMPDEST DUP2 DUP2 SSTORE PUSH1 0x1 ADD PUSH2 0x322A JUMP JUMPDEST SWAP1 SWAP3 POP DUP3 SWAP1 PUSH2 0x3221 JUMP JUMPDEST SWAP1 DUP1 PUSH1 0x20 SWAP4 SWAP3 DUP2 DUP5 MSTORE DUP5 DUP5 ADD CALLDATACOPY PUSH1 0x0 DUP3 DUP3 ADD DUP5 ADD MSTORE PUSH1 0x1F ADD PUSH1 0x1F NOT AND ADD ADD SWAP1 JUMP INVALID LOG2 PUSH5 0x6970667358 0x22 SLT KECCAK256 ADDRESS 0xB6 0x24 0xEB 0xB3 PUSH6 0x81D18CBE8BA0 0xBB 0xAD CREATE2 CODESIZE 0xAC LT LOG4 0x5E 0x5E DUP12 JUMPDEST DUP10 0x2E PUSH11 0x76A41801CC8864736F6C63 NUMBER STOP ADDMOD EQ STOP CALLER "},"methodIdentifiers":{"codices(string)":"dbc21424","getCodex(string)":"83361522","inscribeCodex(string,string,string,string,string,string,string,string,string,string,string,string,string,string,string,string,string,string,string,string,string,string,string,string,string,string,string,string)":"0b0a124f","keys(uint256)":"0cb6aaf1","steward()":"637eea19","totalCodices()":"c212d16b"}}}}}