{"contracts/codex/SpiralboundCodexXV.sol":{"SpiralboundCodexXV":{"abi":[{"inputs":[],"stateMutability":"nonpayable","type":"constructor"},{"anonymous":false,"inputs":[{"indexed":false,"internalType":"string","name":"glyph","type":"string"},{"indexed":false,"internalType":"string","name":"tag","type":"string"},{"indexed":false,"internalType":"string","name":"binding","type":"string"},{"indexed":false,"internalType":"string","name":"annotation","type":"string"},{"indexed":false,"internalType":"string","name":"lineage","type":"string"},{"indexed":false,"internalType":"string","name":"resonance","type":"string"},{"indexed":false,"internalType":"string","name":"protocol","type":"string"},{"indexed":false,"internalType":"string","name":"sanctum","type":"string"},{"indexed":false,"internalType":"string","name":"pulse","type":"string"},{"indexed":false,"internalType":"string","name":"chant","type":"string"},{"indexed":false,"internalType":"string","name":"choreography","type":"string"},{"indexed":false,"internalType":"string","name":"drift","type":"string"},{"indexed":false,"internalType":"string","name":"signature","type":"string"},{"indexed":false,"internalType":"string","name":"signal","type":"string"},{"indexed":false,"internalType":"string","name":"companion","type":"string"},{"indexed":false,"internalType":"string","name":"stewardName","type":"string"}],"name":"CodexInscribed","type":"event"},{"inputs":[{"internalType":"string","name":"","type":"string"}],"name":"codices","outputs":[{"internalType":"string","name":"tag","type":"string"},{"internalType":"string","name":"binding","type":"string"},{"internalType":"string","name":"annotation","type":"string"},{"internalType":"string","name":"lineage","type":"string"},{"internalType":"string","name":"resonance","type":"string"},{"internalType":"string","name":"protocol","type":"string"},{"internalType":"string","name":"sanctum","type":"string"},{"internalType":"string","name":"pulse","type":"string"},{"internalType":"string","name":"chant","type":"string"},{"internalType":"string","name":"choreography","type":"string"},{"internalType":"string","name":"drift","type":"string"},{"internalType":"string","name":"signature","type":"string"},{"internalType":"string","name":"signal","type":"string"},{"internalType":"string","name":"companion","type":"string"},{"internalType":"string","name":"stewardName","type":"string"}],"stateMutability":"view","type":"function"},{"inputs":[{"internalType":"string","name":"glyph","type":"string"}],"name":"getCodex","outputs":[{"components":[{"internalType":"string","name":"tag","type":"string"},{"internalType":"string","name":"binding","type":"string"},{"internalType":"string","name":"annotation","type":"string"},{"internalType":"string","name":"lineage","type":"string"},{"internalType":"string","name":"resonance","type":"string"},{"internalType":"string","name":"protocol","type":"string"},{"internalType":"string","name":"sanctum","type":"string"},{"internalType":"string","name":"pulse","type":"string"},{"internalType":"string","name":"chant","type":"string"},{"internalType":"string","name":"choreography","type":"string"},{"internalType":"string","name":"drift","type":"string"},{"internalType":"string","name":"signature","type":"string"},{"internalType":"string","name":"signal","type":"string"},{"internalType":"string","name":"companion","type":"string"},{"internalType":"string","name":"stewardName","type":"string"}],"internalType":"struct SpiralboundCodexXV.Codex","name":"","type":"tuple"}],"stateMutability":"view","type":"function"},{"inputs":[{"internalType":"string","name":"glyph","type":"string"},{"internalType":"string","name":"tag","type":"string"},{"internalType":"string","name":"binding","type":"string"},{"internalType":"string","name":"annotation","type":"string"},{"internalType":"string","name":"lineage","type":"string"},{"internalType":"string","name":"resonance","type":"string"},{"internalType":"string","name":"protocol","type":"string"},{"internalType":"string","name":"sanctum","type":"string"},{"internalType":"string","name":"pulse","type":"string"},{"internalType":"string","name":"chant","type":"string"},{"internalType":"string","name":"choreography","type":"string"},{"internalType":"string","name":"drift","type":"string"},{"internalType":"string","name":"signature","type":"string"},{"internalType":"string","name":"signal","type":"string"},{"internalType":"string","name":"companion","type":"string"},{"internalType":"string","name":"stewardName","type":"string"}],"name":"inscribeCodex","outputs":[],"stateMutability":"nonpayable","type":"function"},{"inputs":[{"internalType":"uint256","name":"","type":"uint256"}],"name":"keys","outputs":[{"internalType":"string","name":"","type":"string"}],"stateMutability":"view","type":"function"},{"inputs":[],"name":"steward","outputs":[{"internalType":"address","name":"","type":"address"}],"stateMutability":"view","type":"function"},{"inputs":[],"name":"totalCodices","outputs":[{"internalType":"uint256","name":"","type":"uint256"}],"stateMutability":"view","type":"function"}],"evm":{"bytecode":{"linkReferences":{},"object":"6080806040523461002857600080546001600160a01b03191633179055611df9908161002e8239f35b600080fdfe6104c0604052600436101561001357600080fd5b60003560e01c80630cb6aaf114611ade578063637eea1914611ab5578063833615221461176957806394e5ca6b146102b4578063c212d16b146102965763dbc214241461005f57600080fd5b34610291576020366003190112610291576004356001600160401b03811161029157366023820112156102915736816004013591602401916100a092611d08565b60405181818093516020819301916100b792611c93565b8101600181520360200190206100cc81611bed565b906100d960018201611bed565b906100e660028201611bed565b906100f360038201611bed565b6100ff60048301611bed565b61010b60058401611bed565b61011760068501611bed565b61012360078601611bed565b61012f60088701611bed565b9061013c60098801611bed565b92610149600a8901611bed565b94610156600b8a01611bed565b96610163600c8b01611bed565b98610170600d8c01611bed565b9a600e0161017d90611bed565b9b6040519e8f9e8f916101e0808452830161019791611cb6565b82810360208401526101a891611cb6565b9080820390604001526101ba91611cb6565b8d810360608f01526101cb91611cb6565b8c810360808e01526101dc91611cb6565b8b810360a08d01526101ed91611cb6565b8a810360c08c01526101fe91611cb6565b89810360e08b015261020f91611cb6565b8881036101008a015261022191611cb6565b87810361012089015261023391611cb6565b86810361014088015261024591611cb6565b85810361016087015261025791611cb6565b84810361018086015261026991611cb6565b8381036101a085015261027b91611cb6565b8281036101c084015261028d91611cb6565b0390f35b600080fd5b34610291576000366003190112610291576020600254604051908152f35b3461029157610200366003190112610291576004356001600160401b038111610291576102e5903690600401611cdb565b61034052610320526024356001600160401b0381116102915761030c903690600401611cdb565b6103c052610140526044356001600160401b03811161029157610333903690600401611cdb565b60e052610280526064356001600160401b03811161029157610359903690600401611cdb565b60c052610460526084356001600160401b0381116102915761037f903690600401611cdb565b610240526104a0526001600160401b0360a43511610291576103a63660a435600401611cdb565b6080526101c0526001600160401b0360c43511610291576103cc3660c435600401611cdb565b60a052610400526001600160401b0360e43511610291576103f23660e435600401611cdb565b6102c052610440526001600160401b0361010435116102915761041b3661010435600401611cdb565b6101e0526102a0526001600160401b036101243511610291576104443661012435600401611cdb565b6103a0526102e0526001600160401b0361014435116102915761046d3661014435600401611cdb565b61038052610360526001600160401b036101643511610291576104963661016435600401611cdb565b6101a052610260526001600160401b036101843511610291576104bf3661018435600401611cdb565b61042052610220526001600160401b036101a43511610291576104e8366101a435600401611cdb565b6103e052610480526001600160401b036101c4351161029157610511366101c435600401611cdb565b61012052610300526001600160401b036101e435116102915761053a366101e435600401611cdb565b61016052610180526000546001600160a01b03163303611736576105646040518061020052611bb0565b610575366103c05161014051611d08565b610200515261058a3660e05161028051611d08565b60206102005101526105a23660c05161046051611d08565b60406102005101526105bb36610240516104a051611d08565b60606102005101526105d3366080516101c051611d08565b60806102005101526105eb3660a05161040051611d08565b60a0610200510152610604366102c05161044051611d08565b60c061020051015261061d366101e0516102a051611d08565b60e0610200510152610636366103a0516102e051611d08565b610100610200510152610650366103805161036051611d08565b61012061020051015261066a366101a05161026051611d08565b610140610200510152610684366104205161022051611d08565b61016061020051015261069e366103e05161048051611d08565b6101806102005101526106b8366101205161030051611d08565b6101a06102005101526106d2366101605161018051611d08565b6101c0610200510152604051610340516103205182376001610340518201526020816103405181010301902061020051518051906001600160401b038211610fbf57819061072a826107248654611b76565b86611d4e565b602090601f83116001146116ca576000926116bf575b50508160011b916000199060031b1c19161781555b60206102005101518051906001600160401b038211610fbf57819061078a826107816001870154611b76565b60018701611d4e565b602090601f831160011461164d57600092611642575b50508160011b916000199060031b1c19161760018201555b60406102005101518051906001600160401b038211610fbf5781906107ed826107e46002870154611b76565b60028701611d4e565b602090601f83116001146115d0576000926115c5575b50508160011b916000199060031b1c19161760028201555b60606102005101518051906001600160401b038211610fbf578190610850826108476003870154611b76565b60038701611d4e565b602090601f831160011461155357600092611548575b50508160011b916000199060031b1c19161760038201555b60806102005101518051906001600160401b038211610fbf5781906108b3826108aa6004870154611b76565b60048701611d4e565b602090601f83116001146114d6576000926114cb575b50508160011b916000199060031b1c19161760048201555b60a06102005101518051906001600160401b038211610fbf5781906109168261090d6005870154611b76565b60058701611d4e565b602090601f83116001146114595760009261144e575b50508160011b916000199060031b1c19161760058201555b60c06102005101518051906001600160401b038211610fbf578190610979826109706006870154611b76565b60068701611d4e565b602090601f83116001146113dc576000926113d1575b50508160011b916000199060031b1c19161760068201555b60e06102005101518051906001600160401b038211610fbf5781906109dc826109d36007870154611b76565b60078701611d4e565b602090601f831160011461135f57600092611354575b50508160011b916000199060031b1c19161760078201555b6101006102005101518051906001600160401b038211610fbf578190610a4082610a376008870154611b76565b60088701611d4e565b602090601f83116001146112e2576000926112d7575b50508160011b916000199060031b1c19161760088201555b6101206102005101518051906001600160401b038211610fbf578190610aa482610a9b6009870154611b76565b60098701611d4e565b602090601f83116001146112655760009261125a575b50508160011b916000199060031b1c19161760098201555b6101406102005101518051906001600160401b038211610fbf578190610b0882610aff600a870154611b76565b600a8701611d4e565b602090601f83116001146111e8576000926111dd575b50508160011b916000199060031b1c191617600a8201555b6101606102005101518051906001600160401b038211610fbf578190610b6c82610b63600b870154611b76565b600b8701611d4e565b602090601f831160011461116b57600092611160575b50508160011b916000199060031b1c191617600b8201555b6101806102005101518051906001600160401b038211610fbf578190610bd082610bc7600c870154611b76565b600c8701611d4e565b602090601f83116001146110ee576000926110e3575b50508160011b916000199060031b1c191617600c8201555b6101a06102005101518051906001600160401b038211610fbf578190610c3482610c2b600d870154611b76565b600d8701611d4e565b602090601f831160011461107157600092611066575b50508160011b916000199060031b1c191617600d8201555b6101c06102005101518051906001600160401b038211610fbf57610c9682610c8d600e860154611b76565b600e8601611d4e565b602090601f8311600114610ff657600e929160009183610feb575b50508160011b916000199060031b1c1916179101555b60025468010000000000000000811015610fbf57806001610ceb9201600255611b29565b610fd557610340516001600160401b038111610fbf57610d1590610d0f8354611b76565b83611d4e565b60009061034051601f8111600114610f525750906000610340519182610f44575b508160011b916000199060031b1c19161790555b6102006040518061010052527f26bf9f94d607085acf310acdbf9cf91b9133e8c34e463d7ff46356a17a6e9269610f1a610f00610ee6610ecc610eb2610e98610e7e610e64610e4b610e33610e1b610e02610dea610dd2610db961020061010051016103405161032051611da2565b6101005160208183039101526103c05161014051611da2565b61010051604081830391015260e05161028051611da2565b61010051606081830391015260c05161046051611da2565b610100516080818303910152610240516104a051611da2565b6101005160a08183039101526080516101c051611da2565b6101005160c081830391015260a05161040051611da2565b6101005160e08183039101526102c05161044051611da2565b610100516101008183039101526101e0516102a051611da2565b610100516101208183039101526103a0516102e051611da2565b610100516101408183039101526103805161036051611da2565b610100516101608183039101526101a05161026051611da2565b610100516101808183039101526104205161022051611da2565b610100516101a08183039101526103e05161048051611da2565b610100516101c08183039101526101205161030051611da2565b610100516101e0818303910152610f3c61010051916101605161018051611da2565b0361010051a1005b905061032051013583610d36565b81600052602060002060009361032051905b601f1984168610610fa757600194955083601f19811610610f8d575b505050811b019055610d4a565b0135600019600384901b60f8161c19169055838080610f80565b91602060018192858501358155019301950194610f64565b634e487b7160e01b600052604160045260246000fd5b634e487b7160e01b600052600060045260246000fd5b015190508480610cb1565b90600e840160005260206000209160005b601f198516811061104e5750918391600193600e95601f19811610611035575b505050811b01910155610cc7565b015160001960f88460031b161c19169055848080611027565b91926020600181928685015181550194019201611007565b015190508380610c4a565b9250600d84016000526020600020906000935b601f19841685106110c8576001945083601f198116106110af575b505050811b01600d820155610c62565b015160001960f88460031b161c1916905583808061109f565b81810151835560209485019460019093019290910190611084565b015190508380610be6565b9250600c84016000526020600020906000935b601f1984168510611145576001945083601f1981161061112c575b505050811b01600c820155610bfe565b015160001960f88460031b161c1916905583808061111c565b81810151835560209485019460019093019290910190611101565b015190508380610b82565b9250600b84016000526020600020906000935b601f19841685106111c2576001945083601f198116106111a9575b505050811b01600b820155610b9a565b015160001960f88460031b161c19169055838080611199565b8181015183556020948501946001909301929091019061117e565b015190508380610b1e565b9250600a84016000526020600020906000935b601f198416851061123f576001945083601f19811610611226575b505050811b01600a820155610b36565b015160001960f88460031b161c19169055838080611216565b818101518355602094850194600190930192909101906111fb565b015190508380610aba565b9250600984016000526020600020906000935b601f19841685106112bc576001945083601f198116106112a3575b505050811b016009820155610ad2565b015160001960f88460031b161c19169055838080611293565b81810151835560209485019460019093019290910190611278565b015190508380610a56565b9250600884016000526020600020906000935b601f1984168510611339576001945083601f19811610611320575b505050811b016008820155610a6e565b015160001960f88460031b161c19169055838080611310565b818101518355602094850194600190930192909101906112f5565b0151905083806109f2565b9250600784016000526020600020906000935b601f19841685106113b6576001945083601f1981161061139d575b505050811b016007820155610a0a565b015160001960f88460031b161c1916905583808061138d565b81810151835560209485019460019093019290910190611372565b01519050838061098f565b9250600684016000526020600020906000935b601f1984168510611433576001945083601f1981161061141a575b505050811b0160068201556109a7565b015160001960f88460031b161c1916905583808061140a565b818101518355602094850194600190930192909101906113ef565b01519050838061092c565b9250600584016000526020600020906000935b601f19841685106114b0576001945083601f19811610611497575b505050811b016005820155610944565b015160001960f88460031b161c19169055838080611487565b8181015183556020948501946001909301929091019061146c565b0151905083806108c9565b9250600484016000526020600020906000935b601f198416851061152d576001945083601f19811610611514575b505050811b0160048201556108e1565b015160001960f88460031b161c19169055838080611504565b818101518355602094850194600190930192909101906114e9565b015190508380610866565b9250600384016000526020600020906000935b601f19841685106115aa576001945083601f19811610611591575b505050811b01600382015561087e565b015160001960f88460031b161c19169055838080611581565b81810151835560209485019460019093019290910190611566565b015190508380610803565b9250600284016000526020600020906000935b601f1984168510611627576001945083601f1981161061160e575b505050811b01600282015561081b565b015160001960f88460031b161c191690558380806115fe565b818101518355602094850194600190930192909101906115e3565b0151905083806107a0565b9250600184016000526020600020906000935b601f19841685106116a4576001945083601f1981161061168b575b505050811b0160018201556107b8565b015160001960f88460031b161c1916905583808061167b565b81810151835560209485019460019093019290910190611660565b015190508380610740565b9250836000526020600020906000935b601f198416851061171b576001945083601f19811610611702575b505050811b018155610755565b015160001960f88460031b161c191690558380806116f5565b818101518355602094850194600190930192909101906116da565b60405162461bcd60e51b815260206004820152600b60248201526a139bdd081cdd195dd85c9960aa1b6044820152606490fd5b34610291576020366003190112610291576004356001600160401b03811161029157602061179e6119cd923690600401611cdb565b919060606101c06040516117b181611bb0565b828152828582015282604082015282808201528260808201528260a08201528260c08201528260e08201528261010082015282610120820152826101408201528261016082015282610180820152826101a0820152015282604051938492833781016001815203019020611921600e6040519261182d84611bb0565b61183681611bed565b845261184460018201611bed565b602085015261185560028201611bed565b604085015261186660038201611bed565b606085015261187760048201611bed565b608085015261188860058201611bed565b60a085015261189960068201611bed565b60c08501526118aa60078201611bed565b60e08501526118bb60088201611bed565b6101008501526118cd60098201611bed565b6101208501526118df600a8201611bed565b6101408501526118f1600b8201611bed565b610160850152611903600c8201611bed565b610180850152611915600d8201611bed565b6101a085015201611bed565b6101c082015261028d816101c0611aa0611a8a611a72611a5a611a42611a2a611a126119fb6119e56040519d8e9d8e6020815260806119b86119a361198d61197786516101e06020880152610200870190611cb6565b6020870151868203601f19016040880152611cb6565b6040860151858203601f19016060870152611cb6565b6060850151848203601f190184860152611cb6565b9201519060a0601f1982850301910152611cb6565b8d60a08d01519060c0601f1982850301910152611cb6565b60c08b01518d8203601f190160e08f0152611cb6565b60e08a01518c8203601f19016101008e0152611cb6565b6101008901518b8203601f19016101208d0152611cb6565b6101208801518a8203601f19016101408c0152611cb6565b610140870151898203601f19016101608b0152611cb6565b610160860151888203601f19016101808a0152611cb6565b610180850151878203601f19016101a0890152611cb6565b6101a0840151868203601f190184880152611cb6565b910151838203601f19016101e0850152611cb6565b34610291576000366003190112610291576000546040516001600160a01b039091168152602090f35b346102915760203660031901126102915760043560025481101561029157611b0590611b29565b610fd557611b1561028d91611bed565b604051918291602083526020830190611cb6565b600254811015611b605760026000527f405787fa12a823e0f2b7631cc41b3ba8828b3321ca811111fa75cd3aa3bb5ace0190600090565b634e487b7160e01b600052603260045260246000fd5b90600182811c92168015611ba6575b6020831014611b9057565b634e487b7160e01b600052602260045260246000fd5b91607f1691611b85565b6101e081019081106001600160401b03821117610fbf57604052565b90601f801991011681019081106001600160401b03821117610fbf57604052565b9060405191826000825492611c0184611b76565b908184526001948581169081600014611c705750600114611c2d575b5050611c2b92500383611bcc565b565b9093915060005260209081600020936000915b818310611c58575050611c2b93508201013880611c1d565b85548884018501529485019487945091830191611c40565b915050611c2b94506020925060ff191682840152151560051b8201013880611c1d565b60005b838110611ca65750506000910152565b8181015183820152602001611c96565b90602091611ccf81518092818552858086019101611c93565b601f01601f1916010190565b9181601f84011215610291578235916001600160401b038311610291576020838186019501011161029157565b9291926001600160401b038211610fbf5760405191611d31601f8201601f191660200184611bcc565b829481845281830111610291578281602093846000960137010152565b90601f8111611d5c57505050565b600091825260208220906020601f850160051c83019410611d98575b601f0160051c01915b828110611d8d57505050565b818155600101611d81565b9092508290611d78565b908060209392818452848401376000828201840152601f01601f191601019056fea26469706673582212208a9c26c0d8dd032c64b9d398f41a47d35cbbfd6a638ef315f33cda9ee431337a64736f6c63430008140033","opcodes":"PUSH1 0x80 DUP1 PUSH1 0x40 MSTORE CALLVALUE PUSH2 0x28 JUMPI PUSH1 0x0 DUP1 SLOAD PUSH1 0x1 PUSH1 0x1 PUSH1 0xA0 SHL SUB NOT AND CALLER OR SWAP1 SSTORE PUSH2 0x1DF9 SWAP1 DUP2 PUSH2 0x2E DUP3 CODECOPY RETURN JUMPDEST PUSH1 0x0 DUP1 REVERT INVALID PUSH2 0x4C0 PUSH1 0x40 MSTORE PUSH1 0x4 CALLDATASIZE LT ISZERO PUSH2 0x13 JUMPI PUSH1 0x0 DUP1 REVERT JUMPDEST PUSH1 0x0 CALLDATALOAD PUSH1 0xE0 SHR DUP1 PUSH4 0xCB6AAF1 EQ PUSH2 0x1ADE JUMPI DUP1 PUSH4 0x637EEA19 EQ PUSH2 0x1AB5 JUMPI DUP1 PUSH4 0x83361522 EQ PUSH2 0x1769 JUMPI DUP1 PUSH4 0x94E5CA6B EQ PUSH2 0x2B4 JUMPI DUP1 PUSH4 0xC212D16B EQ PUSH2 0x296 JUMPI PUSH4 0xDBC21424 EQ PUSH2 0x5F JUMPI PUSH1 0x0 DUP1 REVERT JUMPDEST CALLVALUE PUSH2 0x291 JUMPI PUSH1 0x20 CALLDATASIZE PUSH1 0x3 NOT ADD SLT PUSH2 0x291 JUMPI PUSH1 0x4 CALLDATALOAD PUSH1 0x1 PUSH1 0x1 PUSH1 0x40 SHL SUB DUP2 GT PUSH2 0x291 JUMPI CALLDATASIZE PUSH1 0x23 DUP3 ADD SLT ISZERO PUSH2 0x291 JUMPI CALLDATASIZE DUP2 PUSH1 0x4 ADD CALLDATALOAD SWAP2 PUSH1 0x24 ADD SWAP2 PUSH2 0xA0 SWAP3 PUSH2 0x1D08 JUMP JUMPDEST PUSH1 0x40 MLOAD DUP2 DUP2 DUP1 SWAP4 MLOAD PUSH1 0x20 DUP2 SWAP4 ADD SWAP2 PUSH2 0xB7 SWAP3 PUSH2 0x1C93 JUMP JUMPDEST DUP2 ADD PUSH1 0x1 DUP2 MSTORE SUB PUSH1 0x20 ADD SWAP1 KECCAK256 PUSH2 0xCC DUP2 PUSH2 0x1BED JUMP JUMPDEST SWAP1 PUSH2 0xD9 PUSH1 0x1 DUP3 ADD PUSH2 0x1BED JUMP JUMPDEST SWAP1 PUSH2 0xE6 PUSH1 0x2 DUP3 ADD PUSH2 0x1BED JUMP JUMPDEST SWAP1 PUSH2 0xF3 PUSH1 0x3 DUP3 ADD PUSH2 0x1BED JUMP JUMPDEST PUSH2 0xFF PUSH1 0x4 DUP4 ADD PUSH2 0x1BED JUMP JUMPDEST PUSH2 0x10B PUSH1 0x5 DUP5 ADD PUSH2 0x1BED JUMP JUMPDEST PUSH2 0x117 PUSH1 0x6 DUP6 ADD PUSH2 0x1BED JUMP JUMPDEST PUSH2 0x123 PUSH1 0x7 DUP7 ADD PUSH2 0x1BED JUMP JUMPDEST PUSH2 0x12F PUSH1 0x8 DUP8 ADD PUSH2 0x1BED JUMP JUMPDEST SWAP1 PUSH2 0x13C PUSH1 0x9 DUP9 ADD PUSH2 0x1BED JUMP JUMPDEST SWAP3 PUSH2 0x149 PUSH1 0xA DUP10 ADD PUSH2 0x1BED JUMP JUMPDEST SWAP5 PUSH2 0x156 PUSH1 0xB DUP11 ADD PUSH2 0x1BED JUMP JUMPDEST SWAP7 PUSH2 0x163 PUSH1 0xC DUP12 ADD PUSH2 0x1BED JUMP JUMPDEST SWAP9 PUSH2 0x170 PUSH1 0xD DUP13 ADD PUSH2 0x1BED JUMP JUMPDEST SWAP11 PUSH1 0xE ADD PUSH2 0x17D SWAP1 PUSH2 0x1BED JUMP JUMPDEST SWAP12 PUSH1 0x40 MLOAD SWAP15 DUP16 SWAP15 DUP16 SWAP2 PUSH2 0x1E0 DUP1 DUP5 MSTORE DUP4 ADD PUSH2 0x197 SWAP2 PUSH2 0x1CB6 JUMP JUMPDEST DUP3 DUP2 SUB PUSH1 0x20 DUP5 ADD MSTORE PUSH2 0x1A8 SWAP2 PUSH2 0x1CB6 JUMP JUMPDEST SWAP1 DUP1 DUP3 SUB SWAP1 PUSH1 0x40 ADD MSTORE PUSH2 0x1BA SWAP2 PUSH2 0x1CB6 JUMP JUMPDEST DUP14 DUP2 SUB PUSH1 0x60 DUP16 ADD MSTORE PUSH2 0x1CB SWAP2 PUSH2 0x1CB6 JUMP JUMPDEST DUP13 DUP2 SUB PUSH1 0x80 DUP15 ADD MSTORE PUSH2 0x1DC SWAP2 PUSH2 0x1CB6 JUMP JUMPDEST DUP12 DUP2 SUB PUSH1 0xA0 DUP14 ADD MSTORE PUSH2 0x1ED SWAP2 PUSH2 0x1CB6 JUMP JUMPDEST DUP11 DUP2 SUB PUSH1 0xC0 DUP13 ADD MSTORE PUSH2 0x1FE SWAP2 PUSH2 0x1CB6 JUMP JUMPDEST DUP10 DUP2 SUB PUSH1 0xE0 DUP12 ADD MSTORE PUSH2 0x20F SWAP2 PUSH2 0x1CB6 JUMP JUMPDEST DUP9 DUP2 SUB PUSH2 0x100 DUP11 ADD MSTORE PUSH2 0x221 SWAP2 PUSH2 0x1CB6 JUMP JUMPDEST DUP8 DUP2 SUB PUSH2 0x120 DUP10 ADD MSTORE PUSH2 0x233 SWAP2 PUSH2 0x1CB6 JUMP JUMPDEST DUP7 DUP2 SUB PUSH2 0x140 DUP9 ADD MSTORE PUSH2 0x245 SWAP2 PUSH2 0x1CB6 JUMP JUMPDEST DUP6 DUP2 SUB PUSH2 0x160 DUP8 ADD MSTORE PUSH2 0x257 SWAP2 PUSH2 0x1CB6 JUMP JUMPDEST DUP5 DUP2 SUB PUSH2 0x180 DUP7 ADD MSTORE PUSH2 0x269 SWAP2 PUSH2 0x1CB6 JUMP JUMPDEST DUP4 DUP2 SUB PUSH2 0x1A0 DUP6 ADD MSTORE PUSH2 0x27B SWAP2 PUSH2 0x1CB6 JUMP JUMPDEST DUP3 DUP2 SUB PUSH2 0x1C0 DUP5 ADD MSTORE PUSH2 0x28D SWAP2 PUSH2 0x1CB6 JUMP JUMPDEST SUB SWAP1 RETURN JUMPDEST PUSH1 0x0 DUP1 REVERT JUMPDEST CALLVALUE PUSH2 0x291 JUMPI PUSH1 0x0 CALLDATASIZE PUSH1 0x3 NOT ADD SLT PUSH2 0x291 JUMPI PUSH1 0x20 PUSH1 0x2 SLOAD PUSH1 0x40 MLOAD SWAP1 DUP2 MSTORE RETURN JUMPDEST CALLVALUE PUSH2 0x291 JUMPI PUSH2 0x200 CALLDATASIZE PUSH1 0x3 NOT ADD SLT PUSH2 0x291 JUMPI PUSH1 0x4 CALLDATALOAD PUSH1 0x1 PUSH1 0x1 PUSH1 0x40 SHL SUB DUP2 GT PUSH2 0x291 JUMPI PUSH2 0x2E5 SWAP1 CALLDATASIZE SWAP1 PUSH1 0x4 ADD PUSH2 0x1CDB JUMP JUMPDEST PUSH2 0x340 MSTORE PUSH2 0x320 MSTORE PUSH1 0x24 CALLDATALOAD PUSH1 0x1 PUSH1 0x1 PUSH1 0x40 SHL SUB DUP2 GT PUSH2 0x291 JUMPI PUSH2 0x30C SWAP1 CALLDATASIZE SWAP1 PUSH1 0x4 ADD PUSH2 0x1CDB JUMP JUMPDEST PUSH2 0x3C0 MSTORE PUSH2 0x140 MSTORE PUSH1 0x44 CALLDATALOAD PUSH1 0x1 PUSH1 0x1 PUSH1 0x40 SHL SUB DUP2 GT PUSH2 0x291 JUMPI PUSH2 0x333 SWAP1 CALLDATASIZE SWAP1 PUSH1 0x4 ADD PUSH2 0x1CDB JUMP JUMPDEST PUSH1 0xE0 MSTORE PUSH2 0x280 MSTORE PUSH1 0x64 CALLDATALOAD PUSH1 0x1 PUSH1 0x1 PUSH1 0x40 SHL SUB DUP2 GT PUSH2 0x291 JUMPI PUSH2 0x359 SWAP1 CALLDATASIZE SWAP1 PUSH1 0x4 ADD PUSH2 0x1CDB JUMP JUMPDEST PUSH1 0xC0 MSTORE PUSH2 0x460 MSTORE PUSH1 0x84 CALLDATALOAD PUSH1 0x1 PUSH1 0x1 PUSH1 0x40 SHL SUB DUP2 GT PUSH2 0x291 JUMPI PUSH2 0x37F SWAP1 CALLDATASIZE SWAP1 PUSH1 0x4 ADD PUSH2 0x1CDB JUMP JUMPDEST PUSH2 0x240 MSTORE PUSH2 0x4A0 MSTORE PUSH1 0x1 PUSH1 0x1 PUSH1 0x40 SHL SUB PUSH1 0xA4 CALLDATALOAD GT PUSH2 0x291 JUMPI PUSH2 0x3A6 CALLDATASIZE PUSH1 0xA4 CALLDATALOAD PUSH1 0x4 ADD PUSH2 0x1CDB JUMP JUMPDEST PUSH1 0x80 MSTORE PUSH2 0x1C0 MSTORE PUSH1 0x1 PUSH1 0x1 PUSH1 0x40 SHL SUB PUSH1 0xC4 CALLDATALOAD GT PUSH2 0x291 JUMPI PUSH2 0x3CC CALLDATASIZE PUSH1 0xC4 CALLDATALOAD PUSH1 0x4 ADD PUSH2 0x1CDB JUMP JUMPDEST PUSH1 0xA0 MSTORE PUSH2 0x400 MSTORE PUSH1 0x1 PUSH1 0x1 PUSH1 0x40 SHL SUB PUSH1 0xE4 CALLDATALOAD GT PUSH2 0x291 JUMPI PUSH2 0x3F2 CALLDATASIZE PUSH1 0xE4 CALLDATALOAD PUSH1 0x4 ADD PUSH2 0x1CDB JUMP JUMPDEST PUSH2 0x2C0 MSTORE PUSH2 0x440 MSTORE PUSH1 0x1 PUSH1 0x1 PUSH1 0x40 SHL SUB PUSH2 0x104 CALLDATALOAD GT PUSH2 0x291 JUMPI PUSH2 0x41B CALLDATASIZE PUSH2 0x104 CALLDATALOAD PUSH1 0x4 ADD PUSH2 0x1CDB JUMP JUMPDEST PUSH2 0x1E0 MSTORE PUSH2 0x2A0 MSTORE PUSH1 0x1 PUSH1 0x1 PUSH1 0x40 SHL SUB PUSH2 0x124 CALLDATALOAD GT PUSH2 0x291 JUMPI PUSH2 0x444 CALLDATASIZE PUSH2 0x124 CALLDATALOAD PUSH1 0x4 ADD PUSH2 0x1CDB JUMP JUMPDEST PUSH2 0x3A0 MSTORE PUSH2 0x2E0 MSTORE PUSH1 0x1 PUSH1 0x1 PUSH1 0x40 SHL SUB PUSH2 0x144 CALLDATALOAD GT PUSH2 0x291 JUMPI PUSH2 0x46D CALLDATASIZE PUSH2 0x144 CALLDATALOAD PUSH1 0x4 ADD PUSH2 0x1CDB JUMP JUMPDEST PUSH2 0x380 MSTORE PUSH2 0x360 MSTORE PUSH1 0x1 PUSH1 0x1 PUSH1 0x40 SHL SUB PUSH2 0x164 CALLDATALOAD GT PUSH2 0x291 JUMPI PUSH2 0x496 CALLDATASIZE PUSH2 0x164 CALLDATALOAD PUSH1 0x4 ADD PUSH2 0x1CDB JUMP JUMPDEST PUSH2 0x1A0 MSTORE PUSH2 0x260 MSTORE PUSH1 0x1 PUSH1 0x1 PUSH1 0x40 SHL SUB PUSH2 0x184 CALLDATALOAD GT PUSH2 0x291 JUMPI PUSH2 0x4BF CALLDATASIZE PUSH2 0x184 CALLDATALOAD PUSH1 0x4 ADD PUSH2 0x1CDB JUMP JUMPDEST PUSH2 0x420 MSTORE PUSH2 0x220 MSTORE PUSH1 0x1 PUSH1 0x1 PUSH1 0x40 SHL SUB PUSH2 0x1A4 CALLDATALOAD GT PUSH2 0x291 JUMPI PUSH2 0x4E8 CALLDATASIZE PUSH2 0x1A4 CALLDATALOAD PUSH1 0x4 ADD PUSH2 0x1CDB JUMP JUMPDEST PUSH2 0x3E0 MSTORE PUSH2 0x480 MSTORE PUSH1 0x1 PUSH1 0x1 PUSH1 0x40 SHL SUB PUSH2 0x1C4 CALLDATALOAD GT PUSH2 0x291 JUMPI PUSH2 0x511 CALLDATASIZE PUSH2 0x1C4 CALLDATALOAD PUSH1 0x4 ADD PUSH2 0x1CDB JUMP JUMPDEST PUSH2 0x120 MSTORE PUSH2 0x300 MSTORE PUSH1 0x1 PUSH1 0x1 PUSH1 0x40 SHL SUB PUSH2 0x1E4 CALLDATALOAD GT PUSH2 0x291 JUMPI PUSH2 0x53A CALLDATASIZE PUSH2 0x1E4 CALLDATALOAD PUSH1 0x4 ADD PUSH2 0x1CDB JUMP JUMPDEST PUSH2 0x160 MSTORE PUSH2 0x180 MSTORE PUSH1 0x0 SLOAD PUSH1 0x1 PUSH1 0x1 PUSH1 0xA0 SHL SUB AND CALLER SUB PUSH2 0x1736 JUMPI PUSH2 0x564 PUSH1 0x40 MLOAD DUP1 PUSH2 0x200 MSTORE PUSH2 0x1BB0 JUMP JUMPDEST PUSH2 0x575 CALLDATASIZE PUSH2 0x3C0 MLOAD PUSH2 0x140 MLOAD PUSH2 0x1D08 JUMP JUMPDEST PUSH2 0x200 MLOAD MSTORE PUSH2 0x58A CALLDATASIZE PUSH1 0xE0 MLOAD PUSH2 0x280 MLOAD PUSH2 0x1D08 JUMP JUMPDEST PUSH1 0x20 PUSH2 0x200 MLOAD ADD MSTORE PUSH2 0x5A2 CALLDATASIZE PUSH1 0xC0 MLOAD PUSH2 0x460 MLOAD PUSH2 0x1D08 JUMP JUMPDEST PUSH1 0x40 PUSH2 0x200 MLOAD ADD MSTORE PUSH2 0x5BB CALLDATASIZE PUSH2 0x240 MLOAD PUSH2 0x4A0 MLOAD PUSH2 0x1D08 JUMP JUMPDEST PUSH1 0x60 PUSH2 0x200 MLOAD ADD MSTORE PUSH2 0x5D3 CALLDATASIZE PUSH1 0x80 MLOAD PUSH2 0x1C0 MLOAD PUSH2 0x1D08 JUMP JUMPDEST PUSH1 0x80 PUSH2 0x200 MLOAD ADD MSTORE PUSH2 0x5EB CALLDATASIZE PUSH1 0xA0 MLOAD PUSH2 0x400 MLOAD PUSH2 0x1D08 JUMP JUMPDEST PUSH1 0xA0 PUSH2 0x200 MLOAD ADD MSTORE PUSH2 0x604 CALLDATASIZE PUSH2 0x2C0 MLOAD PUSH2 0x440 MLOAD PUSH2 0x1D08 JUMP JUMPDEST PUSH1 0xC0 PUSH2 0x200 MLOAD ADD MSTORE PUSH2 0x61D CALLDATASIZE PUSH2 0x1E0 MLOAD PUSH2 0x2A0 MLOAD PUSH2 0x1D08 JUMP JUMPDEST PUSH1 0xE0 PUSH2 0x200 MLOAD ADD MSTORE PUSH2 0x636 CALLDATASIZE PUSH2 0x3A0 MLOAD PUSH2 0x2E0 MLOAD PUSH2 0x1D08 JUMP JUMPDEST PUSH2 0x100 PUSH2 0x200 MLOAD ADD MSTORE PUSH2 0x650 CALLDATASIZE PUSH2 0x380 MLOAD PUSH2 0x360 MLOAD PUSH2 0x1D08 JUMP JUMPDEST PUSH2 0x120 PUSH2 0x200 MLOAD ADD MSTORE PUSH2 0x66A CALLDATASIZE PUSH2 0x1A0 MLOAD PUSH2 0x260 MLOAD PUSH2 0x1D08 JUMP JUMPDEST PUSH2 0x140 PUSH2 0x200 MLOAD ADD MSTORE PUSH2 0x684 CALLDATASIZE PUSH2 0x420 MLOAD PUSH2 0x220 MLOAD PUSH2 0x1D08 JUMP JUMPDEST PUSH2 0x160 PUSH2 0x200 MLOAD ADD MSTORE PUSH2 0x69E CALLDATASIZE PUSH2 0x3E0 MLOAD PUSH2 0x480 MLOAD PUSH2 0x1D08 JUMP JUMPDEST PUSH2 0x180 PUSH2 0x200 MLOAD ADD MSTORE PUSH2 0x6B8 CALLDATASIZE PUSH2 0x120 MLOAD PUSH2 0x300 MLOAD PUSH2 0x1D08 JUMP JUMPDEST PUSH2 0x1A0 PUSH2 0x200 MLOAD ADD MSTORE PUSH2 0x6D2 CALLDATASIZE PUSH2 0x160 MLOAD PUSH2 0x180 MLOAD PUSH2 0x1D08 JUMP JUMPDEST PUSH2 0x1C0 PUSH2 0x200 MLOAD ADD MSTORE PUSH1 0x40 MLOAD PUSH2 0x340 MLOAD PUSH2 0x320 MLOAD DUP3 CALLDATACOPY PUSH1 0x1 PUSH2 0x340 MLOAD DUP3 ADD MSTORE PUSH1 0x20 DUP2 PUSH2 0x340 MLOAD DUP2 ADD SUB ADD SWAP1 KECCAK256 PUSH2 0x200 MLOAD MLOAD DUP1 MLOAD SWAP1 PUSH1 0x1 PUSH1 0x1 PUSH1 0x40 SHL SUB DUP3 GT PUSH2 0xFBF JUMPI DUP2 SWAP1 PUSH2 0x72A DUP3 PUSH2 0x724 DUP7 SLOAD PUSH2 0x1B76 JUMP JUMPDEST DUP7 PUSH2 0x1D4E JUMP JUMPDEST PUSH1 0x20 SWAP1 PUSH1 0x1F DUP4 GT PUSH1 0x1 EQ PUSH2 0x16CA JUMPI PUSH1 0x0 SWAP3 PUSH2 0x16BF JUMPI JUMPDEST POP POP DUP2 PUSH1 0x1 SHL SWAP2 PUSH1 0x0 NOT SWAP1 PUSH1 0x3 SHL SHR NOT AND OR DUP2 SSTORE JUMPDEST PUSH1 0x20 PUSH2 0x200 MLOAD ADD MLOAD DUP1 MLOAD SWAP1 PUSH1 0x1 PUSH1 0x1 PUSH1 0x40 SHL SUB DUP3 GT PUSH2 0xFBF JUMPI DUP2 SWAP1 PUSH2 0x78A DUP3 PUSH2 0x781 PUSH1 0x1 DUP8 ADD SLOAD PUSH2 0x1B76 JUMP JUMPDEST PUSH1 0x1 DUP8 ADD PUSH2 0x1D4E JUMP JUMPDEST PUSH1 0x20 SWAP1 PUSH1 0x1F DUP4 GT PUSH1 0x1 EQ PUSH2 0x164D JUMPI PUSH1 0x0 SWAP3 PUSH2 0x1642 JUMPI JUMPDEST POP POP DUP2 PUSH1 0x1 SHL SWAP2 PUSH1 0x0 NOT SWAP1 PUSH1 0x3 SHL SHR NOT AND OR PUSH1 0x1 DUP3 ADD SSTORE JUMPDEST PUSH1 0x40 PUSH2 0x200 MLOAD ADD MLOAD DUP1 MLOAD SWAP1 PUSH1 0x1 PUSH1 0x1 PUSH1 0x40 SHL SUB DUP3 GT PUSH2 0xFBF JUMPI DUP2 SWAP1 PUSH2 0x7ED DUP3 PUSH2 0x7E4 PUSH1 0x2 DUP8 ADD SLOAD PUSH2 0x1B76 JUMP JUMPDEST PUSH1 0x2 DUP8 ADD PUSH2 0x1D4E JUMP JUMPDEST PUSH1 0x20 SWAP1 PUSH1 0x1F DUP4 GT PUSH1 0x1 EQ PUSH2 0x15D0 JUMPI PUSH1 0x0 SWAP3 PUSH2 0x15C5 JUMPI JUMPDEST POP POP DUP2 PUSH1 0x1 SHL SWAP2 PUSH1 0x0 NOT SWAP1 PUSH1 0x3 SHL SHR NOT AND OR PUSH1 0x2 DUP3 ADD SSTORE JUMPDEST PUSH1 0x60 PUSH2 0x200 MLOAD ADD MLOAD DUP1 MLOAD SWAP1 PUSH1 0x1 PUSH1 0x1 PUSH1 0x40 SHL SUB DUP3 GT PUSH2 0xFBF JUMPI DUP2 SWAP1 PUSH2 0x850 DUP3 PUSH2 0x847 PUSH1 0x3 DUP8 ADD SLOAD PUSH2 0x1B76 JUMP JUMPDEST PUSH1 0x3 DUP8 ADD PUSH2 0x1D4E JUMP JUMPDEST PUSH1 0x20 SWAP1 PUSH1 0x1F DUP4 GT PUSH1 0x1 EQ PUSH2 0x1553 JUMPI PUSH1 0x0 SWAP3 PUSH2 0x1548 JUMPI JUMPDEST POP POP DUP2 PUSH1 0x1 SHL SWAP2 PUSH1 0x0 NOT SWAP1 PUSH1 0x3 SHL SHR NOT AND OR PUSH1 0x3 DUP3 ADD SSTORE JUMPDEST PUSH1 0x80 PUSH2 0x200 MLOAD ADD MLOAD DUP1 MLOAD SWAP1 PUSH1 0x1 PUSH1 0x1 PUSH1 0x40 SHL SUB DUP3 GT PUSH2 0xFBF JUMPI DUP2 SWAP1 PUSH2 0x8B3 DUP3 PUSH2 0x8AA PUSH1 0x4 DUP8 ADD SLOAD PUSH2 0x1B76 JUMP JUMPDEST PUSH1 0x4 DUP8 ADD PUSH2 0x1D4E JUMP JUMPDEST PUSH1 0x20 SWAP1 PUSH1 0x1F DUP4 GT PUSH1 0x1 EQ PUSH2 0x14D6 JUMPI PUSH1 0x0 SWAP3 PUSH2 0x14CB JUMPI JUMPDEST POP POP DUP2 PUSH1 0x1 SHL SWAP2 PUSH1 0x0 NOT SWAP1 PUSH1 0x3 SHL SHR NOT AND OR PUSH1 0x4 DUP3 ADD SSTORE JUMPDEST PUSH1 0xA0 PUSH2 0x200 MLOAD ADD MLOAD DUP1 MLOAD SWAP1 PUSH1 0x1 PUSH1 0x1 PUSH1 0x40 SHL SUB DUP3 GT PUSH2 0xFBF JUMPI DUP2 SWAP1 PUSH2 0x916 DUP3 PUSH2 0x90D PUSH1 0x5 DUP8 ADD SLOAD PUSH2 0x1B76 JUMP JUMPDEST PUSH1 0x5 DUP8 ADD PUSH2 0x1D4E JUMP JUMPDEST PUSH1 0x20 SWAP1 PUSH1 0x1F DUP4 GT PUSH1 0x1 EQ PUSH2 0x1459 JUMPI PUSH1 0x0 SWAP3 PUSH2 0x144E JUMPI JUMPDEST POP POP DUP2 PUSH1 0x1 SHL SWAP2 PUSH1 0x0 NOT SWAP1 PUSH1 0x3 SHL SHR NOT AND OR PUSH1 0x5 DUP3 ADD SSTORE JUMPDEST PUSH1 0xC0 PUSH2 0x200 MLOAD ADD MLOAD DUP1 MLOAD SWAP1 PUSH1 0x1 PUSH1 0x1 PUSH1 0x40 SHL SUB DUP3 GT PUSH2 0xFBF JUMPI DUP2 SWAP1 PUSH2 0x979 DUP3 PUSH2 0x970 PUSH1 0x6 DUP8 ADD SLOAD PUSH2 0x1B76 JUMP JUMPDEST PUSH1 0x6 DUP8 ADD PUSH2 0x1D4E JUMP JUMPDEST PUSH1 0x20 SWAP1 PUSH1 0x1F DUP4 GT PUSH1 0x1 EQ PUSH2 0x13DC JUMPI PUSH1 0x0 SWAP3 PUSH2 0x13D1 JUMPI JUMPDEST POP POP DUP2 PUSH1 0x1 SHL SWAP2 PUSH1 0x0 NOT SWAP1 PUSH1 0x3 SHL SHR NOT AND OR PUSH1 0x6 DUP3 ADD SSTORE JUMPDEST PUSH1 0xE0 PUSH2 0x200 MLOAD ADD MLOAD DUP1 MLOAD SWAP1 PUSH1 0x1 PUSH1 0x1 PUSH1 0x40 SHL SUB DUP3 GT PUSH2 0xFBF JUMPI DUP2 SWAP1 PUSH2 0x9DC DUP3 PUSH2 0x9D3 PUSH1 0x7 DUP8 ADD SLOAD PUSH2 0x1B76 JUMP JUMPDEST PUSH1 0x7 DUP8 ADD PUSH2 0x1D4E JUMP JUMPDEST PUSH1 0x20 SWAP1 PUSH1 0x1F DUP4 GT PUSH1 0x1 EQ PUSH2 0x135F JUMPI PUSH1 0x0 SWAP3 PUSH2 0x1354 JUMPI JUMPDEST POP POP DUP2 PUSH1 0x1 SHL SWAP2 PUSH1 0x0 NOT SWAP1 PUSH1 0x3 SHL SHR NOT AND OR PUSH1 0x7 DUP3 ADD SSTORE JUMPDEST PUSH2 0x100 PUSH2 0x200 MLOAD ADD MLOAD DUP1 MLOAD SWAP1 PUSH1 0x1 PUSH1 0x1 PUSH1 0x40 SHL SUB DUP3 GT PUSH2 0xFBF JUMPI DUP2 SWAP1 PUSH2 0xA40 DUP3 PUSH2 0xA37 PUSH1 0x8 DUP8 ADD SLOAD PUSH2 0x1B76 JUMP JUMPDEST PUSH1 0x8 DUP8 ADD PUSH2 0x1D4E JUMP JUMPDEST PUSH1 0x20 SWAP1 PUSH1 0x1F DUP4 GT PUSH1 0x1 EQ PUSH2 0x12E2 JUMPI PUSH1 0x0 SWAP3 PUSH2 0x12D7 JUMPI JUMPDEST POP POP DUP2 PUSH1 0x1 SHL SWAP2 PUSH1 0x0 NOT SWAP1 PUSH1 0x3 SHL SHR NOT AND OR PUSH1 0x8 DUP3 ADD SSTORE JUMPDEST PUSH2 0x120 PUSH2 0x200 MLOAD ADD MLOAD DUP1 MLOAD SWAP1 PUSH1 0x1 PUSH1 0x1 PUSH1 0x40 SHL SUB DUP3 GT PUSH2 0xFBF JUMPI DUP2 SWAP1 PUSH2 0xAA4 DUP3 PUSH2 0xA9B PUSH1 0x9 DUP8 ADD SLOAD PUSH2 0x1B76 JUMP JUMPDEST PUSH1 0x9 DUP8 ADD PUSH2 0x1D4E JUMP JUMPDEST PUSH1 0x20 SWAP1 PUSH1 0x1F DUP4 GT PUSH1 0x1 EQ PUSH2 0x1265 JUMPI PUSH1 0x0 SWAP3 PUSH2 0x125A JUMPI JUMPDEST POP POP DUP2 PUSH1 0x1 SHL SWAP2 PUSH1 0x0 NOT SWAP1 PUSH1 0x3 SHL SHR NOT AND OR PUSH1 0x9 DUP3 ADD SSTORE JUMPDEST PUSH2 0x140 PUSH2 0x200 MLOAD ADD MLOAD DUP1 MLOAD SWAP1 PUSH1 0x1 PUSH1 0x1 PUSH1 0x40 SHL SUB DUP3 GT PUSH2 0xFBF JUMPI DUP2 SWAP1 PUSH2 0xB08 DUP3 PUSH2 0xAFF PUSH1 0xA DUP8 ADD SLOAD PUSH2 0x1B76 JUMP JUMPDEST PUSH1 0xA DUP8 ADD PUSH2 0x1D4E JUMP JUMPDEST PUSH1 0x20 SWAP1 PUSH1 0x1F DUP4 GT PUSH1 0x1 EQ PUSH2 0x11E8 JUMPI PUSH1 0x0 SWAP3 PUSH2 0x11DD JUMPI JUMPDEST POP POP DUP2 PUSH1 0x1 SHL SWAP2 PUSH1 0x0 NOT SWAP1 PUSH1 0x3 SHL SHR NOT AND OR PUSH1 0xA DUP3 ADD SSTORE JUMPDEST PUSH2 0x160 PUSH2 0x200 MLOAD ADD MLOAD DUP1 MLOAD SWAP1 PUSH1 0x1 PUSH1 0x1 PUSH1 0x40 SHL SUB DUP3 GT PUSH2 0xFBF JUMPI DUP2 SWAP1 PUSH2 0xB6C DUP3 PUSH2 0xB63 PUSH1 0xB DUP8 ADD SLOAD PUSH2 0x1B76 JUMP JUMPDEST PUSH1 0xB DUP8 ADD PUSH2 0x1D4E JUMP JUMPDEST PUSH1 0x20 SWAP1 PUSH1 0x1F DUP4 GT PUSH1 0x1 EQ PUSH2 0x116B JUMPI PUSH1 0x0 SWAP3 PUSH2 0x1160 JUMPI JUMPDEST POP POP DUP2 PUSH1 0x1 SHL SWAP2 PUSH1 0x0 NOT SWAP1 PUSH1 0x3 SHL SHR NOT AND OR PUSH1 0xB DUP3 ADD SSTORE JUMPDEST PUSH2 0x180 PUSH2 0x200 MLOAD ADD MLOAD DUP1 MLOAD SWAP1 PUSH1 0x1 PUSH1 0x1 PUSH1 0x40 SHL SUB DUP3 GT PUSH2 0xFBF JUMPI DUP2 SWAP1 PUSH2 0xBD0 DUP3 PUSH2 0xBC7 PUSH1 0xC DUP8 ADD SLOAD PUSH2 0x1B76 JUMP JUMPDEST PUSH1 0xC DUP8 ADD PUSH2 0x1D4E JUMP JUMPDEST PUSH1 0x20 SWAP1 PUSH1 0x1F DUP4 GT PUSH1 0x1 EQ PUSH2 0x10EE JUMPI PUSH1 0x0 SWAP3 PUSH2 0x10E3 JUMPI JUMPDEST POP POP DUP2 PUSH1 0x1 SHL SWAP2 PUSH1 0x0 NOT SWAP1 PUSH1 0x3 SHL SHR NOT AND OR PUSH1 0xC DUP3 ADD SSTORE JUMPDEST PUSH2 0x1A0 PUSH2 0x200 MLOAD ADD MLOAD DUP1 MLOAD SWAP1 PUSH1 0x1 PUSH1 0x1 PUSH1 0x40 SHL SUB DUP3 GT PUSH2 0xFBF JUMPI DUP2 SWAP1 PUSH2 0xC34 DUP3 PUSH2 0xC2B PUSH1 0xD DUP8 ADD SLOAD PUSH2 0x1B76 JUMP JUMPDEST PUSH1 0xD DUP8 ADD PUSH2 0x1D4E JUMP JUMPDEST PUSH1 0x20 SWAP1 PUSH1 0x1F DUP4 GT PUSH1 0x1 EQ PUSH2 0x1071 JUMPI PUSH1 0x0 SWAP3 PUSH2 0x1066 JUMPI JUMPDEST POP POP DUP2 PUSH1 0x1 SHL SWAP2 PUSH1 0x0 NOT SWAP1 PUSH1 0x3 SHL SHR NOT AND OR PUSH1 0xD DUP3 ADD SSTORE JUMPDEST PUSH2 0x1C0 PUSH2 0x200 MLOAD ADD MLOAD DUP1 MLOAD SWAP1 PUSH1 0x1 PUSH1 0x1 PUSH1 0x40 SHL SUB DUP3 GT PUSH2 0xFBF JUMPI PUSH2 0xC96 DUP3 PUSH2 0xC8D PUSH1 0xE DUP7 ADD SLOAD PUSH2 0x1B76 JUMP JUMPDEST PUSH1 0xE DUP7 ADD PUSH2 0x1D4E JUMP JUMPDEST PUSH1 0x20 SWAP1 PUSH1 0x1F DUP4 GT PUSH1 0x1 EQ PUSH2 0xFF6 JUMPI PUSH1 0xE SWAP3 SWAP2 PUSH1 0x0 SWAP2 DUP4 PUSH2 0xFEB JUMPI JUMPDEST POP POP DUP2 PUSH1 0x1 SHL SWAP2 PUSH1 0x0 NOT SWAP1 PUSH1 0x3 SHL SHR NOT AND OR SWAP2 ADD SSTORE JUMPDEST PUSH1 0x2 SLOAD PUSH9 0x10000000000000000 DUP2 LT ISZERO PUSH2 0xFBF JUMPI DUP1 PUSH1 0x1 PUSH2 0xCEB SWAP3 ADD PUSH1 0x2 SSTORE PUSH2 0x1B29 JUMP JUMPDEST PUSH2 0xFD5 JUMPI PUSH2 0x340 MLOAD PUSH1 0x1 PUSH1 0x1 PUSH1 0x40 SHL SUB DUP2 GT PUSH2 0xFBF JUMPI PUSH2 0xD15 SWAP1 PUSH2 0xD0F DUP4 SLOAD PUSH2 0x1B76 JUMP JUMPDEST DUP4 PUSH2 0x1D4E JUMP JUMPDEST PUSH1 0x0 SWAP1 PUSH2 0x340 MLOAD PUSH1 0x1F DUP2 GT PUSH1 0x1 EQ PUSH2 0xF52 JUMPI POP SWAP1 PUSH1 0x0 PUSH2 0x340 MLOAD SWAP2 DUP3 PUSH2 0xF44 JUMPI JUMPDEST POP DUP2 PUSH1 0x1 SHL SWAP2 PUSH1 0x0 NOT SWAP1 PUSH1 0x3 SHL SHR NOT AND OR SWAP1 SSTORE JUMPDEST PUSH2 0x200 PUSH1 0x40 MLOAD DUP1 PUSH2 0x100 MSTORE MSTORE PUSH32 0x26BF9F94D607085ACF310ACDBF9CF91B9133E8C34E463D7FF46356A17A6E9269 PUSH2 0xF1A PUSH2 0xF00 PUSH2 0xEE6 PUSH2 0xECC PUSH2 0xEB2 PUSH2 0xE98 PUSH2 0xE7E PUSH2 0xE64 PUSH2 0xE4B PUSH2 0xE33 PUSH2 0xE1B PUSH2 0xE02 PUSH2 0xDEA PUSH2 0xDD2 PUSH2 0xDB9 PUSH2 0x200 PUSH2 0x100 MLOAD ADD PUSH2 0x340 MLOAD PUSH2 0x320 MLOAD PUSH2 0x1DA2 JUMP JUMPDEST PUSH2 0x100 MLOAD PUSH1 0x20 DUP2 DUP4 SUB SWAP2 ADD MSTORE PUSH2 0x3C0 MLOAD PUSH2 0x140 MLOAD PUSH2 0x1DA2 JUMP JUMPDEST PUSH2 0x100 MLOAD PUSH1 0x40 DUP2 DUP4 SUB SWAP2 ADD MSTORE PUSH1 0xE0 MLOAD PUSH2 0x280 MLOAD PUSH2 0x1DA2 JUMP JUMPDEST PUSH2 0x100 MLOAD PUSH1 0x60 DUP2 DUP4 SUB SWAP2 ADD MSTORE PUSH1 0xC0 MLOAD PUSH2 0x460 MLOAD PUSH2 0x1DA2 JUMP JUMPDEST PUSH2 0x100 MLOAD PUSH1 0x80 DUP2 DUP4 SUB SWAP2 ADD MSTORE PUSH2 0x240 MLOAD PUSH2 0x4A0 MLOAD PUSH2 0x1DA2 JUMP JUMPDEST PUSH2 0x100 MLOAD PUSH1 0xA0 DUP2 DUP4 SUB SWAP2 ADD MSTORE PUSH1 0x80 MLOAD PUSH2 0x1C0 MLOAD PUSH2 0x1DA2 JUMP JUMPDEST PUSH2 0x100 MLOAD PUSH1 0xC0 DUP2 DUP4 SUB SWAP2 ADD MSTORE PUSH1 0xA0 MLOAD PUSH2 0x400 MLOAD PUSH2 0x1DA2 JUMP JUMPDEST PUSH2 0x100 MLOAD PUSH1 0xE0 DUP2 DUP4 SUB SWAP2 ADD MSTORE PUSH2 0x2C0 MLOAD PUSH2 0x440 MLOAD PUSH2 0x1DA2 JUMP JUMPDEST PUSH2 0x100 MLOAD PUSH2 0x100 DUP2 DUP4 SUB SWAP2 ADD MSTORE PUSH2 0x1E0 MLOAD PUSH2 0x2A0 MLOAD PUSH2 0x1DA2 JUMP JUMPDEST PUSH2 0x100 MLOAD PUSH2 0x120 DUP2 DUP4 SUB SWAP2 ADD MSTORE PUSH2 0x3A0 MLOAD PUSH2 0x2E0 MLOAD PUSH2 0x1DA2 JUMP JUMPDEST PUSH2 0x100 MLOAD PUSH2 0x140 DUP2 DUP4 SUB SWAP2 ADD MSTORE PUSH2 0x380 MLOAD PUSH2 0x360 MLOAD PUSH2 0x1DA2 JUMP JUMPDEST PUSH2 0x100 MLOAD PUSH2 0x160 DUP2 DUP4 SUB SWAP2 ADD MSTORE PUSH2 0x1A0 MLOAD PUSH2 0x260 MLOAD PUSH2 0x1DA2 JUMP JUMPDEST PUSH2 0x100 MLOAD PUSH2 0x180 DUP2 DUP4 SUB SWAP2 ADD MSTORE PUSH2 0x420 MLOAD PUSH2 0x220 MLOAD PUSH2 0x1DA2 JUMP JUMPDEST PUSH2 0x100 MLOAD PUSH2 0x1A0 DUP2 DUP4 SUB SWAP2 ADD MSTORE PUSH2 0x3E0 MLOAD PUSH2 0x480 MLOAD PUSH2 0x1DA2 JUMP JUMPDEST PUSH2 0x100 MLOAD PUSH2 0x1C0 DUP2 DUP4 SUB SWAP2 ADD MSTORE PUSH2 0x120 MLOAD PUSH2 0x300 MLOAD PUSH2 0x1DA2 JUMP JUMPDEST PUSH2 0x100 MLOAD PUSH2 0x1E0 DUP2 DUP4 SUB SWAP2 ADD MSTORE PUSH2 0xF3C PUSH2 0x100 MLOAD SWAP2 PUSH2 0x160 MLOAD PUSH2 0x180 MLOAD PUSH2 0x1DA2 JUMP JUMPDEST SUB PUSH2 0x100 MLOAD LOG1 STOP JUMPDEST SWAP1 POP PUSH2 0x320 MLOAD ADD CALLDATALOAD DUP4 PUSH2 0xD36 JUMP JUMPDEST DUP2 PUSH1 0x0 MSTORE PUSH1 0x20 PUSH1 0x0 KECCAK256 PUSH1 0x0 SWAP4 PUSH2 0x320 MLOAD SWAP1 JUMPDEST PUSH1 0x1F NOT DUP5 AND DUP7 LT PUSH2 0xFA7 JUMPI PUSH1 0x1 SWAP5 SWAP6 POP DUP4 PUSH1 0x1F NOT DUP2 AND LT PUSH2 0xF8D JUMPI JUMPDEST POP POP POP DUP2 SHL ADD SWAP1 SSTORE PUSH2 0xD4A JUMP JUMPDEST ADD CALLDATALOAD PUSH1 0x0 NOT PUSH1 0x3 DUP5 SWAP1 SHL PUSH1 0xF8 AND SHR NOT AND SWAP1 SSTORE DUP4 DUP1 DUP1 PUSH2 0xF80 JUMP JUMPDEST SWAP2 PUSH1 0x20 PUSH1 0x1 DUP2 SWAP3 DUP6 DUP6 ADD CALLDATALOAD DUP2 SSTORE ADD SWAP4 ADD SWAP6 ADD SWAP5 PUSH2 0xF64 JUMP JUMPDEST PUSH4 0x4E487B71 PUSH1 0xE0 SHL PUSH1 0x0 MSTORE PUSH1 0x41 PUSH1 0x4 MSTORE PUSH1 0x24 PUSH1 0x0 REVERT JUMPDEST PUSH4 0x4E487B71 PUSH1 0xE0 SHL PUSH1 0x0 MSTORE PUSH1 0x0 PUSH1 0x4 MSTORE PUSH1 0x24 PUSH1 0x0 REVERT JUMPDEST ADD MLOAD SWAP1 POP DUP5 DUP1 PUSH2 0xCB1 JUMP JUMPDEST SWAP1 PUSH1 0xE DUP5 ADD PUSH1 0x0 MSTORE PUSH1 0x20 PUSH1 0x0 KECCAK256 SWAP2 PUSH1 0x0 JUMPDEST PUSH1 0x1F NOT DUP6 AND DUP2 LT PUSH2 0x104E JUMPI POP SWAP2 DUP4 SWAP2 PUSH1 0x1 SWAP4 PUSH1 0xE SWAP6 PUSH1 0x1F NOT DUP2 AND LT PUSH2 0x1035 JUMPI JUMPDEST POP POP POP DUP2 SHL ADD SWAP2 ADD SSTORE PUSH2 0xCC7 JUMP JUMPDEST ADD MLOAD PUSH1 0x0 NOT PUSH1 0xF8 DUP5 PUSH1 0x3 SHL AND SHR NOT AND SWAP1 SSTORE DUP5 DUP1 DUP1 PUSH2 0x1027 JUMP JUMPDEST SWAP2 SWAP3 PUSH1 0x20 PUSH1 0x1 DUP2 SWAP3 DUP7 DUP6 ADD MLOAD DUP2 SSTORE ADD SWAP5 ADD SWAP3 ADD PUSH2 0x1007 JUMP JUMPDEST ADD MLOAD SWAP1 POP DUP4 DUP1 PUSH2 0xC4A JUMP JUMPDEST SWAP3 POP PUSH1 0xD DUP5 ADD PUSH1 0x0 MSTORE PUSH1 0x20 PUSH1 0x0 KECCAK256 SWAP1 PUSH1 0x0 SWAP4 JUMPDEST PUSH1 0x1F NOT DUP5 AND DUP6 LT PUSH2 0x10C8 JUMPI PUSH1 0x1 SWAP5 POP DUP4 PUSH1 0x1F NOT DUP2 AND LT PUSH2 0x10AF JUMPI JUMPDEST POP POP POP DUP2 SHL ADD PUSH1 0xD DUP3 ADD SSTORE PUSH2 0xC62 JUMP JUMPDEST ADD MLOAD PUSH1 0x0 NOT PUSH1 0xF8 DUP5 PUSH1 0x3 SHL AND SHR NOT AND SWAP1 SSTORE DUP4 DUP1 DUP1 PUSH2 0x109F JUMP JUMPDEST DUP2 DUP2 ADD MLOAD DUP4 SSTORE PUSH1 0x20 SWAP5 DUP6 ADD SWAP5 PUSH1 0x1 SWAP1 SWAP4 ADD SWAP3 SWAP1 SWAP2 ADD SWAP1 PUSH2 0x1084 JUMP JUMPDEST ADD MLOAD SWAP1 POP DUP4 DUP1 PUSH2 0xBE6 JUMP JUMPDEST SWAP3 POP PUSH1 0xC DUP5 ADD PUSH1 0x0 MSTORE PUSH1 0x20 PUSH1 0x0 KECCAK256 SWAP1 PUSH1 0x0 SWAP4 JUMPDEST PUSH1 0x1F NOT DUP5 AND DUP6 LT PUSH2 0x1145 JUMPI PUSH1 0x1 SWAP5 POP DUP4 PUSH1 0x1F NOT DUP2 AND LT PUSH2 0x112C JUMPI JUMPDEST POP POP POP DUP2 SHL ADD PUSH1 0xC DUP3 ADD SSTORE PUSH2 0xBFE JUMP JUMPDEST ADD MLOAD PUSH1 0x0 NOT PUSH1 0xF8 DUP5 PUSH1 0x3 SHL AND SHR NOT AND SWAP1 SSTORE DUP4 DUP1 DUP1 PUSH2 0x111C JUMP JUMPDEST DUP2 DUP2 ADD MLOAD DUP4 SSTORE PUSH1 0x20 SWAP5 DUP6 ADD SWAP5 PUSH1 0x1 SWAP1 SWAP4 ADD SWAP3 SWAP1 SWAP2 ADD SWAP1 PUSH2 0x1101 JUMP JUMPDEST ADD MLOAD SWAP1 POP DUP4 DUP1 PUSH2 0xB82 JUMP JUMPDEST SWAP3 POP PUSH1 0xB DUP5 ADD PUSH1 0x0 MSTORE PUSH1 0x20 PUSH1 0x0 KECCAK256 SWAP1 PUSH1 0x0 SWAP4 JUMPDEST PUSH1 0x1F NOT DUP5 AND DUP6 LT PUSH2 0x11C2 JUMPI PUSH1 0x1 SWAP5 POP DUP4 PUSH1 0x1F NOT DUP2 AND LT PUSH2 0x11A9 JUMPI JUMPDEST POP POP POP DUP2 SHL ADD PUSH1 0xB DUP3 ADD SSTORE PUSH2 0xB9A JUMP JUMPDEST ADD MLOAD PUSH1 0x0 NOT PUSH1 0xF8 DUP5 PUSH1 0x3 SHL AND SHR NOT AND SWAP1 SSTORE DUP4 DUP1 DUP1 PUSH2 0x1199 JUMP JUMPDEST DUP2 DUP2 ADD MLOAD DUP4 SSTORE PUSH1 0x20 SWAP5 DUP6 ADD SWAP5 PUSH1 0x1 SWAP1 SWAP4 ADD SWAP3 SWAP1 SWAP2 ADD SWAP1 PUSH2 0x117E JUMP JUMPDEST ADD MLOAD SWAP1 POP DUP4 DUP1 PUSH2 0xB1E JUMP JUMPDEST SWAP3 POP PUSH1 0xA DUP5 ADD PUSH1 0x0 MSTORE PUSH1 0x20 PUSH1 0x0 KECCAK256 SWAP1 PUSH1 0x0 SWAP4 JUMPDEST PUSH1 0x1F NOT DUP5 AND DUP6 LT PUSH2 0x123F JUMPI PUSH1 0x1 SWAP5 POP DUP4 PUSH1 0x1F NOT DUP2 AND LT PUSH2 0x1226 JUMPI JUMPDEST POP POP POP DUP2 SHL ADD PUSH1 0xA DUP3 ADD SSTORE PUSH2 0xB36 JUMP JUMPDEST ADD MLOAD PUSH1 0x0 NOT PUSH1 0xF8 DUP5 PUSH1 0x3 SHL AND SHR NOT AND SWAP1 SSTORE DUP4 DUP1 DUP1 PUSH2 0x1216 JUMP JUMPDEST DUP2 DUP2 ADD MLOAD DUP4 SSTORE PUSH1 0x20 SWAP5 DUP6 ADD SWAP5 PUSH1 0x1 SWAP1 SWAP4 ADD SWAP3 SWAP1 SWAP2 ADD SWAP1 PUSH2 0x11FB JUMP JUMPDEST ADD MLOAD SWAP1 POP DUP4 DUP1 PUSH2 0xABA JUMP JUMPDEST SWAP3 POP PUSH1 0x9 DUP5 ADD PUSH1 0x0 MSTORE PUSH1 0x20 PUSH1 0x0 KECCAK256 SWAP1 PUSH1 0x0 SWAP4 JUMPDEST PUSH1 0x1F NOT DUP5 AND DUP6 LT PUSH2 0x12BC JUMPI PUSH1 0x1 SWAP5 POP DUP4 PUSH1 0x1F NOT DUP2 AND LT PUSH2 0x12A3 JUMPI JUMPDEST POP POP POP DUP2 SHL ADD PUSH1 0x9 DUP3 ADD SSTORE PUSH2 0xAD2 JUMP JUMPDEST ADD MLOAD PUSH1 0x0 NOT PUSH1 0xF8 DUP5 PUSH1 0x3 SHL AND SHR NOT AND SWAP1 SSTORE DUP4 DUP1 DUP1 PUSH2 0x1293 JUMP JUMPDEST DUP2 DUP2 ADD MLOAD DUP4 SSTORE PUSH1 0x20 SWAP5 DUP6 ADD SWAP5 PUSH1 0x1 SWAP1 SWAP4 ADD SWAP3 SWAP1 SWAP2 ADD SWAP1 PUSH2 0x1278 JUMP JUMPDEST ADD MLOAD SWAP1 POP DUP4 DUP1 PUSH2 0xA56 JUMP JUMPDEST SWAP3 POP PUSH1 0x8 DUP5 ADD PUSH1 0x0 MSTORE PUSH1 0x20 PUSH1 0x0 KECCAK256 SWAP1 PUSH1 0x0 SWAP4 JUMPDEST PUSH1 0x1F NOT DUP5 AND DUP6 LT PUSH2 0x1339 JUMPI PUSH1 0x1 SWAP5 POP DUP4 PUSH1 0x1F NOT DUP2 AND LT PUSH2 0x1320 JUMPI JUMPDEST POP POP POP DUP2 SHL ADD PUSH1 0x8 DUP3 ADD SSTORE PUSH2 0xA6E JUMP JUMPDEST ADD MLOAD PUSH1 0x0 NOT PUSH1 0xF8 DUP5 PUSH1 0x3 SHL AND SHR NOT AND SWAP1 SSTORE DUP4 DUP1 DUP1 PUSH2 0x1310 JUMP JUMPDEST DUP2 DUP2 ADD MLOAD DUP4 SSTORE PUSH1 0x20 SWAP5 DUP6 ADD SWAP5 PUSH1 0x1 SWAP1 SWAP4 ADD SWAP3 SWAP1 SWAP2 ADD SWAP1 PUSH2 0x12F5 JUMP JUMPDEST ADD MLOAD SWAP1 POP DUP4 DUP1 PUSH2 0x9F2 JUMP JUMPDEST SWAP3 POP PUSH1 0x7 DUP5 ADD PUSH1 0x0 MSTORE PUSH1 0x20 PUSH1 0x0 KECCAK256 SWAP1 PUSH1 0x0 SWAP4 JUMPDEST PUSH1 0x1F NOT DUP5 AND DUP6 LT PUSH2 0x13B6 JUMPI PUSH1 0x1 SWAP5 POP DUP4 PUSH1 0x1F NOT DUP2 AND LT PUSH2 0x139D JUMPI JUMPDEST POP POP POP DUP2 SHL ADD PUSH1 0x7 DUP3 ADD SSTORE PUSH2 0xA0A JUMP JUMPDEST ADD MLOAD PUSH1 0x0 NOT PUSH1 0xF8 DUP5 PUSH1 0x3 SHL AND SHR NOT AND SWAP1 SSTORE DUP4 DUP1 DUP1 PUSH2 0x138D JUMP JUMPDEST DUP2 DUP2 ADD MLOAD DUP4 SSTORE PUSH1 0x20 SWAP5 DUP6 ADD SWAP5 PUSH1 0x1 SWAP1 SWAP4 ADD SWAP3 SWAP1 SWAP2 ADD SWAP1 PUSH2 0x1372 JUMP JUMPDEST ADD MLOAD SWAP1 POP DUP4 DUP1 PUSH2 0x98F JUMP JUMPDEST SWAP3 POP PUSH1 0x6 DUP5 ADD PUSH1 0x0 MSTORE PUSH1 0x20 PUSH1 0x0 KECCAK256 SWAP1 PUSH1 0x0 SWAP4 JUMPDEST PUSH1 0x1F NOT DUP5 AND DUP6 LT PUSH2 0x1433 JUMPI PUSH1 0x1 SWAP5 POP DUP4 PUSH1 0x1F NOT DUP2 AND LT PUSH2 0x141A JUMPI JUMPDEST POP POP POP DUP2 SHL ADD PUSH1 0x6 DUP3 ADD SSTORE PUSH2 0x9A7 JUMP JUMPDEST ADD MLOAD PUSH1 0x0 NOT PUSH1 0xF8 DUP5 PUSH1 0x3 SHL AND SHR NOT AND SWAP1 SSTORE DUP4 DUP1 DUP1 PUSH2 0x140A JUMP JUMPDEST DUP2 DUP2 ADD MLOAD DUP4 SSTORE PUSH1 0x20 SWAP5 DUP6 ADD SWAP5 PUSH1 0x1 SWAP1 SWAP4 ADD SWAP3 SWAP1 SWAP2 ADD SWAP1 PUSH2 0x13EF JUMP JUMPDEST ADD MLOAD SWAP1 POP DUP4 DUP1 PUSH2 0x92C JUMP JUMPDEST SWAP3 POP PUSH1 0x5 DUP5 ADD PUSH1 0x0 MSTORE PUSH1 0x20 PUSH1 0x0 KECCAK256 SWAP1 PUSH1 0x0 SWAP4 JUMPDEST PUSH1 0x1F NOT DUP5 AND DUP6 LT PUSH2 0x14B0 JUMPI PUSH1 0x1 SWAP5 POP DUP4 PUSH1 0x1F NOT DUP2 AND LT PUSH2 0x1497 JUMPI JUMPDEST POP POP POP DUP2 SHL ADD PUSH1 0x5 DUP3 ADD SSTORE PUSH2 0x944 JUMP JUMPDEST ADD MLOAD PUSH1 0x0 NOT PUSH1 0xF8 DUP5 PUSH1 0x3 SHL AND SHR NOT AND SWAP1 SSTORE DUP4 DUP1 DUP1 PUSH2 0x1487 JUMP JUMPDEST DUP2 DUP2 ADD MLOAD DUP4 SSTORE PUSH1 0x20 SWAP5 DUP6 ADD SWAP5 PUSH1 0x1 SWAP1 SWAP4 ADD SWAP3 SWAP1 SWAP2 ADD SWAP1 PUSH2 0x146C JUMP JUMPDEST ADD MLOAD SWAP1 POP DUP4 DUP1 PUSH2 0x8C9 JUMP JUMPDEST SWAP3 POP PUSH1 0x4 DUP5 ADD PUSH1 0x0 MSTORE PUSH1 0x20 PUSH1 0x0 KECCAK256 SWAP1 PUSH1 0x0 SWAP4 JUMPDEST PUSH1 0x1F NOT DUP5 AND DUP6 LT PUSH2 0x152D JUMPI PUSH1 0x1 SWAP5 POP DUP4 PUSH1 0x1F NOT DUP2 AND LT PUSH2 0x1514 JUMPI JUMPDEST POP POP POP DUP2 SHL ADD PUSH1 0x4 DUP3 ADD SSTORE PUSH2 0x8E1 JUMP JUMPDEST ADD MLOAD PUSH1 0x0 NOT PUSH1 0xF8 DUP5 PUSH1 0x3 SHL AND SHR NOT AND SWAP1 SSTORE DUP4 DUP1 DUP1 PUSH2 0x1504 JUMP JUMPDEST DUP2 DUP2 ADD MLOAD DUP4 SSTORE PUSH1 0x20 SWAP5 DUP6 ADD SWAP5 PUSH1 0x1 SWAP1 SWAP4 ADD SWAP3 SWAP1 SWAP2 ADD SWAP1 PUSH2 0x14E9 JUMP JUMPDEST ADD MLOAD SWAP1 POP DUP4 DUP1 PUSH2 0x866 JUMP JUMPDEST SWAP3 POP PUSH1 0x3 DUP5 ADD PUSH1 0x0 MSTORE PUSH1 0x20 PUSH1 0x0 KECCAK256 SWAP1 PUSH1 0x0 SWAP4 JUMPDEST PUSH1 0x1F NOT DUP5 AND DUP6 LT PUSH2 0x15AA JUMPI PUSH1 0x1 SWAP5 POP DUP4 PUSH1 0x1F NOT DUP2 AND LT PUSH2 0x1591 JUMPI JUMPDEST POP POP POP DUP2 SHL ADD PUSH1 0x3 DUP3 ADD SSTORE PUSH2 0x87E JUMP JUMPDEST ADD MLOAD PUSH1 0x0 NOT PUSH1 0xF8 DUP5 PUSH1 0x3 SHL AND SHR NOT AND SWAP1 SSTORE DUP4 DUP1 DUP1 PUSH2 0x1581 JUMP JUMPDEST DUP2 DUP2 ADD MLOAD DUP4 SSTORE PUSH1 0x20 SWAP5 DUP6 ADD SWAP5 PUSH1 0x1 SWAP1 SWAP4 ADD SWAP3 SWAP1 SWAP2 ADD SWAP1 PUSH2 0x1566 JUMP JUMPDEST ADD MLOAD SWAP1 POP DUP4 DUP1 PUSH2 0x803 JUMP JUMPDEST SWAP3 POP PUSH1 0x2 DUP5 ADD PUSH1 0x0 MSTORE PUSH1 0x20 PUSH1 0x0 KECCAK256 SWAP1 PUSH1 0x0 SWAP4 JUMPDEST PUSH1 0x1F NOT DUP5 AND DUP6 LT PUSH2 0x1627 JUMPI PUSH1 0x1 SWAP5 POP DUP4 PUSH1 0x1F NOT DUP2 AND LT PUSH2 0x160E JUMPI JUMPDEST POP POP POP DUP2 SHL ADD PUSH1 0x2 DUP3 ADD SSTORE PUSH2 0x81B JUMP JUMPDEST ADD MLOAD PUSH1 0x0 NOT PUSH1 0xF8 DUP5 PUSH1 0x3 SHL AND SHR NOT AND SWAP1 SSTORE DUP4 DUP1 DUP1 PUSH2 0x15FE JUMP JUMPDEST DUP2 DUP2 ADD MLOAD DUP4 SSTORE PUSH1 0x20 SWAP5 DUP6 ADD SWAP5 PUSH1 0x1 SWAP1 SWAP4 ADD SWAP3 SWAP1 SWAP2 ADD SWAP1 PUSH2 0x15E3 JUMP JUMPDEST ADD MLOAD SWAP1 POP DUP4 DUP1 PUSH2 0x7A0 JUMP JUMPDEST SWAP3 POP PUSH1 0x1 DUP5 ADD PUSH1 0x0 MSTORE PUSH1 0x20 PUSH1 0x0 KECCAK256 SWAP1 PUSH1 0x0 SWAP4 JUMPDEST PUSH1 0x1F NOT DUP5 AND DUP6 LT PUSH2 0x16A4 JUMPI PUSH1 0x1 SWAP5 POP DUP4 PUSH1 0x1F NOT DUP2 AND LT PUSH2 0x168B JUMPI JUMPDEST POP POP POP DUP2 SHL ADD PUSH1 0x1 DUP3 ADD SSTORE PUSH2 0x7B8 JUMP JUMPDEST ADD MLOAD PUSH1 0x0 NOT PUSH1 0xF8 DUP5 PUSH1 0x3 SHL AND SHR NOT AND SWAP1 SSTORE DUP4 DUP1 DUP1 PUSH2 0x167B JUMP JUMPDEST DUP2 DUP2 ADD MLOAD DUP4 SSTORE PUSH1 0x20 SWAP5 DUP6 ADD SWAP5 PUSH1 0x1 SWAP1 SWAP4 ADD SWAP3 SWAP1 SWAP2 ADD SWAP1 PUSH2 0x1660 JUMP JUMPDEST ADD MLOAD SWAP1 POP DUP4 DUP1 PUSH2 0x740 JUMP JUMPDEST SWAP3 POP DUP4 PUSH1 0x0 MSTORE PUSH1 0x20 PUSH1 0x0 KECCAK256 SWAP1 PUSH1 0x0 SWAP4 JUMPDEST PUSH1 0x1F NOT DUP5 AND DUP6 LT PUSH2 0x171B JUMPI PUSH1 0x1 SWAP5 POP DUP4 PUSH1 0x1F NOT DUP2 AND LT PUSH2 0x1702 JUMPI JUMPDEST POP POP POP DUP2 SHL ADD DUP2 SSTORE PUSH2 0x755 JUMP JUMPDEST ADD MLOAD PUSH1 0x0 NOT PUSH1 0xF8 DUP5 PUSH1 0x3 SHL AND SHR NOT AND SWAP1 SSTORE DUP4 DUP1 DUP1 PUSH2 0x16F5 JUMP JUMPDEST DUP2 DUP2 ADD MLOAD DUP4 SSTORE PUSH1 0x20 SWAP5 DUP6 ADD SWAP5 PUSH1 0x1 SWAP1 SWAP4 ADD SWAP3 SWAP1 SWAP2 ADD SWAP1 PUSH2 0x16DA JUMP JUMPDEST PUSH1 0x40 MLOAD PUSH3 0x461BCD PUSH1 0xE5 SHL DUP2 MSTORE PUSH1 0x20 PUSH1 0x4 DUP3 ADD MSTORE PUSH1 0xB PUSH1 0x24 DUP3 ADD MSTORE PUSH11 0x139BDD081CDD195DD85C99 PUSH1 0xAA SHL PUSH1 0x44 DUP3 ADD MSTORE PUSH1 0x64 SWAP1 REVERT JUMPDEST CALLVALUE PUSH2 0x291 JUMPI PUSH1 0x20 CALLDATASIZE PUSH1 0x3 NOT ADD SLT PUSH2 0x291 JUMPI PUSH1 0x4 CALLDATALOAD PUSH1 0x1 PUSH1 0x1 PUSH1 0x40 SHL SUB DUP2 GT PUSH2 0x291 JUMPI PUSH1 0x20 PUSH2 0x179E PUSH2 0x19CD SWAP3 CALLDATASIZE SWAP1 PUSH1 0x4 ADD PUSH2 0x1CDB JUMP JUMPDEST SWAP2 SWAP1 PUSH1 0x60 PUSH2 0x1C0 PUSH1 0x40 MLOAD PUSH2 0x17B1 DUP2 PUSH2 0x1BB0 JUMP JUMPDEST DUP3 DUP2 MSTORE DUP3 DUP6 DUP3 ADD MSTORE DUP3 PUSH1 0x40 DUP3 ADD MSTORE DUP3 DUP1 DUP3 ADD MSTORE DUP3 PUSH1 0x80 DUP3 ADD MSTORE DUP3 PUSH1 0xA0 DUP3 ADD MSTORE DUP3 PUSH1 0xC0 DUP3 ADD MSTORE DUP3 PUSH1 0xE0 DUP3 ADD MSTORE DUP3 PUSH2 0x100 DUP3 ADD MSTORE DUP3 PUSH2 0x120 DUP3 ADD MSTORE DUP3 PUSH2 0x140 DUP3 ADD MSTORE DUP3 PUSH2 0x160 DUP3 ADD MSTORE DUP3 PUSH2 0x180 DUP3 ADD MSTORE DUP3 PUSH2 0x1A0 DUP3 ADD MSTORE ADD MSTORE DUP3 PUSH1 0x40 MLOAD SWAP4 DUP5 SWAP3 DUP4 CALLDATACOPY DUP2 ADD PUSH1 0x1 DUP2 MSTORE SUB ADD SWAP1 KECCAK256 PUSH2 0x1921 PUSH1 0xE PUSH1 0x40 MLOAD SWAP3 PUSH2 0x182D DUP5 PUSH2 0x1BB0 JUMP JUMPDEST PUSH2 0x1836 DUP2 PUSH2 0x1BED JUMP JUMPDEST DUP5 MSTORE PUSH2 0x1844 PUSH1 0x1 DUP3 ADD PUSH2 0x1BED JUMP JUMPDEST PUSH1 0x20 DUP6 ADD MSTORE PUSH2 0x1855 PUSH1 0x2 DUP3 ADD PUSH2 0x1BED JUMP JUMPDEST PUSH1 0x40 DUP6 ADD MSTORE PUSH2 0x1866 PUSH1 0x3 DUP3 ADD PUSH2 0x1BED JUMP JUMPDEST PUSH1 0x60 DUP6 ADD MSTORE PUSH2 0x1877 PUSH1 0x4 DUP3 ADD PUSH2 0x1BED JUMP JUMPDEST PUSH1 0x80 DUP6 ADD MSTORE PUSH2 0x1888 PUSH1 0x5 DUP3 ADD PUSH2 0x1BED JUMP JUMPDEST PUSH1 0xA0 DUP6 ADD MSTORE PUSH2 0x1899 PUSH1 0x6 DUP3 ADD PUSH2 0x1BED JUMP JUMPDEST PUSH1 0xC0 DUP6 ADD MSTORE PUSH2 0x18AA PUSH1 0x7 DUP3 ADD PUSH2 0x1BED JUMP JUMPDEST PUSH1 0xE0 DUP6 ADD MSTORE PUSH2 0x18BB PUSH1 0x8 DUP3 ADD PUSH2 0x1BED JUMP JUMPDEST PUSH2 0x100 DUP6 ADD MSTORE PUSH2 0x18CD PUSH1 0x9 DUP3 ADD PUSH2 0x1BED JUMP JUMPDEST PUSH2 0x120 DUP6 ADD MSTORE PUSH2 0x18DF PUSH1 0xA DUP3 ADD PUSH2 0x1BED JUMP JUMPDEST PUSH2 0x140 DUP6 ADD MSTORE PUSH2 0x18F1 PUSH1 0xB DUP3 ADD PUSH2 0x1BED JUMP JUMPDEST PUSH2 0x160 DUP6 ADD MSTORE PUSH2 0x1903 PUSH1 0xC DUP3 ADD PUSH2 0x1BED JUMP JUMPDEST PUSH2 0x180 DUP6 ADD MSTORE PUSH2 0x1915 PUSH1 0xD DUP3 ADD PUSH2 0x1BED JUMP JUMPDEST PUSH2 0x1A0 DUP6 ADD MSTORE ADD PUSH2 0x1BED JUMP JUMPDEST PUSH2 0x1C0 DUP3 ADD MSTORE PUSH2 0x28D DUP2 PUSH2 0x1C0 PUSH2 0x1AA0 PUSH2 0x1A8A PUSH2 0x1A72 PUSH2 0x1A5A PUSH2 0x1A42 PUSH2 0x1A2A PUSH2 0x1A12 PUSH2 0x19FB PUSH2 0x19E5 PUSH1 0x40 MLOAD SWAP14 DUP15 SWAP14 DUP15 PUSH1 0x20 DUP2 MSTORE PUSH1 0x80 PUSH2 0x19B8 PUSH2 0x19A3 PUSH2 0x198D PUSH2 0x1977 DUP7 MLOAD PUSH2 0x1E0 PUSH1 0x20 DUP9 ADD MSTORE PUSH2 0x200 DUP8 ADD SWAP1 PUSH2 0x1CB6 JUMP JUMPDEST PUSH1 0x20 DUP8 ADD MLOAD DUP7 DUP3 SUB PUSH1 0x1F NOT ADD PUSH1 0x40 DUP9 ADD MSTORE PUSH2 0x1CB6 JUMP JUMPDEST PUSH1 0x40 DUP7 ADD MLOAD DUP6 DUP3 SUB PUSH1 0x1F NOT ADD PUSH1 0x60 DUP8 ADD MSTORE PUSH2 0x1CB6 JUMP JUMPDEST PUSH1 0x60 DUP6 ADD MLOAD DUP5 DUP3 SUB PUSH1 0x1F NOT ADD DUP5 DUP7 ADD MSTORE PUSH2 0x1CB6 JUMP JUMPDEST SWAP3 ADD MLOAD SWAP1 PUSH1 0xA0 PUSH1 0x1F NOT DUP3 DUP6 SUB ADD SWAP2 ADD MSTORE PUSH2 0x1CB6 JUMP JUMPDEST DUP14 PUSH1 0xA0 DUP14 ADD MLOAD SWAP1 PUSH1 0xC0 PUSH1 0x1F NOT DUP3 DUP6 SUB ADD SWAP2 ADD MSTORE PUSH2 0x1CB6 JUMP JUMPDEST PUSH1 0xC0 DUP12 ADD MLOAD DUP14 DUP3 SUB PUSH1 0x1F NOT ADD PUSH1 0xE0 DUP16 ADD MSTORE PUSH2 0x1CB6 JUMP JUMPDEST PUSH1 0xE0 DUP11 ADD MLOAD DUP13 DUP3 SUB PUSH1 0x1F NOT ADD PUSH2 0x100 DUP15 ADD MSTORE PUSH2 0x1CB6 JUMP JUMPDEST PUSH2 0x100 DUP10 ADD MLOAD DUP12 DUP3 SUB PUSH1 0x1F NOT ADD PUSH2 0x120 DUP14 ADD MSTORE PUSH2 0x1CB6 JUMP JUMPDEST PUSH2 0x120 DUP9 ADD MLOAD DUP11 DUP3 SUB PUSH1 0x1F NOT ADD PUSH2 0x140 DUP13 ADD MSTORE PUSH2 0x1CB6 JUMP JUMPDEST PUSH2 0x140 DUP8 ADD MLOAD DUP10 DUP3 SUB PUSH1 0x1F NOT ADD PUSH2 0x160 DUP12 ADD MSTORE PUSH2 0x1CB6 JUMP JUMPDEST PUSH2 0x160 DUP7 ADD MLOAD DUP9 DUP3 SUB PUSH1 0x1F NOT ADD PUSH2 0x180 DUP11 ADD MSTORE PUSH2 0x1CB6 JUMP JUMPDEST PUSH2 0x180 DUP6 ADD MLOAD DUP8 DUP3 SUB PUSH1 0x1F NOT ADD PUSH2 0x1A0 DUP10 ADD MSTORE PUSH2 0x1CB6 JUMP JUMPDEST PUSH2 0x1A0 DUP5 ADD MLOAD DUP7 DUP3 SUB PUSH1 0x1F NOT ADD DUP5 DUP9 ADD MSTORE PUSH2 0x1CB6 JUMP JUMPDEST SWAP2 ADD MLOAD DUP4 DUP3 SUB PUSH1 0x1F NOT ADD PUSH2 0x1E0 DUP6 ADD MSTORE PUSH2 0x1CB6 JUMP JUMPDEST CALLVALUE PUSH2 0x291 JUMPI PUSH1 0x0 CALLDATASIZE PUSH1 0x3 NOT ADD SLT PUSH2 0x291 JUMPI PUSH1 0x0 SLOAD PUSH1 0x40 MLOAD PUSH1 0x1 PUSH1 0x1 PUSH1 0xA0 SHL SUB SWAP1 SWAP2 AND DUP2 MSTORE PUSH1 0x20 SWAP1 RETURN JUMPDEST CALLVALUE PUSH2 0x291 JUMPI PUSH1 0x20 CALLDATASIZE PUSH1 0x3 NOT ADD SLT PUSH2 0x291 JUMPI PUSH1 0x4 CALLDATALOAD PUSH1 0x2 SLOAD DUP2 LT ISZERO PUSH2 0x291 JUMPI PUSH2 0x1B05 SWAP1 PUSH2 0x1B29 JUMP JUMPDEST PUSH2 0xFD5 JUMPI PUSH2 0x1B15 PUSH2 0x28D SWAP2 PUSH2 0x1BED JUMP JUMPDEST PUSH1 0x40 MLOAD SWAP2 DUP3 SWAP2 PUSH1 0x20 DUP4 MSTORE PUSH1 0x20 DUP4 ADD SWAP1 PUSH2 0x1CB6 JUMP JUMPDEST PUSH1 0x2 SLOAD DUP2 LT ISZERO PUSH2 0x1B60 JUMPI PUSH1 0x2 PUSH1 0x0 MSTORE PUSH32 0x405787FA12A823E0F2B7631CC41B3BA8828B3321CA811111FA75CD3AA3BB5ACE ADD SWAP1 PUSH1 0x0 SWAP1 JUMP JUMPDEST PUSH4 0x4E487B71 PUSH1 0xE0 SHL PUSH1 0x0 MSTORE PUSH1 0x32 PUSH1 0x4 MSTORE PUSH1 0x24 PUSH1 0x0 REVERT JUMPDEST SWAP1 PUSH1 0x1 DUP3 DUP2 SHR SWAP3 AND DUP1 ISZERO PUSH2 0x1BA6 JUMPI JUMPDEST PUSH1 0x20 DUP4 LT EQ PUSH2 0x1B90 JUMPI JUMP JUMPDEST PUSH4 0x4E487B71 PUSH1 0xE0 SHL PUSH1 0x0 MSTORE PUSH1 0x22 PUSH1 0x4 MSTORE PUSH1 0x24 PUSH1 0x0 REVERT JUMPDEST SWAP2 PUSH1 0x7F AND SWAP2 PUSH2 0x1B85 JUMP JUMPDEST PUSH2 0x1E0 DUP2 ADD SWAP1 DUP2 LT PUSH1 0x1 PUSH1 0x1 PUSH1 0x40 SHL SUB DUP3 GT OR PUSH2 0xFBF JUMPI PUSH1 0x40 MSTORE JUMP JUMPDEST SWAP1 PUSH1 0x1F DUP1 NOT SWAP2 ADD AND DUP2 ADD SWAP1 DUP2 LT PUSH1 0x1 PUSH1 0x1 PUSH1 0x40 SHL SUB DUP3 GT OR PUSH2 0xFBF JUMPI PUSH1 0x40 MSTORE JUMP JUMPDEST SWAP1 PUSH1 0x40 MLOAD SWAP2 DUP3 PUSH1 0x0 DUP3 SLOAD SWAP3 PUSH2 0x1C01 DUP5 PUSH2 0x1B76 JUMP JUMPDEST SWAP1 DUP2 DUP5 MSTORE PUSH1 0x1 SWAP5 DUP6 DUP2 AND SWAP1 DUP2 PUSH1 0x0 EQ PUSH2 0x1C70 JUMPI POP PUSH1 0x1 EQ PUSH2 0x1C2D JUMPI JUMPDEST POP POP PUSH2 0x1C2B SWAP3 POP SUB DUP4 PUSH2 0x1BCC JUMP JUMPDEST JUMP JUMPDEST SWAP1 SWAP4 SWAP2 POP PUSH1 0x0 MSTORE PUSH1 0x20 SWAP1 DUP2 PUSH1 0x0 KECCAK256 SWAP4 PUSH1 0x0 SWAP2 JUMPDEST DUP2 DUP4 LT PUSH2 0x1C58 JUMPI POP POP PUSH2 0x1C2B SWAP4 POP DUP3 ADD ADD CODESIZE DUP1 PUSH2 0x1C1D JUMP JUMPDEST DUP6 SLOAD DUP9 DUP5 ADD DUP6 ADD MSTORE SWAP5 DUP6 ADD SWAP5 DUP8 SWAP5 POP SWAP2 DUP4 ADD SWAP2 PUSH2 0x1C40 JUMP JUMPDEST SWAP2 POP POP PUSH2 0x1C2B SWAP5 POP PUSH1 0x20 SWAP3 POP PUSH1 0xFF NOT AND DUP3 DUP5 ADD MSTORE ISZERO ISZERO PUSH1 0x5 SHL DUP3 ADD ADD CODESIZE DUP1 PUSH2 0x1C1D JUMP JUMPDEST PUSH1 0x0 JUMPDEST DUP4 DUP2 LT PUSH2 0x1CA6 JUMPI POP POP PUSH1 0x0 SWAP2 ADD MSTORE JUMP JUMPDEST DUP2 DUP2 ADD MLOAD DUP4 DUP3 ADD MSTORE PUSH1 0x20 ADD PUSH2 0x1C96 JUMP JUMPDEST SWAP1 PUSH1 0x20 SWAP2 PUSH2 0x1CCF DUP2 MLOAD DUP1 SWAP3 DUP2 DUP6 MSTORE DUP6 DUP1 DUP7 ADD SWAP2 ADD PUSH2 0x1C93 JUMP JUMPDEST PUSH1 0x1F ADD PUSH1 0x1F NOT AND ADD ADD SWAP1 JUMP JUMPDEST SWAP2 DUP2 PUSH1 0x1F DUP5 ADD SLT ISZERO PUSH2 0x291 JUMPI DUP3 CALLDATALOAD SWAP2 PUSH1 0x1 PUSH1 0x1 PUSH1 0x40 SHL SUB DUP4 GT PUSH2 0x291 JUMPI PUSH1 0x20 DUP4 DUP2 DUP7 ADD SWAP6 ADD ADD GT PUSH2 0x291 JUMPI JUMP JUMPDEST SWAP3 SWAP2 SWAP3 PUSH1 0x1 PUSH1 0x1 PUSH1 0x40 SHL SUB DUP3 GT PUSH2 0xFBF JUMPI PUSH1 0x40 MLOAD SWAP2 PUSH2 0x1D31 PUSH1 0x1F DUP3 ADD PUSH1 0x1F NOT AND PUSH1 0x20 ADD DUP5 PUSH2 0x1BCC JUMP JUMPDEST DUP3 SWAP5 DUP2 DUP5 MSTORE DUP2 DUP4 ADD GT PUSH2 0x291 JUMPI DUP3 DUP2 PUSH1 0x20 SWAP4 DUP5 PUSH1 0x0 SWAP7 ADD CALLDATACOPY ADD ADD MSTORE JUMP JUMPDEST SWAP1 PUSH1 0x1F DUP2 GT PUSH2 0x1D5C JUMPI POP POP POP JUMP JUMPDEST PUSH1 0x0 SWAP2 DUP3 MSTORE PUSH1 0x20 DUP3 KECCAK256 SWAP1 PUSH1 0x20 PUSH1 0x1F DUP6 ADD PUSH1 0x5 SHR DUP4 ADD SWAP5 LT PUSH2 0x1D98 JUMPI JUMPDEST PUSH1 0x1F ADD PUSH1 0x5 SHR ADD SWAP2 JUMPDEST DUP3 DUP2 LT PUSH2 0x1D8D JUMPI POP POP POP JUMP JUMPDEST DUP2 DUP2 SSTORE PUSH1 0x1 ADD PUSH2 0x1D81 JUMP JUMPDEST SWAP1 SWAP3 POP DUP3 SWAP1 PUSH2 0x1D78 JUMP JUMPDEST SWAP1 DUP1 PUSH1 0x20 SWAP4 SWAP3 DUP2 DUP5 MSTORE DUP5 DUP5 ADD CALLDATACOPY PUSH1 0x0 DUP3 DUP3 ADD DUP5 ADD MSTORE PUSH1 0x1F ADD PUSH1 0x1F NOT AND ADD ADD SWAP1 JUMP INVALID LOG2 PUSH5 0x6970667358 0x22 SLT KECCAK256 DUP11 SWAP13 0x26 0xC0 0xD8 0xDD SUB 0x2C PUSH5 0xB9D398F41A SELFBALANCE 0xD3 0x5C 0xBB REVERT PUSH11 0x638EF315F33CDA9EE43133 PUSH27 0x64736F6C6343000814003300000000000000000000000000000000 "},"methodIdentifiers":{"codices(string)":"dbc21424","getCodex(string)":"83361522","inscribeCodex(string,string,string,string,string,string,string,string,string,string,string,string,string,string,string,string)":"94e5ca6b","keys(uint256)":"0cb6aaf1","steward()":"637eea19","totalCodices()":"c212d16b"}}}}}