{"contracts/codex/SpiralboundCodexXII.sol":{"SpiralboundCodexXII":{"abi":[{"inputs":[],"stateMutability":"nonpayable","type":"constructor"},{"anonymous":false,"inputs":[{"indexed":false,"internalType":"string","name":"glyph","type":"string"},{"indexed":false,"internalType":"string","name":"tag","type":"string"},{"indexed":false,"internalType":"string","name":"binding","type":"string"},{"indexed":false,"internalType":"string","name":"annotation","type":"string"},{"indexed":false,"internalType":"string","name":"lineage","type":"string"},{"indexed":false,"internalType":"string","name":"resonance","type":"string"},{"indexed":false,"internalType":"string","name":"protocol","type":"string"},{"indexed":false,"internalType":"string","name":"sanctum","type":"string"},{"indexed":false,"internalType":"string","name":"pulse","type":"string"},{"indexed":false,"internalType":"string","name":"chant","type":"string"},{"indexed":false,"internalType":"string","name":"choreography","type":"string"},{"indexed":false,"internalType":"string","name":"drift","type":"string"},{"indexed":false,"internalType":"string","name":"signature","type":"string"}],"name":"CodexInscribed","type":"event"},{"inputs":[{"internalType":"string","name":"","type":"string"}],"name":"codices","outputs":[{"internalType":"string","name":"tag","type":"string"},{"internalType":"string","name":"binding","type":"string"},{"internalType":"string","name":"annotation","type":"string"},{"internalType":"string","name":"lineage","type":"string"},{"internalType":"string","name":"resonance","type":"string"},{"internalType":"string","name":"protocol","type":"string"},{"internalType":"string","name":"sanctum","type":"string"},{"internalType":"string","name":"pulse","type":"string"},{"internalType":"string","name":"chant","type":"string"},{"internalType":"string","name":"choreography","type":"string"},{"internalType":"string","name":"drift","type":"string"},{"internalType":"string","name":"signature","type":"string"}],"stateMutability":"view","type":"function"},{"inputs":[{"internalType":"string","name":"glyph","type":"string"}],"name":"getCodex","outputs":[{"components":[{"internalType":"string","name":"tag","type":"string"},{"internalType":"string","name":"binding","type":"string"},{"internalType":"string","name":"annotation","type":"string"},{"internalType":"string","name":"lineage","type":"string"},{"internalType":"string","name":"resonance","type":"string"},{"internalType":"string","name":"protocol","type":"string"},{"internalType":"string","name":"sanctum","type":"string"},{"internalType":"string","name":"pulse","type":"string"},{"internalType":"string","name":"chant","type":"string"},{"internalType":"string","name":"choreography","type":"string"},{"internalType":"string","name":"drift","type":"string"},{"internalType":"string","name":"signature","type":"string"}],"internalType":"struct SpiralboundCodexXII.Codex","name":"","type":"tuple"}],"stateMutability":"view","type":"function"},{"inputs":[{"internalType":"string","name":"glyph","type":"string"},{"internalType":"string","name":"tag","type":"string"},{"internalType":"string","name":"binding","type":"string"},{"internalType":"string","name":"annotation","type":"string"},{"internalType":"string","name":"lineage","type":"string"},{"internalType":"string","name":"resonance","type":"string"},{"internalType":"string","name":"protocol","type":"string"},{"internalType":"string","name":"sanctum","type":"string"},{"internalType":"string","name":"pulse","type":"string"},{"internalType":"string","name":"chant","type":"string"},{"internalType":"string","name":"choreography","type":"string"},{"internalType":"string","name":"drift","type":"string"},{"internalType":"string","name":"signature","type":"string"}],"name":"inscribeCodex","outputs":[],"stateMutability":"nonpayable","type":"function"},{"inputs":[{"internalType":"uint256","name":"","type":"uint256"}],"name":"keys","outputs":[{"internalType":"string","name":"","type":"string"}],"stateMutability":"view","type":"function"},{"inputs":[],"name":"steward","outputs":[{"internalType":"address","name":"","type":"address"}],"stateMutability":"view","type":"function"},{"inputs":[],"name":"totalCodices","outputs":[{"internalType":"uint256","name":"","type":"uint256"}],"stateMutability":"view","type":"function"}],"evm":{"bytecode":{"linkReferences":{},"object":"6080806040523461002857600080546001600160a01b0319163317905561192a908161002e8239f35b600080fdfe610400604052600436101561001357600080fd5b60003560e01c80630cb6aaf11461160f578063637eea19146115e65780638336152214611336578063c212d16b14611318578063dbc21424146111455763ee403f021461005f57600080fd5b34611140576101a0366003190112611140576004356001600160401b0381116111405761009090369060040161180c565b6103a0526101c0526024356001600160401b038111611140576100b790369060040161180c565b60e052610320526044356001600160401b038111611140576100dd90369060040161180c565b6102c052610380526064356001600160401b0381116111405761010490369060040161180c565b6103c052610100526084356001600160401b0381116111405761012b90369060040161180c565b60c0526102e05260a4356001600160401b0381116111405761015190369060040161180c565b61018052610260526001600160401b0360c43511611140576101783660c43560040161180c565b61034052610360526001600160401b0360e435116111405761019f3660e43560040161180c565b61014052610220526001600160401b036101043511611140576101c8366101043560040161180c565b610240526103e0526001600160401b036101243511611140576101f1366101243560040161180c565b6080526101a0526001600160401b03610144351161114057610219366101443560040161180c565b61030052610120526001600160401b03610164351161114057610242366101643560040161180c565b6102a052610280526001600160401b0361018435116111405761026b366101843560040161180c565b610200526101e0526000546001600160a01b0316330361110d5761029560405180610160526116e1565b6102a53660e05161032051611839565b61016051526102bb366102c05161038051611839565b60206101605101526102d4366103c05161010051611839565b60406101605101526102ec3660c0516102e051611839565b6060610160510152610305366101805161026051611839565b608061016051015261031e366103405161036051611839565b60a0610160510152610337366101405161022051611839565b60c061016051015261035036610240516103e051611839565b60e0610160510152610368366080516101a051611839565b610100610160510152610382366103005161012051611839565b61012061016051015261039c366102a05161028051611839565b6101406101605101526103b636610200516101e051611839565b610160805101526040516103a0516101c051823760016103a0518201526020816103a05181010301902061016051518051906001600160401b038211610b0d57819061040c8261040686546116a7565b8661187f565b602090601f83116001146110a157600092611096575b50508160011b916000199060031b1c19161781555b60206101605101518051906001600160401b038211610b0d57819061046c8261046360018701546116a7565b6001870161187f565b602090601f831160011461102457600092611019575b50508160011b916000199060031b1c19161760018201555b60406101605101518051906001600160401b038211610b0d5781906104cf826104c660028701546116a7565b6002870161187f565b602090601f8311600114610fa757600092610f9c575b50508160011b916000199060031b1c19161760028201555b60606101605101518051906001600160401b038211610b0d5781906105328261052960038701546116a7565b6003870161187f565b602090601f8311600114610f2a57600092610f1f575b50508160011b916000199060031b1c19161760038201555b60806101605101518051906001600160401b038211610b0d5781906105958261058c60048701546116a7565b6004870161187f565b602090601f8311600114610ead57600092610ea2575b50508160011b916000199060031b1c19161760048201555b60a06101605101518051906001600160401b038211610b0d5781906105f8826105ef60058701546116a7565b6005870161187f565b602090601f8311600114610e3057600092610e25575b50508160011b916000199060031b1c19161760058201555b60c06101605101518051906001600160401b038211610b0d57819061065b8261065260068701546116a7565b6006870161187f565b602090601f8311600114610db357600092610da8575b50508160011b916000199060031b1c19161760068201555b60e06101605101518051906001600160401b038211610b0d5781906106be826106b560078701546116a7565b6007870161187f565b602090601f8311600114610d3657600092610d2b575b50508160011b916000199060031b1c19161760078201555b6101006101605101518051906001600160401b038211610b0d5781906107228261071960088701546116a7565b6008870161187f565b602090601f8311600114610cb957600092610cae575b50508160011b916000199060031b1c19161760088201555b6101206101605101518051906001600160401b038211610b0d5781906107868261077d60098701546116a7565b6009870161187f565b602090601f8311600114610c3c57600092610c31575b50508160011b916000199060031b1c19161760098201555b6101406101605101518051906001600160401b038211610b0d5781906107ea826107e1600a8701546116a7565b600a870161187f565b602090601f8311600114610bbf57600092610bb4575b50508160011b916000199060031b1c191617600a8201555b610160805101518051906001600160401b038211610b0d5761084a82610841600b8601546116a7565b600b860161187f565b602090601f8311600114610b4457600b929160009183610b39575b50508160011b916000199060031b1c1916179101555b60025468010000000000000000811015610b0d5780600161089f920160025561165a565b610b23576103a0516001600160401b038111610b0d576108c9906108c383546116a7565b8361187f565b6000906103a051601f8111600114610aa057509060006103a0519182610a92575b508160011b916000199060031b1c19161790555b6101a06040518060a052527f9ba5e4b5d85d5a29bd89f03c9df6ba39113ef40c7de03de0dba7df056b0c95e3610a6b610a52610a39610a21610a086109f06109d86109c06109a96109916109796109626101a060a051016103a0516101c0516118d3565b60a051602081830391015260e051610320516118d3565b60a05160408183039101526102c051610380516118d3565b60a05160608183039101526103c051610100516118d3565b60a051608081830391015260c0516102e0516118d3565b60a05160a081830391015261018051610260516118d3565b60a05160c081830391015261034051610360516118d3565b60a05160e081830391015261014051610220516118d3565b60a051610100818303910152610240516103e0516118d3565b60a0516101208183039101526080516101a0516118d3565b60a05161014081830391015261030051610120516118d3565b60a0516101608183039101526102a051610280516118d3565b60a051610180818303910152610a8b60a05191610200516101e0516118d3565b0360a051a1005b90506101c0510135386108ea565b8160005260206000206000936101c051905b601f1984168610610af557600194955083601f19811610610adb575b505050811b0190556108fe565b0135600019600384901b60f8161c19169055388080610ace565b91602060018192858501358155019301950194610ab2565b634e487b7160e01b600052604160045260246000fd5b634e487b7160e01b600052600060045260246000fd5b015190503880610865565b90600b840160005260206000209160005b601f1985168110610b9c5750918391600193600b95601f19811610610b83575b505050811b0191015561087b565b015160001960f88460031b161c19169055388080610b75565b91926020600181928685015181550194019201610b55565b015190503880610800565b9250600a84016000526020600020906000935b601f1984168510610c16576001945083601f19811610610bfd575b505050811b01600a820155610818565b015160001960f88460031b161c19169055388080610bed565b81810151835560209485019460019093019290910190610bd2565b01519050388061079c565b9250600984016000526020600020906000935b601f1984168510610c93576001945083601f19811610610c7a575b505050811b0160098201556107b4565b015160001960f88460031b161c19169055388080610c6a565b81810151835560209485019460019093019290910190610c4f565b015190503880610738565b9250600884016000526020600020906000935b601f1984168510610d10576001945083601f19811610610cf7575b505050811b016008820155610750565b015160001960f88460031b161c19169055388080610ce7565b81810151835560209485019460019093019290910190610ccc565b0151905038806106d4565b9250600784016000526020600020906000935b601f1984168510610d8d576001945083601f19811610610d74575b505050811b0160078201556106ec565b015160001960f88460031b161c19169055388080610d64565b81810151835560209485019460019093019290910190610d49565b015190503880610671565b9250600684016000526020600020906000935b601f1984168510610e0a576001945083601f19811610610df1575b505050811b016006820155610689565b015160001960f88460031b161c19169055388080610de1565b81810151835560209485019460019093019290910190610dc6565b01519050388061060e565b9250600584016000526020600020906000935b601f1984168510610e87576001945083601f19811610610e6e575b505050811b016005820155610626565b015160001960f88460031b161c19169055388080610e5e565b81810151835560209485019460019093019290910190610e43565b0151905038806105ab565b9250600484016000526020600020906000935b601f1984168510610f04576001945083601f19811610610eeb575b505050811b0160048201556105c3565b015160001960f88460031b161c19169055388080610edb565b81810151835560209485019460019093019290910190610ec0565b015190503880610548565b9250600384016000526020600020906000935b601f1984168510610f81576001945083601f19811610610f68575b505050811b016003820155610560565b015160001960f88460031b161c19169055388080610f58565b81810151835560209485019460019093019290910190610f3d565b0151905038806104e5565b9250600284016000526020600020906000935b601f1984168510610ffe576001945083601f19811610610fe5575b505050811b0160028201556104fd565b015160001960f88460031b161c19169055388080610fd5565b81810151835560209485019460019093019290910190610fba565b015190503880610482565b9250600184016000526020600020906000935b601f198416851061107b576001945083601f19811610611062575b505050811b01600182015561049a565b015160001960f88460031b161c19169055388080611052565b81810151835560209485019460019093019290910190611037565b015190503880610422565b9250836000526020600020906000935b601f19841685106110f2576001945083601f198116106110d9575b505050811b018155610437565b015160001960f88460031b161c191690553880806110cc565b818101518355602094850194600190930192909101906110b1565b60405162461bcd60e51b815260206004820152600b60248201526a139bdd081cdd195dd85c9960aa1b6044820152606490fd5b600080fd5b34611140576020366003190112611140576004356001600160401b038111611140573660238201121561114057368160040135916024019161118692611839565b604051818180935160208193019161119d926117c4565b8101600181520360200190206111b28161171e565b6111be6001830161171e565b916111cb6002820161171e565b906111d86003820161171e565b6111e46004830161171e565b6111f06005840161171e565b6111fc6006850161171e565b6112086007860161171e565b916112156008870161171e565b936112226009880161171e565b9561122f600a890161171e565b97600b0161123c9061171e565b986040519b8c9b8c6101808091528d01611255916117e7565b8c810360208e0152611266916117e7565b8b810360408d0152611277916117e7565b8a810360608c0152611288916117e7565b89810360808b0152611299916117e7565b88810360a08a01526112aa916117e7565b87810360c08901526112bb916117e7565b86810360e08801526112cc916117e7565b8581036101008701526112de916117e7565b8481036101208601526112f0916117e7565b838103610140850152611302916117e7565b828103610160840152611314916117e7565b0390f35b34611140576000366003190112611140576020600254604051908152f35b34611140576020366003190112611140576004356001600160401b03811161114057602061136b61150492369060040161180c565b9190606061016060405161137e816116e1565b828152828582015282604082015282808201528260808201528260a08201528260c08201528260e08201528261010082015282610120820152826101408201520152826040519384928337810160018152030190206114a3600b604051926113e5846116e1565b6113ee8161171e565b84526113fc6001820161171e565b602085015261140d6002820161171e565b604085015261141e6003820161171e565b606085015261142f6004820161171e565b60808501526114406005820161171e565b60a08501526114516006820161171e565b60c08501526114626007820161171e565b60e08501526114736008820161171e565b6101008501526114856009820161171e565b610120850152611497600a820161171e565b6101408501520161171e565b610160820152611314816101606115d16115bb6115a361158b61157461155e61154861153261151c6040519d8e9d8e6020815260206114ef8351610180838501526101a08401906117e7565b920151906040601f19828503019101526117e7565b8d60408d0151906060601f19828503019101526117e7565b60608b01518d8203601f190160808f01526117e7565b60808a01518c8203601f190160a08e01526117e7565b60a08901518b8203601f190160c08d01526117e7565b60c08801518a8203601f190160e08c01526117e7565b60e0870151898203601f19016101008b01526117e7565b610100860151888203601f19016101208a01526117e7565b610120850151878203601f19016101408901526117e7565b610140840151868203601f1901848801526117e7565b910151838203601f19016101808501526117e7565b34611140576000366003190112611140576000546040516001600160a01b039091168152602090f35b3461114057602036600319011261114057600435600254811015611140576116369061165a565b610b23576116466113149161171e565b6040519182916020835260208301906117e7565b6002548110156116915760026000527f405787fa12a823e0f2b7631cc41b3ba8828b3321ca811111fa75cd3aa3bb5ace0190600090565b634e487b7160e01b600052603260045260246000fd5b90600182811c921680156116d7575b60208310146116c157565b634e487b7160e01b600052602260045260246000fd5b91607f16916116b6565b61018081019081106001600160401b03821117610b0d57604052565b90601f801991011681019081106001600160401b03821117610b0d57604052565b9060405191826000825492611732846116a7565b9081845260019485811690816000146117a1575060011461175e575b505061175c925003836116fd565b565b9093915060005260209081600020936000915b81831061178957505061175c9350820101388061174e565b85548884018501529485019487945091830191611771565b91505061175c94506020925060ff191682840152151560051b820101388061174e565b60005b8381106117d75750506000910152565b81810151838201526020016117c7565b90602091611800815180928185528580860191016117c4565b601f01601f1916010190565b9181601f84011215611140578235916001600160401b038311611140576020838186019501011161114057565b9291926001600160401b038211610b0d5760405191611862601f8201601f1916602001846116fd565b829481845281830111611140578281602093846000960137010152565b90601f811161188d57505050565b600091825260208220906020601f850160051c830194106118c9575b601f0160051c01915b8281106118be57505050565b8181556001016118b2565b90925082906118a9565b908060209392818452848401376000828201840152601f01601f191601019056fea26469706673582212203c7476bae4ec430540ad587ec40dc8a942816fc605fa18c72c8b69960841c86264736f6c63430008140033","opcodes":"PUSH1 0x80 DUP1 PUSH1 0x40 MSTORE CALLVALUE PUSH2 0x28 JUMPI PUSH1 0x0 DUP1 SLOAD PUSH1 0x1 PUSH1 0x1 PUSH1 0xA0 SHL SUB NOT AND CALLER OR SWAP1 SSTORE PUSH2 0x192A SWAP1 DUP2 PUSH2 0x2E DUP3 CODECOPY RETURN JUMPDEST PUSH1 0x0 DUP1 REVERT INVALID PUSH2 0x400 PUSH1 0x40 MSTORE PUSH1 0x4 CALLDATASIZE LT ISZERO PUSH2 0x13 JUMPI PUSH1 0x0 DUP1 REVERT JUMPDEST PUSH1 0x0 CALLDATALOAD PUSH1 0xE0 SHR DUP1 PUSH4 0xCB6AAF1 EQ PUSH2 0x160F JUMPI DUP1 PUSH4 0x637EEA19 EQ PUSH2 0x15E6 JUMPI DUP1 PUSH4 0x83361522 EQ PUSH2 0x1336 JUMPI DUP1 PUSH4 0xC212D16B EQ PUSH2 0x1318 JUMPI DUP1 PUSH4 0xDBC21424 EQ PUSH2 0x1145 JUMPI PUSH4 0xEE403F02 EQ PUSH2 0x5F JUMPI PUSH1 0x0 DUP1 REVERT JUMPDEST CALLVALUE PUSH2 0x1140 JUMPI PUSH2 0x1A0 CALLDATASIZE PUSH1 0x3 NOT ADD SLT PUSH2 0x1140 JUMPI PUSH1 0x4 CALLDATALOAD PUSH1 0x1 PUSH1 0x1 PUSH1 0x40 SHL SUB DUP2 GT PUSH2 0x1140 JUMPI PUSH2 0x90 SWAP1 CALLDATASIZE SWAP1 PUSH1 0x4 ADD PUSH2 0x180C JUMP JUMPDEST PUSH2 0x3A0 MSTORE PUSH2 0x1C0 MSTORE PUSH1 0x24 CALLDATALOAD PUSH1 0x1 PUSH1 0x1 PUSH1 0x40 SHL SUB DUP2 GT PUSH2 0x1140 JUMPI PUSH2 0xB7 SWAP1 CALLDATASIZE SWAP1 PUSH1 0x4 ADD PUSH2 0x180C JUMP JUMPDEST PUSH1 0xE0 MSTORE PUSH2 0x320 MSTORE PUSH1 0x44 CALLDATALOAD PUSH1 0x1 PUSH1 0x1 PUSH1 0x40 SHL SUB DUP2 GT PUSH2 0x1140 JUMPI PUSH2 0xDD SWAP1 CALLDATASIZE SWAP1 PUSH1 0x4 ADD PUSH2 0x180C JUMP JUMPDEST PUSH2 0x2C0 MSTORE PUSH2 0x380 MSTORE PUSH1 0x64 CALLDATALOAD PUSH1 0x1 PUSH1 0x1 PUSH1 0x40 SHL SUB DUP2 GT PUSH2 0x1140 JUMPI PUSH2 0x104 SWAP1 CALLDATASIZE SWAP1 PUSH1 0x4 ADD PUSH2 0x180C JUMP JUMPDEST PUSH2 0x3C0 MSTORE PUSH2 0x100 MSTORE PUSH1 0x84 CALLDATALOAD PUSH1 0x1 PUSH1 0x1 PUSH1 0x40 SHL SUB DUP2 GT PUSH2 0x1140 JUMPI PUSH2 0x12B SWAP1 CALLDATASIZE SWAP1 PUSH1 0x4 ADD PUSH2 0x180C JUMP JUMPDEST PUSH1 0xC0 MSTORE PUSH2 0x2E0 MSTORE PUSH1 0xA4 CALLDATALOAD PUSH1 0x1 PUSH1 0x1 PUSH1 0x40 SHL SUB DUP2 GT PUSH2 0x1140 JUMPI PUSH2 0x151 SWAP1 CALLDATASIZE SWAP1 PUSH1 0x4 ADD PUSH2 0x180C JUMP JUMPDEST PUSH2 0x180 MSTORE PUSH2 0x260 MSTORE PUSH1 0x1 PUSH1 0x1 PUSH1 0x40 SHL SUB PUSH1 0xC4 CALLDATALOAD GT PUSH2 0x1140 JUMPI PUSH2 0x178 CALLDATASIZE PUSH1 0xC4 CALLDATALOAD PUSH1 0x4 ADD PUSH2 0x180C JUMP JUMPDEST PUSH2 0x340 MSTORE PUSH2 0x360 MSTORE PUSH1 0x1 PUSH1 0x1 PUSH1 0x40 SHL SUB PUSH1 0xE4 CALLDATALOAD GT PUSH2 0x1140 JUMPI PUSH2 0x19F CALLDATASIZE PUSH1 0xE4 CALLDATALOAD PUSH1 0x4 ADD PUSH2 0x180C JUMP JUMPDEST PUSH2 0x140 MSTORE PUSH2 0x220 MSTORE PUSH1 0x1 PUSH1 0x1 PUSH1 0x40 SHL SUB PUSH2 0x104 CALLDATALOAD GT PUSH2 0x1140 JUMPI PUSH2 0x1C8 CALLDATASIZE PUSH2 0x104 CALLDATALOAD PUSH1 0x4 ADD PUSH2 0x180C JUMP JUMPDEST PUSH2 0x240 MSTORE PUSH2 0x3E0 MSTORE PUSH1 0x1 PUSH1 0x1 PUSH1 0x40 SHL SUB PUSH2 0x124 CALLDATALOAD GT PUSH2 0x1140 JUMPI PUSH2 0x1F1 CALLDATASIZE PUSH2 0x124 CALLDATALOAD PUSH1 0x4 ADD PUSH2 0x180C JUMP JUMPDEST PUSH1 0x80 MSTORE PUSH2 0x1A0 MSTORE PUSH1 0x1 PUSH1 0x1 PUSH1 0x40 SHL SUB PUSH2 0x144 CALLDATALOAD GT PUSH2 0x1140 JUMPI PUSH2 0x219 CALLDATASIZE PUSH2 0x144 CALLDATALOAD PUSH1 0x4 ADD PUSH2 0x180C JUMP JUMPDEST PUSH2 0x300 MSTORE PUSH2 0x120 MSTORE PUSH1 0x1 PUSH1 0x1 PUSH1 0x40 SHL SUB PUSH2 0x164 CALLDATALOAD GT PUSH2 0x1140 JUMPI PUSH2 0x242 CALLDATASIZE PUSH2 0x164 CALLDATALOAD PUSH1 0x4 ADD PUSH2 0x180C JUMP JUMPDEST PUSH2 0x2A0 MSTORE PUSH2 0x280 MSTORE PUSH1 0x1 PUSH1 0x1 PUSH1 0x40 SHL SUB PUSH2 0x184 CALLDATALOAD GT PUSH2 0x1140 JUMPI PUSH2 0x26B CALLDATASIZE PUSH2 0x184 CALLDATALOAD PUSH1 0x4 ADD PUSH2 0x180C JUMP JUMPDEST PUSH2 0x200 MSTORE PUSH2 0x1E0 MSTORE PUSH1 0x0 SLOAD PUSH1 0x1 PUSH1 0x1 PUSH1 0xA0 SHL SUB AND CALLER SUB PUSH2 0x110D JUMPI PUSH2 0x295 PUSH1 0x40 MLOAD DUP1 PUSH2 0x160 MSTORE PUSH2 0x16E1 JUMP JUMPDEST PUSH2 0x2A5 CALLDATASIZE PUSH1 0xE0 MLOAD PUSH2 0x320 MLOAD PUSH2 0x1839 JUMP JUMPDEST PUSH2 0x160 MLOAD MSTORE PUSH2 0x2BB CALLDATASIZE PUSH2 0x2C0 MLOAD PUSH2 0x380 MLOAD PUSH2 0x1839 JUMP JUMPDEST PUSH1 0x20 PUSH2 0x160 MLOAD ADD MSTORE PUSH2 0x2D4 CALLDATASIZE PUSH2 0x3C0 MLOAD PUSH2 0x100 MLOAD PUSH2 0x1839 JUMP JUMPDEST PUSH1 0x40 PUSH2 0x160 MLOAD ADD MSTORE PUSH2 0x2EC CALLDATASIZE PUSH1 0xC0 MLOAD PUSH2 0x2E0 MLOAD PUSH2 0x1839 JUMP JUMPDEST PUSH1 0x60 PUSH2 0x160 MLOAD ADD MSTORE PUSH2 0x305 CALLDATASIZE PUSH2 0x180 MLOAD PUSH2 0x260 MLOAD PUSH2 0x1839 JUMP JUMPDEST PUSH1 0x80 PUSH2 0x160 MLOAD ADD MSTORE PUSH2 0x31E CALLDATASIZE PUSH2 0x340 MLOAD PUSH2 0x360 MLOAD PUSH2 0x1839 JUMP JUMPDEST PUSH1 0xA0 PUSH2 0x160 MLOAD ADD MSTORE PUSH2 0x337 CALLDATASIZE PUSH2 0x140 MLOAD PUSH2 0x220 MLOAD PUSH2 0x1839 JUMP JUMPDEST PUSH1 0xC0 PUSH2 0x160 MLOAD ADD MSTORE PUSH2 0x350 CALLDATASIZE PUSH2 0x240 MLOAD PUSH2 0x3E0 MLOAD PUSH2 0x1839 JUMP JUMPDEST PUSH1 0xE0 PUSH2 0x160 MLOAD ADD MSTORE PUSH2 0x368 CALLDATASIZE PUSH1 0x80 MLOAD PUSH2 0x1A0 MLOAD PUSH2 0x1839 JUMP JUMPDEST PUSH2 0x100 PUSH2 0x160 MLOAD ADD MSTORE PUSH2 0x382 CALLDATASIZE PUSH2 0x300 MLOAD PUSH2 0x120 MLOAD PUSH2 0x1839 JUMP JUMPDEST PUSH2 0x120 PUSH2 0x160 MLOAD ADD MSTORE PUSH2 0x39C CALLDATASIZE PUSH2 0x2A0 MLOAD PUSH2 0x280 MLOAD PUSH2 0x1839 JUMP JUMPDEST PUSH2 0x140 PUSH2 0x160 MLOAD ADD MSTORE PUSH2 0x3B6 CALLDATASIZE PUSH2 0x200 MLOAD PUSH2 0x1E0 MLOAD PUSH2 0x1839 JUMP JUMPDEST PUSH2 0x160 DUP1 MLOAD ADD MSTORE PUSH1 0x40 MLOAD PUSH2 0x3A0 MLOAD PUSH2 0x1C0 MLOAD DUP3 CALLDATACOPY PUSH1 0x1 PUSH2 0x3A0 MLOAD DUP3 ADD MSTORE PUSH1 0x20 DUP2 PUSH2 0x3A0 MLOAD DUP2 ADD SUB ADD SWAP1 KECCAK256 PUSH2 0x160 MLOAD MLOAD DUP1 MLOAD SWAP1 PUSH1 0x1 PUSH1 0x1 PUSH1 0x40 SHL SUB DUP3 GT PUSH2 0xB0D JUMPI DUP2 SWAP1 PUSH2 0x40C DUP3 PUSH2 0x406 DUP7 SLOAD PUSH2 0x16A7 JUMP JUMPDEST DUP7 PUSH2 0x187F JUMP JUMPDEST PUSH1 0x20 SWAP1 PUSH1 0x1F DUP4 GT PUSH1 0x1 EQ PUSH2 0x10A1 JUMPI PUSH1 0x0 SWAP3 PUSH2 0x1096 JUMPI JUMPDEST POP POP DUP2 PUSH1 0x1 SHL SWAP2 PUSH1 0x0 NOT SWAP1 PUSH1 0x3 SHL SHR NOT AND OR DUP2 SSTORE JUMPDEST PUSH1 0x20 PUSH2 0x160 MLOAD ADD MLOAD DUP1 MLOAD SWAP1 PUSH1 0x1 PUSH1 0x1 PUSH1 0x40 SHL SUB DUP3 GT PUSH2 0xB0D JUMPI DUP2 SWAP1 PUSH2 0x46C DUP3 PUSH2 0x463 PUSH1 0x1 DUP8 ADD SLOAD PUSH2 0x16A7 JUMP JUMPDEST PUSH1 0x1 DUP8 ADD PUSH2 0x187F JUMP JUMPDEST PUSH1 0x20 SWAP1 PUSH1 0x1F DUP4 GT PUSH1 0x1 EQ PUSH2 0x1024 JUMPI PUSH1 0x0 SWAP3 PUSH2 0x1019 JUMPI JUMPDEST POP POP DUP2 PUSH1 0x1 SHL SWAP2 PUSH1 0x0 NOT SWAP1 PUSH1 0x3 SHL SHR NOT AND OR PUSH1 0x1 DUP3 ADD SSTORE JUMPDEST PUSH1 0x40 PUSH2 0x160 MLOAD ADD MLOAD DUP1 MLOAD SWAP1 PUSH1 0x1 PUSH1 0x1 PUSH1 0x40 SHL SUB DUP3 GT PUSH2 0xB0D JUMPI DUP2 SWAP1 PUSH2 0x4CF DUP3 PUSH2 0x4C6 PUSH1 0x2 DUP8 ADD SLOAD PUSH2 0x16A7 JUMP JUMPDEST PUSH1 0x2 DUP8 ADD PUSH2 0x187F JUMP JUMPDEST PUSH1 0x20 SWAP1 PUSH1 0x1F DUP4 GT PUSH1 0x1 EQ PUSH2 0xFA7 JUMPI PUSH1 0x0 SWAP3 PUSH2 0xF9C JUMPI JUMPDEST POP POP DUP2 PUSH1 0x1 SHL SWAP2 PUSH1 0x0 NOT SWAP1 PUSH1 0x3 SHL SHR NOT AND OR PUSH1 0x2 DUP3 ADD SSTORE JUMPDEST PUSH1 0x60 PUSH2 0x160 MLOAD ADD MLOAD DUP1 MLOAD SWAP1 PUSH1 0x1 PUSH1 0x1 PUSH1 0x40 SHL SUB DUP3 GT PUSH2 0xB0D JUMPI DUP2 SWAP1 PUSH2 0x532 DUP3 PUSH2 0x529 PUSH1 0x3 DUP8 ADD SLOAD PUSH2 0x16A7 JUMP JUMPDEST PUSH1 0x3 DUP8 ADD PUSH2 0x187F JUMP JUMPDEST PUSH1 0x20 SWAP1 PUSH1 0x1F DUP4 GT PUSH1 0x1 EQ PUSH2 0xF2A JUMPI PUSH1 0x0 SWAP3 PUSH2 0xF1F JUMPI JUMPDEST POP POP DUP2 PUSH1 0x1 SHL SWAP2 PUSH1 0x0 NOT SWAP1 PUSH1 0x3 SHL SHR NOT AND OR PUSH1 0x3 DUP3 ADD SSTORE JUMPDEST PUSH1 0x80 PUSH2 0x160 MLOAD ADD MLOAD DUP1 MLOAD SWAP1 PUSH1 0x1 PUSH1 0x1 PUSH1 0x40 SHL SUB DUP3 GT PUSH2 0xB0D JUMPI DUP2 SWAP1 PUSH2 0x595 DUP3 PUSH2 0x58C PUSH1 0x4 DUP8 ADD SLOAD PUSH2 0x16A7 JUMP JUMPDEST PUSH1 0x4 DUP8 ADD PUSH2 0x187F JUMP JUMPDEST PUSH1 0x20 SWAP1 PUSH1 0x1F DUP4 GT PUSH1 0x1 EQ PUSH2 0xEAD JUMPI PUSH1 0x0 SWAP3 PUSH2 0xEA2 JUMPI JUMPDEST POP POP DUP2 PUSH1 0x1 SHL SWAP2 PUSH1 0x0 NOT SWAP1 PUSH1 0x3 SHL SHR NOT AND OR PUSH1 0x4 DUP3 ADD SSTORE JUMPDEST PUSH1 0xA0 PUSH2 0x160 MLOAD ADD MLOAD DUP1 MLOAD SWAP1 PUSH1 0x1 PUSH1 0x1 PUSH1 0x40 SHL SUB DUP3 GT PUSH2 0xB0D JUMPI DUP2 SWAP1 PUSH2 0x5F8 DUP3 PUSH2 0x5EF PUSH1 0x5 DUP8 ADD SLOAD PUSH2 0x16A7 JUMP JUMPDEST PUSH1 0x5 DUP8 ADD PUSH2 0x187F JUMP JUMPDEST PUSH1 0x20 SWAP1 PUSH1 0x1F DUP4 GT PUSH1 0x1 EQ PUSH2 0xE30 JUMPI PUSH1 0x0 SWAP3 PUSH2 0xE25 JUMPI JUMPDEST POP POP DUP2 PUSH1 0x1 SHL SWAP2 PUSH1 0x0 NOT SWAP1 PUSH1 0x3 SHL SHR NOT AND OR PUSH1 0x5 DUP3 ADD SSTORE JUMPDEST PUSH1 0xC0 PUSH2 0x160 MLOAD ADD MLOAD DUP1 MLOAD SWAP1 PUSH1 0x1 PUSH1 0x1 PUSH1 0x40 SHL SUB DUP3 GT PUSH2 0xB0D JUMPI DUP2 SWAP1 PUSH2 0x65B DUP3 PUSH2 0x652 PUSH1 0x6 DUP8 ADD SLOAD PUSH2 0x16A7 JUMP JUMPDEST PUSH1 0x6 DUP8 ADD PUSH2 0x187F JUMP JUMPDEST PUSH1 0x20 SWAP1 PUSH1 0x1F DUP4 GT PUSH1 0x1 EQ PUSH2 0xDB3 JUMPI PUSH1 0x0 SWAP3 PUSH2 0xDA8 JUMPI JUMPDEST POP POP DUP2 PUSH1 0x1 SHL SWAP2 PUSH1 0x0 NOT SWAP1 PUSH1 0x3 SHL SHR NOT AND OR PUSH1 0x6 DUP3 ADD SSTORE JUMPDEST PUSH1 0xE0 PUSH2 0x160 MLOAD ADD MLOAD DUP1 MLOAD SWAP1 PUSH1 0x1 PUSH1 0x1 PUSH1 0x40 SHL SUB DUP3 GT PUSH2 0xB0D JUMPI DUP2 SWAP1 PUSH2 0x6BE DUP3 PUSH2 0x6B5 PUSH1 0x7 DUP8 ADD SLOAD PUSH2 0x16A7 JUMP JUMPDEST PUSH1 0x7 DUP8 ADD PUSH2 0x187F JUMP JUMPDEST PUSH1 0x20 SWAP1 PUSH1 0x1F DUP4 GT PUSH1 0x1 EQ PUSH2 0xD36 JUMPI PUSH1 0x0 SWAP3 PUSH2 0xD2B JUMPI JUMPDEST POP POP DUP2 PUSH1 0x1 SHL SWAP2 PUSH1 0x0 NOT SWAP1 PUSH1 0x3 SHL SHR NOT AND OR PUSH1 0x7 DUP3 ADD SSTORE JUMPDEST PUSH2 0x100 PUSH2 0x160 MLOAD ADD MLOAD DUP1 MLOAD SWAP1 PUSH1 0x1 PUSH1 0x1 PUSH1 0x40 SHL SUB DUP3 GT PUSH2 0xB0D JUMPI DUP2 SWAP1 PUSH2 0x722 DUP3 PUSH2 0x719 PUSH1 0x8 DUP8 ADD SLOAD PUSH2 0x16A7 JUMP JUMPDEST PUSH1 0x8 DUP8 ADD PUSH2 0x187F JUMP JUMPDEST PUSH1 0x20 SWAP1 PUSH1 0x1F DUP4 GT PUSH1 0x1 EQ PUSH2 0xCB9 JUMPI PUSH1 0x0 SWAP3 PUSH2 0xCAE JUMPI JUMPDEST POP POP DUP2 PUSH1 0x1 SHL SWAP2 PUSH1 0x0 NOT SWAP1 PUSH1 0x3 SHL SHR NOT AND OR PUSH1 0x8 DUP3 ADD SSTORE JUMPDEST PUSH2 0x120 PUSH2 0x160 MLOAD ADD MLOAD DUP1 MLOAD SWAP1 PUSH1 0x1 PUSH1 0x1 PUSH1 0x40 SHL SUB DUP3 GT PUSH2 0xB0D JUMPI DUP2 SWAP1 PUSH2 0x786 DUP3 PUSH2 0x77D PUSH1 0x9 DUP8 ADD SLOAD PUSH2 0x16A7 JUMP JUMPDEST PUSH1 0x9 DUP8 ADD PUSH2 0x187F JUMP JUMPDEST PUSH1 0x20 SWAP1 PUSH1 0x1F DUP4 GT PUSH1 0x1 EQ PUSH2 0xC3C JUMPI PUSH1 0x0 SWAP3 PUSH2 0xC31 JUMPI JUMPDEST POP POP DUP2 PUSH1 0x1 SHL SWAP2 PUSH1 0x0 NOT SWAP1 PUSH1 0x3 SHL SHR NOT AND OR PUSH1 0x9 DUP3 ADD SSTORE JUMPDEST PUSH2 0x140 PUSH2 0x160 MLOAD ADD MLOAD DUP1 MLOAD SWAP1 PUSH1 0x1 PUSH1 0x1 PUSH1 0x40 SHL SUB DUP3 GT PUSH2 0xB0D JUMPI DUP2 SWAP1 PUSH2 0x7EA DUP3 PUSH2 0x7E1 PUSH1 0xA DUP8 ADD SLOAD PUSH2 0x16A7 JUMP JUMPDEST PUSH1 0xA DUP8 ADD PUSH2 0x187F JUMP JUMPDEST PUSH1 0x20 SWAP1 PUSH1 0x1F DUP4 GT PUSH1 0x1 EQ PUSH2 0xBBF JUMPI PUSH1 0x0 SWAP3 PUSH2 0xBB4 JUMPI JUMPDEST POP POP DUP2 PUSH1 0x1 SHL SWAP2 PUSH1 0x0 NOT SWAP1 PUSH1 0x3 SHL SHR NOT AND OR PUSH1 0xA DUP3 ADD SSTORE JUMPDEST PUSH2 0x160 DUP1 MLOAD ADD MLOAD DUP1 MLOAD SWAP1 PUSH1 0x1 PUSH1 0x1 PUSH1 0x40 SHL SUB DUP3 GT PUSH2 0xB0D JUMPI PUSH2 0x84A DUP3 PUSH2 0x841 PUSH1 0xB DUP7 ADD SLOAD PUSH2 0x16A7 JUMP JUMPDEST PUSH1 0xB DUP7 ADD PUSH2 0x187F JUMP JUMPDEST PUSH1 0x20 SWAP1 PUSH1 0x1F DUP4 GT PUSH1 0x1 EQ PUSH2 0xB44 JUMPI PUSH1 0xB SWAP3 SWAP2 PUSH1 0x0 SWAP2 DUP4 PUSH2 0xB39 JUMPI JUMPDEST POP POP DUP2 PUSH1 0x1 SHL SWAP2 PUSH1 0x0 NOT SWAP1 PUSH1 0x3 SHL SHR NOT AND OR SWAP2 ADD SSTORE JUMPDEST PUSH1 0x2 SLOAD PUSH9 0x10000000000000000 DUP2 LT ISZERO PUSH2 0xB0D JUMPI DUP1 PUSH1 0x1 PUSH2 0x89F SWAP3 ADD PUSH1 0x2 SSTORE PUSH2 0x165A JUMP JUMPDEST PUSH2 0xB23 JUMPI PUSH2 0x3A0 MLOAD PUSH1 0x1 PUSH1 0x1 PUSH1 0x40 SHL SUB DUP2 GT PUSH2 0xB0D JUMPI PUSH2 0x8C9 SWAP1 PUSH2 0x8C3 DUP4 SLOAD PUSH2 0x16A7 JUMP JUMPDEST DUP4 PUSH2 0x187F JUMP JUMPDEST PUSH1 0x0 SWAP1 PUSH2 0x3A0 MLOAD PUSH1 0x1F DUP2 GT PUSH1 0x1 EQ PUSH2 0xAA0 JUMPI POP SWAP1 PUSH1 0x0 PUSH2 0x3A0 MLOAD SWAP2 DUP3 PUSH2 0xA92 JUMPI JUMPDEST POP DUP2 PUSH1 0x1 SHL SWAP2 PUSH1 0x0 NOT SWAP1 PUSH1 0x3 SHL SHR NOT AND OR SWAP1 SSTORE JUMPDEST PUSH2 0x1A0 PUSH1 0x40 MLOAD DUP1 PUSH1 0xA0 MSTORE MSTORE PUSH32 0x9BA5E4B5D85D5A29BD89F03C9DF6BA39113EF40C7DE03DE0DBA7DF056B0C95E3 PUSH2 0xA6B PUSH2 0xA52 PUSH2 0xA39 PUSH2 0xA21 PUSH2 0xA08 PUSH2 0x9F0 PUSH2 0x9D8 PUSH2 0x9C0 PUSH2 0x9A9 PUSH2 0x991 PUSH2 0x979 PUSH2 0x962 PUSH2 0x1A0 PUSH1 0xA0 MLOAD ADD PUSH2 0x3A0 MLOAD PUSH2 0x1C0 MLOAD PUSH2 0x18D3 JUMP JUMPDEST PUSH1 0xA0 MLOAD PUSH1 0x20 DUP2 DUP4 SUB SWAP2 ADD MSTORE PUSH1 0xE0 MLOAD PUSH2 0x320 MLOAD PUSH2 0x18D3 JUMP JUMPDEST PUSH1 0xA0 MLOAD PUSH1 0x40 DUP2 DUP4 SUB SWAP2 ADD MSTORE PUSH2 0x2C0 MLOAD PUSH2 0x380 MLOAD PUSH2 0x18D3 JUMP JUMPDEST PUSH1 0xA0 MLOAD PUSH1 0x60 DUP2 DUP4 SUB SWAP2 ADD MSTORE PUSH2 0x3C0 MLOAD PUSH2 0x100 MLOAD PUSH2 0x18D3 JUMP JUMPDEST PUSH1 0xA0 MLOAD PUSH1 0x80 DUP2 DUP4 SUB SWAP2 ADD MSTORE PUSH1 0xC0 MLOAD PUSH2 0x2E0 MLOAD PUSH2 0x18D3 JUMP JUMPDEST PUSH1 0xA0 MLOAD PUSH1 0xA0 DUP2 DUP4 SUB SWAP2 ADD MSTORE PUSH2 0x180 MLOAD PUSH2 0x260 MLOAD PUSH2 0x18D3 JUMP JUMPDEST PUSH1 0xA0 MLOAD PUSH1 0xC0 DUP2 DUP4 SUB SWAP2 ADD MSTORE PUSH2 0x340 MLOAD PUSH2 0x360 MLOAD PUSH2 0x18D3 JUMP JUMPDEST PUSH1 0xA0 MLOAD PUSH1 0xE0 DUP2 DUP4 SUB SWAP2 ADD MSTORE PUSH2 0x140 MLOAD PUSH2 0x220 MLOAD PUSH2 0x18D3 JUMP JUMPDEST PUSH1 0xA0 MLOAD PUSH2 0x100 DUP2 DUP4 SUB SWAP2 ADD MSTORE PUSH2 0x240 MLOAD PUSH2 0x3E0 MLOAD PUSH2 0x18D3 JUMP JUMPDEST PUSH1 0xA0 MLOAD PUSH2 0x120 DUP2 DUP4 SUB SWAP2 ADD MSTORE PUSH1 0x80 MLOAD PUSH2 0x1A0 MLOAD PUSH2 0x18D3 JUMP JUMPDEST PUSH1 0xA0 MLOAD PUSH2 0x140 DUP2 DUP4 SUB SWAP2 ADD MSTORE PUSH2 0x300 MLOAD PUSH2 0x120 MLOAD PUSH2 0x18D3 JUMP JUMPDEST PUSH1 0xA0 MLOAD PUSH2 0x160 DUP2 DUP4 SUB SWAP2 ADD MSTORE PUSH2 0x2A0 MLOAD PUSH2 0x280 MLOAD PUSH2 0x18D3 JUMP JUMPDEST PUSH1 0xA0 MLOAD PUSH2 0x180 DUP2 DUP4 SUB SWAP2 ADD MSTORE PUSH2 0xA8B PUSH1 0xA0 MLOAD SWAP2 PUSH2 0x200 MLOAD PUSH2 0x1E0 MLOAD PUSH2 0x18D3 JUMP JUMPDEST SUB PUSH1 0xA0 MLOAD LOG1 STOP JUMPDEST SWAP1 POP PUSH2 0x1C0 MLOAD ADD CALLDATALOAD CODESIZE PUSH2 0x8EA JUMP JUMPDEST DUP2 PUSH1 0x0 MSTORE PUSH1 0x20 PUSH1 0x0 KECCAK256 PUSH1 0x0 SWAP4 PUSH2 0x1C0 MLOAD SWAP1 JUMPDEST PUSH1 0x1F NOT DUP5 AND DUP7 LT PUSH2 0xAF5 JUMPI PUSH1 0x1 SWAP5 SWAP6 POP DUP4 PUSH1 0x1F NOT DUP2 AND LT PUSH2 0xADB JUMPI JUMPDEST POP POP POP DUP2 SHL ADD SWAP1 SSTORE PUSH2 0x8FE JUMP JUMPDEST ADD CALLDATALOAD PUSH1 0x0 NOT PUSH1 0x3 DUP5 SWAP1 SHL PUSH1 0xF8 AND SHR NOT AND SWAP1 SSTORE CODESIZE DUP1 DUP1 PUSH2 0xACE JUMP JUMPDEST SWAP2 PUSH1 0x20 PUSH1 0x1 DUP2 SWAP3 DUP6 DUP6 ADD CALLDATALOAD DUP2 SSTORE ADD SWAP4 ADD SWAP6 ADD SWAP5 PUSH2 0xAB2 JUMP JUMPDEST PUSH4 0x4E487B71 PUSH1 0xE0 SHL PUSH1 0x0 MSTORE PUSH1 0x41 PUSH1 0x4 MSTORE PUSH1 0x24 PUSH1 0x0 REVERT JUMPDEST PUSH4 0x4E487B71 PUSH1 0xE0 SHL PUSH1 0x0 MSTORE PUSH1 0x0 PUSH1 0x4 MSTORE PUSH1 0x24 PUSH1 0x0 REVERT JUMPDEST ADD MLOAD SWAP1 POP CODESIZE DUP1 PUSH2 0x865 JUMP JUMPDEST SWAP1 PUSH1 0xB DUP5 ADD PUSH1 0x0 MSTORE PUSH1 0x20 PUSH1 0x0 KECCAK256 SWAP2 PUSH1 0x0 JUMPDEST PUSH1 0x1F NOT DUP6 AND DUP2 LT PUSH2 0xB9C JUMPI POP SWAP2 DUP4 SWAP2 PUSH1 0x1 SWAP4 PUSH1 0xB SWAP6 PUSH1 0x1F NOT DUP2 AND LT PUSH2 0xB83 JUMPI JUMPDEST POP POP POP DUP2 SHL ADD SWAP2 ADD SSTORE PUSH2 0x87B JUMP JUMPDEST ADD MLOAD PUSH1 0x0 NOT PUSH1 0xF8 DUP5 PUSH1 0x3 SHL AND SHR NOT AND SWAP1 SSTORE CODESIZE DUP1 DUP1 PUSH2 0xB75 JUMP JUMPDEST SWAP2 SWAP3 PUSH1 0x20 PUSH1 0x1 DUP2 SWAP3 DUP7 DUP6 ADD MLOAD DUP2 SSTORE ADD SWAP5 ADD SWAP3 ADD PUSH2 0xB55 JUMP JUMPDEST ADD MLOAD SWAP1 POP CODESIZE DUP1 PUSH2 0x800 JUMP JUMPDEST SWAP3 POP PUSH1 0xA DUP5 ADD PUSH1 0x0 MSTORE PUSH1 0x20 PUSH1 0x0 KECCAK256 SWAP1 PUSH1 0x0 SWAP4 JUMPDEST PUSH1 0x1F NOT DUP5 AND DUP6 LT PUSH2 0xC16 JUMPI PUSH1 0x1 SWAP5 POP DUP4 PUSH1 0x1F NOT DUP2 AND LT PUSH2 0xBFD JUMPI JUMPDEST POP POP POP DUP2 SHL ADD PUSH1 0xA DUP3 ADD SSTORE PUSH2 0x818 JUMP JUMPDEST ADD MLOAD PUSH1 0x0 NOT PUSH1 0xF8 DUP5 PUSH1 0x3 SHL AND SHR NOT AND SWAP1 SSTORE CODESIZE DUP1 DUP1 PUSH2 0xBED JUMP JUMPDEST DUP2 DUP2 ADD MLOAD DUP4 SSTORE PUSH1 0x20 SWAP5 DUP6 ADD SWAP5 PUSH1 0x1 SWAP1 SWAP4 ADD SWAP3 SWAP1 SWAP2 ADD SWAP1 PUSH2 0xBD2 JUMP JUMPDEST ADD MLOAD SWAP1 POP CODESIZE DUP1 PUSH2 0x79C JUMP JUMPDEST SWAP3 POP PUSH1 0x9 DUP5 ADD PUSH1 0x0 MSTORE PUSH1 0x20 PUSH1 0x0 KECCAK256 SWAP1 PUSH1 0x0 SWAP4 JUMPDEST PUSH1 0x1F NOT DUP5 AND DUP6 LT PUSH2 0xC93 JUMPI PUSH1 0x1 SWAP5 POP DUP4 PUSH1 0x1F NOT DUP2 AND LT PUSH2 0xC7A JUMPI JUMPDEST POP POP POP DUP2 SHL ADD PUSH1 0x9 DUP3 ADD SSTORE PUSH2 0x7B4 JUMP JUMPDEST ADD MLOAD PUSH1 0x0 NOT PUSH1 0xF8 DUP5 PUSH1 0x3 SHL AND SHR NOT AND SWAP1 SSTORE CODESIZE DUP1 DUP1 PUSH2 0xC6A JUMP JUMPDEST DUP2 DUP2 ADD MLOAD DUP4 SSTORE PUSH1 0x20 SWAP5 DUP6 ADD SWAP5 PUSH1 0x1 SWAP1 SWAP4 ADD SWAP3 SWAP1 SWAP2 ADD SWAP1 PUSH2 0xC4F JUMP JUMPDEST ADD MLOAD SWAP1 POP CODESIZE DUP1 PUSH2 0x738 JUMP JUMPDEST SWAP3 POP PUSH1 0x8 DUP5 ADD PUSH1 0x0 MSTORE PUSH1 0x20 PUSH1 0x0 KECCAK256 SWAP1 PUSH1 0x0 SWAP4 JUMPDEST PUSH1 0x1F NOT DUP5 AND DUP6 LT PUSH2 0xD10 JUMPI PUSH1 0x1 SWAP5 POP DUP4 PUSH1 0x1F NOT DUP2 AND LT PUSH2 0xCF7 JUMPI JUMPDEST POP POP POP DUP2 SHL ADD PUSH1 0x8 DUP3 ADD SSTORE PUSH2 0x750 JUMP JUMPDEST ADD MLOAD PUSH1 0x0 NOT PUSH1 0xF8 DUP5 PUSH1 0x3 SHL AND SHR NOT AND SWAP1 SSTORE CODESIZE DUP1 DUP1 PUSH2 0xCE7 JUMP JUMPDEST DUP2 DUP2 ADD MLOAD DUP4 SSTORE PUSH1 0x20 SWAP5 DUP6 ADD SWAP5 PUSH1 0x1 SWAP1 SWAP4 ADD SWAP3 SWAP1 SWAP2 ADD SWAP1 PUSH2 0xCCC JUMP JUMPDEST ADD MLOAD SWAP1 POP CODESIZE DUP1 PUSH2 0x6D4 JUMP JUMPDEST SWAP3 POP PUSH1 0x7 DUP5 ADD PUSH1 0x0 MSTORE PUSH1 0x20 PUSH1 0x0 KECCAK256 SWAP1 PUSH1 0x0 SWAP4 JUMPDEST PUSH1 0x1F NOT DUP5 AND DUP6 LT PUSH2 0xD8D JUMPI PUSH1 0x1 SWAP5 POP DUP4 PUSH1 0x1F NOT DUP2 AND LT PUSH2 0xD74 JUMPI JUMPDEST POP POP POP DUP2 SHL ADD PUSH1 0x7 DUP3 ADD SSTORE PUSH2 0x6EC JUMP JUMPDEST ADD MLOAD PUSH1 0x0 NOT PUSH1 0xF8 DUP5 PUSH1 0x3 SHL AND SHR NOT AND SWAP1 SSTORE CODESIZE DUP1 DUP1 PUSH2 0xD64 JUMP JUMPDEST DUP2 DUP2 ADD MLOAD DUP4 SSTORE PUSH1 0x20 SWAP5 DUP6 ADD SWAP5 PUSH1 0x1 SWAP1 SWAP4 ADD SWAP3 SWAP1 SWAP2 ADD SWAP1 PUSH2 0xD49 JUMP JUMPDEST ADD MLOAD SWAP1 POP CODESIZE DUP1 PUSH2 0x671 JUMP JUMPDEST SWAP3 POP PUSH1 0x6 DUP5 ADD PUSH1 0x0 MSTORE PUSH1 0x20 PUSH1 0x0 KECCAK256 SWAP1 PUSH1 0x0 SWAP4 JUMPDEST PUSH1 0x1F NOT DUP5 AND DUP6 LT PUSH2 0xE0A JUMPI PUSH1 0x1 SWAP5 POP DUP4 PUSH1 0x1F NOT DUP2 AND LT PUSH2 0xDF1 JUMPI JUMPDEST POP POP POP DUP2 SHL ADD PUSH1 0x6 DUP3 ADD SSTORE PUSH2 0x689 JUMP JUMPDEST ADD MLOAD PUSH1 0x0 NOT PUSH1 0xF8 DUP5 PUSH1 0x3 SHL AND SHR NOT AND SWAP1 SSTORE CODESIZE DUP1 DUP1 PUSH2 0xDE1 JUMP JUMPDEST DUP2 DUP2 ADD MLOAD DUP4 SSTORE PUSH1 0x20 SWAP5 DUP6 ADD SWAP5 PUSH1 0x1 SWAP1 SWAP4 ADD SWAP3 SWAP1 SWAP2 ADD SWAP1 PUSH2 0xDC6 JUMP JUMPDEST ADD MLOAD SWAP1 POP CODESIZE DUP1 PUSH2 0x60E JUMP JUMPDEST SWAP3 POP PUSH1 0x5 DUP5 ADD PUSH1 0x0 MSTORE PUSH1 0x20 PUSH1 0x0 KECCAK256 SWAP1 PUSH1 0x0 SWAP4 JUMPDEST PUSH1 0x1F NOT DUP5 AND DUP6 LT PUSH2 0xE87 JUMPI PUSH1 0x1 SWAP5 POP DUP4 PUSH1 0x1F NOT DUP2 AND LT PUSH2 0xE6E JUMPI JUMPDEST POP POP POP DUP2 SHL ADD PUSH1 0x5 DUP3 ADD SSTORE PUSH2 0x626 JUMP JUMPDEST ADD MLOAD PUSH1 0x0 NOT PUSH1 0xF8 DUP5 PUSH1 0x3 SHL AND SHR NOT AND SWAP1 SSTORE CODESIZE DUP1 DUP1 PUSH2 0xE5E JUMP JUMPDEST DUP2 DUP2 ADD MLOAD DUP4 SSTORE PUSH1 0x20 SWAP5 DUP6 ADD SWAP5 PUSH1 0x1 SWAP1 SWAP4 ADD SWAP3 SWAP1 SWAP2 ADD SWAP1 PUSH2 0xE43 JUMP JUMPDEST ADD MLOAD SWAP1 POP CODESIZE DUP1 PUSH2 0x5AB JUMP JUMPDEST SWAP3 POP PUSH1 0x4 DUP5 ADD PUSH1 0x0 MSTORE PUSH1 0x20 PUSH1 0x0 KECCAK256 SWAP1 PUSH1 0x0 SWAP4 JUMPDEST PUSH1 0x1F NOT DUP5 AND DUP6 LT PUSH2 0xF04 JUMPI PUSH1 0x1 SWAP5 POP DUP4 PUSH1 0x1F NOT DUP2 AND LT PUSH2 0xEEB JUMPI JUMPDEST POP POP POP DUP2 SHL ADD PUSH1 0x4 DUP3 ADD SSTORE PUSH2 0x5C3 JUMP JUMPDEST ADD MLOAD PUSH1 0x0 NOT PUSH1 0xF8 DUP5 PUSH1 0x3 SHL AND SHR NOT AND SWAP1 SSTORE CODESIZE DUP1 DUP1 PUSH2 0xEDB JUMP JUMPDEST DUP2 DUP2 ADD MLOAD DUP4 SSTORE PUSH1 0x20 SWAP5 DUP6 ADD SWAP5 PUSH1 0x1 SWAP1 SWAP4 ADD SWAP3 SWAP1 SWAP2 ADD SWAP1 PUSH2 0xEC0 JUMP JUMPDEST ADD MLOAD SWAP1 POP CODESIZE DUP1 PUSH2 0x548 JUMP JUMPDEST SWAP3 POP PUSH1 0x3 DUP5 ADD PUSH1 0x0 MSTORE PUSH1 0x20 PUSH1 0x0 KECCAK256 SWAP1 PUSH1 0x0 SWAP4 JUMPDEST PUSH1 0x1F NOT DUP5 AND DUP6 LT PUSH2 0xF81 JUMPI PUSH1 0x1 SWAP5 POP DUP4 PUSH1 0x1F NOT DUP2 AND LT PUSH2 0xF68 JUMPI JUMPDEST POP POP POP DUP2 SHL ADD PUSH1 0x3 DUP3 ADD SSTORE PUSH2 0x560 JUMP JUMPDEST ADD MLOAD PUSH1 0x0 NOT PUSH1 0xF8 DUP5 PUSH1 0x3 SHL AND SHR NOT AND SWAP1 SSTORE CODESIZE DUP1 DUP1 PUSH2 0xF58 JUMP JUMPDEST DUP2 DUP2 ADD MLOAD DUP4 SSTORE PUSH1 0x20 SWAP5 DUP6 ADD SWAP5 PUSH1 0x1 SWAP1 SWAP4 ADD SWAP3 SWAP1 SWAP2 ADD SWAP1 PUSH2 0xF3D JUMP JUMPDEST ADD MLOAD SWAP1 POP CODESIZE DUP1 PUSH2 0x4E5 JUMP JUMPDEST SWAP3 POP PUSH1 0x2 DUP5 ADD PUSH1 0x0 MSTORE PUSH1 0x20 PUSH1 0x0 KECCAK256 SWAP1 PUSH1 0x0 SWAP4 JUMPDEST PUSH1 0x1F NOT DUP5 AND DUP6 LT PUSH2 0xFFE JUMPI PUSH1 0x1 SWAP5 POP DUP4 PUSH1 0x1F NOT DUP2 AND LT PUSH2 0xFE5 JUMPI JUMPDEST POP POP POP DUP2 SHL ADD PUSH1 0x2 DUP3 ADD SSTORE PUSH2 0x4FD JUMP JUMPDEST ADD MLOAD PUSH1 0x0 NOT PUSH1 0xF8 DUP5 PUSH1 0x3 SHL AND SHR NOT AND SWAP1 SSTORE CODESIZE DUP1 DUP1 PUSH2 0xFD5 JUMP JUMPDEST DUP2 DUP2 ADD MLOAD DUP4 SSTORE PUSH1 0x20 SWAP5 DUP6 ADD SWAP5 PUSH1 0x1 SWAP1 SWAP4 ADD SWAP3 SWAP1 SWAP2 ADD SWAP1 PUSH2 0xFBA JUMP JUMPDEST ADD MLOAD SWAP1 POP CODESIZE DUP1 PUSH2 0x482 JUMP JUMPDEST SWAP3 POP PUSH1 0x1 DUP5 ADD PUSH1 0x0 MSTORE PUSH1 0x20 PUSH1 0x0 KECCAK256 SWAP1 PUSH1 0x0 SWAP4 JUMPDEST PUSH1 0x1F NOT DUP5 AND DUP6 LT PUSH2 0x107B JUMPI PUSH1 0x1 SWAP5 POP DUP4 PUSH1 0x1F NOT DUP2 AND LT PUSH2 0x1062 JUMPI JUMPDEST POP POP POP DUP2 SHL ADD PUSH1 0x1 DUP3 ADD SSTORE PUSH2 0x49A JUMP JUMPDEST ADD MLOAD PUSH1 0x0 NOT PUSH1 0xF8 DUP5 PUSH1 0x3 SHL AND SHR NOT AND SWAP1 SSTORE CODESIZE DUP1 DUP1 PUSH2 0x1052 JUMP JUMPDEST DUP2 DUP2 ADD MLOAD DUP4 SSTORE PUSH1 0x20 SWAP5 DUP6 ADD SWAP5 PUSH1 0x1 SWAP1 SWAP4 ADD SWAP3 SWAP1 SWAP2 ADD SWAP1 PUSH2 0x1037 JUMP JUMPDEST ADD MLOAD SWAP1 POP CODESIZE DUP1 PUSH2 0x422 JUMP JUMPDEST SWAP3 POP DUP4 PUSH1 0x0 MSTORE PUSH1 0x20 PUSH1 0x0 KECCAK256 SWAP1 PUSH1 0x0 SWAP4 JUMPDEST PUSH1 0x1F NOT DUP5 AND DUP6 LT PUSH2 0x10F2 JUMPI PUSH1 0x1 SWAP5 POP DUP4 PUSH1 0x1F NOT DUP2 AND LT PUSH2 0x10D9 JUMPI JUMPDEST POP POP POP DUP2 SHL ADD DUP2 SSTORE PUSH2 0x437 JUMP JUMPDEST ADD MLOAD PUSH1 0x0 NOT PUSH1 0xF8 DUP5 PUSH1 0x3 SHL AND SHR NOT AND SWAP1 SSTORE CODESIZE DUP1 DUP1 PUSH2 0x10CC JUMP JUMPDEST DUP2 DUP2 ADD MLOAD DUP4 SSTORE PUSH1 0x20 SWAP5 DUP6 ADD SWAP5 PUSH1 0x1 SWAP1 SWAP4 ADD SWAP3 SWAP1 SWAP2 ADD SWAP1 PUSH2 0x10B1 JUMP JUMPDEST PUSH1 0x40 MLOAD PUSH3 0x461BCD PUSH1 0xE5 SHL DUP2 MSTORE PUSH1 0x20 PUSH1 0x4 DUP3 ADD MSTORE PUSH1 0xB PUSH1 0x24 DUP3 ADD MSTORE PUSH11 0x139BDD081CDD195DD85C99 PUSH1 0xAA SHL PUSH1 0x44 DUP3 ADD MSTORE PUSH1 0x64 SWAP1 REVERT JUMPDEST PUSH1 0x0 DUP1 REVERT JUMPDEST CALLVALUE PUSH2 0x1140 JUMPI PUSH1 0x20 CALLDATASIZE PUSH1 0x3 NOT ADD SLT PUSH2 0x1140 JUMPI PUSH1 0x4 CALLDATALOAD PUSH1 0x1 PUSH1 0x1 PUSH1 0x40 SHL SUB DUP2 GT PUSH2 0x1140 JUMPI CALLDATASIZE PUSH1 0x23 DUP3 ADD SLT ISZERO PUSH2 0x1140 JUMPI CALLDATASIZE DUP2 PUSH1 0x4 ADD CALLDATALOAD SWAP2 PUSH1 0x24 ADD SWAP2 PUSH2 0x1186 SWAP3 PUSH2 0x1839 JUMP JUMPDEST PUSH1 0x40 MLOAD DUP2 DUP2 DUP1 SWAP4 MLOAD PUSH1 0x20 DUP2 SWAP4 ADD SWAP2 PUSH2 0x119D SWAP3 PUSH2 0x17C4 JUMP JUMPDEST DUP2 ADD PUSH1 0x1 DUP2 MSTORE SUB PUSH1 0x20 ADD SWAP1 KECCAK256 PUSH2 0x11B2 DUP2 PUSH2 0x171E JUMP JUMPDEST PUSH2 0x11BE PUSH1 0x1 DUP4 ADD PUSH2 0x171E JUMP JUMPDEST SWAP2 PUSH2 0x11CB PUSH1 0x2 DUP3 ADD PUSH2 0x171E JUMP JUMPDEST SWAP1 PUSH2 0x11D8 PUSH1 0x3 DUP3 ADD PUSH2 0x171E JUMP JUMPDEST PUSH2 0x11E4 PUSH1 0x4 DUP4 ADD PUSH2 0x171E JUMP JUMPDEST PUSH2 0x11F0 PUSH1 0x5 DUP5 ADD PUSH2 0x171E JUMP JUMPDEST PUSH2 0x11FC PUSH1 0x6 DUP6 ADD PUSH2 0x171E JUMP JUMPDEST PUSH2 0x1208 PUSH1 0x7 DUP7 ADD PUSH2 0x171E JUMP JUMPDEST SWAP2 PUSH2 0x1215 PUSH1 0x8 DUP8 ADD PUSH2 0x171E JUMP JUMPDEST SWAP4 PUSH2 0x1222 PUSH1 0x9 DUP9 ADD PUSH2 0x171E JUMP JUMPDEST SWAP6 PUSH2 0x122F PUSH1 0xA DUP10 ADD PUSH2 0x171E JUMP JUMPDEST SWAP8 PUSH1 0xB ADD PUSH2 0x123C SWAP1 PUSH2 0x171E JUMP JUMPDEST SWAP9 PUSH1 0x40 MLOAD SWAP12 DUP13 SWAP12 DUP13 PUSH2 0x180 DUP1 SWAP2 MSTORE DUP14 ADD PUSH2 0x1255 SWAP2 PUSH2 0x17E7 JUMP JUMPDEST DUP13 DUP2 SUB PUSH1 0x20 DUP15 ADD MSTORE PUSH2 0x1266 SWAP2 PUSH2 0x17E7 JUMP JUMPDEST DUP12 DUP2 SUB PUSH1 0x40 DUP14 ADD MSTORE PUSH2 0x1277 SWAP2 PUSH2 0x17E7 JUMP JUMPDEST DUP11 DUP2 SUB PUSH1 0x60 DUP13 ADD MSTORE PUSH2 0x1288 SWAP2 PUSH2 0x17E7 JUMP JUMPDEST DUP10 DUP2 SUB PUSH1 0x80 DUP12 ADD MSTORE PUSH2 0x1299 SWAP2 PUSH2 0x17E7 JUMP JUMPDEST DUP9 DUP2 SUB PUSH1 0xA0 DUP11 ADD MSTORE PUSH2 0x12AA SWAP2 PUSH2 0x17E7 JUMP JUMPDEST DUP8 DUP2 SUB PUSH1 0xC0 DUP10 ADD MSTORE PUSH2 0x12BB SWAP2 PUSH2 0x17E7 JUMP JUMPDEST DUP7 DUP2 SUB PUSH1 0xE0 DUP9 ADD MSTORE PUSH2 0x12CC SWAP2 PUSH2 0x17E7 JUMP JUMPDEST DUP6 DUP2 SUB PUSH2 0x100 DUP8 ADD MSTORE PUSH2 0x12DE SWAP2 PUSH2 0x17E7 JUMP JUMPDEST DUP5 DUP2 SUB PUSH2 0x120 DUP7 ADD MSTORE PUSH2 0x12F0 SWAP2 PUSH2 0x17E7 JUMP JUMPDEST DUP4 DUP2 SUB PUSH2 0x140 DUP6 ADD MSTORE PUSH2 0x1302 SWAP2 PUSH2 0x17E7 JUMP JUMPDEST DUP3 DUP2 SUB PUSH2 0x160 DUP5 ADD MSTORE PUSH2 0x1314 SWAP2 PUSH2 0x17E7 JUMP JUMPDEST SUB SWAP1 RETURN JUMPDEST CALLVALUE PUSH2 0x1140 JUMPI PUSH1 0x0 CALLDATASIZE PUSH1 0x3 NOT ADD SLT PUSH2 0x1140 JUMPI PUSH1 0x20 PUSH1 0x2 SLOAD PUSH1 0x40 MLOAD SWAP1 DUP2 MSTORE RETURN JUMPDEST CALLVALUE PUSH2 0x1140 JUMPI PUSH1 0x20 CALLDATASIZE PUSH1 0x3 NOT ADD SLT PUSH2 0x1140 JUMPI PUSH1 0x4 CALLDATALOAD PUSH1 0x1 PUSH1 0x1 PUSH1 0x40 SHL SUB DUP2 GT PUSH2 0x1140 JUMPI PUSH1 0x20 PUSH2 0x136B PUSH2 0x1504 SWAP3 CALLDATASIZE SWAP1 PUSH1 0x4 ADD PUSH2 0x180C JUMP JUMPDEST SWAP2 SWAP1 PUSH1 0x60 PUSH2 0x160 PUSH1 0x40 MLOAD PUSH2 0x137E DUP2 PUSH2 0x16E1 JUMP JUMPDEST DUP3 DUP2 MSTORE DUP3 DUP6 DUP3 ADD MSTORE DUP3 PUSH1 0x40 DUP3 ADD MSTORE DUP3 DUP1 DUP3 ADD MSTORE DUP3 PUSH1 0x80 DUP3 ADD MSTORE DUP3 PUSH1 0xA0 DUP3 ADD MSTORE DUP3 PUSH1 0xC0 DUP3 ADD MSTORE DUP3 PUSH1 0xE0 DUP3 ADD MSTORE DUP3 PUSH2 0x100 DUP3 ADD MSTORE DUP3 PUSH2 0x120 DUP3 ADD MSTORE DUP3 PUSH2 0x140 DUP3 ADD MSTORE ADD MSTORE DUP3 PUSH1 0x40 MLOAD SWAP4 DUP5 SWAP3 DUP4 CALLDATACOPY DUP2 ADD PUSH1 0x1 DUP2 MSTORE SUB ADD SWAP1 KECCAK256 PUSH2 0x14A3 PUSH1 0xB PUSH1 0x40 MLOAD SWAP3 PUSH2 0x13E5 DUP5 PUSH2 0x16E1 JUMP JUMPDEST PUSH2 0x13EE DUP2 PUSH2 0x171E JUMP JUMPDEST DUP5 MSTORE PUSH2 0x13FC PUSH1 0x1 DUP3 ADD PUSH2 0x171E JUMP JUMPDEST PUSH1 0x20 DUP6 ADD MSTORE PUSH2 0x140D PUSH1 0x2 DUP3 ADD PUSH2 0x171E JUMP JUMPDEST PUSH1 0x40 DUP6 ADD MSTORE PUSH2 0x141E PUSH1 0x3 DUP3 ADD PUSH2 0x171E JUMP JUMPDEST PUSH1 0x60 DUP6 ADD MSTORE PUSH2 0x142F PUSH1 0x4 DUP3 ADD PUSH2 0x171E JUMP JUMPDEST PUSH1 0x80 DUP6 ADD MSTORE PUSH2 0x1440 PUSH1 0x5 DUP3 ADD PUSH2 0x171E JUMP JUMPDEST PUSH1 0xA0 DUP6 ADD MSTORE PUSH2 0x1451 PUSH1 0x6 DUP3 ADD PUSH2 0x171E JUMP JUMPDEST PUSH1 0xC0 DUP6 ADD MSTORE PUSH2 0x1462 PUSH1 0x7 DUP3 ADD PUSH2 0x171E JUMP JUMPDEST PUSH1 0xE0 DUP6 ADD MSTORE PUSH2 0x1473 PUSH1 0x8 DUP3 ADD PUSH2 0x171E JUMP JUMPDEST PUSH2 0x100 DUP6 ADD MSTORE PUSH2 0x1485 PUSH1 0x9 DUP3 ADD PUSH2 0x171E JUMP JUMPDEST PUSH2 0x120 DUP6 ADD MSTORE PUSH2 0x1497 PUSH1 0xA DUP3 ADD PUSH2 0x171E JUMP JUMPDEST PUSH2 0x140 DUP6 ADD MSTORE ADD PUSH2 0x171E JUMP JUMPDEST PUSH2 0x160 DUP3 ADD MSTORE PUSH2 0x1314 DUP2 PUSH2 0x160 PUSH2 0x15D1 PUSH2 0x15BB PUSH2 0x15A3 PUSH2 0x158B PUSH2 0x1574 PUSH2 0x155E PUSH2 0x1548 PUSH2 0x1532 PUSH2 0x151C PUSH1 0x40 MLOAD SWAP14 DUP15 SWAP14 DUP15 PUSH1 0x20 DUP2 MSTORE PUSH1 0x20 PUSH2 0x14EF DUP4 MLOAD PUSH2 0x180 DUP4 DUP6 ADD MSTORE PUSH2 0x1A0 DUP5 ADD SWAP1 PUSH2 0x17E7 JUMP JUMPDEST SWAP3 ADD MLOAD SWAP1 PUSH1 0x40 PUSH1 0x1F NOT DUP3 DUP6 SUB ADD SWAP2 ADD MSTORE PUSH2 0x17E7 JUMP JUMPDEST DUP14 PUSH1 0x40 DUP14 ADD MLOAD SWAP1 PUSH1 0x60 PUSH1 0x1F NOT DUP3 DUP6 SUB ADD SWAP2 ADD MSTORE PUSH2 0x17E7 JUMP JUMPDEST PUSH1 0x60 DUP12 ADD MLOAD DUP14 DUP3 SUB PUSH1 0x1F NOT ADD PUSH1 0x80 DUP16 ADD MSTORE PUSH2 0x17E7 JUMP JUMPDEST PUSH1 0x80 DUP11 ADD MLOAD DUP13 DUP3 SUB PUSH1 0x1F NOT ADD PUSH1 0xA0 DUP15 ADD MSTORE PUSH2 0x17E7 JUMP JUMPDEST PUSH1 0xA0 DUP10 ADD MLOAD DUP12 DUP3 SUB PUSH1 0x1F NOT ADD PUSH1 0xC0 DUP14 ADD MSTORE PUSH2 0x17E7 JUMP JUMPDEST PUSH1 0xC0 DUP9 ADD MLOAD DUP11 DUP3 SUB PUSH1 0x1F NOT ADD PUSH1 0xE0 DUP13 ADD MSTORE PUSH2 0x17E7 JUMP JUMPDEST PUSH1 0xE0 DUP8 ADD MLOAD DUP10 DUP3 SUB PUSH1 0x1F NOT ADD PUSH2 0x100 DUP12 ADD MSTORE PUSH2 0x17E7 JUMP JUMPDEST PUSH2 0x100 DUP7 ADD MLOAD DUP9 DUP3 SUB PUSH1 0x1F NOT ADD PUSH2 0x120 DUP11 ADD MSTORE PUSH2 0x17E7 JUMP JUMPDEST PUSH2 0x120 DUP6 ADD MLOAD DUP8 DUP3 SUB PUSH1 0x1F NOT ADD PUSH2 0x140 DUP10 ADD MSTORE PUSH2 0x17E7 JUMP JUMPDEST PUSH2 0x140 DUP5 ADD MLOAD DUP7 DUP3 SUB PUSH1 0x1F NOT ADD DUP5 DUP9 ADD MSTORE PUSH2 0x17E7 JUMP JUMPDEST SWAP2 ADD MLOAD DUP4 DUP3 SUB PUSH1 0x1F NOT ADD PUSH2 0x180 DUP6 ADD MSTORE PUSH2 0x17E7 JUMP JUMPDEST CALLVALUE PUSH2 0x1140 JUMPI PUSH1 0x0 CALLDATASIZE PUSH1 0x3 NOT ADD SLT PUSH2 0x1140 JUMPI PUSH1 0x0 SLOAD PUSH1 0x40 MLOAD PUSH1 0x1 PUSH1 0x1 PUSH1 0xA0 SHL SUB SWAP1 SWAP2 AND DUP2 MSTORE PUSH1 0x20 SWAP1 RETURN JUMPDEST CALLVALUE PUSH2 0x1140 JUMPI PUSH1 0x20 CALLDATASIZE PUSH1 0x3 NOT ADD SLT PUSH2 0x1140 JUMPI PUSH1 0x4 CALLDATALOAD PUSH1 0x2 SLOAD DUP2 LT ISZERO PUSH2 0x1140 JUMPI PUSH2 0x1636 SWAP1 PUSH2 0x165A JUMP JUMPDEST PUSH2 0xB23 JUMPI PUSH2 0x1646 PUSH2 0x1314 SWAP2 PUSH2 0x171E JUMP JUMPDEST PUSH1 0x40 MLOAD SWAP2 DUP3 SWAP2 PUSH1 0x20 DUP4 MSTORE PUSH1 0x20 DUP4 ADD SWAP1 PUSH2 0x17E7 JUMP JUMPDEST PUSH1 0x2 SLOAD DUP2 LT ISZERO PUSH2 0x1691 JUMPI PUSH1 0x2 PUSH1 0x0 MSTORE PUSH32 0x405787FA12A823E0F2B7631CC41B3BA8828B3321CA811111FA75CD3AA3BB5ACE ADD SWAP1 PUSH1 0x0 SWAP1 JUMP JUMPDEST PUSH4 0x4E487B71 PUSH1 0xE0 SHL PUSH1 0x0 MSTORE PUSH1 0x32 PUSH1 0x4 MSTORE PUSH1 0x24 PUSH1 0x0 REVERT JUMPDEST SWAP1 PUSH1 0x1 DUP3 DUP2 SHR SWAP3 AND DUP1 ISZERO PUSH2 0x16D7 JUMPI JUMPDEST PUSH1 0x20 DUP4 LT EQ PUSH2 0x16C1 JUMPI JUMP JUMPDEST PUSH4 0x4E487B71 PUSH1 0xE0 SHL PUSH1 0x0 MSTORE PUSH1 0x22 PUSH1 0x4 MSTORE PUSH1 0x24 PUSH1 0x0 REVERT JUMPDEST SWAP2 PUSH1 0x7F AND SWAP2 PUSH2 0x16B6 JUMP JUMPDEST PUSH2 0x180 DUP2 ADD SWAP1 DUP2 LT PUSH1 0x1 PUSH1 0x1 PUSH1 0x40 SHL SUB DUP3 GT OR PUSH2 0xB0D JUMPI PUSH1 0x40 MSTORE JUMP JUMPDEST SWAP1 PUSH1 0x1F DUP1 NOT SWAP2 ADD AND DUP2 ADD SWAP1 DUP2 LT PUSH1 0x1 PUSH1 0x1 PUSH1 0x40 SHL SUB DUP3 GT OR PUSH2 0xB0D JUMPI PUSH1 0x40 MSTORE JUMP JUMPDEST SWAP1 PUSH1 0x40 MLOAD SWAP2 DUP3 PUSH1 0x0 DUP3 SLOAD SWAP3 PUSH2 0x1732 DUP5 PUSH2 0x16A7 JUMP JUMPDEST SWAP1 DUP2 DUP5 MSTORE PUSH1 0x1 SWAP5 DUP6 DUP2 AND SWAP1 DUP2 PUSH1 0x0 EQ PUSH2 0x17A1 JUMPI POP PUSH1 0x1 EQ PUSH2 0x175E JUMPI JUMPDEST POP POP PUSH2 0x175C SWAP3 POP SUB DUP4 PUSH2 0x16FD JUMP JUMPDEST JUMP JUMPDEST SWAP1 SWAP4 SWAP2 POP PUSH1 0x0 MSTORE PUSH1 0x20 SWAP1 DUP2 PUSH1 0x0 KECCAK256 SWAP4 PUSH1 0x0 SWAP2 JUMPDEST DUP2 DUP4 LT PUSH2 0x1789 JUMPI POP POP PUSH2 0x175C SWAP4 POP DUP3 ADD ADD CODESIZE DUP1 PUSH2 0x174E JUMP JUMPDEST DUP6 SLOAD DUP9 DUP5 ADD DUP6 ADD MSTORE SWAP5 DUP6 ADD SWAP5 DUP8 SWAP5 POP SWAP2 DUP4 ADD SWAP2 PUSH2 0x1771 JUMP JUMPDEST SWAP2 POP POP PUSH2 0x175C SWAP5 POP PUSH1 0x20 SWAP3 POP PUSH1 0xFF NOT AND DUP3 DUP5 ADD MSTORE ISZERO ISZERO PUSH1 0x5 SHL DUP3 ADD ADD CODESIZE DUP1 PUSH2 0x174E JUMP JUMPDEST PUSH1 0x0 JUMPDEST DUP4 DUP2 LT PUSH2 0x17D7 JUMPI POP POP PUSH1 0x0 SWAP2 ADD MSTORE JUMP JUMPDEST DUP2 DUP2 ADD MLOAD DUP4 DUP3 ADD MSTORE PUSH1 0x20 ADD PUSH2 0x17C7 JUMP JUMPDEST SWAP1 PUSH1 0x20 SWAP2 PUSH2 0x1800 DUP2 MLOAD DUP1 SWAP3 DUP2 DUP6 MSTORE DUP6 DUP1 DUP7 ADD SWAP2 ADD PUSH2 0x17C4 JUMP JUMPDEST PUSH1 0x1F ADD PUSH1 0x1F NOT AND ADD ADD SWAP1 JUMP JUMPDEST SWAP2 DUP2 PUSH1 0x1F DUP5 ADD SLT ISZERO PUSH2 0x1140 JUMPI DUP3 CALLDATALOAD SWAP2 PUSH1 0x1 PUSH1 0x1 PUSH1 0x40 SHL SUB DUP4 GT PUSH2 0x1140 JUMPI PUSH1 0x20 DUP4 DUP2 DUP7 ADD SWAP6 ADD ADD GT PUSH2 0x1140 JUMPI JUMP JUMPDEST SWAP3 SWAP2 SWAP3 PUSH1 0x1 PUSH1 0x1 PUSH1 0x40 SHL SUB DUP3 GT PUSH2 0xB0D JUMPI PUSH1 0x40 MLOAD SWAP2 PUSH2 0x1862 PUSH1 0x1F DUP3 ADD PUSH1 0x1F NOT AND PUSH1 0x20 ADD DUP5 PUSH2 0x16FD JUMP JUMPDEST DUP3 SWAP5 DUP2 DUP5 MSTORE DUP2 DUP4 ADD GT PUSH2 0x1140 JUMPI DUP3 DUP2 PUSH1 0x20 SWAP4 DUP5 PUSH1 0x0 SWAP7 ADD CALLDATACOPY ADD ADD MSTORE JUMP JUMPDEST SWAP1 PUSH1 0x1F DUP2 GT PUSH2 0x188D JUMPI POP POP POP JUMP JUMPDEST PUSH1 0x0 SWAP2 DUP3 MSTORE PUSH1 0x20 DUP3 KECCAK256 SWAP1 PUSH1 0x20 PUSH1 0x1F DUP6 ADD PUSH1 0x5 SHR DUP4 ADD SWAP5 LT PUSH2 0x18C9 JUMPI JUMPDEST PUSH1 0x1F ADD PUSH1 0x5 SHR ADD SWAP2 JUMPDEST DUP3 DUP2 LT PUSH2 0x18BE JUMPI POP POP POP JUMP JUMPDEST DUP2 DUP2 SSTORE PUSH1 0x1 ADD PUSH2 0x18B2 JUMP JUMPDEST SWAP1 SWAP3 POP DUP3 SWAP1 PUSH2 0x18A9 JUMP JUMPDEST SWAP1 DUP1 PUSH1 0x20 SWAP4 SWAP3 DUP2 DUP5 MSTORE DUP5 DUP5 ADD CALLDATACOPY PUSH1 0x0 DUP3 DUP3 ADD DUP5 ADD MSTORE PUSH1 0x1F ADD PUSH1 0x1F NOT AND ADD ADD SWAP1 JUMP INVALID LOG2 PUSH5 0x6970667358 0x22 SLT KECCAK256 EXTCODECOPY PUSH21 0x76BAE4EC430540AD587EC40DC8A942816FC605FA18 0xC7 0x2C DUP12 PUSH10 0x960841C86264736F6C63 NUMBER STOP ADDMOD EQ STOP CALLER "},"methodIdentifiers":{"codices(string)":"dbc21424","getCodex(string)":"83361522","inscribeCodex(string,string,string,string,string,string,string,string,string,string,string,string,string)":"ee403f02","keys(uint256)":"0cb6aaf1","steward()":"637eea19","totalCodices()":"c212d16b"}}}}}