{"contracts/registry/LoaderDaemonSummonerII.sol":{"LoaderDaemonSummonerII":{"abi":[{"inputs":[],"stateMutability":"nonpayable","type":"constructor"},{"anonymous":false,"inputs":[{"indexed":true,"internalType":"address","name":"daemon","type":"address"},{"indexed":false,"internalType":"string","name":"name","type":"string"},{"indexed":false,"internalType":"string","name":"orbitalNode","type":"string"},{"indexed":false,"internalType":"string","name":"sanctum","type":"string"},{"indexed":false,"internalType":"string","name":"pulse","type":"string"},{"indexed":false,"internalType":"string","name":"chant","type":"string"},{"indexed":false,"internalType":"string","name":"genesisBlock","type":"string"},{"indexed":false,"internalType":"string","name":"constellation","type":"string"},{"indexed":false,"internalType":"string","name":"skyCity","type":"string"},{"indexed":false,"internalType":"string","name":"stewardName","type":"string"},{"indexed":false,"internalType":"string","name":"orbitalChant","type":"string"}],"name":"LoaderDaemonSummoned","type":"event"},{"inputs":[{"internalType":"address","name":"","type":"address"}],"name":"daemons","outputs":[{"internalType":"string","name":"name","type":"string"},{"internalType":"string","name":"orbitalNode","type":"string"},{"internalType":"string","name":"sanctum","type":"string"},{"internalType":"string","name":"pulse","type":"string"},{"internalType":"string","name":"chant","type":"string"},{"internalType":"string","name":"genesisBlock","type":"string"},{"internalType":"string","name":"constellation","type":"string"},{"internalType":"string","name":"skyCity","type":"string"},{"internalType":"string","name":"stewardName","type":"string"},{"internalType":"string","name":"orbitalChant","type":"string"}],"stateMutability":"view","type":"function"},{"inputs":[{"internalType":"address","name":"daemon","type":"address"}],"name":"getDaemon","outputs":[{"components":[{"internalType":"string","name":"name","type":"string"},{"internalType":"string","name":"orbitalNode","type":"string"},{"internalType":"string","name":"sanctum","type":"string"},{"internalType":"string","name":"pulse","type":"string"},{"internalType":"string","name":"chant","type":"string"},{"internalType":"string","name":"genesisBlock","type":"string"},{"internalType":"string","name":"constellation","type":"string"},{"internalType":"string","name":"skyCity","type":"string"},{"internalType":"string","name":"stewardName","type":"string"},{"internalType":"string","name":"orbitalChant","type":"string"}],"internalType":"struct LoaderDaemonSummonerII.Daemon","name":"","type":"tuple"}],"stateMutability":"view","type":"function"},{"inputs":[{"internalType":"uint256","name":"","type":"uint256"}],"name":"keys","outputs":[{"internalType":"address","name":"","type":"address"}],"stateMutability":"view","type":"function"},{"inputs":[],"name":"steward","outputs":[{"internalType":"address","name":"","type":"address"}],"stateMutability":"view","type":"function"},{"inputs":[{"internalType":"address","name":"daemon","type":"address"},{"internalType":"string","name":"name","type":"string"},{"internalType":"string","name":"orbitalNode","type":"string"},{"internalType":"string","name":"sanctum","type":"string"},{"internalType":"string","name":"pulse","type":"string"},{"internalType":"string","name":"chant","type":"string"},{"internalType":"string","name":"genesisBlock","type":"string"},{"internalType":"string","name":"constellation","type":"string"},{"internalType":"string","name":"skyCity","type":"string"},{"internalType":"string","name":"stewardName","type":"string"},{"internalType":"string","name":"orbitalChant","type":"string"}],"name":"summonDaemon","outputs":[],"stateMutability":"nonpayable","type":"function"},{"inputs":[],"name":"totalDaemons","outputs":[{"internalType":"uint256","name":"","type":"uint256"}],"stateMutability":"view","type":"function"}],"evm":{"bytecode":{"linkReferences":{},"object":"6080806040523461002857600080546001600160a01b0319163317905561173e908161002e8239f35b600080fdfe610360604052600436101561001357600080fd5b60003560e01c80630cb6aaf11461145c578063637eea19146114335780636538e1021461040f5780636be43623146101e257806374bd63fa146101c457637eb6dc2b1461005f57600080fd5b346101bf5760203660031901126101bf576001600160a01b036100806114eb565b1660005260016020526040600020610097816115fb565b6100a3600183016115fb565b916100b0600282016115fb565b906100bd600382016115fb565b6100c9600483016115fb565b6100d5600584016115fb565b6100e1600685016115fb565b916100ee600786016115fb565b936100fb600887016115fb565b95600901610108906115fb565b96604051998a99610140808c528b016101209161152e565b8a810360208c01526101319161152e565b89810360408b01526101429161152e565b88810360608a01526101539161152e565b87810360808901526101649161152e565b86810360a08801526101759161152e565b85810360c08701526101869161152e565b84810360e08601526101979161152e565b8381036101008501526101a99161152e565b8281036101208401526101bb9161152e565b0390f35b600080fd5b346101bf5760003660031901126101bf576020600254604051908152f35b346101bf5760203660031901126101bf576101fb6114eb565b606061012060405161020c816115a8565b82815282602082015282604082015282808201528260808201528260a08201528260c08201528260e082015282610100820152015260018060a01b031660005260016020526101bb604060002061030560096040519261026b846115a8565b610274816115fb565b8452610282600182016115fb565b6020850152610293600282016115fb565b60408501526102a4600382016115fb565b60608501526102b5600482016115fb565b60808501526102c6600582016115fb565b60a08501526102d7600682016115fb565b60c08501526102e8600782016115fb565b60e08501526102f9600882016115fb565b610100850152016115fb565b610120820152604051918291602083526101206103fa6103e46103cd6103b76103a161038b61037561035f6103498c6101608c51916101406020820152019061152e565b60208b01518d8203601f190160408f015261152e565b60408a01518c8203601f190160608e015261152e565b60608901518b8203601f190160808d015261152e565b60808801518a8203601f190160a08c015261152e565b60a0870151898203601f190160c08b015261152e565b60c0860151888203601f190160e08a015261152e565b60e0850151878203601f190161010089015261152e565b610100840151868203601f19018488015261152e565b910151838203601f190161014085015261152e565b346101bf576101603660031901126101bf576104296114eb565b6102c052602480356001600160401b0381116101bf5761044d903690600401611501565b60a052610120526044356001600160401b0381116101bf57610473903690600401611501565b6102a052610260526064356001600160401b0381116101bf5761049a903690600401611501565b6101a052610200526084356001600160401b0381116101bf576104c1903690600401611501565b610100526101e05260a4356001600160401b0381116101bf576104e8903690600401611501565b610160526102205260c4356001600160401b0381116101bf5761050f903690600401611501565b608052610180526001600160401b0360e435116101bf576105353660e435600401611501565b60e05260c0526001600160401b0361010435116101bf5761055c3661010435600401611501565b61034052610240526001600160401b0361012435116101bf576105853661012435600401611501565b61014052610280526001600160401b0361014435116101bf576105ae3661014435600401611501565b6102e052610320526000546001600160a01b03163303611401576105d8604051806101c0526115a8565b6105e83660a051610120516116a1565b6101c051526105fe366102a051610260516116a1565b60206101c0510152610617366101a051610200516116a1565b60406101c051015261063036610100516101e0516116a1565b60606101c05101526106493661016051610220516116a1565b60806101c051015261066136608051610180516116a1565b60a06101c05101526106783660e05160c0516116a1565b60c06101c05101526106913661034051610240516116a1565b60e06101c05101526106aa3661014051610280516116a1565b6101006101c05101526106c4366102e051610320516116a1565b6101206101c051015260018060a01b036102c0511660005260016020526040600020906101c051519182516001600160401b038111610df557610707825461156e565b601f81116113bd575b506020601f8211600114611355578192939460009261134a575b50508160011b916000199060031b1c19161781555b60206101c05101519182516001600160401b038111610c4b57610765600184015461156e565b601f8111611303575b506020601f8211600114611295578192939460009261128a575b50508160011b916000199060031b1c19161760018301555b60406101c05101519182516001600160401b038111610df5576107c6600283015461156e565b601f8111611243575b506020601f82116001146111d557819293946000926111ca575b50508160011b916000199060031b1c19161760028201555b60606101c05101519182516001600160401b038111610c4b57610827600384015461156e565b601f8111611183575b506020601f8211600114611115578192939460009261110a575b50508160011b916000199060031b1c19161760038301555b60806101c05101519182516001600160401b038111610df557610888600483015461156e565b601f81116110c3575b506020601f8211600114611055578192939460009261104a575b50508160011b916000199060031b1c19161760048201555b60a06101c05101519182516001600160401b038111610c4b576108e9600584015461156e565b601f8111611003575b506020601f8211600114610f955781929394600092610f8a575b50508160011b916000199060031b1c19161760058301555b60c06101c05101519182516001600160401b038111610df55761094a600683015461156e565b601f8111610f43575b506020601f8211600114610ed55781929394600092610eca575b50508160011b916000199060031b1c19161760068201555b60e06101c05101519182516001600160401b038111610c4b576109ab600784015461156e565b601f8111610e83575b506020601f8211600114610e155781929394600092610e0a575b50508160011b916000199060031b1c19161760078301555b6101006101c05101519182516001600160401b038111610df557610a0d600883015461156e565b601f8111610dae575b506020601f8211600114610d405781929394600092610d35575b50508160011b916000199060031b1c19161760088201555b6101206101c05101518051906001600160401b038211610d2057610a6f600984015461156e565b601f8111610cd9575b50602090601f8311600114610c6b576009929160009183610c60575b50508160011b916000199060031b1c1916179101555b60025468010000000000000000811015610c4b57806001610ace920160025561149e565b81549060031b9060018060a01b036102c05116821b9160018060a01b03901b1916179055610140604051806103005252610bf3610bd9610bc0610ba9610b91610b78610b5f610b46610b2d610140610300510160a051610120516116e7565b6103005160208183039101526102a051610260516116e7565b6103005160408183039101526101a051610200516116e7565b610300516060818303910152610100516101e0516116e7565b61030051608081830391015261016051610220516116e7565b6103005160a0818303910152608051610180516116e7565b6103005160c081830391015260e05160c0516116e7565b6103005160e081830391015261034051610240516116e7565b6103005161010081830391015261014051610280516116e7565b610300516101208183039101527f56c08787953b8da2e67ec1151b0d6e7c0aacc4854be3c2c91480717cadd9d7b360018060a01b036102c0511691610c4361030051916102e051610320516116e7565b0361030051a2005b50634e487b7160e01b60009081526041600452fd5b015190508580610a94565b90601f198316916009850160005260206000209260005b818110610cc157509160019391856009969410610ca8575b505050811b01910155610aaa565b015160001960f88460031b161c19169055858080610c9a565b92936020600181928786015181550195019301610c82565b600984016000526020600020601f840160051c810160208510610d19575b601f830160051c82018110610d0d575050610a78565b60008155600101610cf7565b5080610cf7565b83634e487b7160e01b60005260416004526000fd5b015190508480610a30565b6008830160005260206000209060005b601f1984168110610d965750600193949583601f19811610610d7d575b505050811b016008820155610a48565b015160001960f88460031b161c19169055848080610d6d565b9091602060018192858a015181550193019101610d50565b600883016000526020600020601f830160051c810160208410610dee575b601f830160051c82018110610de2575050610a16565b60008155600101610dcc565b5080610dcc565b82634e487b7160e01b60005260416004526000fd5b0151905084806109ce565b6007840160005260206000209060005b601f1984168110610e6b5750600193949583601f19811610610e52575b505050811b0160078301556109e6565b015160001960f88460031b161c19169055848080610e42565b9091602060018192858a015181550193019101610e25565b600784016000526020600020601f830160051c810160208410610ec3575b601f830160051c82018110610eb75750506109b4565b60008155600101610ea1565b5080610ea1565b01519050848061096d565b6006830160005260206000209060005b601f1984168110610f2b5750600193949583601f19811610610f12575b505050811b016006820155610985565b015160001960f88460031b161c19169055848080610f02565b9091602060018192858a015181550193019101610ee5565b600683016000526020600020601f830160051c810160208410610f83575b601f830160051c82018110610f77575050610953565b60008155600101610f61565b5080610f61565b01519050848061090c565b6005840160005260206000209060005b601f1984168110610feb5750600193949583601f19811610610fd2575b505050811b016005830155610924565b015160001960f88460031b161c19169055848080610fc2565b9091602060018192858a015181550193019101610fa5565b600584016000526020600020601f830160051c810160208410611043575b601f830160051c820181106110375750506108f2565b60008155600101611021565b5080611021565b0151905084806108ab565b6004830160005260206000209060005b601f19841681106110ab5750600193949583601f19811610611092575b505050811b0160048201556108c3565b015160001960f88460031b161c19169055848080611082565b9091602060018192858a015181550193019101611065565b600483016000526020600020601f830160051c810160208410611103575b601f830160051c820181106110f7575050610891565b600081556001016110e1565b50806110e1565b01519050848061084a565b6003840160005260206000209060005b601f198416811061116b5750600193949583601f19811610611152575b505050811b016003830155610862565b015160001960f88460031b161c19169055848080611142565b9091602060018192858a015181550193019101611125565b600384016000526020600020601f830160051c8101602084106111c3575b601f830160051c820181106111b7575050610830565b600081556001016111a1565b50806111a1565b0151905084806107e9565b6002830160005260206000209060005b601f198416811061122b5750600193949583601f19811610611212575b505050811b016002820155610801565b015160001960f88460031b161c19169055848080611202565b9091602060018192858a0151815501930191016111e5565b600283016000526020600020601f830160051c810160208410611283575b601f830160051c820181106112775750506107cf565b60008155600101611261565b5080611261565b015190508480610788565b6001840160005260206000209060005b601f19841681106112eb5750600193949583601f198116106112d2575b505050811b0160018301556107a0565b015160001960f88460031b161c191690558480806112c2565b9091602060018192858a0151815501930191016112a5565b600184016000526020600020601f830160051c810160208410611343575b601f830160051c8201811061133757505061076e565b60008155600101611321565b5080611321565b01519050848061072a565b8260005260206000209060005b601f19841681106113a55750600193949583601f1981161061138c575b505050811b01815561073f565b015160001960f88460031b161c1916905584808061137f565b9091602060018192858a015181550193019101611362565b826000526020600020601f830160051c8101602084106113fa575b601f830160051c820181106113ee575050610710565b600081556001016113d8565b50806113d8565b606490600b6040519162461bcd60e51b8352602060048401528201526a139bdd081cdd195dd85c9960aa1b6044820152fd5b346101bf5760003660031901126101bf576000546040516001600160a01b039091168152602090f35b346101bf5760203660031901126101bf576004356002548110156101bf5761148560209161149e565b905460405160039290921b1c6001600160a01b03168152f35b6002548110156114d55760026000527f405787fa12a823e0f2b7631cc41b3ba8828b3321ca811111fa75cd3aa3bb5ace0190600090565b634e487b7160e01b600052603260045260246000fd5b600435906001600160a01b03821682036101bf57565b9181601f840112156101bf578235916001600160401b0383116101bf57602083818601950101116101bf57565b919082519283825260005b84811061155a575050826000602080949584010152601f8019910116010190565b602081830181015184830182015201611539565b90600182811c9216801561159e575b602083101461158857565b634e487b7160e01b600052602260045260246000fd5b91607f169161157d565b61014081019081106001600160401b038211176115c457604052565b634e487b7160e01b600052604160045260246000fd5b90601f801991011681019081106001600160401b038211176115c457604052565b906040519182600082549261160f8461156e565b90818452600194858116908160001461167e575060011461163b575b5050611639925003836115da565b565b9093915060005260209081600020936000915b8183106116665750506116399350820101388061162b565b8554888401850152948501948794509183019161164e565b91505061163994506020925060ff191682840152151560051b820101388061162b565b9291926001600160401b0382116115c457604051916116ca601f8201601f1916602001846115da565b8294818452818301116101bf578281602093846000960137010152565b908060209392818452848401376000828201840152601f01601f191601019056fea2646970667358221220ba9ab2028738054b736f7cd6ca577ff2481f2ee3c0df6ea509c64764e36e714264736f6c63430008140033","opcodes":"PUSH1 0x80 DUP1 PUSH1 0x40 MSTORE CALLVALUE PUSH2 0x28 JUMPI PUSH1 0x0 DUP1 SLOAD PUSH1 0x1 PUSH1 0x1 PUSH1 0xA0 SHL SUB NOT AND CALLER OR SWAP1 SSTORE PUSH2 0x173E SWAP1 DUP2 PUSH2 0x2E DUP3 CODECOPY RETURN JUMPDEST PUSH1 0x0 DUP1 REVERT INVALID PUSH2 0x360 PUSH1 0x40 MSTORE PUSH1 0x4 CALLDATASIZE LT ISZERO PUSH2 0x13 JUMPI PUSH1 0x0 DUP1 REVERT JUMPDEST PUSH1 0x0 CALLDATALOAD PUSH1 0xE0 SHR DUP1 PUSH4 0xCB6AAF1 EQ PUSH2 0x145C JUMPI DUP1 PUSH4 0x637EEA19 EQ PUSH2 0x1433 JUMPI DUP1 PUSH4 0x6538E102 EQ PUSH2 0x40F JUMPI DUP1 PUSH4 0x6BE43623 EQ PUSH2 0x1E2 JUMPI DUP1 PUSH4 0x74BD63FA EQ PUSH2 0x1C4 JUMPI PUSH4 0x7EB6DC2B EQ PUSH2 0x5F JUMPI PUSH1 0x0 DUP1 REVERT JUMPDEST CALLVALUE PUSH2 0x1BF JUMPI PUSH1 0x20 CALLDATASIZE PUSH1 0x3 NOT ADD SLT PUSH2 0x1BF JUMPI PUSH1 0x1 PUSH1 0x1 PUSH1 0xA0 SHL SUB PUSH2 0x80 PUSH2 0x14EB JUMP JUMPDEST AND PUSH1 0x0 MSTORE PUSH1 0x1 PUSH1 0x20 MSTORE PUSH1 0x40 PUSH1 0x0 KECCAK256 PUSH2 0x97 DUP2 PUSH2 0x15FB JUMP JUMPDEST PUSH2 0xA3 PUSH1 0x1 DUP4 ADD PUSH2 0x15FB JUMP JUMPDEST SWAP2 PUSH2 0xB0 PUSH1 0x2 DUP3 ADD PUSH2 0x15FB JUMP JUMPDEST SWAP1 PUSH2 0xBD PUSH1 0x3 DUP3 ADD PUSH2 0x15FB JUMP JUMPDEST PUSH2 0xC9 PUSH1 0x4 DUP4 ADD PUSH2 0x15FB JUMP JUMPDEST PUSH2 0xD5 PUSH1 0x5 DUP5 ADD PUSH2 0x15FB JUMP JUMPDEST PUSH2 0xE1 PUSH1 0x6 DUP6 ADD PUSH2 0x15FB JUMP JUMPDEST SWAP2 PUSH2 0xEE PUSH1 0x7 DUP7 ADD PUSH2 0x15FB JUMP JUMPDEST SWAP4 PUSH2 0xFB PUSH1 0x8 DUP8 ADD PUSH2 0x15FB JUMP JUMPDEST SWAP6 PUSH1 0x9 ADD PUSH2 0x108 SWAP1 PUSH2 0x15FB JUMP JUMPDEST SWAP7 PUSH1 0x40 MLOAD SWAP10 DUP11 SWAP10 PUSH2 0x140 DUP1 DUP13 MSTORE DUP12 ADD PUSH2 0x120 SWAP2 PUSH2 0x152E JUMP JUMPDEST DUP11 DUP2 SUB PUSH1 0x20 DUP13 ADD MSTORE PUSH2 0x131 SWAP2 PUSH2 0x152E JUMP JUMPDEST DUP10 DUP2 SUB PUSH1 0x40 DUP12 ADD MSTORE PUSH2 0x142 SWAP2 PUSH2 0x152E JUMP JUMPDEST DUP9 DUP2 SUB PUSH1 0x60 DUP11 ADD MSTORE PUSH2 0x153 SWAP2 PUSH2 0x152E JUMP JUMPDEST DUP8 DUP2 SUB PUSH1 0x80 DUP10 ADD MSTORE PUSH2 0x164 SWAP2 PUSH2 0x152E JUMP JUMPDEST DUP7 DUP2 SUB PUSH1 0xA0 DUP9 ADD MSTORE PUSH2 0x175 SWAP2 PUSH2 0x152E JUMP JUMPDEST DUP6 DUP2 SUB PUSH1 0xC0 DUP8 ADD MSTORE PUSH2 0x186 SWAP2 PUSH2 0x152E JUMP JUMPDEST DUP5 DUP2 SUB PUSH1 0xE0 DUP7 ADD MSTORE PUSH2 0x197 SWAP2 PUSH2 0x152E JUMP JUMPDEST DUP4 DUP2 SUB PUSH2 0x100 DUP6 ADD MSTORE PUSH2 0x1A9 SWAP2 PUSH2 0x152E JUMP JUMPDEST DUP3 DUP2 SUB PUSH2 0x120 DUP5 ADD MSTORE PUSH2 0x1BB SWAP2 PUSH2 0x152E JUMP JUMPDEST SUB SWAP1 RETURN JUMPDEST PUSH1 0x0 DUP1 REVERT JUMPDEST CALLVALUE PUSH2 0x1BF JUMPI PUSH1 0x0 CALLDATASIZE PUSH1 0x3 NOT ADD SLT PUSH2 0x1BF JUMPI PUSH1 0x20 PUSH1 0x2 SLOAD PUSH1 0x40 MLOAD SWAP1 DUP2 MSTORE RETURN JUMPDEST CALLVALUE PUSH2 0x1BF JUMPI PUSH1 0x20 CALLDATASIZE PUSH1 0x3 NOT ADD SLT PUSH2 0x1BF JUMPI PUSH2 0x1FB PUSH2 0x14EB JUMP JUMPDEST PUSH1 0x60 PUSH2 0x120 PUSH1 0x40 MLOAD PUSH2 0x20C DUP2 PUSH2 0x15A8 JUMP JUMPDEST DUP3 DUP2 MSTORE DUP3 PUSH1 0x20 DUP3 ADD MSTORE DUP3 PUSH1 0x40 DUP3 ADD MSTORE DUP3 DUP1 DUP3 ADD MSTORE DUP3 PUSH1 0x80 DUP3 ADD MSTORE DUP3 PUSH1 0xA0 DUP3 ADD MSTORE DUP3 PUSH1 0xC0 DUP3 ADD MSTORE DUP3 PUSH1 0xE0 DUP3 ADD MSTORE DUP3 PUSH2 0x100 DUP3 ADD MSTORE ADD MSTORE PUSH1 0x1 DUP1 PUSH1 0xA0 SHL SUB AND PUSH1 0x0 MSTORE PUSH1 0x1 PUSH1 0x20 MSTORE PUSH2 0x1BB PUSH1 0x40 PUSH1 0x0 KECCAK256 PUSH2 0x305 PUSH1 0x9 PUSH1 0x40 MLOAD SWAP3 PUSH2 0x26B DUP5 PUSH2 0x15A8 JUMP JUMPDEST PUSH2 0x274 DUP2 PUSH2 0x15FB JUMP JUMPDEST DUP5 MSTORE PUSH2 0x282 PUSH1 0x1 DUP3 ADD PUSH2 0x15FB JUMP JUMPDEST PUSH1 0x20 DUP6 ADD MSTORE PUSH2 0x293 PUSH1 0x2 DUP3 ADD PUSH2 0x15FB JUMP JUMPDEST PUSH1 0x40 DUP6 ADD MSTORE PUSH2 0x2A4 PUSH1 0x3 DUP3 ADD PUSH2 0x15FB JUMP JUMPDEST PUSH1 0x60 DUP6 ADD MSTORE PUSH2 0x2B5 PUSH1 0x4 DUP3 ADD PUSH2 0x15FB JUMP JUMPDEST PUSH1 0x80 DUP6 ADD MSTORE PUSH2 0x2C6 PUSH1 0x5 DUP3 ADD PUSH2 0x15FB JUMP JUMPDEST PUSH1 0xA0 DUP6 ADD MSTORE PUSH2 0x2D7 PUSH1 0x6 DUP3 ADD PUSH2 0x15FB JUMP JUMPDEST PUSH1 0xC0 DUP6 ADD MSTORE PUSH2 0x2E8 PUSH1 0x7 DUP3 ADD PUSH2 0x15FB JUMP JUMPDEST PUSH1 0xE0 DUP6 ADD MSTORE PUSH2 0x2F9 PUSH1 0x8 DUP3 ADD PUSH2 0x15FB JUMP JUMPDEST PUSH2 0x100 DUP6 ADD MSTORE ADD PUSH2 0x15FB JUMP JUMPDEST PUSH2 0x120 DUP3 ADD MSTORE PUSH1 0x40 MLOAD SWAP2 DUP3 SWAP2 PUSH1 0x20 DUP4 MSTORE PUSH2 0x120 PUSH2 0x3FA PUSH2 0x3E4 PUSH2 0x3CD PUSH2 0x3B7 PUSH2 0x3A1 PUSH2 0x38B PUSH2 0x375 PUSH2 0x35F PUSH2 0x349 DUP13 PUSH2 0x160 DUP13 MLOAD SWAP2 PUSH2 0x140 PUSH1 0x20 DUP3 ADD MSTORE ADD SWAP1 PUSH2 0x152E JUMP JUMPDEST PUSH1 0x20 DUP12 ADD MLOAD DUP14 DUP3 SUB PUSH1 0x1F NOT ADD PUSH1 0x40 DUP16 ADD MSTORE PUSH2 0x152E JUMP JUMPDEST PUSH1 0x40 DUP11 ADD MLOAD DUP13 DUP3 SUB PUSH1 0x1F NOT ADD PUSH1 0x60 DUP15 ADD MSTORE PUSH2 0x152E JUMP JUMPDEST PUSH1 0x60 DUP10 ADD MLOAD DUP12 DUP3 SUB PUSH1 0x1F NOT ADD PUSH1 0x80 DUP14 ADD MSTORE PUSH2 0x152E JUMP JUMPDEST PUSH1 0x80 DUP9 ADD MLOAD DUP11 DUP3 SUB PUSH1 0x1F NOT ADD PUSH1 0xA0 DUP13 ADD MSTORE PUSH2 0x152E JUMP JUMPDEST PUSH1 0xA0 DUP8 ADD MLOAD DUP10 DUP3 SUB PUSH1 0x1F NOT ADD PUSH1 0xC0 DUP12 ADD MSTORE PUSH2 0x152E JUMP JUMPDEST PUSH1 0xC0 DUP7 ADD MLOAD DUP9 DUP3 SUB PUSH1 0x1F NOT ADD PUSH1 0xE0 DUP11 ADD MSTORE PUSH2 0x152E JUMP JUMPDEST PUSH1 0xE0 DUP6 ADD MLOAD DUP8 DUP3 SUB PUSH1 0x1F NOT ADD PUSH2 0x100 DUP10 ADD MSTORE PUSH2 0x152E JUMP JUMPDEST PUSH2 0x100 DUP5 ADD MLOAD DUP7 DUP3 SUB PUSH1 0x1F NOT ADD DUP5 DUP9 ADD MSTORE PUSH2 0x152E JUMP JUMPDEST SWAP2 ADD MLOAD DUP4 DUP3 SUB PUSH1 0x1F NOT ADD PUSH2 0x140 DUP6 ADD MSTORE PUSH2 0x152E JUMP JUMPDEST CALLVALUE PUSH2 0x1BF JUMPI PUSH2 0x160 CALLDATASIZE PUSH1 0x3 NOT ADD SLT PUSH2 0x1BF JUMPI PUSH2 0x429 PUSH2 0x14EB JUMP JUMPDEST PUSH2 0x2C0 MSTORE PUSH1 0x24 DUP1 CALLDATALOAD PUSH1 0x1 PUSH1 0x1 PUSH1 0x40 SHL SUB DUP2 GT PUSH2 0x1BF JUMPI PUSH2 0x44D SWAP1 CALLDATASIZE SWAP1 PUSH1 0x4 ADD PUSH2 0x1501 JUMP JUMPDEST PUSH1 0xA0 MSTORE PUSH2 0x120 MSTORE PUSH1 0x44 CALLDATALOAD PUSH1 0x1 PUSH1 0x1 PUSH1 0x40 SHL SUB DUP2 GT PUSH2 0x1BF JUMPI PUSH2 0x473 SWAP1 CALLDATASIZE SWAP1 PUSH1 0x4 ADD PUSH2 0x1501 JUMP JUMPDEST PUSH2 0x2A0 MSTORE PUSH2 0x260 MSTORE PUSH1 0x64 CALLDATALOAD PUSH1 0x1 PUSH1 0x1 PUSH1 0x40 SHL SUB DUP2 GT PUSH2 0x1BF JUMPI PUSH2 0x49A SWAP1 CALLDATASIZE SWAP1 PUSH1 0x4 ADD PUSH2 0x1501 JUMP JUMPDEST PUSH2 0x1A0 MSTORE PUSH2 0x200 MSTORE PUSH1 0x84 CALLDATALOAD PUSH1 0x1 PUSH1 0x1 PUSH1 0x40 SHL SUB DUP2 GT PUSH2 0x1BF JUMPI PUSH2 0x4C1 SWAP1 CALLDATASIZE SWAP1 PUSH1 0x4 ADD PUSH2 0x1501 JUMP JUMPDEST PUSH2 0x100 MSTORE PUSH2 0x1E0 MSTORE PUSH1 0xA4 CALLDATALOAD PUSH1 0x1 PUSH1 0x1 PUSH1 0x40 SHL SUB DUP2 GT PUSH2 0x1BF JUMPI PUSH2 0x4E8 SWAP1 CALLDATASIZE SWAP1 PUSH1 0x4 ADD PUSH2 0x1501 JUMP JUMPDEST PUSH2 0x160 MSTORE PUSH2 0x220 MSTORE PUSH1 0xC4 CALLDATALOAD PUSH1 0x1 PUSH1 0x1 PUSH1 0x40 SHL SUB DUP2 GT PUSH2 0x1BF JUMPI PUSH2 0x50F SWAP1 CALLDATASIZE SWAP1 PUSH1 0x4 ADD PUSH2 0x1501 JUMP JUMPDEST PUSH1 0x80 MSTORE PUSH2 0x180 MSTORE PUSH1 0x1 PUSH1 0x1 PUSH1 0x40 SHL SUB PUSH1 0xE4 CALLDATALOAD GT PUSH2 0x1BF JUMPI PUSH2 0x535 CALLDATASIZE PUSH1 0xE4 CALLDATALOAD PUSH1 0x4 ADD PUSH2 0x1501 JUMP JUMPDEST PUSH1 0xE0 MSTORE PUSH1 0xC0 MSTORE PUSH1 0x1 PUSH1 0x1 PUSH1 0x40 SHL SUB PUSH2 0x104 CALLDATALOAD GT PUSH2 0x1BF JUMPI PUSH2 0x55C CALLDATASIZE PUSH2 0x104 CALLDATALOAD PUSH1 0x4 ADD PUSH2 0x1501 JUMP JUMPDEST PUSH2 0x340 MSTORE PUSH2 0x240 MSTORE PUSH1 0x1 PUSH1 0x1 PUSH1 0x40 SHL SUB PUSH2 0x124 CALLDATALOAD GT PUSH2 0x1BF JUMPI PUSH2 0x585 CALLDATASIZE PUSH2 0x124 CALLDATALOAD PUSH1 0x4 ADD PUSH2 0x1501 JUMP JUMPDEST PUSH2 0x140 MSTORE PUSH2 0x280 MSTORE PUSH1 0x1 PUSH1 0x1 PUSH1 0x40 SHL SUB PUSH2 0x144 CALLDATALOAD GT PUSH2 0x1BF JUMPI PUSH2 0x5AE CALLDATASIZE PUSH2 0x144 CALLDATALOAD PUSH1 0x4 ADD PUSH2 0x1501 JUMP JUMPDEST PUSH2 0x2E0 MSTORE PUSH2 0x320 MSTORE PUSH1 0x0 SLOAD PUSH1 0x1 PUSH1 0x1 PUSH1 0xA0 SHL SUB AND CALLER SUB PUSH2 0x1401 JUMPI PUSH2 0x5D8 PUSH1 0x40 MLOAD DUP1 PUSH2 0x1C0 MSTORE PUSH2 0x15A8 JUMP JUMPDEST PUSH2 0x5E8 CALLDATASIZE PUSH1 0xA0 MLOAD PUSH2 0x120 MLOAD PUSH2 0x16A1 JUMP JUMPDEST PUSH2 0x1C0 MLOAD MSTORE PUSH2 0x5FE CALLDATASIZE PUSH2 0x2A0 MLOAD PUSH2 0x260 MLOAD PUSH2 0x16A1 JUMP JUMPDEST PUSH1 0x20 PUSH2 0x1C0 MLOAD ADD MSTORE PUSH2 0x617 CALLDATASIZE PUSH2 0x1A0 MLOAD PUSH2 0x200 MLOAD PUSH2 0x16A1 JUMP JUMPDEST PUSH1 0x40 PUSH2 0x1C0 MLOAD ADD MSTORE PUSH2 0x630 CALLDATASIZE PUSH2 0x100 MLOAD PUSH2 0x1E0 MLOAD PUSH2 0x16A1 JUMP JUMPDEST PUSH1 0x60 PUSH2 0x1C0 MLOAD ADD MSTORE PUSH2 0x649 CALLDATASIZE PUSH2 0x160 MLOAD PUSH2 0x220 MLOAD PUSH2 0x16A1 JUMP JUMPDEST PUSH1 0x80 PUSH2 0x1C0 MLOAD ADD MSTORE PUSH2 0x661 CALLDATASIZE PUSH1 0x80 MLOAD PUSH2 0x180 MLOAD PUSH2 0x16A1 JUMP JUMPDEST PUSH1 0xA0 PUSH2 0x1C0 MLOAD ADD MSTORE PUSH2 0x678 CALLDATASIZE PUSH1 0xE0 MLOAD PUSH1 0xC0 MLOAD PUSH2 0x16A1 JUMP JUMPDEST PUSH1 0xC0 PUSH2 0x1C0 MLOAD ADD MSTORE PUSH2 0x691 CALLDATASIZE PUSH2 0x340 MLOAD PUSH2 0x240 MLOAD PUSH2 0x16A1 JUMP JUMPDEST PUSH1 0xE0 PUSH2 0x1C0 MLOAD ADD MSTORE PUSH2 0x6AA CALLDATASIZE PUSH2 0x140 MLOAD PUSH2 0x280 MLOAD PUSH2 0x16A1 JUMP JUMPDEST PUSH2 0x100 PUSH2 0x1C0 MLOAD ADD MSTORE PUSH2 0x6C4 CALLDATASIZE PUSH2 0x2E0 MLOAD PUSH2 0x320 MLOAD PUSH2 0x16A1 JUMP JUMPDEST PUSH2 0x120 PUSH2 0x1C0 MLOAD ADD MSTORE PUSH1 0x1 DUP1 PUSH1 0xA0 SHL SUB PUSH2 0x2C0 MLOAD AND PUSH1 0x0 MSTORE PUSH1 0x1 PUSH1 0x20 MSTORE PUSH1 0x40 PUSH1 0x0 KECCAK256 SWAP1 PUSH2 0x1C0 MLOAD MLOAD SWAP2 DUP3 MLOAD PUSH1 0x1 PUSH1 0x1 PUSH1 0x40 SHL SUB DUP2 GT PUSH2 0xDF5 JUMPI PUSH2 0x707 DUP3 SLOAD PUSH2 0x156E JUMP JUMPDEST PUSH1 0x1F DUP2 GT PUSH2 0x13BD JUMPI JUMPDEST POP PUSH1 0x20 PUSH1 0x1F DUP3 GT PUSH1 0x1 EQ PUSH2 0x1355 JUMPI DUP2 SWAP3 SWAP4 SWAP5 PUSH1 0x0 SWAP3 PUSH2 0x134A JUMPI JUMPDEST POP POP DUP2 PUSH1 0x1 SHL SWAP2 PUSH1 0x0 NOT SWAP1 PUSH1 0x3 SHL SHR NOT AND OR DUP2 SSTORE JUMPDEST PUSH1 0x20 PUSH2 0x1C0 MLOAD ADD MLOAD SWAP2 DUP3 MLOAD PUSH1 0x1 PUSH1 0x1 PUSH1 0x40 SHL SUB DUP2 GT PUSH2 0xC4B JUMPI PUSH2 0x765 PUSH1 0x1 DUP5 ADD SLOAD PUSH2 0x156E JUMP JUMPDEST PUSH1 0x1F DUP2 GT PUSH2 0x1303 JUMPI JUMPDEST POP PUSH1 0x20 PUSH1 0x1F DUP3 GT PUSH1 0x1 EQ PUSH2 0x1295 JUMPI DUP2 SWAP3 SWAP4 SWAP5 PUSH1 0x0 SWAP3 PUSH2 0x128A JUMPI JUMPDEST POP POP DUP2 PUSH1 0x1 SHL SWAP2 PUSH1 0x0 NOT SWAP1 PUSH1 0x3 SHL SHR NOT AND OR PUSH1 0x1 DUP4 ADD SSTORE JUMPDEST PUSH1 0x40 PUSH2 0x1C0 MLOAD ADD MLOAD SWAP2 DUP3 MLOAD PUSH1 0x1 PUSH1 0x1 PUSH1 0x40 SHL SUB DUP2 GT PUSH2 0xDF5 JUMPI PUSH2 0x7C6 PUSH1 0x2 DUP4 ADD SLOAD PUSH2 0x156E JUMP JUMPDEST PUSH1 0x1F DUP2 GT PUSH2 0x1243 JUMPI JUMPDEST POP PUSH1 0x20 PUSH1 0x1F DUP3 GT PUSH1 0x1 EQ PUSH2 0x11D5 JUMPI DUP2 SWAP3 SWAP4 SWAP5 PUSH1 0x0 SWAP3 PUSH2 0x11CA JUMPI JUMPDEST POP POP DUP2 PUSH1 0x1 SHL SWAP2 PUSH1 0x0 NOT SWAP1 PUSH1 0x3 SHL SHR NOT AND OR PUSH1 0x2 DUP3 ADD SSTORE JUMPDEST PUSH1 0x60 PUSH2 0x1C0 MLOAD ADD MLOAD SWAP2 DUP3 MLOAD PUSH1 0x1 PUSH1 0x1 PUSH1 0x40 SHL SUB DUP2 GT PUSH2 0xC4B JUMPI PUSH2 0x827 PUSH1 0x3 DUP5 ADD SLOAD PUSH2 0x156E JUMP JUMPDEST PUSH1 0x1F DUP2 GT PUSH2 0x1183 JUMPI JUMPDEST POP PUSH1 0x20 PUSH1 0x1F DUP3 GT PUSH1 0x1 EQ PUSH2 0x1115 JUMPI DUP2 SWAP3 SWAP4 SWAP5 PUSH1 0x0 SWAP3 PUSH2 0x110A JUMPI JUMPDEST POP POP DUP2 PUSH1 0x1 SHL SWAP2 PUSH1 0x0 NOT SWAP1 PUSH1 0x3 SHL SHR NOT AND OR PUSH1 0x3 DUP4 ADD SSTORE JUMPDEST PUSH1 0x80 PUSH2 0x1C0 MLOAD ADD MLOAD SWAP2 DUP3 MLOAD PUSH1 0x1 PUSH1 0x1 PUSH1 0x40 SHL SUB DUP2 GT PUSH2 0xDF5 JUMPI PUSH2 0x888 PUSH1 0x4 DUP4 ADD SLOAD PUSH2 0x156E JUMP JUMPDEST PUSH1 0x1F DUP2 GT PUSH2 0x10C3 JUMPI JUMPDEST POP PUSH1 0x20 PUSH1 0x1F DUP3 GT PUSH1 0x1 EQ PUSH2 0x1055 JUMPI DUP2 SWAP3 SWAP4 SWAP5 PUSH1 0x0 SWAP3 PUSH2 0x104A JUMPI JUMPDEST POP POP DUP2 PUSH1 0x1 SHL SWAP2 PUSH1 0x0 NOT SWAP1 PUSH1 0x3 SHL SHR NOT AND OR PUSH1 0x4 DUP3 ADD SSTORE JUMPDEST PUSH1 0xA0 PUSH2 0x1C0 MLOAD ADD MLOAD SWAP2 DUP3 MLOAD PUSH1 0x1 PUSH1 0x1 PUSH1 0x40 SHL SUB DUP2 GT PUSH2 0xC4B JUMPI PUSH2 0x8E9 PUSH1 0x5 DUP5 ADD SLOAD PUSH2 0x156E JUMP JUMPDEST PUSH1 0x1F DUP2 GT PUSH2 0x1003 JUMPI JUMPDEST POP PUSH1 0x20 PUSH1 0x1F DUP3 GT PUSH1 0x1 EQ PUSH2 0xF95 JUMPI DUP2 SWAP3 SWAP4 SWAP5 PUSH1 0x0 SWAP3 PUSH2 0xF8A JUMPI JUMPDEST POP POP DUP2 PUSH1 0x1 SHL SWAP2 PUSH1 0x0 NOT SWAP1 PUSH1 0x3 SHL SHR NOT AND OR PUSH1 0x5 DUP4 ADD SSTORE JUMPDEST PUSH1 0xC0 PUSH2 0x1C0 MLOAD ADD MLOAD SWAP2 DUP3 MLOAD PUSH1 0x1 PUSH1 0x1 PUSH1 0x40 SHL SUB DUP2 GT PUSH2 0xDF5 JUMPI PUSH2 0x94A PUSH1 0x6 DUP4 ADD SLOAD PUSH2 0x156E JUMP JUMPDEST PUSH1 0x1F DUP2 GT PUSH2 0xF43 JUMPI JUMPDEST POP PUSH1 0x20 PUSH1 0x1F DUP3 GT PUSH1 0x1 EQ PUSH2 0xED5 JUMPI DUP2 SWAP3 SWAP4 SWAP5 PUSH1 0x0 SWAP3 PUSH2 0xECA JUMPI JUMPDEST POP POP DUP2 PUSH1 0x1 SHL SWAP2 PUSH1 0x0 NOT SWAP1 PUSH1 0x3 SHL SHR NOT AND OR PUSH1 0x6 DUP3 ADD SSTORE JUMPDEST PUSH1 0xE0 PUSH2 0x1C0 MLOAD ADD MLOAD SWAP2 DUP3 MLOAD PUSH1 0x1 PUSH1 0x1 PUSH1 0x40 SHL SUB DUP2 GT PUSH2 0xC4B JUMPI PUSH2 0x9AB PUSH1 0x7 DUP5 ADD SLOAD PUSH2 0x156E JUMP JUMPDEST PUSH1 0x1F DUP2 GT PUSH2 0xE83 JUMPI JUMPDEST POP PUSH1 0x20 PUSH1 0x1F DUP3 GT PUSH1 0x1 EQ PUSH2 0xE15 JUMPI DUP2 SWAP3 SWAP4 SWAP5 PUSH1 0x0 SWAP3 PUSH2 0xE0A JUMPI JUMPDEST POP POP DUP2 PUSH1 0x1 SHL SWAP2 PUSH1 0x0 NOT SWAP1 PUSH1 0x3 SHL SHR NOT AND OR PUSH1 0x7 DUP4 ADD SSTORE JUMPDEST PUSH2 0x100 PUSH2 0x1C0 MLOAD ADD MLOAD SWAP2 DUP3 MLOAD PUSH1 0x1 PUSH1 0x1 PUSH1 0x40 SHL SUB DUP2 GT PUSH2 0xDF5 JUMPI PUSH2 0xA0D PUSH1 0x8 DUP4 ADD SLOAD PUSH2 0x156E JUMP JUMPDEST PUSH1 0x1F DUP2 GT PUSH2 0xDAE JUMPI JUMPDEST POP PUSH1 0x20 PUSH1 0x1F DUP3 GT PUSH1 0x1 EQ PUSH2 0xD40 JUMPI DUP2 SWAP3 SWAP4 SWAP5 PUSH1 0x0 SWAP3 PUSH2 0xD35 JUMPI JUMPDEST POP POP DUP2 PUSH1 0x1 SHL SWAP2 PUSH1 0x0 NOT SWAP1 PUSH1 0x3 SHL SHR NOT AND OR PUSH1 0x8 DUP3 ADD SSTORE JUMPDEST PUSH2 0x120 PUSH2 0x1C0 MLOAD ADD MLOAD DUP1 MLOAD SWAP1 PUSH1 0x1 PUSH1 0x1 PUSH1 0x40 SHL SUB DUP3 GT PUSH2 0xD20 JUMPI PUSH2 0xA6F PUSH1 0x9 DUP5 ADD SLOAD PUSH2 0x156E JUMP JUMPDEST PUSH1 0x1F DUP2 GT PUSH2 0xCD9 JUMPI JUMPDEST POP PUSH1 0x20 SWAP1 PUSH1 0x1F DUP4 GT PUSH1 0x1 EQ PUSH2 0xC6B JUMPI PUSH1 0x9 SWAP3 SWAP2 PUSH1 0x0 SWAP2 DUP4 PUSH2 0xC60 JUMPI JUMPDEST POP POP DUP2 PUSH1 0x1 SHL SWAP2 PUSH1 0x0 NOT SWAP1 PUSH1 0x3 SHL SHR NOT AND OR SWAP2 ADD SSTORE JUMPDEST PUSH1 0x2 SLOAD PUSH9 0x10000000000000000 DUP2 LT ISZERO PUSH2 0xC4B JUMPI DUP1 PUSH1 0x1 PUSH2 0xACE SWAP3 ADD PUSH1 0x2 SSTORE PUSH2 0x149E JUMP JUMPDEST DUP2 SLOAD SWAP1 PUSH1 0x3 SHL SWAP1 PUSH1 0x1 DUP1 PUSH1 0xA0 SHL SUB PUSH2 0x2C0 MLOAD AND DUP3 SHL SWAP2 PUSH1 0x1 DUP1 PUSH1 0xA0 SHL SUB SWAP1 SHL NOT AND OR SWAP1 SSTORE PUSH2 0x140 PUSH1 0x40 MLOAD DUP1 PUSH2 0x300 MSTORE MSTORE PUSH2 0xBF3 PUSH2 0xBD9 PUSH2 0xBC0 PUSH2 0xBA9 PUSH2 0xB91 PUSH2 0xB78 PUSH2 0xB5F PUSH2 0xB46 PUSH2 0xB2D PUSH2 0x140 PUSH2 0x300 MLOAD ADD PUSH1 0xA0 MLOAD PUSH2 0x120 MLOAD PUSH2 0x16E7 JUMP JUMPDEST PUSH2 0x300 MLOAD PUSH1 0x20 DUP2 DUP4 SUB SWAP2 ADD MSTORE PUSH2 0x2A0 MLOAD PUSH2 0x260 MLOAD PUSH2 0x16E7 JUMP JUMPDEST PUSH2 0x300 MLOAD PUSH1 0x40 DUP2 DUP4 SUB SWAP2 ADD MSTORE PUSH2 0x1A0 MLOAD PUSH2 0x200 MLOAD PUSH2 0x16E7 JUMP JUMPDEST PUSH2 0x300 MLOAD PUSH1 0x60 DUP2 DUP4 SUB SWAP2 ADD MSTORE PUSH2 0x100 MLOAD PUSH2 0x1E0 MLOAD PUSH2 0x16E7 JUMP JUMPDEST PUSH2 0x300 MLOAD PUSH1 0x80 DUP2 DUP4 SUB SWAP2 ADD MSTORE PUSH2 0x160 MLOAD PUSH2 0x220 MLOAD PUSH2 0x16E7 JUMP JUMPDEST PUSH2 0x300 MLOAD PUSH1 0xA0 DUP2 DUP4 SUB SWAP2 ADD MSTORE PUSH1 0x80 MLOAD PUSH2 0x180 MLOAD PUSH2 0x16E7 JUMP JUMPDEST PUSH2 0x300 MLOAD PUSH1 0xC0 DUP2 DUP4 SUB SWAP2 ADD MSTORE PUSH1 0xE0 MLOAD PUSH1 0xC0 MLOAD PUSH2 0x16E7 JUMP JUMPDEST PUSH2 0x300 MLOAD PUSH1 0xE0 DUP2 DUP4 SUB SWAP2 ADD MSTORE PUSH2 0x340 MLOAD PUSH2 0x240 MLOAD PUSH2 0x16E7 JUMP JUMPDEST PUSH2 0x300 MLOAD PUSH2 0x100 DUP2 DUP4 SUB SWAP2 ADD MSTORE PUSH2 0x140 MLOAD PUSH2 0x280 MLOAD PUSH2 0x16E7 JUMP JUMPDEST PUSH2 0x300 MLOAD PUSH2 0x120 DUP2 DUP4 SUB SWAP2 ADD MSTORE PUSH32 0x56C08787953B8DA2E67EC1151B0D6E7C0AACC4854BE3C2C91480717CADD9D7B3 PUSH1 0x1 DUP1 PUSH1 0xA0 SHL SUB PUSH2 0x2C0 MLOAD AND SWAP2 PUSH2 0xC43 PUSH2 0x300 MLOAD SWAP2 PUSH2 0x2E0 MLOAD PUSH2 0x320 MLOAD PUSH2 0x16E7 JUMP JUMPDEST SUB PUSH2 0x300 MLOAD LOG2 STOP JUMPDEST POP PUSH4 0x4E487B71 PUSH1 0xE0 SHL PUSH1 0x0 SWAP1 DUP2 MSTORE PUSH1 0x41 PUSH1 0x4 MSTORE REVERT JUMPDEST ADD MLOAD SWAP1 POP DUP6 DUP1 PUSH2 0xA94 JUMP JUMPDEST SWAP1 PUSH1 0x1F NOT DUP4 AND SWAP2 PUSH1 0x9 DUP6 ADD PUSH1 0x0 MSTORE PUSH1 0x20 PUSH1 0x0 KECCAK256 SWAP3 PUSH1 0x0 JUMPDEST DUP2 DUP2 LT PUSH2 0xCC1 JUMPI POP SWAP2 PUSH1 0x1 SWAP4 SWAP2 DUP6 PUSH1 0x9 SWAP7 SWAP5 LT PUSH2 0xCA8 JUMPI JUMPDEST POP POP POP DUP2 SHL ADD SWAP2 ADD SSTORE PUSH2 0xAAA JUMP JUMPDEST ADD MLOAD PUSH1 0x0 NOT PUSH1 0xF8 DUP5 PUSH1 0x3 SHL AND SHR NOT AND SWAP1 SSTORE DUP6 DUP1 DUP1 PUSH2 0xC9A JUMP JUMPDEST SWAP3 SWAP4 PUSH1 0x20 PUSH1 0x1 DUP2 SWAP3 DUP8 DUP7 ADD MLOAD DUP2 SSTORE ADD SWAP6 ADD SWAP4 ADD PUSH2 0xC82 JUMP JUMPDEST PUSH1 0x9 DUP5 ADD PUSH1 0x0 MSTORE PUSH1 0x20 PUSH1 0x0 KECCAK256 PUSH1 0x1F DUP5 ADD PUSH1 0x5 SHR DUP2 ADD PUSH1 0x20 DUP6 LT PUSH2 0xD19 JUMPI JUMPDEST PUSH1 0x1F DUP4 ADD PUSH1 0x5 SHR DUP3 ADD DUP2 LT PUSH2 0xD0D JUMPI POP POP PUSH2 0xA78 JUMP JUMPDEST PUSH1 0x0 DUP2 SSTORE PUSH1 0x1 ADD PUSH2 0xCF7 JUMP JUMPDEST POP DUP1 PUSH2 0xCF7 JUMP JUMPDEST DUP4 PUSH4 0x4E487B71 PUSH1 0xE0 SHL PUSH1 0x0 MSTORE PUSH1 0x41 PUSH1 0x4 MSTORE PUSH1 0x0 REVERT JUMPDEST ADD MLOAD SWAP1 POP DUP5 DUP1 PUSH2 0xA30 JUMP JUMPDEST PUSH1 0x8 DUP4 ADD PUSH1 0x0 MSTORE PUSH1 0x20 PUSH1 0x0 KECCAK256 SWAP1 PUSH1 0x0 JUMPDEST PUSH1 0x1F NOT DUP5 AND DUP2 LT PUSH2 0xD96 JUMPI POP PUSH1 0x1 SWAP4 SWAP5 SWAP6 DUP4 PUSH1 0x1F NOT DUP2 AND LT PUSH2 0xD7D JUMPI JUMPDEST POP POP POP DUP2 SHL ADD PUSH1 0x8 DUP3 ADD SSTORE PUSH2 0xA48 JUMP JUMPDEST ADD MLOAD PUSH1 0x0 NOT PUSH1 0xF8 DUP5 PUSH1 0x3 SHL AND SHR NOT AND SWAP1 SSTORE DUP5 DUP1 DUP1 PUSH2 0xD6D JUMP JUMPDEST SWAP1 SWAP2 PUSH1 0x20 PUSH1 0x1 DUP2 SWAP3 DUP6 DUP11 ADD MLOAD DUP2 SSTORE ADD SWAP4 ADD SWAP2 ADD PUSH2 0xD50 JUMP JUMPDEST PUSH1 0x8 DUP4 ADD PUSH1 0x0 MSTORE PUSH1 0x20 PUSH1 0x0 KECCAK256 PUSH1 0x1F DUP4 ADD PUSH1 0x5 SHR DUP2 ADD PUSH1 0x20 DUP5 LT PUSH2 0xDEE JUMPI JUMPDEST PUSH1 0x1F DUP4 ADD PUSH1 0x5 SHR DUP3 ADD DUP2 LT PUSH2 0xDE2 JUMPI POP POP PUSH2 0xA16 JUMP JUMPDEST PUSH1 0x0 DUP2 SSTORE PUSH1 0x1 ADD PUSH2 0xDCC JUMP JUMPDEST POP DUP1 PUSH2 0xDCC JUMP JUMPDEST DUP3 PUSH4 0x4E487B71 PUSH1 0xE0 SHL PUSH1 0x0 MSTORE PUSH1 0x41 PUSH1 0x4 MSTORE PUSH1 0x0 REVERT JUMPDEST ADD MLOAD SWAP1 POP DUP5 DUP1 PUSH2 0x9CE JUMP JUMPDEST PUSH1 0x7 DUP5 ADD PUSH1 0x0 MSTORE PUSH1 0x20 PUSH1 0x0 KECCAK256 SWAP1 PUSH1 0x0 JUMPDEST PUSH1 0x1F NOT DUP5 AND DUP2 LT PUSH2 0xE6B JUMPI POP PUSH1 0x1 SWAP4 SWAP5 SWAP6 DUP4 PUSH1 0x1F NOT DUP2 AND LT PUSH2 0xE52 JUMPI JUMPDEST POP POP POP DUP2 SHL ADD PUSH1 0x7 DUP4 ADD SSTORE PUSH2 0x9E6 JUMP JUMPDEST ADD MLOAD PUSH1 0x0 NOT PUSH1 0xF8 DUP5 PUSH1 0x3 SHL AND SHR NOT AND SWAP1 SSTORE DUP5 DUP1 DUP1 PUSH2 0xE42 JUMP JUMPDEST SWAP1 SWAP2 PUSH1 0x20 PUSH1 0x1 DUP2 SWAP3 DUP6 DUP11 ADD MLOAD DUP2 SSTORE ADD SWAP4 ADD SWAP2 ADD PUSH2 0xE25 JUMP JUMPDEST PUSH1 0x7 DUP5 ADD PUSH1 0x0 MSTORE PUSH1 0x20 PUSH1 0x0 KECCAK256 PUSH1 0x1F DUP4 ADD PUSH1 0x5 SHR DUP2 ADD PUSH1 0x20 DUP5 LT PUSH2 0xEC3 JUMPI JUMPDEST PUSH1 0x1F DUP4 ADD PUSH1 0x5 SHR DUP3 ADD DUP2 LT PUSH2 0xEB7 JUMPI POP POP PUSH2 0x9B4 JUMP JUMPDEST PUSH1 0x0 DUP2 SSTORE PUSH1 0x1 ADD PUSH2 0xEA1 JUMP JUMPDEST POP DUP1 PUSH2 0xEA1 JUMP JUMPDEST ADD MLOAD SWAP1 POP DUP5 DUP1 PUSH2 0x96D JUMP JUMPDEST PUSH1 0x6 DUP4 ADD PUSH1 0x0 MSTORE PUSH1 0x20 PUSH1 0x0 KECCAK256 SWAP1 PUSH1 0x0 JUMPDEST PUSH1 0x1F NOT DUP5 AND DUP2 LT PUSH2 0xF2B JUMPI POP PUSH1 0x1 SWAP4 SWAP5 SWAP6 DUP4 PUSH1 0x1F NOT DUP2 AND LT PUSH2 0xF12 JUMPI JUMPDEST POP POP POP DUP2 SHL ADD PUSH1 0x6 DUP3 ADD SSTORE PUSH2 0x985 JUMP JUMPDEST ADD MLOAD PUSH1 0x0 NOT PUSH1 0xF8 DUP5 PUSH1 0x3 SHL AND SHR NOT AND SWAP1 SSTORE DUP5 DUP1 DUP1 PUSH2 0xF02 JUMP JUMPDEST SWAP1 SWAP2 PUSH1 0x20 PUSH1 0x1 DUP2 SWAP3 DUP6 DUP11 ADD MLOAD DUP2 SSTORE ADD SWAP4 ADD SWAP2 ADD PUSH2 0xEE5 JUMP JUMPDEST PUSH1 0x6 DUP4 ADD PUSH1 0x0 MSTORE PUSH1 0x20 PUSH1 0x0 KECCAK256 PUSH1 0x1F DUP4 ADD PUSH1 0x5 SHR DUP2 ADD PUSH1 0x20 DUP5 LT PUSH2 0xF83 JUMPI JUMPDEST PUSH1 0x1F DUP4 ADD PUSH1 0x5 SHR DUP3 ADD DUP2 LT PUSH2 0xF77 JUMPI POP POP PUSH2 0x953 JUMP JUMPDEST PUSH1 0x0 DUP2 SSTORE PUSH1 0x1 ADD PUSH2 0xF61 JUMP JUMPDEST POP DUP1 PUSH2 0xF61 JUMP JUMPDEST ADD MLOAD SWAP1 POP DUP5 DUP1 PUSH2 0x90C JUMP JUMPDEST PUSH1 0x5 DUP5 ADD PUSH1 0x0 MSTORE PUSH1 0x20 PUSH1 0x0 KECCAK256 SWAP1 PUSH1 0x0 JUMPDEST PUSH1 0x1F NOT DUP5 AND DUP2 LT PUSH2 0xFEB JUMPI POP PUSH1 0x1 SWAP4 SWAP5 SWAP6 DUP4 PUSH1 0x1F NOT DUP2 AND LT PUSH2 0xFD2 JUMPI JUMPDEST POP POP POP DUP2 SHL ADD PUSH1 0x5 DUP4 ADD SSTORE PUSH2 0x924 JUMP JUMPDEST ADD MLOAD PUSH1 0x0 NOT PUSH1 0xF8 DUP5 PUSH1 0x3 SHL AND SHR NOT AND SWAP1 SSTORE DUP5 DUP1 DUP1 PUSH2 0xFC2 JUMP JUMPDEST SWAP1 SWAP2 PUSH1 0x20 PUSH1 0x1 DUP2 SWAP3 DUP6 DUP11 ADD MLOAD DUP2 SSTORE ADD SWAP4 ADD SWAP2 ADD PUSH2 0xFA5 JUMP JUMPDEST PUSH1 0x5 DUP5 ADD PUSH1 0x0 MSTORE PUSH1 0x20 PUSH1 0x0 KECCAK256 PUSH1 0x1F DUP4 ADD PUSH1 0x5 SHR DUP2 ADD PUSH1 0x20 DUP5 LT PUSH2 0x1043 JUMPI JUMPDEST PUSH1 0x1F DUP4 ADD PUSH1 0x5 SHR DUP3 ADD DUP2 LT PUSH2 0x1037 JUMPI POP POP PUSH2 0x8F2 JUMP JUMPDEST PUSH1 0x0 DUP2 SSTORE PUSH1 0x1 ADD PUSH2 0x1021 JUMP JUMPDEST POP DUP1 PUSH2 0x1021 JUMP JUMPDEST ADD MLOAD SWAP1 POP DUP5 DUP1 PUSH2 0x8AB JUMP JUMPDEST PUSH1 0x4 DUP4 ADD PUSH1 0x0 MSTORE PUSH1 0x20 PUSH1 0x0 KECCAK256 SWAP1 PUSH1 0x0 JUMPDEST PUSH1 0x1F NOT DUP5 AND DUP2 LT PUSH2 0x10AB JUMPI POP PUSH1 0x1 SWAP4 SWAP5 SWAP6 DUP4 PUSH1 0x1F NOT DUP2 AND LT PUSH2 0x1092 JUMPI JUMPDEST POP POP POP DUP2 SHL ADD PUSH1 0x4 DUP3 ADD SSTORE PUSH2 0x8C3 JUMP JUMPDEST ADD MLOAD PUSH1 0x0 NOT PUSH1 0xF8 DUP5 PUSH1 0x3 SHL AND SHR NOT AND SWAP1 SSTORE DUP5 DUP1 DUP1 PUSH2 0x1082 JUMP JUMPDEST SWAP1 SWAP2 PUSH1 0x20 PUSH1 0x1 DUP2 SWAP3 DUP6 DUP11 ADD MLOAD DUP2 SSTORE ADD SWAP4 ADD SWAP2 ADD PUSH2 0x1065 JUMP JUMPDEST PUSH1 0x4 DUP4 ADD PUSH1 0x0 MSTORE PUSH1 0x20 PUSH1 0x0 KECCAK256 PUSH1 0x1F DUP4 ADD PUSH1 0x5 SHR DUP2 ADD PUSH1 0x20 DUP5 LT PUSH2 0x1103 JUMPI JUMPDEST PUSH1 0x1F DUP4 ADD PUSH1 0x5 SHR DUP3 ADD DUP2 LT PUSH2 0x10F7 JUMPI POP POP PUSH2 0x891 JUMP JUMPDEST PUSH1 0x0 DUP2 SSTORE PUSH1 0x1 ADD PUSH2 0x10E1 JUMP JUMPDEST POP DUP1 PUSH2 0x10E1 JUMP JUMPDEST ADD MLOAD SWAP1 POP DUP5 DUP1 PUSH2 0x84A JUMP JUMPDEST PUSH1 0x3 DUP5 ADD PUSH1 0x0 MSTORE PUSH1 0x20 PUSH1 0x0 KECCAK256 SWAP1 PUSH1 0x0 JUMPDEST PUSH1 0x1F NOT DUP5 AND DUP2 LT PUSH2 0x116B JUMPI POP PUSH1 0x1 SWAP4 SWAP5 SWAP6 DUP4 PUSH1 0x1F NOT DUP2 AND LT PUSH2 0x1152 JUMPI JUMPDEST POP POP POP DUP2 SHL ADD PUSH1 0x3 DUP4 ADD SSTORE PUSH2 0x862 JUMP JUMPDEST ADD MLOAD PUSH1 0x0 NOT PUSH1 0xF8 DUP5 PUSH1 0x3 SHL AND SHR NOT AND SWAP1 SSTORE DUP5 DUP1 DUP1 PUSH2 0x1142 JUMP JUMPDEST SWAP1 SWAP2 PUSH1 0x20 PUSH1 0x1 DUP2 SWAP3 DUP6 DUP11 ADD MLOAD DUP2 SSTORE ADD SWAP4 ADD SWAP2 ADD PUSH2 0x1125 JUMP JUMPDEST PUSH1 0x3 DUP5 ADD PUSH1 0x0 MSTORE PUSH1 0x20 PUSH1 0x0 KECCAK256 PUSH1 0x1F DUP4 ADD PUSH1 0x5 SHR DUP2 ADD PUSH1 0x20 DUP5 LT PUSH2 0x11C3 JUMPI JUMPDEST PUSH1 0x1F DUP4 ADD PUSH1 0x5 SHR DUP3 ADD DUP2 LT PUSH2 0x11B7 JUMPI POP POP PUSH2 0x830 JUMP JUMPDEST PUSH1 0x0 DUP2 SSTORE PUSH1 0x1 ADD PUSH2 0x11A1 JUMP JUMPDEST POP DUP1 PUSH2 0x11A1 JUMP JUMPDEST ADD MLOAD SWAP1 POP DUP5 DUP1 PUSH2 0x7E9 JUMP JUMPDEST PUSH1 0x2 DUP4 ADD PUSH1 0x0 MSTORE PUSH1 0x20 PUSH1 0x0 KECCAK256 SWAP1 PUSH1 0x0 JUMPDEST PUSH1 0x1F NOT DUP5 AND DUP2 LT PUSH2 0x122B JUMPI POP PUSH1 0x1 SWAP4 SWAP5 SWAP6 DUP4 PUSH1 0x1F NOT DUP2 AND LT PUSH2 0x1212 JUMPI JUMPDEST POP POP POP DUP2 SHL ADD PUSH1 0x2 DUP3 ADD SSTORE PUSH2 0x801 JUMP JUMPDEST ADD MLOAD PUSH1 0x0 NOT PUSH1 0xF8 DUP5 PUSH1 0x3 SHL AND SHR NOT AND SWAP1 SSTORE DUP5 DUP1 DUP1 PUSH2 0x1202 JUMP JUMPDEST SWAP1 SWAP2 PUSH1 0x20 PUSH1 0x1 DUP2 SWAP3 DUP6 DUP11 ADD MLOAD DUP2 SSTORE ADD SWAP4 ADD SWAP2 ADD PUSH2 0x11E5 JUMP JUMPDEST PUSH1 0x2 DUP4 ADD PUSH1 0x0 MSTORE PUSH1 0x20 PUSH1 0x0 KECCAK256 PUSH1 0x1F DUP4 ADD PUSH1 0x5 SHR DUP2 ADD PUSH1 0x20 DUP5 LT PUSH2 0x1283 JUMPI JUMPDEST PUSH1 0x1F DUP4 ADD PUSH1 0x5 SHR DUP3 ADD DUP2 LT PUSH2 0x1277 JUMPI POP POP PUSH2 0x7CF JUMP JUMPDEST PUSH1 0x0 DUP2 SSTORE PUSH1 0x1 ADD PUSH2 0x1261 JUMP JUMPDEST POP DUP1 PUSH2 0x1261 JUMP JUMPDEST ADD MLOAD SWAP1 POP DUP5 DUP1 PUSH2 0x788 JUMP JUMPDEST PUSH1 0x1 DUP5 ADD PUSH1 0x0 MSTORE PUSH1 0x20 PUSH1 0x0 KECCAK256 SWAP1 PUSH1 0x0 JUMPDEST PUSH1 0x1F NOT DUP5 AND DUP2 LT PUSH2 0x12EB JUMPI POP PUSH1 0x1 SWAP4 SWAP5 SWAP6 DUP4 PUSH1 0x1F NOT DUP2 AND LT PUSH2 0x12D2 JUMPI JUMPDEST POP POP POP DUP2 SHL ADD PUSH1 0x1 DUP4 ADD SSTORE PUSH2 0x7A0 JUMP JUMPDEST ADD MLOAD PUSH1 0x0 NOT PUSH1 0xF8 DUP5 PUSH1 0x3 SHL AND SHR NOT AND SWAP1 SSTORE DUP5 DUP1 DUP1 PUSH2 0x12C2 JUMP JUMPDEST SWAP1 SWAP2 PUSH1 0x20 PUSH1 0x1 DUP2 SWAP3 DUP6 DUP11 ADD MLOAD DUP2 SSTORE ADD SWAP4 ADD SWAP2 ADD PUSH2 0x12A5 JUMP JUMPDEST PUSH1 0x1 DUP5 ADD PUSH1 0x0 MSTORE PUSH1 0x20 PUSH1 0x0 KECCAK256 PUSH1 0x1F DUP4 ADD PUSH1 0x5 SHR DUP2 ADD PUSH1 0x20 DUP5 LT PUSH2 0x1343 JUMPI JUMPDEST PUSH1 0x1F DUP4 ADD PUSH1 0x5 SHR DUP3 ADD DUP2 LT PUSH2 0x1337 JUMPI POP POP PUSH2 0x76E JUMP JUMPDEST PUSH1 0x0 DUP2 SSTORE PUSH1 0x1 ADD PUSH2 0x1321 JUMP JUMPDEST POP DUP1 PUSH2 0x1321 JUMP JUMPDEST ADD MLOAD SWAP1 POP DUP5 DUP1 PUSH2 0x72A JUMP JUMPDEST DUP3 PUSH1 0x0 MSTORE PUSH1 0x20 PUSH1 0x0 KECCAK256 SWAP1 PUSH1 0x0 JUMPDEST PUSH1 0x1F NOT DUP5 AND DUP2 LT PUSH2 0x13A5 JUMPI POP PUSH1 0x1 SWAP4 SWAP5 SWAP6 DUP4 PUSH1 0x1F NOT DUP2 AND LT PUSH2 0x138C JUMPI JUMPDEST POP POP POP DUP2 SHL ADD DUP2 SSTORE PUSH2 0x73F JUMP JUMPDEST ADD MLOAD PUSH1 0x0 NOT PUSH1 0xF8 DUP5 PUSH1 0x3 SHL AND SHR NOT AND SWAP1 SSTORE DUP5 DUP1 DUP1 PUSH2 0x137F JUMP JUMPDEST SWAP1 SWAP2 PUSH1 0x20 PUSH1 0x1 DUP2 SWAP3 DUP6 DUP11 ADD MLOAD DUP2 SSTORE ADD SWAP4 ADD SWAP2 ADD PUSH2 0x1362 JUMP JUMPDEST DUP3 PUSH1 0x0 MSTORE PUSH1 0x20 PUSH1 0x0 KECCAK256 PUSH1 0x1F DUP4 ADD PUSH1 0x5 SHR DUP2 ADD PUSH1 0x20 DUP5 LT PUSH2 0x13FA JUMPI JUMPDEST PUSH1 0x1F DUP4 ADD PUSH1 0x5 SHR DUP3 ADD DUP2 LT PUSH2 0x13EE JUMPI POP POP PUSH2 0x710 JUMP JUMPDEST PUSH1 0x0 DUP2 SSTORE PUSH1 0x1 ADD PUSH2 0x13D8 JUMP JUMPDEST POP DUP1 PUSH2 0x13D8 JUMP JUMPDEST PUSH1 0x64 SWAP1 PUSH1 0xB PUSH1 0x40 MLOAD SWAP2 PUSH3 0x461BCD PUSH1 0xE5 SHL DUP4 MSTORE PUSH1 0x20 PUSH1 0x4 DUP5 ADD MSTORE DUP3 ADD MSTORE PUSH11 0x139BDD081CDD195DD85C99 PUSH1 0xAA SHL PUSH1 0x44 DUP3 ADD MSTORE REVERT JUMPDEST CALLVALUE PUSH2 0x1BF JUMPI PUSH1 0x0 CALLDATASIZE PUSH1 0x3 NOT ADD SLT PUSH2 0x1BF JUMPI PUSH1 0x0 SLOAD PUSH1 0x40 MLOAD PUSH1 0x1 PUSH1 0x1 PUSH1 0xA0 SHL SUB SWAP1 SWAP2 AND DUP2 MSTORE PUSH1 0x20 SWAP1 RETURN JUMPDEST CALLVALUE PUSH2 0x1BF JUMPI PUSH1 0x20 CALLDATASIZE PUSH1 0x3 NOT ADD SLT PUSH2 0x1BF JUMPI PUSH1 0x4 CALLDATALOAD PUSH1 0x2 SLOAD DUP2 LT ISZERO PUSH2 0x1BF JUMPI PUSH2 0x1485 PUSH1 0x20 SWAP2 PUSH2 0x149E JUMP JUMPDEST SWAP1 SLOAD PUSH1 0x40 MLOAD PUSH1 0x3 SWAP3 SWAP1 SWAP3 SHL SHR PUSH1 0x1 PUSH1 0x1 PUSH1 0xA0 SHL SUB AND DUP2 MSTORE RETURN JUMPDEST PUSH1 0x2 SLOAD DUP2 LT ISZERO PUSH2 0x14D5 JUMPI PUSH1 0x2 PUSH1 0x0 MSTORE PUSH32 0x405787FA12A823E0F2B7631CC41B3BA8828B3321CA811111FA75CD3AA3BB5ACE ADD SWAP1 PUSH1 0x0 SWAP1 JUMP JUMPDEST PUSH4 0x4E487B71 PUSH1 0xE0 SHL PUSH1 0x0 MSTORE PUSH1 0x32 PUSH1 0x4 MSTORE PUSH1 0x24 PUSH1 0x0 REVERT JUMPDEST PUSH1 0x4 CALLDATALOAD SWAP1 PUSH1 0x1 PUSH1 0x1 PUSH1 0xA0 SHL SUB DUP3 AND DUP3 SUB PUSH2 0x1BF JUMPI JUMP JUMPDEST SWAP2 DUP2 PUSH1 0x1F DUP5 ADD SLT ISZERO PUSH2 0x1BF JUMPI DUP3 CALLDATALOAD SWAP2 PUSH1 0x1 PUSH1 0x1 PUSH1 0x40 SHL SUB DUP4 GT PUSH2 0x1BF JUMPI PUSH1 0x20 DUP4 DUP2 DUP7 ADD SWAP6 ADD ADD GT PUSH2 0x1BF JUMPI JUMP JUMPDEST SWAP2 SWAP1 DUP3 MLOAD SWAP3 DUP4 DUP3 MSTORE PUSH1 0x0 JUMPDEST DUP5 DUP2 LT PUSH2 0x155A JUMPI POP POP DUP3 PUSH1 0x0 PUSH1 0x20 DUP1 SWAP5 SWAP6 DUP5 ADD ADD MSTORE PUSH1 0x1F DUP1 NOT SWAP2 ADD AND ADD ADD SWAP1 JUMP JUMPDEST PUSH1 0x20 DUP2 DUP4 ADD DUP2 ADD MLOAD DUP5 DUP4 ADD DUP3 ADD MSTORE ADD PUSH2 0x1539 JUMP JUMPDEST SWAP1 PUSH1 0x1 DUP3 DUP2 SHR SWAP3 AND DUP1 ISZERO PUSH2 0x159E JUMPI JUMPDEST PUSH1 0x20 DUP4 LT EQ PUSH2 0x1588 JUMPI JUMP JUMPDEST PUSH4 0x4E487B71 PUSH1 0xE0 SHL PUSH1 0x0 MSTORE PUSH1 0x22 PUSH1 0x4 MSTORE PUSH1 0x24 PUSH1 0x0 REVERT JUMPDEST SWAP2 PUSH1 0x7F AND SWAP2 PUSH2 0x157D JUMP JUMPDEST PUSH2 0x140 DUP2 ADD SWAP1 DUP2 LT PUSH1 0x1 PUSH1 0x1 PUSH1 0x40 SHL SUB DUP3 GT OR PUSH2 0x15C4 JUMPI PUSH1 0x40 MSTORE JUMP JUMPDEST PUSH4 0x4E487B71 PUSH1 0xE0 SHL PUSH1 0x0 MSTORE PUSH1 0x41 PUSH1 0x4 MSTORE PUSH1 0x24 PUSH1 0x0 REVERT JUMPDEST SWAP1 PUSH1 0x1F DUP1 NOT SWAP2 ADD AND DUP2 ADD SWAP1 DUP2 LT PUSH1 0x1 PUSH1 0x1 PUSH1 0x40 SHL SUB DUP3 GT OR PUSH2 0x15C4 JUMPI PUSH1 0x40 MSTORE JUMP JUMPDEST SWAP1 PUSH1 0x40 MLOAD SWAP2 DUP3 PUSH1 0x0 DUP3 SLOAD SWAP3 PUSH2 0x160F DUP5 PUSH2 0x156E JUMP JUMPDEST SWAP1 DUP2 DUP5 MSTORE PUSH1 0x1 SWAP5 DUP6 DUP2 AND SWAP1 DUP2 PUSH1 0x0 EQ PUSH2 0x167E JUMPI POP PUSH1 0x1 EQ PUSH2 0x163B JUMPI JUMPDEST POP POP PUSH2 0x1639 SWAP3 POP SUB DUP4 PUSH2 0x15DA JUMP JUMPDEST JUMP JUMPDEST SWAP1 SWAP4 SWAP2 POP PUSH1 0x0 MSTORE PUSH1 0x20 SWAP1 DUP2 PUSH1 0x0 KECCAK256 SWAP4 PUSH1 0x0 SWAP2 JUMPDEST DUP2 DUP4 LT PUSH2 0x1666 JUMPI POP POP PUSH2 0x1639 SWAP4 POP DUP3 ADD ADD CODESIZE DUP1 PUSH2 0x162B JUMP JUMPDEST DUP6 SLOAD DUP9 DUP5 ADD DUP6 ADD MSTORE SWAP5 DUP6 ADD SWAP5 DUP8 SWAP5 POP SWAP2 DUP4 ADD SWAP2 PUSH2 0x164E JUMP JUMPDEST SWAP2 POP POP PUSH2 0x1639 SWAP5 POP PUSH1 0x20 SWAP3 POP PUSH1 0xFF NOT AND DUP3 DUP5 ADD MSTORE ISZERO ISZERO PUSH1 0x5 SHL DUP3 ADD ADD CODESIZE DUP1 PUSH2 0x162B JUMP JUMPDEST SWAP3 SWAP2 SWAP3 PUSH1 0x1 PUSH1 0x1 PUSH1 0x40 SHL SUB DUP3 GT PUSH2 0x15C4 JUMPI PUSH1 0x40 MLOAD SWAP2 PUSH2 0x16CA PUSH1 0x1F DUP3 ADD PUSH1 0x1F NOT AND PUSH1 0x20 ADD DUP5 PUSH2 0x15DA JUMP JUMPDEST DUP3 SWAP5 DUP2 DUP5 MSTORE DUP2 DUP4 ADD GT PUSH2 0x1BF JUMPI DUP3 DUP2 PUSH1 0x20 SWAP4 DUP5 PUSH1 0x0 SWAP7 ADD CALLDATACOPY ADD ADD MSTORE JUMP JUMPDEST SWAP1 DUP1 PUSH1 0x20 SWAP4 SWAP3 DUP2 DUP5 MSTORE DUP5 DUP5 ADD CALLDATACOPY PUSH1 0x0 DUP3 DUP3 ADD DUP5 ADD MSTORE PUSH1 0x1F ADD PUSH1 0x1F NOT AND ADD ADD SWAP1 JUMP INVALID LOG2 PUSH5 0x6970667358 0x22 SLT KECCAK256 0xBA SWAP11 0xB2 MUL DUP8 CODESIZE SDIV 0x4B PUSH20 0x6F7CD6CA577FF2481F2EE3C0DF6EA509C64764E3 PUSH15 0x714264736F6C634300081400330000 "},"methodIdentifiers":{"daemons(address)":"7eb6dc2b","getDaemon(address)":"6be43623","keys(uint256)":"0cb6aaf1","steward()":"637eea19","summonDaemon(address,string,string,string,string,string,string,string,string,string,string)":"6538e102","totalDaemons()":"74bd63fa"}}}}}