{"contracts/registry/CompanionSummonerXXI.sol":{"CompanionSummonerXXI":{"abi":[{"inputs":[],"stateMutability":"nonpayable","type":"constructor"},{"anonymous":false,"inputs":[{"indexed":true,"internalType":"address","name":"companion","type":"address"},{"indexed":false,"internalType":"string","name":"name","type":"string"},{"indexed":false,"internalType":"string","name":"trait","type":"string"},{"indexed":false,"internalType":"string","name":"drift","type":"string"},{"indexed":false,"internalType":"string","name":"resonance","type":"string"},{"indexed":false,"internalType":"string","name":"codexRef","type":"string"},{"indexed":false,"internalType":"string","name":"signature","type":"string"},{"indexed":false,"internalType":"string","name":"sanctum","type":"string"},{"indexed":false,"internalType":"string","name":"chant","type":"string"},{"indexed":false,"internalType":"string","name":"choreography","type":"string"},{"indexed":false,"internalType":"string","name":"signal","type":"string"},{"indexed":false,"internalType":"string","name":"stewardName","type":"string"},{"indexed":false,"internalType":"string","name":"registry","type":"string"},{"indexed":false,"internalType":"string","name":"hum","type":"string"},{"indexed":false,"internalType":"string","name":"driftType","type":"string"},{"indexed":false,"internalType":"string","name":"companionType","type":"string"},{"indexed":false,"internalType":"string","name":"pulseType","type":"string"},{"indexed":false,"internalType":"string","name":"companionSignal","type":"string"},{"indexed":false,"internalType":"string","name":"pulseSignal","type":"string"}],"name":"CompanionSummoned","type":"event"},{"inputs":[{"internalType":"address","name":"","type":"address"}],"name":"companions","outputs":[{"internalType":"string","name":"name","type":"string"},{"internalType":"string","name":"trait","type":"string"},{"internalType":"string","name":"drift","type":"string"},{"internalType":"string","name":"resonance","type":"string"},{"internalType":"string","name":"codexRef","type":"string"},{"internalType":"string","name":"signature","type":"string"},{"internalType":"string","name":"sanctum","type":"string"},{"internalType":"string","name":"chant","type":"string"},{"internalType":"string","name":"choreography","type":"string"},{"internalType":"string","name":"signal","type":"string"},{"internalType":"string","name":"stewardName","type":"string"},{"internalType":"string","name":"registry","type":"string"},{"internalType":"string","name":"hum","type":"string"},{"internalType":"string","name":"driftType","type":"string"},{"internalType":"string","name":"companionType","type":"string"},{"internalType":"string","name":"pulseType","type":"string"},{"internalType":"string","name":"companionSignal","type":"string"},{"internalType":"string","name":"pulseSignal","type":"string"}],"stateMutability":"view","type":"function"},{"inputs":[{"internalType":"address","name":"companion","type":"address"}],"name":"getCompanion","outputs":[{"components":[{"internalType":"string","name":"name","type":"string"},{"internalType":"string","name":"trait","type":"string"},{"internalType":"string","name":"drift","type":"string"},{"internalType":"string","name":"resonance","type":"string"},{"internalType":"string","name":"codexRef","type":"string"},{"internalType":"string","name":"signature","type":"string"},{"internalType":"string","name":"sanctum","type":"string"},{"internalType":"string","name":"chant","type":"string"},{"internalType":"string","name":"choreography","type":"string"},{"internalType":"string","name":"signal","type":"string"},{"internalType":"string","name":"stewardName","type":"string"},{"internalType":"string","name":"registry","type":"string"},{"internalType":"string","name":"hum","type":"string"},{"internalType":"string","name":"driftType","type":"string"},{"internalType":"string","name":"companionType","type":"string"},{"internalType":"string","name":"pulseType","type":"string"},{"internalType":"string","name":"companionSignal","type":"string"},{"internalType":"string","name":"pulseSignal","type":"string"}],"internalType":"struct CompanionSummonerXXI.Companion","name":"","type":"tuple"}],"stateMutability":"view","type":"function"},{"inputs":[{"internalType":"uint256","name":"","type":"uint256"}],"name":"keys","outputs":[{"internalType":"address","name":"","type":"address"}],"stateMutability":"view","type":"function"},{"inputs":[],"name":"steward","outputs":[{"internalType":"address","name":"","type":"address"}],"stateMutability":"view","type":"function"},{"inputs":[{"internalType":"address","name":"companion","type":"address"},{"internalType":"string","name":"name","type":"string"},{"internalType":"string","name":"trait","type":"string"},{"internalType":"string","name":"drift","type":"string"},{"internalType":"string","name":"resonance","type":"string"},{"internalType":"string","name":"codexRef","type":"string"},{"internalType":"string","name":"signature","type":"string"},{"internalType":"string","name":"sanctum","type":"string"},{"internalType":"string","name":"chant","type":"string"},{"internalType":"string","name":"choreography","type":"string"},{"internalType":"string","name":"signal","type":"string"},{"internalType":"string","name":"stewardName","type":"string"},{"internalType":"string","name":"registry","type":"string"},{"internalType":"string","name":"hum","type":"string"},{"internalType":"string","name":"driftType","type":"string"},{"internalType":"string","name":"companionType","type":"string"},{"internalType":"string","name":"pulseType","type":"string"},{"internalType":"string","name":"companionSignal","type":"string"},{"internalType":"string","name":"pulseSignal","type":"string"}],"name":"summonCompanion","outputs":[],"stateMutability":"nonpayable","type":"function"},{"inputs":[],"name":"totalCompanions","outputs":[{"internalType":"uint256","name":"","type":"uint256"}],"stateMutability":"view","type":"function"}],"evm":{"bytecode":{"linkReferences":{},"object":"6080806040523461002857600080546001600160a01b031916331790556126db908161002e8239f35b600080fdfe610600604052600436101561001357600080fd5b60003560e01c80630cb6aaf11461240f57806347854b8714612149578063637eea1914612120578063ec39f18f14612102578063eeb56334146104385763ef6527371461005f57600080fd5b346104335760203660031901126104335761007861249e565b6060610220604051610089816124ee565b82815282602082015282604082015282808201528260808201528260a08201528260c08201528260e08201528261010082015282610120820152826101408201528261016082015282610180820152826101a0820152826101c0820152826101e082015282610200820152015260018060a01b03166000526001602052610342604060002061024a601160405192610120846124ee565b6101298161252b565b84526101376001820161252b565b60208501526101486002820161252b565b60408501526101596003820161252b565b606085015261016a6004820161252b565b608085015261017b6005820161252b565b60a085015261018c6006820161252b565b60c085015261019d6007820161252b565b60e08501526101ae6008820161252b565b6101008501526101c06009820161252b565b6101208501526101d2600a820161252b565b6101408501526101e4600b820161252b565b6101608501526101f6600c820161252b565b610180850152610208600d820161252b565b6101a085015261021a600e820161252b565b6101c085015261022c600f820161252b565b6101e085015261023e6010820161252b565b6102008501520161252b565b61022082015261042f8161022061041a6104046103ec6103d46103bc6103a461038c61037461035c6040519d8e9d8e6020815260e061032c6103176103016102eb6102d56102bf6102a9895161024060208b01526102608a01906125d1565b60208a0151898203601f190160408b01526125d1565b6040890151888203601f190160608a01526125d1565b6060880151878203601f190160808901526125d1565b6080870151868203601f190160a08801526125d1565b60a0860151858203601f190160c08701526125d1565b60c0850151848203601f1901848601526125d1565b92015190610100601f19828503019101526125d1565b8d6101008d015190610120601f19828503019101526125d1565b6101208b01518d8203601f19016101408f01526125d1565b6101408a01518c8203601f19016101608e01526125d1565b6101608901518b8203601f19016101808d01526125d1565b6101808801518a8203601f19016101a08c01526125d1565b6101a0870151898203601f19016101c08b01526125d1565b6101c0860151888203601f19016101e08a01526125d1565b6101e0850151878203601f19016102008901526125d1565b610200840151868203601f1901848801526125d1565b910151838203601f19016102408501526125d1565b0390f35b600080fd5b34610433576102603660031901126104335761045261249e565b6105c0526024356001600160401b03811161043357610475903690600401612611565b6103e052610200526044356001600160401b0381116104335761049c903690600401612611565b6104c0526102e0526064356001600160401b038111610433576104c3903690600401612611565b61034052610520526084356001600160401b038111610433576104ea903690600401612611565b610380526103605260a4356001600160401b03811161043357610511903690600401612611565b6101e052610560526001600160401b0360c43511610433576105383660c435600401612611565b610420526105405260e4356001600160401b0381116104335761055f903690600401612611565b6101605261058052610104356001600160401b03811161043357610587903690600401612611565b6101c05260a0526001600160401b036101243511610433576105af3661012435600401612611565b61022052610300526001600160401b036101443511610433576105d83661014435600401612611565b61048052610140526001600160401b036101643511610433576106013661016435600401612611565b6104405261050052610184356001600160401b03811161043357610629903690600401612611565b610240526105e0526101a4356001600160401b03811161043357610651903690600401612611565b6105a0526102c0526101c4356001600160401b03811161043357610679903690600401612611565b61046052610400526101e4356001600160401b038111610433576106a1903690600401612611565b6103205261026052610204356001600160401b038111610433576106c9903690600401612611565b6102a052608052610224356001600160401b038111610433576106f0903690600401612611565b6101805261010052610244356001600160401b03811161043357610718903690600401612611565b6101a05260e0526000546001600160a01b031633036120cf57610741604051806103c0526124ee565b610752366103e0516102005161263e565b6103c05152610768366104c0516102e05161263e565b60206103c051015261078136610340516105205161263e565b60406103c051015261079a36610380516103605161263e565b60606103c05101526107b3366101e0516105605161263e565b60806103c05101526107cc36610420516105405161263e565b60a06103c05101526107e536610160516105805161263e565b60c06103c05101526107fd366101c05160a05161263e565b60e06103c051015261081636610220516103005161263e565b6101006103c051015261083036610480516101405161263e565b6101206103c051015261084a36610440516105005161263e565b6101406103c051015261086436610240516105e05161263e565b6101606103c051015261087e366105a0516102c05161263e565b6101806103c051015261089836610460516104005161263e565b6101a06103c05101526108b236610320516102605161263e565b6101c06103c05101526108cb366102a05160805161263e565b6101e06103c05101526108e536610180516101005161263e565b6102006103c05101526108fe366101a05160e05161263e565b6102206103c051015260018060a01b036105c05116600052600160205260406000206103c051519081516001600160401b03811161126b5761094082546124b4565b601f811161208b575b506020601f82116001146120265781929360009261201b575b50508160011b916000199060031b1c19161781555b60206103c05101519081516001600160401b03811161126b5761099d60018301546124b4565b601f8111611fd4575b506020601f8211600114611f6957819293600092611f5e575b50508160011b916000199060031b1c19161760018201555b60406103c05101519081516001600160401b03811161126b576109fd60028301546124b4565b601f8111611f17575b506020601f8211600114611eac57819293600092611ea1575b50508160011b916000199060031b1c19161760028201555b60606103c05101518051906001600160401b03821161126b578190610a5f60038501546124b4565b601f8111611e4e575b50602090601f8311600114611ddc57600092611dd1575b50508160011b916000199060031b1c19161760038201555b60806103c05101518051906001600160401b03821161126b578190610abf60048501546124b4565b601f8111611d7e575b50602090601f8311600114611d0c57600092611d01575b50508160011b916000199060031b1c19161760048201555b60a06103c05101518051906001600160401b03821161126b578190610b1f60058501546124b4565b601f8111611cae575b50602090601f8311600114611c3c57600092611c31575b50508160011b916000199060031b1c19161760058201555b60c06103c05101518051906001600160401b03821161126b578190610b7f60068501546124b4565b601f8111611bde575b50602090601f8311600114611b6c57600092611b61575b50508160011b916000199060031b1c19161760068201555b60e06103c05101518051906001600160401b03821161126b578190610bdf60078501546124b4565b601f8111611b0e575b50602090601f8311600114611a9c57600092611a91575b50508160011b916000199060031b1c19161760078201555b6101006103c05101518051906001600160401b03821161126b578190610c4060088501546124b4565b601f8111611a3e575b50602090601f83116001146119cc576000926119c1575b50508160011b916000199060031b1c19161760088201555b6101206103c05101518051906001600160401b03821161126b578190610ca160098501546124b4565b601f811161196e575b50602090601f83116001146118fc576000926118f1575b50508160011b916000199060031b1c19161760098201555b6101406103c05101518051906001600160401b03821161126b578190610d02600a8501546124b4565b601f811161189e575b50602090601f831160011461182c57600092611821575b50508160011b916000199060031b1c191617600a8201555b6101606103c05101518051906001600160401b03821161126b578190610d63600b8501546124b4565b601f81116117ce575b50602090601f831160011461175c57600092611751575b50508160011b916000199060031b1c191617600b8201555b6101806103c05101518051906001600160401b03821161126b578190610dc4600c8501546124b4565b601f81116116fe575b50602090601f831160011461168c57600092611681575b50508160011b916000199060031b1c191617600c8201555b6101a06103c05101518051906001600160401b03821161126b578190610e25600d8501546124b4565b601f811161162e575b50602090601f83116001146115bc576000926115b1575b50508160011b916000199060031b1c191617600d8201555b6101c06103c05101518051906001600160401b03821161126b578190610e86600e8501546124b4565b601f811161155e575b50602090601f83116001146114ec576000926114e1575b50508160011b916000199060031b1c191617600e8201555b6101e06103c05101518051906001600160401b03821161126b578190610ee7600f8501546124b4565b601f811161148e575b50602090601f831160011461141c57600092611411575b50508160011b916000199060031b1c191617600f8201555b6102006103c05101518051906001600160401b03821161126b578190610f4860108501546124b4565b601f81116113be575b50602090601f831160011461134c57600092611341575b50508160011b916000199060031b1c19161760108201555b6102206103c05101518051906001600160401b03821161126b57610fa760118401546124b4565b601f81116112fa575b50602090601f831160011461128c576011929160009183611281575b50508160011b916000199060031b1c1916179101555b6002546801000000000000000081101561126b578060016110069201600255612451565b81549060031b9060018060a01b036105c05116821b9160018060a01b03901b1916179055610240604051806104e052526112156111fb6111e26111c86111ae61119461117a61116061114661112c6111146110fb6110e26110c96110b061109761107e6102406104e051016103e05161020051612684565b6104e05160208183039101526104c0516102e051612684565b6104e05160408183039101526103405161052051612684565b6104e05160608183039101526103805161036051612684565b6104e05160808183039101526101e05161056051612684565b6104e05160a08183039101526104205161054051612684565b6104e05160c08183039101526101605161058051612684565b6104e05160e08183039101526101c05160a051612684565b6104e0516101008183039101526102205161030051612684565b6104e0516101208183039101526104805161014051612684565b6104e0516101408183039101526104405161050051612684565b6104e051610160818303910152610240516105e051612684565b6104e0516101808183039101526105a0516102c051612684565b6104e0516101a08183039101526104605161040051612684565b6104e0516101c08183039101526103205161026051612684565b6104e0516101e08183039101526102a051608051612684565b6104e0516102008183039101526101805161010051612684565b6104e0516102208183039101527e215430c88c1b906ff61ac5553eb111eb14e0574bb23d4a715089fa73b732df60018060a01b036105c05116916112636104e051916101a05160e051612684565b036104e051a2005b634e487b7160e01b600052604160045260246000fd5b015190508480610fcc565b90601184016000526020600020916000601f198516905b8181106112e2575091600193918560119694106112c9575b505050811b01910155610fe2565b015160001960f88460031b161c191690558480806112bb565b929360206001819287860151815501950193016112a3565b601184016000526020600020601f840160051c81016020851061133a575b601f830160051c8201811061132e575050610fb0565b60008155600101611318565b5080611318565b015190508380610f68565b9250601084016000526020600020906000935b601f19841685106113a3576001945083601f1981161061138a575b505050811b016010820155610f80565b015160001960f88460031b161c1916905583808061137a565b8181015183556020948501946001909301929091019061135f565b909150601084016000526020600020601f840160051c81016020851061140a575b90849392915b601f830160051c820181106113fb575050610f51565b600081558594506001016113e5565b50806113df565b015190508380610f07565b9250600f84016000526020600020906000935b601f1984168510611473576001945083601f1981161061145a575b505050811b01600f820155610f1f565b015160001960f88460031b161c1916905583808061144a565b8181015183556020948501946001909301929091019061142f565b909150600f84016000526020600020601f840160051c8101602085106114da575b90849392915b601f830160051c820181106114cb575050610ef0565b600081558594506001016114b5565b50806114af565b015190508380610ea6565b9250600e84016000526020600020906000935b601f1984168510611543576001945083601f1981161061152a575b505050811b01600e820155610ebe565b015160001960f88460031b161c1916905583808061151a565b818101518355602094850194600190930192909101906114ff565b909150600e84016000526020600020601f840160051c8101602085106115aa575b90849392915b601f830160051c8201811061159b575050610e8f565b60008155859450600101611585565b508061157f565b015190508380610e45565b9250600d84016000526020600020906000935b601f1984168510611613576001945083601f198116106115fa575b505050811b01600d820155610e5d565b015160001960f88460031b161c191690558380806115ea565b818101518355602094850194600190930192909101906115cf565b909150600d84016000526020600020601f840160051c81016020851061167a575b90849392915b601f830160051c8201811061166b575050610e2e565b60008155859450600101611655565b508061164f565b015190508380610de4565b9250600c84016000526020600020906000935b601f19841685106116e3576001945083601f198116106116ca575b505050811b01600c820155610dfc565b015160001960f88460031b161c191690558380806116ba565b8181015183556020948501946001909301929091019061169f565b909150600c84016000526020600020601f840160051c81016020851061174a575b90849392915b601f830160051c8201811061173b575050610dcd565b60008155859450600101611725565b508061171f565b015190508380610d83565b9250600b84016000526020600020906000935b601f19841685106117b3576001945083601f1981161061179a575b505050811b01600b820155610d9b565b015160001960f88460031b161c1916905583808061178a565b8181015183556020948501946001909301929091019061176f565b909150600b84016000526020600020601f840160051c81016020851061181a575b90849392915b601f830160051c8201811061180b575050610d6c565b600081558594506001016117f5565b50806117ef565b015190508380610d22565b9250600a84016000526020600020906000935b601f1984168510611883576001945083601f1981161061186a575b505050811b01600a820155610d3a565b015160001960f88460031b161c1916905583808061185a565b8181015183556020948501946001909301929091019061183f565b909150600a84016000526020600020601f840160051c8101602085106118ea575b90849392915b601f830160051c820181106118db575050610d0b565b600081558594506001016118c5565b50806118bf565b015190508380610cc1565b9250600984016000526020600020906000935b601f1984168510611953576001945083601f1981161061193a575b505050811b016009820155610cd9565b015160001960f88460031b161c1916905583808061192a565b8181015183556020948501946001909301929091019061190f565b909150600984016000526020600020601f840160051c8101602085106119ba575b90849392915b601f830160051c820181106119ab575050610caa565b60008155859450600101611995565b508061198f565b015190508380610c60565b9250600884016000526020600020906000935b601f1984168510611a23576001945083601f19811610611a0a575b505050811b016008820155610c78565b015160001960f88460031b161c191690558380806119fa565b818101518355602094850194600190930192909101906119df565b909150600884016000526020600020601f840160051c810160208510611a8a575b90849392915b601f830160051c82018110611a7b575050610c49565b60008155859450600101611a65565b5080611a5f565b015190508380610bff565b9250600784016000526020600020906000935b601f1984168510611af3576001945083601f19811610611ada575b505050811b016007820155610c17565b015160001960f88460031b161c19169055838080611aca565b81810151835560209485019460019093019290910190611aaf565b909150600784016000526020600020601f840160051c810160208510611b5a575b90849392915b601f830160051c82018110611b4b575050610be8565b60008155859450600101611b35565b5080611b2f565b015190508380610b9f565b9250600684016000526020600020906000935b601f1984168510611bc3576001945083601f19811610611baa575b505050811b016006820155610bb7565b015160001960f88460031b161c19169055838080611b9a565b81810151835560209485019460019093019290910190611b7f565b909150600684016000526020600020601f840160051c810160208510611c2a575b90849392915b601f830160051c82018110611c1b575050610b88565b60008155859450600101611c05565b5080611bff565b015190508380610b3f565b9250600584016000526020600020906000935b601f1984168510611c93576001945083601f19811610611c7a575b505050811b016005820155610b57565b015160001960f88460031b161c19169055838080611c6a565b81810151835560209485019460019093019290910190611c4f565b909150600584016000526020600020601f840160051c810160208510611cfa575b90849392915b601f830160051c82018110611ceb575050610b28565b60008155859450600101611cd5565b5080611ccf565b015190508380610adf565b9250600484016000526020600020906000935b601f1984168510611d63576001945083601f19811610611d4a575b505050811b016004820155610af7565b015160001960f88460031b161c19169055838080611d3a565b81810151835560209485019460019093019290910190611d1f565b909150600484016000526020600020601f840160051c810160208510611dca575b90849392915b601f830160051c82018110611dbb575050610ac8565b60008155859450600101611da5565b5080611d9f565b015190508380610a7f565b9250600384016000526020600020906000935b601f1984168510611e33576001945083601f19811610611e1a575b505050811b016003820155610a97565b015160001960f88460031b161c19169055838080611e0a565b81810151835560209485019460019093019290910190611def565b909150600384016000526020600020601f840160051c810160208510611e9a575b90849392915b601f830160051c82018110611e8b575050610a68565b60008155859450600101611e75565b5080611e6f565b015190508380610a1f565b60028301600052602060002090600094601f198416955b868110611eff5750836001959610611ee6575b505050811b016002820155610a37565b015160001960f88460031b161c19169055838080611ed6565b91926020600181928685015181550194019201611ec3565b600283016000526020600020601f830160051c810160208410611f57575b601f830160051c82018110611f4b575050610a06565b60008155600101611f35565b5080611f35565b0151905083806109bf565b60018301600052602060002090600094601f198416955b868110611fbc5750836001959610611fa3575b505050811b0160018201556109d7565b015160001960f88460031b161c19169055838080611f93565b91926020600181928685015181550194019201611f80565b600183016000526020600020601f830160051c810160208410612014575b601f830160051c820181106120085750506109a6565b60008155600101611ff2565b5080611ff2565b015190508380610962565b82600052602060002090600094601f198416955b868110612073575083600195961061205a575b505050811b018155610977565b015160001960f88460031b161c1916905583808061204d565b9192602060018192868501518155019401920161203a565b826000526020600020601f830160051c8101602084106120c8575b601f830160051c820181106120bc575050610949565b600081556001016120a6565b50806120a6565b60405162461bcd60e51b815260206004820152600b60248201526a139bdd081cdd195dd85c9960aa1b6044820152606490fd5b34610433576000366003190112610433576020600254604051908152f35b34610433576000366003190112610433576000546040516001600160a01b039091168152602090f35b34610433576020366003190112610433576001600160a01b0361216a61249e565b1660005260016020526040600020806121828161252b565b61218e6001830161252b565b60c05261219d6002830161252b565b6103a0526121ad6003830161252b565b6121b96004840161252b565b6121c56005850161252b565b6121d16006860161252b565b6121dd6007870161252b565b6121e96008880161252b565b906121f66009890161252b565b92612203600a8a0161252b565b94612210600b8b0161252b565b9661221d600c8c0161252b565b9861222a600d8d0161252b565b9a612237600e8e0161252b565b9c600f016122449061252b565b9d6122516010820161252b565b610280526011016122619061252b565b6104a05260405180610120526102408091526101205101612281916125d1565b61012051808203906020015260c0519061229a916125d1565b6101205180820390604001526103a051906122b4916125d1565b6101205180820390606001526122c9916125d1565b6101205180820390608001526122de916125d1565b610120518082039060a001526122f3916125d1565b610120518082039060c00152612308916125d1565b610120518082039060e0015261231d916125d1565b61012051808203906101000152612333916125d1565b61012051808203906101200152612349916125d1565b6101205180820390610140015261235f916125d1565b61012051808203906101600152612375916125d1565b6101205180820390610180015261238b916125d1565b61012051808203906101a001526123a1916125d1565b61012051808203906101c001526123b7916125d1565b61012051808203906101e001526123cd916125d1565b6101205180820390610200015261028051906123e8916125d1565b6101205180820390610220015261012051906104a05190612408916125d1565b0361012051f35b346104335760203660031901126104335760043560025481101561043357612438602091612451565b905460405160039290921b1c6001600160a01b03168152f35b6002548110156124885760026000527f405787fa12a823e0f2b7631cc41b3ba8828b3321ca811111fa75cd3aa3bb5ace0190600090565b634e487b7160e01b600052603260045260246000fd5b600435906001600160a01b038216820361043357565b90600182811c921680156124e4575b60208310146124ce57565b634e487b7160e01b600052602260045260246000fd5b91607f16916124c3565b61024081019081106001600160401b0382111761126b57604052565b90601f801991011681019081106001600160401b0382111761126b57604052565b906040519182600082549261253f846124b4565b9081845260019485811690816000146125ae575060011461256b575b50506125699250038361250a565b565b9093915060005260209081600020936000915b8183106125965750506125699350820101388061255b565b8554888401850152948501948794509183019161257e565b91505061256994506020925060ff191682840152151560051b820101388061255b565b919082519283825260005b8481106125fd575050826000602080949584010152601f8019910116010190565b6020818301810151848301820152016125dc565b9181601f84011215610433578235916001600160401b038311610433576020838186019501011161043357565b9291926001600160401b03821161126b5760405191612667601f8201601f19166020018461250a565b829481845281830111610433578281602093846000960137010152565b908060209392818452848401376000828201840152601f01601f191601019056fea2646970667358221220552a4efae4284b0cae2e6067148f73d03c2440df168b3ca9d01a538e063df0a864736f6c63430008140033","opcodes":"PUSH1 0x80 DUP1 PUSH1 0x40 MSTORE CALLVALUE PUSH2 0x28 JUMPI PUSH1 0x0 DUP1 SLOAD PUSH1 0x1 PUSH1 0x1 PUSH1 0xA0 SHL SUB NOT AND CALLER OR SWAP1 SSTORE PUSH2 0x26DB SWAP1 DUP2 PUSH2 0x2E DUP3 CODECOPY RETURN JUMPDEST PUSH1 0x0 DUP1 REVERT INVALID PUSH2 0x600 PUSH1 0x40 MSTORE PUSH1 0x4 CALLDATASIZE LT ISZERO PUSH2 0x13 JUMPI PUSH1 0x0 DUP1 REVERT JUMPDEST PUSH1 0x0 CALLDATALOAD PUSH1 0xE0 SHR DUP1 PUSH4 0xCB6AAF1 EQ PUSH2 0x240F JUMPI DUP1 PUSH4 0x47854B87 EQ PUSH2 0x2149 JUMPI DUP1 PUSH4 0x637EEA19 EQ PUSH2 0x2120 JUMPI DUP1 PUSH4 0xEC39F18F EQ PUSH2 0x2102 JUMPI DUP1 PUSH4 0xEEB56334 EQ PUSH2 0x438 JUMPI PUSH4 0xEF652737 EQ PUSH2 0x5F JUMPI PUSH1 0x0 DUP1 REVERT JUMPDEST CALLVALUE PUSH2 0x433 JUMPI PUSH1 0x20 CALLDATASIZE PUSH1 0x3 NOT ADD SLT PUSH2 0x433 JUMPI PUSH2 0x78 PUSH2 0x249E JUMP JUMPDEST PUSH1 0x60 PUSH2 0x220 PUSH1 0x40 MLOAD PUSH2 0x89 DUP2 PUSH2 0x24EE JUMP JUMPDEST DUP3 DUP2 MSTORE DUP3 PUSH1 0x20 DUP3 ADD MSTORE DUP3 PUSH1 0x40 DUP3 ADD MSTORE DUP3 DUP1 DUP3 ADD MSTORE DUP3 PUSH1 0x80 DUP3 ADD MSTORE DUP3 PUSH1 0xA0 DUP3 ADD MSTORE DUP3 PUSH1 0xC0 DUP3 ADD MSTORE DUP3 PUSH1 0xE0 DUP3 ADD MSTORE DUP3 PUSH2 0x100 DUP3 ADD MSTORE DUP3 PUSH2 0x120 DUP3 ADD MSTORE DUP3 PUSH2 0x140 DUP3 ADD MSTORE DUP3 PUSH2 0x160 DUP3 ADD MSTORE DUP3 PUSH2 0x180 DUP3 ADD MSTORE DUP3 PUSH2 0x1A0 DUP3 ADD MSTORE DUP3 PUSH2 0x1C0 DUP3 ADD MSTORE DUP3 PUSH2 0x1E0 DUP3 ADD MSTORE DUP3 PUSH2 0x200 DUP3 ADD MSTORE ADD MSTORE PUSH1 0x1 DUP1 PUSH1 0xA0 SHL SUB AND PUSH1 0x0 MSTORE PUSH1 0x1 PUSH1 0x20 MSTORE PUSH2 0x342 PUSH1 0x40 PUSH1 0x0 KECCAK256 PUSH2 0x24A PUSH1 0x11 PUSH1 0x40 MLOAD SWAP3 PUSH2 0x120 DUP5 PUSH2 0x24EE JUMP JUMPDEST PUSH2 0x129 DUP2 PUSH2 0x252B JUMP JUMPDEST DUP5 MSTORE PUSH2 0x137 PUSH1 0x1 DUP3 ADD PUSH2 0x252B JUMP JUMPDEST PUSH1 0x20 DUP6 ADD MSTORE PUSH2 0x148 PUSH1 0x2 DUP3 ADD PUSH2 0x252B JUMP JUMPDEST PUSH1 0x40 DUP6 ADD MSTORE PUSH2 0x159 PUSH1 0x3 DUP3 ADD PUSH2 0x252B JUMP JUMPDEST PUSH1 0x60 DUP6 ADD MSTORE PUSH2 0x16A PUSH1 0x4 DUP3 ADD PUSH2 0x252B JUMP JUMPDEST PUSH1 0x80 DUP6 ADD MSTORE PUSH2 0x17B PUSH1 0x5 DUP3 ADD PUSH2 0x252B JUMP JUMPDEST PUSH1 0xA0 DUP6 ADD MSTORE PUSH2 0x18C PUSH1 0x6 DUP3 ADD PUSH2 0x252B JUMP JUMPDEST PUSH1 0xC0 DUP6 ADD MSTORE PUSH2 0x19D PUSH1 0x7 DUP3 ADD PUSH2 0x252B JUMP JUMPDEST PUSH1 0xE0 DUP6 ADD MSTORE PUSH2 0x1AE PUSH1 0x8 DUP3 ADD PUSH2 0x252B JUMP JUMPDEST PUSH2 0x100 DUP6 ADD MSTORE PUSH2 0x1C0 PUSH1 0x9 DUP3 ADD PUSH2 0x252B JUMP JUMPDEST PUSH2 0x120 DUP6 ADD MSTORE PUSH2 0x1D2 PUSH1 0xA DUP3 ADD PUSH2 0x252B JUMP JUMPDEST PUSH2 0x140 DUP6 ADD MSTORE PUSH2 0x1E4 PUSH1 0xB DUP3 ADD PUSH2 0x252B JUMP JUMPDEST PUSH2 0x160 DUP6 ADD MSTORE PUSH2 0x1F6 PUSH1 0xC DUP3 ADD PUSH2 0x252B JUMP JUMPDEST PUSH2 0x180 DUP6 ADD MSTORE PUSH2 0x208 PUSH1 0xD DUP3 ADD PUSH2 0x252B JUMP JUMPDEST PUSH2 0x1A0 DUP6 ADD MSTORE PUSH2 0x21A PUSH1 0xE DUP3 ADD PUSH2 0x252B JUMP JUMPDEST PUSH2 0x1C0 DUP6 ADD MSTORE PUSH2 0x22C PUSH1 0xF DUP3 ADD PUSH2 0x252B JUMP JUMPDEST PUSH2 0x1E0 DUP6 ADD MSTORE PUSH2 0x23E PUSH1 0x10 DUP3 ADD PUSH2 0x252B JUMP JUMPDEST PUSH2 0x200 DUP6 ADD MSTORE ADD PUSH2 0x252B JUMP JUMPDEST PUSH2 0x220 DUP3 ADD MSTORE PUSH2 0x42F DUP2 PUSH2 0x220 PUSH2 0x41A PUSH2 0x404 PUSH2 0x3EC PUSH2 0x3D4 PUSH2 0x3BC PUSH2 0x3A4 PUSH2 0x38C PUSH2 0x374 PUSH2 0x35C PUSH1 0x40 MLOAD SWAP14 DUP15 SWAP14 DUP15 PUSH1 0x20 DUP2 MSTORE PUSH1 0xE0 PUSH2 0x32C PUSH2 0x317 PUSH2 0x301 PUSH2 0x2EB PUSH2 0x2D5 PUSH2 0x2BF PUSH2 0x2A9 DUP10 MLOAD PUSH2 0x240 PUSH1 0x20 DUP12 ADD MSTORE PUSH2 0x260 DUP11 ADD SWAP1 PUSH2 0x25D1 JUMP JUMPDEST PUSH1 0x20 DUP11 ADD MLOAD DUP10 DUP3 SUB PUSH1 0x1F NOT ADD PUSH1 0x40 DUP12 ADD MSTORE PUSH2 0x25D1 JUMP JUMPDEST PUSH1 0x40 DUP10 ADD MLOAD DUP9 DUP3 SUB PUSH1 0x1F NOT ADD PUSH1 0x60 DUP11 ADD MSTORE PUSH2 0x25D1 JUMP JUMPDEST PUSH1 0x60 DUP9 ADD MLOAD DUP8 DUP3 SUB PUSH1 0x1F NOT ADD PUSH1 0x80 DUP10 ADD MSTORE PUSH2 0x25D1 JUMP JUMPDEST PUSH1 0x80 DUP8 ADD MLOAD DUP7 DUP3 SUB PUSH1 0x1F NOT ADD PUSH1 0xA0 DUP9 ADD MSTORE PUSH2 0x25D1 JUMP JUMPDEST PUSH1 0xA0 DUP7 ADD MLOAD DUP6 DUP3 SUB PUSH1 0x1F NOT ADD PUSH1 0xC0 DUP8 ADD MSTORE PUSH2 0x25D1 JUMP JUMPDEST PUSH1 0xC0 DUP6 ADD MLOAD DUP5 DUP3 SUB PUSH1 0x1F NOT ADD DUP5 DUP7 ADD MSTORE PUSH2 0x25D1 JUMP JUMPDEST SWAP3 ADD MLOAD SWAP1 PUSH2 0x100 PUSH1 0x1F NOT DUP3 DUP6 SUB ADD SWAP2 ADD MSTORE PUSH2 0x25D1 JUMP JUMPDEST DUP14 PUSH2 0x100 DUP14 ADD MLOAD SWAP1 PUSH2 0x120 PUSH1 0x1F NOT DUP3 DUP6 SUB ADD SWAP2 ADD MSTORE PUSH2 0x25D1 JUMP JUMPDEST PUSH2 0x120 DUP12 ADD MLOAD DUP14 DUP3 SUB PUSH1 0x1F NOT ADD PUSH2 0x140 DUP16 ADD MSTORE PUSH2 0x25D1 JUMP JUMPDEST PUSH2 0x140 DUP11 ADD MLOAD DUP13 DUP3 SUB PUSH1 0x1F NOT ADD PUSH2 0x160 DUP15 ADD MSTORE PUSH2 0x25D1 JUMP JUMPDEST PUSH2 0x160 DUP10 ADD MLOAD DUP12 DUP3 SUB PUSH1 0x1F NOT ADD PUSH2 0x180 DUP14 ADD MSTORE PUSH2 0x25D1 JUMP JUMPDEST PUSH2 0x180 DUP9 ADD MLOAD DUP11 DUP3 SUB PUSH1 0x1F NOT ADD PUSH2 0x1A0 DUP13 ADD MSTORE PUSH2 0x25D1 JUMP JUMPDEST PUSH2 0x1A0 DUP8 ADD MLOAD DUP10 DUP3 SUB PUSH1 0x1F NOT ADD PUSH2 0x1C0 DUP12 ADD MSTORE PUSH2 0x25D1 JUMP JUMPDEST PUSH2 0x1C0 DUP7 ADD MLOAD DUP9 DUP3 SUB PUSH1 0x1F NOT ADD PUSH2 0x1E0 DUP11 ADD MSTORE PUSH2 0x25D1 JUMP JUMPDEST PUSH2 0x1E0 DUP6 ADD MLOAD DUP8 DUP3 SUB PUSH1 0x1F NOT ADD PUSH2 0x200 DUP10 ADD MSTORE PUSH2 0x25D1 JUMP JUMPDEST PUSH2 0x200 DUP5 ADD MLOAD DUP7 DUP3 SUB PUSH1 0x1F NOT ADD DUP5 DUP9 ADD MSTORE PUSH2 0x25D1 JUMP JUMPDEST SWAP2 ADD MLOAD DUP4 DUP3 SUB PUSH1 0x1F NOT ADD PUSH2 0x240 DUP6 ADD MSTORE PUSH2 0x25D1 JUMP JUMPDEST SUB SWAP1 RETURN JUMPDEST PUSH1 0x0 DUP1 REVERT JUMPDEST CALLVALUE PUSH2 0x433 JUMPI PUSH2 0x260 CALLDATASIZE PUSH1 0x3 NOT ADD SLT PUSH2 0x433 JUMPI PUSH2 0x452 PUSH2 0x249E JUMP JUMPDEST PUSH2 0x5C0 MSTORE PUSH1 0x24 CALLDATALOAD PUSH1 0x1 PUSH1 0x1 PUSH1 0x40 SHL SUB DUP2 GT PUSH2 0x433 JUMPI PUSH2 0x475 SWAP1 CALLDATASIZE SWAP1 PUSH1 0x4 ADD PUSH2 0x2611 JUMP JUMPDEST PUSH2 0x3E0 MSTORE PUSH2 0x200 MSTORE PUSH1 0x44 CALLDATALOAD PUSH1 0x1 PUSH1 0x1 PUSH1 0x40 SHL SUB DUP2 GT PUSH2 0x433 JUMPI PUSH2 0x49C SWAP1 CALLDATASIZE SWAP1 PUSH1 0x4 ADD PUSH2 0x2611 JUMP JUMPDEST PUSH2 0x4C0 MSTORE PUSH2 0x2E0 MSTORE PUSH1 0x64 CALLDATALOAD PUSH1 0x1 PUSH1 0x1 PUSH1 0x40 SHL SUB DUP2 GT PUSH2 0x433 JUMPI PUSH2 0x4C3 SWAP1 CALLDATASIZE SWAP1 PUSH1 0x4 ADD PUSH2 0x2611 JUMP JUMPDEST PUSH2 0x340 MSTORE PUSH2 0x520 MSTORE PUSH1 0x84 CALLDATALOAD PUSH1 0x1 PUSH1 0x1 PUSH1 0x40 SHL SUB DUP2 GT PUSH2 0x433 JUMPI PUSH2 0x4EA SWAP1 CALLDATASIZE SWAP1 PUSH1 0x4 ADD PUSH2 0x2611 JUMP JUMPDEST PUSH2 0x380 MSTORE PUSH2 0x360 MSTORE PUSH1 0xA4 CALLDATALOAD PUSH1 0x1 PUSH1 0x1 PUSH1 0x40 SHL SUB DUP2 GT PUSH2 0x433 JUMPI PUSH2 0x511 SWAP1 CALLDATASIZE SWAP1 PUSH1 0x4 ADD PUSH2 0x2611 JUMP JUMPDEST PUSH2 0x1E0 MSTORE PUSH2 0x560 MSTORE PUSH1 0x1 PUSH1 0x1 PUSH1 0x40 SHL SUB PUSH1 0xC4 CALLDATALOAD GT PUSH2 0x433 JUMPI PUSH2 0x538 CALLDATASIZE PUSH1 0xC4 CALLDATALOAD PUSH1 0x4 ADD PUSH2 0x2611 JUMP JUMPDEST PUSH2 0x420 MSTORE PUSH2 0x540 MSTORE PUSH1 0xE4 CALLDATALOAD PUSH1 0x1 PUSH1 0x1 PUSH1 0x40 SHL SUB DUP2 GT PUSH2 0x433 JUMPI PUSH2 0x55F SWAP1 CALLDATASIZE SWAP1 PUSH1 0x4 ADD PUSH2 0x2611 JUMP JUMPDEST PUSH2 0x160 MSTORE PUSH2 0x580 MSTORE PUSH2 0x104 CALLDATALOAD PUSH1 0x1 PUSH1 0x1 PUSH1 0x40 SHL SUB DUP2 GT PUSH2 0x433 JUMPI PUSH2 0x587 SWAP1 CALLDATASIZE SWAP1 PUSH1 0x4 ADD PUSH2 0x2611 JUMP JUMPDEST PUSH2 0x1C0 MSTORE PUSH1 0xA0 MSTORE PUSH1 0x1 PUSH1 0x1 PUSH1 0x40 SHL SUB PUSH2 0x124 CALLDATALOAD GT PUSH2 0x433 JUMPI PUSH2 0x5AF CALLDATASIZE PUSH2 0x124 CALLDATALOAD PUSH1 0x4 ADD PUSH2 0x2611 JUMP JUMPDEST PUSH2 0x220 MSTORE PUSH2 0x300 MSTORE PUSH1 0x1 PUSH1 0x1 PUSH1 0x40 SHL SUB PUSH2 0x144 CALLDATALOAD GT PUSH2 0x433 JUMPI PUSH2 0x5D8 CALLDATASIZE PUSH2 0x144 CALLDATALOAD PUSH1 0x4 ADD PUSH2 0x2611 JUMP JUMPDEST PUSH2 0x480 MSTORE PUSH2 0x140 MSTORE PUSH1 0x1 PUSH1 0x1 PUSH1 0x40 SHL SUB PUSH2 0x164 CALLDATALOAD GT PUSH2 0x433 JUMPI PUSH2 0x601 CALLDATASIZE PUSH2 0x164 CALLDATALOAD PUSH1 0x4 ADD PUSH2 0x2611 JUMP JUMPDEST PUSH2 0x440 MSTORE PUSH2 0x500 MSTORE PUSH2 0x184 CALLDATALOAD PUSH1 0x1 PUSH1 0x1 PUSH1 0x40 SHL SUB DUP2 GT PUSH2 0x433 JUMPI PUSH2 0x629 SWAP1 CALLDATASIZE SWAP1 PUSH1 0x4 ADD PUSH2 0x2611 JUMP JUMPDEST PUSH2 0x240 MSTORE PUSH2 0x5E0 MSTORE PUSH2 0x1A4 CALLDATALOAD PUSH1 0x1 PUSH1 0x1 PUSH1 0x40 SHL SUB DUP2 GT PUSH2 0x433 JUMPI PUSH2 0x651 SWAP1 CALLDATASIZE SWAP1 PUSH1 0x4 ADD PUSH2 0x2611 JUMP JUMPDEST PUSH2 0x5A0 MSTORE PUSH2 0x2C0 MSTORE PUSH2 0x1C4 CALLDATALOAD PUSH1 0x1 PUSH1 0x1 PUSH1 0x40 SHL SUB DUP2 GT PUSH2 0x433 JUMPI PUSH2 0x679 SWAP1 CALLDATASIZE SWAP1 PUSH1 0x4 ADD PUSH2 0x2611 JUMP JUMPDEST PUSH2 0x460 MSTORE PUSH2 0x400 MSTORE PUSH2 0x1E4 CALLDATALOAD PUSH1 0x1 PUSH1 0x1 PUSH1 0x40 SHL SUB DUP2 GT PUSH2 0x433 JUMPI PUSH2 0x6A1 SWAP1 CALLDATASIZE SWAP1 PUSH1 0x4 ADD PUSH2 0x2611 JUMP JUMPDEST PUSH2 0x320 MSTORE PUSH2 0x260 MSTORE PUSH2 0x204 CALLDATALOAD PUSH1 0x1 PUSH1 0x1 PUSH1 0x40 SHL SUB DUP2 GT PUSH2 0x433 JUMPI PUSH2 0x6C9 SWAP1 CALLDATASIZE SWAP1 PUSH1 0x4 ADD PUSH2 0x2611 JUMP JUMPDEST PUSH2 0x2A0 MSTORE PUSH1 0x80 MSTORE PUSH2 0x224 CALLDATALOAD PUSH1 0x1 PUSH1 0x1 PUSH1 0x40 SHL SUB DUP2 GT PUSH2 0x433 JUMPI PUSH2 0x6F0 SWAP1 CALLDATASIZE SWAP1 PUSH1 0x4 ADD PUSH2 0x2611 JUMP JUMPDEST PUSH2 0x180 MSTORE PUSH2 0x100 MSTORE PUSH2 0x244 CALLDATALOAD PUSH1 0x1 PUSH1 0x1 PUSH1 0x40 SHL SUB DUP2 GT PUSH2 0x433 JUMPI PUSH2 0x718 SWAP1 CALLDATASIZE SWAP1 PUSH1 0x4 ADD PUSH2 0x2611 JUMP JUMPDEST PUSH2 0x1A0 MSTORE PUSH1 0xE0 MSTORE PUSH1 0x0 SLOAD PUSH1 0x1 PUSH1 0x1 PUSH1 0xA0 SHL SUB AND CALLER SUB PUSH2 0x20CF JUMPI PUSH2 0x741 PUSH1 0x40 MLOAD DUP1 PUSH2 0x3C0 MSTORE PUSH2 0x24EE JUMP JUMPDEST PUSH2 0x752 CALLDATASIZE PUSH2 0x3E0 MLOAD PUSH2 0x200 MLOAD PUSH2 0x263E JUMP JUMPDEST PUSH2 0x3C0 MLOAD MSTORE PUSH2 0x768 CALLDATASIZE PUSH2 0x4C0 MLOAD PUSH2 0x2E0 MLOAD PUSH2 0x263E JUMP JUMPDEST PUSH1 0x20 PUSH2 0x3C0 MLOAD ADD MSTORE PUSH2 0x781 CALLDATASIZE PUSH2 0x340 MLOAD PUSH2 0x520 MLOAD PUSH2 0x263E JUMP JUMPDEST PUSH1 0x40 PUSH2 0x3C0 MLOAD ADD MSTORE PUSH2 0x79A CALLDATASIZE PUSH2 0x380 MLOAD PUSH2 0x360 MLOAD PUSH2 0x263E JUMP JUMPDEST PUSH1 0x60 PUSH2 0x3C0 MLOAD ADD MSTORE PUSH2 0x7B3 CALLDATASIZE PUSH2 0x1E0 MLOAD PUSH2 0x560 MLOAD PUSH2 0x263E JUMP JUMPDEST PUSH1 0x80 PUSH2 0x3C0 MLOAD ADD MSTORE PUSH2 0x7CC CALLDATASIZE PUSH2 0x420 MLOAD PUSH2 0x540 MLOAD PUSH2 0x263E JUMP JUMPDEST PUSH1 0xA0 PUSH2 0x3C0 MLOAD ADD MSTORE PUSH2 0x7E5 CALLDATASIZE PUSH2 0x160 MLOAD PUSH2 0x580 MLOAD PUSH2 0x263E JUMP JUMPDEST PUSH1 0xC0 PUSH2 0x3C0 MLOAD ADD MSTORE PUSH2 0x7FD CALLDATASIZE PUSH2 0x1C0 MLOAD PUSH1 0xA0 MLOAD PUSH2 0x263E JUMP JUMPDEST PUSH1 0xE0 PUSH2 0x3C0 MLOAD ADD MSTORE PUSH2 0x816 CALLDATASIZE PUSH2 0x220 MLOAD PUSH2 0x300 MLOAD PUSH2 0x263E JUMP JUMPDEST PUSH2 0x100 PUSH2 0x3C0 MLOAD ADD MSTORE PUSH2 0x830 CALLDATASIZE PUSH2 0x480 MLOAD PUSH2 0x140 MLOAD PUSH2 0x263E JUMP JUMPDEST PUSH2 0x120 PUSH2 0x3C0 MLOAD ADD MSTORE PUSH2 0x84A CALLDATASIZE PUSH2 0x440 MLOAD PUSH2 0x500 MLOAD PUSH2 0x263E JUMP JUMPDEST PUSH2 0x140 PUSH2 0x3C0 MLOAD ADD MSTORE PUSH2 0x864 CALLDATASIZE PUSH2 0x240 MLOAD PUSH2 0x5E0 MLOAD PUSH2 0x263E JUMP JUMPDEST PUSH2 0x160 PUSH2 0x3C0 MLOAD ADD MSTORE PUSH2 0x87E CALLDATASIZE PUSH2 0x5A0 MLOAD PUSH2 0x2C0 MLOAD PUSH2 0x263E JUMP JUMPDEST PUSH2 0x180 PUSH2 0x3C0 MLOAD ADD MSTORE PUSH2 0x898 CALLDATASIZE PUSH2 0x460 MLOAD PUSH2 0x400 MLOAD PUSH2 0x263E JUMP JUMPDEST PUSH2 0x1A0 PUSH2 0x3C0 MLOAD ADD MSTORE PUSH2 0x8B2 CALLDATASIZE PUSH2 0x320 MLOAD PUSH2 0x260 MLOAD PUSH2 0x263E JUMP JUMPDEST PUSH2 0x1C0 PUSH2 0x3C0 MLOAD ADD MSTORE PUSH2 0x8CB CALLDATASIZE PUSH2 0x2A0 MLOAD PUSH1 0x80 MLOAD PUSH2 0x263E JUMP JUMPDEST PUSH2 0x1E0 PUSH2 0x3C0 MLOAD ADD MSTORE PUSH2 0x8E5 CALLDATASIZE PUSH2 0x180 MLOAD PUSH2 0x100 MLOAD PUSH2 0x263E JUMP JUMPDEST PUSH2 0x200 PUSH2 0x3C0 MLOAD ADD MSTORE PUSH2 0x8FE CALLDATASIZE PUSH2 0x1A0 MLOAD PUSH1 0xE0 MLOAD PUSH2 0x263E JUMP JUMPDEST PUSH2 0x220 PUSH2 0x3C0 MLOAD ADD MSTORE PUSH1 0x1 DUP1 PUSH1 0xA0 SHL SUB PUSH2 0x5C0 MLOAD AND PUSH1 0x0 MSTORE PUSH1 0x1 PUSH1 0x20 MSTORE PUSH1 0x40 PUSH1 0x0 KECCAK256 PUSH2 0x3C0 MLOAD MLOAD SWAP1 DUP2 MLOAD PUSH1 0x1 PUSH1 0x1 PUSH1 0x40 SHL SUB DUP2 GT PUSH2 0x126B JUMPI PUSH2 0x940 DUP3 SLOAD PUSH2 0x24B4 JUMP JUMPDEST PUSH1 0x1F DUP2 GT PUSH2 0x208B JUMPI JUMPDEST POP PUSH1 0x20 PUSH1 0x1F DUP3 GT PUSH1 0x1 EQ PUSH2 0x2026 JUMPI DUP2 SWAP3 SWAP4 PUSH1 0x0 SWAP3 PUSH2 0x201B JUMPI JUMPDEST POP POP DUP2 PUSH1 0x1 SHL SWAP2 PUSH1 0x0 NOT SWAP1 PUSH1 0x3 SHL SHR NOT AND OR DUP2 SSTORE JUMPDEST PUSH1 0x20 PUSH2 0x3C0 MLOAD ADD MLOAD SWAP1 DUP2 MLOAD PUSH1 0x1 PUSH1 0x1 PUSH1 0x40 SHL SUB DUP2 GT PUSH2 0x126B JUMPI PUSH2 0x99D PUSH1 0x1 DUP4 ADD SLOAD PUSH2 0x24B4 JUMP JUMPDEST PUSH1 0x1F DUP2 GT PUSH2 0x1FD4 JUMPI JUMPDEST POP PUSH1 0x20 PUSH1 0x1F DUP3 GT PUSH1 0x1 EQ PUSH2 0x1F69 JUMPI DUP2 SWAP3 SWAP4 PUSH1 0x0 SWAP3 PUSH2 0x1F5E JUMPI JUMPDEST POP POP DUP2 PUSH1 0x1 SHL SWAP2 PUSH1 0x0 NOT SWAP1 PUSH1 0x3 SHL SHR NOT AND OR PUSH1 0x1 DUP3 ADD SSTORE JUMPDEST PUSH1 0x40 PUSH2 0x3C0 MLOAD ADD MLOAD SWAP1 DUP2 MLOAD PUSH1 0x1 PUSH1 0x1 PUSH1 0x40 SHL SUB DUP2 GT PUSH2 0x126B JUMPI PUSH2 0x9FD PUSH1 0x2 DUP4 ADD SLOAD PUSH2 0x24B4 JUMP JUMPDEST PUSH1 0x1F DUP2 GT PUSH2 0x1F17 JUMPI JUMPDEST POP PUSH1 0x20 PUSH1 0x1F DUP3 GT PUSH1 0x1 EQ PUSH2 0x1EAC JUMPI DUP2 SWAP3 SWAP4 PUSH1 0x0 SWAP3 PUSH2 0x1EA1 JUMPI JUMPDEST POP POP DUP2 PUSH1 0x1 SHL SWAP2 PUSH1 0x0 NOT SWAP1 PUSH1 0x3 SHL SHR NOT AND OR PUSH1 0x2 DUP3 ADD SSTORE JUMPDEST PUSH1 0x60 PUSH2 0x3C0 MLOAD ADD MLOAD DUP1 MLOAD SWAP1 PUSH1 0x1 PUSH1 0x1 PUSH1 0x40 SHL SUB DUP3 GT PUSH2 0x126B JUMPI DUP2 SWAP1 PUSH2 0xA5F PUSH1 0x3 DUP6 ADD SLOAD PUSH2 0x24B4 JUMP JUMPDEST PUSH1 0x1F DUP2 GT PUSH2 0x1E4E JUMPI JUMPDEST POP PUSH1 0x20 SWAP1 PUSH1 0x1F DUP4 GT PUSH1 0x1 EQ PUSH2 0x1DDC JUMPI PUSH1 0x0 SWAP3 PUSH2 0x1DD1 JUMPI JUMPDEST POP POP DUP2 PUSH1 0x1 SHL SWAP2 PUSH1 0x0 NOT SWAP1 PUSH1 0x3 SHL SHR NOT AND OR PUSH1 0x3 DUP3 ADD SSTORE JUMPDEST PUSH1 0x80 PUSH2 0x3C0 MLOAD ADD MLOAD DUP1 MLOAD SWAP1 PUSH1 0x1 PUSH1 0x1 PUSH1 0x40 SHL SUB DUP3 GT PUSH2 0x126B JUMPI DUP2 SWAP1 PUSH2 0xABF PUSH1 0x4 DUP6 ADD SLOAD PUSH2 0x24B4 JUMP JUMPDEST PUSH1 0x1F DUP2 GT PUSH2 0x1D7E JUMPI JUMPDEST POP PUSH1 0x20 SWAP1 PUSH1 0x1F DUP4 GT PUSH1 0x1 EQ PUSH2 0x1D0C JUMPI PUSH1 0x0 SWAP3 PUSH2 0x1D01 JUMPI JUMPDEST POP POP DUP2 PUSH1 0x1 SHL SWAP2 PUSH1 0x0 NOT SWAP1 PUSH1 0x3 SHL SHR NOT AND OR PUSH1 0x4 DUP3 ADD SSTORE JUMPDEST PUSH1 0xA0 PUSH2 0x3C0 MLOAD ADD MLOAD DUP1 MLOAD SWAP1 PUSH1 0x1 PUSH1 0x1 PUSH1 0x40 SHL SUB DUP3 GT PUSH2 0x126B JUMPI DUP2 SWAP1 PUSH2 0xB1F PUSH1 0x5 DUP6 ADD SLOAD PUSH2 0x24B4 JUMP JUMPDEST PUSH1 0x1F DUP2 GT PUSH2 0x1CAE JUMPI JUMPDEST POP PUSH1 0x20 SWAP1 PUSH1 0x1F DUP4 GT PUSH1 0x1 EQ PUSH2 0x1C3C JUMPI PUSH1 0x0 SWAP3 PUSH2 0x1C31 JUMPI JUMPDEST POP POP DUP2 PUSH1 0x1 SHL SWAP2 PUSH1 0x0 NOT SWAP1 PUSH1 0x3 SHL SHR NOT AND OR PUSH1 0x5 DUP3 ADD SSTORE JUMPDEST PUSH1 0xC0 PUSH2 0x3C0 MLOAD ADD MLOAD DUP1 MLOAD SWAP1 PUSH1 0x1 PUSH1 0x1 PUSH1 0x40 SHL SUB DUP3 GT PUSH2 0x126B JUMPI DUP2 SWAP1 PUSH2 0xB7F PUSH1 0x6 DUP6 ADD SLOAD PUSH2 0x24B4 JUMP JUMPDEST PUSH1 0x1F DUP2 GT PUSH2 0x1BDE JUMPI JUMPDEST POP PUSH1 0x20 SWAP1 PUSH1 0x1F DUP4 GT PUSH1 0x1 EQ PUSH2 0x1B6C JUMPI PUSH1 0x0 SWAP3 PUSH2 0x1B61 JUMPI JUMPDEST POP POP DUP2 PUSH1 0x1 SHL SWAP2 PUSH1 0x0 NOT SWAP1 PUSH1 0x3 SHL SHR NOT AND OR PUSH1 0x6 DUP3 ADD SSTORE JUMPDEST PUSH1 0xE0 PUSH2 0x3C0 MLOAD ADD MLOAD DUP1 MLOAD SWAP1 PUSH1 0x1 PUSH1 0x1 PUSH1 0x40 SHL SUB DUP3 GT PUSH2 0x126B JUMPI DUP2 SWAP1 PUSH2 0xBDF PUSH1 0x7 DUP6 ADD SLOAD PUSH2 0x24B4 JUMP JUMPDEST PUSH1 0x1F DUP2 GT PUSH2 0x1B0E JUMPI JUMPDEST POP PUSH1 0x20 SWAP1 PUSH1 0x1F DUP4 GT PUSH1 0x1 EQ PUSH2 0x1A9C JUMPI PUSH1 0x0 SWAP3 PUSH2 0x1A91 JUMPI JUMPDEST POP POP DUP2 PUSH1 0x1 SHL SWAP2 PUSH1 0x0 NOT SWAP1 PUSH1 0x3 SHL SHR NOT AND OR PUSH1 0x7 DUP3 ADD SSTORE JUMPDEST PUSH2 0x100 PUSH2 0x3C0 MLOAD ADD MLOAD DUP1 MLOAD SWAP1 PUSH1 0x1 PUSH1 0x1 PUSH1 0x40 SHL SUB DUP3 GT PUSH2 0x126B JUMPI DUP2 SWAP1 PUSH2 0xC40 PUSH1 0x8 DUP6 ADD SLOAD PUSH2 0x24B4 JUMP JUMPDEST PUSH1 0x1F DUP2 GT PUSH2 0x1A3E JUMPI JUMPDEST POP PUSH1 0x20 SWAP1 PUSH1 0x1F DUP4 GT PUSH1 0x1 EQ PUSH2 0x19CC JUMPI PUSH1 0x0 SWAP3 PUSH2 0x19C1 JUMPI JUMPDEST POP POP DUP2 PUSH1 0x1 SHL SWAP2 PUSH1 0x0 NOT SWAP1 PUSH1 0x3 SHL SHR NOT AND OR PUSH1 0x8 DUP3 ADD SSTORE JUMPDEST PUSH2 0x120 PUSH2 0x3C0 MLOAD ADD MLOAD DUP1 MLOAD SWAP1 PUSH1 0x1 PUSH1 0x1 PUSH1 0x40 SHL SUB DUP3 GT PUSH2 0x126B JUMPI DUP2 SWAP1 PUSH2 0xCA1 PUSH1 0x9 DUP6 ADD SLOAD PUSH2 0x24B4 JUMP JUMPDEST PUSH1 0x1F DUP2 GT PUSH2 0x196E JUMPI JUMPDEST POP PUSH1 0x20 SWAP1 PUSH1 0x1F DUP4 GT PUSH1 0x1 EQ PUSH2 0x18FC JUMPI PUSH1 0x0 SWAP3 PUSH2 0x18F1 JUMPI JUMPDEST POP POP DUP2 PUSH1 0x1 SHL SWAP2 PUSH1 0x0 NOT SWAP1 PUSH1 0x3 SHL SHR NOT AND OR PUSH1 0x9 DUP3 ADD SSTORE JUMPDEST PUSH2 0x140 PUSH2 0x3C0 MLOAD ADD MLOAD DUP1 MLOAD SWAP1 PUSH1 0x1 PUSH1 0x1 PUSH1 0x40 SHL SUB DUP3 GT PUSH2 0x126B JUMPI DUP2 SWAP1 PUSH2 0xD02 PUSH1 0xA DUP6 ADD SLOAD PUSH2 0x24B4 JUMP JUMPDEST PUSH1 0x1F DUP2 GT PUSH2 0x189E JUMPI JUMPDEST POP PUSH1 0x20 SWAP1 PUSH1 0x1F DUP4 GT PUSH1 0x1 EQ PUSH2 0x182C JUMPI PUSH1 0x0 SWAP3 PUSH2 0x1821 JUMPI JUMPDEST POP POP DUP2 PUSH1 0x1 SHL SWAP2 PUSH1 0x0 NOT SWAP1 PUSH1 0x3 SHL SHR NOT AND OR PUSH1 0xA DUP3 ADD SSTORE JUMPDEST PUSH2 0x160 PUSH2 0x3C0 MLOAD ADD MLOAD DUP1 MLOAD SWAP1 PUSH1 0x1 PUSH1 0x1 PUSH1 0x40 SHL SUB DUP3 GT PUSH2 0x126B JUMPI DUP2 SWAP1 PUSH2 0xD63 PUSH1 0xB DUP6 ADD SLOAD PUSH2 0x24B4 JUMP JUMPDEST PUSH1 0x1F DUP2 GT PUSH2 0x17CE JUMPI JUMPDEST POP PUSH1 0x20 SWAP1 PUSH1 0x1F DUP4 GT PUSH1 0x1 EQ PUSH2 0x175C JUMPI PUSH1 0x0 SWAP3 PUSH2 0x1751 JUMPI JUMPDEST POP POP DUP2 PUSH1 0x1 SHL SWAP2 PUSH1 0x0 NOT SWAP1 PUSH1 0x3 SHL SHR NOT AND OR PUSH1 0xB DUP3 ADD SSTORE JUMPDEST PUSH2 0x180 PUSH2 0x3C0 MLOAD ADD MLOAD DUP1 MLOAD SWAP1 PUSH1 0x1 PUSH1 0x1 PUSH1 0x40 SHL SUB DUP3 GT PUSH2 0x126B JUMPI DUP2 SWAP1 PUSH2 0xDC4 PUSH1 0xC DUP6 ADD SLOAD PUSH2 0x24B4 JUMP JUMPDEST PUSH1 0x1F DUP2 GT PUSH2 0x16FE JUMPI JUMPDEST POP PUSH1 0x20 SWAP1 PUSH1 0x1F DUP4 GT PUSH1 0x1 EQ PUSH2 0x168C JUMPI PUSH1 0x0 SWAP3 PUSH2 0x1681 JUMPI JUMPDEST POP POP DUP2 PUSH1 0x1 SHL SWAP2 PUSH1 0x0 NOT SWAP1 PUSH1 0x3 SHL SHR NOT AND OR PUSH1 0xC DUP3 ADD SSTORE JUMPDEST PUSH2 0x1A0 PUSH2 0x3C0 MLOAD ADD MLOAD DUP1 MLOAD SWAP1 PUSH1 0x1 PUSH1 0x1 PUSH1 0x40 SHL SUB DUP3 GT PUSH2 0x126B JUMPI DUP2 SWAP1 PUSH2 0xE25 PUSH1 0xD DUP6 ADD SLOAD PUSH2 0x24B4 JUMP JUMPDEST PUSH1 0x1F DUP2 GT PUSH2 0x162E JUMPI JUMPDEST POP PUSH1 0x20 SWAP1 PUSH1 0x1F DUP4 GT PUSH1 0x1 EQ PUSH2 0x15BC JUMPI PUSH1 0x0 SWAP3 PUSH2 0x15B1 JUMPI JUMPDEST POP POP DUP2 PUSH1 0x1 SHL SWAP2 PUSH1 0x0 NOT SWAP1 PUSH1 0x3 SHL SHR NOT AND OR PUSH1 0xD DUP3 ADD SSTORE JUMPDEST PUSH2 0x1C0 PUSH2 0x3C0 MLOAD ADD MLOAD DUP1 MLOAD SWAP1 PUSH1 0x1 PUSH1 0x1 PUSH1 0x40 SHL SUB DUP3 GT PUSH2 0x126B JUMPI DUP2 SWAP1 PUSH2 0xE86 PUSH1 0xE DUP6 ADD SLOAD PUSH2 0x24B4 JUMP JUMPDEST PUSH1 0x1F DUP2 GT PUSH2 0x155E JUMPI JUMPDEST POP PUSH1 0x20 SWAP1 PUSH1 0x1F DUP4 GT PUSH1 0x1 EQ PUSH2 0x14EC JUMPI PUSH1 0x0 SWAP3 PUSH2 0x14E1 JUMPI JUMPDEST POP POP DUP2 PUSH1 0x1 SHL SWAP2 PUSH1 0x0 NOT SWAP1 PUSH1 0x3 SHL SHR NOT AND OR PUSH1 0xE DUP3 ADD SSTORE JUMPDEST PUSH2 0x1E0 PUSH2 0x3C0 MLOAD ADD MLOAD DUP1 MLOAD SWAP1 PUSH1 0x1 PUSH1 0x1 PUSH1 0x40 SHL SUB DUP3 GT PUSH2 0x126B JUMPI DUP2 SWAP1 PUSH2 0xEE7 PUSH1 0xF DUP6 ADD SLOAD PUSH2 0x24B4 JUMP JUMPDEST PUSH1 0x1F DUP2 GT PUSH2 0x148E JUMPI JUMPDEST POP PUSH1 0x20 SWAP1 PUSH1 0x1F DUP4 GT PUSH1 0x1 EQ PUSH2 0x141C JUMPI PUSH1 0x0 SWAP3 PUSH2 0x1411 JUMPI JUMPDEST POP POP DUP2 PUSH1 0x1 SHL SWAP2 PUSH1 0x0 NOT SWAP1 PUSH1 0x3 SHL SHR NOT AND OR PUSH1 0xF DUP3 ADD SSTORE JUMPDEST PUSH2 0x200 PUSH2 0x3C0 MLOAD ADD MLOAD DUP1 MLOAD SWAP1 PUSH1 0x1 PUSH1 0x1 PUSH1 0x40 SHL SUB DUP3 GT PUSH2 0x126B JUMPI DUP2 SWAP1 PUSH2 0xF48 PUSH1 0x10 DUP6 ADD SLOAD PUSH2 0x24B4 JUMP JUMPDEST PUSH1 0x1F DUP2 GT PUSH2 0x13BE JUMPI JUMPDEST POP PUSH1 0x20 SWAP1 PUSH1 0x1F DUP4 GT PUSH1 0x1 EQ PUSH2 0x134C JUMPI PUSH1 0x0 SWAP3 PUSH2 0x1341 JUMPI JUMPDEST POP POP DUP2 PUSH1 0x1 SHL SWAP2 PUSH1 0x0 NOT SWAP1 PUSH1 0x3 SHL SHR NOT AND OR PUSH1 0x10 DUP3 ADD SSTORE JUMPDEST PUSH2 0x220 PUSH2 0x3C0 MLOAD ADD MLOAD DUP1 MLOAD SWAP1 PUSH1 0x1 PUSH1 0x1 PUSH1 0x40 SHL SUB DUP3 GT PUSH2 0x126B JUMPI PUSH2 0xFA7 PUSH1 0x11 DUP5 ADD SLOAD PUSH2 0x24B4 JUMP JUMPDEST PUSH1 0x1F DUP2 GT PUSH2 0x12FA JUMPI JUMPDEST POP PUSH1 0x20 SWAP1 PUSH1 0x1F DUP4 GT PUSH1 0x1 EQ PUSH2 0x128C JUMPI PUSH1 0x11 SWAP3 SWAP2 PUSH1 0x0 SWAP2 DUP4 PUSH2 0x1281 JUMPI JUMPDEST POP POP DUP2 PUSH1 0x1 SHL SWAP2 PUSH1 0x0 NOT SWAP1 PUSH1 0x3 SHL SHR NOT AND OR SWAP2 ADD SSTORE JUMPDEST PUSH1 0x2 SLOAD PUSH9 0x10000000000000000 DUP2 LT ISZERO PUSH2 0x126B JUMPI DUP1 PUSH1 0x1 PUSH2 0x1006 SWAP3 ADD PUSH1 0x2 SSTORE PUSH2 0x2451 JUMP JUMPDEST DUP2 SLOAD SWAP1 PUSH1 0x3 SHL SWAP1 PUSH1 0x1 DUP1 PUSH1 0xA0 SHL SUB PUSH2 0x5C0 MLOAD AND DUP3 SHL SWAP2 PUSH1 0x1 DUP1 PUSH1 0xA0 SHL SUB SWAP1 SHL NOT AND OR SWAP1 SSTORE PUSH2 0x240 PUSH1 0x40 MLOAD DUP1 PUSH2 0x4E0 MSTORE MSTORE PUSH2 0x1215 PUSH2 0x11FB PUSH2 0x11E2 PUSH2 0x11C8 PUSH2 0x11AE PUSH2 0x1194 PUSH2 0x117A PUSH2 0x1160 PUSH2 0x1146 PUSH2 0x112C PUSH2 0x1114 PUSH2 0x10FB PUSH2 0x10E2 PUSH2 0x10C9 PUSH2 0x10B0 PUSH2 0x1097 PUSH2 0x107E PUSH2 0x240 PUSH2 0x4E0 MLOAD ADD PUSH2 0x3E0 MLOAD PUSH2 0x200 MLOAD PUSH2 0x2684 JUMP JUMPDEST PUSH2 0x4E0 MLOAD PUSH1 0x20 DUP2 DUP4 SUB SWAP2 ADD MSTORE PUSH2 0x4C0 MLOAD PUSH2 0x2E0 MLOAD PUSH2 0x2684 JUMP JUMPDEST PUSH2 0x4E0 MLOAD PUSH1 0x40 DUP2 DUP4 SUB SWAP2 ADD MSTORE PUSH2 0x340 MLOAD PUSH2 0x520 MLOAD PUSH2 0x2684 JUMP JUMPDEST PUSH2 0x4E0 MLOAD PUSH1 0x60 DUP2 DUP4 SUB SWAP2 ADD MSTORE PUSH2 0x380 MLOAD PUSH2 0x360 MLOAD PUSH2 0x2684 JUMP JUMPDEST PUSH2 0x4E0 MLOAD PUSH1 0x80 DUP2 DUP4 SUB SWAP2 ADD MSTORE PUSH2 0x1E0 MLOAD PUSH2 0x560 MLOAD PUSH2 0x2684 JUMP JUMPDEST PUSH2 0x4E0 MLOAD PUSH1 0xA0 DUP2 DUP4 SUB SWAP2 ADD MSTORE PUSH2 0x420 MLOAD PUSH2 0x540 MLOAD PUSH2 0x2684 JUMP JUMPDEST PUSH2 0x4E0 MLOAD PUSH1 0xC0 DUP2 DUP4 SUB SWAP2 ADD MSTORE PUSH2 0x160 MLOAD PUSH2 0x580 MLOAD PUSH2 0x2684 JUMP JUMPDEST PUSH2 0x4E0 MLOAD PUSH1 0xE0 DUP2 DUP4 SUB SWAP2 ADD MSTORE PUSH2 0x1C0 MLOAD PUSH1 0xA0 MLOAD PUSH2 0x2684 JUMP JUMPDEST PUSH2 0x4E0 MLOAD PUSH2 0x100 DUP2 DUP4 SUB SWAP2 ADD MSTORE PUSH2 0x220 MLOAD PUSH2 0x300 MLOAD PUSH2 0x2684 JUMP JUMPDEST PUSH2 0x4E0 MLOAD PUSH2 0x120 DUP2 DUP4 SUB SWAP2 ADD MSTORE PUSH2 0x480 MLOAD PUSH2 0x140 MLOAD PUSH2 0x2684 JUMP JUMPDEST PUSH2 0x4E0 MLOAD PUSH2 0x140 DUP2 DUP4 SUB SWAP2 ADD MSTORE PUSH2 0x440 MLOAD PUSH2 0x500 MLOAD PUSH2 0x2684 JUMP JUMPDEST PUSH2 0x4E0 MLOAD PUSH2 0x160 DUP2 DUP4 SUB SWAP2 ADD MSTORE PUSH2 0x240 MLOAD PUSH2 0x5E0 MLOAD PUSH2 0x2684 JUMP JUMPDEST PUSH2 0x4E0 MLOAD PUSH2 0x180 DUP2 DUP4 SUB SWAP2 ADD MSTORE PUSH2 0x5A0 MLOAD PUSH2 0x2C0 MLOAD PUSH2 0x2684 JUMP JUMPDEST PUSH2 0x4E0 MLOAD PUSH2 0x1A0 DUP2 DUP4 SUB SWAP2 ADD MSTORE PUSH2 0x460 MLOAD PUSH2 0x400 MLOAD PUSH2 0x2684 JUMP JUMPDEST PUSH2 0x4E0 MLOAD PUSH2 0x1C0 DUP2 DUP4 SUB SWAP2 ADD MSTORE PUSH2 0x320 MLOAD PUSH2 0x260 MLOAD PUSH2 0x2684 JUMP JUMPDEST PUSH2 0x4E0 MLOAD PUSH2 0x1E0 DUP2 DUP4 SUB SWAP2 ADD MSTORE PUSH2 0x2A0 MLOAD PUSH1 0x80 MLOAD PUSH2 0x2684 JUMP JUMPDEST PUSH2 0x4E0 MLOAD PUSH2 0x200 DUP2 DUP4 SUB SWAP2 ADD MSTORE PUSH2 0x180 MLOAD PUSH2 0x100 MLOAD PUSH2 0x2684 JUMP JUMPDEST PUSH2 0x4E0 MLOAD PUSH2 0x220 DUP2 DUP4 SUB SWAP2 ADD MSTORE PUSH31 0x215430C88C1B906FF61AC5553EB111EB14E0574BB23D4A715089FA73B732DF PUSH1 0x1 DUP1 PUSH1 0xA0 SHL SUB PUSH2 0x5C0 MLOAD AND SWAP2 PUSH2 0x1263 PUSH2 0x4E0 MLOAD SWAP2 PUSH2 0x1A0 MLOAD PUSH1 0xE0 MLOAD PUSH2 0x2684 JUMP JUMPDEST SUB PUSH2 0x4E0 MLOAD LOG2 STOP JUMPDEST PUSH4 0x4E487B71 PUSH1 0xE0 SHL PUSH1 0x0 MSTORE PUSH1 0x41 PUSH1 0x4 MSTORE PUSH1 0x24 PUSH1 0x0 REVERT JUMPDEST ADD MLOAD SWAP1 POP DUP5 DUP1 PUSH2 0xFCC JUMP JUMPDEST SWAP1 PUSH1 0x11 DUP5 ADD PUSH1 0x0 MSTORE PUSH1 0x20 PUSH1 0x0 KECCAK256 SWAP2 PUSH1 0x0 PUSH1 0x1F NOT DUP6 AND SWAP1 JUMPDEST DUP2 DUP2 LT PUSH2 0x12E2 JUMPI POP SWAP2 PUSH1 0x1 SWAP4 SWAP2 DUP6 PUSH1 0x11 SWAP7 SWAP5 LT PUSH2 0x12C9 JUMPI JUMPDEST POP POP POP DUP2 SHL ADD SWAP2 ADD SSTORE PUSH2 0xFE2 JUMP JUMPDEST ADD MLOAD PUSH1 0x0 NOT PUSH1 0xF8 DUP5 PUSH1 0x3 SHL AND SHR NOT AND SWAP1 SSTORE DUP5 DUP1 DUP1 PUSH2 0x12BB JUMP JUMPDEST SWAP3 SWAP4 PUSH1 0x20 PUSH1 0x1 DUP2 SWAP3 DUP8 DUP7 ADD MLOAD DUP2 SSTORE ADD SWAP6 ADD SWAP4 ADD PUSH2 0x12A3 JUMP JUMPDEST PUSH1 0x11 DUP5 ADD PUSH1 0x0 MSTORE PUSH1 0x20 PUSH1 0x0 KECCAK256 PUSH1 0x1F DUP5 ADD PUSH1 0x5 SHR DUP2 ADD PUSH1 0x20 DUP6 LT PUSH2 0x133A JUMPI JUMPDEST PUSH1 0x1F DUP4 ADD PUSH1 0x5 SHR DUP3 ADD DUP2 LT PUSH2 0x132E JUMPI POP POP PUSH2 0xFB0 JUMP JUMPDEST PUSH1 0x0 DUP2 SSTORE PUSH1 0x1 ADD PUSH2 0x1318 JUMP JUMPDEST POP DUP1 PUSH2 0x1318 JUMP JUMPDEST ADD MLOAD SWAP1 POP DUP4 DUP1 PUSH2 0xF68 JUMP JUMPDEST SWAP3 POP PUSH1 0x10 DUP5 ADD PUSH1 0x0 MSTORE PUSH1 0x20 PUSH1 0x0 KECCAK256 SWAP1 PUSH1 0x0 SWAP4 JUMPDEST PUSH1 0x1F NOT DUP5 AND DUP6 LT PUSH2 0x13A3 JUMPI PUSH1 0x1 SWAP5 POP DUP4 PUSH1 0x1F NOT DUP2 AND LT PUSH2 0x138A JUMPI JUMPDEST POP POP POP DUP2 SHL ADD PUSH1 0x10 DUP3 ADD SSTORE PUSH2 0xF80 JUMP JUMPDEST ADD MLOAD PUSH1 0x0 NOT PUSH1 0xF8 DUP5 PUSH1 0x3 SHL AND SHR NOT AND SWAP1 SSTORE DUP4 DUP1 DUP1 PUSH2 0x137A JUMP JUMPDEST DUP2 DUP2 ADD MLOAD DUP4 SSTORE PUSH1 0x20 SWAP5 DUP6 ADD SWAP5 PUSH1 0x1 SWAP1 SWAP4 ADD SWAP3 SWAP1 SWAP2 ADD SWAP1 PUSH2 0x135F JUMP JUMPDEST SWAP1 SWAP2 POP PUSH1 0x10 DUP5 ADD PUSH1 0x0 MSTORE PUSH1 0x20 PUSH1 0x0 KECCAK256 PUSH1 0x1F DUP5 ADD PUSH1 0x5 SHR DUP2 ADD PUSH1 0x20 DUP6 LT PUSH2 0x140A JUMPI JUMPDEST SWAP1 DUP5 SWAP4 SWAP3 SWAP2 JUMPDEST PUSH1 0x1F DUP4 ADD PUSH1 0x5 SHR DUP3 ADD DUP2 LT PUSH2 0x13FB JUMPI POP POP PUSH2 0xF51 JUMP JUMPDEST PUSH1 0x0 DUP2 SSTORE DUP6 SWAP5 POP PUSH1 0x1 ADD PUSH2 0x13E5 JUMP JUMPDEST POP DUP1 PUSH2 0x13DF JUMP JUMPDEST ADD MLOAD SWAP1 POP DUP4 DUP1 PUSH2 0xF07 JUMP JUMPDEST SWAP3 POP PUSH1 0xF DUP5 ADD PUSH1 0x0 MSTORE PUSH1 0x20 PUSH1 0x0 KECCAK256 SWAP1 PUSH1 0x0 SWAP4 JUMPDEST PUSH1 0x1F NOT DUP5 AND DUP6 LT PUSH2 0x1473 JUMPI PUSH1 0x1 SWAP5 POP DUP4 PUSH1 0x1F NOT DUP2 AND LT PUSH2 0x145A JUMPI JUMPDEST POP POP POP DUP2 SHL ADD PUSH1 0xF DUP3 ADD SSTORE PUSH2 0xF1F JUMP JUMPDEST ADD MLOAD PUSH1 0x0 NOT PUSH1 0xF8 DUP5 PUSH1 0x3 SHL AND SHR NOT AND SWAP1 SSTORE DUP4 DUP1 DUP1 PUSH2 0x144A JUMP JUMPDEST DUP2 DUP2 ADD MLOAD DUP4 SSTORE PUSH1 0x20 SWAP5 DUP6 ADD SWAP5 PUSH1 0x1 SWAP1 SWAP4 ADD SWAP3 SWAP1 SWAP2 ADD SWAP1 PUSH2 0x142F JUMP JUMPDEST SWAP1 SWAP2 POP PUSH1 0xF DUP5 ADD PUSH1 0x0 MSTORE PUSH1 0x20 PUSH1 0x0 KECCAK256 PUSH1 0x1F DUP5 ADD PUSH1 0x5 SHR DUP2 ADD PUSH1 0x20 DUP6 LT PUSH2 0x14DA JUMPI JUMPDEST SWAP1 DUP5 SWAP4 SWAP3 SWAP2 JUMPDEST PUSH1 0x1F DUP4 ADD PUSH1 0x5 SHR DUP3 ADD DUP2 LT PUSH2 0x14CB JUMPI POP POP PUSH2 0xEF0 JUMP JUMPDEST PUSH1 0x0 DUP2 SSTORE DUP6 SWAP5 POP PUSH1 0x1 ADD PUSH2 0x14B5 JUMP JUMPDEST POP DUP1 PUSH2 0x14AF JUMP JUMPDEST ADD MLOAD SWAP1 POP DUP4 DUP1 PUSH2 0xEA6 JUMP JUMPDEST SWAP3 POP PUSH1 0xE DUP5 ADD PUSH1 0x0 MSTORE PUSH1 0x20 PUSH1 0x0 KECCAK256 SWAP1 PUSH1 0x0 SWAP4 JUMPDEST PUSH1 0x1F NOT DUP5 AND DUP6 LT PUSH2 0x1543 JUMPI PUSH1 0x1 SWAP5 POP DUP4 PUSH1 0x1F NOT DUP2 AND LT PUSH2 0x152A JUMPI JUMPDEST POP POP POP DUP2 SHL ADD PUSH1 0xE DUP3 ADD SSTORE PUSH2 0xEBE JUMP JUMPDEST ADD MLOAD PUSH1 0x0 NOT PUSH1 0xF8 DUP5 PUSH1 0x3 SHL AND SHR NOT AND SWAP1 SSTORE DUP4 DUP1 DUP1 PUSH2 0x151A JUMP JUMPDEST DUP2 DUP2 ADD MLOAD DUP4 SSTORE PUSH1 0x20 SWAP5 DUP6 ADD SWAP5 PUSH1 0x1 SWAP1 SWAP4 ADD SWAP3 SWAP1 SWAP2 ADD SWAP1 PUSH2 0x14FF JUMP JUMPDEST SWAP1 SWAP2 POP PUSH1 0xE DUP5 ADD PUSH1 0x0 MSTORE PUSH1 0x20 PUSH1 0x0 KECCAK256 PUSH1 0x1F DUP5 ADD PUSH1 0x5 SHR DUP2 ADD PUSH1 0x20 DUP6 LT PUSH2 0x15AA JUMPI JUMPDEST SWAP1 DUP5 SWAP4 SWAP3 SWAP2 JUMPDEST PUSH1 0x1F DUP4 ADD PUSH1 0x5 SHR DUP3 ADD DUP2 LT PUSH2 0x159B JUMPI POP POP PUSH2 0xE8F JUMP JUMPDEST PUSH1 0x0 DUP2 SSTORE DUP6 SWAP5 POP PUSH1 0x1 ADD PUSH2 0x1585 JUMP JUMPDEST POP DUP1 PUSH2 0x157F JUMP JUMPDEST ADD MLOAD SWAP1 POP DUP4 DUP1 PUSH2 0xE45 JUMP JUMPDEST SWAP3 POP PUSH1 0xD DUP5 ADD PUSH1 0x0 MSTORE PUSH1 0x20 PUSH1 0x0 KECCAK256 SWAP1 PUSH1 0x0 SWAP4 JUMPDEST PUSH1 0x1F NOT DUP5 AND DUP6 LT PUSH2 0x1613 JUMPI PUSH1 0x1 SWAP5 POP DUP4 PUSH1 0x1F NOT DUP2 AND LT PUSH2 0x15FA JUMPI JUMPDEST POP POP POP DUP2 SHL ADD PUSH1 0xD DUP3 ADD SSTORE PUSH2 0xE5D JUMP JUMPDEST ADD MLOAD PUSH1 0x0 NOT PUSH1 0xF8 DUP5 PUSH1 0x3 SHL AND SHR NOT AND SWAP1 SSTORE DUP4 DUP1 DUP1 PUSH2 0x15EA JUMP JUMPDEST DUP2 DUP2 ADD MLOAD DUP4 SSTORE PUSH1 0x20 SWAP5 DUP6 ADD SWAP5 PUSH1 0x1 SWAP1 SWAP4 ADD SWAP3 SWAP1 SWAP2 ADD SWAP1 PUSH2 0x15CF JUMP JUMPDEST SWAP1 SWAP2 POP PUSH1 0xD DUP5 ADD PUSH1 0x0 MSTORE PUSH1 0x20 PUSH1 0x0 KECCAK256 PUSH1 0x1F DUP5 ADD PUSH1 0x5 SHR DUP2 ADD PUSH1 0x20 DUP6 LT PUSH2 0x167A JUMPI JUMPDEST SWAP1 DUP5 SWAP4 SWAP3 SWAP2 JUMPDEST PUSH1 0x1F DUP4 ADD PUSH1 0x5 SHR DUP3 ADD DUP2 LT PUSH2 0x166B JUMPI POP POP PUSH2 0xE2E JUMP JUMPDEST PUSH1 0x0 DUP2 SSTORE DUP6 SWAP5 POP PUSH1 0x1 ADD PUSH2 0x1655 JUMP JUMPDEST POP DUP1 PUSH2 0x164F JUMP JUMPDEST ADD MLOAD SWAP1 POP DUP4 DUP1 PUSH2 0xDE4 JUMP JUMPDEST SWAP3 POP PUSH1 0xC DUP5 ADD PUSH1 0x0 MSTORE PUSH1 0x20 PUSH1 0x0 KECCAK256 SWAP1 PUSH1 0x0 SWAP4 JUMPDEST PUSH1 0x1F NOT DUP5 AND DUP6 LT PUSH2 0x16E3 JUMPI PUSH1 0x1 SWAP5 POP DUP4 PUSH1 0x1F NOT DUP2 AND LT PUSH2 0x16CA JUMPI JUMPDEST POP POP POP DUP2 SHL ADD PUSH1 0xC DUP3 ADD SSTORE PUSH2 0xDFC JUMP JUMPDEST ADD MLOAD PUSH1 0x0 NOT PUSH1 0xF8 DUP5 PUSH1 0x3 SHL AND SHR NOT AND SWAP1 SSTORE DUP4 DUP1 DUP1 PUSH2 0x16BA JUMP JUMPDEST DUP2 DUP2 ADD MLOAD DUP4 SSTORE PUSH1 0x20 SWAP5 DUP6 ADD SWAP5 PUSH1 0x1 SWAP1 SWAP4 ADD SWAP3 SWAP1 SWAP2 ADD SWAP1 PUSH2 0x169F JUMP JUMPDEST SWAP1 SWAP2 POP PUSH1 0xC DUP5 ADD PUSH1 0x0 MSTORE PUSH1 0x20 PUSH1 0x0 KECCAK256 PUSH1 0x1F DUP5 ADD PUSH1 0x5 SHR DUP2 ADD PUSH1 0x20 DUP6 LT PUSH2 0x174A JUMPI JUMPDEST SWAP1 DUP5 SWAP4 SWAP3 SWAP2 JUMPDEST PUSH1 0x1F DUP4 ADD PUSH1 0x5 SHR DUP3 ADD DUP2 LT PUSH2 0x173B JUMPI POP POP PUSH2 0xDCD JUMP JUMPDEST PUSH1 0x0 DUP2 SSTORE DUP6 SWAP5 POP PUSH1 0x1 ADD PUSH2 0x1725 JUMP JUMPDEST POP DUP1 PUSH2 0x171F JUMP JUMPDEST ADD MLOAD SWAP1 POP DUP4 DUP1 PUSH2 0xD83 JUMP JUMPDEST SWAP3 POP PUSH1 0xB DUP5 ADD PUSH1 0x0 MSTORE PUSH1 0x20 PUSH1 0x0 KECCAK256 SWAP1 PUSH1 0x0 SWAP4 JUMPDEST PUSH1 0x1F NOT DUP5 AND DUP6 LT PUSH2 0x17B3 JUMPI PUSH1 0x1 SWAP5 POP DUP4 PUSH1 0x1F NOT DUP2 AND LT PUSH2 0x179A JUMPI JUMPDEST POP POP POP DUP2 SHL ADD PUSH1 0xB DUP3 ADD SSTORE PUSH2 0xD9B JUMP JUMPDEST ADD MLOAD PUSH1 0x0 NOT PUSH1 0xF8 DUP5 PUSH1 0x3 SHL AND SHR NOT AND SWAP1 SSTORE DUP4 DUP1 DUP1 PUSH2 0x178A JUMP JUMPDEST DUP2 DUP2 ADD MLOAD DUP4 SSTORE PUSH1 0x20 SWAP5 DUP6 ADD SWAP5 PUSH1 0x1 SWAP1 SWAP4 ADD SWAP3 SWAP1 SWAP2 ADD SWAP1 PUSH2 0x176F JUMP JUMPDEST SWAP1 SWAP2 POP PUSH1 0xB DUP5 ADD PUSH1 0x0 MSTORE PUSH1 0x20 PUSH1 0x0 KECCAK256 PUSH1 0x1F DUP5 ADD PUSH1 0x5 SHR DUP2 ADD PUSH1 0x20 DUP6 LT PUSH2 0x181A JUMPI JUMPDEST SWAP1 DUP5 SWAP4 SWAP3 SWAP2 JUMPDEST PUSH1 0x1F DUP4 ADD PUSH1 0x5 SHR DUP3 ADD DUP2 LT PUSH2 0x180B JUMPI POP POP PUSH2 0xD6C JUMP JUMPDEST PUSH1 0x0 DUP2 SSTORE DUP6 SWAP5 POP PUSH1 0x1 ADD PUSH2 0x17F5 JUMP JUMPDEST POP DUP1 PUSH2 0x17EF JUMP JUMPDEST ADD MLOAD SWAP1 POP DUP4 DUP1 PUSH2 0xD22 JUMP JUMPDEST SWAP3 POP PUSH1 0xA DUP5 ADD PUSH1 0x0 MSTORE PUSH1 0x20 PUSH1 0x0 KECCAK256 SWAP1 PUSH1 0x0 SWAP4 JUMPDEST PUSH1 0x1F NOT DUP5 AND DUP6 LT PUSH2 0x1883 JUMPI PUSH1 0x1 SWAP5 POP DUP4 PUSH1 0x1F NOT DUP2 AND LT PUSH2 0x186A JUMPI JUMPDEST POP POP POP DUP2 SHL ADD PUSH1 0xA DUP3 ADD SSTORE PUSH2 0xD3A JUMP JUMPDEST ADD MLOAD PUSH1 0x0 NOT PUSH1 0xF8 DUP5 PUSH1 0x3 SHL AND SHR NOT AND SWAP1 SSTORE DUP4 DUP1 DUP1 PUSH2 0x185A JUMP JUMPDEST DUP2 DUP2 ADD MLOAD DUP4 SSTORE PUSH1 0x20 SWAP5 DUP6 ADD SWAP5 PUSH1 0x1 SWAP1 SWAP4 ADD SWAP3 SWAP1 SWAP2 ADD SWAP1 PUSH2 0x183F JUMP JUMPDEST SWAP1 SWAP2 POP PUSH1 0xA DUP5 ADD PUSH1 0x0 MSTORE PUSH1 0x20 PUSH1 0x0 KECCAK256 PUSH1 0x1F DUP5 ADD PUSH1 0x5 SHR DUP2 ADD PUSH1 0x20 DUP6 LT PUSH2 0x18EA JUMPI JUMPDEST SWAP1 DUP5 SWAP4 SWAP3 SWAP2 JUMPDEST PUSH1 0x1F DUP4 ADD PUSH1 0x5 SHR DUP3 ADD DUP2 LT PUSH2 0x18DB JUMPI POP POP PUSH2 0xD0B JUMP JUMPDEST PUSH1 0x0 DUP2 SSTORE DUP6 SWAP5 POP PUSH1 0x1 ADD PUSH2 0x18C5 JUMP JUMPDEST POP DUP1 PUSH2 0x18BF JUMP JUMPDEST ADD MLOAD SWAP1 POP DUP4 DUP1 PUSH2 0xCC1 JUMP JUMPDEST SWAP3 POP PUSH1 0x9 DUP5 ADD PUSH1 0x0 MSTORE PUSH1 0x20 PUSH1 0x0 KECCAK256 SWAP1 PUSH1 0x0 SWAP4 JUMPDEST PUSH1 0x1F NOT DUP5 AND DUP6 LT PUSH2 0x1953 JUMPI PUSH1 0x1 SWAP5 POP DUP4 PUSH1 0x1F NOT DUP2 AND LT PUSH2 0x193A JUMPI JUMPDEST POP POP POP DUP2 SHL ADD PUSH1 0x9 DUP3 ADD SSTORE PUSH2 0xCD9 JUMP JUMPDEST ADD MLOAD PUSH1 0x0 NOT PUSH1 0xF8 DUP5 PUSH1 0x3 SHL AND SHR NOT AND SWAP1 SSTORE DUP4 DUP1 DUP1 PUSH2 0x192A JUMP JUMPDEST DUP2 DUP2 ADD MLOAD DUP4 SSTORE PUSH1 0x20 SWAP5 DUP6 ADD SWAP5 PUSH1 0x1 SWAP1 SWAP4 ADD SWAP3 SWAP1 SWAP2 ADD SWAP1 PUSH2 0x190F JUMP JUMPDEST SWAP1 SWAP2 POP PUSH1 0x9 DUP5 ADD PUSH1 0x0 MSTORE PUSH1 0x20 PUSH1 0x0 KECCAK256 PUSH1 0x1F DUP5 ADD PUSH1 0x5 SHR DUP2 ADD PUSH1 0x20 DUP6 LT PUSH2 0x19BA JUMPI JUMPDEST SWAP1 DUP5 SWAP4 SWAP3 SWAP2 JUMPDEST PUSH1 0x1F DUP4 ADD PUSH1 0x5 SHR DUP3 ADD DUP2 LT PUSH2 0x19AB JUMPI POP POP PUSH2 0xCAA JUMP JUMPDEST PUSH1 0x0 DUP2 SSTORE DUP6 SWAP5 POP PUSH1 0x1 ADD PUSH2 0x1995 JUMP JUMPDEST POP DUP1 PUSH2 0x198F JUMP JUMPDEST ADD MLOAD SWAP1 POP DUP4 DUP1 PUSH2 0xC60 JUMP JUMPDEST SWAP3 POP PUSH1 0x8 DUP5 ADD PUSH1 0x0 MSTORE PUSH1 0x20 PUSH1 0x0 KECCAK256 SWAP1 PUSH1 0x0 SWAP4 JUMPDEST PUSH1 0x1F NOT DUP5 AND DUP6 LT PUSH2 0x1A23 JUMPI PUSH1 0x1 SWAP5 POP DUP4 PUSH1 0x1F NOT DUP2 AND LT PUSH2 0x1A0A JUMPI JUMPDEST POP POP POP DUP2 SHL ADD PUSH1 0x8 DUP3 ADD SSTORE PUSH2 0xC78 JUMP JUMPDEST ADD MLOAD PUSH1 0x0 NOT PUSH1 0xF8 DUP5 PUSH1 0x3 SHL AND SHR NOT AND SWAP1 SSTORE DUP4 DUP1 DUP1 PUSH2 0x19FA JUMP JUMPDEST DUP2 DUP2 ADD MLOAD DUP4 SSTORE PUSH1 0x20 SWAP5 DUP6 ADD SWAP5 PUSH1 0x1 SWAP1 SWAP4 ADD SWAP3 SWAP1 SWAP2 ADD SWAP1 PUSH2 0x19DF JUMP JUMPDEST SWAP1 SWAP2 POP PUSH1 0x8 DUP5 ADD PUSH1 0x0 MSTORE PUSH1 0x20 PUSH1 0x0 KECCAK256 PUSH1 0x1F DUP5 ADD PUSH1 0x5 SHR DUP2 ADD PUSH1 0x20 DUP6 LT PUSH2 0x1A8A JUMPI JUMPDEST SWAP1 DUP5 SWAP4 SWAP3 SWAP2 JUMPDEST PUSH1 0x1F DUP4 ADD PUSH1 0x5 SHR DUP3 ADD DUP2 LT PUSH2 0x1A7B JUMPI POP POP PUSH2 0xC49 JUMP JUMPDEST PUSH1 0x0 DUP2 SSTORE DUP6 SWAP5 POP PUSH1 0x1 ADD PUSH2 0x1A65 JUMP JUMPDEST POP DUP1 PUSH2 0x1A5F JUMP JUMPDEST ADD MLOAD SWAP1 POP DUP4 DUP1 PUSH2 0xBFF JUMP JUMPDEST SWAP3 POP PUSH1 0x7 DUP5 ADD PUSH1 0x0 MSTORE PUSH1 0x20 PUSH1 0x0 KECCAK256 SWAP1 PUSH1 0x0 SWAP4 JUMPDEST PUSH1 0x1F NOT DUP5 AND DUP6 LT PUSH2 0x1AF3 JUMPI PUSH1 0x1 SWAP5 POP DUP4 PUSH1 0x1F NOT DUP2 AND LT PUSH2 0x1ADA JUMPI JUMPDEST POP POP POP DUP2 SHL ADD PUSH1 0x7 DUP3 ADD SSTORE PUSH2 0xC17 JUMP JUMPDEST ADD MLOAD PUSH1 0x0 NOT PUSH1 0xF8 DUP5 PUSH1 0x3 SHL AND SHR NOT AND SWAP1 SSTORE DUP4 DUP1 DUP1 PUSH2 0x1ACA JUMP JUMPDEST DUP2 DUP2 ADD MLOAD DUP4 SSTORE PUSH1 0x20 SWAP5 DUP6 ADD SWAP5 PUSH1 0x1 SWAP1 SWAP4 ADD SWAP3 SWAP1 SWAP2 ADD SWAP1 PUSH2 0x1AAF JUMP JUMPDEST SWAP1 SWAP2 POP PUSH1 0x7 DUP5 ADD PUSH1 0x0 MSTORE PUSH1 0x20 PUSH1 0x0 KECCAK256 PUSH1 0x1F DUP5 ADD PUSH1 0x5 SHR DUP2 ADD PUSH1 0x20 DUP6 LT PUSH2 0x1B5A JUMPI JUMPDEST SWAP1 DUP5 SWAP4 SWAP3 SWAP2 JUMPDEST PUSH1 0x1F DUP4 ADD PUSH1 0x5 SHR DUP3 ADD DUP2 LT PUSH2 0x1B4B JUMPI POP POP PUSH2 0xBE8 JUMP JUMPDEST PUSH1 0x0 DUP2 SSTORE DUP6 SWAP5 POP PUSH1 0x1 ADD PUSH2 0x1B35 JUMP JUMPDEST POP DUP1 PUSH2 0x1B2F JUMP JUMPDEST ADD MLOAD SWAP1 POP DUP4 DUP1 PUSH2 0xB9F JUMP JUMPDEST SWAP3 POP PUSH1 0x6 DUP5 ADD PUSH1 0x0 MSTORE PUSH1 0x20 PUSH1 0x0 KECCAK256 SWAP1 PUSH1 0x0 SWAP4 JUMPDEST PUSH1 0x1F NOT DUP5 AND DUP6 LT PUSH2 0x1BC3 JUMPI PUSH1 0x1 SWAP5 POP DUP4 PUSH1 0x1F NOT DUP2 AND LT PUSH2 0x1BAA JUMPI JUMPDEST POP POP POP DUP2 SHL ADD PUSH1 0x6 DUP3 ADD SSTORE PUSH2 0xBB7 JUMP JUMPDEST ADD MLOAD PUSH1 0x0 NOT PUSH1 0xF8 DUP5 PUSH1 0x3 SHL AND SHR NOT AND SWAP1 SSTORE DUP4 DUP1 DUP1 PUSH2 0x1B9A JUMP JUMPDEST DUP2 DUP2 ADD MLOAD DUP4 SSTORE PUSH1 0x20 SWAP5 DUP6 ADD SWAP5 PUSH1 0x1 SWAP1 SWAP4 ADD SWAP3 SWAP1 SWAP2 ADD SWAP1 PUSH2 0x1B7F JUMP JUMPDEST SWAP1 SWAP2 POP PUSH1 0x6 DUP5 ADD PUSH1 0x0 MSTORE PUSH1 0x20 PUSH1 0x0 KECCAK256 PUSH1 0x1F DUP5 ADD PUSH1 0x5 SHR DUP2 ADD PUSH1 0x20 DUP6 LT PUSH2 0x1C2A JUMPI JUMPDEST SWAP1 DUP5 SWAP4 SWAP3 SWAP2 JUMPDEST PUSH1 0x1F DUP4 ADD PUSH1 0x5 SHR DUP3 ADD DUP2 LT PUSH2 0x1C1B JUMPI POP POP PUSH2 0xB88 JUMP JUMPDEST PUSH1 0x0 DUP2 SSTORE DUP6 SWAP5 POP PUSH1 0x1 ADD PUSH2 0x1C05 JUMP JUMPDEST POP DUP1 PUSH2 0x1BFF JUMP JUMPDEST ADD MLOAD SWAP1 POP DUP4 DUP1 PUSH2 0xB3F JUMP JUMPDEST SWAP3 POP PUSH1 0x5 DUP5 ADD PUSH1 0x0 MSTORE PUSH1 0x20 PUSH1 0x0 KECCAK256 SWAP1 PUSH1 0x0 SWAP4 JUMPDEST PUSH1 0x1F NOT DUP5 AND DUP6 LT PUSH2 0x1C93 JUMPI PUSH1 0x1 SWAP5 POP DUP4 PUSH1 0x1F NOT DUP2 AND LT PUSH2 0x1C7A JUMPI JUMPDEST POP POP POP DUP2 SHL ADD PUSH1 0x5 DUP3 ADD SSTORE PUSH2 0xB57 JUMP JUMPDEST ADD MLOAD PUSH1 0x0 NOT PUSH1 0xF8 DUP5 PUSH1 0x3 SHL AND SHR NOT AND SWAP1 SSTORE DUP4 DUP1 DUP1 PUSH2 0x1C6A JUMP JUMPDEST DUP2 DUP2 ADD MLOAD DUP4 SSTORE PUSH1 0x20 SWAP5 DUP6 ADD SWAP5 PUSH1 0x1 SWAP1 SWAP4 ADD SWAP3 SWAP1 SWAP2 ADD SWAP1 PUSH2 0x1C4F JUMP JUMPDEST SWAP1 SWAP2 POP PUSH1 0x5 DUP5 ADD PUSH1 0x0 MSTORE PUSH1 0x20 PUSH1 0x0 KECCAK256 PUSH1 0x1F DUP5 ADD PUSH1 0x5 SHR DUP2 ADD PUSH1 0x20 DUP6 LT PUSH2 0x1CFA JUMPI JUMPDEST SWAP1 DUP5 SWAP4 SWAP3 SWAP2 JUMPDEST PUSH1 0x1F DUP4 ADD PUSH1 0x5 SHR DUP3 ADD DUP2 LT PUSH2 0x1CEB JUMPI POP POP PUSH2 0xB28 JUMP JUMPDEST PUSH1 0x0 DUP2 SSTORE DUP6 SWAP5 POP PUSH1 0x1 ADD PUSH2 0x1CD5 JUMP JUMPDEST POP DUP1 PUSH2 0x1CCF JUMP JUMPDEST ADD MLOAD SWAP1 POP DUP4 DUP1 PUSH2 0xADF JUMP JUMPDEST SWAP3 POP PUSH1 0x4 DUP5 ADD PUSH1 0x0 MSTORE PUSH1 0x20 PUSH1 0x0 KECCAK256 SWAP1 PUSH1 0x0 SWAP4 JUMPDEST PUSH1 0x1F NOT DUP5 AND DUP6 LT PUSH2 0x1D63 JUMPI PUSH1 0x1 SWAP5 POP DUP4 PUSH1 0x1F NOT DUP2 AND LT PUSH2 0x1D4A JUMPI JUMPDEST POP POP POP DUP2 SHL ADD PUSH1 0x4 DUP3 ADD SSTORE PUSH2 0xAF7 JUMP JUMPDEST ADD MLOAD PUSH1 0x0 NOT PUSH1 0xF8 DUP5 PUSH1 0x3 SHL AND SHR NOT AND SWAP1 SSTORE DUP4 DUP1 DUP1 PUSH2 0x1D3A JUMP JUMPDEST DUP2 DUP2 ADD MLOAD DUP4 SSTORE PUSH1 0x20 SWAP5 DUP6 ADD SWAP5 PUSH1 0x1 SWAP1 SWAP4 ADD SWAP3 SWAP1 SWAP2 ADD SWAP1 PUSH2 0x1D1F JUMP JUMPDEST SWAP1 SWAP2 POP PUSH1 0x4 DUP5 ADD PUSH1 0x0 MSTORE PUSH1 0x20 PUSH1 0x0 KECCAK256 PUSH1 0x1F DUP5 ADD PUSH1 0x5 SHR DUP2 ADD PUSH1 0x20 DUP6 LT PUSH2 0x1DCA JUMPI JUMPDEST SWAP1 DUP5 SWAP4 SWAP3 SWAP2 JUMPDEST PUSH1 0x1F DUP4 ADD PUSH1 0x5 SHR DUP3 ADD DUP2 LT PUSH2 0x1DBB JUMPI POP POP PUSH2 0xAC8 JUMP JUMPDEST PUSH1 0x0 DUP2 SSTORE DUP6 SWAP5 POP PUSH1 0x1 ADD PUSH2 0x1DA5 JUMP JUMPDEST POP DUP1 PUSH2 0x1D9F JUMP JUMPDEST ADD MLOAD SWAP1 POP DUP4 DUP1 PUSH2 0xA7F JUMP JUMPDEST SWAP3 POP PUSH1 0x3 DUP5 ADD PUSH1 0x0 MSTORE PUSH1 0x20 PUSH1 0x0 KECCAK256 SWAP1 PUSH1 0x0 SWAP4 JUMPDEST PUSH1 0x1F NOT DUP5 AND DUP6 LT PUSH2 0x1E33 JUMPI PUSH1 0x1 SWAP5 POP DUP4 PUSH1 0x1F NOT DUP2 AND LT PUSH2 0x1E1A JUMPI JUMPDEST POP POP POP DUP2 SHL ADD PUSH1 0x3 DUP3 ADD SSTORE PUSH2 0xA97 JUMP JUMPDEST ADD MLOAD PUSH1 0x0 NOT PUSH1 0xF8 DUP5 PUSH1 0x3 SHL AND SHR NOT AND SWAP1 SSTORE DUP4 DUP1 DUP1 PUSH2 0x1E0A JUMP JUMPDEST DUP2 DUP2 ADD MLOAD DUP4 SSTORE PUSH1 0x20 SWAP5 DUP6 ADD SWAP5 PUSH1 0x1 SWAP1 SWAP4 ADD SWAP3 SWAP1 SWAP2 ADD SWAP1 PUSH2 0x1DEF JUMP JUMPDEST SWAP1 SWAP2 POP PUSH1 0x3 DUP5 ADD PUSH1 0x0 MSTORE PUSH1 0x20 PUSH1 0x0 KECCAK256 PUSH1 0x1F DUP5 ADD PUSH1 0x5 SHR DUP2 ADD PUSH1 0x20 DUP6 LT PUSH2 0x1E9A JUMPI JUMPDEST SWAP1 DUP5 SWAP4 SWAP3 SWAP2 JUMPDEST PUSH1 0x1F DUP4 ADD PUSH1 0x5 SHR DUP3 ADD DUP2 LT PUSH2 0x1E8B JUMPI POP POP PUSH2 0xA68 JUMP JUMPDEST PUSH1 0x0 DUP2 SSTORE DUP6 SWAP5 POP PUSH1 0x1 ADD PUSH2 0x1E75 JUMP JUMPDEST POP DUP1 PUSH2 0x1E6F JUMP JUMPDEST ADD MLOAD SWAP1 POP DUP4 DUP1 PUSH2 0xA1F JUMP JUMPDEST PUSH1 0x2 DUP4 ADD PUSH1 0x0 MSTORE PUSH1 0x20 PUSH1 0x0 KECCAK256 SWAP1 PUSH1 0x0 SWAP5 PUSH1 0x1F NOT DUP5 AND SWAP6 JUMPDEST DUP7 DUP2 LT PUSH2 0x1EFF JUMPI POP DUP4 PUSH1 0x1 SWAP6 SWAP7 LT PUSH2 0x1EE6 JUMPI JUMPDEST POP POP POP DUP2 SHL ADD PUSH1 0x2 DUP3 ADD SSTORE PUSH2 0xA37 JUMP JUMPDEST ADD MLOAD PUSH1 0x0 NOT PUSH1 0xF8 DUP5 PUSH1 0x3 SHL AND SHR NOT AND SWAP1 SSTORE DUP4 DUP1 DUP1 PUSH2 0x1ED6 JUMP JUMPDEST SWAP2 SWAP3 PUSH1 0x20 PUSH1 0x1 DUP2 SWAP3 DUP7 DUP6 ADD MLOAD DUP2 SSTORE ADD SWAP5 ADD SWAP3 ADD PUSH2 0x1EC3 JUMP JUMPDEST PUSH1 0x2 DUP4 ADD PUSH1 0x0 MSTORE PUSH1 0x20 PUSH1 0x0 KECCAK256 PUSH1 0x1F DUP4 ADD PUSH1 0x5 SHR DUP2 ADD PUSH1 0x20 DUP5 LT PUSH2 0x1F57 JUMPI JUMPDEST PUSH1 0x1F DUP4 ADD PUSH1 0x5 SHR DUP3 ADD DUP2 LT PUSH2 0x1F4B JUMPI POP POP PUSH2 0xA06 JUMP JUMPDEST PUSH1 0x0 DUP2 SSTORE PUSH1 0x1 ADD PUSH2 0x1F35 JUMP JUMPDEST POP DUP1 PUSH2 0x1F35 JUMP JUMPDEST ADD MLOAD SWAP1 POP DUP4 DUP1 PUSH2 0x9BF JUMP JUMPDEST PUSH1 0x1 DUP4 ADD PUSH1 0x0 MSTORE PUSH1 0x20 PUSH1 0x0 KECCAK256 SWAP1 PUSH1 0x0 SWAP5 PUSH1 0x1F NOT DUP5 AND SWAP6 JUMPDEST DUP7 DUP2 LT PUSH2 0x1FBC JUMPI POP DUP4 PUSH1 0x1 SWAP6 SWAP7 LT PUSH2 0x1FA3 JUMPI JUMPDEST POP POP POP DUP2 SHL ADD PUSH1 0x1 DUP3 ADD SSTORE PUSH2 0x9D7 JUMP JUMPDEST ADD MLOAD PUSH1 0x0 NOT PUSH1 0xF8 DUP5 PUSH1 0x3 SHL AND SHR NOT AND SWAP1 SSTORE DUP4 DUP1 DUP1 PUSH2 0x1F93 JUMP JUMPDEST SWAP2 SWAP3 PUSH1 0x20 PUSH1 0x1 DUP2 SWAP3 DUP7 DUP6 ADD MLOAD DUP2 SSTORE ADD SWAP5 ADD SWAP3 ADD PUSH2 0x1F80 JUMP JUMPDEST PUSH1 0x1 DUP4 ADD PUSH1 0x0 MSTORE PUSH1 0x20 PUSH1 0x0 KECCAK256 PUSH1 0x1F DUP4 ADD PUSH1 0x5 SHR DUP2 ADD PUSH1 0x20 DUP5 LT PUSH2 0x2014 JUMPI JUMPDEST PUSH1 0x1F DUP4 ADD PUSH1 0x5 SHR DUP3 ADD DUP2 LT PUSH2 0x2008 JUMPI POP POP PUSH2 0x9A6 JUMP JUMPDEST PUSH1 0x0 DUP2 SSTORE PUSH1 0x1 ADD PUSH2 0x1FF2 JUMP JUMPDEST POP DUP1 PUSH2 0x1FF2 JUMP JUMPDEST ADD MLOAD SWAP1 POP DUP4 DUP1 PUSH2 0x962 JUMP JUMPDEST DUP3 PUSH1 0x0 MSTORE PUSH1 0x20 PUSH1 0x0 KECCAK256 SWAP1 PUSH1 0x0 SWAP5 PUSH1 0x1F NOT DUP5 AND SWAP6 JUMPDEST DUP7 DUP2 LT PUSH2 0x2073 JUMPI POP DUP4 PUSH1 0x1 SWAP6 SWAP7 LT PUSH2 0x205A JUMPI JUMPDEST POP POP POP DUP2 SHL ADD DUP2 SSTORE PUSH2 0x977 JUMP JUMPDEST ADD MLOAD PUSH1 0x0 NOT PUSH1 0xF8 DUP5 PUSH1 0x3 SHL AND SHR NOT AND SWAP1 SSTORE DUP4 DUP1 DUP1 PUSH2 0x204D JUMP JUMPDEST SWAP2 SWAP3 PUSH1 0x20 PUSH1 0x1 DUP2 SWAP3 DUP7 DUP6 ADD MLOAD DUP2 SSTORE ADD SWAP5 ADD SWAP3 ADD PUSH2 0x203A JUMP JUMPDEST DUP3 PUSH1 0x0 MSTORE PUSH1 0x20 PUSH1 0x0 KECCAK256 PUSH1 0x1F DUP4 ADD PUSH1 0x5 SHR DUP2 ADD PUSH1 0x20 DUP5 LT PUSH2 0x20C8 JUMPI JUMPDEST PUSH1 0x1F DUP4 ADD PUSH1 0x5 SHR DUP3 ADD DUP2 LT PUSH2 0x20BC JUMPI POP POP PUSH2 0x949 JUMP JUMPDEST PUSH1 0x0 DUP2 SSTORE PUSH1 0x1 ADD PUSH2 0x20A6 JUMP JUMPDEST POP DUP1 PUSH2 0x20A6 JUMP JUMPDEST PUSH1 0x40 MLOAD PUSH3 0x461BCD PUSH1 0xE5 SHL DUP2 MSTORE PUSH1 0x20 PUSH1 0x4 DUP3 ADD MSTORE PUSH1 0xB PUSH1 0x24 DUP3 ADD MSTORE PUSH11 0x139BDD081CDD195DD85C99 PUSH1 0xAA SHL PUSH1 0x44 DUP3 ADD MSTORE PUSH1 0x64 SWAP1 REVERT JUMPDEST CALLVALUE PUSH2 0x433 JUMPI PUSH1 0x0 CALLDATASIZE PUSH1 0x3 NOT ADD SLT PUSH2 0x433 JUMPI PUSH1 0x20 PUSH1 0x2 SLOAD PUSH1 0x40 MLOAD SWAP1 DUP2 MSTORE RETURN JUMPDEST CALLVALUE PUSH2 0x433 JUMPI PUSH1 0x0 CALLDATASIZE PUSH1 0x3 NOT ADD SLT PUSH2 0x433 JUMPI PUSH1 0x0 SLOAD PUSH1 0x40 MLOAD PUSH1 0x1 PUSH1 0x1 PUSH1 0xA0 SHL SUB SWAP1 SWAP2 AND DUP2 MSTORE PUSH1 0x20 SWAP1 RETURN JUMPDEST CALLVALUE PUSH2 0x433 JUMPI PUSH1 0x20 CALLDATASIZE PUSH1 0x3 NOT ADD SLT PUSH2 0x433 JUMPI PUSH1 0x1 PUSH1 0x1 PUSH1 0xA0 SHL SUB PUSH2 0x216A PUSH2 0x249E JUMP JUMPDEST AND PUSH1 0x0 MSTORE PUSH1 0x1 PUSH1 0x20 MSTORE PUSH1 0x40 PUSH1 0x0 KECCAK256 DUP1 PUSH2 0x2182 DUP2 PUSH2 0x252B JUMP JUMPDEST PUSH2 0x218E PUSH1 0x1 DUP4 ADD PUSH2 0x252B JUMP JUMPDEST PUSH1 0xC0 MSTORE PUSH2 0x219D PUSH1 0x2 DUP4 ADD PUSH2 0x252B JUMP JUMPDEST PUSH2 0x3A0 MSTORE PUSH2 0x21AD PUSH1 0x3 DUP4 ADD PUSH2 0x252B JUMP JUMPDEST PUSH2 0x21B9 PUSH1 0x4 DUP5 ADD PUSH2 0x252B JUMP JUMPDEST PUSH2 0x21C5 PUSH1 0x5 DUP6 ADD PUSH2 0x252B JUMP JUMPDEST PUSH2 0x21D1 PUSH1 0x6 DUP7 ADD PUSH2 0x252B JUMP JUMPDEST PUSH2 0x21DD PUSH1 0x7 DUP8 ADD PUSH2 0x252B JUMP JUMPDEST PUSH2 0x21E9 PUSH1 0x8 DUP9 ADD PUSH2 0x252B JUMP JUMPDEST SWAP1 PUSH2 0x21F6 PUSH1 0x9 DUP10 ADD PUSH2 0x252B JUMP JUMPDEST SWAP3 PUSH2 0x2203 PUSH1 0xA DUP11 ADD PUSH2 0x252B JUMP JUMPDEST SWAP5 PUSH2 0x2210 PUSH1 0xB DUP12 ADD PUSH2 0x252B JUMP JUMPDEST SWAP7 PUSH2 0x221D PUSH1 0xC DUP13 ADD PUSH2 0x252B JUMP JUMPDEST SWAP9 PUSH2 0x222A PUSH1 0xD DUP14 ADD PUSH2 0x252B JUMP JUMPDEST SWAP11 PUSH2 0x2237 PUSH1 0xE DUP15 ADD PUSH2 0x252B JUMP JUMPDEST SWAP13 PUSH1 0xF ADD PUSH2 0x2244 SWAP1 PUSH2 0x252B JUMP JUMPDEST SWAP14 PUSH2 0x2251 PUSH1 0x10 DUP3 ADD PUSH2 0x252B JUMP JUMPDEST PUSH2 0x280 MSTORE PUSH1 0x11 ADD PUSH2 0x2261 SWAP1 PUSH2 0x252B JUMP JUMPDEST PUSH2 0x4A0 MSTORE PUSH1 0x40 MLOAD DUP1 PUSH2 0x120 MSTORE PUSH2 0x240 DUP1 SWAP2 MSTORE PUSH2 0x120 MLOAD ADD PUSH2 0x2281 SWAP2 PUSH2 0x25D1 JUMP JUMPDEST PUSH2 0x120 MLOAD DUP1 DUP3 SUB SWAP1 PUSH1 0x20 ADD MSTORE PUSH1 0xC0 MLOAD SWAP1 PUSH2 0x229A SWAP2 PUSH2 0x25D1 JUMP JUMPDEST PUSH2 0x120 MLOAD DUP1 DUP3 SUB SWAP1 PUSH1 0x40 ADD MSTORE PUSH2 0x3A0 MLOAD SWAP1 PUSH2 0x22B4 SWAP2 PUSH2 0x25D1 JUMP JUMPDEST PUSH2 0x120 MLOAD DUP1 DUP3 SUB SWAP1 PUSH1 0x60 ADD MSTORE PUSH2 0x22C9 SWAP2 PUSH2 0x25D1 JUMP JUMPDEST PUSH2 0x120 MLOAD DUP1 DUP3 SUB SWAP1 PUSH1 0x80 ADD MSTORE PUSH2 0x22DE SWAP2 PUSH2 0x25D1 JUMP JUMPDEST PUSH2 0x120 MLOAD DUP1 DUP3 SUB SWAP1 PUSH1 0xA0 ADD MSTORE PUSH2 0x22F3 SWAP2 PUSH2 0x25D1 JUMP JUMPDEST PUSH2 0x120 MLOAD DUP1 DUP3 SUB SWAP1 PUSH1 0xC0 ADD MSTORE PUSH2 0x2308 SWAP2 PUSH2 0x25D1 JUMP JUMPDEST PUSH2 0x120 MLOAD DUP1 DUP3 SUB SWAP1 PUSH1 0xE0 ADD MSTORE PUSH2 0x231D SWAP2 PUSH2 0x25D1 JUMP JUMPDEST PUSH2 0x120 MLOAD DUP1 DUP3 SUB SWAP1 PUSH2 0x100 ADD MSTORE PUSH2 0x2333 SWAP2 PUSH2 0x25D1 JUMP JUMPDEST PUSH2 0x120 MLOAD DUP1 DUP3 SUB SWAP1 PUSH2 0x120 ADD MSTORE PUSH2 0x2349 SWAP2 PUSH2 0x25D1 JUMP JUMPDEST PUSH2 0x120 MLOAD DUP1 DUP3 SUB SWAP1 PUSH2 0x140 ADD MSTORE PUSH2 0x235F SWAP2 PUSH2 0x25D1 JUMP JUMPDEST PUSH2 0x120 MLOAD DUP1 DUP3 SUB SWAP1 PUSH2 0x160 ADD MSTORE PUSH2 0x2375 SWAP2 PUSH2 0x25D1 JUMP JUMPDEST PUSH2 0x120 MLOAD DUP1 DUP3 SUB SWAP1 PUSH2 0x180 ADD MSTORE PUSH2 0x238B SWAP2 PUSH2 0x25D1 JUMP JUMPDEST PUSH2 0x120 MLOAD DUP1 DUP3 SUB SWAP1 PUSH2 0x1A0 ADD MSTORE PUSH2 0x23A1 SWAP2 PUSH2 0x25D1 JUMP JUMPDEST PUSH2 0x120 MLOAD DUP1 DUP3 SUB SWAP1 PUSH2 0x1C0 ADD MSTORE PUSH2 0x23B7 SWAP2 PUSH2 0x25D1 JUMP JUMPDEST PUSH2 0x120 MLOAD DUP1 DUP3 SUB SWAP1 PUSH2 0x1E0 ADD MSTORE PUSH2 0x23CD SWAP2 PUSH2 0x25D1 JUMP JUMPDEST PUSH2 0x120 MLOAD DUP1 DUP3 SUB SWAP1 PUSH2 0x200 ADD MSTORE PUSH2 0x280 MLOAD SWAP1 PUSH2 0x23E8 SWAP2 PUSH2 0x25D1 JUMP JUMPDEST PUSH2 0x120 MLOAD DUP1 DUP3 SUB SWAP1 PUSH2 0x220 ADD MSTORE PUSH2 0x120 MLOAD SWAP1 PUSH2 0x4A0 MLOAD SWAP1 PUSH2 0x2408 SWAP2 PUSH2 0x25D1 JUMP JUMPDEST SUB PUSH2 0x120 MLOAD RETURN JUMPDEST CALLVALUE PUSH2 0x433 JUMPI PUSH1 0x20 CALLDATASIZE PUSH1 0x3 NOT ADD SLT PUSH2 0x433 JUMPI PUSH1 0x4 CALLDATALOAD PUSH1 0x2 SLOAD DUP2 LT ISZERO PUSH2 0x433 JUMPI PUSH2 0x2438 PUSH1 0x20 SWAP2 PUSH2 0x2451 JUMP JUMPDEST SWAP1 SLOAD PUSH1 0x40 MLOAD PUSH1 0x3 SWAP3 SWAP1 SWAP3 SHL SHR PUSH1 0x1 PUSH1 0x1 PUSH1 0xA0 SHL SUB AND DUP2 MSTORE RETURN JUMPDEST PUSH1 0x2 SLOAD DUP2 LT ISZERO PUSH2 0x2488 JUMPI PUSH1 0x2 PUSH1 0x0 MSTORE PUSH32 0x405787FA12A823E0F2B7631CC41B3BA8828B3321CA811111FA75CD3AA3BB5ACE ADD SWAP1 PUSH1 0x0 SWAP1 JUMP JUMPDEST PUSH4 0x4E487B71 PUSH1 0xE0 SHL PUSH1 0x0 MSTORE PUSH1 0x32 PUSH1 0x4 MSTORE PUSH1 0x24 PUSH1 0x0 REVERT JUMPDEST PUSH1 0x4 CALLDATALOAD SWAP1 PUSH1 0x1 PUSH1 0x1 PUSH1 0xA0 SHL SUB DUP3 AND DUP3 SUB PUSH2 0x433 JUMPI JUMP JUMPDEST SWAP1 PUSH1 0x1 DUP3 DUP2 SHR SWAP3 AND DUP1 ISZERO PUSH2 0x24E4 JUMPI JUMPDEST PUSH1 0x20 DUP4 LT EQ PUSH2 0x24CE JUMPI JUMP JUMPDEST PUSH4 0x4E487B71 PUSH1 0xE0 SHL PUSH1 0x0 MSTORE PUSH1 0x22 PUSH1 0x4 MSTORE PUSH1 0x24 PUSH1 0x0 REVERT JUMPDEST SWAP2 PUSH1 0x7F AND SWAP2 PUSH2 0x24C3 JUMP JUMPDEST PUSH2 0x240 DUP2 ADD SWAP1 DUP2 LT PUSH1 0x1 PUSH1 0x1 PUSH1 0x40 SHL SUB DUP3 GT OR PUSH2 0x126B JUMPI PUSH1 0x40 MSTORE JUMP JUMPDEST SWAP1 PUSH1 0x1F DUP1 NOT SWAP2 ADD AND DUP2 ADD SWAP1 DUP2 LT PUSH1 0x1 PUSH1 0x1 PUSH1 0x40 SHL SUB DUP3 GT OR PUSH2 0x126B JUMPI PUSH1 0x40 MSTORE JUMP JUMPDEST SWAP1 PUSH1 0x40 MLOAD SWAP2 DUP3 PUSH1 0x0 DUP3 SLOAD SWAP3 PUSH2 0x253F DUP5 PUSH2 0x24B4 JUMP JUMPDEST SWAP1 DUP2 DUP5 MSTORE PUSH1 0x1 SWAP5 DUP6 DUP2 AND SWAP1 DUP2 PUSH1 0x0 EQ PUSH2 0x25AE JUMPI POP PUSH1 0x1 EQ PUSH2 0x256B JUMPI JUMPDEST POP POP PUSH2 0x2569 SWAP3 POP SUB DUP4 PUSH2 0x250A JUMP JUMPDEST JUMP JUMPDEST SWAP1 SWAP4 SWAP2 POP PUSH1 0x0 MSTORE PUSH1 0x20 SWAP1 DUP2 PUSH1 0x0 KECCAK256 SWAP4 PUSH1 0x0 SWAP2 JUMPDEST DUP2 DUP4 LT PUSH2 0x2596 JUMPI POP POP PUSH2 0x2569 SWAP4 POP DUP3 ADD ADD CODESIZE DUP1 PUSH2 0x255B JUMP JUMPDEST DUP6 SLOAD DUP9 DUP5 ADD DUP6 ADD MSTORE SWAP5 DUP6 ADD SWAP5 DUP8 SWAP5 POP SWAP2 DUP4 ADD SWAP2 PUSH2 0x257E JUMP JUMPDEST SWAP2 POP POP PUSH2 0x2569 SWAP5 POP PUSH1 0x20 SWAP3 POP PUSH1 0xFF NOT AND DUP3 DUP5 ADD MSTORE ISZERO ISZERO PUSH1 0x5 SHL DUP3 ADD ADD CODESIZE DUP1 PUSH2 0x255B JUMP JUMPDEST SWAP2 SWAP1 DUP3 MLOAD SWAP3 DUP4 DUP3 MSTORE PUSH1 0x0 JUMPDEST DUP5 DUP2 LT PUSH2 0x25FD JUMPI POP POP DUP3 PUSH1 0x0 PUSH1 0x20 DUP1 SWAP5 SWAP6 DUP5 ADD ADD MSTORE PUSH1 0x1F DUP1 NOT SWAP2 ADD AND ADD ADD SWAP1 JUMP JUMPDEST PUSH1 0x20 DUP2 DUP4 ADD DUP2 ADD MLOAD DUP5 DUP4 ADD DUP3 ADD MSTORE ADD PUSH2 0x25DC JUMP JUMPDEST SWAP2 DUP2 PUSH1 0x1F DUP5 ADD SLT ISZERO PUSH2 0x433 JUMPI DUP3 CALLDATALOAD SWAP2 PUSH1 0x1 PUSH1 0x1 PUSH1 0x40 SHL SUB DUP4 GT PUSH2 0x433 JUMPI PUSH1 0x20 DUP4 DUP2 DUP7 ADD SWAP6 ADD ADD GT PUSH2 0x433 JUMPI JUMP JUMPDEST SWAP3 SWAP2 SWAP3 PUSH1 0x1 PUSH1 0x1 PUSH1 0x40 SHL SUB DUP3 GT PUSH2 0x126B JUMPI PUSH1 0x40 MLOAD SWAP2 PUSH2 0x2667 PUSH1 0x1F DUP3 ADD PUSH1 0x1F NOT AND PUSH1 0x20 ADD DUP5 PUSH2 0x250A JUMP JUMPDEST DUP3 SWAP5 DUP2 DUP5 MSTORE DUP2 DUP4 ADD GT PUSH2 0x433 JUMPI DUP3 DUP2 PUSH1 0x20 SWAP4 DUP5 PUSH1 0x0 SWAP7 ADD CALLDATACOPY ADD ADD MSTORE JUMP JUMPDEST SWAP1 DUP1 PUSH1 0x20 SWAP4 SWAP3 DUP2 DUP5 MSTORE DUP5 DUP5 ADD CALLDATACOPY PUSH1 0x0 DUP3 DUP3 ADD DUP5 ADD MSTORE PUSH1 0x1F ADD PUSH1 0x1F NOT AND ADD ADD SWAP1 JUMP INVALID LOG2 PUSH5 0x6970667358 0x22 SLT KECCAK256 SSTORE 0x2A 0x4E STATICCALL 0xE4 0x28 0x4B 0xC 0xAE 0x2E PUSH1 0x67 EQ DUP16 PUSH20 0xD03C2440DF168B3CA9D01A538E063DF0A864736F PUSH13 0x63430008140033000000000000 "},"methodIdentifiers":{"companions(address)":"47854b87","getCompanion(address)":"ef652737","keys(uint256)":"0cb6aaf1","steward()":"637eea19","summonCompanion(address,string,string,string,string,string,string,string,string,string,string,string,string,string,string,string,string,string,string)":"eeb56334","totalCompanions()":"ec39f18f"}}}}}