{"contracts/codex/SpiralboundCodexXXIX.sol":{"SpiralboundCodexXXIX":{"abi":[{"inputs":[],"stateMutability":"nonpayable","type":"constructor"},{"anonymous":false,"inputs":[{"indexed":false,"internalType":"string","name":"glyph","type":"string"},{"indexed":false,"internalType":"string","name":"tag","type":"string"},{"indexed":false,"internalType":"string","name":"binding","type":"string"},{"indexed":false,"internalType":"string","name":"annotation","type":"string"},{"indexed":false,"internalType":"string","name":"lineage","type":"string"},{"indexed":false,"internalType":"string","name":"resonance","type":"string"},{"indexed":false,"internalType":"string","name":"protocol","type":"string"},{"indexed":false,"internalType":"string","name":"sanctum","type":"string"},{"indexed":false,"internalType":"string","name":"pulse","type":"string"},{"indexed":false,"internalType":"string","name":"chant","type":"string"},{"indexed":false,"internalType":"string","name":"choreography","type":"string"},{"indexed":false,"internalType":"string","name":"drift","type":"string"},{"indexed":false,"internalType":"string","name":"signature","type":"string"},{"indexed":false,"internalType":"string","name":"signal","type":"string"},{"indexed":false,"internalType":"string","name":"companion","type":"string"},{"indexed":false,"internalType":"string","name":"stewardName","type":"string"},{"indexed":false,"internalType":"string","name":"registry","type":"string"},{"indexed":false,"internalType":"string","name":"echo","type":"string"},{"indexed":false,"internalType":"string","name":"hum","type":"string"},{"indexed":false,"internalType":"string","name":"terrain","type":"string"},{"indexed":false,"internalType":"string","name":"choreographyType","type":"string"},{"indexed":false,"internalType":"string","name":"driftType","type":"string"},{"indexed":false,"internalType":"string","name":"signalType","type":"string"},{"indexed":false,"internalType":"string","name":"companionType","type":"string"},{"indexed":false,"internalType":"string","name":"stewardSignal","type":"string"},{"indexed":false,"internalType":"string","name":"pulseType","type":"string"},{"indexed":false,"internalType":"string","name":"signalChoreography","type":"string"},{"indexed":false,"internalType":"string","name":"companionSignal","type":"string"},{"indexed":false,"internalType":"string","name":"driftSignal","type":"string"},{"indexed":false,"internalType":"string","name":"pulseSignal","type":"string"}],"name":"CodexInscribed","type":"event"},{"inputs":[{"internalType":"string","name":"","type":"string"}],"name":"codices","outputs":[{"internalType":"string","name":"tag","type":"string"},{"internalType":"string","name":"binding","type":"string"},{"internalType":"string","name":"annotation","type":"string"},{"internalType":"string","name":"lineage","type":"string"},{"internalType":"string","name":"resonance","type":"string"},{"internalType":"string","name":"protocol","type":"string"},{"internalType":"string","name":"sanctum","type":"string"},{"internalType":"string","name":"pulse","type":"string"},{"internalType":"string","name":"chant","type":"string"},{"internalType":"string","name":"choreography","type":"string"},{"internalType":"string","name":"drift","type":"string"},{"internalType":"string","name":"signature","type":"string"},{"internalType":"string","name":"signal","type":"string"},{"internalType":"string","name":"companion","type":"string"},{"internalType":"string","name":"stewardName","type":"string"},{"internalType":"string","name":"registry","type":"string"},{"internalType":"string","name":"echo","type":"string"},{"internalType":"string","name":"hum","type":"string"},{"internalType":"string","name":"terrain","type":"string"},{"internalType":"string","name":"choreographyType","type":"string"},{"internalType":"string","name":"driftType","type":"string"},{"internalType":"string","name":"signalType","type":"string"},{"internalType":"string","name":"companionType","type":"string"},{"internalType":"string","name":"stewardSignal","type":"string"},{"internalType":"string","name":"pulseType","type":"string"},{"internalType":"string","name":"signalChoreography","type":"string"},{"internalType":"string","name":"companionSignal","type":"string"},{"internalType":"string","name":"driftSignal","type":"string"},{"internalType":"string","name":"pulseSignal","type":"string"}],"stateMutability":"view","type":"function"},{"inputs":[{"internalType":"string","name":"glyph","type":"string"}],"name":"getCodex","outputs":[{"components":[{"internalType":"string","name":"tag","type":"string"},{"internalType":"string","name":"binding","type":"string"},{"internalType":"string","name":"annotation","type":"string"},{"internalType":"string","name":"lineage","type":"string"},{"internalType":"string","name":"resonance","type":"string"},{"internalType":"string","name":"protocol","type":"string"},{"internalType":"string","name":"sanctum","type":"string"},{"internalType":"string","name":"pulse","type":"string"},{"internalType":"string","name":"chant","type":"string"},{"internalType":"string","name":"choreography","type":"string"},{"internalType":"string","name":"drift","type":"string"},{"internalType":"string","name":"signature","type":"string"},{"internalType":"string","name":"signal","type":"string"},{"internalType":"string","name":"companion","type":"string"},{"internalType":"string","name":"stewardName","type":"string"},{"internalType":"string","name":"registry","type":"string"},{"internalType":"string","name":"echo","type":"string"},{"internalType":"string","name":"hum","type":"string"},{"internalType":"string","name":"terrain","type":"string"},{"internalType":"string","name":"choreographyType","type":"string"},{"internalType":"string","name":"driftType","type":"string"},{"internalType":"string","name":"signalType","type":"string"},{"internalType":"string","name":"companionType","type":"string"},{"internalType":"string","name":"stewardSignal","type":"string"},{"internalType":"string","name":"pulseType","type":"string"},{"internalType":"string","name":"signalChoreography","type":"string"},{"internalType":"string","name":"companionSignal","type":"string"},{"internalType":"string","name":"driftSignal","type":"string"},{"internalType":"string","name":"pulseSignal","type":"string"}],"internalType":"struct SpiralboundCodexXXIX.Codex","name":"","type":"tuple"}],"stateMutability":"view","type":"function"},{"inputs":[{"internalType":"string","name":"glyph","type":"string"},{"internalType":"string","name":"tag","type":"string"},{"internalType":"string","name":"binding","type":"string"},{"internalType":"string","name":"annotation","type":"string"},{"internalType":"string","name":"lineage","type":"string"},{"internalType":"string","name":"resonance","type":"string"},{"internalType":"string","name":"protocol","type":"string"},{"internalType":"string","name":"sanctum","type":"string"},{"internalType":"string","name":"pulse","type":"string"},{"internalType":"string","name":"chant","type":"string"},{"internalType":"string","name":"choreography","type":"string"},{"internalType":"string","name":"drift","type":"string"},{"internalType":"string","name":"signature","type":"string"},{"internalType":"string","name":"signal","type":"string"},{"internalType":"string","name":"companion","type":"string"},{"internalType":"string","name":"stewardName","type":"string"},{"internalType":"string","name":"registry","type":"string"},{"internalType":"string","name":"echo","type":"string"},{"internalType":"string","name":"hum","type":"string"},{"internalType":"string","name":"terrain","type":"string"},{"internalType":"string","name":"choreographyType","type":"string"},{"internalType":"string","name":"driftType","type":"string"},{"internalType":"string","name":"signalType","type":"string"},{"internalType":"string","name":"companionType","type":"string"},{"internalType":"string","name":"stewardSignal","type":"string"},{"internalType":"string","name":"pulseType","type":"string"},{"internalType":"string","name":"signalChoreography","type":"string"},{"internalType":"string","name":"companionSignal","type":"string"},{"internalType":"string","name":"driftSignal","type":"string"},{"internalType":"string","name":"pulseSignal","type":"string"}],"name":"inscribeCodex","outputs":[],"stateMutability":"nonpayable","type":"function"},{"inputs":[{"internalType":"uint256","name":"","type":"uint256"}],"name":"keys","outputs":[{"internalType":"string","name":"","type":"string"}],"stateMutability":"view","type":"function"},{"inputs":[],"name":"steward","outputs":[{"internalType":"address","name":"","type":"address"}],"stateMutability":"view","type":"function"},{"inputs":[],"name":"totalCodices","outputs":[{"internalType":"uint256","name":"","type":"uint256"}],"stateMutability":"view","type":"function"}],"evm":{"bytecode":{"linkReferences":{},"object":"6080806040523461002857600080546001600160a01b031916331790556135f2908161002e8239f35b600080fdfe610a80604052600436101561001357600080fd5b60003560e01c80630cb6aaf1146132d75780632248b4ea14610c94578063637eea1914610c6b57806383361522146105d3578063c212d16b146105b55763dbc214241461005f57600080fd5b346105b05760203660031901126105b0576004356001600160401b0381116105b057366023820112156105b05736816004013591602401916100a092613501565b60405181818093516020819301916100b79261348c565b81016001815203602001902080610260526100d1906133e6565b61012052610260516001016100e5906133e6565b610260516002016100f5906133e6565b6105605261026051600301610109906133e6565b610520526102605160040161011d906133e6565b6102605160050161012d906133e6565b6102605160060161013d906133e6565b6102605160070161014d906133e6565b6102605160080161015d906133e6565b6102605160090161016d906133e6565b61026051600a0161017d906133e6565b9161026051600b0161018e906133e6565b9361026051600c0161019f906133e6565b9561026051600d016101b0906133e6565b9761026051600e016101c1906133e6565b9961026051600f016101d2906133e6565b9b610260516010016101e3906133e6565b61094052610260516011016101f7906133e6565b610360526102605160120161020b906133e6565b6101e0526102605160130161021f906133e6565b6101c05261026051601401610233906133e6565b6107c05261026051601501610247906133e6565b610480526102605160160161025b906133e6565b610920526102605160170161026f906133e6565b6104005261026051601801610283906133e6565b6106005261026051601901610297906133e6565b6106405261026051601a016102ab906133e6565b6107e05261026051601b016102bf906133e6565b6105e05261026051601c016102d3906133e6565b6106c052604051806103c0526103a08091526103c0510161012051906102f8916134af565b6103c051808203906020015261030d916134af565b6103c05180820390604001526105605190610327916134af565b6103c05180820390606001526105205190610341916134af565b6103c0518082039060800152610356916134af565b6103c0518082039060a0015261036b916134af565b6103c0518082039060c00152610380916134af565b6103c0518082039060e00152610395916134af565b6103c0518082039061010001526103ab916134af565b6103c0518082039061012001526103c1916134af565b6103c0518082039061014001526103d7916134af565b6103c0518082039061016001526103ed916134af565b6103c051808203906101800152610403916134af565b6103c051808203906101a00152610419916134af565b6103c051808203906101c0015261042f916134af565b6103c051808203906101e00152610445916134af565b6103c0518082039061020001526109405190610460916134af565b6103c051808203906102200152610360519061047b916134af565b6103c0518082039061024001526101e05190610496916134af565b6103c0518082039061026001526101c051906104b1916134af565b6103c0518082039061028001526107c051906104cc916134af565b6103c051808203906102a0015261048051906104e7916134af565b6103c051808203906102c001526109205190610502916134af565b6103c051808203906102e00152610400519061051d916134af565b6103c0518082039061030001526106005190610538916134af565b6103c0518082039061032001526106405190610553916134af565b6103c0518082039061034001526107e0519061056e916134af565b6103c0518082039061036001526105e05190610589916134af565b6103c0518082039061038001526103c051906106c051906105a9916134af565b036103c051f35b600080fd5b346105b05760003660031901126105b0576020600254604051908152f35b346105b05760203660031901126105b0576004356001600160401b0381116105b0576106039036906004016134d4565b90604051610610816133a9565b60608152602081016060905260408101606090526060810160609052608081016060905260a081016060905260c081016060905260e08101606090526101008101606090526101208101606090526101408101606090526101608101606090526101808101606090526101a08101606090526101c08101606090526101e08101606090526102008101606090526102208101606090526102408101606090526102608101606090526102808101606090526102a08101606090526102c08101606090526102e081016060905261030081016060905261032081016060905261034081016060905261036081016060905261038001606090528160405192839283378101600181520360200190206040519061072a826133a9565b610733816133e6565b8252610741600182016133e6565b6020830152610752600282016133e6565b6040830152610763600382016133e6565b6060830152610774600482016133e6565b6080830152610785600582016133e6565b60a0830152610796600682016133e6565b60c08301526107a7600782016133e6565b60e08301526107b8600882016133e6565b6101008301526107ca600982016133e6565b6101208301526107dc600a82016133e6565b6101408301526107ee600b82016133e6565b610160830152610800600c82016133e6565b610180830152610812600d82016133e6565b6101a0830152610824600e82016133e6565b6101c0830152610836600f82016133e6565b6101e0830152610848601082016133e6565b61020083015261085a601182016133e6565b61022083015261086c601282016133e6565b61024083015261087e601382016133e6565b610260830152610890601482016133e6565b6102808301526108a2601582016133e6565b6102a08301526108b4601682016133e6565b6102c08301526108c6601782016133e6565b6102e08301526108d8601882016133e6565b6103008301526108ea601982016133e6565b6103208301526108fc601a82016133e6565b61034083015261090e601b82016133e6565b610360830152601c01610920906133e6565b6103808201526040518091602082528051602083016103a090526103c08301610948916134af565b6020820151838203601f1901604085015261096391906134af565b6040820151838203601f1901606085015261097e91906134af565b6060820151838203601f1901608085015261099991906134af565b6080820151838203601f190160a08501526109b491906134af565b60a0820151838203601f190160c08501526109cf91906134af565b60c0820151838203601f190160e08501526109ea91906134af565b60e0820151838203601f1901610100850152610a0691906134af565b610100820151838203601f1901610120850152610a2391906134af565b610120820151838203601f1901610140850152610a4091906134af565b610140820151838203601f1901610160850152610a5d91906134af565b610160820151838203601f1901610180850152610a7a91906134af565b610180820151838203601f19016101a0850152610a9791906134af565b6101a0820151838203601f19016101c0850152610ab491906134af565b6101c0820151838203601f19016101e0850152610ad191906134af565b6101e0820151838203601f1901610200850152610aee91906134af565b610200820151838203601f1901610220850152610b0b91906134af565b610220820151838203601f1901610240850152610b2891906134af565b610240820151838203601f1901610260850152610b4591906134af565b610260820151838203601f1901610280850152610b6291906134af565b610280820151838203601f19016102a0850152610b7f91906134af565b6102a0820151838203601f19016102c0850152610b9c91906134af565b6102c0820151838203601f19016102e0850152610bb991906134af565b6102e0820151838203601f1901610300850152610bd691906134af565b610300820151838203601f1901610320850152610bf391906134af565b610320820151838203601f1901610340850152610c1091906134af565b610340820151838203601f1901610360850152610c2d91906134af565b610360820151838203601f1901610380850152610c4a91906134af565b90610380015190601f19838203016103a0840152610c67916134af565b0390f35b346105b05760003660031901126105b0576000546040516001600160a01b039091168152602090f35b346105b0576103c03660031901126105b0576004356001600160401b0381116105b057610cc59036906004016134d4565b610740526105a0526024356001600160401b0381116105b057610cec9036906004016134d4565b6104a052610160526044356001600160401b0381116105b057610d139036906004016134d4565b61080052610820526064356001600160401b0381116105b057610d3a9036906004016134d4565b6106e052610a20526001600160401b03608435116105b057610d61366084356004016134d4565b61076052610500526001600160401b0360a435116105b057610d883660a4356004016134d4565b6101a052610680526001600160401b0360c435116105b057610daf3660c4356004016134d4565b6106a0526102a0526001600160401b0360e435116105b057610dd63660e4356004016134d4565b61086052610580526001600160401b0361010435116105b057610dff36610104356004016134d4565b610440526104c0526001600160401b0361012435116105b057610e2836610124356004016134d4565b6080526109c0526001600160401b0361014435116105b057610e5036610144356004016134d4565b610980526108c0526001600160401b0361016435116105b057610e7936610164356004016134d4565b6108a052610140526001600160401b0361018435116105b057610ea236610184356004016134d4565b6103a052610700526001600160401b036101a435116105b057610ecb366101a4356004016134d4565b61084052610620526001600160401b036101c435116105b057610ef4366101c4356004016134d4565b61018052610200526001600160401b036101e435116105b057610f1d366101e4356004016134d4565b610880526109a0526001600160401b0361020435116105b057610f4636610204356004016134d4565b61034052610320526001600160401b0361022435116105b057610f6f36610224356004016134d4565b610540526105c0526001600160401b0361024435116105b057610f9836610244356004016134d4565b60c052610420526001600160401b0361026435116105b057610fc036610264356004016134d4565b610460526109e0526001600160401b0361028435116105b057610fe936610284356004016134d4565b6102c052610a60526001600160401b036102a435116105b057611012366102a4356004016134d4565b610a00526104e0526001600160401b036102c435116105b05761103b366102c4356004016134d4565b61024052610660526001600160401b036102e435116105b057611064366102e4356004016134d4565b61078052610960526001600160401b0361030435116105b05761108d36610304356004016134d4565b610a4052610220526001600160401b0361032435116105b0576110b636610324356004016134d4565b6107a0526102e0526001600160401b0361034435116105b0576110df36610344356004016134d4565b60e052610900526001600160401b0361036435116105b05761110736610364356004016134d4565b61038052610280526001600160401b0361038435116105b05761113036610384356004016134d4565b6103e052610300526001600160401b036103a435116105b057611159366103a4356004016134d4565b60a052610100526000546001600160a01b031633036132a45761118260405180610720526133a9565b611193366104a05161016051613501565b61072051526111a9366108005161082051613501565b60206107205101526111c2366106e051610a2051613501565b60406107205101526111db366107605161050051613501565b60606107205101526111f4366101a05161068051613501565b608061072051015261120d366106a0516102a051613501565b60a0610720510152611226366108605161058051613501565b60c061072051015261123f36610440516104c051613501565b60e0610720510152611257366080516109c051613501565b61010061072051015261127136610980516108c051613501565b61012061072051015261128b366108a05161014051613501565b6101406107205101526112a5366103a05161070051613501565b6101606107205101526112bf366108405161062051613501565b6101806107205101526112d9366101805161020051613501565b6101a06107205101526112f336610880516109a051613501565b6101c061072051015261130d366103405161032051613501565b6101e061072051015261132736610540516105c051613501565b6102006107205101526113403660c05161042051613501565b61022061072051015261135a36610460516109e051613501565b610240610720510152611374366102c051610a6051613501565b61026061072051015261138e36610a00516104e051613501565b6102806107205101526113a8366102405161066051613501565b6102a06107205101526113c2366107805161096051613501565b6102c06107205101526113dc36610a405161022051613501565b6102e06107205101526113f6366107a0516102e051613501565b61030061072051015261140f3660e05161090051613501565b610320610720510152611429366103805161028051613501565b610340610720510152611443366103e05161030051613501565b61036061072051015261145c3660a05161010051613501565b610380610720510152604051610740516105a05182376001610740518201526020816107405181010301902061072051518051906001600160401b0382116124575781906114b4826114ae865461336f565b86613547565b602090601f83116001146132385760009261322d575b50508160011b916000199060031b1c19161781555b60206107205101518051906001600160401b0382116124575781906115148261150b600187015461336f565b60018701613547565b602090601f83116001146131bb576000926131b0575b50508160011b916000199060031b1c19161760018201555b60406107205101518051906001600160401b0382116124575781906115778261156e600287015461336f565b60028701613547565b602090601f831160011461313e57600092613133575b50508160011b916000199060031b1c19161760028201555b60606107205101518051906001600160401b0382116124575781906115da826115d1600387015461336f565b60038701613547565b602090601f83116001146130c1576000926130b6575b50508160011b916000199060031b1c19161760038201555b60806107205101518051906001600160401b03821161245757819061163d82611634600487015461336f565b60048701613547565b602090601f831160011461304457600092613039575b50508160011b916000199060031b1c19161760048201555b60a06107205101518051906001600160401b0382116124575781906116a082611697600587015461336f565b60058701613547565b602090601f8311600114612fc757600092612fbc575b50508160011b916000199060031b1c19161760058201555b60c06107205101518051906001600160401b038211612457578190611703826116fa600687015461336f565b60068701613547565b602090601f8311600114612f4a57600092612f3f575b50508160011b916000199060031b1c19161760068201555b60e06107205101518051906001600160401b0382116124575781906117668261175d600787015461336f565b60078701613547565b602090601f8311600114612ecd57600092612ec2575b50508160011b916000199060031b1c19161760078201555b6101006107205101518051906001600160401b0382116124575781906117ca826117c1600887015461336f565b60088701613547565b602090601f8311600114612e5057600092612e45575b50508160011b916000199060031b1c19161760088201555b6101206107205101518051906001600160401b03821161245757819061182e82611825600987015461336f565b60098701613547565b602090601f8311600114612dd357600092612dc8575b50508160011b916000199060031b1c19161760098201555b6101406107205101518051906001600160401b03821161245757819061189282611889600a87015461336f565b600a8701613547565b602090601f8311600114612d5657600092612d4b575b50508160011b916000199060031b1c191617600a8201555b6101606107205101518051906001600160401b0382116124575781906118f6826118ed600b87015461336f565b600b8701613547565b602090601f8311600114612cd957600092612cce575b50508160011b916000199060031b1c191617600b8201555b6101806107205101518051906001600160401b03821161245757819061195a82611951600c87015461336f565b600c8701613547565b602090601f8311600114612c5c57600092612c51575b50508160011b916000199060031b1c191617600c8201555b6101a06107205101518051906001600160401b0382116124575781906119be826119b5600d87015461336f565b600d8701613547565b602090601f8311600114612bdf57600092612bd4575b50508160011b916000199060031b1c191617600d8201555b6101c06107205101518051906001600160401b038211612457578190611a2282611a19600e87015461336f565b600e8701613547565b602090601f8311600114612b6257600092612b57575b50508160011b916000199060031b1c191617600e8201555b6101e06107205101518051906001600160401b038211612457578190611a8682611a7d600f87015461336f565b600f8701613547565b602090601f8311600114612ae557600092612ada575b50508160011b916000199060031b1c191617600f8201555b6102006107205101518051906001600160401b038211612457578190611aea82611ae1601087015461336f565b60108701613547565b602090601f8311600114612a6857600092612a5d575b50508160011b916000199060031b1c19161760108201555b6102206107205101518051906001600160401b038211612457578190611b4e82611b45601187015461336f565b60118701613547565b602090601f83116001146129eb576000926129e0575b50508160011b916000199060031b1c19161760118201555b6102406107205101518051906001600160401b038211612457578190611bb282611ba9601287015461336f565b60128701613547565b602090601f831160011461296e57600092612963575b50508160011b916000199060031b1c19161760128201555b6102606107205101518051906001600160401b038211612457578190611c1682611c0d601387015461336f565b60138701613547565b602090601f83116001146128f1576000926128e6575b50508160011b916000199060031b1c19161760138201555b6102806107205101518051906001600160401b038211612457578190611c7a82611c71601487015461336f565b60148701613547565b602090601f831160011461287457600092612869575b50508160011b916000199060031b1c19161760148201555b6102a06107205101518051906001600160401b038211612457578190611cde82611cd5601587015461336f565b60158701613547565b602090601f83116001146127f7576000926127ec575b50508160011b916000199060031b1c19161760158201555b6102c06107205101518051906001600160401b038211612457578190611d4282611d39601687015461336f565b60168701613547565b602090601f831160011461277a5760009261276f575b50508160011b916000199060031b1c19161760168201555b6102e06107205101518051906001600160401b038211612457578190611da682611d9d601787015461336f565b60178701613547565b602090601f83116001146126fd576000926126f2575b50508160011b916000199060031b1c19161760178201555b6103006107205101518051906001600160401b038211612457578190611e0a82611e01601887015461336f565b60188701613547565b602090601f831160011461268057600092612675575b50508160011b916000199060031b1c19161760188201555b6103206107205101518051906001600160401b038211612457578190611e6e82611e65601987015461336f565b60198701613547565b602090601f8311600114612603576000926125f8575b50508160011b916000199060031b1c19161760198201555b6103406107205101518051906001600160401b038211612457578190611ed282611ec9601a87015461336f565b601a8701613547565b602090601f83116001146125865760009261257b575b50508160011b916000199060031b1c191617601a8201555b6103606107205101518051906001600160401b038211612457578190611f3682611f2d601b87015461336f565b601b8701613547565b602090601f8311600114612509576000926124fe575b50508160011b916000199060031b1c191617601b8201555b6103806107205101518051906001600160401b03821161245757611f9882611f8f601c86015461336f565b601c8601613547565b602090601f831160011461248e57601c929160009183612483575b50508160011b916000199060031b1c1916179101555b6002546801000000000000000081101561245757806001611fed9201600255613322565b61246d57610740516001600160401b0381116124575761201790612011835461336f565b83613547565b60009061074051601f81116001146123ea57509060006107405191826123dc575b508160011b916000199060031b1c19161790555b6103c0604051806108e052527f8ef2ae16c7da777722241512634b307f81c5f7b678d04e7ff83f483bedead10d6123b361239961237f61236661234c6123326123186122fe6122e46122ca6122b061229761227d61226361224961222f6122156121fb6121e16121c76121ae61219461217b6121626121496121306121176120fe6120e56103c06108e05101610740516105a05161359b565b6108e05160208183039101526104a0516101605161359b565b6108e0516040818303910152610800516108205161359b565b6108e05160608183039101526106e051610a205161359b565b6108e0516080818303910152610760516105005161359b565b6108e05160a08183039101526101a0516106805161359b565b6108e05160c08183039101526106a0516102a05161359b565b6108e05160e0818303910152610860516105805161359b565b6108e051610100818303910152610440516104c05161359b565b6108e0516101208183039101526080516109c05161359b565b6108e051610140818303910152610980516108c05161359b565b6108e0516101608183039101526108a0516101405161359b565b6108e0516101808183039101526103a0516107005161359b565b6108e0516101a0818303910152610840516106205161359b565b6108e0516101c0818303910152610180516102005161359b565b6108e0516101e0818303910152610880516109a05161359b565b6108e051610200818303910152610340516103205161359b565b6108e051610220818303910152610540516105c05161359b565b6108e05161024081830391015260c0516104205161359b565b6108e051610260818303910152610460516109e05161359b565b6108e0516102808183039101526102c051610a605161359b565b6108e0516102a0818303910152610a00516104e05161359b565b6108e0516102c0818303910152610240516106605161359b565b6108e0516102e0818303910152610780516109605161359b565b6108e051610300818303910152610a40516102205161359b565b6108e0516103208183039101526107a0516102e05161359b565b6108e05161034081830391015260e0516109005161359b565b6108e051610360818303910152610380516102805161359b565b6108e0516103808183039101526103e0516103005161359b565b6108e0516103a08183039101526123d46108e0519160a0516101005161359b565b036108e051a1005b90506105a051013583612038565b8160005260206000206000936105a051905b601f198416861061243f57600194955083601f19811610612425575b505050811b01905561204c565b0135600019600384901b60f8161c19169055838080612418565b916020600181928585013581550193019501946123fc565b634e487b7160e01b600052604160045260246000fd5b634e487b7160e01b600052600060045260246000fd5b015190508480611fb3565b90601c840160005260206000209160005b601f19851681106124e65750918391600193601c95601f198116106124cd575b505050811b01910155611fc9565b015160001960f88460031b161c191690558480806124bf565b9192602060018192868501518155019401920161249f565b015190508380611f4c565b9250601b84016000526020600020906000935b601f1984168510612560576001945083601f19811610612547575b505050811b01601b820155611f64565b015160001960f88460031b161c19169055838080612537565b8181015183556020948501946001909301929091019061251c565b015190508380611ee8565b9250601a84016000526020600020906000935b601f19841685106125dd576001945083601f198116106125c4575b505050811b01601a820155611f00565b015160001960f88460031b161c191690558380806125b4565b81810151835560209485019460019093019290910190612599565b015190508380611e84565b9250601984016000526020600020906000935b601f198416851061265a576001945083601f19811610612641575b505050811b016019820155611e9c565b015160001960f88460031b161c19169055838080612631565b81810151835560209485019460019093019290910190612616565b015190508380611e20565b9250601884016000526020600020906000935b601f19841685106126d7576001945083601f198116106126be575b505050811b016018820155611e38565b015160001960f88460031b161c191690558380806126ae565b81810151835560209485019460019093019290910190612693565b015190508380611dbc565b9250601784016000526020600020906000935b601f1984168510612754576001945083601f1981161061273b575b505050811b016017820155611dd4565b015160001960f88460031b161c1916905583808061272b565b81810151835560209485019460019093019290910190612710565b015190508380611d58565b9250601684016000526020600020906000935b601f19841685106127d1576001945083601f198116106127b8575b505050811b016016820155611d70565b015160001960f88460031b161c191690558380806127a8565b8181015183556020948501946001909301929091019061278d565b015190508380611cf4565b9250601584016000526020600020906000935b601f198416851061284e576001945083601f19811610612835575b505050811b016015820155611d0c565b015160001960f88460031b161c19169055838080612825565b8181015183556020948501946001909301929091019061280a565b015190508380611c90565b9250601484016000526020600020906000935b601f19841685106128cb576001945083601f198116106128b2575b505050811b016014820155611ca8565b015160001960f88460031b161c191690558380806128a2565b81810151835560209485019460019093019290910190612887565b015190508380611c2c565b9250601384016000526020600020906000935b601f1984168510612948576001945083601f1981161061292f575b505050811b016013820155611c44565b015160001960f88460031b161c1916905583808061291f565b81810151835560209485019460019093019290910190612904565b015190508380611bc8565b9250601284016000526020600020906000935b601f19841685106129c5576001945083601f198116106129ac575b505050811b016012820155611be0565b015160001960f88460031b161c1916905583808061299c565b81810151835560209485019460019093019290910190612981565b015190508380611b64565b9250601184016000526020600020906000935b601f1984168510612a42576001945083601f19811610612a29575b505050811b016011820155611b7c565b015160001960f88460031b161c19169055838080612a19565b818101518355602094850194600190930192909101906129fe565b015190508380611b00565b9250601084016000526020600020906000935b601f1984168510612abf576001945083601f19811610612aa6575b505050811b016010820155611b18565b015160001960f88460031b161c19169055838080612a96565b81810151835560209485019460019093019290910190612a7b565b015190508380611a9c565b9250600f84016000526020600020906000935b601f1984168510612b3c576001945083601f19811610612b23575b505050811b01600f820155611ab4565b015160001960f88460031b161c19169055838080612b13565b81810151835560209485019460019093019290910190612af8565b015190508380611a38565b9250600e84016000526020600020906000935b601f1984168510612bb9576001945083601f19811610612ba0575b505050811b01600e820155611a50565b015160001960f88460031b161c19169055838080612b90565b81810151835560209485019460019093019290910190612b75565b0151905083806119d4565b9250600d84016000526020600020906000935b601f1984168510612c36576001945083601f19811610612c1d575b505050811b01600d8201556119ec565b015160001960f88460031b161c19169055838080612c0d565b81810151835560209485019460019093019290910190612bf2565b015190508380611970565b9250600c84016000526020600020906000935b601f1984168510612cb3576001945083601f19811610612c9a575b505050811b01600c820155611988565b015160001960f88460031b161c19169055838080612c8a565b81810151835560209485019460019093019290910190612c6f565b01519050838061190c565b9250600b84016000526020600020906000935b601f1984168510612d30576001945083601f19811610612d17575b505050811b01600b820155611924565b015160001960f88460031b161c19169055838080612d07565b81810151835560209485019460019093019290910190612cec565b0151905083806118a8565b9250600a84016000526020600020906000935b601f1984168510612dad576001945083601f19811610612d94575b505050811b01600a8201556118c0565b015160001960f88460031b161c19169055838080612d84565b81810151835560209485019460019093019290910190612d69565b015190508380611844565b9250600984016000526020600020906000935b601f1984168510612e2a576001945083601f19811610612e11575b505050811b01600982015561185c565b015160001960f88460031b161c19169055838080612e01565b81810151835560209485019460019093019290910190612de6565b0151905083806117e0565b9250600884016000526020600020906000935b601f1984168510612ea7576001945083601f19811610612e8e575b505050811b0160088201556117f8565b015160001960f88460031b161c19169055838080612e7e565b81810151835560209485019460019093019290910190612e63565b01519050838061177c565b9250600784016000526020600020906000935b601f1984168510612f24576001945083601f19811610612f0b575b505050811b016007820155611794565b015160001960f88460031b161c19169055838080612efb565b81810151835560209485019460019093019290910190612ee0565b015190508380611719565b9250600684016000526020600020906000935b601f1984168510612fa1576001945083601f19811610612f88575b505050811b016006820155611731565b015160001960f88460031b161c19169055838080612f78565b81810151835560209485019460019093019290910190612f5d565b0151905083806116b6565b9250600584016000526020600020906000935b601f198416851061301e576001945083601f19811610613005575b505050811b0160058201556116ce565b015160001960f88460031b161c19169055838080612ff5565b81810151835560209485019460019093019290910190612fda565b015190508380611653565b9250600484016000526020600020906000935b601f198416851061309b576001945083601f19811610613082575b505050811b01600482015561166b565b015160001960f88460031b161c19169055838080613072565b81810151835560209485019460019093019290910190613057565b0151905083806115f0565b9250600384016000526020600020906000935b601f1984168510613118576001945083601f198116106130ff575b505050811b016003820155611608565b015160001960f88460031b161c191690558380806130ef565b818101518355602094850194600190930192909101906130d4565b01519050838061158d565b9250600284016000526020600020906000935b601f1984168510613195576001945083601f1981161061317c575b505050811b0160028201556115a5565b015160001960f88460031b161c1916905583808061316c565b81810151835560209485019460019093019290910190613151565b01519050838061152a565b9250600184016000526020600020906000935b601f1984168510613212576001945083601f198116106131f9575b505050811b016001820155611542565b015160001960f88460031b161c191690558380806131e9565b818101518355602094850194600190930192909101906131ce565b0151905083806114ca565b9250836000526020600020906000935b601f1984168510613289576001945083601f19811610613270575b505050811b0181556114df565b015160001960f88460031b161c19169055838080613263565b81810151835560209485019460019093019290910190613248565b60405162461bcd60e51b815260206004820152600b60248201526a139bdd081cdd195dd85c9960aa1b6044820152606490fd5b346105b05760203660031901126105b0576004356002548110156105b0576132fe90613322565b61246d5761330e610c67916133e6565b6040519182916020835260208301906134af565b6002548110156133595760026000527f405787fa12a823e0f2b7631cc41b3ba8828b3321ca811111fa75cd3aa3bb5ace0190600090565b634e487b7160e01b600052603260045260246000fd5b90600182811c9216801561339f575b602083101461338957565b634e487b7160e01b600052602260045260246000fd5b91607f169161337e565b6103a081019081106001600160401b0382111761245757604052565b90601f801991011681019081106001600160401b0382111761245757604052565b90604051918260008254926133fa8461336f565b9081845260019485811690816000146134695750600114613426575b5050613424925003836133c5565b565b9093915060005260209081600020936000915b81831061345157505061342493508201013880613416565b85548884018501529485019487945091830191613439565b91505061342494506020925060ff191682840152151560051b8201013880613416565b60005b83811061349f5750506000910152565b818101518382015260200161348f565b906020916134c88151809281855285808601910161348c565b601f01601f1916010190565b9181601f840112156105b0578235916001600160401b0383116105b057602083818601950101116105b057565b9291926001600160401b038211612457576040519161352a601f8201601f1916602001846133c5565b8294818452818301116105b0578281602093846000960137010152565b90601f811161355557505050565b600091825260208220906020601f850160051c83019410613591575b601f0160051c01915b82811061358657505050565b81815560010161357a565b9092508290613571565b908060209392818452848401376000828201840152601f01601f191601019056fea2646970667358221220d005cc67cedb1884b8ea14303a55163428cc2e7a84556d0629e41c24ca450b9064736f6c63430008140033","opcodes":"PUSH1 0x80 DUP1 PUSH1 0x40 MSTORE CALLVALUE PUSH2 0x28 JUMPI PUSH1 0x0 DUP1 SLOAD PUSH1 0x1 PUSH1 0x1 PUSH1 0xA0 SHL SUB NOT AND CALLER OR SWAP1 SSTORE PUSH2 0x35F2 SWAP1 DUP2 PUSH2 0x2E DUP3 CODECOPY RETURN JUMPDEST PUSH1 0x0 DUP1 REVERT INVALID PUSH2 0xA80 PUSH1 0x40 MSTORE PUSH1 0x4 CALLDATASIZE LT ISZERO PUSH2 0x13 JUMPI PUSH1 0x0 DUP1 REVERT JUMPDEST PUSH1 0x0 CALLDATALOAD PUSH1 0xE0 SHR DUP1 PUSH4 0xCB6AAF1 EQ PUSH2 0x32D7 JUMPI DUP1 PUSH4 0x2248B4EA EQ PUSH2 0xC94 JUMPI DUP1 PUSH4 0x637EEA19 EQ PUSH2 0xC6B JUMPI DUP1 PUSH4 0x83361522 EQ PUSH2 0x5D3 JUMPI DUP1 PUSH4 0xC212D16B EQ PUSH2 0x5B5 JUMPI PUSH4 0xDBC21424 EQ PUSH2 0x5F JUMPI PUSH1 0x0 DUP1 REVERT JUMPDEST CALLVALUE PUSH2 0x5B0 JUMPI PUSH1 0x20 CALLDATASIZE PUSH1 0x3 NOT ADD SLT PUSH2 0x5B0 JUMPI PUSH1 0x4 CALLDATALOAD PUSH1 0x1 PUSH1 0x1 PUSH1 0x40 SHL SUB DUP2 GT PUSH2 0x5B0 JUMPI CALLDATASIZE PUSH1 0x23 DUP3 ADD SLT ISZERO PUSH2 0x5B0 JUMPI CALLDATASIZE DUP2 PUSH1 0x4 ADD CALLDATALOAD SWAP2 PUSH1 0x24 ADD SWAP2 PUSH2 0xA0 SWAP3 PUSH2 0x3501 JUMP JUMPDEST PUSH1 0x40 MLOAD DUP2 DUP2 DUP1 SWAP4 MLOAD PUSH1 0x20 DUP2 SWAP4 ADD SWAP2 PUSH2 0xB7 SWAP3 PUSH2 0x348C JUMP JUMPDEST DUP2 ADD PUSH1 0x1 DUP2 MSTORE SUB PUSH1 0x20 ADD SWAP1 KECCAK256 DUP1 PUSH2 0x260 MSTORE PUSH2 0xD1 SWAP1 PUSH2 0x33E6 JUMP JUMPDEST PUSH2 0x120 MSTORE PUSH2 0x260 MLOAD PUSH1 0x1 ADD PUSH2 0xE5 SWAP1 PUSH2 0x33E6 JUMP JUMPDEST PUSH2 0x260 MLOAD PUSH1 0x2 ADD PUSH2 0xF5 SWAP1 PUSH2 0x33E6 JUMP JUMPDEST PUSH2 0x560 MSTORE PUSH2 0x260 MLOAD PUSH1 0x3 ADD PUSH2 0x109 SWAP1 PUSH2 0x33E6 JUMP JUMPDEST PUSH2 0x520 MSTORE PUSH2 0x260 MLOAD PUSH1 0x4 ADD PUSH2 0x11D SWAP1 PUSH2 0x33E6 JUMP JUMPDEST PUSH2 0x260 MLOAD PUSH1 0x5 ADD PUSH2 0x12D SWAP1 PUSH2 0x33E6 JUMP JUMPDEST PUSH2 0x260 MLOAD PUSH1 0x6 ADD PUSH2 0x13D SWAP1 PUSH2 0x33E6 JUMP JUMPDEST PUSH2 0x260 MLOAD PUSH1 0x7 ADD PUSH2 0x14D SWAP1 PUSH2 0x33E6 JUMP JUMPDEST PUSH2 0x260 MLOAD PUSH1 0x8 ADD PUSH2 0x15D SWAP1 PUSH2 0x33E6 JUMP JUMPDEST PUSH2 0x260 MLOAD PUSH1 0x9 ADD PUSH2 0x16D SWAP1 PUSH2 0x33E6 JUMP JUMPDEST PUSH2 0x260 MLOAD PUSH1 0xA ADD PUSH2 0x17D SWAP1 PUSH2 0x33E6 JUMP JUMPDEST SWAP2 PUSH2 0x260 MLOAD PUSH1 0xB ADD PUSH2 0x18E SWAP1 PUSH2 0x33E6 JUMP JUMPDEST SWAP4 PUSH2 0x260 MLOAD PUSH1 0xC ADD PUSH2 0x19F SWAP1 PUSH2 0x33E6 JUMP JUMPDEST SWAP6 PUSH2 0x260 MLOAD PUSH1 0xD ADD PUSH2 0x1B0 SWAP1 PUSH2 0x33E6 JUMP JUMPDEST SWAP8 PUSH2 0x260 MLOAD PUSH1 0xE ADD PUSH2 0x1C1 SWAP1 PUSH2 0x33E6 JUMP JUMPDEST SWAP10 PUSH2 0x260 MLOAD PUSH1 0xF ADD PUSH2 0x1D2 SWAP1 PUSH2 0x33E6 JUMP JUMPDEST SWAP12 PUSH2 0x260 MLOAD PUSH1 0x10 ADD PUSH2 0x1E3 SWAP1 PUSH2 0x33E6 JUMP JUMPDEST PUSH2 0x940 MSTORE PUSH2 0x260 MLOAD PUSH1 0x11 ADD PUSH2 0x1F7 SWAP1 PUSH2 0x33E6 JUMP JUMPDEST PUSH2 0x360 MSTORE PUSH2 0x260 MLOAD PUSH1 0x12 ADD PUSH2 0x20B SWAP1 PUSH2 0x33E6 JUMP JUMPDEST PUSH2 0x1E0 MSTORE PUSH2 0x260 MLOAD PUSH1 0x13 ADD PUSH2 0x21F SWAP1 PUSH2 0x33E6 JUMP JUMPDEST PUSH2 0x1C0 MSTORE PUSH2 0x260 MLOAD PUSH1 0x14 ADD PUSH2 0x233 SWAP1 PUSH2 0x33E6 JUMP JUMPDEST PUSH2 0x7C0 MSTORE PUSH2 0x260 MLOAD PUSH1 0x15 ADD PUSH2 0x247 SWAP1 PUSH2 0x33E6 JUMP JUMPDEST PUSH2 0x480 MSTORE PUSH2 0x260 MLOAD PUSH1 0x16 ADD PUSH2 0x25B SWAP1 PUSH2 0x33E6 JUMP JUMPDEST PUSH2 0x920 MSTORE PUSH2 0x260 MLOAD PUSH1 0x17 ADD PUSH2 0x26F SWAP1 PUSH2 0x33E6 JUMP JUMPDEST PUSH2 0x400 MSTORE PUSH2 0x260 MLOAD PUSH1 0x18 ADD PUSH2 0x283 SWAP1 PUSH2 0x33E6 JUMP JUMPDEST PUSH2 0x600 MSTORE PUSH2 0x260 MLOAD PUSH1 0x19 ADD PUSH2 0x297 SWAP1 PUSH2 0x33E6 JUMP JUMPDEST PUSH2 0x640 MSTORE PUSH2 0x260 MLOAD PUSH1 0x1A ADD PUSH2 0x2AB SWAP1 PUSH2 0x33E6 JUMP JUMPDEST PUSH2 0x7E0 MSTORE PUSH2 0x260 MLOAD PUSH1 0x1B ADD PUSH2 0x2BF SWAP1 PUSH2 0x33E6 JUMP JUMPDEST PUSH2 0x5E0 MSTORE PUSH2 0x260 MLOAD PUSH1 0x1C ADD PUSH2 0x2D3 SWAP1 PUSH2 0x33E6 JUMP JUMPDEST PUSH2 0x6C0 MSTORE PUSH1 0x40 MLOAD DUP1 PUSH2 0x3C0 MSTORE PUSH2 0x3A0 DUP1 SWAP2 MSTORE PUSH2 0x3C0 MLOAD ADD PUSH2 0x120 MLOAD SWAP1 PUSH2 0x2F8 SWAP2 PUSH2 0x34AF JUMP JUMPDEST PUSH2 0x3C0 MLOAD DUP1 DUP3 SUB SWAP1 PUSH1 0x20 ADD MSTORE PUSH2 0x30D SWAP2 PUSH2 0x34AF JUMP JUMPDEST PUSH2 0x3C0 MLOAD DUP1 DUP3 SUB SWAP1 PUSH1 0x40 ADD MSTORE PUSH2 0x560 MLOAD SWAP1 PUSH2 0x327 SWAP2 PUSH2 0x34AF JUMP JUMPDEST PUSH2 0x3C0 MLOAD DUP1 DUP3 SUB SWAP1 PUSH1 0x60 ADD MSTORE PUSH2 0x520 MLOAD SWAP1 PUSH2 0x341 SWAP2 PUSH2 0x34AF JUMP JUMPDEST PUSH2 0x3C0 MLOAD DUP1 DUP3 SUB SWAP1 PUSH1 0x80 ADD MSTORE PUSH2 0x356 SWAP2 PUSH2 0x34AF JUMP JUMPDEST PUSH2 0x3C0 MLOAD DUP1 DUP3 SUB SWAP1 PUSH1 0xA0 ADD MSTORE PUSH2 0x36B SWAP2 PUSH2 0x34AF JUMP JUMPDEST PUSH2 0x3C0 MLOAD DUP1 DUP3 SUB SWAP1 PUSH1 0xC0 ADD MSTORE PUSH2 0x380 SWAP2 PUSH2 0x34AF JUMP JUMPDEST PUSH2 0x3C0 MLOAD DUP1 DUP3 SUB SWAP1 PUSH1 0xE0 ADD MSTORE PUSH2 0x395 SWAP2 PUSH2 0x34AF JUMP JUMPDEST PUSH2 0x3C0 MLOAD DUP1 DUP3 SUB SWAP1 PUSH2 0x100 ADD MSTORE PUSH2 0x3AB SWAP2 PUSH2 0x34AF JUMP JUMPDEST PUSH2 0x3C0 MLOAD DUP1 DUP3 SUB SWAP1 PUSH2 0x120 ADD MSTORE PUSH2 0x3C1 SWAP2 PUSH2 0x34AF JUMP JUMPDEST PUSH2 0x3C0 MLOAD DUP1 DUP3 SUB SWAP1 PUSH2 0x140 ADD MSTORE PUSH2 0x3D7 SWAP2 PUSH2 0x34AF JUMP JUMPDEST PUSH2 0x3C0 MLOAD DUP1 DUP3 SUB SWAP1 PUSH2 0x160 ADD MSTORE PUSH2 0x3ED SWAP2 PUSH2 0x34AF JUMP JUMPDEST PUSH2 0x3C0 MLOAD DUP1 DUP3 SUB SWAP1 PUSH2 0x180 ADD MSTORE PUSH2 0x403 SWAP2 PUSH2 0x34AF JUMP JUMPDEST PUSH2 0x3C0 MLOAD DUP1 DUP3 SUB SWAP1 PUSH2 0x1A0 ADD MSTORE PUSH2 0x419 SWAP2 PUSH2 0x34AF JUMP JUMPDEST PUSH2 0x3C0 MLOAD DUP1 DUP3 SUB SWAP1 PUSH2 0x1C0 ADD MSTORE PUSH2 0x42F SWAP2 PUSH2 0x34AF JUMP JUMPDEST PUSH2 0x3C0 MLOAD DUP1 DUP3 SUB SWAP1 PUSH2 0x1E0 ADD MSTORE PUSH2 0x445 SWAP2 PUSH2 0x34AF JUMP JUMPDEST PUSH2 0x3C0 MLOAD DUP1 DUP3 SUB SWAP1 PUSH2 0x200 ADD MSTORE PUSH2 0x940 MLOAD SWAP1 PUSH2 0x460 SWAP2 PUSH2 0x34AF JUMP JUMPDEST PUSH2 0x3C0 MLOAD DUP1 DUP3 SUB SWAP1 PUSH2 0x220 ADD MSTORE PUSH2 0x360 MLOAD SWAP1 PUSH2 0x47B SWAP2 PUSH2 0x34AF JUMP JUMPDEST PUSH2 0x3C0 MLOAD DUP1 DUP3 SUB SWAP1 PUSH2 0x240 ADD MSTORE PUSH2 0x1E0 MLOAD SWAP1 PUSH2 0x496 SWAP2 PUSH2 0x34AF JUMP JUMPDEST PUSH2 0x3C0 MLOAD DUP1 DUP3 SUB SWAP1 PUSH2 0x260 ADD MSTORE PUSH2 0x1C0 MLOAD SWAP1 PUSH2 0x4B1 SWAP2 PUSH2 0x34AF JUMP JUMPDEST PUSH2 0x3C0 MLOAD DUP1 DUP3 SUB SWAP1 PUSH2 0x280 ADD MSTORE PUSH2 0x7C0 MLOAD SWAP1 PUSH2 0x4CC SWAP2 PUSH2 0x34AF JUMP JUMPDEST PUSH2 0x3C0 MLOAD DUP1 DUP3 SUB SWAP1 PUSH2 0x2A0 ADD MSTORE PUSH2 0x480 MLOAD SWAP1 PUSH2 0x4E7 SWAP2 PUSH2 0x34AF JUMP JUMPDEST PUSH2 0x3C0 MLOAD DUP1 DUP3 SUB SWAP1 PUSH2 0x2C0 ADD MSTORE PUSH2 0x920 MLOAD SWAP1 PUSH2 0x502 SWAP2 PUSH2 0x34AF JUMP JUMPDEST PUSH2 0x3C0 MLOAD DUP1 DUP3 SUB SWAP1 PUSH2 0x2E0 ADD MSTORE PUSH2 0x400 MLOAD SWAP1 PUSH2 0x51D SWAP2 PUSH2 0x34AF JUMP JUMPDEST PUSH2 0x3C0 MLOAD DUP1 DUP3 SUB SWAP1 PUSH2 0x300 ADD MSTORE PUSH2 0x600 MLOAD SWAP1 PUSH2 0x538 SWAP2 PUSH2 0x34AF JUMP JUMPDEST PUSH2 0x3C0 MLOAD DUP1 DUP3 SUB SWAP1 PUSH2 0x320 ADD MSTORE PUSH2 0x640 MLOAD SWAP1 PUSH2 0x553 SWAP2 PUSH2 0x34AF JUMP JUMPDEST PUSH2 0x3C0 MLOAD DUP1 DUP3 SUB SWAP1 PUSH2 0x340 ADD MSTORE PUSH2 0x7E0 MLOAD SWAP1 PUSH2 0x56E SWAP2 PUSH2 0x34AF JUMP JUMPDEST PUSH2 0x3C0 MLOAD DUP1 DUP3 SUB SWAP1 PUSH2 0x360 ADD MSTORE PUSH2 0x5E0 MLOAD SWAP1 PUSH2 0x589 SWAP2 PUSH2 0x34AF JUMP JUMPDEST PUSH2 0x3C0 MLOAD DUP1 DUP3 SUB SWAP1 PUSH2 0x380 ADD MSTORE PUSH2 0x3C0 MLOAD SWAP1 PUSH2 0x6C0 MLOAD SWAP1 PUSH2 0x5A9 SWAP2 PUSH2 0x34AF JUMP JUMPDEST SUB PUSH2 0x3C0 MLOAD RETURN JUMPDEST PUSH1 0x0 DUP1 REVERT JUMPDEST CALLVALUE PUSH2 0x5B0 JUMPI PUSH1 0x0 CALLDATASIZE PUSH1 0x3 NOT ADD SLT PUSH2 0x5B0 JUMPI PUSH1 0x20 PUSH1 0x2 SLOAD PUSH1 0x40 MLOAD SWAP1 DUP2 MSTORE RETURN JUMPDEST CALLVALUE PUSH2 0x5B0 JUMPI PUSH1 0x20 CALLDATASIZE PUSH1 0x3 NOT ADD SLT PUSH2 0x5B0 JUMPI PUSH1 0x4 CALLDATALOAD PUSH1 0x1 PUSH1 0x1 PUSH1 0x40 SHL SUB DUP2 GT PUSH2 0x5B0 JUMPI PUSH2 0x603 SWAP1 CALLDATASIZE SWAP1 PUSH1 0x4 ADD PUSH2 0x34D4 JUMP JUMPDEST SWAP1 PUSH1 0x40 MLOAD PUSH2 0x610 DUP2 PUSH2 0x33A9 JUMP JUMPDEST PUSH1 0x60 DUP2 MSTORE PUSH1 0x20 DUP2 ADD PUSH1 0x60 SWAP1 MSTORE PUSH1 0x40 DUP2 ADD PUSH1 0x60 SWAP1 MSTORE PUSH1 0x60 DUP2 ADD PUSH1 0x60 SWAP1 MSTORE PUSH1 0x80 DUP2 ADD PUSH1 0x60 SWAP1 MSTORE PUSH1 0xA0 DUP2 ADD PUSH1 0x60 SWAP1 MSTORE PUSH1 0xC0 DUP2 ADD PUSH1 0x60 SWAP1 MSTORE PUSH1 0xE0 DUP2 ADD PUSH1 0x60 SWAP1 MSTORE PUSH2 0x100 DUP2 ADD PUSH1 0x60 SWAP1 MSTORE PUSH2 0x120 DUP2 ADD PUSH1 0x60 SWAP1 MSTORE PUSH2 0x140 DUP2 ADD PUSH1 0x60 SWAP1 MSTORE PUSH2 0x160 DUP2 ADD PUSH1 0x60 SWAP1 MSTORE PUSH2 0x180 DUP2 ADD PUSH1 0x60 SWAP1 MSTORE PUSH2 0x1A0 DUP2 ADD PUSH1 0x60 SWAP1 MSTORE PUSH2 0x1C0 DUP2 ADD PUSH1 0x60 SWAP1 MSTORE PUSH2 0x1E0 DUP2 ADD PUSH1 0x60 SWAP1 MSTORE PUSH2 0x200 DUP2 ADD PUSH1 0x60 SWAP1 MSTORE PUSH2 0x220 DUP2 ADD PUSH1 0x60 SWAP1 MSTORE PUSH2 0x240 DUP2 ADD PUSH1 0x60 SWAP1 MSTORE PUSH2 0x260 DUP2 ADD PUSH1 0x60 SWAP1 MSTORE PUSH2 0x280 DUP2 ADD PUSH1 0x60 SWAP1 MSTORE PUSH2 0x2A0 DUP2 ADD PUSH1 0x60 SWAP1 MSTORE PUSH2 0x2C0 DUP2 ADD PUSH1 0x60 SWAP1 MSTORE PUSH2 0x2E0 DUP2 ADD PUSH1 0x60 SWAP1 MSTORE PUSH2 0x300 DUP2 ADD PUSH1 0x60 SWAP1 MSTORE PUSH2 0x320 DUP2 ADD PUSH1 0x60 SWAP1 MSTORE PUSH2 0x340 DUP2 ADD PUSH1 0x60 SWAP1 MSTORE PUSH2 0x360 DUP2 ADD PUSH1 0x60 SWAP1 MSTORE PUSH2 0x380 ADD PUSH1 0x60 SWAP1 MSTORE DUP2 PUSH1 0x40 MLOAD SWAP3 DUP4 SWAP3 DUP4 CALLDATACOPY DUP2 ADD PUSH1 0x1 DUP2 MSTORE SUB PUSH1 0x20 ADD SWAP1 KECCAK256 PUSH1 0x40 MLOAD SWAP1 PUSH2 0x72A DUP3 PUSH2 0x33A9 JUMP JUMPDEST PUSH2 0x733 DUP2 PUSH2 0x33E6 JUMP JUMPDEST DUP3 MSTORE PUSH2 0x741 PUSH1 0x1 DUP3 ADD PUSH2 0x33E6 JUMP JUMPDEST PUSH1 0x20 DUP4 ADD MSTORE PUSH2 0x752 PUSH1 0x2 DUP3 ADD PUSH2 0x33E6 JUMP JUMPDEST PUSH1 0x40 DUP4 ADD MSTORE PUSH2 0x763 PUSH1 0x3 DUP3 ADD PUSH2 0x33E6 JUMP JUMPDEST PUSH1 0x60 DUP4 ADD MSTORE PUSH2 0x774 PUSH1 0x4 DUP3 ADD PUSH2 0x33E6 JUMP JUMPDEST PUSH1 0x80 DUP4 ADD MSTORE PUSH2 0x785 PUSH1 0x5 DUP3 ADD PUSH2 0x33E6 JUMP JUMPDEST PUSH1 0xA0 DUP4 ADD MSTORE PUSH2 0x796 PUSH1 0x6 DUP3 ADD PUSH2 0x33E6 JUMP JUMPDEST PUSH1 0xC0 DUP4 ADD MSTORE PUSH2 0x7A7 PUSH1 0x7 DUP3 ADD PUSH2 0x33E6 JUMP JUMPDEST PUSH1 0xE0 DUP4 ADD MSTORE PUSH2 0x7B8 PUSH1 0x8 DUP3 ADD PUSH2 0x33E6 JUMP JUMPDEST PUSH2 0x100 DUP4 ADD MSTORE PUSH2 0x7CA PUSH1 0x9 DUP3 ADD PUSH2 0x33E6 JUMP JUMPDEST PUSH2 0x120 DUP4 ADD MSTORE PUSH2 0x7DC PUSH1 0xA DUP3 ADD PUSH2 0x33E6 JUMP JUMPDEST PUSH2 0x140 DUP4 ADD MSTORE PUSH2 0x7EE PUSH1 0xB DUP3 ADD PUSH2 0x33E6 JUMP JUMPDEST PUSH2 0x160 DUP4 ADD MSTORE PUSH2 0x800 PUSH1 0xC DUP3 ADD PUSH2 0x33E6 JUMP JUMPDEST PUSH2 0x180 DUP4 ADD MSTORE PUSH2 0x812 PUSH1 0xD DUP3 ADD PUSH2 0x33E6 JUMP JUMPDEST PUSH2 0x1A0 DUP4 ADD MSTORE PUSH2 0x824 PUSH1 0xE DUP3 ADD PUSH2 0x33E6 JUMP JUMPDEST PUSH2 0x1C0 DUP4 ADD MSTORE PUSH2 0x836 PUSH1 0xF DUP3 ADD PUSH2 0x33E6 JUMP JUMPDEST PUSH2 0x1E0 DUP4 ADD MSTORE PUSH2 0x848 PUSH1 0x10 DUP3 ADD PUSH2 0x33E6 JUMP JUMPDEST PUSH2 0x200 DUP4 ADD MSTORE PUSH2 0x85A PUSH1 0x11 DUP3 ADD PUSH2 0x33E6 JUMP JUMPDEST PUSH2 0x220 DUP4 ADD MSTORE PUSH2 0x86C PUSH1 0x12 DUP3 ADD PUSH2 0x33E6 JUMP JUMPDEST PUSH2 0x240 DUP4 ADD MSTORE PUSH2 0x87E PUSH1 0x13 DUP3 ADD PUSH2 0x33E6 JUMP JUMPDEST PUSH2 0x260 DUP4 ADD MSTORE PUSH2 0x890 PUSH1 0x14 DUP3 ADD PUSH2 0x33E6 JUMP JUMPDEST PUSH2 0x280 DUP4 ADD MSTORE PUSH2 0x8A2 PUSH1 0x15 DUP3 ADD PUSH2 0x33E6 JUMP JUMPDEST PUSH2 0x2A0 DUP4 ADD MSTORE PUSH2 0x8B4 PUSH1 0x16 DUP3 ADD PUSH2 0x33E6 JUMP JUMPDEST PUSH2 0x2C0 DUP4 ADD MSTORE PUSH2 0x8C6 PUSH1 0x17 DUP3 ADD PUSH2 0x33E6 JUMP JUMPDEST PUSH2 0x2E0 DUP4 ADD MSTORE PUSH2 0x8D8 PUSH1 0x18 DUP3 ADD PUSH2 0x33E6 JUMP JUMPDEST PUSH2 0x300 DUP4 ADD MSTORE PUSH2 0x8EA PUSH1 0x19 DUP3 ADD PUSH2 0x33E6 JUMP JUMPDEST PUSH2 0x320 DUP4 ADD MSTORE PUSH2 0x8FC PUSH1 0x1A DUP3 ADD PUSH2 0x33E6 JUMP JUMPDEST PUSH2 0x340 DUP4 ADD MSTORE PUSH2 0x90E PUSH1 0x1B DUP3 ADD PUSH2 0x33E6 JUMP JUMPDEST PUSH2 0x360 DUP4 ADD MSTORE PUSH1 0x1C ADD PUSH2 0x920 SWAP1 PUSH2 0x33E6 JUMP JUMPDEST PUSH2 0x380 DUP3 ADD MSTORE PUSH1 0x40 MLOAD DUP1 SWAP2 PUSH1 0x20 DUP3 MSTORE DUP1 MLOAD PUSH1 0x20 DUP4 ADD PUSH2 0x3A0 SWAP1 MSTORE PUSH2 0x3C0 DUP4 ADD PUSH2 0x948 SWAP2 PUSH2 0x34AF JUMP JUMPDEST PUSH1 0x20 DUP3 ADD MLOAD DUP4 DUP3 SUB PUSH1 0x1F NOT ADD PUSH1 0x40 DUP6 ADD MSTORE PUSH2 0x963 SWAP2 SWAP1 PUSH2 0x34AF JUMP JUMPDEST PUSH1 0x40 DUP3 ADD MLOAD DUP4 DUP3 SUB PUSH1 0x1F NOT ADD PUSH1 0x60 DUP6 ADD MSTORE PUSH2 0x97E SWAP2 SWAP1 PUSH2 0x34AF JUMP JUMPDEST PUSH1 0x60 DUP3 ADD MLOAD DUP4 DUP3 SUB PUSH1 0x1F NOT ADD PUSH1 0x80 DUP6 ADD MSTORE PUSH2 0x999 SWAP2 SWAP1 PUSH2 0x34AF JUMP JUMPDEST PUSH1 0x80 DUP3 ADD MLOAD DUP4 DUP3 SUB PUSH1 0x1F NOT ADD PUSH1 0xA0 DUP6 ADD MSTORE PUSH2 0x9B4 SWAP2 SWAP1 PUSH2 0x34AF JUMP JUMPDEST PUSH1 0xA0 DUP3 ADD MLOAD DUP4 DUP3 SUB PUSH1 0x1F NOT ADD PUSH1 0xC0 DUP6 ADD MSTORE PUSH2 0x9CF SWAP2 SWAP1 PUSH2 0x34AF JUMP JUMPDEST PUSH1 0xC0 DUP3 ADD MLOAD DUP4 DUP3 SUB PUSH1 0x1F NOT ADD PUSH1 0xE0 DUP6 ADD MSTORE PUSH2 0x9EA SWAP2 SWAP1 PUSH2 0x34AF JUMP JUMPDEST PUSH1 0xE0 DUP3 ADD MLOAD DUP4 DUP3 SUB PUSH1 0x1F NOT ADD PUSH2 0x100 DUP6 ADD MSTORE PUSH2 0xA06 SWAP2 SWAP1 PUSH2 0x34AF JUMP JUMPDEST PUSH2 0x100 DUP3 ADD MLOAD DUP4 DUP3 SUB PUSH1 0x1F NOT ADD PUSH2 0x120 DUP6 ADD MSTORE PUSH2 0xA23 SWAP2 SWAP1 PUSH2 0x34AF JUMP JUMPDEST PUSH2 0x120 DUP3 ADD MLOAD DUP4 DUP3 SUB PUSH1 0x1F NOT ADD PUSH2 0x140 DUP6 ADD MSTORE PUSH2 0xA40 SWAP2 SWAP1 PUSH2 0x34AF JUMP JUMPDEST PUSH2 0x140 DUP3 ADD MLOAD DUP4 DUP3 SUB PUSH1 0x1F NOT ADD PUSH2 0x160 DUP6 ADD MSTORE PUSH2 0xA5D SWAP2 SWAP1 PUSH2 0x34AF JUMP JUMPDEST PUSH2 0x160 DUP3 ADD MLOAD DUP4 DUP3 SUB PUSH1 0x1F NOT ADD PUSH2 0x180 DUP6 ADD MSTORE PUSH2 0xA7A SWAP2 SWAP1 PUSH2 0x34AF JUMP JUMPDEST PUSH2 0x180 DUP3 ADD MLOAD DUP4 DUP3 SUB PUSH1 0x1F NOT ADD PUSH2 0x1A0 DUP6 ADD MSTORE PUSH2 0xA97 SWAP2 SWAP1 PUSH2 0x34AF JUMP JUMPDEST PUSH2 0x1A0 DUP3 ADD MLOAD DUP4 DUP3 SUB PUSH1 0x1F NOT ADD PUSH2 0x1C0 DUP6 ADD MSTORE PUSH2 0xAB4 SWAP2 SWAP1 PUSH2 0x34AF JUMP JUMPDEST PUSH2 0x1C0 DUP3 ADD MLOAD DUP4 DUP3 SUB PUSH1 0x1F NOT ADD PUSH2 0x1E0 DUP6 ADD MSTORE PUSH2 0xAD1 SWAP2 SWAP1 PUSH2 0x34AF JUMP JUMPDEST PUSH2 0x1E0 DUP3 ADD MLOAD DUP4 DUP3 SUB PUSH1 0x1F NOT ADD PUSH2 0x200 DUP6 ADD MSTORE PUSH2 0xAEE SWAP2 SWAP1 PUSH2 0x34AF JUMP JUMPDEST PUSH2 0x200 DUP3 ADD MLOAD DUP4 DUP3 SUB PUSH1 0x1F NOT ADD PUSH2 0x220 DUP6 ADD MSTORE PUSH2 0xB0B SWAP2 SWAP1 PUSH2 0x34AF JUMP JUMPDEST PUSH2 0x220 DUP3 ADD MLOAD DUP4 DUP3 SUB PUSH1 0x1F NOT ADD PUSH2 0x240 DUP6 ADD MSTORE PUSH2 0xB28 SWAP2 SWAP1 PUSH2 0x34AF JUMP JUMPDEST PUSH2 0x240 DUP3 ADD MLOAD DUP4 DUP3 SUB PUSH1 0x1F NOT ADD PUSH2 0x260 DUP6 ADD MSTORE PUSH2 0xB45 SWAP2 SWAP1 PUSH2 0x34AF JUMP JUMPDEST PUSH2 0x260 DUP3 ADD MLOAD DUP4 DUP3 SUB PUSH1 0x1F NOT ADD PUSH2 0x280 DUP6 ADD MSTORE PUSH2 0xB62 SWAP2 SWAP1 PUSH2 0x34AF JUMP JUMPDEST PUSH2 0x280 DUP3 ADD MLOAD DUP4 DUP3 SUB PUSH1 0x1F NOT ADD PUSH2 0x2A0 DUP6 ADD MSTORE PUSH2 0xB7F SWAP2 SWAP1 PUSH2 0x34AF JUMP JUMPDEST PUSH2 0x2A0 DUP3 ADD MLOAD DUP4 DUP3 SUB PUSH1 0x1F NOT ADD PUSH2 0x2C0 DUP6 ADD MSTORE PUSH2 0xB9C SWAP2 SWAP1 PUSH2 0x34AF JUMP JUMPDEST PUSH2 0x2C0 DUP3 ADD MLOAD DUP4 DUP3 SUB PUSH1 0x1F NOT ADD PUSH2 0x2E0 DUP6 ADD MSTORE PUSH2 0xBB9 SWAP2 SWAP1 PUSH2 0x34AF JUMP JUMPDEST PUSH2 0x2E0 DUP3 ADD MLOAD DUP4 DUP3 SUB PUSH1 0x1F NOT ADD PUSH2 0x300 DUP6 ADD MSTORE PUSH2 0xBD6 SWAP2 SWAP1 PUSH2 0x34AF JUMP JUMPDEST PUSH2 0x300 DUP3 ADD MLOAD DUP4 DUP3 SUB PUSH1 0x1F NOT ADD PUSH2 0x320 DUP6 ADD MSTORE PUSH2 0xBF3 SWAP2 SWAP1 PUSH2 0x34AF JUMP JUMPDEST PUSH2 0x320 DUP3 ADD MLOAD DUP4 DUP3 SUB PUSH1 0x1F NOT ADD PUSH2 0x340 DUP6 ADD MSTORE PUSH2 0xC10 SWAP2 SWAP1 PUSH2 0x34AF JUMP JUMPDEST PUSH2 0x340 DUP3 ADD MLOAD DUP4 DUP3 SUB PUSH1 0x1F NOT ADD PUSH2 0x360 DUP6 ADD MSTORE PUSH2 0xC2D SWAP2 SWAP1 PUSH2 0x34AF JUMP JUMPDEST PUSH2 0x360 DUP3 ADD MLOAD DUP4 DUP3 SUB PUSH1 0x1F NOT ADD PUSH2 0x380 DUP6 ADD MSTORE PUSH2 0xC4A SWAP2 SWAP1 PUSH2 0x34AF JUMP JUMPDEST SWAP1 PUSH2 0x380 ADD MLOAD SWAP1 PUSH1 0x1F NOT DUP4 DUP3 SUB ADD PUSH2 0x3A0 DUP5 ADD MSTORE PUSH2 0xC67 SWAP2 PUSH2 0x34AF JUMP JUMPDEST SUB SWAP1 RETURN JUMPDEST CALLVALUE PUSH2 0x5B0 JUMPI PUSH1 0x0 CALLDATASIZE PUSH1 0x3 NOT ADD SLT PUSH2 0x5B0 JUMPI PUSH1 0x0 SLOAD PUSH1 0x40 MLOAD PUSH1 0x1 PUSH1 0x1 PUSH1 0xA0 SHL SUB SWAP1 SWAP2 AND DUP2 MSTORE PUSH1 0x20 SWAP1 RETURN JUMPDEST CALLVALUE PUSH2 0x5B0 JUMPI PUSH2 0x3C0 CALLDATASIZE PUSH1 0x3 NOT ADD SLT PUSH2 0x5B0 JUMPI PUSH1 0x4 CALLDATALOAD PUSH1 0x1 PUSH1 0x1 PUSH1 0x40 SHL SUB DUP2 GT PUSH2 0x5B0 JUMPI PUSH2 0xCC5 SWAP1 CALLDATASIZE SWAP1 PUSH1 0x4 ADD PUSH2 0x34D4 JUMP JUMPDEST PUSH2 0x740 MSTORE PUSH2 0x5A0 MSTORE PUSH1 0x24 CALLDATALOAD PUSH1 0x1 PUSH1 0x1 PUSH1 0x40 SHL SUB DUP2 GT PUSH2 0x5B0 JUMPI PUSH2 0xCEC SWAP1 CALLDATASIZE SWAP1 PUSH1 0x4 ADD PUSH2 0x34D4 JUMP JUMPDEST PUSH2 0x4A0 MSTORE PUSH2 0x160 MSTORE PUSH1 0x44 CALLDATALOAD PUSH1 0x1 PUSH1 0x1 PUSH1 0x40 SHL SUB DUP2 GT PUSH2 0x5B0 JUMPI PUSH2 0xD13 SWAP1 CALLDATASIZE SWAP1 PUSH1 0x4 ADD PUSH2 0x34D4 JUMP JUMPDEST PUSH2 0x800 MSTORE PUSH2 0x820 MSTORE PUSH1 0x64 CALLDATALOAD PUSH1 0x1 PUSH1 0x1 PUSH1 0x40 SHL SUB DUP2 GT PUSH2 0x5B0 JUMPI PUSH2 0xD3A SWAP1 CALLDATASIZE SWAP1 PUSH1 0x4 ADD PUSH2 0x34D4 JUMP JUMPDEST PUSH2 0x6E0 MSTORE PUSH2 0xA20 MSTORE PUSH1 0x1 PUSH1 0x1 PUSH1 0x40 SHL SUB PUSH1 0x84 CALLDATALOAD GT PUSH2 0x5B0 JUMPI PUSH2 0xD61 CALLDATASIZE PUSH1 0x84 CALLDATALOAD PUSH1 0x4 ADD PUSH2 0x34D4 JUMP JUMPDEST PUSH2 0x760 MSTORE PUSH2 0x500 MSTORE PUSH1 0x1 PUSH1 0x1 PUSH1 0x40 SHL SUB PUSH1 0xA4 CALLDATALOAD GT PUSH2 0x5B0 JUMPI PUSH2 0xD88 CALLDATASIZE PUSH1 0xA4 CALLDATALOAD PUSH1 0x4 ADD PUSH2 0x34D4 JUMP JUMPDEST PUSH2 0x1A0 MSTORE PUSH2 0x680 MSTORE PUSH1 0x1 PUSH1 0x1 PUSH1 0x40 SHL SUB PUSH1 0xC4 CALLDATALOAD GT PUSH2 0x5B0 JUMPI PUSH2 0xDAF CALLDATASIZE PUSH1 0xC4 CALLDATALOAD PUSH1 0x4 ADD PUSH2 0x34D4 JUMP JUMPDEST PUSH2 0x6A0 MSTORE PUSH2 0x2A0 MSTORE PUSH1 0x1 PUSH1 0x1 PUSH1 0x40 SHL SUB PUSH1 0xE4 CALLDATALOAD GT PUSH2 0x5B0 JUMPI PUSH2 0xDD6 CALLDATASIZE PUSH1 0xE4 CALLDATALOAD PUSH1 0x4 ADD PUSH2 0x34D4 JUMP JUMPDEST PUSH2 0x860 MSTORE PUSH2 0x580 MSTORE PUSH1 0x1 PUSH1 0x1 PUSH1 0x40 SHL SUB PUSH2 0x104 CALLDATALOAD GT PUSH2 0x5B0 JUMPI PUSH2 0xDFF CALLDATASIZE PUSH2 0x104 CALLDATALOAD PUSH1 0x4 ADD PUSH2 0x34D4 JUMP JUMPDEST PUSH2 0x440 MSTORE PUSH2 0x4C0 MSTORE PUSH1 0x1 PUSH1 0x1 PUSH1 0x40 SHL SUB PUSH2 0x124 CALLDATALOAD GT PUSH2 0x5B0 JUMPI PUSH2 0xE28 CALLDATASIZE PUSH2 0x124 CALLDATALOAD PUSH1 0x4 ADD PUSH2 0x34D4 JUMP JUMPDEST PUSH1 0x80 MSTORE PUSH2 0x9C0 MSTORE PUSH1 0x1 PUSH1 0x1 PUSH1 0x40 SHL SUB PUSH2 0x144 CALLDATALOAD GT PUSH2 0x5B0 JUMPI PUSH2 0xE50 CALLDATASIZE PUSH2 0x144 CALLDATALOAD PUSH1 0x4 ADD PUSH2 0x34D4 JUMP JUMPDEST PUSH2 0x980 MSTORE PUSH2 0x8C0 MSTORE PUSH1 0x1 PUSH1 0x1 PUSH1 0x40 SHL SUB PUSH2 0x164 CALLDATALOAD GT PUSH2 0x5B0 JUMPI PUSH2 0xE79 CALLDATASIZE PUSH2 0x164 CALLDATALOAD PUSH1 0x4 ADD PUSH2 0x34D4 JUMP JUMPDEST PUSH2 0x8A0 MSTORE PUSH2 0x140 MSTORE PUSH1 0x1 PUSH1 0x1 PUSH1 0x40 SHL SUB PUSH2 0x184 CALLDATALOAD GT PUSH2 0x5B0 JUMPI PUSH2 0xEA2 CALLDATASIZE PUSH2 0x184 CALLDATALOAD PUSH1 0x4 ADD PUSH2 0x34D4 JUMP JUMPDEST PUSH2 0x3A0 MSTORE PUSH2 0x700 MSTORE PUSH1 0x1 PUSH1 0x1 PUSH1 0x40 SHL SUB PUSH2 0x1A4 CALLDATALOAD GT PUSH2 0x5B0 JUMPI PUSH2 0xECB CALLDATASIZE PUSH2 0x1A4 CALLDATALOAD PUSH1 0x4 ADD PUSH2 0x34D4 JUMP JUMPDEST PUSH2 0x840 MSTORE PUSH2 0x620 MSTORE PUSH1 0x1 PUSH1 0x1 PUSH1 0x40 SHL SUB PUSH2 0x1C4 CALLDATALOAD GT PUSH2 0x5B0 JUMPI PUSH2 0xEF4 CALLDATASIZE PUSH2 0x1C4 CALLDATALOAD PUSH1 0x4 ADD PUSH2 0x34D4 JUMP JUMPDEST PUSH2 0x180 MSTORE PUSH2 0x200 MSTORE PUSH1 0x1 PUSH1 0x1 PUSH1 0x40 SHL SUB PUSH2 0x1E4 CALLDATALOAD GT PUSH2 0x5B0 JUMPI PUSH2 0xF1D CALLDATASIZE PUSH2 0x1E4 CALLDATALOAD PUSH1 0x4 ADD PUSH2 0x34D4 JUMP JUMPDEST PUSH2 0x880 MSTORE PUSH2 0x9A0 MSTORE PUSH1 0x1 PUSH1 0x1 PUSH1 0x40 SHL SUB PUSH2 0x204 CALLDATALOAD GT PUSH2 0x5B0 JUMPI PUSH2 0xF46 CALLDATASIZE PUSH2 0x204 CALLDATALOAD PUSH1 0x4 ADD PUSH2 0x34D4 JUMP JUMPDEST PUSH2 0x340 MSTORE PUSH2 0x320 MSTORE PUSH1 0x1 PUSH1 0x1 PUSH1 0x40 SHL SUB PUSH2 0x224 CALLDATALOAD GT PUSH2 0x5B0 JUMPI PUSH2 0xF6F CALLDATASIZE PUSH2 0x224 CALLDATALOAD PUSH1 0x4 ADD PUSH2 0x34D4 JUMP JUMPDEST PUSH2 0x540 MSTORE PUSH2 0x5C0 MSTORE PUSH1 0x1 PUSH1 0x1 PUSH1 0x40 SHL SUB PUSH2 0x244 CALLDATALOAD GT PUSH2 0x5B0 JUMPI PUSH2 0xF98 CALLDATASIZE PUSH2 0x244 CALLDATALOAD PUSH1 0x4 ADD PUSH2 0x34D4 JUMP JUMPDEST PUSH1 0xC0 MSTORE PUSH2 0x420 MSTORE PUSH1 0x1 PUSH1 0x1 PUSH1 0x40 SHL SUB PUSH2 0x264 CALLDATALOAD GT PUSH2 0x5B0 JUMPI PUSH2 0xFC0 CALLDATASIZE PUSH2 0x264 CALLDATALOAD PUSH1 0x4 ADD PUSH2 0x34D4 JUMP JUMPDEST PUSH2 0x460 MSTORE PUSH2 0x9E0 MSTORE PUSH1 0x1 PUSH1 0x1 PUSH1 0x40 SHL SUB PUSH2 0x284 CALLDATALOAD GT PUSH2 0x5B0 JUMPI PUSH2 0xFE9 CALLDATASIZE PUSH2 0x284 CALLDATALOAD PUSH1 0x4 ADD PUSH2 0x34D4 JUMP JUMPDEST PUSH2 0x2C0 MSTORE PUSH2 0xA60 MSTORE PUSH1 0x1 PUSH1 0x1 PUSH1 0x40 SHL SUB PUSH2 0x2A4 CALLDATALOAD GT PUSH2 0x5B0 JUMPI PUSH2 0x1012 CALLDATASIZE PUSH2 0x2A4 CALLDATALOAD PUSH1 0x4 ADD PUSH2 0x34D4 JUMP JUMPDEST PUSH2 0xA00 MSTORE PUSH2 0x4E0 MSTORE PUSH1 0x1 PUSH1 0x1 PUSH1 0x40 SHL SUB PUSH2 0x2C4 CALLDATALOAD GT PUSH2 0x5B0 JUMPI PUSH2 0x103B CALLDATASIZE PUSH2 0x2C4 CALLDATALOAD PUSH1 0x4 ADD PUSH2 0x34D4 JUMP JUMPDEST PUSH2 0x240 MSTORE PUSH2 0x660 MSTORE PUSH1 0x1 PUSH1 0x1 PUSH1 0x40 SHL SUB PUSH2 0x2E4 CALLDATALOAD GT PUSH2 0x5B0 JUMPI PUSH2 0x1064 CALLDATASIZE PUSH2 0x2E4 CALLDATALOAD PUSH1 0x4 ADD PUSH2 0x34D4 JUMP JUMPDEST PUSH2 0x780 MSTORE PUSH2 0x960 MSTORE PUSH1 0x1 PUSH1 0x1 PUSH1 0x40 SHL SUB PUSH2 0x304 CALLDATALOAD GT PUSH2 0x5B0 JUMPI PUSH2 0x108D CALLDATASIZE PUSH2 0x304 CALLDATALOAD PUSH1 0x4 ADD PUSH2 0x34D4 JUMP JUMPDEST PUSH2 0xA40 MSTORE PUSH2 0x220 MSTORE PUSH1 0x1 PUSH1 0x1 PUSH1 0x40 SHL SUB PUSH2 0x324 CALLDATALOAD GT PUSH2 0x5B0 JUMPI PUSH2 0x10B6 CALLDATASIZE PUSH2 0x324 CALLDATALOAD PUSH1 0x4 ADD PUSH2 0x34D4 JUMP JUMPDEST PUSH2 0x7A0 MSTORE PUSH2 0x2E0 MSTORE PUSH1 0x1 PUSH1 0x1 PUSH1 0x40 SHL SUB PUSH2 0x344 CALLDATALOAD GT PUSH2 0x5B0 JUMPI PUSH2 0x10DF CALLDATASIZE PUSH2 0x344 CALLDATALOAD PUSH1 0x4 ADD PUSH2 0x34D4 JUMP JUMPDEST PUSH1 0xE0 MSTORE PUSH2 0x900 MSTORE PUSH1 0x1 PUSH1 0x1 PUSH1 0x40 SHL SUB PUSH2 0x364 CALLDATALOAD GT PUSH2 0x5B0 JUMPI PUSH2 0x1107 CALLDATASIZE PUSH2 0x364 CALLDATALOAD PUSH1 0x4 ADD PUSH2 0x34D4 JUMP JUMPDEST PUSH2 0x380 MSTORE PUSH2 0x280 MSTORE PUSH1 0x1 PUSH1 0x1 PUSH1 0x40 SHL SUB PUSH2 0x384 CALLDATALOAD GT PUSH2 0x5B0 JUMPI PUSH2 0x1130 CALLDATASIZE PUSH2 0x384 CALLDATALOAD PUSH1 0x4 ADD PUSH2 0x34D4 JUMP JUMPDEST PUSH2 0x3E0 MSTORE PUSH2 0x300 MSTORE PUSH1 0x1 PUSH1 0x1 PUSH1 0x40 SHL SUB PUSH2 0x3A4 CALLDATALOAD GT PUSH2 0x5B0 JUMPI PUSH2 0x1159 CALLDATASIZE PUSH2 0x3A4 CALLDATALOAD PUSH1 0x4 ADD PUSH2 0x34D4 JUMP JUMPDEST PUSH1 0xA0 MSTORE PUSH2 0x100 MSTORE PUSH1 0x0 SLOAD PUSH1 0x1 PUSH1 0x1 PUSH1 0xA0 SHL SUB AND CALLER SUB PUSH2 0x32A4 JUMPI PUSH2 0x1182 PUSH1 0x40 MLOAD DUP1 PUSH2 0x720 MSTORE PUSH2 0x33A9 JUMP JUMPDEST PUSH2 0x1193 CALLDATASIZE PUSH2 0x4A0 MLOAD PUSH2 0x160 MLOAD PUSH2 0x3501 JUMP JUMPDEST PUSH2 0x720 MLOAD MSTORE PUSH2 0x11A9 CALLDATASIZE PUSH2 0x800 MLOAD PUSH2 0x820 MLOAD PUSH2 0x3501 JUMP JUMPDEST PUSH1 0x20 PUSH2 0x720 MLOAD ADD MSTORE PUSH2 0x11C2 CALLDATASIZE PUSH2 0x6E0 MLOAD PUSH2 0xA20 MLOAD PUSH2 0x3501 JUMP JUMPDEST PUSH1 0x40 PUSH2 0x720 MLOAD ADD MSTORE PUSH2 0x11DB CALLDATASIZE PUSH2 0x760 MLOAD PUSH2 0x500 MLOAD PUSH2 0x3501 JUMP JUMPDEST PUSH1 0x60 PUSH2 0x720 MLOAD ADD MSTORE PUSH2 0x11F4 CALLDATASIZE PUSH2 0x1A0 MLOAD PUSH2 0x680 MLOAD PUSH2 0x3501 JUMP JUMPDEST PUSH1 0x80 PUSH2 0x720 MLOAD ADD MSTORE PUSH2 0x120D CALLDATASIZE PUSH2 0x6A0 MLOAD PUSH2 0x2A0 MLOAD PUSH2 0x3501 JUMP JUMPDEST PUSH1 0xA0 PUSH2 0x720 MLOAD ADD MSTORE PUSH2 0x1226 CALLDATASIZE PUSH2 0x860 MLOAD PUSH2 0x580 MLOAD PUSH2 0x3501 JUMP JUMPDEST PUSH1 0xC0 PUSH2 0x720 MLOAD ADD MSTORE PUSH2 0x123F CALLDATASIZE PUSH2 0x440 MLOAD PUSH2 0x4C0 MLOAD PUSH2 0x3501 JUMP JUMPDEST PUSH1 0xE0 PUSH2 0x720 MLOAD ADD MSTORE PUSH2 0x1257 CALLDATASIZE PUSH1 0x80 MLOAD PUSH2 0x9C0 MLOAD PUSH2 0x3501 JUMP JUMPDEST PUSH2 0x100 PUSH2 0x720 MLOAD ADD MSTORE PUSH2 0x1271 CALLDATASIZE PUSH2 0x980 MLOAD PUSH2 0x8C0 MLOAD PUSH2 0x3501 JUMP JUMPDEST PUSH2 0x120 PUSH2 0x720 MLOAD ADD MSTORE PUSH2 0x128B CALLDATASIZE PUSH2 0x8A0 MLOAD PUSH2 0x140 MLOAD PUSH2 0x3501 JUMP JUMPDEST PUSH2 0x140 PUSH2 0x720 MLOAD ADD MSTORE PUSH2 0x12A5 CALLDATASIZE PUSH2 0x3A0 MLOAD PUSH2 0x700 MLOAD PUSH2 0x3501 JUMP JUMPDEST PUSH2 0x160 PUSH2 0x720 MLOAD ADD MSTORE PUSH2 0x12BF CALLDATASIZE PUSH2 0x840 MLOAD PUSH2 0x620 MLOAD PUSH2 0x3501 JUMP JUMPDEST PUSH2 0x180 PUSH2 0x720 MLOAD ADD MSTORE PUSH2 0x12D9 CALLDATASIZE PUSH2 0x180 MLOAD PUSH2 0x200 MLOAD PUSH2 0x3501 JUMP JUMPDEST PUSH2 0x1A0 PUSH2 0x720 MLOAD ADD MSTORE PUSH2 0x12F3 CALLDATASIZE PUSH2 0x880 MLOAD PUSH2 0x9A0 MLOAD PUSH2 0x3501 JUMP JUMPDEST PUSH2 0x1C0 PUSH2 0x720 MLOAD ADD MSTORE PUSH2 0x130D CALLDATASIZE PUSH2 0x340 MLOAD PUSH2 0x320 MLOAD PUSH2 0x3501 JUMP JUMPDEST PUSH2 0x1E0 PUSH2 0x720 MLOAD ADD MSTORE PUSH2 0x1327 CALLDATASIZE PUSH2 0x540 MLOAD PUSH2 0x5C0 MLOAD PUSH2 0x3501 JUMP JUMPDEST PUSH2 0x200 PUSH2 0x720 MLOAD ADD MSTORE PUSH2 0x1340 CALLDATASIZE PUSH1 0xC0 MLOAD PUSH2 0x420 MLOAD PUSH2 0x3501 JUMP JUMPDEST PUSH2 0x220 PUSH2 0x720 MLOAD ADD MSTORE PUSH2 0x135A CALLDATASIZE PUSH2 0x460 MLOAD PUSH2 0x9E0 MLOAD PUSH2 0x3501 JUMP JUMPDEST PUSH2 0x240 PUSH2 0x720 MLOAD ADD MSTORE PUSH2 0x1374 CALLDATASIZE PUSH2 0x2C0 MLOAD PUSH2 0xA60 MLOAD PUSH2 0x3501 JUMP JUMPDEST PUSH2 0x260 PUSH2 0x720 MLOAD ADD MSTORE PUSH2 0x138E CALLDATASIZE PUSH2 0xA00 MLOAD PUSH2 0x4E0 MLOAD PUSH2 0x3501 JUMP JUMPDEST PUSH2 0x280 PUSH2 0x720 MLOAD ADD MSTORE PUSH2 0x13A8 CALLDATASIZE PUSH2 0x240 MLOAD PUSH2 0x660 MLOAD PUSH2 0x3501 JUMP JUMPDEST PUSH2 0x2A0 PUSH2 0x720 MLOAD ADD MSTORE PUSH2 0x13C2 CALLDATASIZE PUSH2 0x780 MLOAD PUSH2 0x960 MLOAD PUSH2 0x3501 JUMP JUMPDEST PUSH2 0x2C0 PUSH2 0x720 MLOAD ADD MSTORE PUSH2 0x13DC CALLDATASIZE PUSH2 0xA40 MLOAD PUSH2 0x220 MLOAD PUSH2 0x3501 JUMP JUMPDEST PUSH2 0x2E0 PUSH2 0x720 MLOAD ADD MSTORE PUSH2 0x13F6 CALLDATASIZE PUSH2 0x7A0 MLOAD PUSH2 0x2E0 MLOAD PUSH2 0x3501 JUMP JUMPDEST PUSH2 0x300 PUSH2 0x720 MLOAD ADD MSTORE PUSH2 0x140F CALLDATASIZE PUSH1 0xE0 MLOAD PUSH2 0x900 MLOAD PUSH2 0x3501 JUMP JUMPDEST PUSH2 0x320 PUSH2 0x720 MLOAD ADD MSTORE PUSH2 0x1429 CALLDATASIZE PUSH2 0x380 MLOAD PUSH2 0x280 MLOAD PUSH2 0x3501 JUMP JUMPDEST PUSH2 0x340 PUSH2 0x720 MLOAD ADD MSTORE PUSH2 0x1443 CALLDATASIZE PUSH2 0x3E0 MLOAD PUSH2 0x300 MLOAD PUSH2 0x3501 JUMP JUMPDEST PUSH2 0x360 PUSH2 0x720 MLOAD ADD MSTORE PUSH2 0x145C CALLDATASIZE PUSH1 0xA0 MLOAD PUSH2 0x100 MLOAD PUSH2 0x3501 JUMP JUMPDEST PUSH2 0x380 PUSH2 0x720 MLOAD ADD MSTORE PUSH1 0x40 MLOAD PUSH2 0x740 MLOAD PUSH2 0x5A0 MLOAD DUP3 CALLDATACOPY PUSH1 0x1 PUSH2 0x740 MLOAD DUP3 ADD MSTORE PUSH1 0x20 DUP2 PUSH2 0x740 MLOAD DUP2 ADD SUB ADD SWAP1 KECCAK256 PUSH2 0x720 MLOAD MLOAD DUP1 MLOAD SWAP1 PUSH1 0x1 PUSH1 0x1 PUSH1 0x40 SHL SUB DUP3 GT PUSH2 0x2457 JUMPI DUP2 SWAP1 PUSH2 0x14B4 DUP3 PUSH2 0x14AE DUP7 SLOAD PUSH2 0x336F JUMP JUMPDEST DUP7 PUSH2 0x3547 JUMP JUMPDEST PUSH1 0x20 SWAP1 PUSH1 0x1F DUP4 GT PUSH1 0x1 EQ PUSH2 0x3238 JUMPI PUSH1 0x0 SWAP3 PUSH2 0x322D JUMPI JUMPDEST POP POP DUP2 PUSH1 0x1 SHL SWAP2 PUSH1 0x0 NOT SWAP1 PUSH1 0x3 SHL SHR NOT AND OR DUP2 SSTORE JUMPDEST PUSH1 0x20 PUSH2 0x720 MLOAD ADD MLOAD DUP1 MLOAD SWAP1 PUSH1 0x1 PUSH1 0x1 PUSH1 0x40 SHL SUB DUP3 GT PUSH2 0x2457 JUMPI DUP2 SWAP1 PUSH2 0x1514 DUP3 PUSH2 0x150B PUSH1 0x1 DUP8 ADD SLOAD PUSH2 0x336F JUMP JUMPDEST PUSH1 0x1 DUP8 ADD PUSH2 0x3547 JUMP JUMPDEST PUSH1 0x20 SWAP1 PUSH1 0x1F DUP4 GT PUSH1 0x1 EQ PUSH2 0x31BB JUMPI PUSH1 0x0 SWAP3 PUSH2 0x31B0 JUMPI JUMPDEST POP POP DUP2 PUSH1 0x1 SHL SWAP2 PUSH1 0x0 NOT SWAP1 PUSH1 0x3 SHL SHR NOT AND OR PUSH1 0x1 DUP3 ADD SSTORE JUMPDEST PUSH1 0x40 PUSH2 0x720 MLOAD ADD MLOAD DUP1 MLOAD SWAP1 PUSH1 0x1 PUSH1 0x1 PUSH1 0x40 SHL SUB DUP3 GT PUSH2 0x2457 JUMPI DUP2 SWAP1 PUSH2 0x1577 DUP3 PUSH2 0x156E PUSH1 0x2 DUP8 ADD SLOAD PUSH2 0x336F JUMP JUMPDEST PUSH1 0x2 DUP8 ADD PUSH2 0x3547 JUMP JUMPDEST PUSH1 0x20 SWAP1 PUSH1 0x1F DUP4 GT PUSH1 0x1 EQ PUSH2 0x313E JUMPI PUSH1 0x0 SWAP3 PUSH2 0x3133 JUMPI JUMPDEST POP POP DUP2 PUSH1 0x1 SHL SWAP2 PUSH1 0x0 NOT SWAP1 PUSH1 0x3 SHL SHR NOT AND OR PUSH1 0x2 DUP3 ADD SSTORE JUMPDEST PUSH1 0x60 PUSH2 0x720 MLOAD ADD MLOAD DUP1 MLOAD SWAP1 PUSH1 0x1 PUSH1 0x1 PUSH1 0x40 SHL SUB DUP3 GT PUSH2 0x2457 JUMPI DUP2 SWAP1 PUSH2 0x15DA DUP3 PUSH2 0x15D1 PUSH1 0x3 DUP8 ADD SLOAD PUSH2 0x336F JUMP JUMPDEST PUSH1 0x3 DUP8 ADD PUSH2 0x3547 JUMP JUMPDEST PUSH1 0x20 SWAP1 PUSH1 0x1F DUP4 GT PUSH1 0x1 EQ PUSH2 0x30C1 JUMPI PUSH1 0x0 SWAP3 PUSH2 0x30B6 JUMPI JUMPDEST POP POP DUP2 PUSH1 0x1 SHL SWAP2 PUSH1 0x0 NOT SWAP1 PUSH1 0x3 SHL SHR NOT AND OR PUSH1 0x3 DUP3 ADD SSTORE JUMPDEST PUSH1 0x80 PUSH2 0x720 MLOAD ADD MLOAD DUP1 MLOAD SWAP1 PUSH1 0x1 PUSH1 0x1 PUSH1 0x40 SHL SUB DUP3 GT PUSH2 0x2457 JUMPI DUP2 SWAP1 PUSH2 0x163D DUP3 PUSH2 0x1634 PUSH1 0x4 DUP8 ADD SLOAD PUSH2 0x336F JUMP JUMPDEST PUSH1 0x4 DUP8 ADD PUSH2 0x3547 JUMP JUMPDEST PUSH1 0x20 SWAP1 PUSH1 0x1F DUP4 GT PUSH1 0x1 EQ PUSH2 0x3044 JUMPI PUSH1 0x0 SWAP3 PUSH2 0x3039 JUMPI JUMPDEST POP POP DUP2 PUSH1 0x1 SHL SWAP2 PUSH1 0x0 NOT SWAP1 PUSH1 0x3 SHL SHR NOT AND OR PUSH1 0x4 DUP3 ADD SSTORE JUMPDEST PUSH1 0xA0 PUSH2 0x720 MLOAD ADD MLOAD DUP1 MLOAD SWAP1 PUSH1 0x1 PUSH1 0x1 PUSH1 0x40 SHL SUB DUP3 GT PUSH2 0x2457 JUMPI DUP2 SWAP1 PUSH2 0x16A0 DUP3 PUSH2 0x1697 PUSH1 0x5 DUP8 ADD SLOAD PUSH2 0x336F JUMP JUMPDEST PUSH1 0x5 DUP8 ADD PUSH2 0x3547 JUMP JUMPDEST PUSH1 0x20 SWAP1 PUSH1 0x1F DUP4 GT PUSH1 0x1 EQ PUSH2 0x2FC7 JUMPI PUSH1 0x0 SWAP3 PUSH2 0x2FBC JUMPI JUMPDEST POP POP DUP2 PUSH1 0x1 SHL SWAP2 PUSH1 0x0 NOT SWAP1 PUSH1 0x3 SHL SHR NOT AND OR PUSH1 0x5 DUP3 ADD SSTORE JUMPDEST PUSH1 0xC0 PUSH2 0x720 MLOAD ADD MLOAD DUP1 MLOAD SWAP1 PUSH1 0x1 PUSH1 0x1 PUSH1 0x40 SHL SUB DUP3 GT PUSH2 0x2457 JUMPI DUP2 SWAP1 PUSH2 0x1703 DUP3 PUSH2 0x16FA PUSH1 0x6 DUP8 ADD SLOAD PUSH2 0x336F JUMP JUMPDEST PUSH1 0x6 DUP8 ADD PUSH2 0x3547 JUMP JUMPDEST PUSH1 0x20 SWAP1 PUSH1 0x1F DUP4 GT PUSH1 0x1 EQ PUSH2 0x2F4A JUMPI PUSH1 0x0 SWAP3 PUSH2 0x2F3F JUMPI JUMPDEST POP POP DUP2 PUSH1 0x1 SHL SWAP2 PUSH1 0x0 NOT SWAP1 PUSH1 0x3 SHL SHR NOT AND OR PUSH1 0x6 DUP3 ADD SSTORE JUMPDEST PUSH1 0xE0 PUSH2 0x720 MLOAD ADD MLOAD DUP1 MLOAD SWAP1 PUSH1 0x1 PUSH1 0x1 PUSH1 0x40 SHL SUB DUP3 GT PUSH2 0x2457 JUMPI DUP2 SWAP1 PUSH2 0x1766 DUP3 PUSH2 0x175D PUSH1 0x7 DUP8 ADD SLOAD PUSH2 0x336F JUMP JUMPDEST PUSH1 0x7 DUP8 ADD PUSH2 0x3547 JUMP JUMPDEST PUSH1 0x20 SWAP1 PUSH1 0x1F DUP4 GT PUSH1 0x1 EQ PUSH2 0x2ECD JUMPI PUSH1 0x0 SWAP3 PUSH2 0x2EC2 JUMPI JUMPDEST POP POP DUP2 PUSH1 0x1 SHL SWAP2 PUSH1 0x0 NOT SWAP1 PUSH1 0x3 SHL SHR NOT AND OR PUSH1 0x7 DUP3 ADD SSTORE JUMPDEST PUSH2 0x100 PUSH2 0x720 MLOAD ADD MLOAD DUP1 MLOAD SWAP1 PUSH1 0x1 PUSH1 0x1 PUSH1 0x40 SHL SUB DUP3 GT PUSH2 0x2457 JUMPI DUP2 SWAP1 PUSH2 0x17CA DUP3 PUSH2 0x17C1 PUSH1 0x8 DUP8 ADD SLOAD PUSH2 0x336F JUMP JUMPDEST PUSH1 0x8 DUP8 ADD PUSH2 0x3547 JUMP JUMPDEST PUSH1 0x20 SWAP1 PUSH1 0x1F DUP4 GT PUSH1 0x1 EQ PUSH2 0x2E50 JUMPI PUSH1 0x0 SWAP3 PUSH2 0x2E45 JUMPI JUMPDEST POP POP DUP2 PUSH1 0x1 SHL SWAP2 PUSH1 0x0 NOT SWAP1 PUSH1 0x3 SHL SHR NOT AND OR PUSH1 0x8 DUP3 ADD SSTORE JUMPDEST PUSH2 0x120 PUSH2 0x720 MLOAD ADD MLOAD DUP1 MLOAD SWAP1 PUSH1 0x1 PUSH1 0x1 PUSH1 0x40 SHL SUB DUP3 GT PUSH2 0x2457 JUMPI DUP2 SWAP1 PUSH2 0x182E DUP3 PUSH2 0x1825 PUSH1 0x9 DUP8 ADD SLOAD PUSH2 0x336F JUMP JUMPDEST PUSH1 0x9 DUP8 ADD PUSH2 0x3547 JUMP JUMPDEST PUSH1 0x20 SWAP1 PUSH1 0x1F DUP4 GT PUSH1 0x1 EQ PUSH2 0x2DD3 JUMPI PUSH1 0x0 SWAP3 PUSH2 0x2DC8 JUMPI JUMPDEST POP POP DUP2 PUSH1 0x1 SHL SWAP2 PUSH1 0x0 NOT SWAP1 PUSH1 0x3 SHL SHR NOT AND OR PUSH1 0x9 DUP3 ADD SSTORE JUMPDEST PUSH2 0x140 PUSH2 0x720 MLOAD ADD MLOAD DUP1 MLOAD SWAP1 PUSH1 0x1 PUSH1 0x1 PUSH1 0x40 SHL SUB DUP3 GT PUSH2 0x2457 JUMPI DUP2 SWAP1 PUSH2 0x1892 DUP3 PUSH2 0x1889 PUSH1 0xA DUP8 ADD SLOAD PUSH2 0x336F JUMP JUMPDEST PUSH1 0xA DUP8 ADD PUSH2 0x3547 JUMP JUMPDEST PUSH1 0x20 SWAP1 PUSH1 0x1F DUP4 GT PUSH1 0x1 EQ PUSH2 0x2D56 JUMPI PUSH1 0x0 SWAP3 PUSH2 0x2D4B JUMPI JUMPDEST POP POP DUP2 PUSH1 0x1 SHL SWAP2 PUSH1 0x0 NOT SWAP1 PUSH1 0x3 SHL SHR NOT AND OR PUSH1 0xA DUP3 ADD SSTORE JUMPDEST PUSH2 0x160 PUSH2 0x720 MLOAD ADD MLOAD DUP1 MLOAD SWAP1 PUSH1 0x1 PUSH1 0x1 PUSH1 0x40 SHL SUB DUP3 GT PUSH2 0x2457 JUMPI DUP2 SWAP1 PUSH2 0x18F6 DUP3 PUSH2 0x18ED PUSH1 0xB DUP8 ADD SLOAD PUSH2 0x336F JUMP JUMPDEST PUSH1 0xB DUP8 ADD PUSH2 0x3547 JUMP JUMPDEST PUSH1 0x20 SWAP1 PUSH1 0x1F DUP4 GT PUSH1 0x1 EQ PUSH2 0x2CD9 JUMPI PUSH1 0x0 SWAP3 PUSH2 0x2CCE JUMPI JUMPDEST POP POP DUP2 PUSH1 0x1 SHL SWAP2 PUSH1 0x0 NOT SWAP1 PUSH1 0x3 SHL SHR NOT AND OR PUSH1 0xB DUP3 ADD SSTORE JUMPDEST PUSH2 0x180 PUSH2 0x720 MLOAD ADD MLOAD DUP1 MLOAD SWAP1 PUSH1 0x1 PUSH1 0x1 PUSH1 0x40 SHL SUB DUP3 GT PUSH2 0x2457 JUMPI DUP2 SWAP1 PUSH2 0x195A DUP3 PUSH2 0x1951 PUSH1 0xC DUP8 ADD SLOAD PUSH2 0x336F JUMP JUMPDEST PUSH1 0xC DUP8 ADD PUSH2 0x3547 JUMP JUMPDEST PUSH1 0x20 SWAP1 PUSH1 0x1F DUP4 GT PUSH1 0x1 EQ PUSH2 0x2C5C JUMPI PUSH1 0x0 SWAP3 PUSH2 0x2C51 JUMPI JUMPDEST POP POP DUP2 PUSH1 0x1 SHL SWAP2 PUSH1 0x0 NOT SWAP1 PUSH1 0x3 SHL SHR NOT AND OR PUSH1 0xC DUP3 ADD SSTORE JUMPDEST PUSH2 0x1A0 PUSH2 0x720 MLOAD ADD MLOAD DUP1 MLOAD SWAP1 PUSH1 0x1 PUSH1 0x1 PUSH1 0x40 SHL SUB DUP3 GT PUSH2 0x2457 JUMPI DUP2 SWAP1 PUSH2 0x19BE DUP3 PUSH2 0x19B5 PUSH1 0xD DUP8 ADD SLOAD PUSH2 0x336F JUMP JUMPDEST PUSH1 0xD DUP8 ADD PUSH2 0x3547 JUMP JUMPDEST PUSH1 0x20 SWAP1 PUSH1 0x1F DUP4 GT PUSH1 0x1 EQ PUSH2 0x2BDF JUMPI PUSH1 0x0 SWAP3 PUSH2 0x2BD4 JUMPI JUMPDEST POP POP DUP2 PUSH1 0x1 SHL SWAP2 PUSH1 0x0 NOT SWAP1 PUSH1 0x3 SHL SHR NOT AND OR PUSH1 0xD DUP3 ADD SSTORE JUMPDEST PUSH2 0x1C0 PUSH2 0x720 MLOAD ADD MLOAD DUP1 MLOAD SWAP1 PUSH1 0x1 PUSH1 0x1 PUSH1 0x40 SHL SUB DUP3 GT PUSH2 0x2457 JUMPI DUP2 SWAP1 PUSH2 0x1A22 DUP3 PUSH2 0x1A19 PUSH1 0xE DUP8 ADD SLOAD PUSH2 0x336F JUMP JUMPDEST PUSH1 0xE DUP8 ADD PUSH2 0x3547 JUMP JUMPDEST PUSH1 0x20 SWAP1 PUSH1 0x1F DUP4 GT PUSH1 0x1 EQ PUSH2 0x2B62 JUMPI PUSH1 0x0 SWAP3 PUSH2 0x2B57 JUMPI JUMPDEST POP POP DUP2 PUSH1 0x1 SHL SWAP2 PUSH1 0x0 NOT SWAP1 PUSH1 0x3 SHL SHR NOT AND OR PUSH1 0xE DUP3 ADD SSTORE JUMPDEST PUSH2 0x1E0 PUSH2 0x720 MLOAD ADD MLOAD DUP1 MLOAD SWAP1 PUSH1 0x1 PUSH1 0x1 PUSH1 0x40 SHL SUB DUP3 GT PUSH2 0x2457 JUMPI DUP2 SWAP1 PUSH2 0x1A86 DUP3 PUSH2 0x1A7D PUSH1 0xF DUP8 ADD SLOAD PUSH2 0x336F JUMP JUMPDEST PUSH1 0xF DUP8 ADD PUSH2 0x3547 JUMP JUMPDEST PUSH1 0x20 SWAP1 PUSH1 0x1F DUP4 GT PUSH1 0x1 EQ PUSH2 0x2AE5 JUMPI PUSH1 0x0 SWAP3 PUSH2 0x2ADA JUMPI JUMPDEST POP POP DUP2 PUSH1 0x1 SHL SWAP2 PUSH1 0x0 NOT SWAP1 PUSH1 0x3 SHL SHR NOT AND OR PUSH1 0xF DUP3 ADD SSTORE JUMPDEST PUSH2 0x200 PUSH2 0x720 MLOAD ADD MLOAD DUP1 MLOAD SWAP1 PUSH1 0x1 PUSH1 0x1 PUSH1 0x40 SHL SUB DUP3 GT PUSH2 0x2457 JUMPI DUP2 SWAP1 PUSH2 0x1AEA DUP3 PUSH2 0x1AE1 PUSH1 0x10 DUP8 ADD SLOAD PUSH2 0x336F JUMP JUMPDEST PUSH1 0x10 DUP8 ADD PUSH2 0x3547 JUMP JUMPDEST PUSH1 0x20 SWAP1 PUSH1 0x1F DUP4 GT PUSH1 0x1 EQ PUSH2 0x2A68 JUMPI PUSH1 0x0 SWAP3 PUSH2 0x2A5D JUMPI JUMPDEST POP POP DUP2 PUSH1 0x1 SHL SWAP2 PUSH1 0x0 NOT SWAP1 PUSH1 0x3 SHL SHR NOT AND OR PUSH1 0x10 DUP3 ADD SSTORE JUMPDEST PUSH2 0x220 PUSH2 0x720 MLOAD ADD MLOAD DUP1 MLOAD SWAP1 PUSH1 0x1 PUSH1 0x1 PUSH1 0x40 SHL SUB DUP3 GT PUSH2 0x2457 JUMPI DUP2 SWAP1 PUSH2 0x1B4E DUP3 PUSH2 0x1B45 PUSH1 0x11 DUP8 ADD SLOAD PUSH2 0x336F JUMP JUMPDEST PUSH1 0x11 DUP8 ADD PUSH2 0x3547 JUMP JUMPDEST PUSH1 0x20 SWAP1 PUSH1 0x1F DUP4 GT PUSH1 0x1 EQ PUSH2 0x29EB JUMPI PUSH1 0x0 SWAP3 PUSH2 0x29E0 JUMPI JUMPDEST POP POP DUP2 PUSH1 0x1 SHL SWAP2 PUSH1 0x0 NOT SWAP1 PUSH1 0x3 SHL SHR NOT AND OR PUSH1 0x11 DUP3 ADD SSTORE JUMPDEST PUSH2 0x240 PUSH2 0x720 MLOAD ADD MLOAD DUP1 MLOAD SWAP1 PUSH1 0x1 PUSH1 0x1 PUSH1 0x40 SHL SUB DUP3 GT PUSH2 0x2457 JUMPI DUP2 SWAP1 PUSH2 0x1BB2 DUP3 PUSH2 0x1BA9 PUSH1 0x12 DUP8 ADD SLOAD PUSH2 0x336F JUMP JUMPDEST PUSH1 0x12 DUP8 ADD PUSH2 0x3547 JUMP JUMPDEST PUSH1 0x20 SWAP1 PUSH1 0x1F DUP4 GT PUSH1 0x1 EQ PUSH2 0x296E JUMPI PUSH1 0x0 SWAP3 PUSH2 0x2963 JUMPI JUMPDEST POP POP DUP2 PUSH1 0x1 SHL SWAP2 PUSH1 0x0 NOT SWAP1 PUSH1 0x3 SHL SHR NOT AND OR PUSH1 0x12 DUP3 ADD SSTORE JUMPDEST PUSH2 0x260 PUSH2 0x720 MLOAD ADD MLOAD DUP1 MLOAD SWAP1 PUSH1 0x1 PUSH1 0x1 PUSH1 0x40 SHL SUB DUP3 GT PUSH2 0x2457 JUMPI DUP2 SWAP1 PUSH2 0x1C16 DUP3 PUSH2 0x1C0D PUSH1 0x13 DUP8 ADD SLOAD PUSH2 0x336F JUMP JUMPDEST PUSH1 0x13 DUP8 ADD PUSH2 0x3547 JUMP JUMPDEST PUSH1 0x20 SWAP1 PUSH1 0x1F DUP4 GT PUSH1 0x1 EQ PUSH2 0x28F1 JUMPI PUSH1 0x0 SWAP3 PUSH2 0x28E6 JUMPI JUMPDEST POP POP DUP2 PUSH1 0x1 SHL SWAP2 PUSH1 0x0 NOT SWAP1 PUSH1 0x3 SHL SHR NOT AND OR PUSH1 0x13 DUP3 ADD SSTORE JUMPDEST PUSH2 0x280 PUSH2 0x720 MLOAD ADD MLOAD DUP1 MLOAD SWAP1 PUSH1 0x1 PUSH1 0x1 PUSH1 0x40 SHL SUB DUP3 GT PUSH2 0x2457 JUMPI DUP2 SWAP1 PUSH2 0x1C7A DUP3 PUSH2 0x1C71 PUSH1 0x14 DUP8 ADD SLOAD PUSH2 0x336F JUMP JUMPDEST PUSH1 0x14 DUP8 ADD PUSH2 0x3547 JUMP JUMPDEST PUSH1 0x20 SWAP1 PUSH1 0x1F DUP4 GT PUSH1 0x1 EQ PUSH2 0x2874 JUMPI PUSH1 0x0 SWAP3 PUSH2 0x2869 JUMPI JUMPDEST POP POP DUP2 PUSH1 0x1 SHL SWAP2 PUSH1 0x0 NOT SWAP1 PUSH1 0x3 SHL SHR NOT AND OR PUSH1 0x14 DUP3 ADD SSTORE JUMPDEST PUSH2 0x2A0 PUSH2 0x720 MLOAD ADD MLOAD DUP1 MLOAD SWAP1 PUSH1 0x1 PUSH1 0x1 PUSH1 0x40 SHL SUB DUP3 GT PUSH2 0x2457 JUMPI DUP2 SWAP1 PUSH2 0x1CDE DUP3 PUSH2 0x1CD5 PUSH1 0x15 DUP8 ADD SLOAD PUSH2 0x336F JUMP JUMPDEST PUSH1 0x15 DUP8 ADD PUSH2 0x3547 JUMP JUMPDEST PUSH1 0x20 SWAP1 PUSH1 0x1F DUP4 GT PUSH1 0x1 EQ PUSH2 0x27F7 JUMPI PUSH1 0x0 SWAP3 PUSH2 0x27EC JUMPI JUMPDEST POP POP DUP2 PUSH1 0x1 SHL SWAP2 PUSH1 0x0 NOT SWAP1 PUSH1 0x3 SHL SHR NOT AND OR PUSH1 0x15 DUP3 ADD SSTORE JUMPDEST PUSH2 0x2C0 PUSH2 0x720 MLOAD ADD MLOAD DUP1 MLOAD SWAP1 PUSH1 0x1 PUSH1 0x1 PUSH1 0x40 SHL SUB DUP3 GT PUSH2 0x2457 JUMPI DUP2 SWAP1 PUSH2 0x1D42 DUP3 PUSH2 0x1D39 PUSH1 0x16 DUP8 ADD SLOAD PUSH2 0x336F JUMP JUMPDEST PUSH1 0x16 DUP8 ADD PUSH2 0x3547 JUMP JUMPDEST PUSH1 0x20 SWAP1 PUSH1 0x1F DUP4 GT PUSH1 0x1 EQ PUSH2 0x277A JUMPI PUSH1 0x0 SWAP3 PUSH2 0x276F JUMPI JUMPDEST POP POP DUP2 PUSH1 0x1 SHL SWAP2 PUSH1 0x0 NOT SWAP1 PUSH1 0x3 SHL SHR NOT AND OR PUSH1 0x16 DUP3 ADD SSTORE JUMPDEST PUSH2 0x2E0 PUSH2 0x720 MLOAD ADD MLOAD DUP1 MLOAD SWAP1 PUSH1 0x1 PUSH1 0x1 PUSH1 0x40 SHL SUB DUP3 GT PUSH2 0x2457 JUMPI DUP2 SWAP1 PUSH2 0x1DA6 DUP3 PUSH2 0x1D9D PUSH1 0x17 DUP8 ADD SLOAD PUSH2 0x336F JUMP JUMPDEST PUSH1 0x17 DUP8 ADD PUSH2 0x3547 JUMP JUMPDEST PUSH1 0x20 SWAP1 PUSH1 0x1F DUP4 GT PUSH1 0x1 EQ PUSH2 0x26FD JUMPI PUSH1 0x0 SWAP3 PUSH2 0x26F2 JUMPI JUMPDEST POP POP DUP2 PUSH1 0x1 SHL SWAP2 PUSH1 0x0 NOT SWAP1 PUSH1 0x3 SHL SHR NOT AND OR PUSH1 0x17 DUP3 ADD SSTORE JUMPDEST PUSH2 0x300 PUSH2 0x720 MLOAD ADD MLOAD DUP1 MLOAD SWAP1 PUSH1 0x1 PUSH1 0x1 PUSH1 0x40 SHL SUB DUP3 GT PUSH2 0x2457 JUMPI DUP2 SWAP1 PUSH2 0x1E0A DUP3 PUSH2 0x1E01 PUSH1 0x18 DUP8 ADD SLOAD PUSH2 0x336F JUMP JUMPDEST PUSH1 0x18 DUP8 ADD PUSH2 0x3547 JUMP JUMPDEST PUSH1 0x20 SWAP1 PUSH1 0x1F DUP4 GT PUSH1 0x1 EQ PUSH2 0x2680 JUMPI PUSH1 0x0 SWAP3 PUSH2 0x2675 JUMPI JUMPDEST POP POP DUP2 PUSH1 0x1 SHL SWAP2 PUSH1 0x0 NOT SWAP1 PUSH1 0x3 SHL SHR NOT AND OR PUSH1 0x18 DUP3 ADD SSTORE JUMPDEST PUSH2 0x320 PUSH2 0x720 MLOAD ADD MLOAD DUP1 MLOAD SWAP1 PUSH1 0x1 PUSH1 0x1 PUSH1 0x40 SHL SUB DUP3 GT PUSH2 0x2457 JUMPI DUP2 SWAP1 PUSH2 0x1E6E DUP3 PUSH2 0x1E65 PUSH1 0x19 DUP8 ADD SLOAD PUSH2 0x336F JUMP JUMPDEST PUSH1 0x19 DUP8 ADD PUSH2 0x3547 JUMP JUMPDEST PUSH1 0x20 SWAP1 PUSH1 0x1F DUP4 GT PUSH1 0x1 EQ PUSH2 0x2603 JUMPI PUSH1 0x0 SWAP3 PUSH2 0x25F8 JUMPI JUMPDEST POP POP DUP2 PUSH1 0x1 SHL SWAP2 PUSH1 0x0 NOT SWAP1 PUSH1 0x3 SHL SHR NOT AND OR PUSH1 0x19 DUP3 ADD SSTORE JUMPDEST PUSH2 0x340 PUSH2 0x720 MLOAD ADD MLOAD DUP1 MLOAD SWAP1 PUSH1 0x1 PUSH1 0x1 PUSH1 0x40 SHL SUB DUP3 GT PUSH2 0x2457 JUMPI DUP2 SWAP1 PUSH2 0x1ED2 DUP3 PUSH2 0x1EC9 PUSH1 0x1A DUP8 ADD SLOAD PUSH2 0x336F JUMP JUMPDEST PUSH1 0x1A DUP8 ADD PUSH2 0x3547 JUMP JUMPDEST PUSH1 0x20 SWAP1 PUSH1 0x1F DUP4 GT PUSH1 0x1 EQ PUSH2 0x2586 JUMPI PUSH1 0x0 SWAP3 PUSH2 0x257B JUMPI JUMPDEST POP POP DUP2 PUSH1 0x1 SHL SWAP2 PUSH1 0x0 NOT SWAP1 PUSH1 0x3 SHL SHR NOT AND OR PUSH1 0x1A DUP3 ADD SSTORE JUMPDEST PUSH2 0x360 PUSH2 0x720 MLOAD ADD MLOAD DUP1 MLOAD SWAP1 PUSH1 0x1 PUSH1 0x1 PUSH1 0x40 SHL SUB DUP3 GT PUSH2 0x2457 JUMPI DUP2 SWAP1 PUSH2 0x1F36 DUP3 PUSH2 0x1F2D PUSH1 0x1B DUP8 ADD SLOAD PUSH2 0x336F JUMP JUMPDEST PUSH1 0x1B DUP8 ADD PUSH2 0x3547 JUMP JUMPDEST PUSH1 0x20 SWAP1 PUSH1 0x1F DUP4 GT PUSH1 0x1 EQ PUSH2 0x2509 JUMPI PUSH1 0x0 SWAP3 PUSH2 0x24FE JUMPI JUMPDEST POP POP DUP2 PUSH1 0x1 SHL SWAP2 PUSH1 0x0 NOT SWAP1 PUSH1 0x3 SHL SHR NOT AND OR PUSH1 0x1B DUP3 ADD SSTORE JUMPDEST PUSH2 0x380 PUSH2 0x720 MLOAD ADD MLOAD DUP1 MLOAD SWAP1 PUSH1 0x1 PUSH1 0x1 PUSH1 0x40 SHL SUB DUP3 GT PUSH2 0x2457 JUMPI PUSH2 0x1F98 DUP3 PUSH2 0x1F8F PUSH1 0x1C DUP7 ADD SLOAD PUSH2 0x336F JUMP JUMPDEST PUSH1 0x1C DUP7 ADD PUSH2 0x3547 JUMP JUMPDEST PUSH1 0x20 SWAP1 PUSH1 0x1F DUP4 GT PUSH1 0x1 EQ PUSH2 0x248E JUMPI PUSH1 0x1C SWAP3 SWAP2 PUSH1 0x0 SWAP2 DUP4 PUSH2 0x2483 JUMPI JUMPDEST POP POP DUP2 PUSH1 0x1 SHL SWAP2 PUSH1 0x0 NOT SWAP1 PUSH1 0x3 SHL SHR NOT AND OR SWAP2 ADD SSTORE JUMPDEST PUSH1 0x2 SLOAD PUSH9 0x10000000000000000 DUP2 LT ISZERO PUSH2 0x2457 JUMPI DUP1 PUSH1 0x1 PUSH2 0x1FED SWAP3 ADD PUSH1 0x2 SSTORE PUSH2 0x3322 JUMP JUMPDEST PUSH2 0x246D JUMPI PUSH2 0x740 MLOAD PUSH1 0x1 PUSH1 0x1 PUSH1 0x40 SHL SUB DUP2 GT PUSH2 0x2457 JUMPI PUSH2 0x2017 SWAP1 PUSH2 0x2011 DUP4 SLOAD PUSH2 0x336F JUMP JUMPDEST DUP4 PUSH2 0x3547 JUMP JUMPDEST PUSH1 0x0 SWAP1 PUSH2 0x740 MLOAD PUSH1 0x1F DUP2 GT PUSH1 0x1 EQ PUSH2 0x23EA JUMPI POP SWAP1 PUSH1 0x0 PUSH2 0x740 MLOAD SWAP2 DUP3 PUSH2 0x23DC JUMPI JUMPDEST POP DUP2 PUSH1 0x1 SHL SWAP2 PUSH1 0x0 NOT SWAP1 PUSH1 0x3 SHL SHR NOT AND OR SWAP1 SSTORE JUMPDEST PUSH2 0x3C0 PUSH1 0x40 MLOAD DUP1 PUSH2 0x8E0 MSTORE MSTORE PUSH32 0x8EF2AE16C7DA777722241512634B307F81C5F7B678D04E7FF83F483BEDEAD10D PUSH2 0x23B3 PUSH2 0x2399 PUSH2 0x237F PUSH2 0x2366 PUSH2 0x234C PUSH2 0x2332 PUSH2 0x2318 PUSH2 0x22FE PUSH2 0x22E4 PUSH2 0x22CA PUSH2 0x22B0 PUSH2 0x2297 PUSH2 0x227D PUSH2 0x2263 PUSH2 0x2249 PUSH2 0x222F PUSH2 0x2215 PUSH2 0x21FB PUSH2 0x21E1 PUSH2 0x21C7 PUSH2 0x21AE PUSH2 0x2194 PUSH2 0x217B PUSH2 0x2162 PUSH2 0x2149 PUSH2 0x2130 PUSH2 0x2117 PUSH2 0x20FE PUSH2 0x20E5 PUSH2 0x3C0 PUSH2 0x8E0 MLOAD ADD PUSH2 0x740 MLOAD PUSH2 0x5A0 MLOAD PUSH2 0x359B JUMP JUMPDEST PUSH2 0x8E0 MLOAD PUSH1 0x20 DUP2 DUP4 SUB SWAP2 ADD MSTORE PUSH2 0x4A0 MLOAD PUSH2 0x160 MLOAD PUSH2 0x359B JUMP JUMPDEST PUSH2 0x8E0 MLOAD PUSH1 0x40 DUP2 DUP4 SUB SWAP2 ADD MSTORE PUSH2 0x800 MLOAD PUSH2 0x820 MLOAD PUSH2 0x359B JUMP JUMPDEST PUSH2 0x8E0 MLOAD PUSH1 0x60 DUP2 DUP4 SUB SWAP2 ADD MSTORE PUSH2 0x6E0 MLOAD PUSH2 0xA20 MLOAD PUSH2 0x359B JUMP JUMPDEST PUSH2 0x8E0 MLOAD PUSH1 0x80 DUP2 DUP4 SUB SWAP2 ADD MSTORE PUSH2 0x760 MLOAD PUSH2 0x500 MLOAD PUSH2 0x359B JUMP JUMPDEST PUSH2 0x8E0 MLOAD PUSH1 0xA0 DUP2 DUP4 SUB SWAP2 ADD MSTORE PUSH2 0x1A0 MLOAD PUSH2 0x680 MLOAD PUSH2 0x359B JUMP JUMPDEST PUSH2 0x8E0 MLOAD PUSH1 0xC0 DUP2 DUP4 SUB SWAP2 ADD MSTORE PUSH2 0x6A0 MLOAD PUSH2 0x2A0 MLOAD PUSH2 0x359B JUMP JUMPDEST PUSH2 0x8E0 MLOAD PUSH1 0xE0 DUP2 DUP4 SUB SWAP2 ADD MSTORE PUSH2 0x860 MLOAD PUSH2 0x580 MLOAD PUSH2 0x359B JUMP JUMPDEST PUSH2 0x8E0 MLOAD PUSH2 0x100 DUP2 DUP4 SUB SWAP2 ADD MSTORE PUSH2 0x440 MLOAD PUSH2 0x4C0 MLOAD PUSH2 0x359B JUMP JUMPDEST PUSH2 0x8E0 MLOAD PUSH2 0x120 DUP2 DUP4 SUB SWAP2 ADD MSTORE PUSH1 0x80 MLOAD PUSH2 0x9C0 MLOAD PUSH2 0x359B JUMP JUMPDEST PUSH2 0x8E0 MLOAD PUSH2 0x140 DUP2 DUP4 SUB SWAP2 ADD MSTORE PUSH2 0x980 MLOAD PUSH2 0x8C0 MLOAD PUSH2 0x359B JUMP JUMPDEST PUSH2 0x8E0 MLOAD PUSH2 0x160 DUP2 DUP4 SUB SWAP2 ADD MSTORE PUSH2 0x8A0 MLOAD PUSH2 0x140 MLOAD PUSH2 0x359B JUMP JUMPDEST PUSH2 0x8E0 MLOAD PUSH2 0x180 DUP2 DUP4 SUB SWAP2 ADD MSTORE PUSH2 0x3A0 MLOAD PUSH2 0x700 MLOAD PUSH2 0x359B JUMP JUMPDEST PUSH2 0x8E0 MLOAD PUSH2 0x1A0 DUP2 DUP4 SUB SWAP2 ADD MSTORE PUSH2 0x840 MLOAD PUSH2 0x620 MLOAD PUSH2 0x359B JUMP JUMPDEST PUSH2 0x8E0 MLOAD PUSH2 0x1C0 DUP2 DUP4 SUB SWAP2 ADD MSTORE PUSH2 0x180 MLOAD PUSH2 0x200 MLOAD PUSH2 0x359B JUMP JUMPDEST PUSH2 0x8E0 MLOAD PUSH2 0x1E0 DUP2 DUP4 SUB SWAP2 ADD MSTORE PUSH2 0x880 MLOAD PUSH2 0x9A0 MLOAD PUSH2 0x359B JUMP JUMPDEST PUSH2 0x8E0 MLOAD PUSH2 0x200 DUP2 DUP4 SUB SWAP2 ADD MSTORE PUSH2 0x340 MLOAD PUSH2 0x320 MLOAD PUSH2 0x359B JUMP JUMPDEST PUSH2 0x8E0 MLOAD PUSH2 0x220 DUP2 DUP4 SUB SWAP2 ADD MSTORE PUSH2 0x540 MLOAD PUSH2 0x5C0 MLOAD PUSH2 0x359B JUMP JUMPDEST PUSH2 0x8E0 MLOAD PUSH2 0x240 DUP2 DUP4 SUB SWAP2 ADD MSTORE PUSH1 0xC0 MLOAD PUSH2 0x420 MLOAD PUSH2 0x359B JUMP JUMPDEST PUSH2 0x8E0 MLOAD PUSH2 0x260 DUP2 DUP4 SUB SWAP2 ADD MSTORE PUSH2 0x460 MLOAD PUSH2 0x9E0 MLOAD PUSH2 0x359B JUMP JUMPDEST PUSH2 0x8E0 MLOAD PUSH2 0x280 DUP2 DUP4 SUB SWAP2 ADD MSTORE PUSH2 0x2C0 MLOAD PUSH2 0xA60 MLOAD PUSH2 0x359B JUMP JUMPDEST PUSH2 0x8E0 MLOAD PUSH2 0x2A0 DUP2 DUP4 SUB SWAP2 ADD MSTORE PUSH2 0xA00 MLOAD PUSH2 0x4E0 MLOAD PUSH2 0x359B JUMP JUMPDEST PUSH2 0x8E0 MLOAD PUSH2 0x2C0 DUP2 DUP4 SUB SWAP2 ADD MSTORE PUSH2 0x240 MLOAD PUSH2 0x660 MLOAD PUSH2 0x359B JUMP JUMPDEST PUSH2 0x8E0 MLOAD PUSH2 0x2E0 DUP2 DUP4 SUB SWAP2 ADD MSTORE PUSH2 0x780 MLOAD PUSH2 0x960 MLOAD PUSH2 0x359B JUMP JUMPDEST PUSH2 0x8E0 MLOAD PUSH2 0x300 DUP2 DUP4 SUB SWAP2 ADD MSTORE PUSH2 0xA40 MLOAD PUSH2 0x220 MLOAD PUSH2 0x359B JUMP JUMPDEST PUSH2 0x8E0 MLOAD PUSH2 0x320 DUP2 DUP4 SUB SWAP2 ADD MSTORE PUSH2 0x7A0 MLOAD PUSH2 0x2E0 MLOAD PUSH2 0x359B JUMP JUMPDEST PUSH2 0x8E0 MLOAD PUSH2 0x340 DUP2 DUP4 SUB SWAP2 ADD MSTORE PUSH1 0xE0 MLOAD PUSH2 0x900 MLOAD PUSH2 0x359B JUMP JUMPDEST PUSH2 0x8E0 MLOAD PUSH2 0x360 DUP2 DUP4 SUB SWAP2 ADD MSTORE PUSH2 0x380 MLOAD PUSH2 0x280 MLOAD PUSH2 0x359B JUMP JUMPDEST PUSH2 0x8E0 MLOAD PUSH2 0x380 DUP2 DUP4 SUB SWAP2 ADD MSTORE PUSH2 0x3E0 MLOAD PUSH2 0x300 MLOAD PUSH2 0x359B JUMP JUMPDEST PUSH2 0x8E0 MLOAD PUSH2 0x3A0 DUP2 DUP4 SUB SWAP2 ADD MSTORE PUSH2 0x23D4 PUSH2 0x8E0 MLOAD SWAP2 PUSH1 0xA0 MLOAD PUSH2 0x100 MLOAD PUSH2 0x359B JUMP JUMPDEST SUB PUSH2 0x8E0 MLOAD LOG1 STOP JUMPDEST SWAP1 POP PUSH2 0x5A0 MLOAD ADD CALLDATALOAD DUP4 PUSH2 0x2038 JUMP JUMPDEST DUP2 PUSH1 0x0 MSTORE PUSH1 0x20 PUSH1 0x0 KECCAK256 PUSH1 0x0 SWAP4 PUSH2 0x5A0 MLOAD SWAP1 JUMPDEST PUSH1 0x1F NOT DUP5 AND DUP7 LT PUSH2 0x243F JUMPI PUSH1 0x1 SWAP5 SWAP6 POP DUP4 PUSH1 0x1F NOT DUP2 AND LT PUSH2 0x2425 JUMPI JUMPDEST POP POP POP DUP2 SHL ADD SWAP1 SSTORE PUSH2 0x204C JUMP JUMPDEST ADD CALLDATALOAD PUSH1 0x0 NOT PUSH1 0x3 DUP5 SWAP1 SHL PUSH1 0xF8 AND SHR NOT AND SWAP1 SSTORE DUP4 DUP1 DUP1 PUSH2 0x2418 JUMP JUMPDEST SWAP2 PUSH1 0x20 PUSH1 0x1 DUP2 SWAP3 DUP6 DUP6 ADD CALLDATALOAD DUP2 SSTORE ADD SWAP4 ADD SWAP6 ADD SWAP5 PUSH2 0x23FC JUMP JUMPDEST PUSH4 0x4E487B71 PUSH1 0xE0 SHL PUSH1 0x0 MSTORE PUSH1 0x41 PUSH1 0x4 MSTORE PUSH1 0x24 PUSH1 0x0 REVERT JUMPDEST PUSH4 0x4E487B71 PUSH1 0xE0 SHL PUSH1 0x0 MSTORE PUSH1 0x0 PUSH1 0x4 MSTORE PUSH1 0x24 PUSH1 0x0 REVERT JUMPDEST ADD MLOAD SWAP1 POP DUP5 DUP1 PUSH2 0x1FB3 JUMP JUMPDEST SWAP1 PUSH1 0x1C DUP5 ADD PUSH1 0x0 MSTORE PUSH1 0x20 PUSH1 0x0 KECCAK256 SWAP2 PUSH1 0x0 JUMPDEST PUSH1 0x1F NOT DUP6 AND DUP2 LT PUSH2 0x24E6 JUMPI POP SWAP2 DUP4 SWAP2 PUSH1 0x1 SWAP4 PUSH1 0x1C SWAP6 PUSH1 0x1F NOT DUP2 AND LT PUSH2 0x24CD JUMPI JUMPDEST POP POP POP DUP2 SHL ADD SWAP2 ADD SSTORE PUSH2 0x1FC9 JUMP JUMPDEST ADD MLOAD PUSH1 0x0 NOT PUSH1 0xF8 DUP5 PUSH1 0x3 SHL AND SHR NOT AND SWAP1 SSTORE DUP5 DUP1 DUP1 PUSH2 0x24BF JUMP JUMPDEST SWAP2 SWAP3 PUSH1 0x20 PUSH1 0x1 DUP2 SWAP3 DUP7 DUP6 ADD MLOAD DUP2 SSTORE ADD SWAP5 ADD SWAP3 ADD PUSH2 0x249F JUMP JUMPDEST ADD MLOAD SWAP1 POP DUP4 DUP1 PUSH2 0x1F4C JUMP JUMPDEST SWAP3 POP PUSH1 0x1B DUP5 ADD PUSH1 0x0 MSTORE PUSH1 0x20 PUSH1 0x0 KECCAK256 SWAP1 PUSH1 0x0 SWAP4 JUMPDEST PUSH1 0x1F NOT DUP5 AND DUP6 LT PUSH2 0x2560 JUMPI PUSH1 0x1 SWAP5 POP DUP4 PUSH1 0x1F NOT DUP2 AND LT PUSH2 0x2547 JUMPI JUMPDEST POP POP POP DUP2 SHL ADD PUSH1 0x1B DUP3 ADD SSTORE PUSH2 0x1F64 JUMP JUMPDEST ADD MLOAD PUSH1 0x0 NOT PUSH1 0xF8 DUP5 PUSH1 0x3 SHL AND SHR NOT AND SWAP1 SSTORE DUP4 DUP1 DUP1 PUSH2 0x2537 JUMP JUMPDEST DUP2 DUP2 ADD MLOAD DUP4 SSTORE PUSH1 0x20 SWAP5 DUP6 ADD SWAP5 PUSH1 0x1 SWAP1 SWAP4 ADD SWAP3 SWAP1 SWAP2 ADD SWAP1 PUSH2 0x251C JUMP JUMPDEST ADD MLOAD SWAP1 POP DUP4 DUP1 PUSH2 0x1EE8 JUMP JUMPDEST SWAP3 POP PUSH1 0x1A DUP5 ADD PUSH1 0x0 MSTORE PUSH1 0x20 PUSH1 0x0 KECCAK256 SWAP1 PUSH1 0x0 SWAP4 JUMPDEST PUSH1 0x1F NOT DUP5 AND DUP6 LT PUSH2 0x25DD JUMPI PUSH1 0x1 SWAP5 POP DUP4 PUSH1 0x1F NOT DUP2 AND LT PUSH2 0x25C4 JUMPI JUMPDEST POP POP POP DUP2 SHL ADD PUSH1 0x1A DUP3 ADD SSTORE PUSH2 0x1F00 JUMP JUMPDEST ADD MLOAD PUSH1 0x0 NOT PUSH1 0xF8 DUP5 PUSH1 0x3 SHL AND SHR NOT AND SWAP1 SSTORE DUP4 DUP1 DUP1 PUSH2 0x25B4 JUMP JUMPDEST DUP2 DUP2 ADD MLOAD DUP4 SSTORE PUSH1 0x20 SWAP5 DUP6 ADD SWAP5 PUSH1 0x1 SWAP1 SWAP4 ADD SWAP3 SWAP1 SWAP2 ADD SWAP1 PUSH2 0x2599 JUMP JUMPDEST ADD MLOAD SWAP1 POP DUP4 DUP1 PUSH2 0x1E84 JUMP JUMPDEST SWAP3 POP PUSH1 0x19 DUP5 ADD PUSH1 0x0 MSTORE PUSH1 0x20 PUSH1 0x0 KECCAK256 SWAP1 PUSH1 0x0 SWAP4 JUMPDEST PUSH1 0x1F NOT DUP5 AND DUP6 LT PUSH2 0x265A JUMPI PUSH1 0x1 SWAP5 POP DUP4 PUSH1 0x1F NOT DUP2 AND LT PUSH2 0x2641 JUMPI JUMPDEST POP POP POP DUP2 SHL ADD PUSH1 0x19 DUP3 ADD SSTORE PUSH2 0x1E9C JUMP JUMPDEST ADD MLOAD PUSH1 0x0 NOT PUSH1 0xF8 DUP5 PUSH1 0x3 SHL AND SHR NOT AND SWAP1 SSTORE DUP4 DUP1 DUP1 PUSH2 0x2631 JUMP JUMPDEST DUP2 DUP2 ADD MLOAD DUP4 SSTORE PUSH1 0x20 SWAP5 DUP6 ADD SWAP5 PUSH1 0x1 SWAP1 SWAP4 ADD SWAP3 SWAP1 SWAP2 ADD SWAP1 PUSH2 0x2616 JUMP JUMPDEST ADD MLOAD SWAP1 POP DUP4 DUP1 PUSH2 0x1E20 JUMP JUMPDEST SWAP3 POP PUSH1 0x18 DUP5 ADD PUSH1 0x0 MSTORE PUSH1 0x20 PUSH1 0x0 KECCAK256 SWAP1 PUSH1 0x0 SWAP4 JUMPDEST PUSH1 0x1F NOT DUP5 AND DUP6 LT PUSH2 0x26D7 JUMPI PUSH1 0x1 SWAP5 POP DUP4 PUSH1 0x1F NOT DUP2 AND LT PUSH2 0x26BE JUMPI JUMPDEST POP POP POP DUP2 SHL ADD PUSH1 0x18 DUP3 ADD SSTORE PUSH2 0x1E38 JUMP JUMPDEST ADD MLOAD PUSH1 0x0 NOT PUSH1 0xF8 DUP5 PUSH1 0x3 SHL AND SHR NOT AND SWAP1 SSTORE DUP4 DUP1 DUP1 PUSH2 0x26AE JUMP JUMPDEST DUP2 DUP2 ADD MLOAD DUP4 SSTORE PUSH1 0x20 SWAP5 DUP6 ADD SWAP5 PUSH1 0x1 SWAP1 SWAP4 ADD SWAP3 SWAP1 SWAP2 ADD SWAP1 PUSH2 0x2693 JUMP JUMPDEST ADD MLOAD SWAP1 POP DUP4 DUP1 PUSH2 0x1DBC JUMP JUMPDEST SWAP3 POP PUSH1 0x17 DUP5 ADD PUSH1 0x0 MSTORE PUSH1 0x20 PUSH1 0x0 KECCAK256 SWAP1 PUSH1 0x0 SWAP4 JUMPDEST PUSH1 0x1F NOT DUP5 AND DUP6 LT PUSH2 0x2754 JUMPI PUSH1 0x1 SWAP5 POP DUP4 PUSH1 0x1F NOT DUP2 AND LT PUSH2 0x273B JUMPI JUMPDEST POP POP POP DUP2 SHL ADD PUSH1 0x17 DUP3 ADD SSTORE PUSH2 0x1DD4 JUMP JUMPDEST ADD MLOAD PUSH1 0x0 NOT PUSH1 0xF8 DUP5 PUSH1 0x3 SHL AND SHR NOT AND SWAP1 SSTORE DUP4 DUP1 DUP1 PUSH2 0x272B JUMP JUMPDEST DUP2 DUP2 ADD MLOAD DUP4 SSTORE PUSH1 0x20 SWAP5 DUP6 ADD SWAP5 PUSH1 0x1 SWAP1 SWAP4 ADD SWAP3 SWAP1 SWAP2 ADD SWAP1 PUSH2 0x2710 JUMP JUMPDEST ADD MLOAD SWAP1 POP DUP4 DUP1 PUSH2 0x1D58 JUMP JUMPDEST SWAP3 POP PUSH1 0x16 DUP5 ADD PUSH1 0x0 MSTORE PUSH1 0x20 PUSH1 0x0 KECCAK256 SWAP1 PUSH1 0x0 SWAP4 JUMPDEST PUSH1 0x1F NOT DUP5 AND DUP6 LT PUSH2 0x27D1 JUMPI PUSH1 0x1 SWAP5 POP DUP4 PUSH1 0x1F NOT DUP2 AND LT PUSH2 0x27B8 JUMPI JUMPDEST POP POP POP DUP2 SHL ADD PUSH1 0x16 DUP3 ADD SSTORE PUSH2 0x1D70 JUMP JUMPDEST ADD MLOAD PUSH1 0x0 NOT PUSH1 0xF8 DUP5 PUSH1 0x3 SHL AND SHR NOT AND SWAP1 SSTORE DUP4 DUP1 DUP1 PUSH2 0x27A8 JUMP JUMPDEST DUP2 DUP2 ADD MLOAD DUP4 SSTORE PUSH1 0x20 SWAP5 DUP6 ADD SWAP5 PUSH1 0x1 SWAP1 SWAP4 ADD SWAP3 SWAP1 SWAP2 ADD SWAP1 PUSH2 0x278D JUMP JUMPDEST ADD MLOAD SWAP1 POP DUP4 DUP1 PUSH2 0x1CF4 JUMP JUMPDEST SWAP3 POP PUSH1 0x15 DUP5 ADD PUSH1 0x0 MSTORE PUSH1 0x20 PUSH1 0x0 KECCAK256 SWAP1 PUSH1 0x0 SWAP4 JUMPDEST PUSH1 0x1F NOT DUP5 AND DUP6 LT PUSH2 0x284E JUMPI PUSH1 0x1 SWAP5 POP DUP4 PUSH1 0x1F NOT DUP2 AND LT PUSH2 0x2835 JUMPI JUMPDEST POP POP POP DUP2 SHL ADD PUSH1 0x15 DUP3 ADD SSTORE PUSH2 0x1D0C JUMP JUMPDEST ADD MLOAD PUSH1 0x0 NOT PUSH1 0xF8 DUP5 PUSH1 0x3 SHL AND SHR NOT AND SWAP1 SSTORE DUP4 DUP1 DUP1 PUSH2 0x2825 JUMP JUMPDEST DUP2 DUP2 ADD MLOAD DUP4 SSTORE PUSH1 0x20 SWAP5 DUP6 ADD SWAP5 PUSH1 0x1 SWAP1 SWAP4 ADD SWAP3 SWAP1 SWAP2 ADD SWAP1 PUSH2 0x280A JUMP JUMPDEST ADD MLOAD SWAP1 POP DUP4 DUP1 PUSH2 0x1C90 JUMP JUMPDEST SWAP3 POP PUSH1 0x14 DUP5 ADD PUSH1 0x0 MSTORE PUSH1 0x20 PUSH1 0x0 KECCAK256 SWAP1 PUSH1 0x0 SWAP4 JUMPDEST PUSH1 0x1F NOT DUP5 AND DUP6 LT PUSH2 0x28CB JUMPI PUSH1 0x1 SWAP5 POP DUP4 PUSH1 0x1F NOT DUP2 AND LT PUSH2 0x28B2 JUMPI JUMPDEST POP POP POP DUP2 SHL ADD PUSH1 0x14 DUP3 ADD SSTORE PUSH2 0x1CA8 JUMP JUMPDEST ADD MLOAD PUSH1 0x0 NOT PUSH1 0xF8 DUP5 PUSH1 0x3 SHL AND SHR NOT AND SWAP1 SSTORE DUP4 DUP1 DUP1 PUSH2 0x28A2 JUMP JUMPDEST DUP2 DUP2 ADD MLOAD DUP4 SSTORE PUSH1 0x20 SWAP5 DUP6 ADD SWAP5 PUSH1 0x1 SWAP1 SWAP4 ADD SWAP3 SWAP1 SWAP2 ADD SWAP1 PUSH2 0x2887 JUMP JUMPDEST ADD MLOAD SWAP1 POP DUP4 DUP1 PUSH2 0x1C2C JUMP JUMPDEST SWAP3 POP PUSH1 0x13 DUP5 ADD PUSH1 0x0 MSTORE PUSH1 0x20 PUSH1 0x0 KECCAK256 SWAP1 PUSH1 0x0 SWAP4 JUMPDEST PUSH1 0x1F NOT DUP5 AND DUP6 LT PUSH2 0x2948 JUMPI PUSH1 0x1 SWAP5 POP DUP4 PUSH1 0x1F NOT DUP2 AND LT PUSH2 0x292F JUMPI JUMPDEST POP POP POP DUP2 SHL ADD PUSH1 0x13 DUP3 ADD SSTORE PUSH2 0x1C44 JUMP JUMPDEST ADD MLOAD PUSH1 0x0 NOT PUSH1 0xF8 DUP5 PUSH1 0x3 SHL AND SHR NOT AND SWAP1 SSTORE DUP4 DUP1 DUP1 PUSH2 0x291F JUMP JUMPDEST DUP2 DUP2 ADD MLOAD DUP4 SSTORE PUSH1 0x20 SWAP5 DUP6 ADD SWAP5 PUSH1 0x1 SWAP1 SWAP4 ADD SWAP3 SWAP1 SWAP2 ADD SWAP1 PUSH2 0x2904 JUMP JUMPDEST ADD MLOAD SWAP1 POP DUP4 DUP1 PUSH2 0x1BC8 JUMP JUMPDEST SWAP3 POP PUSH1 0x12 DUP5 ADD PUSH1 0x0 MSTORE PUSH1 0x20 PUSH1 0x0 KECCAK256 SWAP1 PUSH1 0x0 SWAP4 JUMPDEST PUSH1 0x1F NOT DUP5 AND DUP6 LT PUSH2 0x29C5 JUMPI PUSH1 0x1 SWAP5 POP DUP4 PUSH1 0x1F NOT DUP2 AND LT PUSH2 0x29AC JUMPI JUMPDEST POP POP POP DUP2 SHL ADD PUSH1 0x12 DUP3 ADD SSTORE PUSH2 0x1BE0 JUMP JUMPDEST ADD MLOAD PUSH1 0x0 NOT PUSH1 0xF8 DUP5 PUSH1 0x3 SHL AND SHR NOT AND SWAP1 SSTORE DUP4 DUP1 DUP1 PUSH2 0x299C JUMP JUMPDEST DUP2 DUP2 ADD MLOAD DUP4 SSTORE PUSH1 0x20 SWAP5 DUP6 ADD SWAP5 PUSH1 0x1 SWAP1 SWAP4 ADD SWAP3 SWAP1 SWAP2 ADD SWAP1 PUSH2 0x2981 JUMP JUMPDEST ADD MLOAD SWAP1 POP DUP4 DUP1 PUSH2 0x1B64 JUMP JUMPDEST SWAP3 POP PUSH1 0x11 DUP5 ADD PUSH1 0x0 MSTORE PUSH1 0x20 PUSH1 0x0 KECCAK256 SWAP1 PUSH1 0x0 SWAP4 JUMPDEST PUSH1 0x1F NOT DUP5 AND DUP6 LT PUSH2 0x2A42 JUMPI PUSH1 0x1 SWAP5 POP DUP4 PUSH1 0x1F NOT DUP2 AND LT PUSH2 0x2A29 JUMPI JUMPDEST POP POP POP DUP2 SHL ADD PUSH1 0x11 DUP3 ADD SSTORE PUSH2 0x1B7C JUMP JUMPDEST ADD MLOAD PUSH1 0x0 NOT PUSH1 0xF8 DUP5 PUSH1 0x3 SHL AND SHR NOT AND SWAP1 SSTORE DUP4 DUP1 DUP1 PUSH2 0x2A19 JUMP JUMPDEST DUP2 DUP2 ADD MLOAD DUP4 SSTORE PUSH1 0x20 SWAP5 DUP6 ADD SWAP5 PUSH1 0x1 SWAP1 SWAP4 ADD SWAP3 SWAP1 SWAP2 ADD SWAP1 PUSH2 0x29FE JUMP JUMPDEST ADD MLOAD SWAP1 POP DUP4 DUP1 PUSH2 0x1B00 JUMP JUMPDEST SWAP3 POP PUSH1 0x10 DUP5 ADD PUSH1 0x0 MSTORE PUSH1 0x20 PUSH1 0x0 KECCAK256 SWAP1 PUSH1 0x0 SWAP4 JUMPDEST PUSH1 0x1F NOT DUP5 AND DUP6 LT PUSH2 0x2ABF JUMPI PUSH1 0x1 SWAP5 POP DUP4 PUSH1 0x1F NOT DUP2 AND LT PUSH2 0x2AA6 JUMPI JUMPDEST POP POP POP DUP2 SHL ADD PUSH1 0x10 DUP3 ADD SSTORE PUSH2 0x1B18 JUMP JUMPDEST ADD MLOAD PUSH1 0x0 NOT PUSH1 0xF8 DUP5 PUSH1 0x3 SHL AND SHR NOT AND SWAP1 SSTORE DUP4 DUP1 DUP1 PUSH2 0x2A96 JUMP JUMPDEST DUP2 DUP2 ADD MLOAD DUP4 SSTORE PUSH1 0x20 SWAP5 DUP6 ADD SWAP5 PUSH1 0x1 SWAP1 SWAP4 ADD SWAP3 SWAP1 SWAP2 ADD SWAP1 PUSH2 0x2A7B JUMP JUMPDEST ADD MLOAD SWAP1 POP DUP4 DUP1 PUSH2 0x1A9C JUMP JUMPDEST SWAP3 POP PUSH1 0xF DUP5 ADD PUSH1 0x0 MSTORE PUSH1 0x20 PUSH1 0x0 KECCAK256 SWAP1 PUSH1 0x0 SWAP4 JUMPDEST PUSH1 0x1F NOT DUP5 AND DUP6 LT PUSH2 0x2B3C JUMPI PUSH1 0x1 SWAP5 POP DUP4 PUSH1 0x1F NOT DUP2 AND LT PUSH2 0x2B23 JUMPI JUMPDEST POP POP POP DUP2 SHL ADD PUSH1 0xF DUP3 ADD SSTORE PUSH2 0x1AB4 JUMP JUMPDEST ADD MLOAD PUSH1 0x0 NOT PUSH1 0xF8 DUP5 PUSH1 0x3 SHL AND SHR NOT AND SWAP1 SSTORE DUP4 DUP1 DUP1 PUSH2 0x2B13 JUMP JUMPDEST DUP2 DUP2 ADD MLOAD DUP4 SSTORE PUSH1 0x20 SWAP5 DUP6 ADD SWAP5 PUSH1 0x1 SWAP1 SWAP4 ADD SWAP3 SWAP1 SWAP2 ADD SWAP1 PUSH2 0x2AF8 JUMP JUMPDEST ADD MLOAD SWAP1 POP DUP4 DUP1 PUSH2 0x1A38 JUMP JUMPDEST SWAP3 POP PUSH1 0xE DUP5 ADD PUSH1 0x0 MSTORE PUSH1 0x20 PUSH1 0x0 KECCAK256 SWAP1 PUSH1 0x0 SWAP4 JUMPDEST PUSH1 0x1F NOT DUP5 AND DUP6 LT PUSH2 0x2BB9 JUMPI PUSH1 0x1 SWAP5 POP DUP4 PUSH1 0x1F NOT DUP2 AND LT PUSH2 0x2BA0 JUMPI JUMPDEST POP POP POP DUP2 SHL ADD PUSH1 0xE DUP3 ADD SSTORE PUSH2 0x1A50 JUMP JUMPDEST ADD MLOAD PUSH1 0x0 NOT PUSH1 0xF8 DUP5 PUSH1 0x3 SHL AND SHR NOT AND SWAP1 SSTORE DUP4 DUP1 DUP1 PUSH2 0x2B90 JUMP JUMPDEST DUP2 DUP2 ADD MLOAD DUP4 SSTORE PUSH1 0x20 SWAP5 DUP6 ADD SWAP5 PUSH1 0x1 SWAP1 SWAP4 ADD SWAP3 SWAP1 SWAP2 ADD SWAP1 PUSH2 0x2B75 JUMP JUMPDEST ADD MLOAD SWAP1 POP DUP4 DUP1 PUSH2 0x19D4 JUMP JUMPDEST SWAP3 POP PUSH1 0xD DUP5 ADD PUSH1 0x0 MSTORE PUSH1 0x20 PUSH1 0x0 KECCAK256 SWAP1 PUSH1 0x0 SWAP4 JUMPDEST PUSH1 0x1F NOT DUP5 AND DUP6 LT PUSH2 0x2C36 JUMPI PUSH1 0x1 SWAP5 POP DUP4 PUSH1 0x1F NOT DUP2 AND LT PUSH2 0x2C1D JUMPI JUMPDEST POP POP POP DUP2 SHL ADD PUSH1 0xD DUP3 ADD SSTORE PUSH2 0x19EC JUMP JUMPDEST ADD MLOAD PUSH1 0x0 NOT PUSH1 0xF8 DUP5 PUSH1 0x3 SHL AND SHR NOT AND SWAP1 SSTORE DUP4 DUP1 DUP1 PUSH2 0x2C0D JUMP JUMPDEST DUP2 DUP2 ADD MLOAD DUP4 SSTORE PUSH1 0x20 SWAP5 DUP6 ADD SWAP5 PUSH1 0x1 SWAP1 SWAP4 ADD SWAP3 SWAP1 SWAP2 ADD SWAP1 PUSH2 0x2BF2 JUMP JUMPDEST ADD MLOAD SWAP1 POP DUP4 DUP1 PUSH2 0x1970 JUMP JUMPDEST SWAP3 POP PUSH1 0xC DUP5 ADD PUSH1 0x0 MSTORE PUSH1 0x20 PUSH1 0x0 KECCAK256 SWAP1 PUSH1 0x0 SWAP4 JUMPDEST PUSH1 0x1F NOT DUP5 AND DUP6 LT PUSH2 0x2CB3 JUMPI PUSH1 0x1 SWAP5 POP DUP4 PUSH1 0x1F NOT DUP2 AND LT PUSH2 0x2C9A JUMPI JUMPDEST POP POP POP DUP2 SHL ADD PUSH1 0xC DUP3 ADD SSTORE PUSH2 0x1988 JUMP JUMPDEST ADD MLOAD PUSH1 0x0 NOT PUSH1 0xF8 DUP5 PUSH1 0x3 SHL AND SHR NOT AND SWAP1 SSTORE DUP4 DUP1 DUP1 PUSH2 0x2C8A JUMP JUMPDEST DUP2 DUP2 ADD MLOAD DUP4 SSTORE PUSH1 0x20 SWAP5 DUP6 ADD SWAP5 PUSH1 0x1 SWAP1 SWAP4 ADD SWAP3 SWAP1 SWAP2 ADD SWAP1 PUSH2 0x2C6F JUMP JUMPDEST ADD MLOAD SWAP1 POP DUP4 DUP1 PUSH2 0x190C JUMP JUMPDEST SWAP3 POP PUSH1 0xB DUP5 ADD PUSH1 0x0 MSTORE PUSH1 0x20 PUSH1 0x0 KECCAK256 SWAP1 PUSH1 0x0 SWAP4 JUMPDEST PUSH1 0x1F NOT DUP5 AND DUP6 LT PUSH2 0x2D30 JUMPI PUSH1 0x1 SWAP5 POP DUP4 PUSH1 0x1F NOT DUP2 AND LT PUSH2 0x2D17 JUMPI JUMPDEST POP POP POP DUP2 SHL ADD PUSH1 0xB DUP3 ADD SSTORE PUSH2 0x1924 JUMP JUMPDEST ADD MLOAD PUSH1 0x0 NOT PUSH1 0xF8 DUP5 PUSH1 0x3 SHL AND SHR NOT AND SWAP1 SSTORE DUP4 DUP1 DUP1 PUSH2 0x2D07 JUMP JUMPDEST DUP2 DUP2 ADD MLOAD DUP4 SSTORE PUSH1 0x20 SWAP5 DUP6 ADD SWAP5 PUSH1 0x1 SWAP1 SWAP4 ADD SWAP3 SWAP1 SWAP2 ADD SWAP1 PUSH2 0x2CEC JUMP JUMPDEST ADD MLOAD SWAP1 POP DUP4 DUP1 PUSH2 0x18A8 JUMP JUMPDEST SWAP3 POP PUSH1 0xA DUP5 ADD PUSH1 0x0 MSTORE PUSH1 0x20 PUSH1 0x0 KECCAK256 SWAP1 PUSH1 0x0 SWAP4 JUMPDEST PUSH1 0x1F NOT DUP5 AND DUP6 LT PUSH2 0x2DAD JUMPI PUSH1 0x1 SWAP5 POP DUP4 PUSH1 0x1F NOT DUP2 AND LT PUSH2 0x2D94 JUMPI JUMPDEST POP POP POP DUP2 SHL ADD PUSH1 0xA DUP3 ADD SSTORE PUSH2 0x18C0 JUMP JUMPDEST ADD MLOAD PUSH1 0x0 NOT PUSH1 0xF8 DUP5 PUSH1 0x3 SHL AND SHR NOT AND SWAP1 SSTORE DUP4 DUP1 DUP1 PUSH2 0x2D84 JUMP JUMPDEST DUP2 DUP2 ADD MLOAD DUP4 SSTORE PUSH1 0x20 SWAP5 DUP6 ADD SWAP5 PUSH1 0x1 SWAP1 SWAP4 ADD SWAP3 SWAP1 SWAP2 ADD SWAP1 PUSH2 0x2D69 JUMP JUMPDEST ADD MLOAD SWAP1 POP DUP4 DUP1 PUSH2 0x1844 JUMP JUMPDEST SWAP3 POP PUSH1 0x9 DUP5 ADD PUSH1 0x0 MSTORE PUSH1 0x20 PUSH1 0x0 KECCAK256 SWAP1 PUSH1 0x0 SWAP4 JUMPDEST PUSH1 0x1F NOT DUP5 AND DUP6 LT PUSH2 0x2E2A JUMPI PUSH1 0x1 SWAP5 POP DUP4 PUSH1 0x1F NOT DUP2 AND LT PUSH2 0x2E11 JUMPI JUMPDEST POP POP POP DUP2 SHL ADD PUSH1 0x9 DUP3 ADD SSTORE PUSH2 0x185C JUMP JUMPDEST ADD MLOAD PUSH1 0x0 NOT PUSH1 0xF8 DUP5 PUSH1 0x3 SHL AND SHR NOT AND SWAP1 SSTORE DUP4 DUP1 DUP1 PUSH2 0x2E01 JUMP JUMPDEST DUP2 DUP2 ADD MLOAD DUP4 SSTORE PUSH1 0x20 SWAP5 DUP6 ADD SWAP5 PUSH1 0x1 SWAP1 SWAP4 ADD SWAP3 SWAP1 SWAP2 ADD SWAP1 PUSH2 0x2DE6 JUMP JUMPDEST ADD MLOAD SWAP1 POP DUP4 DUP1 PUSH2 0x17E0 JUMP JUMPDEST SWAP3 POP PUSH1 0x8 DUP5 ADD PUSH1 0x0 MSTORE PUSH1 0x20 PUSH1 0x0 KECCAK256 SWAP1 PUSH1 0x0 SWAP4 JUMPDEST PUSH1 0x1F NOT DUP5 AND DUP6 LT PUSH2 0x2EA7 JUMPI PUSH1 0x1 SWAP5 POP DUP4 PUSH1 0x1F NOT DUP2 AND LT PUSH2 0x2E8E JUMPI JUMPDEST POP POP POP DUP2 SHL ADD PUSH1 0x8 DUP3 ADD SSTORE PUSH2 0x17F8 JUMP JUMPDEST ADD MLOAD PUSH1 0x0 NOT PUSH1 0xF8 DUP5 PUSH1 0x3 SHL AND SHR NOT AND SWAP1 SSTORE DUP4 DUP1 DUP1 PUSH2 0x2E7E JUMP JUMPDEST DUP2 DUP2 ADD MLOAD DUP4 SSTORE PUSH1 0x20 SWAP5 DUP6 ADD SWAP5 PUSH1 0x1 SWAP1 SWAP4 ADD SWAP3 SWAP1 SWAP2 ADD SWAP1 PUSH2 0x2E63 JUMP JUMPDEST ADD MLOAD SWAP1 POP DUP4 DUP1 PUSH2 0x177C JUMP JUMPDEST SWAP3 POP PUSH1 0x7 DUP5 ADD PUSH1 0x0 MSTORE PUSH1 0x20 PUSH1 0x0 KECCAK256 SWAP1 PUSH1 0x0 SWAP4 JUMPDEST PUSH1 0x1F NOT DUP5 AND DUP6 LT PUSH2 0x2F24 JUMPI PUSH1 0x1 SWAP5 POP DUP4 PUSH1 0x1F NOT DUP2 AND LT PUSH2 0x2F0B JUMPI JUMPDEST POP POP POP DUP2 SHL ADD PUSH1 0x7 DUP3 ADD SSTORE PUSH2 0x1794 JUMP JUMPDEST ADD MLOAD PUSH1 0x0 NOT PUSH1 0xF8 DUP5 PUSH1 0x3 SHL AND SHR NOT AND SWAP1 SSTORE DUP4 DUP1 DUP1 PUSH2 0x2EFB JUMP JUMPDEST DUP2 DUP2 ADD MLOAD DUP4 SSTORE PUSH1 0x20 SWAP5 DUP6 ADD SWAP5 PUSH1 0x1 SWAP1 SWAP4 ADD SWAP3 SWAP1 SWAP2 ADD SWAP1 PUSH2 0x2EE0 JUMP JUMPDEST ADD MLOAD SWAP1 POP DUP4 DUP1 PUSH2 0x1719 JUMP JUMPDEST SWAP3 POP PUSH1 0x6 DUP5 ADD PUSH1 0x0 MSTORE PUSH1 0x20 PUSH1 0x0 KECCAK256 SWAP1 PUSH1 0x0 SWAP4 JUMPDEST PUSH1 0x1F NOT DUP5 AND DUP6 LT PUSH2 0x2FA1 JUMPI PUSH1 0x1 SWAP5 POP DUP4 PUSH1 0x1F NOT DUP2 AND LT PUSH2 0x2F88 JUMPI JUMPDEST POP POP POP DUP2 SHL ADD PUSH1 0x6 DUP3 ADD SSTORE PUSH2 0x1731 JUMP JUMPDEST ADD MLOAD PUSH1 0x0 NOT PUSH1 0xF8 DUP5 PUSH1 0x3 SHL AND SHR NOT AND SWAP1 SSTORE DUP4 DUP1 DUP1 PUSH2 0x2F78 JUMP JUMPDEST DUP2 DUP2 ADD MLOAD DUP4 SSTORE PUSH1 0x20 SWAP5 DUP6 ADD SWAP5 PUSH1 0x1 SWAP1 SWAP4 ADD SWAP3 SWAP1 SWAP2 ADD SWAP1 PUSH2 0x2F5D JUMP JUMPDEST ADD MLOAD SWAP1 POP DUP4 DUP1 PUSH2 0x16B6 JUMP JUMPDEST SWAP3 POP PUSH1 0x5 DUP5 ADD PUSH1 0x0 MSTORE PUSH1 0x20 PUSH1 0x0 KECCAK256 SWAP1 PUSH1 0x0 SWAP4 JUMPDEST PUSH1 0x1F NOT DUP5 AND DUP6 LT PUSH2 0x301E JUMPI PUSH1 0x1 SWAP5 POP DUP4 PUSH1 0x1F NOT DUP2 AND LT PUSH2 0x3005 JUMPI JUMPDEST POP POP POP DUP2 SHL ADD PUSH1 0x5 DUP3 ADD SSTORE PUSH2 0x16CE JUMP JUMPDEST ADD MLOAD PUSH1 0x0 NOT PUSH1 0xF8 DUP5 PUSH1 0x3 SHL AND SHR NOT AND SWAP1 SSTORE DUP4 DUP1 DUP1 PUSH2 0x2FF5 JUMP JUMPDEST DUP2 DUP2 ADD MLOAD DUP4 SSTORE PUSH1 0x20 SWAP5 DUP6 ADD SWAP5 PUSH1 0x1 SWAP1 SWAP4 ADD SWAP3 SWAP1 SWAP2 ADD SWAP1 PUSH2 0x2FDA JUMP JUMPDEST ADD MLOAD SWAP1 POP DUP4 DUP1 PUSH2 0x1653 JUMP JUMPDEST SWAP3 POP PUSH1 0x4 DUP5 ADD PUSH1 0x0 MSTORE PUSH1 0x20 PUSH1 0x0 KECCAK256 SWAP1 PUSH1 0x0 SWAP4 JUMPDEST PUSH1 0x1F NOT DUP5 AND DUP6 LT PUSH2 0x309B JUMPI PUSH1 0x1 SWAP5 POP DUP4 PUSH1 0x1F NOT DUP2 AND LT PUSH2 0x3082 JUMPI JUMPDEST POP POP POP DUP2 SHL ADD PUSH1 0x4 DUP3 ADD SSTORE PUSH2 0x166B JUMP JUMPDEST ADD MLOAD PUSH1 0x0 NOT PUSH1 0xF8 DUP5 PUSH1 0x3 SHL AND SHR NOT AND SWAP1 SSTORE DUP4 DUP1 DUP1 PUSH2 0x3072 JUMP JUMPDEST DUP2 DUP2 ADD MLOAD DUP4 SSTORE PUSH1 0x20 SWAP5 DUP6 ADD SWAP5 PUSH1 0x1 SWAP1 SWAP4 ADD SWAP3 SWAP1 SWAP2 ADD SWAP1 PUSH2 0x3057 JUMP JUMPDEST ADD MLOAD SWAP1 POP DUP4 DUP1 PUSH2 0x15F0 JUMP JUMPDEST SWAP3 POP PUSH1 0x3 DUP5 ADD PUSH1 0x0 MSTORE PUSH1 0x20 PUSH1 0x0 KECCAK256 SWAP1 PUSH1 0x0 SWAP4 JUMPDEST PUSH1 0x1F NOT DUP5 AND DUP6 LT PUSH2 0x3118 JUMPI PUSH1 0x1 SWAP5 POP DUP4 PUSH1 0x1F NOT DUP2 AND LT PUSH2 0x30FF JUMPI JUMPDEST POP POP POP DUP2 SHL ADD PUSH1 0x3 DUP3 ADD SSTORE PUSH2 0x1608 JUMP JUMPDEST ADD MLOAD PUSH1 0x0 NOT PUSH1 0xF8 DUP5 PUSH1 0x3 SHL AND SHR NOT AND SWAP1 SSTORE DUP4 DUP1 DUP1 PUSH2 0x30EF JUMP JUMPDEST DUP2 DUP2 ADD MLOAD DUP4 SSTORE PUSH1 0x20 SWAP5 DUP6 ADD SWAP5 PUSH1 0x1 SWAP1 SWAP4 ADD SWAP3 SWAP1 SWAP2 ADD SWAP1 PUSH2 0x30D4 JUMP JUMPDEST ADD MLOAD SWAP1 POP DUP4 DUP1 PUSH2 0x158D JUMP JUMPDEST SWAP3 POP PUSH1 0x2 DUP5 ADD PUSH1 0x0 MSTORE PUSH1 0x20 PUSH1 0x0 KECCAK256 SWAP1 PUSH1 0x0 SWAP4 JUMPDEST PUSH1 0x1F NOT DUP5 AND DUP6 LT PUSH2 0x3195 JUMPI PUSH1 0x1 SWAP5 POP DUP4 PUSH1 0x1F NOT DUP2 AND LT PUSH2 0x317C JUMPI JUMPDEST POP POP POP DUP2 SHL ADD PUSH1 0x2 DUP3 ADD SSTORE PUSH2 0x15A5 JUMP JUMPDEST ADD MLOAD PUSH1 0x0 NOT PUSH1 0xF8 DUP5 PUSH1 0x3 SHL AND SHR NOT AND SWAP1 SSTORE DUP4 DUP1 DUP1 PUSH2 0x316C JUMP JUMPDEST DUP2 DUP2 ADD MLOAD DUP4 SSTORE PUSH1 0x20 SWAP5 DUP6 ADD SWAP5 PUSH1 0x1 SWAP1 SWAP4 ADD SWAP3 SWAP1 SWAP2 ADD SWAP1 PUSH2 0x3151 JUMP JUMPDEST ADD MLOAD SWAP1 POP DUP4 DUP1 PUSH2 0x152A JUMP JUMPDEST SWAP3 POP PUSH1 0x1 DUP5 ADD PUSH1 0x0 MSTORE PUSH1 0x20 PUSH1 0x0 KECCAK256 SWAP1 PUSH1 0x0 SWAP4 JUMPDEST PUSH1 0x1F NOT DUP5 AND DUP6 LT PUSH2 0x3212 JUMPI PUSH1 0x1 SWAP5 POP DUP4 PUSH1 0x1F NOT DUP2 AND LT PUSH2 0x31F9 JUMPI JUMPDEST POP POP POP DUP2 SHL ADD PUSH1 0x1 DUP3 ADD SSTORE PUSH2 0x1542 JUMP JUMPDEST ADD MLOAD PUSH1 0x0 NOT PUSH1 0xF8 DUP5 PUSH1 0x3 SHL AND SHR NOT AND SWAP1 SSTORE DUP4 DUP1 DUP1 PUSH2 0x31E9 JUMP JUMPDEST DUP2 DUP2 ADD MLOAD DUP4 SSTORE PUSH1 0x20 SWAP5 DUP6 ADD SWAP5 PUSH1 0x1 SWAP1 SWAP4 ADD SWAP3 SWAP1 SWAP2 ADD SWAP1 PUSH2 0x31CE JUMP JUMPDEST ADD MLOAD SWAP1 POP DUP4 DUP1 PUSH2 0x14CA JUMP JUMPDEST SWAP3 POP DUP4 PUSH1 0x0 MSTORE PUSH1 0x20 PUSH1 0x0 KECCAK256 SWAP1 PUSH1 0x0 SWAP4 JUMPDEST PUSH1 0x1F NOT DUP5 AND DUP6 LT PUSH2 0x3289 JUMPI PUSH1 0x1 SWAP5 POP DUP4 PUSH1 0x1F NOT DUP2 AND LT PUSH2 0x3270 JUMPI JUMPDEST POP POP POP DUP2 SHL ADD DUP2 SSTORE PUSH2 0x14DF JUMP JUMPDEST ADD MLOAD PUSH1 0x0 NOT PUSH1 0xF8 DUP5 PUSH1 0x3 SHL AND SHR NOT AND SWAP1 SSTORE DUP4 DUP1 DUP1 PUSH2 0x3263 JUMP JUMPDEST DUP2 DUP2 ADD MLOAD DUP4 SSTORE PUSH1 0x20 SWAP5 DUP6 ADD SWAP5 PUSH1 0x1 SWAP1 SWAP4 ADD SWAP3 SWAP1 SWAP2 ADD SWAP1 PUSH2 0x3248 JUMP JUMPDEST PUSH1 0x40 MLOAD PUSH3 0x461BCD PUSH1 0xE5 SHL DUP2 MSTORE PUSH1 0x20 PUSH1 0x4 DUP3 ADD MSTORE PUSH1 0xB PUSH1 0x24 DUP3 ADD MSTORE PUSH11 0x139BDD081CDD195DD85C99 PUSH1 0xAA SHL PUSH1 0x44 DUP3 ADD MSTORE PUSH1 0x64 SWAP1 REVERT JUMPDEST CALLVALUE PUSH2 0x5B0 JUMPI PUSH1 0x20 CALLDATASIZE PUSH1 0x3 NOT ADD SLT PUSH2 0x5B0 JUMPI PUSH1 0x4 CALLDATALOAD PUSH1 0x2 SLOAD DUP2 LT ISZERO PUSH2 0x5B0 JUMPI PUSH2 0x32FE SWAP1 PUSH2 0x3322 JUMP JUMPDEST PUSH2 0x246D JUMPI PUSH2 0x330E PUSH2 0xC67 SWAP2 PUSH2 0x33E6 JUMP JUMPDEST PUSH1 0x40 MLOAD SWAP2 DUP3 SWAP2 PUSH1 0x20 DUP4 MSTORE PUSH1 0x20 DUP4 ADD SWAP1 PUSH2 0x34AF JUMP JUMPDEST PUSH1 0x2 SLOAD DUP2 LT ISZERO PUSH2 0x3359 JUMPI PUSH1 0x2 PUSH1 0x0 MSTORE PUSH32 0x405787FA12A823E0F2B7631CC41B3BA8828B3321CA811111FA75CD3AA3BB5ACE ADD SWAP1 PUSH1 0x0 SWAP1 JUMP JUMPDEST PUSH4 0x4E487B71 PUSH1 0xE0 SHL PUSH1 0x0 MSTORE PUSH1 0x32 PUSH1 0x4 MSTORE PUSH1 0x24 PUSH1 0x0 REVERT JUMPDEST SWAP1 PUSH1 0x1 DUP3 DUP2 SHR SWAP3 AND DUP1 ISZERO PUSH2 0x339F JUMPI JUMPDEST PUSH1 0x20 DUP4 LT EQ PUSH2 0x3389 JUMPI JUMP JUMPDEST PUSH4 0x4E487B71 PUSH1 0xE0 SHL PUSH1 0x0 MSTORE PUSH1 0x22 PUSH1 0x4 MSTORE PUSH1 0x24 PUSH1 0x0 REVERT JUMPDEST SWAP2 PUSH1 0x7F AND SWAP2 PUSH2 0x337E JUMP JUMPDEST PUSH2 0x3A0 DUP2 ADD SWAP1 DUP2 LT PUSH1 0x1 PUSH1 0x1 PUSH1 0x40 SHL SUB DUP3 GT OR PUSH2 0x2457 JUMPI PUSH1 0x40 MSTORE JUMP JUMPDEST SWAP1 PUSH1 0x1F DUP1 NOT SWAP2 ADD AND DUP2 ADD SWAP1 DUP2 LT PUSH1 0x1 PUSH1 0x1 PUSH1 0x40 SHL SUB DUP3 GT OR PUSH2 0x2457 JUMPI PUSH1 0x40 MSTORE JUMP JUMPDEST SWAP1 PUSH1 0x40 MLOAD SWAP2 DUP3 PUSH1 0x0 DUP3 SLOAD SWAP3 PUSH2 0x33FA DUP5 PUSH2 0x336F JUMP JUMPDEST SWAP1 DUP2 DUP5 MSTORE PUSH1 0x1 SWAP5 DUP6 DUP2 AND SWAP1 DUP2 PUSH1 0x0 EQ PUSH2 0x3469 JUMPI POP PUSH1 0x1 EQ PUSH2 0x3426 JUMPI JUMPDEST POP POP PUSH2 0x3424 SWAP3 POP SUB DUP4 PUSH2 0x33C5 JUMP JUMPDEST JUMP JUMPDEST SWAP1 SWAP4 SWAP2 POP PUSH1 0x0 MSTORE PUSH1 0x20 SWAP1 DUP2 PUSH1 0x0 KECCAK256 SWAP4 PUSH1 0x0 SWAP2 JUMPDEST DUP2 DUP4 LT PUSH2 0x3451 JUMPI POP POP PUSH2 0x3424 SWAP4 POP DUP3 ADD ADD CODESIZE DUP1 PUSH2 0x3416 JUMP JUMPDEST DUP6 SLOAD DUP9 DUP5 ADD DUP6 ADD MSTORE SWAP5 DUP6 ADD SWAP5 DUP8 SWAP5 POP SWAP2 DUP4 ADD SWAP2 PUSH2 0x3439 JUMP JUMPDEST SWAP2 POP POP PUSH2 0x3424 SWAP5 POP PUSH1 0x20 SWAP3 POP PUSH1 0xFF NOT AND DUP3 DUP5 ADD MSTORE ISZERO ISZERO PUSH1 0x5 SHL DUP3 ADD ADD CODESIZE DUP1 PUSH2 0x3416 JUMP JUMPDEST PUSH1 0x0 JUMPDEST DUP4 DUP2 LT PUSH2 0x349F JUMPI POP POP PUSH1 0x0 SWAP2 ADD MSTORE JUMP JUMPDEST DUP2 DUP2 ADD MLOAD DUP4 DUP3 ADD MSTORE PUSH1 0x20 ADD PUSH2 0x348F JUMP JUMPDEST SWAP1 PUSH1 0x20 SWAP2 PUSH2 0x34C8 DUP2 MLOAD DUP1 SWAP3 DUP2 DUP6 MSTORE DUP6 DUP1 DUP7 ADD SWAP2 ADD PUSH2 0x348C JUMP JUMPDEST PUSH1 0x1F ADD PUSH1 0x1F NOT AND ADD ADD SWAP1 JUMP JUMPDEST SWAP2 DUP2 PUSH1 0x1F DUP5 ADD SLT ISZERO PUSH2 0x5B0 JUMPI DUP3 CALLDATALOAD SWAP2 PUSH1 0x1 PUSH1 0x1 PUSH1 0x40 SHL SUB DUP4 GT PUSH2 0x5B0 JUMPI PUSH1 0x20 DUP4 DUP2 DUP7 ADD SWAP6 ADD ADD GT PUSH2 0x5B0 JUMPI JUMP JUMPDEST SWAP3 SWAP2 SWAP3 PUSH1 0x1 PUSH1 0x1 PUSH1 0x40 SHL SUB DUP3 GT PUSH2 0x2457 JUMPI PUSH1 0x40 MLOAD SWAP2 PUSH2 0x352A PUSH1 0x1F DUP3 ADD PUSH1 0x1F NOT AND PUSH1 0x20 ADD DUP5 PUSH2 0x33C5 JUMP JUMPDEST DUP3 SWAP5 DUP2 DUP5 MSTORE DUP2 DUP4 ADD GT PUSH2 0x5B0 JUMPI DUP3 DUP2 PUSH1 0x20 SWAP4 DUP5 PUSH1 0x0 SWAP7 ADD CALLDATACOPY ADD ADD MSTORE JUMP JUMPDEST SWAP1 PUSH1 0x1F DUP2 GT PUSH2 0x3555 JUMPI POP POP POP JUMP JUMPDEST PUSH1 0x0 SWAP2 DUP3 MSTORE PUSH1 0x20 DUP3 KECCAK256 SWAP1 PUSH1 0x20 PUSH1 0x1F DUP6 ADD PUSH1 0x5 SHR DUP4 ADD SWAP5 LT PUSH2 0x3591 JUMPI JUMPDEST PUSH1 0x1F ADD PUSH1 0x5 SHR ADD SWAP2 JUMPDEST DUP3 DUP2 LT PUSH2 0x3586 JUMPI POP POP POP JUMP JUMPDEST DUP2 DUP2 SSTORE PUSH1 0x1 ADD PUSH2 0x357A JUMP JUMPDEST SWAP1 SWAP3 POP DUP3 SWAP1 PUSH2 0x3571 JUMP JUMPDEST SWAP1 DUP1 PUSH1 0x20 SWAP4 SWAP3 DUP2 DUP5 MSTORE DUP5 DUP5 ADD CALLDATACOPY PUSH1 0x0 DUP3 DUP3 ADD DUP5 ADD MSTORE PUSH1 0x1F ADD PUSH1 0x1F NOT AND ADD ADD SWAP1 JUMP INVALID LOG2 PUSH5 0x6970667358 0x22 SLT KECCAK256 0xD0 SDIV 0xCC PUSH8 0xCEDB1884B8EA1430 GASPRICE SSTORE AND CALLVALUE 0x28 0xCC 0x2E PUSH27 0x84556D0629E41C24CA450B9064736F6C6343000814003300000000 "},"methodIdentifiers":{"codices(string)":"dbc21424","getCodex(string)":"83361522","inscribeCodex(string,string,string,string,string,string,string,string,string,string,string,string,string,string,string,string,string,string,string,string,string,string,string,string,string,string,string,string,string,string)":"2248b4ea","keys(uint256)":"0cb6aaf1","steward()":"637eea19","totalCodices()":"c212d16b"}}}}}