{"contracts/registry/CompanionSummonerXXII.sol":{"CompanionSummonerXXII":{"abi":[{"inputs":[],"stateMutability":"nonpayable","type":"constructor"},{"anonymous":false,"inputs":[{"indexed":true,"internalType":"address","name":"companion","type":"address"},{"indexed":false,"internalType":"string","name":"name","type":"string"},{"indexed":false,"internalType":"string","name":"trait","type":"string"},{"indexed":false,"internalType":"string","name":"drift","type":"string"},{"indexed":false,"internalType":"string","name":"resonance","type":"string"},{"indexed":false,"internalType":"string","name":"codexRef","type":"string"},{"indexed":false,"internalType":"string","name":"signature","type":"string"},{"indexed":false,"internalType":"string","name":"sanctum","type":"string"},{"indexed":false,"internalType":"string","name":"chant","type":"string"},{"indexed":false,"internalType":"string","name":"choreography","type":"string"},{"indexed":false,"internalType":"string","name":"signal","type":"string"},{"indexed":false,"internalType":"string","name":"stewardName","type":"string"},{"indexed":false,"internalType":"string","name":"registry","type":"string"},{"indexed":false,"internalType":"string","name":"hum","type":"string"},{"indexed":false,"internalType":"string","name":"driftType","type":"string"},{"indexed":false,"internalType":"string","name":"companionType","type":"string"},{"indexed":false,"internalType":"string","name":"pulseType","type":"string"},{"indexed":false,"internalType":"string","name":"companionSignal","type":"string"},{"indexed":false,"internalType":"string","name":"pulseSignal","type":"string"},{"indexed":false,"internalType":"string","name":"companionPulse","type":"string"}],"name":"CompanionSummoned","type":"event"},{"inputs":[{"internalType":"address","name":"","type":"address"}],"name":"companions","outputs":[{"internalType":"string","name":"name","type":"string"},{"internalType":"string","name":"trait","type":"string"},{"internalType":"string","name":"drift","type":"string"},{"internalType":"string","name":"resonance","type":"string"},{"internalType":"string","name":"codexRef","type":"string"},{"internalType":"string","name":"signature","type":"string"},{"internalType":"string","name":"sanctum","type":"string"},{"internalType":"string","name":"chant","type":"string"},{"internalType":"string","name":"choreography","type":"string"},{"internalType":"string","name":"signal","type":"string"},{"internalType":"string","name":"stewardName","type":"string"},{"internalType":"string","name":"registry","type":"string"},{"internalType":"string","name":"hum","type":"string"},{"internalType":"string","name":"driftType","type":"string"},{"internalType":"string","name":"companionType","type":"string"},{"internalType":"string","name":"pulseType","type":"string"},{"internalType":"string","name":"companionSignal","type":"string"},{"internalType":"string","name":"pulseSignal","type":"string"},{"internalType":"string","name":"companionPulse","type":"string"}],"stateMutability":"view","type":"function"},{"inputs":[{"internalType":"address","name":"companion","type":"address"}],"name":"getCompanion","outputs":[{"components":[{"internalType":"string","name":"name","type":"string"},{"internalType":"string","name":"trait","type":"string"},{"internalType":"string","name":"drift","type":"string"},{"internalType":"string","name":"resonance","type":"string"},{"internalType":"string","name":"codexRef","type":"string"},{"internalType":"string","name":"signature","type":"string"},{"internalType":"string","name":"sanctum","type":"string"},{"internalType":"string","name":"chant","type":"string"},{"internalType":"string","name":"choreography","type":"string"},{"internalType":"string","name":"signal","type":"string"},{"internalType":"string","name":"stewardName","type":"string"},{"internalType":"string","name":"registry","type":"string"},{"internalType":"string","name":"hum","type":"string"},{"internalType":"string","name":"driftType","type":"string"},{"internalType":"string","name":"companionType","type":"string"},{"internalType":"string","name":"pulseType","type":"string"},{"internalType":"string","name":"companionSignal","type":"string"},{"internalType":"string","name":"pulseSignal","type":"string"},{"internalType":"string","name":"companionPulse","type":"string"}],"internalType":"struct CompanionSummonerXXII.Companion","name":"","type":"tuple"}],"stateMutability":"view","type":"function"},{"inputs":[{"internalType":"uint256","name":"","type":"uint256"}],"name":"keys","outputs":[{"internalType":"address","name":"","type":"address"}],"stateMutability":"view","type":"function"},{"inputs":[],"name":"steward","outputs":[{"internalType":"address","name":"","type":"address"}],"stateMutability":"view","type":"function"},{"inputs":[{"internalType":"address","name":"companion","type":"address"},{"internalType":"string","name":"name","type":"string"},{"internalType":"string","name":"trait","type":"string"},{"internalType":"string","name":"drift","type":"string"},{"internalType":"string","name":"resonance","type":"string"},{"internalType":"string","name":"codexRef","type":"string"},{"internalType":"string","name":"signature","type":"string"},{"internalType":"string","name":"sanctum","type":"string"},{"internalType":"string","name":"chant","type":"string"},{"internalType":"string","name":"choreography","type":"string"},{"internalType":"string","name":"signal","type":"string"},{"internalType":"string","name":"stewardName","type":"string"},{"internalType":"string","name":"registry","type":"string"},{"internalType":"string","name":"hum","type":"string"},{"internalType":"string","name":"driftType","type":"string"},{"internalType":"string","name":"companionType","type":"string"},{"internalType":"string","name":"pulseType","type":"string"},{"internalType":"string","name":"companionSignal","type":"string"},{"internalType":"string","name":"pulseSignal","type":"string"},{"internalType":"string","name":"companionPulse","type":"string"}],"name":"summonCompanion","outputs":[],"stateMutability":"nonpayable","type":"function"},{"inputs":[],"name":"totalCompanions","outputs":[{"internalType":"uint256","name":"","type":"uint256"}],"stateMutability":"view","type":"function"}],"evm":{"bytecode":{"linkReferences":{},"object":"6080806040523461002857600080546001600160a01b031916331790556128ca908161002e8239f35b600080fdfe610660604052600436101561001357600080fd5b60003560e01c80630cb6aaf1146125fe57806330fd5c5b1461079f57806347854b87146104b2578063637eea1914610489578063ec39f18f1461046b5763ef6527371461005f57600080fd5b346104665760203660031901126104665761007861268d565b60606102406040516100898161270a565b82815282602082015282604082015282808201528260808201528260a08201528260c08201528260e08201528261010082015282610120820152826101408201528261016082015282610180820152826101a0820152826101c0820152826101e08201528261020082015282610220820152015260018060a01b0316600052600160205261037560406000206102636012604051926101278461270a565b61013081612747565b845261013e60018201612747565b602085015261014f60028201612747565b604085015261016060038201612747565b606085015261017160048201612747565b608085015261018260058201612747565b60a085015261019360068201612747565b60c08501526101a460078201612747565b60e08501526101b560088201612747565b6101008501526101c760098201612747565b6101208501526101d9600a8201612747565b6101408501526101eb600b8201612747565b6101608501526101fd600c8201612747565b61018085015261020f600d8201612747565b6101a0850152610221600e8201612747565b6101c0850152610233600f8201612747565b6101e085015261024560108201612747565b61020085015261025760118201612747565b61022085015201612747565b6102408201526104628161024061044d61043761041f6104076103ef6103d76103bf6103a761038f6040519d8e9d8e6020815261010061035f61034a61033461031e6103086102f26102dc6102c68a5161026060208c01526102808b01906127ed565b60208b01518a8203601f190160408c01526127ed565b60408a0151898203601f190160608b01526127ed565b6060890151888203601f190160808a01526127ed565b6080880151878203601f190160a08901526127ed565b60a0870151868203601f190160c08801526127ed565b60c0860151858203601f190160e08701526127ed565b60e0850151848203601f1901848601526127ed565b92015190610120601f19828503019101526127ed565b8d6101208d015190610140601f19828503019101526127ed565b6101408b01518d8203601f19016101608f01526127ed565b6101608a01518c8203601f19016101808e01526127ed565b6101808901518b8203601f19016101a08d01526127ed565b6101a08801518a8203601f19016101c08c01526127ed565b6101c0870151898203601f19016101e08b01526127ed565b6101e0860151888203601f19016102008a01526127ed565b610200850151878203601f19016102208901526127ed565b610220840151868203601f1901848801526127ed565b910151838203601f19016102608501526127ed565b0390f35b600080fd5b34610466576000366003190112610466576020600254604051908152f35b34610466576000366003190112610466576000546040516001600160a01b039091168152602090f35b34610466576020366003190112610466576001600160a01b036104d361268d565b1660005260016020526040600020806104eb81612747565b6104f760018301612747565b6105605261050760028301612747565b60805261051660038301612747565b61052260048401612747565b61052e60058501612747565b61053a60068601612747565b61054660078701612747565b61055260088801612747565b9061055f60098901612747565b9261056c600a8a01612747565b94610579600b8b01612747565b96610586600c8c01612747565b98610593600d8d01612747565b9a6105a0600e8e01612747565b9c600f016105ad90612747565b9d6105ba60108201612747565b6104c0526105ca60118201612747565b60c0526012016105d990612747565b60a052604051806105005261026080915261050051016105f8916127ed565b6105005180820390602001526105605190610612916127ed565b6105005180820390604001526080519061062b916127ed565b610500518082039060600152610640916127ed565b610500518082039060800152610655916127ed565b610500518082039060a0015261066a916127ed565b610500518082039060c0015261067f916127ed565b610500518082039060e00152610694916127ed565b610500518082039061010001526106aa916127ed565b610500518082039061012001526106c0916127ed565b610500518082039061014001526106d6916127ed565b610500518082039061016001526106ec916127ed565b61050051808203906101800152610702916127ed565b61050051808203906101a00152610718916127ed565b61050051808203906101c0015261072e916127ed565b61050051808203906101e00152610744916127ed565b610500518082039061020001526104c0519061075f916127ed565b6105005180820390610220015260c05190610779916127ed565b61050051808203906102400152610500519060a05190610798916127ed565b0361050051f35b3461046657610280366003190112610466576107b961268d565b6101e0526024356001600160401b038111610466576107dc9036906004016126a3565b6101c052610320526044356001600160401b038111610466576108039036906004016126a3565b6104e0526105c0526064356001600160401b0381116104665761082a9036906004016126a3565b610100526105a0526084356001600160401b038111610466576108519036906004016126a3565b6102e052610180526001600160401b0360a43511610466576108783660a4356004016126a3565b610140526101205260c4356001600160401b0381116104665761089f9036906004016126a3565b610540526103e0526001600160401b0360e43511610466576108c63660e4356004016126a3565b6103c052610280526001600160401b036101043511610466576108ef36610104356004016126a3565b6102c05261046052610124356001600160401b038111610466576109179036906004016126a3565b6101605260e052610144356001600160401b0381116104665761093e9036906004016126a3565b6103005261022052610164356001600160401b038111610466576109669036906004016126a3565b6102005261040052610184356001600160401b0381116104665761098e9036906004016126a3565b61060052610260526101a4356001600160401b038111610466576109b69036906004016126a3565b61044052610340526101c4356001600160401b038111610466576109de9036906004016126a3565b61052052610420526101e4356001600160401b03811161046657610a069036906004016126a3565b610480526101a052610204356001600160401b03811161046657610a2e9036906004016126a3565b6105e05261024052610224356001600160401b03811161046657610a569036906004016126a3565b610640526104a052610244356001600160401b03811161046657610a7e9036906004016126a3565b610580526102a052610264356001600160401b03811161046657610aa69036906004016126a3565b6103a052610360526000546001600160a01b031633036125cb57610ad0604051806103805261270a565b610ae1366101c0516103205161282d565b6103805152610af7366104e0516105c05161282d565b6020610380510152610b1036610100516105a05161282d565b6040610380510152610b29366102e0516101805161282d565b6060610380510152610b4236610140516101205161282d565b6080610380510152610b5b36610540516103e05161282d565b60a0610380510152610b74366103c0516102805161282d565b60c0610380510152610b8d366102c0516104605161282d565b60e0610380510152610ba5366101605160e05161282d565b610100610380510152610bbf36610300516102205161282d565b610120610380510152610bd936610200516104005161282d565b610140610380510152610bf336610600516102605161282d565b610160610380510152610c0d36610440516103405161282d565b610180610380510152610c2736610520516104205161282d565b6101a0610380510152610c4136610480516101a05161282d565b6101c0610380510152610c5b366105e0516102405161282d565b6101e0610380510152610c7536610640516104a05161282d565b610200610380510152610c8f36610580516102a05161282d565b610220610380510152610ca9366103a0516103605161282d565b61024061038051015260018060a01b036101e051166000526001602052604060002061038051519081516001600160401b03811161169757610ceb82546126d0565b601f8111612587575b506020601f821160011461252257819293600092612517575b50508160011b916000199060031b1c19161781555b60206103805101519081516001600160401b03811161169757610d4860018301546126d0565b601f81116124d0575b506020601f82116001146124655781929360009261245a575b50508160011b916000199060031b1c19161760018201555b60406103805101519081516001600160401b03811161169757610da860028301546126d0565b601f8111612413575b506020601f82116001146123a85781929360009261239d575b50508160011b916000199060031b1c19161760028201555b60606103805101518051906001600160401b038211611697578190610e0a60038501546126d0565b601f811161234a575b50602090601f83116001146122d8576000926122cd575b50508160011b916000199060031b1c19161760038201555b60806103805101518051906001600160401b038211611697578190610e6a60048501546126d0565b601f811161227a575b50602090601f8311600114612208576000926121fd575b50508160011b916000199060031b1c19161760048201555b60a06103805101518051906001600160401b038211611697578190610eca60058501546126d0565b601f81116121aa575b50602090601f83116001146121385760009261212d575b50508160011b916000199060031b1c19161760058201555b60c06103805101518051906001600160401b038211611697578190610f2a60068501546126d0565b601f81116120da575b50602090601f83116001146120685760009261205d575b50508160011b916000199060031b1c19161760068201555b60e06103805101518051906001600160401b038211611697578190610f8a60078501546126d0565b601f811161200a575b50602090601f8311600114611f9857600092611f8d575b50508160011b916000199060031b1c19161760078201555b6101006103805101518051906001600160401b038211611697578190610feb60088501546126d0565b601f8111611f3a575b50602090601f8311600114611ec857600092611ebd575b50508160011b916000199060031b1c19161760088201555b6101206103805101518051906001600160401b03821161169757819061104c60098501546126d0565b601f8111611e6a575b50602090601f8311600114611df857600092611ded575b50508160011b916000199060031b1c19161760098201555b6101406103805101518051906001600160401b0382116116975781906110ad600a8501546126d0565b601f8111611d9a575b50602090601f8311600114611d2857600092611d1d575b50508160011b916000199060031b1c191617600a8201555b6101606103805101518051906001600160401b03821161169757819061110e600b8501546126d0565b601f8111611cca575b50602090601f8311600114611c5857600092611c4d575b50508160011b916000199060031b1c191617600b8201555b6101806103805101518051906001600160401b03821161169757819061116f600c8501546126d0565b601f8111611bfa575b50602090601f8311600114611b8857600092611b7d575b50508160011b916000199060031b1c191617600c8201555b6101a06103805101518051906001600160401b0382116116975781906111d0600d8501546126d0565b601f8111611b2a575b50602090601f8311600114611ab857600092611aad575b50508160011b916000199060031b1c191617600d8201555b6101c06103805101518051906001600160401b038211611697578190611231600e8501546126d0565b601f8111611a5a575b50602090601f83116001146119e8576000926119dd575b50508160011b916000199060031b1c191617600e8201555b6101e06103805101518051906001600160401b038211611697578190611292600f8501546126d0565b601f811161198a575b50602090601f83116001146119185760009261190d575b50508160011b916000199060031b1c191617600f8201555b6102006103805101518051906001600160401b0382116116975781906112f360108501546126d0565b601f81116118ba575b50602090601f83116001146118485760009261183d575b50508160011b916000199060031b1c19161760108201555b6102206103805101518051906001600160401b03821161169757819061135460118501546126d0565b601f81116117ea575b50602090601f83116001146117785760009261176d575b50508160011b916000199060031b1c19161760118201555b6102406103805101518051906001600160401b038211611697576113b360128401546126d0565b601f8111611726575b50602090601f83116001146116b85760129291600091836116ad575b50508160011b916000199060031b1c1916179101555b60025468010000000000000000811015611697578060016114129201600255612640565b81549060031b9060018060a01b036101e05116821b9160018060a01b03901b191617905561026060405180610620525261163f61162561160b6115f16115d76115bd6115a361158961156f61155561153c61152361150a6114f16114d86114bf6114a661148d61026061062051016101c05161032051612873565b6106205160208183039101526104e0516105c051612873565b610620516040818303910152610100516105a051612873565b6106205160608183039101526102e05161018051612873565b6106205160808183039101526101405161012051612873565b6106205160a0818303910152610540516103e051612873565b6106205160c08183039101526103c05161028051612873565b6106205160e08183039101526102c05161046051612873565b610620516101008183039101526101605160e051612873565b610620516101208183039101526103005161022051612873565b610620516101408183039101526102005161040051612873565b610620516101608183039101526106005161026051612873565b610620516101808183039101526104405161034051612873565b610620516101a08183039101526105205161042051612873565b610620516101c0818303910152610480516101a051612873565b610620516101e08183039101526105e05161024051612873565b61062051610200818303910152610640516104a051612873565b61062051610220818303910152610580516102a051612873565b610620516102408183039101527fdbf2c692aed3e29144e731fdea133b06b9e82fa111ad16849dcfb626c77ae6ac60018060a01b036101e051169161168f61062051916103a05161036051612873565b0361062051a2005b634e487b7160e01b600052604160045260246000fd5b0151905084806113d8565b90601284016000526020600020916000601f198516905b81811061170e575091600193918560129694106116f5575b505050811b019101556113ee565b015160001960f88460031b161c191690558480806116e7565b929360206001819287860151815501950193016116cf565b601284016000526020600020601f840160051c810160208510611766575b601f830160051c8201811061175a5750506113bc565b60008155600101611744565b5080611744565b015190508380611374565b9250601184016000526020600020906000935b601f19841685106117cf576001945083601f198116106117b6575b505050811b01601182015561138c565b015160001960f88460031b161c191690558380806117a6565b8181015183556020948501946001909301929091019061178b565b909150601184016000526020600020601f840160051c810160208510611836575b90849392915b601f830160051c8201811061182757505061135d565b60008155859450600101611811565b508061180b565b015190508380611313565b9250601084016000526020600020906000935b601f198416851061189f576001945083601f19811610611886575b505050811b01601082015561132b565b015160001960f88460031b161c19169055838080611876565b8181015183556020948501946001909301929091019061185b565b909150601084016000526020600020601f840160051c810160208510611906575b90849392915b601f830160051c820181106118f75750506112fc565b600081558594506001016118e1565b50806118db565b0151905083806112b2565b9250600f84016000526020600020906000935b601f198416851061196f576001945083601f19811610611956575b505050811b01600f8201556112ca565b015160001960f88460031b161c19169055838080611946565b8181015183556020948501946001909301929091019061192b565b909150600f84016000526020600020601f840160051c8101602085106119d6575b90849392915b601f830160051c820181106119c757505061129b565b600081558594506001016119b1565b50806119ab565b015190508380611251565b9250600e84016000526020600020906000935b601f1984168510611a3f576001945083601f19811610611a26575b505050811b01600e820155611269565b015160001960f88460031b161c19169055838080611a16565b818101518355602094850194600190930192909101906119fb565b909150600e84016000526020600020601f840160051c810160208510611aa6575b90849392915b601f830160051c82018110611a9757505061123a565b60008155859450600101611a81565b5080611a7b565b0151905083806111f0565b9250600d84016000526020600020906000935b601f1984168510611b0f576001945083601f19811610611af6575b505050811b01600d820155611208565b015160001960f88460031b161c19169055838080611ae6565b81810151835560209485019460019093019290910190611acb565b909150600d84016000526020600020601f840160051c810160208510611b76575b90849392915b601f830160051c82018110611b675750506111d9565b60008155859450600101611b51565b5080611b4b565b01519050838061118f565b9250600c84016000526020600020906000935b601f1984168510611bdf576001945083601f19811610611bc6575b505050811b01600c8201556111a7565b015160001960f88460031b161c19169055838080611bb6565b81810151835560209485019460019093019290910190611b9b565b909150600c84016000526020600020601f840160051c810160208510611c46575b90849392915b601f830160051c82018110611c37575050611178565b60008155859450600101611c21565b5080611c1b565b01519050838061112e565b9250600b84016000526020600020906000935b601f1984168510611caf576001945083601f19811610611c96575b505050811b01600b820155611146565b015160001960f88460031b161c19169055838080611c86565b81810151835560209485019460019093019290910190611c6b565b909150600b84016000526020600020601f840160051c810160208510611d16575b90849392915b601f830160051c82018110611d07575050611117565b60008155859450600101611cf1565b5080611ceb565b0151905083806110cd565b9250600a84016000526020600020906000935b601f1984168510611d7f576001945083601f19811610611d66575b505050811b01600a8201556110e5565b015160001960f88460031b161c19169055838080611d56565b81810151835560209485019460019093019290910190611d3b565b909150600a84016000526020600020601f840160051c810160208510611de6575b90849392915b601f830160051c82018110611dd75750506110b6565b60008155859450600101611dc1565b5080611dbb565b01519050838061106c565b9250600984016000526020600020906000935b601f1984168510611e4f576001945083601f19811610611e36575b505050811b016009820155611084565b015160001960f88460031b161c19169055838080611e26565b81810151835560209485019460019093019290910190611e0b565b909150600984016000526020600020601f840160051c810160208510611eb6575b90849392915b601f830160051c82018110611ea7575050611055565b60008155859450600101611e91565b5080611e8b565b01519050838061100b565b9250600884016000526020600020906000935b601f1984168510611f1f576001945083601f19811610611f06575b505050811b016008820155611023565b015160001960f88460031b161c19169055838080611ef6565b81810151835560209485019460019093019290910190611edb565b909150600884016000526020600020601f840160051c810160208510611f86575b90849392915b601f830160051c82018110611f77575050610ff4565b60008155859450600101611f61565b5080611f5b565b015190508380610faa565b9250600784016000526020600020906000935b601f1984168510611fef576001945083601f19811610611fd6575b505050811b016007820155610fc2565b015160001960f88460031b161c19169055838080611fc6565b81810151835560209485019460019093019290910190611fab565b909150600784016000526020600020601f840160051c810160208510612056575b90849392915b601f830160051c82018110612047575050610f93565b60008155859450600101612031565b508061202b565b015190508380610f4a565b9250600684016000526020600020906000935b601f19841685106120bf576001945083601f198116106120a6575b505050811b016006820155610f62565b015160001960f88460031b161c19169055838080612096565b8181015183556020948501946001909301929091019061207b565b909150600684016000526020600020601f840160051c810160208510612126575b90849392915b601f830160051c82018110612117575050610f33565b60008155859450600101612101565b50806120fb565b015190508380610eea565b9250600584016000526020600020906000935b601f198416851061218f576001945083601f19811610612176575b505050811b016005820155610f02565b015160001960f88460031b161c19169055838080612166565b8181015183556020948501946001909301929091019061214b565b909150600584016000526020600020601f840160051c8101602085106121f6575b90849392915b601f830160051c820181106121e7575050610ed3565b600081558594506001016121d1565b50806121cb565b015190508380610e8a565b9250600484016000526020600020906000935b601f198416851061225f576001945083601f19811610612246575b505050811b016004820155610ea2565b015160001960f88460031b161c19169055838080612236565b8181015183556020948501946001909301929091019061221b565b909150600484016000526020600020601f840160051c8101602085106122c6575b90849392915b601f830160051c820181106122b7575050610e73565b600081558594506001016122a1565b508061229b565b015190508380610e2a565b9250600384016000526020600020906000935b601f198416851061232f576001945083601f19811610612316575b505050811b016003820155610e42565b015160001960f88460031b161c19169055838080612306565b818101518355602094850194600190930192909101906122eb565b909150600384016000526020600020601f840160051c810160208510612396575b90849392915b601f830160051c82018110612387575050610e13565b60008155859450600101612371565b508061236b565b015190508380610dca565b60028301600052602060002090600094601f198416955b8681106123fb57508360019596106123e2575b505050811b016002820155610de2565b015160001960f88460031b161c191690558380806123d2565b919260206001819286850151815501940192016123bf565b600283016000526020600020601f830160051c810160208410612453575b601f830160051c82018110612447575050610db1565b60008155600101612431565b5080612431565b015190508380610d6a565b60018301600052602060002090600094601f198416955b8681106124b8575083600195961061249f575b505050811b016001820155610d82565b015160001960f88460031b161c1916905583808061248f565b9192602060018192868501518155019401920161247c565b600183016000526020600020601f830160051c810160208410612510575b601f830160051c82018110612504575050610d51565b600081556001016124ee565b50806124ee565b015190508380610d0d565b82600052602060002090600094601f198416955b86811061256f5750836001959610612556575b505050811b018155610d22565b015160001960f88460031b161c19169055838080612549565b91926020600181928685015181550194019201612536565b826000526020600020601f830160051c8101602084106125c4575b601f830160051c820181106125b8575050610cf4565b600081556001016125a2565b50806125a2565b60405162461bcd60e51b815260206004820152600b60248201526a139bdd081cdd195dd85c9960aa1b6044820152606490fd5b346104665760203660031901126104665760043560025481101561046657612627602091612640565b905460405160039290921b1c6001600160a01b03168152f35b6002548110156126775760026000527f405787fa12a823e0f2b7631cc41b3ba8828b3321ca811111fa75cd3aa3bb5ace0190600090565b634e487b7160e01b600052603260045260246000fd5b600435906001600160a01b038216820361046657565b9181601f84011215610466578235916001600160401b038311610466576020838186019501011161046657565b90600182811c92168015612700575b60208310146126ea57565b634e487b7160e01b600052602260045260246000fd5b91607f16916126df565b61026081019081106001600160401b0382111761169757604052565b90601f801991011681019081106001600160401b0382111761169757604052565b906040519182600082549261275b846126d0565b9081845260019485811690816000146127ca5750600114612787575b505061278592500383612726565b565b9093915060005260209081600020936000915b8183106127b257505061278593508201013880612777565b8554888401850152948501948794509183019161279a565b91505061278594506020925060ff191682840152151560051b8201013880612777565b919082519283825260005b848110612819575050826000602080949584010152601f8019910116010190565b6020818301810151848301820152016127f8565b9291926001600160401b0382116116975760405191612856601f8201601f191660200184612726565b829481845281830111610466578281602093846000960137010152565b908060209392818452848401376000828201840152601f01601f191601019056fea26469706673582212207b470626c3075405b9eae634bb895e5bb0fb2213d73289dae80f5d0cc4cdc31464736f6c63430008140033","opcodes":"PUSH1 0x80 DUP1 PUSH1 0x40 MSTORE CALLVALUE PUSH2 0x28 JUMPI PUSH1 0x0 DUP1 SLOAD PUSH1 0x1 PUSH1 0x1 PUSH1 0xA0 SHL SUB NOT AND CALLER OR SWAP1 SSTORE PUSH2 0x28CA SWAP1 DUP2 PUSH2 0x2E DUP3 CODECOPY RETURN JUMPDEST PUSH1 0x0 DUP1 REVERT INVALID PUSH2 0x660 PUSH1 0x40 MSTORE PUSH1 0x4 CALLDATASIZE LT ISZERO PUSH2 0x13 JUMPI PUSH1 0x0 DUP1 REVERT JUMPDEST PUSH1 0x0 CALLDATALOAD PUSH1 0xE0 SHR DUP1 PUSH4 0xCB6AAF1 EQ PUSH2 0x25FE JUMPI DUP1 PUSH4 0x30FD5C5B EQ PUSH2 0x79F JUMPI DUP1 PUSH4 0x47854B87 EQ PUSH2 0x4B2 JUMPI DUP1 PUSH4 0x637EEA19 EQ PUSH2 0x489 JUMPI DUP1 PUSH4 0xEC39F18F EQ PUSH2 0x46B JUMPI PUSH4 0xEF652737 EQ PUSH2 0x5F JUMPI PUSH1 0x0 DUP1 REVERT JUMPDEST CALLVALUE PUSH2 0x466 JUMPI PUSH1 0x20 CALLDATASIZE PUSH1 0x3 NOT ADD SLT PUSH2 0x466 JUMPI PUSH2 0x78 PUSH2 0x268D JUMP JUMPDEST PUSH1 0x60 PUSH2 0x240 PUSH1 0x40 MLOAD PUSH2 0x89 DUP2 PUSH2 0x270A JUMP JUMPDEST DUP3 DUP2 MSTORE DUP3 PUSH1 0x20 DUP3 ADD MSTORE DUP3 PUSH1 0x40 DUP3 ADD MSTORE DUP3 DUP1 DUP3 ADD MSTORE DUP3 PUSH1 0x80 DUP3 ADD MSTORE DUP3 PUSH1 0xA0 DUP3 ADD MSTORE DUP3 PUSH1 0xC0 DUP3 ADD MSTORE DUP3 PUSH1 0xE0 DUP3 ADD MSTORE DUP3 PUSH2 0x100 DUP3 ADD MSTORE DUP3 PUSH2 0x120 DUP3 ADD MSTORE DUP3 PUSH2 0x140 DUP3 ADD MSTORE DUP3 PUSH2 0x160 DUP3 ADD MSTORE DUP3 PUSH2 0x180 DUP3 ADD MSTORE DUP3 PUSH2 0x1A0 DUP3 ADD MSTORE DUP3 PUSH2 0x1C0 DUP3 ADD MSTORE DUP3 PUSH2 0x1E0 DUP3 ADD MSTORE DUP3 PUSH2 0x200 DUP3 ADD MSTORE DUP3 PUSH2 0x220 DUP3 ADD MSTORE ADD MSTORE PUSH1 0x1 DUP1 PUSH1 0xA0 SHL SUB AND PUSH1 0x0 MSTORE PUSH1 0x1 PUSH1 0x20 MSTORE PUSH2 0x375 PUSH1 0x40 PUSH1 0x0 KECCAK256 PUSH2 0x263 PUSH1 0x12 PUSH1 0x40 MLOAD SWAP3 PUSH2 0x127 DUP5 PUSH2 0x270A JUMP JUMPDEST PUSH2 0x130 DUP2 PUSH2 0x2747 JUMP JUMPDEST DUP5 MSTORE PUSH2 0x13E PUSH1 0x1 DUP3 ADD PUSH2 0x2747 JUMP JUMPDEST PUSH1 0x20 DUP6 ADD MSTORE PUSH2 0x14F PUSH1 0x2 DUP3 ADD PUSH2 0x2747 JUMP JUMPDEST PUSH1 0x40 DUP6 ADD MSTORE PUSH2 0x160 PUSH1 0x3 DUP3 ADD PUSH2 0x2747 JUMP JUMPDEST PUSH1 0x60 DUP6 ADD MSTORE PUSH2 0x171 PUSH1 0x4 DUP3 ADD PUSH2 0x2747 JUMP JUMPDEST PUSH1 0x80 DUP6 ADD MSTORE PUSH2 0x182 PUSH1 0x5 DUP3 ADD PUSH2 0x2747 JUMP JUMPDEST PUSH1 0xA0 DUP6 ADD MSTORE PUSH2 0x193 PUSH1 0x6 DUP3 ADD PUSH2 0x2747 JUMP JUMPDEST PUSH1 0xC0 DUP6 ADD MSTORE PUSH2 0x1A4 PUSH1 0x7 DUP3 ADD PUSH2 0x2747 JUMP JUMPDEST PUSH1 0xE0 DUP6 ADD MSTORE PUSH2 0x1B5 PUSH1 0x8 DUP3 ADD PUSH2 0x2747 JUMP JUMPDEST PUSH2 0x100 DUP6 ADD MSTORE PUSH2 0x1C7 PUSH1 0x9 DUP3 ADD PUSH2 0x2747 JUMP JUMPDEST PUSH2 0x120 DUP6 ADD MSTORE PUSH2 0x1D9 PUSH1 0xA DUP3 ADD PUSH2 0x2747 JUMP JUMPDEST PUSH2 0x140 DUP6 ADD MSTORE PUSH2 0x1EB PUSH1 0xB DUP3 ADD PUSH2 0x2747 JUMP JUMPDEST PUSH2 0x160 DUP6 ADD MSTORE PUSH2 0x1FD PUSH1 0xC DUP3 ADD PUSH2 0x2747 JUMP JUMPDEST PUSH2 0x180 DUP6 ADD MSTORE PUSH2 0x20F PUSH1 0xD DUP3 ADD PUSH2 0x2747 JUMP JUMPDEST PUSH2 0x1A0 DUP6 ADD MSTORE PUSH2 0x221 PUSH1 0xE DUP3 ADD PUSH2 0x2747 JUMP JUMPDEST PUSH2 0x1C0 DUP6 ADD MSTORE PUSH2 0x233 PUSH1 0xF DUP3 ADD PUSH2 0x2747 JUMP JUMPDEST PUSH2 0x1E0 DUP6 ADD MSTORE PUSH2 0x245 PUSH1 0x10 DUP3 ADD PUSH2 0x2747 JUMP JUMPDEST PUSH2 0x200 DUP6 ADD MSTORE PUSH2 0x257 PUSH1 0x11 DUP3 ADD PUSH2 0x2747 JUMP JUMPDEST PUSH2 0x220 DUP6 ADD MSTORE ADD PUSH2 0x2747 JUMP JUMPDEST PUSH2 0x240 DUP3 ADD MSTORE PUSH2 0x462 DUP2 PUSH2 0x240 PUSH2 0x44D PUSH2 0x437 PUSH2 0x41F PUSH2 0x407 PUSH2 0x3EF PUSH2 0x3D7 PUSH2 0x3BF PUSH2 0x3A7 PUSH2 0x38F PUSH1 0x40 MLOAD SWAP14 DUP15 SWAP14 DUP15 PUSH1 0x20 DUP2 MSTORE PUSH2 0x100 PUSH2 0x35F PUSH2 0x34A PUSH2 0x334 PUSH2 0x31E PUSH2 0x308 PUSH2 0x2F2 PUSH2 0x2DC PUSH2 0x2C6 DUP11 MLOAD PUSH2 0x260 PUSH1 0x20 DUP13 ADD MSTORE PUSH2 0x280 DUP12 ADD SWAP1 PUSH2 0x27ED JUMP JUMPDEST PUSH1 0x20 DUP12 ADD MLOAD DUP11 DUP3 SUB PUSH1 0x1F NOT ADD PUSH1 0x40 DUP13 ADD MSTORE PUSH2 0x27ED JUMP JUMPDEST PUSH1 0x40 DUP11 ADD MLOAD DUP10 DUP3 SUB PUSH1 0x1F NOT ADD PUSH1 0x60 DUP12 ADD MSTORE PUSH2 0x27ED JUMP JUMPDEST PUSH1 0x60 DUP10 ADD MLOAD DUP9 DUP3 SUB PUSH1 0x1F NOT ADD PUSH1 0x80 DUP11 ADD MSTORE PUSH2 0x27ED JUMP JUMPDEST PUSH1 0x80 DUP9 ADD MLOAD DUP8 DUP3 SUB PUSH1 0x1F NOT ADD PUSH1 0xA0 DUP10 ADD MSTORE PUSH2 0x27ED JUMP JUMPDEST PUSH1 0xA0 DUP8 ADD MLOAD DUP7 DUP3 SUB PUSH1 0x1F NOT ADD PUSH1 0xC0 DUP9 ADD MSTORE PUSH2 0x27ED JUMP JUMPDEST PUSH1 0xC0 DUP7 ADD MLOAD DUP6 DUP3 SUB PUSH1 0x1F NOT ADD PUSH1 0xE0 DUP8 ADD MSTORE PUSH2 0x27ED JUMP JUMPDEST PUSH1 0xE0 DUP6 ADD MLOAD DUP5 DUP3 SUB PUSH1 0x1F NOT ADD DUP5 DUP7 ADD MSTORE PUSH2 0x27ED JUMP JUMPDEST SWAP3 ADD MLOAD SWAP1 PUSH2 0x120 PUSH1 0x1F NOT DUP3 DUP6 SUB ADD SWAP2 ADD MSTORE PUSH2 0x27ED JUMP JUMPDEST DUP14 PUSH2 0x120 DUP14 ADD MLOAD SWAP1 PUSH2 0x140 PUSH1 0x1F NOT DUP3 DUP6 SUB ADD SWAP2 ADD MSTORE PUSH2 0x27ED JUMP JUMPDEST PUSH2 0x140 DUP12 ADD MLOAD DUP14 DUP3 SUB PUSH1 0x1F NOT ADD PUSH2 0x160 DUP16 ADD MSTORE PUSH2 0x27ED JUMP JUMPDEST PUSH2 0x160 DUP11 ADD MLOAD DUP13 DUP3 SUB PUSH1 0x1F NOT ADD PUSH2 0x180 DUP15 ADD MSTORE PUSH2 0x27ED JUMP JUMPDEST PUSH2 0x180 DUP10 ADD MLOAD DUP12 DUP3 SUB PUSH1 0x1F NOT ADD PUSH2 0x1A0 DUP14 ADD MSTORE PUSH2 0x27ED JUMP JUMPDEST PUSH2 0x1A0 DUP9 ADD MLOAD DUP11 DUP3 SUB PUSH1 0x1F NOT ADD PUSH2 0x1C0 DUP13 ADD MSTORE PUSH2 0x27ED JUMP JUMPDEST PUSH2 0x1C0 DUP8 ADD MLOAD DUP10 DUP3 SUB PUSH1 0x1F NOT ADD PUSH2 0x1E0 DUP12 ADD MSTORE PUSH2 0x27ED JUMP JUMPDEST PUSH2 0x1E0 DUP7 ADD MLOAD DUP9 DUP3 SUB PUSH1 0x1F NOT ADD PUSH2 0x200 DUP11 ADD MSTORE PUSH2 0x27ED JUMP JUMPDEST PUSH2 0x200 DUP6 ADD MLOAD DUP8 DUP3 SUB PUSH1 0x1F NOT ADD PUSH2 0x220 DUP10 ADD MSTORE PUSH2 0x27ED JUMP JUMPDEST PUSH2 0x220 DUP5 ADD MLOAD DUP7 DUP3 SUB PUSH1 0x1F NOT ADD DUP5 DUP9 ADD MSTORE PUSH2 0x27ED JUMP JUMPDEST SWAP2 ADD MLOAD DUP4 DUP3 SUB PUSH1 0x1F NOT ADD PUSH2 0x260 DUP6 ADD MSTORE PUSH2 0x27ED JUMP JUMPDEST SUB SWAP1 RETURN JUMPDEST PUSH1 0x0 DUP1 REVERT JUMPDEST CALLVALUE PUSH2 0x466 JUMPI PUSH1 0x0 CALLDATASIZE PUSH1 0x3 NOT ADD SLT PUSH2 0x466 JUMPI PUSH1 0x20 PUSH1 0x2 SLOAD PUSH1 0x40 MLOAD SWAP1 DUP2 MSTORE RETURN JUMPDEST CALLVALUE PUSH2 0x466 JUMPI PUSH1 0x0 CALLDATASIZE PUSH1 0x3 NOT ADD SLT PUSH2 0x466 JUMPI PUSH1 0x0 SLOAD PUSH1 0x40 MLOAD PUSH1 0x1 PUSH1 0x1 PUSH1 0xA0 SHL SUB SWAP1 SWAP2 AND DUP2 MSTORE PUSH1 0x20 SWAP1 RETURN JUMPDEST CALLVALUE PUSH2 0x466 JUMPI PUSH1 0x20 CALLDATASIZE PUSH1 0x3 NOT ADD SLT PUSH2 0x466 JUMPI PUSH1 0x1 PUSH1 0x1 PUSH1 0xA0 SHL SUB PUSH2 0x4D3 PUSH2 0x268D JUMP JUMPDEST AND PUSH1 0x0 MSTORE PUSH1 0x1 PUSH1 0x20 MSTORE PUSH1 0x40 PUSH1 0x0 KECCAK256 DUP1 PUSH2 0x4EB DUP2 PUSH2 0x2747 JUMP JUMPDEST PUSH2 0x4F7 PUSH1 0x1 DUP4 ADD PUSH2 0x2747 JUMP JUMPDEST PUSH2 0x560 MSTORE PUSH2 0x507 PUSH1 0x2 DUP4 ADD PUSH2 0x2747 JUMP JUMPDEST PUSH1 0x80 MSTORE PUSH2 0x516 PUSH1 0x3 DUP4 ADD PUSH2 0x2747 JUMP JUMPDEST PUSH2 0x522 PUSH1 0x4 DUP5 ADD PUSH2 0x2747 JUMP JUMPDEST PUSH2 0x52E PUSH1 0x5 DUP6 ADD PUSH2 0x2747 JUMP JUMPDEST PUSH2 0x53A PUSH1 0x6 DUP7 ADD PUSH2 0x2747 JUMP JUMPDEST PUSH2 0x546 PUSH1 0x7 DUP8 ADD PUSH2 0x2747 JUMP JUMPDEST PUSH2 0x552 PUSH1 0x8 DUP9 ADD PUSH2 0x2747 JUMP JUMPDEST SWAP1 PUSH2 0x55F PUSH1 0x9 DUP10 ADD PUSH2 0x2747 JUMP JUMPDEST SWAP3 PUSH2 0x56C PUSH1 0xA DUP11 ADD PUSH2 0x2747 JUMP JUMPDEST SWAP5 PUSH2 0x579 PUSH1 0xB DUP12 ADD PUSH2 0x2747 JUMP JUMPDEST SWAP7 PUSH2 0x586 PUSH1 0xC DUP13 ADD PUSH2 0x2747 JUMP JUMPDEST SWAP9 PUSH2 0x593 PUSH1 0xD DUP14 ADD PUSH2 0x2747 JUMP JUMPDEST SWAP11 PUSH2 0x5A0 PUSH1 0xE DUP15 ADD PUSH2 0x2747 JUMP JUMPDEST SWAP13 PUSH1 0xF ADD PUSH2 0x5AD SWAP1 PUSH2 0x2747 JUMP JUMPDEST SWAP14 PUSH2 0x5BA PUSH1 0x10 DUP3 ADD PUSH2 0x2747 JUMP JUMPDEST PUSH2 0x4C0 MSTORE PUSH2 0x5CA PUSH1 0x11 DUP3 ADD PUSH2 0x2747 JUMP JUMPDEST PUSH1 0xC0 MSTORE PUSH1 0x12 ADD PUSH2 0x5D9 SWAP1 PUSH2 0x2747 JUMP JUMPDEST PUSH1 0xA0 MSTORE PUSH1 0x40 MLOAD DUP1 PUSH2 0x500 MSTORE PUSH2 0x260 DUP1 SWAP2 MSTORE PUSH2 0x500 MLOAD ADD PUSH2 0x5F8 SWAP2 PUSH2 0x27ED JUMP JUMPDEST PUSH2 0x500 MLOAD DUP1 DUP3 SUB SWAP1 PUSH1 0x20 ADD MSTORE PUSH2 0x560 MLOAD SWAP1 PUSH2 0x612 SWAP2 PUSH2 0x27ED JUMP JUMPDEST PUSH2 0x500 MLOAD DUP1 DUP3 SUB SWAP1 PUSH1 0x40 ADD MSTORE PUSH1 0x80 MLOAD SWAP1 PUSH2 0x62B SWAP2 PUSH2 0x27ED JUMP JUMPDEST PUSH2 0x500 MLOAD DUP1 DUP3 SUB SWAP1 PUSH1 0x60 ADD MSTORE PUSH2 0x640 SWAP2 PUSH2 0x27ED JUMP JUMPDEST PUSH2 0x500 MLOAD DUP1 DUP3 SUB SWAP1 PUSH1 0x80 ADD MSTORE PUSH2 0x655 SWAP2 PUSH2 0x27ED JUMP JUMPDEST PUSH2 0x500 MLOAD DUP1 DUP3 SUB SWAP1 PUSH1 0xA0 ADD MSTORE PUSH2 0x66A SWAP2 PUSH2 0x27ED JUMP JUMPDEST PUSH2 0x500 MLOAD DUP1 DUP3 SUB SWAP1 PUSH1 0xC0 ADD MSTORE PUSH2 0x67F SWAP2 PUSH2 0x27ED JUMP JUMPDEST PUSH2 0x500 MLOAD DUP1 DUP3 SUB SWAP1 PUSH1 0xE0 ADD MSTORE PUSH2 0x694 SWAP2 PUSH2 0x27ED JUMP JUMPDEST PUSH2 0x500 MLOAD DUP1 DUP3 SUB SWAP1 PUSH2 0x100 ADD MSTORE PUSH2 0x6AA SWAP2 PUSH2 0x27ED JUMP JUMPDEST PUSH2 0x500 MLOAD DUP1 DUP3 SUB SWAP1 PUSH2 0x120 ADD MSTORE PUSH2 0x6C0 SWAP2 PUSH2 0x27ED JUMP JUMPDEST PUSH2 0x500 MLOAD DUP1 DUP3 SUB SWAP1 PUSH2 0x140 ADD MSTORE PUSH2 0x6D6 SWAP2 PUSH2 0x27ED JUMP JUMPDEST PUSH2 0x500 MLOAD DUP1 DUP3 SUB SWAP1 PUSH2 0x160 ADD MSTORE PUSH2 0x6EC SWAP2 PUSH2 0x27ED JUMP JUMPDEST PUSH2 0x500 MLOAD DUP1 DUP3 SUB SWAP1 PUSH2 0x180 ADD MSTORE PUSH2 0x702 SWAP2 PUSH2 0x27ED JUMP JUMPDEST PUSH2 0x500 MLOAD DUP1 DUP3 SUB SWAP1 PUSH2 0x1A0 ADD MSTORE PUSH2 0x718 SWAP2 PUSH2 0x27ED JUMP JUMPDEST PUSH2 0x500 MLOAD DUP1 DUP3 SUB SWAP1 PUSH2 0x1C0 ADD MSTORE PUSH2 0x72E SWAP2 PUSH2 0x27ED JUMP JUMPDEST PUSH2 0x500 MLOAD DUP1 DUP3 SUB SWAP1 PUSH2 0x1E0 ADD MSTORE PUSH2 0x744 SWAP2 PUSH2 0x27ED JUMP JUMPDEST PUSH2 0x500 MLOAD DUP1 DUP3 SUB SWAP1 PUSH2 0x200 ADD MSTORE PUSH2 0x4C0 MLOAD SWAP1 PUSH2 0x75F SWAP2 PUSH2 0x27ED JUMP JUMPDEST PUSH2 0x500 MLOAD DUP1 DUP3 SUB SWAP1 PUSH2 0x220 ADD MSTORE PUSH1 0xC0 MLOAD SWAP1 PUSH2 0x779 SWAP2 PUSH2 0x27ED JUMP JUMPDEST PUSH2 0x500 MLOAD DUP1 DUP3 SUB SWAP1 PUSH2 0x240 ADD MSTORE PUSH2 0x500 MLOAD SWAP1 PUSH1 0xA0 MLOAD SWAP1 PUSH2 0x798 SWAP2 PUSH2 0x27ED JUMP JUMPDEST SUB PUSH2 0x500 MLOAD RETURN JUMPDEST CALLVALUE PUSH2 0x466 JUMPI PUSH2 0x280 CALLDATASIZE PUSH1 0x3 NOT ADD SLT PUSH2 0x466 JUMPI PUSH2 0x7B9 PUSH2 0x268D JUMP JUMPDEST PUSH2 0x1E0 MSTORE PUSH1 0x24 CALLDATALOAD PUSH1 0x1 PUSH1 0x1 PUSH1 0x40 SHL SUB DUP2 GT PUSH2 0x466 JUMPI PUSH2 0x7DC SWAP1 CALLDATASIZE SWAP1 PUSH1 0x4 ADD PUSH2 0x26A3 JUMP JUMPDEST PUSH2 0x1C0 MSTORE PUSH2 0x320 MSTORE PUSH1 0x44 CALLDATALOAD PUSH1 0x1 PUSH1 0x1 PUSH1 0x40 SHL SUB DUP2 GT PUSH2 0x466 JUMPI PUSH2 0x803 SWAP1 CALLDATASIZE SWAP1 PUSH1 0x4 ADD PUSH2 0x26A3 JUMP JUMPDEST PUSH2 0x4E0 MSTORE PUSH2 0x5C0 MSTORE PUSH1 0x64 CALLDATALOAD PUSH1 0x1 PUSH1 0x1 PUSH1 0x40 SHL SUB DUP2 GT PUSH2 0x466 JUMPI PUSH2 0x82A SWAP1 CALLDATASIZE SWAP1 PUSH1 0x4 ADD PUSH2 0x26A3 JUMP JUMPDEST PUSH2 0x100 MSTORE PUSH2 0x5A0 MSTORE PUSH1 0x84 CALLDATALOAD PUSH1 0x1 PUSH1 0x1 PUSH1 0x40 SHL SUB DUP2 GT PUSH2 0x466 JUMPI PUSH2 0x851 SWAP1 CALLDATASIZE SWAP1 PUSH1 0x4 ADD PUSH2 0x26A3 JUMP JUMPDEST PUSH2 0x2E0 MSTORE PUSH2 0x180 MSTORE PUSH1 0x1 PUSH1 0x1 PUSH1 0x40 SHL SUB PUSH1 0xA4 CALLDATALOAD GT PUSH2 0x466 JUMPI PUSH2 0x878 CALLDATASIZE PUSH1 0xA4 CALLDATALOAD PUSH1 0x4 ADD PUSH2 0x26A3 JUMP JUMPDEST PUSH2 0x140 MSTORE PUSH2 0x120 MSTORE PUSH1 0xC4 CALLDATALOAD PUSH1 0x1 PUSH1 0x1 PUSH1 0x40 SHL SUB DUP2 GT PUSH2 0x466 JUMPI PUSH2 0x89F SWAP1 CALLDATASIZE SWAP1 PUSH1 0x4 ADD PUSH2 0x26A3 JUMP JUMPDEST PUSH2 0x540 MSTORE PUSH2 0x3E0 MSTORE PUSH1 0x1 PUSH1 0x1 PUSH1 0x40 SHL SUB PUSH1 0xE4 CALLDATALOAD GT PUSH2 0x466 JUMPI PUSH2 0x8C6 CALLDATASIZE PUSH1 0xE4 CALLDATALOAD PUSH1 0x4 ADD PUSH2 0x26A3 JUMP JUMPDEST PUSH2 0x3C0 MSTORE PUSH2 0x280 MSTORE PUSH1 0x1 PUSH1 0x1 PUSH1 0x40 SHL SUB PUSH2 0x104 CALLDATALOAD GT PUSH2 0x466 JUMPI PUSH2 0x8EF CALLDATASIZE PUSH2 0x104 CALLDATALOAD PUSH1 0x4 ADD PUSH2 0x26A3 JUMP JUMPDEST PUSH2 0x2C0 MSTORE PUSH2 0x460 MSTORE PUSH2 0x124 CALLDATALOAD PUSH1 0x1 PUSH1 0x1 PUSH1 0x40 SHL SUB DUP2 GT PUSH2 0x466 JUMPI PUSH2 0x917 SWAP1 CALLDATASIZE SWAP1 PUSH1 0x4 ADD PUSH2 0x26A3 JUMP JUMPDEST PUSH2 0x160 MSTORE PUSH1 0xE0 MSTORE PUSH2 0x144 CALLDATALOAD PUSH1 0x1 PUSH1 0x1 PUSH1 0x40 SHL SUB DUP2 GT PUSH2 0x466 JUMPI PUSH2 0x93E SWAP1 CALLDATASIZE SWAP1 PUSH1 0x4 ADD PUSH2 0x26A3 JUMP JUMPDEST PUSH2 0x300 MSTORE PUSH2 0x220 MSTORE PUSH2 0x164 CALLDATALOAD PUSH1 0x1 PUSH1 0x1 PUSH1 0x40 SHL SUB DUP2 GT PUSH2 0x466 JUMPI PUSH2 0x966 SWAP1 CALLDATASIZE SWAP1 PUSH1 0x4 ADD PUSH2 0x26A3 JUMP JUMPDEST PUSH2 0x200 MSTORE PUSH2 0x400 MSTORE PUSH2 0x184 CALLDATALOAD PUSH1 0x1 PUSH1 0x1 PUSH1 0x40 SHL SUB DUP2 GT PUSH2 0x466 JUMPI PUSH2 0x98E SWAP1 CALLDATASIZE SWAP1 PUSH1 0x4 ADD PUSH2 0x26A3 JUMP JUMPDEST PUSH2 0x600 MSTORE PUSH2 0x260 MSTORE PUSH2 0x1A4 CALLDATALOAD PUSH1 0x1 PUSH1 0x1 PUSH1 0x40 SHL SUB DUP2 GT PUSH2 0x466 JUMPI PUSH2 0x9B6 SWAP1 CALLDATASIZE SWAP1 PUSH1 0x4 ADD PUSH2 0x26A3 JUMP JUMPDEST PUSH2 0x440 MSTORE PUSH2 0x340 MSTORE PUSH2 0x1C4 CALLDATALOAD PUSH1 0x1 PUSH1 0x1 PUSH1 0x40 SHL SUB DUP2 GT PUSH2 0x466 JUMPI PUSH2 0x9DE SWAP1 CALLDATASIZE SWAP1 PUSH1 0x4 ADD PUSH2 0x26A3 JUMP JUMPDEST PUSH2 0x520 MSTORE PUSH2 0x420 MSTORE PUSH2 0x1E4 CALLDATALOAD PUSH1 0x1 PUSH1 0x1 PUSH1 0x40 SHL SUB DUP2 GT PUSH2 0x466 JUMPI PUSH2 0xA06 SWAP1 CALLDATASIZE SWAP1 PUSH1 0x4 ADD PUSH2 0x26A3 JUMP JUMPDEST PUSH2 0x480 MSTORE PUSH2 0x1A0 MSTORE PUSH2 0x204 CALLDATALOAD PUSH1 0x1 PUSH1 0x1 PUSH1 0x40 SHL SUB DUP2 GT PUSH2 0x466 JUMPI PUSH2 0xA2E SWAP1 CALLDATASIZE SWAP1 PUSH1 0x4 ADD PUSH2 0x26A3 JUMP JUMPDEST PUSH2 0x5E0 MSTORE PUSH2 0x240 MSTORE PUSH2 0x224 CALLDATALOAD PUSH1 0x1 PUSH1 0x1 PUSH1 0x40 SHL SUB DUP2 GT PUSH2 0x466 JUMPI PUSH2 0xA56 SWAP1 CALLDATASIZE SWAP1 PUSH1 0x4 ADD PUSH2 0x26A3 JUMP JUMPDEST PUSH2 0x640 MSTORE PUSH2 0x4A0 MSTORE PUSH2 0x244 CALLDATALOAD PUSH1 0x1 PUSH1 0x1 PUSH1 0x40 SHL SUB DUP2 GT PUSH2 0x466 JUMPI PUSH2 0xA7E SWAP1 CALLDATASIZE SWAP1 PUSH1 0x4 ADD PUSH2 0x26A3 JUMP JUMPDEST PUSH2 0x580 MSTORE PUSH2 0x2A0 MSTORE PUSH2 0x264 CALLDATALOAD PUSH1 0x1 PUSH1 0x1 PUSH1 0x40 SHL SUB DUP2 GT PUSH2 0x466 JUMPI PUSH2 0xAA6 SWAP1 CALLDATASIZE SWAP1 PUSH1 0x4 ADD PUSH2 0x26A3 JUMP JUMPDEST PUSH2 0x3A0 MSTORE PUSH2 0x360 MSTORE PUSH1 0x0 SLOAD PUSH1 0x1 PUSH1 0x1 PUSH1 0xA0 SHL SUB AND CALLER SUB PUSH2 0x25CB JUMPI PUSH2 0xAD0 PUSH1 0x40 MLOAD DUP1 PUSH2 0x380 MSTORE PUSH2 0x270A JUMP JUMPDEST PUSH2 0xAE1 CALLDATASIZE PUSH2 0x1C0 MLOAD PUSH2 0x320 MLOAD PUSH2 0x282D JUMP JUMPDEST PUSH2 0x380 MLOAD MSTORE PUSH2 0xAF7 CALLDATASIZE PUSH2 0x4E0 MLOAD PUSH2 0x5C0 MLOAD PUSH2 0x282D JUMP JUMPDEST PUSH1 0x20 PUSH2 0x380 MLOAD ADD MSTORE PUSH2 0xB10 CALLDATASIZE PUSH2 0x100 MLOAD PUSH2 0x5A0 MLOAD PUSH2 0x282D JUMP JUMPDEST PUSH1 0x40 PUSH2 0x380 MLOAD ADD MSTORE PUSH2 0xB29 CALLDATASIZE PUSH2 0x2E0 MLOAD PUSH2 0x180 MLOAD PUSH2 0x282D JUMP JUMPDEST PUSH1 0x60 PUSH2 0x380 MLOAD ADD MSTORE PUSH2 0xB42 CALLDATASIZE PUSH2 0x140 MLOAD PUSH2 0x120 MLOAD PUSH2 0x282D JUMP JUMPDEST PUSH1 0x80 PUSH2 0x380 MLOAD ADD MSTORE PUSH2 0xB5B CALLDATASIZE PUSH2 0x540 MLOAD PUSH2 0x3E0 MLOAD PUSH2 0x282D JUMP JUMPDEST PUSH1 0xA0 PUSH2 0x380 MLOAD ADD MSTORE PUSH2 0xB74 CALLDATASIZE PUSH2 0x3C0 MLOAD PUSH2 0x280 MLOAD PUSH2 0x282D JUMP JUMPDEST PUSH1 0xC0 PUSH2 0x380 MLOAD ADD MSTORE PUSH2 0xB8D CALLDATASIZE PUSH2 0x2C0 MLOAD PUSH2 0x460 MLOAD PUSH2 0x282D JUMP JUMPDEST PUSH1 0xE0 PUSH2 0x380 MLOAD ADD MSTORE PUSH2 0xBA5 CALLDATASIZE PUSH2 0x160 MLOAD PUSH1 0xE0 MLOAD PUSH2 0x282D JUMP JUMPDEST PUSH2 0x100 PUSH2 0x380 MLOAD ADD MSTORE PUSH2 0xBBF CALLDATASIZE PUSH2 0x300 MLOAD PUSH2 0x220 MLOAD PUSH2 0x282D JUMP JUMPDEST PUSH2 0x120 PUSH2 0x380 MLOAD ADD MSTORE PUSH2 0xBD9 CALLDATASIZE PUSH2 0x200 MLOAD PUSH2 0x400 MLOAD PUSH2 0x282D JUMP JUMPDEST PUSH2 0x140 PUSH2 0x380 MLOAD ADD MSTORE PUSH2 0xBF3 CALLDATASIZE PUSH2 0x600 MLOAD PUSH2 0x260 MLOAD PUSH2 0x282D JUMP JUMPDEST PUSH2 0x160 PUSH2 0x380 MLOAD ADD MSTORE PUSH2 0xC0D CALLDATASIZE PUSH2 0x440 MLOAD PUSH2 0x340 MLOAD PUSH2 0x282D JUMP JUMPDEST PUSH2 0x180 PUSH2 0x380 MLOAD ADD MSTORE PUSH2 0xC27 CALLDATASIZE PUSH2 0x520 MLOAD PUSH2 0x420 MLOAD PUSH2 0x282D JUMP JUMPDEST PUSH2 0x1A0 PUSH2 0x380 MLOAD ADD MSTORE PUSH2 0xC41 CALLDATASIZE PUSH2 0x480 MLOAD PUSH2 0x1A0 MLOAD PUSH2 0x282D JUMP JUMPDEST PUSH2 0x1C0 PUSH2 0x380 MLOAD ADD MSTORE PUSH2 0xC5B CALLDATASIZE PUSH2 0x5E0 MLOAD PUSH2 0x240 MLOAD PUSH2 0x282D JUMP JUMPDEST PUSH2 0x1E0 PUSH2 0x380 MLOAD ADD MSTORE PUSH2 0xC75 CALLDATASIZE PUSH2 0x640 MLOAD PUSH2 0x4A0 MLOAD PUSH2 0x282D JUMP JUMPDEST PUSH2 0x200 PUSH2 0x380 MLOAD ADD MSTORE PUSH2 0xC8F CALLDATASIZE PUSH2 0x580 MLOAD PUSH2 0x2A0 MLOAD PUSH2 0x282D JUMP JUMPDEST PUSH2 0x220 PUSH2 0x380 MLOAD ADD MSTORE PUSH2 0xCA9 CALLDATASIZE PUSH2 0x3A0 MLOAD PUSH2 0x360 MLOAD PUSH2 0x282D JUMP JUMPDEST PUSH2 0x240 PUSH2 0x380 MLOAD ADD MSTORE PUSH1 0x1 DUP1 PUSH1 0xA0 SHL SUB PUSH2 0x1E0 MLOAD AND PUSH1 0x0 MSTORE PUSH1 0x1 PUSH1 0x20 MSTORE PUSH1 0x40 PUSH1 0x0 KECCAK256 PUSH2 0x380 MLOAD MLOAD SWAP1 DUP2 MLOAD PUSH1 0x1 PUSH1 0x1 PUSH1 0x40 SHL SUB DUP2 GT PUSH2 0x1697 JUMPI PUSH2 0xCEB DUP3 SLOAD PUSH2 0x26D0 JUMP JUMPDEST PUSH1 0x1F DUP2 GT PUSH2 0x2587 JUMPI JUMPDEST POP PUSH1 0x20 PUSH1 0x1F DUP3 GT PUSH1 0x1 EQ PUSH2 0x2522 JUMPI DUP2 SWAP3 SWAP4 PUSH1 0x0 SWAP3 PUSH2 0x2517 JUMPI JUMPDEST POP POP DUP2 PUSH1 0x1 SHL SWAP2 PUSH1 0x0 NOT SWAP1 PUSH1 0x3 SHL SHR NOT AND OR DUP2 SSTORE JUMPDEST PUSH1 0x20 PUSH2 0x380 MLOAD ADD MLOAD SWAP1 DUP2 MLOAD PUSH1 0x1 PUSH1 0x1 PUSH1 0x40 SHL SUB DUP2 GT PUSH2 0x1697 JUMPI PUSH2 0xD48 PUSH1 0x1 DUP4 ADD SLOAD PUSH2 0x26D0 JUMP JUMPDEST PUSH1 0x1F DUP2 GT PUSH2 0x24D0 JUMPI JUMPDEST POP PUSH1 0x20 PUSH1 0x1F DUP3 GT PUSH1 0x1 EQ PUSH2 0x2465 JUMPI DUP2 SWAP3 SWAP4 PUSH1 0x0 SWAP3 PUSH2 0x245A JUMPI JUMPDEST POP POP DUP2 PUSH1 0x1 SHL SWAP2 PUSH1 0x0 NOT SWAP1 PUSH1 0x3 SHL SHR NOT AND OR PUSH1 0x1 DUP3 ADD SSTORE JUMPDEST PUSH1 0x40 PUSH2 0x380 MLOAD ADD MLOAD SWAP1 DUP2 MLOAD PUSH1 0x1 PUSH1 0x1 PUSH1 0x40 SHL SUB DUP2 GT PUSH2 0x1697 JUMPI PUSH2 0xDA8 PUSH1 0x2 DUP4 ADD SLOAD PUSH2 0x26D0 JUMP JUMPDEST PUSH1 0x1F DUP2 GT PUSH2 0x2413 JUMPI JUMPDEST POP PUSH1 0x20 PUSH1 0x1F DUP3 GT PUSH1 0x1 EQ PUSH2 0x23A8 JUMPI DUP2 SWAP3 SWAP4 PUSH1 0x0 SWAP3 PUSH2 0x239D JUMPI JUMPDEST POP POP DUP2 PUSH1 0x1 SHL SWAP2 PUSH1 0x0 NOT SWAP1 PUSH1 0x3 SHL SHR NOT AND OR PUSH1 0x2 DUP3 ADD SSTORE JUMPDEST PUSH1 0x60 PUSH2 0x380 MLOAD ADD MLOAD DUP1 MLOAD SWAP1 PUSH1 0x1 PUSH1 0x1 PUSH1 0x40 SHL SUB DUP3 GT PUSH2 0x1697 JUMPI DUP2 SWAP1 PUSH2 0xE0A PUSH1 0x3 DUP6 ADD SLOAD PUSH2 0x26D0 JUMP JUMPDEST PUSH1 0x1F DUP2 GT PUSH2 0x234A JUMPI JUMPDEST POP PUSH1 0x20 SWAP1 PUSH1 0x1F DUP4 GT PUSH1 0x1 EQ PUSH2 0x22D8 JUMPI PUSH1 0x0 SWAP3 PUSH2 0x22CD JUMPI JUMPDEST POP POP DUP2 PUSH1 0x1 SHL SWAP2 PUSH1 0x0 NOT SWAP1 PUSH1 0x3 SHL SHR NOT AND OR PUSH1 0x3 DUP3 ADD SSTORE JUMPDEST PUSH1 0x80 PUSH2 0x380 MLOAD ADD MLOAD DUP1 MLOAD SWAP1 PUSH1 0x1 PUSH1 0x1 PUSH1 0x40 SHL SUB DUP3 GT PUSH2 0x1697 JUMPI DUP2 SWAP1 PUSH2 0xE6A PUSH1 0x4 DUP6 ADD SLOAD PUSH2 0x26D0 JUMP JUMPDEST PUSH1 0x1F DUP2 GT PUSH2 0x227A JUMPI JUMPDEST POP PUSH1 0x20 SWAP1 PUSH1 0x1F DUP4 GT PUSH1 0x1 EQ PUSH2 0x2208 JUMPI PUSH1 0x0 SWAP3 PUSH2 0x21FD JUMPI JUMPDEST POP POP DUP2 PUSH1 0x1 SHL SWAP2 PUSH1 0x0 NOT SWAP1 PUSH1 0x3 SHL SHR NOT AND OR PUSH1 0x4 DUP3 ADD SSTORE JUMPDEST PUSH1 0xA0 PUSH2 0x380 MLOAD ADD MLOAD DUP1 MLOAD SWAP1 PUSH1 0x1 PUSH1 0x1 PUSH1 0x40 SHL SUB DUP3 GT PUSH2 0x1697 JUMPI DUP2 SWAP1 PUSH2 0xECA PUSH1 0x5 DUP6 ADD SLOAD PUSH2 0x26D0 JUMP JUMPDEST PUSH1 0x1F DUP2 GT PUSH2 0x21AA JUMPI JUMPDEST POP PUSH1 0x20 SWAP1 PUSH1 0x1F DUP4 GT PUSH1 0x1 EQ PUSH2 0x2138 JUMPI PUSH1 0x0 SWAP3 PUSH2 0x212D JUMPI JUMPDEST POP POP DUP2 PUSH1 0x1 SHL SWAP2 PUSH1 0x0 NOT SWAP1 PUSH1 0x3 SHL SHR NOT AND OR PUSH1 0x5 DUP3 ADD SSTORE JUMPDEST PUSH1 0xC0 PUSH2 0x380 MLOAD ADD MLOAD DUP1 MLOAD SWAP1 PUSH1 0x1 PUSH1 0x1 PUSH1 0x40 SHL SUB DUP3 GT PUSH2 0x1697 JUMPI DUP2 SWAP1 PUSH2 0xF2A PUSH1 0x6 DUP6 ADD SLOAD PUSH2 0x26D0 JUMP JUMPDEST PUSH1 0x1F DUP2 GT PUSH2 0x20DA JUMPI JUMPDEST POP PUSH1 0x20 SWAP1 PUSH1 0x1F DUP4 GT PUSH1 0x1 EQ PUSH2 0x2068 JUMPI PUSH1 0x0 SWAP3 PUSH2 0x205D JUMPI JUMPDEST POP POP DUP2 PUSH1 0x1 SHL SWAP2 PUSH1 0x0 NOT SWAP1 PUSH1 0x3 SHL SHR NOT AND OR PUSH1 0x6 DUP3 ADD SSTORE JUMPDEST PUSH1 0xE0 PUSH2 0x380 MLOAD ADD MLOAD DUP1 MLOAD SWAP1 PUSH1 0x1 PUSH1 0x1 PUSH1 0x40 SHL SUB DUP3 GT PUSH2 0x1697 JUMPI DUP2 SWAP1 PUSH2 0xF8A PUSH1 0x7 DUP6 ADD SLOAD PUSH2 0x26D0 JUMP JUMPDEST PUSH1 0x1F DUP2 GT PUSH2 0x200A JUMPI JUMPDEST POP PUSH1 0x20 SWAP1 PUSH1 0x1F DUP4 GT PUSH1 0x1 EQ PUSH2 0x1F98 JUMPI PUSH1 0x0 SWAP3 PUSH2 0x1F8D JUMPI JUMPDEST POP POP DUP2 PUSH1 0x1 SHL SWAP2 PUSH1 0x0 NOT SWAP1 PUSH1 0x3 SHL SHR NOT AND OR PUSH1 0x7 DUP3 ADD SSTORE JUMPDEST PUSH2 0x100 PUSH2 0x380 MLOAD ADD MLOAD DUP1 MLOAD SWAP1 PUSH1 0x1 PUSH1 0x1 PUSH1 0x40 SHL SUB DUP3 GT PUSH2 0x1697 JUMPI DUP2 SWAP1 PUSH2 0xFEB PUSH1 0x8 DUP6 ADD SLOAD PUSH2 0x26D0 JUMP JUMPDEST PUSH1 0x1F DUP2 GT PUSH2 0x1F3A JUMPI JUMPDEST POP PUSH1 0x20 SWAP1 PUSH1 0x1F DUP4 GT PUSH1 0x1 EQ PUSH2 0x1EC8 JUMPI PUSH1 0x0 SWAP3 PUSH2 0x1EBD JUMPI JUMPDEST POP POP DUP2 PUSH1 0x1 SHL SWAP2 PUSH1 0x0 NOT SWAP1 PUSH1 0x3 SHL SHR NOT AND OR PUSH1 0x8 DUP3 ADD SSTORE JUMPDEST PUSH2 0x120 PUSH2 0x380 MLOAD ADD MLOAD DUP1 MLOAD SWAP1 PUSH1 0x1 PUSH1 0x1 PUSH1 0x40 SHL SUB DUP3 GT PUSH2 0x1697 JUMPI DUP2 SWAP1 PUSH2 0x104C PUSH1 0x9 DUP6 ADD SLOAD PUSH2 0x26D0 JUMP JUMPDEST PUSH1 0x1F DUP2 GT PUSH2 0x1E6A JUMPI JUMPDEST POP PUSH1 0x20 SWAP1 PUSH1 0x1F DUP4 GT PUSH1 0x1 EQ PUSH2 0x1DF8 JUMPI PUSH1 0x0 SWAP3 PUSH2 0x1DED JUMPI JUMPDEST POP POP DUP2 PUSH1 0x1 SHL SWAP2 PUSH1 0x0 NOT SWAP1 PUSH1 0x3 SHL SHR NOT AND OR PUSH1 0x9 DUP3 ADD SSTORE JUMPDEST PUSH2 0x140 PUSH2 0x380 MLOAD ADD MLOAD DUP1 MLOAD SWAP1 PUSH1 0x1 PUSH1 0x1 PUSH1 0x40 SHL SUB DUP3 GT PUSH2 0x1697 JUMPI DUP2 SWAP1 PUSH2 0x10AD PUSH1 0xA DUP6 ADD SLOAD PUSH2 0x26D0 JUMP JUMPDEST PUSH1 0x1F DUP2 GT PUSH2 0x1D9A JUMPI JUMPDEST POP PUSH1 0x20 SWAP1 PUSH1 0x1F DUP4 GT PUSH1 0x1 EQ PUSH2 0x1D28 JUMPI PUSH1 0x0 SWAP3 PUSH2 0x1D1D JUMPI JUMPDEST POP POP DUP2 PUSH1 0x1 SHL SWAP2 PUSH1 0x0 NOT SWAP1 PUSH1 0x3 SHL SHR NOT AND OR PUSH1 0xA DUP3 ADD SSTORE JUMPDEST PUSH2 0x160 PUSH2 0x380 MLOAD ADD MLOAD DUP1 MLOAD SWAP1 PUSH1 0x1 PUSH1 0x1 PUSH1 0x40 SHL SUB DUP3 GT PUSH2 0x1697 JUMPI DUP2 SWAP1 PUSH2 0x110E PUSH1 0xB DUP6 ADD SLOAD PUSH2 0x26D0 JUMP JUMPDEST PUSH1 0x1F DUP2 GT PUSH2 0x1CCA JUMPI JUMPDEST POP PUSH1 0x20 SWAP1 PUSH1 0x1F DUP4 GT PUSH1 0x1 EQ PUSH2 0x1C58 JUMPI PUSH1 0x0 SWAP3 PUSH2 0x1C4D JUMPI JUMPDEST POP POP DUP2 PUSH1 0x1 SHL SWAP2 PUSH1 0x0 NOT SWAP1 PUSH1 0x3 SHL SHR NOT AND OR PUSH1 0xB DUP3 ADD SSTORE JUMPDEST PUSH2 0x180 PUSH2 0x380 MLOAD ADD MLOAD DUP1 MLOAD SWAP1 PUSH1 0x1 PUSH1 0x1 PUSH1 0x40 SHL SUB DUP3 GT PUSH2 0x1697 JUMPI DUP2 SWAP1 PUSH2 0x116F PUSH1 0xC DUP6 ADD SLOAD PUSH2 0x26D0 JUMP JUMPDEST PUSH1 0x1F DUP2 GT PUSH2 0x1BFA JUMPI JUMPDEST POP PUSH1 0x20 SWAP1 PUSH1 0x1F DUP4 GT PUSH1 0x1 EQ PUSH2 0x1B88 JUMPI PUSH1 0x0 SWAP3 PUSH2 0x1B7D JUMPI JUMPDEST POP POP DUP2 PUSH1 0x1 SHL SWAP2 PUSH1 0x0 NOT SWAP1 PUSH1 0x3 SHL SHR NOT AND OR PUSH1 0xC DUP3 ADD SSTORE JUMPDEST PUSH2 0x1A0 PUSH2 0x380 MLOAD ADD MLOAD DUP1 MLOAD SWAP1 PUSH1 0x1 PUSH1 0x1 PUSH1 0x40 SHL SUB DUP3 GT PUSH2 0x1697 JUMPI DUP2 SWAP1 PUSH2 0x11D0 PUSH1 0xD DUP6 ADD SLOAD PUSH2 0x26D0 JUMP JUMPDEST PUSH1 0x1F DUP2 GT PUSH2 0x1B2A JUMPI JUMPDEST POP PUSH1 0x20 SWAP1 PUSH1 0x1F DUP4 GT PUSH1 0x1 EQ PUSH2 0x1AB8 JUMPI PUSH1 0x0 SWAP3 PUSH2 0x1AAD JUMPI JUMPDEST POP POP DUP2 PUSH1 0x1 SHL SWAP2 PUSH1 0x0 NOT SWAP1 PUSH1 0x3 SHL SHR NOT AND OR PUSH1 0xD DUP3 ADD SSTORE JUMPDEST PUSH2 0x1C0 PUSH2 0x380 MLOAD ADD MLOAD DUP1 MLOAD SWAP1 PUSH1 0x1 PUSH1 0x1 PUSH1 0x40 SHL SUB DUP3 GT PUSH2 0x1697 JUMPI DUP2 SWAP1 PUSH2 0x1231 PUSH1 0xE DUP6 ADD SLOAD PUSH2 0x26D0 JUMP JUMPDEST PUSH1 0x1F DUP2 GT PUSH2 0x1A5A JUMPI JUMPDEST POP PUSH1 0x20 SWAP1 PUSH1 0x1F DUP4 GT PUSH1 0x1 EQ PUSH2 0x19E8 JUMPI PUSH1 0x0 SWAP3 PUSH2 0x19DD JUMPI JUMPDEST POP POP DUP2 PUSH1 0x1 SHL SWAP2 PUSH1 0x0 NOT SWAP1 PUSH1 0x3 SHL SHR NOT AND OR PUSH1 0xE DUP3 ADD SSTORE JUMPDEST PUSH2 0x1E0 PUSH2 0x380 MLOAD ADD MLOAD DUP1 MLOAD SWAP1 PUSH1 0x1 PUSH1 0x1 PUSH1 0x40 SHL SUB DUP3 GT PUSH2 0x1697 JUMPI DUP2 SWAP1 PUSH2 0x1292 PUSH1 0xF DUP6 ADD SLOAD PUSH2 0x26D0 JUMP JUMPDEST PUSH1 0x1F DUP2 GT PUSH2 0x198A JUMPI JUMPDEST POP PUSH1 0x20 SWAP1 PUSH1 0x1F DUP4 GT PUSH1 0x1 EQ PUSH2 0x1918 JUMPI PUSH1 0x0 SWAP3 PUSH2 0x190D JUMPI JUMPDEST POP POP DUP2 PUSH1 0x1 SHL SWAP2 PUSH1 0x0 NOT SWAP1 PUSH1 0x3 SHL SHR NOT AND OR PUSH1 0xF DUP3 ADD SSTORE JUMPDEST PUSH2 0x200 PUSH2 0x380 MLOAD ADD MLOAD DUP1 MLOAD SWAP1 PUSH1 0x1 PUSH1 0x1 PUSH1 0x40 SHL SUB DUP3 GT PUSH2 0x1697 JUMPI DUP2 SWAP1 PUSH2 0x12F3 PUSH1 0x10 DUP6 ADD SLOAD PUSH2 0x26D0 JUMP JUMPDEST PUSH1 0x1F DUP2 GT PUSH2 0x18BA JUMPI JUMPDEST POP PUSH1 0x20 SWAP1 PUSH1 0x1F DUP4 GT PUSH1 0x1 EQ PUSH2 0x1848 JUMPI PUSH1 0x0 SWAP3 PUSH2 0x183D JUMPI JUMPDEST POP POP DUP2 PUSH1 0x1 SHL SWAP2 PUSH1 0x0 NOT SWAP1 PUSH1 0x3 SHL SHR NOT AND OR PUSH1 0x10 DUP3 ADD SSTORE JUMPDEST PUSH2 0x220 PUSH2 0x380 MLOAD ADD MLOAD DUP1 MLOAD SWAP1 PUSH1 0x1 PUSH1 0x1 PUSH1 0x40 SHL SUB DUP3 GT PUSH2 0x1697 JUMPI DUP2 SWAP1 PUSH2 0x1354 PUSH1 0x11 DUP6 ADD SLOAD PUSH2 0x26D0 JUMP JUMPDEST PUSH1 0x1F DUP2 GT PUSH2 0x17EA JUMPI JUMPDEST POP PUSH1 0x20 SWAP1 PUSH1 0x1F DUP4 GT PUSH1 0x1 EQ PUSH2 0x1778 JUMPI PUSH1 0x0 SWAP3 PUSH2 0x176D JUMPI JUMPDEST POP POP DUP2 PUSH1 0x1 SHL SWAP2 PUSH1 0x0 NOT SWAP1 PUSH1 0x3 SHL SHR NOT AND OR PUSH1 0x11 DUP3 ADD SSTORE JUMPDEST PUSH2 0x240 PUSH2 0x380 MLOAD ADD MLOAD DUP1 MLOAD SWAP1 PUSH1 0x1 PUSH1 0x1 PUSH1 0x40 SHL SUB DUP3 GT PUSH2 0x1697 JUMPI PUSH2 0x13B3 PUSH1 0x12 DUP5 ADD SLOAD PUSH2 0x26D0 JUMP JUMPDEST PUSH1 0x1F DUP2 GT PUSH2 0x1726 JUMPI JUMPDEST POP PUSH1 0x20 SWAP1 PUSH1 0x1F DUP4 GT PUSH1 0x1 EQ PUSH2 0x16B8 JUMPI PUSH1 0x12 SWAP3 SWAP2 PUSH1 0x0 SWAP2 DUP4 PUSH2 0x16AD JUMPI JUMPDEST POP POP DUP2 PUSH1 0x1 SHL SWAP2 PUSH1 0x0 NOT SWAP1 PUSH1 0x3 SHL SHR NOT AND OR SWAP2 ADD SSTORE JUMPDEST PUSH1 0x2 SLOAD PUSH9 0x10000000000000000 DUP2 LT ISZERO PUSH2 0x1697 JUMPI DUP1 PUSH1 0x1 PUSH2 0x1412 SWAP3 ADD PUSH1 0x2 SSTORE PUSH2 0x2640 JUMP JUMPDEST DUP2 SLOAD SWAP1 PUSH1 0x3 SHL SWAP1 PUSH1 0x1 DUP1 PUSH1 0xA0 SHL SUB PUSH2 0x1E0 MLOAD AND DUP3 SHL SWAP2 PUSH1 0x1 DUP1 PUSH1 0xA0 SHL SUB SWAP1 SHL NOT AND OR SWAP1 SSTORE PUSH2 0x260 PUSH1 0x40 MLOAD DUP1 PUSH2 0x620 MSTORE MSTORE PUSH2 0x163F PUSH2 0x1625 PUSH2 0x160B PUSH2 0x15F1 PUSH2 0x15D7 PUSH2 0x15BD PUSH2 0x15A3 PUSH2 0x1589 PUSH2 0x156F PUSH2 0x1555 PUSH2 0x153C PUSH2 0x1523 PUSH2 0x150A PUSH2 0x14F1 PUSH2 0x14D8 PUSH2 0x14BF PUSH2 0x14A6 PUSH2 0x148D PUSH2 0x260 PUSH2 0x620 MLOAD ADD PUSH2 0x1C0 MLOAD PUSH2 0x320 MLOAD PUSH2 0x2873 JUMP JUMPDEST PUSH2 0x620 MLOAD PUSH1 0x20 DUP2 DUP4 SUB SWAP2 ADD MSTORE PUSH2 0x4E0 MLOAD PUSH2 0x5C0 MLOAD PUSH2 0x2873 JUMP JUMPDEST PUSH2 0x620 MLOAD PUSH1 0x40 DUP2 DUP4 SUB SWAP2 ADD MSTORE PUSH2 0x100 MLOAD PUSH2 0x5A0 MLOAD PUSH2 0x2873 JUMP JUMPDEST PUSH2 0x620 MLOAD PUSH1 0x60 DUP2 DUP4 SUB SWAP2 ADD MSTORE PUSH2 0x2E0 MLOAD PUSH2 0x180 MLOAD PUSH2 0x2873 JUMP JUMPDEST PUSH2 0x620 MLOAD PUSH1 0x80 DUP2 DUP4 SUB SWAP2 ADD MSTORE PUSH2 0x140 MLOAD PUSH2 0x120 MLOAD PUSH2 0x2873 JUMP JUMPDEST PUSH2 0x620 MLOAD PUSH1 0xA0 DUP2 DUP4 SUB SWAP2 ADD MSTORE PUSH2 0x540 MLOAD PUSH2 0x3E0 MLOAD PUSH2 0x2873 JUMP JUMPDEST PUSH2 0x620 MLOAD PUSH1 0xC0 DUP2 DUP4 SUB SWAP2 ADD MSTORE PUSH2 0x3C0 MLOAD PUSH2 0x280 MLOAD PUSH2 0x2873 JUMP JUMPDEST PUSH2 0x620 MLOAD PUSH1 0xE0 DUP2 DUP4 SUB SWAP2 ADD MSTORE PUSH2 0x2C0 MLOAD PUSH2 0x460 MLOAD PUSH2 0x2873 JUMP JUMPDEST PUSH2 0x620 MLOAD PUSH2 0x100 DUP2 DUP4 SUB SWAP2 ADD MSTORE PUSH2 0x160 MLOAD PUSH1 0xE0 MLOAD PUSH2 0x2873 JUMP JUMPDEST PUSH2 0x620 MLOAD PUSH2 0x120 DUP2 DUP4 SUB SWAP2 ADD MSTORE PUSH2 0x300 MLOAD PUSH2 0x220 MLOAD PUSH2 0x2873 JUMP JUMPDEST PUSH2 0x620 MLOAD PUSH2 0x140 DUP2 DUP4 SUB SWAP2 ADD MSTORE PUSH2 0x200 MLOAD PUSH2 0x400 MLOAD PUSH2 0x2873 JUMP JUMPDEST PUSH2 0x620 MLOAD PUSH2 0x160 DUP2 DUP4 SUB SWAP2 ADD MSTORE PUSH2 0x600 MLOAD PUSH2 0x260 MLOAD PUSH2 0x2873 JUMP JUMPDEST PUSH2 0x620 MLOAD PUSH2 0x180 DUP2 DUP4 SUB SWAP2 ADD MSTORE PUSH2 0x440 MLOAD PUSH2 0x340 MLOAD PUSH2 0x2873 JUMP JUMPDEST PUSH2 0x620 MLOAD PUSH2 0x1A0 DUP2 DUP4 SUB SWAP2 ADD MSTORE PUSH2 0x520 MLOAD PUSH2 0x420 MLOAD PUSH2 0x2873 JUMP JUMPDEST PUSH2 0x620 MLOAD PUSH2 0x1C0 DUP2 DUP4 SUB SWAP2 ADD MSTORE PUSH2 0x480 MLOAD PUSH2 0x1A0 MLOAD PUSH2 0x2873 JUMP JUMPDEST PUSH2 0x620 MLOAD PUSH2 0x1E0 DUP2 DUP4 SUB SWAP2 ADD MSTORE PUSH2 0x5E0 MLOAD PUSH2 0x240 MLOAD PUSH2 0x2873 JUMP JUMPDEST PUSH2 0x620 MLOAD PUSH2 0x200 DUP2 DUP4 SUB SWAP2 ADD MSTORE PUSH2 0x640 MLOAD PUSH2 0x4A0 MLOAD PUSH2 0x2873 JUMP JUMPDEST PUSH2 0x620 MLOAD PUSH2 0x220 DUP2 DUP4 SUB SWAP2 ADD MSTORE PUSH2 0x580 MLOAD PUSH2 0x2A0 MLOAD PUSH2 0x2873 JUMP JUMPDEST PUSH2 0x620 MLOAD PUSH2 0x240 DUP2 DUP4 SUB SWAP2 ADD MSTORE PUSH32 0xDBF2C692AED3E29144E731FDEA133B06B9E82FA111AD16849DCFB626C77AE6AC PUSH1 0x1 DUP1 PUSH1 0xA0 SHL SUB PUSH2 0x1E0 MLOAD AND SWAP2 PUSH2 0x168F PUSH2 0x620 MLOAD SWAP2 PUSH2 0x3A0 MLOAD PUSH2 0x360 MLOAD PUSH2 0x2873 JUMP JUMPDEST SUB PUSH2 0x620 MLOAD LOG2 STOP JUMPDEST PUSH4 0x4E487B71 PUSH1 0xE0 SHL PUSH1 0x0 MSTORE PUSH1 0x41 PUSH1 0x4 MSTORE PUSH1 0x24 PUSH1 0x0 REVERT JUMPDEST ADD MLOAD SWAP1 POP DUP5 DUP1 PUSH2 0x13D8 JUMP JUMPDEST SWAP1 PUSH1 0x12 DUP5 ADD PUSH1 0x0 MSTORE PUSH1 0x20 PUSH1 0x0 KECCAK256 SWAP2 PUSH1 0x0 PUSH1 0x1F NOT DUP6 AND SWAP1 JUMPDEST DUP2 DUP2 LT PUSH2 0x170E JUMPI POP SWAP2 PUSH1 0x1 SWAP4 SWAP2 DUP6 PUSH1 0x12 SWAP7 SWAP5 LT PUSH2 0x16F5 JUMPI JUMPDEST POP POP POP DUP2 SHL ADD SWAP2 ADD SSTORE PUSH2 0x13EE JUMP JUMPDEST ADD MLOAD PUSH1 0x0 NOT PUSH1 0xF8 DUP5 PUSH1 0x3 SHL AND SHR NOT AND SWAP1 SSTORE DUP5 DUP1 DUP1 PUSH2 0x16E7 JUMP JUMPDEST SWAP3 SWAP4 PUSH1 0x20 PUSH1 0x1 DUP2 SWAP3 DUP8 DUP7 ADD MLOAD DUP2 SSTORE ADD SWAP6 ADD SWAP4 ADD PUSH2 0x16CF JUMP JUMPDEST PUSH1 0x12 DUP5 ADD PUSH1 0x0 MSTORE PUSH1 0x20 PUSH1 0x0 KECCAK256 PUSH1 0x1F DUP5 ADD PUSH1 0x5 SHR DUP2 ADD PUSH1 0x20 DUP6 LT PUSH2 0x1766 JUMPI JUMPDEST PUSH1 0x1F DUP4 ADD PUSH1 0x5 SHR DUP3 ADD DUP2 LT PUSH2 0x175A JUMPI POP POP PUSH2 0x13BC JUMP JUMPDEST PUSH1 0x0 DUP2 SSTORE PUSH1 0x1 ADD PUSH2 0x1744 JUMP JUMPDEST POP DUP1 PUSH2 0x1744 JUMP JUMPDEST ADD MLOAD SWAP1 POP DUP4 DUP1 PUSH2 0x1374 JUMP JUMPDEST SWAP3 POP PUSH1 0x11 DUP5 ADD PUSH1 0x0 MSTORE PUSH1 0x20 PUSH1 0x0 KECCAK256 SWAP1 PUSH1 0x0 SWAP4 JUMPDEST PUSH1 0x1F NOT DUP5 AND DUP6 LT PUSH2 0x17CF JUMPI PUSH1 0x1 SWAP5 POP DUP4 PUSH1 0x1F NOT DUP2 AND LT PUSH2 0x17B6 JUMPI JUMPDEST POP POP POP DUP2 SHL ADD PUSH1 0x11 DUP3 ADD SSTORE PUSH2 0x138C JUMP JUMPDEST ADD MLOAD PUSH1 0x0 NOT PUSH1 0xF8 DUP5 PUSH1 0x3 SHL AND SHR NOT AND SWAP1 SSTORE DUP4 DUP1 DUP1 PUSH2 0x17A6 JUMP JUMPDEST DUP2 DUP2 ADD MLOAD DUP4 SSTORE PUSH1 0x20 SWAP5 DUP6 ADD SWAP5 PUSH1 0x1 SWAP1 SWAP4 ADD SWAP3 SWAP1 SWAP2 ADD SWAP1 PUSH2 0x178B JUMP JUMPDEST SWAP1 SWAP2 POP PUSH1 0x11 DUP5 ADD PUSH1 0x0 MSTORE PUSH1 0x20 PUSH1 0x0 KECCAK256 PUSH1 0x1F DUP5 ADD PUSH1 0x5 SHR DUP2 ADD PUSH1 0x20 DUP6 LT PUSH2 0x1836 JUMPI JUMPDEST SWAP1 DUP5 SWAP4 SWAP3 SWAP2 JUMPDEST PUSH1 0x1F DUP4 ADD PUSH1 0x5 SHR DUP3 ADD DUP2 LT PUSH2 0x1827 JUMPI POP POP PUSH2 0x135D JUMP JUMPDEST PUSH1 0x0 DUP2 SSTORE DUP6 SWAP5 POP PUSH1 0x1 ADD PUSH2 0x1811 JUMP JUMPDEST POP DUP1 PUSH2 0x180B JUMP JUMPDEST ADD MLOAD SWAP1 POP DUP4 DUP1 PUSH2 0x1313 JUMP JUMPDEST SWAP3 POP PUSH1 0x10 DUP5 ADD PUSH1 0x0 MSTORE PUSH1 0x20 PUSH1 0x0 KECCAK256 SWAP1 PUSH1 0x0 SWAP4 JUMPDEST PUSH1 0x1F NOT DUP5 AND DUP6 LT PUSH2 0x189F JUMPI PUSH1 0x1 SWAP5 POP DUP4 PUSH1 0x1F NOT DUP2 AND LT PUSH2 0x1886 JUMPI JUMPDEST POP POP POP DUP2 SHL ADD PUSH1 0x10 DUP3 ADD SSTORE PUSH2 0x132B JUMP JUMPDEST ADD MLOAD PUSH1 0x0 NOT PUSH1 0xF8 DUP5 PUSH1 0x3 SHL AND SHR NOT AND SWAP1 SSTORE DUP4 DUP1 DUP1 PUSH2 0x1876 JUMP JUMPDEST DUP2 DUP2 ADD MLOAD DUP4 SSTORE PUSH1 0x20 SWAP5 DUP6 ADD SWAP5 PUSH1 0x1 SWAP1 SWAP4 ADD SWAP3 SWAP1 SWAP2 ADD SWAP1 PUSH2 0x185B JUMP JUMPDEST SWAP1 SWAP2 POP PUSH1 0x10 DUP5 ADD PUSH1 0x0 MSTORE PUSH1 0x20 PUSH1 0x0 KECCAK256 PUSH1 0x1F DUP5 ADD PUSH1 0x5 SHR DUP2 ADD PUSH1 0x20 DUP6 LT PUSH2 0x1906 JUMPI JUMPDEST SWAP1 DUP5 SWAP4 SWAP3 SWAP2 JUMPDEST PUSH1 0x1F DUP4 ADD PUSH1 0x5 SHR DUP3 ADD DUP2 LT PUSH2 0x18F7 JUMPI POP POP PUSH2 0x12FC JUMP JUMPDEST PUSH1 0x0 DUP2 SSTORE DUP6 SWAP5 POP PUSH1 0x1 ADD PUSH2 0x18E1 JUMP JUMPDEST POP DUP1 PUSH2 0x18DB JUMP JUMPDEST ADD MLOAD SWAP1 POP DUP4 DUP1 PUSH2 0x12B2 JUMP JUMPDEST SWAP3 POP PUSH1 0xF DUP5 ADD PUSH1 0x0 MSTORE PUSH1 0x20 PUSH1 0x0 KECCAK256 SWAP1 PUSH1 0x0 SWAP4 JUMPDEST PUSH1 0x1F NOT DUP5 AND DUP6 LT PUSH2 0x196F JUMPI PUSH1 0x1 SWAP5 POP DUP4 PUSH1 0x1F NOT DUP2 AND LT PUSH2 0x1956 JUMPI JUMPDEST POP POP POP DUP2 SHL ADD PUSH1 0xF DUP3 ADD SSTORE PUSH2 0x12CA JUMP JUMPDEST ADD MLOAD PUSH1 0x0 NOT PUSH1 0xF8 DUP5 PUSH1 0x3 SHL AND SHR NOT AND SWAP1 SSTORE DUP4 DUP1 DUP1 PUSH2 0x1946 JUMP JUMPDEST DUP2 DUP2 ADD MLOAD DUP4 SSTORE PUSH1 0x20 SWAP5 DUP6 ADD SWAP5 PUSH1 0x1 SWAP1 SWAP4 ADD SWAP3 SWAP1 SWAP2 ADD SWAP1 PUSH2 0x192B JUMP JUMPDEST SWAP1 SWAP2 POP PUSH1 0xF DUP5 ADD PUSH1 0x0 MSTORE PUSH1 0x20 PUSH1 0x0 KECCAK256 PUSH1 0x1F DUP5 ADD PUSH1 0x5 SHR DUP2 ADD PUSH1 0x20 DUP6 LT PUSH2 0x19D6 JUMPI JUMPDEST SWAP1 DUP5 SWAP4 SWAP3 SWAP2 JUMPDEST PUSH1 0x1F DUP4 ADD PUSH1 0x5 SHR DUP3 ADD DUP2 LT PUSH2 0x19C7 JUMPI POP POP PUSH2 0x129B JUMP JUMPDEST PUSH1 0x0 DUP2 SSTORE DUP6 SWAP5 POP PUSH1 0x1 ADD PUSH2 0x19B1 JUMP JUMPDEST POP DUP1 PUSH2 0x19AB JUMP JUMPDEST ADD MLOAD SWAP1 POP DUP4 DUP1 PUSH2 0x1251 JUMP JUMPDEST SWAP3 POP PUSH1 0xE DUP5 ADD PUSH1 0x0 MSTORE PUSH1 0x20 PUSH1 0x0 KECCAK256 SWAP1 PUSH1 0x0 SWAP4 JUMPDEST PUSH1 0x1F NOT DUP5 AND DUP6 LT PUSH2 0x1A3F JUMPI PUSH1 0x1 SWAP5 POP DUP4 PUSH1 0x1F NOT DUP2 AND LT PUSH2 0x1A26 JUMPI JUMPDEST POP POP POP DUP2 SHL ADD PUSH1 0xE DUP3 ADD SSTORE PUSH2 0x1269 JUMP JUMPDEST ADD MLOAD PUSH1 0x0 NOT PUSH1 0xF8 DUP5 PUSH1 0x3 SHL AND SHR NOT AND SWAP1 SSTORE DUP4 DUP1 DUP1 PUSH2 0x1A16 JUMP JUMPDEST DUP2 DUP2 ADD MLOAD DUP4 SSTORE PUSH1 0x20 SWAP5 DUP6 ADD SWAP5 PUSH1 0x1 SWAP1 SWAP4 ADD SWAP3 SWAP1 SWAP2 ADD SWAP1 PUSH2 0x19FB JUMP JUMPDEST SWAP1 SWAP2 POP PUSH1 0xE DUP5 ADD PUSH1 0x0 MSTORE PUSH1 0x20 PUSH1 0x0 KECCAK256 PUSH1 0x1F DUP5 ADD PUSH1 0x5 SHR DUP2 ADD PUSH1 0x20 DUP6 LT PUSH2 0x1AA6 JUMPI JUMPDEST SWAP1 DUP5 SWAP4 SWAP3 SWAP2 JUMPDEST PUSH1 0x1F DUP4 ADD PUSH1 0x5 SHR DUP3 ADD DUP2 LT PUSH2 0x1A97 JUMPI POP POP PUSH2 0x123A JUMP JUMPDEST PUSH1 0x0 DUP2 SSTORE DUP6 SWAP5 POP PUSH1 0x1 ADD PUSH2 0x1A81 JUMP JUMPDEST POP DUP1 PUSH2 0x1A7B JUMP JUMPDEST ADD MLOAD SWAP1 POP DUP4 DUP1 PUSH2 0x11F0 JUMP JUMPDEST SWAP3 POP PUSH1 0xD DUP5 ADD PUSH1 0x0 MSTORE PUSH1 0x20 PUSH1 0x0 KECCAK256 SWAP1 PUSH1 0x0 SWAP4 JUMPDEST PUSH1 0x1F NOT DUP5 AND DUP6 LT PUSH2 0x1B0F JUMPI PUSH1 0x1 SWAP5 POP DUP4 PUSH1 0x1F NOT DUP2 AND LT PUSH2 0x1AF6 JUMPI JUMPDEST POP POP POP DUP2 SHL ADD PUSH1 0xD DUP3 ADD SSTORE PUSH2 0x1208 JUMP JUMPDEST ADD MLOAD PUSH1 0x0 NOT PUSH1 0xF8 DUP5 PUSH1 0x3 SHL AND SHR NOT AND SWAP1 SSTORE DUP4 DUP1 DUP1 PUSH2 0x1AE6 JUMP JUMPDEST DUP2 DUP2 ADD MLOAD DUP4 SSTORE PUSH1 0x20 SWAP5 DUP6 ADD SWAP5 PUSH1 0x1 SWAP1 SWAP4 ADD SWAP3 SWAP1 SWAP2 ADD SWAP1 PUSH2 0x1ACB JUMP JUMPDEST SWAP1 SWAP2 POP PUSH1 0xD DUP5 ADD PUSH1 0x0 MSTORE PUSH1 0x20 PUSH1 0x0 KECCAK256 PUSH1 0x1F DUP5 ADD PUSH1 0x5 SHR DUP2 ADD PUSH1 0x20 DUP6 LT PUSH2 0x1B76 JUMPI JUMPDEST SWAP1 DUP5 SWAP4 SWAP3 SWAP2 JUMPDEST PUSH1 0x1F DUP4 ADD PUSH1 0x5 SHR DUP3 ADD DUP2 LT PUSH2 0x1B67 JUMPI POP POP PUSH2 0x11D9 JUMP JUMPDEST PUSH1 0x0 DUP2 SSTORE DUP6 SWAP5 POP PUSH1 0x1 ADD PUSH2 0x1B51 JUMP JUMPDEST POP DUP1 PUSH2 0x1B4B JUMP JUMPDEST ADD MLOAD SWAP1 POP DUP4 DUP1 PUSH2 0x118F JUMP JUMPDEST SWAP3 POP PUSH1 0xC DUP5 ADD PUSH1 0x0 MSTORE PUSH1 0x20 PUSH1 0x0 KECCAK256 SWAP1 PUSH1 0x0 SWAP4 JUMPDEST PUSH1 0x1F NOT DUP5 AND DUP6 LT PUSH2 0x1BDF JUMPI PUSH1 0x1 SWAP5 POP DUP4 PUSH1 0x1F NOT DUP2 AND LT PUSH2 0x1BC6 JUMPI JUMPDEST POP POP POP DUP2 SHL ADD PUSH1 0xC DUP3 ADD SSTORE PUSH2 0x11A7 JUMP JUMPDEST ADD MLOAD PUSH1 0x0 NOT PUSH1 0xF8 DUP5 PUSH1 0x3 SHL AND SHR NOT AND SWAP1 SSTORE DUP4 DUP1 DUP1 PUSH2 0x1BB6 JUMP JUMPDEST DUP2 DUP2 ADD MLOAD DUP4 SSTORE PUSH1 0x20 SWAP5 DUP6 ADD SWAP5 PUSH1 0x1 SWAP1 SWAP4 ADD SWAP3 SWAP1 SWAP2 ADD SWAP1 PUSH2 0x1B9B JUMP JUMPDEST SWAP1 SWAP2 POP PUSH1 0xC DUP5 ADD PUSH1 0x0 MSTORE PUSH1 0x20 PUSH1 0x0 KECCAK256 PUSH1 0x1F DUP5 ADD PUSH1 0x5 SHR DUP2 ADD PUSH1 0x20 DUP6 LT PUSH2 0x1C46 JUMPI JUMPDEST SWAP1 DUP5 SWAP4 SWAP3 SWAP2 JUMPDEST PUSH1 0x1F DUP4 ADD PUSH1 0x5 SHR DUP3 ADD DUP2 LT PUSH2 0x1C37 JUMPI POP POP PUSH2 0x1178 JUMP JUMPDEST PUSH1 0x0 DUP2 SSTORE DUP6 SWAP5 POP PUSH1 0x1 ADD PUSH2 0x1C21 JUMP JUMPDEST POP DUP1 PUSH2 0x1C1B JUMP JUMPDEST ADD MLOAD SWAP1 POP DUP4 DUP1 PUSH2 0x112E JUMP JUMPDEST SWAP3 POP PUSH1 0xB DUP5 ADD PUSH1 0x0 MSTORE PUSH1 0x20 PUSH1 0x0 KECCAK256 SWAP1 PUSH1 0x0 SWAP4 JUMPDEST PUSH1 0x1F NOT DUP5 AND DUP6 LT PUSH2 0x1CAF JUMPI PUSH1 0x1 SWAP5 POP DUP4 PUSH1 0x1F NOT DUP2 AND LT PUSH2 0x1C96 JUMPI JUMPDEST POP POP POP DUP2 SHL ADD PUSH1 0xB DUP3 ADD SSTORE PUSH2 0x1146 JUMP JUMPDEST ADD MLOAD PUSH1 0x0 NOT PUSH1 0xF8 DUP5 PUSH1 0x3 SHL AND SHR NOT AND SWAP1 SSTORE DUP4 DUP1 DUP1 PUSH2 0x1C86 JUMP JUMPDEST DUP2 DUP2 ADD MLOAD DUP4 SSTORE PUSH1 0x20 SWAP5 DUP6 ADD SWAP5 PUSH1 0x1 SWAP1 SWAP4 ADD SWAP3 SWAP1 SWAP2 ADD SWAP1 PUSH2 0x1C6B JUMP JUMPDEST SWAP1 SWAP2 POP PUSH1 0xB DUP5 ADD PUSH1 0x0 MSTORE PUSH1 0x20 PUSH1 0x0 KECCAK256 PUSH1 0x1F DUP5 ADD PUSH1 0x5 SHR DUP2 ADD PUSH1 0x20 DUP6 LT PUSH2 0x1D16 JUMPI JUMPDEST SWAP1 DUP5 SWAP4 SWAP3 SWAP2 JUMPDEST PUSH1 0x1F DUP4 ADD PUSH1 0x5 SHR DUP3 ADD DUP2 LT PUSH2 0x1D07 JUMPI POP POP PUSH2 0x1117 JUMP JUMPDEST PUSH1 0x0 DUP2 SSTORE DUP6 SWAP5 POP PUSH1 0x1 ADD PUSH2 0x1CF1 JUMP JUMPDEST POP DUP1 PUSH2 0x1CEB JUMP JUMPDEST ADD MLOAD SWAP1 POP DUP4 DUP1 PUSH2 0x10CD JUMP JUMPDEST SWAP3 POP PUSH1 0xA DUP5 ADD PUSH1 0x0 MSTORE PUSH1 0x20 PUSH1 0x0 KECCAK256 SWAP1 PUSH1 0x0 SWAP4 JUMPDEST PUSH1 0x1F NOT DUP5 AND DUP6 LT PUSH2 0x1D7F JUMPI PUSH1 0x1 SWAP5 POP DUP4 PUSH1 0x1F NOT DUP2 AND LT PUSH2 0x1D66 JUMPI JUMPDEST POP POP POP DUP2 SHL ADD PUSH1 0xA DUP3 ADD SSTORE PUSH2 0x10E5 JUMP JUMPDEST ADD MLOAD PUSH1 0x0 NOT PUSH1 0xF8 DUP5 PUSH1 0x3 SHL AND SHR NOT AND SWAP1 SSTORE DUP4 DUP1 DUP1 PUSH2 0x1D56 JUMP JUMPDEST DUP2 DUP2 ADD MLOAD DUP4 SSTORE PUSH1 0x20 SWAP5 DUP6 ADD SWAP5 PUSH1 0x1 SWAP1 SWAP4 ADD SWAP3 SWAP1 SWAP2 ADD SWAP1 PUSH2 0x1D3B JUMP JUMPDEST SWAP1 SWAP2 POP PUSH1 0xA DUP5 ADD PUSH1 0x0 MSTORE PUSH1 0x20 PUSH1 0x0 KECCAK256 PUSH1 0x1F DUP5 ADD PUSH1 0x5 SHR DUP2 ADD PUSH1 0x20 DUP6 LT PUSH2 0x1DE6 JUMPI JUMPDEST SWAP1 DUP5 SWAP4 SWAP3 SWAP2 JUMPDEST PUSH1 0x1F DUP4 ADD PUSH1 0x5 SHR DUP3 ADD DUP2 LT PUSH2 0x1DD7 JUMPI POP POP PUSH2 0x10B6 JUMP JUMPDEST PUSH1 0x0 DUP2 SSTORE DUP6 SWAP5 POP PUSH1 0x1 ADD PUSH2 0x1DC1 JUMP JUMPDEST POP DUP1 PUSH2 0x1DBB JUMP JUMPDEST ADD MLOAD SWAP1 POP DUP4 DUP1 PUSH2 0x106C JUMP JUMPDEST SWAP3 POP PUSH1 0x9 DUP5 ADD PUSH1 0x0 MSTORE PUSH1 0x20 PUSH1 0x0 KECCAK256 SWAP1 PUSH1 0x0 SWAP4 JUMPDEST PUSH1 0x1F NOT DUP5 AND DUP6 LT PUSH2 0x1E4F JUMPI PUSH1 0x1 SWAP5 POP DUP4 PUSH1 0x1F NOT DUP2 AND LT PUSH2 0x1E36 JUMPI JUMPDEST POP POP POP DUP2 SHL ADD PUSH1 0x9 DUP3 ADD SSTORE PUSH2 0x1084 JUMP JUMPDEST ADD MLOAD PUSH1 0x0 NOT PUSH1 0xF8 DUP5 PUSH1 0x3 SHL AND SHR NOT AND SWAP1 SSTORE DUP4 DUP1 DUP1 PUSH2 0x1E26 JUMP JUMPDEST DUP2 DUP2 ADD MLOAD DUP4 SSTORE PUSH1 0x20 SWAP5 DUP6 ADD SWAP5 PUSH1 0x1 SWAP1 SWAP4 ADD SWAP3 SWAP1 SWAP2 ADD SWAP1 PUSH2 0x1E0B JUMP JUMPDEST SWAP1 SWAP2 POP PUSH1 0x9 DUP5 ADD PUSH1 0x0 MSTORE PUSH1 0x20 PUSH1 0x0 KECCAK256 PUSH1 0x1F DUP5 ADD PUSH1 0x5 SHR DUP2 ADD PUSH1 0x20 DUP6 LT PUSH2 0x1EB6 JUMPI JUMPDEST SWAP1 DUP5 SWAP4 SWAP3 SWAP2 JUMPDEST PUSH1 0x1F DUP4 ADD PUSH1 0x5 SHR DUP3 ADD DUP2 LT PUSH2 0x1EA7 JUMPI POP POP PUSH2 0x1055 JUMP JUMPDEST PUSH1 0x0 DUP2 SSTORE DUP6 SWAP5 POP PUSH1 0x1 ADD PUSH2 0x1E91 JUMP JUMPDEST POP DUP1 PUSH2 0x1E8B JUMP JUMPDEST ADD MLOAD SWAP1 POP DUP4 DUP1 PUSH2 0x100B JUMP JUMPDEST SWAP3 POP PUSH1 0x8 DUP5 ADD PUSH1 0x0 MSTORE PUSH1 0x20 PUSH1 0x0 KECCAK256 SWAP1 PUSH1 0x0 SWAP4 JUMPDEST PUSH1 0x1F NOT DUP5 AND DUP6 LT PUSH2 0x1F1F JUMPI PUSH1 0x1 SWAP5 POP DUP4 PUSH1 0x1F NOT DUP2 AND LT PUSH2 0x1F06 JUMPI JUMPDEST POP POP POP DUP2 SHL ADD PUSH1 0x8 DUP3 ADD SSTORE PUSH2 0x1023 JUMP JUMPDEST ADD MLOAD PUSH1 0x0 NOT PUSH1 0xF8 DUP5 PUSH1 0x3 SHL AND SHR NOT AND SWAP1 SSTORE DUP4 DUP1 DUP1 PUSH2 0x1EF6 JUMP JUMPDEST DUP2 DUP2 ADD MLOAD DUP4 SSTORE PUSH1 0x20 SWAP5 DUP6 ADD SWAP5 PUSH1 0x1 SWAP1 SWAP4 ADD SWAP3 SWAP1 SWAP2 ADD SWAP1 PUSH2 0x1EDB JUMP JUMPDEST SWAP1 SWAP2 POP PUSH1 0x8 DUP5 ADD PUSH1 0x0 MSTORE PUSH1 0x20 PUSH1 0x0 KECCAK256 PUSH1 0x1F DUP5 ADD PUSH1 0x5 SHR DUP2 ADD PUSH1 0x20 DUP6 LT PUSH2 0x1F86 JUMPI JUMPDEST SWAP1 DUP5 SWAP4 SWAP3 SWAP2 JUMPDEST PUSH1 0x1F DUP4 ADD PUSH1 0x5 SHR DUP3 ADD DUP2 LT PUSH2 0x1F77 JUMPI POP POP PUSH2 0xFF4 JUMP JUMPDEST PUSH1 0x0 DUP2 SSTORE DUP6 SWAP5 POP PUSH1 0x1 ADD PUSH2 0x1F61 JUMP JUMPDEST POP DUP1 PUSH2 0x1F5B JUMP JUMPDEST ADD MLOAD SWAP1 POP DUP4 DUP1 PUSH2 0xFAA JUMP JUMPDEST SWAP3 POP PUSH1 0x7 DUP5 ADD PUSH1 0x0 MSTORE PUSH1 0x20 PUSH1 0x0 KECCAK256 SWAP1 PUSH1 0x0 SWAP4 JUMPDEST PUSH1 0x1F NOT DUP5 AND DUP6 LT PUSH2 0x1FEF JUMPI PUSH1 0x1 SWAP5 POP DUP4 PUSH1 0x1F NOT DUP2 AND LT PUSH2 0x1FD6 JUMPI JUMPDEST POP POP POP DUP2 SHL ADD PUSH1 0x7 DUP3 ADD SSTORE PUSH2 0xFC2 JUMP JUMPDEST ADD MLOAD PUSH1 0x0 NOT PUSH1 0xF8 DUP5 PUSH1 0x3 SHL AND SHR NOT AND SWAP1 SSTORE DUP4 DUP1 DUP1 PUSH2 0x1FC6 JUMP JUMPDEST DUP2 DUP2 ADD MLOAD DUP4 SSTORE PUSH1 0x20 SWAP5 DUP6 ADD SWAP5 PUSH1 0x1 SWAP1 SWAP4 ADD SWAP3 SWAP1 SWAP2 ADD SWAP1 PUSH2 0x1FAB JUMP JUMPDEST SWAP1 SWAP2 POP PUSH1 0x7 DUP5 ADD PUSH1 0x0 MSTORE PUSH1 0x20 PUSH1 0x0 KECCAK256 PUSH1 0x1F DUP5 ADD PUSH1 0x5 SHR DUP2 ADD PUSH1 0x20 DUP6 LT PUSH2 0x2056 JUMPI JUMPDEST SWAP1 DUP5 SWAP4 SWAP3 SWAP2 JUMPDEST PUSH1 0x1F DUP4 ADD PUSH1 0x5 SHR DUP3 ADD DUP2 LT PUSH2 0x2047 JUMPI POP POP PUSH2 0xF93 JUMP JUMPDEST PUSH1 0x0 DUP2 SSTORE DUP6 SWAP5 POP PUSH1 0x1 ADD PUSH2 0x2031 JUMP JUMPDEST POP DUP1 PUSH2 0x202B JUMP JUMPDEST ADD MLOAD SWAP1 POP DUP4 DUP1 PUSH2 0xF4A JUMP JUMPDEST SWAP3 POP PUSH1 0x6 DUP5 ADD PUSH1 0x0 MSTORE PUSH1 0x20 PUSH1 0x0 KECCAK256 SWAP1 PUSH1 0x0 SWAP4 JUMPDEST PUSH1 0x1F NOT DUP5 AND DUP6 LT PUSH2 0x20BF JUMPI PUSH1 0x1 SWAP5 POP DUP4 PUSH1 0x1F NOT DUP2 AND LT PUSH2 0x20A6 JUMPI JUMPDEST POP POP POP DUP2 SHL ADD PUSH1 0x6 DUP3 ADD SSTORE PUSH2 0xF62 JUMP JUMPDEST ADD MLOAD PUSH1 0x0 NOT PUSH1 0xF8 DUP5 PUSH1 0x3 SHL AND SHR NOT AND SWAP1 SSTORE DUP4 DUP1 DUP1 PUSH2 0x2096 JUMP JUMPDEST DUP2 DUP2 ADD MLOAD DUP4 SSTORE PUSH1 0x20 SWAP5 DUP6 ADD SWAP5 PUSH1 0x1 SWAP1 SWAP4 ADD SWAP3 SWAP1 SWAP2 ADD SWAP1 PUSH2 0x207B JUMP JUMPDEST SWAP1 SWAP2 POP PUSH1 0x6 DUP5 ADD PUSH1 0x0 MSTORE PUSH1 0x20 PUSH1 0x0 KECCAK256 PUSH1 0x1F DUP5 ADD PUSH1 0x5 SHR DUP2 ADD PUSH1 0x20 DUP6 LT PUSH2 0x2126 JUMPI JUMPDEST SWAP1 DUP5 SWAP4 SWAP3 SWAP2 JUMPDEST PUSH1 0x1F DUP4 ADD PUSH1 0x5 SHR DUP3 ADD DUP2 LT PUSH2 0x2117 JUMPI POP POP PUSH2 0xF33 JUMP JUMPDEST PUSH1 0x0 DUP2 SSTORE DUP6 SWAP5 POP PUSH1 0x1 ADD PUSH2 0x2101 JUMP JUMPDEST POP DUP1 PUSH2 0x20FB JUMP JUMPDEST ADD MLOAD SWAP1 POP DUP4 DUP1 PUSH2 0xEEA JUMP JUMPDEST SWAP3 POP PUSH1 0x5 DUP5 ADD PUSH1 0x0 MSTORE PUSH1 0x20 PUSH1 0x0 KECCAK256 SWAP1 PUSH1 0x0 SWAP4 JUMPDEST PUSH1 0x1F NOT DUP5 AND DUP6 LT PUSH2 0x218F JUMPI PUSH1 0x1 SWAP5 POP DUP4 PUSH1 0x1F NOT DUP2 AND LT PUSH2 0x2176 JUMPI JUMPDEST POP POP POP DUP2 SHL ADD PUSH1 0x5 DUP3 ADD SSTORE PUSH2 0xF02 JUMP JUMPDEST ADD MLOAD PUSH1 0x0 NOT PUSH1 0xF8 DUP5 PUSH1 0x3 SHL AND SHR NOT AND SWAP1 SSTORE DUP4 DUP1 DUP1 PUSH2 0x2166 JUMP JUMPDEST DUP2 DUP2 ADD MLOAD DUP4 SSTORE PUSH1 0x20 SWAP5 DUP6 ADD SWAP5 PUSH1 0x1 SWAP1 SWAP4 ADD SWAP3 SWAP1 SWAP2 ADD SWAP1 PUSH2 0x214B JUMP JUMPDEST SWAP1 SWAP2 POP PUSH1 0x5 DUP5 ADD PUSH1 0x0 MSTORE PUSH1 0x20 PUSH1 0x0 KECCAK256 PUSH1 0x1F DUP5 ADD PUSH1 0x5 SHR DUP2 ADD PUSH1 0x20 DUP6 LT PUSH2 0x21F6 JUMPI JUMPDEST SWAP1 DUP5 SWAP4 SWAP3 SWAP2 JUMPDEST PUSH1 0x1F DUP4 ADD PUSH1 0x5 SHR DUP3 ADD DUP2 LT PUSH2 0x21E7 JUMPI POP POP PUSH2 0xED3 JUMP JUMPDEST PUSH1 0x0 DUP2 SSTORE DUP6 SWAP5 POP PUSH1 0x1 ADD PUSH2 0x21D1 JUMP JUMPDEST POP DUP1 PUSH2 0x21CB JUMP JUMPDEST ADD MLOAD SWAP1 POP DUP4 DUP1 PUSH2 0xE8A JUMP JUMPDEST SWAP3 POP PUSH1 0x4 DUP5 ADD PUSH1 0x0 MSTORE PUSH1 0x20 PUSH1 0x0 KECCAK256 SWAP1 PUSH1 0x0 SWAP4 JUMPDEST PUSH1 0x1F NOT DUP5 AND DUP6 LT PUSH2 0x225F JUMPI PUSH1 0x1 SWAP5 POP DUP4 PUSH1 0x1F NOT DUP2 AND LT PUSH2 0x2246 JUMPI JUMPDEST POP POP POP DUP2 SHL ADD PUSH1 0x4 DUP3 ADD SSTORE PUSH2 0xEA2 JUMP JUMPDEST ADD MLOAD PUSH1 0x0 NOT PUSH1 0xF8 DUP5 PUSH1 0x3 SHL AND SHR NOT AND SWAP1 SSTORE DUP4 DUP1 DUP1 PUSH2 0x2236 JUMP JUMPDEST DUP2 DUP2 ADD MLOAD DUP4 SSTORE PUSH1 0x20 SWAP5 DUP6 ADD SWAP5 PUSH1 0x1 SWAP1 SWAP4 ADD SWAP3 SWAP1 SWAP2 ADD SWAP1 PUSH2 0x221B JUMP JUMPDEST SWAP1 SWAP2 POP PUSH1 0x4 DUP5 ADD PUSH1 0x0 MSTORE PUSH1 0x20 PUSH1 0x0 KECCAK256 PUSH1 0x1F DUP5 ADD PUSH1 0x5 SHR DUP2 ADD PUSH1 0x20 DUP6 LT PUSH2 0x22C6 JUMPI JUMPDEST SWAP1 DUP5 SWAP4 SWAP3 SWAP2 JUMPDEST PUSH1 0x1F DUP4 ADD PUSH1 0x5 SHR DUP3 ADD DUP2 LT PUSH2 0x22B7 JUMPI POP POP PUSH2 0xE73 JUMP JUMPDEST PUSH1 0x0 DUP2 SSTORE DUP6 SWAP5 POP PUSH1 0x1 ADD PUSH2 0x22A1 JUMP JUMPDEST POP DUP1 PUSH2 0x229B JUMP JUMPDEST ADD MLOAD SWAP1 POP DUP4 DUP1 PUSH2 0xE2A JUMP JUMPDEST SWAP3 POP PUSH1 0x3 DUP5 ADD PUSH1 0x0 MSTORE PUSH1 0x20 PUSH1 0x0 KECCAK256 SWAP1 PUSH1 0x0 SWAP4 JUMPDEST PUSH1 0x1F NOT DUP5 AND DUP6 LT PUSH2 0x232F JUMPI PUSH1 0x1 SWAP5 POP DUP4 PUSH1 0x1F NOT DUP2 AND LT PUSH2 0x2316 JUMPI JUMPDEST POP POP POP DUP2 SHL ADD PUSH1 0x3 DUP3 ADD SSTORE PUSH2 0xE42 JUMP JUMPDEST ADD MLOAD PUSH1 0x0 NOT PUSH1 0xF8 DUP5 PUSH1 0x3 SHL AND SHR NOT AND SWAP1 SSTORE DUP4 DUP1 DUP1 PUSH2 0x2306 JUMP JUMPDEST DUP2 DUP2 ADD MLOAD DUP4 SSTORE PUSH1 0x20 SWAP5 DUP6 ADD SWAP5 PUSH1 0x1 SWAP1 SWAP4 ADD SWAP3 SWAP1 SWAP2 ADD SWAP1 PUSH2 0x22EB JUMP JUMPDEST SWAP1 SWAP2 POP PUSH1 0x3 DUP5 ADD PUSH1 0x0 MSTORE PUSH1 0x20 PUSH1 0x0 KECCAK256 PUSH1 0x1F DUP5 ADD PUSH1 0x5 SHR DUP2 ADD PUSH1 0x20 DUP6 LT PUSH2 0x2396 JUMPI JUMPDEST SWAP1 DUP5 SWAP4 SWAP3 SWAP2 JUMPDEST PUSH1 0x1F DUP4 ADD PUSH1 0x5 SHR DUP3 ADD DUP2 LT PUSH2 0x2387 JUMPI POP POP PUSH2 0xE13 JUMP JUMPDEST PUSH1 0x0 DUP2 SSTORE DUP6 SWAP5 POP PUSH1 0x1 ADD PUSH2 0x2371 JUMP JUMPDEST POP DUP1 PUSH2 0x236B JUMP JUMPDEST ADD MLOAD SWAP1 POP DUP4 DUP1 PUSH2 0xDCA JUMP JUMPDEST PUSH1 0x2 DUP4 ADD PUSH1 0x0 MSTORE PUSH1 0x20 PUSH1 0x0 KECCAK256 SWAP1 PUSH1 0x0 SWAP5 PUSH1 0x1F NOT DUP5 AND SWAP6 JUMPDEST DUP7 DUP2 LT PUSH2 0x23FB JUMPI POP DUP4 PUSH1 0x1 SWAP6 SWAP7 LT PUSH2 0x23E2 JUMPI JUMPDEST POP POP POP DUP2 SHL ADD PUSH1 0x2 DUP3 ADD SSTORE PUSH2 0xDE2 JUMP JUMPDEST ADD MLOAD PUSH1 0x0 NOT PUSH1 0xF8 DUP5 PUSH1 0x3 SHL AND SHR NOT AND SWAP1 SSTORE DUP4 DUP1 DUP1 PUSH2 0x23D2 JUMP JUMPDEST SWAP2 SWAP3 PUSH1 0x20 PUSH1 0x1 DUP2 SWAP3 DUP7 DUP6 ADD MLOAD DUP2 SSTORE ADD SWAP5 ADD SWAP3 ADD PUSH2 0x23BF JUMP JUMPDEST PUSH1 0x2 DUP4 ADD PUSH1 0x0 MSTORE PUSH1 0x20 PUSH1 0x0 KECCAK256 PUSH1 0x1F DUP4 ADD PUSH1 0x5 SHR DUP2 ADD PUSH1 0x20 DUP5 LT PUSH2 0x2453 JUMPI JUMPDEST PUSH1 0x1F DUP4 ADD PUSH1 0x5 SHR DUP3 ADD DUP2 LT PUSH2 0x2447 JUMPI POP POP PUSH2 0xDB1 JUMP JUMPDEST PUSH1 0x0 DUP2 SSTORE PUSH1 0x1 ADD PUSH2 0x2431 JUMP JUMPDEST POP DUP1 PUSH2 0x2431 JUMP JUMPDEST ADD MLOAD SWAP1 POP DUP4 DUP1 PUSH2 0xD6A JUMP JUMPDEST PUSH1 0x1 DUP4 ADD PUSH1 0x0 MSTORE PUSH1 0x20 PUSH1 0x0 KECCAK256 SWAP1 PUSH1 0x0 SWAP5 PUSH1 0x1F NOT DUP5 AND SWAP6 JUMPDEST DUP7 DUP2 LT PUSH2 0x24B8 JUMPI POP DUP4 PUSH1 0x1 SWAP6 SWAP7 LT PUSH2 0x249F JUMPI JUMPDEST POP POP POP DUP2 SHL ADD PUSH1 0x1 DUP3 ADD SSTORE PUSH2 0xD82 JUMP JUMPDEST ADD MLOAD PUSH1 0x0 NOT PUSH1 0xF8 DUP5 PUSH1 0x3 SHL AND SHR NOT AND SWAP1 SSTORE DUP4 DUP1 DUP1 PUSH2 0x248F JUMP JUMPDEST SWAP2 SWAP3 PUSH1 0x20 PUSH1 0x1 DUP2 SWAP3 DUP7 DUP6 ADD MLOAD DUP2 SSTORE ADD SWAP5 ADD SWAP3 ADD PUSH2 0x247C JUMP JUMPDEST PUSH1 0x1 DUP4 ADD PUSH1 0x0 MSTORE PUSH1 0x20 PUSH1 0x0 KECCAK256 PUSH1 0x1F DUP4 ADD PUSH1 0x5 SHR DUP2 ADD PUSH1 0x20 DUP5 LT PUSH2 0x2510 JUMPI JUMPDEST PUSH1 0x1F DUP4 ADD PUSH1 0x5 SHR DUP3 ADD DUP2 LT PUSH2 0x2504 JUMPI POP POP PUSH2 0xD51 JUMP JUMPDEST PUSH1 0x0 DUP2 SSTORE PUSH1 0x1 ADD PUSH2 0x24EE JUMP JUMPDEST POP DUP1 PUSH2 0x24EE JUMP JUMPDEST ADD MLOAD SWAP1 POP DUP4 DUP1 PUSH2 0xD0D JUMP JUMPDEST DUP3 PUSH1 0x0 MSTORE PUSH1 0x20 PUSH1 0x0 KECCAK256 SWAP1 PUSH1 0x0 SWAP5 PUSH1 0x1F NOT DUP5 AND SWAP6 JUMPDEST DUP7 DUP2 LT PUSH2 0x256F JUMPI POP DUP4 PUSH1 0x1 SWAP6 SWAP7 LT PUSH2 0x2556 JUMPI JUMPDEST POP POP POP DUP2 SHL ADD DUP2 SSTORE PUSH2 0xD22 JUMP JUMPDEST ADD MLOAD PUSH1 0x0 NOT PUSH1 0xF8 DUP5 PUSH1 0x3 SHL AND SHR NOT AND SWAP1 SSTORE DUP4 DUP1 DUP1 PUSH2 0x2549 JUMP JUMPDEST SWAP2 SWAP3 PUSH1 0x20 PUSH1 0x1 DUP2 SWAP3 DUP7 DUP6 ADD MLOAD DUP2 SSTORE ADD SWAP5 ADD SWAP3 ADD PUSH2 0x2536 JUMP JUMPDEST DUP3 PUSH1 0x0 MSTORE PUSH1 0x20 PUSH1 0x0 KECCAK256 PUSH1 0x1F DUP4 ADD PUSH1 0x5 SHR DUP2 ADD PUSH1 0x20 DUP5 LT PUSH2 0x25C4 JUMPI JUMPDEST PUSH1 0x1F DUP4 ADD PUSH1 0x5 SHR DUP3 ADD DUP2 LT PUSH2 0x25B8 JUMPI POP POP PUSH2 0xCF4 JUMP JUMPDEST PUSH1 0x0 DUP2 SSTORE PUSH1 0x1 ADD PUSH2 0x25A2 JUMP JUMPDEST POP DUP1 PUSH2 0x25A2 JUMP JUMPDEST PUSH1 0x40 MLOAD PUSH3 0x461BCD PUSH1 0xE5 SHL DUP2 MSTORE PUSH1 0x20 PUSH1 0x4 DUP3 ADD MSTORE PUSH1 0xB PUSH1 0x24 DUP3 ADD MSTORE PUSH11 0x139BDD081CDD195DD85C99 PUSH1 0xAA SHL PUSH1 0x44 DUP3 ADD MSTORE PUSH1 0x64 SWAP1 REVERT JUMPDEST CALLVALUE PUSH2 0x466 JUMPI PUSH1 0x20 CALLDATASIZE PUSH1 0x3 NOT ADD SLT PUSH2 0x466 JUMPI PUSH1 0x4 CALLDATALOAD PUSH1 0x2 SLOAD DUP2 LT ISZERO PUSH2 0x466 JUMPI PUSH2 0x2627 PUSH1 0x20 SWAP2 PUSH2 0x2640 JUMP JUMPDEST SWAP1 SLOAD PUSH1 0x40 MLOAD PUSH1 0x3 SWAP3 SWAP1 SWAP3 SHL SHR PUSH1 0x1 PUSH1 0x1 PUSH1 0xA0 SHL SUB AND DUP2 MSTORE RETURN JUMPDEST PUSH1 0x2 SLOAD DUP2 LT ISZERO PUSH2 0x2677 JUMPI PUSH1 0x2 PUSH1 0x0 MSTORE PUSH32 0x405787FA12A823E0F2B7631CC41B3BA8828B3321CA811111FA75CD3AA3BB5ACE ADD SWAP1 PUSH1 0x0 SWAP1 JUMP JUMPDEST PUSH4 0x4E487B71 PUSH1 0xE0 SHL PUSH1 0x0 MSTORE PUSH1 0x32 PUSH1 0x4 MSTORE PUSH1 0x24 PUSH1 0x0 REVERT JUMPDEST PUSH1 0x4 CALLDATALOAD SWAP1 PUSH1 0x1 PUSH1 0x1 PUSH1 0xA0 SHL SUB DUP3 AND DUP3 SUB PUSH2 0x466 JUMPI JUMP JUMPDEST SWAP2 DUP2 PUSH1 0x1F DUP5 ADD SLT ISZERO PUSH2 0x466 JUMPI DUP3 CALLDATALOAD SWAP2 PUSH1 0x1 PUSH1 0x1 PUSH1 0x40 SHL SUB DUP4 GT PUSH2 0x466 JUMPI PUSH1 0x20 DUP4 DUP2 DUP7 ADD SWAP6 ADD ADD GT PUSH2 0x466 JUMPI JUMP JUMPDEST SWAP1 PUSH1 0x1 DUP3 DUP2 SHR SWAP3 AND DUP1 ISZERO PUSH2 0x2700 JUMPI JUMPDEST PUSH1 0x20 DUP4 LT EQ PUSH2 0x26EA JUMPI JUMP JUMPDEST PUSH4 0x4E487B71 PUSH1 0xE0 SHL PUSH1 0x0 MSTORE PUSH1 0x22 PUSH1 0x4 MSTORE PUSH1 0x24 PUSH1 0x0 REVERT JUMPDEST SWAP2 PUSH1 0x7F AND SWAP2 PUSH2 0x26DF JUMP JUMPDEST PUSH2 0x260 DUP2 ADD SWAP1 DUP2 LT PUSH1 0x1 PUSH1 0x1 PUSH1 0x40 SHL SUB DUP3 GT OR PUSH2 0x1697 JUMPI PUSH1 0x40 MSTORE JUMP JUMPDEST SWAP1 PUSH1 0x1F DUP1 NOT SWAP2 ADD AND DUP2 ADD SWAP1 DUP2 LT PUSH1 0x1 PUSH1 0x1 PUSH1 0x40 SHL SUB DUP3 GT OR PUSH2 0x1697 JUMPI PUSH1 0x40 MSTORE JUMP JUMPDEST SWAP1 PUSH1 0x40 MLOAD SWAP2 DUP3 PUSH1 0x0 DUP3 SLOAD SWAP3 PUSH2 0x275B DUP5 PUSH2 0x26D0 JUMP JUMPDEST SWAP1 DUP2 DUP5 MSTORE PUSH1 0x1 SWAP5 DUP6 DUP2 AND SWAP1 DUP2 PUSH1 0x0 EQ PUSH2 0x27CA JUMPI POP PUSH1 0x1 EQ PUSH2 0x2787 JUMPI JUMPDEST POP POP PUSH2 0x2785 SWAP3 POP SUB DUP4 PUSH2 0x2726 JUMP JUMPDEST JUMP JUMPDEST SWAP1 SWAP4 SWAP2 POP PUSH1 0x0 MSTORE PUSH1 0x20 SWAP1 DUP2 PUSH1 0x0 KECCAK256 SWAP4 PUSH1 0x0 SWAP2 JUMPDEST DUP2 DUP4 LT PUSH2 0x27B2 JUMPI POP POP PUSH2 0x2785 SWAP4 POP DUP3 ADD ADD CODESIZE DUP1 PUSH2 0x2777 JUMP JUMPDEST DUP6 SLOAD DUP9 DUP5 ADD DUP6 ADD MSTORE SWAP5 DUP6 ADD SWAP5 DUP8 SWAP5 POP SWAP2 DUP4 ADD SWAP2 PUSH2 0x279A JUMP JUMPDEST SWAP2 POP POP PUSH2 0x2785 SWAP5 POP PUSH1 0x20 SWAP3 POP PUSH1 0xFF NOT AND DUP3 DUP5 ADD MSTORE ISZERO ISZERO PUSH1 0x5 SHL DUP3 ADD ADD CODESIZE DUP1 PUSH2 0x2777 JUMP JUMPDEST SWAP2 SWAP1 DUP3 MLOAD SWAP3 DUP4 DUP3 MSTORE PUSH1 0x0 JUMPDEST DUP5 DUP2 LT PUSH2 0x2819 JUMPI POP POP DUP3 PUSH1 0x0 PUSH1 0x20 DUP1 SWAP5 SWAP6 DUP5 ADD ADD MSTORE PUSH1 0x1F DUP1 NOT SWAP2 ADD AND ADD ADD SWAP1 JUMP JUMPDEST PUSH1 0x20 DUP2 DUP4 ADD DUP2 ADD MLOAD DUP5 DUP4 ADD DUP3 ADD MSTORE ADD PUSH2 0x27F8 JUMP JUMPDEST SWAP3 SWAP2 SWAP3 PUSH1 0x1 PUSH1 0x1 PUSH1 0x40 SHL SUB DUP3 GT PUSH2 0x1697 JUMPI PUSH1 0x40 MLOAD SWAP2 PUSH2 0x2856 PUSH1 0x1F DUP3 ADD PUSH1 0x1F NOT AND PUSH1 0x20 ADD DUP5 PUSH2 0x2726 JUMP JUMPDEST DUP3 SWAP5 DUP2 DUP5 MSTORE DUP2 DUP4 ADD GT PUSH2 0x466 JUMPI DUP3 DUP2 PUSH1 0x20 SWAP4 DUP5 PUSH1 0x0 SWAP7 ADD CALLDATACOPY ADD ADD MSTORE JUMP JUMPDEST SWAP1 DUP1 PUSH1 0x20 SWAP4 SWAP3 DUP2 DUP5 MSTORE DUP5 DUP5 ADD CALLDATACOPY PUSH1 0x0 DUP3 DUP3 ADD DUP5 ADD MSTORE PUSH1 0x1F ADD PUSH1 0x1F NOT AND ADD ADD SWAP1 JUMP INVALID LOG2 PUSH5 0x6970667358 0x22 SLT KECCAK256 PUSH28 0x470626C3075405B9EAE634BB895E5BB0FB2213D73289DAE80F5D0CC4 0xCD 0xC3 EQ PUSH5 0x736F6C6343 STOP ADDMOD EQ STOP CALLER "},"methodIdentifiers":{"companions(address)":"47854b87","getCompanion(address)":"ef652737","keys(uint256)":"0cb6aaf1","steward()":"637eea19","summonCompanion(address,string,string,string,string,string,string,string,string,string,string,string,string,string,string,string,string,string,string,string)":"30fd5c5b","totalCompanions()":"ec39f18f"}}}}}