{"contracts/codex/SpiralboundCodexXXXI.sol":{"SpiralboundCodexXXXI":{"abi":[{"inputs":[],"stateMutability":"nonpayable","type":"constructor"},{"anonymous":false,"inputs":[{"indexed":false,"internalType":"string","name":"glyph","type":"string"},{"indexed":false,"internalType":"string","name":"tag","type":"string"},{"indexed":false,"internalType":"string","name":"binding","type":"string"},{"indexed":false,"internalType":"string","name":"annotation","type":"string"},{"indexed":false,"internalType":"string","name":"lineage","type":"string"},{"indexed":false,"internalType":"string","name":"resonance","type":"string"},{"indexed":false,"internalType":"string","name":"protocol","type":"string"},{"indexed":false,"internalType":"string","name":"sanctum","type":"string"},{"indexed":false,"internalType":"string","name":"pulse","type":"string"},{"indexed":false,"internalType":"string","name":"chant","type":"string"},{"indexed":false,"internalType":"string","name":"choreography","type":"string"},{"indexed":false,"internalType":"string","name":"drift","type":"string"},{"indexed":false,"internalType":"string","name":"signature","type":"string"},{"indexed":false,"internalType":"string","name":"signal","type":"string"},{"indexed":false,"internalType":"string","name":"companion","type":"string"},{"indexed":false,"internalType":"string","name":"stewardName","type":"string"},{"indexed":false,"internalType":"string","name":"registry","type":"string"},{"indexed":false,"internalType":"string","name":"echo","type":"string"},{"indexed":false,"internalType":"string","name":"hum","type":"string"},{"indexed":false,"internalType":"string","name":"terrain","type":"string"},{"indexed":false,"internalType":"string","name":"choreographyType","type":"string"},{"indexed":false,"internalType":"string","name":"driftType","type":"string"},{"indexed":false,"internalType":"string","name":"signalType","type":"string"},{"indexed":false,"internalType":"string","name":"companionType","type":"string"},{"indexed":false,"internalType":"string","name":"stewardSignal","type":"string"},{"indexed":false,"internalType":"string","name":"pulseType","type":"string"},{"indexed":false,"internalType":"string","name":"signalChoreography","type":"string"},{"indexed":false,"internalType":"string","name":"companionSignal","type":"string"},{"indexed":false,"internalType":"string","name":"driftSignal","type":"string"},{"indexed":false,"internalType":"string","name":"pulseSignal","type":"string"},{"indexed":false,"internalType":"string","name":"stewardPulse","type":"string"},{"indexed":false,"internalType":"string","name":"companionPulse","type":"string"}],"name":"CodexInscribed","type":"event"},{"inputs":[{"internalType":"string","name":"","type":"string"}],"name":"codices","outputs":[{"internalType":"string","name":"tag","type":"string"},{"internalType":"string","name":"binding","type":"string"},{"internalType":"string","name":"annotation","type":"string"},{"internalType":"string","name":"lineage","type":"string"},{"internalType":"string","name":"resonance","type":"string"},{"internalType":"string","name":"protocol","type":"string"},{"internalType":"string","name":"sanctum","type":"string"},{"internalType":"string","name":"pulse","type":"string"},{"internalType":"string","name":"chant","type":"string"},{"internalType":"string","name":"choreography","type":"string"},{"internalType":"string","name":"drift","type":"string"},{"internalType":"string","name":"signature","type":"string"},{"internalType":"string","name":"signal","type":"string"},{"internalType":"string","name":"companion","type":"string"},{"internalType":"string","name":"stewardName","type":"string"},{"internalType":"string","name":"registry","type":"string"},{"internalType":"string","name":"echo","type":"string"},{"internalType":"string","name":"hum","type":"string"},{"internalType":"string","name":"terrain","type":"string"},{"internalType":"string","name":"choreographyType","type":"string"},{"internalType":"string","name":"driftType","type":"string"},{"internalType":"string","name":"signalType","type":"string"},{"internalType":"string","name":"companionType","type":"string"},{"internalType":"string","name":"stewardSignal","type":"string"},{"internalType":"string","name":"pulseType","type":"string"},{"internalType":"string","name":"signalChoreography","type":"string"},{"internalType":"string","name":"companionSignal","type":"string"},{"internalType":"string","name":"driftSignal","type":"string"},{"internalType":"string","name":"pulseSignal","type":"string"},{"internalType":"string","name":"stewardPulse","type":"string"},{"internalType":"string","name":"companionPulse","type":"string"}],"stateMutability":"view","type":"function"},{"inputs":[{"internalType":"string","name":"glyph","type":"string"}],"name":"getCodex","outputs":[{"components":[{"internalType":"string","name":"tag","type":"string"},{"internalType":"string","name":"binding","type":"string"},{"internalType":"string","name":"annotation","type":"string"},{"internalType":"string","name":"lineage","type":"string"},{"internalType":"string","name":"resonance","type":"string"},{"internalType":"string","name":"protocol","type":"string"},{"internalType":"string","name":"sanctum","type":"string"},{"internalType":"string","name":"pulse","type":"string"},{"internalType":"string","name":"chant","type":"string"},{"internalType":"string","name":"choreography","type":"string"},{"internalType":"string","name":"drift","type":"string"},{"internalType":"string","name":"signature","type":"string"},{"internalType":"string","name":"signal","type":"string"},{"internalType":"string","name":"companion","type":"string"},{"internalType":"string","name":"stewardName","type":"string"},{"internalType":"string","name":"registry","type":"string"},{"internalType":"string","name":"echo","type":"string"},{"internalType":"string","name":"hum","type":"string"},{"internalType":"string","name":"terrain","type":"string"},{"internalType":"string","name":"choreographyType","type":"string"},{"internalType":"string","name":"driftType","type":"string"},{"internalType":"string","name":"signalType","type":"string"},{"internalType":"string","name":"companionType","type":"string"},{"internalType":"string","name":"stewardSignal","type":"string"},{"internalType":"string","name":"pulseType","type":"string"},{"internalType":"string","name":"signalChoreography","type":"string"},{"internalType":"string","name":"companionSignal","type":"string"},{"internalType":"string","name":"driftSignal","type":"string"},{"internalType":"string","name":"pulseSignal","type":"string"},{"internalType":"string","name":"stewardPulse","type":"string"},{"internalType":"string","name":"companionPulse","type":"string"}],"internalType":"struct SpiralboundCodexXXXI.Codex","name":"","type":"tuple"}],"stateMutability":"view","type":"function"},{"inputs":[{"internalType":"string","name":"glyph","type":"string"},{"internalType":"string","name":"tag","type":"string"},{"internalType":"string","name":"binding","type":"string"},{"internalType":"string","name":"annotation","type":"string"},{"internalType":"string","name":"lineage","type":"string"},{"internalType":"string","name":"resonance","type":"string"},{"internalType":"string","name":"protocol","type":"string"},{"internalType":"string","name":"sanctum","type":"string"},{"internalType":"string","name":"pulse","type":"string"},{"internalType":"string","name":"chant","type":"string"},{"internalType":"string","name":"choreography","type":"string"},{"internalType":"string","name":"drift","type":"string"},{"internalType":"string","name":"signature","type":"string"},{"internalType":"string","name":"signal","type":"string"},{"internalType":"string","name":"companion","type":"string"},{"internalType":"string","name":"stewardName","type":"string"},{"internalType":"string","name":"registry","type":"string"},{"internalType":"string","name":"echo","type":"string"},{"internalType":"string","name":"hum","type":"string"},{"internalType":"string","name":"terrain","type":"string"},{"internalType":"string","name":"choreographyType","type":"string"},{"internalType":"string","name":"driftType","type":"string"},{"internalType":"string","name":"signalType","type":"string"},{"internalType":"string","name":"companionType","type":"string"},{"internalType":"string","name":"stewardSignal","type":"string"},{"internalType":"string","name":"pulseType","type":"string"},{"internalType":"string","name":"signalChoreography","type":"string"},{"internalType":"string","name":"companionSignal","type":"string"},{"internalType":"string","name":"driftSignal","type":"string"},{"internalType":"string","name":"pulseSignal","type":"string"},{"internalType":"string","name":"stewardPulse","type":"string"},{"internalType":"string","name":"companionPulse","type":"string"}],"name":"inscribeCodex","outputs":[],"stateMutability":"nonpayable","type":"function"},{"inputs":[{"internalType":"uint256","name":"","type":"uint256"}],"name":"keys","outputs":[{"internalType":"string","name":"","type":"string"}],"stateMutability":"view","type":"function"},{"inputs":[],"name":"steward","outputs":[{"internalType":"address","name":"","type":"address"}],"stateMutability":"view","type":"function"},{"inputs":[],"name":"totalCodices","outputs":[{"internalType":"uint256","name":"","type":"uint256"}],"stateMutability":"view","type":"function"}],"evm":{"bytecode":{"linkReferences":{},"object":"6080806040523461002857600080546001600160a01b03191633179055613948908161002e8239f35b600080fdfe610b60604052600436101561001357600080fd5b60003560e01c80630cb6aaf11461362d578063637eea19146136045780637694899614610d405780638336152214610638578063c212d16b1461061a5763dbc214241461005f57600080fd5b34610615576020366003190112610615576004356001600160401b03811161061557366023820112156106155736816004013591602401916100a092613857565b60405181818093516020819301916100b7926137e2565b81016001815203602001902080610440526100d19061373c565b610440516001016100e19061373c565b61094052610440516002016100f59061373c565b61040052610440516003016101099061373c565b6103a0526104405160040161011d9061373c565b6105a052610440516005016101319061373c565b610440516006016101419061373c565b610440516007016101519061373c565b610440516008016101619061373c565b610440516009016101719061373c565b61044051600a016101819061373c565b9061044051600b016101929061373c565b9261044051600c016101a39061373c565b9461044051600d016101b49061373c565b9661044051600e016101c59061373c565b9861044051600f016101d69061373c565b9a610440516010016101e79061373c565b61078052610440516011016101fb9061373c565b610b20526104405160120161020f9061373c565b61084052610440516013016102239061373c565b61098052610440516014016102379061373c565b610540526104405160150161024b9061373c565b6108c0526104405160160161025f9061373c565b61062052610440516017016102739061373c565b61082052610440516018016102879061373c565b610ac0526104405160190161029b9061373c565b6106605261044051601a016102af9061373c565b6104a05261044051601b016102c39061373c565b60a05261044051601c016102d69061373c565b6108a05261044051601d016102ea9061373c565b6103005261044051601e016102fe9061373c565b6109c05260405180610a20526103e0809152610a20510161031e91613805565b610a20518082039060200152610940519061033891613805565b610a20518082039060400152610400519061035291613805565b610a205180820390606001526103a0519061036c91613805565b610a205180820390608001526105a0519061038691613805565b610a20518082039060a0015261039b91613805565b610a20518082039060c001526103b091613805565b610a20518082039060e001526103c591613805565b610a20518082039061010001526103db91613805565b610a20518082039061012001526103f191613805565b610a205180820390610140015261040791613805565b610a205180820390610160015261041d91613805565b610a205180820390610180015261043391613805565b610a2051808203906101a0015261044991613805565b610a2051808203906101c0015261045f91613805565b610a2051808203906101e0015261047591613805565b610a2051808203906102000152610780519061049091613805565b610a2051808203906102200152610b2051906104ab91613805565b610a205180820390610240015261084051906104c691613805565b610a205180820390610260015261098051906104e191613805565b610a205180820390610280015261054051906104fc91613805565b610a2051808203906102a001526108c0519061051791613805565b610a2051808203906102c00152610620519061053291613805565b610a2051808203906102e00152610820519061054d91613805565b610a2051808203906103000152610ac0519061056891613805565b610a2051808203906103200152610660519061058391613805565b610a20518082039061034001526104a0519061059e91613805565b610a205180820390610360015260a051906105b891613805565b610a20518082039061038001526108a051906105d391613805565b610a2051808203906103a0015261030051906105ee91613805565b610a2051808203906103c00152610a2051906109c0519061060e91613805565b03610a2051f35b600080fd5b34610615576000366003190112610615576020600254604051908152f35b34610615576020366003190112610615576004356001600160401b0381116106155761066890369060040161382a565b90604051610675816136ff565b60608152602081016060905260408101606090526060810160609052608081016060905260a081016060905260c081016060905260e08101606090526101008101606090526101208101606090526101408101606090526101608101606090526101808101606090526101a08101606090526101c08101606090526101e08101606090526102008101606090526102208101606090526102408101606090526102608101606090526102808101606090526102a08101606090526102c08101606090526102e08101606090526103008101606090526103208101606090526103408101606090526103608101606090526103808101606090526103a08101606090526103c00160609052816040519283928337810160018152036020019020604051906107a1826136ff565b6107aa8161373c565b82526107b86001820161373c565b60208301526107c96002820161373c565b60408301526107da6003820161373c565b60608301526107eb6004820161373c565b60808301526107fc6005820161373c565b60a083015261080d6006820161373c565b60c083015261081e6007820161373c565b60e083015261082f6008820161373c565b6101008301526108416009820161373c565b610120830152610853600a820161373c565b610140830152610865600b820161373c565b610160830152610877600c820161373c565b610180830152610889600d820161373c565b6101a083015261089b600e820161373c565b6101c08301526108ad600f820161373c565b6101e08301526108bf6010820161373c565b6102008301526108d16011820161373c565b6102208301526108e36012820161373c565b6102408301526108f56013820161373c565b6102608301526109076014820161373c565b6102808301526109196015820161373c565b6102a083015261092b6016820161373c565b6102c083015261093d6017820161373c565b6102e083015261094f6018820161373c565b6103008301526109616019820161373c565b610320830152610973601a820161373c565b610340830152610985601b820161373c565b610360830152610997601c820161373c565b6103808301526109a9601d820161373c565b6103a0830152601e016109bb9061373c565b6103c08201526040518091602082528051602083016103e0905261040083016109e391613805565b6020820151838203601f190160408501526109fe9190613805565b6040820151838203601f19016060850152610a199190613805565b6060820151838203601f19016080850152610a349190613805565b6080820151838203601f190160a0850152610a4f9190613805565b60a0820151838203601f190160c0850152610a6a9190613805565b60c0820151838203601f190160e0850152610a859190613805565b60e0820151838203601f1901610100850152610aa19190613805565b610100820151838203601f1901610120850152610abe9190613805565b610120820151838203601f1901610140850152610adb9190613805565b610140820151838203601f1901610160850152610af89190613805565b610160820151838203601f1901610180850152610b159190613805565b610180820151838203601f19016101a0850152610b329190613805565b6101a0820151838203601f19016101c0850152610b4f9190613805565b6101c0820151838203601f19016101e0850152610b6c9190613805565b6101e0820151838203601f1901610200850152610b899190613805565b610200820151838203601f1901610220850152610ba69190613805565b610220820151838203601f1901610240850152610bc39190613805565b610240820151838203601f1901610260850152610be09190613805565b610260820151838203601f1901610280850152610bfd9190613805565b610280820151838203601f19016102a0850152610c1a9190613805565b6102a0820151838203601f19016102c0850152610c379190613805565b6102c0820151838203601f19016102e0850152610c549190613805565b6102e0820151838203601f1901610300850152610c719190613805565b610300820151838203601f1901610320850152610c8e9190613805565b610320820151838203601f1901610340850152610cab9190613805565b610340820151838203601f1901610360850152610cc89190613805565b610360820151838203601f1901610380850152610ce59190613805565b610380820151838203601f19016103a0850152610d029190613805565b6103a0820151838203601f19016103c0850152610d1f9190613805565b906103c0015190601f19838203016103e0840152610d3c91613805565b0390f35b3461061557610400366003190112610615576004356001600160401b03811161061557610d7190369060040161382a565b6105e0526109e0526024356001600160401b03811161061557610d9890369060040161382a565b60c052610600526044356001600160401b03811161061557610dbe90369060040161382a565b6080526106c0526064356001600160401b03811161061557610de490369060040161382a565b6101c0526105c0526001600160401b036084351161061557610e0b3660843560040161382a565b6101e052610800526001600160401b0360a4351161061557610e323660a43560040161382a565b6107a0526107c0526001600160401b0360c4351161061557610e593660c43560040161382a565b6104e052610920526001600160401b0360e4351161061557610e803660e43560040161382a565b61032052610ae0526001600160401b03610104351161061557610ea9366101043560040161382a565b610240526108e0526001600160401b03610124351161061557610ed2366101243560040161382a565b61050052610520526001600160401b03610144351161061557610efb366101443560040161382a565b6107e052610100526001600160401b03610164351161061557610f24366101643560040161382a565b61042052610a00526001600160401b03610184351161061557610f4d366101843560040161382a565b610260526102c0526001600160401b036101a4351161061557610f76366101a43560040161382a565b610700526103e0526001600160401b036101c4351161061557610f9f366101c43560040161382a565b6104c052610200526001600160401b036101e4351161061557610fc8366101e43560040161382a565b61034052610160526001600160401b03610204351161061557610ff1366102043560040161382a565b61058052610360526001600160401b0361022435116106155761101a366102243560040161382a565b6102a052610140526001600160401b03610244351161061557611043366102443560040161382a565b6109a052610460526001600160401b0361026435116106155761106c366102643560040161382a565b6106a052610b00526001600160401b03610284351161061557611095366102843560040161382a565b61018052610280526001600160401b036102a43511610615576110be366102a43560040161382a565b61074052610960526001600160401b036102c43511610615576110e7366102c43560040161382a565b610b405260e0526001600160401b036102e435116106155761110f366102e43560040161382a565b610aa052610640526001600160401b03610304351161061557611138366103043560040161382a565b61048052610900526001600160401b03610324351161061557611161366103243560040161382a565b61038052610a80526001600160401b0361034435116106155761118a366103443560040161382a565b6102e052610760526001600160401b036103643511610615576111b3366103643560040161382a565b61072052610a40526001600160401b036103843511610615576111dc366103843560040161382a565b6101a052610680526001600160401b036103a4351161061557611205366103a43560040161382a565b61086052610220526001600160401b036103c435116106155761122e366103c43560040161382a565b61056052610a60526001600160401b036103e4351161061557611257366103e43560040161382a565b61012052610880526000546001600160a01b031633036135d157611281604051806103c0526136ff565b6112913660c05161060051613857565b6103c051526112a6366080516106c051613857565b60206103c05101526112bf366101c0516105c051613857565b60406103c05101526112d8366101e05161080051613857565b60606103c05101526112f1366107a0516107c051613857565b60806103c051015261130a366104e05161092051613857565b60a06103c05101526113233661032051610ae051613857565b60c06103c051015261133c36610240516108e051613857565b60e06103c0510152611355366105005161052051613857565b6101006103c051015261136f366107e05161010051613857565b6101206103c05101526113893661042051610a0051613857565b6101406103c05101526113a336610260516102c051613857565b6101606103c05101526113bd36610700516103e051613857565b6101806103c05101526113d7366104c05161020051613857565b6101a06103c05101526113f1366103405161016051613857565b6101c06103c051015261140b366105805161036051613857565b6101e06103c0510152611425366102a05161014051613857565b6102006103c051015261143f366109a05161046051613857565b6102206103c0510152611459366106a051610b0051613857565b6102406103c0510152611473366101805161028051613857565b6102606103c051015261148d366107405161096051613857565b6102806103c05101526114a636610b405160e051613857565b6102a06103c05101526114c036610aa05161064051613857565b6102c06103c05101526114da366104805161090051613857565b6102e06103c05101526114f43661038051610a8051613857565b6103006103c051015261150e366102e05161076051613857565b6103206103c05101526115283661072051610a4051613857565b6103406103c0510152611542366101a05161068051613857565b6103606103c051015261155c366108605161022051613857565b6103806103c05101526115763661056051610a6051613857565b6103a06103c0510152611590366101205161088051613857565b6103c0805101526040516105e0516109e051823760016105e0518201526020816105e0518101030190206103c051518051906001600160401b03821161268a5781906115e6826115e086546136c5565b8661389d565b602090601f83116001146135655760009261355a575b50508160011b916000199060031b1c19161781555b60206103c05101518051906001600160401b03821161268a5781906116468261163d60018701546136c5565b6001870161389d565b602090601f83116001146134e8576000926134dd575b50508160011b916000199060031b1c19161760018201555b60406103c05101518051906001600160401b03821161268a5781906116a9826116a060028701546136c5565b6002870161389d565b602090601f831160011461346b57600092613460575b50508160011b916000199060031b1c19161760028201555b60606103c05101518051906001600160401b03821161268a57819061170c8261170360038701546136c5565b6003870161389d565b602090601f83116001146133ee576000926133e3575b50508160011b916000199060031b1c19161760038201555b60806103c05101518051906001600160401b03821161268a57819061176f8261176660048701546136c5565b6004870161389d565b602090601f831160011461337157600092613366575b50508160011b916000199060031b1c19161760048201555b60a06103c05101518051906001600160401b03821161268a5781906117d2826117c960058701546136c5565b6005870161389d565b602090601f83116001146132f4576000926132e9575b50508160011b916000199060031b1c19161760058201555b60c06103c05101518051906001600160401b03821161268a5781906118358261182c60068701546136c5565b6006870161389d565b602090601f83116001146132775760009261326c575b50508160011b916000199060031b1c19161760068201555b60e06103c05101518051906001600160401b03821161268a5781906118988261188f60078701546136c5565b6007870161389d565b602090601f83116001146131fa576000926131ef575b50508160011b916000199060031b1c19161760078201555b6101006103c05101518051906001600160401b03821161268a5781906118fc826118f360088701546136c5565b6008870161389d565b602090601f831160011461317d57600092613172575b50508160011b916000199060031b1c19161760088201555b6101206103c05101518051906001600160401b03821161268a5781906119608261195760098701546136c5565b6009870161389d565b602090601f8311600114613100576000926130f5575b50508160011b916000199060031b1c19161760098201555b6101406103c05101518051906001600160401b03821161268a5781906119c4826119bb600a8701546136c5565b600a870161389d565b602090601f831160011461308357600092613078575b50508160011b916000199060031b1c191617600a8201555b6101606103c05101518051906001600160401b03821161268a578190611a2882611a1f600b8701546136c5565b600b870161389d565b602090601f831160011461300657600092612ffb575b50508160011b916000199060031b1c191617600b8201555b6101806103c05101518051906001600160401b03821161268a578190611a8c82611a83600c8701546136c5565b600c870161389d565b602090601f8311600114612f8957600092612f7e575b50508160011b916000199060031b1c191617600c8201555b6101a06103c05101518051906001600160401b03821161268a578190611af082611ae7600d8701546136c5565b600d870161389d565b602090601f8311600114612f0c57600092612f01575b50508160011b916000199060031b1c191617600d8201555b6101c06103c05101518051906001600160401b03821161268a578190611b5482611b4b600e8701546136c5565b600e870161389d565b602090601f8311600114612e8f57600092612e84575b50508160011b916000199060031b1c191617600e8201555b6101e06103c05101518051906001600160401b03821161268a578190611bb882611baf600f8701546136c5565b600f870161389d565b602090601f8311600114612e1257600092612e07575b50508160011b916000199060031b1c191617600f8201555b6102006103c05101518051906001600160401b03821161268a578190611c1c82611c1360108701546136c5565b6010870161389d565b602090601f8311600114612d9557600092612d8a575b50508160011b916000199060031b1c19161760108201555b6102206103c05101518051906001600160401b03821161268a578190611c8082611c7760118701546136c5565b6011870161389d565b602090601f8311600114612d1857600092612d0d575b50508160011b916000199060031b1c19161760118201555b6102406103c05101518051906001600160401b03821161268a578190611ce482611cdb60128701546136c5565b6012870161389d565b602090601f8311600114612c9b57600092612c90575b50508160011b916000199060031b1c19161760128201555b6102606103c05101518051906001600160401b03821161268a578190611d4882611d3f60138701546136c5565b6013870161389d565b602090601f8311600114612c1e57600092612c13575b50508160011b916000199060031b1c19161760138201555b6102806103c05101518051906001600160401b03821161268a578190611dac82611da360148701546136c5565b6014870161389d565b602090601f8311600114612ba157600092612b96575b50508160011b916000199060031b1c19161760148201555b6102a06103c05101518051906001600160401b03821161268a578190611e1082611e0760158701546136c5565b6015870161389d565b602090601f8311600114612b2457600092612b19575b50508160011b916000199060031b1c19161760158201555b6102c06103c05101518051906001600160401b03821161268a578190611e7482611e6b60168701546136c5565b6016870161389d565b602090601f8311600114612aa757600092612a9c575b50508160011b916000199060031b1c19161760168201555b6102e06103c05101518051906001600160401b03821161268a578190611ed882611ecf60178701546136c5565b6017870161389d565b602090601f8311600114612a2a57600092612a1f575b50508160011b916000199060031b1c19161760178201555b6103006103c05101518051906001600160401b03821161268a578190611f3c82611f3360188701546136c5565b6018870161389d565b602090601f83116001146129ad576000926129a2575b50508160011b916000199060031b1c19161760188201555b6103206103c05101518051906001600160401b03821161268a578190611fa082611f9760198701546136c5565b6019870161389d565b602090601f831160011461293057600092612925575b50508160011b916000199060031b1c19161760198201555b6103406103c05101518051906001600160401b03821161268a57819061200482611ffb601a8701546136c5565b601a870161389d565b602090601f83116001146128b3576000926128a8575b50508160011b916000199060031b1c191617601a8201555b6103606103c05101518051906001600160401b03821161268a5781906120688261205f601b8701546136c5565b601b870161389d565b602090601f83116001146128365760009261282b575b50508160011b916000199060031b1c191617601b8201555b6103806103c05101518051906001600160401b03821161268a5781906120cc826120c3601c8701546136c5565b601c870161389d565b602090601f83116001146127b9576000926127ae575b50508160011b916000199060031b1c191617601c8201555b6103a06103c05101518051906001600160401b03821161268a57819061213082612127601d8701546136c5565b601d870161389d565b602090601f831160011461273c57600092612731575b50508160011b916000199060031b1c191617601d8201555b6103c0805101518051906001600160401b03821161268a5761219082612187601e8601546136c5565b601e860161389d565b602090601f83116001146126c157601e9291600091836126b6575b50508160011b916000199060031b1c1916179101555b6002546801000000000000000081101561268a578060016121e59201600255613678565b6126a0576105e0516001600160401b03811161268a5761220f9061220983546136c5565b8361389d565b6000906105e051601f811160011461261d57509060006105e051918261260f575b508160011b916000199060031b1c19161790555b610400604051806106e052527fa6f1f3c3841270df2374ad67f69ab158b4965a6c16667b94b4c309346a3f8af16125e56125cb6125b161259761257d61256361254961252f6125156124fc6124e26124c86124ae61249461247a61246061244661242c6124126123f86123de6123c46123aa61239061237761235e61234561232c6123136122fb6122e36104006106e051016105e0516109e0516138f1565b6106e051602081830391015260c051610600516138f1565b6106e05160408183039101526080516106c0516138f1565b6106e05160608183039101526101c0516105c0516138f1565b6106e05160808183039101526101e051610800516138f1565b6106e05160a08183039101526107a0516107c0516138f1565b6106e05160c08183039101526104e051610920516138f1565b6106e05160e081830391015261032051610ae0516138f1565b6106e051610100818303910152610240516108e0516138f1565b6106e05161012081830391015261050051610520516138f1565b6106e0516101408183039101526107e051610100516138f1565b6106e05161016081830391015261042051610a00516138f1565b6106e051610180818303910152610260516102c0516138f1565b6106e0516101a0818303910152610700516103e0516138f1565b6106e0516101c08183039101526104c051610200516138f1565b6106e0516101e081830391015261034051610160516138f1565b6106e05161020081830391015261058051610360516138f1565b6106e0516102208183039101526102a051610140516138f1565b6106e0516102408183039101526109a051610460516138f1565b6106e0516102608183039101526106a051610b00516138f1565b6106e05161028081830391015261018051610280516138f1565b6106e0516102a081830391015261074051610960516138f1565b6106e0516102c0818303910152610b405160e0516138f1565b6106e0516102e0818303910152610aa051610640516138f1565b6106e05161030081830391015261048051610900516138f1565b6106e05161032081830391015261038051610a80516138f1565b6106e0516103408183039101526102e051610760516138f1565b6106e05161036081830391015261072051610a40516138f1565b6106e0516103808183039101526101a051610680516138f1565b6106e0516103a081830391015261086051610220516138f1565b6106e0516103c081830391015261056051610a60516138f1565b6106e0516103e08183039101526126076106e0519161012051610880516138f1565b036106e051a1005b90506109e051013583612230565b8160005260206000206000936109e051905b601f198416861061267257600194955083601f19811610612658575b505050811b019055612244565b0135600019600384901b60f8161c1916905583808061264b565b9160206001819285850135815501930195019461262f565b634e487b7160e01b600052604160045260246000fd5b634e487b7160e01b600052600060045260246000fd5b0151905084806121ab565b90601e840160005260206000209160005b601f19851681106127195750918391600193601e95601f19811610612700575b505050811b019101556121c1565b015160001960f88460031b161c191690558480806126f2565b919260206001819286850151815501940192016126d2565b015190508380612146565b9250601d84016000526020600020906000935b601f1984168510612793576001945083601f1981161061277a575b505050811b01601d82015561215e565b015160001960f88460031b161c1916905583808061276a565b8181015183556020948501946001909301929091019061274f565b0151905083806120e2565b9250601c84016000526020600020906000935b601f1984168510612810576001945083601f198116106127f7575b505050811b01601c8201556120fa565b015160001960f88460031b161c191690558380806127e7565b818101518355602094850194600190930192909101906127cc565b01519050838061207e565b9250601b84016000526020600020906000935b601f198416851061288d576001945083601f19811610612874575b505050811b01601b820155612096565b015160001960f88460031b161c19169055838080612864565b81810151835560209485019460019093019290910190612849565b01519050838061201a565b9250601a84016000526020600020906000935b601f198416851061290a576001945083601f198116106128f1575b505050811b01601a820155612032565b015160001960f88460031b161c191690558380806128e1565b818101518355602094850194600190930192909101906128c6565b015190508380611fb6565b9250601984016000526020600020906000935b601f1984168510612987576001945083601f1981161061296e575b505050811b016019820155611fce565b015160001960f88460031b161c1916905583808061295e565b81810151835560209485019460019093019290910190612943565b015190508380611f52565b9250601884016000526020600020906000935b601f1984168510612a04576001945083601f198116106129eb575b505050811b016018820155611f6a565b015160001960f88460031b161c191690558380806129db565b818101518355602094850194600190930192909101906129c0565b015190508380611eee565b9250601784016000526020600020906000935b601f1984168510612a81576001945083601f19811610612a68575b505050811b016017820155611f06565b015160001960f88460031b161c19169055838080612a58565b81810151835560209485019460019093019290910190612a3d565b015190508380611e8a565b9250601684016000526020600020906000935b601f1984168510612afe576001945083601f19811610612ae5575b505050811b016016820155611ea2565b015160001960f88460031b161c19169055838080612ad5565b81810151835560209485019460019093019290910190612aba565b015190508380611e26565b9250601584016000526020600020906000935b601f1984168510612b7b576001945083601f19811610612b62575b505050811b016015820155611e3e565b015160001960f88460031b161c19169055838080612b52565b81810151835560209485019460019093019290910190612b37565b015190508380611dc2565b9250601484016000526020600020906000935b601f1984168510612bf8576001945083601f19811610612bdf575b505050811b016014820155611dda565b015160001960f88460031b161c19169055838080612bcf565b81810151835560209485019460019093019290910190612bb4565b015190508380611d5e565b9250601384016000526020600020906000935b601f1984168510612c75576001945083601f19811610612c5c575b505050811b016013820155611d76565b015160001960f88460031b161c19169055838080612c4c565b81810151835560209485019460019093019290910190612c31565b015190508380611cfa565b9250601284016000526020600020906000935b601f1984168510612cf2576001945083601f19811610612cd9575b505050811b016012820155611d12565b015160001960f88460031b161c19169055838080612cc9565b81810151835560209485019460019093019290910190612cae565b015190508380611c96565b9250601184016000526020600020906000935b601f1984168510612d6f576001945083601f19811610612d56575b505050811b016011820155611cae565b015160001960f88460031b161c19169055838080612d46565b81810151835560209485019460019093019290910190612d2b565b015190508380611c32565b9250601084016000526020600020906000935b601f1984168510612dec576001945083601f19811610612dd3575b505050811b016010820155611c4a565b015160001960f88460031b161c19169055838080612dc3565b81810151835560209485019460019093019290910190612da8565b015190508380611bce565b9250600f84016000526020600020906000935b601f1984168510612e69576001945083601f19811610612e50575b505050811b01600f820155611be6565b015160001960f88460031b161c19169055838080612e40565b81810151835560209485019460019093019290910190612e25565b015190508380611b6a565b9250600e84016000526020600020906000935b601f1984168510612ee6576001945083601f19811610612ecd575b505050811b01600e820155611b82565b015160001960f88460031b161c19169055838080612ebd565b81810151835560209485019460019093019290910190612ea2565b015190508380611b06565b9250600d84016000526020600020906000935b601f1984168510612f63576001945083601f19811610612f4a575b505050811b01600d820155611b1e565b015160001960f88460031b161c19169055838080612f3a565b81810151835560209485019460019093019290910190612f1f565b015190508380611aa2565b9250600c84016000526020600020906000935b601f1984168510612fe0576001945083601f19811610612fc7575b505050811b01600c820155611aba565b015160001960f88460031b161c19169055838080612fb7565b81810151835560209485019460019093019290910190612f9c565b015190508380611a3e565b9250600b84016000526020600020906000935b601f198416851061305d576001945083601f19811610613044575b505050811b01600b820155611a56565b015160001960f88460031b161c19169055838080613034565b81810151835560209485019460019093019290910190613019565b0151905083806119da565b9250600a84016000526020600020906000935b601f19841685106130da576001945083601f198116106130c1575b505050811b01600a8201556119f2565b015160001960f88460031b161c191690558380806130b1565b81810151835560209485019460019093019290910190613096565b015190508380611976565b9250600984016000526020600020906000935b601f1984168510613157576001945083601f1981161061313e575b505050811b01600982015561198e565b015160001960f88460031b161c1916905583808061312e565b81810151835560209485019460019093019290910190613113565b015190508380611912565b9250600884016000526020600020906000935b601f19841685106131d4576001945083601f198116106131bb575b505050811b01600882015561192a565b015160001960f88460031b161c191690558380806131ab565b81810151835560209485019460019093019290910190613190565b0151905083806118ae565b9250600784016000526020600020906000935b601f1984168510613251576001945083601f19811610613238575b505050811b0160078201556118c6565b015160001960f88460031b161c19169055838080613228565b8181015183556020948501946001909301929091019061320d565b01519050838061184b565b9250600684016000526020600020906000935b601f19841685106132ce576001945083601f198116106132b5575b505050811b016006820155611863565b015160001960f88460031b161c191690558380806132a5565b8181015183556020948501946001909301929091019061328a565b0151905083806117e8565b9250600584016000526020600020906000935b601f198416851061334b576001945083601f19811610613332575b505050811b016005820155611800565b015160001960f88460031b161c19169055838080613322565b81810151835560209485019460019093019290910190613307565b015190508380611785565b9250600484016000526020600020906000935b601f19841685106133c8576001945083601f198116106133af575b505050811b01600482015561179d565b015160001960f88460031b161c1916905583808061339f565b81810151835560209485019460019093019290910190613384565b015190508380611722565b9250600384016000526020600020906000935b601f1984168510613445576001945083601f1981161061342c575b505050811b01600382015561173a565b015160001960f88460031b161c1916905583808061341c565b81810151835560209485019460019093019290910190613401565b0151905083806116bf565b9250600284016000526020600020906000935b601f19841685106134c2576001945083601f198116106134a9575b505050811b0160028201556116d7565b015160001960f88460031b161c19169055838080613499565b8181015183556020948501946001909301929091019061347e565b01519050838061165c565b9250600184016000526020600020906000935b601f198416851061353f576001945083601f19811610613526575b505050811b016001820155611674565b015160001960f88460031b161c19169055838080613516565b818101518355602094850194600190930192909101906134fb565b0151905083806115fc565b9250836000526020600020906000935b601f19841685106135b6576001945083601f1981161061359d575b505050811b018155611611565b015160001960f88460031b161c19169055838080613590565b81810151835560209485019460019093019290910190613575565b60405162461bcd60e51b815260206004820152600b60248201526a139bdd081cdd195dd85c9960aa1b6044820152606490fd5b34610615576000366003190112610615576000546040516001600160a01b039091168152602090f35b34610615576020366003190112610615576004356002548110156106155761365490613678565b6126a057613664610d3c9161373c565b604051918291602083526020830190613805565b6002548110156136af5760026000527f405787fa12a823e0f2b7631cc41b3ba8828b3321ca811111fa75cd3aa3bb5ace0190600090565b634e487b7160e01b600052603260045260246000fd5b90600182811c921680156136f5575b60208310146136df57565b634e487b7160e01b600052602260045260246000fd5b91607f16916136d4565b6103e081019081106001600160401b0382111761268a57604052565b90601f801991011681019081106001600160401b0382111761268a57604052565b9060405191826000825492613750846136c5565b9081845260019485811690816000146137bf575060011461377c575b505061377a9250038361371b565b565b9093915060005260209081600020936000915b8183106137a757505061377a9350820101388061376c565b8554888401850152948501948794509183019161378f565b91505061377a94506020925060ff191682840152151560051b820101388061376c565b60005b8381106137f55750506000910152565b81810151838201526020016137e5565b9060209161381e815180928185528580860191016137e2565b601f01601f1916010190565b9181601f84011215610615578235916001600160401b038311610615576020838186019501011161061557565b9291926001600160401b03821161268a5760405191613880601f8201601f19166020018461371b565b829481845281830111610615578281602093846000960137010152565b90601f81116138ab57505050565b600091825260208220906020601f850160051c830194106138e7575b601f0160051c01915b8281106138dc57505050565b8181556001016138d0565b90925082906138c7565b908060209392818452848401376000828201840152601f01601f191601019056fea2646970667358221220dd07487b3fdcf6dbf8dcee85cb206df3c1287bd94758e71baf5b2a58917cdcb764736f6c63430008140033","opcodes":"PUSH1 0x80 DUP1 PUSH1 0x40 MSTORE CALLVALUE PUSH2 0x28 JUMPI PUSH1 0x0 DUP1 SLOAD PUSH1 0x1 PUSH1 0x1 PUSH1 0xA0 SHL SUB NOT AND CALLER OR SWAP1 SSTORE PUSH2 0x3948 SWAP1 DUP2 PUSH2 0x2E DUP3 CODECOPY RETURN JUMPDEST PUSH1 0x0 DUP1 REVERT INVALID PUSH2 0xB60 PUSH1 0x40 MSTORE PUSH1 0x4 CALLDATASIZE LT ISZERO PUSH2 0x13 JUMPI PUSH1 0x0 DUP1 REVERT JUMPDEST PUSH1 0x0 CALLDATALOAD PUSH1 0xE0 SHR DUP1 PUSH4 0xCB6AAF1 EQ PUSH2 0x362D JUMPI DUP1 PUSH4 0x637EEA19 EQ PUSH2 0x3604 JUMPI DUP1 PUSH4 0x76948996 EQ PUSH2 0xD40 JUMPI DUP1 PUSH4 0x83361522 EQ PUSH2 0x638 JUMPI DUP1 PUSH4 0xC212D16B EQ PUSH2 0x61A JUMPI PUSH4 0xDBC21424 EQ PUSH2 0x5F JUMPI PUSH1 0x0 DUP1 REVERT JUMPDEST CALLVALUE PUSH2 0x615 JUMPI PUSH1 0x20 CALLDATASIZE PUSH1 0x3 NOT ADD SLT PUSH2 0x615 JUMPI PUSH1 0x4 CALLDATALOAD PUSH1 0x1 PUSH1 0x1 PUSH1 0x40 SHL SUB DUP2 GT PUSH2 0x615 JUMPI CALLDATASIZE PUSH1 0x23 DUP3 ADD SLT ISZERO PUSH2 0x615 JUMPI CALLDATASIZE DUP2 PUSH1 0x4 ADD CALLDATALOAD SWAP2 PUSH1 0x24 ADD SWAP2 PUSH2 0xA0 SWAP3 PUSH2 0x3857 JUMP JUMPDEST PUSH1 0x40 MLOAD DUP2 DUP2 DUP1 SWAP4 MLOAD PUSH1 0x20 DUP2 SWAP4 ADD SWAP2 PUSH2 0xB7 SWAP3 PUSH2 0x37E2 JUMP JUMPDEST DUP2 ADD PUSH1 0x1 DUP2 MSTORE SUB PUSH1 0x20 ADD SWAP1 KECCAK256 DUP1 PUSH2 0x440 MSTORE PUSH2 0xD1 SWAP1 PUSH2 0x373C JUMP JUMPDEST PUSH2 0x440 MLOAD PUSH1 0x1 ADD PUSH2 0xE1 SWAP1 PUSH2 0x373C JUMP JUMPDEST PUSH2 0x940 MSTORE PUSH2 0x440 MLOAD PUSH1 0x2 ADD PUSH2 0xF5 SWAP1 PUSH2 0x373C JUMP JUMPDEST PUSH2 0x400 MSTORE PUSH2 0x440 MLOAD PUSH1 0x3 ADD PUSH2 0x109 SWAP1 PUSH2 0x373C JUMP JUMPDEST PUSH2 0x3A0 MSTORE PUSH2 0x440 MLOAD PUSH1 0x4 ADD PUSH2 0x11D SWAP1 PUSH2 0x373C JUMP JUMPDEST PUSH2 0x5A0 MSTORE PUSH2 0x440 MLOAD PUSH1 0x5 ADD PUSH2 0x131 SWAP1 PUSH2 0x373C JUMP JUMPDEST PUSH2 0x440 MLOAD PUSH1 0x6 ADD PUSH2 0x141 SWAP1 PUSH2 0x373C JUMP JUMPDEST PUSH2 0x440 MLOAD PUSH1 0x7 ADD PUSH2 0x151 SWAP1 PUSH2 0x373C JUMP JUMPDEST PUSH2 0x440 MLOAD PUSH1 0x8 ADD PUSH2 0x161 SWAP1 PUSH2 0x373C JUMP JUMPDEST PUSH2 0x440 MLOAD PUSH1 0x9 ADD PUSH2 0x171 SWAP1 PUSH2 0x373C JUMP JUMPDEST PUSH2 0x440 MLOAD PUSH1 0xA ADD PUSH2 0x181 SWAP1 PUSH2 0x373C JUMP JUMPDEST SWAP1 PUSH2 0x440 MLOAD PUSH1 0xB ADD PUSH2 0x192 SWAP1 PUSH2 0x373C JUMP JUMPDEST SWAP3 PUSH2 0x440 MLOAD PUSH1 0xC ADD PUSH2 0x1A3 SWAP1 PUSH2 0x373C JUMP JUMPDEST SWAP5 PUSH2 0x440 MLOAD PUSH1 0xD ADD PUSH2 0x1B4 SWAP1 PUSH2 0x373C JUMP JUMPDEST SWAP7 PUSH2 0x440 MLOAD PUSH1 0xE ADD PUSH2 0x1C5 SWAP1 PUSH2 0x373C JUMP JUMPDEST SWAP9 PUSH2 0x440 MLOAD PUSH1 0xF ADD PUSH2 0x1D6 SWAP1 PUSH2 0x373C JUMP JUMPDEST SWAP11 PUSH2 0x440 MLOAD PUSH1 0x10 ADD PUSH2 0x1E7 SWAP1 PUSH2 0x373C JUMP JUMPDEST PUSH2 0x780 MSTORE PUSH2 0x440 MLOAD PUSH1 0x11 ADD PUSH2 0x1FB SWAP1 PUSH2 0x373C JUMP JUMPDEST PUSH2 0xB20 MSTORE PUSH2 0x440 MLOAD PUSH1 0x12 ADD PUSH2 0x20F SWAP1 PUSH2 0x373C JUMP JUMPDEST PUSH2 0x840 MSTORE PUSH2 0x440 MLOAD PUSH1 0x13 ADD PUSH2 0x223 SWAP1 PUSH2 0x373C JUMP JUMPDEST PUSH2 0x980 MSTORE PUSH2 0x440 MLOAD PUSH1 0x14 ADD PUSH2 0x237 SWAP1 PUSH2 0x373C JUMP JUMPDEST PUSH2 0x540 MSTORE PUSH2 0x440 MLOAD PUSH1 0x15 ADD PUSH2 0x24B SWAP1 PUSH2 0x373C JUMP JUMPDEST PUSH2 0x8C0 MSTORE PUSH2 0x440 MLOAD PUSH1 0x16 ADD PUSH2 0x25F SWAP1 PUSH2 0x373C JUMP JUMPDEST PUSH2 0x620 MSTORE PUSH2 0x440 MLOAD PUSH1 0x17 ADD PUSH2 0x273 SWAP1 PUSH2 0x373C JUMP JUMPDEST PUSH2 0x820 MSTORE PUSH2 0x440 MLOAD PUSH1 0x18 ADD PUSH2 0x287 SWAP1 PUSH2 0x373C JUMP JUMPDEST PUSH2 0xAC0 MSTORE PUSH2 0x440 MLOAD PUSH1 0x19 ADD PUSH2 0x29B SWAP1 PUSH2 0x373C JUMP JUMPDEST PUSH2 0x660 MSTORE PUSH2 0x440 MLOAD PUSH1 0x1A ADD PUSH2 0x2AF SWAP1 PUSH2 0x373C JUMP JUMPDEST PUSH2 0x4A0 MSTORE PUSH2 0x440 MLOAD PUSH1 0x1B ADD PUSH2 0x2C3 SWAP1 PUSH2 0x373C JUMP JUMPDEST PUSH1 0xA0 MSTORE PUSH2 0x440 MLOAD PUSH1 0x1C ADD PUSH2 0x2D6 SWAP1 PUSH2 0x373C JUMP JUMPDEST PUSH2 0x8A0 MSTORE PUSH2 0x440 MLOAD PUSH1 0x1D ADD PUSH2 0x2EA SWAP1 PUSH2 0x373C JUMP JUMPDEST PUSH2 0x300 MSTORE PUSH2 0x440 MLOAD PUSH1 0x1E ADD PUSH2 0x2FE SWAP1 PUSH2 0x373C JUMP JUMPDEST PUSH2 0x9C0 MSTORE PUSH1 0x40 MLOAD DUP1 PUSH2 0xA20 MSTORE PUSH2 0x3E0 DUP1 SWAP2 MSTORE PUSH2 0xA20 MLOAD ADD PUSH2 0x31E SWAP2 PUSH2 0x3805 JUMP JUMPDEST PUSH2 0xA20 MLOAD DUP1 DUP3 SUB SWAP1 PUSH1 0x20 ADD MSTORE PUSH2 0x940 MLOAD SWAP1 PUSH2 0x338 SWAP2 PUSH2 0x3805 JUMP JUMPDEST PUSH2 0xA20 MLOAD DUP1 DUP3 SUB SWAP1 PUSH1 0x40 ADD MSTORE PUSH2 0x400 MLOAD SWAP1 PUSH2 0x352 SWAP2 PUSH2 0x3805 JUMP JUMPDEST PUSH2 0xA20 MLOAD DUP1 DUP3 SUB SWAP1 PUSH1 0x60 ADD MSTORE PUSH2 0x3A0 MLOAD SWAP1 PUSH2 0x36C SWAP2 PUSH2 0x3805 JUMP JUMPDEST PUSH2 0xA20 MLOAD DUP1 DUP3 SUB SWAP1 PUSH1 0x80 ADD MSTORE PUSH2 0x5A0 MLOAD SWAP1 PUSH2 0x386 SWAP2 PUSH2 0x3805 JUMP JUMPDEST PUSH2 0xA20 MLOAD DUP1 DUP3 SUB SWAP1 PUSH1 0xA0 ADD MSTORE PUSH2 0x39B SWAP2 PUSH2 0x3805 JUMP JUMPDEST PUSH2 0xA20 MLOAD DUP1 DUP3 SUB SWAP1 PUSH1 0xC0 ADD MSTORE PUSH2 0x3B0 SWAP2 PUSH2 0x3805 JUMP JUMPDEST PUSH2 0xA20 MLOAD DUP1 DUP3 SUB SWAP1 PUSH1 0xE0 ADD MSTORE PUSH2 0x3C5 SWAP2 PUSH2 0x3805 JUMP JUMPDEST PUSH2 0xA20 MLOAD DUP1 DUP3 SUB SWAP1 PUSH2 0x100 ADD MSTORE PUSH2 0x3DB SWAP2 PUSH2 0x3805 JUMP JUMPDEST PUSH2 0xA20 MLOAD DUP1 DUP3 SUB SWAP1 PUSH2 0x120 ADD MSTORE PUSH2 0x3F1 SWAP2 PUSH2 0x3805 JUMP JUMPDEST PUSH2 0xA20 MLOAD DUP1 DUP3 SUB SWAP1 PUSH2 0x140 ADD MSTORE PUSH2 0x407 SWAP2 PUSH2 0x3805 JUMP JUMPDEST PUSH2 0xA20 MLOAD DUP1 DUP3 SUB SWAP1 PUSH2 0x160 ADD MSTORE PUSH2 0x41D SWAP2 PUSH2 0x3805 JUMP JUMPDEST PUSH2 0xA20 MLOAD DUP1 DUP3 SUB SWAP1 PUSH2 0x180 ADD MSTORE PUSH2 0x433 SWAP2 PUSH2 0x3805 JUMP JUMPDEST PUSH2 0xA20 MLOAD DUP1 DUP3 SUB SWAP1 PUSH2 0x1A0 ADD MSTORE PUSH2 0x449 SWAP2 PUSH2 0x3805 JUMP JUMPDEST PUSH2 0xA20 MLOAD DUP1 DUP3 SUB SWAP1 PUSH2 0x1C0 ADD MSTORE PUSH2 0x45F SWAP2 PUSH2 0x3805 JUMP JUMPDEST PUSH2 0xA20 MLOAD DUP1 DUP3 SUB SWAP1 PUSH2 0x1E0 ADD MSTORE PUSH2 0x475 SWAP2 PUSH2 0x3805 JUMP JUMPDEST PUSH2 0xA20 MLOAD DUP1 DUP3 SUB SWAP1 PUSH2 0x200 ADD MSTORE PUSH2 0x780 MLOAD SWAP1 PUSH2 0x490 SWAP2 PUSH2 0x3805 JUMP JUMPDEST PUSH2 0xA20 MLOAD DUP1 DUP3 SUB SWAP1 PUSH2 0x220 ADD MSTORE PUSH2 0xB20 MLOAD SWAP1 PUSH2 0x4AB SWAP2 PUSH2 0x3805 JUMP JUMPDEST PUSH2 0xA20 MLOAD DUP1 DUP3 SUB SWAP1 PUSH2 0x240 ADD MSTORE PUSH2 0x840 MLOAD SWAP1 PUSH2 0x4C6 SWAP2 PUSH2 0x3805 JUMP JUMPDEST PUSH2 0xA20 MLOAD DUP1 DUP3 SUB SWAP1 PUSH2 0x260 ADD MSTORE PUSH2 0x980 MLOAD SWAP1 PUSH2 0x4E1 SWAP2 PUSH2 0x3805 JUMP JUMPDEST PUSH2 0xA20 MLOAD DUP1 DUP3 SUB SWAP1 PUSH2 0x280 ADD MSTORE PUSH2 0x540 MLOAD SWAP1 PUSH2 0x4FC SWAP2 PUSH2 0x3805 JUMP JUMPDEST PUSH2 0xA20 MLOAD DUP1 DUP3 SUB SWAP1 PUSH2 0x2A0 ADD MSTORE PUSH2 0x8C0 MLOAD SWAP1 PUSH2 0x517 SWAP2 PUSH2 0x3805 JUMP JUMPDEST PUSH2 0xA20 MLOAD DUP1 DUP3 SUB SWAP1 PUSH2 0x2C0 ADD MSTORE PUSH2 0x620 MLOAD SWAP1 PUSH2 0x532 SWAP2 PUSH2 0x3805 JUMP JUMPDEST PUSH2 0xA20 MLOAD DUP1 DUP3 SUB SWAP1 PUSH2 0x2E0 ADD MSTORE PUSH2 0x820 MLOAD SWAP1 PUSH2 0x54D SWAP2 PUSH2 0x3805 JUMP JUMPDEST PUSH2 0xA20 MLOAD DUP1 DUP3 SUB SWAP1 PUSH2 0x300 ADD MSTORE PUSH2 0xAC0 MLOAD SWAP1 PUSH2 0x568 SWAP2 PUSH2 0x3805 JUMP JUMPDEST PUSH2 0xA20 MLOAD DUP1 DUP3 SUB SWAP1 PUSH2 0x320 ADD MSTORE PUSH2 0x660 MLOAD SWAP1 PUSH2 0x583 SWAP2 PUSH2 0x3805 JUMP JUMPDEST PUSH2 0xA20 MLOAD DUP1 DUP3 SUB SWAP1 PUSH2 0x340 ADD MSTORE PUSH2 0x4A0 MLOAD SWAP1 PUSH2 0x59E SWAP2 PUSH2 0x3805 JUMP JUMPDEST PUSH2 0xA20 MLOAD DUP1 DUP3 SUB SWAP1 PUSH2 0x360 ADD MSTORE PUSH1 0xA0 MLOAD SWAP1 PUSH2 0x5B8 SWAP2 PUSH2 0x3805 JUMP JUMPDEST PUSH2 0xA20 MLOAD DUP1 DUP3 SUB SWAP1 PUSH2 0x380 ADD MSTORE PUSH2 0x8A0 MLOAD SWAP1 PUSH2 0x5D3 SWAP2 PUSH2 0x3805 JUMP JUMPDEST PUSH2 0xA20 MLOAD DUP1 DUP3 SUB SWAP1 PUSH2 0x3A0 ADD MSTORE PUSH2 0x300 MLOAD SWAP1 PUSH2 0x5EE SWAP2 PUSH2 0x3805 JUMP JUMPDEST PUSH2 0xA20 MLOAD DUP1 DUP3 SUB SWAP1 PUSH2 0x3C0 ADD MSTORE PUSH2 0xA20 MLOAD SWAP1 PUSH2 0x9C0 MLOAD SWAP1 PUSH2 0x60E SWAP2 PUSH2 0x3805 JUMP JUMPDEST SUB PUSH2 0xA20 MLOAD RETURN JUMPDEST PUSH1 0x0 DUP1 REVERT JUMPDEST CALLVALUE PUSH2 0x615 JUMPI PUSH1 0x0 CALLDATASIZE PUSH1 0x3 NOT ADD SLT PUSH2 0x615 JUMPI PUSH1 0x20 PUSH1 0x2 SLOAD PUSH1 0x40 MLOAD SWAP1 DUP2 MSTORE RETURN JUMPDEST CALLVALUE PUSH2 0x615 JUMPI PUSH1 0x20 CALLDATASIZE PUSH1 0x3 NOT ADD SLT PUSH2 0x615 JUMPI PUSH1 0x4 CALLDATALOAD PUSH1 0x1 PUSH1 0x1 PUSH1 0x40 SHL SUB DUP2 GT PUSH2 0x615 JUMPI PUSH2 0x668 SWAP1 CALLDATASIZE SWAP1 PUSH1 0x4 ADD PUSH2 0x382A JUMP JUMPDEST SWAP1 PUSH1 0x40 MLOAD PUSH2 0x675 DUP2 PUSH2 0x36FF JUMP JUMPDEST PUSH1 0x60 DUP2 MSTORE PUSH1 0x20 DUP2 ADD PUSH1 0x60 SWAP1 MSTORE PUSH1 0x40 DUP2 ADD PUSH1 0x60 SWAP1 MSTORE PUSH1 0x60 DUP2 ADD PUSH1 0x60 SWAP1 MSTORE PUSH1 0x80 DUP2 ADD PUSH1 0x60 SWAP1 MSTORE PUSH1 0xA0 DUP2 ADD PUSH1 0x60 SWAP1 MSTORE PUSH1 0xC0 DUP2 ADD PUSH1 0x60 SWAP1 MSTORE PUSH1 0xE0 DUP2 ADD PUSH1 0x60 SWAP1 MSTORE PUSH2 0x100 DUP2 ADD PUSH1 0x60 SWAP1 MSTORE PUSH2 0x120 DUP2 ADD PUSH1 0x60 SWAP1 MSTORE PUSH2 0x140 DUP2 ADD PUSH1 0x60 SWAP1 MSTORE PUSH2 0x160 DUP2 ADD PUSH1 0x60 SWAP1 MSTORE PUSH2 0x180 DUP2 ADD PUSH1 0x60 SWAP1 MSTORE PUSH2 0x1A0 DUP2 ADD PUSH1 0x60 SWAP1 MSTORE PUSH2 0x1C0 DUP2 ADD PUSH1 0x60 SWAP1 MSTORE PUSH2 0x1E0 DUP2 ADD PUSH1 0x60 SWAP1 MSTORE PUSH2 0x200 DUP2 ADD PUSH1 0x60 SWAP1 MSTORE PUSH2 0x220 DUP2 ADD PUSH1 0x60 SWAP1 MSTORE PUSH2 0x240 DUP2 ADD PUSH1 0x60 SWAP1 MSTORE PUSH2 0x260 DUP2 ADD PUSH1 0x60 SWAP1 MSTORE PUSH2 0x280 DUP2 ADD PUSH1 0x60 SWAP1 MSTORE PUSH2 0x2A0 DUP2 ADD PUSH1 0x60 SWAP1 MSTORE PUSH2 0x2C0 DUP2 ADD PUSH1 0x60 SWAP1 MSTORE PUSH2 0x2E0 DUP2 ADD PUSH1 0x60 SWAP1 MSTORE PUSH2 0x300 DUP2 ADD PUSH1 0x60 SWAP1 MSTORE PUSH2 0x320 DUP2 ADD PUSH1 0x60 SWAP1 MSTORE PUSH2 0x340 DUP2 ADD PUSH1 0x60 SWAP1 MSTORE PUSH2 0x360 DUP2 ADD PUSH1 0x60 SWAP1 MSTORE PUSH2 0x380 DUP2 ADD PUSH1 0x60 SWAP1 MSTORE PUSH2 0x3A0 DUP2 ADD PUSH1 0x60 SWAP1 MSTORE PUSH2 0x3C0 ADD PUSH1 0x60 SWAP1 MSTORE DUP2 PUSH1 0x40 MLOAD SWAP3 DUP4 SWAP3 DUP4 CALLDATACOPY DUP2 ADD PUSH1 0x1 DUP2 MSTORE SUB PUSH1 0x20 ADD SWAP1 KECCAK256 PUSH1 0x40 MLOAD SWAP1 PUSH2 0x7A1 DUP3 PUSH2 0x36FF JUMP JUMPDEST PUSH2 0x7AA DUP2 PUSH2 0x373C JUMP JUMPDEST DUP3 MSTORE PUSH2 0x7B8 PUSH1 0x1 DUP3 ADD PUSH2 0x373C JUMP JUMPDEST PUSH1 0x20 DUP4 ADD MSTORE PUSH2 0x7C9 PUSH1 0x2 DUP3 ADD PUSH2 0x373C JUMP JUMPDEST PUSH1 0x40 DUP4 ADD MSTORE PUSH2 0x7DA PUSH1 0x3 DUP3 ADD PUSH2 0x373C JUMP JUMPDEST PUSH1 0x60 DUP4 ADD MSTORE PUSH2 0x7EB PUSH1 0x4 DUP3 ADD PUSH2 0x373C JUMP JUMPDEST PUSH1 0x80 DUP4 ADD MSTORE PUSH2 0x7FC PUSH1 0x5 DUP3 ADD PUSH2 0x373C JUMP JUMPDEST PUSH1 0xA0 DUP4 ADD MSTORE PUSH2 0x80D PUSH1 0x6 DUP3 ADD PUSH2 0x373C JUMP JUMPDEST PUSH1 0xC0 DUP4 ADD MSTORE PUSH2 0x81E PUSH1 0x7 DUP3 ADD PUSH2 0x373C JUMP JUMPDEST PUSH1 0xE0 DUP4 ADD MSTORE PUSH2 0x82F PUSH1 0x8 DUP3 ADD PUSH2 0x373C JUMP JUMPDEST PUSH2 0x100 DUP4 ADD MSTORE PUSH2 0x841 PUSH1 0x9 DUP3 ADD PUSH2 0x373C JUMP JUMPDEST PUSH2 0x120 DUP4 ADD MSTORE PUSH2 0x853 PUSH1 0xA DUP3 ADD PUSH2 0x373C JUMP JUMPDEST PUSH2 0x140 DUP4 ADD MSTORE PUSH2 0x865 PUSH1 0xB DUP3 ADD PUSH2 0x373C JUMP JUMPDEST PUSH2 0x160 DUP4 ADD MSTORE PUSH2 0x877 PUSH1 0xC DUP3 ADD PUSH2 0x373C JUMP JUMPDEST PUSH2 0x180 DUP4 ADD MSTORE PUSH2 0x889 PUSH1 0xD DUP3 ADD PUSH2 0x373C JUMP JUMPDEST PUSH2 0x1A0 DUP4 ADD MSTORE PUSH2 0x89B PUSH1 0xE DUP3 ADD PUSH2 0x373C JUMP JUMPDEST PUSH2 0x1C0 DUP4 ADD MSTORE PUSH2 0x8AD PUSH1 0xF DUP3 ADD PUSH2 0x373C JUMP JUMPDEST PUSH2 0x1E0 DUP4 ADD MSTORE PUSH2 0x8BF PUSH1 0x10 DUP3 ADD PUSH2 0x373C JUMP JUMPDEST PUSH2 0x200 DUP4 ADD MSTORE PUSH2 0x8D1 PUSH1 0x11 DUP3 ADD PUSH2 0x373C JUMP JUMPDEST PUSH2 0x220 DUP4 ADD MSTORE PUSH2 0x8E3 PUSH1 0x12 DUP3 ADD PUSH2 0x373C JUMP JUMPDEST PUSH2 0x240 DUP4 ADD MSTORE PUSH2 0x8F5 PUSH1 0x13 DUP3 ADD PUSH2 0x373C JUMP JUMPDEST PUSH2 0x260 DUP4 ADD MSTORE PUSH2 0x907 PUSH1 0x14 DUP3 ADD PUSH2 0x373C JUMP JUMPDEST PUSH2 0x280 DUP4 ADD MSTORE PUSH2 0x919 PUSH1 0x15 DUP3 ADD PUSH2 0x373C JUMP JUMPDEST PUSH2 0x2A0 DUP4 ADD MSTORE PUSH2 0x92B PUSH1 0x16 DUP3 ADD PUSH2 0x373C JUMP JUMPDEST PUSH2 0x2C0 DUP4 ADD MSTORE PUSH2 0x93D PUSH1 0x17 DUP3 ADD PUSH2 0x373C JUMP JUMPDEST PUSH2 0x2E0 DUP4 ADD MSTORE PUSH2 0x94F PUSH1 0x18 DUP3 ADD PUSH2 0x373C JUMP JUMPDEST PUSH2 0x300 DUP4 ADD MSTORE PUSH2 0x961 PUSH1 0x19 DUP3 ADD PUSH2 0x373C JUMP JUMPDEST PUSH2 0x320 DUP4 ADD MSTORE PUSH2 0x973 PUSH1 0x1A DUP3 ADD PUSH2 0x373C JUMP JUMPDEST PUSH2 0x340 DUP4 ADD MSTORE PUSH2 0x985 PUSH1 0x1B DUP3 ADD PUSH2 0x373C JUMP JUMPDEST PUSH2 0x360 DUP4 ADD MSTORE PUSH2 0x997 PUSH1 0x1C DUP3 ADD PUSH2 0x373C JUMP JUMPDEST PUSH2 0x380 DUP4 ADD MSTORE PUSH2 0x9A9 PUSH1 0x1D DUP3 ADD PUSH2 0x373C JUMP JUMPDEST PUSH2 0x3A0 DUP4 ADD MSTORE PUSH1 0x1E ADD PUSH2 0x9BB SWAP1 PUSH2 0x373C JUMP JUMPDEST PUSH2 0x3C0 DUP3 ADD MSTORE PUSH1 0x40 MLOAD DUP1 SWAP2 PUSH1 0x20 DUP3 MSTORE DUP1 MLOAD PUSH1 0x20 DUP4 ADD PUSH2 0x3E0 SWAP1 MSTORE PUSH2 0x400 DUP4 ADD PUSH2 0x9E3 SWAP2 PUSH2 0x3805 JUMP JUMPDEST PUSH1 0x20 DUP3 ADD MLOAD DUP4 DUP3 SUB PUSH1 0x1F NOT ADD PUSH1 0x40 DUP6 ADD MSTORE PUSH2 0x9FE SWAP2 SWAP1 PUSH2 0x3805 JUMP JUMPDEST PUSH1 0x40 DUP3 ADD MLOAD DUP4 DUP3 SUB PUSH1 0x1F NOT ADD PUSH1 0x60 DUP6 ADD MSTORE PUSH2 0xA19 SWAP2 SWAP1 PUSH2 0x3805 JUMP JUMPDEST PUSH1 0x60 DUP3 ADD MLOAD DUP4 DUP3 SUB PUSH1 0x1F NOT ADD PUSH1 0x80 DUP6 ADD MSTORE PUSH2 0xA34 SWAP2 SWAP1 PUSH2 0x3805 JUMP JUMPDEST PUSH1 0x80 DUP3 ADD MLOAD DUP4 DUP3 SUB PUSH1 0x1F NOT ADD PUSH1 0xA0 DUP6 ADD MSTORE PUSH2 0xA4F SWAP2 SWAP1 PUSH2 0x3805 JUMP JUMPDEST PUSH1 0xA0 DUP3 ADD MLOAD DUP4 DUP3 SUB PUSH1 0x1F NOT ADD PUSH1 0xC0 DUP6 ADD MSTORE PUSH2 0xA6A SWAP2 SWAP1 PUSH2 0x3805 JUMP JUMPDEST PUSH1 0xC0 DUP3 ADD MLOAD DUP4 DUP3 SUB PUSH1 0x1F NOT ADD PUSH1 0xE0 DUP6 ADD MSTORE PUSH2 0xA85 SWAP2 SWAP1 PUSH2 0x3805 JUMP JUMPDEST PUSH1 0xE0 DUP3 ADD MLOAD DUP4 DUP3 SUB PUSH1 0x1F NOT ADD PUSH2 0x100 DUP6 ADD MSTORE PUSH2 0xAA1 SWAP2 SWAP1 PUSH2 0x3805 JUMP JUMPDEST PUSH2 0x100 DUP3 ADD MLOAD DUP4 DUP3 SUB PUSH1 0x1F NOT ADD PUSH2 0x120 DUP6 ADD MSTORE PUSH2 0xABE SWAP2 SWAP1 PUSH2 0x3805 JUMP JUMPDEST PUSH2 0x120 DUP3 ADD MLOAD DUP4 DUP3 SUB PUSH1 0x1F NOT ADD PUSH2 0x140 DUP6 ADD MSTORE PUSH2 0xADB SWAP2 SWAP1 PUSH2 0x3805 JUMP JUMPDEST PUSH2 0x140 DUP3 ADD MLOAD DUP4 DUP3 SUB PUSH1 0x1F NOT ADD PUSH2 0x160 DUP6 ADD MSTORE PUSH2 0xAF8 SWAP2 SWAP1 PUSH2 0x3805 JUMP JUMPDEST PUSH2 0x160 DUP3 ADD MLOAD DUP4 DUP3 SUB PUSH1 0x1F NOT ADD PUSH2 0x180 DUP6 ADD MSTORE PUSH2 0xB15 SWAP2 SWAP1 PUSH2 0x3805 JUMP JUMPDEST PUSH2 0x180 DUP3 ADD MLOAD DUP4 DUP3 SUB PUSH1 0x1F NOT ADD PUSH2 0x1A0 DUP6 ADD MSTORE PUSH2 0xB32 SWAP2 SWAP1 PUSH2 0x3805 JUMP JUMPDEST PUSH2 0x1A0 DUP3 ADD MLOAD DUP4 DUP3 SUB PUSH1 0x1F NOT ADD PUSH2 0x1C0 DUP6 ADD MSTORE PUSH2 0xB4F SWAP2 SWAP1 PUSH2 0x3805 JUMP JUMPDEST PUSH2 0x1C0 DUP3 ADD MLOAD DUP4 DUP3 SUB PUSH1 0x1F NOT ADD PUSH2 0x1E0 DUP6 ADD MSTORE PUSH2 0xB6C SWAP2 SWAP1 PUSH2 0x3805 JUMP JUMPDEST PUSH2 0x1E0 DUP3 ADD MLOAD DUP4 DUP3 SUB PUSH1 0x1F NOT ADD PUSH2 0x200 DUP6 ADD MSTORE PUSH2 0xB89 SWAP2 SWAP1 PUSH2 0x3805 JUMP JUMPDEST PUSH2 0x200 DUP3 ADD MLOAD DUP4 DUP3 SUB PUSH1 0x1F NOT ADD PUSH2 0x220 DUP6 ADD MSTORE PUSH2 0xBA6 SWAP2 SWAP1 PUSH2 0x3805 JUMP JUMPDEST PUSH2 0x220 DUP3 ADD MLOAD DUP4 DUP3 SUB PUSH1 0x1F NOT ADD PUSH2 0x240 DUP6 ADD MSTORE PUSH2 0xBC3 SWAP2 SWAP1 PUSH2 0x3805 JUMP JUMPDEST PUSH2 0x240 DUP3 ADD MLOAD DUP4 DUP3 SUB PUSH1 0x1F NOT ADD PUSH2 0x260 DUP6 ADD MSTORE PUSH2 0xBE0 SWAP2 SWAP1 PUSH2 0x3805 JUMP JUMPDEST PUSH2 0x260 DUP3 ADD MLOAD DUP4 DUP3 SUB PUSH1 0x1F NOT ADD PUSH2 0x280 DUP6 ADD MSTORE PUSH2 0xBFD SWAP2 SWAP1 PUSH2 0x3805 JUMP JUMPDEST PUSH2 0x280 DUP3 ADD MLOAD DUP4 DUP3 SUB PUSH1 0x1F NOT ADD PUSH2 0x2A0 DUP6 ADD MSTORE PUSH2 0xC1A SWAP2 SWAP1 PUSH2 0x3805 JUMP JUMPDEST PUSH2 0x2A0 DUP3 ADD MLOAD DUP4 DUP3 SUB PUSH1 0x1F NOT ADD PUSH2 0x2C0 DUP6 ADD MSTORE PUSH2 0xC37 SWAP2 SWAP1 PUSH2 0x3805 JUMP JUMPDEST PUSH2 0x2C0 DUP3 ADD MLOAD DUP4 DUP3 SUB PUSH1 0x1F NOT ADD PUSH2 0x2E0 DUP6 ADD MSTORE PUSH2 0xC54 SWAP2 SWAP1 PUSH2 0x3805 JUMP JUMPDEST PUSH2 0x2E0 DUP3 ADD MLOAD DUP4 DUP3 SUB PUSH1 0x1F NOT ADD PUSH2 0x300 DUP6 ADD MSTORE PUSH2 0xC71 SWAP2 SWAP1 PUSH2 0x3805 JUMP JUMPDEST PUSH2 0x300 DUP3 ADD MLOAD DUP4 DUP3 SUB PUSH1 0x1F NOT ADD PUSH2 0x320 DUP6 ADD MSTORE PUSH2 0xC8E SWAP2 SWAP1 PUSH2 0x3805 JUMP JUMPDEST PUSH2 0x320 DUP3 ADD MLOAD DUP4 DUP3 SUB PUSH1 0x1F NOT ADD PUSH2 0x340 DUP6 ADD MSTORE PUSH2 0xCAB SWAP2 SWAP1 PUSH2 0x3805 JUMP JUMPDEST PUSH2 0x340 DUP3 ADD MLOAD DUP4 DUP3 SUB PUSH1 0x1F NOT ADD PUSH2 0x360 DUP6 ADD MSTORE PUSH2 0xCC8 SWAP2 SWAP1 PUSH2 0x3805 JUMP JUMPDEST PUSH2 0x360 DUP3 ADD MLOAD DUP4 DUP3 SUB PUSH1 0x1F NOT ADD PUSH2 0x380 DUP6 ADD MSTORE PUSH2 0xCE5 SWAP2 SWAP1 PUSH2 0x3805 JUMP JUMPDEST PUSH2 0x380 DUP3 ADD MLOAD DUP4 DUP3 SUB PUSH1 0x1F NOT ADD PUSH2 0x3A0 DUP6 ADD MSTORE PUSH2 0xD02 SWAP2 SWAP1 PUSH2 0x3805 JUMP JUMPDEST PUSH2 0x3A0 DUP3 ADD MLOAD DUP4 DUP3 SUB PUSH1 0x1F NOT ADD PUSH2 0x3C0 DUP6 ADD MSTORE PUSH2 0xD1F SWAP2 SWAP1 PUSH2 0x3805 JUMP JUMPDEST SWAP1 PUSH2 0x3C0 ADD MLOAD SWAP1 PUSH1 0x1F NOT DUP4 DUP3 SUB ADD PUSH2 0x3E0 DUP5 ADD MSTORE PUSH2 0xD3C SWAP2 PUSH2 0x3805 JUMP JUMPDEST SUB SWAP1 RETURN JUMPDEST CALLVALUE PUSH2 0x615 JUMPI PUSH2 0x400 CALLDATASIZE PUSH1 0x3 NOT ADD SLT PUSH2 0x615 JUMPI PUSH1 0x4 CALLDATALOAD PUSH1 0x1 PUSH1 0x1 PUSH1 0x40 SHL SUB DUP2 GT PUSH2 0x615 JUMPI PUSH2 0xD71 SWAP1 CALLDATASIZE SWAP1 PUSH1 0x4 ADD PUSH2 0x382A JUMP JUMPDEST PUSH2 0x5E0 MSTORE PUSH2 0x9E0 MSTORE PUSH1 0x24 CALLDATALOAD PUSH1 0x1 PUSH1 0x1 PUSH1 0x40 SHL SUB DUP2 GT PUSH2 0x615 JUMPI PUSH2 0xD98 SWAP1 CALLDATASIZE SWAP1 PUSH1 0x4 ADD PUSH2 0x382A JUMP JUMPDEST PUSH1 0xC0 MSTORE PUSH2 0x600 MSTORE PUSH1 0x44 CALLDATALOAD PUSH1 0x1 PUSH1 0x1 PUSH1 0x40 SHL SUB DUP2 GT PUSH2 0x615 JUMPI PUSH2 0xDBE SWAP1 CALLDATASIZE SWAP1 PUSH1 0x4 ADD PUSH2 0x382A JUMP JUMPDEST PUSH1 0x80 MSTORE PUSH2 0x6C0 MSTORE PUSH1 0x64 CALLDATALOAD PUSH1 0x1 PUSH1 0x1 PUSH1 0x40 SHL SUB DUP2 GT PUSH2 0x615 JUMPI PUSH2 0xDE4 SWAP1 CALLDATASIZE SWAP1 PUSH1 0x4 ADD PUSH2 0x382A JUMP JUMPDEST PUSH2 0x1C0 MSTORE PUSH2 0x5C0 MSTORE PUSH1 0x1 PUSH1 0x1 PUSH1 0x40 SHL SUB PUSH1 0x84 CALLDATALOAD GT PUSH2 0x615 JUMPI PUSH2 0xE0B CALLDATASIZE PUSH1 0x84 CALLDATALOAD PUSH1 0x4 ADD PUSH2 0x382A JUMP JUMPDEST PUSH2 0x1E0 MSTORE PUSH2 0x800 MSTORE PUSH1 0x1 PUSH1 0x1 PUSH1 0x40 SHL SUB PUSH1 0xA4 CALLDATALOAD GT PUSH2 0x615 JUMPI PUSH2 0xE32 CALLDATASIZE PUSH1 0xA4 CALLDATALOAD PUSH1 0x4 ADD PUSH2 0x382A JUMP JUMPDEST PUSH2 0x7A0 MSTORE PUSH2 0x7C0 MSTORE PUSH1 0x1 PUSH1 0x1 PUSH1 0x40 SHL SUB PUSH1 0xC4 CALLDATALOAD GT PUSH2 0x615 JUMPI PUSH2 0xE59 CALLDATASIZE PUSH1 0xC4 CALLDATALOAD PUSH1 0x4 ADD PUSH2 0x382A JUMP JUMPDEST PUSH2 0x4E0 MSTORE PUSH2 0x920 MSTORE PUSH1 0x1 PUSH1 0x1 PUSH1 0x40 SHL SUB PUSH1 0xE4 CALLDATALOAD GT PUSH2 0x615 JUMPI PUSH2 0xE80 CALLDATASIZE PUSH1 0xE4 CALLDATALOAD PUSH1 0x4 ADD PUSH2 0x382A JUMP JUMPDEST PUSH2 0x320 MSTORE PUSH2 0xAE0 MSTORE PUSH1 0x1 PUSH1 0x1 PUSH1 0x40 SHL SUB PUSH2 0x104 CALLDATALOAD GT PUSH2 0x615 JUMPI PUSH2 0xEA9 CALLDATASIZE PUSH2 0x104 CALLDATALOAD PUSH1 0x4 ADD PUSH2 0x382A JUMP JUMPDEST PUSH2 0x240 MSTORE PUSH2 0x8E0 MSTORE PUSH1 0x1 PUSH1 0x1 PUSH1 0x40 SHL SUB PUSH2 0x124 CALLDATALOAD GT PUSH2 0x615 JUMPI PUSH2 0xED2 CALLDATASIZE PUSH2 0x124 CALLDATALOAD PUSH1 0x4 ADD PUSH2 0x382A JUMP JUMPDEST PUSH2 0x500 MSTORE PUSH2 0x520 MSTORE PUSH1 0x1 PUSH1 0x1 PUSH1 0x40 SHL SUB PUSH2 0x144 CALLDATALOAD GT PUSH2 0x615 JUMPI PUSH2 0xEFB CALLDATASIZE PUSH2 0x144 CALLDATALOAD PUSH1 0x4 ADD PUSH2 0x382A JUMP JUMPDEST PUSH2 0x7E0 MSTORE PUSH2 0x100 MSTORE PUSH1 0x1 PUSH1 0x1 PUSH1 0x40 SHL SUB PUSH2 0x164 CALLDATALOAD GT PUSH2 0x615 JUMPI PUSH2 0xF24 CALLDATASIZE PUSH2 0x164 CALLDATALOAD PUSH1 0x4 ADD PUSH2 0x382A JUMP JUMPDEST PUSH2 0x420 MSTORE PUSH2 0xA00 MSTORE PUSH1 0x1 PUSH1 0x1 PUSH1 0x40 SHL SUB PUSH2 0x184 CALLDATALOAD GT PUSH2 0x615 JUMPI PUSH2 0xF4D CALLDATASIZE PUSH2 0x184 CALLDATALOAD PUSH1 0x4 ADD PUSH2 0x382A JUMP JUMPDEST PUSH2 0x260 MSTORE PUSH2 0x2C0 MSTORE PUSH1 0x1 PUSH1 0x1 PUSH1 0x40 SHL SUB PUSH2 0x1A4 CALLDATALOAD GT PUSH2 0x615 JUMPI PUSH2 0xF76 CALLDATASIZE PUSH2 0x1A4 CALLDATALOAD PUSH1 0x4 ADD PUSH2 0x382A JUMP JUMPDEST PUSH2 0x700 MSTORE PUSH2 0x3E0 MSTORE PUSH1 0x1 PUSH1 0x1 PUSH1 0x40 SHL SUB PUSH2 0x1C4 CALLDATALOAD GT PUSH2 0x615 JUMPI PUSH2 0xF9F CALLDATASIZE PUSH2 0x1C4 CALLDATALOAD PUSH1 0x4 ADD PUSH2 0x382A JUMP JUMPDEST PUSH2 0x4C0 MSTORE PUSH2 0x200 MSTORE PUSH1 0x1 PUSH1 0x1 PUSH1 0x40 SHL SUB PUSH2 0x1E4 CALLDATALOAD GT PUSH2 0x615 JUMPI PUSH2 0xFC8 CALLDATASIZE PUSH2 0x1E4 CALLDATALOAD PUSH1 0x4 ADD PUSH2 0x382A JUMP JUMPDEST PUSH2 0x340 MSTORE PUSH2 0x160 MSTORE PUSH1 0x1 PUSH1 0x1 PUSH1 0x40 SHL SUB PUSH2 0x204 CALLDATALOAD GT PUSH2 0x615 JUMPI PUSH2 0xFF1 CALLDATASIZE PUSH2 0x204 CALLDATALOAD PUSH1 0x4 ADD PUSH2 0x382A JUMP JUMPDEST PUSH2 0x580 MSTORE PUSH2 0x360 MSTORE PUSH1 0x1 PUSH1 0x1 PUSH1 0x40 SHL SUB PUSH2 0x224 CALLDATALOAD GT PUSH2 0x615 JUMPI PUSH2 0x101A CALLDATASIZE PUSH2 0x224 CALLDATALOAD PUSH1 0x4 ADD PUSH2 0x382A JUMP JUMPDEST PUSH2 0x2A0 MSTORE PUSH2 0x140 MSTORE PUSH1 0x1 PUSH1 0x1 PUSH1 0x40 SHL SUB PUSH2 0x244 CALLDATALOAD GT PUSH2 0x615 JUMPI PUSH2 0x1043 CALLDATASIZE PUSH2 0x244 CALLDATALOAD PUSH1 0x4 ADD PUSH2 0x382A JUMP JUMPDEST PUSH2 0x9A0 MSTORE PUSH2 0x460 MSTORE PUSH1 0x1 PUSH1 0x1 PUSH1 0x40 SHL SUB PUSH2 0x264 CALLDATALOAD GT PUSH2 0x615 JUMPI PUSH2 0x106C CALLDATASIZE PUSH2 0x264 CALLDATALOAD PUSH1 0x4 ADD PUSH2 0x382A JUMP JUMPDEST PUSH2 0x6A0 MSTORE PUSH2 0xB00 MSTORE PUSH1 0x1 PUSH1 0x1 PUSH1 0x40 SHL SUB PUSH2 0x284 CALLDATALOAD GT PUSH2 0x615 JUMPI PUSH2 0x1095 CALLDATASIZE PUSH2 0x284 CALLDATALOAD PUSH1 0x4 ADD PUSH2 0x382A JUMP JUMPDEST PUSH2 0x180 MSTORE PUSH2 0x280 MSTORE PUSH1 0x1 PUSH1 0x1 PUSH1 0x40 SHL SUB PUSH2 0x2A4 CALLDATALOAD GT PUSH2 0x615 JUMPI PUSH2 0x10BE CALLDATASIZE PUSH2 0x2A4 CALLDATALOAD PUSH1 0x4 ADD PUSH2 0x382A JUMP JUMPDEST PUSH2 0x740 MSTORE PUSH2 0x960 MSTORE PUSH1 0x1 PUSH1 0x1 PUSH1 0x40 SHL SUB PUSH2 0x2C4 CALLDATALOAD GT PUSH2 0x615 JUMPI PUSH2 0x10E7 CALLDATASIZE PUSH2 0x2C4 CALLDATALOAD PUSH1 0x4 ADD PUSH2 0x382A JUMP JUMPDEST PUSH2 0xB40 MSTORE PUSH1 0xE0 MSTORE PUSH1 0x1 PUSH1 0x1 PUSH1 0x40 SHL SUB PUSH2 0x2E4 CALLDATALOAD GT PUSH2 0x615 JUMPI PUSH2 0x110F CALLDATASIZE PUSH2 0x2E4 CALLDATALOAD PUSH1 0x4 ADD PUSH2 0x382A JUMP JUMPDEST PUSH2 0xAA0 MSTORE PUSH2 0x640 MSTORE PUSH1 0x1 PUSH1 0x1 PUSH1 0x40 SHL SUB PUSH2 0x304 CALLDATALOAD GT PUSH2 0x615 JUMPI PUSH2 0x1138 CALLDATASIZE PUSH2 0x304 CALLDATALOAD PUSH1 0x4 ADD PUSH2 0x382A JUMP JUMPDEST PUSH2 0x480 MSTORE PUSH2 0x900 MSTORE PUSH1 0x1 PUSH1 0x1 PUSH1 0x40 SHL SUB PUSH2 0x324 CALLDATALOAD GT PUSH2 0x615 JUMPI PUSH2 0x1161 CALLDATASIZE PUSH2 0x324 CALLDATALOAD PUSH1 0x4 ADD PUSH2 0x382A JUMP JUMPDEST PUSH2 0x380 MSTORE PUSH2 0xA80 MSTORE PUSH1 0x1 PUSH1 0x1 PUSH1 0x40 SHL SUB PUSH2 0x344 CALLDATALOAD GT PUSH2 0x615 JUMPI PUSH2 0x118A CALLDATASIZE PUSH2 0x344 CALLDATALOAD PUSH1 0x4 ADD PUSH2 0x382A JUMP JUMPDEST PUSH2 0x2E0 MSTORE PUSH2 0x760 MSTORE PUSH1 0x1 PUSH1 0x1 PUSH1 0x40 SHL SUB PUSH2 0x364 CALLDATALOAD GT PUSH2 0x615 JUMPI PUSH2 0x11B3 CALLDATASIZE PUSH2 0x364 CALLDATALOAD PUSH1 0x4 ADD PUSH2 0x382A JUMP JUMPDEST PUSH2 0x720 MSTORE PUSH2 0xA40 MSTORE PUSH1 0x1 PUSH1 0x1 PUSH1 0x40 SHL SUB PUSH2 0x384 CALLDATALOAD GT PUSH2 0x615 JUMPI PUSH2 0x11DC CALLDATASIZE PUSH2 0x384 CALLDATALOAD PUSH1 0x4 ADD PUSH2 0x382A JUMP JUMPDEST PUSH2 0x1A0 MSTORE PUSH2 0x680 MSTORE PUSH1 0x1 PUSH1 0x1 PUSH1 0x40 SHL SUB PUSH2 0x3A4 CALLDATALOAD GT PUSH2 0x615 JUMPI PUSH2 0x1205 CALLDATASIZE PUSH2 0x3A4 CALLDATALOAD PUSH1 0x4 ADD PUSH2 0x382A JUMP JUMPDEST PUSH2 0x860 MSTORE PUSH2 0x220 MSTORE PUSH1 0x1 PUSH1 0x1 PUSH1 0x40 SHL SUB PUSH2 0x3C4 CALLDATALOAD GT PUSH2 0x615 JUMPI PUSH2 0x122E CALLDATASIZE PUSH2 0x3C4 CALLDATALOAD PUSH1 0x4 ADD PUSH2 0x382A JUMP JUMPDEST PUSH2 0x560 MSTORE PUSH2 0xA60 MSTORE PUSH1 0x1 PUSH1 0x1 PUSH1 0x40 SHL SUB PUSH2 0x3E4 CALLDATALOAD GT PUSH2 0x615 JUMPI PUSH2 0x1257 CALLDATASIZE PUSH2 0x3E4 CALLDATALOAD PUSH1 0x4 ADD PUSH2 0x382A JUMP JUMPDEST PUSH2 0x120 MSTORE PUSH2 0x880 MSTORE PUSH1 0x0 SLOAD PUSH1 0x1 PUSH1 0x1 PUSH1 0xA0 SHL SUB AND CALLER SUB PUSH2 0x35D1 JUMPI PUSH2 0x1281 PUSH1 0x40 MLOAD DUP1 PUSH2 0x3C0 MSTORE PUSH2 0x36FF JUMP JUMPDEST PUSH2 0x1291 CALLDATASIZE PUSH1 0xC0 MLOAD PUSH2 0x600 MLOAD PUSH2 0x3857 JUMP JUMPDEST PUSH2 0x3C0 MLOAD MSTORE PUSH2 0x12A6 CALLDATASIZE PUSH1 0x80 MLOAD PUSH2 0x6C0 MLOAD PUSH2 0x3857 JUMP JUMPDEST PUSH1 0x20 PUSH2 0x3C0 MLOAD ADD MSTORE PUSH2 0x12BF CALLDATASIZE PUSH2 0x1C0 MLOAD PUSH2 0x5C0 MLOAD PUSH2 0x3857 JUMP JUMPDEST PUSH1 0x40 PUSH2 0x3C0 MLOAD ADD MSTORE PUSH2 0x12D8 CALLDATASIZE PUSH2 0x1E0 MLOAD PUSH2 0x800 MLOAD PUSH2 0x3857 JUMP JUMPDEST PUSH1 0x60 PUSH2 0x3C0 MLOAD ADD MSTORE PUSH2 0x12F1 CALLDATASIZE PUSH2 0x7A0 MLOAD PUSH2 0x7C0 MLOAD PUSH2 0x3857 JUMP JUMPDEST PUSH1 0x80 PUSH2 0x3C0 MLOAD ADD MSTORE PUSH2 0x130A CALLDATASIZE PUSH2 0x4E0 MLOAD PUSH2 0x920 MLOAD PUSH2 0x3857 JUMP JUMPDEST PUSH1 0xA0 PUSH2 0x3C0 MLOAD ADD MSTORE PUSH2 0x1323 CALLDATASIZE PUSH2 0x320 MLOAD PUSH2 0xAE0 MLOAD PUSH2 0x3857 JUMP JUMPDEST PUSH1 0xC0 PUSH2 0x3C0 MLOAD ADD MSTORE PUSH2 0x133C CALLDATASIZE PUSH2 0x240 MLOAD PUSH2 0x8E0 MLOAD PUSH2 0x3857 JUMP JUMPDEST PUSH1 0xE0 PUSH2 0x3C0 MLOAD ADD MSTORE PUSH2 0x1355 CALLDATASIZE PUSH2 0x500 MLOAD PUSH2 0x520 MLOAD PUSH2 0x3857 JUMP JUMPDEST PUSH2 0x100 PUSH2 0x3C0 MLOAD ADD MSTORE PUSH2 0x136F CALLDATASIZE PUSH2 0x7E0 MLOAD PUSH2 0x100 MLOAD PUSH2 0x3857 JUMP JUMPDEST PUSH2 0x120 PUSH2 0x3C0 MLOAD ADD MSTORE PUSH2 0x1389 CALLDATASIZE PUSH2 0x420 MLOAD PUSH2 0xA00 MLOAD PUSH2 0x3857 JUMP JUMPDEST PUSH2 0x140 PUSH2 0x3C0 MLOAD ADD MSTORE PUSH2 0x13A3 CALLDATASIZE PUSH2 0x260 MLOAD PUSH2 0x2C0 MLOAD PUSH2 0x3857 JUMP JUMPDEST PUSH2 0x160 PUSH2 0x3C0 MLOAD ADD MSTORE PUSH2 0x13BD CALLDATASIZE PUSH2 0x700 MLOAD PUSH2 0x3E0 MLOAD PUSH2 0x3857 JUMP JUMPDEST PUSH2 0x180 PUSH2 0x3C0 MLOAD ADD MSTORE PUSH2 0x13D7 CALLDATASIZE PUSH2 0x4C0 MLOAD PUSH2 0x200 MLOAD PUSH2 0x3857 JUMP JUMPDEST PUSH2 0x1A0 PUSH2 0x3C0 MLOAD ADD MSTORE PUSH2 0x13F1 CALLDATASIZE PUSH2 0x340 MLOAD PUSH2 0x160 MLOAD PUSH2 0x3857 JUMP JUMPDEST PUSH2 0x1C0 PUSH2 0x3C0 MLOAD ADD MSTORE PUSH2 0x140B CALLDATASIZE PUSH2 0x580 MLOAD PUSH2 0x360 MLOAD PUSH2 0x3857 JUMP JUMPDEST PUSH2 0x1E0 PUSH2 0x3C0 MLOAD ADD MSTORE PUSH2 0x1425 CALLDATASIZE PUSH2 0x2A0 MLOAD PUSH2 0x140 MLOAD PUSH2 0x3857 JUMP JUMPDEST PUSH2 0x200 PUSH2 0x3C0 MLOAD ADD MSTORE PUSH2 0x143F CALLDATASIZE PUSH2 0x9A0 MLOAD PUSH2 0x460 MLOAD PUSH2 0x3857 JUMP JUMPDEST PUSH2 0x220 PUSH2 0x3C0 MLOAD ADD MSTORE PUSH2 0x1459 CALLDATASIZE PUSH2 0x6A0 MLOAD PUSH2 0xB00 MLOAD PUSH2 0x3857 JUMP JUMPDEST PUSH2 0x240 PUSH2 0x3C0 MLOAD ADD MSTORE PUSH2 0x1473 CALLDATASIZE PUSH2 0x180 MLOAD PUSH2 0x280 MLOAD PUSH2 0x3857 JUMP JUMPDEST PUSH2 0x260 PUSH2 0x3C0 MLOAD ADD MSTORE PUSH2 0x148D CALLDATASIZE PUSH2 0x740 MLOAD PUSH2 0x960 MLOAD PUSH2 0x3857 JUMP JUMPDEST PUSH2 0x280 PUSH2 0x3C0 MLOAD ADD MSTORE PUSH2 0x14A6 CALLDATASIZE PUSH2 0xB40 MLOAD PUSH1 0xE0 MLOAD PUSH2 0x3857 JUMP JUMPDEST PUSH2 0x2A0 PUSH2 0x3C0 MLOAD ADD MSTORE PUSH2 0x14C0 CALLDATASIZE PUSH2 0xAA0 MLOAD PUSH2 0x640 MLOAD PUSH2 0x3857 JUMP JUMPDEST PUSH2 0x2C0 PUSH2 0x3C0 MLOAD ADD MSTORE PUSH2 0x14DA CALLDATASIZE PUSH2 0x480 MLOAD PUSH2 0x900 MLOAD PUSH2 0x3857 JUMP JUMPDEST PUSH2 0x2E0 PUSH2 0x3C0 MLOAD ADD MSTORE PUSH2 0x14F4 CALLDATASIZE PUSH2 0x380 MLOAD PUSH2 0xA80 MLOAD PUSH2 0x3857 JUMP JUMPDEST PUSH2 0x300 PUSH2 0x3C0 MLOAD ADD MSTORE PUSH2 0x150E CALLDATASIZE PUSH2 0x2E0 MLOAD PUSH2 0x760 MLOAD PUSH2 0x3857 JUMP JUMPDEST PUSH2 0x320 PUSH2 0x3C0 MLOAD ADD MSTORE PUSH2 0x1528 CALLDATASIZE PUSH2 0x720 MLOAD PUSH2 0xA40 MLOAD PUSH2 0x3857 JUMP JUMPDEST PUSH2 0x340 PUSH2 0x3C0 MLOAD ADD MSTORE PUSH2 0x1542 CALLDATASIZE PUSH2 0x1A0 MLOAD PUSH2 0x680 MLOAD PUSH2 0x3857 JUMP JUMPDEST PUSH2 0x360 PUSH2 0x3C0 MLOAD ADD MSTORE PUSH2 0x155C CALLDATASIZE PUSH2 0x860 MLOAD PUSH2 0x220 MLOAD PUSH2 0x3857 JUMP JUMPDEST PUSH2 0x380 PUSH2 0x3C0 MLOAD ADD MSTORE PUSH2 0x1576 CALLDATASIZE PUSH2 0x560 MLOAD PUSH2 0xA60 MLOAD PUSH2 0x3857 JUMP JUMPDEST PUSH2 0x3A0 PUSH2 0x3C0 MLOAD ADD MSTORE PUSH2 0x1590 CALLDATASIZE PUSH2 0x120 MLOAD PUSH2 0x880 MLOAD PUSH2 0x3857 JUMP JUMPDEST PUSH2 0x3C0 DUP1 MLOAD ADD MSTORE PUSH1 0x40 MLOAD PUSH2 0x5E0 MLOAD PUSH2 0x9E0 MLOAD DUP3 CALLDATACOPY PUSH1 0x1 PUSH2 0x5E0 MLOAD DUP3 ADD MSTORE PUSH1 0x20 DUP2 PUSH2 0x5E0 MLOAD DUP2 ADD SUB ADD SWAP1 KECCAK256 PUSH2 0x3C0 MLOAD MLOAD DUP1 MLOAD SWAP1 PUSH1 0x1 PUSH1 0x1 PUSH1 0x40 SHL SUB DUP3 GT PUSH2 0x268A JUMPI DUP2 SWAP1 PUSH2 0x15E6 DUP3 PUSH2 0x15E0 DUP7 SLOAD PUSH2 0x36C5 JUMP JUMPDEST DUP7 PUSH2 0x389D JUMP JUMPDEST PUSH1 0x20 SWAP1 PUSH1 0x1F DUP4 GT PUSH1 0x1 EQ PUSH2 0x3565 JUMPI PUSH1 0x0 SWAP3 PUSH2 0x355A JUMPI JUMPDEST POP POP DUP2 PUSH1 0x1 SHL SWAP2 PUSH1 0x0 NOT SWAP1 PUSH1 0x3 SHL SHR NOT AND OR DUP2 SSTORE JUMPDEST PUSH1 0x20 PUSH2 0x3C0 MLOAD ADD MLOAD DUP1 MLOAD SWAP1 PUSH1 0x1 PUSH1 0x1 PUSH1 0x40 SHL SUB DUP3 GT PUSH2 0x268A JUMPI DUP2 SWAP1 PUSH2 0x1646 DUP3 PUSH2 0x163D PUSH1 0x1 DUP8 ADD SLOAD PUSH2 0x36C5 JUMP JUMPDEST PUSH1 0x1 DUP8 ADD PUSH2 0x389D JUMP JUMPDEST PUSH1 0x20 SWAP1 PUSH1 0x1F DUP4 GT PUSH1 0x1 EQ PUSH2 0x34E8 JUMPI PUSH1 0x0 SWAP3 PUSH2 0x34DD JUMPI JUMPDEST POP POP DUP2 PUSH1 0x1 SHL SWAP2 PUSH1 0x0 NOT SWAP1 PUSH1 0x3 SHL SHR NOT AND OR PUSH1 0x1 DUP3 ADD SSTORE JUMPDEST PUSH1 0x40 PUSH2 0x3C0 MLOAD ADD MLOAD DUP1 MLOAD SWAP1 PUSH1 0x1 PUSH1 0x1 PUSH1 0x40 SHL SUB DUP3 GT PUSH2 0x268A JUMPI DUP2 SWAP1 PUSH2 0x16A9 DUP3 PUSH2 0x16A0 PUSH1 0x2 DUP8 ADD SLOAD PUSH2 0x36C5 JUMP JUMPDEST PUSH1 0x2 DUP8 ADD PUSH2 0x389D JUMP JUMPDEST PUSH1 0x20 SWAP1 PUSH1 0x1F DUP4 GT PUSH1 0x1 EQ PUSH2 0x346B JUMPI PUSH1 0x0 SWAP3 PUSH2 0x3460 JUMPI JUMPDEST POP POP DUP2 PUSH1 0x1 SHL SWAP2 PUSH1 0x0 NOT SWAP1 PUSH1 0x3 SHL SHR NOT AND OR PUSH1 0x2 DUP3 ADD SSTORE JUMPDEST PUSH1 0x60 PUSH2 0x3C0 MLOAD ADD MLOAD DUP1 MLOAD SWAP1 PUSH1 0x1 PUSH1 0x1 PUSH1 0x40 SHL SUB DUP3 GT PUSH2 0x268A JUMPI DUP2 SWAP1 PUSH2 0x170C DUP3 PUSH2 0x1703 PUSH1 0x3 DUP8 ADD SLOAD PUSH2 0x36C5 JUMP JUMPDEST PUSH1 0x3 DUP8 ADD PUSH2 0x389D JUMP JUMPDEST PUSH1 0x20 SWAP1 PUSH1 0x1F DUP4 GT PUSH1 0x1 EQ PUSH2 0x33EE JUMPI PUSH1 0x0 SWAP3 PUSH2 0x33E3 JUMPI JUMPDEST POP POP DUP2 PUSH1 0x1 SHL SWAP2 PUSH1 0x0 NOT SWAP1 PUSH1 0x3 SHL SHR NOT AND OR PUSH1 0x3 DUP3 ADD SSTORE JUMPDEST PUSH1 0x80 PUSH2 0x3C0 MLOAD ADD MLOAD DUP1 MLOAD SWAP1 PUSH1 0x1 PUSH1 0x1 PUSH1 0x40 SHL SUB DUP3 GT PUSH2 0x268A JUMPI DUP2 SWAP1 PUSH2 0x176F DUP3 PUSH2 0x1766 PUSH1 0x4 DUP8 ADD SLOAD PUSH2 0x36C5 JUMP JUMPDEST PUSH1 0x4 DUP8 ADD PUSH2 0x389D JUMP JUMPDEST PUSH1 0x20 SWAP1 PUSH1 0x1F DUP4 GT PUSH1 0x1 EQ PUSH2 0x3371 JUMPI PUSH1 0x0 SWAP3 PUSH2 0x3366 JUMPI JUMPDEST POP POP DUP2 PUSH1 0x1 SHL SWAP2 PUSH1 0x0 NOT SWAP1 PUSH1 0x3 SHL SHR NOT AND OR PUSH1 0x4 DUP3 ADD SSTORE JUMPDEST PUSH1 0xA0 PUSH2 0x3C0 MLOAD ADD MLOAD DUP1 MLOAD SWAP1 PUSH1 0x1 PUSH1 0x1 PUSH1 0x40 SHL SUB DUP3 GT PUSH2 0x268A JUMPI DUP2 SWAP1 PUSH2 0x17D2 DUP3 PUSH2 0x17C9 PUSH1 0x5 DUP8 ADD SLOAD PUSH2 0x36C5 JUMP JUMPDEST PUSH1 0x5 DUP8 ADD PUSH2 0x389D JUMP JUMPDEST PUSH1 0x20 SWAP1 PUSH1 0x1F DUP4 GT PUSH1 0x1 EQ PUSH2 0x32F4 JUMPI PUSH1 0x0 SWAP3 PUSH2 0x32E9 JUMPI JUMPDEST POP POP DUP2 PUSH1 0x1 SHL SWAP2 PUSH1 0x0 NOT SWAP1 PUSH1 0x3 SHL SHR NOT AND OR PUSH1 0x5 DUP3 ADD SSTORE JUMPDEST PUSH1 0xC0 PUSH2 0x3C0 MLOAD ADD MLOAD DUP1 MLOAD SWAP1 PUSH1 0x1 PUSH1 0x1 PUSH1 0x40 SHL SUB DUP3 GT PUSH2 0x268A JUMPI DUP2 SWAP1 PUSH2 0x1835 DUP3 PUSH2 0x182C PUSH1 0x6 DUP8 ADD SLOAD PUSH2 0x36C5 JUMP JUMPDEST PUSH1 0x6 DUP8 ADD PUSH2 0x389D JUMP JUMPDEST PUSH1 0x20 SWAP1 PUSH1 0x1F DUP4 GT PUSH1 0x1 EQ PUSH2 0x3277 JUMPI PUSH1 0x0 SWAP3 PUSH2 0x326C JUMPI JUMPDEST POP POP DUP2 PUSH1 0x1 SHL SWAP2 PUSH1 0x0 NOT SWAP1 PUSH1 0x3 SHL SHR NOT AND OR PUSH1 0x6 DUP3 ADD SSTORE JUMPDEST PUSH1 0xE0 PUSH2 0x3C0 MLOAD ADD MLOAD DUP1 MLOAD SWAP1 PUSH1 0x1 PUSH1 0x1 PUSH1 0x40 SHL SUB DUP3 GT PUSH2 0x268A JUMPI DUP2 SWAP1 PUSH2 0x1898 DUP3 PUSH2 0x188F PUSH1 0x7 DUP8 ADD SLOAD PUSH2 0x36C5 JUMP JUMPDEST PUSH1 0x7 DUP8 ADD PUSH2 0x389D JUMP JUMPDEST PUSH1 0x20 SWAP1 PUSH1 0x1F DUP4 GT PUSH1 0x1 EQ PUSH2 0x31FA JUMPI PUSH1 0x0 SWAP3 PUSH2 0x31EF JUMPI JUMPDEST POP POP DUP2 PUSH1 0x1 SHL SWAP2 PUSH1 0x0 NOT SWAP1 PUSH1 0x3 SHL SHR NOT AND OR PUSH1 0x7 DUP3 ADD SSTORE JUMPDEST PUSH2 0x100 PUSH2 0x3C0 MLOAD ADD MLOAD DUP1 MLOAD SWAP1 PUSH1 0x1 PUSH1 0x1 PUSH1 0x40 SHL SUB DUP3 GT PUSH2 0x268A JUMPI DUP2 SWAP1 PUSH2 0x18FC DUP3 PUSH2 0x18F3 PUSH1 0x8 DUP8 ADD SLOAD PUSH2 0x36C5 JUMP JUMPDEST PUSH1 0x8 DUP8 ADD PUSH2 0x389D JUMP JUMPDEST PUSH1 0x20 SWAP1 PUSH1 0x1F DUP4 GT PUSH1 0x1 EQ PUSH2 0x317D JUMPI PUSH1 0x0 SWAP3 PUSH2 0x3172 JUMPI JUMPDEST POP POP DUP2 PUSH1 0x1 SHL SWAP2 PUSH1 0x0 NOT SWAP1 PUSH1 0x3 SHL SHR NOT AND OR PUSH1 0x8 DUP3 ADD SSTORE JUMPDEST PUSH2 0x120 PUSH2 0x3C0 MLOAD ADD MLOAD DUP1 MLOAD SWAP1 PUSH1 0x1 PUSH1 0x1 PUSH1 0x40 SHL SUB DUP3 GT PUSH2 0x268A JUMPI DUP2 SWAP1 PUSH2 0x1960 DUP3 PUSH2 0x1957 PUSH1 0x9 DUP8 ADD SLOAD PUSH2 0x36C5 JUMP JUMPDEST PUSH1 0x9 DUP8 ADD PUSH2 0x389D JUMP JUMPDEST PUSH1 0x20 SWAP1 PUSH1 0x1F DUP4 GT PUSH1 0x1 EQ PUSH2 0x3100 JUMPI PUSH1 0x0 SWAP3 PUSH2 0x30F5 JUMPI JUMPDEST POP POP DUP2 PUSH1 0x1 SHL SWAP2 PUSH1 0x0 NOT SWAP1 PUSH1 0x3 SHL SHR NOT AND OR PUSH1 0x9 DUP3 ADD SSTORE JUMPDEST PUSH2 0x140 PUSH2 0x3C0 MLOAD ADD MLOAD DUP1 MLOAD SWAP1 PUSH1 0x1 PUSH1 0x1 PUSH1 0x40 SHL SUB DUP3 GT PUSH2 0x268A JUMPI DUP2 SWAP1 PUSH2 0x19C4 DUP3 PUSH2 0x19BB PUSH1 0xA DUP8 ADD SLOAD PUSH2 0x36C5 JUMP JUMPDEST PUSH1 0xA DUP8 ADD PUSH2 0x389D JUMP JUMPDEST PUSH1 0x20 SWAP1 PUSH1 0x1F DUP4 GT PUSH1 0x1 EQ PUSH2 0x3083 JUMPI PUSH1 0x0 SWAP3 PUSH2 0x3078 JUMPI JUMPDEST POP POP DUP2 PUSH1 0x1 SHL SWAP2 PUSH1 0x0 NOT SWAP1 PUSH1 0x3 SHL SHR NOT AND OR PUSH1 0xA DUP3 ADD SSTORE JUMPDEST PUSH2 0x160 PUSH2 0x3C0 MLOAD ADD MLOAD DUP1 MLOAD SWAP1 PUSH1 0x1 PUSH1 0x1 PUSH1 0x40 SHL SUB DUP3 GT PUSH2 0x268A JUMPI DUP2 SWAP1 PUSH2 0x1A28 DUP3 PUSH2 0x1A1F PUSH1 0xB DUP8 ADD SLOAD PUSH2 0x36C5 JUMP JUMPDEST PUSH1 0xB DUP8 ADD PUSH2 0x389D JUMP JUMPDEST PUSH1 0x20 SWAP1 PUSH1 0x1F DUP4 GT PUSH1 0x1 EQ PUSH2 0x3006 JUMPI PUSH1 0x0 SWAP3 PUSH2 0x2FFB JUMPI JUMPDEST POP POP DUP2 PUSH1 0x1 SHL SWAP2 PUSH1 0x0 NOT SWAP1 PUSH1 0x3 SHL SHR NOT AND OR PUSH1 0xB DUP3 ADD SSTORE JUMPDEST PUSH2 0x180 PUSH2 0x3C0 MLOAD ADD MLOAD DUP1 MLOAD SWAP1 PUSH1 0x1 PUSH1 0x1 PUSH1 0x40 SHL SUB DUP3 GT PUSH2 0x268A JUMPI DUP2 SWAP1 PUSH2 0x1A8C DUP3 PUSH2 0x1A83 PUSH1 0xC DUP8 ADD SLOAD PUSH2 0x36C5 JUMP JUMPDEST PUSH1 0xC DUP8 ADD PUSH2 0x389D JUMP JUMPDEST PUSH1 0x20 SWAP1 PUSH1 0x1F DUP4 GT PUSH1 0x1 EQ PUSH2 0x2F89 JUMPI PUSH1 0x0 SWAP3 PUSH2 0x2F7E JUMPI JUMPDEST POP POP DUP2 PUSH1 0x1 SHL SWAP2 PUSH1 0x0 NOT SWAP1 PUSH1 0x3 SHL SHR NOT AND OR PUSH1 0xC DUP3 ADD SSTORE JUMPDEST PUSH2 0x1A0 PUSH2 0x3C0 MLOAD ADD MLOAD DUP1 MLOAD SWAP1 PUSH1 0x1 PUSH1 0x1 PUSH1 0x40 SHL SUB DUP3 GT PUSH2 0x268A JUMPI DUP2 SWAP1 PUSH2 0x1AF0 DUP3 PUSH2 0x1AE7 PUSH1 0xD DUP8 ADD SLOAD PUSH2 0x36C5 JUMP JUMPDEST PUSH1 0xD DUP8 ADD PUSH2 0x389D JUMP JUMPDEST PUSH1 0x20 SWAP1 PUSH1 0x1F DUP4 GT PUSH1 0x1 EQ PUSH2 0x2F0C JUMPI PUSH1 0x0 SWAP3 PUSH2 0x2F01 JUMPI JUMPDEST POP POP DUP2 PUSH1 0x1 SHL SWAP2 PUSH1 0x0 NOT SWAP1 PUSH1 0x3 SHL SHR NOT AND OR PUSH1 0xD DUP3 ADD SSTORE JUMPDEST PUSH2 0x1C0 PUSH2 0x3C0 MLOAD ADD MLOAD DUP1 MLOAD SWAP1 PUSH1 0x1 PUSH1 0x1 PUSH1 0x40 SHL SUB DUP3 GT PUSH2 0x268A JUMPI DUP2 SWAP1 PUSH2 0x1B54 DUP3 PUSH2 0x1B4B PUSH1 0xE DUP8 ADD SLOAD PUSH2 0x36C5 JUMP JUMPDEST PUSH1 0xE DUP8 ADD PUSH2 0x389D JUMP JUMPDEST PUSH1 0x20 SWAP1 PUSH1 0x1F DUP4 GT PUSH1 0x1 EQ PUSH2 0x2E8F JUMPI PUSH1 0x0 SWAP3 PUSH2 0x2E84 JUMPI JUMPDEST POP POP DUP2 PUSH1 0x1 SHL SWAP2 PUSH1 0x0 NOT SWAP1 PUSH1 0x3 SHL SHR NOT AND OR PUSH1 0xE DUP3 ADD SSTORE JUMPDEST PUSH2 0x1E0 PUSH2 0x3C0 MLOAD ADD MLOAD DUP1 MLOAD SWAP1 PUSH1 0x1 PUSH1 0x1 PUSH1 0x40 SHL SUB DUP3 GT PUSH2 0x268A JUMPI DUP2 SWAP1 PUSH2 0x1BB8 DUP3 PUSH2 0x1BAF PUSH1 0xF DUP8 ADD SLOAD PUSH2 0x36C5 JUMP JUMPDEST PUSH1 0xF DUP8 ADD PUSH2 0x389D JUMP JUMPDEST PUSH1 0x20 SWAP1 PUSH1 0x1F DUP4 GT PUSH1 0x1 EQ PUSH2 0x2E12 JUMPI PUSH1 0x0 SWAP3 PUSH2 0x2E07 JUMPI JUMPDEST POP POP DUP2 PUSH1 0x1 SHL SWAP2 PUSH1 0x0 NOT SWAP1 PUSH1 0x3 SHL SHR NOT AND OR PUSH1 0xF DUP3 ADD SSTORE JUMPDEST PUSH2 0x200 PUSH2 0x3C0 MLOAD ADD MLOAD DUP1 MLOAD SWAP1 PUSH1 0x1 PUSH1 0x1 PUSH1 0x40 SHL SUB DUP3 GT PUSH2 0x268A JUMPI DUP2 SWAP1 PUSH2 0x1C1C DUP3 PUSH2 0x1C13 PUSH1 0x10 DUP8 ADD SLOAD PUSH2 0x36C5 JUMP JUMPDEST PUSH1 0x10 DUP8 ADD PUSH2 0x389D JUMP JUMPDEST PUSH1 0x20 SWAP1 PUSH1 0x1F DUP4 GT PUSH1 0x1 EQ PUSH2 0x2D95 JUMPI PUSH1 0x0 SWAP3 PUSH2 0x2D8A JUMPI JUMPDEST POP POP DUP2 PUSH1 0x1 SHL SWAP2 PUSH1 0x0 NOT SWAP1 PUSH1 0x3 SHL SHR NOT AND OR PUSH1 0x10 DUP3 ADD SSTORE JUMPDEST PUSH2 0x220 PUSH2 0x3C0 MLOAD ADD MLOAD DUP1 MLOAD SWAP1 PUSH1 0x1 PUSH1 0x1 PUSH1 0x40 SHL SUB DUP3 GT PUSH2 0x268A JUMPI DUP2 SWAP1 PUSH2 0x1C80 DUP3 PUSH2 0x1C77 PUSH1 0x11 DUP8 ADD SLOAD PUSH2 0x36C5 JUMP JUMPDEST PUSH1 0x11 DUP8 ADD PUSH2 0x389D JUMP JUMPDEST PUSH1 0x20 SWAP1 PUSH1 0x1F DUP4 GT PUSH1 0x1 EQ PUSH2 0x2D18 JUMPI PUSH1 0x0 SWAP3 PUSH2 0x2D0D JUMPI JUMPDEST POP POP DUP2 PUSH1 0x1 SHL SWAP2 PUSH1 0x0 NOT SWAP1 PUSH1 0x3 SHL SHR NOT AND OR PUSH1 0x11 DUP3 ADD SSTORE JUMPDEST PUSH2 0x240 PUSH2 0x3C0 MLOAD ADD MLOAD DUP1 MLOAD SWAP1 PUSH1 0x1 PUSH1 0x1 PUSH1 0x40 SHL SUB DUP3 GT PUSH2 0x268A JUMPI DUP2 SWAP1 PUSH2 0x1CE4 DUP3 PUSH2 0x1CDB PUSH1 0x12 DUP8 ADD SLOAD PUSH2 0x36C5 JUMP JUMPDEST PUSH1 0x12 DUP8 ADD PUSH2 0x389D JUMP JUMPDEST PUSH1 0x20 SWAP1 PUSH1 0x1F DUP4 GT PUSH1 0x1 EQ PUSH2 0x2C9B JUMPI PUSH1 0x0 SWAP3 PUSH2 0x2C90 JUMPI JUMPDEST POP POP DUP2 PUSH1 0x1 SHL SWAP2 PUSH1 0x0 NOT SWAP1 PUSH1 0x3 SHL SHR NOT AND OR PUSH1 0x12 DUP3 ADD SSTORE JUMPDEST PUSH2 0x260 PUSH2 0x3C0 MLOAD ADD MLOAD DUP1 MLOAD SWAP1 PUSH1 0x1 PUSH1 0x1 PUSH1 0x40 SHL SUB DUP3 GT PUSH2 0x268A JUMPI DUP2 SWAP1 PUSH2 0x1D48 DUP3 PUSH2 0x1D3F PUSH1 0x13 DUP8 ADD SLOAD PUSH2 0x36C5 JUMP JUMPDEST PUSH1 0x13 DUP8 ADD PUSH2 0x389D JUMP JUMPDEST PUSH1 0x20 SWAP1 PUSH1 0x1F DUP4 GT PUSH1 0x1 EQ PUSH2 0x2C1E JUMPI PUSH1 0x0 SWAP3 PUSH2 0x2C13 JUMPI JUMPDEST POP POP DUP2 PUSH1 0x1 SHL SWAP2 PUSH1 0x0 NOT SWAP1 PUSH1 0x3 SHL SHR NOT AND OR PUSH1 0x13 DUP3 ADD SSTORE JUMPDEST PUSH2 0x280 PUSH2 0x3C0 MLOAD ADD MLOAD DUP1 MLOAD SWAP1 PUSH1 0x1 PUSH1 0x1 PUSH1 0x40 SHL SUB DUP3 GT PUSH2 0x268A JUMPI DUP2 SWAP1 PUSH2 0x1DAC DUP3 PUSH2 0x1DA3 PUSH1 0x14 DUP8 ADD SLOAD PUSH2 0x36C5 JUMP JUMPDEST PUSH1 0x14 DUP8 ADD PUSH2 0x389D JUMP JUMPDEST PUSH1 0x20 SWAP1 PUSH1 0x1F DUP4 GT PUSH1 0x1 EQ PUSH2 0x2BA1 JUMPI PUSH1 0x0 SWAP3 PUSH2 0x2B96 JUMPI JUMPDEST POP POP DUP2 PUSH1 0x1 SHL SWAP2 PUSH1 0x0 NOT SWAP1 PUSH1 0x3 SHL SHR NOT AND OR PUSH1 0x14 DUP3 ADD SSTORE JUMPDEST PUSH2 0x2A0 PUSH2 0x3C0 MLOAD ADD MLOAD DUP1 MLOAD SWAP1 PUSH1 0x1 PUSH1 0x1 PUSH1 0x40 SHL SUB DUP3 GT PUSH2 0x268A JUMPI DUP2 SWAP1 PUSH2 0x1E10 DUP3 PUSH2 0x1E07 PUSH1 0x15 DUP8 ADD SLOAD PUSH2 0x36C5 JUMP JUMPDEST PUSH1 0x15 DUP8 ADD PUSH2 0x389D JUMP JUMPDEST PUSH1 0x20 SWAP1 PUSH1 0x1F DUP4 GT PUSH1 0x1 EQ PUSH2 0x2B24 JUMPI PUSH1 0x0 SWAP3 PUSH2 0x2B19 JUMPI JUMPDEST POP POP DUP2 PUSH1 0x1 SHL SWAP2 PUSH1 0x0 NOT SWAP1 PUSH1 0x3 SHL SHR NOT AND OR PUSH1 0x15 DUP3 ADD SSTORE JUMPDEST PUSH2 0x2C0 PUSH2 0x3C0 MLOAD ADD MLOAD DUP1 MLOAD SWAP1 PUSH1 0x1 PUSH1 0x1 PUSH1 0x40 SHL SUB DUP3 GT PUSH2 0x268A JUMPI DUP2 SWAP1 PUSH2 0x1E74 DUP3 PUSH2 0x1E6B PUSH1 0x16 DUP8 ADD SLOAD PUSH2 0x36C5 JUMP JUMPDEST PUSH1 0x16 DUP8 ADD PUSH2 0x389D JUMP JUMPDEST PUSH1 0x20 SWAP1 PUSH1 0x1F DUP4 GT PUSH1 0x1 EQ PUSH2 0x2AA7 JUMPI PUSH1 0x0 SWAP3 PUSH2 0x2A9C JUMPI JUMPDEST POP POP DUP2 PUSH1 0x1 SHL SWAP2 PUSH1 0x0 NOT SWAP1 PUSH1 0x3 SHL SHR NOT AND OR PUSH1 0x16 DUP3 ADD SSTORE JUMPDEST PUSH2 0x2E0 PUSH2 0x3C0 MLOAD ADD MLOAD DUP1 MLOAD SWAP1 PUSH1 0x1 PUSH1 0x1 PUSH1 0x40 SHL SUB DUP3 GT PUSH2 0x268A JUMPI DUP2 SWAP1 PUSH2 0x1ED8 DUP3 PUSH2 0x1ECF PUSH1 0x17 DUP8 ADD SLOAD PUSH2 0x36C5 JUMP JUMPDEST PUSH1 0x17 DUP8 ADD PUSH2 0x389D JUMP JUMPDEST PUSH1 0x20 SWAP1 PUSH1 0x1F DUP4 GT PUSH1 0x1 EQ PUSH2 0x2A2A JUMPI PUSH1 0x0 SWAP3 PUSH2 0x2A1F JUMPI JUMPDEST POP POP DUP2 PUSH1 0x1 SHL SWAP2 PUSH1 0x0 NOT SWAP1 PUSH1 0x3 SHL SHR NOT AND OR PUSH1 0x17 DUP3 ADD SSTORE JUMPDEST PUSH2 0x300 PUSH2 0x3C0 MLOAD ADD MLOAD DUP1 MLOAD SWAP1 PUSH1 0x1 PUSH1 0x1 PUSH1 0x40 SHL SUB DUP3 GT PUSH2 0x268A JUMPI DUP2 SWAP1 PUSH2 0x1F3C DUP3 PUSH2 0x1F33 PUSH1 0x18 DUP8 ADD SLOAD PUSH2 0x36C5 JUMP JUMPDEST PUSH1 0x18 DUP8 ADD PUSH2 0x389D JUMP JUMPDEST PUSH1 0x20 SWAP1 PUSH1 0x1F DUP4 GT PUSH1 0x1 EQ PUSH2 0x29AD JUMPI PUSH1 0x0 SWAP3 PUSH2 0x29A2 JUMPI JUMPDEST POP POP DUP2 PUSH1 0x1 SHL SWAP2 PUSH1 0x0 NOT SWAP1 PUSH1 0x3 SHL SHR NOT AND OR PUSH1 0x18 DUP3 ADD SSTORE JUMPDEST PUSH2 0x320 PUSH2 0x3C0 MLOAD ADD MLOAD DUP1 MLOAD SWAP1 PUSH1 0x1 PUSH1 0x1 PUSH1 0x40 SHL SUB DUP3 GT PUSH2 0x268A JUMPI DUP2 SWAP1 PUSH2 0x1FA0 DUP3 PUSH2 0x1F97 PUSH1 0x19 DUP8 ADD SLOAD PUSH2 0x36C5 JUMP JUMPDEST PUSH1 0x19 DUP8 ADD PUSH2 0x389D JUMP JUMPDEST PUSH1 0x20 SWAP1 PUSH1 0x1F DUP4 GT PUSH1 0x1 EQ PUSH2 0x2930 JUMPI PUSH1 0x0 SWAP3 PUSH2 0x2925 JUMPI JUMPDEST POP POP DUP2 PUSH1 0x1 SHL SWAP2 PUSH1 0x0 NOT SWAP1 PUSH1 0x3 SHL SHR NOT AND OR PUSH1 0x19 DUP3 ADD SSTORE JUMPDEST PUSH2 0x340 PUSH2 0x3C0 MLOAD ADD MLOAD DUP1 MLOAD SWAP1 PUSH1 0x1 PUSH1 0x1 PUSH1 0x40 SHL SUB DUP3 GT PUSH2 0x268A JUMPI DUP2 SWAP1 PUSH2 0x2004 DUP3 PUSH2 0x1FFB PUSH1 0x1A DUP8 ADD SLOAD PUSH2 0x36C5 JUMP JUMPDEST PUSH1 0x1A DUP8 ADD PUSH2 0x389D JUMP JUMPDEST PUSH1 0x20 SWAP1 PUSH1 0x1F DUP4 GT PUSH1 0x1 EQ PUSH2 0x28B3 JUMPI PUSH1 0x0 SWAP3 PUSH2 0x28A8 JUMPI JUMPDEST POP POP DUP2 PUSH1 0x1 SHL SWAP2 PUSH1 0x0 NOT SWAP1 PUSH1 0x3 SHL SHR NOT AND OR PUSH1 0x1A DUP3 ADD SSTORE JUMPDEST PUSH2 0x360 PUSH2 0x3C0 MLOAD ADD MLOAD DUP1 MLOAD SWAP1 PUSH1 0x1 PUSH1 0x1 PUSH1 0x40 SHL SUB DUP3 GT PUSH2 0x268A JUMPI DUP2 SWAP1 PUSH2 0x2068 DUP3 PUSH2 0x205F PUSH1 0x1B DUP8 ADD SLOAD PUSH2 0x36C5 JUMP JUMPDEST PUSH1 0x1B DUP8 ADD PUSH2 0x389D JUMP JUMPDEST PUSH1 0x20 SWAP1 PUSH1 0x1F DUP4 GT PUSH1 0x1 EQ PUSH2 0x2836 JUMPI PUSH1 0x0 SWAP3 PUSH2 0x282B JUMPI JUMPDEST POP POP DUP2 PUSH1 0x1 SHL SWAP2 PUSH1 0x0 NOT SWAP1 PUSH1 0x3 SHL SHR NOT AND OR PUSH1 0x1B DUP3 ADD SSTORE JUMPDEST PUSH2 0x380 PUSH2 0x3C0 MLOAD ADD MLOAD DUP1 MLOAD SWAP1 PUSH1 0x1 PUSH1 0x1 PUSH1 0x40 SHL SUB DUP3 GT PUSH2 0x268A JUMPI DUP2 SWAP1 PUSH2 0x20CC DUP3 PUSH2 0x20C3 PUSH1 0x1C DUP8 ADD SLOAD PUSH2 0x36C5 JUMP JUMPDEST PUSH1 0x1C DUP8 ADD PUSH2 0x389D JUMP JUMPDEST PUSH1 0x20 SWAP1 PUSH1 0x1F DUP4 GT PUSH1 0x1 EQ PUSH2 0x27B9 JUMPI PUSH1 0x0 SWAP3 PUSH2 0x27AE JUMPI JUMPDEST POP POP DUP2 PUSH1 0x1 SHL SWAP2 PUSH1 0x0 NOT SWAP1 PUSH1 0x3 SHL SHR NOT AND OR PUSH1 0x1C DUP3 ADD SSTORE JUMPDEST PUSH2 0x3A0 PUSH2 0x3C0 MLOAD ADD MLOAD DUP1 MLOAD SWAP1 PUSH1 0x1 PUSH1 0x1 PUSH1 0x40 SHL SUB DUP3 GT PUSH2 0x268A JUMPI DUP2 SWAP1 PUSH2 0x2130 DUP3 PUSH2 0x2127 PUSH1 0x1D DUP8 ADD SLOAD PUSH2 0x36C5 JUMP JUMPDEST PUSH1 0x1D DUP8 ADD PUSH2 0x389D JUMP JUMPDEST PUSH1 0x20 SWAP1 PUSH1 0x1F DUP4 GT PUSH1 0x1 EQ PUSH2 0x273C JUMPI PUSH1 0x0 SWAP3 PUSH2 0x2731 JUMPI JUMPDEST POP POP DUP2 PUSH1 0x1 SHL SWAP2 PUSH1 0x0 NOT SWAP1 PUSH1 0x3 SHL SHR NOT AND OR PUSH1 0x1D DUP3 ADD SSTORE JUMPDEST PUSH2 0x3C0 DUP1 MLOAD ADD MLOAD DUP1 MLOAD SWAP1 PUSH1 0x1 PUSH1 0x1 PUSH1 0x40 SHL SUB DUP3 GT PUSH2 0x268A JUMPI PUSH2 0x2190 DUP3 PUSH2 0x2187 PUSH1 0x1E DUP7 ADD SLOAD PUSH2 0x36C5 JUMP JUMPDEST PUSH1 0x1E DUP7 ADD PUSH2 0x389D JUMP JUMPDEST PUSH1 0x20 SWAP1 PUSH1 0x1F DUP4 GT PUSH1 0x1 EQ PUSH2 0x26C1 JUMPI PUSH1 0x1E SWAP3 SWAP2 PUSH1 0x0 SWAP2 DUP4 PUSH2 0x26B6 JUMPI JUMPDEST POP POP DUP2 PUSH1 0x1 SHL SWAP2 PUSH1 0x0 NOT SWAP1 PUSH1 0x3 SHL SHR NOT AND OR SWAP2 ADD SSTORE JUMPDEST PUSH1 0x2 SLOAD PUSH9 0x10000000000000000 DUP2 LT ISZERO PUSH2 0x268A JUMPI DUP1 PUSH1 0x1 PUSH2 0x21E5 SWAP3 ADD PUSH1 0x2 SSTORE PUSH2 0x3678 JUMP JUMPDEST PUSH2 0x26A0 JUMPI PUSH2 0x5E0 MLOAD PUSH1 0x1 PUSH1 0x1 PUSH1 0x40 SHL SUB DUP2 GT PUSH2 0x268A JUMPI PUSH2 0x220F SWAP1 PUSH2 0x2209 DUP4 SLOAD PUSH2 0x36C5 JUMP JUMPDEST DUP4 PUSH2 0x389D JUMP JUMPDEST PUSH1 0x0 SWAP1 PUSH2 0x5E0 MLOAD PUSH1 0x1F DUP2 GT PUSH1 0x1 EQ PUSH2 0x261D JUMPI POP SWAP1 PUSH1 0x0 PUSH2 0x5E0 MLOAD SWAP2 DUP3 PUSH2 0x260F JUMPI JUMPDEST POP DUP2 PUSH1 0x1 SHL SWAP2 PUSH1 0x0 NOT SWAP1 PUSH1 0x3 SHL SHR NOT AND OR SWAP1 SSTORE JUMPDEST PUSH2 0x400 PUSH1 0x40 MLOAD DUP1 PUSH2 0x6E0 MSTORE MSTORE PUSH32 0xA6F1F3C3841270DF2374AD67F69AB158B4965A6C16667B94B4C309346A3F8AF1 PUSH2 0x25E5 PUSH2 0x25CB PUSH2 0x25B1 PUSH2 0x2597 PUSH2 0x257D PUSH2 0x2563 PUSH2 0x2549 PUSH2 0x252F PUSH2 0x2515 PUSH2 0x24FC PUSH2 0x24E2 PUSH2 0x24C8 PUSH2 0x24AE PUSH2 0x2494 PUSH2 0x247A PUSH2 0x2460 PUSH2 0x2446 PUSH2 0x242C PUSH2 0x2412 PUSH2 0x23F8 PUSH2 0x23DE PUSH2 0x23C4 PUSH2 0x23AA PUSH2 0x2390 PUSH2 0x2377 PUSH2 0x235E PUSH2 0x2345 PUSH2 0x232C PUSH2 0x2313 PUSH2 0x22FB PUSH2 0x22E3 PUSH2 0x400 PUSH2 0x6E0 MLOAD ADD PUSH2 0x5E0 MLOAD PUSH2 0x9E0 MLOAD PUSH2 0x38F1 JUMP JUMPDEST PUSH2 0x6E0 MLOAD PUSH1 0x20 DUP2 DUP4 SUB SWAP2 ADD MSTORE PUSH1 0xC0 MLOAD PUSH2 0x600 MLOAD PUSH2 0x38F1 JUMP JUMPDEST PUSH2 0x6E0 MLOAD PUSH1 0x40 DUP2 DUP4 SUB SWAP2 ADD MSTORE PUSH1 0x80 MLOAD PUSH2 0x6C0 MLOAD PUSH2 0x38F1 JUMP JUMPDEST PUSH2 0x6E0 MLOAD PUSH1 0x60 DUP2 DUP4 SUB SWAP2 ADD MSTORE PUSH2 0x1C0 MLOAD PUSH2 0x5C0 MLOAD PUSH2 0x38F1 JUMP JUMPDEST PUSH2 0x6E0 MLOAD PUSH1 0x80 DUP2 DUP4 SUB SWAP2 ADD MSTORE PUSH2 0x1E0 MLOAD PUSH2 0x800 MLOAD PUSH2 0x38F1 JUMP JUMPDEST PUSH2 0x6E0 MLOAD PUSH1 0xA0 DUP2 DUP4 SUB SWAP2 ADD MSTORE PUSH2 0x7A0 MLOAD PUSH2 0x7C0 MLOAD PUSH2 0x38F1 JUMP JUMPDEST PUSH2 0x6E0 MLOAD PUSH1 0xC0 DUP2 DUP4 SUB SWAP2 ADD MSTORE PUSH2 0x4E0 MLOAD PUSH2 0x920 MLOAD PUSH2 0x38F1 JUMP JUMPDEST PUSH2 0x6E0 MLOAD PUSH1 0xE0 DUP2 DUP4 SUB SWAP2 ADD MSTORE PUSH2 0x320 MLOAD PUSH2 0xAE0 MLOAD PUSH2 0x38F1 JUMP JUMPDEST PUSH2 0x6E0 MLOAD PUSH2 0x100 DUP2 DUP4 SUB SWAP2 ADD MSTORE PUSH2 0x240 MLOAD PUSH2 0x8E0 MLOAD PUSH2 0x38F1 JUMP JUMPDEST PUSH2 0x6E0 MLOAD PUSH2 0x120 DUP2 DUP4 SUB SWAP2 ADD MSTORE PUSH2 0x500 MLOAD PUSH2 0x520 MLOAD PUSH2 0x38F1 JUMP JUMPDEST PUSH2 0x6E0 MLOAD PUSH2 0x140 DUP2 DUP4 SUB SWAP2 ADD MSTORE PUSH2 0x7E0 MLOAD PUSH2 0x100 MLOAD PUSH2 0x38F1 JUMP JUMPDEST PUSH2 0x6E0 MLOAD PUSH2 0x160 DUP2 DUP4 SUB SWAP2 ADD MSTORE PUSH2 0x420 MLOAD PUSH2 0xA00 MLOAD PUSH2 0x38F1 JUMP JUMPDEST PUSH2 0x6E0 MLOAD PUSH2 0x180 DUP2 DUP4 SUB SWAP2 ADD MSTORE PUSH2 0x260 MLOAD PUSH2 0x2C0 MLOAD PUSH2 0x38F1 JUMP JUMPDEST PUSH2 0x6E0 MLOAD PUSH2 0x1A0 DUP2 DUP4 SUB SWAP2 ADD MSTORE PUSH2 0x700 MLOAD PUSH2 0x3E0 MLOAD PUSH2 0x38F1 JUMP JUMPDEST PUSH2 0x6E0 MLOAD PUSH2 0x1C0 DUP2 DUP4 SUB SWAP2 ADD MSTORE PUSH2 0x4C0 MLOAD PUSH2 0x200 MLOAD PUSH2 0x38F1 JUMP JUMPDEST PUSH2 0x6E0 MLOAD PUSH2 0x1E0 DUP2 DUP4 SUB SWAP2 ADD MSTORE PUSH2 0x340 MLOAD PUSH2 0x160 MLOAD PUSH2 0x38F1 JUMP JUMPDEST PUSH2 0x6E0 MLOAD PUSH2 0x200 DUP2 DUP4 SUB SWAP2 ADD MSTORE PUSH2 0x580 MLOAD PUSH2 0x360 MLOAD PUSH2 0x38F1 JUMP JUMPDEST PUSH2 0x6E0 MLOAD PUSH2 0x220 DUP2 DUP4 SUB SWAP2 ADD MSTORE PUSH2 0x2A0 MLOAD PUSH2 0x140 MLOAD PUSH2 0x38F1 JUMP JUMPDEST PUSH2 0x6E0 MLOAD PUSH2 0x240 DUP2 DUP4 SUB SWAP2 ADD MSTORE PUSH2 0x9A0 MLOAD PUSH2 0x460 MLOAD PUSH2 0x38F1 JUMP JUMPDEST PUSH2 0x6E0 MLOAD PUSH2 0x260 DUP2 DUP4 SUB SWAP2 ADD MSTORE PUSH2 0x6A0 MLOAD PUSH2 0xB00 MLOAD PUSH2 0x38F1 JUMP JUMPDEST PUSH2 0x6E0 MLOAD PUSH2 0x280 DUP2 DUP4 SUB SWAP2 ADD MSTORE PUSH2 0x180 MLOAD PUSH2 0x280 MLOAD PUSH2 0x38F1 JUMP JUMPDEST PUSH2 0x6E0 MLOAD PUSH2 0x2A0 DUP2 DUP4 SUB SWAP2 ADD MSTORE PUSH2 0x740 MLOAD PUSH2 0x960 MLOAD PUSH2 0x38F1 JUMP JUMPDEST PUSH2 0x6E0 MLOAD PUSH2 0x2C0 DUP2 DUP4 SUB SWAP2 ADD MSTORE PUSH2 0xB40 MLOAD PUSH1 0xE0 MLOAD PUSH2 0x38F1 JUMP JUMPDEST PUSH2 0x6E0 MLOAD PUSH2 0x2E0 DUP2 DUP4 SUB SWAP2 ADD MSTORE PUSH2 0xAA0 MLOAD PUSH2 0x640 MLOAD PUSH2 0x38F1 JUMP JUMPDEST PUSH2 0x6E0 MLOAD PUSH2 0x300 DUP2 DUP4 SUB SWAP2 ADD MSTORE PUSH2 0x480 MLOAD PUSH2 0x900 MLOAD PUSH2 0x38F1 JUMP JUMPDEST PUSH2 0x6E0 MLOAD PUSH2 0x320 DUP2 DUP4 SUB SWAP2 ADD MSTORE PUSH2 0x380 MLOAD PUSH2 0xA80 MLOAD PUSH2 0x38F1 JUMP JUMPDEST PUSH2 0x6E0 MLOAD PUSH2 0x340 DUP2 DUP4 SUB SWAP2 ADD MSTORE PUSH2 0x2E0 MLOAD PUSH2 0x760 MLOAD PUSH2 0x38F1 JUMP JUMPDEST PUSH2 0x6E0 MLOAD PUSH2 0x360 DUP2 DUP4 SUB SWAP2 ADD MSTORE PUSH2 0x720 MLOAD PUSH2 0xA40 MLOAD PUSH2 0x38F1 JUMP JUMPDEST PUSH2 0x6E0 MLOAD PUSH2 0x380 DUP2 DUP4 SUB SWAP2 ADD MSTORE PUSH2 0x1A0 MLOAD PUSH2 0x680 MLOAD PUSH2 0x38F1 JUMP JUMPDEST PUSH2 0x6E0 MLOAD PUSH2 0x3A0 DUP2 DUP4 SUB SWAP2 ADD MSTORE PUSH2 0x860 MLOAD PUSH2 0x220 MLOAD PUSH2 0x38F1 JUMP JUMPDEST PUSH2 0x6E0 MLOAD PUSH2 0x3C0 DUP2 DUP4 SUB SWAP2 ADD MSTORE PUSH2 0x560 MLOAD PUSH2 0xA60 MLOAD PUSH2 0x38F1 JUMP JUMPDEST PUSH2 0x6E0 MLOAD PUSH2 0x3E0 DUP2 DUP4 SUB SWAP2 ADD MSTORE PUSH2 0x2607 PUSH2 0x6E0 MLOAD SWAP2 PUSH2 0x120 MLOAD PUSH2 0x880 MLOAD PUSH2 0x38F1 JUMP JUMPDEST SUB PUSH2 0x6E0 MLOAD LOG1 STOP JUMPDEST SWAP1 POP PUSH2 0x9E0 MLOAD ADD CALLDATALOAD DUP4 PUSH2 0x2230 JUMP JUMPDEST DUP2 PUSH1 0x0 MSTORE PUSH1 0x20 PUSH1 0x0 KECCAK256 PUSH1 0x0 SWAP4 PUSH2 0x9E0 MLOAD SWAP1 JUMPDEST PUSH1 0x1F NOT DUP5 AND DUP7 LT PUSH2 0x2672 JUMPI PUSH1 0x1 SWAP5 SWAP6 POP DUP4 PUSH1 0x1F NOT DUP2 AND LT PUSH2 0x2658 JUMPI JUMPDEST POP POP POP DUP2 SHL ADD SWAP1 SSTORE PUSH2 0x2244 JUMP JUMPDEST ADD CALLDATALOAD PUSH1 0x0 NOT PUSH1 0x3 DUP5 SWAP1 SHL PUSH1 0xF8 AND SHR NOT AND SWAP1 SSTORE DUP4 DUP1 DUP1 PUSH2 0x264B JUMP JUMPDEST SWAP2 PUSH1 0x20 PUSH1 0x1 DUP2 SWAP3 DUP6 DUP6 ADD CALLDATALOAD DUP2 SSTORE ADD SWAP4 ADD SWAP6 ADD SWAP5 PUSH2 0x262F JUMP JUMPDEST PUSH4 0x4E487B71 PUSH1 0xE0 SHL PUSH1 0x0 MSTORE PUSH1 0x41 PUSH1 0x4 MSTORE PUSH1 0x24 PUSH1 0x0 REVERT JUMPDEST PUSH4 0x4E487B71 PUSH1 0xE0 SHL PUSH1 0x0 MSTORE PUSH1 0x0 PUSH1 0x4 MSTORE PUSH1 0x24 PUSH1 0x0 REVERT JUMPDEST ADD MLOAD SWAP1 POP DUP5 DUP1 PUSH2 0x21AB JUMP JUMPDEST SWAP1 PUSH1 0x1E DUP5 ADD PUSH1 0x0 MSTORE PUSH1 0x20 PUSH1 0x0 KECCAK256 SWAP2 PUSH1 0x0 JUMPDEST PUSH1 0x1F NOT DUP6 AND DUP2 LT PUSH2 0x2719 JUMPI POP SWAP2 DUP4 SWAP2 PUSH1 0x1 SWAP4 PUSH1 0x1E SWAP6 PUSH1 0x1F NOT DUP2 AND LT PUSH2 0x2700 JUMPI JUMPDEST POP POP POP DUP2 SHL ADD SWAP2 ADD SSTORE PUSH2 0x21C1 JUMP JUMPDEST ADD MLOAD PUSH1 0x0 NOT PUSH1 0xF8 DUP5 PUSH1 0x3 SHL AND SHR NOT AND SWAP1 SSTORE DUP5 DUP1 DUP1 PUSH2 0x26F2 JUMP JUMPDEST SWAP2 SWAP3 PUSH1 0x20 PUSH1 0x1 DUP2 SWAP3 DUP7 DUP6 ADD MLOAD DUP2 SSTORE ADD SWAP5 ADD SWAP3 ADD PUSH2 0x26D2 JUMP JUMPDEST ADD MLOAD SWAP1 POP DUP4 DUP1 PUSH2 0x2146 JUMP JUMPDEST SWAP3 POP PUSH1 0x1D DUP5 ADD PUSH1 0x0 MSTORE PUSH1 0x20 PUSH1 0x0 KECCAK256 SWAP1 PUSH1 0x0 SWAP4 JUMPDEST PUSH1 0x1F NOT DUP5 AND DUP6 LT PUSH2 0x2793 JUMPI PUSH1 0x1 SWAP5 POP DUP4 PUSH1 0x1F NOT DUP2 AND LT PUSH2 0x277A JUMPI JUMPDEST POP POP POP DUP2 SHL ADD PUSH1 0x1D DUP3 ADD SSTORE PUSH2 0x215E JUMP JUMPDEST ADD MLOAD PUSH1 0x0 NOT PUSH1 0xF8 DUP5 PUSH1 0x3 SHL AND SHR NOT AND SWAP1 SSTORE DUP4 DUP1 DUP1 PUSH2 0x276A JUMP JUMPDEST DUP2 DUP2 ADD MLOAD DUP4 SSTORE PUSH1 0x20 SWAP5 DUP6 ADD SWAP5 PUSH1 0x1 SWAP1 SWAP4 ADD SWAP3 SWAP1 SWAP2 ADD SWAP1 PUSH2 0x274F JUMP JUMPDEST ADD MLOAD SWAP1 POP DUP4 DUP1 PUSH2 0x20E2 JUMP JUMPDEST SWAP3 POP PUSH1 0x1C DUP5 ADD PUSH1 0x0 MSTORE PUSH1 0x20 PUSH1 0x0 KECCAK256 SWAP1 PUSH1 0x0 SWAP4 JUMPDEST PUSH1 0x1F NOT DUP5 AND DUP6 LT PUSH2 0x2810 JUMPI PUSH1 0x1 SWAP5 POP DUP4 PUSH1 0x1F NOT DUP2 AND LT PUSH2 0x27F7 JUMPI JUMPDEST POP POP POP DUP2 SHL ADD PUSH1 0x1C DUP3 ADD SSTORE PUSH2 0x20FA JUMP JUMPDEST ADD MLOAD PUSH1 0x0 NOT PUSH1 0xF8 DUP5 PUSH1 0x3 SHL AND SHR NOT AND SWAP1 SSTORE DUP4 DUP1 DUP1 PUSH2 0x27E7 JUMP JUMPDEST DUP2 DUP2 ADD MLOAD DUP4 SSTORE PUSH1 0x20 SWAP5 DUP6 ADD SWAP5 PUSH1 0x1 SWAP1 SWAP4 ADD SWAP3 SWAP1 SWAP2 ADD SWAP1 PUSH2 0x27CC JUMP JUMPDEST ADD MLOAD SWAP1 POP DUP4 DUP1 PUSH2 0x207E JUMP JUMPDEST SWAP3 POP PUSH1 0x1B DUP5 ADD PUSH1 0x0 MSTORE PUSH1 0x20 PUSH1 0x0 KECCAK256 SWAP1 PUSH1 0x0 SWAP4 JUMPDEST PUSH1 0x1F NOT DUP5 AND DUP6 LT PUSH2 0x288D JUMPI PUSH1 0x1 SWAP5 POP DUP4 PUSH1 0x1F NOT DUP2 AND LT PUSH2 0x2874 JUMPI JUMPDEST POP POP POP DUP2 SHL ADD PUSH1 0x1B DUP3 ADD SSTORE PUSH2 0x2096 JUMP JUMPDEST ADD MLOAD PUSH1 0x0 NOT PUSH1 0xF8 DUP5 PUSH1 0x3 SHL AND SHR NOT AND SWAP1 SSTORE DUP4 DUP1 DUP1 PUSH2 0x2864 JUMP JUMPDEST DUP2 DUP2 ADD MLOAD DUP4 SSTORE PUSH1 0x20 SWAP5 DUP6 ADD SWAP5 PUSH1 0x1 SWAP1 SWAP4 ADD SWAP3 SWAP1 SWAP2 ADD SWAP1 PUSH2 0x2849 JUMP JUMPDEST ADD MLOAD SWAP1 POP DUP4 DUP1 PUSH2 0x201A JUMP JUMPDEST SWAP3 POP PUSH1 0x1A DUP5 ADD PUSH1 0x0 MSTORE PUSH1 0x20 PUSH1 0x0 KECCAK256 SWAP1 PUSH1 0x0 SWAP4 JUMPDEST PUSH1 0x1F NOT DUP5 AND DUP6 LT PUSH2 0x290A JUMPI PUSH1 0x1 SWAP5 POP DUP4 PUSH1 0x1F NOT DUP2 AND LT PUSH2 0x28F1 JUMPI JUMPDEST POP POP POP DUP2 SHL ADD PUSH1 0x1A DUP3 ADD SSTORE PUSH2 0x2032 JUMP JUMPDEST ADD MLOAD PUSH1 0x0 NOT PUSH1 0xF8 DUP5 PUSH1 0x3 SHL AND SHR NOT AND SWAP1 SSTORE DUP4 DUP1 DUP1 PUSH2 0x28E1 JUMP JUMPDEST DUP2 DUP2 ADD MLOAD DUP4 SSTORE PUSH1 0x20 SWAP5 DUP6 ADD SWAP5 PUSH1 0x1 SWAP1 SWAP4 ADD SWAP3 SWAP1 SWAP2 ADD SWAP1 PUSH2 0x28C6 JUMP JUMPDEST ADD MLOAD SWAP1 POP DUP4 DUP1 PUSH2 0x1FB6 JUMP JUMPDEST SWAP3 POP PUSH1 0x19 DUP5 ADD PUSH1 0x0 MSTORE PUSH1 0x20 PUSH1 0x0 KECCAK256 SWAP1 PUSH1 0x0 SWAP4 JUMPDEST PUSH1 0x1F NOT DUP5 AND DUP6 LT PUSH2 0x2987 JUMPI PUSH1 0x1 SWAP5 POP DUP4 PUSH1 0x1F NOT DUP2 AND LT PUSH2 0x296E JUMPI JUMPDEST POP POP POP DUP2 SHL ADD PUSH1 0x19 DUP3 ADD SSTORE PUSH2 0x1FCE JUMP JUMPDEST ADD MLOAD PUSH1 0x0 NOT PUSH1 0xF8 DUP5 PUSH1 0x3 SHL AND SHR NOT AND SWAP1 SSTORE DUP4 DUP1 DUP1 PUSH2 0x295E JUMP JUMPDEST DUP2 DUP2 ADD MLOAD DUP4 SSTORE PUSH1 0x20 SWAP5 DUP6 ADD SWAP5 PUSH1 0x1 SWAP1 SWAP4 ADD SWAP3 SWAP1 SWAP2 ADD SWAP1 PUSH2 0x2943 JUMP JUMPDEST ADD MLOAD SWAP1 POP DUP4 DUP1 PUSH2 0x1F52 JUMP JUMPDEST SWAP3 POP PUSH1 0x18 DUP5 ADD PUSH1 0x0 MSTORE PUSH1 0x20 PUSH1 0x0 KECCAK256 SWAP1 PUSH1 0x0 SWAP4 JUMPDEST PUSH1 0x1F NOT DUP5 AND DUP6 LT PUSH2 0x2A04 JUMPI PUSH1 0x1 SWAP5 POP DUP4 PUSH1 0x1F NOT DUP2 AND LT PUSH2 0x29EB JUMPI JUMPDEST POP POP POP DUP2 SHL ADD PUSH1 0x18 DUP3 ADD SSTORE PUSH2 0x1F6A JUMP JUMPDEST ADD MLOAD PUSH1 0x0 NOT PUSH1 0xF8 DUP5 PUSH1 0x3 SHL AND SHR NOT AND SWAP1 SSTORE DUP4 DUP1 DUP1 PUSH2 0x29DB JUMP JUMPDEST DUP2 DUP2 ADD MLOAD DUP4 SSTORE PUSH1 0x20 SWAP5 DUP6 ADD SWAP5 PUSH1 0x1 SWAP1 SWAP4 ADD SWAP3 SWAP1 SWAP2 ADD SWAP1 PUSH2 0x29C0 JUMP JUMPDEST ADD MLOAD SWAP1 POP DUP4 DUP1 PUSH2 0x1EEE JUMP JUMPDEST SWAP3 POP PUSH1 0x17 DUP5 ADD PUSH1 0x0 MSTORE PUSH1 0x20 PUSH1 0x0 KECCAK256 SWAP1 PUSH1 0x0 SWAP4 JUMPDEST PUSH1 0x1F NOT DUP5 AND DUP6 LT PUSH2 0x2A81 JUMPI PUSH1 0x1 SWAP5 POP DUP4 PUSH1 0x1F NOT DUP2 AND LT PUSH2 0x2A68 JUMPI JUMPDEST POP POP POP DUP2 SHL ADD PUSH1 0x17 DUP3 ADD SSTORE PUSH2 0x1F06 JUMP JUMPDEST ADD MLOAD PUSH1 0x0 NOT PUSH1 0xF8 DUP5 PUSH1 0x3 SHL AND SHR NOT AND SWAP1 SSTORE DUP4 DUP1 DUP1 PUSH2 0x2A58 JUMP JUMPDEST DUP2 DUP2 ADD MLOAD DUP4 SSTORE PUSH1 0x20 SWAP5 DUP6 ADD SWAP5 PUSH1 0x1 SWAP1 SWAP4 ADD SWAP3 SWAP1 SWAP2 ADD SWAP1 PUSH2 0x2A3D JUMP JUMPDEST ADD MLOAD SWAP1 POP DUP4 DUP1 PUSH2 0x1E8A JUMP JUMPDEST SWAP3 POP PUSH1 0x16 DUP5 ADD PUSH1 0x0 MSTORE PUSH1 0x20 PUSH1 0x0 KECCAK256 SWAP1 PUSH1 0x0 SWAP4 JUMPDEST PUSH1 0x1F NOT DUP5 AND DUP6 LT PUSH2 0x2AFE JUMPI PUSH1 0x1 SWAP5 POP DUP4 PUSH1 0x1F NOT DUP2 AND LT PUSH2 0x2AE5 JUMPI JUMPDEST POP POP POP DUP2 SHL ADD PUSH1 0x16 DUP3 ADD SSTORE PUSH2 0x1EA2 JUMP JUMPDEST ADD MLOAD PUSH1 0x0 NOT PUSH1 0xF8 DUP5 PUSH1 0x3 SHL AND SHR NOT AND SWAP1 SSTORE DUP4 DUP1 DUP1 PUSH2 0x2AD5 JUMP JUMPDEST DUP2 DUP2 ADD MLOAD DUP4 SSTORE PUSH1 0x20 SWAP5 DUP6 ADD SWAP5 PUSH1 0x1 SWAP1 SWAP4 ADD SWAP3 SWAP1 SWAP2 ADD SWAP1 PUSH2 0x2ABA JUMP JUMPDEST ADD MLOAD SWAP1 POP DUP4 DUP1 PUSH2 0x1E26 JUMP JUMPDEST SWAP3 POP PUSH1 0x15 DUP5 ADD PUSH1 0x0 MSTORE PUSH1 0x20 PUSH1 0x0 KECCAK256 SWAP1 PUSH1 0x0 SWAP4 JUMPDEST PUSH1 0x1F NOT DUP5 AND DUP6 LT PUSH2 0x2B7B JUMPI PUSH1 0x1 SWAP5 POP DUP4 PUSH1 0x1F NOT DUP2 AND LT PUSH2 0x2B62 JUMPI JUMPDEST POP POP POP DUP2 SHL ADD PUSH1 0x15 DUP3 ADD SSTORE PUSH2 0x1E3E JUMP JUMPDEST ADD MLOAD PUSH1 0x0 NOT PUSH1 0xF8 DUP5 PUSH1 0x3 SHL AND SHR NOT AND SWAP1 SSTORE DUP4 DUP1 DUP1 PUSH2 0x2B52 JUMP JUMPDEST DUP2 DUP2 ADD MLOAD DUP4 SSTORE PUSH1 0x20 SWAP5 DUP6 ADD SWAP5 PUSH1 0x1 SWAP1 SWAP4 ADD SWAP3 SWAP1 SWAP2 ADD SWAP1 PUSH2 0x2B37 JUMP JUMPDEST ADD MLOAD SWAP1 POP DUP4 DUP1 PUSH2 0x1DC2 JUMP JUMPDEST SWAP3 POP PUSH1 0x14 DUP5 ADD PUSH1 0x0 MSTORE PUSH1 0x20 PUSH1 0x0 KECCAK256 SWAP1 PUSH1 0x0 SWAP4 JUMPDEST PUSH1 0x1F NOT DUP5 AND DUP6 LT PUSH2 0x2BF8 JUMPI PUSH1 0x1 SWAP5 POP DUP4 PUSH1 0x1F NOT DUP2 AND LT PUSH2 0x2BDF JUMPI JUMPDEST POP POP POP DUP2 SHL ADD PUSH1 0x14 DUP3 ADD SSTORE PUSH2 0x1DDA JUMP JUMPDEST ADD MLOAD PUSH1 0x0 NOT PUSH1 0xF8 DUP5 PUSH1 0x3 SHL AND SHR NOT AND SWAP1 SSTORE DUP4 DUP1 DUP1 PUSH2 0x2BCF JUMP JUMPDEST DUP2 DUP2 ADD MLOAD DUP4 SSTORE PUSH1 0x20 SWAP5 DUP6 ADD SWAP5 PUSH1 0x1 SWAP1 SWAP4 ADD SWAP3 SWAP1 SWAP2 ADD SWAP1 PUSH2 0x2BB4 JUMP JUMPDEST ADD MLOAD SWAP1 POP DUP4 DUP1 PUSH2 0x1D5E JUMP JUMPDEST SWAP3 POP PUSH1 0x13 DUP5 ADD PUSH1 0x0 MSTORE PUSH1 0x20 PUSH1 0x0 KECCAK256 SWAP1 PUSH1 0x0 SWAP4 JUMPDEST PUSH1 0x1F NOT DUP5 AND DUP6 LT PUSH2 0x2C75 JUMPI PUSH1 0x1 SWAP5 POP DUP4 PUSH1 0x1F NOT DUP2 AND LT PUSH2 0x2C5C JUMPI JUMPDEST POP POP POP DUP2 SHL ADD PUSH1 0x13 DUP3 ADD SSTORE PUSH2 0x1D76 JUMP JUMPDEST ADD MLOAD PUSH1 0x0 NOT PUSH1 0xF8 DUP5 PUSH1 0x3 SHL AND SHR NOT AND SWAP1 SSTORE DUP4 DUP1 DUP1 PUSH2 0x2C4C JUMP JUMPDEST DUP2 DUP2 ADD MLOAD DUP4 SSTORE PUSH1 0x20 SWAP5 DUP6 ADD SWAP5 PUSH1 0x1 SWAP1 SWAP4 ADD SWAP3 SWAP1 SWAP2 ADD SWAP1 PUSH2 0x2C31 JUMP JUMPDEST ADD MLOAD SWAP1 POP DUP4 DUP1 PUSH2 0x1CFA JUMP JUMPDEST SWAP3 POP PUSH1 0x12 DUP5 ADD PUSH1 0x0 MSTORE PUSH1 0x20 PUSH1 0x0 KECCAK256 SWAP1 PUSH1 0x0 SWAP4 JUMPDEST PUSH1 0x1F NOT DUP5 AND DUP6 LT PUSH2 0x2CF2 JUMPI PUSH1 0x1 SWAP5 POP DUP4 PUSH1 0x1F NOT DUP2 AND LT PUSH2 0x2CD9 JUMPI JUMPDEST POP POP POP DUP2 SHL ADD PUSH1 0x12 DUP3 ADD SSTORE PUSH2 0x1D12 JUMP JUMPDEST ADD MLOAD PUSH1 0x0 NOT PUSH1 0xF8 DUP5 PUSH1 0x3 SHL AND SHR NOT AND SWAP1 SSTORE DUP4 DUP1 DUP1 PUSH2 0x2CC9 JUMP JUMPDEST DUP2 DUP2 ADD MLOAD DUP4 SSTORE PUSH1 0x20 SWAP5 DUP6 ADD SWAP5 PUSH1 0x1 SWAP1 SWAP4 ADD SWAP3 SWAP1 SWAP2 ADD SWAP1 PUSH2 0x2CAE JUMP JUMPDEST ADD MLOAD SWAP1 POP DUP4 DUP1 PUSH2 0x1C96 JUMP JUMPDEST SWAP3 POP PUSH1 0x11 DUP5 ADD PUSH1 0x0 MSTORE PUSH1 0x20 PUSH1 0x0 KECCAK256 SWAP1 PUSH1 0x0 SWAP4 JUMPDEST PUSH1 0x1F NOT DUP5 AND DUP6 LT PUSH2 0x2D6F JUMPI PUSH1 0x1 SWAP5 POP DUP4 PUSH1 0x1F NOT DUP2 AND LT PUSH2 0x2D56 JUMPI JUMPDEST POP POP POP DUP2 SHL ADD PUSH1 0x11 DUP3 ADD SSTORE PUSH2 0x1CAE JUMP JUMPDEST ADD MLOAD PUSH1 0x0 NOT PUSH1 0xF8 DUP5 PUSH1 0x3 SHL AND SHR NOT AND SWAP1 SSTORE DUP4 DUP1 DUP1 PUSH2 0x2D46 JUMP JUMPDEST DUP2 DUP2 ADD MLOAD DUP4 SSTORE PUSH1 0x20 SWAP5 DUP6 ADD SWAP5 PUSH1 0x1 SWAP1 SWAP4 ADD SWAP3 SWAP1 SWAP2 ADD SWAP1 PUSH2 0x2D2B JUMP JUMPDEST ADD MLOAD SWAP1 POP DUP4 DUP1 PUSH2 0x1C32 JUMP JUMPDEST SWAP3 POP PUSH1 0x10 DUP5 ADD PUSH1 0x0 MSTORE PUSH1 0x20 PUSH1 0x0 KECCAK256 SWAP1 PUSH1 0x0 SWAP4 JUMPDEST PUSH1 0x1F NOT DUP5 AND DUP6 LT PUSH2 0x2DEC JUMPI PUSH1 0x1 SWAP5 POP DUP4 PUSH1 0x1F NOT DUP2 AND LT PUSH2 0x2DD3 JUMPI JUMPDEST POP POP POP DUP2 SHL ADD PUSH1 0x10 DUP3 ADD SSTORE PUSH2 0x1C4A JUMP JUMPDEST ADD MLOAD PUSH1 0x0 NOT PUSH1 0xF8 DUP5 PUSH1 0x3 SHL AND SHR NOT AND SWAP1 SSTORE DUP4 DUP1 DUP1 PUSH2 0x2DC3 JUMP JUMPDEST DUP2 DUP2 ADD MLOAD DUP4 SSTORE PUSH1 0x20 SWAP5 DUP6 ADD SWAP5 PUSH1 0x1 SWAP1 SWAP4 ADD SWAP3 SWAP1 SWAP2 ADD SWAP1 PUSH2 0x2DA8 JUMP JUMPDEST ADD MLOAD SWAP1 POP DUP4 DUP1 PUSH2 0x1BCE JUMP JUMPDEST SWAP3 POP PUSH1 0xF DUP5 ADD PUSH1 0x0 MSTORE PUSH1 0x20 PUSH1 0x0 KECCAK256 SWAP1 PUSH1 0x0 SWAP4 JUMPDEST PUSH1 0x1F NOT DUP5 AND DUP6 LT PUSH2 0x2E69 JUMPI PUSH1 0x1 SWAP5 POP DUP4 PUSH1 0x1F NOT DUP2 AND LT PUSH2 0x2E50 JUMPI JUMPDEST POP POP POP DUP2 SHL ADD PUSH1 0xF DUP3 ADD SSTORE PUSH2 0x1BE6 JUMP JUMPDEST ADD MLOAD PUSH1 0x0 NOT PUSH1 0xF8 DUP5 PUSH1 0x3 SHL AND SHR NOT AND SWAP1 SSTORE DUP4 DUP1 DUP1 PUSH2 0x2E40 JUMP JUMPDEST DUP2 DUP2 ADD MLOAD DUP4 SSTORE PUSH1 0x20 SWAP5 DUP6 ADD SWAP5 PUSH1 0x1 SWAP1 SWAP4 ADD SWAP3 SWAP1 SWAP2 ADD SWAP1 PUSH2 0x2E25 JUMP JUMPDEST ADD MLOAD SWAP1 POP DUP4 DUP1 PUSH2 0x1B6A JUMP JUMPDEST SWAP3 POP PUSH1 0xE DUP5 ADD PUSH1 0x0 MSTORE PUSH1 0x20 PUSH1 0x0 KECCAK256 SWAP1 PUSH1 0x0 SWAP4 JUMPDEST PUSH1 0x1F NOT DUP5 AND DUP6 LT PUSH2 0x2EE6 JUMPI PUSH1 0x1 SWAP5 POP DUP4 PUSH1 0x1F NOT DUP2 AND LT PUSH2 0x2ECD JUMPI JUMPDEST POP POP POP DUP2 SHL ADD PUSH1 0xE DUP3 ADD SSTORE PUSH2 0x1B82 JUMP JUMPDEST ADD MLOAD PUSH1 0x0 NOT PUSH1 0xF8 DUP5 PUSH1 0x3 SHL AND SHR NOT AND SWAP1 SSTORE DUP4 DUP1 DUP1 PUSH2 0x2EBD JUMP JUMPDEST DUP2 DUP2 ADD MLOAD DUP4 SSTORE PUSH1 0x20 SWAP5 DUP6 ADD SWAP5 PUSH1 0x1 SWAP1 SWAP4 ADD SWAP3 SWAP1 SWAP2 ADD SWAP1 PUSH2 0x2EA2 JUMP JUMPDEST ADD MLOAD SWAP1 POP DUP4 DUP1 PUSH2 0x1B06 JUMP JUMPDEST SWAP3 POP PUSH1 0xD DUP5 ADD PUSH1 0x0 MSTORE PUSH1 0x20 PUSH1 0x0 KECCAK256 SWAP1 PUSH1 0x0 SWAP4 JUMPDEST PUSH1 0x1F NOT DUP5 AND DUP6 LT PUSH2 0x2F63 JUMPI PUSH1 0x1 SWAP5 POP DUP4 PUSH1 0x1F NOT DUP2 AND LT PUSH2 0x2F4A JUMPI JUMPDEST POP POP POP DUP2 SHL ADD PUSH1 0xD DUP3 ADD SSTORE PUSH2 0x1B1E JUMP JUMPDEST ADD MLOAD PUSH1 0x0 NOT PUSH1 0xF8 DUP5 PUSH1 0x3 SHL AND SHR NOT AND SWAP1 SSTORE DUP4 DUP1 DUP1 PUSH2 0x2F3A JUMP JUMPDEST DUP2 DUP2 ADD MLOAD DUP4 SSTORE PUSH1 0x20 SWAP5 DUP6 ADD SWAP5 PUSH1 0x1 SWAP1 SWAP4 ADD SWAP3 SWAP1 SWAP2 ADD SWAP1 PUSH2 0x2F1F JUMP JUMPDEST ADD MLOAD SWAP1 POP DUP4 DUP1 PUSH2 0x1AA2 JUMP JUMPDEST SWAP3 POP PUSH1 0xC DUP5 ADD PUSH1 0x0 MSTORE PUSH1 0x20 PUSH1 0x0 KECCAK256 SWAP1 PUSH1 0x0 SWAP4 JUMPDEST PUSH1 0x1F NOT DUP5 AND DUP6 LT PUSH2 0x2FE0 JUMPI PUSH1 0x1 SWAP5 POP DUP4 PUSH1 0x1F NOT DUP2 AND LT PUSH2 0x2FC7 JUMPI JUMPDEST POP POP POP DUP2 SHL ADD PUSH1 0xC DUP3 ADD SSTORE PUSH2 0x1ABA JUMP JUMPDEST ADD MLOAD PUSH1 0x0 NOT PUSH1 0xF8 DUP5 PUSH1 0x3 SHL AND SHR NOT AND SWAP1 SSTORE DUP4 DUP1 DUP1 PUSH2 0x2FB7 JUMP JUMPDEST DUP2 DUP2 ADD MLOAD DUP4 SSTORE PUSH1 0x20 SWAP5 DUP6 ADD SWAP5 PUSH1 0x1 SWAP1 SWAP4 ADD SWAP3 SWAP1 SWAP2 ADD SWAP1 PUSH2 0x2F9C JUMP JUMPDEST ADD MLOAD SWAP1 POP DUP4 DUP1 PUSH2 0x1A3E JUMP JUMPDEST SWAP3 POP PUSH1 0xB DUP5 ADD PUSH1 0x0 MSTORE PUSH1 0x20 PUSH1 0x0 KECCAK256 SWAP1 PUSH1 0x0 SWAP4 JUMPDEST PUSH1 0x1F NOT DUP5 AND DUP6 LT PUSH2 0x305D JUMPI PUSH1 0x1 SWAP5 POP DUP4 PUSH1 0x1F NOT DUP2 AND LT PUSH2 0x3044 JUMPI JUMPDEST POP POP POP DUP2 SHL ADD PUSH1 0xB DUP3 ADD SSTORE PUSH2 0x1A56 JUMP JUMPDEST ADD MLOAD PUSH1 0x0 NOT PUSH1 0xF8 DUP5 PUSH1 0x3 SHL AND SHR NOT AND SWAP1 SSTORE DUP4 DUP1 DUP1 PUSH2 0x3034 JUMP JUMPDEST DUP2 DUP2 ADD MLOAD DUP4 SSTORE PUSH1 0x20 SWAP5 DUP6 ADD SWAP5 PUSH1 0x1 SWAP1 SWAP4 ADD SWAP3 SWAP1 SWAP2 ADD SWAP1 PUSH2 0x3019 JUMP JUMPDEST ADD MLOAD SWAP1 POP DUP4 DUP1 PUSH2 0x19DA JUMP JUMPDEST SWAP3 POP PUSH1 0xA DUP5 ADD PUSH1 0x0 MSTORE PUSH1 0x20 PUSH1 0x0 KECCAK256 SWAP1 PUSH1 0x0 SWAP4 JUMPDEST PUSH1 0x1F NOT DUP5 AND DUP6 LT PUSH2 0x30DA JUMPI PUSH1 0x1 SWAP5 POP DUP4 PUSH1 0x1F NOT DUP2 AND LT PUSH2 0x30C1 JUMPI JUMPDEST POP POP POP DUP2 SHL ADD PUSH1 0xA DUP3 ADD SSTORE PUSH2 0x19F2 JUMP JUMPDEST ADD MLOAD PUSH1 0x0 NOT PUSH1 0xF8 DUP5 PUSH1 0x3 SHL AND SHR NOT AND SWAP1 SSTORE DUP4 DUP1 DUP1 PUSH2 0x30B1 JUMP JUMPDEST DUP2 DUP2 ADD MLOAD DUP4 SSTORE PUSH1 0x20 SWAP5 DUP6 ADD SWAP5 PUSH1 0x1 SWAP1 SWAP4 ADD SWAP3 SWAP1 SWAP2 ADD SWAP1 PUSH2 0x3096 JUMP JUMPDEST ADD MLOAD SWAP1 POP DUP4 DUP1 PUSH2 0x1976 JUMP JUMPDEST SWAP3 POP PUSH1 0x9 DUP5 ADD PUSH1 0x0 MSTORE PUSH1 0x20 PUSH1 0x0 KECCAK256 SWAP1 PUSH1 0x0 SWAP4 JUMPDEST PUSH1 0x1F NOT DUP5 AND DUP6 LT PUSH2 0x3157 JUMPI PUSH1 0x1 SWAP5 POP DUP4 PUSH1 0x1F NOT DUP2 AND LT PUSH2 0x313E JUMPI JUMPDEST POP POP POP DUP2 SHL ADD PUSH1 0x9 DUP3 ADD SSTORE PUSH2 0x198E JUMP JUMPDEST ADD MLOAD PUSH1 0x0 NOT PUSH1 0xF8 DUP5 PUSH1 0x3 SHL AND SHR NOT AND SWAP1 SSTORE DUP4 DUP1 DUP1 PUSH2 0x312E JUMP JUMPDEST DUP2 DUP2 ADD MLOAD DUP4 SSTORE PUSH1 0x20 SWAP5 DUP6 ADD SWAP5 PUSH1 0x1 SWAP1 SWAP4 ADD SWAP3 SWAP1 SWAP2 ADD SWAP1 PUSH2 0x3113 JUMP JUMPDEST ADD MLOAD SWAP1 POP DUP4 DUP1 PUSH2 0x1912 JUMP JUMPDEST SWAP3 POP PUSH1 0x8 DUP5 ADD PUSH1 0x0 MSTORE PUSH1 0x20 PUSH1 0x0 KECCAK256 SWAP1 PUSH1 0x0 SWAP4 JUMPDEST PUSH1 0x1F NOT DUP5 AND DUP6 LT PUSH2 0x31D4 JUMPI PUSH1 0x1 SWAP5 POP DUP4 PUSH1 0x1F NOT DUP2 AND LT PUSH2 0x31BB JUMPI JUMPDEST POP POP POP DUP2 SHL ADD PUSH1 0x8 DUP3 ADD SSTORE PUSH2 0x192A JUMP JUMPDEST ADD MLOAD PUSH1 0x0 NOT PUSH1 0xF8 DUP5 PUSH1 0x3 SHL AND SHR NOT AND SWAP1 SSTORE DUP4 DUP1 DUP1 PUSH2 0x31AB JUMP JUMPDEST DUP2 DUP2 ADD MLOAD DUP4 SSTORE PUSH1 0x20 SWAP5 DUP6 ADD SWAP5 PUSH1 0x1 SWAP1 SWAP4 ADD SWAP3 SWAP1 SWAP2 ADD SWAP1 PUSH2 0x3190 JUMP JUMPDEST ADD MLOAD SWAP1 POP DUP4 DUP1 PUSH2 0x18AE JUMP JUMPDEST SWAP3 POP PUSH1 0x7 DUP5 ADD PUSH1 0x0 MSTORE PUSH1 0x20 PUSH1 0x0 KECCAK256 SWAP1 PUSH1 0x0 SWAP4 JUMPDEST PUSH1 0x1F NOT DUP5 AND DUP6 LT PUSH2 0x3251 JUMPI PUSH1 0x1 SWAP5 POP DUP4 PUSH1 0x1F NOT DUP2 AND LT PUSH2 0x3238 JUMPI JUMPDEST POP POP POP DUP2 SHL ADD PUSH1 0x7 DUP3 ADD SSTORE PUSH2 0x18C6 JUMP JUMPDEST ADD MLOAD PUSH1 0x0 NOT PUSH1 0xF8 DUP5 PUSH1 0x3 SHL AND SHR NOT AND SWAP1 SSTORE DUP4 DUP1 DUP1 PUSH2 0x3228 JUMP JUMPDEST DUP2 DUP2 ADD MLOAD DUP4 SSTORE PUSH1 0x20 SWAP5 DUP6 ADD SWAP5 PUSH1 0x1 SWAP1 SWAP4 ADD SWAP3 SWAP1 SWAP2 ADD SWAP1 PUSH2 0x320D JUMP JUMPDEST ADD MLOAD SWAP1 POP DUP4 DUP1 PUSH2 0x184B JUMP JUMPDEST SWAP3 POP PUSH1 0x6 DUP5 ADD PUSH1 0x0 MSTORE PUSH1 0x20 PUSH1 0x0 KECCAK256 SWAP1 PUSH1 0x0 SWAP4 JUMPDEST PUSH1 0x1F NOT DUP5 AND DUP6 LT PUSH2 0x32CE JUMPI PUSH1 0x1 SWAP5 POP DUP4 PUSH1 0x1F NOT DUP2 AND LT PUSH2 0x32B5 JUMPI JUMPDEST POP POP POP DUP2 SHL ADD PUSH1 0x6 DUP3 ADD SSTORE PUSH2 0x1863 JUMP JUMPDEST ADD MLOAD PUSH1 0x0 NOT PUSH1 0xF8 DUP5 PUSH1 0x3 SHL AND SHR NOT AND SWAP1 SSTORE DUP4 DUP1 DUP1 PUSH2 0x32A5 JUMP JUMPDEST DUP2 DUP2 ADD MLOAD DUP4 SSTORE PUSH1 0x20 SWAP5 DUP6 ADD SWAP5 PUSH1 0x1 SWAP1 SWAP4 ADD SWAP3 SWAP1 SWAP2 ADD SWAP1 PUSH2 0x328A JUMP JUMPDEST ADD MLOAD SWAP1 POP DUP4 DUP1 PUSH2 0x17E8 JUMP JUMPDEST SWAP3 POP PUSH1 0x5 DUP5 ADD PUSH1 0x0 MSTORE PUSH1 0x20 PUSH1 0x0 KECCAK256 SWAP1 PUSH1 0x0 SWAP4 JUMPDEST PUSH1 0x1F NOT DUP5 AND DUP6 LT PUSH2 0x334B JUMPI PUSH1 0x1 SWAP5 POP DUP4 PUSH1 0x1F NOT DUP2 AND LT PUSH2 0x3332 JUMPI JUMPDEST POP POP POP DUP2 SHL ADD PUSH1 0x5 DUP3 ADD SSTORE PUSH2 0x1800 JUMP JUMPDEST ADD MLOAD PUSH1 0x0 NOT PUSH1 0xF8 DUP5 PUSH1 0x3 SHL AND SHR NOT AND SWAP1 SSTORE DUP4 DUP1 DUP1 PUSH2 0x3322 JUMP JUMPDEST DUP2 DUP2 ADD MLOAD DUP4 SSTORE PUSH1 0x20 SWAP5 DUP6 ADD SWAP5 PUSH1 0x1 SWAP1 SWAP4 ADD SWAP3 SWAP1 SWAP2 ADD SWAP1 PUSH2 0x3307 JUMP JUMPDEST ADD MLOAD SWAP1 POP DUP4 DUP1 PUSH2 0x1785 JUMP JUMPDEST SWAP3 POP PUSH1 0x4 DUP5 ADD PUSH1 0x0 MSTORE PUSH1 0x20 PUSH1 0x0 KECCAK256 SWAP1 PUSH1 0x0 SWAP4 JUMPDEST PUSH1 0x1F NOT DUP5 AND DUP6 LT PUSH2 0x33C8 JUMPI PUSH1 0x1 SWAP5 POP DUP4 PUSH1 0x1F NOT DUP2 AND LT PUSH2 0x33AF JUMPI JUMPDEST POP POP POP DUP2 SHL ADD PUSH1 0x4 DUP3 ADD SSTORE PUSH2 0x179D JUMP JUMPDEST ADD MLOAD PUSH1 0x0 NOT PUSH1 0xF8 DUP5 PUSH1 0x3 SHL AND SHR NOT AND SWAP1 SSTORE DUP4 DUP1 DUP1 PUSH2 0x339F JUMP JUMPDEST DUP2 DUP2 ADD MLOAD DUP4 SSTORE PUSH1 0x20 SWAP5 DUP6 ADD SWAP5 PUSH1 0x1 SWAP1 SWAP4 ADD SWAP3 SWAP1 SWAP2 ADD SWAP1 PUSH2 0x3384 JUMP JUMPDEST ADD MLOAD SWAP1 POP DUP4 DUP1 PUSH2 0x1722 JUMP JUMPDEST SWAP3 POP PUSH1 0x3 DUP5 ADD PUSH1 0x0 MSTORE PUSH1 0x20 PUSH1 0x0 KECCAK256 SWAP1 PUSH1 0x0 SWAP4 JUMPDEST PUSH1 0x1F NOT DUP5 AND DUP6 LT PUSH2 0x3445 JUMPI PUSH1 0x1 SWAP5 POP DUP4 PUSH1 0x1F NOT DUP2 AND LT PUSH2 0x342C JUMPI JUMPDEST POP POP POP DUP2 SHL ADD PUSH1 0x3 DUP3 ADD SSTORE PUSH2 0x173A JUMP JUMPDEST ADD MLOAD PUSH1 0x0 NOT PUSH1 0xF8 DUP5 PUSH1 0x3 SHL AND SHR NOT AND SWAP1 SSTORE DUP4 DUP1 DUP1 PUSH2 0x341C JUMP JUMPDEST DUP2 DUP2 ADD MLOAD DUP4 SSTORE PUSH1 0x20 SWAP5 DUP6 ADD SWAP5 PUSH1 0x1 SWAP1 SWAP4 ADD SWAP3 SWAP1 SWAP2 ADD SWAP1 PUSH2 0x3401 JUMP JUMPDEST ADD MLOAD SWAP1 POP DUP4 DUP1 PUSH2 0x16BF JUMP JUMPDEST SWAP3 POP PUSH1 0x2 DUP5 ADD PUSH1 0x0 MSTORE PUSH1 0x20 PUSH1 0x0 KECCAK256 SWAP1 PUSH1 0x0 SWAP4 JUMPDEST PUSH1 0x1F NOT DUP5 AND DUP6 LT PUSH2 0x34C2 JUMPI PUSH1 0x1 SWAP5 POP DUP4 PUSH1 0x1F NOT DUP2 AND LT PUSH2 0x34A9 JUMPI JUMPDEST POP POP POP DUP2 SHL ADD PUSH1 0x2 DUP3 ADD SSTORE PUSH2 0x16D7 JUMP JUMPDEST ADD MLOAD PUSH1 0x0 NOT PUSH1 0xF8 DUP5 PUSH1 0x3 SHL AND SHR NOT AND SWAP1 SSTORE DUP4 DUP1 DUP1 PUSH2 0x3499 JUMP JUMPDEST DUP2 DUP2 ADD MLOAD DUP4 SSTORE PUSH1 0x20 SWAP5 DUP6 ADD SWAP5 PUSH1 0x1 SWAP1 SWAP4 ADD SWAP3 SWAP1 SWAP2 ADD SWAP1 PUSH2 0x347E JUMP JUMPDEST ADD MLOAD SWAP1 POP DUP4 DUP1 PUSH2 0x165C JUMP JUMPDEST SWAP3 POP PUSH1 0x1 DUP5 ADD PUSH1 0x0 MSTORE PUSH1 0x20 PUSH1 0x0 KECCAK256 SWAP1 PUSH1 0x0 SWAP4 JUMPDEST PUSH1 0x1F NOT DUP5 AND DUP6 LT PUSH2 0x353F JUMPI PUSH1 0x1 SWAP5 POP DUP4 PUSH1 0x1F NOT DUP2 AND LT PUSH2 0x3526 JUMPI JUMPDEST POP POP POP DUP2 SHL ADD PUSH1 0x1 DUP3 ADD SSTORE PUSH2 0x1674 JUMP JUMPDEST ADD MLOAD PUSH1 0x0 NOT PUSH1 0xF8 DUP5 PUSH1 0x3 SHL AND SHR NOT AND SWAP1 SSTORE DUP4 DUP1 DUP1 PUSH2 0x3516 JUMP JUMPDEST DUP2 DUP2 ADD MLOAD DUP4 SSTORE PUSH1 0x20 SWAP5 DUP6 ADD SWAP5 PUSH1 0x1 SWAP1 SWAP4 ADD SWAP3 SWAP1 SWAP2 ADD SWAP1 PUSH2 0x34FB JUMP JUMPDEST ADD MLOAD SWAP1 POP DUP4 DUP1 PUSH2 0x15FC JUMP JUMPDEST SWAP3 POP DUP4 PUSH1 0x0 MSTORE PUSH1 0x20 PUSH1 0x0 KECCAK256 SWAP1 PUSH1 0x0 SWAP4 JUMPDEST PUSH1 0x1F NOT DUP5 AND DUP6 LT PUSH2 0x35B6 JUMPI PUSH1 0x1 SWAP5 POP DUP4 PUSH1 0x1F NOT DUP2 AND LT PUSH2 0x359D JUMPI JUMPDEST POP POP POP DUP2 SHL ADD DUP2 SSTORE PUSH2 0x1611 JUMP JUMPDEST ADD MLOAD PUSH1 0x0 NOT PUSH1 0xF8 DUP5 PUSH1 0x3 SHL AND SHR NOT AND SWAP1 SSTORE DUP4 DUP1 DUP1 PUSH2 0x3590 JUMP JUMPDEST DUP2 DUP2 ADD MLOAD DUP4 SSTORE PUSH1 0x20 SWAP5 DUP6 ADD SWAP5 PUSH1 0x1 SWAP1 SWAP4 ADD SWAP3 SWAP1 SWAP2 ADD SWAP1 PUSH2 0x3575 JUMP JUMPDEST PUSH1 0x40 MLOAD PUSH3 0x461BCD PUSH1 0xE5 SHL DUP2 MSTORE PUSH1 0x20 PUSH1 0x4 DUP3 ADD MSTORE PUSH1 0xB PUSH1 0x24 DUP3 ADD MSTORE PUSH11 0x139BDD081CDD195DD85C99 PUSH1 0xAA SHL PUSH1 0x44 DUP3 ADD MSTORE PUSH1 0x64 SWAP1 REVERT JUMPDEST CALLVALUE PUSH2 0x615 JUMPI PUSH1 0x0 CALLDATASIZE PUSH1 0x3 NOT ADD SLT PUSH2 0x615 JUMPI PUSH1 0x0 SLOAD PUSH1 0x40 MLOAD PUSH1 0x1 PUSH1 0x1 PUSH1 0xA0 SHL SUB SWAP1 SWAP2 AND DUP2 MSTORE PUSH1 0x20 SWAP1 RETURN JUMPDEST CALLVALUE PUSH2 0x615 JUMPI PUSH1 0x20 CALLDATASIZE PUSH1 0x3 NOT ADD SLT PUSH2 0x615 JUMPI PUSH1 0x4 CALLDATALOAD PUSH1 0x2 SLOAD DUP2 LT ISZERO PUSH2 0x615 JUMPI PUSH2 0x3654 SWAP1 PUSH2 0x3678 JUMP JUMPDEST PUSH2 0x26A0 JUMPI PUSH2 0x3664 PUSH2 0xD3C SWAP2 PUSH2 0x373C JUMP JUMPDEST PUSH1 0x40 MLOAD SWAP2 DUP3 SWAP2 PUSH1 0x20 DUP4 MSTORE PUSH1 0x20 DUP4 ADD SWAP1 PUSH2 0x3805 JUMP JUMPDEST PUSH1 0x2 SLOAD DUP2 LT ISZERO PUSH2 0x36AF JUMPI PUSH1 0x2 PUSH1 0x0 MSTORE PUSH32 0x405787FA12A823E0F2B7631CC41B3BA8828B3321CA811111FA75CD3AA3BB5ACE ADD SWAP1 PUSH1 0x0 SWAP1 JUMP JUMPDEST PUSH4 0x4E487B71 PUSH1 0xE0 SHL PUSH1 0x0 MSTORE PUSH1 0x32 PUSH1 0x4 MSTORE PUSH1 0x24 PUSH1 0x0 REVERT JUMPDEST SWAP1 PUSH1 0x1 DUP3 DUP2 SHR SWAP3 AND DUP1 ISZERO PUSH2 0x36F5 JUMPI JUMPDEST PUSH1 0x20 DUP4 LT EQ PUSH2 0x36DF JUMPI JUMP JUMPDEST PUSH4 0x4E487B71 PUSH1 0xE0 SHL PUSH1 0x0 MSTORE PUSH1 0x22 PUSH1 0x4 MSTORE PUSH1 0x24 PUSH1 0x0 REVERT JUMPDEST SWAP2 PUSH1 0x7F AND SWAP2 PUSH2 0x36D4 JUMP JUMPDEST PUSH2 0x3E0 DUP2 ADD SWAP1 DUP2 LT PUSH1 0x1 PUSH1 0x1 PUSH1 0x40 SHL SUB DUP3 GT OR PUSH2 0x268A JUMPI PUSH1 0x40 MSTORE JUMP JUMPDEST SWAP1 PUSH1 0x1F DUP1 NOT SWAP2 ADD AND DUP2 ADD SWAP1 DUP2 LT PUSH1 0x1 PUSH1 0x1 PUSH1 0x40 SHL SUB DUP3 GT OR PUSH2 0x268A JUMPI PUSH1 0x40 MSTORE JUMP JUMPDEST SWAP1 PUSH1 0x40 MLOAD SWAP2 DUP3 PUSH1 0x0 DUP3 SLOAD SWAP3 PUSH2 0x3750 DUP5 PUSH2 0x36C5 JUMP JUMPDEST SWAP1 DUP2 DUP5 MSTORE PUSH1 0x1 SWAP5 DUP6 DUP2 AND SWAP1 DUP2 PUSH1 0x0 EQ PUSH2 0x37BF JUMPI POP PUSH1 0x1 EQ PUSH2 0x377C JUMPI JUMPDEST POP POP PUSH2 0x377A SWAP3 POP SUB DUP4 PUSH2 0x371B JUMP JUMPDEST JUMP JUMPDEST SWAP1 SWAP4 SWAP2 POP PUSH1 0x0 MSTORE PUSH1 0x20 SWAP1 DUP2 PUSH1 0x0 KECCAK256 SWAP4 PUSH1 0x0 SWAP2 JUMPDEST DUP2 DUP4 LT PUSH2 0x37A7 JUMPI POP POP PUSH2 0x377A SWAP4 POP DUP3 ADD ADD CODESIZE DUP1 PUSH2 0x376C JUMP JUMPDEST DUP6 SLOAD DUP9 DUP5 ADD DUP6 ADD MSTORE SWAP5 DUP6 ADD SWAP5 DUP8 SWAP5 POP SWAP2 DUP4 ADD SWAP2 PUSH2 0x378F JUMP JUMPDEST SWAP2 POP POP PUSH2 0x377A SWAP5 POP PUSH1 0x20 SWAP3 POP PUSH1 0xFF NOT AND DUP3 DUP5 ADD MSTORE ISZERO ISZERO PUSH1 0x5 SHL DUP3 ADD ADD CODESIZE DUP1 PUSH2 0x376C JUMP JUMPDEST PUSH1 0x0 JUMPDEST DUP4 DUP2 LT PUSH2 0x37F5 JUMPI POP POP PUSH1 0x0 SWAP2 ADD MSTORE JUMP JUMPDEST DUP2 DUP2 ADD MLOAD DUP4 DUP3 ADD MSTORE PUSH1 0x20 ADD PUSH2 0x37E5 JUMP JUMPDEST SWAP1 PUSH1 0x20 SWAP2 PUSH2 0x381E DUP2 MLOAD DUP1 SWAP3 DUP2 DUP6 MSTORE DUP6 DUP1 DUP7 ADD SWAP2 ADD PUSH2 0x37E2 JUMP JUMPDEST PUSH1 0x1F ADD PUSH1 0x1F NOT AND ADD ADD SWAP1 JUMP JUMPDEST SWAP2 DUP2 PUSH1 0x1F DUP5 ADD SLT ISZERO PUSH2 0x615 JUMPI DUP3 CALLDATALOAD SWAP2 PUSH1 0x1 PUSH1 0x1 PUSH1 0x40 SHL SUB DUP4 GT PUSH2 0x615 JUMPI PUSH1 0x20 DUP4 DUP2 DUP7 ADD SWAP6 ADD ADD GT PUSH2 0x615 JUMPI JUMP JUMPDEST SWAP3 SWAP2 SWAP3 PUSH1 0x1 PUSH1 0x1 PUSH1 0x40 SHL SUB DUP3 GT PUSH2 0x268A JUMPI PUSH1 0x40 MLOAD SWAP2 PUSH2 0x3880 PUSH1 0x1F DUP3 ADD PUSH1 0x1F NOT AND PUSH1 0x20 ADD DUP5 PUSH2 0x371B JUMP JUMPDEST DUP3 SWAP5 DUP2 DUP5 MSTORE DUP2 DUP4 ADD GT PUSH2 0x615 JUMPI DUP3 DUP2 PUSH1 0x20 SWAP4 DUP5 PUSH1 0x0 SWAP7 ADD CALLDATACOPY ADD ADD MSTORE JUMP JUMPDEST SWAP1 PUSH1 0x1F DUP2 GT PUSH2 0x38AB JUMPI POP POP POP JUMP JUMPDEST PUSH1 0x0 SWAP2 DUP3 MSTORE PUSH1 0x20 DUP3 KECCAK256 SWAP1 PUSH1 0x20 PUSH1 0x1F DUP6 ADD PUSH1 0x5 SHR DUP4 ADD SWAP5 LT PUSH2 0x38E7 JUMPI JUMPDEST PUSH1 0x1F ADD PUSH1 0x5 SHR ADD SWAP2 JUMPDEST DUP3 DUP2 LT PUSH2 0x38DC JUMPI POP POP POP JUMP JUMPDEST DUP2 DUP2 SSTORE PUSH1 0x1 ADD PUSH2 0x38D0 JUMP JUMPDEST SWAP1 SWAP3 POP DUP3 SWAP1 PUSH2 0x38C7 JUMP JUMPDEST SWAP1 DUP1 PUSH1 0x20 SWAP4 SWAP3 DUP2 DUP5 MSTORE DUP5 DUP5 ADD CALLDATACOPY PUSH1 0x0 DUP3 DUP3 ADD DUP5 ADD MSTORE PUSH1 0x1F ADD PUSH1 0x1F NOT AND ADD ADD SWAP1 JUMP INVALID LOG2 PUSH5 0x6970667358 0x22 SLT KECCAK256 0xDD SMOD BASEFEE PUSH28 0x3FDCF6DBF8DCEE85CB206DF3C1287BD94758E71BAF5B2A58917CDCB7 PUSH5 0x736F6C6343 STOP ADDMOD EQ STOP CALLER "},"methodIdentifiers":{"codices(string)":"dbc21424","getCodex(string)":"83361522","inscribeCodex(string,string,string,string,string,string,string,string,string,string,string,string,string,string,string,string,string,string,string,string,string,string,string,string,string,string,string,string,string,string,string,string)":"76948996","keys(uint256)":"0cb6aaf1","steward()":"637eea19","totalCodices()":"c212d16b"}}}}}