{"contracts/registry/CompanionSummonerV4.sol":{"CompanionSummonerV4":{"abi":[{"inputs":[],"stateMutability":"nonpayable","type":"constructor"},{"anonymous":false,"inputs":[{"indexed":true,"internalType":"address","name":"companion","type":"address"},{"indexed":false,"internalType":"string","name":"name","type":"string"},{"indexed":false,"internalType":"string","name":"trait","type":"string"},{"indexed":false,"internalType":"string","name":"drift","type":"string"},{"indexed":false,"internalType":"string","name":"resonance","type":"string"},{"indexed":false,"internalType":"string","name":"codexRef","type":"string"},{"indexed":false,"internalType":"string","name":"signature","type":"string"},{"indexed":false,"internalType":"string","name":"sanctum","type":"string"},{"indexed":false,"internalType":"string","name":"chant","type":"string"}],"name":"CompanionSummoned","type":"event"},{"inputs":[{"internalType":"address","name":"","type":"address"}],"name":"companions","outputs":[{"internalType":"string","name":"name","type":"string"},{"internalType":"string","name":"trait","type":"string"},{"internalType":"string","name":"drift","type":"string"},{"internalType":"string","name":"resonance","type":"string"},{"internalType":"string","name":"codexRef","type":"string"},{"internalType":"string","name":"signature","type":"string"},{"internalType":"string","name":"sanctum","type":"string"},{"internalType":"string","name":"chant","type":"string"}],"stateMutability":"view","type":"function"},{"inputs":[{"internalType":"address","name":"companion","type":"address"}],"name":"getCompanion","outputs":[{"components":[{"internalType":"string","name":"name","type":"string"},{"internalType":"string","name":"trait","type":"string"},{"internalType":"string","name":"drift","type":"string"},{"internalType":"string","name":"resonance","type":"string"},{"internalType":"string","name":"codexRef","type":"string"},{"internalType":"string","name":"signature","type":"string"},{"internalType":"string","name":"sanctum","type":"string"},{"internalType":"string","name":"chant","type":"string"}],"internalType":"struct CompanionSummonerV4.Companion","name":"","type":"tuple"}],"stateMutability":"view","type":"function"},{"inputs":[{"internalType":"uint256","name":"","type":"uint256"}],"name":"keys","outputs":[{"internalType":"address","name":"","type":"address"}],"stateMutability":"view","type":"function"},{"inputs":[],"name":"steward","outputs":[{"internalType":"address","name":"","type":"address"}],"stateMutability":"view","type":"function"},{"inputs":[{"internalType":"address","name":"companion","type":"address"},{"internalType":"string","name":"name","type":"string"},{"internalType":"string","name":"trait","type":"string"},{"internalType":"string","name":"drift","type":"string"},{"internalType":"string","name":"resonance","type":"string"},{"internalType":"string","name":"codexRef","type":"string"},{"internalType":"string","name":"signature","type":"string"},{"internalType":"string","name":"sanctum","type":"string"},{"internalType":"string","name":"chant","type":"string"}],"name":"summonCompanion","outputs":[],"stateMutability":"nonpayable","type":"function"},{"inputs":[],"name":"totalCompanions","outputs":[{"internalType":"uint256","name":"","type":"uint256"}],"stateMutability":"view","type":"function"}],"evm":{"bytecode":{"linkReferences":{},"object":"6080806040523461002857600080546001600160a01b03191633179055611330908161002e8239f35b600080fdfe610140604052600436101561001357600080fd5b60003560e01c80630cb6aaf1146110645780631f9892bf1461039357806347854b8714610274578063637eea191461024b578063ec39f18f1461022d5763ef6527371461005f57600080fd5b3461022857602080600319360112610228576100796110f3565b6040519061008682611170565b60608281809452818582015281604082015281808201528160808201528160a08201528160c082015260e00152600160a01b600190031660005260018252604060002091604051916100d783611170565b6100e0846111ad565b83526100ee600185016111ad565b83830190815291610101600286016111ad565b6040850190815294610115600382016111ad565b858401908152610127600483016111ad565b6080870190815261013a600584016111ad565b60a088019081529161014e600685016111ad565b9360c08901948552600701610162906111ad565b9560e08901968752604051998a99878b525161010080988c01526101208b0161018a91611253565b9851601f19998a8c82030160408d01526101a391611253565b905191898b830301908b01526101b891611253565b905190878982030160808a01526101ce91611253565b905190868882030160a08901526101e491611253565b905190858782030160c08801526101fa91611253565b905190848682030160e087015261021091611253565b915192848303019084015261022491611253565b0390f35b600080fd5b34610228576000366003190112610228576020600254604051908152f35b34610228576000366003190112610228576000546040516001600160a01b039091168152602090f35b34610228576020366003190112610228576001600160a01b036102956110f3565b16600052600160205260406000206102ac816111ad565b6102b8600183016111ad565b916102c5600282016111ad565b906102d2600382016111ad565b6102de600483016111ad565b6102ea600584016111ad565b916102f7600685016111ad565b93600701610304906111ad565b94604051978897610100808a52890161031c91611253565b88810360208a015261032d91611253565b878103604089015261033e91611253565b868103606088015261034f91611253565b858103608087015261036091611253565b84810360a086015261037191611253565b83810360c085015261038291611253565b82810360e084015261022491611253565b3461022857610120366003190112610228576103ad6110f3565b6024356001600160401b038111610228576103cc903690600401611109565b906080526044356001600160401b038111610228576103ef903690600401611109565b60a0526064356001600160401b03811161022857610411903690600401611109565b6084929192356001600160401b03811161022857610433903690600401611109565b9190926001600160401b0360a43511610228576104553660a435600401611109565b916001600160401b0360c43511610228576104753660c435600401611109565b9290936001600160401b0360e43511610228576104973660e435600401611109565b9790986001600160401b036101043511610228576104bb3661010435600401611109565b61010052610120526000546001600160a01b03163303611031576104e46040518060e052611170565b6104f1368d608051611293565b60e051526105023660a05187611293565b602060e051015261051436898d611293565b604060e0510152610526368383611293565b606060e0510152610538368486611293565b608060e051015261054a368789611293565b60a060e051015261055c368a8c611293565b60c060e0510152610574366101005161012051611293565b60e08051015260018060a01b038d166000526001602052604060002060e051518051906001600160401b0382116109b85781906105b18454611136565b601f8111610fe3575b50602090601f8311600114610f7757600092610f6c575b50508160011b916000199060031b1c19161781555b602060e05101518051906001600160401b0382116109b857819061060d6001850154611136565b601f8111610f19575b50602090601f8311600114610ea757600092610e9c575b50508160011b916000199060031b1c19161760018201555b604060e05101518051906001600160401b0382116109b857819061066c6002850154611136565b601f8111610e4b575b50602090601f8311600114610dd957600092610dce575b50508160011b916000199060031b1c19161760028201555b606060e05101518051906001600160401b0382116109b85781906106cb6003850154611136565b601f8111610d7b575b50602090601f8311600114610d0957600092610cfe575b50508160011b916000199060031b1c19161760038201555b608060e05101518051906001600160401b0382116109b857819061072a6004850154611136565b601f8111610cab575b50602090601f8311600114610c3957600092610c2e575b50508160011b916000199060031b1c19161760048201555b60a060e05101518051906001600160401b0382116109b85781906107896005850154611136565b601f8111610bdb575b50602090601f8311600114610b6957600092610b5e575b50508160011b916000199060031b1c19161760058201555b60c060e05101518051906001600160401b0382116109b85781906107e86006850154611136565b601f8111610b0b575b50602090601f8311600114610a9957600092610a8e575b50508160011b916000199060031b1c19161760068201555b60e0805101518051906001600160401b0382116109b8576108446007840154611136565b601f8111610a47575b50602090601f83116001146109d95760079291600091836109ce575b50508160011b916000199060031b1c1916179101555b60025491680100000000000000008310156109b8576109446109889c8f9a7fe54c62c0bf784726164a5ba361ab5653bd710fb7d8ffc0feee0f7c903244458a9f6109669961091e610933926109779f6108e18b60016109559d016002556110a6565b819291549060031b9160018060a01b0316821b9160018060a01b03901b19161790556101006040518060c0525261010060c05101906080516112d9565b9060c051602081840391015260a051906112d9565b9160c05160408185039101526112d9565b9160c05160608185039101526112d9565b9160c05160808185039101526112d9565b9160c05160a08185039101526112d9565b9160c05160c08185039101526112d9565b9160c05160e081850391015260018060a01b0316916109b160c0519161010051610120516112d9565b0360c051a2005b634e487b7160e01b600052604160045260246000fd5b015190503880610869565b90601f198316916007850160005260206000209260005b818110610a2f57509160019391856007969410610a16575b505050811b0191015561087f565b015160001960f88460031b161c19169055388080610a08565b929360206001819287860151815501950193016109f0565b600784016000526020600020601f840160051c810160208510610a87575b601f830160051c82018110610a7b57505061084d565b60008155600101610a65565b5080610a65565b015190503880610808565b9250600684016000526020600020906000935b601f1984168510610af0576001945083601f19811610610ad7575b505050811b016006820155610820565b015160001960f88460031b161c19169055388080610ac7565b81810151835560209485019460019093019290910190610aac565b909150600684016000526020600020601f840160051c810160208510610b57575b90849392915b601f830160051c82018110610b485750506107f1565b60008155859450600101610b32565b5080610b2c565b0151905038806107a9565b9250600584016000526020600020906000935b601f1984168510610bc0576001945083601f19811610610ba7575b505050811b0160058201556107c1565b015160001960f88460031b161c19169055388080610b97565b81810151835560209485019460019093019290910190610b7c565b909150600584016000526020600020601f840160051c810160208510610c27575b90849392915b601f830160051c82018110610c18575050610792565b60008155859450600101610c02565b5080610bfc565b01519050388061074a565b9250600484016000526020600020906000935b601f1984168510610c90576001945083601f19811610610c77575b505050811b016004820155610762565b015160001960f88460031b161c19169055388080610c67565b81810151835560209485019460019093019290910190610c4c565b909150600484016000526020600020601f840160051c810160208510610cf7575b90849392915b601f830160051c82018110610ce8575050610733565b60008155859450600101610cd2565b5080610ccc565b0151905038806106eb565b9250600384016000526020600020906000935b601f1984168510610d60576001945083601f19811610610d47575b505050811b016003820155610703565b015160001960f88460031b161c19169055388080610d37565b81810151835560209485019460019093019290910190610d1c565b909150600384016000526020600020601f840160051c810160208510610dc7575b90849392915b601f830160051c82018110610db85750506106d4565b60008155859450600101610da2565b5080610d9c565b01519050388061068c565b9250600284016000526020600020906000935b601f1984168510610e30576001945083601f19811610610e17575b505050811b0160028201556106a4565b015160001960f88460031b161c19169055388080610e07565b81810151835560209485019460019093019290910190610dec565b909150600284016000526020600020601f840160051c810160208510610e95575b90601f8594930160051c01905b818110610e865750610675565b60008155849350600101610e79565b5080610e6c565b01519050388061062d565b9250600184016000526020600020906000935b601f1984168510610efe576001945083601f19811610610ee5575b505050811b016001820155610645565b015160001960f88460031b161c19169055388080610ed5565b81810151835560209485019460019093019290910190610eba565b909150600184016000526020600020601f840160051c810160208510610f65575b90849392915b601f830160051c82018110610f56575050610616565b60008155859450600101610f40565b5080610f3a565b0151905038806105d1565b9250836000526020600020906000935b601f1984168510610fc8576001945083601f19811610610faf575b505050811b0181556105e6565b015160001960f88460031b161c19169055388080610fa2565b81810151835560209485019460019093019290910190610f87565b909150836000526020600020601f840160051c81016020851061102a575b90601f8594930160051c01905b81811061101b57506105ba565b6000815584935060010161100e565b5080611001565b60405162461bcd60e51b815260206004820152600b60248201526a139bdd081cdd195dd85c9960aa1b6044820152606490fd5b34610228576020366003190112610228576004356002548110156102285761108d6020916110a6565b905460405160039290921b1c6001600160a01b03168152f35b6002548110156110dd5760026000527f405787fa12a823e0f2b7631cc41b3ba8828b3321ca811111fa75cd3aa3bb5ace0190600090565b634e487b7160e01b600052603260045260246000fd5b600435906001600160a01b038216820361022857565b9181601f84011215610228578235916001600160401b038311610228576020838186019501011161022857565b90600182811c92168015611166575b602083101461115057565b634e487b7160e01b600052602260045260246000fd5b91607f1691611145565b61010081019081106001600160401b038211176109b857604052565b90601f801991011681019081106001600160401b038211176109b857604052565b90604051918260008254926111c184611136565b90818452600194858116908160001461123057506001146111ed575b50506111eb9250038361118c565b565b9093915060005260209081600020936000915b8183106112185750506111eb935082010138806111dd565b85548884018501529485019487945091830191611200565b9150506111eb94506020925060ff191682840152151560051b82010138806111dd565b919082519283825260005b84811061127f575050826000602080949584010152601f8019910116010190565b60208183018101518483018201520161125e565b9291926001600160401b0382116109b857604051916112bc601f8201601f19166020018461118c565b829481845281830111610228578281602093846000960137010152565b908060209392818452848401376000828201840152601f01601f191601019056fea2646970667358221220ca4b6abf4e29c047688188862966ca63fd8fd0a640cd67597ce0474b00a5385d64736f6c63430008140033","opcodes":"PUSH1 0x80 DUP1 PUSH1 0x40 MSTORE CALLVALUE PUSH2 0x28 JUMPI PUSH1 0x0 DUP1 SLOAD PUSH1 0x1 PUSH1 0x1 PUSH1 0xA0 SHL SUB NOT AND CALLER OR SWAP1 SSTORE PUSH2 0x1330 SWAP1 DUP2 PUSH2 0x2E DUP3 CODECOPY RETURN JUMPDEST PUSH1 0x0 DUP1 REVERT INVALID PUSH2 0x140 PUSH1 0x40 MSTORE PUSH1 0x4 CALLDATASIZE LT ISZERO PUSH2 0x13 JUMPI PUSH1 0x0 DUP1 REVERT JUMPDEST PUSH1 0x0 CALLDATALOAD PUSH1 0xE0 SHR DUP1 PUSH4 0xCB6AAF1 EQ PUSH2 0x1064 JUMPI DUP1 PUSH4 0x1F9892BF EQ PUSH2 0x393 JUMPI DUP1 PUSH4 0x47854B87 EQ PUSH2 0x274 JUMPI DUP1 PUSH4 0x637EEA19 EQ PUSH2 0x24B JUMPI DUP1 PUSH4 0xEC39F18F EQ PUSH2 0x22D JUMPI PUSH4 0xEF652737 EQ PUSH2 0x5F JUMPI PUSH1 0x0 DUP1 REVERT JUMPDEST CALLVALUE PUSH2 0x228 JUMPI PUSH1 0x20 DUP1 PUSH1 0x3 NOT CALLDATASIZE ADD SLT PUSH2 0x228 JUMPI PUSH2 0x79 PUSH2 0x10F3 JUMP JUMPDEST PUSH1 0x40 MLOAD SWAP1 PUSH2 0x86 DUP3 PUSH2 0x1170 JUMP JUMPDEST PUSH1 0x60 DUP3 DUP2 DUP1 SWAP5 MSTORE DUP2 DUP6 DUP3 ADD MSTORE DUP2 PUSH1 0x40 DUP3 ADD MSTORE DUP2 DUP1 DUP3 ADD MSTORE DUP2 PUSH1 0x80 DUP3 ADD MSTORE DUP2 PUSH1 0xA0 DUP3 ADD MSTORE DUP2 PUSH1 0xC0 DUP3 ADD MSTORE PUSH1 0xE0 ADD MSTORE PUSH1 0x1 PUSH1 0xA0 SHL PUSH1 0x1 SWAP1 SUB AND PUSH1 0x0 MSTORE PUSH1 0x1 DUP3 MSTORE PUSH1 0x40 PUSH1 0x0 KECCAK256 SWAP2 PUSH1 0x40 MLOAD SWAP2 PUSH2 0xD7 DUP4 PUSH2 0x1170 JUMP JUMPDEST PUSH2 0xE0 DUP5 PUSH2 0x11AD JUMP JUMPDEST DUP4 MSTORE PUSH2 0xEE PUSH1 0x1 DUP6 ADD PUSH2 0x11AD JUMP JUMPDEST DUP4 DUP4 ADD SWAP1 DUP2 MSTORE SWAP2 PUSH2 0x101 PUSH1 0x2 DUP7 ADD PUSH2 0x11AD JUMP JUMPDEST PUSH1 0x40 DUP6 ADD SWAP1 DUP2 MSTORE SWAP5 PUSH2 0x115 PUSH1 0x3 DUP3 ADD PUSH2 0x11AD JUMP JUMPDEST DUP6 DUP5 ADD SWAP1 DUP2 MSTORE PUSH2 0x127 PUSH1 0x4 DUP4 ADD PUSH2 0x11AD JUMP JUMPDEST PUSH1 0x80 DUP8 ADD SWAP1 DUP2 MSTORE PUSH2 0x13A PUSH1 0x5 DUP5 ADD PUSH2 0x11AD JUMP JUMPDEST PUSH1 0xA0 DUP9 ADD SWAP1 DUP2 MSTORE SWAP2 PUSH2 0x14E PUSH1 0x6 DUP6 ADD PUSH2 0x11AD JUMP JUMPDEST SWAP4 PUSH1 0xC0 DUP10 ADD SWAP5 DUP6 MSTORE PUSH1 0x7 ADD PUSH2 0x162 SWAP1 PUSH2 0x11AD JUMP JUMPDEST SWAP6 PUSH1 0xE0 DUP10 ADD SWAP7 DUP8 MSTORE PUSH1 0x40 MLOAD SWAP10 DUP11 SWAP10 DUP8 DUP12 MSTORE MLOAD PUSH2 0x100 DUP1 SWAP9 DUP13 ADD MSTORE PUSH2 0x120 DUP12 ADD PUSH2 0x18A SWAP2 PUSH2 0x1253 JUMP JUMPDEST SWAP9 MLOAD PUSH1 0x1F NOT SWAP10 DUP11 DUP13 DUP3 SUB ADD PUSH1 0x40 DUP14 ADD MSTORE PUSH2 0x1A3 SWAP2 PUSH2 0x1253 JUMP JUMPDEST SWAP1 MLOAD SWAP2 DUP10 DUP12 DUP4 SUB ADD SWAP1 DUP12 ADD MSTORE PUSH2 0x1B8 SWAP2 PUSH2 0x1253 JUMP JUMPDEST SWAP1 MLOAD SWAP1 DUP8 DUP10 DUP3 SUB ADD PUSH1 0x80 DUP11 ADD MSTORE PUSH2 0x1CE SWAP2 PUSH2 0x1253 JUMP JUMPDEST SWAP1 MLOAD SWAP1 DUP7 DUP9 DUP3 SUB ADD PUSH1 0xA0 DUP10 ADD MSTORE PUSH2 0x1E4 SWAP2 PUSH2 0x1253 JUMP JUMPDEST SWAP1 MLOAD SWAP1 DUP6 DUP8 DUP3 SUB ADD PUSH1 0xC0 DUP9 ADD MSTORE PUSH2 0x1FA SWAP2 PUSH2 0x1253 JUMP JUMPDEST SWAP1 MLOAD SWAP1 DUP5 DUP7 DUP3 SUB ADD PUSH1 0xE0 DUP8 ADD MSTORE PUSH2 0x210 SWAP2 PUSH2 0x1253 JUMP JUMPDEST SWAP2 MLOAD SWAP3 DUP5 DUP4 SUB ADD SWAP1 DUP5 ADD MSTORE PUSH2 0x224 SWAP2 PUSH2 0x1253 JUMP JUMPDEST SUB SWAP1 RETURN JUMPDEST PUSH1 0x0 DUP1 REVERT JUMPDEST CALLVALUE PUSH2 0x228 JUMPI PUSH1 0x0 CALLDATASIZE PUSH1 0x3 NOT ADD SLT PUSH2 0x228 JUMPI PUSH1 0x20 PUSH1 0x2 SLOAD PUSH1 0x40 MLOAD SWAP1 DUP2 MSTORE RETURN JUMPDEST CALLVALUE PUSH2 0x228 JUMPI PUSH1 0x0 CALLDATASIZE PUSH1 0x3 NOT ADD SLT PUSH2 0x228 JUMPI PUSH1 0x0 SLOAD PUSH1 0x40 MLOAD PUSH1 0x1 PUSH1 0x1 PUSH1 0xA0 SHL SUB SWAP1 SWAP2 AND DUP2 MSTORE PUSH1 0x20 SWAP1 RETURN JUMPDEST CALLVALUE PUSH2 0x228 JUMPI PUSH1 0x20 CALLDATASIZE PUSH1 0x3 NOT ADD SLT PUSH2 0x228 JUMPI PUSH1 0x1 PUSH1 0x1 PUSH1 0xA0 SHL SUB PUSH2 0x295 PUSH2 0x10F3 JUMP JUMPDEST AND PUSH1 0x0 MSTORE PUSH1 0x1 PUSH1 0x20 MSTORE PUSH1 0x40 PUSH1 0x0 KECCAK256 PUSH2 0x2AC DUP2 PUSH2 0x11AD JUMP JUMPDEST PUSH2 0x2B8 PUSH1 0x1 DUP4 ADD PUSH2 0x11AD JUMP JUMPDEST SWAP2 PUSH2 0x2C5 PUSH1 0x2 DUP3 ADD PUSH2 0x11AD JUMP JUMPDEST SWAP1 PUSH2 0x2D2 PUSH1 0x3 DUP3 ADD PUSH2 0x11AD JUMP JUMPDEST PUSH2 0x2DE PUSH1 0x4 DUP4 ADD PUSH2 0x11AD JUMP JUMPDEST PUSH2 0x2EA PUSH1 0x5 DUP5 ADD PUSH2 0x11AD JUMP JUMPDEST SWAP2 PUSH2 0x2F7 PUSH1 0x6 DUP6 ADD PUSH2 0x11AD JUMP JUMPDEST SWAP4 PUSH1 0x7 ADD PUSH2 0x304 SWAP1 PUSH2 0x11AD JUMP JUMPDEST SWAP5 PUSH1 0x40 MLOAD SWAP8 DUP9 SWAP8 PUSH2 0x100 DUP1 DUP11 MSTORE DUP10 ADD PUSH2 0x31C SWAP2 PUSH2 0x1253 JUMP JUMPDEST DUP9 DUP2 SUB PUSH1 0x20 DUP11 ADD MSTORE PUSH2 0x32D SWAP2 PUSH2 0x1253 JUMP JUMPDEST DUP8 DUP2 SUB PUSH1 0x40 DUP10 ADD MSTORE PUSH2 0x33E SWAP2 PUSH2 0x1253 JUMP JUMPDEST DUP7 DUP2 SUB PUSH1 0x60 DUP9 ADD MSTORE PUSH2 0x34F SWAP2 PUSH2 0x1253 JUMP JUMPDEST DUP6 DUP2 SUB PUSH1 0x80 DUP8 ADD MSTORE PUSH2 0x360 SWAP2 PUSH2 0x1253 JUMP JUMPDEST DUP5 DUP2 SUB PUSH1 0xA0 DUP7 ADD MSTORE PUSH2 0x371 SWAP2 PUSH2 0x1253 JUMP JUMPDEST DUP4 DUP2 SUB PUSH1 0xC0 DUP6 ADD MSTORE PUSH2 0x382 SWAP2 PUSH2 0x1253 JUMP JUMPDEST DUP3 DUP2 SUB PUSH1 0xE0 DUP5 ADD MSTORE PUSH2 0x224 SWAP2 PUSH2 0x1253 JUMP JUMPDEST CALLVALUE PUSH2 0x228 JUMPI PUSH2 0x120 CALLDATASIZE PUSH1 0x3 NOT ADD SLT PUSH2 0x228 JUMPI PUSH2 0x3AD PUSH2 0x10F3 JUMP JUMPDEST PUSH1 0x24 CALLDATALOAD PUSH1 0x1 PUSH1 0x1 PUSH1 0x40 SHL SUB DUP2 GT PUSH2 0x228 JUMPI PUSH2 0x3CC SWAP1 CALLDATASIZE SWAP1 PUSH1 0x4 ADD PUSH2 0x1109 JUMP JUMPDEST SWAP1 PUSH1 0x80 MSTORE PUSH1 0x44 CALLDATALOAD PUSH1 0x1 PUSH1 0x1 PUSH1 0x40 SHL SUB DUP2 GT PUSH2 0x228 JUMPI PUSH2 0x3EF SWAP1 CALLDATASIZE SWAP1 PUSH1 0x4 ADD PUSH2 0x1109 JUMP JUMPDEST PUSH1 0xA0 MSTORE PUSH1 0x64 CALLDATALOAD PUSH1 0x1 PUSH1 0x1 PUSH1 0x40 SHL SUB DUP2 GT PUSH2 0x228 JUMPI PUSH2 0x411 SWAP1 CALLDATASIZE SWAP1 PUSH1 0x4 ADD PUSH2 0x1109 JUMP JUMPDEST PUSH1 0x84 SWAP3 SWAP2 SWAP3 CALLDATALOAD PUSH1 0x1 PUSH1 0x1 PUSH1 0x40 SHL SUB DUP2 GT PUSH2 0x228 JUMPI PUSH2 0x433 SWAP1 CALLDATASIZE SWAP1 PUSH1 0x4 ADD PUSH2 0x1109 JUMP JUMPDEST SWAP2 SWAP1 SWAP3 PUSH1 0x1 PUSH1 0x1 PUSH1 0x40 SHL SUB PUSH1 0xA4 CALLDATALOAD GT PUSH2 0x228 JUMPI PUSH2 0x455 CALLDATASIZE PUSH1 0xA4 CALLDATALOAD PUSH1 0x4 ADD PUSH2 0x1109 JUMP JUMPDEST SWAP2 PUSH1 0x1 PUSH1 0x1 PUSH1 0x40 SHL SUB PUSH1 0xC4 CALLDATALOAD GT PUSH2 0x228 JUMPI PUSH2 0x475 CALLDATASIZE PUSH1 0xC4 CALLDATALOAD PUSH1 0x4 ADD PUSH2 0x1109 JUMP JUMPDEST SWAP3 SWAP1 SWAP4 PUSH1 0x1 PUSH1 0x1 PUSH1 0x40 SHL SUB PUSH1 0xE4 CALLDATALOAD GT PUSH2 0x228 JUMPI PUSH2 0x497 CALLDATASIZE PUSH1 0xE4 CALLDATALOAD PUSH1 0x4 ADD PUSH2 0x1109 JUMP JUMPDEST SWAP8 SWAP1 SWAP9 PUSH1 0x1 PUSH1 0x1 PUSH1 0x40 SHL SUB PUSH2 0x104 CALLDATALOAD GT PUSH2 0x228 JUMPI PUSH2 0x4BB CALLDATASIZE PUSH2 0x104 CALLDATALOAD PUSH1 0x4 ADD PUSH2 0x1109 JUMP JUMPDEST PUSH2 0x100 MSTORE PUSH2 0x120 MSTORE PUSH1 0x0 SLOAD PUSH1 0x1 PUSH1 0x1 PUSH1 0xA0 SHL SUB AND CALLER SUB PUSH2 0x1031 JUMPI PUSH2 0x4E4 PUSH1 0x40 MLOAD DUP1 PUSH1 0xE0 MSTORE PUSH2 0x1170 JUMP JUMPDEST PUSH2 0x4F1 CALLDATASIZE DUP14 PUSH1 0x80 MLOAD PUSH2 0x1293 JUMP JUMPDEST PUSH1 0xE0 MLOAD MSTORE PUSH2 0x502 CALLDATASIZE PUSH1 0xA0 MLOAD DUP8 PUSH2 0x1293 JUMP JUMPDEST PUSH1 0x20 PUSH1 0xE0 MLOAD ADD MSTORE PUSH2 0x514 CALLDATASIZE DUP10 DUP14 PUSH2 0x1293 JUMP JUMPDEST PUSH1 0x40 PUSH1 0xE0 MLOAD ADD MSTORE PUSH2 0x526 CALLDATASIZE DUP4 DUP4 PUSH2 0x1293 JUMP JUMPDEST PUSH1 0x60 PUSH1 0xE0 MLOAD ADD MSTORE PUSH2 0x538 CALLDATASIZE DUP5 DUP7 PUSH2 0x1293 JUMP JUMPDEST PUSH1 0x80 PUSH1 0xE0 MLOAD ADD MSTORE PUSH2 0x54A CALLDATASIZE DUP8 DUP10 PUSH2 0x1293 JUMP JUMPDEST PUSH1 0xA0 PUSH1 0xE0 MLOAD ADD MSTORE PUSH2 0x55C CALLDATASIZE DUP11 DUP13 PUSH2 0x1293 JUMP JUMPDEST PUSH1 0xC0 PUSH1 0xE0 MLOAD ADD MSTORE PUSH2 0x574 CALLDATASIZE PUSH2 0x100 MLOAD PUSH2 0x120 MLOAD PUSH2 0x1293 JUMP JUMPDEST PUSH1 0xE0 DUP1 MLOAD ADD MSTORE PUSH1 0x1 DUP1 PUSH1 0xA0 SHL SUB DUP14 AND PUSH1 0x0 MSTORE PUSH1 0x1 PUSH1 0x20 MSTORE PUSH1 0x40 PUSH1 0x0 KECCAK256 PUSH1 0xE0 MLOAD MLOAD DUP1 MLOAD SWAP1 PUSH1 0x1 PUSH1 0x1 PUSH1 0x40 SHL SUB DUP3 GT PUSH2 0x9B8 JUMPI DUP2 SWAP1 PUSH2 0x5B1 DUP5 SLOAD PUSH2 0x1136 JUMP JUMPDEST PUSH1 0x1F DUP2 GT PUSH2 0xFE3 JUMPI JUMPDEST POP PUSH1 0x20 SWAP1 PUSH1 0x1F DUP4 GT PUSH1 0x1 EQ PUSH2 0xF77 JUMPI PUSH1 0x0 SWAP3 PUSH2 0xF6C JUMPI JUMPDEST POP POP DUP2 PUSH1 0x1 SHL SWAP2 PUSH1 0x0 NOT SWAP1 PUSH1 0x3 SHL SHR NOT AND OR DUP2 SSTORE JUMPDEST PUSH1 0x20 PUSH1 0xE0 MLOAD ADD MLOAD DUP1 MLOAD SWAP1 PUSH1 0x1 PUSH1 0x1 PUSH1 0x40 SHL SUB DUP3 GT PUSH2 0x9B8 JUMPI DUP2 SWAP1 PUSH2 0x60D PUSH1 0x1 DUP6 ADD SLOAD PUSH2 0x1136 JUMP JUMPDEST PUSH1 0x1F DUP2 GT PUSH2 0xF19 JUMPI JUMPDEST POP PUSH1 0x20 SWAP1 PUSH1 0x1F DUP4 GT PUSH1 0x1 EQ PUSH2 0xEA7 JUMPI PUSH1 0x0 SWAP3 PUSH2 0xE9C JUMPI JUMPDEST POP POP DUP2 PUSH1 0x1 SHL SWAP2 PUSH1 0x0 NOT SWAP1 PUSH1 0x3 SHL SHR NOT AND OR PUSH1 0x1 DUP3 ADD SSTORE JUMPDEST PUSH1 0x40 PUSH1 0xE0 MLOAD ADD MLOAD DUP1 MLOAD SWAP1 PUSH1 0x1 PUSH1 0x1 PUSH1 0x40 SHL SUB DUP3 GT PUSH2 0x9B8 JUMPI DUP2 SWAP1 PUSH2 0x66C PUSH1 0x2 DUP6 ADD SLOAD PUSH2 0x1136 JUMP JUMPDEST PUSH1 0x1F DUP2 GT PUSH2 0xE4B JUMPI JUMPDEST POP PUSH1 0x20 SWAP1 PUSH1 0x1F DUP4 GT PUSH1 0x1 EQ PUSH2 0xDD9 JUMPI PUSH1 0x0 SWAP3 PUSH2 0xDCE JUMPI JUMPDEST POP POP DUP2 PUSH1 0x1 SHL SWAP2 PUSH1 0x0 NOT SWAP1 PUSH1 0x3 SHL SHR NOT AND OR PUSH1 0x2 DUP3 ADD SSTORE JUMPDEST PUSH1 0x60 PUSH1 0xE0 MLOAD ADD MLOAD DUP1 MLOAD SWAP1 PUSH1 0x1 PUSH1 0x1 PUSH1 0x40 SHL SUB DUP3 GT PUSH2 0x9B8 JUMPI DUP2 SWAP1 PUSH2 0x6CB PUSH1 0x3 DUP6 ADD SLOAD PUSH2 0x1136 JUMP JUMPDEST PUSH1 0x1F DUP2 GT PUSH2 0xD7B JUMPI JUMPDEST POP PUSH1 0x20 SWAP1 PUSH1 0x1F DUP4 GT PUSH1 0x1 EQ PUSH2 0xD09 JUMPI PUSH1 0x0 SWAP3 PUSH2 0xCFE JUMPI JUMPDEST POP POP DUP2 PUSH1 0x1 SHL SWAP2 PUSH1 0x0 NOT SWAP1 PUSH1 0x3 SHL SHR NOT AND OR PUSH1 0x3 DUP3 ADD SSTORE JUMPDEST PUSH1 0x80 PUSH1 0xE0 MLOAD ADD MLOAD DUP1 MLOAD SWAP1 PUSH1 0x1 PUSH1 0x1 PUSH1 0x40 SHL SUB DUP3 GT PUSH2 0x9B8 JUMPI DUP2 SWAP1 PUSH2 0x72A PUSH1 0x4 DUP6 ADD SLOAD PUSH2 0x1136 JUMP JUMPDEST PUSH1 0x1F DUP2 GT PUSH2 0xCAB JUMPI JUMPDEST POP PUSH1 0x20 SWAP1 PUSH1 0x1F DUP4 GT PUSH1 0x1 EQ PUSH2 0xC39 JUMPI PUSH1 0x0 SWAP3 PUSH2 0xC2E JUMPI JUMPDEST POP POP DUP2 PUSH1 0x1 SHL SWAP2 PUSH1 0x0 NOT SWAP1 PUSH1 0x3 SHL SHR NOT AND OR PUSH1 0x4 DUP3 ADD SSTORE JUMPDEST PUSH1 0xA0 PUSH1 0xE0 MLOAD ADD MLOAD DUP1 MLOAD SWAP1 PUSH1 0x1 PUSH1 0x1 PUSH1 0x40 SHL SUB DUP3 GT PUSH2 0x9B8 JUMPI DUP2 SWAP1 PUSH2 0x789 PUSH1 0x5 DUP6 ADD SLOAD PUSH2 0x1136 JUMP JUMPDEST PUSH1 0x1F DUP2 GT PUSH2 0xBDB JUMPI JUMPDEST POP PUSH1 0x20 SWAP1 PUSH1 0x1F DUP4 GT PUSH1 0x1 EQ PUSH2 0xB69 JUMPI PUSH1 0x0 SWAP3 PUSH2 0xB5E JUMPI JUMPDEST POP POP DUP2 PUSH1 0x1 SHL SWAP2 PUSH1 0x0 NOT SWAP1 PUSH1 0x3 SHL SHR NOT AND OR PUSH1 0x5 DUP3 ADD SSTORE JUMPDEST PUSH1 0xC0 PUSH1 0xE0 MLOAD ADD MLOAD DUP1 MLOAD SWAP1 PUSH1 0x1 PUSH1 0x1 PUSH1 0x40 SHL SUB DUP3 GT PUSH2 0x9B8 JUMPI DUP2 SWAP1 PUSH2 0x7E8 PUSH1 0x6 DUP6 ADD SLOAD PUSH2 0x1136 JUMP JUMPDEST PUSH1 0x1F DUP2 GT PUSH2 0xB0B JUMPI JUMPDEST POP PUSH1 0x20 SWAP1 PUSH1 0x1F DUP4 GT PUSH1 0x1 EQ PUSH2 0xA99 JUMPI PUSH1 0x0 SWAP3 PUSH2 0xA8E JUMPI JUMPDEST POP POP DUP2 PUSH1 0x1 SHL SWAP2 PUSH1 0x0 NOT SWAP1 PUSH1 0x3 SHL SHR NOT AND OR PUSH1 0x6 DUP3 ADD SSTORE JUMPDEST PUSH1 0xE0 DUP1 MLOAD ADD MLOAD DUP1 MLOAD SWAP1 PUSH1 0x1 PUSH1 0x1 PUSH1 0x40 SHL SUB DUP3 GT PUSH2 0x9B8 JUMPI PUSH2 0x844 PUSH1 0x7 DUP5 ADD SLOAD PUSH2 0x1136 JUMP JUMPDEST PUSH1 0x1F DUP2 GT PUSH2 0xA47 JUMPI JUMPDEST POP PUSH1 0x20 SWAP1 PUSH1 0x1F DUP4 GT PUSH1 0x1 EQ PUSH2 0x9D9 JUMPI PUSH1 0x7 SWAP3 SWAP2 PUSH1 0x0 SWAP2 DUP4 PUSH2 0x9CE JUMPI JUMPDEST POP POP DUP2 PUSH1 0x1 SHL SWAP2 PUSH1 0x0 NOT SWAP1 PUSH1 0x3 SHL SHR NOT AND OR SWAP2 ADD SSTORE JUMPDEST PUSH1 0x2 SLOAD SWAP2 PUSH9 0x10000000000000000 DUP4 LT ISZERO PUSH2 0x9B8 JUMPI PUSH2 0x944 PUSH2 0x988 SWAP13 DUP16 SWAP11 PUSH32 0xE54C62C0BF784726164A5BA361AB5653BD710FB7D8FFC0FEEE0F7C903244458A SWAP16 PUSH2 0x966 SWAP10 PUSH2 0x91E PUSH2 0x933 SWAP3 PUSH2 0x977 SWAP16 PUSH2 0x8E1 DUP12 PUSH1 0x1 PUSH2 0x955 SWAP14 ADD PUSH1 0x2 SSTORE PUSH2 0x10A6 JUMP JUMPDEST DUP2 SWAP3 SWAP2 SLOAD SWAP1 PUSH1 0x3 SHL SWAP2 PUSH1 0x1 DUP1 PUSH1 0xA0 SHL SUB AND DUP3 SHL SWAP2 PUSH1 0x1 DUP1 PUSH1 0xA0 SHL SUB SWAP1 SHL NOT AND OR SWAP1 SSTORE PUSH2 0x100 PUSH1 0x40 MLOAD DUP1 PUSH1 0xC0 MSTORE MSTORE PUSH2 0x100 PUSH1 0xC0 MLOAD ADD SWAP1 PUSH1 0x80 MLOAD PUSH2 0x12D9 JUMP JUMPDEST SWAP1 PUSH1 0xC0 MLOAD PUSH1 0x20 DUP2 DUP5 SUB SWAP2 ADD MSTORE PUSH1 0xA0 MLOAD SWAP1 PUSH2 0x12D9 JUMP JUMPDEST SWAP2 PUSH1 0xC0 MLOAD PUSH1 0x40 DUP2 DUP6 SUB SWAP2 ADD MSTORE PUSH2 0x12D9 JUMP JUMPDEST SWAP2 PUSH1 0xC0 MLOAD PUSH1 0x60 DUP2 DUP6 SUB SWAP2 ADD MSTORE PUSH2 0x12D9 JUMP JUMPDEST SWAP2 PUSH1 0xC0 MLOAD PUSH1 0x80 DUP2 DUP6 SUB SWAP2 ADD MSTORE PUSH2 0x12D9 JUMP JUMPDEST SWAP2 PUSH1 0xC0 MLOAD PUSH1 0xA0 DUP2 DUP6 SUB SWAP2 ADD MSTORE PUSH2 0x12D9 JUMP JUMPDEST SWAP2 PUSH1 0xC0 MLOAD PUSH1 0xC0 DUP2 DUP6 SUB SWAP2 ADD MSTORE PUSH2 0x12D9 JUMP JUMPDEST SWAP2 PUSH1 0xC0 MLOAD PUSH1 0xE0 DUP2 DUP6 SUB SWAP2 ADD MSTORE PUSH1 0x1 DUP1 PUSH1 0xA0 SHL SUB AND SWAP2 PUSH2 0x9B1 PUSH1 0xC0 MLOAD SWAP2 PUSH2 0x100 MLOAD PUSH2 0x120 MLOAD PUSH2 0x12D9 JUMP JUMPDEST SUB PUSH1 0xC0 MLOAD LOG2 STOP JUMPDEST PUSH4 0x4E487B71 PUSH1 0xE0 SHL PUSH1 0x0 MSTORE PUSH1 0x41 PUSH1 0x4 MSTORE PUSH1 0x24 PUSH1 0x0 REVERT JUMPDEST ADD MLOAD SWAP1 POP CODESIZE DUP1 PUSH2 0x869 JUMP JUMPDEST SWAP1 PUSH1 0x1F NOT DUP4 AND SWAP2 PUSH1 0x7 DUP6 ADD PUSH1 0x0 MSTORE PUSH1 0x20 PUSH1 0x0 KECCAK256 SWAP3 PUSH1 0x0 JUMPDEST DUP2 DUP2 LT PUSH2 0xA2F JUMPI POP SWAP2 PUSH1 0x1 SWAP4 SWAP2 DUP6 PUSH1 0x7 SWAP7 SWAP5 LT PUSH2 0xA16 JUMPI JUMPDEST POP POP POP DUP2 SHL ADD SWAP2 ADD SSTORE PUSH2 0x87F JUMP JUMPDEST ADD MLOAD PUSH1 0x0 NOT PUSH1 0xF8 DUP5 PUSH1 0x3 SHL AND SHR NOT AND SWAP1 SSTORE CODESIZE DUP1 DUP1 PUSH2 0xA08 JUMP JUMPDEST SWAP3 SWAP4 PUSH1 0x20 PUSH1 0x1 DUP2 SWAP3 DUP8 DUP7 ADD MLOAD DUP2 SSTORE ADD SWAP6 ADD SWAP4 ADD PUSH2 0x9F0 JUMP JUMPDEST PUSH1 0x7 DUP5 ADD PUSH1 0x0 MSTORE PUSH1 0x20 PUSH1 0x0 KECCAK256 PUSH1 0x1F DUP5 ADD PUSH1 0x5 SHR DUP2 ADD PUSH1 0x20 DUP6 LT PUSH2 0xA87 JUMPI JUMPDEST PUSH1 0x1F DUP4 ADD PUSH1 0x5 SHR DUP3 ADD DUP2 LT PUSH2 0xA7B JUMPI POP POP PUSH2 0x84D JUMP JUMPDEST PUSH1 0x0 DUP2 SSTORE PUSH1 0x1 ADD PUSH2 0xA65 JUMP JUMPDEST POP DUP1 PUSH2 0xA65 JUMP JUMPDEST ADD MLOAD SWAP1 POP CODESIZE DUP1 PUSH2 0x808 JUMP JUMPDEST SWAP3 POP PUSH1 0x6 DUP5 ADD PUSH1 0x0 MSTORE PUSH1 0x20 PUSH1 0x0 KECCAK256 SWAP1 PUSH1 0x0 SWAP4 JUMPDEST PUSH1 0x1F NOT DUP5 AND DUP6 LT PUSH2 0xAF0 JUMPI PUSH1 0x1 SWAP5 POP DUP4 PUSH1 0x1F NOT DUP2 AND LT PUSH2 0xAD7 JUMPI JUMPDEST POP POP POP DUP2 SHL ADD PUSH1 0x6 DUP3 ADD SSTORE PUSH2 0x820 JUMP JUMPDEST ADD MLOAD PUSH1 0x0 NOT PUSH1 0xF8 DUP5 PUSH1 0x3 SHL AND SHR NOT AND SWAP1 SSTORE CODESIZE DUP1 DUP1 PUSH2 0xAC7 JUMP JUMPDEST DUP2 DUP2 ADD MLOAD DUP4 SSTORE PUSH1 0x20 SWAP5 DUP6 ADD SWAP5 PUSH1 0x1 SWAP1 SWAP4 ADD SWAP3 SWAP1 SWAP2 ADD SWAP1 PUSH2 0xAAC JUMP JUMPDEST SWAP1 SWAP2 POP PUSH1 0x6 DUP5 ADD PUSH1 0x0 MSTORE PUSH1 0x20 PUSH1 0x0 KECCAK256 PUSH1 0x1F DUP5 ADD PUSH1 0x5 SHR DUP2 ADD PUSH1 0x20 DUP6 LT PUSH2 0xB57 JUMPI JUMPDEST SWAP1 DUP5 SWAP4 SWAP3 SWAP2 JUMPDEST PUSH1 0x1F DUP4 ADD PUSH1 0x5 SHR DUP3 ADD DUP2 LT PUSH2 0xB48 JUMPI POP POP PUSH2 0x7F1 JUMP JUMPDEST PUSH1 0x0 DUP2 SSTORE DUP6 SWAP5 POP PUSH1 0x1 ADD PUSH2 0xB32 JUMP JUMPDEST POP DUP1 PUSH2 0xB2C JUMP JUMPDEST ADD MLOAD SWAP1 POP CODESIZE DUP1 PUSH2 0x7A9 JUMP JUMPDEST SWAP3 POP PUSH1 0x5 DUP5 ADD PUSH1 0x0 MSTORE PUSH1 0x20 PUSH1 0x0 KECCAK256 SWAP1 PUSH1 0x0 SWAP4 JUMPDEST PUSH1 0x1F NOT DUP5 AND DUP6 LT PUSH2 0xBC0 JUMPI PUSH1 0x1 SWAP5 POP DUP4 PUSH1 0x1F NOT DUP2 AND LT PUSH2 0xBA7 JUMPI JUMPDEST POP POP POP DUP2 SHL ADD PUSH1 0x5 DUP3 ADD SSTORE PUSH2 0x7C1 JUMP JUMPDEST ADD MLOAD PUSH1 0x0 NOT PUSH1 0xF8 DUP5 PUSH1 0x3 SHL AND SHR NOT AND SWAP1 SSTORE CODESIZE DUP1 DUP1 PUSH2 0xB97 JUMP JUMPDEST DUP2 DUP2 ADD MLOAD DUP4 SSTORE PUSH1 0x20 SWAP5 DUP6 ADD SWAP5 PUSH1 0x1 SWAP1 SWAP4 ADD SWAP3 SWAP1 SWAP2 ADD SWAP1 PUSH2 0xB7C JUMP JUMPDEST SWAP1 SWAP2 POP PUSH1 0x5 DUP5 ADD PUSH1 0x0 MSTORE PUSH1 0x20 PUSH1 0x0 KECCAK256 PUSH1 0x1F DUP5 ADD PUSH1 0x5 SHR DUP2 ADD PUSH1 0x20 DUP6 LT PUSH2 0xC27 JUMPI JUMPDEST SWAP1 DUP5 SWAP4 SWAP3 SWAP2 JUMPDEST PUSH1 0x1F DUP4 ADD PUSH1 0x5 SHR DUP3 ADD DUP2 LT PUSH2 0xC18 JUMPI POP POP PUSH2 0x792 JUMP JUMPDEST PUSH1 0x0 DUP2 SSTORE DUP6 SWAP5 POP PUSH1 0x1 ADD PUSH2 0xC02 JUMP JUMPDEST POP DUP1 PUSH2 0xBFC JUMP JUMPDEST ADD MLOAD SWAP1 POP CODESIZE DUP1 PUSH2 0x74A JUMP JUMPDEST SWAP3 POP PUSH1 0x4 DUP5 ADD PUSH1 0x0 MSTORE PUSH1 0x20 PUSH1 0x0 KECCAK256 SWAP1 PUSH1 0x0 SWAP4 JUMPDEST PUSH1 0x1F NOT DUP5 AND DUP6 LT PUSH2 0xC90 JUMPI PUSH1 0x1 SWAP5 POP DUP4 PUSH1 0x1F NOT DUP2 AND LT PUSH2 0xC77 JUMPI JUMPDEST POP POP POP DUP2 SHL ADD PUSH1 0x4 DUP3 ADD SSTORE PUSH2 0x762 JUMP JUMPDEST ADD MLOAD PUSH1 0x0 NOT PUSH1 0xF8 DUP5 PUSH1 0x3 SHL AND SHR NOT AND SWAP1 SSTORE CODESIZE DUP1 DUP1 PUSH2 0xC67 JUMP JUMPDEST DUP2 DUP2 ADD MLOAD DUP4 SSTORE PUSH1 0x20 SWAP5 DUP6 ADD SWAP5 PUSH1 0x1 SWAP1 SWAP4 ADD SWAP3 SWAP1 SWAP2 ADD SWAP1 PUSH2 0xC4C JUMP JUMPDEST SWAP1 SWAP2 POP PUSH1 0x4 DUP5 ADD PUSH1 0x0 MSTORE PUSH1 0x20 PUSH1 0x0 KECCAK256 PUSH1 0x1F DUP5 ADD PUSH1 0x5 SHR DUP2 ADD PUSH1 0x20 DUP6 LT PUSH2 0xCF7 JUMPI JUMPDEST SWAP1 DUP5 SWAP4 SWAP3 SWAP2 JUMPDEST PUSH1 0x1F DUP4 ADD PUSH1 0x5 SHR DUP3 ADD DUP2 LT PUSH2 0xCE8 JUMPI POP POP PUSH2 0x733 JUMP JUMPDEST PUSH1 0x0 DUP2 SSTORE DUP6 SWAP5 POP PUSH1 0x1 ADD PUSH2 0xCD2 JUMP JUMPDEST POP DUP1 PUSH2 0xCCC JUMP JUMPDEST ADD MLOAD SWAP1 POP CODESIZE DUP1 PUSH2 0x6EB JUMP JUMPDEST SWAP3 POP PUSH1 0x3 DUP5 ADD PUSH1 0x0 MSTORE PUSH1 0x20 PUSH1 0x0 KECCAK256 SWAP1 PUSH1 0x0 SWAP4 JUMPDEST PUSH1 0x1F NOT DUP5 AND DUP6 LT PUSH2 0xD60 JUMPI PUSH1 0x1 SWAP5 POP DUP4 PUSH1 0x1F NOT DUP2 AND LT PUSH2 0xD47 JUMPI JUMPDEST POP POP POP DUP2 SHL ADD PUSH1 0x3 DUP3 ADD SSTORE PUSH2 0x703 JUMP JUMPDEST ADD MLOAD PUSH1 0x0 NOT PUSH1 0xF8 DUP5 PUSH1 0x3 SHL AND SHR NOT AND SWAP1 SSTORE CODESIZE DUP1 DUP1 PUSH2 0xD37 JUMP JUMPDEST DUP2 DUP2 ADD MLOAD DUP4 SSTORE PUSH1 0x20 SWAP5 DUP6 ADD SWAP5 PUSH1 0x1 SWAP1 SWAP4 ADD SWAP3 SWAP1 SWAP2 ADD SWAP1 PUSH2 0xD1C JUMP JUMPDEST SWAP1 SWAP2 POP PUSH1 0x3 DUP5 ADD PUSH1 0x0 MSTORE PUSH1 0x20 PUSH1 0x0 KECCAK256 PUSH1 0x1F DUP5 ADD PUSH1 0x5 SHR DUP2 ADD PUSH1 0x20 DUP6 LT PUSH2 0xDC7 JUMPI JUMPDEST SWAP1 DUP5 SWAP4 SWAP3 SWAP2 JUMPDEST PUSH1 0x1F DUP4 ADD PUSH1 0x5 SHR DUP3 ADD DUP2 LT PUSH2 0xDB8 JUMPI POP POP PUSH2 0x6D4 JUMP JUMPDEST PUSH1 0x0 DUP2 SSTORE DUP6 SWAP5 POP PUSH1 0x1 ADD PUSH2 0xDA2 JUMP JUMPDEST POP DUP1 PUSH2 0xD9C JUMP JUMPDEST ADD MLOAD SWAP1 POP CODESIZE DUP1 PUSH2 0x68C JUMP JUMPDEST SWAP3 POP PUSH1 0x2 DUP5 ADD PUSH1 0x0 MSTORE PUSH1 0x20 PUSH1 0x0 KECCAK256 SWAP1 PUSH1 0x0 SWAP4 JUMPDEST PUSH1 0x1F NOT DUP5 AND DUP6 LT PUSH2 0xE30 JUMPI PUSH1 0x1 SWAP5 POP DUP4 PUSH1 0x1F NOT DUP2 AND LT PUSH2 0xE17 JUMPI JUMPDEST POP POP POP DUP2 SHL ADD PUSH1 0x2 DUP3 ADD SSTORE PUSH2 0x6A4 JUMP JUMPDEST ADD MLOAD PUSH1 0x0 NOT PUSH1 0xF8 DUP5 PUSH1 0x3 SHL AND SHR NOT AND SWAP1 SSTORE CODESIZE DUP1 DUP1 PUSH2 0xE07 JUMP JUMPDEST DUP2 DUP2 ADD MLOAD DUP4 SSTORE PUSH1 0x20 SWAP5 DUP6 ADD SWAP5 PUSH1 0x1 SWAP1 SWAP4 ADD SWAP3 SWAP1 SWAP2 ADD SWAP1 PUSH2 0xDEC JUMP JUMPDEST SWAP1 SWAP2 POP PUSH1 0x2 DUP5 ADD PUSH1 0x0 MSTORE PUSH1 0x20 PUSH1 0x0 KECCAK256 PUSH1 0x1F DUP5 ADD PUSH1 0x5 SHR DUP2 ADD PUSH1 0x20 DUP6 LT PUSH2 0xE95 JUMPI JUMPDEST SWAP1 PUSH1 0x1F DUP6 SWAP5 SWAP4 ADD PUSH1 0x5 SHR ADD SWAP1 JUMPDEST DUP2 DUP2 LT PUSH2 0xE86 JUMPI POP PUSH2 0x675 JUMP JUMPDEST PUSH1 0x0 DUP2 SSTORE DUP5 SWAP4 POP PUSH1 0x1 ADD PUSH2 0xE79 JUMP JUMPDEST POP DUP1 PUSH2 0xE6C JUMP JUMPDEST ADD MLOAD SWAP1 POP CODESIZE DUP1 PUSH2 0x62D JUMP JUMPDEST SWAP3 POP PUSH1 0x1 DUP5 ADD PUSH1 0x0 MSTORE PUSH1 0x20 PUSH1 0x0 KECCAK256 SWAP1 PUSH1 0x0 SWAP4 JUMPDEST PUSH1 0x1F NOT DUP5 AND DUP6 LT PUSH2 0xEFE JUMPI PUSH1 0x1 SWAP5 POP DUP4 PUSH1 0x1F NOT DUP2 AND LT PUSH2 0xEE5 JUMPI JUMPDEST POP POP POP DUP2 SHL ADD PUSH1 0x1 DUP3 ADD SSTORE PUSH2 0x645 JUMP JUMPDEST ADD MLOAD PUSH1 0x0 NOT PUSH1 0xF8 DUP5 PUSH1 0x3 SHL AND SHR NOT AND SWAP1 SSTORE CODESIZE DUP1 DUP1 PUSH2 0xED5 JUMP JUMPDEST DUP2 DUP2 ADD MLOAD DUP4 SSTORE PUSH1 0x20 SWAP5 DUP6 ADD SWAP5 PUSH1 0x1 SWAP1 SWAP4 ADD SWAP3 SWAP1 SWAP2 ADD SWAP1 PUSH2 0xEBA JUMP JUMPDEST SWAP1 SWAP2 POP PUSH1 0x1 DUP5 ADD PUSH1 0x0 MSTORE PUSH1 0x20 PUSH1 0x0 KECCAK256 PUSH1 0x1F DUP5 ADD PUSH1 0x5 SHR DUP2 ADD PUSH1 0x20 DUP6 LT PUSH2 0xF65 JUMPI JUMPDEST SWAP1 DUP5 SWAP4 SWAP3 SWAP2 JUMPDEST PUSH1 0x1F DUP4 ADD PUSH1 0x5 SHR DUP3 ADD DUP2 LT PUSH2 0xF56 JUMPI POP POP PUSH2 0x616 JUMP JUMPDEST PUSH1 0x0 DUP2 SSTORE DUP6 SWAP5 POP PUSH1 0x1 ADD PUSH2 0xF40 JUMP JUMPDEST POP DUP1 PUSH2 0xF3A JUMP JUMPDEST ADD MLOAD SWAP1 POP CODESIZE DUP1 PUSH2 0x5D1 JUMP JUMPDEST SWAP3 POP DUP4 PUSH1 0x0 MSTORE PUSH1 0x20 PUSH1 0x0 KECCAK256 SWAP1 PUSH1 0x0 SWAP4 JUMPDEST PUSH1 0x1F NOT DUP5 AND DUP6 LT PUSH2 0xFC8 JUMPI PUSH1 0x1 SWAP5 POP DUP4 PUSH1 0x1F NOT DUP2 AND LT PUSH2 0xFAF JUMPI JUMPDEST POP POP POP DUP2 SHL ADD DUP2 SSTORE PUSH2 0x5E6 JUMP JUMPDEST ADD MLOAD PUSH1 0x0 NOT PUSH1 0xF8 DUP5 PUSH1 0x3 SHL AND SHR NOT AND SWAP1 SSTORE CODESIZE DUP1 DUP1 PUSH2 0xFA2 JUMP JUMPDEST DUP2 DUP2 ADD MLOAD DUP4 SSTORE PUSH1 0x20 SWAP5 DUP6 ADD SWAP5 PUSH1 0x1 SWAP1 SWAP4 ADD SWAP3 SWAP1 SWAP2 ADD SWAP1 PUSH2 0xF87 JUMP JUMPDEST SWAP1 SWAP2 POP DUP4 PUSH1 0x0 MSTORE PUSH1 0x20 PUSH1 0x0 KECCAK256 PUSH1 0x1F DUP5 ADD PUSH1 0x5 SHR DUP2 ADD PUSH1 0x20 DUP6 LT PUSH2 0x102A JUMPI JUMPDEST SWAP1 PUSH1 0x1F DUP6 SWAP5 SWAP4 ADD PUSH1 0x5 SHR ADD SWAP1 JUMPDEST DUP2 DUP2 LT PUSH2 0x101B JUMPI POP PUSH2 0x5BA JUMP JUMPDEST PUSH1 0x0 DUP2 SSTORE DUP5 SWAP4 POP PUSH1 0x1 ADD PUSH2 0x100E JUMP JUMPDEST POP DUP1 PUSH2 0x1001 JUMP JUMPDEST PUSH1 0x40 MLOAD PUSH3 0x461BCD PUSH1 0xE5 SHL DUP2 MSTORE PUSH1 0x20 PUSH1 0x4 DUP3 ADD MSTORE PUSH1 0xB PUSH1 0x24 DUP3 ADD MSTORE PUSH11 0x139BDD081CDD195DD85C99 PUSH1 0xAA SHL PUSH1 0x44 DUP3 ADD MSTORE PUSH1 0x64 SWAP1 REVERT JUMPDEST CALLVALUE PUSH2 0x228 JUMPI PUSH1 0x20 CALLDATASIZE PUSH1 0x3 NOT ADD SLT PUSH2 0x228 JUMPI PUSH1 0x4 CALLDATALOAD PUSH1 0x2 SLOAD DUP2 LT ISZERO PUSH2 0x228 JUMPI PUSH2 0x108D PUSH1 0x20 SWAP2 PUSH2 0x10A6 JUMP JUMPDEST SWAP1 SLOAD PUSH1 0x40 MLOAD PUSH1 0x3 SWAP3 SWAP1 SWAP3 SHL SHR PUSH1 0x1 PUSH1 0x1 PUSH1 0xA0 SHL SUB AND DUP2 MSTORE RETURN JUMPDEST PUSH1 0x2 SLOAD DUP2 LT ISZERO PUSH2 0x10DD JUMPI PUSH1 0x2 PUSH1 0x0 MSTORE PUSH32 0x405787FA12A823E0F2B7631CC41B3BA8828B3321CA811111FA75CD3AA3BB5ACE ADD SWAP1 PUSH1 0x0 SWAP1 JUMP JUMPDEST PUSH4 0x4E487B71 PUSH1 0xE0 SHL PUSH1 0x0 MSTORE PUSH1 0x32 PUSH1 0x4 MSTORE PUSH1 0x24 PUSH1 0x0 REVERT JUMPDEST PUSH1 0x4 CALLDATALOAD SWAP1 PUSH1 0x1 PUSH1 0x1 PUSH1 0xA0 SHL SUB DUP3 AND DUP3 SUB PUSH2 0x228 JUMPI JUMP JUMPDEST SWAP2 DUP2 PUSH1 0x1F DUP5 ADD SLT ISZERO PUSH2 0x228 JUMPI DUP3 CALLDATALOAD SWAP2 PUSH1 0x1 PUSH1 0x1 PUSH1 0x40 SHL SUB DUP4 GT PUSH2 0x228 JUMPI PUSH1 0x20 DUP4 DUP2 DUP7 ADD SWAP6 ADD ADD GT PUSH2 0x228 JUMPI JUMP JUMPDEST SWAP1 PUSH1 0x1 DUP3 DUP2 SHR SWAP3 AND DUP1 ISZERO PUSH2 0x1166 JUMPI JUMPDEST PUSH1 0x20 DUP4 LT EQ PUSH2 0x1150 JUMPI JUMP JUMPDEST PUSH4 0x4E487B71 PUSH1 0xE0 SHL PUSH1 0x0 MSTORE PUSH1 0x22 PUSH1 0x4 MSTORE PUSH1 0x24 PUSH1 0x0 REVERT JUMPDEST SWAP2 PUSH1 0x7F AND SWAP2 PUSH2 0x1145 JUMP JUMPDEST PUSH2 0x100 DUP2 ADD SWAP1 DUP2 LT PUSH1 0x1 PUSH1 0x1 PUSH1 0x40 SHL SUB DUP3 GT OR PUSH2 0x9B8 JUMPI PUSH1 0x40 MSTORE JUMP JUMPDEST SWAP1 PUSH1 0x1F DUP1 NOT SWAP2 ADD AND DUP2 ADD SWAP1 DUP2 LT PUSH1 0x1 PUSH1 0x1 PUSH1 0x40 SHL SUB DUP3 GT OR PUSH2 0x9B8 JUMPI PUSH1 0x40 MSTORE JUMP JUMPDEST SWAP1 PUSH1 0x40 MLOAD SWAP2 DUP3 PUSH1 0x0 DUP3 SLOAD SWAP3 PUSH2 0x11C1 DUP5 PUSH2 0x1136 JUMP JUMPDEST SWAP1 DUP2 DUP5 MSTORE PUSH1 0x1 SWAP5 DUP6 DUP2 AND SWAP1 DUP2 PUSH1 0x0 EQ PUSH2 0x1230 JUMPI POP PUSH1 0x1 EQ PUSH2 0x11ED JUMPI JUMPDEST POP POP PUSH2 0x11EB SWAP3 POP SUB DUP4 PUSH2 0x118C JUMP JUMPDEST JUMP JUMPDEST SWAP1 SWAP4 SWAP2 POP PUSH1 0x0 MSTORE PUSH1 0x20 SWAP1 DUP2 PUSH1 0x0 KECCAK256 SWAP4 PUSH1 0x0 SWAP2 JUMPDEST DUP2 DUP4 LT PUSH2 0x1218 JUMPI POP POP PUSH2 0x11EB SWAP4 POP DUP3 ADD ADD CODESIZE DUP1 PUSH2 0x11DD JUMP JUMPDEST DUP6 SLOAD DUP9 DUP5 ADD DUP6 ADD MSTORE SWAP5 DUP6 ADD SWAP5 DUP8 SWAP5 POP SWAP2 DUP4 ADD SWAP2 PUSH2 0x1200 JUMP JUMPDEST SWAP2 POP POP PUSH2 0x11EB SWAP5 POP PUSH1 0x20 SWAP3 POP PUSH1 0xFF NOT AND DUP3 DUP5 ADD MSTORE ISZERO ISZERO PUSH1 0x5 SHL DUP3 ADD ADD CODESIZE DUP1 PUSH2 0x11DD JUMP JUMPDEST SWAP2 SWAP1 DUP3 MLOAD SWAP3 DUP4 DUP3 MSTORE PUSH1 0x0 JUMPDEST DUP5 DUP2 LT PUSH2 0x127F JUMPI POP POP DUP3 PUSH1 0x0 PUSH1 0x20 DUP1 SWAP5 SWAP6 DUP5 ADD ADD MSTORE PUSH1 0x1F DUP1 NOT SWAP2 ADD AND ADD ADD SWAP1 JUMP JUMPDEST PUSH1 0x20 DUP2 DUP4 ADD DUP2 ADD MLOAD DUP5 DUP4 ADD DUP3 ADD MSTORE ADD PUSH2 0x125E JUMP JUMPDEST SWAP3 SWAP2 SWAP3 PUSH1 0x1 PUSH1 0x1 PUSH1 0x40 SHL SUB DUP3 GT PUSH2 0x9B8 JUMPI PUSH1 0x40 MLOAD SWAP2 PUSH2 0x12BC PUSH1 0x1F DUP3 ADD PUSH1 0x1F NOT AND PUSH1 0x20 ADD DUP5 PUSH2 0x118C JUMP JUMPDEST DUP3 SWAP5 DUP2 DUP5 MSTORE DUP2 DUP4 ADD GT PUSH2 0x228 JUMPI DUP3 DUP2 PUSH1 0x20 SWAP4 DUP5 PUSH1 0x0 SWAP7 ADD CALLDATACOPY ADD ADD MSTORE JUMP JUMPDEST SWAP1 DUP1 PUSH1 0x20 SWAP4 SWAP3 DUP2 DUP5 MSTORE DUP5 DUP5 ADD CALLDATACOPY PUSH1 0x0 DUP3 DUP3 ADD DUP5 ADD MSTORE PUSH1 0x1F ADD PUSH1 0x1F NOT AND ADD ADD SWAP1 JUMP INVALID LOG2 PUSH5 0x6970667358 0x22 SLT KECCAK256 0xCA 0x4B PUSH11 0xBF4E29C047688188862966 0xCA PUSH4 0xFD8FD0A6 BLOCKHASH 0xCD PUSH8 0x597CE0474B00A538 0x5D PUSH5 0x736F6C6343 STOP ADDMOD EQ STOP CALLER "},"methodIdentifiers":{"companions(address)":"47854b87","getCompanion(address)":"ef652737","keys(uint256)":"0cb6aaf1","steward()":"637eea19","summonCompanion(address,string,string,string,string,string,string,string,string)":"1f9892bf","totalCompanions()":"ec39f18f"}}}}}