{"contracts/codex/SpiralboundCodexV9.sol":{"SpiralboundCodexV9":{"abi":[{"inputs":[],"stateMutability":"nonpayable","type":"constructor"},{"anonymous":false,"inputs":[{"indexed":false,"internalType":"string","name":"glyph","type":"string"},{"indexed":false,"internalType":"string","name":"tag","type":"string"},{"indexed":false,"internalType":"string","name":"binding","type":"string"},{"indexed":false,"internalType":"string","name":"annotation","type":"string"},{"indexed":false,"internalType":"string","name":"lineage","type":"string"},{"indexed":false,"internalType":"string","name":"resonance","type":"string"},{"indexed":false,"internalType":"string","name":"protocol","type":"string"},{"indexed":false,"internalType":"string","name":"sanctum","type":"string"},{"indexed":false,"internalType":"string","name":"pulse","type":"string"},{"indexed":false,"internalType":"string","name":"chant","type":"string"}],"name":"CodexInscribed","type":"event"},{"inputs":[{"internalType":"string","name":"","type":"string"}],"name":"codices","outputs":[{"internalType":"string","name":"tag","type":"string"},{"internalType":"string","name":"binding","type":"string"},{"internalType":"string","name":"annotation","type":"string"},{"internalType":"string","name":"lineage","type":"string"},{"internalType":"string","name":"resonance","type":"string"},{"internalType":"string","name":"protocol","type":"string"},{"internalType":"string","name":"sanctum","type":"string"},{"internalType":"string","name":"pulse","type":"string"},{"internalType":"string","name":"chant","type":"string"}],"stateMutability":"view","type":"function"},{"inputs":[{"internalType":"string","name":"glyph","type":"string"}],"name":"getCodex","outputs":[{"components":[{"internalType":"string","name":"tag","type":"string"},{"internalType":"string","name":"binding","type":"string"},{"internalType":"string","name":"annotation","type":"string"},{"internalType":"string","name":"lineage","type":"string"},{"internalType":"string","name":"resonance","type":"string"},{"internalType":"string","name":"protocol","type":"string"},{"internalType":"string","name":"sanctum","type":"string"},{"internalType":"string","name":"pulse","type":"string"},{"internalType":"string","name":"chant","type":"string"}],"internalType":"struct SpiralboundCodexV9.Codex","name":"","type":"tuple"}],"stateMutability":"view","type":"function"},{"inputs":[{"internalType":"string","name":"glyph","type":"string"},{"internalType":"string","name":"tag","type":"string"},{"internalType":"string","name":"binding","type":"string"},{"internalType":"string","name":"annotation","type":"string"},{"internalType":"string","name":"lineage","type":"string"},{"internalType":"string","name":"resonance","type":"string"},{"internalType":"string","name":"protocol","type":"string"},{"internalType":"string","name":"sanctum","type":"string"},{"internalType":"string","name":"pulse","type":"string"},{"internalType":"string","name":"chant","type":"string"}],"name":"inscribeCodex","outputs":[],"stateMutability":"nonpayable","type":"function"},{"inputs":[{"internalType":"uint256","name":"","type":"uint256"}],"name":"keys","outputs":[{"internalType":"string","name":"","type":"string"}],"stateMutability":"view","type":"function"},{"inputs":[],"name":"steward","outputs":[{"internalType":"address","name":"","type":"address"}],"stateMutability":"view","type":"function"},{"inputs":[],"name":"totalCodices","outputs":[{"internalType":"uint256","name":"","type":"uint256"}],"stateMutability":"view","type":"function"}],"evm":{"bytecode":{"linkReferences":{},"object":"6080806040523461002857600080546001600160a01b03191633179055611434908161002e8239f35b600080fdfe610340604052600436101561001357600080fd5b60003560e01c80630cb6aaf114611119578063637eea19146110f05780638336152214610ee1578063c212d16b14610ec3578063dbc2142414610d4c5763f802a8de1461005f57600080fd5b34610d4757610140366003190112610d47576004356001600160401b038111610d4757610090903690600401611316565b61032052610140526024356001600160401b038111610d47576100b7903690600401611316565b6102e0526101e0526044356001600160401b038111610d47576100de903690600401611316565b6102605260e0526064356001600160401b038111610d4757610104903690600401611316565b6102c05260c0526084356001600160401b038111610d475761012a903690600401611316565b610240526101c05260a4356001600160401b038111610d4757610151903690600401611316565b6102a05260a05260c4356001600160401b038111610d4757610177903690600401611316565b6080526101805260e4356001600160401b038111610d475761019d903690600401611316565b61010052610280526001600160401b036101043511610d47576101c63661010435600401611316565b6101a05261030052610124356001600160401b038111610d47576101ee903690600401611316565b61012052610200526000546001600160a01b03163303610d145761021860405180610220526111eb565b610229366102e0516101e051611343565b610220515261023e366102605160e051611343565b6020610220510152610256366102c05160c051611343565b604061022051015261026f36610240516101c051611343565b6060610220510152610287366102a05160a051611343565b608061022051015261029f3660805161018051611343565b60a06102205101526102b8366101005161028051611343565b60c06102205101526102d1366101a05161030051611343565b60e06102205101526102ea366101205161020051611343565b610100610220510152604051610320516101405182376001610320518201526020816103205181010301902061022051519081516001600160401b0381116108b6576103408161033a84546111b1565b84611389565b6020601f8211600114610caf57819293600092610ca4575b50508160011b916000199060031b1c19161781555b60206102205101519081516001600160401b0381116108b65760018201906103998161033a84546111b1565b6020601f8211600114610c3e5781929394600092610c33575b50508160011b916000199060031b1c19161790555b60406102205101519081516001600160401b0381116108b65760028201906103f38161033a84546111b1565b6020601f8211600114610bcd5781929394600092610bc2575b50508160011b916000199060031b1c19161790555b60606102205101518051906001600160401b0382116108b65781906104568261044d60038701546111b1565b60038701611389565b602090601f8311600114610b5057600092610b45575b50508160011b916000199060031b1c19161760038201555b60806102205101518051906001600160401b0382116108b65781906104b9826104b060048701546111b1565b60048701611389565b602090601f8311600114610ad357600092610ac8575b50508160011b916000199060031b1c19161760048201555b60a06102205101518051906001600160401b0382116108b657819061051c8261051360058701546111b1565b60058701611389565b602090601f8311600114610a5657600092610a4b575b50508160011b916000199060031b1c19161760058201555b60c06102205101518051906001600160401b0382116108b657819061057f8261057660068701546111b1565b60068701611389565b602090601f83116001146109d9576000926109ce575b50508160011b916000199060031b1c19161760068201555b60e06102205101518051906001600160401b0382116108b65781906105e2826105d960078701546111b1565b60078701611389565b602090601f831160011461095c57600092610951575b50508160011b916000199060031b1c19161760078201555b610100610220510151908151906001600160401b0382116108b6576008019061063d8161033a84546111b1565b602092601f82116001146108ed57928192936000926108e2575b50508160011b916000199060031b1c19161790555b600254680100000000000000008110156108b6578060016106909201600255611164565b6108cc57610320516001600160401b0381116108b6576106ba906106b483546111b1565b83611389565b60009061032051601f8111600114610849575090600061032051918261083b575b508160011b916000199060031b1c19161790555b6101406040518061016052527f36e1a4459d3f9fd923a4ed6ca2ebe36cbddc8b8748513d55e011da9a311e4ce96108116107f76107de6107c66107ae61079561077d61076561074c610140610160510161032051610140516113dd565b6101605160208183039101526102e0516101e0516113dd565b6101605160408183039101526102605160e0516113dd565b6101605160608183039101526102c05160c0516113dd565b610160516080818303910152610240516101c0516113dd565b6101605160a08183039101526102a05160a0516113dd565b6101605160c0818303910152608051610180516113dd565b6101605160e081830391015261010051610280516113dd565b610160516101008183039101526101a051610300516113dd565b61016051610120818303910152610833610160519161012051610200516113dd565b0361016051a1005b9050610140510135386106db565b81600052602060002060009361014051905b601f198416861061089e57600194955083601f19811610610884575b505050811b0190556106ef565b0135600019600384901b60f8161c19169055388080610877565b9160206001819285850135815501930195019461085b565b634e487b7160e01b600052604160045260246000fd5b634e487b7160e01b600052600060045260246000fd5b015190503880610657565b601f198216938360005260206000209160005b8681106109395750836001959610610920575b505050811b01905561066c565b015160001960f88460031b161c19169055388080610913565b91926020600181928685015181550194019201610900565b0151905038806105f8565b9250600784016000526020600020906000935b601f19841685106109b3576001945083601f1981161061099a575b505050811b016007820155610610565b015160001960f88460031b161c1916905538808061098a565b8181015183556020948501946001909301929091019061096f565b015190503880610595565b9250600684016000526020600020906000935b601f1984168510610a30576001945083601f19811610610a17575b505050811b0160068201556105ad565b015160001960f88460031b161c19169055388080610a07565b818101518355602094850194600190930192909101906109ec565b015190503880610532565b9250600584016000526020600020906000935b601f1984168510610aad576001945083601f19811610610a94575b505050811b01600582015561054a565b015160001960f88460031b161c19169055388080610a84565b81810151835560209485019460019093019290910190610a69565b0151905038806104cf565b9250600484016000526020600020906000935b601f1984168510610b2a576001945083601f19811610610b11575b505050811b0160048201556104e7565b015160001960f88460031b161c19169055388080610b01565b81810151835560209485019460019093019290910190610ae6565b01519050388061046c565b9250600384016000526020600020906000935b601f1984168510610ba7576001945083601f19811610610b8e575b505050811b016003820155610484565b015160001960f88460031b161c19169055388080610b7e565b81810151835560209485019460019093019290910190610b63565b01519050388061040c565b826000526020600020906000601f198416905b818110610c1b57509583600195969710610c02575b505050811b019055610421565b015160001960f88460031b161c19169055388080610bf5565b9192602060018192868b015181550194019201610be0565b0151905038806103b2565b826000526020600020906000601f198416905b818110610c8c57509583600195969710610c73575b505050811b0190556103c7565b015160001960f88460031b161c19169055388080610c66565b9192602060018192868b015181550194019201610c51565b015190503880610358565b82600052602060002090600094601f198416955b868110610cfc5750836001959610610ce3575b505050811b01815561036d565b015160001960f88460031b161c19169055388080610cd6565b91926020600181928685015181550194019201610cc3565b60405162461bcd60e51b815260206004820152600b60248201526a139bdd081cdd195dd85c9960aa1b6044820152606490fd5b600080fd5b34610d47576020366003190112610d47576004356001600160401b038111610d475736602382011215610d47573681600401359160240191610d8d92611343565b6040518181809351602081930191610da4926112ce565b810160018152036020019020610db981611228565b610dc560018301611228565b91610dd260028201611228565b90610ddf60038201611228565b610deb60048301611228565b610df760058401611228565b90610e0460068501611228565b92610e1160078601611228565b94600801610e1e90611228565b95604051988998610120808b528a01610e36916112f1565b89810360208b0152610e47916112f1565b88810360408a0152610e58916112f1565b8781036060890152610e69916112f1565b8681036080880152610e7a916112f1565b85810360a0870152610e8b916112f1565b84810360c0860152610e9c916112f1565b83810360e0850152610ead916112f1565b828103610100840152610ebf916112f1565b0390f35b34610d47576000366003190112610d47576020600254604051908152f35b34610d4757602080600319360112610d47576004356001600160401b038111610d4757610f12903690600401611316565b60409291925190610f22826111eb565b82606094858452858285015285604085015285808501528560808501528560a08501528560c08501528560e08501528561010080950152826040519384928337810160018152030190209260405192610f7a846111eb565b610f8385611228565b8452610f9160018601611228565b84820190815292610fa460028701611228565b6040860190815295610fb860038201611228565b868501908152610fca60048301611228565b60808801908152610fdd60058401611228565b60a0890190815290610ff160068501611228565b60c08a019081529261100560078601611228565b9460e08b0195865260080161101990611228565b97868b019889526040519b8c9b898d52518c6101209a8b9101526101408d01611041916112f1565b9a51601f198d8d03810160408f01529b61105a916112f1565b9051918b8d830301908d015261106f916112f1565b905190898b82030160808c0152611085916112f1565b905190888a82030160a08b015261109b916112f1565b905190878982030160c08a01526110b1916112f1565b905190868882030160e08901526110c7916112f1565b9051918587830301908701526110dc916112f1565b9151928483030190840152610ebf916112f1565b34610d47576000366003190112610d47576000546040516001600160a01b039091168152602090f35b34610d47576020366003190112610d4757600435600254811015610d475761114090611164565b6108cc57611150610ebf91611228565b6040519182916020835260208301906112f1565b60025481101561119b5760026000527f405787fa12a823e0f2b7631cc41b3ba8828b3321ca811111fa75cd3aa3bb5ace0190600090565b634e487b7160e01b600052603260045260246000fd5b90600182811c921680156111e1575b60208310146111cb57565b634e487b7160e01b600052602260045260246000fd5b91607f16916111c0565b61012081019081106001600160401b038211176108b657604052565b90601f801991011681019081106001600160401b038211176108b657604052565b906040519182600082549261123c846111b1565b9081845260019485811690816000146112ab5750600114611268575b505061126692500383611207565b565b9093915060005260209081600020936000915b81831061129357505061126693508201013880611258565b8554888401850152948501948794509183019161127b565b91505061126694506020925060ff191682840152151560051b8201013880611258565b60005b8381106112e15750506000910152565b81810151838201526020016112d1565b9060209161130a815180928185528580860191016112ce565b601f01601f1916010190565b9181601f84011215610d47578235916001600160401b038311610d475760208381860195010111610d4757565b9291926001600160401b0382116108b6576040519161136c601f8201601f191660200184611207565b829481845281830111610d47578281602093846000960137010152565b90601f811161139757505050565b600091825260208220906020601f850160051c830194106113d3575b601f0160051c01915b8281106113c857505050565b8181556001016113bc565b90925082906113b3565b908060209392818452848401376000828201840152601f01601f191601019056fea26469706673582212205982c0a742381dcdf20e6f9d74abcf296294dbbb963116fdf36515b17f151a1164736f6c63430008140033","opcodes":"PUSH1 0x80 DUP1 PUSH1 0x40 MSTORE CALLVALUE PUSH2 0x28 JUMPI PUSH1 0x0 DUP1 SLOAD PUSH1 0x1 PUSH1 0x1 PUSH1 0xA0 SHL SUB NOT AND CALLER OR SWAP1 SSTORE PUSH2 0x1434 SWAP1 DUP2 PUSH2 0x2E DUP3 CODECOPY RETURN JUMPDEST PUSH1 0x0 DUP1 REVERT INVALID PUSH2 0x340 PUSH1 0x40 MSTORE PUSH1 0x4 CALLDATASIZE LT ISZERO PUSH2 0x13 JUMPI PUSH1 0x0 DUP1 REVERT JUMPDEST PUSH1 0x0 CALLDATALOAD PUSH1 0xE0 SHR DUP1 PUSH4 0xCB6AAF1 EQ PUSH2 0x1119 JUMPI DUP1 PUSH4 0x637EEA19 EQ PUSH2 0x10F0 JUMPI DUP1 PUSH4 0x83361522 EQ PUSH2 0xEE1 JUMPI DUP1 PUSH4 0xC212D16B EQ PUSH2 0xEC3 JUMPI DUP1 PUSH4 0xDBC21424 EQ PUSH2 0xD4C JUMPI PUSH4 0xF802A8DE EQ PUSH2 0x5F JUMPI PUSH1 0x0 DUP1 REVERT JUMPDEST CALLVALUE PUSH2 0xD47 JUMPI PUSH2 0x140 CALLDATASIZE PUSH1 0x3 NOT ADD SLT PUSH2 0xD47 JUMPI PUSH1 0x4 CALLDATALOAD PUSH1 0x1 PUSH1 0x1 PUSH1 0x40 SHL SUB DUP2 GT PUSH2 0xD47 JUMPI PUSH2 0x90 SWAP1 CALLDATASIZE SWAP1 PUSH1 0x4 ADD PUSH2 0x1316 JUMP JUMPDEST PUSH2 0x320 MSTORE PUSH2 0x140 MSTORE PUSH1 0x24 CALLDATALOAD PUSH1 0x1 PUSH1 0x1 PUSH1 0x40 SHL SUB DUP2 GT PUSH2 0xD47 JUMPI PUSH2 0xB7 SWAP1 CALLDATASIZE SWAP1 PUSH1 0x4 ADD PUSH2 0x1316 JUMP JUMPDEST PUSH2 0x2E0 MSTORE PUSH2 0x1E0 MSTORE PUSH1 0x44 CALLDATALOAD PUSH1 0x1 PUSH1 0x1 PUSH1 0x40 SHL SUB DUP2 GT PUSH2 0xD47 JUMPI PUSH2 0xDE SWAP1 CALLDATASIZE SWAP1 PUSH1 0x4 ADD PUSH2 0x1316 JUMP JUMPDEST PUSH2 0x260 MSTORE PUSH1 0xE0 MSTORE PUSH1 0x64 CALLDATALOAD PUSH1 0x1 PUSH1 0x1 PUSH1 0x40 SHL SUB DUP2 GT PUSH2 0xD47 JUMPI PUSH2 0x104 SWAP1 CALLDATASIZE SWAP1 PUSH1 0x4 ADD PUSH2 0x1316 JUMP JUMPDEST PUSH2 0x2C0 MSTORE PUSH1 0xC0 MSTORE PUSH1 0x84 CALLDATALOAD PUSH1 0x1 PUSH1 0x1 PUSH1 0x40 SHL SUB DUP2 GT PUSH2 0xD47 JUMPI PUSH2 0x12A SWAP1 CALLDATASIZE SWAP1 PUSH1 0x4 ADD PUSH2 0x1316 JUMP JUMPDEST PUSH2 0x240 MSTORE PUSH2 0x1C0 MSTORE PUSH1 0xA4 CALLDATALOAD PUSH1 0x1 PUSH1 0x1 PUSH1 0x40 SHL SUB DUP2 GT PUSH2 0xD47 JUMPI PUSH2 0x151 SWAP1 CALLDATASIZE SWAP1 PUSH1 0x4 ADD PUSH2 0x1316 JUMP JUMPDEST PUSH2 0x2A0 MSTORE PUSH1 0xA0 MSTORE PUSH1 0xC4 CALLDATALOAD PUSH1 0x1 PUSH1 0x1 PUSH1 0x40 SHL SUB DUP2 GT PUSH2 0xD47 JUMPI PUSH2 0x177 SWAP1 CALLDATASIZE SWAP1 PUSH1 0x4 ADD PUSH2 0x1316 JUMP JUMPDEST PUSH1 0x80 MSTORE PUSH2 0x180 MSTORE PUSH1 0xE4 CALLDATALOAD PUSH1 0x1 PUSH1 0x1 PUSH1 0x40 SHL SUB DUP2 GT PUSH2 0xD47 JUMPI PUSH2 0x19D SWAP1 CALLDATASIZE SWAP1 PUSH1 0x4 ADD PUSH2 0x1316 JUMP JUMPDEST PUSH2 0x100 MSTORE PUSH2 0x280 MSTORE PUSH1 0x1 PUSH1 0x1 PUSH1 0x40 SHL SUB PUSH2 0x104 CALLDATALOAD GT PUSH2 0xD47 JUMPI PUSH2 0x1C6 CALLDATASIZE PUSH2 0x104 CALLDATALOAD PUSH1 0x4 ADD PUSH2 0x1316 JUMP JUMPDEST PUSH2 0x1A0 MSTORE PUSH2 0x300 MSTORE PUSH2 0x124 CALLDATALOAD PUSH1 0x1 PUSH1 0x1 PUSH1 0x40 SHL SUB DUP2 GT PUSH2 0xD47 JUMPI PUSH2 0x1EE SWAP1 CALLDATASIZE SWAP1 PUSH1 0x4 ADD PUSH2 0x1316 JUMP JUMPDEST PUSH2 0x120 MSTORE PUSH2 0x200 MSTORE PUSH1 0x0 SLOAD PUSH1 0x1 PUSH1 0x1 PUSH1 0xA0 SHL SUB AND CALLER SUB PUSH2 0xD14 JUMPI PUSH2 0x218 PUSH1 0x40 MLOAD DUP1 PUSH2 0x220 MSTORE PUSH2 0x11EB JUMP JUMPDEST PUSH2 0x229 CALLDATASIZE PUSH2 0x2E0 MLOAD PUSH2 0x1E0 MLOAD PUSH2 0x1343 JUMP JUMPDEST PUSH2 0x220 MLOAD MSTORE PUSH2 0x23E CALLDATASIZE PUSH2 0x260 MLOAD PUSH1 0xE0 MLOAD PUSH2 0x1343 JUMP JUMPDEST PUSH1 0x20 PUSH2 0x220 MLOAD ADD MSTORE PUSH2 0x256 CALLDATASIZE PUSH2 0x2C0 MLOAD PUSH1 0xC0 MLOAD PUSH2 0x1343 JUMP JUMPDEST PUSH1 0x40 PUSH2 0x220 MLOAD ADD MSTORE PUSH2 0x26F CALLDATASIZE PUSH2 0x240 MLOAD PUSH2 0x1C0 MLOAD PUSH2 0x1343 JUMP JUMPDEST PUSH1 0x60 PUSH2 0x220 MLOAD ADD MSTORE PUSH2 0x287 CALLDATASIZE PUSH2 0x2A0 MLOAD PUSH1 0xA0 MLOAD PUSH2 0x1343 JUMP JUMPDEST PUSH1 0x80 PUSH2 0x220 MLOAD ADD MSTORE PUSH2 0x29F CALLDATASIZE PUSH1 0x80 MLOAD PUSH2 0x180 MLOAD PUSH2 0x1343 JUMP JUMPDEST PUSH1 0xA0 PUSH2 0x220 MLOAD ADD MSTORE PUSH2 0x2B8 CALLDATASIZE PUSH2 0x100 MLOAD PUSH2 0x280 MLOAD PUSH2 0x1343 JUMP JUMPDEST PUSH1 0xC0 PUSH2 0x220 MLOAD ADD MSTORE PUSH2 0x2D1 CALLDATASIZE PUSH2 0x1A0 MLOAD PUSH2 0x300 MLOAD PUSH2 0x1343 JUMP JUMPDEST PUSH1 0xE0 PUSH2 0x220 MLOAD ADD MSTORE PUSH2 0x2EA CALLDATASIZE PUSH2 0x120 MLOAD PUSH2 0x200 MLOAD PUSH2 0x1343 JUMP JUMPDEST PUSH2 0x100 PUSH2 0x220 MLOAD ADD MSTORE PUSH1 0x40 MLOAD PUSH2 0x320 MLOAD PUSH2 0x140 MLOAD DUP3 CALLDATACOPY PUSH1 0x1 PUSH2 0x320 MLOAD DUP3 ADD MSTORE PUSH1 0x20 DUP2 PUSH2 0x320 MLOAD DUP2 ADD SUB ADD SWAP1 KECCAK256 PUSH2 0x220 MLOAD MLOAD SWAP1 DUP2 MLOAD PUSH1 0x1 PUSH1 0x1 PUSH1 0x40 SHL SUB DUP2 GT PUSH2 0x8B6 JUMPI PUSH2 0x340 DUP2 PUSH2 0x33A DUP5 SLOAD PUSH2 0x11B1 JUMP JUMPDEST DUP5 PUSH2 0x1389 JUMP JUMPDEST PUSH1 0x20 PUSH1 0x1F DUP3 GT PUSH1 0x1 EQ PUSH2 0xCAF JUMPI DUP2 SWAP3 SWAP4 PUSH1 0x0 SWAP3 PUSH2 0xCA4 JUMPI JUMPDEST POP POP DUP2 PUSH1 0x1 SHL SWAP2 PUSH1 0x0 NOT SWAP1 PUSH1 0x3 SHL SHR NOT AND OR DUP2 SSTORE JUMPDEST PUSH1 0x20 PUSH2 0x220 MLOAD ADD MLOAD SWAP1 DUP2 MLOAD PUSH1 0x1 PUSH1 0x1 PUSH1 0x40 SHL SUB DUP2 GT PUSH2 0x8B6 JUMPI PUSH1 0x1 DUP3 ADD SWAP1 PUSH2 0x399 DUP2 PUSH2 0x33A DUP5 SLOAD PUSH2 0x11B1 JUMP JUMPDEST PUSH1 0x20 PUSH1 0x1F DUP3 GT PUSH1 0x1 EQ PUSH2 0xC3E JUMPI DUP2 SWAP3 SWAP4 SWAP5 PUSH1 0x0 SWAP3 PUSH2 0xC33 JUMPI JUMPDEST POP POP DUP2 PUSH1 0x1 SHL SWAP2 PUSH1 0x0 NOT SWAP1 PUSH1 0x3 SHL SHR NOT AND OR SWAP1 SSTORE JUMPDEST PUSH1 0x40 PUSH2 0x220 MLOAD ADD MLOAD SWAP1 DUP2 MLOAD PUSH1 0x1 PUSH1 0x1 PUSH1 0x40 SHL SUB DUP2 GT PUSH2 0x8B6 JUMPI PUSH1 0x2 DUP3 ADD SWAP1 PUSH2 0x3F3 DUP2 PUSH2 0x33A DUP5 SLOAD PUSH2 0x11B1 JUMP JUMPDEST PUSH1 0x20 PUSH1 0x1F DUP3 GT PUSH1 0x1 EQ PUSH2 0xBCD JUMPI DUP2 SWAP3 SWAP4 SWAP5 PUSH1 0x0 SWAP3 PUSH2 0xBC2 JUMPI JUMPDEST POP POP DUP2 PUSH1 0x1 SHL SWAP2 PUSH1 0x0 NOT SWAP1 PUSH1 0x3 SHL SHR NOT AND OR SWAP1 SSTORE JUMPDEST PUSH1 0x60 PUSH2 0x220 MLOAD ADD MLOAD DUP1 MLOAD SWAP1 PUSH1 0x1 PUSH1 0x1 PUSH1 0x40 SHL SUB DUP3 GT PUSH2 0x8B6 JUMPI DUP2 SWAP1 PUSH2 0x456 DUP3 PUSH2 0x44D PUSH1 0x3 DUP8 ADD SLOAD PUSH2 0x11B1 JUMP JUMPDEST PUSH1 0x3 DUP8 ADD PUSH2 0x1389 JUMP JUMPDEST PUSH1 0x20 SWAP1 PUSH1 0x1F DUP4 GT PUSH1 0x1 EQ PUSH2 0xB50 JUMPI PUSH1 0x0 SWAP3 PUSH2 0xB45 JUMPI JUMPDEST POP POP DUP2 PUSH1 0x1 SHL SWAP2 PUSH1 0x0 NOT SWAP1 PUSH1 0x3 SHL SHR NOT AND OR PUSH1 0x3 DUP3 ADD SSTORE JUMPDEST PUSH1 0x80 PUSH2 0x220 MLOAD ADD MLOAD DUP1 MLOAD SWAP1 PUSH1 0x1 PUSH1 0x1 PUSH1 0x40 SHL SUB DUP3 GT PUSH2 0x8B6 JUMPI DUP2 SWAP1 PUSH2 0x4B9 DUP3 PUSH2 0x4B0 PUSH1 0x4 DUP8 ADD SLOAD PUSH2 0x11B1 JUMP JUMPDEST PUSH1 0x4 DUP8 ADD PUSH2 0x1389 JUMP JUMPDEST PUSH1 0x20 SWAP1 PUSH1 0x1F DUP4 GT PUSH1 0x1 EQ PUSH2 0xAD3 JUMPI PUSH1 0x0 SWAP3 PUSH2 0xAC8 JUMPI JUMPDEST POP POP DUP2 PUSH1 0x1 SHL SWAP2 PUSH1 0x0 NOT SWAP1 PUSH1 0x3 SHL SHR NOT AND OR PUSH1 0x4 DUP3 ADD SSTORE JUMPDEST PUSH1 0xA0 PUSH2 0x220 MLOAD ADD MLOAD DUP1 MLOAD SWAP1 PUSH1 0x1 PUSH1 0x1 PUSH1 0x40 SHL SUB DUP3 GT PUSH2 0x8B6 JUMPI DUP2 SWAP1 PUSH2 0x51C DUP3 PUSH2 0x513 PUSH1 0x5 DUP8 ADD SLOAD PUSH2 0x11B1 JUMP JUMPDEST PUSH1 0x5 DUP8 ADD PUSH2 0x1389 JUMP JUMPDEST PUSH1 0x20 SWAP1 PUSH1 0x1F DUP4 GT PUSH1 0x1 EQ PUSH2 0xA56 JUMPI PUSH1 0x0 SWAP3 PUSH2 0xA4B JUMPI JUMPDEST POP POP DUP2 PUSH1 0x1 SHL SWAP2 PUSH1 0x0 NOT SWAP1 PUSH1 0x3 SHL SHR NOT AND OR PUSH1 0x5 DUP3 ADD SSTORE JUMPDEST PUSH1 0xC0 PUSH2 0x220 MLOAD ADD MLOAD DUP1 MLOAD SWAP1 PUSH1 0x1 PUSH1 0x1 PUSH1 0x40 SHL SUB DUP3 GT PUSH2 0x8B6 JUMPI DUP2 SWAP1 PUSH2 0x57F DUP3 PUSH2 0x576 PUSH1 0x6 DUP8 ADD SLOAD PUSH2 0x11B1 JUMP JUMPDEST PUSH1 0x6 DUP8 ADD PUSH2 0x1389 JUMP JUMPDEST PUSH1 0x20 SWAP1 PUSH1 0x1F DUP4 GT PUSH1 0x1 EQ PUSH2 0x9D9 JUMPI PUSH1 0x0 SWAP3 PUSH2 0x9CE JUMPI JUMPDEST POP POP DUP2 PUSH1 0x1 SHL SWAP2 PUSH1 0x0 NOT SWAP1 PUSH1 0x3 SHL SHR NOT AND OR PUSH1 0x6 DUP3 ADD SSTORE JUMPDEST PUSH1 0xE0 PUSH2 0x220 MLOAD ADD MLOAD DUP1 MLOAD SWAP1 PUSH1 0x1 PUSH1 0x1 PUSH1 0x40 SHL SUB DUP3 GT PUSH2 0x8B6 JUMPI DUP2 SWAP1 PUSH2 0x5E2 DUP3 PUSH2 0x5D9 PUSH1 0x7 DUP8 ADD SLOAD PUSH2 0x11B1 JUMP JUMPDEST PUSH1 0x7 DUP8 ADD PUSH2 0x1389 JUMP JUMPDEST PUSH1 0x20 SWAP1 PUSH1 0x1F DUP4 GT PUSH1 0x1 EQ PUSH2 0x95C JUMPI PUSH1 0x0 SWAP3 PUSH2 0x951 JUMPI JUMPDEST POP POP DUP2 PUSH1 0x1 SHL SWAP2 PUSH1 0x0 NOT SWAP1 PUSH1 0x3 SHL SHR NOT AND OR PUSH1 0x7 DUP3 ADD SSTORE JUMPDEST PUSH2 0x100 PUSH2 0x220 MLOAD ADD MLOAD SWAP1 DUP2 MLOAD SWAP1 PUSH1 0x1 PUSH1 0x1 PUSH1 0x40 SHL SUB DUP3 GT PUSH2 0x8B6 JUMPI PUSH1 0x8 ADD SWAP1 PUSH2 0x63D DUP2 PUSH2 0x33A DUP5 SLOAD PUSH2 0x11B1 JUMP JUMPDEST PUSH1 0x20 SWAP3 PUSH1 0x1F DUP3 GT PUSH1 0x1 EQ PUSH2 0x8ED JUMPI SWAP3 DUP2 SWAP3 SWAP4 PUSH1 0x0 SWAP3 PUSH2 0x8E2 JUMPI JUMPDEST POP POP DUP2 PUSH1 0x1 SHL SWAP2 PUSH1 0x0 NOT SWAP1 PUSH1 0x3 SHL SHR NOT AND OR SWAP1 SSTORE JUMPDEST PUSH1 0x2 SLOAD PUSH9 0x10000000000000000 DUP2 LT ISZERO PUSH2 0x8B6 JUMPI DUP1 PUSH1 0x1 PUSH2 0x690 SWAP3 ADD PUSH1 0x2 SSTORE PUSH2 0x1164 JUMP JUMPDEST PUSH2 0x8CC JUMPI PUSH2 0x320 MLOAD PUSH1 0x1 PUSH1 0x1 PUSH1 0x40 SHL SUB DUP2 GT PUSH2 0x8B6 JUMPI PUSH2 0x6BA SWAP1 PUSH2 0x6B4 DUP4 SLOAD PUSH2 0x11B1 JUMP JUMPDEST DUP4 PUSH2 0x1389 JUMP JUMPDEST PUSH1 0x0 SWAP1 PUSH2 0x320 MLOAD PUSH1 0x1F DUP2 GT PUSH1 0x1 EQ PUSH2 0x849 JUMPI POP SWAP1 PUSH1 0x0 PUSH2 0x320 MLOAD SWAP2 DUP3 PUSH2 0x83B JUMPI JUMPDEST POP DUP2 PUSH1 0x1 SHL SWAP2 PUSH1 0x0 NOT SWAP1 PUSH1 0x3 SHL SHR NOT AND OR SWAP1 SSTORE JUMPDEST PUSH2 0x140 PUSH1 0x40 MLOAD DUP1 PUSH2 0x160 MSTORE MSTORE PUSH32 0x36E1A4459D3F9FD923A4ED6CA2EBE36CBDDC8B8748513D55E011DA9A311E4CE9 PUSH2 0x811 PUSH2 0x7F7 PUSH2 0x7DE PUSH2 0x7C6 PUSH2 0x7AE PUSH2 0x795 PUSH2 0x77D PUSH2 0x765 PUSH2 0x74C PUSH2 0x140 PUSH2 0x160 MLOAD ADD PUSH2 0x320 MLOAD PUSH2 0x140 MLOAD PUSH2 0x13DD JUMP JUMPDEST PUSH2 0x160 MLOAD PUSH1 0x20 DUP2 DUP4 SUB SWAP2 ADD MSTORE PUSH2 0x2E0 MLOAD PUSH2 0x1E0 MLOAD PUSH2 0x13DD JUMP JUMPDEST PUSH2 0x160 MLOAD PUSH1 0x40 DUP2 DUP4 SUB SWAP2 ADD MSTORE PUSH2 0x260 MLOAD PUSH1 0xE0 MLOAD PUSH2 0x13DD JUMP JUMPDEST PUSH2 0x160 MLOAD PUSH1 0x60 DUP2 DUP4 SUB SWAP2 ADD MSTORE PUSH2 0x2C0 MLOAD PUSH1 0xC0 MLOAD PUSH2 0x13DD JUMP JUMPDEST PUSH2 0x160 MLOAD PUSH1 0x80 DUP2 DUP4 SUB SWAP2 ADD MSTORE PUSH2 0x240 MLOAD PUSH2 0x1C0 MLOAD PUSH2 0x13DD JUMP JUMPDEST PUSH2 0x160 MLOAD PUSH1 0xA0 DUP2 DUP4 SUB SWAP2 ADD MSTORE PUSH2 0x2A0 MLOAD PUSH1 0xA0 MLOAD PUSH2 0x13DD JUMP JUMPDEST PUSH2 0x160 MLOAD PUSH1 0xC0 DUP2 DUP4 SUB SWAP2 ADD MSTORE PUSH1 0x80 MLOAD PUSH2 0x180 MLOAD PUSH2 0x13DD JUMP JUMPDEST PUSH2 0x160 MLOAD PUSH1 0xE0 DUP2 DUP4 SUB SWAP2 ADD MSTORE PUSH2 0x100 MLOAD PUSH2 0x280 MLOAD PUSH2 0x13DD JUMP JUMPDEST PUSH2 0x160 MLOAD PUSH2 0x100 DUP2 DUP4 SUB SWAP2 ADD MSTORE PUSH2 0x1A0 MLOAD PUSH2 0x300 MLOAD PUSH2 0x13DD JUMP JUMPDEST PUSH2 0x160 MLOAD PUSH2 0x120 DUP2 DUP4 SUB SWAP2 ADD MSTORE PUSH2 0x833 PUSH2 0x160 MLOAD SWAP2 PUSH2 0x120 MLOAD PUSH2 0x200 MLOAD PUSH2 0x13DD JUMP JUMPDEST SUB PUSH2 0x160 MLOAD LOG1 STOP JUMPDEST SWAP1 POP PUSH2 0x140 MLOAD ADD CALLDATALOAD CODESIZE PUSH2 0x6DB JUMP JUMPDEST DUP2 PUSH1 0x0 MSTORE PUSH1 0x20 PUSH1 0x0 KECCAK256 PUSH1 0x0 SWAP4 PUSH2 0x140 MLOAD SWAP1 JUMPDEST PUSH1 0x1F NOT DUP5 AND DUP7 LT PUSH2 0x89E JUMPI PUSH1 0x1 SWAP5 SWAP6 POP DUP4 PUSH1 0x1F NOT DUP2 AND LT PUSH2 0x884 JUMPI JUMPDEST POP POP POP DUP2 SHL ADD SWAP1 SSTORE PUSH2 0x6EF JUMP JUMPDEST ADD CALLDATALOAD PUSH1 0x0 NOT PUSH1 0x3 DUP5 SWAP1 SHL PUSH1 0xF8 AND SHR NOT AND SWAP1 SSTORE CODESIZE DUP1 DUP1 PUSH2 0x877 JUMP JUMPDEST SWAP2 PUSH1 0x20 PUSH1 0x1 DUP2 SWAP3 DUP6 DUP6 ADD CALLDATALOAD DUP2 SSTORE ADD SWAP4 ADD SWAP6 ADD SWAP5 PUSH2 0x85B JUMP JUMPDEST PUSH4 0x4E487B71 PUSH1 0xE0 SHL PUSH1 0x0 MSTORE PUSH1 0x41 PUSH1 0x4 MSTORE PUSH1 0x24 PUSH1 0x0 REVERT JUMPDEST PUSH4 0x4E487B71 PUSH1 0xE0 SHL PUSH1 0x0 MSTORE PUSH1 0x0 PUSH1 0x4 MSTORE PUSH1 0x24 PUSH1 0x0 REVERT JUMPDEST ADD MLOAD SWAP1 POP CODESIZE DUP1 PUSH2 0x657 JUMP JUMPDEST PUSH1 0x1F NOT DUP3 AND SWAP4 DUP4 PUSH1 0x0 MSTORE PUSH1 0x20 PUSH1 0x0 KECCAK256 SWAP2 PUSH1 0x0 JUMPDEST DUP7 DUP2 LT PUSH2 0x939 JUMPI POP DUP4 PUSH1 0x1 SWAP6 SWAP7 LT PUSH2 0x920 JUMPI JUMPDEST POP POP POP DUP2 SHL ADD SWAP1 SSTORE PUSH2 0x66C JUMP JUMPDEST ADD MLOAD PUSH1 0x0 NOT PUSH1 0xF8 DUP5 PUSH1 0x3 SHL AND SHR NOT AND SWAP1 SSTORE CODESIZE DUP1 DUP1 PUSH2 0x913 JUMP JUMPDEST SWAP2 SWAP3 PUSH1 0x20 PUSH1 0x1 DUP2 SWAP3 DUP7 DUP6 ADD MLOAD DUP2 SSTORE ADD SWAP5 ADD SWAP3 ADD PUSH2 0x900 JUMP JUMPDEST ADD MLOAD SWAP1 POP CODESIZE DUP1 PUSH2 0x5F8 JUMP JUMPDEST SWAP3 POP PUSH1 0x7 DUP5 ADD PUSH1 0x0 MSTORE PUSH1 0x20 PUSH1 0x0 KECCAK256 SWAP1 PUSH1 0x0 SWAP4 JUMPDEST PUSH1 0x1F NOT DUP5 AND DUP6 LT PUSH2 0x9B3 JUMPI PUSH1 0x1 SWAP5 POP DUP4 PUSH1 0x1F NOT DUP2 AND LT PUSH2 0x99A JUMPI JUMPDEST POP POP POP DUP2 SHL ADD PUSH1 0x7 DUP3 ADD SSTORE PUSH2 0x610 JUMP JUMPDEST ADD MLOAD PUSH1 0x0 NOT PUSH1 0xF8 DUP5 PUSH1 0x3 SHL AND SHR NOT AND SWAP1 SSTORE CODESIZE DUP1 DUP1 PUSH2 0x98A JUMP JUMPDEST DUP2 DUP2 ADD MLOAD DUP4 SSTORE PUSH1 0x20 SWAP5 DUP6 ADD SWAP5 PUSH1 0x1 SWAP1 SWAP4 ADD SWAP3 SWAP1 SWAP2 ADD SWAP1 PUSH2 0x96F JUMP JUMPDEST ADD MLOAD SWAP1 POP CODESIZE DUP1 PUSH2 0x595 JUMP JUMPDEST SWAP3 POP PUSH1 0x6 DUP5 ADD PUSH1 0x0 MSTORE PUSH1 0x20 PUSH1 0x0 KECCAK256 SWAP1 PUSH1 0x0 SWAP4 JUMPDEST PUSH1 0x1F NOT DUP5 AND DUP6 LT PUSH2 0xA30 JUMPI PUSH1 0x1 SWAP5 POP DUP4 PUSH1 0x1F NOT DUP2 AND LT PUSH2 0xA17 JUMPI JUMPDEST POP POP POP DUP2 SHL ADD PUSH1 0x6 DUP3 ADD SSTORE PUSH2 0x5AD JUMP JUMPDEST ADD MLOAD PUSH1 0x0 NOT PUSH1 0xF8 DUP5 PUSH1 0x3 SHL AND SHR NOT AND SWAP1 SSTORE CODESIZE DUP1 DUP1 PUSH2 0xA07 JUMP JUMPDEST DUP2 DUP2 ADD MLOAD DUP4 SSTORE PUSH1 0x20 SWAP5 DUP6 ADD SWAP5 PUSH1 0x1 SWAP1 SWAP4 ADD SWAP3 SWAP1 SWAP2 ADD SWAP1 PUSH2 0x9EC JUMP JUMPDEST ADD MLOAD SWAP1 POP CODESIZE DUP1 PUSH2 0x532 JUMP JUMPDEST SWAP3 POP PUSH1 0x5 DUP5 ADD PUSH1 0x0 MSTORE PUSH1 0x20 PUSH1 0x0 KECCAK256 SWAP1 PUSH1 0x0 SWAP4 JUMPDEST PUSH1 0x1F NOT DUP5 AND DUP6 LT PUSH2 0xAAD JUMPI PUSH1 0x1 SWAP5 POP DUP4 PUSH1 0x1F NOT DUP2 AND LT PUSH2 0xA94 JUMPI JUMPDEST POP POP POP DUP2 SHL ADD PUSH1 0x5 DUP3 ADD SSTORE PUSH2 0x54A JUMP JUMPDEST ADD MLOAD PUSH1 0x0 NOT PUSH1 0xF8 DUP5 PUSH1 0x3 SHL AND SHR NOT AND SWAP1 SSTORE CODESIZE DUP1 DUP1 PUSH2 0xA84 JUMP JUMPDEST DUP2 DUP2 ADD MLOAD DUP4 SSTORE PUSH1 0x20 SWAP5 DUP6 ADD SWAP5 PUSH1 0x1 SWAP1 SWAP4 ADD SWAP3 SWAP1 SWAP2 ADD SWAP1 PUSH2 0xA69 JUMP JUMPDEST ADD MLOAD SWAP1 POP CODESIZE DUP1 PUSH2 0x4CF JUMP JUMPDEST SWAP3 POP PUSH1 0x4 DUP5 ADD PUSH1 0x0 MSTORE PUSH1 0x20 PUSH1 0x0 KECCAK256 SWAP1 PUSH1 0x0 SWAP4 JUMPDEST PUSH1 0x1F NOT DUP5 AND DUP6 LT PUSH2 0xB2A JUMPI PUSH1 0x1 SWAP5 POP DUP4 PUSH1 0x1F NOT DUP2 AND LT PUSH2 0xB11 JUMPI JUMPDEST POP POP POP DUP2 SHL ADD PUSH1 0x4 DUP3 ADD SSTORE PUSH2 0x4E7 JUMP JUMPDEST ADD MLOAD PUSH1 0x0 NOT PUSH1 0xF8 DUP5 PUSH1 0x3 SHL AND SHR NOT AND SWAP1 SSTORE CODESIZE DUP1 DUP1 PUSH2 0xB01 JUMP JUMPDEST DUP2 DUP2 ADD MLOAD DUP4 SSTORE PUSH1 0x20 SWAP5 DUP6 ADD SWAP5 PUSH1 0x1 SWAP1 SWAP4 ADD SWAP3 SWAP1 SWAP2 ADD SWAP1 PUSH2 0xAE6 JUMP JUMPDEST ADD MLOAD SWAP1 POP CODESIZE DUP1 PUSH2 0x46C JUMP JUMPDEST SWAP3 POP PUSH1 0x3 DUP5 ADD PUSH1 0x0 MSTORE PUSH1 0x20 PUSH1 0x0 KECCAK256 SWAP1 PUSH1 0x0 SWAP4 JUMPDEST PUSH1 0x1F NOT DUP5 AND DUP6 LT PUSH2 0xBA7 JUMPI PUSH1 0x1 SWAP5 POP DUP4 PUSH1 0x1F NOT DUP2 AND LT PUSH2 0xB8E JUMPI JUMPDEST POP POP POP DUP2 SHL ADD PUSH1 0x3 DUP3 ADD SSTORE PUSH2 0x484 JUMP JUMPDEST ADD MLOAD PUSH1 0x0 NOT PUSH1 0xF8 DUP5 PUSH1 0x3 SHL AND SHR NOT AND SWAP1 SSTORE CODESIZE DUP1 DUP1 PUSH2 0xB7E JUMP JUMPDEST DUP2 DUP2 ADD MLOAD DUP4 SSTORE PUSH1 0x20 SWAP5 DUP6 ADD SWAP5 PUSH1 0x1 SWAP1 SWAP4 ADD SWAP3 SWAP1 SWAP2 ADD SWAP1 PUSH2 0xB63 JUMP JUMPDEST ADD MLOAD SWAP1 POP CODESIZE DUP1 PUSH2 0x40C JUMP JUMPDEST DUP3 PUSH1 0x0 MSTORE PUSH1 0x20 PUSH1 0x0 KECCAK256 SWAP1 PUSH1 0x0 PUSH1 0x1F NOT DUP5 AND SWAP1 JUMPDEST DUP2 DUP2 LT PUSH2 0xC1B JUMPI POP SWAP6 DUP4 PUSH1 0x1 SWAP6 SWAP7 SWAP8 LT PUSH2 0xC02 JUMPI JUMPDEST POP POP POP DUP2 SHL ADD SWAP1 SSTORE PUSH2 0x421 JUMP JUMPDEST ADD MLOAD PUSH1 0x0 NOT PUSH1 0xF8 DUP5 PUSH1 0x3 SHL AND SHR NOT AND SWAP1 SSTORE CODESIZE DUP1 DUP1 PUSH2 0xBF5 JUMP JUMPDEST SWAP2 SWAP3 PUSH1 0x20 PUSH1 0x1 DUP2 SWAP3 DUP7 DUP12 ADD MLOAD DUP2 SSTORE ADD SWAP5 ADD SWAP3 ADD PUSH2 0xBE0 JUMP JUMPDEST ADD MLOAD SWAP1 POP CODESIZE DUP1 PUSH2 0x3B2 JUMP JUMPDEST DUP3 PUSH1 0x0 MSTORE PUSH1 0x20 PUSH1 0x0 KECCAK256 SWAP1 PUSH1 0x0 PUSH1 0x1F NOT DUP5 AND SWAP1 JUMPDEST DUP2 DUP2 LT PUSH2 0xC8C JUMPI POP SWAP6 DUP4 PUSH1 0x1 SWAP6 SWAP7 SWAP8 LT PUSH2 0xC73 JUMPI JUMPDEST POP POP POP DUP2 SHL ADD SWAP1 SSTORE PUSH2 0x3C7 JUMP JUMPDEST ADD MLOAD PUSH1 0x0 NOT PUSH1 0xF8 DUP5 PUSH1 0x3 SHL AND SHR NOT AND SWAP1 SSTORE CODESIZE DUP1 DUP1 PUSH2 0xC66 JUMP JUMPDEST SWAP2 SWAP3 PUSH1 0x20 PUSH1 0x1 DUP2 SWAP3 DUP7 DUP12 ADD MLOAD DUP2 SSTORE ADD SWAP5 ADD SWAP3 ADD PUSH2 0xC51 JUMP JUMPDEST ADD MLOAD SWAP1 POP CODESIZE DUP1 PUSH2 0x358 JUMP JUMPDEST DUP3 PUSH1 0x0 MSTORE PUSH1 0x20 PUSH1 0x0 KECCAK256 SWAP1 PUSH1 0x0 SWAP5 PUSH1 0x1F NOT DUP5 AND SWAP6 JUMPDEST DUP7 DUP2 LT PUSH2 0xCFC JUMPI POP DUP4 PUSH1 0x1 SWAP6 SWAP7 LT PUSH2 0xCE3 JUMPI JUMPDEST POP POP POP DUP2 SHL ADD DUP2 SSTORE PUSH2 0x36D JUMP JUMPDEST ADD MLOAD PUSH1 0x0 NOT PUSH1 0xF8 DUP5 PUSH1 0x3 SHL AND SHR NOT AND SWAP1 SSTORE CODESIZE DUP1 DUP1 PUSH2 0xCD6 JUMP JUMPDEST SWAP2 SWAP3 PUSH1 0x20 PUSH1 0x1 DUP2 SWAP3 DUP7 DUP6 ADD MLOAD DUP2 SSTORE ADD SWAP5 ADD SWAP3 ADD PUSH2 0xCC3 JUMP JUMPDEST PUSH1 0x40 MLOAD PUSH3 0x461BCD PUSH1 0xE5 SHL DUP2 MSTORE PUSH1 0x20 PUSH1 0x4 DUP3 ADD MSTORE PUSH1 0xB PUSH1 0x24 DUP3 ADD MSTORE PUSH11 0x139BDD081CDD195DD85C99 PUSH1 0xAA SHL PUSH1 0x44 DUP3 ADD MSTORE PUSH1 0x64 SWAP1 REVERT JUMPDEST PUSH1 0x0 DUP1 REVERT JUMPDEST CALLVALUE PUSH2 0xD47 JUMPI PUSH1 0x20 CALLDATASIZE PUSH1 0x3 NOT ADD SLT PUSH2 0xD47 JUMPI PUSH1 0x4 CALLDATALOAD PUSH1 0x1 PUSH1 0x1 PUSH1 0x40 SHL SUB DUP2 GT PUSH2 0xD47 JUMPI CALLDATASIZE PUSH1 0x23 DUP3 ADD SLT ISZERO PUSH2 0xD47 JUMPI CALLDATASIZE DUP2 PUSH1 0x4 ADD CALLDATALOAD SWAP2 PUSH1 0x24 ADD SWAP2 PUSH2 0xD8D SWAP3 PUSH2 0x1343 JUMP JUMPDEST PUSH1 0x40 MLOAD DUP2 DUP2 DUP1 SWAP4 MLOAD PUSH1 0x20 DUP2 SWAP4 ADD SWAP2 PUSH2 0xDA4 SWAP3 PUSH2 0x12CE JUMP JUMPDEST DUP2 ADD PUSH1 0x1 DUP2 MSTORE SUB PUSH1 0x20 ADD SWAP1 KECCAK256 PUSH2 0xDB9 DUP2 PUSH2 0x1228 JUMP JUMPDEST PUSH2 0xDC5 PUSH1 0x1 DUP4 ADD PUSH2 0x1228 JUMP JUMPDEST SWAP2 PUSH2 0xDD2 PUSH1 0x2 DUP3 ADD PUSH2 0x1228 JUMP JUMPDEST SWAP1 PUSH2 0xDDF PUSH1 0x3 DUP3 ADD PUSH2 0x1228 JUMP JUMPDEST PUSH2 0xDEB PUSH1 0x4 DUP4 ADD PUSH2 0x1228 JUMP JUMPDEST PUSH2 0xDF7 PUSH1 0x5 DUP5 ADD PUSH2 0x1228 JUMP JUMPDEST SWAP1 PUSH2 0xE04 PUSH1 0x6 DUP6 ADD PUSH2 0x1228 JUMP JUMPDEST SWAP3 PUSH2 0xE11 PUSH1 0x7 DUP7 ADD PUSH2 0x1228 JUMP JUMPDEST SWAP5 PUSH1 0x8 ADD PUSH2 0xE1E SWAP1 PUSH2 0x1228 JUMP JUMPDEST SWAP6 PUSH1 0x40 MLOAD SWAP9 DUP10 SWAP9 PUSH2 0x120 DUP1 DUP12 MSTORE DUP11 ADD PUSH2 0xE36 SWAP2 PUSH2 0x12F1 JUMP JUMPDEST DUP10 DUP2 SUB PUSH1 0x20 DUP12 ADD MSTORE PUSH2 0xE47 SWAP2 PUSH2 0x12F1 JUMP JUMPDEST DUP9 DUP2 SUB PUSH1 0x40 DUP11 ADD MSTORE PUSH2 0xE58 SWAP2 PUSH2 0x12F1 JUMP JUMPDEST DUP8 DUP2 SUB PUSH1 0x60 DUP10 ADD MSTORE PUSH2 0xE69 SWAP2 PUSH2 0x12F1 JUMP JUMPDEST DUP7 DUP2 SUB PUSH1 0x80 DUP9 ADD MSTORE PUSH2 0xE7A SWAP2 PUSH2 0x12F1 JUMP JUMPDEST DUP6 DUP2 SUB PUSH1 0xA0 DUP8 ADD MSTORE PUSH2 0xE8B SWAP2 PUSH2 0x12F1 JUMP JUMPDEST DUP5 DUP2 SUB PUSH1 0xC0 DUP7 ADD MSTORE PUSH2 0xE9C SWAP2 PUSH2 0x12F1 JUMP JUMPDEST DUP4 DUP2 SUB PUSH1 0xE0 DUP6 ADD MSTORE PUSH2 0xEAD SWAP2 PUSH2 0x12F1 JUMP JUMPDEST DUP3 DUP2 SUB PUSH2 0x100 DUP5 ADD MSTORE PUSH2 0xEBF SWAP2 PUSH2 0x12F1 JUMP JUMPDEST SUB SWAP1 RETURN JUMPDEST CALLVALUE PUSH2 0xD47 JUMPI PUSH1 0x0 CALLDATASIZE PUSH1 0x3 NOT ADD SLT PUSH2 0xD47 JUMPI PUSH1 0x20 PUSH1 0x2 SLOAD PUSH1 0x40 MLOAD SWAP1 DUP2 MSTORE RETURN JUMPDEST CALLVALUE PUSH2 0xD47 JUMPI PUSH1 0x20 DUP1 PUSH1 0x3 NOT CALLDATASIZE ADD SLT PUSH2 0xD47 JUMPI PUSH1 0x4 CALLDATALOAD PUSH1 0x1 PUSH1 0x1 PUSH1 0x40 SHL SUB DUP2 GT PUSH2 0xD47 JUMPI PUSH2 0xF12 SWAP1 CALLDATASIZE SWAP1 PUSH1 0x4 ADD PUSH2 0x1316 JUMP JUMPDEST PUSH1 0x40 SWAP3 SWAP2 SWAP3 MLOAD SWAP1 PUSH2 0xF22 DUP3 PUSH2 0x11EB JUMP JUMPDEST DUP3 PUSH1 0x60 SWAP5 DUP6 DUP5 MSTORE DUP6 DUP3 DUP6 ADD MSTORE DUP6 PUSH1 0x40 DUP6 ADD MSTORE DUP6 DUP1 DUP6 ADD MSTORE DUP6 PUSH1 0x80 DUP6 ADD MSTORE DUP6 PUSH1 0xA0 DUP6 ADD MSTORE DUP6 PUSH1 0xC0 DUP6 ADD MSTORE DUP6 PUSH1 0xE0 DUP6 ADD MSTORE DUP6 PUSH2 0x100 DUP1 SWAP6 ADD MSTORE DUP3 PUSH1 0x40 MLOAD SWAP4 DUP5 SWAP3 DUP4 CALLDATACOPY DUP2 ADD PUSH1 0x1 DUP2 MSTORE SUB ADD SWAP1 KECCAK256 SWAP3 PUSH1 0x40 MLOAD SWAP3 PUSH2 0xF7A DUP5 PUSH2 0x11EB JUMP JUMPDEST PUSH2 0xF83 DUP6 PUSH2 0x1228 JUMP JUMPDEST DUP5 MSTORE PUSH2 0xF91 PUSH1 0x1 DUP7 ADD PUSH2 0x1228 JUMP JUMPDEST DUP5 DUP3 ADD SWAP1 DUP2 MSTORE SWAP3 PUSH2 0xFA4 PUSH1 0x2 DUP8 ADD PUSH2 0x1228 JUMP JUMPDEST PUSH1 0x40 DUP7 ADD SWAP1 DUP2 MSTORE SWAP6 PUSH2 0xFB8 PUSH1 0x3 DUP3 ADD PUSH2 0x1228 JUMP JUMPDEST DUP7 DUP6 ADD SWAP1 DUP2 MSTORE PUSH2 0xFCA PUSH1 0x4 DUP4 ADD PUSH2 0x1228 JUMP JUMPDEST PUSH1 0x80 DUP9 ADD SWAP1 DUP2 MSTORE PUSH2 0xFDD PUSH1 0x5 DUP5 ADD PUSH2 0x1228 JUMP JUMPDEST PUSH1 0xA0 DUP10 ADD SWAP1 DUP2 MSTORE SWAP1 PUSH2 0xFF1 PUSH1 0x6 DUP6 ADD PUSH2 0x1228 JUMP JUMPDEST PUSH1 0xC0 DUP11 ADD SWAP1 DUP2 MSTORE SWAP3 PUSH2 0x1005 PUSH1 0x7 DUP7 ADD PUSH2 0x1228 JUMP JUMPDEST SWAP5 PUSH1 0xE0 DUP12 ADD SWAP6 DUP7 MSTORE PUSH1 0x8 ADD PUSH2 0x1019 SWAP1 PUSH2 0x1228 JUMP JUMPDEST SWAP8 DUP7 DUP12 ADD SWAP9 DUP10 MSTORE PUSH1 0x40 MLOAD SWAP12 DUP13 SWAP12 DUP10 DUP14 MSTORE MLOAD DUP13 PUSH2 0x120 SWAP11 DUP12 SWAP2 ADD MSTORE PUSH2 0x140 DUP14 ADD PUSH2 0x1041 SWAP2 PUSH2 0x12F1 JUMP JUMPDEST SWAP11 MLOAD PUSH1 0x1F NOT DUP14 DUP14 SUB DUP2 ADD PUSH1 0x40 DUP16 ADD MSTORE SWAP12 PUSH2 0x105A SWAP2 PUSH2 0x12F1 JUMP JUMPDEST SWAP1 MLOAD SWAP2 DUP12 DUP14 DUP4 SUB ADD SWAP1 DUP14 ADD MSTORE PUSH2 0x106F SWAP2 PUSH2 0x12F1 JUMP JUMPDEST SWAP1 MLOAD SWAP1 DUP10 DUP12 DUP3 SUB ADD PUSH1 0x80 DUP13 ADD MSTORE PUSH2 0x1085 SWAP2 PUSH2 0x12F1 JUMP JUMPDEST SWAP1 MLOAD SWAP1 DUP9 DUP11 DUP3 SUB ADD PUSH1 0xA0 DUP12 ADD MSTORE PUSH2 0x109B SWAP2 PUSH2 0x12F1 JUMP JUMPDEST SWAP1 MLOAD SWAP1 DUP8 DUP10 DUP3 SUB ADD PUSH1 0xC0 DUP11 ADD MSTORE PUSH2 0x10B1 SWAP2 PUSH2 0x12F1 JUMP JUMPDEST SWAP1 MLOAD SWAP1 DUP7 DUP9 DUP3 SUB ADD PUSH1 0xE0 DUP10 ADD MSTORE PUSH2 0x10C7 SWAP2 PUSH2 0x12F1 JUMP JUMPDEST SWAP1 MLOAD SWAP2 DUP6 DUP8 DUP4 SUB ADD SWAP1 DUP8 ADD MSTORE PUSH2 0x10DC SWAP2 PUSH2 0x12F1 JUMP JUMPDEST SWAP2 MLOAD SWAP3 DUP5 DUP4 SUB ADD SWAP1 DUP5 ADD MSTORE PUSH2 0xEBF SWAP2 PUSH2 0x12F1 JUMP JUMPDEST CALLVALUE PUSH2 0xD47 JUMPI PUSH1 0x0 CALLDATASIZE PUSH1 0x3 NOT ADD SLT PUSH2 0xD47 JUMPI PUSH1 0x0 SLOAD PUSH1 0x40 MLOAD PUSH1 0x1 PUSH1 0x1 PUSH1 0xA0 SHL SUB SWAP1 SWAP2 AND DUP2 MSTORE PUSH1 0x20 SWAP1 RETURN JUMPDEST CALLVALUE PUSH2 0xD47 JUMPI PUSH1 0x20 CALLDATASIZE PUSH1 0x3 NOT ADD SLT PUSH2 0xD47 JUMPI PUSH1 0x4 CALLDATALOAD PUSH1 0x2 SLOAD DUP2 LT ISZERO PUSH2 0xD47 JUMPI PUSH2 0x1140 SWAP1 PUSH2 0x1164 JUMP JUMPDEST PUSH2 0x8CC JUMPI PUSH2 0x1150 PUSH2 0xEBF SWAP2 PUSH2 0x1228 JUMP JUMPDEST PUSH1 0x40 MLOAD SWAP2 DUP3 SWAP2 PUSH1 0x20 DUP4 MSTORE PUSH1 0x20 DUP4 ADD SWAP1 PUSH2 0x12F1 JUMP JUMPDEST PUSH1 0x2 SLOAD DUP2 LT ISZERO PUSH2 0x119B JUMPI PUSH1 0x2 PUSH1 0x0 MSTORE PUSH32 0x405787FA12A823E0F2B7631CC41B3BA8828B3321CA811111FA75CD3AA3BB5ACE ADD SWAP1 PUSH1 0x0 SWAP1 JUMP JUMPDEST PUSH4 0x4E487B71 PUSH1 0xE0 SHL PUSH1 0x0 MSTORE PUSH1 0x32 PUSH1 0x4 MSTORE PUSH1 0x24 PUSH1 0x0 REVERT JUMPDEST SWAP1 PUSH1 0x1 DUP3 DUP2 SHR SWAP3 AND DUP1 ISZERO PUSH2 0x11E1 JUMPI JUMPDEST PUSH1 0x20 DUP4 LT EQ PUSH2 0x11CB JUMPI JUMP JUMPDEST PUSH4 0x4E487B71 PUSH1 0xE0 SHL PUSH1 0x0 MSTORE PUSH1 0x22 PUSH1 0x4 MSTORE PUSH1 0x24 PUSH1 0x0 REVERT JUMPDEST SWAP2 PUSH1 0x7F AND SWAP2 PUSH2 0x11C0 JUMP JUMPDEST PUSH2 0x120 DUP2 ADD SWAP1 DUP2 LT PUSH1 0x1 PUSH1 0x1 PUSH1 0x40 SHL SUB DUP3 GT OR PUSH2 0x8B6 JUMPI PUSH1 0x40 MSTORE JUMP JUMPDEST SWAP1 PUSH1 0x1F DUP1 NOT SWAP2 ADD AND DUP2 ADD SWAP1 DUP2 LT PUSH1 0x1 PUSH1 0x1 PUSH1 0x40 SHL SUB DUP3 GT OR PUSH2 0x8B6 JUMPI PUSH1 0x40 MSTORE JUMP JUMPDEST SWAP1 PUSH1 0x40 MLOAD SWAP2 DUP3 PUSH1 0x0 DUP3 SLOAD SWAP3 PUSH2 0x123C DUP5 PUSH2 0x11B1 JUMP JUMPDEST SWAP1 DUP2 DUP5 MSTORE PUSH1 0x1 SWAP5 DUP6 DUP2 AND SWAP1 DUP2 PUSH1 0x0 EQ PUSH2 0x12AB JUMPI POP PUSH1 0x1 EQ PUSH2 0x1268 JUMPI JUMPDEST POP POP PUSH2 0x1266 SWAP3 POP SUB DUP4 PUSH2 0x1207 JUMP JUMPDEST JUMP JUMPDEST SWAP1 SWAP4 SWAP2 POP PUSH1 0x0 MSTORE PUSH1 0x20 SWAP1 DUP2 PUSH1 0x0 KECCAK256 SWAP4 PUSH1 0x0 SWAP2 JUMPDEST DUP2 DUP4 LT PUSH2 0x1293 JUMPI POP POP PUSH2 0x1266 SWAP4 POP DUP3 ADD ADD CODESIZE DUP1 PUSH2 0x1258 JUMP JUMPDEST DUP6 SLOAD DUP9 DUP5 ADD DUP6 ADD MSTORE SWAP5 DUP6 ADD SWAP5 DUP8 SWAP5 POP SWAP2 DUP4 ADD SWAP2 PUSH2 0x127B JUMP JUMPDEST SWAP2 POP POP PUSH2 0x1266 SWAP5 POP PUSH1 0x20 SWAP3 POP PUSH1 0xFF NOT AND DUP3 DUP5 ADD MSTORE ISZERO ISZERO PUSH1 0x5 SHL DUP3 ADD ADD CODESIZE DUP1 PUSH2 0x1258 JUMP JUMPDEST PUSH1 0x0 JUMPDEST DUP4 DUP2 LT PUSH2 0x12E1 JUMPI POP POP PUSH1 0x0 SWAP2 ADD MSTORE JUMP JUMPDEST DUP2 DUP2 ADD MLOAD DUP4 DUP3 ADD MSTORE PUSH1 0x20 ADD PUSH2 0x12D1 JUMP JUMPDEST SWAP1 PUSH1 0x20 SWAP2 PUSH2 0x130A DUP2 MLOAD DUP1 SWAP3 DUP2 DUP6 MSTORE DUP6 DUP1 DUP7 ADD SWAP2 ADD PUSH2 0x12CE JUMP JUMPDEST PUSH1 0x1F ADD PUSH1 0x1F NOT AND ADD ADD SWAP1 JUMP JUMPDEST SWAP2 DUP2 PUSH1 0x1F DUP5 ADD SLT ISZERO PUSH2 0xD47 JUMPI DUP3 CALLDATALOAD SWAP2 PUSH1 0x1 PUSH1 0x1 PUSH1 0x40 SHL SUB DUP4 GT PUSH2 0xD47 JUMPI PUSH1 0x20 DUP4 DUP2 DUP7 ADD SWAP6 ADD ADD GT PUSH2 0xD47 JUMPI JUMP JUMPDEST SWAP3 SWAP2 SWAP3 PUSH1 0x1 PUSH1 0x1 PUSH1 0x40 SHL SUB DUP3 GT PUSH2 0x8B6 JUMPI PUSH1 0x40 MLOAD SWAP2 PUSH2 0x136C PUSH1 0x1F DUP3 ADD PUSH1 0x1F NOT AND PUSH1 0x20 ADD DUP5 PUSH2 0x1207 JUMP JUMPDEST DUP3 SWAP5 DUP2 DUP5 MSTORE DUP2 DUP4 ADD GT PUSH2 0xD47 JUMPI DUP3 DUP2 PUSH1 0x20 SWAP4 DUP5 PUSH1 0x0 SWAP7 ADD CALLDATACOPY ADD ADD MSTORE JUMP JUMPDEST SWAP1 PUSH1 0x1F DUP2 GT PUSH2 0x1397 JUMPI POP POP POP JUMP JUMPDEST PUSH1 0x0 SWAP2 DUP3 MSTORE PUSH1 0x20 DUP3 KECCAK256 SWAP1 PUSH1 0x20 PUSH1 0x1F DUP6 ADD PUSH1 0x5 SHR DUP4 ADD SWAP5 LT PUSH2 0x13D3 JUMPI JUMPDEST PUSH1 0x1F ADD PUSH1 0x5 SHR ADD SWAP2 JUMPDEST DUP3 DUP2 LT PUSH2 0x13C8 JUMPI POP POP POP JUMP JUMPDEST DUP2 DUP2 SSTORE PUSH1 0x1 ADD PUSH2 0x13BC JUMP JUMPDEST SWAP1 SWAP3 POP DUP3 SWAP1 PUSH2 0x13B3 JUMP JUMPDEST SWAP1 DUP1 PUSH1 0x20 SWAP4 SWAP3 DUP2 DUP5 MSTORE DUP5 DUP5 ADD CALLDATACOPY PUSH1 0x0 DUP3 DUP3 ADD DUP5 ADD MSTORE PUSH1 0x1F ADD PUSH1 0x1F NOT AND ADD ADD SWAP1 JUMP INVALID LOG2 PUSH5 0x6970667358 0x22 SLT KECCAK256 MSIZE DUP3 0xC0 0xA7 TIMESTAMP CODESIZE SAR 0xCD CALLCODE 0xE PUSH16 0x9D74ABCF296294DBBB963116FDF36515 0xB1 PUSH32 0x151A1164736F6C63430008140033000000000000000000000000000000000000 "},"methodIdentifiers":{"codices(string)":"dbc21424","getCodex(string)":"83361522","inscribeCodex(string,string,string,string,string,string,string,string,string,string)":"f802a8de","keys(uint256)":"0cb6aaf1","steward()":"637eea19","totalCodices()":"c212d16b"}}}}}