{"contracts/manifest/TerrainPulseChant.sol":{"TerrainPulseChant":{"abi":[{"inputs":[],"stateMutability":"nonpayable","type":"constructor"},{"anonymous":false,"inputs":[{"indexed":false,"internalType":"string","name":"chant","type":"string"},{"indexed":false,"internalType":"string","name":"glyph","type":"string"},{"indexed":false,"internalType":"string","name":"sanctum","type":"string"},{"indexed":false,"internalType":"string","name":"pulse","type":"string"},{"indexed":false,"internalType":"string","name":"choreography","type":"string"}],"name":"PulseChantRouted","type":"event"},{"inputs":[{"internalType":"string","name":"chant","type":"string"}],"name":"getRoute","outputs":[{"internalType":"string","name":"","type":"string"},{"internalType":"string","name":"","type":"string"},{"internalType":"string","name":"","type":"string"},{"internalType":"string","name":"","type":"string"}],"stateMutability":"view","type":"function"},{"inputs":[{"internalType":"uint256","name":"","type":"uint256"}],"name":"keys","outputs":[{"internalType":"string","name":"","type":"string"}],"stateMutability":"view","type":"function"},{"inputs":[{"internalType":"string","name":"chant","type":"string"},{"internalType":"string","name":"glyph","type":"string"},{"internalType":"string","name":"sanctum","type":"string"},{"internalType":"string","name":"pulse","type":"string"},{"internalType":"string","name":"choreography","type":"string"}],"name":"routeChant","outputs":[],"stateMutability":"nonpayable","type":"function"},{"inputs":[{"internalType":"string","name":"","type":"string"}],"name":"routes","outputs":[{"internalType":"string","name":"chant","type":"string"},{"internalType":"string","name":"glyph","type":"string"},{"internalType":"string","name":"sanctum","type":"string"},{"internalType":"string","name":"pulse","type":"string"},{"internalType":"string","name":"choreography","type":"string"}],"stateMutability":"view","type":"function"},{"inputs":[],"name":"steward","outputs":[{"internalType":"address","name":"","type":"address"}],"stateMutability":"view","type":"function"},{"inputs":[],"name":"totalRoutes","outputs":[{"internalType":"uint256","name":"","type":"uint256"}],"stateMutability":"view","type":"function"}],"evm":{"bytecode":{"linkReferences":{},"object":"6080806040523461002857600080546001600160a01b03191633179055610cf1908161002e8239f35b600080fdfe608080604052600436101561001357600080fd5b60003560e01c90816305a2d3ac14610a07575080630cb6aaf1146109bc5780631b5f03a6146108c0578063300e4c991461018d578063637eea19146101645763cffbffb51461006157600080fd5b3461015f57602036600319011261015f576004356001600160401b03811161015f573660238201121561015f576100bd60206100aa610123933690602481600401359101610c00565b8160405193828580945193849201610b8b565b8101600181520301902061015b6100d382610ae5565b9161014d6100e360018301610ae5565b9161013f6100f360028301610ae5565b61013161010e600461010760038701610ae5565b9501610ae5565b95604051998a9960a08b5260a08b0190610bae565b9089820360208b0152610bae565b908782036040890152610bae565b908582036060870152610bae565b908382036080850152610bae565b0390f35b600080fd5b3461015f57600036600319011261015f576000546040516001600160a01b039091168152602090f35b3461015f5760a036600319011261015f576004356001600160401b03811161015f576101bd903690600401610bd3565b6024356001600160401b03811161015f576101dc903690600401610bd3565b906044356001600160401b03811161015f576101fc903690600401610bd3565b906064356001600160401b03811161015f5761021c903690600401610bd3565b9190926084356001600160401b03811161015f5761023e903690600401610bd3565b60005491979096916001600160a01b0316330361088d5760405161026181610aa9565b61026c368b8d610c00565b8152610279368385610c00565b6020820152610289368587610c00565b6040820152610299368789610c00565b60608201526102a936898b610c00565b60808201526040518a8c82376020818c810160018152030190209080518051906001600160401b0382116106015781906102ed826102e78754610a6f565b87610c46565b602090601f831160011461082157600092610816575b50508160011b916000199060031b1c19161782555b60208101518051906001600160401b03821161060157819061034a826103416001880154610a6f565b60018801610c46565b602090601f83116001146107a457600092610799575b50508160011b916000199060031b1c19161760018301555b60408101518051906001600160401b0382116106015781906103aa826103a16002880154610a6f565b60028801610c46565b602090601f83116001146107275760009261071c575b50508160011b916000199060031b1c19161760028301555b60608101518051906001600160401b03821161060157610408826103ff6003870154610a6f565b60038701610c46565b602090601f83116001146106a95760809392916000918361069e575b50508160011b916000199060031b1c19161760038401555b0151908151906001600160401b0382116106015760048291019261046a826104648654610a6f565b86610c46565b602090601f83116001146106385760009261062d575b50508160011b916000199060031b1c19161790555b60025468010000000000000000811015610601578060016104b99201600255610a22565b610617576001600160401b038a11610601576104df8a6104d98354610a6f565b83610c46565b896000601f821160011461059a5760009161058f575b508a60011b906000198c60031b1c19161790555b604051998a9960a08b5260a08b019061052192610c9a565b9089820360208b015261053392610c9a565b90878203604089015261054592610c9a565b90858203606087015261055792610c9a565b90838203608085015261056992610c9a565b037f486067dc51bb81f1852d215c14c5c26405f0f552fed824c78ae1c19dd74a0af491a1005b90508b01358c6104f5565b60008381526020812092505b8d601f198e1682106105e95750508b601f198116106105cf575b505060018a811b019055610509565b8c013560001960038d901b60f8161c191690558b806105c0565b600183946020939484930135815501930191016105a6565b634e487b7160e01b600052604160045260246000fd5b634e487b7160e01b600052600060045260246000fd5b015190508d80610480565b6000858152602081209350601f198516905b818110610686575090846001959493921061066d575b505050811b019055610495565b015160001960f88460031b161c191690558d8080610660565b9293602060018192878601518155019501930161064a565b015190508f80610424565b906003850160005260206000209160005b601f1985168110610704575091839160019360809695601f198116106106eb575b505050811b01600384015561043c565b015160001960f88460031b161c191690558f80806106db565b919260206001819286850151815501940192016106ba565b015190508e806103c0565b9250600285016000526020600020906000935b601f198416851061077e576001945083601f19811610610765575b505050811b0160028301556103d8565b015160001960f88460031b161c191690558e8080610755565b8181015183556020948501946001909301929091019061073a565b015190508e80610360565b9250600185016000526020600020906000935b601f19841685106107fb576001945083601f198116106107e2575b505050811b016001830155610378565b015160001960f88460031b161c191690558e80806107d2565b818101518355602094850194600190930192909101906107b7565b015190508e80610303565b9250846000526020600020906000935b601f1984168510610872576001945083601f19811610610859575b505050811b018255610318565b015160001960f88460031b161c191690558e808061084c565b81810151835560209485019460019093019290910190610831565b60405162461bcd60e51b815260206004820152600b60248201526a139bdd081cdd195dd85c9960aa1b6044820152606490fd5b3461015f57602036600319011261015f576004356001600160401b03811161015f5760206108f5610992923690600401610bd3565b91908260405193849283378101600181520301902061015b60806109ae6040519361091f85610aa9565b61092881610ae5565b85526109a061093960018301610ae5565b6020870190815261094c60028401610ae5565b9660408101978852610973600461096560038701610ae5565b956060840196875201610ae5565b9586910152519551915191604051978897608089526080890190610bae565b908782036020890152610bae565b908582036040870152610bae565b908382036060850152610bae565b3461015f57602036600319011261015f5760043560025481101561015f576109e390610a22565b610617576109f361015b91610ae5565b604051918291602083526020830190610bae565b3461015f57600036600319011261015f576020906002548152f35b600254811015610a595760026000527f405787fa12a823e0f2b7631cc41b3ba8828b3321ca811111fa75cd3aa3bb5ace0190600090565b634e487b7160e01b600052603260045260246000fd5b90600182811c92168015610a9f575b6020831014610a8957565b634e487b7160e01b600052602260045260246000fd5b91607f1691610a7e565b60a081019081106001600160401b0382111761060157604052565b90601f801991011681019081106001600160401b0382111761060157604052565b9060405191826000825492610af984610a6f565b908184526001948581169081600014610b685750600114610b25575b5050610b2392500383610ac4565b565b9093915060005260209081600020936000915b818310610b50575050610b2393508201013880610b15565b85548884018501529485019487945091830191610b38565b915050610b2394506020925060ff191682840152151560051b8201013880610b15565b60005b838110610b9e5750506000910152565b8181015183820152602001610b8e565b90602091610bc781518092818552858086019101610b8b565b601f01601f1916010190565b9181601f8401121561015f578235916001600160401b03831161015f576020838186019501011161015f57565b9291926001600160401b0382116106015760405191610c29601f8201601f191660200184610ac4565b82948184528183011161015f578281602093846000960137010152565b90601f8111610c5457505050565b600091825260208220906020601f850160051c83019410610c90575b601f0160051c01915b828110610c8557505050565b818155600101610c79565b9092508290610c70565b908060209392818452848401376000828201840152601f01601f191601019056fea2646970667358221220f5c4e0f33787466618554f6a440dcdcec3a3d6b1f6f334d42bdfd9557a805b7d64736f6c63430008140033","opcodes":"PUSH1 0x80 DUP1 PUSH1 0x40 MSTORE CALLVALUE PUSH2 0x28 JUMPI PUSH1 0x0 DUP1 SLOAD PUSH1 0x1 PUSH1 0x1 PUSH1 0xA0 SHL SUB NOT AND CALLER OR SWAP1 SSTORE PUSH2 0xCF1 SWAP1 DUP2 PUSH2 0x2E DUP3 CODECOPY RETURN JUMPDEST PUSH1 0x0 DUP1 REVERT INVALID PUSH1 0x80 DUP1 PUSH1 0x40 MSTORE PUSH1 0x4 CALLDATASIZE LT ISZERO PUSH2 0x13 JUMPI PUSH1 0x0 DUP1 REVERT JUMPDEST PUSH1 0x0 CALLDATALOAD PUSH1 0xE0 SHR SWAP1 DUP2 PUSH4 0x5A2D3AC EQ PUSH2 0xA07 JUMPI POP DUP1 PUSH4 0xCB6AAF1 EQ PUSH2 0x9BC JUMPI DUP1 PUSH4 0x1B5F03A6 EQ PUSH2 0x8C0 JUMPI DUP1 PUSH4 0x300E4C99 EQ PUSH2 0x18D JUMPI DUP1 PUSH4 0x637EEA19 EQ PUSH2 0x164 JUMPI PUSH4 0xCFFBFFB5 EQ PUSH2 0x61 JUMPI PUSH1 0x0 DUP1 REVERT JUMPDEST CALLVALUE PUSH2 0x15F JUMPI PUSH1 0x20 CALLDATASIZE PUSH1 0x3 NOT ADD SLT PUSH2 0x15F JUMPI PUSH1 0x4 CALLDATALOAD PUSH1 0x1 PUSH1 0x1 PUSH1 0x40 SHL SUB DUP2 GT PUSH2 0x15F JUMPI CALLDATASIZE PUSH1 0x23 DUP3 ADD SLT ISZERO PUSH2 0x15F JUMPI PUSH2 0xBD PUSH1 0x20 PUSH2 0xAA PUSH2 0x123 SWAP4 CALLDATASIZE SWAP1 PUSH1 0x24 DUP2 PUSH1 0x4 ADD CALLDATALOAD SWAP2 ADD PUSH2 0xC00 JUMP JUMPDEST DUP2 PUSH1 0x40 MLOAD SWAP4 DUP3 DUP6 DUP1 SWAP5 MLOAD SWAP4 DUP5 SWAP3 ADD PUSH2 0xB8B JUMP JUMPDEST DUP2 ADD PUSH1 0x1 DUP2 MSTORE SUB ADD SWAP1 KECCAK256 PUSH2 0x15B PUSH2 0xD3 DUP3 PUSH2 0xAE5 JUMP JUMPDEST SWAP2 PUSH2 0x14D PUSH2 0xE3 PUSH1 0x1 DUP4 ADD PUSH2 0xAE5 JUMP JUMPDEST SWAP2 PUSH2 0x13F PUSH2 0xF3 PUSH1 0x2 DUP4 ADD PUSH2 0xAE5 JUMP JUMPDEST PUSH2 0x131 PUSH2 0x10E PUSH1 0x4 PUSH2 0x107 PUSH1 0x3 DUP8 ADD PUSH2 0xAE5 JUMP JUMPDEST SWAP6 ADD PUSH2 0xAE5 JUMP JUMPDEST SWAP6 PUSH1 0x40 MLOAD SWAP10 DUP11 SWAP10 PUSH1 0xA0 DUP12 MSTORE PUSH1 0xA0 DUP12 ADD SWAP1 PUSH2 0xBAE JUMP JUMPDEST SWAP1 DUP10 DUP3 SUB PUSH1 0x20 DUP12 ADD MSTORE PUSH2 0xBAE JUMP JUMPDEST SWAP1 DUP8 DUP3 SUB PUSH1 0x40 DUP10 ADD MSTORE PUSH2 0xBAE JUMP JUMPDEST SWAP1 DUP6 DUP3 SUB PUSH1 0x60 DUP8 ADD MSTORE PUSH2 0xBAE JUMP JUMPDEST SWAP1 DUP4 DUP3 SUB PUSH1 0x80 DUP6 ADD MSTORE PUSH2 0xBAE JUMP JUMPDEST SUB SWAP1 RETURN JUMPDEST PUSH1 0x0 DUP1 REVERT JUMPDEST CALLVALUE PUSH2 0x15F JUMPI PUSH1 0x0 CALLDATASIZE PUSH1 0x3 NOT ADD SLT PUSH2 0x15F JUMPI PUSH1 0x0 SLOAD PUSH1 0x40 MLOAD PUSH1 0x1 PUSH1 0x1 PUSH1 0xA0 SHL SUB SWAP1 SWAP2 AND DUP2 MSTORE PUSH1 0x20 SWAP1 RETURN JUMPDEST CALLVALUE PUSH2 0x15F JUMPI PUSH1 0xA0 CALLDATASIZE PUSH1 0x3 NOT ADD SLT PUSH2 0x15F JUMPI PUSH1 0x4 CALLDATALOAD PUSH1 0x1 PUSH1 0x1 PUSH1 0x40 SHL SUB DUP2 GT PUSH2 0x15F JUMPI PUSH2 0x1BD SWAP1 CALLDATASIZE SWAP1 PUSH1 0x4 ADD PUSH2 0xBD3 JUMP JUMPDEST PUSH1 0x24 CALLDATALOAD PUSH1 0x1 PUSH1 0x1 PUSH1 0x40 SHL SUB DUP2 GT PUSH2 0x15F JUMPI PUSH2 0x1DC SWAP1 CALLDATASIZE SWAP1 PUSH1 0x4 ADD PUSH2 0xBD3 JUMP JUMPDEST SWAP1 PUSH1 0x44 CALLDATALOAD PUSH1 0x1 PUSH1 0x1 PUSH1 0x40 SHL SUB DUP2 GT PUSH2 0x15F JUMPI PUSH2 0x1FC SWAP1 CALLDATASIZE SWAP1 PUSH1 0x4 ADD PUSH2 0xBD3 JUMP JUMPDEST SWAP1 PUSH1 0x64 CALLDATALOAD PUSH1 0x1 PUSH1 0x1 PUSH1 0x40 SHL SUB DUP2 GT PUSH2 0x15F JUMPI PUSH2 0x21C SWAP1 CALLDATASIZE SWAP1 PUSH1 0x4 ADD PUSH2 0xBD3 JUMP JUMPDEST SWAP2 SWAP1 SWAP3 PUSH1 0x84 CALLDATALOAD PUSH1 0x1 PUSH1 0x1 PUSH1 0x40 SHL SUB DUP2 GT PUSH2 0x15F JUMPI PUSH2 0x23E SWAP1 CALLDATASIZE SWAP1 PUSH1 0x4 ADD PUSH2 0xBD3 JUMP JUMPDEST PUSH1 0x0 SLOAD SWAP2 SWAP8 SWAP1 SWAP7 SWAP2 PUSH1 0x1 PUSH1 0x1 PUSH1 0xA0 SHL SUB AND CALLER SUB PUSH2 0x88D JUMPI PUSH1 0x40 MLOAD PUSH2 0x261 DUP2 PUSH2 0xAA9 JUMP JUMPDEST PUSH2 0x26C CALLDATASIZE DUP12 DUP14 PUSH2 0xC00 JUMP JUMPDEST DUP2 MSTORE PUSH2 0x279 CALLDATASIZE DUP4 DUP6 PUSH2 0xC00 JUMP JUMPDEST PUSH1 0x20 DUP3 ADD MSTORE PUSH2 0x289 CALLDATASIZE DUP6 DUP8 PUSH2 0xC00 JUMP JUMPDEST PUSH1 0x40 DUP3 ADD MSTORE PUSH2 0x299 CALLDATASIZE DUP8 DUP10 PUSH2 0xC00 JUMP JUMPDEST PUSH1 0x60 DUP3 ADD MSTORE PUSH2 0x2A9 CALLDATASIZE DUP10 DUP12 PUSH2 0xC00 JUMP JUMPDEST PUSH1 0x80 DUP3 ADD MSTORE PUSH1 0x40 MLOAD DUP11 DUP13 DUP3 CALLDATACOPY PUSH1 0x20 DUP2 DUP13 DUP2 ADD PUSH1 0x1 DUP2 MSTORE SUB ADD SWAP1 KECCAK256 SWAP1 DUP1 MLOAD DUP1 MLOAD SWAP1 PUSH1 0x1 PUSH1 0x1 PUSH1 0x40 SHL SUB DUP3 GT PUSH2 0x601 JUMPI DUP2 SWAP1 PUSH2 0x2ED DUP3 PUSH2 0x2E7 DUP8 SLOAD PUSH2 0xA6F JUMP JUMPDEST DUP8 PUSH2 0xC46 JUMP JUMPDEST PUSH1 0x20 SWAP1 PUSH1 0x1F DUP4 GT PUSH1 0x1 EQ PUSH2 0x821 JUMPI PUSH1 0x0 SWAP3 PUSH2 0x816 JUMPI JUMPDEST POP POP DUP2 PUSH1 0x1 SHL SWAP2 PUSH1 0x0 NOT SWAP1 PUSH1 0x3 SHL SHR NOT AND OR DUP3 SSTORE JUMPDEST PUSH1 0x20 DUP2 ADD MLOAD DUP1 MLOAD SWAP1 PUSH1 0x1 PUSH1 0x1 PUSH1 0x40 SHL SUB DUP3 GT PUSH2 0x601 JUMPI DUP2 SWAP1 PUSH2 0x34A DUP3 PUSH2 0x341 PUSH1 0x1 DUP9 ADD SLOAD PUSH2 0xA6F JUMP JUMPDEST PUSH1 0x1 DUP9 ADD PUSH2 0xC46 JUMP JUMPDEST PUSH1 0x20 SWAP1 PUSH1 0x1F DUP4 GT PUSH1 0x1 EQ PUSH2 0x7A4 JUMPI PUSH1 0x0 SWAP3 PUSH2 0x799 JUMPI JUMPDEST POP POP DUP2 PUSH1 0x1 SHL SWAP2 PUSH1 0x0 NOT SWAP1 PUSH1 0x3 SHL SHR NOT AND OR PUSH1 0x1 DUP4 ADD SSTORE JUMPDEST PUSH1 0x40 DUP2 ADD MLOAD DUP1 MLOAD SWAP1 PUSH1 0x1 PUSH1 0x1 PUSH1 0x40 SHL SUB DUP3 GT PUSH2 0x601 JUMPI DUP2 SWAP1 PUSH2 0x3AA DUP3 PUSH2 0x3A1 PUSH1 0x2 DUP9 ADD SLOAD PUSH2 0xA6F JUMP JUMPDEST PUSH1 0x2 DUP9 ADD PUSH2 0xC46 JUMP JUMPDEST PUSH1 0x20 SWAP1 PUSH1 0x1F DUP4 GT PUSH1 0x1 EQ PUSH2 0x727 JUMPI PUSH1 0x0 SWAP3 PUSH2 0x71C JUMPI JUMPDEST POP POP DUP2 PUSH1 0x1 SHL SWAP2 PUSH1 0x0 NOT SWAP1 PUSH1 0x3 SHL SHR NOT AND OR PUSH1 0x2 DUP4 ADD SSTORE JUMPDEST PUSH1 0x60 DUP2 ADD MLOAD DUP1 MLOAD SWAP1 PUSH1 0x1 PUSH1 0x1 PUSH1 0x40 SHL SUB DUP3 GT PUSH2 0x601 JUMPI PUSH2 0x408 DUP3 PUSH2 0x3FF PUSH1 0x3 DUP8 ADD SLOAD PUSH2 0xA6F JUMP JUMPDEST PUSH1 0x3 DUP8 ADD PUSH2 0xC46 JUMP JUMPDEST PUSH1 0x20 SWAP1 PUSH1 0x1F DUP4 GT PUSH1 0x1 EQ PUSH2 0x6A9 JUMPI PUSH1 0x80 SWAP4 SWAP3 SWAP2 PUSH1 0x0 SWAP2 DUP4 PUSH2 0x69E JUMPI JUMPDEST POP POP DUP2 PUSH1 0x1 SHL SWAP2 PUSH1 0x0 NOT SWAP1 PUSH1 0x3 SHL SHR NOT AND OR PUSH1 0x3 DUP5 ADD SSTORE JUMPDEST ADD MLOAD SWAP1 DUP2 MLOAD SWAP1 PUSH1 0x1 PUSH1 0x1 PUSH1 0x40 SHL SUB DUP3 GT PUSH2 0x601 JUMPI PUSH1 0x4 DUP3 SWAP2 ADD SWAP3 PUSH2 0x46A DUP3 PUSH2 0x464 DUP7 SLOAD PUSH2 0xA6F JUMP JUMPDEST DUP7 PUSH2 0xC46 JUMP JUMPDEST PUSH1 0x20 SWAP1 PUSH1 0x1F DUP4 GT PUSH1 0x1 EQ PUSH2 0x638 JUMPI PUSH1 0x0 SWAP3 PUSH2 0x62D JUMPI JUMPDEST POP POP DUP2 PUSH1 0x1 SHL SWAP2 PUSH1 0x0 NOT SWAP1 PUSH1 0x3 SHL SHR NOT AND OR SWAP1 SSTORE JUMPDEST PUSH1 0x2 SLOAD PUSH9 0x10000000000000000 DUP2 LT ISZERO PUSH2 0x601 JUMPI DUP1 PUSH1 0x1 PUSH2 0x4B9 SWAP3 ADD PUSH1 0x2 SSTORE PUSH2 0xA22 JUMP JUMPDEST PUSH2 0x617 JUMPI PUSH1 0x1 PUSH1 0x1 PUSH1 0x40 SHL SUB DUP11 GT PUSH2 0x601 JUMPI PUSH2 0x4DF DUP11 PUSH2 0x4D9 DUP4 SLOAD PUSH2 0xA6F JUMP JUMPDEST DUP4 PUSH2 0xC46 JUMP JUMPDEST DUP10 PUSH1 0x0 PUSH1 0x1F DUP3 GT PUSH1 0x1 EQ PUSH2 0x59A JUMPI PUSH1 0x0 SWAP2 PUSH2 0x58F JUMPI JUMPDEST POP DUP11 PUSH1 0x1 SHL SWAP1 PUSH1 0x0 NOT DUP13 PUSH1 0x3 SHL SHR NOT AND OR SWAP1 SSTORE JUMPDEST PUSH1 0x40 MLOAD SWAP10 DUP11 SWAP10 PUSH1 0xA0 DUP12 MSTORE PUSH1 0xA0 DUP12 ADD SWAP1 PUSH2 0x521 SWAP3 PUSH2 0xC9A JUMP JUMPDEST SWAP1 DUP10 DUP3 SUB PUSH1 0x20 DUP12 ADD MSTORE PUSH2 0x533 SWAP3 PUSH2 0xC9A JUMP JUMPDEST SWAP1 DUP8 DUP3 SUB PUSH1 0x40 DUP10 ADD MSTORE PUSH2 0x545 SWAP3 PUSH2 0xC9A JUMP JUMPDEST SWAP1 DUP6 DUP3 SUB PUSH1 0x60 DUP8 ADD MSTORE PUSH2 0x557 SWAP3 PUSH2 0xC9A JUMP JUMPDEST SWAP1 DUP4 DUP3 SUB PUSH1 0x80 DUP6 ADD MSTORE PUSH2 0x569 SWAP3 PUSH2 0xC9A JUMP JUMPDEST SUB PUSH32 0x486067DC51BB81F1852D215C14C5C26405F0F552FED824C78AE1C19DD74A0AF4 SWAP2 LOG1 STOP JUMPDEST SWAP1 POP DUP12 ADD CALLDATALOAD DUP13 PUSH2 0x4F5 JUMP JUMPDEST PUSH1 0x0 DUP4 DUP2 MSTORE PUSH1 0x20 DUP2 KECCAK256 SWAP3 POP JUMPDEST DUP14 PUSH1 0x1F NOT DUP15 AND DUP3 LT PUSH2 0x5E9 JUMPI POP POP DUP12 PUSH1 0x1F NOT DUP2 AND LT PUSH2 0x5CF JUMPI JUMPDEST POP POP PUSH1 0x1 DUP11 DUP2 SHL ADD SWAP1 SSTORE PUSH2 0x509 JUMP JUMPDEST DUP13 ADD CALLDATALOAD PUSH1 0x0 NOT PUSH1 0x3 DUP14 SWAP1 SHL PUSH1 0xF8 AND SHR NOT AND SWAP1 SSTORE DUP12 DUP1 PUSH2 0x5C0 JUMP JUMPDEST PUSH1 0x1 DUP4 SWAP5 PUSH1 0x20 SWAP4 SWAP5 DUP5 SWAP4 ADD CALLDATALOAD DUP2 SSTORE ADD SWAP4 ADD SWAP2 ADD PUSH2 0x5A6 JUMP JUMPDEST PUSH4 0x4E487B71 PUSH1 0xE0 SHL PUSH1 0x0 MSTORE PUSH1 0x41 PUSH1 0x4 MSTORE PUSH1 0x24 PUSH1 0x0 REVERT JUMPDEST PUSH4 0x4E487B71 PUSH1 0xE0 SHL PUSH1 0x0 MSTORE PUSH1 0x0 PUSH1 0x4 MSTORE PUSH1 0x24 PUSH1 0x0 REVERT JUMPDEST ADD MLOAD SWAP1 POP DUP14 DUP1 PUSH2 0x480 JUMP JUMPDEST PUSH1 0x0 DUP6 DUP2 MSTORE PUSH1 0x20 DUP2 KECCAK256 SWAP4 POP PUSH1 0x1F NOT DUP6 AND SWAP1 JUMPDEST DUP2 DUP2 LT PUSH2 0x686 JUMPI POP SWAP1 DUP5 PUSH1 0x1 SWAP6 SWAP5 SWAP4 SWAP3 LT PUSH2 0x66D JUMPI JUMPDEST POP POP POP DUP2 SHL ADD SWAP1 SSTORE PUSH2 0x495 JUMP JUMPDEST ADD MLOAD PUSH1 0x0 NOT PUSH1 0xF8 DUP5 PUSH1 0x3 SHL AND SHR NOT AND SWAP1 SSTORE DUP14 DUP1 DUP1 PUSH2 0x660 JUMP JUMPDEST SWAP3 SWAP4 PUSH1 0x20 PUSH1 0x1 DUP2 SWAP3 DUP8 DUP7 ADD MLOAD DUP2 SSTORE ADD SWAP6 ADD SWAP4 ADD PUSH2 0x64A JUMP JUMPDEST ADD MLOAD SWAP1 POP DUP16 DUP1 PUSH2 0x424 JUMP JUMPDEST SWAP1 PUSH1 0x3 DUP6 ADD PUSH1 0x0 MSTORE PUSH1 0x20 PUSH1 0x0 KECCAK256 SWAP2 PUSH1 0x0 JUMPDEST PUSH1 0x1F NOT DUP6 AND DUP2 LT PUSH2 0x704 JUMPI POP SWAP2 DUP4 SWAP2 PUSH1 0x1 SWAP4 PUSH1 0x80 SWAP7 SWAP6 PUSH1 0x1F NOT DUP2 AND LT PUSH2 0x6EB JUMPI JUMPDEST POP POP POP DUP2 SHL ADD PUSH1 0x3 DUP5 ADD SSTORE PUSH2 0x43C JUMP JUMPDEST ADD MLOAD PUSH1 0x0 NOT PUSH1 0xF8 DUP5 PUSH1 0x3 SHL AND SHR NOT AND SWAP1 SSTORE DUP16 DUP1 DUP1 PUSH2 0x6DB JUMP JUMPDEST SWAP2 SWAP3 PUSH1 0x20 PUSH1 0x1 DUP2 SWAP3 DUP7 DUP6 ADD MLOAD DUP2 SSTORE ADD SWAP5 ADD SWAP3 ADD PUSH2 0x6BA JUMP JUMPDEST ADD MLOAD SWAP1 POP DUP15 DUP1 PUSH2 0x3C0 JUMP JUMPDEST SWAP3 POP PUSH1 0x2 DUP6 ADD PUSH1 0x0 MSTORE PUSH1 0x20 PUSH1 0x0 KECCAK256 SWAP1 PUSH1 0x0 SWAP4 JUMPDEST PUSH1 0x1F NOT DUP5 AND DUP6 LT PUSH2 0x77E JUMPI PUSH1 0x1 SWAP5 POP DUP4 PUSH1 0x1F NOT DUP2 AND LT PUSH2 0x765 JUMPI JUMPDEST POP POP POP DUP2 SHL ADD PUSH1 0x2 DUP4 ADD SSTORE PUSH2 0x3D8 JUMP JUMPDEST ADD MLOAD PUSH1 0x0 NOT PUSH1 0xF8 DUP5 PUSH1 0x3 SHL AND SHR NOT AND SWAP1 SSTORE DUP15 DUP1 DUP1 PUSH2 0x755 JUMP JUMPDEST DUP2 DUP2 ADD MLOAD DUP4 SSTORE PUSH1 0x20 SWAP5 DUP6 ADD SWAP5 PUSH1 0x1 SWAP1 SWAP4 ADD SWAP3 SWAP1 SWAP2 ADD SWAP1 PUSH2 0x73A JUMP JUMPDEST ADD MLOAD SWAP1 POP DUP15 DUP1 PUSH2 0x360 JUMP JUMPDEST SWAP3 POP PUSH1 0x1 DUP6 ADD PUSH1 0x0 MSTORE PUSH1 0x20 PUSH1 0x0 KECCAK256 SWAP1 PUSH1 0x0 SWAP4 JUMPDEST PUSH1 0x1F NOT DUP5 AND DUP6 LT PUSH2 0x7FB JUMPI PUSH1 0x1 SWAP5 POP DUP4 PUSH1 0x1F NOT DUP2 AND LT PUSH2 0x7E2 JUMPI JUMPDEST POP POP POP DUP2 SHL ADD PUSH1 0x1 DUP4 ADD SSTORE PUSH2 0x378 JUMP JUMPDEST ADD MLOAD PUSH1 0x0 NOT PUSH1 0xF8 DUP5 PUSH1 0x3 SHL AND SHR NOT AND SWAP1 SSTORE DUP15 DUP1 DUP1 PUSH2 0x7D2 JUMP JUMPDEST DUP2 DUP2 ADD MLOAD DUP4 SSTORE PUSH1 0x20 SWAP5 DUP6 ADD SWAP5 PUSH1 0x1 SWAP1 SWAP4 ADD SWAP3 SWAP1 SWAP2 ADD SWAP1 PUSH2 0x7B7 JUMP JUMPDEST ADD MLOAD SWAP1 POP DUP15 DUP1 PUSH2 0x303 JUMP JUMPDEST SWAP3 POP DUP5 PUSH1 0x0 MSTORE PUSH1 0x20 PUSH1 0x0 KECCAK256 SWAP1 PUSH1 0x0 SWAP4 JUMPDEST PUSH1 0x1F NOT DUP5 AND DUP6 LT PUSH2 0x872 JUMPI PUSH1 0x1 SWAP5 POP DUP4 PUSH1 0x1F NOT DUP2 AND LT PUSH2 0x859 JUMPI JUMPDEST POP POP POP DUP2 SHL ADD DUP3 SSTORE PUSH2 0x318 JUMP JUMPDEST ADD MLOAD PUSH1 0x0 NOT PUSH1 0xF8 DUP5 PUSH1 0x3 SHL AND SHR NOT AND SWAP1 SSTORE DUP15 DUP1 DUP1 PUSH2 0x84C JUMP JUMPDEST DUP2 DUP2 ADD MLOAD DUP4 SSTORE PUSH1 0x20 SWAP5 DUP6 ADD SWAP5 PUSH1 0x1 SWAP1 SWAP4 ADD SWAP3 SWAP1 SWAP2 ADD SWAP1 PUSH2 0x831 JUMP JUMPDEST PUSH1 0x40 MLOAD PUSH3 0x461BCD PUSH1 0xE5 SHL DUP2 MSTORE PUSH1 0x20 PUSH1 0x4 DUP3 ADD MSTORE PUSH1 0xB PUSH1 0x24 DUP3 ADD MSTORE PUSH11 0x139BDD081CDD195DD85C99 PUSH1 0xAA SHL PUSH1 0x44 DUP3 ADD MSTORE PUSH1 0x64 SWAP1 REVERT JUMPDEST CALLVALUE PUSH2 0x15F JUMPI PUSH1 0x20 CALLDATASIZE PUSH1 0x3 NOT ADD SLT PUSH2 0x15F JUMPI PUSH1 0x4 CALLDATALOAD PUSH1 0x1 PUSH1 0x1 PUSH1 0x40 SHL SUB DUP2 GT PUSH2 0x15F JUMPI PUSH1 0x20 PUSH2 0x8F5 PUSH2 0x992 SWAP3 CALLDATASIZE SWAP1 PUSH1 0x4 ADD PUSH2 0xBD3 JUMP JUMPDEST SWAP2 SWAP1 DUP3 PUSH1 0x40 MLOAD SWAP4 DUP5 SWAP3 DUP4 CALLDATACOPY DUP2 ADD PUSH1 0x1 DUP2 MSTORE SUB ADD SWAP1 KECCAK256 PUSH2 0x15B PUSH1 0x80 PUSH2 0x9AE PUSH1 0x40 MLOAD SWAP4 PUSH2 0x91F DUP6 PUSH2 0xAA9 JUMP JUMPDEST PUSH2 0x928 DUP2 PUSH2 0xAE5 JUMP JUMPDEST DUP6 MSTORE PUSH2 0x9A0 PUSH2 0x939 PUSH1 0x1 DUP4 ADD PUSH2 0xAE5 JUMP JUMPDEST PUSH1 0x20 DUP8 ADD SWAP1 DUP2 MSTORE PUSH2 0x94C PUSH1 0x2 DUP5 ADD PUSH2 0xAE5 JUMP JUMPDEST SWAP7 PUSH1 0x40 DUP2 ADD SWAP8 DUP9 MSTORE PUSH2 0x973 PUSH1 0x4 PUSH2 0x965 PUSH1 0x3 DUP8 ADD PUSH2 0xAE5 JUMP JUMPDEST SWAP6 PUSH1 0x60 DUP5 ADD SWAP7 DUP8 MSTORE ADD PUSH2 0xAE5 JUMP JUMPDEST SWAP6 DUP7 SWAP2 ADD MSTORE MLOAD SWAP6 MLOAD SWAP2 MLOAD SWAP2 PUSH1 0x40 MLOAD SWAP8 DUP9 SWAP8 PUSH1 0x80 DUP10 MSTORE PUSH1 0x80 DUP10 ADD SWAP1 PUSH2 0xBAE JUMP JUMPDEST SWAP1 DUP8 DUP3 SUB PUSH1 0x20 DUP10 ADD MSTORE PUSH2 0xBAE JUMP JUMPDEST SWAP1 DUP6 DUP3 SUB PUSH1 0x40 DUP8 ADD MSTORE PUSH2 0xBAE JUMP JUMPDEST SWAP1 DUP4 DUP3 SUB PUSH1 0x60 DUP6 ADD MSTORE PUSH2 0xBAE JUMP JUMPDEST CALLVALUE PUSH2 0x15F JUMPI PUSH1 0x20 CALLDATASIZE PUSH1 0x3 NOT ADD SLT PUSH2 0x15F JUMPI PUSH1 0x4 CALLDATALOAD PUSH1 0x2 SLOAD DUP2 LT ISZERO PUSH2 0x15F JUMPI PUSH2 0x9E3 SWAP1 PUSH2 0xA22 JUMP JUMPDEST PUSH2 0x617 JUMPI PUSH2 0x9F3 PUSH2 0x15B SWAP2 PUSH2 0xAE5 JUMP JUMPDEST PUSH1 0x40 MLOAD SWAP2 DUP3 SWAP2 PUSH1 0x20 DUP4 MSTORE PUSH1 0x20 DUP4 ADD SWAP1 PUSH2 0xBAE JUMP JUMPDEST CALLVALUE PUSH2 0x15F JUMPI PUSH1 0x0 CALLDATASIZE PUSH1 0x3 NOT ADD SLT PUSH2 0x15F JUMPI PUSH1 0x20 SWAP1 PUSH1 0x2 SLOAD DUP2 MSTORE RETURN JUMPDEST PUSH1 0x2 SLOAD DUP2 LT ISZERO PUSH2 0xA59 JUMPI PUSH1 0x2 PUSH1 0x0 MSTORE PUSH32 0x405787FA12A823E0F2B7631CC41B3BA8828B3321CA811111FA75CD3AA3BB5ACE ADD SWAP1 PUSH1 0x0 SWAP1 JUMP JUMPDEST PUSH4 0x4E487B71 PUSH1 0xE0 SHL PUSH1 0x0 MSTORE PUSH1 0x32 PUSH1 0x4 MSTORE PUSH1 0x24 PUSH1 0x0 REVERT JUMPDEST SWAP1 PUSH1 0x1 DUP3 DUP2 SHR SWAP3 AND DUP1 ISZERO PUSH2 0xA9F JUMPI JUMPDEST PUSH1 0x20 DUP4 LT EQ PUSH2 0xA89 JUMPI JUMP JUMPDEST PUSH4 0x4E487B71 PUSH1 0xE0 SHL PUSH1 0x0 MSTORE PUSH1 0x22 PUSH1 0x4 MSTORE PUSH1 0x24 PUSH1 0x0 REVERT JUMPDEST SWAP2 PUSH1 0x7F AND SWAP2 PUSH2 0xA7E JUMP JUMPDEST PUSH1 0xA0 DUP2 ADD SWAP1 DUP2 LT PUSH1 0x1 PUSH1 0x1 PUSH1 0x40 SHL SUB DUP3 GT OR PUSH2 0x601 JUMPI PUSH1 0x40 MSTORE JUMP JUMPDEST SWAP1 PUSH1 0x1F DUP1 NOT SWAP2 ADD AND DUP2 ADD SWAP1 DUP2 LT PUSH1 0x1 PUSH1 0x1 PUSH1 0x40 SHL SUB DUP3 GT OR PUSH2 0x601 JUMPI PUSH1 0x40 MSTORE JUMP JUMPDEST SWAP1 PUSH1 0x40 MLOAD SWAP2 DUP3 PUSH1 0x0 DUP3 SLOAD SWAP3 PUSH2 0xAF9 DUP5 PUSH2 0xA6F JUMP JUMPDEST SWAP1 DUP2 DUP5 MSTORE PUSH1 0x1 SWAP5 DUP6 DUP2 AND SWAP1 DUP2 PUSH1 0x0 EQ PUSH2 0xB68 JUMPI POP PUSH1 0x1 EQ PUSH2 0xB25 JUMPI JUMPDEST POP POP PUSH2 0xB23 SWAP3 POP SUB DUP4 PUSH2 0xAC4 JUMP JUMPDEST JUMP JUMPDEST SWAP1 SWAP4 SWAP2 POP PUSH1 0x0 MSTORE PUSH1 0x20 SWAP1 DUP2 PUSH1 0x0 KECCAK256 SWAP4 PUSH1 0x0 SWAP2 JUMPDEST DUP2 DUP4 LT PUSH2 0xB50 JUMPI POP POP PUSH2 0xB23 SWAP4 POP DUP3 ADD ADD CODESIZE DUP1 PUSH2 0xB15 JUMP JUMPDEST DUP6 SLOAD DUP9 DUP5 ADD DUP6 ADD MSTORE SWAP5 DUP6 ADD SWAP5 DUP8 SWAP5 POP SWAP2 DUP4 ADD SWAP2 PUSH2 0xB38 JUMP JUMPDEST SWAP2 POP POP PUSH2 0xB23 SWAP5 POP PUSH1 0x20 SWAP3 POP PUSH1 0xFF NOT AND DUP3 DUP5 ADD MSTORE ISZERO ISZERO PUSH1 0x5 SHL DUP3 ADD ADD CODESIZE DUP1 PUSH2 0xB15 JUMP JUMPDEST PUSH1 0x0 JUMPDEST DUP4 DUP2 LT PUSH2 0xB9E JUMPI POP POP PUSH1 0x0 SWAP2 ADD MSTORE JUMP JUMPDEST DUP2 DUP2 ADD MLOAD DUP4 DUP3 ADD MSTORE PUSH1 0x20 ADD PUSH2 0xB8E JUMP JUMPDEST SWAP1 PUSH1 0x20 SWAP2 PUSH2 0xBC7 DUP2 MLOAD DUP1 SWAP3 DUP2 DUP6 MSTORE DUP6 DUP1 DUP7 ADD SWAP2 ADD PUSH2 0xB8B JUMP JUMPDEST PUSH1 0x1F ADD PUSH1 0x1F NOT AND ADD ADD SWAP1 JUMP JUMPDEST SWAP2 DUP2 PUSH1 0x1F DUP5 ADD SLT ISZERO PUSH2 0x15F JUMPI DUP3 CALLDATALOAD SWAP2 PUSH1 0x1 PUSH1 0x1 PUSH1 0x40 SHL SUB DUP4 GT PUSH2 0x15F JUMPI PUSH1 0x20 DUP4 DUP2 DUP7 ADD SWAP6 ADD ADD GT PUSH2 0x15F JUMPI JUMP JUMPDEST SWAP3 SWAP2 SWAP3 PUSH1 0x1 PUSH1 0x1 PUSH1 0x40 SHL SUB DUP3 GT PUSH2 0x601 JUMPI PUSH1 0x40 MLOAD SWAP2 PUSH2 0xC29 PUSH1 0x1F DUP3 ADD PUSH1 0x1F NOT AND PUSH1 0x20 ADD DUP5 PUSH2 0xAC4 JUMP JUMPDEST DUP3 SWAP5 DUP2 DUP5 MSTORE DUP2 DUP4 ADD GT PUSH2 0x15F JUMPI DUP3 DUP2 PUSH1 0x20 SWAP4 DUP5 PUSH1 0x0 SWAP7 ADD CALLDATACOPY ADD ADD MSTORE JUMP JUMPDEST SWAP1 PUSH1 0x1F DUP2 GT PUSH2 0xC54 JUMPI POP POP POP JUMP JUMPDEST PUSH1 0x0 SWAP2 DUP3 MSTORE PUSH1 0x20 DUP3 KECCAK256 SWAP1 PUSH1 0x20 PUSH1 0x1F DUP6 ADD PUSH1 0x5 SHR DUP4 ADD SWAP5 LT PUSH2 0xC90 JUMPI JUMPDEST PUSH1 0x1F ADD PUSH1 0x5 SHR ADD SWAP2 JUMPDEST DUP3 DUP2 LT PUSH2 0xC85 JUMPI POP POP POP JUMP JUMPDEST DUP2 DUP2 SSTORE PUSH1 0x1 ADD PUSH2 0xC79 JUMP JUMPDEST SWAP1 SWAP3 POP DUP3 SWAP1 PUSH2 0xC70 JUMP JUMPDEST SWAP1 DUP1 PUSH1 0x20 SWAP4 SWAP3 DUP2 DUP5 MSTORE DUP5 DUP5 ADD CALLDATACOPY PUSH1 0x0 DUP3 DUP3 ADD DUP5 ADD MSTORE PUSH1 0x1F ADD PUSH1 0x1F NOT AND ADD ADD SWAP1 JUMP INVALID LOG2 PUSH5 0x6970667358 0x22 SLT KECCAK256 CREATE2 0xC4 0xE0 RETURN CALLDATACOPY DUP8 CHAINID PUSH7 0x18554F6A440DCD 0xCE 0xC3 LOG3 0xD6 0xB1 0xF6 RETURN CALLVALUE 0xD4 0x2B 0xDF 0xD9 SSTORE PUSH27 0x805B7D64736F6C6343000814003300000000000000000000000000 "},"methodIdentifiers":{"getRoute(string)":"1b5f03a6","keys(uint256)":"0cb6aaf1","routeChant(string,string,string,string,string)":"300e4c99","routes(string)":"cffbffb5","steward()":"637eea19","totalRoutes()":"05a2d3ac"}}}}}