{"contracts/GenesischainCodexC-CD.sol":{"GenesischainCodexCtoCD":{"abi":[{"inputs":[{"internalType":"address","name":"_steward","type":"address"},{"internalType":"address","name":"_glyphToken","type":"address"}],"stateMutability":"nonpayable","type":"constructor"},{"anonymous":false,"inputs":[{"indexed":true,"internalType":"address","name":"by","type":"address"},{"indexed":false,"internalType":"string","name":"invocation","type":"string"}],"name":"CodexInvoked","type":"event"},{"inputs":[],"name":"codexName","outputs":[{"internalType":"string","name":"","type":"string"}],"stateMutability":"view","type":"function"},{"inputs":[],"name":"getCodexMetadata","outputs":[{"internalType":"string","name":"","type":"string"},{"internalType":"address","name":"","type":"address"},{"internalType":"address","name":"","type":"address"}],"stateMutability":"view","type":"function"},{"inputs":[],"name":"glyphToken","outputs":[{"internalType":"address","name":"","type":"address"}],"stateMutability":"view","type":"function"},{"inputs":[{"internalType":"string","name":"invocation","type":"string"}],"name":"invokeCodex","outputs":[],"stateMutability":"nonpayable","type":"function"},{"inputs":[],"name":"steward","outputs":[{"internalType":"address","name":"","type":"address"}],"stateMutability":"view","type":"function"},{"inputs":[{"internalType":"address","name":"newGlyphToken","type":"address"}],"name":"updateGlyphToken","outputs":[],"stateMutability":"nonpayable","type":"function"}],"evm":{"bytecode":{"linkReferences":{},"object":"60803461012157601f6105ec38819003918201601f19168301916001600160401b0383118484101761012657808492604094855283398101031261012157610052602061004b8361013c565b920161013c565b6000908154916001928381811c91168015610117575b602082101461010357601f81116100d7575b507f47656e65736973636861696e20436f64657820432d434400000000000000002e905581546001600160a01b039384166001600160a01b0319918216179092556002805491909316911617905560405161049b90816101518239f35b81805283601f60208420920160051c8201915b8281106100f857505061007a565b8381550184906100ea565b634e487b7160e01b82526022600452602482fd5b90607f1690610068565b600080fd5b634e487b7160e01b600052604160045260246000fd5b51906001600160a01b03821682036101215756fe608060408181526004918236101561001657600080fd5b600092833560e01c918263055c5853146102655750816331e120d61461023057816334d94ccc146102075781635e6076f3146100e457508063637eea19146100bc5763c034fe491461006757600080fd5b346100b857816003193601126100b8576001546002546100ab92916001600160a01b03908116911661009761033e565b928051948594606086526060860190610425565b9260208501528301520390f35b5080fd5b50346100b857816003193601126100b85760015490516001600160a01b039091168152602090f35b9050346101e857602091826003193601126102035767ffffffffffffffff9180358381116101ff57366023820112156101ff57808201359384116101ec57859083519461013a87601f19601f8401160187610306565b80865236602482840101116101e85780602488930183880137850101526001546001600160a01b031633036101a757507f141a9969b98583375bfd313bc77ce73145193fcc585c81ce62334e22056a136c916101a191519182918583523395830190610425565b0390a280f35b83606492519162461bcd60e51b8352820152601d60248201527f4f6e6c792073746577617264206d617920696e766f6b6520436f6465780000006044820152fd5b8280fd5b634e487b7160e01b865260418252602486fd5b8580fd5b8380fd5b5050346100b857816003193601126100b85760025490516001600160a01b039091168152602090f35b5050346100b857816003193601126100b8576102619061024e61033e565b9051918291602083526020830190610425565b0390f35b849250346101e85760203660031901126101e85781356001600160a01b038181169391849003610302576001541633036102b65750506bffffffffffffffffffffffff60a01b600254161760025580f35b62461bcd60e51b8252602090820152602260248201527f4f6e6c792073746577617264206d61792075706461746520676c797068546f6b60448201526132b760f11b6064820152608490fd5b8480fd5b90601f8019910116810190811067ffffffffffffffff82111761032857604052565b634e487b7160e01b600052604160045260246000fd5b604051906000805490600182811c9080841693841561041b575b602094858410811461040757838852879493929181156103e7575060011461038b575b505061038992500383610306565b565b60008080527f290decd9548b62a8d60345a988386fc84ba6bc95484008f6362f93160ef3e56395935091905b8183106103cf5750506103899350820101388061037b565b855488840185015294850194879450918301916103b7565b91505061038994925060ff191682840152151560051b820101388061037b565b634e487b7160e01b85526022600452602485fd5b91607f1691610358565b919082519283825260005b848110610451575050826000602080949584010152601f8019910116010190565b60208183018101518483018201520161043056fea26469706673582212200ed4cd2eb7125a7fdd851dc645fa4e7c8975c24378e41f0b8dbbc081b83261bf64736f6c63430008140033","opcodes":"PUSH1 0x80 CALLVALUE PUSH2 0x121 JUMPI PUSH1 0x1F PUSH2 0x5EC CODESIZE DUP2 SWAP1 SUB SWAP2 DUP3 ADD PUSH1 0x1F NOT AND DUP4 ADD SWAP2 PUSH1 0x1 PUSH1 0x1 PUSH1 0x40 SHL SUB DUP4 GT DUP5 DUP5 LT OR PUSH2 0x126 JUMPI DUP1 DUP5 SWAP3 PUSH1 0x40 SWAP5 DUP6 MSTORE DUP4 CODECOPY DUP2 ADD SUB SLT PUSH2 0x121 JUMPI PUSH2 0x52 PUSH1 0x20 PUSH2 0x4B DUP4 PUSH2 0x13C JUMP JUMPDEST SWAP3 ADD PUSH2 0x13C JUMP JUMPDEST PUSH1 0x0 SWAP1 DUP2 SLOAD SWAP2 PUSH1 0x1 SWAP3 DUP4 DUP2 DUP2 SHR SWAP2 AND DUP1 ISZERO PUSH2 0x117 JUMPI JUMPDEST PUSH1 0x20 DUP3 LT EQ PUSH2 0x103 JUMPI PUSH1 0x1F DUP2 GT PUSH2 0xD7 JUMPI JUMPDEST POP PUSH32 0x47656E65736973636861696E20436F64657820432D434400000000000000002E SWAP1 SSTORE DUP2 SLOAD PUSH1 0x1 PUSH1 0x1 PUSH1 0xA0 SHL SUB SWAP4 DUP5 AND PUSH1 0x1 PUSH1 0x1 PUSH1 0xA0 SHL SUB NOT SWAP2 DUP3 AND OR SWAP1 SWAP3 SSTORE PUSH1 0x2 DUP1 SLOAD SWAP2 SWAP1 SWAP4 AND SWAP2 AND OR SWAP1 SSTORE PUSH1 0x40 MLOAD PUSH2 0x49B SWAP1 DUP2 PUSH2 0x151 DUP3 CODECOPY RETURN JUMPDEST DUP2 DUP1 MSTORE DUP4 PUSH1 0x1F PUSH1 0x20 DUP5 KECCAK256 SWAP3 ADD PUSH1 0x5 SHR DUP3 ADD SWAP2 JUMPDEST DUP3 DUP2 LT PUSH2 0xF8 JUMPI POP POP PUSH2 0x7A JUMP JUMPDEST DUP4 DUP2 SSTORE ADD DUP5 SWAP1 PUSH2 0xEA JUMP JUMPDEST PUSH4 0x4E487B71 PUSH1 0xE0 SHL DUP3 MSTORE PUSH1 0x22 PUSH1 0x4 MSTORE PUSH1 0x24 DUP3 REVERT JUMPDEST SWAP1 PUSH1 0x7F AND SWAP1 PUSH2 0x68 JUMP JUMPDEST PUSH1 0x0 DUP1 REVERT JUMPDEST PUSH4 0x4E487B71 PUSH1 0xE0 SHL PUSH1 0x0 MSTORE PUSH1 0x41 PUSH1 0x4 MSTORE PUSH1 0x24 PUSH1 0x0 REVERT JUMPDEST MLOAD SWAP1 PUSH1 0x1 PUSH1 0x1 PUSH1 0xA0 SHL SUB DUP3 AND DUP3 SUB PUSH2 0x121 JUMPI JUMP INVALID PUSH1 0x80 PUSH1 0x40 DUP2 DUP2 MSTORE PUSH1 0x4 SWAP2 DUP3 CALLDATASIZE LT ISZERO PUSH2 0x16 JUMPI PUSH1 0x0 DUP1 REVERT JUMPDEST PUSH1 0x0 SWAP3 DUP4 CALLDATALOAD PUSH1 0xE0 SHR SWAP2 DUP3 PUSH4 0x55C5853 EQ PUSH2 0x265 JUMPI POP DUP2 PUSH4 0x31E120D6 EQ PUSH2 0x230 JUMPI DUP2 PUSH4 0x34D94CCC EQ PUSH2 0x207 JUMPI DUP2 PUSH4 0x5E6076F3 EQ PUSH2 0xE4 JUMPI POP DUP1 PUSH4 0x637EEA19 EQ PUSH2 0xBC JUMPI PUSH4 0xC034FE49 EQ PUSH2 0x67 JUMPI PUSH1 0x0 DUP1 REVERT JUMPDEST CALLVALUE PUSH2 0xB8 JUMPI DUP2 PUSH1 0x3 NOT CALLDATASIZE ADD SLT PUSH2 0xB8 JUMPI PUSH1 0x1 SLOAD PUSH1 0x2 SLOAD PUSH2 0xAB SWAP3 SWAP2 PUSH1 0x1 PUSH1 0x1 PUSH1 0xA0 SHL SUB SWAP1 DUP2 AND SWAP2 AND PUSH2 0x97 PUSH2 0x33E JUMP JUMPDEST SWAP3 DUP1 MLOAD SWAP5 DUP6 SWAP5 PUSH1 0x60 DUP7 MSTORE PUSH1 0x60 DUP7 ADD SWAP1 PUSH2 0x425 JUMP JUMPDEST SWAP3 PUSH1 0x20 DUP6 ADD MSTORE DUP4 ADD MSTORE SUB SWAP1 RETURN JUMPDEST POP DUP1 REVERT JUMPDEST POP CALLVALUE PUSH2 0xB8 JUMPI DUP2 PUSH1 0x3 NOT CALLDATASIZE ADD SLT PUSH2 0xB8 JUMPI PUSH1 0x1 SLOAD SWAP1 MLOAD PUSH1 0x1 PUSH1 0x1 PUSH1 0xA0 SHL SUB SWAP1 SWAP2 AND DUP2 MSTORE PUSH1 0x20 SWAP1 RETURN JUMPDEST SWAP1 POP CALLVALUE PUSH2 0x1E8 JUMPI PUSH1 0x20 SWAP2 DUP3 PUSH1 0x3 NOT CALLDATASIZE ADD SLT PUSH2 0x203 JUMPI PUSH8 0xFFFFFFFFFFFFFFFF SWAP2 DUP1 CALLDATALOAD DUP4 DUP2 GT PUSH2 0x1FF JUMPI CALLDATASIZE PUSH1 0x23 DUP3 ADD SLT ISZERO PUSH2 0x1FF JUMPI DUP1 DUP3 ADD CALLDATALOAD SWAP4 DUP5 GT PUSH2 0x1EC JUMPI DUP6 SWAP1 DUP4 MLOAD SWAP5 PUSH2 0x13A DUP8 PUSH1 0x1F NOT PUSH1 0x1F DUP5 ADD AND ADD DUP8 PUSH2 0x306 JUMP JUMPDEST DUP1 DUP7 MSTORE CALLDATASIZE PUSH1 0x24 DUP3 DUP5 ADD ADD GT PUSH2 0x1E8 JUMPI DUP1 PUSH1 0x24 DUP9 SWAP4 ADD DUP4 DUP9 ADD CALLDATACOPY DUP6 ADD ADD MSTORE PUSH1 0x1 SLOAD PUSH1 0x1 PUSH1 0x1 PUSH1 0xA0 SHL SUB AND CALLER SUB PUSH2 0x1A7 JUMPI POP PUSH32 0x141A9969B98583375BFD313BC77CE73145193FCC585C81CE62334E22056A136C SWAP2 PUSH2 0x1A1 SWAP2 MLOAD SWAP2 DUP3 SWAP2 DUP6 DUP4 MSTORE CALLER SWAP6 DUP4 ADD SWAP1 PUSH2 0x425 JUMP JUMPDEST SUB SWAP1 LOG2 DUP1 RETURN JUMPDEST DUP4 PUSH1 0x64 SWAP3 MLOAD SWAP2 PUSH3 0x461BCD PUSH1 0xE5 SHL DUP4 MSTORE DUP3 ADD MSTORE PUSH1 0x1D PUSH1 0x24 DUP3 ADD MSTORE PUSH32 0x4F6E6C792073746577617264206D617920696E766F6B6520436F646578000000 PUSH1 0x44 DUP3 ADD MSTORE REVERT JUMPDEST DUP3 DUP1 REVERT JUMPDEST PUSH4 0x4E487B71 PUSH1 0xE0 SHL DUP7 MSTORE PUSH1 0x41 DUP3 MSTORE PUSH1 0x24 DUP7 REVERT JUMPDEST DUP6 DUP1 REVERT JUMPDEST DUP4 DUP1 REVERT JUMPDEST POP POP CALLVALUE PUSH2 0xB8 JUMPI DUP2 PUSH1 0x3 NOT CALLDATASIZE ADD SLT PUSH2 0xB8 JUMPI PUSH1 0x2 SLOAD SWAP1 MLOAD PUSH1 0x1 PUSH1 0x1 PUSH1 0xA0 SHL SUB SWAP1 SWAP2 AND DUP2 MSTORE PUSH1 0x20 SWAP1 RETURN JUMPDEST POP POP CALLVALUE PUSH2 0xB8 JUMPI DUP2 PUSH1 0x3 NOT CALLDATASIZE ADD SLT PUSH2 0xB8 JUMPI PUSH2 0x261 SWAP1 PUSH2 0x24E PUSH2 0x33E JUMP JUMPDEST SWAP1 MLOAD SWAP2 DUP3 SWAP2 PUSH1 0x20 DUP4 MSTORE PUSH1 0x20 DUP4 ADD SWAP1 PUSH2 0x425 JUMP JUMPDEST SUB SWAP1 RETURN JUMPDEST DUP5 SWAP3 POP CALLVALUE PUSH2 0x1E8 JUMPI PUSH1 0x20 CALLDATASIZE PUSH1 0x3 NOT ADD SLT PUSH2 0x1E8 JUMPI DUP2 CALLDATALOAD PUSH1 0x1 PUSH1 0x1 PUSH1 0xA0 SHL SUB DUP2 DUP2 AND SWAP4 SWAP2 DUP5 SWAP1 SUB PUSH2 0x302 JUMPI PUSH1 0x1 SLOAD AND CALLER SUB PUSH2 0x2B6 JUMPI POP POP PUSH12 0xFFFFFFFFFFFFFFFFFFFFFFFF PUSH1 0xA0 SHL PUSH1 0x2 SLOAD AND OR PUSH1 0x2 SSTORE DUP1 RETURN JUMPDEST PUSH3 0x461BCD PUSH1 0xE5 SHL DUP3 MSTORE PUSH1 0x20 SWAP1 DUP3 ADD MSTORE PUSH1 0x22 PUSH1 0x24 DUP3 ADD MSTORE PUSH32 0x4F6E6C792073746577617264206D61792075706461746520676C797068546F6B PUSH1 0x44 DUP3 ADD MSTORE PUSH2 0x32B7 PUSH1 0xF1 SHL PUSH1 0x64 DUP3 ADD MSTORE PUSH1 0x84 SWAP1 REVERT JUMPDEST DUP5 DUP1 REVERT JUMPDEST SWAP1 PUSH1 0x1F DUP1 NOT SWAP2 ADD AND DUP2 ADD SWAP1 DUP2 LT PUSH8 0xFFFFFFFFFFFFFFFF DUP3 GT OR PUSH2 0x328 JUMPI PUSH1 0x40 MSTORE JUMP JUMPDEST PUSH4 0x4E487B71 PUSH1 0xE0 SHL PUSH1 0x0 MSTORE PUSH1 0x41 PUSH1 0x4 MSTORE PUSH1 0x24 PUSH1 0x0 REVERT JUMPDEST PUSH1 0x40 MLOAD SWAP1 PUSH1 0x0 DUP1 SLOAD SWAP1 PUSH1 0x1 DUP3 DUP2 SHR SWAP1 DUP1 DUP5 AND SWAP4 DUP5 ISZERO PUSH2 0x41B JUMPI JUMPDEST PUSH1 0x20 SWAP5 DUP6 DUP5 LT DUP2 EQ PUSH2 0x407 JUMPI DUP4 DUP9 MSTORE DUP8 SWAP5 SWAP4 SWAP3 SWAP2 DUP2 ISZERO PUSH2 0x3E7 JUMPI POP PUSH1 0x1 EQ PUSH2 0x38B JUMPI JUMPDEST POP POP PUSH2 0x389 SWAP3 POP SUB DUP4 PUSH2 0x306 JUMP JUMPDEST JUMP JUMPDEST PUSH1 0x0 DUP1 DUP1 MSTORE PUSH32 0x290DECD9548B62A8D60345A988386FC84BA6BC95484008F6362F93160EF3E563 SWAP6 SWAP4 POP SWAP2 SWAP1 JUMPDEST DUP2 DUP4 LT PUSH2 0x3CF JUMPI POP POP PUSH2 0x389 SWAP4 POP DUP3 ADD ADD CODESIZE DUP1 PUSH2 0x37B JUMP JUMPDEST DUP6 SLOAD DUP9 DUP5 ADD DUP6 ADD MSTORE SWAP5 DUP6 ADD SWAP5 DUP8 SWAP5 POP SWAP2 DUP4 ADD SWAP2 PUSH2 0x3B7 JUMP JUMPDEST SWAP2 POP POP PUSH2 0x389 SWAP5 SWAP3 POP PUSH1 0xFF NOT AND DUP3 DUP5 ADD MSTORE ISZERO ISZERO PUSH1 0x5 SHL DUP3 ADD ADD CODESIZE DUP1 PUSH2 0x37B JUMP JUMPDEST PUSH4 0x4E487B71 PUSH1 0xE0 SHL DUP6 MSTORE PUSH1 0x22 PUSH1 0x4 MSTORE PUSH1 0x24 DUP6 REVERT JUMPDEST SWAP2 PUSH1 0x7F AND SWAP2 PUSH2 0x358 JUMP JUMPDEST SWAP2 SWAP1 DUP3 MLOAD SWAP3 DUP4 DUP3 MSTORE PUSH1 0x0 JUMPDEST DUP5 DUP2 LT PUSH2 0x451 JUMPI POP POP DUP3 PUSH1 0x0 PUSH1 0x20 DUP1 SWAP5 SWAP6 DUP5 ADD ADD MSTORE PUSH1 0x1F DUP1 NOT SWAP2 ADD AND ADD ADD SWAP1 JUMP JUMPDEST PUSH1 0x20 DUP2 DUP4 ADD DUP2 ADD MLOAD DUP5 DUP4 ADD DUP3 ADD MSTORE ADD PUSH2 0x430 JUMP INVALID LOG2 PUSH5 0x6970667358 0x22 SLT KECCAK256 0xE 0xD4 0xCD 0x2E 0xB7 SLT GAS PUSH32 0xDD851DC645FA4E7C8975C24378E41F0B8DBBC081B83261BF64736F6C63430008 EQ STOP CALLER "},"methodIdentifiers":{"codexName()":"31e120d6","getCodexMetadata()":"c034fe49","glyphToken()":"34d94ccc","invokeCodex(string)":"5e6076f3","steward()":"637eea19","updateGlyphToken(address)":"055c5853"}}}}}