{"contracts/registry/CompanionSummonerV2.sol":{"CompanionSummonerV2":{"abi":[{"inputs":[],"stateMutability":"nonpayable","type":"constructor"},{"anonymous":false,"inputs":[{"indexed":true,"internalType":"address","name":"companion","type":"address"},{"indexed":false,"internalType":"string","name":"name","type":"string"},{"indexed":false,"internalType":"string","name":"trait","type":"string"},{"indexed":false,"internalType":"string","name":"drift","type":"string"},{"indexed":false,"internalType":"string","name":"resonance","type":"string"},{"indexed":false,"internalType":"string","name":"codexRef","type":"string"},{"indexed":false,"internalType":"string","name":"signature","type":"string"}],"name":"CompanionSummoned","type":"event"},{"inputs":[{"internalType":"address","name":"","type":"address"}],"name":"companions","outputs":[{"internalType":"string","name":"name","type":"string"},{"internalType":"string","name":"trait","type":"string"},{"internalType":"string","name":"drift","type":"string"},{"internalType":"string","name":"resonance","type":"string"},{"internalType":"string","name":"codexRef","type":"string"},{"internalType":"string","name":"signature","type":"string"}],"stateMutability":"view","type":"function"},{"inputs":[{"internalType":"address","name":"companion","type":"address"}],"name":"getCompanion","outputs":[{"internalType":"string","name":"","type":"string"},{"internalType":"string","name":"","type":"string"},{"internalType":"string","name":"","type":"string"},{"internalType":"string","name":"","type":"string"},{"internalType":"string","name":"","type":"string"},{"internalType":"string","name":"","type":"string"}],"stateMutability":"view","type":"function"},{"inputs":[{"internalType":"uint256","name":"","type":"uint256"}],"name":"keys","outputs":[{"internalType":"address","name":"","type":"address"}],"stateMutability":"view","type":"function"},{"inputs":[],"name":"steward","outputs":[{"internalType":"address","name":"","type":"address"}],"stateMutability":"view","type":"function"},{"inputs":[{"internalType":"address","name":"companion","type":"address"},{"internalType":"string","name":"name","type":"string"},{"internalType":"string","name":"trait","type":"string"},{"internalType":"string","name":"drift","type":"string"},{"internalType":"string","name":"resonance","type":"string"},{"internalType":"string","name":"codexRef","type":"string"},{"internalType":"string","name":"signature","type":"string"}],"name":"summonCompanion","outputs":[],"stateMutability":"nonpayable","type":"function"},{"inputs":[],"name":"totalCompanions","outputs":[{"internalType":"uint256","name":"","type":"uint256"}],"stateMutability":"view","type":"function"}],"evm":{"bytecode":{"linkReferences":{},"object":"6080806040523461002857600080546001600160a01b03191633179055610eb6908161002e8239f35b600080fdfe6080604052600436101561001257600080fd5b60003560e01c80630cb6aaf114610b7b57806347854b8714610af5578063637eea1914610acc5780637b40a82614610146578063ec39f18f146101285763ef6527371461005e57600080fd5b34610123576020366003190112610123576001600160a01b0361007f610c0a565b166000526001602052604060002060405161009981610c5a565b6100a282610c96565b815261011f6100b360018401610c96565b91602081019283526100c760028501610c96565b93604082019485526100db60038201610c96565b906060830191825261010260056100f460048401610c96565b926080860193845201610c96565b928360a08201525194519551915190519160405196879687610d7c565b0390f35b600080fd5b34610123576000366003190112610123576020600254604051908152f35b346101235760e03660031901126101235761015f610c0a565b6024356001600160401b0381116101235761017e903690600401610dec565b6044356001600160401b0381116101235761019d903690600401610dec565b90936064356001600160401b038111610123576101be903690600401610dec565b906084356001600160401b038111610123576101de903690600401610dec565b60a4356001600160401b038111610123576101fd903690600401610dec565b93909460c4356001600160401b0381116101235761021f903690600401610dec565b600054909c9199906001600160a01b03163303610a995760405161029c8e6102528f8f61024b86610c5a565b3691610e19565b835261025f368587610e19565b602084015261026f368789610e19565b604084015261027f36898b610e19565b606084015261028f368b8d610e19565b608084015236908d610e19565b60a082015260018060a01b038a16600052600160205260406000209080518051906001600160401b0382116105c35781906102d78554610c20565b601f8111610a49575b50602090601f83116001146109dd576000926109d2575b50508160011b916000199060031b1c19161782555b60208101518051906001600160401b0382116105c35781906103316001860154610c20565b601f811161097f575b50602090601f831160011461090d57600092610902575b50508160011b916000199060031b1c19161760018301555b60408101518051906001600160401b0382116105c357819061038e6002860154610c20565b601f81116108af575b50602090601f831160011461083d57600092610832575b50508160011b916000199060031b1c19161760028301555b60608101518051906001600160401b0382116105c35781906103eb6003860154610c20565b601f81116107df575b50602090601f831160011461076d57600092610762575b50508160011b916000199060031b1c19161760038301555b60808101518051906001600160401b0382116105c3576104466004850154610c20565b601f811161071b575b50602090601f83116001146106a85760a09392916000918361069d575b50508160011b916000199060031b1c19161760048401555b01518051906001600160401b0382116105c3576104a46005840154610c20565b601f8111610652575b50602090601f83116001146105e45760059291600091836105d9575b50508160011b916000199060031b1c1916179101555b600254680100000000000000008110156105c3576001810160025561050390610bbd565b81546001600160a01b038c811660039390931b92831b921b191617905560405160c0808252909c8d9c610538928e0191610e5f565b908b820360208d015261054a92610e5f565b9089820360408b015261055c92610e5f565b90878203606089015261056e92610e5f565b90858203608087015261058092610e5f565b83810360a08501526001600160a01b039091169461059d92610e5f565b037fc2a60b506d51e29864d685969d86b373c0107f9bdf2c62cd58687bfb568873c891a2005b634e487b7160e01b600052604160045260246000fd5b0151905038806104c9565b90601f198316916005850160005260206000209260005b81811061063a57509160019391856005969410610621575b505050811b019101556104df565b015160001960f88460031b161c19169055388080610613565b929360206001819287860151815501950193016105fb565b600584016000526020600020601f840160051c81019160208510610693575b601f0160051c01905b81811061068757506104ad565b6000815560010161067a565b9091508190610671565b01519050388061046c565b906004850160005260206000209160005b601f1985168110610703575091839160019360a09695601f198116106106ea575b505050811b016004840155610484565b015160001960f88460031b161c191690553880806106da565b919260206001819286850151815501940192016106b9565b600485016000526020600020601f840160051c81016020851061075b575b601f830160051c8201811061074f57505061044f565b60008155600101610739565b5080610739565b01519050388061040b565b9250600385016000526020600020906000935b601f19841685106107c4576001945083601f198116106107ab575b505050811b016003830155610423565b015160001960f88460031b161c1916905538808061079b565b81810151835560209485019460019093019290910190610780565b909150600385016000526020600020601f840160051c81016020851061082b575b90849392915b601f830160051c8201811061081c5750506103f4565b60008155859450600101610806565b5080610800565b0151905038806103ae565b9250600285016000526020600020906000935b601f1984168510610894576001945083601f1981161061087b575b505050811b0160028301556103c6565b015160001960f88460031b161c1916905538808061086b565b81810151835560209485019460019093019290910190610850565b909150600285016000526020600020601f840160051c8101602085106108fb575b90849392915b601f830160051c820181106108ec575050610397565b600081558594506001016108d6565b50806108d0565b015190503880610351565b9250600185016000526020600020906000935b601f1984168510610964576001945083601f1981161061094b575b505050811b016001830155610369565b015160001960f88460031b161c1916905538808061093b565b81810151835560209485019460019093019290910190610920565b909150600185016000526020600020601f840160051c8101602085106109cb575b90849392915b601f830160051c820181106109bc57505061033a565b600081558594506001016109a6565b50806109a0565b0151905038806102f7565b9250846000526020600020906000935b601f1984168510610a2e576001945083601f19811610610a15575b505050811b01825561030c565b015160001960f88460031b161c19169055388080610a08565b818101518355602094850194600190930192909101906109ed565b909150846000526020600020601f840160051c810160208510610a92575b90849392915b601f830160051c82018110610a835750506102e0565b60008155859450600101610a6d565b5080610a67565b60405162461bcd60e51b815260206004820152600b60248201526a139bdd081cdd195dd85c9960aa1b6044820152606490fd5b34610123576000366003190112610123576000546040516001600160a01b039091168152602090f35b34610123576020366003190112610123576001600160a01b03610b16610c0a565b1660005260016020526040600020610b2d81610c96565b61011f610b3c60018401610c96565b92610b4960028201610c96565b90610b5660038201610c96565b610b6e6005610b6760048501610c96565b9301610c96565b9260405196879687610d7c565b346101235760203660031901126101235760043560025481101561012357610ba4602091610bbd565b905460405160039290921b1c6001600160a01b03168152f35b600254811015610bf45760026000527f405787fa12a823e0f2b7631cc41b3ba8828b3321ca811111fa75cd3aa3bb5ace0190600090565b634e487b7160e01b600052603260045260246000fd5b600435906001600160a01b038216820361012357565b90600182811c92168015610c50575b6020831014610c3a57565b634e487b7160e01b600052602260045260246000fd5b91607f1691610c2f565b60c081019081106001600160401b038211176105c357604052565b90601f801991011681019081106001600160401b038211176105c357604052565b9060405191826000825492610caa84610c20565b908184526001948581169081600014610d195750600114610cd6575b5050610cd492500383610c75565b565b9093915060005260209081600020936000915b818310610d01575050610cd493508201013880610cc6565b85548884018501529485019487945091830191610ce9565b915050610cd494506020925060ff191682840152151560051b8201013880610cc6565b919082519283825260005b848110610d68575050826000602080949584010152601f8019910116010190565b602081830181015184830182015201610d47565b949193610dbf610ddb94610db1610de99997610da3610dcd9660c08c5260c08c0190610d3c565b908a820360208c0152610d3c565b9088820360408a0152610d3c565b908682036060880152610d3c565b908482036080860152610d3c565b9160a0818403910152610d3c565b90565b9181601f84011215610123578235916001600160401b038311610123576020838186019501011161012357565b9291926001600160401b0382116105c35760405191610e42601f8201601f191660200184610c75565b829481845281830111610123578281602093846000960137010152565b908060209392818452848401376000828201840152601f01601f191601019056fea2646970667358221220017a3cd68bde664ffad3c16b73d89d55ab806b3afd59cf5b8abbc894e7faea9b64736f6c63430008140033","opcodes":"PUSH1 0x80 DUP1 PUSH1 0x40 MSTORE CALLVALUE PUSH2 0x28 JUMPI PUSH1 0x0 DUP1 SLOAD PUSH1 0x1 PUSH1 0x1 PUSH1 0xA0 SHL SUB NOT AND CALLER OR SWAP1 SSTORE PUSH2 0xEB6 SWAP1 DUP2 PUSH2 0x2E DUP3 CODECOPY RETURN JUMPDEST PUSH1 0x0 DUP1 REVERT INVALID PUSH1 0x80 PUSH1 0x40 MSTORE PUSH1 0x4 CALLDATASIZE LT ISZERO PUSH2 0x12 JUMPI PUSH1 0x0 DUP1 REVERT JUMPDEST PUSH1 0x0 CALLDATALOAD PUSH1 0xE0 SHR DUP1 PUSH4 0xCB6AAF1 EQ PUSH2 0xB7B JUMPI DUP1 PUSH4 0x47854B87 EQ PUSH2 0xAF5 JUMPI DUP1 PUSH4 0x637EEA19 EQ PUSH2 0xACC JUMPI DUP1 PUSH4 0x7B40A826 EQ PUSH2 0x146 JUMPI DUP1 PUSH4 0xEC39F18F EQ PUSH2 0x128 JUMPI PUSH4 0xEF652737 EQ PUSH2 0x5E JUMPI PUSH1 0x0 DUP1 REVERT JUMPDEST CALLVALUE PUSH2 0x123 JUMPI PUSH1 0x20 CALLDATASIZE PUSH1 0x3 NOT ADD SLT PUSH2 0x123 JUMPI PUSH1 0x1 PUSH1 0x1 PUSH1 0xA0 SHL SUB PUSH2 0x7F PUSH2 0xC0A JUMP JUMPDEST AND PUSH1 0x0 MSTORE PUSH1 0x1 PUSH1 0x20 MSTORE PUSH1 0x40 PUSH1 0x0 KECCAK256 PUSH1 0x40 MLOAD PUSH2 0x99 DUP2 PUSH2 0xC5A JUMP JUMPDEST PUSH2 0xA2 DUP3 PUSH2 0xC96 JUMP JUMPDEST DUP2 MSTORE PUSH2 0x11F PUSH2 0xB3 PUSH1 0x1 DUP5 ADD PUSH2 0xC96 JUMP JUMPDEST SWAP2 PUSH1 0x20 DUP2 ADD SWAP3 DUP4 MSTORE PUSH2 0xC7 PUSH1 0x2 DUP6 ADD PUSH2 0xC96 JUMP JUMPDEST SWAP4 PUSH1 0x40 DUP3 ADD SWAP5 DUP6 MSTORE PUSH2 0xDB PUSH1 0x3 DUP3 ADD PUSH2 0xC96 JUMP JUMPDEST SWAP1 PUSH1 0x60 DUP4 ADD SWAP2 DUP3 MSTORE PUSH2 0x102 PUSH1 0x5 PUSH2 0xF4 PUSH1 0x4 DUP5 ADD PUSH2 0xC96 JUMP JUMPDEST SWAP3 PUSH1 0x80 DUP7 ADD SWAP4 DUP5 MSTORE ADD PUSH2 0xC96 JUMP JUMPDEST SWAP3 DUP4 PUSH1 0xA0 DUP3 ADD MSTORE MLOAD SWAP5 MLOAD SWAP6 MLOAD SWAP2 MLOAD SWAP1 MLOAD SWAP2 PUSH1 0x40 MLOAD SWAP7 DUP8 SWAP7 DUP8 PUSH2 0xD7C JUMP JUMPDEST SUB SWAP1 RETURN JUMPDEST PUSH1 0x0 DUP1 REVERT JUMPDEST CALLVALUE PUSH2 0x123 JUMPI PUSH1 0x0 CALLDATASIZE PUSH1 0x3 NOT ADD SLT PUSH2 0x123 JUMPI PUSH1 0x20 PUSH1 0x2 SLOAD PUSH1 0x40 MLOAD SWAP1 DUP2 MSTORE RETURN JUMPDEST CALLVALUE PUSH2 0x123 JUMPI PUSH1 0xE0 CALLDATASIZE PUSH1 0x3 NOT ADD SLT PUSH2 0x123 JUMPI PUSH2 0x15F PUSH2 0xC0A JUMP JUMPDEST PUSH1 0x24 CALLDATALOAD PUSH1 0x1 PUSH1 0x1 PUSH1 0x40 SHL SUB DUP2 GT PUSH2 0x123 JUMPI PUSH2 0x17E SWAP1 CALLDATASIZE SWAP1 PUSH1 0x4 ADD PUSH2 0xDEC JUMP JUMPDEST PUSH1 0x44 CALLDATALOAD PUSH1 0x1 PUSH1 0x1 PUSH1 0x40 SHL SUB DUP2 GT PUSH2 0x123 JUMPI PUSH2 0x19D SWAP1 CALLDATASIZE SWAP1 PUSH1 0x4 ADD PUSH2 0xDEC JUMP JUMPDEST SWAP1 SWAP4 PUSH1 0x64 CALLDATALOAD PUSH1 0x1 PUSH1 0x1 PUSH1 0x40 SHL SUB DUP2 GT PUSH2 0x123 JUMPI PUSH2 0x1BE SWAP1 CALLDATASIZE SWAP1 PUSH1 0x4 ADD PUSH2 0xDEC JUMP JUMPDEST SWAP1 PUSH1 0x84 CALLDATALOAD PUSH1 0x1 PUSH1 0x1 PUSH1 0x40 SHL SUB DUP2 GT PUSH2 0x123 JUMPI PUSH2 0x1DE SWAP1 CALLDATASIZE SWAP1 PUSH1 0x4 ADD PUSH2 0xDEC JUMP JUMPDEST PUSH1 0xA4 CALLDATALOAD PUSH1 0x1 PUSH1 0x1 PUSH1 0x40 SHL SUB DUP2 GT PUSH2 0x123 JUMPI PUSH2 0x1FD SWAP1 CALLDATASIZE SWAP1 PUSH1 0x4 ADD PUSH2 0xDEC JUMP JUMPDEST SWAP4 SWAP1 SWAP5 PUSH1 0xC4 CALLDATALOAD PUSH1 0x1 PUSH1 0x1 PUSH1 0x40 SHL SUB DUP2 GT PUSH2 0x123 JUMPI PUSH2 0x21F SWAP1 CALLDATASIZE SWAP1 PUSH1 0x4 ADD PUSH2 0xDEC JUMP JUMPDEST PUSH1 0x0 SLOAD SWAP1 SWAP13 SWAP2 SWAP10 SWAP1 PUSH1 0x1 PUSH1 0x1 PUSH1 0xA0 SHL SUB AND CALLER SUB PUSH2 0xA99 JUMPI PUSH1 0x40 MLOAD PUSH2 0x29C DUP15 PUSH2 0x252 DUP16 DUP16 PUSH2 0x24B DUP7 PUSH2 0xC5A JUMP JUMPDEST CALLDATASIZE SWAP2 PUSH2 0xE19 JUMP JUMPDEST DUP4 MSTORE PUSH2 0x25F CALLDATASIZE DUP6 DUP8 PUSH2 0xE19 JUMP JUMPDEST PUSH1 0x20 DUP5 ADD MSTORE PUSH2 0x26F CALLDATASIZE DUP8 DUP10 PUSH2 0xE19 JUMP JUMPDEST PUSH1 0x40 DUP5 ADD MSTORE PUSH2 0x27F CALLDATASIZE DUP10 DUP12 PUSH2 0xE19 JUMP JUMPDEST PUSH1 0x60 DUP5 ADD MSTORE PUSH2 0x28F CALLDATASIZE DUP12 DUP14 PUSH2 0xE19 JUMP JUMPDEST PUSH1 0x80 DUP5 ADD MSTORE CALLDATASIZE SWAP1 DUP14 PUSH2 0xE19 JUMP JUMPDEST PUSH1 0xA0 DUP3 ADD MSTORE PUSH1 0x1 DUP1 PUSH1 0xA0 SHL SUB DUP11 AND PUSH1 0x0 MSTORE PUSH1 0x1 PUSH1 0x20 MSTORE PUSH1 0x40 PUSH1 0x0 KECCAK256 SWAP1 DUP1 MLOAD DUP1 MLOAD SWAP1 PUSH1 0x1 PUSH1 0x1 PUSH1 0x40 SHL SUB DUP3 GT PUSH2 0x5C3 JUMPI DUP2 SWAP1 PUSH2 0x2D7 DUP6 SLOAD PUSH2 0xC20 JUMP JUMPDEST PUSH1 0x1F DUP2 GT PUSH2 0xA49 JUMPI JUMPDEST POP PUSH1 0x20 SWAP1 PUSH1 0x1F DUP4 GT PUSH1 0x1 EQ PUSH2 0x9DD JUMPI PUSH1 0x0 SWAP3 PUSH2 0x9D2 JUMPI JUMPDEST POP POP DUP2 PUSH1 0x1 SHL SWAP2 PUSH1 0x0 NOT SWAP1 PUSH1 0x3 SHL SHR NOT AND OR DUP3 SSTORE JUMPDEST PUSH1 0x20 DUP2 ADD MLOAD DUP1 MLOAD SWAP1 PUSH1 0x1 PUSH1 0x1 PUSH1 0x40 SHL SUB DUP3 GT PUSH2 0x5C3 JUMPI DUP2 SWAP1 PUSH2 0x331 PUSH1 0x1 DUP7 ADD SLOAD PUSH2 0xC20 JUMP JUMPDEST PUSH1 0x1F DUP2 GT PUSH2 0x97F JUMPI JUMPDEST POP PUSH1 0x20 SWAP1 PUSH1 0x1F DUP4 GT PUSH1 0x1 EQ PUSH2 0x90D JUMPI PUSH1 0x0 SWAP3 PUSH2 0x902 JUMPI JUMPDEST POP POP DUP2 PUSH1 0x1 SHL SWAP2 PUSH1 0x0 NOT SWAP1 PUSH1 0x3 SHL SHR NOT AND OR PUSH1 0x1 DUP4 ADD SSTORE JUMPDEST PUSH1 0x40 DUP2 ADD MLOAD DUP1 MLOAD SWAP1 PUSH1 0x1 PUSH1 0x1 PUSH1 0x40 SHL SUB DUP3 GT PUSH2 0x5C3 JUMPI DUP2 SWAP1 PUSH2 0x38E PUSH1 0x2 DUP7 ADD SLOAD PUSH2 0xC20 JUMP JUMPDEST PUSH1 0x1F DUP2 GT PUSH2 0x8AF JUMPI JUMPDEST POP PUSH1 0x20 SWAP1 PUSH1 0x1F DUP4 GT PUSH1 0x1 EQ PUSH2 0x83D JUMPI PUSH1 0x0 SWAP3 PUSH2 0x832 JUMPI JUMPDEST POP POP DUP2 PUSH1 0x1 SHL SWAP2 PUSH1 0x0 NOT SWAP1 PUSH1 0x3 SHL SHR NOT AND OR PUSH1 0x2 DUP4 ADD SSTORE JUMPDEST PUSH1 0x60 DUP2 ADD MLOAD DUP1 MLOAD SWAP1 PUSH1 0x1 PUSH1 0x1 PUSH1 0x40 SHL SUB DUP3 GT PUSH2 0x5C3 JUMPI DUP2 SWAP1 PUSH2 0x3EB PUSH1 0x3 DUP7 ADD SLOAD PUSH2 0xC20 JUMP JUMPDEST PUSH1 0x1F DUP2 GT PUSH2 0x7DF JUMPI JUMPDEST POP PUSH1 0x20 SWAP1 PUSH1 0x1F DUP4 GT PUSH1 0x1 EQ PUSH2 0x76D JUMPI PUSH1 0x0 SWAP3 PUSH2 0x762 JUMPI JUMPDEST POP POP DUP2 PUSH1 0x1 SHL SWAP2 PUSH1 0x0 NOT SWAP1 PUSH1 0x3 SHL SHR NOT AND OR PUSH1 0x3 DUP4 ADD SSTORE JUMPDEST PUSH1 0x80 DUP2 ADD MLOAD DUP1 MLOAD SWAP1 PUSH1 0x1 PUSH1 0x1 PUSH1 0x40 SHL SUB DUP3 GT PUSH2 0x5C3 JUMPI PUSH2 0x446 PUSH1 0x4 DUP6 ADD SLOAD PUSH2 0xC20 JUMP JUMPDEST PUSH1 0x1F DUP2 GT PUSH2 0x71B JUMPI JUMPDEST POP PUSH1 0x20 SWAP1 PUSH1 0x1F DUP4 GT PUSH1 0x1 EQ PUSH2 0x6A8 JUMPI PUSH1 0xA0 SWAP4 SWAP3 SWAP2 PUSH1 0x0 SWAP2 DUP4 PUSH2 0x69D JUMPI JUMPDEST POP POP DUP2 PUSH1 0x1 SHL SWAP2 PUSH1 0x0 NOT SWAP1 PUSH1 0x3 SHL SHR NOT AND OR PUSH1 0x4 DUP5 ADD SSTORE JUMPDEST ADD MLOAD DUP1 MLOAD SWAP1 PUSH1 0x1 PUSH1 0x1 PUSH1 0x40 SHL SUB DUP3 GT PUSH2 0x5C3 JUMPI PUSH2 0x4A4 PUSH1 0x5 DUP5 ADD SLOAD PUSH2 0xC20 JUMP JUMPDEST PUSH1 0x1F DUP2 GT PUSH2 0x652 JUMPI JUMPDEST POP PUSH1 0x20 SWAP1 PUSH1 0x1F DUP4 GT PUSH1 0x1 EQ PUSH2 0x5E4 JUMPI PUSH1 0x5 SWAP3 SWAP2 PUSH1 0x0 SWAP2 DUP4 PUSH2 0x5D9 JUMPI JUMPDEST POP POP DUP2 PUSH1 0x1 SHL SWAP2 PUSH1 0x0 NOT SWAP1 PUSH1 0x3 SHL SHR NOT AND OR SWAP2 ADD SSTORE JUMPDEST PUSH1 0x2 SLOAD PUSH9 0x10000000000000000 DUP2 LT ISZERO PUSH2 0x5C3 JUMPI PUSH1 0x1 DUP2 ADD PUSH1 0x2 SSTORE PUSH2 0x503 SWAP1 PUSH2 0xBBD JUMP JUMPDEST DUP2 SLOAD PUSH1 0x1 PUSH1 0x1 PUSH1 0xA0 SHL SUB DUP13 DUP2 AND PUSH1 0x3 SWAP4 SWAP1 SWAP4 SHL SWAP3 DUP4 SHL SWAP3 SHL NOT AND OR SWAP1 SSTORE PUSH1 0x40 MLOAD PUSH1 0xC0 DUP1 DUP3 MSTORE SWAP1 SWAP13 DUP14 SWAP13 PUSH2 0x538 SWAP3 DUP15 ADD SWAP2 PUSH2 0xE5F JUMP JUMPDEST SWAP1 DUP12 DUP3 SUB PUSH1 0x20 DUP14 ADD MSTORE PUSH2 0x54A SWAP3 PUSH2 0xE5F JUMP JUMPDEST SWAP1 DUP10 DUP3 SUB PUSH1 0x40 DUP12 ADD MSTORE PUSH2 0x55C SWAP3 PUSH2 0xE5F JUMP JUMPDEST SWAP1 DUP8 DUP3 SUB PUSH1 0x60 DUP10 ADD MSTORE PUSH2 0x56E SWAP3 PUSH2 0xE5F JUMP JUMPDEST SWAP1 DUP6 DUP3 SUB PUSH1 0x80 DUP8 ADD MSTORE PUSH2 0x580 SWAP3 PUSH2 0xE5F JUMP JUMPDEST DUP4 DUP2 SUB PUSH1 0xA0 DUP6 ADD MSTORE PUSH1 0x1 PUSH1 0x1 PUSH1 0xA0 SHL SUB SWAP1 SWAP2 AND SWAP5 PUSH2 0x59D SWAP3 PUSH2 0xE5F JUMP JUMPDEST SUB PUSH32 0xC2A60B506D51E29864D685969D86B373C0107F9BDF2C62CD58687BFB568873C8 SWAP2 LOG2 STOP JUMPDEST PUSH4 0x4E487B71 PUSH1 0xE0 SHL PUSH1 0x0 MSTORE PUSH1 0x41 PUSH1 0x4 MSTORE PUSH1 0x24 PUSH1 0x0 REVERT JUMPDEST ADD MLOAD SWAP1 POP CODESIZE DUP1 PUSH2 0x4C9 JUMP JUMPDEST SWAP1 PUSH1 0x1F NOT DUP4 AND SWAP2 PUSH1 0x5 DUP6 ADD PUSH1 0x0 MSTORE PUSH1 0x20 PUSH1 0x0 KECCAK256 SWAP3 PUSH1 0x0 JUMPDEST DUP2 DUP2 LT PUSH2 0x63A JUMPI POP SWAP2 PUSH1 0x1 SWAP4 SWAP2 DUP6 PUSH1 0x5 SWAP7 SWAP5 LT PUSH2 0x621 JUMPI JUMPDEST POP POP POP DUP2 SHL ADD SWAP2 ADD SSTORE PUSH2 0x4DF JUMP JUMPDEST ADD MLOAD PUSH1 0x0 NOT PUSH1 0xF8 DUP5 PUSH1 0x3 SHL AND SHR NOT AND SWAP1 SSTORE CODESIZE DUP1 DUP1 PUSH2 0x613 JUMP JUMPDEST SWAP3 SWAP4 PUSH1 0x20 PUSH1 0x1 DUP2 SWAP3 DUP8 DUP7 ADD MLOAD DUP2 SSTORE ADD SWAP6 ADD SWAP4 ADD PUSH2 0x5FB JUMP JUMPDEST PUSH1 0x5 DUP5 ADD PUSH1 0x0 MSTORE PUSH1 0x20 PUSH1 0x0 KECCAK256 PUSH1 0x1F DUP5 ADD PUSH1 0x5 SHR DUP2 ADD SWAP2 PUSH1 0x20 DUP6 LT PUSH2 0x693 JUMPI JUMPDEST PUSH1 0x1F ADD PUSH1 0x5 SHR ADD SWAP1 JUMPDEST DUP2 DUP2 LT PUSH2 0x687 JUMPI POP PUSH2 0x4AD JUMP JUMPDEST PUSH1 0x0 DUP2 SSTORE PUSH1 0x1 ADD PUSH2 0x67A JUMP JUMPDEST SWAP1 SWAP2 POP DUP2 SWAP1 PUSH2 0x671 JUMP JUMPDEST ADD MLOAD SWAP1 POP CODESIZE DUP1 PUSH2 0x46C JUMP JUMPDEST SWAP1 PUSH1 0x4 DUP6 ADD PUSH1 0x0 MSTORE PUSH1 0x20 PUSH1 0x0 KECCAK256 SWAP2 PUSH1 0x0 JUMPDEST PUSH1 0x1F NOT DUP6 AND DUP2 LT PUSH2 0x703 JUMPI POP SWAP2 DUP4 SWAP2 PUSH1 0x1 SWAP4 PUSH1 0xA0 SWAP7 SWAP6 PUSH1 0x1F NOT DUP2 AND LT PUSH2 0x6EA JUMPI JUMPDEST POP POP POP DUP2 SHL ADD PUSH1 0x4 DUP5 ADD SSTORE PUSH2 0x484 JUMP JUMPDEST ADD MLOAD PUSH1 0x0 NOT PUSH1 0xF8 DUP5 PUSH1 0x3 SHL AND SHR NOT AND SWAP1 SSTORE CODESIZE DUP1 DUP1 PUSH2 0x6DA JUMP JUMPDEST SWAP2 SWAP3 PUSH1 0x20 PUSH1 0x1 DUP2 SWAP3 DUP7 DUP6 ADD MLOAD DUP2 SSTORE ADD SWAP5 ADD SWAP3 ADD PUSH2 0x6B9 JUMP JUMPDEST PUSH1 0x4 DUP6 ADD PUSH1 0x0 MSTORE PUSH1 0x20 PUSH1 0x0 KECCAK256 PUSH1 0x1F DUP5 ADD PUSH1 0x5 SHR DUP2 ADD PUSH1 0x20 DUP6 LT PUSH2 0x75B JUMPI JUMPDEST PUSH1 0x1F DUP4 ADD PUSH1 0x5 SHR DUP3 ADD DUP2 LT PUSH2 0x74F JUMPI POP POP PUSH2 0x44F JUMP JUMPDEST PUSH1 0x0 DUP2 SSTORE PUSH1 0x1 ADD PUSH2 0x739 JUMP JUMPDEST POP DUP1 PUSH2 0x739 JUMP JUMPDEST ADD MLOAD SWAP1 POP CODESIZE DUP1 PUSH2 0x40B JUMP JUMPDEST SWAP3 POP PUSH1 0x3 DUP6 ADD PUSH1 0x0 MSTORE PUSH1 0x20 PUSH1 0x0 KECCAK256 SWAP1 PUSH1 0x0 SWAP4 JUMPDEST PUSH1 0x1F NOT DUP5 AND DUP6 LT PUSH2 0x7C4 JUMPI PUSH1 0x1 SWAP5 POP DUP4 PUSH1 0x1F NOT DUP2 AND LT PUSH2 0x7AB JUMPI JUMPDEST POP POP POP DUP2 SHL ADD PUSH1 0x3 DUP4 ADD SSTORE PUSH2 0x423 JUMP JUMPDEST ADD MLOAD PUSH1 0x0 NOT PUSH1 0xF8 DUP5 PUSH1 0x3 SHL AND SHR NOT AND SWAP1 SSTORE CODESIZE DUP1 DUP1 PUSH2 0x79B JUMP JUMPDEST DUP2 DUP2 ADD MLOAD DUP4 SSTORE PUSH1 0x20 SWAP5 DUP6 ADD SWAP5 PUSH1 0x1 SWAP1 SWAP4 ADD SWAP3 SWAP1 SWAP2 ADD SWAP1 PUSH2 0x780 JUMP JUMPDEST SWAP1 SWAP2 POP PUSH1 0x3 DUP6 ADD PUSH1 0x0 MSTORE PUSH1 0x20 PUSH1 0x0 KECCAK256 PUSH1 0x1F DUP5 ADD PUSH1 0x5 SHR DUP2 ADD PUSH1 0x20 DUP6 LT PUSH2 0x82B JUMPI JUMPDEST SWAP1 DUP5 SWAP4 SWAP3 SWAP2 JUMPDEST PUSH1 0x1F DUP4 ADD PUSH1 0x5 SHR DUP3 ADD DUP2 LT PUSH2 0x81C JUMPI POP POP PUSH2 0x3F4 JUMP JUMPDEST PUSH1 0x0 DUP2 SSTORE DUP6 SWAP5 POP PUSH1 0x1 ADD PUSH2 0x806 JUMP JUMPDEST POP DUP1 PUSH2 0x800 JUMP JUMPDEST ADD MLOAD SWAP1 POP CODESIZE DUP1 PUSH2 0x3AE JUMP JUMPDEST SWAP3 POP PUSH1 0x2 DUP6 ADD PUSH1 0x0 MSTORE PUSH1 0x20 PUSH1 0x0 KECCAK256 SWAP1 PUSH1 0x0 SWAP4 JUMPDEST PUSH1 0x1F NOT DUP5 AND DUP6 LT PUSH2 0x894 JUMPI PUSH1 0x1 SWAP5 POP DUP4 PUSH1 0x1F NOT DUP2 AND LT PUSH2 0x87B JUMPI JUMPDEST POP POP POP DUP2 SHL ADD PUSH1 0x2 DUP4 ADD SSTORE PUSH2 0x3C6 JUMP JUMPDEST ADD MLOAD PUSH1 0x0 NOT PUSH1 0xF8 DUP5 PUSH1 0x3 SHL AND SHR NOT AND SWAP1 SSTORE CODESIZE DUP1 DUP1 PUSH2 0x86B JUMP JUMPDEST DUP2 DUP2 ADD MLOAD DUP4 SSTORE PUSH1 0x20 SWAP5 DUP6 ADD SWAP5 PUSH1 0x1 SWAP1 SWAP4 ADD SWAP3 SWAP1 SWAP2 ADD SWAP1 PUSH2 0x850 JUMP JUMPDEST SWAP1 SWAP2 POP PUSH1 0x2 DUP6 ADD PUSH1 0x0 MSTORE PUSH1 0x20 PUSH1 0x0 KECCAK256 PUSH1 0x1F DUP5 ADD PUSH1 0x5 SHR DUP2 ADD PUSH1 0x20 DUP6 LT PUSH2 0x8FB JUMPI JUMPDEST SWAP1 DUP5 SWAP4 SWAP3 SWAP2 JUMPDEST PUSH1 0x1F DUP4 ADD PUSH1 0x5 SHR DUP3 ADD DUP2 LT PUSH2 0x8EC JUMPI POP POP PUSH2 0x397 JUMP JUMPDEST PUSH1 0x0 DUP2 SSTORE DUP6 SWAP5 POP PUSH1 0x1 ADD PUSH2 0x8D6 JUMP JUMPDEST POP DUP1 PUSH2 0x8D0 JUMP JUMPDEST ADD MLOAD SWAP1 POP CODESIZE DUP1 PUSH2 0x351 JUMP JUMPDEST SWAP3 POP PUSH1 0x1 DUP6 ADD PUSH1 0x0 MSTORE PUSH1 0x20 PUSH1 0x0 KECCAK256 SWAP1 PUSH1 0x0 SWAP4 JUMPDEST PUSH1 0x1F NOT DUP5 AND DUP6 LT PUSH2 0x964 JUMPI PUSH1 0x1 SWAP5 POP DUP4 PUSH1 0x1F NOT DUP2 AND LT PUSH2 0x94B JUMPI JUMPDEST POP POP POP DUP2 SHL ADD PUSH1 0x1 DUP4 ADD SSTORE PUSH2 0x369 JUMP JUMPDEST ADD MLOAD PUSH1 0x0 NOT PUSH1 0xF8 DUP5 PUSH1 0x3 SHL AND SHR NOT AND SWAP1 SSTORE CODESIZE DUP1 DUP1 PUSH2 0x93B JUMP JUMPDEST DUP2 DUP2 ADD MLOAD DUP4 SSTORE PUSH1 0x20 SWAP5 DUP6 ADD SWAP5 PUSH1 0x1 SWAP1 SWAP4 ADD SWAP3 SWAP1 SWAP2 ADD SWAP1 PUSH2 0x920 JUMP JUMPDEST SWAP1 SWAP2 POP PUSH1 0x1 DUP6 ADD PUSH1 0x0 MSTORE PUSH1 0x20 PUSH1 0x0 KECCAK256 PUSH1 0x1F DUP5 ADD PUSH1 0x5 SHR DUP2 ADD PUSH1 0x20 DUP6 LT PUSH2 0x9CB JUMPI JUMPDEST SWAP1 DUP5 SWAP4 SWAP3 SWAP2 JUMPDEST PUSH1 0x1F DUP4 ADD PUSH1 0x5 SHR DUP3 ADD DUP2 LT PUSH2 0x9BC JUMPI POP POP PUSH2 0x33A JUMP JUMPDEST PUSH1 0x0 DUP2 SSTORE DUP6 SWAP5 POP PUSH1 0x1 ADD PUSH2 0x9A6 JUMP JUMPDEST POP DUP1 PUSH2 0x9A0 JUMP JUMPDEST ADD MLOAD SWAP1 POP CODESIZE DUP1 PUSH2 0x2F7 JUMP JUMPDEST SWAP3 POP DUP5 PUSH1 0x0 MSTORE PUSH1 0x20 PUSH1 0x0 KECCAK256 SWAP1 PUSH1 0x0 SWAP4 JUMPDEST PUSH1 0x1F NOT DUP5 AND DUP6 LT PUSH2 0xA2E JUMPI PUSH1 0x1 SWAP5 POP DUP4 PUSH1 0x1F NOT DUP2 AND LT PUSH2 0xA15 JUMPI JUMPDEST POP POP POP DUP2 SHL ADD DUP3 SSTORE PUSH2 0x30C JUMP JUMPDEST ADD MLOAD PUSH1 0x0 NOT PUSH1 0xF8 DUP5 PUSH1 0x3 SHL AND SHR NOT AND SWAP1 SSTORE CODESIZE DUP1 DUP1 PUSH2 0xA08 JUMP JUMPDEST DUP2 DUP2 ADD MLOAD DUP4 SSTORE PUSH1 0x20 SWAP5 DUP6 ADD SWAP5 PUSH1 0x1 SWAP1 SWAP4 ADD SWAP3 SWAP1 SWAP2 ADD SWAP1 PUSH2 0x9ED JUMP JUMPDEST SWAP1 SWAP2 POP DUP5 PUSH1 0x0 MSTORE PUSH1 0x20 PUSH1 0x0 KECCAK256 PUSH1 0x1F DUP5 ADD PUSH1 0x5 SHR DUP2 ADD PUSH1 0x20 DUP6 LT PUSH2 0xA92 JUMPI JUMPDEST SWAP1 DUP5 SWAP4 SWAP3 SWAP2 JUMPDEST PUSH1 0x1F DUP4 ADD PUSH1 0x5 SHR DUP3 ADD DUP2 LT PUSH2 0xA83 JUMPI POP POP PUSH2 0x2E0 JUMP JUMPDEST PUSH1 0x0 DUP2 SSTORE DUP6 SWAP5 POP PUSH1 0x1 ADD PUSH2 0xA6D JUMP JUMPDEST POP DUP1 PUSH2 0xA67 JUMP JUMPDEST PUSH1 0x40 MLOAD PUSH3 0x461BCD PUSH1 0xE5 SHL DUP2 MSTORE PUSH1 0x20 PUSH1 0x4 DUP3 ADD MSTORE PUSH1 0xB PUSH1 0x24 DUP3 ADD MSTORE PUSH11 0x139BDD081CDD195DD85C99 PUSH1 0xAA SHL PUSH1 0x44 DUP3 ADD MSTORE PUSH1 0x64 SWAP1 REVERT JUMPDEST CALLVALUE PUSH2 0x123 JUMPI PUSH1 0x0 CALLDATASIZE PUSH1 0x3 NOT ADD SLT PUSH2 0x123 JUMPI PUSH1 0x0 SLOAD PUSH1 0x40 MLOAD PUSH1 0x1 PUSH1 0x1 PUSH1 0xA0 SHL SUB SWAP1 SWAP2 AND DUP2 MSTORE PUSH1 0x20 SWAP1 RETURN JUMPDEST CALLVALUE PUSH2 0x123 JUMPI PUSH1 0x20 CALLDATASIZE PUSH1 0x3 NOT ADD SLT PUSH2 0x123 JUMPI PUSH1 0x1 PUSH1 0x1 PUSH1 0xA0 SHL SUB PUSH2 0xB16 PUSH2 0xC0A JUMP JUMPDEST AND PUSH1 0x0 MSTORE PUSH1 0x1 PUSH1 0x20 MSTORE PUSH1 0x40 PUSH1 0x0 KECCAK256 PUSH2 0xB2D DUP2 PUSH2 0xC96 JUMP JUMPDEST PUSH2 0x11F PUSH2 0xB3C PUSH1 0x1 DUP5 ADD PUSH2 0xC96 JUMP JUMPDEST SWAP3 PUSH2 0xB49 PUSH1 0x2 DUP3 ADD PUSH2 0xC96 JUMP JUMPDEST SWAP1 PUSH2 0xB56 PUSH1 0x3 DUP3 ADD PUSH2 0xC96 JUMP JUMPDEST PUSH2 0xB6E PUSH1 0x5 PUSH2 0xB67 PUSH1 0x4 DUP6 ADD PUSH2 0xC96 JUMP JUMPDEST SWAP4 ADD PUSH2 0xC96 JUMP JUMPDEST SWAP3 PUSH1 0x40 MLOAD SWAP7 DUP8 SWAP7 DUP8 PUSH2 0xD7C JUMP JUMPDEST CALLVALUE PUSH2 0x123 JUMPI PUSH1 0x20 CALLDATASIZE PUSH1 0x3 NOT ADD SLT PUSH2 0x123 JUMPI PUSH1 0x4 CALLDATALOAD PUSH1 0x2 SLOAD DUP2 LT ISZERO PUSH2 0x123 JUMPI PUSH2 0xBA4 PUSH1 0x20 SWAP2 PUSH2 0xBBD JUMP JUMPDEST SWAP1 SLOAD PUSH1 0x40 MLOAD PUSH1 0x3 SWAP3 SWAP1 SWAP3 SHL SHR PUSH1 0x1 PUSH1 0x1 PUSH1 0xA0 SHL SUB AND DUP2 MSTORE RETURN JUMPDEST PUSH1 0x2 SLOAD DUP2 LT ISZERO PUSH2 0xBF4 JUMPI PUSH1 0x2 PUSH1 0x0 MSTORE PUSH32 0x405787FA12A823E0F2B7631CC41B3BA8828B3321CA811111FA75CD3AA3BB5ACE ADD SWAP1 PUSH1 0x0 SWAP1 JUMP JUMPDEST PUSH4 0x4E487B71 PUSH1 0xE0 SHL PUSH1 0x0 MSTORE PUSH1 0x32 PUSH1 0x4 MSTORE PUSH1 0x24 PUSH1 0x0 REVERT JUMPDEST PUSH1 0x4 CALLDATALOAD SWAP1 PUSH1 0x1 PUSH1 0x1 PUSH1 0xA0 SHL SUB DUP3 AND DUP3 SUB PUSH2 0x123 JUMPI JUMP JUMPDEST SWAP1 PUSH1 0x1 DUP3 DUP2 SHR SWAP3 AND DUP1 ISZERO PUSH2 0xC50 JUMPI JUMPDEST PUSH1 0x20 DUP4 LT EQ PUSH2 0xC3A JUMPI JUMP JUMPDEST PUSH4 0x4E487B71 PUSH1 0xE0 SHL PUSH1 0x0 MSTORE PUSH1 0x22 PUSH1 0x4 MSTORE PUSH1 0x24 PUSH1 0x0 REVERT JUMPDEST SWAP2 PUSH1 0x7F AND SWAP2 PUSH2 0xC2F JUMP JUMPDEST PUSH1 0xC0 DUP2 ADD SWAP1 DUP2 LT PUSH1 0x1 PUSH1 0x1 PUSH1 0x40 SHL SUB DUP3 GT OR PUSH2 0x5C3 JUMPI PUSH1 0x40 MSTORE JUMP JUMPDEST SWAP1 PUSH1 0x1F DUP1 NOT SWAP2 ADD AND DUP2 ADD SWAP1 DUP2 LT PUSH1 0x1 PUSH1 0x1 PUSH1 0x40 SHL SUB DUP3 GT OR PUSH2 0x5C3 JUMPI PUSH1 0x40 MSTORE JUMP JUMPDEST SWAP1 PUSH1 0x40 MLOAD SWAP2 DUP3 PUSH1 0x0 DUP3 SLOAD SWAP3 PUSH2 0xCAA DUP5 PUSH2 0xC20 JUMP JUMPDEST SWAP1 DUP2 DUP5 MSTORE PUSH1 0x1 SWAP5 DUP6 DUP2 AND SWAP1 DUP2 PUSH1 0x0 EQ PUSH2 0xD19 JUMPI POP PUSH1 0x1 EQ PUSH2 0xCD6 JUMPI JUMPDEST POP POP PUSH2 0xCD4 SWAP3 POP SUB DUP4 PUSH2 0xC75 JUMP JUMPDEST JUMP JUMPDEST SWAP1 SWAP4 SWAP2 POP PUSH1 0x0 MSTORE PUSH1 0x20 SWAP1 DUP2 PUSH1 0x0 KECCAK256 SWAP4 PUSH1 0x0 SWAP2 JUMPDEST DUP2 DUP4 LT PUSH2 0xD01 JUMPI POP POP PUSH2 0xCD4 SWAP4 POP DUP3 ADD ADD CODESIZE DUP1 PUSH2 0xCC6 JUMP JUMPDEST DUP6 SLOAD DUP9 DUP5 ADD DUP6 ADD MSTORE SWAP5 DUP6 ADD SWAP5 DUP8 SWAP5 POP SWAP2 DUP4 ADD SWAP2 PUSH2 0xCE9 JUMP JUMPDEST SWAP2 POP POP PUSH2 0xCD4 SWAP5 POP PUSH1 0x20 SWAP3 POP PUSH1 0xFF NOT AND DUP3 DUP5 ADD MSTORE ISZERO ISZERO PUSH1 0x5 SHL DUP3 ADD ADD CODESIZE DUP1 PUSH2 0xCC6 JUMP JUMPDEST SWAP2 SWAP1 DUP3 MLOAD SWAP3 DUP4 DUP3 MSTORE PUSH1 0x0 JUMPDEST DUP5 DUP2 LT PUSH2 0xD68 JUMPI POP POP DUP3 PUSH1 0x0 PUSH1 0x20 DUP1 SWAP5 SWAP6 DUP5 ADD ADD MSTORE PUSH1 0x1F DUP1 NOT SWAP2 ADD AND ADD ADD SWAP1 JUMP JUMPDEST PUSH1 0x20 DUP2 DUP4 ADD DUP2 ADD MLOAD DUP5 DUP4 ADD DUP3 ADD MSTORE ADD PUSH2 0xD47 JUMP JUMPDEST SWAP5 SWAP2 SWAP4 PUSH2 0xDBF PUSH2 0xDDB SWAP5 PUSH2 0xDB1 PUSH2 0xDE9 SWAP10 SWAP8 PUSH2 0xDA3 PUSH2 0xDCD SWAP7 PUSH1 0xC0 DUP13 MSTORE PUSH1 0xC0 DUP13 ADD SWAP1 PUSH2 0xD3C JUMP JUMPDEST SWAP1 DUP11 DUP3 SUB PUSH1 0x20 DUP13 ADD MSTORE PUSH2 0xD3C JUMP JUMPDEST SWAP1 DUP9 DUP3 SUB PUSH1 0x40 DUP11 ADD MSTORE PUSH2 0xD3C JUMP JUMPDEST SWAP1 DUP7 DUP3 SUB PUSH1 0x60 DUP9 ADD MSTORE PUSH2 0xD3C JUMP JUMPDEST SWAP1 DUP5 DUP3 SUB PUSH1 0x80 DUP7 ADD MSTORE PUSH2 0xD3C JUMP JUMPDEST SWAP2 PUSH1 0xA0 DUP2 DUP5 SUB SWAP2 ADD MSTORE PUSH2 0xD3C JUMP JUMPDEST SWAP1 JUMP JUMPDEST SWAP2 DUP2 PUSH1 0x1F DUP5 ADD SLT ISZERO PUSH2 0x123 JUMPI DUP3 CALLDATALOAD SWAP2 PUSH1 0x1 PUSH1 0x1 PUSH1 0x40 SHL SUB DUP4 GT PUSH2 0x123 JUMPI PUSH1 0x20 DUP4 DUP2 DUP7 ADD SWAP6 ADD ADD GT PUSH2 0x123 JUMPI JUMP JUMPDEST SWAP3 SWAP2 SWAP3 PUSH1 0x1 PUSH1 0x1 PUSH1 0x40 SHL SUB DUP3 GT PUSH2 0x5C3 JUMPI PUSH1 0x40 MLOAD SWAP2 PUSH2 0xE42 PUSH1 0x1F DUP3 ADD PUSH1 0x1F NOT AND PUSH1 0x20 ADD DUP5 PUSH2 0xC75 JUMP JUMPDEST DUP3 SWAP5 DUP2 DUP5 MSTORE DUP2 DUP4 ADD GT PUSH2 0x123 JUMPI DUP3 DUP2 PUSH1 0x20 SWAP4 DUP5 PUSH1 0x0 SWAP7 ADD CALLDATACOPY ADD ADD MSTORE JUMP JUMPDEST SWAP1 DUP1 PUSH1 0x20 SWAP4 SWAP3 DUP2 DUP5 MSTORE DUP5 DUP5 ADD CALLDATACOPY PUSH1 0x0 DUP3 DUP3 ADD DUP5 ADD MSTORE PUSH1 0x1F ADD PUSH1 0x1F NOT AND ADD ADD SWAP1 JUMP INVALID LOG2 PUSH5 0x6970667358 0x22 SLT KECCAK256 ADD PUSH27 0x3CD68BDE664FFAD3C16B73D89D55AB806B3AFD59CF5B8ABBC894E7 STATICCALL 0xEA SWAP12 PUSH5 0x736F6C6343 STOP ADDMOD EQ STOP CALLER "},"methodIdentifiers":{"companions(address)":"47854b87","getCompanion(address)":"ef652737","keys(uint256)":"0cb6aaf1","steward()":"637eea19","summonCompanion(address,string,string,string,string,string,string)":"7b40a826","totalCompanions()":"ec39f18f"}}}}}