{"contracts/codex/SpiralboundCodexV5.sol":{"SpiralboundCodexV5":{"abi":[{"inputs":[],"stateMutability":"nonpayable","type":"constructor"},{"anonymous":false,"inputs":[{"indexed":false,"internalType":"string","name":"glyph","type":"string"},{"indexed":false,"internalType":"string","name":"tag","type":"string"},{"indexed":false,"internalType":"string","name":"binding","type":"string"},{"indexed":false,"internalType":"string","name":"annotation","type":"string"},{"indexed":false,"internalType":"string","name":"lineage","type":"string"},{"indexed":false,"internalType":"string","name":"resonance","type":"string"},{"indexed":false,"internalType":"string","name":"protocol","type":"string"}],"name":"CodexInscribed","type":"event"},{"inputs":[{"internalType":"string","name":"","type":"string"}],"name":"codices","outputs":[{"internalType":"string","name":"tag","type":"string"},{"internalType":"string","name":"binding","type":"string"},{"internalType":"string","name":"annotation","type":"string"},{"internalType":"string","name":"lineage","type":"string"},{"internalType":"string","name":"resonance","type":"string"},{"internalType":"string","name":"protocol","type":"string"}],"stateMutability":"view","type":"function"},{"inputs":[{"internalType":"string","name":"glyph","type":"string"}],"name":"getCodex","outputs":[{"internalType":"string","name":"","type":"string"},{"internalType":"string","name":"","type":"string"},{"internalType":"string","name":"","type":"string"},{"internalType":"string","name":"","type":"string"},{"internalType":"string","name":"","type":"string"},{"internalType":"string","name":"","type":"string"}],"stateMutability":"view","type":"function"},{"inputs":[{"internalType":"string","name":"glyph","type":"string"},{"internalType":"string","name":"tag","type":"string"},{"internalType":"string","name":"binding","type":"string"},{"internalType":"string","name":"annotation","type":"string"},{"internalType":"string","name":"lineage","type":"string"},{"internalType":"string","name":"resonance","type":"string"},{"internalType":"string","name":"protocol","type":"string"}],"name":"inscribeCodex","outputs":[],"stateMutability":"nonpayable","type":"function"},{"inputs":[{"internalType":"uint256","name":"","type":"uint256"}],"name":"keys","outputs":[{"internalType":"string","name":"","type":"string"}],"stateMutability":"view","type":"function"},{"inputs":[],"name":"steward","outputs":[{"internalType":"address","name":"","type":"address"}],"stateMutability":"view","type":"function"},{"inputs":[],"name":"totalCodices","outputs":[{"internalType":"uint256","name":"","type":"uint256"}],"stateMutability":"view","type":"function"}],"evm":{"bytecode":{"linkReferences":{},"object":"6080806040523461002857600080546001600160a01b03191633179055610e81908161002e8239f35b600080fdfe60e080604052600436101561001357600080fd5b60003560e01c9081630c41547a146102a5575080630cb6aaf114610244578063637eea191461021b5780638336152214610142578063c212d16b146101245763dbc214241461006157600080fd5b3461011f57602036600319011261011f576004356001600160401b03811161011f573660238201121561011f5760206100a76100ba923690602481600401359101610d90565b8160405193828580945193849201610cd8565b810160018152030190206100cd81610c32565b61011b6100dc60018401610c32565b926100e960028201610c32565b906100f660038201610c32565b61010e600561010760048501610c32565b9301610c32565b9260405196879687610d20565b0390f35b600080fd5b3461011f57600036600319011261011f576020600254604051908152f35b3461011f57602036600319011261011f576004356001600160401b03811161011f576101746020913690600401610b42565b91908260405193849283378101600181520301902060405161019581610bf6565b61019e82610c32565b815261011b6101af60018401610c32565b91602081019283526101c360028501610c32565b93604082019485526101d760038201610c32565b90606083019182526101fe60056101f060048401610c32565b926080860193845201610c32565b928360a08201525194519551915190519160405196879687610d20565b3461011f57600036600319011261011f576000546040516001600160a01b039091168152602090f35b3461011f57602036600319011261011f5760043560025481101561011f5761026b90610b6f565b61028f5761027b61011b91610c32565b604051918291602083526020830190610cfb565b634e487b7160e01b600052600060045260246000fd5b3461011f5760e036600319011261011f576004356001600160401b03811161011f576102d5903690600401610b42565b60805260a0526024356001600160401b03811161011f576102fa903690600401610b42565b90916044356001600160401b03811161011f5761031b903690600401610b42565b906064356001600160401b03811161011f5761033b903690600401610b42565b906084356001600160401b03811161011f5761035b903690600401610b42565b91909260a4356001600160401b03811161011f5761037d903690600401610b42565b95909660c4356001600160401b03811161011f5761039f903690600401610b42565b999060c05260018060a01b03600054163303610b1257506040516103c281610bf6565b6103cd368c8e610d90565b81526103da368385610d90565b60208201526103ea368587610d90565b60408201526103fa368789610d90565b606082015261040a36898b610d90565b608082015261041c368b60c051610d90565b60a082015260405160805160a0518237602081608051810160018152030190209080518051906001600160401b038211610819578190610466826104608754610bbc565b87610dd6565b602090601f8311600114610aa657600092610a9b575b50508160011b916000199060031b1c19161782555b60208101518051906001600160401b0382116108195781906104c3826104ba6001880154610bbc565b60018801610dd6565b602090601f8311600114610a2957600092610a1e575b50508160011b916000199060031b1c19161760018301555b60408101518051906001600160401b0382116108195781906105238261051a6002880154610bbc565b60028801610dd6565b602090601f83116001146109ac576000926109a1575b50508160011b916000199060031b1c19161760028301555b60608101518051906001600160401b0382116108195781906105838261057a6003880154610bbc565b60038801610dd6565b602090601f831160011461092f57600092610924575b50508160011b916000199060031b1c19161760038301555b60808101518051906001600160401b038211610819576105e1826105d86004870154610bbc565b60048701610dd6565b602090601f83116001146108b15760a0939291600091836108a6575b50508160011b916000199060031b1c19161760048401555b0151908151906001600160401b038211610819576005829101926106438261063d8654610bbc565b86610dd6565b602090601f831160011461083a5760009261082f575b50508160011b916000199060031b1c19161790555b60025468010000000000000000811015610819578060016106929201600255610b6f565b61028f576080516001600160401b038111610819576106bb906106b58354610bbc565b83610dd6565b6000608051601f81116001146107ae5750600060805191826107a1575b508160011b916000199060031b1c19161790555b6040519a8b9a60e08c5260e08c016080519060a0519161070b92610e2a565b908c808303906020015261071e92610e2a565b908a820360408c015261073092610e2a565b9088820360608a015261074292610e2a565b90868203608088015261075492610e2a565b9084820360a086015261076692610e2a565b82810360c084015260c0519161077b92610e2a565b037f09c366a982359867400fda3ce7e1e8ee7700a45f551374bb36692c1f8cc3ea7891a1005b905060a05101358e6106d8565b82600052602060002060009260a051905b601f1984168510610801576001945083601f198116106107e7575b505050811b0190556106ec565b0135600019600384901b60f8161c191690558e80806107da565b818101358355602094850194600190930192016107bf565b634e487b7160e01b600052604160045260246000fd5b015190508e80610659565b9250836000526020600020906000935b601f198416851061088b576001945083601f19811610610872575b505050811b01905561066e565b015160001960f88460031b161c191690558e8080610865565b8181015183556020948501946001909301929091019061084a565b0151905038806105fd565b906004850160005260206000209160005b601f198516811061090c575091839160019360a09695601f198116106108f3575b505050811b016004840155610615565b015160001960f88460031b161c191690553880806108e3565b919260206001819286850151815501940192016108c2565b015190508f80610599565b9250600385016000526020600020906000935b601f1984168510610986576001945083601f1981161061096d575b505050811b0160038301556105b1565b015160001960f88460031b161c191690558f808061095d565b81810151835560209485019460019093019290910190610942565b015190508f80610539565b9250600285016000526020600020906000935b601f1984168510610a03576001945083601f198116106109ea575b505050811b016002830155610551565b015160001960f88460031b161c191690558f80806109da565b818101518355602094850194600190930192909101906109bf565b015190508f806104d9565b9250600185016000526020600020906000935b601f1984168510610a80576001945083601f19811610610a67575b505050811b0160018301556104f1565b015160001960f88460031b161c191690558f8080610a57565b81810151835560209485019460019093019290910190610a3c565b015190508f8061047c565b9250846000526020600020906000935b601f1984168510610af7576001945083601f19811610610ade575b505050811b018255610491565b015160001960f88460031b161c191690558f8080610ad1565b81810151835560209485019460019093019290910190610ab6565b62461bcd60e51b815260206004820152600b60248201526a139bdd081cdd195dd85c9960aa1b6044820152606490fd5b9181601f8401121561011f578235916001600160401b03831161011f576020838186019501011161011f57565b600254811015610ba65760026000527f405787fa12a823e0f2b7631cc41b3ba8828b3321ca811111fa75cd3aa3bb5ace0190600090565b634e487b7160e01b600052603260045260246000fd5b90600182811c92168015610bec575b6020831014610bd657565b634e487b7160e01b600052602260045260246000fd5b91607f1691610bcb565b60c081019081106001600160401b0382111761081957604052565b90601f801991011681019081106001600160401b0382111761081957604052565b9060405191826000825492610c4684610bbc565b908184526001948581169081600014610cb55750600114610c72575b5050610c7092500383610c11565b565b9093915060005260209081600020936000915b818310610c9d575050610c7093508201013880610c62565b85548884018501529485019487945091830191610c85565b915050610c7094506020925060ff191682840152151560051b8201013880610c62565b60005b838110610ceb5750506000910152565b8181015183820152602001610cdb565b90602091610d1481518092818552858086019101610cd8565b601f01601f1916010190565b949193610d63610d7f94610d55610d8d9997610d47610d719660c08c5260c08c0190610cfb565b908a820360208c0152610cfb565b9088820360408a0152610cfb565b908682036060880152610cfb565b908482036080860152610cfb565b9160a0818403910152610cfb565b90565b9291926001600160401b0382116108195760405191610db9601f8201601f191660200184610c11565b82948184528183011161011f578281602093846000960137010152565b90601f8111610de457505050565b600091825260208220906020601f850160051c83019410610e20575b601f0160051c01915b828110610e1557505050565b818155600101610e09565b9092508290610e00565b908060209392818452848401376000828201840152601f01601f191601019056fea26469706673582212205ae847d83d806fefe4c837d4e81a2157108c77459f4e34b2cdd0e43babed0b3464736f6c63430008140033","opcodes":"PUSH1 0x80 DUP1 PUSH1 0x40 MSTORE CALLVALUE PUSH2 0x28 JUMPI PUSH1 0x0 DUP1 SLOAD PUSH1 0x1 PUSH1 0x1 PUSH1 0xA0 SHL SUB NOT AND CALLER OR SWAP1 SSTORE PUSH2 0xE81 SWAP1 DUP2 PUSH2 0x2E DUP3 CODECOPY RETURN JUMPDEST PUSH1 0x0 DUP1 REVERT INVALID PUSH1 0xE0 DUP1 PUSH1 0x40 MSTORE PUSH1 0x4 CALLDATASIZE LT ISZERO PUSH2 0x13 JUMPI PUSH1 0x0 DUP1 REVERT JUMPDEST PUSH1 0x0 CALLDATALOAD PUSH1 0xE0 SHR SWAP1 DUP2 PUSH4 0xC41547A EQ PUSH2 0x2A5 JUMPI POP DUP1 PUSH4 0xCB6AAF1 EQ PUSH2 0x244 JUMPI DUP1 PUSH4 0x637EEA19 EQ PUSH2 0x21B JUMPI DUP1 PUSH4 0x83361522 EQ PUSH2 0x142 JUMPI DUP1 PUSH4 0xC212D16B EQ PUSH2 0x124 JUMPI PUSH4 0xDBC21424 EQ PUSH2 0x61 JUMPI PUSH1 0x0 DUP1 REVERT JUMPDEST CALLVALUE PUSH2 0x11F JUMPI PUSH1 0x20 CALLDATASIZE PUSH1 0x3 NOT ADD SLT PUSH2 0x11F JUMPI PUSH1 0x4 CALLDATALOAD PUSH1 0x1 PUSH1 0x1 PUSH1 0x40 SHL SUB DUP2 GT PUSH2 0x11F JUMPI CALLDATASIZE PUSH1 0x23 DUP3 ADD SLT ISZERO PUSH2 0x11F JUMPI PUSH1 0x20 PUSH2 0xA7 PUSH2 0xBA SWAP3 CALLDATASIZE SWAP1 PUSH1 0x24 DUP2 PUSH1 0x4 ADD CALLDATALOAD SWAP2 ADD PUSH2 0xD90 JUMP JUMPDEST DUP2 PUSH1 0x40 MLOAD SWAP4 DUP3 DUP6 DUP1 SWAP5 MLOAD SWAP4 DUP5 SWAP3 ADD PUSH2 0xCD8 JUMP JUMPDEST DUP2 ADD PUSH1 0x1 DUP2 MSTORE SUB ADD SWAP1 KECCAK256 PUSH2 0xCD DUP2 PUSH2 0xC32 JUMP JUMPDEST PUSH2 0x11B PUSH2 0xDC PUSH1 0x1 DUP5 ADD PUSH2 0xC32 JUMP JUMPDEST SWAP3 PUSH2 0xE9 PUSH1 0x2 DUP3 ADD PUSH2 0xC32 JUMP JUMPDEST SWAP1 PUSH2 0xF6 PUSH1 0x3 DUP3 ADD PUSH2 0xC32 JUMP JUMPDEST PUSH2 0x10E PUSH1 0x5 PUSH2 0x107 PUSH1 0x4 DUP6 ADD PUSH2 0xC32 JUMP JUMPDEST SWAP4 ADD PUSH2 0xC32 JUMP JUMPDEST SWAP3 PUSH1 0x40 MLOAD SWAP7 DUP8 SWAP7 DUP8 PUSH2 0xD20 JUMP JUMPDEST SUB SWAP1 RETURN JUMPDEST PUSH1 0x0 DUP1 REVERT JUMPDEST CALLVALUE PUSH2 0x11F JUMPI PUSH1 0x0 CALLDATASIZE PUSH1 0x3 NOT ADD SLT PUSH2 0x11F JUMPI PUSH1 0x20 PUSH1 0x2 SLOAD PUSH1 0x40 MLOAD SWAP1 DUP2 MSTORE RETURN JUMPDEST CALLVALUE PUSH2 0x11F JUMPI PUSH1 0x20 CALLDATASIZE PUSH1 0x3 NOT ADD SLT PUSH2 0x11F JUMPI PUSH1 0x4 CALLDATALOAD PUSH1 0x1 PUSH1 0x1 PUSH1 0x40 SHL SUB DUP2 GT PUSH2 0x11F JUMPI PUSH2 0x174 PUSH1 0x20 SWAP2 CALLDATASIZE SWAP1 PUSH1 0x4 ADD PUSH2 0xB42 JUMP JUMPDEST SWAP2 SWAP1 DUP3 PUSH1 0x40 MLOAD SWAP4 DUP5 SWAP3 DUP4 CALLDATACOPY DUP2 ADD PUSH1 0x1 DUP2 MSTORE SUB ADD SWAP1 KECCAK256 PUSH1 0x40 MLOAD PUSH2 0x195 DUP2 PUSH2 0xBF6 JUMP JUMPDEST PUSH2 0x19E DUP3 PUSH2 0xC32 JUMP JUMPDEST DUP2 MSTORE PUSH2 0x11B PUSH2 0x1AF PUSH1 0x1 DUP5 ADD PUSH2 0xC32 JUMP JUMPDEST SWAP2 PUSH1 0x20 DUP2 ADD SWAP3 DUP4 MSTORE PUSH2 0x1C3 PUSH1 0x2 DUP6 ADD PUSH2 0xC32 JUMP JUMPDEST SWAP4 PUSH1 0x40 DUP3 ADD SWAP5 DUP6 MSTORE PUSH2 0x1D7 PUSH1 0x3 DUP3 ADD PUSH2 0xC32 JUMP JUMPDEST SWAP1 PUSH1 0x60 DUP4 ADD SWAP2 DUP3 MSTORE PUSH2 0x1FE PUSH1 0x5 PUSH2 0x1F0 PUSH1 0x4 DUP5 ADD PUSH2 0xC32 JUMP JUMPDEST SWAP3 PUSH1 0x80 DUP7 ADD SWAP4 DUP5 MSTORE ADD PUSH2 0xC32 JUMP JUMPDEST SWAP3 DUP4 PUSH1 0xA0 DUP3 ADD MSTORE MLOAD SWAP5 MLOAD SWAP6 MLOAD SWAP2 MLOAD SWAP1 MLOAD SWAP2 PUSH1 0x40 MLOAD SWAP7 DUP8 SWAP7 DUP8 PUSH2 0xD20 JUMP JUMPDEST CALLVALUE PUSH2 0x11F JUMPI PUSH1 0x0 CALLDATASIZE PUSH1 0x3 NOT ADD SLT PUSH2 0x11F JUMPI PUSH1 0x0 SLOAD PUSH1 0x40 MLOAD PUSH1 0x1 PUSH1 0x1 PUSH1 0xA0 SHL SUB SWAP1 SWAP2 AND DUP2 MSTORE PUSH1 0x20 SWAP1 RETURN JUMPDEST CALLVALUE PUSH2 0x11F JUMPI PUSH1 0x20 CALLDATASIZE PUSH1 0x3 NOT ADD SLT PUSH2 0x11F JUMPI PUSH1 0x4 CALLDATALOAD PUSH1 0x2 SLOAD DUP2 LT ISZERO PUSH2 0x11F JUMPI PUSH2 0x26B SWAP1 PUSH2 0xB6F JUMP JUMPDEST PUSH2 0x28F JUMPI PUSH2 0x27B PUSH2 0x11B SWAP2 PUSH2 0xC32 JUMP JUMPDEST PUSH1 0x40 MLOAD SWAP2 DUP3 SWAP2 PUSH1 0x20 DUP4 MSTORE PUSH1 0x20 DUP4 ADD SWAP1 PUSH2 0xCFB JUMP JUMPDEST PUSH4 0x4E487B71 PUSH1 0xE0 SHL PUSH1 0x0 MSTORE PUSH1 0x0 PUSH1 0x4 MSTORE PUSH1 0x24 PUSH1 0x0 REVERT JUMPDEST CALLVALUE PUSH2 0x11F JUMPI PUSH1 0xE0 CALLDATASIZE PUSH1 0x3 NOT ADD SLT PUSH2 0x11F JUMPI PUSH1 0x4 CALLDATALOAD PUSH1 0x1 PUSH1 0x1 PUSH1 0x40 SHL SUB DUP2 GT PUSH2 0x11F JUMPI PUSH2 0x2D5 SWAP1 CALLDATASIZE SWAP1 PUSH1 0x4 ADD PUSH2 0xB42 JUMP JUMPDEST PUSH1 0x80 MSTORE PUSH1 0xA0 MSTORE PUSH1 0x24 CALLDATALOAD PUSH1 0x1 PUSH1 0x1 PUSH1 0x40 SHL SUB DUP2 GT PUSH2 0x11F JUMPI PUSH2 0x2FA SWAP1 CALLDATASIZE SWAP1 PUSH1 0x4 ADD PUSH2 0xB42 JUMP JUMPDEST SWAP1 SWAP2 PUSH1 0x44 CALLDATALOAD PUSH1 0x1 PUSH1 0x1 PUSH1 0x40 SHL SUB DUP2 GT PUSH2 0x11F JUMPI PUSH2 0x31B SWAP1 CALLDATASIZE SWAP1 PUSH1 0x4 ADD PUSH2 0xB42 JUMP JUMPDEST SWAP1 PUSH1 0x64 CALLDATALOAD PUSH1 0x1 PUSH1 0x1 PUSH1 0x40 SHL SUB DUP2 GT PUSH2 0x11F JUMPI PUSH2 0x33B SWAP1 CALLDATASIZE SWAP1 PUSH1 0x4 ADD PUSH2 0xB42 JUMP JUMPDEST SWAP1 PUSH1 0x84 CALLDATALOAD PUSH1 0x1 PUSH1 0x1 PUSH1 0x40 SHL SUB DUP2 GT PUSH2 0x11F JUMPI PUSH2 0x35B SWAP1 CALLDATASIZE SWAP1 PUSH1 0x4 ADD PUSH2 0xB42 JUMP JUMPDEST SWAP2 SWAP1 SWAP3 PUSH1 0xA4 CALLDATALOAD PUSH1 0x1 PUSH1 0x1 PUSH1 0x40 SHL SUB DUP2 GT PUSH2 0x11F JUMPI PUSH2 0x37D SWAP1 CALLDATASIZE SWAP1 PUSH1 0x4 ADD PUSH2 0xB42 JUMP JUMPDEST SWAP6 SWAP1 SWAP7 PUSH1 0xC4 CALLDATALOAD PUSH1 0x1 PUSH1 0x1 PUSH1 0x40 SHL SUB DUP2 GT PUSH2 0x11F JUMPI PUSH2 0x39F SWAP1 CALLDATASIZE SWAP1 PUSH1 0x4 ADD PUSH2 0xB42 JUMP JUMPDEST SWAP10 SWAP1 PUSH1 0xC0 MSTORE PUSH1 0x1 DUP1 PUSH1 0xA0 SHL SUB PUSH1 0x0 SLOAD AND CALLER SUB PUSH2 0xB12 JUMPI POP PUSH1 0x40 MLOAD PUSH2 0x3C2 DUP2 PUSH2 0xBF6 JUMP JUMPDEST PUSH2 0x3CD CALLDATASIZE DUP13 DUP15 PUSH2 0xD90 JUMP JUMPDEST DUP2 MSTORE PUSH2 0x3DA CALLDATASIZE DUP4 DUP6 PUSH2 0xD90 JUMP JUMPDEST PUSH1 0x20 DUP3 ADD MSTORE PUSH2 0x3EA CALLDATASIZE DUP6 DUP8 PUSH2 0xD90 JUMP JUMPDEST PUSH1 0x40 DUP3 ADD MSTORE PUSH2 0x3FA CALLDATASIZE DUP8 DUP10 PUSH2 0xD90 JUMP JUMPDEST PUSH1 0x60 DUP3 ADD MSTORE PUSH2 0x40A CALLDATASIZE DUP10 DUP12 PUSH2 0xD90 JUMP JUMPDEST PUSH1 0x80 DUP3 ADD MSTORE PUSH2 0x41C CALLDATASIZE DUP12 PUSH1 0xC0 MLOAD PUSH2 0xD90 JUMP JUMPDEST PUSH1 0xA0 DUP3 ADD MSTORE PUSH1 0x40 MLOAD PUSH1 0x80 MLOAD PUSH1 0xA0 MLOAD DUP3 CALLDATACOPY PUSH1 0x20 DUP2 PUSH1 0x80 MLOAD DUP2 ADD PUSH1 0x1 DUP2 MSTORE SUB ADD SWAP1 KECCAK256 SWAP1 DUP1 MLOAD DUP1 MLOAD SWAP1 PUSH1 0x1 PUSH1 0x1 PUSH1 0x40 SHL SUB DUP3 GT PUSH2 0x819 JUMPI DUP2 SWAP1 PUSH2 0x466 DUP3 PUSH2 0x460 DUP8 SLOAD PUSH2 0xBBC JUMP JUMPDEST DUP8 PUSH2 0xDD6 JUMP JUMPDEST PUSH1 0x20 SWAP1 PUSH1 0x1F DUP4 GT PUSH1 0x1 EQ PUSH2 0xAA6 JUMPI PUSH1 0x0 SWAP3 PUSH2 0xA9B JUMPI JUMPDEST POP POP DUP2 PUSH1 0x1 SHL SWAP2 PUSH1 0x0 NOT SWAP1 PUSH1 0x3 SHL SHR NOT AND OR DUP3 SSTORE JUMPDEST PUSH1 0x20 DUP2 ADD MLOAD DUP1 MLOAD SWAP1 PUSH1 0x1 PUSH1 0x1 PUSH1 0x40 SHL SUB DUP3 GT PUSH2 0x819 JUMPI DUP2 SWAP1 PUSH2 0x4C3 DUP3 PUSH2 0x4BA PUSH1 0x1 DUP9 ADD SLOAD PUSH2 0xBBC JUMP JUMPDEST PUSH1 0x1 DUP9 ADD PUSH2 0xDD6 JUMP JUMPDEST PUSH1 0x20 SWAP1 PUSH1 0x1F DUP4 GT PUSH1 0x1 EQ PUSH2 0xA29 JUMPI PUSH1 0x0 SWAP3 PUSH2 0xA1E JUMPI JUMPDEST POP POP DUP2 PUSH1 0x1 SHL SWAP2 PUSH1 0x0 NOT SWAP1 PUSH1 0x3 SHL SHR NOT AND OR PUSH1 0x1 DUP4 ADD SSTORE JUMPDEST PUSH1 0x40 DUP2 ADD MLOAD DUP1 MLOAD SWAP1 PUSH1 0x1 PUSH1 0x1 PUSH1 0x40 SHL SUB DUP3 GT PUSH2 0x819 JUMPI DUP2 SWAP1 PUSH2 0x523 DUP3 PUSH2 0x51A PUSH1 0x2 DUP9 ADD SLOAD PUSH2 0xBBC JUMP JUMPDEST PUSH1 0x2 DUP9 ADD PUSH2 0xDD6 JUMP JUMPDEST PUSH1 0x20 SWAP1 PUSH1 0x1F DUP4 GT PUSH1 0x1 EQ PUSH2 0x9AC JUMPI PUSH1 0x0 SWAP3 PUSH2 0x9A1 JUMPI JUMPDEST POP POP DUP2 PUSH1 0x1 SHL SWAP2 PUSH1 0x0 NOT SWAP1 PUSH1 0x3 SHL SHR NOT AND OR PUSH1 0x2 DUP4 ADD SSTORE JUMPDEST PUSH1 0x60 DUP2 ADD MLOAD DUP1 MLOAD SWAP1 PUSH1 0x1 PUSH1 0x1 PUSH1 0x40 SHL SUB DUP3 GT PUSH2 0x819 JUMPI DUP2 SWAP1 PUSH2 0x583 DUP3 PUSH2 0x57A PUSH1 0x3 DUP9 ADD SLOAD PUSH2 0xBBC JUMP JUMPDEST PUSH1 0x3 DUP9 ADD PUSH2 0xDD6 JUMP JUMPDEST PUSH1 0x20 SWAP1 PUSH1 0x1F DUP4 GT PUSH1 0x1 EQ PUSH2 0x92F JUMPI PUSH1 0x0 SWAP3 PUSH2 0x924 JUMPI JUMPDEST POP POP DUP2 PUSH1 0x1 SHL SWAP2 PUSH1 0x0 NOT SWAP1 PUSH1 0x3 SHL SHR NOT AND OR PUSH1 0x3 DUP4 ADD SSTORE JUMPDEST PUSH1 0x80 DUP2 ADD MLOAD DUP1 MLOAD SWAP1 PUSH1 0x1 PUSH1 0x1 PUSH1 0x40 SHL SUB DUP3 GT PUSH2 0x819 JUMPI PUSH2 0x5E1 DUP3 PUSH2 0x5D8 PUSH1 0x4 DUP8 ADD SLOAD PUSH2 0xBBC JUMP JUMPDEST PUSH1 0x4 DUP8 ADD PUSH2 0xDD6 JUMP JUMPDEST PUSH1 0x20 SWAP1 PUSH1 0x1F DUP4 GT PUSH1 0x1 EQ PUSH2 0x8B1 JUMPI PUSH1 0xA0 SWAP4 SWAP3 SWAP2 PUSH1 0x0 SWAP2 DUP4 PUSH2 0x8A6 JUMPI JUMPDEST POP POP DUP2 PUSH1 0x1 SHL SWAP2 PUSH1 0x0 NOT SWAP1 PUSH1 0x3 SHL SHR NOT AND OR PUSH1 0x4 DUP5 ADD SSTORE JUMPDEST ADD MLOAD SWAP1 DUP2 MLOAD SWAP1 PUSH1 0x1 PUSH1 0x1 PUSH1 0x40 SHL SUB DUP3 GT PUSH2 0x819 JUMPI PUSH1 0x5 DUP3 SWAP2 ADD SWAP3 PUSH2 0x643 DUP3 PUSH2 0x63D DUP7 SLOAD PUSH2 0xBBC JUMP JUMPDEST DUP7 PUSH2 0xDD6 JUMP JUMPDEST PUSH1 0x20 SWAP1 PUSH1 0x1F DUP4 GT PUSH1 0x1 EQ PUSH2 0x83A JUMPI PUSH1 0x0 SWAP3 PUSH2 0x82F JUMPI JUMPDEST POP POP DUP2 PUSH1 0x1 SHL SWAP2 PUSH1 0x0 NOT SWAP1 PUSH1 0x3 SHL SHR NOT AND OR SWAP1 SSTORE JUMPDEST PUSH1 0x2 SLOAD PUSH9 0x10000000000000000 DUP2 LT ISZERO PUSH2 0x819 JUMPI DUP1 PUSH1 0x1 PUSH2 0x692 SWAP3 ADD PUSH1 0x2 SSTORE PUSH2 0xB6F JUMP JUMPDEST PUSH2 0x28F JUMPI PUSH1 0x80 MLOAD PUSH1 0x1 PUSH1 0x1 PUSH1 0x40 SHL SUB DUP2 GT PUSH2 0x819 JUMPI PUSH2 0x6BB SWAP1 PUSH2 0x6B5 DUP4 SLOAD PUSH2 0xBBC JUMP JUMPDEST DUP4 PUSH2 0xDD6 JUMP JUMPDEST PUSH1 0x0 PUSH1 0x80 MLOAD PUSH1 0x1F DUP2 GT PUSH1 0x1 EQ PUSH2 0x7AE JUMPI POP PUSH1 0x0 PUSH1 0x80 MLOAD SWAP2 DUP3 PUSH2 0x7A1 JUMPI JUMPDEST POP DUP2 PUSH1 0x1 SHL SWAP2 PUSH1 0x0 NOT SWAP1 PUSH1 0x3 SHL SHR NOT AND OR SWAP1 SSTORE JUMPDEST PUSH1 0x40 MLOAD SWAP11 DUP12 SWAP11 PUSH1 0xE0 DUP13 MSTORE PUSH1 0xE0 DUP13 ADD PUSH1 0x80 MLOAD SWAP1 PUSH1 0xA0 MLOAD SWAP2 PUSH2 0x70B SWAP3 PUSH2 0xE2A JUMP JUMPDEST SWAP1 DUP13 DUP1 DUP4 SUB SWAP1 PUSH1 0x20 ADD MSTORE PUSH2 0x71E SWAP3 PUSH2 0xE2A JUMP JUMPDEST SWAP1 DUP11 DUP3 SUB PUSH1 0x40 DUP13 ADD MSTORE PUSH2 0x730 SWAP3 PUSH2 0xE2A JUMP JUMPDEST SWAP1 DUP9 DUP3 SUB PUSH1 0x60 DUP11 ADD MSTORE PUSH2 0x742 SWAP3 PUSH2 0xE2A JUMP JUMPDEST SWAP1 DUP7 DUP3 SUB PUSH1 0x80 DUP9 ADD MSTORE PUSH2 0x754 SWAP3 PUSH2 0xE2A JUMP JUMPDEST SWAP1 DUP5 DUP3 SUB PUSH1 0xA0 DUP7 ADD MSTORE PUSH2 0x766 SWAP3 PUSH2 0xE2A JUMP JUMPDEST DUP3 DUP2 SUB PUSH1 0xC0 DUP5 ADD MSTORE PUSH1 0xC0 MLOAD SWAP2 PUSH2 0x77B SWAP3 PUSH2 0xE2A JUMP JUMPDEST SUB PUSH32 0x9C366A982359867400FDA3CE7E1E8EE7700A45F551374BB36692C1F8CC3EA78 SWAP2 LOG1 STOP JUMPDEST SWAP1 POP PUSH1 0xA0 MLOAD ADD CALLDATALOAD DUP15 PUSH2 0x6D8 JUMP JUMPDEST DUP3 PUSH1 0x0 MSTORE PUSH1 0x20 PUSH1 0x0 KECCAK256 PUSH1 0x0 SWAP3 PUSH1 0xA0 MLOAD SWAP1 JUMPDEST PUSH1 0x1F NOT DUP5 AND DUP6 LT PUSH2 0x801 JUMPI PUSH1 0x1 SWAP5 POP DUP4 PUSH1 0x1F NOT DUP2 AND LT PUSH2 0x7E7 JUMPI JUMPDEST POP POP POP DUP2 SHL ADD SWAP1 SSTORE PUSH2 0x6EC JUMP JUMPDEST ADD CALLDATALOAD PUSH1 0x0 NOT PUSH1 0x3 DUP5 SWAP1 SHL PUSH1 0xF8 AND SHR NOT AND SWAP1 SSTORE DUP15 DUP1 DUP1 PUSH2 0x7DA JUMP JUMPDEST DUP2 DUP2 ADD CALLDATALOAD DUP4 SSTORE PUSH1 0x20 SWAP5 DUP6 ADD SWAP5 PUSH1 0x1 SWAP1 SWAP4 ADD SWAP3 ADD PUSH2 0x7BF JUMP JUMPDEST PUSH4 0x4E487B71 PUSH1 0xE0 SHL PUSH1 0x0 MSTORE PUSH1 0x41 PUSH1 0x4 MSTORE PUSH1 0x24 PUSH1 0x0 REVERT JUMPDEST ADD MLOAD SWAP1 POP DUP15 DUP1 PUSH2 0x659 JUMP JUMPDEST SWAP3 POP DUP4 PUSH1 0x0 MSTORE PUSH1 0x20 PUSH1 0x0 KECCAK256 SWAP1 PUSH1 0x0 SWAP4 JUMPDEST PUSH1 0x1F NOT DUP5 AND DUP6 LT PUSH2 0x88B JUMPI PUSH1 0x1 SWAP5 POP DUP4 PUSH1 0x1F NOT DUP2 AND LT PUSH2 0x872 JUMPI JUMPDEST POP POP POP DUP2 SHL ADD SWAP1 SSTORE PUSH2 0x66E JUMP JUMPDEST ADD MLOAD PUSH1 0x0 NOT PUSH1 0xF8 DUP5 PUSH1 0x3 SHL AND SHR NOT AND SWAP1 SSTORE DUP15 DUP1 DUP1 PUSH2 0x865 JUMP JUMPDEST DUP2 DUP2 ADD MLOAD DUP4 SSTORE PUSH1 0x20 SWAP5 DUP6 ADD SWAP5 PUSH1 0x1 SWAP1 SWAP4 ADD SWAP3 SWAP1 SWAP2 ADD SWAP1 PUSH2 0x84A JUMP JUMPDEST ADD MLOAD SWAP1 POP CODESIZE DUP1 PUSH2 0x5FD JUMP JUMPDEST SWAP1 PUSH1 0x4 DUP6 ADD PUSH1 0x0 MSTORE PUSH1 0x20 PUSH1 0x0 KECCAK256 SWAP2 PUSH1 0x0 JUMPDEST PUSH1 0x1F NOT DUP6 AND DUP2 LT PUSH2 0x90C JUMPI POP SWAP2 DUP4 SWAP2 PUSH1 0x1 SWAP4 PUSH1 0xA0 SWAP7 SWAP6 PUSH1 0x1F NOT DUP2 AND LT PUSH2 0x8F3 JUMPI JUMPDEST POP POP POP DUP2 SHL ADD PUSH1 0x4 DUP5 ADD SSTORE PUSH2 0x615 JUMP JUMPDEST ADD MLOAD PUSH1 0x0 NOT PUSH1 0xF8 DUP5 PUSH1 0x3 SHL AND SHR NOT AND SWAP1 SSTORE CODESIZE DUP1 DUP1 PUSH2 0x8E3 JUMP JUMPDEST SWAP2 SWAP3 PUSH1 0x20 PUSH1 0x1 DUP2 SWAP3 DUP7 DUP6 ADD MLOAD DUP2 SSTORE ADD SWAP5 ADD SWAP3 ADD PUSH2 0x8C2 JUMP JUMPDEST ADD MLOAD SWAP1 POP DUP16 DUP1 PUSH2 0x599 JUMP JUMPDEST SWAP3 POP PUSH1 0x3 DUP6 ADD PUSH1 0x0 MSTORE PUSH1 0x20 PUSH1 0x0 KECCAK256 SWAP1 PUSH1 0x0 SWAP4 JUMPDEST PUSH1 0x1F NOT DUP5 AND DUP6 LT PUSH2 0x986 JUMPI PUSH1 0x1 SWAP5 POP DUP4 PUSH1 0x1F NOT DUP2 AND LT PUSH2 0x96D JUMPI JUMPDEST POP POP POP DUP2 SHL ADD PUSH1 0x3 DUP4 ADD SSTORE PUSH2 0x5B1 JUMP JUMPDEST ADD MLOAD PUSH1 0x0 NOT PUSH1 0xF8 DUP5 PUSH1 0x3 SHL AND SHR NOT AND SWAP1 SSTORE DUP16 DUP1 DUP1 PUSH2 0x95D JUMP JUMPDEST DUP2 DUP2 ADD MLOAD DUP4 SSTORE PUSH1 0x20 SWAP5 DUP6 ADD SWAP5 PUSH1 0x1 SWAP1 SWAP4 ADD SWAP3 SWAP1 SWAP2 ADD SWAP1 PUSH2 0x942 JUMP JUMPDEST ADD MLOAD SWAP1 POP DUP16 DUP1 PUSH2 0x539 JUMP JUMPDEST SWAP3 POP PUSH1 0x2 DUP6 ADD PUSH1 0x0 MSTORE PUSH1 0x20 PUSH1 0x0 KECCAK256 SWAP1 PUSH1 0x0 SWAP4 JUMPDEST PUSH1 0x1F NOT DUP5 AND DUP6 LT PUSH2 0xA03 JUMPI PUSH1 0x1 SWAP5 POP DUP4 PUSH1 0x1F NOT DUP2 AND LT PUSH2 0x9EA JUMPI JUMPDEST POP POP POP DUP2 SHL ADD PUSH1 0x2 DUP4 ADD SSTORE PUSH2 0x551 JUMP JUMPDEST ADD MLOAD PUSH1 0x0 NOT PUSH1 0xF8 DUP5 PUSH1 0x3 SHL AND SHR NOT AND SWAP1 SSTORE DUP16 DUP1 DUP1 PUSH2 0x9DA JUMP JUMPDEST DUP2 DUP2 ADD MLOAD DUP4 SSTORE PUSH1 0x20 SWAP5 DUP6 ADD SWAP5 PUSH1 0x1 SWAP1 SWAP4 ADD SWAP3 SWAP1 SWAP2 ADD SWAP1 PUSH2 0x9BF JUMP JUMPDEST ADD MLOAD SWAP1 POP DUP16 DUP1 PUSH2 0x4D9 JUMP JUMPDEST SWAP3 POP PUSH1 0x1 DUP6 ADD PUSH1 0x0 MSTORE PUSH1 0x20 PUSH1 0x0 KECCAK256 SWAP1 PUSH1 0x0 SWAP4 JUMPDEST PUSH1 0x1F NOT DUP5 AND DUP6 LT PUSH2 0xA80 JUMPI PUSH1 0x1 SWAP5 POP DUP4 PUSH1 0x1F NOT DUP2 AND LT PUSH2 0xA67 JUMPI JUMPDEST POP POP POP DUP2 SHL ADD PUSH1 0x1 DUP4 ADD SSTORE PUSH2 0x4F1 JUMP JUMPDEST ADD MLOAD PUSH1 0x0 NOT PUSH1 0xF8 DUP5 PUSH1 0x3 SHL AND SHR NOT AND SWAP1 SSTORE DUP16 DUP1 DUP1 PUSH2 0xA57 JUMP JUMPDEST DUP2 DUP2 ADD MLOAD DUP4 SSTORE PUSH1 0x20 SWAP5 DUP6 ADD SWAP5 PUSH1 0x1 SWAP1 SWAP4 ADD SWAP3 SWAP1 SWAP2 ADD SWAP1 PUSH2 0xA3C JUMP JUMPDEST ADD MLOAD SWAP1 POP DUP16 DUP1 PUSH2 0x47C JUMP JUMPDEST SWAP3 POP DUP5 PUSH1 0x0 MSTORE PUSH1 0x20 PUSH1 0x0 KECCAK256 SWAP1 PUSH1 0x0 SWAP4 JUMPDEST PUSH1 0x1F NOT DUP5 AND DUP6 LT PUSH2 0xAF7 JUMPI PUSH1 0x1 SWAP5 POP DUP4 PUSH1 0x1F NOT DUP2 AND LT PUSH2 0xADE JUMPI JUMPDEST POP POP POP DUP2 SHL ADD DUP3 SSTORE PUSH2 0x491 JUMP JUMPDEST ADD MLOAD PUSH1 0x0 NOT PUSH1 0xF8 DUP5 PUSH1 0x3 SHL AND SHR NOT AND SWAP1 SSTORE DUP16 DUP1 DUP1 PUSH2 0xAD1 JUMP JUMPDEST DUP2 DUP2 ADD MLOAD DUP4 SSTORE PUSH1 0x20 SWAP5 DUP6 ADD SWAP5 PUSH1 0x1 SWAP1 SWAP4 ADD SWAP3 SWAP1 SWAP2 ADD SWAP1 PUSH2 0xAB6 JUMP JUMPDEST PUSH3 0x461BCD PUSH1 0xE5 SHL DUP2 MSTORE PUSH1 0x20 PUSH1 0x4 DUP3 ADD MSTORE PUSH1 0xB PUSH1 0x24 DUP3 ADD MSTORE PUSH11 0x139BDD081CDD195DD85C99 PUSH1 0xAA SHL PUSH1 0x44 DUP3 ADD MSTORE PUSH1 0x64 SWAP1 REVERT JUMPDEST SWAP2 DUP2 PUSH1 0x1F DUP5 ADD SLT ISZERO PUSH2 0x11F JUMPI DUP3 CALLDATALOAD SWAP2 PUSH1 0x1 PUSH1 0x1 PUSH1 0x40 SHL SUB DUP4 GT PUSH2 0x11F JUMPI PUSH1 0x20 DUP4 DUP2 DUP7 ADD SWAP6 ADD ADD GT PUSH2 0x11F JUMPI JUMP JUMPDEST PUSH1 0x2 SLOAD DUP2 LT ISZERO PUSH2 0xBA6 JUMPI PUSH1 0x2 PUSH1 0x0 MSTORE PUSH32 0x405787FA12A823E0F2B7631CC41B3BA8828B3321CA811111FA75CD3AA3BB5ACE ADD SWAP1 PUSH1 0x0 SWAP1 JUMP JUMPDEST PUSH4 0x4E487B71 PUSH1 0xE0 SHL PUSH1 0x0 MSTORE PUSH1 0x32 PUSH1 0x4 MSTORE PUSH1 0x24 PUSH1 0x0 REVERT JUMPDEST SWAP1 PUSH1 0x1 DUP3 DUP2 SHR SWAP3 AND DUP1 ISZERO PUSH2 0xBEC JUMPI JUMPDEST PUSH1 0x20 DUP4 LT EQ PUSH2 0xBD6 JUMPI JUMP JUMPDEST PUSH4 0x4E487B71 PUSH1 0xE0 SHL PUSH1 0x0 MSTORE PUSH1 0x22 PUSH1 0x4 MSTORE PUSH1 0x24 PUSH1 0x0 REVERT JUMPDEST SWAP2 PUSH1 0x7F AND SWAP2 PUSH2 0xBCB JUMP JUMPDEST PUSH1 0xC0 DUP2 ADD SWAP1 DUP2 LT PUSH1 0x1 PUSH1 0x1 PUSH1 0x40 SHL SUB DUP3 GT OR PUSH2 0x819 JUMPI PUSH1 0x40 MSTORE JUMP JUMPDEST SWAP1 PUSH1 0x1F DUP1 NOT SWAP2 ADD AND DUP2 ADD SWAP1 DUP2 LT PUSH1 0x1 PUSH1 0x1 PUSH1 0x40 SHL SUB DUP3 GT OR PUSH2 0x819 JUMPI PUSH1 0x40 MSTORE JUMP JUMPDEST SWAP1 PUSH1 0x40 MLOAD SWAP2 DUP3 PUSH1 0x0 DUP3 SLOAD SWAP3 PUSH2 0xC46 DUP5 PUSH2 0xBBC JUMP JUMPDEST SWAP1 DUP2 DUP5 MSTORE PUSH1 0x1 SWAP5 DUP6 DUP2 AND SWAP1 DUP2 PUSH1 0x0 EQ PUSH2 0xCB5 JUMPI POP PUSH1 0x1 EQ PUSH2 0xC72 JUMPI JUMPDEST POP POP PUSH2 0xC70 SWAP3 POP SUB DUP4 PUSH2 0xC11 JUMP JUMPDEST JUMP JUMPDEST SWAP1 SWAP4 SWAP2 POP PUSH1 0x0 MSTORE PUSH1 0x20 SWAP1 DUP2 PUSH1 0x0 KECCAK256 SWAP4 PUSH1 0x0 SWAP2 JUMPDEST DUP2 DUP4 LT PUSH2 0xC9D JUMPI POP POP PUSH2 0xC70 SWAP4 POP DUP3 ADD ADD CODESIZE DUP1 PUSH2 0xC62 JUMP JUMPDEST DUP6 SLOAD DUP9 DUP5 ADD DUP6 ADD MSTORE SWAP5 DUP6 ADD SWAP5 DUP8 SWAP5 POP SWAP2 DUP4 ADD SWAP2 PUSH2 0xC85 JUMP JUMPDEST SWAP2 POP POP PUSH2 0xC70 SWAP5 POP PUSH1 0x20 SWAP3 POP PUSH1 0xFF NOT AND DUP3 DUP5 ADD MSTORE ISZERO ISZERO PUSH1 0x5 SHL DUP3 ADD ADD CODESIZE DUP1 PUSH2 0xC62 JUMP JUMPDEST PUSH1 0x0 JUMPDEST DUP4 DUP2 LT PUSH2 0xCEB JUMPI POP POP PUSH1 0x0 SWAP2 ADD MSTORE JUMP JUMPDEST DUP2 DUP2 ADD MLOAD DUP4 DUP3 ADD MSTORE PUSH1 0x20 ADD PUSH2 0xCDB JUMP JUMPDEST SWAP1 PUSH1 0x20 SWAP2 PUSH2 0xD14 DUP2 MLOAD DUP1 SWAP3 DUP2 DUP6 MSTORE DUP6 DUP1 DUP7 ADD SWAP2 ADD PUSH2 0xCD8 JUMP JUMPDEST PUSH1 0x1F ADD PUSH1 0x1F NOT AND ADD ADD SWAP1 JUMP JUMPDEST SWAP5 SWAP2 SWAP4 PUSH2 0xD63 PUSH2 0xD7F SWAP5 PUSH2 0xD55 PUSH2 0xD8D SWAP10 SWAP8 PUSH2 0xD47 PUSH2 0xD71 SWAP7 PUSH1 0xC0 DUP13 MSTORE PUSH1 0xC0 DUP13 ADD SWAP1 PUSH2 0xCFB JUMP JUMPDEST SWAP1 DUP11 DUP3 SUB PUSH1 0x20 DUP13 ADD MSTORE PUSH2 0xCFB JUMP JUMPDEST SWAP1 DUP9 DUP3 SUB PUSH1 0x40 DUP11 ADD MSTORE PUSH2 0xCFB JUMP JUMPDEST SWAP1 DUP7 DUP3 SUB PUSH1 0x60 DUP9 ADD MSTORE PUSH2 0xCFB JUMP JUMPDEST SWAP1 DUP5 DUP3 SUB PUSH1 0x80 DUP7 ADD MSTORE PUSH2 0xCFB JUMP JUMPDEST SWAP2 PUSH1 0xA0 DUP2 DUP5 SUB SWAP2 ADD MSTORE PUSH2 0xCFB JUMP JUMPDEST SWAP1 JUMP JUMPDEST SWAP3 SWAP2 SWAP3 PUSH1 0x1 PUSH1 0x1 PUSH1 0x40 SHL SUB DUP3 GT PUSH2 0x819 JUMPI PUSH1 0x40 MLOAD SWAP2 PUSH2 0xDB9 PUSH1 0x1F DUP3 ADD PUSH1 0x1F NOT AND PUSH1 0x20 ADD DUP5 PUSH2 0xC11 JUMP JUMPDEST DUP3 SWAP5 DUP2 DUP5 MSTORE DUP2 DUP4 ADD GT PUSH2 0x11F JUMPI DUP3 DUP2 PUSH1 0x20 SWAP4 DUP5 PUSH1 0x0 SWAP7 ADD CALLDATACOPY ADD ADD MSTORE JUMP JUMPDEST SWAP1 PUSH1 0x1F DUP2 GT PUSH2 0xDE4 JUMPI POP POP POP JUMP JUMPDEST PUSH1 0x0 SWAP2 DUP3 MSTORE PUSH1 0x20 DUP3 KECCAK256 SWAP1 PUSH1 0x20 PUSH1 0x1F DUP6 ADD PUSH1 0x5 SHR DUP4 ADD SWAP5 LT PUSH2 0xE20 JUMPI JUMPDEST PUSH1 0x1F ADD PUSH1 0x5 SHR ADD SWAP2 JUMPDEST DUP3 DUP2 LT PUSH2 0xE15 JUMPI POP POP POP JUMP JUMPDEST DUP2 DUP2 SSTORE PUSH1 0x1 ADD PUSH2 0xE09 JUMP JUMPDEST SWAP1 SWAP3 POP DUP3 SWAP1 PUSH2 0xE00 JUMP JUMPDEST SWAP1 DUP1 PUSH1 0x20 SWAP4 SWAP3 DUP2 DUP5 MSTORE DUP5 DUP5 ADD CALLDATACOPY PUSH1 0x0 DUP3 DUP3 ADD DUP5 ADD MSTORE PUSH1 0x1F ADD PUSH1 0x1F NOT AND ADD ADD SWAP1 JUMP INVALID LOG2 PUSH5 0x6970667358 0x22 SLT KECCAK256 GAS 0xE8 SELFBALANCE 0xD8 RETURNDATASIZE DUP1 PUSH16 0xEFE4C837D4E81A2157108C77459F4E34 0xB2 0xCD 0xD0 0xE4 EXTCODESIZE 0xAB 0xED SIGNEXTEND CALLVALUE PUSH5 0x736F6C6343 STOP ADDMOD EQ STOP CALLER "},"methodIdentifiers":{"codices(string)":"dbc21424","getCodex(string)":"83361522","inscribeCodex(string,string,string,string,string,string,string)":"0c41547a","keys(uint256)":"0cb6aaf1","steward()":"637eea19","totalCodices()":"c212d16b"}}}}}