{"contracts/registry/ApprenticeSummonerXV.sol":{"ApprenticeSummonerXV":{"abi":[{"inputs":[],"stateMutability":"nonpayable","type":"constructor"},{"anonymous":false,"inputs":[{"indexed":true,"internalType":"address","name":"apprentice","type":"address"},{"indexed":false,"internalType":"string","name":"name","type":"string"},{"indexed":false,"internalType":"string","name":"signal","type":"string"},{"indexed":false,"internalType":"string","name":"drift","type":"string"},{"indexed":false,"internalType":"string","name":"pulse","type":"string"},{"indexed":false,"internalType":"string","name":"codexRef","type":"string"},{"indexed":false,"internalType":"string","name":"resonance","type":"string"},{"indexed":false,"internalType":"string","name":"signature","type":"string"},{"indexed":false,"internalType":"string","name":"sanctum","type":"string"},{"indexed":false,"internalType":"string","name":"chant","type":"string"},{"indexed":false,"internalType":"string","name":"choreography","type":"string"},{"indexed":false,"internalType":"string","name":"stewardName","type":"string"},{"indexed":false,"internalType":"string","name":"echo","type":"string"}],"name":"ApprenticeSummoned","type":"event"},{"inputs":[{"internalType":"uint256","name":"","type":"uint256"}],"name":"apprentices","outputs":[{"internalType":"address","name":"","type":"address"}],"stateMutability":"view","type":"function"},{"inputs":[{"internalType":"address","name":"apprentice","type":"address"}],"name":"getSummons","outputs":[{"components":[{"internalType":"string","name":"name","type":"string"},{"internalType":"string","name":"signal","type":"string"},{"internalType":"string","name":"drift","type":"string"},{"internalType":"string","name":"pulse","type":"string"},{"internalType":"string","name":"codexRef","type":"string"},{"internalType":"string","name":"resonance","type":"string"},{"internalType":"string","name":"signature","type":"string"},{"internalType":"string","name":"sanctum","type":"string"},{"internalType":"string","name":"chant","type":"string"},{"internalType":"string","name":"choreography","type":"string"},{"internalType":"string","name":"stewardName","type":"string"},{"internalType":"string","name":"echo","type":"string"}],"internalType":"struct ApprenticeSummonerXV.Summons","name":"","type":"tuple"}],"stateMutability":"view","type":"function"},{"inputs":[],"name":"steward","outputs":[{"internalType":"address","name":"","type":"address"}],"stateMutability":"view","type":"function"},{"inputs":[{"internalType":"address","name":"apprentice","type":"address"},{"internalType":"string","name":"name","type":"string"},{"internalType":"string","name":"signal","type":"string"},{"internalType":"string","name":"drift","type":"string"},{"internalType":"string","name":"pulse","type":"string"},{"internalType":"string","name":"codexRef","type":"string"},{"internalType":"string","name":"resonance","type":"string"},{"internalType":"string","name":"signature","type":"string"},{"internalType":"string","name":"sanctum","type":"string"},{"internalType":"string","name":"chant","type":"string"},{"internalType":"string","name":"choreography","type":"string"},{"internalType":"string","name":"stewardName","type":"string"},{"internalType":"string","name":"echo","type":"string"}],"name":"summonApprentice","outputs":[],"stateMutability":"nonpayable","type":"function"},{"inputs":[{"internalType":"address","name":"","type":"address"}],"name":"summons","outputs":[{"internalType":"string","name":"name","type":"string"},{"internalType":"string","name":"signal","type":"string"},{"internalType":"string","name":"drift","type":"string"},{"internalType":"string","name":"pulse","type":"string"},{"internalType":"string","name":"codexRef","type":"string"},{"internalType":"string","name":"resonance","type":"string"},{"internalType":"string","name":"signature","type":"string"},{"internalType":"string","name":"sanctum","type":"string"},{"internalType":"string","name":"chant","type":"string"},{"internalType":"string","name":"choreography","type":"string"},{"internalType":"string","name":"stewardName","type":"string"},{"internalType":"string","name":"echo","type":"string"}],"stateMutability":"view","type":"function"},{"inputs":[],"name":"totalSummons","outputs":[{"internalType":"uint256","name":"","type":"uint256"}],"stateMutability":"view","type":"function"}],"evm":{"bytecode":{"linkReferences":{},"object":"6080806040523461002857600080546001600160a01b03191633179055611b4e908161002e8239f35b600080fdfe6103e080604052600436101561001457600080fd5b60003560e01c9081632a17d4cd146118a9575080635a2ed6621461170f578063637eea19146116e6578063cf84c6031461144a578063d1f4eb5c146100a95763f31bee3e1461006257600080fd5b346100a45760203660031901126100a4576004356002548110156100a45761008b602091611a64565b905460405160039290921b1c6001600160a01b03168152f35b600080fd5b346100a4576101a03660031901126100a4576100c36118c4565b6102c0526024356001600160401b0381116100a4576100e6903690600401611a37565b610200526102a0526044356001600160401b0381116100a45761010d903690600401611a37565b610240526080526064356001600160401b0381116100a457610133903690600401611a37565b610100526101c0526084356001600160401b0381116100a45761015a903690600401611a37565b610280526101805260a4356001600160401b0381116100a457610181903690600401611a37565b6103c0526101e05260c4356001600160401b0381116100a4576101a8903690600401611a37565b610300526103405260e4356001600160401b0381116100a4576101cf903690600401611a37565b6102605260a052610104356001600160401b0381116100a4576101f6903690600401611a37565b61014052610380526001600160401b0361012435116100a45761021f3661012435600401611a37565b6102e0526103a0526001600160401b0361014435116100a4576102483661014435600401611a37565b610160526101a052610164356001600160401b0381116100a457610270903690600401611a37565b6103605260c0526001600160401b0361018435116100a4576102983661018435600401611a37565b6102205260e0526000546001600160a01b03163303611417576102c16040518061032052611914565b6102d236610200516102a051611ab1565b61032051526102e73661024051608051611ab1565b602061032051015261030036610100516101c051611ab1565b6040610320510152610319366102805161018051611ab1565b6060610320510152610332366103c0516101e051611ab1565b608061032051015261034b366103005161034051611ab1565b60a0610320510152610363366102605160a051611ab1565b60c061032051015261037c366101405161038051611ab1565b60e0610320510152610395366102e0516103a051611ab1565b6101006103205101526103af36610160516101a051611ab1565b6101206103205101526103c8366103605160c051611ab1565b6101406103205101526103e1366102205160e051611ab1565b61016061032051015260018060a01b036102c051166000526001602052604060002061032051518051906001600160401b038211610a5a57819061042584546118da565b601f81116113c7575b50602090601f831160011461135b57600092611350575b50508160011b916000199060031b1c19161781555b60206103205101518051906001600160401b038211610a5a57819061048260018501546118da565b601f81116112fd575b50602090601f831160011461128b57600092611280575b50508160011b916000199060031b1c19161760018201555b60406103205101518051906001600160401b038211610a5a5781906104e260028501546118da565b601f811161122d575b50602090601f83116001146111bb576000926111b0575b50508160011b916000199060031b1c19161760028201555b60606103205101518051906001600160401b038211610a5a57819061054260038501546118da565b601f811161115d575b50602090601f83116001146110eb576000926110e0575b50508160011b916000199060031b1c19161760038201555b60806103205101518051906001600160401b038211610a5a5781906105a260048501546118da565b601f811161108d575b50602090601f831160011461101b57600092611010575b50508160011b916000199060031b1c19161760048201555b60a06103205101518051906001600160401b038211610a5a57819061060260058501546118da565b601f8111610fbd575b50602090601f8311600114610f4b57600092610f40575b50508160011b916000199060031b1c19161760058201555b60c06103205101518051906001600160401b038211610a5a57819061066260068501546118da565b601f8111610eed575b50602090601f8311600114610e7b57600092610e70575b50508160011b916000199060031b1c19161760068201555b60e06103205101518051906001600160401b038211610a5a5781906106c260078501546118da565b601f8111610e1d575b50602090601f8311600114610dab57600092610da0575b50508160011b916000199060031b1c19161760078201555b6101006103205101518051906001600160401b038211610a5a57819061072360088501546118da565b601f8111610d4d575b50602090601f8311600114610cdb57600092610cd0575b50508160011b916000199060031b1c19161760088201555b6101206103205101518051906001600160401b038211610a5a57819061078460098501546118da565b601f8111610c7d575b50602090601f8311600114610c0b57600092610c00575b50508160011b916000199060031b1c19161760098201555b6101406103205101518051906001600160401b038211610a5a5781906107e5600a8501546118da565b601f8111610bad575b50602090601f8311600114610b3b57600092610b30575b50508160011b916000199060031b1c191617600a8201555b6101606103205101518051906001600160401b038211610a5a57610844600b8401546118da565b601f8111610ae9575b50602090601f8311600114610a7b57600b929160009183610a70575b50508160011b916000199060031b1c1916179101555b60025468010000000000000000811015610a5a578060016108a39201600255611a64565b81549060031b9060018060a01b036102c05116821b9160018060a01b03901b1916179055610180604051806101205252610a036109ea6109d06109b661099d61098561096c61095361093a6109216109096101806101205101610200516102a051611af7565b61012051602081830391015261024051608051611af7565b610120516040818303910152610100516101c051611af7565b6101205160608183039101526102805161018051611af7565b6101205160808183039101526103c0516101e051611af7565b6101205160a08183039101526103005161034051611af7565b6101205160c08183039101526102605160a051611af7565b6101205160e08183039101526101405161038051611af7565b610120516101008183039101526102e0516103a051611af7565b61012051610120818303910152610160516101a051611af7565b610120516101408183039101526103605160c051611af7565b610120516101608183039101527f9803ec95eca0b09e807154671ded1b6861912c3f83a26ef17db80ed73d189b4a60018060a01b036102c0511691610a5261012051916102205160e051611af7565b0361012051a2005b634e487b7160e01b600052604160045260246000fd5b015190508480610869565b90600b84016000526020600020916000601f198516905b818110610ad15750916001939185600b969410610ab8575b505050811b0191015561087f565b015160001960f88460031b161c19169055848080610aaa565b92936020600181928786015181550195019301610a92565b600b84016000526020600020601f840160051c810160208510610b29575b601f830160051c82018110610b1d57505061084d565b60008155600101610b07565b5080610b07565b015190508380610805565b9250600a84016000526020600020906000935b601f1984168510610b92576001945083601f19811610610b79575b505050811b01600a82015561081d565b015160001960f88460031b161c19169055838080610b69565b81810151835560209485019460019093019290910190610b4e565b909150600a84016000526020600020601f840160051c810160208510610bf9575b90849392915b601f830160051c82018110610bea5750506107ee565b60008155859450600101610bd4565b5080610bce565b0151905083806107a4565b9250600984016000526020600020906000935b601f1984168510610c62576001945083601f19811610610c49575b505050811b0160098201556107bc565b015160001960f88460031b161c19169055838080610c39565b81810151835560209485019460019093019290910190610c1e565b909150600984016000526020600020601f840160051c810160208510610cc9575b90849392915b601f830160051c82018110610cba57505061078d565b60008155859450600101610ca4565b5080610c9e565b015190508380610743565b9250600884016000526020600020906000935b601f1984168510610d32576001945083601f19811610610d19575b505050811b01600882015561075b565b015160001960f88460031b161c19169055838080610d09565b81810151835560209485019460019093019290910190610cee565b909150600884016000526020600020601f840160051c810160208510610d99575b90849392915b601f830160051c82018110610d8a57505061072c565b60008155859450600101610d74565b5080610d6e565b0151905083806106e2565b9250600784016000526020600020906000935b601f1984168510610e02576001945083601f19811610610de9575b505050811b0160078201556106fa565b015160001960f88460031b161c19169055838080610dd9565b81810151835560209485019460019093019290910190610dbe565b909150600784016000526020600020601f840160051c810160208510610e69575b90849392915b601f830160051c82018110610e5a5750506106cb565b60008155859450600101610e44565b5080610e3e565b015190508380610682565b9250600684016000526020600020906000935b601f1984168510610ed2576001945083601f19811610610eb9575b505050811b01600682015561069a565b015160001960f88460031b161c19169055838080610ea9565b81810151835560209485019460019093019290910190610e8e565b909150600684016000526020600020601f840160051c810160208510610f39575b90849392915b601f830160051c82018110610f2a57505061066b565b60008155859450600101610f14565b5080610f0e565b015190508380610622565b9250600584016000526020600020906000935b601f1984168510610fa2576001945083601f19811610610f89575b505050811b01600582015561063a565b015160001960f88460031b161c19169055838080610f79565b81810151835560209485019460019093019290910190610f5e565b909150600584016000526020600020601f840160051c810160208510611009575b90849392915b601f830160051c82018110610ffa57505061060b565b60008155859450600101610fe4565b5080610fde565b0151905083806105c2565b9250600484016000526020600020906000935b601f1984168510611072576001945083601f19811610611059575b505050811b0160048201556105da565b015160001960f88460031b161c19169055838080611049565b8181015183556020948501946001909301929091019061102e565b909150600484016000526020600020601f840160051c8101602085106110d9575b90849392915b601f830160051c820181106110ca5750506105ab565b600081558594506001016110b4565b50806110ae565b015190508380610562565b9250600384016000526020600020906000935b601f1984168510611142576001945083601f19811610611129575b505050811b01600382015561057a565b015160001960f88460031b161c19169055838080611119565b818101518355602094850194600190930192909101906110fe565b909150600384016000526020600020601f840160051c8101602085106111a9575b90849392915b601f830160051c8201811061119a57505061054b565b60008155859450600101611184565b508061117e565b015190508380610502565b9250600284016000526020600020906000935b601f1984168510611212576001945083601f198116106111f9575b505050811b01600282015561051a565b015160001960f88460031b161c191690558380806111e9565b818101518355602094850194600190930192909101906111ce565b909150600284016000526020600020601f840160051c810160208510611279575b90849392915b601f830160051c8201811061126a5750506104eb565b60008155859450600101611254565b508061124e565b0151905083806104a2565b9250600184016000526020600020906000935b601f19841685106112e2576001945083601f198116106112c9575b505050811b0160018201556104ba565b015160001960f88460031b161c191690558380806112b9565b8181015183556020948501946001909301929091019061129e565b909150600184016000526020600020601f840160051c810160208510611349575b90849392915b601f830160051c8201811061133a57505061048b565b60008155859450600101611324565b508061131e565b015190508380610445565b9250836000526020600020906000935b601f19841685106113ac576001945083601f19811610611393575b505050811b01815561045a565b015160001960f88460031b161c19169055838080611386565b8181015183556020948501946001909301929091019061136b565b909150836000526020600020601f840160051c810160208510611410575b90849392915b601f830160051c8201811061140157505061042e565b600081558594506001016113eb565b50806113e5565b60405162461bcd60e51b815260206004820152600b60248201526a139bdd081cdd195dd85c9960aa1b6044820152606490fd5b346100a45760203660031901126100a4576114636118c4565b606061016060405161147481611914565b82815282602082015282604082015282808201528260808201528260a08201528260c08201528260e0820152826101008201528261012082015282610140820152015260018060a01b03166000526001602052611600604060002061159f600b604051926114e184611914565b6114ea81611951565b84526114f860018201611951565b602085015261150960028201611951565b604085015261151a60038201611951565b606085015261152b60048201611951565b608085015261153c60058201611951565b60a085015261154d60068201611951565b60c085015261155e60078201611951565b60e085015261156f60088201611951565b61010085015261158160098201611951565b610120850152611593600a8201611951565b61014085015201611951565b6101608201526116e2816101606116cd6116b761169f61168761167061165a61164461162e6116186040519d8e9d8e6020815260206115eb8351610180838501526101a08401906119f7565b920151906040601f19828503019101526119f7565b8d60408d0151906060601f19828503019101526119f7565b60608b01518d8203601f190160808f01526119f7565b60808a01518c8203601f190160a08e01526119f7565b60a08901518b8203601f190160c08d01526119f7565b60c08801518a8203601f190160e08c01526119f7565b60e0870151898203601f19016101008b01526119f7565b610100860151888203601f19016101208a01526119f7565b610120850151878203601f19016101408901526119f7565b610140840151868203601f1901848801526119f7565b910151838203601f19016101808501526119f7565b0390f35b346100a45760003660031901126100a4576000546040516001600160a01b039091168152602090f35b346100a45760203660031901126100a4576001600160a01b036117306118c4565b166000526001602052604060002061174781611951565b61175360018301611951565b9161176060028201611951565b9061176d60038201611951565b61177960048301611951565b61178560058401611951565b61179160068501611951565b61179d60078601611951565b916117aa60088701611951565b936117b760098801611951565b956117c4600a8901611951565b97600b016117d190611951565b986040519b8c9b8c6101808091528d016117ea916119f7565b8c810360208e01526117fb916119f7565b8b810360408d015261180c916119f7565b8a810360608c015261181d916119f7565b89810360808b015261182e916119f7565b88810360a08a015261183f916119f7565b87810360c0890152611850916119f7565b86810360e0880152611861916119f7565b858103610100870152611873916119f7565b848103610120860152611885916119f7565b838103610140850152611897916119f7565b8281036101608401526116e2916119f7565b346100a45760003660031901126100a4576020906002548152f35b600435906001600160a01b03821682036100a457565b90600182811c9216801561190a575b60208310146118f457565b634e487b7160e01b600052602260045260246000fd5b91607f16916118e9565b61018081019081106001600160401b03821117610a5a57604052565b90601f801991011681019081106001600160401b03821117610a5a57604052565b9060405191826000825492611965846118da565b9081845260019485811690816000146119d45750600114611991575b505061198f92500383611930565b565b9093915060005260209081600020936000915b8183106119bc57505061198f93508201013880611981565b855488840185015294850194879450918301916119a4565b91505061198f94506020925060ff191682840152151560051b8201013880611981565b919082519283825260005b848110611a23575050826000602080949584010152601f8019910116010190565b602081830181015184830182015201611a02565b9181601f840112156100a4578235916001600160401b0383116100a457602083818601950101116100a457565b600254811015611a9b5760026000527f405787fa12a823e0f2b7631cc41b3ba8828b3321ca811111fa75cd3aa3bb5ace0190600090565b634e487b7160e01b600052603260045260246000fd5b9291926001600160401b038211610a5a5760405191611ada601f8201601f191660200184611930565b8294818452818301116100a4578281602093846000960137010152565b908060209392818452848401376000828201840152601f01601f191601019056fea2646970667358221220080f507fe6ad3d59710aa5a3fbf79af83642a8a9fcdc07d399d9ac6a81f2608964736f6c63430008140033","opcodes":"PUSH1 0x80 DUP1 PUSH1 0x40 MSTORE CALLVALUE PUSH2 0x28 JUMPI PUSH1 0x0 DUP1 SLOAD PUSH1 0x1 PUSH1 0x1 PUSH1 0xA0 SHL SUB NOT AND CALLER OR SWAP1 SSTORE PUSH2 0x1B4E SWAP1 DUP2 PUSH2 0x2E DUP3 CODECOPY RETURN JUMPDEST PUSH1 0x0 DUP1 REVERT INVALID PUSH2 0x3E0 DUP1 PUSH1 0x40 MSTORE PUSH1 0x4 CALLDATASIZE LT ISZERO PUSH2 0x14 JUMPI PUSH1 0x0 DUP1 REVERT JUMPDEST PUSH1 0x0 CALLDATALOAD PUSH1 0xE0 SHR SWAP1 DUP2 PUSH4 0x2A17D4CD EQ PUSH2 0x18A9 JUMPI POP DUP1 PUSH4 0x5A2ED662 EQ PUSH2 0x170F JUMPI DUP1 PUSH4 0x637EEA19 EQ PUSH2 0x16E6 JUMPI DUP1 PUSH4 0xCF84C603 EQ PUSH2 0x144A JUMPI DUP1 PUSH4 0xD1F4EB5C EQ PUSH2 0xA9 JUMPI PUSH4 0xF31BEE3E EQ PUSH2 0x62 JUMPI PUSH1 0x0 DUP1 REVERT JUMPDEST CALLVALUE PUSH2 0xA4 JUMPI PUSH1 0x20 CALLDATASIZE PUSH1 0x3 NOT ADD SLT PUSH2 0xA4 JUMPI PUSH1 0x4 CALLDATALOAD PUSH1 0x2 SLOAD DUP2 LT ISZERO PUSH2 0xA4 JUMPI PUSH2 0x8B PUSH1 0x20 SWAP2 PUSH2 0x1A64 JUMP JUMPDEST SWAP1 SLOAD PUSH1 0x40 MLOAD PUSH1 0x3 SWAP3 SWAP1 SWAP3 SHL SHR PUSH1 0x1 PUSH1 0x1 PUSH1 0xA0 SHL SUB AND DUP2 MSTORE RETURN JUMPDEST PUSH1 0x0 DUP1 REVERT JUMPDEST CALLVALUE PUSH2 0xA4 JUMPI PUSH2 0x1A0 CALLDATASIZE PUSH1 0x3 NOT ADD SLT PUSH2 0xA4 JUMPI PUSH2 0xC3 PUSH2 0x18C4 JUMP JUMPDEST PUSH2 0x2C0 MSTORE PUSH1 0x24 CALLDATALOAD PUSH1 0x1 PUSH1 0x1 PUSH1 0x40 SHL SUB DUP2 GT PUSH2 0xA4 JUMPI PUSH2 0xE6 SWAP1 CALLDATASIZE SWAP1 PUSH1 0x4 ADD PUSH2 0x1A37 JUMP JUMPDEST PUSH2 0x200 MSTORE PUSH2 0x2A0 MSTORE PUSH1 0x44 CALLDATALOAD PUSH1 0x1 PUSH1 0x1 PUSH1 0x40 SHL SUB DUP2 GT PUSH2 0xA4 JUMPI PUSH2 0x10D SWAP1 CALLDATASIZE SWAP1 PUSH1 0x4 ADD PUSH2 0x1A37 JUMP JUMPDEST PUSH2 0x240 MSTORE PUSH1 0x80 MSTORE PUSH1 0x64 CALLDATALOAD PUSH1 0x1 PUSH1 0x1 PUSH1 0x40 SHL SUB DUP2 GT PUSH2 0xA4 JUMPI PUSH2 0x133 SWAP1 CALLDATASIZE SWAP1 PUSH1 0x4 ADD PUSH2 0x1A37 JUMP JUMPDEST PUSH2 0x100 MSTORE PUSH2 0x1C0 MSTORE PUSH1 0x84 CALLDATALOAD PUSH1 0x1 PUSH1 0x1 PUSH1 0x40 SHL SUB DUP2 GT PUSH2 0xA4 JUMPI PUSH2 0x15A SWAP1 CALLDATASIZE SWAP1 PUSH1 0x4 ADD PUSH2 0x1A37 JUMP JUMPDEST PUSH2 0x280 MSTORE PUSH2 0x180 MSTORE PUSH1 0xA4 CALLDATALOAD PUSH1 0x1 PUSH1 0x1 PUSH1 0x40 SHL SUB DUP2 GT PUSH2 0xA4 JUMPI PUSH2 0x181 SWAP1 CALLDATASIZE SWAP1 PUSH1 0x4 ADD PUSH2 0x1A37 JUMP JUMPDEST PUSH2 0x3C0 MSTORE PUSH2 0x1E0 MSTORE PUSH1 0xC4 CALLDATALOAD PUSH1 0x1 PUSH1 0x1 PUSH1 0x40 SHL SUB DUP2 GT PUSH2 0xA4 JUMPI PUSH2 0x1A8 SWAP1 CALLDATASIZE SWAP1 PUSH1 0x4 ADD PUSH2 0x1A37 JUMP JUMPDEST PUSH2 0x300 MSTORE PUSH2 0x340 MSTORE PUSH1 0xE4 CALLDATALOAD PUSH1 0x1 PUSH1 0x1 PUSH1 0x40 SHL SUB DUP2 GT PUSH2 0xA4 JUMPI PUSH2 0x1CF SWAP1 CALLDATASIZE SWAP1 PUSH1 0x4 ADD PUSH2 0x1A37 JUMP JUMPDEST PUSH2 0x260 MSTORE PUSH1 0xA0 MSTORE PUSH2 0x104 CALLDATALOAD PUSH1 0x1 PUSH1 0x1 PUSH1 0x40 SHL SUB DUP2 GT PUSH2 0xA4 JUMPI PUSH2 0x1F6 SWAP1 CALLDATASIZE SWAP1 PUSH1 0x4 ADD PUSH2 0x1A37 JUMP JUMPDEST PUSH2 0x140 MSTORE PUSH2 0x380 MSTORE PUSH1 0x1 PUSH1 0x1 PUSH1 0x40 SHL SUB PUSH2 0x124 CALLDATALOAD GT PUSH2 0xA4 JUMPI PUSH2 0x21F CALLDATASIZE PUSH2 0x124 CALLDATALOAD PUSH1 0x4 ADD PUSH2 0x1A37 JUMP JUMPDEST PUSH2 0x2E0 MSTORE PUSH2 0x3A0 MSTORE PUSH1 0x1 PUSH1 0x1 PUSH1 0x40 SHL SUB PUSH2 0x144 CALLDATALOAD GT PUSH2 0xA4 JUMPI PUSH2 0x248 CALLDATASIZE PUSH2 0x144 CALLDATALOAD PUSH1 0x4 ADD PUSH2 0x1A37 JUMP JUMPDEST PUSH2 0x160 MSTORE PUSH2 0x1A0 MSTORE PUSH2 0x164 CALLDATALOAD PUSH1 0x1 PUSH1 0x1 PUSH1 0x40 SHL SUB DUP2 GT PUSH2 0xA4 JUMPI PUSH2 0x270 SWAP1 CALLDATASIZE SWAP1 PUSH1 0x4 ADD PUSH2 0x1A37 JUMP JUMPDEST PUSH2 0x360 MSTORE PUSH1 0xC0 MSTORE PUSH1 0x1 PUSH1 0x1 PUSH1 0x40 SHL SUB PUSH2 0x184 CALLDATALOAD GT PUSH2 0xA4 JUMPI PUSH2 0x298 CALLDATASIZE PUSH2 0x184 CALLDATALOAD PUSH1 0x4 ADD PUSH2 0x1A37 JUMP JUMPDEST PUSH2 0x220 MSTORE PUSH1 0xE0 MSTORE PUSH1 0x0 SLOAD PUSH1 0x1 PUSH1 0x1 PUSH1 0xA0 SHL SUB AND CALLER SUB PUSH2 0x1417 JUMPI PUSH2 0x2C1 PUSH1 0x40 MLOAD DUP1 PUSH2 0x320 MSTORE PUSH2 0x1914 JUMP JUMPDEST PUSH2 0x2D2 CALLDATASIZE PUSH2 0x200 MLOAD PUSH2 0x2A0 MLOAD PUSH2 0x1AB1 JUMP JUMPDEST PUSH2 0x320 MLOAD MSTORE PUSH2 0x2E7 CALLDATASIZE PUSH2 0x240 MLOAD PUSH1 0x80 MLOAD PUSH2 0x1AB1 JUMP JUMPDEST PUSH1 0x20 PUSH2 0x320 MLOAD ADD MSTORE PUSH2 0x300 CALLDATASIZE PUSH2 0x100 MLOAD PUSH2 0x1C0 MLOAD PUSH2 0x1AB1 JUMP JUMPDEST PUSH1 0x40 PUSH2 0x320 MLOAD ADD MSTORE PUSH2 0x319 CALLDATASIZE PUSH2 0x280 MLOAD PUSH2 0x180 MLOAD PUSH2 0x1AB1 JUMP JUMPDEST PUSH1 0x60 PUSH2 0x320 MLOAD ADD MSTORE PUSH2 0x332 CALLDATASIZE PUSH2 0x3C0 MLOAD PUSH2 0x1E0 MLOAD PUSH2 0x1AB1 JUMP JUMPDEST PUSH1 0x80 PUSH2 0x320 MLOAD ADD MSTORE PUSH2 0x34B CALLDATASIZE PUSH2 0x300 MLOAD PUSH2 0x340 MLOAD PUSH2 0x1AB1 JUMP JUMPDEST PUSH1 0xA0 PUSH2 0x320 MLOAD ADD MSTORE PUSH2 0x363 CALLDATASIZE PUSH2 0x260 MLOAD PUSH1 0xA0 MLOAD PUSH2 0x1AB1 JUMP JUMPDEST PUSH1 0xC0 PUSH2 0x320 MLOAD ADD MSTORE PUSH2 0x37C CALLDATASIZE PUSH2 0x140 MLOAD PUSH2 0x380 MLOAD PUSH2 0x1AB1 JUMP JUMPDEST PUSH1 0xE0 PUSH2 0x320 MLOAD ADD MSTORE PUSH2 0x395 CALLDATASIZE PUSH2 0x2E0 MLOAD PUSH2 0x3A0 MLOAD PUSH2 0x1AB1 JUMP JUMPDEST PUSH2 0x100 PUSH2 0x320 MLOAD ADD MSTORE PUSH2 0x3AF CALLDATASIZE PUSH2 0x160 MLOAD PUSH2 0x1A0 MLOAD PUSH2 0x1AB1 JUMP JUMPDEST PUSH2 0x120 PUSH2 0x320 MLOAD ADD MSTORE PUSH2 0x3C8 CALLDATASIZE PUSH2 0x360 MLOAD PUSH1 0xC0 MLOAD PUSH2 0x1AB1 JUMP JUMPDEST PUSH2 0x140 PUSH2 0x320 MLOAD ADD MSTORE PUSH2 0x3E1 CALLDATASIZE PUSH2 0x220 MLOAD PUSH1 0xE0 MLOAD PUSH2 0x1AB1 JUMP JUMPDEST PUSH2 0x160 PUSH2 0x320 MLOAD ADD MSTORE PUSH1 0x1 DUP1 PUSH1 0xA0 SHL SUB PUSH2 0x2C0 MLOAD AND PUSH1 0x0 MSTORE PUSH1 0x1 PUSH1 0x20 MSTORE PUSH1 0x40 PUSH1 0x0 KECCAK256 PUSH2 0x320 MLOAD MLOAD DUP1 MLOAD SWAP1 PUSH1 0x1 PUSH1 0x1 PUSH1 0x40 SHL SUB DUP3 GT PUSH2 0xA5A JUMPI DUP2 SWAP1 PUSH2 0x425 DUP5 SLOAD PUSH2 0x18DA JUMP JUMPDEST PUSH1 0x1F DUP2 GT PUSH2 0x13C7 JUMPI JUMPDEST POP PUSH1 0x20 SWAP1 PUSH1 0x1F DUP4 GT PUSH1 0x1 EQ PUSH2 0x135B JUMPI PUSH1 0x0 SWAP3 PUSH2 0x1350 JUMPI JUMPDEST POP POP DUP2 PUSH1 0x1 SHL SWAP2 PUSH1 0x0 NOT SWAP1 PUSH1 0x3 SHL SHR NOT AND OR DUP2 SSTORE JUMPDEST PUSH1 0x20 PUSH2 0x320 MLOAD ADD MLOAD DUP1 MLOAD SWAP1 PUSH1 0x1 PUSH1 0x1 PUSH1 0x40 SHL SUB DUP3 GT PUSH2 0xA5A JUMPI DUP2 SWAP1 PUSH2 0x482 PUSH1 0x1 DUP6 ADD SLOAD PUSH2 0x18DA JUMP JUMPDEST PUSH1 0x1F DUP2 GT PUSH2 0x12FD JUMPI JUMPDEST POP PUSH1 0x20 SWAP1 PUSH1 0x1F DUP4 GT PUSH1 0x1 EQ PUSH2 0x128B JUMPI PUSH1 0x0 SWAP3 PUSH2 0x1280 JUMPI JUMPDEST POP POP DUP2 PUSH1 0x1 SHL SWAP2 PUSH1 0x0 NOT SWAP1 PUSH1 0x3 SHL SHR NOT AND OR PUSH1 0x1 DUP3 ADD SSTORE JUMPDEST PUSH1 0x40 PUSH2 0x320 MLOAD ADD MLOAD DUP1 MLOAD SWAP1 PUSH1 0x1 PUSH1 0x1 PUSH1 0x40 SHL SUB DUP3 GT PUSH2 0xA5A JUMPI DUP2 SWAP1 PUSH2 0x4E2 PUSH1 0x2 DUP6 ADD SLOAD PUSH2 0x18DA JUMP JUMPDEST PUSH1 0x1F DUP2 GT PUSH2 0x122D JUMPI JUMPDEST POP PUSH1 0x20 SWAP1 PUSH1 0x1F DUP4 GT PUSH1 0x1 EQ PUSH2 0x11BB JUMPI PUSH1 0x0 SWAP3 PUSH2 0x11B0 JUMPI JUMPDEST POP POP DUP2 PUSH1 0x1 SHL SWAP2 PUSH1 0x0 NOT SWAP1 PUSH1 0x3 SHL SHR NOT AND OR PUSH1 0x2 DUP3 ADD SSTORE JUMPDEST PUSH1 0x60 PUSH2 0x320 MLOAD ADD MLOAD DUP1 MLOAD SWAP1 PUSH1 0x1 PUSH1 0x1 PUSH1 0x40 SHL SUB DUP3 GT PUSH2 0xA5A JUMPI DUP2 SWAP1 PUSH2 0x542 PUSH1 0x3 DUP6 ADD SLOAD PUSH2 0x18DA JUMP JUMPDEST PUSH1 0x1F DUP2 GT PUSH2 0x115D JUMPI JUMPDEST POP PUSH1 0x20 SWAP1 PUSH1 0x1F DUP4 GT PUSH1 0x1 EQ PUSH2 0x10EB JUMPI PUSH1 0x0 SWAP3 PUSH2 0x10E0 JUMPI JUMPDEST POP POP DUP2 PUSH1 0x1 SHL SWAP2 PUSH1 0x0 NOT SWAP1 PUSH1 0x3 SHL SHR NOT AND OR PUSH1 0x3 DUP3 ADD SSTORE JUMPDEST PUSH1 0x80 PUSH2 0x320 MLOAD ADD MLOAD DUP1 MLOAD SWAP1 PUSH1 0x1 PUSH1 0x1 PUSH1 0x40 SHL SUB DUP3 GT PUSH2 0xA5A JUMPI DUP2 SWAP1 PUSH2 0x5A2 PUSH1 0x4 DUP6 ADD SLOAD PUSH2 0x18DA JUMP JUMPDEST PUSH1 0x1F DUP2 GT PUSH2 0x108D JUMPI JUMPDEST POP PUSH1 0x20 SWAP1 PUSH1 0x1F DUP4 GT PUSH1 0x1 EQ PUSH2 0x101B JUMPI PUSH1 0x0 SWAP3 PUSH2 0x1010 JUMPI JUMPDEST POP POP DUP2 PUSH1 0x1 SHL SWAP2 PUSH1 0x0 NOT SWAP1 PUSH1 0x3 SHL SHR NOT AND OR PUSH1 0x4 DUP3 ADD SSTORE JUMPDEST PUSH1 0xA0 PUSH2 0x320 MLOAD ADD MLOAD DUP1 MLOAD SWAP1 PUSH1 0x1 PUSH1 0x1 PUSH1 0x40 SHL SUB DUP3 GT PUSH2 0xA5A JUMPI DUP2 SWAP1 PUSH2 0x602 PUSH1 0x5 DUP6 ADD SLOAD PUSH2 0x18DA JUMP JUMPDEST PUSH1 0x1F DUP2 GT PUSH2 0xFBD JUMPI JUMPDEST POP PUSH1 0x20 SWAP1 PUSH1 0x1F DUP4 GT PUSH1 0x1 EQ PUSH2 0xF4B JUMPI PUSH1 0x0 SWAP3 PUSH2 0xF40 JUMPI JUMPDEST POP POP DUP2 PUSH1 0x1 SHL SWAP2 PUSH1 0x0 NOT SWAP1 PUSH1 0x3 SHL SHR NOT AND OR PUSH1 0x5 DUP3 ADD SSTORE JUMPDEST PUSH1 0xC0 PUSH2 0x320 MLOAD ADD MLOAD DUP1 MLOAD SWAP1 PUSH1 0x1 PUSH1 0x1 PUSH1 0x40 SHL SUB DUP3 GT PUSH2 0xA5A JUMPI DUP2 SWAP1 PUSH2 0x662 PUSH1 0x6 DUP6 ADD SLOAD PUSH2 0x18DA JUMP JUMPDEST PUSH1 0x1F DUP2 GT PUSH2 0xEED JUMPI JUMPDEST POP PUSH1 0x20 SWAP1 PUSH1 0x1F DUP4 GT PUSH1 0x1 EQ PUSH2 0xE7B JUMPI PUSH1 0x0 SWAP3 PUSH2 0xE70 JUMPI JUMPDEST POP POP DUP2 PUSH1 0x1 SHL SWAP2 PUSH1 0x0 NOT SWAP1 PUSH1 0x3 SHL SHR NOT AND OR PUSH1 0x6 DUP3 ADD SSTORE JUMPDEST PUSH1 0xE0 PUSH2 0x320 MLOAD ADD MLOAD DUP1 MLOAD SWAP1 PUSH1 0x1 PUSH1 0x1 PUSH1 0x40 SHL SUB DUP3 GT PUSH2 0xA5A JUMPI DUP2 SWAP1 PUSH2 0x6C2 PUSH1 0x7 DUP6 ADD SLOAD PUSH2 0x18DA JUMP JUMPDEST PUSH1 0x1F DUP2 GT PUSH2 0xE1D JUMPI JUMPDEST POP PUSH1 0x20 SWAP1 PUSH1 0x1F DUP4 GT PUSH1 0x1 EQ PUSH2 0xDAB JUMPI PUSH1 0x0 SWAP3 PUSH2 0xDA0 JUMPI JUMPDEST POP POP DUP2 PUSH1 0x1 SHL SWAP2 PUSH1 0x0 NOT SWAP1 PUSH1 0x3 SHL SHR NOT AND OR PUSH1 0x7 DUP3 ADD SSTORE JUMPDEST PUSH2 0x100 PUSH2 0x320 MLOAD ADD MLOAD DUP1 MLOAD SWAP1 PUSH1 0x1 PUSH1 0x1 PUSH1 0x40 SHL SUB DUP3 GT PUSH2 0xA5A JUMPI DUP2 SWAP1 PUSH2 0x723 PUSH1 0x8 DUP6 ADD SLOAD PUSH2 0x18DA JUMP JUMPDEST PUSH1 0x1F DUP2 GT PUSH2 0xD4D JUMPI JUMPDEST POP PUSH1 0x20 SWAP1 PUSH1 0x1F DUP4 GT PUSH1 0x1 EQ PUSH2 0xCDB JUMPI PUSH1 0x0 SWAP3 PUSH2 0xCD0 JUMPI JUMPDEST POP POP DUP2 PUSH1 0x1 SHL SWAP2 PUSH1 0x0 NOT SWAP1 PUSH1 0x3 SHL SHR NOT AND OR PUSH1 0x8 DUP3 ADD SSTORE JUMPDEST PUSH2 0x120 PUSH2 0x320 MLOAD ADD MLOAD DUP1 MLOAD SWAP1 PUSH1 0x1 PUSH1 0x1 PUSH1 0x40 SHL SUB DUP3 GT PUSH2 0xA5A JUMPI DUP2 SWAP1 PUSH2 0x784 PUSH1 0x9 DUP6 ADD SLOAD PUSH2 0x18DA JUMP JUMPDEST PUSH1 0x1F DUP2 GT PUSH2 0xC7D JUMPI JUMPDEST POP PUSH1 0x20 SWAP1 PUSH1 0x1F DUP4 GT PUSH1 0x1 EQ PUSH2 0xC0B JUMPI PUSH1 0x0 SWAP3 PUSH2 0xC00 JUMPI JUMPDEST POP POP DUP2 PUSH1 0x1 SHL SWAP2 PUSH1 0x0 NOT SWAP1 PUSH1 0x3 SHL SHR NOT AND OR PUSH1 0x9 DUP3 ADD SSTORE JUMPDEST PUSH2 0x140 PUSH2 0x320 MLOAD ADD MLOAD DUP1 MLOAD SWAP1 PUSH1 0x1 PUSH1 0x1 PUSH1 0x40 SHL SUB DUP3 GT PUSH2 0xA5A JUMPI DUP2 SWAP1 PUSH2 0x7E5 PUSH1 0xA DUP6 ADD SLOAD PUSH2 0x18DA JUMP JUMPDEST PUSH1 0x1F DUP2 GT PUSH2 0xBAD JUMPI JUMPDEST POP PUSH1 0x20 SWAP1 PUSH1 0x1F DUP4 GT PUSH1 0x1 EQ PUSH2 0xB3B JUMPI PUSH1 0x0 SWAP3 PUSH2 0xB30 JUMPI JUMPDEST POP POP DUP2 PUSH1 0x1 SHL SWAP2 PUSH1 0x0 NOT SWAP1 PUSH1 0x3 SHL SHR NOT AND OR PUSH1 0xA DUP3 ADD SSTORE JUMPDEST PUSH2 0x160 PUSH2 0x320 MLOAD ADD MLOAD DUP1 MLOAD SWAP1 PUSH1 0x1 PUSH1 0x1 PUSH1 0x40 SHL SUB DUP3 GT PUSH2 0xA5A JUMPI PUSH2 0x844 PUSH1 0xB DUP5 ADD SLOAD PUSH2 0x18DA JUMP JUMPDEST PUSH1 0x1F DUP2 GT PUSH2 0xAE9 JUMPI JUMPDEST POP PUSH1 0x20 SWAP1 PUSH1 0x1F DUP4 GT PUSH1 0x1 EQ PUSH2 0xA7B JUMPI PUSH1 0xB SWAP3 SWAP2 PUSH1 0x0 SWAP2 DUP4 PUSH2 0xA70 JUMPI JUMPDEST POP POP DUP2 PUSH1 0x1 SHL SWAP2 PUSH1 0x0 NOT SWAP1 PUSH1 0x3 SHL SHR NOT AND OR SWAP2 ADD SSTORE JUMPDEST PUSH1 0x2 SLOAD PUSH9 0x10000000000000000 DUP2 LT ISZERO PUSH2 0xA5A JUMPI DUP1 PUSH1 0x1 PUSH2 0x8A3 SWAP3 ADD PUSH1 0x2 SSTORE PUSH2 0x1A64 JUMP JUMPDEST DUP2 SLOAD SWAP1 PUSH1 0x3 SHL SWAP1 PUSH1 0x1 DUP1 PUSH1 0xA0 SHL SUB PUSH2 0x2C0 MLOAD AND DUP3 SHL SWAP2 PUSH1 0x1 DUP1 PUSH1 0xA0 SHL SUB SWAP1 SHL NOT AND OR SWAP1 SSTORE PUSH2 0x180 PUSH1 0x40 MLOAD DUP1 PUSH2 0x120 MSTORE MSTORE PUSH2 0xA03 PUSH2 0x9EA PUSH2 0x9D0 PUSH2 0x9B6 PUSH2 0x99D PUSH2 0x985 PUSH2 0x96C PUSH2 0x953 PUSH2 0x93A PUSH2 0x921 PUSH2 0x909 PUSH2 0x180 PUSH2 0x120 MLOAD ADD PUSH2 0x200 MLOAD PUSH2 0x2A0 MLOAD PUSH2 0x1AF7 JUMP JUMPDEST PUSH2 0x120 MLOAD PUSH1 0x20 DUP2 DUP4 SUB SWAP2 ADD MSTORE PUSH2 0x240 MLOAD PUSH1 0x80 MLOAD PUSH2 0x1AF7 JUMP JUMPDEST PUSH2 0x120 MLOAD PUSH1 0x40 DUP2 DUP4 SUB SWAP2 ADD MSTORE PUSH2 0x100 MLOAD PUSH2 0x1C0 MLOAD PUSH2 0x1AF7 JUMP JUMPDEST PUSH2 0x120 MLOAD PUSH1 0x60 DUP2 DUP4 SUB SWAP2 ADD MSTORE PUSH2 0x280 MLOAD PUSH2 0x180 MLOAD PUSH2 0x1AF7 JUMP JUMPDEST PUSH2 0x120 MLOAD PUSH1 0x80 DUP2 DUP4 SUB SWAP2 ADD MSTORE PUSH2 0x3C0 MLOAD PUSH2 0x1E0 MLOAD PUSH2 0x1AF7 JUMP JUMPDEST PUSH2 0x120 MLOAD PUSH1 0xA0 DUP2 DUP4 SUB SWAP2 ADD MSTORE PUSH2 0x300 MLOAD PUSH2 0x340 MLOAD PUSH2 0x1AF7 JUMP JUMPDEST PUSH2 0x120 MLOAD PUSH1 0xC0 DUP2 DUP4 SUB SWAP2 ADD MSTORE PUSH2 0x260 MLOAD PUSH1 0xA0 MLOAD PUSH2 0x1AF7 JUMP JUMPDEST PUSH2 0x120 MLOAD PUSH1 0xE0 DUP2 DUP4 SUB SWAP2 ADD MSTORE PUSH2 0x140 MLOAD PUSH2 0x380 MLOAD PUSH2 0x1AF7 JUMP JUMPDEST PUSH2 0x120 MLOAD PUSH2 0x100 DUP2 DUP4 SUB SWAP2 ADD MSTORE PUSH2 0x2E0 MLOAD PUSH2 0x3A0 MLOAD PUSH2 0x1AF7 JUMP JUMPDEST PUSH2 0x120 MLOAD PUSH2 0x120 DUP2 DUP4 SUB SWAP2 ADD MSTORE PUSH2 0x160 MLOAD PUSH2 0x1A0 MLOAD PUSH2 0x1AF7 JUMP JUMPDEST PUSH2 0x120 MLOAD PUSH2 0x140 DUP2 DUP4 SUB SWAP2 ADD MSTORE PUSH2 0x360 MLOAD PUSH1 0xC0 MLOAD PUSH2 0x1AF7 JUMP JUMPDEST PUSH2 0x120 MLOAD PUSH2 0x160 DUP2 DUP4 SUB SWAP2 ADD MSTORE PUSH32 0x9803EC95ECA0B09E807154671DED1B6861912C3F83A26EF17DB80ED73D189B4A PUSH1 0x1 DUP1 PUSH1 0xA0 SHL SUB PUSH2 0x2C0 MLOAD AND SWAP2 PUSH2 0xA52 PUSH2 0x120 MLOAD SWAP2 PUSH2 0x220 MLOAD PUSH1 0xE0 MLOAD PUSH2 0x1AF7 JUMP JUMPDEST SUB PUSH2 0x120 MLOAD LOG2 STOP JUMPDEST PUSH4 0x4E487B71 PUSH1 0xE0 SHL PUSH1 0x0 MSTORE PUSH1 0x41 PUSH1 0x4 MSTORE PUSH1 0x24 PUSH1 0x0 REVERT JUMPDEST ADD MLOAD SWAP1 POP DUP5 DUP1 PUSH2 0x869 JUMP JUMPDEST SWAP1 PUSH1 0xB DUP5 ADD PUSH1 0x0 MSTORE PUSH1 0x20 PUSH1 0x0 KECCAK256 SWAP2 PUSH1 0x0 PUSH1 0x1F NOT DUP6 AND SWAP1 JUMPDEST DUP2 DUP2 LT PUSH2 0xAD1 JUMPI POP SWAP2 PUSH1 0x1 SWAP4 SWAP2 DUP6 PUSH1 0xB SWAP7 SWAP5 LT PUSH2 0xAB8 JUMPI JUMPDEST POP POP POP DUP2 SHL ADD SWAP2 ADD SSTORE PUSH2 0x87F JUMP JUMPDEST ADD MLOAD PUSH1 0x0 NOT PUSH1 0xF8 DUP5 PUSH1 0x3 SHL AND SHR NOT AND SWAP1 SSTORE DUP5 DUP1 DUP1 PUSH2 0xAAA JUMP JUMPDEST SWAP3 SWAP4 PUSH1 0x20 PUSH1 0x1 DUP2 SWAP3 DUP8 DUP7 ADD MLOAD DUP2 SSTORE ADD SWAP6 ADD SWAP4 ADD PUSH2 0xA92 JUMP JUMPDEST PUSH1 0xB DUP5 ADD PUSH1 0x0 MSTORE PUSH1 0x20 PUSH1 0x0 KECCAK256 PUSH1 0x1F DUP5 ADD PUSH1 0x5 SHR DUP2 ADD PUSH1 0x20 DUP6 LT PUSH2 0xB29 JUMPI JUMPDEST PUSH1 0x1F DUP4 ADD PUSH1 0x5 SHR DUP3 ADD DUP2 LT PUSH2 0xB1D JUMPI POP POP PUSH2 0x84D JUMP JUMPDEST PUSH1 0x0 DUP2 SSTORE PUSH1 0x1 ADD PUSH2 0xB07 JUMP JUMPDEST POP DUP1 PUSH2 0xB07 JUMP JUMPDEST ADD MLOAD SWAP1 POP DUP4 DUP1 PUSH2 0x805 JUMP JUMPDEST SWAP3 POP PUSH1 0xA DUP5 ADD PUSH1 0x0 MSTORE PUSH1 0x20 PUSH1 0x0 KECCAK256 SWAP1 PUSH1 0x0 SWAP4 JUMPDEST PUSH1 0x1F NOT DUP5 AND DUP6 LT PUSH2 0xB92 JUMPI PUSH1 0x1 SWAP5 POP DUP4 PUSH1 0x1F NOT DUP2 AND LT PUSH2 0xB79 JUMPI JUMPDEST POP POP POP DUP2 SHL ADD PUSH1 0xA DUP3 ADD SSTORE PUSH2 0x81D JUMP JUMPDEST ADD MLOAD PUSH1 0x0 NOT PUSH1 0xF8 DUP5 PUSH1 0x3 SHL AND SHR NOT AND SWAP1 SSTORE DUP4 DUP1 DUP1 PUSH2 0xB69 JUMP JUMPDEST DUP2 DUP2 ADD MLOAD DUP4 SSTORE PUSH1 0x20 SWAP5 DUP6 ADD SWAP5 PUSH1 0x1 SWAP1 SWAP4 ADD SWAP3 SWAP1 SWAP2 ADD SWAP1 PUSH2 0xB4E JUMP JUMPDEST SWAP1 SWAP2 POP PUSH1 0xA DUP5 ADD PUSH1 0x0 MSTORE PUSH1 0x20 PUSH1 0x0 KECCAK256 PUSH1 0x1F DUP5 ADD PUSH1 0x5 SHR DUP2 ADD PUSH1 0x20 DUP6 LT PUSH2 0xBF9 JUMPI JUMPDEST SWAP1 DUP5 SWAP4 SWAP3 SWAP2 JUMPDEST PUSH1 0x1F DUP4 ADD PUSH1 0x5 SHR DUP3 ADD DUP2 LT PUSH2 0xBEA JUMPI POP POP PUSH2 0x7EE JUMP JUMPDEST PUSH1 0x0 DUP2 SSTORE DUP6 SWAP5 POP PUSH1 0x1 ADD PUSH2 0xBD4 JUMP JUMPDEST POP DUP1 PUSH2 0xBCE JUMP JUMPDEST ADD MLOAD SWAP1 POP DUP4 DUP1 PUSH2 0x7A4 JUMP JUMPDEST SWAP3 POP PUSH1 0x9 DUP5 ADD PUSH1 0x0 MSTORE PUSH1 0x20 PUSH1 0x0 KECCAK256 SWAP1 PUSH1 0x0 SWAP4 JUMPDEST PUSH1 0x1F NOT DUP5 AND DUP6 LT PUSH2 0xC62 JUMPI PUSH1 0x1 SWAP5 POP DUP4 PUSH1 0x1F NOT DUP2 AND LT PUSH2 0xC49 JUMPI JUMPDEST POP POP POP DUP2 SHL ADD PUSH1 0x9 DUP3 ADD SSTORE PUSH2 0x7BC JUMP JUMPDEST ADD MLOAD PUSH1 0x0 NOT PUSH1 0xF8 DUP5 PUSH1 0x3 SHL AND SHR NOT AND SWAP1 SSTORE DUP4 DUP1 DUP1 PUSH2 0xC39 JUMP JUMPDEST DUP2 DUP2 ADD MLOAD DUP4 SSTORE PUSH1 0x20 SWAP5 DUP6 ADD SWAP5 PUSH1 0x1 SWAP1 SWAP4 ADD SWAP3 SWAP1 SWAP2 ADD SWAP1 PUSH2 0xC1E JUMP JUMPDEST SWAP1 SWAP2 POP PUSH1 0x9 DUP5 ADD PUSH1 0x0 MSTORE PUSH1 0x20 PUSH1 0x0 KECCAK256 PUSH1 0x1F DUP5 ADD PUSH1 0x5 SHR DUP2 ADD PUSH1 0x20 DUP6 LT PUSH2 0xCC9 JUMPI JUMPDEST SWAP1 DUP5 SWAP4 SWAP3 SWAP2 JUMPDEST PUSH1 0x1F DUP4 ADD PUSH1 0x5 SHR DUP3 ADD DUP2 LT PUSH2 0xCBA JUMPI POP POP PUSH2 0x78D JUMP JUMPDEST PUSH1 0x0 DUP2 SSTORE DUP6 SWAP5 POP PUSH1 0x1 ADD PUSH2 0xCA4 JUMP JUMPDEST POP DUP1 PUSH2 0xC9E JUMP JUMPDEST ADD MLOAD SWAP1 POP DUP4 DUP1 PUSH2 0x743 JUMP JUMPDEST SWAP3 POP PUSH1 0x8 DUP5 ADD PUSH1 0x0 MSTORE PUSH1 0x20 PUSH1 0x0 KECCAK256 SWAP1 PUSH1 0x0 SWAP4 JUMPDEST PUSH1 0x1F NOT DUP5 AND DUP6 LT PUSH2 0xD32 JUMPI PUSH1 0x1 SWAP5 POP DUP4 PUSH1 0x1F NOT DUP2 AND LT PUSH2 0xD19 JUMPI JUMPDEST POP POP POP DUP2 SHL ADD PUSH1 0x8 DUP3 ADD SSTORE PUSH2 0x75B JUMP JUMPDEST ADD MLOAD PUSH1 0x0 NOT PUSH1 0xF8 DUP5 PUSH1 0x3 SHL AND SHR NOT AND SWAP1 SSTORE DUP4 DUP1 DUP1 PUSH2 0xD09 JUMP JUMPDEST DUP2 DUP2 ADD MLOAD DUP4 SSTORE PUSH1 0x20 SWAP5 DUP6 ADD SWAP5 PUSH1 0x1 SWAP1 SWAP4 ADD SWAP3 SWAP1 SWAP2 ADD SWAP1 PUSH2 0xCEE JUMP JUMPDEST SWAP1 SWAP2 POP PUSH1 0x8 DUP5 ADD PUSH1 0x0 MSTORE PUSH1 0x20 PUSH1 0x0 KECCAK256 PUSH1 0x1F DUP5 ADD PUSH1 0x5 SHR DUP2 ADD PUSH1 0x20 DUP6 LT PUSH2 0xD99 JUMPI JUMPDEST SWAP1 DUP5 SWAP4 SWAP3 SWAP2 JUMPDEST PUSH1 0x1F DUP4 ADD PUSH1 0x5 SHR DUP3 ADD DUP2 LT PUSH2 0xD8A JUMPI POP POP PUSH2 0x72C JUMP JUMPDEST PUSH1 0x0 DUP2 SSTORE DUP6 SWAP5 POP PUSH1 0x1 ADD PUSH2 0xD74 JUMP JUMPDEST POP DUP1 PUSH2 0xD6E JUMP JUMPDEST ADD MLOAD SWAP1 POP DUP4 DUP1 PUSH2 0x6E2 JUMP JUMPDEST SWAP3 POP PUSH1 0x7 DUP5 ADD PUSH1 0x0 MSTORE PUSH1 0x20 PUSH1 0x0 KECCAK256 SWAP1 PUSH1 0x0 SWAP4 JUMPDEST PUSH1 0x1F NOT DUP5 AND DUP6 LT PUSH2 0xE02 JUMPI PUSH1 0x1 SWAP5 POP DUP4 PUSH1 0x1F NOT DUP2 AND LT PUSH2 0xDE9 JUMPI JUMPDEST POP POP POP DUP2 SHL ADD PUSH1 0x7 DUP3 ADD SSTORE PUSH2 0x6FA JUMP JUMPDEST ADD MLOAD PUSH1 0x0 NOT PUSH1 0xF8 DUP5 PUSH1 0x3 SHL AND SHR NOT AND SWAP1 SSTORE DUP4 DUP1 DUP1 PUSH2 0xDD9 JUMP JUMPDEST DUP2 DUP2 ADD MLOAD DUP4 SSTORE PUSH1 0x20 SWAP5 DUP6 ADD SWAP5 PUSH1 0x1 SWAP1 SWAP4 ADD SWAP3 SWAP1 SWAP2 ADD SWAP1 PUSH2 0xDBE JUMP JUMPDEST SWAP1 SWAP2 POP PUSH1 0x7 DUP5 ADD PUSH1 0x0 MSTORE PUSH1 0x20 PUSH1 0x0 KECCAK256 PUSH1 0x1F DUP5 ADD PUSH1 0x5 SHR DUP2 ADD PUSH1 0x20 DUP6 LT PUSH2 0xE69 JUMPI JUMPDEST SWAP1 DUP5 SWAP4 SWAP3 SWAP2 JUMPDEST PUSH1 0x1F DUP4 ADD PUSH1 0x5 SHR DUP3 ADD DUP2 LT PUSH2 0xE5A JUMPI POP POP PUSH2 0x6CB JUMP JUMPDEST PUSH1 0x0 DUP2 SSTORE DUP6 SWAP5 POP PUSH1 0x1 ADD PUSH2 0xE44 JUMP JUMPDEST POP DUP1 PUSH2 0xE3E JUMP JUMPDEST ADD MLOAD SWAP1 POP DUP4 DUP1 PUSH2 0x682 JUMP JUMPDEST SWAP3 POP PUSH1 0x6 DUP5 ADD PUSH1 0x0 MSTORE PUSH1 0x20 PUSH1 0x0 KECCAK256 SWAP1 PUSH1 0x0 SWAP4 JUMPDEST PUSH1 0x1F NOT DUP5 AND DUP6 LT PUSH2 0xED2 JUMPI PUSH1 0x1 SWAP5 POP DUP4 PUSH1 0x1F NOT DUP2 AND LT PUSH2 0xEB9 JUMPI JUMPDEST POP POP POP DUP2 SHL ADD PUSH1 0x6 DUP3 ADD SSTORE PUSH2 0x69A JUMP JUMPDEST ADD MLOAD PUSH1 0x0 NOT PUSH1 0xF8 DUP5 PUSH1 0x3 SHL AND SHR NOT AND SWAP1 SSTORE DUP4 DUP1 DUP1 PUSH2 0xEA9 JUMP JUMPDEST DUP2 DUP2 ADD MLOAD DUP4 SSTORE PUSH1 0x20 SWAP5 DUP6 ADD SWAP5 PUSH1 0x1 SWAP1 SWAP4 ADD SWAP3 SWAP1 SWAP2 ADD SWAP1 PUSH2 0xE8E JUMP JUMPDEST SWAP1 SWAP2 POP PUSH1 0x6 DUP5 ADD PUSH1 0x0 MSTORE PUSH1 0x20 PUSH1 0x0 KECCAK256 PUSH1 0x1F DUP5 ADD PUSH1 0x5 SHR DUP2 ADD PUSH1 0x20 DUP6 LT PUSH2 0xF39 JUMPI JUMPDEST SWAP1 DUP5 SWAP4 SWAP3 SWAP2 JUMPDEST PUSH1 0x1F DUP4 ADD PUSH1 0x5 SHR DUP3 ADD DUP2 LT PUSH2 0xF2A JUMPI POP POP PUSH2 0x66B JUMP JUMPDEST PUSH1 0x0 DUP2 SSTORE DUP6 SWAP5 POP PUSH1 0x1 ADD PUSH2 0xF14 JUMP JUMPDEST POP DUP1 PUSH2 0xF0E JUMP JUMPDEST ADD MLOAD SWAP1 POP DUP4 DUP1 PUSH2 0x622 JUMP JUMPDEST SWAP3 POP PUSH1 0x5 DUP5 ADD PUSH1 0x0 MSTORE PUSH1 0x20 PUSH1 0x0 KECCAK256 SWAP1 PUSH1 0x0 SWAP4 JUMPDEST PUSH1 0x1F NOT DUP5 AND DUP6 LT PUSH2 0xFA2 JUMPI PUSH1 0x1 SWAP5 POP DUP4 PUSH1 0x1F NOT DUP2 AND LT PUSH2 0xF89 JUMPI JUMPDEST POP POP POP DUP2 SHL ADD PUSH1 0x5 DUP3 ADD SSTORE PUSH2 0x63A JUMP JUMPDEST ADD MLOAD PUSH1 0x0 NOT PUSH1 0xF8 DUP5 PUSH1 0x3 SHL AND SHR NOT AND SWAP1 SSTORE DUP4 DUP1 DUP1 PUSH2 0xF79 JUMP JUMPDEST DUP2 DUP2 ADD MLOAD DUP4 SSTORE PUSH1 0x20 SWAP5 DUP6 ADD SWAP5 PUSH1 0x1 SWAP1 SWAP4 ADD SWAP3 SWAP1 SWAP2 ADD SWAP1 PUSH2 0xF5E JUMP JUMPDEST SWAP1 SWAP2 POP PUSH1 0x5 DUP5 ADD PUSH1 0x0 MSTORE PUSH1 0x20 PUSH1 0x0 KECCAK256 PUSH1 0x1F DUP5 ADD PUSH1 0x5 SHR DUP2 ADD PUSH1 0x20 DUP6 LT PUSH2 0x1009 JUMPI JUMPDEST SWAP1 DUP5 SWAP4 SWAP3 SWAP2 JUMPDEST PUSH1 0x1F DUP4 ADD PUSH1 0x5 SHR DUP3 ADD DUP2 LT PUSH2 0xFFA JUMPI POP POP PUSH2 0x60B JUMP JUMPDEST PUSH1 0x0 DUP2 SSTORE DUP6 SWAP5 POP PUSH1 0x1 ADD PUSH2 0xFE4 JUMP JUMPDEST POP DUP1 PUSH2 0xFDE JUMP JUMPDEST ADD MLOAD SWAP1 POP DUP4 DUP1 PUSH2 0x5C2 JUMP JUMPDEST SWAP3 POP PUSH1 0x4 DUP5 ADD PUSH1 0x0 MSTORE PUSH1 0x20 PUSH1 0x0 KECCAK256 SWAP1 PUSH1 0x0 SWAP4 JUMPDEST PUSH1 0x1F NOT DUP5 AND DUP6 LT PUSH2 0x1072 JUMPI PUSH1 0x1 SWAP5 POP DUP4 PUSH1 0x1F NOT DUP2 AND LT PUSH2 0x1059 JUMPI JUMPDEST POP POP POP DUP2 SHL ADD PUSH1 0x4 DUP3 ADD SSTORE PUSH2 0x5DA JUMP JUMPDEST ADD MLOAD PUSH1 0x0 NOT PUSH1 0xF8 DUP5 PUSH1 0x3 SHL AND SHR NOT AND SWAP1 SSTORE DUP4 DUP1 DUP1 PUSH2 0x1049 JUMP JUMPDEST DUP2 DUP2 ADD MLOAD DUP4 SSTORE PUSH1 0x20 SWAP5 DUP6 ADD SWAP5 PUSH1 0x1 SWAP1 SWAP4 ADD SWAP3 SWAP1 SWAP2 ADD SWAP1 PUSH2 0x102E JUMP JUMPDEST SWAP1 SWAP2 POP PUSH1 0x4 DUP5 ADD PUSH1 0x0 MSTORE PUSH1 0x20 PUSH1 0x0 KECCAK256 PUSH1 0x1F DUP5 ADD PUSH1 0x5 SHR DUP2 ADD PUSH1 0x20 DUP6 LT PUSH2 0x10D9 JUMPI JUMPDEST SWAP1 DUP5 SWAP4 SWAP3 SWAP2 JUMPDEST PUSH1 0x1F DUP4 ADD PUSH1 0x5 SHR DUP3 ADD DUP2 LT PUSH2 0x10CA JUMPI POP POP PUSH2 0x5AB JUMP JUMPDEST PUSH1 0x0 DUP2 SSTORE DUP6 SWAP5 POP PUSH1 0x1 ADD PUSH2 0x10B4 JUMP JUMPDEST POP DUP1 PUSH2 0x10AE JUMP JUMPDEST ADD MLOAD SWAP1 POP DUP4 DUP1 PUSH2 0x562 JUMP JUMPDEST SWAP3 POP PUSH1 0x3 DUP5 ADD PUSH1 0x0 MSTORE PUSH1 0x20 PUSH1 0x0 KECCAK256 SWAP1 PUSH1 0x0 SWAP4 JUMPDEST PUSH1 0x1F NOT DUP5 AND DUP6 LT PUSH2 0x1142 JUMPI PUSH1 0x1 SWAP5 POP DUP4 PUSH1 0x1F NOT DUP2 AND LT PUSH2 0x1129 JUMPI JUMPDEST POP POP POP DUP2 SHL ADD PUSH1 0x3 DUP3 ADD SSTORE PUSH2 0x57A JUMP JUMPDEST ADD MLOAD PUSH1 0x0 NOT PUSH1 0xF8 DUP5 PUSH1 0x3 SHL AND SHR NOT AND SWAP1 SSTORE DUP4 DUP1 DUP1 PUSH2 0x1119 JUMP JUMPDEST DUP2 DUP2 ADD MLOAD DUP4 SSTORE PUSH1 0x20 SWAP5 DUP6 ADD SWAP5 PUSH1 0x1 SWAP1 SWAP4 ADD SWAP3 SWAP1 SWAP2 ADD SWAP1 PUSH2 0x10FE JUMP JUMPDEST SWAP1 SWAP2 POP PUSH1 0x3 DUP5 ADD PUSH1 0x0 MSTORE PUSH1 0x20 PUSH1 0x0 KECCAK256 PUSH1 0x1F DUP5 ADD PUSH1 0x5 SHR DUP2 ADD PUSH1 0x20 DUP6 LT PUSH2 0x11A9 JUMPI JUMPDEST SWAP1 DUP5 SWAP4 SWAP3 SWAP2 JUMPDEST PUSH1 0x1F DUP4 ADD PUSH1 0x5 SHR DUP3 ADD DUP2 LT PUSH2 0x119A JUMPI POP POP PUSH2 0x54B JUMP JUMPDEST PUSH1 0x0 DUP2 SSTORE DUP6 SWAP5 POP PUSH1 0x1 ADD PUSH2 0x1184 JUMP JUMPDEST POP DUP1 PUSH2 0x117E JUMP JUMPDEST ADD MLOAD SWAP1 POP DUP4 DUP1 PUSH2 0x502 JUMP JUMPDEST SWAP3 POP PUSH1 0x2 DUP5 ADD PUSH1 0x0 MSTORE PUSH1 0x20 PUSH1 0x0 KECCAK256 SWAP1 PUSH1 0x0 SWAP4 JUMPDEST PUSH1 0x1F NOT DUP5 AND DUP6 LT PUSH2 0x1212 JUMPI PUSH1 0x1 SWAP5 POP DUP4 PUSH1 0x1F NOT DUP2 AND LT PUSH2 0x11F9 JUMPI JUMPDEST POP POP POP DUP2 SHL ADD PUSH1 0x2 DUP3 ADD SSTORE PUSH2 0x51A JUMP JUMPDEST ADD MLOAD PUSH1 0x0 NOT PUSH1 0xF8 DUP5 PUSH1 0x3 SHL AND SHR NOT AND SWAP1 SSTORE DUP4 DUP1 DUP1 PUSH2 0x11E9 JUMP JUMPDEST DUP2 DUP2 ADD MLOAD DUP4 SSTORE PUSH1 0x20 SWAP5 DUP6 ADD SWAP5 PUSH1 0x1 SWAP1 SWAP4 ADD SWAP3 SWAP1 SWAP2 ADD SWAP1 PUSH2 0x11CE JUMP JUMPDEST SWAP1 SWAP2 POP PUSH1 0x2 DUP5 ADD PUSH1 0x0 MSTORE PUSH1 0x20 PUSH1 0x0 KECCAK256 PUSH1 0x1F DUP5 ADD PUSH1 0x5 SHR DUP2 ADD PUSH1 0x20 DUP6 LT PUSH2 0x1279 JUMPI JUMPDEST SWAP1 DUP5 SWAP4 SWAP3 SWAP2 JUMPDEST PUSH1 0x1F DUP4 ADD PUSH1 0x5 SHR DUP3 ADD DUP2 LT PUSH2 0x126A JUMPI POP POP PUSH2 0x4EB JUMP JUMPDEST PUSH1 0x0 DUP2 SSTORE DUP6 SWAP5 POP PUSH1 0x1 ADD PUSH2 0x1254 JUMP JUMPDEST POP DUP1 PUSH2 0x124E JUMP JUMPDEST ADD MLOAD SWAP1 POP DUP4 DUP1 PUSH2 0x4A2 JUMP JUMPDEST SWAP3 POP PUSH1 0x1 DUP5 ADD PUSH1 0x0 MSTORE PUSH1 0x20 PUSH1 0x0 KECCAK256 SWAP1 PUSH1 0x0 SWAP4 JUMPDEST PUSH1 0x1F NOT DUP5 AND DUP6 LT PUSH2 0x12E2 JUMPI PUSH1 0x1 SWAP5 POP DUP4 PUSH1 0x1F NOT DUP2 AND LT PUSH2 0x12C9 JUMPI JUMPDEST POP POP POP DUP2 SHL ADD PUSH1 0x1 DUP3 ADD SSTORE PUSH2 0x4BA JUMP JUMPDEST ADD MLOAD PUSH1 0x0 NOT PUSH1 0xF8 DUP5 PUSH1 0x3 SHL AND SHR NOT AND SWAP1 SSTORE DUP4 DUP1 DUP1 PUSH2 0x12B9 JUMP JUMPDEST DUP2 DUP2 ADD MLOAD DUP4 SSTORE PUSH1 0x20 SWAP5 DUP6 ADD SWAP5 PUSH1 0x1 SWAP1 SWAP4 ADD SWAP3 SWAP1 SWAP2 ADD SWAP1 PUSH2 0x129E JUMP JUMPDEST SWAP1 SWAP2 POP PUSH1 0x1 DUP5 ADD PUSH1 0x0 MSTORE PUSH1 0x20 PUSH1 0x0 KECCAK256 PUSH1 0x1F DUP5 ADD PUSH1 0x5 SHR DUP2 ADD PUSH1 0x20 DUP6 LT PUSH2 0x1349 JUMPI JUMPDEST SWAP1 DUP5 SWAP4 SWAP3 SWAP2 JUMPDEST PUSH1 0x1F DUP4 ADD PUSH1 0x5 SHR DUP3 ADD DUP2 LT PUSH2 0x133A JUMPI POP POP PUSH2 0x48B JUMP JUMPDEST PUSH1 0x0 DUP2 SSTORE DUP6 SWAP5 POP PUSH1 0x1 ADD PUSH2 0x1324 JUMP JUMPDEST POP DUP1 PUSH2 0x131E JUMP JUMPDEST ADD MLOAD SWAP1 POP DUP4 DUP1 PUSH2 0x445 JUMP JUMPDEST SWAP3 POP DUP4 PUSH1 0x0 MSTORE PUSH1 0x20 PUSH1 0x0 KECCAK256 SWAP1 PUSH1 0x0 SWAP4 JUMPDEST PUSH1 0x1F NOT DUP5 AND DUP6 LT PUSH2 0x13AC JUMPI PUSH1 0x1 SWAP5 POP DUP4 PUSH1 0x1F NOT DUP2 AND LT PUSH2 0x1393 JUMPI JUMPDEST POP POP POP DUP2 SHL ADD DUP2 SSTORE PUSH2 0x45A JUMP JUMPDEST ADD MLOAD PUSH1 0x0 NOT PUSH1 0xF8 DUP5 PUSH1 0x3 SHL AND SHR NOT AND SWAP1 SSTORE DUP4 DUP1 DUP1 PUSH2 0x1386 JUMP JUMPDEST DUP2 DUP2 ADD MLOAD DUP4 SSTORE PUSH1 0x20 SWAP5 DUP6 ADD SWAP5 PUSH1 0x1 SWAP1 SWAP4 ADD SWAP3 SWAP1 SWAP2 ADD SWAP1 PUSH2 0x136B JUMP JUMPDEST SWAP1 SWAP2 POP DUP4 PUSH1 0x0 MSTORE PUSH1 0x20 PUSH1 0x0 KECCAK256 PUSH1 0x1F DUP5 ADD PUSH1 0x5 SHR DUP2 ADD PUSH1 0x20 DUP6 LT PUSH2 0x1410 JUMPI JUMPDEST SWAP1 DUP5 SWAP4 SWAP3 SWAP2 JUMPDEST PUSH1 0x1F DUP4 ADD PUSH1 0x5 SHR DUP3 ADD DUP2 LT PUSH2 0x1401 JUMPI POP POP PUSH2 0x42E JUMP JUMPDEST PUSH1 0x0 DUP2 SSTORE DUP6 SWAP5 POP PUSH1 0x1 ADD PUSH2 0x13EB JUMP JUMPDEST POP DUP1 PUSH2 0x13E5 JUMP JUMPDEST PUSH1 0x40 MLOAD PUSH3 0x461BCD PUSH1 0xE5 SHL DUP2 MSTORE PUSH1 0x20 PUSH1 0x4 DUP3 ADD MSTORE PUSH1 0xB PUSH1 0x24 DUP3 ADD MSTORE PUSH11 0x139BDD081CDD195DD85C99 PUSH1 0xAA SHL PUSH1 0x44 DUP3 ADD MSTORE PUSH1 0x64 SWAP1 REVERT JUMPDEST CALLVALUE PUSH2 0xA4 JUMPI PUSH1 0x20 CALLDATASIZE PUSH1 0x3 NOT ADD SLT PUSH2 0xA4 JUMPI PUSH2 0x1463 PUSH2 0x18C4 JUMP JUMPDEST PUSH1 0x60 PUSH2 0x160 PUSH1 0x40 MLOAD PUSH2 0x1474 DUP2 PUSH2 0x1914 JUMP JUMPDEST DUP3 DUP2 MSTORE DUP3 PUSH1 0x20 DUP3 ADD MSTORE DUP3 PUSH1 0x40 DUP3 ADD MSTORE DUP3 DUP1 DUP3 ADD MSTORE DUP3 PUSH1 0x80 DUP3 ADD MSTORE DUP3 PUSH1 0xA0 DUP3 ADD MSTORE DUP3 PUSH1 0xC0 DUP3 ADD MSTORE DUP3 PUSH1 0xE0 DUP3 ADD MSTORE DUP3 PUSH2 0x100 DUP3 ADD MSTORE DUP3 PUSH2 0x120 DUP3 ADD MSTORE DUP3 PUSH2 0x140 DUP3 ADD MSTORE ADD MSTORE PUSH1 0x1 DUP1 PUSH1 0xA0 SHL SUB AND PUSH1 0x0 MSTORE PUSH1 0x1 PUSH1 0x20 MSTORE PUSH2 0x1600 PUSH1 0x40 PUSH1 0x0 KECCAK256 PUSH2 0x159F PUSH1 0xB PUSH1 0x40 MLOAD SWAP3 PUSH2 0x14E1 DUP5 PUSH2 0x1914 JUMP JUMPDEST PUSH2 0x14EA DUP2 PUSH2 0x1951 JUMP JUMPDEST DUP5 MSTORE PUSH2 0x14F8 PUSH1 0x1 DUP3 ADD PUSH2 0x1951 JUMP JUMPDEST PUSH1 0x20 DUP6 ADD MSTORE PUSH2 0x1509 PUSH1 0x2 DUP3 ADD PUSH2 0x1951 JUMP JUMPDEST PUSH1 0x40 DUP6 ADD MSTORE PUSH2 0x151A PUSH1 0x3 DUP3 ADD PUSH2 0x1951 JUMP JUMPDEST PUSH1 0x60 DUP6 ADD MSTORE PUSH2 0x152B PUSH1 0x4 DUP3 ADD PUSH2 0x1951 JUMP JUMPDEST PUSH1 0x80 DUP6 ADD MSTORE PUSH2 0x153C PUSH1 0x5 DUP3 ADD PUSH2 0x1951 JUMP JUMPDEST PUSH1 0xA0 DUP6 ADD MSTORE PUSH2 0x154D PUSH1 0x6 DUP3 ADD PUSH2 0x1951 JUMP JUMPDEST PUSH1 0xC0 DUP6 ADD MSTORE PUSH2 0x155E PUSH1 0x7 DUP3 ADD PUSH2 0x1951 JUMP JUMPDEST PUSH1 0xE0 DUP6 ADD MSTORE PUSH2 0x156F PUSH1 0x8 DUP3 ADD PUSH2 0x1951 JUMP JUMPDEST PUSH2 0x100 DUP6 ADD MSTORE PUSH2 0x1581 PUSH1 0x9 DUP3 ADD PUSH2 0x1951 JUMP JUMPDEST PUSH2 0x120 DUP6 ADD MSTORE PUSH2 0x1593 PUSH1 0xA DUP3 ADD PUSH2 0x1951 JUMP JUMPDEST PUSH2 0x140 DUP6 ADD MSTORE ADD PUSH2 0x1951 JUMP JUMPDEST PUSH2 0x160 DUP3 ADD MSTORE PUSH2 0x16E2 DUP2 PUSH2 0x160 PUSH2 0x16CD PUSH2 0x16B7 PUSH2 0x169F PUSH2 0x1687 PUSH2 0x1670 PUSH2 0x165A PUSH2 0x1644 PUSH2 0x162E PUSH2 0x1618 PUSH1 0x40 MLOAD SWAP14 DUP15 SWAP14 DUP15 PUSH1 0x20 DUP2 MSTORE PUSH1 0x20 PUSH2 0x15EB DUP4 MLOAD PUSH2 0x180 DUP4 DUP6 ADD MSTORE PUSH2 0x1A0 DUP5 ADD SWAP1 PUSH2 0x19F7 JUMP JUMPDEST SWAP3 ADD MLOAD SWAP1 PUSH1 0x40 PUSH1 0x1F NOT DUP3 DUP6 SUB ADD SWAP2 ADD MSTORE PUSH2 0x19F7 JUMP JUMPDEST DUP14 PUSH1 0x40 DUP14 ADD MLOAD SWAP1 PUSH1 0x60 PUSH1 0x1F NOT DUP3 DUP6 SUB ADD SWAP2 ADD MSTORE PUSH2 0x19F7 JUMP JUMPDEST PUSH1 0x60 DUP12 ADD MLOAD DUP14 DUP3 SUB PUSH1 0x1F NOT ADD PUSH1 0x80 DUP16 ADD MSTORE PUSH2 0x19F7 JUMP JUMPDEST PUSH1 0x80 DUP11 ADD MLOAD DUP13 DUP3 SUB PUSH1 0x1F NOT ADD PUSH1 0xA0 DUP15 ADD MSTORE PUSH2 0x19F7 JUMP JUMPDEST PUSH1 0xA0 DUP10 ADD MLOAD DUP12 DUP3 SUB PUSH1 0x1F NOT ADD PUSH1 0xC0 DUP14 ADD MSTORE PUSH2 0x19F7 JUMP JUMPDEST PUSH1 0xC0 DUP9 ADD MLOAD DUP11 DUP3 SUB PUSH1 0x1F NOT ADD PUSH1 0xE0 DUP13 ADD MSTORE PUSH2 0x19F7 JUMP JUMPDEST PUSH1 0xE0 DUP8 ADD MLOAD DUP10 DUP3 SUB PUSH1 0x1F NOT ADD PUSH2 0x100 DUP12 ADD MSTORE PUSH2 0x19F7 JUMP JUMPDEST PUSH2 0x100 DUP7 ADD MLOAD DUP9 DUP3 SUB PUSH1 0x1F NOT ADD PUSH2 0x120 DUP11 ADD MSTORE PUSH2 0x19F7 JUMP JUMPDEST PUSH2 0x120 DUP6 ADD MLOAD DUP8 DUP3 SUB PUSH1 0x1F NOT ADD PUSH2 0x140 DUP10 ADD MSTORE PUSH2 0x19F7 JUMP JUMPDEST PUSH2 0x140 DUP5 ADD MLOAD DUP7 DUP3 SUB PUSH1 0x1F NOT ADD DUP5 DUP9 ADD MSTORE PUSH2 0x19F7 JUMP JUMPDEST SWAP2 ADD MLOAD DUP4 DUP3 SUB PUSH1 0x1F NOT ADD PUSH2 0x180 DUP6 ADD MSTORE PUSH2 0x19F7 JUMP JUMPDEST SUB SWAP1 RETURN JUMPDEST CALLVALUE PUSH2 0xA4 JUMPI PUSH1 0x0 CALLDATASIZE PUSH1 0x3 NOT ADD SLT PUSH2 0xA4 JUMPI PUSH1 0x0 SLOAD PUSH1 0x40 MLOAD PUSH1 0x1 PUSH1 0x1 PUSH1 0xA0 SHL SUB SWAP1 SWAP2 AND DUP2 MSTORE PUSH1 0x20 SWAP1 RETURN JUMPDEST CALLVALUE PUSH2 0xA4 JUMPI PUSH1 0x20 CALLDATASIZE PUSH1 0x3 NOT ADD SLT PUSH2 0xA4 JUMPI PUSH1 0x1 PUSH1 0x1 PUSH1 0xA0 SHL SUB PUSH2 0x1730 PUSH2 0x18C4 JUMP JUMPDEST AND PUSH1 0x0 MSTORE PUSH1 0x1 PUSH1 0x20 MSTORE PUSH1 0x40 PUSH1 0x0 KECCAK256 PUSH2 0x1747 DUP2 PUSH2 0x1951 JUMP JUMPDEST PUSH2 0x1753 PUSH1 0x1 DUP4 ADD PUSH2 0x1951 JUMP JUMPDEST SWAP2 PUSH2 0x1760 PUSH1 0x2 DUP3 ADD PUSH2 0x1951 JUMP JUMPDEST SWAP1 PUSH2 0x176D PUSH1 0x3 DUP3 ADD PUSH2 0x1951 JUMP JUMPDEST PUSH2 0x1779 PUSH1 0x4 DUP4 ADD PUSH2 0x1951 JUMP JUMPDEST PUSH2 0x1785 PUSH1 0x5 DUP5 ADD PUSH2 0x1951 JUMP JUMPDEST PUSH2 0x1791 PUSH1 0x6 DUP6 ADD PUSH2 0x1951 JUMP JUMPDEST PUSH2 0x179D PUSH1 0x7 DUP7 ADD PUSH2 0x1951 JUMP JUMPDEST SWAP2 PUSH2 0x17AA PUSH1 0x8 DUP8 ADD PUSH2 0x1951 JUMP JUMPDEST SWAP4 PUSH2 0x17B7 PUSH1 0x9 DUP9 ADD PUSH2 0x1951 JUMP JUMPDEST SWAP6 PUSH2 0x17C4 PUSH1 0xA DUP10 ADD PUSH2 0x1951 JUMP JUMPDEST SWAP8 PUSH1 0xB ADD PUSH2 0x17D1 SWAP1 PUSH2 0x1951 JUMP JUMPDEST SWAP9 PUSH1 0x40 MLOAD SWAP12 DUP13 SWAP12 DUP13 PUSH2 0x180 DUP1 SWAP2 MSTORE DUP14 ADD PUSH2 0x17EA SWAP2 PUSH2 0x19F7 JUMP JUMPDEST DUP13 DUP2 SUB PUSH1 0x20 DUP15 ADD MSTORE PUSH2 0x17FB SWAP2 PUSH2 0x19F7 JUMP JUMPDEST DUP12 DUP2 SUB PUSH1 0x40 DUP14 ADD MSTORE PUSH2 0x180C SWAP2 PUSH2 0x19F7 JUMP JUMPDEST DUP11 DUP2 SUB PUSH1 0x60 DUP13 ADD MSTORE PUSH2 0x181D SWAP2 PUSH2 0x19F7 JUMP JUMPDEST DUP10 DUP2 SUB PUSH1 0x80 DUP12 ADD MSTORE PUSH2 0x182E SWAP2 PUSH2 0x19F7 JUMP JUMPDEST DUP9 DUP2 SUB PUSH1 0xA0 DUP11 ADD MSTORE PUSH2 0x183F SWAP2 PUSH2 0x19F7 JUMP JUMPDEST DUP8 DUP2 SUB PUSH1 0xC0 DUP10 ADD MSTORE PUSH2 0x1850 SWAP2 PUSH2 0x19F7 JUMP JUMPDEST DUP7 DUP2 SUB PUSH1 0xE0 DUP9 ADD MSTORE PUSH2 0x1861 SWAP2 PUSH2 0x19F7 JUMP JUMPDEST DUP6 DUP2 SUB PUSH2 0x100 DUP8 ADD MSTORE PUSH2 0x1873 SWAP2 PUSH2 0x19F7 JUMP JUMPDEST DUP5 DUP2 SUB PUSH2 0x120 DUP7 ADD MSTORE PUSH2 0x1885 SWAP2 PUSH2 0x19F7 JUMP JUMPDEST DUP4 DUP2 SUB PUSH2 0x140 DUP6 ADD MSTORE PUSH2 0x1897 SWAP2 PUSH2 0x19F7 JUMP JUMPDEST DUP3 DUP2 SUB PUSH2 0x160 DUP5 ADD MSTORE PUSH2 0x16E2 SWAP2 PUSH2 0x19F7 JUMP JUMPDEST CALLVALUE PUSH2 0xA4 JUMPI PUSH1 0x0 CALLDATASIZE PUSH1 0x3 NOT ADD SLT PUSH2 0xA4 JUMPI PUSH1 0x20 SWAP1 PUSH1 0x2 SLOAD DUP2 MSTORE RETURN JUMPDEST PUSH1 0x4 CALLDATALOAD SWAP1 PUSH1 0x1 PUSH1 0x1 PUSH1 0xA0 SHL SUB DUP3 AND DUP3 SUB PUSH2 0xA4 JUMPI JUMP JUMPDEST SWAP1 PUSH1 0x1 DUP3 DUP2 SHR SWAP3 AND DUP1 ISZERO PUSH2 0x190A JUMPI JUMPDEST PUSH1 0x20 DUP4 LT EQ PUSH2 0x18F4 JUMPI JUMP JUMPDEST PUSH4 0x4E487B71 PUSH1 0xE0 SHL PUSH1 0x0 MSTORE PUSH1 0x22 PUSH1 0x4 MSTORE PUSH1 0x24 PUSH1 0x0 REVERT JUMPDEST SWAP2 PUSH1 0x7F AND SWAP2 PUSH2 0x18E9 JUMP JUMPDEST PUSH2 0x180 DUP2 ADD SWAP1 DUP2 LT PUSH1 0x1 PUSH1 0x1 PUSH1 0x40 SHL SUB DUP3 GT OR PUSH2 0xA5A JUMPI PUSH1 0x40 MSTORE JUMP JUMPDEST SWAP1 PUSH1 0x1F DUP1 NOT SWAP2 ADD AND DUP2 ADD SWAP1 DUP2 LT PUSH1 0x1 PUSH1 0x1 PUSH1 0x40 SHL SUB DUP3 GT OR PUSH2 0xA5A JUMPI PUSH1 0x40 MSTORE JUMP JUMPDEST SWAP1 PUSH1 0x40 MLOAD SWAP2 DUP3 PUSH1 0x0 DUP3 SLOAD SWAP3 PUSH2 0x1965 DUP5 PUSH2 0x18DA JUMP JUMPDEST SWAP1 DUP2 DUP5 MSTORE PUSH1 0x1 SWAP5 DUP6 DUP2 AND SWAP1 DUP2 PUSH1 0x0 EQ PUSH2 0x19D4 JUMPI POP PUSH1 0x1 EQ PUSH2 0x1991 JUMPI JUMPDEST POP POP PUSH2 0x198F SWAP3 POP SUB DUP4 PUSH2 0x1930 JUMP JUMPDEST JUMP JUMPDEST SWAP1 SWAP4 SWAP2 POP PUSH1 0x0 MSTORE PUSH1 0x20 SWAP1 DUP2 PUSH1 0x0 KECCAK256 SWAP4 PUSH1 0x0 SWAP2 JUMPDEST DUP2 DUP4 LT PUSH2 0x19BC JUMPI POP POP PUSH2 0x198F SWAP4 POP DUP3 ADD ADD CODESIZE DUP1 PUSH2 0x1981 JUMP JUMPDEST DUP6 SLOAD DUP9 DUP5 ADD DUP6 ADD MSTORE SWAP5 DUP6 ADD SWAP5 DUP8 SWAP5 POP SWAP2 DUP4 ADD SWAP2 PUSH2 0x19A4 JUMP JUMPDEST SWAP2 POP POP PUSH2 0x198F SWAP5 POP PUSH1 0x20 SWAP3 POP PUSH1 0xFF NOT AND DUP3 DUP5 ADD MSTORE ISZERO ISZERO PUSH1 0x5 SHL DUP3 ADD ADD CODESIZE DUP1 PUSH2 0x1981 JUMP JUMPDEST SWAP2 SWAP1 DUP3 MLOAD SWAP3 DUP4 DUP3 MSTORE PUSH1 0x0 JUMPDEST DUP5 DUP2 LT PUSH2 0x1A23 JUMPI POP POP DUP3 PUSH1 0x0 PUSH1 0x20 DUP1 SWAP5 SWAP6 DUP5 ADD ADD MSTORE PUSH1 0x1F DUP1 NOT SWAP2 ADD AND ADD ADD SWAP1 JUMP JUMPDEST PUSH1 0x20 DUP2 DUP4 ADD DUP2 ADD MLOAD DUP5 DUP4 ADD DUP3 ADD MSTORE ADD PUSH2 0x1A02 JUMP JUMPDEST SWAP2 DUP2 PUSH1 0x1F DUP5 ADD SLT ISZERO PUSH2 0xA4 JUMPI DUP3 CALLDATALOAD SWAP2 PUSH1 0x1 PUSH1 0x1 PUSH1 0x40 SHL SUB DUP4 GT PUSH2 0xA4 JUMPI PUSH1 0x20 DUP4 DUP2 DUP7 ADD SWAP6 ADD ADD GT PUSH2 0xA4 JUMPI JUMP JUMPDEST PUSH1 0x2 SLOAD DUP2 LT ISZERO PUSH2 0x1A9B JUMPI PUSH1 0x2 PUSH1 0x0 MSTORE PUSH32 0x405787FA12A823E0F2B7631CC41B3BA8828B3321CA811111FA75CD3AA3BB5ACE ADD SWAP1 PUSH1 0x0 SWAP1 JUMP JUMPDEST PUSH4 0x4E487B71 PUSH1 0xE0 SHL PUSH1 0x0 MSTORE PUSH1 0x32 PUSH1 0x4 MSTORE PUSH1 0x24 PUSH1 0x0 REVERT JUMPDEST SWAP3 SWAP2 SWAP3 PUSH1 0x1 PUSH1 0x1 PUSH1 0x40 SHL SUB DUP3 GT PUSH2 0xA5A JUMPI PUSH1 0x40 MLOAD SWAP2 PUSH2 0x1ADA PUSH1 0x1F DUP3 ADD PUSH1 0x1F NOT AND PUSH1 0x20 ADD DUP5 PUSH2 0x1930 JUMP JUMPDEST DUP3 SWAP5 DUP2 DUP5 MSTORE DUP2 DUP4 ADD GT PUSH2 0xA4 JUMPI DUP3 DUP2 PUSH1 0x20 SWAP4 DUP5 PUSH1 0x0 SWAP7 ADD CALLDATACOPY ADD ADD MSTORE JUMP JUMPDEST SWAP1 DUP1 PUSH1 0x20 SWAP4 SWAP3 DUP2 DUP5 MSTORE DUP5 DUP5 ADD CALLDATACOPY PUSH1 0x0 DUP3 DUP3 ADD DUP5 ADD MSTORE PUSH1 0x1F ADD PUSH1 0x1F NOT AND ADD ADD SWAP1 JUMP INVALID LOG2 PUSH5 0x6970667358 0x22 SLT KECCAK256 ADDMOD 0xF POP PUSH32 0xE6AD3D59710AA5A3FBF79AF83642A8A9FCDC07D399D9AC6A81F2608964736F6C PUSH4 0x43000814 STOP CALLER "},"methodIdentifiers":{"apprentices(uint256)":"f31bee3e","getSummons(address)":"cf84c603","steward()":"637eea19","summonApprentice(address,string,string,string,string,string,string,string,string,string,string,string,string)":"d1f4eb5c","summons(address)":"5a2ed662","totalSummons()":"2a17d4cd"}}}}}