{"contracts/codex/SpiralboundCodexXVIII.sol":{"SpiralboundCodexXVIII":{"abi":[{"inputs":[],"stateMutability":"nonpayable","type":"constructor"},{"anonymous":false,"inputs":[{"indexed":false,"internalType":"string","name":"glyph","type":"string"},{"indexed":false,"internalType":"string","name":"tag","type":"string"},{"indexed":false,"internalType":"string","name":"binding","type":"string"},{"indexed":false,"internalType":"string","name":"annotation","type":"string"},{"indexed":false,"internalType":"string","name":"lineage","type":"string"},{"indexed":false,"internalType":"string","name":"resonance","type":"string"},{"indexed":false,"internalType":"string","name":"protocol","type":"string"},{"indexed":false,"internalType":"string","name":"sanctum","type":"string"},{"indexed":false,"internalType":"string","name":"pulse","type":"string"},{"indexed":false,"internalType":"string","name":"chant","type":"string"},{"indexed":false,"internalType":"string","name":"choreography","type":"string"},{"indexed":false,"internalType":"string","name":"drift","type":"string"},{"indexed":false,"internalType":"string","name":"signature","type":"string"},{"indexed":false,"internalType":"string","name":"signal","type":"string"},{"indexed":false,"internalType":"string","name":"companion","type":"string"},{"indexed":false,"internalType":"string","name":"stewardName","type":"string"},{"indexed":false,"internalType":"string","name":"registry","type":"string"},{"indexed":false,"internalType":"string","name":"echo","type":"string"},{"indexed":false,"internalType":"string","name":"hum","type":"string"}],"name":"CodexInscribed","type":"event"},{"inputs":[{"internalType":"string","name":"","type":"string"}],"name":"codices","outputs":[{"internalType":"string","name":"tag","type":"string"},{"internalType":"string","name":"binding","type":"string"},{"internalType":"string","name":"annotation","type":"string"},{"internalType":"string","name":"lineage","type":"string"},{"internalType":"string","name":"resonance","type":"string"},{"internalType":"string","name":"protocol","type":"string"},{"internalType":"string","name":"sanctum","type":"string"},{"internalType":"string","name":"pulse","type":"string"},{"internalType":"string","name":"chant","type":"string"},{"internalType":"string","name":"choreography","type":"string"},{"internalType":"string","name":"drift","type":"string"},{"internalType":"string","name":"signature","type":"string"},{"internalType":"string","name":"signal","type":"string"},{"internalType":"string","name":"companion","type":"string"},{"internalType":"string","name":"stewardName","type":"string"},{"internalType":"string","name":"registry","type":"string"},{"internalType":"string","name":"echo","type":"string"},{"internalType":"string","name":"hum","type":"string"}],"stateMutability":"view","type":"function"},{"inputs":[{"internalType":"string","name":"glyph","type":"string"}],"name":"getCodex","outputs":[{"components":[{"internalType":"string","name":"tag","type":"string"},{"internalType":"string","name":"binding","type":"string"},{"internalType":"string","name":"annotation","type":"string"},{"internalType":"string","name":"lineage","type":"string"},{"internalType":"string","name":"resonance","type":"string"},{"internalType":"string","name":"protocol","type":"string"},{"internalType":"string","name":"sanctum","type":"string"},{"internalType":"string","name":"pulse","type":"string"},{"internalType":"string","name":"chant","type":"string"},{"internalType":"string","name":"choreography","type":"string"},{"internalType":"string","name":"drift","type":"string"},{"internalType":"string","name":"signature","type":"string"},{"internalType":"string","name":"signal","type":"string"},{"internalType":"string","name":"companion","type":"string"},{"internalType":"string","name":"stewardName","type":"string"},{"internalType":"string","name":"registry","type":"string"},{"internalType":"string","name":"echo","type":"string"},{"internalType":"string","name":"hum","type":"string"}],"internalType":"struct SpiralboundCodexXVIII.Codex","name":"","type":"tuple"}],"stateMutability":"view","type":"function"},{"inputs":[{"internalType":"string","name":"glyph","type":"string"},{"internalType":"string","name":"tag","type":"string"},{"internalType":"string","name":"binding","type":"string"},{"internalType":"string","name":"annotation","type":"string"},{"internalType":"string","name":"lineage","type":"string"},{"internalType":"string","name":"resonance","type":"string"},{"internalType":"string","name":"protocol","type":"string"},{"internalType":"string","name":"sanctum","type":"string"},{"internalType":"string","name":"pulse","type":"string"},{"internalType":"string","name":"chant","type":"string"},{"internalType":"string","name":"choreography","type":"string"},{"internalType":"string","name":"drift","type":"string"},{"internalType":"string","name":"signature","type":"string"},{"internalType":"string","name":"signal","type":"string"},{"internalType":"string","name":"companion","type":"string"},{"internalType":"string","name":"stewardName","type":"string"},{"internalType":"string","name":"registry","type":"string"},{"internalType":"string","name":"echo","type":"string"},{"internalType":"string","name":"hum","type":"string"}],"name":"inscribeCodex","outputs":[],"stateMutability":"nonpayable","type":"function"},{"inputs":[{"internalType":"uint256","name":"","type":"uint256"}],"name":"keys","outputs":[{"internalType":"string","name":"","type":"string"}],"stateMutability":"view","type":"function"},{"inputs":[],"name":"steward","outputs":[{"internalType":"address","name":"","type":"address"}],"stateMutability":"view","type":"function"},{"inputs":[],"name":"totalCodices","outputs":[{"internalType":"uint256","name":"","type":"uint256"}],"stateMutability":"view","type":"function"}],"evm":{"bytecode":{"linkReferences":{},"object":"6080806040523461002857600080546001600160a01b031916331790556122d6908161002e8239f35b600080fdfe610620604052600436101561001357600080fd5b60003560e01c80630765baa4146107f55780630cb6aaf114610794578063637eea191461076b578063833615221461037f578063c212d16b146103615763dbc214241461005f57600080fd5b3461035c57602036600319011261035c576004356001600160401b03811161035c573660238201121561035c5736816004013591602401916100a0926121e5565b60405181818093516020819301916100b79261219d565b810160018152036020019020806100cd816120f7565b6100d9600183016120f7565b6101c0526100e9600283016120f7565b6101a0526100f9600383016120f7565b610105600484016120f7565b610111600585016120f7565b61011d600686016120f7565b610129600787016120f7565b610135600888016120f7565b90610142600989016120f7565b9261014f600a8a016120f7565b9461015c600b8b016120f7565b96610169600c8c016120f7565b98610176600d8d016120f7565b9a610183600e8e016120f7565b9c600f01610190906120f7565b9d61019d601082016120f7565b610600526011016101ad906120f7565b61018052604051806103405261024080915261034051016101cd916121c0565b6103405180820390602001526101c051906101e7916121c0565b6103405180820390604001526101a05190610201916121c0565b610340518082039060600152610216916121c0565b61034051808203906080015261022b916121c0565b610340518082039060a00152610240916121c0565b610340518082039060c00152610255916121c0565b610340518082039060e0015261026a916121c0565b61034051808203906101000152610280916121c0565b61034051808203906101200152610296916121c0565b610340518082039061014001526102ac916121c0565b610340518082039061016001526102c2916121c0565b610340518082039061018001526102d8916121c0565b61034051808203906101a001526102ee916121c0565b61034051808203906101c00152610304916121c0565b61034051808203906101e0015261031a916121c0565b610340518082039061020001526106005190610335916121c0565b6103405180820390610220015261034051906101805190610355916121c0565b0361034051f35b600080fd5b3461035c57600036600319011261035c576020600254604051908152f35b3461035c57602036600319011261035c576004356001600160401b03811161035c5760206103b461067a923690600401612006565b919060606102206040516103c7816120ba565b828152828582015282604082015282808201528260808201528260a08201528260c08201528260e08201528261010082015282610120820152826101408201528261016082015282610180820152826101a0820152826101c0820152826101e082015282610200820152015282604051938492833781016001815203019020610582601160405192610458846120ba565b610461816120f7565b845261046f600182016120f7565b6020850152610480600282016120f7565b6040850152610491600382016120f7565b60608501526104a2600482016120f7565b60808501526104b3600582016120f7565b60a08501526104c4600682016120f7565b60c08501526104d5600782016120f7565b60e08501526104e6600882016120f7565b6101008501526104f8600982016120f7565b61012085015261050a600a82016120f7565b61014085015261051c600b82016120f7565b61016085015261052e600c82016120f7565b610180850152610540600d82016120f7565b6101a0850152610552600e82016120f7565b6101c0850152610564600f82016120f7565b6101e0850152610576601082016120f7565b610200850152016120f7565b6102208201526107678161022061075261073c61072461070c6106f46106dc6106c46106ac6106946040519d8e9d8e6020815260e061066461064f61063961062361060d6105f76105e1895161024060208b01526102608a01906121c0565b60208a0151898203601f190160408b01526121c0565b6040890151888203601f190160608a01526121c0565b6060880151878203601f190160808901526121c0565b6080870151868203601f190160a08801526121c0565b60a0860151858203601f190160c08701526121c0565b60c0850151848203601f1901848601526121c0565b92015190610100601f19828503019101526121c0565b8d6101008d015190610120601f19828503019101526121c0565b6101208b01518d8203601f19016101408f01526121c0565b6101408a01518c8203601f19016101608e01526121c0565b6101608901518b8203601f19016101808d01526121c0565b6101808801518a8203601f19016101a08c01526121c0565b6101a0870151898203601f19016101c08b01526121c0565b6101c0860151888203601f19016101e08a01526121c0565b6101e0850151878203601f19016102008901526121c0565b610200840151868203601f1901848801526121c0565b910151838203601f19016102408501526121c0565b0390f35b3461035c57600036600319011261035c576000546040516001600160a01b039091168152602090f35b3461035c57602036600319011261035c5760043560025481101561035c576107bb90612033565b6107df576107cb610767916120f7565b6040519182916020835260208301906121c0565b634e487b7160e01b600052600060045260246000fd5b3461035c5761026036600319011261035c576004356001600160401b03811161035c57610826903690600401612006565b610140526103a0526024356001600160401b03811161035c5761084d903690600401612006565b6104c052610220526044356001600160401b03811161035c57610874903690600401612006565b61050052610280526064356001600160401b03811161035c5761089b903690600401612006565b610460526105c0526084356001600160401b03811161035c576108c2903690600401612006565b6101e0526103c05260a4356001600160401b03811161035c576108e9903690600401612006565b6104e052610300526001600160401b0360c4351161035c576109103660c435600401612006565b610540526102405260e4356001600160401b03811161035c57610937903690600401612006565b60a0526104a0526001600160401b03610104351161035c5761095f3661010435600401612006565b608052610480526001600160401b03610124351161035c576109873661012435600401612006565b6102a052610360526001600160401b03610144351161035c576109b03661014435600401612006565b6104205261056052610164356001600160401b03811161035c576109d8903690600401612006565b6105205261026052610184356001600160401b03811161035c57610a00903690600401612006565b60c0526105a0526101a4356001600160401b03811161035c57610a27903690600401612006565b61038052610160526101c4356001600160401b03811161035c57610a4f903690600401612006565b610320526102e0526101e4356001600160401b03811161035c57610a77903690600401612006565b6101005261044052610204356001600160401b03811161035c57610a9f903690600401612006565b6102005261040052610224356001600160401b03811161035c57610ac7903690600401612006565b60e0526103e052610244356001600160401b03811161035c57610aee903690600401612006565b61012052610580526000546001600160a01b03163303611fd557610b18604051806105e0526120ba565b610b29366104c051610220516121e5565b6105e05152610b3f3661050051610280516121e5565b60206105e0510152610b5836610460516105c0516121e5565b60406105e0510152610b71366101e0516103c0516121e5565b60606105e0510152610b8a366104e051610300516121e5565b60806105e0510152610ba33661054051610240516121e5565b60a06105e0510152610bbb3660a0516104a0516121e5565b60c06105e0510152610bd336608051610480516121e5565b60e06105e0510152610bec366102a051610360516121e5565b6101006105e0510152610c063661042051610560516121e5565b6101206105e0510152610c203661052051610260516121e5565b6101406105e0510152610c393660c0516105a0516121e5565b6101606105e0510152610c533661038051610160516121e5565b6101806105e0510152610c6d36610320516102e0516121e5565b6101a06105e0510152610c873661010051610440516121e5565b6101c06105e0510152610ca13661020051610400516121e5565b6101e06105e0510152610cba3660e0516103e0516121e5565b6102006105e0510152610cd43661012051610580516121e5565b6102206105e0510152604051610140516103a0518237600161014051820152602081610140518101030190206105e051519081516001600160401b03811161172757610d2a81610d248454612080565b8461222b565b6020601f8211600114611f7057819293600092611f65575b50508160011b916000199060031b1c19161781555b60206105e05101519081516001600160401b038111611727576001820190610d8381610d248454612080565b6020601f8211600114611eff5781929394600092611ef4575b50508160011b916000199060031b1c19161790555b60406105e05101519081516001600160401b038111611727576002820190610ddd81610d248454612080565b6020601f8211600114611e8e5781929394600092611e83575b50508160011b916000199060031b1c19161790555b60606105e05101518051906001600160401b038211611727578190610e4082610e376003870154612080565b6003870161222b565b602090601f8311600114611e1157600092611e06575b50508160011b916000199060031b1c19161760038201555b60806105e05101518051906001600160401b038211611727578190610ea382610e9a6004870154612080565b6004870161222b565b602090601f8311600114611d9457600092611d89575b50508160011b916000199060031b1c19161760048201555b60a06105e05101518051906001600160401b038211611727578190610f0682610efd6005870154612080565b6005870161222b565b602090601f8311600114611d1757600092611d0c575b50508160011b916000199060031b1c19161760058201555b60c06105e05101518051906001600160401b038211611727578190610f6982610f606006870154612080565b6006870161222b565b602090601f8311600114611c9a57600092611c8f575b50508160011b916000199060031b1c19161760068201555b60e06105e05101518051906001600160401b038211611727578190610fcc82610fc36007870154612080565b6007870161222b565b602090601f8311600114611c1d57600092611c12575b50508160011b916000199060031b1c19161760078201555b6101006105e05101518051906001600160401b038211611727578190611030826110276008870154612080565b6008870161222b565b602090601f8311600114611ba057600092611b95575b50508160011b916000199060031b1c19161760088201555b6101206105e05101518051906001600160401b0382116117275781906110948261108b6009870154612080565b6009870161222b565b602090601f8311600114611b2357600092611b18575b50508160011b916000199060031b1c19161760098201555b6101406105e05101518051906001600160401b0382116117275781906110f8826110ef600a870154612080565b600a870161222b565b602090601f8311600114611aa657600092611a9b575b50508160011b916000199060031b1c191617600a8201555b6101606105e05101518051906001600160401b03821161172757819061115c82611153600b870154612080565b600b870161222b565b602090601f8311600114611a2957600092611a1e575b50508160011b916000199060031b1c191617600b8201555b6101806105e05101518051906001600160401b0382116117275781906111c0826111b7600c870154612080565b600c870161222b565b602090601f83116001146119ac576000926119a1575b50508160011b916000199060031b1c191617600c8201555b6101a06105e05101518051906001600160401b0382116117275781906112248261121b600d870154612080565b600d870161222b565b602090601f831160011461192f57600092611924575b50508160011b916000199060031b1c191617600d8201555b6101c06105e05101518051906001600160401b0382116117275781906112888261127f600e870154612080565b600e870161222b565b602090601f83116001146118b2576000926118a7575b50508160011b916000199060031b1c191617600e8201555b6101e06105e05101518051906001600160401b0382116117275781906112ec826112e3600f870154612080565b600f870161222b565b602090601f83116001146118355760009261182a575b50508160011b916000199060031b1c191617600f8201555b6102006105e05101518051906001600160401b038211611727578190611350826113476010870154612080565b6010870161222b565b602090601f83116001146117b8576000926117ad575b50508160011b916000199060031b1c19161760108201555b6102206105e0510151908151906001600160401b03821161172757601101906113ab81610d248454612080565b6020601f82116001146117485781929360009261173d575b50508160011b916000199060031b1c19161790555b60025468010000000000000000811015611727578060016113fc9201600255612033565b6107df57610140516001600160401b03811161172757611426906114208354612080565b8361222b565b60009061014051601f81116001146116ba57509060006101405191826116ac575b508160011b916000199060031b1c19161790555b610260604051806102c052527f7a9495741b5517937ab632aa50b02ee857b132c600954b68b764e1ff7b80280661168261166961164f61163561161b6116016115e86115ce6115b461159a61158161156961155061153761151e6115056114ec6114d36102606102c05101610140516103a05161227f565b6102c05160208183039101526104c0516102205161227f565b6102c0516040818303910152610500516102805161227f565b6102c0516060818303910152610460516105c05161227f565b6102c05160808183039101526101e0516103c05161227f565b6102c05160a08183039101526104e0516103005161227f565b6102c05160c0818303910152610540516102405161227f565b6102c05160e081830391015260a0516104a05161227f565b6102c0516101008183039101526080516104805161227f565b6102c0516101208183039101526102a0516103605161227f565b6102c051610140818303910152610420516105605161227f565b6102c051610160818303910152610520516102605161227f565b6102c05161018081830391015260c0516105a05161227f565b6102c0516101a0818303910152610380516101605161227f565b6102c0516101c0818303910152610320516102e05161227f565b6102c0516101e0818303910152610100516104405161227f565b6102c051610200818303910152610200516104005161227f565b6102c05161022081830391015260e0516103e05161227f565b6102c0516102408183039101526116a46102c05191610120516105805161227f565b036102c051a1005b90506103a051013583611447565b8160005260206000206000936103a051905b601f198416861061170f57600194955083601f198116106116f5575b505050811b01905561145b565b0135600019600384901b60f8161c191690558380806116e8565b916020600181928585013581550193019501946116cc565b634e487b7160e01b600052604160045260246000fd5b0151905083806113c3565b82600052602060002090600094601f198416955b868110611795575083600195961061177c575b505050811b0190556113d8565b015160001960f88460031b161c1916905583808061176f565b9192602060018192868501518155019401920161175c565b015190508380611366565b9250601084016000526020600020906000935b601f198416851061180f576001945083601f198116106117f6575b505050811b01601082015561137e565b015160001960f88460031b161c191690558380806117e6565b818101518355602094850194600190930192909101906117cb565b015190508380611302565b9250600f84016000526020600020906000935b601f198416851061188c576001945083601f19811610611873575b505050811b01600f82015561131a565b015160001960f88460031b161c19169055838080611863565b81810151835560209485019460019093019290910190611848565b01519050838061129e565b9250600e84016000526020600020906000935b601f1984168510611909576001945083601f198116106118f0575b505050811b01600e8201556112b6565b015160001960f88460031b161c191690558380806118e0565b818101518355602094850194600190930192909101906118c5565b01519050838061123a565b9250600d84016000526020600020906000935b601f1984168510611986576001945083601f1981161061196d575b505050811b01600d820155611252565b015160001960f88460031b161c1916905583808061195d565b81810151835560209485019460019093019290910190611942565b0151905083806111d6565b9250600c84016000526020600020906000935b601f1984168510611a03576001945083601f198116106119ea575b505050811b01600c8201556111ee565b015160001960f88460031b161c191690558380806119da565b818101518355602094850194600190930192909101906119bf565b015190508380611172565b9250600b84016000526020600020906000935b601f1984168510611a80576001945083601f19811610611a67575b505050811b01600b82015561118a565b015160001960f88460031b161c19169055838080611a57565b81810151835560209485019460019093019290910190611a3c565b01519050838061110e565b9250600a84016000526020600020906000935b601f1984168510611afd576001945083601f19811610611ae4575b505050811b01600a820155611126565b015160001960f88460031b161c19169055838080611ad4565b81810151835560209485019460019093019290910190611ab9565b0151905083806110aa565b9250600984016000526020600020906000935b601f1984168510611b7a576001945083601f19811610611b61575b505050811b0160098201556110c2565b015160001960f88460031b161c19169055838080611b51565b81810151835560209485019460019093019290910190611b36565b015190508380611046565b9250600884016000526020600020906000935b601f1984168510611bf7576001945083601f19811610611bde575b505050811b01600882015561105e565b015160001960f88460031b161c19169055838080611bce565b81810151835560209485019460019093019290910190611bb3565b015190508380610fe2565b9250600784016000526020600020906000935b601f1984168510611c74576001945083601f19811610611c5b575b505050811b016007820155610ffa565b015160001960f88460031b161c19169055838080611c4b565b81810151835560209485019460019093019290910190611c30565b015190508380610f7f565b9250600684016000526020600020906000935b601f1984168510611cf1576001945083601f19811610611cd8575b505050811b016006820155610f97565b015160001960f88460031b161c19169055838080611cc8565b81810151835560209485019460019093019290910190611cad565b015190508380610f1c565b9250600584016000526020600020906000935b601f1984168510611d6e576001945083601f19811610611d55575b505050811b016005820155610f34565b015160001960f88460031b161c19169055838080611d45565b81810151835560209485019460019093019290910190611d2a565b015190508380610eb9565b9250600484016000526020600020906000935b601f1984168510611deb576001945083601f19811610611dd2575b505050811b016004820155610ed1565b015160001960f88460031b161c19169055838080611dc2565b81810151835560209485019460019093019290910190611da7565b015190508380610e56565b9250600384016000526020600020906000935b601f1984168510611e68576001945083601f19811610611e4f575b505050811b016003820155610e6e565b015160001960f88460031b161c19169055838080611e3f565b81810151835560209485019460019093019290910190611e24565b015190508480610df6565b826000526020600020906000601f198416905b818110611edc57509583600195969710611ec3575b505050811b019055610e0b565b015160001960f88460031b161c19169055848080611eb6565b9192602060018192868b015181550194019201611ea1565b015190508480610d9c565b826000526020600020906000601f198416905b818110611f4d57509583600195969710611f34575b505050811b019055610db1565b015160001960f88460031b161c19169055848080611f27565b9192602060018192868b015181550194019201611f12565b015190508380610d42565b82600052602060002090600094601f198416955b868110611fbd5750836001959610611fa4575b505050811b018155610d57565b015160001960f88460031b161c19169055838080611f97565b91926020600181928685015181550194019201611f84565b62461bcd60e51b610620908152602061062452600b610644526a139bdd081cdd195dd85c9960aa1b61066452606490fd5b9181601f8401121561035c578235916001600160401b03831161035c576020838186019501011161035c57565b60025481101561206a5760026000527f405787fa12a823e0f2b7631cc41b3ba8828b3321ca811111fa75cd3aa3bb5ace0190600090565b634e487b7160e01b600052603260045260246000fd5b90600182811c921680156120b0575b602083101461209a57565b634e487b7160e01b600052602260045260246000fd5b91607f169161208f565b61024081019081106001600160401b0382111761172757604052565b90601f801991011681019081106001600160401b0382111761172757604052565b906040519182600082549261210b84612080565b90818452600194858116908160001461217a5750600114612137575b5050612135925003836120d6565b565b9093915060005260209081600020936000915b81831061216257505061213593508201013880612127565b8554888401850152948501948794509183019161214a565b91505061213594506020925060ff191682840152151560051b8201013880612127565b60005b8381106121b05750506000910152565b81810151838201526020016121a0565b906020916121d98151809281855285808601910161219d565b601f01601f1916010190565b9291926001600160401b038211611727576040519161220e601f8201601f1916602001846120d6565b82948184528183011161035c578281602093846000960137010152565b90601f811161223957505050565b600091825260208220906020601f850160051c83019410612275575b601f0160051c01915b82811061226a57505050565b81815560010161225e565b9092508290612255565b908060209392818452848401376000828201840152601f01601f191601019056fea2646970667358221220d02d6afdf32028e11cfa78ca296470861f95599ff0c8503ffad669f6d290855a64736f6c63430008140033","opcodes":"PUSH1 0x80 DUP1 PUSH1 0x40 MSTORE CALLVALUE PUSH2 0x28 JUMPI PUSH1 0x0 DUP1 SLOAD PUSH1 0x1 PUSH1 0x1 PUSH1 0xA0 SHL SUB NOT AND CALLER OR SWAP1 SSTORE PUSH2 0x22D6 SWAP1 DUP2 PUSH2 0x2E DUP3 CODECOPY RETURN JUMPDEST PUSH1 0x0 DUP1 REVERT INVALID PUSH2 0x620 PUSH1 0x40 MSTORE PUSH1 0x4 CALLDATASIZE LT ISZERO PUSH2 0x13 JUMPI PUSH1 0x0 DUP1 REVERT JUMPDEST PUSH1 0x0 CALLDATALOAD PUSH1 0xE0 SHR DUP1 PUSH4 0x765BAA4 EQ PUSH2 0x7F5 JUMPI DUP1 PUSH4 0xCB6AAF1 EQ PUSH2 0x794 JUMPI DUP1 PUSH4 0x637EEA19 EQ PUSH2 0x76B JUMPI DUP1 PUSH4 0x83361522 EQ PUSH2 0x37F JUMPI DUP1 PUSH4 0xC212D16B EQ PUSH2 0x361 JUMPI PUSH4 0xDBC21424 EQ PUSH2 0x5F JUMPI PUSH1 0x0 DUP1 REVERT JUMPDEST CALLVALUE PUSH2 0x35C JUMPI PUSH1 0x20 CALLDATASIZE PUSH1 0x3 NOT ADD SLT PUSH2 0x35C JUMPI PUSH1 0x4 CALLDATALOAD PUSH1 0x1 PUSH1 0x1 PUSH1 0x40 SHL SUB DUP2 GT PUSH2 0x35C JUMPI CALLDATASIZE PUSH1 0x23 DUP3 ADD SLT ISZERO PUSH2 0x35C JUMPI CALLDATASIZE DUP2 PUSH1 0x4 ADD CALLDATALOAD SWAP2 PUSH1 0x24 ADD SWAP2 PUSH2 0xA0 SWAP3 PUSH2 0x21E5 JUMP JUMPDEST PUSH1 0x40 MLOAD DUP2 DUP2 DUP1 SWAP4 MLOAD PUSH1 0x20 DUP2 SWAP4 ADD SWAP2 PUSH2 0xB7 SWAP3 PUSH2 0x219D JUMP JUMPDEST DUP2 ADD PUSH1 0x1 DUP2 MSTORE SUB PUSH1 0x20 ADD SWAP1 KECCAK256 DUP1 PUSH2 0xCD DUP2 PUSH2 0x20F7 JUMP JUMPDEST PUSH2 0xD9 PUSH1 0x1 DUP4 ADD PUSH2 0x20F7 JUMP JUMPDEST PUSH2 0x1C0 MSTORE PUSH2 0xE9 PUSH1 0x2 DUP4 ADD PUSH2 0x20F7 JUMP JUMPDEST PUSH2 0x1A0 MSTORE PUSH2 0xF9 PUSH1 0x3 DUP4 ADD PUSH2 0x20F7 JUMP JUMPDEST PUSH2 0x105 PUSH1 0x4 DUP5 ADD PUSH2 0x20F7 JUMP JUMPDEST PUSH2 0x111 PUSH1 0x5 DUP6 ADD PUSH2 0x20F7 JUMP JUMPDEST PUSH2 0x11D PUSH1 0x6 DUP7 ADD PUSH2 0x20F7 JUMP JUMPDEST PUSH2 0x129 PUSH1 0x7 DUP8 ADD PUSH2 0x20F7 JUMP JUMPDEST PUSH2 0x135 PUSH1 0x8 DUP9 ADD PUSH2 0x20F7 JUMP JUMPDEST SWAP1 PUSH2 0x142 PUSH1 0x9 DUP10 ADD PUSH2 0x20F7 JUMP JUMPDEST SWAP3 PUSH2 0x14F PUSH1 0xA DUP11 ADD PUSH2 0x20F7 JUMP JUMPDEST SWAP5 PUSH2 0x15C PUSH1 0xB DUP12 ADD PUSH2 0x20F7 JUMP JUMPDEST SWAP7 PUSH2 0x169 PUSH1 0xC DUP13 ADD PUSH2 0x20F7 JUMP JUMPDEST SWAP9 PUSH2 0x176 PUSH1 0xD DUP14 ADD PUSH2 0x20F7 JUMP JUMPDEST SWAP11 PUSH2 0x183 PUSH1 0xE DUP15 ADD PUSH2 0x20F7 JUMP JUMPDEST SWAP13 PUSH1 0xF ADD PUSH2 0x190 SWAP1 PUSH2 0x20F7 JUMP JUMPDEST SWAP14 PUSH2 0x19D PUSH1 0x10 DUP3 ADD PUSH2 0x20F7 JUMP JUMPDEST PUSH2 0x600 MSTORE PUSH1 0x11 ADD PUSH2 0x1AD SWAP1 PUSH2 0x20F7 JUMP JUMPDEST PUSH2 0x180 MSTORE PUSH1 0x40 MLOAD DUP1 PUSH2 0x340 MSTORE PUSH2 0x240 DUP1 SWAP2 MSTORE PUSH2 0x340 MLOAD ADD PUSH2 0x1CD SWAP2 PUSH2 0x21C0 JUMP JUMPDEST PUSH2 0x340 MLOAD DUP1 DUP3 SUB SWAP1 PUSH1 0x20 ADD MSTORE PUSH2 0x1C0 MLOAD SWAP1 PUSH2 0x1E7 SWAP2 PUSH2 0x21C0 JUMP JUMPDEST PUSH2 0x340 MLOAD DUP1 DUP3 SUB SWAP1 PUSH1 0x40 ADD MSTORE PUSH2 0x1A0 MLOAD SWAP1 PUSH2 0x201 SWAP2 PUSH2 0x21C0 JUMP JUMPDEST PUSH2 0x340 MLOAD DUP1 DUP3 SUB SWAP1 PUSH1 0x60 ADD MSTORE PUSH2 0x216 SWAP2 PUSH2 0x21C0 JUMP JUMPDEST PUSH2 0x340 MLOAD DUP1 DUP3 SUB SWAP1 PUSH1 0x80 ADD MSTORE PUSH2 0x22B SWAP2 PUSH2 0x21C0 JUMP JUMPDEST PUSH2 0x340 MLOAD DUP1 DUP3 SUB SWAP1 PUSH1 0xA0 ADD MSTORE PUSH2 0x240 SWAP2 PUSH2 0x21C0 JUMP JUMPDEST PUSH2 0x340 MLOAD DUP1 DUP3 SUB SWAP1 PUSH1 0xC0 ADD MSTORE PUSH2 0x255 SWAP2 PUSH2 0x21C0 JUMP JUMPDEST PUSH2 0x340 MLOAD DUP1 DUP3 SUB SWAP1 PUSH1 0xE0 ADD MSTORE PUSH2 0x26A SWAP2 PUSH2 0x21C0 JUMP JUMPDEST PUSH2 0x340 MLOAD DUP1 DUP3 SUB SWAP1 PUSH2 0x100 ADD MSTORE PUSH2 0x280 SWAP2 PUSH2 0x21C0 JUMP JUMPDEST PUSH2 0x340 MLOAD DUP1 DUP3 SUB SWAP1 PUSH2 0x120 ADD MSTORE PUSH2 0x296 SWAP2 PUSH2 0x21C0 JUMP JUMPDEST PUSH2 0x340 MLOAD DUP1 DUP3 SUB SWAP1 PUSH2 0x140 ADD MSTORE PUSH2 0x2AC SWAP2 PUSH2 0x21C0 JUMP JUMPDEST PUSH2 0x340 MLOAD DUP1 DUP3 SUB SWAP1 PUSH2 0x160 ADD MSTORE PUSH2 0x2C2 SWAP2 PUSH2 0x21C0 JUMP JUMPDEST PUSH2 0x340 MLOAD DUP1 DUP3 SUB SWAP1 PUSH2 0x180 ADD MSTORE PUSH2 0x2D8 SWAP2 PUSH2 0x21C0 JUMP JUMPDEST PUSH2 0x340 MLOAD DUP1 DUP3 SUB SWAP1 PUSH2 0x1A0 ADD MSTORE PUSH2 0x2EE SWAP2 PUSH2 0x21C0 JUMP JUMPDEST PUSH2 0x340 MLOAD DUP1 DUP3 SUB SWAP1 PUSH2 0x1C0 ADD MSTORE PUSH2 0x304 SWAP2 PUSH2 0x21C0 JUMP JUMPDEST PUSH2 0x340 MLOAD DUP1 DUP3 SUB SWAP1 PUSH2 0x1E0 ADD MSTORE PUSH2 0x31A SWAP2 PUSH2 0x21C0 JUMP JUMPDEST PUSH2 0x340 MLOAD DUP1 DUP3 SUB SWAP1 PUSH2 0x200 ADD MSTORE PUSH2 0x600 MLOAD SWAP1 PUSH2 0x335 SWAP2 PUSH2 0x21C0 JUMP JUMPDEST PUSH2 0x340 MLOAD DUP1 DUP3 SUB SWAP1 PUSH2 0x220 ADD MSTORE PUSH2 0x340 MLOAD SWAP1 PUSH2 0x180 MLOAD SWAP1 PUSH2 0x355 SWAP2 PUSH2 0x21C0 JUMP JUMPDEST SUB PUSH2 0x340 MLOAD RETURN JUMPDEST PUSH1 0x0 DUP1 REVERT JUMPDEST CALLVALUE PUSH2 0x35C JUMPI PUSH1 0x0 CALLDATASIZE PUSH1 0x3 NOT ADD SLT PUSH2 0x35C JUMPI PUSH1 0x20 PUSH1 0x2 SLOAD PUSH1 0x40 MLOAD SWAP1 DUP2 MSTORE RETURN JUMPDEST CALLVALUE PUSH2 0x35C JUMPI PUSH1 0x20 CALLDATASIZE PUSH1 0x3 NOT ADD SLT PUSH2 0x35C JUMPI PUSH1 0x4 CALLDATALOAD PUSH1 0x1 PUSH1 0x1 PUSH1 0x40 SHL SUB DUP2 GT PUSH2 0x35C JUMPI PUSH1 0x20 PUSH2 0x3B4 PUSH2 0x67A SWAP3 CALLDATASIZE SWAP1 PUSH1 0x4 ADD PUSH2 0x2006 JUMP JUMPDEST SWAP2 SWAP1 PUSH1 0x60 PUSH2 0x220 PUSH1 0x40 MLOAD PUSH2 0x3C7 DUP2 PUSH2 0x20BA JUMP JUMPDEST DUP3 DUP2 MSTORE DUP3 DUP6 DUP3 ADD MSTORE DUP3 PUSH1 0x40 DUP3 ADD MSTORE DUP3 DUP1 DUP3 ADD MSTORE DUP3 PUSH1 0x80 DUP3 ADD MSTORE DUP3 PUSH1 0xA0 DUP3 ADD MSTORE DUP3 PUSH1 0xC0 DUP3 ADD MSTORE DUP3 PUSH1 0xE0 DUP3 ADD MSTORE DUP3 PUSH2 0x100 DUP3 ADD MSTORE DUP3 PUSH2 0x120 DUP3 ADD MSTORE DUP3 PUSH2 0x140 DUP3 ADD MSTORE DUP3 PUSH2 0x160 DUP3 ADD MSTORE DUP3 PUSH2 0x180 DUP3 ADD MSTORE DUP3 PUSH2 0x1A0 DUP3 ADD MSTORE DUP3 PUSH2 0x1C0 DUP3 ADD MSTORE DUP3 PUSH2 0x1E0 DUP3 ADD MSTORE DUP3 PUSH2 0x200 DUP3 ADD MSTORE ADD MSTORE DUP3 PUSH1 0x40 MLOAD SWAP4 DUP5 SWAP3 DUP4 CALLDATACOPY DUP2 ADD PUSH1 0x1 DUP2 MSTORE SUB ADD SWAP1 KECCAK256 PUSH2 0x582 PUSH1 0x11 PUSH1 0x40 MLOAD SWAP3 PUSH2 0x458 DUP5 PUSH2 0x20BA JUMP JUMPDEST PUSH2 0x461 DUP2 PUSH2 0x20F7 JUMP JUMPDEST DUP5 MSTORE PUSH2 0x46F PUSH1 0x1 DUP3 ADD PUSH2 0x20F7 JUMP JUMPDEST PUSH1 0x20 DUP6 ADD MSTORE PUSH2 0x480 PUSH1 0x2 DUP3 ADD PUSH2 0x20F7 JUMP JUMPDEST PUSH1 0x40 DUP6 ADD MSTORE PUSH2 0x491 PUSH1 0x3 DUP3 ADD PUSH2 0x20F7 JUMP JUMPDEST PUSH1 0x60 DUP6 ADD MSTORE PUSH2 0x4A2 PUSH1 0x4 DUP3 ADD PUSH2 0x20F7 JUMP JUMPDEST PUSH1 0x80 DUP6 ADD MSTORE PUSH2 0x4B3 PUSH1 0x5 DUP3 ADD PUSH2 0x20F7 JUMP JUMPDEST PUSH1 0xA0 DUP6 ADD MSTORE PUSH2 0x4C4 PUSH1 0x6 DUP3 ADD PUSH2 0x20F7 JUMP JUMPDEST PUSH1 0xC0 DUP6 ADD MSTORE PUSH2 0x4D5 PUSH1 0x7 DUP3 ADD PUSH2 0x20F7 JUMP JUMPDEST PUSH1 0xE0 DUP6 ADD MSTORE PUSH2 0x4E6 PUSH1 0x8 DUP3 ADD PUSH2 0x20F7 JUMP JUMPDEST PUSH2 0x100 DUP6 ADD MSTORE PUSH2 0x4F8 PUSH1 0x9 DUP3 ADD PUSH2 0x20F7 JUMP JUMPDEST PUSH2 0x120 DUP6 ADD MSTORE PUSH2 0x50A PUSH1 0xA DUP3 ADD PUSH2 0x20F7 JUMP JUMPDEST PUSH2 0x140 DUP6 ADD MSTORE PUSH2 0x51C PUSH1 0xB DUP3 ADD PUSH2 0x20F7 JUMP JUMPDEST PUSH2 0x160 DUP6 ADD MSTORE PUSH2 0x52E PUSH1 0xC DUP3 ADD PUSH2 0x20F7 JUMP JUMPDEST PUSH2 0x180 DUP6 ADD MSTORE PUSH2 0x540 PUSH1 0xD DUP3 ADD PUSH2 0x20F7 JUMP JUMPDEST PUSH2 0x1A0 DUP6 ADD MSTORE PUSH2 0x552 PUSH1 0xE DUP3 ADD PUSH2 0x20F7 JUMP JUMPDEST PUSH2 0x1C0 DUP6 ADD MSTORE PUSH2 0x564 PUSH1 0xF DUP3 ADD PUSH2 0x20F7 JUMP JUMPDEST PUSH2 0x1E0 DUP6 ADD MSTORE PUSH2 0x576 PUSH1 0x10 DUP3 ADD PUSH2 0x20F7 JUMP JUMPDEST PUSH2 0x200 DUP6 ADD MSTORE ADD PUSH2 0x20F7 JUMP JUMPDEST PUSH2 0x220 DUP3 ADD MSTORE PUSH2 0x767 DUP2 PUSH2 0x220 PUSH2 0x752 PUSH2 0x73C PUSH2 0x724 PUSH2 0x70C PUSH2 0x6F4 PUSH2 0x6DC PUSH2 0x6C4 PUSH2 0x6AC PUSH2 0x694 PUSH1 0x40 MLOAD SWAP14 DUP15 SWAP14 DUP15 PUSH1 0x20 DUP2 MSTORE PUSH1 0xE0 PUSH2 0x664 PUSH2 0x64F PUSH2 0x639 PUSH2 0x623 PUSH2 0x60D PUSH2 0x5F7 PUSH2 0x5E1 DUP10 MLOAD PUSH2 0x240 PUSH1 0x20 DUP12 ADD MSTORE PUSH2 0x260 DUP11 ADD SWAP1 PUSH2 0x21C0 JUMP JUMPDEST PUSH1 0x20 DUP11 ADD MLOAD DUP10 DUP3 SUB PUSH1 0x1F NOT ADD PUSH1 0x40 DUP12 ADD MSTORE PUSH2 0x21C0 JUMP JUMPDEST PUSH1 0x40 DUP10 ADD MLOAD DUP9 DUP3 SUB PUSH1 0x1F NOT ADD PUSH1 0x60 DUP11 ADD MSTORE PUSH2 0x21C0 JUMP JUMPDEST PUSH1 0x60 DUP9 ADD MLOAD DUP8 DUP3 SUB PUSH1 0x1F NOT ADD PUSH1 0x80 DUP10 ADD MSTORE PUSH2 0x21C0 JUMP JUMPDEST PUSH1 0x80 DUP8 ADD MLOAD DUP7 DUP3 SUB PUSH1 0x1F NOT ADD PUSH1 0xA0 DUP9 ADD MSTORE PUSH2 0x21C0 JUMP JUMPDEST PUSH1 0xA0 DUP7 ADD MLOAD DUP6 DUP3 SUB PUSH1 0x1F NOT ADD PUSH1 0xC0 DUP8 ADD MSTORE PUSH2 0x21C0 JUMP JUMPDEST PUSH1 0xC0 DUP6 ADD MLOAD DUP5 DUP3 SUB PUSH1 0x1F NOT ADD DUP5 DUP7 ADD MSTORE PUSH2 0x21C0 JUMP JUMPDEST SWAP3 ADD MLOAD SWAP1 PUSH2 0x100 PUSH1 0x1F NOT DUP3 DUP6 SUB ADD SWAP2 ADD MSTORE PUSH2 0x21C0 JUMP JUMPDEST DUP14 PUSH2 0x100 DUP14 ADD MLOAD SWAP1 PUSH2 0x120 PUSH1 0x1F NOT DUP3 DUP6 SUB ADD SWAP2 ADD MSTORE PUSH2 0x21C0 JUMP JUMPDEST PUSH2 0x120 DUP12 ADD MLOAD DUP14 DUP3 SUB PUSH1 0x1F NOT ADD PUSH2 0x140 DUP16 ADD MSTORE PUSH2 0x21C0 JUMP JUMPDEST PUSH2 0x140 DUP11 ADD MLOAD DUP13 DUP3 SUB PUSH1 0x1F NOT ADD PUSH2 0x160 DUP15 ADD MSTORE PUSH2 0x21C0 JUMP JUMPDEST PUSH2 0x160 DUP10 ADD MLOAD DUP12 DUP3 SUB PUSH1 0x1F NOT ADD PUSH2 0x180 DUP14 ADD MSTORE PUSH2 0x21C0 JUMP JUMPDEST PUSH2 0x180 DUP9 ADD MLOAD DUP11 DUP3 SUB PUSH1 0x1F NOT ADD PUSH2 0x1A0 DUP13 ADD MSTORE PUSH2 0x21C0 JUMP JUMPDEST PUSH2 0x1A0 DUP8 ADD MLOAD DUP10 DUP3 SUB PUSH1 0x1F NOT ADD PUSH2 0x1C0 DUP12 ADD MSTORE PUSH2 0x21C0 JUMP JUMPDEST PUSH2 0x1C0 DUP7 ADD MLOAD DUP9 DUP3 SUB PUSH1 0x1F NOT ADD PUSH2 0x1E0 DUP11 ADD MSTORE PUSH2 0x21C0 JUMP JUMPDEST PUSH2 0x1E0 DUP6 ADD MLOAD DUP8 DUP3 SUB PUSH1 0x1F NOT ADD PUSH2 0x200 DUP10 ADD MSTORE PUSH2 0x21C0 JUMP JUMPDEST PUSH2 0x200 DUP5 ADD MLOAD DUP7 DUP3 SUB PUSH1 0x1F NOT ADD DUP5 DUP9 ADD MSTORE PUSH2 0x21C0 JUMP JUMPDEST SWAP2 ADD MLOAD DUP4 DUP3 SUB PUSH1 0x1F NOT ADD PUSH2 0x240 DUP6 ADD MSTORE PUSH2 0x21C0 JUMP JUMPDEST SUB SWAP1 RETURN JUMPDEST CALLVALUE PUSH2 0x35C JUMPI PUSH1 0x0 CALLDATASIZE PUSH1 0x3 NOT ADD SLT PUSH2 0x35C JUMPI PUSH1 0x0 SLOAD PUSH1 0x40 MLOAD PUSH1 0x1 PUSH1 0x1 PUSH1 0xA0 SHL SUB SWAP1 SWAP2 AND DUP2 MSTORE PUSH1 0x20 SWAP1 RETURN JUMPDEST CALLVALUE PUSH2 0x35C JUMPI PUSH1 0x20 CALLDATASIZE PUSH1 0x3 NOT ADD SLT PUSH2 0x35C JUMPI PUSH1 0x4 CALLDATALOAD PUSH1 0x2 SLOAD DUP2 LT ISZERO PUSH2 0x35C JUMPI PUSH2 0x7BB SWAP1 PUSH2 0x2033 JUMP JUMPDEST PUSH2 0x7DF JUMPI PUSH2 0x7CB PUSH2 0x767 SWAP2 PUSH2 0x20F7 JUMP JUMPDEST PUSH1 0x40 MLOAD SWAP2 DUP3 SWAP2 PUSH1 0x20 DUP4 MSTORE PUSH1 0x20 DUP4 ADD SWAP1 PUSH2 0x21C0 JUMP JUMPDEST PUSH4 0x4E487B71 PUSH1 0xE0 SHL PUSH1 0x0 MSTORE PUSH1 0x0 PUSH1 0x4 MSTORE PUSH1 0x24 PUSH1 0x0 REVERT JUMPDEST CALLVALUE PUSH2 0x35C JUMPI PUSH2 0x260 CALLDATASIZE PUSH1 0x3 NOT ADD SLT PUSH2 0x35C JUMPI PUSH1 0x4 CALLDATALOAD PUSH1 0x1 PUSH1 0x1 PUSH1 0x40 SHL SUB DUP2 GT PUSH2 0x35C JUMPI PUSH2 0x826 SWAP1 CALLDATASIZE SWAP1 PUSH1 0x4 ADD PUSH2 0x2006 JUMP JUMPDEST PUSH2 0x140 MSTORE PUSH2 0x3A0 MSTORE PUSH1 0x24 CALLDATALOAD PUSH1 0x1 PUSH1 0x1 PUSH1 0x40 SHL SUB DUP2 GT PUSH2 0x35C JUMPI PUSH2 0x84D SWAP1 CALLDATASIZE SWAP1 PUSH1 0x4 ADD PUSH2 0x2006 JUMP JUMPDEST PUSH2 0x4C0 MSTORE PUSH2 0x220 MSTORE PUSH1 0x44 CALLDATALOAD PUSH1 0x1 PUSH1 0x1 PUSH1 0x40 SHL SUB DUP2 GT PUSH2 0x35C JUMPI PUSH2 0x874 SWAP1 CALLDATASIZE SWAP1 PUSH1 0x4 ADD PUSH2 0x2006 JUMP JUMPDEST PUSH2 0x500 MSTORE PUSH2 0x280 MSTORE PUSH1 0x64 CALLDATALOAD PUSH1 0x1 PUSH1 0x1 PUSH1 0x40 SHL SUB DUP2 GT PUSH2 0x35C JUMPI PUSH2 0x89B SWAP1 CALLDATASIZE SWAP1 PUSH1 0x4 ADD PUSH2 0x2006 JUMP JUMPDEST PUSH2 0x460 MSTORE PUSH2 0x5C0 MSTORE PUSH1 0x84 CALLDATALOAD PUSH1 0x1 PUSH1 0x1 PUSH1 0x40 SHL SUB DUP2 GT PUSH2 0x35C JUMPI PUSH2 0x8C2 SWAP1 CALLDATASIZE SWAP1 PUSH1 0x4 ADD PUSH2 0x2006 JUMP JUMPDEST PUSH2 0x1E0 MSTORE PUSH2 0x3C0 MSTORE PUSH1 0xA4 CALLDATALOAD PUSH1 0x1 PUSH1 0x1 PUSH1 0x40 SHL SUB DUP2 GT PUSH2 0x35C JUMPI PUSH2 0x8E9 SWAP1 CALLDATASIZE SWAP1 PUSH1 0x4 ADD PUSH2 0x2006 JUMP JUMPDEST PUSH2 0x4E0 MSTORE PUSH2 0x300 MSTORE PUSH1 0x1 PUSH1 0x1 PUSH1 0x40 SHL SUB PUSH1 0xC4 CALLDATALOAD GT PUSH2 0x35C JUMPI PUSH2 0x910 CALLDATASIZE PUSH1 0xC4 CALLDATALOAD PUSH1 0x4 ADD PUSH2 0x2006 JUMP JUMPDEST PUSH2 0x540 MSTORE PUSH2 0x240 MSTORE PUSH1 0xE4 CALLDATALOAD PUSH1 0x1 PUSH1 0x1 PUSH1 0x40 SHL SUB DUP2 GT PUSH2 0x35C JUMPI PUSH2 0x937 SWAP1 CALLDATASIZE SWAP1 PUSH1 0x4 ADD PUSH2 0x2006 JUMP JUMPDEST PUSH1 0xA0 MSTORE PUSH2 0x4A0 MSTORE PUSH1 0x1 PUSH1 0x1 PUSH1 0x40 SHL SUB PUSH2 0x104 CALLDATALOAD GT PUSH2 0x35C JUMPI PUSH2 0x95F CALLDATASIZE PUSH2 0x104 CALLDATALOAD PUSH1 0x4 ADD PUSH2 0x2006 JUMP JUMPDEST PUSH1 0x80 MSTORE PUSH2 0x480 MSTORE PUSH1 0x1 PUSH1 0x1 PUSH1 0x40 SHL SUB PUSH2 0x124 CALLDATALOAD GT PUSH2 0x35C JUMPI PUSH2 0x987 CALLDATASIZE PUSH2 0x124 CALLDATALOAD PUSH1 0x4 ADD PUSH2 0x2006 JUMP JUMPDEST PUSH2 0x2A0 MSTORE PUSH2 0x360 MSTORE PUSH1 0x1 PUSH1 0x1 PUSH1 0x40 SHL SUB PUSH2 0x144 CALLDATALOAD GT PUSH2 0x35C JUMPI PUSH2 0x9B0 CALLDATASIZE PUSH2 0x144 CALLDATALOAD PUSH1 0x4 ADD PUSH2 0x2006 JUMP JUMPDEST PUSH2 0x420 MSTORE PUSH2 0x560 MSTORE PUSH2 0x164 CALLDATALOAD PUSH1 0x1 PUSH1 0x1 PUSH1 0x40 SHL SUB DUP2 GT PUSH2 0x35C JUMPI PUSH2 0x9D8 SWAP1 CALLDATASIZE SWAP1 PUSH1 0x4 ADD PUSH2 0x2006 JUMP JUMPDEST PUSH2 0x520 MSTORE PUSH2 0x260 MSTORE PUSH2 0x184 CALLDATALOAD PUSH1 0x1 PUSH1 0x1 PUSH1 0x40 SHL SUB DUP2 GT PUSH2 0x35C JUMPI PUSH2 0xA00 SWAP1 CALLDATASIZE SWAP1 PUSH1 0x4 ADD PUSH2 0x2006 JUMP JUMPDEST PUSH1 0xC0 MSTORE PUSH2 0x5A0 MSTORE PUSH2 0x1A4 CALLDATALOAD PUSH1 0x1 PUSH1 0x1 PUSH1 0x40 SHL SUB DUP2 GT PUSH2 0x35C JUMPI PUSH2 0xA27 SWAP1 CALLDATASIZE SWAP1 PUSH1 0x4 ADD PUSH2 0x2006 JUMP JUMPDEST PUSH2 0x380 MSTORE PUSH2 0x160 MSTORE PUSH2 0x1C4 CALLDATALOAD PUSH1 0x1 PUSH1 0x1 PUSH1 0x40 SHL SUB DUP2 GT PUSH2 0x35C JUMPI PUSH2 0xA4F SWAP1 CALLDATASIZE SWAP1 PUSH1 0x4 ADD PUSH2 0x2006 JUMP JUMPDEST PUSH2 0x320 MSTORE PUSH2 0x2E0 MSTORE PUSH2 0x1E4 CALLDATALOAD PUSH1 0x1 PUSH1 0x1 PUSH1 0x40 SHL SUB DUP2 GT PUSH2 0x35C JUMPI PUSH2 0xA77 SWAP1 CALLDATASIZE SWAP1 PUSH1 0x4 ADD PUSH2 0x2006 JUMP JUMPDEST PUSH2 0x100 MSTORE PUSH2 0x440 MSTORE PUSH2 0x204 CALLDATALOAD PUSH1 0x1 PUSH1 0x1 PUSH1 0x40 SHL SUB DUP2 GT PUSH2 0x35C JUMPI PUSH2 0xA9F SWAP1 CALLDATASIZE SWAP1 PUSH1 0x4 ADD PUSH2 0x2006 JUMP JUMPDEST PUSH2 0x200 MSTORE PUSH2 0x400 MSTORE PUSH2 0x224 CALLDATALOAD PUSH1 0x1 PUSH1 0x1 PUSH1 0x40 SHL SUB DUP2 GT PUSH2 0x35C JUMPI PUSH2 0xAC7 SWAP1 CALLDATASIZE SWAP1 PUSH1 0x4 ADD PUSH2 0x2006 JUMP JUMPDEST PUSH1 0xE0 MSTORE PUSH2 0x3E0 MSTORE PUSH2 0x244 CALLDATALOAD PUSH1 0x1 PUSH1 0x1 PUSH1 0x40 SHL SUB DUP2 GT PUSH2 0x35C JUMPI PUSH2 0xAEE SWAP1 CALLDATASIZE SWAP1 PUSH1 0x4 ADD PUSH2 0x2006 JUMP JUMPDEST PUSH2 0x120 MSTORE PUSH2 0x580 MSTORE PUSH1 0x0 SLOAD PUSH1 0x1 PUSH1 0x1 PUSH1 0xA0 SHL SUB AND CALLER SUB PUSH2 0x1FD5 JUMPI PUSH2 0xB18 PUSH1 0x40 MLOAD DUP1 PUSH2 0x5E0 MSTORE PUSH2 0x20BA JUMP JUMPDEST PUSH2 0xB29 CALLDATASIZE PUSH2 0x4C0 MLOAD PUSH2 0x220 MLOAD PUSH2 0x21E5 JUMP JUMPDEST PUSH2 0x5E0 MLOAD MSTORE PUSH2 0xB3F CALLDATASIZE PUSH2 0x500 MLOAD PUSH2 0x280 MLOAD PUSH2 0x21E5 JUMP JUMPDEST PUSH1 0x20 PUSH2 0x5E0 MLOAD ADD MSTORE PUSH2 0xB58 CALLDATASIZE PUSH2 0x460 MLOAD PUSH2 0x5C0 MLOAD PUSH2 0x21E5 JUMP JUMPDEST PUSH1 0x40 PUSH2 0x5E0 MLOAD ADD MSTORE PUSH2 0xB71 CALLDATASIZE PUSH2 0x1E0 MLOAD PUSH2 0x3C0 MLOAD PUSH2 0x21E5 JUMP JUMPDEST PUSH1 0x60 PUSH2 0x5E0 MLOAD ADD MSTORE PUSH2 0xB8A CALLDATASIZE PUSH2 0x4E0 MLOAD PUSH2 0x300 MLOAD PUSH2 0x21E5 JUMP JUMPDEST PUSH1 0x80 PUSH2 0x5E0 MLOAD ADD MSTORE PUSH2 0xBA3 CALLDATASIZE PUSH2 0x540 MLOAD PUSH2 0x240 MLOAD PUSH2 0x21E5 JUMP JUMPDEST PUSH1 0xA0 PUSH2 0x5E0 MLOAD ADD MSTORE PUSH2 0xBBB CALLDATASIZE PUSH1 0xA0 MLOAD PUSH2 0x4A0 MLOAD PUSH2 0x21E5 JUMP JUMPDEST PUSH1 0xC0 PUSH2 0x5E0 MLOAD ADD MSTORE PUSH2 0xBD3 CALLDATASIZE PUSH1 0x80 MLOAD PUSH2 0x480 MLOAD PUSH2 0x21E5 JUMP JUMPDEST PUSH1 0xE0 PUSH2 0x5E0 MLOAD ADD MSTORE PUSH2 0xBEC CALLDATASIZE PUSH2 0x2A0 MLOAD PUSH2 0x360 MLOAD PUSH2 0x21E5 JUMP JUMPDEST PUSH2 0x100 PUSH2 0x5E0 MLOAD ADD MSTORE PUSH2 0xC06 CALLDATASIZE PUSH2 0x420 MLOAD PUSH2 0x560 MLOAD PUSH2 0x21E5 JUMP JUMPDEST PUSH2 0x120 PUSH2 0x5E0 MLOAD ADD MSTORE PUSH2 0xC20 CALLDATASIZE PUSH2 0x520 MLOAD PUSH2 0x260 MLOAD PUSH2 0x21E5 JUMP JUMPDEST PUSH2 0x140 PUSH2 0x5E0 MLOAD ADD MSTORE PUSH2 0xC39 CALLDATASIZE PUSH1 0xC0 MLOAD PUSH2 0x5A0 MLOAD PUSH2 0x21E5 JUMP JUMPDEST PUSH2 0x160 PUSH2 0x5E0 MLOAD ADD MSTORE PUSH2 0xC53 CALLDATASIZE PUSH2 0x380 MLOAD PUSH2 0x160 MLOAD PUSH2 0x21E5 JUMP JUMPDEST PUSH2 0x180 PUSH2 0x5E0 MLOAD ADD MSTORE PUSH2 0xC6D CALLDATASIZE PUSH2 0x320 MLOAD PUSH2 0x2E0 MLOAD PUSH2 0x21E5 JUMP JUMPDEST PUSH2 0x1A0 PUSH2 0x5E0 MLOAD ADD MSTORE PUSH2 0xC87 CALLDATASIZE PUSH2 0x100 MLOAD PUSH2 0x440 MLOAD PUSH2 0x21E5 JUMP JUMPDEST PUSH2 0x1C0 PUSH2 0x5E0 MLOAD ADD MSTORE PUSH2 0xCA1 CALLDATASIZE PUSH2 0x200 MLOAD PUSH2 0x400 MLOAD PUSH2 0x21E5 JUMP JUMPDEST PUSH2 0x1E0 PUSH2 0x5E0 MLOAD ADD MSTORE PUSH2 0xCBA CALLDATASIZE PUSH1 0xE0 MLOAD PUSH2 0x3E0 MLOAD PUSH2 0x21E5 JUMP JUMPDEST PUSH2 0x200 PUSH2 0x5E0 MLOAD ADD MSTORE PUSH2 0xCD4 CALLDATASIZE PUSH2 0x120 MLOAD PUSH2 0x580 MLOAD PUSH2 0x21E5 JUMP JUMPDEST PUSH2 0x220 PUSH2 0x5E0 MLOAD ADD MSTORE PUSH1 0x40 MLOAD PUSH2 0x140 MLOAD PUSH2 0x3A0 MLOAD DUP3 CALLDATACOPY PUSH1 0x1 PUSH2 0x140 MLOAD DUP3 ADD MSTORE PUSH1 0x20 DUP2 PUSH2 0x140 MLOAD DUP2 ADD SUB ADD SWAP1 KECCAK256 PUSH2 0x5E0 MLOAD MLOAD SWAP1 DUP2 MLOAD PUSH1 0x1 PUSH1 0x1 PUSH1 0x40 SHL SUB DUP2 GT PUSH2 0x1727 JUMPI PUSH2 0xD2A DUP2 PUSH2 0xD24 DUP5 SLOAD PUSH2 0x2080 JUMP JUMPDEST DUP5 PUSH2 0x222B JUMP JUMPDEST PUSH1 0x20 PUSH1 0x1F DUP3 GT PUSH1 0x1 EQ PUSH2 0x1F70 JUMPI DUP2 SWAP3 SWAP4 PUSH1 0x0 SWAP3 PUSH2 0x1F65 JUMPI JUMPDEST POP POP DUP2 PUSH1 0x1 SHL SWAP2 PUSH1 0x0 NOT SWAP1 PUSH1 0x3 SHL SHR NOT AND OR DUP2 SSTORE JUMPDEST PUSH1 0x20 PUSH2 0x5E0 MLOAD ADD MLOAD SWAP1 DUP2 MLOAD PUSH1 0x1 PUSH1 0x1 PUSH1 0x40 SHL SUB DUP2 GT PUSH2 0x1727 JUMPI PUSH1 0x1 DUP3 ADD SWAP1 PUSH2 0xD83 DUP2 PUSH2 0xD24 DUP5 SLOAD PUSH2 0x2080 JUMP JUMPDEST PUSH1 0x20 PUSH1 0x1F DUP3 GT PUSH1 0x1 EQ PUSH2 0x1EFF JUMPI DUP2 SWAP3 SWAP4 SWAP5 PUSH1 0x0 SWAP3 PUSH2 0x1EF4 JUMPI JUMPDEST POP POP DUP2 PUSH1 0x1 SHL SWAP2 PUSH1 0x0 NOT SWAP1 PUSH1 0x3 SHL SHR NOT AND OR SWAP1 SSTORE JUMPDEST PUSH1 0x40 PUSH2 0x5E0 MLOAD ADD MLOAD SWAP1 DUP2 MLOAD PUSH1 0x1 PUSH1 0x1 PUSH1 0x40 SHL SUB DUP2 GT PUSH2 0x1727 JUMPI PUSH1 0x2 DUP3 ADD SWAP1 PUSH2 0xDDD DUP2 PUSH2 0xD24 DUP5 SLOAD PUSH2 0x2080 JUMP JUMPDEST PUSH1 0x20 PUSH1 0x1F DUP3 GT PUSH1 0x1 EQ PUSH2 0x1E8E JUMPI DUP2 SWAP3 SWAP4 SWAP5 PUSH1 0x0 SWAP3 PUSH2 0x1E83 JUMPI JUMPDEST POP POP DUP2 PUSH1 0x1 SHL SWAP2 PUSH1 0x0 NOT SWAP1 PUSH1 0x3 SHL SHR NOT AND OR SWAP1 SSTORE JUMPDEST PUSH1 0x60 PUSH2 0x5E0 MLOAD ADD MLOAD DUP1 MLOAD SWAP1 PUSH1 0x1 PUSH1 0x1 PUSH1 0x40 SHL SUB DUP3 GT PUSH2 0x1727 JUMPI DUP2 SWAP1 PUSH2 0xE40 DUP3 PUSH2 0xE37 PUSH1 0x3 DUP8 ADD SLOAD PUSH2 0x2080 JUMP JUMPDEST PUSH1 0x3 DUP8 ADD PUSH2 0x222B JUMP JUMPDEST PUSH1 0x20 SWAP1 PUSH1 0x1F DUP4 GT PUSH1 0x1 EQ PUSH2 0x1E11 JUMPI PUSH1 0x0 SWAP3 PUSH2 0x1E06 JUMPI JUMPDEST POP POP DUP2 PUSH1 0x1 SHL SWAP2 PUSH1 0x0 NOT SWAP1 PUSH1 0x3 SHL SHR NOT AND OR PUSH1 0x3 DUP3 ADD SSTORE JUMPDEST PUSH1 0x80 PUSH2 0x5E0 MLOAD ADD MLOAD DUP1 MLOAD SWAP1 PUSH1 0x1 PUSH1 0x1 PUSH1 0x40 SHL SUB DUP3 GT PUSH2 0x1727 JUMPI DUP2 SWAP1 PUSH2 0xEA3 DUP3 PUSH2 0xE9A PUSH1 0x4 DUP8 ADD SLOAD PUSH2 0x2080 JUMP JUMPDEST PUSH1 0x4 DUP8 ADD PUSH2 0x222B JUMP JUMPDEST PUSH1 0x20 SWAP1 PUSH1 0x1F DUP4 GT PUSH1 0x1 EQ PUSH2 0x1D94 JUMPI PUSH1 0x0 SWAP3 PUSH2 0x1D89 JUMPI JUMPDEST POP POP DUP2 PUSH1 0x1 SHL SWAP2 PUSH1 0x0 NOT SWAP1 PUSH1 0x3 SHL SHR NOT AND OR PUSH1 0x4 DUP3 ADD SSTORE JUMPDEST PUSH1 0xA0 PUSH2 0x5E0 MLOAD ADD MLOAD DUP1 MLOAD SWAP1 PUSH1 0x1 PUSH1 0x1 PUSH1 0x40 SHL SUB DUP3 GT PUSH2 0x1727 JUMPI DUP2 SWAP1 PUSH2 0xF06 DUP3 PUSH2 0xEFD PUSH1 0x5 DUP8 ADD SLOAD PUSH2 0x2080 JUMP JUMPDEST PUSH1 0x5 DUP8 ADD PUSH2 0x222B JUMP JUMPDEST PUSH1 0x20 SWAP1 PUSH1 0x1F DUP4 GT PUSH1 0x1 EQ PUSH2 0x1D17 JUMPI PUSH1 0x0 SWAP3 PUSH2 0x1D0C JUMPI JUMPDEST POP POP DUP2 PUSH1 0x1 SHL SWAP2 PUSH1 0x0 NOT SWAP1 PUSH1 0x3 SHL SHR NOT AND OR PUSH1 0x5 DUP3 ADD SSTORE JUMPDEST PUSH1 0xC0 PUSH2 0x5E0 MLOAD ADD MLOAD DUP1 MLOAD SWAP1 PUSH1 0x1 PUSH1 0x1 PUSH1 0x40 SHL SUB DUP3 GT PUSH2 0x1727 JUMPI DUP2 SWAP1 PUSH2 0xF69 DUP3 PUSH2 0xF60 PUSH1 0x6 DUP8 ADD SLOAD PUSH2 0x2080 JUMP JUMPDEST PUSH1 0x6 DUP8 ADD PUSH2 0x222B JUMP JUMPDEST PUSH1 0x20 SWAP1 PUSH1 0x1F DUP4 GT PUSH1 0x1 EQ PUSH2 0x1C9A JUMPI PUSH1 0x0 SWAP3 PUSH2 0x1C8F JUMPI JUMPDEST POP POP DUP2 PUSH1 0x1 SHL SWAP2 PUSH1 0x0 NOT SWAP1 PUSH1 0x3 SHL SHR NOT AND OR PUSH1 0x6 DUP3 ADD SSTORE JUMPDEST PUSH1 0xE0 PUSH2 0x5E0 MLOAD ADD MLOAD DUP1 MLOAD SWAP1 PUSH1 0x1 PUSH1 0x1 PUSH1 0x40 SHL SUB DUP3 GT PUSH2 0x1727 JUMPI DUP2 SWAP1 PUSH2 0xFCC DUP3 PUSH2 0xFC3 PUSH1 0x7 DUP8 ADD SLOAD PUSH2 0x2080 JUMP JUMPDEST PUSH1 0x7 DUP8 ADD PUSH2 0x222B JUMP JUMPDEST PUSH1 0x20 SWAP1 PUSH1 0x1F DUP4 GT PUSH1 0x1 EQ PUSH2 0x1C1D JUMPI PUSH1 0x0 SWAP3 PUSH2 0x1C12 JUMPI JUMPDEST POP POP DUP2 PUSH1 0x1 SHL SWAP2 PUSH1 0x0 NOT SWAP1 PUSH1 0x3 SHL SHR NOT AND OR PUSH1 0x7 DUP3 ADD SSTORE JUMPDEST PUSH2 0x100 PUSH2 0x5E0 MLOAD ADD MLOAD DUP1 MLOAD SWAP1 PUSH1 0x1 PUSH1 0x1 PUSH1 0x40 SHL SUB DUP3 GT PUSH2 0x1727 JUMPI DUP2 SWAP1 PUSH2 0x1030 DUP3 PUSH2 0x1027 PUSH1 0x8 DUP8 ADD SLOAD PUSH2 0x2080 JUMP JUMPDEST PUSH1 0x8 DUP8 ADD PUSH2 0x222B JUMP JUMPDEST PUSH1 0x20 SWAP1 PUSH1 0x1F DUP4 GT PUSH1 0x1 EQ PUSH2 0x1BA0 JUMPI PUSH1 0x0 SWAP3 PUSH2 0x1B95 JUMPI JUMPDEST POP POP DUP2 PUSH1 0x1 SHL SWAP2 PUSH1 0x0 NOT SWAP1 PUSH1 0x3 SHL SHR NOT AND OR PUSH1 0x8 DUP3 ADD SSTORE JUMPDEST PUSH2 0x120 PUSH2 0x5E0 MLOAD ADD MLOAD DUP1 MLOAD SWAP1 PUSH1 0x1 PUSH1 0x1 PUSH1 0x40 SHL SUB DUP3 GT PUSH2 0x1727 JUMPI DUP2 SWAP1 PUSH2 0x1094 DUP3 PUSH2 0x108B PUSH1 0x9 DUP8 ADD SLOAD PUSH2 0x2080 JUMP JUMPDEST PUSH1 0x9 DUP8 ADD PUSH2 0x222B JUMP JUMPDEST PUSH1 0x20 SWAP1 PUSH1 0x1F DUP4 GT PUSH1 0x1 EQ PUSH2 0x1B23 JUMPI PUSH1 0x0 SWAP3 PUSH2 0x1B18 JUMPI JUMPDEST POP POP DUP2 PUSH1 0x1 SHL SWAP2 PUSH1 0x0 NOT SWAP1 PUSH1 0x3 SHL SHR NOT AND OR PUSH1 0x9 DUP3 ADD SSTORE JUMPDEST PUSH2 0x140 PUSH2 0x5E0 MLOAD ADD MLOAD DUP1 MLOAD SWAP1 PUSH1 0x1 PUSH1 0x1 PUSH1 0x40 SHL SUB DUP3 GT PUSH2 0x1727 JUMPI DUP2 SWAP1 PUSH2 0x10F8 DUP3 PUSH2 0x10EF PUSH1 0xA DUP8 ADD SLOAD PUSH2 0x2080 JUMP JUMPDEST PUSH1 0xA DUP8 ADD PUSH2 0x222B JUMP JUMPDEST PUSH1 0x20 SWAP1 PUSH1 0x1F DUP4 GT PUSH1 0x1 EQ PUSH2 0x1AA6 JUMPI PUSH1 0x0 SWAP3 PUSH2 0x1A9B JUMPI JUMPDEST POP POP DUP2 PUSH1 0x1 SHL SWAP2 PUSH1 0x0 NOT SWAP1 PUSH1 0x3 SHL SHR NOT AND OR PUSH1 0xA DUP3 ADD SSTORE JUMPDEST PUSH2 0x160 PUSH2 0x5E0 MLOAD ADD MLOAD DUP1 MLOAD SWAP1 PUSH1 0x1 PUSH1 0x1 PUSH1 0x40 SHL SUB DUP3 GT PUSH2 0x1727 JUMPI DUP2 SWAP1 PUSH2 0x115C DUP3 PUSH2 0x1153 PUSH1 0xB DUP8 ADD SLOAD PUSH2 0x2080 JUMP JUMPDEST PUSH1 0xB DUP8 ADD PUSH2 0x222B JUMP JUMPDEST PUSH1 0x20 SWAP1 PUSH1 0x1F DUP4 GT PUSH1 0x1 EQ PUSH2 0x1A29 JUMPI PUSH1 0x0 SWAP3 PUSH2 0x1A1E JUMPI JUMPDEST POP POP DUP2 PUSH1 0x1 SHL SWAP2 PUSH1 0x0 NOT SWAP1 PUSH1 0x3 SHL SHR NOT AND OR PUSH1 0xB DUP3 ADD SSTORE JUMPDEST PUSH2 0x180 PUSH2 0x5E0 MLOAD ADD MLOAD DUP1 MLOAD SWAP1 PUSH1 0x1 PUSH1 0x1 PUSH1 0x40 SHL SUB DUP3 GT PUSH2 0x1727 JUMPI DUP2 SWAP1 PUSH2 0x11C0 DUP3 PUSH2 0x11B7 PUSH1 0xC DUP8 ADD SLOAD PUSH2 0x2080 JUMP JUMPDEST PUSH1 0xC DUP8 ADD PUSH2 0x222B JUMP JUMPDEST PUSH1 0x20 SWAP1 PUSH1 0x1F DUP4 GT PUSH1 0x1 EQ PUSH2 0x19AC JUMPI PUSH1 0x0 SWAP3 PUSH2 0x19A1 JUMPI JUMPDEST POP POP DUP2 PUSH1 0x1 SHL SWAP2 PUSH1 0x0 NOT SWAP1 PUSH1 0x3 SHL SHR NOT AND OR PUSH1 0xC DUP3 ADD SSTORE JUMPDEST PUSH2 0x1A0 PUSH2 0x5E0 MLOAD ADD MLOAD DUP1 MLOAD SWAP1 PUSH1 0x1 PUSH1 0x1 PUSH1 0x40 SHL SUB DUP3 GT PUSH2 0x1727 JUMPI DUP2 SWAP1 PUSH2 0x1224 DUP3 PUSH2 0x121B PUSH1 0xD DUP8 ADD SLOAD PUSH2 0x2080 JUMP JUMPDEST PUSH1 0xD DUP8 ADD PUSH2 0x222B JUMP JUMPDEST PUSH1 0x20 SWAP1 PUSH1 0x1F DUP4 GT PUSH1 0x1 EQ PUSH2 0x192F JUMPI PUSH1 0x0 SWAP3 PUSH2 0x1924 JUMPI JUMPDEST POP POP DUP2 PUSH1 0x1 SHL SWAP2 PUSH1 0x0 NOT SWAP1 PUSH1 0x3 SHL SHR NOT AND OR PUSH1 0xD DUP3 ADD SSTORE JUMPDEST PUSH2 0x1C0 PUSH2 0x5E0 MLOAD ADD MLOAD DUP1 MLOAD SWAP1 PUSH1 0x1 PUSH1 0x1 PUSH1 0x40 SHL SUB DUP3 GT PUSH2 0x1727 JUMPI DUP2 SWAP1 PUSH2 0x1288 DUP3 PUSH2 0x127F PUSH1 0xE DUP8 ADD SLOAD PUSH2 0x2080 JUMP JUMPDEST PUSH1 0xE DUP8 ADD PUSH2 0x222B JUMP JUMPDEST PUSH1 0x20 SWAP1 PUSH1 0x1F DUP4 GT PUSH1 0x1 EQ PUSH2 0x18B2 JUMPI PUSH1 0x0 SWAP3 PUSH2 0x18A7 JUMPI JUMPDEST POP POP DUP2 PUSH1 0x1 SHL SWAP2 PUSH1 0x0 NOT SWAP1 PUSH1 0x3 SHL SHR NOT AND OR PUSH1 0xE DUP3 ADD SSTORE JUMPDEST PUSH2 0x1E0 PUSH2 0x5E0 MLOAD ADD MLOAD DUP1 MLOAD SWAP1 PUSH1 0x1 PUSH1 0x1 PUSH1 0x40 SHL SUB DUP3 GT PUSH2 0x1727 JUMPI DUP2 SWAP1 PUSH2 0x12EC DUP3 PUSH2 0x12E3 PUSH1 0xF DUP8 ADD SLOAD PUSH2 0x2080 JUMP JUMPDEST PUSH1 0xF DUP8 ADD PUSH2 0x222B JUMP JUMPDEST PUSH1 0x20 SWAP1 PUSH1 0x1F DUP4 GT PUSH1 0x1 EQ PUSH2 0x1835 JUMPI PUSH1 0x0 SWAP3 PUSH2 0x182A JUMPI JUMPDEST POP POP DUP2 PUSH1 0x1 SHL SWAP2 PUSH1 0x0 NOT SWAP1 PUSH1 0x3 SHL SHR NOT AND OR PUSH1 0xF DUP3 ADD SSTORE JUMPDEST PUSH2 0x200 PUSH2 0x5E0 MLOAD ADD MLOAD DUP1 MLOAD SWAP1 PUSH1 0x1 PUSH1 0x1 PUSH1 0x40 SHL SUB DUP3 GT PUSH2 0x1727 JUMPI DUP2 SWAP1 PUSH2 0x1350 DUP3 PUSH2 0x1347 PUSH1 0x10 DUP8 ADD SLOAD PUSH2 0x2080 JUMP JUMPDEST PUSH1 0x10 DUP8 ADD PUSH2 0x222B JUMP JUMPDEST PUSH1 0x20 SWAP1 PUSH1 0x1F DUP4 GT PUSH1 0x1 EQ PUSH2 0x17B8 JUMPI PUSH1 0x0 SWAP3 PUSH2 0x17AD JUMPI JUMPDEST POP POP DUP2 PUSH1 0x1 SHL SWAP2 PUSH1 0x0 NOT SWAP1 PUSH1 0x3 SHL SHR NOT AND OR PUSH1 0x10 DUP3 ADD SSTORE JUMPDEST PUSH2 0x220 PUSH2 0x5E0 MLOAD ADD MLOAD SWAP1 DUP2 MLOAD SWAP1 PUSH1 0x1 PUSH1 0x1 PUSH1 0x40 SHL SUB DUP3 GT PUSH2 0x1727 JUMPI PUSH1 0x11 ADD SWAP1 PUSH2 0x13AB DUP2 PUSH2 0xD24 DUP5 SLOAD PUSH2 0x2080 JUMP JUMPDEST PUSH1 0x20 PUSH1 0x1F DUP3 GT PUSH1 0x1 EQ PUSH2 0x1748 JUMPI DUP2 SWAP3 SWAP4 PUSH1 0x0 SWAP3 PUSH2 0x173D JUMPI JUMPDEST POP POP DUP2 PUSH1 0x1 SHL SWAP2 PUSH1 0x0 NOT SWAP1 PUSH1 0x3 SHL SHR NOT AND OR SWAP1 SSTORE JUMPDEST PUSH1 0x2 SLOAD PUSH9 0x10000000000000000 DUP2 LT ISZERO PUSH2 0x1727 JUMPI DUP1 PUSH1 0x1 PUSH2 0x13FC SWAP3 ADD PUSH1 0x2 SSTORE PUSH2 0x2033 JUMP JUMPDEST PUSH2 0x7DF JUMPI PUSH2 0x140 MLOAD PUSH1 0x1 PUSH1 0x1 PUSH1 0x40 SHL SUB DUP2 GT PUSH2 0x1727 JUMPI PUSH2 0x1426 SWAP1 PUSH2 0x1420 DUP4 SLOAD PUSH2 0x2080 JUMP JUMPDEST DUP4 PUSH2 0x222B JUMP JUMPDEST PUSH1 0x0 SWAP1 PUSH2 0x140 MLOAD PUSH1 0x1F DUP2 GT PUSH1 0x1 EQ PUSH2 0x16BA JUMPI POP SWAP1 PUSH1 0x0 PUSH2 0x140 MLOAD SWAP2 DUP3 PUSH2 0x16AC JUMPI JUMPDEST POP DUP2 PUSH1 0x1 SHL SWAP2 PUSH1 0x0 NOT SWAP1 PUSH1 0x3 SHL SHR NOT AND OR SWAP1 SSTORE JUMPDEST PUSH2 0x260 PUSH1 0x40 MLOAD DUP1 PUSH2 0x2C0 MSTORE MSTORE PUSH32 0x7A9495741B5517937AB632AA50B02EE857B132C600954B68B764E1FF7B802806 PUSH2 0x1682 PUSH2 0x1669 PUSH2 0x164F PUSH2 0x1635 PUSH2 0x161B PUSH2 0x1601 PUSH2 0x15E8 PUSH2 0x15CE PUSH2 0x15B4 PUSH2 0x159A PUSH2 0x1581 PUSH2 0x1569 PUSH2 0x1550 PUSH2 0x1537 PUSH2 0x151E PUSH2 0x1505 PUSH2 0x14EC PUSH2 0x14D3 PUSH2 0x260 PUSH2 0x2C0 MLOAD ADD PUSH2 0x140 MLOAD PUSH2 0x3A0 MLOAD PUSH2 0x227F JUMP JUMPDEST PUSH2 0x2C0 MLOAD PUSH1 0x20 DUP2 DUP4 SUB SWAP2 ADD MSTORE PUSH2 0x4C0 MLOAD PUSH2 0x220 MLOAD PUSH2 0x227F JUMP JUMPDEST PUSH2 0x2C0 MLOAD PUSH1 0x40 DUP2 DUP4 SUB SWAP2 ADD MSTORE PUSH2 0x500 MLOAD PUSH2 0x280 MLOAD PUSH2 0x227F JUMP JUMPDEST PUSH2 0x2C0 MLOAD PUSH1 0x60 DUP2 DUP4 SUB SWAP2 ADD MSTORE PUSH2 0x460 MLOAD PUSH2 0x5C0 MLOAD PUSH2 0x227F JUMP JUMPDEST PUSH2 0x2C0 MLOAD PUSH1 0x80 DUP2 DUP4 SUB SWAP2 ADD MSTORE PUSH2 0x1E0 MLOAD PUSH2 0x3C0 MLOAD PUSH2 0x227F JUMP JUMPDEST PUSH2 0x2C0 MLOAD PUSH1 0xA0 DUP2 DUP4 SUB SWAP2 ADD MSTORE PUSH2 0x4E0 MLOAD PUSH2 0x300 MLOAD PUSH2 0x227F JUMP JUMPDEST PUSH2 0x2C0 MLOAD PUSH1 0xC0 DUP2 DUP4 SUB SWAP2 ADD MSTORE PUSH2 0x540 MLOAD PUSH2 0x240 MLOAD PUSH2 0x227F JUMP JUMPDEST PUSH2 0x2C0 MLOAD PUSH1 0xE0 DUP2 DUP4 SUB SWAP2 ADD MSTORE PUSH1 0xA0 MLOAD PUSH2 0x4A0 MLOAD PUSH2 0x227F JUMP JUMPDEST PUSH2 0x2C0 MLOAD PUSH2 0x100 DUP2 DUP4 SUB SWAP2 ADD MSTORE PUSH1 0x80 MLOAD PUSH2 0x480 MLOAD PUSH2 0x227F JUMP JUMPDEST PUSH2 0x2C0 MLOAD PUSH2 0x120 DUP2 DUP4 SUB SWAP2 ADD MSTORE PUSH2 0x2A0 MLOAD PUSH2 0x360 MLOAD PUSH2 0x227F JUMP JUMPDEST PUSH2 0x2C0 MLOAD PUSH2 0x140 DUP2 DUP4 SUB SWAP2 ADD MSTORE PUSH2 0x420 MLOAD PUSH2 0x560 MLOAD PUSH2 0x227F JUMP JUMPDEST PUSH2 0x2C0 MLOAD PUSH2 0x160 DUP2 DUP4 SUB SWAP2 ADD MSTORE PUSH2 0x520 MLOAD PUSH2 0x260 MLOAD PUSH2 0x227F JUMP JUMPDEST PUSH2 0x2C0 MLOAD PUSH2 0x180 DUP2 DUP4 SUB SWAP2 ADD MSTORE PUSH1 0xC0 MLOAD PUSH2 0x5A0 MLOAD PUSH2 0x227F JUMP JUMPDEST PUSH2 0x2C0 MLOAD PUSH2 0x1A0 DUP2 DUP4 SUB SWAP2 ADD MSTORE PUSH2 0x380 MLOAD PUSH2 0x160 MLOAD PUSH2 0x227F JUMP JUMPDEST PUSH2 0x2C0 MLOAD PUSH2 0x1C0 DUP2 DUP4 SUB SWAP2 ADD MSTORE PUSH2 0x320 MLOAD PUSH2 0x2E0 MLOAD PUSH2 0x227F JUMP JUMPDEST PUSH2 0x2C0 MLOAD PUSH2 0x1E0 DUP2 DUP4 SUB SWAP2 ADD MSTORE PUSH2 0x100 MLOAD PUSH2 0x440 MLOAD PUSH2 0x227F JUMP JUMPDEST PUSH2 0x2C0 MLOAD PUSH2 0x200 DUP2 DUP4 SUB SWAP2 ADD MSTORE PUSH2 0x200 MLOAD PUSH2 0x400 MLOAD PUSH2 0x227F JUMP JUMPDEST PUSH2 0x2C0 MLOAD PUSH2 0x220 DUP2 DUP4 SUB SWAP2 ADD MSTORE PUSH1 0xE0 MLOAD PUSH2 0x3E0 MLOAD PUSH2 0x227F JUMP JUMPDEST PUSH2 0x2C0 MLOAD PUSH2 0x240 DUP2 DUP4 SUB SWAP2 ADD MSTORE PUSH2 0x16A4 PUSH2 0x2C0 MLOAD SWAP2 PUSH2 0x120 MLOAD PUSH2 0x580 MLOAD PUSH2 0x227F JUMP JUMPDEST SUB PUSH2 0x2C0 MLOAD LOG1 STOP JUMPDEST SWAP1 POP PUSH2 0x3A0 MLOAD ADD CALLDATALOAD DUP4 PUSH2 0x1447 JUMP JUMPDEST DUP2 PUSH1 0x0 MSTORE PUSH1 0x20 PUSH1 0x0 KECCAK256 PUSH1 0x0 SWAP4 PUSH2 0x3A0 MLOAD SWAP1 JUMPDEST PUSH1 0x1F NOT DUP5 AND DUP7 LT PUSH2 0x170F JUMPI PUSH1 0x1 SWAP5 SWAP6 POP DUP4 PUSH1 0x1F NOT DUP2 AND LT PUSH2 0x16F5 JUMPI JUMPDEST POP POP POP DUP2 SHL ADD SWAP1 SSTORE PUSH2 0x145B JUMP JUMPDEST ADD CALLDATALOAD PUSH1 0x0 NOT PUSH1 0x3 DUP5 SWAP1 SHL PUSH1 0xF8 AND SHR NOT AND SWAP1 SSTORE DUP4 DUP1 DUP1 PUSH2 0x16E8 JUMP JUMPDEST SWAP2 PUSH1 0x20 PUSH1 0x1 DUP2 SWAP3 DUP6 DUP6 ADD CALLDATALOAD DUP2 SSTORE ADD SWAP4 ADD SWAP6 ADD SWAP5 PUSH2 0x16CC JUMP JUMPDEST PUSH4 0x4E487B71 PUSH1 0xE0 SHL PUSH1 0x0 MSTORE PUSH1 0x41 PUSH1 0x4 MSTORE PUSH1 0x24 PUSH1 0x0 REVERT JUMPDEST ADD MLOAD SWAP1 POP DUP4 DUP1 PUSH2 0x13C3 JUMP JUMPDEST DUP3 PUSH1 0x0 MSTORE PUSH1 0x20 PUSH1 0x0 KECCAK256 SWAP1 PUSH1 0x0 SWAP5 PUSH1 0x1F NOT DUP5 AND SWAP6 JUMPDEST DUP7 DUP2 LT PUSH2 0x1795 JUMPI POP DUP4 PUSH1 0x1 SWAP6 SWAP7 LT PUSH2 0x177C JUMPI JUMPDEST POP POP POP DUP2 SHL ADD SWAP1 SSTORE PUSH2 0x13D8 JUMP JUMPDEST ADD MLOAD PUSH1 0x0 NOT PUSH1 0xF8 DUP5 PUSH1 0x3 SHL AND SHR NOT AND SWAP1 SSTORE DUP4 DUP1 DUP1 PUSH2 0x176F JUMP JUMPDEST SWAP2 SWAP3 PUSH1 0x20 PUSH1 0x1 DUP2 SWAP3 DUP7 DUP6 ADD MLOAD DUP2 SSTORE ADD SWAP5 ADD SWAP3 ADD PUSH2 0x175C JUMP JUMPDEST ADD MLOAD SWAP1 POP DUP4 DUP1 PUSH2 0x1366 JUMP JUMPDEST SWAP3 POP PUSH1 0x10 DUP5 ADD PUSH1 0x0 MSTORE PUSH1 0x20 PUSH1 0x0 KECCAK256 SWAP1 PUSH1 0x0 SWAP4 JUMPDEST PUSH1 0x1F NOT DUP5 AND DUP6 LT PUSH2 0x180F JUMPI PUSH1 0x1 SWAP5 POP DUP4 PUSH1 0x1F NOT DUP2 AND LT PUSH2 0x17F6 JUMPI JUMPDEST POP POP POP DUP2 SHL ADD PUSH1 0x10 DUP3 ADD SSTORE PUSH2 0x137E JUMP JUMPDEST ADD MLOAD PUSH1 0x0 NOT PUSH1 0xF8 DUP5 PUSH1 0x3 SHL AND SHR NOT AND SWAP1 SSTORE DUP4 DUP1 DUP1 PUSH2 0x17E6 JUMP JUMPDEST DUP2 DUP2 ADD MLOAD DUP4 SSTORE PUSH1 0x20 SWAP5 DUP6 ADD SWAP5 PUSH1 0x1 SWAP1 SWAP4 ADD SWAP3 SWAP1 SWAP2 ADD SWAP1 PUSH2 0x17CB JUMP JUMPDEST ADD MLOAD SWAP1 POP DUP4 DUP1 PUSH2 0x1302 JUMP JUMPDEST SWAP3 POP PUSH1 0xF DUP5 ADD PUSH1 0x0 MSTORE PUSH1 0x20 PUSH1 0x0 KECCAK256 SWAP1 PUSH1 0x0 SWAP4 JUMPDEST PUSH1 0x1F NOT DUP5 AND DUP6 LT PUSH2 0x188C JUMPI PUSH1 0x1 SWAP5 POP DUP4 PUSH1 0x1F NOT DUP2 AND LT PUSH2 0x1873 JUMPI JUMPDEST POP POP POP DUP2 SHL ADD PUSH1 0xF DUP3 ADD SSTORE PUSH2 0x131A JUMP JUMPDEST ADD MLOAD PUSH1 0x0 NOT PUSH1 0xF8 DUP5 PUSH1 0x3 SHL AND SHR NOT AND SWAP1 SSTORE DUP4 DUP1 DUP1 PUSH2 0x1863 JUMP JUMPDEST DUP2 DUP2 ADD MLOAD DUP4 SSTORE PUSH1 0x20 SWAP5 DUP6 ADD SWAP5 PUSH1 0x1 SWAP1 SWAP4 ADD SWAP3 SWAP1 SWAP2 ADD SWAP1 PUSH2 0x1848 JUMP JUMPDEST ADD MLOAD SWAP1 POP DUP4 DUP1 PUSH2 0x129E JUMP JUMPDEST SWAP3 POP PUSH1 0xE DUP5 ADD PUSH1 0x0 MSTORE PUSH1 0x20 PUSH1 0x0 KECCAK256 SWAP1 PUSH1 0x0 SWAP4 JUMPDEST PUSH1 0x1F NOT DUP5 AND DUP6 LT PUSH2 0x1909 JUMPI PUSH1 0x1 SWAP5 POP DUP4 PUSH1 0x1F NOT DUP2 AND LT PUSH2 0x18F0 JUMPI JUMPDEST POP POP POP DUP2 SHL ADD PUSH1 0xE DUP3 ADD SSTORE PUSH2 0x12B6 JUMP JUMPDEST ADD MLOAD PUSH1 0x0 NOT PUSH1 0xF8 DUP5 PUSH1 0x3 SHL AND SHR NOT AND SWAP1 SSTORE DUP4 DUP1 DUP1 PUSH2 0x18E0 JUMP JUMPDEST DUP2 DUP2 ADD MLOAD DUP4 SSTORE PUSH1 0x20 SWAP5 DUP6 ADD SWAP5 PUSH1 0x1 SWAP1 SWAP4 ADD SWAP3 SWAP1 SWAP2 ADD SWAP1 PUSH2 0x18C5 JUMP JUMPDEST ADD MLOAD SWAP1 POP DUP4 DUP1 PUSH2 0x123A JUMP JUMPDEST SWAP3 POP PUSH1 0xD DUP5 ADD PUSH1 0x0 MSTORE PUSH1 0x20 PUSH1 0x0 KECCAK256 SWAP1 PUSH1 0x0 SWAP4 JUMPDEST PUSH1 0x1F NOT DUP5 AND DUP6 LT PUSH2 0x1986 JUMPI PUSH1 0x1 SWAP5 POP DUP4 PUSH1 0x1F NOT DUP2 AND LT PUSH2 0x196D JUMPI JUMPDEST POP POP POP DUP2 SHL ADD PUSH1 0xD DUP3 ADD SSTORE PUSH2 0x1252 JUMP JUMPDEST ADD MLOAD PUSH1 0x0 NOT PUSH1 0xF8 DUP5 PUSH1 0x3 SHL AND SHR NOT AND SWAP1 SSTORE DUP4 DUP1 DUP1 PUSH2 0x195D JUMP JUMPDEST DUP2 DUP2 ADD MLOAD DUP4 SSTORE PUSH1 0x20 SWAP5 DUP6 ADD SWAP5 PUSH1 0x1 SWAP1 SWAP4 ADD SWAP3 SWAP1 SWAP2 ADD SWAP1 PUSH2 0x1942 JUMP JUMPDEST ADD MLOAD SWAP1 POP DUP4 DUP1 PUSH2 0x11D6 JUMP JUMPDEST SWAP3 POP PUSH1 0xC DUP5 ADD PUSH1 0x0 MSTORE PUSH1 0x20 PUSH1 0x0 KECCAK256 SWAP1 PUSH1 0x0 SWAP4 JUMPDEST PUSH1 0x1F NOT DUP5 AND DUP6 LT PUSH2 0x1A03 JUMPI PUSH1 0x1 SWAP5 POP DUP4 PUSH1 0x1F NOT DUP2 AND LT PUSH2 0x19EA JUMPI JUMPDEST POP POP POP DUP2 SHL ADD PUSH1 0xC DUP3 ADD SSTORE PUSH2 0x11EE JUMP JUMPDEST ADD MLOAD PUSH1 0x0 NOT PUSH1 0xF8 DUP5 PUSH1 0x3 SHL AND SHR NOT AND SWAP1 SSTORE DUP4 DUP1 DUP1 PUSH2 0x19DA JUMP JUMPDEST DUP2 DUP2 ADD MLOAD DUP4 SSTORE PUSH1 0x20 SWAP5 DUP6 ADD SWAP5 PUSH1 0x1 SWAP1 SWAP4 ADD SWAP3 SWAP1 SWAP2 ADD SWAP1 PUSH2 0x19BF JUMP JUMPDEST ADD MLOAD SWAP1 POP DUP4 DUP1 PUSH2 0x1172 JUMP JUMPDEST SWAP3 POP PUSH1 0xB DUP5 ADD PUSH1 0x0 MSTORE PUSH1 0x20 PUSH1 0x0 KECCAK256 SWAP1 PUSH1 0x0 SWAP4 JUMPDEST PUSH1 0x1F NOT DUP5 AND DUP6 LT PUSH2 0x1A80 JUMPI PUSH1 0x1 SWAP5 POP DUP4 PUSH1 0x1F NOT DUP2 AND LT PUSH2 0x1A67 JUMPI JUMPDEST POP POP POP DUP2 SHL ADD PUSH1 0xB DUP3 ADD SSTORE PUSH2 0x118A JUMP JUMPDEST ADD MLOAD PUSH1 0x0 NOT PUSH1 0xF8 DUP5 PUSH1 0x3 SHL AND SHR NOT AND SWAP1 SSTORE DUP4 DUP1 DUP1 PUSH2 0x1A57 JUMP JUMPDEST DUP2 DUP2 ADD MLOAD DUP4 SSTORE PUSH1 0x20 SWAP5 DUP6 ADD SWAP5 PUSH1 0x1 SWAP1 SWAP4 ADD SWAP3 SWAP1 SWAP2 ADD SWAP1 PUSH2 0x1A3C JUMP JUMPDEST ADD MLOAD SWAP1 POP DUP4 DUP1 PUSH2 0x110E JUMP JUMPDEST SWAP3 POP PUSH1 0xA DUP5 ADD PUSH1 0x0 MSTORE PUSH1 0x20 PUSH1 0x0 KECCAK256 SWAP1 PUSH1 0x0 SWAP4 JUMPDEST PUSH1 0x1F NOT DUP5 AND DUP6 LT PUSH2 0x1AFD JUMPI PUSH1 0x1 SWAP5 POP DUP4 PUSH1 0x1F NOT DUP2 AND LT PUSH2 0x1AE4 JUMPI JUMPDEST POP POP POP DUP2 SHL ADD PUSH1 0xA DUP3 ADD SSTORE PUSH2 0x1126 JUMP JUMPDEST ADD MLOAD PUSH1 0x0 NOT PUSH1 0xF8 DUP5 PUSH1 0x3 SHL AND SHR NOT AND SWAP1 SSTORE DUP4 DUP1 DUP1 PUSH2 0x1AD4 JUMP JUMPDEST DUP2 DUP2 ADD MLOAD DUP4 SSTORE PUSH1 0x20 SWAP5 DUP6 ADD SWAP5 PUSH1 0x1 SWAP1 SWAP4 ADD SWAP3 SWAP1 SWAP2 ADD SWAP1 PUSH2 0x1AB9 JUMP JUMPDEST ADD MLOAD SWAP1 POP DUP4 DUP1 PUSH2 0x10AA JUMP JUMPDEST SWAP3 POP PUSH1 0x9 DUP5 ADD PUSH1 0x0 MSTORE PUSH1 0x20 PUSH1 0x0 KECCAK256 SWAP1 PUSH1 0x0 SWAP4 JUMPDEST PUSH1 0x1F NOT DUP5 AND DUP6 LT PUSH2 0x1B7A JUMPI PUSH1 0x1 SWAP5 POP DUP4 PUSH1 0x1F NOT DUP2 AND LT PUSH2 0x1B61 JUMPI JUMPDEST POP POP POP DUP2 SHL ADD PUSH1 0x9 DUP3 ADD SSTORE PUSH2 0x10C2 JUMP JUMPDEST ADD MLOAD PUSH1 0x0 NOT PUSH1 0xF8 DUP5 PUSH1 0x3 SHL AND SHR NOT AND SWAP1 SSTORE DUP4 DUP1 DUP1 PUSH2 0x1B51 JUMP JUMPDEST DUP2 DUP2 ADD MLOAD DUP4 SSTORE PUSH1 0x20 SWAP5 DUP6 ADD SWAP5 PUSH1 0x1 SWAP1 SWAP4 ADD SWAP3 SWAP1 SWAP2 ADD SWAP1 PUSH2 0x1B36 JUMP JUMPDEST ADD MLOAD SWAP1 POP DUP4 DUP1 PUSH2 0x1046 JUMP JUMPDEST SWAP3 POP PUSH1 0x8 DUP5 ADD PUSH1 0x0 MSTORE PUSH1 0x20 PUSH1 0x0 KECCAK256 SWAP1 PUSH1 0x0 SWAP4 JUMPDEST PUSH1 0x1F NOT DUP5 AND DUP6 LT PUSH2 0x1BF7 JUMPI PUSH1 0x1 SWAP5 POP DUP4 PUSH1 0x1F NOT DUP2 AND LT PUSH2 0x1BDE JUMPI JUMPDEST POP POP POP DUP2 SHL ADD PUSH1 0x8 DUP3 ADD SSTORE PUSH2 0x105E JUMP JUMPDEST ADD MLOAD PUSH1 0x0 NOT PUSH1 0xF8 DUP5 PUSH1 0x3 SHL AND SHR NOT AND SWAP1 SSTORE DUP4 DUP1 DUP1 PUSH2 0x1BCE JUMP JUMPDEST DUP2 DUP2 ADD MLOAD DUP4 SSTORE PUSH1 0x20 SWAP5 DUP6 ADD SWAP5 PUSH1 0x1 SWAP1 SWAP4 ADD SWAP3 SWAP1 SWAP2 ADD SWAP1 PUSH2 0x1BB3 JUMP JUMPDEST ADD MLOAD SWAP1 POP DUP4 DUP1 PUSH2 0xFE2 JUMP JUMPDEST SWAP3 POP PUSH1 0x7 DUP5 ADD PUSH1 0x0 MSTORE PUSH1 0x20 PUSH1 0x0 KECCAK256 SWAP1 PUSH1 0x0 SWAP4 JUMPDEST PUSH1 0x1F NOT DUP5 AND DUP6 LT PUSH2 0x1C74 JUMPI PUSH1 0x1 SWAP5 POP DUP4 PUSH1 0x1F NOT DUP2 AND LT PUSH2 0x1C5B JUMPI JUMPDEST POP POP POP DUP2 SHL ADD PUSH1 0x7 DUP3 ADD SSTORE PUSH2 0xFFA JUMP JUMPDEST ADD MLOAD PUSH1 0x0 NOT PUSH1 0xF8 DUP5 PUSH1 0x3 SHL AND SHR NOT AND SWAP1 SSTORE DUP4 DUP1 DUP1 PUSH2 0x1C4B JUMP JUMPDEST DUP2 DUP2 ADD MLOAD DUP4 SSTORE PUSH1 0x20 SWAP5 DUP6 ADD SWAP5 PUSH1 0x1 SWAP1 SWAP4 ADD SWAP3 SWAP1 SWAP2 ADD SWAP1 PUSH2 0x1C30 JUMP JUMPDEST ADD MLOAD SWAP1 POP DUP4 DUP1 PUSH2 0xF7F JUMP JUMPDEST SWAP3 POP PUSH1 0x6 DUP5 ADD PUSH1 0x0 MSTORE PUSH1 0x20 PUSH1 0x0 KECCAK256 SWAP1 PUSH1 0x0 SWAP4 JUMPDEST PUSH1 0x1F NOT DUP5 AND DUP6 LT PUSH2 0x1CF1 JUMPI PUSH1 0x1 SWAP5 POP DUP4 PUSH1 0x1F NOT DUP2 AND LT PUSH2 0x1CD8 JUMPI JUMPDEST POP POP POP DUP2 SHL ADD PUSH1 0x6 DUP3 ADD SSTORE PUSH2 0xF97 JUMP JUMPDEST ADD MLOAD PUSH1 0x0 NOT PUSH1 0xF8 DUP5 PUSH1 0x3 SHL AND SHR NOT AND SWAP1 SSTORE DUP4 DUP1 DUP1 PUSH2 0x1CC8 JUMP JUMPDEST DUP2 DUP2 ADD MLOAD DUP4 SSTORE PUSH1 0x20 SWAP5 DUP6 ADD SWAP5 PUSH1 0x1 SWAP1 SWAP4 ADD SWAP3 SWAP1 SWAP2 ADD SWAP1 PUSH2 0x1CAD JUMP JUMPDEST ADD MLOAD SWAP1 POP DUP4 DUP1 PUSH2 0xF1C JUMP JUMPDEST SWAP3 POP PUSH1 0x5 DUP5 ADD PUSH1 0x0 MSTORE PUSH1 0x20 PUSH1 0x0 KECCAK256 SWAP1 PUSH1 0x0 SWAP4 JUMPDEST PUSH1 0x1F NOT DUP5 AND DUP6 LT PUSH2 0x1D6E JUMPI PUSH1 0x1 SWAP5 POP DUP4 PUSH1 0x1F NOT DUP2 AND LT PUSH2 0x1D55 JUMPI JUMPDEST POP POP POP DUP2 SHL ADD PUSH1 0x5 DUP3 ADD SSTORE PUSH2 0xF34 JUMP JUMPDEST ADD MLOAD PUSH1 0x0 NOT PUSH1 0xF8 DUP5 PUSH1 0x3 SHL AND SHR NOT AND SWAP1 SSTORE DUP4 DUP1 DUP1 PUSH2 0x1D45 JUMP JUMPDEST DUP2 DUP2 ADD MLOAD DUP4 SSTORE PUSH1 0x20 SWAP5 DUP6 ADD SWAP5 PUSH1 0x1 SWAP1 SWAP4 ADD SWAP3 SWAP1 SWAP2 ADD SWAP1 PUSH2 0x1D2A JUMP JUMPDEST ADD MLOAD SWAP1 POP DUP4 DUP1 PUSH2 0xEB9 JUMP JUMPDEST SWAP3 POP PUSH1 0x4 DUP5 ADD PUSH1 0x0 MSTORE PUSH1 0x20 PUSH1 0x0 KECCAK256 SWAP1 PUSH1 0x0 SWAP4 JUMPDEST PUSH1 0x1F NOT DUP5 AND DUP6 LT PUSH2 0x1DEB JUMPI PUSH1 0x1 SWAP5 POP DUP4 PUSH1 0x1F NOT DUP2 AND LT PUSH2 0x1DD2 JUMPI JUMPDEST POP POP POP DUP2 SHL ADD PUSH1 0x4 DUP3 ADD SSTORE PUSH2 0xED1 JUMP JUMPDEST ADD MLOAD PUSH1 0x0 NOT PUSH1 0xF8 DUP5 PUSH1 0x3 SHL AND SHR NOT AND SWAP1 SSTORE DUP4 DUP1 DUP1 PUSH2 0x1DC2 JUMP JUMPDEST DUP2 DUP2 ADD MLOAD DUP4 SSTORE PUSH1 0x20 SWAP5 DUP6 ADD SWAP5 PUSH1 0x1 SWAP1 SWAP4 ADD SWAP3 SWAP1 SWAP2 ADD SWAP1 PUSH2 0x1DA7 JUMP JUMPDEST ADD MLOAD SWAP1 POP DUP4 DUP1 PUSH2 0xE56 JUMP JUMPDEST SWAP3 POP PUSH1 0x3 DUP5 ADD PUSH1 0x0 MSTORE PUSH1 0x20 PUSH1 0x0 KECCAK256 SWAP1 PUSH1 0x0 SWAP4 JUMPDEST PUSH1 0x1F NOT DUP5 AND DUP6 LT PUSH2 0x1E68 JUMPI PUSH1 0x1 SWAP5 POP DUP4 PUSH1 0x1F NOT DUP2 AND LT PUSH2 0x1E4F JUMPI JUMPDEST POP POP POP DUP2 SHL ADD PUSH1 0x3 DUP3 ADD SSTORE PUSH2 0xE6E JUMP JUMPDEST ADD MLOAD PUSH1 0x0 NOT PUSH1 0xF8 DUP5 PUSH1 0x3 SHL AND SHR NOT AND SWAP1 SSTORE DUP4 DUP1 DUP1 PUSH2 0x1E3F JUMP JUMPDEST DUP2 DUP2 ADD MLOAD DUP4 SSTORE PUSH1 0x20 SWAP5 DUP6 ADD SWAP5 PUSH1 0x1 SWAP1 SWAP4 ADD SWAP3 SWAP1 SWAP2 ADD SWAP1 PUSH2 0x1E24 JUMP JUMPDEST ADD MLOAD SWAP1 POP DUP5 DUP1 PUSH2 0xDF6 JUMP JUMPDEST DUP3 PUSH1 0x0 MSTORE PUSH1 0x20 PUSH1 0x0 KECCAK256 SWAP1 PUSH1 0x0 PUSH1 0x1F NOT DUP5 AND SWAP1 JUMPDEST DUP2 DUP2 LT PUSH2 0x1EDC JUMPI POP SWAP6 DUP4 PUSH1 0x1 SWAP6 SWAP7 SWAP8 LT PUSH2 0x1EC3 JUMPI JUMPDEST POP POP POP DUP2 SHL ADD SWAP1 SSTORE PUSH2 0xE0B JUMP JUMPDEST ADD MLOAD PUSH1 0x0 NOT PUSH1 0xF8 DUP5 PUSH1 0x3 SHL AND SHR NOT AND SWAP1 SSTORE DUP5 DUP1 DUP1 PUSH2 0x1EB6 JUMP JUMPDEST SWAP2 SWAP3 PUSH1 0x20 PUSH1 0x1 DUP2 SWAP3 DUP7 DUP12 ADD MLOAD DUP2 SSTORE ADD SWAP5 ADD SWAP3 ADD PUSH2 0x1EA1 JUMP JUMPDEST ADD MLOAD SWAP1 POP DUP5 DUP1 PUSH2 0xD9C JUMP JUMPDEST DUP3 PUSH1 0x0 MSTORE PUSH1 0x20 PUSH1 0x0 KECCAK256 SWAP1 PUSH1 0x0 PUSH1 0x1F NOT DUP5 AND SWAP1 JUMPDEST DUP2 DUP2 LT PUSH2 0x1F4D JUMPI POP SWAP6 DUP4 PUSH1 0x1 SWAP6 SWAP7 SWAP8 LT PUSH2 0x1F34 JUMPI JUMPDEST POP POP POP DUP2 SHL ADD SWAP1 SSTORE PUSH2 0xDB1 JUMP JUMPDEST ADD MLOAD PUSH1 0x0 NOT PUSH1 0xF8 DUP5 PUSH1 0x3 SHL AND SHR NOT AND SWAP1 SSTORE DUP5 DUP1 DUP1 PUSH2 0x1F27 JUMP JUMPDEST SWAP2 SWAP3 PUSH1 0x20 PUSH1 0x1 DUP2 SWAP3 DUP7 DUP12 ADD MLOAD DUP2 SSTORE ADD SWAP5 ADD SWAP3 ADD PUSH2 0x1F12 JUMP JUMPDEST ADD MLOAD SWAP1 POP DUP4 DUP1 PUSH2 0xD42 JUMP JUMPDEST DUP3 PUSH1 0x0 MSTORE PUSH1 0x20 PUSH1 0x0 KECCAK256 SWAP1 PUSH1 0x0 SWAP5 PUSH1 0x1F NOT DUP5 AND SWAP6 JUMPDEST DUP7 DUP2 LT PUSH2 0x1FBD JUMPI POP DUP4 PUSH1 0x1 SWAP6 SWAP7 LT PUSH2 0x1FA4 JUMPI JUMPDEST POP POP POP DUP2 SHL ADD DUP2 SSTORE PUSH2 0xD57 JUMP JUMPDEST ADD MLOAD PUSH1 0x0 NOT PUSH1 0xF8 DUP5 PUSH1 0x3 SHL AND SHR NOT AND SWAP1 SSTORE DUP4 DUP1 DUP1 PUSH2 0x1F97 JUMP JUMPDEST SWAP2 SWAP3 PUSH1 0x20 PUSH1 0x1 DUP2 SWAP3 DUP7 DUP6 ADD MLOAD DUP2 SSTORE ADD SWAP5 ADD SWAP3 ADD PUSH2 0x1F84 JUMP JUMPDEST PUSH3 0x461BCD PUSH1 0xE5 SHL PUSH2 0x620 SWAP1 DUP2 MSTORE PUSH1 0x20 PUSH2 0x624 MSTORE PUSH1 0xB PUSH2 0x644 MSTORE PUSH11 0x139BDD081CDD195DD85C99 PUSH1 0xAA SHL PUSH2 0x664 MSTORE PUSH1 0x64 SWAP1 REVERT JUMPDEST SWAP2 DUP2 PUSH1 0x1F DUP5 ADD SLT ISZERO PUSH2 0x35C JUMPI DUP3 CALLDATALOAD SWAP2 PUSH1 0x1 PUSH1 0x1 PUSH1 0x40 SHL SUB DUP4 GT PUSH2 0x35C JUMPI PUSH1 0x20 DUP4 DUP2 DUP7 ADD SWAP6 ADD ADD GT PUSH2 0x35C JUMPI JUMP JUMPDEST PUSH1 0x2 SLOAD DUP2 LT ISZERO PUSH2 0x206A JUMPI PUSH1 0x2 PUSH1 0x0 MSTORE PUSH32 0x405787FA12A823E0F2B7631CC41B3BA8828B3321CA811111FA75CD3AA3BB5ACE ADD SWAP1 PUSH1 0x0 SWAP1 JUMP JUMPDEST PUSH4 0x4E487B71 PUSH1 0xE0 SHL PUSH1 0x0 MSTORE PUSH1 0x32 PUSH1 0x4 MSTORE PUSH1 0x24 PUSH1 0x0 REVERT JUMPDEST SWAP1 PUSH1 0x1 DUP3 DUP2 SHR SWAP3 AND DUP1 ISZERO PUSH2 0x20B0 JUMPI JUMPDEST PUSH1 0x20 DUP4 LT EQ PUSH2 0x209A JUMPI JUMP JUMPDEST PUSH4 0x4E487B71 PUSH1 0xE0 SHL PUSH1 0x0 MSTORE PUSH1 0x22 PUSH1 0x4 MSTORE PUSH1 0x24 PUSH1 0x0 REVERT JUMPDEST SWAP2 PUSH1 0x7F AND SWAP2 PUSH2 0x208F JUMP JUMPDEST PUSH2 0x240 DUP2 ADD SWAP1 DUP2 LT PUSH1 0x1 PUSH1 0x1 PUSH1 0x40 SHL SUB DUP3 GT OR PUSH2 0x1727 JUMPI PUSH1 0x40 MSTORE JUMP JUMPDEST SWAP1 PUSH1 0x1F DUP1 NOT SWAP2 ADD AND DUP2 ADD SWAP1 DUP2 LT PUSH1 0x1 PUSH1 0x1 PUSH1 0x40 SHL SUB DUP3 GT OR PUSH2 0x1727 JUMPI PUSH1 0x40 MSTORE JUMP JUMPDEST SWAP1 PUSH1 0x40 MLOAD SWAP2 DUP3 PUSH1 0x0 DUP3 SLOAD SWAP3 PUSH2 0x210B DUP5 PUSH2 0x2080 JUMP JUMPDEST SWAP1 DUP2 DUP5 MSTORE PUSH1 0x1 SWAP5 DUP6 DUP2 AND SWAP1 DUP2 PUSH1 0x0 EQ PUSH2 0x217A JUMPI POP PUSH1 0x1 EQ PUSH2 0x2137 JUMPI JUMPDEST POP POP PUSH2 0x2135 SWAP3 POP SUB DUP4 PUSH2 0x20D6 JUMP JUMPDEST JUMP JUMPDEST SWAP1 SWAP4 SWAP2 POP PUSH1 0x0 MSTORE PUSH1 0x20 SWAP1 DUP2 PUSH1 0x0 KECCAK256 SWAP4 PUSH1 0x0 SWAP2 JUMPDEST DUP2 DUP4 LT PUSH2 0x2162 JUMPI POP POP PUSH2 0x2135 SWAP4 POP DUP3 ADD ADD CODESIZE DUP1 PUSH2 0x2127 JUMP JUMPDEST DUP6 SLOAD DUP9 DUP5 ADD DUP6 ADD MSTORE SWAP5 DUP6 ADD SWAP5 DUP8 SWAP5 POP SWAP2 DUP4 ADD SWAP2 PUSH2 0x214A JUMP JUMPDEST SWAP2 POP POP PUSH2 0x2135 SWAP5 POP PUSH1 0x20 SWAP3 POP PUSH1 0xFF NOT AND DUP3 DUP5 ADD MSTORE ISZERO ISZERO PUSH1 0x5 SHL DUP3 ADD ADD CODESIZE DUP1 PUSH2 0x2127 JUMP JUMPDEST PUSH1 0x0 JUMPDEST DUP4 DUP2 LT PUSH2 0x21B0 JUMPI POP POP PUSH1 0x0 SWAP2 ADD MSTORE JUMP JUMPDEST DUP2 DUP2 ADD MLOAD DUP4 DUP3 ADD MSTORE PUSH1 0x20 ADD PUSH2 0x21A0 JUMP JUMPDEST SWAP1 PUSH1 0x20 SWAP2 PUSH2 0x21D9 DUP2 MLOAD DUP1 SWAP3 DUP2 DUP6 MSTORE DUP6 DUP1 DUP7 ADD SWAP2 ADD PUSH2 0x219D JUMP JUMPDEST PUSH1 0x1F ADD PUSH1 0x1F NOT AND ADD ADD SWAP1 JUMP JUMPDEST SWAP3 SWAP2 SWAP3 PUSH1 0x1 PUSH1 0x1 PUSH1 0x40 SHL SUB DUP3 GT PUSH2 0x1727 JUMPI PUSH1 0x40 MLOAD SWAP2 PUSH2 0x220E PUSH1 0x1F DUP3 ADD PUSH1 0x1F NOT AND PUSH1 0x20 ADD DUP5 PUSH2 0x20D6 JUMP JUMPDEST DUP3 SWAP5 DUP2 DUP5 MSTORE DUP2 DUP4 ADD GT PUSH2 0x35C JUMPI DUP3 DUP2 PUSH1 0x20 SWAP4 DUP5 PUSH1 0x0 SWAP7 ADD CALLDATACOPY ADD ADD MSTORE JUMP JUMPDEST SWAP1 PUSH1 0x1F DUP2 GT PUSH2 0x2239 JUMPI POP POP POP JUMP JUMPDEST PUSH1 0x0 SWAP2 DUP3 MSTORE PUSH1 0x20 DUP3 KECCAK256 SWAP1 PUSH1 0x20 PUSH1 0x1F DUP6 ADD PUSH1 0x5 SHR DUP4 ADD SWAP5 LT PUSH2 0x2275 JUMPI JUMPDEST PUSH1 0x1F ADD PUSH1 0x5 SHR ADD SWAP2 JUMPDEST DUP3 DUP2 LT PUSH2 0x226A JUMPI POP POP POP JUMP JUMPDEST DUP2 DUP2 SSTORE PUSH1 0x1 ADD PUSH2 0x225E JUMP JUMPDEST SWAP1 SWAP3 POP DUP3 SWAP1 PUSH2 0x2255 JUMP JUMPDEST SWAP1 DUP1 PUSH1 0x20 SWAP4 SWAP3 DUP2 DUP5 MSTORE DUP5 DUP5 ADD CALLDATACOPY PUSH1 0x0 DUP3 DUP3 ADD DUP5 ADD MSTORE PUSH1 0x1F ADD PUSH1 0x1F NOT AND ADD ADD SWAP1 JUMP INVALID LOG2 PUSH5 0x6970667358 0x22 SLT KECCAK256 0xD0 0x2D PUSH11 0xFDF32028E11CFA78CA2964 PUSH17 0x861F95599FF0C8503FFAD669F6D290855A PUSH5 0x736F6C6343 STOP ADDMOD EQ STOP CALLER "},"methodIdentifiers":{"codices(string)":"dbc21424","getCodex(string)":"83361522","inscribeCodex(string,string,string,string,string,string,string,string,string,string,string,string,string,string,string,string,string,string,string)":"0765baa4","keys(uint256)":"0cb6aaf1","steward()":"637eea19","totalCodices()":"c212d16b"}}}}}