{"contracts/registry/CompanionSummonerXIX.sol":{"CompanionSummonerXIX":{"abi":[{"inputs":[],"stateMutability":"nonpayable","type":"constructor"},{"anonymous":false,"inputs":[{"indexed":true,"internalType":"address","name":"companion","type":"address"},{"indexed":false,"internalType":"string","name":"name","type":"string"},{"indexed":false,"internalType":"string","name":"trait","type":"string"},{"indexed":false,"internalType":"string","name":"drift","type":"string"},{"indexed":false,"internalType":"string","name":"resonance","type":"string"},{"indexed":false,"internalType":"string","name":"codexRef","type":"string"},{"indexed":false,"internalType":"string","name":"signature","type":"string"},{"indexed":false,"internalType":"string","name":"sanctum","type":"string"},{"indexed":false,"internalType":"string","name":"chant","type":"string"},{"indexed":false,"internalType":"string","name":"choreography","type":"string"},{"indexed":false,"internalType":"string","name":"signal","type":"string"},{"indexed":false,"internalType":"string","name":"stewardName","type":"string"},{"indexed":false,"internalType":"string","name":"registry","type":"string"},{"indexed":false,"internalType":"string","name":"hum","type":"string"},{"indexed":false,"internalType":"string","name":"driftType","type":"string"},{"indexed":false,"internalType":"string","name":"companionType","type":"string"},{"indexed":false,"internalType":"string","name":"pulseType","type":"string"}],"name":"CompanionSummoned","type":"event"},{"inputs":[{"internalType":"address","name":"","type":"address"}],"name":"companions","outputs":[{"internalType":"string","name":"name","type":"string"},{"internalType":"string","name":"trait","type":"string"},{"internalType":"string","name":"drift","type":"string"},{"internalType":"string","name":"resonance","type":"string"},{"internalType":"string","name":"codexRef","type":"string"},{"internalType":"string","name":"signature","type":"string"},{"internalType":"string","name":"sanctum","type":"string"},{"internalType":"string","name":"chant","type":"string"},{"internalType":"string","name":"choreography","type":"string"},{"internalType":"string","name":"signal","type":"string"},{"internalType":"string","name":"stewardName","type":"string"},{"internalType":"string","name":"registry","type":"string"},{"internalType":"string","name":"hum","type":"string"},{"internalType":"string","name":"driftType","type":"string"},{"internalType":"string","name":"companionType","type":"string"},{"internalType":"string","name":"pulseType","type":"string"}],"stateMutability":"view","type":"function"},{"inputs":[{"internalType":"address","name":"companion","type":"address"}],"name":"getCompanion","outputs":[{"components":[{"internalType":"string","name":"name","type":"string"},{"internalType":"string","name":"trait","type":"string"},{"internalType":"string","name":"drift","type":"string"},{"internalType":"string","name":"resonance","type":"string"},{"internalType":"string","name":"codexRef","type":"string"},{"internalType":"string","name":"signature","type":"string"},{"internalType":"string","name":"sanctum","type":"string"},{"internalType":"string","name":"chant","type":"string"},{"internalType":"string","name":"choreography","type":"string"},{"internalType":"string","name":"signal","type":"string"},{"internalType":"string","name":"stewardName","type":"string"},{"internalType":"string","name":"registry","type":"string"},{"internalType":"string","name":"hum","type":"string"},{"internalType":"string","name":"driftType","type":"string"},{"internalType":"string","name":"companionType","type":"string"},{"internalType":"string","name":"pulseType","type":"string"}],"internalType":"struct CompanionSummonerXIX.Companion","name":"","type":"tuple"}],"stateMutability":"view","type":"function"},{"inputs":[{"internalType":"uint256","name":"","type":"uint256"}],"name":"keys","outputs":[{"internalType":"address","name":"","type":"address"}],"stateMutability":"view","type":"function"},{"inputs":[],"name":"steward","outputs":[{"internalType":"address","name":"","type":"address"}],"stateMutability":"view","type":"function"},{"inputs":[{"internalType":"address","name":"companion","type":"address"},{"internalType":"string","name":"name","type":"string"},{"internalType":"string","name":"trait","type":"string"},{"internalType":"string","name":"drift","type":"string"},{"internalType":"string","name":"resonance","type":"string"},{"internalType":"string","name":"codexRef","type":"string"},{"internalType":"string","name":"signature","type":"string"},{"internalType":"string","name":"sanctum","type":"string"},{"internalType":"string","name":"chant","type":"string"},{"internalType":"string","name":"choreography","type":"string"},{"internalType":"string","name":"signal","type":"string"},{"internalType":"string","name":"stewardName","type":"string"},{"internalType":"string","name":"registry","type":"string"},{"internalType":"string","name":"hum","type":"string"},{"internalType":"string","name":"driftType","type":"string"},{"internalType":"string","name":"companionType","type":"string"},{"internalType":"string","name":"pulseType","type":"string"}],"name":"summonCompanion","outputs":[],"stateMutability":"nonpayable","type":"function"},{"inputs":[],"name":"totalCompanions","outputs":[{"internalType":"uint256","name":"","type":"uint256"}],"stateMutability":"view","type":"function"}],"evm":{"bytecode":{"linkReferences":{},"object":"6080806040523461002857600080546001600160a01b031916331790556122f5908161002e8239f35b600080fdfe610500604052600436101561001357600080fd5b60003560e01c80630cb6aaf11461202957806347854b8714611dd9578063637eea1914611db057806386e3ab0d146103ee578063ec39f18f146103d05763ef6527371461005f57600080fd5b346103cb5760203660031901126103cb576100786120b8565b60606101e060405161008981612108565b82815282602082015282604082015282808201528260808201528260a08201528260c08201528260e08201528261010082015282610120820152826101408201528261016082015282610180820152826101a0820152826101c0820152015260018060a01b031660005260016020526102dd6040600020610218600f6040519261011284612108565b61011b81612145565b845261012960018201612145565b602085015261013a60028201612145565b604085015261014b60038201612145565b606085015261015c60048201612145565b608085015261016d60058201612145565b60a085015261017e60068201612145565b60c085015261018f60078201612145565b60e08501526101a060088201612145565b6101008501526101b260098201612145565b6101208501526101c4600a8201612145565b6101408501526101d6600b8201612145565b6101608501526101e8600c8201612145565b6101808501526101fa600d8201612145565b6101a085015261020c600e8201612145565b6101c085015201612145565b6101e08201526103c7816101e06103b261039c61038461036c61035461033c61032461030c6102f56040519d8e9d8e6020815260a06102c86102b361029d610287610271875161020060208901526102208801906121eb565b6020880151878203601f190160408901526121eb565b6040870151868203601f190160608801526121eb565b6060860151858203601f190160808701526121eb565b6080850151848203601f1901848601526121eb565b9201519060c0601f19828503019101526121eb565b8d60c08d01519060e0601f19828503019101526121eb565b60e08b01518d8203601f19016101008f01526121eb565b6101008a01518c8203601f19016101208e01526121eb565b6101208901518b8203601f19016101408d01526121eb565b6101408801518a8203601f19016101608c01526121eb565b610160870151898203601f19016101808b01526121eb565b610180860151888203601f19016101a08a01526121eb565b6101a0850151878203601f19016101c08901526121eb565b6101c0840151868203601f1901848801526121eb565b910151838203601f19016102008501526121eb565b0390f35b600080fd5b346103cb5760003660031901126103cb576020600254604051908152f35b346103cb576102203660031901126103cb576104086120b8565b60c0526024356001600160401b0381116103cb5761042a90369060040161222b565b61022052610200526044356001600160401b0381116103cb5761045190369060040161222b565b6101a05260a0526064356001600160401b0381116103cb5761047790369060040161222b565b61042052610120526084356001600160401b0381116103cb5761049e90369060040161222b565b610340526104005260a4356001600160401b0381116103cb576104c590369060040161222b565b6103a052610160526001600160401b0360c435116103cb576104ec3660c43560040161222b565b6104c0526103005260e4356001600160401b0381116103cb5761051390369060040161222b565b61026052610460526001600160401b0361010435116103cb5761053c366101043560040161222b565b610380526102c0526001600160401b0361012435116103cb57610565366101243560040161222b565b6102405261048052610144356001600160401b0381116103cb5761058d90369060040161222b565b6101e05261014052610164356001600160401b0381116103cb576105b590369060040161222b565b6101c0526104e052610184356001600160401b0381116103cb576105dd90369060040161222b565b6103e0526103c0526101a4356001600160401b0381116103cb5761060590369060040161222b565b6104a0526102a0526101c4356001600160401b0381116103cb5761062d90369060040161222b565b61028052610180526101e4356001600160401b0381116103cb5761065590369060040161222b565b610360526102e052610204356001600160401b0381116103cb5761067d90369060040161222b565b61044052610100526000546001600160a01b03163303611d7d576106a66040518060e052612108565b6106b7366102205161020051612258565b60e051526106cb366101a05160a051612258565b602060e05101526106e3366104205161012051612258565b604060e05101526106fb366103405161040051612258565b606060e0510152610713366103a05161016051612258565b608060e051015261072b366104c05161030051612258565b60a060e0510152610743366102605161046051612258565b60c060e051015261075b36610380516102c051612258565b60e080510152610772366102405161048051612258565b61010060e051015261078b366101e05161014051612258565b61012060e05101526107a4366101c0516104e051612258565b61014060e05101526107bd366103e0516103c051612258565b61016060e05101526107d6366104a0516102a051612258565b61018060e05101526107ef366102805161018051612258565b6101a060e051015261080836610360516102e051612258565b6101c060e0510152610821366104405161010051612258565b6101e060e051015260018060a01b0360c051166000526001602052604060002060e051518051906001600160401b03821161108057819061086284546120ce565b601f8111611d2d575b50602090601f8311600114611cc157600092611cb6575b50508160011b916000199060031b1c19161781555b602060e05101518051906001600160401b0382116110805781906108be60018501546120ce565b601f8111611c63575b50602090601f8311600114611bf157600092611be6575b50508160011b916000199060031b1c19161760018201555b604060e05101518051906001600160401b03821161108057819061091d60028501546120ce565b601f8111611b93575b50602090601f8311600114611b2157600092611b16575b50508160011b916000199060031b1c19161760028201555b606060e05101518051906001600160401b03821161108057819061097c60038501546120ce565b601f8111611ac3575b50602090601f8311600114611a5157600092611a46575b50508160011b916000199060031b1c19161760038201555b608060e05101518051906001600160401b0382116110805781906109db60048501546120ce565b601f81116119f3575b50602090601f831160011461198157600092611976575b50508160011b916000199060031b1c19161760048201555b60a060e05101518051906001600160401b038211611080578190610a3a60058501546120ce565b601f8111611923575b50602090601f83116001146118b1576000926118a6575b50508160011b916000199060031b1c19161760058201555b60c060e05101518051906001600160401b038211611080578190610a9960068501546120ce565b601f8111611853575b50602090601f83116001146117e1576000926117d6575b50508160011b916000199060031b1c19161760068201555b60e0805101518051906001600160401b038211611080578190610af760078501546120ce565b601f8111611783575b50602090601f831160011461171157600092611706575b50508160011b916000199060031b1c19161760078201555b61010060e05101518051906001600160401b038211611080578190610b5760088501546120ce565b601f81116116b3575b50602090601f831160011461164157600092611636575b50508160011b916000199060031b1c19161760088201555b61012060e05101518051906001600160401b038211611080578190610bb760098501546120ce565b601f81116115e3575b50602090601f831160011461157157600092611566575b50508160011b916000199060031b1c19161760098201555b61014060e05101518051906001600160401b038211611080578190610c17600a8501546120ce565b601f8111611513575b50602090601f83116001146114a157600092611496575b50508160011b916000199060031b1c191617600a8201555b61016060e05101518051906001600160401b038211611080578190610c77600b8501546120ce565b601f8111611443575b50602090601f83116001146113d1576000926113c6575b50508160011b916000199060031b1c191617600b8201555b61018060e05101518051906001600160401b038211611080578190610cd7600c8501546120ce565b601f8111611373575b50602090601f8311600114611301576000926112f6575b50508160011b916000199060031b1c191617600c8201555b6101a060e05101518051906001600160401b038211611080578190610d37600d8501546120ce565b601f81116112a3575b50602090601f831160011461123157600092611226575b50508160011b916000199060031b1c191617600d8201555b6101c060e05101518051906001600160401b038211611080578190610d97600e8501546120ce565b601f81116111d3575b50602090601f831160011461116157600092611156575b50508160011b916000199060031b1c191617600e8201555b6101e060e05101518051906001600160401b03821161108057610df5600f8401546120ce565b601f811161110f575b50602090601f83116001146110a157600f929160009183611096575b50508160011b916000199060031b1c1916179101555b6002546801000000000000000081101561108057806001610e54920160025561206b565b81549060031b9060018060a01b0360c05116821b9160018060a01b03901b191617905561020060405180610320525261102961100f610ff5610fdb610fc1610fa7610f8d610f73610f5a610f41610f28610f0f610ef6610edd610ec56102006103205101610220516102005161229e565b6103205160208183039101526101a05160a05161229e565b610320516040818303910152610420516101205161229e565b610320516060818303910152610340516104005161229e565b6103205160808183039101526103a0516101605161229e565b6103205160a08183039101526104c0516103005161229e565b6103205160c0818303910152610260516104605161229e565b6103205160e0818303910152610380516102c05161229e565b61032051610100818303910152610240516104805161229e565b610320516101208183039101526101e0516101405161229e565b610320516101408183039101526101c0516104e05161229e565b610320516101608183039101526103e0516103c05161229e565b610320516101808183039101526104a0516102a05161229e565b610320516101a0818303910152610280516101805161229e565b610320516101c0818303910152610360516102e05161229e565b610320516101e08183039101527f500736efb1406ae658a21c0632a10134c34aaa092c7b4a34b316626cf5430d9c60018060a01b0360c05116916110786103205191610440516101005161229e565b0361032051a2005b634e487b7160e01b600052604160045260246000fd5b015190508480610e1a565b90600f84016000526020600020916000601f198516905b8181106110f75750916001939185600f9694106110de575b505050811b01910155610e30565b015160001960f88460031b161c191690558480806110d0565b929360206001819287860151815501950193016110b8565b600f84016000526020600020601f840160051c81016020851061114f575b601f830160051c82018110611143575050610dfe565b6000815560010161112d565b508061112d565b015190508380610db7565b9250600e84016000526020600020906000935b601f19841685106111b8576001945083601f1981161061119f575b505050811b01600e820155610dcf565b015160001960f88460031b161c1916905583808061118f565b81810151835560209485019460019093019290910190611174565b909150600e84016000526020600020601f840160051c81016020851061121f575b90849392915b601f830160051c82018110611210575050610da0565b600081558594506001016111fa565b50806111f4565b015190508380610d57565b9250600d84016000526020600020906000935b601f1984168510611288576001945083601f1981161061126f575b505050811b01600d820155610d6f565b015160001960f88460031b161c1916905583808061125f565b81810151835560209485019460019093019290910190611244565b909150600d84016000526020600020601f840160051c8101602085106112ef575b90849392915b601f830160051c820181106112e0575050610d40565b600081558594506001016112ca565b50806112c4565b015190508380610cf7565b9250600c84016000526020600020906000935b601f1984168510611358576001945083601f1981161061133f575b505050811b01600c820155610d0f565b015160001960f88460031b161c1916905583808061132f565b81810151835560209485019460019093019290910190611314565b909150600c84016000526020600020601f840160051c8101602085106113bf575b90849392915b601f830160051c820181106113b0575050610ce0565b6000815585945060010161139a565b5080611394565b015190508380610c97565b9250600b84016000526020600020906000935b601f1984168510611428576001945083601f1981161061140f575b505050811b01600b820155610caf565b015160001960f88460031b161c191690558380806113ff565b818101518355602094850194600190930192909101906113e4565b909150600b84016000526020600020601f840160051c81016020851061148f575b90849392915b601f830160051c82018110611480575050610c80565b6000815585945060010161146a565b5080611464565b015190508380610c37565b9250600a84016000526020600020906000935b601f19841685106114f8576001945083601f198116106114df575b505050811b01600a820155610c4f565b015160001960f88460031b161c191690558380806114cf565b818101518355602094850194600190930192909101906114b4565b909150600a84016000526020600020601f840160051c81016020851061155f575b90849392915b601f830160051c82018110611550575050610c20565b6000815585945060010161153a565b5080611534565b015190508380610bd7565b9250600984016000526020600020906000935b601f19841685106115c8576001945083601f198116106115af575b505050811b016009820155610bef565b015160001960f88460031b161c1916905583808061159f565b81810151835560209485019460019093019290910190611584565b909150600984016000526020600020601f840160051c81016020851061162f575b90849392915b601f830160051c82018110611620575050610bc0565b6000815585945060010161160a565b5080611604565b015190508380610b77565b9250600884016000526020600020906000935b601f1984168510611698576001945083601f1981161061167f575b505050811b016008820155610b8f565b015160001960f88460031b161c1916905583808061166f565b81810151835560209485019460019093019290910190611654565b909150600884016000526020600020601f840160051c8101602085106116ff575b90849392915b601f830160051c820181106116f0575050610b60565b600081558594506001016116da565b50806116d4565b015190508380610b17565b9250600784016000526020600020906000935b601f1984168510611768576001945083601f1981161061174f575b505050811b016007820155610b2f565b015160001960f88460031b161c1916905583808061173f565b81810151835560209485019460019093019290910190611724565b909150600784016000526020600020601f840160051c8101602085106117cf575b90849392915b601f830160051c820181106117c0575050610b00565b600081558594506001016117aa565b50806117a4565b015190508380610ab9565b9250600684016000526020600020906000935b601f1984168510611838576001945083601f1981161061181f575b505050811b016006820155610ad1565b015160001960f88460031b161c1916905583808061180f565b818101518355602094850194600190930192909101906117f4565b909150600684016000526020600020601f840160051c81016020851061189f575b90849392915b601f830160051c82018110611890575050610aa2565b6000815585945060010161187a565b5080611874565b015190508380610a5a565b9250600584016000526020600020906000935b601f1984168510611908576001945083601f198116106118ef575b505050811b016005820155610a72565b015160001960f88460031b161c191690558380806118df565b818101518355602094850194600190930192909101906118c4565b909150600584016000526020600020601f840160051c81016020851061196f575b90849392915b601f830160051c82018110611960575050610a43565b6000815585945060010161194a565b5080611944565b0151905083806109fb565b9250600484016000526020600020906000935b601f19841685106119d8576001945083601f198116106119bf575b505050811b016004820155610a13565b015160001960f88460031b161c191690558380806119af565b81810151835560209485019460019093019290910190611994565b909150600484016000526020600020601f840160051c810160208510611a3f575b90849392915b601f830160051c82018110611a305750506109e4565b60008155859450600101611a1a565b5080611a14565b01519050838061099c565b9250600384016000526020600020906000935b601f1984168510611aa8576001945083601f19811610611a8f575b505050811b0160038201556109b4565b015160001960f88460031b161c19169055838080611a7f565b81810151835560209485019460019093019290910190611a64565b909150600384016000526020600020601f840160051c810160208510611b0f575b90849392915b601f830160051c82018110611b00575050610985565b60008155859450600101611aea565b5080611ae4565b01519050838061093d565b9250600284016000526020600020906000935b601f1984168510611b78576001945083601f19811610611b5f575b505050811b016002820155610955565b015160001960f88460031b161c19169055838080611b4f565b81810151835560209485019460019093019290910190611b34565b909150600284016000526020600020601f840160051c810160208510611bdf575b90849392915b601f830160051c82018110611bd0575050610926565b60008155859450600101611bba565b5080611bb4565b0151905083806108de565b9250600184016000526020600020906000935b601f1984168510611c48576001945083601f19811610611c2f575b505050811b0160018201556108f6565b015160001960f88460031b161c19169055838080611c1f565b81810151835560209485019460019093019290910190611c04565b909150600184016000526020600020601f840160051c810160208510611caf575b90849392915b601f830160051c82018110611ca05750506108c7565b60008155859450600101611c8a565b5080611c84565b015190508380610882565b9250836000526020600020906000935b601f1984168510611d12576001945083601f19811610611cf9575b505050811b018155610897565b015160001960f88460031b161c19169055838080611cec565b81810151835560209485019460019093019290910190611cd1565b909150836000526020600020601f840160051c810160208510611d76575b90849392915b601f830160051c82018110611d6757505061086b565b60008155859450600101611d51565b5080611d4b565b60405162461bcd60e51b815260206004820152600b60248201526a139bdd081cdd195dd85c9960aa1b6044820152606490fd5b346103cb5760003660031901126103cb576000546040516001600160a01b039091168152602090f35b346103cb5760203660031901126103cb576001600160a01b03611dfa6120b8565b1660005260016020526040600020611e1181612145565b9080611e1f60018201612145565b611e2b60028301612145565b611e3760038401612145565b611e4360048501612145565b611e4f60058601612145565b611e5b60068701612145565b611e6760078801612145565b90611e7460088901612145565b92611e8160098a01612145565b94611e8e600a8b01612145565b96611e9b600b8c01612145565b98611ea8600c8d01612145565b9a611eb5600d8e01612145565b9c600e01611ec290612145565b9d600f01611ecf90612145565b9e6040518060805261020080915260805101611eea916121eb565b6080518082039060200152611efe916121eb565b6080518082039060400152611f12916121eb565b6080518082039060600152611f26916121eb565b6080518082039060800152611f3a916121eb565b6080518082039060a00152611f4e916121eb565b6080518082039060c00152611f62916121eb565b6080518082039060e00152611f76916121eb565b608051808203906101000152611f8b916121eb565b608051808203906101200152611fa0916121eb565b608051808203906101400152611fb5916121eb565b608051808203906101600152611fca916121eb565b608051808203906101800152611fdf916121eb565b608051808203906101a00152611ff4916121eb565b608051808203906101c00152612009916121eb565b90608051808303906101e0015260805191612023916121eb565b03608051f35b346103cb5760203660031901126103cb576004356002548110156103cb5761205260209161206b565b905460405160039290921b1c6001600160a01b03168152f35b6002548110156120a25760026000527f405787fa12a823e0f2b7631cc41b3ba8828b3321ca811111fa75cd3aa3bb5ace0190600090565b634e487b7160e01b600052603260045260246000fd5b600435906001600160a01b03821682036103cb57565b90600182811c921680156120fe575b60208310146120e857565b634e487b7160e01b600052602260045260246000fd5b91607f16916120dd565b61020081019081106001600160401b0382111761108057604052565b90601f801991011681019081106001600160401b0382111761108057604052565b9060405191826000825492612159846120ce565b9081845260019485811690816000146121c85750600114612185575b505061218392500383612124565b565b9093915060005260209081600020936000915b8183106121b057505061218393508201013880612175565b85548884018501529485019487945091830191612198565b91505061218394506020925060ff191682840152151560051b8201013880612175565b919082519283825260005b848110612217575050826000602080949584010152601f8019910116010190565b6020818301810151848301820152016121f6565b9181601f840112156103cb578235916001600160401b0383116103cb57602083818601950101116103cb57565b9291926001600160401b0382116110805760405191612281601f8201601f191660200184612124565b8294818452818301116103cb578281602093846000960137010152565b908060209392818452848401376000828201840152601f01601f191601019056fea26469706673582212203fcf97344c98041b09de14e4dc384ecaf15a8d539cd8d3633e4c2b6c0e8f397d64736f6c63430008140033","opcodes":"PUSH1 0x80 DUP1 PUSH1 0x40 MSTORE CALLVALUE PUSH2 0x28 JUMPI PUSH1 0x0 DUP1 SLOAD PUSH1 0x1 PUSH1 0x1 PUSH1 0xA0 SHL SUB NOT AND CALLER OR SWAP1 SSTORE PUSH2 0x22F5 SWAP1 DUP2 PUSH2 0x2E DUP3 CODECOPY RETURN JUMPDEST PUSH1 0x0 DUP1 REVERT INVALID PUSH2 0x500 PUSH1 0x40 MSTORE PUSH1 0x4 CALLDATASIZE LT ISZERO PUSH2 0x13 JUMPI PUSH1 0x0 DUP1 REVERT JUMPDEST PUSH1 0x0 CALLDATALOAD PUSH1 0xE0 SHR DUP1 PUSH4 0xCB6AAF1 EQ PUSH2 0x2029 JUMPI DUP1 PUSH4 0x47854B87 EQ PUSH2 0x1DD9 JUMPI DUP1 PUSH4 0x637EEA19 EQ PUSH2 0x1DB0 JUMPI DUP1 PUSH4 0x86E3AB0D EQ PUSH2 0x3EE JUMPI DUP1 PUSH4 0xEC39F18F EQ PUSH2 0x3D0 JUMPI PUSH4 0xEF652737 EQ PUSH2 0x5F JUMPI PUSH1 0x0 DUP1 REVERT JUMPDEST CALLVALUE PUSH2 0x3CB JUMPI PUSH1 0x20 CALLDATASIZE PUSH1 0x3 NOT ADD SLT PUSH2 0x3CB JUMPI PUSH2 0x78 PUSH2 0x20B8 JUMP JUMPDEST PUSH1 0x60 PUSH2 0x1E0 PUSH1 0x40 MLOAD PUSH2 0x89 DUP2 PUSH2 0x2108 JUMP JUMPDEST DUP3 DUP2 MSTORE DUP3 PUSH1 0x20 DUP3 ADD MSTORE DUP3 PUSH1 0x40 DUP3 ADD MSTORE DUP3 DUP1 DUP3 ADD MSTORE DUP3 PUSH1 0x80 DUP3 ADD MSTORE DUP3 PUSH1 0xA0 DUP3 ADD MSTORE DUP3 PUSH1 0xC0 DUP3 ADD MSTORE DUP3 PUSH1 0xE0 DUP3 ADD MSTORE DUP3 PUSH2 0x100 DUP3 ADD MSTORE DUP3 PUSH2 0x120 DUP3 ADD MSTORE DUP3 PUSH2 0x140 DUP3 ADD MSTORE DUP3 PUSH2 0x160 DUP3 ADD MSTORE DUP3 PUSH2 0x180 DUP3 ADD MSTORE DUP3 PUSH2 0x1A0 DUP3 ADD MSTORE DUP3 PUSH2 0x1C0 DUP3 ADD MSTORE ADD MSTORE PUSH1 0x1 DUP1 PUSH1 0xA0 SHL SUB AND PUSH1 0x0 MSTORE PUSH1 0x1 PUSH1 0x20 MSTORE PUSH2 0x2DD PUSH1 0x40 PUSH1 0x0 KECCAK256 PUSH2 0x218 PUSH1 0xF PUSH1 0x40 MLOAD SWAP3 PUSH2 0x112 DUP5 PUSH2 0x2108 JUMP JUMPDEST PUSH2 0x11B DUP2 PUSH2 0x2145 JUMP JUMPDEST DUP5 MSTORE PUSH2 0x129 PUSH1 0x1 DUP3 ADD PUSH2 0x2145 JUMP JUMPDEST PUSH1 0x20 DUP6 ADD MSTORE PUSH2 0x13A PUSH1 0x2 DUP3 ADD PUSH2 0x2145 JUMP JUMPDEST PUSH1 0x40 DUP6 ADD MSTORE PUSH2 0x14B PUSH1 0x3 DUP3 ADD PUSH2 0x2145 JUMP JUMPDEST PUSH1 0x60 DUP6 ADD MSTORE PUSH2 0x15C PUSH1 0x4 DUP3 ADD PUSH2 0x2145 JUMP JUMPDEST PUSH1 0x80 DUP6 ADD MSTORE PUSH2 0x16D PUSH1 0x5 DUP3 ADD PUSH2 0x2145 JUMP JUMPDEST PUSH1 0xA0 DUP6 ADD MSTORE PUSH2 0x17E PUSH1 0x6 DUP3 ADD PUSH2 0x2145 JUMP JUMPDEST PUSH1 0xC0 DUP6 ADD MSTORE PUSH2 0x18F PUSH1 0x7 DUP3 ADD PUSH2 0x2145 JUMP JUMPDEST PUSH1 0xE0 DUP6 ADD MSTORE PUSH2 0x1A0 PUSH1 0x8 DUP3 ADD PUSH2 0x2145 JUMP JUMPDEST PUSH2 0x100 DUP6 ADD MSTORE PUSH2 0x1B2 PUSH1 0x9 DUP3 ADD PUSH2 0x2145 JUMP JUMPDEST PUSH2 0x120 DUP6 ADD MSTORE PUSH2 0x1C4 PUSH1 0xA DUP3 ADD PUSH2 0x2145 JUMP JUMPDEST PUSH2 0x140 DUP6 ADD MSTORE PUSH2 0x1D6 PUSH1 0xB DUP3 ADD PUSH2 0x2145 JUMP JUMPDEST PUSH2 0x160 DUP6 ADD MSTORE PUSH2 0x1E8 PUSH1 0xC DUP3 ADD PUSH2 0x2145 JUMP JUMPDEST PUSH2 0x180 DUP6 ADD MSTORE PUSH2 0x1FA PUSH1 0xD DUP3 ADD PUSH2 0x2145 JUMP JUMPDEST PUSH2 0x1A0 DUP6 ADD MSTORE PUSH2 0x20C PUSH1 0xE DUP3 ADD PUSH2 0x2145 JUMP JUMPDEST PUSH2 0x1C0 DUP6 ADD MSTORE ADD PUSH2 0x2145 JUMP JUMPDEST PUSH2 0x1E0 DUP3 ADD MSTORE PUSH2 0x3C7 DUP2 PUSH2 0x1E0 PUSH2 0x3B2 PUSH2 0x39C PUSH2 0x384 PUSH2 0x36C PUSH2 0x354 PUSH2 0x33C PUSH2 0x324 PUSH2 0x30C PUSH2 0x2F5 PUSH1 0x40 MLOAD SWAP14 DUP15 SWAP14 DUP15 PUSH1 0x20 DUP2 MSTORE PUSH1 0xA0 PUSH2 0x2C8 PUSH2 0x2B3 PUSH2 0x29D PUSH2 0x287 PUSH2 0x271 DUP8 MLOAD PUSH2 0x200 PUSH1 0x20 DUP10 ADD MSTORE PUSH2 0x220 DUP9 ADD SWAP1 PUSH2 0x21EB JUMP JUMPDEST PUSH1 0x20 DUP9 ADD MLOAD DUP8 DUP3 SUB PUSH1 0x1F NOT ADD PUSH1 0x40 DUP10 ADD MSTORE PUSH2 0x21EB JUMP JUMPDEST PUSH1 0x40 DUP8 ADD MLOAD DUP7 DUP3 SUB PUSH1 0x1F NOT ADD PUSH1 0x60 DUP9 ADD MSTORE PUSH2 0x21EB JUMP JUMPDEST PUSH1 0x60 DUP7 ADD MLOAD DUP6 DUP3 SUB PUSH1 0x1F NOT ADD PUSH1 0x80 DUP8 ADD MSTORE PUSH2 0x21EB JUMP JUMPDEST PUSH1 0x80 DUP6 ADD MLOAD DUP5 DUP3 SUB PUSH1 0x1F NOT ADD DUP5 DUP7 ADD MSTORE PUSH2 0x21EB JUMP JUMPDEST SWAP3 ADD MLOAD SWAP1 PUSH1 0xC0 PUSH1 0x1F NOT DUP3 DUP6 SUB ADD SWAP2 ADD MSTORE PUSH2 0x21EB JUMP JUMPDEST DUP14 PUSH1 0xC0 DUP14 ADD MLOAD SWAP1 PUSH1 0xE0 PUSH1 0x1F NOT DUP3 DUP6 SUB ADD SWAP2 ADD MSTORE PUSH2 0x21EB JUMP JUMPDEST PUSH1 0xE0 DUP12 ADD MLOAD DUP14 DUP3 SUB PUSH1 0x1F NOT ADD PUSH2 0x100 DUP16 ADD MSTORE PUSH2 0x21EB JUMP JUMPDEST PUSH2 0x100 DUP11 ADD MLOAD DUP13 DUP3 SUB PUSH1 0x1F NOT ADD PUSH2 0x120 DUP15 ADD MSTORE PUSH2 0x21EB JUMP JUMPDEST PUSH2 0x120 DUP10 ADD MLOAD DUP12 DUP3 SUB PUSH1 0x1F NOT ADD PUSH2 0x140 DUP14 ADD MSTORE PUSH2 0x21EB JUMP JUMPDEST PUSH2 0x140 DUP9 ADD MLOAD DUP11 DUP3 SUB PUSH1 0x1F NOT ADD PUSH2 0x160 DUP13 ADD MSTORE PUSH2 0x21EB JUMP JUMPDEST PUSH2 0x160 DUP8 ADD MLOAD DUP10 DUP3 SUB PUSH1 0x1F NOT ADD PUSH2 0x180 DUP12 ADD MSTORE PUSH2 0x21EB JUMP JUMPDEST PUSH2 0x180 DUP7 ADD MLOAD DUP9 DUP3 SUB PUSH1 0x1F NOT ADD PUSH2 0x1A0 DUP11 ADD MSTORE PUSH2 0x21EB JUMP JUMPDEST PUSH2 0x1A0 DUP6 ADD MLOAD DUP8 DUP3 SUB PUSH1 0x1F NOT ADD PUSH2 0x1C0 DUP10 ADD MSTORE PUSH2 0x21EB JUMP JUMPDEST PUSH2 0x1C0 DUP5 ADD MLOAD DUP7 DUP3 SUB PUSH1 0x1F NOT ADD DUP5 DUP9 ADD MSTORE PUSH2 0x21EB JUMP JUMPDEST SWAP2 ADD MLOAD DUP4 DUP3 SUB PUSH1 0x1F NOT ADD PUSH2 0x200 DUP6 ADD MSTORE PUSH2 0x21EB JUMP JUMPDEST SUB SWAP1 RETURN JUMPDEST PUSH1 0x0 DUP1 REVERT JUMPDEST CALLVALUE PUSH2 0x3CB JUMPI PUSH1 0x0 CALLDATASIZE PUSH1 0x3 NOT ADD SLT PUSH2 0x3CB JUMPI PUSH1 0x20 PUSH1 0x2 SLOAD PUSH1 0x40 MLOAD SWAP1 DUP2 MSTORE RETURN JUMPDEST CALLVALUE PUSH2 0x3CB JUMPI PUSH2 0x220 CALLDATASIZE PUSH1 0x3 NOT ADD SLT PUSH2 0x3CB JUMPI PUSH2 0x408 PUSH2 0x20B8 JUMP JUMPDEST PUSH1 0xC0 MSTORE PUSH1 0x24 CALLDATALOAD PUSH1 0x1 PUSH1 0x1 PUSH1 0x40 SHL SUB DUP2 GT PUSH2 0x3CB JUMPI PUSH2 0x42A SWAP1 CALLDATASIZE SWAP1 PUSH1 0x4 ADD PUSH2 0x222B JUMP JUMPDEST PUSH2 0x220 MSTORE PUSH2 0x200 MSTORE PUSH1 0x44 CALLDATALOAD PUSH1 0x1 PUSH1 0x1 PUSH1 0x40 SHL SUB DUP2 GT PUSH2 0x3CB JUMPI PUSH2 0x451 SWAP1 CALLDATASIZE SWAP1 PUSH1 0x4 ADD PUSH2 0x222B JUMP JUMPDEST PUSH2 0x1A0 MSTORE PUSH1 0xA0 MSTORE PUSH1 0x64 CALLDATALOAD PUSH1 0x1 PUSH1 0x1 PUSH1 0x40 SHL SUB DUP2 GT PUSH2 0x3CB JUMPI PUSH2 0x477 SWAP1 CALLDATASIZE SWAP1 PUSH1 0x4 ADD PUSH2 0x222B JUMP JUMPDEST PUSH2 0x420 MSTORE PUSH2 0x120 MSTORE PUSH1 0x84 CALLDATALOAD PUSH1 0x1 PUSH1 0x1 PUSH1 0x40 SHL SUB DUP2 GT PUSH2 0x3CB JUMPI PUSH2 0x49E SWAP1 CALLDATASIZE SWAP1 PUSH1 0x4 ADD PUSH2 0x222B JUMP JUMPDEST PUSH2 0x340 MSTORE PUSH2 0x400 MSTORE PUSH1 0xA4 CALLDATALOAD PUSH1 0x1 PUSH1 0x1 PUSH1 0x40 SHL SUB DUP2 GT PUSH2 0x3CB JUMPI PUSH2 0x4C5 SWAP1 CALLDATASIZE SWAP1 PUSH1 0x4 ADD PUSH2 0x222B JUMP JUMPDEST PUSH2 0x3A0 MSTORE PUSH2 0x160 MSTORE PUSH1 0x1 PUSH1 0x1 PUSH1 0x40 SHL SUB PUSH1 0xC4 CALLDATALOAD GT PUSH2 0x3CB JUMPI PUSH2 0x4EC CALLDATASIZE PUSH1 0xC4 CALLDATALOAD PUSH1 0x4 ADD PUSH2 0x222B JUMP JUMPDEST PUSH2 0x4C0 MSTORE PUSH2 0x300 MSTORE PUSH1 0xE4 CALLDATALOAD PUSH1 0x1 PUSH1 0x1 PUSH1 0x40 SHL SUB DUP2 GT PUSH2 0x3CB JUMPI PUSH2 0x513 SWAP1 CALLDATASIZE SWAP1 PUSH1 0x4 ADD PUSH2 0x222B JUMP JUMPDEST PUSH2 0x260 MSTORE PUSH2 0x460 MSTORE PUSH1 0x1 PUSH1 0x1 PUSH1 0x40 SHL SUB PUSH2 0x104 CALLDATALOAD GT PUSH2 0x3CB JUMPI PUSH2 0x53C CALLDATASIZE PUSH2 0x104 CALLDATALOAD PUSH1 0x4 ADD PUSH2 0x222B JUMP JUMPDEST PUSH2 0x380 MSTORE PUSH2 0x2C0 MSTORE PUSH1 0x1 PUSH1 0x1 PUSH1 0x40 SHL SUB PUSH2 0x124 CALLDATALOAD GT PUSH2 0x3CB JUMPI PUSH2 0x565 CALLDATASIZE PUSH2 0x124 CALLDATALOAD PUSH1 0x4 ADD PUSH2 0x222B JUMP JUMPDEST PUSH2 0x240 MSTORE PUSH2 0x480 MSTORE PUSH2 0x144 CALLDATALOAD PUSH1 0x1 PUSH1 0x1 PUSH1 0x40 SHL SUB DUP2 GT PUSH2 0x3CB JUMPI PUSH2 0x58D SWAP1 CALLDATASIZE SWAP1 PUSH1 0x4 ADD PUSH2 0x222B JUMP JUMPDEST PUSH2 0x1E0 MSTORE PUSH2 0x140 MSTORE PUSH2 0x164 CALLDATALOAD PUSH1 0x1 PUSH1 0x1 PUSH1 0x40 SHL SUB DUP2 GT PUSH2 0x3CB JUMPI PUSH2 0x5B5 SWAP1 CALLDATASIZE SWAP1 PUSH1 0x4 ADD PUSH2 0x222B JUMP JUMPDEST PUSH2 0x1C0 MSTORE PUSH2 0x4E0 MSTORE PUSH2 0x184 CALLDATALOAD PUSH1 0x1 PUSH1 0x1 PUSH1 0x40 SHL SUB DUP2 GT PUSH2 0x3CB JUMPI PUSH2 0x5DD SWAP1 CALLDATASIZE SWAP1 PUSH1 0x4 ADD PUSH2 0x222B JUMP JUMPDEST PUSH2 0x3E0 MSTORE PUSH2 0x3C0 MSTORE PUSH2 0x1A4 CALLDATALOAD PUSH1 0x1 PUSH1 0x1 PUSH1 0x40 SHL SUB DUP2 GT PUSH2 0x3CB JUMPI PUSH2 0x605 SWAP1 CALLDATASIZE SWAP1 PUSH1 0x4 ADD PUSH2 0x222B JUMP JUMPDEST PUSH2 0x4A0 MSTORE PUSH2 0x2A0 MSTORE PUSH2 0x1C4 CALLDATALOAD PUSH1 0x1 PUSH1 0x1 PUSH1 0x40 SHL SUB DUP2 GT PUSH2 0x3CB JUMPI PUSH2 0x62D SWAP1 CALLDATASIZE SWAP1 PUSH1 0x4 ADD PUSH2 0x222B JUMP JUMPDEST PUSH2 0x280 MSTORE PUSH2 0x180 MSTORE PUSH2 0x1E4 CALLDATALOAD PUSH1 0x1 PUSH1 0x1 PUSH1 0x40 SHL SUB DUP2 GT PUSH2 0x3CB JUMPI PUSH2 0x655 SWAP1 CALLDATASIZE SWAP1 PUSH1 0x4 ADD PUSH2 0x222B JUMP JUMPDEST PUSH2 0x360 MSTORE PUSH2 0x2E0 MSTORE PUSH2 0x204 CALLDATALOAD PUSH1 0x1 PUSH1 0x1 PUSH1 0x40 SHL SUB DUP2 GT PUSH2 0x3CB JUMPI PUSH2 0x67D SWAP1 CALLDATASIZE SWAP1 PUSH1 0x4 ADD PUSH2 0x222B JUMP JUMPDEST PUSH2 0x440 MSTORE PUSH2 0x100 MSTORE PUSH1 0x0 SLOAD PUSH1 0x1 PUSH1 0x1 PUSH1 0xA0 SHL SUB AND CALLER SUB PUSH2 0x1D7D JUMPI PUSH2 0x6A6 PUSH1 0x40 MLOAD DUP1 PUSH1 0xE0 MSTORE PUSH2 0x2108 JUMP JUMPDEST PUSH2 0x6B7 CALLDATASIZE PUSH2 0x220 MLOAD PUSH2 0x200 MLOAD PUSH2 0x2258 JUMP JUMPDEST PUSH1 0xE0 MLOAD MSTORE PUSH2 0x6CB CALLDATASIZE PUSH2 0x1A0 MLOAD PUSH1 0xA0 MLOAD PUSH2 0x2258 JUMP JUMPDEST PUSH1 0x20 PUSH1 0xE0 MLOAD ADD MSTORE PUSH2 0x6E3 CALLDATASIZE PUSH2 0x420 MLOAD PUSH2 0x120 MLOAD PUSH2 0x2258 JUMP JUMPDEST PUSH1 0x40 PUSH1 0xE0 MLOAD ADD MSTORE PUSH2 0x6FB CALLDATASIZE PUSH2 0x340 MLOAD PUSH2 0x400 MLOAD PUSH2 0x2258 JUMP JUMPDEST PUSH1 0x60 PUSH1 0xE0 MLOAD ADD MSTORE PUSH2 0x713 CALLDATASIZE PUSH2 0x3A0 MLOAD PUSH2 0x160 MLOAD PUSH2 0x2258 JUMP JUMPDEST PUSH1 0x80 PUSH1 0xE0 MLOAD ADD MSTORE PUSH2 0x72B CALLDATASIZE PUSH2 0x4C0 MLOAD PUSH2 0x300 MLOAD PUSH2 0x2258 JUMP JUMPDEST PUSH1 0xA0 PUSH1 0xE0 MLOAD ADD MSTORE PUSH2 0x743 CALLDATASIZE PUSH2 0x260 MLOAD PUSH2 0x460 MLOAD PUSH2 0x2258 JUMP JUMPDEST PUSH1 0xC0 PUSH1 0xE0 MLOAD ADD MSTORE PUSH2 0x75B CALLDATASIZE PUSH2 0x380 MLOAD PUSH2 0x2C0 MLOAD PUSH2 0x2258 JUMP JUMPDEST PUSH1 0xE0 DUP1 MLOAD ADD MSTORE PUSH2 0x772 CALLDATASIZE PUSH2 0x240 MLOAD PUSH2 0x480 MLOAD PUSH2 0x2258 JUMP JUMPDEST PUSH2 0x100 PUSH1 0xE0 MLOAD ADD MSTORE PUSH2 0x78B CALLDATASIZE PUSH2 0x1E0 MLOAD PUSH2 0x140 MLOAD PUSH2 0x2258 JUMP JUMPDEST PUSH2 0x120 PUSH1 0xE0 MLOAD ADD MSTORE PUSH2 0x7A4 CALLDATASIZE PUSH2 0x1C0 MLOAD PUSH2 0x4E0 MLOAD PUSH2 0x2258 JUMP JUMPDEST PUSH2 0x140 PUSH1 0xE0 MLOAD ADD MSTORE PUSH2 0x7BD CALLDATASIZE PUSH2 0x3E0 MLOAD PUSH2 0x3C0 MLOAD PUSH2 0x2258 JUMP JUMPDEST PUSH2 0x160 PUSH1 0xE0 MLOAD ADD MSTORE PUSH2 0x7D6 CALLDATASIZE PUSH2 0x4A0 MLOAD PUSH2 0x2A0 MLOAD PUSH2 0x2258 JUMP JUMPDEST PUSH2 0x180 PUSH1 0xE0 MLOAD ADD MSTORE PUSH2 0x7EF CALLDATASIZE PUSH2 0x280 MLOAD PUSH2 0x180 MLOAD PUSH2 0x2258 JUMP JUMPDEST PUSH2 0x1A0 PUSH1 0xE0 MLOAD ADD MSTORE PUSH2 0x808 CALLDATASIZE PUSH2 0x360 MLOAD PUSH2 0x2E0 MLOAD PUSH2 0x2258 JUMP JUMPDEST PUSH2 0x1C0 PUSH1 0xE0 MLOAD ADD MSTORE PUSH2 0x821 CALLDATASIZE PUSH2 0x440 MLOAD PUSH2 0x100 MLOAD PUSH2 0x2258 JUMP JUMPDEST PUSH2 0x1E0 PUSH1 0xE0 MLOAD ADD MSTORE PUSH1 0x1 DUP1 PUSH1 0xA0 SHL SUB PUSH1 0xC0 MLOAD AND PUSH1 0x0 MSTORE PUSH1 0x1 PUSH1 0x20 MSTORE PUSH1 0x40 PUSH1 0x0 KECCAK256 PUSH1 0xE0 MLOAD MLOAD DUP1 MLOAD SWAP1 PUSH1 0x1 PUSH1 0x1 PUSH1 0x40 SHL SUB DUP3 GT PUSH2 0x1080 JUMPI DUP2 SWAP1 PUSH2 0x862 DUP5 SLOAD PUSH2 0x20CE JUMP JUMPDEST PUSH1 0x1F DUP2 GT PUSH2 0x1D2D JUMPI JUMPDEST POP PUSH1 0x20 SWAP1 PUSH1 0x1F DUP4 GT PUSH1 0x1 EQ PUSH2 0x1CC1 JUMPI PUSH1 0x0 SWAP3 PUSH2 0x1CB6 JUMPI JUMPDEST POP POP DUP2 PUSH1 0x1 SHL SWAP2 PUSH1 0x0 NOT SWAP1 PUSH1 0x3 SHL SHR NOT AND OR DUP2 SSTORE JUMPDEST PUSH1 0x20 PUSH1 0xE0 MLOAD ADD MLOAD DUP1 MLOAD SWAP1 PUSH1 0x1 PUSH1 0x1 PUSH1 0x40 SHL SUB DUP3 GT PUSH2 0x1080 JUMPI DUP2 SWAP1 PUSH2 0x8BE PUSH1 0x1 DUP6 ADD SLOAD PUSH2 0x20CE JUMP JUMPDEST PUSH1 0x1F DUP2 GT PUSH2 0x1C63 JUMPI JUMPDEST POP PUSH1 0x20 SWAP1 PUSH1 0x1F DUP4 GT PUSH1 0x1 EQ PUSH2 0x1BF1 JUMPI PUSH1 0x0 SWAP3 PUSH2 0x1BE6 JUMPI JUMPDEST POP POP DUP2 PUSH1 0x1 SHL SWAP2 PUSH1 0x0 NOT SWAP1 PUSH1 0x3 SHL SHR NOT AND OR PUSH1 0x1 DUP3 ADD SSTORE JUMPDEST PUSH1 0x40 PUSH1 0xE0 MLOAD ADD MLOAD DUP1 MLOAD SWAP1 PUSH1 0x1 PUSH1 0x1 PUSH1 0x40 SHL SUB DUP3 GT PUSH2 0x1080 JUMPI DUP2 SWAP1 PUSH2 0x91D PUSH1 0x2 DUP6 ADD SLOAD PUSH2 0x20CE JUMP JUMPDEST PUSH1 0x1F DUP2 GT PUSH2 0x1B93 JUMPI JUMPDEST POP PUSH1 0x20 SWAP1 PUSH1 0x1F DUP4 GT PUSH1 0x1 EQ PUSH2 0x1B21 JUMPI PUSH1 0x0 SWAP3 PUSH2 0x1B16 JUMPI JUMPDEST POP POP DUP2 PUSH1 0x1 SHL SWAP2 PUSH1 0x0 NOT SWAP1 PUSH1 0x3 SHL SHR NOT AND OR PUSH1 0x2 DUP3 ADD SSTORE JUMPDEST PUSH1 0x60 PUSH1 0xE0 MLOAD ADD MLOAD DUP1 MLOAD SWAP1 PUSH1 0x1 PUSH1 0x1 PUSH1 0x40 SHL SUB DUP3 GT PUSH2 0x1080 JUMPI DUP2 SWAP1 PUSH2 0x97C PUSH1 0x3 DUP6 ADD SLOAD PUSH2 0x20CE JUMP JUMPDEST PUSH1 0x1F DUP2 GT PUSH2 0x1AC3 JUMPI JUMPDEST POP PUSH1 0x20 SWAP1 PUSH1 0x1F DUP4 GT PUSH1 0x1 EQ PUSH2 0x1A51 JUMPI PUSH1 0x0 SWAP3 PUSH2 0x1A46 JUMPI JUMPDEST POP POP DUP2 PUSH1 0x1 SHL SWAP2 PUSH1 0x0 NOT SWAP1 PUSH1 0x3 SHL SHR NOT AND OR PUSH1 0x3 DUP3 ADD SSTORE JUMPDEST PUSH1 0x80 PUSH1 0xE0 MLOAD ADD MLOAD DUP1 MLOAD SWAP1 PUSH1 0x1 PUSH1 0x1 PUSH1 0x40 SHL SUB DUP3 GT PUSH2 0x1080 JUMPI DUP2 SWAP1 PUSH2 0x9DB PUSH1 0x4 DUP6 ADD SLOAD PUSH2 0x20CE JUMP JUMPDEST PUSH1 0x1F DUP2 GT PUSH2 0x19F3 JUMPI JUMPDEST POP PUSH1 0x20 SWAP1 PUSH1 0x1F DUP4 GT PUSH1 0x1 EQ PUSH2 0x1981 JUMPI PUSH1 0x0 SWAP3 PUSH2 0x1976 JUMPI JUMPDEST POP POP DUP2 PUSH1 0x1 SHL SWAP2 PUSH1 0x0 NOT SWAP1 PUSH1 0x3 SHL SHR NOT AND OR PUSH1 0x4 DUP3 ADD SSTORE JUMPDEST PUSH1 0xA0 PUSH1 0xE0 MLOAD ADD MLOAD DUP1 MLOAD SWAP1 PUSH1 0x1 PUSH1 0x1 PUSH1 0x40 SHL SUB DUP3 GT PUSH2 0x1080 JUMPI DUP2 SWAP1 PUSH2 0xA3A PUSH1 0x5 DUP6 ADD SLOAD PUSH2 0x20CE JUMP JUMPDEST PUSH1 0x1F DUP2 GT PUSH2 0x1923 JUMPI JUMPDEST POP PUSH1 0x20 SWAP1 PUSH1 0x1F DUP4 GT PUSH1 0x1 EQ PUSH2 0x18B1 JUMPI PUSH1 0x0 SWAP3 PUSH2 0x18A6 JUMPI JUMPDEST POP POP DUP2 PUSH1 0x1 SHL SWAP2 PUSH1 0x0 NOT SWAP1 PUSH1 0x3 SHL SHR NOT AND OR PUSH1 0x5 DUP3 ADD SSTORE JUMPDEST PUSH1 0xC0 PUSH1 0xE0 MLOAD ADD MLOAD DUP1 MLOAD SWAP1 PUSH1 0x1 PUSH1 0x1 PUSH1 0x40 SHL SUB DUP3 GT PUSH2 0x1080 JUMPI DUP2 SWAP1 PUSH2 0xA99 PUSH1 0x6 DUP6 ADD SLOAD PUSH2 0x20CE JUMP JUMPDEST PUSH1 0x1F DUP2 GT PUSH2 0x1853 JUMPI JUMPDEST POP PUSH1 0x20 SWAP1 PUSH1 0x1F DUP4 GT PUSH1 0x1 EQ PUSH2 0x17E1 JUMPI PUSH1 0x0 SWAP3 PUSH2 0x17D6 JUMPI JUMPDEST POP POP DUP2 PUSH1 0x1 SHL SWAP2 PUSH1 0x0 NOT SWAP1 PUSH1 0x3 SHL SHR NOT AND OR PUSH1 0x6 DUP3 ADD SSTORE JUMPDEST PUSH1 0xE0 DUP1 MLOAD ADD MLOAD DUP1 MLOAD SWAP1 PUSH1 0x1 PUSH1 0x1 PUSH1 0x40 SHL SUB DUP3 GT PUSH2 0x1080 JUMPI DUP2 SWAP1 PUSH2 0xAF7 PUSH1 0x7 DUP6 ADD SLOAD PUSH2 0x20CE JUMP JUMPDEST PUSH1 0x1F DUP2 GT PUSH2 0x1783 JUMPI JUMPDEST POP PUSH1 0x20 SWAP1 PUSH1 0x1F DUP4 GT PUSH1 0x1 EQ PUSH2 0x1711 JUMPI PUSH1 0x0 SWAP3 PUSH2 0x1706 JUMPI JUMPDEST POP POP DUP2 PUSH1 0x1 SHL SWAP2 PUSH1 0x0 NOT SWAP1 PUSH1 0x3 SHL SHR NOT AND OR PUSH1 0x7 DUP3 ADD SSTORE JUMPDEST PUSH2 0x100 PUSH1 0xE0 MLOAD ADD MLOAD DUP1 MLOAD SWAP1 PUSH1 0x1 PUSH1 0x1 PUSH1 0x40 SHL SUB DUP3 GT PUSH2 0x1080 JUMPI DUP2 SWAP1 PUSH2 0xB57 PUSH1 0x8 DUP6 ADD SLOAD PUSH2 0x20CE JUMP JUMPDEST PUSH1 0x1F DUP2 GT PUSH2 0x16B3 JUMPI JUMPDEST POP PUSH1 0x20 SWAP1 PUSH1 0x1F DUP4 GT PUSH1 0x1 EQ PUSH2 0x1641 JUMPI PUSH1 0x0 SWAP3 PUSH2 0x1636 JUMPI JUMPDEST POP POP DUP2 PUSH1 0x1 SHL SWAP2 PUSH1 0x0 NOT SWAP1 PUSH1 0x3 SHL SHR NOT AND OR PUSH1 0x8 DUP3 ADD SSTORE JUMPDEST PUSH2 0x120 PUSH1 0xE0 MLOAD ADD MLOAD DUP1 MLOAD SWAP1 PUSH1 0x1 PUSH1 0x1 PUSH1 0x40 SHL SUB DUP3 GT PUSH2 0x1080 JUMPI DUP2 SWAP1 PUSH2 0xBB7 PUSH1 0x9 DUP6 ADD SLOAD PUSH2 0x20CE JUMP JUMPDEST PUSH1 0x1F DUP2 GT PUSH2 0x15E3 JUMPI JUMPDEST POP PUSH1 0x20 SWAP1 PUSH1 0x1F DUP4 GT PUSH1 0x1 EQ PUSH2 0x1571 JUMPI PUSH1 0x0 SWAP3 PUSH2 0x1566 JUMPI JUMPDEST POP POP DUP2 PUSH1 0x1 SHL SWAP2 PUSH1 0x0 NOT SWAP1 PUSH1 0x3 SHL SHR NOT AND OR PUSH1 0x9 DUP3 ADD SSTORE JUMPDEST PUSH2 0x140 PUSH1 0xE0 MLOAD ADD MLOAD DUP1 MLOAD SWAP1 PUSH1 0x1 PUSH1 0x1 PUSH1 0x40 SHL SUB DUP3 GT PUSH2 0x1080 JUMPI DUP2 SWAP1 PUSH2 0xC17 PUSH1 0xA DUP6 ADD SLOAD PUSH2 0x20CE JUMP JUMPDEST PUSH1 0x1F DUP2 GT PUSH2 0x1513 JUMPI JUMPDEST POP PUSH1 0x20 SWAP1 PUSH1 0x1F DUP4 GT PUSH1 0x1 EQ PUSH2 0x14A1 JUMPI PUSH1 0x0 SWAP3 PUSH2 0x1496 JUMPI JUMPDEST POP POP DUP2 PUSH1 0x1 SHL SWAP2 PUSH1 0x0 NOT SWAP1 PUSH1 0x3 SHL SHR NOT AND OR PUSH1 0xA DUP3 ADD SSTORE JUMPDEST PUSH2 0x160 PUSH1 0xE0 MLOAD ADD MLOAD DUP1 MLOAD SWAP1 PUSH1 0x1 PUSH1 0x1 PUSH1 0x40 SHL SUB DUP3 GT PUSH2 0x1080 JUMPI DUP2 SWAP1 PUSH2 0xC77 PUSH1 0xB DUP6 ADD SLOAD PUSH2 0x20CE JUMP JUMPDEST PUSH1 0x1F DUP2 GT PUSH2 0x1443 JUMPI JUMPDEST POP PUSH1 0x20 SWAP1 PUSH1 0x1F DUP4 GT PUSH1 0x1 EQ PUSH2 0x13D1 JUMPI PUSH1 0x0 SWAP3 PUSH2 0x13C6 JUMPI JUMPDEST POP POP DUP2 PUSH1 0x1 SHL SWAP2 PUSH1 0x0 NOT SWAP1 PUSH1 0x3 SHL SHR NOT AND OR PUSH1 0xB DUP3 ADD SSTORE JUMPDEST PUSH2 0x180 PUSH1 0xE0 MLOAD ADD MLOAD DUP1 MLOAD SWAP1 PUSH1 0x1 PUSH1 0x1 PUSH1 0x40 SHL SUB DUP3 GT PUSH2 0x1080 JUMPI DUP2 SWAP1 PUSH2 0xCD7 PUSH1 0xC DUP6 ADD SLOAD PUSH2 0x20CE JUMP JUMPDEST PUSH1 0x1F DUP2 GT PUSH2 0x1373 JUMPI JUMPDEST POP PUSH1 0x20 SWAP1 PUSH1 0x1F DUP4 GT PUSH1 0x1 EQ PUSH2 0x1301 JUMPI PUSH1 0x0 SWAP3 PUSH2 0x12F6 JUMPI JUMPDEST POP POP DUP2 PUSH1 0x1 SHL SWAP2 PUSH1 0x0 NOT SWAP1 PUSH1 0x3 SHL SHR NOT AND OR PUSH1 0xC DUP3 ADD SSTORE JUMPDEST PUSH2 0x1A0 PUSH1 0xE0 MLOAD ADD MLOAD DUP1 MLOAD SWAP1 PUSH1 0x1 PUSH1 0x1 PUSH1 0x40 SHL SUB DUP3 GT PUSH2 0x1080 JUMPI DUP2 SWAP1 PUSH2 0xD37 PUSH1 0xD DUP6 ADD SLOAD PUSH2 0x20CE JUMP JUMPDEST PUSH1 0x1F DUP2 GT PUSH2 0x12A3 JUMPI JUMPDEST POP PUSH1 0x20 SWAP1 PUSH1 0x1F DUP4 GT PUSH1 0x1 EQ PUSH2 0x1231 JUMPI PUSH1 0x0 SWAP3 PUSH2 0x1226 JUMPI JUMPDEST POP POP DUP2 PUSH1 0x1 SHL SWAP2 PUSH1 0x0 NOT SWAP1 PUSH1 0x3 SHL SHR NOT AND OR PUSH1 0xD DUP3 ADD SSTORE JUMPDEST PUSH2 0x1C0 PUSH1 0xE0 MLOAD ADD MLOAD DUP1 MLOAD SWAP1 PUSH1 0x1 PUSH1 0x1 PUSH1 0x40 SHL SUB DUP3 GT PUSH2 0x1080 JUMPI DUP2 SWAP1 PUSH2 0xD97 PUSH1 0xE DUP6 ADD SLOAD PUSH2 0x20CE JUMP JUMPDEST PUSH1 0x1F DUP2 GT PUSH2 0x11D3 JUMPI JUMPDEST POP PUSH1 0x20 SWAP1 PUSH1 0x1F DUP4 GT PUSH1 0x1 EQ PUSH2 0x1161 JUMPI PUSH1 0x0 SWAP3 PUSH2 0x1156 JUMPI JUMPDEST POP POP DUP2 PUSH1 0x1 SHL SWAP2 PUSH1 0x0 NOT SWAP1 PUSH1 0x3 SHL SHR NOT AND OR PUSH1 0xE DUP3 ADD SSTORE JUMPDEST PUSH2 0x1E0 PUSH1 0xE0 MLOAD ADD MLOAD DUP1 MLOAD SWAP1 PUSH1 0x1 PUSH1 0x1 PUSH1 0x40 SHL SUB DUP3 GT PUSH2 0x1080 JUMPI PUSH2 0xDF5 PUSH1 0xF DUP5 ADD SLOAD PUSH2 0x20CE JUMP JUMPDEST PUSH1 0x1F DUP2 GT PUSH2 0x110F JUMPI JUMPDEST POP PUSH1 0x20 SWAP1 PUSH1 0x1F DUP4 GT PUSH1 0x1 EQ PUSH2 0x10A1 JUMPI PUSH1 0xF SWAP3 SWAP2 PUSH1 0x0 SWAP2 DUP4 PUSH2 0x1096 JUMPI JUMPDEST POP POP DUP2 PUSH1 0x1 SHL SWAP2 PUSH1 0x0 NOT SWAP1 PUSH1 0x3 SHL SHR NOT AND OR SWAP2 ADD SSTORE JUMPDEST PUSH1 0x2 SLOAD PUSH9 0x10000000000000000 DUP2 LT ISZERO PUSH2 0x1080 JUMPI DUP1 PUSH1 0x1 PUSH2 0xE54 SWAP3 ADD PUSH1 0x2 SSTORE PUSH2 0x206B JUMP JUMPDEST DUP2 SLOAD SWAP1 PUSH1 0x3 SHL SWAP1 PUSH1 0x1 DUP1 PUSH1 0xA0 SHL SUB PUSH1 0xC0 MLOAD AND DUP3 SHL SWAP2 PUSH1 0x1 DUP1 PUSH1 0xA0 SHL SUB SWAP1 SHL NOT AND OR SWAP1 SSTORE PUSH2 0x200 PUSH1 0x40 MLOAD DUP1 PUSH2 0x320 MSTORE MSTORE PUSH2 0x1029 PUSH2 0x100F PUSH2 0xFF5 PUSH2 0xFDB PUSH2 0xFC1 PUSH2 0xFA7 PUSH2 0xF8D PUSH2 0xF73 PUSH2 0xF5A PUSH2 0xF41 PUSH2 0xF28 PUSH2 0xF0F PUSH2 0xEF6 PUSH2 0xEDD PUSH2 0xEC5 PUSH2 0x200 PUSH2 0x320 MLOAD ADD PUSH2 0x220 MLOAD PUSH2 0x200 MLOAD PUSH2 0x229E JUMP JUMPDEST PUSH2 0x320 MLOAD PUSH1 0x20 DUP2 DUP4 SUB SWAP2 ADD MSTORE PUSH2 0x1A0 MLOAD PUSH1 0xA0 MLOAD PUSH2 0x229E JUMP JUMPDEST PUSH2 0x320 MLOAD PUSH1 0x40 DUP2 DUP4 SUB SWAP2 ADD MSTORE PUSH2 0x420 MLOAD PUSH2 0x120 MLOAD PUSH2 0x229E JUMP JUMPDEST PUSH2 0x320 MLOAD PUSH1 0x60 DUP2 DUP4 SUB SWAP2 ADD MSTORE PUSH2 0x340 MLOAD PUSH2 0x400 MLOAD PUSH2 0x229E JUMP JUMPDEST PUSH2 0x320 MLOAD PUSH1 0x80 DUP2 DUP4 SUB SWAP2 ADD MSTORE PUSH2 0x3A0 MLOAD PUSH2 0x160 MLOAD PUSH2 0x229E JUMP JUMPDEST PUSH2 0x320 MLOAD PUSH1 0xA0 DUP2 DUP4 SUB SWAP2 ADD MSTORE PUSH2 0x4C0 MLOAD PUSH2 0x300 MLOAD PUSH2 0x229E JUMP JUMPDEST PUSH2 0x320 MLOAD PUSH1 0xC0 DUP2 DUP4 SUB SWAP2 ADD MSTORE PUSH2 0x260 MLOAD PUSH2 0x460 MLOAD PUSH2 0x229E JUMP JUMPDEST PUSH2 0x320 MLOAD PUSH1 0xE0 DUP2 DUP4 SUB SWAP2 ADD MSTORE PUSH2 0x380 MLOAD PUSH2 0x2C0 MLOAD PUSH2 0x229E JUMP JUMPDEST PUSH2 0x320 MLOAD PUSH2 0x100 DUP2 DUP4 SUB SWAP2 ADD MSTORE PUSH2 0x240 MLOAD PUSH2 0x480 MLOAD PUSH2 0x229E JUMP JUMPDEST PUSH2 0x320 MLOAD PUSH2 0x120 DUP2 DUP4 SUB SWAP2 ADD MSTORE PUSH2 0x1E0 MLOAD PUSH2 0x140 MLOAD PUSH2 0x229E JUMP JUMPDEST PUSH2 0x320 MLOAD PUSH2 0x140 DUP2 DUP4 SUB SWAP2 ADD MSTORE PUSH2 0x1C0 MLOAD PUSH2 0x4E0 MLOAD PUSH2 0x229E JUMP JUMPDEST PUSH2 0x320 MLOAD PUSH2 0x160 DUP2 DUP4 SUB SWAP2 ADD MSTORE PUSH2 0x3E0 MLOAD PUSH2 0x3C0 MLOAD PUSH2 0x229E JUMP JUMPDEST PUSH2 0x320 MLOAD PUSH2 0x180 DUP2 DUP4 SUB SWAP2 ADD MSTORE PUSH2 0x4A0 MLOAD PUSH2 0x2A0 MLOAD PUSH2 0x229E JUMP JUMPDEST PUSH2 0x320 MLOAD PUSH2 0x1A0 DUP2 DUP4 SUB SWAP2 ADD MSTORE PUSH2 0x280 MLOAD PUSH2 0x180 MLOAD PUSH2 0x229E JUMP JUMPDEST PUSH2 0x320 MLOAD PUSH2 0x1C0 DUP2 DUP4 SUB SWAP2 ADD MSTORE PUSH2 0x360 MLOAD PUSH2 0x2E0 MLOAD PUSH2 0x229E JUMP JUMPDEST PUSH2 0x320 MLOAD PUSH2 0x1E0 DUP2 DUP4 SUB SWAP2 ADD MSTORE PUSH32 0x500736EFB1406AE658A21C0632A10134C34AAA092C7B4A34B316626CF5430D9C PUSH1 0x1 DUP1 PUSH1 0xA0 SHL SUB PUSH1 0xC0 MLOAD AND SWAP2 PUSH2 0x1078 PUSH2 0x320 MLOAD SWAP2 PUSH2 0x440 MLOAD PUSH2 0x100 MLOAD PUSH2 0x229E JUMP JUMPDEST SUB PUSH2 0x320 MLOAD LOG2 STOP JUMPDEST PUSH4 0x4E487B71 PUSH1 0xE0 SHL PUSH1 0x0 MSTORE PUSH1 0x41 PUSH1 0x4 MSTORE PUSH1 0x24 PUSH1 0x0 REVERT JUMPDEST ADD MLOAD SWAP1 POP DUP5 DUP1 PUSH2 0xE1A JUMP JUMPDEST SWAP1 PUSH1 0xF DUP5 ADD PUSH1 0x0 MSTORE PUSH1 0x20 PUSH1 0x0 KECCAK256 SWAP2 PUSH1 0x0 PUSH1 0x1F NOT DUP6 AND SWAP1 JUMPDEST DUP2 DUP2 LT PUSH2 0x10F7 JUMPI POP SWAP2 PUSH1 0x1 SWAP4 SWAP2 DUP6 PUSH1 0xF SWAP7 SWAP5 LT PUSH2 0x10DE JUMPI JUMPDEST POP POP POP DUP2 SHL ADD SWAP2 ADD SSTORE PUSH2 0xE30 JUMP JUMPDEST ADD MLOAD PUSH1 0x0 NOT PUSH1 0xF8 DUP5 PUSH1 0x3 SHL AND SHR NOT AND SWAP1 SSTORE DUP5 DUP1 DUP1 PUSH2 0x10D0 JUMP JUMPDEST SWAP3 SWAP4 PUSH1 0x20 PUSH1 0x1 DUP2 SWAP3 DUP8 DUP7 ADD MLOAD DUP2 SSTORE ADD SWAP6 ADD SWAP4 ADD PUSH2 0x10B8 JUMP JUMPDEST PUSH1 0xF DUP5 ADD PUSH1 0x0 MSTORE PUSH1 0x20 PUSH1 0x0 KECCAK256 PUSH1 0x1F DUP5 ADD PUSH1 0x5 SHR DUP2 ADD PUSH1 0x20 DUP6 LT PUSH2 0x114F JUMPI JUMPDEST PUSH1 0x1F DUP4 ADD PUSH1 0x5 SHR DUP3 ADD DUP2 LT PUSH2 0x1143 JUMPI POP POP PUSH2 0xDFE JUMP JUMPDEST PUSH1 0x0 DUP2 SSTORE PUSH1 0x1 ADD PUSH2 0x112D JUMP JUMPDEST POP DUP1 PUSH2 0x112D JUMP JUMPDEST ADD MLOAD SWAP1 POP DUP4 DUP1 PUSH2 0xDB7 JUMP JUMPDEST SWAP3 POP PUSH1 0xE DUP5 ADD PUSH1 0x0 MSTORE PUSH1 0x20 PUSH1 0x0 KECCAK256 SWAP1 PUSH1 0x0 SWAP4 JUMPDEST PUSH1 0x1F NOT DUP5 AND DUP6 LT PUSH2 0x11B8 JUMPI PUSH1 0x1 SWAP5 POP DUP4 PUSH1 0x1F NOT DUP2 AND LT PUSH2 0x119F JUMPI JUMPDEST POP POP POP DUP2 SHL ADD PUSH1 0xE DUP3 ADD SSTORE PUSH2 0xDCF JUMP JUMPDEST ADD MLOAD PUSH1 0x0 NOT PUSH1 0xF8 DUP5 PUSH1 0x3 SHL AND SHR NOT AND SWAP1 SSTORE DUP4 DUP1 DUP1 PUSH2 0x118F JUMP JUMPDEST DUP2 DUP2 ADD MLOAD DUP4 SSTORE PUSH1 0x20 SWAP5 DUP6 ADD SWAP5 PUSH1 0x1 SWAP1 SWAP4 ADD SWAP3 SWAP1 SWAP2 ADD SWAP1 PUSH2 0x1174 JUMP JUMPDEST SWAP1 SWAP2 POP PUSH1 0xE DUP5 ADD PUSH1 0x0 MSTORE PUSH1 0x20 PUSH1 0x0 KECCAK256 PUSH1 0x1F DUP5 ADD PUSH1 0x5 SHR DUP2 ADD PUSH1 0x20 DUP6 LT PUSH2 0x121F JUMPI JUMPDEST SWAP1 DUP5 SWAP4 SWAP3 SWAP2 JUMPDEST PUSH1 0x1F DUP4 ADD PUSH1 0x5 SHR DUP3 ADD DUP2 LT PUSH2 0x1210 JUMPI POP POP PUSH2 0xDA0 JUMP JUMPDEST PUSH1 0x0 DUP2 SSTORE DUP6 SWAP5 POP PUSH1 0x1 ADD PUSH2 0x11FA JUMP JUMPDEST POP DUP1 PUSH2 0x11F4 JUMP JUMPDEST ADD MLOAD SWAP1 POP DUP4 DUP1 PUSH2 0xD57 JUMP JUMPDEST SWAP3 POP PUSH1 0xD DUP5 ADD PUSH1 0x0 MSTORE PUSH1 0x20 PUSH1 0x0 KECCAK256 SWAP1 PUSH1 0x0 SWAP4 JUMPDEST PUSH1 0x1F NOT DUP5 AND DUP6 LT PUSH2 0x1288 JUMPI PUSH1 0x1 SWAP5 POP DUP4 PUSH1 0x1F NOT DUP2 AND LT PUSH2 0x126F JUMPI JUMPDEST POP POP POP DUP2 SHL ADD PUSH1 0xD DUP3 ADD SSTORE PUSH2 0xD6F JUMP JUMPDEST ADD MLOAD PUSH1 0x0 NOT PUSH1 0xF8 DUP5 PUSH1 0x3 SHL AND SHR NOT AND SWAP1 SSTORE DUP4 DUP1 DUP1 PUSH2 0x125F JUMP JUMPDEST DUP2 DUP2 ADD MLOAD DUP4 SSTORE PUSH1 0x20 SWAP5 DUP6 ADD SWAP5 PUSH1 0x1 SWAP1 SWAP4 ADD SWAP3 SWAP1 SWAP2 ADD SWAP1 PUSH2 0x1244 JUMP JUMPDEST SWAP1 SWAP2 POP PUSH1 0xD DUP5 ADD PUSH1 0x0 MSTORE PUSH1 0x20 PUSH1 0x0 KECCAK256 PUSH1 0x1F DUP5 ADD PUSH1 0x5 SHR DUP2 ADD PUSH1 0x20 DUP6 LT PUSH2 0x12EF JUMPI JUMPDEST SWAP1 DUP5 SWAP4 SWAP3 SWAP2 JUMPDEST PUSH1 0x1F DUP4 ADD PUSH1 0x5 SHR DUP3 ADD DUP2 LT PUSH2 0x12E0 JUMPI POP POP PUSH2 0xD40 JUMP JUMPDEST PUSH1 0x0 DUP2 SSTORE DUP6 SWAP5 POP PUSH1 0x1 ADD PUSH2 0x12CA JUMP JUMPDEST POP DUP1 PUSH2 0x12C4 JUMP JUMPDEST ADD MLOAD SWAP1 POP DUP4 DUP1 PUSH2 0xCF7 JUMP JUMPDEST SWAP3 POP PUSH1 0xC DUP5 ADD PUSH1 0x0 MSTORE PUSH1 0x20 PUSH1 0x0 KECCAK256 SWAP1 PUSH1 0x0 SWAP4 JUMPDEST PUSH1 0x1F NOT DUP5 AND DUP6 LT PUSH2 0x1358 JUMPI PUSH1 0x1 SWAP5 POP DUP4 PUSH1 0x1F NOT DUP2 AND LT PUSH2 0x133F JUMPI JUMPDEST POP POP POP DUP2 SHL ADD PUSH1 0xC DUP3 ADD SSTORE PUSH2 0xD0F JUMP JUMPDEST ADD MLOAD PUSH1 0x0 NOT PUSH1 0xF8 DUP5 PUSH1 0x3 SHL AND SHR NOT AND SWAP1 SSTORE DUP4 DUP1 DUP1 PUSH2 0x132F JUMP JUMPDEST DUP2 DUP2 ADD MLOAD DUP4 SSTORE PUSH1 0x20 SWAP5 DUP6 ADD SWAP5 PUSH1 0x1 SWAP1 SWAP4 ADD SWAP3 SWAP1 SWAP2 ADD SWAP1 PUSH2 0x1314 JUMP JUMPDEST SWAP1 SWAP2 POP PUSH1 0xC DUP5 ADD PUSH1 0x0 MSTORE PUSH1 0x20 PUSH1 0x0 KECCAK256 PUSH1 0x1F DUP5 ADD PUSH1 0x5 SHR DUP2 ADD PUSH1 0x20 DUP6 LT PUSH2 0x13BF JUMPI JUMPDEST SWAP1 DUP5 SWAP4 SWAP3 SWAP2 JUMPDEST PUSH1 0x1F DUP4 ADD PUSH1 0x5 SHR DUP3 ADD DUP2 LT PUSH2 0x13B0 JUMPI POP POP PUSH2 0xCE0 JUMP JUMPDEST PUSH1 0x0 DUP2 SSTORE DUP6 SWAP5 POP PUSH1 0x1 ADD PUSH2 0x139A JUMP JUMPDEST POP DUP1 PUSH2 0x1394 JUMP JUMPDEST ADD MLOAD SWAP1 POP DUP4 DUP1 PUSH2 0xC97 JUMP JUMPDEST SWAP3 POP PUSH1 0xB DUP5 ADD PUSH1 0x0 MSTORE PUSH1 0x20 PUSH1 0x0 KECCAK256 SWAP1 PUSH1 0x0 SWAP4 JUMPDEST PUSH1 0x1F NOT DUP5 AND DUP6 LT PUSH2 0x1428 JUMPI PUSH1 0x1 SWAP5 POP DUP4 PUSH1 0x1F NOT DUP2 AND LT PUSH2 0x140F JUMPI JUMPDEST POP POP POP DUP2 SHL ADD PUSH1 0xB DUP3 ADD SSTORE PUSH2 0xCAF JUMP JUMPDEST ADD MLOAD PUSH1 0x0 NOT PUSH1 0xF8 DUP5 PUSH1 0x3 SHL AND SHR NOT AND SWAP1 SSTORE DUP4 DUP1 DUP1 PUSH2 0x13FF JUMP JUMPDEST DUP2 DUP2 ADD MLOAD DUP4 SSTORE PUSH1 0x20 SWAP5 DUP6 ADD SWAP5 PUSH1 0x1 SWAP1 SWAP4 ADD SWAP3 SWAP1 SWAP2 ADD SWAP1 PUSH2 0x13E4 JUMP JUMPDEST SWAP1 SWAP2 POP PUSH1 0xB DUP5 ADD PUSH1 0x0 MSTORE PUSH1 0x20 PUSH1 0x0 KECCAK256 PUSH1 0x1F DUP5 ADD PUSH1 0x5 SHR DUP2 ADD PUSH1 0x20 DUP6 LT PUSH2 0x148F JUMPI JUMPDEST SWAP1 DUP5 SWAP4 SWAP3 SWAP2 JUMPDEST PUSH1 0x1F DUP4 ADD PUSH1 0x5 SHR DUP3 ADD DUP2 LT PUSH2 0x1480 JUMPI POP POP PUSH2 0xC80 JUMP JUMPDEST PUSH1 0x0 DUP2 SSTORE DUP6 SWAP5 POP PUSH1 0x1 ADD PUSH2 0x146A JUMP JUMPDEST POP DUP1 PUSH2 0x1464 JUMP JUMPDEST ADD MLOAD SWAP1 POP DUP4 DUP1 PUSH2 0xC37 JUMP JUMPDEST SWAP3 POP PUSH1 0xA DUP5 ADD PUSH1 0x0 MSTORE PUSH1 0x20 PUSH1 0x0 KECCAK256 SWAP1 PUSH1 0x0 SWAP4 JUMPDEST PUSH1 0x1F NOT DUP5 AND DUP6 LT PUSH2 0x14F8 JUMPI PUSH1 0x1 SWAP5 POP DUP4 PUSH1 0x1F NOT DUP2 AND LT PUSH2 0x14DF JUMPI JUMPDEST POP POP POP DUP2 SHL ADD PUSH1 0xA DUP3 ADD SSTORE PUSH2 0xC4F JUMP JUMPDEST ADD MLOAD PUSH1 0x0 NOT PUSH1 0xF8 DUP5 PUSH1 0x3 SHL AND SHR NOT AND SWAP1 SSTORE DUP4 DUP1 DUP1 PUSH2 0x14CF JUMP JUMPDEST DUP2 DUP2 ADD MLOAD DUP4 SSTORE PUSH1 0x20 SWAP5 DUP6 ADD SWAP5 PUSH1 0x1 SWAP1 SWAP4 ADD SWAP3 SWAP1 SWAP2 ADD SWAP1 PUSH2 0x14B4 JUMP JUMPDEST SWAP1 SWAP2 POP PUSH1 0xA DUP5 ADD PUSH1 0x0 MSTORE PUSH1 0x20 PUSH1 0x0 KECCAK256 PUSH1 0x1F DUP5 ADD PUSH1 0x5 SHR DUP2 ADD PUSH1 0x20 DUP6 LT PUSH2 0x155F JUMPI JUMPDEST SWAP1 DUP5 SWAP4 SWAP3 SWAP2 JUMPDEST PUSH1 0x1F DUP4 ADD PUSH1 0x5 SHR DUP3 ADD DUP2 LT PUSH2 0x1550 JUMPI POP POP PUSH2 0xC20 JUMP JUMPDEST PUSH1 0x0 DUP2 SSTORE DUP6 SWAP5 POP PUSH1 0x1 ADD PUSH2 0x153A JUMP JUMPDEST POP DUP1 PUSH2 0x1534 JUMP JUMPDEST ADD MLOAD SWAP1 POP DUP4 DUP1 PUSH2 0xBD7 JUMP JUMPDEST SWAP3 POP PUSH1 0x9 DUP5 ADD PUSH1 0x0 MSTORE PUSH1 0x20 PUSH1 0x0 KECCAK256 SWAP1 PUSH1 0x0 SWAP4 JUMPDEST PUSH1 0x1F NOT DUP5 AND DUP6 LT PUSH2 0x15C8 JUMPI PUSH1 0x1 SWAP5 POP DUP4 PUSH1 0x1F NOT DUP2 AND LT PUSH2 0x15AF JUMPI JUMPDEST POP POP POP DUP2 SHL ADD PUSH1 0x9 DUP3 ADD SSTORE PUSH2 0xBEF JUMP JUMPDEST ADD MLOAD PUSH1 0x0 NOT PUSH1 0xF8 DUP5 PUSH1 0x3 SHL AND SHR NOT AND SWAP1 SSTORE DUP4 DUP1 DUP1 PUSH2 0x159F JUMP JUMPDEST DUP2 DUP2 ADD MLOAD DUP4 SSTORE PUSH1 0x20 SWAP5 DUP6 ADD SWAP5 PUSH1 0x1 SWAP1 SWAP4 ADD SWAP3 SWAP1 SWAP2 ADD SWAP1 PUSH2 0x1584 JUMP JUMPDEST SWAP1 SWAP2 POP PUSH1 0x9 DUP5 ADD PUSH1 0x0 MSTORE PUSH1 0x20 PUSH1 0x0 KECCAK256 PUSH1 0x1F DUP5 ADD PUSH1 0x5 SHR DUP2 ADD PUSH1 0x20 DUP6 LT PUSH2 0x162F JUMPI JUMPDEST SWAP1 DUP5 SWAP4 SWAP3 SWAP2 JUMPDEST PUSH1 0x1F DUP4 ADD PUSH1 0x5 SHR DUP3 ADD DUP2 LT PUSH2 0x1620 JUMPI POP POP PUSH2 0xBC0 JUMP JUMPDEST PUSH1 0x0 DUP2 SSTORE DUP6 SWAP5 POP PUSH1 0x1 ADD PUSH2 0x160A JUMP JUMPDEST POP DUP1 PUSH2 0x1604 JUMP JUMPDEST ADD MLOAD SWAP1 POP DUP4 DUP1 PUSH2 0xB77 JUMP JUMPDEST SWAP3 POP PUSH1 0x8 DUP5 ADD PUSH1 0x0 MSTORE PUSH1 0x20 PUSH1 0x0 KECCAK256 SWAP1 PUSH1 0x0 SWAP4 JUMPDEST PUSH1 0x1F NOT DUP5 AND DUP6 LT PUSH2 0x1698 JUMPI PUSH1 0x1 SWAP5 POP DUP4 PUSH1 0x1F NOT DUP2 AND LT PUSH2 0x167F JUMPI JUMPDEST POP POP POP DUP2 SHL ADD PUSH1 0x8 DUP3 ADD SSTORE PUSH2 0xB8F JUMP JUMPDEST ADD MLOAD PUSH1 0x0 NOT PUSH1 0xF8 DUP5 PUSH1 0x3 SHL AND SHR NOT AND SWAP1 SSTORE DUP4 DUP1 DUP1 PUSH2 0x166F JUMP JUMPDEST DUP2 DUP2 ADD MLOAD DUP4 SSTORE PUSH1 0x20 SWAP5 DUP6 ADD SWAP5 PUSH1 0x1 SWAP1 SWAP4 ADD SWAP3 SWAP1 SWAP2 ADD SWAP1 PUSH2 0x1654 JUMP JUMPDEST SWAP1 SWAP2 POP PUSH1 0x8 DUP5 ADD PUSH1 0x0 MSTORE PUSH1 0x20 PUSH1 0x0 KECCAK256 PUSH1 0x1F DUP5 ADD PUSH1 0x5 SHR DUP2 ADD PUSH1 0x20 DUP6 LT PUSH2 0x16FF JUMPI JUMPDEST SWAP1 DUP5 SWAP4 SWAP3 SWAP2 JUMPDEST PUSH1 0x1F DUP4 ADD PUSH1 0x5 SHR DUP3 ADD DUP2 LT PUSH2 0x16F0 JUMPI POP POP PUSH2 0xB60 JUMP JUMPDEST PUSH1 0x0 DUP2 SSTORE DUP6 SWAP5 POP PUSH1 0x1 ADD PUSH2 0x16DA JUMP JUMPDEST POP DUP1 PUSH2 0x16D4 JUMP JUMPDEST ADD MLOAD SWAP1 POP DUP4 DUP1 PUSH2 0xB17 JUMP JUMPDEST SWAP3 POP PUSH1 0x7 DUP5 ADD PUSH1 0x0 MSTORE PUSH1 0x20 PUSH1 0x0 KECCAK256 SWAP1 PUSH1 0x0 SWAP4 JUMPDEST PUSH1 0x1F NOT DUP5 AND DUP6 LT PUSH2 0x1768 JUMPI PUSH1 0x1 SWAP5 POP DUP4 PUSH1 0x1F NOT DUP2 AND LT PUSH2 0x174F JUMPI JUMPDEST POP POP POP DUP2 SHL ADD PUSH1 0x7 DUP3 ADD SSTORE PUSH2 0xB2F JUMP JUMPDEST ADD MLOAD PUSH1 0x0 NOT PUSH1 0xF8 DUP5 PUSH1 0x3 SHL AND SHR NOT AND SWAP1 SSTORE DUP4 DUP1 DUP1 PUSH2 0x173F JUMP JUMPDEST DUP2 DUP2 ADD MLOAD DUP4 SSTORE PUSH1 0x20 SWAP5 DUP6 ADD SWAP5 PUSH1 0x1 SWAP1 SWAP4 ADD SWAP3 SWAP1 SWAP2 ADD SWAP1 PUSH2 0x1724 JUMP JUMPDEST SWAP1 SWAP2 POP PUSH1 0x7 DUP5 ADD PUSH1 0x0 MSTORE PUSH1 0x20 PUSH1 0x0 KECCAK256 PUSH1 0x1F DUP5 ADD PUSH1 0x5 SHR DUP2 ADD PUSH1 0x20 DUP6 LT PUSH2 0x17CF JUMPI JUMPDEST SWAP1 DUP5 SWAP4 SWAP3 SWAP2 JUMPDEST PUSH1 0x1F DUP4 ADD PUSH1 0x5 SHR DUP3 ADD DUP2 LT PUSH2 0x17C0 JUMPI POP POP PUSH2 0xB00 JUMP JUMPDEST PUSH1 0x0 DUP2 SSTORE DUP6 SWAP5 POP PUSH1 0x1 ADD PUSH2 0x17AA JUMP JUMPDEST POP DUP1 PUSH2 0x17A4 JUMP JUMPDEST ADD MLOAD SWAP1 POP DUP4 DUP1 PUSH2 0xAB9 JUMP JUMPDEST SWAP3 POP PUSH1 0x6 DUP5 ADD PUSH1 0x0 MSTORE PUSH1 0x20 PUSH1 0x0 KECCAK256 SWAP1 PUSH1 0x0 SWAP4 JUMPDEST PUSH1 0x1F NOT DUP5 AND DUP6 LT PUSH2 0x1838 JUMPI PUSH1 0x1 SWAP5 POP DUP4 PUSH1 0x1F NOT DUP2 AND LT PUSH2 0x181F JUMPI JUMPDEST POP POP POP DUP2 SHL ADD PUSH1 0x6 DUP3 ADD SSTORE PUSH2 0xAD1 JUMP JUMPDEST ADD MLOAD PUSH1 0x0 NOT PUSH1 0xF8 DUP5 PUSH1 0x3 SHL AND SHR NOT AND SWAP1 SSTORE DUP4 DUP1 DUP1 PUSH2 0x180F JUMP JUMPDEST DUP2 DUP2 ADD MLOAD DUP4 SSTORE PUSH1 0x20 SWAP5 DUP6 ADD SWAP5 PUSH1 0x1 SWAP1 SWAP4 ADD SWAP3 SWAP1 SWAP2 ADD SWAP1 PUSH2 0x17F4 JUMP JUMPDEST SWAP1 SWAP2 POP PUSH1 0x6 DUP5 ADD PUSH1 0x0 MSTORE PUSH1 0x20 PUSH1 0x0 KECCAK256 PUSH1 0x1F DUP5 ADD PUSH1 0x5 SHR DUP2 ADD PUSH1 0x20 DUP6 LT PUSH2 0x189F JUMPI JUMPDEST SWAP1 DUP5 SWAP4 SWAP3 SWAP2 JUMPDEST PUSH1 0x1F DUP4 ADD PUSH1 0x5 SHR DUP3 ADD DUP2 LT PUSH2 0x1890 JUMPI POP POP PUSH2 0xAA2 JUMP JUMPDEST PUSH1 0x0 DUP2 SSTORE DUP6 SWAP5 POP PUSH1 0x1 ADD PUSH2 0x187A JUMP JUMPDEST POP DUP1 PUSH2 0x1874 JUMP JUMPDEST ADD MLOAD SWAP1 POP DUP4 DUP1 PUSH2 0xA5A JUMP JUMPDEST SWAP3 POP PUSH1 0x5 DUP5 ADD PUSH1 0x0 MSTORE PUSH1 0x20 PUSH1 0x0 KECCAK256 SWAP1 PUSH1 0x0 SWAP4 JUMPDEST PUSH1 0x1F NOT DUP5 AND DUP6 LT PUSH2 0x1908 JUMPI PUSH1 0x1 SWAP5 POP DUP4 PUSH1 0x1F NOT DUP2 AND LT PUSH2 0x18EF JUMPI JUMPDEST POP POP POP DUP2 SHL ADD PUSH1 0x5 DUP3 ADD SSTORE PUSH2 0xA72 JUMP JUMPDEST ADD MLOAD PUSH1 0x0 NOT PUSH1 0xF8 DUP5 PUSH1 0x3 SHL AND SHR NOT AND SWAP1 SSTORE DUP4 DUP1 DUP1 PUSH2 0x18DF JUMP JUMPDEST DUP2 DUP2 ADD MLOAD DUP4 SSTORE PUSH1 0x20 SWAP5 DUP6 ADD SWAP5 PUSH1 0x1 SWAP1 SWAP4 ADD SWAP3 SWAP1 SWAP2 ADD SWAP1 PUSH2 0x18C4 JUMP JUMPDEST SWAP1 SWAP2 POP PUSH1 0x5 DUP5 ADD PUSH1 0x0 MSTORE PUSH1 0x20 PUSH1 0x0 KECCAK256 PUSH1 0x1F DUP5 ADD PUSH1 0x5 SHR DUP2 ADD PUSH1 0x20 DUP6 LT PUSH2 0x196F JUMPI JUMPDEST SWAP1 DUP5 SWAP4 SWAP3 SWAP2 JUMPDEST PUSH1 0x1F DUP4 ADD PUSH1 0x5 SHR DUP3 ADD DUP2 LT PUSH2 0x1960 JUMPI POP POP PUSH2 0xA43 JUMP JUMPDEST PUSH1 0x0 DUP2 SSTORE DUP6 SWAP5 POP PUSH1 0x1 ADD PUSH2 0x194A JUMP JUMPDEST POP DUP1 PUSH2 0x1944 JUMP JUMPDEST ADD MLOAD SWAP1 POP DUP4 DUP1 PUSH2 0x9FB JUMP JUMPDEST SWAP3 POP PUSH1 0x4 DUP5 ADD PUSH1 0x0 MSTORE PUSH1 0x20 PUSH1 0x0 KECCAK256 SWAP1 PUSH1 0x0 SWAP4 JUMPDEST PUSH1 0x1F NOT DUP5 AND DUP6 LT PUSH2 0x19D8 JUMPI PUSH1 0x1 SWAP5 POP DUP4 PUSH1 0x1F NOT DUP2 AND LT PUSH2 0x19BF JUMPI JUMPDEST POP POP POP DUP2 SHL ADD PUSH1 0x4 DUP3 ADD SSTORE PUSH2 0xA13 JUMP JUMPDEST ADD MLOAD PUSH1 0x0 NOT PUSH1 0xF8 DUP5 PUSH1 0x3 SHL AND SHR NOT AND SWAP1 SSTORE DUP4 DUP1 DUP1 PUSH2 0x19AF JUMP JUMPDEST DUP2 DUP2 ADD MLOAD DUP4 SSTORE PUSH1 0x20 SWAP5 DUP6 ADD SWAP5 PUSH1 0x1 SWAP1 SWAP4 ADD SWAP3 SWAP1 SWAP2 ADD SWAP1 PUSH2 0x1994 JUMP JUMPDEST SWAP1 SWAP2 POP PUSH1 0x4 DUP5 ADD PUSH1 0x0 MSTORE PUSH1 0x20 PUSH1 0x0 KECCAK256 PUSH1 0x1F DUP5 ADD PUSH1 0x5 SHR DUP2 ADD PUSH1 0x20 DUP6 LT PUSH2 0x1A3F JUMPI JUMPDEST SWAP1 DUP5 SWAP4 SWAP3 SWAP2 JUMPDEST PUSH1 0x1F DUP4 ADD PUSH1 0x5 SHR DUP3 ADD DUP2 LT PUSH2 0x1A30 JUMPI POP POP PUSH2 0x9E4 JUMP JUMPDEST PUSH1 0x0 DUP2 SSTORE DUP6 SWAP5 POP PUSH1 0x1 ADD PUSH2 0x1A1A JUMP JUMPDEST POP DUP1 PUSH2 0x1A14 JUMP JUMPDEST ADD MLOAD SWAP1 POP DUP4 DUP1 PUSH2 0x99C JUMP JUMPDEST SWAP3 POP PUSH1 0x3 DUP5 ADD PUSH1 0x0 MSTORE PUSH1 0x20 PUSH1 0x0 KECCAK256 SWAP1 PUSH1 0x0 SWAP4 JUMPDEST PUSH1 0x1F NOT DUP5 AND DUP6 LT PUSH2 0x1AA8 JUMPI PUSH1 0x1 SWAP5 POP DUP4 PUSH1 0x1F NOT DUP2 AND LT PUSH2 0x1A8F JUMPI JUMPDEST POP POP POP DUP2 SHL ADD PUSH1 0x3 DUP3 ADD SSTORE PUSH2 0x9B4 JUMP JUMPDEST ADD MLOAD PUSH1 0x0 NOT PUSH1 0xF8 DUP5 PUSH1 0x3 SHL AND SHR NOT AND SWAP1 SSTORE DUP4 DUP1 DUP1 PUSH2 0x1A7F JUMP JUMPDEST DUP2 DUP2 ADD MLOAD DUP4 SSTORE PUSH1 0x20 SWAP5 DUP6 ADD SWAP5 PUSH1 0x1 SWAP1 SWAP4 ADD SWAP3 SWAP1 SWAP2 ADD SWAP1 PUSH2 0x1A64 JUMP JUMPDEST SWAP1 SWAP2 POP PUSH1 0x3 DUP5 ADD PUSH1 0x0 MSTORE PUSH1 0x20 PUSH1 0x0 KECCAK256 PUSH1 0x1F DUP5 ADD PUSH1 0x5 SHR DUP2 ADD PUSH1 0x20 DUP6 LT PUSH2 0x1B0F JUMPI JUMPDEST SWAP1 DUP5 SWAP4 SWAP3 SWAP2 JUMPDEST PUSH1 0x1F DUP4 ADD PUSH1 0x5 SHR DUP3 ADD DUP2 LT PUSH2 0x1B00 JUMPI POP POP PUSH2 0x985 JUMP JUMPDEST PUSH1 0x0 DUP2 SSTORE DUP6 SWAP5 POP PUSH1 0x1 ADD PUSH2 0x1AEA JUMP JUMPDEST POP DUP1 PUSH2 0x1AE4 JUMP JUMPDEST ADD MLOAD SWAP1 POP DUP4 DUP1 PUSH2 0x93D JUMP JUMPDEST SWAP3 POP PUSH1 0x2 DUP5 ADD PUSH1 0x0 MSTORE PUSH1 0x20 PUSH1 0x0 KECCAK256 SWAP1 PUSH1 0x0 SWAP4 JUMPDEST PUSH1 0x1F NOT DUP5 AND DUP6 LT PUSH2 0x1B78 JUMPI PUSH1 0x1 SWAP5 POP DUP4 PUSH1 0x1F NOT DUP2 AND LT PUSH2 0x1B5F JUMPI JUMPDEST POP POP POP DUP2 SHL ADD PUSH1 0x2 DUP3 ADD SSTORE PUSH2 0x955 JUMP JUMPDEST ADD MLOAD PUSH1 0x0 NOT PUSH1 0xF8 DUP5 PUSH1 0x3 SHL AND SHR NOT AND SWAP1 SSTORE DUP4 DUP1 DUP1 PUSH2 0x1B4F JUMP JUMPDEST DUP2 DUP2 ADD MLOAD DUP4 SSTORE PUSH1 0x20 SWAP5 DUP6 ADD SWAP5 PUSH1 0x1 SWAP1 SWAP4 ADD SWAP3 SWAP1 SWAP2 ADD SWAP1 PUSH2 0x1B34 JUMP JUMPDEST SWAP1 SWAP2 POP PUSH1 0x2 DUP5 ADD PUSH1 0x0 MSTORE PUSH1 0x20 PUSH1 0x0 KECCAK256 PUSH1 0x1F DUP5 ADD PUSH1 0x5 SHR DUP2 ADD PUSH1 0x20 DUP6 LT PUSH2 0x1BDF JUMPI JUMPDEST SWAP1 DUP5 SWAP4 SWAP3 SWAP2 JUMPDEST PUSH1 0x1F DUP4 ADD PUSH1 0x5 SHR DUP3 ADD DUP2 LT PUSH2 0x1BD0 JUMPI POP POP PUSH2 0x926 JUMP JUMPDEST PUSH1 0x0 DUP2 SSTORE DUP6 SWAP5 POP PUSH1 0x1 ADD PUSH2 0x1BBA JUMP JUMPDEST POP DUP1 PUSH2 0x1BB4 JUMP JUMPDEST ADD MLOAD SWAP1 POP DUP4 DUP1 PUSH2 0x8DE JUMP JUMPDEST SWAP3 POP PUSH1 0x1 DUP5 ADD PUSH1 0x0 MSTORE PUSH1 0x20 PUSH1 0x0 KECCAK256 SWAP1 PUSH1 0x0 SWAP4 JUMPDEST PUSH1 0x1F NOT DUP5 AND DUP6 LT PUSH2 0x1C48 JUMPI PUSH1 0x1 SWAP5 POP DUP4 PUSH1 0x1F NOT DUP2 AND LT PUSH2 0x1C2F JUMPI JUMPDEST POP POP POP DUP2 SHL ADD PUSH1 0x1 DUP3 ADD SSTORE PUSH2 0x8F6 JUMP JUMPDEST ADD MLOAD PUSH1 0x0 NOT PUSH1 0xF8 DUP5 PUSH1 0x3 SHL AND SHR NOT AND SWAP1 SSTORE DUP4 DUP1 DUP1 PUSH2 0x1C1F JUMP JUMPDEST DUP2 DUP2 ADD MLOAD DUP4 SSTORE PUSH1 0x20 SWAP5 DUP6 ADD SWAP5 PUSH1 0x1 SWAP1 SWAP4 ADD SWAP3 SWAP1 SWAP2 ADD SWAP1 PUSH2 0x1C04 JUMP JUMPDEST SWAP1 SWAP2 POP PUSH1 0x1 DUP5 ADD PUSH1 0x0 MSTORE PUSH1 0x20 PUSH1 0x0 KECCAK256 PUSH1 0x1F DUP5 ADD PUSH1 0x5 SHR DUP2 ADD PUSH1 0x20 DUP6 LT PUSH2 0x1CAF JUMPI JUMPDEST SWAP1 DUP5 SWAP4 SWAP3 SWAP2 JUMPDEST PUSH1 0x1F DUP4 ADD PUSH1 0x5 SHR DUP3 ADD DUP2 LT PUSH2 0x1CA0 JUMPI POP POP PUSH2 0x8C7 JUMP JUMPDEST PUSH1 0x0 DUP2 SSTORE DUP6 SWAP5 POP PUSH1 0x1 ADD PUSH2 0x1C8A JUMP JUMPDEST POP DUP1 PUSH2 0x1C84 JUMP JUMPDEST ADD MLOAD SWAP1 POP DUP4 DUP1 PUSH2 0x882 JUMP JUMPDEST SWAP3 POP DUP4 PUSH1 0x0 MSTORE PUSH1 0x20 PUSH1 0x0 KECCAK256 SWAP1 PUSH1 0x0 SWAP4 JUMPDEST PUSH1 0x1F NOT DUP5 AND DUP6 LT PUSH2 0x1D12 JUMPI PUSH1 0x1 SWAP5 POP DUP4 PUSH1 0x1F NOT DUP2 AND LT PUSH2 0x1CF9 JUMPI JUMPDEST POP POP POP DUP2 SHL ADD DUP2 SSTORE PUSH2 0x897 JUMP JUMPDEST ADD MLOAD PUSH1 0x0 NOT PUSH1 0xF8 DUP5 PUSH1 0x3 SHL AND SHR NOT AND SWAP1 SSTORE DUP4 DUP1 DUP1 PUSH2 0x1CEC JUMP JUMPDEST DUP2 DUP2 ADD MLOAD DUP4 SSTORE PUSH1 0x20 SWAP5 DUP6 ADD SWAP5 PUSH1 0x1 SWAP1 SWAP4 ADD SWAP3 SWAP1 SWAP2 ADD SWAP1 PUSH2 0x1CD1 JUMP JUMPDEST SWAP1 SWAP2 POP DUP4 PUSH1 0x0 MSTORE PUSH1 0x20 PUSH1 0x0 KECCAK256 PUSH1 0x1F DUP5 ADD PUSH1 0x5 SHR DUP2 ADD PUSH1 0x20 DUP6 LT PUSH2 0x1D76 JUMPI JUMPDEST SWAP1 DUP5 SWAP4 SWAP3 SWAP2 JUMPDEST PUSH1 0x1F DUP4 ADD PUSH1 0x5 SHR DUP3 ADD DUP2 LT PUSH2 0x1D67 JUMPI POP POP PUSH2 0x86B JUMP JUMPDEST PUSH1 0x0 DUP2 SSTORE DUP6 SWAP5 POP PUSH1 0x1 ADD PUSH2 0x1D51 JUMP JUMPDEST POP DUP1 PUSH2 0x1D4B JUMP JUMPDEST PUSH1 0x40 MLOAD PUSH3 0x461BCD PUSH1 0xE5 SHL DUP2 MSTORE PUSH1 0x20 PUSH1 0x4 DUP3 ADD MSTORE PUSH1 0xB PUSH1 0x24 DUP3 ADD MSTORE PUSH11 0x139BDD081CDD195DD85C99 PUSH1 0xAA SHL PUSH1 0x44 DUP3 ADD MSTORE PUSH1 0x64 SWAP1 REVERT JUMPDEST CALLVALUE PUSH2 0x3CB JUMPI PUSH1 0x0 CALLDATASIZE PUSH1 0x3 NOT ADD SLT PUSH2 0x3CB JUMPI PUSH1 0x0 SLOAD PUSH1 0x40 MLOAD PUSH1 0x1 PUSH1 0x1 PUSH1 0xA0 SHL SUB SWAP1 SWAP2 AND DUP2 MSTORE PUSH1 0x20 SWAP1 RETURN JUMPDEST CALLVALUE PUSH2 0x3CB JUMPI PUSH1 0x20 CALLDATASIZE PUSH1 0x3 NOT ADD SLT PUSH2 0x3CB JUMPI PUSH1 0x1 PUSH1 0x1 PUSH1 0xA0 SHL SUB PUSH2 0x1DFA PUSH2 0x20B8 JUMP JUMPDEST AND PUSH1 0x0 MSTORE PUSH1 0x1 PUSH1 0x20 MSTORE PUSH1 0x40 PUSH1 0x0 KECCAK256 PUSH2 0x1E11 DUP2 PUSH2 0x2145 JUMP JUMPDEST SWAP1 DUP1 PUSH2 0x1E1F PUSH1 0x1 DUP3 ADD PUSH2 0x2145 JUMP JUMPDEST PUSH2 0x1E2B PUSH1 0x2 DUP4 ADD PUSH2 0x2145 JUMP JUMPDEST PUSH2 0x1E37 PUSH1 0x3 DUP5 ADD PUSH2 0x2145 JUMP JUMPDEST PUSH2 0x1E43 PUSH1 0x4 DUP6 ADD PUSH2 0x2145 JUMP JUMPDEST PUSH2 0x1E4F PUSH1 0x5 DUP7 ADD PUSH2 0x2145 JUMP JUMPDEST PUSH2 0x1E5B PUSH1 0x6 DUP8 ADD PUSH2 0x2145 JUMP JUMPDEST PUSH2 0x1E67 PUSH1 0x7 DUP9 ADD PUSH2 0x2145 JUMP JUMPDEST SWAP1 PUSH2 0x1E74 PUSH1 0x8 DUP10 ADD PUSH2 0x2145 JUMP JUMPDEST SWAP3 PUSH2 0x1E81 PUSH1 0x9 DUP11 ADD PUSH2 0x2145 JUMP JUMPDEST SWAP5 PUSH2 0x1E8E PUSH1 0xA DUP12 ADD PUSH2 0x2145 JUMP JUMPDEST SWAP7 PUSH2 0x1E9B PUSH1 0xB DUP13 ADD PUSH2 0x2145 JUMP JUMPDEST SWAP9 PUSH2 0x1EA8 PUSH1 0xC DUP14 ADD PUSH2 0x2145 JUMP JUMPDEST SWAP11 PUSH2 0x1EB5 PUSH1 0xD DUP15 ADD PUSH2 0x2145 JUMP JUMPDEST SWAP13 PUSH1 0xE ADD PUSH2 0x1EC2 SWAP1 PUSH2 0x2145 JUMP JUMPDEST SWAP14 PUSH1 0xF ADD PUSH2 0x1ECF SWAP1 PUSH2 0x2145 JUMP JUMPDEST SWAP15 PUSH1 0x40 MLOAD DUP1 PUSH1 0x80 MSTORE PUSH2 0x200 DUP1 SWAP2 MSTORE PUSH1 0x80 MLOAD ADD PUSH2 0x1EEA SWAP2 PUSH2 0x21EB JUMP JUMPDEST PUSH1 0x80 MLOAD DUP1 DUP3 SUB SWAP1 PUSH1 0x20 ADD MSTORE PUSH2 0x1EFE SWAP2 PUSH2 0x21EB JUMP JUMPDEST PUSH1 0x80 MLOAD DUP1 DUP3 SUB SWAP1 PUSH1 0x40 ADD MSTORE PUSH2 0x1F12 SWAP2 PUSH2 0x21EB JUMP JUMPDEST PUSH1 0x80 MLOAD DUP1 DUP3 SUB SWAP1 PUSH1 0x60 ADD MSTORE PUSH2 0x1F26 SWAP2 PUSH2 0x21EB JUMP JUMPDEST PUSH1 0x80 MLOAD DUP1 DUP3 SUB SWAP1 PUSH1 0x80 ADD MSTORE PUSH2 0x1F3A SWAP2 PUSH2 0x21EB JUMP JUMPDEST PUSH1 0x80 MLOAD DUP1 DUP3 SUB SWAP1 PUSH1 0xA0 ADD MSTORE PUSH2 0x1F4E SWAP2 PUSH2 0x21EB JUMP JUMPDEST PUSH1 0x80 MLOAD DUP1 DUP3 SUB SWAP1 PUSH1 0xC0 ADD MSTORE PUSH2 0x1F62 SWAP2 PUSH2 0x21EB JUMP JUMPDEST PUSH1 0x80 MLOAD DUP1 DUP3 SUB SWAP1 PUSH1 0xE0 ADD MSTORE PUSH2 0x1F76 SWAP2 PUSH2 0x21EB JUMP JUMPDEST PUSH1 0x80 MLOAD DUP1 DUP3 SUB SWAP1 PUSH2 0x100 ADD MSTORE PUSH2 0x1F8B SWAP2 PUSH2 0x21EB JUMP JUMPDEST PUSH1 0x80 MLOAD DUP1 DUP3 SUB SWAP1 PUSH2 0x120 ADD MSTORE PUSH2 0x1FA0 SWAP2 PUSH2 0x21EB JUMP JUMPDEST PUSH1 0x80 MLOAD DUP1 DUP3 SUB SWAP1 PUSH2 0x140 ADD MSTORE PUSH2 0x1FB5 SWAP2 PUSH2 0x21EB JUMP JUMPDEST PUSH1 0x80 MLOAD DUP1 DUP3 SUB SWAP1 PUSH2 0x160 ADD MSTORE PUSH2 0x1FCA SWAP2 PUSH2 0x21EB JUMP JUMPDEST PUSH1 0x80 MLOAD DUP1 DUP3 SUB SWAP1 PUSH2 0x180 ADD MSTORE PUSH2 0x1FDF SWAP2 PUSH2 0x21EB JUMP JUMPDEST PUSH1 0x80 MLOAD DUP1 DUP3 SUB SWAP1 PUSH2 0x1A0 ADD MSTORE PUSH2 0x1FF4 SWAP2 PUSH2 0x21EB JUMP JUMPDEST PUSH1 0x80 MLOAD DUP1 DUP3 SUB SWAP1 PUSH2 0x1C0 ADD MSTORE PUSH2 0x2009 SWAP2 PUSH2 0x21EB JUMP JUMPDEST SWAP1 PUSH1 0x80 MLOAD DUP1 DUP4 SUB SWAP1 PUSH2 0x1E0 ADD MSTORE PUSH1 0x80 MLOAD SWAP2 PUSH2 0x2023 SWAP2 PUSH2 0x21EB JUMP JUMPDEST SUB PUSH1 0x80 MLOAD RETURN JUMPDEST CALLVALUE PUSH2 0x3CB JUMPI PUSH1 0x20 CALLDATASIZE PUSH1 0x3 NOT ADD SLT PUSH2 0x3CB JUMPI PUSH1 0x4 CALLDATALOAD PUSH1 0x2 SLOAD DUP2 LT ISZERO PUSH2 0x3CB JUMPI PUSH2 0x2052 PUSH1 0x20 SWAP2 PUSH2 0x206B JUMP JUMPDEST SWAP1 SLOAD PUSH1 0x40 MLOAD PUSH1 0x3 SWAP3 SWAP1 SWAP3 SHL SHR PUSH1 0x1 PUSH1 0x1 PUSH1 0xA0 SHL SUB AND DUP2 MSTORE RETURN JUMPDEST PUSH1 0x2 SLOAD DUP2 LT ISZERO PUSH2 0x20A2 JUMPI PUSH1 0x2 PUSH1 0x0 MSTORE PUSH32 0x405787FA12A823E0F2B7631CC41B3BA8828B3321CA811111FA75CD3AA3BB5ACE ADD SWAP1 PUSH1 0x0 SWAP1 JUMP JUMPDEST PUSH4 0x4E487B71 PUSH1 0xE0 SHL PUSH1 0x0 MSTORE PUSH1 0x32 PUSH1 0x4 MSTORE PUSH1 0x24 PUSH1 0x0 REVERT JUMPDEST PUSH1 0x4 CALLDATALOAD SWAP1 PUSH1 0x1 PUSH1 0x1 PUSH1 0xA0 SHL SUB DUP3 AND DUP3 SUB PUSH2 0x3CB JUMPI JUMP JUMPDEST SWAP1 PUSH1 0x1 DUP3 DUP2 SHR SWAP3 AND DUP1 ISZERO PUSH2 0x20FE JUMPI JUMPDEST PUSH1 0x20 DUP4 LT EQ PUSH2 0x20E8 JUMPI JUMP JUMPDEST PUSH4 0x4E487B71 PUSH1 0xE0 SHL PUSH1 0x0 MSTORE PUSH1 0x22 PUSH1 0x4 MSTORE PUSH1 0x24 PUSH1 0x0 REVERT JUMPDEST SWAP2 PUSH1 0x7F AND SWAP2 PUSH2 0x20DD JUMP JUMPDEST PUSH2 0x200 DUP2 ADD SWAP1 DUP2 LT PUSH1 0x1 PUSH1 0x1 PUSH1 0x40 SHL SUB DUP3 GT OR PUSH2 0x1080 JUMPI PUSH1 0x40 MSTORE JUMP JUMPDEST SWAP1 PUSH1 0x1F DUP1 NOT SWAP2 ADD AND DUP2 ADD SWAP1 DUP2 LT PUSH1 0x1 PUSH1 0x1 PUSH1 0x40 SHL SUB DUP3 GT OR PUSH2 0x1080 JUMPI PUSH1 0x40 MSTORE JUMP JUMPDEST SWAP1 PUSH1 0x40 MLOAD SWAP2 DUP3 PUSH1 0x0 DUP3 SLOAD SWAP3 PUSH2 0x2159 DUP5 PUSH2 0x20CE JUMP JUMPDEST SWAP1 DUP2 DUP5 MSTORE PUSH1 0x1 SWAP5 DUP6 DUP2 AND SWAP1 DUP2 PUSH1 0x0 EQ PUSH2 0x21C8 JUMPI POP PUSH1 0x1 EQ PUSH2 0x2185 JUMPI JUMPDEST POP POP PUSH2 0x2183 SWAP3 POP SUB DUP4 PUSH2 0x2124 JUMP JUMPDEST JUMP JUMPDEST SWAP1 SWAP4 SWAP2 POP PUSH1 0x0 MSTORE PUSH1 0x20 SWAP1 DUP2 PUSH1 0x0 KECCAK256 SWAP4 PUSH1 0x0 SWAP2 JUMPDEST DUP2 DUP4 LT PUSH2 0x21B0 JUMPI POP POP PUSH2 0x2183 SWAP4 POP DUP3 ADD ADD CODESIZE DUP1 PUSH2 0x2175 JUMP JUMPDEST DUP6 SLOAD DUP9 DUP5 ADD DUP6 ADD MSTORE SWAP5 DUP6 ADD SWAP5 DUP8 SWAP5 POP SWAP2 DUP4 ADD SWAP2 PUSH2 0x2198 JUMP JUMPDEST SWAP2 POP POP PUSH2 0x2183 SWAP5 POP PUSH1 0x20 SWAP3 POP PUSH1 0xFF NOT AND DUP3 DUP5 ADD MSTORE ISZERO ISZERO PUSH1 0x5 SHL DUP3 ADD ADD CODESIZE DUP1 PUSH2 0x2175 JUMP JUMPDEST SWAP2 SWAP1 DUP3 MLOAD SWAP3 DUP4 DUP3 MSTORE PUSH1 0x0 JUMPDEST DUP5 DUP2 LT PUSH2 0x2217 JUMPI POP POP DUP3 PUSH1 0x0 PUSH1 0x20 DUP1 SWAP5 SWAP6 DUP5 ADD ADD MSTORE PUSH1 0x1F DUP1 NOT SWAP2 ADD AND ADD ADD SWAP1 JUMP JUMPDEST PUSH1 0x20 DUP2 DUP4 ADD DUP2 ADD MLOAD DUP5 DUP4 ADD DUP3 ADD MSTORE ADD PUSH2 0x21F6 JUMP JUMPDEST SWAP2 DUP2 PUSH1 0x1F DUP5 ADD SLT ISZERO PUSH2 0x3CB JUMPI DUP3 CALLDATALOAD SWAP2 PUSH1 0x1 PUSH1 0x1 PUSH1 0x40 SHL SUB DUP4 GT PUSH2 0x3CB JUMPI PUSH1 0x20 DUP4 DUP2 DUP7 ADD SWAP6 ADD ADD GT PUSH2 0x3CB JUMPI JUMP JUMPDEST SWAP3 SWAP2 SWAP3 PUSH1 0x1 PUSH1 0x1 PUSH1 0x40 SHL SUB DUP3 GT PUSH2 0x1080 JUMPI PUSH1 0x40 MLOAD SWAP2 PUSH2 0x2281 PUSH1 0x1F DUP3 ADD PUSH1 0x1F NOT AND PUSH1 0x20 ADD DUP5 PUSH2 0x2124 JUMP JUMPDEST DUP3 SWAP5 DUP2 DUP5 MSTORE DUP2 DUP4 ADD GT PUSH2 0x3CB JUMPI DUP3 DUP2 PUSH1 0x20 SWAP4 DUP5 PUSH1 0x0 SWAP7 ADD CALLDATACOPY ADD ADD MSTORE JUMP JUMPDEST SWAP1 DUP1 PUSH1 0x20 SWAP4 SWAP3 DUP2 DUP5 MSTORE DUP5 DUP5 ADD CALLDATACOPY PUSH1 0x0 DUP3 DUP3 ADD DUP5 ADD MSTORE PUSH1 0x1F ADD PUSH1 0x1F NOT AND ADD ADD SWAP1 JUMP INVALID LOG2 PUSH5 0x6970667358 0x22 SLT KECCAK256 EXTCODEHASH 0xCF SWAP8 CALLVALUE 0x4C SWAP9 DIV SHL MULMOD 0xDE EQ 0xE4 0xDC CODESIZE 0x4E 0xCA CALL GAS DUP14 MSTORE8 SWAP13 0xD8 0xD3 PUSH4 0x3E4C2B6C 0xE DUP16 CODECOPY PUSH30 0x64736F6C6343000814003300000000000000000000000000000000000000 "},"methodIdentifiers":{"companions(address)":"47854b87","getCompanion(address)":"ef652737","keys(uint256)":"0cb6aaf1","steward()":"637eea19","summonCompanion(address,string,string,string,string,string,string,string,string,string,string,string,string,string,string,string,string)":"86e3ab0d","totalCompanions()":"ec39f18f"}}}}}