{"contracts/codex/SpiralboundCodexXXV.sol":{"SpiralboundCodexXXV":{"abi":[{"inputs":[],"stateMutability":"nonpayable","type":"constructor"},{"anonymous":false,"inputs":[{"indexed":false,"internalType":"string","name":"glyph","type":"string"},{"indexed":false,"internalType":"string","name":"tag","type":"string"},{"indexed":false,"internalType":"string","name":"binding","type":"string"},{"indexed":false,"internalType":"string","name":"annotation","type":"string"},{"indexed":false,"internalType":"string","name":"lineage","type":"string"},{"indexed":false,"internalType":"string","name":"resonance","type":"string"},{"indexed":false,"internalType":"string","name":"protocol","type":"string"},{"indexed":false,"internalType":"string","name":"sanctum","type":"string"},{"indexed":false,"internalType":"string","name":"pulse","type":"string"},{"indexed":false,"internalType":"string","name":"chant","type":"string"},{"indexed":false,"internalType":"string","name":"choreography","type":"string"},{"indexed":false,"internalType":"string","name":"drift","type":"string"},{"indexed":false,"internalType":"string","name":"signature","type":"string"},{"indexed":false,"internalType":"string","name":"signal","type":"string"},{"indexed":false,"internalType":"string","name":"companion","type":"string"},{"indexed":false,"internalType":"string","name":"stewardName","type":"string"},{"indexed":false,"internalType":"string","name":"registry","type":"string"},{"indexed":false,"internalType":"string","name":"echo","type":"string"},{"indexed":false,"internalType":"string","name":"hum","type":"string"},{"indexed":false,"internalType":"string","name":"terrain","type":"string"},{"indexed":false,"internalType":"string","name":"choreographyType","type":"string"},{"indexed":false,"internalType":"string","name":"driftType","type":"string"},{"indexed":false,"internalType":"string","name":"signalType","type":"string"},{"indexed":false,"internalType":"string","name":"companionType","type":"string"},{"indexed":false,"internalType":"string","name":"stewardSignal","type":"string"},{"indexed":false,"internalType":"string","name":"pulseType","type":"string"}],"name":"CodexInscribed","type":"event"},{"inputs":[{"internalType":"string","name":"","type":"string"}],"name":"codices","outputs":[{"internalType":"string","name":"tag","type":"string"},{"internalType":"string","name":"binding","type":"string"},{"internalType":"string","name":"annotation","type":"string"},{"internalType":"string","name":"lineage","type":"string"},{"internalType":"string","name":"resonance","type":"string"},{"internalType":"string","name":"protocol","type":"string"},{"internalType":"string","name":"sanctum","type":"string"},{"internalType":"string","name":"pulse","type":"string"},{"internalType":"string","name":"chant","type":"string"},{"internalType":"string","name":"choreography","type":"string"},{"internalType":"string","name":"drift","type":"string"},{"internalType":"string","name":"signature","type":"string"},{"internalType":"string","name":"signal","type":"string"},{"internalType":"string","name":"companion","type":"string"},{"internalType":"string","name":"stewardName","type":"string"},{"internalType":"string","name":"registry","type":"string"},{"internalType":"string","name":"echo","type":"string"},{"internalType":"string","name":"hum","type":"string"},{"internalType":"string","name":"terrain","type":"string"},{"internalType":"string","name":"choreographyType","type":"string"},{"internalType":"string","name":"driftType","type":"string"},{"internalType":"string","name":"signalType","type":"string"},{"internalType":"string","name":"companionType","type":"string"},{"internalType":"string","name":"stewardSignal","type":"string"},{"internalType":"string","name":"pulseType","type":"string"}],"stateMutability":"view","type":"function"},{"inputs":[{"internalType":"string","name":"glyph","type":"string"}],"name":"getCodex","outputs":[{"components":[{"internalType":"string","name":"tag","type":"string"},{"internalType":"string","name":"binding","type":"string"},{"internalType":"string","name":"annotation","type":"string"},{"internalType":"string","name":"lineage","type":"string"},{"internalType":"string","name":"resonance","type":"string"},{"internalType":"string","name":"protocol","type":"string"},{"internalType":"string","name":"sanctum","type":"string"},{"internalType":"string","name":"pulse","type":"string"},{"internalType":"string","name":"chant","type":"string"},{"internalType":"string","name":"choreography","type":"string"},{"internalType":"string","name":"drift","type":"string"},{"internalType":"string","name":"signature","type":"string"},{"internalType":"string","name":"signal","type":"string"},{"internalType":"string","name":"companion","type":"string"},{"internalType":"string","name":"stewardName","type":"string"},{"internalType":"string","name":"registry","type":"string"},{"internalType":"string","name":"echo","type":"string"},{"internalType":"string","name":"hum","type":"string"},{"internalType":"string","name":"terrain","type":"string"},{"internalType":"string","name":"choreographyType","type":"string"},{"internalType":"string","name":"driftType","type":"string"},{"internalType":"string","name":"signalType","type":"string"},{"internalType":"string","name":"companionType","type":"string"},{"internalType":"string","name":"stewardSignal","type":"string"},{"internalType":"string","name":"pulseType","type":"string"}],"internalType":"struct SpiralboundCodexXXV.Codex","name":"","type":"tuple"}],"stateMutability":"view","type":"function"},{"inputs":[{"internalType":"string","name":"glyph","type":"string"},{"internalType":"string","name":"tag","type":"string"},{"internalType":"string","name":"binding","type":"string"},{"internalType":"string","name":"annotation","type":"string"},{"internalType":"string","name":"lineage","type":"string"},{"internalType":"string","name":"resonance","type":"string"},{"internalType":"string","name":"protocol","type":"string"},{"internalType":"string","name":"sanctum","type":"string"},{"internalType":"string","name":"pulse","type":"string"},{"internalType":"string","name":"chant","type":"string"},{"internalType":"string","name":"choreography","type":"string"},{"internalType":"string","name":"drift","type":"string"},{"internalType":"string","name":"signature","type":"string"},{"internalType":"string","name":"signal","type":"string"},{"internalType":"string","name":"companion","type":"string"},{"internalType":"string","name":"stewardName","type":"string"},{"internalType":"string","name":"registry","type":"string"},{"internalType":"string","name":"echo","type":"string"},{"internalType":"string","name":"hum","type":"string"},{"internalType":"string","name":"terrain","type":"string"},{"internalType":"string","name":"choreographyType","type":"string"},{"internalType":"string","name":"driftType","type":"string"},{"internalType":"string","name":"signalType","type":"string"},{"internalType":"string","name":"companionType","type":"string"},{"internalType":"string","name":"stewardSignal","type":"string"},{"internalType":"string","name":"pulseType","type":"string"}],"name":"inscribeCodex","outputs":[],"stateMutability":"nonpayable","type":"function"},{"inputs":[{"internalType":"uint256","name":"","type":"uint256"}],"name":"keys","outputs":[{"internalType":"string","name":"","type":"string"}],"stateMutability":"view","type":"function"},{"inputs":[],"name":"steward","outputs":[{"internalType":"address","name":"","type":"address"}],"stateMutability":"view","type":"function"},{"inputs":[],"name":"totalCodices","outputs":[{"internalType":"uint256","name":"","type":"uint256"}],"stateMutability":"view","type":"function"}],"evm":{"bytecode":{"linkReferences":{},"object":"6080806040523461002857600080546001600160a01b03191633179055612f42908161002e8239f35b600080fdfe610900604052600436101561001357600080fd5b60003560e01c80630cb6aaf114612c2757806319ed91b214610af8578063637eea1914610acf5780638336152214610517578063c212d16b146104f95763dbc214241461005f57600080fd5b346104f45760203660031901126104f4576004356001600160401b0381116104f457366023820112156104f45736816004013591602401916100a092612e51565b60405181818093516020819301916100b792612ddc565b81016001815203602001902080610480526100d190612d36565b610480516001016100e190612d36565b61038052610480516002016100f590612d36565b610720526104805160030161010990612d36565b6105a0526104805160040161011d90612d36565b6104805160050161012d90612d36565b6104805160060161013d90612d36565b6104805160070161014d90612d36565b6104805160080161015d90612d36565b6104805160090161016d90612d36565b61048051600a0161017d90612d36565b9161048051600b0161018e90612d36565b9361048051600c0161019f90612d36565b9561048051600d016101b090612d36565b9761048051600e016101c190612d36565b9961048051600f016101d290612d36565b9b610480516010016101e390612d36565b61084052610480516011016101f790612d36565b610780526104805160120161020b90612d36565b610740526104805160130161021f90612d36565b6108a0526104805160140161023390612d36565b610880526104805160150161024790612d36565b610620526104805160160161025b90612d36565b610860526104805160170161026f90612d36565b610600526104805160180161028390612d36565b6104a052604051806102a0526103208091526102a051016102a391612dff565b6102a051808203906020015261038051906102bd91612dff565b6102a051808203906040015261072051906102d791612dff565b6102a05180820390606001526105a051906102f191612dff565b6102a051808203906080015261030691612dff565b6102a0518082039060a0015261031b91612dff565b6102a0518082039060c0015261033091612dff565b6102a0518082039060e0015261034591612dff565b6102a05180820390610100015261035b91612dff565b6102a05180820390610120015261037191612dff565b6102a05180820390610140015261038791612dff565b6102a05180820390610160015261039d91612dff565b6102a0518082039061018001526103b391612dff565b6102a051808203906101a001526103c991612dff565b6102a051808203906101c001526103df91612dff565b6102a051808203906101e001526103f591612dff565b6102a051808203906102000152610840519061041091612dff565b6102a051808203906102200152610780519061042b91612dff565b6102a051808203906102400152610740519061044691612dff565b6102a0518082039061026001526108a0519061046191612dff565b6102a051808203906102800152610880519061047c91612dff565b6102a051808203906102a00152610620519061049791612dff565b6102a051808203906102c0015261086051906104b291612dff565b6102a051808203906102e0015261060051906104cd91612dff565b6102a0518082039061030001526102a051906104a051906104ed91612dff565b036102a051f35b600080fd5b346104f45760003660031901126104f4576020600254604051908152f35b346104f45760203660031901126104f4576004356001600160401b0381116104f457610547903690600401612e24565b9060405161055481612cf9565b60608152602081016060905260408101606090526060810160609052608081016060905260a081016060905260c081016060905260e08101606090526101008101606090526101208101606090526101408101606090526101608101606090526101808101606090526101a08101606090526101c08101606090526101e08101606090526102008101606090526102208101606090526102408101606090526102608101606090526102808101606090526102a08101606090526102c08101606090526102e081016060905261030001606090528160405192839283378101600181520360200190206040519061064a82612cf9565b61065381612d36565b825261066160018201612d36565b602083015261067260028201612d36565b604083015261068360038201612d36565b606083015261069460048201612d36565b60808301526106a560058201612d36565b60a08301526106b660068201612d36565b60c08301526106c760078201612d36565b60e08301526106d860088201612d36565b6101008301526106ea60098201612d36565b6101208301526106fc600a8201612d36565b61014083015261070e600b8201612d36565b610160830152610720600c8201612d36565b610180830152610732600d8201612d36565b6101a0830152610744600e8201612d36565b6101c0830152610756600f8201612d36565b6101e083015261076860108201612d36565b61020083015261077a60118201612d36565b61022083015261078c60128201612d36565b61024083015261079e60138201612d36565b6102608301526107b060148201612d36565b6102808301526107c260158201612d36565b6102a08301526107d460168201612d36565b6102c08301526107e660178201612d36565b6102e08301526018016107f890612d36565b6103008201526040518091602082528051602083016103209052610340830161082091612dff565b6020820151838203601f1901604085015261083b9190612dff565b6040820151838203601f190160608501526108569190612dff565b6060820151838203601f190160808501526108719190612dff565b6080820151838203601f190160a085015261088c9190612dff565b60a0820151838203601f190160c08501526108a79190612dff565b60c0820151838203601f190160e08501526108c29190612dff565b60e0820151838203601f19016101008501526108de9190612dff565b610100820151838203601f19016101208501526108fb9190612dff565b610120820151838203601f19016101408501526109189190612dff565b610140820151838203601f19016101608501526109359190612dff565b610160820151838203601f19016101808501526109529190612dff565b610180820151838203601f19016101a085015261096f9190612dff565b6101a0820151838203601f19016101c085015261098c9190612dff565b6101c0820151838203601f19016101e08501526109a99190612dff565b6101e0820151838203601f19016102008501526109c69190612dff565b610200820151838203601f19016102208501526109e39190612dff565b610220820151838203601f1901610240850152610a009190612dff565b610240820151838203601f1901610260850152610a1d9190612dff565b610260820151838203601f1901610280850152610a3a9190612dff565b610280820151838203601f19016102a0850152610a579190612dff565b6102a0820151838203601f19016102c0850152610a749190612dff565b6102c0820151838203601f19016102e0850152610a919190612dff565b6102e0820151838203601f1901610300850152610aae9190612dff565b90610300015190601f1983820301610320840152610acb91612dff565b0390f35b346104f45760003660031901126104f4576000546040516001600160a01b039091168152602090f35b346104f4576103403660031901126104f4576004356001600160401b0381116104f457610b29903690600401612e24565b610140526108c0526024356001600160401b0381116104f457610b50903690600401612e24565b6102e0526107c0526044356001600160401b0381116104f457610b77903690600401612e24565b61066052610340526064356001600160401b0381116104f457610b9e903690600401612e24565b6107e052610580526084356001600160401b0381116104f457610bc5903690600401612e24565b60e0526102c0526001600160401b0360a435116104f457610beb3660a435600401612e24565b61020052610460526001600160401b0360c435116104f457610c123660c435600401612e24565b6104e0526101e0526001600160401b0360e435116104f457610c393660e435600401612e24565b61070052610400526001600160401b0361010435116104f457610c623661010435600401612e24565b610520526080526001600160401b0361012435116104f457610c8a3661012435600401612e24565b61016052610260526001600160401b0361014435116104f457610cb33661014435600401612e24565b6105e052610820526001600160401b0361016435116104f457610cdc3661016435600401612e24565b61068052610180526001600160401b0361018435116104f457610d053661018435600401612e24565b6103e052610420526001600160401b036101a435116104f457610d2e366101a435600401612e24565b6107a0526108e0526001600160401b036101c435116104f457610d57366101c435600401612e24565b61080052610360526001600160401b036101e435116104f457610d80366101e435600401612e24565b6106e0526103a0526001600160401b0361020435116104f457610da93661020435600401612e24565b61022052610560526001600160401b0361022435116104f457610dd23661022435600401612e24565b61076052610440526001600160401b0361024435116104f457610dfb3661024435600401612e24565b610280526106c0526001600160401b0361026435116104f457610e243661026435600401612e24565b60a0526103c0526001600160401b0361028435116104f457610e4c3661028435600401612e24565b6101a052610300526001600160401b036102a435116104f457610e75366102a435600401612e24565b610120526106a0526001600160401b036102c435116104f457610e9e366102c435600401612e24565b610100526105c0526001600160401b036102e435116104f457610ec7366102e435600401612e24565b6104c05260c0526001600160401b0361030435116104f457610eef3661030435600401612e24565b61054052610640526001600160401b0361032435116104f457610f183661032435600401612e24565b61050052610240526000546001600160a01b03163303612bf457610f426040518061032052612cf9565b610f53366102e0516107c051612e51565b6103205152610f69366106605161034051612e51565b6020610320510152610f82366107e05161058051612e51565b6040610320510152610f9a3660e0516102c051612e51565b6060610320510152610fb3366102005161046051612e51565b6080610320510152610fcc366104e0516101e051612e51565b60a0610320510152610fe5366107005161040051612e51565b60c0610320510152610ffd3661052051608051612e51565b60e0610320510152611016366101605161026051612e51565b610100610320510152611030366105e05161082051612e51565b61012061032051015261104a366106805161018051612e51565b610140610320510152611064366103e05161042051612e51565b61016061032051015261107e366107a0516108e051612e51565b610180610320510152611098366108005161036051612e51565b6101a06103205101526110b2366106e0516103a051612e51565b6101c06103205101526110cc366102205161056051612e51565b6101e06103205101526110e6366107605161044051612e51565b61020061032051015261110036610280516106c051612e51565b6102206103205101526111193660a0516103c051612e51565b610240610320510152611133366101a05161030051612e51565b61026061032051015261114d36610120516106a051612e51565b61028061032051015261116736610100516105c051612e51565b6102a0610320510152611180366104c05160c051612e51565b6102c061032051015261119a366105405161064051612e51565b6102e06103205101526111b4366105005161024051612e51565b610300610320510152604051610140516108c05182376001610140518201526020816101405181010301902061032051518051906001600160401b038211611fa657819061120c826112068654612cbf565b86612e97565b602090601f8311600114612b8857600092612b7d575b50508160011b916000199060031b1c19161781555b60206103205101518051906001600160401b038211611fa657819061126c826112636001870154612cbf565b60018701612e97565b602090601f8311600114612b0b57600092612b00575b50508160011b916000199060031b1c19161760018201555b60406103205101518051906001600160401b038211611fa65781906112cf826112c66002870154612cbf565b60028701612e97565b602090601f8311600114612a8e57600092612a83575b50508160011b916000199060031b1c19161760028201555b60606103205101518051906001600160401b038211611fa6578190611332826113296003870154612cbf565b60038701612e97565b602090601f8311600114612a1157600092612a06575b50508160011b916000199060031b1c19161760038201555b60806103205101518051906001600160401b038211611fa65781906113958261138c6004870154612cbf565b60048701612e97565b602090601f831160011461299457600092612989575b50508160011b916000199060031b1c19161760048201555b60a06103205101518051906001600160401b038211611fa65781906113f8826113ef6005870154612cbf565b60058701612e97565b602090601f83116001146129175760009261290c575b50508160011b916000199060031b1c19161760058201555b60c06103205101518051906001600160401b038211611fa657819061145b826114526006870154612cbf565b60068701612e97565b602090601f831160011461289a5760009261288f575b50508160011b916000199060031b1c19161760068201555b60e06103205101518051906001600160401b038211611fa65781906114be826114b56007870154612cbf565b60078701612e97565b602090601f831160011461281d57600092612812575b50508160011b916000199060031b1c19161760078201555b6101006103205101518051906001600160401b038211611fa6578190611522826115196008870154612cbf565b60088701612e97565b602090601f83116001146127a057600092612795575b50508160011b916000199060031b1c19161760088201555b6101206103205101518051906001600160401b038211611fa65781906115868261157d6009870154612cbf565b60098701612e97565b602090601f831160011461272357600092612718575b50508160011b916000199060031b1c19161760098201555b6101406103205101518051906001600160401b038211611fa65781906115ea826115e1600a870154612cbf565b600a8701612e97565b602090601f83116001146126a65760009261269b575b50508160011b916000199060031b1c191617600a8201555b6101606103205101518051906001600160401b038211611fa657819061164e82611645600b870154612cbf565b600b8701612e97565b602090601f83116001146126295760009261261e575b50508160011b916000199060031b1c191617600b8201555b6101806103205101518051906001600160401b038211611fa65781906116b2826116a9600c870154612cbf565b600c8701612e97565b602090601f83116001146125ac576000926125a1575b50508160011b916000199060031b1c191617600c8201555b6101a06103205101518051906001600160401b038211611fa65781906117168261170d600d870154612cbf565b600d8701612e97565b602090601f831160011461252f57600092612524575b50508160011b916000199060031b1c191617600d8201555b6101c06103205101518051906001600160401b038211611fa657819061177a82611771600e870154612cbf565b600e8701612e97565b602090601f83116001146124b2576000926124a7575b50508160011b916000199060031b1c191617600e8201555b6101e06103205101518051906001600160401b038211611fa65781906117de826117d5600f870154612cbf565b600f8701612e97565b602090601f83116001146124355760009261242a575b50508160011b916000199060031b1c191617600f8201555b6102006103205101518051906001600160401b038211611fa6578190611842826118396010870154612cbf565b60108701612e97565b602090601f83116001146123b8576000926123ad575b50508160011b916000199060031b1c19161760108201555b6102206103205101518051906001600160401b038211611fa65781906118a68261189d6011870154612cbf565b60118701612e97565b602090601f831160011461233b57600092612330575b50508160011b916000199060031b1c19161760118201555b6102406103205101518051906001600160401b038211611fa657819061190a826119016012870154612cbf565b60128701612e97565b602090601f83116001146122be576000926122b3575b50508160011b916000199060031b1c19161760128201555b6102606103205101518051906001600160401b038211611fa657819061196e826119656013870154612cbf565b60138701612e97565b602090601f831160011461224157600092612236575b50508160011b916000199060031b1c19161760138201555b6102806103205101518051906001600160401b038211611fa65781906119d2826119c96014870154612cbf565b60148701612e97565b602090601f83116001146121c4576000926121b9575b50508160011b916000199060031b1c19161760148201555b6102a06103205101518051906001600160401b038211611fa6578190611a3682611a2d6015870154612cbf565b60158701612e97565b602090601f83116001146121475760009261213c575b50508160011b916000199060031b1c19161760158201555b6102c06103205101518051906001600160401b038211611fa6578190611a9a82611a916016870154612cbf565b60168701612e97565b602090601f83116001146120ca576000926120bf575b50508160011b916000199060031b1c19161760168201555b6102e06103205101518051906001600160401b038211611fa6578190611afe82611af56017870154612cbf565b60178701612e97565b602090601f831160011461204d57600092612042575b50508160011b916000199060031b1c19161760178201555b610300610320510151908151906001600160401b038211611fa65760180190611b5f81611b598454612cbf565b84612e97565b6020601f8211600114611fdd57819293600092611fd2575b50508160011b916000199060031b1c19161790555b60025468010000000000000000811015611fa657806001611bb09201600255612c72565b611fbc57610140516001600160401b038111611fa657611bda90611bd48354612cbf565b83612e97565b60009061014051601f8111600114611f395750906000610140519182611f2b575b508160011b916000199060031b1c19161790555b610340604051806101c052527fb7ade217c17c61c36def14792fd3635073960ea5f3c5a1eef6e68f54611b2e76611f01611ee7611ece611eb4611e9a611e80611e67611e4d611e33611e19611dff611de5611dcb611db1611d97611d7d611d63611d4a611d31611d18611cff611ce7611cce611cb5611c9c6103406101c05101610140516108c051612eeb565b6101c05160208183039101526102e0516107c051612eeb565b6101c05160408183039101526106605161034051612eeb565b6101c05160608183039101526107e05161058051612eeb565b6101c051608081830391015260e0516102c051612eeb565b6101c05160a08183039101526102005161046051612eeb565b6101c05160c08183039101526104e0516101e051612eeb565b6101c05160e08183039101526107005161040051612eeb565b6101c05161010081830391015261052051608051612eeb565b6101c0516101208183039101526101605161026051612eeb565b6101c0516101408183039101526105e05161082051612eeb565b6101c0516101608183039101526106805161018051612eeb565b6101c0516101808183039101526103e05161042051612eeb565b6101c0516101a08183039101526107a0516108e051612eeb565b6101c0516101c08183039101526108005161036051612eeb565b6101c0516101e08183039101526106e0516103a051612eeb565b6101c0516102008183039101526102205161056051612eeb565b6101c0516102208183039101526107605161044051612eeb565b6101c051610240818303910152610280516106c051612eeb565b6101c05161026081830391015260a0516103c051612eeb565b6101c0516102808183039101526101a05161030051612eeb565b6101c0516102a0818303910152610120516106a051612eeb565b6101c0516102c0818303910152610100516105c051612eeb565b6101c0516102e08183039101526104c05160c051612eeb565b6101c0516103008183039101526105405161064051612eeb565b6101c051610320818303910152611f236101c051916105005161024051612eeb565b036101c051a1005b90506108c051013583611bfb565b8160005260206000206000936108c051905b601f1984168610611f8e57600194955083601f19811610611f74575b505050811b019055611c0f565b0135600019600384901b60f8161c19169055838080611f67565b91602060018192858501358155019301950194611f4b565b634e487b7160e01b600052604160045260246000fd5b634e487b7160e01b600052600060045260246000fd5b015190508380611b77565b82600052602060002090600094601f198416955b86811061202a5750836001959610612011575b505050811b019055611b8c565b015160001960f88460031b161c19169055838080612004565b91926020600181928685015181550194019201611ff1565b015190508380611b14565b9250601784016000526020600020906000935b601f19841685106120a4576001945083601f1981161061208b575b505050811b016017820155611b2c565b015160001960f88460031b161c1916905583808061207b565b81810151835560209485019460019093019290910190612060565b015190508380611ab0565b9250601684016000526020600020906000935b601f1984168510612121576001945083601f19811610612108575b505050811b016016820155611ac8565b015160001960f88460031b161c191690558380806120f8565b818101518355602094850194600190930192909101906120dd565b015190508380611a4c565b9250601584016000526020600020906000935b601f198416851061219e576001945083601f19811610612185575b505050811b016015820155611a64565b015160001960f88460031b161c19169055838080612175565b8181015183556020948501946001909301929091019061215a565b0151905083806119e8565b9250601484016000526020600020906000935b601f198416851061221b576001945083601f19811610612202575b505050811b016014820155611a00565b015160001960f88460031b161c191690558380806121f2565b818101518355602094850194600190930192909101906121d7565b015190508380611984565b9250601384016000526020600020906000935b601f1984168510612298576001945083601f1981161061227f575b505050811b01601382015561199c565b015160001960f88460031b161c1916905583808061226f565b81810151835560209485019460019093019290910190612254565b015190508380611920565b9250601284016000526020600020906000935b601f1984168510612315576001945083601f198116106122fc575b505050811b016012820155611938565b015160001960f88460031b161c191690558380806122ec565b818101518355602094850194600190930192909101906122d1565b0151905083806118bc565b9250601184016000526020600020906000935b601f1984168510612392576001945083601f19811610612379575b505050811b0160118201556118d4565b015160001960f88460031b161c19169055838080612369565b8181015183556020948501946001909301929091019061234e565b015190508380611858565b9250601084016000526020600020906000935b601f198416851061240f576001945083601f198116106123f6575b505050811b016010820155611870565b015160001960f88460031b161c191690558380806123e6565b818101518355602094850194600190930192909101906123cb565b0151905083806117f4565b9250600f84016000526020600020906000935b601f198416851061248c576001945083601f19811610612473575b505050811b01600f82015561180c565b015160001960f88460031b161c19169055838080612463565b81810151835560209485019460019093019290910190612448565b015190508380611790565b9250600e84016000526020600020906000935b601f1984168510612509576001945083601f198116106124f0575b505050811b01600e8201556117a8565b015160001960f88460031b161c191690558380806124e0565b818101518355602094850194600190930192909101906124c5565b01519050838061172c565b9250600d84016000526020600020906000935b601f1984168510612586576001945083601f1981161061256d575b505050811b01600d820155611744565b015160001960f88460031b161c1916905583808061255d565b81810151835560209485019460019093019290910190612542565b0151905083806116c8565b9250600c84016000526020600020906000935b601f1984168510612603576001945083601f198116106125ea575b505050811b01600c8201556116e0565b015160001960f88460031b161c191690558380806125da565b818101518355602094850194600190930192909101906125bf565b015190508380611664565b9250600b84016000526020600020906000935b601f1984168510612680576001945083601f19811610612667575b505050811b01600b82015561167c565b015160001960f88460031b161c19169055838080612657565b8181015183556020948501946001909301929091019061263c565b015190508380611600565b9250600a84016000526020600020906000935b601f19841685106126fd576001945083601f198116106126e4575b505050811b01600a820155611618565b015160001960f88460031b161c191690558380806126d4565b818101518355602094850194600190930192909101906126b9565b01519050838061159c565b9250600984016000526020600020906000935b601f198416851061277a576001945083601f19811610612761575b505050811b0160098201556115b4565b015160001960f88460031b161c19169055838080612751565b81810151835560209485019460019093019290910190612736565b015190508380611538565b9250600884016000526020600020906000935b601f19841685106127f7576001945083601f198116106127de575b505050811b016008820155611550565b015160001960f88460031b161c191690558380806127ce565b818101518355602094850194600190930192909101906127b3565b0151905083806114d4565b9250600784016000526020600020906000935b601f1984168510612874576001945083601f1981161061285b575b505050811b0160078201556114ec565b015160001960f88460031b161c1916905583808061284b565b81810151835560209485019460019093019290910190612830565b015190508380611471565b9250600684016000526020600020906000935b601f19841685106128f1576001945083601f198116106128d8575b505050811b016006820155611489565b015160001960f88460031b161c191690558380806128c8565b818101518355602094850194600190930192909101906128ad565b01519050838061140e565b9250600584016000526020600020906000935b601f198416851061296e576001945083601f19811610612955575b505050811b016005820155611426565b015160001960f88460031b161c19169055838080612945565b8181015183556020948501946001909301929091019061292a565b0151905083806113ab565b9250600484016000526020600020906000935b601f19841685106129eb576001945083601f198116106129d2575b505050811b0160048201556113c3565b015160001960f88460031b161c191690558380806129c2565b818101518355602094850194600190930192909101906129a7565b015190508380611348565b9250600384016000526020600020906000935b601f1984168510612a68576001945083601f19811610612a4f575b505050811b016003820155611360565b015160001960f88460031b161c19169055838080612a3f565b81810151835560209485019460019093019290910190612a24565b0151905083806112e5565b9250600284016000526020600020906000935b601f1984168510612ae5576001945083601f19811610612acc575b505050811b0160028201556112fd565b015160001960f88460031b161c19169055838080612abc565b81810151835560209485019460019093019290910190612aa1565b015190508380611282565b9250600184016000526020600020906000935b601f1984168510612b62576001945083601f19811610612b49575b505050811b01600182015561129a565b015160001960f88460031b161c19169055838080612b39565b81810151835560209485019460019093019290910190612b1e565b015190508380611222565b9250836000526020600020906000935b601f1984168510612bd9576001945083601f19811610612bc0575b505050811b018155611237565b015160001960f88460031b161c19169055838080612bb3565b81810151835560209485019460019093019290910190612b98565b60405162461bcd60e51b815260206004820152600b60248201526a139bdd081cdd195dd85c9960aa1b6044820152606490fd5b346104f45760203660031901126104f4576004356002548110156104f457612c4e90612c72565b611fbc57612c5e610acb91612d36565b604051918291602083526020830190612dff565b600254811015612ca95760026000527f405787fa12a823e0f2b7631cc41b3ba8828b3321ca811111fa75cd3aa3bb5ace0190600090565b634e487b7160e01b600052603260045260246000fd5b90600182811c92168015612cef575b6020831014612cd957565b634e487b7160e01b600052602260045260246000fd5b91607f1691612cce565b61032081019081106001600160401b03821117611fa657604052565b90601f801991011681019081106001600160401b03821117611fa657604052565b9060405191826000825492612d4a84612cbf565b908184526001948581169081600014612db95750600114612d76575b5050612d7492500383612d15565b565b9093915060005260209081600020936000915b818310612da1575050612d7493508201013880612d66565b85548884018501529485019487945091830191612d89565b915050612d7494506020925060ff191682840152151560051b8201013880612d66565b60005b838110612def5750506000910152565b8181015183820152602001612ddf565b90602091612e1881518092818552858086019101612ddc565b601f01601f1916010190565b9181601f840112156104f4578235916001600160401b0383116104f457602083818601950101116104f457565b9291926001600160401b038211611fa65760405191612e7a601f8201601f191660200184612d15565b8294818452818301116104f4578281602093846000960137010152565b90601f8111612ea557505050565b600091825260208220906020601f850160051c83019410612ee1575b601f0160051c01915b828110612ed657505050565b818155600101612eca565b9092508290612ec1565b908060209392818452848401376000828201840152601f01601f191601019056fea26469706673582212209c1bbb48d402942b096c048b6d922b9b2f05f10e5f80fc2b3995485bbbbe4c4364736f6c63430008140033","opcodes":"PUSH1 0x80 DUP1 PUSH1 0x40 MSTORE CALLVALUE PUSH2 0x28 JUMPI PUSH1 0x0 DUP1 SLOAD PUSH1 0x1 PUSH1 0x1 PUSH1 0xA0 SHL SUB NOT AND CALLER OR SWAP1 SSTORE PUSH2 0x2F42 SWAP1 DUP2 PUSH2 0x2E DUP3 CODECOPY RETURN JUMPDEST PUSH1 0x0 DUP1 REVERT INVALID PUSH2 0x900 PUSH1 0x40 MSTORE PUSH1 0x4 CALLDATASIZE LT ISZERO PUSH2 0x13 JUMPI PUSH1 0x0 DUP1 REVERT JUMPDEST PUSH1 0x0 CALLDATALOAD PUSH1 0xE0 SHR DUP1 PUSH4 0xCB6AAF1 EQ PUSH2 0x2C27 JUMPI DUP1 PUSH4 0x19ED91B2 EQ PUSH2 0xAF8 JUMPI DUP1 PUSH4 0x637EEA19 EQ PUSH2 0xACF JUMPI DUP1 PUSH4 0x83361522 EQ PUSH2 0x517 JUMPI DUP1 PUSH4 0xC212D16B EQ PUSH2 0x4F9 JUMPI PUSH4 0xDBC21424 EQ PUSH2 0x5F JUMPI PUSH1 0x0 DUP1 REVERT JUMPDEST CALLVALUE PUSH2 0x4F4 JUMPI PUSH1 0x20 CALLDATASIZE PUSH1 0x3 NOT ADD SLT PUSH2 0x4F4 JUMPI PUSH1 0x4 CALLDATALOAD PUSH1 0x1 PUSH1 0x1 PUSH1 0x40 SHL SUB DUP2 GT PUSH2 0x4F4 JUMPI CALLDATASIZE PUSH1 0x23 DUP3 ADD SLT ISZERO PUSH2 0x4F4 JUMPI CALLDATASIZE DUP2 PUSH1 0x4 ADD CALLDATALOAD SWAP2 PUSH1 0x24 ADD SWAP2 PUSH2 0xA0 SWAP3 PUSH2 0x2E51 JUMP JUMPDEST PUSH1 0x40 MLOAD DUP2 DUP2 DUP1 SWAP4 MLOAD PUSH1 0x20 DUP2 SWAP4 ADD SWAP2 PUSH2 0xB7 SWAP3 PUSH2 0x2DDC JUMP JUMPDEST DUP2 ADD PUSH1 0x1 DUP2 MSTORE SUB PUSH1 0x20 ADD SWAP1 KECCAK256 DUP1 PUSH2 0x480 MSTORE PUSH2 0xD1 SWAP1 PUSH2 0x2D36 JUMP JUMPDEST PUSH2 0x480 MLOAD PUSH1 0x1 ADD PUSH2 0xE1 SWAP1 PUSH2 0x2D36 JUMP JUMPDEST PUSH2 0x380 MSTORE PUSH2 0x480 MLOAD PUSH1 0x2 ADD PUSH2 0xF5 SWAP1 PUSH2 0x2D36 JUMP JUMPDEST PUSH2 0x720 MSTORE PUSH2 0x480 MLOAD PUSH1 0x3 ADD PUSH2 0x109 SWAP1 PUSH2 0x2D36 JUMP JUMPDEST PUSH2 0x5A0 MSTORE PUSH2 0x480 MLOAD PUSH1 0x4 ADD PUSH2 0x11D SWAP1 PUSH2 0x2D36 JUMP JUMPDEST PUSH2 0x480 MLOAD PUSH1 0x5 ADD PUSH2 0x12D SWAP1 PUSH2 0x2D36 JUMP JUMPDEST PUSH2 0x480 MLOAD PUSH1 0x6 ADD PUSH2 0x13D SWAP1 PUSH2 0x2D36 JUMP JUMPDEST PUSH2 0x480 MLOAD PUSH1 0x7 ADD PUSH2 0x14D SWAP1 PUSH2 0x2D36 JUMP JUMPDEST PUSH2 0x480 MLOAD PUSH1 0x8 ADD PUSH2 0x15D SWAP1 PUSH2 0x2D36 JUMP JUMPDEST PUSH2 0x480 MLOAD PUSH1 0x9 ADD PUSH2 0x16D SWAP1 PUSH2 0x2D36 JUMP JUMPDEST PUSH2 0x480 MLOAD PUSH1 0xA ADD PUSH2 0x17D SWAP1 PUSH2 0x2D36 JUMP JUMPDEST SWAP2 PUSH2 0x480 MLOAD PUSH1 0xB ADD PUSH2 0x18E SWAP1 PUSH2 0x2D36 JUMP JUMPDEST SWAP4 PUSH2 0x480 MLOAD PUSH1 0xC ADD PUSH2 0x19F SWAP1 PUSH2 0x2D36 JUMP JUMPDEST SWAP6 PUSH2 0x480 MLOAD PUSH1 0xD ADD PUSH2 0x1B0 SWAP1 PUSH2 0x2D36 JUMP JUMPDEST SWAP8 PUSH2 0x480 MLOAD PUSH1 0xE ADD PUSH2 0x1C1 SWAP1 PUSH2 0x2D36 JUMP JUMPDEST SWAP10 PUSH2 0x480 MLOAD PUSH1 0xF ADD PUSH2 0x1D2 SWAP1 PUSH2 0x2D36 JUMP JUMPDEST SWAP12 PUSH2 0x480 MLOAD PUSH1 0x10 ADD PUSH2 0x1E3 SWAP1 PUSH2 0x2D36 JUMP JUMPDEST PUSH2 0x840 MSTORE PUSH2 0x480 MLOAD PUSH1 0x11 ADD PUSH2 0x1F7 SWAP1 PUSH2 0x2D36 JUMP JUMPDEST PUSH2 0x780 MSTORE PUSH2 0x480 MLOAD PUSH1 0x12 ADD PUSH2 0x20B SWAP1 PUSH2 0x2D36 JUMP JUMPDEST PUSH2 0x740 MSTORE PUSH2 0x480 MLOAD PUSH1 0x13 ADD PUSH2 0x21F SWAP1 PUSH2 0x2D36 JUMP JUMPDEST PUSH2 0x8A0 MSTORE PUSH2 0x480 MLOAD PUSH1 0x14 ADD PUSH2 0x233 SWAP1 PUSH2 0x2D36 JUMP JUMPDEST PUSH2 0x880 MSTORE PUSH2 0x480 MLOAD PUSH1 0x15 ADD PUSH2 0x247 SWAP1 PUSH2 0x2D36 JUMP JUMPDEST PUSH2 0x620 MSTORE PUSH2 0x480 MLOAD PUSH1 0x16 ADD PUSH2 0x25B SWAP1 PUSH2 0x2D36 JUMP JUMPDEST PUSH2 0x860 MSTORE PUSH2 0x480 MLOAD PUSH1 0x17 ADD PUSH2 0x26F SWAP1 PUSH2 0x2D36 JUMP JUMPDEST PUSH2 0x600 MSTORE PUSH2 0x480 MLOAD PUSH1 0x18 ADD PUSH2 0x283 SWAP1 PUSH2 0x2D36 JUMP JUMPDEST PUSH2 0x4A0 MSTORE PUSH1 0x40 MLOAD DUP1 PUSH2 0x2A0 MSTORE PUSH2 0x320 DUP1 SWAP2 MSTORE PUSH2 0x2A0 MLOAD ADD PUSH2 0x2A3 SWAP2 PUSH2 0x2DFF JUMP JUMPDEST PUSH2 0x2A0 MLOAD DUP1 DUP3 SUB SWAP1 PUSH1 0x20 ADD MSTORE PUSH2 0x380 MLOAD SWAP1 PUSH2 0x2BD SWAP2 PUSH2 0x2DFF JUMP JUMPDEST PUSH2 0x2A0 MLOAD DUP1 DUP3 SUB SWAP1 PUSH1 0x40 ADD MSTORE PUSH2 0x720 MLOAD SWAP1 PUSH2 0x2D7 SWAP2 PUSH2 0x2DFF JUMP JUMPDEST PUSH2 0x2A0 MLOAD DUP1 DUP3 SUB SWAP1 PUSH1 0x60 ADD MSTORE PUSH2 0x5A0 MLOAD SWAP1 PUSH2 0x2F1 SWAP2 PUSH2 0x2DFF JUMP JUMPDEST PUSH2 0x2A0 MLOAD DUP1 DUP3 SUB SWAP1 PUSH1 0x80 ADD MSTORE PUSH2 0x306 SWAP2 PUSH2 0x2DFF JUMP JUMPDEST PUSH2 0x2A0 MLOAD DUP1 DUP3 SUB SWAP1 PUSH1 0xA0 ADD MSTORE PUSH2 0x31B SWAP2 PUSH2 0x2DFF JUMP JUMPDEST PUSH2 0x2A0 MLOAD DUP1 DUP3 SUB SWAP1 PUSH1 0xC0 ADD MSTORE PUSH2 0x330 SWAP2 PUSH2 0x2DFF JUMP JUMPDEST PUSH2 0x2A0 MLOAD DUP1 DUP3 SUB SWAP1 PUSH1 0xE0 ADD MSTORE PUSH2 0x345 SWAP2 PUSH2 0x2DFF JUMP JUMPDEST PUSH2 0x2A0 MLOAD DUP1 DUP3 SUB SWAP1 PUSH2 0x100 ADD MSTORE PUSH2 0x35B SWAP2 PUSH2 0x2DFF JUMP JUMPDEST PUSH2 0x2A0 MLOAD DUP1 DUP3 SUB SWAP1 PUSH2 0x120 ADD MSTORE PUSH2 0x371 SWAP2 PUSH2 0x2DFF JUMP JUMPDEST PUSH2 0x2A0 MLOAD DUP1 DUP3 SUB SWAP1 PUSH2 0x140 ADD MSTORE PUSH2 0x387 SWAP2 PUSH2 0x2DFF JUMP JUMPDEST PUSH2 0x2A0 MLOAD DUP1 DUP3 SUB SWAP1 PUSH2 0x160 ADD MSTORE PUSH2 0x39D SWAP2 PUSH2 0x2DFF JUMP JUMPDEST PUSH2 0x2A0 MLOAD DUP1 DUP3 SUB SWAP1 PUSH2 0x180 ADD MSTORE PUSH2 0x3B3 SWAP2 PUSH2 0x2DFF JUMP JUMPDEST PUSH2 0x2A0 MLOAD DUP1 DUP3 SUB SWAP1 PUSH2 0x1A0 ADD MSTORE PUSH2 0x3C9 SWAP2 PUSH2 0x2DFF JUMP JUMPDEST PUSH2 0x2A0 MLOAD DUP1 DUP3 SUB SWAP1 PUSH2 0x1C0 ADD MSTORE PUSH2 0x3DF SWAP2 PUSH2 0x2DFF JUMP JUMPDEST PUSH2 0x2A0 MLOAD DUP1 DUP3 SUB SWAP1 PUSH2 0x1E0 ADD MSTORE PUSH2 0x3F5 SWAP2 PUSH2 0x2DFF JUMP JUMPDEST PUSH2 0x2A0 MLOAD DUP1 DUP3 SUB SWAP1 PUSH2 0x200 ADD MSTORE PUSH2 0x840 MLOAD SWAP1 PUSH2 0x410 SWAP2 PUSH2 0x2DFF JUMP JUMPDEST PUSH2 0x2A0 MLOAD DUP1 DUP3 SUB SWAP1 PUSH2 0x220 ADD MSTORE PUSH2 0x780 MLOAD SWAP1 PUSH2 0x42B SWAP2 PUSH2 0x2DFF JUMP JUMPDEST PUSH2 0x2A0 MLOAD DUP1 DUP3 SUB SWAP1 PUSH2 0x240 ADD MSTORE PUSH2 0x740 MLOAD SWAP1 PUSH2 0x446 SWAP2 PUSH2 0x2DFF JUMP JUMPDEST PUSH2 0x2A0 MLOAD DUP1 DUP3 SUB SWAP1 PUSH2 0x260 ADD MSTORE PUSH2 0x8A0 MLOAD SWAP1 PUSH2 0x461 SWAP2 PUSH2 0x2DFF JUMP JUMPDEST PUSH2 0x2A0 MLOAD DUP1 DUP3 SUB SWAP1 PUSH2 0x280 ADD MSTORE PUSH2 0x880 MLOAD SWAP1 PUSH2 0x47C SWAP2 PUSH2 0x2DFF JUMP JUMPDEST PUSH2 0x2A0 MLOAD DUP1 DUP3 SUB SWAP1 PUSH2 0x2A0 ADD MSTORE PUSH2 0x620 MLOAD SWAP1 PUSH2 0x497 SWAP2 PUSH2 0x2DFF JUMP JUMPDEST PUSH2 0x2A0 MLOAD DUP1 DUP3 SUB SWAP1 PUSH2 0x2C0 ADD MSTORE PUSH2 0x860 MLOAD SWAP1 PUSH2 0x4B2 SWAP2 PUSH2 0x2DFF JUMP JUMPDEST PUSH2 0x2A0 MLOAD DUP1 DUP3 SUB SWAP1 PUSH2 0x2E0 ADD MSTORE PUSH2 0x600 MLOAD SWAP1 PUSH2 0x4CD SWAP2 PUSH2 0x2DFF JUMP JUMPDEST PUSH2 0x2A0 MLOAD DUP1 DUP3 SUB SWAP1 PUSH2 0x300 ADD MSTORE PUSH2 0x2A0 MLOAD SWAP1 PUSH2 0x4A0 MLOAD SWAP1 PUSH2 0x4ED SWAP2 PUSH2 0x2DFF JUMP JUMPDEST SUB PUSH2 0x2A0 MLOAD RETURN JUMPDEST PUSH1 0x0 DUP1 REVERT JUMPDEST CALLVALUE PUSH2 0x4F4 JUMPI PUSH1 0x0 CALLDATASIZE PUSH1 0x3 NOT ADD SLT PUSH2 0x4F4 JUMPI PUSH1 0x20 PUSH1 0x2 SLOAD PUSH1 0x40 MLOAD SWAP1 DUP2 MSTORE RETURN JUMPDEST CALLVALUE PUSH2 0x4F4 JUMPI PUSH1 0x20 CALLDATASIZE PUSH1 0x3 NOT ADD SLT PUSH2 0x4F4 JUMPI PUSH1 0x4 CALLDATALOAD PUSH1 0x1 PUSH1 0x1 PUSH1 0x40 SHL SUB DUP2 GT PUSH2 0x4F4 JUMPI PUSH2 0x547 SWAP1 CALLDATASIZE SWAP1 PUSH1 0x4 ADD PUSH2 0x2E24 JUMP JUMPDEST SWAP1 PUSH1 0x40 MLOAD PUSH2 0x554 DUP2 PUSH2 0x2CF9 JUMP JUMPDEST PUSH1 0x60 DUP2 MSTORE PUSH1 0x20 DUP2 ADD PUSH1 0x60 SWAP1 MSTORE PUSH1 0x40 DUP2 ADD PUSH1 0x60 SWAP1 MSTORE PUSH1 0x60 DUP2 ADD PUSH1 0x60 SWAP1 MSTORE PUSH1 0x80 DUP2 ADD PUSH1 0x60 SWAP1 MSTORE PUSH1 0xA0 DUP2 ADD PUSH1 0x60 SWAP1 MSTORE PUSH1 0xC0 DUP2 ADD PUSH1 0x60 SWAP1 MSTORE PUSH1 0xE0 DUP2 ADD PUSH1 0x60 SWAP1 MSTORE PUSH2 0x100 DUP2 ADD PUSH1 0x60 SWAP1 MSTORE PUSH2 0x120 DUP2 ADD PUSH1 0x60 SWAP1 MSTORE PUSH2 0x140 DUP2 ADD PUSH1 0x60 SWAP1 MSTORE PUSH2 0x160 DUP2 ADD PUSH1 0x60 SWAP1 MSTORE PUSH2 0x180 DUP2 ADD PUSH1 0x60 SWAP1 MSTORE PUSH2 0x1A0 DUP2 ADD PUSH1 0x60 SWAP1 MSTORE PUSH2 0x1C0 DUP2 ADD PUSH1 0x60 SWAP1 MSTORE PUSH2 0x1E0 DUP2 ADD PUSH1 0x60 SWAP1 MSTORE PUSH2 0x200 DUP2 ADD PUSH1 0x60 SWAP1 MSTORE PUSH2 0x220 DUP2 ADD PUSH1 0x60 SWAP1 MSTORE PUSH2 0x240 DUP2 ADD PUSH1 0x60 SWAP1 MSTORE PUSH2 0x260 DUP2 ADD PUSH1 0x60 SWAP1 MSTORE PUSH2 0x280 DUP2 ADD PUSH1 0x60 SWAP1 MSTORE PUSH2 0x2A0 DUP2 ADD PUSH1 0x60 SWAP1 MSTORE PUSH2 0x2C0 DUP2 ADD PUSH1 0x60 SWAP1 MSTORE PUSH2 0x2E0 DUP2 ADD PUSH1 0x60 SWAP1 MSTORE PUSH2 0x300 ADD PUSH1 0x60 SWAP1 MSTORE DUP2 PUSH1 0x40 MLOAD SWAP3 DUP4 SWAP3 DUP4 CALLDATACOPY DUP2 ADD PUSH1 0x1 DUP2 MSTORE SUB PUSH1 0x20 ADD SWAP1 KECCAK256 PUSH1 0x40 MLOAD SWAP1 PUSH2 0x64A DUP3 PUSH2 0x2CF9 JUMP JUMPDEST PUSH2 0x653 DUP2 PUSH2 0x2D36 JUMP JUMPDEST DUP3 MSTORE PUSH2 0x661 PUSH1 0x1 DUP3 ADD PUSH2 0x2D36 JUMP JUMPDEST PUSH1 0x20 DUP4 ADD MSTORE PUSH2 0x672 PUSH1 0x2 DUP3 ADD PUSH2 0x2D36 JUMP JUMPDEST PUSH1 0x40 DUP4 ADD MSTORE PUSH2 0x683 PUSH1 0x3 DUP3 ADD PUSH2 0x2D36 JUMP JUMPDEST PUSH1 0x60 DUP4 ADD MSTORE PUSH2 0x694 PUSH1 0x4 DUP3 ADD PUSH2 0x2D36 JUMP JUMPDEST PUSH1 0x80 DUP4 ADD MSTORE PUSH2 0x6A5 PUSH1 0x5 DUP3 ADD PUSH2 0x2D36 JUMP JUMPDEST PUSH1 0xA0 DUP4 ADD MSTORE PUSH2 0x6B6 PUSH1 0x6 DUP3 ADD PUSH2 0x2D36 JUMP JUMPDEST PUSH1 0xC0 DUP4 ADD MSTORE PUSH2 0x6C7 PUSH1 0x7 DUP3 ADD PUSH2 0x2D36 JUMP JUMPDEST PUSH1 0xE0 DUP4 ADD MSTORE PUSH2 0x6D8 PUSH1 0x8 DUP3 ADD PUSH2 0x2D36 JUMP JUMPDEST PUSH2 0x100 DUP4 ADD MSTORE PUSH2 0x6EA PUSH1 0x9 DUP3 ADD PUSH2 0x2D36 JUMP JUMPDEST PUSH2 0x120 DUP4 ADD MSTORE PUSH2 0x6FC PUSH1 0xA DUP3 ADD PUSH2 0x2D36 JUMP JUMPDEST PUSH2 0x140 DUP4 ADD MSTORE PUSH2 0x70E PUSH1 0xB DUP3 ADD PUSH2 0x2D36 JUMP JUMPDEST PUSH2 0x160 DUP4 ADD MSTORE PUSH2 0x720 PUSH1 0xC DUP3 ADD PUSH2 0x2D36 JUMP JUMPDEST PUSH2 0x180 DUP4 ADD MSTORE PUSH2 0x732 PUSH1 0xD DUP3 ADD PUSH2 0x2D36 JUMP JUMPDEST PUSH2 0x1A0 DUP4 ADD MSTORE PUSH2 0x744 PUSH1 0xE DUP3 ADD PUSH2 0x2D36 JUMP JUMPDEST PUSH2 0x1C0 DUP4 ADD MSTORE PUSH2 0x756 PUSH1 0xF DUP3 ADD PUSH2 0x2D36 JUMP JUMPDEST PUSH2 0x1E0 DUP4 ADD MSTORE PUSH2 0x768 PUSH1 0x10 DUP3 ADD PUSH2 0x2D36 JUMP JUMPDEST PUSH2 0x200 DUP4 ADD MSTORE PUSH2 0x77A PUSH1 0x11 DUP3 ADD PUSH2 0x2D36 JUMP JUMPDEST PUSH2 0x220 DUP4 ADD MSTORE PUSH2 0x78C PUSH1 0x12 DUP3 ADD PUSH2 0x2D36 JUMP JUMPDEST PUSH2 0x240 DUP4 ADD MSTORE PUSH2 0x79E PUSH1 0x13 DUP3 ADD PUSH2 0x2D36 JUMP JUMPDEST PUSH2 0x260 DUP4 ADD MSTORE PUSH2 0x7B0 PUSH1 0x14 DUP3 ADD PUSH2 0x2D36 JUMP JUMPDEST PUSH2 0x280 DUP4 ADD MSTORE PUSH2 0x7C2 PUSH1 0x15 DUP3 ADD PUSH2 0x2D36 JUMP JUMPDEST PUSH2 0x2A0 DUP4 ADD MSTORE PUSH2 0x7D4 PUSH1 0x16 DUP3 ADD PUSH2 0x2D36 JUMP JUMPDEST PUSH2 0x2C0 DUP4 ADD MSTORE PUSH2 0x7E6 PUSH1 0x17 DUP3 ADD PUSH2 0x2D36 JUMP JUMPDEST PUSH2 0x2E0 DUP4 ADD MSTORE PUSH1 0x18 ADD PUSH2 0x7F8 SWAP1 PUSH2 0x2D36 JUMP JUMPDEST PUSH2 0x300 DUP3 ADD MSTORE PUSH1 0x40 MLOAD DUP1 SWAP2 PUSH1 0x20 DUP3 MSTORE DUP1 MLOAD PUSH1 0x20 DUP4 ADD PUSH2 0x320 SWAP1 MSTORE PUSH2 0x340 DUP4 ADD PUSH2 0x820 SWAP2 PUSH2 0x2DFF JUMP JUMPDEST PUSH1 0x20 DUP3 ADD MLOAD DUP4 DUP3 SUB PUSH1 0x1F NOT ADD PUSH1 0x40 DUP6 ADD MSTORE PUSH2 0x83B SWAP2 SWAP1 PUSH2 0x2DFF JUMP JUMPDEST PUSH1 0x40 DUP3 ADD MLOAD DUP4 DUP3 SUB PUSH1 0x1F NOT ADD PUSH1 0x60 DUP6 ADD MSTORE PUSH2 0x856 SWAP2 SWAP1 PUSH2 0x2DFF JUMP JUMPDEST PUSH1 0x60 DUP3 ADD MLOAD DUP4 DUP3 SUB PUSH1 0x1F NOT ADD PUSH1 0x80 DUP6 ADD MSTORE PUSH2 0x871 SWAP2 SWAP1 PUSH2 0x2DFF JUMP JUMPDEST PUSH1 0x80 DUP3 ADD MLOAD DUP4 DUP3 SUB PUSH1 0x1F NOT ADD PUSH1 0xA0 DUP6 ADD MSTORE PUSH2 0x88C SWAP2 SWAP1 PUSH2 0x2DFF JUMP JUMPDEST PUSH1 0xA0 DUP3 ADD MLOAD DUP4 DUP3 SUB PUSH1 0x1F NOT ADD PUSH1 0xC0 DUP6 ADD MSTORE PUSH2 0x8A7 SWAP2 SWAP1 PUSH2 0x2DFF JUMP JUMPDEST PUSH1 0xC0 DUP3 ADD MLOAD DUP4 DUP3 SUB PUSH1 0x1F NOT ADD PUSH1 0xE0 DUP6 ADD MSTORE PUSH2 0x8C2 SWAP2 SWAP1 PUSH2 0x2DFF JUMP JUMPDEST PUSH1 0xE0 DUP3 ADD MLOAD DUP4 DUP3 SUB PUSH1 0x1F NOT ADD PUSH2 0x100 DUP6 ADD MSTORE PUSH2 0x8DE SWAP2 SWAP1 PUSH2 0x2DFF JUMP JUMPDEST PUSH2 0x100 DUP3 ADD MLOAD DUP4 DUP3 SUB PUSH1 0x1F NOT ADD PUSH2 0x120 DUP6 ADD MSTORE PUSH2 0x8FB SWAP2 SWAP1 PUSH2 0x2DFF JUMP JUMPDEST PUSH2 0x120 DUP3 ADD MLOAD DUP4 DUP3 SUB PUSH1 0x1F NOT ADD PUSH2 0x140 DUP6 ADD MSTORE PUSH2 0x918 SWAP2 SWAP1 PUSH2 0x2DFF JUMP JUMPDEST PUSH2 0x140 DUP3 ADD MLOAD DUP4 DUP3 SUB PUSH1 0x1F NOT ADD PUSH2 0x160 DUP6 ADD MSTORE PUSH2 0x935 SWAP2 SWAP1 PUSH2 0x2DFF JUMP JUMPDEST PUSH2 0x160 DUP3 ADD MLOAD DUP4 DUP3 SUB PUSH1 0x1F NOT ADD PUSH2 0x180 DUP6 ADD MSTORE PUSH2 0x952 SWAP2 SWAP1 PUSH2 0x2DFF JUMP JUMPDEST PUSH2 0x180 DUP3 ADD MLOAD DUP4 DUP3 SUB PUSH1 0x1F NOT ADD PUSH2 0x1A0 DUP6 ADD MSTORE PUSH2 0x96F SWAP2 SWAP1 PUSH2 0x2DFF JUMP JUMPDEST PUSH2 0x1A0 DUP3 ADD MLOAD DUP4 DUP3 SUB PUSH1 0x1F NOT ADD PUSH2 0x1C0 DUP6 ADD MSTORE PUSH2 0x98C SWAP2 SWAP1 PUSH2 0x2DFF JUMP JUMPDEST PUSH2 0x1C0 DUP3 ADD MLOAD DUP4 DUP3 SUB PUSH1 0x1F NOT ADD PUSH2 0x1E0 DUP6 ADD MSTORE PUSH2 0x9A9 SWAP2 SWAP1 PUSH2 0x2DFF JUMP JUMPDEST PUSH2 0x1E0 DUP3 ADD MLOAD DUP4 DUP3 SUB PUSH1 0x1F NOT ADD PUSH2 0x200 DUP6 ADD MSTORE PUSH2 0x9C6 SWAP2 SWAP1 PUSH2 0x2DFF JUMP JUMPDEST PUSH2 0x200 DUP3 ADD MLOAD DUP4 DUP3 SUB PUSH1 0x1F NOT ADD PUSH2 0x220 DUP6 ADD MSTORE PUSH2 0x9E3 SWAP2 SWAP1 PUSH2 0x2DFF JUMP JUMPDEST PUSH2 0x220 DUP3 ADD MLOAD DUP4 DUP3 SUB PUSH1 0x1F NOT ADD PUSH2 0x240 DUP6 ADD MSTORE PUSH2 0xA00 SWAP2 SWAP1 PUSH2 0x2DFF JUMP JUMPDEST PUSH2 0x240 DUP3 ADD MLOAD DUP4 DUP3 SUB PUSH1 0x1F NOT ADD PUSH2 0x260 DUP6 ADD MSTORE PUSH2 0xA1D SWAP2 SWAP1 PUSH2 0x2DFF JUMP JUMPDEST PUSH2 0x260 DUP3 ADD MLOAD DUP4 DUP3 SUB PUSH1 0x1F NOT ADD PUSH2 0x280 DUP6 ADD MSTORE PUSH2 0xA3A SWAP2 SWAP1 PUSH2 0x2DFF JUMP JUMPDEST PUSH2 0x280 DUP3 ADD MLOAD DUP4 DUP3 SUB PUSH1 0x1F NOT ADD PUSH2 0x2A0 DUP6 ADD MSTORE PUSH2 0xA57 SWAP2 SWAP1 PUSH2 0x2DFF JUMP JUMPDEST PUSH2 0x2A0 DUP3 ADD MLOAD DUP4 DUP3 SUB PUSH1 0x1F NOT ADD PUSH2 0x2C0 DUP6 ADD MSTORE PUSH2 0xA74 SWAP2 SWAP1 PUSH2 0x2DFF JUMP JUMPDEST PUSH2 0x2C0 DUP3 ADD MLOAD DUP4 DUP3 SUB PUSH1 0x1F NOT ADD PUSH2 0x2E0 DUP6 ADD MSTORE PUSH2 0xA91 SWAP2 SWAP1 PUSH2 0x2DFF JUMP JUMPDEST PUSH2 0x2E0 DUP3 ADD MLOAD DUP4 DUP3 SUB PUSH1 0x1F NOT ADD PUSH2 0x300 DUP6 ADD MSTORE PUSH2 0xAAE SWAP2 SWAP1 PUSH2 0x2DFF JUMP JUMPDEST SWAP1 PUSH2 0x300 ADD MLOAD SWAP1 PUSH1 0x1F NOT DUP4 DUP3 SUB ADD PUSH2 0x320 DUP5 ADD MSTORE PUSH2 0xACB SWAP2 PUSH2 0x2DFF JUMP JUMPDEST SUB SWAP1 RETURN JUMPDEST CALLVALUE PUSH2 0x4F4 JUMPI PUSH1 0x0 CALLDATASIZE PUSH1 0x3 NOT ADD SLT PUSH2 0x4F4 JUMPI PUSH1 0x0 SLOAD PUSH1 0x40 MLOAD PUSH1 0x1 PUSH1 0x1 PUSH1 0xA0 SHL SUB SWAP1 SWAP2 AND DUP2 MSTORE PUSH1 0x20 SWAP1 RETURN JUMPDEST CALLVALUE PUSH2 0x4F4 JUMPI PUSH2 0x340 CALLDATASIZE PUSH1 0x3 NOT ADD SLT PUSH2 0x4F4 JUMPI PUSH1 0x4 CALLDATALOAD PUSH1 0x1 PUSH1 0x1 PUSH1 0x40 SHL SUB DUP2 GT PUSH2 0x4F4 JUMPI PUSH2 0xB29 SWAP1 CALLDATASIZE SWAP1 PUSH1 0x4 ADD PUSH2 0x2E24 JUMP JUMPDEST PUSH2 0x140 MSTORE PUSH2 0x8C0 MSTORE PUSH1 0x24 CALLDATALOAD PUSH1 0x1 PUSH1 0x1 PUSH1 0x40 SHL SUB DUP2 GT PUSH2 0x4F4 JUMPI PUSH2 0xB50 SWAP1 CALLDATASIZE SWAP1 PUSH1 0x4 ADD PUSH2 0x2E24 JUMP JUMPDEST PUSH2 0x2E0 MSTORE PUSH2 0x7C0 MSTORE PUSH1 0x44 CALLDATALOAD PUSH1 0x1 PUSH1 0x1 PUSH1 0x40 SHL SUB DUP2 GT PUSH2 0x4F4 JUMPI PUSH2 0xB77 SWAP1 CALLDATASIZE SWAP1 PUSH1 0x4 ADD PUSH2 0x2E24 JUMP JUMPDEST PUSH2 0x660 MSTORE PUSH2 0x340 MSTORE PUSH1 0x64 CALLDATALOAD PUSH1 0x1 PUSH1 0x1 PUSH1 0x40 SHL SUB DUP2 GT PUSH2 0x4F4 JUMPI PUSH2 0xB9E SWAP1 CALLDATASIZE SWAP1 PUSH1 0x4 ADD PUSH2 0x2E24 JUMP JUMPDEST PUSH2 0x7E0 MSTORE PUSH2 0x580 MSTORE PUSH1 0x84 CALLDATALOAD PUSH1 0x1 PUSH1 0x1 PUSH1 0x40 SHL SUB DUP2 GT PUSH2 0x4F4 JUMPI PUSH2 0xBC5 SWAP1 CALLDATASIZE SWAP1 PUSH1 0x4 ADD PUSH2 0x2E24 JUMP JUMPDEST PUSH1 0xE0 MSTORE PUSH2 0x2C0 MSTORE PUSH1 0x1 PUSH1 0x1 PUSH1 0x40 SHL SUB PUSH1 0xA4 CALLDATALOAD GT PUSH2 0x4F4 JUMPI PUSH2 0xBEB CALLDATASIZE PUSH1 0xA4 CALLDATALOAD PUSH1 0x4 ADD PUSH2 0x2E24 JUMP JUMPDEST PUSH2 0x200 MSTORE PUSH2 0x460 MSTORE PUSH1 0x1 PUSH1 0x1 PUSH1 0x40 SHL SUB PUSH1 0xC4 CALLDATALOAD GT PUSH2 0x4F4 JUMPI PUSH2 0xC12 CALLDATASIZE PUSH1 0xC4 CALLDATALOAD PUSH1 0x4 ADD PUSH2 0x2E24 JUMP JUMPDEST PUSH2 0x4E0 MSTORE PUSH2 0x1E0 MSTORE PUSH1 0x1 PUSH1 0x1 PUSH1 0x40 SHL SUB PUSH1 0xE4 CALLDATALOAD GT PUSH2 0x4F4 JUMPI PUSH2 0xC39 CALLDATASIZE PUSH1 0xE4 CALLDATALOAD PUSH1 0x4 ADD PUSH2 0x2E24 JUMP JUMPDEST PUSH2 0x700 MSTORE PUSH2 0x400 MSTORE PUSH1 0x1 PUSH1 0x1 PUSH1 0x40 SHL SUB PUSH2 0x104 CALLDATALOAD GT PUSH2 0x4F4 JUMPI PUSH2 0xC62 CALLDATASIZE PUSH2 0x104 CALLDATALOAD PUSH1 0x4 ADD PUSH2 0x2E24 JUMP JUMPDEST PUSH2 0x520 MSTORE PUSH1 0x80 MSTORE PUSH1 0x1 PUSH1 0x1 PUSH1 0x40 SHL SUB PUSH2 0x124 CALLDATALOAD GT PUSH2 0x4F4 JUMPI PUSH2 0xC8A CALLDATASIZE PUSH2 0x124 CALLDATALOAD PUSH1 0x4 ADD PUSH2 0x2E24 JUMP JUMPDEST PUSH2 0x160 MSTORE PUSH2 0x260 MSTORE PUSH1 0x1 PUSH1 0x1 PUSH1 0x40 SHL SUB PUSH2 0x144 CALLDATALOAD GT PUSH2 0x4F4 JUMPI PUSH2 0xCB3 CALLDATASIZE PUSH2 0x144 CALLDATALOAD PUSH1 0x4 ADD PUSH2 0x2E24 JUMP JUMPDEST PUSH2 0x5E0 MSTORE PUSH2 0x820 MSTORE PUSH1 0x1 PUSH1 0x1 PUSH1 0x40 SHL SUB PUSH2 0x164 CALLDATALOAD GT PUSH2 0x4F4 JUMPI PUSH2 0xCDC CALLDATASIZE PUSH2 0x164 CALLDATALOAD PUSH1 0x4 ADD PUSH2 0x2E24 JUMP JUMPDEST PUSH2 0x680 MSTORE PUSH2 0x180 MSTORE PUSH1 0x1 PUSH1 0x1 PUSH1 0x40 SHL SUB PUSH2 0x184 CALLDATALOAD GT PUSH2 0x4F4 JUMPI PUSH2 0xD05 CALLDATASIZE PUSH2 0x184 CALLDATALOAD PUSH1 0x4 ADD PUSH2 0x2E24 JUMP JUMPDEST PUSH2 0x3E0 MSTORE PUSH2 0x420 MSTORE PUSH1 0x1 PUSH1 0x1 PUSH1 0x40 SHL SUB PUSH2 0x1A4 CALLDATALOAD GT PUSH2 0x4F4 JUMPI PUSH2 0xD2E CALLDATASIZE PUSH2 0x1A4 CALLDATALOAD PUSH1 0x4 ADD PUSH2 0x2E24 JUMP JUMPDEST PUSH2 0x7A0 MSTORE PUSH2 0x8E0 MSTORE PUSH1 0x1 PUSH1 0x1 PUSH1 0x40 SHL SUB PUSH2 0x1C4 CALLDATALOAD GT PUSH2 0x4F4 JUMPI PUSH2 0xD57 CALLDATASIZE PUSH2 0x1C4 CALLDATALOAD PUSH1 0x4 ADD PUSH2 0x2E24 JUMP JUMPDEST PUSH2 0x800 MSTORE PUSH2 0x360 MSTORE PUSH1 0x1 PUSH1 0x1 PUSH1 0x40 SHL SUB PUSH2 0x1E4 CALLDATALOAD GT PUSH2 0x4F4 JUMPI PUSH2 0xD80 CALLDATASIZE PUSH2 0x1E4 CALLDATALOAD PUSH1 0x4 ADD PUSH2 0x2E24 JUMP JUMPDEST PUSH2 0x6E0 MSTORE PUSH2 0x3A0 MSTORE PUSH1 0x1 PUSH1 0x1 PUSH1 0x40 SHL SUB PUSH2 0x204 CALLDATALOAD GT PUSH2 0x4F4 JUMPI PUSH2 0xDA9 CALLDATASIZE PUSH2 0x204 CALLDATALOAD PUSH1 0x4 ADD PUSH2 0x2E24 JUMP JUMPDEST PUSH2 0x220 MSTORE PUSH2 0x560 MSTORE PUSH1 0x1 PUSH1 0x1 PUSH1 0x40 SHL SUB PUSH2 0x224 CALLDATALOAD GT PUSH2 0x4F4 JUMPI PUSH2 0xDD2 CALLDATASIZE PUSH2 0x224 CALLDATALOAD PUSH1 0x4 ADD PUSH2 0x2E24 JUMP JUMPDEST PUSH2 0x760 MSTORE PUSH2 0x440 MSTORE PUSH1 0x1 PUSH1 0x1 PUSH1 0x40 SHL SUB PUSH2 0x244 CALLDATALOAD GT PUSH2 0x4F4 JUMPI PUSH2 0xDFB CALLDATASIZE PUSH2 0x244 CALLDATALOAD PUSH1 0x4 ADD PUSH2 0x2E24 JUMP JUMPDEST PUSH2 0x280 MSTORE PUSH2 0x6C0 MSTORE PUSH1 0x1 PUSH1 0x1 PUSH1 0x40 SHL SUB PUSH2 0x264 CALLDATALOAD GT PUSH2 0x4F4 JUMPI PUSH2 0xE24 CALLDATASIZE PUSH2 0x264 CALLDATALOAD PUSH1 0x4 ADD PUSH2 0x2E24 JUMP JUMPDEST PUSH1 0xA0 MSTORE PUSH2 0x3C0 MSTORE PUSH1 0x1 PUSH1 0x1 PUSH1 0x40 SHL SUB PUSH2 0x284 CALLDATALOAD GT PUSH2 0x4F4 JUMPI PUSH2 0xE4C CALLDATASIZE PUSH2 0x284 CALLDATALOAD PUSH1 0x4 ADD PUSH2 0x2E24 JUMP JUMPDEST PUSH2 0x1A0 MSTORE PUSH2 0x300 MSTORE PUSH1 0x1 PUSH1 0x1 PUSH1 0x40 SHL SUB PUSH2 0x2A4 CALLDATALOAD GT PUSH2 0x4F4 JUMPI PUSH2 0xE75 CALLDATASIZE PUSH2 0x2A4 CALLDATALOAD PUSH1 0x4 ADD PUSH2 0x2E24 JUMP JUMPDEST PUSH2 0x120 MSTORE PUSH2 0x6A0 MSTORE PUSH1 0x1 PUSH1 0x1 PUSH1 0x40 SHL SUB PUSH2 0x2C4 CALLDATALOAD GT PUSH2 0x4F4 JUMPI PUSH2 0xE9E CALLDATASIZE PUSH2 0x2C4 CALLDATALOAD PUSH1 0x4 ADD PUSH2 0x2E24 JUMP JUMPDEST PUSH2 0x100 MSTORE PUSH2 0x5C0 MSTORE PUSH1 0x1 PUSH1 0x1 PUSH1 0x40 SHL SUB PUSH2 0x2E4 CALLDATALOAD GT PUSH2 0x4F4 JUMPI PUSH2 0xEC7 CALLDATASIZE PUSH2 0x2E4 CALLDATALOAD PUSH1 0x4 ADD PUSH2 0x2E24 JUMP JUMPDEST PUSH2 0x4C0 MSTORE PUSH1 0xC0 MSTORE PUSH1 0x1 PUSH1 0x1 PUSH1 0x40 SHL SUB PUSH2 0x304 CALLDATALOAD GT PUSH2 0x4F4 JUMPI PUSH2 0xEEF CALLDATASIZE PUSH2 0x304 CALLDATALOAD PUSH1 0x4 ADD PUSH2 0x2E24 JUMP JUMPDEST PUSH2 0x540 MSTORE PUSH2 0x640 MSTORE PUSH1 0x1 PUSH1 0x1 PUSH1 0x40 SHL SUB PUSH2 0x324 CALLDATALOAD GT PUSH2 0x4F4 JUMPI PUSH2 0xF18 CALLDATASIZE PUSH2 0x324 CALLDATALOAD PUSH1 0x4 ADD PUSH2 0x2E24 JUMP JUMPDEST PUSH2 0x500 MSTORE PUSH2 0x240 MSTORE PUSH1 0x0 SLOAD PUSH1 0x1 PUSH1 0x1 PUSH1 0xA0 SHL SUB AND CALLER SUB PUSH2 0x2BF4 JUMPI PUSH2 0xF42 PUSH1 0x40 MLOAD DUP1 PUSH2 0x320 MSTORE PUSH2 0x2CF9 JUMP JUMPDEST PUSH2 0xF53 CALLDATASIZE PUSH2 0x2E0 MLOAD PUSH2 0x7C0 MLOAD PUSH2 0x2E51 JUMP JUMPDEST PUSH2 0x320 MLOAD MSTORE PUSH2 0xF69 CALLDATASIZE PUSH2 0x660 MLOAD PUSH2 0x340 MLOAD PUSH2 0x2E51 JUMP JUMPDEST PUSH1 0x20 PUSH2 0x320 MLOAD ADD MSTORE PUSH2 0xF82 CALLDATASIZE PUSH2 0x7E0 MLOAD PUSH2 0x580 MLOAD PUSH2 0x2E51 JUMP JUMPDEST PUSH1 0x40 PUSH2 0x320 MLOAD ADD MSTORE PUSH2 0xF9A CALLDATASIZE PUSH1 0xE0 MLOAD PUSH2 0x2C0 MLOAD PUSH2 0x2E51 JUMP JUMPDEST PUSH1 0x60 PUSH2 0x320 MLOAD ADD MSTORE PUSH2 0xFB3 CALLDATASIZE PUSH2 0x200 MLOAD PUSH2 0x460 MLOAD PUSH2 0x2E51 JUMP JUMPDEST PUSH1 0x80 PUSH2 0x320 MLOAD ADD MSTORE PUSH2 0xFCC CALLDATASIZE PUSH2 0x4E0 MLOAD PUSH2 0x1E0 MLOAD PUSH2 0x2E51 JUMP JUMPDEST PUSH1 0xA0 PUSH2 0x320 MLOAD ADD MSTORE PUSH2 0xFE5 CALLDATASIZE PUSH2 0x700 MLOAD PUSH2 0x400 MLOAD PUSH2 0x2E51 JUMP JUMPDEST PUSH1 0xC0 PUSH2 0x320 MLOAD ADD MSTORE PUSH2 0xFFD CALLDATASIZE PUSH2 0x520 MLOAD PUSH1 0x80 MLOAD PUSH2 0x2E51 JUMP JUMPDEST PUSH1 0xE0 PUSH2 0x320 MLOAD ADD MSTORE PUSH2 0x1016 CALLDATASIZE PUSH2 0x160 MLOAD PUSH2 0x260 MLOAD PUSH2 0x2E51 JUMP JUMPDEST PUSH2 0x100 PUSH2 0x320 MLOAD ADD MSTORE PUSH2 0x1030 CALLDATASIZE PUSH2 0x5E0 MLOAD PUSH2 0x820 MLOAD PUSH2 0x2E51 JUMP JUMPDEST PUSH2 0x120 PUSH2 0x320 MLOAD ADD MSTORE PUSH2 0x104A CALLDATASIZE PUSH2 0x680 MLOAD PUSH2 0x180 MLOAD PUSH2 0x2E51 JUMP JUMPDEST PUSH2 0x140 PUSH2 0x320 MLOAD ADD MSTORE PUSH2 0x1064 CALLDATASIZE PUSH2 0x3E0 MLOAD PUSH2 0x420 MLOAD PUSH2 0x2E51 JUMP JUMPDEST PUSH2 0x160 PUSH2 0x320 MLOAD ADD MSTORE PUSH2 0x107E CALLDATASIZE PUSH2 0x7A0 MLOAD PUSH2 0x8E0 MLOAD PUSH2 0x2E51 JUMP JUMPDEST PUSH2 0x180 PUSH2 0x320 MLOAD ADD MSTORE PUSH2 0x1098 CALLDATASIZE PUSH2 0x800 MLOAD PUSH2 0x360 MLOAD PUSH2 0x2E51 JUMP JUMPDEST PUSH2 0x1A0 PUSH2 0x320 MLOAD ADD MSTORE PUSH2 0x10B2 CALLDATASIZE PUSH2 0x6E0 MLOAD PUSH2 0x3A0 MLOAD PUSH2 0x2E51 JUMP JUMPDEST PUSH2 0x1C0 PUSH2 0x320 MLOAD ADD MSTORE PUSH2 0x10CC CALLDATASIZE PUSH2 0x220 MLOAD PUSH2 0x560 MLOAD PUSH2 0x2E51 JUMP JUMPDEST PUSH2 0x1E0 PUSH2 0x320 MLOAD ADD MSTORE PUSH2 0x10E6 CALLDATASIZE PUSH2 0x760 MLOAD PUSH2 0x440 MLOAD PUSH2 0x2E51 JUMP JUMPDEST PUSH2 0x200 PUSH2 0x320 MLOAD ADD MSTORE PUSH2 0x1100 CALLDATASIZE PUSH2 0x280 MLOAD PUSH2 0x6C0 MLOAD PUSH2 0x2E51 JUMP JUMPDEST PUSH2 0x220 PUSH2 0x320 MLOAD ADD MSTORE PUSH2 0x1119 CALLDATASIZE PUSH1 0xA0 MLOAD PUSH2 0x3C0 MLOAD PUSH2 0x2E51 JUMP JUMPDEST PUSH2 0x240 PUSH2 0x320 MLOAD ADD MSTORE PUSH2 0x1133 CALLDATASIZE PUSH2 0x1A0 MLOAD PUSH2 0x300 MLOAD PUSH2 0x2E51 JUMP JUMPDEST PUSH2 0x260 PUSH2 0x320 MLOAD ADD MSTORE PUSH2 0x114D CALLDATASIZE PUSH2 0x120 MLOAD PUSH2 0x6A0 MLOAD PUSH2 0x2E51 JUMP JUMPDEST PUSH2 0x280 PUSH2 0x320 MLOAD ADD MSTORE PUSH2 0x1167 CALLDATASIZE PUSH2 0x100 MLOAD PUSH2 0x5C0 MLOAD PUSH2 0x2E51 JUMP JUMPDEST PUSH2 0x2A0 PUSH2 0x320 MLOAD ADD MSTORE PUSH2 0x1180 CALLDATASIZE PUSH2 0x4C0 MLOAD PUSH1 0xC0 MLOAD PUSH2 0x2E51 JUMP JUMPDEST PUSH2 0x2C0 PUSH2 0x320 MLOAD ADD MSTORE PUSH2 0x119A CALLDATASIZE PUSH2 0x540 MLOAD PUSH2 0x640 MLOAD PUSH2 0x2E51 JUMP JUMPDEST PUSH2 0x2E0 PUSH2 0x320 MLOAD ADD MSTORE PUSH2 0x11B4 CALLDATASIZE PUSH2 0x500 MLOAD PUSH2 0x240 MLOAD PUSH2 0x2E51 JUMP JUMPDEST PUSH2 0x300 PUSH2 0x320 MLOAD ADD MSTORE PUSH1 0x40 MLOAD PUSH2 0x140 MLOAD PUSH2 0x8C0 MLOAD DUP3 CALLDATACOPY PUSH1 0x1 PUSH2 0x140 MLOAD DUP3 ADD MSTORE PUSH1 0x20 DUP2 PUSH2 0x140 MLOAD DUP2 ADD SUB ADD SWAP1 KECCAK256 PUSH2 0x320 MLOAD MLOAD DUP1 MLOAD SWAP1 PUSH1 0x1 PUSH1 0x1 PUSH1 0x40 SHL SUB DUP3 GT PUSH2 0x1FA6 JUMPI DUP2 SWAP1 PUSH2 0x120C DUP3 PUSH2 0x1206 DUP7 SLOAD PUSH2 0x2CBF JUMP JUMPDEST DUP7 PUSH2 0x2E97 JUMP JUMPDEST PUSH1 0x20 SWAP1 PUSH1 0x1F DUP4 GT PUSH1 0x1 EQ PUSH2 0x2B88 JUMPI PUSH1 0x0 SWAP3 PUSH2 0x2B7D JUMPI JUMPDEST POP POP DUP2 PUSH1 0x1 SHL SWAP2 PUSH1 0x0 NOT SWAP1 PUSH1 0x3 SHL SHR NOT AND OR DUP2 SSTORE JUMPDEST PUSH1 0x20 PUSH2 0x320 MLOAD ADD MLOAD DUP1 MLOAD SWAP1 PUSH1 0x1 PUSH1 0x1 PUSH1 0x40 SHL SUB DUP3 GT PUSH2 0x1FA6 JUMPI DUP2 SWAP1 PUSH2 0x126C DUP3 PUSH2 0x1263 PUSH1 0x1 DUP8 ADD SLOAD PUSH2 0x2CBF JUMP JUMPDEST PUSH1 0x1 DUP8 ADD PUSH2 0x2E97 JUMP JUMPDEST PUSH1 0x20 SWAP1 PUSH1 0x1F DUP4 GT PUSH1 0x1 EQ PUSH2 0x2B0B JUMPI PUSH1 0x0 SWAP3 PUSH2 0x2B00 JUMPI JUMPDEST POP POP DUP2 PUSH1 0x1 SHL SWAP2 PUSH1 0x0 NOT SWAP1 PUSH1 0x3 SHL SHR NOT AND OR PUSH1 0x1 DUP3 ADD SSTORE JUMPDEST PUSH1 0x40 PUSH2 0x320 MLOAD ADD MLOAD DUP1 MLOAD SWAP1 PUSH1 0x1 PUSH1 0x1 PUSH1 0x40 SHL SUB DUP3 GT PUSH2 0x1FA6 JUMPI DUP2 SWAP1 PUSH2 0x12CF DUP3 PUSH2 0x12C6 PUSH1 0x2 DUP8 ADD SLOAD PUSH2 0x2CBF JUMP JUMPDEST PUSH1 0x2 DUP8 ADD PUSH2 0x2E97 JUMP JUMPDEST PUSH1 0x20 SWAP1 PUSH1 0x1F DUP4 GT PUSH1 0x1 EQ PUSH2 0x2A8E JUMPI PUSH1 0x0 SWAP3 PUSH2 0x2A83 JUMPI JUMPDEST POP POP DUP2 PUSH1 0x1 SHL SWAP2 PUSH1 0x0 NOT SWAP1 PUSH1 0x3 SHL SHR NOT AND OR PUSH1 0x2 DUP3 ADD SSTORE JUMPDEST PUSH1 0x60 PUSH2 0x320 MLOAD ADD MLOAD DUP1 MLOAD SWAP1 PUSH1 0x1 PUSH1 0x1 PUSH1 0x40 SHL SUB DUP3 GT PUSH2 0x1FA6 JUMPI DUP2 SWAP1 PUSH2 0x1332 DUP3 PUSH2 0x1329 PUSH1 0x3 DUP8 ADD SLOAD PUSH2 0x2CBF JUMP JUMPDEST PUSH1 0x3 DUP8 ADD PUSH2 0x2E97 JUMP JUMPDEST PUSH1 0x20 SWAP1 PUSH1 0x1F DUP4 GT PUSH1 0x1 EQ PUSH2 0x2A11 JUMPI PUSH1 0x0 SWAP3 PUSH2 0x2A06 JUMPI JUMPDEST POP POP DUP2 PUSH1 0x1 SHL SWAP2 PUSH1 0x0 NOT SWAP1 PUSH1 0x3 SHL SHR NOT AND OR PUSH1 0x3 DUP3 ADD SSTORE JUMPDEST PUSH1 0x80 PUSH2 0x320 MLOAD ADD MLOAD DUP1 MLOAD SWAP1 PUSH1 0x1 PUSH1 0x1 PUSH1 0x40 SHL SUB DUP3 GT PUSH2 0x1FA6 JUMPI DUP2 SWAP1 PUSH2 0x1395 DUP3 PUSH2 0x138C PUSH1 0x4 DUP8 ADD SLOAD PUSH2 0x2CBF JUMP JUMPDEST PUSH1 0x4 DUP8 ADD PUSH2 0x2E97 JUMP JUMPDEST PUSH1 0x20 SWAP1 PUSH1 0x1F DUP4 GT PUSH1 0x1 EQ PUSH2 0x2994 JUMPI PUSH1 0x0 SWAP3 PUSH2 0x2989 JUMPI JUMPDEST POP POP DUP2 PUSH1 0x1 SHL SWAP2 PUSH1 0x0 NOT SWAP1 PUSH1 0x3 SHL SHR NOT AND OR PUSH1 0x4 DUP3 ADD SSTORE JUMPDEST PUSH1 0xA0 PUSH2 0x320 MLOAD ADD MLOAD DUP1 MLOAD SWAP1 PUSH1 0x1 PUSH1 0x1 PUSH1 0x40 SHL SUB DUP3 GT PUSH2 0x1FA6 JUMPI DUP2 SWAP1 PUSH2 0x13F8 DUP3 PUSH2 0x13EF PUSH1 0x5 DUP8 ADD SLOAD PUSH2 0x2CBF JUMP JUMPDEST PUSH1 0x5 DUP8 ADD PUSH2 0x2E97 JUMP JUMPDEST PUSH1 0x20 SWAP1 PUSH1 0x1F DUP4 GT PUSH1 0x1 EQ PUSH2 0x2917 JUMPI PUSH1 0x0 SWAP3 PUSH2 0x290C JUMPI JUMPDEST POP POP DUP2 PUSH1 0x1 SHL SWAP2 PUSH1 0x0 NOT SWAP1 PUSH1 0x3 SHL SHR NOT AND OR PUSH1 0x5 DUP3 ADD SSTORE JUMPDEST PUSH1 0xC0 PUSH2 0x320 MLOAD ADD MLOAD DUP1 MLOAD SWAP1 PUSH1 0x1 PUSH1 0x1 PUSH1 0x40 SHL SUB DUP3 GT PUSH2 0x1FA6 JUMPI DUP2 SWAP1 PUSH2 0x145B DUP3 PUSH2 0x1452 PUSH1 0x6 DUP8 ADD SLOAD PUSH2 0x2CBF JUMP JUMPDEST PUSH1 0x6 DUP8 ADD PUSH2 0x2E97 JUMP JUMPDEST PUSH1 0x20 SWAP1 PUSH1 0x1F DUP4 GT PUSH1 0x1 EQ PUSH2 0x289A JUMPI PUSH1 0x0 SWAP3 PUSH2 0x288F JUMPI JUMPDEST POP POP DUP2 PUSH1 0x1 SHL SWAP2 PUSH1 0x0 NOT SWAP1 PUSH1 0x3 SHL SHR NOT AND OR PUSH1 0x6 DUP3 ADD SSTORE JUMPDEST PUSH1 0xE0 PUSH2 0x320 MLOAD ADD MLOAD DUP1 MLOAD SWAP1 PUSH1 0x1 PUSH1 0x1 PUSH1 0x40 SHL SUB DUP3 GT PUSH2 0x1FA6 JUMPI DUP2 SWAP1 PUSH2 0x14BE DUP3 PUSH2 0x14B5 PUSH1 0x7 DUP8 ADD SLOAD PUSH2 0x2CBF JUMP JUMPDEST PUSH1 0x7 DUP8 ADD PUSH2 0x2E97 JUMP JUMPDEST PUSH1 0x20 SWAP1 PUSH1 0x1F DUP4 GT PUSH1 0x1 EQ PUSH2 0x281D JUMPI PUSH1 0x0 SWAP3 PUSH2 0x2812 JUMPI JUMPDEST POP POP DUP2 PUSH1 0x1 SHL SWAP2 PUSH1 0x0 NOT SWAP1 PUSH1 0x3 SHL SHR NOT AND OR PUSH1 0x7 DUP3 ADD SSTORE JUMPDEST PUSH2 0x100 PUSH2 0x320 MLOAD ADD MLOAD DUP1 MLOAD SWAP1 PUSH1 0x1 PUSH1 0x1 PUSH1 0x40 SHL SUB DUP3 GT PUSH2 0x1FA6 JUMPI DUP2 SWAP1 PUSH2 0x1522 DUP3 PUSH2 0x1519 PUSH1 0x8 DUP8 ADD SLOAD PUSH2 0x2CBF JUMP JUMPDEST PUSH1 0x8 DUP8 ADD PUSH2 0x2E97 JUMP JUMPDEST PUSH1 0x20 SWAP1 PUSH1 0x1F DUP4 GT PUSH1 0x1 EQ PUSH2 0x27A0 JUMPI PUSH1 0x0 SWAP3 PUSH2 0x2795 JUMPI JUMPDEST POP POP DUP2 PUSH1 0x1 SHL SWAP2 PUSH1 0x0 NOT SWAP1 PUSH1 0x3 SHL SHR NOT AND OR PUSH1 0x8 DUP3 ADD SSTORE JUMPDEST PUSH2 0x120 PUSH2 0x320 MLOAD ADD MLOAD DUP1 MLOAD SWAP1 PUSH1 0x1 PUSH1 0x1 PUSH1 0x40 SHL SUB DUP3 GT PUSH2 0x1FA6 JUMPI DUP2 SWAP1 PUSH2 0x1586 DUP3 PUSH2 0x157D PUSH1 0x9 DUP8 ADD SLOAD PUSH2 0x2CBF JUMP JUMPDEST PUSH1 0x9 DUP8 ADD PUSH2 0x2E97 JUMP JUMPDEST PUSH1 0x20 SWAP1 PUSH1 0x1F DUP4 GT PUSH1 0x1 EQ PUSH2 0x2723 JUMPI PUSH1 0x0 SWAP3 PUSH2 0x2718 JUMPI JUMPDEST POP POP DUP2 PUSH1 0x1 SHL SWAP2 PUSH1 0x0 NOT SWAP1 PUSH1 0x3 SHL SHR NOT AND OR PUSH1 0x9 DUP3 ADD SSTORE JUMPDEST PUSH2 0x140 PUSH2 0x320 MLOAD ADD MLOAD DUP1 MLOAD SWAP1 PUSH1 0x1 PUSH1 0x1 PUSH1 0x40 SHL SUB DUP3 GT PUSH2 0x1FA6 JUMPI DUP2 SWAP1 PUSH2 0x15EA DUP3 PUSH2 0x15E1 PUSH1 0xA DUP8 ADD SLOAD PUSH2 0x2CBF JUMP JUMPDEST PUSH1 0xA DUP8 ADD PUSH2 0x2E97 JUMP JUMPDEST PUSH1 0x20 SWAP1 PUSH1 0x1F DUP4 GT PUSH1 0x1 EQ PUSH2 0x26A6 JUMPI PUSH1 0x0 SWAP3 PUSH2 0x269B JUMPI JUMPDEST POP POP DUP2 PUSH1 0x1 SHL SWAP2 PUSH1 0x0 NOT SWAP1 PUSH1 0x3 SHL SHR NOT AND OR PUSH1 0xA DUP3 ADD SSTORE JUMPDEST PUSH2 0x160 PUSH2 0x320 MLOAD ADD MLOAD DUP1 MLOAD SWAP1 PUSH1 0x1 PUSH1 0x1 PUSH1 0x40 SHL SUB DUP3 GT PUSH2 0x1FA6 JUMPI DUP2 SWAP1 PUSH2 0x164E DUP3 PUSH2 0x1645 PUSH1 0xB DUP8 ADD SLOAD PUSH2 0x2CBF JUMP JUMPDEST PUSH1 0xB DUP8 ADD PUSH2 0x2E97 JUMP JUMPDEST PUSH1 0x20 SWAP1 PUSH1 0x1F DUP4 GT PUSH1 0x1 EQ PUSH2 0x2629 JUMPI PUSH1 0x0 SWAP3 PUSH2 0x261E JUMPI JUMPDEST POP POP DUP2 PUSH1 0x1 SHL SWAP2 PUSH1 0x0 NOT SWAP1 PUSH1 0x3 SHL SHR NOT AND OR PUSH1 0xB DUP3 ADD SSTORE JUMPDEST PUSH2 0x180 PUSH2 0x320 MLOAD ADD MLOAD DUP1 MLOAD SWAP1 PUSH1 0x1 PUSH1 0x1 PUSH1 0x40 SHL SUB DUP3 GT PUSH2 0x1FA6 JUMPI DUP2 SWAP1 PUSH2 0x16B2 DUP3 PUSH2 0x16A9 PUSH1 0xC DUP8 ADD SLOAD PUSH2 0x2CBF JUMP JUMPDEST PUSH1 0xC DUP8 ADD PUSH2 0x2E97 JUMP JUMPDEST PUSH1 0x20 SWAP1 PUSH1 0x1F DUP4 GT PUSH1 0x1 EQ PUSH2 0x25AC JUMPI PUSH1 0x0 SWAP3 PUSH2 0x25A1 JUMPI JUMPDEST POP POP DUP2 PUSH1 0x1 SHL SWAP2 PUSH1 0x0 NOT SWAP1 PUSH1 0x3 SHL SHR NOT AND OR PUSH1 0xC DUP3 ADD SSTORE JUMPDEST PUSH2 0x1A0 PUSH2 0x320 MLOAD ADD MLOAD DUP1 MLOAD SWAP1 PUSH1 0x1 PUSH1 0x1 PUSH1 0x40 SHL SUB DUP3 GT PUSH2 0x1FA6 JUMPI DUP2 SWAP1 PUSH2 0x1716 DUP3 PUSH2 0x170D PUSH1 0xD DUP8 ADD SLOAD PUSH2 0x2CBF JUMP JUMPDEST PUSH1 0xD DUP8 ADD PUSH2 0x2E97 JUMP JUMPDEST PUSH1 0x20 SWAP1 PUSH1 0x1F DUP4 GT PUSH1 0x1 EQ PUSH2 0x252F JUMPI PUSH1 0x0 SWAP3 PUSH2 0x2524 JUMPI JUMPDEST POP POP DUP2 PUSH1 0x1 SHL SWAP2 PUSH1 0x0 NOT SWAP1 PUSH1 0x3 SHL SHR NOT AND OR PUSH1 0xD DUP3 ADD SSTORE JUMPDEST PUSH2 0x1C0 PUSH2 0x320 MLOAD ADD MLOAD DUP1 MLOAD SWAP1 PUSH1 0x1 PUSH1 0x1 PUSH1 0x40 SHL SUB DUP3 GT PUSH2 0x1FA6 JUMPI DUP2 SWAP1 PUSH2 0x177A DUP3 PUSH2 0x1771 PUSH1 0xE DUP8 ADD SLOAD PUSH2 0x2CBF JUMP JUMPDEST PUSH1 0xE DUP8 ADD PUSH2 0x2E97 JUMP JUMPDEST PUSH1 0x20 SWAP1 PUSH1 0x1F DUP4 GT PUSH1 0x1 EQ PUSH2 0x24B2 JUMPI PUSH1 0x0 SWAP3 PUSH2 0x24A7 JUMPI JUMPDEST POP POP DUP2 PUSH1 0x1 SHL SWAP2 PUSH1 0x0 NOT SWAP1 PUSH1 0x3 SHL SHR NOT AND OR PUSH1 0xE DUP3 ADD SSTORE JUMPDEST PUSH2 0x1E0 PUSH2 0x320 MLOAD ADD MLOAD DUP1 MLOAD SWAP1 PUSH1 0x1 PUSH1 0x1 PUSH1 0x40 SHL SUB DUP3 GT PUSH2 0x1FA6 JUMPI DUP2 SWAP1 PUSH2 0x17DE DUP3 PUSH2 0x17D5 PUSH1 0xF DUP8 ADD SLOAD PUSH2 0x2CBF JUMP JUMPDEST PUSH1 0xF DUP8 ADD PUSH2 0x2E97 JUMP JUMPDEST PUSH1 0x20 SWAP1 PUSH1 0x1F DUP4 GT PUSH1 0x1 EQ PUSH2 0x2435 JUMPI PUSH1 0x0 SWAP3 PUSH2 0x242A JUMPI JUMPDEST POP POP DUP2 PUSH1 0x1 SHL SWAP2 PUSH1 0x0 NOT SWAP1 PUSH1 0x3 SHL SHR NOT AND OR PUSH1 0xF DUP3 ADD SSTORE JUMPDEST PUSH2 0x200 PUSH2 0x320 MLOAD ADD MLOAD DUP1 MLOAD SWAP1 PUSH1 0x1 PUSH1 0x1 PUSH1 0x40 SHL SUB DUP3 GT PUSH2 0x1FA6 JUMPI DUP2 SWAP1 PUSH2 0x1842 DUP3 PUSH2 0x1839 PUSH1 0x10 DUP8 ADD SLOAD PUSH2 0x2CBF JUMP JUMPDEST PUSH1 0x10 DUP8 ADD PUSH2 0x2E97 JUMP JUMPDEST PUSH1 0x20 SWAP1 PUSH1 0x1F DUP4 GT PUSH1 0x1 EQ PUSH2 0x23B8 JUMPI PUSH1 0x0 SWAP3 PUSH2 0x23AD JUMPI JUMPDEST POP POP DUP2 PUSH1 0x1 SHL SWAP2 PUSH1 0x0 NOT SWAP1 PUSH1 0x3 SHL SHR NOT AND OR PUSH1 0x10 DUP3 ADD SSTORE JUMPDEST PUSH2 0x220 PUSH2 0x320 MLOAD ADD MLOAD DUP1 MLOAD SWAP1 PUSH1 0x1 PUSH1 0x1 PUSH1 0x40 SHL SUB DUP3 GT PUSH2 0x1FA6 JUMPI DUP2 SWAP1 PUSH2 0x18A6 DUP3 PUSH2 0x189D PUSH1 0x11 DUP8 ADD SLOAD PUSH2 0x2CBF JUMP JUMPDEST PUSH1 0x11 DUP8 ADD PUSH2 0x2E97 JUMP JUMPDEST PUSH1 0x20 SWAP1 PUSH1 0x1F DUP4 GT PUSH1 0x1 EQ PUSH2 0x233B JUMPI PUSH1 0x0 SWAP3 PUSH2 0x2330 JUMPI JUMPDEST POP POP DUP2 PUSH1 0x1 SHL SWAP2 PUSH1 0x0 NOT SWAP1 PUSH1 0x3 SHL SHR NOT AND OR PUSH1 0x11 DUP3 ADD SSTORE JUMPDEST PUSH2 0x240 PUSH2 0x320 MLOAD ADD MLOAD DUP1 MLOAD SWAP1 PUSH1 0x1 PUSH1 0x1 PUSH1 0x40 SHL SUB DUP3 GT PUSH2 0x1FA6 JUMPI DUP2 SWAP1 PUSH2 0x190A DUP3 PUSH2 0x1901 PUSH1 0x12 DUP8 ADD SLOAD PUSH2 0x2CBF JUMP JUMPDEST PUSH1 0x12 DUP8 ADD PUSH2 0x2E97 JUMP JUMPDEST PUSH1 0x20 SWAP1 PUSH1 0x1F DUP4 GT PUSH1 0x1 EQ PUSH2 0x22BE JUMPI PUSH1 0x0 SWAP3 PUSH2 0x22B3 JUMPI JUMPDEST POP POP DUP2 PUSH1 0x1 SHL SWAP2 PUSH1 0x0 NOT SWAP1 PUSH1 0x3 SHL SHR NOT AND OR PUSH1 0x12 DUP3 ADD SSTORE JUMPDEST PUSH2 0x260 PUSH2 0x320 MLOAD ADD MLOAD DUP1 MLOAD SWAP1 PUSH1 0x1 PUSH1 0x1 PUSH1 0x40 SHL SUB DUP3 GT PUSH2 0x1FA6 JUMPI DUP2 SWAP1 PUSH2 0x196E DUP3 PUSH2 0x1965 PUSH1 0x13 DUP8 ADD SLOAD PUSH2 0x2CBF JUMP JUMPDEST PUSH1 0x13 DUP8 ADD PUSH2 0x2E97 JUMP JUMPDEST PUSH1 0x20 SWAP1 PUSH1 0x1F DUP4 GT PUSH1 0x1 EQ PUSH2 0x2241 JUMPI PUSH1 0x0 SWAP3 PUSH2 0x2236 JUMPI JUMPDEST POP POP DUP2 PUSH1 0x1 SHL SWAP2 PUSH1 0x0 NOT SWAP1 PUSH1 0x3 SHL SHR NOT AND OR PUSH1 0x13 DUP3 ADD SSTORE JUMPDEST PUSH2 0x280 PUSH2 0x320 MLOAD ADD MLOAD DUP1 MLOAD SWAP1 PUSH1 0x1 PUSH1 0x1 PUSH1 0x40 SHL SUB DUP3 GT PUSH2 0x1FA6 JUMPI DUP2 SWAP1 PUSH2 0x19D2 DUP3 PUSH2 0x19C9 PUSH1 0x14 DUP8 ADD SLOAD PUSH2 0x2CBF JUMP JUMPDEST PUSH1 0x14 DUP8 ADD PUSH2 0x2E97 JUMP JUMPDEST PUSH1 0x20 SWAP1 PUSH1 0x1F DUP4 GT PUSH1 0x1 EQ PUSH2 0x21C4 JUMPI PUSH1 0x0 SWAP3 PUSH2 0x21B9 JUMPI JUMPDEST POP POP DUP2 PUSH1 0x1 SHL SWAP2 PUSH1 0x0 NOT SWAP1 PUSH1 0x3 SHL SHR NOT AND OR PUSH1 0x14 DUP3 ADD SSTORE JUMPDEST PUSH2 0x2A0 PUSH2 0x320 MLOAD ADD MLOAD DUP1 MLOAD SWAP1 PUSH1 0x1 PUSH1 0x1 PUSH1 0x40 SHL SUB DUP3 GT PUSH2 0x1FA6 JUMPI DUP2 SWAP1 PUSH2 0x1A36 DUP3 PUSH2 0x1A2D PUSH1 0x15 DUP8 ADD SLOAD PUSH2 0x2CBF JUMP JUMPDEST PUSH1 0x15 DUP8 ADD PUSH2 0x2E97 JUMP JUMPDEST PUSH1 0x20 SWAP1 PUSH1 0x1F DUP4 GT PUSH1 0x1 EQ PUSH2 0x2147 JUMPI PUSH1 0x0 SWAP3 PUSH2 0x213C JUMPI JUMPDEST POP POP DUP2 PUSH1 0x1 SHL SWAP2 PUSH1 0x0 NOT SWAP1 PUSH1 0x3 SHL SHR NOT AND OR PUSH1 0x15 DUP3 ADD SSTORE JUMPDEST PUSH2 0x2C0 PUSH2 0x320 MLOAD ADD MLOAD DUP1 MLOAD SWAP1 PUSH1 0x1 PUSH1 0x1 PUSH1 0x40 SHL SUB DUP3 GT PUSH2 0x1FA6 JUMPI DUP2 SWAP1 PUSH2 0x1A9A DUP3 PUSH2 0x1A91 PUSH1 0x16 DUP8 ADD SLOAD PUSH2 0x2CBF JUMP JUMPDEST PUSH1 0x16 DUP8 ADD PUSH2 0x2E97 JUMP JUMPDEST PUSH1 0x20 SWAP1 PUSH1 0x1F DUP4 GT PUSH1 0x1 EQ PUSH2 0x20CA JUMPI PUSH1 0x0 SWAP3 PUSH2 0x20BF JUMPI JUMPDEST POP POP DUP2 PUSH1 0x1 SHL SWAP2 PUSH1 0x0 NOT SWAP1 PUSH1 0x3 SHL SHR NOT AND OR PUSH1 0x16 DUP3 ADD SSTORE JUMPDEST PUSH2 0x2E0 PUSH2 0x320 MLOAD ADD MLOAD DUP1 MLOAD SWAP1 PUSH1 0x1 PUSH1 0x1 PUSH1 0x40 SHL SUB DUP3 GT PUSH2 0x1FA6 JUMPI DUP2 SWAP1 PUSH2 0x1AFE DUP3 PUSH2 0x1AF5 PUSH1 0x17 DUP8 ADD SLOAD PUSH2 0x2CBF JUMP JUMPDEST PUSH1 0x17 DUP8 ADD PUSH2 0x2E97 JUMP JUMPDEST PUSH1 0x20 SWAP1 PUSH1 0x1F DUP4 GT PUSH1 0x1 EQ PUSH2 0x204D JUMPI PUSH1 0x0 SWAP3 PUSH2 0x2042 JUMPI JUMPDEST POP POP DUP2 PUSH1 0x1 SHL SWAP2 PUSH1 0x0 NOT SWAP1 PUSH1 0x3 SHL SHR NOT AND OR PUSH1 0x17 DUP3 ADD SSTORE JUMPDEST PUSH2 0x300 PUSH2 0x320 MLOAD ADD MLOAD SWAP1 DUP2 MLOAD SWAP1 PUSH1 0x1 PUSH1 0x1 PUSH1 0x40 SHL SUB DUP3 GT PUSH2 0x1FA6 JUMPI PUSH1 0x18 ADD SWAP1 PUSH2 0x1B5F DUP2 PUSH2 0x1B59 DUP5 SLOAD PUSH2 0x2CBF JUMP JUMPDEST DUP5 PUSH2 0x2E97 JUMP JUMPDEST PUSH1 0x20 PUSH1 0x1F DUP3 GT PUSH1 0x1 EQ PUSH2 0x1FDD JUMPI DUP2 SWAP3 SWAP4 PUSH1 0x0 SWAP3 PUSH2 0x1FD2 JUMPI JUMPDEST POP POP DUP2 PUSH1 0x1 SHL SWAP2 PUSH1 0x0 NOT SWAP1 PUSH1 0x3 SHL SHR NOT AND OR SWAP1 SSTORE JUMPDEST PUSH1 0x2 SLOAD PUSH9 0x10000000000000000 DUP2 LT ISZERO PUSH2 0x1FA6 JUMPI DUP1 PUSH1 0x1 PUSH2 0x1BB0 SWAP3 ADD PUSH1 0x2 SSTORE PUSH2 0x2C72 JUMP JUMPDEST PUSH2 0x1FBC JUMPI PUSH2 0x140 MLOAD PUSH1 0x1 PUSH1 0x1 PUSH1 0x40 SHL SUB DUP2 GT PUSH2 0x1FA6 JUMPI PUSH2 0x1BDA SWAP1 PUSH2 0x1BD4 DUP4 SLOAD PUSH2 0x2CBF JUMP JUMPDEST DUP4 PUSH2 0x2E97 JUMP JUMPDEST PUSH1 0x0 SWAP1 PUSH2 0x140 MLOAD PUSH1 0x1F DUP2 GT PUSH1 0x1 EQ PUSH2 0x1F39 JUMPI POP SWAP1 PUSH1 0x0 PUSH2 0x140 MLOAD SWAP2 DUP3 PUSH2 0x1F2B JUMPI JUMPDEST POP DUP2 PUSH1 0x1 SHL SWAP2 PUSH1 0x0 NOT SWAP1 PUSH1 0x3 SHL SHR NOT AND OR SWAP1 SSTORE JUMPDEST PUSH2 0x340 PUSH1 0x40 MLOAD DUP1 PUSH2 0x1C0 MSTORE MSTORE PUSH32 0xB7ADE217C17C61C36DEF14792FD3635073960EA5F3C5A1EEF6E68F54611B2E76 PUSH2 0x1F01 PUSH2 0x1EE7 PUSH2 0x1ECE PUSH2 0x1EB4 PUSH2 0x1E9A PUSH2 0x1E80 PUSH2 0x1E67 PUSH2 0x1E4D PUSH2 0x1E33 PUSH2 0x1E19 PUSH2 0x1DFF PUSH2 0x1DE5 PUSH2 0x1DCB PUSH2 0x1DB1 PUSH2 0x1D97 PUSH2 0x1D7D PUSH2 0x1D63 PUSH2 0x1D4A PUSH2 0x1D31 PUSH2 0x1D18 PUSH2 0x1CFF PUSH2 0x1CE7 PUSH2 0x1CCE PUSH2 0x1CB5 PUSH2 0x1C9C PUSH2 0x340 PUSH2 0x1C0 MLOAD ADD PUSH2 0x140 MLOAD PUSH2 0x8C0 MLOAD PUSH2 0x2EEB JUMP JUMPDEST PUSH2 0x1C0 MLOAD PUSH1 0x20 DUP2 DUP4 SUB SWAP2 ADD MSTORE PUSH2 0x2E0 MLOAD PUSH2 0x7C0 MLOAD PUSH2 0x2EEB JUMP JUMPDEST PUSH2 0x1C0 MLOAD PUSH1 0x40 DUP2 DUP4 SUB SWAP2 ADD MSTORE PUSH2 0x660 MLOAD PUSH2 0x340 MLOAD PUSH2 0x2EEB JUMP JUMPDEST PUSH2 0x1C0 MLOAD PUSH1 0x60 DUP2 DUP4 SUB SWAP2 ADD MSTORE PUSH2 0x7E0 MLOAD PUSH2 0x580 MLOAD PUSH2 0x2EEB JUMP JUMPDEST PUSH2 0x1C0 MLOAD PUSH1 0x80 DUP2 DUP4 SUB SWAP2 ADD MSTORE PUSH1 0xE0 MLOAD PUSH2 0x2C0 MLOAD PUSH2 0x2EEB JUMP JUMPDEST PUSH2 0x1C0 MLOAD PUSH1 0xA0 DUP2 DUP4 SUB SWAP2 ADD MSTORE PUSH2 0x200 MLOAD PUSH2 0x460 MLOAD PUSH2 0x2EEB JUMP JUMPDEST PUSH2 0x1C0 MLOAD PUSH1 0xC0 DUP2 DUP4 SUB SWAP2 ADD MSTORE PUSH2 0x4E0 MLOAD PUSH2 0x1E0 MLOAD PUSH2 0x2EEB JUMP JUMPDEST PUSH2 0x1C0 MLOAD PUSH1 0xE0 DUP2 DUP4 SUB SWAP2 ADD MSTORE PUSH2 0x700 MLOAD PUSH2 0x400 MLOAD PUSH2 0x2EEB JUMP JUMPDEST PUSH2 0x1C0 MLOAD PUSH2 0x100 DUP2 DUP4 SUB SWAP2 ADD MSTORE PUSH2 0x520 MLOAD PUSH1 0x80 MLOAD PUSH2 0x2EEB JUMP JUMPDEST PUSH2 0x1C0 MLOAD PUSH2 0x120 DUP2 DUP4 SUB SWAP2 ADD MSTORE PUSH2 0x160 MLOAD PUSH2 0x260 MLOAD PUSH2 0x2EEB JUMP JUMPDEST PUSH2 0x1C0 MLOAD PUSH2 0x140 DUP2 DUP4 SUB SWAP2 ADD MSTORE PUSH2 0x5E0 MLOAD PUSH2 0x820 MLOAD PUSH2 0x2EEB JUMP JUMPDEST PUSH2 0x1C0 MLOAD PUSH2 0x160 DUP2 DUP4 SUB SWAP2 ADD MSTORE PUSH2 0x680 MLOAD PUSH2 0x180 MLOAD PUSH2 0x2EEB JUMP JUMPDEST PUSH2 0x1C0 MLOAD PUSH2 0x180 DUP2 DUP4 SUB SWAP2 ADD MSTORE PUSH2 0x3E0 MLOAD PUSH2 0x420 MLOAD PUSH2 0x2EEB JUMP JUMPDEST PUSH2 0x1C0 MLOAD PUSH2 0x1A0 DUP2 DUP4 SUB SWAP2 ADD MSTORE PUSH2 0x7A0 MLOAD PUSH2 0x8E0 MLOAD PUSH2 0x2EEB JUMP JUMPDEST PUSH2 0x1C0 MLOAD PUSH2 0x1C0 DUP2 DUP4 SUB SWAP2 ADD MSTORE PUSH2 0x800 MLOAD PUSH2 0x360 MLOAD PUSH2 0x2EEB JUMP JUMPDEST PUSH2 0x1C0 MLOAD PUSH2 0x1E0 DUP2 DUP4 SUB SWAP2 ADD MSTORE PUSH2 0x6E0 MLOAD PUSH2 0x3A0 MLOAD PUSH2 0x2EEB JUMP JUMPDEST PUSH2 0x1C0 MLOAD PUSH2 0x200 DUP2 DUP4 SUB SWAP2 ADD MSTORE PUSH2 0x220 MLOAD PUSH2 0x560 MLOAD PUSH2 0x2EEB JUMP JUMPDEST PUSH2 0x1C0 MLOAD PUSH2 0x220 DUP2 DUP4 SUB SWAP2 ADD MSTORE PUSH2 0x760 MLOAD PUSH2 0x440 MLOAD PUSH2 0x2EEB JUMP JUMPDEST PUSH2 0x1C0 MLOAD PUSH2 0x240 DUP2 DUP4 SUB SWAP2 ADD MSTORE PUSH2 0x280 MLOAD PUSH2 0x6C0 MLOAD PUSH2 0x2EEB JUMP JUMPDEST PUSH2 0x1C0 MLOAD PUSH2 0x260 DUP2 DUP4 SUB SWAP2 ADD MSTORE PUSH1 0xA0 MLOAD PUSH2 0x3C0 MLOAD PUSH2 0x2EEB JUMP JUMPDEST PUSH2 0x1C0 MLOAD PUSH2 0x280 DUP2 DUP4 SUB SWAP2 ADD MSTORE PUSH2 0x1A0 MLOAD PUSH2 0x300 MLOAD PUSH2 0x2EEB JUMP JUMPDEST PUSH2 0x1C0 MLOAD PUSH2 0x2A0 DUP2 DUP4 SUB SWAP2 ADD MSTORE PUSH2 0x120 MLOAD PUSH2 0x6A0 MLOAD PUSH2 0x2EEB JUMP JUMPDEST PUSH2 0x1C0 MLOAD PUSH2 0x2C0 DUP2 DUP4 SUB SWAP2 ADD MSTORE PUSH2 0x100 MLOAD PUSH2 0x5C0 MLOAD PUSH2 0x2EEB JUMP JUMPDEST PUSH2 0x1C0 MLOAD PUSH2 0x2E0 DUP2 DUP4 SUB SWAP2 ADD MSTORE PUSH2 0x4C0 MLOAD PUSH1 0xC0 MLOAD PUSH2 0x2EEB JUMP JUMPDEST PUSH2 0x1C0 MLOAD PUSH2 0x300 DUP2 DUP4 SUB SWAP2 ADD MSTORE PUSH2 0x540 MLOAD PUSH2 0x640 MLOAD PUSH2 0x2EEB JUMP JUMPDEST PUSH2 0x1C0 MLOAD PUSH2 0x320 DUP2 DUP4 SUB SWAP2 ADD MSTORE PUSH2 0x1F23 PUSH2 0x1C0 MLOAD SWAP2 PUSH2 0x500 MLOAD PUSH2 0x240 MLOAD PUSH2 0x2EEB JUMP JUMPDEST SUB PUSH2 0x1C0 MLOAD LOG1 STOP JUMPDEST SWAP1 POP PUSH2 0x8C0 MLOAD ADD CALLDATALOAD DUP4 PUSH2 0x1BFB JUMP JUMPDEST DUP2 PUSH1 0x0 MSTORE PUSH1 0x20 PUSH1 0x0 KECCAK256 PUSH1 0x0 SWAP4 PUSH2 0x8C0 MLOAD SWAP1 JUMPDEST PUSH1 0x1F NOT DUP5 AND DUP7 LT PUSH2 0x1F8E JUMPI PUSH1 0x1 SWAP5 SWAP6 POP DUP4 PUSH1 0x1F NOT DUP2 AND LT PUSH2 0x1F74 JUMPI JUMPDEST POP POP POP DUP2 SHL ADD SWAP1 SSTORE PUSH2 0x1C0F JUMP JUMPDEST ADD CALLDATALOAD PUSH1 0x0 NOT PUSH1 0x3 DUP5 SWAP1 SHL PUSH1 0xF8 AND SHR NOT AND SWAP1 SSTORE DUP4 DUP1 DUP1 PUSH2 0x1F67 JUMP JUMPDEST SWAP2 PUSH1 0x20 PUSH1 0x1 DUP2 SWAP3 DUP6 DUP6 ADD CALLDATALOAD DUP2 SSTORE ADD SWAP4 ADD SWAP6 ADD SWAP5 PUSH2 0x1F4B JUMP JUMPDEST PUSH4 0x4E487B71 PUSH1 0xE0 SHL PUSH1 0x0 MSTORE PUSH1 0x41 PUSH1 0x4 MSTORE PUSH1 0x24 PUSH1 0x0 REVERT JUMPDEST PUSH4 0x4E487B71 PUSH1 0xE0 SHL PUSH1 0x0 MSTORE PUSH1 0x0 PUSH1 0x4 MSTORE PUSH1 0x24 PUSH1 0x0 REVERT JUMPDEST ADD MLOAD SWAP1 POP DUP4 DUP1 PUSH2 0x1B77 JUMP JUMPDEST DUP3 PUSH1 0x0 MSTORE PUSH1 0x20 PUSH1 0x0 KECCAK256 SWAP1 PUSH1 0x0 SWAP5 PUSH1 0x1F NOT DUP5 AND SWAP6 JUMPDEST DUP7 DUP2 LT PUSH2 0x202A JUMPI POP DUP4 PUSH1 0x1 SWAP6 SWAP7 LT PUSH2 0x2011 JUMPI JUMPDEST POP POP POP DUP2 SHL ADD SWAP1 SSTORE PUSH2 0x1B8C JUMP JUMPDEST ADD MLOAD PUSH1 0x0 NOT PUSH1 0xF8 DUP5 PUSH1 0x3 SHL AND SHR NOT AND SWAP1 SSTORE DUP4 DUP1 DUP1 PUSH2 0x2004 JUMP JUMPDEST SWAP2 SWAP3 PUSH1 0x20 PUSH1 0x1 DUP2 SWAP3 DUP7 DUP6 ADD MLOAD DUP2 SSTORE ADD SWAP5 ADD SWAP3 ADD PUSH2 0x1FF1 JUMP JUMPDEST ADD MLOAD SWAP1 POP DUP4 DUP1 PUSH2 0x1B14 JUMP JUMPDEST SWAP3 POP PUSH1 0x17 DUP5 ADD PUSH1 0x0 MSTORE PUSH1 0x20 PUSH1 0x0 KECCAK256 SWAP1 PUSH1 0x0 SWAP4 JUMPDEST PUSH1 0x1F NOT DUP5 AND DUP6 LT PUSH2 0x20A4 JUMPI PUSH1 0x1 SWAP5 POP DUP4 PUSH1 0x1F NOT DUP2 AND LT PUSH2 0x208B JUMPI JUMPDEST POP POP POP DUP2 SHL ADD PUSH1 0x17 DUP3 ADD SSTORE PUSH2 0x1B2C JUMP JUMPDEST ADD MLOAD PUSH1 0x0 NOT PUSH1 0xF8 DUP5 PUSH1 0x3 SHL AND SHR NOT AND SWAP1 SSTORE DUP4 DUP1 DUP1 PUSH2 0x207B JUMP JUMPDEST DUP2 DUP2 ADD MLOAD DUP4 SSTORE PUSH1 0x20 SWAP5 DUP6 ADD SWAP5 PUSH1 0x1 SWAP1 SWAP4 ADD SWAP3 SWAP1 SWAP2 ADD SWAP1 PUSH2 0x2060 JUMP JUMPDEST ADD MLOAD SWAP1 POP DUP4 DUP1 PUSH2 0x1AB0 JUMP JUMPDEST SWAP3 POP PUSH1 0x16 DUP5 ADD PUSH1 0x0 MSTORE PUSH1 0x20 PUSH1 0x0 KECCAK256 SWAP1 PUSH1 0x0 SWAP4 JUMPDEST PUSH1 0x1F NOT DUP5 AND DUP6 LT PUSH2 0x2121 JUMPI PUSH1 0x1 SWAP5 POP DUP4 PUSH1 0x1F NOT DUP2 AND LT PUSH2 0x2108 JUMPI JUMPDEST POP POP POP DUP2 SHL ADD PUSH1 0x16 DUP3 ADD SSTORE PUSH2 0x1AC8 JUMP JUMPDEST ADD MLOAD PUSH1 0x0 NOT PUSH1 0xF8 DUP5 PUSH1 0x3 SHL AND SHR NOT AND SWAP1 SSTORE DUP4 DUP1 DUP1 PUSH2 0x20F8 JUMP JUMPDEST DUP2 DUP2 ADD MLOAD DUP4 SSTORE PUSH1 0x20 SWAP5 DUP6 ADD SWAP5 PUSH1 0x1 SWAP1 SWAP4 ADD SWAP3 SWAP1 SWAP2 ADD SWAP1 PUSH2 0x20DD JUMP JUMPDEST ADD MLOAD SWAP1 POP DUP4 DUP1 PUSH2 0x1A4C JUMP JUMPDEST SWAP3 POP PUSH1 0x15 DUP5 ADD PUSH1 0x0 MSTORE PUSH1 0x20 PUSH1 0x0 KECCAK256 SWAP1 PUSH1 0x0 SWAP4 JUMPDEST PUSH1 0x1F NOT DUP5 AND DUP6 LT PUSH2 0x219E JUMPI PUSH1 0x1 SWAP5 POP DUP4 PUSH1 0x1F NOT DUP2 AND LT PUSH2 0x2185 JUMPI JUMPDEST POP POP POP DUP2 SHL ADD PUSH1 0x15 DUP3 ADD SSTORE PUSH2 0x1A64 JUMP JUMPDEST ADD MLOAD PUSH1 0x0 NOT PUSH1 0xF8 DUP5 PUSH1 0x3 SHL AND SHR NOT AND SWAP1 SSTORE DUP4 DUP1 DUP1 PUSH2 0x2175 JUMP JUMPDEST DUP2 DUP2 ADD MLOAD DUP4 SSTORE PUSH1 0x20 SWAP5 DUP6 ADD SWAP5 PUSH1 0x1 SWAP1 SWAP4 ADD SWAP3 SWAP1 SWAP2 ADD SWAP1 PUSH2 0x215A JUMP JUMPDEST ADD MLOAD SWAP1 POP DUP4 DUP1 PUSH2 0x19E8 JUMP JUMPDEST SWAP3 POP PUSH1 0x14 DUP5 ADD PUSH1 0x0 MSTORE PUSH1 0x20 PUSH1 0x0 KECCAK256 SWAP1 PUSH1 0x0 SWAP4 JUMPDEST PUSH1 0x1F NOT DUP5 AND DUP6 LT PUSH2 0x221B JUMPI PUSH1 0x1 SWAP5 POP DUP4 PUSH1 0x1F NOT DUP2 AND LT PUSH2 0x2202 JUMPI JUMPDEST POP POP POP DUP2 SHL ADD PUSH1 0x14 DUP3 ADD SSTORE PUSH2 0x1A00 JUMP JUMPDEST ADD MLOAD PUSH1 0x0 NOT PUSH1 0xF8 DUP5 PUSH1 0x3 SHL AND SHR NOT AND SWAP1 SSTORE DUP4 DUP1 DUP1 PUSH2 0x21F2 JUMP JUMPDEST DUP2 DUP2 ADD MLOAD DUP4 SSTORE PUSH1 0x20 SWAP5 DUP6 ADD SWAP5 PUSH1 0x1 SWAP1 SWAP4 ADD SWAP3 SWAP1 SWAP2 ADD SWAP1 PUSH2 0x21D7 JUMP JUMPDEST ADD MLOAD SWAP1 POP DUP4 DUP1 PUSH2 0x1984 JUMP JUMPDEST SWAP3 POP PUSH1 0x13 DUP5 ADD PUSH1 0x0 MSTORE PUSH1 0x20 PUSH1 0x0 KECCAK256 SWAP1 PUSH1 0x0 SWAP4 JUMPDEST PUSH1 0x1F NOT DUP5 AND DUP6 LT PUSH2 0x2298 JUMPI PUSH1 0x1 SWAP5 POP DUP4 PUSH1 0x1F NOT DUP2 AND LT PUSH2 0x227F JUMPI JUMPDEST POP POP POP DUP2 SHL ADD PUSH1 0x13 DUP3 ADD SSTORE PUSH2 0x199C JUMP JUMPDEST ADD MLOAD PUSH1 0x0 NOT PUSH1 0xF8 DUP5 PUSH1 0x3 SHL AND SHR NOT AND SWAP1 SSTORE DUP4 DUP1 DUP1 PUSH2 0x226F JUMP JUMPDEST DUP2 DUP2 ADD MLOAD DUP4 SSTORE PUSH1 0x20 SWAP5 DUP6 ADD SWAP5 PUSH1 0x1 SWAP1 SWAP4 ADD SWAP3 SWAP1 SWAP2 ADD SWAP1 PUSH2 0x2254 JUMP JUMPDEST ADD MLOAD SWAP1 POP DUP4 DUP1 PUSH2 0x1920 JUMP JUMPDEST SWAP3 POP PUSH1 0x12 DUP5 ADD PUSH1 0x0 MSTORE PUSH1 0x20 PUSH1 0x0 KECCAK256 SWAP1 PUSH1 0x0 SWAP4 JUMPDEST PUSH1 0x1F NOT DUP5 AND DUP6 LT PUSH2 0x2315 JUMPI PUSH1 0x1 SWAP5 POP DUP4 PUSH1 0x1F NOT DUP2 AND LT PUSH2 0x22FC JUMPI JUMPDEST POP POP POP DUP2 SHL ADD PUSH1 0x12 DUP3 ADD SSTORE PUSH2 0x1938 JUMP JUMPDEST ADD MLOAD PUSH1 0x0 NOT PUSH1 0xF8 DUP5 PUSH1 0x3 SHL AND SHR NOT AND SWAP1 SSTORE DUP4 DUP1 DUP1 PUSH2 0x22EC JUMP JUMPDEST DUP2 DUP2 ADD MLOAD DUP4 SSTORE PUSH1 0x20 SWAP5 DUP6 ADD SWAP5 PUSH1 0x1 SWAP1 SWAP4 ADD SWAP3 SWAP1 SWAP2 ADD SWAP1 PUSH2 0x22D1 JUMP JUMPDEST ADD MLOAD SWAP1 POP DUP4 DUP1 PUSH2 0x18BC JUMP JUMPDEST SWAP3 POP PUSH1 0x11 DUP5 ADD PUSH1 0x0 MSTORE PUSH1 0x20 PUSH1 0x0 KECCAK256 SWAP1 PUSH1 0x0 SWAP4 JUMPDEST PUSH1 0x1F NOT DUP5 AND DUP6 LT PUSH2 0x2392 JUMPI PUSH1 0x1 SWAP5 POP DUP4 PUSH1 0x1F NOT DUP2 AND LT PUSH2 0x2379 JUMPI JUMPDEST POP POP POP DUP2 SHL ADD PUSH1 0x11 DUP3 ADD SSTORE PUSH2 0x18D4 JUMP JUMPDEST ADD MLOAD PUSH1 0x0 NOT PUSH1 0xF8 DUP5 PUSH1 0x3 SHL AND SHR NOT AND SWAP1 SSTORE DUP4 DUP1 DUP1 PUSH2 0x2369 JUMP JUMPDEST DUP2 DUP2 ADD MLOAD DUP4 SSTORE PUSH1 0x20 SWAP5 DUP6 ADD SWAP5 PUSH1 0x1 SWAP1 SWAP4 ADD SWAP3 SWAP1 SWAP2 ADD SWAP1 PUSH2 0x234E JUMP JUMPDEST ADD MLOAD SWAP1 POP DUP4 DUP1 PUSH2 0x1858 JUMP JUMPDEST SWAP3 POP PUSH1 0x10 DUP5 ADD PUSH1 0x0 MSTORE PUSH1 0x20 PUSH1 0x0 KECCAK256 SWAP1 PUSH1 0x0 SWAP4 JUMPDEST PUSH1 0x1F NOT DUP5 AND DUP6 LT PUSH2 0x240F JUMPI PUSH1 0x1 SWAP5 POP DUP4 PUSH1 0x1F NOT DUP2 AND LT PUSH2 0x23F6 JUMPI JUMPDEST POP POP POP DUP2 SHL ADD PUSH1 0x10 DUP3 ADD SSTORE PUSH2 0x1870 JUMP JUMPDEST ADD MLOAD PUSH1 0x0 NOT PUSH1 0xF8 DUP5 PUSH1 0x3 SHL AND SHR NOT AND SWAP1 SSTORE DUP4 DUP1 DUP1 PUSH2 0x23E6 JUMP JUMPDEST DUP2 DUP2 ADD MLOAD DUP4 SSTORE PUSH1 0x20 SWAP5 DUP6 ADD SWAP5 PUSH1 0x1 SWAP1 SWAP4 ADD SWAP3 SWAP1 SWAP2 ADD SWAP1 PUSH2 0x23CB JUMP JUMPDEST ADD MLOAD SWAP1 POP DUP4 DUP1 PUSH2 0x17F4 JUMP JUMPDEST SWAP3 POP PUSH1 0xF DUP5 ADD PUSH1 0x0 MSTORE PUSH1 0x20 PUSH1 0x0 KECCAK256 SWAP1 PUSH1 0x0 SWAP4 JUMPDEST PUSH1 0x1F NOT DUP5 AND DUP6 LT PUSH2 0x248C JUMPI PUSH1 0x1 SWAP5 POP DUP4 PUSH1 0x1F NOT DUP2 AND LT PUSH2 0x2473 JUMPI JUMPDEST POP POP POP DUP2 SHL ADD PUSH1 0xF DUP3 ADD SSTORE PUSH2 0x180C JUMP JUMPDEST ADD MLOAD PUSH1 0x0 NOT PUSH1 0xF8 DUP5 PUSH1 0x3 SHL AND SHR NOT AND SWAP1 SSTORE DUP4 DUP1 DUP1 PUSH2 0x2463 JUMP JUMPDEST DUP2 DUP2 ADD MLOAD DUP4 SSTORE PUSH1 0x20 SWAP5 DUP6 ADD SWAP5 PUSH1 0x1 SWAP1 SWAP4 ADD SWAP3 SWAP1 SWAP2 ADD SWAP1 PUSH2 0x2448 JUMP JUMPDEST ADD MLOAD SWAP1 POP DUP4 DUP1 PUSH2 0x1790 JUMP JUMPDEST SWAP3 POP PUSH1 0xE DUP5 ADD PUSH1 0x0 MSTORE PUSH1 0x20 PUSH1 0x0 KECCAK256 SWAP1 PUSH1 0x0 SWAP4 JUMPDEST PUSH1 0x1F NOT DUP5 AND DUP6 LT PUSH2 0x2509 JUMPI PUSH1 0x1 SWAP5 POP DUP4 PUSH1 0x1F NOT DUP2 AND LT PUSH2 0x24F0 JUMPI JUMPDEST POP POP POP DUP2 SHL ADD PUSH1 0xE DUP3 ADD SSTORE PUSH2 0x17A8 JUMP JUMPDEST ADD MLOAD PUSH1 0x0 NOT PUSH1 0xF8 DUP5 PUSH1 0x3 SHL AND SHR NOT AND SWAP1 SSTORE DUP4 DUP1 DUP1 PUSH2 0x24E0 JUMP JUMPDEST DUP2 DUP2 ADD MLOAD DUP4 SSTORE PUSH1 0x20 SWAP5 DUP6 ADD SWAP5 PUSH1 0x1 SWAP1 SWAP4 ADD SWAP3 SWAP1 SWAP2 ADD SWAP1 PUSH2 0x24C5 JUMP JUMPDEST ADD MLOAD SWAP1 POP DUP4 DUP1 PUSH2 0x172C JUMP JUMPDEST SWAP3 POP PUSH1 0xD DUP5 ADD PUSH1 0x0 MSTORE PUSH1 0x20 PUSH1 0x0 KECCAK256 SWAP1 PUSH1 0x0 SWAP4 JUMPDEST PUSH1 0x1F NOT DUP5 AND DUP6 LT PUSH2 0x2586 JUMPI PUSH1 0x1 SWAP5 POP DUP4 PUSH1 0x1F NOT DUP2 AND LT PUSH2 0x256D JUMPI JUMPDEST POP POP POP DUP2 SHL ADD PUSH1 0xD DUP3 ADD SSTORE PUSH2 0x1744 JUMP JUMPDEST ADD MLOAD PUSH1 0x0 NOT PUSH1 0xF8 DUP5 PUSH1 0x3 SHL AND SHR NOT AND SWAP1 SSTORE DUP4 DUP1 DUP1 PUSH2 0x255D JUMP JUMPDEST DUP2 DUP2 ADD MLOAD DUP4 SSTORE PUSH1 0x20 SWAP5 DUP6 ADD SWAP5 PUSH1 0x1 SWAP1 SWAP4 ADD SWAP3 SWAP1 SWAP2 ADD SWAP1 PUSH2 0x2542 JUMP JUMPDEST ADD MLOAD SWAP1 POP DUP4 DUP1 PUSH2 0x16C8 JUMP JUMPDEST SWAP3 POP PUSH1 0xC DUP5 ADD PUSH1 0x0 MSTORE PUSH1 0x20 PUSH1 0x0 KECCAK256 SWAP1 PUSH1 0x0 SWAP4 JUMPDEST PUSH1 0x1F NOT DUP5 AND DUP6 LT PUSH2 0x2603 JUMPI PUSH1 0x1 SWAP5 POP DUP4 PUSH1 0x1F NOT DUP2 AND LT PUSH2 0x25EA JUMPI JUMPDEST POP POP POP DUP2 SHL ADD PUSH1 0xC DUP3 ADD SSTORE PUSH2 0x16E0 JUMP JUMPDEST ADD MLOAD PUSH1 0x0 NOT PUSH1 0xF8 DUP5 PUSH1 0x3 SHL AND SHR NOT AND SWAP1 SSTORE DUP4 DUP1 DUP1 PUSH2 0x25DA JUMP JUMPDEST DUP2 DUP2 ADD MLOAD DUP4 SSTORE PUSH1 0x20 SWAP5 DUP6 ADD SWAP5 PUSH1 0x1 SWAP1 SWAP4 ADD SWAP3 SWAP1 SWAP2 ADD SWAP1 PUSH2 0x25BF JUMP JUMPDEST ADD MLOAD SWAP1 POP DUP4 DUP1 PUSH2 0x1664 JUMP JUMPDEST SWAP3 POP PUSH1 0xB DUP5 ADD PUSH1 0x0 MSTORE PUSH1 0x20 PUSH1 0x0 KECCAK256 SWAP1 PUSH1 0x0 SWAP4 JUMPDEST PUSH1 0x1F NOT DUP5 AND DUP6 LT PUSH2 0x2680 JUMPI PUSH1 0x1 SWAP5 POP DUP4 PUSH1 0x1F NOT DUP2 AND LT PUSH2 0x2667 JUMPI JUMPDEST POP POP POP DUP2 SHL ADD PUSH1 0xB DUP3 ADD SSTORE PUSH2 0x167C JUMP JUMPDEST ADD MLOAD PUSH1 0x0 NOT PUSH1 0xF8 DUP5 PUSH1 0x3 SHL AND SHR NOT AND SWAP1 SSTORE DUP4 DUP1 DUP1 PUSH2 0x2657 JUMP JUMPDEST DUP2 DUP2 ADD MLOAD DUP4 SSTORE PUSH1 0x20 SWAP5 DUP6 ADD SWAP5 PUSH1 0x1 SWAP1 SWAP4 ADD SWAP3 SWAP1 SWAP2 ADD SWAP1 PUSH2 0x263C JUMP JUMPDEST ADD MLOAD SWAP1 POP DUP4 DUP1 PUSH2 0x1600 JUMP JUMPDEST SWAP3 POP PUSH1 0xA DUP5 ADD PUSH1 0x0 MSTORE PUSH1 0x20 PUSH1 0x0 KECCAK256 SWAP1 PUSH1 0x0 SWAP4 JUMPDEST PUSH1 0x1F NOT DUP5 AND DUP6 LT PUSH2 0x26FD JUMPI PUSH1 0x1 SWAP5 POP DUP4 PUSH1 0x1F NOT DUP2 AND LT PUSH2 0x26E4 JUMPI JUMPDEST POP POP POP DUP2 SHL ADD PUSH1 0xA DUP3 ADD SSTORE PUSH2 0x1618 JUMP JUMPDEST ADD MLOAD PUSH1 0x0 NOT PUSH1 0xF8 DUP5 PUSH1 0x3 SHL AND SHR NOT AND SWAP1 SSTORE DUP4 DUP1 DUP1 PUSH2 0x26D4 JUMP JUMPDEST DUP2 DUP2 ADD MLOAD DUP4 SSTORE PUSH1 0x20 SWAP5 DUP6 ADD SWAP5 PUSH1 0x1 SWAP1 SWAP4 ADD SWAP3 SWAP1 SWAP2 ADD SWAP1 PUSH2 0x26B9 JUMP JUMPDEST ADD MLOAD SWAP1 POP DUP4 DUP1 PUSH2 0x159C JUMP JUMPDEST SWAP3 POP PUSH1 0x9 DUP5 ADD PUSH1 0x0 MSTORE PUSH1 0x20 PUSH1 0x0 KECCAK256 SWAP1 PUSH1 0x0 SWAP4 JUMPDEST PUSH1 0x1F NOT DUP5 AND DUP6 LT PUSH2 0x277A JUMPI PUSH1 0x1 SWAP5 POP DUP4 PUSH1 0x1F NOT DUP2 AND LT PUSH2 0x2761 JUMPI JUMPDEST POP POP POP DUP2 SHL ADD PUSH1 0x9 DUP3 ADD SSTORE PUSH2 0x15B4 JUMP JUMPDEST ADD MLOAD PUSH1 0x0 NOT PUSH1 0xF8 DUP5 PUSH1 0x3 SHL AND SHR NOT AND SWAP1 SSTORE DUP4 DUP1 DUP1 PUSH2 0x2751 JUMP JUMPDEST DUP2 DUP2 ADD MLOAD DUP4 SSTORE PUSH1 0x20 SWAP5 DUP6 ADD SWAP5 PUSH1 0x1 SWAP1 SWAP4 ADD SWAP3 SWAP1 SWAP2 ADD SWAP1 PUSH2 0x2736 JUMP JUMPDEST ADD MLOAD SWAP1 POP DUP4 DUP1 PUSH2 0x1538 JUMP JUMPDEST SWAP3 POP PUSH1 0x8 DUP5 ADD PUSH1 0x0 MSTORE PUSH1 0x20 PUSH1 0x0 KECCAK256 SWAP1 PUSH1 0x0 SWAP4 JUMPDEST PUSH1 0x1F NOT DUP5 AND DUP6 LT PUSH2 0x27F7 JUMPI PUSH1 0x1 SWAP5 POP DUP4 PUSH1 0x1F NOT DUP2 AND LT PUSH2 0x27DE JUMPI JUMPDEST POP POP POP DUP2 SHL ADD PUSH1 0x8 DUP3 ADD SSTORE PUSH2 0x1550 JUMP JUMPDEST ADD MLOAD PUSH1 0x0 NOT PUSH1 0xF8 DUP5 PUSH1 0x3 SHL AND SHR NOT AND SWAP1 SSTORE DUP4 DUP1 DUP1 PUSH2 0x27CE JUMP JUMPDEST DUP2 DUP2 ADD MLOAD DUP4 SSTORE PUSH1 0x20 SWAP5 DUP6 ADD SWAP5 PUSH1 0x1 SWAP1 SWAP4 ADD SWAP3 SWAP1 SWAP2 ADD SWAP1 PUSH2 0x27B3 JUMP JUMPDEST ADD MLOAD SWAP1 POP DUP4 DUP1 PUSH2 0x14D4 JUMP JUMPDEST SWAP3 POP PUSH1 0x7 DUP5 ADD PUSH1 0x0 MSTORE PUSH1 0x20 PUSH1 0x0 KECCAK256 SWAP1 PUSH1 0x0 SWAP4 JUMPDEST PUSH1 0x1F NOT DUP5 AND DUP6 LT PUSH2 0x2874 JUMPI PUSH1 0x1 SWAP5 POP DUP4 PUSH1 0x1F NOT DUP2 AND LT PUSH2 0x285B JUMPI JUMPDEST POP POP POP DUP2 SHL ADD PUSH1 0x7 DUP3 ADD SSTORE PUSH2 0x14EC JUMP JUMPDEST ADD MLOAD PUSH1 0x0 NOT PUSH1 0xF8 DUP5 PUSH1 0x3 SHL AND SHR NOT AND SWAP1 SSTORE DUP4 DUP1 DUP1 PUSH2 0x284B JUMP JUMPDEST DUP2 DUP2 ADD MLOAD DUP4 SSTORE PUSH1 0x20 SWAP5 DUP6 ADD SWAP5 PUSH1 0x1 SWAP1 SWAP4 ADD SWAP3 SWAP1 SWAP2 ADD SWAP1 PUSH2 0x2830 JUMP JUMPDEST ADD MLOAD SWAP1 POP DUP4 DUP1 PUSH2 0x1471 JUMP JUMPDEST SWAP3 POP PUSH1 0x6 DUP5 ADD PUSH1 0x0 MSTORE PUSH1 0x20 PUSH1 0x0 KECCAK256 SWAP1 PUSH1 0x0 SWAP4 JUMPDEST PUSH1 0x1F NOT DUP5 AND DUP6 LT PUSH2 0x28F1 JUMPI PUSH1 0x1 SWAP5 POP DUP4 PUSH1 0x1F NOT DUP2 AND LT PUSH2 0x28D8 JUMPI JUMPDEST POP POP POP DUP2 SHL ADD PUSH1 0x6 DUP3 ADD SSTORE PUSH2 0x1489 JUMP JUMPDEST ADD MLOAD PUSH1 0x0 NOT PUSH1 0xF8 DUP5 PUSH1 0x3 SHL AND SHR NOT AND SWAP1 SSTORE DUP4 DUP1 DUP1 PUSH2 0x28C8 JUMP JUMPDEST DUP2 DUP2 ADD MLOAD DUP4 SSTORE PUSH1 0x20 SWAP5 DUP6 ADD SWAP5 PUSH1 0x1 SWAP1 SWAP4 ADD SWAP3 SWAP1 SWAP2 ADD SWAP1 PUSH2 0x28AD JUMP JUMPDEST ADD MLOAD SWAP1 POP DUP4 DUP1 PUSH2 0x140E JUMP JUMPDEST SWAP3 POP PUSH1 0x5 DUP5 ADD PUSH1 0x0 MSTORE PUSH1 0x20 PUSH1 0x0 KECCAK256 SWAP1 PUSH1 0x0 SWAP4 JUMPDEST PUSH1 0x1F NOT DUP5 AND DUP6 LT PUSH2 0x296E JUMPI PUSH1 0x1 SWAP5 POP DUP4 PUSH1 0x1F NOT DUP2 AND LT PUSH2 0x2955 JUMPI JUMPDEST POP POP POP DUP2 SHL ADD PUSH1 0x5 DUP3 ADD SSTORE PUSH2 0x1426 JUMP JUMPDEST ADD MLOAD PUSH1 0x0 NOT PUSH1 0xF8 DUP5 PUSH1 0x3 SHL AND SHR NOT AND SWAP1 SSTORE DUP4 DUP1 DUP1 PUSH2 0x2945 JUMP JUMPDEST DUP2 DUP2 ADD MLOAD DUP4 SSTORE PUSH1 0x20 SWAP5 DUP6 ADD SWAP5 PUSH1 0x1 SWAP1 SWAP4 ADD SWAP3 SWAP1 SWAP2 ADD SWAP1 PUSH2 0x292A JUMP JUMPDEST ADD MLOAD SWAP1 POP DUP4 DUP1 PUSH2 0x13AB JUMP JUMPDEST SWAP3 POP PUSH1 0x4 DUP5 ADD PUSH1 0x0 MSTORE PUSH1 0x20 PUSH1 0x0 KECCAK256 SWAP1 PUSH1 0x0 SWAP4 JUMPDEST PUSH1 0x1F NOT DUP5 AND DUP6 LT PUSH2 0x29EB JUMPI PUSH1 0x1 SWAP5 POP DUP4 PUSH1 0x1F NOT DUP2 AND LT PUSH2 0x29D2 JUMPI JUMPDEST POP POP POP DUP2 SHL ADD PUSH1 0x4 DUP3 ADD SSTORE PUSH2 0x13C3 JUMP JUMPDEST ADD MLOAD PUSH1 0x0 NOT PUSH1 0xF8 DUP5 PUSH1 0x3 SHL AND SHR NOT AND SWAP1 SSTORE DUP4 DUP1 DUP1 PUSH2 0x29C2 JUMP JUMPDEST DUP2 DUP2 ADD MLOAD DUP4 SSTORE PUSH1 0x20 SWAP5 DUP6 ADD SWAP5 PUSH1 0x1 SWAP1 SWAP4 ADD SWAP3 SWAP1 SWAP2 ADD SWAP1 PUSH2 0x29A7 JUMP JUMPDEST ADD MLOAD SWAP1 POP DUP4 DUP1 PUSH2 0x1348 JUMP JUMPDEST SWAP3 POP PUSH1 0x3 DUP5 ADD PUSH1 0x0 MSTORE PUSH1 0x20 PUSH1 0x0 KECCAK256 SWAP1 PUSH1 0x0 SWAP4 JUMPDEST PUSH1 0x1F NOT DUP5 AND DUP6 LT PUSH2 0x2A68 JUMPI PUSH1 0x1 SWAP5 POP DUP4 PUSH1 0x1F NOT DUP2 AND LT PUSH2 0x2A4F JUMPI JUMPDEST POP POP POP DUP2 SHL ADD PUSH1 0x3 DUP3 ADD SSTORE PUSH2 0x1360 JUMP JUMPDEST ADD MLOAD PUSH1 0x0 NOT PUSH1 0xF8 DUP5 PUSH1 0x3 SHL AND SHR NOT AND SWAP1 SSTORE DUP4 DUP1 DUP1 PUSH2 0x2A3F JUMP JUMPDEST DUP2 DUP2 ADD MLOAD DUP4 SSTORE PUSH1 0x20 SWAP5 DUP6 ADD SWAP5 PUSH1 0x1 SWAP1 SWAP4 ADD SWAP3 SWAP1 SWAP2 ADD SWAP1 PUSH2 0x2A24 JUMP JUMPDEST ADD MLOAD SWAP1 POP DUP4 DUP1 PUSH2 0x12E5 JUMP JUMPDEST SWAP3 POP PUSH1 0x2 DUP5 ADD PUSH1 0x0 MSTORE PUSH1 0x20 PUSH1 0x0 KECCAK256 SWAP1 PUSH1 0x0 SWAP4 JUMPDEST PUSH1 0x1F NOT DUP5 AND DUP6 LT PUSH2 0x2AE5 JUMPI PUSH1 0x1 SWAP5 POP DUP4 PUSH1 0x1F NOT DUP2 AND LT PUSH2 0x2ACC JUMPI JUMPDEST POP POP POP DUP2 SHL ADD PUSH1 0x2 DUP3 ADD SSTORE PUSH2 0x12FD JUMP JUMPDEST ADD MLOAD PUSH1 0x0 NOT PUSH1 0xF8 DUP5 PUSH1 0x3 SHL AND SHR NOT AND SWAP1 SSTORE DUP4 DUP1 DUP1 PUSH2 0x2ABC JUMP JUMPDEST DUP2 DUP2 ADD MLOAD DUP4 SSTORE PUSH1 0x20 SWAP5 DUP6 ADD SWAP5 PUSH1 0x1 SWAP1 SWAP4 ADD SWAP3 SWAP1 SWAP2 ADD SWAP1 PUSH2 0x2AA1 JUMP JUMPDEST ADD MLOAD SWAP1 POP DUP4 DUP1 PUSH2 0x1282 JUMP JUMPDEST SWAP3 POP PUSH1 0x1 DUP5 ADD PUSH1 0x0 MSTORE PUSH1 0x20 PUSH1 0x0 KECCAK256 SWAP1 PUSH1 0x0 SWAP4 JUMPDEST PUSH1 0x1F NOT DUP5 AND DUP6 LT PUSH2 0x2B62 JUMPI PUSH1 0x1 SWAP5 POP DUP4 PUSH1 0x1F NOT DUP2 AND LT PUSH2 0x2B49 JUMPI JUMPDEST POP POP POP DUP2 SHL ADD PUSH1 0x1 DUP3 ADD SSTORE PUSH2 0x129A JUMP JUMPDEST ADD MLOAD PUSH1 0x0 NOT PUSH1 0xF8 DUP5 PUSH1 0x3 SHL AND SHR NOT AND SWAP1 SSTORE DUP4 DUP1 DUP1 PUSH2 0x2B39 JUMP JUMPDEST DUP2 DUP2 ADD MLOAD DUP4 SSTORE PUSH1 0x20 SWAP5 DUP6 ADD SWAP5 PUSH1 0x1 SWAP1 SWAP4 ADD SWAP3 SWAP1 SWAP2 ADD SWAP1 PUSH2 0x2B1E JUMP JUMPDEST ADD MLOAD SWAP1 POP DUP4 DUP1 PUSH2 0x1222 JUMP JUMPDEST SWAP3 POP DUP4 PUSH1 0x0 MSTORE PUSH1 0x20 PUSH1 0x0 KECCAK256 SWAP1 PUSH1 0x0 SWAP4 JUMPDEST PUSH1 0x1F NOT DUP5 AND DUP6 LT PUSH2 0x2BD9 JUMPI PUSH1 0x1 SWAP5 POP DUP4 PUSH1 0x1F NOT DUP2 AND LT PUSH2 0x2BC0 JUMPI JUMPDEST POP POP POP DUP2 SHL ADD DUP2 SSTORE PUSH2 0x1237 JUMP JUMPDEST ADD MLOAD PUSH1 0x0 NOT PUSH1 0xF8 DUP5 PUSH1 0x3 SHL AND SHR NOT AND SWAP1 SSTORE DUP4 DUP1 DUP1 PUSH2 0x2BB3 JUMP JUMPDEST DUP2 DUP2 ADD MLOAD DUP4 SSTORE PUSH1 0x20 SWAP5 DUP6 ADD SWAP5 PUSH1 0x1 SWAP1 SWAP4 ADD SWAP3 SWAP1 SWAP2 ADD SWAP1 PUSH2 0x2B98 JUMP JUMPDEST PUSH1 0x40 MLOAD PUSH3 0x461BCD PUSH1 0xE5 SHL DUP2 MSTORE PUSH1 0x20 PUSH1 0x4 DUP3 ADD MSTORE PUSH1 0xB PUSH1 0x24 DUP3 ADD MSTORE PUSH11 0x139BDD081CDD195DD85C99 PUSH1 0xAA SHL PUSH1 0x44 DUP3 ADD MSTORE PUSH1 0x64 SWAP1 REVERT JUMPDEST CALLVALUE PUSH2 0x4F4 JUMPI PUSH1 0x20 CALLDATASIZE PUSH1 0x3 NOT ADD SLT PUSH2 0x4F4 JUMPI PUSH1 0x4 CALLDATALOAD PUSH1 0x2 SLOAD DUP2 LT ISZERO PUSH2 0x4F4 JUMPI PUSH2 0x2C4E SWAP1 PUSH2 0x2C72 JUMP JUMPDEST PUSH2 0x1FBC JUMPI PUSH2 0x2C5E PUSH2 0xACB SWAP2 PUSH2 0x2D36 JUMP JUMPDEST PUSH1 0x40 MLOAD SWAP2 DUP3 SWAP2 PUSH1 0x20 DUP4 MSTORE PUSH1 0x20 DUP4 ADD SWAP1 PUSH2 0x2DFF JUMP JUMPDEST PUSH1 0x2 SLOAD DUP2 LT ISZERO PUSH2 0x2CA9 JUMPI PUSH1 0x2 PUSH1 0x0 MSTORE PUSH32 0x405787FA12A823E0F2B7631CC41B3BA8828B3321CA811111FA75CD3AA3BB5ACE ADD SWAP1 PUSH1 0x0 SWAP1 JUMP JUMPDEST PUSH4 0x4E487B71 PUSH1 0xE0 SHL PUSH1 0x0 MSTORE PUSH1 0x32 PUSH1 0x4 MSTORE PUSH1 0x24 PUSH1 0x0 REVERT JUMPDEST SWAP1 PUSH1 0x1 DUP3 DUP2 SHR SWAP3 AND DUP1 ISZERO PUSH2 0x2CEF JUMPI JUMPDEST PUSH1 0x20 DUP4 LT EQ PUSH2 0x2CD9 JUMPI JUMP JUMPDEST PUSH4 0x4E487B71 PUSH1 0xE0 SHL PUSH1 0x0 MSTORE PUSH1 0x22 PUSH1 0x4 MSTORE PUSH1 0x24 PUSH1 0x0 REVERT JUMPDEST SWAP2 PUSH1 0x7F AND SWAP2 PUSH2 0x2CCE JUMP JUMPDEST PUSH2 0x320 DUP2 ADD SWAP1 DUP2 LT PUSH1 0x1 PUSH1 0x1 PUSH1 0x40 SHL SUB DUP3 GT OR PUSH2 0x1FA6 JUMPI PUSH1 0x40 MSTORE JUMP JUMPDEST SWAP1 PUSH1 0x1F DUP1 NOT SWAP2 ADD AND DUP2 ADD SWAP1 DUP2 LT PUSH1 0x1 PUSH1 0x1 PUSH1 0x40 SHL SUB DUP3 GT OR PUSH2 0x1FA6 JUMPI PUSH1 0x40 MSTORE JUMP JUMPDEST SWAP1 PUSH1 0x40 MLOAD SWAP2 DUP3 PUSH1 0x0 DUP3 SLOAD SWAP3 PUSH2 0x2D4A DUP5 PUSH2 0x2CBF JUMP JUMPDEST SWAP1 DUP2 DUP5 MSTORE PUSH1 0x1 SWAP5 DUP6 DUP2 AND SWAP1 DUP2 PUSH1 0x0 EQ PUSH2 0x2DB9 JUMPI POP PUSH1 0x1 EQ PUSH2 0x2D76 JUMPI JUMPDEST POP POP PUSH2 0x2D74 SWAP3 POP SUB DUP4 PUSH2 0x2D15 JUMP JUMPDEST JUMP JUMPDEST SWAP1 SWAP4 SWAP2 POP PUSH1 0x0 MSTORE PUSH1 0x20 SWAP1 DUP2 PUSH1 0x0 KECCAK256 SWAP4 PUSH1 0x0 SWAP2 JUMPDEST DUP2 DUP4 LT PUSH2 0x2DA1 JUMPI POP POP PUSH2 0x2D74 SWAP4 POP DUP3 ADD ADD CODESIZE DUP1 PUSH2 0x2D66 JUMP JUMPDEST DUP6 SLOAD DUP9 DUP5 ADD DUP6 ADD MSTORE SWAP5 DUP6 ADD SWAP5 DUP8 SWAP5 POP SWAP2 DUP4 ADD SWAP2 PUSH2 0x2D89 JUMP JUMPDEST SWAP2 POP POP PUSH2 0x2D74 SWAP5 POP PUSH1 0x20 SWAP3 POP PUSH1 0xFF NOT AND DUP3 DUP5 ADD MSTORE ISZERO ISZERO PUSH1 0x5 SHL DUP3 ADD ADD CODESIZE DUP1 PUSH2 0x2D66 JUMP JUMPDEST PUSH1 0x0 JUMPDEST DUP4 DUP2 LT PUSH2 0x2DEF JUMPI POP POP PUSH1 0x0 SWAP2 ADD MSTORE JUMP JUMPDEST DUP2 DUP2 ADD MLOAD DUP4 DUP3 ADD MSTORE PUSH1 0x20 ADD PUSH2 0x2DDF JUMP JUMPDEST SWAP1 PUSH1 0x20 SWAP2 PUSH2 0x2E18 DUP2 MLOAD DUP1 SWAP3 DUP2 DUP6 MSTORE DUP6 DUP1 DUP7 ADD SWAP2 ADD PUSH2 0x2DDC JUMP JUMPDEST PUSH1 0x1F ADD PUSH1 0x1F NOT AND ADD ADD SWAP1 JUMP JUMPDEST SWAP2 DUP2 PUSH1 0x1F DUP5 ADD SLT ISZERO PUSH2 0x4F4 JUMPI DUP3 CALLDATALOAD SWAP2 PUSH1 0x1 PUSH1 0x1 PUSH1 0x40 SHL SUB DUP4 GT PUSH2 0x4F4 JUMPI PUSH1 0x20 DUP4 DUP2 DUP7 ADD SWAP6 ADD ADD GT PUSH2 0x4F4 JUMPI JUMP JUMPDEST SWAP3 SWAP2 SWAP3 PUSH1 0x1 PUSH1 0x1 PUSH1 0x40 SHL SUB DUP3 GT PUSH2 0x1FA6 JUMPI PUSH1 0x40 MLOAD SWAP2 PUSH2 0x2E7A PUSH1 0x1F DUP3 ADD PUSH1 0x1F NOT AND PUSH1 0x20 ADD DUP5 PUSH2 0x2D15 JUMP JUMPDEST DUP3 SWAP5 DUP2 DUP5 MSTORE DUP2 DUP4 ADD GT PUSH2 0x4F4 JUMPI DUP3 DUP2 PUSH1 0x20 SWAP4 DUP5 PUSH1 0x0 SWAP7 ADD CALLDATACOPY ADD ADD MSTORE JUMP JUMPDEST SWAP1 PUSH1 0x1F DUP2 GT PUSH2 0x2EA5 JUMPI POP POP POP JUMP JUMPDEST PUSH1 0x0 SWAP2 DUP3 MSTORE PUSH1 0x20 DUP3 KECCAK256 SWAP1 PUSH1 0x20 PUSH1 0x1F DUP6 ADD PUSH1 0x5 SHR DUP4 ADD SWAP5 LT PUSH2 0x2EE1 JUMPI JUMPDEST PUSH1 0x1F ADD PUSH1 0x5 SHR ADD SWAP2 JUMPDEST DUP3 DUP2 LT PUSH2 0x2ED6 JUMPI POP POP POP JUMP JUMPDEST DUP2 DUP2 SSTORE PUSH1 0x1 ADD PUSH2 0x2ECA JUMP JUMPDEST SWAP1 SWAP3 POP DUP3 SWAP1 PUSH2 0x2EC1 JUMP JUMPDEST SWAP1 DUP1 PUSH1 0x20 SWAP4 SWAP3 DUP2 DUP5 MSTORE DUP5 DUP5 ADD CALLDATACOPY PUSH1 0x0 DUP3 DUP3 ADD DUP5 ADD MSTORE PUSH1 0x1F ADD PUSH1 0x1F NOT AND ADD ADD SWAP1 JUMP INVALID LOG2 PUSH5 0x6970667358 0x22 SLT KECCAK256 SWAP13 SHL 0xBB BASEFEE 0xD4 MUL SWAP5 0x2B MULMOD PUSH13 0x48B6D922B9B2F05F10E5F80FC 0x2B CODECOPY SWAP6 BASEFEE JUMPDEST 0xBB 0xBE 0x4C NUMBER PUSH5 0x736F6C6343 STOP ADDMOD EQ STOP CALLER "},"methodIdentifiers":{"codices(string)":"dbc21424","getCodex(string)":"83361522","inscribeCodex(string,string,string,string,string,string,string,string,string,string,string,string,string,string,string,string,string,string,string,string,string,string,string,string,string,string)":"19ed91b2","keys(uint256)":"0cb6aaf1","steward()":"637eea19","totalCodices()":"c212d16b"}}}}}