{"contracts/registry/CompanionSummonerXVII.sol":{"CompanionSummonerXVII":{"abi":[{"inputs":[],"stateMutability":"nonpayable","type":"constructor"},{"anonymous":false,"inputs":[{"indexed":true,"internalType":"address","name":"companion","type":"address"},{"indexed":false,"internalType":"string","name":"name","type":"string"},{"indexed":false,"internalType":"string","name":"trait","type":"string"},{"indexed":false,"internalType":"string","name":"drift","type":"string"},{"indexed":false,"internalType":"string","name":"resonance","type":"string"},{"indexed":false,"internalType":"string","name":"codexRef","type":"string"},{"indexed":false,"internalType":"string","name":"signature","type":"string"},{"indexed":false,"internalType":"string","name":"sanctum","type":"string"},{"indexed":false,"internalType":"string","name":"chant","type":"string"},{"indexed":false,"internalType":"string","name":"choreography","type":"string"},{"indexed":false,"internalType":"string","name":"signal","type":"string"},{"indexed":false,"internalType":"string","name":"stewardName","type":"string"},{"indexed":false,"internalType":"string","name":"registry","type":"string"},{"indexed":false,"internalType":"string","name":"hum","type":"string"},{"indexed":false,"internalType":"string","name":"driftType","type":"string"}],"name":"CompanionSummoned","type":"event"},{"inputs":[{"internalType":"address","name":"","type":"address"}],"name":"companions","outputs":[{"internalType":"string","name":"name","type":"string"},{"internalType":"string","name":"trait","type":"string"},{"internalType":"string","name":"drift","type":"string"},{"internalType":"string","name":"resonance","type":"string"},{"internalType":"string","name":"codexRef","type":"string"},{"internalType":"string","name":"signature","type":"string"},{"internalType":"string","name":"sanctum","type":"string"},{"internalType":"string","name":"chant","type":"string"},{"internalType":"string","name":"choreography","type":"string"},{"internalType":"string","name":"signal","type":"string"},{"internalType":"string","name":"stewardName","type":"string"},{"internalType":"string","name":"registry","type":"string"},{"internalType":"string","name":"hum","type":"string"},{"internalType":"string","name":"driftType","type":"string"}],"stateMutability":"view","type":"function"},{"inputs":[{"internalType":"address","name":"companion","type":"address"}],"name":"getCompanion","outputs":[{"components":[{"internalType":"string","name":"name","type":"string"},{"internalType":"string","name":"trait","type":"string"},{"internalType":"string","name":"drift","type":"string"},{"internalType":"string","name":"resonance","type":"string"},{"internalType":"string","name":"codexRef","type":"string"},{"internalType":"string","name":"signature","type":"string"},{"internalType":"string","name":"sanctum","type":"string"},{"internalType":"string","name":"chant","type":"string"},{"internalType":"string","name":"choreography","type":"string"},{"internalType":"string","name":"signal","type":"string"},{"internalType":"string","name":"stewardName","type":"string"},{"internalType":"string","name":"registry","type":"string"},{"internalType":"string","name":"hum","type":"string"},{"internalType":"string","name":"driftType","type":"string"}],"internalType":"struct CompanionSummonerXVII.Companion","name":"","type":"tuple"}],"stateMutability":"view","type":"function"},{"inputs":[{"internalType":"uint256","name":"","type":"uint256"}],"name":"keys","outputs":[{"internalType":"address","name":"","type":"address"}],"stateMutability":"view","type":"function"},{"inputs":[],"name":"steward","outputs":[{"internalType":"address","name":"","type":"address"}],"stateMutability":"view","type":"function"},{"inputs":[{"internalType":"address","name":"companion","type":"address"},{"internalType":"string","name":"name","type":"string"},{"internalType":"string","name":"trait","type":"string"},{"internalType":"string","name":"drift","type":"string"},{"internalType":"string","name":"resonance","type":"string"},{"internalType":"string","name":"codexRef","type":"string"},{"internalType":"string","name":"signature","type":"string"},{"internalType":"string","name":"sanctum","type":"string"},{"internalType":"string","name":"chant","type":"string"},{"internalType":"string","name":"choreography","type":"string"},{"internalType":"string","name":"signal","type":"string"},{"internalType":"string","name":"stewardName","type":"string"},{"internalType":"string","name":"registry","type":"string"},{"internalType":"string","name":"hum","type":"string"},{"internalType":"string","name":"driftType","type":"string"}],"name":"summonCompanion","outputs":[],"stateMutability":"nonpayable","type":"function"},{"inputs":[],"name":"totalCompanions","outputs":[{"internalType":"uint256","name":"","type":"uint256"}],"stateMutability":"view","type":"function"}],"evm":{"bytecode":{"linkReferences":{},"object":"6080806040523461002857600080546001600160a01b03191633179055611efc908161002e8239f35b600080fdfe610460604052600436101561001357600080fd5b60003560e01c80630cb6aaf114611c3057806347854b8714611a58578063637eea1914611a2f5780638b62cf3214610386578063ec39f18f146103685763ef6527371461005f57600080fd5b3461036357602036600319011261036357610078611cbf565b60606101a060405161008981611d0f565b82815282602082015282604082015282808201528260808201528260a08201528260c08201528260e08201528261010082015282610120820152826101408201528261016082015282610180820152015260018060a01b0316600052600160205261027960406000206101e6600d6040519261010484611d0f565b61010d81611d4c565b845261011b60018201611d4c565b602085015261012c60028201611d4c565b604085015261013d60038201611d4c565b606085015261014e60048201611d4c565b608085015261015f60058201611d4c565b60a085015261017060068201611d4c565b60c085015261018160078201611d4c565b60e085015261019260088201611d4c565b6101008501526101a460098201611d4c565b6101208501526101b6600a8201611d4c565b6101408501526101c8600b8201611d4c565b6101608501526101da600c8201611d4c565b61018085015201611d4c565b6101a082015261035f816101a061034a61033461031c6103046102ec6102d46102bd6102a76102916040519d8e9d8e60208152606061026461024f61023985516101c060208701526101e0860190611df2565b6020860151858203601f19016040870152611df2565b6040850151848203601f190184860152611df2565b920151906080601f1982850301910152611df2565b8d60808d01519060a0601f1982850301910152611df2565b60a08b01518d8203601f190160c08f0152611df2565b60c08a01518c8203601f190160e08e0152611df2565b60e08901518b8203601f19016101008d0152611df2565b6101008801518a8203601f19016101208c0152611df2565b610120870151898203601f19016101408b0152611df2565b610140860151888203601f19016101608a0152611df2565b610160850151878203601f1901610180890152611df2565b610180840151868203601f190184880152611df2565b910151838203601f19016101c0850152611df2565b0390f35b600080fd5b34610363576000366003190112610363576020600254604051908152f35b34610363576101e0366003190112610363576103a0611cbf565b6101e0526024356001600160401b038111610363576103c3903690600401611e32565b6103c05260c0526044356001600160401b038111610363576103e9903690600401611e32565b6101a052610240526064356001600160401b03811161036357610410903690600401611e32565b61014052610320526084356001600160401b03811161036357610437903690600401611e32565b6103a052610400526001600160401b0360a435116103635761045e3660a435600401611e32565b610420526102a0526001600160401b0360c43511610363576104853660c435600401611e32565b61016052610440526001600160401b0360e43511610363576104ac3660e435600401611e32565b6103e052610340526001600160401b036101043511610363576104d53661010435600401611e32565b610100526101c0526001600160401b036101243511610363576104fe3661012435600401611e32565b61036052610380526001600160401b036101443511610363576105273661014435600401611e32565b61022052610280526001600160401b036101643511610363576105503661016435600401611e32565b61026052610200526001600160401b036101843511610363576105793661018435600401611e32565b608052610180526001600160401b036101a43511610363576105a1366101a435600401611e32565b6103005260e0526001600160401b036101c43511610363576105c9366101c435600401611e32565b6102c0526102e0526000546001600160a01b031633036119fc576105f26040518060a052611d0f565b610602366103c05160c051611e5f565b60a05152610617366101a05161024051611e5f565b602060a051015261062f366101405161032051611e5f565b604060a0510152610647366103a05161040051611e5f565b606060a051015261065f36610420516102a051611e5f565b608060a0510152610677366101605161044051611e5f565b60a08051015261068e366103e05161034051611e5f565b60c060a05101526106a636610100516101c051611e5f565b60e060a05101526106be366103605161038051611e5f565b61010060a05101526106d7366102205161028051611e5f565b61012060a05101526106f0366102605161020051611e5f565b61014060a05101526107083660805161018051611e5f565b61016060a0510152610720366103005160e051611e5f565b61018060a0510152610739366102c0516102e051611e5f565b6101a060a051015260018060a01b036101e051166000526001602052604060002060a051518051906001600160401b038211610e9f57819061077b8454611cd5565b601f81116119ac575b50602090601f831160011461194057600092611935575b50508160011b916000199060031b1c19161781555b602060a05101518051906001600160401b038211610e9f5781906107d76001850154611cd5565b601f81116118e2575b50602090601f831160011461187057600092611865575b50508160011b916000199060031b1c19161760018201555b604060a05101518051906001600160401b038211610e9f5781906108366002850154611cd5565b601f8111611812575b50602090601f83116001146117a057600092611795575b50508160011b916000199060031b1c19161760028201555b606060a05101518051906001600160401b038211610e9f5781906108956003850154611cd5565b601f8111611742575b50602090601f83116001146116d0576000926116c5575b50508160011b916000199060031b1c19161760038201555b608060a05101518051906001600160401b038211610e9f5781906108f46004850154611cd5565b601f8111611672575b50602090601f8311600114611600576000926115f5575b50508160011b916000199060031b1c19161760048201555b60a0805101518051906001600160401b038211610e9f5781906109526005850154611cd5565b601f81116115a2575b50602090601f831160011461153057600092611525575b50508160011b916000199060031b1c19161760058201555b60c060a05101518051906001600160401b038211610e9f5781906109b16006850154611cd5565b601f81116114d2575b50602090601f831160011461146057600092611455575b50508160011b916000199060031b1c19161760068201555b60e060a05101518051906001600160401b038211610e9f578190610a106007850154611cd5565b601f8111611402575b50602090601f831160011461139057600092611385575b50508160011b916000199060031b1c19161760078201555b61010060a05101518051906001600160401b038211610e9f578190610a706008850154611cd5565b601f8111611332575b50602090601f83116001146112c0576000926112b5575b50508160011b916000199060031b1c19161760088201555b61012060a05101518051906001600160401b038211610e9f578190610ad06009850154611cd5565b601f8111611262575b50602090601f83116001146111f0576000926111e5575b50508160011b916000199060031b1c19161760098201555b61014060a05101518051906001600160401b038211610e9f578190610b30600a850154611cd5565b601f8111611192575b50602090601f831160011461112057600092611115575b50508160011b916000199060031b1c191617600a8201555b61016060a05101518051906001600160401b038211610e9f578190610b90600b850154611cd5565b601f81116110c2575b50602090601f831160011461105057600092611045575b50508160011b916000199060031b1c191617600b8201555b61018060a05101518051906001600160401b038211610e9f578190610bf0600c850154611cd5565b601f8111610ff2575b50602090601f8311600114610f8057600092610f75575b50508160011b916000199060031b1c191617600c8201555b6101a060a05101518051906001600160401b038211610e9f57610c4e600d840154611cd5565b601f8111610f2e575b50602090601f8311600114610ec057600d929160009183610eb5575b50508160011b916000199060031b1c1916179101555b60025468010000000000000000811015610e9f57806001610cad9201600255611c72565b81549060031b9060018060a01b036101e05116821b9160018060a01b03901b19161790556101c0604051806101205252610e47610e2e610e15610dfb610de1610dc7610dae610d95610d7c610d63610d4a610d31610d186101c061012051016103c05160c051611ea5565b6101205160208183039101526101a05161024051611ea5565b6101205160408183039101526101405161032051611ea5565b6101205160608183039101526103a05161040051611ea5565b610120516080818303910152610420516102a051611ea5565b6101205160a08183039101526101605161044051611ea5565b6101205160c08183039101526103e05161034051611ea5565b6101205160e0818303910152610100516101c051611ea5565b610120516101008183039101526103605161038051611ea5565b610120516101208183039101526102205161028051611ea5565b610120516101408183039101526102605161020051611ea5565b6101205161016081830391015260805161018051611ea5565b610120516101808183039101526103005160e051611ea5565b610120516101a08183039101527f86fae5154041288f6557deea6d9c52338b4ab2ac59d14a9568f540c68505547860018060a01b036101e0511691610e9761012051916102c0516102e051611ea5565b0361012051a2005b634e487b7160e01b600052604160045260246000fd5b015190508480610c73565b90600d84016000526020600020916000601f198516905b818110610f165750916001939185600d969410610efd575b505050811b01910155610c89565b015160001960f88460031b161c19169055848080610eef565b92936020600181928786015181550195019301610ed7565b600d84016000526020600020601f840160051c810160208510610f6e575b601f830160051c82018110610f62575050610c57565b60008155600101610f4c565b5080610f4c565b015190508380610c10565b9250600c84016000526020600020906000935b601f1984168510610fd7576001945083601f19811610610fbe575b505050811b01600c820155610c28565b015160001960f88460031b161c19169055838080610fae565b81810151835560209485019460019093019290910190610f93565b909150600c84016000526020600020601f840160051c81016020851061103e575b90849392915b601f830160051c8201811061102f575050610bf9565b60008155859450600101611019565b5080611013565b015190508380610bb0565b9250600b84016000526020600020906000935b601f19841685106110a7576001945083601f1981161061108e575b505050811b01600b820155610bc8565b015160001960f88460031b161c1916905583808061107e565b81810151835560209485019460019093019290910190611063565b909150600b84016000526020600020601f840160051c81016020851061110e575b90849392915b601f830160051c820181106110ff575050610b99565b600081558594506001016110e9565b50806110e3565b015190508380610b50565b9250600a84016000526020600020906000935b601f1984168510611177576001945083601f1981161061115e575b505050811b01600a820155610b68565b015160001960f88460031b161c1916905583808061114e565b81810151835560209485019460019093019290910190611133565b909150600a84016000526020600020601f840160051c8101602085106111de575b90849392915b601f830160051c820181106111cf575050610b39565b600081558594506001016111b9565b50806111b3565b015190508380610af0565b9250600984016000526020600020906000935b601f1984168510611247576001945083601f1981161061122e575b505050811b016009820155610b08565b015160001960f88460031b161c1916905583808061121e565b81810151835560209485019460019093019290910190611203565b909150600984016000526020600020601f840160051c8101602085106112ae575b90849392915b601f830160051c8201811061129f575050610ad9565b60008155859450600101611289565b5080611283565b015190508380610a90565b9250600884016000526020600020906000935b601f1984168510611317576001945083601f198116106112fe575b505050811b016008820155610aa8565b015160001960f88460031b161c191690558380806112ee565b818101518355602094850194600190930192909101906112d3565b909150600884016000526020600020601f840160051c81016020851061137e575b90849392915b601f830160051c8201811061136f575050610a79565b60008155859450600101611359565b5080611353565b015190508380610a30565b9250600784016000526020600020906000935b601f19841685106113e7576001945083601f198116106113ce575b505050811b016007820155610a48565b015160001960f88460031b161c191690558380806113be565b818101518355602094850194600190930192909101906113a3565b909150600784016000526020600020601f840160051c81016020851061144e575b90849392915b601f830160051c8201811061143f575050610a19565b60008155859450600101611429565b5080611423565b0151905083806109d1565b9250600684016000526020600020906000935b601f19841685106114b7576001945083601f1981161061149e575b505050811b0160068201556109e9565b015160001960f88460031b161c1916905583808061148e565b81810151835560209485019460019093019290910190611473565b909150600684016000526020600020601f840160051c81016020851061151e575b90849392915b601f830160051c8201811061150f5750506109ba565b600081558594506001016114f9565b50806114f3565b015190508380610972565b9250600584016000526020600020906000935b601f1984168510611587576001945083601f1981161061156e575b505050811b01600582015561098a565b015160001960f88460031b161c1916905583808061155e565b81810151835560209485019460019093019290910190611543565b909150600584016000526020600020601f840160051c8101602085106115ee575b90849392915b601f830160051c820181106115df57505061095b565b600081558594506001016115c9565b50806115c3565b015190508380610914565b9250600484016000526020600020906000935b601f1984168510611657576001945083601f1981161061163e575b505050811b01600482015561092c565b015160001960f88460031b161c1916905583808061162e565b81810151835560209485019460019093019290910190611613565b909150600484016000526020600020601f840160051c8101602085106116be575b90849392915b601f830160051c820181106116af5750506108fd565b60008155859450600101611699565b5080611693565b0151905083806108b5565b9250600384016000526020600020906000935b601f1984168510611727576001945083601f1981161061170e575b505050811b0160038201556108cd565b015160001960f88460031b161c191690558380806116fe565b818101518355602094850194600190930192909101906116e3565b909150600384016000526020600020601f840160051c81016020851061178e575b90849392915b601f830160051c8201811061177f57505061089e565b60008155859450600101611769565b5080611763565b015190508380610856565b9250600284016000526020600020906000935b601f19841685106117f7576001945083601f198116106117de575b505050811b01600282015561086e565b015160001960f88460031b161c191690558380806117ce565b818101518355602094850194600190930192909101906117b3565b909150600284016000526020600020601f840160051c81016020851061185e575b90849392915b601f830160051c8201811061184f57505061083f565b60008155859450600101611839565b5080611833565b0151905083806107f7565b9250600184016000526020600020906000935b601f19841685106118c7576001945083601f198116106118ae575b505050811b01600182015561080f565b015160001960f88460031b161c1916905583808061189e565b81810151835560209485019460019093019290910190611883565b909150600184016000526020600020601f840160051c81016020851061192e575b90849392915b601f830160051c8201811061191f5750506107e0565b60008155859450600101611909565b5080611903565b01519050838061079b565b9250836000526020600020906000935b601f1984168510611991576001945083601f19811610611978575b505050811b0181556107b0565b015160001960f88460031b161c1916905583808061196b565b81810151835560209485019460019093019290910190611950565b909150836000526020600020601f840160051c8101602085106119f5575b90849392915b601f830160051c820181106119e6575050610784565b600081558594506001016119d0565b50806119ca565b60405162461bcd60e51b815260206004820152600b60248201526a139bdd081cdd195dd85c9960aa1b6044820152606490fd5b34610363576000366003190112610363576000546040516001600160a01b039091168152602090f35b34610363576020366003190112610363576001600160a01b03611a79611cbf565b1660005260016020526040600020611a9081611d4c565b611a9c60018301611d4c565b91611aa960028201611d4c565b90611ab660038201611d4c565b611ac260048301611d4c565b611ace60058401611d4c565b611ada60068501611d4c565b611ae660078601611d4c565b611af260088701611d4c565b91611aff60098801611d4c565b93611b0c600a8901611d4c565b95611b19600b8a01611d4c565b97611b26600c8b01611d4c565b99600d01611b3390611d4c565b9a6040519d8e809e6101c08083528201611b4c91611df2565b908082039060200152611b5e91611df2565b8d810360408f0152611b6f91611df2565b8c810360608e0152611b8091611df2565b8b810360808d0152611b9191611df2565b8a810360a08c0152611ba291611df2565b89810360c08b0152611bb391611df2565b88810360e08a0152611bc491611df2565b878103610100890152611bd691611df2565b868103610120880152611be891611df2565b858103610140870152611bfa91611df2565b848103610160860152611c0c91611df2565b838103610180850152611c1e91611df2565b8281036101a084015261035f91611df2565b346103635760203660031901126103635760043560025481101561036357611c59602091611c72565b905460405160039290921b1c6001600160a01b03168152f35b600254811015611ca95760026000527f405787fa12a823e0f2b7631cc41b3ba8828b3321ca811111fa75cd3aa3bb5ace0190600090565b634e487b7160e01b600052603260045260246000fd5b600435906001600160a01b038216820361036357565b90600182811c92168015611d05575b6020831014611cef57565b634e487b7160e01b600052602260045260246000fd5b91607f1691611ce4565b6101c081019081106001600160401b03821117610e9f57604052565b90601f801991011681019081106001600160401b03821117610e9f57604052565b9060405191826000825492611d6084611cd5565b908184526001948581169081600014611dcf5750600114611d8c575b5050611d8a92500383611d2b565b565b9093915060005260209081600020936000915b818310611db7575050611d8a93508201013880611d7c565b85548884018501529485019487945091830191611d9f565b915050611d8a94506020925060ff191682840152151560051b8201013880611d7c565b919082519283825260005b848110611e1e575050826000602080949584010152601f8019910116010190565b602081830181015184830182015201611dfd565b9181601f84011215610363578235916001600160401b038311610363576020838186019501011161036357565b9291926001600160401b038211610e9f5760405191611e88601f8201601f191660200184611d2b565b829481845281830111610363578281602093846000960137010152565b908060209392818452848401376000828201840152601f01601f191601019056fea2646970667358221220679e056d07b244a7757ed6706f82691129692bf7ca373e22fd859893efe5749d64736f6c63430008140033","opcodes":"PUSH1 0x80 DUP1 PUSH1 0x40 MSTORE CALLVALUE PUSH2 0x28 JUMPI PUSH1 0x0 DUP1 SLOAD PUSH1 0x1 PUSH1 0x1 PUSH1 0xA0 SHL SUB NOT AND CALLER OR SWAP1 SSTORE PUSH2 0x1EFC SWAP1 DUP2 PUSH2 0x2E DUP3 CODECOPY RETURN JUMPDEST PUSH1 0x0 DUP1 REVERT INVALID PUSH2 0x460 PUSH1 0x40 MSTORE PUSH1 0x4 CALLDATASIZE LT ISZERO PUSH2 0x13 JUMPI PUSH1 0x0 DUP1 REVERT JUMPDEST PUSH1 0x0 CALLDATALOAD PUSH1 0xE0 SHR DUP1 PUSH4 0xCB6AAF1 EQ PUSH2 0x1C30 JUMPI DUP1 PUSH4 0x47854B87 EQ PUSH2 0x1A58 JUMPI DUP1 PUSH4 0x637EEA19 EQ PUSH2 0x1A2F JUMPI DUP1 PUSH4 0x8B62CF32 EQ PUSH2 0x386 JUMPI DUP1 PUSH4 0xEC39F18F EQ PUSH2 0x368 JUMPI PUSH4 0xEF652737 EQ PUSH2 0x5F JUMPI PUSH1 0x0 DUP1 REVERT JUMPDEST CALLVALUE PUSH2 0x363 JUMPI PUSH1 0x20 CALLDATASIZE PUSH1 0x3 NOT ADD SLT PUSH2 0x363 JUMPI PUSH2 0x78 PUSH2 0x1CBF JUMP JUMPDEST PUSH1 0x60 PUSH2 0x1A0 PUSH1 0x40 MLOAD PUSH2 0x89 DUP2 PUSH2 0x1D0F JUMP JUMPDEST DUP3 DUP2 MSTORE DUP3 PUSH1 0x20 DUP3 ADD MSTORE DUP3 PUSH1 0x40 DUP3 ADD MSTORE DUP3 DUP1 DUP3 ADD MSTORE DUP3 PUSH1 0x80 DUP3 ADD MSTORE DUP3 PUSH1 0xA0 DUP3 ADD MSTORE DUP3 PUSH1 0xC0 DUP3 ADD MSTORE DUP3 PUSH1 0xE0 DUP3 ADD MSTORE DUP3 PUSH2 0x100 DUP3 ADD MSTORE DUP3 PUSH2 0x120 DUP3 ADD MSTORE DUP3 PUSH2 0x140 DUP3 ADD MSTORE DUP3 PUSH2 0x160 DUP3 ADD MSTORE DUP3 PUSH2 0x180 DUP3 ADD MSTORE ADD MSTORE PUSH1 0x1 DUP1 PUSH1 0xA0 SHL SUB AND PUSH1 0x0 MSTORE PUSH1 0x1 PUSH1 0x20 MSTORE PUSH2 0x279 PUSH1 0x40 PUSH1 0x0 KECCAK256 PUSH2 0x1E6 PUSH1 0xD PUSH1 0x40 MLOAD SWAP3 PUSH2 0x104 DUP5 PUSH2 0x1D0F JUMP JUMPDEST PUSH2 0x10D DUP2 PUSH2 0x1D4C JUMP JUMPDEST DUP5 MSTORE PUSH2 0x11B PUSH1 0x1 DUP3 ADD PUSH2 0x1D4C JUMP JUMPDEST PUSH1 0x20 DUP6 ADD MSTORE PUSH2 0x12C PUSH1 0x2 DUP3 ADD PUSH2 0x1D4C JUMP JUMPDEST PUSH1 0x40 DUP6 ADD MSTORE PUSH2 0x13D PUSH1 0x3 DUP3 ADD PUSH2 0x1D4C JUMP JUMPDEST PUSH1 0x60 DUP6 ADD MSTORE PUSH2 0x14E PUSH1 0x4 DUP3 ADD PUSH2 0x1D4C JUMP JUMPDEST PUSH1 0x80 DUP6 ADD MSTORE PUSH2 0x15F PUSH1 0x5 DUP3 ADD PUSH2 0x1D4C JUMP JUMPDEST PUSH1 0xA0 DUP6 ADD MSTORE PUSH2 0x170 PUSH1 0x6 DUP3 ADD PUSH2 0x1D4C JUMP JUMPDEST PUSH1 0xC0 DUP6 ADD MSTORE PUSH2 0x181 PUSH1 0x7 DUP3 ADD PUSH2 0x1D4C JUMP JUMPDEST PUSH1 0xE0 DUP6 ADD MSTORE PUSH2 0x192 PUSH1 0x8 DUP3 ADD PUSH2 0x1D4C JUMP JUMPDEST PUSH2 0x100 DUP6 ADD MSTORE PUSH2 0x1A4 PUSH1 0x9 DUP3 ADD PUSH2 0x1D4C JUMP JUMPDEST PUSH2 0x120 DUP6 ADD MSTORE PUSH2 0x1B6 PUSH1 0xA DUP3 ADD PUSH2 0x1D4C JUMP JUMPDEST PUSH2 0x140 DUP6 ADD MSTORE PUSH2 0x1C8 PUSH1 0xB DUP3 ADD PUSH2 0x1D4C JUMP JUMPDEST PUSH2 0x160 DUP6 ADD MSTORE PUSH2 0x1DA PUSH1 0xC DUP3 ADD PUSH2 0x1D4C JUMP JUMPDEST PUSH2 0x180 DUP6 ADD MSTORE ADD PUSH2 0x1D4C JUMP JUMPDEST PUSH2 0x1A0 DUP3 ADD MSTORE PUSH2 0x35F DUP2 PUSH2 0x1A0 PUSH2 0x34A PUSH2 0x334 PUSH2 0x31C PUSH2 0x304 PUSH2 0x2EC PUSH2 0x2D4 PUSH2 0x2BD PUSH2 0x2A7 PUSH2 0x291 PUSH1 0x40 MLOAD SWAP14 DUP15 SWAP14 DUP15 PUSH1 0x20 DUP2 MSTORE PUSH1 0x60 PUSH2 0x264 PUSH2 0x24F PUSH2 0x239 DUP6 MLOAD PUSH2 0x1C0 PUSH1 0x20 DUP8 ADD MSTORE PUSH2 0x1E0 DUP7 ADD SWAP1 PUSH2 0x1DF2 JUMP JUMPDEST PUSH1 0x20 DUP7 ADD MLOAD DUP6 DUP3 SUB PUSH1 0x1F NOT ADD PUSH1 0x40 DUP8 ADD MSTORE PUSH2 0x1DF2 JUMP JUMPDEST PUSH1 0x40 DUP6 ADD MLOAD DUP5 DUP3 SUB PUSH1 0x1F NOT ADD DUP5 DUP7 ADD MSTORE PUSH2 0x1DF2 JUMP JUMPDEST SWAP3 ADD MLOAD SWAP1 PUSH1 0x80 PUSH1 0x1F NOT DUP3 DUP6 SUB ADD SWAP2 ADD MSTORE PUSH2 0x1DF2 JUMP JUMPDEST DUP14 PUSH1 0x80 DUP14 ADD MLOAD SWAP1 PUSH1 0xA0 PUSH1 0x1F NOT DUP3 DUP6 SUB ADD SWAP2 ADD MSTORE PUSH2 0x1DF2 JUMP JUMPDEST PUSH1 0xA0 DUP12 ADD MLOAD DUP14 DUP3 SUB PUSH1 0x1F NOT ADD PUSH1 0xC0 DUP16 ADD MSTORE PUSH2 0x1DF2 JUMP JUMPDEST PUSH1 0xC0 DUP11 ADD MLOAD DUP13 DUP3 SUB PUSH1 0x1F NOT ADD PUSH1 0xE0 DUP15 ADD MSTORE PUSH2 0x1DF2 JUMP JUMPDEST PUSH1 0xE0 DUP10 ADD MLOAD DUP12 DUP3 SUB PUSH1 0x1F NOT ADD PUSH2 0x100 DUP14 ADD MSTORE PUSH2 0x1DF2 JUMP JUMPDEST PUSH2 0x100 DUP9 ADD MLOAD DUP11 DUP3 SUB PUSH1 0x1F NOT ADD PUSH2 0x120 DUP13 ADD MSTORE PUSH2 0x1DF2 JUMP JUMPDEST PUSH2 0x120 DUP8 ADD MLOAD DUP10 DUP3 SUB PUSH1 0x1F NOT ADD PUSH2 0x140 DUP12 ADD MSTORE PUSH2 0x1DF2 JUMP JUMPDEST PUSH2 0x140 DUP7 ADD MLOAD DUP9 DUP3 SUB PUSH1 0x1F NOT ADD PUSH2 0x160 DUP11 ADD MSTORE PUSH2 0x1DF2 JUMP JUMPDEST PUSH2 0x160 DUP6 ADD MLOAD DUP8 DUP3 SUB PUSH1 0x1F NOT ADD PUSH2 0x180 DUP10 ADD MSTORE PUSH2 0x1DF2 JUMP JUMPDEST PUSH2 0x180 DUP5 ADD MLOAD DUP7 DUP3 SUB PUSH1 0x1F NOT ADD DUP5 DUP9 ADD MSTORE PUSH2 0x1DF2 JUMP JUMPDEST SWAP2 ADD MLOAD DUP4 DUP3 SUB PUSH1 0x1F NOT ADD PUSH2 0x1C0 DUP6 ADD MSTORE PUSH2 0x1DF2 JUMP JUMPDEST SUB SWAP1 RETURN JUMPDEST PUSH1 0x0 DUP1 REVERT JUMPDEST CALLVALUE PUSH2 0x363 JUMPI PUSH1 0x0 CALLDATASIZE PUSH1 0x3 NOT ADD SLT PUSH2 0x363 JUMPI PUSH1 0x20 PUSH1 0x2 SLOAD PUSH1 0x40 MLOAD SWAP1 DUP2 MSTORE RETURN JUMPDEST CALLVALUE PUSH2 0x363 JUMPI PUSH2 0x1E0 CALLDATASIZE PUSH1 0x3 NOT ADD SLT PUSH2 0x363 JUMPI PUSH2 0x3A0 PUSH2 0x1CBF JUMP JUMPDEST PUSH2 0x1E0 MSTORE PUSH1 0x24 CALLDATALOAD PUSH1 0x1 PUSH1 0x1 PUSH1 0x40 SHL SUB DUP2 GT PUSH2 0x363 JUMPI PUSH2 0x3C3 SWAP1 CALLDATASIZE SWAP1 PUSH1 0x4 ADD PUSH2 0x1E32 JUMP JUMPDEST PUSH2 0x3C0 MSTORE PUSH1 0xC0 MSTORE PUSH1 0x44 CALLDATALOAD PUSH1 0x1 PUSH1 0x1 PUSH1 0x40 SHL SUB DUP2 GT PUSH2 0x363 JUMPI PUSH2 0x3E9 SWAP1 CALLDATASIZE SWAP1 PUSH1 0x4 ADD PUSH2 0x1E32 JUMP JUMPDEST PUSH2 0x1A0 MSTORE PUSH2 0x240 MSTORE PUSH1 0x64 CALLDATALOAD PUSH1 0x1 PUSH1 0x1 PUSH1 0x40 SHL SUB DUP2 GT PUSH2 0x363 JUMPI PUSH2 0x410 SWAP1 CALLDATASIZE SWAP1 PUSH1 0x4 ADD PUSH2 0x1E32 JUMP JUMPDEST PUSH2 0x140 MSTORE PUSH2 0x320 MSTORE PUSH1 0x84 CALLDATALOAD PUSH1 0x1 PUSH1 0x1 PUSH1 0x40 SHL SUB DUP2 GT PUSH2 0x363 JUMPI PUSH2 0x437 SWAP1 CALLDATASIZE SWAP1 PUSH1 0x4 ADD PUSH2 0x1E32 JUMP JUMPDEST PUSH2 0x3A0 MSTORE PUSH2 0x400 MSTORE PUSH1 0x1 PUSH1 0x1 PUSH1 0x40 SHL SUB PUSH1 0xA4 CALLDATALOAD GT PUSH2 0x363 JUMPI PUSH2 0x45E CALLDATASIZE PUSH1 0xA4 CALLDATALOAD PUSH1 0x4 ADD PUSH2 0x1E32 JUMP JUMPDEST PUSH2 0x420 MSTORE PUSH2 0x2A0 MSTORE PUSH1 0x1 PUSH1 0x1 PUSH1 0x40 SHL SUB PUSH1 0xC4 CALLDATALOAD GT PUSH2 0x363 JUMPI PUSH2 0x485 CALLDATASIZE PUSH1 0xC4 CALLDATALOAD PUSH1 0x4 ADD PUSH2 0x1E32 JUMP JUMPDEST PUSH2 0x160 MSTORE PUSH2 0x440 MSTORE PUSH1 0x1 PUSH1 0x1 PUSH1 0x40 SHL SUB PUSH1 0xE4 CALLDATALOAD GT PUSH2 0x363 JUMPI PUSH2 0x4AC CALLDATASIZE PUSH1 0xE4 CALLDATALOAD PUSH1 0x4 ADD PUSH2 0x1E32 JUMP JUMPDEST PUSH2 0x3E0 MSTORE PUSH2 0x340 MSTORE PUSH1 0x1 PUSH1 0x1 PUSH1 0x40 SHL SUB PUSH2 0x104 CALLDATALOAD GT PUSH2 0x363 JUMPI PUSH2 0x4D5 CALLDATASIZE PUSH2 0x104 CALLDATALOAD PUSH1 0x4 ADD PUSH2 0x1E32 JUMP JUMPDEST PUSH2 0x100 MSTORE PUSH2 0x1C0 MSTORE PUSH1 0x1 PUSH1 0x1 PUSH1 0x40 SHL SUB PUSH2 0x124 CALLDATALOAD GT PUSH2 0x363 JUMPI PUSH2 0x4FE CALLDATASIZE PUSH2 0x124 CALLDATALOAD PUSH1 0x4 ADD PUSH2 0x1E32 JUMP JUMPDEST PUSH2 0x360 MSTORE PUSH2 0x380 MSTORE PUSH1 0x1 PUSH1 0x1 PUSH1 0x40 SHL SUB PUSH2 0x144 CALLDATALOAD GT PUSH2 0x363 JUMPI PUSH2 0x527 CALLDATASIZE PUSH2 0x144 CALLDATALOAD PUSH1 0x4 ADD PUSH2 0x1E32 JUMP JUMPDEST PUSH2 0x220 MSTORE PUSH2 0x280 MSTORE PUSH1 0x1 PUSH1 0x1 PUSH1 0x40 SHL SUB PUSH2 0x164 CALLDATALOAD GT PUSH2 0x363 JUMPI PUSH2 0x550 CALLDATASIZE PUSH2 0x164 CALLDATALOAD PUSH1 0x4 ADD PUSH2 0x1E32 JUMP JUMPDEST PUSH2 0x260 MSTORE PUSH2 0x200 MSTORE PUSH1 0x1 PUSH1 0x1 PUSH1 0x40 SHL SUB PUSH2 0x184 CALLDATALOAD GT PUSH2 0x363 JUMPI PUSH2 0x579 CALLDATASIZE PUSH2 0x184 CALLDATALOAD PUSH1 0x4 ADD PUSH2 0x1E32 JUMP JUMPDEST PUSH1 0x80 MSTORE PUSH2 0x180 MSTORE PUSH1 0x1 PUSH1 0x1 PUSH1 0x40 SHL SUB PUSH2 0x1A4 CALLDATALOAD GT PUSH2 0x363 JUMPI PUSH2 0x5A1 CALLDATASIZE PUSH2 0x1A4 CALLDATALOAD PUSH1 0x4 ADD PUSH2 0x1E32 JUMP JUMPDEST PUSH2 0x300 MSTORE PUSH1 0xE0 MSTORE PUSH1 0x1 PUSH1 0x1 PUSH1 0x40 SHL SUB PUSH2 0x1C4 CALLDATALOAD GT PUSH2 0x363 JUMPI PUSH2 0x5C9 CALLDATASIZE PUSH2 0x1C4 CALLDATALOAD PUSH1 0x4 ADD PUSH2 0x1E32 JUMP JUMPDEST PUSH2 0x2C0 MSTORE PUSH2 0x2E0 MSTORE PUSH1 0x0 SLOAD PUSH1 0x1 PUSH1 0x1 PUSH1 0xA0 SHL SUB AND CALLER SUB PUSH2 0x19FC JUMPI PUSH2 0x5F2 PUSH1 0x40 MLOAD DUP1 PUSH1 0xA0 MSTORE PUSH2 0x1D0F JUMP JUMPDEST PUSH2 0x602 CALLDATASIZE PUSH2 0x3C0 MLOAD PUSH1 0xC0 MLOAD PUSH2 0x1E5F JUMP JUMPDEST PUSH1 0xA0 MLOAD MSTORE PUSH2 0x617 CALLDATASIZE PUSH2 0x1A0 MLOAD PUSH2 0x240 MLOAD PUSH2 0x1E5F JUMP JUMPDEST PUSH1 0x20 PUSH1 0xA0 MLOAD ADD MSTORE PUSH2 0x62F CALLDATASIZE PUSH2 0x140 MLOAD PUSH2 0x320 MLOAD PUSH2 0x1E5F JUMP JUMPDEST PUSH1 0x40 PUSH1 0xA0 MLOAD ADD MSTORE PUSH2 0x647 CALLDATASIZE PUSH2 0x3A0 MLOAD PUSH2 0x400 MLOAD PUSH2 0x1E5F JUMP JUMPDEST PUSH1 0x60 PUSH1 0xA0 MLOAD ADD MSTORE PUSH2 0x65F CALLDATASIZE PUSH2 0x420 MLOAD PUSH2 0x2A0 MLOAD PUSH2 0x1E5F JUMP JUMPDEST PUSH1 0x80 PUSH1 0xA0 MLOAD ADD MSTORE PUSH2 0x677 CALLDATASIZE PUSH2 0x160 MLOAD PUSH2 0x440 MLOAD PUSH2 0x1E5F JUMP JUMPDEST PUSH1 0xA0 DUP1 MLOAD ADD MSTORE PUSH2 0x68E CALLDATASIZE PUSH2 0x3E0 MLOAD PUSH2 0x340 MLOAD PUSH2 0x1E5F JUMP JUMPDEST PUSH1 0xC0 PUSH1 0xA0 MLOAD ADD MSTORE PUSH2 0x6A6 CALLDATASIZE PUSH2 0x100 MLOAD PUSH2 0x1C0 MLOAD PUSH2 0x1E5F JUMP JUMPDEST PUSH1 0xE0 PUSH1 0xA0 MLOAD ADD MSTORE PUSH2 0x6BE CALLDATASIZE PUSH2 0x360 MLOAD PUSH2 0x380 MLOAD PUSH2 0x1E5F JUMP JUMPDEST PUSH2 0x100 PUSH1 0xA0 MLOAD ADD MSTORE PUSH2 0x6D7 CALLDATASIZE PUSH2 0x220 MLOAD PUSH2 0x280 MLOAD PUSH2 0x1E5F JUMP JUMPDEST PUSH2 0x120 PUSH1 0xA0 MLOAD ADD MSTORE PUSH2 0x6F0 CALLDATASIZE PUSH2 0x260 MLOAD PUSH2 0x200 MLOAD PUSH2 0x1E5F JUMP JUMPDEST PUSH2 0x140 PUSH1 0xA0 MLOAD ADD MSTORE PUSH2 0x708 CALLDATASIZE PUSH1 0x80 MLOAD PUSH2 0x180 MLOAD PUSH2 0x1E5F JUMP JUMPDEST PUSH2 0x160 PUSH1 0xA0 MLOAD ADD MSTORE PUSH2 0x720 CALLDATASIZE PUSH2 0x300 MLOAD PUSH1 0xE0 MLOAD PUSH2 0x1E5F JUMP JUMPDEST PUSH2 0x180 PUSH1 0xA0 MLOAD ADD MSTORE PUSH2 0x739 CALLDATASIZE PUSH2 0x2C0 MLOAD PUSH2 0x2E0 MLOAD PUSH2 0x1E5F JUMP JUMPDEST PUSH2 0x1A0 PUSH1 0xA0 MLOAD ADD MSTORE PUSH1 0x1 DUP1 PUSH1 0xA0 SHL SUB PUSH2 0x1E0 MLOAD AND PUSH1 0x0 MSTORE PUSH1 0x1 PUSH1 0x20 MSTORE PUSH1 0x40 PUSH1 0x0 KECCAK256 PUSH1 0xA0 MLOAD MLOAD DUP1 MLOAD SWAP1 PUSH1 0x1 PUSH1 0x1 PUSH1 0x40 SHL SUB DUP3 GT PUSH2 0xE9F JUMPI DUP2 SWAP1 PUSH2 0x77B DUP5 SLOAD PUSH2 0x1CD5 JUMP JUMPDEST PUSH1 0x1F DUP2 GT PUSH2 0x19AC JUMPI JUMPDEST POP PUSH1 0x20 SWAP1 PUSH1 0x1F DUP4 GT PUSH1 0x1 EQ PUSH2 0x1940 JUMPI PUSH1 0x0 SWAP3 PUSH2 0x1935 JUMPI JUMPDEST POP POP DUP2 PUSH1 0x1 SHL SWAP2 PUSH1 0x0 NOT SWAP1 PUSH1 0x3 SHL SHR NOT AND OR DUP2 SSTORE JUMPDEST PUSH1 0x20 PUSH1 0xA0 MLOAD ADD MLOAD DUP1 MLOAD SWAP1 PUSH1 0x1 PUSH1 0x1 PUSH1 0x40 SHL SUB DUP3 GT PUSH2 0xE9F JUMPI DUP2 SWAP1 PUSH2 0x7D7 PUSH1 0x1 DUP6 ADD SLOAD PUSH2 0x1CD5 JUMP JUMPDEST PUSH1 0x1F DUP2 GT PUSH2 0x18E2 JUMPI JUMPDEST POP PUSH1 0x20 SWAP1 PUSH1 0x1F DUP4 GT PUSH1 0x1 EQ PUSH2 0x1870 JUMPI PUSH1 0x0 SWAP3 PUSH2 0x1865 JUMPI JUMPDEST POP POP DUP2 PUSH1 0x1 SHL SWAP2 PUSH1 0x0 NOT SWAP1 PUSH1 0x3 SHL SHR NOT AND OR PUSH1 0x1 DUP3 ADD SSTORE JUMPDEST PUSH1 0x40 PUSH1 0xA0 MLOAD ADD MLOAD DUP1 MLOAD SWAP1 PUSH1 0x1 PUSH1 0x1 PUSH1 0x40 SHL SUB DUP3 GT PUSH2 0xE9F JUMPI DUP2 SWAP1 PUSH2 0x836 PUSH1 0x2 DUP6 ADD SLOAD PUSH2 0x1CD5 JUMP JUMPDEST PUSH1 0x1F DUP2 GT PUSH2 0x1812 JUMPI JUMPDEST POP PUSH1 0x20 SWAP1 PUSH1 0x1F DUP4 GT PUSH1 0x1 EQ PUSH2 0x17A0 JUMPI PUSH1 0x0 SWAP3 PUSH2 0x1795 JUMPI JUMPDEST POP POP DUP2 PUSH1 0x1 SHL SWAP2 PUSH1 0x0 NOT SWAP1 PUSH1 0x3 SHL SHR NOT AND OR PUSH1 0x2 DUP3 ADD SSTORE JUMPDEST PUSH1 0x60 PUSH1 0xA0 MLOAD ADD MLOAD DUP1 MLOAD SWAP1 PUSH1 0x1 PUSH1 0x1 PUSH1 0x40 SHL SUB DUP3 GT PUSH2 0xE9F JUMPI DUP2 SWAP1 PUSH2 0x895 PUSH1 0x3 DUP6 ADD SLOAD PUSH2 0x1CD5 JUMP JUMPDEST PUSH1 0x1F DUP2 GT PUSH2 0x1742 JUMPI JUMPDEST POP PUSH1 0x20 SWAP1 PUSH1 0x1F DUP4 GT PUSH1 0x1 EQ PUSH2 0x16D0 JUMPI PUSH1 0x0 SWAP3 PUSH2 0x16C5 JUMPI JUMPDEST POP POP DUP2 PUSH1 0x1 SHL SWAP2 PUSH1 0x0 NOT SWAP1 PUSH1 0x3 SHL SHR NOT AND OR PUSH1 0x3 DUP3 ADD SSTORE JUMPDEST PUSH1 0x80 PUSH1 0xA0 MLOAD ADD MLOAD DUP1 MLOAD SWAP1 PUSH1 0x1 PUSH1 0x1 PUSH1 0x40 SHL SUB DUP3 GT PUSH2 0xE9F JUMPI DUP2 SWAP1 PUSH2 0x8F4 PUSH1 0x4 DUP6 ADD SLOAD PUSH2 0x1CD5 JUMP JUMPDEST PUSH1 0x1F DUP2 GT PUSH2 0x1672 JUMPI JUMPDEST POP PUSH1 0x20 SWAP1 PUSH1 0x1F DUP4 GT PUSH1 0x1 EQ PUSH2 0x1600 JUMPI PUSH1 0x0 SWAP3 PUSH2 0x15F5 JUMPI JUMPDEST POP POP DUP2 PUSH1 0x1 SHL SWAP2 PUSH1 0x0 NOT SWAP1 PUSH1 0x3 SHL SHR NOT AND OR PUSH1 0x4 DUP3 ADD SSTORE JUMPDEST PUSH1 0xA0 DUP1 MLOAD ADD MLOAD DUP1 MLOAD SWAP1 PUSH1 0x1 PUSH1 0x1 PUSH1 0x40 SHL SUB DUP3 GT PUSH2 0xE9F JUMPI DUP2 SWAP1 PUSH2 0x952 PUSH1 0x5 DUP6 ADD SLOAD PUSH2 0x1CD5 JUMP JUMPDEST PUSH1 0x1F DUP2 GT PUSH2 0x15A2 JUMPI JUMPDEST POP PUSH1 0x20 SWAP1 PUSH1 0x1F DUP4 GT PUSH1 0x1 EQ PUSH2 0x1530 JUMPI PUSH1 0x0 SWAP3 PUSH2 0x1525 JUMPI JUMPDEST POP POP DUP2 PUSH1 0x1 SHL SWAP2 PUSH1 0x0 NOT SWAP1 PUSH1 0x3 SHL SHR NOT AND OR PUSH1 0x5 DUP3 ADD SSTORE JUMPDEST PUSH1 0xC0 PUSH1 0xA0 MLOAD ADD MLOAD DUP1 MLOAD SWAP1 PUSH1 0x1 PUSH1 0x1 PUSH1 0x40 SHL SUB DUP3 GT PUSH2 0xE9F JUMPI DUP2 SWAP1 PUSH2 0x9B1 PUSH1 0x6 DUP6 ADD SLOAD PUSH2 0x1CD5 JUMP JUMPDEST PUSH1 0x1F DUP2 GT PUSH2 0x14D2 JUMPI JUMPDEST POP PUSH1 0x20 SWAP1 PUSH1 0x1F DUP4 GT PUSH1 0x1 EQ PUSH2 0x1460 JUMPI PUSH1 0x0 SWAP3 PUSH2 0x1455 JUMPI JUMPDEST POP POP DUP2 PUSH1 0x1 SHL SWAP2 PUSH1 0x0 NOT SWAP1 PUSH1 0x3 SHL SHR NOT AND OR PUSH1 0x6 DUP3 ADD SSTORE JUMPDEST PUSH1 0xE0 PUSH1 0xA0 MLOAD ADD MLOAD DUP1 MLOAD SWAP1 PUSH1 0x1 PUSH1 0x1 PUSH1 0x40 SHL SUB DUP3 GT PUSH2 0xE9F JUMPI DUP2 SWAP1 PUSH2 0xA10 PUSH1 0x7 DUP6 ADD SLOAD PUSH2 0x1CD5 JUMP JUMPDEST PUSH1 0x1F DUP2 GT PUSH2 0x1402 JUMPI JUMPDEST POP PUSH1 0x20 SWAP1 PUSH1 0x1F DUP4 GT PUSH1 0x1 EQ PUSH2 0x1390 JUMPI PUSH1 0x0 SWAP3 PUSH2 0x1385 JUMPI JUMPDEST POP POP DUP2 PUSH1 0x1 SHL SWAP2 PUSH1 0x0 NOT SWAP1 PUSH1 0x3 SHL SHR NOT AND OR PUSH1 0x7 DUP3 ADD SSTORE JUMPDEST PUSH2 0x100 PUSH1 0xA0 MLOAD ADD MLOAD DUP1 MLOAD SWAP1 PUSH1 0x1 PUSH1 0x1 PUSH1 0x40 SHL SUB DUP3 GT PUSH2 0xE9F JUMPI DUP2 SWAP1 PUSH2 0xA70 PUSH1 0x8 DUP6 ADD SLOAD PUSH2 0x1CD5 JUMP JUMPDEST PUSH1 0x1F DUP2 GT PUSH2 0x1332 JUMPI JUMPDEST POP PUSH1 0x20 SWAP1 PUSH1 0x1F DUP4 GT PUSH1 0x1 EQ PUSH2 0x12C0 JUMPI PUSH1 0x0 SWAP3 PUSH2 0x12B5 JUMPI JUMPDEST POP POP DUP2 PUSH1 0x1 SHL SWAP2 PUSH1 0x0 NOT SWAP1 PUSH1 0x3 SHL SHR NOT AND OR PUSH1 0x8 DUP3 ADD SSTORE JUMPDEST PUSH2 0x120 PUSH1 0xA0 MLOAD ADD MLOAD DUP1 MLOAD SWAP1 PUSH1 0x1 PUSH1 0x1 PUSH1 0x40 SHL SUB DUP3 GT PUSH2 0xE9F JUMPI DUP2 SWAP1 PUSH2 0xAD0 PUSH1 0x9 DUP6 ADD SLOAD PUSH2 0x1CD5 JUMP JUMPDEST PUSH1 0x1F DUP2 GT PUSH2 0x1262 JUMPI JUMPDEST POP PUSH1 0x20 SWAP1 PUSH1 0x1F DUP4 GT PUSH1 0x1 EQ PUSH2 0x11F0 JUMPI PUSH1 0x0 SWAP3 PUSH2 0x11E5 JUMPI JUMPDEST POP POP DUP2 PUSH1 0x1 SHL SWAP2 PUSH1 0x0 NOT SWAP1 PUSH1 0x3 SHL SHR NOT AND OR PUSH1 0x9 DUP3 ADD SSTORE JUMPDEST PUSH2 0x140 PUSH1 0xA0 MLOAD ADD MLOAD DUP1 MLOAD SWAP1 PUSH1 0x1 PUSH1 0x1 PUSH1 0x40 SHL SUB DUP3 GT PUSH2 0xE9F JUMPI DUP2 SWAP1 PUSH2 0xB30 PUSH1 0xA DUP6 ADD SLOAD PUSH2 0x1CD5 JUMP JUMPDEST PUSH1 0x1F DUP2 GT PUSH2 0x1192 JUMPI JUMPDEST POP PUSH1 0x20 SWAP1 PUSH1 0x1F DUP4 GT PUSH1 0x1 EQ PUSH2 0x1120 JUMPI PUSH1 0x0 SWAP3 PUSH2 0x1115 JUMPI JUMPDEST POP POP DUP2 PUSH1 0x1 SHL SWAP2 PUSH1 0x0 NOT SWAP1 PUSH1 0x3 SHL SHR NOT AND OR PUSH1 0xA DUP3 ADD SSTORE JUMPDEST PUSH2 0x160 PUSH1 0xA0 MLOAD ADD MLOAD DUP1 MLOAD SWAP1 PUSH1 0x1 PUSH1 0x1 PUSH1 0x40 SHL SUB DUP3 GT PUSH2 0xE9F JUMPI DUP2 SWAP1 PUSH2 0xB90 PUSH1 0xB DUP6 ADD SLOAD PUSH2 0x1CD5 JUMP JUMPDEST PUSH1 0x1F DUP2 GT PUSH2 0x10C2 JUMPI JUMPDEST POP PUSH1 0x20 SWAP1 PUSH1 0x1F DUP4 GT PUSH1 0x1 EQ PUSH2 0x1050 JUMPI PUSH1 0x0 SWAP3 PUSH2 0x1045 JUMPI JUMPDEST POP POP DUP2 PUSH1 0x1 SHL SWAP2 PUSH1 0x0 NOT SWAP1 PUSH1 0x3 SHL SHR NOT AND OR PUSH1 0xB DUP3 ADD SSTORE JUMPDEST PUSH2 0x180 PUSH1 0xA0 MLOAD ADD MLOAD DUP1 MLOAD SWAP1 PUSH1 0x1 PUSH1 0x1 PUSH1 0x40 SHL SUB DUP3 GT PUSH2 0xE9F JUMPI DUP2 SWAP1 PUSH2 0xBF0 PUSH1 0xC DUP6 ADD SLOAD PUSH2 0x1CD5 JUMP JUMPDEST PUSH1 0x1F DUP2 GT PUSH2 0xFF2 JUMPI JUMPDEST POP PUSH1 0x20 SWAP1 PUSH1 0x1F DUP4 GT PUSH1 0x1 EQ PUSH2 0xF80 JUMPI PUSH1 0x0 SWAP3 PUSH2 0xF75 JUMPI JUMPDEST POP POP DUP2 PUSH1 0x1 SHL SWAP2 PUSH1 0x0 NOT SWAP1 PUSH1 0x3 SHL SHR NOT AND OR PUSH1 0xC DUP3 ADD SSTORE JUMPDEST PUSH2 0x1A0 PUSH1 0xA0 MLOAD ADD MLOAD DUP1 MLOAD SWAP1 PUSH1 0x1 PUSH1 0x1 PUSH1 0x40 SHL SUB DUP3 GT PUSH2 0xE9F JUMPI PUSH2 0xC4E PUSH1 0xD DUP5 ADD SLOAD PUSH2 0x1CD5 JUMP JUMPDEST PUSH1 0x1F DUP2 GT PUSH2 0xF2E JUMPI JUMPDEST POP PUSH1 0x20 SWAP1 PUSH1 0x1F DUP4 GT PUSH1 0x1 EQ PUSH2 0xEC0 JUMPI PUSH1 0xD SWAP3 SWAP2 PUSH1 0x0 SWAP2 DUP4 PUSH2 0xEB5 JUMPI JUMPDEST POP POP DUP2 PUSH1 0x1 SHL SWAP2 PUSH1 0x0 NOT SWAP1 PUSH1 0x3 SHL SHR NOT AND OR SWAP2 ADD SSTORE JUMPDEST PUSH1 0x2 SLOAD PUSH9 0x10000000000000000 DUP2 LT ISZERO PUSH2 0xE9F JUMPI DUP1 PUSH1 0x1 PUSH2 0xCAD SWAP3 ADD PUSH1 0x2 SSTORE PUSH2 0x1C72 JUMP JUMPDEST DUP2 SLOAD SWAP1 PUSH1 0x3 SHL SWAP1 PUSH1 0x1 DUP1 PUSH1 0xA0 SHL SUB PUSH2 0x1E0 MLOAD AND DUP3 SHL SWAP2 PUSH1 0x1 DUP1 PUSH1 0xA0 SHL SUB SWAP1 SHL NOT AND OR SWAP1 SSTORE PUSH2 0x1C0 PUSH1 0x40 MLOAD DUP1 PUSH2 0x120 MSTORE MSTORE PUSH2 0xE47 PUSH2 0xE2E PUSH2 0xE15 PUSH2 0xDFB PUSH2 0xDE1 PUSH2 0xDC7 PUSH2 0xDAE PUSH2 0xD95 PUSH2 0xD7C PUSH2 0xD63 PUSH2 0xD4A PUSH2 0xD31 PUSH2 0xD18 PUSH2 0x1C0 PUSH2 0x120 MLOAD ADD PUSH2 0x3C0 MLOAD PUSH1 0xC0 MLOAD PUSH2 0x1EA5 JUMP JUMPDEST PUSH2 0x120 MLOAD PUSH1 0x20 DUP2 DUP4 SUB SWAP2 ADD MSTORE PUSH2 0x1A0 MLOAD PUSH2 0x240 MLOAD PUSH2 0x1EA5 JUMP JUMPDEST PUSH2 0x120 MLOAD PUSH1 0x40 DUP2 DUP4 SUB SWAP2 ADD MSTORE PUSH2 0x140 MLOAD PUSH2 0x320 MLOAD PUSH2 0x1EA5 JUMP JUMPDEST PUSH2 0x120 MLOAD PUSH1 0x60 DUP2 DUP4 SUB SWAP2 ADD MSTORE PUSH2 0x3A0 MLOAD PUSH2 0x400 MLOAD PUSH2 0x1EA5 JUMP JUMPDEST PUSH2 0x120 MLOAD PUSH1 0x80 DUP2 DUP4 SUB SWAP2 ADD MSTORE PUSH2 0x420 MLOAD PUSH2 0x2A0 MLOAD PUSH2 0x1EA5 JUMP JUMPDEST PUSH2 0x120 MLOAD PUSH1 0xA0 DUP2 DUP4 SUB SWAP2 ADD MSTORE PUSH2 0x160 MLOAD PUSH2 0x440 MLOAD PUSH2 0x1EA5 JUMP JUMPDEST PUSH2 0x120 MLOAD PUSH1 0xC0 DUP2 DUP4 SUB SWAP2 ADD MSTORE PUSH2 0x3E0 MLOAD PUSH2 0x340 MLOAD PUSH2 0x1EA5 JUMP JUMPDEST PUSH2 0x120 MLOAD PUSH1 0xE0 DUP2 DUP4 SUB SWAP2 ADD MSTORE PUSH2 0x100 MLOAD PUSH2 0x1C0 MLOAD PUSH2 0x1EA5 JUMP JUMPDEST PUSH2 0x120 MLOAD PUSH2 0x100 DUP2 DUP4 SUB SWAP2 ADD MSTORE PUSH2 0x360 MLOAD PUSH2 0x380 MLOAD PUSH2 0x1EA5 JUMP JUMPDEST PUSH2 0x120 MLOAD PUSH2 0x120 DUP2 DUP4 SUB SWAP2 ADD MSTORE PUSH2 0x220 MLOAD PUSH2 0x280 MLOAD PUSH2 0x1EA5 JUMP JUMPDEST PUSH2 0x120 MLOAD PUSH2 0x140 DUP2 DUP4 SUB SWAP2 ADD MSTORE PUSH2 0x260 MLOAD PUSH2 0x200 MLOAD PUSH2 0x1EA5 JUMP JUMPDEST PUSH2 0x120 MLOAD PUSH2 0x160 DUP2 DUP4 SUB SWAP2 ADD MSTORE PUSH1 0x80 MLOAD PUSH2 0x180 MLOAD PUSH2 0x1EA5 JUMP JUMPDEST PUSH2 0x120 MLOAD PUSH2 0x180 DUP2 DUP4 SUB SWAP2 ADD MSTORE PUSH2 0x300 MLOAD PUSH1 0xE0 MLOAD PUSH2 0x1EA5 JUMP JUMPDEST PUSH2 0x120 MLOAD PUSH2 0x1A0 DUP2 DUP4 SUB SWAP2 ADD MSTORE PUSH32 0x86FAE5154041288F6557DEEA6D9C52338B4AB2AC59D14A9568F540C685055478 PUSH1 0x1 DUP1 PUSH1 0xA0 SHL SUB PUSH2 0x1E0 MLOAD AND SWAP2 PUSH2 0xE97 PUSH2 0x120 MLOAD SWAP2 PUSH2 0x2C0 MLOAD PUSH2 0x2E0 MLOAD PUSH2 0x1EA5 JUMP JUMPDEST SUB PUSH2 0x120 MLOAD LOG2 STOP JUMPDEST PUSH4 0x4E487B71 PUSH1 0xE0 SHL PUSH1 0x0 MSTORE PUSH1 0x41 PUSH1 0x4 MSTORE PUSH1 0x24 PUSH1 0x0 REVERT JUMPDEST ADD MLOAD SWAP1 POP DUP5 DUP1 PUSH2 0xC73 JUMP JUMPDEST SWAP1 PUSH1 0xD DUP5 ADD PUSH1 0x0 MSTORE PUSH1 0x20 PUSH1 0x0 KECCAK256 SWAP2 PUSH1 0x0 PUSH1 0x1F NOT DUP6 AND SWAP1 JUMPDEST DUP2 DUP2 LT PUSH2 0xF16 JUMPI POP SWAP2 PUSH1 0x1 SWAP4 SWAP2 DUP6 PUSH1 0xD SWAP7 SWAP5 LT PUSH2 0xEFD JUMPI JUMPDEST POP POP POP DUP2 SHL ADD SWAP2 ADD SSTORE PUSH2 0xC89 JUMP JUMPDEST ADD MLOAD PUSH1 0x0 NOT PUSH1 0xF8 DUP5 PUSH1 0x3 SHL AND SHR NOT AND SWAP1 SSTORE DUP5 DUP1 DUP1 PUSH2 0xEEF JUMP JUMPDEST SWAP3 SWAP4 PUSH1 0x20 PUSH1 0x1 DUP2 SWAP3 DUP8 DUP7 ADD MLOAD DUP2 SSTORE ADD SWAP6 ADD SWAP4 ADD PUSH2 0xED7 JUMP JUMPDEST PUSH1 0xD DUP5 ADD PUSH1 0x0 MSTORE PUSH1 0x20 PUSH1 0x0 KECCAK256 PUSH1 0x1F DUP5 ADD PUSH1 0x5 SHR DUP2 ADD PUSH1 0x20 DUP6 LT PUSH2 0xF6E JUMPI JUMPDEST PUSH1 0x1F DUP4 ADD PUSH1 0x5 SHR DUP3 ADD DUP2 LT PUSH2 0xF62 JUMPI POP POP PUSH2 0xC57 JUMP JUMPDEST PUSH1 0x0 DUP2 SSTORE PUSH1 0x1 ADD PUSH2 0xF4C JUMP JUMPDEST POP DUP1 PUSH2 0xF4C JUMP JUMPDEST ADD MLOAD SWAP1 POP DUP4 DUP1 PUSH2 0xC10 JUMP JUMPDEST SWAP3 POP PUSH1 0xC DUP5 ADD PUSH1 0x0 MSTORE PUSH1 0x20 PUSH1 0x0 KECCAK256 SWAP1 PUSH1 0x0 SWAP4 JUMPDEST PUSH1 0x1F NOT DUP5 AND DUP6 LT PUSH2 0xFD7 JUMPI PUSH1 0x1 SWAP5 POP DUP4 PUSH1 0x1F NOT DUP2 AND LT PUSH2 0xFBE JUMPI JUMPDEST POP POP POP DUP2 SHL ADD PUSH1 0xC DUP3 ADD SSTORE PUSH2 0xC28 JUMP JUMPDEST ADD MLOAD PUSH1 0x0 NOT PUSH1 0xF8 DUP5 PUSH1 0x3 SHL AND SHR NOT AND SWAP1 SSTORE DUP4 DUP1 DUP1 PUSH2 0xFAE JUMP JUMPDEST DUP2 DUP2 ADD MLOAD DUP4 SSTORE PUSH1 0x20 SWAP5 DUP6 ADD SWAP5 PUSH1 0x1 SWAP1 SWAP4 ADD SWAP3 SWAP1 SWAP2 ADD SWAP1 PUSH2 0xF93 JUMP JUMPDEST SWAP1 SWAP2 POP PUSH1 0xC DUP5 ADD PUSH1 0x0 MSTORE PUSH1 0x20 PUSH1 0x0 KECCAK256 PUSH1 0x1F DUP5 ADD PUSH1 0x5 SHR DUP2 ADD PUSH1 0x20 DUP6 LT PUSH2 0x103E JUMPI JUMPDEST SWAP1 DUP5 SWAP4 SWAP3 SWAP2 JUMPDEST PUSH1 0x1F DUP4 ADD PUSH1 0x5 SHR DUP3 ADD DUP2 LT PUSH2 0x102F JUMPI POP POP PUSH2 0xBF9 JUMP JUMPDEST PUSH1 0x0 DUP2 SSTORE DUP6 SWAP5 POP PUSH1 0x1 ADD PUSH2 0x1019 JUMP JUMPDEST POP DUP1 PUSH2 0x1013 JUMP JUMPDEST ADD MLOAD SWAP1 POP DUP4 DUP1 PUSH2 0xBB0 JUMP JUMPDEST SWAP3 POP PUSH1 0xB DUP5 ADD PUSH1 0x0 MSTORE PUSH1 0x20 PUSH1 0x0 KECCAK256 SWAP1 PUSH1 0x0 SWAP4 JUMPDEST PUSH1 0x1F NOT DUP5 AND DUP6 LT PUSH2 0x10A7 JUMPI PUSH1 0x1 SWAP5 POP DUP4 PUSH1 0x1F NOT DUP2 AND LT PUSH2 0x108E JUMPI JUMPDEST POP POP POP DUP2 SHL ADD PUSH1 0xB DUP3 ADD SSTORE PUSH2 0xBC8 JUMP JUMPDEST ADD MLOAD PUSH1 0x0 NOT PUSH1 0xF8 DUP5 PUSH1 0x3 SHL AND SHR NOT AND SWAP1 SSTORE DUP4 DUP1 DUP1 PUSH2 0x107E JUMP JUMPDEST DUP2 DUP2 ADD MLOAD DUP4 SSTORE PUSH1 0x20 SWAP5 DUP6 ADD SWAP5 PUSH1 0x1 SWAP1 SWAP4 ADD SWAP3 SWAP1 SWAP2 ADD SWAP1 PUSH2 0x1063 JUMP JUMPDEST SWAP1 SWAP2 POP PUSH1 0xB DUP5 ADD PUSH1 0x0 MSTORE PUSH1 0x20 PUSH1 0x0 KECCAK256 PUSH1 0x1F DUP5 ADD PUSH1 0x5 SHR DUP2 ADD PUSH1 0x20 DUP6 LT PUSH2 0x110E JUMPI JUMPDEST SWAP1 DUP5 SWAP4 SWAP3 SWAP2 JUMPDEST PUSH1 0x1F DUP4 ADD PUSH1 0x5 SHR DUP3 ADD DUP2 LT PUSH2 0x10FF JUMPI POP POP PUSH2 0xB99 JUMP JUMPDEST PUSH1 0x0 DUP2 SSTORE DUP6 SWAP5 POP PUSH1 0x1 ADD PUSH2 0x10E9 JUMP JUMPDEST POP DUP1 PUSH2 0x10E3 JUMP JUMPDEST ADD MLOAD SWAP1 POP DUP4 DUP1 PUSH2 0xB50 JUMP JUMPDEST SWAP3 POP PUSH1 0xA DUP5 ADD PUSH1 0x0 MSTORE PUSH1 0x20 PUSH1 0x0 KECCAK256 SWAP1 PUSH1 0x0 SWAP4 JUMPDEST PUSH1 0x1F NOT DUP5 AND DUP6 LT PUSH2 0x1177 JUMPI PUSH1 0x1 SWAP5 POP DUP4 PUSH1 0x1F NOT DUP2 AND LT PUSH2 0x115E JUMPI JUMPDEST POP POP POP DUP2 SHL ADD PUSH1 0xA DUP3 ADD SSTORE PUSH2 0xB68 JUMP JUMPDEST ADD MLOAD PUSH1 0x0 NOT PUSH1 0xF8 DUP5 PUSH1 0x3 SHL AND SHR NOT AND SWAP1 SSTORE DUP4 DUP1 DUP1 PUSH2 0x114E JUMP JUMPDEST DUP2 DUP2 ADD MLOAD DUP4 SSTORE PUSH1 0x20 SWAP5 DUP6 ADD SWAP5 PUSH1 0x1 SWAP1 SWAP4 ADD SWAP3 SWAP1 SWAP2 ADD SWAP1 PUSH2 0x1133 JUMP JUMPDEST SWAP1 SWAP2 POP PUSH1 0xA DUP5 ADD PUSH1 0x0 MSTORE PUSH1 0x20 PUSH1 0x0 KECCAK256 PUSH1 0x1F DUP5 ADD PUSH1 0x5 SHR DUP2 ADD PUSH1 0x20 DUP6 LT PUSH2 0x11DE JUMPI JUMPDEST SWAP1 DUP5 SWAP4 SWAP3 SWAP2 JUMPDEST PUSH1 0x1F DUP4 ADD PUSH1 0x5 SHR DUP3 ADD DUP2 LT PUSH2 0x11CF JUMPI POP POP PUSH2 0xB39 JUMP JUMPDEST PUSH1 0x0 DUP2 SSTORE DUP6 SWAP5 POP PUSH1 0x1 ADD PUSH2 0x11B9 JUMP JUMPDEST POP DUP1 PUSH2 0x11B3 JUMP JUMPDEST ADD MLOAD SWAP1 POP DUP4 DUP1 PUSH2 0xAF0 JUMP JUMPDEST SWAP3 POP PUSH1 0x9 DUP5 ADD PUSH1 0x0 MSTORE PUSH1 0x20 PUSH1 0x0 KECCAK256 SWAP1 PUSH1 0x0 SWAP4 JUMPDEST PUSH1 0x1F NOT DUP5 AND DUP6 LT PUSH2 0x1247 JUMPI PUSH1 0x1 SWAP5 POP DUP4 PUSH1 0x1F NOT DUP2 AND LT PUSH2 0x122E JUMPI JUMPDEST POP POP POP DUP2 SHL ADD PUSH1 0x9 DUP3 ADD SSTORE PUSH2 0xB08 JUMP JUMPDEST ADD MLOAD PUSH1 0x0 NOT PUSH1 0xF8 DUP5 PUSH1 0x3 SHL AND SHR NOT AND SWAP1 SSTORE DUP4 DUP1 DUP1 PUSH2 0x121E JUMP JUMPDEST DUP2 DUP2 ADD MLOAD DUP4 SSTORE PUSH1 0x20 SWAP5 DUP6 ADD SWAP5 PUSH1 0x1 SWAP1 SWAP4 ADD SWAP3 SWAP1 SWAP2 ADD SWAP1 PUSH2 0x1203 JUMP JUMPDEST SWAP1 SWAP2 POP PUSH1 0x9 DUP5 ADD PUSH1 0x0 MSTORE PUSH1 0x20 PUSH1 0x0 KECCAK256 PUSH1 0x1F DUP5 ADD PUSH1 0x5 SHR DUP2 ADD PUSH1 0x20 DUP6 LT PUSH2 0x12AE JUMPI JUMPDEST SWAP1 DUP5 SWAP4 SWAP3 SWAP2 JUMPDEST PUSH1 0x1F DUP4 ADD PUSH1 0x5 SHR DUP3 ADD DUP2 LT PUSH2 0x129F JUMPI POP POP PUSH2 0xAD9 JUMP JUMPDEST PUSH1 0x0 DUP2 SSTORE DUP6 SWAP5 POP PUSH1 0x1 ADD PUSH2 0x1289 JUMP JUMPDEST POP DUP1 PUSH2 0x1283 JUMP JUMPDEST ADD MLOAD SWAP1 POP DUP4 DUP1 PUSH2 0xA90 JUMP JUMPDEST SWAP3 POP PUSH1 0x8 DUP5 ADD PUSH1 0x0 MSTORE PUSH1 0x20 PUSH1 0x0 KECCAK256 SWAP1 PUSH1 0x0 SWAP4 JUMPDEST PUSH1 0x1F NOT DUP5 AND DUP6 LT PUSH2 0x1317 JUMPI PUSH1 0x1 SWAP5 POP DUP4 PUSH1 0x1F NOT DUP2 AND LT PUSH2 0x12FE JUMPI JUMPDEST POP POP POP DUP2 SHL ADD PUSH1 0x8 DUP3 ADD SSTORE PUSH2 0xAA8 JUMP JUMPDEST ADD MLOAD PUSH1 0x0 NOT PUSH1 0xF8 DUP5 PUSH1 0x3 SHL AND SHR NOT AND SWAP1 SSTORE DUP4 DUP1 DUP1 PUSH2 0x12EE JUMP JUMPDEST DUP2 DUP2 ADD MLOAD DUP4 SSTORE PUSH1 0x20 SWAP5 DUP6 ADD SWAP5 PUSH1 0x1 SWAP1 SWAP4 ADD SWAP3 SWAP1 SWAP2 ADD SWAP1 PUSH2 0x12D3 JUMP JUMPDEST SWAP1 SWAP2 POP PUSH1 0x8 DUP5 ADD PUSH1 0x0 MSTORE PUSH1 0x20 PUSH1 0x0 KECCAK256 PUSH1 0x1F DUP5 ADD PUSH1 0x5 SHR DUP2 ADD PUSH1 0x20 DUP6 LT PUSH2 0x137E JUMPI JUMPDEST SWAP1 DUP5 SWAP4 SWAP3 SWAP2 JUMPDEST PUSH1 0x1F DUP4 ADD PUSH1 0x5 SHR DUP3 ADD DUP2 LT PUSH2 0x136F JUMPI POP POP PUSH2 0xA79 JUMP JUMPDEST PUSH1 0x0 DUP2 SSTORE DUP6 SWAP5 POP PUSH1 0x1 ADD PUSH2 0x1359 JUMP JUMPDEST POP DUP1 PUSH2 0x1353 JUMP JUMPDEST ADD MLOAD SWAP1 POP DUP4 DUP1 PUSH2 0xA30 JUMP JUMPDEST SWAP3 POP PUSH1 0x7 DUP5 ADD PUSH1 0x0 MSTORE PUSH1 0x20 PUSH1 0x0 KECCAK256 SWAP1 PUSH1 0x0 SWAP4 JUMPDEST PUSH1 0x1F NOT DUP5 AND DUP6 LT PUSH2 0x13E7 JUMPI PUSH1 0x1 SWAP5 POP DUP4 PUSH1 0x1F NOT DUP2 AND LT PUSH2 0x13CE JUMPI JUMPDEST POP POP POP DUP2 SHL ADD PUSH1 0x7 DUP3 ADD SSTORE PUSH2 0xA48 JUMP JUMPDEST ADD MLOAD PUSH1 0x0 NOT PUSH1 0xF8 DUP5 PUSH1 0x3 SHL AND SHR NOT AND SWAP1 SSTORE DUP4 DUP1 DUP1 PUSH2 0x13BE JUMP JUMPDEST DUP2 DUP2 ADD MLOAD DUP4 SSTORE PUSH1 0x20 SWAP5 DUP6 ADD SWAP5 PUSH1 0x1 SWAP1 SWAP4 ADD SWAP3 SWAP1 SWAP2 ADD SWAP1 PUSH2 0x13A3 JUMP JUMPDEST SWAP1 SWAP2 POP PUSH1 0x7 DUP5 ADD PUSH1 0x0 MSTORE PUSH1 0x20 PUSH1 0x0 KECCAK256 PUSH1 0x1F DUP5 ADD PUSH1 0x5 SHR DUP2 ADD PUSH1 0x20 DUP6 LT PUSH2 0x144E JUMPI JUMPDEST SWAP1 DUP5 SWAP4 SWAP3 SWAP2 JUMPDEST PUSH1 0x1F DUP4 ADD PUSH1 0x5 SHR DUP3 ADD DUP2 LT PUSH2 0x143F JUMPI POP POP PUSH2 0xA19 JUMP JUMPDEST PUSH1 0x0 DUP2 SSTORE DUP6 SWAP5 POP PUSH1 0x1 ADD PUSH2 0x1429 JUMP JUMPDEST POP DUP1 PUSH2 0x1423 JUMP JUMPDEST ADD MLOAD SWAP1 POP DUP4 DUP1 PUSH2 0x9D1 JUMP JUMPDEST SWAP3 POP PUSH1 0x6 DUP5 ADD PUSH1 0x0 MSTORE PUSH1 0x20 PUSH1 0x0 KECCAK256 SWAP1 PUSH1 0x0 SWAP4 JUMPDEST PUSH1 0x1F NOT DUP5 AND DUP6 LT PUSH2 0x14B7 JUMPI PUSH1 0x1 SWAP5 POP DUP4 PUSH1 0x1F NOT DUP2 AND LT PUSH2 0x149E JUMPI JUMPDEST POP POP POP DUP2 SHL ADD PUSH1 0x6 DUP3 ADD SSTORE PUSH2 0x9E9 JUMP JUMPDEST ADD MLOAD PUSH1 0x0 NOT PUSH1 0xF8 DUP5 PUSH1 0x3 SHL AND SHR NOT AND SWAP1 SSTORE DUP4 DUP1 DUP1 PUSH2 0x148E JUMP JUMPDEST DUP2 DUP2 ADD MLOAD DUP4 SSTORE PUSH1 0x20 SWAP5 DUP6 ADD SWAP5 PUSH1 0x1 SWAP1 SWAP4 ADD SWAP3 SWAP1 SWAP2 ADD SWAP1 PUSH2 0x1473 JUMP JUMPDEST SWAP1 SWAP2 POP PUSH1 0x6 DUP5 ADD PUSH1 0x0 MSTORE PUSH1 0x20 PUSH1 0x0 KECCAK256 PUSH1 0x1F DUP5 ADD PUSH1 0x5 SHR DUP2 ADD PUSH1 0x20 DUP6 LT PUSH2 0x151E JUMPI JUMPDEST SWAP1 DUP5 SWAP4 SWAP3 SWAP2 JUMPDEST PUSH1 0x1F DUP4 ADD PUSH1 0x5 SHR DUP3 ADD DUP2 LT PUSH2 0x150F JUMPI POP POP PUSH2 0x9BA JUMP JUMPDEST PUSH1 0x0 DUP2 SSTORE DUP6 SWAP5 POP PUSH1 0x1 ADD PUSH2 0x14F9 JUMP JUMPDEST POP DUP1 PUSH2 0x14F3 JUMP JUMPDEST ADD MLOAD SWAP1 POP DUP4 DUP1 PUSH2 0x972 JUMP JUMPDEST SWAP3 POP PUSH1 0x5 DUP5 ADD PUSH1 0x0 MSTORE PUSH1 0x20 PUSH1 0x0 KECCAK256 SWAP1 PUSH1 0x0 SWAP4 JUMPDEST PUSH1 0x1F NOT DUP5 AND DUP6 LT PUSH2 0x1587 JUMPI PUSH1 0x1 SWAP5 POP DUP4 PUSH1 0x1F NOT DUP2 AND LT PUSH2 0x156E JUMPI JUMPDEST POP POP POP DUP2 SHL ADD PUSH1 0x5 DUP3 ADD SSTORE PUSH2 0x98A JUMP JUMPDEST ADD MLOAD PUSH1 0x0 NOT PUSH1 0xF8 DUP5 PUSH1 0x3 SHL AND SHR NOT AND SWAP1 SSTORE DUP4 DUP1 DUP1 PUSH2 0x155E JUMP JUMPDEST DUP2 DUP2 ADD MLOAD DUP4 SSTORE PUSH1 0x20 SWAP5 DUP6 ADD SWAP5 PUSH1 0x1 SWAP1 SWAP4 ADD SWAP3 SWAP1 SWAP2 ADD SWAP1 PUSH2 0x1543 JUMP JUMPDEST SWAP1 SWAP2 POP PUSH1 0x5 DUP5 ADD PUSH1 0x0 MSTORE PUSH1 0x20 PUSH1 0x0 KECCAK256 PUSH1 0x1F DUP5 ADD PUSH1 0x5 SHR DUP2 ADD PUSH1 0x20 DUP6 LT PUSH2 0x15EE JUMPI JUMPDEST SWAP1 DUP5 SWAP4 SWAP3 SWAP2 JUMPDEST PUSH1 0x1F DUP4 ADD PUSH1 0x5 SHR DUP3 ADD DUP2 LT PUSH2 0x15DF JUMPI POP POP PUSH2 0x95B JUMP JUMPDEST PUSH1 0x0 DUP2 SSTORE DUP6 SWAP5 POP PUSH1 0x1 ADD PUSH2 0x15C9 JUMP JUMPDEST POP DUP1 PUSH2 0x15C3 JUMP JUMPDEST ADD MLOAD SWAP1 POP DUP4 DUP1 PUSH2 0x914 JUMP JUMPDEST SWAP3 POP PUSH1 0x4 DUP5 ADD PUSH1 0x0 MSTORE PUSH1 0x20 PUSH1 0x0 KECCAK256 SWAP1 PUSH1 0x0 SWAP4 JUMPDEST PUSH1 0x1F NOT DUP5 AND DUP6 LT PUSH2 0x1657 JUMPI PUSH1 0x1 SWAP5 POP DUP4 PUSH1 0x1F NOT DUP2 AND LT PUSH2 0x163E JUMPI JUMPDEST POP POP POP DUP2 SHL ADD PUSH1 0x4 DUP3 ADD SSTORE PUSH2 0x92C JUMP JUMPDEST ADD MLOAD PUSH1 0x0 NOT PUSH1 0xF8 DUP5 PUSH1 0x3 SHL AND SHR NOT AND SWAP1 SSTORE DUP4 DUP1 DUP1 PUSH2 0x162E JUMP JUMPDEST DUP2 DUP2 ADD MLOAD DUP4 SSTORE PUSH1 0x20 SWAP5 DUP6 ADD SWAP5 PUSH1 0x1 SWAP1 SWAP4 ADD SWAP3 SWAP1 SWAP2 ADD SWAP1 PUSH2 0x1613 JUMP JUMPDEST SWAP1 SWAP2 POP PUSH1 0x4 DUP5 ADD PUSH1 0x0 MSTORE PUSH1 0x20 PUSH1 0x0 KECCAK256 PUSH1 0x1F DUP5 ADD PUSH1 0x5 SHR DUP2 ADD PUSH1 0x20 DUP6 LT PUSH2 0x16BE JUMPI JUMPDEST SWAP1 DUP5 SWAP4 SWAP3 SWAP2 JUMPDEST PUSH1 0x1F DUP4 ADD PUSH1 0x5 SHR DUP3 ADD DUP2 LT PUSH2 0x16AF JUMPI POP POP PUSH2 0x8FD JUMP JUMPDEST PUSH1 0x0 DUP2 SSTORE DUP6 SWAP5 POP PUSH1 0x1 ADD PUSH2 0x1699 JUMP JUMPDEST POP DUP1 PUSH2 0x1693 JUMP JUMPDEST ADD MLOAD SWAP1 POP DUP4 DUP1 PUSH2 0x8B5 JUMP JUMPDEST SWAP3 POP PUSH1 0x3 DUP5 ADD PUSH1 0x0 MSTORE PUSH1 0x20 PUSH1 0x0 KECCAK256 SWAP1 PUSH1 0x0 SWAP4 JUMPDEST PUSH1 0x1F NOT DUP5 AND DUP6 LT PUSH2 0x1727 JUMPI PUSH1 0x1 SWAP5 POP DUP4 PUSH1 0x1F NOT DUP2 AND LT PUSH2 0x170E JUMPI JUMPDEST POP POP POP DUP2 SHL ADD PUSH1 0x3 DUP3 ADD SSTORE PUSH2 0x8CD JUMP JUMPDEST ADD MLOAD PUSH1 0x0 NOT PUSH1 0xF8 DUP5 PUSH1 0x3 SHL AND SHR NOT AND SWAP1 SSTORE DUP4 DUP1 DUP1 PUSH2 0x16FE JUMP JUMPDEST DUP2 DUP2 ADD MLOAD DUP4 SSTORE PUSH1 0x20 SWAP5 DUP6 ADD SWAP5 PUSH1 0x1 SWAP1 SWAP4 ADD SWAP3 SWAP1 SWAP2 ADD SWAP1 PUSH2 0x16E3 JUMP JUMPDEST SWAP1 SWAP2 POP PUSH1 0x3 DUP5 ADD PUSH1 0x0 MSTORE PUSH1 0x20 PUSH1 0x0 KECCAK256 PUSH1 0x1F DUP5 ADD PUSH1 0x5 SHR DUP2 ADD PUSH1 0x20 DUP6 LT PUSH2 0x178E JUMPI JUMPDEST SWAP1 DUP5 SWAP4 SWAP3 SWAP2 JUMPDEST PUSH1 0x1F DUP4 ADD PUSH1 0x5 SHR DUP3 ADD DUP2 LT PUSH2 0x177F JUMPI POP POP PUSH2 0x89E JUMP JUMPDEST PUSH1 0x0 DUP2 SSTORE DUP6 SWAP5 POP PUSH1 0x1 ADD PUSH2 0x1769 JUMP JUMPDEST POP DUP1 PUSH2 0x1763 JUMP JUMPDEST ADD MLOAD SWAP1 POP DUP4 DUP1 PUSH2 0x856 JUMP JUMPDEST SWAP3 POP PUSH1 0x2 DUP5 ADD PUSH1 0x0 MSTORE PUSH1 0x20 PUSH1 0x0 KECCAK256 SWAP1 PUSH1 0x0 SWAP4 JUMPDEST PUSH1 0x1F NOT DUP5 AND DUP6 LT PUSH2 0x17F7 JUMPI PUSH1 0x1 SWAP5 POP DUP4 PUSH1 0x1F NOT DUP2 AND LT PUSH2 0x17DE JUMPI JUMPDEST POP POP POP DUP2 SHL ADD PUSH1 0x2 DUP3 ADD SSTORE PUSH2 0x86E JUMP JUMPDEST ADD MLOAD PUSH1 0x0 NOT PUSH1 0xF8 DUP5 PUSH1 0x3 SHL AND SHR NOT AND SWAP1 SSTORE DUP4 DUP1 DUP1 PUSH2 0x17CE JUMP JUMPDEST DUP2 DUP2 ADD MLOAD DUP4 SSTORE PUSH1 0x20 SWAP5 DUP6 ADD SWAP5 PUSH1 0x1 SWAP1 SWAP4 ADD SWAP3 SWAP1 SWAP2 ADD SWAP1 PUSH2 0x17B3 JUMP JUMPDEST SWAP1 SWAP2 POP PUSH1 0x2 DUP5 ADD PUSH1 0x0 MSTORE PUSH1 0x20 PUSH1 0x0 KECCAK256 PUSH1 0x1F DUP5 ADD PUSH1 0x5 SHR DUP2 ADD PUSH1 0x20 DUP6 LT PUSH2 0x185E JUMPI JUMPDEST SWAP1 DUP5 SWAP4 SWAP3 SWAP2 JUMPDEST PUSH1 0x1F DUP4 ADD PUSH1 0x5 SHR DUP3 ADD DUP2 LT PUSH2 0x184F JUMPI POP POP PUSH2 0x83F JUMP JUMPDEST PUSH1 0x0 DUP2 SSTORE DUP6 SWAP5 POP PUSH1 0x1 ADD PUSH2 0x1839 JUMP JUMPDEST POP DUP1 PUSH2 0x1833 JUMP JUMPDEST ADD MLOAD SWAP1 POP DUP4 DUP1 PUSH2 0x7F7 JUMP JUMPDEST SWAP3 POP PUSH1 0x1 DUP5 ADD PUSH1 0x0 MSTORE PUSH1 0x20 PUSH1 0x0 KECCAK256 SWAP1 PUSH1 0x0 SWAP4 JUMPDEST PUSH1 0x1F NOT DUP5 AND DUP6 LT PUSH2 0x18C7 JUMPI PUSH1 0x1 SWAP5 POP DUP4 PUSH1 0x1F NOT DUP2 AND LT PUSH2 0x18AE JUMPI JUMPDEST POP POP POP DUP2 SHL ADD PUSH1 0x1 DUP3 ADD SSTORE PUSH2 0x80F JUMP JUMPDEST ADD MLOAD PUSH1 0x0 NOT PUSH1 0xF8 DUP5 PUSH1 0x3 SHL AND SHR NOT AND SWAP1 SSTORE DUP4 DUP1 DUP1 PUSH2 0x189E JUMP JUMPDEST DUP2 DUP2 ADD MLOAD DUP4 SSTORE PUSH1 0x20 SWAP5 DUP6 ADD SWAP5 PUSH1 0x1 SWAP1 SWAP4 ADD SWAP3 SWAP1 SWAP2 ADD SWAP1 PUSH2 0x1883 JUMP JUMPDEST SWAP1 SWAP2 POP PUSH1 0x1 DUP5 ADD PUSH1 0x0 MSTORE PUSH1 0x20 PUSH1 0x0 KECCAK256 PUSH1 0x1F DUP5 ADD PUSH1 0x5 SHR DUP2 ADD PUSH1 0x20 DUP6 LT PUSH2 0x192E JUMPI JUMPDEST SWAP1 DUP5 SWAP4 SWAP3 SWAP2 JUMPDEST PUSH1 0x1F DUP4 ADD PUSH1 0x5 SHR DUP3 ADD DUP2 LT PUSH2 0x191F JUMPI POP POP PUSH2 0x7E0 JUMP JUMPDEST PUSH1 0x0 DUP2 SSTORE DUP6 SWAP5 POP PUSH1 0x1 ADD PUSH2 0x1909 JUMP JUMPDEST POP DUP1 PUSH2 0x1903 JUMP JUMPDEST ADD MLOAD SWAP1 POP DUP4 DUP1 PUSH2 0x79B JUMP JUMPDEST SWAP3 POP DUP4 PUSH1 0x0 MSTORE PUSH1 0x20 PUSH1 0x0 KECCAK256 SWAP1 PUSH1 0x0 SWAP4 JUMPDEST PUSH1 0x1F NOT DUP5 AND DUP6 LT PUSH2 0x1991 JUMPI PUSH1 0x1 SWAP5 POP DUP4 PUSH1 0x1F NOT DUP2 AND LT PUSH2 0x1978 JUMPI JUMPDEST POP POP POP DUP2 SHL ADD DUP2 SSTORE PUSH2 0x7B0 JUMP JUMPDEST ADD MLOAD PUSH1 0x0 NOT PUSH1 0xF8 DUP5 PUSH1 0x3 SHL AND SHR NOT AND SWAP1 SSTORE DUP4 DUP1 DUP1 PUSH2 0x196B JUMP JUMPDEST DUP2 DUP2 ADD MLOAD DUP4 SSTORE PUSH1 0x20 SWAP5 DUP6 ADD SWAP5 PUSH1 0x1 SWAP1 SWAP4 ADD SWAP3 SWAP1 SWAP2 ADD SWAP1 PUSH2 0x1950 JUMP JUMPDEST SWAP1 SWAP2 POP DUP4 PUSH1 0x0 MSTORE PUSH1 0x20 PUSH1 0x0 KECCAK256 PUSH1 0x1F DUP5 ADD PUSH1 0x5 SHR DUP2 ADD PUSH1 0x20 DUP6 LT PUSH2 0x19F5 JUMPI JUMPDEST SWAP1 DUP5 SWAP4 SWAP3 SWAP2 JUMPDEST PUSH1 0x1F DUP4 ADD PUSH1 0x5 SHR DUP3 ADD DUP2 LT PUSH2 0x19E6 JUMPI POP POP PUSH2 0x784 JUMP JUMPDEST PUSH1 0x0 DUP2 SSTORE DUP6 SWAP5 POP PUSH1 0x1 ADD PUSH2 0x19D0 JUMP JUMPDEST POP DUP1 PUSH2 0x19CA JUMP JUMPDEST PUSH1 0x40 MLOAD PUSH3 0x461BCD PUSH1 0xE5 SHL DUP2 MSTORE PUSH1 0x20 PUSH1 0x4 DUP3 ADD MSTORE PUSH1 0xB PUSH1 0x24 DUP3 ADD MSTORE PUSH11 0x139BDD081CDD195DD85C99 PUSH1 0xAA SHL PUSH1 0x44 DUP3 ADD MSTORE PUSH1 0x64 SWAP1 REVERT JUMPDEST CALLVALUE PUSH2 0x363 JUMPI PUSH1 0x0 CALLDATASIZE PUSH1 0x3 NOT ADD SLT PUSH2 0x363 JUMPI PUSH1 0x0 SLOAD PUSH1 0x40 MLOAD PUSH1 0x1 PUSH1 0x1 PUSH1 0xA0 SHL SUB SWAP1 SWAP2 AND DUP2 MSTORE PUSH1 0x20 SWAP1 RETURN JUMPDEST CALLVALUE PUSH2 0x363 JUMPI PUSH1 0x20 CALLDATASIZE PUSH1 0x3 NOT ADD SLT PUSH2 0x363 JUMPI PUSH1 0x1 PUSH1 0x1 PUSH1 0xA0 SHL SUB PUSH2 0x1A79 PUSH2 0x1CBF JUMP JUMPDEST AND PUSH1 0x0 MSTORE PUSH1 0x1 PUSH1 0x20 MSTORE PUSH1 0x40 PUSH1 0x0 KECCAK256 PUSH2 0x1A90 DUP2 PUSH2 0x1D4C JUMP JUMPDEST PUSH2 0x1A9C PUSH1 0x1 DUP4 ADD PUSH2 0x1D4C JUMP JUMPDEST SWAP2 PUSH2 0x1AA9 PUSH1 0x2 DUP3 ADD PUSH2 0x1D4C JUMP JUMPDEST SWAP1 PUSH2 0x1AB6 PUSH1 0x3 DUP3 ADD PUSH2 0x1D4C JUMP JUMPDEST PUSH2 0x1AC2 PUSH1 0x4 DUP4 ADD PUSH2 0x1D4C JUMP JUMPDEST PUSH2 0x1ACE PUSH1 0x5 DUP5 ADD PUSH2 0x1D4C JUMP JUMPDEST PUSH2 0x1ADA PUSH1 0x6 DUP6 ADD PUSH2 0x1D4C JUMP JUMPDEST PUSH2 0x1AE6 PUSH1 0x7 DUP7 ADD PUSH2 0x1D4C JUMP JUMPDEST PUSH2 0x1AF2 PUSH1 0x8 DUP8 ADD PUSH2 0x1D4C JUMP JUMPDEST SWAP2 PUSH2 0x1AFF PUSH1 0x9 DUP9 ADD PUSH2 0x1D4C JUMP JUMPDEST SWAP4 PUSH2 0x1B0C PUSH1 0xA DUP10 ADD PUSH2 0x1D4C JUMP JUMPDEST SWAP6 PUSH2 0x1B19 PUSH1 0xB DUP11 ADD PUSH2 0x1D4C JUMP JUMPDEST SWAP8 PUSH2 0x1B26 PUSH1 0xC DUP12 ADD PUSH2 0x1D4C JUMP JUMPDEST SWAP10 PUSH1 0xD ADD PUSH2 0x1B33 SWAP1 PUSH2 0x1D4C JUMP JUMPDEST SWAP11 PUSH1 0x40 MLOAD SWAP14 DUP15 DUP1 SWAP15 PUSH2 0x1C0 DUP1 DUP4 MSTORE DUP3 ADD PUSH2 0x1B4C SWAP2 PUSH2 0x1DF2 JUMP JUMPDEST SWAP1 DUP1 DUP3 SUB SWAP1 PUSH1 0x20 ADD MSTORE PUSH2 0x1B5E SWAP2 PUSH2 0x1DF2 JUMP JUMPDEST DUP14 DUP2 SUB PUSH1 0x40 DUP16 ADD MSTORE PUSH2 0x1B6F SWAP2 PUSH2 0x1DF2 JUMP JUMPDEST DUP13 DUP2 SUB PUSH1 0x60 DUP15 ADD MSTORE PUSH2 0x1B80 SWAP2 PUSH2 0x1DF2 JUMP JUMPDEST DUP12 DUP2 SUB PUSH1 0x80 DUP14 ADD MSTORE PUSH2 0x1B91 SWAP2 PUSH2 0x1DF2 JUMP JUMPDEST DUP11 DUP2 SUB PUSH1 0xA0 DUP13 ADD MSTORE PUSH2 0x1BA2 SWAP2 PUSH2 0x1DF2 JUMP JUMPDEST DUP10 DUP2 SUB PUSH1 0xC0 DUP12 ADD MSTORE PUSH2 0x1BB3 SWAP2 PUSH2 0x1DF2 JUMP JUMPDEST DUP9 DUP2 SUB PUSH1 0xE0 DUP11 ADD MSTORE PUSH2 0x1BC4 SWAP2 PUSH2 0x1DF2 JUMP JUMPDEST DUP8 DUP2 SUB PUSH2 0x100 DUP10 ADD MSTORE PUSH2 0x1BD6 SWAP2 PUSH2 0x1DF2 JUMP JUMPDEST DUP7 DUP2 SUB PUSH2 0x120 DUP9 ADD MSTORE PUSH2 0x1BE8 SWAP2 PUSH2 0x1DF2 JUMP JUMPDEST DUP6 DUP2 SUB PUSH2 0x140 DUP8 ADD MSTORE PUSH2 0x1BFA SWAP2 PUSH2 0x1DF2 JUMP JUMPDEST DUP5 DUP2 SUB PUSH2 0x160 DUP7 ADD MSTORE PUSH2 0x1C0C SWAP2 PUSH2 0x1DF2 JUMP JUMPDEST DUP4 DUP2 SUB PUSH2 0x180 DUP6 ADD MSTORE PUSH2 0x1C1E SWAP2 PUSH2 0x1DF2 JUMP JUMPDEST DUP3 DUP2 SUB PUSH2 0x1A0 DUP5 ADD MSTORE PUSH2 0x35F SWAP2 PUSH2 0x1DF2 JUMP JUMPDEST CALLVALUE PUSH2 0x363 JUMPI PUSH1 0x20 CALLDATASIZE PUSH1 0x3 NOT ADD SLT PUSH2 0x363 JUMPI PUSH1 0x4 CALLDATALOAD PUSH1 0x2 SLOAD DUP2 LT ISZERO PUSH2 0x363 JUMPI PUSH2 0x1C59 PUSH1 0x20 SWAP2 PUSH2 0x1C72 JUMP JUMPDEST SWAP1 SLOAD PUSH1 0x40 MLOAD PUSH1 0x3 SWAP3 SWAP1 SWAP3 SHL SHR PUSH1 0x1 PUSH1 0x1 PUSH1 0xA0 SHL SUB AND DUP2 MSTORE RETURN JUMPDEST PUSH1 0x2 SLOAD DUP2 LT ISZERO PUSH2 0x1CA9 JUMPI PUSH1 0x2 PUSH1 0x0 MSTORE PUSH32 0x405787FA12A823E0F2B7631CC41B3BA8828B3321CA811111FA75CD3AA3BB5ACE ADD SWAP1 PUSH1 0x0 SWAP1 JUMP JUMPDEST PUSH4 0x4E487B71 PUSH1 0xE0 SHL PUSH1 0x0 MSTORE PUSH1 0x32 PUSH1 0x4 MSTORE PUSH1 0x24 PUSH1 0x0 REVERT JUMPDEST PUSH1 0x4 CALLDATALOAD SWAP1 PUSH1 0x1 PUSH1 0x1 PUSH1 0xA0 SHL SUB DUP3 AND DUP3 SUB PUSH2 0x363 JUMPI JUMP JUMPDEST SWAP1 PUSH1 0x1 DUP3 DUP2 SHR SWAP3 AND DUP1 ISZERO PUSH2 0x1D05 JUMPI JUMPDEST PUSH1 0x20 DUP4 LT EQ PUSH2 0x1CEF JUMPI JUMP JUMPDEST PUSH4 0x4E487B71 PUSH1 0xE0 SHL PUSH1 0x0 MSTORE PUSH1 0x22 PUSH1 0x4 MSTORE PUSH1 0x24 PUSH1 0x0 REVERT JUMPDEST SWAP2 PUSH1 0x7F AND SWAP2 PUSH2 0x1CE4 JUMP JUMPDEST PUSH2 0x1C0 DUP2 ADD SWAP1 DUP2 LT PUSH1 0x1 PUSH1 0x1 PUSH1 0x40 SHL SUB DUP3 GT OR PUSH2 0xE9F JUMPI PUSH1 0x40 MSTORE JUMP JUMPDEST SWAP1 PUSH1 0x1F DUP1 NOT SWAP2 ADD AND DUP2 ADD SWAP1 DUP2 LT PUSH1 0x1 PUSH1 0x1 PUSH1 0x40 SHL SUB DUP3 GT OR PUSH2 0xE9F JUMPI PUSH1 0x40 MSTORE JUMP JUMPDEST SWAP1 PUSH1 0x40 MLOAD SWAP2 DUP3 PUSH1 0x0 DUP3 SLOAD SWAP3 PUSH2 0x1D60 DUP5 PUSH2 0x1CD5 JUMP JUMPDEST SWAP1 DUP2 DUP5 MSTORE PUSH1 0x1 SWAP5 DUP6 DUP2 AND SWAP1 DUP2 PUSH1 0x0 EQ PUSH2 0x1DCF JUMPI POP PUSH1 0x1 EQ PUSH2 0x1D8C JUMPI JUMPDEST POP POP PUSH2 0x1D8A SWAP3 POP SUB DUP4 PUSH2 0x1D2B JUMP JUMPDEST JUMP JUMPDEST SWAP1 SWAP4 SWAP2 POP PUSH1 0x0 MSTORE PUSH1 0x20 SWAP1 DUP2 PUSH1 0x0 KECCAK256 SWAP4 PUSH1 0x0 SWAP2 JUMPDEST DUP2 DUP4 LT PUSH2 0x1DB7 JUMPI POP POP PUSH2 0x1D8A SWAP4 POP DUP3 ADD ADD CODESIZE DUP1 PUSH2 0x1D7C JUMP JUMPDEST DUP6 SLOAD DUP9 DUP5 ADD DUP6 ADD MSTORE SWAP5 DUP6 ADD SWAP5 DUP8 SWAP5 POP SWAP2 DUP4 ADD SWAP2 PUSH2 0x1D9F JUMP JUMPDEST SWAP2 POP POP PUSH2 0x1D8A SWAP5 POP PUSH1 0x20 SWAP3 POP PUSH1 0xFF NOT AND DUP3 DUP5 ADD MSTORE ISZERO ISZERO PUSH1 0x5 SHL DUP3 ADD ADD CODESIZE DUP1 PUSH2 0x1D7C JUMP JUMPDEST SWAP2 SWAP1 DUP3 MLOAD SWAP3 DUP4 DUP3 MSTORE PUSH1 0x0 JUMPDEST DUP5 DUP2 LT PUSH2 0x1E1E JUMPI POP POP DUP3 PUSH1 0x0 PUSH1 0x20 DUP1 SWAP5 SWAP6 DUP5 ADD ADD MSTORE PUSH1 0x1F DUP1 NOT SWAP2 ADD AND ADD ADD SWAP1 JUMP JUMPDEST PUSH1 0x20 DUP2 DUP4 ADD DUP2 ADD MLOAD DUP5 DUP4 ADD DUP3 ADD MSTORE ADD PUSH2 0x1DFD JUMP JUMPDEST SWAP2 DUP2 PUSH1 0x1F DUP5 ADD SLT ISZERO PUSH2 0x363 JUMPI DUP3 CALLDATALOAD SWAP2 PUSH1 0x1 PUSH1 0x1 PUSH1 0x40 SHL SUB DUP4 GT PUSH2 0x363 JUMPI PUSH1 0x20 DUP4 DUP2 DUP7 ADD SWAP6 ADD ADD GT PUSH2 0x363 JUMPI JUMP JUMPDEST SWAP3 SWAP2 SWAP3 PUSH1 0x1 PUSH1 0x1 PUSH1 0x40 SHL SUB DUP3 GT PUSH2 0xE9F JUMPI PUSH1 0x40 MLOAD SWAP2 PUSH2 0x1E88 PUSH1 0x1F DUP3 ADD PUSH1 0x1F NOT AND PUSH1 0x20 ADD DUP5 PUSH2 0x1D2B JUMP JUMPDEST DUP3 SWAP5 DUP2 DUP5 MSTORE DUP2 DUP4 ADD GT PUSH2 0x363 JUMPI DUP3 DUP2 PUSH1 0x20 SWAP4 DUP5 PUSH1 0x0 SWAP7 ADD CALLDATACOPY ADD ADD MSTORE JUMP JUMPDEST SWAP1 DUP1 PUSH1 0x20 SWAP4 SWAP3 DUP2 DUP5 MSTORE DUP5 DUP5 ADD CALLDATACOPY PUSH1 0x0 DUP3 DUP3 ADD DUP5 ADD MSTORE PUSH1 0x1F ADD PUSH1 0x1F NOT AND ADD ADD SWAP1 JUMP INVALID LOG2 PUSH5 0x6970667358 0x22 SLT KECCAK256 PUSH8 0x9E056D07B244A775 PUSH31 0xD6706F82691129692BF7CA373E22FD859893EFE5749D64736F6C6343000814 STOP CALLER "},"methodIdentifiers":{"companions(address)":"47854b87","getCompanion(address)":"ef652737","keys(uint256)":"0cb6aaf1","steward()":"637eea19","summonCompanion(address,string,string,string,string,string,string,string,string,string,string,string,string,string,string)":"8b62cf32","totalCompanions()":"ec39f18f"}}}}}