{"contracts/codex/SpiralboundCodexXXI.sol":{"SpiralboundCodexXXI":{"abi":[{"inputs":[],"stateMutability":"nonpayable","type":"constructor"},{"anonymous":false,"inputs":[{"indexed":false,"internalType":"string","name":"glyph","type":"string"},{"indexed":false,"internalType":"string","name":"tag","type":"string"},{"indexed":false,"internalType":"string","name":"binding","type":"string"},{"indexed":false,"internalType":"string","name":"annotation","type":"string"},{"indexed":false,"internalType":"string","name":"lineage","type":"string"},{"indexed":false,"internalType":"string","name":"resonance","type":"string"},{"indexed":false,"internalType":"string","name":"protocol","type":"string"},{"indexed":false,"internalType":"string","name":"sanctum","type":"string"},{"indexed":false,"internalType":"string","name":"pulse","type":"string"},{"indexed":false,"internalType":"string","name":"chant","type":"string"},{"indexed":false,"internalType":"string","name":"choreography","type":"string"},{"indexed":false,"internalType":"string","name":"drift","type":"string"},{"indexed":false,"internalType":"string","name":"signature","type":"string"},{"indexed":false,"internalType":"string","name":"signal","type":"string"},{"indexed":false,"internalType":"string","name":"companion","type":"string"},{"indexed":false,"internalType":"string","name":"stewardName","type":"string"},{"indexed":false,"internalType":"string","name":"registry","type":"string"},{"indexed":false,"internalType":"string","name":"echo","type":"string"},{"indexed":false,"internalType":"string","name":"hum","type":"string"},{"indexed":false,"internalType":"string","name":"terrain","type":"string"},{"indexed":false,"internalType":"string","name":"choreographyType","type":"string"},{"indexed":false,"internalType":"string","name":"driftType","type":"string"}],"name":"CodexInscribed","type":"event"},{"inputs":[{"internalType":"string","name":"","type":"string"}],"name":"codices","outputs":[{"internalType":"string","name":"tag","type":"string"},{"internalType":"string","name":"binding","type":"string"},{"internalType":"string","name":"annotation","type":"string"},{"internalType":"string","name":"lineage","type":"string"},{"internalType":"string","name":"resonance","type":"string"},{"internalType":"string","name":"protocol","type":"string"},{"internalType":"string","name":"sanctum","type":"string"},{"internalType":"string","name":"pulse","type":"string"},{"internalType":"string","name":"chant","type":"string"},{"internalType":"string","name":"choreography","type":"string"},{"internalType":"string","name":"drift","type":"string"},{"internalType":"string","name":"signature","type":"string"},{"internalType":"string","name":"signal","type":"string"},{"internalType":"string","name":"companion","type":"string"},{"internalType":"string","name":"stewardName","type":"string"},{"internalType":"string","name":"registry","type":"string"},{"internalType":"string","name":"echo","type":"string"},{"internalType":"string","name":"hum","type":"string"},{"internalType":"string","name":"terrain","type":"string"},{"internalType":"string","name":"choreographyType","type":"string"},{"internalType":"string","name":"driftType","type":"string"}],"stateMutability":"view","type":"function"},{"inputs":[{"internalType":"string","name":"glyph","type":"string"}],"name":"getCodex","outputs":[{"components":[{"internalType":"string","name":"tag","type":"string"},{"internalType":"string","name":"binding","type":"string"},{"internalType":"string","name":"annotation","type":"string"},{"internalType":"string","name":"lineage","type":"string"},{"internalType":"string","name":"resonance","type":"string"},{"internalType":"string","name":"protocol","type":"string"},{"internalType":"string","name":"sanctum","type":"string"},{"internalType":"string","name":"pulse","type":"string"},{"internalType":"string","name":"chant","type":"string"},{"internalType":"string","name":"choreography","type":"string"},{"internalType":"string","name":"drift","type":"string"},{"internalType":"string","name":"signature","type":"string"},{"internalType":"string","name":"signal","type":"string"},{"internalType":"string","name":"companion","type":"string"},{"internalType":"string","name":"stewardName","type":"string"},{"internalType":"string","name":"registry","type":"string"},{"internalType":"string","name":"echo","type":"string"},{"internalType":"string","name":"hum","type":"string"},{"internalType":"string","name":"terrain","type":"string"},{"internalType":"string","name":"choreographyType","type":"string"},{"internalType":"string","name":"driftType","type":"string"}],"internalType":"struct SpiralboundCodexXXI.Codex","name":"","type":"tuple"}],"stateMutability":"view","type":"function"},{"inputs":[{"internalType":"string","name":"glyph","type":"string"},{"internalType":"string","name":"tag","type":"string"},{"internalType":"string","name":"binding","type":"string"},{"internalType":"string","name":"annotation","type":"string"},{"internalType":"string","name":"lineage","type":"string"},{"internalType":"string","name":"resonance","type":"string"},{"internalType":"string","name":"protocol","type":"string"},{"internalType":"string","name":"sanctum","type":"string"},{"internalType":"string","name":"pulse","type":"string"},{"internalType":"string","name":"chant","type":"string"},{"internalType":"string","name":"choreography","type":"string"},{"internalType":"string","name":"drift","type":"string"},{"internalType":"string","name":"signature","type":"string"},{"internalType":"string","name":"signal","type":"string"},{"internalType":"string","name":"companion","type":"string"},{"internalType":"string","name":"stewardName","type":"string"},{"internalType":"string","name":"registry","type":"string"},{"internalType":"string","name":"echo","type":"string"},{"internalType":"string","name":"hum","type":"string"},{"internalType":"string","name":"terrain","type":"string"},{"internalType":"string","name":"choreographyType","type":"string"},{"internalType":"string","name":"driftType","type":"string"}],"name":"inscribeCodex","outputs":[],"stateMutability":"nonpayable","type":"function"},{"inputs":[{"internalType":"uint256","name":"","type":"uint256"}],"name":"keys","outputs":[{"internalType":"string","name":"","type":"string"}],"stateMutability":"view","type":"function"},{"inputs":[],"name":"steward","outputs":[{"internalType":"address","name":"","type":"address"}],"stateMutability":"view","type":"function"},{"inputs":[],"name":"totalCodices","outputs":[{"internalType":"uint256","name":"","type":"uint256"}],"stateMutability":"view","type":"function"}],"evm":{"bytecode":{"linkReferences":{},"object":"6080806040523461002857600080546001600160a01b031916331790556128af908161002e8239f35b600080fdfe610780604052600436101561001357600080fd5b60003560e01c80630cb6aaf11461259457806321e74fb71461095a578063637eea19146109315780638336152214610459578063c212d16b1461043b5763dbc214241461005f57600080fd5b34610436576020366003190112610436576004356001600160401b03811161043657366023820112156104365736816004013591602401916100a0926127be565b60405181818093516020819301916100b792612749565b810160018152036020019020806105a0526100d1906126a3565b6105a0516001016100e1906126a3565b6104c0526105a0516002016100f5906126a3565b6102c0526105a051600301610109906126a3565b610100526105a05160040161011d906126a3565b6105a05160050161012d906126a3565b6105a05160060161013d906126a3565b6105a05160070161014d906126a3565b6105a05160080161015d906126a3565b6105a05160090161016d906126a3565b6105a051600a0161017d906126a3565b916105a051600b0161018e906126a3565b936105a051600c0161019f906126a3565b956105a051600d016101b0906126a3565b976105a051600e016101c1906126a3565b996105a051600f016101d2906126a3565b9b6105a0516010016101e3906126a3565b610540526105a0516011016101f7906126a3565b610380526105a05160120161020b906126a3565b60c0526105a05160130161021e906126a3565b6105c0526105a051601401610232906126a3565b6107205260405180610220526102a080915261022051016102529161276c565b6102205180820390602001526104c0519061026c9161276c565b6102205180820390604001526102c051906102869161276c565b61022051808203906060015261010051906102a09161276c565b6102205180820390608001526102b59161276c565b610220518082039060a001526102ca9161276c565b610220518082039060c001526102df9161276c565b610220518082039060e001526102f49161276c565b6102205180820390610100015261030a9161276c565b610220518082039061012001526103209161276c565b610220518082039061014001526103369161276c565b6102205180820390610160015261034c9161276c565b610220518082039061018001526103629161276c565b61022051808203906101a001526103789161276c565b61022051808203906101c0015261038e9161276c565b61022051808203906101e001526103a49161276c565b6102205180820390610200015261054051906103bf9161276c565b6102205180820390610220015261038051906103da9161276c565b6102205180820390610240015260c051906103f49161276c565b610220518082039061026001526105c0519061040f9161276c565b610220518082039061028001526102205190610720519061042f9161276c565b0361022051f35b600080fd5b34610436576000366003190112610436576020600254604051908152f35b34610436576020366003190112610436576004356001600160401b03811161043657610489903690600401612791565b9060405161049681612666565b60608152602081016060905260408101606090526060810160609052608081016060905260a081016060905260c081016060905260e08101606090526101008101606090526101208101606090526101408101606090526101608101606090526101808101606090526101a08101606090526101c08101606090526101e081016060905261020081016060905261022081016060905261024081016060905261026081016060905261028001606090528160405192839283378101600181520360200190206040519061056882612666565b610571816126a3565b825261057f600182016126a3565b6020830152610590600282016126a3565b60408301526105a1600382016126a3565b60608301526105b2600482016126a3565b60808301526105c3600582016126a3565b60a08301526105d4600682016126a3565b60c08301526105e5600782016126a3565b60e08301526105f6600882016126a3565b610100830152610608600982016126a3565b61012083015261061a600a82016126a3565b61014083015261062c600b82016126a3565b61016083015261063e600c82016126a3565b610180830152610650600d82016126a3565b6101a0830152610662600e82016126a3565b6101c0830152610674600f82016126a3565b6101e0830152610686601082016126a3565b610200830152610698601182016126a3565b6102208301526106aa601282016126a3565b6102408301526106bc601382016126a3565b6102608301526014016106ce906126a3565b6102808201526040518091602082528051602083016102a090526102c083016106f69161276c565b6020820151838203601f19016040850152610711919061276c565b6040820151838203601f1901606085015261072c919061276c565b6060820151838203601f19016080850152610747919061276c565b6080820151838203601f190160a0850152610762919061276c565b60a0820151838203601f190160c085015261077d919061276c565b60c0820151838203601f190160e0850152610798919061276c565b60e0820151838203601f19016101008501526107b4919061276c565b610100820151838203601f19016101208501526107d1919061276c565b610120820151838203601f19016101408501526107ee919061276c565b610140820151838203601f190161016085015261080b919061276c565b610160820151838203601f1901610180850152610828919061276c565b610180820151838203601f19016101a0850152610845919061276c565b6101a0820151838203601f19016101c0850152610862919061276c565b6101c0820151838203601f19016101e085015261087f919061276c565b6101e0820151838203601f190161020085015261089c919061276c565b610200820151838203601f19016102208501526108b9919061276c565b610220820151838203601f19016102408501526108d6919061276c565b610240820151838203601f19016102608501526108f3919061276c565b610260820151838203601f1901610280850152610910919061276c565b90610280015190601f19838203016102a084015261092d9161276c565b0390f35b34610436576000366003190112610436576000546040516001600160a01b039091168152602090f35b34610436576102c0366003190112610436576004356001600160401b0381116104365761098b903690600401612791565b610480526106a0526024356001600160401b038111610436576109b2903690600401612791565b6104a0526103a0526044356001600160401b038111610436576109d9903690600401612791565b61042052610260526064356001600160401b03811161043657610a00903690600401612791565b6104405260a0526001600160401b036084351161043657610a2636608435600401612791565b610620526080526001600160401b0360a4351161043657610a4c3660a435600401612791565b6102a052610680526001600160401b0360c4351161043657610a733660c435600401612791565b61076052610200526001600160401b0360e4351161043657610a9a3660e435600401612791565b61070052610160526001600160401b03610104351161043657610ac33661010435600401612791565b610120526106c0526001600160401b03610124351161043657610aec3661012435600401612791565b6106605260e0526001600160401b03610144351161043657610b143661014435600401612791565b6101a0526106e0526001600160401b03610164351161043657610b3d3661016435600401612791565b6103c0526102e0526001600160401b03610184351161043657610b663661018435600401612791565b61058052610520526001600160401b036101a4351161043657610b8f366101a435600401612791565b61050052610600526001600160401b036101c4351161043657610bb8366101c435600401612791565b610460526104e0526001600160401b036101e4351161043657610be1366101e435600401612791565b61028052610300526001600160401b03610204351161043657610c0a3661020435600401612791565b61034052610320526001600160401b03610224351161043657610c333661022435600401612791565b61056052610360526001600160401b03610244351161043657610c5c3661024435600401612791565b61018052610140526001600160401b03610264351161043657610c853661026435600401612791565b6105e0526103e0526001600160401b03610284351161043657610cae3661028435600401612791565b61040052610740526001600160401b036102a4351161043657610cd7366102a435600401612791565b610640526101c0526000546001600160a01b0316330361256157610d01604051806101e052612666565b610d12366104a0516103a0516127be565b6101e05152610d283661042051610260516127be565b60206101e0510152610d40366104405160a0516127be565b60406101e0510152610d5836610620516080516127be565b60606101e0510152610d71366102a051610680516127be565b60806101e0510152610d8a3661076051610200516127be565b60a06101e0510152610da33661070051610160516127be565b60c06101e0510152610dbc36610120516106c0516127be565b60e06101e0510152610dd4366106605160e0516127be565b6101006101e0510152610dee366101a0516106e0516127be565b6101206101e0510152610e08366103c0516102e0516127be565b6101406101e0510152610e223661058051610520516127be565b6101606101e0510152610e3c3661050051610600516127be565b6101806101e0510152610e5636610460516104e0516127be565b6101a06101e0510152610e703661028051610300516127be565b6101c06101e0510152610e8a3661034051610320516127be565b6101e080510152610ea23661056051610360516127be565b6102006101e0510152610ebc3661018051610140516127be565b6102206101e0510152610ed6366105e0516103e0516127be565b6102406101e0510152610ef03661040051610740516127be565b6102606101e0510152610f0a36610640516101c0516127be565b6102806101e0510152604051610480516106a0518237600161048051820152602081610480518101030190206101e051518051906001600160401b038211611afc578190610f6282610f5c865461262c565b86612804565b602090601f83116001146124f5576000926124ea575b50508160011b916000199060031b1c19161781555b60206101e05101518051906001600160401b038211611afc578190610fc282610fb9600187015461262c565b60018701612804565b602090601f83116001146124785760009261246d575b50508160011b916000199060031b1c19161760018201555b60406101e05101518051906001600160401b038211611afc5781906110258261101c600287015461262c565b60028701612804565b602090601f83116001146123fb576000926123f0575b50508160011b916000199060031b1c19161760028201555b60606101e05101518051906001600160401b038211611afc5781906110888261107f600387015461262c565b60038701612804565b602090601f831160011461237e57600092612373575b50508160011b916000199060031b1c19161760038201555b60806101e05101518051906001600160401b038211611afc5781906110eb826110e2600487015461262c565b60048701612804565b602090601f8311600114612301576000926122f6575b50508160011b916000199060031b1c19161760048201555b60a06101e05101518051906001600160401b038211611afc57819061114e82611145600587015461262c565b60058701612804565b602090601f831160011461228457600092612279575b50508160011b916000199060031b1c19161760058201555b60c06101e05101518051906001600160401b038211611afc5781906111b1826111a8600687015461262c565b60068701612804565b602090601f8311600114612207576000926121fc575b50508160011b916000199060031b1c19161760068201555b60e06101e05101518051906001600160401b038211611afc5781906112148261120b600787015461262c565b60078701612804565b602090601f831160011461218a5760009261217f575b50508160011b916000199060031b1c19161760078201555b6101006101e05101518051906001600160401b038211611afc5781906112788261126f600887015461262c565b60088701612804565b602090601f831160011461210d57600092612102575b50508160011b916000199060031b1c19161760088201555b6101206101e05101518051906001600160401b038211611afc5781906112dc826112d3600987015461262c565b60098701612804565b602090601f831160011461209057600092612085575b50508160011b916000199060031b1c19161760098201555b6101406101e05101518051906001600160401b038211611afc57819061134082611337600a87015461262c565b600a8701612804565b602090601f831160011461201357600092612008575b50508160011b916000199060031b1c191617600a8201555b6101606101e05101518051906001600160401b038211611afc5781906113a48261139b600b87015461262c565b600b8701612804565b602090601f8311600114611f9657600092611f8b575b50508160011b916000199060031b1c191617600b8201555b6101806101e05101518051906001600160401b038211611afc578190611408826113ff600c87015461262c565b600c8701612804565b602090601f8311600114611f1957600092611f0e575b50508160011b916000199060031b1c191617600c8201555b6101a06101e05101518051906001600160401b038211611afc57819061146c82611463600d87015461262c565b600d8701612804565b602090601f8311600114611e9c57600092611e91575b50508160011b916000199060031b1c191617600d8201555b6101c06101e05101518051906001600160401b038211611afc5781906114d0826114c7600e87015461262c565b600e8701612804565b602090601f8311600114611e1f57600092611e14575b50508160011b916000199060031b1c191617600e8201555b6101e0805101518051906001600160401b038211611afc57819061153282611529600f87015461262c565b600f8701612804565b602090601f8311600114611da257600092611d97575b50508160011b916000199060031b1c191617600f8201555b6102006101e05101518051906001600160401b038211611afc5781906115968261158d601087015461262c565b60108701612804565b602090601f8311600114611d2557600092611d1a575b50508160011b916000199060031b1c19161760108201555b6102206101e05101518051906001600160401b038211611afc5781906115fa826115f1601187015461262c565b60118701612804565b602090601f8311600114611ca857600092611c9d575b50508160011b916000199060031b1c19161760118201555b6102406101e05101518051906001600160401b038211611afc57819061165e82611655601287015461262c565b60128701612804565b602090601f8311600114611c2b57600092611c20575b50508160011b916000199060031b1c19161760128201555b6102606101e05101518051906001600160401b038211611afc5781906116c2826116b9601387015461262c565b60138701612804565b602090601f8311600114611bae57600092611ba3575b50508160011b916000199060031b1c19161760138201555b6102806101e05101518051906001600160401b038211611afc576117248261171b601486015461262c565b60148601612804565b602090601f8311600114611b33576014929160009183611b28575b50508160011b916000199060031b1c1916179101555b60025468010000000000000000811015611afc5780600161177992016002556125df565b611b1257610480516001600160401b038111611afc576117a39061179d835461262c565b83612804565b60009061048051601f8111600114611a8f5750906000610480519182611a81575b508160011b916000199060031b1c19161790555b6102c06040518061024052527fd0593730731dd92f24ca0299c49906c08be16fb91c1055db5af478e3dd46b597611a57611a3d611a23611a096119ef6119d56119bb6119a161198761196d6119536119396119206119066118ed6118d46118bb6118a361188b6118726118596102c06102405101610480516106a051612858565b6102405160208183039101526104a0516103a051612858565b6102405160408183039101526104205161026051612858565b6102405160608183039101526104405160a051612858565b61024051608081830391015261062051608051612858565b6102405160a08183039101526102a05161068051612858565b6102405160c08183039101526107605161020051612858565b6102405160e08183039101526107005161016051612858565b61024051610100818303910152610120516106c051612858565b610240516101208183039101526106605160e051612858565b610240516101408183039101526101a0516106e051612858565b610240516101608183039101526103c0516102e051612858565b610240516101808183039101526105805161052051612858565b610240516101a08183039101526105005161060051612858565b610240516101c0818303910152610460516104e051612858565b610240516101e08183039101526102805161030051612858565b610240516102008183039101526103405161032051612858565b610240516102208183039101526105605161036051612858565b610240516102408183039101526101805161014051612858565b610240516102608183039101526105e0516103e051612858565b610240516102808183039101526104005161074051612858565b610240516102a0818303910152611a796102405191610640516101c051612858565b0361024051a1005b90506106a0510135836117c4565b8160005260206000206000936106a051905b601f1984168610611ae457600194955083601f19811610611aca575b505050811b0190556117d8565b0135600019600384901b60f8161c19169055838080611abd565b91602060018192858501358155019301950194611aa1565b634e487b7160e01b600052604160045260246000fd5b634e487b7160e01b600052600060045260246000fd5b01519050848061173f565b906014840160005260206000209160005b601f1985168110611b8b5750918391600193601495601f19811610611b72575b505050811b01910155611755565b015160001960f88460031b161c19169055848080611b64565b91926020600181928685015181550194019201611b44565b0151905083806116d8565b9250601384016000526020600020906000935b601f1984168510611c05576001945083601f19811610611bec575b505050811b0160138201556116f0565b015160001960f88460031b161c19169055838080611bdc565b81810151835560209485019460019093019290910190611bc1565b015190508380611674565b9250601284016000526020600020906000935b601f1984168510611c82576001945083601f19811610611c69575b505050811b01601282015561168c565b015160001960f88460031b161c19169055838080611c59565b81810151835560209485019460019093019290910190611c3e565b015190508380611610565b9250601184016000526020600020906000935b601f1984168510611cff576001945083601f19811610611ce6575b505050811b016011820155611628565b015160001960f88460031b161c19169055838080611cd6565b81810151835560209485019460019093019290910190611cbb565b0151905083806115ac565b9250601084016000526020600020906000935b601f1984168510611d7c576001945083601f19811610611d63575b505050811b0160108201556115c4565b015160001960f88460031b161c19169055838080611d53565b81810151835560209485019460019093019290910190611d38565b015190508380611548565b9250600f84016000526020600020906000935b601f1984168510611df9576001945083601f19811610611de0575b505050811b01600f820155611560565b015160001960f88460031b161c19169055838080611dd0565b81810151835560209485019460019093019290910190611db5565b0151905083806114e6565b9250600e84016000526020600020906000935b601f1984168510611e76576001945083601f19811610611e5d575b505050811b01600e8201556114fe565b015160001960f88460031b161c19169055838080611e4d565b81810151835560209485019460019093019290910190611e32565b015190508380611482565b9250600d84016000526020600020906000935b601f1984168510611ef3576001945083601f19811610611eda575b505050811b01600d82015561149a565b015160001960f88460031b161c19169055838080611eca565b81810151835560209485019460019093019290910190611eaf565b01519050838061141e565b9250600c84016000526020600020906000935b601f1984168510611f70576001945083601f19811610611f57575b505050811b01600c820155611436565b015160001960f88460031b161c19169055838080611f47565b81810151835560209485019460019093019290910190611f2c565b0151905083806113ba565b9250600b84016000526020600020906000935b601f1984168510611fed576001945083601f19811610611fd4575b505050811b01600b8201556113d2565b015160001960f88460031b161c19169055838080611fc4565b81810151835560209485019460019093019290910190611fa9565b015190508380611356565b9250600a84016000526020600020906000935b601f198416851061206a576001945083601f19811610612051575b505050811b01600a82015561136e565b015160001960f88460031b161c19169055838080612041565b81810151835560209485019460019093019290910190612026565b0151905083806112f2565b9250600984016000526020600020906000935b601f19841685106120e7576001945083601f198116106120ce575b505050811b01600982015561130a565b015160001960f88460031b161c191690558380806120be565b818101518355602094850194600190930192909101906120a3565b01519050838061128e565b9250600884016000526020600020906000935b601f1984168510612164576001945083601f1981161061214b575b505050811b0160088201556112a6565b015160001960f88460031b161c1916905583808061213b565b81810151835560209485019460019093019290910190612120565b01519050838061122a565b9250600784016000526020600020906000935b601f19841685106121e1576001945083601f198116106121c8575b505050811b016007820155611242565b015160001960f88460031b161c191690558380806121b8565b8181015183556020948501946001909301929091019061219d565b0151905083806111c7565b9250600684016000526020600020906000935b601f198416851061225e576001945083601f19811610612245575b505050811b0160068201556111df565b015160001960f88460031b161c19169055838080612235565b8181015183556020948501946001909301929091019061221a565b015190508380611164565b9250600584016000526020600020906000935b601f19841685106122db576001945083601f198116106122c2575b505050811b01600582015561117c565b015160001960f88460031b161c191690558380806122b2565b81810151835560209485019460019093019290910190612297565b015190508380611101565b9250600484016000526020600020906000935b601f1984168510612358576001945083601f1981161061233f575b505050811b016004820155611119565b015160001960f88460031b161c1916905583808061232f565b81810151835560209485019460019093019290910190612314565b01519050838061109e565b9250600384016000526020600020906000935b601f19841685106123d5576001945083601f198116106123bc575b505050811b0160038201556110b6565b015160001960f88460031b161c191690558380806123ac565b81810151835560209485019460019093019290910190612391565b01519050838061103b565b9250600284016000526020600020906000935b601f1984168510612452576001945083601f19811610612439575b505050811b016002820155611053565b015160001960f88460031b161c19169055838080612429565b8181015183556020948501946001909301929091019061240e565b015190508380610fd8565b9250600184016000526020600020906000935b601f19841685106124cf576001945083601f198116106124b6575b505050811b016001820155610ff0565b015160001960f88460031b161c191690558380806124a6565b8181015183556020948501946001909301929091019061248b565b015190508380610f78565b9250836000526020600020906000935b601f1984168510612546576001945083601f1981161061252d575b505050811b018155610f8d565b015160001960f88460031b161c19169055838080612520565b81810151835560209485019460019093019290910190612505565b60405162461bcd60e51b815260206004820152600b60248201526a139bdd081cdd195dd85c9960aa1b6044820152606490fd5b3461043657602036600319011261043657600435600254811015610436576125bb906125df565b611b12576125cb61092d916126a3565b60405191829160208352602083019061276c565b6002548110156126165760026000527f405787fa12a823e0f2b7631cc41b3ba8828b3321ca811111fa75cd3aa3bb5ace0190600090565b634e487b7160e01b600052603260045260246000fd5b90600182811c9216801561265c575b602083101461264657565b634e487b7160e01b600052602260045260246000fd5b91607f169161263b565b6102a081019081106001600160401b03821117611afc57604052565b90601f801991011681019081106001600160401b03821117611afc57604052565b90604051918260008254926126b78461262c565b90818452600194858116908160001461272657506001146126e3575b50506126e192500383612682565b565b9093915060005260209081600020936000915b81831061270e5750506126e1935082010138806126d3565b855488840185015294850194879450918301916126f6565b9150506126e194506020925060ff191682840152151560051b82010138806126d3565b60005b83811061275c5750506000910152565b818101518382015260200161274c565b9060209161278581518092818552858086019101612749565b601f01601f1916010190565b9181601f84011215610436578235916001600160401b038311610436576020838186019501011161043657565b9291926001600160401b038211611afc57604051916127e7601f8201601f191660200184612682565b829481845281830111610436578281602093846000960137010152565b90601f811161281257505050565b600091825260208220906020601f850160051c8301941061284e575b601f0160051c01915b82811061284357505050565b818155600101612837565b909250829061282e565b908060209392818452848401376000828201840152601f01601f191601019056fea264697066735822122062937a8f3a16bf4ef484ea385b25c4d11a5b7b65ccdeba558856fc951fb604fb64736f6c63430008140033","opcodes":"PUSH1 0x80 DUP1 PUSH1 0x40 MSTORE CALLVALUE PUSH2 0x28 JUMPI PUSH1 0x0 DUP1 SLOAD PUSH1 0x1 PUSH1 0x1 PUSH1 0xA0 SHL SUB NOT AND CALLER OR SWAP1 SSTORE PUSH2 0x28AF SWAP1 DUP2 PUSH2 0x2E DUP3 CODECOPY RETURN JUMPDEST PUSH1 0x0 DUP1 REVERT INVALID PUSH2 0x780 PUSH1 0x40 MSTORE PUSH1 0x4 CALLDATASIZE LT ISZERO PUSH2 0x13 JUMPI PUSH1 0x0 DUP1 REVERT JUMPDEST PUSH1 0x0 CALLDATALOAD PUSH1 0xE0 SHR DUP1 PUSH4 0xCB6AAF1 EQ PUSH2 0x2594 JUMPI DUP1 PUSH4 0x21E74FB7 EQ PUSH2 0x95A JUMPI DUP1 PUSH4 0x637EEA19 EQ PUSH2 0x931 JUMPI DUP1 PUSH4 0x83361522 EQ PUSH2 0x459 JUMPI DUP1 PUSH4 0xC212D16B EQ PUSH2 0x43B JUMPI PUSH4 0xDBC21424 EQ PUSH2 0x5F JUMPI PUSH1 0x0 DUP1 REVERT JUMPDEST CALLVALUE PUSH2 0x436 JUMPI PUSH1 0x20 CALLDATASIZE PUSH1 0x3 NOT ADD SLT PUSH2 0x436 JUMPI PUSH1 0x4 CALLDATALOAD PUSH1 0x1 PUSH1 0x1 PUSH1 0x40 SHL SUB DUP2 GT PUSH2 0x436 JUMPI CALLDATASIZE PUSH1 0x23 DUP3 ADD SLT ISZERO PUSH2 0x436 JUMPI CALLDATASIZE DUP2 PUSH1 0x4 ADD CALLDATALOAD SWAP2 PUSH1 0x24 ADD SWAP2 PUSH2 0xA0 SWAP3 PUSH2 0x27BE JUMP JUMPDEST PUSH1 0x40 MLOAD DUP2 DUP2 DUP1 SWAP4 MLOAD PUSH1 0x20 DUP2 SWAP4 ADD SWAP2 PUSH2 0xB7 SWAP3 PUSH2 0x2749 JUMP JUMPDEST DUP2 ADD PUSH1 0x1 DUP2 MSTORE SUB PUSH1 0x20 ADD SWAP1 KECCAK256 DUP1 PUSH2 0x5A0 MSTORE PUSH2 0xD1 SWAP1 PUSH2 0x26A3 JUMP JUMPDEST PUSH2 0x5A0 MLOAD PUSH1 0x1 ADD PUSH2 0xE1 SWAP1 PUSH2 0x26A3 JUMP JUMPDEST PUSH2 0x4C0 MSTORE PUSH2 0x5A0 MLOAD PUSH1 0x2 ADD PUSH2 0xF5 SWAP1 PUSH2 0x26A3 JUMP JUMPDEST PUSH2 0x2C0 MSTORE PUSH2 0x5A0 MLOAD PUSH1 0x3 ADD PUSH2 0x109 SWAP1 PUSH2 0x26A3 JUMP JUMPDEST PUSH2 0x100 MSTORE PUSH2 0x5A0 MLOAD PUSH1 0x4 ADD PUSH2 0x11D SWAP1 PUSH2 0x26A3 JUMP JUMPDEST PUSH2 0x5A0 MLOAD PUSH1 0x5 ADD PUSH2 0x12D SWAP1 PUSH2 0x26A3 JUMP JUMPDEST PUSH2 0x5A0 MLOAD PUSH1 0x6 ADD PUSH2 0x13D SWAP1 PUSH2 0x26A3 JUMP JUMPDEST PUSH2 0x5A0 MLOAD PUSH1 0x7 ADD PUSH2 0x14D SWAP1 PUSH2 0x26A3 JUMP JUMPDEST PUSH2 0x5A0 MLOAD PUSH1 0x8 ADD PUSH2 0x15D SWAP1 PUSH2 0x26A3 JUMP JUMPDEST PUSH2 0x5A0 MLOAD PUSH1 0x9 ADD PUSH2 0x16D SWAP1 PUSH2 0x26A3 JUMP JUMPDEST PUSH2 0x5A0 MLOAD PUSH1 0xA ADD PUSH2 0x17D SWAP1 PUSH2 0x26A3 JUMP JUMPDEST SWAP2 PUSH2 0x5A0 MLOAD PUSH1 0xB ADD PUSH2 0x18E SWAP1 PUSH2 0x26A3 JUMP JUMPDEST SWAP4 PUSH2 0x5A0 MLOAD PUSH1 0xC ADD PUSH2 0x19F SWAP1 PUSH2 0x26A3 JUMP JUMPDEST SWAP6 PUSH2 0x5A0 MLOAD PUSH1 0xD ADD PUSH2 0x1B0 SWAP1 PUSH2 0x26A3 JUMP JUMPDEST SWAP8 PUSH2 0x5A0 MLOAD PUSH1 0xE ADD PUSH2 0x1C1 SWAP1 PUSH2 0x26A3 JUMP JUMPDEST SWAP10 PUSH2 0x5A0 MLOAD PUSH1 0xF ADD PUSH2 0x1D2 SWAP1 PUSH2 0x26A3 JUMP JUMPDEST SWAP12 PUSH2 0x5A0 MLOAD PUSH1 0x10 ADD PUSH2 0x1E3 SWAP1 PUSH2 0x26A3 JUMP JUMPDEST PUSH2 0x540 MSTORE PUSH2 0x5A0 MLOAD PUSH1 0x11 ADD PUSH2 0x1F7 SWAP1 PUSH2 0x26A3 JUMP JUMPDEST PUSH2 0x380 MSTORE PUSH2 0x5A0 MLOAD PUSH1 0x12 ADD PUSH2 0x20B SWAP1 PUSH2 0x26A3 JUMP JUMPDEST PUSH1 0xC0 MSTORE PUSH2 0x5A0 MLOAD PUSH1 0x13 ADD PUSH2 0x21E SWAP1 PUSH2 0x26A3 JUMP JUMPDEST PUSH2 0x5C0 MSTORE PUSH2 0x5A0 MLOAD PUSH1 0x14 ADD PUSH2 0x232 SWAP1 PUSH2 0x26A3 JUMP JUMPDEST PUSH2 0x720 MSTORE PUSH1 0x40 MLOAD DUP1 PUSH2 0x220 MSTORE PUSH2 0x2A0 DUP1 SWAP2 MSTORE PUSH2 0x220 MLOAD ADD PUSH2 0x252 SWAP2 PUSH2 0x276C JUMP JUMPDEST PUSH2 0x220 MLOAD DUP1 DUP3 SUB SWAP1 PUSH1 0x20 ADD MSTORE PUSH2 0x4C0 MLOAD SWAP1 PUSH2 0x26C SWAP2 PUSH2 0x276C JUMP JUMPDEST PUSH2 0x220 MLOAD DUP1 DUP3 SUB SWAP1 PUSH1 0x40 ADD MSTORE PUSH2 0x2C0 MLOAD SWAP1 PUSH2 0x286 SWAP2 PUSH2 0x276C JUMP JUMPDEST PUSH2 0x220 MLOAD DUP1 DUP3 SUB SWAP1 PUSH1 0x60 ADD MSTORE PUSH2 0x100 MLOAD SWAP1 PUSH2 0x2A0 SWAP2 PUSH2 0x276C JUMP JUMPDEST PUSH2 0x220 MLOAD DUP1 DUP3 SUB SWAP1 PUSH1 0x80 ADD MSTORE PUSH2 0x2B5 SWAP2 PUSH2 0x276C JUMP JUMPDEST PUSH2 0x220 MLOAD DUP1 DUP3 SUB SWAP1 PUSH1 0xA0 ADD MSTORE PUSH2 0x2CA SWAP2 PUSH2 0x276C JUMP JUMPDEST PUSH2 0x220 MLOAD DUP1 DUP3 SUB SWAP1 PUSH1 0xC0 ADD MSTORE PUSH2 0x2DF SWAP2 PUSH2 0x276C JUMP JUMPDEST PUSH2 0x220 MLOAD DUP1 DUP3 SUB SWAP1 PUSH1 0xE0 ADD MSTORE PUSH2 0x2F4 SWAP2 PUSH2 0x276C JUMP JUMPDEST PUSH2 0x220 MLOAD DUP1 DUP3 SUB SWAP1 PUSH2 0x100 ADD MSTORE PUSH2 0x30A SWAP2 PUSH2 0x276C JUMP JUMPDEST PUSH2 0x220 MLOAD DUP1 DUP3 SUB SWAP1 PUSH2 0x120 ADD MSTORE PUSH2 0x320 SWAP2 PUSH2 0x276C JUMP JUMPDEST PUSH2 0x220 MLOAD DUP1 DUP3 SUB SWAP1 PUSH2 0x140 ADD MSTORE PUSH2 0x336 SWAP2 PUSH2 0x276C JUMP JUMPDEST PUSH2 0x220 MLOAD DUP1 DUP3 SUB SWAP1 PUSH2 0x160 ADD MSTORE PUSH2 0x34C SWAP2 PUSH2 0x276C JUMP JUMPDEST PUSH2 0x220 MLOAD DUP1 DUP3 SUB SWAP1 PUSH2 0x180 ADD MSTORE PUSH2 0x362 SWAP2 PUSH2 0x276C JUMP JUMPDEST PUSH2 0x220 MLOAD DUP1 DUP3 SUB SWAP1 PUSH2 0x1A0 ADD MSTORE PUSH2 0x378 SWAP2 PUSH2 0x276C JUMP JUMPDEST PUSH2 0x220 MLOAD DUP1 DUP3 SUB SWAP1 PUSH2 0x1C0 ADD MSTORE PUSH2 0x38E SWAP2 PUSH2 0x276C JUMP JUMPDEST PUSH2 0x220 MLOAD DUP1 DUP3 SUB SWAP1 PUSH2 0x1E0 ADD MSTORE PUSH2 0x3A4 SWAP2 PUSH2 0x276C JUMP JUMPDEST PUSH2 0x220 MLOAD DUP1 DUP3 SUB SWAP1 PUSH2 0x200 ADD MSTORE PUSH2 0x540 MLOAD SWAP1 PUSH2 0x3BF SWAP2 PUSH2 0x276C JUMP JUMPDEST PUSH2 0x220 MLOAD DUP1 DUP3 SUB SWAP1 PUSH2 0x220 ADD MSTORE PUSH2 0x380 MLOAD SWAP1 PUSH2 0x3DA SWAP2 PUSH2 0x276C JUMP JUMPDEST PUSH2 0x220 MLOAD DUP1 DUP3 SUB SWAP1 PUSH2 0x240 ADD MSTORE PUSH1 0xC0 MLOAD SWAP1 PUSH2 0x3F4 SWAP2 PUSH2 0x276C JUMP JUMPDEST PUSH2 0x220 MLOAD DUP1 DUP3 SUB SWAP1 PUSH2 0x260 ADD MSTORE PUSH2 0x5C0 MLOAD SWAP1 PUSH2 0x40F SWAP2 PUSH2 0x276C JUMP JUMPDEST PUSH2 0x220 MLOAD DUP1 DUP3 SUB SWAP1 PUSH2 0x280 ADD MSTORE PUSH2 0x220 MLOAD SWAP1 PUSH2 0x720 MLOAD SWAP1 PUSH2 0x42F SWAP2 PUSH2 0x276C JUMP JUMPDEST SUB PUSH2 0x220 MLOAD RETURN JUMPDEST PUSH1 0x0 DUP1 REVERT JUMPDEST CALLVALUE PUSH2 0x436 JUMPI PUSH1 0x0 CALLDATASIZE PUSH1 0x3 NOT ADD SLT PUSH2 0x436 JUMPI PUSH1 0x20 PUSH1 0x2 SLOAD PUSH1 0x40 MLOAD SWAP1 DUP2 MSTORE RETURN JUMPDEST CALLVALUE PUSH2 0x436 JUMPI PUSH1 0x20 CALLDATASIZE PUSH1 0x3 NOT ADD SLT PUSH2 0x436 JUMPI PUSH1 0x4 CALLDATALOAD PUSH1 0x1 PUSH1 0x1 PUSH1 0x40 SHL SUB DUP2 GT PUSH2 0x436 JUMPI PUSH2 0x489 SWAP1 CALLDATASIZE SWAP1 PUSH1 0x4 ADD PUSH2 0x2791 JUMP JUMPDEST SWAP1 PUSH1 0x40 MLOAD PUSH2 0x496 DUP2 PUSH2 0x2666 JUMP JUMPDEST PUSH1 0x60 DUP2 MSTORE PUSH1 0x20 DUP2 ADD PUSH1 0x60 SWAP1 MSTORE PUSH1 0x40 DUP2 ADD PUSH1 0x60 SWAP1 MSTORE PUSH1 0x60 DUP2 ADD PUSH1 0x60 SWAP1 MSTORE PUSH1 0x80 DUP2 ADD PUSH1 0x60 SWAP1 MSTORE PUSH1 0xA0 DUP2 ADD PUSH1 0x60 SWAP1 MSTORE PUSH1 0xC0 DUP2 ADD PUSH1 0x60 SWAP1 MSTORE PUSH1 0xE0 DUP2 ADD PUSH1 0x60 SWAP1 MSTORE PUSH2 0x100 DUP2 ADD PUSH1 0x60 SWAP1 MSTORE PUSH2 0x120 DUP2 ADD PUSH1 0x60 SWAP1 MSTORE PUSH2 0x140 DUP2 ADD PUSH1 0x60 SWAP1 MSTORE PUSH2 0x160 DUP2 ADD PUSH1 0x60 SWAP1 MSTORE PUSH2 0x180 DUP2 ADD PUSH1 0x60 SWAP1 MSTORE PUSH2 0x1A0 DUP2 ADD PUSH1 0x60 SWAP1 MSTORE PUSH2 0x1C0 DUP2 ADD PUSH1 0x60 SWAP1 MSTORE PUSH2 0x1E0 DUP2 ADD PUSH1 0x60 SWAP1 MSTORE PUSH2 0x200 DUP2 ADD PUSH1 0x60 SWAP1 MSTORE PUSH2 0x220 DUP2 ADD PUSH1 0x60 SWAP1 MSTORE PUSH2 0x240 DUP2 ADD PUSH1 0x60 SWAP1 MSTORE PUSH2 0x260 DUP2 ADD PUSH1 0x60 SWAP1 MSTORE PUSH2 0x280 ADD PUSH1 0x60 SWAP1 MSTORE DUP2 PUSH1 0x40 MLOAD SWAP3 DUP4 SWAP3 DUP4 CALLDATACOPY DUP2 ADD PUSH1 0x1 DUP2 MSTORE SUB PUSH1 0x20 ADD SWAP1 KECCAK256 PUSH1 0x40 MLOAD SWAP1 PUSH2 0x568 DUP3 PUSH2 0x2666 JUMP JUMPDEST PUSH2 0x571 DUP2 PUSH2 0x26A3 JUMP JUMPDEST DUP3 MSTORE PUSH2 0x57F PUSH1 0x1 DUP3 ADD PUSH2 0x26A3 JUMP JUMPDEST PUSH1 0x20 DUP4 ADD MSTORE PUSH2 0x590 PUSH1 0x2 DUP3 ADD PUSH2 0x26A3 JUMP JUMPDEST PUSH1 0x40 DUP4 ADD MSTORE PUSH2 0x5A1 PUSH1 0x3 DUP3 ADD PUSH2 0x26A3 JUMP JUMPDEST PUSH1 0x60 DUP4 ADD MSTORE PUSH2 0x5B2 PUSH1 0x4 DUP3 ADD PUSH2 0x26A3 JUMP JUMPDEST PUSH1 0x80 DUP4 ADD MSTORE PUSH2 0x5C3 PUSH1 0x5 DUP3 ADD PUSH2 0x26A3 JUMP JUMPDEST PUSH1 0xA0 DUP4 ADD MSTORE PUSH2 0x5D4 PUSH1 0x6 DUP3 ADD PUSH2 0x26A3 JUMP JUMPDEST PUSH1 0xC0 DUP4 ADD MSTORE PUSH2 0x5E5 PUSH1 0x7 DUP3 ADD PUSH2 0x26A3 JUMP JUMPDEST PUSH1 0xE0 DUP4 ADD MSTORE PUSH2 0x5F6 PUSH1 0x8 DUP3 ADD PUSH2 0x26A3 JUMP JUMPDEST PUSH2 0x100 DUP4 ADD MSTORE PUSH2 0x608 PUSH1 0x9 DUP3 ADD PUSH2 0x26A3 JUMP JUMPDEST PUSH2 0x120 DUP4 ADD MSTORE PUSH2 0x61A PUSH1 0xA DUP3 ADD PUSH2 0x26A3 JUMP JUMPDEST PUSH2 0x140 DUP4 ADD MSTORE PUSH2 0x62C PUSH1 0xB DUP3 ADD PUSH2 0x26A3 JUMP JUMPDEST PUSH2 0x160 DUP4 ADD MSTORE PUSH2 0x63E PUSH1 0xC DUP3 ADD PUSH2 0x26A3 JUMP JUMPDEST PUSH2 0x180 DUP4 ADD MSTORE PUSH2 0x650 PUSH1 0xD DUP3 ADD PUSH2 0x26A3 JUMP JUMPDEST PUSH2 0x1A0 DUP4 ADD MSTORE PUSH2 0x662 PUSH1 0xE DUP3 ADD PUSH2 0x26A3 JUMP JUMPDEST PUSH2 0x1C0 DUP4 ADD MSTORE PUSH2 0x674 PUSH1 0xF DUP3 ADD PUSH2 0x26A3 JUMP JUMPDEST PUSH2 0x1E0 DUP4 ADD MSTORE PUSH2 0x686 PUSH1 0x10 DUP3 ADD PUSH2 0x26A3 JUMP JUMPDEST PUSH2 0x200 DUP4 ADD MSTORE PUSH2 0x698 PUSH1 0x11 DUP3 ADD PUSH2 0x26A3 JUMP JUMPDEST PUSH2 0x220 DUP4 ADD MSTORE PUSH2 0x6AA PUSH1 0x12 DUP3 ADD PUSH2 0x26A3 JUMP JUMPDEST PUSH2 0x240 DUP4 ADD MSTORE PUSH2 0x6BC PUSH1 0x13 DUP3 ADD PUSH2 0x26A3 JUMP JUMPDEST PUSH2 0x260 DUP4 ADD MSTORE PUSH1 0x14 ADD PUSH2 0x6CE SWAP1 PUSH2 0x26A3 JUMP JUMPDEST PUSH2 0x280 DUP3 ADD MSTORE PUSH1 0x40 MLOAD DUP1 SWAP2 PUSH1 0x20 DUP3 MSTORE DUP1 MLOAD PUSH1 0x20 DUP4 ADD PUSH2 0x2A0 SWAP1 MSTORE PUSH2 0x2C0 DUP4 ADD PUSH2 0x6F6 SWAP2 PUSH2 0x276C JUMP JUMPDEST PUSH1 0x20 DUP3 ADD MLOAD DUP4 DUP3 SUB PUSH1 0x1F NOT ADD PUSH1 0x40 DUP6 ADD MSTORE PUSH2 0x711 SWAP2 SWAP1 PUSH2 0x276C JUMP JUMPDEST PUSH1 0x40 DUP3 ADD MLOAD DUP4 DUP3 SUB PUSH1 0x1F NOT ADD PUSH1 0x60 DUP6 ADD MSTORE PUSH2 0x72C SWAP2 SWAP1 PUSH2 0x276C JUMP JUMPDEST PUSH1 0x60 DUP3 ADD MLOAD DUP4 DUP3 SUB PUSH1 0x1F NOT ADD PUSH1 0x80 DUP6 ADD MSTORE PUSH2 0x747 SWAP2 SWAP1 PUSH2 0x276C JUMP JUMPDEST PUSH1 0x80 DUP3 ADD MLOAD DUP4 DUP3 SUB PUSH1 0x1F NOT ADD PUSH1 0xA0 DUP6 ADD MSTORE PUSH2 0x762 SWAP2 SWAP1 PUSH2 0x276C JUMP JUMPDEST PUSH1 0xA0 DUP3 ADD MLOAD DUP4 DUP3 SUB PUSH1 0x1F NOT ADD PUSH1 0xC0 DUP6 ADD MSTORE PUSH2 0x77D SWAP2 SWAP1 PUSH2 0x276C JUMP JUMPDEST PUSH1 0xC0 DUP3 ADD MLOAD DUP4 DUP3 SUB PUSH1 0x1F NOT ADD PUSH1 0xE0 DUP6 ADD MSTORE PUSH2 0x798 SWAP2 SWAP1 PUSH2 0x276C JUMP JUMPDEST PUSH1 0xE0 DUP3 ADD MLOAD DUP4 DUP3 SUB PUSH1 0x1F NOT ADD PUSH2 0x100 DUP6 ADD MSTORE PUSH2 0x7B4 SWAP2 SWAP1 PUSH2 0x276C JUMP JUMPDEST PUSH2 0x100 DUP3 ADD MLOAD DUP4 DUP3 SUB PUSH1 0x1F NOT ADD PUSH2 0x120 DUP6 ADD MSTORE PUSH2 0x7D1 SWAP2 SWAP1 PUSH2 0x276C JUMP JUMPDEST PUSH2 0x120 DUP3 ADD MLOAD DUP4 DUP3 SUB PUSH1 0x1F NOT ADD PUSH2 0x140 DUP6 ADD MSTORE PUSH2 0x7EE SWAP2 SWAP1 PUSH2 0x276C JUMP JUMPDEST PUSH2 0x140 DUP3 ADD MLOAD DUP4 DUP3 SUB PUSH1 0x1F NOT ADD PUSH2 0x160 DUP6 ADD MSTORE PUSH2 0x80B SWAP2 SWAP1 PUSH2 0x276C JUMP JUMPDEST PUSH2 0x160 DUP3 ADD MLOAD DUP4 DUP3 SUB PUSH1 0x1F NOT ADD PUSH2 0x180 DUP6 ADD MSTORE PUSH2 0x828 SWAP2 SWAP1 PUSH2 0x276C JUMP JUMPDEST PUSH2 0x180 DUP3 ADD MLOAD DUP4 DUP3 SUB PUSH1 0x1F NOT ADD PUSH2 0x1A0 DUP6 ADD MSTORE PUSH2 0x845 SWAP2 SWAP1 PUSH2 0x276C JUMP JUMPDEST PUSH2 0x1A0 DUP3 ADD MLOAD DUP4 DUP3 SUB PUSH1 0x1F NOT ADD PUSH2 0x1C0 DUP6 ADD MSTORE PUSH2 0x862 SWAP2 SWAP1 PUSH2 0x276C JUMP JUMPDEST PUSH2 0x1C0 DUP3 ADD MLOAD DUP4 DUP3 SUB PUSH1 0x1F NOT ADD PUSH2 0x1E0 DUP6 ADD MSTORE PUSH2 0x87F SWAP2 SWAP1 PUSH2 0x276C JUMP JUMPDEST PUSH2 0x1E0 DUP3 ADD MLOAD DUP4 DUP3 SUB PUSH1 0x1F NOT ADD PUSH2 0x200 DUP6 ADD MSTORE PUSH2 0x89C SWAP2 SWAP1 PUSH2 0x276C JUMP JUMPDEST PUSH2 0x200 DUP3 ADD MLOAD DUP4 DUP3 SUB PUSH1 0x1F NOT ADD PUSH2 0x220 DUP6 ADD MSTORE PUSH2 0x8B9 SWAP2 SWAP1 PUSH2 0x276C JUMP JUMPDEST PUSH2 0x220 DUP3 ADD MLOAD DUP4 DUP3 SUB PUSH1 0x1F NOT ADD PUSH2 0x240 DUP6 ADD MSTORE PUSH2 0x8D6 SWAP2 SWAP1 PUSH2 0x276C JUMP JUMPDEST PUSH2 0x240 DUP3 ADD MLOAD DUP4 DUP3 SUB PUSH1 0x1F NOT ADD PUSH2 0x260 DUP6 ADD MSTORE PUSH2 0x8F3 SWAP2 SWAP1 PUSH2 0x276C JUMP JUMPDEST PUSH2 0x260 DUP3 ADD MLOAD DUP4 DUP3 SUB PUSH1 0x1F NOT ADD PUSH2 0x280 DUP6 ADD MSTORE PUSH2 0x910 SWAP2 SWAP1 PUSH2 0x276C JUMP JUMPDEST SWAP1 PUSH2 0x280 ADD MLOAD SWAP1 PUSH1 0x1F NOT DUP4 DUP3 SUB ADD PUSH2 0x2A0 DUP5 ADD MSTORE PUSH2 0x92D SWAP2 PUSH2 0x276C JUMP JUMPDEST SUB SWAP1 RETURN JUMPDEST CALLVALUE PUSH2 0x436 JUMPI PUSH1 0x0 CALLDATASIZE PUSH1 0x3 NOT ADD SLT PUSH2 0x436 JUMPI PUSH1 0x0 SLOAD PUSH1 0x40 MLOAD PUSH1 0x1 PUSH1 0x1 PUSH1 0xA0 SHL SUB SWAP1 SWAP2 AND DUP2 MSTORE PUSH1 0x20 SWAP1 RETURN JUMPDEST CALLVALUE PUSH2 0x436 JUMPI PUSH2 0x2C0 CALLDATASIZE PUSH1 0x3 NOT ADD SLT PUSH2 0x436 JUMPI PUSH1 0x4 CALLDATALOAD PUSH1 0x1 PUSH1 0x1 PUSH1 0x40 SHL SUB DUP2 GT PUSH2 0x436 JUMPI PUSH2 0x98B SWAP1 CALLDATASIZE SWAP1 PUSH1 0x4 ADD PUSH2 0x2791 JUMP JUMPDEST PUSH2 0x480 MSTORE PUSH2 0x6A0 MSTORE PUSH1 0x24 CALLDATALOAD PUSH1 0x1 PUSH1 0x1 PUSH1 0x40 SHL SUB DUP2 GT PUSH2 0x436 JUMPI PUSH2 0x9B2 SWAP1 CALLDATASIZE SWAP1 PUSH1 0x4 ADD PUSH2 0x2791 JUMP JUMPDEST PUSH2 0x4A0 MSTORE PUSH2 0x3A0 MSTORE PUSH1 0x44 CALLDATALOAD PUSH1 0x1 PUSH1 0x1 PUSH1 0x40 SHL SUB DUP2 GT PUSH2 0x436 JUMPI PUSH2 0x9D9 SWAP1 CALLDATASIZE SWAP1 PUSH1 0x4 ADD PUSH2 0x2791 JUMP JUMPDEST PUSH2 0x420 MSTORE PUSH2 0x260 MSTORE PUSH1 0x64 CALLDATALOAD PUSH1 0x1 PUSH1 0x1 PUSH1 0x40 SHL SUB DUP2 GT PUSH2 0x436 JUMPI PUSH2 0xA00 SWAP1 CALLDATASIZE SWAP1 PUSH1 0x4 ADD PUSH2 0x2791 JUMP JUMPDEST PUSH2 0x440 MSTORE PUSH1 0xA0 MSTORE PUSH1 0x1 PUSH1 0x1 PUSH1 0x40 SHL SUB PUSH1 0x84 CALLDATALOAD GT PUSH2 0x436 JUMPI PUSH2 0xA26 CALLDATASIZE PUSH1 0x84 CALLDATALOAD PUSH1 0x4 ADD PUSH2 0x2791 JUMP JUMPDEST PUSH2 0x620 MSTORE PUSH1 0x80 MSTORE PUSH1 0x1 PUSH1 0x1 PUSH1 0x40 SHL SUB PUSH1 0xA4 CALLDATALOAD GT PUSH2 0x436 JUMPI PUSH2 0xA4C CALLDATASIZE PUSH1 0xA4 CALLDATALOAD PUSH1 0x4 ADD PUSH2 0x2791 JUMP JUMPDEST PUSH2 0x2A0 MSTORE PUSH2 0x680 MSTORE PUSH1 0x1 PUSH1 0x1 PUSH1 0x40 SHL SUB PUSH1 0xC4 CALLDATALOAD GT PUSH2 0x436 JUMPI PUSH2 0xA73 CALLDATASIZE PUSH1 0xC4 CALLDATALOAD PUSH1 0x4 ADD PUSH2 0x2791 JUMP JUMPDEST PUSH2 0x760 MSTORE PUSH2 0x200 MSTORE PUSH1 0x1 PUSH1 0x1 PUSH1 0x40 SHL SUB PUSH1 0xE4 CALLDATALOAD GT PUSH2 0x436 JUMPI PUSH2 0xA9A CALLDATASIZE PUSH1 0xE4 CALLDATALOAD PUSH1 0x4 ADD PUSH2 0x2791 JUMP JUMPDEST PUSH2 0x700 MSTORE PUSH2 0x160 MSTORE PUSH1 0x1 PUSH1 0x1 PUSH1 0x40 SHL SUB PUSH2 0x104 CALLDATALOAD GT PUSH2 0x436 JUMPI PUSH2 0xAC3 CALLDATASIZE PUSH2 0x104 CALLDATALOAD PUSH1 0x4 ADD PUSH2 0x2791 JUMP JUMPDEST PUSH2 0x120 MSTORE PUSH2 0x6C0 MSTORE PUSH1 0x1 PUSH1 0x1 PUSH1 0x40 SHL SUB PUSH2 0x124 CALLDATALOAD GT PUSH2 0x436 JUMPI PUSH2 0xAEC CALLDATASIZE PUSH2 0x124 CALLDATALOAD PUSH1 0x4 ADD PUSH2 0x2791 JUMP JUMPDEST PUSH2 0x660 MSTORE PUSH1 0xE0 MSTORE PUSH1 0x1 PUSH1 0x1 PUSH1 0x40 SHL SUB PUSH2 0x144 CALLDATALOAD GT PUSH2 0x436 JUMPI PUSH2 0xB14 CALLDATASIZE PUSH2 0x144 CALLDATALOAD PUSH1 0x4 ADD PUSH2 0x2791 JUMP JUMPDEST PUSH2 0x1A0 MSTORE PUSH2 0x6E0 MSTORE PUSH1 0x1 PUSH1 0x1 PUSH1 0x40 SHL SUB PUSH2 0x164 CALLDATALOAD GT PUSH2 0x436 JUMPI PUSH2 0xB3D CALLDATASIZE PUSH2 0x164 CALLDATALOAD PUSH1 0x4 ADD PUSH2 0x2791 JUMP JUMPDEST PUSH2 0x3C0 MSTORE PUSH2 0x2E0 MSTORE PUSH1 0x1 PUSH1 0x1 PUSH1 0x40 SHL SUB PUSH2 0x184 CALLDATALOAD GT PUSH2 0x436 JUMPI PUSH2 0xB66 CALLDATASIZE PUSH2 0x184 CALLDATALOAD PUSH1 0x4 ADD PUSH2 0x2791 JUMP JUMPDEST PUSH2 0x580 MSTORE PUSH2 0x520 MSTORE PUSH1 0x1 PUSH1 0x1 PUSH1 0x40 SHL SUB PUSH2 0x1A4 CALLDATALOAD GT PUSH2 0x436 JUMPI PUSH2 0xB8F CALLDATASIZE PUSH2 0x1A4 CALLDATALOAD PUSH1 0x4 ADD PUSH2 0x2791 JUMP JUMPDEST PUSH2 0x500 MSTORE PUSH2 0x600 MSTORE PUSH1 0x1 PUSH1 0x1 PUSH1 0x40 SHL SUB PUSH2 0x1C4 CALLDATALOAD GT PUSH2 0x436 JUMPI PUSH2 0xBB8 CALLDATASIZE PUSH2 0x1C4 CALLDATALOAD PUSH1 0x4 ADD PUSH2 0x2791 JUMP JUMPDEST PUSH2 0x460 MSTORE PUSH2 0x4E0 MSTORE PUSH1 0x1 PUSH1 0x1 PUSH1 0x40 SHL SUB PUSH2 0x1E4 CALLDATALOAD GT PUSH2 0x436 JUMPI PUSH2 0xBE1 CALLDATASIZE PUSH2 0x1E4 CALLDATALOAD PUSH1 0x4 ADD PUSH2 0x2791 JUMP JUMPDEST PUSH2 0x280 MSTORE PUSH2 0x300 MSTORE PUSH1 0x1 PUSH1 0x1 PUSH1 0x40 SHL SUB PUSH2 0x204 CALLDATALOAD GT PUSH2 0x436 JUMPI PUSH2 0xC0A CALLDATASIZE PUSH2 0x204 CALLDATALOAD PUSH1 0x4 ADD PUSH2 0x2791 JUMP JUMPDEST PUSH2 0x340 MSTORE PUSH2 0x320 MSTORE PUSH1 0x1 PUSH1 0x1 PUSH1 0x40 SHL SUB PUSH2 0x224 CALLDATALOAD GT PUSH2 0x436 JUMPI PUSH2 0xC33 CALLDATASIZE PUSH2 0x224 CALLDATALOAD PUSH1 0x4 ADD PUSH2 0x2791 JUMP JUMPDEST PUSH2 0x560 MSTORE PUSH2 0x360 MSTORE PUSH1 0x1 PUSH1 0x1 PUSH1 0x40 SHL SUB PUSH2 0x244 CALLDATALOAD GT PUSH2 0x436 JUMPI PUSH2 0xC5C CALLDATASIZE PUSH2 0x244 CALLDATALOAD PUSH1 0x4 ADD PUSH2 0x2791 JUMP JUMPDEST PUSH2 0x180 MSTORE PUSH2 0x140 MSTORE PUSH1 0x1 PUSH1 0x1 PUSH1 0x40 SHL SUB PUSH2 0x264 CALLDATALOAD GT PUSH2 0x436 JUMPI PUSH2 0xC85 CALLDATASIZE PUSH2 0x264 CALLDATALOAD PUSH1 0x4 ADD PUSH2 0x2791 JUMP JUMPDEST PUSH2 0x5E0 MSTORE PUSH2 0x3E0 MSTORE PUSH1 0x1 PUSH1 0x1 PUSH1 0x40 SHL SUB PUSH2 0x284 CALLDATALOAD GT PUSH2 0x436 JUMPI PUSH2 0xCAE CALLDATASIZE PUSH2 0x284 CALLDATALOAD PUSH1 0x4 ADD PUSH2 0x2791 JUMP JUMPDEST PUSH2 0x400 MSTORE PUSH2 0x740 MSTORE PUSH1 0x1 PUSH1 0x1 PUSH1 0x40 SHL SUB PUSH2 0x2A4 CALLDATALOAD GT PUSH2 0x436 JUMPI PUSH2 0xCD7 CALLDATASIZE PUSH2 0x2A4 CALLDATALOAD PUSH1 0x4 ADD PUSH2 0x2791 JUMP JUMPDEST PUSH2 0x640 MSTORE PUSH2 0x1C0 MSTORE PUSH1 0x0 SLOAD PUSH1 0x1 PUSH1 0x1 PUSH1 0xA0 SHL SUB AND CALLER SUB PUSH2 0x2561 JUMPI PUSH2 0xD01 PUSH1 0x40 MLOAD DUP1 PUSH2 0x1E0 MSTORE PUSH2 0x2666 JUMP JUMPDEST PUSH2 0xD12 CALLDATASIZE PUSH2 0x4A0 MLOAD PUSH2 0x3A0 MLOAD PUSH2 0x27BE JUMP JUMPDEST PUSH2 0x1E0 MLOAD MSTORE PUSH2 0xD28 CALLDATASIZE PUSH2 0x420 MLOAD PUSH2 0x260 MLOAD PUSH2 0x27BE JUMP JUMPDEST PUSH1 0x20 PUSH2 0x1E0 MLOAD ADD MSTORE PUSH2 0xD40 CALLDATASIZE PUSH2 0x440 MLOAD PUSH1 0xA0 MLOAD PUSH2 0x27BE JUMP JUMPDEST PUSH1 0x40 PUSH2 0x1E0 MLOAD ADD MSTORE PUSH2 0xD58 CALLDATASIZE PUSH2 0x620 MLOAD PUSH1 0x80 MLOAD PUSH2 0x27BE JUMP JUMPDEST PUSH1 0x60 PUSH2 0x1E0 MLOAD ADD MSTORE PUSH2 0xD71 CALLDATASIZE PUSH2 0x2A0 MLOAD PUSH2 0x680 MLOAD PUSH2 0x27BE JUMP JUMPDEST PUSH1 0x80 PUSH2 0x1E0 MLOAD ADD MSTORE PUSH2 0xD8A CALLDATASIZE PUSH2 0x760 MLOAD PUSH2 0x200 MLOAD PUSH2 0x27BE JUMP JUMPDEST PUSH1 0xA0 PUSH2 0x1E0 MLOAD ADD MSTORE PUSH2 0xDA3 CALLDATASIZE PUSH2 0x700 MLOAD PUSH2 0x160 MLOAD PUSH2 0x27BE JUMP JUMPDEST PUSH1 0xC0 PUSH2 0x1E0 MLOAD ADD MSTORE PUSH2 0xDBC CALLDATASIZE PUSH2 0x120 MLOAD PUSH2 0x6C0 MLOAD PUSH2 0x27BE JUMP JUMPDEST PUSH1 0xE0 PUSH2 0x1E0 MLOAD ADD MSTORE PUSH2 0xDD4 CALLDATASIZE PUSH2 0x660 MLOAD PUSH1 0xE0 MLOAD PUSH2 0x27BE JUMP JUMPDEST PUSH2 0x100 PUSH2 0x1E0 MLOAD ADD MSTORE PUSH2 0xDEE CALLDATASIZE PUSH2 0x1A0 MLOAD PUSH2 0x6E0 MLOAD PUSH2 0x27BE JUMP JUMPDEST PUSH2 0x120 PUSH2 0x1E0 MLOAD ADD MSTORE PUSH2 0xE08 CALLDATASIZE PUSH2 0x3C0 MLOAD PUSH2 0x2E0 MLOAD PUSH2 0x27BE JUMP JUMPDEST PUSH2 0x140 PUSH2 0x1E0 MLOAD ADD MSTORE PUSH2 0xE22 CALLDATASIZE PUSH2 0x580 MLOAD PUSH2 0x520 MLOAD PUSH2 0x27BE JUMP JUMPDEST PUSH2 0x160 PUSH2 0x1E0 MLOAD ADD MSTORE PUSH2 0xE3C CALLDATASIZE PUSH2 0x500 MLOAD PUSH2 0x600 MLOAD PUSH2 0x27BE JUMP JUMPDEST PUSH2 0x180 PUSH2 0x1E0 MLOAD ADD MSTORE PUSH2 0xE56 CALLDATASIZE PUSH2 0x460 MLOAD PUSH2 0x4E0 MLOAD PUSH2 0x27BE JUMP JUMPDEST PUSH2 0x1A0 PUSH2 0x1E0 MLOAD ADD MSTORE PUSH2 0xE70 CALLDATASIZE PUSH2 0x280 MLOAD PUSH2 0x300 MLOAD PUSH2 0x27BE JUMP JUMPDEST PUSH2 0x1C0 PUSH2 0x1E0 MLOAD ADD MSTORE PUSH2 0xE8A CALLDATASIZE PUSH2 0x340 MLOAD PUSH2 0x320 MLOAD PUSH2 0x27BE JUMP JUMPDEST PUSH2 0x1E0 DUP1 MLOAD ADD MSTORE PUSH2 0xEA2 CALLDATASIZE PUSH2 0x560 MLOAD PUSH2 0x360 MLOAD PUSH2 0x27BE JUMP JUMPDEST PUSH2 0x200 PUSH2 0x1E0 MLOAD ADD MSTORE PUSH2 0xEBC CALLDATASIZE PUSH2 0x180 MLOAD PUSH2 0x140 MLOAD PUSH2 0x27BE JUMP JUMPDEST PUSH2 0x220 PUSH2 0x1E0 MLOAD ADD MSTORE PUSH2 0xED6 CALLDATASIZE PUSH2 0x5E0 MLOAD PUSH2 0x3E0 MLOAD PUSH2 0x27BE JUMP JUMPDEST PUSH2 0x240 PUSH2 0x1E0 MLOAD ADD MSTORE PUSH2 0xEF0 CALLDATASIZE PUSH2 0x400 MLOAD PUSH2 0x740 MLOAD PUSH2 0x27BE JUMP JUMPDEST PUSH2 0x260 PUSH2 0x1E0 MLOAD ADD MSTORE PUSH2 0xF0A CALLDATASIZE PUSH2 0x640 MLOAD PUSH2 0x1C0 MLOAD PUSH2 0x27BE JUMP JUMPDEST PUSH2 0x280 PUSH2 0x1E0 MLOAD ADD MSTORE PUSH1 0x40 MLOAD PUSH2 0x480 MLOAD PUSH2 0x6A0 MLOAD DUP3 CALLDATACOPY PUSH1 0x1 PUSH2 0x480 MLOAD DUP3 ADD MSTORE PUSH1 0x20 DUP2 PUSH2 0x480 MLOAD DUP2 ADD SUB ADD SWAP1 KECCAK256 PUSH2 0x1E0 MLOAD MLOAD DUP1 MLOAD SWAP1 PUSH1 0x1 PUSH1 0x1 PUSH1 0x40 SHL SUB DUP3 GT PUSH2 0x1AFC JUMPI DUP2 SWAP1 PUSH2 0xF62 DUP3 PUSH2 0xF5C DUP7 SLOAD PUSH2 0x262C JUMP JUMPDEST DUP7 PUSH2 0x2804 JUMP JUMPDEST PUSH1 0x20 SWAP1 PUSH1 0x1F DUP4 GT PUSH1 0x1 EQ PUSH2 0x24F5 JUMPI PUSH1 0x0 SWAP3 PUSH2 0x24EA JUMPI JUMPDEST POP POP DUP2 PUSH1 0x1 SHL SWAP2 PUSH1 0x0 NOT SWAP1 PUSH1 0x3 SHL SHR NOT AND OR DUP2 SSTORE JUMPDEST PUSH1 0x20 PUSH2 0x1E0 MLOAD ADD MLOAD DUP1 MLOAD SWAP1 PUSH1 0x1 PUSH1 0x1 PUSH1 0x40 SHL SUB DUP3 GT PUSH2 0x1AFC JUMPI DUP2 SWAP1 PUSH2 0xFC2 DUP3 PUSH2 0xFB9 PUSH1 0x1 DUP8 ADD SLOAD PUSH2 0x262C JUMP JUMPDEST PUSH1 0x1 DUP8 ADD PUSH2 0x2804 JUMP JUMPDEST PUSH1 0x20 SWAP1 PUSH1 0x1F DUP4 GT PUSH1 0x1 EQ PUSH2 0x2478 JUMPI PUSH1 0x0 SWAP3 PUSH2 0x246D JUMPI JUMPDEST POP POP DUP2 PUSH1 0x1 SHL SWAP2 PUSH1 0x0 NOT SWAP1 PUSH1 0x3 SHL SHR NOT AND OR PUSH1 0x1 DUP3 ADD SSTORE JUMPDEST PUSH1 0x40 PUSH2 0x1E0 MLOAD ADD MLOAD DUP1 MLOAD SWAP1 PUSH1 0x1 PUSH1 0x1 PUSH1 0x40 SHL SUB DUP3 GT PUSH2 0x1AFC JUMPI DUP2 SWAP1 PUSH2 0x1025 DUP3 PUSH2 0x101C PUSH1 0x2 DUP8 ADD SLOAD PUSH2 0x262C JUMP JUMPDEST PUSH1 0x2 DUP8 ADD PUSH2 0x2804 JUMP JUMPDEST PUSH1 0x20 SWAP1 PUSH1 0x1F DUP4 GT PUSH1 0x1 EQ PUSH2 0x23FB JUMPI PUSH1 0x0 SWAP3 PUSH2 0x23F0 JUMPI JUMPDEST POP POP DUP2 PUSH1 0x1 SHL SWAP2 PUSH1 0x0 NOT SWAP1 PUSH1 0x3 SHL SHR NOT AND OR PUSH1 0x2 DUP3 ADD SSTORE JUMPDEST PUSH1 0x60 PUSH2 0x1E0 MLOAD ADD MLOAD DUP1 MLOAD SWAP1 PUSH1 0x1 PUSH1 0x1 PUSH1 0x40 SHL SUB DUP3 GT PUSH2 0x1AFC JUMPI DUP2 SWAP1 PUSH2 0x1088 DUP3 PUSH2 0x107F PUSH1 0x3 DUP8 ADD SLOAD PUSH2 0x262C JUMP JUMPDEST PUSH1 0x3 DUP8 ADD PUSH2 0x2804 JUMP JUMPDEST PUSH1 0x20 SWAP1 PUSH1 0x1F DUP4 GT PUSH1 0x1 EQ PUSH2 0x237E JUMPI PUSH1 0x0 SWAP3 PUSH2 0x2373 JUMPI JUMPDEST POP POP DUP2 PUSH1 0x1 SHL SWAP2 PUSH1 0x0 NOT SWAP1 PUSH1 0x3 SHL SHR NOT AND OR PUSH1 0x3 DUP3 ADD SSTORE JUMPDEST PUSH1 0x80 PUSH2 0x1E0 MLOAD ADD MLOAD DUP1 MLOAD SWAP1 PUSH1 0x1 PUSH1 0x1 PUSH1 0x40 SHL SUB DUP3 GT PUSH2 0x1AFC JUMPI DUP2 SWAP1 PUSH2 0x10EB DUP3 PUSH2 0x10E2 PUSH1 0x4 DUP8 ADD SLOAD PUSH2 0x262C JUMP JUMPDEST PUSH1 0x4 DUP8 ADD PUSH2 0x2804 JUMP JUMPDEST PUSH1 0x20 SWAP1 PUSH1 0x1F DUP4 GT PUSH1 0x1 EQ PUSH2 0x2301 JUMPI PUSH1 0x0 SWAP3 PUSH2 0x22F6 JUMPI JUMPDEST POP POP DUP2 PUSH1 0x1 SHL SWAP2 PUSH1 0x0 NOT SWAP1 PUSH1 0x3 SHL SHR NOT AND OR PUSH1 0x4 DUP3 ADD SSTORE JUMPDEST PUSH1 0xA0 PUSH2 0x1E0 MLOAD ADD MLOAD DUP1 MLOAD SWAP1 PUSH1 0x1 PUSH1 0x1 PUSH1 0x40 SHL SUB DUP3 GT PUSH2 0x1AFC JUMPI DUP2 SWAP1 PUSH2 0x114E DUP3 PUSH2 0x1145 PUSH1 0x5 DUP8 ADD SLOAD PUSH2 0x262C JUMP JUMPDEST PUSH1 0x5 DUP8 ADD PUSH2 0x2804 JUMP JUMPDEST PUSH1 0x20 SWAP1 PUSH1 0x1F DUP4 GT PUSH1 0x1 EQ PUSH2 0x2284 JUMPI PUSH1 0x0 SWAP3 PUSH2 0x2279 JUMPI JUMPDEST POP POP DUP2 PUSH1 0x1 SHL SWAP2 PUSH1 0x0 NOT SWAP1 PUSH1 0x3 SHL SHR NOT AND OR PUSH1 0x5 DUP3 ADD SSTORE JUMPDEST PUSH1 0xC0 PUSH2 0x1E0 MLOAD ADD MLOAD DUP1 MLOAD SWAP1 PUSH1 0x1 PUSH1 0x1 PUSH1 0x40 SHL SUB DUP3 GT PUSH2 0x1AFC JUMPI DUP2 SWAP1 PUSH2 0x11B1 DUP3 PUSH2 0x11A8 PUSH1 0x6 DUP8 ADD SLOAD PUSH2 0x262C JUMP JUMPDEST PUSH1 0x6 DUP8 ADD PUSH2 0x2804 JUMP JUMPDEST PUSH1 0x20 SWAP1 PUSH1 0x1F DUP4 GT PUSH1 0x1 EQ PUSH2 0x2207 JUMPI PUSH1 0x0 SWAP3 PUSH2 0x21FC JUMPI JUMPDEST POP POP DUP2 PUSH1 0x1 SHL SWAP2 PUSH1 0x0 NOT SWAP1 PUSH1 0x3 SHL SHR NOT AND OR PUSH1 0x6 DUP3 ADD SSTORE JUMPDEST PUSH1 0xE0 PUSH2 0x1E0 MLOAD ADD MLOAD DUP1 MLOAD SWAP1 PUSH1 0x1 PUSH1 0x1 PUSH1 0x40 SHL SUB DUP3 GT PUSH2 0x1AFC JUMPI DUP2 SWAP1 PUSH2 0x1214 DUP3 PUSH2 0x120B PUSH1 0x7 DUP8 ADD SLOAD PUSH2 0x262C JUMP JUMPDEST PUSH1 0x7 DUP8 ADD PUSH2 0x2804 JUMP JUMPDEST PUSH1 0x20 SWAP1 PUSH1 0x1F DUP4 GT PUSH1 0x1 EQ PUSH2 0x218A JUMPI PUSH1 0x0 SWAP3 PUSH2 0x217F JUMPI JUMPDEST POP POP DUP2 PUSH1 0x1 SHL SWAP2 PUSH1 0x0 NOT SWAP1 PUSH1 0x3 SHL SHR NOT AND OR PUSH1 0x7 DUP3 ADD SSTORE JUMPDEST PUSH2 0x100 PUSH2 0x1E0 MLOAD ADD MLOAD DUP1 MLOAD SWAP1 PUSH1 0x1 PUSH1 0x1 PUSH1 0x40 SHL SUB DUP3 GT PUSH2 0x1AFC JUMPI DUP2 SWAP1 PUSH2 0x1278 DUP3 PUSH2 0x126F PUSH1 0x8 DUP8 ADD SLOAD PUSH2 0x262C JUMP JUMPDEST PUSH1 0x8 DUP8 ADD PUSH2 0x2804 JUMP JUMPDEST PUSH1 0x20 SWAP1 PUSH1 0x1F DUP4 GT PUSH1 0x1 EQ PUSH2 0x210D JUMPI PUSH1 0x0 SWAP3 PUSH2 0x2102 JUMPI JUMPDEST POP POP DUP2 PUSH1 0x1 SHL SWAP2 PUSH1 0x0 NOT SWAP1 PUSH1 0x3 SHL SHR NOT AND OR PUSH1 0x8 DUP3 ADD SSTORE JUMPDEST PUSH2 0x120 PUSH2 0x1E0 MLOAD ADD MLOAD DUP1 MLOAD SWAP1 PUSH1 0x1 PUSH1 0x1 PUSH1 0x40 SHL SUB DUP3 GT PUSH2 0x1AFC JUMPI DUP2 SWAP1 PUSH2 0x12DC DUP3 PUSH2 0x12D3 PUSH1 0x9 DUP8 ADD SLOAD PUSH2 0x262C JUMP JUMPDEST PUSH1 0x9 DUP8 ADD PUSH2 0x2804 JUMP JUMPDEST PUSH1 0x20 SWAP1 PUSH1 0x1F DUP4 GT PUSH1 0x1 EQ PUSH2 0x2090 JUMPI PUSH1 0x0 SWAP3 PUSH2 0x2085 JUMPI JUMPDEST POP POP DUP2 PUSH1 0x1 SHL SWAP2 PUSH1 0x0 NOT SWAP1 PUSH1 0x3 SHL SHR NOT AND OR PUSH1 0x9 DUP3 ADD SSTORE JUMPDEST PUSH2 0x140 PUSH2 0x1E0 MLOAD ADD MLOAD DUP1 MLOAD SWAP1 PUSH1 0x1 PUSH1 0x1 PUSH1 0x40 SHL SUB DUP3 GT PUSH2 0x1AFC JUMPI DUP2 SWAP1 PUSH2 0x1340 DUP3 PUSH2 0x1337 PUSH1 0xA DUP8 ADD SLOAD PUSH2 0x262C JUMP JUMPDEST PUSH1 0xA DUP8 ADD PUSH2 0x2804 JUMP JUMPDEST PUSH1 0x20 SWAP1 PUSH1 0x1F DUP4 GT PUSH1 0x1 EQ PUSH2 0x2013 JUMPI PUSH1 0x0 SWAP3 PUSH2 0x2008 JUMPI JUMPDEST POP POP DUP2 PUSH1 0x1 SHL SWAP2 PUSH1 0x0 NOT SWAP1 PUSH1 0x3 SHL SHR NOT AND OR PUSH1 0xA DUP3 ADD SSTORE JUMPDEST PUSH2 0x160 PUSH2 0x1E0 MLOAD ADD MLOAD DUP1 MLOAD SWAP1 PUSH1 0x1 PUSH1 0x1 PUSH1 0x40 SHL SUB DUP3 GT PUSH2 0x1AFC JUMPI DUP2 SWAP1 PUSH2 0x13A4 DUP3 PUSH2 0x139B PUSH1 0xB DUP8 ADD SLOAD PUSH2 0x262C JUMP JUMPDEST PUSH1 0xB DUP8 ADD PUSH2 0x2804 JUMP JUMPDEST PUSH1 0x20 SWAP1 PUSH1 0x1F DUP4 GT PUSH1 0x1 EQ PUSH2 0x1F96 JUMPI PUSH1 0x0 SWAP3 PUSH2 0x1F8B JUMPI JUMPDEST POP POP DUP2 PUSH1 0x1 SHL SWAP2 PUSH1 0x0 NOT SWAP1 PUSH1 0x3 SHL SHR NOT AND OR PUSH1 0xB DUP3 ADD SSTORE JUMPDEST PUSH2 0x180 PUSH2 0x1E0 MLOAD ADD MLOAD DUP1 MLOAD SWAP1 PUSH1 0x1 PUSH1 0x1 PUSH1 0x40 SHL SUB DUP3 GT PUSH2 0x1AFC JUMPI DUP2 SWAP1 PUSH2 0x1408 DUP3 PUSH2 0x13FF PUSH1 0xC DUP8 ADD SLOAD PUSH2 0x262C JUMP JUMPDEST PUSH1 0xC DUP8 ADD PUSH2 0x2804 JUMP JUMPDEST PUSH1 0x20 SWAP1 PUSH1 0x1F DUP4 GT PUSH1 0x1 EQ PUSH2 0x1F19 JUMPI PUSH1 0x0 SWAP3 PUSH2 0x1F0E JUMPI JUMPDEST POP POP DUP2 PUSH1 0x1 SHL SWAP2 PUSH1 0x0 NOT SWAP1 PUSH1 0x3 SHL SHR NOT AND OR PUSH1 0xC DUP3 ADD SSTORE JUMPDEST PUSH2 0x1A0 PUSH2 0x1E0 MLOAD ADD MLOAD DUP1 MLOAD SWAP1 PUSH1 0x1 PUSH1 0x1 PUSH1 0x40 SHL SUB DUP3 GT PUSH2 0x1AFC JUMPI DUP2 SWAP1 PUSH2 0x146C DUP3 PUSH2 0x1463 PUSH1 0xD DUP8 ADD SLOAD PUSH2 0x262C JUMP JUMPDEST PUSH1 0xD DUP8 ADD PUSH2 0x2804 JUMP JUMPDEST PUSH1 0x20 SWAP1 PUSH1 0x1F DUP4 GT PUSH1 0x1 EQ PUSH2 0x1E9C JUMPI PUSH1 0x0 SWAP3 PUSH2 0x1E91 JUMPI JUMPDEST POP POP DUP2 PUSH1 0x1 SHL SWAP2 PUSH1 0x0 NOT SWAP1 PUSH1 0x3 SHL SHR NOT AND OR PUSH1 0xD DUP3 ADD SSTORE JUMPDEST PUSH2 0x1C0 PUSH2 0x1E0 MLOAD ADD MLOAD DUP1 MLOAD SWAP1 PUSH1 0x1 PUSH1 0x1 PUSH1 0x40 SHL SUB DUP3 GT PUSH2 0x1AFC JUMPI DUP2 SWAP1 PUSH2 0x14D0 DUP3 PUSH2 0x14C7 PUSH1 0xE DUP8 ADD SLOAD PUSH2 0x262C JUMP JUMPDEST PUSH1 0xE DUP8 ADD PUSH2 0x2804 JUMP JUMPDEST PUSH1 0x20 SWAP1 PUSH1 0x1F DUP4 GT PUSH1 0x1 EQ PUSH2 0x1E1F JUMPI PUSH1 0x0 SWAP3 PUSH2 0x1E14 JUMPI JUMPDEST POP POP DUP2 PUSH1 0x1 SHL SWAP2 PUSH1 0x0 NOT SWAP1 PUSH1 0x3 SHL SHR NOT AND OR PUSH1 0xE DUP3 ADD SSTORE JUMPDEST PUSH2 0x1E0 DUP1 MLOAD ADD MLOAD DUP1 MLOAD SWAP1 PUSH1 0x1 PUSH1 0x1 PUSH1 0x40 SHL SUB DUP3 GT PUSH2 0x1AFC JUMPI DUP2 SWAP1 PUSH2 0x1532 DUP3 PUSH2 0x1529 PUSH1 0xF DUP8 ADD SLOAD PUSH2 0x262C JUMP JUMPDEST PUSH1 0xF DUP8 ADD PUSH2 0x2804 JUMP JUMPDEST PUSH1 0x20 SWAP1 PUSH1 0x1F DUP4 GT PUSH1 0x1 EQ PUSH2 0x1DA2 JUMPI PUSH1 0x0 SWAP3 PUSH2 0x1D97 JUMPI JUMPDEST POP POP DUP2 PUSH1 0x1 SHL SWAP2 PUSH1 0x0 NOT SWAP1 PUSH1 0x3 SHL SHR NOT AND OR PUSH1 0xF DUP3 ADD SSTORE JUMPDEST PUSH2 0x200 PUSH2 0x1E0 MLOAD ADD MLOAD DUP1 MLOAD SWAP1 PUSH1 0x1 PUSH1 0x1 PUSH1 0x40 SHL SUB DUP3 GT PUSH2 0x1AFC JUMPI DUP2 SWAP1 PUSH2 0x1596 DUP3 PUSH2 0x158D PUSH1 0x10 DUP8 ADD SLOAD PUSH2 0x262C JUMP JUMPDEST PUSH1 0x10 DUP8 ADD PUSH2 0x2804 JUMP JUMPDEST PUSH1 0x20 SWAP1 PUSH1 0x1F DUP4 GT PUSH1 0x1 EQ PUSH2 0x1D25 JUMPI PUSH1 0x0 SWAP3 PUSH2 0x1D1A JUMPI JUMPDEST POP POP DUP2 PUSH1 0x1 SHL SWAP2 PUSH1 0x0 NOT SWAP1 PUSH1 0x3 SHL SHR NOT AND OR PUSH1 0x10 DUP3 ADD SSTORE JUMPDEST PUSH2 0x220 PUSH2 0x1E0 MLOAD ADD MLOAD DUP1 MLOAD SWAP1 PUSH1 0x1 PUSH1 0x1 PUSH1 0x40 SHL SUB DUP3 GT PUSH2 0x1AFC JUMPI DUP2 SWAP1 PUSH2 0x15FA DUP3 PUSH2 0x15F1 PUSH1 0x11 DUP8 ADD SLOAD PUSH2 0x262C JUMP JUMPDEST PUSH1 0x11 DUP8 ADD PUSH2 0x2804 JUMP JUMPDEST PUSH1 0x20 SWAP1 PUSH1 0x1F DUP4 GT PUSH1 0x1 EQ PUSH2 0x1CA8 JUMPI PUSH1 0x0 SWAP3 PUSH2 0x1C9D JUMPI JUMPDEST POP POP DUP2 PUSH1 0x1 SHL SWAP2 PUSH1 0x0 NOT SWAP1 PUSH1 0x3 SHL SHR NOT AND OR PUSH1 0x11 DUP3 ADD SSTORE JUMPDEST PUSH2 0x240 PUSH2 0x1E0 MLOAD ADD MLOAD DUP1 MLOAD SWAP1 PUSH1 0x1 PUSH1 0x1 PUSH1 0x40 SHL SUB DUP3 GT PUSH2 0x1AFC JUMPI DUP2 SWAP1 PUSH2 0x165E DUP3 PUSH2 0x1655 PUSH1 0x12 DUP8 ADD SLOAD PUSH2 0x262C JUMP JUMPDEST PUSH1 0x12 DUP8 ADD PUSH2 0x2804 JUMP JUMPDEST PUSH1 0x20 SWAP1 PUSH1 0x1F DUP4 GT PUSH1 0x1 EQ PUSH2 0x1C2B JUMPI PUSH1 0x0 SWAP3 PUSH2 0x1C20 JUMPI JUMPDEST POP POP DUP2 PUSH1 0x1 SHL SWAP2 PUSH1 0x0 NOT SWAP1 PUSH1 0x3 SHL SHR NOT AND OR PUSH1 0x12 DUP3 ADD SSTORE JUMPDEST PUSH2 0x260 PUSH2 0x1E0 MLOAD ADD MLOAD DUP1 MLOAD SWAP1 PUSH1 0x1 PUSH1 0x1 PUSH1 0x40 SHL SUB DUP3 GT PUSH2 0x1AFC JUMPI DUP2 SWAP1 PUSH2 0x16C2 DUP3 PUSH2 0x16B9 PUSH1 0x13 DUP8 ADD SLOAD PUSH2 0x262C JUMP JUMPDEST PUSH1 0x13 DUP8 ADD PUSH2 0x2804 JUMP JUMPDEST PUSH1 0x20 SWAP1 PUSH1 0x1F DUP4 GT PUSH1 0x1 EQ PUSH2 0x1BAE JUMPI PUSH1 0x0 SWAP3 PUSH2 0x1BA3 JUMPI JUMPDEST POP POP DUP2 PUSH1 0x1 SHL SWAP2 PUSH1 0x0 NOT SWAP1 PUSH1 0x3 SHL SHR NOT AND OR PUSH1 0x13 DUP3 ADD SSTORE JUMPDEST PUSH2 0x280 PUSH2 0x1E0 MLOAD ADD MLOAD DUP1 MLOAD SWAP1 PUSH1 0x1 PUSH1 0x1 PUSH1 0x40 SHL SUB DUP3 GT PUSH2 0x1AFC JUMPI PUSH2 0x1724 DUP3 PUSH2 0x171B PUSH1 0x14 DUP7 ADD SLOAD PUSH2 0x262C JUMP JUMPDEST PUSH1 0x14 DUP7 ADD PUSH2 0x2804 JUMP JUMPDEST PUSH1 0x20 SWAP1 PUSH1 0x1F DUP4 GT PUSH1 0x1 EQ PUSH2 0x1B33 JUMPI PUSH1 0x14 SWAP3 SWAP2 PUSH1 0x0 SWAP2 DUP4 PUSH2 0x1B28 JUMPI JUMPDEST POP POP DUP2 PUSH1 0x1 SHL SWAP2 PUSH1 0x0 NOT SWAP1 PUSH1 0x3 SHL SHR NOT AND OR SWAP2 ADD SSTORE JUMPDEST PUSH1 0x2 SLOAD PUSH9 0x10000000000000000 DUP2 LT ISZERO PUSH2 0x1AFC JUMPI DUP1 PUSH1 0x1 PUSH2 0x1779 SWAP3 ADD PUSH1 0x2 SSTORE PUSH2 0x25DF JUMP JUMPDEST PUSH2 0x1B12 JUMPI PUSH2 0x480 MLOAD PUSH1 0x1 PUSH1 0x1 PUSH1 0x40 SHL SUB DUP2 GT PUSH2 0x1AFC JUMPI PUSH2 0x17A3 SWAP1 PUSH2 0x179D DUP4 SLOAD PUSH2 0x262C JUMP JUMPDEST DUP4 PUSH2 0x2804 JUMP JUMPDEST PUSH1 0x0 SWAP1 PUSH2 0x480 MLOAD PUSH1 0x1F DUP2 GT PUSH1 0x1 EQ PUSH2 0x1A8F JUMPI POP SWAP1 PUSH1 0x0 PUSH2 0x480 MLOAD SWAP2 DUP3 PUSH2 0x1A81 JUMPI JUMPDEST POP DUP2 PUSH1 0x1 SHL SWAP2 PUSH1 0x0 NOT SWAP1 PUSH1 0x3 SHL SHR NOT AND OR SWAP1 SSTORE JUMPDEST PUSH2 0x2C0 PUSH1 0x40 MLOAD DUP1 PUSH2 0x240 MSTORE MSTORE PUSH32 0xD0593730731DD92F24CA0299C49906C08BE16FB91C1055DB5AF478E3DD46B597 PUSH2 0x1A57 PUSH2 0x1A3D PUSH2 0x1A23 PUSH2 0x1A09 PUSH2 0x19EF PUSH2 0x19D5 PUSH2 0x19BB PUSH2 0x19A1 PUSH2 0x1987 PUSH2 0x196D PUSH2 0x1953 PUSH2 0x1939 PUSH2 0x1920 PUSH2 0x1906 PUSH2 0x18ED PUSH2 0x18D4 PUSH2 0x18BB PUSH2 0x18A3 PUSH2 0x188B PUSH2 0x1872 PUSH2 0x1859 PUSH2 0x2C0 PUSH2 0x240 MLOAD ADD PUSH2 0x480 MLOAD PUSH2 0x6A0 MLOAD PUSH2 0x2858 JUMP JUMPDEST PUSH2 0x240 MLOAD PUSH1 0x20 DUP2 DUP4 SUB SWAP2 ADD MSTORE PUSH2 0x4A0 MLOAD PUSH2 0x3A0 MLOAD PUSH2 0x2858 JUMP JUMPDEST PUSH2 0x240 MLOAD PUSH1 0x40 DUP2 DUP4 SUB SWAP2 ADD MSTORE PUSH2 0x420 MLOAD PUSH2 0x260 MLOAD PUSH2 0x2858 JUMP JUMPDEST PUSH2 0x240 MLOAD PUSH1 0x60 DUP2 DUP4 SUB SWAP2 ADD MSTORE PUSH2 0x440 MLOAD PUSH1 0xA0 MLOAD PUSH2 0x2858 JUMP JUMPDEST PUSH2 0x240 MLOAD PUSH1 0x80 DUP2 DUP4 SUB SWAP2 ADD MSTORE PUSH2 0x620 MLOAD PUSH1 0x80 MLOAD PUSH2 0x2858 JUMP JUMPDEST PUSH2 0x240 MLOAD PUSH1 0xA0 DUP2 DUP4 SUB SWAP2 ADD MSTORE PUSH2 0x2A0 MLOAD PUSH2 0x680 MLOAD PUSH2 0x2858 JUMP JUMPDEST PUSH2 0x240 MLOAD PUSH1 0xC0 DUP2 DUP4 SUB SWAP2 ADD MSTORE PUSH2 0x760 MLOAD PUSH2 0x200 MLOAD PUSH2 0x2858 JUMP JUMPDEST PUSH2 0x240 MLOAD PUSH1 0xE0 DUP2 DUP4 SUB SWAP2 ADD MSTORE PUSH2 0x700 MLOAD PUSH2 0x160 MLOAD PUSH2 0x2858 JUMP JUMPDEST PUSH2 0x240 MLOAD PUSH2 0x100 DUP2 DUP4 SUB SWAP2 ADD MSTORE PUSH2 0x120 MLOAD PUSH2 0x6C0 MLOAD PUSH2 0x2858 JUMP JUMPDEST PUSH2 0x240 MLOAD PUSH2 0x120 DUP2 DUP4 SUB SWAP2 ADD MSTORE PUSH2 0x660 MLOAD PUSH1 0xE0 MLOAD PUSH2 0x2858 JUMP JUMPDEST PUSH2 0x240 MLOAD PUSH2 0x140 DUP2 DUP4 SUB SWAP2 ADD MSTORE PUSH2 0x1A0 MLOAD PUSH2 0x6E0 MLOAD PUSH2 0x2858 JUMP JUMPDEST PUSH2 0x240 MLOAD PUSH2 0x160 DUP2 DUP4 SUB SWAP2 ADD MSTORE PUSH2 0x3C0 MLOAD PUSH2 0x2E0 MLOAD PUSH2 0x2858 JUMP JUMPDEST PUSH2 0x240 MLOAD PUSH2 0x180 DUP2 DUP4 SUB SWAP2 ADD MSTORE PUSH2 0x580 MLOAD PUSH2 0x520 MLOAD PUSH2 0x2858 JUMP JUMPDEST PUSH2 0x240 MLOAD PUSH2 0x1A0 DUP2 DUP4 SUB SWAP2 ADD MSTORE PUSH2 0x500 MLOAD PUSH2 0x600 MLOAD PUSH2 0x2858 JUMP JUMPDEST PUSH2 0x240 MLOAD PUSH2 0x1C0 DUP2 DUP4 SUB SWAP2 ADD MSTORE PUSH2 0x460 MLOAD PUSH2 0x4E0 MLOAD PUSH2 0x2858 JUMP JUMPDEST PUSH2 0x240 MLOAD PUSH2 0x1E0 DUP2 DUP4 SUB SWAP2 ADD MSTORE PUSH2 0x280 MLOAD PUSH2 0x300 MLOAD PUSH2 0x2858 JUMP JUMPDEST PUSH2 0x240 MLOAD PUSH2 0x200 DUP2 DUP4 SUB SWAP2 ADD MSTORE PUSH2 0x340 MLOAD PUSH2 0x320 MLOAD PUSH2 0x2858 JUMP JUMPDEST PUSH2 0x240 MLOAD PUSH2 0x220 DUP2 DUP4 SUB SWAP2 ADD MSTORE PUSH2 0x560 MLOAD PUSH2 0x360 MLOAD PUSH2 0x2858 JUMP JUMPDEST PUSH2 0x240 MLOAD PUSH2 0x240 DUP2 DUP4 SUB SWAP2 ADD MSTORE PUSH2 0x180 MLOAD PUSH2 0x140 MLOAD PUSH2 0x2858 JUMP JUMPDEST PUSH2 0x240 MLOAD PUSH2 0x260 DUP2 DUP4 SUB SWAP2 ADD MSTORE PUSH2 0x5E0 MLOAD PUSH2 0x3E0 MLOAD PUSH2 0x2858 JUMP JUMPDEST PUSH2 0x240 MLOAD PUSH2 0x280 DUP2 DUP4 SUB SWAP2 ADD MSTORE PUSH2 0x400 MLOAD PUSH2 0x740 MLOAD PUSH2 0x2858 JUMP JUMPDEST PUSH2 0x240 MLOAD PUSH2 0x2A0 DUP2 DUP4 SUB SWAP2 ADD MSTORE PUSH2 0x1A79 PUSH2 0x240 MLOAD SWAP2 PUSH2 0x640 MLOAD PUSH2 0x1C0 MLOAD PUSH2 0x2858 JUMP JUMPDEST SUB PUSH2 0x240 MLOAD LOG1 STOP JUMPDEST SWAP1 POP PUSH2 0x6A0 MLOAD ADD CALLDATALOAD DUP4 PUSH2 0x17C4 JUMP JUMPDEST DUP2 PUSH1 0x0 MSTORE PUSH1 0x20 PUSH1 0x0 KECCAK256 PUSH1 0x0 SWAP4 PUSH2 0x6A0 MLOAD SWAP1 JUMPDEST PUSH1 0x1F NOT DUP5 AND DUP7 LT PUSH2 0x1AE4 JUMPI PUSH1 0x1 SWAP5 SWAP6 POP DUP4 PUSH1 0x1F NOT DUP2 AND LT PUSH2 0x1ACA JUMPI JUMPDEST POP POP POP DUP2 SHL ADD SWAP1 SSTORE PUSH2 0x17D8 JUMP JUMPDEST ADD CALLDATALOAD PUSH1 0x0 NOT PUSH1 0x3 DUP5 SWAP1 SHL PUSH1 0xF8 AND SHR NOT AND SWAP1 SSTORE DUP4 DUP1 DUP1 PUSH2 0x1ABD JUMP JUMPDEST SWAP2 PUSH1 0x20 PUSH1 0x1 DUP2 SWAP3 DUP6 DUP6 ADD CALLDATALOAD DUP2 SSTORE ADD SWAP4 ADD SWAP6 ADD SWAP5 PUSH2 0x1AA1 JUMP JUMPDEST PUSH4 0x4E487B71 PUSH1 0xE0 SHL PUSH1 0x0 MSTORE PUSH1 0x41 PUSH1 0x4 MSTORE PUSH1 0x24 PUSH1 0x0 REVERT JUMPDEST PUSH4 0x4E487B71 PUSH1 0xE0 SHL PUSH1 0x0 MSTORE PUSH1 0x0 PUSH1 0x4 MSTORE PUSH1 0x24 PUSH1 0x0 REVERT JUMPDEST ADD MLOAD SWAP1 POP DUP5 DUP1 PUSH2 0x173F JUMP JUMPDEST SWAP1 PUSH1 0x14 DUP5 ADD PUSH1 0x0 MSTORE PUSH1 0x20 PUSH1 0x0 KECCAK256 SWAP2 PUSH1 0x0 JUMPDEST PUSH1 0x1F NOT DUP6 AND DUP2 LT PUSH2 0x1B8B JUMPI POP SWAP2 DUP4 SWAP2 PUSH1 0x1 SWAP4 PUSH1 0x14 SWAP6 PUSH1 0x1F NOT DUP2 AND LT PUSH2 0x1B72 JUMPI JUMPDEST POP POP POP DUP2 SHL ADD SWAP2 ADD SSTORE PUSH2 0x1755 JUMP JUMPDEST ADD MLOAD PUSH1 0x0 NOT PUSH1 0xF8 DUP5 PUSH1 0x3 SHL AND SHR NOT AND SWAP1 SSTORE DUP5 DUP1 DUP1 PUSH2 0x1B64 JUMP JUMPDEST SWAP2 SWAP3 PUSH1 0x20 PUSH1 0x1 DUP2 SWAP3 DUP7 DUP6 ADD MLOAD DUP2 SSTORE ADD SWAP5 ADD SWAP3 ADD PUSH2 0x1B44 JUMP JUMPDEST ADD MLOAD SWAP1 POP DUP4 DUP1 PUSH2 0x16D8 JUMP JUMPDEST SWAP3 POP PUSH1 0x13 DUP5 ADD PUSH1 0x0 MSTORE PUSH1 0x20 PUSH1 0x0 KECCAK256 SWAP1 PUSH1 0x0 SWAP4 JUMPDEST PUSH1 0x1F NOT DUP5 AND DUP6 LT PUSH2 0x1C05 JUMPI PUSH1 0x1 SWAP5 POP DUP4 PUSH1 0x1F NOT DUP2 AND LT PUSH2 0x1BEC JUMPI JUMPDEST POP POP POP DUP2 SHL ADD PUSH1 0x13 DUP3 ADD SSTORE PUSH2 0x16F0 JUMP JUMPDEST ADD MLOAD PUSH1 0x0 NOT PUSH1 0xF8 DUP5 PUSH1 0x3 SHL AND SHR NOT AND SWAP1 SSTORE DUP4 DUP1 DUP1 PUSH2 0x1BDC JUMP JUMPDEST DUP2 DUP2 ADD MLOAD DUP4 SSTORE PUSH1 0x20 SWAP5 DUP6 ADD SWAP5 PUSH1 0x1 SWAP1 SWAP4 ADD SWAP3 SWAP1 SWAP2 ADD SWAP1 PUSH2 0x1BC1 JUMP JUMPDEST ADD MLOAD SWAP1 POP DUP4 DUP1 PUSH2 0x1674 JUMP JUMPDEST SWAP3 POP PUSH1 0x12 DUP5 ADD PUSH1 0x0 MSTORE PUSH1 0x20 PUSH1 0x0 KECCAK256 SWAP1 PUSH1 0x0 SWAP4 JUMPDEST PUSH1 0x1F NOT DUP5 AND DUP6 LT PUSH2 0x1C82 JUMPI PUSH1 0x1 SWAP5 POP DUP4 PUSH1 0x1F NOT DUP2 AND LT PUSH2 0x1C69 JUMPI JUMPDEST POP POP POP DUP2 SHL ADD PUSH1 0x12 DUP3 ADD SSTORE PUSH2 0x168C JUMP JUMPDEST ADD MLOAD PUSH1 0x0 NOT PUSH1 0xF8 DUP5 PUSH1 0x3 SHL AND SHR NOT AND SWAP1 SSTORE DUP4 DUP1 DUP1 PUSH2 0x1C59 JUMP JUMPDEST DUP2 DUP2 ADD MLOAD DUP4 SSTORE PUSH1 0x20 SWAP5 DUP6 ADD SWAP5 PUSH1 0x1 SWAP1 SWAP4 ADD SWAP3 SWAP1 SWAP2 ADD SWAP1 PUSH2 0x1C3E JUMP JUMPDEST ADD MLOAD SWAP1 POP DUP4 DUP1 PUSH2 0x1610 JUMP JUMPDEST SWAP3 POP PUSH1 0x11 DUP5 ADD PUSH1 0x0 MSTORE PUSH1 0x20 PUSH1 0x0 KECCAK256 SWAP1 PUSH1 0x0 SWAP4 JUMPDEST PUSH1 0x1F NOT DUP5 AND DUP6 LT PUSH2 0x1CFF JUMPI PUSH1 0x1 SWAP5 POP DUP4 PUSH1 0x1F NOT DUP2 AND LT PUSH2 0x1CE6 JUMPI JUMPDEST POP POP POP DUP2 SHL ADD PUSH1 0x11 DUP3 ADD SSTORE PUSH2 0x1628 JUMP JUMPDEST ADD MLOAD PUSH1 0x0 NOT PUSH1 0xF8 DUP5 PUSH1 0x3 SHL AND SHR NOT AND SWAP1 SSTORE DUP4 DUP1 DUP1 PUSH2 0x1CD6 JUMP JUMPDEST DUP2 DUP2 ADD MLOAD DUP4 SSTORE PUSH1 0x20 SWAP5 DUP6 ADD SWAP5 PUSH1 0x1 SWAP1 SWAP4 ADD SWAP3 SWAP1 SWAP2 ADD SWAP1 PUSH2 0x1CBB JUMP JUMPDEST ADD MLOAD SWAP1 POP DUP4 DUP1 PUSH2 0x15AC JUMP JUMPDEST SWAP3 POP PUSH1 0x10 DUP5 ADD PUSH1 0x0 MSTORE PUSH1 0x20 PUSH1 0x0 KECCAK256 SWAP1 PUSH1 0x0 SWAP4 JUMPDEST PUSH1 0x1F NOT DUP5 AND DUP6 LT PUSH2 0x1D7C JUMPI PUSH1 0x1 SWAP5 POP DUP4 PUSH1 0x1F NOT DUP2 AND LT PUSH2 0x1D63 JUMPI JUMPDEST POP POP POP DUP2 SHL ADD PUSH1 0x10 DUP3 ADD SSTORE PUSH2 0x15C4 JUMP JUMPDEST ADD MLOAD PUSH1 0x0 NOT PUSH1 0xF8 DUP5 PUSH1 0x3 SHL AND SHR NOT AND SWAP1 SSTORE DUP4 DUP1 DUP1 PUSH2 0x1D53 JUMP JUMPDEST DUP2 DUP2 ADD MLOAD DUP4 SSTORE PUSH1 0x20 SWAP5 DUP6 ADD SWAP5 PUSH1 0x1 SWAP1 SWAP4 ADD SWAP3 SWAP1 SWAP2 ADD SWAP1 PUSH2 0x1D38 JUMP JUMPDEST ADD MLOAD SWAP1 POP DUP4 DUP1 PUSH2 0x1548 JUMP JUMPDEST SWAP3 POP PUSH1 0xF DUP5 ADD PUSH1 0x0 MSTORE PUSH1 0x20 PUSH1 0x0 KECCAK256 SWAP1 PUSH1 0x0 SWAP4 JUMPDEST PUSH1 0x1F NOT DUP5 AND DUP6 LT PUSH2 0x1DF9 JUMPI PUSH1 0x1 SWAP5 POP DUP4 PUSH1 0x1F NOT DUP2 AND LT PUSH2 0x1DE0 JUMPI JUMPDEST POP POP POP DUP2 SHL ADD PUSH1 0xF DUP3 ADD SSTORE PUSH2 0x1560 JUMP JUMPDEST ADD MLOAD PUSH1 0x0 NOT PUSH1 0xF8 DUP5 PUSH1 0x3 SHL AND SHR NOT AND SWAP1 SSTORE DUP4 DUP1 DUP1 PUSH2 0x1DD0 JUMP JUMPDEST DUP2 DUP2 ADD MLOAD DUP4 SSTORE PUSH1 0x20 SWAP5 DUP6 ADD SWAP5 PUSH1 0x1 SWAP1 SWAP4 ADD SWAP3 SWAP1 SWAP2 ADD SWAP1 PUSH2 0x1DB5 JUMP JUMPDEST ADD MLOAD SWAP1 POP DUP4 DUP1 PUSH2 0x14E6 JUMP JUMPDEST SWAP3 POP PUSH1 0xE DUP5 ADD PUSH1 0x0 MSTORE PUSH1 0x20 PUSH1 0x0 KECCAK256 SWAP1 PUSH1 0x0 SWAP4 JUMPDEST PUSH1 0x1F NOT DUP5 AND DUP6 LT PUSH2 0x1E76 JUMPI PUSH1 0x1 SWAP5 POP DUP4 PUSH1 0x1F NOT DUP2 AND LT PUSH2 0x1E5D JUMPI JUMPDEST POP POP POP DUP2 SHL ADD PUSH1 0xE DUP3 ADD SSTORE PUSH2 0x14FE JUMP JUMPDEST ADD MLOAD PUSH1 0x0 NOT PUSH1 0xF8 DUP5 PUSH1 0x3 SHL AND SHR NOT AND SWAP1 SSTORE DUP4 DUP1 DUP1 PUSH2 0x1E4D JUMP JUMPDEST DUP2 DUP2 ADD MLOAD DUP4 SSTORE PUSH1 0x20 SWAP5 DUP6 ADD SWAP5 PUSH1 0x1 SWAP1 SWAP4 ADD SWAP3 SWAP1 SWAP2 ADD SWAP1 PUSH2 0x1E32 JUMP JUMPDEST ADD MLOAD SWAP1 POP DUP4 DUP1 PUSH2 0x1482 JUMP JUMPDEST SWAP3 POP PUSH1 0xD DUP5 ADD PUSH1 0x0 MSTORE PUSH1 0x20 PUSH1 0x0 KECCAK256 SWAP1 PUSH1 0x0 SWAP4 JUMPDEST PUSH1 0x1F NOT DUP5 AND DUP6 LT PUSH2 0x1EF3 JUMPI PUSH1 0x1 SWAP5 POP DUP4 PUSH1 0x1F NOT DUP2 AND LT PUSH2 0x1EDA JUMPI JUMPDEST POP POP POP DUP2 SHL ADD PUSH1 0xD DUP3 ADD SSTORE PUSH2 0x149A JUMP JUMPDEST ADD MLOAD PUSH1 0x0 NOT PUSH1 0xF8 DUP5 PUSH1 0x3 SHL AND SHR NOT AND SWAP1 SSTORE DUP4 DUP1 DUP1 PUSH2 0x1ECA JUMP JUMPDEST DUP2 DUP2 ADD MLOAD DUP4 SSTORE PUSH1 0x20 SWAP5 DUP6 ADD SWAP5 PUSH1 0x1 SWAP1 SWAP4 ADD SWAP3 SWAP1 SWAP2 ADD SWAP1 PUSH2 0x1EAF JUMP JUMPDEST ADD MLOAD SWAP1 POP DUP4 DUP1 PUSH2 0x141E JUMP JUMPDEST SWAP3 POP PUSH1 0xC DUP5 ADD PUSH1 0x0 MSTORE PUSH1 0x20 PUSH1 0x0 KECCAK256 SWAP1 PUSH1 0x0 SWAP4 JUMPDEST PUSH1 0x1F NOT DUP5 AND DUP6 LT PUSH2 0x1F70 JUMPI PUSH1 0x1 SWAP5 POP DUP4 PUSH1 0x1F NOT DUP2 AND LT PUSH2 0x1F57 JUMPI JUMPDEST POP POP POP DUP2 SHL ADD PUSH1 0xC DUP3 ADD SSTORE PUSH2 0x1436 JUMP JUMPDEST ADD MLOAD PUSH1 0x0 NOT PUSH1 0xF8 DUP5 PUSH1 0x3 SHL AND SHR NOT AND SWAP1 SSTORE DUP4 DUP1 DUP1 PUSH2 0x1F47 JUMP JUMPDEST DUP2 DUP2 ADD MLOAD DUP4 SSTORE PUSH1 0x20 SWAP5 DUP6 ADD SWAP5 PUSH1 0x1 SWAP1 SWAP4 ADD SWAP3 SWAP1 SWAP2 ADD SWAP1 PUSH2 0x1F2C JUMP JUMPDEST ADD MLOAD SWAP1 POP DUP4 DUP1 PUSH2 0x13BA JUMP JUMPDEST SWAP3 POP PUSH1 0xB DUP5 ADD PUSH1 0x0 MSTORE PUSH1 0x20 PUSH1 0x0 KECCAK256 SWAP1 PUSH1 0x0 SWAP4 JUMPDEST PUSH1 0x1F NOT DUP5 AND DUP6 LT PUSH2 0x1FED JUMPI PUSH1 0x1 SWAP5 POP DUP4 PUSH1 0x1F NOT DUP2 AND LT PUSH2 0x1FD4 JUMPI JUMPDEST POP POP POP DUP2 SHL ADD PUSH1 0xB DUP3 ADD SSTORE PUSH2 0x13D2 JUMP JUMPDEST ADD MLOAD PUSH1 0x0 NOT PUSH1 0xF8 DUP5 PUSH1 0x3 SHL AND SHR NOT AND SWAP1 SSTORE DUP4 DUP1 DUP1 PUSH2 0x1FC4 JUMP JUMPDEST DUP2 DUP2 ADD MLOAD DUP4 SSTORE PUSH1 0x20 SWAP5 DUP6 ADD SWAP5 PUSH1 0x1 SWAP1 SWAP4 ADD SWAP3 SWAP1 SWAP2 ADD SWAP1 PUSH2 0x1FA9 JUMP JUMPDEST ADD MLOAD SWAP1 POP DUP4 DUP1 PUSH2 0x1356 JUMP JUMPDEST SWAP3 POP PUSH1 0xA DUP5 ADD PUSH1 0x0 MSTORE PUSH1 0x20 PUSH1 0x0 KECCAK256 SWAP1 PUSH1 0x0 SWAP4 JUMPDEST PUSH1 0x1F NOT DUP5 AND DUP6 LT PUSH2 0x206A JUMPI PUSH1 0x1 SWAP5 POP DUP4 PUSH1 0x1F NOT DUP2 AND LT PUSH2 0x2051 JUMPI JUMPDEST POP POP POP DUP2 SHL ADD PUSH1 0xA DUP3 ADD SSTORE PUSH2 0x136E JUMP JUMPDEST ADD MLOAD PUSH1 0x0 NOT PUSH1 0xF8 DUP5 PUSH1 0x3 SHL AND SHR NOT AND SWAP1 SSTORE DUP4 DUP1 DUP1 PUSH2 0x2041 JUMP JUMPDEST DUP2 DUP2 ADD MLOAD DUP4 SSTORE PUSH1 0x20 SWAP5 DUP6 ADD SWAP5 PUSH1 0x1 SWAP1 SWAP4 ADD SWAP3 SWAP1 SWAP2 ADD SWAP1 PUSH2 0x2026 JUMP JUMPDEST ADD MLOAD SWAP1 POP DUP4 DUP1 PUSH2 0x12F2 JUMP JUMPDEST SWAP3 POP PUSH1 0x9 DUP5 ADD PUSH1 0x0 MSTORE PUSH1 0x20 PUSH1 0x0 KECCAK256 SWAP1 PUSH1 0x0 SWAP4 JUMPDEST PUSH1 0x1F NOT DUP5 AND DUP6 LT PUSH2 0x20E7 JUMPI PUSH1 0x1 SWAP5 POP DUP4 PUSH1 0x1F NOT DUP2 AND LT PUSH2 0x20CE JUMPI JUMPDEST POP POP POP DUP2 SHL ADD PUSH1 0x9 DUP3 ADD SSTORE PUSH2 0x130A JUMP JUMPDEST ADD MLOAD PUSH1 0x0 NOT PUSH1 0xF8 DUP5 PUSH1 0x3 SHL AND SHR NOT AND SWAP1 SSTORE DUP4 DUP1 DUP1 PUSH2 0x20BE JUMP JUMPDEST DUP2 DUP2 ADD MLOAD DUP4 SSTORE PUSH1 0x20 SWAP5 DUP6 ADD SWAP5 PUSH1 0x1 SWAP1 SWAP4 ADD SWAP3 SWAP1 SWAP2 ADD SWAP1 PUSH2 0x20A3 JUMP JUMPDEST ADD MLOAD SWAP1 POP DUP4 DUP1 PUSH2 0x128E JUMP JUMPDEST SWAP3 POP PUSH1 0x8 DUP5 ADD PUSH1 0x0 MSTORE PUSH1 0x20 PUSH1 0x0 KECCAK256 SWAP1 PUSH1 0x0 SWAP4 JUMPDEST PUSH1 0x1F NOT DUP5 AND DUP6 LT PUSH2 0x2164 JUMPI PUSH1 0x1 SWAP5 POP DUP4 PUSH1 0x1F NOT DUP2 AND LT PUSH2 0x214B JUMPI JUMPDEST POP POP POP DUP2 SHL ADD PUSH1 0x8 DUP3 ADD SSTORE PUSH2 0x12A6 JUMP JUMPDEST ADD MLOAD PUSH1 0x0 NOT PUSH1 0xF8 DUP5 PUSH1 0x3 SHL AND SHR NOT AND SWAP1 SSTORE DUP4 DUP1 DUP1 PUSH2 0x213B JUMP JUMPDEST DUP2 DUP2 ADD MLOAD DUP4 SSTORE PUSH1 0x20 SWAP5 DUP6 ADD SWAP5 PUSH1 0x1 SWAP1 SWAP4 ADD SWAP3 SWAP1 SWAP2 ADD SWAP1 PUSH2 0x2120 JUMP JUMPDEST ADD MLOAD SWAP1 POP DUP4 DUP1 PUSH2 0x122A JUMP JUMPDEST SWAP3 POP PUSH1 0x7 DUP5 ADD PUSH1 0x0 MSTORE PUSH1 0x20 PUSH1 0x0 KECCAK256 SWAP1 PUSH1 0x0 SWAP4 JUMPDEST PUSH1 0x1F NOT DUP5 AND DUP6 LT PUSH2 0x21E1 JUMPI PUSH1 0x1 SWAP5 POP DUP4 PUSH1 0x1F NOT DUP2 AND LT PUSH2 0x21C8 JUMPI JUMPDEST POP POP POP DUP2 SHL ADD PUSH1 0x7 DUP3 ADD SSTORE PUSH2 0x1242 JUMP JUMPDEST ADD MLOAD PUSH1 0x0 NOT PUSH1 0xF8 DUP5 PUSH1 0x3 SHL AND SHR NOT AND SWAP1 SSTORE DUP4 DUP1 DUP1 PUSH2 0x21B8 JUMP JUMPDEST DUP2 DUP2 ADD MLOAD DUP4 SSTORE PUSH1 0x20 SWAP5 DUP6 ADD SWAP5 PUSH1 0x1 SWAP1 SWAP4 ADD SWAP3 SWAP1 SWAP2 ADD SWAP1 PUSH2 0x219D JUMP JUMPDEST ADD MLOAD SWAP1 POP DUP4 DUP1 PUSH2 0x11C7 JUMP JUMPDEST SWAP3 POP PUSH1 0x6 DUP5 ADD PUSH1 0x0 MSTORE PUSH1 0x20 PUSH1 0x0 KECCAK256 SWAP1 PUSH1 0x0 SWAP4 JUMPDEST PUSH1 0x1F NOT DUP5 AND DUP6 LT PUSH2 0x225E JUMPI PUSH1 0x1 SWAP5 POP DUP4 PUSH1 0x1F NOT DUP2 AND LT PUSH2 0x2245 JUMPI JUMPDEST POP POP POP DUP2 SHL ADD PUSH1 0x6 DUP3 ADD SSTORE PUSH2 0x11DF JUMP JUMPDEST ADD MLOAD PUSH1 0x0 NOT PUSH1 0xF8 DUP5 PUSH1 0x3 SHL AND SHR NOT AND SWAP1 SSTORE DUP4 DUP1 DUP1 PUSH2 0x2235 JUMP JUMPDEST DUP2 DUP2 ADD MLOAD DUP4 SSTORE PUSH1 0x20 SWAP5 DUP6 ADD SWAP5 PUSH1 0x1 SWAP1 SWAP4 ADD SWAP3 SWAP1 SWAP2 ADD SWAP1 PUSH2 0x221A JUMP JUMPDEST ADD MLOAD SWAP1 POP DUP4 DUP1 PUSH2 0x1164 JUMP JUMPDEST SWAP3 POP PUSH1 0x5 DUP5 ADD PUSH1 0x0 MSTORE PUSH1 0x20 PUSH1 0x0 KECCAK256 SWAP1 PUSH1 0x0 SWAP4 JUMPDEST PUSH1 0x1F NOT DUP5 AND DUP6 LT PUSH2 0x22DB JUMPI PUSH1 0x1 SWAP5 POP DUP4 PUSH1 0x1F NOT DUP2 AND LT PUSH2 0x22C2 JUMPI JUMPDEST POP POP POP DUP2 SHL ADD PUSH1 0x5 DUP3 ADD SSTORE PUSH2 0x117C JUMP JUMPDEST ADD MLOAD PUSH1 0x0 NOT PUSH1 0xF8 DUP5 PUSH1 0x3 SHL AND SHR NOT AND SWAP1 SSTORE DUP4 DUP1 DUP1 PUSH2 0x22B2 JUMP JUMPDEST DUP2 DUP2 ADD MLOAD DUP4 SSTORE PUSH1 0x20 SWAP5 DUP6 ADD SWAP5 PUSH1 0x1 SWAP1 SWAP4 ADD SWAP3 SWAP1 SWAP2 ADD SWAP1 PUSH2 0x2297 JUMP JUMPDEST ADD MLOAD SWAP1 POP DUP4 DUP1 PUSH2 0x1101 JUMP JUMPDEST SWAP3 POP PUSH1 0x4 DUP5 ADD PUSH1 0x0 MSTORE PUSH1 0x20 PUSH1 0x0 KECCAK256 SWAP1 PUSH1 0x0 SWAP4 JUMPDEST PUSH1 0x1F NOT DUP5 AND DUP6 LT PUSH2 0x2358 JUMPI PUSH1 0x1 SWAP5 POP DUP4 PUSH1 0x1F NOT DUP2 AND LT PUSH2 0x233F JUMPI JUMPDEST POP POP POP DUP2 SHL ADD PUSH1 0x4 DUP3 ADD SSTORE PUSH2 0x1119 JUMP JUMPDEST ADD MLOAD PUSH1 0x0 NOT PUSH1 0xF8 DUP5 PUSH1 0x3 SHL AND SHR NOT AND SWAP1 SSTORE DUP4 DUP1 DUP1 PUSH2 0x232F JUMP JUMPDEST DUP2 DUP2 ADD MLOAD DUP4 SSTORE PUSH1 0x20 SWAP5 DUP6 ADD SWAP5 PUSH1 0x1 SWAP1 SWAP4 ADD SWAP3 SWAP1 SWAP2 ADD SWAP1 PUSH2 0x2314 JUMP JUMPDEST ADD MLOAD SWAP1 POP DUP4 DUP1 PUSH2 0x109E JUMP JUMPDEST SWAP3 POP PUSH1 0x3 DUP5 ADD PUSH1 0x0 MSTORE PUSH1 0x20 PUSH1 0x0 KECCAK256 SWAP1 PUSH1 0x0 SWAP4 JUMPDEST PUSH1 0x1F NOT DUP5 AND DUP6 LT PUSH2 0x23D5 JUMPI PUSH1 0x1 SWAP5 POP DUP4 PUSH1 0x1F NOT DUP2 AND LT PUSH2 0x23BC JUMPI JUMPDEST POP POP POP DUP2 SHL ADD PUSH1 0x3 DUP3 ADD SSTORE PUSH2 0x10B6 JUMP JUMPDEST ADD MLOAD PUSH1 0x0 NOT PUSH1 0xF8 DUP5 PUSH1 0x3 SHL AND SHR NOT AND SWAP1 SSTORE DUP4 DUP1 DUP1 PUSH2 0x23AC JUMP JUMPDEST DUP2 DUP2 ADD MLOAD DUP4 SSTORE PUSH1 0x20 SWAP5 DUP6 ADD SWAP5 PUSH1 0x1 SWAP1 SWAP4 ADD SWAP3 SWAP1 SWAP2 ADD SWAP1 PUSH2 0x2391 JUMP JUMPDEST ADD MLOAD SWAP1 POP DUP4 DUP1 PUSH2 0x103B JUMP JUMPDEST SWAP3 POP PUSH1 0x2 DUP5 ADD PUSH1 0x0 MSTORE PUSH1 0x20 PUSH1 0x0 KECCAK256 SWAP1 PUSH1 0x0 SWAP4 JUMPDEST PUSH1 0x1F NOT DUP5 AND DUP6 LT PUSH2 0x2452 JUMPI PUSH1 0x1 SWAP5 POP DUP4 PUSH1 0x1F NOT DUP2 AND LT PUSH2 0x2439 JUMPI JUMPDEST POP POP POP DUP2 SHL ADD PUSH1 0x2 DUP3 ADD SSTORE PUSH2 0x1053 JUMP JUMPDEST ADD MLOAD PUSH1 0x0 NOT PUSH1 0xF8 DUP5 PUSH1 0x3 SHL AND SHR NOT AND SWAP1 SSTORE DUP4 DUP1 DUP1 PUSH2 0x2429 JUMP JUMPDEST DUP2 DUP2 ADD MLOAD DUP4 SSTORE PUSH1 0x20 SWAP5 DUP6 ADD SWAP5 PUSH1 0x1 SWAP1 SWAP4 ADD SWAP3 SWAP1 SWAP2 ADD SWAP1 PUSH2 0x240E JUMP JUMPDEST ADD MLOAD SWAP1 POP DUP4 DUP1 PUSH2 0xFD8 JUMP JUMPDEST SWAP3 POP PUSH1 0x1 DUP5 ADD PUSH1 0x0 MSTORE PUSH1 0x20 PUSH1 0x0 KECCAK256 SWAP1 PUSH1 0x0 SWAP4 JUMPDEST PUSH1 0x1F NOT DUP5 AND DUP6 LT PUSH2 0x24CF JUMPI PUSH1 0x1 SWAP5 POP DUP4 PUSH1 0x1F NOT DUP2 AND LT PUSH2 0x24B6 JUMPI JUMPDEST POP POP POP DUP2 SHL ADD PUSH1 0x1 DUP3 ADD SSTORE PUSH2 0xFF0 JUMP JUMPDEST ADD MLOAD PUSH1 0x0 NOT PUSH1 0xF8 DUP5 PUSH1 0x3 SHL AND SHR NOT AND SWAP1 SSTORE DUP4 DUP1 DUP1 PUSH2 0x24A6 JUMP JUMPDEST DUP2 DUP2 ADD MLOAD DUP4 SSTORE PUSH1 0x20 SWAP5 DUP6 ADD SWAP5 PUSH1 0x1 SWAP1 SWAP4 ADD SWAP3 SWAP1 SWAP2 ADD SWAP1 PUSH2 0x248B JUMP JUMPDEST ADD MLOAD SWAP1 POP DUP4 DUP1 PUSH2 0xF78 JUMP JUMPDEST SWAP3 POP DUP4 PUSH1 0x0 MSTORE PUSH1 0x20 PUSH1 0x0 KECCAK256 SWAP1 PUSH1 0x0 SWAP4 JUMPDEST PUSH1 0x1F NOT DUP5 AND DUP6 LT PUSH2 0x2546 JUMPI PUSH1 0x1 SWAP5 POP DUP4 PUSH1 0x1F NOT DUP2 AND LT PUSH2 0x252D JUMPI JUMPDEST POP POP POP DUP2 SHL ADD DUP2 SSTORE PUSH2 0xF8D JUMP JUMPDEST ADD MLOAD PUSH1 0x0 NOT PUSH1 0xF8 DUP5 PUSH1 0x3 SHL AND SHR NOT AND SWAP1 SSTORE DUP4 DUP1 DUP1 PUSH2 0x2520 JUMP JUMPDEST DUP2 DUP2 ADD MLOAD DUP4 SSTORE PUSH1 0x20 SWAP5 DUP6 ADD SWAP5 PUSH1 0x1 SWAP1 SWAP4 ADD SWAP3 SWAP1 SWAP2 ADD SWAP1 PUSH2 0x2505 JUMP JUMPDEST PUSH1 0x40 MLOAD PUSH3 0x461BCD PUSH1 0xE5 SHL DUP2 MSTORE PUSH1 0x20 PUSH1 0x4 DUP3 ADD MSTORE PUSH1 0xB PUSH1 0x24 DUP3 ADD MSTORE PUSH11 0x139BDD081CDD195DD85C99 PUSH1 0xAA SHL PUSH1 0x44 DUP3 ADD MSTORE PUSH1 0x64 SWAP1 REVERT JUMPDEST CALLVALUE PUSH2 0x436 JUMPI PUSH1 0x20 CALLDATASIZE PUSH1 0x3 NOT ADD SLT PUSH2 0x436 JUMPI PUSH1 0x4 CALLDATALOAD PUSH1 0x2 SLOAD DUP2 LT ISZERO PUSH2 0x436 JUMPI PUSH2 0x25BB SWAP1 PUSH2 0x25DF JUMP JUMPDEST PUSH2 0x1B12 JUMPI PUSH2 0x25CB PUSH2 0x92D SWAP2 PUSH2 0x26A3 JUMP JUMPDEST PUSH1 0x40 MLOAD SWAP2 DUP3 SWAP2 PUSH1 0x20 DUP4 MSTORE PUSH1 0x20 DUP4 ADD SWAP1 PUSH2 0x276C JUMP JUMPDEST PUSH1 0x2 SLOAD DUP2 LT ISZERO PUSH2 0x2616 JUMPI PUSH1 0x2 PUSH1 0x0 MSTORE PUSH32 0x405787FA12A823E0F2B7631CC41B3BA8828B3321CA811111FA75CD3AA3BB5ACE ADD SWAP1 PUSH1 0x0 SWAP1 JUMP JUMPDEST PUSH4 0x4E487B71 PUSH1 0xE0 SHL PUSH1 0x0 MSTORE PUSH1 0x32 PUSH1 0x4 MSTORE PUSH1 0x24 PUSH1 0x0 REVERT JUMPDEST SWAP1 PUSH1 0x1 DUP3 DUP2 SHR SWAP3 AND DUP1 ISZERO PUSH2 0x265C JUMPI JUMPDEST PUSH1 0x20 DUP4 LT EQ PUSH2 0x2646 JUMPI JUMP JUMPDEST PUSH4 0x4E487B71 PUSH1 0xE0 SHL PUSH1 0x0 MSTORE PUSH1 0x22 PUSH1 0x4 MSTORE PUSH1 0x24 PUSH1 0x0 REVERT JUMPDEST SWAP2 PUSH1 0x7F AND SWAP2 PUSH2 0x263B JUMP JUMPDEST PUSH2 0x2A0 DUP2 ADD SWAP1 DUP2 LT PUSH1 0x1 PUSH1 0x1 PUSH1 0x40 SHL SUB DUP3 GT OR PUSH2 0x1AFC JUMPI PUSH1 0x40 MSTORE JUMP JUMPDEST SWAP1 PUSH1 0x1F DUP1 NOT SWAP2 ADD AND DUP2 ADD SWAP1 DUP2 LT PUSH1 0x1 PUSH1 0x1 PUSH1 0x40 SHL SUB DUP3 GT OR PUSH2 0x1AFC JUMPI PUSH1 0x40 MSTORE JUMP JUMPDEST SWAP1 PUSH1 0x40 MLOAD SWAP2 DUP3 PUSH1 0x0 DUP3 SLOAD SWAP3 PUSH2 0x26B7 DUP5 PUSH2 0x262C JUMP JUMPDEST SWAP1 DUP2 DUP5 MSTORE PUSH1 0x1 SWAP5 DUP6 DUP2 AND SWAP1 DUP2 PUSH1 0x0 EQ PUSH2 0x2726 JUMPI POP PUSH1 0x1 EQ PUSH2 0x26E3 JUMPI JUMPDEST POP POP PUSH2 0x26E1 SWAP3 POP SUB DUP4 PUSH2 0x2682 JUMP JUMPDEST JUMP JUMPDEST SWAP1 SWAP4 SWAP2 POP PUSH1 0x0 MSTORE PUSH1 0x20 SWAP1 DUP2 PUSH1 0x0 KECCAK256 SWAP4 PUSH1 0x0 SWAP2 JUMPDEST DUP2 DUP4 LT PUSH2 0x270E JUMPI POP POP PUSH2 0x26E1 SWAP4 POP DUP3 ADD ADD CODESIZE DUP1 PUSH2 0x26D3 JUMP JUMPDEST DUP6 SLOAD DUP9 DUP5 ADD DUP6 ADD MSTORE SWAP5 DUP6 ADD SWAP5 DUP8 SWAP5 POP SWAP2 DUP4 ADD SWAP2 PUSH2 0x26F6 JUMP JUMPDEST SWAP2 POP POP PUSH2 0x26E1 SWAP5 POP PUSH1 0x20 SWAP3 POP PUSH1 0xFF NOT AND DUP3 DUP5 ADD MSTORE ISZERO ISZERO PUSH1 0x5 SHL DUP3 ADD ADD CODESIZE DUP1 PUSH2 0x26D3 JUMP JUMPDEST PUSH1 0x0 JUMPDEST DUP4 DUP2 LT PUSH2 0x275C JUMPI POP POP PUSH1 0x0 SWAP2 ADD MSTORE JUMP JUMPDEST DUP2 DUP2 ADD MLOAD DUP4 DUP3 ADD MSTORE PUSH1 0x20 ADD PUSH2 0x274C JUMP JUMPDEST SWAP1 PUSH1 0x20 SWAP2 PUSH2 0x2785 DUP2 MLOAD DUP1 SWAP3 DUP2 DUP6 MSTORE DUP6 DUP1 DUP7 ADD SWAP2 ADD PUSH2 0x2749 JUMP JUMPDEST PUSH1 0x1F ADD PUSH1 0x1F NOT AND ADD ADD SWAP1 JUMP JUMPDEST SWAP2 DUP2 PUSH1 0x1F DUP5 ADD SLT ISZERO PUSH2 0x436 JUMPI DUP3 CALLDATALOAD SWAP2 PUSH1 0x1 PUSH1 0x1 PUSH1 0x40 SHL SUB DUP4 GT PUSH2 0x436 JUMPI PUSH1 0x20 DUP4 DUP2 DUP7 ADD SWAP6 ADD ADD GT PUSH2 0x436 JUMPI JUMP JUMPDEST SWAP3 SWAP2 SWAP3 PUSH1 0x1 PUSH1 0x1 PUSH1 0x40 SHL SUB DUP3 GT PUSH2 0x1AFC JUMPI PUSH1 0x40 MLOAD SWAP2 PUSH2 0x27E7 PUSH1 0x1F DUP3 ADD PUSH1 0x1F NOT AND PUSH1 0x20 ADD DUP5 PUSH2 0x2682 JUMP JUMPDEST DUP3 SWAP5 DUP2 DUP5 MSTORE DUP2 DUP4 ADD GT PUSH2 0x436 JUMPI DUP3 DUP2 PUSH1 0x20 SWAP4 DUP5 PUSH1 0x0 SWAP7 ADD CALLDATACOPY ADD ADD MSTORE JUMP JUMPDEST SWAP1 PUSH1 0x1F DUP2 GT PUSH2 0x2812 JUMPI POP POP POP JUMP JUMPDEST PUSH1 0x0 SWAP2 DUP3 MSTORE PUSH1 0x20 DUP3 KECCAK256 SWAP1 PUSH1 0x20 PUSH1 0x1F DUP6 ADD PUSH1 0x5 SHR DUP4 ADD SWAP5 LT PUSH2 0x284E JUMPI JUMPDEST PUSH1 0x1F ADD PUSH1 0x5 SHR ADD SWAP2 JUMPDEST DUP3 DUP2 LT PUSH2 0x2843 JUMPI POP POP POP JUMP JUMPDEST DUP2 DUP2 SSTORE PUSH1 0x1 ADD PUSH2 0x2837 JUMP JUMPDEST SWAP1 SWAP3 POP DUP3 SWAP1 PUSH2 0x282E JUMP JUMPDEST SWAP1 DUP1 PUSH1 0x20 SWAP4 SWAP3 DUP2 DUP5 MSTORE DUP5 DUP5 ADD CALLDATACOPY PUSH1 0x0 DUP3 DUP3 ADD DUP5 ADD MSTORE PUSH1 0x1F ADD PUSH1 0x1F NOT AND ADD ADD SWAP1 JUMP INVALID LOG2 PUSH5 0x6970667358 0x22 SLT KECCAK256 PUSH3 0x937A8F GASPRICE AND 0xBF 0x4E DELEGATECALL DUP5 0xEA CODESIZE JUMPDEST 0x25 0xC4 0xD1 BYTE JUMPDEST PUSH28 0x65CCDEBA558856FC951FB604FB64736F6C6343000814003300000000 "},"methodIdentifiers":{"codices(string)":"dbc21424","getCodex(string)":"83361522","inscribeCodex(string,string,string,string,string,string,string,string,string,string,string,string,string,string,string,string,string,string,string,string,string,string)":"21e74fb7","keys(uint256)":"0cb6aaf1","steward()":"637eea19","totalCodices()":"c212d16b"}}}}}