{"contracts/registry/ApprenticeSummonerV5.sol":{"ApprenticeSummonerV5":{"abi":[{"inputs":[],"stateMutability":"nonpayable","type":"constructor"},{"anonymous":false,"inputs":[{"indexed":true,"internalType":"address","name":"apprentice","type":"address"},{"indexed":false,"internalType":"string","name":"name","type":"string"},{"indexed":false,"internalType":"string","name":"signal","type":"string"},{"indexed":false,"internalType":"string","name":"drift","type":"string"},{"indexed":false,"internalType":"string","name":"pulse","type":"string"},{"indexed":false,"internalType":"string","name":"codexRef","type":"string"},{"indexed":false,"internalType":"string","name":"resonance","type":"string"},{"indexed":false,"internalType":"string","name":"signature","type":"string"},{"indexed":false,"internalType":"string","name":"sanctum","type":"string"}],"name":"ApprenticeSummoned","type":"event"},{"inputs":[{"internalType":"uint256","name":"","type":"uint256"}],"name":"apprentices","outputs":[{"internalType":"address","name":"","type":"address"}],"stateMutability":"view","type":"function"},{"inputs":[{"internalType":"address","name":"apprentice","type":"address"}],"name":"getSummons","outputs":[{"internalType":"string","name":"","type":"string"},{"internalType":"string","name":"","type":"string"},{"internalType":"string","name":"","type":"string"},{"internalType":"string","name":"","type":"string"},{"internalType":"string","name":"","type":"string"},{"internalType":"string","name":"","type":"string"},{"internalType":"string","name":"","type":"string"},{"internalType":"string","name":"","type":"string"}],"stateMutability":"view","type":"function"},{"inputs":[],"name":"steward","outputs":[{"internalType":"address","name":"","type":"address"}],"stateMutability":"view","type":"function"},{"inputs":[{"internalType":"address","name":"apprentice","type":"address"},{"internalType":"string","name":"name","type":"string"},{"internalType":"string","name":"signal","type":"string"},{"internalType":"string","name":"drift","type":"string"},{"internalType":"string","name":"pulse","type":"string"},{"internalType":"string","name":"codexRef","type":"string"},{"internalType":"string","name":"resonance","type":"string"},{"internalType":"string","name":"signature","type":"string"},{"internalType":"string","name":"sanctum","type":"string"}],"name":"summonApprentice","outputs":[],"stateMutability":"nonpayable","type":"function"},{"inputs":[{"internalType":"address","name":"","type":"address"}],"name":"summons","outputs":[{"internalType":"string","name":"name","type":"string"},{"internalType":"string","name":"signal","type":"string"},{"internalType":"string","name":"drift","type":"string"},{"internalType":"string","name":"pulse","type":"string"},{"internalType":"string","name":"codexRef","type":"string"},{"internalType":"string","name":"resonance","type":"string"},{"internalType":"string","name":"signature","type":"string"},{"internalType":"string","name":"sanctum","type":"string"}],"stateMutability":"view","type":"function"},{"inputs":[],"name":"totalSummons","outputs":[{"internalType":"uint256","name":"","type":"uint256"}],"stateMutability":"view","type":"function"}],"evm":{"bytecode":{"linkReferences":{},"object":"6080806040523461002857600080546001600160a01b03191633179055611270908161002e8239f35b600080fdfe61014080604052600436101561001457600080fd5b60003560e01c9081632a17d4cd14610f36575080635a2ed66214610e97578063637eea1914610e6e578063836b221414610199578063cf84c603146100a95763f31bee3e1461006257600080fd5b346100a45760203660031901126100a4576004356002548110156100a45761008b602091611186565b905460405160039290921b1c6001600160a01b03168152f35b600080fd5b346100a45760203660031901126100a4576001600160a01b036100ca610f51565b16600052600160205260406000206040516100e481610fa1565b6100ed82610fde565b81526101956100fe60018401610fde565b916020810192835261011260028501610fde565b936040820194855261012660038201610fde565b906060830191825261013a60048201610fde565b6080840190815261014d60058301610fde565b9060a08501918252610174600761016660068601610fde565b9460c0880195865201610fde565b948560e08201525196519751935190519151925193604051988998896110c4565b0390f35b346100a4576101203660031901126100a4576101b3610f51565b6024356001600160401b0381116100a4576101d2903690600401611159565b9060a0526044356001600160401b0381116100a4576101f5903690600401611159565b610100526064356001600160401b0381116100a457610218903690600401611159565b6084929192356001600160401b0381116100a45761023a903690600401611159565b91909260a4356001600160401b0381116100a45761025c903690600401611159565b9160c4356001600160401b0381116100a45761027c903690600401611159565b92909360e4356001600160401b0381116100a45761029e903690600401611159565b9790986001600160401b0361010435116100a4576102c23661010435600401611159565b60e052610120526000546001600160a01b03163303610e3b576102ea60405180608052610fa1565b6102f7368d60a0516111d3565b608051526103093661010051876111d3565b6020608051015261031b36898d6111d3565b6040608051015261032d3683836111d3565b6060608051015261033f3684866111d3565b6080805101526103503687896111d3565b60a06080510152610362368a8c6111d3565b60c060805101526103793660e051610120516111d3565b60e0608051015260018060a01b038d1660005260016020526040600020608051518051906001600160401b0382116107be5781906103b78454610f67565b601f8111610deb575b50602090601f8311600114610d7f57600092610d74575b50508160011b916000199060031b1c19161781555b602060805101518051906001600160401b0382116107be5781906104136001850154610f67565b601f8111610d21575b50602090601f8311600114610caf57600092610ca4575b50508160011b916000199060031b1c19161760018201555b604060805101518051906001600160401b0382116107be5781906104726002850154610f67565b601f8111610c51575b50602090601f8311600114610bdf57600092610bd4575b50508160011b916000199060031b1c19161760028201555b606060805101518051906001600160401b0382116107be5781906104d16003850154610f67565b601f8111610b81575b50602090601f8311600114610b0f57600092610b04575b50508160011b916000199060031b1c19161760038201555b6080805101518051906001600160401b0382116107be57819061052f6004850154610f67565b601f8111610ab1575b50602090601f8311600114610a3f57600092610a34575b50508160011b916000199060031b1c19161760048201555b60a060805101518051906001600160401b0382116107be57819061058e6005850154610f67565b601f81116109e1575b50602090601f831160011461096f57600092610964575b50508160011b916000199060031b1c19161760058201555b60c060805101518051906001600160401b0382116107be5781906105ed6006850154610f67565b601f8111610911575b50602090601f831160011461089f57600092610894575b50508160011b916000199060031b1c19161760068201555b60e060805101518051906001600160401b0382116107be5761064a6007840154610f67565b601f811161084d575b50602090601f83116001146107df5760079291600091836107d4575b50508160011b916000199060031b1c1916179101555b60025491680100000000000000008310156107be5761074b61078f9c8f9a7f49831efd510efa68de02294a5f78a0edb986f55373a944748a0bdb6eafba54e39f61076d9961072461073a9261077e9f6106e78b600161075c9d01600255611186565b819291549060031b9160018060a01b0316821b9160018060a01b03901b19161790556101006040518060c0525261010060c051019060a051611219565b9060c05160208184039101526101005190611219565b9160c0516040818503910152611219565b9160c0516060818503910152611219565b9160c0516080818503910152611219565b9160c05160a0818503910152611219565b9160c05160c0818503910152611219565b9160c05160e081850391015260018060a01b0316916107b760c0519160e05161012051611219565b0360c051a2005b634e487b7160e01b600052604160045260246000fd5b01519050388061066f565b90601f198316916007850160005260206000209260005b8181106108355750916001939185600796941061081c575b505050811b01910155610685565b015160001960f88460031b161c1916905538808061080e565b929360206001819287860151815501950193016107f6565b600784016000526020600020601f840160051c81016020851061088d575b601f830160051c82018110610881575050610653565b6000815560010161086b565b508061086b565b01519050388061060d565b9250600684016000526020600020906000935b601f19841685106108f6576001945083601f198116106108dd575b505050811b016006820155610625565b015160001960f88460031b161c191690553880806108cd565b818101518355602094850194600190930192909101906108b2565b909150600684016000526020600020601f840160051c81016020851061095d575b90849392915b601f830160051c8201811061094e5750506105f6565b60008155859450600101610938565b5080610932565b0151905038806105ae565b9250600584016000526020600020906000935b601f19841685106109c6576001945083601f198116106109ad575b505050811b0160058201556105c6565b015160001960f88460031b161c1916905538808061099d565b81810151835560209485019460019093019290910190610982565b909150600584016000526020600020601f840160051c810160208510610a2d575b90849392915b601f830160051c82018110610a1e575050610597565b60008155859450600101610a08565b5080610a02565b01519050388061054f565b9250600484016000526020600020906000935b601f1984168510610a96576001945083601f19811610610a7d575b505050811b016004820155610567565b015160001960f88460031b161c19169055388080610a6d565b81810151835560209485019460019093019290910190610a52565b909150600484016000526020600020601f840160051c810160208510610afd575b90849392915b601f830160051c82018110610aee575050610538565b60008155859450600101610ad8565b5080610ad2565b0151905038806104f1565b9250600384016000526020600020906000935b601f1984168510610b66576001945083601f19811610610b4d575b505050811b016003820155610509565b015160001960f88460031b161c19169055388080610b3d565b81810151835560209485019460019093019290910190610b22565b909150600384016000526020600020601f840160051c810160208510610bcd575b90849392915b601f830160051c82018110610bbe5750506104da565b60008155859450600101610ba8565b5080610ba2565b015190503880610492565b9250600284016000526020600020906000935b601f1984168510610c36576001945083601f19811610610c1d575b505050811b0160028201556104aa565b015160001960f88460031b161c19169055388080610c0d565b81810151835560209485019460019093019290910190610bf2565b909150600284016000526020600020601f840160051c810160208510610c9d575b90849392915b601f830160051c82018110610c8e57505061047b565b60008155859450600101610c78565b5080610c72565b015190503880610433565b9250600184016000526020600020906000935b601f1984168510610d06576001945083601f19811610610ced575b505050811b01600182015561044b565b015160001960f88460031b161c19169055388080610cdd565b81810151835560209485019460019093019290910190610cc2565b909150600184016000526020600020601f840160051c810160208510610d6d575b90849392915b601f830160051c82018110610d5e57505061041c565b60008155859450600101610d48565b5080610d42565b0151905038806103d7565b9250836000526020600020906000935b601f1984168510610dd0576001945083601f19811610610db7575b505050811b0181556103ec565b015160001960f88460031b161c19169055388080610daa565b81810151835560209485019460019093019290910190610d8f565b909150836000526020600020601f840160051c810160208510610e34575b90849392915b601f830160051c82018110610e255750506103c0565b60008155859450600101610e0f565b5080610e09565b60405162461bcd60e51b815260206004820152600b60248201526a139bdd081cdd195dd85c9960aa1b6044820152606490fd5b346100a45760003660031901126100a4576000546040516001600160a01b039091168152602090f35b346100a45760203660031901126100a4576001600160a01b03610eb8610f51565b1660005260016020526040600020610ecf81610fde565b610195610ede60018401610fde565b92610eeb60028201610fde565b90610ef860038201610fde565b610f0460048301610fde565b610f1060058401610fde565b91610f296007610f2260068701610fde565b9501610fde565b94604051988998896110c4565b346100a45760003660031901126100a4576020906002548152f35b600435906001600160a01b03821682036100a457565b90600182811c92168015610f97575b6020831014610f8157565b634e487b7160e01b600052602260045260246000fd5b91607f1691610f76565b61010081019081106001600160401b038211176107be57604052565b90601f801991011681019081106001600160401b038211176107be57604052565b9060405191826000825492610ff284610f67565b908184526001948581169081600014611061575060011461101e575b505061101c92500383610fbd565b565b9093915060005260209081600020936000915b81831061104957505061101c9350820101388061100e565b85548884018501529485019487945091830191611031565b91505061101c94506020925060ff191682840152151560051b820101388061100e565b919082519283825260005b8481106110b0575050826000602080949584010152601f8019910116010190565b60208183018101518483018201520161108f565b96939461111e6111489661111061113a966111028c6111569e9c986110f461112c99610100808552840190611084565b916020818403910152611084565b8c810360408e015290611084565b908a820360608c0152611084565b9088820360808a0152611084565b9086820360a0880152611084565b9084820360c0860152611084565b9160e0818403910152611084565b90565b9181601f840112156100a4578235916001600160401b0383116100a457602083818601950101116100a457565b6002548110156111bd5760026000527f405787fa12a823e0f2b7631cc41b3ba8828b3321ca811111fa75cd3aa3bb5ace0190600090565b634e487b7160e01b600052603260045260246000fd5b9291926001600160401b0382116107be57604051916111fc601f8201601f191660200184610fbd565b8294818452818301116100a4578281602093846000960137010152565b908060209392818452848401376000828201840152601f01601f191601019056fea2646970667358221220b9f1f158a3f3a8e258e59e3e27c8080b6ea6969aaa9c20efc2ae954552c1888864736f6c63430008140033","opcodes":"PUSH1 0x80 DUP1 PUSH1 0x40 MSTORE CALLVALUE PUSH2 0x28 JUMPI PUSH1 0x0 DUP1 SLOAD PUSH1 0x1 PUSH1 0x1 PUSH1 0xA0 SHL SUB NOT AND CALLER OR SWAP1 SSTORE PUSH2 0x1270 SWAP1 DUP2 PUSH2 0x2E DUP3 CODECOPY RETURN JUMPDEST PUSH1 0x0 DUP1 REVERT INVALID PUSH2 0x140 DUP1 PUSH1 0x40 MSTORE PUSH1 0x4 CALLDATASIZE LT ISZERO PUSH2 0x14 JUMPI PUSH1 0x0 DUP1 REVERT JUMPDEST PUSH1 0x0 CALLDATALOAD PUSH1 0xE0 SHR SWAP1 DUP2 PUSH4 0x2A17D4CD EQ PUSH2 0xF36 JUMPI POP DUP1 PUSH4 0x5A2ED662 EQ PUSH2 0xE97 JUMPI DUP1 PUSH4 0x637EEA19 EQ PUSH2 0xE6E JUMPI DUP1 PUSH4 0x836B2214 EQ PUSH2 0x199 JUMPI DUP1 PUSH4 0xCF84C603 EQ PUSH2 0xA9 JUMPI PUSH4 0xF31BEE3E EQ PUSH2 0x62 JUMPI PUSH1 0x0 DUP1 REVERT JUMPDEST CALLVALUE PUSH2 0xA4 JUMPI PUSH1 0x20 CALLDATASIZE PUSH1 0x3 NOT ADD SLT PUSH2 0xA4 JUMPI PUSH1 0x4 CALLDATALOAD PUSH1 0x2 SLOAD DUP2 LT ISZERO PUSH2 0xA4 JUMPI PUSH2 0x8B PUSH1 0x20 SWAP2 PUSH2 0x1186 JUMP JUMPDEST SWAP1 SLOAD PUSH1 0x40 MLOAD PUSH1 0x3 SWAP3 SWAP1 SWAP3 SHL SHR PUSH1 0x1 PUSH1 0x1 PUSH1 0xA0 SHL SUB AND DUP2 MSTORE RETURN JUMPDEST PUSH1 0x0 DUP1 REVERT JUMPDEST CALLVALUE PUSH2 0xA4 JUMPI PUSH1 0x20 CALLDATASIZE PUSH1 0x3 NOT ADD SLT PUSH2 0xA4 JUMPI PUSH1 0x1 PUSH1 0x1 PUSH1 0xA0 SHL SUB PUSH2 0xCA PUSH2 0xF51 JUMP JUMPDEST AND PUSH1 0x0 MSTORE PUSH1 0x1 PUSH1 0x20 MSTORE PUSH1 0x40 PUSH1 0x0 KECCAK256 PUSH1 0x40 MLOAD PUSH2 0xE4 DUP2 PUSH2 0xFA1 JUMP JUMPDEST PUSH2 0xED DUP3 PUSH2 0xFDE JUMP JUMPDEST DUP2 MSTORE PUSH2 0x195 PUSH2 0xFE PUSH1 0x1 DUP5 ADD PUSH2 0xFDE JUMP JUMPDEST SWAP2 PUSH1 0x20 DUP2 ADD SWAP3 DUP4 MSTORE PUSH2 0x112 PUSH1 0x2 DUP6 ADD PUSH2 0xFDE JUMP JUMPDEST SWAP4 PUSH1 0x40 DUP3 ADD SWAP5 DUP6 MSTORE PUSH2 0x126 PUSH1 0x3 DUP3 ADD PUSH2 0xFDE JUMP JUMPDEST SWAP1 PUSH1 0x60 DUP4 ADD SWAP2 DUP3 MSTORE PUSH2 0x13A PUSH1 0x4 DUP3 ADD PUSH2 0xFDE JUMP JUMPDEST PUSH1 0x80 DUP5 ADD SWAP1 DUP2 MSTORE PUSH2 0x14D PUSH1 0x5 DUP4 ADD PUSH2 0xFDE JUMP JUMPDEST SWAP1 PUSH1 0xA0 DUP6 ADD SWAP2 DUP3 MSTORE PUSH2 0x174 PUSH1 0x7 PUSH2 0x166 PUSH1 0x6 DUP7 ADD PUSH2 0xFDE JUMP JUMPDEST SWAP5 PUSH1 0xC0 DUP9 ADD SWAP6 DUP7 MSTORE ADD PUSH2 0xFDE JUMP JUMPDEST SWAP5 DUP6 PUSH1 0xE0 DUP3 ADD MSTORE MLOAD SWAP7 MLOAD SWAP8 MLOAD SWAP4 MLOAD SWAP1 MLOAD SWAP2 MLOAD SWAP3 MLOAD SWAP4 PUSH1 0x40 MLOAD SWAP9 DUP10 SWAP9 DUP10 PUSH2 0x10C4 JUMP JUMPDEST SUB SWAP1 RETURN JUMPDEST CALLVALUE PUSH2 0xA4 JUMPI PUSH2 0x120 CALLDATASIZE PUSH1 0x3 NOT ADD SLT PUSH2 0xA4 JUMPI PUSH2 0x1B3 PUSH2 0xF51 JUMP JUMPDEST PUSH1 0x24 CALLDATALOAD PUSH1 0x1 PUSH1 0x1 PUSH1 0x40 SHL SUB DUP2 GT PUSH2 0xA4 JUMPI PUSH2 0x1D2 SWAP1 CALLDATASIZE SWAP1 PUSH1 0x4 ADD PUSH2 0x1159 JUMP JUMPDEST SWAP1 PUSH1 0xA0 MSTORE PUSH1 0x44 CALLDATALOAD PUSH1 0x1 PUSH1 0x1 PUSH1 0x40 SHL SUB DUP2 GT PUSH2 0xA4 JUMPI PUSH2 0x1F5 SWAP1 CALLDATASIZE SWAP1 PUSH1 0x4 ADD PUSH2 0x1159 JUMP JUMPDEST PUSH2 0x100 MSTORE PUSH1 0x64 CALLDATALOAD PUSH1 0x1 PUSH1 0x1 PUSH1 0x40 SHL SUB DUP2 GT PUSH2 0xA4 JUMPI PUSH2 0x218 SWAP1 CALLDATASIZE SWAP1 PUSH1 0x4 ADD PUSH2 0x1159 JUMP JUMPDEST PUSH1 0x84 SWAP3 SWAP2 SWAP3 CALLDATALOAD PUSH1 0x1 PUSH1 0x1 PUSH1 0x40 SHL SUB DUP2 GT PUSH2 0xA4 JUMPI PUSH2 0x23A SWAP1 CALLDATASIZE SWAP1 PUSH1 0x4 ADD PUSH2 0x1159 JUMP JUMPDEST SWAP2 SWAP1 SWAP3 PUSH1 0xA4 CALLDATALOAD PUSH1 0x1 PUSH1 0x1 PUSH1 0x40 SHL SUB DUP2 GT PUSH2 0xA4 JUMPI PUSH2 0x25C SWAP1 CALLDATASIZE SWAP1 PUSH1 0x4 ADD PUSH2 0x1159 JUMP JUMPDEST SWAP2 PUSH1 0xC4 CALLDATALOAD PUSH1 0x1 PUSH1 0x1 PUSH1 0x40 SHL SUB DUP2 GT PUSH2 0xA4 JUMPI PUSH2 0x27C SWAP1 CALLDATASIZE SWAP1 PUSH1 0x4 ADD PUSH2 0x1159 JUMP JUMPDEST SWAP3 SWAP1 SWAP4 PUSH1 0xE4 CALLDATALOAD PUSH1 0x1 PUSH1 0x1 PUSH1 0x40 SHL SUB DUP2 GT PUSH2 0xA4 JUMPI PUSH2 0x29E SWAP1 CALLDATASIZE SWAP1 PUSH1 0x4 ADD PUSH2 0x1159 JUMP JUMPDEST SWAP8 SWAP1 SWAP9 PUSH1 0x1 PUSH1 0x1 PUSH1 0x40 SHL SUB PUSH2 0x104 CALLDATALOAD GT PUSH2 0xA4 JUMPI PUSH2 0x2C2 CALLDATASIZE PUSH2 0x104 CALLDATALOAD PUSH1 0x4 ADD PUSH2 0x1159 JUMP JUMPDEST PUSH1 0xE0 MSTORE PUSH2 0x120 MSTORE PUSH1 0x0 SLOAD PUSH1 0x1 PUSH1 0x1 PUSH1 0xA0 SHL SUB AND CALLER SUB PUSH2 0xE3B JUMPI PUSH2 0x2EA PUSH1 0x40 MLOAD DUP1 PUSH1 0x80 MSTORE PUSH2 0xFA1 JUMP JUMPDEST PUSH2 0x2F7 CALLDATASIZE DUP14 PUSH1 0xA0 MLOAD PUSH2 0x11D3 JUMP JUMPDEST PUSH1 0x80 MLOAD MSTORE PUSH2 0x309 CALLDATASIZE PUSH2 0x100 MLOAD DUP8 PUSH2 0x11D3 JUMP JUMPDEST PUSH1 0x20 PUSH1 0x80 MLOAD ADD MSTORE PUSH2 0x31B CALLDATASIZE DUP10 DUP14 PUSH2 0x11D3 JUMP JUMPDEST PUSH1 0x40 PUSH1 0x80 MLOAD ADD MSTORE PUSH2 0x32D CALLDATASIZE DUP4 DUP4 PUSH2 0x11D3 JUMP JUMPDEST PUSH1 0x60 PUSH1 0x80 MLOAD ADD MSTORE PUSH2 0x33F CALLDATASIZE DUP5 DUP7 PUSH2 0x11D3 JUMP JUMPDEST PUSH1 0x80 DUP1 MLOAD ADD MSTORE PUSH2 0x350 CALLDATASIZE DUP8 DUP10 PUSH2 0x11D3 JUMP JUMPDEST PUSH1 0xA0 PUSH1 0x80 MLOAD ADD MSTORE PUSH2 0x362 CALLDATASIZE DUP11 DUP13 PUSH2 0x11D3 JUMP JUMPDEST PUSH1 0xC0 PUSH1 0x80 MLOAD ADD MSTORE PUSH2 0x379 CALLDATASIZE PUSH1 0xE0 MLOAD PUSH2 0x120 MLOAD PUSH2 0x11D3 JUMP JUMPDEST PUSH1 0xE0 PUSH1 0x80 MLOAD ADD MSTORE PUSH1 0x1 DUP1 PUSH1 0xA0 SHL SUB DUP14 AND PUSH1 0x0 MSTORE PUSH1 0x1 PUSH1 0x20 MSTORE PUSH1 0x40 PUSH1 0x0 KECCAK256 PUSH1 0x80 MLOAD MLOAD DUP1 MLOAD SWAP1 PUSH1 0x1 PUSH1 0x1 PUSH1 0x40 SHL SUB DUP3 GT PUSH2 0x7BE JUMPI DUP2 SWAP1 PUSH2 0x3B7 DUP5 SLOAD PUSH2 0xF67 JUMP JUMPDEST PUSH1 0x1F DUP2 GT PUSH2 0xDEB JUMPI JUMPDEST POP PUSH1 0x20 SWAP1 PUSH1 0x1F DUP4 GT PUSH1 0x1 EQ PUSH2 0xD7F JUMPI PUSH1 0x0 SWAP3 PUSH2 0xD74 JUMPI JUMPDEST POP POP DUP2 PUSH1 0x1 SHL SWAP2 PUSH1 0x0 NOT SWAP1 PUSH1 0x3 SHL SHR NOT AND OR DUP2 SSTORE JUMPDEST PUSH1 0x20 PUSH1 0x80 MLOAD ADD MLOAD DUP1 MLOAD SWAP1 PUSH1 0x1 PUSH1 0x1 PUSH1 0x40 SHL SUB DUP3 GT PUSH2 0x7BE JUMPI DUP2 SWAP1 PUSH2 0x413 PUSH1 0x1 DUP6 ADD SLOAD PUSH2 0xF67 JUMP JUMPDEST PUSH1 0x1F DUP2 GT PUSH2 0xD21 JUMPI JUMPDEST POP PUSH1 0x20 SWAP1 PUSH1 0x1F DUP4 GT PUSH1 0x1 EQ PUSH2 0xCAF JUMPI PUSH1 0x0 SWAP3 PUSH2 0xCA4 JUMPI JUMPDEST POP POP DUP2 PUSH1 0x1 SHL SWAP2 PUSH1 0x0 NOT SWAP1 PUSH1 0x3 SHL SHR NOT AND OR PUSH1 0x1 DUP3 ADD SSTORE JUMPDEST PUSH1 0x40 PUSH1 0x80 MLOAD ADD MLOAD DUP1 MLOAD SWAP1 PUSH1 0x1 PUSH1 0x1 PUSH1 0x40 SHL SUB DUP3 GT PUSH2 0x7BE JUMPI DUP2 SWAP1 PUSH2 0x472 PUSH1 0x2 DUP6 ADD SLOAD PUSH2 0xF67 JUMP JUMPDEST PUSH1 0x1F DUP2 GT PUSH2 0xC51 JUMPI JUMPDEST POP PUSH1 0x20 SWAP1 PUSH1 0x1F DUP4 GT PUSH1 0x1 EQ PUSH2 0xBDF JUMPI PUSH1 0x0 SWAP3 PUSH2 0xBD4 JUMPI JUMPDEST POP POP DUP2 PUSH1 0x1 SHL SWAP2 PUSH1 0x0 NOT SWAP1 PUSH1 0x3 SHL SHR NOT AND OR PUSH1 0x2 DUP3 ADD SSTORE JUMPDEST PUSH1 0x60 PUSH1 0x80 MLOAD ADD MLOAD DUP1 MLOAD SWAP1 PUSH1 0x1 PUSH1 0x1 PUSH1 0x40 SHL SUB DUP3 GT PUSH2 0x7BE JUMPI DUP2 SWAP1 PUSH2 0x4D1 PUSH1 0x3 DUP6 ADD SLOAD PUSH2 0xF67 JUMP JUMPDEST PUSH1 0x1F DUP2 GT PUSH2 0xB81 JUMPI JUMPDEST POP PUSH1 0x20 SWAP1 PUSH1 0x1F DUP4 GT PUSH1 0x1 EQ PUSH2 0xB0F JUMPI PUSH1 0x0 SWAP3 PUSH2 0xB04 JUMPI JUMPDEST POP POP DUP2 PUSH1 0x1 SHL SWAP2 PUSH1 0x0 NOT SWAP1 PUSH1 0x3 SHL SHR NOT AND OR PUSH1 0x3 DUP3 ADD SSTORE JUMPDEST PUSH1 0x80 DUP1 MLOAD ADD MLOAD DUP1 MLOAD SWAP1 PUSH1 0x1 PUSH1 0x1 PUSH1 0x40 SHL SUB DUP3 GT PUSH2 0x7BE JUMPI DUP2 SWAP1 PUSH2 0x52F PUSH1 0x4 DUP6 ADD SLOAD PUSH2 0xF67 JUMP JUMPDEST PUSH1 0x1F DUP2 GT PUSH2 0xAB1 JUMPI JUMPDEST POP PUSH1 0x20 SWAP1 PUSH1 0x1F DUP4 GT PUSH1 0x1 EQ PUSH2 0xA3F JUMPI PUSH1 0x0 SWAP3 PUSH2 0xA34 JUMPI JUMPDEST POP POP DUP2 PUSH1 0x1 SHL SWAP2 PUSH1 0x0 NOT SWAP1 PUSH1 0x3 SHL SHR NOT AND OR PUSH1 0x4 DUP3 ADD SSTORE JUMPDEST PUSH1 0xA0 PUSH1 0x80 MLOAD ADD MLOAD DUP1 MLOAD SWAP1 PUSH1 0x1 PUSH1 0x1 PUSH1 0x40 SHL SUB DUP3 GT PUSH2 0x7BE JUMPI DUP2 SWAP1 PUSH2 0x58E PUSH1 0x5 DUP6 ADD SLOAD PUSH2 0xF67 JUMP JUMPDEST PUSH1 0x1F DUP2 GT PUSH2 0x9E1 JUMPI JUMPDEST POP PUSH1 0x20 SWAP1 PUSH1 0x1F DUP4 GT PUSH1 0x1 EQ PUSH2 0x96F JUMPI PUSH1 0x0 SWAP3 PUSH2 0x964 JUMPI JUMPDEST POP POP DUP2 PUSH1 0x1 SHL SWAP2 PUSH1 0x0 NOT SWAP1 PUSH1 0x3 SHL SHR NOT AND OR PUSH1 0x5 DUP3 ADD SSTORE JUMPDEST PUSH1 0xC0 PUSH1 0x80 MLOAD ADD MLOAD DUP1 MLOAD SWAP1 PUSH1 0x1 PUSH1 0x1 PUSH1 0x40 SHL SUB DUP3 GT PUSH2 0x7BE JUMPI DUP2 SWAP1 PUSH2 0x5ED PUSH1 0x6 DUP6 ADD SLOAD PUSH2 0xF67 JUMP JUMPDEST PUSH1 0x1F DUP2 GT PUSH2 0x911 JUMPI JUMPDEST POP PUSH1 0x20 SWAP1 PUSH1 0x1F DUP4 GT PUSH1 0x1 EQ PUSH2 0x89F JUMPI PUSH1 0x0 SWAP3 PUSH2 0x894 JUMPI JUMPDEST POP POP DUP2 PUSH1 0x1 SHL SWAP2 PUSH1 0x0 NOT SWAP1 PUSH1 0x3 SHL SHR NOT AND OR PUSH1 0x6 DUP3 ADD SSTORE JUMPDEST PUSH1 0xE0 PUSH1 0x80 MLOAD ADD MLOAD DUP1 MLOAD SWAP1 PUSH1 0x1 PUSH1 0x1 PUSH1 0x40 SHL SUB DUP3 GT PUSH2 0x7BE JUMPI PUSH2 0x64A PUSH1 0x7 DUP5 ADD SLOAD PUSH2 0xF67 JUMP JUMPDEST PUSH1 0x1F DUP2 GT PUSH2 0x84D JUMPI JUMPDEST POP PUSH1 0x20 SWAP1 PUSH1 0x1F DUP4 GT PUSH1 0x1 EQ PUSH2 0x7DF JUMPI PUSH1 0x7 SWAP3 SWAP2 PUSH1 0x0 SWAP2 DUP4 PUSH2 0x7D4 JUMPI JUMPDEST POP POP DUP2 PUSH1 0x1 SHL SWAP2 PUSH1 0x0 NOT SWAP1 PUSH1 0x3 SHL SHR NOT AND OR SWAP2 ADD SSTORE JUMPDEST PUSH1 0x2 SLOAD SWAP2 PUSH9 0x10000000000000000 DUP4 LT ISZERO PUSH2 0x7BE JUMPI PUSH2 0x74B PUSH2 0x78F SWAP13 DUP16 SWAP11 PUSH32 0x49831EFD510EFA68DE02294A5F78A0EDB986F55373A944748A0BDB6EAFBA54E3 SWAP16 PUSH2 0x76D SWAP10 PUSH2 0x724 PUSH2 0x73A SWAP3 PUSH2 0x77E SWAP16 PUSH2 0x6E7 DUP12 PUSH1 0x1 PUSH2 0x75C SWAP14 ADD PUSH1 0x2 SSTORE PUSH2 0x1186 JUMP JUMPDEST DUP2 SWAP3 SWAP2 SLOAD SWAP1 PUSH1 0x3 SHL SWAP2 PUSH1 0x1 DUP1 PUSH1 0xA0 SHL SUB AND DUP3 SHL SWAP2 PUSH1 0x1 DUP1 PUSH1 0xA0 SHL SUB SWAP1 SHL NOT AND OR SWAP1 SSTORE PUSH2 0x100 PUSH1 0x40 MLOAD DUP1 PUSH1 0xC0 MSTORE MSTORE PUSH2 0x100 PUSH1 0xC0 MLOAD ADD SWAP1 PUSH1 0xA0 MLOAD PUSH2 0x1219 JUMP JUMPDEST SWAP1 PUSH1 0xC0 MLOAD PUSH1 0x20 DUP2 DUP5 SUB SWAP2 ADD MSTORE PUSH2 0x100 MLOAD SWAP1 PUSH2 0x1219 JUMP JUMPDEST SWAP2 PUSH1 0xC0 MLOAD PUSH1 0x40 DUP2 DUP6 SUB SWAP2 ADD MSTORE PUSH2 0x1219 JUMP JUMPDEST SWAP2 PUSH1 0xC0 MLOAD PUSH1 0x60 DUP2 DUP6 SUB SWAP2 ADD MSTORE PUSH2 0x1219 JUMP JUMPDEST SWAP2 PUSH1 0xC0 MLOAD PUSH1 0x80 DUP2 DUP6 SUB SWAP2 ADD MSTORE PUSH2 0x1219 JUMP JUMPDEST SWAP2 PUSH1 0xC0 MLOAD PUSH1 0xA0 DUP2 DUP6 SUB SWAP2 ADD MSTORE PUSH2 0x1219 JUMP JUMPDEST SWAP2 PUSH1 0xC0 MLOAD PUSH1 0xC0 DUP2 DUP6 SUB SWAP2 ADD MSTORE PUSH2 0x1219 JUMP JUMPDEST SWAP2 PUSH1 0xC0 MLOAD PUSH1 0xE0 DUP2 DUP6 SUB SWAP2 ADD MSTORE PUSH1 0x1 DUP1 PUSH1 0xA0 SHL SUB AND SWAP2 PUSH2 0x7B7 PUSH1 0xC0 MLOAD SWAP2 PUSH1 0xE0 MLOAD PUSH2 0x120 MLOAD PUSH2 0x1219 JUMP JUMPDEST SUB PUSH1 0xC0 MLOAD LOG2 STOP JUMPDEST PUSH4 0x4E487B71 PUSH1 0xE0 SHL PUSH1 0x0 MSTORE PUSH1 0x41 PUSH1 0x4 MSTORE PUSH1 0x24 PUSH1 0x0 REVERT JUMPDEST ADD MLOAD SWAP1 POP CODESIZE DUP1 PUSH2 0x66F JUMP JUMPDEST SWAP1 PUSH1 0x1F NOT DUP4 AND SWAP2 PUSH1 0x7 DUP6 ADD PUSH1 0x0 MSTORE PUSH1 0x20 PUSH1 0x0 KECCAK256 SWAP3 PUSH1 0x0 JUMPDEST DUP2 DUP2 LT PUSH2 0x835 JUMPI POP SWAP2 PUSH1 0x1 SWAP4 SWAP2 DUP6 PUSH1 0x7 SWAP7 SWAP5 LT PUSH2 0x81C JUMPI JUMPDEST POP POP POP DUP2 SHL ADD SWAP2 ADD SSTORE PUSH2 0x685 JUMP JUMPDEST ADD MLOAD PUSH1 0x0 NOT PUSH1 0xF8 DUP5 PUSH1 0x3 SHL AND SHR NOT AND SWAP1 SSTORE CODESIZE DUP1 DUP1 PUSH2 0x80E JUMP JUMPDEST SWAP3 SWAP4 PUSH1 0x20 PUSH1 0x1 DUP2 SWAP3 DUP8 DUP7 ADD MLOAD DUP2 SSTORE ADD SWAP6 ADD SWAP4 ADD PUSH2 0x7F6 JUMP JUMPDEST PUSH1 0x7 DUP5 ADD PUSH1 0x0 MSTORE PUSH1 0x20 PUSH1 0x0 KECCAK256 PUSH1 0x1F DUP5 ADD PUSH1 0x5 SHR DUP2 ADD PUSH1 0x20 DUP6 LT PUSH2 0x88D JUMPI JUMPDEST PUSH1 0x1F DUP4 ADD PUSH1 0x5 SHR DUP3 ADD DUP2 LT PUSH2 0x881 JUMPI POP POP PUSH2 0x653 JUMP JUMPDEST PUSH1 0x0 DUP2 SSTORE PUSH1 0x1 ADD PUSH2 0x86B JUMP JUMPDEST POP DUP1 PUSH2 0x86B JUMP JUMPDEST ADD MLOAD SWAP1 POP CODESIZE DUP1 PUSH2 0x60D JUMP JUMPDEST SWAP3 POP PUSH1 0x6 DUP5 ADD PUSH1 0x0 MSTORE PUSH1 0x20 PUSH1 0x0 KECCAK256 SWAP1 PUSH1 0x0 SWAP4 JUMPDEST PUSH1 0x1F NOT DUP5 AND DUP6 LT PUSH2 0x8F6 JUMPI PUSH1 0x1 SWAP5 POP DUP4 PUSH1 0x1F NOT DUP2 AND LT PUSH2 0x8DD JUMPI JUMPDEST POP POP POP DUP2 SHL ADD PUSH1 0x6 DUP3 ADD SSTORE PUSH2 0x625 JUMP JUMPDEST ADD MLOAD PUSH1 0x0 NOT PUSH1 0xF8 DUP5 PUSH1 0x3 SHL AND SHR NOT AND SWAP1 SSTORE CODESIZE DUP1 DUP1 PUSH2 0x8CD JUMP JUMPDEST DUP2 DUP2 ADD MLOAD DUP4 SSTORE PUSH1 0x20 SWAP5 DUP6 ADD SWAP5 PUSH1 0x1 SWAP1 SWAP4 ADD SWAP3 SWAP1 SWAP2 ADD SWAP1 PUSH2 0x8B2 JUMP JUMPDEST SWAP1 SWAP2 POP PUSH1 0x6 DUP5 ADD PUSH1 0x0 MSTORE PUSH1 0x20 PUSH1 0x0 KECCAK256 PUSH1 0x1F DUP5 ADD PUSH1 0x5 SHR DUP2 ADD PUSH1 0x20 DUP6 LT PUSH2 0x95D JUMPI JUMPDEST SWAP1 DUP5 SWAP4 SWAP3 SWAP2 JUMPDEST PUSH1 0x1F DUP4 ADD PUSH1 0x5 SHR DUP3 ADD DUP2 LT PUSH2 0x94E JUMPI POP POP PUSH2 0x5F6 JUMP JUMPDEST PUSH1 0x0 DUP2 SSTORE DUP6 SWAP5 POP PUSH1 0x1 ADD PUSH2 0x938 JUMP JUMPDEST POP DUP1 PUSH2 0x932 JUMP JUMPDEST ADD MLOAD SWAP1 POP CODESIZE DUP1 PUSH2 0x5AE JUMP JUMPDEST SWAP3 POP PUSH1 0x5 DUP5 ADD PUSH1 0x0 MSTORE PUSH1 0x20 PUSH1 0x0 KECCAK256 SWAP1 PUSH1 0x0 SWAP4 JUMPDEST PUSH1 0x1F NOT DUP5 AND DUP6 LT PUSH2 0x9C6 JUMPI PUSH1 0x1 SWAP5 POP DUP4 PUSH1 0x1F NOT DUP2 AND LT PUSH2 0x9AD JUMPI JUMPDEST POP POP POP DUP2 SHL ADD PUSH1 0x5 DUP3 ADD SSTORE PUSH2 0x5C6 JUMP JUMPDEST ADD MLOAD PUSH1 0x0 NOT PUSH1 0xF8 DUP5 PUSH1 0x3 SHL AND SHR NOT AND SWAP1 SSTORE CODESIZE DUP1 DUP1 PUSH2 0x99D JUMP JUMPDEST DUP2 DUP2 ADD MLOAD DUP4 SSTORE PUSH1 0x20 SWAP5 DUP6 ADD SWAP5 PUSH1 0x1 SWAP1 SWAP4 ADD SWAP3 SWAP1 SWAP2 ADD SWAP1 PUSH2 0x982 JUMP JUMPDEST SWAP1 SWAP2 POP PUSH1 0x5 DUP5 ADD PUSH1 0x0 MSTORE PUSH1 0x20 PUSH1 0x0 KECCAK256 PUSH1 0x1F DUP5 ADD PUSH1 0x5 SHR DUP2 ADD PUSH1 0x20 DUP6 LT PUSH2 0xA2D JUMPI JUMPDEST SWAP1 DUP5 SWAP4 SWAP3 SWAP2 JUMPDEST PUSH1 0x1F DUP4 ADD PUSH1 0x5 SHR DUP3 ADD DUP2 LT PUSH2 0xA1E JUMPI POP POP PUSH2 0x597 JUMP JUMPDEST PUSH1 0x0 DUP2 SSTORE DUP6 SWAP5 POP PUSH1 0x1 ADD PUSH2 0xA08 JUMP JUMPDEST POP DUP1 PUSH2 0xA02 JUMP JUMPDEST ADD MLOAD SWAP1 POP CODESIZE DUP1 PUSH2 0x54F JUMP JUMPDEST SWAP3 POP PUSH1 0x4 DUP5 ADD PUSH1 0x0 MSTORE PUSH1 0x20 PUSH1 0x0 KECCAK256 SWAP1 PUSH1 0x0 SWAP4 JUMPDEST PUSH1 0x1F NOT DUP5 AND DUP6 LT PUSH2 0xA96 JUMPI PUSH1 0x1 SWAP5 POP DUP4 PUSH1 0x1F NOT DUP2 AND LT PUSH2 0xA7D JUMPI JUMPDEST POP POP POP DUP2 SHL ADD PUSH1 0x4 DUP3 ADD SSTORE PUSH2 0x567 JUMP JUMPDEST ADD MLOAD PUSH1 0x0 NOT PUSH1 0xF8 DUP5 PUSH1 0x3 SHL AND SHR NOT AND SWAP1 SSTORE CODESIZE DUP1 DUP1 PUSH2 0xA6D JUMP JUMPDEST DUP2 DUP2 ADD MLOAD DUP4 SSTORE PUSH1 0x20 SWAP5 DUP6 ADD SWAP5 PUSH1 0x1 SWAP1 SWAP4 ADD SWAP3 SWAP1 SWAP2 ADD SWAP1 PUSH2 0xA52 JUMP JUMPDEST SWAP1 SWAP2 POP PUSH1 0x4 DUP5 ADD PUSH1 0x0 MSTORE PUSH1 0x20 PUSH1 0x0 KECCAK256 PUSH1 0x1F DUP5 ADD PUSH1 0x5 SHR DUP2 ADD PUSH1 0x20 DUP6 LT PUSH2 0xAFD JUMPI JUMPDEST SWAP1 DUP5 SWAP4 SWAP3 SWAP2 JUMPDEST PUSH1 0x1F DUP4 ADD PUSH1 0x5 SHR DUP3 ADD DUP2 LT PUSH2 0xAEE JUMPI POP POP PUSH2 0x538 JUMP JUMPDEST PUSH1 0x0 DUP2 SSTORE DUP6 SWAP5 POP PUSH1 0x1 ADD PUSH2 0xAD8 JUMP JUMPDEST POP DUP1 PUSH2 0xAD2 JUMP JUMPDEST ADD MLOAD SWAP1 POP CODESIZE DUP1 PUSH2 0x4F1 JUMP JUMPDEST SWAP3 POP PUSH1 0x3 DUP5 ADD PUSH1 0x0 MSTORE PUSH1 0x20 PUSH1 0x0 KECCAK256 SWAP1 PUSH1 0x0 SWAP4 JUMPDEST PUSH1 0x1F NOT DUP5 AND DUP6 LT PUSH2 0xB66 JUMPI PUSH1 0x1 SWAP5 POP DUP4 PUSH1 0x1F NOT DUP2 AND LT PUSH2 0xB4D JUMPI JUMPDEST POP POP POP DUP2 SHL ADD PUSH1 0x3 DUP3 ADD SSTORE PUSH2 0x509 JUMP JUMPDEST ADD MLOAD PUSH1 0x0 NOT PUSH1 0xF8 DUP5 PUSH1 0x3 SHL AND SHR NOT AND SWAP1 SSTORE CODESIZE DUP1 DUP1 PUSH2 0xB3D JUMP JUMPDEST DUP2 DUP2 ADD MLOAD DUP4 SSTORE PUSH1 0x20 SWAP5 DUP6 ADD SWAP5 PUSH1 0x1 SWAP1 SWAP4 ADD SWAP3 SWAP1 SWAP2 ADD SWAP1 PUSH2 0xB22 JUMP JUMPDEST SWAP1 SWAP2 POP PUSH1 0x3 DUP5 ADD PUSH1 0x0 MSTORE PUSH1 0x20 PUSH1 0x0 KECCAK256 PUSH1 0x1F DUP5 ADD PUSH1 0x5 SHR DUP2 ADD PUSH1 0x20 DUP6 LT PUSH2 0xBCD JUMPI JUMPDEST SWAP1 DUP5 SWAP4 SWAP3 SWAP2 JUMPDEST PUSH1 0x1F DUP4 ADD PUSH1 0x5 SHR DUP3 ADD DUP2 LT PUSH2 0xBBE JUMPI POP POP PUSH2 0x4DA JUMP JUMPDEST PUSH1 0x0 DUP2 SSTORE DUP6 SWAP5 POP PUSH1 0x1 ADD PUSH2 0xBA8 JUMP JUMPDEST POP DUP1 PUSH2 0xBA2 JUMP JUMPDEST ADD MLOAD SWAP1 POP CODESIZE DUP1 PUSH2 0x492 JUMP JUMPDEST SWAP3 POP PUSH1 0x2 DUP5 ADD PUSH1 0x0 MSTORE PUSH1 0x20 PUSH1 0x0 KECCAK256 SWAP1 PUSH1 0x0 SWAP4 JUMPDEST PUSH1 0x1F NOT DUP5 AND DUP6 LT PUSH2 0xC36 JUMPI PUSH1 0x1 SWAP5 POP DUP4 PUSH1 0x1F NOT DUP2 AND LT PUSH2 0xC1D JUMPI JUMPDEST POP POP POP DUP2 SHL ADD PUSH1 0x2 DUP3 ADD SSTORE PUSH2 0x4AA JUMP JUMPDEST ADD MLOAD PUSH1 0x0 NOT PUSH1 0xF8 DUP5 PUSH1 0x3 SHL AND SHR NOT AND SWAP1 SSTORE CODESIZE DUP1 DUP1 PUSH2 0xC0D JUMP JUMPDEST DUP2 DUP2 ADD MLOAD DUP4 SSTORE PUSH1 0x20 SWAP5 DUP6 ADD SWAP5 PUSH1 0x1 SWAP1 SWAP4 ADD SWAP3 SWAP1 SWAP2 ADD SWAP1 PUSH2 0xBF2 JUMP JUMPDEST SWAP1 SWAP2 POP PUSH1 0x2 DUP5 ADD PUSH1 0x0 MSTORE PUSH1 0x20 PUSH1 0x0 KECCAK256 PUSH1 0x1F DUP5 ADD PUSH1 0x5 SHR DUP2 ADD PUSH1 0x20 DUP6 LT PUSH2 0xC9D JUMPI JUMPDEST SWAP1 DUP5 SWAP4 SWAP3 SWAP2 JUMPDEST PUSH1 0x1F DUP4 ADD PUSH1 0x5 SHR DUP3 ADD DUP2 LT PUSH2 0xC8E JUMPI POP POP PUSH2 0x47B JUMP JUMPDEST PUSH1 0x0 DUP2 SSTORE DUP6 SWAP5 POP PUSH1 0x1 ADD PUSH2 0xC78 JUMP JUMPDEST POP DUP1 PUSH2 0xC72 JUMP JUMPDEST ADD MLOAD SWAP1 POP CODESIZE DUP1 PUSH2 0x433 JUMP JUMPDEST SWAP3 POP PUSH1 0x1 DUP5 ADD PUSH1 0x0 MSTORE PUSH1 0x20 PUSH1 0x0 KECCAK256 SWAP1 PUSH1 0x0 SWAP4 JUMPDEST PUSH1 0x1F NOT DUP5 AND DUP6 LT PUSH2 0xD06 JUMPI PUSH1 0x1 SWAP5 POP DUP4 PUSH1 0x1F NOT DUP2 AND LT PUSH2 0xCED JUMPI JUMPDEST POP POP POP DUP2 SHL ADD PUSH1 0x1 DUP3 ADD SSTORE PUSH2 0x44B JUMP JUMPDEST ADD MLOAD PUSH1 0x0 NOT PUSH1 0xF8 DUP5 PUSH1 0x3 SHL AND SHR NOT AND SWAP1 SSTORE CODESIZE DUP1 DUP1 PUSH2 0xCDD JUMP JUMPDEST DUP2 DUP2 ADD MLOAD DUP4 SSTORE PUSH1 0x20 SWAP5 DUP6 ADD SWAP5 PUSH1 0x1 SWAP1 SWAP4 ADD SWAP3 SWAP1 SWAP2 ADD SWAP1 PUSH2 0xCC2 JUMP JUMPDEST SWAP1 SWAP2 POP PUSH1 0x1 DUP5 ADD PUSH1 0x0 MSTORE PUSH1 0x20 PUSH1 0x0 KECCAK256 PUSH1 0x1F DUP5 ADD PUSH1 0x5 SHR DUP2 ADD PUSH1 0x20 DUP6 LT PUSH2 0xD6D JUMPI JUMPDEST SWAP1 DUP5 SWAP4 SWAP3 SWAP2 JUMPDEST PUSH1 0x1F DUP4 ADD PUSH1 0x5 SHR DUP3 ADD DUP2 LT PUSH2 0xD5E JUMPI POP POP PUSH2 0x41C JUMP JUMPDEST PUSH1 0x0 DUP2 SSTORE DUP6 SWAP5 POP PUSH1 0x1 ADD PUSH2 0xD48 JUMP JUMPDEST POP DUP1 PUSH2 0xD42 JUMP JUMPDEST ADD MLOAD SWAP1 POP CODESIZE DUP1 PUSH2 0x3D7 JUMP JUMPDEST SWAP3 POP DUP4 PUSH1 0x0 MSTORE PUSH1 0x20 PUSH1 0x0 KECCAK256 SWAP1 PUSH1 0x0 SWAP4 JUMPDEST PUSH1 0x1F NOT DUP5 AND DUP6 LT PUSH2 0xDD0 JUMPI PUSH1 0x1 SWAP5 POP DUP4 PUSH1 0x1F NOT DUP2 AND LT PUSH2 0xDB7 JUMPI JUMPDEST POP POP POP DUP2 SHL ADD DUP2 SSTORE PUSH2 0x3EC JUMP JUMPDEST ADD MLOAD PUSH1 0x0 NOT PUSH1 0xF8 DUP5 PUSH1 0x3 SHL AND SHR NOT AND SWAP1 SSTORE CODESIZE DUP1 DUP1 PUSH2 0xDAA JUMP JUMPDEST DUP2 DUP2 ADD MLOAD DUP4 SSTORE PUSH1 0x20 SWAP5 DUP6 ADD SWAP5 PUSH1 0x1 SWAP1 SWAP4 ADD SWAP3 SWAP1 SWAP2 ADD SWAP1 PUSH2 0xD8F JUMP JUMPDEST SWAP1 SWAP2 POP DUP4 PUSH1 0x0 MSTORE PUSH1 0x20 PUSH1 0x0 KECCAK256 PUSH1 0x1F DUP5 ADD PUSH1 0x5 SHR DUP2 ADD PUSH1 0x20 DUP6 LT PUSH2 0xE34 JUMPI JUMPDEST SWAP1 DUP5 SWAP4 SWAP3 SWAP2 JUMPDEST PUSH1 0x1F DUP4 ADD PUSH1 0x5 SHR DUP3 ADD DUP2 LT PUSH2 0xE25 JUMPI POP POP PUSH2 0x3C0 JUMP JUMPDEST PUSH1 0x0 DUP2 SSTORE DUP6 SWAP5 POP PUSH1 0x1 ADD PUSH2 0xE0F JUMP JUMPDEST POP DUP1 PUSH2 0xE09 JUMP JUMPDEST PUSH1 0x40 MLOAD PUSH3 0x461BCD PUSH1 0xE5 SHL DUP2 MSTORE PUSH1 0x20 PUSH1 0x4 DUP3 ADD MSTORE PUSH1 0xB PUSH1 0x24 DUP3 ADD MSTORE PUSH11 0x139BDD081CDD195DD85C99 PUSH1 0xAA SHL PUSH1 0x44 DUP3 ADD MSTORE PUSH1 0x64 SWAP1 REVERT JUMPDEST CALLVALUE PUSH2 0xA4 JUMPI PUSH1 0x0 CALLDATASIZE PUSH1 0x3 NOT ADD SLT PUSH2 0xA4 JUMPI PUSH1 0x0 SLOAD PUSH1 0x40 MLOAD PUSH1 0x1 PUSH1 0x1 PUSH1 0xA0 SHL SUB SWAP1 SWAP2 AND DUP2 MSTORE PUSH1 0x20 SWAP1 RETURN JUMPDEST CALLVALUE PUSH2 0xA4 JUMPI PUSH1 0x20 CALLDATASIZE PUSH1 0x3 NOT ADD SLT PUSH2 0xA4 JUMPI PUSH1 0x1 PUSH1 0x1 PUSH1 0xA0 SHL SUB PUSH2 0xEB8 PUSH2 0xF51 JUMP JUMPDEST AND PUSH1 0x0 MSTORE PUSH1 0x1 PUSH1 0x20 MSTORE PUSH1 0x40 PUSH1 0x0 KECCAK256 PUSH2 0xECF DUP2 PUSH2 0xFDE JUMP JUMPDEST PUSH2 0x195 PUSH2 0xEDE PUSH1 0x1 DUP5 ADD PUSH2 0xFDE JUMP JUMPDEST SWAP3 PUSH2 0xEEB PUSH1 0x2 DUP3 ADD PUSH2 0xFDE JUMP JUMPDEST SWAP1 PUSH2 0xEF8 PUSH1 0x3 DUP3 ADD PUSH2 0xFDE JUMP JUMPDEST PUSH2 0xF04 PUSH1 0x4 DUP4 ADD PUSH2 0xFDE JUMP JUMPDEST PUSH2 0xF10 PUSH1 0x5 DUP5 ADD PUSH2 0xFDE JUMP JUMPDEST SWAP2 PUSH2 0xF29 PUSH1 0x7 PUSH2 0xF22 PUSH1 0x6 DUP8 ADD PUSH2 0xFDE JUMP JUMPDEST SWAP6 ADD PUSH2 0xFDE JUMP JUMPDEST SWAP5 PUSH1 0x40 MLOAD SWAP9 DUP10 SWAP9 DUP10 PUSH2 0x10C4 JUMP JUMPDEST CALLVALUE PUSH2 0xA4 JUMPI PUSH1 0x0 CALLDATASIZE PUSH1 0x3 NOT ADD SLT PUSH2 0xA4 JUMPI PUSH1 0x20 SWAP1 PUSH1 0x2 SLOAD DUP2 MSTORE RETURN JUMPDEST PUSH1 0x4 CALLDATALOAD SWAP1 PUSH1 0x1 PUSH1 0x1 PUSH1 0xA0 SHL SUB DUP3 AND DUP3 SUB PUSH2 0xA4 JUMPI JUMP JUMPDEST SWAP1 PUSH1 0x1 DUP3 DUP2 SHR SWAP3 AND DUP1 ISZERO PUSH2 0xF97 JUMPI JUMPDEST PUSH1 0x20 DUP4 LT EQ PUSH2 0xF81 JUMPI JUMP JUMPDEST PUSH4 0x4E487B71 PUSH1 0xE0 SHL PUSH1 0x0 MSTORE PUSH1 0x22 PUSH1 0x4 MSTORE PUSH1 0x24 PUSH1 0x0 REVERT JUMPDEST SWAP2 PUSH1 0x7F AND SWAP2 PUSH2 0xF76 JUMP JUMPDEST PUSH2 0x100 DUP2 ADD SWAP1 DUP2 LT PUSH1 0x1 PUSH1 0x1 PUSH1 0x40 SHL SUB DUP3 GT OR PUSH2 0x7BE JUMPI PUSH1 0x40 MSTORE JUMP JUMPDEST SWAP1 PUSH1 0x1F DUP1 NOT SWAP2 ADD AND DUP2 ADD SWAP1 DUP2 LT PUSH1 0x1 PUSH1 0x1 PUSH1 0x40 SHL SUB DUP3 GT OR PUSH2 0x7BE JUMPI PUSH1 0x40 MSTORE JUMP JUMPDEST SWAP1 PUSH1 0x40 MLOAD SWAP2 DUP3 PUSH1 0x0 DUP3 SLOAD SWAP3 PUSH2 0xFF2 DUP5 PUSH2 0xF67 JUMP JUMPDEST SWAP1 DUP2 DUP5 MSTORE PUSH1 0x1 SWAP5 DUP6 DUP2 AND SWAP1 DUP2 PUSH1 0x0 EQ PUSH2 0x1061 JUMPI POP PUSH1 0x1 EQ PUSH2 0x101E JUMPI JUMPDEST POP POP PUSH2 0x101C SWAP3 POP SUB DUP4 PUSH2 0xFBD JUMP JUMPDEST JUMP JUMPDEST SWAP1 SWAP4 SWAP2 POP PUSH1 0x0 MSTORE PUSH1 0x20 SWAP1 DUP2 PUSH1 0x0 KECCAK256 SWAP4 PUSH1 0x0 SWAP2 JUMPDEST DUP2 DUP4 LT PUSH2 0x1049 JUMPI POP POP PUSH2 0x101C SWAP4 POP DUP3 ADD ADD CODESIZE DUP1 PUSH2 0x100E JUMP JUMPDEST DUP6 SLOAD DUP9 DUP5 ADD DUP6 ADD MSTORE SWAP5 DUP6 ADD SWAP5 DUP8 SWAP5 POP SWAP2 DUP4 ADD SWAP2 PUSH2 0x1031 JUMP JUMPDEST SWAP2 POP POP PUSH2 0x101C SWAP5 POP PUSH1 0x20 SWAP3 POP PUSH1 0xFF NOT AND DUP3 DUP5 ADD MSTORE ISZERO ISZERO PUSH1 0x5 SHL DUP3 ADD ADD CODESIZE DUP1 PUSH2 0x100E JUMP JUMPDEST SWAP2 SWAP1 DUP3 MLOAD SWAP3 DUP4 DUP3 MSTORE PUSH1 0x0 JUMPDEST DUP5 DUP2 LT PUSH2 0x10B0 JUMPI POP POP DUP3 PUSH1 0x0 PUSH1 0x20 DUP1 SWAP5 SWAP6 DUP5 ADD ADD MSTORE PUSH1 0x1F DUP1 NOT SWAP2 ADD AND ADD ADD SWAP1 JUMP JUMPDEST PUSH1 0x20 DUP2 DUP4 ADD DUP2 ADD MLOAD DUP5 DUP4 ADD DUP3 ADD MSTORE ADD PUSH2 0x108F JUMP JUMPDEST SWAP7 SWAP4 SWAP5 PUSH2 0x111E PUSH2 0x1148 SWAP7 PUSH2 0x1110 PUSH2 0x113A SWAP7 PUSH2 0x1102 DUP13 PUSH2 0x1156 SWAP15 SWAP13 SWAP9 PUSH2 0x10F4 PUSH2 0x112C SWAP10 PUSH2 0x100 DUP1 DUP6 MSTORE DUP5 ADD SWAP1 PUSH2 0x1084 JUMP JUMPDEST SWAP2 PUSH1 0x20 DUP2 DUP5 SUB SWAP2 ADD MSTORE PUSH2 0x1084 JUMP JUMPDEST DUP13 DUP2 SUB PUSH1 0x40 DUP15 ADD MSTORE SWAP1 PUSH2 0x1084 JUMP JUMPDEST SWAP1 DUP11 DUP3 SUB PUSH1 0x60 DUP13 ADD MSTORE PUSH2 0x1084 JUMP JUMPDEST SWAP1 DUP9 DUP3 SUB PUSH1 0x80 DUP11 ADD MSTORE PUSH2 0x1084 JUMP JUMPDEST SWAP1 DUP7 DUP3 SUB PUSH1 0xA0 DUP9 ADD MSTORE PUSH2 0x1084 JUMP JUMPDEST SWAP1 DUP5 DUP3 SUB PUSH1 0xC0 DUP7 ADD MSTORE PUSH2 0x1084 JUMP JUMPDEST SWAP2 PUSH1 0xE0 DUP2 DUP5 SUB SWAP2 ADD MSTORE PUSH2 0x1084 JUMP JUMPDEST SWAP1 JUMP JUMPDEST SWAP2 DUP2 PUSH1 0x1F DUP5 ADD SLT ISZERO PUSH2 0xA4 JUMPI DUP3 CALLDATALOAD SWAP2 PUSH1 0x1 PUSH1 0x1 PUSH1 0x40 SHL SUB DUP4 GT PUSH2 0xA4 JUMPI PUSH1 0x20 DUP4 DUP2 DUP7 ADD SWAP6 ADD ADD GT PUSH2 0xA4 JUMPI JUMP JUMPDEST PUSH1 0x2 SLOAD DUP2 LT ISZERO PUSH2 0x11BD JUMPI PUSH1 0x2 PUSH1 0x0 MSTORE PUSH32 0x405787FA12A823E0F2B7631CC41B3BA8828B3321CA811111FA75CD3AA3BB5ACE ADD SWAP1 PUSH1 0x0 SWAP1 JUMP JUMPDEST PUSH4 0x4E487B71 PUSH1 0xE0 SHL PUSH1 0x0 MSTORE PUSH1 0x32 PUSH1 0x4 MSTORE PUSH1 0x24 PUSH1 0x0 REVERT JUMPDEST SWAP3 SWAP2 SWAP3 PUSH1 0x1 PUSH1 0x1 PUSH1 0x40 SHL SUB DUP3 GT PUSH2 0x7BE JUMPI PUSH1 0x40 MLOAD SWAP2 PUSH2 0x11FC PUSH1 0x1F DUP3 ADD PUSH1 0x1F NOT AND PUSH1 0x20 ADD DUP5 PUSH2 0xFBD JUMP JUMPDEST DUP3 SWAP5 DUP2 DUP5 MSTORE DUP2 DUP4 ADD GT PUSH2 0xA4 JUMPI DUP3 DUP2 PUSH1 0x20 SWAP4 DUP5 PUSH1 0x0 SWAP7 ADD CALLDATACOPY ADD ADD MSTORE JUMP JUMPDEST SWAP1 DUP1 PUSH1 0x20 SWAP4 SWAP3 DUP2 DUP5 MSTORE DUP5 DUP5 ADD CALLDATACOPY PUSH1 0x0 DUP3 DUP3 ADD DUP5 ADD MSTORE PUSH1 0x1F ADD PUSH1 0x1F NOT AND ADD ADD SWAP1 JUMP INVALID LOG2 PUSH5 0x6970667358 0x22 SLT KECCAK256 0xB9 CALL CALL PC LOG3 RETURN 0xA8 0xE2 PC 0xE5 SWAP15 RETURNDATACOPY 0x27 0xC8 ADDMOD SIGNEXTEND PUSH15 0xA6969AAA9C20EFC2AE954552C18888 PUSH5 0x736F6C6343 STOP ADDMOD EQ STOP CALLER "},"methodIdentifiers":{"apprentices(uint256)":"f31bee3e","getSummons(address)":"cf84c603","steward()":"637eea19","summonApprentice(address,string,string,string,string,string,string,string,string)":"836b2214","summons(address)":"5a2ed662","totalSummons()":"2a17d4cd"}}}}}