{"contracts/codex/SpiralboundCodexV8.sol":{"SpiralboundCodexV8":{"abi":[{"inputs":[],"stateMutability":"nonpayable","type":"constructor"},{"anonymous":false,"inputs":[{"indexed":false,"internalType":"string","name":"glyph","type":"string"},{"indexed":false,"internalType":"string","name":"tag","type":"string"},{"indexed":false,"internalType":"string","name":"binding","type":"string"},{"indexed":false,"internalType":"string","name":"annotation","type":"string"},{"indexed":false,"internalType":"string","name":"lineage","type":"string"},{"indexed":false,"internalType":"string","name":"resonance","type":"string"},{"indexed":false,"internalType":"string","name":"protocol","type":"string"},{"indexed":false,"internalType":"string","name":"sanctum","type":"string"},{"indexed":false,"internalType":"string","name":"pulse","type":"string"}],"name":"CodexInscribed","type":"event"},{"inputs":[{"internalType":"string","name":"","type":"string"}],"name":"codices","outputs":[{"internalType":"string","name":"tag","type":"string"},{"internalType":"string","name":"binding","type":"string"},{"internalType":"string","name":"annotation","type":"string"},{"internalType":"string","name":"lineage","type":"string"},{"internalType":"string","name":"resonance","type":"string"},{"internalType":"string","name":"protocol","type":"string"},{"internalType":"string","name":"sanctum","type":"string"},{"internalType":"string","name":"pulse","type":"string"}],"stateMutability":"view","type":"function"},{"inputs":[{"internalType":"string","name":"glyph","type":"string"}],"name":"getCodex","outputs":[{"internalType":"string","name":"","type":"string"},{"internalType":"string","name":"","type":"string"},{"internalType":"string","name":"","type":"string"}],"stateMutability":"view","type":"function"},{"inputs":[{"internalType":"string","name":"glyph","type":"string"}],"name":"getLineage","outputs":[{"internalType":"string","name":"","type":"string"}],"stateMutability":"view","type":"function"},{"inputs":[{"internalType":"string","name":"glyph","type":"string"}],"name":"getProtocol","outputs":[{"internalType":"string","name":"","type":"string"}],"stateMutability":"view","type":"function"},{"inputs":[{"internalType":"string","name":"glyph","type":"string"}],"name":"getPulse","outputs":[{"internalType":"string","name":"","type":"string"}],"stateMutability":"view","type":"function"},{"inputs":[{"internalType":"string","name":"glyph","type":"string"}],"name":"getResonance","outputs":[{"internalType":"string","name":"","type":"string"}],"stateMutability":"view","type":"function"},{"inputs":[{"internalType":"string","name":"glyph","type":"string"}],"name":"getSanctum","outputs":[{"internalType":"string","name":"","type":"string"}],"stateMutability":"view","type":"function"},{"inputs":[{"internalType":"string","name":"glyph","type":"string"},{"internalType":"string","name":"tag","type":"string"},{"internalType":"string","name":"binding","type":"string"},{"internalType":"string","name":"annotation","type":"string"},{"internalType":"string","name":"lineage","type":"string"},{"internalType":"string","name":"resonance","type":"string"},{"internalType":"string","name":"protocol","type":"string"},{"internalType":"string","name":"sanctum","type":"string"},{"internalType":"string","name":"pulse","type":"string"}],"name":"inscribeCodex","outputs":[],"stateMutability":"nonpayable","type":"function"},{"inputs":[{"internalType":"uint256","name":"","type":"uint256"}],"name":"keys","outputs":[{"internalType":"string","name":"","type":"string"}],"stateMutability":"view","type":"function"},{"inputs":[],"name":"steward","outputs":[{"internalType":"address","name":"","type":"address"}],"stateMutability":"view","type":"function"},{"inputs":[],"name":"totalCodices","outputs":[{"internalType":"uint256","name":"","type":"uint256"}],"stateMutability":"view","type":"function"}],"evm":{"bytecode":{"linkReferences":{},"object":"6080806040523461002857600080546001600160a01b0319163317905561135a908161002e8239f35b600080fdfe610300604052600436101561001357600080fd5b60003560e01c80630291de55146104e75780630cb6aaf11461049a57806346b4106814610460578063637eea19146104375780637beb4107146103fc57806383361522146102e257806393e56b09146102a7578063c212d16b14610289578063dbc2142414610135578063e206f33e146100fa5763f44571f91461009657600080fd5b346100f55760203660031901126100f5576004356001600160401b0381116100f5576100dd60036100d76100d16100f1943690600401611071565b90611296565b01611162565b60405191829160208352602083019061122b565b0390f35b600080fd5b346100f55760203660031901126100f5576004356001600160401b0381116100f5576100dd60066100d76100d16100f1943690600401611071565b346100f55760203660031901126100f5576004356001600160401b0381116100f557366023820112156100f557368160040135916024019161017692611250565b604051818180935160208193019161018d92611208565b8101600181520360200190206101a281611162565b6101ae60018301611162565b916101bb60028201611162565b906101c860038201611162565b6101d460048301611162565b6101e060058401611162565b916101ed60068501611162565b936007016101fa90611162565b94604051978897610100808a5289016102129161122b565b88810360208a01526102239161122b565b87810360408901526102349161122b565b86810360608801526102459161122b565b85810360808701526102569161122b565b84810360a08601526102679161122b565b83810360c08501526102789161122b565b82810360e08401526100f19161122b565b346100f55760003660031901126100f5576020600254604051908152f35b346100f55760203660031901126100f5576004356001600160401b0381116100f5576100dd60076100d76100d16100f1943690600401611071565b346100f55760203660031901126100f5576004356001600160401b0381116100f55760206103176103e0923690600401611071565b9190826040519384928337810160018152030190206100f16040519161033c83611125565b61034581611162565b83526103ee61035660018301611162565b93602081019485526103c1600761036f60028601611162565b946040840195865261038360038201611162565b606085015261039460048201611162565b60808501526103a560058201611162565b60a08501526103b660068201611162565b60c085015201611162565b60e082015251935191519160405195869560608752606087019061122b565b90858203602087015261122b565b90838203604085015261122b565b346100f55760203660031901126100f5576004356001600160401b0381116100f5576100dd60056100d76100d16100f1943690600401611071565b346100f55760003660031901126100f5576000546040516001600160a01b039091168152602090f35b346100f55760203660031901126100f5576004356001600160401b0381116100f5576100dd60046100d76100d16100f19436908401611071565b346100f55760203660031901126100f5576004356002548110156100f5576104c19061109e565b6104d1576100dd6100f191611162565b634e487b7160e01b600052600060045260246000fd5b346100f5576101203660031901126100f5576004356001600160401b0381116100f557610518903690600401611071565b6102e052610120526024356001600160401b0381116100f55761053f903690600401611071565b610260526101e0526044356001600160401b0381116100f557610566903690600401611071565b6101405260e0526064356001600160401b0381116100f55761058c903690600401611071565b6101a0526101c0526084356001600160401b0381116100f5576105b3903690600401611071565b610180526101605260a4356001600160401b0381116100f5576105da903690600401611071565b610100526102005260c4356001600160401b0381116100f557610601903690600401611071565b60c05260a05260e4356001600160401b0381116100f557610626903690600401611071565b6102a05261024052610104356001600160401b0381116100f55761064e903690600401611071565b6102c0526080526000546001600160a01b03163303611040576106776040518061028052611125565b61068836610260516101e051611250565b610280515261069d366101405160e051611250565b60206102805101526106b6366101a0516101c051611250565b60406102805101526106cf366101805161016051611250565b60606102805101526106e8366101005161020051611250565b60806102805101526106ff3660c05160a051611250565b60a0610280510152610718366102a05161024051611250565b60c0610280510152610730366102c051608051611250565b60e06102805101526040516102e0516101205182376020816102e0518101600181520301902061028051519081516001600160401b038111610c75576107808161077a84546110eb565b846112af565b6020601f8211600114610fdb57819293600092610fd0575b50508160011b916000199060031b1c19161781555b60206102805101519081516001600160401b038111610c755760018201906107d98161077a84546110eb565b6020601f8211600114610f6a5781929394600092610f5f575b50508160011b916000199060031b1c19161790555b60406102805101519081516001600160401b038111610c755760028201906108338161077a84546110eb565b6020601f8211600114610ef95781929394600092610eee575b50508160011b916000199060031b1c19161790555b60606102805101518051906001600160401b038211610c755781906108968261088d60038701546110eb565b600387016112af565b602090601f8311600114610e7c57600092610e71575b50508160011b916000199060031b1c19161760038201555b60806102805101518051906001600160401b038211610c755781906108f9826108f060048701546110eb565b600487016112af565b602090601f8311600114610dff57600092610df4575b50508160011b916000199060031b1c19161760048201555b60a06102805101518051906001600160401b038211610c7557819061095c8261095360058701546110eb565b600587016112af565b602090601f8311600114610d8257600092610d77575b50508160011b916000199060031b1c19161760058201555b60c06102805101518051906001600160401b038211610c755781906109bf826109b660068701546110eb565b600687016112af565b602090601f8311600114610d0557600092610cfa575b50508160011b916000199060031b1c19161760068201555b60e0610280510151908151906001600160401b038211610c755760070190610a198161077a84546110eb565b602092601f8211600114610c965792819293600092610c8b575b50508160011b916000199060031b1c19161790555b60025468010000000000000000811015610c7557806001610a6c920160025561109e565b6104d1576102e0516001600160401b038111610c7557610a9690610a9083546110eb565b836112af565b6000906102e051601f8111600114610c0857509060006102e0519182610bfa575b508160011b916000199060031b1c19161790555b6101206040518061022052527f0e9d04183a05814815d7191af939e2cbd5c9b4fe36fcf4eea417c5db276a2b9f610bd1610bb8610ba1610b88610b6f610b56610b3e610b2561012061022051016102e05161012051611303565b610220516020818303910152610260516101e051611303565b6102205160408183039101526101405160e051611303565b6102205160608183039101526101a0516101c051611303565b6102205160808183039101526101805161016051611303565b6102205160a08183039101526101005161020051611303565b6102205160c081830391015260c05160a051611303565b6102205160e08183039101526102a05161024051611303565b61022051610100818303910152610bf261022051916102c051608051611303565b0361022051a1005b905061012051013583610ab7565b81600052602060002060009361012051905b601f1984168610610c5d57600194955083601f19811610610c43575b505050811b019055610acb565b0135600019600384901b60f8161c19169055838080610c36565b91602060018192858501358155019301950194610c1a565b634e487b7160e01b600052604160045260246000fd5b015190508380610a33565b601f198216938360005260206000209160005b868110610ce25750836001959610610cc9575b505050811b019055610a48565b015160001960f88460031b161c19169055838080610cbc565b91926020600181928685015181550194019201610ca9565b0151905083806109d5565b9250600684016000526020600020906000935b601f1984168510610d5c576001945083601f19811610610d43575b505050811b0160068201556109ed565b015160001960f88460031b161c19169055838080610d33565b81810151835560209485019460019093019290910190610d18565b015190508380610972565b9250600584016000526020600020906000935b601f1984168510610dd9576001945083601f19811610610dc0575b505050811b01600582015561098a565b015160001960f88460031b161c19169055838080610db0565b81810151835560209485019460019093019290910190610d95565b01519050838061090f565b9250600484016000526020600020906000935b601f1984168510610e56576001945083601f19811610610e3d575b505050811b016004820155610927565b015160001960f88460031b161c19169055838080610e2d565b81810151835560209485019460019093019290910190610e12565b0151905083806108ac565b9250600384016000526020600020906000935b601f1984168510610ed3576001945083601f19811610610eba575b505050811b0160038201556108c4565b015160001960f88460031b161c19169055838080610eaa565b81810151835560209485019460019093019290910190610e8f565b01519050848061084c565b826000526020600020906000601f198416905b818110610f4757509583600195969710610f2e575b505050811b019055610861565b015160001960f88460031b161c19169055848080610f21565b9192602060018192868b015181550194019201610f0c565b0151905084806107f2565b826000526020600020906000601f198416905b818110610fb857509583600195969710610f9f575b505050811b019055610807565b015160001960f88460031b161c19169055848080610f92565b9192602060018192868b015181550194019201610f7d565b015190508380610798565b82600052602060002090600094601f198416955b868110611028575083600195961061100f575b505050811b0181556107ad565b015160001960f88460031b161c19169055838080611002565b91926020600181928685015181550194019201610fef565b62461bcd60e51b610300908152602061030452600b610324526a139bdd081cdd195dd85c9960aa1b61034452606490fd5b9181601f840112156100f5578235916001600160401b0383116100f557602083818601950101116100f557565b6002548110156110d55760026000527f405787fa12a823e0f2b7631cc41b3ba8828b3321ca811111fa75cd3aa3bb5ace0190600090565b634e487b7160e01b600052603260045260246000fd5b90600182811c9216801561111b575b602083101461110557565b634e487b7160e01b600052602260045260246000fd5b91607f16916110fa565b61010081019081106001600160401b03821117610c7557604052565b90601f801991011681019081106001600160401b03821117610c7557604052565b9060405191826000825492611176846110eb565b9081845260019485811690816000146111e557506001146111a2575b50506111a092500383611141565b565b9093915060005260209081600020936000915b8183106111cd5750506111a093508201013880611192565b855488840185015294850194879450918301916111b5565b9150506111a094506020925060ff191682840152151560051b8201013880611192565b60005b83811061121b5750506000910152565b818101518382015260200161120b565b9060209161124481518092818552858086019101611208565b601f01601f1916010190565b9291926001600160401b038211610c755760405191611279601f8201601f191660200184611141565b8294818452818301116100f5578281602093846000960137010152565b6020908260405193849283378101600181520301902090565b90601f81116112bd57505050565b600091825260208220906020601f850160051c830194106112f9575b601f0160051c01915b8281106112ee57505050565b8181556001016112e2565b90925082906112d9565b908060209392818452848401376000828201840152601f01601f191601019056fea264697066735822122073fab76ec0a3147ca3e65c40f8206d8a258610d44af64a9a32d0b90f83e012b364736f6c63430008140033","opcodes":"PUSH1 0x80 DUP1 PUSH1 0x40 MSTORE CALLVALUE PUSH2 0x28 JUMPI PUSH1 0x0 DUP1 SLOAD PUSH1 0x1 PUSH1 0x1 PUSH1 0xA0 SHL SUB NOT AND CALLER OR SWAP1 SSTORE PUSH2 0x135A SWAP1 DUP2 PUSH2 0x2E DUP3 CODECOPY RETURN JUMPDEST PUSH1 0x0 DUP1 REVERT INVALID PUSH2 0x300 PUSH1 0x40 MSTORE PUSH1 0x4 CALLDATASIZE LT ISZERO PUSH2 0x13 JUMPI PUSH1 0x0 DUP1 REVERT JUMPDEST PUSH1 0x0 CALLDATALOAD PUSH1 0xE0 SHR DUP1 PUSH4 0x291DE55 EQ PUSH2 0x4E7 JUMPI DUP1 PUSH4 0xCB6AAF1 EQ PUSH2 0x49A JUMPI DUP1 PUSH4 0x46B41068 EQ PUSH2 0x460 JUMPI DUP1 PUSH4 0x637EEA19 EQ PUSH2 0x437 JUMPI DUP1 PUSH4 0x7BEB4107 EQ PUSH2 0x3FC JUMPI DUP1 PUSH4 0x83361522 EQ PUSH2 0x2E2 JUMPI DUP1 PUSH4 0x93E56B09 EQ PUSH2 0x2A7 JUMPI DUP1 PUSH4 0xC212D16B EQ PUSH2 0x289 JUMPI DUP1 PUSH4 0xDBC21424 EQ PUSH2 0x135 JUMPI DUP1 PUSH4 0xE206F33E EQ PUSH2 0xFA JUMPI PUSH4 0xF44571F9 EQ PUSH2 0x96 JUMPI PUSH1 0x0 DUP1 REVERT JUMPDEST CALLVALUE PUSH2 0xF5 JUMPI PUSH1 0x20 CALLDATASIZE PUSH1 0x3 NOT ADD SLT PUSH2 0xF5 JUMPI PUSH1 0x4 CALLDATALOAD PUSH1 0x1 PUSH1 0x1 PUSH1 0x40 SHL SUB DUP2 GT PUSH2 0xF5 JUMPI PUSH2 0xDD PUSH1 0x3 PUSH2 0xD7 PUSH2 0xD1 PUSH2 0xF1 SWAP5 CALLDATASIZE SWAP1 PUSH1 0x4 ADD PUSH2 0x1071 JUMP JUMPDEST SWAP1 PUSH2 0x1296 JUMP JUMPDEST ADD PUSH2 0x1162 JUMP JUMPDEST PUSH1 0x40 MLOAD SWAP2 DUP3 SWAP2 PUSH1 0x20 DUP4 MSTORE PUSH1 0x20 DUP4 ADD SWAP1 PUSH2 0x122B JUMP JUMPDEST SUB SWAP1 RETURN JUMPDEST PUSH1 0x0 DUP1 REVERT JUMPDEST CALLVALUE PUSH2 0xF5 JUMPI PUSH1 0x20 CALLDATASIZE PUSH1 0x3 NOT ADD SLT PUSH2 0xF5 JUMPI PUSH1 0x4 CALLDATALOAD PUSH1 0x1 PUSH1 0x1 PUSH1 0x40 SHL SUB DUP2 GT PUSH2 0xF5 JUMPI PUSH2 0xDD PUSH1 0x6 PUSH2 0xD7 PUSH2 0xD1 PUSH2 0xF1 SWAP5 CALLDATASIZE SWAP1 PUSH1 0x4 ADD PUSH2 0x1071 JUMP JUMPDEST CALLVALUE PUSH2 0xF5 JUMPI PUSH1 0x20 CALLDATASIZE PUSH1 0x3 NOT ADD SLT PUSH2 0xF5 JUMPI PUSH1 0x4 CALLDATALOAD PUSH1 0x1 PUSH1 0x1 PUSH1 0x40 SHL SUB DUP2 GT PUSH2 0xF5 JUMPI CALLDATASIZE PUSH1 0x23 DUP3 ADD SLT ISZERO PUSH2 0xF5 JUMPI CALLDATASIZE DUP2 PUSH1 0x4 ADD CALLDATALOAD SWAP2 PUSH1 0x24 ADD SWAP2 PUSH2 0x176 SWAP3 PUSH2 0x1250 JUMP JUMPDEST PUSH1 0x40 MLOAD DUP2 DUP2 DUP1 SWAP4 MLOAD PUSH1 0x20 DUP2 SWAP4 ADD SWAP2 PUSH2 0x18D SWAP3 PUSH2 0x1208 JUMP JUMPDEST DUP2 ADD PUSH1 0x1 DUP2 MSTORE SUB PUSH1 0x20 ADD SWAP1 KECCAK256 PUSH2 0x1A2 DUP2 PUSH2 0x1162 JUMP JUMPDEST PUSH2 0x1AE PUSH1 0x1 DUP4 ADD PUSH2 0x1162 JUMP JUMPDEST SWAP2 PUSH2 0x1BB PUSH1 0x2 DUP3 ADD PUSH2 0x1162 JUMP JUMPDEST SWAP1 PUSH2 0x1C8 PUSH1 0x3 DUP3 ADD PUSH2 0x1162 JUMP JUMPDEST PUSH2 0x1D4 PUSH1 0x4 DUP4 ADD PUSH2 0x1162 JUMP JUMPDEST PUSH2 0x1E0 PUSH1 0x5 DUP5 ADD PUSH2 0x1162 JUMP JUMPDEST SWAP2 PUSH2 0x1ED PUSH1 0x6 DUP6 ADD PUSH2 0x1162 JUMP JUMPDEST SWAP4 PUSH1 0x7 ADD PUSH2 0x1FA SWAP1 PUSH2 0x1162 JUMP JUMPDEST SWAP5 PUSH1 0x40 MLOAD SWAP8 DUP9 SWAP8 PUSH2 0x100 DUP1 DUP11 MSTORE DUP10 ADD PUSH2 0x212 SWAP2 PUSH2 0x122B JUMP JUMPDEST DUP9 DUP2 SUB PUSH1 0x20 DUP11 ADD MSTORE PUSH2 0x223 SWAP2 PUSH2 0x122B JUMP JUMPDEST DUP8 DUP2 SUB PUSH1 0x40 DUP10 ADD MSTORE PUSH2 0x234 SWAP2 PUSH2 0x122B JUMP JUMPDEST DUP7 DUP2 SUB PUSH1 0x60 DUP9 ADD MSTORE PUSH2 0x245 SWAP2 PUSH2 0x122B JUMP JUMPDEST DUP6 DUP2 SUB PUSH1 0x80 DUP8 ADD MSTORE PUSH2 0x256 SWAP2 PUSH2 0x122B JUMP JUMPDEST DUP5 DUP2 SUB PUSH1 0xA0 DUP7 ADD MSTORE PUSH2 0x267 SWAP2 PUSH2 0x122B JUMP JUMPDEST DUP4 DUP2 SUB PUSH1 0xC0 DUP6 ADD MSTORE PUSH2 0x278 SWAP2 PUSH2 0x122B JUMP JUMPDEST DUP3 DUP2 SUB PUSH1 0xE0 DUP5 ADD MSTORE PUSH2 0xF1 SWAP2 PUSH2 0x122B JUMP JUMPDEST CALLVALUE PUSH2 0xF5 JUMPI PUSH1 0x0 CALLDATASIZE PUSH1 0x3 NOT ADD SLT PUSH2 0xF5 JUMPI PUSH1 0x20 PUSH1 0x2 SLOAD PUSH1 0x40 MLOAD SWAP1 DUP2 MSTORE RETURN JUMPDEST CALLVALUE PUSH2 0xF5 JUMPI PUSH1 0x20 CALLDATASIZE PUSH1 0x3 NOT ADD SLT PUSH2 0xF5 JUMPI PUSH1 0x4 CALLDATALOAD PUSH1 0x1 PUSH1 0x1 PUSH1 0x40 SHL SUB DUP2 GT PUSH2 0xF5 JUMPI PUSH2 0xDD PUSH1 0x7 PUSH2 0xD7 PUSH2 0xD1 PUSH2 0xF1 SWAP5 CALLDATASIZE SWAP1 PUSH1 0x4 ADD PUSH2 0x1071 JUMP JUMPDEST CALLVALUE PUSH2 0xF5 JUMPI PUSH1 0x20 CALLDATASIZE PUSH1 0x3 NOT ADD SLT PUSH2 0xF5 JUMPI PUSH1 0x4 CALLDATALOAD PUSH1 0x1 PUSH1 0x1 PUSH1 0x40 SHL SUB DUP2 GT PUSH2 0xF5 JUMPI PUSH1 0x20 PUSH2 0x317 PUSH2 0x3E0 SWAP3 CALLDATASIZE SWAP1 PUSH1 0x4 ADD PUSH2 0x1071 JUMP JUMPDEST SWAP2 SWAP1 DUP3 PUSH1 0x40 MLOAD SWAP4 DUP5 SWAP3 DUP4 CALLDATACOPY DUP2 ADD PUSH1 0x1 DUP2 MSTORE SUB ADD SWAP1 KECCAK256 PUSH2 0xF1 PUSH1 0x40 MLOAD SWAP2 PUSH2 0x33C DUP4 PUSH2 0x1125 JUMP JUMPDEST PUSH2 0x345 DUP2 PUSH2 0x1162 JUMP JUMPDEST DUP4 MSTORE PUSH2 0x3EE PUSH2 0x356 PUSH1 0x1 DUP4 ADD PUSH2 0x1162 JUMP JUMPDEST SWAP4 PUSH1 0x20 DUP2 ADD SWAP5 DUP6 MSTORE PUSH2 0x3C1 PUSH1 0x7 PUSH2 0x36F PUSH1 0x2 DUP7 ADD PUSH2 0x1162 JUMP JUMPDEST SWAP5 PUSH1 0x40 DUP5 ADD SWAP6 DUP7 MSTORE PUSH2 0x383 PUSH1 0x3 DUP3 ADD PUSH2 0x1162 JUMP JUMPDEST PUSH1 0x60 DUP6 ADD MSTORE PUSH2 0x394 PUSH1 0x4 DUP3 ADD PUSH2 0x1162 JUMP JUMPDEST PUSH1 0x80 DUP6 ADD MSTORE PUSH2 0x3A5 PUSH1 0x5 DUP3 ADD PUSH2 0x1162 JUMP JUMPDEST PUSH1 0xA0 DUP6 ADD MSTORE PUSH2 0x3B6 PUSH1 0x6 DUP3 ADD PUSH2 0x1162 JUMP JUMPDEST PUSH1 0xC0 DUP6 ADD MSTORE ADD PUSH2 0x1162 JUMP JUMPDEST PUSH1 0xE0 DUP3 ADD MSTORE MLOAD SWAP4 MLOAD SWAP2 MLOAD SWAP2 PUSH1 0x40 MLOAD SWAP6 DUP7 SWAP6 PUSH1 0x60 DUP8 MSTORE PUSH1 0x60 DUP8 ADD SWAP1 PUSH2 0x122B JUMP JUMPDEST SWAP1 DUP6 DUP3 SUB PUSH1 0x20 DUP8 ADD MSTORE PUSH2 0x122B JUMP JUMPDEST SWAP1 DUP4 DUP3 SUB PUSH1 0x40 DUP6 ADD MSTORE PUSH2 0x122B JUMP JUMPDEST CALLVALUE PUSH2 0xF5 JUMPI PUSH1 0x20 CALLDATASIZE PUSH1 0x3 NOT ADD SLT PUSH2 0xF5 JUMPI PUSH1 0x4 CALLDATALOAD PUSH1 0x1 PUSH1 0x1 PUSH1 0x40 SHL SUB DUP2 GT PUSH2 0xF5 JUMPI PUSH2 0xDD PUSH1 0x5 PUSH2 0xD7 PUSH2 0xD1 PUSH2 0xF1 SWAP5 CALLDATASIZE SWAP1 PUSH1 0x4 ADD PUSH2 0x1071 JUMP JUMPDEST CALLVALUE PUSH2 0xF5 JUMPI PUSH1 0x0 CALLDATASIZE PUSH1 0x3 NOT ADD SLT PUSH2 0xF5 JUMPI PUSH1 0x0 SLOAD PUSH1 0x40 MLOAD PUSH1 0x1 PUSH1 0x1 PUSH1 0xA0 SHL SUB SWAP1 SWAP2 AND DUP2 MSTORE PUSH1 0x20 SWAP1 RETURN JUMPDEST CALLVALUE PUSH2 0xF5 JUMPI PUSH1 0x20 CALLDATASIZE PUSH1 0x3 NOT ADD SLT PUSH2 0xF5 JUMPI PUSH1 0x4 CALLDATALOAD PUSH1 0x1 PUSH1 0x1 PUSH1 0x40 SHL SUB DUP2 GT PUSH2 0xF5 JUMPI PUSH2 0xDD PUSH1 0x4 PUSH2 0xD7 PUSH2 0xD1 PUSH2 0xF1 SWAP5 CALLDATASIZE SWAP1 DUP5 ADD PUSH2 0x1071 JUMP JUMPDEST CALLVALUE PUSH2 0xF5 JUMPI PUSH1 0x20 CALLDATASIZE PUSH1 0x3 NOT ADD SLT PUSH2 0xF5 JUMPI PUSH1 0x4 CALLDATALOAD PUSH1 0x2 SLOAD DUP2 LT ISZERO PUSH2 0xF5 JUMPI PUSH2 0x4C1 SWAP1 PUSH2 0x109E JUMP JUMPDEST PUSH2 0x4D1 JUMPI PUSH2 0xDD PUSH2 0xF1 SWAP2 PUSH2 0x1162 JUMP JUMPDEST PUSH4 0x4E487B71 PUSH1 0xE0 SHL PUSH1 0x0 MSTORE PUSH1 0x0 PUSH1 0x4 MSTORE PUSH1 0x24 PUSH1 0x0 REVERT JUMPDEST CALLVALUE PUSH2 0xF5 JUMPI PUSH2 0x120 CALLDATASIZE PUSH1 0x3 NOT ADD SLT PUSH2 0xF5 JUMPI PUSH1 0x4 CALLDATALOAD PUSH1 0x1 PUSH1 0x1 PUSH1 0x40 SHL SUB DUP2 GT PUSH2 0xF5 JUMPI PUSH2 0x518 SWAP1 CALLDATASIZE SWAP1 PUSH1 0x4 ADD PUSH2 0x1071 JUMP JUMPDEST PUSH2 0x2E0 MSTORE PUSH2 0x120 MSTORE PUSH1 0x24 CALLDATALOAD PUSH1 0x1 PUSH1 0x1 PUSH1 0x40 SHL SUB DUP2 GT PUSH2 0xF5 JUMPI PUSH2 0x53F SWAP1 CALLDATASIZE SWAP1 PUSH1 0x4 ADD PUSH2 0x1071 JUMP JUMPDEST PUSH2 0x260 MSTORE PUSH2 0x1E0 MSTORE PUSH1 0x44 CALLDATALOAD PUSH1 0x1 PUSH1 0x1 PUSH1 0x40 SHL SUB DUP2 GT PUSH2 0xF5 JUMPI PUSH2 0x566 SWAP1 CALLDATASIZE SWAP1 PUSH1 0x4 ADD PUSH2 0x1071 JUMP JUMPDEST PUSH2 0x140 MSTORE PUSH1 0xE0 MSTORE PUSH1 0x64 CALLDATALOAD PUSH1 0x1 PUSH1 0x1 PUSH1 0x40 SHL SUB DUP2 GT PUSH2 0xF5 JUMPI PUSH2 0x58C SWAP1 CALLDATASIZE SWAP1 PUSH1 0x4 ADD PUSH2 0x1071 JUMP JUMPDEST PUSH2 0x1A0 MSTORE PUSH2 0x1C0 MSTORE PUSH1 0x84 CALLDATALOAD PUSH1 0x1 PUSH1 0x1 PUSH1 0x40 SHL SUB DUP2 GT PUSH2 0xF5 JUMPI PUSH2 0x5B3 SWAP1 CALLDATASIZE SWAP1 PUSH1 0x4 ADD PUSH2 0x1071 JUMP JUMPDEST PUSH2 0x180 MSTORE PUSH2 0x160 MSTORE PUSH1 0xA4 CALLDATALOAD PUSH1 0x1 PUSH1 0x1 PUSH1 0x40 SHL SUB DUP2 GT PUSH2 0xF5 JUMPI PUSH2 0x5DA SWAP1 CALLDATASIZE SWAP1 PUSH1 0x4 ADD PUSH2 0x1071 JUMP JUMPDEST PUSH2 0x100 MSTORE PUSH2 0x200 MSTORE PUSH1 0xC4 CALLDATALOAD PUSH1 0x1 PUSH1 0x1 PUSH1 0x40 SHL SUB DUP2 GT PUSH2 0xF5 JUMPI PUSH2 0x601 SWAP1 CALLDATASIZE SWAP1 PUSH1 0x4 ADD PUSH2 0x1071 JUMP JUMPDEST PUSH1 0xC0 MSTORE PUSH1 0xA0 MSTORE PUSH1 0xE4 CALLDATALOAD PUSH1 0x1 PUSH1 0x1 PUSH1 0x40 SHL SUB DUP2 GT PUSH2 0xF5 JUMPI PUSH2 0x626 SWAP1 CALLDATASIZE SWAP1 PUSH1 0x4 ADD PUSH2 0x1071 JUMP JUMPDEST PUSH2 0x2A0 MSTORE PUSH2 0x240 MSTORE PUSH2 0x104 CALLDATALOAD PUSH1 0x1 PUSH1 0x1 PUSH1 0x40 SHL SUB DUP2 GT PUSH2 0xF5 JUMPI PUSH2 0x64E SWAP1 CALLDATASIZE SWAP1 PUSH1 0x4 ADD PUSH2 0x1071 JUMP JUMPDEST PUSH2 0x2C0 MSTORE PUSH1 0x80 MSTORE PUSH1 0x0 SLOAD PUSH1 0x1 PUSH1 0x1 PUSH1 0xA0 SHL SUB AND CALLER SUB PUSH2 0x1040 JUMPI PUSH2 0x677 PUSH1 0x40 MLOAD DUP1 PUSH2 0x280 MSTORE PUSH2 0x1125 JUMP JUMPDEST PUSH2 0x688 CALLDATASIZE PUSH2 0x260 MLOAD PUSH2 0x1E0 MLOAD PUSH2 0x1250 JUMP JUMPDEST PUSH2 0x280 MLOAD MSTORE PUSH2 0x69D CALLDATASIZE PUSH2 0x140 MLOAD PUSH1 0xE0 MLOAD PUSH2 0x1250 JUMP JUMPDEST PUSH1 0x20 PUSH2 0x280 MLOAD ADD MSTORE PUSH2 0x6B6 CALLDATASIZE PUSH2 0x1A0 MLOAD PUSH2 0x1C0 MLOAD PUSH2 0x1250 JUMP JUMPDEST PUSH1 0x40 PUSH2 0x280 MLOAD ADD MSTORE PUSH2 0x6CF CALLDATASIZE PUSH2 0x180 MLOAD PUSH2 0x160 MLOAD PUSH2 0x1250 JUMP JUMPDEST PUSH1 0x60 PUSH2 0x280 MLOAD ADD MSTORE PUSH2 0x6E8 CALLDATASIZE PUSH2 0x100 MLOAD PUSH2 0x200 MLOAD PUSH2 0x1250 JUMP JUMPDEST PUSH1 0x80 PUSH2 0x280 MLOAD ADD MSTORE PUSH2 0x6FF CALLDATASIZE PUSH1 0xC0 MLOAD PUSH1 0xA0 MLOAD PUSH2 0x1250 JUMP JUMPDEST PUSH1 0xA0 PUSH2 0x280 MLOAD ADD MSTORE PUSH2 0x718 CALLDATASIZE PUSH2 0x2A0 MLOAD PUSH2 0x240 MLOAD PUSH2 0x1250 JUMP JUMPDEST PUSH1 0xC0 PUSH2 0x280 MLOAD ADD MSTORE PUSH2 0x730 CALLDATASIZE PUSH2 0x2C0 MLOAD PUSH1 0x80 MLOAD PUSH2 0x1250 JUMP JUMPDEST PUSH1 0xE0 PUSH2 0x280 MLOAD ADD MSTORE PUSH1 0x40 MLOAD PUSH2 0x2E0 MLOAD PUSH2 0x120 MLOAD DUP3 CALLDATACOPY PUSH1 0x20 DUP2 PUSH2 0x2E0 MLOAD DUP2 ADD PUSH1 0x1 DUP2 MSTORE SUB ADD SWAP1 KECCAK256 PUSH2 0x280 MLOAD MLOAD SWAP1 DUP2 MLOAD PUSH1 0x1 PUSH1 0x1 PUSH1 0x40 SHL SUB DUP2 GT PUSH2 0xC75 JUMPI PUSH2 0x780 DUP2 PUSH2 0x77A DUP5 SLOAD PUSH2 0x10EB JUMP JUMPDEST DUP5 PUSH2 0x12AF JUMP JUMPDEST PUSH1 0x20 PUSH1 0x1F DUP3 GT PUSH1 0x1 EQ PUSH2 0xFDB JUMPI DUP2 SWAP3 SWAP4 PUSH1 0x0 SWAP3 PUSH2 0xFD0 JUMPI JUMPDEST POP POP DUP2 PUSH1 0x1 SHL SWAP2 PUSH1 0x0 NOT SWAP1 PUSH1 0x3 SHL SHR NOT AND OR DUP2 SSTORE JUMPDEST PUSH1 0x20 PUSH2 0x280 MLOAD ADD MLOAD SWAP1 DUP2 MLOAD PUSH1 0x1 PUSH1 0x1 PUSH1 0x40 SHL SUB DUP2 GT PUSH2 0xC75 JUMPI PUSH1 0x1 DUP3 ADD SWAP1 PUSH2 0x7D9 DUP2 PUSH2 0x77A DUP5 SLOAD PUSH2 0x10EB JUMP JUMPDEST PUSH1 0x20 PUSH1 0x1F DUP3 GT PUSH1 0x1 EQ PUSH2 0xF6A JUMPI DUP2 SWAP3 SWAP4 SWAP5 PUSH1 0x0 SWAP3 PUSH2 0xF5F JUMPI JUMPDEST POP POP DUP2 PUSH1 0x1 SHL SWAP2 PUSH1 0x0 NOT SWAP1 PUSH1 0x3 SHL SHR NOT AND OR SWAP1 SSTORE JUMPDEST PUSH1 0x40 PUSH2 0x280 MLOAD ADD MLOAD SWAP1 DUP2 MLOAD PUSH1 0x1 PUSH1 0x1 PUSH1 0x40 SHL SUB DUP2 GT PUSH2 0xC75 JUMPI PUSH1 0x2 DUP3 ADD SWAP1 PUSH2 0x833 DUP2 PUSH2 0x77A DUP5 SLOAD PUSH2 0x10EB JUMP JUMPDEST PUSH1 0x20 PUSH1 0x1F DUP3 GT PUSH1 0x1 EQ PUSH2 0xEF9 JUMPI DUP2 SWAP3 SWAP4 SWAP5 PUSH1 0x0 SWAP3 PUSH2 0xEEE JUMPI JUMPDEST POP POP DUP2 PUSH1 0x1 SHL SWAP2 PUSH1 0x0 NOT SWAP1 PUSH1 0x3 SHL SHR NOT AND OR SWAP1 SSTORE JUMPDEST PUSH1 0x60 PUSH2 0x280 MLOAD ADD MLOAD DUP1 MLOAD SWAP1 PUSH1 0x1 PUSH1 0x1 PUSH1 0x40 SHL SUB DUP3 GT PUSH2 0xC75 JUMPI DUP2 SWAP1 PUSH2 0x896 DUP3 PUSH2 0x88D PUSH1 0x3 DUP8 ADD SLOAD PUSH2 0x10EB JUMP JUMPDEST PUSH1 0x3 DUP8 ADD PUSH2 0x12AF JUMP JUMPDEST PUSH1 0x20 SWAP1 PUSH1 0x1F DUP4 GT PUSH1 0x1 EQ PUSH2 0xE7C JUMPI PUSH1 0x0 SWAP3 PUSH2 0xE71 JUMPI JUMPDEST POP POP DUP2 PUSH1 0x1 SHL SWAP2 PUSH1 0x0 NOT SWAP1 PUSH1 0x3 SHL SHR NOT AND OR PUSH1 0x3 DUP3 ADD SSTORE JUMPDEST PUSH1 0x80 PUSH2 0x280 MLOAD ADD MLOAD DUP1 MLOAD SWAP1 PUSH1 0x1 PUSH1 0x1 PUSH1 0x40 SHL SUB DUP3 GT PUSH2 0xC75 JUMPI DUP2 SWAP1 PUSH2 0x8F9 DUP3 PUSH2 0x8F0 PUSH1 0x4 DUP8 ADD SLOAD PUSH2 0x10EB JUMP JUMPDEST PUSH1 0x4 DUP8 ADD PUSH2 0x12AF JUMP JUMPDEST PUSH1 0x20 SWAP1 PUSH1 0x1F DUP4 GT PUSH1 0x1 EQ PUSH2 0xDFF JUMPI PUSH1 0x0 SWAP3 PUSH2 0xDF4 JUMPI JUMPDEST POP POP DUP2 PUSH1 0x1 SHL SWAP2 PUSH1 0x0 NOT SWAP1 PUSH1 0x3 SHL SHR NOT AND OR PUSH1 0x4 DUP3 ADD SSTORE JUMPDEST PUSH1 0xA0 PUSH2 0x280 MLOAD ADD MLOAD DUP1 MLOAD SWAP1 PUSH1 0x1 PUSH1 0x1 PUSH1 0x40 SHL SUB DUP3 GT PUSH2 0xC75 JUMPI DUP2 SWAP1 PUSH2 0x95C DUP3 PUSH2 0x953 PUSH1 0x5 DUP8 ADD SLOAD PUSH2 0x10EB JUMP JUMPDEST PUSH1 0x5 DUP8 ADD PUSH2 0x12AF JUMP JUMPDEST PUSH1 0x20 SWAP1 PUSH1 0x1F DUP4 GT PUSH1 0x1 EQ PUSH2 0xD82 JUMPI PUSH1 0x0 SWAP3 PUSH2 0xD77 JUMPI JUMPDEST POP POP DUP2 PUSH1 0x1 SHL SWAP2 PUSH1 0x0 NOT SWAP1 PUSH1 0x3 SHL SHR NOT AND OR PUSH1 0x5 DUP3 ADD SSTORE JUMPDEST PUSH1 0xC0 PUSH2 0x280 MLOAD ADD MLOAD DUP1 MLOAD SWAP1 PUSH1 0x1 PUSH1 0x1 PUSH1 0x40 SHL SUB DUP3 GT PUSH2 0xC75 JUMPI DUP2 SWAP1 PUSH2 0x9BF DUP3 PUSH2 0x9B6 PUSH1 0x6 DUP8 ADD SLOAD PUSH2 0x10EB JUMP JUMPDEST PUSH1 0x6 DUP8 ADD PUSH2 0x12AF JUMP JUMPDEST PUSH1 0x20 SWAP1 PUSH1 0x1F DUP4 GT PUSH1 0x1 EQ PUSH2 0xD05 JUMPI PUSH1 0x0 SWAP3 PUSH2 0xCFA JUMPI JUMPDEST POP POP DUP2 PUSH1 0x1 SHL SWAP2 PUSH1 0x0 NOT SWAP1 PUSH1 0x3 SHL SHR NOT AND OR PUSH1 0x6 DUP3 ADD SSTORE JUMPDEST PUSH1 0xE0 PUSH2 0x280 MLOAD ADD MLOAD SWAP1 DUP2 MLOAD SWAP1 PUSH1 0x1 PUSH1 0x1 PUSH1 0x40 SHL SUB DUP3 GT PUSH2 0xC75 JUMPI PUSH1 0x7 ADD SWAP1 PUSH2 0xA19 DUP2 PUSH2 0x77A DUP5 SLOAD PUSH2 0x10EB JUMP JUMPDEST PUSH1 0x20 SWAP3 PUSH1 0x1F DUP3 GT PUSH1 0x1 EQ PUSH2 0xC96 JUMPI SWAP3 DUP2 SWAP3 SWAP4 PUSH1 0x0 SWAP3 PUSH2 0xC8B JUMPI JUMPDEST POP POP DUP2 PUSH1 0x1 SHL SWAP2 PUSH1 0x0 NOT SWAP1 PUSH1 0x3 SHL SHR NOT AND OR SWAP1 SSTORE JUMPDEST PUSH1 0x2 SLOAD PUSH9 0x10000000000000000 DUP2 LT ISZERO PUSH2 0xC75 JUMPI DUP1 PUSH1 0x1 PUSH2 0xA6C SWAP3 ADD PUSH1 0x2 SSTORE PUSH2 0x109E JUMP JUMPDEST PUSH2 0x4D1 JUMPI PUSH2 0x2E0 MLOAD PUSH1 0x1 PUSH1 0x1 PUSH1 0x40 SHL SUB DUP2 GT PUSH2 0xC75 JUMPI PUSH2 0xA96 SWAP1 PUSH2 0xA90 DUP4 SLOAD PUSH2 0x10EB JUMP JUMPDEST DUP4 PUSH2 0x12AF JUMP JUMPDEST PUSH1 0x0 SWAP1 PUSH2 0x2E0 MLOAD PUSH1 0x1F DUP2 GT PUSH1 0x1 EQ PUSH2 0xC08 JUMPI POP SWAP1 PUSH1 0x0 PUSH2 0x2E0 MLOAD SWAP2 DUP3 PUSH2 0xBFA JUMPI JUMPDEST POP DUP2 PUSH1 0x1 SHL SWAP2 PUSH1 0x0 NOT SWAP1 PUSH1 0x3 SHL SHR NOT AND OR SWAP1 SSTORE JUMPDEST PUSH2 0x120 PUSH1 0x40 MLOAD DUP1 PUSH2 0x220 MSTORE MSTORE PUSH32 0xE9D04183A05814815D7191AF939E2CBD5C9B4FE36FCF4EEA417C5DB276A2B9F PUSH2 0xBD1 PUSH2 0xBB8 PUSH2 0xBA1 PUSH2 0xB88 PUSH2 0xB6F PUSH2 0xB56 PUSH2 0xB3E PUSH2 0xB25 PUSH2 0x120 PUSH2 0x220 MLOAD ADD PUSH2 0x2E0 MLOAD PUSH2 0x120 MLOAD PUSH2 0x1303 JUMP JUMPDEST PUSH2 0x220 MLOAD PUSH1 0x20 DUP2 DUP4 SUB SWAP2 ADD MSTORE PUSH2 0x260 MLOAD PUSH2 0x1E0 MLOAD PUSH2 0x1303 JUMP JUMPDEST PUSH2 0x220 MLOAD PUSH1 0x40 DUP2 DUP4 SUB SWAP2 ADD MSTORE PUSH2 0x140 MLOAD PUSH1 0xE0 MLOAD PUSH2 0x1303 JUMP JUMPDEST PUSH2 0x220 MLOAD PUSH1 0x60 DUP2 DUP4 SUB SWAP2 ADD MSTORE PUSH2 0x1A0 MLOAD PUSH2 0x1C0 MLOAD PUSH2 0x1303 JUMP JUMPDEST PUSH2 0x220 MLOAD PUSH1 0x80 DUP2 DUP4 SUB SWAP2 ADD MSTORE PUSH2 0x180 MLOAD PUSH2 0x160 MLOAD PUSH2 0x1303 JUMP JUMPDEST PUSH2 0x220 MLOAD PUSH1 0xA0 DUP2 DUP4 SUB SWAP2 ADD MSTORE PUSH2 0x100 MLOAD PUSH2 0x200 MLOAD PUSH2 0x1303 JUMP JUMPDEST PUSH2 0x220 MLOAD PUSH1 0xC0 DUP2 DUP4 SUB SWAP2 ADD MSTORE PUSH1 0xC0 MLOAD PUSH1 0xA0 MLOAD PUSH2 0x1303 JUMP JUMPDEST PUSH2 0x220 MLOAD PUSH1 0xE0 DUP2 DUP4 SUB SWAP2 ADD MSTORE PUSH2 0x2A0 MLOAD PUSH2 0x240 MLOAD PUSH2 0x1303 JUMP JUMPDEST PUSH2 0x220 MLOAD PUSH2 0x100 DUP2 DUP4 SUB SWAP2 ADD MSTORE PUSH2 0xBF2 PUSH2 0x220 MLOAD SWAP2 PUSH2 0x2C0 MLOAD PUSH1 0x80 MLOAD PUSH2 0x1303 JUMP JUMPDEST SUB PUSH2 0x220 MLOAD LOG1 STOP JUMPDEST SWAP1 POP PUSH2 0x120 MLOAD ADD CALLDATALOAD DUP4 PUSH2 0xAB7 JUMP JUMPDEST DUP2 PUSH1 0x0 MSTORE PUSH1 0x20 PUSH1 0x0 KECCAK256 PUSH1 0x0 SWAP4 PUSH2 0x120 MLOAD SWAP1 JUMPDEST PUSH1 0x1F NOT DUP5 AND DUP7 LT PUSH2 0xC5D JUMPI PUSH1 0x1 SWAP5 SWAP6 POP DUP4 PUSH1 0x1F NOT DUP2 AND LT PUSH2 0xC43 JUMPI JUMPDEST POP POP POP DUP2 SHL ADD SWAP1 SSTORE PUSH2 0xACB JUMP JUMPDEST ADD CALLDATALOAD PUSH1 0x0 NOT PUSH1 0x3 DUP5 SWAP1 SHL PUSH1 0xF8 AND SHR NOT AND SWAP1 SSTORE DUP4 DUP1 DUP1 PUSH2 0xC36 JUMP JUMPDEST SWAP2 PUSH1 0x20 PUSH1 0x1 DUP2 SWAP3 DUP6 DUP6 ADD CALLDATALOAD DUP2 SSTORE ADD SWAP4 ADD SWAP6 ADD SWAP5 PUSH2 0xC1A JUMP JUMPDEST PUSH4 0x4E487B71 PUSH1 0xE0 SHL PUSH1 0x0 MSTORE PUSH1 0x41 PUSH1 0x4 MSTORE PUSH1 0x24 PUSH1 0x0 REVERT JUMPDEST ADD MLOAD SWAP1 POP DUP4 DUP1 PUSH2 0xA33 JUMP JUMPDEST PUSH1 0x1F NOT DUP3 AND SWAP4 DUP4 PUSH1 0x0 MSTORE PUSH1 0x20 PUSH1 0x0 KECCAK256 SWAP2 PUSH1 0x0 JUMPDEST DUP7 DUP2 LT PUSH2 0xCE2 JUMPI POP DUP4 PUSH1 0x1 SWAP6 SWAP7 LT PUSH2 0xCC9 JUMPI JUMPDEST POP POP POP DUP2 SHL ADD SWAP1 SSTORE PUSH2 0xA48 JUMP JUMPDEST ADD MLOAD PUSH1 0x0 NOT PUSH1 0xF8 DUP5 PUSH1 0x3 SHL AND SHR NOT AND SWAP1 SSTORE DUP4 DUP1 DUP1 PUSH2 0xCBC JUMP JUMPDEST SWAP2 SWAP3 PUSH1 0x20 PUSH1 0x1 DUP2 SWAP3 DUP7 DUP6 ADD MLOAD DUP2 SSTORE ADD SWAP5 ADD SWAP3 ADD PUSH2 0xCA9 JUMP JUMPDEST ADD MLOAD SWAP1 POP DUP4 DUP1 PUSH2 0x9D5 JUMP JUMPDEST SWAP3 POP PUSH1 0x6 DUP5 ADD PUSH1 0x0 MSTORE PUSH1 0x20 PUSH1 0x0 KECCAK256 SWAP1 PUSH1 0x0 SWAP4 JUMPDEST PUSH1 0x1F NOT DUP5 AND DUP6 LT PUSH2 0xD5C JUMPI PUSH1 0x1 SWAP5 POP DUP4 PUSH1 0x1F NOT DUP2 AND LT PUSH2 0xD43 JUMPI JUMPDEST POP POP POP DUP2 SHL ADD PUSH1 0x6 DUP3 ADD SSTORE PUSH2 0x9ED JUMP JUMPDEST ADD MLOAD PUSH1 0x0 NOT PUSH1 0xF8 DUP5 PUSH1 0x3 SHL AND SHR NOT AND SWAP1 SSTORE DUP4 DUP1 DUP1 PUSH2 0xD33 JUMP JUMPDEST DUP2 DUP2 ADD MLOAD DUP4 SSTORE PUSH1 0x20 SWAP5 DUP6 ADD SWAP5 PUSH1 0x1 SWAP1 SWAP4 ADD SWAP3 SWAP1 SWAP2 ADD SWAP1 PUSH2 0xD18 JUMP JUMPDEST ADD MLOAD SWAP1 POP DUP4 DUP1 PUSH2 0x972 JUMP JUMPDEST SWAP3 POP PUSH1 0x5 DUP5 ADD PUSH1 0x0 MSTORE PUSH1 0x20 PUSH1 0x0 KECCAK256 SWAP1 PUSH1 0x0 SWAP4 JUMPDEST PUSH1 0x1F NOT DUP5 AND DUP6 LT PUSH2 0xDD9 JUMPI PUSH1 0x1 SWAP5 POP DUP4 PUSH1 0x1F NOT DUP2 AND LT PUSH2 0xDC0 JUMPI JUMPDEST POP POP POP DUP2 SHL ADD PUSH1 0x5 DUP3 ADD SSTORE PUSH2 0x98A JUMP JUMPDEST ADD MLOAD PUSH1 0x0 NOT PUSH1 0xF8 DUP5 PUSH1 0x3 SHL AND SHR NOT AND SWAP1 SSTORE DUP4 DUP1 DUP1 PUSH2 0xDB0 JUMP JUMPDEST DUP2 DUP2 ADD MLOAD DUP4 SSTORE PUSH1 0x20 SWAP5 DUP6 ADD SWAP5 PUSH1 0x1 SWAP1 SWAP4 ADD SWAP3 SWAP1 SWAP2 ADD SWAP1 PUSH2 0xD95 JUMP JUMPDEST ADD MLOAD SWAP1 POP DUP4 DUP1 PUSH2 0x90F JUMP JUMPDEST SWAP3 POP PUSH1 0x4 DUP5 ADD PUSH1 0x0 MSTORE PUSH1 0x20 PUSH1 0x0 KECCAK256 SWAP1 PUSH1 0x0 SWAP4 JUMPDEST PUSH1 0x1F NOT DUP5 AND DUP6 LT PUSH2 0xE56 JUMPI PUSH1 0x1 SWAP5 POP DUP4 PUSH1 0x1F NOT DUP2 AND LT PUSH2 0xE3D JUMPI JUMPDEST POP POP POP DUP2 SHL ADD PUSH1 0x4 DUP3 ADD SSTORE PUSH2 0x927 JUMP JUMPDEST ADD MLOAD PUSH1 0x0 NOT PUSH1 0xF8 DUP5 PUSH1 0x3 SHL AND SHR NOT AND SWAP1 SSTORE DUP4 DUP1 DUP1 PUSH2 0xE2D JUMP JUMPDEST DUP2 DUP2 ADD MLOAD DUP4 SSTORE PUSH1 0x20 SWAP5 DUP6 ADD SWAP5 PUSH1 0x1 SWAP1 SWAP4 ADD SWAP3 SWAP1 SWAP2 ADD SWAP1 PUSH2 0xE12 JUMP JUMPDEST ADD MLOAD SWAP1 POP DUP4 DUP1 PUSH2 0x8AC JUMP JUMPDEST SWAP3 POP PUSH1 0x3 DUP5 ADD PUSH1 0x0 MSTORE PUSH1 0x20 PUSH1 0x0 KECCAK256 SWAP1 PUSH1 0x0 SWAP4 JUMPDEST PUSH1 0x1F NOT DUP5 AND DUP6 LT PUSH2 0xED3 JUMPI PUSH1 0x1 SWAP5 POP DUP4 PUSH1 0x1F NOT DUP2 AND LT PUSH2 0xEBA JUMPI JUMPDEST POP POP POP DUP2 SHL ADD PUSH1 0x3 DUP3 ADD SSTORE PUSH2 0x8C4 JUMP JUMPDEST ADD MLOAD PUSH1 0x0 NOT PUSH1 0xF8 DUP5 PUSH1 0x3 SHL AND SHR NOT AND SWAP1 SSTORE DUP4 DUP1 DUP1 PUSH2 0xEAA JUMP JUMPDEST DUP2 DUP2 ADD MLOAD DUP4 SSTORE PUSH1 0x20 SWAP5 DUP6 ADD SWAP5 PUSH1 0x1 SWAP1 SWAP4 ADD SWAP3 SWAP1 SWAP2 ADD SWAP1 PUSH2 0xE8F JUMP JUMPDEST ADD MLOAD SWAP1 POP DUP5 DUP1 PUSH2 0x84C JUMP JUMPDEST DUP3 PUSH1 0x0 MSTORE PUSH1 0x20 PUSH1 0x0 KECCAK256 SWAP1 PUSH1 0x0 PUSH1 0x1F NOT DUP5 AND SWAP1 JUMPDEST DUP2 DUP2 LT PUSH2 0xF47 JUMPI POP SWAP6 DUP4 PUSH1 0x1 SWAP6 SWAP7 SWAP8 LT PUSH2 0xF2E JUMPI JUMPDEST POP POP POP DUP2 SHL ADD SWAP1 SSTORE PUSH2 0x861 JUMP JUMPDEST ADD MLOAD PUSH1 0x0 NOT PUSH1 0xF8 DUP5 PUSH1 0x3 SHL AND SHR NOT AND SWAP1 SSTORE DUP5 DUP1 DUP1 PUSH2 0xF21 JUMP JUMPDEST SWAP2 SWAP3 PUSH1 0x20 PUSH1 0x1 DUP2 SWAP3 DUP7 DUP12 ADD MLOAD DUP2 SSTORE ADD SWAP5 ADD SWAP3 ADD PUSH2 0xF0C JUMP JUMPDEST ADD MLOAD SWAP1 POP DUP5 DUP1 PUSH2 0x7F2 JUMP JUMPDEST DUP3 PUSH1 0x0 MSTORE PUSH1 0x20 PUSH1 0x0 KECCAK256 SWAP1 PUSH1 0x0 PUSH1 0x1F NOT DUP5 AND SWAP1 JUMPDEST DUP2 DUP2 LT PUSH2 0xFB8 JUMPI POP SWAP6 DUP4 PUSH1 0x1 SWAP6 SWAP7 SWAP8 LT PUSH2 0xF9F JUMPI JUMPDEST POP POP POP DUP2 SHL ADD SWAP1 SSTORE PUSH2 0x807 JUMP JUMPDEST ADD MLOAD PUSH1 0x0 NOT PUSH1 0xF8 DUP5 PUSH1 0x3 SHL AND SHR NOT AND SWAP1 SSTORE DUP5 DUP1 DUP1 PUSH2 0xF92 JUMP JUMPDEST SWAP2 SWAP3 PUSH1 0x20 PUSH1 0x1 DUP2 SWAP3 DUP7 DUP12 ADD MLOAD DUP2 SSTORE ADD SWAP5 ADD SWAP3 ADD PUSH2 0xF7D JUMP JUMPDEST ADD MLOAD SWAP1 POP DUP4 DUP1 PUSH2 0x798 JUMP JUMPDEST DUP3 PUSH1 0x0 MSTORE PUSH1 0x20 PUSH1 0x0 KECCAK256 SWAP1 PUSH1 0x0 SWAP5 PUSH1 0x1F NOT DUP5 AND SWAP6 JUMPDEST DUP7 DUP2 LT PUSH2 0x1028 JUMPI POP DUP4 PUSH1 0x1 SWAP6 SWAP7 LT PUSH2 0x100F JUMPI JUMPDEST POP POP POP DUP2 SHL ADD DUP2 SSTORE PUSH2 0x7AD JUMP JUMPDEST ADD MLOAD PUSH1 0x0 NOT PUSH1 0xF8 DUP5 PUSH1 0x3 SHL AND SHR NOT AND SWAP1 SSTORE DUP4 DUP1 DUP1 PUSH2 0x1002 JUMP JUMPDEST SWAP2 SWAP3 PUSH1 0x20 PUSH1 0x1 DUP2 SWAP3 DUP7 DUP6 ADD MLOAD DUP2 SSTORE ADD SWAP5 ADD SWAP3 ADD PUSH2 0xFEF JUMP JUMPDEST PUSH3 0x461BCD PUSH1 0xE5 SHL PUSH2 0x300 SWAP1 DUP2 MSTORE PUSH1 0x20 PUSH2 0x304 MSTORE PUSH1 0xB PUSH2 0x324 MSTORE PUSH11 0x139BDD081CDD195DD85C99 PUSH1 0xAA SHL PUSH2 0x344 MSTORE PUSH1 0x64 SWAP1 REVERT JUMPDEST SWAP2 DUP2 PUSH1 0x1F DUP5 ADD SLT ISZERO PUSH2 0xF5 JUMPI DUP3 CALLDATALOAD SWAP2 PUSH1 0x1 PUSH1 0x1 PUSH1 0x40 SHL SUB DUP4 GT PUSH2 0xF5 JUMPI PUSH1 0x20 DUP4 DUP2 DUP7 ADD SWAP6 ADD ADD GT PUSH2 0xF5 JUMPI JUMP JUMPDEST PUSH1 0x2 SLOAD DUP2 LT ISZERO PUSH2 0x10D5 JUMPI PUSH1 0x2 PUSH1 0x0 MSTORE PUSH32 0x405787FA12A823E0F2B7631CC41B3BA8828B3321CA811111FA75CD3AA3BB5ACE ADD SWAP1 PUSH1 0x0 SWAP1 JUMP JUMPDEST PUSH4 0x4E487B71 PUSH1 0xE0 SHL PUSH1 0x0 MSTORE PUSH1 0x32 PUSH1 0x4 MSTORE PUSH1 0x24 PUSH1 0x0 REVERT JUMPDEST SWAP1 PUSH1 0x1 DUP3 DUP2 SHR SWAP3 AND DUP1 ISZERO PUSH2 0x111B JUMPI JUMPDEST PUSH1 0x20 DUP4 LT EQ PUSH2 0x1105 JUMPI JUMP JUMPDEST PUSH4 0x4E487B71 PUSH1 0xE0 SHL PUSH1 0x0 MSTORE PUSH1 0x22 PUSH1 0x4 MSTORE PUSH1 0x24 PUSH1 0x0 REVERT JUMPDEST SWAP2 PUSH1 0x7F AND SWAP2 PUSH2 0x10FA JUMP JUMPDEST PUSH2 0x100 DUP2 ADD SWAP1 DUP2 LT PUSH1 0x1 PUSH1 0x1 PUSH1 0x40 SHL SUB DUP3 GT OR PUSH2 0xC75 JUMPI PUSH1 0x40 MSTORE JUMP JUMPDEST SWAP1 PUSH1 0x1F DUP1 NOT SWAP2 ADD AND DUP2 ADD SWAP1 DUP2 LT PUSH1 0x1 PUSH1 0x1 PUSH1 0x40 SHL SUB DUP3 GT OR PUSH2 0xC75 JUMPI PUSH1 0x40 MSTORE JUMP JUMPDEST SWAP1 PUSH1 0x40 MLOAD SWAP2 DUP3 PUSH1 0x0 DUP3 SLOAD SWAP3 PUSH2 0x1176 DUP5 PUSH2 0x10EB JUMP JUMPDEST SWAP1 DUP2 DUP5 MSTORE PUSH1 0x1 SWAP5 DUP6 DUP2 AND SWAP1 DUP2 PUSH1 0x0 EQ PUSH2 0x11E5 JUMPI POP PUSH1 0x1 EQ PUSH2 0x11A2 JUMPI JUMPDEST POP POP PUSH2 0x11A0 SWAP3 POP SUB DUP4 PUSH2 0x1141 JUMP JUMPDEST JUMP JUMPDEST SWAP1 SWAP4 SWAP2 POP PUSH1 0x0 MSTORE PUSH1 0x20 SWAP1 DUP2 PUSH1 0x0 KECCAK256 SWAP4 PUSH1 0x0 SWAP2 JUMPDEST DUP2 DUP4 LT PUSH2 0x11CD JUMPI POP POP PUSH2 0x11A0 SWAP4 POP DUP3 ADD ADD CODESIZE DUP1 PUSH2 0x1192 JUMP JUMPDEST DUP6 SLOAD DUP9 DUP5 ADD DUP6 ADD MSTORE SWAP5 DUP6 ADD SWAP5 DUP8 SWAP5 POP SWAP2 DUP4 ADD SWAP2 PUSH2 0x11B5 JUMP JUMPDEST SWAP2 POP POP PUSH2 0x11A0 SWAP5 POP PUSH1 0x20 SWAP3 POP PUSH1 0xFF NOT AND DUP3 DUP5 ADD MSTORE ISZERO ISZERO PUSH1 0x5 SHL DUP3 ADD ADD CODESIZE DUP1 PUSH2 0x1192 JUMP JUMPDEST PUSH1 0x0 JUMPDEST DUP4 DUP2 LT PUSH2 0x121B JUMPI POP POP PUSH1 0x0 SWAP2 ADD MSTORE JUMP JUMPDEST DUP2 DUP2 ADD MLOAD DUP4 DUP3 ADD MSTORE PUSH1 0x20 ADD PUSH2 0x120B JUMP JUMPDEST SWAP1 PUSH1 0x20 SWAP2 PUSH2 0x1244 DUP2 MLOAD DUP1 SWAP3 DUP2 DUP6 MSTORE DUP6 DUP1 DUP7 ADD SWAP2 ADD PUSH2 0x1208 JUMP JUMPDEST PUSH1 0x1F ADD PUSH1 0x1F NOT AND ADD ADD SWAP1 JUMP JUMPDEST SWAP3 SWAP2 SWAP3 PUSH1 0x1 PUSH1 0x1 PUSH1 0x40 SHL SUB DUP3 GT PUSH2 0xC75 JUMPI PUSH1 0x40 MLOAD SWAP2 PUSH2 0x1279 PUSH1 0x1F DUP3 ADD PUSH1 0x1F NOT AND PUSH1 0x20 ADD DUP5 PUSH2 0x1141 JUMP JUMPDEST DUP3 SWAP5 DUP2 DUP5 MSTORE DUP2 DUP4 ADD GT PUSH2 0xF5 JUMPI DUP3 DUP2 PUSH1 0x20 SWAP4 DUP5 PUSH1 0x0 SWAP7 ADD CALLDATACOPY ADD ADD MSTORE JUMP JUMPDEST PUSH1 0x20 SWAP1 DUP3 PUSH1 0x40 MLOAD SWAP4 DUP5 SWAP3 DUP4 CALLDATACOPY DUP2 ADD PUSH1 0x1 DUP2 MSTORE SUB ADD SWAP1 KECCAK256 SWAP1 JUMP JUMPDEST SWAP1 PUSH1 0x1F DUP2 GT PUSH2 0x12BD JUMPI POP POP POP JUMP JUMPDEST PUSH1 0x0 SWAP2 DUP3 MSTORE PUSH1 0x20 DUP3 KECCAK256 SWAP1 PUSH1 0x20 PUSH1 0x1F DUP6 ADD PUSH1 0x5 SHR DUP4 ADD SWAP5 LT PUSH2 0x12F9 JUMPI JUMPDEST PUSH1 0x1F ADD PUSH1 0x5 SHR ADD SWAP2 JUMPDEST DUP3 DUP2 LT PUSH2 0x12EE JUMPI POP POP POP JUMP JUMPDEST DUP2 DUP2 SSTORE PUSH1 0x1 ADD PUSH2 0x12E2 JUMP JUMPDEST SWAP1 SWAP3 POP DUP3 SWAP1 PUSH2 0x12D9 JUMP JUMPDEST SWAP1 DUP1 PUSH1 0x20 SWAP4 SWAP3 DUP2 DUP5 MSTORE DUP5 DUP5 ADD CALLDATACOPY PUSH1 0x0 DUP3 DUP3 ADD DUP5 ADD MSTORE PUSH1 0x1F ADD PUSH1 0x1F NOT AND ADD ADD SWAP1 JUMP INVALID LOG2 PUSH5 0x6970667358 0x22 SLT KECCAK256 PUSH20 0xFAB76EC0A3147CA3E65C40F8206D8A258610D44A 0xF6 0x4A SWAP11 ORIGIN 0xD0 0xB9 0xF DUP4 0xE0 SLT 0xB3 PUSH5 0x736F6C6343 STOP ADDMOD EQ STOP CALLER "},"methodIdentifiers":{"codices(string)":"dbc21424","getCodex(string)":"83361522","getLineage(string)":"f44571f9","getProtocol(string)":"7beb4107","getPulse(string)":"93e56b09","getResonance(string)":"46b41068","getSanctum(string)":"e206f33e","inscribeCodex(string,string,string,string,string,string,string,string,string)":"0291de55","keys(uint256)":"0cb6aaf1","steward()":"637eea19","totalCodices()":"c212d16b"}}}}}