{"contracts/manifest/GlyphRouter.sol":{"GlyphRouter":{"abi":[{"inputs":[],"stateMutability":"nonpayable","type":"constructor"},{"anonymous":false,"inputs":[{"indexed":false,"internalType":"string","name":"glyph","type":"string"},{"indexed":false,"internalType":"address","name":"target","type":"address"},{"indexed":false,"internalType":"string","name":"method","type":"string"}],"name":"RouteLinked","type":"event"},{"inputs":[{"internalType":"string","name":"glyph","type":"string"}],"name":"getRoute","outputs":[{"internalType":"address","name":"","type":"address"},{"internalType":"string","name":"","type":"string"}],"stateMutability":"view","type":"function"},{"inputs":[{"internalType":"uint256","name":"","type":"uint256"}],"name":"keys","outputs":[{"internalType":"string","name":"","type":"string"}],"stateMutability":"view","type":"function"},{"inputs":[{"internalType":"string","name":"glyph","type":"string"},{"internalType":"address","name":"target","type":"address"},{"internalType":"string","name":"method","type":"string"}],"name":"linkRoute","outputs":[],"stateMutability":"nonpayable","type":"function"},{"inputs":[{"internalType":"string","name":"","type":"string"}],"name":"routes","outputs":[{"internalType":"string","name":"glyph","type":"string"},{"internalType":"address","name":"target","type":"address"},{"internalType":"string","name":"method","type":"string"}],"stateMutability":"view","type":"function"},{"inputs":[],"name":"steward","outputs":[{"internalType":"address","name":"","type":"address"}],"stateMutability":"view","type":"function"},{"inputs":[],"name":"totalRoutes","outputs":[{"internalType":"uint256","name":"","type":"uint256"}],"stateMutability":"view","type":"function"}],"evm":{"bytecode":{"linkReferences":{},"object":"6080806040523461002857600080546001600160a01b0319163317905561097f908161002e8239f35b600080fdfe608080604052600436101561001357600080fd5b60003560e01c90816305a2d3ac14610691575080630cb6aaf1146106465780631b5f03a6146105a1578063637eea1914610578578063bb71e7871461011e5763cffbffb51461006157600080fd5b346101195760203660031901126101195760043567ffffffffffffffff81116101195736602382011215610119576100be60206100ab61010293369060248160040135910161088d565b8160405193828580945193849201610817565b810160018152030190206101156100d482610771565b916100ee600260018060a01b036001840154169201610771565b60405194859460608652606086019061083a565b916020850152838203604085015261083a565b0390f35b600080fd5b346101195760603660031901126101195760043567ffffffffffffffff81116101195761014f90369060040161085f565b60243591906001600160a01b03831683036101195760443567ffffffffffffffff81116101195761018490369060040161085f565b6000549091906001600160a01b03163303610545576040516101a581610733565b6101b036858761088d565b81526001600160a01b03861660208201526101cc36848461088d565b6040820152604051848682376020818681016001815203019020815180519067ffffffffffffffff82116104305761020e8261020885546106f9565b856108d4565b602090601f83116001146104d8579180604094926002946000926104cd575b50508160011b916000199060031b1c19161781555b6001810160018060a01b036020860151166bffffffffffffffffffffffff60a01b8254161790550191015180519067ffffffffffffffff82116104305781906102958261028f86546106f9565b866108d4565b602090601f83116001146104675760009261045c575b50508160011b916000199060031b1c19161790555b60025468010000000000000000811015610430578060016102e492016002556106ac565b6104465767ffffffffffffffff84116104305761030b8461030583546106f9565b836108d4565b6000601f85116001146103a257916103929391857fd3d7accac29e452686ae7295c0ca76f7e788e77b9357f6940cc1267bdf516f789894600091610397575b508660011b906000198860031b1c19161790555b610375604051968796606088526060880191610928565b6001600160a01b0390931660208601528483036040860152610928565b0390a1005b90508701358961034a565b601f198516908260005260206000209160005b818110610418575091610392959391877fd3d7accac29e452686ae7295c0ca76f7e788e77b9357f6940cc1267bdf516f789a9694106103fe575b5050600186811b01905561035e565b880135600019600389901b60f8161c1916905588806103ef565b9192602060018192868c0135815501940192016103b5565b634e487b7160e01b600052604160045260246000fd5b634e487b7160e01b600052600060045260246000fd5b0151905088806102ab565b6000858152602081209350601f198516905b8181106104b5575090846001959493921061049c575b505050811b0190556102c0565b015160001960f88460031b161c1916905588808061048f565b92936020600181928786015181550195019301610479565b015190508b8061022d565b90601f198316918460005260206000209260005b81811061052d57509260019285926002966040989610610514575b505050811b018155610242565b015160001960f88460031b161c191690558b8080610507565b929360206001819287860151815501950193016104ec565b60405162461bcd60e51b815260206004820152600b60248201526a139bdd081cdd195dd85c9960aa1b6044820152606490fd5b34610119576000366003190112610119576000546040516001600160a01b039091168152602090f35b346101195760203660031901126101195760043567ffffffffffffffff81116101195760206105d6604092369060040161085f565b91908284519384928337810160018152030190208151906105f682610733565b6105ff81610771565b825260018060a01b0391610623600284600185015416936020840194855201610771565b93849101525116610115604051928392835260406020840152604083019061083a565b34610119576020366003190112610119576004356002548110156101195761066d906106ac565b6104465761067d61011591610771565b60405191829160208352602083019061083a565b34610119576000366003190112610119576020906002548152f35b6002548110156106e35760026000527f405787fa12a823e0f2b7631cc41b3ba8828b3321ca811111fa75cd3aa3bb5ace0190600090565b634e487b7160e01b600052603260045260246000fd5b90600182811c92168015610729575b602083101461071357565b634e487b7160e01b600052602260045260246000fd5b91607f1691610708565b6060810190811067ffffffffffffffff82111761043057604052565b90601f8019910116810190811067ffffffffffffffff82111761043057604052565b9060405191826000825492610785846106f9565b9081845260019485811690816000146107f457506001146107b1575b50506107af9250038361074f565b565b9093915060005260209081600020936000915b8183106107dc5750506107af935082010138806107a1565b855488840185015294850194879450918301916107c4565b9150506107af94506020925060ff191682840152151560051b82010138806107a1565b60005b83811061082a5750506000910152565b818101518382015260200161081a565b9060209161085381518092818552858086019101610817565b601f01601f1916010190565b9181601f840112156101195782359167ffffffffffffffff8311610119576020838186019501011161011957565b92919267ffffffffffffffff821161043057604051916108b7601f8201601f19166020018461074f565b829481845281830111610119578281602093846000960137010152565b90601f81116108e257505050565b600091825260208220906020601f850160051c8301941061091e575b601f0160051c01915b82811061091357505050565b818155600101610907565b90925082906108fe565b908060209392818452848401376000828201840152601f01601f191601019056fea264697066735822122013865cb219dd376c9f1aded2bb8ac04aeda0661482d5e1e79bf8bffe983c615864736f6c63430008140033","opcodes":"PUSH1 0x80 DUP1 PUSH1 0x40 MSTORE CALLVALUE PUSH2 0x28 JUMPI PUSH1 0x0 DUP1 SLOAD PUSH1 0x1 PUSH1 0x1 PUSH1 0xA0 SHL SUB NOT AND CALLER OR SWAP1 SSTORE PUSH2 0x97F SWAP1 DUP2 PUSH2 0x2E DUP3 CODECOPY RETURN JUMPDEST PUSH1 0x0 DUP1 REVERT INVALID PUSH1 0x80 DUP1 PUSH1 0x40 MSTORE PUSH1 0x4 CALLDATASIZE LT ISZERO PUSH2 0x13 JUMPI PUSH1 0x0 DUP1 REVERT JUMPDEST PUSH1 0x0 CALLDATALOAD PUSH1 0xE0 SHR SWAP1 DUP2 PUSH4 0x5A2D3AC EQ PUSH2 0x691 JUMPI POP DUP1 PUSH4 0xCB6AAF1 EQ PUSH2 0x646 JUMPI DUP1 PUSH4 0x1B5F03A6 EQ PUSH2 0x5A1 JUMPI DUP1 PUSH4 0x637EEA19 EQ PUSH2 0x578 JUMPI DUP1 PUSH4 0xBB71E787 EQ PUSH2 0x11E JUMPI PUSH4 0xCFFBFFB5 EQ PUSH2 0x61 JUMPI PUSH1 0x0 DUP1 REVERT JUMPDEST CALLVALUE PUSH2 0x119 JUMPI PUSH1 0x20 CALLDATASIZE PUSH1 0x3 NOT ADD SLT PUSH2 0x119 JUMPI PUSH1 0x4 CALLDATALOAD PUSH8 0xFFFFFFFFFFFFFFFF DUP2 GT PUSH2 0x119 JUMPI CALLDATASIZE PUSH1 0x23 DUP3 ADD SLT ISZERO PUSH2 0x119 JUMPI PUSH2 0xBE PUSH1 0x20 PUSH2 0xAB PUSH2 0x102 SWAP4 CALLDATASIZE SWAP1 PUSH1 0x24 DUP2 PUSH1 0x4 ADD CALLDATALOAD SWAP2 ADD PUSH2 0x88D JUMP JUMPDEST DUP2 PUSH1 0x40 MLOAD SWAP4 DUP3 DUP6 DUP1 SWAP5 MLOAD SWAP4 DUP5 SWAP3 ADD PUSH2 0x817 JUMP JUMPDEST DUP2 ADD PUSH1 0x1 DUP2 MSTORE SUB ADD SWAP1 KECCAK256 PUSH2 0x115 PUSH2 0xD4 DUP3 PUSH2 0x771 JUMP JUMPDEST SWAP2 PUSH2 0xEE PUSH1 0x2 PUSH1 0x1 DUP1 PUSH1 0xA0 SHL SUB PUSH1 0x1 DUP5 ADD SLOAD AND SWAP3 ADD PUSH2 0x771 JUMP JUMPDEST PUSH1 0x40 MLOAD SWAP5 DUP6 SWAP5 PUSH1 0x60 DUP7 MSTORE PUSH1 0x60 DUP7 ADD SWAP1 PUSH2 0x83A JUMP JUMPDEST SWAP2 PUSH1 0x20 DUP6 ADD MSTORE DUP4 DUP3 SUB PUSH1 0x40 DUP6 ADD MSTORE PUSH2 0x83A JUMP JUMPDEST SUB SWAP1 RETURN JUMPDEST PUSH1 0x0 DUP1 REVERT JUMPDEST CALLVALUE PUSH2 0x119 JUMPI PUSH1 0x60 CALLDATASIZE PUSH1 0x3 NOT ADD SLT PUSH2 0x119 JUMPI PUSH1 0x4 CALLDATALOAD PUSH8 0xFFFFFFFFFFFFFFFF DUP2 GT PUSH2 0x119 JUMPI PUSH2 0x14F SWAP1 CALLDATASIZE SWAP1 PUSH1 0x4 ADD PUSH2 0x85F JUMP JUMPDEST PUSH1 0x24 CALLDATALOAD SWAP2 SWAP1 PUSH1 0x1 PUSH1 0x1 PUSH1 0xA0 SHL SUB DUP4 AND DUP4 SUB PUSH2 0x119 JUMPI PUSH1 0x44 CALLDATALOAD PUSH8 0xFFFFFFFFFFFFFFFF DUP2 GT PUSH2 0x119 JUMPI PUSH2 0x184 SWAP1 CALLDATASIZE SWAP1 PUSH1 0x4 ADD PUSH2 0x85F JUMP JUMPDEST PUSH1 0x0 SLOAD SWAP1 SWAP2 SWAP1 PUSH1 0x1 PUSH1 0x1 PUSH1 0xA0 SHL SUB AND CALLER SUB PUSH2 0x545 JUMPI PUSH1 0x40 MLOAD PUSH2 0x1A5 DUP2 PUSH2 0x733 JUMP JUMPDEST PUSH2 0x1B0 CALLDATASIZE DUP6 DUP8 PUSH2 0x88D JUMP JUMPDEST DUP2 MSTORE PUSH1 0x1 PUSH1 0x1 PUSH1 0xA0 SHL SUB DUP7 AND PUSH1 0x20 DUP3 ADD MSTORE PUSH2 0x1CC CALLDATASIZE DUP5 DUP5 PUSH2 0x88D JUMP JUMPDEST PUSH1 0x40 DUP3 ADD MSTORE PUSH1 0x40 MLOAD DUP5 DUP7 DUP3 CALLDATACOPY PUSH1 0x20 DUP2 DUP7 DUP2 ADD PUSH1 0x1 DUP2 MSTORE SUB ADD SWAP1 KECCAK256 DUP2 MLOAD DUP1 MLOAD SWAP1 PUSH8 0xFFFFFFFFFFFFFFFF DUP3 GT PUSH2 0x430 JUMPI PUSH2 0x20E DUP3 PUSH2 0x208 DUP6 SLOAD PUSH2 0x6F9 JUMP JUMPDEST DUP6 PUSH2 0x8D4 JUMP JUMPDEST PUSH1 0x20 SWAP1 PUSH1 0x1F DUP4 GT PUSH1 0x1 EQ PUSH2 0x4D8 JUMPI SWAP2 DUP1 PUSH1 0x40 SWAP5 SWAP3 PUSH1 0x2 SWAP5 PUSH1 0x0 SWAP3 PUSH2 0x4CD JUMPI JUMPDEST POP POP DUP2 PUSH1 0x1 SHL SWAP2 PUSH1 0x0 NOT SWAP1 PUSH1 0x3 SHL SHR NOT AND OR DUP2 SSTORE JUMPDEST PUSH1 0x1 DUP2 ADD PUSH1 0x1 DUP1 PUSH1 0xA0 SHL SUB PUSH1 0x20 DUP7 ADD MLOAD AND PUSH12 0xFFFFFFFFFFFFFFFFFFFFFFFF PUSH1 0xA0 SHL DUP3 SLOAD AND OR SWAP1 SSTORE ADD SWAP2 ADD MLOAD DUP1 MLOAD SWAP1 PUSH8 0xFFFFFFFFFFFFFFFF DUP3 GT PUSH2 0x430 JUMPI DUP2 SWAP1 PUSH2 0x295 DUP3 PUSH2 0x28F DUP7 SLOAD PUSH2 0x6F9 JUMP JUMPDEST DUP7 PUSH2 0x8D4 JUMP JUMPDEST PUSH1 0x20 SWAP1 PUSH1 0x1F DUP4 GT PUSH1 0x1 EQ PUSH2 0x467 JUMPI PUSH1 0x0 SWAP3 PUSH2 0x45C JUMPI JUMPDEST POP POP DUP2 PUSH1 0x1 SHL SWAP2 PUSH1 0x0 NOT SWAP1 PUSH1 0x3 SHL SHR NOT AND OR SWAP1 SSTORE JUMPDEST PUSH1 0x2 SLOAD PUSH9 0x10000000000000000 DUP2 LT ISZERO PUSH2 0x430 JUMPI DUP1 PUSH1 0x1 PUSH2 0x2E4 SWAP3 ADD PUSH1 0x2 SSTORE PUSH2 0x6AC JUMP JUMPDEST PUSH2 0x446 JUMPI PUSH8 0xFFFFFFFFFFFFFFFF DUP5 GT PUSH2 0x430 JUMPI PUSH2 0x30B DUP5 PUSH2 0x305 DUP4 SLOAD PUSH2 0x6F9 JUMP JUMPDEST DUP4 PUSH2 0x8D4 JUMP JUMPDEST PUSH1 0x0 PUSH1 0x1F DUP6 GT PUSH1 0x1 EQ PUSH2 0x3A2 JUMPI SWAP2 PUSH2 0x392 SWAP4 SWAP2 DUP6 PUSH32 0xD3D7ACCAC29E452686AE7295C0CA76F7E788E77B9357F6940CC1267BDF516F78 SWAP9 SWAP5 PUSH1 0x0 SWAP2 PUSH2 0x397 JUMPI JUMPDEST POP DUP7 PUSH1 0x1 SHL SWAP1 PUSH1 0x0 NOT DUP9 PUSH1 0x3 SHL SHR NOT AND OR SWAP1 SSTORE JUMPDEST PUSH2 0x375 PUSH1 0x40 MLOAD SWAP7 DUP8 SWAP7 PUSH1 0x60 DUP9 MSTORE PUSH1 0x60 DUP9 ADD SWAP2 PUSH2 0x928 JUMP JUMPDEST PUSH1 0x1 PUSH1 0x1 PUSH1 0xA0 SHL SUB SWAP1 SWAP4 AND PUSH1 0x20 DUP7 ADD MSTORE DUP5 DUP4 SUB PUSH1 0x40 DUP7 ADD MSTORE PUSH2 0x928 JUMP JUMPDEST SUB SWAP1 LOG1 STOP JUMPDEST SWAP1 POP DUP8 ADD CALLDATALOAD DUP10 PUSH2 0x34A JUMP JUMPDEST PUSH1 0x1F NOT DUP6 AND SWAP1 DUP3 PUSH1 0x0 MSTORE PUSH1 0x20 PUSH1 0x0 KECCAK256 SWAP2 PUSH1 0x0 JUMPDEST DUP2 DUP2 LT PUSH2 0x418 JUMPI POP SWAP2 PUSH2 0x392 SWAP6 SWAP4 SWAP2 DUP8 PUSH32 0xD3D7ACCAC29E452686AE7295C0CA76F7E788E77B9357F6940CC1267BDF516F78 SWAP11 SWAP7 SWAP5 LT PUSH2 0x3FE JUMPI JUMPDEST POP POP PUSH1 0x1 DUP7 DUP2 SHL ADD SWAP1 SSTORE PUSH2 0x35E JUMP JUMPDEST DUP9 ADD CALLDATALOAD PUSH1 0x0 NOT PUSH1 0x3 DUP10 SWAP1 SHL PUSH1 0xF8 AND SHR NOT AND SWAP1 SSTORE DUP9 DUP1 PUSH2 0x3EF JUMP JUMPDEST SWAP2 SWAP3 PUSH1 0x20 PUSH1 0x1 DUP2 SWAP3 DUP7 DUP13 ADD CALLDATALOAD DUP2 SSTORE ADD SWAP5 ADD SWAP3 ADD PUSH2 0x3B5 JUMP JUMPDEST PUSH4 0x4E487B71 PUSH1 0xE0 SHL PUSH1 0x0 MSTORE PUSH1 0x41 PUSH1 0x4 MSTORE PUSH1 0x24 PUSH1 0x0 REVERT JUMPDEST PUSH4 0x4E487B71 PUSH1 0xE0 SHL PUSH1 0x0 MSTORE PUSH1 0x0 PUSH1 0x4 MSTORE PUSH1 0x24 PUSH1 0x0 REVERT JUMPDEST ADD MLOAD SWAP1 POP DUP9 DUP1 PUSH2 0x2AB JUMP JUMPDEST PUSH1 0x0 DUP6 DUP2 MSTORE PUSH1 0x20 DUP2 KECCAK256 SWAP4 POP PUSH1 0x1F NOT DUP6 AND SWAP1 JUMPDEST DUP2 DUP2 LT PUSH2 0x4B5 JUMPI POP SWAP1 DUP5 PUSH1 0x1 SWAP6 SWAP5 SWAP4 SWAP3 LT PUSH2 0x49C JUMPI JUMPDEST POP POP POP DUP2 SHL ADD SWAP1 SSTORE PUSH2 0x2C0 JUMP JUMPDEST ADD MLOAD PUSH1 0x0 NOT PUSH1 0xF8 DUP5 PUSH1 0x3 SHL AND SHR NOT AND SWAP1 SSTORE DUP9 DUP1 DUP1 PUSH2 0x48F JUMP JUMPDEST SWAP3 SWAP4 PUSH1 0x20 PUSH1 0x1 DUP2 SWAP3 DUP8 DUP7 ADD MLOAD DUP2 SSTORE ADD SWAP6 ADD SWAP4 ADD PUSH2 0x479 JUMP JUMPDEST ADD MLOAD SWAP1 POP DUP12 DUP1 PUSH2 0x22D JUMP JUMPDEST SWAP1 PUSH1 0x1F NOT DUP4 AND SWAP2 DUP5 PUSH1 0x0 MSTORE PUSH1 0x20 PUSH1 0x0 KECCAK256 SWAP3 PUSH1 0x0 JUMPDEST DUP2 DUP2 LT PUSH2 0x52D JUMPI POP SWAP3 PUSH1 0x1 SWAP3 DUP6 SWAP3 PUSH1 0x2 SWAP7 PUSH1 0x40 SWAP9 SWAP7 LT PUSH2 0x514 JUMPI JUMPDEST POP POP POP DUP2 SHL ADD DUP2 SSTORE PUSH2 0x242 JUMP JUMPDEST ADD MLOAD PUSH1 0x0 NOT PUSH1 0xF8 DUP5 PUSH1 0x3 SHL AND SHR NOT AND SWAP1 SSTORE DUP12 DUP1 DUP1 PUSH2 0x507 JUMP JUMPDEST SWAP3 SWAP4 PUSH1 0x20 PUSH1 0x1 DUP2 SWAP3 DUP8 DUP7 ADD MLOAD DUP2 SSTORE ADD SWAP6 ADD SWAP4 ADD PUSH2 0x4EC JUMP JUMPDEST PUSH1 0x40 MLOAD PUSH3 0x461BCD PUSH1 0xE5 SHL DUP2 MSTORE PUSH1 0x20 PUSH1 0x4 DUP3 ADD MSTORE PUSH1 0xB PUSH1 0x24 DUP3 ADD MSTORE PUSH11 0x139BDD081CDD195DD85C99 PUSH1 0xAA SHL PUSH1 0x44 DUP3 ADD MSTORE PUSH1 0x64 SWAP1 REVERT JUMPDEST CALLVALUE PUSH2 0x119 JUMPI PUSH1 0x0 CALLDATASIZE PUSH1 0x3 NOT ADD SLT PUSH2 0x119 JUMPI PUSH1 0x0 SLOAD PUSH1 0x40 MLOAD PUSH1 0x1 PUSH1 0x1 PUSH1 0xA0 SHL SUB SWAP1 SWAP2 AND DUP2 MSTORE PUSH1 0x20 SWAP1 RETURN JUMPDEST CALLVALUE PUSH2 0x119 JUMPI PUSH1 0x20 CALLDATASIZE PUSH1 0x3 NOT ADD SLT PUSH2 0x119 JUMPI PUSH1 0x4 CALLDATALOAD PUSH8 0xFFFFFFFFFFFFFFFF DUP2 GT PUSH2 0x119 JUMPI PUSH1 0x20 PUSH2 0x5D6 PUSH1 0x40 SWAP3 CALLDATASIZE SWAP1 PUSH1 0x4 ADD PUSH2 0x85F JUMP JUMPDEST SWAP2 SWAP1 DUP3 DUP5 MLOAD SWAP4 DUP5 SWAP3 DUP4 CALLDATACOPY DUP2 ADD PUSH1 0x1 DUP2 MSTORE SUB ADD SWAP1 KECCAK256 DUP2 MLOAD SWAP1 PUSH2 0x5F6 DUP3 PUSH2 0x733 JUMP JUMPDEST PUSH2 0x5FF DUP2 PUSH2 0x771 JUMP JUMPDEST DUP3 MSTORE PUSH1 0x1 DUP1 PUSH1 0xA0 SHL SUB SWAP2 PUSH2 0x623 PUSH1 0x2 DUP5 PUSH1 0x1 DUP6 ADD SLOAD AND SWAP4 PUSH1 0x20 DUP5 ADD SWAP5 DUP6 MSTORE ADD PUSH2 0x771 JUMP JUMPDEST SWAP4 DUP5 SWAP2 ADD MSTORE MLOAD AND PUSH2 0x115 PUSH1 0x40 MLOAD SWAP3 DUP4 SWAP3 DUP4 MSTORE PUSH1 0x40 PUSH1 0x20 DUP5 ADD MSTORE PUSH1 0x40 DUP4 ADD SWAP1 PUSH2 0x83A JUMP JUMPDEST CALLVALUE PUSH2 0x119 JUMPI PUSH1 0x20 CALLDATASIZE PUSH1 0x3 NOT ADD SLT PUSH2 0x119 JUMPI PUSH1 0x4 CALLDATALOAD PUSH1 0x2 SLOAD DUP2 LT ISZERO PUSH2 0x119 JUMPI PUSH2 0x66D SWAP1 PUSH2 0x6AC JUMP JUMPDEST PUSH2 0x446 JUMPI PUSH2 0x67D PUSH2 0x115 SWAP2 PUSH2 0x771 JUMP JUMPDEST PUSH1 0x40 MLOAD SWAP2 DUP3 SWAP2 PUSH1 0x20 DUP4 MSTORE PUSH1 0x20 DUP4 ADD SWAP1 PUSH2 0x83A JUMP JUMPDEST CALLVALUE PUSH2 0x119 JUMPI PUSH1 0x0 CALLDATASIZE PUSH1 0x3 NOT ADD SLT PUSH2 0x119 JUMPI PUSH1 0x20 SWAP1 PUSH1 0x2 SLOAD DUP2 MSTORE RETURN JUMPDEST PUSH1 0x2 SLOAD DUP2 LT ISZERO PUSH2 0x6E3 JUMPI PUSH1 0x2 PUSH1 0x0 MSTORE PUSH32 0x405787FA12A823E0F2B7631CC41B3BA8828B3321CA811111FA75CD3AA3BB5ACE ADD SWAP1 PUSH1 0x0 SWAP1 JUMP JUMPDEST PUSH4 0x4E487B71 PUSH1 0xE0 SHL PUSH1 0x0 MSTORE PUSH1 0x32 PUSH1 0x4 MSTORE PUSH1 0x24 PUSH1 0x0 REVERT JUMPDEST SWAP1 PUSH1 0x1 DUP3 DUP2 SHR SWAP3 AND DUP1 ISZERO PUSH2 0x729 JUMPI JUMPDEST PUSH1 0x20 DUP4 LT EQ PUSH2 0x713 JUMPI JUMP JUMPDEST PUSH4 0x4E487B71 PUSH1 0xE0 SHL PUSH1 0x0 MSTORE PUSH1 0x22 PUSH1 0x4 MSTORE PUSH1 0x24 PUSH1 0x0 REVERT JUMPDEST SWAP2 PUSH1 0x7F AND SWAP2 PUSH2 0x708 JUMP JUMPDEST PUSH1 0x60 DUP2 ADD SWAP1 DUP2 LT PUSH8 0xFFFFFFFFFFFFFFFF DUP3 GT OR PUSH2 0x430 JUMPI PUSH1 0x40 MSTORE JUMP JUMPDEST SWAP1 PUSH1 0x1F DUP1 NOT SWAP2 ADD AND DUP2 ADD SWAP1 DUP2 LT PUSH8 0xFFFFFFFFFFFFFFFF DUP3 GT OR PUSH2 0x430 JUMPI PUSH1 0x40 MSTORE JUMP JUMPDEST SWAP1 PUSH1 0x40 MLOAD SWAP2 DUP3 PUSH1 0x0 DUP3 SLOAD SWAP3 PUSH2 0x785 DUP5 PUSH2 0x6F9 JUMP JUMPDEST SWAP1 DUP2 DUP5 MSTORE PUSH1 0x1 SWAP5 DUP6 DUP2 AND SWAP1 DUP2 PUSH1 0x0 EQ PUSH2 0x7F4 JUMPI POP PUSH1 0x1 EQ PUSH2 0x7B1 JUMPI JUMPDEST POP POP PUSH2 0x7AF SWAP3 POP SUB DUP4 PUSH2 0x74F JUMP JUMPDEST JUMP JUMPDEST SWAP1 SWAP4 SWAP2 POP PUSH1 0x0 MSTORE PUSH1 0x20 SWAP1 DUP2 PUSH1 0x0 KECCAK256 SWAP4 PUSH1 0x0 SWAP2 JUMPDEST DUP2 DUP4 LT PUSH2 0x7DC JUMPI POP POP PUSH2 0x7AF SWAP4 POP DUP3 ADD ADD CODESIZE DUP1 PUSH2 0x7A1 JUMP JUMPDEST DUP6 SLOAD DUP9 DUP5 ADD DUP6 ADD MSTORE SWAP5 DUP6 ADD SWAP5 DUP8 SWAP5 POP SWAP2 DUP4 ADD SWAP2 PUSH2 0x7C4 JUMP JUMPDEST SWAP2 POP POP PUSH2 0x7AF SWAP5 POP PUSH1 0x20 SWAP3 POP PUSH1 0xFF NOT AND DUP3 DUP5 ADD MSTORE ISZERO ISZERO PUSH1 0x5 SHL DUP3 ADD ADD CODESIZE DUP1 PUSH2 0x7A1 JUMP JUMPDEST PUSH1 0x0 JUMPDEST DUP4 DUP2 LT PUSH2 0x82A JUMPI POP POP PUSH1 0x0 SWAP2 ADD MSTORE JUMP JUMPDEST DUP2 DUP2 ADD MLOAD DUP4 DUP3 ADD MSTORE PUSH1 0x20 ADD PUSH2 0x81A JUMP JUMPDEST SWAP1 PUSH1 0x20 SWAP2 PUSH2 0x853 DUP2 MLOAD DUP1 SWAP3 DUP2 DUP6 MSTORE DUP6 DUP1 DUP7 ADD SWAP2 ADD PUSH2 0x817 JUMP JUMPDEST PUSH1 0x1F ADD PUSH1 0x1F NOT AND ADD ADD SWAP1 JUMP JUMPDEST SWAP2 DUP2 PUSH1 0x1F DUP5 ADD SLT ISZERO PUSH2 0x119 JUMPI DUP3 CALLDATALOAD SWAP2 PUSH8 0xFFFFFFFFFFFFFFFF DUP4 GT PUSH2 0x119 JUMPI PUSH1 0x20 DUP4 DUP2 DUP7 ADD SWAP6 ADD ADD GT PUSH2 0x119 JUMPI JUMP JUMPDEST SWAP3 SWAP2 SWAP3 PUSH8 0xFFFFFFFFFFFFFFFF DUP3 GT PUSH2 0x430 JUMPI PUSH1 0x40 MLOAD SWAP2 PUSH2 0x8B7 PUSH1 0x1F DUP3 ADD PUSH1 0x1F NOT AND PUSH1 0x20 ADD DUP5 PUSH2 0x74F JUMP JUMPDEST DUP3 SWAP5 DUP2 DUP5 MSTORE DUP2 DUP4 ADD GT PUSH2 0x119 JUMPI DUP3 DUP2 PUSH1 0x20 SWAP4 DUP5 PUSH1 0x0 SWAP7 ADD CALLDATACOPY ADD ADD MSTORE JUMP JUMPDEST SWAP1 PUSH1 0x1F DUP2 GT PUSH2 0x8E2 JUMPI POP POP POP JUMP JUMPDEST PUSH1 0x0 SWAP2 DUP3 MSTORE PUSH1 0x20 DUP3 KECCAK256 SWAP1 PUSH1 0x20 PUSH1 0x1F DUP6 ADD PUSH1 0x5 SHR DUP4 ADD SWAP5 LT PUSH2 0x91E JUMPI JUMPDEST PUSH1 0x1F ADD PUSH1 0x5 SHR ADD SWAP2 JUMPDEST DUP3 DUP2 LT PUSH2 0x913 JUMPI POP POP POP JUMP JUMPDEST DUP2 DUP2 SSTORE PUSH1 0x1 ADD PUSH2 0x907 JUMP JUMPDEST SWAP1 SWAP3 POP DUP3 SWAP1 PUSH2 0x8FE JUMP JUMPDEST SWAP1 DUP1 PUSH1 0x20 SWAP4 SWAP3 DUP2 DUP5 MSTORE DUP5 DUP5 ADD CALLDATACOPY PUSH1 0x0 DUP3 DUP3 ADD DUP5 ADD MSTORE PUSH1 0x1F ADD PUSH1 0x1F NOT AND ADD ADD SWAP1 JUMP INVALID LOG2 PUSH5 0x6970667358 0x22 SLT KECCAK256 SGT DUP7 0x5C 0xB2 NOT 0xDD CALLDATACOPY PUSH13 0x9F1ADED2BB8AC04AEDA0661482 0xD5 0xE1 0xE7 SWAP12 0xF8 0xBF INVALID SWAP9 EXTCODECOPY PUSH2 0x5864 PUSH20 0x6F6C634300081400330000000000000000000000 "},"methodIdentifiers":{"getRoute(string)":"1b5f03a6","keys(uint256)":"0cb6aaf1","linkRoute(string,address,string)":"bb71e787","routes(string)":"cffbffb5","steward()":"637eea19","totalRoutes()":"05a2d3ac"}}}}}