{"contracts/registry/ApprenticeSummons.sol":{"ApprenticeSummons":{"abi":[{"inputs":[],"stateMutability":"nonpayable","type":"constructor"},{"anonymous":false,"inputs":[{"indexed":true,"internalType":"address","name":"apprentice","type":"address"},{"indexed":false,"internalType":"string","name":"name","type":"string"},{"indexed":false,"internalType":"string","name":"signal","type":"string"},{"indexed":false,"internalType":"string","name":"lineage","type":"string"}],"name":"ApprenticeSummoned","type":"event"},{"inputs":[{"internalType":"uint256","name":"","type":"uint256"}],"name":"apprentices","outputs":[{"internalType":"address","name":"","type":"address"}],"stateMutability":"view","type":"function"},{"inputs":[{"internalType":"address","name":"apprentice","type":"address"}],"name":"getSummons","outputs":[{"internalType":"string","name":"","type":"string"},{"internalType":"string","name":"","type":"string"},{"internalType":"string","name":"","type":"string"}],"stateMutability":"view","type":"function"},{"inputs":[],"name":"steward","outputs":[{"internalType":"address","name":"","type":"address"}],"stateMutability":"view","type":"function"},{"inputs":[{"internalType":"address","name":"apprentice","type":"address"},{"internalType":"string","name":"name","type":"string"},{"internalType":"string","name":"signal","type":"string"},{"internalType":"string","name":"lineage","type":"string"}],"name":"summonApprentice","outputs":[],"stateMutability":"nonpayable","type":"function"},{"inputs":[{"internalType":"address","name":"","type":"address"}],"name":"summons","outputs":[{"internalType":"string","name":"name","type":"string"},{"internalType":"string","name":"signal","type":"string"},{"internalType":"string","name":"lineage","type":"string"}],"stateMutability":"view","type":"function"},{"inputs":[],"name":"totalSummons","outputs":[{"internalType":"uint256","name":"","type":"uint256"}],"stateMutability":"view","type":"function"}],"evm":{"bytecode":{"linkReferences":{},"object":"6080806040523461002857600080546001600160a01b031916331790556109d6908161002e8239f35b600080fdfe6080604090808252600436101561001557600080fd5b60003560e01c9081632a17d4cd146106f45750806339456427146101b05780635a2ed66214610150578063637eea1914610127578063cf84c603146100a85763f31bee3e1461006357600080fd5b346100a35760203660031901126100a357600435906002548210156100a35761008d6020926108eb565b905491519160018060a01b039160031b1c168152f35b600080fd5b50346100a35760203660031901126100a3576001600160a01b036100ca61070f565b1660005260016020528060002061012382516100e58161078d565b6100ee836107cb565b815261010f6002610101600186016107cb565b9460208401958652016107cb565b9081858201525192519351938493846108b1565b0390f35b50346100a35760003660031901126100a35760005490516001600160a01b039091168152602090f35b50346100a35760203660031901126100a3576001600160a01b0361017261070f565b166000526001602052806000209061012361018c836107cb565b916101a5600261019e600187016107cb565b95016107cb565b9051938493846108b1565b50346100a35760803660031901126100a3576101ca61070f565b9060243567ffffffffffffffff81116100a3576101eb903690600401610725565b60443567ffffffffffffffff81116100a35761020b903690600401610725565b909360643567ffffffffffffffff81116100a35761022d903690600401610725565b600054919790916001600160a01b031633036106c257825161024e8161078d565b610259368789610938565b815261026636868a610938565b602082015261027636848b610938565b8482015260018060a01b03821660005260016020528360002090805180519067ffffffffffffffff821161044e5781906102b08554610753565b601f8111610672575b50602090601f8311600114610606576000926105fb575b50508160011b916000199060031b1c19161782555b602081015190815167ffffffffffffffff811161044e57869261030b6001860154610753565b601f81116105a4575b50602090601f831160011461052f576000919083610524575b50508160011b916000199060031b1c19161760018401555b015180519067ffffffffffffffff821161044e576103666002840154610753565b601f81116104dd575b50602090601f831160011461046f576002929160009183610464575b50508160011b916000199060031b1c1916179101555b6002546801000000000000000081101561044e577f2e74bc6612814eaed1c3e0132de9cc8dcc86ab1599abbc9eb754ae888f24cb1997610449956103ee83600161043095016002556108eb565b81546001600160a01b0387811660039390931b92831b921b19161790558551606080825290998a99610422928b019161097f565b9188830360208a015261097f565b858103938601939093526001600160a01b03169661097f565b0390a2005b634e487b7160e01b600052604160045260246000fd5b01519050388061038b565b90601f198316916002850160005260206000209260005b8181106104c5575091600193918560029694106104ac575b505050811b019101556103a1565b015160001960f88460031b161c1916905538808061049e565b92936020600181928786015181550195019301610486565b600284016000526020600020601f840160051c81016020851061051d575b601f830160051c8201811061051157505061036f565b600081556001016104fb565b50806104fb565b01519050388061032d565b939291906001860160005260206000209060005b601f19841681106105895750600193949583601f19811610610570575b505050811b016001840155610345565b015160001960f88460031b161c19169055388080610560565b8682015183558a955060019092019160209182019101610543565b9091929350600185016000526020600020601f840160051c8101602085106105f4575b908995949392915b601f830160051c820181106105e5575050610314565b600081558a96506001016105cf565b50806105c7565b0151905038806102d0565b9250846000526020600020906000935b601f1984168510610657576001945083601f1981161061063e575b505050811b0182556102e5565b015160001960f88460031b161c19169055388080610631565b81810151835560209485019460019093019290910190610616565b909150846000526020600020601f840160051c8101602085106106bb575b90849392915b601f830160051c820181106106ac5750506102b9565b60008155859450600101610696565b5080610690565b825162461bcd60e51b815260206004820152600b60248201526a139bdd081cdd195dd85c9960aa1b6044820152606490fd5b346100a35760003660031901126100a3576020906002548152f35b600435906001600160a01b03821682036100a357565b9181601f840112156100a35782359167ffffffffffffffff83116100a357602083818601950101116100a357565b90600182811c92168015610783575b602083101461076d57565b634e487b7160e01b600052602260045260246000fd5b91607f1691610762565b6060810190811067ffffffffffffffff82111761044e57604052565b90601f8019910116810190811067ffffffffffffffff82111761044e57604052565b90604051918260008254926107df84610753565b90818452600194858116908160001461084e575060011461080b575b5050610809925003836107a9565b565b9093915060005260209081600020936000915b818310610836575050610809935082010138806107fb565b8554888401850152948501948794509183019161081e565b91505061080994506020925060ff191682840152151560051b82010138806107fb565b919082519283825260005b84811061089d575050826000602080949584010152601f8019910116010190565b60208183018101518483018201520161087c565b916108da906108cc6108e89593606086526060860190610871565b908482036020860152610871565b916040818403910152610871565b90565b6002548110156109225760026000527f405787fa12a823e0f2b7631cc41b3ba8828b3321ca811111fa75cd3aa3bb5ace0190600090565b634e487b7160e01b600052603260045260246000fd5b92919267ffffffffffffffff821161044e5760405191610962601f8201601f1916602001846107a9565b8294818452818301116100a3578281602093846000960137010152565b908060209392818452848401376000828201840152601f01601f191601019056fea26469706673582212200b58f6565ee2a243d9bb8f81d0d594e401bab3d0fdf73037500d750d21b33a5d64736f6c63430008140033","opcodes":"PUSH1 0x80 DUP1 PUSH1 0x40 MSTORE CALLVALUE PUSH2 0x28 JUMPI PUSH1 0x0 DUP1 SLOAD PUSH1 0x1 PUSH1 0x1 PUSH1 0xA0 SHL SUB NOT AND CALLER OR SWAP1 SSTORE PUSH2 0x9D6 SWAP1 DUP2 PUSH2 0x2E DUP3 CODECOPY RETURN JUMPDEST PUSH1 0x0 DUP1 REVERT INVALID PUSH1 0x80 PUSH1 0x40 SWAP1 DUP1 DUP3 MSTORE PUSH1 0x4 CALLDATASIZE LT ISZERO PUSH2 0x15 JUMPI PUSH1 0x0 DUP1 REVERT JUMPDEST PUSH1 0x0 CALLDATALOAD PUSH1 0xE0 SHR SWAP1 DUP2 PUSH4 0x2A17D4CD EQ PUSH2 0x6F4 JUMPI POP DUP1 PUSH4 0x39456427 EQ PUSH2 0x1B0 JUMPI DUP1 PUSH4 0x5A2ED662 EQ PUSH2 0x150 JUMPI DUP1 PUSH4 0x637EEA19 EQ PUSH2 0x127 JUMPI DUP1 PUSH4 0xCF84C603 EQ PUSH2 0xA8 JUMPI PUSH4 0xF31BEE3E EQ PUSH2 0x63 JUMPI PUSH1 0x0 DUP1 REVERT JUMPDEST CALLVALUE PUSH2 0xA3 JUMPI PUSH1 0x20 CALLDATASIZE PUSH1 0x3 NOT ADD SLT PUSH2 0xA3 JUMPI PUSH1 0x4 CALLDATALOAD SWAP1 PUSH1 0x2 SLOAD DUP3 LT ISZERO PUSH2 0xA3 JUMPI PUSH2 0x8D PUSH1 0x20 SWAP3 PUSH2 0x8EB JUMP JUMPDEST SWAP1 SLOAD SWAP2 MLOAD SWAP2 PUSH1 0x1 DUP1 PUSH1 0xA0 SHL SUB SWAP2 PUSH1 0x3 SHL SHR AND DUP2 MSTORE RETURN JUMPDEST PUSH1 0x0 DUP1 REVERT JUMPDEST POP CALLVALUE PUSH2 0xA3 JUMPI PUSH1 0x20 CALLDATASIZE PUSH1 0x3 NOT ADD SLT PUSH2 0xA3 JUMPI PUSH1 0x1 PUSH1 0x1 PUSH1 0xA0 SHL SUB PUSH2 0xCA PUSH2 0x70F JUMP JUMPDEST AND PUSH1 0x0 MSTORE PUSH1 0x1 PUSH1 0x20 MSTORE DUP1 PUSH1 0x0 KECCAK256 PUSH2 0x123 DUP3 MLOAD PUSH2 0xE5 DUP2 PUSH2 0x78D JUMP JUMPDEST PUSH2 0xEE DUP4 PUSH2 0x7CB JUMP JUMPDEST DUP2 MSTORE PUSH2 0x10F PUSH1 0x2 PUSH2 0x101 PUSH1 0x1 DUP7 ADD PUSH2 0x7CB JUMP JUMPDEST SWAP5 PUSH1 0x20 DUP5 ADD SWAP6 DUP7 MSTORE ADD PUSH2 0x7CB JUMP JUMPDEST SWAP1 DUP2 DUP6 DUP3 ADD MSTORE MLOAD SWAP3 MLOAD SWAP4 MLOAD SWAP4 DUP5 SWAP4 DUP5 PUSH2 0x8B1 JUMP JUMPDEST SUB SWAP1 RETURN JUMPDEST POP CALLVALUE PUSH2 0xA3 JUMPI PUSH1 0x0 CALLDATASIZE PUSH1 0x3 NOT ADD SLT PUSH2 0xA3 JUMPI PUSH1 0x0 SLOAD SWAP1 MLOAD PUSH1 0x1 PUSH1 0x1 PUSH1 0xA0 SHL SUB SWAP1 SWAP2 AND DUP2 MSTORE PUSH1 0x20 SWAP1 RETURN JUMPDEST POP CALLVALUE PUSH2 0xA3 JUMPI PUSH1 0x20 CALLDATASIZE PUSH1 0x3 NOT ADD SLT PUSH2 0xA3 JUMPI PUSH1 0x1 PUSH1 0x1 PUSH1 0xA0 SHL SUB PUSH2 0x172 PUSH2 0x70F JUMP JUMPDEST AND PUSH1 0x0 MSTORE PUSH1 0x1 PUSH1 0x20 MSTORE DUP1 PUSH1 0x0 KECCAK256 SWAP1 PUSH2 0x123 PUSH2 0x18C DUP4 PUSH2 0x7CB JUMP JUMPDEST SWAP2 PUSH2 0x1A5 PUSH1 0x2 PUSH2 0x19E PUSH1 0x1 DUP8 ADD PUSH2 0x7CB JUMP JUMPDEST SWAP6 ADD PUSH2 0x7CB JUMP JUMPDEST SWAP1 MLOAD SWAP4 DUP5 SWAP4 DUP5 PUSH2 0x8B1 JUMP JUMPDEST POP CALLVALUE PUSH2 0xA3 JUMPI PUSH1 0x80 CALLDATASIZE PUSH1 0x3 NOT ADD SLT PUSH2 0xA3 JUMPI PUSH2 0x1CA PUSH2 0x70F JUMP JUMPDEST SWAP1 PUSH1 0x24 CALLDATALOAD PUSH8 0xFFFFFFFFFFFFFFFF DUP2 GT PUSH2 0xA3 JUMPI PUSH2 0x1EB SWAP1 CALLDATASIZE SWAP1 PUSH1 0x4 ADD PUSH2 0x725 JUMP JUMPDEST PUSH1 0x44 CALLDATALOAD PUSH8 0xFFFFFFFFFFFFFFFF DUP2 GT PUSH2 0xA3 JUMPI PUSH2 0x20B SWAP1 CALLDATASIZE SWAP1 PUSH1 0x4 ADD PUSH2 0x725 JUMP JUMPDEST SWAP1 SWAP4 PUSH1 0x64 CALLDATALOAD PUSH8 0xFFFFFFFFFFFFFFFF DUP2 GT PUSH2 0xA3 JUMPI PUSH2 0x22D SWAP1 CALLDATASIZE SWAP1 PUSH1 0x4 ADD PUSH2 0x725 JUMP JUMPDEST PUSH1 0x0 SLOAD SWAP2 SWAP8 SWAP1 SWAP2 PUSH1 0x1 PUSH1 0x1 PUSH1 0xA0 SHL SUB AND CALLER SUB PUSH2 0x6C2 JUMPI DUP3 MLOAD PUSH2 0x24E DUP2 PUSH2 0x78D JUMP JUMPDEST PUSH2 0x259 CALLDATASIZE DUP8 DUP10 PUSH2 0x938 JUMP JUMPDEST DUP2 MSTORE PUSH2 0x266 CALLDATASIZE DUP7 DUP11 PUSH2 0x938 JUMP JUMPDEST PUSH1 0x20 DUP3 ADD MSTORE PUSH2 0x276 CALLDATASIZE DUP5 DUP12 PUSH2 0x938 JUMP JUMPDEST DUP5 DUP3 ADD MSTORE PUSH1 0x1 DUP1 PUSH1 0xA0 SHL SUB DUP3 AND PUSH1 0x0 MSTORE PUSH1 0x1 PUSH1 0x20 MSTORE DUP4 PUSH1 0x0 KECCAK256 SWAP1 DUP1 MLOAD DUP1 MLOAD SWAP1 PUSH8 0xFFFFFFFFFFFFFFFF DUP3 GT PUSH2 0x44E JUMPI DUP2 SWAP1 PUSH2 0x2B0 DUP6 SLOAD PUSH2 0x753 JUMP JUMPDEST PUSH1 0x1F DUP2 GT PUSH2 0x672 JUMPI JUMPDEST POP PUSH1 0x20 SWAP1 PUSH1 0x1F DUP4 GT PUSH1 0x1 EQ PUSH2 0x606 JUMPI PUSH1 0x0 SWAP3 PUSH2 0x5FB JUMPI JUMPDEST POP POP DUP2 PUSH1 0x1 SHL SWAP2 PUSH1 0x0 NOT SWAP1 PUSH1 0x3 SHL SHR NOT AND OR DUP3 SSTORE JUMPDEST PUSH1 0x20 DUP2 ADD MLOAD SWAP1 DUP2 MLOAD PUSH8 0xFFFFFFFFFFFFFFFF DUP2 GT PUSH2 0x44E JUMPI DUP7 SWAP3 PUSH2 0x30B PUSH1 0x1 DUP7 ADD SLOAD PUSH2 0x753 JUMP JUMPDEST PUSH1 0x1F DUP2 GT PUSH2 0x5A4 JUMPI JUMPDEST POP PUSH1 0x20 SWAP1 PUSH1 0x1F DUP4 GT PUSH1 0x1 EQ PUSH2 0x52F JUMPI PUSH1 0x0 SWAP2 SWAP1 DUP4 PUSH2 0x524 JUMPI JUMPDEST POP POP DUP2 PUSH1 0x1 SHL SWAP2 PUSH1 0x0 NOT SWAP1 PUSH1 0x3 SHL SHR NOT AND OR PUSH1 0x1 DUP5 ADD SSTORE JUMPDEST ADD MLOAD DUP1 MLOAD SWAP1 PUSH8 0xFFFFFFFFFFFFFFFF DUP3 GT PUSH2 0x44E JUMPI PUSH2 0x366 PUSH1 0x2 DUP5 ADD SLOAD PUSH2 0x753 JUMP JUMPDEST PUSH1 0x1F DUP2 GT PUSH2 0x4DD JUMPI JUMPDEST POP PUSH1 0x20 SWAP1 PUSH1 0x1F DUP4 GT PUSH1 0x1 EQ PUSH2 0x46F JUMPI PUSH1 0x2 SWAP3 SWAP2 PUSH1 0x0 SWAP2 DUP4 PUSH2 0x464 JUMPI JUMPDEST POP POP DUP2 PUSH1 0x1 SHL SWAP2 PUSH1 0x0 NOT SWAP1 PUSH1 0x3 SHL SHR NOT AND OR SWAP2 ADD SSTORE JUMPDEST PUSH1 0x2 SLOAD PUSH9 0x10000000000000000 DUP2 LT ISZERO PUSH2 0x44E JUMPI PUSH32 0x2E74BC6612814EAED1C3E0132DE9CC8DCC86AB1599ABBC9EB754AE888F24CB19 SWAP8 PUSH2 0x449 SWAP6 PUSH2 0x3EE DUP4 PUSH1 0x1 PUSH2 0x430 SWAP6 ADD PUSH1 0x2 SSTORE PUSH2 0x8EB JUMP JUMPDEST DUP2 SLOAD PUSH1 0x1 PUSH1 0x1 PUSH1 0xA0 SHL SUB DUP8 DUP2 AND PUSH1 0x3 SWAP4 SWAP1 SWAP4 SHL SWAP3 DUP4 SHL SWAP3 SHL NOT AND OR SWAP1 SSTORE DUP6 MLOAD PUSH1 0x60 DUP1 DUP3 MSTORE SWAP1 SWAP10 DUP11 SWAP10 PUSH2 0x422 SWAP3 DUP12 ADD SWAP2 PUSH2 0x97F JUMP JUMPDEST SWAP2 DUP9 DUP4 SUB PUSH1 0x20 DUP11 ADD MSTORE PUSH2 0x97F JUMP JUMPDEST DUP6 DUP2 SUB SWAP4 DUP7 ADD SWAP4 SWAP1 SWAP4 MSTORE PUSH1 0x1 PUSH1 0x1 PUSH1 0xA0 SHL SUB AND SWAP7 PUSH2 0x97F JUMP JUMPDEST SUB SWAP1 LOG2 STOP JUMPDEST PUSH4 0x4E487B71 PUSH1 0xE0 SHL PUSH1 0x0 MSTORE PUSH1 0x41 PUSH1 0x4 MSTORE PUSH1 0x24 PUSH1 0x0 REVERT JUMPDEST ADD MLOAD SWAP1 POP CODESIZE DUP1 PUSH2 0x38B JUMP JUMPDEST SWAP1 PUSH1 0x1F NOT DUP4 AND SWAP2 PUSH1 0x2 DUP6 ADD PUSH1 0x0 MSTORE PUSH1 0x20 PUSH1 0x0 KECCAK256 SWAP3 PUSH1 0x0 JUMPDEST DUP2 DUP2 LT PUSH2 0x4C5 JUMPI POP SWAP2 PUSH1 0x1 SWAP4 SWAP2 DUP6 PUSH1 0x2 SWAP7 SWAP5 LT PUSH2 0x4AC JUMPI JUMPDEST POP POP POP DUP2 SHL ADD SWAP2 ADD SSTORE PUSH2 0x3A1 JUMP JUMPDEST ADD MLOAD PUSH1 0x0 NOT PUSH1 0xF8 DUP5 PUSH1 0x3 SHL AND SHR NOT AND SWAP1 SSTORE CODESIZE DUP1 DUP1 PUSH2 0x49E JUMP JUMPDEST SWAP3 SWAP4 PUSH1 0x20 PUSH1 0x1 DUP2 SWAP3 DUP8 DUP7 ADD MLOAD DUP2 SSTORE ADD SWAP6 ADD SWAP4 ADD PUSH2 0x486 JUMP JUMPDEST PUSH1 0x2 DUP5 ADD PUSH1 0x0 MSTORE PUSH1 0x20 PUSH1 0x0 KECCAK256 PUSH1 0x1F DUP5 ADD PUSH1 0x5 SHR DUP2 ADD PUSH1 0x20 DUP6 LT PUSH2 0x51D JUMPI JUMPDEST PUSH1 0x1F DUP4 ADD PUSH1 0x5 SHR DUP3 ADD DUP2 LT PUSH2 0x511 JUMPI POP POP PUSH2 0x36F JUMP JUMPDEST PUSH1 0x0 DUP2 SSTORE PUSH1 0x1 ADD PUSH2 0x4FB JUMP JUMPDEST POP DUP1 PUSH2 0x4FB JUMP JUMPDEST ADD MLOAD SWAP1 POP CODESIZE DUP1 PUSH2 0x32D JUMP JUMPDEST SWAP4 SWAP3 SWAP2 SWAP1 PUSH1 0x1 DUP7 ADD PUSH1 0x0 MSTORE PUSH1 0x20 PUSH1 0x0 KECCAK256 SWAP1 PUSH1 0x0 JUMPDEST PUSH1 0x1F NOT DUP5 AND DUP2 LT PUSH2 0x589 JUMPI POP PUSH1 0x1 SWAP4 SWAP5 SWAP6 DUP4 PUSH1 0x1F NOT DUP2 AND LT PUSH2 0x570 JUMPI JUMPDEST POP POP POP DUP2 SHL ADD PUSH1 0x1 DUP5 ADD SSTORE PUSH2 0x345 JUMP JUMPDEST ADD MLOAD PUSH1 0x0 NOT PUSH1 0xF8 DUP5 PUSH1 0x3 SHL AND SHR NOT AND SWAP1 SSTORE CODESIZE DUP1 DUP1 PUSH2 0x560 JUMP JUMPDEST DUP7 DUP3 ADD MLOAD DUP4 SSTORE DUP11 SWAP6 POP PUSH1 0x1 SWAP1 SWAP3 ADD SWAP2 PUSH1 0x20 SWAP2 DUP3 ADD SWAP2 ADD PUSH2 0x543 JUMP JUMPDEST SWAP1 SWAP2 SWAP3 SWAP4 POP PUSH1 0x1 DUP6 ADD PUSH1 0x0 MSTORE PUSH1 0x20 PUSH1 0x0 KECCAK256 PUSH1 0x1F DUP5 ADD PUSH1 0x5 SHR DUP2 ADD PUSH1 0x20 DUP6 LT PUSH2 0x5F4 JUMPI JUMPDEST SWAP1 DUP10 SWAP6 SWAP5 SWAP4 SWAP3 SWAP2 JUMPDEST PUSH1 0x1F DUP4 ADD PUSH1 0x5 SHR DUP3 ADD DUP2 LT PUSH2 0x5E5 JUMPI POP POP PUSH2 0x314 JUMP JUMPDEST PUSH1 0x0 DUP2 SSTORE DUP11 SWAP7 POP PUSH1 0x1 ADD PUSH2 0x5CF JUMP JUMPDEST POP DUP1 PUSH2 0x5C7 JUMP JUMPDEST ADD MLOAD SWAP1 POP CODESIZE DUP1 PUSH2 0x2D0 JUMP JUMPDEST SWAP3 POP DUP5 PUSH1 0x0 MSTORE PUSH1 0x20 PUSH1 0x0 KECCAK256 SWAP1 PUSH1 0x0 SWAP4 JUMPDEST PUSH1 0x1F NOT DUP5 AND DUP6 LT PUSH2 0x657 JUMPI PUSH1 0x1 SWAP5 POP DUP4 PUSH1 0x1F NOT DUP2 AND LT PUSH2 0x63E JUMPI JUMPDEST POP POP POP DUP2 SHL ADD DUP3 SSTORE PUSH2 0x2E5 JUMP JUMPDEST ADD MLOAD PUSH1 0x0 NOT PUSH1 0xF8 DUP5 PUSH1 0x3 SHL AND SHR NOT AND SWAP1 SSTORE CODESIZE DUP1 DUP1 PUSH2 0x631 JUMP JUMPDEST DUP2 DUP2 ADD MLOAD DUP4 SSTORE PUSH1 0x20 SWAP5 DUP6 ADD SWAP5 PUSH1 0x1 SWAP1 SWAP4 ADD SWAP3 SWAP1 SWAP2 ADD SWAP1 PUSH2 0x616 JUMP JUMPDEST SWAP1 SWAP2 POP DUP5 PUSH1 0x0 MSTORE PUSH1 0x20 PUSH1 0x0 KECCAK256 PUSH1 0x1F DUP5 ADD PUSH1 0x5 SHR DUP2 ADD PUSH1 0x20 DUP6 LT PUSH2 0x6BB JUMPI JUMPDEST SWAP1 DUP5 SWAP4 SWAP3 SWAP2 JUMPDEST PUSH1 0x1F DUP4 ADD PUSH1 0x5 SHR DUP3 ADD DUP2 LT PUSH2 0x6AC JUMPI POP POP PUSH2 0x2B9 JUMP JUMPDEST PUSH1 0x0 DUP2 SSTORE DUP6 SWAP5 POP PUSH1 0x1 ADD PUSH2 0x696 JUMP JUMPDEST POP DUP1 PUSH2 0x690 JUMP JUMPDEST DUP3 MLOAD PUSH3 0x461BCD PUSH1 0xE5 SHL DUP2 MSTORE PUSH1 0x20 PUSH1 0x4 DUP3 ADD MSTORE PUSH1 0xB PUSH1 0x24 DUP3 ADD MSTORE PUSH11 0x139BDD081CDD195DD85C99 PUSH1 0xAA SHL PUSH1 0x44 DUP3 ADD MSTORE PUSH1 0x64 SWAP1 REVERT JUMPDEST CALLVALUE PUSH2 0xA3 JUMPI PUSH1 0x0 CALLDATASIZE PUSH1 0x3 NOT ADD SLT PUSH2 0xA3 JUMPI PUSH1 0x20 SWAP1 PUSH1 0x2 SLOAD DUP2 MSTORE RETURN JUMPDEST PUSH1 0x4 CALLDATALOAD SWAP1 PUSH1 0x1 PUSH1 0x1 PUSH1 0xA0 SHL SUB DUP3 AND DUP3 SUB PUSH2 0xA3 JUMPI JUMP JUMPDEST SWAP2 DUP2 PUSH1 0x1F DUP5 ADD SLT ISZERO PUSH2 0xA3 JUMPI DUP3 CALLDATALOAD SWAP2 PUSH8 0xFFFFFFFFFFFFFFFF DUP4 GT PUSH2 0xA3 JUMPI PUSH1 0x20 DUP4 DUP2 DUP7 ADD SWAP6 ADD ADD GT PUSH2 0xA3 JUMPI JUMP JUMPDEST SWAP1 PUSH1 0x1 DUP3 DUP2 SHR SWAP3 AND DUP1 ISZERO PUSH2 0x783 JUMPI JUMPDEST PUSH1 0x20 DUP4 LT EQ PUSH2 0x76D JUMPI JUMP JUMPDEST PUSH4 0x4E487B71 PUSH1 0xE0 SHL PUSH1 0x0 MSTORE PUSH1 0x22 PUSH1 0x4 MSTORE PUSH1 0x24 PUSH1 0x0 REVERT JUMPDEST SWAP2 PUSH1 0x7F AND SWAP2 PUSH2 0x762 JUMP JUMPDEST PUSH1 0x60 DUP2 ADD SWAP1 DUP2 LT PUSH8 0xFFFFFFFFFFFFFFFF DUP3 GT OR PUSH2 0x44E JUMPI PUSH1 0x40 MSTORE JUMP JUMPDEST SWAP1 PUSH1 0x1F DUP1 NOT SWAP2 ADD AND DUP2 ADD SWAP1 DUP2 LT PUSH8 0xFFFFFFFFFFFFFFFF DUP3 GT OR PUSH2 0x44E JUMPI PUSH1 0x40 MSTORE JUMP JUMPDEST SWAP1 PUSH1 0x40 MLOAD SWAP2 DUP3 PUSH1 0x0 DUP3 SLOAD SWAP3 PUSH2 0x7DF DUP5 PUSH2 0x753 JUMP JUMPDEST SWAP1 DUP2 DUP5 MSTORE PUSH1 0x1 SWAP5 DUP6 DUP2 AND SWAP1 DUP2 PUSH1 0x0 EQ PUSH2 0x84E JUMPI POP PUSH1 0x1 EQ PUSH2 0x80B JUMPI JUMPDEST POP POP PUSH2 0x809 SWAP3 POP SUB DUP4 PUSH2 0x7A9 JUMP JUMPDEST JUMP JUMPDEST SWAP1 SWAP4 SWAP2 POP PUSH1 0x0 MSTORE PUSH1 0x20 SWAP1 DUP2 PUSH1 0x0 KECCAK256 SWAP4 PUSH1 0x0 SWAP2 JUMPDEST DUP2 DUP4 LT PUSH2 0x836 JUMPI POP POP PUSH2 0x809 SWAP4 POP DUP3 ADD ADD CODESIZE DUP1 PUSH2 0x7FB JUMP JUMPDEST DUP6 SLOAD DUP9 DUP5 ADD DUP6 ADD MSTORE SWAP5 DUP6 ADD SWAP5 DUP8 SWAP5 POP SWAP2 DUP4 ADD SWAP2 PUSH2 0x81E JUMP JUMPDEST SWAP2 POP POP PUSH2 0x809 SWAP5 POP PUSH1 0x20 SWAP3 POP PUSH1 0xFF NOT AND DUP3 DUP5 ADD MSTORE ISZERO ISZERO PUSH1 0x5 SHL DUP3 ADD ADD CODESIZE DUP1 PUSH2 0x7FB JUMP JUMPDEST SWAP2 SWAP1 DUP3 MLOAD SWAP3 DUP4 DUP3 MSTORE PUSH1 0x0 JUMPDEST DUP5 DUP2 LT PUSH2 0x89D JUMPI POP POP DUP3 PUSH1 0x0 PUSH1 0x20 DUP1 SWAP5 SWAP6 DUP5 ADD ADD MSTORE PUSH1 0x1F DUP1 NOT SWAP2 ADD AND ADD ADD SWAP1 JUMP JUMPDEST PUSH1 0x20 DUP2 DUP4 ADD DUP2 ADD MLOAD DUP5 DUP4 ADD DUP3 ADD MSTORE ADD PUSH2 0x87C JUMP JUMPDEST SWAP2 PUSH2 0x8DA SWAP1 PUSH2 0x8CC PUSH2 0x8E8 SWAP6 SWAP4 PUSH1 0x60 DUP7 MSTORE PUSH1 0x60 DUP7 ADD SWAP1 PUSH2 0x871 JUMP JUMPDEST SWAP1 DUP5 DUP3 SUB PUSH1 0x20 DUP7 ADD MSTORE PUSH2 0x871 JUMP JUMPDEST SWAP2 PUSH1 0x40 DUP2 DUP5 SUB SWAP2 ADD MSTORE PUSH2 0x871 JUMP JUMPDEST SWAP1 JUMP JUMPDEST PUSH1 0x2 SLOAD DUP2 LT ISZERO PUSH2 0x922 JUMPI PUSH1 0x2 PUSH1 0x0 MSTORE PUSH32 0x405787FA12A823E0F2B7631CC41B3BA8828B3321CA811111FA75CD3AA3BB5ACE ADD SWAP1 PUSH1 0x0 SWAP1 JUMP JUMPDEST PUSH4 0x4E487B71 PUSH1 0xE0 SHL PUSH1 0x0 MSTORE PUSH1 0x32 PUSH1 0x4 MSTORE PUSH1 0x24 PUSH1 0x0 REVERT JUMPDEST SWAP3 SWAP2 SWAP3 PUSH8 0xFFFFFFFFFFFFFFFF DUP3 GT PUSH2 0x44E JUMPI PUSH1 0x40 MLOAD SWAP2 PUSH2 0x962 PUSH1 0x1F DUP3 ADD PUSH1 0x1F NOT AND PUSH1 0x20 ADD DUP5 PUSH2 0x7A9 JUMP JUMPDEST DUP3 SWAP5 DUP2 DUP5 MSTORE DUP2 DUP4 ADD GT PUSH2 0xA3 JUMPI DUP3 DUP2 PUSH1 0x20 SWAP4 DUP5 PUSH1 0x0 SWAP7 ADD CALLDATACOPY ADD ADD MSTORE JUMP JUMPDEST SWAP1 DUP1 PUSH1 0x20 SWAP4 SWAP3 DUP2 DUP5 MSTORE DUP5 DUP5 ADD CALLDATACOPY PUSH1 0x0 DUP3 DUP3 ADD DUP5 ADD MSTORE PUSH1 0x1F ADD PUSH1 0x1F NOT AND ADD ADD SWAP1 JUMP INVALID LOG2 PUSH5 0x6970667358 0x22 SLT KECCAK256 SIGNEXTEND PC 0xF6 JUMP 0x5E 0xE2 LOG2 NUMBER 0xD9 0xBB DUP16 DUP2 0xD0 0xD5 SWAP5 0xE4 ADD 0xBA 0xB3 0xD0 REVERT 0xF7 ADDRESS CALLDATACOPY POP 0xD PUSH22 0xD21B33A5D64736F6C63430008140033000000000000 "},"methodIdentifiers":{"apprentices(uint256)":"f31bee3e","getSummons(address)":"cf84c603","steward()":"637eea19","summonApprentice(address,string,string,string)":"39456427","summons(address)":"5a2ed662","totalSummons()":"2a17d4cd"}}}}}