{"contracts/Velmari.sol":{"Velmari":{"abi":[{"anonymous":false,"inputs":[{"indexed":true,"internalType":"address","name":"apprentice","type":"address"},{"indexed":false,"internalType":"string","name":"signal","type":"string"}],"name":"TideEchoed","type":"event"},{"anonymous":false,"inputs":[{"indexed":true,"internalType":"address","name":"apprentice","type":"address"}],"name":"VelmariCrowned","type":"event"},{"inputs":[{"internalType":"address","name":"apprentice","type":"address"},{"internalType":"string","name":"signal","type":"string"}],"name":"conduct","outputs":[],"stateMutability":"nonpayable","type":"function"},{"inputs":[{"internalType":"address","name":"apprentice","type":"address"}],"name":"crown","outputs":[],"stateMutability":"nonpayable","type":"function"},{"inputs":[{"internalType":"address","name":"","type":"address"}],"name":"crowned","outputs":[{"internalType":"bool","name":"","type":"bool"}],"stateMutability":"view","type":"function"},{"inputs":[{"internalType":"address","name":"apprentice","type":"address"}],"name":"echoTide","outputs":[{"internalType":"string","name":"","type":"string"}],"stateMutability":"view","type":"function"},{"inputs":[{"internalType":"address","name":"","type":"address"}],"name":"tides","outputs":[{"internalType":"string","name":"","type":"string"}],"stateMutability":"view","type":"function"}],"evm":{"bytecode":{"linkReferences":{},"object":"60808060405234610016576105b8908161001c8239f35b600080fdfe604060808152600436101561001357600080fd5b600090813560e01c80635dca160714610365578063996947ce146103295780639b0fd77c146102ef5780639c9c77ba146100b85763bec5f80b1461005657600080fd5b346100b45760203660031901126100b4576100b0916100a59082906001600160a01b036100816103c4565b168082528160205261009860ff8484205416610540565b8152600160205220610451565b9051918291826104f7565b0390f35b5080fd5b50346100b457806003193601126100b4576100d16103c4565b67ffffffffffffffff916024358381116102eb57366023820112156102eb578060040135938085116102d75782519386602093601f1997610119868a601f8401160189610419565b80885236602482840101116102d357806024879301838a0137870101526001600160a01b0316808752868352838720549095906101589060ff16610540565b8587526001908184528488209386519384116102bf5761017885546103df565b601f8111610279575b508091601f85116001146101f05750509180807f6b9fea058e09ec61ecb7e7171c71ee347c27d915aacd98d12206b3403fc8ac679795936101df97958b936101e5575b501b916000199060031b1c19161790555b51918291826104f7565b0390a280f35b8701519250386101c4565b84939492919216858a52828a20928a905b8282106102625750509183917f6b9fea058e09ec61ecb7e7171c71ee347c27d915aacd98d12206b3403fc8ac679896946101df98969410610249575b5050811b0190556101d5565b86015160001960f88460031b161c19169055388061023d565b808785968294968d01518155019501930190610201565b858a52818a20601f860160051c8101918387106102b5575b601f0160051c019084905b8281106102aa575050610181565b8b815501849061029c565b9091508190610291565b634e487b7160e01b89526041600452602489fd5b8280fd5b634e487b7160e01b86526041600452602486fd5b8480fd5b50346100b45760203660031901126100b4576100b0916100a59082906001600160a01b0361031b6103c4565b168152600160205220610451565b50346100b45760203660031901126100b45760209160ff9082906001600160a01b036103536103c4565b16815280855220541690519015158152f35b50346100b45760203660031901126100b4576001600160a01b036103876103c4565b1690818352826020528220600160ff198254161790557f1cddd5750653c6a740ce5b16900bede74f9d19b83fd167b549ce9125ddfc932b8280a280f35b600435906001600160a01b03821682036103da57565b600080fd5b90600182811c9216801561040f575b60208310146103f957565b634e487b7160e01b600052602260045260246000fd5b91607f16916103ee565b90601f8019910116810190811067ffffffffffffffff82111761043b57604052565b634e487b7160e01b600052604160045260246000fd5b9060405191826000825492610465846103df565b9081845260019485811690816000146104d45750600114610491575b505061048f92500383610419565b565b9093915060005260209081600020936000915b8183106104bc57505061048f93508201013880610481565b855488840185015294850194879450918301916104a4565b91505061048f94506020925060ff191682840152151560051b8201013880610481565b6020808252825181830181905290939260005b82811061052c57505060409293506000838284010152601f8019910116010190565b81810186015184820160400152850161050a565b1561054757565b60405162461bcd60e51b815260206004820152601360248201527215995b1b585c9a481b9bdd0818dc9bdddb9959606a1b6044820152606490fdfea2646970667358221220d33eade594c9a159164dc4edc58e66764c69f72d8ecb20a6c769786321981c3464736f6c63430008140033","opcodes":"PUSH1 0x80 DUP1 PUSH1 0x40 MSTORE CALLVALUE PUSH2 0x16 JUMPI PUSH2 0x5B8 SWAP1 DUP2 PUSH2 0x1C DUP3 CODECOPY RETURN JUMPDEST PUSH1 0x0 DUP1 REVERT INVALID PUSH1 0x40 PUSH1 0x80 DUP2 MSTORE PUSH1 0x4 CALLDATASIZE LT ISZERO PUSH2 0x13 JUMPI PUSH1 0x0 DUP1 REVERT JUMPDEST PUSH1 0x0 SWAP1 DUP2 CALLDATALOAD PUSH1 0xE0 SHR DUP1 PUSH4 0x5DCA1607 EQ PUSH2 0x365 JUMPI DUP1 PUSH4 0x996947CE EQ PUSH2 0x329 JUMPI DUP1 PUSH4 0x9B0FD77C EQ PUSH2 0x2EF JUMPI DUP1 PUSH4 0x9C9C77BA EQ PUSH2 0xB8 JUMPI PUSH4 0xBEC5F80B EQ PUSH2 0x56 JUMPI PUSH1 0x0 DUP1 REVERT JUMPDEST CALLVALUE PUSH2 0xB4 JUMPI PUSH1 0x20 CALLDATASIZE PUSH1 0x3 NOT ADD SLT PUSH2 0xB4 JUMPI PUSH2 0xB0 SWAP2 PUSH2 0xA5 SWAP1 DUP3 SWAP1 PUSH1 0x1 PUSH1 0x1 PUSH1 0xA0 SHL SUB PUSH2 0x81 PUSH2 0x3C4 JUMP JUMPDEST AND DUP1 DUP3 MSTORE DUP2 PUSH1 0x20 MSTORE PUSH2 0x98 PUSH1 0xFF DUP5 DUP5 KECCAK256 SLOAD AND PUSH2 0x540 JUMP JUMPDEST DUP2 MSTORE PUSH1 0x1 PUSH1 0x20 MSTORE KECCAK256 PUSH2 0x451 JUMP JUMPDEST SWAP1 MLOAD SWAP2 DUP3 SWAP2 DUP3 PUSH2 0x4F7 JUMP JUMPDEST SUB SWAP1 RETURN JUMPDEST POP DUP1 REVERT JUMPDEST POP CALLVALUE PUSH2 0xB4 JUMPI DUP1 PUSH1 0x3 NOT CALLDATASIZE ADD SLT PUSH2 0xB4 JUMPI PUSH2 0xD1 PUSH2 0x3C4 JUMP JUMPDEST PUSH8 0xFFFFFFFFFFFFFFFF SWAP2 PUSH1 0x24 CALLDATALOAD DUP4 DUP2 GT PUSH2 0x2EB JUMPI CALLDATASIZE PUSH1 0x23 DUP3 ADD SLT ISZERO PUSH2 0x2EB JUMPI DUP1 PUSH1 0x4 ADD CALLDATALOAD SWAP4 DUP1 DUP6 GT PUSH2 0x2D7 JUMPI DUP3 MLOAD SWAP4 DUP7 PUSH1 0x20 SWAP4 PUSH1 0x1F NOT SWAP8 PUSH2 0x119 DUP7 DUP11 PUSH1 0x1F DUP5 ADD AND ADD DUP10 PUSH2 0x419 JUMP JUMPDEST DUP1 DUP9 MSTORE CALLDATASIZE PUSH1 0x24 DUP3 DUP5 ADD ADD GT PUSH2 0x2D3 JUMPI DUP1 PUSH1 0x24 DUP8 SWAP4 ADD DUP4 DUP11 ADD CALLDATACOPY DUP8 ADD ADD MSTORE PUSH1 0x1 PUSH1 0x1 PUSH1 0xA0 SHL SUB AND DUP1 DUP8 MSTORE DUP7 DUP4 MSTORE DUP4 DUP8 KECCAK256 SLOAD SWAP1 SWAP6 SWAP1 PUSH2 0x158 SWAP1 PUSH1 0xFF AND PUSH2 0x540 JUMP JUMPDEST DUP6 DUP8 MSTORE PUSH1 0x1 SWAP1 DUP2 DUP5 MSTORE DUP5 DUP9 KECCAK256 SWAP4 DUP7 MLOAD SWAP4 DUP5 GT PUSH2 0x2BF JUMPI PUSH2 0x178 DUP6 SLOAD PUSH2 0x3DF JUMP JUMPDEST PUSH1 0x1F DUP2 GT PUSH2 0x279 JUMPI JUMPDEST POP DUP1 SWAP2 PUSH1 0x1F DUP6 GT PUSH1 0x1 EQ PUSH2 0x1F0 JUMPI POP POP SWAP2 DUP1 DUP1 PUSH32 0x6B9FEA058E09EC61ECB7E7171C71EE347C27D915AACD98D12206B3403FC8AC67 SWAP8 SWAP6 SWAP4 PUSH2 0x1DF SWAP8 SWAP6 DUP12 SWAP4 PUSH2 0x1E5 JUMPI JUMPDEST POP SHL SWAP2 PUSH1 0x0 NOT SWAP1 PUSH1 0x3 SHL SHR NOT AND OR SWAP1 SSTORE JUMPDEST MLOAD SWAP2 DUP3 SWAP2 DUP3 PUSH2 0x4F7 JUMP JUMPDEST SUB SWAP1 LOG2 DUP1 RETURN JUMPDEST DUP8 ADD MLOAD SWAP3 POP CODESIZE PUSH2 0x1C4 JUMP JUMPDEST DUP5 SWAP4 SWAP5 SWAP3 SWAP2 SWAP3 AND DUP6 DUP11 MSTORE DUP3 DUP11 KECCAK256 SWAP3 DUP11 SWAP1 JUMPDEST DUP3 DUP3 LT PUSH2 0x262 JUMPI POP POP SWAP2 DUP4 SWAP2 PUSH32 0x6B9FEA058E09EC61ECB7E7171C71EE347C27D915AACD98D12206B3403FC8AC67 SWAP9 SWAP7 SWAP5 PUSH2 0x1DF SWAP9 SWAP7 SWAP5 LT PUSH2 0x249 JUMPI JUMPDEST POP POP DUP2 SHL ADD SWAP1 SSTORE PUSH2 0x1D5 JUMP JUMPDEST DUP7 ADD MLOAD PUSH1 0x0 NOT PUSH1 0xF8 DUP5 PUSH1 0x3 SHL AND SHR NOT AND SWAP1 SSTORE CODESIZE DUP1 PUSH2 0x23D JUMP JUMPDEST DUP1 DUP8 DUP6 SWAP7 DUP3 SWAP5 SWAP7 DUP14 ADD MLOAD DUP2 SSTORE ADD SWAP6 ADD SWAP4 ADD SWAP1 PUSH2 0x201 JUMP JUMPDEST DUP6 DUP11 MSTORE DUP2 DUP11 KECCAK256 PUSH1 0x1F DUP7 ADD PUSH1 0x5 SHR DUP2 ADD SWAP2 DUP4 DUP8 LT PUSH2 0x2B5 JUMPI JUMPDEST PUSH1 0x1F ADD PUSH1 0x5 SHR ADD SWAP1 DUP5 SWAP1 JUMPDEST DUP3 DUP2 LT PUSH2 0x2AA JUMPI POP POP PUSH2 0x181 JUMP JUMPDEST DUP12 DUP2 SSTORE ADD DUP5 SWAP1 PUSH2 0x29C JUMP JUMPDEST SWAP1 SWAP2 POP DUP2 SWAP1 PUSH2 0x291 JUMP JUMPDEST PUSH4 0x4E487B71 PUSH1 0xE0 SHL DUP10 MSTORE PUSH1 0x41 PUSH1 0x4 MSTORE PUSH1 0x24 DUP10 REVERT JUMPDEST DUP3 DUP1 REVERT JUMPDEST PUSH4 0x4E487B71 PUSH1 0xE0 SHL DUP7 MSTORE PUSH1 0x41 PUSH1 0x4 MSTORE PUSH1 0x24 DUP7 REVERT JUMPDEST DUP5 DUP1 REVERT JUMPDEST POP CALLVALUE PUSH2 0xB4 JUMPI PUSH1 0x20 CALLDATASIZE PUSH1 0x3 NOT ADD SLT PUSH2 0xB4 JUMPI PUSH2 0xB0 SWAP2 PUSH2 0xA5 SWAP1 DUP3 SWAP1 PUSH1 0x1 PUSH1 0x1 PUSH1 0xA0 SHL SUB PUSH2 0x31B PUSH2 0x3C4 JUMP JUMPDEST AND DUP2 MSTORE PUSH1 0x1 PUSH1 0x20 MSTORE KECCAK256 PUSH2 0x451 JUMP JUMPDEST POP CALLVALUE PUSH2 0xB4 JUMPI PUSH1 0x20 CALLDATASIZE PUSH1 0x3 NOT ADD SLT PUSH2 0xB4 JUMPI PUSH1 0x20 SWAP2 PUSH1 0xFF SWAP1 DUP3 SWAP1 PUSH1 0x1 PUSH1 0x1 PUSH1 0xA0 SHL SUB PUSH2 0x353 PUSH2 0x3C4 JUMP JUMPDEST AND DUP2 MSTORE DUP1 DUP6 MSTORE KECCAK256 SLOAD AND SWAP1 MLOAD SWAP1 ISZERO ISZERO DUP2 MSTORE RETURN JUMPDEST POP CALLVALUE PUSH2 0xB4 JUMPI PUSH1 0x20 CALLDATASIZE PUSH1 0x3 NOT ADD SLT PUSH2 0xB4 JUMPI PUSH1 0x1 PUSH1 0x1 PUSH1 0xA0 SHL SUB PUSH2 0x387 PUSH2 0x3C4 JUMP JUMPDEST AND SWAP1 DUP2 DUP4 MSTORE DUP3 PUSH1 0x20 MSTORE DUP3 KECCAK256 PUSH1 0x1 PUSH1 0xFF NOT DUP3 SLOAD AND OR SWAP1 SSTORE PUSH32 0x1CDDD5750653C6A740CE5B16900BEDE74F9D19B83FD167B549CE9125DDFC932B DUP3 DUP1 LOG2 DUP1 RETURN JUMPDEST PUSH1 0x4 CALLDATALOAD SWAP1 PUSH1 0x1 PUSH1 0x1 PUSH1 0xA0 SHL SUB DUP3 AND DUP3 SUB PUSH2 0x3DA JUMPI JUMP JUMPDEST PUSH1 0x0 DUP1 REVERT JUMPDEST SWAP1 PUSH1 0x1 DUP3 DUP2 SHR SWAP3 AND DUP1 ISZERO PUSH2 0x40F JUMPI JUMPDEST PUSH1 0x20 DUP4 LT EQ PUSH2 0x3F9 JUMPI JUMP JUMPDEST PUSH4 0x4E487B71 PUSH1 0xE0 SHL PUSH1 0x0 MSTORE PUSH1 0x22 PUSH1 0x4 MSTORE PUSH1 0x24 PUSH1 0x0 REVERT JUMPDEST SWAP2 PUSH1 0x7F AND SWAP2 PUSH2 0x3EE JUMP JUMPDEST SWAP1 PUSH1 0x1F DUP1 NOT SWAP2 ADD AND DUP2 ADD SWAP1 DUP2 LT PUSH8 0xFFFFFFFFFFFFFFFF DUP3 GT OR PUSH2 0x43B JUMPI PUSH1 0x40 MSTORE JUMP JUMPDEST PUSH4 0x4E487B71 PUSH1 0xE0 SHL PUSH1 0x0 MSTORE PUSH1 0x41 PUSH1 0x4 MSTORE PUSH1 0x24 PUSH1 0x0 REVERT JUMPDEST SWAP1 PUSH1 0x40 MLOAD SWAP2 DUP3 PUSH1 0x0 DUP3 SLOAD SWAP3 PUSH2 0x465 DUP5 PUSH2 0x3DF JUMP JUMPDEST SWAP1 DUP2 DUP5 MSTORE PUSH1 0x1 SWAP5 DUP6 DUP2 AND SWAP1 DUP2 PUSH1 0x0 EQ PUSH2 0x4D4 JUMPI POP PUSH1 0x1 EQ PUSH2 0x491 JUMPI JUMPDEST POP POP PUSH2 0x48F SWAP3 POP SUB DUP4 PUSH2 0x419 JUMP JUMPDEST JUMP JUMPDEST SWAP1 SWAP4 SWAP2 POP PUSH1 0x0 MSTORE PUSH1 0x20 SWAP1 DUP2 PUSH1 0x0 KECCAK256 SWAP4 PUSH1 0x0 SWAP2 JUMPDEST DUP2 DUP4 LT PUSH2 0x4BC JUMPI POP POP PUSH2 0x48F SWAP4 POP DUP3 ADD ADD CODESIZE DUP1 PUSH2 0x481 JUMP JUMPDEST DUP6 SLOAD DUP9 DUP5 ADD DUP6 ADD MSTORE SWAP5 DUP6 ADD SWAP5 DUP8 SWAP5 POP SWAP2 DUP4 ADD SWAP2 PUSH2 0x4A4 JUMP JUMPDEST SWAP2 POP POP PUSH2 0x48F SWAP5 POP PUSH1 0x20 SWAP3 POP PUSH1 0xFF NOT AND DUP3 DUP5 ADD MSTORE ISZERO ISZERO PUSH1 0x5 SHL DUP3 ADD ADD CODESIZE DUP1 PUSH2 0x481 JUMP JUMPDEST PUSH1 0x20 DUP1 DUP3 MSTORE DUP3 MLOAD DUP2 DUP4 ADD DUP2 SWAP1 MSTORE SWAP1 SWAP4 SWAP3 PUSH1 0x0 JUMPDEST DUP3 DUP2 LT PUSH2 0x52C JUMPI POP POP PUSH1 0x40 SWAP3 SWAP4 POP PUSH1 0x0 DUP4 DUP3 DUP5 ADD ADD MSTORE PUSH1 0x1F DUP1 NOT SWAP2 ADD AND ADD ADD SWAP1 JUMP JUMPDEST DUP2 DUP2 ADD DUP7 ADD MLOAD DUP5 DUP3 ADD PUSH1 0x40 ADD MSTORE DUP6 ADD PUSH2 0x50A JUMP JUMPDEST ISZERO PUSH2 0x547 JUMPI JUMP JUMPDEST PUSH1 0x40 MLOAD PUSH3 0x461BCD PUSH1 0xE5 SHL DUP2 MSTORE PUSH1 0x20 PUSH1 0x4 DUP3 ADD MSTORE PUSH1 0x13 PUSH1 0x24 DUP3 ADD MSTORE PUSH19 0x15995B1B585C9A481B9BDD0818DC9BDDDB9959 PUSH1 0x6A SHL PUSH1 0x44 DUP3 ADD MSTORE PUSH1 0x64 SWAP1 REVERT INVALID LOG2 PUSH5 0x6970667358 0x22 SLT KECCAK256 0xD3 RETURNDATACOPY 0xAD 0xE5 SWAP5 0xC9 LOG1 MSIZE AND 0x4D 0xC4 0xED 0xC5 DUP15 PUSH7 0x764C69F72D8ECB KECCAK256 0xA6 0xC7 PUSH10 0x786321981C3464736F6C PUSH4 0x43000814 STOP CALLER "},"methodIdentifiers":{"conduct(address,string)":"9c9c77ba","crown(address)":"5dca1607","crowned(address)":"996947ce","echoTide(address)":"bec5f80b","tides(address)":"9b0fd77c"}}}}}