{"contracts/registry/MythlineSummoner.sol":{"MythlineSummoner":{"abi":[{"inputs":[],"stateMutability":"nonpayable","type":"constructor"},{"anonymous":false,"inputs":[{"indexed":true,"internalType":"address","name":"entity","type":"address"},{"indexed":false,"internalType":"string","name":"name","type":"string"},{"indexed":false,"internalType":"string","name":"drift","type":"string"},{"indexed":false,"internalType":"string","name":"pulse","type":"string"},{"indexed":false,"internalType":"string","name":"codexRef","type":"string"}],"name":"EntitySummoned","type":"event"},{"inputs":[{"internalType":"address","name":"","type":"address"}],"name":"entities","outputs":[{"internalType":"string","name":"name","type":"string"},{"internalType":"string","name":"drift","type":"string"},{"internalType":"string","name":"pulse","type":"string"},{"internalType":"string","name":"codexRef","type":"string"}],"stateMutability":"view","type":"function"},{"inputs":[{"internalType":"address","name":"entity","type":"address"}],"name":"getEntity","outputs":[{"internalType":"string","name":"","type":"string"},{"internalType":"string","name":"","type":"string"},{"internalType":"string","name":"","type":"string"},{"internalType":"string","name":"","type":"string"}],"stateMutability":"view","type":"function"},{"inputs":[{"internalType":"uint256","name":"","type":"uint256"}],"name":"keys","outputs":[{"internalType":"address","name":"","type":"address"}],"stateMutability":"view","type":"function"},{"inputs":[],"name":"steward","outputs":[{"internalType":"address","name":"","type":"address"}],"stateMutability":"view","type":"function"},{"inputs":[{"internalType":"address","name":"entity","type":"address"},{"internalType":"string","name":"name","type":"string"},{"internalType":"string","name":"drift","type":"string"},{"internalType":"string","name":"pulse","type":"string"},{"internalType":"string","name":"codexRef","type":"string"}],"name":"summonEntity","outputs":[],"stateMutability":"nonpayable","type":"function"},{"inputs":[],"name":"totalEntities","outputs":[{"internalType":"uint256","name":"","type":"uint256"}],"stateMutability":"view","type":"function"}],"evm":{"bytecode":{"linkReferences":{},"object":"6080806040523461002857600080546001600160a01b03191633179055610bb4908161002e8239f35b600080fdfe6080604052600436101561001257600080fd5b60003560e01c80630cb6aaf1146108845780631d8ee48a146108175780635cd8b15e146107f9578063637eea19146107d057806375894e8c146107385763db0fdc051461005e57600080fd5b346107335760a036600319011261073357610077610913565b6024803567ffffffffffffffff811161073357610098903690600401610ae8565b60443567ffffffffffffffff8111610733576100b8903690600401610ae8565b9060643567ffffffffffffffff8111610733576100d9903690600401610ae8565b909160843567ffffffffffffffff8111610733576100fb903690600401610ae8565b60005491989095916001600160a01b031633036107015760405161011e81610963565b61012936898b610b16565b8152610136368486610b16565b6020820152610146368688610b16565b604082015261015636888c610b16565b606082015260018060a01b038b166000526001602052604060002090805180519067ffffffffffffffff82116105555781906101928554610929565b601f81116106b1575b50602090601f83116001146106455760009261063a575b50508160011b916000199060031b1c19161782555b602081015180519067ffffffffffffffff82116105555781906101ed6001860154610929565b601f81116105e7575b50602090601f83116001146105755760009261056a575b50508160011b916000199060031b1c19161760018301555b604081015180519067ffffffffffffffff8211610555576102496002850154610929565b601f811161050e575b50602090601f831160011461049b57606093929160009183610490575b50508160011b916000199060031b1c19161760028401555b015180519067ffffffffffffffff821161047b576102a86003840154610929565b601f8111610434575b50602090601f83116001146103c75760039291600091836103bc575b50508160011b9160001990841b1c1916179101555b60025490680100000000000000008210156103a857509261037c61038a937faa109915a315eda571654aaa143e6d629921a6f1bbc6b23ecbad157e2d558ca79a9b96936103398760016103a39b99016002556108c6565b81546001600160a01b038b811660039390931b92831b921b19161790556040516080808252909b8c9b61036e928d0191610b5d565b918a830360208c0152610b5d565b918783036040890152610b5d565b84810360608601526001600160a01b0390921696610b5d565b0390a2005b634e487b7160e01b60009081526041600452fd5b0151905038806102cd565b90601f198316916003850160005260206000209260005b81811061041c57509160019391856003969410610404575b505050811b019101556102e2565b015160001983861b60f8161c191690553880806103f6565b929360206001819287860151815501950193016103de565b600384016000526020600020601f840160051c810160208510610474575b601f830160051c820181106104685750506102b1565b60008155600101610452565b5080610452565b83634e487b7160e01b60005260416004526000fd5b01519050388061026f565b906002850160005260206000209160005b601f19851681106104f6575091839160019360609695601f198116106104dd575b505050811b016002840155610287565b015160001960f88460031b161c191690553880806104cd565b919260206001819286850151815501940192016104ac565b600285016000526020600020601f840160051c81016020851061054e575b601f830160051c82018110610542575050610252565b6000815560010161052c565b508061052c565b84634e487b7160e01b60005260416004526000fd5b01519050388061020d565b9250600185016000526020600020906000935b601f19841685106105cc576001945083601f198116106105b3575b505050811b016001830155610225565b015160001960f88460031b161c191690553880806105a3565b81810151835560209485019460019093019290910190610588565b909150600185016000526020600020601f840160051c810160208510610633575b90849392915b601f830160051c820181106106245750506101f6565b6000815585945060010161060e565b5080610608565b0151905038806101b2565b9250846000526020600020906000935b601f1984168510610696576001945083601f1981161061067d575b505050811b0182556101c7565b015160001960f88460031b161c19169055388080610670565b81810151835560209485019460019093019290910190610655565b909150846000526020600020601f840160051c8101602085106106fa575b90849392915b601f830160051c820181106106eb57505061019b565b600081558594506001016106d5565b50806106cf565b606490600b6040519162461bcd60e51b8352602060048401528201526a139bdd081cdd195dd85c9960aa1b6044820152fd5b600080fd5b34610733576020366003190112610733576001600160a01b03610759610913565b166000526001602052604060002060405161077381610963565b61077c826109b7565b81526107cc61078d600184016109b7565b91602081019283526107b460036107a6600287016109b7565b9560408401968752016109b7565b90816060820152519251935160405194859485610a9d565b0390f35b34610733576000366003190112610733576000546040516001600160a01b039091168152602090f35b34610733576000366003190112610733576020600254604051908152f35b34610733576020366003190112610733576001600160a01b03610838610913565b166000526001602052604060002061084f816109b7565b6107cc61085e600184016109b7565b926108776003610870600284016109b7565b92016109b7565b9060405194859485610a9d565b3461073357602036600319011261073357600435600254811015610733576108ad6020916108c6565b905460405160039290921b1c6001600160a01b03168152f35b6002548110156108fd5760026000527f405787fa12a823e0f2b7631cc41b3ba8828b3321ca811111fa75cd3aa3bb5ace0190600090565b634e487b7160e01b600052603260045260246000fd5b600435906001600160a01b038216820361073357565b90600182811c92168015610959575b602083101461094357565b634e487b7160e01b600052602260045260246000fd5b91607f1691610938565b6080810190811067ffffffffffffffff82111761097f57604052565b634e487b7160e01b600052604160045260246000fd5b90601f8019910116810190811067ffffffffffffffff82111761097f57604052565b90604051918260008254926109cb84610929565b908184526001948581169081600014610a3a57506001146109f7575b50506109f592500383610995565b565b9093915060005260209081600020936000915b818310610a225750506109f5935082010138806109e7565b85548884018501529485019487945091830191610a0a565b9150506109f594506020925060ff191682840152151560051b82010138806109e7565b919082519283825260005b848110610a89575050826000602080949584010152601f8019910116010190565b602081830181015184830182015201610a68565b92610ac9610ae59593610abb610ad794608088526080880190610a5d565b908682036020880152610a5d565b908482036040860152610a5d565b916060818403910152610a5d565b90565b9181601f840112156107335782359167ffffffffffffffff8311610733576020838186019501011161073357565b92919267ffffffffffffffff821161097f5760405191610b40601f8201601f191660200184610995565b829481845281830111610733578281602093846000960137010152565b908060209392818452848401376000828201840152601f01601f191601019056fea2646970667358221220fa1c22795add834d022ab3e9b336cb7f6bc3d328a3338957040af3357c84495c64736f6c63430008140033","opcodes":"PUSH1 0x80 DUP1 PUSH1 0x40 MSTORE CALLVALUE PUSH2 0x28 JUMPI PUSH1 0x0 DUP1 SLOAD PUSH1 0x1 PUSH1 0x1 PUSH1 0xA0 SHL SUB NOT AND CALLER OR SWAP1 SSTORE PUSH2 0xBB4 SWAP1 DUP2 PUSH2 0x2E DUP3 CODECOPY RETURN JUMPDEST PUSH1 0x0 DUP1 REVERT INVALID PUSH1 0x80 PUSH1 0x40 MSTORE PUSH1 0x4 CALLDATASIZE LT ISZERO PUSH2 0x12 JUMPI PUSH1 0x0 DUP1 REVERT JUMPDEST PUSH1 0x0 CALLDATALOAD PUSH1 0xE0 SHR DUP1 PUSH4 0xCB6AAF1 EQ PUSH2 0x884 JUMPI DUP1 PUSH4 0x1D8EE48A EQ PUSH2 0x817 JUMPI DUP1 PUSH4 0x5CD8B15E EQ PUSH2 0x7F9 JUMPI DUP1 PUSH4 0x637EEA19 EQ PUSH2 0x7D0 JUMPI DUP1 PUSH4 0x75894E8C EQ PUSH2 0x738 JUMPI PUSH4 0xDB0FDC05 EQ PUSH2 0x5E JUMPI PUSH1 0x0 DUP1 REVERT JUMPDEST CALLVALUE PUSH2 0x733 JUMPI PUSH1 0xA0 CALLDATASIZE PUSH1 0x3 NOT ADD SLT PUSH2 0x733 JUMPI PUSH2 0x77 PUSH2 0x913 JUMP JUMPDEST PUSH1 0x24 DUP1 CALLDATALOAD PUSH8 0xFFFFFFFFFFFFFFFF DUP2 GT PUSH2 0x733 JUMPI PUSH2 0x98 SWAP1 CALLDATASIZE SWAP1 PUSH1 0x4 ADD PUSH2 0xAE8 JUMP JUMPDEST PUSH1 0x44 CALLDATALOAD PUSH8 0xFFFFFFFFFFFFFFFF DUP2 GT PUSH2 0x733 JUMPI PUSH2 0xB8 SWAP1 CALLDATASIZE SWAP1 PUSH1 0x4 ADD PUSH2 0xAE8 JUMP JUMPDEST SWAP1 PUSH1 0x64 CALLDATALOAD PUSH8 0xFFFFFFFFFFFFFFFF DUP2 GT PUSH2 0x733 JUMPI PUSH2 0xD9 SWAP1 CALLDATASIZE SWAP1 PUSH1 0x4 ADD PUSH2 0xAE8 JUMP JUMPDEST SWAP1 SWAP2 PUSH1 0x84 CALLDATALOAD PUSH8 0xFFFFFFFFFFFFFFFF DUP2 GT PUSH2 0x733 JUMPI PUSH2 0xFB SWAP1 CALLDATASIZE SWAP1 PUSH1 0x4 ADD PUSH2 0xAE8 JUMP JUMPDEST PUSH1 0x0 SLOAD SWAP2 SWAP9 SWAP1 SWAP6 SWAP2 PUSH1 0x1 PUSH1 0x1 PUSH1 0xA0 SHL SUB AND CALLER SUB PUSH2 0x701 JUMPI PUSH1 0x40 MLOAD PUSH2 0x11E DUP2 PUSH2 0x963 JUMP JUMPDEST PUSH2 0x129 CALLDATASIZE DUP10 DUP12 PUSH2 0xB16 JUMP JUMPDEST DUP2 MSTORE PUSH2 0x136 CALLDATASIZE DUP5 DUP7 PUSH2 0xB16 JUMP JUMPDEST PUSH1 0x20 DUP3 ADD MSTORE PUSH2 0x146 CALLDATASIZE DUP7 DUP9 PUSH2 0xB16 JUMP JUMPDEST PUSH1 0x40 DUP3 ADD MSTORE PUSH2 0x156 CALLDATASIZE DUP9 DUP13 PUSH2 0xB16 JUMP JUMPDEST PUSH1 0x60 DUP3 ADD MSTORE PUSH1 0x1 DUP1 PUSH1 0xA0 SHL SUB DUP12 AND PUSH1 0x0 MSTORE PUSH1 0x1 PUSH1 0x20 MSTORE PUSH1 0x40 PUSH1 0x0 KECCAK256 SWAP1 DUP1 MLOAD DUP1 MLOAD SWAP1 PUSH8 0xFFFFFFFFFFFFFFFF DUP3 GT PUSH2 0x555 JUMPI DUP2 SWAP1 PUSH2 0x192 DUP6 SLOAD PUSH2 0x929 JUMP JUMPDEST PUSH1 0x1F DUP2 GT PUSH2 0x6B1 JUMPI JUMPDEST POP PUSH1 0x20 SWAP1 PUSH1 0x1F DUP4 GT PUSH1 0x1 EQ PUSH2 0x645 JUMPI PUSH1 0x0 SWAP3 PUSH2 0x63A JUMPI JUMPDEST POP POP DUP2 PUSH1 0x1 SHL SWAP2 PUSH1 0x0 NOT SWAP1 PUSH1 0x3 SHL SHR NOT AND OR DUP3 SSTORE JUMPDEST PUSH1 0x20 DUP2 ADD MLOAD DUP1 MLOAD SWAP1 PUSH8 0xFFFFFFFFFFFFFFFF DUP3 GT PUSH2 0x555 JUMPI DUP2 SWAP1 PUSH2 0x1ED PUSH1 0x1 DUP7 ADD SLOAD PUSH2 0x929 JUMP JUMPDEST PUSH1 0x1F DUP2 GT PUSH2 0x5E7 JUMPI JUMPDEST POP PUSH1 0x20 SWAP1 PUSH1 0x1F DUP4 GT PUSH1 0x1 EQ PUSH2 0x575 JUMPI PUSH1 0x0 SWAP3 PUSH2 0x56A JUMPI JUMPDEST POP POP DUP2 PUSH1 0x1 SHL SWAP2 PUSH1 0x0 NOT SWAP1 PUSH1 0x3 SHL SHR NOT AND OR PUSH1 0x1 DUP4 ADD SSTORE JUMPDEST PUSH1 0x40 DUP2 ADD MLOAD DUP1 MLOAD SWAP1 PUSH8 0xFFFFFFFFFFFFFFFF DUP3 GT PUSH2 0x555 JUMPI PUSH2 0x249 PUSH1 0x2 DUP6 ADD SLOAD PUSH2 0x929 JUMP JUMPDEST PUSH1 0x1F DUP2 GT PUSH2 0x50E JUMPI JUMPDEST POP PUSH1 0x20 SWAP1 PUSH1 0x1F DUP4 GT PUSH1 0x1 EQ PUSH2 0x49B JUMPI PUSH1 0x60 SWAP4 SWAP3 SWAP2 PUSH1 0x0 SWAP2 DUP4 PUSH2 0x490 JUMPI JUMPDEST POP POP DUP2 PUSH1 0x1 SHL SWAP2 PUSH1 0x0 NOT SWAP1 PUSH1 0x3 SHL SHR NOT AND OR PUSH1 0x2 DUP5 ADD SSTORE JUMPDEST ADD MLOAD DUP1 MLOAD SWAP1 PUSH8 0xFFFFFFFFFFFFFFFF DUP3 GT PUSH2 0x47B JUMPI PUSH2 0x2A8 PUSH1 0x3 DUP5 ADD SLOAD PUSH2 0x929 JUMP JUMPDEST PUSH1 0x1F DUP2 GT PUSH2 0x434 JUMPI JUMPDEST POP PUSH1 0x20 SWAP1 PUSH1 0x1F DUP4 GT PUSH1 0x1 EQ PUSH2 0x3C7 JUMPI PUSH1 0x3 SWAP3 SWAP2 PUSH1 0x0 SWAP2 DUP4 PUSH2 0x3BC JUMPI JUMPDEST POP POP DUP2 PUSH1 0x1 SHL SWAP2 PUSH1 0x0 NOT SWAP1 DUP5 SHL SHR NOT AND OR SWAP2 ADD SSTORE JUMPDEST PUSH1 0x2 SLOAD SWAP1 PUSH9 0x10000000000000000 DUP3 LT ISZERO PUSH2 0x3A8 JUMPI POP SWAP3 PUSH2 0x37C PUSH2 0x38A SWAP4 PUSH32 0xAA109915A315EDA571654AAA143E6D629921A6F1BBC6B23ECBAD157E2D558CA7 SWAP11 SWAP12 SWAP7 SWAP4 PUSH2 0x339 DUP8 PUSH1 0x1 PUSH2 0x3A3 SWAP12 SWAP10 ADD PUSH1 0x2 SSTORE PUSH2 0x8C6 JUMP JUMPDEST DUP2 SLOAD PUSH1 0x1 PUSH1 0x1 PUSH1 0xA0 SHL SUB DUP12 DUP2 AND PUSH1 0x3 SWAP4 SWAP1 SWAP4 SHL SWAP3 DUP4 SHL SWAP3 SHL NOT AND OR SWAP1 SSTORE PUSH1 0x40 MLOAD PUSH1 0x80 DUP1 DUP3 MSTORE SWAP1 SWAP12 DUP13 SWAP12 PUSH2 0x36E SWAP3 DUP14 ADD SWAP2 PUSH2 0xB5D JUMP JUMPDEST SWAP2 DUP11 DUP4 SUB PUSH1 0x20 DUP13 ADD MSTORE PUSH2 0xB5D JUMP JUMPDEST SWAP2 DUP8 DUP4 SUB PUSH1 0x40 DUP10 ADD MSTORE PUSH2 0xB5D JUMP JUMPDEST DUP5 DUP2 SUB PUSH1 0x60 DUP7 ADD MSTORE PUSH1 0x1 PUSH1 0x1 PUSH1 0xA0 SHL SUB SWAP1 SWAP3 AND SWAP7 PUSH2 0xB5D JUMP JUMPDEST SUB SWAP1 LOG2 STOP JUMPDEST PUSH4 0x4E487B71 PUSH1 0xE0 SHL PUSH1 0x0 SWAP1 DUP2 MSTORE PUSH1 0x41 PUSH1 0x4 MSTORE REVERT JUMPDEST ADD MLOAD SWAP1 POP CODESIZE DUP1 PUSH2 0x2CD JUMP JUMPDEST SWAP1 PUSH1 0x1F NOT DUP4 AND SWAP2 PUSH1 0x3 DUP6 ADD PUSH1 0x0 MSTORE PUSH1 0x20 PUSH1 0x0 KECCAK256 SWAP3 PUSH1 0x0 JUMPDEST DUP2 DUP2 LT PUSH2 0x41C JUMPI POP SWAP2 PUSH1 0x1 SWAP4 SWAP2 DUP6 PUSH1 0x3 SWAP7 SWAP5 LT PUSH2 0x404 JUMPI JUMPDEST POP POP POP DUP2 SHL ADD SWAP2 ADD SSTORE PUSH2 0x2E2 JUMP JUMPDEST ADD MLOAD PUSH1 0x0 NOT DUP4 DUP7 SHL PUSH1 0xF8 AND SHR NOT AND SWAP1 SSTORE CODESIZE DUP1 DUP1 PUSH2 0x3F6 JUMP JUMPDEST SWAP3 SWAP4 PUSH1 0x20 PUSH1 0x1 DUP2 SWAP3 DUP8 DUP7 ADD MLOAD DUP2 SSTORE ADD SWAP6 ADD SWAP4 ADD PUSH2 0x3DE JUMP JUMPDEST PUSH1 0x3 DUP5 ADD PUSH1 0x0 MSTORE PUSH1 0x20 PUSH1 0x0 KECCAK256 PUSH1 0x1F DUP5 ADD PUSH1 0x5 SHR DUP2 ADD PUSH1 0x20 DUP6 LT PUSH2 0x474 JUMPI JUMPDEST PUSH1 0x1F DUP4 ADD PUSH1 0x5 SHR DUP3 ADD DUP2 LT PUSH2 0x468 JUMPI POP POP PUSH2 0x2B1 JUMP JUMPDEST PUSH1 0x0 DUP2 SSTORE PUSH1 0x1 ADD PUSH2 0x452 JUMP JUMPDEST POP DUP1 PUSH2 0x452 JUMP JUMPDEST DUP4 PUSH4 0x4E487B71 PUSH1 0xE0 SHL PUSH1 0x0 MSTORE PUSH1 0x41 PUSH1 0x4 MSTORE PUSH1 0x0 REVERT JUMPDEST ADD MLOAD SWAP1 POP CODESIZE DUP1 PUSH2 0x26F JUMP JUMPDEST SWAP1 PUSH1 0x2 DUP6 ADD PUSH1 0x0 MSTORE PUSH1 0x20 PUSH1 0x0 KECCAK256 SWAP2 PUSH1 0x0 JUMPDEST PUSH1 0x1F NOT DUP6 AND DUP2 LT PUSH2 0x4F6 JUMPI POP SWAP2 DUP4 SWAP2 PUSH1 0x1 SWAP4 PUSH1 0x60 SWAP7 SWAP6 PUSH1 0x1F NOT DUP2 AND LT PUSH2 0x4DD JUMPI JUMPDEST POP POP POP DUP2 SHL ADD PUSH1 0x2 DUP5 ADD SSTORE PUSH2 0x287 JUMP JUMPDEST ADD MLOAD PUSH1 0x0 NOT PUSH1 0xF8 DUP5 PUSH1 0x3 SHL AND SHR NOT AND SWAP1 SSTORE CODESIZE DUP1 DUP1 PUSH2 0x4CD JUMP JUMPDEST SWAP2 SWAP3 PUSH1 0x20 PUSH1 0x1 DUP2 SWAP3 DUP7 DUP6 ADD MLOAD DUP2 SSTORE ADD SWAP5 ADD SWAP3 ADD PUSH2 0x4AC JUMP JUMPDEST PUSH1 0x2 DUP6 ADD PUSH1 0x0 MSTORE PUSH1 0x20 PUSH1 0x0 KECCAK256 PUSH1 0x1F DUP5 ADD PUSH1 0x5 SHR DUP2 ADD PUSH1 0x20 DUP6 LT PUSH2 0x54E JUMPI JUMPDEST PUSH1 0x1F DUP4 ADD PUSH1 0x5 SHR DUP3 ADD DUP2 LT PUSH2 0x542 JUMPI POP POP PUSH2 0x252 JUMP JUMPDEST PUSH1 0x0 DUP2 SSTORE PUSH1 0x1 ADD PUSH2 0x52C JUMP JUMPDEST POP DUP1 PUSH2 0x52C JUMP JUMPDEST DUP5 PUSH4 0x4E487B71 PUSH1 0xE0 SHL PUSH1 0x0 MSTORE PUSH1 0x41 PUSH1 0x4 MSTORE PUSH1 0x0 REVERT JUMPDEST ADD MLOAD SWAP1 POP CODESIZE DUP1 PUSH2 0x20D JUMP JUMPDEST SWAP3 POP PUSH1 0x1 DUP6 ADD PUSH1 0x0 MSTORE PUSH1 0x20 PUSH1 0x0 KECCAK256 SWAP1 PUSH1 0x0 SWAP4 JUMPDEST PUSH1 0x1F NOT DUP5 AND DUP6 LT PUSH2 0x5CC JUMPI PUSH1 0x1 SWAP5 POP DUP4 PUSH1 0x1F NOT DUP2 AND LT PUSH2 0x5B3 JUMPI JUMPDEST POP POP POP DUP2 SHL ADD PUSH1 0x1 DUP4 ADD SSTORE PUSH2 0x225 JUMP JUMPDEST ADD MLOAD PUSH1 0x0 NOT PUSH1 0xF8 DUP5 PUSH1 0x3 SHL AND SHR NOT AND SWAP1 SSTORE CODESIZE DUP1 DUP1 PUSH2 0x5A3 JUMP JUMPDEST DUP2 DUP2 ADD MLOAD DUP4 SSTORE PUSH1 0x20 SWAP5 DUP6 ADD SWAP5 PUSH1 0x1 SWAP1 SWAP4 ADD SWAP3 SWAP1 SWAP2 ADD SWAP1 PUSH2 0x588 JUMP JUMPDEST SWAP1 SWAP2 POP PUSH1 0x1 DUP6 ADD PUSH1 0x0 MSTORE PUSH1 0x20 PUSH1 0x0 KECCAK256 PUSH1 0x1F DUP5 ADD PUSH1 0x5 SHR DUP2 ADD PUSH1 0x20 DUP6 LT PUSH2 0x633 JUMPI JUMPDEST SWAP1 DUP5 SWAP4 SWAP3 SWAP2 JUMPDEST PUSH1 0x1F DUP4 ADD PUSH1 0x5 SHR DUP3 ADD DUP2 LT PUSH2 0x624 JUMPI POP POP PUSH2 0x1F6 JUMP JUMPDEST PUSH1 0x0 DUP2 SSTORE DUP6 SWAP5 POP PUSH1 0x1 ADD PUSH2 0x60E JUMP JUMPDEST POP DUP1 PUSH2 0x608 JUMP JUMPDEST ADD MLOAD SWAP1 POP CODESIZE DUP1 PUSH2 0x1B2 JUMP JUMPDEST SWAP3 POP DUP5 PUSH1 0x0 MSTORE PUSH1 0x20 PUSH1 0x0 KECCAK256 SWAP1 PUSH1 0x0 SWAP4 JUMPDEST PUSH1 0x1F NOT DUP5 AND DUP6 LT PUSH2 0x696 JUMPI PUSH1 0x1 SWAP5 POP DUP4 PUSH1 0x1F NOT DUP2 AND LT PUSH2 0x67D JUMPI JUMPDEST POP POP POP DUP2 SHL ADD DUP3 SSTORE PUSH2 0x1C7 JUMP JUMPDEST ADD MLOAD PUSH1 0x0 NOT PUSH1 0xF8 DUP5 PUSH1 0x3 SHL AND SHR NOT AND SWAP1 SSTORE CODESIZE DUP1 DUP1 PUSH2 0x670 JUMP JUMPDEST DUP2 DUP2 ADD MLOAD DUP4 SSTORE PUSH1 0x20 SWAP5 DUP6 ADD SWAP5 PUSH1 0x1 SWAP1 SWAP4 ADD SWAP3 SWAP1 SWAP2 ADD SWAP1 PUSH2 0x655 JUMP JUMPDEST SWAP1 SWAP2 POP DUP5 PUSH1 0x0 MSTORE PUSH1 0x20 PUSH1 0x0 KECCAK256 PUSH1 0x1F DUP5 ADD PUSH1 0x5 SHR DUP2 ADD PUSH1 0x20 DUP6 LT PUSH2 0x6FA JUMPI JUMPDEST SWAP1 DUP5 SWAP4 SWAP3 SWAP2 JUMPDEST PUSH1 0x1F DUP4 ADD PUSH1 0x5 SHR DUP3 ADD DUP2 LT PUSH2 0x6EB JUMPI POP POP PUSH2 0x19B JUMP JUMPDEST PUSH1 0x0 DUP2 SSTORE DUP6 SWAP5 POP PUSH1 0x1 ADD PUSH2 0x6D5 JUMP JUMPDEST POP DUP1 PUSH2 0x6CF JUMP JUMPDEST PUSH1 0x64 SWAP1 PUSH1 0xB PUSH1 0x40 MLOAD SWAP2 PUSH3 0x461BCD PUSH1 0xE5 SHL DUP4 MSTORE PUSH1 0x20 PUSH1 0x4 DUP5 ADD MSTORE DUP3 ADD MSTORE PUSH11 0x139BDD081CDD195DD85C99 PUSH1 0xAA SHL PUSH1 0x44 DUP3 ADD MSTORE REVERT JUMPDEST PUSH1 0x0 DUP1 REVERT JUMPDEST CALLVALUE PUSH2 0x733 JUMPI PUSH1 0x20 CALLDATASIZE PUSH1 0x3 NOT ADD SLT PUSH2 0x733 JUMPI PUSH1 0x1 PUSH1 0x1 PUSH1 0xA0 SHL SUB PUSH2 0x759 PUSH2 0x913 JUMP JUMPDEST AND PUSH1 0x0 MSTORE PUSH1 0x1 PUSH1 0x20 MSTORE PUSH1 0x40 PUSH1 0x0 KECCAK256 PUSH1 0x40 MLOAD PUSH2 0x773 DUP2 PUSH2 0x963 JUMP JUMPDEST PUSH2 0x77C DUP3 PUSH2 0x9B7 JUMP JUMPDEST DUP2 MSTORE PUSH2 0x7CC PUSH2 0x78D PUSH1 0x1 DUP5 ADD PUSH2 0x9B7 JUMP JUMPDEST SWAP2 PUSH1 0x20 DUP2 ADD SWAP3 DUP4 MSTORE PUSH2 0x7B4 PUSH1 0x3 PUSH2 0x7A6 PUSH1 0x2 DUP8 ADD PUSH2 0x9B7 JUMP JUMPDEST SWAP6 PUSH1 0x40 DUP5 ADD SWAP7 DUP8 MSTORE ADD PUSH2 0x9B7 JUMP JUMPDEST SWAP1 DUP2 PUSH1 0x60 DUP3 ADD MSTORE MLOAD SWAP3 MLOAD SWAP4 MLOAD PUSH1 0x40 MLOAD SWAP5 DUP6 SWAP5 DUP6 PUSH2 0xA9D JUMP JUMPDEST SUB SWAP1 RETURN JUMPDEST CALLVALUE PUSH2 0x733 JUMPI PUSH1 0x0 CALLDATASIZE PUSH1 0x3 NOT ADD SLT PUSH2 0x733 JUMPI PUSH1 0x0 SLOAD PUSH1 0x40 MLOAD PUSH1 0x1 PUSH1 0x1 PUSH1 0xA0 SHL SUB SWAP1 SWAP2 AND DUP2 MSTORE PUSH1 0x20 SWAP1 RETURN JUMPDEST CALLVALUE PUSH2 0x733 JUMPI PUSH1 0x0 CALLDATASIZE PUSH1 0x3 NOT ADD SLT PUSH2 0x733 JUMPI PUSH1 0x20 PUSH1 0x2 SLOAD PUSH1 0x40 MLOAD SWAP1 DUP2 MSTORE RETURN JUMPDEST CALLVALUE PUSH2 0x733 JUMPI PUSH1 0x20 CALLDATASIZE PUSH1 0x3 NOT ADD SLT PUSH2 0x733 JUMPI PUSH1 0x1 PUSH1 0x1 PUSH1 0xA0 SHL SUB PUSH2 0x838 PUSH2 0x913 JUMP JUMPDEST AND PUSH1 0x0 MSTORE PUSH1 0x1 PUSH1 0x20 MSTORE PUSH1 0x40 PUSH1 0x0 KECCAK256 PUSH2 0x84F DUP2 PUSH2 0x9B7 JUMP JUMPDEST PUSH2 0x7CC PUSH2 0x85E PUSH1 0x1 DUP5 ADD PUSH2 0x9B7 JUMP JUMPDEST SWAP3 PUSH2 0x877 PUSH1 0x3 PUSH2 0x870 PUSH1 0x2 DUP5 ADD PUSH2 0x9B7 JUMP JUMPDEST SWAP3 ADD PUSH2 0x9B7 JUMP JUMPDEST SWAP1 PUSH1 0x40 MLOAD SWAP5 DUP6 SWAP5 DUP6 PUSH2 0xA9D JUMP JUMPDEST CALLVALUE PUSH2 0x733 JUMPI PUSH1 0x20 CALLDATASIZE PUSH1 0x3 NOT ADD SLT PUSH2 0x733 JUMPI PUSH1 0x4 CALLDATALOAD PUSH1 0x2 SLOAD DUP2 LT ISZERO PUSH2 0x733 JUMPI PUSH2 0x8AD PUSH1 0x20 SWAP2 PUSH2 0x8C6 JUMP JUMPDEST SWAP1 SLOAD PUSH1 0x40 MLOAD PUSH1 0x3 SWAP3 SWAP1 SWAP3 SHL SHR PUSH1 0x1 PUSH1 0x1 PUSH1 0xA0 SHL SUB AND DUP2 MSTORE RETURN JUMPDEST PUSH1 0x2 SLOAD DUP2 LT ISZERO PUSH2 0x8FD JUMPI PUSH1 0x2 PUSH1 0x0 MSTORE PUSH32 0x405787FA12A823E0F2B7631CC41B3BA8828B3321CA811111FA75CD3AA3BB5ACE ADD SWAP1 PUSH1 0x0 SWAP1 JUMP JUMPDEST PUSH4 0x4E487B71 PUSH1 0xE0 SHL PUSH1 0x0 MSTORE PUSH1 0x32 PUSH1 0x4 MSTORE PUSH1 0x24 PUSH1 0x0 REVERT JUMPDEST PUSH1 0x4 CALLDATALOAD SWAP1 PUSH1 0x1 PUSH1 0x1 PUSH1 0xA0 SHL SUB DUP3 AND DUP3 SUB PUSH2 0x733 JUMPI JUMP JUMPDEST SWAP1 PUSH1 0x1 DUP3 DUP2 SHR SWAP3 AND DUP1 ISZERO PUSH2 0x959 JUMPI JUMPDEST PUSH1 0x20 DUP4 LT EQ PUSH2 0x943 JUMPI JUMP JUMPDEST PUSH4 0x4E487B71 PUSH1 0xE0 SHL PUSH1 0x0 MSTORE PUSH1 0x22 PUSH1 0x4 MSTORE PUSH1 0x24 PUSH1 0x0 REVERT JUMPDEST SWAP2 PUSH1 0x7F AND SWAP2 PUSH2 0x938 JUMP JUMPDEST PUSH1 0x80 DUP2 ADD SWAP1 DUP2 LT PUSH8 0xFFFFFFFFFFFFFFFF DUP3 GT OR PUSH2 0x97F JUMPI PUSH1 0x40 MSTORE JUMP JUMPDEST PUSH4 0x4E487B71 PUSH1 0xE0 SHL PUSH1 0x0 MSTORE PUSH1 0x41 PUSH1 0x4 MSTORE PUSH1 0x24 PUSH1 0x0 REVERT JUMPDEST SWAP1 PUSH1 0x1F DUP1 NOT SWAP2 ADD AND DUP2 ADD SWAP1 DUP2 LT PUSH8 0xFFFFFFFFFFFFFFFF DUP3 GT OR PUSH2 0x97F JUMPI PUSH1 0x40 MSTORE JUMP JUMPDEST SWAP1 PUSH1 0x40 MLOAD SWAP2 DUP3 PUSH1 0x0 DUP3 SLOAD SWAP3 PUSH2 0x9CB DUP5 PUSH2 0x929 JUMP JUMPDEST SWAP1 DUP2 DUP5 MSTORE PUSH1 0x1 SWAP5 DUP6 DUP2 AND SWAP1 DUP2 PUSH1 0x0 EQ PUSH2 0xA3A JUMPI POP PUSH1 0x1 EQ PUSH2 0x9F7 JUMPI JUMPDEST POP POP PUSH2 0x9F5 SWAP3 POP SUB DUP4 PUSH2 0x995 JUMP JUMPDEST JUMP JUMPDEST SWAP1 SWAP4 SWAP2 POP PUSH1 0x0 MSTORE PUSH1 0x20 SWAP1 DUP2 PUSH1 0x0 KECCAK256 SWAP4 PUSH1 0x0 SWAP2 JUMPDEST DUP2 DUP4 LT PUSH2 0xA22 JUMPI POP POP PUSH2 0x9F5 SWAP4 POP DUP3 ADD ADD CODESIZE DUP1 PUSH2 0x9E7 JUMP JUMPDEST DUP6 SLOAD DUP9 DUP5 ADD DUP6 ADD MSTORE SWAP5 DUP6 ADD SWAP5 DUP8 SWAP5 POP SWAP2 DUP4 ADD SWAP2 PUSH2 0xA0A JUMP JUMPDEST SWAP2 POP POP PUSH2 0x9F5 SWAP5 POP PUSH1 0x20 SWAP3 POP PUSH1 0xFF NOT AND DUP3 DUP5 ADD MSTORE ISZERO ISZERO PUSH1 0x5 SHL DUP3 ADD ADD CODESIZE DUP1 PUSH2 0x9E7 JUMP JUMPDEST SWAP2 SWAP1 DUP3 MLOAD SWAP3 DUP4 DUP3 MSTORE PUSH1 0x0 JUMPDEST DUP5 DUP2 LT PUSH2 0xA89 JUMPI POP POP DUP3 PUSH1 0x0 PUSH1 0x20 DUP1 SWAP5 SWAP6 DUP5 ADD ADD MSTORE PUSH1 0x1F DUP1 NOT SWAP2 ADD AND ADD ADD SWAP1 JUMP JUMPDEST PUSH1 0x20 DUP2 DUP4 ADD DUP2 ADD MLOAD DUP5 DUP4 ADD DUP3 ADD MSTORE ADD PUSH2 0xA68 JUMP JUMPDEST SWAP3 PUSH2 0xAC9 PUSH2 0xAE5 SWAP6 SWAP4 PUSH2 0xABB PUSH2 0xAD7 SWAP5 PUSH1 0x80 DUP9 MSTORE PUSH1 0x80 DUP9 ADD SWAP1 PUSH2 0xA5D JUMP JUMPDEST SWAP1 DUP7 DUP3 SUB PUSH1 0x20 DUP9 ADD MSTORE PUSH2 0xA5D JUMP JUMPDEST SWAP1 DUP5 DUP3 SUB PUSH1 0x40 DUP7 ADD MSTORE PUSH2 0xA5D JUMP JUMPDEST SWAP2 PUSH1 0x60 DUP2 DUP5 SUB SWAP2 ADD MSTORE PUSH2 0xA5D JUMP JUMPDEST SWAP1 JUMP JUMPDEST SWAP2 DUP2 PUSH1 0x1F DUP5 ADD SLT ISZERO PUSH2 0x733 JUMPI DUP3 CALLDATALOAD SWAP2 PUSH8 0xFFFFFFFFFFFFFFFF DUP4 GT PUSH2 0x733 JUMPI PUSH1 0x20 DUP4 DUP2 DUP7 ADD SWAP6 ADD ADD GT PUSH2 0x733 JUMPI JUMP JUMPDEST SWAP3 SWAP2 SWAP3 PUSH8 0xFFFFFFFFFFFFFFFF DUP3 GT PUSH2 0x97F JUMPI PUSH1 0x40 MLOAD SWAP2 PUSH2 0xB40 PUSH1 0x1F DUP3 ADD PUSH1 0x1F NOT AND PUSH1 0x20 ADD DUP5 PUSH2 0x995 JUMP JUMPDEST DUP3 SWAP5 DUP2 DUP5 MSTORE DUP2 DUP4 ADD GT PUSH2 0x733 JUMPI DUP3 DUP2 PUSH1 0x20 SWAP4 DUP5 PUSH1 0x0 SWAP7 ADD CALLDATACOPY ADD ADD MSTORE JUMP JUMPDEST SWAP1 DUP1 PUSH1 0x20 SWAP4 SWAP3 DUP2 DUP5 MSTORE DUP5 DUP5 ADD CALLDATACOPY PUSH1 0x0 DUP3 DUP3 ADD DUP5 ADD MSTORE PUSH1 0x1F ADD PUSH1 0x1F NOT AND ADD ADD SWAP1 JUMP INVALID LOG2 PUSH5 0x6970667358 0x22 SLT KECCAK256 STATICCALL SHR 0x22 PUSH26 0x5ADD834D022AB3E9B336CB7F6BC3D328A3338957040AF3357C84 0x49 0x5C PUSH5 0x736F6C6343 STOP ADDMOD EQ STOP CALLER "},"methodIdentifiers":{"entities(address)":"1d8ee48a","getEntity(address)":"75894e8c","keys(uint256)":"0cb6aaf1","steward()":"637eea19","summonEntity(address,string,string,string,string)":"db0fdc05","totalEntities()":"5cd8b15e"}}}}}