{"contracts/skycity/SkyCorridor.sol":{"SkyCorridor":{"abi":[{"inputs":[],"stateMutability":"nonpayable","type":"constructor"},{"anonymous":false,"inputs":[{"indexed":false,"internalType":"string","name":"city","type":"string"},{"indexed":false,"internalType":"string","name":"constellation","type":"string"},{"indexed":false,"internalType":"uint256","name":"altitude","type":"uint256"}],"name":"CorridorBound","type":"event"},{"inputs":[{"internalType":"string","name":"city","type":"string"},{"internalType":"string","name":"constellation","type":"string"},{"internalType":"uint256","name":"altitude","type":"uint256"}],"name":"bindCorridor","outputs":[],"stateMutability":"nonpayable","type":"function"},{"inputs":[{"internalType":"uint256","name":"","type":"uint256"}],"name":"corridorKeys","outputs":[{"internalType":"string","name":"","type":"string"}],"stateMutability":"view","type":"function"},{"inputs":[{"internalType":"string","name":"","type":"string"}],"name":"corridors","outputs":[{"internalType":"string","name":"city","type":"string"},{"internalType":"string","name":"constellation","type":"string"},{"internalType":"uint256","name":"altitude","type":"uint256"}],"stateMutability":"view","type":"function"},{"inputs":[{"internalType":"string","name":"city","type":"string"}],"name":"getCorridor","outputs":[{"internalType":"string","name":"","type":"string"},{"internalType":"string","name":"","type":"string"},{"internalType":"uint256","name":"","type":"uint256"}],"stateMutability":"view","type":"function"},{"inputs":[],"name":"steward","outputs":[{"internalType":"address","name":"","type":"address"}],"stateMutability":"view","type":"function"},{"inputs":[],"name":"totalCorridors","outputs":[{"internalType":"uint256","name":"","type":"uint256"}],"stateMutability":"view","type":"function"}],"evm":{"bytecode":{"linkReferences":{},"object":"6080806040523461002857600080546001600160a01b03191633179055610989908161002e8239f35b600080fdfe6080604052600436101561001257600080fd5b60003560e01c806317687843146105e5578063398a0c87146105845780634f0e6c36146104f2578063637eea19146104c95780636a2f7884146104ab5763b7ffdb1b1461005e57600080fd5b346104a65760603660031901126104a65760043567ffffffffffffffff81116104a65761008f9036906004016108b0565b90602491823567ffffffffffffffff81116104a6576100b29036906004016108b0565b600054919490916001600160a01b03163303610474576040516100d481610672565b6100df3685876106c6565b81526100ec3684886106c6565b6020820152604435604082015260405184868237602081868101600181520301902090805180519067ffffffffffffffff82116103ee578190610139826101338754610730565b876108de565b602090601f831160011461040e57600092610403575b50508160011b916000199060031b1c19161782555b6020810151805167ffffffffffffffff81116103ee5760018401916101938261018d8554610730565b856108de565b602090601f83116001146103805791806040949260029694600092610375575b50508160011b916000199060031b1c19161790555b015191015560025468010000000000000000811015610360578060016101f19201600255610863565b91909161034c5767ffffffffffffffff8411610338575061021c836102168354610730565b836108de565b6000601f84116001146102ab57917f3c08557f1db29acb27d6fea3738d76f1653bd89daceac1efdd78818773066603959184610293946000916102a0575b508560011b906000198760031b1c19161790555b610285604051958695606087526060870191610932565b918483036020860152610932565b60443560408301520390a1005b90508601353861025a565b601f198416908260005260206000209160005b8181106103205750917f3c08557f1db29acb27d6fea3738d76f1653bd89daceac1efdd7881877306660397939186610293969410610306575b5050600185811b01905561026e565b870135600019600388901b60f8161c1916905538806102f7565b9192602060018192868b0135815501940192016102be565b634e487b7160e01b60009081526041600452fd5b634e487b7160e01b60005260006004526000fd5b50634e487b7160e01b60009081526041600452fd5b0151905038806101b3565b90601f198316918460005260206000209260005b8181106103d657509260019285926002989660409896106103bd575b505050811b0190556101c8565b015160001960f88460031b161c191690553880806103b0565b92936020600181928786015181550195019301610394565b84634e487b7160e01b60005260416004526000fd5b01519050388061014f565b6000868152602081209350601f198516905b81811061045c5750908460019594939210610443575b505050811b018255610164565b015160001960f88460031b161c19169055388080610436565b92936020600181928786015181550195019301610420565b606490600b6040519162461bcd60e51b8352602060048401528201526a139bdd081cdd195dd85c9960aa1b6044820152fd5b600080fd5b346104a65760003660031901126104a6576020600254604051908152f35b346104a65760003660031901126104a6576000546040516001600160a01b039091168152602090f35b346104a65760203660031901126104a65760043567ffffffffffffffff81116104a65761052560209136906004016108b0565b91908260405193849283378101600181520301902060405161054681610672565b61054f8261076a565b815261058060026105626001850161076a565b93846020850152015491826040820152519160405193849384610835565b0390f35b346104a65760203660031901126104a6576004356002548110156104a6576105ab90610863565b6105cf576105bb6105809161076a565b604051918291602083526020830190610810565b634e487b7160e01b600052600060045260246000fd5b346104a65760203660031901126104a65760043567ffffffffffffffff81116104a657366023820112156104a657602061062c61063f9236906024816004013591016106c6565b816040519382858094519384920161070d565b810160018152030190206106528161076a565b61058060026106636001850161076a565b93015460405193849384610835565b6060810190811067ffffffffffffffff82111761068e57604052565b634e487b7160e01b600052604160045260246000fd5b90601f8019910116810190811067ffffffffffffffff82111761068e57604052565b92919267ffffffffffffffff821161068e57604051916106f0601f8201601f1916602001846106a4565b8294818452818301116104a6578281602093846000960137010152565b60005b8381106107205750506000910152565b8181015183820152602001610710565b90600182811c92168015610760575b602083101461074a57565b634e487b7160e01b600052602260045260246000fd5b91607f169161073f565b906040519182600082549261077e84610730565b9081845260019485811690816000146107ed57506001146107aa575b50506107a8925003836106a4565b565b9093915060005260209081600020936000915b8183106107d55750506107a89350820101388061079a565b855488840185015294850194879450918301916107bd565b9150506107a894506020925060ff191682840152151560051b820101388061079a565b906020916108298151809281855285808601910161070d565b601f01601f1916010190565b93929161085e90610850604093606088526060880190610810565b908682036020880152610810565b930152565b60025481101561089a5760026000527f405787fa12a823e0f2b7631cc41b3ba8828b3321ca811111fa75cd3aa3bb5ace0190600090565b634e487b7160e01b600052603260045260246000fd5b9181601f840112156104a65782359167ffffffffffffffff83116104a657602083818601950101116104a657565b90601f81116108ec57505050565b600091825260208220906020601f850160051c83019410610928575b601f0160051c01915b82811061091d57505050565b818155600101610911565b9092508290610908565b908060209392818452848401376000828201840152601f01601f191601019056fea264697066735822122097b83eb72c592b813d307b676cbdcbd62d1c8a7a3e6e639b0ec8253dad0e9f7764736f6c63430008140033","opcodes":"PUSH1 0x80 DUP1 PUSH1 0x40 MSTORE CALLVALUE PUSH2 0x28 JUMPI PUSH1 0x0 DUP1 SLOAD PUSH1 0x1 PUSH1 0x1 PUSH1 0xA0 SHL SUB NOT AND CALLER OR SWAP1 SSTORE PUSH2 0x989 SWAP1 DUP2 PUSH2 0x2E DUP3 CODECOPY RETURN JUMPDEST PUSH1 0x0 DUP1 REVERT INVALID PUSH1 0x80 PUSH1 0x40 MSTORE PUSH1 0x4 CALLDATASIZE LT ISZERO PUSH2 0x12 JUMPI PUSH1 0x0 DUP1 REVERT JUMPDEST PUSH1 0x0 CALLDATALOAD PUSH1 0xE0 SHR DUP1 PUSH4 0x17687843 EQ PUSH2 0x5E5 JUMPI DUP1 PUSH4 0x398A0C87 EQ PUSH2 0x584 JUMPI DUP1 PUSH4 0x4F0E6C36 EQ PUSH2 0x4F2 JUMPI DUP1 PUSH4 0x637EEA19 EQ PUSH2 0x4C9 JUMPI DUP1 PUSH4 0x6A2F7884 EQ PUSH2 0x4AB JUMPI PUSH4 0xB7FFDB1B EQ PUSH2 0x5E JUMPI PUSH1 0x0 DUP1 REVERT JUMPDEST CALLVALUE PUSH2 0x4A6 JUMPI PUSH1 0x60 CALLDATASIZE PUSH1 0x3 NOT ADD SLT PUSH2 0x4A6 JUMPI PUSH1 0x4 CALLDATALOAD PUSH8 0xFFFFFFFFFFFFFFFF DUP2 GT PUSH2 0x4A6 JUMPI PUSH2 0x8F SWAP1 CALLDATASIZE SWAP1 PUSH1 0x4 ADD PUSH2 0x8B0 JUMP JUMPDEST SWAP1 PUSH1 0x24 SWAP2 DUP3 CALLDATALOAD PUSH8 0xFFFFFFFFFFFFFFFF DUP2 GT PUSH2 0x4A6 JUMPI PUSH2 0xB2 SWAP1 CALLDATASIZE SWAP1 PUSH1 0x4 ADD PUSH2 0x8B0 JUMP JUMPDEST PUSH1 0x0 SLOAD SWAP2 SWAP5 SWAP1 SWAP2 PUSH1 0x1 PUSH1 0x1 PUSH1 0xA0 SHL SUB AND CALLER SUB PUSH2 0x474 JUMPI PUSH1 0x40 MLOAD PUSH2 0xD4 DUP2 PUSH2 0x672 JUMP JUMPDEST PUSH2 0xDF CALLDATASIZE DUP6 DUP8 PUSH2 0x6C6 JUMP JUMPDEST DUP2 MSTORE PUSH2 0xEC CALLDATASIZE DUP5 DUP9 PUSH2 0x6C6 JUMP JUMPDEST PUSH1 0x20 DUP3 ADD MSTORE PUSH1 0x44 CALLDATALOAD PUSH1 0x40 DUP3 ADD MSTORE PUSH1 0x40 MLOAD DUP5 DUP7 DUP3 CALLDATACOPY PUSH1 0x20 DUP2 DUP7 DUP2 ADD PUSH1 0x1 DUP2 MSTORE SUB ADD SWAP1 KECCAK256 SWAP1 DUP1 MLOAD DUP1 MLOAD SWAP1 PUSH8 0xFFFFFFFFFFFFFFFF DUP3 GT PUSH2 0x3EE JUMPI DUP2 SWAP1 PUSH2 0x139 DUP3 PUSH2 0x133 DUP8 SLOAD PUSH2 0x730 JUMP JUMPDEST DUP8 PUSH2 0x8DE JUMP JUMPDEST PUSH1 0x20 SWAP1 PUSH1 0x1F DUP4 GT PUSH1 0x1 EQ PUSH2 0x40E JUMPI PUSH1 0x0 SWAP3 PUSH2 0x403 JUMPI JUMPDEST POP POP DUP2 PUSH1 0x1 SHL SWAP2 PUSH1 0x0 NOT SWAP1 PUSH1 0x3 SHL SHR NOT AND OR DUP3 SSTORE JUMPDEST PUSH1 0x20 DUP2 ADD MLOAD DUP1 MLOAD PUSH8 0xFFFFFFFFFFFFFFFF DUP2 GT PUSH2 0x3EE JUMPI PUSH1 0x1 DUP5 ADD SWAP2 PUSH2 0x193 DUP3 PUSH2 0x18D DUP6 SLOAD PUSH2 0x730 JUMP JUMPDEST DUP6 PUSH2 0x8DE JUMP JUMPDEST PUSH1 0x20 SWAP1 PUSH1 0x1F DUP4 GT PUSH1 0x1 EQ PUSH2 0x380 JUMPI SWAP2 DUP1 PUSH1 0x40 SWAP5 SWAP3 PUSH1 0x2 SWAP7 SWAP5 PUSH1 0x0 SWAP3 PUSH2 0x375 JUMPI JUMPDEST POP POP DUP2 PUSH1 0x1 SHL SWAP2 PUSH1 0x0 NOT SWAP1 PUSH1 0x3 SHL SHR NOT AND OR SWAP1 SSTORE JUMPDEST ADD MLOAD SWAP2 ADD SSTORE PUSH1 0x2 SLOAD PUSH9 0x10000000000000000 DUP2 LT ISZERO PUSH2 0x360 JUMPI DUP1 PUSH1 0x1 PUSH2 0x1F1 SWAP3 ADD PUSH1 0x2 SSTORE PUSH2 0x863 JUMP JUMPDEST SWAP2 SWAP1 SWAP2 PUSH2 0x34C JUMPI PUSH8 0xFFFFFFFFFFFFFFFF DUP5 GT PUSH2 0x338 JUMPI POP PUSH2 0x21C DUP4 PUSH2 0x216 DUP4 SLOAD PUSH2 0x730 JUMP JUMPDEST DUP4 PUSH2 0x8DE JUMP JUMPDEST PUSH1 0x0 PUSH1 0x1F DUP5 GT PUSH1 0x1 EQ PUSH2 0x2AB JUMPI SWAP2 PUSH32 0x3C08557F1DB29ACB27D6FEA3738D76F1653BD89DACEAC1EFDD78818773066603 SWAP6 SWAP2 DUP5 PUSH2 0x293 SWAP5 PUSH1 0x0 SWAP2 PUSH2 0x2A0 JUMPI JUMPDEST POP DUP6 PUSH1 0x1 SHL SWAP1 PUSH1 0x0 NOT DUP8 PUSH1 0x3 SHL SHR NOT AND OR SWAP1 SSTORE JUMPDEST PUSH2 0x285 PUSH1 0x40 MLOAD SWAP6 DUP7 SWAP6 PUSH1 0x60 DUP8 MSTORE PUSH1 0x60 DUP8 ADD SWAP2 PUSH2 0x932 JUMP JUMPDEST SWAP2 DUP5 DUP4 SUB PUSH1 0x20 DUP7 ADD MSTORE PUSH2 0x932 JUMP JUMPDEST PUSH1 0x44 CALLDATALOAD PUSH1 0x40 DUP4 ADD MSTORE SUB SWAP1 LOG1 STOP JUMPDEST SWAP1 POP DUP7 ADD CALLDATALOAD CODESIZE PUSH2 0x25A JUMP JUMPDEST PUSH1 0x1F NOT DUP5 AND SWAP1 DUP3 PUSH1 0x0 MSTORE PUSH1 0x20 PUSH1 0x0 KECCAK256 SWAP2 PUSH1 0x0 JUMPDEST DUP2 DUP2 LT PUSH2 0x320 JUMPI POP SWAP2 PUSH32 0x3C08557F1DB29ACB27D6FEA3738D76F1653BD89DACEAC1EFDD78818773066603 SWAP8 SWAP4 SWAP2 DUP7 PUSH2 0x293 SWAP7 SWAP5 LT PUSH2 0x306 JUMPI JUMPDEST POP POP PUSH1 0x1 DUP6 DUP2 SHL ADD SWAP1 SSTORE PUSH2 0x26E JUMP JUMPDEST DUP8 ADD CALLDATALOAD PUSH1 0x0 NOT PUSH1 0x3 DUP9 SWAP1 SHL PUSH1 0xF8 AND SHR NOT AND SWAP1 SSTORE CODESIZE DUP1 PUSH2 0x2F7 JUMP JUMPDEST SWAP2 SWAP3 PUSH1 0x20 PUSH1 0x1 DUP2 SWAP3 DUP7 DUP12 ADD CALLDATALOAD DUP2 SSTORE ADD SWAP5 ADD SWAP3 ADD PUSH2 0x2BE JUMP JUMPDEST PUSH4 0x4E487B71 PUSH1 0xE0 SHL PUSH1 0x0 SWAP1 DUP2 MSTORE PUSH1 0x41 PUSH1 0x4 MSTORE REVERT JUMPDEST PUSH4 0x4E487B71 PUSH1 0xE0 SHL PUSH1 0x0 MSTORE PUSH1 0x0 PUSH1 0x4 MSTORE PUSH1 0x0 REVERT JUMPDEST POP PUSH4 0x4E487B71 PUSH1 0xE0 SHL PUSH1 0x0 SWAP1 DUP2 MSTORE PUSH1 0x41 PUSH1 0x4 MSTORE REVERT JUMPDEST ADD MLOAD SWAP1 POP CODESIZE DUP1 PUSH2 0x1B3 JUMP JUMPDEST SWAP1 PUSH1 0x1F NOT DUP4 AND SWAP2 DUP5 PUSH1 0x0 MSTORE PUSH1 0x20 PUSH1 0x0 KECCAK256 SWAP3 PUSH1 0x0 JUMPDEST DUP2 DUP2 LT PUSH2 0x3D6 JUMPI POP SWAP3 PUSH1 0x1 SWAP3 DUP6 SWAP3 PUSH1 0x2 SWAP9 SWAP7 PUSH1 0x40 SWAP9 SWAP7 LT PUSH2 0x3BD JUMPI JUMPDEST POP POP POP DUP2 SHL ADD SWAP1 SSTORE PUSH2 0x1C8 JUMP JUMPDEST ADD MLOAD PUSH1 0x0 NOT PUSH1 0xF8 DUP5 PUSH1 0x3 SHL AND SHR NOT AND SWAP1 SSTORE CODESIZE DUP1 DUP1 PUSH2 0x3B0 JUMP JUMPDEST SWAP3 SWAP4 PUSH1 0x20 PUSH1 0x1 DUP2 SWAP3 DUP8 DUP7 ADD MLOAD DUP2 SSTORE ADD SWAP6 ADD SWAP4 ADD PUSH2 0x394 JUMP JUMPDEST DUP5 PUSH4 0x4E487B71 PUSH1 0xE0 SHL PUSH1 0x0 MSTORE PUSH1 0x41 PUSH1 0x4 MSTORE PUSH1 0x0 REVERT JUMPDEST ADD MLOAD SWAP1 POP CODESIZE DUP1 PUSH2 0x14F JUMP JUMPDEST PUSH1 0x0 DUP7 DUP2 MSTORE PUSH1 0x20 DUP2 KECCAK256 SWAP4 POP PUSH1 0x1F NOT DUP6 AND SWAP1 JUMPDEST DUP2 DUP2 LT PUSH2 0x45C JUMPI POP SWAP1 DUP5 PUSH1 0x1 SWAP6 SWAP5 SWAP4 SWAP3 LT PUSH2 0x443 JUMPI JUMPDEST POP POP POP DUP2 SHL ADD DUP3 SSTORE PUSH2 0x164 JUMP JUMPDEST ADD MLOAD PUSH1 0x0 NOT PUSH1 0xF8 DUP5 PUSH1 0x3 SHL AND SHR NOT AND SWAP1 SSTORE CODESIZE DUP1 DUP1 PUSH2 0x436 JUMP JUMPDEST SWAP3 SWAP4 PUSH1 0x20 PUSH1 0x1 DUP2 SWAP3 DUP8 DUP7 ADD MLOAD DUP2 SSTORE ADD SWAP6 ADD SWAP4 ADD PUSH2 0x420 JUMP JUMPDEST PUSH1 0x64 SWAP1 PUSH1 0xB PUSH1 0x40 MLOAD SWAP2 PUSH3 0x461BCD PUSH1 0xE5 SHL DUP4 MSTORE PUSH1 0x20 PUSH1 0x4 DUP5 ADD MSTORE DUP3 ADD MSTORE PUSH11 0x139BDD081CDD195DD85C99 PUSH1 0xAA SHL PUSH1 0x44 DUP3 ADD MSTORE REVERT JUMPDEST PUSH1 0x0 DUP1 REVERT JUMPDEST CALLVALUE PUSH2 0x4A6 JUMPI PUSH1 0x0 CALLDATASIZE PUSH1 0x3 NOT ADD SLT PUSH2 0x4A6 JUMPI PUSH1 0x20 PUSH1 0x2 SLOAD PUSH1 0x40 MLOAD SWAP1 DUP2 MSTORE RETURN JUMPDEST CALLVALUE PUSH2 0x4A6 JUMPI PUSH1 0x0 CALLDATASIZE PUSH1 0x3 NOT ADD SLT PUSH2 0x4A6 JUMPI PUSH1 0x0 SLOAD PUSH1 0x40 MLOAD PUSH1 0x1 PUSH1 0x1 PUSH1 0xA0 SHL SUB SWAP1 SWAP2 AND DUP2 MSTORE PUSH1 0x20 SWAP1 RETURN JUMPDEST CALLVALUE PUSH2 0x4A6 JUMPI PUSH1 0x20 CALLDATASIZE PUSH1 0x3 NOT ADD SLT PUSH2 0x4A6 JUMPI PUSH1 0x4 CALLDATALOAD PUSH8 0xFFFFFFFFFFFFFFFF DUP2 GT PUSH2 0x4A6 JUMPI PUSH2 0x525 PUSH1 0x20 SWAP2 CALLDATASIZE SWAP1 PUSH1 0x4 ADD PUSH2 0x8B0 JUMP JUMPDEST SWAP2 SWAP1 DUP3 PUSH1 0x40 MLOAD SWAP4 DUP5 SWAP3 DUP4 CALLDATACOPY DUP2 ADD PUSH1 0x1 DUP2 MSTORE SUB ADD SWAP1 KECCAK256 PUSH1 0x40 MLOAD PUSH2 0x546 DUP2 PUSH2 0x672 JUMP JUMPDEST PUSH2 0x54F DUP3 PUSH2 0x76A JUMP JUMPDEST DUP2 MSTORE PUSH2 0x580 PUSH1 0x2 PUSH2 0x562 PUSH1 0x1 DUP6 ADD PUSH2 0x76A JUMP JUMPDEST SWAP4 DUP5 PUSH1 0x20 DUP6 ADD MSTORE ADD SLOAD SWAP2 DUP3 PUSH1 0x40 DUP3 ADD MSTORE MLOAD SWAP2 PUSH1 0x40 MLOAD SWAP4 DUP5 SWAP4 DUP5 PUSH2 0x835 JUMP JUMPDEST SUB SWAP1 RETURN JUMPDEST CALLVALUE PUSH2 0x4A6 JUMPI PUSH1 0x20 CALLDATASIZE PUSH1 0x3 NOT ADD SLT PUSH2 0x4A6 JUMPI PUSH1 0x4 CALLDATALOAD PUSH1 0x2 SLOAD DUP2 LT ISZERO PUSH2 0x4A6 JUMPI PUSH2 0x5AB SWAP1 PUSH2 0x863 JUMP JUMPDEST PUSH2 0x5CF JUMPI PUSH2 0x5BB PUSH2 0x580 SWAP2 PUSH2 0x76A JUMP JUMPDEST PUSH1 0x40 MLOAD SWAP2 DUP3 SWAP2 PUSH1 0x20 DUP4 MSTORE PUSH1 0x20 DUP4 ADD SWAP1 PUSH2 0x810 JUMP JUMPDEST PUSH4 0x4E487B71 PUSH1 0xE0 SHL PUSH1 0x0 MSTORE PUSH1 0x0 PUSH1 0x4 MSTORE PUSH1 0x24 PUSH1 0x0 REVERT JUMPDEST CALLVALUE PUSH2 0x4A6 JUMPI PUSH1 0x20 CALLDATASIZE PUSH1 0x3 NOT ADD SLT PUSH2 0x4A6 JUMPI PUSH1 0x4 CALLDATALOAD PUSH8 0xFFFFFFFFFFFFFFFF DUP2 GT PUSH2 0x4A6 JUMPI CALLDATASIZE PUSH1 0x23 DUP3 ADD SLT ISZERO PUSH2 0x4A6 JUMPI PUSH1 0x20 PUSH2 0x62C PUSH2 0x63F SWAP3 CALLDATASIZE SWAP1 PUSH1 0x24 DUP2 PUSH1 0x4 ADD CALLDATALOAD SWAP2 ADD PUSH2 0x6C6 JUMP JUMPDEST DUP2 PUSH1 0x40 MLOAD SWAP4 DUP3 DUP6 DUP1 SWAP5 MLOAD SWAP4 DUP5 SWAP3 ADD PUSH2 0x70D JUMP JUMPDEST DUP2 ADD PUSH1 0x1 DUP2 MSTORE SUB ADD SWAP1 KECCAK256 PUSH2 0x652 DUP2 PUSH2 0x76A JUMP JUMPDEST PUSH2 0x580 PUSH1 0x2 PUSH2 0x663 PUSH1 0x1 DUP6 ADD PUSH2 0x76A JUMP JUMPDEST SWAP4 ADD SLOAD PUSH1 0x40 MLOAD SWAP4 DUP5 SWAP4 DUP5 PUSH2 0x835 JUMP JUMPDEST PUSH1 0x60 DUP2 ADD SWAP1 DUP2 LT PUSH8 0xFFFFFFFFFFFFFFFF DUP3 GT OR PUSH2 0x68E JUMPI PUSH1 0x40 MSTORE JUMP JUMPDEST PUSH4 0x4E487B71 PUSH1 0xE0 SHL PUSH1 0x0 MSTORE PUSH1 0x41 PUSH1 0x4 MSTORE PUSH1 0x24 PUSH1 0x0 REVERT JUMPDEST SWAP1 PUSH1 0x1F DUP1 NOT SWAP2 ADD AND DUP2 ADD SWAP1 DUP2 LT PUSH8 0xFFFFFFFFFFFFFFFF DUP3 GT OR PUSH2 0x68E JUMPI PUSH1 0x40 MSTORE JUMP JUMPDEST SWAP3 SWAP2 SWAP3 PUSH8 0xFFFFFFFFFFFFFFFF DUP3 GT PUSH2 0x68E JUMPI PUSH1 0x40 MLOAD SWAP2 PUSH2 0x6F0 PUSH1 0x1F DUP3 ADD PUSH1 0x1F NOT AND PUSH1 0x20 ADD DUP5 PUSH2 0x6A4 JUMP JUMPDEST DUP3 SWAP5 DUP2 DUP5 MSTORE DUP2 DUP4 ADD GT PUSH2 0x4A6 JUMPI DUP3 DUP2 PUSH1 0x20 SWAP4 DUP5 PUSH1 0x0 SWAP7 ADD CALLDATACOPY ADD ADD MSTORE JUMP JUMPDEST PUSH1 0x0 JUMPDEST DUP4 DUP2 LT PUSH2 0x720 JUMPI POP POP PUSH1 0x0 SWAP2 ADD MSTORE JUMP JUMPDEST DUP2 DUP2 ADD MLOAD DUP4 DUP3 ADD MSTORE PUSH1 0x20 ADD PUSH2 0x710 JUMP JUMPDEST SWAP1 PUSH1 0x1 DUP3 DUP2 SHR SWAP3 AND DUP1 ISZERO PUSH2 0x760 JUMPI JUMPDEST PUSH1 0x20 DUP4 LT EQ PUSH2 0x74A JUMPI JUMP JUMPDEST PUSH4 0x4E487B71 PUSH1 0xE0 SHL PUSH1 0x0 MSTORE PUSH1 0x22 PUSH1 0x4 MSTORE PUSH1 0x24 PUSH1 0x0 REVERT JUMPDEST SWAP2 PUSH1 0x7F AND SWAP2 PUSH2 0x73F JUMP JUMPDEST SWAP1 PUSH1 0x40 MLOAD SWAP2 DUP3 PUSH1 0x0 DUP3 SLOAD SWAP3 PUSH2 0x77E DUP5 PUSH2 0x730 JUMP JUMPDEST SWAP1 DUP2 DUP5 MSTORE PUSH1 0x1 SWAP5 DUP6 DUP2 AND SWAP1 DUP2 PUSH1 0x0 EQ PUSH2 0x7ED JUMPI POP PUSH1 0x1 EQ PUSH2 0x7AA JUMPI JUMPDEST POP POP PUSH2 0x7A8 SWAP3 POP SUB DUP4 PUSH2 0x6A4 JUMP JUMPDEST JUMP JUMPDEST SWAP1 SWAP4 SWAP2 POP PUSH1 0x0 MSTORE PUSH1 0x20 SWAP1 DUP2 PUSH1 0x0 KECCAK256 SWAP4 PUSH1 0x0 SWAP2 JUMPDEST DUP2 DUP4 LT PUSH2 0x7D5 JUMPI POP POP PUSH2 0x7A8 SWAP4 POP DUP3 ADD ADD CODESIZE DUP1 PUSH2 0x79A JUMP JUMPDEST DUP6 SLOAD DUP9 DUP5 ADD DUP6 ADD MSTORE SWAP5 DUP6 ADD SWAP5 DUP8 SWAP5 POP SWAP2 DUP4 ADD SWAP2 PUSH2 0x7BD JUMP JUMPDEST SWAP2 POP POP PUSH2 0x7A8 SWAP5 POP PUSH1 0x20 SWAP3 POP PUSH1 0xFF NOT AND DUP3 DUP5 ADD MSTORE ISZERO ISZERO PUSH1 0x5 SHL DUP3 ADD ADD CODESIZE DUP1 PUSH2 0x79A JUMP JUMPDEST SWAP1 PUSH1 0x20 SWAP2 PUSH2 0x829 DUP2 MLOAD DUP1 SWAP3 DUP2 DUP6 MSTORE DUP6 DUP1 DUP7 ADD SWAP2 ADD PUSH2 0x70D JUMP JUMPDEST PUSH1 0x1F ADD PUSH1 0x1F NOT AND ADD ADD SWAP1 JUMP JUMPDEST SWAP4 SWAP3 SWAP2 PUSH2 0x85E SWAP1 PUSH2 0x850 PUSH1 0x40 SWAP4 PUSH1 0x60 DUP9 MSTORE PUSH1 0x60 DUP9 ADD SWAP1 PUSH2 0x810 JUMP JUMPDEST SWAP1 DUP7 DUP3 SUB PUSH1 0x20 DUP9 ADD MSTORE PUSH2 0x810 JUMP JUMPDEST SWAP4 ADD MSTORE JUMP JUMPDEST PUSH1 0x2 SLOAD DUP2 LT ISZERO PUSH2 0x89A JUMPI PUSH1 0x2 PUSH1 0x0 MSTORE PUSH32 0x405787FA12A823E0F2B7631CC41B3BA8828B3321CA811111FA75CD3AA3BB5ACE ADD SWAP1 PUSH1 0x0 SWAP1 JUMP JUMPDEST PUSH4 0x4E487B71 PUSH1 0xE0 SHL PUSH1 0x0 MSTORE PUSH1 0x32 PUSH1 0x4 MSTORE PUSH1 0x24 PUSH1 0x0 REVERT JUMPDEST SWAP2 DUP2 PUSH1 0x1F DUP5 ADD SLT ISZERO PUSH2 0x4A6 JUMPI DUP3 CALLDATALOAD SWAP2 PUSH8 0xFFFFFFFFFFFFFFFF DUP4 GT PUSH2 0x4A6 JUMPI PUSH1 0x20 DUP4 DUP2 DUP7 ADD SWAP6 ADD ADD GT PUSH2 0x4A6 JUMPI JUMP JUMPDEST SWAP1 PUSH1 0x1F DUP2 GT PUSH2 0x8EC JUMPI POP POP POP JUMP JUMPDEST PUSH1 0x0 SWAP2 DUP3 MSTORE PUSH1 0x20 DUP3 KECCAK256 SWAP1 PUSH1 0x20 PUSH1 0x1F DUP6 ADD PUSH1 0x5 SHR DUP4 ADD SWAP5 LT PUSH2 0x928 JUMPI JUMPDEST PUSH1 0x1F ADD PUSH1 0x5 SHR ADD SWAP2 JUMPDEST DUP3 DUP2 LT PUSH2 0x91D JUMPI POP POP POP JUMP JUMPDEST DUP2 DUP2 SSTORE PUSH1 0x1 ADD PUSH2 0x911 JUMP JUMPDEST SWAP1 SWAP3 POP DUP3 SWAP1 PUSH2 0x908 JUMP JUMPDEST SWAP1 DUP1 PUSH1 0x20 SWAP4 SWAP3 DUP2 DUP5 MSTORE DUP5 DUP5 ADD CALLDATACOPY PUSH1 0x0 DUP3 DUP3 ADD DUP5 ADD MSTORE PUSH1 0x1F ADD PUSH1 0x1F NOT AND ADD ADD SWAP1 JUMP INVALID LOG2 PUSH5 0x6970667358 0x22 SLT KECCAK256 SWAP8 0xB8 RETURNDATACOPY 0xB7 0x2C MSIZE 0x2B DUP2 RETURNDATASIZE ADDRESS PUSH28 0x676CBDCBD62D1C8A7A3E6E639B0EC8253DAD0E9F7764736F6C634300 ADDMOD EQ STOP CALLER "},"methodIdentifiers":{"bindCorridor(string,string,uint256)":"b7ffdb1b","corridorKeys(uint256)":"398a0c87","corridors(string)":"17687843","getCorridor(string)":"4f0e6c36","steward()":"637eea19","totalCorridors()":"6a2f7884"}}}}}