{"contracts/KickbackLedger.sol":{"KickbackLedger":{"abi":[{"anonymous":false,"inputs":[{"indexed":true,"internalType":"address","name":"apprentice","type":"address"},{"indexed":false,"internalType":"uint256","name":"amount","type":"uint256"}],"name":"InflowRecorded","type":"event"},{"anonymous":false,"inputs":[{"indexed":true,"internalType":"address","name":"apprentice","type":"address"},{"indexed":false,"internalType":"uint256","name":"amount","type":"uint256"}],"name":"KickbackRouted","type":"event"},{"inputs":[{"internalType":"address","name":"","type":"address"}],"name":"inflow","outputs":[{"internalType":"uint256","name":"","type":"uint256"}],"stateMutability":"view","type":"function"},{"inputs":[{"internalType":"address","name":"","type":"address"}],"name":"kickback","outputs":[{"internalType":"uint256","name":"","type":"uint256"}],"stateMutability":"view","type":"function"},{"inputs":[{"internalType":"address","name":"apprentice","type":"address"},{"internalType":"uint256","name":"amount","type":"uint256"}],"name":"recordInflow","outputs":[],"stateMutability":"nonpayable","type":"function"},{"inputs":[{"internalType":"address","name":"apprentice","type":"address"},{"internalType":"uint256","name":"amount","type":"uint256"}],"name":"routeKickback","outputs":[],"stateMutability":"nonpayable","type":"function"}],"evm":{"bytecode":{"linkReferences":{},"object":"608080604052346100165761027e908161001c8239f35b600080fdfe60806040818152600436101561001457600080fd5b600091823560e01c9081635850ffb9146101d357508063654630c4146100ef5780638db04af2146100b85763952aede91461004e57600080fd5b346100b457806003193601126100b4577fd85f0c242ab1ee3adeb7b2665bc69860d4776d3902afc4406cddbc72e73ee83b602061008961020a565b6024359060018060a01b0316938486528583528086206100aa838254610225565b905551908152a280f35b5080fd5b50346100b45760203660031901126100b45760209181906001600160a01b036100df61020a565b1681526001845220549051908152f35b50346100b457806003193601126100b45761010861020a565b6001600160a01b0316808352602083905281832054909160243591821161019a57828452600160205280842061013f838254610225565b9055828452836020528084208054908382039182116101865755519081527f29c6a3aa9d4f81fbbd696ef82cd1f37ad681f7ef743a171fd1de667b3351b50990602090a280f35b634e487b7160e01b86526011600452602486fd5b5162461bcd60e51b8152602060048201526013602482015272496e73756666696369656e7420696e666c6f7760681b6044820152606490fd5b91905034610206576020366003190112610206576020926001600160a01b036101fa61020a565b16815280845220548152f35b8280fd5b600435906001600160a01b038216820361022057565b600080fd5b9190820180921161023257565b634e487b7160e01b600052601160045260246000fdfea2646970667358221220eb1f524df939b9789ce725afc078a000495ca26211f52348bd8d4c5c00fe7feb64736f6c63430008140033","opcodes":"PUSH1 0x80 DUP1 PUSH1 0x40 MSTORE CALLVALUE PUSH2 0x16 JUMPI PUSH2 0x27E SWAP1 DUP2 PUSH2 0x1C DUP3 CODECOPY RETURN JUMPDEST PUSH1 0x0 DUP1 REVERT INVALID PUSH1 0x80 PUSH1 0x40 DUP2 DUP2 MSTORE PUSH1 0x4 CALLDATASIZE LT ISZERO PUSH2 0x14 JUMPI PUSH1 0x0 DUP1 REVERT JUMPDEST PUSH1 0x0 SWAP2 DUP3 CALLDATALOAD PUSH1 0xE0 SHR SWAP1 DUP2 PUSH4 0x5850FFB9 EQ PUSH2 0x1D3 JUMPI POP DUP1 PUSH4 0x654630C4 EQ PUSH2 0xEF JUMPI DUP1 PUSH4 0x8DB04AF2 EQ PUSH2 0xB8 JUMPI PUSH4 0x952AEDE9 EQ PUSH2 0x4E JUMPI PUSH1 0x0 DUP1 REVERT JUMPDEST CALLVALUE PUSH2 0xB4 JUMPI DUP1 PUSH1 0x3 NOT CALLDATASIZE ADD SLT PUSH2 0xB4 JUMPI PUSH32 0xD85F0C242AB1EE3ADEB7B2665BC69860D4776D3902AFC4406CDDBC72E73EE83B PUSH1 0x20 PUSH2 0x89 PUSH2 0x20A JUMP JUMPDEST PUSH1 0x24 CALLDATALOAD SWAP1 PUSH1 0x1 DUP1 PUSH1 0xA0 SHL SUB AND SWAP4 DUP5 DUP7 MSTORE DUP6 DUP4 MSTORE DUP1 DUP7 KECCAK256 PUSH2 0xAA DUP4 DUP3 SLOAD PUSH2 0x225 JUMP JUMPDEST SWAP1 SSTORE MLOAD SWAP1 DUP2 MSTORE LOG2 DUP1 RETURN JUMPDEST POP DUP1 REVERT JUMPDEST POP CALLVALUE PUSH2 0xB4 JUMPI PUSH1 0x20 CALLDATASIZE PUSH1 0x3 NOT ADD SLT PUSH2 0xB4 JUMPI PUSH1 0x20 SWAP2 DUP2 SWAP1 PUSH1 0x1 PUSH1 0x1 PUSH1 0xA0 SHL SUB PUSH2 0xDF PUSH2 0x20A JUMP JUMPDEST AND DUP2 MSTORE PUSH1 0x1 DUP5 MSTORE KECCAK256 SLOAD SWAP1 MLOAD SWAP1 DUP2 MSTORE RETURN JUMPDEST POP CALLVALUE PUSH2 0xB4 JUMPI DUP1 PUSH1 0x3 NOT CALLDATASIZE ADD SLT PUSH2 0xB4 JUMPI PUSH2 0x108 PUSH2 0x20A JUMP JUMPDEST PUSH1 0x1 PUSH1 0x1 PUSH1 0xA0 SHL SUB AND DUP1 DUP4 MSTORE PUSH1 0x20 DUP4 SWAP1 MSTORE DUP2 DUP4 KECCAK256 SLOAD SWAP1 SWAP2 PUSH1 0x24 CALLDATALOAD SWAP2 DUP3 GT PUSH2 0x19A JUMPI DUP3 DUP5 MSTORE PUSH1 0x1 PUSH1 0x20 MSTORE DUP1 DUP5 KECCAK256 PUSH2 0x13F DUP4 DUP3 SLOAD PUSH2 0x225 JUMP JUMPDEST SWAP1 SSTORE DUP3 DUP5 MSTORE DUP4 PUSH1 0x20 MSTORE DUP1 DUP5 KECCAK256 DUP1 SLOAD SWAP1 DUP4 DUP3 SUB SWAP2 DUP3 GT PUSH2 0x186 JUMPI SSTORE MLOAD SWAP1 DUP2 MSTORE PUSH32 0x29C6A3AA9D4F81FBBD696EF82CD1F37AD681F7EF743A171FD1DE667B3351B509 SWAP1 PUSH1 0x20 SWAP1 LOG2 DUP1 RETURN JUMPDEST PUSH4 0x4E487B71 PUSH1 0xE0 SHL DUP7 MSTORE PUSH1 0x11 PUSH1 0x4 MSTORE PUSH1 0x24 DUP7 REVERT JUMPDEST MLOAD PUSH3 0x461BCD PUSH1 0xE5 SHL DUP2 MSTORE PUSH1 0x20 PUSH1 0x4 DUP3 ADD MSTORE PUSH1 0x13 PUSH1 0x24 DUP3 ADD MSTORE PUSH19 0x496E73756666696369656E7420696E666C6F77 PUSH1 0x68 SHL PUSH1 0x44 DUP3 ADD MSTORE PUSH1 0x64 SWAP1 REVERT JUMPDEST SWAP2 SWAP1 POP CALLVALUE PUSH2 0x206 JUMPI PUSH1 0x20 CALLDATASIZE PUSH1 0x3 NOT ADD SLT PUSH2 0x206 JUMPI PUSH1 0x20 SWAP3 PUSH1 0x1 PUSH1 0x1 PUSH1 0xA0 SHL SUB PUSH2 0x1FA PUSH2 0x20A JUMP JUMPDEST AND DUP2 MSTORE DUP1 DUP5 MSTORE KECCAK256 SLOAD DUP2 MSTORE RETURN JUMPDEST DUP3 DUP1 REVERT JUMPDEST PUSH1 0x4 CALLDATALOAD SWAP1 PUSH1 0x1 PUSH1 0x1 PUSH1 0xA0 SHL SUB DUP3 AND DUP3 SUB PUSH2 0x220 JUMPI JUMP JUMPDEST PUSH1 0x0 DUP1 REVERT JUMPDEST SWAP2 SWAP1 DUP3 ADD DUP1 SWAP3 GT PUSH2 0x232 JUMPI JUMP JUMPDEST PUSH4 0x4E487B71 PUSH1 0xE0 SHL PUSH1 0x0 MSTORE PUSH1 0x11 PUSH1 0x4 MSTORE PUSH1 0x24 PUSH1 0x0 REVERT INVALID LOG2 PUSH5 0x6970667358 0x22 SLT KECCAK256 0xEB 0x1F MSTORE 0x4D 0xF9 CODECOPY 0xB9 PUSH25 0x9CE725AFC078A000495CA26211F52348BD8D4C5C00FE7FEB64 PUSH20 0x6F6C634300081400330000000000000000000000 "},"methodIdentifiers":{"inflow(address)":"5850ffb9","kickback(address)":"8db04af2","recordInflow(address,uint256)":"952aede9","routeKickback(address,uint256)":"654630c4"}}}}}