{"contracts/OrbitalSanctumRegistry.sol":{"OrbitalSanctumRegistry":{"abi":[{"anonymous":false,"inputs":[{"indexed":true,"internalType":"address","name":"apprentice","type":"address"},{"indexed":false,"internalType":"string","name":"node","type":"string"}],"name":"InflowRouted","type":"event"},{"anonymous":false,"inputs":[{"indexed":true,"internalType":"address","name":"apprentice","type":"address"},{"indexed":false,"internalType":"string","name":"node","type":"string"}],"name":"LineageInscribed","type":"event"},{"anonymous":false,"inputs":[{"indexed":true,"internalType":"address","name":"apprentice","type":"address"},{"indexed":false,"internalType":"string","name":"city","type":"string"},{"indexed":false,"internalType":"string","name":"corridor","type":"string"},{"indexed":false,"internalType":"string","name":"node","type":"string"}],"name":"SanctumMapped","type":"event"},{"inputs":[{"internalType":"address","name":"apprentice","type":"address"}],"name":"getOrbitalSanctum","outputs":[{"components":[{"internalType":"string","name":"city","type":"string"},{"internalType":"string","name":"corridor","type":"string"},{"internalType":"string","name":"node","type":"string"},{"internalType":"bool","name":"activated","type":"bool"}],"internalType":"struct OrbitalSanctumRegistry.OrbitalSanctum","name":"","type":"tuple"}],"stateMutability":"view","type":"function"},{"inputs":[{"internalType":"address","name":"apprentice","type":"address"},{"internalType":"string","name":"node","type":"string"}],"name":"inscribeLineage","outputs":[],"stateMutability":"nonpayable","type":"function"},{"inputs":[{"internalType":"address","name":"apprentice","type":"address"},{"internalType":"string","name":"node","type":"string"}],"name":"routeInflow","outputs":[],"stateMutability":"nonpayable","type":"function"},{"inputs":[{"internalType":"address","name":"","type":"address"}],"name":"sanctums","outputs":[{"internalType":"string","name":"city","type":"string"},{"internalType":"string","name":"corridor","type":"string"},{"internalType":"string","name":"node","type":"string"},{"internalType":"bool","name":"activated","type":"bool"}],"stateMutability":"view","type":"function"},{"inputs":[{"internalType":"address","name":"apprentice","type":"address"},{"internalType":"string","name":"city","type":"string"},{"internalType":"string","name":"corridor","type":"string"},{"internalType":"string","name":"node","type":"string"}],"name":"setOrbitalSanctum","outputs":[],"stateMutability":"nonpayable","type":"function"}],"evm":{"bytecode":{"linkReferences":{},"object":"6080806040523461001657610a6e908161001c8239f35b600080fdfe6080604052600436101561001257600080fd5b60003560e01c80633d351a27146102cd5780634eb66eeb1461029b57806386157d58146101f05780638f0d367d146100f85763b48146211461005357600080fd5b346100f35760203660031901126100f3576001600160a01b036100746107aa565b1660005260006020526100cb604060002061008e81610912565b906100e761009e60018301610912565b916100d960ff60036100b260028501610912565b9301541693604051968796608088526080880190610898565b908682036020880152610898565b908482036040860152610898565b90151560608301520390f35b600080fd5b346100f3576020806003193601126100f3576080906101156107aa565b9060405191610123836107c0565b6000606084818096528185820152816040820152015260018060a01b0316600052600081526101e360406000206040519361015d856107c0565b61016682610912565b855261017460018301610912565b908486019182526101d36101bd60ff600361019160028801610912565b9660408b01978852015416968389019715158852604051998a99828b5251918a015260a0890190610898565b925192601f1993848983030160408a0152610898565b9251918684030190860152610898565b9051151560808301520390f35b346100f3576102967f90d0d18ea3c3400deb07755e9d922f7fe428c2402fa58bb8bde74fce90818ae861022236610855565b929060018060a01b03169283600052600060205261024a60ff600360406000200154166109b8565b83600052600060205261028261027d8261026a6002604060002001610912565b6020815191012090602081519101201490565b6109fc565b604051918291602083526020830190610898565b0390a2005b346100f3576102967fcdd5a95d40f127ce69b62859cda3cfe9c611c5a4ed1c584728e96a83952970c061022236610855565b346100f35760803660031901126100f3576102e66107aa565b60243567ffffffffffffffff81116100f3576103069036906004016107fe565b60443567ffffffffffffffff81116100f3576103269036906004016107fe565b9160643567ffffffffffffffff81116100f3576103479036906004016107fe565b92604051610354816107c0565b8381528160208201528460408201526001606082015260018060a01b03831660005260006020526040600020815180519067ffffffffffffffff82116106085781906103a084546108d8565b601f811161075a575b50602090601f83116001146106f4576000926106e9575b50508160011b916000199060031b1c19161781555b602082015180519067ffffffffffffffff82116106085781906103fb60018501546108d8565b601f8111610696575b50602090601f83116001146106295760009261061e575b50508160011b916000199060031b1c19161760018201555b604082015180519067ffffffffffffffff82116106085761045760028401546108d8565b601f81116105bd575b50602090601f831160011461051d5793606060036104eb9895856104f9967fe361aeada16075d1956b55327940e426fa805b188576fdbc11bc282ea0f878be9c9a966102969a600092610512575b50508160011b9160001990851b1c19161760028201555b01910151151560ff80198354169116179055604051958695606087526060870190610898565b908582036020870152610898565b83810360408501526001600160a01b0390911695610898565b015190508e806104ae565b90601f198316916002850160005260206000209260005b8181106105a557506104eb98956001867fe361aeada16075d1956b55327940e426fa805b188576fdbc11bc282ea0f878be9c9a966102969a966060966104f99a6003971061058d575b505050811b0160028201556104c5565b015160001983871b60f8161c191690558e808061057d565b92936020600181928786015181550195019301610534565b600284016000526020600020601f840160051c810191602085106105fe575b601f0160051c01905b8181106105f25750610460565b600081556001016105e5565b90915081906105dc565b634e487b7160e01b600052604160045260246000fd5b01519050888061041b565b600185016000908152602081209350601f198516905b81811061067e5750908460019594939210610665575b505050811b016001820155610433565b015160001960f88460031b161c19169055888080610655565b9293602060018192878601518155019501930161063f565b909150600184016000526020600020601f840160051c8101602085106106e2575b90849392915b601f830160051c820181106106d3575050610404565b600081558594506001016106bd565b50806106b7565b0151905088806103c0565b6000858152602081209350601f198516905b8181106107425750908460019594939210610729575b505050811b0181556103d5565b015160001960f88460031b161c1916905588808061071c565b92936020600181928786015181550195019301610706565b909150836000526020600020601f840160051c8101602085106107a3575b90849392915b601f830160051c820181106107945750506103a9565b6000815585945060010161077e565b5080610778565b600435906001600160a01b03821682036100f357565b6080810190811067ffffffffffffffff82111761060857604052565b90601f8019910116810190811067ffffffffffffffff82111761060857604052565b81601f820112156100f35780359067ffffffffffffffff82116106085760405192610833601f8401601f1916602001856107dc565b828452602083830101116100f357816000926020809301838601378301015290565b9060406003198301126100f3576004356001600160a01b03811681036100f357916024359067ffffffffffffffff82116100f357610895916004016107fe565b90565b919082519283825260005b8481106108c4575050826000602080949584010152601f8019910116010190565b6020818301810151848301820152016108a3565b90600182811c92168015610908575b60208310146108f257565b634e487b7160e01b600052602260045260246000fd5b91607f16916108e7565b9060405191826000825492610926846108d8565b9081845260019485811690816000146109955750600114610952575b5050610950925003836107dc565b565b9093915060005260209081600020936000915b81831061097d57505061095093508201013880610942565b85548884018501529485019487945091830191610965565b91505061095094506020925060ff191682840152151560051b8201013880610942565b156109bf57565b60405162461bcd60e51b815260206004820152601560248201527414d85b98dd1d5b481b9bdd081858dd1a5d985d1959605a1b6044820152606490fd5b15610a0357565b60405162461bcd60e51b815260206004820152600d60248201526c09cdec8ca40dad2e6dac2e8c6d609b1b6044820152606490fdfea264697066735822122022dbef46da024bb7105fee82e446bc04181228c0e7306ade9ec33674104137b064736f6c63430008140033","opcodes":"PUSH1 0x80 DUP1 PUSH1 0x40 MSTORE CALLVALUE PUSH2 0x16 JUMPI PUSH2 0xA6E SWAP1 DUP2 PUSH2 0x1C DUP3 CODECOPY RETURN JUMPDEST PUSH1 0x0 DUP1 REVERT INVALID PUSH1 0x80 PUSH1 0x40 MSTORE PUSH1 0x4 CALLDATASIZE LT ISZERO PUSH2 0x12 JUMPI PUSH1 0x0 DUP1 REVERT JUMPDEST PUSH1 0x0 CALLDATALOAD PUSH1 0xE0 SHR DUP1 PUSH4 0x3D351A27 EQ PUSH2 0x2CD JUMPI DUP1 PUSH4 0x4EB66EEB EQ PUSH2 0x29B JUMPI DUP1 PUSH4 0x86157D58 EQ PUSH2 0x1F0 JUMPI DUP1 PUSH4 0x8F0D367D EQ PUSH2 0xF8 JUMPI PUSH4 0xB4814621 EQ PUSH2 0x53 JUMPI PUSH1 0x0 DUP1 REVERT JUMPDEST CALLVALUE PUSH2 0xF3 JUMPI PUSH1 0x20 CALLDATASIZE PUSH1 0x3 NOT ADD SLT PUSH2 0xF3 JUMPI PUSH1 0x1 PUSH1 0x1 PUSH1 0xA0 SHL SUB PUSH2 0x74 PUSH2 0x7AA JUMP JUMPDEST AND PUSH1 0x0 MSTORE PUSH1 0x0 PUSH1 0x20 MSTORE PUSH2 0xCB PUSH1 0x40 PUSH1 0x0 KECCAK256 PUSH2 0x8E DUP2 PUSH2 0x912 JUMP JUMPDEST SWAP1 PUSH2 0xE7 PUSH2 0x9E PUSH1 0x1 DUP4 ADD PUSH2 0x912 JUMP JUMPDEST SWAP2 PUSH2 0xD9 PUSH1 0xFF PUSH1 0x3 PUSH2 0xB2 PUSH1 0x2 DUP6 ADD PUSH2 0x912 JUMP JUMPDEST SWAP4 ADD SLOAD AND SWAP4 PUSH1 0x40 MLOAD SWAP7 DUP8 SWAP7 PUSH1 0x80 DUP9 MSTORE PUSH1 0x80 DUP9 ADD SWAP1 PUSH2 0x898 JUMP JUMPDEST SWAP1 DUP7 DUP3 SUB PUSH1 0x20 DUP9 ADD MSTORE PUSH2 0x898 JUMP JUMPDEST SWAP1 DUP5 DUP3 SUB PUSH1 0x40 DUP7 ADD MSTORE PUSH2 0x898 JUMP JUMPDEST SWAP1 ISZERO ISZERO PUSH1 0x60 DUP4 ADD MSTORE SUB SWAP1 RETURN JUMPDEST PUSH1 0x0 DUP1 REVERT JUMPDEST CALLVALUE PUSH2 0xF3 JUMPI PUSH1 0x20 DUP1 PUSH1 0x3 NOT CALLDATASIZE ADD SLT PUSH2 0xF3 JUMPI PUSH1 0x80 SWAP1 PUSH2 0x115 PUSH2 0x7AA JUMP JUMPDEST SWAP1 PUSH1 0x40 MLOAD SWAP2 PUSH2 0x123 DUP4 PUSH2 0x7C0 JUMP JUMPDEST PUSH1 0x0 PUSH1 0x60 DUP5 DUP2 DUP1 SWAP7 MSTORE DUP2 DUP6 DUP3 ADD MSTORE DUP2 PUSH1 0x40 DUP3 ADD MSTORE ADD MSTORE PUSH1 0x1 DUP1 PUSH1 0xA0 SHL SUB AND PUSH1 0x0 MSTORE PUSH1 0x0 DUP2 MSTORE PUSH2 0x1E3 PUSH1 0x40 PUSH1 0x0 KECCAK256 PUSH1 0x40 MLOAD SWAP4 PUSH2 0x15D DUP6 PUSH2 0x7C0 JUMP JUMPDEST PUSH2 0x166 DUP3 PUSH2 0x912 JUMP JUMPDEST DUP6 MSTORE PUSH2 0x174 PUSH1 0x1 DUP4 ADD PUSH2 0x912 JUMP JUMPDEST SWAP1 DUP5 DUP7 ADD SWAP2 DUP3 MSTORE PUSH2 0x1D3 PUSH2 0x1BD PUSH1 0xFF PUSH1 0x3 PUSH2 0x191 PUSH1 0x2 DUP9 ADD PUSH2 0x912 JUMP JUMPDEST SWAP7 PUSH1 0x40 DUP12 ADD SWAP8 DUP9 MSTORE ADD SLOAD AND SWAP7 DUP4 DUP10 ADD SWAP8 ISZERO ISZERO DUP9 MSTORE PUSH1 0x40 MLOAD SWAP10 DUP11 SWAP10 DUP3 DUP12 MSTORE MLOAD SWAP2 DUP11 ADD MSTORE PUSH1 0xA0 DUP10 ADD SWAP1 PUSH2 0x898 JUMP JUMPDEST SWAP3 MLOAD SWAP3 PUSH1 0x1F NOT SWAP4 DUP5 DUP10 DUP4 SUB ADD PUSH1 0x40 DUP11 ADD MSTORE PUSH2 0x898 JUMP JUMPDEST SWAP3 MLOAD SWAP2 DUP7 DUP5 SUB ADD SWAP1 DUP7 ADD MSTORE PUSH2 0x898 JUMP JUMPDEST SWAP1 MLOAD ISZERO ISZERO PUSH1 0x80 DUP4 ADD MSTORE SUB SWAP1 RETURN JUMPDEST CALLVALUE PUSH2 0xF3 JUMPI PUSH2 0x296 PUSH32 0x90D0D18EA3C3400DEB07755E9D922F7FE428C2402FA58BB8BDE74FCE90818AE8 PUSH2 0x222 CALLDATASIZE PUSH2 0x855 JUMP JUMPDEST SWAP3 SWAP1 PUSH1 0x1 DUP1 PUSH1 0xA0 SHL SUB AND SWAP3 DUP4 PUSH1 0x0 MSTORE PUSH1 0x0 PUSH1 0x20 MSTORE PUSH2 0x24A PUSH1 0xFF PUSH1 0x3 PUSH1 0x40 PUSH1 0x0 KECCAK256 ADD SLOAD AND PUSH2 0x9B8 JUMP JUMPDEST DUP4 PUSH1 0x0 MSTORE PUSH1 0x0 PUSH1 0x20 MSTORE PUSH2 0x282 PUSH2 0x27D DUP3 PUSH2 0x26A PUSH1 0x2 PUSH1 0x40 PUSH1 0x0 KECCAK256 ADD PUSH2 0x912 JUMP JUMPDEST PUSH1 0x20 DUP2 MLOAD SWAP2 ADD KECCAK256 SWAP1 PUSH1 0x20 DUP2 MLOAD SWAP2 ADD KECCAK256 EQ SWAP1 JUMP JUMPDEST PUSH2 0x9FC JUMP JUMPDEST PUSH1 0x40 MLOAD SWAP2 DUP3 SWAP2 PUSH1 0x20 DUP4 MSTORE PUSH1 0x20 DUP4 ADD SWAP1 PUSH2 0x898 JUMP JUMPDEST SUB SWAP1 LOG2 STOP JUMPDEST CALLVALUE PUSH2 0xF3 JUMPI PUSH2 0x296 PUSH32 0xCDD5A95D40F127CE69B62859CDA3CFE9C611C5A4ED1C584728E96A83952970C0 PUSH2 0x222 CALLDATASIZE PUSH2 0x855 JUMP JUMPDEST CALLVALUE PUSH2 0xF3 JUMPI PUSH1 0x80 CALLDATASIZE PUSH1 0x3 NOT ADD SLT PUSH2 0xF3 JUMPI PUSH2 0x2E6 PUSH2 0x7AA JUMP JUMPDEST PUSH1 0x24 CALLDATALOAD PUSH8 0xFFFFFFFFFFFFFFFF DUP2 GT PUSH2 0xF3 JUMPI PUSH2 0x306 SWAP1 CALLDATASIZE SWAP1 PUSH1 0x4 ADD PUSH2 0x7FE JUMP JUMPDEST PUSH1 0x44 CALLDATALOAD PUSH8 0xFFFFFFFFFFFFFFFF DUP2 GT PUSH2 0xF3 JUMPI PUSH2 0x326 SWAP1 CALLDATASIZE SWAP1 PUSH1 0x4 ADD PUSH2 0x7FE JUMP JUMPDEST SWAP2 PUSH1 0x64 CALLDATALOAD PUSH8 0xFFFFFFFFFFFFFFFF DUP2 GT PUSH2 0xF3 JUMPI PUSH2 0x347 SWAP1 CALLDATASIZE SWAP1 PUSH1 0x4 ADD PUSH2 0x7FE JUMP JUMPDEST SWAP3 PUSH1 0x40 MLOAD PUSH2 0x354 DUP2 PUSH2 0x7C0 JUMP JUMPDEST DUP4 DUP2 MSTORE DUP2 PUSH1 0x20 DUP3 ADD MSTORE DUP5 PUSH1 0x40 DUP3 ADD MSTORE PUSH1 0x1 PUSH1 0x60 DUP3 ADD MSTORE PUSH1 0x1 DUP1 PUSH1 0xA0 SHL SUB DUP4 AND PUSH1 0x0 MSTORE PUSH1 0x0 PUSH1 0x20 MSTORE PUSH1 0x40 PUSH1 0x0 KECCAK256 DUP2 MLOAD DUP1 MLOAD SWAP1 PUSH8 0xFFFFFFFFFFFFFFFF DUP3 GT PUSH2 0x608 JUMPI DUP2 SWAP1 PUSH2 0x3A0 DUP5 SLOAD PUSH2 0x8D8 JUMP JUMPDEST PUSH1 0x1F DUP2 GT PUSH2 0x75A JUMPI JUMPDEST POP PUSH1 0x20 SWAP1 PUSH1 0x1F DUP4 GT PUSH1 0x1 EQ PUSH2 0x6F4 JUMPI PUSH1 0x0 SWAP3 PUSH2 0x6E9 JUMPI JUMPDEST POP POP DUP2 PUSH1 0x1 SHL SWAP2 PUSH1 0x0 NOT SWAP1 PUSH1 0x3 SHL SHR NOT AND OR DUP2 SSTORE JUMPDEST PUSH1 0x20 DUP3 ADD MLOAD DUP1 MLOAD SWAP1 PUSH8 0xFFFFFFFFFFFFFFFF DUP3 GT PUSH2 0x608 JUMPI DUP2 SWAP1 PUSH2 0x3FB PUSH1 0x1 DUP6 ADD SLOAD PUSH2 0x8D8 JUMP JUMPDEST PUSH1 0x1F DUP2 GT PUSH2 0x696 JUMPI JUMPDEST POP PUSH1 0x20 SWAP1 PUSH1 0x1F DUP4 GT PUSH1 0x1 EQ PUSH2 0x629 JUMPI PUSH1 0x0 SWAP3 PUSH2 0x61E JUMPI JUMPDEST POP POP DUP2 PUSH1 0x1 SHL SWAP2 PUSH1 0x0 NOT SWAP1 PUSH1 0x3 SHL SHR NOT AND OR PUSH1 0x1 DUP3 ADD SSTORE JUMPDEST PUSH1 0x40 DUP3 ADD MLOAD DUP1 MLOAD SWAP1 PUSH8 0xFFFFFFFFFFFFFFFF DUP3 GT PUSH2 0x608 JUMPI PUSH2 0x457 PUSH1 0x2 DUP5 ADD SLOAD PUSH2 0x8D8 JUMP JUMPDEST PUSH1 0x1F DUP2 GT PUSH2 0x5BD JUMPI JUMPDEST POP PUSH1 0x20 SWAP1 PUSH1 0x1F DUP4 GT PUSH1 0x1 EQ PUSH2 0x51D JUMPI SWAP4 PUSH1 0x60 PUSH1 0x3 PUSH2 0x4EB SWAP9 SWAP6 DUP6 PUSH2 0x4F9 SWAP7 PUSH32 0xE361AEADA16075D1956B55327940E426FA805B188576FDBC11BC282EA0F878BE SWAP13 SWAP11 SWAP7 PUSH2 0x296 SWAP11 PUSH1 0x0 SWAP3 PUSH2 0x512 JUMPI JUMPDEST POP POP DUP2 PUSH1 0x1 SHL SWAP2 PUSH1 0x0 NOT SWAP1 DUP6 SHL SHR NOT AND OR PUSH1 0x2 DUP3 ADD SSTORE JUMPDEST ADD SWAP2 ADD MLOAD ISZERO ISZERO PUSH1 0xFF DUP1 NOT DUP4 SLOAD AND SWAP2 AND OR SWAP1 SSTORE PUSH1 0x40 MLOAD SWAP6 DUP7 SWAP6 PUSH1 0x60 DUP8 MSTORE PUSH1 0x60 DUP8 ADD SWAP1 PUSH2 0x898 JUMP JUMPDEST SWAP1 DUP6 DUP3 SUB PUSH1 0x20 DUP8 ADD MSTORE PUSH2 0x898 JUMP JUMPDEST DUP4 DUP2 SUB PUSH1 0x40 DUP6 ADD MSTORE PUSH1 0x1 PUSH1 0x1 PUSH1 0xA0 SHL SUB SWAP1 SWAP2 AND SWAP6 PUSH2 0x898 JUMP JUMPDEST ADD MLOAD SWAP1 POP DUP15 DUP1 PUSH2 0x4AE JUMP JUMPDEST SWAP1 PUSH1 0x1F NOT DUP4 AND SWAP2 PUSH1 0x2 DUP6 ADD PUSH1 0x0 MSTORE PUSH1 0x20 PUSH1 0x0 KECCAK256 SWAP3 PUSH1 0x0 JUMPDEST DUP2 DUP2 LT PUSH2 0x5A5 JUMPI POP PUSH2 0x4EB SWAP9 SWAP6 PUSH1 0x1 DUP7 PUSH32 0xE361AEADA16075D1956B55327940E426FA805B188576FDBC11BC282EA0F878BE SWAP13 SWAP11 SWAP7 PUSH2 0x296 SWAP11 SWAP7 PUSH1 0x60 SWAP7 PUSH2 0x4F9 SWAP11 PUSH1 0x3 SWAP8 LT PUSH2 0x58D JUMPI JUMPDEST POP POP POP DUP2 SHL ADD PUSH1 0x2 DUP3 ADD SSTORE PUSH2 0x4C5 JUMP JUMPDEST ADD MLOAD PUSH1 0x0 NOT DUP4 DUP8 SHL PUSH1 0xF8 AND SHR NOT AND SWAP1 SSTORE DUP15 DUP1 DUP1 PUSH2 0x57D JUMP JUMPDEST SWAP3 SWAP4 PUSH1 0x20 PUSH1 0x1 DUP2 SWAP3 DUP8 DUP7 ADD MLOAD DUP2 SSTORE ADD SWAP6 ADD SWAP4 ADD PUSH2 0x534 JUMP JUMPDEST PUSH1 0x2 DUP5 ADD PUSH1 0x0 MSTORE PUSH1 0x20 PUSH1 0x0 KECCAK256 PUSH1 0x1F DUP5 ADD PUSH1 0x5 SHR DUP2 ADD SWAP2 PUSH1 0x20 DUP6 LT PUSH2 0x5FE JUMPI JUMPDEST PUSH1 0x1F ADD PUSH1 0x5 SHR ADD SWAP1 JUMPDEST DUP2 DUP2 LT PUSH2 0x5F2 JUMPI POP PUSH2 0x460 JUMP JUMPDEST PUSH1 0x0 DUP2 SSTORE PUSH1 0x1 ADD PUSH2 0x5E5 JUMP JUMPDEST SWAP1 SWAP2 POP DUP2 SWAP1 PUSH2 0x5DC JUMP JUMPDEST PUSH4 0x4E487B71 PUSH1 0xE0 SHL PUSH1 0x0 MSTORE PUSH1 0x41 PUSH1 0x4 MSTORE PUSH1 0x24 PUSH1 0x0 REVERT JUMPDEST ADD MLOAD SWAP1 POP DUP9 DUP1 PUSH2 0x41B JUMP JUMPDEST PUSH1 0x1 DUP6 ADD PUSH1 0x0 SWAP1 DUP2 MSTORE PUSH1 0x20 DUP2 KECCAK256 SWAP4 POP PUSH1 0x1F NOT DUP6 AND SWAP1 JUMPDEST DUP2 DUP2 LT PUSH2 0x67E JUMPI POP SWAP1 DUP5 PUSH1 0x1 SWAP6 SWAP5 SWAP4 SWAP3 LT PUSH2 0x665 JUMPI JUMPDEST POP POP POP DUP2 SHL ADD PUSH1 0x1 DUP3 ADD SSTORE PUSH2 0x433 JUMP JUMPDEST ADD MLOAD PUSH1 0x0 NOT PUSH1 0xF8 DUP5 PUSH1 0x3 SHL AND SHR NOT AND SWAP1 SSTORE DUP9 DUP1 DUP1 PUSH2 0x655 JUMP JUMPDEST SWAP3 SWAP4 PUSH1 0x20 PUSH1 0x1 DUP2 SWAP3 DUP8 DUP7 ADD MLOAD DUP2 SSTORE ADD SWAP6 ADD SWAP4 ADD PUSH2 0x63F JUMP JUMPDEST SWAP1 SWAP2 POP PUSH1 0x1 DUP5 ADD PUSH1 0x0 MSTORE PUSH1 0x20 PUSH1 0x0 KECCAK256 PUSH1 0x1F DUP5 ADD PUSH1 0x5 SHR DUP2 ADD PUSH1 0x20 DUP6 LT PUSH2 0x6E2 JUMPI JUMPDEST SWAP1 DUP5 SWAP4 SWAP3 SWAP2 JUMPDEST PUSH1 0x1F DUP4 ADD PUSH1 0x5 SHR DUP3 ADD DUP2 LT PUSH2 0x6D3 JUMPI POP POP PUSH2 0x404 JUMP JUMPDEST PUSH1 0x0 DUP2 SSTORE DUP6 SWAP5 POP PUSH1 0x1 ADD PUSH2 0x6BD JUMP JUMPDEST POP DUP1 PUSH2 0x6B7 JUMP JUMPDEST ADD MLOAD SWAP1 POP DUP9 DUP1 PUSH2 0x3C0 JUMP JUMPDEST PUSH1 0x0 DUP6 DUP2 MSTORE PUSH1 0x20 DUP2 KECCAK256 SWAP4 POP PUSH1 0x1F NOT DUP6 AND SWAP1 JUMPDEST DUP2 DUP2 LT PUSH2 0x742 JUMPI POP SWAP1 DUP5 PUSH1 0x1 SWAP6 SWAP5 SWAP4 SWAP3 LT PUSH2 0x729 JUMPI JUMPDEST POP POP POP DUP2 SHL ADD DUP2 SSTORE PUSH2 0x3D5 JUMP JUMPDEST ADD MLOAD PUSH1 0x0 NOT PUSH1 0xF8 DUP5 PUSH1 0x3 SHL AND SHR NOT AND SWAP1 SSTORE DUP9 DUP1 DUP1 PUSH2 0x71C JUMP JUMPDEST SWAP3 SWAP4 PUSH1 0x20 PUSH1 0x1 DUP2 SWAP3 DUP8 DUP7 ADD MLOAD DUP2 SSTORE ADD SWAP6 ADD SWAP4 ADD PUSH2 0x706 JUMP JUMPDEST SWAP1 SWAP2 POP DUP4 PUSH1 0x0 MSTORE PUSH1 0x20 PUSH1 0x0 KECCAK256 PUSH1 0x1F DUP5 ADD PUSH1 0x5 SHR DUP2 ADD PUSH1 0x20 DUP6 LT PUSH2 0x7A3 JUMPI JUMPDEST SWAP1 DUP5 SWAP4 SWAP3 SWAP2 JUMPDEST PUSH1 0x1F DUP4 ADD PUSH1 0x5 SHR DUP3 ADD DUP2 LT PUSH2 0x794 JUMPI POP POP PUSH2 0x3A9 JUMP JUMPDEST PUSH1 0x0 DUP2 SSTORE DUP6 SWAP5 POP PUSH1 0x1 ADD PUSH2 0x77E JUMP JUMPDEST POP DUP1 PUSH2 0x778 JUMP JUMPDEST PUSH1 0x4 CALLDATALOAD SWAP1 PUSH1 0x1 PUSH1 0x1 PUSH1 0xA0 SHL SUB DUP3 AND DUP3 SUB PUSH2 0xF3 JUMPI JUMP JUMPDEST PUSH1 0x80 DUP2 ADD SWAP1 DUP2 LT PUSH8 0xFFFFFFFFFFFFFFFF DUP3 GT OR PUSH2 0x608 JUMPI PUSH1 0x40 MSTORE JUMP JUMPDEST SWAP1 PUSH1 0x1F DUP1 NOT SWAP2 ADD AND DUP2 ADD SWAP1 DUP2 LT PUSH8 0xFFFFFFFFFFFFFFFF DUP3 GT OR PUSH2 0x608 JUMPI PUSH1 0x40 MSTORE JUMP JUMPDEST DUP2 PUSH1 0x1F DUP3 ADD SLT ISZERO PUSH2 0xF3 JUMPI DUP1 CALLDATALOAD SWAP1 PUSH8 0xFFFFFFFFFFFFFFFF DUP3 GT PUSH2 0x608 JUMPI PUSH1 0x40 MLOAD SWAP3 PUSH2 0x833 PUSH1 0x1F DUP5 ADD PUSH1 0x1F NOT AND PUSH1 0x20 ADD DUP6 PUSH2 0x7DC JUMP JUMPDEST DUP3 DUP5 MSTORE PUSH1 0x20 DUP4 DUP4 ADD ADD GT PUSH2 0xF3 JUMPI DUP2 PUSH1 0x0 SWAP3 PUSH1 0x20 DUP1 SWAP4 ADD DUP4 DUP7 ADD CALLDATACOPY DUP4 ADD ADD MSTORE SWAP1 JUMP JUMPDEST SWAP1 PUSH1 0x40 PUSH1 0x3 NOT DUP4 ADD SLT PUSH2 0xF3 JUMPI PUSH1 0x4 CALLDATALOAD PUSH1 0x1 PUSH1 0x1 PUSH1 0xA0 SHL SUB DUP2 AND DUP2 SUB PUSH2 0xF3 JUMPI SWAP2 PUSH1 0x24 CALLDATALOAD SWAP1 PUSH8 0xFFFFFFFFFFFFFFFF DUP3 GT PUSH2 0xF3 JUMPI PUSH2 0x895 SWAP2 PUSH1 0x4 ADD PUSH2 0x7FE JUMP JUMPDEST SWAP1 JUMP JUMPDEST SWAP2 SWAP1 DUP3 MLOAD SWAP3 DUP4 DUP3 MSTORE PUSH1 0x0 JUMPDEST DUP5 DUP2 LT PUSH2 0x8C4 JUMPI POP POP DUP3 PUSH1 0x0 PUSH1 0x20 DUP1 SWAP5 SWAP6 DUP5 ADD ADD MSTORE PUSH1 0x1F DUP1 NOT SWAP2 ADD AND ADD ADD SWAP1 JUMP JUMPDEST PUSH1 0x20 DUP2 DUP4 ADD DUP2 ADD MLOAD DUP5 DUP4 ADD DUP3 ADD MSTORE ADD PUSH2 0x8A3 JUMP JUMPDEST SWAP1 PUSH1 0x1 DUP3 DUP2 SHR SWAP3 AND DUP1 ISZERO PUSH2 0x908 JUMPI JUMPDEST PUSH1 0x20 DUP4 LT EQ PUSH2 0x8F2 JUMPI JUMP JUMPDEST PUSH4 0x4E487B71 PUSH1 0xE0 SHL PUSH1 0x0 MSTORE PUSH1 0x22 PUSH1 0x4 MSTORE PUSH1 0x24 PUSH1 0x0 REVERT JUMPDEST SWAP2 PUSH1 0x7F AND SWAP2 PUSH2 0x8E7 JUMP JUMPDEST SWAP1 PUSH1 0x40 MLOAD SWAP2 DUP3 PUSH1 0x0 DUP3 SLOAD SWAP3 PUSH2 0x926 DUP5 PUSH2 0x8D8 JUMP JUMPDEST SWAP1 DUP2 DUP5 MSTORE PUSH1 0x1 SWAP5 DUP6 DUP2 AND SWAP1 DUP2 PUSH1 0x0 EQ PUSH2 0x995 JUMPI POP PUSH1 0x1 EQ PUSH2 0x952 JUMPI JUMPDEST POP POP PUSH2 0x950 SWAP3 POP SUB DUP4 PUSH2 0x7DC JUMP JUMPDEST JUMP JUMPDEST SWAP1 SWAP4 SWAP2 POP PUSH1 0x0 MSTORE PUSH1 0x20 SWAP1 DUP2 PUSH1 0x0 KECCAK256 SWAP4 PUSH1 0x0 SWAP2 JUMPDEST DUP2 DUP4 LT PUSH2 0x97D JUMPI POP POP PUSH2 0x950 SWAP4 POP DUP3 ADD ADD CODESIZE DUP1 PUSH2 0x942 JUMP JUMPDEST DUP6 SLOAD DUP9 DUP5 ADD DUP6 ADD MSTORE SWAP5 DUP6 ADD SWAP5 DUP8 SWAP5 POP SWAP2 DUP4 ADD SWAP2 PUSH2 0x965 JUMP JUMPDEST SWAP2 POP POP PUSH2 0x950 SWAP5 POP PUSH1 0x20 SWAP3 POP PUSH1 0xFF NOT AND DUP3 DUP5 ADD MSTORE ISZERO ISZERO PUSH1 0x5 SHL DUP3 ADD ADD CODESIZE DUP1 PUSH2 0x942 JUMP JUMPDEST ISZERO PUSH2 0x9BF JUMPI JUMP JUMPDEST PUSH1 0x40 MLOAD PUSH3 0x461BCD PUSH1 0xE5 SHL DUP2 MSTORE PUSH1 0x20 PUSH1 0x4 DUP3 ADD MSTORE PUSH1 0x15 PUSH1 0x24 DUP3 ADD MSTORE PUSH21 0x14D85B98DD1D5B481B9BDD081858DD1A5D985D1959 PUSH1 0x5A SHL PUSH1 0x44 DUP3 ADD MSTORE PUSH1 0x64 SWAP1 REVERT JUMPDEST ISZERO PUSH2 0xA03 JUMPI JUMP JUMPDEST PUSH1 0x40 MLOAD PUSH3 0x461BCD PUSH1 0xE5 SHL DUP2 MSTORE PUSH1 0x20 PUSH1 0x4 DUP3 ADD MSTORE PUSH1 0xD PUSH1 0x24 DUP3 ADD MSTORE PUSH13 0x9CDEC8CA40DAD2E6DAC2E8C6D PUSH1 0x9B SHL PUSH1 0x44 DUP3 ADD MSTORE PUSH1 0x64 SWAP1 REVERT INVALID LOG2 PUSH5 0x6970667358 0x22 SLT KECCAK256 0x22 0xDB 0xEF CHAINID 0xDA MUL 0x4B 0xB7 LT PUSH0 0xEE DUP3 0xE4 CHAINID 0xBC DIV XOR SLT 0x28 0xC0 0xE7 ADDRESS PUSH11 0xDE9EC33674104137B06473 PUSH16 0x6C634300081400330000000000000000 "},"methodIdentifiers":{"getOrbitalSanctum(address)":"8f0d367d","inscribeLineage(address,string)":"86157d58","routeInflow(address,string)":"4eb66eeb","sanctums(address)":"b4814621","setOrbitalSanctum(address,string,string,string)":"3d351a27"}}}}}