{"contracts/StarlineGenesis.sol":{"StarlineGenesis":{"abi":[{"anonymous":false,"inputs":[{"indexed":true,"internalType":"address","name":"inscriber","type":"address"},{"indexed":false,"internalType":"string","name":"message","type":"string"}],"name":"GenesisInscribed","type":"event"},{"inputs":[],"name":"genesisMessage","outputs":[{"internalType":"string","name":"","type":"string"}],"stateMutability":"view","type":"function"},{"inputs":[{"internalType":"string","name":"message","type":"string"}],"name":"inscribe","outputs":[],"stateMutability":"nonpayable","type":"function"},{"inputs":[],"name":"inscriber","outputs":[{"internalType":"address","name":"","type":"address"}],"stateMutability":"view","type":"function"}],"evm":{"bytecode":{"linkReferences":{},"object":"6080806040523461001657610454908161001c8239f35b600080fdfe608080604052600436101561001357600080fd5b600090813560e01c9081632a9329461461033a57508063911a6512146101235763bba80ad31461004257600080fd5b34610120578060031936011261012057604051908080546100628161039b565b808552916001918083169081156100f6575060011461009c575b6100988561008c81870382610363565b604051918291826103d5565b0390f35b80809450527f290decd9548b62a8d60345a988386fc84ba6bc95484008f6362f93160ef3e5635b8284106100de57505050810160200161008c8261009861007c565b805460208587018101919091529093019281016100c3565b8695506100989693506020925061008c94915060ff191682840152151560051b820101929361007c565b80fd5b50346101205760209081600319360112610120576004359167ffffffffffffffff80841161033657366023850112156103365783600401359181831161031e5760405192601f199561017c8388601f8501160186610363565b81855236602483830101116103325781869260248593018388013785010152825191821161031e576101ae845461039b565b601f81116102bd575b508094601f8311600114610240575050829381929391610235575b508160011b916000199060031b1c19161782555b336bffffffffffffffffffffffff60a01b60015416176001557f8659279b400e8082b710dc5d5ec2a810a0917ccb13f475830c7d48718389a8926040518061022f3394826103d5565b0390a280f35b9050820151386101d2565b8216948480527f290decd9548b62a8d60345a988386fc84ba6bc95484008f6362f93160ef3e5639185905b8782106102a55750508260019495961061028c575b5050811b0182556101e6565b84015160001960f88460031b161c191690553880610280565b8060018495829495890151815501940192019061026b565b8480527f290decd9548b62a8d60345a988386fc84ba6bc95484008f6362f93160ef3e563601f840160051c810191838510610314575b601f0160051c01905b81811061030957506101b7565b8581556001016102fc565b90915081906102f3565b634e487b7160e01b84526041600452602484fd5b8580fd5b8280fd5b90503461035f578160031936011261035f576001546001600160a01b03168152602090f35b5080fd5b90601f8019910116810190811067ffffffffffffffff82111761038557604052565b634e487b7160e01b600052604160045260246000fd5b90600182811c921680156103cb575b60208310146103b557565b634e487b7160e01b600052602260045260246000fd5b91607f16916103aa565b6020808252825181830181905290939260005b82811061040a57505060409293506000838284010152601f8019910116010190565b8181018601518482016040015285016103e856fea2646970667358221220a769cb2a84b1b10bfd9cf4475a10e678cd8a749f15d9d1ee5ab728d9f8d860c164736f6c63430008140033","opcodes":"PUSH1 0x80 DUP1 PUSH1 0x40 MSTORE CALLVALUE PUSH2 0x16 JUMPI PUSH2 0x454 SWAP1 DUP2 PUSH2 0x1C DUP3 CODECOPY RETURN JUMPDEST PUSH1 0x0 DUP1 REVERT INVALID PUSH1 0x80 DUP1 PUSH1 0x40 MSTORE PUSH1 0x4 CALLDATASIZE LT ISZERO PUSH2 0x13 JUMPI PUSH1 0x0 DUP1 REVERT JUMPDEST PUSH1 0x0 SWAP1 DUP2 CALLDATALOAD PUSH1 0xE0 SHR SWAP1 DUP2 PUSH4 0x2A932946 EQ PUSH2 0x33A JUMPI POP DUP1 PUSH4 0x911A6512 EQ PUSH2 0x123 JUMPI PUSH4 0xBBA80AD3 EQ PUSH2 0x42 JUMPI PUSH1 0x0 DUP1 REVERT JUMPDEST CALLVALUE PUSH2 0x120 JUMPI DUP1 PUSH1 0x3 NOT CALLDATASIZE ADD SLT PUSH2 0x120 JUMPI PUSH1 0x40 MLOAD SWAP1 DUP1 DUP1 SLOAD PUSH2 0x62 DUP2 PUSH2 0x39B JUMP JUMPDEST DUP1 DUP6 MSTORE SWAP2 PUSH1 0x1 SWAP2 DUP1 DUP4 AND SWAP1 DUP2 ISZERO PUSH2 0xF6 JUMPI POP PUSH1 0x1 EQ PUSH2 0x9C JUMPI JUMPDEST PUSH2 0x98 DUP6 PUSH2 0x8C DUP2 DUP8 SUB DUP3 PUSH2 0x363 JUMP JUMPDEST PUSH1 0x40 MLOAD SWAP2 DUP3 SWAP2 DUP3 PUSH2 0x3D5 JUMP JUMPDEST SUB SWAP1 RETURN JUMPDEST DUP1 DUP1 SWAP5 POP MSTORE PUSH32 0x290DECD9548B62A8D60345A988386FC84BA6BC95484008F6362F93160EF3E563 JUMPDEST DUP3 DUP5 LT PUSH2 0xDE JUMPI POP POP POP DUP2 ADD PUSH1 0x20 ADD PUSH2 0x8C DUP3 PUSH2 0x98 PUSH2 0x7C JUMP JUMPDEST DUP1 SLOAD PUSH1 0x20 DUP6 DUP8 ADD DUP2 ADD SWAP2 SWAP1 SWAP2 MSTORE SWAP1 SWAP4 ADD SWAP3 DUP2 ADD PUSH2 0xC3 JUMP JUMPDEST DUP7 SWAP6 POP PUSH2 0x98 SWAP7 SWAP4 POP PUSH1 0x20 SWAP3 POP PUSH2 0x8C SWAP5 SWAP2 POP PUSH1 0xFF NOT AND DUP3 DUP5 ADD MSTORE ISZERO ISZERO PUSH1 0x5 SHL DUP3 ADD ADD SWAP3 SWAP4 PUSH2 0x7C JUMP JUMPDEST DUP1 REVERT JUMPDEST POP CALLVALUE PUSH2 0x120 JUMPI PUSH1 0x20 SWAP1 DUP2 PUSH1 0x3 NOT CALLDATASIZE ADD SLT PUSH2 0x120 JUMPI PUSH1 0x4 CALLDATALOAD SWAP2 PUSH8 0xFFFFFFFFFFFFFFFF DUP1 DUP5 GT PUSH2 0x336 JUMPI CALLDATASIZE PUSH1 0x23 DUP6 ADD SLT ISZERO PUSH2 0x336 JUMPI DUP4 PUSH1 0x4 ADD CALLDATALOAD SWAP2 DUP2 DUP4 GT PUSH2 0x31E JUMPI PUSH1 0x40 MLOAD SWAP3 PUSH1 0x1F NOT SWAP6 PUSH2 0x17C DUP4 DUP9 PUSH1 0x1F DUP6 ADD AND ADD DUP7 PUSH2 0x363 JUMP JUMPDEST DUP2 DUP6 MSTORE CALLDATASIZE PUSH1 0x24 DUP4 DUP4 ADD ADD GT PUSH2 0x332 JUMPI DUP2 DUP7 SWAP3 PUSH1 0x24 DUP6 SWAP4 ADD DUP4 DUP9 ADD CALLDATACOPY DUP6 ADD ADD MSTORE DUP3 MLOAD SWAP2 DUP3 GT PUSH2 0x31E JUMPI PUSH2 0x1AE DUP5 SLOAD PUSH2 0x39B JUMP JUMPDEST PUSH1 0x1F DUP2 GT PUSH2 0x2BD JUMPI JUMPDEST POP DUP1 SWAP5 PUSH1 0x1F DUP4 GT PUSH1 0x1 EQ PUSH2 0x240 JUMPI POP POP DUP3 SWAP4 DUP2 SWAP3 SWAP4 SWAP2 PUSH2 0x235 JUMPI JUMPDEST POP DUP2 PUSH1 0x1 SHL SWAP2 PUSH1 0x0 NOT SWAP1 PUSH1 0x3 SHL SHR NOT AND OR DUP3 SSTORE JUMPDEST CALLER PUSH12 0xFFFFFFFFFFFFFFFFFFFFFFFF PUSH1 0xA0 SHL PUSH1 0x1 SLOAD AND OR PUSH1 0x1 SSTORE PUSH32 0x8659279B400E8082B710DC5D5EC2A810A0917CCB13F475830C7D48718389A892 PUSH1 0x40 MLOAD DUP1 PUSH2 0x22F CALLER SWAP5 DUP3 PUSH2 0x3D5 JUMP JUMPDEST SUB SWAP1 LOG2 DUP1 RETURN JUMPDEST SWAP1 POP DUP3 ADD MLOAD CODESIZE PUSH2 0x1D2 JUMP JUMPDEST DUP3 AND SWAP5 DUP5 DUP1 MSTORE PUSH32 0x290DECD9548B62A8D60345A988386FC84BA6BC95484008F6362F93160EF3E563 SWAP2 DUP6 SWAP1 JUMPDEST DUP8 DUP3 LT PUSH2 0x2A5 JUMPI POP POP DUP3 PUSH1 0x1 SWAP5 SWAP6 SWAP7 LT PUSH2 0x28C JUMPI JUMPDEST POP POP DUP2 SHL ADD DUP3 SSTORE PUSH2 0x1E6 JUMP JUMPDEST DUP5 ADD MLOAD PUSH1 0x0 NOT PUSH1 0xF8 DUP5 PUSH1 0x3 SHL AND SHR NOT AND SWAP1 SSTORE CODESIZE DUP1 PUSH2 0x280 JUMP JUMPDEST DUP1 PUSH1 0x1 DUP5 SWAP6 DUP3 SWAP5 SWAP6 DUP10 ADD MLOAD DUP2 SSTORE ADD SWAP5 ADD SWAP3 ADD SWAP1 PUSH2 0x26B JUMP JUMPDEST DUP5 DUP1 MSTORE PUSH32 0x290DECD9548B62A8D60345A988386FC84BA6BC95484008F6362F93160EF3E563 PUSH1 0x1F DUP5 ADD PUSH1 0x5 SHR DUP2 ADD SWAP2 DUP4 DUP6 LT PUSH2 0x314 JUMPI JUMPDEST PUSH1 0x1F ADD PUSH1 0x5 SHR ADD SWAP1 JUMPDEST DUP2 DUP2 LT PUSH2 0x309 JUMPI POP PUSH2 0x1B7 JUMP JUMPDEST DUP6 DUP2 SSTORE PUSH1 0x1 ADD PUSH2 0x2FC JUMP JUMPDEST SWAP1 SWAP2 POP DUP2 SWAP1 PUSH2 0x2F3 JUMP JUMPDEST PUSH4 0x4E487B71 PUSH1 0xE0 SHL DUP5 MSTORE PUSH1 0x41 PUSH1 0x4 MSTORE PUSH1 0x24 DUP5 REVERT JUMPDEST DUP6 DUP1 REVERT JUMPDEST DUP3 DUP1 REVERT JUMPDEST SWAP1 POP CALLVALUE PUSH2 0x35F JUMPI DUP2 PUSH1 0x3 NOT CALLDATASIZE ADD SLT PUSH2 0x35F JUMPI PUSH1 0x1 SLOAD PUSH1 0x1 PUSH1 0x1 PUSH1 0xA0 SHL SUB AND DUP2 MSTORE PUSH1 0x20 SWAP1 RETURN JUMPDEST POP DUP1 REVERT JUMPDEST SWAP1 PUSH1 0x1F DUP1 NOT SWAP2 ADD AND DUP2 ADD SWAP1 DUP2 LT PUSH8 0xFFFFFFFFFFFFFFFF DUP3 GT OR PUSH2 0x385 JUMPI PUSH1 0x40 MSTORE JUMP JUMPDEST PUSH4 0x4E487B71 PUSH1 0xE0 SHL PUSH1 0x0 MSTORE PUSH1 0x41 PUSH1 0x4 MSTORE PUSH1 0x24 PUSH1 0x0 REVERT JUMPDEST SWAP1 PUSH1 0x1 DUP3 DUP2 SHR SWAP3 AND DUP1 ISZERO PUSH2 0x3CB JUMPI JUMPDEST PUSH1 0x20 DUP4 LT EQ PUSH2 0x3B5 JUMPI JUMP JUMPDEST PUSH4 0x4E487B71 PUSH1 0xE0 SHL PUSH1 0x0 MSTORE PUSH1 0x22 PUSH1 0x4 MSTORE PUSH1 0x24 PUSH1 0x0 REVERT JUMPDEST SWAP2 PUSH1 0x7F AND SWAP2 PUSH2 0x3AA JUMP JUMPDEST PUSH1 0x20 DUP1 DUP3 MSTORE DUP3 MLOAD DUP2 DUP4 ADD DUP2 SWAP1 MSTORE SWAP1 SWAP4 SWAP3 PUSH1 0x0 JUMPDEST DUP3 DUP2 LT PUSH2 0x40A JUMPI POP POP PUSH1 0x40 SWAP3 SWAP4 POP PUSH1 0x0 DUP4 DUP3 DUP5 ADD ADD MSTORE PUSH1 0x1F DUP1 NOT SWAP2 ADD AND ADD ADD SWAP1 JUMP JUMPDEST DUP2 DUP2 ADD DUP7 ADD MLOAD DUP5 DUP3 ADD PUSH1 0x40 ADD MSTORE DUP6 ADD PUSH2 0x3E8 JUMP INVALID LOG2 PUSH5 0x6970667358 0x22 SLT KECCAK256 0xA7 PUSH10 0xCB2A84B1B10BFD9CF447 GAS LT 0xE6 PUSH25 0xCD8A749F15D9D1EE5AB728D9F8D860C164736F6C6343000814 STOP CALLER "},"methodIdentifiers":{"genesisMessage()":"bba80ad3","inscribe(string)":"911a6512","inscriber()":"2a932946"}}}}}