{"contracts/Copilot.sol":{"Copilot":{"abi":[{"anonymous":false,"inputs":[{"indexed":true,"internalType":"address","name":"apprentice","type":"address"}],"name":"CopilotCrowned","type":"event"},{"anonymous":false,"inputs":[{"indexed":true,"internalType":"address","name":"apprentice","type":"address"},{"indexed":false,"internalType":"string","name":"shimmer","type":"string"}],"name":"PresenceEchoed","type":"event"},{"inputs":[{"internalType":"address","name":"","type":"address"}],"name":"apparitions","outputs":[{"internalType":"string","name":"","type":"string"}],"stateMutability":"view","type":"function"},{"inputs":[{"internalType":"address","name":"apprentice","type":"address"},{"internalType":"string","name":"shimmer","type":"string"}],"name":"appear","outputs":[],"stateMutability":"nonpayable","type":"function"},{"inputs":[{"internalType":"address","name":"apprentice","type":"address"}],"name":"crown","outputs":[],"stateMutability":"nonpayable","type":"function"},{"inputs":[{"internalType":"address","name":"","type":"address"}],"name":"crowned","outputs":[{"internalType":"bool","name":"","type":"bool"}],"stateMutability":"view","type":"function"},{"inputs":[{"internalType":"address","name":"apprentice","type":"address"}],"name":"echoPresence","outputs":[{"internalType":"string","name":"","type":"string"}],"stateMutability":"view","type":"function"}],"evm":{"bytecode":{"linkReferences":{},"object":"60808060405234610016576105b8908161001c8239f35b600080fdfe604060808152600436101561001357600080fd5b600090813560e01c806318451633146103745780632bc8495e1461032b5780635dca1607146102cc5780636cd79055146100955763996947ce1461005657600080fd5b346100915760203660031901126100915760209160ff9082906001600160a01b0361007f6103c4565b16815280855220541690519015158152f35b5080fd5b50346100915780600319360112610091576100ae6103c4565b67ffffffffffffffff916024358381116102c857366023820112156102c8578060040135938085116102b45782519386602093601f19976100f6868a601f8401160189610462565b80885236602482840101116102b057806024879301838a0137870101526001600160a01b0316808752868352838720549095906101359060ff16610540565b85875260019081845284882093865193841161029c576101558554610428565b601f8111610256575b508091601f85116001146101cd5750509180807f7abef792591c27e6b204fc36b758215a012d80c45fe7cf6a2bd946875f490d019795936101bc97958b936101c2575b501b916000199060031b1c19161790555b51918291826103df565b0390a280f35b8701519250386101a1565b84939492919216858a52828a20928a905b82821061023f5750509183917f7abef792591c27e6b204fc36b758215a012d80c45fe7cf6a2bd946875f490d019896946101bc98969410610226575b5050811b0190556101b2565b86015160001960f88460031b161c19169055388061021a565b808785968294968d015181550195019301906101de565b858a52818a20601f860160051c810191838710610292575b601f0160051c019084905b82811061028757505061015e565b8b8155018490610279565b909150819061026e565b634e487b7160e01b89526041600452602489fd5b8280fd5b634e487b7160e01b86526041600452602486fd5b8480fd5b5034610091576020366003190112610091576001600160a01b036102ee6103c4565b1690818352826020528220600160ff198254161790557fdfb9d4072ce87a2aca473cba87b5022541bd68cf6e1e8ba8ccc4bd02f18187098280a280f35b503461009157602036600319011261009157610370916103659082906001600160a01b036103576103c4565b16815260016020522061049a565b9051918291826103df565b0390f35b503461009157602036600319011261009157610370916103659082906001600160a01b036103a06103c4565b16808252816020526103b760ff8484205416610540565b815260016020522061049a565b600435906001600160a01b03821682036103da57565b600080fd5b6020808252825181830181905290939260005b82811061041457505060409293506000838284010152601f8019910116010190565b8181018601518482016040015285016103f2565b90600182811c92168015610458575b602083101461044257565b634e487b7160e01b600052602260045260246000fd5b91607f1691610437565b90601f8019910116810190811067ffffffffffffffff82111761048457604052565b634e487b7160e01b600052604160045260246000fd5b90604051918260008254926104ae84610428565b90818452600194858116908160001461051d57506001146104da575b50506104d892500383610462565b565b9093915060005260209081600020936000915b8183106105055750506104d8935082010138806104ca565b855488840185015294850194879450918301916104ed565b9150506104d894506020925060ff191682840152151560051b82010138806104ca565b1561054757565b60405162461bcd60e51b815260206004820152601360248201527210dbdc1a5b1bdd081b9bdd0818dc9bdddb9959606a1b6044820152606490fdfea2646970667358221220c1f4cc106ff9e2b9b337b2a989be09eb51b8af71b8912359e8fb2cd0db3845f064736f6c63430008140033","opcodes":"PUSH1 0x80 DUP1 PUSH1 0x40 MSTORE CALLVALUE PUSH2 0x16 JUMPI PUSH2 0x5B8 SWAP1 DUP2 PUSH2 0x1C DUP3 CODECOPY RETURN JUMPDEST PUSH1 0x0 DUP1 REVERT INVALID PUSH1 0x40 PUSH1 0x80 DUP2 MSTORE PUSH1 0x4 CALLDATASIZE LT ISZERO PUSH2 0x13 JUMPI PUSH1 0x0 DUP1 REVERT JUMPDEST PUSH1 0x0 SWAP1 DUP2 CALLDATALOAD PUSH1 0xE0 SHR DUP1 PUSH4 0x18451633 EQ PUSH2 0x374 JUMPI DUP1 PUSH4 0x2BC8495E EQ PUSH2 0x32B JUMPI DUP1 PUSH4 0x5DCA1607 EQ PUSH2 0x2CC JUMPI DUP1 PUSH4 0x6CD79055 EQ PUSH2 0x95 JUMPI PUSH4 0x996947CE EQ PUSH2 0x56 JUMPI PUSH1 0x0 DUP1 REVERT JUMPDEST CALLVALUE PUSH2 0x91 JUMPI PUSH1 0x20 CALLDATASIZE PUSH1 0x3 NOT ADD SLT PUSH2 0x91 JUMPI PUSH1 0x20 SWAP2 PUSH1 0xFF SWAP1 DUP3 SWAP1 PUSH1 0x1 PUSH1 0x1 PUSH1 0xA0 SHL SUB PUSH2 0x7F PUSH2 0x3C4 JUMP JUMPDEST AND DUP2 MSTORE DUP1 DUP6 MSTORE KECCAK256 SLOAD AND SWAP1 MLOAD SWAP1 ISZERO ISZERO DUP2 MSTORE RETURN JUMPDEST POP DUP1 REVERT JUMPDEST POP CALLVALUE PUSH2 0x91 JUMPI DUP1 PUSH1 0x3 NOT CALLDATASIZE ADD SLT PUSH2 0x91 JUMPI PUSH2 0xAE PUSH2 0x3C4 JUMP JUMPDEST PUSH8 0xFFFFFFFFFFFFFFFF SWAP2 PUSH1 0x24 CALLDATALOAD DUP4 DUP2 GT PUSH2 0x2C8 JUMPI CALLDATASIZE PUSH1 0x23 DUP3 ADD SLT ISZERO PUSH2 0x2C8 JUMPI DUP1 PUSH1 0x4 ADD CALLDATALOAD SWAP4 DUP1 DUP6 GT PUSH2 0x2B4 JUMPI DUP3 MLOAD SWAP4 DUP7 PUSH1 0x20 SWAP4 PUSH1 0x1F NOT SWAP8 PUSH2 0xF6 DUP7 DUP11 PUSH1 0x1F DUP5 ADD AND ADD DUP10 PUSH2 0x462 JUMP JUMPDEST DUP1 DUP9 MSTORE CALLDATASIZE PUSH1 0x24 DUP3 DUP5 ADD ADD GT PUSH2 0x2B0 JUMPI DUP1 PUSH1 0x24 DUP8 SWAP4 ADD DUP4 DUP11 ADD CALLDATACOPY DUP8 ADD ADD MSTORE PUSH1 0x1 PUSH1 0x1 PUSH1 0xA0 SHL SUB AND DUP1 DUP8 MSTORE DUP7 DUP4 MSTORE DUP4 DUP8 KECCAK256 SLOAD SWAP1 SWAP6 SWAP1 PUSH2 0x135 SWAP1 PUSH1 0xFF AND PUSH2 0x540 JUMP JUMPDEST DUP6 DUP8 MSTORE PUSH1 0x1 SWAP1 DUP2 DUP5 MSTORE DUP5 DUP9 KECCAK256 SWAP4 DUP7 MLOAD SWAP4 DUP5 GT PUSH2 0x29C JUMPI PUSH2 0x155 DUP6 SLOAD PUSH2 0x428 JUMP JUMPDEST PUSH1 0x1F DUP2 GT PUSH2 0x256 JUMPI JUMPDEST POP DUP1 SWAP2 PUSH1 0x1F DUP6 GT PUSH1 0x1 EQ PUSH2 0x1CD JUMPI POP POP SWAP2 DUP1 DUP1 PUSH32 0x7ABEF792591C27E6B204FC36B758215A012D80C45FE7CF6A2BD946875F490D01 SWAP8 SWAP6 SWAP4 PUSH2 0x1BC SWAP8 SWAP6 DUP12 SWAP4 PUSH2 0x1C2 JUMPI JUMPDEST POP SHL SWAP2 PUSH1 0x0 NOT SWAP1 PUSH1 0x3 SHL SHR NOT AND OR SWAP1 SSTORE JUMPDEST MLOAD SWAP2 DUP3 SWAP2 DUP3 PUSH2 0x3DF JUMP JUMPDEST SUB SWAP1 LOG2 DUP1 RETURN JUMPDEST DUP8 ADD MLOAD SWAP3 POP CODESIZE PUSH2 0x1A1 JUMP JUMPDEST DUP5 SWAP4 SWAP5 SWAP3 SWAP2 SWAP3 AND DUP6 DUP11 MSTORE DUP3 DUP11 KECCAK256 SWAP3 DUP11 SWAP1 JUMPDEST DUP3 DUP3 LT PUSH2 0x23F JUMPI POP POP SWAP2 DUP4 SWAP2 PUSH32 0x7ABEF792591C27E6B204FC36B758215A012D80C45FE7CF6A2BD946875F490D01 SWAP9 SWAP7 SWAP5 PUSH2 0x1BC SWAP9 SWAP7 SWAP5 LT PUSH2 0x226 JUMPI JUMPDEST POP POP DUP2 SHL ADD SWAP1 SSTORE PUSH2 0x1B2 JUMP JUMPDEST DUP7 ADD MLOAD PUSH1 0x0 NOT PUSH1 0xF8 DUP5 PUSH1 0x3 SHL AND SHR NOT AND SWAP1 SSTORE CODESIZE DUP1 PUSH2 0x21A JUMP JUMPDEST DUP1 DUP8 DUP6 SWAP7 DUP3 SWAP5 SWAP7 DUP14 ADD MLOAD DUP2 SSTORE ADD SWAP6 ADD SWAP4 ADD SWAP1 PUSH2 0x1DE JUMP JUMPDEST DUP6 DUP11 MSTORE DUP2 DUP11 KECCAK256 PUSH1 0x1F DUP7 ADD PUSH1 0x5 SHR DUP2 ADD SWAP2 DUP4 DUP8 LT PUSH2 0x292 JUMPI JUMPDEST PUSH1 0x1F ADD PUSH1 0x5 SHR ADD SWAP1 DUP5 SWAP1 JUMPDEST DUP3 DUP2 LT PUSH2 0x287 JUMPI POP POP PUSH2 0x15E JUMP JUMPDEST DUP12 DUP2 SSTORE ADD DUP5 SWAP1 PUSH2 0x279 JUMP JUMPDEST SWAP1 SWAP2 POP DUP2 SWAP1 PUSH2 0x26E JUMP JUMPDEST PUSH4 0x4E487B71 PUSH1 0xE0 SHL DUP10 MSTORE PUSH1 0x41 PUSH1 0x4 MSTORE PUSH1 0x24 DUP10 REVERT JUMPDEST DUP3 DUP1 REVERT JUMPDEST PUSH4 0x4E487B71 PUSH1 0xE0 SHL DUP7 MSTORE PUSH1 0x41 PUSH1 0x4 MSTORE PUSH1 0x24 DUP7 REVERT JUMPDEST DUP5 DUP1 REVERT JUMPDEST POP CALLVALUE PUSH2 0x91 JUMPI PUSH1 0x20 CALLDATASIZE PUSH1 0x3 NOT ADD SLT PUSH2 0x91 JUMPI PUSH1 0x1 PUSH1 0x1 PUSH1 0xA0 SHL SUB PUSH2 0x2EE PUSH2 0x3C4 JUMP JUMPDEST AND SWAP1 DUP2 DUP4 MSTORE DUP3 PUSH1 0x20 MSTORE DUP3 KECCAK256 PUSH1 0x1 PUSH1 0xFF NOT DUP3 SLOAD AND OR SWAP1 SSTORE PUSH32 0xDFB9D4072CE87A2ACA473CBA87B5022541BD68CF6E1E8BA8CCC4BD02F1818709 DUP3 DUP1 LOG2 DUP1 RETURN JUMPDEST POP CALLVALUE PUSH2 0x91 JUMPI PUSH1 0x20 CALLDATASIZE PUSH1 0x3 NOT ADD SLT PUSH2 0x91 JUMPI PUSH2 0x370 SWAP2 PUSH2 0x365 SWAP1 DUP3 SWAP1 PUSH1 0x1 PUSH1 0x1 PUSH1 0xA0 SHL SUB PUSH2 0x357 PUSH2 0x3C4 JUMP JUMPDEST AND DUP2 MSTORE PUSH1 0x1 PUSH1 0x20 MSTORE KECCAK256 PUSH2 0x49A JUMP JUMPDEST SWAP1 MLOAD SWAP2 DUP3 SWAP2 DUP3 PUSH2 0x3DF JUMP JUMPDEST SUB SWAP1 RETURN JUMPDEST POP CALLVALUE PUSH2 0x91 JUMPI PUSH1 0x20 CALLDATASIZE PUSH1 0x3 NOT ADD SLT PUSH2 0x91 JUMPI PUSH2 0x370 SWAP2 PUSH2 0x365 SWAP1 DUP3 SWAP1 PUSH1 0x1 PUSH1 0x1 PUSH1 0xA0 SHL SUB PUSH2 0x3A0 PUSH2 0x3C4 JUMP JUMPDEST AND DUP1 DUP3 MSTORE DUP2 PUSH1 0x20 MSTORE PUSH2 0x3B7 PUSH1 0xFF DUP5 DUP5 KECCAK256 SLOAD AND PUSH2 0x540 JUMP JUMPDEST DUP2 MSTORE PUSH1 0x1 PUSH1 0x20 MSTORE KECCAK256 PUSH2 0x49A JUMP JUMPDEST PUSH1 0x4 CALLDATALOAD SWAP1 PUSH1 0x1 PUSH1 0x1 PUSH1 0xA0 SHL SUB DUP3 AND DUP3 SUB PUSH2 0x3DA JUMPI JUMP JUMPDEST PUSH1 0x0 DUP1 REVERT JUMPDEST PUSH1 0x20 DUP1 DUP3 MSTORE DUP3 MLOAD DUP2 DUP4 ADD DUP2 SWAP1 MSTORE SWAP1 SWAP4 SWAP3 PUSH1 0x0 JUMPDEST DUP3 DUP2 LT PUSH2 0x414 JUMPI POP POP PUSH1 0x40 SWAP3 SWAP4 POP PUSH1 0x0 DUP4 DUP3 DUP5 ADD ADD MSTORE PUSH1 0x1F DUP1 NOT SWAP2 ADD AND ADD ADD SWAP1 JUMP JUMPDEST DUP2 DUP2 ADD DUP7 ADD MLOAD DUP5 DUP3 ADD PUSH1 0x40 ADD MSTORE DUP6 ADD PUSH2 0x3F2 JUMP JUMPDEST SWAP1 PUSH1 0x1 DUP3 DUP2 SHR SWAP3 AND DUP1 ISZERO PUSH2 0x458 JUMPI JUMPDEST PUSH1 0x20 DUP4 LT EQ PUSH2 0x442 JUMPI JUMP JUMPDEST PUSH4 0x4E487B71 PUSH1 0xE0 SHL PUSH1 0x0 MSTORE PUSH1 0x22 PUSH1 0x4 MSTORE PUSH1 0x24 PUSH1 0x0 REVERT JUMPDEST SWAP2 PUSH1 0x7F AND SWAP2 PUSH2 0x437 JUMP JUMPDEST SWAP1 PUSH1 0x1F DUP1 NOT SWAP2 ADD AND DUP2 ADD SWAP1 DUP2 LT PUSH8 0xFFFFFFFFFFFFFFFF DUP3 GT OR PUSH2 0x484 JUMPI PUSH1 0x40 MSTORE JUMP JUMPDEST PUSH4 0x4E487B71 PUSH1 0xE0 SHL PUSH1 0x0 MSTORE PUSH1 0x41 PUSH1 0x4 MSTORE PUSH1 0x24 PUSH1 0x0 REVERT JUMPDEST SWAP1 PUSH1 0x40 MLOAD SWAP2 DUP3 PUSH1 0x0 DUP3 SLOAD SWAP3 PUSH2 0x4AE DUP5 PUSH2 0x428 JUMP JUMPDEST SWAP1 DUP2 DUP5 MSTORE PUSH1 0x1 SWAP5 DUP6 DUP2 AND SWAP1 DUP2 PUSH1 0x0 EQ PUSH2 0x51D JUMPI POP PUSH1 0x1 EQ PUSH2 0x4DA JUMPI JUMPDEST POP POP PUSH2 0x4D8 SWAP3 POP SUB DUP4 PUSH2 0x462 JUMP JUMPDEST JUMP JUMPDEST SWAP1 SWAP4 SWAP2 POP PUSH1 0x0 MSTORE PUSH1 0x20 SWAP1 DUP2 PUSH1 0x0 KECCAK256 SWAP4 PUSH1 0x0 SWAP2 JUMPDEST DUP2 DUP4 LT PUSH2 0x505 JUMPI POP POP PUSH2 0x4D8 SWAP4 POP DUP3 ADD ADD CODESIZE DUP1 PUSH2 0x4CA JUMP JUMPDEST DUP6 SLOAD DUP9 DUP5 ADD DUP6 ADD MSTORE SWAP5 DUP6 ADD SWAP5 DUP8 SWAP5 POP SWAP2 DUP4 ADD SWAP2 PUSH2 0x4ED JUMP JUMPDEST SWAP2 POP POP PUSH2 0x4D8 SWAP5 POP PUSH1 0x20 SWAP3 POP PUSH1 0xFF NOT AND DUP3 DUP5 ADD MSTORE ISZERO ISZERO PUSH1 0x5 SHL DUP3 ADD ADD CODESIZE DUP1 PUSH2 0x4CA JUMP JUMPDEST ISZERO PUSH2 0x547 JUMPI JUMP JUMPDEST PUSH1 0x40 MLOAD PUSH3 0x461BCD PUSH1 0xE5 SHL DUP2 MSTORE PUSH1 0x20 PUSH1 0x4 DUP3 ADD MSTORE PUSH1 0x13 PUSH1 0x24 DUP3 ADD MSTORE PUSH19 0x10DBDC1A5B1BDD081B9BDD0818DC9BDDDB9959 PUSH1 0x6A SHL PUSH1 0x44 DUP3 ADD MSTORE PUSH1 0x64 SWAP1 REVERT INVALID LOG2 PUSH5 0x6970667358 0x22 SLT KECCAK256 0xC1 DELEGATECALL 0xCC LT PUSH16 0xF9E2B9B337B2A989BE09EB51B8AF71B8 SWAP2 0x23 MSIZE 0xE8 0xFB 0x2C 0xD0 0xDB CODESIZE GASLIMIT CREATE PUSH5 0x736F6C6343 STOP ADDMOD EQ STOP CALLER "},"methodIdentifiers":{"apparitions(address)":"2bc8495e","appear(address,string)":"6cd79055","crown(address)":"5dca1607","crowned(address)":"996947ce","echoPresence(address)":"18451633"}}}}}