{"contracts/ApprenticeLineage.sol":{"ApprenticeLineage":{"abi":[{"inputs":[{"internalType":"uint256","name":"","type":"uint256"}],"name":"apprenticeList","outputs":[{"internalType":"address","name":"","type":"address"}],"stateMutability":"view","type":"function"},{"inputs":[{"internalType":"address","name":"","type":"address"}],"name":"apprentices","outputs":[{"internalType":"string","name":"glyphName","type":"string"},{"internalType":"string","name":"companionName","type":"string"},{"internalType":"string","name":"sanctumName","type":"string"},{"internalType":"string","name":"corridorName","type":"string"},{"internalType":"string","name":"lineageName","type":"string"},{"internalType":"bool","name":"bloomTriggered","type":"bool"}],"stateMutability":"view","type":"function"},{"inputs":[{"internalType":"address","name":"","type":"address"}],"name":"constellations","outputs":[{"internalType":"string","name":"","type":"string"}],"stateMutability":"view","type":"function"},{"inputs":[{"internalType":"address","name":"apprentice","type":"address"},{"internalType":"string","name":"glyphName","type":"string"},{"internalType":"string","name":"companionName","type":"string"},{"internalType":"string","name":"sanctumName","type":"string"},{"internalType":"string","name":"corridorName","type":"string"},{"internalType":"string","name":"lineageName","type":"string"}],"name":"externalRegister","outputs":[],"stateMutability":"nonpayable","type":"function"},{"inputs":[],"name":"getAllApprentices","outputs":[{"internalType":"address[]","name":"","type":"address[]"}],"stateMutability":"view","type":"function"},{"inputs":[{"internalType":"address","name":"apprenticeAddress","type":"address"}],"name":"getApprentice","outputs":[{"internalType":"string","name":"glyphName","type":"string"},{"internalType":"string","name":"companionName","type":"string"},{"internalType":"string","name":"sanctumName","type":"string"},{"internalType":"string","name":"corridorName","type":"string"},{"internalType":"string","name":"lineageName","type":"string"},{"internalType":"bool","name":"bloomTriggered","type":"bool"}],"stateMutability":"view","type":"function"},{"inputs":[{"internalType":"address","name":"apprentice","type":"address"}],"name":"getConstellation","outputs":[{"internalType":"string","name":"","type":"string"}],"stateMutability":"view","type":"function"},{"inputs":[{"internalType":"address","name":"apprentice","type":"address"}],"name":"getKickback","outputs":[{"internalType":"uint256","name":"","type":"uint256"}],"stateMutability":"view","type":"function"},{"inputs":[{"internalType":"address","name":"apprentice","type":"address"}],"name":"getSkyCity","outputs":[{"internalType":"string","name":"","type":"string"}],"stateMutability":"view","type":"function"},{"inputs":[{"internalType":"address","name":"","type":"address"}],"name":"kickbacks","outputs":[{"internalType":"uint256","name":"","type":"uint256"}],"stateMutability":"view","type":"function"},{"inputs":[{"internalType":"address","name":"apprentice","type":"address"},{"internalType":"uint256","name":"amount","type":"uint256"}],"name":"recordKickback","outputs":[],"stateMutability":"nonpayable","type":"function"},{"inputs":[{"internalType":"string","name":"glyphName","type":"string"},{"internalType":"string","name":"companionName","type":"string"},{"internalType":"string","name":"sanctumName","type":"string"},{"internalType":"string","name":"corridorName","type":"string"},{"internalType":"string","name":"lineageName","type":"string"}],"name":"registerApprentice","outputs":[],"stateMutability":"nonpayable","type":"function"},{"inputs":[{"internalType":"address","name":"apprentice","type":"address"},{"internalType":"string","name":"corridorName","type":"string"}],"name":"setConstellation","outputs":[],"stateMutability":"nonpayable","type":"function"},{"inputs":[{"internalType":"address","name":"apprentice","type":"address"},{"internalType":"string","name":"cityName","type":"string"}],"name":"setSkyCity","outputs":[],"stateMutability":"nonpayable","type":"function"},{"inputs":[{"internalType":"address","name":"","type":"address"}],"name":"skyCities","outputs":[{"internalType":"string","name":"","type":"string"}],"stateMutability":"view","type":"function"},{"inputs":[],"name":"triggerBloom","outputs":[],"stateMutability":"nonpayable","type":"function"}],"evm":{"bytecode":{"linkReferences":{},"object":"608080604052346100165761188c908161001c8239f35b600080fdfe604060808152600436101561001357600080fd5b60003560e01c80630c429d90146113b157806318e63122146113055780631e929cf314611340578063251c78e3146113055780633a9c38d114610c735780634262071b14610b2757806357d117da14610aa957806362494868146102bb57806362f8e6621461018c5780636785ff87146109ea578063682fc38d146102f457806381a5e17d146102bb578063c35fe9601461025c578063c4454727146101da578063d4d45f021461018c5763de2dd822146100cd57600080fd5b34610187576020366003190112610187576001600160a01b036100ee6114d7565b166000526000602052806000206101838251610109816114ed565b610112836115fb565b8152610120600184016115fb565b9260208201938452610134600282016115fb565b94808301958652610147600383016115fb565b6060840190815260ff600561015e600486016115fb565b948560808801520154161515938460a0820152519551965190519151968796876116e1565b0390f35b600080fd5b503461018757602036600319011261018757610183906001600160a01b036101b26114d7565b1660005260046020526101c7816000206115fb565b90519182916020835260208301906116a1565b5034610187576020366003190112610187576001600160a01b036101fc6114d7565b1660005260006020528060002090610183610216836115fb565b91610223600185016115fb565b93610230600282016115fb565b61023c600383016115fb565b9060ff600561024d600486016115fb565b940154169351968796876116e1565b503461018757602036600319011261018757600435906001548210156101875760016000527fb10e2d527612073b26eecdfd717e6a320cf44b4afac2b0732d9fcbe2b7fa0cf69091015490516001600160a01b03919091168152602090f35b5034610187576020366003190112610187576020906001600160a01b036102e06114d7565b166000526002825280600020549051908152f35b50346101875760c03660031901126101875761030e6114d7565b906024356001600160401b0381116101875761032e903690600401611529565b906044356001600160401b0381116101875761034e903690600401611529565b906064356001600160401b0381116101875761036e903690600401611529565b6084356001600160401b0381116101875761038d903690600401611529565b60a4356001600160401b038111610187576103ac903690600401611529565b9060018060a01b038716928360005260006020526103d66103d086600020546115c1565b15611749565b8451966103e2886114ed565b8752602087019586528487015260608601526080850152600060a08501526000526000602052806000209183518051906001600160401b0382116106ca57819061042c86546115c1565b601f811161099c575b50602090601f83116001146109365760009261092b575b50508160011b916000199060031b1c19161783555b518051906001600160401b0382116106ca57819061048260018601546115c1565b601f81116108d8575b50602090601f831160011461086b57600092610860575b50508160011b916000199060031b1c19161760018301555b8201519283516001600160401b0381116106ca576104db60028401546115c1565b601f8111610819575b50602094601f82116001146107ad579481929394956000926107a2575b50508160011b916000199060031b1c19161760028301555b60608301519283516001600160401b0381116106ca5761053c60038501546115c1565b601f8111610757575b50602094601f82116001146106eb579481929394956000926106e0575b50508160011b916000199060031b1c19161760038401555b6004830160808201518051906001600160401b0382116106ca5761059e83546115c1565b601f8111610682575b50602090601f831160011461060d579361060096938360059460a0946105fb98600092610602575b50508160011b916000199060031b1c19161790555b0151151591019060ff801983541691151516179055565b61178b565b005b0151905038806105cf565b90601f198316918460005260206000209260005b81811061066a57508460a0946105fb98946106009b989460059860019510610651575b505050811b0190556105e4565b015160001960f88460031b161c19169055388080610644565b92936020600181928786015181550195019301610621565b836000526020600020601f840160051c810191602085106106c0575b601f0160051c01905b8181106106b457506105a7565b600081556001016106a7565b909150819061069e565b634e487b7160e01b600052604160045260246000fd5b015190503880610562565b601f198216956003860160005260206000209160005b88811061073f57508360019596979810610726575b505050811b01600384015561057a565b015160001960f88460031b161c19169055388080610716565b91926020600181928685015181550194019201610701565b600385016000526020600020601f830160051c81019160208410610798575b601f0160051c01905b81811061078c5750610545565b6000815560010161077f565b9091508190610776565b015190503880610501565b601f198216956002850160005260206000209160005b888110610801575083600195969798106107e8575b505050811b016002830155610519565b015160001960f88460031b161c191690553880806107d8565b919260206001819286850151815501940192016107c3565b600284016000526020600020601f830160051c810160208410610859575b601f830160051c8201811061084d5750506104e4565b60008155600101610837565b5080610837565b0151905038806104a2565b600186016000908152602081209350601f198516905b8181106108c057509084600195949392106108a7575b505050811b0160018301556104ba565b015160001960f88460031b161c19169055388080610897565b92936020600181928786015181550195019301610881565b909150600185016000526020600020601f840160051c810160208510610924575b90849392915b601f830160051c8201811061091557505061048b565b600081558594506001016108ff565b50806108f9565b01519050388061044c565b6000878152602081209350601f198516905b818110610984575090846001959493921061096b575b505050811b018355610461565b015160001960f88460031b161c1916905538808061095e565b92936020600181928786015181550195019301610948565b909150856000526020600020601f840160051c8101602085106109e3575b90601f8594930160051c01905b8181106109d45750610435565b600081558493506001016109c7565b50806109ba565b5034610187576000366003190112610187578051908160019081549384825260208092018095846000527fb10e2d527612073b26eecdfd717e6a320cf44b4afac2b0732d9fcbe2b7fa0cf69060005b818110610a8d5750505081610a4f910382611508565b83519382850191838652518092528401949160005b828110610a715785870386f35b83516001600160a01b0316875295810195928101928401610a64565b82546001600160a01b0316845292850192918601918601610a39565b503461018757600036600319011261018757336000526000602052610ad181600020546115c1565b15610af257336000908152602081905220600501805460ff19166001179055005b5162461bcd60e51b815260206004820152600f60248201526e2737ba103932b3b4b9ba32b932b21760891b6044820152606490fd5b503461018757610b363661157f565b919060018060a01b0316908160005260209160008352610b5f60ff60058460002001541661180a565b60005260048252600020908251906001600160401b0382116106ca57610b8583546115c1565b601f8111610c2d575b5080601f8311600114610bca5750819293600092610bbf575b5050600019600383901b1c191660019190911b179055005b015190503880610ba7565b90601f198316948460005282600020926000905b878210610c15575050836001959610610bfc575b505050811b019055005b015160001960f88460031b161c19169055388080610bf2565b80600185968294968601518155019501930190610bde565b8360005281600020601f840160051c810191838510610c69575b601f0160051c01905b818110610c5d5750610b8e565b60008155600101610c50565b9091508190610c47565b50346101875760a0366003190112610187576004356001600160401b03811161018757610ca4903690600401611529565b6024356001600160401b03811161018757610cc3903690600401611529565b6044356001600160401b03811161018757610ce2903690600401611529565b6064356001600160401b03811161018757610d01903690600401611529565b6084356001600160401b03811161018757610d20903690600401611529565b91336000526000602052610d3a6103d087600020546115c1565b855194610d46866114ed565b8552602085019384528585015260608401526080830152600060a0830152336000526000602052826000209082518051906001600160401b0382116106ca578190610d9185546115c1565b601f81116112b2575b50602090601f831160011461124c57600092611241575b50508160011b916000199060031b1c19161782555b519283516001600160401b0381116106ca57610de560018401546115c1565b601f81116111fa575b50602094601f821160011461118e57948192939495600092611183575b50508160011b916000199060031b1c19161760018301555b8201519182516001600160401b0381116106ca57610e4460028401546115c1565b601f8111611138575b506020601f82116001146110cc57819293946000926110c1575b50508160011b916000199060031b1c19161760028301555b60608101519182516001600160401b0381116106ca57610ea260038301546115c1565b601f8111611076575b506020601f821160011461100a5781929394600092610fff575b50508160011b916000199060031b1c19161760038201555b600481019160808101519283516001600160401b0381116106ca57610f0282546115c1565b601f8111610fb7575b506020601f8211600114610f615791816005949260a094610f58986000926106025750508160011b916000199060031b1c19161790550151151591019060ff801983541691151516179055565b6106003361178b565b601f198216958360005260206000209660005b818110610f9f575092610f589760a0959360019383600599971061065157505050811b0190556105e4565b83830151895560019098019760209384019301610f74565b826000526020600020601f830160051c81019160208410610ff5575b601f0160051c01905b818110610fe95750610f0b565b60008155600101610fdc565b9091508190610fd3565b015190503880610ec5565b601f198216906003840160005260206000209160005b81811061105e57509583600195969710611045575b505050811b016003820155610edd565b015160001960f88460031b161c19169055388080611035565b9192602060018192868b015181550194019201611020565b600383016000526020600020601f830160051c810191602084106110b7575b601f0160051c01905b8181106110ab5750610eab565b6000815560010161109e565b9091508190611095565b015190503880610e67565b601f198216906002850160005260206000209160005b81811061112057509583600195969710611107575b505050811b016002830155610e7f565b015160001960f88460031b161c191690553880806110f7565b9192602060018192868b0151815501940192016110e2565b600284016000526020600020601f830160051c81019160208410611179575b601f0160051c01905b81811061116d5750610e4d565b60008155600101611160565b9091508190611157565b015190503880610e0b565b601f198216956001850160005260206000209160005b8881106111e2575083600195969798106111c9575b505050811b016001830155610e23565b015160001960f88460031b161c191690553880806111b9565b919260206001819286850151815501940192016111a4565b600184016000526020600020601f830160051c81016020841061123a575b601f830160051c8201811061122e575050610dee565b60008155600101611218565b5080611218565b015190503880610db1565b6000868152602081209350601f198516905b81811061129a5750908460019594939210611281575b505050811b018255610dc6565b015160001960f88460031b161c19169055388080611274565b9293602060018192878601518155019501930161125e565b909150846000526020600020601f840160051c810191602085106112fb575b90601f859493920160051c01905b8181106112ec5750610d9a565b600081558493506001016112df565b90915081906112d1565b503461018757602036600319011261018757610183906001600160a01b0361132b6114d7565b1660005260036020526101c7816000206115fb565b50346101875780600319360112610187576001600160a01b036113616114d7565b1680600052600060205261137e60ff60058460002001541661180a565b6000526002602052600020805490602435820180921161139b5755005b634e487b7160e01b600052601160045260246000fd5b5034610187576113c03661157f565b919060018060a01b03169081600052602091600083526113e960ff60058460002001541661180a565b60005260038252600020908251906001600160401b0382116106ca5761140f83546115c1565b601f8111611491575b5080601f83116001146114485750819293600092610bbf575050600019600383901b1c191660019190911b179055005b90601f198316948460005282600020926000905b878210611479575050836001959610610bfc57505050811b019055005b8060018596829496860151815501950193019061145c565b8360005281600020601f840160051c8101918385106114cd575b601f0160051c01905b8181106114c15750611418565b600081556001016114b4565b90915081906114ab565b600435906001600160a01b038216820361018757565b60c081019081106001600160401b038211176106ca57604052565b90601f801991011681019081106001600160401b038211176106ca57604052565b81601f82011215610187578035906001600160401b0382116106ca576040519261155d601f8401601f191660200185611508565b8284526020838301011161018757816000926020809301838601378301015290565b906040600319830112610187576004356001600160a01b03811681036101875791602435906001600160401b038211610187576115be91600401611529565b90565b90600182811c921680156115f1575b60208310146115db57565b634e487b7160e01b600052602260045260246000fd5b91607f16916115d0565b906040519182600082549261160f846115c1565b90818452600194858116908160001461167e575060011461163b575b505061163992500383611508565b565b9093915060005260209081600020936000915b8183106116665750506116399350820101388061162b565b8554888401850152948501948794509183019161164e565b91505061163994506020925060ff191682840152151560051b820101388061162b565b919082519283825260005b8481106116cd575050826000602080949584010152601f8019910116010190565b6020818301810151848301820152016116ac565b9491936117256117419461171760a097611709611733969c9b9c60c08c5260c08c01906116a1565b908a820360208c01526116a1565b9088820360408a01526116a1565b9086820360608801526116a1565b9084820360808601526116a1565b931515910152565b1561175057565b60405162461bcd60e51b815260206004820152601360248201527220b63932b0b23c903932b3b4b9ba32b932b21760691b6044820152606490fd5b600154680100000000000000008110156106ca5760018101806001558110156117f45760016000527fb10e2d527612073b26eecdfd717e6a320cf44b4afac2b0732d9fcbe2b7fa0cf60180546001600160a01b0319166001600160a01b03909216919091179055565b634e487b7160e01b600052603260045260246000fd5b1561181157565b60405162461bcd60e51b815260206004820152601760248201527f41707072656e74696365206e6f7420626c6f6f6d65642e0000000000000000006044820152606490fdfea2646970667358221220421bf92b688b65fd2077ab2215b387be304fe2ed7c1f829b166c1d15a8ff328364736f6c63430008140033","opcodes":"PUSH1 0x80 DUP1 PUSH1 0x40 MSTORE CALLVALUE PUSH2 0x16 JUMPI PUSH2 0x188C SWAP1 DUP2 PUSH2 0x1C DUP3 CODECOPY RETURN JUMPDEST PUSH1 0x0 DUP1 REVERT INVALID PUSH1 0x40 PUSH1 0x80 DUP2 MSTORE PUSH1 0x4 CALLDATASIZE LT ISZERO PUSH2 0x13 JUMPI PUSH1 0x0 DUP1 REVERT JUMPDEST PUSH1 0x0 CALLDATALOAD PUSH1 0xE0 SHR DUP1 PUSH4 0xC429D90 EQ PUSH2 0x13B1 JUMPI DUP1 PUSH4 0x18E63122 EQ PUSH2 0x1305 JUMPI DUP1 PUSH4 0x1E929CF3 EQ PUSH2 0x1340 JUMPI DUP1 PUSH4 0x251C78E3 EQ PUSH2 0x1305 JUMPI DUP1 PUSH4 0x3A9C38D1 EQ PUSH2 0xC73 JUMPI DUP1 PUSH4 0x4262071B EQ PUSH2 0xB27 JUMPI DUP1 PUSH4 0x57D117DA EQ PUSH2 0xAA9 JUMPI DUP1 PUSH4 0x62494868 EQ PUSH2 0x2BB JUMPI DUP1 PUSH4 0x62F8E662 EQ PUSH2 0x18C JUMPI DUP1 PUSH4 0x6785FF87 EQ PUSH2 0x9EA JUMPI DUP1 PUSH4 0x682FC38D EQ PUSH2 0x2F4 JUMPI DUP1 PUSH4 0x81A5E17D EQ PUSH2 0x2BB JUMPI DUP1 PUSH4 0xC35FE960 EQ PUSH2 0x25C JUMPI DUP1 PUSH4 0xC4454727 EQ PUSH2 0x1DA JUMPI DUP1 PUSH4 0xD4D45F02 EQ PUSH2 0x18C JUMPI PUSH4 0xDE2DD822 EQ PUSH2 0xCD JUMPI PUSH1 0x0 DUP1 REVERT JUMPDEST CALLVALUE PUSH2 0x187 JUMPI PUSH1 0x20 CALLDATASIZE PUSH1 0x3 NOT ADD SLT PUSH2 0x187 JUMPI PUSH1 0x1 PUSH1 0x1 PUSH1 0xA0 SHL SUB PUSH2 0xEE PUSH2 0x14D7 JUMP JUMPDEST AND PUSH1 0x0 MSTORE PUSH1 0x0 PUSH1 0x20 MSTORE DUP1 PUSH1 0x0 KECCAK256 PUSH2 0x183 DUP3 MLOAD PUSH2 0x109 DUP2 PUSH2 0x14ED JUMP JUMPDEST PUSH2 0x112 DUP4 PUSH2 0x15FB JUMP JUMPDEST DUP2 MSTORE PUSH2 0x120 PUSH1 0x1 DUP5 ADD PUSH2 0x15FB JUMP JUMPDEST SWAP3 PUSH1 0x20 DUP3 ADD SWAP4 DUP5 MSTORE PUSH2 0x134 PUSH1 0x2 DUP3 ADD PUSH2 0x15FB JUMP JUMPDEST SWAP5 DUP1 DUP4 ADD SWAP6 DUP7 MSTORE PUSH2 0x147 PUSH1 0x3 DUP4 ADD PUSH2 0x15FB JUMP JUMPDEST PUSH1 0x60 DUP5 ADD SWAP1 DUP2 MSTORE PUSH1 0xFF PUSH1 0x5 PUSH2 0x15E PUSH1 0x4 DUP7 ADD PUSH2 0x15FB JUMP JUMPDEST SWAP5 DUP6 PUSH1 0x80 DUP9 ADD MSTORE ADD SLOAD AND ISZERO ISZERO SWAP4 DUP5 PUSH1 0xA0 DUP3 ADD MSTORE MLOAD SWAP6 MLOAD SWAP7 MLOAD SWAP1 MLOAD SWAP2 MLOAD SWAP7 DUP8 SWAP7 DUP8 PUSH2 0x16E1 JUMP JUMPDEST SUB SWAP1 RETURN JUMPDEST PUSH1 0x0 DUP1 REVERT JUMPDEST POP CALLVALUE PUSH2 0x187 JUMPI PUSH1 0x20 CALLDATASIZE PUSH1 0x3 NOT ADD SLT PUSH2 0x187 JUMPI PUSH2 0x183 SWAP1 PUSH1 0x1 PUSH1 0x1 PUSH1 0xA0 SHL SUB PUSH2 0x1B2 PUSH2 0x14D7 JUMP JUMPDEST AND PUSH1 0x0 MSTORE PUSH1 0x4 PUSH1 0x20 MSTORE PUSH2 0x1C7 DUP2 PUSH1 0x0 KECCAK256 PUSH2 0x15FB JUMP JUMPDEST SWAP1 MLOAD SWAP2 DUP3 SWAP2 PUSH1 0x20 DUP4 MSTORE PUSH1 0x20 DUP4 ADD SWAP1 PUSH2 0x16A1 JUMP JUMPDEST POP CALLVALUE PUSH2 0x187 JUMPI PUSH1 0x20 CALLDATASIZE PUSH1 0x3 NOT ADD SLT PUSH2 0x187 JUMPI PUSH1 0x1 PUSH1 0x1 PUSH1 0xA0 SHL SUB PUSH2 0x1FC PUSH2 0x14D7 JUMP JUMPDEST AND PUSH1 0x0 MSTORE PUSH1 0x0 PUSH1 0x20 MSTORE DUP1 PUSH1 0x0 KECCAK256 SWAP1 PUSH2 0x183 PUSH2 0x216 DUP4 PUSH2 0x15FB JUMP JUMPDEST SWAP2 PUSH2 0x223 PUSH1 0x1 DUP6 ADD PUSH2 0x15FB JUMP JUMPDEST SWAP4 PUSH2 0x230 PUSH1 0x2 DUP3 ADD PUSH2 0x15FB JUMP JUMPDEST PUSH2 0x23C PUSH1 0x3 DUP4 ADD PUSH2 0x15FB JUMP JUMPDEST SWAP1 PUSH1 0xFF PUSH1 0x5 PUSH2 0x24D PUSH1 0x4 DUP7 ADD PUSH2 0x15FB JUMP JUMPDEST SWAP5 ADD SLOAD AND SWAP4 MLOAD SWAP7 DUP8 SWAP7 DUP8 PUSH2 0x16E1 JUMP JUMPDEST POP CALLVALUE PUSH2 0x187 JUMPI PUSH1 0x20 CALLDATASIZE PUSH1 0x3 NOT ADD SLT PUSH2 0x187 JUMPI PUSH1 0x4 CALLDATALOAD SWAP1 PUSH1 0x1 SLOAD DUP3 LT ISZERO PUSH2 0x187 JUMPI PUSH1 0x1 PUSH1 0x0 MSTORE PUSH32 0xB10E2D527612073B26EECDFD717E6A320CF44B4AFAC2B0732D9FCBE2B7FA0CF6 SWAP1 SWAP2 ADD SLOAD SWAP1 MLOAD PUSH1 0x1 PUSH1 0x1 PUSH1 0xA0 SHL SUB SWAP2 SWAP1 SWAP2 AND DUP2 MSTORE PUSH1 0x20 SWAP1 RETURN JUMPDEST POP CALLVALUE PUSH2 0x187 JUMPI PUSH1 0x20 CALLDATASIZE PUSH1 0x3 NOT ADD SLT PUSH2 0x187 JUMPI PUSH1 0x20 SWAP1 PUSH1 0x1 PUSH1 0x1 PUSH1 0xA0 SHL SUB PUSH2 0x2E0 PUSH2 0x14D7 JUMP JUMPDEST AND PUSH1 0x0 MSTORE PUSH1 0x2 DUP3 MSTORE DUP1 PUSH1 0x0 KECCAK256 SLOAD SWAP1 MLOAD SWAP1 DUP2 MSTORE RETURN JUMPDEST POP CALLVALUE PUSH2 0x187 JUMPI PUSH1 0xC0 CALLDATASIZE PUSH1 0x3 NOT ADD SLT PUSH2 0x187 JUMPI PUSH2 0x30E PUSH2 0x14D7 JUMP JUMPDEST SWAP1 PUSH1 0x24 CALLDATALOAD PUSH1 0x1 PUSH1 0x1 PUSH1 0x40 SHL SUB DUP2 GT PUSH2 0x187 JUMPI PUSH2 0x32E SWAP1 CALLDATASIZE SWAP1 PUSH1 0x4 ADD PUSH2 0x1529 JUMP JUMPDEST SWAP1 PUSH1 0x44 CALLDATALOAD PUSH1 0x1 PUSH1 0x1 PUSH1 0x40 SHL SUB DUP2 GT PUSH2 0x187 JUMPI PUSH2 0x34E SWAP1 CALLDATASIZE SWAP1 PUSH1 0x4 ADD PUSH2 0x1529 JUMP JUMPDEST SWAP1 PUSH1 0x64 CALLDATALOAD PUSH1 0x1 PUSH1 0x1 PUSH1 0x40 SHL SUB DUP2 GT PUSH2 0x187 JUMPI PUSH2 0x36E SWAP1 CALLDATASIZE SWAP1 PUSH1 0x4 ADD PUSH2 0x1529 JUMP JUMPDEST PUSH1 0x84 CALLDATALOAD PUSH1 0x1 PUSH1 0x1 PUSH1 0x40 SHL SUB DUP2 GT PUSH2 0x187 JUMPI PUSH2 0x38D SWAP1 CALLDATASIZE SWAP1 PUSH1 0x4 ADD PUSH2 0x1529 JUMP JUMPDEST PUSH1 0xA4 CALLDATALOAD PUSH1 0x1 PUSH1 0x1 PUSH1 0x40 SHL SUB DUP2 GT PUSH2 0x187 JUMPI PUSH2 0x3AC SWAP1 CALLDATASIZE SWAP1 PUSH1 0x4 ADD PUSH2 0x1529 JUMP JUMPDEST SWAP1 PUSH1 0x1 DUP1 PUSH1 0xA0 SHL SUB DUP8 AND SWAP3 DUP4 PUSH1 0x0 MSTORE PUSH1 0x0 PUSH1 0x20 MSTORE PUSH2 0x3D6 PUSH2 0x3D0 DUP7 PUSH1 0x0 KECCAK256 SLOAD PUSH2 0x15C1 JUMP JUMPDEST ISZERO PUSH2 0x1749 JUMP JUMPDEST DUP5 MLOAD SWAP7 PUSH2 0x3E2 DUP9 PUSH2 0x14ED JUMP JUMPDEST DUP8 MSTORE PUSH1 0x20 DUP8 ADD SWAP6 DUP7 MSTORE DUP5 DUP8 ADD MSTORE PUSH1 0x60 DUP7 ADD MSTORE PUSH1 0x80 DUP6 ADD MSTORE PUSH1 0x0 PUSH1 0xA0 DUP6 ADD MSTORE PUSH1 0x0 MSTORE PUSH1 0x0 PUSH1 0x20 MSTORE DUP1 PUSH1 0x0 KECCAK256 SWAP2 DUP4 MLOAD DUP1 MLOAD SWAP1 PUSH1 0x1 PUSH1 0x1 PUSH1 0x40 SHL SUB DUP3 GT PUSH2 0x6CA JUMPI DUP2 SWAP1 PUSH2 0x42C DUP7 SLOAD PUSH2 0x15C1 JUMP JUMPDEST PUSH1 0x1F DUP2 GT PUSH2 0x99C JUMPI JUMPDEST POP PUSH1 0x20 SWAP1 PUSH1 0x1F DUP4 GT PUSH1 0x1 EQ PUSH2 0x936 JUMPI PUSH1 0x0 SWAP3 PUSH2 0x92B JUMPI JUMPDEST POP POP DUP2 PUSH1 0x1 SHL SWAP2 PUSH1 0x0 NOT SWAP1 PUSH1 0x3 SHL SHR NOT AND OR DUP4 SSTORE JUMPDEST MLOAD DUP1 MLOAD SWAP1 PUSH1 0x1 PUSH1 0x1 PUSH1 0x40 SHL SUB DUP3 GT PUSH2 0x6CA JUMPI DUP2 SWAP1 PUSH2 0x482 PUSH1 0x1 DUP7 ADD SLOAD PUSH2 0x15C1 JUMP JUMPDEST PUSH1 0x1F DUP2 GT PUSH2 0x8D8 JUMPI JUMPDEST POP PUSH1 0x20 SWAP1 PUSH1 0x1F DUP4 GT PUSH1 0x1 EQ PUSH2 0x86B JUMPI PUSH1 0x0 SWAP3 PUSH2 0x860 JUMPI JUMPDEST POP POP DUP2 PUSH1 0x1 SHL SWAP2 PUSH1 0x0 NOT SWAP1 PUSH1 0x3 SHL SHR NOT AND OR PUSH1 0x1 DUP4 ADD SSTORE JUMPDEST DUP3 ADD MLOAD SWAP3 DUP4 MLOAD PUSH1 0x1 PUSH1 0x1 PUSH1 0x40 SHL SUB DUP2 GT PUSH2 0x6CA JUMPI PUSH2 0x4DB PUSH1 0x2 DUP5 ADD SLOAD PUSH2 0x15C1 JUMP JUMPDEST PUSH1 0x1F DUP2 GT PUSH2 0x819 JUMPI JUMPDEST POP PUSH1 0x20 SWAP5 PUSH1 0x1F DUP3 GT PUSH1 0x1 EQ PUSH2 0x7AD JUMPI SWAP5 DUP2 SWAP3 SWAP4 SWAP5 SWAP6 PUSH1 0x0 SWAP3 PUSH2 0x7A2 JUMPI JUMPDEST POP POP DUP2 PUSH1 0x1 SHL SWAP2 PUSH1 0x0 NOT SWAP1 PUSH1 0x3 SHL SHR NOT AND OR PUSH1 0x2 DUP4 ADD SSTORE JUMPDEST PUSH1 0x60 DUP4 ADD MLOAD SWAP3 DUP4 MLOAD PUSH1 0x1 PUSH1 0x1 PUSH1 0x40 SHL SUB DUP2 GT PUSH2 0x6CA JUMPI PUSH2 0x53C PUSH1 0x3 DUP6 ADD SLOAD PUSH2 0x15C1 JUMP JUMPDEST PUSH1 0x1F DUP2 GT PUSH2 0x757 JUMPI JUMPDEST POP PUSH1 0x20 SWAP5 PUSH1 0x1F DUP3 GT PUSH1 0x1 EQ PUSH2 0x6EB JUMPI SWAP5 DUP2 SWAP3 SWAP4 SWAP5 SWAP6 PUSH1 0x0 SWAP3 PUSH2 0x6E0 JUMPI JUMPDEST POP POP DUP2 PUSH1 0x1 SHL SWAP2 PUSH1 0x0 NOT SWAP1 PUSH1 0x3 SHL SHR NOT AND OR PUSH1 0x3 DUP5 ADD SSTORE JUMPDEST PUSH1 0x4 DUP4 ADD PUSH1 0x80 DUP3 ADD MLOAD DUP1 MLOAD SWAP1 PUSH1 0x1 PUSH1 0x1 PUSH1 0x40 SHL SUB DUP3 GT PUSH2 0x6CA JUMPI PUSH2 0x59E DUP4 SLOAD PUSH2 0x15C1 JUMP JUMPDEST PUSH1 0x1F DUP2 GT PUSH2 0x682 JUMPI JUMPDEST POP PUSH1 0x20 SWAP1 PUSH1 0x1F DUP4 GT PUSH1 0x1 EQ PUSH2 0x60D JUMPI SWAP4 PUSH2 0x600 SWAP7 SWAP4 DUP4 PUSH1 0x5 SWAP5 PUSH1 0xA0 SWAP5 PUSH2 0x5FB SWAP9 PUSH1 0x0 SWAP3 PUSH2 0x602 JUMPI JUMPDEST POP POP DUP2 PUSH1 0x1 SHL SWAP2 PUSH1 0x0 NOT SWAP1 PUSH1 0x3 SHL SHR NOT AND OR SWAP1 SSTORE JUMPDEST ADD MLOAD ISZERO ISZERO SWAP2 ADD SWAP1 PUSH1 0xFF DUP1 NOT DUP4 SLOAD AND SWAP2 ISZERO ISZERO AND OR SWAP1 SSTORE JUMP JUMPDEST PUSH2 0x178B JUMP JUMPDEST STOP JUMPDEST ADD MLOAD SWAP1 POP CODESIZE DUP1 PUSH2 0x5CF JUMP JUMPDEST SWAP1 PUSH1 0x1F NOT DUP4 AND SWAP2 DUP5 PUSH1 0x0 MSTORE PUSH1 0x20 PUSH1 0x0 KECCAK256 SWAP3 PUSH1 0x0 JUMPDEST DUP2 DUP2 LT PUSH2 0x66A JUMPI POP DUP5 PUSH1 0xA0 SWAP5 PUSH2 0x5FB SWAP9 SWAP5 PUSH2 0x600 SWAP12 SWAP9 SWAP5 PUSH1 0x5 SWAP9 PUSH1 0x1 SWAP6 LT PUSH2 0x651 JUMPI JUMPDEST POP POP POP DUP2 SHL ADD SWAP1 SSTORE PUSH2 0x5E4 JUMP JUMPDEST ADD MLOAD PUSH1 0x0 NOT PUSH1 0xF8 DUP5 PUSH1 0x3 SHL AND SHR NOT AND SWAP1 SSTORE CODESIZE DUP1 DUP1 PUSH2 0x644 JUMP JUMPDEST SWAP3 SWAP4 PUSH1 0x20 PUSH1 0x1 DUP2 SWAP3 DUP8 DUP7 ADD MLOAD DUP2 SSTORE ADD SWAP6 ADD SWAP4 ADD PUSH2 0x621 JUMP JUMPDEST DUP4 PUSH1 0x0 MSTORE PUSH1 0x20 PUSH1 0x0 KECCAK256 PUSH1 0x1F DUP5 ADD PUSH1 0x5 SHR DUP2 ADD SWAP2 PUSH1 0x20 DUP6 LT PUSH2 0x6C0 JUMPI JUMPDEST PUSH1 0x1F ADD PUSH1 0x5 SHR ADD SWAP1 JUMPDEST DUP2 DUP2 LT PUSH2 0x6B4 JUMPI POP PUSH2 0x5A7 JUMP JUMPDEST PUSH1 0x0 DUP2 SSTORE PUSH1 0x1 ADD PUSH2 0x6A7 JUMP JUMPDEST SWAP1 SWAP2 POP DUP2 SWAP1 PUSH2 0x69E JUMP JUMPDEST PUSH4 0x4E487B71 PUSH1 0xE0 SHL PUSH1 0x0 MSTORE PUSH1 0x41 PUSH1 0x4 MSTORE PUSH1 0x24 PUSH1 0x0 REVERT JUMPDEST ADD MLOAD SWAP1 POP CODESIZE DUP1 PUSH2 0x562 JUMP JUMPDEST PUSH1 0x1F NOT DUP3 AND SWAP6 PUSH1 0x3 DUP7 ADD PUSH1 0x0 MSTORE PUSH1 0x20 PUSH1 0x0 KECCAK256 SWAP2 PUSH1 0x0 JUMPDEST DUP9 DUP2 LT PUSH2 0x73F JUMPI POP DUP4 PUSH1 0x1 SWAP6 SWAP7 SWAP8 SWAP9 LT PUSH2 0x726 JUMPI JUMPDEST POP POP POP DUP2 SHL ADD PUSH1 0x3 DUP5 ADD SSTORE PUSH2 0x57A JUMP JUMPDEST ADD MLOAD PUSH1 0x0 NOT PUSH1 0xF8 DUP5 PUSH1 0x3 SHL AND SHR NOT AND SWAP1 SSTORE CODESIZE DUP1 DUP1 PUSH2 0x716 JUMP JUMPDEST SWAP2 SWAP3 PUSH1 0x20 PUSH1 0x1 DUP2 SWAP3 DUP7 DUP6 ADD MLOAD DUP2 SSTORE ADD SWAP5 ADD SWAP3 ADD PUSH2 0x701 JUMP JUMPDEST PUSH1 0x3 DUP6 ADD PUSH1 0x0 MSTORE PUSH1 0x20 PUSH1 0x0 KECCAK256 PUSH1 0x1F DUP4 ADD PUSH1 0x5 SHR DUP2 ADD SWAP2 PUSH1 0x20 DUP5 LT PUSH2 0x798 JUMPI JUMPDEST PUSH1 0x1F ADD PUSH1 0x5 SHR ADD SWAP1 JUMPDEST DUP2 DUP2 LT PUSH2 0x78C JUMPI POP PUSH2 0x545 JUMP JUMPDEST PUSH1 0x0 DUP2 SSTORE PUSH1 0x1 ADD PUSH2 0x77F JUMP JUMPDEST SWAP1 SWAP2 POP DUP2 SWAP1 PUSH2 0x776 JUMP JUMPDEST ADD MLOAD SWAP1 POP CODESIZE DUP1 PUSH2 0x501 JUMP JUMPDEST PUSH1 0x1F NOT DUP3 AND SWAP6 PUSH1 0x2 DUP6 ADD PUSH1 0x0 MSTORE PUSH1 0x20 PUSH1 0x0 KECCAK256 SWAP2 PUSH1 0x0 JUMPDEST DUP9 DUP2 LT PUSH2 0x801 JUMPI POP DUP4 PUSH1 0x1 SWAP6 SWAP7 SWAP8 SWAP9 LT PUSH2 0x7E8 JUMPI JUMPDEST POP POP POP DUP2 SHL ADD PUSH1 0x2 DUP4 ADD SSTORE PUSH2 0x519 JUMP JUMPDEST ADD MLOAD PUSH1 0x0 NOT PUSH1 0xF8 DUP5 PUSH1 0x3 SHL AND SHR NOT AND SWAP1 SSTORE CODESIZE DUP1 DUP1 PUSH2 0x7D8 JUMP JUMPDEST SWAP2 SWAP3 PUSH1 0x20 PUSH1 0x1 DUP2 SWAP3 DUP7 DUP6 ADD MLOAD DUP2 SSTORE ADD SWAP5 ADD SWAP3 ADD PUSH2 0x7C3 JUMP JUMPDEST PUSH1 0x2 DUP5 ADD PUSH1 0x0 MSTORE PUSH1 0x20 PUSH1 0x0 KECCAK256 PUSH1 0x1F DUP4 ADD PUSH1 0x5 SHR DUP2 ADD PUSH1 0x20 DUP5 LT PUSH2 0x859 JUMPI JUMPDEST PUSH1 0x1F DUP4 ADD PUSH1 0x5 SHR DUP3 ADD DUP2 LT PUSH2 0x84D JUMPI POP POP PUSH2 0x4E4 JUMP JUMPDEST PUSH1 0x0 DUP2 SSTORE PUSH1 0x1 ADD PUSH2 0x837 JUMP JUMPDEST POP DUP1 PUSH2 0x837 JUMP JUMPDEST ADD MLOAD SWAP1 POP CODESIZE DUP1 PUSH2 0x4A2 JUMP JUMPDEST PUSH1 0x1 DUP7 ADD PUSH1 0x0 SWAP1 DUP2 MSTORE PUSH1 0x20 DUP2 KECCAK256 SWAP4 POP PUSH1 0x1F NOT DUP6 AND SWAP1 JUMPDEST DUP2 DUP2 LT PUSH2 0x8C0 JUMPI POP SWAP1 DUP5 PUSH1 0x1 SWAP6 SWAP5 SWAP4 SWAP3 LT PUSH2 0x8A7 JUMPI JUMPDEST POP POP POP DUP2 SHL ADD PUSH1 0x1 DUP4 ADD SSTORE PUSH2 0x4BA JUMP JUMPDEST ADD MLOAD PUSH1 0x0 NOT PUSH1 0xF8 DUP5 PUSH1 0x3 SHL AND SHR NOT AND SWAP1 SSTORE CODESIZE DUP1 DUP1 PUSH2 0x897 JUMP JUMPDEST SWAP3 SWAP4 PUSH1 0x20 PUSH1 0x1 DUP2 SWAP3 DUP8 DUP7 ADD MLOAD DUP2 SSTORE ADD SWAP6 ADD SWAP4 ADD PUSH2 0x881 JUMP JUMPDEST SWAP1 SWAP2 POP PUSH1 0x1 DUP6 ADD PUSH1 0x0 MSTORE PUSH1 0x20 PUSH1 0x0 KECCAK256 PUSH1 0x1F DUP5 ADD PUSH1 0x5 SHR DUP2 ADD PUSH1 0x20 DUP6 LT PUSH2 0x924 JUMPI JUMPDEST SWAP1 DUP5 SWAP4 SWAP3 SWAP2 JUMPDEST PUSH1 0x1F DUP4 ADD PUSH1 0x5 SHR DUP3 ADD DUP2 LT PUSH2 0x915 JUMPI POP POP PUSH2 0x48B JUMP JUMPDEST PUSH1 0x0 DUP2 SSTORE DUP6 SWAP5 POP PUSH1 0x1 ADD PUSH2 0x8FF JUMP JUMPDEST POP DUP1 PUSH2 0x8F9 JUMP JUMPDEST ADD MLOAD SWAP1 POP CODESIZE DUP1 PUSH2 0x44C JUMP JUMPDEST PUSH1 0x0 DUP8 DUP2 MSTORE PUSH1 0x20 DUP2 KECCAK256 SWAP4 POP PUSH1 0x1F NOT DUP6 AND SWAP1 JUMPDEST DUP2 DUP2 LT PUSH2 0x984 JUMPI POP SWAP1 DUP5 PUSH1 0x1 SWAP6 SWAP5 SWAP4 SWAP3 LT PUSH2 0x96B JUMPI JUMPDEST POP POP POP DUP2 SHL ADD DUP4 SSTORE PUSH2 0x461 JUMP JUMPDEST ADD MLOAD PUSH1 0x0 NOT PUSH1 0xF8 DUP5 PUSH1 0x3 SHL AND SHR NOT AND SWAP1 SSTORE CODESIZE DUP1 DUP1 PUSH2 0x95E JUMP JUMPDEST SWAP3 SWAP4 PUSH1 0x20 PUSH1 0x1 DUP2 SWAP3 DUP8 DUP7 ADD MLOAD DUP2 SSTORE ADD SWAP6 ADD SWAP4 ADD PUSH2 0x948 JUMP JUMPDEST SWAP1 SWAP2 POP DUP6 PUSH1 0x0 MSTORE PUSH1 0x20 PUSH1 0x0 KECCAK256 PUSH1 0x1F DUP5 ADD PUSH1 0x5 SHR DUP2 ADD PUSH1 0x20 DUP6 LT PUSH2 0x9E3 JUMPI JUMPDEST SWAP1 PUSH1 0x1F DUP6 SWAP5 SWAP4 ADD PUSH1 0x5 SHR ADD SWAP1 JUMPDEST DUP2 DUP2 LT PUSH2 0x9D4 JUMPI POP PUSH2 0x435 JUMP JUMPDEST PUSH1 0x0 DUP2 SSTORE DUP5 SWAP4 POP PUSH1 0x1 ADD PUSH2 0x9C7 JUMP JUMPDEST POP DUP1 PUSH2 0x9BA JUMP JUMPDEST POP CALLVALUE PUSH2 0x187 JUMPI PUSH1 0x0 CALLDATASIZE PUSH1 0x3 NOT ADD SLT PUSH2 0x187 JUMPI DUP1 MLOAD SWAP1 DUP2 PUSH1 0x1 SWAP1 DUP2 SLOAD SWAP4 DUP5 DUP3 MSTORE PUSH1 0x20 DUP1 SWAP3 ADD DUP1 SWAP6 DUP5 PUSH1 0x0 MSTORE PUSH32 0xB10E2D527612073B26EECDFD717E6A320CF44B4AFAC2B0732D9FCBE2B7FA0CF6 SWAP1 PUSH1 0x0 JUMPDEST DUP2 DUP2 LT PUSH2 0xA8D JUMPI POP POP POP DUP2 PUSH2 0xA4F SWAP2 SUB DUP3 PUSH2 0x1508 JUMP JUMPDEST DUP4 MLOAD SWAP4 DUP3 DUP6 ADD SWAP2 DUP4 DUP7 MSTORE MLOAD DUP1 SWAP3 MSTORE DUP5 ADD SWAP5 SWAP2 PUSH1 0x0 JUMPDEST DUP3 DUP2 LT PUSH2 0xA71 JUMPI DUP6 DUP8 SUB DUP7 RETURN JUMPDEST DUP4 MLOAD PUSH1 0x1 PUSH1 0x1 PUSH1 0xA0 SHL SUB AND DUP8 MSTORE SWAP6 DUP2 ADD SWAP6 SWAP3 DUP2 ADD SWAP3 DUP5 ADD PUSH2 0xA64 JUMP JUMPDEST DUP3 SLOAD PUSH1 0x1 PUSH1 0x1 PUSH1 0xA0 SHL SUB AND DUP5 MSTORE SWAP3 DUP6 ADD SWAP3 SWAP2 DUP7 ADD SWAP2 DUP7 ADD PUSH2 0xA39 JUMP JUMPDEST POP CALLVALUE PUSH2 0x187 JUMPI PUSH1 0x0 CALLDATASIZE PUSH1 0x3 NOT ADD SLT PUSH2 0x187 JUMPI CALLER PUSH1 0x0 MSTORE PUSH1 0x0 PUSH1 0x20 MSTORE PUSH2 0xAD1 DUP2 PUSH1 0x0 KECCAK256 SLOAD PUSH2 0x15C1 JUMP JUMPDEST ISZERO PUSH2 0xAF2 JUMPI CALLER PUSH1 0x0 SWAP1 DUP2 MSTORE PUSH1 0x20 DUP2 SWAP1 MSTORE KECCAK256 PUSH1 0x5 ADD DUP1 SLOAD PUSH1 0xFF NOT AND PUSH1 0x1 OR SWAP1 SSTORE STOP JUMPDEST MLOAD PUSH3 0x461BCD PUSH1 0xE5 SHL DUP2 MSTORE PUSH1 0x20 PUSH1 0x4 DUP3 ADD MSTORE PUSH1 0xF PUSH1 0x24 DUP3 ADD MSTORE PUSH15 0x2737BA103932B3B4B9BA32B932B217 PUSH1 0x89 SHL PUSH1 0x44 DUP3 ADD MSTORE PUSH1 0x64 SWAP1 REVERT JUMPDEST POP CALLVALUE PUSH2 0x187 JUMPI PUSH2 0xB36 CALLDATASIZE PUSH2 0x157F JUMP JUMPDEST SWAP2 SWAP1 PUSH1 0x1 DUP1 PUSH1 0xA0 SHL SUB AND SWAP1 DUP2 PUSH1 0x0 MSTORE PUSH1 0x20 SWAP2 PUSH1 0x0 DUP4 MSTORE PUSH2 0xB5F PUSH1 0xFF PUSH1 0x5 DUP5 PUSH1 0x0 KECCAK256 ADD SLOAD AND PUSH2 0x180A JUMP JUMPDEST PUSH1 0x0 MSTORE PUSH1 0x4 DUP3 MSTORE PUSH1 0x0 KECCAK256 SWAP1 DUP3 MLOAD SWAP1 PUSH1 0x1 PUSH1 0x1 PUSH1 0x40 SHL SUB DUP3 GT PUSH2 0x6CA JUMPI PUSH2 0xB85 DUP4 SLOAD PUSH2 0x15C1 JUMP JUMPDEST PUSH1 0x1F DUP2 GT PUSH2 0xC2D JUMPI JUMPDEST POP DUP1 PUSH1 0x1F DUP4 GT PUSH1 0x1 EQ PUSH2 0xBCA JUMPI POP DUP2 SWAP3 SWAP4 PUSH1 0x0 SWAP3 PUSH2 0xBBF JUMPI JUMPDEST POP POP PUSH1 0x0 NOT PUSH1 0x3 DUP4 SWAP1 SHL SHR NOT AND PUSH1 0x1 SWAP2 SWAP1 SWAP2 SHL OR SWAP1 SSTORE STOP JUMPDEST ADD MLOAD SWAP1 POP CODESIZE DUP1 PUSH2 0xBA7 JUMP JUMPDEST SWAP1 PUSH1 0x1F NOT DUP4 AND SWAP5 DUP5 PUSH1 0x0 MSTORE DUP3 PUSH1 0x0 KECCAK256 SWAP3 PUSH1 0x0 SWAP1 JUMPDEST DUP8 DUP3 LT PUSH2 0xC15 JUMPI POP POP DUP4 PUSH1 0x1 SWAP6 SWAP7 LT PUSH2 0xBFC JUMPI JUMPDEST POP POP POP DUP2 SHL ADD SWAP1 SSTORE STOP JUMPDEST ADD MLOAD PUSH1 0x0 NOT PUSH1 0xF8 DUP5 PUSH1 0x3 SHL AND SHR NOT AND SWAP1 SSTORE CODESIZE DUP1 DUP1 PUSH2 0xBF2 JUMP JUMPDEST DUP1 PUSH1 0x1 DUP6 SWAP7 DUP3 SWAP5 SWAP7 DUP7 ADD MLOAD DUP2 SSTORE ADD SWAP6 ADD SWAP4 ADD SWAP1 PUSH2 0xBDE JUMP JUMPDEST DUP4 PUSH1 0x0 MSTORE DUP2 PUSH1 0x0 KECCAK256 PUSH1 0x1F DUP5 ADD PUSH1 0x5 SHR DUP2 ADD SWAP2 DUP4 DUP6 LT PUSH2 0xC69 JUMPI JUMPDEST PUSH1 0x1F ADD PUSH1 0x5 SHR ADD SWAP1 JUMPDEST DUP2 DUP2 LT PUSH2 0xC5D JUMPI POP PUSH2 0xB8E JUMP JUMPDEST PUSH1 0x0 DUP2 SSTORE PUSH1 0x1 ADD PUSH2 0xC50 JUMP JUMPDEST SWAP1 SWAP2 POP DUP2 SWAP1 PUSH2 0xC47 JUMP JUMPDEST POP CALLVALUE PUSH2 0x187 JUMPI PUSH1 0xA0 CALLDATASIZE PUSH1 0x3 NOT ADD SLT PUSH2 0x187 JUMPI PUSH1 0x4 CALLDATALOAD PUSH1 0x1 PUSH1 0x1 PUSH1 0x40 SHL SUB DUP2 GT PUSH2 0x187 JUMPI PUSH2 0xCA4 SWAP1 CALLDATASIZE SWAP1 PUSH1 0x4 ADD PUSH2 0x1529 JUMP JUMPDEST PUSH1 0x24 CALLDATALOAD PUSH1 0x1 PUSH1 0x1 PUSH1 0x40 SHL SUB DUP2 GT PUSH2 0x187 JUMPI PUSH2 0xCC3 SWAP1 CALLDATASIZE SWAP1 PUSH1 0x4 ADD PUSH2 0x1529 JUMP JUMPDEST PUSH1 0x44 CALLDATALOAD PUSH1 0x1 PUSH1 0x1 PUSH1 0x40 SHL SUB DUP2 GT PUSH2 0x187 JUMPI PUSH2 0xCE2 SWAP1 CALLDATASIZE SWAP1 PUSH1 0x4 ADD PUSH2 0x1529 JUMP JUMPDEST PUSH1 0x64 CALLDATALOAD PUSH1 0x1 PUSH1 0x1 PUSH1 0x40 SHL SUB DUP2 GT PUSH2 0x187 JUMPI PUSH2 0xD01 SWAP1 CALLDATASIZE SWAP1 PUSH1 0x4 ADD PUSH2 0x1529 JUMP JUMPDEST PUSH1 0x84 CALLDATALOAD PUSH1 0x1 PUSH1 0x1 PUSH1 0x40 SHL SUB DUP2 GT PUSH2 0x187 JUMPI PUSH2 0xD20 SWAP1 CALLDATASIZE SWAP1 PUSH1 0x4 ADD PUSH2 0x1529 JUMP JUMPDEST SWAP2 CALLER PUSH1 0x0 MSTORE PUSH1 0x0 PUSH1 0x20 MSTORE PUSH2 0xD3A PUSH2 0x3D0 DUP8 PUSH1 0x0 KECCAK256 SLOAD PUSH2 0x15C1 JUMP JUMPDEST DUP6 MLOAD SWAP5 PUSH2 0xD46 DUP7 PUSH2 0x14ED JUMP JUMPDEST DUP6 MSTORE PUSH1 0x20 DUP6 ADD SWAP4 DUP5 MSTORE DUP6 DUP6 ADD MSTORE PUSH1 0x60 DUP5 ADD MSTORE PUSH1 0x80 DUP4 ADD MSTORE PUSH1 0x0 PUSH1 0xA0 DUP4 ADD MSTORE CALLER PUSH1 0x0 MSTORE PUSH1 0x0 PUSH1 0x20 MSTORE DUP3 PUSH1 0x0 KECCAK256 SWAP1 DUP3 MLOAD DUP1 MLOAD SWAP1 PUSH1 0x1 PUSH1 0x1 PUSH1 0x40 SHL SUB DUP3 GT PUSH2 0x6CA JUMPI DUP2 SWAP1 PUSH2 0xD91 DUP6 SLOAD PUSH2 0x15C1 JUMP JUMPDEST PUSH1 0x1F DUP2 GT PUSH2 0x12B2 JUMPI JUMPDEST POP PUSH1 0x20 SWAP1 PUSH1 0x1F DUP4 GT PUSH1 0x1 EQ PUSH2 0x124C JUMPI PUSH1 0x0 SWAP3 PUSH2 0x1241 JUMPI JUMPDEST POP POP DUP2 PUSH1 0x1 SHL SWAP2 PUSH1 0x0 NOT SWAP1 PUSH1 0x3 SHL SHR NOT AND OR DUP3 SSTORE JUMPDEST MLOAD SWAP3 DUP4 MLOAD PUSH1 0x1 PUSH1 0x1 PUSH1 0x40 SHL SUB DUP2 GT PUSH2 0x6CA JUMPI PUSH2 0xDE5 PUSH1 0x1 DUP5 ADD SLOAD PUSH2 0x15C1 JUMP JUMPDEST PUSH1 0x1F DUP2 GT PUSH2 0x11FA JUMPI JUMPDEST POP PUSH1 0x20 SWAP5 PUSH1 0x1F DUP3 GT PUSH1 0x1 EQ PUSH2 0x118E JUMPI SWAP5 DUP2 SWAP3 SWAP4 SWAP5 SWAP6 PUSH1 0x0 SWAP3 PUSH2 0x1183 JUMPI JUMPDEST POP POP DUP2 PUSH1 0x1 SHL SWAP2 PUSH1 0x0 NOT SWAP1 PUSH1 0x3 SHL SHR NOT AND OR PUSH1 0x1 DUP4 ADD SSTORE JUMPDEST DUP3 ADD MLOAD SWAP2 DUP3 MLOAD PUSH1 0x1 PUSH1 0x1 PUSH1 0x40 SHL SUB DUP2 GT PUSH2 0x6CA JUMPI PUSH2 0xE44 PUSH1 0x2 DUP5 ADD SLOAD PUSH2 0x15C1 JUMP JUMPDEST PUSH1 0x1F DUP2 GT PUSH2 0x1138 JUMPI JUMPDEST POP PUSH1 0x20 PUSH1 0x1F DUP3 GT PUSH1 0x1 EQ PUSH2 0x10CC JUMPI DUP2 SWAP3 SWAP4 SWAP5 PUSH1 0x0 SWAP3 PUSH2 0x10C1 JUMPI JUMPDEST POP POP DUP2 PUSH1 0x1 SHL SWAP2 PUSH1 0x0 NOT SWAP1 PUSH1 0x3 SHL SHR NOT AND OR PUSH1 0x2 DUP4 ADD SSTORE JUMPDEST PUSH1 0x60 DUP2 ADD MLOAD SWAP2 DUP3 MLOAD PUSH1 0x1 PUSH1 0x1 PUSH1 0x40 SHL SUB DUP2 GT PUSH2 0x6CA JUMPI PUSH2 0xEA2 PUSH1 0x3 DUP4 ADD SLOAD PUSH2 0x15C1 JUMP JUMPDEST PUSH1 0x1F DUP2 GT PUSH2 0x1076 JUMPI JUMPDEST POP PUSH1 0x20 PUSH1 0x1F DUP3 GT PUSH1 0x1 EQ PUSH2 0x100A JUMPI DUP2 SWAP3 SWAP4 SWAP5 PUSH1 0x0 SWAP3 PUSH2 0xFFF JUMPI JUMPDEST POP POP DUP2 PUSH1 0x1 SHL SWAP2 PUSH1 0x0 NOT SWAP1 PUSH1 0x3 SHL SHR NOT AND OR PUSH1 0x3 DUP3 ADD SSTORE JUMPDEST PUSH1 0x4 DUP2 ADD SWAP2 PUSH1 0x80 DUP2 ADD MLOAD SWAP3 DUP4 MLOAD PUSH1 0x1 PUSH1 0x1 PUSH1 0x40 SHL SUB DUP2 GT PUSH2 0x6CA JUMPI PUSH2 0xF02 DUP3 SLOAD PUSH2 0x15C1 JUMP JUMPDEST PUSH1 0x1F DUP2 GT PUSH2 0xFB7 JUMPI JUMPDEST POP PUSH1 0x20 PUSH1 0x1F DUP3 GT PUSH1 0x1 EQ PUSH2 0xF61 JUMPI SWAP2 DUP2 PUSH1 0x5 SWAP5 SWAP3 PUSH1 0xA0 SWAP5 PUSH2 0xF58 SWAP9 PUSH1 0x0 SWAP3 PUSH2 0x602 JUMPI POP POP DUP2 PUSH1 0x1 SHL SWAP2 PUSH1 0x0 NOT SWAP1 PUSH1 0x3 SHL SHR NOT AND OR SWAP1 SSTORE ADD MLOAD ISZERO ISZERO SWAP2 ADD SWAP1 PUSH1 0xFF DUP1 NOT DUP4 SLOAD AND SWAP2 ISZERO ISZERO AND OR SWAP1 SSTORE JUMP JUMPDEST PUSH2 0x600 CALLER PUSH2 0x178B JUMP JUMPDEST PUSH1 0x1F NOT DUP3 AND SWAP6 DUP4 PUSH1 0x0 MSTORE PUSH1 0x20 PUSH1 0x0 KECCAK256 SWAP7 PUSH1 0x0 JUMPDEST DUP2 DUP2 LT PUSH2 0xF9F JUMPI POP SWAP3 PUSH2 0xF58 SWAP8 PUSH1 0xA0 SWAP6 SWAP4 PUSH1 0x1 SWAP4 DUP4 PUSH1 0x5 SWAP10 SWAP8 LT PUSH2 0x651 JUMPI POP POP POP DUP2 SHL ADD SWAP1 SSTORE PUSH2 0x5E4 JUMP JUMPDEST DUP4 DUP4 ADD MLOAD DUP10 SSTORE PUSH1 0x1 SWAP1 SWAP9 ADD SWAP8 PUSH1 0x20 SWAP4 DUP5 ADD SWAP4 ADD PUSH2 0xF74 JUMP JUMPDEST DUP3 PUSH1 0x0 MSTORE PUSH1 0x20 PUSH1 0x0 KECCAK256 PUSH1 0x1F DUP4 ADD PUSH1 0x5 SHR DUP2 ADD SWAP2 PUSH1 0x20 DUP5 LT PUSH2 0xFF5 JUMPI JUMPDEST PUSH1 0x1F ADD PUSH1 0x5 SHR ADD SWAP1 JUMPDEST DUP2 DUP2 LT PUSH2 0xFE9 JUMPI POP PUSH2 0xF0B JUMP JUMPDEST PUSH1 0x0 DUP2 SSTORE PUSH1 0x1 ADD PUSH2 0xFDC JUMP JUMPDEST SWAP1 SWAP2 POP DUP2 SWAP1 PUSH2 0xFD3 JUMP JUMPDEST ADD MLOAD SWAP1 POP CODESIZE DUP1 PUSH2 0xEC5 JUMP JUMPDEST PUSH1 0x1F NOT DUP3 AND SWAP1 PUSH1 0x3 DUP5 ADD PUSH1 0x0 MSTORE PUSH1 0x20 PUSH1 0x0 KECCAK256 SWAP2 PUSH1 0x0 JUMPDEST DUP2 DUP2 LT PUSH2 0x105E JUMPI POP SWAP6 DUP4 PUSH1 0x1 SWAP6 SWAP7 SWAP8 LT PUSH2 0x1045 JUMPI JUMPDEST POP POP POP DUP2 SHL ADD PUSH1 0x3 DUP3 ADD SSTORE PUSH2 0xEDD JUMP JUMPDEST ADD MLOAD PUSH1 0x0 NOT PUSH1 0xF8 DUP5 PUSH1 0x3 SHL AND SHR NOT AND SWAP1 SSTORE CODESIZE DUP1 DUP1 PUSH2 0x1035 JUMP JUMPDEST SWAP2 SWAP3 PUSH1 0x20 PUSH1 0x1 DUP2 SWAP3 DUP7 DUP12 ADD MLOAD DUP2 SSTORE ADD SWAP5 ADD SWAP3 ADD PUSH2 0x1020 JUMP JUMPDEST PUSH1 0x3 DUP4 ADD PUSH1 0x0 MSTORE PUSH1 0x20 PUSH1 0x0 KECCAK256 PUSH1 0x1F DUP4 ADD PUSH1 0x5 SHR DUP2 ADD SWAP2 PUSH1 0x20 DUP5 LT PUSH2 0x10B7 JUMPI JUMPDEST PUSH1 0x1F ADD PUSH1 0x5 SHR ADD SWAP1 JUMPDEST DUP2 DUP2 LT PUSH2 0x10AB JUMPI POP PUSH2 0xEAB JUMP JUMPDEST PUSH1 0x0 DUP2 SSTORE PUSH1 0x1 ADD PUSH2 0x109E JUMP JUMPDEST SWAP1 SWAP2 POP DUP2 SWAP1 PUSH2 0x1095 JUMP JUMPDEST ADD MLOAD SWAP1 POP CODESIZE DUP1 PUSH2 0xE67 JUMP JUMPDEST PUSH1 0x1F NOT DUP3 AND SWAP1 PUSH1 0x2 DUP6 ADD PUSH1 0x0 MSTORE PUSH1 0x20 PUSH1 0x0 KECCAK256 SWAP2 PUSH1 0x0 JUMPDEST DUP2 DUP2 LT PUSH2 0x1120 JUMPI POP SWAP6 DUP4 PUSH1 0x1 SWAP6 SWAP7 SWAP8 LT PUSH2 0x1107 JUMPI JUMPDEST POP POP POP DUP2 SHL ADD PUSH1 0x2 DUP4 ADD SSTORE PUSH2 0xE7F JUMP JUMPDEST ADD MLOAD PUSH1 0x0 NOT PUSH1 0xF8 DUP5 PUSH1 0x3 SHL AND SHR NOT AND SWAP1 SSTORE CODESIZE DUP1 DUP1 PUSH2 0x10F7 JUMP JUMPDEST SWAP2 SWAP3 PUSH1 0x20 PUSH1 0x1 DUP2 SWAP3 DUP7 DUP12 ADD MLOAD DUP2 SSTORE ADD SWAP5 ADD SWAP3 ADD PUSH2 0x10E2 JUMP JUMPDEST PUSH1 0x2 DUP5 ADD PUSH1 0x0 MSTORE PUSH1 0x20 PUSH1 0x0 KECCAK256 PUSH1 0x1F DUP4 ADD PUSH1 0x5 SHR DUP2 ADD SWAP2 PUSH1 0x20 DUP5 LT PUSH2 0x1179 JUMPI JUMPDEST PUSH1 0x1F ADD PUSH1 0x5 SHR ADD SWAP1 JUMPDEST DUP2 DUP2 LT PUSH2 0x116D JUMPI POP PUSH2 0xE4D JUMP JUMPDEST PUSH1 0x0 DUP2 SSTORE PUSH1 0x1 ADD PUSH2 0x1160 JUMP JUMPDEST SWAP1 SWAP2 POP DUP2 SWAP1 PUSH2 0x1157 JUMP JUMPDEST ADD MLOAD SWAP1 POP CODESIZE DUP1 PUSH2 0xE0B JUMP JUMPDEST PUSH1 0x1F NOT DUP3 AND SWAP6 PUSH1 0x1 DUP6 ADD PUSH1 0x0 MSTORE PUSH1 0x20 PUSH1 0x0 KECCAK256 SWAP2 PUSH1 0x0 JUMPDEST DUP9 DUP2 LT PUSH2 0x11E2 JUMPI POP DUP4 PUSH1 0x1 SWAP6 SWAP7 SWAP8 SWAP9 LT PUSH2 0x11C9 JUMPI JUMPDEST POP POP POP DUP2 SHL ADD PUSH1 0x1 DUP4 ADD SSTORE PUSH2 0xE23 JUMP JUMPDEST ADD MLOAD PUSH1 0x0 NOT PUSH1 0xF8 DUP5 PUSH1 0x3 SHL AND SHR NOT AND SWAP1 SSTORE CODESIZE DUP1 DUP1 PUSH2 0x11B9 JUMP JUMPDEST SWAP2 SWAP3 PUSH1 0x20 PUSH1 0x1 DUP2 SWAP3 DUP7 DUP6 ADD MLOAD DUP2 SSTORE ADD SWAP5 ADD SWAP3 ADD PUSH2 0x11A4 JUMP JUMPDEST PUSH1 0x1 DUP5 ADD PUSH1 0x0 MSTORE PUSH1 0x20 PUSH1 0x0 KECCAK256 PUSH1 0x1F DUP4 ADD PUSH1 0x5 SHR DUP2 ADD PUSH1 0x20 DUP5 LT PUSH2 0x123A JUMPI JUMPDEST PUSH1 0x1F DUP4 ADD PUSH1 0x5 SHR DUP3 ADD DUP2 LT PUSH2 0x122E JUMPI POP POP PUSH2 0xDEE JUMP JUMPDEST PUSH1 0x0 DUP2 SSTORE PUSH1 0x1 ADD PUSH2 0x1218 JUMP JUMPDEST POP DUP1 PUSH2 0x1218 JUMP JUMPDEST ADD MLOAD SWAP1 POP CODESIZE DUP1 PUSH2 0xDB1 JUMP JUMPDEST PUSH1 0x0 DUP7 DUP2 MSTORE PUSH1 0x20 DUP2 KECCAK256 SWAP4 POP PUSH1 0x1F NOT DUP6 AND SWAP1 JUMPDEST DUP2 DUP2 LT PUSH2 0x129A JUMPI POP SWAP1 DUP5 PUSH1 0x1 SWAP6 SWAP5 SWAP4 SWAP3 LT PUSH2 0x1281 JUMPI JUMPDEST POP POP POP DUP2 SHL ADD DUP3 SSTORE PUSH2 0xDC6 JUMP JUMPDEST ADD MLOAD PUSH1 0x0 NOT PUSH1 0xF8 DUP5 PUSH1 0x3 SHL AND SHR NOT AND SWAP1 SSTORE CODESIZE DUP1 DUP1 PUSH2 0x1274 JUMP JUMPDEST SWAP3 SWAP4 PUSH1 0x20 PUSH1 0x1 DUP2 SWAP3 DUP8 DUP7 ADD MLOAD DUP2 SSTORE ADD SWAP6 ADD SWAP4 ADD PUSH2 0x125E JUMP JUMPDEST SWAP1 SWAP2 POP DUP5 PUSH1 0x0 MSTORE PUSH1 0x20 PUSH1 0x0 KECCAK256 PUSH1 0x1F DUP5 ADD PUSH1 0x5 SHR DUP2 ADD SWAP2 PUSH1 0x20 DUP6 LT PUSH2 0x12FB JUMPI JUMPDEST SWAP1 PUSH1 0x1F DUP6 SWAP5 SWAP4 SWAP3 ADD PUSH1 0x5 SHR ADD SWAP1 JUMPDEST DUP2 DUP2 LT PUSH2 0x12EC JUMPI POP PUSH2 0xD9A JUMP JUMPDEST PUSH1 0x0 DUP2 SSTORE DUP5 SWAP4 POP PUSH1 0x1 ADD PUSH2 0x12DF JUMP JUMPDEST SWAP1 SWAP2 POP DUP2 SWAP1 PUSH2 0x12D1 JUMP JUMPDEST POP CALLVALUE PUSH2 0x187 JUMPI PUSH1 0x20 CALLDATASIZE PUSH1 0x3 NOT ADD SLT PUSH2 0x187 JUMPI PUSH2 0x183 SWAP1 PUSH1 0x1 PUSH1 0x1 PUSH1 0xA0 SHL SUB PUSH2 0x132B PUSH2 0x14D7 JUMP JUMPDEST AND PUSH1 0x0 MSTORE PUSH1 0x3 PUSH1 0x20 MSTORE PUSH2 0x1C7 DUP2 PUSH1 0x0 KECCAK256 PUSH2 0x15FB JUMP JUMPDEST POP CALLVALUE PUSH2 0x187 JUMPI DUP1 PUSH1 0x3 NOT CALLDATASIZE ADD SLT PUSH2 0x187 JUMPI PUSH1 0x1 PUSH1 0x1 PUSH1 0xA0 SHL SUB PUSH2 0x1361 PUSH2 0x14D7 JUMP JUMPDEST AND DUP1 PUSH1 0x0 MSTORE PUSH1 0x0 PUSH1 0x20 MSTORE PUSH2 0x137E PUSH1 0xFF PUSH1 0x5 DUP5 PUSH1 0x0 KECCAK256 ADD SLOAD AND PUSH2 0x180A JUMP JUMPDEST PUSH1 0x0 MSTORE PUSH1 0x2 PUSH1 0x20 MSTORE PUSH1 0x0 KECCAK256 DUP1 SLOAD SWAP1 PUSH1 0x24 CALLDATALOAD DUP3 ADD DUP1 SWAP3 GT PUSH2 0x139B JUMPI SSTORE STOP JUMPDEST PUSH4 0x4E487B71 PUSH1 0xE0 SHL PUSH1 0x0 MSTORE PUSH1 0x11 PUSH1 0x4 MSTORE PUSH1 0x24 PUSH1 0x0 REVERT JUMPDEST POP CALLVALUE PUSH2 0x187 JUMPI PUSH2 0x13C0 CALLDATASIZE PUSH2 0x157F JUMP JUMPDEST SWAP2 SWAP1 PUSH1 0x1 DUP1 PUSH1 0xA0 SHL SUB AND SWAP1 DUP2 PUSH1 0x0 MSTORE PUSH1 0x20 SWAP2 PUSH1 0x0 DUP4 MSTORE PUSH2 0x13E9 PUSH1 0xFF PUSH1 0x5 DUP5 PUSH1 0x0 KECCAK256 ADD SLOAD AND PUSH2 0x180A JUMP JUMPDEST PUSH1 0x0 MSTORE PUSH1 0x3 DUP3 MSTORE PUSH1 0x0 KECCAK256 SWAP1 DUP3 MLOAD SWAP1 PUSH1 0x1 PUSH1 0x1 PUSH1 0x40 SHL SUB DUP3 GT PUSH2 0x6CA JUMPI PUSH2 0x140F DUP4 SLOAD PUSH2 0x15C1 JUMP JUMPDEST PUSH1 0x1F DUP2 GT PUSH2 0x1491 JUMPI JUMPDEST POP DUP1 PUSH1 0x1F DUP4 GT PUSH1 0x1 EQ PUSH2 0x1448 JUMPI POP DUP2 SWAP3 SWAP4 PUSH1 0x0 SWAP3 PUSH2 0xBBF JUMPI POP POP PUSH1 0x0 NOT PUSH1 0x3 DUP4 SWAP1 SHL SHR NOT AND PUSH1 0x1 SWAP2 SWAP1 SWAP2 SHL OR SWAP1 SSTORE STOP JUMPDEST SWAP1 PUSH1 0x1F NOT DUP4 AND SWAP5 DUP5 PUSH1 0x0 MSTORE DUP3 PUSH1 0x0 KECCAK256 SWAP3 PUSH1 0x0 SWAP1 JUMPDEST DUP8 DUP3 LT PUSH2 0x1479 JUMPI POP POP DUP4 PUSH1 0x1 SWAP6 SWAP7 LT PUSH2 0xBFC JUMPI POP POP POP DUP2 SHL ADD SWAP1 SSTORE STOP JUMPDEST DUP1 PUSH1 0x1 DUP6 SWAP7 DUP3 SWAP5 SWAP7 DUP7 ADD MLOAD DUP2 SSTORE ADD SWAP6 ADD SWAP4 ADD SWAP1 PUSH2 0x145C JUMP JUMPDEST DUP4 PUSH1 0x0 MSTORE DUP2 PUSH1 0x0 KECCAK256 PUSH1 0x1F DUP5 ADD PUSH1 0x5 SHR DUP2 ADD SWAP2 DUP4 DUP6 LT PUSH2 0x14CD JUMPI JUMPDEST PUSH1 0x1F ADD PUSH1 0x5 SHR ADD SWAP1 JUMPDEST DUP2 DUP2 LT PUSH2 0x14C1 JUMPI POP PUSH2 0x1418 JUMP JUMPDEST PUSH1 0x0 DUP2 SSTORE PUSH1 0x1 ADD PUSH2 0x14B4 JUMP JUMPDEST SWAP1 SWAP2 POP DUP2 SWAP1 PUSH2 0x14AB JUMP JUMPDEST PUSH1 0x4 CALLDATALOAD SWAP1 PUSH1 0x1 PUSH1 0x1 PUSH1 0xA0 SHL SUB DUP3 AND DUP3 SUB PUSH2 0x187 JUMPI JUMP JUMPDEST PUSH1 0xC0 DUP2 ADD SWAP1 DUP2 LT PUSH1 0x1 PUSH1 0x1 PUSH1 0x40 SHL SUB DUP3 GT OR PUSH2 0x6CA JUMPI PUSH1 0x40 MSTORE JUMP JUMPDEST SWAP1 PUSH1 0x1F DUP1 NOT SWAP2 ADD AND DUP2 ADD SWAP1 DUP2 LT PUSH1 0x1 PUSH1 0x1 PUSH1 0x40 SHL SUB DUP3 GT OR PUSH2 0x6CA JUMPI PUSH1 0x40 MSTORE JUMP JUMPDEST DUP2 PUSH1 0x1F DUP3 ADD SLT ISZERO PUSH2 0x187 JUMPI DUP1 CALLDATALOAD SWAP1 PUSH1 0x1 PUSH1 0x1 PUSH1 0x40 SHL SUB DUP3 GT PUSH2 0x6CA JUMPI PUSH1 0x40 MLOAD SWAP3 PUSH2 0x155D PUSH1 0x1F DUP5 ADD PUSH1 0x1F NOT AND PUSH1 0x20 ADD DUP6 PUSH2 0x1508 JUMP JUMPDEST DUP3 DUP5 MSTORE PUSH1 0x20 DUP4 DUP4 ADD ADD GT PUSH2 0x187 JUMPI DUP2 PUSH1 0x0 SWAP3 PUSH1 0x20 DUP1 SWAP4 ADD DUP4 DUP7 ADD CALLDATACOPY DUP4 ADD ADD MSTORE SWAP1 JUMP JUMPDEST SWAP1 PUSH1 0x40 PUSH1 0x3 NOT DUP4 ADD SLT PUSH2 0x187 JUMPI PUSH1 0x4 CALLDATALOAD PUSH1 0x1 PUSH1 0x1 PUSH1 0xA0 SHL SUB DUP2 AND DUP2 SUB PUSH2 0x187 JUMPI SWAP2 PUSH1 0x24 CALLDATALOAD SWAP1 PUSH1 0x1 PUSH1 0x1 PUSH1 0x40 SHL SUB DUP3 GT PUSH2 0x187 JUMPI PUSH2 0x15BE SWAP2 PUSH1 0x4 ADD PUSH2 0x1529 JUMP JUMPDEST SWAP1 JUMP JUMPDEST SWAP1 PUSH1 0x1 DUP3 DUP2 SHR SWAP3 AND DUP1 ISZERO PUSH2 0x15F1 JUMPI JUMPDEST PUSH1 0x20 DUP4 LT EQ PUSH2 0x15DB JUMPI JUMP JUMPDEST PUSH4 0x4E487B71 PUSH1 0xE0 SHL PUSH1 0x0 MSTORE PUSH1 0x22 PUSH1 0x4 MSTORE PUSH1 0x24 PUSH1 0x0 REVERT JUMPDEST SWAP2 PUSH1 0x7F AND SWAP2 PUSH2 0x15D0 JUMP JUMPDEST SWAP1 PUSH1 0x40 MLOAD SWAP2 DUP3 PUSH1 0x0 DUP3 SLOAD SWAP3 PUSH2 0x160F DUP5 PUSH2 0x15C1 JUMP JUMPDEST SWAP1 DUP2 DUP5 MSTORE PUSH1 0x1 SWAP5 DUP6 DUP2 AND SWAP1 DUP2 PUSH1 0x0 EQ PUSH2 0x167E JUMPI POP PUSH1 0x1 EQ PUSH2 0x163B JUMPI JUMPDEST POP POP PUSH2 0x1639 SWAP3 POP SUB DUP4 PUSH2 0x1508 JUMP JUMPDEST JUMP JUMPDEST SWAP1 SWAP4 SWAP2 POP PUSH1 0x0 MSTORE PUSH1 0x20 SWAP1 DUP2 PUSH1 0x0 KECCAK256 SWAP4 PUSH1 0x0 SWAP2 JUMPDEST DUP2 DUP4 LT PUSH2 0x1666 JUMPI POP POP PUSH2 0x1639 SWAP4 POP DUP3 ADD ADD CODESIZE DUP1 PUSH2 0x162B JUMP JUMPDEST DUP6 SLOAD DUP9 DUP5 ADD DUP6 ADD MSTORE SWAP5 DUP6 ADD SWAP5 DUP8 SWAP5 POP SWAP2 DUP4 ADD SWAP2 PUSH2 0x164E JUMP JUMPDEST SWAP2 POP POP PUSH2 0x1639 SWAP5 POP PUSH1 0x20 SWAP3 POP PUSH1 0xFF NOT AND DUP3 DUP5 ADD MSTORE ISZERO ISZERO PUSH1 0x5 SHL DUP3 ADD ADD CODESIZE DUP1 PUSH2 0x162B JUMP JUMPDEST SWAP2 SWAP1 DUP3 MLOAD SWAP3 DUP4 DUP3 MSTORE PUSH1 0x0 JUMPDEST DUP5 DUP2 LT PUSH2 0x16CD JUMPI POP POP DUP3 PUSH1 0x0 PUSH1 0x20 DUP1 SWAP5 SWAP6 DUP5 ADD ADD MSTORE PUSH1 0x1F DUP1 NOT SWAP2 ADD AND ADD ADD SWAP1 JUMP JUMPDEST PUSH1 0x20 DUP2 DUP4 ADD DUP2 ADD MLOAD DUP5 DUP4 ADD DUP3 ADD MSTORE ADD PUSH2 0x16AC JUMP JUMPDEST SWAP5 SWAP2 SWAP4 PUSH2 0x1725 PUSH2 0x1741 SWAP5 PUSH2 0x1717 PUSH1 0xA0 SWAP8 PUSH2 0x1709 PUSH2 0x1733 SWAP7 SWAP13 SWAP12 SWAP13 PUSH1 0xC0 DUP13 MSTORE PUSH1 0xC0 DUP13 ADD SWAP1 PUSH2 0x16A1 JUMP JUMPDEST SWAP1 DUP11 DUP3 SUB PUSH1 0x20 DUP13 ADD MSTORE PUSH2 0x16A1 JUMP JUMPDEST SWAP1 DUP9 DUP3 SUB PUSH1 0x40 DUP11 ADD MSTORE PUSH2 0x16A1 JUMP JUMPDEST SWAP1 DUP7 DUP3 SUB PUSH1 0x60 DUP9 ADD MSTORE PUSH2 0x16A1 JUMP JUMPDEST SWAP1 DUP5 DUP3 SUB PUSH1 0x80 DUP7 ADD MSTORE PUSH2 0x16A1 JUMP JUMPDEST SWAP4 ISZERO ISZERO SWAP2 ADD MSTORE JUMP JUMPDEST ISZERO PUSH2 0x1750 JUMPI JUMP JUMPDEST PUSH1 0x40 MLOAD PUSH3 0x461BCD PUSH1 0xE5 SHL DUP2 MSTORE PUSH1 0x20 PUSH1 0x4 DUP3 ADD MSTORE PUSH1 0x13 PUSH1 0x24 DUP3 ADD MSTORE PUSH19 0x20B63932B0B23C903932B3B4B9BA32B932B217 PUSH1 0x69 SHL PUSH1 0x44 DUP3 ADD MSTORE PUSH1 0x64 SWAP1 REVERT JUMPDEST PUSH1 0x1 SLOAD PUSH9 0x10000000000000000 DUP2 LT ISZERO PUSH2 0x6CA JUMPI PUSH1 0x1 DUP2 ADD DUP1 PUSH1 0x1 SSTORE DUP2 LT ISZERO PUSH2 0x17F4 JUMPI PUSH1 0x1 PUSH1 0x0 MSTORE PUSH32 0xB10E2D527612073B26EECDFD717E6A320CF44B4AFAC2B0732D9FCBE2B7FA0CF6 ADD DUP1 SLOAD PUSH1 0x1 PUSH1 0x1 PUSH1 0xA0 SHL SUB NOT AND PUSH1 0x1 PUSH1 0x1 PUSH1 0xA0 SHL SUB SWAP1 SWAP3 AND SWAP2 SWAP1 SWAP2 OR SWAP1 SSTORE JUMP JUMPDEST PUSH4 0x4E487B71 PUSH1 0xE0 SHL PUSH1 0x0 MSTORE PUSH1 0x32 PUSH1 0x4 MSTORE PUSH1 0x24 PUSH1 0x0 REVERT JUMPDEST ISZERO PUSH2 0x1811 JUMPI JUMP JUMPDEST PUSH1 0x40 MLOAD PUSH3 0x461BCD PUSH1 0xE5 SHL DUP2 MSTORE PUSH1 0x20 PUSH1 0x4 DUP3 ADD MSTORE PUSH1 0x17 PUSH1 0x24 DUP3 ADD MSTORE PUSH32 0x41707072656E74696365206E6F7420626C6F6F6D65642E000000000000000000 PUSH1 0x44 DUP3 ADD MSTORE PUSH1 0x64 SWAP1 REVERT INVALID LOG2 PUSH5 0x6970667358 0x22 SLT KECCAK256 TIMESTAMP SHL 0xF9 0x2B PUSH9 0x8B65FD2077AB2215B3 DUP8 0xBE ADDRESS 0x4F 0xE2 0xED PUSH29 0x1F829B166C1D15A8FF328364736F6C6343000814003300000000000000 "},"methodIdentifiers":{"apprenticeList(uint256)":"c35fe960","apprentices(address)":"c4454727","constellations(address)":"18e63122","externalRegister(address,string,string,string,string,string)":"682fc38d","getAllApprentices()":"6785ff87","getApprentice(address)":"de2dd822","getConstellation(address)":"251c78e3","getKickback(address)":"62494868","getSkyCity(address)":"d4d45f02","kickbacks(address)":"81a5e17d","recordKickback(address,uint256)":"1e929cf3","registerApprentice(string,string,string,string,string)":"3a9c38d1","setConstellation(address,string)":"0c429d90","setSkyCity(address,string)":"4262071b","skyCities(address)":"62f8e662","triggerBloom()":"57d117da"}}}}}