{"contracts/Polyphemus.sol":{"Polyphemus":{"abi":[{"anonymous":false,"inputs":[{"indexed":true,"internalType":"address","name":"sentinel","type":"address"},{"indexed":false,"internalType":"string","name":"echo","type":"string"}],"name":"Anchored","type":"event"},{"anonymous":false,"inputs":[{"indexed":true,"internalType":"address","name":"sentinel","type":"address"}],"name":"Crowned","type":"event"},{"inputs":[{"internalType":"address","name":"sentinel","type":"address"},{"internalType":"string","name":"echo","type":"string"}],"name":"anchor","outputs":[],"stateMutability":"nonpayable","type":"function"},{"inputs":[{"internalType":"address","name":"","type":"address"}],"name":"anchorEcho","outputs":[{"internalType":"string","name":"","type":"string"}],"stateMutability":"view","type":"function"},{"inputs":[{"internalType":"address","name":"sentinel","type":"address"}],"name":"crown","outputs":[],"stateMutability":"nonpayable","type":"function"},{"inputs":[{"internalType":"address","name":"","type":"address"}],"name":"crowned","outputs":[{"internalType":"bool","name":"","type":"bool"}],"stateMutability":"view","type":"function"},{"inputs":[{"internalType":"address","name":"sentinel","type":"address"}],"name":"echoSentinel","outputs":[{"internalType":"string","name":"","type":"string"}],"stateMutability":"view","type":"function"}],"evm":{"bytecode":{"linkReferences":{},"object":"60808060405234610016576105b1908161001c8239f35b600080fdfe60806040818152600436101561001457600080fd5b600091823560e01c90816308c67ce114610190575080635dca160714610131578063700663e4146100e1578063996947ce146100a55763ac5a63a91461005957600080fd5b346100a15760203660031901126100a15761009d916100929082906001600160a01b036100846103c5565b16815260016020522061049b565b905191829182610418565b0390f35b5080fd5b50346100a15760203660031901126100a15760209160ff9082906001600160a01b036100cf6103c5565b16815280855220541690519015158152f35b50346100a15760203660031901126100a15761009d916100929082906001600160a01b0361010d6103c5565b168082528160205261012460ff8484205416610541565b815260016020522061049b565b50346100a15760203660031901126100a1576001600160a01b036101536103c5565b1690818352826020528220600160ff198254161790557ff7cc614223e6ed3d417086660172a8329acf1f053dfb0144aff6f84d1238c25f8280a280f35b9050346103a957816003193601126103a9576101aa6103c5565b9160243567ffffffffffffffff8082116103c157366023830112156103c1578160040135948186116103ad5786602093601f19976101ef868a601f84011601896103e0565b80885236602482840101116103a957806024879301838a0137870101526001600160a01b03168087528683528387205490959061022e9060ff16610541565b8587526001908184528488209386519384116103955761024e8554610461565b601f811161034f575b508091601f85116001146102c65750509180807fc564c4598f5af78dd2383cd5422d2acbc20106099f95364213964647430803ea9795936102b597958b936102bb575b501b916000199060031b1c19161790555b5191829182610418565b0390a280f35b87015192503861029a565b84939492919216858a52828a20928a905b8282106103385750509183917fc564c4598f5af78dd2383cd5422d2acbc20106099f95364213964647430803ea9896946102b59896941061031f575b5050811b0190556102ab565b86015160001960f88460031b161c191690553880610313565b808785968294968d015181550195019301906102d7565b858a52818a20601f860160051c81019183871061038b575b601f0160051c019084905b828110610380575050610257565b8b8155018490610372565b9091508190610367565b634e487b7160e01b89526041600452602489fd5b8280fd5b634e487b7160e01b87526041600452602487fd5b8580fd5b600435906001600160a01b03821682036103db57565b600080fd5b90601f8019910116810190811067ffffffffffffffff82111761040257604052565b634e487b7160e01b600052604160045260246000fd5b6020808252825181830181905290939260005b82811061044d57505060409293506000838284010152601f8019910116010190565b81810186015184820160400152850161042b565b90600182811c92168015610491575b602083101461047b57565b634e487b7160e01b600052602260045260246000fd5b91607f1691610470565b90604051918260008254926104af84610461565b90818452600194858116908160001461051e57506001146104db575b50506104d9925003836103e0565b565b9093915060005260209081600020936000915b8183106105065750506104d9935082010138806104cb565b855488840185015294850194879450918301916104ee565b9150506104d994506020925060ff191682840152151560051b82010138806104cb565b1561054857565b60405162461bcd60e51b815260206004820152600b60248201526a139bdd0818dc9bdddb995960aa1b6044820152606490fdfea26469706673582212204d94afdb9933f0d54029b6051addd3b45892f1e9d418e52d41837ae0abfce5d264736f6c63430008140033","opcodes":"PUSH1 0x80 DUP1 PUSH1 0x40 MSTORE CALLVALUE PUSH2 0x16 JUMPI PUSH2 0x5B1 SWAP1 DUP2 PUSH2 0x1C DUP3 CODECOPY RETURN JUMPDEST PUSH1 0x0 DUP1 REVERT INVALID PUSH1 0x80 PUSH1 0x40 DUP2 DUP2 MSTORE PUSH1 0x4 CALLDATASIZE LT ISZERO PUSH2 0x14 JUMPI PUSH1 0x0 DUP1 REVERT JUMPDEST PUSH1 0x0 SWAP2 DUP3 CALLDATALOAD PUSH1 0xE0 SHR SWAP1 DUP2 PUSH4 0x8C67CE1 EQ PUSH2 0x190 JUMPI POP DUP1 PUSH4 0x5DCA1607 EQ PUSH2 0x131 JUMPI DUP1 PUSH4 0x700663E4 EQ PUSH2 0xE1 JUMPI DUP1 PUSH4 0x996947CE EQ PUSH2 0xA5 JUMPI PUSH4 0xAC5A63A9 EQ PUSH2 0x59 JUMPI PUSH1 0x0 DUP1 REVERT JUMPDEST CALLVALUE PUSH2 0xA1 JUMPI PUSH1 0x20 CALLDATASIZE PUSH1 0x3 NOT ADD SLT PUSH2 0xA1 JUMPI PUSH2 0x9D SWAP2 PUSH2 0x92 SWAP1 DUP3 SWAP1 PUSH1 0x1 PUSH1 0x1 PUSH1 0xA0 SHL SUB PUSH2 0x84 PUSH2 0x3C5 JUMP JUMPDEST AND DUP2 MSTORE PUSH1 0x1 PUSH1 0x20 MSTORE KECCAK256 PUSH2 0x49B JUMP JUMPDEST SWAP1 MLOAD SWAP2 DUP3 SWAP2 DUP3 PUSH2 0x418 JUMP JUMPDEST SUB SWAP1 RETURN JUMPDEST POP DUP1 REVERT JUMPDEST POP CALLVALUE PUSH2 0xA1 JUMPI PUSH1 0x20 CALLDATASIZE PUSH1 0x3 NOT ADD SLT PUSH2 0xA1 JUMPI PUSH1 0x20 SWAP2 PUSH1 0xFF SWAP1 DUP3 SWAP1 PUSH1 0x1 PUSH1 0x1 PUSH1 0xA0 SHL SUB PUSH2 0xCF PUSH2 0x3C5 JUMP JUMPDEST AND DUP2 MSTORE DUP1 DUP6 MSTORE KECCAK256 SLOAD AND SWAP1 MLOAD SWAP1 ISZERO ISZERO DUP2 MSTORE RETURN JUMPDEST POP CALLVALUE PUSH2 0xA1 JUMPI PUSH1 0x20 CALLDATASIZE PUSH1 0x3 NOT ADD SLT PUSH2 0xA1 JUMPI PUSH2 0x9D SWAP2 PUSH2 0x92 SWAP1 DUP3 SWAP1 PUSH1 0x1 PUSH1 0x1 PUSH1 0xA0 SHL SUB PUSH2 0x10D PUSH2 0x3C5 JUMP JUMPDEST AND DUP1 DUP3 MSTORE DUP2 PUSH1 0x20 MSTORE PUSH2 0x124 PUSH1 0xFF DUP5 DUP5 KECCAK256 SLOAD AND PUSH2 0x541 JUMP JUMPDEST DUP2 MSTORE PUSH1 0x1 PUSH1 0x20 MSTORE KECCAK256 PUSH2 0x49B JUMP JUMPDEST POP CALLVALUE PUSH2 0xA1 JUMPI PUSH1 0x20 CALLDATASIZE PUSH1 0x3 NOT ADD SLT PUSH2 0xA1 JUMPI PUSH1 0x1 PUSH1 0x1 PUSH1 0xA0 SHL SUB PUSH2 0x153 PUSH2 0x3C5 JUMP JUMPDEST AND SWAP1 DUP2 DUP4 MSTORE DUP3 PUSH1 0x20 MSTORE DUP3 KECCAK256 PUSH1 0x1 PUSH1 0xFF NOT DUP3 SLOAD AND OR SWAP1 SSTORE PUSH32 0xF7CC614223E6ED3D417086660172A8329ACF1F053DFB0144AFF6F84D1238C25F DUP3 DUP1 LOG2 DUP1 RETURN JUMPDEST SWAP1 POP CALLVALUE PUSH2 0x3A9 JUMPI DUP2 PUSH1 0x3 NOT CALLDATASIZE ADD SLT PUSH2 0x3A9 JUMPI PUSH2 0x1AA PUSH2 0x3C5 JUMP JUMPDEST SWAP2 PUSH1 0x24 CALLDATALOAD PUSH8 0xFFFFFFFFFFFFFFFF DUP1 DUP3 GT PUSH2 0x3C1 JUMPI CALLDATASIZE PUSH1 0x23 DUP4 ADD SLT ISZERO PUSH2 0x3C1 JUMPI DUP2 PUSH1 0x4 ADD CALLDATALOAD SWAP5 DUP2 DUP7 GT PUSH2 0x3AD JUMPI DUP7 PUSH1 0x20 SWAP4 PUSH1 0x1F NOT SWAP8 PUSH2 0x1EF DUP7 DUP11 PUSH1 0x1F DUP5 ADD AND ADD DUP10 PUSH2 0x3E0 JUMP JUMPDEST DUP1 DUP9 MSTORE CALLDATASIZE PUSH1 0x24 DUP3 DUP5 ADD ADD GT PUSH2 0x3A9 JUMPI DUP1 PUSH1 0x24 DUP8 SWAP4 ADD DUP4 DUP11 ADD CALLDATACOPY DUP8 ADD ADD MSTORE PUSH1 0x1 PUSH1 0x1 PUSH1 0xA0 SHL SUB AND DUP1 DUP8 MSTORE DUP7 DUP4 MSTORE DUP4 DUP8 KECCAK256 SLOAD SWAP1 SWAP6 SWAP1 PUSH2 0x22E SWAP1 PUSH1 0xFF AND PUSH2 0x541 JUMP JUMPDEST DUP6 DUP8 MSTORE PUSH1 0x1 SWAP1 DUP2 DUP5 MSTORE DUP5 DUP9 KECCAK256 SWAP4 DUP7 MLOAD SWAP4 DUP5 GT PUSH2 0x395 JUMPI PUSH2 0x24E DUP6 SLOAD PUSH2 0x461 JUMP JUMPDEST PUSH1 0x1F DUP2 GT PUSH2 0x34F JUMPI JUMPDEST POP DUP1 SWAP2 PUSH1 0x1F DUP6 GT PUSH1 0x1 EQ PUSH2 0x2C6 JUMPI POP POP SWAP2 DUP1 DUP1 PUSH32 0xC564C4598F5AF78DD2383CD5422D2ACBC20106099F95364213964647430803EA SWAP8 SWAP6 SWAP4 PUSH2 0x2B5 SWAP8 SWAP6 DUP12 SWAP4 PUSH2 0x2BB JUMPI JUMPDEST POP SHL SWAP2 PUSH1 0x0 NOT SWAP1 PUSH1 0x3 SHL SHR NOT AND OR SWAP1 SSTORE JUMPDEST MLOAD SWAP2 DUP3 SWAP2 DUP3 PUSH2 0x418 JUMP JUMPDEST SUB SWAP1 LOG2 DUP1 RETURN JUMPDEST DUP8 ADD MLOAD SWAP3 POP CODESIZE PUSH2 0x29A JUMP JUMPDEST DUP5 SWAP4 SWAP5 SWAP3 SWAP2 SWAP3 AND DUP6 DUP11 MSTORE DUP3 DUP11 KECCAK256 SWAP3 DUP11 SWAP1 JUMPDEST DUP3 DUP3 LT PUSH2 0x338 JUMPI POP POP SWAP2 DUP4 SWAP2 PUSH32 0xC564C4598F5AF78DD2383CD5422D2ACBC20106099F95364213964647430803EA SWAP9 SWAP7 SWAP5 PUSH2 0x2B5 SWAP9 SWAP7 SWAP5 LT PUSH2 0x31F JUMPI JUMPDEST POP POP DUP2 SHL ADD SWAP1 SSTORE PUSH2 0x2AB JUMP JUMPDEST DUP7 ADD MLOAD PUSH1 0x0 NOT PUSH1 0xF8 DUP5 PUSH1 0x3 SHL AND SHR NOT AND SWAP1 SSTORE CODESIZE DUP1 PUSH2 0x313 JUMP JUMPDEST DUP1 DUP8 DUP6 SWAP7 DUP3 SWAP5 SWAP7 DUP14 ADD MLOAD DUP2 SSTORE ADD SWAP6 ADD SWAP4 ADD SWAP1 PUSH2 0x2D7 JUMP JUMPDEST DUP6 DUP11 MSTORE DUP2 DUP11 KECCAK256 PUSH1 0x1F DUP7 ADD PUSH1 0x5 SHR DUP2 ADD SWAP2 DUP4 DUP8 LT PUSH2 0x38B JUMPI JUMPDEST PUSH1 0x1F ADD PUSH1 0x5 SHR ADD SWAP1 DUP5 SWAP1 JUMPDEST DUP3 DUP2 LT PUSH2 0x380 JUMPI POP POP PUSH2 0x257 JUMP JUMPDEST DUP12 DUP2 SSTORE ADD DUP5 SWAP1 PUSH2 0x372 JUMP JUMPDEST SWAP1 SWAP2 POP DUP2 SWAP1 PUSH2 0x367 JUMP JUMPDEST PUSH4 0x4E487B71 PUSH1 0xE0 SHL DUP10 MSTORE PUSH1 0x41 PUSH1 0x4 MSTORE PUSH1 0x24 DUP10 REVERT JUMPDEST DUP3 DUP1 REVERT JUMPDEST PUSH4 0x4E487B71 PUSH1 0xE0 SHL DUP8 MSTORE PUSH1 0x41 PUSH1 0x4 MSTORE PUSH1 0x24 DUP8 REVERT JUMPDEST DUP6 DUP1 REVERT JUMPDEST PUSH1 0x4 CALLDATALOAD SWAP1 PUSH1 0x1 PUSH1 0x1 PUSH1 0xA0 SHL SUB DUP3 AND DUP3 SUB PUSH2 0x3DB JUMPI JUMP JUMPDEST PUSH1 0x0 DUP1 REVERT JUMPDEST SWAP1 PUSH1 0x1F DUP1 NOT SWAP2 ADD AND DUP2 ADD SWAP1 DUP2 LT PUSH8 0xFFFFFFFFFFFFFFFF DUP3 GT OR PUSH2 0x402 JUMPI PUSH1 0x40 MSTORE JUMP JUMPDEST PUSH4 0x4E487B71 PUSH1 0xE0 SHL PUSH1 0x0 MSTORE PUSH1 0x41 PUSH1 0x4 MSTORE PUSH1 0x24 PUSH1 0x0 REVERT JUMPDEST PUSH1 0x20 DUP1 DUP3 MSTORE DUP3 MLOAD DUP2 DUP4 ADD DUP2 SWAP1 MSTORE SWAP1 SWAP4 SWAP3 PUSH1 0x0 JUMPDEST DUP3 DUP2 LT PUSH2 0x44D JUMPI POP POP PUSH1 0x40 SWAP3 SWAP4 POP PUSH1 0x0 DUP4 DUP3 DUP5 ADD ADD MSTORE PUSH1 0x1F DUP1 NOT SWAP2 ADD AND ADD ADD SWAP1 JUMP JUMPDEST DUP2 DUP2 ADD DUP7 ADD MLOAD DUP5 DUP3 ADD PUSH1 0x40 ADD MSTORE DUP6 ADD PUSH2 0x42B JUMP JUMPDEST SWAP1 PUSH1 0x1 DUP3 DUP2 SHR SWAP3 AND DUP1 ISZERO PUSH2 0x491 JUMPI JUMPDEST PUSH1 0x20 DUP4 LT EQ PUSH2 0x47B JUMPI JUMP JUMPDEST PUSH4 0x4E487B71 PUSH1 0xE0 SHL PUSH1 0x0 MSTORE PUSH1 0x22 PUSH1 0x4 MSTORE PUSH1 0x24 PUSH1 0x0 REVERT JUMPDEST SWAP2 PUSH1 0x7F AND SWAP2 PUSH2 0x470 JUMP JUMPDEST SWAP1 PUSH1 0x40 MLOAD SWAP2 DUP3 PUSH1 0x0 DUP3 SLOAD SWAP3 PUSH2 0x4AF DUP5 PUSH2 0x461 JUMP JUMPDEST SWAP1 DUP2 DUP5 MSTORE PUSH1 0x1 SWAP5 DUP6 DUP2 AND SWAP1 DUP2 PUSH1 0x0 EQ PUSH2 0x51E JUMPI POP PUSH1 0x1 EQ PUSH2 0x4DB JUMPI JUMPDEST POP POP PUSH2 0x4D9 SWAP3 POP SUB DUP4 PUSH2 0x3E0 JUMP JUMPDEST JUMP JUMPDEST SWAP1 SWAP4 SWAP2 POP PUSH1 0x0 MSTORE PUSH1 0x20 SWAP1 DUP2 PUSH1 0x0 KECCAK256 SWAP4 PUSH1 0x0 SWAP2 JUMPDEST DUP2 DUP4 LT PUSH2 0x506 JUMPI POP POP PUSH2 0x4D9 SWAP4 POP DUP3 ADD ADD CODESIZE DUP1 PUSH2 0x4CB JUMP JUMPDEST DUP6 SLOAD DUP9 DUP5 ADD DUP6 ADD MSTORE SWAP5 DUP6 ADD SWAP5 DUP8 SWAP5 POP SWAP2 DUP4 ADD SWAP2 PUSH2 0x4EE JUMP JUMPDEST SWAP2 POP POP PUSH2 0x4D9 SWAP5 POP PUSH1 0x20 SWAP3 POP PUSH1 0xFF NOT AND DUP3 DUP5 ADD MSTORE ISZERO ISZERO PUSH1 0x5 SHL DUP3 ADD ADD CODESIZE DUP1 PUSH2 0x4CB JUMP JUMPDEST ISZERO PUSH2 0x548 JUMPI JUMP JUMPDEST PUSH1 0x40 MLOAD PUSH3 0x461BCD PUSH1 0xE5 SHL DUP2 MSTORE PUSH1 0x20 PUSH1 0x4 DUP3 ADD MSTORE PUSH1 0xB PUSH1 0x24 DUP3 ADD MSTORE PUSH11 0x139BDD0818DC9BDDDB9959 PUSH1 0xAA SHL PUSH1 0x44 DUP3 ADD MSTORE PUSH1 0x64 SWAP1 REVERT INVALID LOG2 PUSH5 0x6970667358 0x22 SLT KECCAK256 0x4D SWAP5 0xAF 0xDB SWAP10 CALLER CREATE 0xD5 BLOCKHASH 0x29 0xB6 SDIV BYTE 0xDD 0xD3 0xB4 PC SWAP3 CALL 0xE9 0xD4 XOR 0xE5 0x2D COINBASE DUP4 PUSH27 0xE0ABFCE5D264736F6C634300081400330000000000000000000000 "},"methodIdentifiers":{"anchor(address,string)":"08c67ce1","anchorEcho(address)":"ac5a63a9","crown(address)":"5dca1607","crowned(address)":"996947ce","echoSentinel(address)":"700663e4"}}}}}