{"contracts/constellation/ConstellationCorridor.sol":{"ConstellationCorridor":{"abi":[{"inputs":[],"stateMutability":"nonpayable","type":"constructor"},{"anonymous":false,"inputs":[{"indexed":true,"internalType":"address","name":"companion","type":"address"},{"indexed":false,"internalType":"string","name":"name","type":"string"},{"indexed":false,"internalType":"uint256","name":"drift","type":"uint256"}],"name":"CompanionMapped","type":"event"},{"inputs":[{"internalType":"address","name":"","type":"address"}],"name":"companions","outputs":[{"internalType":"string","name":"name","type":"string"},{"internalType":"uint256","name":"drift","type":"uint256"}],"stateMutability":"view","type":"function"},{"inputs":[{"internalType":"address","name":"addr","type":"address"}],"name":"getCompanion","outputs":[{"internalType":"string","name":"","type":"string"},{"internalType":"uint256","name":"","type":"uint256"}],"stateMutability":"view","type":"function"},{"inputs":[{"internalType":"address","name":"companion","type":"address"},{"internalType":"string","name":"name","type":"string"},{"internalType":"uint256","name":"drift","type":"uint256"}],"name":"mapCompanion","outputs":[],"stateMutability":"nonpayable","type":"function"},{"inputs":[],"name":"steward","outputs":[{"internalType":"address","name":"","type":"address"}],"stateMutability":"view","type":"function"}],"evm":{"bytecode":{"linkReferences":{},"object":"6080806040523461002857600080546001600160a01b0319163317905561059d908161002e8239f35b600080fdfe6080604052600436101561001257600080fd5b60003560e01c806347854b8714610398578063637eea191461036f57806367a04596146100b35763ef6527371461004857600080fd5b346100ae5760203660031901126100ae576001600160a01b036100696103e5565b1660005260016020526020604060002060405161008581610435565b600161009083610473565b92838352015492839101526100aa60405192839283610519565b0390f35b600080fd5b346100ae5760603660031901126100ae576100cc6103e5565b60243567ffffffffffffffff918282116100ae57366023830112156100ae57828260040135116100ae573660248360040135840101116100ae576000546001600160a01b0391908216330361033c5760405161012781610435565b604051601f1991906101456004870135601f01841660200182610451565b60048601358082526024870160208301376000602087600401358301015281526044356020820152838316600052600160205260406000209080519687519081116103265761019483546103fb565b601f81116102de575b506020601f821160011461024e57606095949392826001936020937fe131c8415b6bbf1446d2c6bf74760b50640e967eaf8dcc01f030a06287cbecdb9b9c600092610243575b5050600019600383901b1c191690841b1784555b0151910155601f6040519485936040855288600401356040860152886004013560248a01878701376000868a6004013587010152604435602086015216966004013501168101030190a2005b015190508c806101e3565b848216988460005260206000209960005b8181106102c65750837fe131c8415b6bbf1446d2c6bf74760b50640e967eaf8dcc01f030a06287cbecdb9a9b60209460609a999897946001978895106102ad575b505050811b0184556101f7565b015160001960f88460031b161c191690558c80806102a0565b838301518c556001909b019a6020938401930161025f565b836000526020600020601f830160051c8101916020841061031c575b601f0160051c01905b818110610310575061019d565b60008155600101610303565b90915081906102fa565b634e487b7160e01b600052604160045260246000fd5b60405162461bcd60e51b815260206004820152600b60248201526a139bdd081cdd195dd85c9960aa1b6044820152606490fd5b346100ae5760003660031901126100ae576000546040516001600160a01b039091168152602090f35b346100ae5760203660031901126100ae576001600160a01b036103b96103e5565b166000526001602052604060002060016103d282610473565b910154906100aa60405192839283610519565b600435906001600160a01b03821682036100ae57565b90600182811c9216801561042b575b602083101461041557565b634e487b7160e01b600052602260045260246000fd5b91607f169161040a565b6040810190811067ffffffffffffffff82111761032657604052565b90601f8019910116810190811067ffffffffffffffff82111761032657604052565b9060405191826000825492610487846103fb565b9081845260019485811690816000146104f657506001146104b3575b50506104b192500383610451565b565b9093915060005260209081600020936000915b8183106104de5750506104b1935082010138806104a3565b855488840185015294850194879450918301916104c6565b9150506104b194506020925060ff191682840152151560051b82010138806104a3565b9291906040845280519081604086015260005b82811061055157505060608160008260209488010152601f8019910116850101930152565b806020809284010151606082890101520161052c56fea2646970667358221220e1d9b72f4f00c106823e51b5cec1233f23fb388459fe33c6041fbe00089d562064736f6c63430008140033","opcodes":"PUSH1 0x80 DUP1 PUSH1 0x40 MSTORE CALLVALUE PUSH2 0x28 JUMPI PUSH1 0x0 DUP1 SLOAD PUSH1 0x1 PUSH1 0x1 PUSH1 0xA0 SHL SUB NOT AND CALLER OR SWAP1 SSTORE PUSH2 0x59D SWAP1 DUP2 PUSH2 0x2E DUP3 CODECOPY RETURN JUMPDEST PUSH1 0x0 DUP1 REVERT INVALID PUSH1 0x80 PUSH1 0x40 MSTORE PUSH1 0x4 CALLDATASIZE LT ISZERO PUSH2 0x12 JUMPI PUSH1 0x0 DUP1 REVERT JUMPDEST PUSH1 0x0 CALLDATALOAD PUSH1 0xE0 SHR DUP1 PUSH4 0x47854B87 EQ PUSH2 0x398 JUMPI DUP1 PUSH4 0x637EEA19 EQ PUSH2 0x36F JUMPI DUP1 PUSH4 0x67A04596 EQ PUSH2 0xB3 JUMPI PUSH4 0xEF652737 EQ PUSH2 0x48 JUMPI PUSH1 0x0 DUP1 REVERT JUMPDEST CALLVALUE PUSH2 0xAE JUMPI PUSH1 0x20 CALLDATASIZE PUSH1 0x3 NOT ADD SLT PUSH2 0xAE JUMPI PUSH1 0x1 PUSH1 0x1 PUSH1 0xA0 SHL SUB PUSH2 0x69 PUSH2 0x3E5 JUMP JUMPDEST AND PUSH1 0x0 MSTORE PUSH1 0x1 PUSH1 0x20 MSTORE PUSH1 0x20 PUSH1 0x40 PUSH1 0x0 KECCAK256 PUSH1 0x40 MLOAD PUSH2 0x85 DUP2 PUSH2 0x435 JUMP JUMPDEST PUSH1 0x1 PUSH2 0x90 DUP4 PUSH2 0x473 JUMP JUMPDEST SWAP3 DUP4 DUP4 MSTORE ADD SLOAD SWAP3 DUP4 SWAP2 ADD MSTORE PUSH2 0xAA PUSH1 0x40 MLOAD SWAP3 DUP4 SWAP3 DUP4 PUSH2 0x519 JUMP JUMPDEST SUB SWAP1 RETURN JUMPDEST PUSH1 0x0 DUP1 REVERT JUMPDEST CALLVALUE PUSH2 0xAE JUMPI PUSH1 0x60 CALLDATASIZE PUSH1 0x3 NOT ADD SLT PUSH2 0xAE JUMPI PUSH2 0xCC PUSH2 0x3E5 JUMP JUMPDEST PUSH1 0x24 CALLDATALOAD PUSH8 0xFFFFFFFFFFFFFFFF SWAP2 DUP3 DUP3 GT PUSH2 0xAE JUMPI CALLDATASIZE PUSH1 0x23 DUP4 ADD SLT ISZERO PUSH2 0xAE JUMPI DUP3 DUP3 PUSH1 0x4 ADD CALLDATALOAD GT PUSH2 0xAE JUMPI CALLDATASIZE PUSH1 0x24 DUP4 PUSH1 0x4 ADD CALLDATALOAD DUP5 ADD ADD GT PUSH2 0xAE JUMPI PUSH1 0x0 SLOAD PUSH1 0x1 PUSH1 0x1 PUSH1 0xA0 SHL SUB SWAP2 SWAP1 DUP3 AND CALLER SUB PUSH2 0x33C JUMPI PUSH1 0x40 MLOAD PUSH2 0x127 DUP2 PUSH2 0x435 JUMP JUMPDEST PUSH1 0x40 MLOAD PUSH1 0x1F NOT SWAP2 SWAP1 PUSH2 0x145 PUSH1 0x4 DUP8 ADD CALLDATALOAD PUSH1 0x1F ADD DUP5 AND PUSH1 0x20 ADD DUP3 PUSH2 0x451 JUMP JUMPDEST PUSH1 0x4 DUP7 ADD CALLDATALOAD DUP1 DUP3 MSTORE PUSH1 0x24 DUP8 ADD PUSH1 0x20 DUP4 ADD CALLDATACOPY PUSH1 0x0 PUSH1 0x20 DUP8 PUSH1 0x4 ADD CALLDATALOAD DUP4 ADD ADD MSTORE DUP2 MSTORE PUSH1 0x44 CALLDATALOAD PUSH1 0x20 DUP3 ADD MSTORE DUP4 DUP4 AND PUSH1 0x0 MSTORE PUSH1 0x1 PUSH1 0x20 MSTORE PUSH1 0x40 PUSH1 0x0 KECCAK256 SWAP1 DUP1 MLOAD SWAP7 DUP8 MLOAD SWAP1 DUP2 GT PUSH2 0x326 JUMPI PUSH2 0x194 DUP4 SLOAD PUSH2 0x3FB JUMP JUMPDEST PUSH1 0x1F DUP2 GT PUSH2 0x2DE JUMPI JUMPDEST POP PUSH1 0x20 PUSH1 0x1F DUP3 GT PUSH1 0x1 EQ PUSH2 0x24E JUMPI PUSH1 0x60 SWAP6 SWAP5 SWAP4 SWAP3 DUP3 PUSH1 0x1 SWAP4 PUSH1 0x20 SWAP4 PUSH32 0xE131C8415B6BBF1446D2C6BF74760B50640E967EAF8DCC01F030A06287CBECDB SWAP12 SWAP13 PUSH1 0x0 SWAP3 PUSH2 0x243 JUMPI JUMPDEST POP POP PUSH1 0x0 NOT PUSH1 0x3 DUP4 SWAP1 SHL SHR NOT AND SWAP1 DUP5 SHL OR DUP5 SSTORE JUMPDEST ADD MLOAD SWAP2 ADD SSTORE PUSH1 0x1F PUSH1 0x40 MLOAD SWAP5 DUP6 SWAP4 PUSH1 0x40 DUP6 MSTORE DUP9 PUSH1 0x4 ADD CALLDATALOAD PUSH1 0x40 DUP7 ADD MSTORE DUP9 PUSH1 0x4 ADD CALLDATALOAD PUSH1 0x24 DUP11 ADD DUP8 DUP8 ADD CALLDATACOPY PUSH1 0x0 DUP7 DUP11 PUSH1 0x4 ADD CALLDATALOAD DUP8 ADD ADD MSTORE PUSH1 0x44 CALLDATALOAD PUSH1 0x20 DUP7 ADD MSTORE AND SWAP7 PUSH1 0x4 ADD CALLDATALOAD ADD AND DUP2 ADD SUB ADD SWAP1 LOG2 STOP JUMPDEST ADD MLOAD SWAP1 POP DUP13 DUP1 PUSH2 0x1E3 JUMP JUMPDEST DUP5 DUP3 AND SWAP9 DUP5 PUSH1 0x0 MSTORE PUSH1 0x20 PUSH1 0x0 KECCAK256 SWAP10 PUSH1 0x0 JUMPDEST DUP2 DUP2 LT PUSH2 0x2C6 JUMPI POP DUP4 PUSH32 0xE131C8415B6BBF1446D2C6BF74760B50640E967EAF8DCC01F030A06287CBECDB SWAP11 SWAP12 PUSH1 0x20 SWAP5 PUSH1 0x60 SWAP11 SWAP10 SWAP9 SWAP8 SWAP5 PUSH1 0x1 SWAP8 DUP9 SWAP6 LT PUSH2 0x2AD JUMPI JUMPDEST POP POP POP DUP2 SHL ADD DUP5 SSTORE PUSH2 0x1F7 JUMP JUMPDEST ADD MLOAD PUSH1 0x0 NOT PUSH1 0xF8 DUP5 PUSH1 0x3 SHL AND SHR NOT AND SWAP1 SSTORE DUP13 DUP1 DUP1 PUSH2 0x2A0 JUMP JUMPDEST DUP4 DUP4 ADD MLOAD DUP13 SSTORE PUSH1 0x1 SWAP1 SWAP12 ADD SWAP11 PUSH1 0x20 SWAP4 DUP5 ADD SWAP4 ADD PUSH2 0x25F JUMP JUMPDEST DUP4 PUSH1 0x0 MSTORE PUSH1 0x20 PUSH1 0x0 KECCAK256 PUSH1 0x1F DUP4 ADD PUSH1 0x5 SHR DUP2 ADD SWAP2 PUSH1 0x20 DUP5 LT PUSH2 0x31C JUMPI JUMPDEST PUSH1 0x1F ADD PUSH1 0x5 SHR ADD SWAP1 JUMPDEST DUP2 DUP2 LT PUSH2 0x310 JUMPI POP PUSH2 0x19D JUMP JUMPDEST PUSH1 0x0 DUP2 SSTORE PUSH1 0x1 ADD PUSH2 0x303 JUMP JUMPDEST SWAP1 SWAP2 POP DUP2 SWAP1 PUSH2 0x2FA JUMP JUMPDEST PUSH4 0x4E487B71 PUSH1 0xE0 SHL PUSH1 0x0 MSTORE PUSH1 0x41 PUSH1 0x4 MSTORE PUSH1 0x24 PUSH1 0x0 REVERT JUMPDEST PUSH1 0x40 MLOAD PUSH3 0x461BCD PUSH1 0xE5 SHL DUP2 MSTORE PUSH1 0x20 PUSH1 0x4 DUP3 ADD MSTORE PUSH1 0xB PUSH1 0x24 DUP3 ADD MSTORE PUSH11 0x139BDD081CDD195DD85C99 PUSH1 0xAA SHL PUSH1 0x44 DUP3 ADD MSTORE PUSH1 0x64 SWAP1 REVERT JUMPDEST CALLVALUE PUSH2 0xAE JUMPI PUSH1 0x0 CALLDATASIZE PUSH1 0x3 NOT ADD SLT PUSH2 0xAE JUMPI PUSH1 0x0 SLOAD PUSH1 0x40 MLOAD PUSH1 0x1 PUSH1 0x1 PUSH1 0xA0 SHL SUB SWAP1 SWAP2 AND DUP2 MSTORE PUSH1 0x20 SWAP1 RETURN JUMPDEST CALLVALUE PUSH2 0xAE JUMPI PUSH1 0x20 CALLDATASIZE PUSH1 0x3 NOT ADD SLT PUSH2 0xAE JUMPI PUSH1 0x1 PUSH1 0x1 PUSH1 0xA0 SHL SUB PUSH2 0x3B9 PUSH2 0x3E5 JUMP JUMPDEST AND PUSH1 0x0 MSTORE PUSH1 0x1 PUSH1 0x20 MSTORE PUSH1 0x40 PUSH1 0x0 KECCAK256 PUSH1 0x1 PUSH2 0x3D2 DUP3 PUSH2 0x473 JUMP JUMPDEST SWAP2 ADD SLOAD SWAP1 PUSH2 0xAA PUSH1 0x40 MLOAD SWAP3 DUP4 SWAP3 DUP4 PUSH2 0x519 JUMP JUMPDEST PUSH1 0x4 CALLDATALOAD SWAP1 PUSH1 0x1 PUSH1 0x1 PUSH1 0xA0 SHL SUB DUP3 AND DUP3 SUB PUSH2 0xAE JUMPI JUMP JUMPDEST SWAP1 PUSH1 0x1 DUP3 DUP2 SHR SWAP3 AND DUP1 ISZERO PUSH2 0x42B JUMPI JUMPDEST PUSH1 0x20 DUP4 LT EQ PUSH2 0x415 JUMPI JUMP JUMPDEST PUSH4 0x4E487B71 PUSH1 0xE0 SHL PUSH1 0x0 MSTORE PUSH1 0x22 PUSH1 0x4 MSTORE PUSH1 0x24 PUSH1 0x0 REVERT JUMPDEST SWAP2 PUSH1 0x7F AND SWAP2 PUSH2 0x40A JUMP JUMPDEST PUSH1 0x40 DUP2 ADD SWAP1 DUP2 LT PUSH8 0xFFFFFFFFFFFFFFFF DUP3 GT OR PUSH2 0x326 JUMPI PUSH1 0x40 MSTORE JUMP JUMPDEST SWAP1 PUSH1 0x1F DUP1 NOT SWAP2 ADD AND DUP2 ADD SWAP1 DUP2 LT PUSH8 0xFFFFFFFFFFFFFFFF DUP3 GT OR PUSH2 0x326 JUMPI PUSH1 0x40 MSTORE JUMP JUMPDEST SWAP1 PUSH1 0x40 MLOAD SWAP2 DUP3 PUSH1 0x0 DUP3 SLOAD SWAP3 PUSH2 0x487 DUP5 PUSH2 0x3FB JUMP JUMPDEST SWAP1 DUP2 DUP5 MSTORE PUSH1 0x1 SWAP5 DUP6 DUP2 AND SWAP1 DUP2 PUSH1 0x0 EQ PUSH2 0x4F6 JUMPI POP PUSH1 0x1 EQ PUSH2 0x4B3 JUMPI JUMPDEST POP POP PUSH2 0x4B1 SWAP3 POP SUB DUP4 PUSH2 0x451 JUMP JUMPDEST JUMP JUMPDEST SWAP1 SWAP4 SWAP2 POP PUSH1 0x0 MSTORE PUSH1 0x20 SWAP1 DUP2 PUSH1 0x0 KECCAK256 SWAP4 PUSH1 0x0 SWAP2 JUMPDEST DUP2 DUP4 LT PUSH2 0x4DE JUMPI POP POP PUSH2 0x4B1 SWAP4 POP DUP3 ADD ADD CODESIZE DUP1 PUSH2 0x4A3 JUMP JUMPDEST DUP6 SLOAD DUP9 DUP5 ADD DUP6 ADD MSTORE SWAP5 DUP6 ADD SWAP5 DUP8 SWAP5 POP SWAP2 DUP4 ADD SWAP2 PUSH2 0x4C6 JUMP JUMPDEST SWAP2 POP POP PUSH2 0x4B1 SWAP5 POP PUSH1 0x20 SWAP3 POP PUSH1 0xFF NOT AND DUP3 DUP5 ADD MSTORE ISZERO ISZERO PUSH1 0x5 SHL DUP3 ADD ADD CODESIZE DUP1 PUSH2 0x4A3 JUMP JUMPDEST SWAP3 SWAP2 SWAP1 PUSH1 0x40 DUP5 MSTORE DUP1 MLOAD SWAP1 DUP2 PUSH1 0x40 DUP7 ADD MSTORE PUSH1 0x0 JUMPDEST DUP3 DUP2 LT PUSH2 0x551 JUMPI POP POP PUSH1 0x60 DUP2 PUSH1 0x0 DUP3 PUSH1 0x20 SWAP5 DUP9 ADD ADD MSTORE PUSH1 0x1F DUP1 NOT SWAP2 ADD AND DUP6 ADD ADD SWAP4 ADD MSTORE JUMP JUMPDEST DUP1 PUSH1 0x20 DUP1 SWAP3 DUP5 ADD ADD MLOAD PUSH1 0x60 DUP3 DUP10 ADD ADD MSTORE ADD PUSH2 0x52C JUMP INVALID LOG2 PUSH5 0x6970667358 0x22 SLT KECCAK256 0xE1 0xD9 0xB7 0x2F 0x4F STOP 0xC1 MOD DUP3 RETURNDATACOPY MLOAD 0xB5 0xCE 0xC1 0x23 EXTCODEHASH 0x23 0xFB CODESIZE DUP5 MSIZE INVALID CALLER 0xC6 DIV 0x1F 0xBE STOP ADDMOD SWAP14 JUMP KECCAK256 PUSH5 0x736F6C6343 STOP ADDMOD EQ STOP CALLER "},"methodIdentifiers":{"companions(address)":"47854b87","getCompanion(address)":"ef652737","mapCompanion(address,string,uint256)":"67a04596","steward()":"637eea19"}}}}}