{"contracts/codex/SpiralboundCodexV3.sol":{"SpiralboundCodexV3":{"abi":[{"inputs":[],"stateMutability":"nonpayable","type":"constructor"},{"anonymous":false,"inputs":[{"indexed":false,"internalType":"string","name":"glyph","type":"string"},{"indexed":false,"internalType":"string","name":"tag","type":"string"},{"indexed":false,"internalType":"string","name":"binding","type":"string"},{"indexed":false,"internalType":"string","name":"annotation","type":"string"},{"indexed":false,"internalType":"string","name":"lineage","type":"string"}],"name":"CodexInscribed","type":"event"},{"inputs":[{"internalType":"string","name":"","type":"string"}],"name":"codices","outputs":[{"internalType":"string","name":"glyph","type":"string"},{"internalType":"string","name":"tag","type":"string"},{"internalType":"string","name":"binding","type":"string"},{"internalType":"string","name":"annotation","type":"string"},{"internalType":"string","name":"lineage","type":"string"}],"stateMutability":"view","type":"function"},{"inputs":[{"internalType":"string","name":"glyph","type":"string"}],"name":"getCodex","outputs":[{"internalType":"string","name":"","type":"string"},{"internalType":"string","name":"","type":"string"},{"internalType":"string","name":"","type":"string"},{"internalType":"string","name":"","type":"string"}],"stateMutability":"view","type":"function"},{"inputs":[{"internalType":"string","name":"glyph","type":"string"},{"internalType":"string","name":"tag","type":"string"},{"internalType":"string","name":"binding","type":"string"},{"internalType":"string","name":"annotation","type":"string"},{"internalType":"string","name":"lineage","type":"string"}],"name":"inscribeCodex","outputs":[],"stateMutability":"nonpayable","type":"function"},{"inputs":[{"internalType":"uint256","name":"","type":"uint256"}],"name":"keys","outputs":[{"internalType":"string","name":"","type":"string"}],"stateMutability":"view","type":"function"},{"inputs":[],"name":"steward","outputs":[{"internalType":"address","name":"","type":"address"}],"stateMutability":"view","type":"function"},{"inputs":[],"name":"totalCodices","outputs":[{"internalType":"uint256","name":"","type":"uint256"}],"stateMutability":"view","type":"function"}],"evm":{"bytecode":{"linkReferences":{},"object":"6080806040523461002857600080546001600160a01b03191633179055610cf1908161002e8239f35b600080fdfe6080604052600436101561001257600080fd5b60003560e01c80630cb6aaf1146109d7578063637eea19146109ae5780636f8ec8a51461027b578063833615221461017f578063c212d16b146101615763dbc214241461005e57600080fd5b3461015c57602036600319011261015c576004356001600160401b03811161015c573660238201121561015c576100ba60206100a7610120933690602481600401359101610c00565b8160405193828580945193849201610b8b565b810160018152030190206101586100d082610ae5565b9161014a6100e060018301610ae5565b9161013c6100f060028301610ae5565b61012e61010b600461010460038701610ae5565b9501610ae5565b95604051998a9960a08b5260a08b0190610bae565b9089820360208b0152610bae565b908782036040890152610bae565b908582036060870152610bae565b908382036080850152610bae565b0390f35b600080fd5b3461015c57600036600319011261015c576020600254604051908152f35b3461015c57602036600319011261015c576004356001600160401b03811161015c5760206101b4610251923690600401610bd3565b919082604051938492833781016001815203019020610158608061026d604051936101de85610aa9565b6101e781610ae5565b855261025f6101f860018301610ae5565b6020870190815261020b60028401610ae5565b9660408101978852610232600461022460038701610ae5565b956060840196875201610ae5565b9586910152519551915191604051978897608089526080890190610bae565b908782036020890152610bae565b908582036040870152610bae565b908382036060850152610bae565b3461015c5760a036600319011261015c576004356001600160401b03811161015c576102ab903690600401610bd3565b6024356001600160401b03811161015c576102ca903690600401610bd3565b906044356001600160401b03811161015c576102ea903690600401610bd3565b906064356001600160401b03811161015c5761030a903690600401610bd3565b9190926084356001600160401b03811161015c5761032c903690600401610bd3565b60005491979096916001600160a01b0316330361097b5760405161034f81610aa9565b61035a368b8d610c00565b8152610367368385610c00565b6020820152610377368587610c00565b6040820152610387368789610c00565b606082015261039736898b610c00565b60808201526040518a8c82376020818c810160018152030190209080518051906001600160401b0382116106ef5781906103db826103d58754610a6f565b87610c46565b602090601f831160011461090f57600092610904575b50508160011b916000199060031b1c19161782555b60208101518051906001600160401b0382116106ef5781906104388261042f6001880154610a6f565b60018801610c46565b602090601f831160011461089257600092610887575b50508160011b916000199060031b1c19161760018301555b60408101518051906001600160401b0382116106ef5781906104988261048f6002880154610a6f565b60028801610c46565b602090601f83116001146108155760009261080a575b50508160011b916000199060031b1c19161760028301555b60608101518051906001600160401b0382116106ef576104f6826104ed6003870154610a6f565b60038701610c46565b602090601f83116001146107975760809392916000918361078c575b50508160011b916000199060031b1c19161760038401555b0151908151906001600160401b0382116106ef57600482910192610558826105528654610a6f565b86610c46565b602090601f83116001146107265760009261071b575b50508160011b916000199060031b1c19161790555b600254680100000000000000008110156106ef578060016105a79201600255610a22565b610705576001600160401b038a116106ef576105cd8a6105c78354610a6f565b83610c46565b896000601f82116001146106885760009161067d575b508a60011b906000198c60031b1c19161790555b604051998a9960a08b5260a08b019061060f92610c9a565b9089820360208b015261062192610c9a565b90878203604089015261063392610c9a565b90858203606087015261064592610c9a565b90838203608085015261065792610c9a565b037fc06180986fe1548e0c984aa95aea00ef17dda51943c43ea81e206a63bc02a3eb91a1005b90508b01358c6105e3565b60008381526020812092505b8d601f198e1682106106d75750508b601f198116106106bd575b505060018a811b0190556105f7565b8c013560001960038d901b60f8161c191690558b806106ae565b60018394602093948493013581550193019101610694565b634e487b7160e01b600052604160045260246000fd5b634e487b7160e01b600052600060045260246000fd5b015190508d8061056e565b6000858152602081209350601f198516905b818110610774575090846001959493921061075b575b505050811b019055610583565b015160001960f88460031b161c191690558d808061074e565b92936020600181928786015181550195019301610738565b015190508f80610512565b906003850160005260206000209160005b601f19851681106107f2575091839160019360809695601f198116106107d9575b505050811b01600384015561052a565b015160001960f88460031b161c191690558f80806107c9565b919260206001819286850151815501940192016107a8565b015190508e806104ae565b9250600285016000526020600020906000935b601f198416851061086c576001945083601f19811610610853575b505050811b0160028301556104c6565b015160001960f88460031b161c191690558e8080610843565b81810151835560209485019460019093019290910190610828565b015190508e8061044e565b9250600185016000526020600020906000935b601f19841685106108e9576001945083601f198116106108d0575b505050811b016001830155610466565b015160001960f88460031b161c191690558e80806108c0565b818101518355602094850194600190930192909101906108a5565b015190508e806103f1565b9250846000526020600020906000935b601f1984168510610960576001945083601f19811610610947575b505050811b018255610406565b015160001960f88460031b161c191690558e808061093a565b8181015183556020948501946001909301929091019061091f565b60405162461bcd60e51b815260206004820152600b60248201526a139bdd081cdd195dd85c9960aa1b6044820152606490fd5b3461015c57600036600319011261015c576000546040516001600160a01b039091168152602090f35b3461015c57602036600319011261015c5760043560025481101561015c576109fe90610a22565b61070557610a0e61015891610ae5565b604051918291602083526020830190610bae565b600254811015610a595760026000527f405787fa12a823e0f2b7631cc41b3ba8828b3321ca811111fa75cd3aa3bb5ace0190600090565b634e487b7160e01b600052603260045260246000fd5b90600182811c92168015610a9f575b6020831014610a8957565b634e487b7160e01b600052602260045260246000fd5b91607f1691610a7e565b60a081019081106001600160401b038211176106ef57604052565b90601f801991011681019081106001600160401b038211176106ef57604052565b9060405191826000825492610af984610a6f565b908184526001948581169081600014610b685750600114610b25575b5050610b2392500383610ac4565b565b9093915060005260209081600020936000915b818310610b50575050610b2393508201013880610b15565b85548884018501529485019487945091830191610b38565b915050610b2394506020925060ff191682840152151560051b8201013880610b15565b60005b838110610b9e5750506000910152565b8181015183820152602001610b8e565b90602091610bc781518092818552858086019101610b8b565b601f01601f1916010190565b9181601f8401121561015c578235916001600160401b03831161015c576020838186019501011161015c57565b9291926001600160401b0382116106ef5760405191610c29601f8201601f191660200184610ac4565b82948184528183011161015c578281602093846000960137010152565b90601f8111610c5457505050565b600091825260208220906020601f850160051c83019410610c90575b601f0160051c01915b828110610c8557505050565b818155600101610c79565b9092508290610c70565b908060209392818452848401376000828201840152601f01601f191601019056fea26469706673582212203fbad5da31709231ccb5a196d8421d8b86c10b6ffed26557afbae179fa278aa264736f6c63430008140033","opcodes":"PUSH1 0x80 DUP1 PUSH1 0x40 MSTORE CALLVALUE PUSH2 0x28 JUMPI PUSH1 0x0 DUP1 SLOAD PUSH1 0x1 PUSH1 0x1 PUSH1 0xA0 SHL SUB NOT AND CALLER OR SWAP1 SSTORE PUSH2 0xCF1 SWAP1 DUP2 PUSH2 0x2E DUP3 CODECOPY RETURN JUMPDEST PUSH1 0x0 DUP1 REVERT INVALID PUSH1 0x80 PUSH1 0x40 MSTORE PUSH1 0x4 CALLDATASIZE LT ISZERO PUSH2 0x12 JUMPI PUSH1 0x0 DUP1 REVERT JUMPDEST PUSH1 0x0 CALLDATALOAD PUSH1 0xE0 SHR DUP1 PUSH4 0xCB6AAF1 EQ PUSH2 0x9D7 JUMPI DUP1 PUSH4 0x637EEA19 EQ PUSH2 0x9AE JUMPI DUP1 PUSH4 0x6F8EC8A5 EQ PUSH2 0x27B JUMPI DUP1 PUSH4 0x83361522 EQ PUSH2 0x17F JUMPI DUP1 PUSH4 0xC212D16B EQ PUSH2 0x161 JUMPI PUSH4 0xDBC21424 EQ PUSH2 0x5E JUMPI PUSH1 0x0 DUP1 REVERT JUMPDEST CALLVALUE PUSH2 0x15C JUMPI PUSH1 0x20 CALLDATASIZE PUSH1 0x3 NOT ADD SLT PUSH2 0x15C JUMPI PUSH1 0x4 CALLDATALOAD PUSH1 0x1 PUSH1 0x1 PUSH1 0x40 SHL SUB DUP2 GT PUSH2 0x15C JUMPI CALLDATASIZE PUSH1 0x23 DUP3 ADD SLT ISZERO PUSH2 0x15C JUMPI PUSH2 0xBA PUSH1 0x20 PUSH2 0xA7 PUSH2 0x120 SWAP4 CALLDATASIZE SWAP1 PUSH1 0x24 DUP2 PUSH1 0x4 ADD CALLDATALOAD SWAP2 ADD PUSH2 0xC00 JUMP JUMPDEST DUP2 PUSH1 0x40 MLOAD SWAP4 DUP3 DUP6 DUP1 SWAP5 MLOAD SWAP4 DUP5 SWAP3 ADD PUSH2 0xB8B JUMP JUMPDEST DUP2 ADD PUSH1 0x1 DUP2 MSTORE SUB ADD SWAP1 KECCAK256 PUSH2 0x158 PUSH2 0xD0 DUP3 PUSH2 0xAE5 JUMP JUMPDEST SWAP2 PUSH2 0x14A PUSH2 0xE0 PUSH1 0x1 DUP4 ADD PUSH2 0xAE5 JUMP JUMPDEST SWAP2 PUSH2 0x13C PUSH2 0xF0 PUSH1 0x2 DUP4 ADD PUSH2 0xAE5 JUMP JUMPDEST PUSH2 0x12E PUSH2 0x10B PUSH1 0x4 PUSH2 0x104 PUSH1 0x3 DUP8 ADD PUSH2 0xAE5 JUMP JUMPDEST SWAP6 ADD PUSH2 0xAE5 JUMP JUMPDEST SWAP6 PUSH1 0x40 MLOAD SWAP10 DUP11 SWAP10 PUSH1 0xA0 DUP12 MSTORE PUSH1 0xA0 DUP12 ADD SWAP1 PUSH2 0xBAE JUMP JUMPDEST SWAP1 DUP10 DUP3 SUB PUSH1 0x20 DUP12 ADD MSTORE PUSH2 0xBAE JUMP JUMPDEST SWAP1 DUP8 DUP3 SUB PUSH1 0x40 DUP10 ADD MSTORE PUSH2 0xBAE JUMP JUMPDEST SWAP1 DUP6 DUP3 SUB PUSH1 0x60 DUP8 ADD MSTORE PUSH2 0xBAE JUMP JUMPDEST SWAP1 DUP4 DUP3 SUB PUSH1 0x80 DUP6 ADD MSTORE PUSH2 0xBAE JUMP JUMPDEST SUB SWAP1 RETURN JUMPDEST PUSH1 0x0 DUP1 REVERT JUMPDEST CALLVALUE PUSH2 0x15C JUMPI PUSH1 0x0 CALLDATASIZE PUSH1 0x3 NOT ADD SLT PUSH2 0x15C JUMPI PUSH1 0x20 PUSH1 0x2 SLOAD PUSH1 0x40 MLOAD SWAP1 DUP2 MSTORE RETURN JUMPDEST CALLVALUE PUSH2 0x15C JUMPI PUSH1 0x20 CALLDATASIZE PUSH1 0x3 NOT ADD SLT PUSH2 0x15C JUMPI PUSH1 0x4 CALLDATALOAD PUSH1 0x1 PUSH1 0x1 PUSH1 0x40 SHL SUB DUP2 GT PUSH2 0x15C JUMPI PUSH1 0x20 PUSH2 0x1B4 PUSH2 0x251 SWAP3 CALLDATASIZE SWAP1 PUSH1 0x4 ADD PUSH2 0xBD3 JUMP JUMPDEST SWAP2 SWAP1 DUP3 PUSH1 0x40 MLOAD SWAP4 DUP5 SWAP3 DUP4 CALLDATACOPY DUP2 ADD PUSH1 0x1 DUP2 MSTORE SUB ADD SWAP1 KECCAK256 PUSH2 0x158 PUSH1 0x80 PUSH2 0x26D PUSH1 0x40 MLOAD SWAP4 PUSH2 0x1DE DUP6 PUSH2 0xAA9 JUMP JUMPDEST PUSH2 0x1E7 DUP2 PUSH2 0xAE5 JUMP JUMPDEST DUP6 MSTORE PUSH2 0x25F PUSH2 0x1F8 PUSH1 0x1 DUP4 ADD PUSH2 0xAE5 JUMP JUMPDEST PUSH1 0x20 DUP8 ADD SWAP1 DUP2 MSTORE PUSH2 0x20B PUSH1 0x2 DUP5 ADD PUSH2 0xAE5 JUMP JUMPDEST SWAP7 PUSH1 0x40 DUP2 ADD SWAP8 DUP9 MSTORE PUSH2 0x232 PUSH1 0x4 PUSH2 0x224 PUSH1 0x3 DUP8 ADD PUSH2 0xAE5 JUMP JUMPDEST SWAP6 PUSH1 0x60 DUP5 ADD SWAP7 DUP8 MSTORE ADD PUSH2 0xAE5 JUMP JUMPDEST SWAP6 DUP7 SWAP2 ADD MSTORE MLOAD SWAP6 MLOAD SWAP2 MLOAD SWAP2 PUSH1 0x40 MLOAD SWAP8 DUP9 SWAP8 PUSH1 0x80 DUP10 MSTORE PUSH1 0x80 DUP10 ADD SWAP1 PUSH2 0xBAE JUMP JUMPDEST SWAP1 DUP8 DUP3 SUB PUSH1 0x20 DUP10 ADD MSTORE PUSH2 0xBAE JUMP JUMPDEST SWAP1 DUP6 DUP3 SUB PUSH1 0x40 DUP8 ADD MSTORE PUSH2 0xBAE JUMP JUMPDEST SWAP1 DUP4 DUP3 SUB PUSH1 0x60 DUP6 ADD MSTORE PUSH2 0xBAE JUMP JUMPDEST CALLVALUE PUSH2 0x15C JUMPI PUSH1 0xA0 CALLDATASIZE PUSH1 0x3 NOT ADD SLT PUSH2 0x15C JUMPI PUSH1 0x4 CALLDATALOAD PUSH1 0x1 PUSH1 0x1 PUSH1 0x40 SHL SUB DUP2 GT PUSH2 0x15C JUMPI PUSH2 0x2AB SWAP1 CALLDATASIZE SWAP1 PUSH1 0x4 ADD PUSH2 0xBD3 JUMP JUMPDEST PUSH1 0x24 CALLDATALOAD PUSH1 0x1 PUSH1 0x1 PUSH1 0x40 SHL SUB DUP2 GT PUSH2 0x15C JUMPI PUSH2 0x2CA SWAP1 CALLDATASIZE SWAP1 PUSH1 0x4 ADD PUSH2 0xBD3 JUMP JUMPDEST SWAP1 PUSH1 0x44 CALLDATALOAD PUSH1 0x1 PUSH1 0x1 PUSH1 0x40 SHL SUB DUP2 GT PUSH2 0x15C JUMPI PUSH2 0x2EA SWAP1 CALLDATASIZE SWAP1 PUSH1 0x4 ADD PUSH2 0xBD3 JUMP JUMPDEST SWAP1 PUSH1 0x64 CALLDATALOAD PUSH1 0x1 PUSH1 0x1 PUSH1 0x40 SHL SUB DUP2 GT PUSH2 0x15C JUMPI PUSH2 0x30A SWAP1 CALLDATASIZE SWAP1 PUSH1 0x4 ADD PUSH2 0xBD3 JUMP JUMPDEST SWAP2 SWAP1 SWAP3 PUSH1 0x84 CALLDATALOAD PUSH1 0x1 PUSH1 0x1 PUSH1 0x40 SHL SUB DUP2 GT PUSH2 0x15C JUMPI PUSH2 0x32C SWAP1 CALLDATASIZE SWAP1 PUSH1 0x4 ADD PUSH2 0xBD3 JUMP JUMPDEST PUSH1 0x0 SLOAD SWAP2 SWAP8 SWAP1 SWAP7 SWAP2 PUSH1 0x1 PUSH1 0x1 PUSH1 0xA0 SHL SUB AND CALLER SUB PUSH2 0x97B JUMPI PUSH1 0x40 MLOAD PUSH2 0x34F DUP2 PUSH2 0xAA9 JUMP JUMPDEST PUSH2 0x35A CALLDATASIZE DUP12 DUP14 PUSH2 0xC00 JUMP JUMPDEST DUP2 MSTORE PUSH2 0x367 CALLDATASIZE DUP4 DUP6 PUSH2 0xC00 JUMP JUMPDEST PUSH1 0x20 DUP3 ADD MSTORE PUSH2 0x377 CALLDATASIZE DUP6 DUP8 PUSH2 0xC00 JUMP JUMPDEST PUSH1 0x40 DUP3 ADD MSTORE PUSH2 0x387 CALLDATASIZE DUP8 DUP10 PUSH2 0xC00 JUMP JUMPDEST PUSH1 0x60 DUP3 ADD MSTORE PUSH2 0x397 CALLDATASIZE DUP10 DUP12 PUSH2 0xC00 JUMP JUMPDEST PUSH1 0x80 DUP3 ADD MSTORE PUSH1 0x40 MLOAD DUP11 DUP13 DUP3 CALLDATACOPY PUSH1 0x20 DUP2 DUP13 DUP2 ADD PUSH1 0x1 DUP2 MSTORE SUB ADD SWAP1 KECCAK256 SWAP1 DUP1 MLOAD DUP1 MLOAD SWAP1 PUSH1 0x1 PUSH1 0x1 PUSH1 0x40 SHL SUB DUP3 GT PUSH2 0x6EF JUMPI DUP2 SWAP1 PUSH2 0x3DB DUP3 PUSH2 0x3D5 DUP8 SLOAD PUSH2 0xA6F JUMP JUMPDEST DUP8 PUSH2 0xC46 JUMP JUMPDEST PUSH1 0x20 SWAP1 PUSH1 0x1F DUP4 GT PUSH1 0x1 EQ PUSH2 0x90F JUMPI PUSH1 0x0 SWAP3 PUSH2 0x904 JUMPI JUMPDEST POP POP DUP2 PUSH1 0x1 SHL SWAP2 PUSH1 0x0 NOT SWAP1 PUSH1 0x3 SHL SHR NOT AND OR DUP3 SSTORE JUMPDEST PUSH1 0x20 DUP2 ADD MLOAD DUP1 MLOAD SWAP1 PUSH1 0x1 PUSH1 0x1 PUSH1 0x40 SHL SUB DUP3 GT PUSH2 0x6EF JUMPI DUP2 SWAP1 PUSH2 0x438 DUP3 PUSH2 0x42F PUSH1 0x1 DUP9 ADD SLOAD PUSH2 0xA6F JUMP JUMPDEST PUSH1 0x1 DUP9 ADD PUSH2 0xC46 JUMP JUMPDEST PUSH1 0x20 SWAP1 PUSH1 0x1F DUP4 GT PUSH1 0x1 EQ PUSH2 0x892 JUMPI PUSH1 0x0 SWAP3 PUSH2 0x887 JUMPI JUMPDEST POP POP DUP2 PUSH1 0x1 SHL SWAP2 PUSH1 0x0 NOT SWAP1 PUSH1 0x3 SHL SHR NOT AND OR PUSH1 0x1 DUP4 ADD SSTORE JUMPDEST PUSH1 0x40 DUP2 ADD MLOAD DUP1 MLOAD SWAP1 PUSH1 0x1 PUSH1 0x1 PUSH1 0x40 SHL SUB DUP3 GT PUSH2 0x6EF JUMPI DUP2 SWAP1 PUSH2 0x498 DUP3 PUSH2 0x48F PUSH1 0x2 DUP9 ADD SLOAD PUSH2 0xA6F JUMP JUMPDEST PUSH1 0x2 DUP9 ADD PUSH2 0xC46 JUMP JUMPDEST PUSH1 0x20 SWAP1 PUSH1 0x1F DUP4 GT PUSH1 0x1 EQ PUSH2 0x815 JUMPI PUSH1 0x0 SWAP3 PUSH2 0x80A JUMPI JUMPDEST POP POP DUP2 PUSH1 0x1 SHL SWAP2 PUSH1 0x0 NOT SWAP1 PUSH1 0x3 SHL SHR NOT AND OR PUSH1 0x2 DUP4 ADD SSTORE JUMPDEST PUSH1 0x60 DUP2 ADD MLOAD DUP1 MLOAD SWAP1 PUSH1 0x1 PUSH1 0x1 PUSH1 0x40 SHL SUB DUP3 GT PUSH2 0x6EF JUMPI PUSH2 0x4F6 DUP3 PUSH2 0x4ED PUSH1 0x3 DUP8 ADD SLOAD PUSH2 0xA6F JUMP JUMPDEST PUSH1 0x3 DUP8 ADD PUSH2 0xC46 JUMP JUMPDEST PUSH1 0x20 SWAP1 PUSH1 0x1F DUP4 GT PUSH1 0x1 EQ PUSH2 0x797 JUMPI PUSH1 0x80 SWAP4 SWAP3 SWAP2 PUSH1 0x0 SWAP2 DUP4 PUSH2 0x78C JUMPI JUMPDEST POP POP DUP2 PUSH1 0x1 SHL SWAP2 PUSH1 0x0 NOT SWAP1 PUSH1 0x3 SHL SHR NOT AND OR PUSH1 0x3 DUP5 ADD SSTORE JUMPDEST ADD MLOAD SWAP1 DUP2 MLOAD SWAP1 PUSH1 0x1 PUSH1 0x1 PUSH1 0x40 SHL SUB DUP3 GT PUSH2 0x6EF JUMPI PUSH1 0x4 DUP3 SWAP2 ADD SWAP3 PUSH2 0x558 DUP3 PUSH2 0x552 DUP7 SLOAD PUSH2 0xA6F JUMP JUMPDEST DUP7 PUSH2 0xC46 JUMP JUMPDEST PUSH1 0x20 SWAP1 PUSH1 0x1F DUP4 GT PUSH1 0x1 EQ PUSH2 0x726 JUMPI PUSH1 0x0 SWAP3 PUSH2 0x71B JUMPI JUMPDEST POP POP DUP2 PUSH1 0x1 SHL SWAP2 PUSH1 0x0 NOT SWAP1 PUSH1 0x3 SHL SHR NOT AND OR SWAP1 SSTORE JUMPDEST PUSH1 0x2 SLOAD PUSH9 0x10000000000000000 DUP2 LT ISZERO PUSH2 0x6EF JUMPI DUP1 PUSH1 0x1 PUSH2 0x5A7 SWAP3 ADD PUSH1 0x2 SSTORE PUSH2 0xA22 JUMP JUMPDEST PUSH2 0x705 JUMPI PUSH1 0x1 PUSH1 0x1 PUSH1 0x40 SHL SUB DUP11 GT PUSH2 0x6EF JUMPI PUSH2 0x5CD DUP11 PUSH2 0x5C7 DUP4 SLOAD PUSH2 0xA6F JUMP JUMPDEST DUP4 PUSH2 0xC46 JUMP JUMPDEST DUP10 PUSH1 0x0 PUSH1 0x1F DUP3 GT PUSH1 0x1 EQ PUSH2 0x688 JUMPI PUSH1 0x0 SWAP2 PUSH2 0x67D JUMPI JUMPDEST POP DUP11 PUSH1 0x1 SHL SWAP1 PUSH1 0x0 NOT DUP13 PUSH1 0x3 SHL SHR NOT AND OR SWAP1 SSTORE JUMPDEST PUSH1 0x40 MLOAD SWAP10 DUP11 SWAP10 PUSH1 0xA0 DUP12 MSTORE PUSH1 0xA0 DUP12 ADD SWAP1 PUSH2 0x60F SWAP3 PUSH2 0xC9A JUMP JUMPDEST SWAP1 DUP10 DUP3 SUB PUSH1 0x20 DUP12 ADD MSTORE PUSH2 0x621 SWAP3 PUSH2 0xC9A JUMP JUMPDEST SWAP1 DUP8 DUP3 SUB PUSH1 0x40 DUP10 ADD MSTORE PUSH2 0x633 SWAP3 PUSH2 0xC9A JUMP JUMPDEST SWAP1 DUP6 DUP3 SUB PUSH1 0x60 DUP8 ADD MSTORE PUSH2 0x645 SWAP3 PUSH2 0xC9A JUMP JUMPDEST SWAP1 DUP4 DUP3 SUB PUSH1 0x80 DUP6 ADD MSTORE PUSH2 0x657 SWAP3 PUSH2 0xC9A JUMP JUMPDEST SUB PUSH32 0xC06180986FE1548E0C984AA95AEA00EF17DDA51943C43EA81E206A63BC02A3EB SWAP2 LOG1 STOP JUMPDEST SWAP1 POP DUP12 ADD CALLDATALOAD DUP13 PUSH2 0x5E3 JUMP JUMPDEST PUSH1 0x0 DUP4 DUP2 MSTORE PUSH1 0x20 DUP2 KECCAK256 SWAP3 POP JUMPDEST DUP14 PUSH1 0x1F NOT DUP15 AND DUP3 LT PUSH2 0x6D7 JUMPI POP POP DUP12 PUSH1 0x1F NOT DUP2 AND LT PUSH2 0x6BD JUMPI JUMPDEST POP POP PUSH1 0x1 DUP11 DUP2 SHL ADD SWAP1 SSTORE PUSH2 0x5F7 JUMP JUMPDEST DUP13 ADD CALLDATALOAD PUSH1 0x0 NOT PUSH1 0x3 DUP14 SWAP1 SHL PUSH1 0xF8 AND SHR NOT AND SWAP1 SSTORE DUP12 DUP1 PUSH2 0x6AE JUMP JUMPDEST PUSH1 0x1 DUP4 SWAP5 PUSH1 0x20 SWAP4 SWAP5 DUP5 SWAP4 ADD CALLDATALOAD DUP2 SSTORE ADD SWAP4 ADD SWAP2 ADD PUSH2 0x694 JUMP JUMPDEST PUSH4 0x4E487B71 PUSH1 0xE0 SHL PUSH1 0x0 MSTORE PUSH1 0x41 PUSH1 0x4 MSTORE PUSH1 0x24 PUSH1 0x0 REVERT JUMPDEST PUSH4 0x4E487B71 PUSH1 0xE0 SHL PUSH1 0x0 MSTORE PUSH1 0x0 PUSH1 0x4 MSTORE PUSH1 0x24 PUSH1 0x0 REVERT JUMPDEST ADD MLOAD SWAP1 POP DUP14 DUP1 PUSH2 0x56E JUMP JUMPDEST PUSH1 0x0 DUP6 DUP2 MSTORE PUSH1 0x20 DUP2 KECCAK256 SWAP4 POP PUSH1 0x1F NOT DUP6 AND SWAP1 JUMPDEST DUP2 DUP2 LT PUSH2 0x774 JUMPI POP SWAP1 DUP5 PUSH1 0x1 SWAP6 SWAP5 SWAP4 SWAP3 LT PUSH2 0x75B JUMPI JUMPDEST POP POP POP DUP2 SHL ADD SWAP1 SSTORE PUSH2 0x583 JUMP JUMPDEST ADD MLOAD PUSH1 0x0 NOT PUSH1 0xF8 DUP5 PUSH1 0x3 SHL AND SHR NOT AND SWAP1 SSTORE DUP14 DUP1 DUP1 PUSH2 0x74E JUMP JUMPDEST SWAP3 SWAP4 PUSH1 0x20 PUSH1 0x1 DUP2 SWAP3 DUP8 DUP7 ADD MLOAD DUP2 SSTORE ADD SWAP6 ADD SWAP4 ADD PUSH2 0x738 JUMP JUMPDEST ADD MLOAD SWAP1 POP DUP16 DUP1 PUSH2 0x512 JUMP JUMPDEST SWAP1 PUSH1 0x3 DUP6 ADD PUSH1 0x0 MSTORE PUSH1 0x20 PUSH1 0x0 KECCAK256 SWAP2 PUSH1 0x0 JUMPDEST PUSH1 0x1F NOT DUP6 AND DUP2 LT PUSH2 0x7F2 JUMPI POP SWAP2 DUP4 SWAP2 PUSH1 0x1 SWAP4 PUSH1 0x80 SWAP7 SWAP6 PUSH1 0x1F NOT DUP2 AND LT PUSH2 0x7D9 JUMPI JUMPDEST POP POP POP DUP2 SHL ADD PUSH1 0x3 DUP5 ADD SSTORE PUSH2 0x52A JUMP JUMPDEST ADD MLOAD PUSH1 0x0 NOT PUSH1 0xF8 DUP5 PUSH1 0x3 SHL AND SHR NOT AND SWAP1 SSTORE DUP16 DUP1 DUP1 PUSH2 0x7C9 JUMP JUMPDEST SWAP2 SWAP3 PUSH1 0x20 PUSH1 0x1 DUP2 SWAP3 DUP7 DUP6 ADD MLOAD DUP2 SSTORE ADD SWAP5 ADD SWAP3 ADD PUSH2 0x7A8 JUMP JUMPDEST ADD MLOAD SWAP1 POP DUP15 DUP1 PUSH2 0x4AE JUMP JUMPDEST SWAP3 POP PUSH1 0x2 DUP6 ADD PUSH1 0x0 MSTORE PUSH1 0x20 PUSH1 0x0 KECCAK256 SWAP1 PUSH1 0x0 SWAP4 JUMPDEST PUSH1 0x1F NOT DUP5 AND DUP6 LT PUSH2 0x86C JUMPI PUSH1 0x1 SWAP5 POP DUP4 PUSH1 0x1F NOT DUP2 AND LT PUSH2 0x853 JUMPI JUMPDEST POP POP POP DUP2 SHL ADD PUSH1 0x2 DUP4 ADD SSTORE PUSH2 0x4C6 JUMP JUMPDEST ADD MLOAD PUSH1 0x0 NOT PUSH1 0xF8 DUP5 PUSH1 0x3 SHL AND SHR NOT AND SWAP1 SSTORE DUP15 DUP1 DUP1 PUSH2 0x843 JUMP JUMPDEST DUP2 DUP2 ADD MLOAD DUP4 SSTORE PUSH1 0x20 SWAP5 DUP6 ADD SWAP5 PUSH1 0x1 SWAP1 SWAP4 ADD SWAP3 SWAP1 SWAP2 ADD SWAP1 PUSH2 0x828 JUMP JUMPDEST ADD MLOAD SWAP1 POP DUP15 DUP1 PUSH2 0x44E JUMP JUMPDEST SWAP3 POP PUSH1 0x1 DUP6 ADD PUSH1 0x0 MSTORE PUSH1 0x20 PUSH1 0x0 KECCAK256 SWAP1 PUSH1 0x0 SWAP4 JUMPDEST PUSH1 0x1F NOT DUP5 AND DUP6 LT PUSH2 0x8E9 JUMPI PUSH1 0x1 SWAP5 POP DUP4 PUSH1 0x1F NOT DUP2 AND LT PUSH2 0x8D0 JUMPI JUMPDEST POP POP POP DUP2 SHL ADD PUSH1 0x1 DUP4 ADD SSTORE PUSH2 0x466 JUMP JUMPDEST ADD MLOAD PUSH1 0x0 NOT PUSH1 0xF8 DUP5 PUSH1 0x3 SHL AND SHR NOT AND SWAP1 SSTORE DUP15 DUP1 DUP1 PUSH2 0x8C0 JUMP JUMPDEST DUP2 DUP2 ADD MLOAD DUP4 SSTORE PUSH1 0x20 SWAP5 DUP6 ADD SWAP5 PUSH1 0x1 SWAP1 SWAP4 ADD SWAP3 SWAP1 SWAP2 ADD SWAP1 PUSH2 0x8A5 JUMP JUMPDEST ADD MLOAD SWAP1 POP DUP15 DUP1 PUSH2 0x3F1 JUMP JUMPDEST SWAP3 POP DUP5 PUSH1 0x0 MSTORE PUSH1 0x20 PUSH1 0x0 KECCAK256 SWAP1 PUSH1 0x0 SWAP4 JUMPDEST PUSH1 0x1F NOT DUP5 AND DUP6 LT PUSH2 0x960 JUMPI PUSH1 0x1 SWAP5 POP DUP4 PUSH1 0x1F NOT DUP2 AND LT PUSH2 0x947 JUMPI JUMPDEST POP POP POP DUP2 SHL ADD DUP3 SSTORE PUSH2 0x406 JUMP JUMPDEST ADD MLOAD PUSH1 0x0 NOT PUSH1 0xF8 DUP5 PUSH1 0x3 SHL AND SHR NOT AND SWAP1 SSTORE DUP15 DUP1 DUP1 PUSH2 0x93A JUMP JUMPDEST DUP2 DUP2 ADD MLOAD DUP4 SSTORE PUSH1 0x20 SWAP5 DUP6 ADD SWAP5 PUSH1 0x1 SWAP1 SWAP4 ADD SWAP3 SWAP1 SWAP2 ADD SWAP1 PUSH2 0x91F JUMP JUMPDEST PUSH1 0x40 MLOAD PUSH3 0x461BCD PUSH1 0xE5 SHL DUP2 MSTORE PUSH1 0x20 PUSH1 0x4 DUP3 ADD MSTORE PUSH1 0xB PUSH1 0x24 DUP3 ADD MSTORE PUSH11 0x139BDD081CDD195DD85C99 PUSH1 0xAA SHL PUSH1 0x44 DUP3 ADD MSTORE PUSH1 0x64 SWAP1 REVERT JUMPDEST CALLVALUE PUSH2 0x15C JUMPI PUSH1 0x0 CALLDATASIZE PUSH1 0x3 NOT ADD SLT PUSH2 0x15C JUMPI PUSH1 0x0 SLOAD PUSH1 0x40 MLOAD PUSH1 0x1 PUSH1 0x1 PUSH1 0xA0 SHL SUB SWAP1 SWAP2 AND DUP2 MSTORE PUSH1 0x20 SWAP1 RETURN JUMPDEST CALLVALUE PUSH2 0x15C JUMPI PUSH1 0x20 CALLDATASIZE PUSH1 0x3 NOT ADD SLT PUSH2 0x15C JUMPI PUSH1 0x4 CALLDATALOAD PUSH1 0x2 SLOAD DUP2 LT ISZERO PUSH2 0x15C JUMPI PUSH2 0x9FE SWAP1 PUSH2 0xA22 JUMP JUMPDEST PUSH2 0x705 JUMPI PUSH2 0xA0E PUSH2 0x158 SWAP2 PUSH2 0xAE5 JUMP JUMPDEST PUSH1 0x40 MLOAD SWAP2 DUP3 SWAP2 PUSH1 0x20 DUP4 MSTORE PUSH1 0x20 DUP4 ADD SWAP1 PUSH2 0xBAE JUMP JUMPDEST PUSH1 0x2 SLOAD DUP2 LT ISZERO PUSH2 0xA59 JUMPI PUSH1 0x2 PUSH1 0x0 MSTORE PUSH32 0x405787FA12A823E0F2B7631CC41B3BA8828B3321CA811111FA75CD3AA3BB5ACE ADD SWAP1 PUSH1 0x0 SWAP1 JUMP JUMPDEST PUSH4 0x4E487B71 PUSH1 0xE0 SHL PUSH1 0x0 MSTORE PUSH1 0x32 PUSH1 0x4 MSTORE PUSH1 0x24 PUSH1 0x0 REVERT JUMPDEST SWAP1 PUSH1 0x1 DUP3 DUP2 SHR SWAP3 AND DUP1 ISZERO PUSH2 0xA9F JUMPI JUMPDEST PUSH1 0x20 DUP4 LT EQ PUSH2 0xA89 JUMPI JUMP JUMPDEST PUSH4 0x4E487B71 PUSH1 0xE0 SHL PUSH1 0x0 MSTORE PUSH1 0x22 PUSH1 0x4 MSTORE PUSH1 0x24 PUSH1 0x0 REVERT JUMPDEST SWAP2 PUSH1 0x7F AND SWAP2 PUSH2 0xA7E JUMP JUMPDEST PUSH1 0xA0 DUP2 ADD SWAP1 DUP2 LT PUSH1 0x1 PUSH1 0x1 PUSH1 0x40 SHL SUB DUP3 GT OR PUSH2 0x6EF JUMPI PUSH1 0x40 MSTORE JUMP JUMPDEST SWAP1 PUSH1 0x1F DUP1 NOT SWAP2 ADD AND DUP2 ADD SWAP1 DUP2 LT PUSH1 0x1 PUSH1 0x1 PUSH1 0x40 SHL SUB DUP3 GT OR PUSH2 0x6EF JUMPI PUSH1 0x40 MSTORE JUMP JUMPDEST SWAP1 PUSH1 0x40 MLOAD SWAP2 DUP3 PUSH1 0x0 DUP3 SLOAD SWAP3 PUSH2 0xAF9 DUP5 PUSH2 0xA6F JUMP JUMPDEST SWAP1 DUP2 DUP5 MSTORE PUSH1 0x1 SWAP5 DUP6 DUP2 AND SWAP1 DUP2 PUSH1 0x0 EQ PUSH2 0xB68 JUMPI POP PUSH1 0x1 EQ PUSH2 0xB25 JUMPI JUMPDEST POP POP PUSH2 0xB23 SWAP3 POP SUB DUP4 PUSH2 0xAC4 JUMP JUMPDEST JUMP JUMPDEST SWAP1 SWAP4 SWAP2 POP PUSH1 0x0 MSTORE PUSH1 0x20 SWAP1 DUP2 PUSH1 0x0 KECCAK256 SWAP4 PUSH1 0x0 SWAP2 JUMPDEST DUP2 DUP4 LT PUSH2 0xB50 JUMPI POP POP PUSH2 0xB23 SWAP4 POP DUP3 ADD ADD CODESIZE DUP1 PUSH2 0xB15 JUMP JUMPDEST DUP6 SLOAD DUP9 DUP5 ADD DUP6 ADD MSTORE SWAP5 DUP6 ADD SWAP5 DUP8 SWAP5 POP SWAP2 DUP4 ADD SWAP2 PUSH2 0xB38 JUMP JUMPDEST SWAP2 POP POP PUSH2 0xB23 SWAP5 POP PUSH1 0x20 SWAP3 POP PUSH1 0xFF NOT AND DUP3 DUP5 ADD MSTORE ISZERO ISZERO PUSH1 0x5 SHL DUP3 ADD ADD CODESIZE DUP1 PUSH2 0xB15 JUMP JUMPDEST PUSH1 0x0 JUMPDEST DUP4 DUP2 LT PUSH2 0xB9E JUMPI POP POP PUSH1 0x0 SWAP2 ADD MSTORE JUMP JUMPDEST DUP2 DUP2 ADD MLOAD DUP4 DUP3 ADD MSTORE PUSH1 0x20 ADD PUSH2 0xB8E JUMP JUMPDEST SWAP1 PUSH1 0x20 SWAP2 PUSH2 0xBC7 DUP2 MLOAD DUP1 SWAP3 DUP2 DUP6 MSTORE DUP6 DUP1 DUP7 ADD SWAP2 ADD PUSH2 0xB8B JUMP JUMPDEST PUSH1 0x1F ADD PUSH1 0x1F NOT AND ADD ADD SWAP1 JUMP JUMPDEST SWAP2 DUP2 PUSH1 0x1F DUP5 ADD SLT ISZERO PUSH2 0x15C JUMPI DUP3 CALLDATALOAD SWAP2 PUSH1 0x1 PUSH1 0x1 PUSH1 0x40 SHL SUB DUP4 GT PUSH2 0x15C JUMPI PUSH1 0x20 DUP4 DUP2 DUP7 ADD SWAP6 ADD ADD GT PUSH2 0x15C JUMPI JUMP JUMPDEST SWAP3 SWAP2 SWAP3 PUSH1 0x1 PUSH1 0x1 PUSH1 0x40 SHL SUB DUP3 GT PUSH2 0x6EF JUMPI PUSH1 0x40 MLOAD SWAP2 PUSH2 0xC29 PUSH1 0x1F DUP3 ADD PUSH1 0x1F NOT AND PUSH1 0x20 ADD DUP5 PUSH2 0xAC4 JUMP JUMPDEST DUP3 SWAP5 DUP2 DUP5 MSTORE DUP2 DUP4 ADD GT PUSH2 0x15C JUMPI DUP3 DUP2 PUSH1 0x20 SWAP4 DUP5 PUSH1 0x0 SWAP7 ADD CALLDATACOPY ADD ADD MSTORE JUMP JUMPDEST SWAP1 PUSH1 0x1F DUP2 GT PUSH2 0xC54 JUMPI POP POP POP JUMP JUMPDEST PUSH1 0x0 SWAP2 DUP3 MSTORE PUSH1 0x20 DUP3 KECCAK256 SWAP1 PUSH1 0x20 PUSH1 0x1F DUP6 ADD PUSH1 0x5 SHR DUP4 ADD SWAP5 LT PUSH2 0xC90 JUMPI JUMPDEST PUSH1 0x1F ADD PUSH1 0x5 SHR ADD SWAP2 JUMPDEST DUP3 DUP2 LT PUSH2 0xC85 JUMPI POP POP POP JUMP JUMPDEST DUP2 DUP2 SSTORE PUSH1 0x1 ADD PUSH2 0xC79 JUMP JUMPDEST SWAP1 SWAP3 POP DUP3 SWAP1 PUSH2 0xC70 JUMP JUMPDEST SWAP1 DUP1 PUSH1 0x20 SWAP4 SWAP3 DUP2 DUP5 MSTORE DUP5 DUP5 ADD CALLDATACOPY PUSH1 0x0 DUP3 DUP3 ADD DUP5 ADD MSTORE PUSH1 0x1F ADD PUSH1 0x1F NOT AND ADD ADD SWAP1 JUMP INVALID LOG2 PUSH5 0x6970667358 0x22 SLT KECCAK256 EXTCODEHASH 0xBA 0xD5 0xDA BALANCE PUSH17 0x9231CCB5A196D8421D8B86C10B6FFED265 JUMPI 0xAF 0xBA 0xE1 PUSH26 0xFA278AA264736F6C634300081400330000000000000000000000 "},"methodIdentifiers":{"codices(string)":"dbc21424","getCodex(string)":"83361522","inscribeCodex(string,string,string,string,string)":"6f8ec8a5","keys(uint256)":"0cb6aaf1","steward()":"637eea19","totalCodices()":"c212d16b"}}}}}