{"contracts/manifest/TerrainManifestV2.sol":{"TerrainManifestV2":{"abi":[{"inputs":[],"stateMutability":"nonpayable","type":"constructor"},{"anonymous":false,"inputs":[{"indexed":false,"internalType":"string","name":"name","type":"string"},{"indexed":false,"internalType":"address","name":"location","type":"address"},{"indexed":false,"internalType":"string","name":"kind","type":"string"},{"indexed":false,"internalType":"string","name":"pulse","type":"string"},{"indexed":false,"internalType":"string","name":"sanctum","type":"string"}],"name":"GlyphLinked","type":"event"},{"inputs":[{"internalType":"string","name":"name","type":"string"}],"name":"getGlyph","outputs":[{"internalType":"address","name":"","type":"address"},{"internalType":"string","name":"","type":"string"},{"internalType":"string","name":"","type":"string"},{"internalType":"string","name":"","type":"string"}],"stateMutability":"view","type":"function"},{"inputs":[{"internalType":"string","name":"","type":"string"}],"name":"glyphs","outputs":[{"internalType":"string","name":"name","type":"string"},{"internalType":"address","name":"location","type":"address"},{"internalType":"string","name":"kind","type":"string"},{"internalType":"string","name":"pulse","type":"string"},{"internalType":"string","name":"sanctum","type":"string"}],"stateMutability":"view","type":"function"},{"inputs":[{"internalType":"uint256","name":"","type":"uint256"}],"name":"keys","outputs":[{"internalType":"string","name":"","type":"string"}],"stateMutability":"view","type":"function"},{"inputs":[{"internalType":"string","name":"name","type":"string"},{"internalType":"address","name":"location","type":"address"},{"internalType":"string","name":"kind","type":"string"},{"internalType":"string","name":"pulse","type":"string"},{"internalType":"string","name":"sanctum","type":"string"}],"name":"linkGlyph","outputs":[],"stateMutability":"nonpayable","type":"function"},{"inputs":[],"name":"steward","outputs":[{"internalType":"address","name":"","type":"address"}],"stateMutability":"view","type":"function"},{"inputs":[],"name":"totalGlyphs","outputs":[{"internalType":"uint256","name":"","type":"uint256"}],"stateMutability":"view","type":"function"}],"evm":{"bytecode":{"linkReferences":{},"object":"6080806040523461002857600080546001600160a01b03191633179055610c55908161002e8239f35b600080fdfe6080604052600436101561001257600080fd5b60003560e01c80630cb6aaf11461093b57806348f58b7c1461028f578063637eea19146102665780638592eebe14610248578063f351a29d146101575763f9864eb51461005e57600080fd5b34610152576020366003190112610152576004356001600160401b0381116101525736602382011215610152576100ba60206100a761011f933690602481600401359101610b64565b8160405193828580945193849201610aef565b8101600181520301902061014e6100d082610a49565b9161014060018060a01b03600183015416916101326100f160028301610a49565b9361010a600461010360038601610a49565b9401610a49565b9460405198899860a08a5260a08a0190610b12565b9160208901528782036040890152610b12565b908582036060870152610b12565b908382036080850152610b12565b0390f35b600080fd5b34610152576020366003190112610152576004356001600160401b038111610152576101896020913690600401610b37565b9190826040519384928337810160018152030190206040516101aa81610a0d565b6101b382610a49565b815261014e608061023a60018060a01b0380600187015416602086019081526101de60028801610a49565b956040810196875261020560046101f760038b01610a49565b99606084019a8b5201610a49565b948591015251169351945161022c6040519687968752608060208801526080870190610b12565b908582036040870152610b12565b908382036060850152610b12565b34610152576000366003190112610152576020600254604051908152f35b34610152576000366003190112610152576000546040516001600160a01b039091168152602090f35b346101525760a0366003190112610152576004356001600160401b038111610152576102bf903690600401610b37565b6024356001600160a01b0381168103610152576044356001600160401b038111610152576102f1903690600401610b37565b90916064356001600160401b03811161015257610312903690600401610b37565b9190926084356001600160401b03811161015257610334903690600401610b37565b60005491989096916001600160a01b031633036109085760405161035781610a0d565b610362368a84610b64565b81526001600160a01b038516602082015261037e368585610b64565b604082015261038e368789610b64565b606082015261039e36898c610b64565b6080820152604051898382376020818b810160018152030190209080518051906001600160401b0382116106f95781906103e2826103dc87546109d3565b87610baa565b602090601f831160011461089c57600092610891575b50508160011b916000199060031b1c19161782555b6001820160018060a01b036020830151166bffffffffffffffffffffffff60a01b82541617905560408101518051906001600160401b0382116106f95781906104668261045d60028801546109d3565b60028801610baa565b602090601f831160011461081f57600092610814575b50508160011b916000199060031b1c19161760028301555b60608101518051906001600160401b0382116106f9576104c4826104bb60038701546109d3565b60038701610baa565b602090601f83116001146107a157608093929160009183610796575b50508160011b916000199060031b1c19161760038401555b0151908151906001600160401b0382116106f9576004829101926105268261052086546109d3565b86610baa565b602090601f831160011461073057600092610725575b50508160011b916000199060031b1c19161790555b600254680100000000000000008110156106f9578060016105759201600255610986565b61070f576001600160401b0389116106f95761059b8961059583546109d3565b83610baa565b6000601f8a11600114610659579461063b9461064998946106107f9ecd2f571bfa9cd27e9016a035249918ace7a5e286b3d4fb67bed597d74541f19d999561062d958e8060a09f9c60009161064e575b508160011b916000199060031b1c19161790555b6040518d81529d8e9d8e0191610bfe565b6001600160a01b0390931660208c01528a830360408c0152610bfe565b918783036060890152610bfe565b918483036080860152610bfe565b0390a1005b9050830135386105eb565b8160005260206000209060005b601f198c1681106106e157509461064998946106107f9ecd2f571bfa9cd27e9016a035249918ace7a5e286b3d4fb67bed597d74541f19d999561062d9560018f60a09f9c9761063b9c82601f198116106106c7575b5050811b0190556105ff565b850135600019600384901b60f8161c1916905538806106bb565b90916020600181928588013581550193019101610666565b634e487b7160e01b600052604160045260246000fd5b634e487b7160e01b600052600060045260246000fd5b015190508c8061053c565b6000858152602081209350601f198516905b81811061077e5750908460019594939210610765575b505050811b019055610551565b015160001960f88460031b161c191690558c8080610758565b92936020600181928786015181550195019301610742565b015190508e806104e0565b906003850160005260206000209160005b601f19851681106107fc575091839160019360809695601f198116106107e3575b505050811b0160038401556104f8565b015160001960f88460031b161c191690558e80806107d3565b919260206001819286850151815501940192016107b2565b015190508d8061047c565b9250600285016000526020600020906000935b601f1984168510610876576001945083601f1981161061085d575b505050811b016002830155610494565b015160001960f88460031b161c191690558d808061084d565b81810151835560209485019460019093019290910190610832565b015190508d806103f8565b9250846000526020600020906000935b601f19841685106108ed576001945083601f198116106108d4575b505050811b01825561040d565b015160001960f88460031b161c191690558d80806108c7565b818101518355602094850194600190930192909101906108ac565b60405162461bcd60e51b815260206004820152600b60248201526a139bdd081cdd195dd85c9960aa1b6044820152606490fd5b34610152576020366003190112610152576004356002548110156101525761096290610986565b61070f5761097261014e91610a49565b604051918291602083526020830190610b12565b6002548110156109bd5760026000527f405787fa12a823e0f2b7631cc41b3ba8828b3321ca811111fa75cd3aa3bb5ace0190600090565b634e487b7160e01b600052603260045260246000fd5b90600182811c92168015610a03575b60208310146109ed57565b634e487b7160e01b600052602260045260246000fd5b91607f16916109e2565b60a081019081106001600160401b038211176106f957604052565b90601f801991011681019081106001600160401b038211176106f957604052565b9060405191826000825492610a5d846109d3565b908184526001948581169081600014610acc5750600114610a89575b5050610a8792500383610a28565b565b9093915060005260209081600020936000915b818310610ab4575050610a8793508201013880610a79565b85548884018501529485019487945091830191610a9c565b915050610a8794506020925060ff191682840152151560051b8201013880610a79565b60005b838110610b025750506000910152565b8181015183820152602001610af2565b90602091610b2b81518092818552858086019101610aef565b601f01601f1916010190565b9181601f84011215610152578235916001600160401b038311610152576020838186019501011161015257565b9291926001600160401b0382116106f95760405191610b8d601f8201601f191660200184610a28565b829481845281830111610152578281602093846000960137010152565b90601f8111610bb857505050565b600091825260208220906020601f850160051c83019410610bf4575b601f0160051c01915b828110610be957505050565b818155600101610bdd565b9092508290610bd4565b908060209392818452848401376000828201840152601f01601f191601019056fea26469706673582212201242a7cdb2040fbabdebe8127c390ddb9eea2c52b1fda7e9c92be2546a5bae7264736f6c63430008140033","opcodes":"PUSH1 0x80 DUP1 PUSH1 0x40 MSTORE CALLVALUE PUSH2 0x28 JUMPI PUSH1 0x0 DUP1 SLOAD PUSH1 0x1 PUSH1 0x1 PUSH1 0xA0 SHL SUB NOT AND CALLER OR SWAP1 SSTORE PUSH2 0xC55 SWAP1 DUP2 PUSH2 0x2E DUP3 CODECOPY RETURN JUMPDEST PUSH1 0x0 DUP1 REVERT INVALID PUSH1 0x80 PUSH1 0x40 MSTORE PUSH1 0x4 CALLDATASIZE LT ISZERO PUSH2 0x12 JUMPI PUSH1 0x0 DUP1 REVERT JUMPDEST PUSH1 0x0 CALLDATALOAD PUSH1 0xE0 SHR DUP1 PUSH4 0xCB6AAF1 EQ PUSH2 0x93B JUMPI DUP1 PUSH4 0x48F58B7C EQ PUSH2 0x28F JUMPI DUP1 PUSH4 0x637EEA19 EQ PUSH2 0x266 JUMPI DUP1 PUSH4 0x8592EEBE EQ PUSH2 0x248 JUMPI DUP1 PUSH4 0xF351A29D EQ PUSH2 0x157 JUMPI PUSH4 0xF9864EB5 EQ PUSH2 0x5E JUMPI PUSH1 0x0 DUP1 REVERT JUMPDEST CALLVALUE PUSH2 0x152 JUMPI PUSH1 0x20 CALLDATASIZE PUSH1 0x3 NOT ADD SLT PUSH2 0x152 JUMPI PUSH1 0x4 CALLDATALOAD PUSH1 0x1 PUSH1 0x1 PUSH1 0x40 SHL SUB DUP2 GT PUSH2 0x152 JUMPI CALLDATASIZE PUSH1 0x23 DUP3 ADD SLT ISZERO PUSH2 0x152 JUMPI PUSH2 0xBA PUSH1 0x20 PUSH2 0xA7 PUSH2 0x11F SWAP4 CALLDATASIZE SWAP1 PUSH1 0x24 DUP2 PUSH1 0x4 ADD CALLDATALOAD SWAP2 ADD PUSH2 0xB64 JUMP JUMPDEST DUP2 PUSH1 0x40 MLOAD SWAP4 DUP3 DUP6 DUP1 SWAP5 MLOAD SWAP4 DUP5 SWAP3 ADD PUSH2 0xAEF JUMP JUMPDEST DUP2 ADD PUSH1 0x1 DUP2 MSTORE SUB ADD SWAP1 KECCAK256 PUSH2 0x14E PUSH2 0xD0 DUP3 PUSH2 0xA49 JUMP JUMPDEST SWAP2 PUSH2 0x140 PUSH1 0x1 DUP1 PUSH1 0xA0 SHL SUB PUSH1 0x1 DUP4 ADD SLOAD AND SWAP2 PUSH2 0x132 PUSH2 0xF1 PUSH1 0x2 DUP4 ADD PUSH2 0xA49 JUMP JUMPDEST SWAP4 PUSH2 0x10A PUSH1 0x4 PUSH2 0x103 PUSH1 0x3 DUP7 ADD PUSH2 0xA49 JUMP JUMPDEST SWAP5 ADD PUSH2 0xA49 JUMP JUMPDEST SWAP5 PUSH1 0x40 MLOAD SWAP9 DUP10 SWAP9 PUSH1 0xA0 DUP11 MSTORE PUSH1 0xA0 DUP11 ADD SWAP1 PUSH2 0xB12 JUMP JUMPDEST SWAP2 PUSH1 0x20 DUP10 ADD MSTORE DUP8 DUP3 SUB PUSH1 0x40 DUP10 ADD MSTORE PUSH2 0xB12 JUMP JUMPDEST SWAP1 DUP6 DUP3 SUB PUSH1 0x60 DUP8 ADD MSTORE PUSH2 0xB12 JUMP JUMPDEST SWAP1 DUP4 DUP3 SUB PUSH1 0x80 DUP6 ADD MSTORE PUSH2 0xB12 JUMP JUMPDEST SUB SWAP1 RETURN JUMPDEST PUSH1 0x0 DUP1 REVERT JUMPDEST CALLVALUE PUSH2 0x152 JUMPI PUSH1 0x20 CALLDATASIZE PUSH1 0x3 NOT ADD SLT PUSH2 0x152 JUMPI PUSH1 0x4 CALLDATALOAD PUSH1 0x1 PUSH1 0x1 PUSH1 0x40 SHL SUB DUP2 GT PUSH2 0x152 JUMPI PUSH2 0x189 PUSH1 0x20 SWAP2 CALLDATASIZE SWAP1 PUSH1 0x4 ADD PUSH2 0xB37 JUMP JUMPDEST SWAP2 SWAP1 DUP3 PUSH1 0x40 MLOAD SWAP4 DUP5 SWAP3 DUP4 CALLDATACOPY DUP2 ADD PUSH1 0x1 DUP2 MSTORE SUB ADD SWAP1 KECCAK256 PUSH1 0x40 MLOAD PUSH2 0x1AA DUP2 PUSH2 0xA0D JUMP JUMPDEST PUSH2 0x1B3 DUP3 PUSH2 0xA49 JUMP JUMPDEST DUP2 MSTORE PUSH2 0x14E PUSH1 0x80 PUSH2 0x23A PUSH1 0x1 DUP1 PUSH1 0xA0 SHL SUB DUP1 PUSH1 0x1 DUP8 ADD SLOAD AND PUSH1 0x20 DUP7 ADD SWAP1 DUP2 MSTORE PUSH2 0x1DE PUSH1 0x2 DUP9 ADD PUSH2 0xA49 JUMP JUMPDEST SWAP6 PUSH1 0x40 DUP2 ADD SWAP7 DUP8 MSTORE PUSH2 0x205 PUSH1 0x4 PUSH2 0x1F7 PUSH1 0x3 DUP12 ADD PUSH2 0xA49 JUMP JUMPDEST SWAP10 PUSH1 0x60 DUP5 ADD SWAP11 DUP12 MSTORE ADD PUSH2 0xA49 JUMP JUMPDEST SWAP5 DUP6 SWAP2 ADD MSTORE MLOAD AND SWAP4 MLOAD SWAP5 MLOAD PUSH2 0x22C PUSH1 0x40 MLOAD SWAP7 DUP8 SWAP7 DUP8 MSTORE PUSH1 0x80 PUSH1 0x20 DUP9 ADD MSTORE PUSH1 0x80 DUP8 ADD SWAP1 PUSH2 0xB12 JUMP JUMPDEST SWAP1 DUP6 DUP3 SUB PUSH1 0x40 DUP8 ADD MSTORE PUSH2 0xB12 JUMP JUMPDEST SWAP1 DUP4 DUP3 SUB PUSH1 0x60 DUP6 ADD MSTORE PUSH2 0xB12 JUMP JUMPDEST CALLVALUE PUSH2 0x152 JUMPI PUSH1 0x0 CALLDATASIZE PUSH1 0x3 NOT ADD SLT PUSH2 0x152 JUMPI PUSH1 0x20 PUSH1 0x2 SLOAD PUSH1 0x40 MLOAD SWAP1 DUP2 MSTORE RETURN JUMPDEST CALLVALUE PUSH2 0x152 JUMPI PUSH1 0x0 CALLDATASIZE PUSH1 0x3 NOT ADD SLT PUSH2 0x152 JUMPI PUSH1 0x0 SLOAD PUSH1 0x40 MLOAD PUSH1 0x1 PUSH1 0x1 PUSH1 0xA0 SHL SUB SWAP1 SWAP2 AND DUP2 MSTORE PUSH1 0x20 SWAP1 RETURN JUMPDEST CALLVALUE PUSH2 0x152 JUMPI PUSH1 0xA0 CALLDATASIZE PUSH1 0x3 NOT ADD SLT PUSH2 0x152 JUMPI PUSH1 0x4 CALLDATALOAD PUSH1 0x1 PUSH1 0x1 PUSH1 0x40 SHL SUB DUP2 GT PUSH2 0x152 JUMPI PUSH2 0x2BF SWAP1 CALLDATASIZE SWAP1 PUSH1 0x4 ADD PUSH2 0xB37 JUMP JUMPDEST PUSH1 0x24 CALLDATALOAD PUSH1 0x1 PUSH1 0x1 PUSH1 0xA0 SHL SUB DUP2 AND DUP2 SUB PUSH2 0x152 JUMPI PUSH1 0x44 CALLDATALOAD PUSH1 0x1 PUSH1 0x1 PUSH1 0x40 SHL SUB DUP2 GT PUSH2 0x152 JUMPI PUSH2 0x2F1 SWAP1 CALLDATASIZE SWAP1 PUSH1 0x4 ADD PUSH2 0xB37 JUMP JUMPDEST SWAP1 SWAP2 PUSH1 0x64 CALLDATALOAD PUSH1 0x1 PUSH1 0x1 PUSH1 0x40 SHL SUB DUP2 GT PUSH2 0x152 JUMPI PUSH2 0x312 SWAP1 CALLDATASIZE SWAP1 PUSH1 0x4 ADD PUSH2 0xB37 JUMP JUMPDEST SWAP2 SWAP1 SWAP3 PUSH1 0x84 CALLDATALOAD PUSH1 0x1 PUSH1 0x1 PUSH1 0x40 SHL SUB DUP2 GT PUSH2 0x152 JUMPI PUSH2 0x334 SWAP1 CALLDATASIZE SWAP1 PUSH1 0x4 ADD PUSH2 0xB37 JUMP JUMPDEST PUSH1 0x0 SLOAD SWAP2 SWAP9 SWAP1 SWAP7 SWAP2 PUSH1 0x1 PUSH1 0x1 PUSH1 0xA0 SHL SUB AND CALLER SUB PUSH2 0x908 JUMPI PUSH1 0x40 MLOAD PUSH2 0x357 DUP2 PUSH2 0xA0D JUMP JUMPDEST PUSH2 0x362 CALLDATASIZE DUP11 DUP5 PUSH2 0xB64 JUMP JUMPDEST DUP2 MSTORE PUSH1 0x1 PUSH1 0x1 PUSH1 0xA0 SHL SUB DUP6 AND PUSH1 0x20 DUP3 ADD MSTORE PUSH2 0x37E CALLDATASIZE DUP6 DUP6 PUSH2 0xB64 JUMP JUMPDEST PUSH1 0x40 DUP3 ADD MSTORE PUSH2 0x38E CALLDATASIZE DUP8 DUP10 PUSH2 0xB64 JUMP JUMPDEST PUSH1 0x60 DUP3 ADD MSTORE PUSH2 0x39E CALLDATASIZE DUP10 DUP13 PUSH2 0xB64 JUMP JUMPDEST PUSH1 0x80 DUP3 ADD MSTORE PUSH1 0x40 MLOAD DUP10 DUP4 DUP3 CALLDATACOPY PUSH1 0x20 DUP2 DUP12 DUP2 ADD PUSH1 0x1 DUP2 MSTORE SUB ADD SWAP1 KECCAK256 SWAP1 DUP1 MLOAD DUP1 MLOAD SWAP1 PUSH1 0x1 PUSH1 0x1 PUSH1 0x40 SHL SUB DUP3 GT PUSH2 0x6F9 JUMPI DUP2 SWAP1 PUSH2 0x3E2 DUP3 PUSH2 0x3DC DUP8 SLOAD PUSH2 0x9D3 JUMP JUMPDEST DUP8 PUSH2 0xBAA JUMP JUMPDEST PUSH1 0x20 SWAP1 PUSH1 0x1F DUP4 GT PUSH1 0x1 EQ PUSH2 0x89C JUMPI PUSH1 0x0 SWAP3 PUSH2 0x891 JUMPI JUMPDEST POP POP DUP2 PUSH1 0x1 SHL SWAP2 PUSH1 0x0 NOT SWAP1 PUSH1 0x3 SHL SHR NOT AND OR DUP3 SSTORE JUMPDEST PUSH1 0x1 DUP3 ADD PUSH1 0x1 DUP1 PUSH1 0xA0 SHL SUB PUSH1 0x20 DUP4 ADD MLOAD AND PUSH12 0xFFFFFFFFFFFFFFFFFFFFFFFF PUSH1 0xA0 SHL DUP3 SLOAD AND OR SWAP1 SSTORE PUSH1 0x40 DUP2 ADD MLOAD DUP1 MLOAD SWAP1 PUSH1 0x1 PUSH1 0x1 PUSH1 0x40 SHL SUB DUP3 GT PUSH2 0x6F9 JUMPI DUP2 SWAP1 PUSH2 0x466 DUP3 PUSH2 0x45D PUSH1 0x2 DUP9 ADD SLOAD PUSH2 0x9D3 JUMP JUMPDEST PUSH1 0x2 DUP9 ADD PUSH2 0xBAA JUMP JUMPDEST PUSH1 0x20 SWAP1 PUSH1 0x1F DUP4 GT PUSH1 0x1 EQ PUSH2 0x81F JUMPI PUSH1 0x0 SWAP3 PUSH2 0x814 JUMPI JUMPDEST POP POP DUP2 PUSH1 0x1 SHL SWAP2 PUSH1 0x0 NOT SWAP1 PUSH1 0x3 SHL SHR NOT AND OR PUSH1 0x2 DUP4 ADD SSTORE JUMPDEST PUSH1 0x60 DUP2 ADD MLOAD DUP1 MLOAD SWAP1 PUSH1 0x1 PUSH1 0x1 PUSH1 0x40 SHL SUB DUP3 GT PUSH2 0x6F9 JUMPI PUSH2 0x4C4 DUP3 PUSH2 0x4BB PUSH1 0x3 DUP8 ADD SLOAD PUSH2 0x9D3 JUMP JUMPDEST PUSH1 0x3 DUP8 ADD PUSH2 0xBAA JUMP JUMPDEST PUSH1 0x20 SWAP1 PUSH1 0x1F DUP4 GT PUSH1 0x1 EQ PUSH2 0x7A1 JUMPI PUSH1 0x80 SWAP4 SWAP3 SWAP2 PUSH1 0x0 SWAP2 DUP4 PUSH2 0x796 JUMPI JUMPDEST POP POP DUP2 PUSH1 0x1 SHL SWAP2 PUSH1 0x0 NOT SWAP1 PUSH1 0x3 SHL SHR NOT AND OR PUSH1 0x3 DUP5 ADD SSTORE JUMPDEST ADD MLOAD SWAP1 DUP2 MLOAD SWAP1 PUSH1 0x1 PUSH1 0x1 PUSH1 0x40 SHL SUB DUP3 GT PUSH2 0x6F9 JUMPI PUSH1 0x4 DUP3 SWAP2 ADD SWAP3 PUSH2 0x526 DUP3 PUSH2 0x520 DUP7 SLOAD PUSH2 0x9D3 JUMP JUMPDEST DUP7 PUSH2 0xBAA JUMP JUMPDEST PUSH1 0x20 SWAP1 PUSH1 0x1F DUP4 GT PUSH1 0x1 EQ PUSH2 0x730 JUMPI PUSH1 0x0 SWAP3 PUSH2 0x725 JUMPI JUMPDEST POP POP DUP2 PUSH1 0x1 SHL SWAP2 PUSH1 0x0 NOT SWAP1 PUSH1 0x3 SHL SHR NOT AND OR SWAP1 SSTORE JUMPDEST PUSH1 0x2 SLOAD PUSH9 0x10000000000000000 DUP2 LT ISZERO PUSH2 0x6F9 JUMPI DUP1 PUSH1 0x1 PUSH2 0x575 SWAP3 ADD PUSH1 0x2 SSTORE PUSH2 0x986 JUMP JUMPDEST PUSH2 0x70F JUMPI PUSH1 0x1 PUSH1 0x1 PUSH1 0x40 SHL SUB DUP10 GT PUSH2 0x6F9 JUMPI PUSH2 0x59B DUP10 PUSH2 0x595 DUP4 SLOAD PUSH2 0x9D3 JUMP JUMPDEST DUP4 PUSH2 0xBAA JUMP JUMPDEST PUSH1 0x0 PUSH1 0x1F DUP11 GT PUSH1 0x1 EQ PUSH2 0x659 JUMPI SWAP5 PUSH2 0x63B SWAP5 PUSH2 0x649 SWAP9 SWAP5 PUSH2 0x610 PUSH32 0x9ECD2F571BFA9CD27E9016A035249918ACE7A5E286B3D4FB67BED597D74541F1 SWAP14 SWAP10 SWAP6 PUSH2 0x62D SWAP6 DUP15 DUP1 PUSH1 0xA0 SWAP16 SWAP13 PUSH1 0x0 SWAP2 PUSH2 0x64E JUMPI JUMPDEST POP DUP2 PUSH1 0x1 SHL SWAP2 PUSH1 0x0 NOT SWAP1 PUSH1 0x3 SHL SHR NOT AND OR SWAP1 SSTORE JUMPDEST PUSH1 0x40 MLOAD DUP14 DUP2 MSTORE SWAP14 DUP15 SWAP14 DUP15 ADD SWAP2 PUSH2 0xBFE JUMP JUMPDEST PUSH1 0x1 PUSH1 0x1 PUSH1 0xA0 SHL SUB SWAP1 SWAP4 AND PUSH1 0x20 DUP13 ADD MSTORE DUP11 DUP4 SUB PUSH1 0x40 DUP13 ADD MSTORE PUSH2 0xBFE JUMP JUMPDEST SWAP2 DUP8 DUP4 SUB PUSH1 0x60 DUP10 ADD MSTORE PUSH2 0xBFE JUMP JUMPDEST SWAP2 DUP5 DUP4 SUB PUSH1 0x80 DUP7 ADD MSTORE PUSH2 0xBFE JUMP JUMPDEST SUB SWAP1 LOG1 STOP JUMPDEST SWAP1 POP DUP4 ADD CALLDATALOAD CODESIZE PUSH2 0x5EB JUMP JUMPDEST DUP2 PUSH1 0x0 MSTORE PUSH1 0x20 PUSH1 0x0 KECCAK256 SWAP1 PUSH1 0x0 JUMPDEST PUSH1 0x1F NOT DUP13 AND DUP2 LT PUSH2 0x6E1 JUMPI POP SWAP5 PUSH2 0x649 SWAP9 SWAP5 PUSH2 0x610 PUSH32 0x9ECD2F571BFA9CD27E9016A035249918ACE7A5E286B3D4FB67BED597D74541F1 SWAP14 SWAP10 SWAP6 PUSH2 0x62D SWAP6 PUSH1 0x1 DUP16 PUSH1 0xA0 SWAP16 SWAP13 SWAP8 PUSH2 0x63B SWAP13 DUP3 PUSH1 0x1F NOT DUP2 AND LT PUSH2 0x6C7 JUMPI JUMPDEST POP POP DUP2 SHL ADD SWAP1 SSTORE PUSH2 0x5FF JUMP JUMPDEST DUP6 ADD CALLDATALOAD PUSH1 0x0 NOT PUSH1 0x3 DUP5 SWAP1 SHL PUSH1 0xF8 AND SHR NOT AND SWAP1 SSTORE CODESIZE DUP1 PUSH2 0x6BB JUMP JUMPDEST SWAP1 SWAP2 PUSH1 0x20 PUSH1 0x1 DUP2 SWAP3 DUP6 DUP9 ADD CALLDATALOAD DUP2 SSTORE ADD SWAP4 ADD SWAP2 ADD PUSH2 0x666 JUMP JUMPDEST PUSH4 0x4E487B71 PUSH1 0xE0 SHL PUSH1 0x0 MSTORE PUSH1 0x41 PUSH1 0x4 MSTORE PUSH1 0x24 PUSH1 0x0 REVERT JUMPDEST PUSH4 0x4E487B71 PUSH1 0xE0 SHL PUSH1 0x0 MSTORE PUSH1 0x0 PUSH1 0x4 MSTORE PUSH1 0x24 PUSH1 0x0 REVERT JUMPDEST ADD MLOAD SWAP1 POP DUP13 DUP1 PUSH2 0x53C JUMP JUMPDEST PUSH1 0x0 DUP6 DUP2 MSTORE PUSH1 0x20 DUP2 KECCAK256 SWAP4 POP PUSH1 0x1F NOT DUP6 AND SWAP1 JUMPDEST DUP2 DUP2 LT PUSH2 0x77E JUMPI POP SWAP1 DUP5 PUSH1 0x1 SWAP6 SWAP5 SWAP4 SWAP3 LT PUSH2 0x765 JUMPI JUMPDEST POP POP POP DUP2 SHL ADD SWAP1 SSTORE PUSH2 0x551 JUMP JUMPDEST ADD MLOAD PUSH1 0x0 NOT PUSH1 0xF8 DUP5 PUSH1 0x3 SHL AND SHR NOT AND SWAP1 SSTORE DUP13 DUP1 DUP1 PUSH2 0x758 JUMP JUMPDEST SWAP3 SWAP4 PUSH1 0x20 PUSH1 0x1 DUP2 SWAP3 DUP8 DUP7 ADD MLOAD DUP2 SSTORE ADD SWAP6 ADD SWAP4 ADD PUSH2 0x742 JUMP JUMPDEST ADD MLOAD SWAP1 POP DUP15 DUP1 PUSH2 0x4E0 JUMP JUMPDEST SWAP1 PUSH1 0x3 DUP6 ADD PUSH1 0x0 MSTORE PUSH1 0x20 PUSH1 0x0 KECCAK256 SWAP2 PUSH1 0x0 JUMPDEST PUSH1 0x1F NOT DUP6 AND DUP2 LT PUSH2 0x7FC JUMPI POP SWAP2 DUP4 SWAP2 PUSH1 0x1 SWAP4 PUSH1 0x80 SWAP7 SWAP6 PUSH1 0x1F NOT DUP2 AND LT PUSH2 0x7E3 JUMPI JUMPDEST POP POP POP DUP2 SHL ADD PUSH1 0x3 DUP5 ADD SSTORE PUSH2 0x4F8 JUMP JUMPDEST ADD MLOAD PUSH1 0x0 NOT PUSH1 0xF8 DUP5 PUSH1 0x3 SHL AND SHR NOT AND SWAP1 SSTORE DUP15 DUP1 DUP1 PUSH2 0x7D3 JUMP JUMPDEST SWAP2 SWAP3 PUSH1 0x20 PUSH1 0x1 DUP2 SWAP3 DUP7 DUP6 ADD MLOAD DUP2 SSTORE ADD SWAP5 ADD SWAP3 ADD PUSH2 0x7B2 JUMP JUMPDEST ADD MLOAD SWAP1 POP DUP14 DUP1 PUSH2 0x47C JUMP JUMPDEST SWAP3 POP PUSH1 0x2 DUP6 ADD PUSH1 0x0 MSTORE PUSH1 0x20 PUSH1 0x0 KECCAK256 SWAP1 PUSH1 0x0 SWAP4 JUMPDEST PUSH1 0x1F NOT DUP5 AND DUP6 LT PUSH2 0x876 JUMPI PUSH1 0x1 SWAP5 POP DUP4 PUSH1 0x1F NOT DUP2 AND LT PUSH2 0x85D JUMPI JUMPDEST POP POP POP DUP2 SHL ADD PUSH1 0x2 DUP4 ADD SSTORE PUSH2 0x494 JUMP JUMPDEST ADD MLOAD PUSH1 0x0 NOT PUSH1 0xF8 DUP5 PUSH1 0x3 SHL AND SHR NOT AND SWAP1 SSTORE DUP14 DUP1 DUP1 PUSH2 0x84D JUMP JUMPDEST DUP2 DUP2 ADD MLOAD DUP4 SSTORE PUSH1 0x20 SWAP5 DUP6 ADD SWAP5 PUSH1 0x1 SWAP1 SWAP4 ADD SWAP3 SWAP1 SWAP2 ADD SWAP1 PUSH2 0x832 JUMP JUMPDEST ADD MLOAD SWAP1 POP DUP14 DUP1 PUSH2 0x3F8 JUMP JUMPDEST SWAP3 POP DUP5 PUSH1 0x0 MSTORE PUSH1 0x20 PUSH1 0x0 KECCAK256 SWAP1 PUSH1 0x0 SWAP4 JUMPDEST PUSH1 0x1F NOT DUP5 AND DUP6 LT PUSH2 0x8ED JUMPI PUSH1 0x1 SWAP5 POP DUP4 PUSH1 0x1F NOT DUP2 AND LT PUSH2 0x8D4 JUMPI JUMPDEST POP POP POP DUP2 SHL ADD DUP3 SSTORE PUSH2 0x40D JUMP JUMPDEST ADD MLOAD PUSH1 0x0 NOT PUSH1 0xF8 DUP5 PUSH1 0x3 SHL AND SHR NOT AND SWAP1 SSTORE DUP14 DUP1 DUP1 PUSH2 0x8C7 JUMP JUMPDEST DUP2 DUP2 ADD MLOAD DUP4 SSTORE PUSH1 0x20 SWAP5 DUP6 ADD SWAP5 PUSH1 0x1 SWAP1 SWAP4 ADD SWAP3 SWAP1 SWAP2 ADD SWAP1 PUSH2 0x8AC JUMP JUMPDEST PUSH1 0x40 MLOAD PUSH3 0x461BCD PUSH1 0xE5 SHL DUP2 MSTORE PUSH1 0x20 PUSH1 0x4 DUP3 ADD MSTORE PUSH1 0xB PUSH1 0x24 DUP3 ADD MSTORE PUSH11 0x139BDD081CDD195DD85C99 PUSH1 0xAA SHL PUSH1 0x44 DUP3 ADD MSTORE PUSH1 0x64 SWAP1 REVERT JUMPDEST CALLVALUE PUSH2 0x152 JUMPI PUSH1 0x20 CALLDATASIZE PUSH1 0x3 NOT ADD SLT PUSH2 0x152 JUMPI PUSH1 0x4 CALLDATALOAD PUSH1 0x2 SLOAD DUP2 LT ISZERO PUSH2 0x152 JUMPI PUSH2 0x962 SWAP1 PUSH2 0x986 JUMP JUMPDEST PUSH2 0x70F JUMPI PUSH2 0x972 PUSH2 0x14E SWAP2 PUSH2 0xA49 JUMP JUMPDEST PUSH1 0x40 MLOAD SWAP2 DUP3 SWAP2 PUSH1 0x20 DUP4 MSTORE PUSH1 0x20 DUP4 ADD SWAP1 PUSH2 0xB12 JUMP JUMPDEST PUSH1 0x2 SLOAD DUP2 LT ISZERO PUSH2 0x9BD JUMPI PUSH1 0x2 PUSH1 0x0 MSTORE PUSH32 0x405787FA12A823E0F2B7631CC41B3BA8828B3321CA811111FA75CD3AA3BB5ACE ADD SWAP1 PUSH1 0x0 SWAP1 JUMP JUMPDEST PUSH4 0x4E487B71 PUSH1 0xE0 SHL PUSH1 0x0 MSTORE PUSH1 0x32 PUSH1 0x4 MSTORE PUSH1 0x24 PUSH1 0x0 REVERT JUMPDEST SWAP1 PUSH1 0x1 DUP3 DUP2 SHR SWAP3 AND DUP1 ISZERO PUSH2 0xA03 JUMPI JUMPDEST PUSH1 0x20 DUP4 LT EQ PUSH2 0x9ED JUMPI JUMP JUMPDEST PUSH4 0x4E487B71 PUSH1 0xE0 SHL PUSH1 0x0 MSTORE PUSH1 0x22 PUSH1 0x4 MSTORE PUSH1 0x24 PUSH1 0x0 REVERT JUMPDEST SWAP2 PUSH1 0x7F AND SWAP2 PUSH2 0x9E2 JUMP JUMPDEST PUSH1 0xA0 DUP2 ADD SWAP1 DUP2 LT PUSH1 0x1 PUSH1 0x1 PUSH1 0x40 SHL SUB DUP3 GT OR PUSH2 0x6F9 JUMPI PUSH1 0x40 MSTORE JUMP JUMPDEST SWAP1 PUSH1 0x1F DUP1 NOT SWAP2 ADD AND DUP2 ADD SWAP1 DUP2 LT PUSH1 0x1 PUSH1 0x1 PUSH1 0x40 SHL SUB DUP3 GT OR PUSH2 0x6F9 JUMPI PUSH1 0x40 MSTORE JUMP JUMPDEST SWAP1 PUSH1 0x40 MLOAD SWAP2 DUP3 PUSH1 0x0 DUP3 SLOAD SWAP3 PUSH2 0xA5D DUP5 PUSH2 0x9D3 JUMP JUMPDEST SWAP1 DUP2 DUP5 MSTORE PUSH1 0x1 SWAP5 DUP6 DUP2 AND SWAP1 DUP2 PUSH1 0x0 EQ PUSH2 0xACC JUMPI POP PUSH1 0x1 EQ PUSH2 0xA89 JUMPI JUMPDEST POP POP PUSH2 0xA87 SWAP3 POP SUB DUP4 PUSH2 0xA28 JUMP JUMPDEST JUMP JUMPDEST SWAP1 SWAP4 SWAP2 POP PUSH1 0x0 MSTORE PUSH1 0x20 SWAP1 DUP2 PUSH1 0x0 KECCAK256 SWAP4 PUSH1 0x0 SWAP2 JUMPDEST DUP2 DUP4 LT PUSH2 0xAB4 JUMPI POP POP PUSH2 0xA87 SWAP4 POP DUP3 ADD ADD CODESIZE DUP1 PUSH2 0xA79 JUMP JUMPDEST DUP6 SLOAD DUP9 DUP5 ADD DUP6 ADD MSTORE SWAP5 DUP6 ADD SWAP5 DUP8 SWAP5 POP SWAP2 DUP4 ADD SWAP2 PUSH2 0xA9C JUMP JUMPDEST SWAP2 POP POP PUSH2 0xA87 SWAP5 POP PUSH1 0x20 SWAP3 POP PUSH1 0xFF NOT AND DUP3 DUP5 ADD MSTORE ISZERO ISZERO PUSH1 0x5 SHL DUP3 ADD ADD CODESIZE DUP1 PUSH2 0xA79 JUMP JUMPDEST PUSH1 0x0 JUMPDEST DUP4 DUP2 LT PUSH2 0xB02 JUMPI POP POP PUSH1 0x0 SWAP2 ADD MSTORE JUMP JUMPDEST DUP2 DUP2 ADD MLOAD DUP4 DUP3 ADD MSTORE PUSH1 0x20 ADD PUSH2 0xAF2 JUMP JUMPDEST SWAP1 PUSH1 0x20 SWAP2 PUSH2 0xB2B DUP2 MLOAD DUP1 SWAP3 DUP2 DUP6 MSTORE DUP6 DUP1 DUP7 ADD SWAP2 ADD PUSH2 0xAEF JUMP JUMPDEST PUSH1 0x1F ADD PUSH1 0x1F NOT AND ADD ADD SWAP1 JUMP JUMPDEST SWAP2 DUP2 PUSH1 0x1F DUP5 ADD SLT ISZERO PUSH2 0x152 JUMPI DUP3 CALLDATALOAD SWAP2 PUSH1 0x1 PUSH1 0x1 PUSH1 0x40 SHL SUB DUP4 GT PUSH2 0x152 JUMPI PUSH1 0x20 DUP4 DUP2 DUP7 ADD SWAP6 ADD ADD GT PUSH2 0x152 JUMPI JUMP JUMPDEST SWAP3 SWAP2 SWAP3 PUSH1 0x1 PUSH1 0x1 PUSH1 0x40 SHL SUB DUP3 GT PUSH2 0x6F9 JUMPI PUSH1 0x40 MLOAD SWAP2 PUSH2 0xB8D PUSH1 0x1F DUP3 ADD PUSH1 0x1F NOT AND PUSH1 0x20 ADD DUP5 PUSH2 0xA28 JUMP JUMPDEST DUP3 SWAP5 DUP2 DUP5 MSTORE DUP2 DUP4 ADD GT PUSH2 0x152 JUMPI DUP3 DUP2 PUSH1 0x20 SWAP4 DUP5 PUSH1 0x0 SWAP7 ADD CALLDATACOPY ADD ADD MSTORE JUMP JUMPDEST SWAP1 PUSH1 0x1F DUP2 GT PUSH2 0xBB8 JUMPI POP POP POP JUMP JUMPDEST PUSH1 0x0 SWAP2 DUP3 MSTORE PUSH1 0x20 DUP3 KECCAK256 SWAP1 PUSH1 0x20 PUSH1 0x1F DUP6 ADD PUSH1 0x5 SHR DUP4 ADD SWAP5 LT PUSH2 0xBF4 JUMPI JUMPDEST PUSH1 0x1F ADD PUSH1 0x5 SHR ADD SWAP2 JUMPDEST DUP3 DUP2 LT PUSH2 0xBE9 JUMPI POP POP POP JUMP JUMPDEST DUP2 DUP2 SSTORE PUSH1 0x1 ADD PUSH2 0xBDD JUMP JUMPDEST SWAP1 SWAP3 POP DUP3 SWAP1 PUSH2 0xBD4 JUMP JUMPDEST SWAP1 DUP1 PUSH1 0x20 SWAP4 SWAP3 DUP2 DUP5 MSTORE DUP5 DUP5 ADD CALLDATACOPY PUSH1 0x0 DUP3 DUP3 ADD DUP5 ADD MSTORE PUSH1 0x1F ADD PUSH1 0x1F NOT AND ADD ADD SWAP1 JUMP INVALID LOG2 PUSH5 0x6970667358 0x22 SLT KECCAK256 SLT TIMESTAMP 0xA7 0xCD 0xB2 DIV 0xF 0xBA 0xBD 0xEB 0xE8 SLT PUSH29 0x390DDB9EEA2C52B1FDA7E9C92BE2546A5BAE7264736F6C634300081400 CALLER "},"methodIdentifiers":{"getGlyph(string)":"f351a29d","glyphs(string)":"f9864eb5","keys(uint256)":"0cb6aaf1","linkGlyph(string,address,string,string,string)":"48f58b7c","steward()":"637eea19","totalGlyphs()":"8592eebe"}}}}}