{"contracts/ApprenticeRegistry.sol":{"ApprenticeRegistry":{"abi":[{"anonymous":false,"inputs":[{"indexed":true,"internalType":"address","name":"apprentice","type":"address"},{"indexed":false,"internalType":"string","name":"name","type":"string"},{"indexed":false,"internalType":"string","name":"lineage","type":"string"}],"name":"ApprenticeCrowned","type":"event"},{"inputs":[{"internalType":"address","name":"","type":"address"}],"name":"apprentices","outputs":[{"internalType":"string","name":"name","type":"string"},{"internalType":"string","name":"lineage","type":"string"},{"internalType":"bool","name":"crowned","type":"bool"}],"stateMutability":"view","type":"function"},{"inputs":[{"internalType":"string","name":"name","type":"string"},{"internalType":"string","name":"lineage","type":"string"}],"name":"crown","outputs":[],"stateMutability":"nonpayable","type":"function"},{"inputs":[{"internalType":"address","name":"apprentice","type":"address"}],"name":"echo","outputs":[{"internalType":"string","name":"","type":"string"}],"stateMutability":"view","type":"function"}],"evm":{"bytecode":{"linkReferences":{},"object":"6080806040523461001657610758908161001c8239f35b600080fdfe608080604052600436101561001357600080fd5b60003560e01c9081632ffdbf1a14610435575080639dd62c6e146100cb5763c44547271461004057600080fd5b346100c65760203660031901126100c6576004356001600160a01b038116908190036100c65760005260006020526100ac604060002061007f816105f9565b906100ba60ff6002610093600185016105f9565b9301541691604051948594606086526060860190610506565b908482036020860152610506565b90151560408301520390f35b600080fd5b346100c65760403660031901126100c65760043567ffffffffffffffff81116100c6576100fc903690600401610568565b60243567ffffffffffffffff81116100c65761011c903690600401610568565b906040516060810181811067ffffffffffffffff82111761035b57604052818152826020820152600160408201523360005260006020526040600020815180519067ffffffffffffffff821161035b57819061017884546105bf565b601f81116103e2575b50602090601f831160011461037c57600092610371575b50508160011b916000199060031b1c19161781555b60018101602083015180519067ffffffffffffffff821161035b576101d283546105bf565b601f8111610313575b50602090601f831160011461027f57936102609593836040946002947f7ccf47401161065fc55176b5b489caf48c9ca3b1ac3acfa9fbdf2306eaa9e4399a98600092610274575b50508160011b916000199060031b1c19161790555b01910151151560ff8019835416911617905561026f604051928392604084526040840190610506565b82810360208401523395610506565b0390a2005b015190508b80610222565b90601f198316918460005260206000209260005b8181106102fb5750846002947f7ccf47401161065fc55176b5b489caf48c9ca3b1ac3acfa9fbdf2306eaa9e4399a98946102609a9894604098600195106102e2575b505050811b019055610237565b015160001960f88460031b161c191690558b80806102d5565b92936020600181928786015181550195019301610293565b836000526020600020601f840160051c81019160208510610351575b601f0160051c01905b81811061034557506101db565b60008155600101610338565b909150819061032f565b634e487b7160e01b600052604160045260246000fd5b015190508680610198565b6000858152602081209350601f198516905b8181106103ca57509084600195949392106103b1575b505050811b0181556101ad565b015160001960f88460031b161c191690558680806103a4565b9293602060018192878601518155019501930161038e565b909150836000526020600020601f840160051c8101916020851061042b575b90601f859493920160051c01905b81811061041c5750610181565b6000815584935060010161040f565b9091508190610401565b346100c6576020806003193601126100c6576004356001600160a01b03811692908390036100c657826000526000825260ff60026040600020015416156104d857506104b291600052600081526104c06040600020604051938491600160046104a08786018461069f565b6301037b3160e51b815201910161069f565b03601f198101845283610546565b6104d4604051928284938452830190610506565b0390f35b60649162461bcd60e51b82526004820152600b60248201526a139bdd0818dc9bdddb995960aa1b6044820152fd5b919082519283825260005b848110610532575050826000602080949584010152601f8019910116010190565b602081830181015184830182015201610511565b90601f8019910116810190811067ffffffffffffffff82111761035b57604052565b81601f820112156100c65780359067ffffffffffffffff821161035b576040519261059d601f8401601f191660200185610546565b828452602083830101116100c657816000926020809301838601378301015290565b90600182811c921680156105ef575b60208310146105d957565b634e487b7160e01b600052602260045260246000fd5b91607f16916105ce565b906040519182600082549261060d846105bf565b90818452600194858116908160001461067c5750600114610639575b505061063792500383610546565b565b9093915060005260209081600020936000915b81831061066457505061063793508201013880610629565b8554888401850152948501948794509183019161064c565b91505061063794506020925060ff191682840152151560051b8201013880610629565b6000929181546106ae816105bf565b9260019180831690811561070757506001146106cb575b50505050565b90919293945060005260209081600020906000915b8583106106f657505050500190388080806106c5565b8054858401529183019181016106e0565b60ff19168452505050811515909102019150388080806106c556fea2646970667358221220f1b554cbd74fc0ca23788101787492bb271e568fccc4d509f9121f4413c7e88764736f6c63430008140033","opcodes":"PUSH1 0x80 DUP1 PUSH1 0x40 MSTORE CALLVALUE PUSH2 0x16 JUMPI PUSH2 0x758 SWAP1 DUP2 PUSH2 0x1C DUP3 CODECOPY RETURN JUMPDEST PUSH1 0x0 DUP1 REVERT INVALID PUSH1 0x80 DUP1 PUSH1 0x40 MSTORE PUSH1 0x4 CALLDATASIZE LT ISZERO PUSH2 0x13 JUMPI PUSH1 0x0 DUP1 REVERT JUMPDEST PUSH1 0x0 CALLDATALOAD PUSH1 0xE0 SHR SWAP1 DUP2 PUSH4 0x2FFDBF1A EQ PUSH2 0x435 JUMPI POP DUP1 PUSH4 0x9DD62C6E EQ PUSH2 0xCB JUMPI PUSH4 0xC4454727 EQ PUSH2 0x40 JUMPI PUSH1 0x0 DUP1 REVERT JUMPDEST CALLVALUE PUSH2 0xC6 JUMPI PUSH1 0x20 CALLDATASIZE PUSH1 0x3 NOT ADD SLT PUSH2 0xC6 JUMPI PUSH1 0x4 CALLDATALOAD PUSH1 0x1 PUSH1 0x1 PUSH1 0xA0 SHL SUB DUP2 AND SWAP1 DUP2 SWAP1 SUB PUSH2 0xC6 JUMPI PUSH1 0x0 MSTORE PUSH1 0x0 PUSH1 0x20 MSTORE PUSH2 0xAC PUSH1 0x40 PUSH1 0x0 KECCAK256 PUSH2 0x7F DUP2 PUSH2 0x5F9 JUMP JUMPDEST SWAP1 PUSH2 0xBA PUSH1 0xFF PUSH1 0x2 PUSH2 0x93 PUSH1 0x1 DUP6 ADD PUSH2 0x5F9 JUMP JUMPDEST SWAP4 ADD SLOAD AND SWAP2 PUSH1 0x40 MLOAD SWAP5 DUP6 SWAP5 PUSH1 0x60 DUP7 MSTORE PUSH1 0x60 DUP7 ADD SWAP1 PUSH2 0x506 JUMP JUMPDEST SWAP1 DUP5 DUP3 SUB PUSH1 0x20 DUP7 ADD MSTORE PUSH2 0x506 JUMP JUMPDEST SWAP1 ISZERO ISZERO PUSH1 0x40 DUP4 ADD MSTORE SUB SWAP1 RETURN JUMPDEST PUSH1 0x0 DUP1 REVERT JUMPDEST CALLVALUE PUSH2 0xC6 JUMPI PUSH1 0x40 CALLDATASIZE PUSH1 0x3 NOT ADD SLT PUSH2 0xC6 JUMPI PUSH1 0x4 CALLDATALOAD PUSH8 0xFFFFFFFFFFFFFFFF DUP2 GT PUSH2 0xC6 JUMPI PUSH2 0xFC SWAP1 CALLDATASIZE SWAP1 PUSH1 0x4 ADD PUSH2 0x568 JUMP JUMPDEST PUSH1 0x24 CALLDATALOAD PUSH8 0xFFFFFFFFFFFFFFFF DUP2 GT PUSH2 0xC6 JUMPI PUSH2 0x11C SWAP1 CALLDATASIZE SWAP1 PUSH1 0x4 ADD PUSH2 0x568 JUMP JUMPDEST SWAP1 PUSH1 0x40 MLOAD PUSH1 0x60 DUP2 ADD DUP2 DUP2 LT PUSH8 0xFFFFFFFFFFFFFFFF DUP3 GT OR PUSH2 0x35B JUMPI PUSH1 0x40 MSTORE DUP2 DUP2 MSTORE DUP3 PUSH1 0x20 DUP3 ADD MSTORE PUSH1 0x1 PUSH1 0x40 DUP3 ADD MSTORE CALLER PUSH1 0x0 MSTORE PUSH1 0x0 PUSH1 0x20 MSTORE PUSH1 0x40 PUSH1 0x0 KECCAK256 DUP2 MLOAD DUP1 MLOAD SWAP1 PUSH8 0xFFFFFFFFFFFFFFFF DUP3 GT PUSH2 0x35B JUMPI DUP2 SWAP1 PUSH2 0x178 DUP5 SLOAD PUSH2 0x5BF JUMP JUMPDEST PUSH1 0x1F DUP2 GT PUSH2 0x3E2 JUMPI JUMPDEST POP PUSH1 0x20 SWAP1 PUSH1 0x1F DUP4 GT PUSH1 0x1 EQ PUSH2 0x37C JUMPI PUSH1 0x0 SWAP3 PUSH2 0x371 JUMPI JUMPDEST POP POP DUP2 PUSH1 0x1 SHL SWAP2 PUSH1 0x0 NOT SWAP1 PUSH1 0x3 SHL SHR NOT AND OR DUP2 SSTORE JUMPDEST PUSH1 0x1 DUP2 ADD PUSH1 0x20 DUP4 ADD MLOAD DUP1 MLOAD SWAP1 PUSH8 0xFFFFFFFFFFFFFFFF DUP3 GT PUSH2 0x35B JUMPI PUSH2 0x1D2 DUP4 SLOAD PUSH2 0x5BF JUMP JUMPDEST PUSH1 0x1F DUP2 GT PUSH2 0x313 JUMPI JUMPDEST POP PUSH1 0x20 SWAP1 PUSH1 0x1F DUP4 GT PUSH1 0x1 EQ PUSH2 0x27F JUMPI SWAP4 PUSH2 0x260 SWAP6 SWAP4 DUP4 PUSH1 0x40 SWAP5 PUSH1 0x2 SWAP5 PUSH32 0x7CCF47401161065FC55176B5B489CAF48C9CA3B1AC3ACFA9FBDF2306EAA9E439 SWAP11 SWAP9 PUSH1 0x0 SWAP3 PUSH2 0x274 JUMPI JUMPDEST POP POP DUP2 PUSH1 0x1 SHL SWAP2 PUSH1 0x0 NOT SWAP1 PUSH1 0x3 SHL SHR NOT AND OR SWAP1 SSTORE JUMPDEST ADD SWAP2 ADD MLOAD ISZERO ISZERO PUSH1 0xFF DUP1 NOT DUP4 SLOAD AND SWAP2 AND OR SWAP1 SSTORE PUSH2 0x26F PUSH1 0x40 MLOAD SWAP3 DUP4 SWAP3 PUSH1 0x40 DUP5 MSTORE PUSH1 0x40 DUP5 ADD SWAP1 PUSH2 0x506 JUMP JUMPDEST DUP3 DUP2 SUB PUSH1 0x20 DUP5 ADD MSTORE CALLER SWAP6 PUSH2 0x506 JUMP JUMPDEST SUB SWAP1 LOG2 STOP JUMPDEST ADD MLOAD SWAP1 POP DUP12 DUP1 PUSH2 0x222 JUMP JUMPDEST SWAP1 PUSH1 0x1F NOT DUP4 AND SWAP2 DUP5 PUSH1 0x0 MSTORE PUSH1 0x20 PUSH1 0x0 KECCAK256 SWAP3 PUSH1 0x0 JUMPDEST DUP2 DUP2 LT PUSH2 0x2FB JUMPI POP DUP5 PUSH1 0x2 SWAP5 PUSH32 0x7CCF47401161065FC55176B5B489CAF48C9CA3B1AC3ACFA9FBDF2306EAA9E439 SWAP11 SWAP9 SWAP5 PUSH2 0x260 SWAP11 SWAP9 SWAP5 PUSH1 0x40 SWAP9 PUSH1 0x1 SWAP6 LT PUSH2 0x2E2 JUMPI JUMPDEST POP POP POP DUP2 SHL ADD SWAP1 SSTORE PUSH2 0x237 JUMP JUMPDEST ADD MLOAD PUSH1 0x0 NOT PUSH1 0xF8 DUP5 PUSH1 0x3 SHL AND SHR NOT AND SWAP1 SSTORE DUP12 DUP1 DUP1 PUSH2 0x2D5 JUMP JUMPDEST SWAP3 SWAP4 PUSH1 0x20 PUSH1 0x1 DUP2 SWAP3 DUP8 DUP7 ADD MLOAD DUP2 SSTORE ADD SWAP6 ADD SWAP4 ADD PUSH2 0x293 JUMP JUMPDEST DUP4 PUSH1 0x0 MSTORE PUSH1 0x20 PUSH1 0x0 KECCAK256 PUSH1 0x1F DUP5 ADD PUSH1 0x5 SHR DUP2 ADD SWAP2 PUSH1 0x20 DUP6 LT PUSH2 0x351 JUMPI JUMPDEST PUSH1 0x1F ADD PUSH1 0x5 SHR ADD SWAP1 JUMPDEST DUP2 DUP2 LT PUSH2 0x345 JUMPI POP PUSH2 0x1DB JUMP JUMPDEST PUSH1 0x0 DUP2 SSTORE PUSH1 0x1 ADD PUSH2 0x338 JUMP JUMPDEST SWAP1 SWAP2 POP DUP2 SWAP1 PUSH2 0x32F JUMP JUMPDEST PUSH4 0x4E487B71 PUSH1 0xE0 SHL PUSH1 0x0 MSTORE PUSH1 0x41 PUSH1 0x4 MSTORE PUSH1 0x24 PUSH1 0x0 REVERT JUMPDEST ADD MLOAD SWAP1 POP DUP7 DUP1 PUSH2 0x198 JUMP JUMPDEST PUSH1 0x0 DUP6 DUP2 MSTORE PUSH1 0x20 DUP2 KECCAK256 SWAP4 POP PUSH1 0x1F NOT DUP6 AND SWAP1 JUMPDEST DUP2 DUP2 LT PUSH2 0x3CA JUMPI POP SWAP1 DUP5 PUSH1 0x1 SWAP6 SWAP5 SWAP4 SWAP3 LT PUSH2 0x3B1 JUMPI JUMPDEST POP POP POP DUP2 SHL ADD DUP2 SSTORE PUSH2 0x1AD JUMP JUMPDEST ADD MLOAD PUSH1 0x0 NOT PUSH1 0xF8 DUP5 PUSH1 0x3 SHL AND SHR NOT AND SWAP1 SSTORE DUP7 DUP1 DUP1 PUSH2 0x3A4 JUMP JUMPDEST SWAP3 SWAP4 PUSH1 0x20 PUSH1 0x1 DUP2 SWAP3 DUP8 DUP7 ADD MLOAD DUP2 SSTORE ADD SWAP6 ADD SWAP4 ADD PUSH2 0x38E JUMP JUMPDEST SWAP1 SWAP2 POP DUP4 PUSH1 0x0 MSTORE PUSH1 0x20 PUSH1 0x0 KECCAK256 PUSH1 0x1F DUP5 ADD PUSH1 0x5 SHR DUP2 ADD SWAP2 PUSH1 0x20 DUP6 LT PUSH2 0x42B JUMPI JUMPDEST SWAP1 PUSH1 0x1F DUP6 SWAP5 SWAP4 SWAP3 ADD PUSH1 0x5 SHR ADD SWAP1 JUMPDEST DUP2 DUP2 LT PUSH2 0x41C JUMPI POP PUSH2 0x181 JUMP JUMPDEST PUSH1 0x0 DUP2 SSTORE DUP5 SWAP4 POP PUSH1 0x1 ADD PUSH2 0x40F JUMP JUMPDEST SWAP1 SWAP2 POP DUP2 SWAP1 PUSH2 0x401 JUMP JUMPDEST CALLVALUE PUSH2 0xC6 JUMPI PUSH1 0x20 DUP1 PUSH1 0x3 NOT CALLDATASIZE ADD SLT PUSH2 0xC6 JUMPI PUSH1 0x4 CALLDATALOAD PUSH1 0x1 PUSH1 0x1 PUSH1 0xA0 SHL SUB DUP2 AND SWAP3 SWAP1 DUP4 SWAP1 SUB PUSH2 0xC6 JUMPI DUP3 PUSH1 0x0 MSTORE PUSH1 0x0 DUP3 MSTORE PUSH1 0xFF PUSH1 0x2 PUSH1 0x40 PUSH1 0x0 KECCAK256 ADD SLOAD AND ISZERO PUSH2 0x4D8 JUMPI POP PUSH2 0x4B2 SWAP2 PUSH1 0x0 MSTORE PUSH1 0x0 DUP2 MSTORE PUSH2 0x4C0 PUSH1 0x40 PUSH1 0x0 KECCAK256 PUSH1 0x40 MLOAD SWAP4 DUP5 SWAP2 PUSH1 0x1 PUSH1 0x4 PUSH2 0x4A0 DUP8 DUP7 ADD DUP5 PUSH2 0x69F JUMP JUMPDEST PUSH4 0x1037B31 PUSH1 0xE5 SHL DUP2 MSTORE ADD SWAP2 ADD PUSH2 0x69F JUMP JUMPDEST SUB PUSH1 0x1F NOT DUP2 ADD DUP5 MSTORE DUP4 PUSH2 0x546 JUMP JUMPDEST PUSH2 0x4D4 PUSH1 0x40 MLOAD SWAP3 DUP3 DUP5 SWAP4 DUP5 MSTORE DUP4 ADD SWAP1 PUSH2 0x506 JUMP JUMPDEST SUB SWAP1 RETURN JUMPDEST PUSH1 0x64 SWAP2 PUSH3 0x461BCD PUSH1 0xE5 SHL DUP3 MSTORE PUSH1 0x4 DUP3 ADD MSTORE PUSH1 0xB PUSH1 0x24 DUP3 ADD MSTORE PUSH11 0x139BDD0818DC9BDDDB9959 PUSH1 0xAA SHL PUSH1 0x44 DUP3 ADD MSTORE REVERT JUMPDEST SWAP2 SWAP1 DUP3 MLOAD SWAP3 DUP4 DUP3 MSTORE PUSH1 0x0 JUMPDEST DUP5 DUP2 LT PUSH2 0x532 JUMPI POP POP DUP3 PUSH1 0x0 PUSH1 0x20 DUP1 SWAP5 SWAP6 DUP5 ADD ADD MSTORE PUSH1 0x1F DUP1 NOT SWAP2 ADD AND ADD ADD SWAP1 JUMP JUMPDEST PUSH1 0x20 DUP2 DUP4 ADD DUP2 ADD MLOAD DUP5 DUP4 ADD DUP3 ADD MSTORE ADD PUSH2 0x511 JUMP JUMPDEST SWAP1 PUSH1 0x1F DUP1 NOT SWAP2 ADD AND DUP2 ADD SWAP1 DUP2 LT PUSH8 0xFFFFFFFFFFFFFFFF DUP3 GT OR PUSH2 0x35B JUMPI PUSH1 0x40 MSTORE JUMP JUMPDEST DUP2 PUSH1 0x1F DUP3 ADD SLT ISZERO PUSH2 0xC6 JUMPI DUP1 CALLDATALOAD SWAP1 PUSH8 0xFFFFFFFFFFFFFFFF DUP3 GT PUSH2 0x35B JUMPI PUSH1 0x40 MLOAD SWAP3 PUSH2 0x59D PUSH1 0x1F DUP5 ADD PUSH1 0x1F NOT AND PUSH1 0x20 ADD DUP6 PUSH2 0x546 JUMP JUMPDEST DUP3 DUP5 MSTORE PUSH1 0x20 DUP4 DUP4 ADD ADD GT PUSH2 0xC6 JUMPI DUP2 PUSH1 0x0 SWAP3 PUSH1 0x20 DUP1 SWAP4 ADD DUP4 DUP7 ADD CALLDATACOPY DUP4 ADD ADD MSTORE SWAP1 JUMP JUMPDEST SWAP1 PUSH1 0x1 DUP3 DUP2 SHR SWAP3 AND DUP1 ISZERO PUSH2 0x5EF JUMPI JUMPDEST PUSH1 0x20 DUP4 LT EQ PUSH2 0x5D9 JUMPI JUMP JUMPDEST PUSH4 0x4E487B71 PUSH1 0xE0 SHL PUSH1 0x0 MSTORE PUSH1 0x22 PUSH1 0x4 MSTORE PUSH1 0x24 PUSH1 0x0 REVERT JUMPDEST SWAP2 PUSH1 0x7F AND SWAP2 PUSH2 0x5CE JUMP JUMPDEST SWAP1 PUSH1 0x40 MLOAD SWAP2 DUP3 PUSH1 0x0 DUP3 SLOAD SWAP3 PUSH2 0x60D DUP5 PUSH2 0x5BF JUMP JUMPDEST SWAP1 DUP2 DUP5 MSTORE PUSH1 0x1 SWAP5 DUP6 DUP2 AND SWAP1 DUP2 PUSH1 0x0 EQ PUSH2 0x67C JUMPI POP PUSH1 0x1 EQ PUSH2 0x639 JUMPI JUMPDEST POP POP PUSH2 0x637 SWAP3 POP SUB DUP4 PUSH2 0x546 JUMP JUMPDEST JUMP JUMPDEST SWAP1 SWAP4 SWAP2 POP PUSH1 0x0 MSTORE PUSH1 0x20 SWAP1 DUP2 PUSH1 0x0 KECCAK256 SWAP4 PUSH1 0x0 SWAP2 JUMPDEST DUP2 DUP4 LT PUSH2 0x664 JUMPI POP POP PUSH2 0x637 SWAP4 POP DUP3 ADD ADD CODESIZE DUP1 PUSH2 0x629 JUMP JUMPDEST DUP6 SLOAD DUP9 DUP5 ADD DUP6 ADD MSTORE SWAP5 DUP6 ADD SWAP5 DUP8 SWAP5 POP SWAP2 DUP4 ADD SWAP2 PUSH2 0x64C JUMP JUMPDEST SWAP2 POP POP PUSH2 0x637 SWAP5 POP PUSH1 0x20 SWAP3 POP PUSH1 0xFF NOT AND DUP3 DUP5 ADD MSTORE ISZERO ISZERO PUSH1 0x5 SHL DUP3 ADD ADD CODESIZE DUP1 PUSH2 0x629 JUMP JUMPDEST PUSH1 0x0 SWAP3 SWAP2 DUP2 SLOAD PUSH2 0x6AE DUP2 PUSH2 0x5BF JUMP JUMPDEST SWAP3 PUSH1 0x1 SWAP2 DUP1 DUP4 AND SWAP1 DUP2 ISZERO PUSH2 0x707 JUMPI POP PUSH1 0x1 EQ PUSH2 0x6CB JUMPI JUMPDEST POP POP POP POP JUMP JUMPDEST SWAP1 SWAP2 SWAP3 SWAP4 SWAP5 POP PUSH1 0x0 MSTORE PUSH1 0x20 SWAP1 DUP2 PUSH1 0x0 KECCAK256 SWAP1 PUSH1 0x0 SWAP2 JUMPDEST DUP6 DUP4 LT PUSH2 0x6F6 JUMPI POP POP POP POP ADD SWAP1 CODESIZE DUP1 DUP1 DUP1 PUSH2 0x6C5 JUMP JUMPDEST DUP1 SLOAD DUP6 DUP5 ADD MSTORE SWAP2 DUP4 ADD SWAP2 DUP2 ADD PUSH2 0x6E0 JUMP JUMPDEST PUSH1 0xFF NOT AND DUP5 MSTORE POP POP POP DUP2 ISZERO ISZERO SWAP1 SWAP2 MUL ADD SWAP2 POP CODESIZE DUP1 DUP1 DUP1 PUSH2 0x6C5 JUMP INVALID LOG2 PUSH5 0x6970667358 0x22 SLT KECCAK256 CALL 0xB5 SLOAD 0xCB 0xD7 0x4F 0xC0 0xCA 0x23 PUSH25 0x8101787492BB271E568FCCC4D509F9121F4413C7E88764736F PUSH13 0x63430008140033000000000000 "},"methodIdentifiers":{"apprentices(address)":"c4454727","crown(string,string)":"9dd62c6e","echo(address)":"2ffdbf1a"}}}}}