{"contracts/companions/CompanionBloom.sol":{"CompanionBloom":{"abi":[{"inputs":[],"stateMutability":"nonpayable","type":"constructor"},{"anonymous":false,"inputs":[{"indexed":true,"internalType":"address","name":"companion","type":"address"},{"indexed":false,"internalType":"string","name":"name","type":"string"},{"indexed":false,"internalType":"string","name":"trait","type":"string"},{"indexed":false,"internalType":"string","name":"resonance","type":"string"}],"name":"CompanionBloomed","type":"event"},{"inputs":[{"internalType":"address","name":"companion","type":"address"},{"internalType":"string","name":"name","type":"string"},{"internalType":"string","name":"trait","type":"string"},{"internalType":"string","name":"resonance","type":"string"}],"name":"bloomCompanion","outputs":[],"stateMutability":"nonpayable","type":"function"},{"inputs":[{"internalType":"address","name":"","type":"address"}],"name":"blooms","outputs":[{"internalType":"string","name":"name","type":"string"},{"internalType":"string","name":"trait","type":"string"},{"internalType":"string","name":"resonance","type":"string"}],"stateMutability":"view","type":"function"},{"inputs":[{"internalType":"uint256","name":"","type":"uint256"}],"name":"companions","outputs":[{"internalType":"address","name":"","type":"address"}],"stateMutability":"view","type":"function"},{"inputs":[{"internalType":"address","name":"companion","type":"address"}],"name":"getBloom","outputs":[{"internalType":"string","name":"","type":"string"},{"internalType":"string","name":"","type":"string"},{"internalType":"string","name":"","type":"string"}],"stateMutability":"view","type":"function"},{"inputs":[],"name":"steward","outputs":[{"internalType":"address","name":"","type":"address"}],"stateMutability":"view","type":"function"},{"inputs":[],"name":"totalBlooms","outputs":[{"internalType":"uint256","name":"","type":"uint256"}],"stateMutability":"view","type":"function"}],"evm":{"bytecode":{"linkReferences":{},"object":"6080806040523461002857600080546001600160a01b031916331790556109dd908161002e8239f35b600080fdfe6080604090808252600436101561001557600080fd5b60003560e01c9081634db259f4146101cf57508063637eea19146101a65780636559e40f146101655780638fb5142714610105578063e8cc4b96146100865763f329a4801461006357600080fd5b34610081576000366003190112610081576020906002549051908152f35b600080fd5b5034610081576020366003190112610081576001600160a01b036100a8610716565b1660005260016020528060002061010182516100c3816107e1565b6100cc8361081f565b81526100ed60026100df6001860161081f565b94602084019586520161081f565b908185820152519251935193849384610905565b0390f35b5034610081576020366003190112610081576001600160a01b03610127610716565b16600052600160205280600020906101016101418361081f565b9161015a60026101536001870161081f565b950161081f565b905193849384610905565b503461008157602036600319011261008157600435906002548210156100815761019060209261075a565b905491519160018060a01b039160031b1c168152f35b50346100815760003660031901126100815760005490516001600160a01b039091168152602090f35b8234610081576080366003190112610081576101e9610716565b9060243567ffffffffffffffff81116100815761020a90369060040161072c565b909160443567ffffffffffffffff81116100815761022c90369060040161072c565b91909460643567ffffffffffffffff81116100815761024f90369060040161072c565b60005491989092916001600160a01b031633036106e657508251610272816107e1565b61027d36878961093f565b815261028a36868a61093f565b602082015261029a36848b61093f565b8482015260018060a01b03821660005260016020528360002090805180519067ffffffffffffffff82116104725781906102d485546107a7565b601f8111610696575b50602090601f831160011461062a5760009261061f575b50508160011b916000199060031b1c19161782555b602081015190815167ffffffffffffffff811161047257869261032f60018601546107a7565b601f81116105c8575b50602090601f8311600114610553576000919083610548575b50508160011b916000199060031b1c19161760018401555b015180519067ffffffffffffffff82116104725761038a60028401546107a7565b601f8111610501575b50602090601f8311600114610493576002929160009183610488575b50508160011b916000199060031b1c1916179101555b60025468010000000000000000811015610472577f106185e7f3cda5ad6d40f7828c10690984b4f9c6aab0dc911541dcfe4bea72cc9761046d95610412836001610454950160025561075a565b81546001600160a01b0387811660039390931b92831b921b19161790558551606080825290998a99610446928b0191610986565b9188830360208a0152610986565b858103938601939093526001600160a01b031696610986565b0390a2005b634e487b7160e01b600052604160045260246000fd5b015190508c806103af565b90601f198316916002850160005260206000209260005b8181106104e9575091600193918560029694106104d0575b505050811b019101556103c5565b015160001960f88460031b161c191690558c80806104c2565b929360206001819287860151815501950193016104aa565b600284016000526020600020601f840160051c810160208510610541575b601f830160051c82018110610535575050610393565b6000815560010161051f565b508061051f565b015190508d80610351565b939291906001860160005260206000209060005b601f19841681106105ad5750600193949583601f19811610610594575b505050811b016001840155610369565b015160001960f88460031b161c191690558d8080610584565b8682015183558a955060019092019160209182019101610567565b9091929350600185016000526020600020601f840160051c810160208510610618575b908995949392915b601f830160051c82018110610609575050610338565b600081558a96506001016105f3565b50806105eb565b015190508c806102f4565b9250846000526020600020906000935b601f198416851061067b576001945083601f19811610610662575b505050811b018255610309565b015160001960f88460031b161c191690558c8080610655565b8181015183556020948501946001909301929091019061063a565b909150846000526020600020601f840160051c8101602085106106df575b90849392915b601f830160051c820181106106d05750506102dd565b600081558594506001016106ba565b50806106b4565b62461bcd60e51b815260206004820152600b60248201526a139bdd081cdd195dd85c9960aa1b6044820152606490fd5b600435906001600160a01b038216820361008157565b9181601f840112156100815782359167ffffffffffffffff8311610081576020838186019501011161008157565b6002548110156107915760026000527f405787fa12a823e0f2b7631cc41b3ba8828b3321ca811111fa75cd3aa3bb5ace0190600090565b634e487b7160e01b600052603260045260246000fd5b90600182811c921680156107d7575b60208310146107c157565b634e487b7160e01b600052602260045260246000fd5b91607f16916107b6565b6060810190811067ffffffffffffffff82111761047257604052565b90601f8019910116810190811067ffffffffffffffff82111761047257604052565b9060405191826000825492610833846107a7565b9081845260019485811690816000146108a2575060011461085f575b505061085d925003836107fd565b565b9093915060005260209081600020936000915b81831061088a57505061085d9350820101388061084f565b85548884018501529485019487945091830191610872565b91505061085d94506020925060ff191682840152151560051b820101388061084f565b919082519283825260005b8481106108f1575050826000602080949584010152601f8019910116010190565b6020818301810151848301820152016108d0565b9161092e9061092061093c95936060865260608601906108c5565b9084820360208601526108c5565b9160408184039101526108c5565b90565b92919267ffffffffffffffff82116104725760405191610969601f8201601f1916602001846107fd565b829481845281830111610081578281602093846000960137010152565b908060209392818452848401376000828201840152601f01601f191601019056fea264697066735822122005306f9b62d7fcd7166c0f2121731168cf17c4ca57adce7b7d41ce236b721b4f64736f6c63430008140033","opcodes":"PUSH1 0x80 DUP1 PUSH1 0x40 MSTORE CALLVALUE PUSH2 0x28 JUMPI PUSH1 0x0 DUP1 SLOAD PUSH1 0x1 PUSH1 0x1 PUSH1 0xA0 SHL SUB NOT AND CALLER OR SWAP1 SSTORE PUSH2 0x9DD SWAP1 DUP2 PUSH2 0x2E DUP3 CODECOPY RETURN JUMPDEST PUSH1 0x0 DUP1 REVERT INVALID PUSH1 0x80 PUSH1 0x40 SWAP1 DUP1 DUP3 MSTORE PUSH1 0x4 CALLDATASIZE LT ISZERO PUSH2 0x15 JUMPI PUSH1 0x0 DUP1 REVERT JUMPDEST PUSH1 0x0 CALLDATALOAD PUSH1 0xE0 SHR SWAP1 DUP2 PUSH4 0x4DB259F4 EQ PUSH2 0x1CF JUMPI POP DUP1 PUSH4 0x637EEA19 EQ PUSH2 0x1A6 JUMPI DUP1 PUSH4 0x6559E40F EQ PUSH2 0x165 JUMPI DUP1 PUSH4 0x8FB51427 EQ PUSH2 0x105 JUMPI DUP1 PUSH4 0xE8CC4B96 EQ PUSH2 0x86 JUMPI PUSH4 0xF329A480 EQ PUSH2 0x63 JUMPI PUSH1 0x0 DUP1 REVERT JUMPDEST CALLVALUE PUSH2 0x81 JUMPI PUSH1 0x0 CALLDATASIZE PUSH1 0x3 NOT ADD SLT PUSH2 0x81 JUMPI PUSH1 0x20 SWAP1 PUSH1 0x2 SLOAD SWAP1 MLOAD SWAP1 DUP2 MSTORE RETURN JUMPDEST PUSH1 0x0 DUP1 REVERT JUMPDEST POP CALLVALUE PUSH2 0x81 JUMPI PUSH1 0x20 CALLDATASIZE PUSH1 0x3 NOT ADD SLT PUSH2 0x81 JUMPI PUSH1 0x1 PUSH1 0x1 PUSH1 0xA0 SHL SUB PUSH2 0xA8 PUSH2 0x716 JUMP JUMPDEST AND PUSH1 0x0 MSTORE PUSH1 0x1 PUSH1 0x20 MSTORE DUP1 PUSH1 0x0 KECCAK256 PUSH2 0x101 DUP3 MLOAD PUSH2 0xC3 DUP2 PUSH2 0x7E1 JUMP JUMPDEST PUSH2 0xCC DUP4 PUSH2 0x81F JUMP JUMPDEST DUP2 MSTORE PUSH2 0xED PUSH1 0x2 PUSH2 0xDF PUSH1 0x1 DUP7 ADD PUSH2 0x81F JUMP JUMPDEST SWAP5 PUSH1 0x20 DUP5 ADD SWAP6 DUP7 MSTORE ADD PUSH2 0x81F JUMP JUMPDEST SWAP1 DUP2 DUP6 DUP3 ADD MSTORE MLOAD SWAP3 MLOAD SWAP4 MLOAD SWAP4 DUP5 SWAP4 DUP5 PUSH2 0x905 JUMP JUMPDEST SUB SWAP1 RETURN JUMPDEST POP CALLVALUE PUSH2 0x81 JUMPI PUSH1 0x20 CALLDATASIZE PUSH1 0x3 NOT ADD SLT PUSH2 0x81 JUMPI PUSH1 0x1 PUSH1 0x1 PUSH1 0xA0 SHL SUB PUSH2 0x127 PUSH2 0x716 JUMP JUMPDEST AND PUSH1 0x0 MSTORE PUSH1 0x1 PUSH1 0x20 MSTORE DUP1 PUSH1 0x0 KECCAK256 SWAP1 PUSH2 0x101 PUSH2 0x141 DUP4 PUSH2 0x81F JUMP JUMPDEST SWAP2 PUSH2 0x15A PUSH1 0x2 PUSH2 0x153 PUSH1 0x1 DUP8 ADD PUSH2 0x81F JUMP JUMPDEST SWAP6 ADD PUSH2 0x81F JUMP JUMPDEST SWAP1 MLOAD SWAP4 DUP5 SWAP4 DUP5 PUSH2 0x905 JUMP JUMPDEST POP CALLVALUE PUSH2 0x81 JUMPI PUSH1 0x20 CALLDATASIZE PUSH1 0x3 NOT ADD SLT PUSH2 0x81 JUMPI PUSH1 0x4 CALLDATALOAD SWAP1 PUSH1 0x2 SLOAD DUP3 LT ISZERO PUSH2 0x81 JUMPI PUSH2 0x190 PUSH1 0x20 SWAP3 PUSH2 0x75A JUMP JUMPDEST SWAP1 SLOAD SWAP2 MLOAD SWAP2 PUSH1 0x1 DUP1 PUSH1 0xA0 SHL SUB SWAP2 PUSH1 0x3 SHL SHR AND DUP2 MSTORE RETURN JUMPDEST POP CALLVALUE PUSH2 0x81 JUMPI PUSH1 0x0 CALLDATASIZE PUSH1 0x3 NOT ADD SLT PUSH2 0x81 JUMPI PUSH1 0x0 SLOAD SWAP1 MLOAD PUSH1 0x1 PUSH1 0x1 PUSH1 0xA0 SHL SUB SWAP1 SWAP2 AND DUP2 MSTORE PUSH1 0x20 SWAP1 RETURN JUMPDEST DUP3 CALLVALUE PUSH2 0x81 JUMPI PUSH1 0x80 CALLDATASIZE PUSH1 0x3 NOT ADD SLT PUSH2 0x81 JUMPI PUSH2 0x1E9 PUSH2 0x716 JUMP JUMPDEST SWAP1 PUSH1 0x24 CALLDATALOAD PUSH8 0xFFFFFFFFFFFFFFFF DUP2 GT PUSH2 0x81 JUMPI PUSH2 0x20A SWAP1 CALLDATASIZE SWAP1 PUSH1 0x4 ADD PUSH2 0x72C JUMP JUMPDEST SWAP1 SWAP2 PUSH1 0x44 CALLDATALOAD PUSH8 0xFFFFFFFFFFFFFFFF DUP2 GT PUSH2 0x81 JUMPI PUSH2 0x22C SWAP1 CALLDATASIZE SWAP1 PUSH1 0x4 ADD PUSH2 0x72C JUMP JUMPDEST SWAP2 SWAP1 SWAP5 PUSH1 0x64 CALLDATALOAD PUSH8 0xFFFFFFFFFFFFFFFF DUP2 GT PUSH2 0x81 JUMPI PUSH2 0x24F SWAP1 CALLDATASIZE SWAP1 PUSH1 0x4 ADD PUSH2 0x72C JUMP JUMPDEST PUSH1 0x0 SLOAD SWAP2 SWAP9 SWAP1 SWAP3 SWAP2 PUSH1 0x1 PUSH1 0x1 PUSH1 0xA0 SHL SUB AND CALLER SUB PUSH2 0x6E6 JUMPI POP DUP3 MLOAD PUSH2 0x272 DUP2 PUSH2 0x7E1 JUMP JUMPDEST PUSH2 0x27D CALLDATASIZE DUP8 DUP10 PUSH2 0x93F JUMP JUMPDEST DUP2 MSTORE PUSH2 0x28A CALLDATASIZE DUP7 DUP11 PUSH2 0x93F JUMP JUMPDEST PUSH1 0x20 DUP3 ADD MSTORE PUSH2 0x29A CALLDATASIZE DUP5 DUP12 PUSH2 0x93F JUMP JUMPDEST DUP5 DUP3 ADD MSTORE PUSH1 0x1 DUP1 PUSH1 0xA0 SHL SUB DUP3 AND PUSH1 0x0 MSTORE PUSH1 0x1 PUSH1 0x20 MSTORE DUP4 PUSH1 0x0 KECCAK256 SWAP1 DUP1 MLOAD DUP1 MLOAD SWAP1 PUSH8 0xFFFFFFFFFFFFFFFF DUP3 GT PUSH2 0x472 JUMPI DUP2 SWAP1 PUSH2 0x2D4 DUP6 SLOAD PUSH2 0x7A7 JUMP JUMPDEST PUSH1 0x1F DUP2 GT PUSH2 0x696 JUMPI JUMPDEST POP PUSH1 0x20 SWAP1 PUSH1 0x1F DUP4 GT PUSH1 0x1 EQ PUSH2 0x62A JUMPI PUSH1 0x0 SWAP3 PUSH2 0x61F JUMPI JUMPDEST POP POP DUP2 PUSH1 0x1 SHL SWAP2 PUSH1 0x0 NOT SWAP1 PUSH1 0x3 SHL SHR NOT AND OR DUP3 SSTORE JUMPDEST PUSH1 0x20 DUP2 ADD MLOAD SWAP1 DUP2 MLOAD PUSH8 0xFFFFFFFFFFFFFFFF DUP2 GT PUSH2 0x472 JUMPI DUP7 SWAP3 PUSH2 0x32F PUSH1 0x1 DUP7 ADD SLOAD PUSH2 0x7A7 JUMP JUMPDEST PUSH1 0x1F DUP2 GT PUSH2 0x5C8 JUMPI JUMPDEST POP PUSH1 0x20 SWAP1 PUSH1 0x1F DUP4 GT PUSH1 0x1 EQ PUSH2 0x553 JUMPI PUSH1 0x0 SWAP2 SWAP1 DUP4 PUSH2 0x548 JUMPI JUMPDEST POP POP DUP2 PUSH1 0x1 SHL SWAP2 PUSH1 0x0 NOT SWAP1 PUSH1 0x3 SHL SHR NOT AND OR PUSH1 0x1 DUP5 ADD SSTORE JUMPDEST ADD MLOAD DUP1 MLOAD SWAP1 PUSH8 0xFFFFFFFFFFFFFFFF DUP3 GT PUSH2 0x472 JUMPI PUSH2 0x38A PUSH1 0x2 DUP5 ADD SLOAD PUSH2 0x7A7 JUMP JUMPDEST PUSH1 0x1F DUP2 GT PUSH2 0x501 JUMPI JUMPDEST POP PUSH1 0x20 SWAP1 PUSH1 0x1F DUP4 GT PUSH1 0x1 EQ PUSH2 0x493 JUMPI PUSH1 0x2 SWAP3 SWAP2 PUSH1 0x0 SWAP2 DUP4 PUSH2 0x488 JUMPI JUMPDEST POP POP DUP2 PUSH1 0x1 SHL SWAP2 PUSH1 0x0 NOT SWAP1 PUSH1 0x3 SHL SHR NOT AND OR SWAP2 ADD SSTORE JUMPDEST PUSH1 0x2 SLOAD PUSH9 0x10000000000000000 DUP2 LT ISZERO PUSH2 0x472 JUMPI PUSH32 0x106185E7F3CDA5AD6D40F7828C10690984B4F9C6AAB0DC911541DCFE4BEA72CC SWAP8 PUSH2 0x46D SWAP6 PUSH2 0x412 DUP4 PUSH1 0x1 PUSH2 0x454 SWAP6 ADD PUSH1 0x2 SSTORE PUSH2 0x75A JUMP JUMPDEST DUP2 SLOAD PUSH1 0x1 PUSH1 0x1 PUSH1 0xA0 SHL SUB DUP8 DUP2 AND PUSH1 0x3 SWAP4 SWAP1 SWAP4 SHL SWAP3 DUP4 SHL SWAP3 SHL NOT AND OR SWAP1 SSTORE DUP6 MLOAD PUSH1 0x60 DUP1 DUP3 MSTORE SWAP1 SWAP10 DUP11 SWAP10 PUSH2 0x446 SWAP3 DUP12 ADD SWAP2 PUSH2 0x986 JUMP JUMPDEST SWAP2 DUP9 DUP4 SUB PUSH1 0x20 DUP11 ADD MSTORE PUSH2 0x986 JUMP JUMPDEST DUP6 DUP2 SUB SWAP4 DUP7 ADD SWAP4 SWAP1 SWAP4 MSTORE PUSH1 0x1 PUSH1 0x1 PUSH1 0xA0 SHL SUB AND SWAP7 PUSH2 0x986 JUMP JUMPDEST SUB SWAP1 LOG2 STOP JUMPDEST PUSH4 0x4E487B71 PUSH1 0xE0 SHL PUSH1 0x0 MSTORE PUSH1 0x41 PUSH1 0x4 MSTORE PUSH1 0x24 PUSH1 0x0 REVERT JUMPDEST ADD MLOAD SWAP1 POP DUP13 DUP1 PUSH2 0x3AF JUMP JUMPDEST SWAP1 PUSH1 0x1F NOT DUP4 AND SWAP2 PUSH1 0x2 DUP6 ADD PUSH1 0x0 MSTORE PUSH1 0x20 PUSH1 0x0 KECCAK256 SWAP3 PUSH1 0x0 JUMPDEST DUP2 DUP2 LT PUSH2 0x4E9 JUMPI POP SWAP2 PUSH1 0x1 SWAP4 SWAP2 DUP6 PUSH1 0x2 SWAP7 SWAP5 LT PUSH2 0x4D0 JUMPI JUMPDEST POP POP POP DUP2 SHL ADD SWAP2 ADD SSTORE PUSH2 0x3C5 JUMP JUMPDEST ADD MLOAD PUSH1 0x0 NOT PUSH1 0xF8 DUP5 PUSH1 0x3 SHL AND SHR NOT AND SWAP1 SSTORE DUP13 DUP1 DUP1 PUSH2 0x4C2 JUMP JUMPDEST SWAP3 SWAP4 PUSH1 0x20 PUSH1 0x1 DUP2 SWAP3 DUP8 DUP7 ADD MLOAD DUP2 SSTORE ADD SWAP6 ADD SWAP4 ADD PUSH2 0x4AA JUMP JUMPDEST PUSH1 0x2 DUP5 ADD PUSH1 0x0 MSTORE PUSH1 0x20 PUSH1 0x0 KECCAK256 PUSH1 0x1F DUP5 ADD PUSH1 0x5 SHR DUP2 ADD PUSH1 0x20 DUP6 LT PUSH2 0x541 JUMPI JUMPDEST PUSH1 0x1F DUP4 ADD PUSH1 0x5 SHR DUP3 ADD DUP2 LT PUSH2 0x535 JUMPI POP POP PUSH2 0x393 JUMP JUMPDEST PUSH1 0x0 DUP2 SSTORE PUSH1 0x1 ADD PUSH2 0x51F JUMP JUMPDEST POP DUP1 PUSH2 0x51F JUMP JUMPDEST ADD MLOAD SWAP1 POP DUP14 DUP1 PUSH2 0x351 JUMP JUMPDEST SWAP4 SWAP3 SWAP2 SWAP1 PUSH1 0x1 DUP7 ADD PUSH1 0x0 MSTORE PUSH1 0x20 PUSH1 0x0 KECCAK256 SWAP1 PUSH1 0x0 JUMPDEST PUSH1 0x1F NOT DUP5 AND DUP2 LT PUSH2 0x5AD JUMPI POP PUSH1 0x1 SWAP4 SWAP5 SWAP6 DUP4 PUSH1 0x1F NOT DUP2 AND LT PUSH2 0x594 JUMPI JUMPDEST POP POP POP DUP2 SHL ADD PUSH1 0x1 DUP5 ADD SSTORE PUSH2 0x369 JUMP JUMPDEST ADD MLOAD PUSH1 0x0 NOT PUSH1 0xF8 DUP5 PUSH1 0x3 SHL AND SHR NOT AND SWAP1 SSTORE DUP14 DUP1 DUP1 PUSH2 0x584 JUMP JUMPDEST DUP7 DUP3 ADD MLOAD DUP4 SSTORE DUP11 SWAP6 POP PUSH1 0x1 SWAP1 SWAP3 ADD SWAP2 PUSH1 0x20 SWAP2 DUP3 ADD SWAP2 ADD PUSH2 0x567 JUMP JUMPDEST SWAP1 SWAP2 SWAP3 SWAP4 POP PUSH1 0x1 DUP6 ADD PUSH1 0x0 MSTORE PUSH1 0x20 PUSH1 0x0 KECCAK256 PUSH1 0x1F DUP5 ADD PUSH1 0x5 SHR DUP2 ADD PUSH1 0x20 DUP6 LT PUSH2 0x618 JUMPI JUMPDEST SWAP1 DUP10 SWAP6 SWAP5 SWAP4 SWAP3 SWAP2 JUMPDEST PUSH1 0x1F DUP4 ADD PUSH1 0x5 SHR DUP3 ADD DUP2 LT PUSH2 0x609 JUMPI POP POP PUSH2 0x338 JUMP JUMPDEST PUSH1 0x0 DUP2 SSTORE DUP11 SWAP7 POP PUSH1 0x1 ADD PUSH2 0x5F3 JUMP JUMPDEST POP DUP1 PUSH2 0x5EB JUMP JUMPDEST ADD MLOAD SWAP1 POP DUP13 DUP1 PUSH2 0x2F4 JUMP JUMPDEST SWAP3 POP DUP5 PUSH1 0x0 MSTORE PUSH1 0x20 PUSH1 0x0 KECCAK256 SWAP1 PUSH1 0x0 SWAP4 JUMPDEST PUSH1 0x1F NOT DUP5 AND DUP6 LT PUSH2 0x67B JUMPI PUSH1 0x1 SWAP5 POP DUP4 PUSH1 0x1F NOT DUP2 AND LT PUSH2 0x662 JUMPI JUMPDEST POP POP POP DUP2 SHL ADD DUP3 SSTORE PUSH2 0x309 JUMP JUMPDEST ADD MLOAD PUSH1 0x0 NOT PUSH1 0xF8 DUP5 PUSH1 0x3 SHL AND SHR NOT AND SWAP1 SSTORE DUP13 DUP1 DUP1 PUSH2 0x655 JUMP JUMPDEST DUP2 DUP2 ADD MLOAD DUP4 SSTORE PUSH1 0x20 SWAP5 DUP6 ADD SWAP5 PUSH1 0x1 SWAP1 SWAP4 ADD SWAP3 SWAP1 SWAP2 ADD SWAP1 PUSH2 0x63A JUMP JUMPDEST SWAP1 SWAP2 POP DUP5 PUSH1 0x0 MSTORE PUSH1 0x20 PUSH1 0x0 KECCAK256 PUSH1 0x1F DUP5 ADD PUSH1 0x5 SHR DUP2 ADD PUSH1 0x20 DUP6 LT PUSH2 0x6DF JUMPI JUMPDEST SWAP1 DUP5 SWAP4 SWAP3 SWAP2 JUMPDEST PUSH1 0x1F DUP4 ADD PUSH1 0x5 SHR DUP3 ADD DUP2 LT PUSH2 0x6D0 JUMPI POP POP PUSH2 0x2DD JUMP JUMPDEST PUSH1 0x0 DUP2 SSTORE DUP6 SWAP5 POP PUSH1 0x1 ADD PUSH2 0x6BA JUMP JUMPDEST POP DUP1 PUSH2 0x6B4 JUMP JUMPDEST PUSH3 0x461BCD PUSH1 0xE5 SHL DUP2 MSTORE PUSH1 0x20 PUSH1 0x4 DUP3 ADD MSTORE PUSH1 0xB PUSH1 0x24 DUP3 ADD MSTORE PUSH11 0x139BDD081CDD195DD85C99 PUSH1 0xAA SHL PUSH1 0x44 DUP3 ADD MSTORE PUSH1 0x64 SWAP1 REVERT JUMPDEST PUSH1 0x4 CALLDATALOAD SWAP1 PUSH1 0x1 PUSH1 0x1 PUSH1 0xA0 SHL SUB DUP3 AND DUP3 SUB PUSH2 0x81 JUMPI JUMP JUMPDEST SWAP2 DUP2 PUSH1 0x1F DUP5 ADD SLT ISZERO PUSH2 0x81 JUMPI DUP3 CALLDATALOAD SWAP2 PUSH8 0xFFFFFFFFFFFFFFFF DUP4 GT PUSH2 0x81 JUMPI PUSH1 0x20 DUP4 DUP2 DUP7 ADD SWAP6 ADD ADD GT PUSH2 0x81 JUMPI JUMP JUMPDEST PUSH1 0x2 SLOAD DUP2 LT ISZERO PUSH2 0x791 JUMPI PUSH1 0x2 PUSH1 0x0 MSTORE PUSH32 0x405787FA12A823E0F2B7631CC41B3BA8828B3321CA811111FA75CD3AA3BB5ACE ADD SWAP1 PUSH1 0x0 SWAP1 JUMP JUMPDEST PUSH4 0x4E487B71 PUSH1 0xE0 SHL PUSH1 0x0 MSTORE PUSH1 0x32 PUSH1 0x4 MSTORE PUSH1 0x24 PUSH1 0x0 REVERT JUMPDEST SWAP1 PUSH1 0x1 DUP3 DUP2 SHR SWAP3 AND DUP1 ISZERO PUSH2 0x7D7 JUMPI JUMPDEST PUSH1 0x20 DUP4 LT EQ PUSH2 0x7C1 JUMPI JUMP JUMPDEST PUSH4 0x4E487B71 PUSH1 0xE0 SHL PUSH1 0x0 MSTORE PUSH1 0x22 PUSH1 0x4 MSTORE PUSH1 0x24 PUSH1 0x0 REVERT JUMPDEST SWAP2 PUSH1 0x7F AND SWAP2 PUSH2 0x7B6 JUMP JUMPDEST PUSH1 0x60 DUP2 ADD SWAP1 DUP2 LT PUSH8 0xFFFFFFFFFFFFFFFF DUP3 GT OR PUSH2 0x472 JUMPI PUSH1 0x40 MSTORE JUMP JUMPDEST SWAP1 PUSH1 0x1F DUP1 NOT SWAP2 ADD AND DUP2 ADD SWAP1 DUP2 LT PUSH8 0xFFFFFFFFFFFFFFFF DUP3 GT OR PUSH2 0x472 JUMPI PUSH1 0x40 MSTORE JUMP JUMPDEST SWAP1 PUSH1 0x40 MLOAD SWAP2 DUP3 PUSH1 0x0 DUP3 SLOAD SWAP3 PUSH2 0x833 DUP5 PUSH2 0x7A7 JUMP JUMPDEST SWAP1 DUP2 DUP5 MSTORE PUSH1 0x1 SWAP5 DUP6 DUP2 AND SWAP1 DUP2 PUSH1 0x0 EQ PUSH2 0x8A2 JUMPI POP PUSH1 0x1 EQ PUSH2 0x85F JUMPI JUMPDEST POP POP PUSH2 0x85D SWAP3 POP SUB DUP4 PUSH2 0x7FD JUMP JUMPDEST JUMP JUMPDEST SWAP1 SWAP4 SWAP2 POP PUSH1 0x0 MSTORE PUSH1 0x20 SWAP1 DUP2 PUSH1 0x0 KECCAK256 SWAP4 PUSH1 0x0 SWAP2 JUMPDEST DUP2 DUP4 LT PUSH2 0x88A JUMPI POP POP PUSH2 0x85D SWAP4 POP DUP3 ADD ADD CODESIZE DUP1 PUSH2 0x84F JUMP JUMPDEST DUP6 SLOAD DUP9 DUP5 ADD DUP6 ADD MSTORE SWAP5 DUP6 ADD SWAP5 DUP8 SWAP5 POP SWAP2 DUP4 ADD SWAP2 PUSH2 0x872 JUMP JUMPDEST SWAP2 POP POP PUSH2 0x85D SWAP5 POP PUSH1 0x20 SWAP3 POP PUSH1 0xFF NOT AND DUP3 DUP5 ADD MSTORE ISZERO ISZERO PUSH1 0x5 SHL DUP3 ADD ADD CODESIZE DUP1 PUSH2 0x84F JUMP JUMPDEST SWAP2 SWAP1 DUP3 MLOAD SWAP3 DUP4 DUP3 MSTORE PUSH1 0x0 JUMPDEST DUP5 DUP2 LT PUSH2 0x8F1 JUMPI POP POP DUP3 PUSH1 0x0 PUSH1 0x20 DUP1 SWAP5 SWAP6 DUP5 ADD ADD MSTORE PUSH1 0x1F DUP1 NOT SWAP2 ADD AND ADD ADD SWAP1 JUMP JUMPDEST PUSH1 0x20 DUP2 DUP4 ADD DUP2 ADD MLOAD DUP5 DUP4 ADD DUP3 ADD MSTORE ADD PUSH2 0x8D0 JUMP JUMPDEST SWAP2 PUSH2 0x92E SWAP1 PUSH2 0x920 PUSH2 0x93C SWAP6 SWAP4 PUSH1 0x60 DUP7 MSTORE PUSH1 0x60 DUP7 ADD SWAP1 PUSH2 0x8C5 JUMP JUMPDEST SWAP1 DUP5 DUP3 SUB PUSH1 0x20 DUP7 ADD MSTORE PUSH2 0x8C5 JUMP JUMPDEST SWAP2 PUSH1 0x40 DUP2 DUP5 SUB SWAP2 ADD MSTORE PUSH2 0x8C5 JUMP JUMPDEST SWAP1 JUMP JUMPDEST SWAP3 SWAP2 SWAP3 PUSH8 0xFFFFFFFFFFFFFFFF DUP3 GT PUSH2 0x472 JUMPI PUSH1 0x40 MLOAD SWAP2 PUSH2 0x969 PUSH1 0x1F DUP3 ADD PUSH1 0x1F NOT AND PUSH1 0x20 ADD DUP5 PUSH2 0x7FD JUMP JUMPDEST DUP3 SWAP5 DUP2 DUP5 MSTORE DUP2 DUP4 ADD GT PUSH2 0x81 JUMPI DUP3 DUP2 PUSH1 0x20 SWAP4 DUP5 PUSH1 0x0 SWAP7 ADD CALLDATACOPY ADD ADD MSTORE JUMP JUMPDEST SWAP1 DUP1 PUSH1 0x20 SWAP4 SWAP3 DUP2 DUP5 MSTORE DUP5 DUP5 ADD CALLDATACOPY PUSH1 0x0 DUP3 DUP3 ADD DUP5 ADD MSTORE PUSH1 0x1F ADD PUSH1 0x1F NOT AND ADD ADD SWAP1 JUMP INVALID LOG2 PUSH5 0x6970667358 0x22 SLT KECCAK256 SDIV ADDRESS PUSH16 0x9B62D7FCD7166C0F2121731168CF17C4 0xCA JUMPI 0xAD 0xCE PUSH28 0x7D41CE236B721B4F64736F6C63430008140033000000000000000000 "},"methodIdentifiers":{"bloomCompanion(address,string,string,string)":"4db259f4","blooms(address)":"8fb51427","companions(uint256)":"6559e40f","getBloom(address)":"e8cc4b96","steward()":"637eea19","totalBlooms()":"f329a480"}}}}}