{"contracts/manifest/TerrainChoreography.sol":{"TerrainChoreography":{"abi":[{"inputs":[],"stateMutability":"nonpayable","type":"constructor"},{"anonymous":false,"inputs":[{"indexed":false,"internalType":"string","name":"chant","type":"string"},{"indexed":false,"internalType":"string","name":"glyph","type":"string"},{"indexed":false,"internalType":"string","name":"action","type":"string"}],"name":"InvocationOrchestrated","type":"event"},{"inputs":[{"internalType":"string","name":"chant","type":"string"}],"name":"getInvocation","outputs":[{"internalType":"string","name":"","type":"string"},{"internalType":"string","name":"","type":"string"}],"stateMutability":"view","type":"function"},{"inputs":[{"internalType":"string","name":"","type":"string"}],"name":"invocations","outputs":[{"internalType":"string","name":"chant","type":"string"},{"internalType":"string","name":"glyph","type":"string"},{"internalType":"string","name":"action","type":"string"}],"stateMutability":"view","type":"function"},{"inputs":[{"internalType":"uint256","name":"","type":"uint256"}],"name":"keys","outputs":[{"internalType":"string","name":"","type":"string"}],"stateMutability":"view","type":"function"},{"inputs":[{"internalType":"string","name":"chant","type":"string"},{"internalType":"string","name":"glyph","type":"string"},{"internalType":"string","name":"action","type":"string"}],"name":"orchestrate","outputs":[],"stateMutability":"nonpayable","type":"function"},{"inputs":[],"name":"steward","outputs":[{"internalType":"address","name":"","type":"address"}],"stateMutability":"view","type":"function"},{"inputs":[],"name":"totalInvocations","outputs":[{"internalType":"uint256","name":"","type":"uint256"}],"stateMutability":"view","type":"function"}],"evm":{"bytecode":{"linkReferences":{},"object":"6080806040523461002857600080546001600160a01b03191633179055610a40908161002e8239f35b600080fdfe6080604052600436101561001257600080fd5b60003560e01c80630cb6aaf1146107265780632bb3dcc8146107085780632ee5c65b14610649578063637eea191461062057806363a56470146101135763875621051461005e57600080fd5b3461010e57602036600319011261010e576004356001600160401b03811161010e57604061010a60206100986100fc943690600401610968565b919082855193849283378101600181520301902082516100b7816107f8565b6100c082610834565b81526100e160026100d360018501610834565b936020840194855201610834565b938491015251916040519384936040855260408501906108fd565b9083820360208501526108fd565b0390f35b600080fd5b3461010e57606036600319011261010e576004356001600160401b03811161010e57610143903690600401610968565b906024356001600160401b03811161010e57610163903690600401610968565b92906044356001600160401b03811161010e57610184903690600401610968565b60005491959092916001600160a01b031633036105ed576040516101a7816107f8565b6101b2368688610922565b81526101bf368385610922565b60208201526101cf368589610922565b604082015260405185878237602081878101600181520301902081518051906001600160401b0382116104665781906102128261020c86546107be565b86610995565b602090601f83116001146105875760009261057c575b50508160011b916000199060031b1c19161781555b602082015180516001600160401b03811161046657600183019161026b8261026585546107be565b85610995565b602090601f831160011461050e5791806002949260409694600092610503575b50508160011b916000199060031b1c19161790555b019101518051906001600160401b0382116104665781906102c58261020c86546107be565b602090601f831160011461049d57600092610492575b50508160011b916000199060031b1c19161790555b60025468010000000000000000811015610466578060016103149201600255610771565b61047c576001600160401b0385116104665761033a8561033483546107be565b83610995565b6000601f86116001146103d457926103c494926103b692877fa80bcc30452cc616f89b38aef3d311fb23dd612345f8716522b595d37307c99b9a966000916103c9575b508860011b906000198a60031b1c19161790555b6103a860405198899860608a5260608a01916109e9565b9187830360208901526109e9565b9184830360408601526109e9565b0390a1005b90508901358b61037d565b601f198616908260005260206000209160005b81811061044e5750927fa80bcc30452cc616f89b38aef3d311fb23dd612345f8716522b595d37307c99b9995926103c4979592896103b69610610434575b5050600188811b019055610391565b8a013560001960038b901b60f8161c191690558a80610425565b9192602060018192868d0135815501940192016103e7565b634e487b7160e01b600052604160045260246000fd5b634e487b7160e01b600052600060045260246000fd5b0151905089806102db565b6000858152602081209350601f198516905b8181106104eb57509084600195949392106104d2575b505050811b0190556102f0565b015160001960f88460031b161c191690558980806104c5565b929360206001819287860151815501950193016104af565b015190508d8061028b565b90601f198316918460005260206000209260005b818110610564575092600192859260409896600298961061054b575b505050811b0190556102a0565b015160001960f88460031b161c191690558d808061053e565b92936020600181928786015181550195019301610522565b015190508a80610228565b6000858152602081209350601f198516905b8181106105d557509084600195949392106105bc575b505050811b01815561023d565b015160001960f88460031b161c191690558a80806105af565b92936020600181928786015181550195019301610599565b60405162461bcd60e51b815260206004820152600b60248201526a139bdd081cdd195dd85c9960aa1b6044820152606490fd5b3461010e57600036600319011261010e576000546040516001600160a01b039091168152602090f35b3461010e57602036600319011261010e576004356001600160401b03811161010e573660238201121561010e576106a560206106926106ec933690602481600401359101610922565b81604051938285809451938492016108da565b8101600181520301902061010a6106bb82610834565b916106fa6106d760026106d060018501610834565b9301610834565b916040519586956060875260608701906108fd565b9085820360208701526108fd565b9083820360408501526108fd565b3461010e57600036600319011261010e576020600254604051908152f35b3461010e57602036600319011261010e5760043560025481101561010e5761074d90610771565b61047c5761075d61010a91610834565b6040519182916020835260208301906108fd565b6002548110156107a85760026000527f405787fa12a823e0f2b7631cc41b3ba8828b3321ca811111fa75cd3aa3bb5ace0190600090565b634e487b7160e01b600052603260045260246000fd5b90600182811c921680156107ee575b60208310146107d857565b634e487b7160e01b600052602260045260246000fd5b91607f16916107cd565b606081019081106001600160401b0382111761046657604052565b90601f801991011681019081106001600160401b0382111761046657604052565b9060405191826000825492610848846107be565b9081845260019485811690816000146108b75750600114610874575b505061087292500383610813565b565b9093915060005260209081600020936000915b81831061089f57505061087293508201013880610864565b85548884018501529485019487945091830191610887565b91505061087294506020925060ff191682840152151560051b8201013880610864565b60005b8381106108ed5750506000910152565b81810151838201526020016108dd565b90602091610916815180928185528580860191016108da565b601f01601f1916010190565b9291926001600160401b038211610466576040519161094b601f8201601f191660200184610813565b82948184528183011161010e578281602093846000960137010152565b9181601f8401121561010e578235916001600160401b03831161010e576020838186019501011161010e57565b90601f81116109a357505050565b600091825260208220906020601f850160051c830194106109df575b601f0160051c01915b8281106109d457505050565b8181556001016109c8565b90925082906109bf565b908060209392818452848401376000828201840152601f01601f191601019056fea2646970667358221220c385553ee1eb2cdac4c98fffe68aa455ed8e98ef604bed650f79f538004cb81464736f6c63430008140033","opcodes":"PUSH1 0x80 DUP1 PUSH1 0x40 MSTORE CALLVALUE PUSH2 0x28 JUMPI PUSH1 0x0 DUP1 SLOAD PUSH1 0x1 PUSH1 0x1 PUSH1 0xA0 SHL SUB NOT AND CALLER OR SWAP1 SSTORE PUSH2 0xA40 SWAP1 DUP2 PUSH2 0x2E DUP3 CODECOPY RETURN JUMPDEST PUSH1 0x0 DUP1 REVERT INVALID PUSH1 0x80 PUSH1 0x40 MSTORE PUSH1 0x4 CALLDATASIZE LT ISZERO PUSH2 0x12 JUMPI PUSH1 0x0 DUP1 REVERT JUMPDEST PUSH1 0x0 CALLDATALOAD PUSH1 0xE0 SHR DUP1 PUSH4 0xCB6AAF1 EQ PUSH2 0x726 JUMPI DUP1 PUSH4 0x2BB3DCC8 EQ PUSH2 0x708 JUMPI DUP1 PUSH4 0x2EE5C65B EQ PUSH2 0x649 JUMPI DUP1 PUSH4 0x637EEA19 EQ PUSH2 0x620 JUMPI DUP1 PUSH4 0x63A56470 EQ PUSH2 0x113 JUMPI PUSH4 0x87562105 EQ PUSH2 0x5E JUMPI PUSH1 0x0 DUP1 REVERT JUMPDEST CALLVALUE PUSH2 0x10E JUMPI PUSH1 0x20 CALLDATASIZE PUSH1 0x3 NOT ADD SLT PUSH2 0x10E JUMPI PUSH1 0x4 CALLDATALOAD PUSH1 0x1 PUSH1 0x1 PUSH1 0x40 SHL SUB DUP2 GT PUSH2 0x10E JUMPI PUSH1 0x40 PUSH2 0x10A PUSH1 0x20 PUSH2 0x98 PUSH2 0xFC SWAP5 CALLDATASIZE SWAP1 PUSH1 0x4 ADD PUSH2 0x968 JUMP JUMPDEST SWAP2 SWAP1 DUP3 DUP6 MLOAD SWAP4 DUP5 SWAP3 DUP4 CALLDATACOPY DUP2 ADD PUSH1 0x1 DUP2 MSTORE SUB ADD SWAP1 KECCAK256 DUP3 MLOAD PUSH2 0xB7 DUP2 PUSH2 0x7F8 JUMP JUMPDEST PUSH2 0xC0 DUP3 PUSH2 0x834 JUMP JUMPDEST DUP2 MSTORE PUSH2 0xE1 PUSH1 0x2 PUSH2 0xD3 PUSH1 0x1 DUP6 ADD PUSH2 0x834 JUMP JUMPDEST SWAP4 PUSH1 0x20 DUP5 ADD SWAP5 DUP6 MSTORE ADD PUSH2 0x834 JUMP JUMPDEST SWAP4 DUP5 SWAP2 ADD MSTORE MLOAD SWAP2 PUSH1 0x40 MLOAD SWAP4 DUP5 SWAP4 PUSH1 0x40 DUP6 MSTORE PUSH1 0x40 DUP6 ADD SWAP1 PUSH2 0x8FD JUMP JUMPDEST SWAP1 DUP4 DUP3 SUB PUSH1 0x20 DUP6 ADD MSTORE PUSH2 0x8FD JUMP JUMPDEST SUB SWAP1 RETURN JUMPDEST PUSH1 0x0 DUP1 REVERT JUMPDEST CALLVALUE PUSH2 0x10E JUMPI PUSH1 0x60 CALLDATASIZE PUSH1 0x3 NOT ADD SLT PUSH2 0x10E JUMPI PUSH1 0x4 CALLDATALOAD PUSH1 0x1 PUSH1 0x1 PUSH1 0x40 SHL SUB DUP2 GT PUSH2 0x10E JUMPI PUSH2 0x143 SWAP1 CALLDATASIZE SWAP1 PUSH1 0x4 ADD PUSH2 0x968 JUMP JUMPDEST SWAP1 PUSH1 0x24 CALLDATALOAD PUSH1 0x1 PUSH1 0x1 PUSH1 0x40 SHL SUB DUP2 GT PUSH2 0x10E JUMPI PUSH2 0x163 SWAP1 CALLDATASIZE SWAP1 PUSH1 0x4 ADD PUSH2 0x968 JUMP JUMPDEST SWAP3 SWAP1 PUSH1 0x44 CALLDATALOAD PUSH1 0x1 PUSH1 0x1 PUSH1 0x40 SHL SUB DUP2 GT PUSH2 0x10E JUMPI PUSH2 0x184 SWAP1 CALLDATASIZE SWAP1 PUSH1 0x4 ADD PUSH2 0x968 JUMP JUMPDEST PUSH1 0x0 SLOAD SWAP2 SWAP6 SWAP1 SWAP3 SWAP2 PUSH1 0x1 PUSH1 0x1 PUSH1 0xA0 SHL SUB AND CALLER SUB PUSH2 0x5ED JUMPI PUSH1 0x40 MLOAD PUSH2 0x1A7 DUP2 PUSH2 0x7F8 JUMP JUMPDEST PUSH2 0x1B2 CALLDATASIZE DUP7 DUP9 PUSH2 0x922 JUMP JUMPDEST DUP2 MSTORE PUSH2 0x1BF CALLDATASIZE DUP4 DUP6 PUSH2 0x922 JUMP JUMPDEST PUSH1 0x20 DUP3 ADD MSTORE PUSH2 0x1CF CALLDATASIZE DUP6 DUP10 PUSH2 0x922 JUMP JUMPDEST PUSH1 0x40 DUP3 ADD MSTORE PUSH1 0x40 MLOAD DUP6 DUP8 DUP3 CALLDATACOPY PUSH1 0x20 DUP2 DUP8 DUP2 ADD PUSH1 0x1 DUP2 MSTORE SUB ADD SWAP1 KECCAK256 DUP2 MLOAD DUP1 MLOAD SWAP1 PUSH1 0x1 PUSH1 0x1 PUSH1 0x40 SHL SUB DUP3 GT PUSH2 0x466 JUMPI DUP2 SWAP1 PUSH2 0x212 DUP3 PUSH2 0x20C DUP7 SLOAD PUSH2 0x7BE JUMP JUMPDEST DUP7 PUSH2 0x995 JUMP JUMPDEST PUSH1 0x20 SWAP1 PUSH1 0x1F DUP4 GT PUSH1 0x1 EQ PUSH2 0x587 JUMPI PUSH1 0x0 SWAP3 PUSH2 0x57C JUMPI JUMPDEST POP POP DUP2 PUSH1 0x1 SHL SWAP2 PUSH1 0x0 NOT SWAP1 PUSH1 0x3 SHL SHR NOT AND OR DUP2 SSTORE JUMPDEST PUSH1 0x20 DUP3 ADD MLOAD DUP1 MLOAD PUSH1 0x1 PUSH1 0x1 PUSH1 0x40 SHL SUB DUP2 GT PUSH2 0x466 JUMPI PUSH1 0x1 DUP4 ADD SWAP2 PUSH2 0x26B DUP3 PUSH2 0x265 DUP6 SLOAD PUSH2 0x7BE JUMP JUMPDEST DUP6 PUSH2 0x995 JUMP JUMPDEST PUSH1 0x20 SWAP1 PUSH1 0x1F DUP4 GT PUSH1 0x1 EQ PUSH2 0x50E JUMPI SWAP2 DUP1 PUSH1 0x2 SWAP5 SWAP3 PUSH1 0x40 SWAP7 SWAP5 PUSH1 0x0 SWAP3 PUSH2 0x503 JUMPI JUMPDEST POP POP DUP2 PUSH1 0x1 SHL SWAP2 PUSH1 0x0 NOT SWAP1 PUSH1 0x3 SHL SHR NOT AND OR SWAP1 SSTORE JUMPDEST ADD SWAP2 ADD MLOAD DUP1 MLOAD SWAP1 PUSH1 0x1 PUSH1 0x1 PUSH1 0x40 SHL SUB DUP3 GT PUSH2 0x466 JUMPI DUP2 SWAP1 PUSH2 0x2C5 DUP3 PUSH2 0x20C DUP7 SLOAD PUSH2 0x7BE JUMP JUMPDEST PUSH1 0x20 SWAP1 PUSH1 0x1F DUP4 GT PUSH1 0x1 EQ PUSH2 0x49D JUMPI PUSH1 0x0 SWAP3 PUSH2 0x492 JUMPI JUMPDEST POP POP DUP2 PUSH1 0x1 SHL SWAP2 PUSH1 0x0 NOT SWAP1 PUSH1 0x3 SHL SHR NOT AND OR SWAP1 SSTORE JUMPDEST PUSH1 0x2 SLOAD PUSH9 0x10000000000000000 DUP2 LT ISZERO PUSH2 0x466 JUMPI DUP1 PUSH1 0x1 PUSH2 0x314 SWAP3 ADD PUSH1 0x2 SSTORE PUSH2 0x771 JUMP JUMPDEST PUSH2 0x47C JUMPI PUSH1 0x1 PUSH1 0x1 PUSH1 0x40 SHL SUB DUP6 GT PUSH2 0x466 JUMPI PUSH2 0x33A DUP6 PUSH2 0x334 DUP4 SLOAD PUSH2 0x7BE JUMP JUMPDEST DUP4 PUSH2 0x995 JUMP JUMPDEST PUSH1 0x0 PUSH1 0x1F DUP7 GT PUSH1 0x1 EQ PUSH2 0x3D4 JUMPI SWAP3 PUSH2 0x3C4 SWAP5 SWAP3 PUSH2 0x3B6 SWAP3 DUP8 PUSH32 0xA80BCC30452CC616F89B38AEF3D311FB23DD612345F8716522B595D37307C99B SWAP11 SWAP7 PUSH1 0x0 SWAP2 PUSH2 0x3C9 JUMPI JUMPDEST POP DUP9 PUSH1 0x1 SHL SWAP1 PUSH1 0x0 NOT DUP11 PUSH1 0x3 SHL SHR NOT AND OR SWAP1 SSTORE JUMPDEST PUSH2 0x3A8 PUSH1 0x40 MLOAD SWAP9 DUP10 SWAP9 PUSH1 0x60 DUP11 MSTORE PUSH1 0x60 DUP11 ADD SWAP2 PUSH2 0x9E9 JUMP JUMPDEST SWAP2 DUP8 DUP4 SUB PUSH1 0x20 DUP10 ADD MSTORE PUSH2 0x9E9 JUMP JUMPDEST SWAP2 DUP5 DUP4 SUB PUSH1 0x40 DUP7 ADD MSTORE PUSH2 0x9E9 JUMP JUMPDEST SUB SWAP1 LOG1 STOP JUMPDEST SWAP1 POP DUP10 ADD CALLDATALOAD DUP12 PUSH2 0x37D JUMP JUMPDEST PUSH1 0x1F NOT DUP7 AND SWAP1 DUP3 PUSH1 0x0 MSTORE PUSH1 0x20 PUSH1 0x0 KECCAK256 SWAP2 PUSH1 0x0 JUMPDEST DUP2 DUP2 LT PUSH2 0x44E JUMPI POP SWAP3 PUSH32 0xA80BCC30452CC616F89B38AEF3D311FB23DD612345F8716522B595D37307C99B SWAP10 SWAP6 SWAP3 PUSH2 0x3C4 SWAP8 SWAP6 SWAP3 DUP10 PUSH2 0x3B6 SWAP7 LT PUSH2 0x434 JUMPI JUMPDEST POP POP PUSH1 0x1 DUP9 DUP2 SHL ADD SWAP1 SSTORE PUSH2 0x391 JUMP JUMPDEST DUP11 ADD CALLDATALOAD PUSH1 0x0 NOT PUSH1 0x3 DUP12 SWAP1 SHL PUSH1 0xF8 AND SHR NOT AND SWAP1 SSTORE DUP11 DUP1 PUSH2 0x425 JUMP JUMPDEST SWAP2 SWAP3 PUSH1 0x20 PUSH1 0x1 DUP2 SWAP3 DUP7 DUP14 ADD CALLDATALOAD DUP2 SSTORE ADD SWAP5 ADD SWAP3 ADD PUSH2 0x3E7 JUMP JUMPDEST PUSH4 0x4E487B71 PUSH1 0xE0 SHL PUSH1 0x0 MSTORE PUSH1 0x41 PUSH1 0x4 MSTORE PUSH1 0x24 PUSH1 0x0 REVERT JUMPDEST PUSH4 0x4E487B71 PUSH1 0xE0 SHL PUSH1 0x0 MSTORE PUSH1 0x0 PUSH1 0x4 MSTORE PUSH1 0x24 PUSH1 0x0 REVERT JUMPDEST ADD MLOAD SWAP1 POP DUP10 DUP1 PUSH2 0x2DB JUMP JUMPDEST PUSH1 0x0 DUP6 DUP2 MSTORE PUSH1 0x20 DUP2 KECCAK256 SWAP4 POP PUSH1 0x1F NOT DUP6 AND SWAP1 JUMPDEST DUP2 DUP2 LT PUSH2 0x4EB JUMPI POP SWAP1 DUP5 PUSH1 0x1 SWAP6 SWAP5 SWAP4 SWAP3 LT PUSH2 0x4D2 JUMPI JUMPDEST POP POP POP DUP2 SHL ADD SWAP1 SSTORE PUSH2 0x2F0 JUMP JUMPDEST ADD MLOAD PUSH1 0x0 NOT PUSH1 0xF8 DUP5 PUSH1 0x3 SHL AND SHR NOT AND SWAP1 SSTORE DUP10 DUP1 DUP1 PUSH2 0x4C5 JUMP JUMPDEST SWAP3 SWAP4 PUSH1 0x20 PUSH1 0x1 DUP2 SWAP3 DUP8 DUP7 ADD MLOAD DUP2 SSTORE ADD SWAP6 ADD SWAP4 ADD PUSH2 0x4AF JUMP JUMPDEST ADD MLOAD SWAP1 POP DUP14 DUP1 PUSH2 0x28B JUMP JUMPDEST SWAP1 PUSH1 0x1F NOT DUP4 AND SWAP2 DUP5 PUSH1 0x0 MSTORE PUSH1 0x20 PUSH1 0x0 KECCAK256 SWAP3 PUSH1 0x0 JUMPDEST DUP2 DUP2 LT PUSH2 0x564 JUMPI POP SWAP3 PUSH1 0x1 SWAP3 DUP6 SWAP3 PUSH1 0x40 SWAP9 SWAP7 PUSH1 0x2 SWAP9 SWAP7 LT PUSH2 0x54B JUMPI JUMPDEST POP POP POP DUP2 SHL ADD SWAP1 SSTORE PUSH2 0x2A0 JUMP JUMPDEST ADD MLOAD PUSH1 0x0 NOT PUSH1 0xF8 DUP5 PUSH1 0x3 SHL AND SHR NOT AND SWAP1 SSTORE DUP14 DUP1 DUP1 PUSH2 0x53E JUMP JUMPDEST SWAP3 SWAP4 PUSH1 0x20 PUSH1 0x1 DUP2 SWAP3 DUP8 DUP7 ADD MLOAD DUP2 SSTORE ADD SWAP6 ADD SWAP4 ADD PUSH2 0x522 JUMP JUMPDEST ADD MLOAD SWAP1 POP DUP11 DUP1 PUSH2 0x228 JUMP JUMPDEST PUSH1 0x0 DUP6 DUP2 MSTORE PUSH1 0x20 DUP2 KECCAK256 SWAP4 POP PUSH1 0x1F NOT DUP6 AND SWAP1 JUMPDEST DUP2 DUP2 LT PUSH2 0x5D5 JUMPI POP SWAP1 DUP5 PUSH1 0x1 SWAP6 SWAP5 SWAP4 SWAP3 LT PUSH2 0x5BC JUMPI JUMPDEST POP POP POP DUP2 SHL ADD DUP2 SSTORE PUSH2 0x23D JUMP JUMPDEST ADD MLOAD PUSH1 0x0 NOT PUSH1 0xF8 DUP5 PUSH1 0x3 SHL AND SHR NOT AND SWAP1 SSTORE DUP11 DUP1 DUP1 PUSH2 0x5AF JUMP JUMPDEST SWAP3 SWAP4 PUSH1 0x20 PUSH1 0x1 DUP2 SWAP3 DUP8 DUP7 ADD MLOAD DUP2 SSTORE ADD SWAP6 ADD SWAP4 ADD PUSH2 0x599 JUMP JUMPDEST PUSH1 0x40 MLOAD PUSH3 0x461BCD PUSH1 0xE5 SHL DUP2 MSTORE PUSH1 0x20 PUSH1 0x4 DUP3 ADD MSTORE PUSH1 0xB PUSH1 0x24 DUP3 ADD MSTORE PUSH11 0x139BDD081CDD195DD85C99 PUSH1 0xAA SHL PUSH1 0x44 DUP3 ADD MSTORE PUSH1 0x64 SWAP1 REVERT JUMPDEST CALLVALUE PUSH2 0x10E JUMPI PUSH1 0x0 CALLDATASIZE PUSH1 0x3 NOT ADD SLT PUSH2 0x10E JUMPI PUSH1 0x0 SLOAD PUSH1 0x40 MLOAD PUSH1 0x1 PUSH1 0x1 PUSH1 0xA0 SHL SUB SWAP1 SWAP2 AND DUP2 MSTORE PUSH1 0x20 SWAP1 RETURN JUMPDEST CALLVALUE PUSH2 0x10E JUMPI PUSH1 0x20 CALLDATASIZE PUSH1 0x3 NOT ADD SLT PUSH2 0x10E JUMPI PUSH1 0x4 CALLDATALOAD PUSH1 0x1 PUSH1 0x1 PUSH1 0x40 SHL SUB DUP2 GT PUSH2 0x10E JUMPI CALLDATASIZE PUSH1 0x23 DUP3 ADD SLT ISZERO PUSH2 0x10E JUMPI PUSH2 0x6A5 PUSH1 0x20 PUSH2 0x692 PUSH2 0x6EC SWAP4 CALLDATASIZE SWAP1 PUSH1 0x24 DUP2 PUSH1 0x4 ADD CALLDATALOAD SWAP2 ADD PUSH2 0x922 JUMP JUMPDEST DUP2 PUSH1 0x40 MLOAD SWAP4 DUP3 DUP6 DUP1 SWAP5 MLOAD SWAP4 DUP5 SWAP3 ADD PUSH2 0x8DA JUMP JUMPDEST DUP2 ADD PUSH1 0x1 DUP2 MSTORE SUB ADD SWAP1 KECCAK256 PUSH2 0x10A PUSH2 0x6BB DUP3 PUSH2 0x834 JUMP JUMPDEST SWAP2 PUSH2 0x6FA PUSH2 0x6D7 PUSH1 0x2 PUSH2 0x6D0 PUSH1 0x1 DUP6 ADD PUSH2 0x834 JUMP JUMPDEST SWAP4 ADD PUSH2 0x834 JUMP JUMPDEST SWAP2 PUSH1 0x40 MLOAD SWAP6 DUP7 SWAP6 PUSH1 0x60 DUP8 MSTORE PUSH1 0x60 DUP8 ADD SWAP1 PUSH2 0x8FD JUMP JUMPDEST SWAP1 DUP6 DUP3 SUB PUSH1 0x20 DUP8 ADD MSTORE PUSH2 0x8FD JUMP JUMPDEST SWAP1 DUP4 DUP3 SUB PUSH1 0x40 DUP6 ADD MSTORE PUSH2 0x8FD JUMP JUMPDEST CALLVALUE PUSH2 0x10E JUMPI PUSH1 0x0 CALLDATASIZE PUSH1 0x3 NOT ADD SLT PUSH2 0x10E JUMPI PUSH1 0x20 PUSH1 0x2 SLOAD PUSH1 0x40 MLOAD SWAP1 DUP2 MSTORE RETURN JUMPDEST CALLVALUE PUSH2 0x10E JUMPI PUSH1 0x20 CALLDATASIZE PUSH1 0x3 NOT ADD SLT PUSH2 0x10E JUMPI PUSH1 0x4 CALLDATALOAD PUSH1 0x2 SLOAD DUP2 LT ISZERO PUSH2 0x10E JUMPI PUSH2 0x74D SWAP1 PUSH2 0x771 JUMP JUMPDEST PUSH2 0x47C JUMPI PUSH2 0x75D PUSH2 0x10A SWAP2 PUSH2 0x834 JUMP JUMPDEST PUSH1 0x40 MLOAD SWAP2 DUP3 SWAP2 PUSH1 0x20 DUP4 MSTORE PUSH1 0x20 DUP4 ADD SWAP1 PUSH2 0x8FD JUMP JUMPDEST PUSH1 0x2 SLOAD DUP2 LT ISZERO PUSH2 0x7A8 JUMPI PUSH1 0x2 PUSH1 0x0 MSTORE PUSH32 0x405787FA12A823E0F2B7631CC41B3BA8828B3321CA811111FA75CD3AA3BB5ACE ADD SWAP1 PUSH1 0x0 SWAP1 JUMP JUMPDEST PUSH4 0x4E487B71 PUSH1 0xE0 SHL PUSH1 0x0 MSTORE PUSH1 0x32 PUSH1 0x4 MSTORE PUSH1 0x24 PUSH1 0x0 REVERT JUMPDEST SWAP1 PUSH1 0x1 DUP3 DUP2 SHR SWAP3 AND DUP1 ISZERO PUSH2 0x7EE JUMPI JUMPDEST PUSH1 0x20 DUP4 LT EQ PUSH2 0x7D8 JUMPI JUMP JUMPDEST PUSH4 0x4E487B71 PUSH1 0xE0 SHL PUSH1 0x0 MSTORE PUSH1 0x22 PUSH1 0x4 MSTORE PUSH1 0x24 PUSH1 0x0 REVERT JUMPDEST SWAP2 PUSH1 0x7F AND SWAP2 PUSH2 0x7CD JUMP JUMPDEST PUSH1 0x60 DUP2 ADD SWAP1 DUP2 LT PUSH1 0x1 PUSH1 0x1 PUSH1 0x40 SHL SUB DUP3 GT OR PUSH2 0x466 JUMPI PUSH1 0x40 MSTORE JUMP JUMPDEST SWAP1 PUSH1 0x1F DUP1 NOT SWAP2 ADD AND DUP2 ADD SWAP1 DUP2 LT PUSH1 0x1 PUSH1 0x1 PUSH1 0x40 SHL SUB DUP3 GT OR PUSH2 0x466 JUMPI PUSH1 0x40 MSTORE JUMP JUMPDEST SWAP1 PUSH1 0x40 MLOAD SWAP2 DUP3 PUSH1 0x0 DUP3 SLOAD SWAP3 PUSH2 0x848 DUP5 PUSH2 0x7BE JUMP JUMPDEST SWAP1 DUP2 DUP5 MSTORE PUSH1 0x1 SWAP5 DUP6 DUP2 AND SWAP1 DUP2 PUSH1 0x0 EQ PUSH2 0x8B7 JUMPI POP PUSH1 0x1 EQ PUSH2 0x874 JUMPI JUMPDEST POP POP PUSH2 0x872 SWAP3 POP SUB DUP4 PUSH2 0x813 JUMP JUMPDEST JUMP JUMPDEST SWAP1 SWAP4 SWAP2 POP PUSH1 0x0 MSTORE PUSH1 0x20 SWAP1 DUP2 PUSH1 0x0 KECCAK256 SWAP4 PUSH1 0x0 SWAP2 JUMPDEST DUP2 DUP4 LT PUSH2 0x89F JUMPI POP POP PUSH2 0x872 SWAP4 POP DUP3 ADD ADD CODESIZE DUP1 PUSH2 0x864 JUMP JUMPDEST DUP6 SLOAD DUP9 DUP5 ADD DUP6 ADD MSTORE SWAP5 DUP6 ADD SWAP5 DUP8 SWAP5 POP SWAP2 DUP4 ADD SWAP2 PUSH2 0x887 JUMP JUMPDEST SWAP2 POP POP PUSH2 0x872 SWAP5 POP PUSH1 0x20 SWAP3 POP PUSH1 0xFF NOT AND DUP3 DUP5 ADD MSTORE ISZERO ISZERO PUSH1 0x5 SHL DUP3 ADD ADD CODESIZE DUP1 PUSH2 0x864 JUMP JUMPDEST PUSH1 0x0 JUMPDEST DUP4 DUP2 LT PUSH2 0x8ED JUMPI POP POP PUSH1 0x0 SWAP2 ADD MSTORE JUMP JUMPDEST DUP2 DUP2 ADD MLOAD DUP4 DUP3 ADD MSTORE PUSH1 0x20 ADD PUSH2 0x8DD JUMP JUMPDEST SWAP1 PUSH1 0x20 SWAP2 PUSH2 0x916 DUP2 MLOAD DUP1 SWAP3 DUP2 DUP6 MSTORE DUP6 DUP1 DUP7 ADD SWAP2 ADD PUSH2 0x8DA JUMP JUMPDEST PUSH1 0x1F ADD PUSH1 0x1F NOT AND ADD ADD SWAP1 JUMP JUMPDEST SWAP3 SWAP2 SWAP3 PUSH1 0x1 PUSH1 0x1 PUSH1 0x40 SHL SUB DUP3 GT PUSH2 0x466 JUMPI PUSH1 0x40 MLOAD SWAP2 PUSH2 0x94B PUSH1 0x1F DUP3 ADD PUSH1 0x1F NOT AND PUSH1 0x20 ADD DUP5 PUSH2 0x813 JUMP JUMPDEST DUP3 SWAP5 DUP2 DUP5 MSTORE DUP2 DUP4 ADD GT PUSH2 0x10E JUMPI DUP3 DUP2 PUSH1 0x20 SWAP4 DUP5 PUSH1 0x0 SWAP7 ADD CALLDATACOPY ADD ADD MSTORE JUMP JUMPDEST SWAP2 DUP2 PUSH1 0x1F DUP5 ADD SLT ISZERO PUSH2 0x10E JUMPI DUP3 CALLDATALOAD SWAP2 PUSH1 0x1 PUSH1 0x1 PUSH1 0x40 SHL SUB DUP4 GT PUSH2 0x10E JUMPI PUSH1 0x20 DUP4 DUP2 DUP7 ADD SWAP6 ADD ADD GT PUSH2 0x10E JUMPI JUMP JUMPDEST SWAP1 PUSH1 0x1F DUP2 GT PUSH2 0x9A3 JUMPI POP POP POP JUMP JUMPDEST PUSH1 0x0 SWAP2 DUP3 MSTORE PUSH1 0x20 DUP3 KECCAK256 SWAP1 PUSH1 0x20 PUSH1 0x1F DUP6 ADD PUSH1 0x5 SHR DUP4 ADD SWAP5 LT PUSH2 0x9DF JUMPI JUMPDEST PUSH1 0x1F ADD PUSH1 0x5 SHR ADD SWAP2 JUMPDEST DUP3 DUP2 LT PUSH2 0x9D4 JUMPI POP POP POP JUMP JUMPDEST DUP2 DUP2 SSTORE PUSH1 0x1 ADD PUSH2 0x9C8 JUMP JUMPDEST SWAP1 SWAP3 POP DUP3 SWAP1 PUSH2 0x9BF JUMP JUMPDEST SWAP1 DUP1 PUSH1 0x20 SWAP4 SWAP3 DUP2 DUP5 MSTORE DUP5 DUP5 ADD CALLDATACOPY PUSH1 0x0 DUP3 DUP3 ADD DUP5 ADD MSTORE PUSH1 0x1F ADD PUSH1 0x1F NOT AND ADD ADD SWAP1 JUMP INVALID LOG2 PUSH5 0x6970667358 0x22 SLT KECCAK256 0xC3 DUP6 SSTORE RETURNDATACOPY 0xE1 0xEB 0x2C 0xDA 0xC4 0xC9 DUP16 SELFDESTRUCT 0xE6 DUP11 LOG4 SSTORE 0xED DUP15 SWAP9 0xEF PUSH1 0x4B 0xED PUSH6 0xF79F538004C 0xB8 EQ PUSH5 0x736F6C6343 STOP ADDMOD EQ STOP CALLER "},"methodIdentifiers":{"getInvocation(string)":"87562105","invocations(string)":"2ee5c65b","keys(uint256)":"0cb6aaf1","orchestrate(string,string,string)":"63a56470","steward()":"637eea19","totalInvocations()":"2bb3dcc8"}}}}}