{"contracts/skycity/SkyCity.sol":{"SkyCity":{"abi":[{"inputs":[{"internalType":"string","name":"_name","type":"string"},{"internalType":"uint256","name":"_altitude","type":"uint256"}],"stateMutability":"nonpayable","type":"constructor"},{"anonymous":false,"inputs":[{"indexed":false,"internalType":"string","name":"name","type":"string"},{"indexed":false,"internalType":"uint256","name":"altitude","type":"uint256"}],"name":"CityCrowned","type":"event"},{"inputs":[],"name":"altitude","outputs":[{"internalType":"uint256","name":"","type":"uint256"}],"stateMutability":"view","type":"function"},{"inputs":[],"name":"cityName","outputs":[{"internalType":"string","name":"","type":"string"}],"stateMutability":"view","type":"function"},{"inputs":[],"name":"steward","outputs":[{"internalType":"address","name":"","type":"address"}],"stateMutability":"view","type":"function"},{"inputs":[{"internalType":"uint256","name":"newAltitude","type":"uint256"}],"name":"updateAltitude","outputs":[],"stateMutability":"nonpayable","type":"function"}],"evm":{"bytecode":{"linkReferences":{},"object":"6040608081523461024057610554908138038061001b8161025b565b938439820181838203126102405782516001600160401b03939084811161024057810191601f908082850112156102405783519580871161024557602096601f199461006c85830187168a0161025b565b96828852898801948a8483010111610240578992858461008c9301610280565b0151600080546001600160a01b0319163317815586519192909190811161022c5760019182548381811c91168015610222575b8b82101461020e578681116101cb575b508990868311600114610155579282610132999795936000805160206105348339815191529b9c9360609a98969161014a575b50600019600383901b1c191690821b1790555b8160025589519788968b8852518094818d8a015289890190610280565b85015201168101030190a15161029090816102a48239f35b905088015138610102565b908783168483528b8320925b8181106101b6575093836000805160206105348339815191529b9c9382936101329c9a989660609c9a981061019d575b5050811b019055610115565b8a015160001960f88460031b161c191690553880610191565b8a830151845592850192918c01918c01610161565b8382528a82208780850160051c8201928d8610610205575b0160051c019084905b8281106101fa5750506100cf565b8381550184906101ec565b925081926101e3565b634e487b7160e01b82526022600452602482fd5b90607f16906100bf565b634e487b7160e01b82526041600452602482fd5b600080fd5b634e487b7160e01b600052604160045260246000fd5b6040519190601f01601f191682016001600160401b0381118382101761024557604052565b60005b8381106102935750506000910152565b818101518382015260200161028356fe6080604090808252600436101561001557600080fd5b600090813560e01c908163637eea191461023657508063859073bb146101d7578063d906896a146101b45763e004ccdc1461004f57600080fd5b346101b157806003193601126101b157815191819260019283549485851c948087169687156101a7575b6020978888108114610193578786528892918115610174575060011461011f575b505082939450601f801994859203011682019482861067ffffffffffffffff87111761010b5785929391838652818452845191828186015281955b8387106100f35750508394508582601f949501015201168101030190f35b868101820151898801890152958101958895506100d5565b634e487b7160e01b82526041600452602482fd5b80845290915082907fb10e2d527612073b26eecdfd717e6a320cf44b4afac2b0732d9fcbe2b7fa0cf65b8783106101615750949550859450830101853861009a565b8054868401850152918301918101610149565b60ff191683870152509495869550151560051b8401019050853861009a565b634e487b7160e01b85526022600452602485fd5b95607f1695610079565b80fd5b5090346101d357816003193601126101d3576020906002549051908152f35b5080fd5b5090346101d35760203660031901126101d35781546001600160a01b03163303610205575060043560025580f35b5162461bcd60e51b815260206004820152600b60248201526a139bdd081cdd195dd85c9960aa1b6044820152606490fd5b9050346101d357816003193601126101d35790546001600160a01b03168152602090f3fea26469706673582212202b1e3784d0b6654301a31339c33c33bfb029772d2f27c6d2cec20554f053d3cd64736f6c634300081400331e0e08dff3ac26c0ecc15c0bc7ef64a3a1e434734333b829fe8f1e61c2a5186a","opcodes":"PUSH1 0x40 PUSH1 0x80 DUP2 MSTORE CALLVALUE PUSH2 0x240 JUMPI PUSH2 0x554 SWAP1 DUP2 CODESIZE SUB DUP1 PUSH2 0x1B DUP2 PUSH2 0x25B JUMP JUMPDEST SWAP4 DUP5 CODECOPY DUP3 ADD DUP2 DUP4 DUP3 SUB SLT PUSH2 0x240 JUMPI DUP3 MLOAD PUSH1 0x1 PUSH1 0x1 PUSH1 0x40 SHL SUB SWAP4 SWAP1 DUP5 DUP2 GT PUSH2 0x240 JUMPI DUP2 ADD SWAP2 PUSH1 0x1F SWAP1 DUP1 DUP3 DUP6 ADD SLT ISZERO PUSH2 0x240 JUMPI DUP4 MLOAD SWAP6 DUP1 DUP8 GT PUSH2 0x245 JUMPI PUSH1 0x20 SWAP7 PUSH1 0x1F NOT SWAP5 PUSH2 0x6C DUP6 DUP4 ADD DUP8 AND DUP11 ADD PUSH2 0x25B JUMP JUMPDEST SWAP7 DUP3 DUP9 MSTORE DUP10 DUP9 ADD SWAP5 DUP11 DUP5 DUP4 ADD ADD GT PUSH2 0x240 JUMPI DUP10 SWAP3 DUP6 DUP5 PUSH2 0x8C SWAP4 ADD PUSH2 0x280 JUMP JUMPDEST ADD MLOAD PUSH1 0x0 DUP1 SLOAD PUSH1 0x1 PUSH1 0x1 PUSH1 0xA0 SHL SUB NOT AND CALLER OR DUP2 SSTORE DUP7 MLOAD SWAP2 SWAP3 SWAP1 SWAP2 SWAP1 DUP2 GT PUSH2 0x22C JUMPI PUSH1 0x1 SWAP2 DUP3 SLOAD DUP4 DUP2 DUP2 SHR SWAP2 AND DUP1 ISZERO PUSH2 0x222 JUMPI JUMPDEST DUP12 DUP3 LT EQ PUSH2 0x20E JUMPI DUP7 DUP2 GT PUSH2 0x1CB JUMPI JUMPDEST POP DUP10 SWAP1 DUP7 DUP4 GT PUSH1 0x1 EQ PUSH2 0x155 JUMPI SWAP3 DUP3 PUSH2 0x132 SWAP10 SWAP8 SWAP6 SWAP4 PUSH1 0x0 DUP1 MLOAD PUSH1 0x20 PUSH2 0x534 DUP4 CODECOPY DUP2 MLOAD SWAP2 MSTORE SWAP12 SWAP13 SWAP4 PUSH1 0x60 SWAP11 SWAP9 SWAP7 SWAP2 PUSH2 0x14A JUMPI JUMPDEST POP PUSH1 0x0 NOT PUSH1 0x3 DUP4 SWAP1 SHL SHR NOT AND SWAP1 DUP3 SHL OR SWAP1 SSTORE JUMPDEST DUP2 PUSH1 0x2 SSTORE DUP10 MLOAD SWAP8 DUP9 SWAP7 DUP12 DUP9 MSTORE MLOAD DUP1 SWAP5 DUP2 DUP14 DUP11 ADD MSTORE DUP10 DUP10 ADD SWAP1 PUSH2 0x280 JUMP JUMPDEST DUP6 ADD MSTORE ADD AND DUP2 ADD SUB ADD SWAP1 LOG1 MLOAD PUSH2 0x290 SWAP1 DUP2 PUSH2 0x2A4 DUP3 CODECOPY RETURN JUMPDEST SWAP1 POP DUP9 ADD MLOAD CODESIZE PUSH2 0x102 JUMP JUMPDEST SWAP1 DUP8 DUP4 AND DUP5 DUP4 MSTORE DUP12 DUP4 KECCAK256 SWAP3 JUMPDEST DUP2 DUP2 LT PUSH2 0x1B6 JUMPI POP SWAP4 DUP4 PUSH1 0x0 DUP1 MLOAD PUSH1 0x20 PUSH2 0x534 DUP4 CODECOPY DUP2 MLOAD SWAP2 MSTORE SWAP12 SWAP13 SWAP4 DUP3 SWAP4 PUSH2 0x132 SWAP13 SWAP11 SWAP9 SWAP7 PUSH1 0x60 SWAP13 SWAP11 SWAP9 LT PUSH2 0x19D JUMPI JUMPDEST POP POP DUP2 SHL ADD SWAP1 SSTORE PUSH2 0x115 JUMP JUMPDEST DUP11 ADD MLOAD PUSH1 0x0 NOT PUSH1 0xF8 DUP5 PUSH1 0x3 SHL AND SHR NOT AND SWAP1 SSTORE CODESIZE DUP1 PUSH2 0x191 JUMP JUMPDEST DUP11 DUP4 ADD MLOAD DUP5 SSTORE SWAP3 DUP6 ADD SWAP3 SWAP2 DUP13 ADD SWAP2 DUP13 ADD PUSH2 0x161 JUMP JUMPDEST DUP4 DUP3 MSTORE DUP11 DUP3 KECCAK256 DUP8 DUP1 DUP6 ADD PUSH1 0x5 SHR DUP3 ADD SWAP3 DUP14 DUP7 LT PUSH2 0x205 JUMPI JUMPDEST ADD PUSH1 0x5 SHR ADD SWAP1 DUP5 SWAP1 JUMPDEST DUP3 DUP2 LT PUSH2 0x1FA JUMPI POP POP PUSH2 0xCF JUMP JUMPDEST DUP4 DUP2 SSTORE ADD DUP5 SWAP1 PUSH2 0x1EC JUMP JUMPDEST SWAP3 POP DUP2 SWAP3 PUSH2 0x1E3 JUMP JUMPDEST PUSH4 0x4E487B71 PUSH1 0xE0 SHL DUP3 MSTORE PUSH1 0x22 PUSH1 0x4 MSTORE PUSH1 0x24 DUP3 REVERT JUMPDEST SWAP1 PUSH1 0x7F AND SWAP1 PUSH2 0xBF JUMP JUMPDEST PUSH4 0x4E487B71 PUSH1 0xE0 SHL DUP3 MSTORE PUSH1 0x41 PUSH1 0x4 MSTORE PUSH1 0x24 DUP3 REVERT JUMPDEST PUSH1 0x0 DUP1 REVERT JUMPDEST PUSH4 0x4E487B71 PUSH1 0xE0 SHL PUSH1 0x0 MSTORE PUSH1 0x41 PUSH1 0x4 MSTORE PUSH1 0x24 PUSH1 0x0 REVERT JUMPDEST PUSH1 0x40 MLOAD SWAP2 SWAP1 PUSH1 0x1F ADD PUSH1 0x1F NOT AND DUP3 ADD PUSH1 0x1 PUSH1 0x1 PUSH1 0x40 SHL SUB DUP2 GT DUP4 DUP3 LT OR PUSH2 0x245 JUMPI PUSH1 0x40 MSTORE JUMP JUMPDEST PUSH1 0x0 JUMPDEST DUP4 DUP2 LT PUSH2 0x293 JUMPI POP POP PUSH1 0x0 SWAP2 ADD MSTORE JUMP JUMPDEST DUP2 DUP2 ADD MLOAD DUP4 DUP3 ADD MSTORE PUSH1 0x20 ADD PUSH2 0x283 JUMP INVALID PUSH1 0x80 PUSH1 0x40 SWAP1 DUP1 DUP3 MSTORE PUSH1 0x4 CALLDATASIZE LT ISZERO PUSH2 0x15 JUMPI PUSH1 0x0 DUP1 REVERT JUMPDEST PUSH1 0x0 SWAP1 DUP2 CALLDATALOAD PUSH1 0xE0 SHR SWAP1 DUP2 PUSH4 0x637EEA19 EQ PUSH2 0x236 JUMPI POP DUP1 PUSH4 0x859073BB EQ PUSH2 0x1D7 JUMPI DUP1 PUSH4 0xD906896A EQ PUSH2 0x1B4 JUMPI PUSH4 0xE004CCDC EQ PUSH2 0x4F JUMPI PUSH1 0x0 DUP1 REVERT JUMPDEST CALLVALUE PUSH2 0x1B1 JUMPI DUP1 PUSH1 0x3 NOT CALLDATASIZE ADD SLT PUSH2 0x1B1 JUMPI DUP2 MLOAD SWAP2 DUP2 SWAP3 PUSH1 0x1 SWAP3 DUP4 SLOAD SWAP5 DUP6 DUP6 SHR SWAP5 DUP1 DUP8 AND SWAP7 DUP8 ISZERO PUSH2 0x1A7 JUMPI JUMPDEST PUSH1 0x20 SWAP8 DUP9 DUP9 LT DUP2 EQ PUSH2 0x193 JUMPI DUP8 DUP7 MSTORE DUP9 SWAP3 SWAP2 DUP2 ISZERO PUSH2 0x174 JUMPI POP PUSH1 0x1 EQ PUSH2 0x11F JUMPI JUMPDEST POP POP DUP3 SWAP4 SWAP5 POP PUSH1 0x1F DUP1 NOT SWAP5 DUP6 SWAP3 SUB ADD AND DUP3 ADD SWAP5 DUP3 DUP7 LT PUSH8 0xFFFFFFFFFFFFFFFF DUP8 GT OR PUSH2 0x10B JUMPI DUP6 SWAP3 SWAP4 SWAP2 DUP4 DUP7 MSTORE DUP2 DUP5 MSTORE DUP5 MLOAD SWAP2 DUP3 DUP2 DUP7 ADD MSTORE DUP2 SWAP6 JUMPDEST DUP4 DUP8 LT PUSH2 0xF3 JUMPI POP POP DUP4 SWAP5 POP DUP6 DUP3 PUSH1 0x1F SWAP5 SWAP6 ADD ADD MSTORE ADD AND DUP2 ADD SUB ADD SWAP1 RETURN JUMPDEST DUP7 DUP2 ADD DUP3 ADD MLOAD DUP10 DUP9 ADD DUP10 ADD MSTORE SWAP6 DUP2 ADD SWAP6 DUP9 SWAP6 POP PUSH2 0xD5 JUMP JUMPDEST PUSH4 0x4E487B71 PUSH1 0xE0 SHL DUP3 MSTORE PUSH1 0x41 PUSH1 0x4 MSTORE PUSH1 0x24 DUP3 REVERT JUMPDEST DUP1 DUP5 MSTORE SWAP1 SWAP2 POP DUP3 SWAP1 PUSH32 0xB10E2D527612073B26EECDFD717E6A320CF44B4AFAC2B0732D9FCBE2B7FA0CF6 JUMPDEST DUP8 DUP4 LT PUSH2 0x161 JUMPI POP SWAP5 SWAP6 POP DUP6 SWAP5 POP DUP4 ADD ADD DUP6 CODESIZE PUSH2 0x9A JUMP JUMPDEST DUP1 SLOAD DUP7 DUP5 ADD DUP6 ADD MSTORE SWAP2 DUP4 ADD SWAP2 DUP2 ADD PUSH2 0x149 JUMP JUMPDEST PUSH1 0xFF NOT AND DUP4 DUP8 ADD MSTORE POP SWAP5 SWAP6 DUP7 SWAP6 POP ISZERO ISZERO PUSH1 0x5 SHL DUP5 ADD ADD SWAP1 POP DUP6 CODESIZE PUSH2 0x9A JUMP JUMPDEST PUSH4 0x4E487B71 PUSH1 0xE0 SHL DUP6 MSTORE PUSH1 0x22 PUSH1 0x4 MSTORE PUSH1 0x24 DUP6 REVERT JUMPDEST SWAP6 PUSH1 0x7F AND SWAP6 PUSH2 0x79 JUMP JUMPDEST DUP1 REVERT JUMPDEST POP SWAP1 CALLVALUE PUSH2 0x1D3 JUMPI DUP2 PUSH1 0x3 NOT CALLDATASIZE ADD SLT PUSH2 0x1D3 JUMPI PUSH1 0x20 SWAP1 PUSH1 0x2 SLOAD SWAP1 MLOAD SWAP1 DUP2 MSTORE RETURN JUMPDEST POP DUP1 REVERT JUMPDEST POP SWAP1 CALLVALUE PUSH2 0x1D3 JUMPI PUSH1 0x20 CALLDATASIZE PUSH1 0x3 NOT ADD SLT PUSH2 0x1D3 JUMPI DUP2 SLOAD PUSH1 0x1 PUSH1 0x1 PUSH1 0xA0 SHL SUB AND CALLER SUB PUSH2 0x205 JUMPI POP PUSH1 0x4 CALLDATALOAD PUSH1 0x2 SSTORE DUP1 RETURN JUMPDEST MLOAD PUSH3 0x461BCD PUSH1 0xE5 SHL DUP2 MSTORE PUSH1 0x20 PUSH1 0x4 DUP3 ADD MSTORE PUSH1 0xB PUSH1 0x24 DUP3 ADD MSTORE PUSH11 0x139BDD081CDD195DD85C99 PUSH1 0xAA SHL PUSH1 0x44 DUP3 ADD MSTORE PUSH1 0x64 SWAP1 REVERT JUMPDEST SWAP1 POP CALLVALUE PUSH2 0x1D3 JUMPI DUP2 PUSH1 0x3 NOT CALLDATASIZE ADD SLT PUSH2 0x1D3 JUMPI SWAP1 SLOAD PUSH1 0x1 PUSH1 0x1 PUSH1 0xA0 SHL SUB AND DUP2 MSTORE PUSH1 0x20 SWAP1 RETURN INVALID LOG2 PUSH5 0x6970667358 0x22 SLT KECCAK256 0x2B 0x1E CALLDATACOPY DUP5 0xD0 0xB6 PUSH6 0x4301A31339C3 EXTCODECOPY CALLER 0xBF 0xB0 0x29 PUSH24 0x2D2F27C6D2CEC20554F053D3CD64736F6C63430008140033 0x1E 0xE ADDMOD 0xDF RETURN 0xAC 0x26 0xC0 0xEC 0xC1 0x5C SIGNEXTEND 0xC7 0xEF PUSH5 0xA3A1E43473 NUMBER CALLER 0xB8 0x29 INVALID DUP16 0x1E PUSH2 0xC2A5 XOR PUSH11 0x0 "},"methodIdentifiers":{"altitude()":"d906896a","cityName()":"e004ccdc","steward()":"637eea19","updateAltitude(uint256)":"859073bb"}}}}}