{"contracts/Lunethrae.sol":{"Lunethrae":{"abi":[{"anonymous":false,"inputs":[{"indexed":true,"internalType":"address","name":"apprentice","type":"address"}],"name":"CompanionActivated","type":"event"},{"anonymous":false,"inputs":[{"indexed":true,"internalType":"address","name":"apprentice","type":"address"},{"indexed":false,"internalType":"string","name":"edit","type":"string"}],"name":"ConfigEdited","type":"event"},{"inputs":[{"internalType":"address","name":"apprentice","type":"address"}],"name":"activate","outputs":[],"stateMutability":"nonpayable","type":"function"},{"inputs":[{"internalType":"address","name":"","type":"address"}],"name":"activated","outputs":[{"internalType":"bool","name":"","type":"bool"}],"stateMutability":"view","type":"function"},{"inputs":[{"internalType":"address","name":"apprentice","type":"address"}],"name":"echoEdit","outputs":[{"internalType":"string","name":"","type":"string"}],"stateMutability":"view","type":"function"},{"inputs":[{"internalType":"address","name":"","type":"address"}],"name":"edits","outputs":[{"internalType":"string","name":"","type":"string"}],"stateMutability":"view","type":"function"},{"inputs":[{"internalType":"address","name":"apprentice","type":"address"},{"internalType":"string","name":"edit","type":"string"}],"name":"submitEdit","outputs":[],"stateMutability":"nonpayable","type":"function"}],"evm":{"bytecode":{"linkReferences":{},"object":"60808060405234610016576105c2908161001c8239f35b600080fdfe604060808152600436101561001357600080fd5b600090813560e01c80630956ec21146103745780631c5a9d9c146103155780635cd0bad9146100de578063779d8677146100a25763fe39457f1461005657600080fd5b3461009e57602036600319011261009e5761009a9161008f9082906001600160a01b036100816103c4565b16815260016020522061049a565b9051918291826103df565b0390f35b5080fd5b503461009e57602036600319011261009e5760209160ff9082906001600160a01b036100cc6103c4565b16815280855220541690519015158152f35b503461009e578060031936011261009e576100f76103c4565b67ffffffffffffffff916024358381116103115736602382011215610311578060040135938085116102fd5782519386602093601f199761013f868a601f8401160189610428565b80885236602482840101116102f957806024879301838a0137870101526001600160a01b03168087528683528387205490959061017e9060ff16610540565b8587526001908184528488209386519384116102e55761019e8554610460565b601f811161029f575b508091601f85116001146102165750509180807fcae8c2c522ef07f052fa7d38e402f916862e2109715efe7c7d499d16b772cf5097959361020597958b9361020b575b501b916000199060031b1c19161790555b51918291826103df565b0390a280f35b8701519250386101ea565b84939492919216858a52828a20928a905b8282106102885750509183917fcae8c2c522ef07f052fa7d38e402f916862e2109715efe7c7d499d16b772cf509896946102059896941061026f575b5050811b0190556101fb565b86015160001960f88460031b161c191690553880610263565b808785968294968d01518155019501930190610227565b858a52818a20601f860160051c8101918387106102db575b601f0160051c019084905b8281106102d05750506101a7565b8b81550184906102c2565b90915081906102b7565b634e487b7160e01b89526041600452602489fd5b8280fd5b634e487b7160e01b86526041600452602486fd5b8480fd5b503461009e57602036600319011261009e576001600160a01b036103376103c4565b1690818352826020528220600160ff198254161790557fd9b25af30713b5bb8fe8939791ca4aa6d4a10489af27f8bf9da3fdca1e2eec288280a280f35b503461009e57602036600319011261009e5761009a9161008f9082906001600160a01b036103a06103c4565b16808252816020526103b760ff8484205416610540565b815260016020522061049a565b600435906001600160a01b03821682036103da57565b600080fd5b6020808252825181830181905290939260005b82811061041457505060409293506000838284010152601f8019910116010190565b8181018601518482016040015285016103f2565b90601f8019910116810190811067ffffffffffffffff82111761044a57604052565b634e487b7160e01b600052604160045260246000fd5b90600182811c92168015610490575b602083101461047a57565b634e487b7160e01b600052602260045260246000fd5b91607f169161046f565b90604051918260008254926104ae84610460565b90818452600194858116908160001461051d57506001146104da575b50506104d892500383610428565b565b9093915060005260209081600020936000915b8183106105055750506104d8935082010138806104ca565b855488840185015294850194879450918301916104ed565b9150506104d894506020925060ff191682840152151560051b82010138806104ca565b1561054757565b60405162461bcd60e51b815260206004820152601760248201527f4c756e657468726165206e6f74206163746976617465640000000000000000006044820152606490fdfea2646970667358221220dd516c36cd61bea039a4dd98342aaa2efc6dcfedb10b1b9de69806a1b739232664736f6c63430008140033","opcodes":"PUSH1 0x80 DUP1 PUSH1 0x40 MSTORE CALLVALUE PUSH2 0x16 JUMPI PUSH2 0x5C2 SWAP1 DUP2 PUSH2 0x1C DUP3 CODECOPY RETURN JUMPDEST PUSH1 0x0 DUP1 REVERT INVALID PUSH1 0x40 PUSH1 0x80 DUP2 MSTORE PUSH1 0x4 CALLDATASIZE LT ISZERO PUSH2 0x13 JUMPI PUSH1 0x0 DUP1 REVERT JUMPDEST PUSH1 0x0 SWAP1 DUP2 CALLDATALOAD PUSH1 0xE0 SHR DUP1 PUSH4 0x956EC21 EQ PUSH2 0x374 JUMPI DUP1 PUSH4 0x1C5A9D9C EQ PUSH2 0x315 JUMPI DUP1 PUSH4 0x5CD0BAD9 EQ PUSH2 0xDE JUMPI DUP1 PUSH4 0x779D8677 EQ PUSH2 0xA2 JUMPI PUSH4 0xFE39457F EQ PUSH2 0x56 JUMPI PUSH1 0x0 DUP1 REVERT JUMPDEST CALLVALUE PUSH2 0x9E JUMPI PUSH1 0x20 CALLDATASIZE PUSH1 0x3 NOT ADD SLT PUSH2 0x9E JUMPI PUSH2 0x9A SWAP2 PUSH2 0x8F SWAP1 DUP3 SWAP1 PUSH1 0x1 PUSH1 0x1 PUSH1 0xA0 SHL SUB PUSH2 0x81 PUSH2 0x3C4 JUMP JUMPDEST AND DUP2 MSTORE PUSH1 0x1 PUSH1 0x20 MSTORE KECCAK256 PUSH2 0x49A JUMP JUMPDEST SWAP1 MLOAD SWAP2 DUP3 SWAP2 DUP3 PUSH2 0x3DF JUMP JUMPDEST SUB SWAP1 RETURN JUMPDEST POP DUP1 REVERT JUMPDEST POP CALLVALUE PUSH2 0x9E JUMPI PUSH1 0x20 CALLDATASIZE PUSH1 0x3 NOT ADD SLT PUSH2 0x9E JUMPI PUSH1 0x20 SWAP2 PUSH1 0xFF SWAP1 DUP3 SWAP1 PUSH1 0x1 PUSH1 0x1 PUSH1 0xA0 SHL SUB PUSH2 0xCC PUSH2 0x3C4 JUMP JUMPDEST AND DUP2 MSTORE DUP1 DUP6 MSTORE KECCAK256 SLOAD AND SWAP1 MLOAD SWAP1 ISZERO ISZERO DUP2 MSTORE RETURN JUMPDEST POP CALLVALUE PUSH2 0x9E JUMPI DUP1 PUSH1 0x3 NOT CALLDATASIZE ADD SLT PUSH2 0x9E JUMPI PUSH2 0xF7 PUSH2 0x3C4 JUMP JUMPDEST PUSH8 0xFFFFFFFFFFFFFFFF SWAP2 PUSH1 0x24 CALLDATALOAD DUP4 DUP2 GT PUSH2 0x311 JUMPI CALLDATASIZE PUSH1 0x23 DUP3 ADD SLT ISZERO PUSH2 0x311 JUMPI DUP1 PUSH1 0x4 ADD CALLDATALOAD SWAP4 DUP1 DUP6 GT PUSH2 0x2FD JUMPI DUP3 MLOAD SWAP4 DUP7 PUSH1 0x20 SWAP4 PUSH1 0x1F NOT SWAP8 PUSH2 0x13F DUP7 DUP11 PUSH1 0x1F DUP5 ADD AND ADD DUP10 PUSH2 0x428 JUMP JUMPDEST DUP1 DUP9 MSTORE CALLDATASIZE PUSH1 0x24 DUP3 DUP5 ADD ADD GT PUSH2 0x2F9 JUMPI DUP1 PUSH1 0x24 DUP8 SWAP4 ADD DUP4 DUP11 ADD CALLDATACOPY DUP8 ADD ADD MSTORE PUSH1 0x1 PUSH1 0x1 PUSH1 0xA0 SHL SUB AND DUP1 DUP8 MSTORE DUP7 DUP4 MSTORE DUP4 DUP8 KECCAK256 SLOAD SWAP1 SWAP6 SWAP1 PUSH2 0x17E SWAP1 PUSH1 0xFF AND PUSH2 0x540 JUMP JUMPDEST DUP6 DUP8 MSTORE PUSH1 0x1 SWAP1 DUP2 DUP5 MSTORE DUP5 DUP9 KECCAK256 SWAP4 DUP7 MLOAD SWAP4 DUP5 GT PUSH2 0x2E5 JUMPI PUSH2 0x19E DUP6 SLOAD PUSH2 0x460 JUMP JUMPDEST PUSH1 0x1F DUP2 GT PUSH2 0x29F JUMPI JUMPDEST POP DUP1 SWAP2 PUSH1 0x1F DUP6 GT PUSH1 0x1 EQ PUSH2 0x216 JUMPI POP POP SWAP2 DUP1 DUP1 PUSH32 0xCAE8C2C522EF07F052FA7D38E402F916862E2109715EFE7C7D499D16B772CF50 SWAP8 SWAP6 SWAP4 PUSH2 0x205 SWAP8 SWAP6 DUP12 SWAP4 PUSH2 0x20B JUMPI JUMPDEST POP SHL SWAP2 PUSH1 0x0 NOT SWAP1 PUSH1 0x3 SHL SHR NOT AND OR SWAP1 SSTORE JUMPDEST MLOAD SWAP2 DUP3 SWAP2 DUP3 PUSH2 0x3DF JUMP JUMPDEST SUB SWAP1 LOG2 DUP1 RETURN JUMPDEST DUP8 ADD MLOAD SWAP3 POP CODESIZE PUSH2 0x1EA JUMP JUMPDEST DUP5 SWAP4 SWAP5 SWAP3 SWAP2 SWAP3 AND DUP6 DUP11 MSTORE DUP3 DUP11 KECCAK256 SWAP3 DUP11 SWAP1 JUMPDEST DUP3 DUP3 LT PUSH2 0x288 JUMPI POP POP SWAP2 DUP4 SWAP2 PUSH32 0xCAE8C2C522EF07F052FA7D38E402F916862E2109715EFE7C7D499D16B772CF50 SWAP9 SWAP7 SWAP5 PUSH2 0x205 SWAP9 SWAP7 SWAP5 LT PUSH2 0x26F JUMPI JUMPDEST POP POP DUP2 SHL ADD SWAP1 SSTORE PUSH2 0x1FB JUMP JUMPDEST DUP7 ADD MLOAD PUSH1 0x0 NOT PUSH1 0xF8 DUP5 PUSH1 0x3 SHL AND SHR NOT AND SWAP1 SSTORE CODESIZE DUP1 PUSH2 0x263 JUMP JUMPDEST DUP1 DUP8 DUP6 SWAP7 DUP3 SWAP5 SWAP7 DUP14 ADD MLOAD DUP2 SSTORE ADD SWAP6 ADD SWAP4 ADD SWAP1 PUSH2 0x227 JUMP JUMPDEST DUP6 DUP11 MSTORE DUP2 DUP11 KECCAK256 PUSH1 0x1F DUP7 ADD PUSH1 0x5 SHR DUP2 ADD SWAP2 DUP4 DUP8 LT PUSH2 0x2DB JUMPI JUMPDEST PUSH1 0x1F ADD PUSH1 0x5 SHR ADD SWAP1 DUP5 SWAP1 JUMPDEST DUP3 DUP2 LT PUSH2 0x2D0 JUMPI POP POP PUSH2 0x1A7 JUMP JUMPDEST DUP12 DUP2 SSTORE ADD DUP5 SWAP1 PUSH2 0x2C2 JUMP JUMPDEST SWAP1 SWAP2 POP DUP2 SWAP1 PUSH2 0x2B7 JUMP JUMPDEST PUSH4 0x4E487B71 PUSH1 0xE0 SHL DUP10 MSTORE PUSH1 0x41 PUSH1 0x4 MSTORE PUSH1 0x24 DUP10 REVERT JUMPDEST DUP3 DUP1 REVERT JUMPDEST PUSH4 0x4E487B71 PUSH1 0xE0 SHL DUP7 MSTORE PUSH1 0x41 PUSH1 0x4 MSTORE PUSH1 0x24 DUP7 REVERT JUMPDEST DUP5 DUP1 REVERT JUMPDEST POP CALLVALUE PUSH2 0x9E JUMPI PUSH1 0x20 CALLDATASIZE PUSH1 0x3 NOT ADD SLT PUSH2 0x9E JUMPI PUSH1 0x1 PUSH1 0x1 PUSH1 0xA0 SHL SUB PUSH2 0x337 PUSH2 0x3C4 JUMP JUMPDEST AND SWAP1 DUP2 DUP4 MSTORE DUP3 PUSH1 0x20 MSTORE DUP3 KECCAK256 PUSH1 0x1 PUSH1 0xFF NOT DUP3 SLOAD AND OR SWAP1 SSTORE PUSH32 0xD9B25AF30713B5BB8FE8939791CA4AA6D4A10489AF27F8BF9DA3FDCA1E2EEC28 DUP3 DUP1 LOG2 DUP1 RETURN JUMPDEST POP CALLVALUE PUSH2 0x9E JUMPI PUSH1 0x20 CALLDATASIZE PUSH1 0x3 NOT ADD SLT PUSH2 0x9E JUMPI PUSH2 0x9A SWAP2 PUSH2 0x8F SWAP1 DUP3 SWAP1 PUSH1 0x1 PUSH1 0x1 PUSH1 0xA0 SHL SUB PUSH2 0x3A0 PUSH2 0x3C4 JUMP JUMPDEST AND DUP1 DUP3 MSTORE DUP2 PUSH1 0x20 MSTORE PUSH2 0x3B7 PUSH1 0xFF DUP5 DUP5 KECCAK256 SLOAD AND PUSH2 0x540 JUMP JUMPDEST DUP2 MSTORE PUSH1 0x1 PUSH1 0x20 MSTORE KECCAK256 PUSH2 0x49A JUMP JUMPDEST PUSH1 0x4 CALLDATALOAD SWAP1 PUSH1 0x1 PUSH1 0x1 PUSH1 0xA0 SHL SUB DUP3 AND DUP3 SUB PUSH2 0x3DA JUMPI JUMP JUMPDEST PUSH1 0x0 DUP1 REVERT JUMPDEST PUSH1 0x20 DUP1 DUP3 MSTORE DUP3 MLOAD DUP2 DUP4 ADD DUP2 SWAP1 MSTORE SWAP1 SWAP4 SWAP3 PUSH1 0x0 JUMPDEST DUP3 DUP2 LT PUSH2 0x414 JUMPI POP POP PUSH1 0x40 SWAP3 SWAP4 POP PUSH1 0x0 DUP4 DUP3 DUP5 ADD ADD MSTORE PUSH1 0x1F DUP1 NOT SWAP2 ADD AND ADD ADD SWAP1 JUMP JUMPDEST DUP2 DUP2 ADD DUP7 ADD MLOAD DUP5 DUP3 ADD PUSH1 0x40 ADD MSTORE DUP6 ADD PUSH2 0x3F2 JUMP JUMPDEST SWAP1 PUSH1 0x1F DUP1 NOT SWAP2 ADD AND DUP2 ADD SWAP1 DUP2 LT PUSH8 0xFFFFFFFFFFFFFFFF DUP3 GT OR PUSH2 0x44A JUMPI PUSH1 0x40 MSTORE JUMP JUMPDEST PUSH4 0x4E487B71 PUSH1 0xE0 SHL PUSH1 0x0 MSTORE PUSH1 0x41 PUSH1 0x4 MSTORE PUSH1 0x24 PUSH1 0x0 REVERT JUMPDEST SWAP1 PUSH1 0x1 DUP3 DUP2 SHR SWAP3 AND DUP1 ISZERO PUSH2 0x490 JUMPI JUMPDEST PUSH1 0x20 DUP4 LT EQ PUSH2 0x47A JUMPI JUMP JUMPDEST PUSH4 0x4E487B71 PUSH1 0xE0 SHL PUSH1 0x0 MSTORE PUSH1 0x22 PUSH1 0x4 MSTORE PUSH1 0x24 PUSH1 0x0 REVERT JUMPDEST SWAP2 PUSH1 0x7F AND SWAP2 PUSH2 0x46F JUMP JUMPDEST SWAP1 PUSH1 0x40 MLOAD SWAP2 DUP3 PUSH1 0x0 DUP3 SLOAD SWAP3 PUSH2 0x4AE DUP5 PUSH2 0x460 JUMP JUMPDEST SWAP1 DUP2 DUP5 MSTORE PUSH1 0x1 SWAP5 DUP6 DUP2 AND SWAP1 DUP2 PUSH1 0x0 EQ PUSH2 0x51D JUMPI POP PUSH1 0x1 EQ PUSH2 0x4DA JUMPI JUMPDEST POP POP PUSH2 0x4D8 SWAP3 POP SUB DUP4 PUSH2 0x428 JUMP JUMPDEST JUMP JUMPDEST SWAP1 SWAP4 SWAP2 POP PUSH1 0x0 MSTORE PUSH1 0x20 SWAP1 DUP2 PUSH1 0x0 KECCAK256 SWAP4 PUSH1 0x0 SWAP2 JUMPDEST DUP2 DUP4 LT PUSH2 0x505 JUMPI POP POP PUSH2 0x4D8 SWAP4 POP DUP3 ADD ADD CODESIZE DUP1 PUSH2 0x4CA JUMP JUMPDEST DUP6 SLOAD DUP9 DUP5 ADD DUP6 ADD MSTORE SWAP5 DUP6 ADD SWAP5 DUP8 SWAP5 POP SWAP2 DUP4 ADD SWAP2 PUSH2 0x4ED JUMP JUMPDEST SWAP2 POP POP PUSH2 0x4D8 SWAP5 POP PUSH1 0x20 SWAP3 POP PUSH1 0xFF NOT AND DUP3 DUP5 ADD MSTORE ISZERO ISZERO PUSH1 0x5 SHL DUP3 ADD ADD CODESIZE DUP1 PUSH2 0x4CA JUMP JUMPDEST ISZERO PUSH2 0x547 JUMPI JUMP JUMPDEST PUSH1 0x40 MLOAD PUSH3 0x461BCD PUSH1 0xE5 SHL DUP2 MSTORE PUSH1 0x20 PUSH1 0x4 DUP3 ADD MSTORE PUSH1 0x17 PUSH1 0x24 DUP3 ADD MSTORE PUSH32 0x4C756E657468726165206E6F7420616374697661746564000000000000000000 PUSH1 0x44 DUP3 ADD MSTORE PUSH1 0x64 SWAP1 REVERT INVALID LOG2 PUSH5 0x6970667358 0x22 SLT KECCAK256 0xDD MLOAD PUSH13 0x36CD61BEA039A4DD98342AAA2E 0xFC PUSH14 0xCFEDB10B1B9DE69806A1B7392326 PUSH5 0x736F6C6343 STOP ADDMOD EQ STOP CALLER "},"methodIdentifiers":{"activate(address)":"1c5a9d9c","activated(address)":"779d8677","echoEdit(address)":"0956ec21","edits(address)":"fe39457f","submitEdit(address,string)":"5cd0bad9"}}}}}