{"contracts/maxwells-daemon/DaemonEcho.sol":{"DaemonEcho":{"abi":[{"inputs":[],"stateMutability":"nonpayable","type":"constructor"},{"anonymous":false,"inputs":[{"indexed":true,"internalType":"address","name":"sanctum","type":"address"},{"indexed":false,"internalType":"string","name":"state","type":"string"},{"indexed":false,"internalType":"uint256","name":"timestamp","type":"uint256"}],"name":"SanctumEchoed","type":"event"},{"inputs":[{"internalType":"address","name":"sanctum","type":"address"},{"internalType":"string","name":"state","type":"string"}],"name":"echoSanctum","outputs":[],"stateMutability":"nonpayable","type":"function"},{"inputs":[{"internalType":"address","name":"","type":"address"}],"name":"echoes","outputs":[{"internalType":"address","name":"sanctum","type":"address"},{"internalType":"string","name":"state","type":"string"},{"internalType":"uint256","name":"timestamp","type":"uint256"}],"stateMutability":"view","type":"function"},{"inputs":[{"internalType":"address","name":"sanctum","type":"address"}],"name":"getEcho","outputs":[{"internalType":"string","name":"","type":"string"},{"internalType":"uint256","name":"","type":"uint256"}],"stateMutability":"view","type":"function"},{"inputs":[{"internalType":"uint256","name":"","type":"uint256"}],"name":"sanctums","outputs":[{"internalType":"address","name":"","type":"address"}],"stateMutability":"view","type":"function"},{"inputs":[],"name":"steward","outputs":[{"internalType":"address","name":"","type":"address"}],"stateMutability":"view","type":"function"},{"inputs":[],"name":"totalSanctums","outputs":[{"internalType":"uint256","name":"","type":"uint256"}],"stateMutability":"view","type":"function"}],"evm":{"bytecode":{"linkReferences":{},"object":"6080806040523461002857600080546001600160a01b0319163317905561070c908161002e8239f35b600080fdfe608080604052600436101561001357600080fd5b60003560e01c908163270da011146101da575080632d70c89d146101bc57806359070fc41461017a578063637eea19146101515780636552bc7e146100d15763ad1400231461006157600080fd5b346100cc5760203660031901126100cc576001600160a01b0380610083610515565b16600052600160205260406000209081541660026100a360018401610630565b9201546100c26040519384938452606060208501526060840190610578565b9060408301520390f35b600080fd5b346100cc5760203660031901126100cc576101476001600160a01b03806100f6610515565b16600052600160205260408060002091815190610112826105f2565b8354168152600261012560018501610630565b9384602084015201549182910152604051928392604084526040840190610578565b9060208301520390f35b346100cc5760003660031901126100cc576000546040516001600160a01b039091168152602090f35b346100cc5760203660031901126100cc576004356002548110156100cc576101a360209161052b565b905460405160039290921b1c6001600160a01b03168152f35b346100cc5760003660031901126100cc576020600254604051908152f35b346100cc5760403660031901126100cc576101f3610515565b9067ffffffffffffffff602435116100cc573660236024350112156100cc5767ffffffffffffffff60243560040135116100cc5736602480356004013581350101116100cc576000546001600160a01b031633036104e55750604051610258816105f2565b6001600160a01b03821681526040519061028260046024350135601f01601f19166020018361060e565b602480356004810135808552910160208401376000602060243560040135840101526020810191825242604082015260018060a01b038316600052600160205260406000209160018060a01b038251166bffffffffffffffffffffffff60a01b8454161783555180519067ffffffffffffffff821161040a5761030860018501546105b8565b601f811161049e575b50602090601f831160011461042b57918060029492604094600092610420575b50508160011b916000199060031b1c19161760018501555b01519101556002546801000000000000000081101561040a57806001610372920160025561052b565b81546001600160a01b0384811660039390931b92831b921b19161790556040805181815260248035600481013593830184905291937fa6b710da019e991a8e137518ad383192c9107a3b01a8fb05a96e1e23bc620816939092909101606085013760006060602435600401358501015242602084015260018060a01b031691606081601f19601f6024356004013501168101030190a2005b634e487b7160e01b600052604160045260246000fd5b015190508780610331565b90601f198316916001860160005260206000209260005b8181106104865750926001928592604096600298961061046d575b505050811b016001850155610349565b015160001960f88460031b161c1916905587808061045d565b92936020600181928786015181550195019301610442565b600185016000526020600020601f840160051c8101602085106104de575b601f830160051c820181106104d2575050610311565b600081556001016104bc565b50806104bc565b62461bcd60e51b815260206004820152600b60248201526a139bdd081cdd195dd85c9960aa1b6044820152606490fd5b600435906001600160a01b03821682036100cc57565b6002548110156105625760026000527f405787fa12a823e0f2b7631cc41b3ba8828b3321ca811111fa75cd3aa3bb5ace0190600090565b634e487b7160e01b600052603260045260246000fd5b919082519283825260005b8481106105a4575050826000602080949584010152601f8019910116010190565b602081830181015184830182015201610583565b90600182811c921680156105e8575b60208310146105d257565b634e487b7160e01b600052602260045260246000fd5b91607f16916105c7565b6060810190811067ffffffffffffffff82111761040a57604052565b90601f8019910116810190811067ffffffffffffffff82111761040a57604052565b9060405191826000825492610644846105b8565b9081845260019485811690816000146106b35750600114610670575b505061066e9250038361060e565b565b9093915060005260209081600020936000915b81831061069b57505061066e93508201013880610660565b85548884018501529485019487945091830191610683565b91505061066e94506020925060ff191682840152151560051b820101388061066056fea264697066735822122094dc3fa4e251d225f83e3308127257854bce4d6f9b6b885fd5a2ae1a70703e9a64736f6c63430008140033","opcodes":"PUSH1 0x80 DUP1 PUSH1 0x40 MSTORE CALLVALUE PUSH2 0x28 JUMPI PUSH1 0x0 DUP1 SLOAD PUSH1 0x1 PUSH1 0x1 PUSH1 0xA0 SHL SUB NOT AND CALLER OR SWAP1 SSTORE PUSH2 0x70C SWAP1 DUP2 PUSH2 0x2E DUP3 CODECOPY RETURN JUMPDEST PUSH1 0x0 DUP1 REVERT INVALID PUSH1 0x80 DUP1 PUSH1 0x40 MSTORE PUSH1 0x4 CALLDATASIZE LT ISZERO PUSH2 0x13 JUMPI PUSH1 0x0 DUP1 REVERT JUMPDEST PUSH1 0x0 CALLDATALOAD PUSH1 0xE0 SHR SWAP1 DUP2 PUSH4 0x270DA011 EQ PUSH2 0x1DA JUMPI POP DUP1 PUSH4 0x2D70C89D EQ PUSH2 0x1BC JUMPI DUP1 PUSH4 0x59070FC4 EQ PUSH2 0x17A JUMPI DUP1 PUSH4 0x637EEA19 EQ PUSH2 0x151 JUMPI DUP1 PUSH4 0x6552BC7E EQ PUSH2 0xD1 JUMPI PUSH4 0xAD140023 EQ PUSH2 0x61 JUMPI PUSH1 0x0 DUP1 REVERT JUMPDEST CALLVALUE PUSH2 0xCC JUMPI PUSH1 0x20 CALLDATASIZE PUSH1 0x3 NOT ADD SLT PUSH2 0xCC JUMPI PUSH1 0x1 PUSH1 0x1 PUSH1 0xA0 SHL SUB DUP1 PUSH2 0x83 PUSH2 0x515 JUMP JUMPDEST AND PUSH1 0x0 MSTORE PUSH1 0x1 PUSH1 0x20 MSTORE PUSH1 0x40 PUSH1 0x0 KECCAK256 SWAP1 DUP2 SLOAD AND PUSH1 0x2 PUSH2 0xA3 PUSH1 0x1 DUP5 ADD PUSH2 0x630 JUMP JUMPDEST SWAP3 ADD SLOAD PUSH2 0xC2 PUSH1 0x40 MLOAD SWAP4 DUP5 SWAP4 DUP5 MSTORE PUSH1 0x60 PUSH1 0x20 DUP6 ADD MSTORE PUSH1 0x60 DUP5 ADD SWAP1 PUSH2 0x578 JUMP JUMPDEST SWAP1 PUSH1 0x40 DUP4 ADD MSTORE SUB SWAP1 RETURN JUMPDEST PUSH1 0x0 DUP1 REVERT JUMPDEST CALLVALUE PUSH2 0xCC JUMPI PUSH1 0x20 CALLDATASIZE PUSH1 0x3 NOT ADD SLT PUSH2 0xCC JUMPI PUSH2 0x147 PUSH1 0x1 PUSH1 0x1 PUSH1 0xA0 SHL SUB DUP1 PUSH2 0xF6 PUSH2 0x515 JUMP JUMPDEST AND PUSH1 0x0 MSTORE PUSH1 0x1 PUSH1 0x20 MSTORE PUSH1 0x40 DUP1 PUSH1 0x0 KECCAK256 SWAP2 DUP2 MLOAD SWAP1 PUSH2 0x112 DUP3 PUSH2 0x5F2 JUMP JUMPDEST DUP4 SLOAD AND DUP2 MSTORE PUSH1 0x2 PUSH2 0x125 PUSH1 0x1 DUP6 ADD PUSH2 0x630 JUMP JUMPDEST SWAP4 DUP5 PUSH1 0x20 DUP5 ADD MSTORE ADD SLOAD SWAP2 DUP3 SWAP2 ADD MSTORE PUSH1 0x40 MLOAD SWAP3 DUP4 SWAP3 PUSH1 0x40 DUP5 MSTORE PUSH1 0x40 DUP5 ADD SWAP1 PUSH2 0x578 JUMP JUMPDEST SWAP1 PUSH1 0x20 DUP4 ADD MSTORE SUB SWAP1 RETURN JUMPDEST CALLVALUE PUSH2 0xCC JUMPI PUSH1 0x0 CALLDATASIZE PUSH1 0x3 NOT ADD SLT PUSH2 0xCC JUMPI PUSH1 0x0 SLOAD PUSH1 0x40 MLOAD PUSH1 0x1 PUSH1 0x1 PUSH1 0xA0 SHL SUB SWAP1 SWAP2 AND DUP2 MSTORE PUSH1 0x20 SWAP1 RETURN JUMPDEST CALLVALUE PUSH2 0xCC JUMPI PUSH1 0x20 CALLDATASIZE PUSH1 0x3 NOT ADD SLT PUSH2 0xCC JUMPI PUSH1 0x4 CALLDATALOAD PUSH1 0x2 SLOAD DUP2 LT ISZERO PUSH2 0xCC JUMPI PUSH2 0x1A3 PUSH1 0x20 SWAP2 PUSH2 0x52B JUMP JUMPDEST SWAP1 SLOAD PUSH1 0x40 MLOAD PUSH1 0x3 SWAP3 SWAP1 SWAP3 SHL SHR PUSH1 0x1 PUSH1 0x1 PUSH1 0xA0 SHL SUB AND DUP2 MSTORE RETURN JUMPDEST CALLVALUE PUSH2 0xCC JUMPI PUSH1 0x0 CALLDATASIZE PUSH1 0x3 NOT ADD SLT PUSH2 0xCC JUMPI PUSH1 0x20 PUSH1 0x2 SLOAD PUSH1 0x40 MLOAD SWAP1 DUP2 MSTORE RETURN JUMPDEST CALLVALUE PUSH2 0xCC JUMPI PUSH1 0x40 CALLDATASIZE PUSH1 0x3 NOT ADD SLT PUSH2 0xCC JUMPI PUSH2 0x1F3 PUSH2 0x515 JUMP JUMPDEST SWAP1 PUSH8 0xFFFFFFFFFFFFFFFF PUSH1 0x24 CALLDATALOAD GT PUSH2 0xCC JUMPI CALLDATASIZE PUSH1 0x23 PUSH1 0x24 CALLDATALOAD ADD SLT ISZERO PUSH2 0xCC JUMPI PUSH8 0xFFFFFFFFFFFFFFFF PUSH1 0x24 CALLDATALOAD PUSH1 0x4 ADD CALLDATALOAD GT PUSH2 0xCC JUMPI CALLDATASIZE PUSH1 0x24 DUP1 CALLDATALOAD PUSH1 0x4 ADD CALLDATALOAD DUP2 CALLDATALOAD ADD ADD GT PUSH2 0xCC JUMPI PUSH1 0x0 SLOAD PUSH1 0x1 PUSH1 0x1 PUSH1 0xA0 SHL SUB AND CALLER SUB PUSH2 0x4E5 JUMPI POP PUSH1 0x40 MLOAD PUSH2 0x258 DUP2 PUSH2 0x5F2 JUMP JUMPDEST PUSH1 0x1 PUSH1 0x1 PUSH1 0xA0 SHL SUB DUP3 AND DUP2 MSTORE PUSH1 0x40 MLOAD SWAP1 PUSH2 0x282 PUSH1 0x4 PUSH1 0x24 CALLDATALOAD ADD CALLDATALOAD PUSH1 0x1F ADD PUSH1 0x1F NOT AND PUSH1 0x20 ADD DUP4 PUSH2 0x60E JUMP JUMPDEST PUSH1 0x24 DUP1 CALLDATALOAD PUSH1 0x4 DUP2 ADD CALLDATALOAD DUP1 DUP6 MSTORE SWAP2 ADD PUSH1 0x20 DUP5 ADD CALLDATACOPY PUSH1 0x0 PUSH1 0x20 PUSH1 0x24 CALLDATALOAD PUSH1 0x4 ADD CALLDATALOAD DUP5 ADD ADD MSTORE PUSH1 0x20 DUP2 ADD SWAP2 DUP3 MSTORE TIMESTAMP PUSH1 0x40 DUP3 ADD MSTORE PUSH1 0x1 DUP1 PUSH1 0xA0 SHL SUB DUP4 AND PUSH1 0x0 MSTORE PUSH1 0x1 PUSH1 0x20 MSTORE PUSH1 0x40 PUSH1 0x0 KECCAK256 SWAP2 PUSH1 0x1 DUP1 PUSH1 0xA0 SHL SUB DUP3 MLOAD AND PUSH12 0xFFFFFFFFFFFFFFFFFFFFFFFF PUSH1 0xA0 SHL DUP5 SLOAD AND OR DUP4 SSTORE MLOAD DUP1 MLOAD SWAP1 PUSH8 0xFFFFFFFFFFFFFFFF DUP3 GT PUSH2 0x40A JUMPI PUSH2 0x308 PUSH1 0x1 DUP6 ADD SLOAD PUSH2 0x5B8 JUMP JUMPDEST PUSH1 0x1F DUP2 GT PUSH2 0x49E JUMPI JUMPDEST POP PUSH1 0x20 SWAP1 PUSH1 0x1F DUP4 GT PUSH1 0x1 EQ PUSH2 0x42B JUMPI SWAP2 DUP1 PUSH1 0x2 SWAP5 SWAP3 PUSH1 0x40 SWAP5 PUSH1 0x0 SWAP3 PUSH2 0x420 JUMPI JUMPDEST POP POP DUP2 PUSH1 0x1 SHL SWAP2 PUSH1 0x0 NOT SWAP1 PUSH1 0x3 SHL SHR NOT AND OR PUSH1 0x1 DUP6 ADD SSTORE JUMPDEST ADD MLOAD SWAP2 ADD SSTORE PUSH1 0x2 SLOAD PUSH9 0x10000000000000000 DUP2 LT ISZERO PUSH2 0x40A JUMPI DUP1 PUSH1 0x1 PUSH2 0x372 SWAP3 ADD PUSH1 0x2 SSTORE PUSH2 0x52B JUMP JUMPDEST DUP2 SLOAD PUSH1 0x1 PUSH1 0x1 PUSH1 0xA0 SHL SUB DUP5 DUP2 AND PUSH1 0x3 SWAP4 SWAP1 SWAP4 SHL SWAP3 DUP4 SHL SWAP3 SHL NOT AND OR SWAP1 SSTORE PUSH1 0x40 DUP1 MLOAD DUP2 DUP2 MSTORE PUSH1 0x24 DUP1 CALLDATALOAD PUSH1 0x4 DUP2 ADD CALLDATALOAD SWAP4 DUP4 ADD DUP5 SWAP1 MSTORE SWAP2 SWAP4 PUSH32 0xA6B710DA019E991A8E137518AD383192C9107A3B01A8FB05A96E1E23BC620816 SWAP4 SWAP1 SWAP3 SWAP1 SWAP2 ADD PUSH1 0x60 DUP6 ADD CALLDATACOPY PUSH1 0x0 PUSH1 0x60 PUSH1 0x24 CALLDATALOAD PUSH1 0x4 ADD CALLDATALOAD DUP6 ADD ADD MSTORE TIMESTAMP PUSH1 0x20 DUP5 ADD MSTORE PUSH1 0x1 DUP1 PUSH1 0xA0 SHL SUB AND SWAP2 PUSH1 0x60 DUP2 PUSH1 0x1F NOT PUSH1 0x1F PUSH1 0x24 CALLDATALOAD PUSH1 0x4 ADD CALLDATALOAD ADD AND DUP2 ADD SUB ADD SWAP1 LOG2 STOP JUMPDEST PUSH4 0x4E487B71 PUSH1 0xE0 SHL PUSH1 0x0 MSTORE PUSH1 0x41 PUSH1 0x4 MSTORE PUSH1 0x24 PUSH1 0x0 REVERT JUMPDEST ADD MLOAD SWAP1 POP DUP8 DUP1 PUSH2 0x331 JUMP JUMPDEST SWAP1 PUSH1 0x1F NOT DUP4 AND SWAP2 PUSH1 0x1 DUP7 ADD PUSH1 0x0 MSTORE PUSH1 0x20 PUSH1 0x0 KECCAK256 SWAP3 PUSH1 0x0 JUMPDEST DUP2 DUP2 LT PUSH2 0x486 JUMPI POP SWAP3 PUSH1 0x1 SWAP3 DUP6 SWAP3 PUSH1 0x40 SWAP7 PUSH1 0x2 SWAP9 SWAP7 LT PUSH2 0x46D JUMPI JUMPDEST POP POP POP DUP2 SHL ADD PUSH1 0x1 DUP6 ADD SSTORE PUSH2 0x349 JUMP JUMPDEST ADD MLOAD PUSH1 0x0 NOT PUSH1 0xF8 DUP5 PUSH1 0x3 SHL AND SHR NOT AND SWAP1 SSTORE DUP8 DUP1 DUP1 PUSH2 0x45D JUMP JUMPDEST SWAP3 SWAP4 PUSH1 0x20 PUSH1 0x1 DUP2 SWAP3 DUP8 DUP7 ADD MLOAD DUP2 SSTORE ADD SWAP6 ADD SWAP4 ADD PUSH2 0x442 JUMP JUMPDEST PUSH1 0x1 DUP6 ADD PUSH1 0x0 MSTORE PUSH1 0x20 PUSH1 0x0 KECCAK256 PUSH1 0x1F DUP5 ADD PUSH1 0x5 SHR DUP2 ADD PUSH1 0x20 DUP6 LT PUSH2 0x4DE JUMPI JUMPDEST PUSH1 0x1F DUP4 ADD PUSH1 0x5 SHR DUP3 ADD DUP2 LT PUSH2 0x4D2 JUMPI POP POP PUSH2 0x311 JUMP JUMPDEST PUSH1 0x0 DUP2 SSTORE PUSH1 0x1 ADD PUSH2 0x4BC JUMP JUMPDEST POP DUP1 PUSH2 0x4BC JUMP JUMPDEST PUSH3 0x461BCD PUSH1 0xE5 SHL DUP2 MSTORE PUSH1 0x20 PUSH1 0x4 DUP3 ADD MSTORE PUSH1 0xB PUSH1 0x24 DUP3 ADD MSTORE PUSH11 0x139BDD081CDD195DD85C99 PUSH1 0xAA SHL PUSH1 0x44 DUP3 ADD MSTORE PUSH1 0x64 SWAP1 REVERT JUMPDEST PUSH1 0x4 CALLDATALOAD SWAP1 PUSH1 0x1 PUSH1 0x1 PUSH1 0xA0 SHL SUB DUP3 AND DUP3 SUB PUSH2 0xCC JUMPI JUMP JUMPDEST PUSH1 0x2 SLOAD DUP2 LT ISZERO PUSH2 0x562 JUMPI PUSH1 0x2 PUSH1 0x0 MSTORE PUSH32 0x405787FA12A823E0F2B7631CC41B3BA8828B3321CA811111FA75CD3AA3BB5ACE ADD SWAP1 PUSH1 0x0 SWAP1 JUMP JUMPDEST PUSH4 0x4E487B71 PUSH1 0xE0 SHL PUSH1 0x0 MSTORE PUSH1 0x32 PUSH1 0x4 MSTORE PUSH1 0x24 PUSH1 0x0 REVERT JUMPDEST SWAP2 SWAP1 DUP3 MLOAD SWAP3 DUP4 DUP3 MSTORE PUSH1 0x0 JUMPDEST DUP5 DUP2 LT PUSH2 0x5A4 JUMPI POP POP DUP3 PUSH1 0x0 PUSH1 0x20 DUP1 SWAP5 SWAP6 DUP5 ADD ADD MSTORE PUSH1 0x1F DUP1 NOT SWAP2 ADD AND ADD ADD SWAP1 JUMP JUMPDEST PUSH1 0x20 DUP2 DUP4 ADD DUP2 ADD MLOAD DUP5 DUP4 ADD DUP3 ADD MSTORE ADD PUSH2 0x583 JUMP JUMPDEST SWAP1 PUSH1 0x1 DUP3 DUP2 SHR SWAP3 AND DUP1 ISZERO PUSH2 0x5E8 JUMPI JUMPDEST PUSH1 0x20 DUP4 LT EQ PUSH2 0x5D2 JUMPI JUMP JUMPDEST PUSH4 0x4E487B71 PUSH1 0xE0 SHL PUSH1 0x0 MSTORE PUSH1 0x22 PUSH1 0x4 MSTORE PUSH1 0x24 PUSH1 0x0 REVERT JUMPDEST SWAP2 PUSH1 0x7F AND SWAP2 PUSH2 0x5C7 JUMP JUMPDEST PUSH1 0x60 DUP2 ADD SWAP1 DUP2 LT PUSH8 0xFFFFFFFFFFFFFFFF DUP3 GT OR PUSH2 0x40A JUMPI PUSH1 0x40 MSTORE JUMP JUMPDEST SWAP1 PUSH1 0x1F DUP1 NOT SWAP2 ADD AND DUP2 ADD SWAP1 DUP2 LT PUSH8 0xFFFFFFFFFFFFFFFF DUP3 GT OR PUSH2 0x40A JUMPI PUSH1 0x40 MSTORE JUMP JUMPDEST SWAP1 PUSH1 0x40 MLOAD SWAP2 DUP3 PUSH1 0x0 DUP3 SLOAD SWAP3 PUSH2 0x644 DUP5 PUSH2 0x5B8 JUMP JUMPDEST SWAP1 DUP2 DUP5 MSTORE PUSH1 0x1 SWAP5 DUP6 DUP2 AND SWAP1 DUP2 PUSH1 0x0 EQ PUSH2 0x6B3 JUMPI POP PUSH1 0x1 EQ PUSH2 0x670 JUMPI JUMPDEST POP POP PUSH2 0x66E SWAP3 POP SUB DUP4 PUSH2 0x60E JUMP JUMPDEST JUMP JUMPDEST SWAP1 SWAP4 SWAP2 POP PUSH1 0x0 MSTORE PUSH1 0x20 SWAP1 DUP2 PUSH1 0x0 KECCAK256 SWAP4 PUSH1 0x0 SWAP2 JUMPDEST DUP2 DUP4 LT PUSH2 0x69B JUMPI POP POP PUSH2 0x66E SWAP4 POP DUP3 ADD ADD CODESIZE DUP1 PUSH2 0x660 JUMP JUMPDEST DUP6 SLOAD DUP9 DUP5 ADD DUP6 ADD MSTORE SWAP5 DUP6 ADD SWAP5 DUP8 SWAP5 POP SWAP2 DUP4 ADD SWAP2 PUSH2 0x683 JUMP JUMPDEST SWAP2 POP POP PUSH2 0x66E SWAP5 POP PUSH1 0x20 SWAP3 POP PUSH1 0xFF NOT AND DUP3 DUP5 ADD MSTORE ISZERO ISZERO PUSH1 0x5 SHL DUP3 ADD ADD CODESIZE DUP1 PUSH2 0x660 JUMP INVALID LOG2 PUSH5 0x6970667358 0x22 SLT KECCAK256 SWAP5 0xDC EXTCODEHASH LOG4 0xE2 MLOAD 0xD2 0x25 0xF8 RETURNDATACOPY CALLER ADDMOD SLT PUSH19 0x57854BCE4D6F9B6B885FD5A2AE1A70703E9A64 PUSH20 0x6F6C634300081400330000000000000000000000 "},"methodIdentifiers":{"echoSanctum(address,string)":"270da011","echoes(address)":"ad140023","getEcho(address)":"6552bc7e","sanctums(uint256)":"59070fc4","steward()":"637eea19","totalSanctums()":"2d70c89d"}}}}}