{"contracts/skycity/SkyCityDrift.sol":{"SkyCityDrift":{"abi":[{"inputs":[],"stateMutability":"nonpayable","type":"constructor"},{"anonymous":false,"inputs":[{"indexed":false,"internalType":"string","name":"city","type":"string"},{"indexed":false,"internalType":"string","name":"constellation","type":"string"},{"indexed":false,"internalType":"string","name":"pulseSignature","type":"string"}],"name":"DriftBound","type":"event"},{"inputs":[{"internalType":"string","name":"city","type":"string"},{"internalType":"string","name":"constellation","type":"string"},{"internalType":"string","name":"pulseSignature","type":"string"}],"name":"bindDrift","outputs":[],"stateMutability":"nonpayable","type":"function"},{"inputs":[{"internalType":"uint256","name":"","type":"uint256"}],"name":"cityKeys","outputs":[{"internalType":"string","name":"","type":"string"}],"stateMutability":"view","type":"function"},{"inputs":[{"internalType":"string","name":"","type":"string"}],"name":"drifts","outputs":[{"internalType":"string","name":"city","type":"string"},{"internalType":"string","name":"constellation","type":"string"},{"internalType":"string","name":"pulseSignature","type":"string"}],"stateMutability":"view","type":"function"},{"inputs":[{"internalType":"string","name":"city","type":"string"}],"name":"getDrift","outputs":[{"internalType":"string","name":"","type":"string"},{"internalType":"string","name":"","type":"string"},{"internalType":"string","name":"","type":"string"}],"stateMutability":"view","type":"function"},{"inputs":[],"name":"steward","outputs":[{"internalType":"address","name":"","type":"address"}],"stateMutability":"view","type":"function"},{"inputs":[],"name":"totalDrifts","outputs":[{"internalType":"uint256","name":"","type":"uint256"}],"stateMutability":"view","type":"function"}],"evm":{"bytecode":{"linkReferences":{},"object":"6080806040523461002857600080546001600160a01b03191633179055610a38908161002e8239f35b600080fdfe608080604052600436101561001357600080fd5b60003560e01c908163637eea191461070b5750806370055b881461021457806379e73e10146101f65780637f52ec2114610163578063873767a4146101025763d5194b541461006157600080fd5b346100fd5760203660031901126100fd576004356001600160401b0381116100fd57610093602091369060040161072f565b919082604051938492833781016001815203019020604051906100b58261075c565b6100be8161083b565b82526100f96100e260026100d46001850161083b565b93602086019485520161083b565b928360408201525191519260405193849384610906565b0390f35b600080fd5b346100fd5760203660031901126100fd576004356002548110156100fd5761012990610940565b61014d576101396100f99161083b565b6040519182916020835260208301906108e1565b634e487b7160e01b600052600060045260246000fd5b346100fd5760203660031901126100fd576004356001600160401b0381116100fd57366023820112156100fd5760206101a96101bc923690602481600401359101610798565b81604051938285809451938492016107de565b810160018152030190206101cf8161083b565b6100f96101ea60026101e36001860161083b565b940161083b565b60405193849384610906565b346100fd5760003660031901126100fd576020600254604051908152f35b346100fd5760603660031901126100fd576004356001600160401b0381116100fd5761024490369060040161072f565b906024356001600160401b0381116100fd5761026490369060040161072f565b92906044356001600160401b0381116100fd5761028590369060040161072f565b60005491959092916001600160a01b031633036106d8576040516102a88161075c565b6102b3368688610798565b81526102c0368385610798565b60208201526102d0368589610798565b604082015260405185878237602081878101600181520301902081518051906001600160401b0382116105675781906103138261030d8654610801565b8661098d565b602090601f831160011461067257600092610667575b50508160011b916000199060031b1c19161781555b602082015180516001600160401b03811161056757600183019161036c826103668554610801565b8561098d565b602090601f83116001146105f957918060029492604096946000926105ee575b50508160011b916000199060031b1c19161790555b019101518051906001600160401b0382116105675781906103c68261030d8654610801565b602090601f83116001146105885760009261057d575b50508160011b916000199060031b1c19161790555b60025468010000000000000000811015610567578060016104159201600255610940565b61014d576001600160401b0385116105675761043b856104358354610801565b8361098d565b6000601f86116001146104d557926104c594926104b792877f97f765cf6927f903443b7cf17166d7945ae52a4a03f5fafd01536dab7f32bec89a966000916104ca575b508860011b906000198a60031b1c19161790555b6104a960405198899860608a5260608a01916109e1565b9187830360208901526109e1565b9184830360408601526109e1565b0390a1005b90508901358b61047e565b601f198616908260005260206000209160005b81811061054f5750927f97f765cf6927f903443b7cf17166d7945ae52a4a03f5fafd01536dab7f32bec89995926104c5979592896104b79610610535575b5050600188811b019055610492565b8a013560001960038b901b60f8161c191690558a80610526565b9192602060018192868d0135815501940192016104e8565b634e487b7160e01b600052604160045260246000fd5b0151905089806103dc565b6000858152602081209350601f198516905b8181106105d657509084600195949392106105bd575b505050811b0190556103f1565b015160001960f88460031b161c191690558980806105b0565b9293602060018192878601518155019501930161059a565b015190508d8061038c565b90601f198316918460005260206000209260005b81811061064f5750926001928592604098966002989610610636575b505050811b0190556103a1565b015160001960f88460031b161c191690558d8080610629565b9293602060018192878601518155019501930161060d565b015190508a80610329565b6000858152602081209350601f198516905b8181106106c057509084600195949392106106a7575b505050811b01815561033e565b015160001960f88460031b161c191690558a808061069a565b92936020600181928786015181550195019301610684565b60405162461bcd60e51b815260206004820152600b60248201526a139bdd081cdd195dd85c9960aa1b6044820152606490fd5b346100fd5760003660031901126100fd576000546001600160a01b03168152602090f35b9181601f840112156100fd578235916001600160401b0383116100fd57602083818601950101116100fd57565b606081019081106001600160401b0382111761056757604052565b90601f801991011681019081106001600160401b0382111761056757604052565b9291926001600160401b03821161056757604051916107c1601f8201601f191660200184610777565b8294818452818301116100fd578281602093846000960137010152565b60005b8381106107f15750506000910152565b81810151838201526020016107e1565b90600182811c92168015610831575b602083101461081b57565b634e487b7160e01b600052602260045260246000fd5b91607f1691610810565b906040519182600082549261084f84610801565b9081845260019485811690816000146108be575060011461087b575b505061087992500383610777565b565b9093915060005260209081600020936000915b8183106108a65750506108799350820101388061086b565b8554888401850152948501948794509183019161088e565b91505061087994506020925060ff191682840152151560051b820101388061086b565b906020916108fa815180928185528580860191016107de565b601f01601f1916010190565b9161092f9061092161093d95936060865260608601906108e1565b9084820360208601526108e1565b9160408184039101526108e1565b90565b6002548110156109775760026000527f405787fa12a823e0f2b7631cc41b3ba8828b3321ca811111fa75cd3aa3bb5ace0190600090565b634e487b7160e01b600052603260045260246000fd5b90601f811161099b57505050565b600091825260208220906020601f850160051c830194106109d7575b601f0160051c01915b8281106109cc57505050565b8181556001016109c0565b90925082906109b7565b908060209392818452848401376000828201840152601f01601f191601019056fea26469706673582212203a39a668e19cb49e3a55bf0b7bc810ebec4c78fd615e26e4108d26c7d547e59064736f6c63430008140033","opcodes":"PUSH1 0x80 DUP1 PUSH1 0x40 MSTORE CALLVALUE PUSH2 0x28 JUMPI PUSH1 0x0 DUP1 SLOAD PUSH1 0x1 PUSH1 0x1 PUSH1 0xA0 SHL SUB NOT AND CALLER OR SWAP1 SSTORE PUSH2 0xA38 SWAP1 DUP2 PUSH2 0x2E DUP3 CODECOPY RETURN JUMPDEST PUSH1 0x0 DUP1 REVERT INVALID PUSH1 0x80 DUP1 PUSH1 0x40 MSTORE PUSH1 0x4 CALLDATASIZE LT ISZERO PUSH2 0x13 JUMPI PUSH1 0x0 DUP1 REVERT JUMPDEST PUSH1 0x0 CALLDATALOAD PUSH1 0xE0 SHR SWAP1 DUP2 PUSH4 0x637EEA19 EQ PUSH2 0x70B JUMPI POP DUP1 PUSH4 0x70055B88 EQ PUSH2 0x214 JUMPI DUP1 PUSH4 0x79E73E10 EQ PUSH2 0x1F6 JUMPI DUP1 PUSH4 0x7F52EC21 EQ PUSH2 0x163 JUMPI DUP1 PUSH4 0x873767A4 EQ PUSH2 0x102 JUMPI PUSH4 0xD5194B54 EQ PUSH2 0x61 JUMPI PUSH1 0x0 DUP1 REVERT JUMPDEST CALLVALUE PUSH2 0xFD JUMPI PUSH1 0x20 CALLDATASIZE PUSH1 0x3 NOT ADD SLT PUSH2 0xFD JUMPI PUSH1 0x4 CALLDATALOAD PUSH1 0x1 PUSH1 0x1 PUSH1 0x40 SHL SUB DUP2 GT PUSH2 0xFD JUMPI PUSH2 0x93 PUSH1 0x20 SWAP2 CALLDATASIZE SWAP1 PUSH1 0x4 ADD PUSH2 0x72F JUMP JUMPDEST SWAP2 SWAP1 DUP3 PUSH1 0x40 MLOAD SWAP4 DUP5 SWAP3 DUP4 CALLDATACOPY DUP2 ADD PUSH1 0x1 DUP2 MSTORE SUB ADD SWAP1 KECCAK256 PUSH1 0x40 MLOAD SWAP1 PUSH2 0xB5 DUP3 PUSH2 0x75C JUMP JUMPDEST PUSH2 0xBE DUP2 PUSH2 0x83B JUMP JUMPDEST DUP3 MSTORE PUSH2 0xF9 PUSH2 0xE2 PUSH1 0x2 PUSH2 0xD4 PUSH1 0x1 DUP6 ADD PUSH2 0x83B JUMP JUMPDEST SWAP4 PUSH1 0x20 DUP7 ADD SWAP5 DUP6 MSTORE ADD PUSH2 0x83B JUMP JUMPDEST SWAP3 DUP4 PUSH1 0x40 DUP3 ADD MSTORE MLOAD SWAP2 MLOAD SWAP3 PUSH1 0x40 MLOAD SWAP4 DUP5 SWAP4 DUP5 PUSH2 0x906 JUMP JUMPDEST SUB SWAP1 RETURN JUMPDEST PUSH1 0x0 DUP1 REVERT JUMPDEST CALLVALUE PUSH2 0xFD JUMPI PUSH1 0x20 CALLDATASIZE PUSH1 0x3 NOT ADD SLT PUSH2 0xFD JUMPI PUSH1 0x4 CALLDATALOAD PUSH1 0x2 SLOAD DUP2 LT ISZERO PUSH2 0xFD JUMPI PUSH2 0x129 SWAP1 PUSH2 0x940 JUMP JUMPDEST PUSH2 0x14D JUMPI PUSH2 0x139 PUSH2 0xF9 SWAP2 PUSH2 0x83B JUMP JUMPDEST PUSH1 0x40 MLOAD SWAP2 DUP3 SWAP2 PUSH1 0x20 DUP4 MSTORE PUSH1 0x20 DUP4 ADD SWAP1 PUSH2 0x8E1 JUMP JUMPDEST PUSH4 0x4E487B71 PUSH1 0xE0 SHL PUSH1 0x0 MSTORE PUSH1 0x0 PUSH1 0x4 MSTORE PUSH1 0x24 PUSH1 0x0 REVERT JUMPDEST CALLVALUE PUSH2 0xFD JUMPI PUSH1 0x20 CALLDATASIZE PUSH1 0x3 NOT ADD SLT PUSH2 0xFD JUMPI PUSH1 0x4 CALLDATALOAD PUSH1 0x1 PUSH1 0x1 PUSH1 0x40 SHL SUB DUP2 GT PUSH2 0xFD JUMPI CALLDATASIZE PUSH1 0x23 DUP3 ADD SLT ISZERO PUSH2 0xFD JUMPI PUSH1 0x20 PUSH2 0x1A9 PUSH2 0x1BC SWAP3 CALLDATASIZE SWAP1 PUSH1 0x24 DUP2 PUSH1 0x4 ADD CALLDATALOAD SWAP2 ADD PUSH2 0x798 JUMP JUMPDEST DUP2 PUSH1 0x40 MLOAD SWAP4 DUP3 DUP6 DUP1 SWAP5 MLOAD SWAP4 DUP5 SWAP3 ADD PUSH2 0x7DE JUMP JUMPDEST DUP2 ADD PUSH1 0x1 DUP2 MSTORE SUB ADD SWAP1 KECCAK256 PUSH2 0x1CF DUP2 PUSH2 0x83B JUMP JUMPDEST PUSH2 0xF9 PUSH2 0x1EA PUSH1 0x2 PUSH2 0x1E3 PUSH1 0x1 DUP7 ADD PUSH2 0x83B JUMP JUMPDEST SWAP5 ADD PUSH2 0x83B JUMP JUMPDEST PUSH1 0x40 MLOAD SWAP4 DUP5 SWAP4 DUP5 PUSH2 0x906 JUMP JUMPDEST CALLVALUE PUSH2 0xFD JUMPI PUSH1 0x0 CALLDATASIZE PUSH1 0x3 NOT ADD SLT PUSH2 0xFD JUMPI PUSH1 0x20 PUSH1 0x2 SLOAD PUSH1 0x40 MLOAD SWAP1 DUP2 MSTORE RETURN JUMPDEST CALLVALUE PUSH2 0xFD JUMPI PUSH1 0x60 CALLDATASIZE PUSH1 0x3 NOT ADD SLT PUSH2 0xFD JUMPI PUSH1 0x4 CALLDATALOAD PUSH1 0x1 PUSH1 0x1 PUSH1 0x40 SHL SUB DUP2 GT PUSH2 0xFD JUMPI PUSH2 0x244 SWAP1 CALLDATASIZE SWAP1 PUSH1 0x4 ADD PUSH2 0x72F JUMP JUMPDEST SWAP1 PUSH1 0x24 CALLDATALOAD PUSH1 0x1 PUSH1 0x1 PUSH1 0x40 SHL SUB DUP2 GT PUSH2 0xFD JUMPI PUSH2 0x264 SWAP1 CALLDATASIZE SWAP1 PUSH1 0x4 ADD PUSH2 0x72F JUMP JUMPDEST SWAP3 SWAP1 PUSH1 0x44 CALLDATALOAD PUSH1 0x1 PUSH1 0x1 PUSH1 0x40 SHL SUB DUP2 GT PUSH2 0xFD JUMPI PUSH2 0x285 SWAP1 CALLDATASIZE SWAP1 PUSH1 0x4 ADD PUSH2 0x72F JUMP JUMPDEST PUSH1 0x0 SLOAD SWAP2 SWAP6 SWAP1 SWAP3 SWAP2 PUSH1 0x1 PUSH1 0x1 PUSH1 0xA0 SHL SUB AND CALLER SUB PUSH2 0x6D8 JUMPI PUSH1 0x40 MLOAD PUSH2 0x2A8 DUP2 PUSH2 0x75C JUMP JUMPDEST PUSH2 0x2B3 CALLDATASIZE DUP7 DUP9 PUSH2 0x798 JUMP JUMPDEST DUP2 MSTORE PUSH2 0x2C0 CALLDATASIZE DUP4 DUP6 PUSH2 0x798 JUMP JUMPDEST PUSH1 0x20 DUP3 ADD MSTORE PUSH2 0x2D0 CALLDATASIZE DUP6 DUP10 PUSH2 0x798 JUMP JUMPDEST PUSH1 0x40 DUP3 ADD MSTORE PUSH1 0x40 MLOAD DUP6 DUP8 DUP3 CALLDATACOPY PUSH1 0x20 DUP2 DUP8 DUP2 ADD PUSH1 0x1 DUP2 MSTORE SUB ADD SWAP1 KECCAK256 DUP2 MLOAD DUP1 MLOAD SWAP1 PUSH1 0x1 PUSH1 0x1 PUSH1 0x40 SHL SUB DUP3 GT PUSH2 0x567 JUMPI DUP2 SWAP1 PUSH2 0x313 DUP3 PUSH2 0x30D DUP7 SLOAD PUSH2 0x801 JUMP JUMPDEST DUP7 PUSH2 0x98D JUMP JUMPDEST PUSH1 0x20 SWAP1 PUSH1 0x1F DUP4 GT PUSH1 0x1 EQ PUSH2 0x672 JUMPI PUSH1 0x0 SWAP3 PUSH2 0x667 JUMPI JUMPDEST POP POP DUP2 PUSH1 0x1 SHL SWAP2 PUSH1 0x0 NOT SWAP1 PUSH1 0x3 SHL SHR NOT AND OR DUP2 SSTORE JUMPDEST PUSH1 0x20 DUP3 ADD MLOAD DUP1 MLOAD PUSH1 0x1 PUSH1 0x1 PUSH1 0x40 SHL SUB DUP2 GT PUSH2 0x567 JUMPI PUSH1 0x1 DUP4 ADD SWAP2 PUSH2 0x36C DUP3 PUSH2 0x366 DUP6 SLOAD PUSH2 0x801 JUMP JUMPDEST DUP6 PUSH2 0x98D JUMP JUMPDEST PUSH1 0x20 SWAP1 PUSH1 0x1F DUP4 GT PUSH1 0x1 EQ PUSH2 0x5F9 JUMPI SWAP2 DUP1 PUSH1 0x2 SWAP5 SWAP3 PUSH1 0x40 SWAP7 SWAP5 PUSH1 0x0 SWAP3 PUSH2 0x5EE JUMPI JUMPDEST POP POP DUP2 PUSH1 0x1 SHL SWAP2 PUSH1 0x0 NOT SWAP1 PUSH1 0x3 SHL SHR NOT AND OR SWAP1 SSTORE JUMPDEST ADD SWAP2 ADD MLOAD DUP1 MLOAD SWAP1 PUSH1 0x1 PUSH1 0x1 PUSH1 0x40 SHL SUB DUP3 GT PUSH2 0x567 JUMPI DUP2 SWAP1 PUSH2 0x3C6 DUP3 PUSH2 0x30D DUP7 SLOAD PUSH2 0x801 JUMP JUMPDEST PUSH1 0x20 SWAP1 PUSH1 0x1F DUP4 GT PUSH1 0x1 EQ PUSH2 0x588 JUMPI PUSH1 0x0 SWAP3 PUSH2 0x57D JUMPI JUMPDEST POP POP DUP2 PUSH1 0x1 SHL SWAP2 PUSH1 0x0 NOT SWAP1 PUSH1 0x3 SHL SHR NOT AND OR SWAP1 SSTORE JUMPDEST PUSH1 0x2 SLOAD PUSH9 0x10000000000000000 DUP2 LT ISZERO PUSH2 0x567 JUMPI DUP1 PUSH1 0x1 PUSH2 0x415 SWAP3 ADD PUSH1 0x2 SSTORE PUSH2 0x940 JUMP JUMPDEST PUSH2 0x14D JUMPI PUSH1 0x1 PUSH1 0x1 PUSH1 0x40 SHL SUB DUP6 GT PUSH2 0x567 JUMPI PUSH2 0x43B DUP6 PUSH2 0x435 DUP4 SLOAD PUSH2 0x801 JUMP JUMPDEST DUP4 PUSH2 0x98D JUMP JUMPDEST PUSH1 0x0 PUSH1 0x1F DUP7 GT PUSH1 0x1 EQ PUSH2 0x4D5 JUMPI SWAP3 PUSH2 0x4C5 SWAP5 SWAP3 PUSH2 0x4B7 SWAP3 DUP8 PUSH32 0x97F765CF6927F903443B7CF17166D7945AE52A4A03F5FAFD01536DAB7F32BEC8 SWAP11 SWAP7 PUSH1 0x0 SWAP2 PUSH2 0x4CA JUMPI JUMPDEST POP DUP9 PUSH1 0x1 SHL SWAP1 PUSH1 0x0 NOT DUP11 PUSH1 0x3 SHL SHR NOT AND OR SWAP1 SSTORE JUMPDEST PUSH2 0x4A9 PUSH1 0x40 MLOAD SWAP9 DUP10 SWAP9 PUSH1 0x60 DUP11 MSTORE PUSH1 0x60 DUP11 ADD SWAP2 PUSH2 0x9E1 JUMP JUMPDEST SWAP2 DUP8 DUP4 SUB PUSH1 0x20 DUP10 ADD MSTORE PUSH2 0x9E1 JUMP JUMPDEST SWAP2 DUP5 DUP4 SUB PUSH1 0x40 DUP7 ADD MSTORE PUSH2 0x9E1 JUMP JUMPDEST SUB SWAP1 LOG1 STOP JUMPDEST SWAP1 POP DUP10 ADD CALLDATALOAD DUP12 PUSH2 0x47E JUMP JUMPDEST PUSH1 0x1F NOT DUP7 AND SWAP1 DUP3 PUSH1 0x0 MSTORE PUSH1 0x20 PUSH1 0x0 KECCAK256 SWAP2 PUSH1 0x0 JUMPDEST DUP2 DUP2 LT PUSH2 0x54F JUMPI POP SWAP3 PUSH32 0x97F765CF6927F903443B7CF17166D7945AE52A4A03F5FAFD01536DAB7F32BEC8 SWAP10 SWAP6 SWAP3 PUSH2 0x4C5 SWAP8 SWAP6 SWAP3 DUP10 PUSH2 0x4B7 SWAP7 LT PUSH2 0x535 JUMPI JUMPDEST POP POP PUSH1 0x1 DUP9 DUP2 SHL ADD SWAP1 SSTORE PUSH2 0x492 JUMP JUMPDEST DUP11 ADD CALLDATALOAD PUSH1 0x0 NOT PUSH1 0x3 DUP12 SWAP1 SHL PUSH1 0xF8 AND SHR NOT AND SWAP1 SSTORE DUP11 DUP1 PUSH2 0x526 JUMP JUMPDEST SWAP2 SWAP3 PUSH1 0x20 PUSH1 0x1 DUP2 SWAP3 DUP7 DUP14 ADD CALLDATALOAD DUP2 SSTORE ADD SWAP5 ADD SWAP3 ADD PUSH2 0x4E8 JUMP JUMPDEST PUSH4 0x4E487B71 PUSH1 0xE0 SHL PUSH1 0x0 MSTORE PUSH1 0x41 PUSH1 0x4 MSTORE PUSH1 0x24 PUSH1 0x0 REVERT JUMPDEST ADD MLOAD SWAP1 POP DUP10 DUP1 PUSH2 0x3DC JUMP JUMPDEST PUSH1 0x0 DUP6 DUP2 MSTORE PUSH1 0x20 DUP2 KECCAK256 SWAP4 POP PUSH1 0x1F NOT DUP6 AND SWAP1 JUMPDEST DUP2 DUP2 LT PUSH2 0x5D6 JUMPI POP SWAP1 DUP5 PUSH1 0x1 SWAP6 SWAP5 SWAP4 SWAP3 LT PUSH2 0x5BD JUMPI JUMPDEST POP POP POP DUP2 SHL ADD SWAP1 SSTORE PUSH2 0x3F1 JUMP JUMPDEST ADD MLOAD PUSH1 0x0 NOT PUSH1 0xF8 DUP5 PUSH1 0x3 SHL AND SHR NOT AND SWAP1 SSTORE DUP10 DUP1 DUP1 PUSH2 0x5B0 JUMP JUMPDEST SWAP3 SWAP4 PUSH1 0x20 PUSH1 0x1 DUP2 SWAP3 DUP8 DUP7 ADD MLOAD DUP2 SSTORE ADD SWAP6 ADD SWAP4 ADD PUSH2 0x59A JUMP JUMPDEST ADD MLOAD SWAP1 POP DUP14 DUP1 PUSH2 0x38C JUMP JUMPDEST SWAP1 PUSH1 0x1F NOT DUP4 AND SWAP2 DUP5 PUSH1 0x0 MSTORE PUSH1 0x20 PUSH1 0x0 KECCAK256 SWAP3 PUSH1 0x0 JUMPDEST DUP2 DUP2 LT PUSH2 0x64F JUMPI POP SWAP3 PUSH1 0x1 SWAP3 DUP6 SWAP3 PUSH1 0x40 SWAP9 SWAP7 PUSH1 0x2 SWAP9 SWAP7 LT PUSH2 0x636 JUMPI JUMPDEST POP POP POP DUP2 SHL ADD SWAP1 SSTORE PUSH2 0x3A1 JUMP JUMPDEST ADD MLOAD PUSH1 0x0 NOT PUSH1 0xF8 DUP5 PUSH1 0x3 SHL AND SHR NOT AND SWAP1 SSTORE DUP14 DUP1 DUP1 PUSH2 0x629 JUMP JUMPDEST SWAP3 SWAP4 PUSH1 0x20 PUSH1 0x1 DUP2 SWAP3 DUP8 DUP7 ADD MLOAD DUP2 SSTORE ADD SWAP6 ADD SWAP4 ADD PUSH2 0x60D JUMP JUMPDEST ADD MLOAD SWAP1 POP DUP11 DUP1 PUSH2 0x329 JUMP JUMPDEST PUSH1 0x0 DUP6 DUP2 MSTORE PUSH1 0x20 DUP2 KECCAK256 SWAP4 POP PUSH1 0x1F NOT DUP6 AND SWAP1 JUMPDEST DUP2 DUP2 LT PUSH2 0x6C0 JUMPI POP SWAP1 DUP5 PUSH1 0x1 SWAP6 SWAP5 SWAP4 SWAP3 LT PUSH2 0x6A7 JUMPI JUMPDEST POP POP POP DUP2 SHL ADD DUP2 SSTORE PUSH2 0x33E JUMP JUMPDEST ADD MLOAD PUSH1 0x0 NOT PUSH1 0xF8 DUP5 PUSH1 0x3 SHL AND SHR NOT AND SWAP1 SSTORE DUP11 DUP1 DUP1 PUSH2 0x69A JUMP JUMPDEST SWAP3 SWAP4 PUSH1 0x20 PUSH1 0x1 DUP2 SWAP3 DUP8 DUP7 ADD MLOAD DUP2 SSTORE ADD SWAP6 ADD SWAP4 ADD PUSH2 0x684 JUMP JUMPDEST PUSH1 0x40 MLOAD PUSH3 0x461BCD PUSH1 0xE5 SHL DUP2 MSTORE PUSH1 0x20 PUSH1 0x4 DUP3 ADD MSTORE PUSH1 0xB PUSH1 0x24 DUP3 ADD MSTORE PUSH11 0x139BDD081CDD195DD85C99 PUSH1 0xAA SHL PUSH1 0x44 DUP3 ADD MSTORE PUSH1 0x64 SWAP1 REVERT JUMPDEST CALLVALUE PUSH2 0xFD JUMPI PUSH1 0x0 CALLDATASIZE PUSH1 0x3 NOT ADD SLT PUSH2 0xFD JUMPI PUSH1 0x0 SLOAD PUSH1 0x1 PUSH1 0x1 PUSH1 0xA0 SHL SUB AND DUP2 MSTORE PUSH1 0x20 SWAP1 RETURN JUMPDEST SWAP2 DUP2 PUSH1 0x1F DUP5 ADD SLT ISZERO PUSH2 0xFD JUMPI DUP3 CALLDATALOAD SWAP2 PUSH1 0x1 PUSH1 0x1 PUSH1 0x40 SHL SUB DUP4 GT PUSH2 0xFD JUMPI PUSH1 0x20 DUP4 DUP2 DUP7 ADD SWAP6 ADD ADD GT PUSH2 0xFD JUMPI JUMP JUMPDEST PUSH1 0x60 DUP2 ADD SWAP1 DUP2 LT PUSH1 0x1 PUSH1 0x1 PUSH1 0x40 SHL SUB DUP3 GT OR PUSH2 0x567 JUMPI PUSH1 0x40 MSTORE JUMP JUMPDEST SWAP1 PUSH1 0x1F DUP1 NOT SWAP2 ADD AND DUP2 ADD SWAP1 DUP2 LT PUSH1 0x1 PUSH1 0x1 PUSH1 0x40 SHL SUB DUP3 GT OR PUSH2 0x567 JUMPI PUSH1 0x40 MSTORE JUMP JUMPDEST SWAP3 SWAP2 SWAP3 PUSH1 0x1 PUSH1 0x1 PUSH1 0x40 SHL SUB DUP3 GT PUSH2 0x567 JUMPI PUSH1 0x40 MLOAD SWAP2 PUSH2 0x7C1 PUSH1 0x1F DUP3 ADD PUSH1 0x1F NOT AND PUSH1 0x20 ADD DUP5 PUSH2 0x777 JUMP JUMPDEST DUP3 SWAP5 DUP2 DUP5 MSTORE DUP2 DUP4 ADD GT PUSH2 0xFD JUMPI DUP3 DUP2 PUSH1 0x20 SWAP4 DUP5 PUSH1 0x0 SWAP7 ADD CALLDATACOPY ADD ADD MSTORE JUMP JUMPDEST PUSH1 0x0 JUMPDEST DUP4 DUP2 LT PUSH2 0x7F1 JUMPI POP POP PUSH1 0x0 SWAP2 ADD MSTORE JUMP JUMPDEST DUP2 DUP2 ADD MLOAD DUP4 DUP3 ADD MSTORE PUSH1 0x20 ADD PUSH2 0x7E1 JUMP JUMPDEST SWAP1 PUSH1 0x1 DUP3 DUP2 SHR SWAP3 AND DUP1 ISZERO PUSH2 0x831 JUMPI JUMPDEST PUSH1 0x20 DUP4 LT EQ PUSH2 0x81B JUMPI JUMP JUMPDEST PUSH4 0x4E487B71 PUSH1 0xE0 SHL PUSH1 0x0 MSTORE PUSH1 0x22 PUSH1 0x4 MSTORE PUSH1 0x24 PUSH1 0x0 REVERT JUMPDEST SWAP2 PUSH1 0x7F AND SWAP2 PUSH2 0x810 JUMP JUMPDEST SWAP1 PUSH1 0x40 MLOAD SWAP2 DUP3 PUSH1 0x0 DUP3 SLOAD SWAP3 PUSH2 0x84F DUP5 PUSH2 0x801 JUMP JUMPDEST SWAP1 DUP2 DUP5 MSTORE PUSH1 0x1 SWAP5 DUP6 DUP2 AND SWAP1 DUP2 PUSH1 0x0 EQ PUSH2 0x8BE JUMPI POP PUSH1 0x1 EQ PUSH2 0x87B JUMPI JUMPDEST POP POP PUSH2 0x879 SWAP3 POP SUB DUP4 PUSH2 0x777 JUMP JUMPDEST JUMP JUMPDEST SWAP1 SWAP4 SWAP2 POP PUSH1 0x0 MSTORE PUSH1 0x20 SWAP1 DUP2 PUSH1 0x0 KECCAK256 SWAP4 PUSH1 0x0 SWAP2 JUMPDEST DUP2 DUP4 LT PUSH2 0x8A6 JUMPI POP POP PUSH2 0x879 SWAP4 POP DUP3 ADD ADD CODESIZE DUP1 PUSH2 0x86B JUMP JUMPDEST DUP6 SLOAD DUP9 DUP5 ADD DUP6 ADD MSTORE SWAP5 DUP6 ADD SWAP5 DUP8 SWAP5 POP SWAP2 DUP4 ADD SWAP2 PUSH2 0x88E JUMP JUMPDEST SWAP2 POP POP PUSH2 0x879 SWAP5 POP PUSH1 0x20 SWAP3 POP PUSH1 0xFF NOT AND DUP3 DUP5 ADD MSTORE ISZERO ISZERO PUSH1 0x5 SHL DUP3 ADD ADD CODESIZE DUP1 PUSH2 0x86B JUMP JUMPDEST SWAP1 PUSH1 0x20 SWAP2 PUSH2 0x8FA DUP2 MLOAD DUP1 SWAP3 DUP2 DUP6 MSTORE DUP6 DUP1 DUP7 ADD SWAP2 ADD PUSH2 0x7DE JUMP JUMPDEST PUSH1 0x1F ADD PUSH1 0x1F NOT AND ADD ADD SWAP1 JUMP JUMPDEST SWAP2 PUSH2 0x92F SWAP1 PUSH2 0x921 PUSH2 0x93D SWAP6 SWAP4 PUSH1 0x60 DUP7 MSTORE PUSH1 0x60 DUP7 ADD SWAP1 PUSH2 0x8E1 JUMP JUMPDEST SWAP1 DUP5 DUP3 SUB PUSH1 0x20 DUP7 ADD MSTORE PUSH2 0x8E1 JUMP JUMPDEST SWAP2 PUSH1 0x40 DUP2 DUP5 SUB SWAP2 ADD MSTORE PUSH2 0x8E1 JUMP JUMPDEST SWAP1 JUMP JUMPDEST PUSH1 0x2 SLOAD DUP2 LT ISZERO PUSH2 0x977 JUMPI PUSH1 0x2 PUSH1 0x0 MSTORE PUSH32 0x405787FA12A823E0F2B7631CC41B3BA8828B3321CA811111FA75CD3AA3BB5ACE ADD SWAP1 PUSH1 0x0 SWAP1 JUMP JUMPDEST PUSH4 0x4E487B71 PUSH1 0xE0 SHL PUSH1 0x0 MSTORE PUSH1 0x32 PUSH1 0x4 MSTORE PUSH1 0x24 PUSH1 0x0 REVERT JUMPDEST SWAP1 PUSH1 0x1F DUP2 GT PUSH2 0x99B JUMPI POP POP POP JUMP JUMPDEST PUSH1 0x0 SWAP2 DUP3 MSTORE PUSH1 0x20 DUP3 KECCAK256 SWAP1 PUSH1 0x20 PUSH1 0x1F DUP6 ADD PUSH1 0x5 SHR DUP4 ADD SWAP5 LT PUSH2 0x9D7 JUMPI JUMPDEST PUSH1 0x1F ADD PUSH1 0x5 SHR ADD SWAP2 JUMPDEST DUP3 DUP2 LT PUSH2 0x9CC JUMPI POP POP POP JUMP JUMPDEST DUP2 DUP2 SSTORE PUSH1 0x1 ADD PUSH2 0x9C0 JUMP JUMPDEST SWAP1 SWAP3 POP DUP3 SWAP1 PUSH2 0x9B7 JUMP JUMPDEST SWAP1 DUP1 PUSH1 0x20 SWAP4 SWAP3 DUP2 DUP5 MSTORE DUP5 DUP5 ADD CALLDATACOPY PUSH1 0x0 DUP3 DUP3 ADD DUP5 ADD MSTORE PUSH1 0x1F ADD PUSH1 0x1F NOT AND ADD ADD SWAP1 JUMP INVALID LOG2 PUSH5 0x6970667358 0x22 SLT KECCAK256 GASPRICE CODECOPY 0xA6 PUSH9 0xE19CB49E3A55BF0B7B 0xC8 LT 0xEB 0xEC 0x4C PUSH25 0xFD615E26E4108D26C7D547E59064736F6C6343000814003300 "},"methodIdentifiers":{"bindDrift(string,string,string)":"70055b88","cityKeys(uint256)":"873767a4","drifts(string)":"7f52ec21","getDrift(string)":"d5194b54","steward()":"637eea19","totalDrifts()":"79e73e10"}}}}}