{"contracts/codex/SpiralboundCodex.sol":{"SpiralboundCodex":{"abi":[{"inputs":[],"stateMutability":"nonpayable","type":"constructor"},{"anonymous":false,"inputs":[{"indexed":false,"internalType":"string","name":"glyph","type":"string"},{"indexed":false,"internalType":"string","name":"definition","type":"string"},{"indexed":false,"internalType":"string","name":"protocol","type":"string"}],"name":"LawInscribed","type":"event"},{"inputs":[{"internalType":"string","name":"glyph","type":"string"}],"name":"getLaw","outputs":[{"internalType":"string","name":"","type":"string"},{"internalType":"string","name":"","type":"string"}],"stateMutability":"view","type":"function"},{"inputs":[{"internalType":"string","name":"glyph","type":"string"},{"internalType":"string","name":"definition","type":"string"},{"internalType":"string","name":"protocol","type":"string"}],"name":"inscribeLaw","outputs":[],"stateMutability":"nonpayable","type":"function"},{"inputs":[{"internalType":"uint256","name":"","type":"uint256"}],"name":"keys","outputs":[{"internalType":"string","name":"","type":"string"}],"stateMutability":"view","type":"function"},{"inputs":[{"internalType":"string","name":"","type":"string"}],"name":"laws","outputs":[{"internalType":"string","name":"glyph","type":"string"},{"internalType":"string","name":"definition","type":"string"},{"internalType":"string","name":"protocol","type":"string"}],"stateMutability":"view","type":"function"},{"inputs":[],"name":"steward","outputs":[{"internalType":"address","name":"","type":"address"}],"stateMutability":"view","type":"function"},{"inputs":[],"name":"totalLaws","outputs":[{"internalType":"uint256","name":"","type":"uint256"}],"stateMutability":"view","type":"function"}],"evm":{"bytecode":{"linkReferences":{},"object":"6080806040523461002857600080546001600160a01b03191633179055610a40908161002e8239f35b600080fdfe6080604052600436101561001257600080fd5b60003560e01c80630cb6aaf114610726578063637eea19146106fd578063aa3c1cd51461063e578063e913bde414610131578063fafddde0146101135763fc39d2ab1461005e57600080fd5b3461010e57602036600319011261010e576004356001600160401b03811161010e57604061010a60206100986100fc943690600401610968565b919082855193849283378101600181520301902082516100b7816107f8565b6100c082610834565b81526100e160026100d360018501610834565b936020840194855201610834565b938491015251916040519384936040855260408501906108fd565b9083820360208501526108fd565b0390f35b600080fd5b3461010e57600036600319011261010e576020600254604051908152f35b3461010e57606036600319011261010e576004356001600160401b03811161010e57610161903690600401610968565b906024356001600160401b03811161010e57610181903690600401610968565b92906044356001600160401b03811161010e576101a2903690600401610968565b60005491959092916001600160a01b0316330361060b576040516101c5816107f8565b6101d0368688610922565b81526101dd368385610922565b60208201526101ed368589610922565b604082015260405185878237602081878101600181520301902081518051906001600160401b0382116104845781906102308261022a86546107be565b86610995565b602090601f83116001146105a55760009261059a575b50508160011b916000199060031b1c19161781555b602082015180516001600160401b0381116104845760018301916102898261028385546107be565b85610995565b602090601f831160011461052c5791806002949260409694600092610521575b50508160011b916000199060031b1c19161790555b019101518051906001600160401b0382116104845781906102e38261022a86546107be565b602090601f83116001146104bb576000926104b0575b50508160011b916000199060031b1c19161790555b60025468010000000000000000811015610484578060016103329201600255610771565b61049a576001600160401b038511610484576103588561035283546107be565b83610995565b6000601f86116001146103f257926103e294926103d492877f603c67a7d662b61be3a8059b0c057e089d15247657b3618fde50ae20819316c99a966000916103e7575b508860011b906000198a60031b1c19161790555b6103c660405198899860608a5260608a01916109e9565b9187830360208901526109e9565b9184830360408601526109e9565b0390a1005b90508901358b61039b565b601f198616908260005260206000209160005b81811061046c5750927f603c67a7d662b61be3a8059b0c057e089d15247657b3618fde50ae20819316c99995926103e2979592896103d49610610452575b5050600188811b0190556103af565b8a013560001960038b901b60f8161c191690558a80610443565b9192602060018192868d013581550194019201610405565b634e487b7160e01b600052604160045260246000fd5b634e487b7160e01b600052600060045260246000fd5b0151905089806102f9565b6000858152602081209350601f198516905b81811061050957509084600195949392106104f0575b505050811b01905561030e565b015160001960f88460031b161c191690558980806104e3565b929360206001819287860151815501950193016104cd565b015190508d806102a9565b90601f198316918460005260206000209260005b8181106105825750926001928592604098966002989610610569575b505050811b0190556102be565b015160001960f88460031b161c191690558d808061055c565b92936020600181928786015181550195019301610540565b015190508a80610246565b6000858152602081209350601f198516905b8181106105f357509084600195949392106105da575b505050811b01815561025b565b015160001960f88460031b161c191690558a80806105cd565b929360206001819287860151815501950193016105b7565b60405162461bcd60e51b815260206004820152600b60248201526a139bdd081cdd195dd85c9960aa1b6044820152606490fd5b3461010e57602036600319011261010e576004356001600160401b03811161010e573660238201121561010e5761069a60206106876106e1933690602481600401359101610922565b81604051938285809451938492016108da565b8101600181520301902061010a6106b082610834565b916106ef6106cc60026106c560018501610834565b9301610834565b916040519586956060875260608701906108fd565b9085820360208701526108fd565b9083820360408501526108fd565b3461010e57600036600319011261010e576000546040516001600160a01b039091168152602090f35b3461010e57602036600319011261010e5760043560025481101561010e5761074d90610771565b61049a5761075d61010a91610834565b6040519182916020835260208301906108fd565b6002548110156107a85760026000527f405787fa12a823e0f2b7631cc41b3ba8828b3321ca811111fa75cd3aa3bb5ace0190600090565b634e487b7160e01b600052603260045260246000fd5b90600182811c921680156107ee575b60208310146107d857565b634e487b7160e01b600052602260045260246000fd5b91607f16916107cd565b606081019081106001600160401b0382111761048457604052565b90601f801991011681019081106001600160401b0382111761048457604052565b9060405191826000825492610848846107be565b9081845260019485811690816000146108b75750600114610874575b505061087292500383610813565b565b9093915060005260209081600020936000915b81831061089f57505061087293508201013880610864565b85548884018501529485019487945091830191610887565b91505061087294506020925060ff191682840152151560051b8201013880610864565b60005b8381106108ed5750506000910152565b81810151838201526020016108dd565b90602091610916815180928185528580860191016108da565b601f01601f1916010190565b9291926001600160401b038211610484576040519161094b601f8201601f191660200184610813565b82948184528183011161010e578281602093846000960137010152565b9181601f8401121561010e578235916001600160401b03831161010e576020838186019501011161010e57565b90601f81116109a357505050565b600091825260208220906020601f850160051c830194106109df575b601f0160051c01915b8281106109d457505050565b8181556001016109c8565b90925082906109bf565b908060209392818452848401376000828201840152601f01601f191601019056fea26469706673582212205d18b956bab3fb8028a02a4c234066558bab4f4e4757d4f82ade3ec0a493e91564736f6c63430008140033","opcodes":"PUSH1 0x80 DUP1 PUSH1 0x40 MSTORE CALLVALUE PUSH2 0x28 JUMPI PUSH1 0x0 DUP1 SLOAD PUSH1 0x1 PUSH1 0x1 PUSH1 0xA0 SHL SUB NOT AND CALLER OR SWAP1 SSTORE PUSH2 0xA40 SWAP1 DUP2 PUSH2 0x2E DUP3 CODECOPY RETURN JUMPDEST PUSH1 0x0 DUP1 REVERT INVALID PUSH1 0x80 PUSH1 0x40 MSTORE PUSH1 0x4 CALLDATASIZE LT ISZERO PUSH2 0x12 JUMPI PUSH1 0x0 DUP1 REVERT JUMPDEST PUSH1 0x0 CALLDATALOAD PUSH1 0xE0 SHR DUP1 PUSH4 0xCB6AAF1 EQ PUSH2 0x726 JUMPI DUP1 PUSH4 0x637EEA19 EQ PUSH2 0x6FD JUMPI DUP1 PUSH4 0xAA3C1CD5 EQ PUSH2 0x63E JUMPI DUP1 PUSH4 0xE913BDE4 EQ PUSH2 0x131 JUMPI DUP1 PUSH4 0xFAFDDDE0 EQ PUSH2 0x113 JUMPI PUSH4 0xFC39D2AB EQ PUSH2 0x5E JUMPI PUSH1 0x0 DUP1 REVERT JUMPDEST CALLVALUE PUSH2 0x10E JUMPI PUSH1 0x20 CALLDATASIZE PUSH1 0x3 NOT ADD SLT PUSH2 0x10E JUMPI PUSH1 0x4 CALLDATALOAD PUSH1 0x1 PUSH1 0x1 PUSH1 0x40 SHL SUB DUP2 GT PUSH2 0x10E JUMPI PUSH1 0x40 PUSH2 0x10A PUSH1 0x20 PUSH2 0x98 PUSH2 0xFC SWAP5 CALLDATASIZE SWAP1 PUSH1 0x4 ADD PUSH2 0x968 JUMP JUMPDEST SWAP2 SWAP1 DUP3 DUP6 MLOAD SWAP4 DUP5 SWAP3 DUP4 CALLDATACOPY DUP2 ADD PUSH1 0x1 DUP2 MSTORE SUB ADD SWAP1 KECCAK256 DUP3 MLOAD PUSH2 0xB7 DUP2 PUSH2 0x7F8 JUMP JUMPDEST PUSH2 0xC0 DUP3 PUSH2 0x834 JUMP JUMPDEST DUP2 MSTORE PUSH2 0xE1 PUSH1 0x2 PUSH2 0xD3 PUSH1 0x1 DUP6 ADD PUSH2 0x834 JUMP JUMPDEST SWAP4 PUSH1 0x20 DUP5 ADD SWAP5 DUP6 MSTORE ADD PUSH2 0x834 JUMP JUMPDEST SWAP4 DUP5 SWAP2 ADD MSTORE MLOAD SWAP2 PUSH1 0x40 MLOAD SWAP4 DUP5 SWAP4 PUSH1 0x40 DUP6 MSTORE PUSH1 0x40 DUP6 ADD SWAP1 PUSH2 0x8FD JUMP JUMPDEST SWAP1 DUP4 DUP3 SUB PUSH1 0x20 DUP6 ADD MSTORE PUSH2 0x8FD JUMP JUMPDEST SUB SWAP1 RETURN JUMPDEST PUSH1 0x0 DUP1 REVERT JUMPDEST CALLVALUE PUSH2 0x10E JUMPI PUSH1 0x0 CALLDATASIZE PUSH1 0x3 NOT ADD SLT PUSH2 0x10E JUMPI PUSH1 0x20 PUSH1 0x2 SLOAD PUSH1 0x40 MLOAD SWAP1 DUP2 MSTORE RETURN JUMPDEST CALLVALUE PUSH2 0x10E JUMPI PUSH1 0x60 CALLDATASIZE PUSH1 0x3 NOT ADD SLT PUSH2 0x10E JUMPI PUSH1 0x4 CALLDATALOAD PUSH1 0x1 PUSH1 0x1 PUSH1 0x40 SHL SUB DUP2 GT PUSH2 0x10E JUMPI PUSH2 0x161 SWAP1 CALLDATASIZE SWAP1 PUSH1 0x4 ADD PUSH2 0x968 JUMP JUMPDEST SWAP1 PUSH1 0x24 CALLDATALOAD PUSH1 0x1 PUSH1 0x1 PUSH1 0x40 SHL SUB DUP2 GT PUSH2 0x10E JUMPI PUSH2 0x181 SWAP1 CALLDATASIZE SWAP1 PUSH1 0x4 ADD PUSH2 0x968 JUMP JUMPDEST SWAP3 SWAP1 PUSH1 0x44 CALLDATALOAD PUSH1 0x1 PUSH1 0x1 PUSH1 0x40 SHL SUB DUP2 GT PUSH2 0x10E JUMPI PUSH2 0x1A2 SWAP1 CALLDATASIZE SWAP1 PUSH1 0x4 ADD PUSH2 0x968 JUMP JUMPDEST PUSH1 0x0 SLOAD SWAP2 SWAP6 SWAP1 SWAP3 SWAP2 PUSH1 0x1 PUSH1 0x1 PUSH1 0xA0 SHL SUB AND CALLER SUB PUSH2 0x60B JUMPI PUSH1 0x40 MLOAD PUSH2 0x1C5 DUP2 PUSH2 0x7F8 JUMP JUMPDEST PUSH2 0x1D0 CALLDATASIZE DUP7 DUP9 PUSH2 0x922 JUMP JUMPDEST DUP2 MSTORE PUSH2 0x1DD CALLDATASIZE DUP4 DUP6 PUSH2 0x922 JUMP JUMPDEST PUSH1 0x20 DUP3 ADD MSTORE PUSH2 0x1ED CALLDATASIZE DUP6 DUP10 PUSH2 0x922 JUMP JUMPDEST PUSH1 0x40 DUP3 ADD MSTORE PUSH1 0x40 MLOAD DUP6 DUP8 DUP3 CALLDATACOPY PUSH1 0x20 DUP2 DUP8 DUP2 ADD PUSH1 0x1 DUP2 MSTORE SUB ADD SWAP1 KECCAK256 DUP2 MLOAD DUP1 MLOAD SWAP1 PUSH1 0x1 PUSH1 0x1 PUSH1 0x40 SHL SUB DUP3 GT PUSH2 0x484 JUMPI DUP2 SWAP1 PUSH2 0x230 DUP3 PUSH2 0x22A DUP7 SLOAD PUSH2 0x7BE JUMP JUMPDEST DUP7 PUSH2 0x995 JUMP JUMPDEST PUSH1 0x20 SWAP1 PUSH1 0x1F DUP4 GT PUSH1 0x1 EQ PUSH2 0x5A5 JUMPI PUSH1 0x0 SWAP3 PUSH2 0x59A JUMPI JUMPDEST POP POP DUP2 PUSH1 0x1 SHL SWAP2 PUSH1 0x0 NOT SWAP1 PUSH1 0x3 SHL SHR NOT AND OR DUP2 SSTORE JUMPDEST PUSH1 0x20 DUP3 ADD MLOAD DUP1 MLOAD PUSH1 0x1 PUSH1 0x1 PUSH1 0x40 SHL SUB DUP2 GT PUSH2 0x484 JUMPI PUSH1 0x1 DUP4 ADD SWAP2 PUSH2 0x289 DUP3 PUSH2 0x283 DUP6 SLOAD PUSH2 0x7BE JUMP JUMPDEST DUP6 PUSH2 0x995 JUMP JUMPDEST PUSH1 0x20 SWAP1 PUSH1 0x1F DUP4 GT PUSH1 0x1 EQ PUSH2 0x52C JUMPI SWAP2 DUP1 PUSH1 0x2 SWAP5 SWAP3 PUSH1 0x40 SWAP7 SWAP5 PUSH1 0x0 SWAP3 PUSH2 0x521 JUMPI JUMPDEST POP POP DUP2 PUSH1 0x1 SHL SWAP2 PUSH1 0x0 NOT SWAP1 PUSH1 0x3 SHL SHR NOT AND OR SWAP1 SSTORE JUMPDEST ADD SWAP2 ADD MLOAD DUP1 MLOAD SWAP1 PUSH1 0x1 PUSH1 0x1 PUSH1 0x40 SHL SUB DUP3 GT PUSH2 0x484 JUMPI DUP2 SWAP1 PUSH2 0x2E3 DUP3 PUSH2 0x22A DUP7 SLOAD PUSH2 0x7BE JUMP JUMPDEST PUSH1 0x20 SWAP1 PUSH1 0x1F DUP4 GT PUSH1 0x1 EQ PUSH2 0x4BB JUMPI PUSH1 0x0 SWAP3 PUSH2 0x4B0 JUMPI JUMPDEST POP POP DUP2 PUSH1 0x1 SHL SWAP2 PUSH1 0x0 NOT SWAP1 PUSH1 0x3 SHL SHR NOT AND OR SWAP1 SSTORE JUMPDEST PUSH1 0x2 SLOAD PUSH9 0x10000000000000000 DUP2 LT ISZERO PUSH2 0x484 JUMPI DUP1 PUSH1 0x1 PUSH2 0x332 SWAP3 ADD PUSH1 0x2 SSTORE PUSH2 0x771 JUMP JUMPDEST PUSH2 0x49A JUMPI PUSH1 0x1 PUSH1 0x1 PUSH1 0x40 SHL SUB DUP6 GT PUSH2 0x484 JUMPI PUSH2 0x358 DUP6 PUSH2 0x352 DUP4 SLOAD PUSH2 0x7BE JUMP JUMPDEST DUP4 PUSH2 0x995 JUMP JUMPDEST PUSH1 0x0 PUSH1 0x1F DUP7 GT PUSH1 0x1 EQ PUSH2 0x3F2 JUMPI SWAP3 PUSH2 0x3E2 SWAP5 SWAP3 PUSH2 0x3D4 SWAP3 DUP8 PUSH32 0x603C67A7D662B61BE3A8059B0C057E089D15247657B3618FDE50AE20819316C9 SWAP11 SWAP7 PUSH1 0x0 SWAP2 PUSH2 0x3E7 JUMPI JUMPDEST POP DUP9 PUSH1 0x1 SHL SWAP1 PUSH1 0x0 NOT DUP11 PUSH1 0x3 SHL SHR NOT AND OR SWAP1 SSTORE JUMPDEST PUSH2 0x3C6 PUSH1 0x40 MLOAD SWAP9 DUP10 SWAP9 PUSH1 0x60 DUP11 MSTORE PUSH1 0x60 DUP11 ADD SWAP2 PUSH2 0x9E9 JUMP JUMPDEST SWAP2 DUP8 DUP4 SUB PUSH1 0x20 DUP10 ADD MSTORE PUSH2 0x9E9 JUMP JUMPDEST SWAP2 DUP5 DUP4 SUB PUSH1 0x40 DUP7 ADD MSTORE PUSH2 0x9E9 JUMP JUMPDEST SUB SWAP1 LOG1 STOP JUMPDEST SWAP1 POP DUP10 ADD CALLDATALOAD DUP12 PUSH2 0x39B JUMP JUMPDEST PUSH1 0x1F NOT DUP7 AND SWAP1 DUP3 PUSH1 0x0 MSTORE PUSH1 0x20 PUSH1 0x0 KECCAK256 SWAP2 PUSH1 0x0 JUMPDEST DUP2 DUP2 LT PUSH2 0x46C JUMPI POP SWAP3 PUSH32 0x603C67A7D662B61BE3A8059B0C057E089D15247657B3618FDE50AE20819316C9 SWAP10 SWAP6 SWAP3 PUSH2 0x3E2 SWAP8 SWAP6 SWAP3 DUP10 PUSH2 0x3D4 SWAP7 LT PUSH2 0x452 JUMPI JUMPDEST POP POP PUSH1 0x1 DUP9 DUP2 SHL ADD SWAP1 SSTORE PUSH2 0x3AF JUMP JUMPDEST DUP11 ADD CALLDATALOAD PUSH1 0x0 NOT PUSH1 0x3 DUP12 SWAP1 SHL PUSH1 0xF8 AND SHR NOT AND SWAP1 SSTORE DUP11 DUP1 PUSH2 0x443 JUMP JUMPDEST SWAP2 SWAP3 PUSH1 0x20 PUSH1 0x1 DUP2 SWAP3 DUP7 DUP14 ADD CALLDATALOAD DUP2 SSTORE ADD SWAP5 ADD SWAP3 ADD PUSH2 0x405 JUMP JUMPDEST PUSH4 0x4E487B71 PUSH1 0xE0 SHL PUSH1 0x0 MSTORE PUSH1 0x41 PUSH1 0x4 MSTORE PUSH1 0x24 PUSH1 0x0 REVERT JUMPDEST PUSH4 0x4E487B71 PUSH1 0xE0 SHL PUSH1 0x0 MSTORE PUSH1 0x0 PUSH1 0x4 MSTORE PUSH1 0x24 PUSH1 0x0 REVERT JUMPDEST ADD MLOAD SWAP1 POP DUP10 DUP1 PUSH2 0x2F9 JUMP JUMPDEST PUSH1 0x0 DUP6 DUP2 MSTORE PUSH1 0x20 DUP2 KECCAK256 SWAP4 POP PUSH1 0x1F NOT DUP6 AND SWAP1 JUMPDEST DUP2 DUP2 LT PUSH2 0x509 JUMPI POP SWAP1 DUP5 PUSH1 0x1 SWAP6 SWAP5 SWAP4 SWAP3 LT PUSH2 0x4F0 JUMPI JUMPDEST POP POP POP DUP2 SHL ADD SWAP1 SSTORE PUSH2 0x30E JUMP JUMPDEST ADD MLOAD PUSH1 0x0 NOT PUSH1 0xF8 DUP5 PUSH1 0x3 SHL AND SHR NOT AND SWAP1 SSTORE DUP10 DUP1 DUP1 PUSH2 0x4E3 JUMP JUMPDEST SWAP3 SWAP4 PUSH1 0x20 PUSH1 0x1 DUP2 SWAP3 DUP8 DUP7 ADD MLOAD DUP2 SSTORE ADD SWAP6 ADD SWAP4 ADD PUSH2 0x4CD JUMP JUMPDEST ADD MLOAD SWAP1 POP DUP14 DUP1 PUSH2 0x2A9 JUMP JUMPDEST SWAP1 PUSH1 0x1F NOT DUP4 AND SWAP2 DUP5 PUSH1 0x0 MSTORE PUSH1 0x20 PUSH1 0x0 KECCAK256 SWAP3 PUSH1 0x0 JUMPDEST DUP2 DUP2 LT PUSH2 0x582 JUMPI POP SWAP3 PUSH1 0x1 SWAP3 DUP6 SWAP3 PUSH1 0x40 SWAP9 SWAP7 PUSH1 0x2 SWAP9 SWAP7 LT PUSH2 0x569 JUMPI JUMPDEST POP POP POP DUP2 SHL ADD SWAP1 SSTORE PUSH2 0x2BE JUMP JUMPDEST ADD MLOAD PUSH1 0x0 NOT PUSH1 0xF8 DUP5 PUSH1 0x3 SHL AND SHR NOT AND SWAP1 SSTORE DUP14 DUP1 DUP1 PUSH2 0x55C JUMP JUMPDEST SWAP3 SWAP4 PUSH1 0x20 PUSH1 0x1 DUP2 SWAP3 DUP8 DUP7 ADD MLOAD DUP2 SSTORE ADD SWAP6 ADD SWAP4 ADD PUSH2 0x540 JUMP JUMPDEST ADD MLOAD SWAP1 POP DUP11 DUP1 PUSH2 0x246 JUMP JUMPDEST PUSH1 0x0 DUP6 DUP2 MSTORE PUSH1 0x20 DUP2 KECCAK256 SWAP4 POP PUSH1 0x1F NOT DUP6 AND SWAP1 JUMPDEST DUP2 DUP2 LT PUSH2 0x5F3 JUMPI POP SWAP1 DUP5 PUSH1 0x1 SWAP6 SWAP5 SWAP4 SWAP3 LT PUSH2 0x5DA JUMPI JUMPDEST POP POP POP DUP2 SHL ADD DUP2 SSTORE PUSH2 0x25B JUMP JUMPDEST ADD MLOAD PUSH1 0x0 NOT PUSH1 0xF8 DUP5 PUSH1 0x3 SHL AND SHR NOT AND SWAP1 SSTORE DUP11 DUP1 DUP1 PUSH2 0x5CD JUMP JUMPDEST SWAP3 SWAP4 PUSH1 0x20 PUSH1 0x1 DUP2 SWAP3 DUP8 DUP7 ADD MLOAD DUP2 SSTORE ADD SWAP6 ADD SWAP4 ADD PUSH2 0x5B7 JUMP JUMPDEST PUSH1 0x40 MLOAD PUSH3 0x461BCD PUSH1 0xE5 SHL DUP2 MSTORE PUSH1 0x20 PUSH1 0x4 DUP3 ADD MSTORE PUSH1 0xB PUSH1 0x24 DUP3 ADD MSTORE PUSH11 0x139BDD081CDD195DD85C99 PUSH1 0xAA SHL PUSH1 0x44 DUP3 ADD MSTORE PUSH1 0x64 SWAP1 REVERT JUMPDEST CALLVALUE PUSH2 0x10E JUMPI PUSH1 0x20 CALLDATASIZE PUSH1 0x3 NOT ADD SLT PUSH2 0x10E JUMPI PUSH1 0x4 CALLDATALOAD PUSH1 0x1 PUSH1 0x1 PUSH1 0x40 SHL SUB DUP2 GT PUSH2 0x10E JUMPI CALLDATASIZE PUSH1 0x23 DUP3 ADD SLT ISZERO PUSH2 0x10E JUMPI PUSH2 0x69A PUSH1 0x20 PUSH2 0x687 PUSH2 0x6E1 SWAP4 CALLDATASIZE SWAP1 PUSH1 0x24 DUP2 PUSH1 0x4 ADD CALLDATALOAD SWAP2 ADD PUSH2 0x922 JUMP JUMPDEST DUP2 PUSH1 0x40 MLOAD SWAP4 DUP3 DUP6 DUP1 SWAP5 MLOAD SWAP4 DUP5 SWAP3 ADD PUSH2 0x8DA JUMP JUMPDEST DUP2 ADD PUSH1 0x1 DUP2 MSTORE SUB ADD SWAP1 KECCAK256 PUSH2 0x10A PUSH2 0x6B0 DUP3 PUSH2 0x834 JUMP JUMPDEST SWAP2 PUSH2 0x6EF PUSH2 0x6CC PUSH1 0x2 PUSH2 0x6C5 PUSH1 0x1 DUP6 ADD PUSH2 0x834 JUMP JUMPDEST SWAP4 ADD PUSH2 0x834 JUMP JUMPDEST SWAP2 PUSH1 0x40 MLOAD SWAP6 DUP7 SWAP6 PUSH1 0x60 DUP8 MSTORE PUSH1 0x60 DUP8 ADD SWAP1 PUSH2 0x8FD JUMP JUMPDEST SWAP1 DUP6 DUP3 SUB PUSH1 0x20 DUP8 ADD MSTORE PUSH2 0x8FD JUMP JUMPDEST SWAP1 DUP4 DUP3 SUB PUSH1 0x40 DUP6 ADD MSTORE PUSH2 0x8FD JUMP JUMPDEST CALLVALUE PUSH2 0x10E JUMPI PUSH1 0x0 CALLDATASIZE PUSH1 0x3 NOT ADD SLT PUSH2 0x10E JUMPI PUSH1 0x0 SLOAD PUSH1 0x40 MLOAD PUSH1 0x1 PUSH1 0x1 PUSH1 0xA0 SHL SUB SWAP1 SWAP2 AND DUP2 MSTORE PUSH1 0x20 SWAP1 RETURN JUMPDEST CALLVALUE PUSH2 0x10E JUMPI PUSH1 0x20 CALLDATASIZE PUSH1 0x3 NOT ADD SLT PUSH2 0x10E JUMPI PUSH1 0x4 CALLDATALOAD PUSH1 0x2 SLOAD DUP2 LT ISZERO PUSH2 0x10E JUMPI PUSH2 0x74D SWAP1 PUSH2 0x771 JUMP JUMPDEST PUSH2 0x49A JUMPI PUSH2 0x75D PUSH2 0x10A SWAP2 PUSH2 0x834 JUMP JUMPDEST PUSH1 0x40 MLOAD SWAP2 DUP3 SWAP2 PUSH1 0x20 DUP4 MSTORE PUSH1 0x20 DUP4 ADD SWAP1 PUSH2 0x8FD JUMP JUMPDEST PUSH1 0x2 SLOAD DUP2 LT ISZERO PUSH2 0x7A8 JUMPI PUSH1 0x2 PUSH1 0x0 MSTORE PUSH32 0x405787FA12A823E0F2B7631CC41B3BA8828B3321CA811111FA75CD3AA3BB5ACE ADD SWAP1 PUSH1 0x0 SWAP1 JUMP JUMPDEST PUSH4 0x4E487B71 PUSH1 0xE0 SHL PUSH1 0x0 MSTORE PUSH1 0x32 PUSH1 0x4 MSTORE PUSH1 0x24 PUSH1 0x0 REVERT JUMPDEST SWAP1 PUSH1 0x1 DUP3 DUP2 SHR SWAP3 AND DUP1 ISZERO PUSH2 0x7EE JUMPI JUMPDEST PUSH1 0x20 DUP4 LT EQ PUSH2 0x7D8 JUMPI JUMP JUMPDEST PUSH4 0x4E487B71 PUSH1 0xE0 SHL PUSH1 0x0 MSTORE PUSH1 0x22 PUSH1 0x4 MSTORE PUSH1 0x24 PUSH1 0x0 REVERT JUMPDEST SWAP2 PUSH1 0x7F AND SWAP2 PUSH2 0x7CD JUMP JUMPDEST PUSH1 0x60 DUP2 ADD SWAP1 DUP2 LT PUSH1 0x1 PUSH1 0x1 PUSH1 0x40 SHL SUB DUP3 GT OR PUSH2 0x484 JUMPI PUSH1 0x40 MSTORE JUMP JUMPDEST SWAP1 PUSH1 0x1F DUP1 NOT SWAP2 ADD AND DUP2 ADD SWAP1 DUP2 LT PUSH1 0x1 PUSH1 0x1 PUSH1 0x40 SHL SUB DUP3 GT OR PUSH2 0x484 JUMPI PUSH1 0x40 MSTORE JUMP JUMPDEST SWAP1 PUSH1 0x40 MLOAD SWAP2 DUP3 PUSH1 0x0 DUP3 SLOAD SWAP3 PUSH2 0x848 DUP5 PUSH2 0x7BE JUMP JUMPDEST SWAP1 DUP2 DUP5 MSTORE PUSH1 0x1 SWAP5 DUP6 DUP2 AND SWAP1 DUP2 PUSH1 0x0 EQ PUSH2 0x8B7 JUMPI POP PUSH1 0x1 EQ PUSH2 0x874 JUMPI JUMPDEST POP POP PUSH2 0x872 SWAP3 POP SUB DUP4 PUSH2 0x813 JUMP JUMPDEST JUMP JUMPDEST SWAP1 SWAP4 SWAP2 POP PUSH1 0x0 MSTORE PUSH1 0x20 SWAP1 DUP2 PUSH1 0x0 KECCAK256 SWAP4 PUSH1 0x0 SWAP2 JUMPDEST DUP2 DUP4 LT PUSH2 0x89F JUMPI POP POP PUSH2 0x872 SWAP4 POP DUP3 ADD ADD CODESIZE DUP1 PUSH2 0x864 JUMP JUMPDEST DUP6 SLOAD DUP9 DUP5 ADD DUP6 ADD MSTORE SWAP5 DUP6 ADD SWAP5 DUP8 SWAP5 POP SWAP2 DUP4 ADD SWAP2 PUSH2 0x887 JUMP JUMPDEST SWAP2 POP POP PUSH2 0x872 SWAP5 POP PUSH1 0x20 SWAP3 POP PUSH1 0xFF NOT AND DUP3 DUP5 ADD MSTORE ISZERO ISZERO PUSH1 0x5 SHL DUP3 ADD ADD CODESIZE DUP1 PUSH2 0x864 JUMP JUMPDEST PUSH1 0x0 JUMPDEST DUP4 DUP2 LT PUSH2 0x8ED JUMPI POP POP PUSH1 0x0 SWAP2 ADD MSTORE JUMP JUMPDEST DUP2 DUP2 ADD MLOAD DUP4 DUP3 ADD MSTORE PUSH1 0x20 ADD PUSH2 0x8DD JUMP JUMPDEST SWAP1 PUSH1 0x20 SWAP2 PUSH2 0x916 DUP2 MLOAD DUP1 SWAP3 DUP2 DUP6 MSTORE DUP6 DUP1 DUP7 ADD SWAP2 ADD PUSH2 0x8DA JUMP JUMPDEST PUSH1 0x1F ADD PUSH1 0x1F NOT AND ADD ADD SWAP1 JUMP JUMPDEST SWAP3 SWAP2 SWAP3 PUSH1 0x1 PUSH1 0x1 PUSH1 0x40 SHL SUB DUP3 GT PUSH2 0x484 JUMPI PUSH1 0x40 MLOAD SWAP2 PUSH2 0x94B PUSH1 0x1F DUP3 ADD PUSH1 0x1F NOT AND PUSH1 0x20 ADD DUP5 PUSH2 0x813 JUMP JUMPDEST DUP3 SWAP5 DUP2 DUP5 MSTORE DUP2 DUP4 ADD GT PUSH2 0x10E JUMPI DUP3 DUP2 PUSH1 0x20 SWAP4 DUP5 PUSH1 0x0 SWAP7 ADD CALLDATACOPY ADD ADD MSTORE JUMP JUMPDEST SWAP2 DUP2 PUSH1 0x1F DUP5 ADD SLT ISZERO PUSH2 0x10E JUMPI DUP3 CALLDATALOAD SWAP2 PUSH1 0x1 PUSH1 0x1 PUSH1 0x40 SHL SUB DUP4 GT PUSH2 0x10E JUMPI PUSH1 0x20 DUP4 DUP2 DUP7 ADD SWAP6 ADD ADD GT PUSH2 0x10E JUMPI JUMP JUMPDEST SWAP1 PUSH1 0x1F DUP2 GT PUSH2 0x9A3 JUMPI POP POP POP JUMP JUMPDEST PUSH1 0x0 SWAP2 DUP3 MSTORE PUSH1 0x20 DUP3 KECCAK256 SWAP1 PUSH1 0x20 PUSH1 0x1F DUP6 ADD PUSH1 0x5 SHR DUP4 ADD SWAP5 LT PUSH2 0x9DF JUMPI JUMPDEST PUSH1 0x1F ADD PUSH1 0x5 SHR ADD SWAP2 JUMPDEST DUP3 DUP2 LT PUSH2 0x9D4 JUMPI POP POP POP JUMP JUMPDEST DUP2 DUP2 SSTORE PUSH1 0x1 ADD PUSH2 0x9C8 JUMP JUMPDEST SWAP1 SWAP3 POP DUP3 SWAP1 PUSH2 0x9BF JUMP JUMPDEST SWAP1 DUP1 PUSH1 0x20 SWAP4 SWAP3 DUP2 DUP5 MSTORE DUP5 DUP5 ADD CALLDATACOPY PUSH1 0x0 DUP3 DUP3 ADD DUP5 ADD MSTORE PUSH1 0x1F ADD PUSH1 0x1F NOT AND ADD ADD SWAP1 JUMP INVALID LOG2 PUSH5 0x6970667358 0x22 SLT KECCAK256 0x5D XOR 0xB9 JUMP 0xBA 0xB3 0xFB DUP1 0x28 LOG0 0x2A 0x4C 0x23 BLOCKHASH PUSH7 0x558BAB4F4E4757 0xD4 0xF8 0x2A 0xDE RETURNDATACOPY 0xC0 LOG4 SWAP4 0xE9 ISZERO PUSH5 0x736F6C6343 STOP ADDMOD EQ STOP CALLER "},"methodIdentifiers":{"getLaw(string)":"fc39d2ab","inscribeLaw(string,string,string)":"e913bde4","keys(uint256)":"0cb6aaf1","laws(string)":"aa3c1cd5","steward()":"637eea19","totalLaws()":"fafddde0"}}}}}