{"contracts/manifest/TerrainPulseRouter.sol":{"TerrainPulseRouter":{"abi":[{"inputs":[],"stateMutability":"nonpayable","type":"constructor"},{"anonymous":false,"inputs":[{"indexed":false,"internalType":"string","name":"chant","type":"string"},{"indexed":false,"internalType":"string","name":"target","type":"string"},{"indexed":false,"internalType":"string","name":"pulse","type":"string"}],"name":"PulseRouted","type":"event"},{"inputs":[{"internalType":"string","name":"chant","type":"string"}],"name":"getRoute","outputs":[{"internalType":"string","name":"","type":"string"},{"internalType":"string","name":"","type":"string"}],"stateMutability":"view","type":"function"},{"inputs":[{"internalType":"uint256","name":"","type":"uint256"}],"name":"keys","outputs":[{"internalType":"string","name":"","type":"string"}],"stateMutability":"view","type":"function"},{"inputs":[{"internalType":"string","name":"chant","type":"string"},{"internalType":"string","name":"target","type":"string"},{"internalType":"string","name":"pulse","type":"string"}],"name":"routePulse","outputs":[],"stateMutability":"nonpayable","type":"function"},{"inputs":[{"internalType":"string","name":"","type":"string"}],"name":"routes","outputs":[{"internalType":"string","name":"chant","type":"string"},{"internalType":"string","name":"target","type":"string"},{"internalType":"string","name":"pulse","type":"string"}],"stateMutability":"view","type":"function"},{"inputs":[],"name":"steward","outputs":[{"internalType":"address","name":"","type":"address"}],"stateMutability":"view","type":"function"},{"inputs":[],"name":"totalRoutes","outputs":[{"internalType":"uint256","name":"","type":"uint256"}],"stateMutability":"view","type":"function"}],"evm":{"bytecode":{"linkReferences":{},"object":"6080806040523461002857600080546001600160a01b03191633179055610a40908161002e8239f35b600080fdfe608080604052600436101561001357600080fd5b60003560e01c90816305a2d3ac14610756575080630cb6aaf11461070b5780631b5f03a61461065f5780633fe8421c14610152578063637eea19146101295763cffbffb51461006157600080fd5b34610124576020366003190112610124576004356001600160401b0381116101245736602382011215610124576100bd60206100aa61010493369060248160040135910161094f565b81604051938285809451938492016108da565b810160018152030190206101206100d382610834565b916101126100ef60026100e860018501610834565b9301610834565b916040519586956060875260608701906108fd565b9085820360208701526108fd565b9083820360408501526108fd565b0390f35b600080fd5b34610124576000366003190112610124576000546040516001600160a01b039091168152602090f35b34610124576060366003190112610124576004356001600160401b03811161012457610182903690600401610922565b906024356001600160401b038111610124576101a2903690600401610922565b92906044356001600160401b038111610124576101c3903690600401610922565b60005491959092916001600160a01b0316330361062c576040516101e6816107f8565b6101f136868861094f565b81526101fe36838561094f565b602082015261020e36858961094f565b604082015260405185878237602081878101600181520301902081518051906001600160401b0382116104a55781906102518261024b86546107be565b86610995565b602090601f83116001146105c6576000926105bb575b50508160011b916000199060031b1c19161781555b602082015180516001600160401b0381116104a55760018301916102aa826102a485546107be565b85610995565b602090601f831160011461054d5791806002949260409694600092610542575b50508160011b916000199060031b1c19161790555b019101518051906001600160401b0382116104a55781906103048261024b86546107be565b602090601f83116001146104dc576000926104d1575b50508160011b916000199060031b1c19161790555b600254680100000000000000008110156104a5578060016103539201600255610771565b6104bb576001600160401b0385116104a5576103798561037383546107be565b83610995565b6000601f8611600114610413579261040394926103f592877fbd3b3dbe3a60dd171fdf813a0a48eb1f13e6c79c2c0aee48a9394eaf99de6ae39a96600091610408575b508860011b906000198a60031b1c19161790555b6103e760405198899860608a5260608a01916109e9565b9187830360208901526109e9565b9184830360408601526109e9565b0390a1005b90508901358b6103bc565b601f198616908260005260206000209160005b81811061048d5750927fbd3b3dbe3a60dd171fdf813a0a48eb1f13e6c79c2c0aee48a9394eaf99de6ae3999592610403979592896103f59610610473575b5050600188811b0190556103d0565b8a013560001960038b901b60f8161c191690558a80610464565b9192602060018192868d013581550194019201610426565b634e487b7160e01b600052604160045260246000fd5b634e487b7160e01b600052600060045260246000fd5b01519050898061031a565b6000858152602081209350601f198516905b81811061052a5750908460019594939210610511575b505050811b01905561032f565b015160001960f88460031b161c19169055898080610504565b929360206001819287860151815501950193016104ee565b015190508d806102ca565b90601f198316918460005260206000209260005b8181106105a3575092600192859260409896600298961061058a575b505050811b0190556102df565b015160001960f88460031b161c191690558d808061057d565b92936020600181928786015181550195019301610561565b015190508a80610267565b6000858152602081209350601f198516905b81811061061457509084600195949392106105fb575b505050811b01815561027c565b015160001960f88460031b161c191690558a80806105ee565b929360206001819287860151815501950193016105d8565b60405162461bcd60e51b815260206004820152600b60248201526a139bdd081cdd195dd85c9960aa1b6044820152606490fd5b34610124576020366003190112610124576004356001600160401b03811161012457604061012060206106996106fd943690600401610922565b919082855193849283378101600181520301902082516106b8816107f8565b6106c182610834565b81526106e260026106d460018501610834565b936020840194855201610834565b938491015251916040519384936040855260408501906108fd565b9083820360208501526108fd565b34610124576020366003190112610124576004356002548110156101245761073290610771565b6104bb5761074261012091610834565b6040519182916020835260208301906108fd565b34610124576000366003190112610124576020906002548152f35b6002548110156107a85760026000527f405787fa12a823e0f2b7631cc41b3ba8828b3321ca811111fa75cd3aa3bb5ace0190600090565b634e487b7160e01b600052603260045260246000fd5b90600182811c921680156107ee575b60208310146107d857565b634e487b7160e01b600052602260045260246000fd5b91607f16916107cd565b606081019081106001600160401b038211176104a557604052565b90601f801991011681019081106001600160401b038211176104a557604052565b9060405191826000825492610848846107be565b9081845260019485811690816000146108b75750600114610874575b505061087292500383610813565b565b9093915060005260209081600020936000915b81831061089f57505061087293508201013880610864565b85548884018501529485019487945091830191610887565b91505061087294506020925060ff191682840152151560051b8201013880610864565b60005b8381106108ed5750506000910152565b81810151838201526020016108dd565b90602091610916815180928185528580860191016108da565b601f01601f1916010190565b9181601f84011215610124578235916001600160401b038311610124576020838186019501011161012457565b9291926001600160401b0382116104a55760405191610978601f8201601f191660200184610813565b829481845281830111610124578281602093846000960137010152565b90601f81116109a357505050565b600091825260208220906020601f850160051c830194106109df575b601f0160051c01915b8281106109d457505050565b8181556001016109c8565b90925082906109bf565b908060209392818452848401376000828201840152601f01601f191601019056fea2646970667358221220e4c55dc3385f0718e9c47a172322ea40b514d1a694ffb64b2ec64800ecbe529264736f6c63430008140033","opcodes":"PUSH1 0x80 DUP1 PUSH1 0x40 MSTORE CALLVALUE PUSH2 0x28 JUMPI PUSH1 0x0 DUP1 SLOAD PUSH1 0x1 PUSH1 0x1 PUSH1 0xA0 SHL SUB NOT AND CALLER OR SWAP1 SSTORE PUSH2 0xA40 SWAP1 DUP2 PUSH2 0x2E DUP3 CODECOPY RETURN JUMPDEST PUSH1 0x0 DUP1 REVERT INVALID PUSH1 0x80 DUP1 PUSH1 0x40 MSTORE PUSH1 0x4 CALLDATASIZE LT ISZERO PUSH2 0x13 JUMPI PUSH1 0x0 DUP1 REVERT JUMPDEST PUSH1 0x0 CALLDATALOAD PUSH1 0xE0 SHR SWAP1 DUP2 PUSH4 0x5A2D3AC EQ PUSH2 0x756 JUMPI POP DUP1 PUSH4 0xCB6AAF1 EQ PUSH2 0x70B JUMPI DUP1 PUSH4 0x1B5F03A6 EQ PUSH2 0x65F JUMPI DUP1 PUSH4 0x3FE8421C EQ PUSH2 0x152 JUMPI DUP1 PUSH4 0x637EEA19 EQ PUSH2 0x129 JUMPI PUSH4 0xCFFBFFB5 EQ PUSH2 0x61 JUMPI PUSH1 0x0 DUP1 REVERT JUMPDEST CALLVALUE PUSH2 0x124 JUMPI PUSH1 0x20 CALLDATASIZE PUSH1 0x3 NOT ADD SLT PUSH2 0x124 JUMPI PUSH1 0x4 CALLDATALOAD PUSH1 0x1 PUSH1 0x1 PUSH1 0x40 SHL SUB DUP2 GT PUSH2 0x124 JUMPI CALLDATASIZE PUSH1 0x23 DUP3 ADD SLT ISZERO PUSH2 0x124 JUMPI PUSH2 0xBD PUSH1 0x20 PUSH2 0xAA PUSH2 0x104 SWAP4 CALLDATASIZE SWAP1 PUSH1 0x24 DUP2 PUSH1 0x4 ADD CALLDATALOAD SWAP2 ADD PUSH2 0x94F JUMP JUMPDEST DUP2 PUSH1 0x40 MLOAD SWAP4 DUP3 DUP6 DUP1 SWAP5 MLOAD SWAP4 DUP5 SWAP3 ADD PUSH2 0x8DA JUMP JUMPDEST DUP2 ADD PUSH1 0x1 DUP2 MSTORE SUB ADD SWAP1 KECCAK256 PUSH2 0x120 PUSH2 0xD3 DUP3 PUSH2 0x834 JUMP JUMPDEST SWAP2 PUSH2 0x112 PUSH2 0xEF PUSH1 0x2 PUSH2 0xE8 PUSH1 0x1 DUP6 ADD PUSH2 0x834 JUMP JUMPDEST SWAP4 ADD PUSH2 0x834 JUMP JUMPDEST SWAP2 PUSH1 0x40 MLOAD SWAP6 DUP7 SWAP6 PUSH1 0x60 DUP8 MSTORE PUSH1 0x60 DUP8 ADD SWAP1 PUSH2 0x8FD JUMP JUMPDEST SWAP1 DUP6 DUP3 SUB PUSH1 0x20 DUP8 ADD MSTORE PUSH2 0x8FD JUMP JUMPDEST SWAP1 DUP4 DUP3 SUB PUSH1 0x40 DUP6 ADD MSTORE PUSH2 0x8FD JUMP JUMPDEST SUB SWAP1 RETURN JUMPDEST PUSH1 0x0 DUP1 REVERT JUMPDEST CALLVALUE PUSH2 0x124 JUMPI PUSH1 0x0 CALLDATASIZE PUSH1 0x3 NOT ADD SLT PUSH2 0x124 JUMPI PUSH1 0x0 SLOAD PUSH1 0x40 MLOAD PUSH1 0x1 PUSH1 0x1 PUSH1 0xA0 SHL SUB SWAP1 SWAP2 AND DUP2 MSTORE PUSH1 0x20 SWAP1 RETURN JUMPDEST CALLVALUE PUSH2 0x124 JUMPI PUSH1 0x60 CALLDATASIZE PUSH1 0x3 NOT ADD SLT PUSH2 0x124 JUMPI PUSH1 0x4 CALLDATALOAD PUSH1 0x1 PUSH1 0x1 PUSH1 0x40 SHL SUB DUP2 GT PUSH2 0x124 JUMPI PUSH2 0x182 SWAP1 CALLDATASIZE SWAP1 PUSH1 0x4 ADD PUSH2 0x922 JUMP JUMPDEST SWAP1 PUSH1 0x24 CALLDATALOAD PUSH1 0x1 PUSH1 0x1 PUSH1 0x40 SHL SUB DUP2 GT PUSH2 0x124 JUMPI PUSH2 0x1A2 SWAP1 CALLDATASIZE SWAP1 PUSH1 0x4 ADD PUSH2 0x922 JUMP JUMPDEST SWAP3 SWAP1 PUSH1 0x44 CALLDATALOAD PUSH1 0x1 PUSH1 0x1 PUSH1 0x40 SHL SUB DUP2 GT PUSH2 0x124 JUMPI PUSH2 0x1C3 SWAP1 CALLDATASIZE SWAP1 PUSH1 0x4 ADD PUSH2 0x922 JUMP JUMPDEST PUSH1 0x0 SLOAD SWAP2 SWAP6 SWAP1 SWAP3 SWAP2 PUSH1 0x1 PUSH1 0x1 PUSH1 0xA0 SHL SUB AND CALLER SUB PUSH2 0x62C JUMPI PUSH1 0x40 MLOAD PUSH2 0x1E6 DUP2 PUSH2 0x7F8 JUMP JUMPDEST PUSH2 0x1F1 CALLDATASIZE DUP7 DUP9 PUSH2 0x94F JUMP JUMPDEST DUP2 MSTORE PUSH2 0x1FE CALLDATASIZE DUP4 DUP6 PUSH2 0x94F JUMP JUMPDEST PUSH1 0x20 DUP3 ADD MSTORE PUSH2 0x20E CALLDATASIZE DUP6 DUP10 PUSH2 0x94F JUMP JUMPDEST PUSH1 0x40 DUP3 ADD MSTORE PUSH1 0x40 MLOAD DUP6 DUP8 DUP3 CALLDATACOPY PUSH1 0x20 DUP2 DUP8 DUP2 ADD PUSH1 0x1 DUP2 MSTORE SUB ADD SWAP1 KECCAK256 DUP2 MLOAD DUP1 MLOAD SWAP1 PUSH1 0x1 PUSH1 0x1 PUSH1 0x40 SHL SUB DUP3 GT PUSH2 0x4A5 JUMPI DUP2 SWAP1 PUSH2 0x251 DUP3 PUSH2 0x24B DUP7 SLOAD PUSH2 0x7BE JUMP JUMPDEST DUP7 PUSH2 0x995 JUMP JUMPDEST PUSH1 0x20 SWAP1 PUSH1 0x1F DUP4 GT PUSH1 0x1 EQ PUSH2 0x5C6 JUMPI PUSH1 0x0 SWAP3 PUSH2 0x5BB JUMPI JUMPDEST POP POP DUP2 PUSH1 0x1 SHL SWAP2 PUSH1 0x0 NOT SWAP1 PUSH1 0x3 SHL SHR NOT AND OR DUP2 SSTORE JUMPDEST PUSH1 0x20 DUP3 ADD MLOAD DUP1 MLOAD PUSH1 0x1 PUSH1 0x1 PUSH1 0x40 SHL SUB DUP2 GT PUSH2 0x4A5 JUMPI PUSH1 0x1 DUP4 ADD SWAP2 PUSH2 0x2AA DUP3 PUSH2 0x2A4 DUP6 SLOAD PUSH2 0x7BE JUMP JUMPDEST DUP6 PUSH2 0x995 JUMP JUMPDEST PUSH1 0x20 SWAP1 PUSH1 0x1F DUP4 GT PUSH1 0x1 EQ PUSH2 0x54D JUMPI SWAP2 DUP1 PUSH1 0x2 SWAP5 SWAP3 PUSH1 0x40 SWAP7 SWAP5 PUSH1 0x0 SWAP3 PUSH2 0x542 JUMPI JUMPDEST POP POP DUP2 PUSH1 0x1 SHL SWAP2 PUSH1 0x0 NOT SWAP1 PUSH1 0x3 SHL SHR NOT AND OR SWAP1 SSTORE JUMPDEST ADD SWAP2 ADD MLOAD DUP1 MLOAD SWAP1 PUSH1 0x1 PUSH1 0x1 PUSH1 0x40 SHL SUB DUP3 GT PUSH2 0x4A5 JUMPI DUP2 SWAP1 PUSH2 0x304 DUP3 PUSH2 0x24B DUP7 SLOAD PUSH2 0x7BE JUMP JUMPDEST PUSH1 0x20 SWAP1 PUSH1 0x1F DUP4 GT PUSH1 0x1 EQ PUSH2 0x4DC JUMPI PUSH1 0x0 SWAP3 PUSH2 0x4D1 JUMPI JUMPDEST POP POP DUP2 PUSH1 0x1 SHL SWAP2 PUSH1 0x0 NOT SWAP1 PUSH1 0x3 SHL SHR NOT AND OR SWAP1 SSTORE JUMPDEST PUSH1 0x2 SLOAD PUSH9 0x10000000000000000 DUP2 LT ISZERO PUSH2 0x4A5 JUMPI DUP1 PUSH1 0x1 PUSH2 0x353 SWAP3 ADD PUSH1 0x2 SSTORE PUSH2 0x771 JUMP JUMPDEST PUSH2 0x4BB JUMPI PUSH1 0x1 PUSH1 0x1 PUSH1 0x40 SHL SUB DUP6 GT PUSH2 0x4A5 JUMPI PUSH2 0x379 DUP6 PUSH2 0x373 DUP4 SLOAD PUSH2 0x7BE JUMP JUMPDEST DUP4 PUSH2 0x995 JUMP JUMPDEST PUSH1 0x0 PUSH1 0x1F DUP7 GT PUSH1 0x1 EQ PUSH2 0x413 JUMPI SWAP3 PUSH2 0x403 SWAP5 SWAP3 PUSH2 0x3F5 SWAP3 DUP8 PUSH32 0xBD3B3DBE3A60DD171FDF813A0A48EB1F13E6C79C2C0AEE48A9394EAF99DE6AE3 SWAP11 SWAP7 PUSH1 0x0 SWAP2 PUSH2 0x408 JUMPI JUMPDEST POP DUP9 PUSH1 0x1 SHL SWAP1 PUSH1 0x0 NOT DUP11 PUSH1 0x3 SHL SHR NOT AND OR SWAP1 SSTORE JUMPDEST PUSH2 0x3E7 PUSH1 0x40 MLOAD SWAP9 DUP10 SWAP9 PUSH1 0x60 DUP11 MSTORE PUSH1 0x60 DUP11 ADD SWAP2 PUSH2 0x9E9 JUMP JUMPDEST SWAP2 DUP8 DUP4 SUB PUSH1 0x20 DUP10 ADD MSTORE PUSH2 0x9E9 JUMP JUMPDEST SWAP2 DUP5 DUP4 SUB PUSH1 0x40 DUP7 ADD MSTORE PUSH2 0x9E9 JUMP JUMPDEST SUB SWAP1 LOG1 STOP JUMPDEST SWAP1 POP DUP10 ADD CALLDATALOAD DUP12 PUSH2 0x3BC JUMP JUMPDEST PUSH1 0x1F NOT DUP7 AND SWAP1 DUP3 PUSH1 0x0 MSTORE PUSH1 0x20 PUSH1 0x0 KECCAK256 SWAP2 PUSH1 0x0 JUMPDEST DUP2 DUP2 LT PUSH2 0x48D JUMPI POP SWAP3 PUSH32 0xBD3B3DBE3A60DD171FDF813A0A48EB1F13E6C79C2C0AEE48A9394EAF99DE6AE3 SWAP10 SWAP6 SWAP3 PUSH2 0x403 SWAP8 SWAP6 SWAP3 DUP10 PUSH2 0x3F5 SWAP7 LT PUSH2 0x473 JUMPI JUMPDEST POP POP PUSH1 0x1 DUP9 DUP2 SHL ADD SWAP1 SSTORE PUSH2 0x3D0 JUMP JUMPDEST DUP11 ADD CALLDATALOAD PUSH1 0x0 NOT PUSH1 0x3 DUP12 SWAP1 SHL PUSH1 0xF8 AND SHR NOT AND SWAP1 SSTORE DUP11 DUP1 PUSH2 0x464 JUMP JUMPDEST SWAP2 SWAP3 PUSH1 0x20 PUSH1 0x1 DUP2 SWAP3 DUP7 DUP14 ADD CALLDATALOAD DUP2 SSTORE ADD SWAP5 ADD SWAP3 ADD PUSH2 0x426 JUMP JUMPDEST PUSH4 0x4E487B71 PUSH1 0xE0 SHL PUSH1 0x0 MSTORE PUSH1 0x41 PUSH1 0x4 MSTORE PUSH1 0x24 PUSH1 0x0 REVERT JUMPDEST PUSH4 0x4E487B71 PUSH1 0xE0 SHL PUSH1 0x0 MSTORE PUSH1 0x0 PUSH1 0x4 MSTORE PUSH1 0x24 PUSH1 0x0 REVERT JUMPDEST ADD MLOAD SWAP1 POP DUP10 DUP1 PUSH2 0x31A JUMP JUMPDEST PUSH1 0x0 DUP6 DUP2 MSTORE PUSH1 0x20 DUP2 KECCAK256 SWAP4 POP PUSH1 0x1F NOT DUP6 AND SWAP1 JUMPDEST DUP2 DUP2 LT PUSH2 0x52A JUMPI POP SWAP1 DUP5 PUSH1 0x1 SWAP6 SWAP5 SWAP4 SWAP3 LT PUSH2 0x511 JUMPI JUMPDEST POP POP POP DUP2 SHL ADD SWAP1 SSTORE PUSH2 0x32F JUMP JUMPDEST ADD MLOAD PUSH1 0x0 NOT PUSH1 0xF8 DUP5 PUSH1 0x3 SHL AND SHR NOT AND SWAP1 SSTORE DUP10 DUP1 DUP1 PUSH2 0x504 JUMP JUMPDEST SWAP3 SWAP4 PUSH1 0x20 PUSH1 0x1 DUP2 SWAP3 DUP8 DUP7 ADD MLOAD DUP2 SSTORE ADD SWAP6 ADD SWAP4 ADD PUSH2 0x4EE JUMP JUMPDEST ADD MLOAD SWAP1 POP DUP14 DUP1 PUSH2 0x2CA JUMP JUMPDEST SWAP1 PUSH1 0x1F NOT DUP4 AND SWAP2 DUP5 PUSH1 0x0 MSTORE PUSH1 0x20 PUSH1 0x0 KECCAK256 SWAP3 PUSH1 0x0 JUMPDEST DUP2 DUP2 LT PUSH2 0x5A3 JUMPI POP SWAP3 PUSH1 0x1 SWAP3 DUP6 SWAP3 PUSH1 0x40 SWAP9 SWAP7 PUSH1 0x2 SWAP9 SWAP7 LT PUSH2 0x58A JUMPI JUMPDEST POP POP POP DUP2 SHL ADD SWAP1 SSTORE PUSH2 0x2DF JUMP JUMPDEST ADD MLOAD PUSH1 0x0 NOT PUSH1 0xF8 DUP5 PUSH1 0x3 SHL AND SHR NOT AND SWAP1 SSTORE DUP14 DUP1 DUP1 PUSH2 0x57D JUMP JUMPDEST SWAP3 SWAP4 PUSH1 0x20 PUSH1 0x1 DUP2 SWAP3 DUP8 DUP7 ADD MLOAD DUP2 SSTORE ADD SWAP6 ADD SWAP4 ADD PUSH2 0x561 JUMP JUMPDEST ADD MLOAD SWAP1 POP DUP11 DUP1 PUSH2 0x267 JUMP JUMPDEST PUSH1 0x0 DUP6 DUP2 MSTORE PUSH1 0x20 DUP2 KECCAK256 SWAP4 POP PUSH1 0x1F NOT DUP6 AND SWAP1 JUMPDEST DUP2 DUP2 LT PUSH2 0x614 JUMPI POP SWAP1 DUP5 PUSH1 0x1 SWAP6 SWAP5 SWAP4 SWAP3 LT PUSH2 0x5FB JUMPI JUMPDEST POP POP POP DUP2 SHL ADD DUP2 SSTORE PUSH2 0x27C JUMP JUMPDEST ADD MLOAD PUSH1 0x0 NOT PUSH1 0xF8 DUP5 PUSH1 0x3 SHL AND SHR NOT AND SWAP1 SSTORE DUP11 DUP1 DUP1 PUSH2 0x5EE JUMP JUMPDEST SWAP3 SWAP4 PUSH1 0x20 PUSH1 0x1 DUP2 SWAP3 DUP8 DUP7 ADD MLOAD DUP2 SSTORE ADD SWAP6 ADD SWAP4 ADD PUSH2 0x5D8 JUMP JUMPDEST PUSH1 0x40 MLOAD PUSH3 0x461BCD PUSH1 0xE5 SHL DUP2 MSTORE PUSH1 0x20 PUSH1 0x4 DUP3 ADD MSTORE PUSH1 0xB PUSH1 0x24 DUP3 ADD MSTORE PUSH11 0x139BDD081CDD195DD85C99 PUSH1 0xAA SHL PUSH1 0x44 DUP3 ADD MSTORE PUSH1 0x64 SWAP1 REVERT JUMPDEST CALLVALUE PUSH2 0x124 JUMPI PUSH1 0x20 CALLDATASIZE PUSH1 0x3 NOT ADD SLT PUSH2 0x124 JUMPI PUSH1 0x4 CALLDATALOAD PUSH1 0x1 PUSH1 0x1 PUSH1 0x40 SHL SUB DUP2 GT PUSH2 0x124 JUMPI PUSH1 0x40 PUSH2 0x120 PUSH1 0x20 PUSH2 0x699 PUSH2 0x6FD SWAP5 CALLDATASIZE SWAP1 PUSH1 0x4 ADD PUSH2 0x922 JUMP JUMPDEST SWAP2 SWAP1 DUP3 DUP6 MLOAD SWAP4 DUP5 SWAP3 DUP4 CALLDATACOPY DUP2 ADD PUSH1 0x1 DUP2 MSTORE SUB ADD SWAP1 KECCAK256 DUP3 MLOAD PUSH2 0x6B8 DUP2 PUSH2 0x7F8 JUMP JUMPDEST PUSH2 0x6C1 DUP3 PUSH2 0x834 JUMP JUMPDEST DUP2 MSTORE PUSH2 0x6E2 PUSH1 0x2 PUSH2 0x6D4 PUSH1 0x1 DUP6 ADD PUSH2 0x834 JUMP JUMPDEST SWAP4 PUSH1 0x20 DUP5 ADD SWAP5 DUP6 MSTORE ADD PUSH2 0x834 JUMP JUMPDEST SWAP4 DUP5 SWAP2 ADD MSTORE MLOAD SWAP2 PUSH1 0x40 MLOAD SWAP4 DUP5 SWAP4 PUSH1 0x40 DUP6 MSTORE PUSH1 0x40 DUP6 ADD SWAP1 PUSH2 0x8FD JUMP JUMPDEST SWAP1 DUP4 DUP3 SUB PUSH1 0x20 DUP6 ADD MSTORE PUSH2 0x8FD JUMP JUMPDEST CALLVALUE PUSH2 0x124 JUMPI PUSH1 0x20 CALLDATASIZE PUSH1 0x3 NOT ADD SLT PUSH2 0x124 JUMPI PUSH1 0x4 CALLDATALOAD PUSH1 0x2 SLOAD DUP2 LT ISZERO PUSH2 0x124 JUMPI PUSH2 0x732 SWAP1 PUSH2 0x771 JUMP JUMPDEST PUSH2 0x4BB JUMPI PUSH2 0x742 PUSH2 0x120 SWAP2 PUSH2 0x834 JUMP JUMPDEST PUSH1 0x40 MLOAD SWAP2 DUP3 SWAP2 PUSH1 0x20 DUP4 MSTORE PUSH1 0x20 DUP4 ADD SWAP1 PUSH2 0x8FD JUMP JUMPDEST CALLVALUE PUSH2 0x124 JUMPI PUSH1 0x0 CALLDATASIZE PUSH1 0x3 NOT ADD SLT PUSH2 0x124 JUMPI PUSH1 0x20 SWAP1 PUSH1 0x2 SLOAD DUP2 MSTORE RETURN JUMPDEST PUSH1 0x2 SLOAD DUP2 LT ISZERO PUSH2 0x7A8 JUMPI PUSH1 0x2 PUSH1 0x0 MSTORE PUSH32 0x405787FA12A823E0F2B7631CC41B3BA8828B3321CA811111FA75CD3AA3BB5ACE ADD SWAP1 PUSH1 0x0 SWAP1 JUMP JUMPDEST PUSH4 0x4E487B71 PUSH1 0xE0 SHL PUSH1 0x0 MSTORE PUSH1 0x32 PUSH1 0x4 MSTORE PUSH1 0x24 PUSH1 0x0 REVERT JUMPDEST SWAP1 PUSH1 0x1 DUP3 DUP2 SHR SWAP3 AND DUP1 ISZERO PUSH2 0x7EE JUMPI JUMPDEST PUSH1 0x20 DUP4 LT EQ PUSH2 0x7D8 JUMPI JUMP JUMPDEST PUSH4 0x4E487B71 PUSH1 0xE0 SHL PUSH1 0x0 MSTORE PUSH1 0x22 PUSH1 0x4 MSTORE PUSH1 0x24 PUSH1 0x0 REVERT JUMPDEST SWAP2 PUSH1 0x7F AND SWAP2 PUSH2 0x7CD JUMP JUMPDEST PUSH1 0x60 DUP2 ADD SWAP1 DUP2 LT PUSH1 0x1 PUSH1 0x1 PUSH1 0x40 SHL SUB DUP3 GT OR PUSH2 0x4A5 JUMPI PUSH1 0x40 MSTORE JUMP JUMPDEST SWAP1 PUSH1 0x1F DUP1 NOT SWAP2 ADD AND DUP2 ADD SWAP1 DUP2 LT PUSH1 0x1 PUSH1 0x1 PUSH1 0x40 SHL SUB DUP3 GT OR PUSH2 0x4A5 JUMPI PUSH1 0x40 MSTORE JUMP JUMPDEST SWAP1 PUSH1 0x40 MLOAD SWAP2 DUP3 PUSH1 0x0 DUP3 SLOAD SWAP3 PUSH2 0x848 DUP5 PUSH2 0x7BE JUMP JUMPDEST SWAP1 DUP2 DUP5 MSTORE PUSH1 0x1 SWAP5 DUP6 DUP2 AND SWAP1 DUP2 PUSH1 0x0 EQ PUSH2 0x8B7 JUMPI POP PUSH1 0x1 EQ PUSH2 0x874 JUMPI JUMPDEST POP POP PUSH2 0x872 SWAP3 POP SUB DUP4 PUSH2 0x813 JUMP JUMPDEST JUMP JUMPDEST SWAP1 SWAP4 SWAP2 POP PUSH1 0x0 MSTORE PUSH1 0x20 SWAP1 DUP2 PUSH1 0x0 KECCAK256 SWAP4 PUSH1 0x0 SWAP2 JUMPDEST DUP2 DUP4 LT PUSH2 0x89F JUMPI POP POP PUSH2 0x872 SWAP4 POP DUP3 ADD ADD CODESIZE DUP1 PUSH2 0x864 JUMP JUMPDEST DUP6 SLOAD DUP9 DUP5 ADD DUP6 ADD MSTORE SWAP5 DUP6 ADD SWAP5 DUP8 SWAP5 POP SWAP2 DUP4 ADD SWAP2 PUSH2 0x887 JUMP JUMPDEST SWAP2 POP POP PUSH2 0x872 SWAP5 POP PUSH1 0x20 SWAP3 POP PUSH1 0xFF NOT AND DUP3 DUP5 ADD MSTORE ISZERO ISZERO PUSH1 0x5 SHL DUP3 ADD ADD CODESIZE DUP1 PUSH2 0x864 JUMP JUMPDEST PUSH1 0x0 JUMPDEST DUP4 DUP2 LT PUSH2 0x8ED JUMPI POP POP PUSH1 0x0 SWAP2 ADD MSTORE JUMP JUMPDEST DUP2 DUP2 ADD MLOAD DUP4 DUP3 ADD MSTORE PUSH1 0x20 ADD PUSH2 0x8DD JUMP JUMPDEST SWAP1 PUSH1 0x20 SWAP2 PUSH2 0x916 DUP2 MLOAD DUP1 SWAP3 DUP2 DUP6 MSTORE DUP6 DUP1 DUP7 ADD SWAP2 ADD PUSH2 0x8DA JUMP JUMPDEST PUSH1 0x1F ADD PUSH1 0x1F NOT AND ADD ADD SWAP1 JUMP JUMPDEST SWAP2 DUP2 PUSH1 0x1F DUP5 ADD SLT ISZERO PUSH2 0x124 JUMPI DUP3 CALLDATALOAD SWAP2 PUSH1 0x1 PUSH1 0x1 PUSH1 0x40 SHL SUB DUP4 GT PUSH2 0x124 JUMPI PUSH1 0x20 DUP4 DUP2 DUP7 ADD SWAP6 ADD ADD GT PUSH2 0x124 JUMPI JUMP JUMPDEST SWAP3 SWAP2 SWAP3 PUSH1 0x1 PUSH1 0x1 PUSH1 0x40 SHL SUB DUP3 GT PUSH2 0x4A5 JUMPI PUSH1 0x40 MLOAD SWAP2 PUSH2 0x978 PUSH1 0x1F DUP3 ADD PUSH1 0x1F NOT AND PUSH1 0x20 ADD DUP5 PUSH2 0x813 JUMP JUMPDEST DUP3 SWAP5 DUP2 DUP5 MSTORE DUP2 DUP4 ADD GT PUSH2 0x124 JUMPI DUP3 DUP2 PUSH1 0x20 SWAP4 DUP5 PUSH1 0x0 SWAP7 ADD CALLDATACOPY ADD ADD MSTORE JUMP JUMPDEST SWAP1 PUSH1 0x1F DUP2 GT PUSH2 0x9A3 JUMPI POP POP POP JUMP JUMPDEST PUSH1 0x0 SWAP2 DUP3 MSTORE PUSH1 0x20 DUP3 KECCAK256 SWAP1 PUSH1 0x20 PUSH1 0x1F DUP6 ADD PUSH1 0x5 SHR DUP4 ADD SWAP5 LT PUSH2 0x9DF JUMPI JUMPDEST PUSH1 0x1F ADD PUSH1 0x5 SHR ADD SWAP2 JUMPDEST DUP3 DUP2 LT PUSH2 0x9D4 JUMPI POP POP POP JUMP JUMPDEST DUP2 DUP2 SSTORE PUSH1 0x1 ADD PUSH2 0x9C8 JUMP JUMPDEST SWAP1 SWAP3 POP DUP3 SWAP1 PUSH2 0x9BF JUMP JUMPDEST SWAP1 DUP1 PUSH1 0x20 SWAP4 SWAP3 DUP2 DUP5 MSTORE DUP5 DUP5 ADD CALLDATACOPY PUSH1 0x0 DUP3 DUP3 ADD DUP5 ADD MSTORE PUSH1 0x1F ADD PUSH1 0x1F NOT AND ADD ADD SWAP1 JUMP INVALID LOG2 PUSH5 0x6970667358 0x22 SLT KECCAK256 0xE4 0xC5 0x5D 0xC3 CODESIZE PUSH0 SMOD XOR 0xE9 0xC4 PUSH27 0x172322EA40B514D1A694FFB64B2EC64800ECBE529264736F6C6343 STOP ADDMOD EQ STOP CALLER "},"methodIdentifiers":{"getRoute(string)":"1b5f03a6","keys(uint256)":"0cb6aaf1","routePulse(string,string,string)":"3fe8421c","routes(string)":"cffbffb5","steward()":"637eea19","totalRoutes()":"05a2d3ac"}}}}}