{"contracts/starline/StarlineBeacon.sol":{"StarlineBeacon":{"abi":[{"inputs":[],"stateMutability":"nonpayable","type":"constructor"},{"anonymous":false,"inputs":[{"indexed":true,"internalType":"uint256","name":"id","type":"uint256"},{"indexed":false,"internalType":"string","name":"signal","type":"string"},{"indexed":false,"internalType":"string","name":"target","type":"string"},{"indexed":false,"internalType":"uint256","name":"pulse","type":"uint256"}],"name":"BeaconEmitted","type":"event"},{"inputs":[],"name":"beaconCount","outputs":[{"internalType":"uint256","name":"","type":"uint256"}],"stateMutability":"view","type":"function"},{"inputs":[{"internalType":"uint256","name":"","type":"uint256"}],"name":"beacons","outputs":[{"internalType":"string","name":"signal","type":"string"},{"internalType":"string","name":"target","type":"string"},{"internalType":"uint256","name":"pulse","type":"uint256"}],"stateMutability":"view","type":"function"},{"inputs":[{"internalType":"string","name":"signal","type":"string"},{"internalType":"string","name":"target","type":"string"},{"internalType":"uint256","name":"pulse","type":"uint256"}],"name":"emitBeacon","outputs":[],"stateMutability":"nonpayable","type":"function"},{"inputs":[{"internalType":"uint256","name":"id","type":"uint256"}],"name":"getBeacon","outputs":[{"internalType":"string","name":"","type":"string"},{"internalType":"string","name":"","type":"string"},{"internalType":"uint256","name":"","type":"uint256"}],"stateMutability":"view","type":"function"},{"inputs":[],"name":"steward","outputs":[{"internalType":"address","name":"","type":"address"}],"stateMutability":"view","type":"function"}],"evm":{"bytecode":{"linkReferences":{},"object":"6080806040523461002857600080546001600160a01b0319163317905561078e908161002e8239f35b600080fdfe608080604052600436101561001357600080fd5b60003560e01c90816319a6e5931461015757508063637eea191461012e57806367fdf789146100e45780637201fa80146100c6576390caecc21461005657600080fd5b346100c15760203660031901126100c157600435600052600160205260406000206040516100838161059e565b61008c826105dc565b81526100bd600261009f600185016105dc565b938460208501520154918260408201525191604051938493846106c2565b0390f35b600080fd5b346100c15760003660031901126100c1576020600254604051908152f35b346100c15760203660031901126100c1576004356000526001602052604060002061010e816105dc565b6100bd600261011f600185016105dc565b930154604051938493846106c2565b346100c15760003660031901126100c1576000546040516001600160a01b039091168152602090f35b346100c15760603660031901126100c15760043567ffffffffffffffff81116100c157610188903690600401610536565b9060243567ffffffffffffffff81116100c1576101a9903690600401610536565b60005491949093916001600160a01b03163303610506575060025493600185018095116104f05784600255604051946101e18661059e565b6101ec3684866106f0565b86526101f93686846106f0565b6020870152604435604087015260005260016020526040600020855180519067ffffffffffffffff82116104195781906102338454610564565b601f81116104a0575b50602090601f831160011461043a5760009261042f575b50508160011b916000199060031b1c19161781555b602086015195865167ffffffffffffffff81116104195761028c6001840154610564565b601f81116103d2575b506020601f821160011461033957610321949392826002936040937f038ed92efe1ca6efdfff18fc5a8186c66fd4c3bfc8d7ddb9cd77472167f24d569b9c60009261032e575b50508160011b916000199060031b1c19161760018501555b015191015560025495610313604051958695606087526060870191610737565b918483036020860152610737565b60443560408301520390a2005b015190508c806102db565b601f198216986001850160005260206000209960005b8181106103ba5750837f038ed92efe1ca6efdfff18fc5a8186c66fd4c3bfc8d7ddb9cd77472167f24d569a9b60409461032199989794600297600195106103a1575b505050811b0160018501556102f3565b015160001960f88460031b161c191690558c8080610391565b838301518c556001909b019a6020938401930161034f565b600184016000526020600020601f830160051c810160208410610412575b601f830160051c82018110610406575050610295565b600081556001016103f0565b50806103f0565b634e487b7160e01b600052604160045260246000fd5b015190508880610253565b6000858152602081209350601f198516905b818110610488575090846001959493921061046f575b505050811b018155610268565b015160001960f88460031b161c19169055888080610462565b9293602060018192878601518155019501930161044c565b909150836000526020600020601f840160051c8101602085106104e9575b90849392915b601f830160051c820181106104da57505061023c565b600081558594506001016104c4565b50806104be565b634e487b7160e01b600052601160045260246000fd5b62461bcd60e51b815260206004820152600b60248201526a139bdd081cdd195dd85c9960aa1b6044820152606490fd5b9181601f840112156100c15782359167ffffffffffffffff83116100c157602083818601950101116100c157565b90600182811c92168015610594575b602083101461057e57565b634e487b7160e01b600052602260045260246000fd5b91607f1691610573565b6060810190811067ffffffffffffffff82111761041957604052565b90601f8019910116810190811067ffffffffffffffff82111761041957604052565b90604051918260008254926105f084610564565b90818452600194858116908160001461065f575060011461061c575b505061061a925003836105ba565b565b9093915060005260209081600020936000915b81831061064757505061061a9350820101388061060c565b8554888401850152948501948794509183019161062f565b91505061061a94506020925060ff191682840152151560051b820101388061060c565b919082519283825260005b8481106106ae575050826000602080949584010152601f8019910116010190565b60208183018101518483018201520161068d565b9392916106eb906106dd604093606088526060880190610682565b908682036020880152610682565b930152565b92919267ffffffffffffffff8211610419576040519161071a601f8201601f1916602001846105ba565b8294818452818301116100c1578281602093846000960137010152565b908060209392818452848401376000828201840152601f01601f191601019056fea2646970667358221220302c63d3f7163c291e7776e21ad6777e6e07025f327c78da0b84cb0bf43fde6864736f6c63430008140033","opcodes":"PUSH1 0x80 DUP1 PUSH1 0x40 MSTORE CALLVALUE PUSH2 0x28 JUMPI PUSH1 0x0 DUP1 SLOAD PUSH1 0x1 PUSH1 0x1 PUSH1 0xA0 SHL SUB NOT AND CALLER OR SWAP1 SSTORE PUSH2 0x78E SWAP1 DUP2 PUSH2 0x2E DUP3 CODECOPY RETURN JUMPDEST PUSH1 0x0 DUP1 REVERT INVALID PUSH1 0x80 DUP1 PUSH1 0x40 MSTORE PUSH1 0x4 CALLDATASIZE LT ISZERO PUSH2 0x13 JUMPI PUSH1 0x0 DUP1 REVERT JUMPDEST PUSH1 0x0 CALLDATALOAD PUSH1 0xE0 SHR SWAP1 DUP2 PUSH4 0x19A6E593 EQ PUSH2 0x157 JUMPI POP DUP1 PUSH4 0x637EEA19 EQ PUSH2 0x12E JUMPI DUP1 PUSH4 0x67FDF789 EQ PUSH2 0xE4 JUMPI DUP1 PUSH4 0x7201FA80 EQ PUSH2 0xC6 JUMPI PUSH4 0x90CAECC2 EQ PUSH2 0x56 JUMPI PUSH1 0x0 DUP1 REVERT JUMPDEST CALLVALUE PUSH2 0xC1 JUMPI PUSH1 0x20 CALLDATASIZE PUSH1 0x3 NOT ADD SLT PUSH2 0xC1 JUMPI PUSH1 0x4 CALLDATALOAD PUSH1 0x0 MSTORE PUSH1 0x1 PUSH1 0x20 MSTORE PUSH1 0x40 PUSH1 0x0 KECCAK256 PUSH1 0x40 MLOAD PUSH2 0x83 DUP2 PUSH2 0x59E JUMP JUMPDEST PUSH2 0x8C DUP3 PUSH2 0x5DC JUMP JUMPDEST DUP2 MSTORE PUSH2 0xBD PUSH1 0x2 PUSH2 0x9F PUSH1 0x1 DUP6 ADD PUSH2 0x5DC JUMP JUMPDEST SWAP4 DUP5 PUSH1 0x20 DUP6 ADD MSTORE ADD SLOAD SWAP2 DUP3 PUSH1 0x40 DUP3 ADD MSTORE MLOAD SWAP2 PUSH1 0x40 MLOAD SWAP4 DUP5 SWAP4 DUP5 PUSH2 0x6C2 JUMP JUMPDEST SUB SWAP1 RETURN JUMPDEST PUSH1 0x0 DUP1 REVERT JUMPDEST CALLVALUE PUSH2 0xC1 JUMPI PUSH1 0x0 CALLDATASIZE PUSH1 0x3 NOT ADD SLT PUSH2 0xC1 JUMPI PUSH1 0x20 PUSH1 0x2 SLOAD PUSH1 0x40 MLOAD SWAP1 DUP2 MSTORE RETURN JUMPDEST CALLVALUE PUSH2 0xC1 JUMPI PUSH1 0x20 CALLDATASIZE PUSH1 0x3 NOT ADD SLT PUSH2 0xC1 JUMPI PUSH1 0x4 CALLDATALOAD PUSH1 0x0 MSTORE PUSH1 0x1 PUSH1 0x20 MSTORE PUSH1 0x40 PUSH1 0x0 KECCAK256 PUSH2 0x10E DUP2 PUSH2 0x5DC JUMP JUMPDEST PUSH2 0xBD PUSH1 0x2 PUSH2 0x11F PUSH1 0x1 DUP6 ADD PUSH2 0x5DC JUMP JUMPDEST SWAP4 ADD SLOAD PUSH1 0x40 MLOAD SWAP4 DUP5 SWAP4 DUP5 PUSH2 0x6C2 JUMP JUMPDEST CALLVALUE PUSH2 0xC1 JUMPI PUSH1 0x0 CALLDATASIZE PUSH1 0x3 NOT ADD SLT PUSH2 0xC1 JUMPI PUSH1 0x0 SLOAD PUSH1 0x40 MLOAD PUSH1 0x1 PUSH1 0x1 PUSH1 0xA0 SHL SUB SWAP1 SWAP2 AND DUP2 MSTORE PUSH1 0x20 SWAP1 RETURN JUMPDEST CALLVALUE PUSH2 0xC1 JUMPI PUSH1 0x60 CALLDATASIZE PUSH1 0x3 NOT ADD SLT PUSH2 0xC1 JUMPI PUSH1 0x4 CALLDATALOAD PUSH8 0xFFFFFFFFFFFFFFFF DUP2 GT PUSH2 0xC1 JUMPI PUSH2 0x188 SWAP1 CALLDATASIZE SWAP1 PUSH1 0x4 ADD PUSH2 0x536 JUMP JUMPDEST SWAP1 PUSH1 0x24 CALLDATALOAD PUSH8 0xFFFFFFFFFFFFFFFF DUP2 GT PUSH2 0xC1 JUMPI PUSH2 0x1A9 SWAP1 CALLDATASIZE SWAP1 PUSH1 0x4 ADD PUSH2 0x536 JUMP JUMPDEST PUSH1 0x0 SLOAD SWAP2 SWAP5 SWAP1 SWAP4 SWAP2 PUSH1 0x1 PUSH1 0x1 PUSH1 0xA0 SHL SUB AND CALLER SUB PUSH2 0x506 JUMPI POP PUSH1 0x2 SLOAD SWAP4 PUSH1 0x1 DUP6 ADD DUP1 SWAP6 GT PUSH2 0x4F0 JUMPI DUP5 PUSH1 0x2 SSTORE PUSH1 0x40 MLOAD SWAP5 PUSH2 0x1E1 DUP7 PUSH2 0x59E JUMP JUMPDEST PUSH2 0x1EC CALLDATASIZE DUP5 DUP7 PUSH2 0x6F0 JUMP JUMPDEST DUP7 MSTORE PUSH2 0x1F9 CALLDATASIZE DUP7 DUP5 PUSH2 0x6F0 JUMP JUMPDEST PUSH1 0x20 DUP8 ADD MSTORE PUSH1 0x44 CALLDATALOAD PUSH1 0x40 DUP8 ADD MSTORE PUSH1 0x0 MSTORE PUSH1 0x1 PUSH1 0x20 MSTORE PUSH1 0x40 PUSH1 0x0 KECCAK256 DUP6 MLOAD DUP1 MLOAD SWAP1 PUSH8 0xFFFFFFFFFFFFFFFF DUP3 GT PUSH2 0x419 JUMPI DUP2 SWAP1 PUSH2 0x233 DUP5 SLOAD PUSH2 0x564 JUMP JUMPDEST PUSH1 0x1F DUP2 GT PUSH2 0x4A0 JUMPI JUMPDEST POP PUSH1 0x20 SWAP1 PUSH1 0x1F DUP4 GT PUSH1 0x1 EQ PUSH2 0x43A JUMPI PUSH1 0x0 SWAP3 PUSH2 0x42F JUMPI JUMPDEST POP POP DUP2 PUSH1 0x1 SHL SWAP2 PUSH1 0x0 NOT SWAP1 PUSH1 0x3 SHL SHR NOT AND OR DUP2 SSTORE JUMPDEST PUSH1 0x20 DUP7 ADD MLOAD SWAP6 DUP7 MLOAD PUSH8 0xFFFFFFFFFFFFFFFF DUP2 GT PUSH2 0x419 JUMPI PUSH2 0x28C PUSH1 0x1 DUP5 ADD SLOAD PUSH2 0x564 JUMP JUMPDEST PUSH1 0x1F DUP2 GT PUSH2 0x3D2 JUMPI JUMPDEST POP PUSH1 0x20 PUSH1 0x1F DUP3 GT PUSH1 0x1 EQ PUSH2 0x339 JUMPI PUSH2 0x321 SWAP5 SWAP4 SWAP3 DUP3 PUSH1 0x2 SWAP4 PUSH1 0x40 SWAP4 PUSH32 0x38ED92EFE1CA6EFDFFF18FC5A8186C66FD4C3BFC8D7DDB9CD77472167F24D56 SWAP12 SWAP13 PUSH1 0x0 SWAP3 PUSH2 0x32E JUMPI JUMPDEST POP POP DUP2 PUSH1 0x1 SHL SWAP2 PUSH1 0x0 NOT SWAP1 PUSH1 0x3 SHL SHR NOT AND OR PUSH1 0x1 DUP6 ADD SSTORE JUMPDEST ADD MLOAD SWAP2 ADD SSTORE PUSH1 0x2 SLOAD SWAP6 PUSH2 0x313 PUSH1 0x40 MLOAD SWAP6 DUP7 SWAP6 PUSH1 0x60 DUP8 MSTORE PUSH1 0x60 DUP8 ADD SWAP2 PUSH2 0x737 JUMP JUMPDEST SWAP2 DUP5 DUP4 SUB PUSH1 0x20 DUP7 ADD MSTORE PUSH2 0x737 JUMP JUMPDEST PUSH1 0x44 CALLDATALOAD PUSH1 0x40 DUP4 ADD MSTORE SUB SWAP1 LOG2 STOP JUMPDEST ADD MLOAD SWAP1 POP DUP13 DUP1 PUSH2 0x2DB JUMP JUMPDEST PUSH1 0x1F NOT DUP3 AND SWAP9 PUSH1 0x1 DUP6 ADD PUSH1 0x0 MSTORE PUSH1 0x20 PUSH1 0x0 KECCAK256 SWAP10 PUSH1 0x0 JUMPDEST DUP2 DUP2 LT PUSH2 0x3BA JUMPI POP DUP4 PUSH32 0x38ED92EFE1CA6EFDFFF18FC5A8186C66FD4C3BFC8D7DDB9CD77472167F24D56 SWAP11 SWAP12 PUSH1 0x40 SWAP5 PUSH2 0x321 SWAP10 SWAP9 SWAP8 SWAP5 PUSH1 0x2 SWAP8 PUSH1 0x1 SWAP6 LT PUSH2 0x3A1 JUMPI JUMPDEST POP POP POP DUP2 SHL ADD PUSH1 0x1 DUP6 ADD SSTORE PUSH2 0x2F3 JUMP JUMPDEST ADD MLOAD PUSH1 0x0 NOT PUSH1 0xF8 DUP5 PUSH1 0x3 SHL AND SHR NOT AND SWAP1 SSTORE DUP13 DUP1 DUP1 PUSH2 0x391 JUMP JUMPDEST DUP4 DUP4 ADD MLOAD DUP13 SSTORE PUSH1 0x1 SWAP1 SWAP12 ADD SWAP11 PUSH1 0x20 SWAP4 DUP5 ADD SWAP4 ADD PUSH2 0x34F JUMP JUMPDEST PUSH1 0x1 DUP5 ADD PUSH1 0x0 MSTORE PUSH1 0x20 PUSH1 0x0 KECCAK256 PUSH1 0x1F DUP4 ADD PUSH1 0x5 SHR DUP2 ADD PUSH1 0x20 DUP5 LT PUSH2 0x412 JUMPI JUMPDEST PUSH1 0x1F DUP4 ADD PUSH1 0x5 SHR DUP3 ADD DUP2 LT PUSH2 0x406 JUMPI POP POP PUSH2 0x295 JUMP JUMPDEST PUSH1 0x0 DUP2 SSTORE PUSH1 0x1 ADD PUSH2 0x3F0 JUMP JUMPDEST POP DUP1 PUSH2 0x3F0 JUMP JUMPDEST PUSH4 0x4E487B71 PUSH1 0xE0 SHL PUSH1 0x0 MSTORE PUSH1 0x41 PUSH1 0x4 MSTORE PUSH1 0x24 PUSH1 0x0 REVERT JUMPDEST ADD MLOAD SWAP1 POP DUP9 DUP1 PUSH2 0x253 JUMP JUMPDEST PUSH1 0x0 DUP6 DUP2 MSTORE PUSH1 0x20 DUP2 KECCAK256 SWAP4 POP PUSH1 0x1F NOT DUP6 AND SWAP1 JUMPDEST DUP2 DUP2 LT PUSH2 0x488 JUMPI POP SWAP1 DUP5 PUSH1 0x1 SWAP6 SWAP5 SWAP4 SWAP3 LT PUSH2 0x46F JUMPI JUMPDEST POP POP POP DUP2 SHL ADD DUP2 SSTORE PUSH2 0x268 JUMP JUMPDEST ADD MLOAD PUSH1 0x0 NOT PUSH1 0xF8 DUP5 PUSH1 0x3 SHL AND SHR NOT AND SWAP1 SSTORE DUP9 DUP1 DUP1 PUSH2 0x462 JUMP JUMPDEST SWAP3 SWAP4 PUSH1 0x20 PUSH1 0x1 DUP2 SWAP3 DUP8 DUP7 ADD MLOAD DUP2 SSTORE ADD SWAP6 ADD SWAP4 ADD PUSH2 0x44C JUMP JUMPDEST SWAP1 SWAP2 POP DUP4 PUSH1 0x0 MSTORE PUSH1 0x20 PUSH1 0x0 KECCAK256 PUSH1 0x1F DUP5 ADD PUSH1 0x5 SHR DUP2 ADD PUSH1 0x20 DUP6 LT PUSH2 0x4E9 JUMPI JUMPDEST SWAP1 DUP5 SWAP4 SWAP3 SWAP2 JUMPDEST PUSH1 0x1F DUP4 ADD PUSH1 0x5 SHR DUP3 ADD DUP2 LT PUSH2 0x4DA JUMPI POP POP PUSH2 0x23C JUMP JUMPDEST PUSH1 0x0 DUP2 SSTORE DUP6 SWAP5 POP PUSH1 0x1 ADD PUSH2 0x4C4 JUMP JUMPDEST POP DUP1 PUSH2 0x4BE JUMP JUMPDEST PUSH4 0x4E487B71 PUSH1 0xE0 SHL PUSH1 0x0 MSTORE PUSH1 0x11 PUSH1 0x4 MSTORE PUSH1 0x24 PUSH1 0x0 REVERT JUMPDEST PUSH3 0x461BCD PUSH1 0xE5 SHL DUP2 MSTORE PUSH1 0x20 PUSH1 0x4 DUP3 ADD MSTORE PUSH1 0xB PUSH1 0x24 DUP3 ADD MSTORE PUSH11 0x139BDD081CDD195DD85C99 PUSH1 0xAA SHL PUSH1 0x44 DUP3 ADD MSTORE PUSH1 0x64 SWAP1 REVERT JUMPDEST SWAP2 DUP2 PUSH1 0x1F DUP5 ADD SLT ISZERO PUSH2 0xC1 JUMPI DUP3 CALLDATALOAD SWAP2 PUSH8 0xFFFFFFFFFFFFFFFF DUP4 GT PUSH2 0xC1 JUMPI PUSH1 0x20 DUP4 DUP2 DUP7 ADD SWAP6 ADD ADD GT PUSH2 0xC1 JUMPI JUMP JUMPDEST SWAP1 PUSH1 0x1 DUP3 DUP2 SHR SWAP3 AND DUP1 ISZERO PUSH2 0x594 JUMPI JUMPDEST PUSH1 0x20 DUP4 LT EQ PUSH2 0x57E JUMPI JUMP JUMPDEST PUSH4 0x4E487B71 PUSH1 0xE0 SHL PUSH1 0x0 MSTORE PUSH1 0x22 PUSH1 0x4 MSTORE PUSH1 0x24 PUSH1 0x0 REVERT JUMPDEST SWAP2 PUSH1 0x7F AND SWAP2 PUSH2 0x573 JUMP JUMPDEST PUSH1 0x60 DUP2 ADD SWAP1 DUP2 LT PUSH8 0xFFFFFFFFFFFFFFFF DUP3 GT OR PUSH2 0x419 JUMPI PUSH1 0x40 MSTORE JUMP JUMPDEST SWAP1 PUSH1 0x1F DUP1 NOT SWAP2 ADD AND DUP2 ADD SWAP1 DUP2 LT PUSH8 0xFFFFFFFFFFFFFFFF DUP3 GT OR PUSH2 0x419 JUMPI PUSH1 0x40 MSTORE JUMP JUMPDEST SWAP1 PUSH1 0x40 MLOAD SWAP2 DUP3 PUSH1 0x0 DUP3 SLOAD SWAP3 PUSH2 0x5F0 DUP5 PUSH2 0x564 JUMP JUMPDEST SWAP1 DUP2 DUP5 MSTORE PUSH1 0x1 SWAP5 DUP6 DUP2 AND SWAP1 DUP2 PUSH1 0x0 EQ PUSH2 0x65F JUMPI POP PUSH1 0x1 EQ PUSH2 0x61C JUMPI JUMPDEST POP POP PUSH2 0x61A SWAP3 POP SUB DUP4 PUSH2 0x5BA JUMP JUMPDEST JUMP JUMPDEST SWAP1 SWAP4 SWAP2 POP PUSH1 0x0 MSTORE PUSH1 0x20 SWAP1 DUP2 PUSH1 0x0 KECCAK256 SWAP4 PUSH1 0x0 SWAP2 JUMPDEST DUP2 DUP4 LT PUSH2 0x647 JUMPI POP POP PUSH2 0x61A SWAP4 POP DUP3 ADD ADD CODESIZE DUP1 PUSH2 0x60C JUMP JUMPDEST DUP6 SLOAD DUP9 DUP5 ADD DUP6 ADD MSTORE SWAP5 DUP6 ADD SWAP5 DUP8 SWAP5 POP SWAP2 DUP4 ADD SWAP2 PUSH2 0x62F JUMP JUMPDEST SWAP2 POP POP PUSH2 0x61A SWAP5 POP PUSH1 0x20 SWAP3 POP PUSH1 0xFF NOT AND DUP3 DUP5 ADD MSTORE ISZERO ISZERO PUSH1 0x5 SHL DUP3 ADD ADD CODESIZE DUP1 PUSH2 0x60C JUMP JUMPDEST SWAP2 SWAP1 DUP3 MLOAD SWAP3 DUP4 DUP3 MSTORE PUSH1 0x0 JUMPDEST DUP5 DUP2 LT PUSH2 0x6AE JUMPI POP POP DUP3 PUSH1 0x0 PUSH1 0x20 DUP1 SWAP5 SWAP6 DUP5 ADD ADD MSTORE PUSH1 0x1F DUP1 NOT SWAP2 ADD AND ADD ADD SWAP1 JUMP JUMPDEST PUSH1 0x20 DUP2 DUP4 ADD DUP2 ADD MLOAD DUP5 DUP4 ADD DUP3 ADD MSTORE ADD PUSH2 0x68D JUMP JUMPDEST SWAP4 SWAP3 SWAP2 PUSH2 0x6EB SWAP1 PUSH2 0x6DD PUSH1 0x40 SWAP4 PUSH1 0x60 DUP9 MSTORE PUSH1 0x60 DUP9 ADD SWAP1 PUSH2 0x682 JUMP JUMPDEST SWAP1 DUP7 DUP3 SUB PUSH1 0x20 DUP9 ADD MSTORE PUSH2 0x682 JUMP JUMPDEST SWAP4 ADD MSTORE JUMP JUMPDEST SWAP3 SWAP2 SWAP3 PUSH8 0xFFFFFFFFFFFFFFFF DUP3 GT PUSH2 0x419 JUMPI PUSH1 0x40 MLOAD SWAP2 PUSH2 0x71A PUSH1 0x1F DUP3 ADD PUSH1 0x1F NOT AND PUSH1 0x20 ADD DUP5 PUSH2 0x5BA JUMP JUMPDEST DUP3 SWAP5 DUP2 DUP5 MSTORE DUP2 DUP4 ADD GT PUSH2 0xC1 JUMPI DUP3 DUP2 PUSH1 0x20 SWAP4 DUP5 PUSH1 0x0 SWAP7 ADD CALLDATACOPY ADD ADD MSTORE JUMP JUMPDEST SWAP1 DUP1 PUSH1 0x20 SWAP4 SWAP3 DUP2 DUP5 MSTORE DUP5 DUP5 ADD CALLDATACOPY PUSH1 0x0 DUP3 DUP3 ADD DUP5 ADD MSTORE PUSH1 0x1F ADD PUSH1 0x1F NOT AND ADD ADD SWAP1 JUMP INVALID LOG2 PUSH5 0x6970667358 0x22 SLT KECCAK256 ADDRESS 0x2C PUSH4 0xD3F7163C 0x29 0x1E PUSH24 0x76E21AD6777E6E07025F327C78DA0B84CB0BF43FDE686473 PUSH16 0x6C634300081400330000000000000000 "},"methodIdentifiers":{"beaconCount()":"7201fa80","beacons(uint256)":"67fdf789","emitBeacon(string,string,uint256)":"19a6e593","getBeacon(uint256)":"90caecc2","steward()":"637eea19"}}}}}