{"contracts/starline/Starline.sol":{"Starline":{"abi":[{"inputs":[{"internalType":"string","name":"_message","type":"string"}],"stateMutability":"nonpayable","type":"constructor"},{"anonymous":false,"inputs":[{"indexed":false,"internalType":"uint256","name":"nodeId","type":"uint256"},{"indexed":false,"internalType":"string","name":"drift","type":"string"}],"name":"DriftBound","type":"event"},{"anonymous":false,"inputs":[{"indexed":false,"internalType":"string","name":"message","type":"string"}],"name":"GenesisInscribed","type":"event"},{"anonymous":false,"inputs":[{"indexed":false,"internalType":"uint256","name":"nodeId","type":"uint256"}],"name":"OrbitalNodeCrowned","type":"event"},{"anonymous":false,"inputs":[{"indexed":false,"internalType":"address","name":"registry","type":"address"}],"name":"RegistryLinked","type":"event"},{"inputs":[{"internalType":"uint256","name":"nodeId","type":"uint256"},{"internalType":"string","name":"drift","type":"string"}],"name":"bindDrift","outputs":[],"stateMutability":"nonpayable","type":"function"},{"inputs":[],"name":"crownOrbitalNode","outputs":[],"stateMutability":"nonpayable","type":"function"},{"inputs":[],"name":"genesisMessage","outputs":[{"internalType":"string","name":"","type":"string"}],"stateMutability":"view","type":"function"},{"inputs":[{"internalType":"address","name":"registry","type":"address"}],"name":"linkRegistry","outputs":[],"stateMutability":"nonpayable","type":"function"},{"inputs":[{"internalType":"uint256","name":"","type":"uint256"}],"name":"orbitalDrift","outputs":[{"internalType":"string","name":"","type":"string"}],"stateMutability":"view","type":"function"},{"inputs":[],"name":"orbitalNodeCount","outputs":[{"internalType":"uint256","name":"","type":"uint256"}],"stateMutability":"view","type":"function"},{"inputs":[],"name":"sovereignRegistry","outputs":[{"internalType":"address","name":"","type":"address"}],"stateMutability":"view","type":"function"},{"inputs":[],"name":"steward","outputs":[{"internalType":"address","name":"","type":"address"}],"stateMutability":"view","type":"function"}],"evm":{"bytecode":{"linkReferences":{},"object":"6080604052346102515761093c803803806100198161026c565b92833981019060209081818403126102515780516001600160401b0391828211610251570192601f908082860112156102515784519280841161025657601f19956100698585018816870161026c565b94808652868601938782840101116102515783876100879301610291565b600080546001600160a01b03191633178155845191821161023d57600254906001918281811c91168015610233575b8882101461021f578581116101db575b5086908584116001146101565792807ffb485781ac2136ff4d1c12e6946484006fc3bdb173d247816e577cc55930f4a6999593819360409998969361014b575b501b916000199060031b1c1916176002555b6101348551968795818752519283809288015287870190610291565b01168101030190a160405161068790816102b58239f35b880151925038610106565b90888493941660028352888320925b8181106101c657509183917ffb485781ac2136ff4d1c12e6946484006fc3bdb173d247816e577cc55930f4a69a9694604099989694106101ad575b5050811b01600255610118565b87015160001960f88460031b161c1916905538806101a0565b88830151845592850192918901918901610165565b600282528782208680860160051c8201928a8710610216575b0160051c019083905b82811061020b5750506100c6565b8381550183906101fd565b925081926101f4565b634e487b7160e01b82526022600452602482fd5b90607f16906100b6565b634e487b7160e01b81526041600452602490fd5b600080fd5b634e487b7160e01b600052604160045260246000fd5b6040519190601f01601f191682016001600160401b0381118382101761025657604052565b60005b8381106102a45750506000910152565b818101518382015260200161029456fe6040608081526004908136101561001557600080fd5b600090813560e01c806325762a811461051c5780633b769021146104f457806362f3d7301461030d578063637eea19146102e6578063bba80ad314610201578063d2ec282114610186578063e7e2d075146101685763f2e6fd7c1461007957600080fd5b3461016457602090816003193601126101605783358352838252808320815192849180546100a681610594565b80875291600191808316908115610142575060011461010a575b50505050829003601f01601f191682019267ffffffffffffffff8411838510176100f757508291826100f39252826105ce565b0390f35b634e487b7160e01b815260418552602490fd5b8752828720929350869284905b83851061012e5750505050830101388080806100c0565b805488860183015293019284908201610117565b60ff191688860152505050151560051b8401019050388080806100c0565b8280fd5b5080fd5b50346101645781600319360112610164576020906003549051908152f35b508290346101605782600319360112610160576101ad60018060a01b038454163314610617565b60035491600183018093116101ee5750816020917f2dd13ebc629392c18b42192fcc3d4d79716fc1b17e351b18ded54977afebcca09360035551908152a180f35b634e487b7160e01b845260119052602483fd5b50346101645781600319360112610164578051908260025461022281610594565b808552906001908181169081156102c8575060011461026d575b5050829003601f01601f191682019267ffffffffffffffff8411838510176100f757508291826100f39252826105ce565b6002865290915084907f405787fa12a823e0f2b7631cc41b3ba8828b3321ca811111fa75cd3aa3bb5ace5b8383106102af57505060209150830101388061023c565b81816020929493945483858a0101520191019190610298565b9150506020925060ff191682850152151560051b830101388061023c565b5034610164578160031936011261016457905490516001600160a01b039091168152602090f35b509134610164578260031936011261016457803560249384359467ffffffffffffffff918287116104f057366023880112156104f057868501359283116104f057368284890101116104f05761036d60018060a01b038754163314610617565b83865260209485528086206103828154610594565b601f81116104ad575b5086601f851160011461041c57978480949293819460609897858c9d7fb6d5188f57f4bbe807305eefcfe29db9904ee88d3650ea85d4c7de8822fa72299d9261040f575b50508360011b906000198560031b1c19161790555b808051998a98895288015286015201848401378181018301869052601f01601f19168101030190a180f35b86010135905085386103cf565b81885286882090601f198616895b8181106104945750938695937fb6d5188f57f4bbe807305eefcfe29db9904ee88d3650ea85d4c7de8822fa72299a9b938796938760609b9a9510610478575b5050600183811b0190556103e4565b8501860135600019600386901b60f8161c191690553880610469565b91928960018192898f880101358155019401920161042a565b818852868820601f860160051c8101918887106104e6575b601f0160051c01905b8181106104db575061038b565b8881556001016104ce565b90915081906104c5565b8580fd5b503461016457816003193601126101645760015490516001600160a01b039091168152602090f35b508234610160576020366003190112610160576001600160a01b03903581811690819003610590577f86bccda1e3bbbe01513f20b182842ffb6ee13afdbf54c18a2fc6bb8148469cdf926105766020938654163314610617565b600180546001600160a01b0319168317905551908152a180f35b8380fd5b90600182811c921680156105c4575b60208310146105ae57565b634e487b7160e01b600052602260045260246000fd5b91607f16916105a3565b6020808252825181830181905290939260005b82811061060357505060409293506000838284010152601f8019910116010190565b8181018601518482016040015285016105e1565b1561061e57565b60405162461bcd60e51b815260206004820152600b60248201526a139bdd081cdd195dd85c9960aa1b6044820152606490fdfea26469706673582212206d7488e710d46d91b18ab574cc8dec0d6dba93592d782dfc5e8c31d48e9bc49a64736f6c63430008140033","opcodes":"PUSH1 0x80 PUSH1 0x40 MSTORE CALLVALUE PUSH2 0x251 JUMPI PUSH2 0x93C DUP1 CODESIZE SUB DUP1 PUSH2 0x19 DUP2 PUSH2 0x26C JUMP JUMPDEST SWAP3 DUP4 CODECOPY DUP2 ADD SWAP1 PUSH1 0x20 SWAP1 DUP2 DUP2 DUP5 SUB SLT PUSH2 0x251 JUMPI DUP1 MLOAD PUSH1 0x1 PUSH1 0x1 PUSH1 0x40 SHL SUB SWAP2 DUP3 DUP3 GT PUSH2 0x251 JUMPI ADD SWAP3 PUSH1 0x1F SWAP1 DUP1 DUP3 DUP7 ADD SLT ISZERO PUSH2 0x251 JUMPI DUP5 MLOAD SWAP3 DUP1 DUP5 GT PUSH2 0x256 JUMPI PUSH1 0x1F NOT SWAP6 PUSH2 0x69 DUP6 DUP6 ADD DUP9 AND DUP8 ADD PUSH2 0x26C JUMP JUMPDEST SWAP5 DUP1 DUP7 MSTORE DUP7 DUP7 ADD SWAP4 DUP8 DUP3 DUP5 ADD ADD GT PUSH2 0x251 JUMPI DUP4 DUP8 PUSH2 0x87 SWAP4 ADD PUSH2 0x291 JUMP JUMPDEST PUSH1 0x0 DUP1 SLOAD PUSH1 0x1 PUSH1 0x1 PUSH1 0xA0 SHL SUB NOT AND CALLER OR DUP2 SSTORE DUP5 MLOAD SWAP2 DUP3 GT PUSH2 0x23D JUMPI PUSH1 0x2 SLOAD SWAP1 PUSH1 0x1 SWAP2 DUP3 DUP2 DUP2 SHR SWAP2 AND DUP1 ISZERO PUSH2 0x233 JUMPI JUMPDEST DUP9 DUP3 LT EQ PUSH2 0x21F JUMPI DUP6 DUP2 GT PUSH2 0x1DB JUMPI JUMPDEST POP DUP7 SWAP1 DUP6 DUP5 GT PUSH1 0x1 EQ PUSH2 0x156 JUMPI SWAP3 DUP1 PUSH32 0xFB485781AC2136FF4D1C12E6946484006FC3BDB173D247816E577CC55930F4A6 SWAP10 SWAP6 SWAP4 DUP2 SWAP4 PUSH1 0x40 SWAP10 SWAP9 SWAP7 SWAP4 PUSH2 0x14B JUMPI JUMPDEST POP SHL SWAP2 PUSH1 0x0 NOT SWAP1 PUSH1 0x3 SHL SHR NOT AND OR PUSH1 0x2 SSTORE JUMPDEST PUSH2 0x134 DUP6 MLOAD SWAP7 DUP8 SWAP6 DUP2 DUP8 MSTORE MLOAD SWAP3 DUP4 DUP1 SWAP3 DUP9 ADD MSTORE DUP8 DUP8 ADD SWAP1 PUSH2 0x291 JUMP JUMPDEST ADD AND DUP2 ADD SUB ADD SWAP1 LOG1 PUSH1 0x40 MLOAD PUSH2 0x687 SWAP1 DUP2 PUSH2 0x2B5 DUP3 CODECOPY RETURN JUMPDEST DUP9 ADD MLOAD SWAP3 POP CODESIZE PUSH2 0x106 JUMP JUMPDEST SWAP1 DUP9 DUP5 SWAP4 SWAP5 AND PUSH1 0x2 DUP4 MSTORE DUP9 DUP4 KECCAK256 SWAP3 JUMPDEST DUP2 DUP2 LT PUSH2 0x1C6 JUMPI POP SWAP2 DUP4 SWAP2 PUSH32 0xFB485781AC2136FF4D1C12E6946484006FC3BDB173D247816E577CC55930F4A6 SWAP11 SWAP7 SWAP5 PUSH1 0x40 SWAP10 SWAP9 SWAP7 SWAP5 LT PUSH2 0x1AD JUMPI JUMPDEST POP POP DUP2 SHL ADD PUSH1 0x2 SSTORE PUSH2 0x118 JUMP JUMPDEST DUP8 ADD MLOAD PUSH1 0x0 NOT PUSH1 0xF8 DUP5 PUSH1 0x3 SHL AND SHR NOT AND SWAP1 SSTORE CODESIZE DUP1 PUSH2 0x1A0 JUMP JUMPDEST DUP9 DUP4 ADD MLOAD DUP5 SSTORE SWAP3 DUP6 ADD SWAP3 SWAP2 DUP10 ADD SWAP2 DUP10 ADD PUSH2 0x165 JUMP JUMPDEST PUSH1 0x2 DUP3 MSTORE DUP8 DUP3 KECCAK256 DUP7 DUP1 DUP7 ADD PUSH1 0x5 SHR DUP3 ADD SWAP3 DUP11 DUP8 LT PUSH2 0x216 JUMPI JUMPDEST ADD PUSH1 0x5 SHR ADD SWAP1 DUP4 SWAP1 JUMPDEST DUP3 DUP2 LT PUSH2 0x20B JUMPI POP POP PUSH2 0xC6 JUMP JUMPDEST DUP4 DUP2 SSTORE ADD DUP4 SWAP1 PUSH2 0x1FD JUMP JUMPDEST SWAP3 POP DUP2 SWAP3 PUSH2 0x1F4 JUMP JUMPDEST PUSH4 0x4E487B71 PUSH1 0xE0 SHL DUP3 MSTORE PUSH1 0x22 PUSH1 0x4 MSTORE PUSH1 0x24 DUP3 REVERT JUMPDEST SWAP1 PUSH1 0x7F AND SWAP1 PUSH2 0xB6 JUMP JUMPDEST PUSH4 0x4E487B71 PUSH1 0xE0 SHL DUP2 MSTORE PUSH1 0x41 PUSH1 0x4 MSTORE PUSH1 0x24 SWAP1 REVERT JUMPDEST PUSH1 0x0 DUP1 REVERT JUMPDEST PUSH4 0x4E487B71 PUSH1 0xE0 SHL PUSH1 0x0 MSTORE PUSH1 0x41 PUSH1 0x4 MSTORE PUSH1 0x24 PUSH1 0x0 REVERT JUMPDEST PUSH1 0x40 MLOAD SWAP2 SWAP1 PUSH1 0x1F ADD PUSH1 0x1F NOT AND DUP3 ADD PUSH1 0x1 PUSH1 0x1 PUSH1 0x40 SHL SUB DUP2 GT DUP4 DUP3 LT OR PUSH2 0x256 JUMPI PUSH1 0x40 MSTORE JUMP JUMPDEST PUSH1 0x0 JUMPDEST DUP4 DUP2 LT PUSH2 0x2A4 JUMPI POP POP PUSH1 0x0 SWAP2 ADD MSTORE JUMP JUMPDEST DUP2 DUP2 ADD MLOAD DUP4 DUP3 ADD MSTORE PUSH1 0x20 ADD PUSH2 0x294 JUMP INVALID PUSH1 0x40 PUSH1 0x80 DUP2 MSTORE PUSH1 0x4 SWAP1 DUP2 CALLDATASIZE LT ISZERO PUSH2 0x15 JUMPI PUSH1 0x0 DUP1 REVERT JUMPDEST PUSH1 0x0 SWAP1 DUP2 CALLDATALOAD PUSH1 0xE0 SHR DUP1 PUSH4 0x25762A81 EQ PUSH2 0x51C JUMPI DUP1 PUSH4 0x3B769021 EQ PUSH2 0x4F4 JUMPI DUP1 PUSH4 0x62F3D730 EQ PUSH2 0x30D JUMPI DUP1 PUSH4 0x637EEA19 EQ PUSH2 0x2E6 JUMPI DUP1 PUSH4 0xBBA80AD3 EQ PUSH2 0x201 JUMPI DUP1 PUSH4 0xD2EC2821 EQ PUSH2 0x186 JUMPI DUP1 PUSH4 0xE7E2D075 EQ PUSH2 0x168 JUMPI PUSH4 0xF2E6FD7C EQ PUSH2 0x79 JUMPI PUSH1 0x0 DUP1 REVERT JUMPDEST CALLVALUE PUSH2 0x164 JUMPI PUSH1 0x20 SWAP1 DUP2 PUSH1 0x3 NOT CALLDATASIZE ADD SLT PUSH2 0x160 JUMPI DUP4 CALLDATALOAD DUP4 MSTORE DUP4 DUP3 MSTORE DUP1 DUP4 KECCAK256 DUP2 MLOAD SWAP3 DUP5 SWAP2 DUP1 SLOAD PUSH2 0xA6 DUP2 PUSH2 0x594 JUMP JUMPDEST DUP1 DUP8 MSTORE SWAP2 PUSH1 0x1 SWAP2 DUP1 DUP4 AND SWAP1 DUP2 ISZERO PUSH2 0x142 JUMPI POP PUSH1 0x1 EQ PUSH2 0x10A JUMPI JUMPDEST POP POP POP POP DUP3 SWAP1 SUB PUSH1 0x1F ADD PUSH1 0x1F NOT AND DUP3 ADD SWAP3 PUSH8 0xFFFFFFFFFFFFFFFF DUP5 GT DUP4 DUP6 LT OR PUSH2 0xF7 JUMPI POP DUP3 SWAP2 DUP3 PUSH2 0xF3 SWAP3 MSTORE DUP3 PUSH2 0x5CE JUMP JUMPDEST SUB SWAP1 RETURN JUMPDEST PUSH4 0x4E487B71 PUSH1 0xE0 SHL DUP2 MSTORE PUSH1 0x41 DUP6 MSTORE PUSH1 0x24 SWAP1 REVERT JUMPDEST DUP8 MSTORE DUP3 DUP8 KECCAK256 SWAP3 SWAP4 POP DUP7 SWAP3 DUP5 SWAP1 JUMPDEST DUP4 DUP6 LT PUSH2 0x12E JUMPI POP POP POP POP DUP4 ADD ADD CODESIZE DUP1 DUP1 DUP1 PUSH2 0xC0 JUMP JUMPDEST DUP1 SLOAD DUP9 DUP7 ADD DUP4 ADD MSTORE SWAP4 ADD SWAP3 DUP5 SWAP1 DUP3 ADD PUSH2 0x117 JUMP JUMPDEST PUSH1 0xFF NOT AND DUP9 DUP7 ADD MSTORE POP POP POP ISZERO ISZERO PUSH1 0x5 SHL DUP5 ADD ADD SWAP1 POP CODESIZE DUP1 DUP1 DUP1 PUSH2 0xC0 JUMP JUMPDEST DUP3 DUP1 REVERT JUMPDEST POP DUP1 REVERT JUMPDEST POP CALLVALUE PUSH2 0x164 JUMPI DUP2 PUSH1 0x3 NOT CALLDATASIZE ADD SLT PUSH2 0x164 JUMPI PUSH1 0x20 SWAP1 PUSH1 0x3 SLOAD SWAP1 MLOAD SWAP1 DUP2 MSTORE RETURN JUMPDEST POP DUP3 SWAP1 CALLVALUE PUSH2 0x160 JUMPI DUP3 PUSH1 0x3 NOT CALLDATASIZE ADD SLT PUSH2 0x160 JUMPI PUSH2 0x1AD PUSH1 0x1 DUP1 PUSH1 0xA0 SHL SUB DUP5 SLOAD AND CALLER EQ PUSH2 0x617 JUMP JUMPDEST PUSH1 0x3 SLOAD SWAP2 PUSH1 0x1 DUP4 ADD DUP1 SWAP4 GT PUSH2 0x1EE JUMPI POP DUP2 PUSH1 0x20 SWAP2 PUSH32 0x2DD13EBC629392C18B42192FCC3D4D79716FC1B17E351B18DED54977AFEBCCA0 SWAP4 PUSH1 0x3 SSTORE MLOAD SWAP1 DUP2 MSTORE LOG1 DUP1 RETURN JUMPDEST PUSH4 0x4E487B71 PUSH1 0xE0 SHL DUP5 MSTORE PUSH1 0x11 SWAP1 MSTORE PUSH1 0x24 DUP4 REVERT JUMPDEST POP CALLVALUE PUSH2 0x164 JUMPI DUP2 PUSH1 0x3 NOT CALLDATASIZE ADD SLT PUSH2 0x164 JUMPI DUP1 MLOAD SWAP1 DUP3 PUSH1 0x2 SLOAD PUSH2 0x222 DUP2 PUSH2 0x594 JUMP JUMPDEST DUP1 DUP6 MSTORE SWAP1 PUSH1 0x1 SWAP1 DUP2 DUP2 AND SWAP1 DUP2 ISZERO PUSH2 0x2C8 JUMPI POP PUSH1 0x1 EQ PUSH2 0x26D JUMPI JUMPDEST POP POP DUP3 SWAP1 SUB PUSH1 0x1F ADD PUSH1 0x1F NOT AND DUP3 ADD SWAP3 PUSH8 0xFFFFFFFFFFFFFFFF DUP5 GT DUP4 DUP6 LT OR PUSH2 0xF7 JUMPI POP DUP3 SWAP2 DUP3 PUSH2 0xF3 SWAP3 MSTORE DUP3 PUSH2 0x5CE JUMP JUMPDEST PUSH1 0x2 DUP7 MSTORE SWAP1 SWAP2 POP DUP5 SWAP1 PUSH32 0x405787FA12A823E0F2B7631CC41B3BA8828B3321CA811111FA75CD3AA3BB5ACE JUMPDEST DUP4 DUP4 LT PUSH2 0x2AF JUMPI POP POP PUSH1 0x20 SWAP2 POP DUP4 ADD ADD CODESIZE DUP1 PUSH2 0x23C JUMP JUMPDEST DUP2 DUP2 PUSH1 0x20 SWAP3 SWAP5 SWAP4 SWAP5 SLOAD DUP4 DUP6 DUP11 ADD ADD MSTORE ADD SWAP2 ADD SWAP2 SWAP1 PUSH2 0x298 JUMP JUMPDEST SWAP2 POP POP PUSH1 0x20 SWAP3 POP PUSH1 0xFF NOT AND DUP3 DUP6 ADD MSTORE ISZERO ISZERO PUSH1 0x5 SHL DUP4 ADD ADD CODESIZE DUP1 PUSH2 0x23C JUMP JUMPDEST POP CALLVALUE PUSH2 0x164 JUMPI DUP2 PUSH1 0x3 NOT CALLDATASIZE ADD SLT PUSH2 0x164 JUMPI SWAP1 SLOAD SWAP1 MLOAD PUSH1 0x1 PUSH1 0x1 PUSH1 0xA0 SHL SUB SWAP1 SWAP2 AND DUP2 MSTORE PUSH1 0x20 SWAP1 RETURN JUMPDEST POP SWAP2 CALLVALUE PUSH2 0x164 JUMPI DUP3 PUSH1 0x3 NOT CALLDATASIZE ADD SLT PUSH2 0x164 JUMPI DUP1 CALLDATALOAD PUSH1 0x24 SWAP4 DUP5 CALLDATALOAD SWAP5 PUSH8 0xFFFFFFFFFFFFFFFF SWAP2 DUP3 DUP8 GT PUSH2 0x4F0 JUMPI CALLDATASIZE PUSH1 0x23 DUP9 ADD SLT ISZERO PUSH2 0x4F0 JUMPI DUP7 DUP6 ADD CALLDATALOAD SWAP3 DUP4 GT PUSH2 0x4F0 JUMPI CALLDATASIZE DUP3 DUP5 DUP10 ADD ADD GT PUSH2 0x4F0 JUMPI PUSH2 0x36D PUSH1 0x1 DUP1 PUSH1 0xA0 SHL SUB DUP8 SLOAD AND CALLER EQ PUSH2 0x617 JUMP JUMPDEST DUP4 DUP7 MSTORE PUSH1 0x20 SWAP5 DUP6 MSTORE DUP1 DUP7 KECCAK256 PUSH2 0x382 DUP2 SLOAD PUSH2 0x594 JUMP JUMPDEST PUSH1 0x1F DUP2 GT PUSH2 0x4AD JUMPI JUMPDEST POP DUP7 PUSH1 0x1F DUP6 GT PUSH1 0x1 EQ PUSH2 0x41C JUMPI SWAP8 DUP5 DUP1 SWAP5 SWAP3 SWAP4 DUP2 SWAP5 PUSH1 0x60 SWAP9 SWAP8 DUP6 DUP13 SWAP14 PUSH32 0xB6D5188F57F4BBE807305EEFCFE29DB9904EE88D3650EA85D4C7DE8822FA7229 SWAP14 SWAP3 PUSH2 0x40F JUMPI JUMPDEST POP POP DUP4 PUSH1 0x1 SHL SWAP1 PUSH1 0x0 NOT DUP6 PUSH1 0x3 SHL SHR NOT AND OR SWAP1 SSTORE JUMPDEST DUP1 DUP1 MLOAD SWAP10 DUP11 SWAP9 DUP10 MSTORE DUP9 ADD MSTORE DUP7 ADD MSTORE ADD DUP5 DUP5 ADD CALLDATACOPY DUP2 DUP2 ADD DUP4 ADD DUP7 SWAP1 MSTORE PUSH1 0x1F ADD PUSH1 0x1F NOT AND DUP2 ADD SUB ADD SWAP1 LOG1 DUP1 RETURN JUMPDEST DUP7 ADD ADD CALLDATALOAD SWAP1 POP DUP6 CODESIZE PUSH2 0x3CF JUMP JUMPDEST DUP2 DUP9 MSTORE DUP7 DUP9 KECCAK256 SWAP1 PUSH1 0x1F NOT DUP7 AND DUP10 JUMPDEST DUP2 DUP2 LT PUSH2 0x494 JUMPI POP SWAP4 DUP7 SWAP6 SWAP4 PUSH32 0xB6D5188F57F4BBE807305EEFCFE29DB9904EE88D3650EA85D4C7DE8822FA7229 SWAP11 SWAP12 SWAP4 DUP8 SWAP7 SWAP4 DUP8 PUSH1 0x60 SWAP12 SWAP11 SWAP6 LT PUSH2 0x478 JUMPI JUMPDEST POP POP PUSH1 0x1 DUP4 DUP2 SHL ADD SWAP1 SSTORE PUSH2 0x3E4 JUMP JUMPDEST DUP6 ADD DUP7 ADD CALLDATALOAD PUSH1 0x0 NOT PUSH1 0x3 DUP7 SWAP1 SHL PUSH1 0xF8 AND SHR NOT AND SWAP1 SSTORE CODESIZE DUP1 PUSH2 0x469 JUMP JUMPDEST SWAP2 SWAP3 DUP10 PUSH1 0x1 DUP2 SWAP3 DUP10 DUP16 DUP9 ADD ADD CALLDATALOAD DUP2 SSTORE ADD SWAP5 ADD SWAP3 ADD PUSH2 0x42A JUMP JUMPDEST DUP2 DUP9 MSTORE DUP7 DUP9 KECCAK256 PUSH1 0x1F DUP7 ADD PUSH1 0x5 SHR DUP2 ADD SWAP2 DUP9 DUP8 LT PUSH2 0x4E6 JUMPI JUMPDEST PUSH1 0x1F ADD PUSH1 0x5 SHR ADD SWAP1 JUMPDEST DUP2 DUP2 LT PUSH2 0x4DB JUMPI POP PUSH2 0x38B JUMP JUMPDEST DUP9 DUP2 SSTORE PUSH1 0x1 ADD PUSH2 0x4CE JUMP JUMPDEST SWAP1 SWAP2 POP DUP2 SWAP1 PUSH2 0x4C5 JUMP JUMPDEST DUP6 DUP1 REVERT JUMPDEST POP CALLVALUE PUSH2 0x164 JUMPI DUP2 PUSH1 0x3 NOT CALLDATASIZE ADD SLT PUSH2 0x164 JUMPI PUSH1 0x1 SLOAD SWAP1 MLOAD PUSH1 0x1 PUSH1 0x1 PUSH1 0xA0 SHL SUB SWAP1 SWAP2 AND DUP2 MSTORE PUSH1 0x20 SWAP1 RETURN JUMPDEST POP DUP3 CALLVALUE PUSH2 0x160 JUMPI PUSH1 0x20 CALLDATASIZE PUSH1 0x3 NOT ADD SLT PUSH2 0x160 JUMPI PUSH1 0x1 PUSH1 0x1 PUSH1 0xA0 SHL SUB SWAP1 CALLDATALOAD DUP2 DUP2 AND SWAP1 DUP2 SWAP1 SUB PUSH2 0x590 JUMPI PUSH32 0x86BCCDA1E3BBBE01513F20B182842FFB6EE13AFDBF54C18A2FC6BB8148469CDF SWAP3 PUSH2 0x576 PUSH1 0x20 SWAP4 DUP7 SLOAD AND CALLER EQ PUSH2 0x617 JUMP JUMPDEST PUSH1 0x1 DUP1 SLOAD PUSH1 0x1 PUSH1 0x1 PUSH1 0xA0 SHL SUB NOT AND DUP4 OR SWAP1 SSTORE MLOAD SWAP1 DUP2 MSTORE LOG1 DUP1 RETURN JUMPDEST DUP4 DUP1 REVERT JUMPDEST SWAP1 PUSH1 0x1 DUP3 DUP2 SHR SWAP3 AND DUP1 ISZERO PUSH2 0x5C4 JUMPI JUMPDEST PUSH1 0x20 DUP4 LT EQ PUSH2 0x5AE JUMPI JUMP JUMPDEST PUSH4 0x4E487B71 PUSH1 0xE0 SHL PUSH1 0x0 MSTORE PUSH1 0x22 PUSH1 0x4 MSTORE PUSH1 0x24 PUSH1 0x0 REVERT JUMPDEST SWAP2 PUSH1 0x7F AND SWAP2 PUSH2 0x5A3 JUMP JUMPDEST PUSH1 0x20 DUP1 DUP3 MSTORE DUP3 MLOAD DUP2 DUP4 ADD DUP2 SWAP1 MSTORE SWAP1 SWAP4 SWAP3 PUSH1 0x0 JUMPDEST DUP3 DUP2 LT PUSH2 0x603 JUMPI POP POP PUSH1 0x40 SWAP3 SWAP4 POP PUSH1 0x0 DUP4 DUP3 DUP5 ADD ADD MSTORE PUSH1 0x1F DUP1 NOT SWAP2 ADD AND ADD ADD SWAP1 JUMP JUMPDEST DUP2 DUP2 ADD DUP7 ADD MLOAD DUP5 DUP3 ADD PUSH1 0x40 ADD MSTORE DUP6 ADD PUSH2 0x5E1 JUMP JUMPDEST ISZERO PUSH2 0x61E JUMPI JUMP JUMPDEST PUSH1 0x40 MLOAD PUSH3 0x461BCD PUSH1 0xE5 SHL DUP2 MSTORE PUSH1 0x20 PUSH1 0x4 DUP3 ADD MSTORE PUSH1 0xB PUSH1 0x24 DUP3 ADD MSTORE PUSH11 0x139BDD081CDD195DD85C99 PUSH1 0xAA SHL PUSH1 0x44 DUP3 ADD MSTORE PUSH1 0x64 SWAP1 REVERT INVALID LOG2 PUSH5 0x6970667358 0x22 SLT KECCAK256 PUSH14 0x7488E710D46D91B18AB574CC8DEC 0xD PUSH14 0xBA93592D782DFC5E8C31D48E9BC4 SWAP11 PUSH5 0x736F6C6343 STOP ADDMOD EQ STOP CALLER "},"methodIdentifiers":{"bindDrift(uint256,string)":"62f3d730","crownOrbitalNode()":"d2ec2821","genesisMessage()":"bba80ad3","linkRegistry(address)":"25762a81","orbitalDrift(uint256)":"f2e6fd7c","orbitalNodeCount()":"e7e2d075","sovereignRegistry()":"3b769021","steward()":"637eea19"}}}}}