{"contracts/empac/EMPAC.sol":{"EMPAC":{"abi":[{"inputs":[],"stateMutability":"nonpayable","type":"constructor"},{"anonymous":false,"inputs":[{"indexed":false,"internalType":"string","name":"name","type":"string"}],"name":"LineageEchoed","type":"event"},{"anonymous":false,"inputs":[{"indexed":false,"internalType":"string","name":"protocol","type":"string"}],"name":"MythlineCompliant","type":"event"},{"anonymous":false,"inputs":[{"indexed":false,"internalType":"string","name":"phase","type":"string"}],"name":"PhaseCleared","type":"event"},{"anonymous":false,"inputs":[{"indexed":false,"internalType":"address","name":"registry","type":"address"}],"name":"RegistryLinked","type":"event"},{"inputs":[{"internalType":"string","name":"protocol","type":"string"}],"name":"certifyMythline","outputs":[],"stateMutability":"nonpayable","type":"function"},{"inputs":[{"internalType":"string","name":"phase","type":"string"}],"name":"clearPhase","outputs":[],"stateMutability":"nonpayable","type":"function"},{"inputs":[{"internalType":"string","name":"name","type":"string"}],"name":"echoLineage","outputs":[],"stateMutability":"nonpayable","type":"function"},{"inputs":[{"internalType":"uint256","name":"index","type":"uint256"}],"name":"getLineage","outputs":[{"internalType":"string","name":"","type":"string"}],"stateMutability":"view","type":"function"},{"inputs":[{"internalType":"uint256","name":"","type":"uint256"}],"name":"lineage","outputs":[{"internalType":"string","name":"","type":"string"}],"stateMutability":"view","type":"function"},{"inputs":[{"internalType":"address","name":"registry","type":"address"}],"name":"linkRegistry","outputs":[],"stateMutability":"nonpayable","type":"function"},{"inputs":[{"internalType":"string","name":"","type":"string"}],"name":"mythlineCompliant","outputs":[{"internalType":"bool","name":"","type":"bool"}],"stateMutability":"view","type":"function"},{"inputs":[{"internalType":"string","name":"","type":"string"}],"name":"phaseClear","outputs":[{"internalType":"bool","name":"","type":"bool"}],"stateMutability":"view","type":"function"},{"inputs":[],"name":"sovereignRegistry","outputs":[{"internalType":"address","name":"","type":"address"}],"stateMutability":"view","type":"function"},{"inputs":[],"name":"steward","outputs":[{"internalType":"address","name":"","type":"address"}],"stateMutability":"view","type":"function"}],"evm":{"bytecode":{"linkReferences":{},"object":"6080806040523461002857600080546001600160a01b03191633179055610837908161002e8239f35b600080fdfe6040608081526004908136101561001557600080fd5b600091823560e01c806325762a81146104b45780633b7690211461048b57806344a15c571461045d5780635022a482146103e857806357c6cc39146103be578063637eea1914610396578063687decb7146103215780639c2d53d7146102e1578063b1ccfb661461027e5763f0ae81781461008f57600080fd5b3461027a5761009d366105fc565b9290916100b460018060a01b03865416331461079f565b805468010000000000000000811015610267576100d76001918281018455610672565b9290926102555767ffffffffffffffff861161024257506100f882546106bf565b601f81116101fa575b5085601f861160011461016d579185807f68d48d77ac9afd1691627c14e54dff1f5bd2e13ecc597bdc4fce2695143b04389796959361015c958a93610162575b501b906000198760031b1c19161790555b51928392836107d9565b0390a180f35b870135925038610141565b82875260208088209190601f1988169089905b8282106101e35750509187969593917f68d48d77ac9afd1691627c14e54dff1f5bd2e13ecc597bdc4fce2695143b04389861015c9694106101c9575b505085811b019055610152565b860135600019600389901b60f8161c1916905538806101bc565b808685968294968c01358155019501930190610180565b82875260208720601f870160051c81019160208810610238575b601f0160051c019082905b82811061022d575050610101565b88815501829061021f565b9091508190610214565b634e487b7160e01b875260419052602486fd5b634e487b7160e01b8752869052602486fd5b634e487b7160e01b865260418252602486fd5b8280fd5b5091346102de5760203660031901126102de57823583548110156102da576102a590610672565b9390936102c8576102c4836102b9866106f9565b905191829182610646565b0390f35b634e487b7160e01b8252819052602490fd5b5080fd5b80fd5b5050346102da5760209060ff61030c836102fa36610563565b818551938285809451938492016105d9565b81016002815203019020541690519015158152f35b5050346102da5761015c7fe2d43c6b9d87534baddfc6d7414e1e7c790fb8bf03669af6d9fc5351e09c6bc591610356366105fc565b92909161036d60018060a01b03875416331461079f565b8051848482376020818681016002815203019020600160ff1982541617905551928392836107d9565b5050346102da57816003193601126102da57905490516001600160a01b039091168152602090f35b5091346102de5760203660031901126102de57506102b96103e26102c49335610672565b506106f9565b5050346102da5761015c7fd54185edd6135b387571508ebbf079fb432c4135ac9470b6153be5d0ff60f3d49161041d366105fc565b92909161043460018060a01b03875416331461079f565b8051848482376020818681016003815203019020600160ff1982541617905551928392836107d9565b5050346102da5760209060ff610476836102fa36610563565b81016003815203019020541690519015158152f35b5050346102da57816003193601126102da5760015490516001600160a01b039091168152602090f35b503461027a57602036600319011261027a576001600160a01b03903581811690819003610527577f86bccda1e3bbbe01513f20b182842ffb6ee13afdbf54c18a2fc6bb8148469cdf9261050d602093865416331461079f565b600180546001600160a01b0319168317905551908152a180f35b8380fd5b90601f8019910116810190811067ffffffffffffffff82111761054d57604052565b634e487b7160e01b600052604160045260246000fd5b60206003198201126105d45767ffffffffffffffff6004358181116105d457826023820112156105d457806004013591821161054d57604051926105b1601f8401601f19166020018561052b565b828452602483830101116105d45781600092602460209301838601378301015290565b600080fd5b60005b8381106105ec5750506000910152565b81810151838201526020016105dc565b9060206003198301126105d45760043567ffffffffffffffff928382116105d457806023830112156105d45781600401359384116105d457602484830101116105d4576024019190565b6040916020825261066681518092816020860152602086860191016105d9565b601f01601f1916010190565b6004548110156106a95760046000527f8a35acfbc15ff81a39ae7d344fd709f28e8600b4aa8c65c6b64bfe7fe36bd19b0190600090565b634e487b7160e01b600052603260045260246000fd5b90600182811c921680156106ef575b60208310146106d957565b634e487b7160e01b600052602260045260246000fd5b91607f16916106ce565b906040519182600082549261070d846106bf565b90818452600194858116908160001461077c5750600114610739575b50506107379250038361052b565b565b9093915060005260209081600020936000915b81831061076457505061073793508201013880610729565b8554888401850152948501948794509183019161074c565b91505061073794506020925060ff191682840152151560051b8201013880610729565b156107a657565b60405162461bcd60e51b815260206004820152600b60248201526a139bdd081cdd195dd85c9960aa1b6044820152606490fd5b90918060409360208452816020850152848401376000828201840152601f01601f191601019056fea2646970667358221220c1ed85688bf1b0913dc63edbffdd83fc2b2563957fc9d2bd989221785a0892b164736f6c63430008140033","opcodes":"PUSH1 0x80 DUP1 PUSH1 0x40 MSTORE CALLVALUE PUSH2 0x28 JUMPI PUSH1 0x0 DUP1 SLOAD PUSH1 0x1 PUSH1 0x1 PUSH1 0xA0 SHL SUB NOT AND CALLER OR SWAP1 SSTORE PUSH2 0x837 SWAP1 DUP2 PUSH2 0x2E DUP3 CODECOPY RETURN JUMPDEST PUSH1 0x0 DUP1 REVERT INVALID PUSH1 0x40 PUSH1 0x80 DUP2 MSTORE PUSH1 0x4 SWAP1 DUP2 CALLDATASIZE LT ISZERO PUSH2 0x15 JUMPI PUSH1 0x0 DUP1 REVERT JUMPDEST PUSH1 0x0 SWAP2 DUP3 CALLDATALOAD PUSH1 0xE0 SHR DUP1 PUSH4 0x25762A81 EQ PUSH2 0x4B4 JUMPI DUP1 PUSH4 0x3B769021 EQ PUSH2 0x48B JUMPI DUP1 PUSH4 0x44A15C57 EQ PUSH2 0x45D JUMPI DUP1 PUSH4 0x5022A482 EQ PUSH2 0x3E8 JUMPI DUP1 PUSH4 0x57C6CC39 EQ PUSH2 0x3BE JUMPI DUP1 PUSH4 0x637EEA19 EQ PUSH2 0x396 JUMPI DUP1 PUSH4 0x687DECB7 EQ PUSH2 0x321 JUMPI DUP1 PUSH4 0x9C2D53D7 EQ PUSH2 0x2E1 JUMPI DUP1 PUSH4 0xB1CCFB66 EQ PUSH2 0x27E JUMPI PUSH4 0xF0AE8178 EQ PUSH2 0x8F JUMPI PUSH1 0x0 DUP1 REVERT JUMPDEST CALLVALUE PUSH2 0x27A JUMPI PUSH2 0x9D CALLDATASIZE PUSH2 0x5FC JUMP JUMPDEST SWAP3 SWAP1 SWAP2 PUSH2 0xB4 PUSH1 0x1 DUP1 PUSH1 0xA0 SHL SUB DUP7 SLOAD AND CALLER EQ PUSH2 0x79F JUMP JUMPDEST DUP1 SLOAD PUSH9 0x10000000000000000 DUP2 LT ISZERO PUSH2 0x267 JUMPI PUSH2 0xD7 PUSH1 0x1 SWAP2 DUP3 DUP2 ADD DUP5 SSTORE PUSH2 0x672 JUMP JUMPDEST SWAP3 SWAP1 SWAP3 PUSH2 0x255 JUMPI PUSH8 0xFFFFFFFFFFFFFFFF DUP7 GT PUSH2 0x242 JUMPI POP PUSH2 0xF8 DUP3 SLOAD PUSH2 0x6BF JUMP JUMPDEST PUSH1 0x1F DUP2 GT PUSH2 0x1FA JUMPI JUMPDEST POP DUP6 PUSH1 0x1F DUP7 GT PUSH1 0x1 EQ PUSH2 0x16D JUMPI SWAP2 DUP6 DUP1 PUSH32 0x68D48D77AC9AFD1691627C14E54DFF1F5BD2E13ECC597BDC4FCE2695143B0438 SWAP8 SWAP7 SWAP6 SWAP4 PUSH2 0x15C SWAP6 DUP11 SWAP4 PUSH2 0x162 JUMPI JUMPDEST POP SHL SWAP1 PUSH1 0x0 NOT DUP8 PUSH1 0x3 SHL SHR NOT AND OR SWAP1 SSTORE JUMPDEST MLOAD SWAP3 DUP4 SWAP3 DUP4 PUSH2 0x7D9 JUMP JUMPDEST SUB SWAP1 LOG1 DUP1 RETURN JUMPDEST DUP8 ADD CALLDATALOAD SWAP3 POP CODESIZE PUSH2 0x141 JUMP JUMPDEST DUP3 DUP8 MSTORE PUSH1 0x20 DUP1 DUP9 KECCAK256 SWAP2 SWAP1 PUSH1 0x1F NOT DUP9 AND SWAP1 DUP10 SWAP1 JUMPDEST DUP3 DUP3 LT PUSH2 0x1E3 JUMPI POP POP SWAP2 DUP8 SWAP7 SWAP6 SWAP4 SWAP2 PUSH32 0x68D48D77AC9AFD1691627C14E54DFF1F5BD2E13ECC597BDC4FCE2695143B0438 SWAP9 PUSH2 0x15C SWAP7 SWAP5 LT PUSH2 0x1C9 JUMPI JUMPDEST POP POP DUP6 DUP2 SHL ADD SWAP1 SSTORE PUSH2 0x152 JUMP JUMPDEST DUP7 ADD CALLDATALOAD PUSH1 0x0 NOT PUSH1 0x3 DUP10 SWAP1 SHL PUSH1 0xF8 AND SHR NOT AND SWAP1 SSTORE CODESIZE DUP1 PUSH2 0x1BC JUMP JUMPDEST DUP1 DUP7 DUP6 SWAP7 DUP3 SWAP5 SWAP7 DUP13 ADD CALLDATALOAD DUP2 SSTORE ADD SWAP6 ADD SWAP4 ADD SWAP1 PUSH2 0x180 JUMP JUMPDEST DUP3 DUP8 MSTORE PUSH1 0x20 DUP8 KECCAK256 PUSH1 0x1F DUP8 ADD PUSH1 0x5 SHR DUP2 ADD SWAP2 PUSH1 0x20 DUP9 LT PUSH2 0x238 JUMPI JUMPDEST PUSH1 0x1F ADD PUSH1 0x5 SHR ADD SWAP1 DUP3 SWAP1 JUMPDEST DUP3 DUP2 LT PUSH2 0x22D JUMPI POP POP PUSH2 0x101 JUMP JUMPDEST DUP9 DUP2 SSTORE ADD DUP3 SWAP1 PUSH2 0x21F JUMP JUMPDEST SWAP1 SWAP2 POP DUP2 SWAP1 PUSH2 0x214 JUMP JUMPDEST PUSH4 0x4E487B71 PUSH1 0xE0 SHL DUP8 MSTORE PUSH1 0x41 SWAP1 MSTORE PUSH1 0x24 DUP7 REVERT JUMPDEST PUSH4 0x4E487B71 PUSH1 0xE0 SHL DUP8 MSTORE DUP7 SWAP1 MSTORE PUSH1 0x24 DUP7 REVERT JUMPDEST PUSH4 0x4E487B71 PUSH1 0xE0 SHL DUP7 MSTORE PUSH1 0x41 DUP3 MSTORE PUSH1 0x24 DUP7 REVERT JUMPDEST DUP3 DUP1 REVERT JUMPDEST POP SWAP2 CALLVALUE PUSH2 0x2DE JUMPI PUSH1 0x20 CALLDATASIZE PUSH1 0x3 NOT ADD SLT PUSH2 0x2DE JUMPI DUP3 CALLDATALOAD DUP4 SLOAD DUP2 LT ISZERO PUSH2 0x2DA JUMPI PUSH2 0x2A5 SWAP1 PUSH2 0x672 JUMP JUMPDEST SWAP4 SWAP1 SWAP4 PUSH2 0x2C8 JUMPI PUSH2 0x2C4 DUP4 PUSH2 0x2B9 DUP7 PUSH2 0x6F9 JUMP JUMPDEST SWAP1 MLOAD SWAP2 DUP3 SWAP2 DUP3 PUSH2 0x646 JUMP JUMPDEST SUB SWAP1 RETURN JUMPDEST PUSH4 0x4E487B71 PUSH1 0xE0 SHL DUP3 MSTORE DUP2 SWAP1 MSTORE PUSH1 0x24 SWAP1 REVERT JUMPDEST POP DUP1 REVERT JUMPDEST DUP1 REVERT JUMPDEST POP POP CALLVALUE PUSH2 0x2DA JUMPI PUSH1 0x20 SWAP1 PUSH1 0xFF PUSH2 0x30C DUP4 PUSH2 0x2FA CALLDATASIZE PUSH2 0x563 JUMP JUMPDEST DUP2 DUP6 MLOAD SWAP4 DUP3 DUP6 DUP1 SWAP5 MLOAD SWAP4 DUP5 SWAP3 ADD PUSH2 0x5D9 JUMP JUMPDEST DUP2 ADD PUSH1 0x2 DUP2 MSTORE SUB ADD SWAP1 KECCAK256 SLOAD AND SWAP1 MLOAD SWAP1 ISZERO ISZERO DUP2 MSTORE RETURN JUMPDEST POP POP CALLVALUE PUSH2 0x2DA JUMPI PUSH2 0x15C PUSH32 0xE2D43C6B9D87534BADDFC6D7414E1E7C790FB8BF03669AF6D9FC5351E09C6BC5 SWAP2 PUSH2 0x356 CALLDATASIZE PUSH2 0x5FC JUMP JUMPDEST SWAP3 SWAP1 SWAP2 PUSH2 0x36D PUSH1 0x1 DUP1 PUSH1 0xA0 SHL SUB DUP8 SLOAD AND CALLER EQ PUSH2 0x79F JUMP JUMPDEST DUP1 MLOAD DUP5 DUP5 DUP3 CALLDATACOPY PUSH1 0x20 DUP2 DUP7 DUP2 ADD PUSH1 0x2 DUP2 MSTORE SUB ADD SWAP1 KECCAK256 PUSH1 0x1 PUSH1 0xFF NOT DUP3 SLOAD AND OR SWAP1 SSTORE MLOAD SWAP3 DUP4 SWAP3 DUP4 PUSH2 0x7D9 JUMP JUMPDEST POP POP CALLVALUE PUSH2 0x2DA JUMPI DUP2 PUSH1 0x3 NOT CALLDATASIZE ADD SLT PUSH2 0x2DA JUMPI SWAP1 SLOAD SWAP1 MLOAD PUSH1 0x1 PUSH1 0x1 PUSH1 0xA0 SHL SUB SWAP1 SWAP2 AND DUP2 MSTORE PUSH1 0x20 SWAP1 RETURN JUMPDEST POP SWAP2 CALLVALUE PUSH2 0x2DE JUMPI PUSH1 0x20 CALLDATASIZE PUSH1 0x3 NOT ADD SLT PUSH2 0x2DE JUMPI POP PUSH2 0x2B9 PUSH2 0x3E2 PUSH2 0x2C4 SWAP4 CALLDATALOAD PUSH2 0x672 JUMP JUMPDEST POP PUSH2 0x6F9 JUMP JUMPDEST POP POP CALLVALUE PUSH2 0x2DA JUMPI PUSH2 0x15C PUSH32 0xD54185EDD6135B387571508EBBF079FB432C4135AC9470B6153BE5D0FF60F3D4 SWAP2 PUSH2 0x41D CALLDATASIZE PUSH2 0x5FC JUMP JUMPDEST SWAP3 SWAP1 SWAP2 PUSH2 0x434 PUSH1 0x1 DUP1 PUSH1 0xA0 SHL SUB DUP8 SLOAD AND CALLER EQ PUSH2 0x79F JUMP JUMPDEST DUP1 MLOAD DUP5 DUP5 DUP3 CALLDATACOPY PUSH1 0x20 DUP2 DUP7 DUP2 ADD PUSH1 0x3 DUP2 MSTORE SUB ADD SWAP1 KECCAK256 PUSH1 0x1 PUSH1 0xFF NOT DUP3 SLOAD AND OR SWAP1 SSTORE MLOAD SWAP3 DUP4 SWAP3 DUP4 PUSH2 0x7D9 JUMP JUMPDEST POP POP CALLVALUE PUSH2 0x2DA JUMPI PUSH1 0x20 SWAP1 PUSH1 0xFF PUSH2 0x476 DUP4 PUSH2 0x2FA CALLDATASIZE PUSH2 0x563 JUMP JUMPDEST DUP2 ADD PUSH1 0x3 DUP2 MSTORE SUB ADD SWAP1 KECCAK256 SLOAD AND SWAP1 MLOAD SWAP1 ISZERO ISZERO DUP2 MSTORE RETURN JUMPDEST POP POP CALLVALUE PUSH2 0x2DA JUMPI DUP2 PUSH1 0x3 NOT CALLDATASIZE ADD SLT PUSH2 0x2DA JUMPI PUSH1 0x1 SLOAD SWAP1 MLOAD PUSH1 0x1 PUSH1 0x1 PUSH1 0xA0 SHL SUB SWAP1 SWAP2 AND DUP2 MSTORE PUSH1 0x20 SWAP1 RETURN JUMPDEST POP CALLVALUE PUSH2 0x27A JUMPI PUSH1 0x20 CALLDATASIZE PUSH1 0x3 NOT ADD SLT PUSH2 0x27A JUMPI PUSH1 0x1 PUSH1 0x1 PUSH1 0xA0 SHL SUB SWAP1 CALLDATALOAD DUP2 DUP2 AND SWAP1 DUP2 SWAP1 SUB PUSH2 0x527 JUMPI PUSH32 0x86BCCDA1E3BBBE01513F20B182842FFB6EE13AFDBF54C18A2FC6BB8148469CDF SWAP3 PUSH2 0x50D PUSH1 0x20 SWAP4 DUP7 SLOAD AND CALLER EQ PUSH2 0x79F JUMP JUMPDEST PUSH1 0x1 DUP1 SLOAD PUSH1 0x1 PUSH1 0x1 PUSH1 0xA0 SHL SUB NOT AND DUP4 OR SWAP1 SSTORE MLOAD SWAP1 DUP2 MSTORE LOG1 DUP1 RETURN JUMPDEST DUP4 DUP1 REVERT JUMPDEST SWAP1 PUSH1 0x1F DUP1 NOT SWAP2 ADD AND DUP2 ADD SWAP1 DUP2 LT PUSH8 0xFFFFFFFFFFFFFFFF DUP3 GT OR PUSH2 0x54D JUMPI PUSH1 0x40 MSTORE JUMP JUMPDEST PUSH4 0x4E487B71 PUSH1 0xE0 SHL PUSH1 0x0 MSTORE PUSH1 0x41 PUSH1 0x4 MSTORE PUSH1 0x24 PUSH1 0x0 REVERT JUMPDEST PUSH1 0x20 PUSH1 0x3 NOT DUP3 ADD SLT PUSH2 0x5D4 JUMPI PUSH8 0xFFFFFFFFFFFFFFFF PUSH1 0x4 CALLDATALOAD DUP2 DUP2 GT PUSH2 0x5D4 JUMPI DUP3 PUSH1 0x23 DUP3 ADD SLT ISZERO PUSH2 0x5D4 JUMPI DUP1 PUSH1 0x4 ADD CALLDATALOAD SWAP2 DUP3 GT PUSH2 0x54D JUMPI PUSH1 0x40 MLOAD SWAP3 PUSH2 0x5B1 PUSH1 0x1F DUP5 ADD PUSH1 0x1F NOT AND PUSH1 0x20 ADD DUP6 PUSH2 0x52B JUMP JUMPDEST DUP3 DUP5 MSTORE PUSH1 0x24 DUP4 DUP4 ADD ADD GT PUSH2 0x5D4 JUMPI DUP2 PUSH1 0x0 SWAP3 PUSH1 0x24 PUSH1 0x20 SWAP4 ADD DUP4 DUP7 ADD CALLDATACOPY DUP4 ADD ADD MSTORE SWAP1 JUMP JUMPDEST PUSH1 0x0 DUP1 REVERT JUMPDEST PUSH1 0x0 JUMPDEST DUP4 DUP2 LT PUSH2 0x5EC JUMPI POP POP PUSH1 0x0 SWAP2 ADD MSTORE JUMP JUMPDEST DUP2 DUP2 ADD MLOAD DUP4 DUP3 ADD MSTORE PUSH1 0x20 ADD PUSH2 0x5DC JUMP JUMPDEST SWAP1 PUSH1 0x20 PUSH1 0x3 NOT DUP4 ADD SLT PUSH2 0x5D4 JUMPI PUSH1 0x4 CALLDATALOAD PUSH8 0xFFFFFFFFFFFFFFFF SWAP3 DUP4 DUP3 GT PUSH2 0x5D4 JUMPI DUP1 PUSH1 0x23 DUP4 ADD SLT ISZERO PUSH2 0x5D4 JUMPI DUP2 PUSH1 0x4 ADD CALLDATALOAD SWAP4 DUP5 GT PUSH2 0x5D4 JUMPI PUSH1 0x24 DUP5 DUP4 ADD ADD GT PUSH2 0x5D4 JUMPI PUSH1 0x24 ADD SWAP2 SWAP1 JUMP JUMPDEST PUSH1 0x40 SWAP2 PUSH1 0x20 DUP3 MSTORE PUSH2 0x666 DUP2 MLOAD DUP1 SWAP3 DUP2 PUSH1 0x20 DUP7 ADD MSTORE PUSH1 0x20 DUP7 DUP7 ADD SWAP2 ADD PUSH2 0x5D9 JUMP JUMPDEST PUSH1 0x1F ADD PUSH1 0x1F NOT AND ADD ADD SWAP1 JUMP JUMPDEST PUSH1 0x4 SLOAD DUP2 LT ISZERO PUSH2 0x6A9 JUMPI PUSH1 0x4 PUSH1 0x0 MSTORE PUSH32 0x8A35ACFBC15FF81A39AE7D344FD709F28E8600B4AA8C65C6B64BFE7FE36BD19B ADD SWAP1 PUSH1 0x0 SWAP1 JUMP JUMPDEST PUSH4 0x4E487B71 PUSH1 0xE0 SHL PUSH1 0x0 MSTORE PUSH1 0x32 PUSH1 0x4 MSTORE PUSH1 0x24 PUSH1 0x0 REVERT JUMPDEST SWAP1 PUSH1 0x1 DUP3 DUP2 SHR SWAP3 AND DUP1 ISZERO PUSH2 0x6EF JUMPI JUMPDEST PUSH1 0x20 DUP4 LT EQ PUSH2 0x6D9 JUMPI JUMP JUMPDEST PUSH4 0x4E487B71 PUSH1 0xE0 SHL PUSH1 0x0 MSTORE PUSH1 0x22 PUSH1 0x4 MSTORE PUSH1 0x24 PUSH1 0x0 REVERT JUMPDEST SWAP2 PUSH1 0x7F AND SWAP2 PUSH2 0x6CE JUMP JUMPDEST SWAP1 PUSH1 0x40 MLOAD SWAP2 DUP3 PUSH1 0x0 DUP3 SLOAD SWAP3 PUSH2 0x70D DUP5 PUSH2 0x6BF JUMP JUMPDEST SWAP1 DUP2 DUP5 MSTORE PUSH1 0x1 SWAP5 DUP6 DUP2 AND SWAP1 DUP2 PUSH1 0x0 EQ PUSH2 0x77C JUMPI POP PUSH1 0x1 EQ PUSH2 0x739 JUMPI JUMPDEST POP POP PUSH2 0x737 SWAP3 POP SUB DUP4 PUSH2 0x52B JUMP JUMPDEST JUMP JUMPDEST SWAP1 SWAP4 SWAP2 POP PUSH1 0x0 MSTORE PUSH1 0x20 SWAP1 DUP2 PUSH1 0x0 KECCAK256 SWAP4 PUSH1 0x0 SWAP2 JUMPDEST DUP2 DUP4 LT PUSH2 0x764 JUMPI POP POP PUSH2 0x737 SWAP4 POP DUP3 ADD ADD CODESIZE DUP1 PUSH2 0x729 JUMP JUMPDEST DUP6 SLOAD DUP9 DUP5 ADD DUP6 ADD MSTORE SWAP5 DUP6 ADD SWAP5 DUP8 SWAP5 POP SWAP2 DUP4 ADD SWAP2 PUSH2 0x74C JUMP JUMPDEST SWAP2 POP POP PUSH2 0x737 SWAP5 POP PUSH1 0x20 SWAP3 POP PUSH1 0xFF NOT AND DUP3 DUP5 ADD MSTORE ISZERO ISZERO PUSH1 0x5 SHL DUP3 ADD ADD CODESIZE DUP1 PUSH2 0x729 JUMP JUMPDEST ISZERO PUSH2 0x7A6 JUMPI JUMP JUMPDEST PUSH1 0x40 MLOAD PUSH3 0x461BCD PUSH1 0xE5 SHL DUP2 MSTORE PUSH1 0x20 PUSH1 0x4 DUP3 ADD MSTORE PUSH1 0xB PUSH1 0x24 DUP3 ADD MSTORE PUSH11 0x139BDD081CDD195DD85C99 PUSH1 0xAA SHL PUSH1 0x44 DUP3 ADD MSTORE PUSH1 0x64 SWAP1 REVERT JUMPDEST SWAP1 SWAP2 DUP1 PUSH1 0x40 SWAP4 PUSH1 0x20 DUP5 MSTORE DUP2 PUSH1 0x20 DUP6 ADD MSTORE DUP5 DUP5 ADD CALLDATACOPY PUSH1 0x0 DUP3 DUP3 ADD DUP5 ADD MSTORE PUSH1 0x1F ADD PUSH1 0x1F NOT AND ADD ADD SWAP1 JUMP INVALID LOG2 PUSH5 0x6970667358 0x22 SLT KECCAK256 0xC1 0xED DUP6 PUSH9 0x8BF1B0913DC63EDBFF 0xDD DUP4 0xFC 0x2B 0x25 PUSH4 0x957FC9D2 0xBD SWAP9 SWAP3 0x21 PUSH25 0x5A0892B164736F6C6343000814003300000000000000000000 "},"methodIdentifiers":{"certifyMythline(string)":"5022a482","clearPhase(string)":"687decb7","echoLineage(string)":"f0ae8178","getLineage(uint256)":"57c6cc39","lineage(uint256)":"b1ccfb66","linkRegistry(address)":"25762a81","mythlineCompliant(string)":"44a15c57","phaseClear(string)":"9c2d53d7","sovereignRegistry()":"3b769021","steward()":"637eea19"}}}}}