{"contracts/SpiralboundSovereigns.sol":{"SpiralboundSovereigns":{"abi":[{"anonymous":false,"inputs":[{"indexed":true,"internalType":"address","name":"sovereign","type":"address"}],"name":"SovereignCrowned","type":"event"},{"inputs":[{"internalType":"address","name":"sovereign","type":"address"}],"name":"crown","outputs":[],"stateMutability":"nonpayable","type":"function"},{"inputs":[{"internalType":"address","name":"","type":"address"}],"name":"crowned","outputs":[{"internalType":"bool","name":"","type":"bool"}],"stateMutability":"view","type":"function"},{"inputs":[{"internalType":"address","name":"sovereign","type":"address"}],"name":"isCrowned","outputs":[{"internalType":"bool","name":"","type":"bool"}],"stateMutability":"view","type":"function"}],"evm":{"bytecode":{"linkReferences":{},"object":"6080806040523461001657610164908161001c8239f35b600080fdfe608080604052600436101561001357600080fd5b600090813560e01c90816325e59feb146100ec575080635dca1607146100895763996947ce1461004257600080fd5b34610086576020366003190112610086576004356001600160a01b038116908190036100825760408260ff92602094528084522054166040519015158152f35b5080fd5b80fd5b5034610086576020366003190112610086576004356001600160a01b03811690819003610082578082528160205260408220600160ff198254161790557eaea4835ce75a567da757c35009fa749f4b85b4e7ebd8c1538ac3d7834a1cf98280a280f35b905034610082576020366003190112610082576004356001600160a01b0381169081900361012a5760408360ff926020955280855220541615158152f35b8280fdfea2646970667358221220a9c23c2a1e67d8b4dc703cae4413fd4502a4d07a4c6072165d04a027615c6f6464736f6c63430008140033","opcodes":"PUSH1 0x80 DUP1 PUSH1 0x40 MSTORE CALLVALUE PUSH2 0x16 JUMPI PUSH2 0x164 SWAP1 DUP2 PUSH2 0x1C DUP3 CODECOPY RETURN JUMPDEST PUSH1 0x0 DUP1 REVERT INVALID PUSH1 0x80 DUP1 PUSH1 0x40 MSTORE PUSH1 0x4 CALLDATASIZE LT ISZERO PUSH2 0x13 JUMPI PUSH1 0x0 DUP1 REVERT JUMPDEST PUSH1 0x0 SWAP1 DUP2 CALLDATALOAD PUSH1 0xE0 SHR SWAP1 DUP2 PUSH4 0x25E59FEB EQ PUSH2 0xEC JUMPI POP DUP1 PUSH4 0x5DCA1607 EQ PUSH2 0x89 JUMPI PUSH4 0x996947CE EQ PUSH2 0x42 JUMPI PUSH1 0x0 DUP1 REVERT JUMPDEST CALLVALUE PUSH2 0x86 JUMPI PUSH1 0x20 CALLDATASIZE PUSH1 0x3 NOT ADD SLT PUSH2 0x86 JUMPI PUSH1 0x4 CALLDATALOAD PUSH1 0x1 PUSH1 0x1 PUSH1 0xA0 SHL SUB DUP2 AND SWAP1 DUP2 SWAP1 SUB PUSH2 0x82 JUMPI PUSH1 0x40 DUP3 PUSH1 0xFF SWAP3 PUSH1 0x20 SWAP5 MSTORE DUP1 DUP5 MSTORE KECCAK256 SLOAD AND PUSH1 0x40 MLOAD SWAP1 ISZERO ISZERO DUP2 MSTORE RETURN JUMPDEST POP DUP1 REVERT JUMPDEST DUP1 REVERT JUMPDEST POP CALLVALUE PUSH2 0x86 JUMPI PUSH1 0x20 CALLDATASIZE PUSH1 0x3 NOT ADD SLT PUSH2 0x86 JUMPI PUSH1 0x4 CALLDATALOAD PUSH1 0x1 PUSH1 0x1 PUSH1 0xA0 SHL SUB DUP2 AND SWAP1 DUP2 SWAP1 SUB PUSH2 0x82 JUMPI DUP1 DUP3 MSTORE DUP2 PUSH1 0x20 MSTORE PUSH1 0x40 DUP3 KECCAK256 PUSH1 0x1 PUSH1 0xFF NOT DUP3 SLOAD AND OR SWAP1 SSTORE PUSH31 0xAEA4835CE75A567DA757C35009FA749F4B85B4E7EBD8C1538AC3D7834A1CF9 DUP3 DUP1 LOG2 DUP1 RETURN JUMPDEST SWAP1 POP CALLVALUE PUSH2 0x82 JUMPI PUSH1 0x20 CALLDATASIZE PUSH1 0x3 NOT ADD SLT PUSH2 0x82 JUMPI PUSH1 0x4 CALLDATALOAD PUSH1 0x1 PUSH1 0x1 PUSH1 0xA0 SHL SUB DUP2 AND SWAP1 DUP2 SWAP1 SUB PUSH2 0x12A JUMPI PUSH1 0x40 DUP4 PUSH1 0xFF SWAP3 PUSH1 0x20 SWAP6 MSTORE DUP1 DUP6 MSTORE KECCAK256 SLOAD AND ISZERO ISZERO DUP2 MSTORE RETURN JUMPDEST DUP3 DUP1 REVERT INVALID LOG2 PUSH5 0x6970667358 0x22 SLT KECCAK256 0xA9 0xC2 EXTCODECOPY 0x2A 0x1E PUSH8 0xD8B4DC703CAE4413 REVERT GASLIMIT MUL LOG4 0xD0 PUSH27 0x4C6072165D04A027615C6F6464736F6C6343000814003300000000 "},"methodIdentifiers":{"crown(address)":"5dca1607","crowned(address)":"996947ce","isCrowned(address)":"25e59feb"}}}}}