{"contracts/registry/ApprenticeSummonsV2.sol":{"ApprenticeSummonsV2":{"abi":[{"inputs":[],"stateMutability":"nonpayable","type":"constructor"},{"anonymous":false,"inputs":[{"indexed":true,"internalType":"address","name":"apprentice","type":"address"},{"indexed":false,"internalType":"string","name":"name","type":"string"},{"indexed":false,"internalType":"string","name":"signal","type":"string"},{"indexed":false,"internalType":"string","name":"drift","type":"string"},{"indexed":false,"internalType":"string","name":"pulse","type":"string"},{"indexed":false,"internalType":"string","name":"codexRef","type":"string"}],"name":"ApprenticeSummoned","type":"event"},{"inputs":[{"internalType":"uint256","name":"","type":"uint256"}],"name":"apprentices","outputs":[{"internalType":"address","name":"","type":"address"}],"stateMutability":"view","type":"function"},{"inputs":[{"internalType":"address","name":"apprentice","type":"address"}],"name":"getSummons","outputs":[{"internalType":"string","name":"","type":"string"},{"internalType":"string","name":"","type":"string"},{"internalType":"string","name":"","type":"string"},{"internalType":"string","name":"","type":"string"},{"internalType":"string","name":"","type":"string"}],"stateMutability":"view","type":"function"},{"inputs":[],"name":"steward","outputs":[{"internalType":"address","name":"","type":"address"}],"stateMutability":"view","type":"function"},{"inputs":[{"internalType":"address","name":"apprentice","type":"address"},{"internalType":"string","name":"name","type":"string"},{"internalType":"string","name":"signal","type":"string"},{"internalType":"string","name":"drift","type":"string"},{"internalType":"string","name":"pulse","type":"string"},{"internalType":"string","name":"codexRef","type":"string"}],"name":"summonApprentice","outputs":[],"stateMutability":"nonpayable","type":"function"},{"inputs":[{"internalType":"address","name":"","type":"address"}],"name":"summons","outputs":[{"internalType":"string","name":"name","type":"string"},{"internalType":"string","name":"signal","type":"string"},{"internalType":"string","name":"drift","type":"string"},{"internalType":"string","name":"pulse","type":"string"},{"internalType":"string","name":"codexRef","type":"string"}],"stateMutability":"view","type":"function"},{"inputs":[],"name":"totalSummons","outputs":[{"internalType":"uint256","name":"","type":"uint256"}],"stateMutability":"view","type":"function"}],"evm":{"bytecode":{"linkReferences":{},"object":"6080806040523461002857600080546001600160a01b03191633179055610d0e908161002e8239f35b600080fdfe608080604052600436101561001357600080fd5b60003560e01c9081632a17d4cd14610a0c5750806334ea2527146101fa5780635a2ed66214610180578063637eea1914610157578063cf84c603146100a85763f31bee3e1461006157600080fd5b346100a35760203660031901126100a3576004356002548110156100a35761008a602091610c24565b905460405160039290921b1c6001600160a01b03168152f35b600080fd5b346100a35760203660031901126100a3576001600160a01b036100c9610a27565b16600052600160205260406000206040516100e381610aa4565b6100ec82610ae0565b81526101536100fd60018401610ae0565b916020810192835261011160028501610ae0565b9360408201948552610138600461012a60038401610ae0565b926060850193845201610ae0565b91826080820152519351945190519060405195869586610bc6565b0390f35b346100a35760003660031901126100a3576000546040516001600160a01b039091168152602090f35b346100a35760203660031901126100a3576001600160a01b036101a1610a27565b16600052600160205260406000206101b881610ae0565b6101536101c760018401610ae0565b926101d460028201610ae0565b906101ed60046101e660038401610ae0565b9201610ae0565b9160405195869586610bc6565b346100a35760c03660031901126100a357610213610a27565b6024356001600160401b0381116100a357610232903690600401610a3d565b6044356001600160401b0381116100a357610251903690600401610a3d565b90936064356001600160401b0381116100a357610272903690600401610a3d565b906084356001600160401b0381116100a357610292903690600401610a3d565b91909260a4356001600160401b0381116100a3576102b4903690600401610a3d565b600054909a9197906001600160a01b031633036109d9576040516102d781610aa4565b6102e2368b8d610c71565b81526102ef368385610c71565b60208201526102ff368587610c71565b604082015261030f368789610c71565b606082015261031f368d8b610c71565b608082015260018060a01b038816600052600160205260406000209080518051906001600160401b0382116105d757819061035a8554610a6a565b601f8111610989575b50602090601f831160011461091d57600092610912575b50508160011b916000199060031b1c19161782555b60208101518051906001600160401b0382116105d75781906103b46001860154610a6a565b601f81116108bf575b50602090601f831160011461084d57600092610842575b50508160011b916000199060031b1c19161760018301555b60408101518051906001600160401b0382116105d75781906104116002860154610a6a565b601f81116107ef575b50602090601f831160011461077d57600092610772575b50508160011b916000199060031b1c19161760028301555b60608101518051906001600160401b0382116105d75761046c6003850154610a6a565b601f811161072b575b50602090601f83116001146106b8576080939291600091836106ad575b50508160011b916000199060031b1c19161760038401555b01518051906001600160401b0382116105d7576104ca6004840154610a6a565b601f8111610666575b50602090601f83116001146105f85760049291600091836105ed575b50508160011b916000199060031b1c1916179101555b600254680100000000000000008110156105d7576001810160025561052990610c24565b81546001600160a01b038a811660039390931b92831b921b191617905560405160a0808252909a8b9a61055e928c0191610cb7565b9089820360208b015261057092610cb7565b90878203604089015261058292610cb7565b90858203606087015261059492610cb7565b83810360808501526001600160a01b03909116946105b192610cb7565b037fc696a0f35460b487eeb96792bcde0f7982daac961aa23ef0062126bc432707cc91a2005b634e487b7160e01b600052604160045260246000fd5b015190508f806104ef565b90601f198316916004850160005260206000209260005b81811061064e57509160019391856004969410610635575b505050811b01910155610505565b015160001960f88460031b161c191690558f8080610627565b9293602060018192878601518155019501930161060f565b600484016000526020600020601f840160051c8101602085106106a6575b601f830160051c8201811061069a5750506104d3565b60008155600101610684565b5080610684565b015190503880610492565b906003850160005260206000209160005b601f1985168110610713575091839160019360809695601f198116106106fa575b505050811b0160038401556104aa565b015160001960f88460031b161c191690553880806106ea565b919260206001819286850151815501940192016106c9565b600385016000526020600020601f840160051c81016020851061076b575b601f830160051c8201811061075f575050610475565b60008155600101610749565b5080610749565b015190508f80610431565b9250600285016000526020600020906000935b601f19841685106107d4576001945083601f198116106107bb575b505050811b016002830155610449565b015160001960f88460031b161c191690558f80806107ab565b81810151835560209485019460019093019290910190610790565b909150600285016000526020600020601f840160051c81016020851061083b575b90849392915b601f830160051c8201811061082c57505061041a565b60008155859450600101610816565b5080610810565b015190508f806103d4565b9250600185016000526020600020906000935b601f19841685106108a4576001945083601f1981161061088b575b505050811b0160018301556103ec565b015160001960f88460031b161c191690558f808061087b565b81810151835560209485019460019093019290910190610860565b909150600185016000526020600020601f840160051c81016020851061090b575b90849392915b601f830160051c820181106108fc5750506103bd565b600081558594506001016108e6565b50806108e0565b015190508f8061037a565b9250846000526020600020906000935b601f198416851061096e576001945083601f19811610610955575b505050811b01825561038f565b015160001960f88460031b161c191690558f8080610948565b8181015183556020948501946001909301929091019061092d565b909150846000526020600020601f840160051c8101602085106109d2575b90849392915b601f830160051c820181106109c3575050610363565b600081558594506001016109ad565b50806109a7565b60405162461bcd60e51b815260206004820152600b60248201526a139bdd081cdd195dd85c9960aa1b6044820152606490fd5b346100a35760003660031901126100a3576020906002548152f35b600435906001600160a01b03821682036100a357565b9181601f840112156100a3578235916001600160401b0383116100a357602083818601950101116100a357565b90600182811c92168015610a9a575b6020831014610a8457565b634e487b7160e01b600052602260045260246000fd5b91607f1691610a79565b60a081019081106001600160401b038211176105d757604052565b90601f801991011681019081106001600160401b038211176105d757604052565b9060405191826000825492610af484610a6a565b908184526001948581169081600014610b635750600114610b20575b5050610b1e92500383610abf565b565b9093915060005260209081600020936000915b818310610b4b575050610b1e93508201013880610b10565b85548884018501529485019487945091830191610b33565b915050610b1e94506020925060ff191682840152151560051b8201013880610b10565b919082519283825260005b848110610bb2575050826000602080949584010152601f8019910116010190565b602081830181015184830182015201610b91565b9390610c219593610bf7610c1394610be9610c059460a08a5260a08a0190610b86565b9088820360208a0152610b86565b908682036040880152610b86565b908482036060860152610b86565b916080818403910152610b86565b90565b600254811015610c5b5760026000527f405787fa12a823e0f2b7631cc41b3ba8828b3321ca811111fa75cd3aa3bb5ace0190600090565b634e487b7160e01b600052603260045260246000fd5b9291926001600160401b0382116105d75760405191610c9a601f8201601f191660200184610abf565b8294818452818301116100a3578281602093846000960137010152565b908060209392818452848401376000828201840152601f01601f191601019056fea2646970667358221220790353de6354f08b759605d083143777966921480fe8aa95802e319c7f55628164736f6c63430008140033","opcodes":"PUSH1 0x80 DUP1 PUSH1 0x40 MSTORE CALLVALUE PUSH2 0x28 JUMPI PUSH1 0x0 DUP1 SLOAD PUSH1 0x1 PUSH1 0x1 PUSH1 0xA0 SHL SUB NOT AND CALLER OR SWAP1 SSTORE PUSH2 0xD0E SWAP1 DUP2 PUSH2 0x2E DUP3 CODECOPY RETURN JUMPDEST PUSH1 0x0 DUP1 REVERT INVALID PUSH1 0x80 DUP1 PUSH1 0x40 MSTORE PUSH1 0x4 CALLDATASIZE LT ISZERO PUSH2 0x13 JUMPI PUSH1 0x0 DUP1 REVERT JUMPDEST PUSH1 0x0 CALLDATALOAD PUSH1 0xE0 SHR SWAP1 DUP2 PUSH4 0x2A17D4CD EQ PUSH2 0xA0C JUMPI POP DUP1 PUSH4 0x34EA2527 EQ PUSH2 0x1FA JUMPI DUP1 PUSH4 0x5A2ED662 EQ PUSH2 0x180 JUMPI DUP1 PUSH4 0x637EEA19 EQ PUSH2 0x157 JUMPI DUP1 PUSH4 0xCF84C603 EQ PUSH2 0xA8 JUMPI PUSH4 0xF31BEE3E EQ PUSH2 0x61 JUMPI PUSH1 0x0 DUP1 REVERT JUMPDEST CALLVALUE PUSH2 0xA3 JUMPI PUSH1 0x20 CALLDATASIZE PUSH1 0x3 NOT ADD SLT PUSH2 0xA3 JUMPI PUSH1 0x4 CALLDATALOAD PUSH1 0x2 SLOAD DUP2 LT ISZERO PUSH2 0xA3 JUMPI PUSH2 0x8A PUSH1 0x20 SWAP2 PUSH2 0xC24 JUMP JUMPDEST SWAP1 SLOAD PUSH1 0x40 MLOAD PUSH1 0x3 SWAP3 SWAP1 SWAP3 SHL SHR PUSH1 0x1 PUSH1 0x1 PUSH1 0xA0 SHL SUB AND DUP2 MSTORE RETURN JUMPDEST PUSH1 0x0 DUP1 REVERT JUMPDEST CALLVALUE PUSH2 0xA3 JUMPI PUSH1 0x20 CALLDATASIZE PUSH1 0x3 NOT ADD SLT PUSH2 0xA3 JUMPI PUSH1 0x1 PUSH1 0x1 PUSH1 0xA0 SHL SUB PUSH2 0xC9 PUSH2 0xA27 JUMP JUMPDEST AND PUSH1 0x0 MSTORE PUSH1 0x1 PUSH1 0x20 MSTORE PUSH1 0x40 PUSH1 0x0 KECCAK256 PUSH1 0x40 MLOAD PUSH2 0xE3 DUP2 PUSH2 0xAA4 JUMP JUMPDEST PUSH2 0xEC DUP3 PUSH2 0xAE0 JUMP JUMPDEST DUP2 MSTORE PUSH2 0x153 PUSH2 0xFD PUSH1 0x1 DUP5 ADD PUSH2 0xAE0 JUMP JUMPDEST SWAP2 PUSH1 0x20 DUP2 ADD SWAP3 DUP4 MSTORE PUSH2 0x111 PUSH1 0x2 DUP6 ADD PUSH2 0xAE0 JUMP JUMPDEST SWAP4 PUSH1 0x40 DUP3 ADD SWAP5 DUP6 MSTORE PUSH2 0x138 PUSH1 0x4 PUSH2 0x12A PUSH1 0x3 DUP5 ADD PUSH2 0xAE0 JUMP JUMPDEST SWAP3 PUSH1 0x60 DUP6 ADD SWAP4 DUP5 MSTORE ADD PUSH2 0xAE0 JUMP JUMPDEST SWAP2 DUP3 PUSH1 0x80 DUP3 ADD MSTORE MLOAD SWAP4 MLOAD SWAP5 MLOAD SWAP1 MLOAD SWAP1 PUSH1 0x40 MLOAD SWAP6 DUP7 SWAP6 DUP7 PUSH2 0xBC6 JUMP JUMPDEST SUB SWAP1 RETURN JUMPDEST CALLVALUE PUSH2 0xA3 JUMPI PUSH1 0x0 CALLDATASIZE PUSH1 0x3 NOT ADD SLT PUSH2 0xA3 JUMPI PUSH1 0x0 SLOAD PUSH1 0x40 MLOAD PUSH1 0x1 PUSH1 0x1 PUSH1 0xA0 SHL SUB SWAP1 SWAP2 AND DUP2 MSTORE PUSH1 0x20 SWAP1 RETURN JUMPDEST CALLVALUE PUSH2 0xA3 JUMPI PUSH1 0x20 CALLDATASIZE PUSH1 0x3 NOT ADD SLT PUSH2 0xA3 JUMPI PUSH1 0x1 PUSH1 0x1 PUSH1 0xA0 SHL SUB PUSH2 0x1A1 PUSH2 0xA27 JUMP JUMPDEST AND PUSH1 0x0 MSTORE PUSH1 0x1 PUSH1 0x20 MSTORE PUSH1 0x40 PUSH1 0x0 KECCAK256 PUSH2 0x1B8 DUP2 PUSH2 0xAE0 JUMP JUMPDEST PUSH2 0x153 PUSH2 0x1C7 PUSH1 0x1 DUP5 ADD PUSH2 0xAE0 JUMP JUMPDEST SWAP3 PUSH2 0x1D4 PUSH1 0x2 DUP3 ADD PUSH2 0xAE0 JUMP JUMPDEST SWAP1 PUSH2 0x1ED PUSH1 0x4 PUSH2 0x1E6 PUSH1 0x3 DUP5 ADD PUSH2 0xAE0 JUMP JUMPDEST SWAP3 ADD PUSH2 0xAE0 JUMP JUMPDEST SWAP2 PUSH1 0x40 MLOAD SWAP6 DUP7 SWAP6 DUP7 PUSH2 0xBC6 JUMP JUMPDEST CALLVALUE PUSH2 0xA3 JUMPI PUSH1 0xC0 CALLDATASIZE PUSH1 0x3 NOT ADD SLT PUSH2 0xA3 JUMPI PUSH2 0x213 PUSH2 0xA27 JUMP JUMPDEST PUSH1 0x24 CALLDATALOAD PUSH1 0x1 PUSH1 0x1 PUSH1 0x40 SHL SUB DUP2 GT PUSH2 0xA3 JUMPI PUSH2 0x232 SWAP1 CALLDATASIZE SWAP1 PUSH1 0x4 ADD PUSH2 0xA3D JUMP JUMPDEST PUSH1 0x44 CALLDATALOAD PUSH1 0x1 PUSH1 0x1 PUSH1 0x40 SHL SUB DUP2 GT PUSH2 0xA3 JUMPI PUSH2 0x251 SWAP1 CALLDATASIZE SWAP1 PUSH1 0x4 ADD PUSH2 0xA3D JUMP JUMPDEST SWAP1 SWAP4 PUSH1 0x64 CALLDATALOAD PUSH1 0x1 PUSH1 0x1 PUSH1 0x40 SHL SUB DUP2 GT PUSH2 0xA3 JUMPI PUSH2 0x272 SWAP1 CALLDATASIZE SWAP1 PUSH1 0x4 ADD PUSH2 0xA3D JUMP JUMPDEST SWAP1 PUSH1 0x84 CALLDATALOAD PUSH1 0x1 PUSH1 0x1 PUSH1 0x40 SHL SUB DUP2 GT PUSH2 0xA3 JUMPI PUSH2 0x292 SWAP1 CALLDATASIZE SWAP1 PUSH1 0x4 ADD PUSH2 0xA3D JUMP JUMPDEST SWAP2 SWAP1 SWAP3 PUSH1 0xA4 CALLDATALOAD PUSH1 0x1 PUSH1 0x1 PUSH1 0x40 SHL SUB DUP2 GT PUSH2 0xA3 JUMPI PUSH2 0x2B4 SWAP1 CALLDATASIZE SWAP1 PUSH1 0x4 ADD PUSH2 0xA3D JUMP JUMPDEST PUSH1 0x0 SLOAD SWAP1 SWAP11 SWAP2 SWAP8 SWAP1 PUSH1 0x1 PUSH1 0x1 PUSH1 0xA0 SHL SUB AND CALLER SUB PUSH2 0x9D9 JUMPI PUSH1 0x40 MLOAD PUSH2 0x2D7 DUP2 PUSH2 0xAA4 JUMP JUMPDEST PUSH2 0x2E2 CALLDATASIZE DUP12 DUP14 PUSH2 0xC71 JUMP JUMPDEST DUP2 MSTORE PUSH2 0x2EF CALLDATASIZE DUP4 DUP6 PUSH2 0xC71 JUMP JUMPDEST PUSH1 0x20 DUP3 ADD MSTORE PUSH2 0x2FF CALLDATASIZE DUP6 DUP8 PUSH2 0xC71 JUMP JUMPDEST PUSH1 0x40 DUP3 ADD MSTORE PUSH2 0x30F CALLDATASIZE DUP8 DUP10 PUSH2 0xC71 JUMP JUMPDEST PUSH1 0x60 DUP3 ADD MSTORE PUSH2 0x31F CALLDATASIZE DUP14 DUP12 PUSH2 0xC71 JUMP JUMPDEST PUSH1 0x80 DUP3 ADD MSTORE PUSH1 0x1 DUP1 PUSH1 0xA0 SHL SUB DUP9 AND PUSH1 0x0 MSTORE PUSH1 0x1 PUSH1 0x20 MSTORE PUSH1 0x40 PUSH1 0x0 KECCAK256 SWAP1 DUP1 MLOAD DUP1 MLOAD SWAP1 PUSH1 0x1 PUSH1 0x1 PUSH1 0x40 SHL SUB DUP3 GT PUSH2 0x5D7 JUMPI DUP2 SWAP1 PUSH2 0x35A DUP6 SLOAD PUSH2 0xA6A JUMP JUMPDEST PUSH1 0x1F DUP2 GT PUSH2 0x989 JUMPI JUMPDEST POP PUSH1 0x20 SWAP1 PUSH1 0x1F DUP4 GT PUSH1 0x1 EQ PUSH2 0x91D JUMPI PUSH1 0x0 SWAP3 PUSH2 0x912 JUMPI JUMPDEST POP POP DUP2 PUSH1 0x1 SHL SWAP2 PUSH1 0x0 NOT SWAP1 PUSH1 0x3 SHL SHR NOT AND OR DUP3 SSTORE JUMPDEST PUSH1 0x20 DUP2 ADD MLOAD DUP1 MLOAD SWAP1 PUSH1 0x1 PUSH1 0x1 PUSH1 0x40 SHL SUB DUP3 GT PUSH2 0x5D7 JUMPI DUP2 SWAP1 PUSH2 0x3B4 PUSH1 0x1 DUP7 ADD SLOAD PUSH2 0xA6A JUMP JUMPDEST PUSH1 0x1F DUP2 GT PUSH2 0x8BF JUMPI JUMPDEST POP PUSH1 0x20 SWAP1 PUSH1 0x1F DUP4 GT PUSH1 0x1 EQ PUSH2 0x84D JUMPI PUSH1 0x0 SWAP3 PUSH2 0x842 JUMPI JUMPDEST POP POP DUP2 PUSH1 0x1 SHL SWAP2 PUSH1 0x0 NOT SWAP1 PUSH1 0x3 SHL SHR NOT AND OR PUSH1 0x1 DUP4 ADD SSTORE JUMPDEST PUSH1 0x40 DUP2 ADD MLOAD DUP1 MLOAD SWAP1 PUSH1 0x1 PUSH1 0x1 PUSH1 0x40 SHL SUB DUP3 GT PUSH2 0x5D7 JUMPI DUP2 SWAP1 PUSH2 0x411 PUSH1 0x2 DUP7 ADD SLOAD PUSH2 0xA6A JUMP JUMPDEST PUSH1 0x1F DUP2 GT PUSH2 0x7EF JUMPI JUMPDEST POP PUSH1 0x20 SWAP1 PUSH1 0x1F DUP4 GT PUSH1 0x1 EQ PUSH2 0x77D JUMPI PUSH1 0x0 SWAP3 PUSH2 0x772 JUMPI JUMPDEST POP POP DUP2 PUSH1 0x1 SHL SWAP2 PUSH1 0x0 NOT SWAP1 PUSH1 0x3 SHL SHR NOT AND OR PUSH1 0x2 DUP4 ADD SSTORE JUMPDEST PUSH1 0x60 DUP2 ADD MLOAD DUP1 MLOAD SWAP1 PUSH1 0x1 PUSH1 0x1 PUSH1 0x40 SHL SUB DUP3 GT PUSH2 0x5D7 JUMPI PUSH2 0x46C PUSH1 0x3 DUP6 ADD SLOAD PUSH2 0xA6A JUMP JUMPDEST PUSH1 0x1F DUP2 GT PUSH2 0x72B JUMPI JUMPDEST POP PUSH1 0x20 SWAP1 PUSH1 0x1F DUP4 GT PUSH1 0x1 EQ PUSH2 0x6B8 JUMPI PUSH1 0x80 SWAP4 SWAP3 SWAP2 PUSH1 0x0 SWAP2 DUP4 PUSH2 0x6AD JUMPI JUMPDEST POP POP DUP2 PUSH1 0x1 SHL SWAP2 PUSH1 0x0 NOT SWAP1 PUSH1 0x3 SHL SHR NOT AND OR PUSH1 0x3 DUP5 ADD SSTORE JUMPDEST ADD MLOAD DUP1 MLOAD SWAP1 PUSH1 0x1 PUSH1 0x1 PUSH1 0x40 SHL SUB DUP3 GT PUSH2 0x5D7 JUMPI PUSH2 0x4CA PUSH1 0x4 DUP5 ADD SLOAD PUSH2 0xA6A JUMP JUMPDEST PUSH1 0x1F DUP2 GT PUSH2 0x666 JUMPI JUMPDEST POP PUSH1 0x20 SWAP1 PUSH1 0x1F DUP4 GT PUSH1 0x1 EQ PUSH2 0x5F8 JUMPI PUSH1 0x4 SWAP3 SWAP2 PUSH1 0x0 SWAP2 DUP4 PUSH2 0x5ED JUMPI JUMPDEST POP POP DUP2 PUSH1 0x1 SHL SWAP2 PUSH1 0x0 NOT SWAP1 PUSH1 0x3 SHL SHR NOT AND OR SWAP2 ADD SSTORE JUMPDEST PUSH1 0x2 SLOAD PUSH9 0x10000000000000000 DUP2 LT ISZERO PUSH2 0x5D7 JUMPI PUSH1 0x1 DUP2 ADD PUSH1 0x2 SSTORE PUSH2 0x529 SWAP1 PUSH2 0xC24 JUMP JUMPDEST DUP2 SLOAD PUSH1 0x1 PUSH1 0x1 PUSH1 0xA0 SHL SUB DUP11 DUP2 AND PUSH1 0x3 SWAP4 SWAP1 SWAP4 SHL SWAP3 DUP4 SHL SWAP3 SHL NOT AND OR SWAP1 SSTORE PUSH1 0x40 MLOAD PUSH1 0xA0 DUP1 DUP3 MSTORE SWAP1 SWAP11 DUP12 SWAP11 PUSH2 0x55E SWAP3 DUP13 ADD SWAP2 PUSH2 0xCB7 JUMP JUMPDEST SWAP1 DUP10 DUP3 SUB PUSH1 0x20 DUP12 ADD MSTORE PUSH2 0x570 SWAP3 PUSH2 0xCB7 JUMP JUMPDEST SWAP1 DUP8 DUP3 SUB PUSH1 0x40 DUP10 ADD MSTORE PUSH2 0x582 SWAP3 PUSH2 0xCB7 JUMP JUMPDEST SWAP1 DUP6 DUP3 SUB PUSH1 0x60 DUP8 ADD MSTORE PUSH2 0x594 SWAP3 PUSH2 0xCB7 JUMP JUMPDEST DUP4 DUP2 SUB PUSH1 0x80 DUP6 ADD MSTORE PUSH1 0x1 PUSH1 0x1 PUSH1 0xA0 SHL SUB SWAP1 SWAP2 AND SWAP5 PUSH2 0x5B1 SWAP3 PUSH2 0xCB7 JUMP JUMPDEST SUB PUSH32 0xC696A0F35460B487EEB96792BCDE0F7982DAAC961AA23EF0062126BC432707CC SWAP2 LOG2 STOP JUMPDEST PUSH4 0x4E487B71 PUSH1 0xE0 SHL PUSH1 0x0 MSTORE PUSH1 0x41 PUSH1 0x4 MSTORE PUSH1 0x24 PUSH1 0x0 REVERT JUMPDEST ADD MLOAD SWAP1 POP DUP16 DUP1 PUSH2 0x4EF JUMP JUMPDEST SWAP1 PUSH1 0x1F NOT DUP4 AND SWAP2 PUSH1 0x4 DUP6 ADD PUSH1 0x0 MSTORE PUSH1 0x20 PUSH1 0x0 KECCAK256 SWAP3 PUSH1 0x0 JUMPDEST DUP2 DUP2 LT PUSH2 0x64E JUMPI POP SWAP2 PUSH1 0x1 SWAP4 SWAP2 DUP6 PUSH1 0x4 SWAP7 SWAP5 LT PUSH2 0x635 JUMPI JUMPDEST POP POP POP DUP2 SHL ADD SWAP2 ADD SSTORE PUSH2 0x505 JUMP JUMPDEST ADD MLOAD PUSH1 0x0 NOT PUSH1 0xF8 DUP5 PUSH1 0x3 SHL AND SHR NOT AND SWAP1 SSTORE DUP16 DUP1 DUP1 PUSH2 0x627 JUMP JUMPDEST SWAP3 SWAP4 PUSH1 0x20 PUSH1 0x1 DUP2 SWAP3 DUP8 DUP7 ADD MLOAD DUP2 SSTORE ADD SWAP6 ADD SWAP4 ADD PUSH2 0x60F JUMP JUMPDEST PUSH1 0x4 DUP5 ADD PUSH1 0x0 MSTORE PUSH1 0x20 PUSH1 0x0 KECCAK256 PUSH1 0x1F DUP5 ADD PUSH1 0x5 SHR DUP2 ADD PUSH1 0x20 DUP6 LT PUSH2 0x6A6 JUMPI JUMPDEST PUSH1 0x1F DUP4 ADD PUSH1 0x5 SHR DUP3 ADD DUP2 LT PUSH2 0x69A JUMPI POP POP PUSH2 0x4D3 JUMP JUMPDEST PUSH1 0x0 DUP2 SSTORE PUSH1 0x1 ADD PUSH2 0x684 JUMP JUMPDEST POP DUP1 PUSH2 0x684 JUMP JUMPDEST ADD MLOAD SWAP1 POP CODESIZE DUP1 PUSH2 0x492 JUMP JUMPDEST SWAP1 PUSH1 0x3 DUP6 ADD PUSH1 0x0 MSTORE PUSH1 0x20 PUSH1 0x0 KECCAK256 SWAP2 PUSH1 0x0 JUMPDEST PUSH1 0x1F NOT DUP6 AND DUP2 LT PUSH2 0x713 JUMPI POP SWAP2 DUP4 SWAP2 PUSH1 0x1 SWAP4 PUSH1 0x80 SWAP7 SWAP6 PUSH1 0x1F NOT DUP2 AND LT PUSH2 0x6FA JUMPI JUMPDEST POP POP POP DUP2 SHL ADD PUSH1 0x3 DUP5 ADD SSTORE PUSH2 0x4AA JUMP JUMPDEST ADD MLOAD PUSH1 0x0 NOT PUSH1 0xF8 DUP5 PUSH1 0x3 SHL AND SHR NOT AND SWAP1 SSTORE CODESIZE DUP1 DUP1 PUSH2 0x6EA JUMP JUMPDEST SWAP2 SWAP3 PUSH1 0x20 PUSH1 0x1 DUP2 SWAP3 DUP7 DUP6 ADD MLOAD DUP2 SSTORE ADD SWAP5 ADD SWAP3 ADD PUSH2 0x6C9 JUMP JUMPDEST PUSH1 0x3 DUP6 ADD PUSH1 0x0 MSTORE PUSH1 0x20 PUSH1 0x0 KECCAK256 PUSH1 0x1F DUP5 ADD PUSH1 0x5 SHR DUP2 ADD PUSH1 0x20 DUP6 LT PUSH2 0x76B JUMPI JUMPDEST PUSH1 0x1F DUP4 ADD PUSH1 0x5 SHR DUP3 ADD DUP2 LT PUSH2 0x75F JUMPI POP POP PUSH2 0x475 JUMP JUMPDEST PUSH1 0x0 DUP2 SSTORE PUSH1 0x1 ADD PUSH2 0x749 JUMP JUMPDEST POP DUP1 PUSH2 0x749 JUMP JUMPDEST ADD MLOAD SWAP1 POP DUP16 DUP1 PUSH2 0x431 JUMP JUMPDEST SWAP3 POP PUSH1 0x2 DUP6 ADD PUSH1 0x0 MSTORE PUSH1 0x20 PUSH1 0x0 KECCAK256 SWAP1 PUSH1 0x0 SWAP4 JUMPDEST PUSH1 0x1F NOT DUP5 AND DUP6 LT PUSH2 0x7D4 JUMPI PUSH1 0x1 SWAP5 POP DUP4 PUSH1 0x1F NOT DUP2 AND LT PUSH2 0x7BB JUMPI JUMPDEST POP POP POP DUP2 SHL ADD PUSH1 0x2 DUP4 ADD SSTORE PUSH2 0x449 JUMP JUMPDEST ADD MLOAD PUSH1 0x0 NOT PUSH1 0xF8 DUP5 PUSH1 0x3 SHL AND SHR NOT AND SWAP1 SSTORE DUP16 DUP1 DUP1 PUSH2 0x7AB JUMP JUMPDEST DUP2 DUP2 ADD MLOAD DUP4 SSTORE PUSH1 0x20 SWAP5 DUP6 ADD SWAP5 PUSH1 0x1 SWAP1 SWAP4 ADD SWAP3 SWAP1 SWAP2 ADD SWAP1 PUSH2 0x790 JUMP JUMPDEST SWAP1 SWAP2 POP PUSH1 0x2 DUP6 ADD PUSH1 0x0 MSTORE PUSH1 0x20 PUSH1 0x0 KECCAK256 PUSH1 0x1F DUP5 ADD PUSH1 0x5 SHR DUP2 ADD PUSH1 0x20 DUP6 LT PUSH2 0x83B JUMPI JUMPDEST SWAP1 DUP5 SWAP4 SWAP3 SWAP2 JUMPDEST PUSH1 0x1F DUP4 ADD PUSH1 0x5 SHR DUP3 ADD DUP2 LT PUSH2 0x82C JUMPI POP POP PUSH2 0x41A JUMP JUMPDEST PUSH1 0x0 DUP2 SSTORE DUP6 SWAP5 POP PUSH1 0x1 ADD PUSH2 0x816 JUMP JUMPDEST POP DUP1 PUSH2 0x810 JUMP JUMPDEST ADD MLOAD SWAP1 POP DUP16 DUP1 PUSH2 0x3D4 JUMP JUMPDEST SWAP3 POP PUSH1 0x1 DUP6 ADD PUSH1 0x0 MSTORE PUSH1 0x20 PUSH1 0x0 KECCAK256 SWAP1 PUSH1 0x0 SWAP4 JUMPDEST PUSH1 0x1F NOT DUP5 AND DUP6 LT PUSH2 0x8A4 JUMPI PUSH1 0x1 SWAP5 POP DUP4 PUSH1 0x1F NOT DUP2 AND LT PUSH2 0x88B JUMPI JUMPDEST POP POP POP DUP2 SHL ADD PUSH1 0x1 DUP4 ADD SSTORE PUSH2 0x3EC JUMP JUMPDEST ADD MLOAD PUSH1 0x0 NOT PUSH1 0xF8 DUP5 PUSH1 0x3 SHL AND SHR NOT AND SWAP1 SSTORE DUP16 DUP1 DUP1 PUSH2 0x87B JUMP JUMPDEST DUP2 DUP2 ADD MLOAD DUP4 SSTORE PUSH1 0x20 SWAP5 DUP6 ADD SWAP5 PUSH1 0x1 SWAP1 SWAP4 ADD SWAP3 SWAP1 SWAP2 ADD SWAP1 PUSH2 0x860 JUMP JUMPDEST SWAP1 SWAP2 POP PUSH1 0x1 DUP6 ADD PUSH1 0x0 MSTORE PUSH1 0x20 PUSH1 0x0 KECCAK256 PUSH1 0x1F DUP5 ADD PUSH1 0x5 SHR DUP2 ADD PUSH1 0x20 DUP6 LT PUSH2 0x90B JUMPI JUMPDEST SWAP1 DUP5 SWAP4 SWAP3 SWAP2 JUMPDEST PUSH1 0x1F DUP4 ADD PUSH1 0x5 SHR DUP3 ADD DUP2 LT PUSH2 0x8FC JUMPI POP POP PUSH2 0x3BD JUMP JUMPDEST PUSH1 0x0 DUP2 SSTORE DUP6 SWAP5 POP PUSH1 0x1 ADD PUSH2 0x8E6 JUMP JUMPDEST POP DUP1 PUSH2 0x8E0 JUMP JUMPDEST ADD MLOAD SWAP1 POP DUP16 DUP1 PUSH2 0x37A JUMP JUMPDEST SWAP3 POP DUP5 PUSH1 0x0 MSTORE PUSH1 0x20 PUSH1 0x0 KECCAK256 SWAP1 PUSH1 0x0 SWAP4 JUMPDEST PUSH1 0x1F NOT DUP5 AND DUP6 LT PUSH2 0x96E JUMPI PUSH1 0x1 SWAP5 POP DUP4 PUSH1 0x1F NOT DUP2 AND LT PUSH2 0x955 JUMPI JUMPDEST POP POP POP DUP2 SHL ADD DUP3 SSTORE PUSH2 0x38F JUMP JUMPDEST ADD MLOAD PUSH1 0x0 NOT PUSH1 0xF8 DUP5 PUSH1 0x3 SHL AND SHR NOT AND SWAP1 SSTORE DUP16 DUP1 DUP1 PUSH2 0x948 JUMP JUMPDEST DUP2 DUP2 ADD MLOAD DUP4 SSTORE PUSH1 0x20 SWAP5 DUP6 ADD SWAP5 PUSH1 0x1 SWAP1 SWAP4 ADD SWAP3 SWAP1 SWAP2 ADD SWAP1 PUSH2 0x92D JUMP JUMPDEST SWAP1 SWAP2 POP DUP5 PUSH1 0x0 MSTORE PUSH1 0x20 PUSH1 0x0 KECCAK256 PUSH1 0x1F DUP5 ADD PUSH1 0x5 SHR DUP2 ADD PUSH1 0x20 DUP6 LT PUSH2 0x9D2 JUMPI JUMPDEST SWAP1 DUP5 SWAP4 SWAP3 SWAP2 JUMPDEST PUSH1 0x1F DUP4 ADD PUSH1 0x5 SHR DUP3 ADD DUP2 LT PUSH2 0x9C3 JUMPI POP POP PUSH2 0x363 JUMP JUMPDEST PUSH1 0x0 DUP2 SSTORE DUP6 SWAP5 POP PUSH1 0x1 ADD PUSH2 0x9AD JUMP JUMPDEST POP DUP1 PUSH2 0x9A7 JUMP JUMPDEST PUSH1 0x40 MLOAD PUSH3 0x461BCD PUSH1 0xE5 SHL DUP2 MSTORE PUSH1 0x20 PUSH1 0x4 DUP3 ADD MSTORE PUSH1 0xB PUSH1 0x24 DUP3 ADD MSTORE PUSH11 0x139BDD081CDD195DD85C99 PUSH1 0xAA SHL PUSH1 0x44 DUP3 ADD MSTORE PUSH1 0x64 SWAP1 REVERT JUMPDEST CALLVALUE PUSH2 0xA3 JUMPI PUSH1 0x0 CALLDATASIZE PUSH1 0x3 NOT ADD SLT PUSH2 0xA3 JUMPI PUSH1 0x20 SWAP1 PUSH1 0x2 SLOAD DUP2 MSTORE RETURN JUMPDEST PUSH1 0x4 CALLDATALOAD SWAP1 PUSH1 0x1 PUSH1 0x1 PUSH1 0xA0 SHL SUB DUP3 AND DUP3 SUB PUSH2 0xA3 JUMPI JUMP JUMPDEST SWAP2 DUP2 PUSH1 0x1F DUP5 ADD SLT ISZERO PUSH2 0xA3 JUMPI DUP3 CALLDATALOAD SWAP2 PUSH1 0x1 PUSH1 0x1 PUSH1 0x40 SHL SUB DUP4 GT PUSH2 0xA3 JUMPI PUSH1 0x20 DUP4 DUP2 DUP7 ADD SWAP6 ADD ADD GT PUSH2 0xA3 JUMPI JUMP JUMPDEST SWAP1 PUSH1 0x1 DUP3 DUP2 SHR SWAP3 AND DUP1 ISZERO PUSH2 0xA9A JUMPI JUMPDEST PUSH1 0x20 DUP4 LT EQ PUSH2 0xA84 JUMPI JUMP JUMPDEST PUSH4 0x4E487B71 PUSH1 0xE0 SHL PUSH1 0x0 MSTORE PUSH1 0x22 PUSH1 0x4 MSTORE PUSH1 0x24 PUSH1 0x0 REVERT JUMPDEST SWAP2 PUSH1 0x7F AND SWAP2 PUSH2 0xA79 JUMP JUMPDEST PUSH1 0xA0 DUP2 ADD SWAP1 DUP2 LT PUSH1 0x1 PUSH1 0x1 PUSH1 0x40 SHL SUB DUP3 GT OR PUSH2 0x5D7 JUMPI PUSH1 0x40 MSTORE JUMP JUMPDEST SWAP1 PUSH1 0x1F DUP1 NOT SWAP2 ADD AND DUP2 ADD SWAP1 DUP2 LT PUSH1 0x1 PUSH1 0x1 PUSH1 0x40 SHL SUB DUP3 GT OR PUSH2 0x5D7 JUMPI PUSH1 0x40 MSTORE JUMP JUMPDEST SWAP1 PUSH1 0x40 MLOAD SWAP2 DUP3 PUSH1 0x0 DUP3 SLOAD SWAP3 PUSH2 0xAF4 DUP5 PUSH2 0xA6A JUMP JUMPDEST SWAP1 DUP2 DUP5 MSTORE PUSH1 0x1 SWAP5 DUP6 DUP2 AND SWAP1 DUP2 PUSH1 0x0 EQ PUSH2 0xB63 JUMPI POP PUSH1 0x1 EQ PUSH2 0xB20 JUMPI JUMPDEST POP POP PUSH2 0xB1E SWAP3 POP SUB DUP4 PUSH2 0xABF JUMP JUMPDEST JUMP JUMPDEST SWAP1 SWAP4 SWAP2 POP PUSH1 0x0 MSTORE PUSH1 0x20 SWAP1 DUP2 PUSH1 0x0 KECCAK256 SWAP4 PUSH1 0x0 SWAP2 JUMPDEST DUP2 DUP4 LT PUSH2 0xB4B JUMPI POP POP PUSH2 0xB1E SWAP4 POP DUP3 ADD ADD CODESIZE DUP1 PUSH2 0xB10 JUMP JUMPDEST DUP6 SLOAD DUP9 DUP5 ADD DUP6 ADD MSTORE SWAP5 DUP6 ADD SWAP5 DUP8 SWAP5 POP SWAP2 DUP4 ADD SWAP2 PUSH2 0xB33 JUMP JUMPDEST SWAP2 POP POP PUSH2 0xB1E SWAP5 POP PUSH1 0x20 SWAP3 POP PUSH1 0xFF NOT AND DUP3 DUP5 ADD MSTORE ISZERO ISZERO PUSH1 0x5 SHL DUP3 ADD ADD CODESIZE DUP1 PUSH2 0xB10 JUMP JUMPDEST SWAP2 SWAP1 DUP3 MLOAD SWAP3 DUP4 DUP3 MSTORE PUSH1 0x0 JUMPDEST DUP5 DUP2 LT PUSH2 0xBB2 JUMPI POP POP DUP3 PUSH1 0x0 PUSH1 0x20 DUP1 SWAP5 SWAP6 DUP5 ADD ADD MSTORE PUSH1 0x1F DUP1 NOT SWAP2 ADD AND ADD ADD SWAP1 JUMP JUMPDEST PUSH1 0x20 DUP2 DUP4 ADD DUP2 ADD MLOAD DUP5 DUP4 ADD DUP3 ADD MSTORE ADD PUSH2 0xB91 JUMP JUMPDEST SWAP4 SWAP1 PUSH2 0xC21 SWAP6 SWAP4 PUSH2 0xBF7 PUSH2 0xC13 SWAP5 PUSH2 0xBE9 PUSH2 0xC05 SWAP5 PUSH1 0xA0 DUP11 MSTORE PUSH1 0xA0 DUP11 ADD SWAP1 PUSH2 0xB86 JUMP JUMPDEST SWAP1 DUP9 DUP3 SUB PUSH1 0x20 DUP11 ADD MSTORE PUSH2 0xB86 JUMP JUMPDEST SWAP1 DUP7 DUP3 SUB PUSH1 0x40 DUP9 ADD MSTORE PUSH2 0xB86 JUMP JUMPDEST SWAP1 DUP5 DUP3 SUB PUSH1 0x60 DUP7 ADD MSTORE PUSH2 0xB86 JUMP JUMPDEST SWAP2 PUSH1 0x80 DUP2 DUP5 SUB SWAP2 ADD MSTORE PUSH2 0xB86 JUMP JUMPDEST SWAP1 JUMP JUMPDEST PUSH1 0x2 SLOAD DUP2 LT ISZERO PUSH2 0xC5B JUMPI PUSH1 0x2 PUSH1 0x0 MSTORE PUSH32 0x405787FA12A823E0F2B7631CC41B3BA8828B3321CA811111FA75CD3AA3BB5ACE ADD SWAP1 PUSH1 0x0 SWAP1 JUMP JUMPDEST PUSH4 0x4E487B71 PUSH1 0xE0 SHL PUSH1 0x0 MSTORE PUSH1 0x32 PUSH1 0x4 MSTORE PUSH1 0x24 PUSH1 0x0 REVERT JUMPDEST SWAP3 SWAP2 SWAP3 PUSH1 0x1 PUSH1 0x1 PUSH1 0x40 SHL SUB DUP3 GT PUSH2 0x5D7 JUMPI PUSH1 0x40 MLOAD SWAP2 PUSH2 0xC9A PUSH1 0x1F DUP3 ADD PUSH1 0x1F NOT AND PUSH1 0x20 ADD DUP5 PUSH2 0xABF JUMP JUMPDEST DUP3 SWAP5 DUP2 DUP5 MSTORE DUP2 DUP4 ADD GT PUSH2 0xA3 JUMPI DUP3 DUP2 PUSH1 0x20 SWAP4 DUP5 PUSH1 0x0 SWAP7 ADD CALLDATACOPY ADD ADD MSTORE JUMP JUMPDEST SWAP1 DUP1 PUSH1 0x20 SWAP4 SWAP3 DUP2 DUP5 MSTORE DUP5 DUP5 ADD CALLDATACOPY PUSH1 0x0 DUP3 DUP3 ADD DUP5 ADD MSTORE PUSH1 0x1F ADD PUSH1 0x1F NOT AND ADD ADD SWAP1 JUMP INVALID LOG2 PUSH5 0x6970667358 0x22 SLT KECCAK256 PUSH26 0x353DE6354F08B759605D083143777966921480FE8AA95802E31 SWAP13 PUSH32 0x55628164736F6C63430008140033000000000000000000000000000000000000 "},"methodIdentifiers":{"apprentices(uint256)":"f31bee3e","getSummons(address)":"cf84c603","steward()":"637eea19","summonApprentice(address,string,string,string,string,string)":"34ea2527","summons(address)":"5a2ed662","totalSummons()":"2a17d4cd"}}}}}