{"contracts/registry/ApprenticeLineage.sol":{"ApprenticeLineage":{"abi":[{"inputs":[],"stateMutability":"nonpayable","type":"constructor"},{"anonymous":false,"inputs":[{"indexed":true,"internalType":"address","name":"apprentice","type":"address"},{"indexed":false,"internalType":"string","name":"name","type":"string"},{"indexed":false,"internalType":"string","name":"drift","type":"string"},{"indexed":false,"internalType":"string","name":"resonance","type":"string"}],"name":"LineageInscribed","type":"event"},{"inputs":[{"internalType":"address","name":"","type":"address"}],"name":"apprentices","outputs":[{"internalType":"string","name":"name","type":"string"},{"internalType":"string","name":"drift","type":"string"},{"internalType":"string","name":"resonance","type":"string"}],"stateMutability":"view","type":"function"},{"inputs":[{"internalType":"address","name":"apprentice","type":"address"}],"name":"getLineage","outputs":[{"internalType":"string","name":"","type":"string"},{"internalType":"string","name":"","type":"string"},{"internalType":"string","name":"","type":"string"}],"stateMutability":"view","type":"function"},{"inputs":[{"internalType":"address","name":"apprentice","type":"address"},{"internalType":"string","name":"name","type":"string"},{"internalType":"string","name":"drift","type":"string"},{"internalType":"string","name":"resonance","type":"string"}],"name":"inscribeLineage","outputs":[],"stateMutability":"nonpayable","type":"function"},{"inputs":[{"internalType":"uint256","name":"","type":"uint256"}],"name":"keys","outputs":[{"internalType":"address","name":"","type":"address"}],"stateMutability":"view","type":"function"},{"inputs":[],"name":"steward","outputs":[{"internalType":"address","name":"","type":"address"}],"stateMutability":"view","type":"function"},{"inputs":[],"name":"totalLineages","outputs":[{"internalType":"uint256","name":"","type":"uint256"}],"stateMutability":"view","type":"function"}],"evm":{"bytecode":{"linkReferences":{},"object":"6080806040523461002857600080546001600160a01b031916331790556109d6908161002e8239f35b600080fdfe604060808152600436101561001357600080fd5b60003560e01c80630cb6aaf1146106ce57806346a2a8d7146106535780634f7982f11461010f578063637eea19146100e65780638c636746146100c75763c44547271461005f57600080fd5b346100c25760203660031901126100c2576001600160a01b0361008061075c565b16600052600160205280600020906100be61009a83610892565b916100b360026100ac60018701610892565b9501610892565b9051938493846107b2565b0390f35b600080fd5b50346100c25760003660031901126100c2576020906002549051908152f35b50346100c25760003660031901126100c25760005490516001600160a01b039091168152602090f35b50346100c25760803660031901126100c25761012961075c565b9060243567ffffffffffffffff81116100c25761014a9036906004016107ec565b60443567ffffffffffffffff81116100c25761016a9036906004016107ec565b909360643567ffffffffffffffff81116100c25761018c9036906004016107ec565b600054919790916001600160a01b031633036106215782516101ad81610854565b6101b8368789610938565b81526101c536868a610938565b60208201526101d536848b610938565b8482015260018060a01b03821660005260016020528360002090805180519067ffffffffffffffff82116103ad57819061020f855461081a565b601f81116105d1575b50602090601f83116001146105655760009261055a575b50508160011b916000199060031b1c19161782555b602081015190815167ffffffffffffffff81116103ad57869261026a600186015461081a565b601f8111610503575b50602090601f831160011461048e576000919083610483575b50508160011b916000199060031b1c19161760018401555b015180519067ffffffffffffffff82116103ad576102c5600284015461081a565b601f811161043c575b50602090601f83116001146103ce5760029291600091836103c3575b50508160011b916000199060031b1c1916179101555b600254680100000000000000008110156103ad577f153b09cf4cf5461ffd51a54d69438f50118269ed6d8bf823ba7c04eff4ef55e2976103a89561034d83600161038f950160025561070f565b81546001600160a01b0387811660039390931b92831b921b19161790558551606080825290998a99610381928b019161097f565b9188830360208a015261097f565b858103938601939093526001600160a01b03169661097f565b0390a2005b634e487b7160e01b600052604160045260246000fd5b0151905038806102ea565b90601f198316916002850160005260206000209260005b8181106104245750916001939185600296941061040b575b505050811b01910155610300565b015160001960f88460031b161c191690553880806103fd565b929360206001819287860151815501950193016103e5565b600284016000526020600020601f840160051c81016020851061047c575b601f830160051c820181106104705750506102ce565b6000815560010161045a565b508061045a565b01519050388061028c565b939291906001860160005260206000209060005b601f19841681106104e85750600193949583601f198116106104cf575b505050811b0160018401556102a4565b015160001960f88460031b161c191690553880806104bf565b8682015183558a9550600190920191602091820191016104a2565b9091929350600185016000526020600020601f840160051c810160208510610553575b908995949392915b601f830160051c82018110610544575050610273565b600081558a965060010161052e565b5080610526565b01519050388061022f565b9250846000526020600020906000935b601f19841685106105b6576001945083601f1981161061059d575b505050811b018255610244565b015160001960f88460031b161c19169055388080610590565b81810151835560209485019460019093019290910190610575565b909150846000526020600020601f840160051c81016020851061061a575b90849392915b601f830160051c8201811061060b575050610218565b600081558594506001016105f5565b50806105ef565b825162461bcd60e51b815260206004820152600b60248201526a139bdd081cdd195dd85c9960aa1b6044820152606490fd5b50346100c25760203660031901126100c2576001600160a01b0361067561075c565b166000526001602052806000206100be825161069081610854565b61069983610892565b81526106ba60026106ac60018601610892565b946020840195865201610892565b9081858201525192519351938493846107b2565b50346100c25760203660031901126100c257600435906002548210156100c2576106f960209261070f565b905491519160018060a01b039160031b1c168152f35b6002548110156107465760026000527f405787fa12a823e0f2b7631cc41b3ba8828b3321ca811111fa75cd3aa3bb5ace0190600090565b634e487b7160e01b600052603260045260246000fd5b600435906001600160a01b03821682036100c257565b919082519283825260005b84811061079e575050826000602080949584010152601f8019910116010190565b60208183018101518483018201520161077d565b916107db906107cd6107e99593606086526060860190610772565b908482036020860152610772565b916040818403910152610772565b90565b9181601f840112156100c25782359167ffffffffffffffff83116100c257602083818601950101116100c257565b90600182811c9216801561084a575b602083101461083457565b634e487b7160e01b600052602260045260246000fd5b91607f1691610829565b6060810190811067ffffffffffffffff8211176103ad57604052565b90601f8019910116810190811067ffffffffffffffff8211176103ad57604052565b90604051918260008254926108a68461081a565b90818452600194858116908160001461091557506001146108d2575b50506108d092500383610870565b565b9093915060005260209081600020936000915b8183106108fd5750506108d0935082010138806108c2565b855488840185015294850194879450918301916108e5565b9150506108d094506020925060ff191682840152151560051b82010138806108c2565b92919267ffffffffffffffff82116103ad5760405191610962601f8201601f191660200184610870565b8294818452818301116100c2578281602093846000960137010152565b908060209392818452848401376000828201840152601f01601f191601019056fea2646970667358221220d9a885a5c4e25c80bd8a76554f2fd9e8ab79901cb2cb4912e1c3b2b6db66686e64736f6c63430008140033","opcodes":"PUSH1 0x80 DUP1 PUSH1 0x40 MSTORE CALLVALUE PUSH2 0x28 JUMPI PUSH1 0x0 DUP1 SLOAD PUSH1 0x1 PUSH1 0x1 PUSH1 0xA0 SHL SUB NOT AND CALLER OR SWAP1 SSTORE PUSH2 0x9D6 SWAP1 DUP2 PUSH2 0x2E DUP3 CODECOPY RETURN JUMPDEST PUSH1 0x0 DUP1 REVERT INVALID PUSH1 0x40 PUSH1 0x80 DUP2 MSTORE PUSH1 0x4 CALLDATASIZE LT ISZERO PUSH2 0x13 JUMPI PUSH1 0x0 DUP1 REVERT JUMPDEST PUSH1 0x0 CALLDATALOAD PUSH1 0xE0 SHR DUP1 PUSH4 0xCB6AAF1 EQ PUSH2 0x6CE JUMPI DUP1 PUSH4 0x46A2A8D7 EQ PUSH2 0x653 JUMPI DUP1 PUSH4 0x4F7982F1 EQ PUSH2 0x10F JUMPI DUP1 PUSH4 0x637EEA19 EQ PUSH2 0xE6 JUMPI DUP1 PUSH4 0x8C636746 EQ PUSH2 0xC7 JUMPI PUSH4 0xC4454727 EQ PUSH2 0x5F JUMPI PUSH1 0x0 DUP1 REVERT JUMPDEST CALLVALUE PUSH2 0xC2 JUMPI PUSH1 0x20 CALLDATASIZE PUSH1 0x3 NOT ADD SLT PUSH2 0xC2 JUMPI PUSH1 0x1 PUSH1 0x1 PUSH1 0xA0 SHL SUB PUSH2 0x80 PUSH2 0x75C JUMP JUMPDEST AND PUSH1 0x0 MSTORE PUSH1 0x1 PUSH1 0x20 MSTORE DUP1 PUSH1 0x0 KECCAK256 SWAP1 PUSH2 0xBE PUSH2 0x9A DUP4 PUSH2 0x892 JUMP JUMPDEST SWAP2 PUSH2 0xB3 PUSH1 0x2 PUSH2 0xAC PUSH1 0x1 DUP8 ADD PUSH2 0x892 JUMP JUMPDEST SWAP6 ADD PUSH2 0x892 JUMP JUMPDEST SWAP1 MLOAD SWAP4 DUP5 SWAP4 DUP5 PUSH2 0x7B2 JUMP JUMPDEST SUB SWAP1 RETURN JUMPDEST PUSH1 0x0 DUP1 REVERT JUMPDEST POP CALLVALUE PUSH2 0xC2 JUMPI PUSH1 0x0 CALLDATASIZE PUSH1 0x3 NOT ADD SLT PUSH2 0xC2 JUMPI PUSH1 0x20 SWAP1 PUSH1 0x2 SLOAD SWAP1 MLOAD SWAP1 DUP2 MSTORE RETURN JUMPDEST POP CALLVALUE PUSH2 0xC2 JUMPI PUSH1 0x0 CALLDATASIZE PUSH1 0x3 NOT ADD SLT PUSH2 0xC2 JUMPI PUSH1 0x0 SLOAD SWAP1 MLOAD PUSH1 0x1 PUSH1 0x1 PUSH1 0xA0 SHL SUB SWAP1 SWAP2 AND DUP2 MSTORE PUSH1 0x20 SWAP1 RETURN JUMPDEST POP CALLVALUE PUSH2 0xC2 JUMPI PUSH1 0x80 CALLDATASIZE PUSH1 0x3 NOT ADD SLT PUSH2 0xC2 JUMPI PUSH2 0x129 PUSH2 0x75C JUMP JUMPDEST SWAP1 PUSH1 0x24 CALLDATALOAD PUSH8 0xFFFFFFFFFFFFFFFF DUP2 GT PUSH2 0xC2 JUMPI PUSH2 0x14A SWAP1 CALLDATASIZE SWAP1 PUSH1 0x4 ADD PUSH2 0x7EC JUMP JUMPDEST PUSH1 0x44 CALLDATALOAD PUSH8 0xFFFFFFFFFFFFFFFF DUP2 GT PUSH2 0xC2 JUMPI PUSH2 0x16A SWAP1 CALLDATASIZE SWAP1 PUSH1 0x4 ADD PUSH2 0x7EC JUMP JUMPDEST SWAP1 SWAP4 PUSH1 0x64 CALLDATALOAD PUSH8 0xFFFFFFFFFFFFFFFF DUP2 GT PUSH2 0xC2 JUMPI PUSH2 0x18C SWAP1 CALLDATASIZE SWAP1 PUSH1 0x4 ADD PUSH2 0x7EC JUMP JUMPDEST PUSH1 0x0 SLOAD SWAP2 SWAP8 SWAP1 SWAP2 PUSH1 0x1 PUSH1 0x1 PUSH1 0xA0 SHL SUB AND CALLER SUB PUSH2 0x621 JUMPI DUP3 MLOAD PUSH2 0x1AD DUP2 PUSH2 0x854 JUMP JUMPDEST PUSH2 0x1B8 CALLDATASIZE DUP8 DUP10 PUSH2 0x938 JUMP JUMPDEST DUP2 MSTORE PUSH2 0x1C5 CALLDATASIZE DUP7 DUP11 PUSH2 0x938 JUMP JUMPDEST PUSH1 0x20 DUP3 ADD MSTORE PUSH2 0x1D5 CALLDATASIZE DUP5 DUP12 PUSH2 0x938 JUMP JUMPDEST DUP5 DUP3 ADD MSTORE PUSH1 0x1 DUP1 PUSH1 0xA0 SHL SUB DUP3 AND PUSH1 0x0 MSTORE PUSH1 0x1 PUSH1 0x20 MSTORE DUP4 PUSH1 0x0 KECCAK256 SWAP1 DUP1 MLOAD DUP1 MLOAD SWAP1 PUSH8 0xFFFFFFFFFFFFFFFF DUP3 GT PUSH2 0x3AD JUMPI DUP2 SWAP1 PUSH2 0x20F DUP6 SLOAD PUSH2 0x81A JUMP JUMPDEST PUSH1 0x1F DUP2 GT PUSH2 0x5D1 JUMPI JUMPDEST POP PUSH1 0x20 SWAP1 PUSH1 0x1F DUP4 GT PUSH1 0x1 EQ PUSH2 0x565 JUMPI PUSH1 0x0 SWAP3 PUSH2 0x55A JUMPI JUMPDEST POP POP DUP2 PUSH1 0x1 SHL SWAP2 PUSH1 0x0 NOT SWAP1 PUSH1 0x3 SHL SHR NOT AND OR DUP3 SSTORE JUMPDEST PUSH1 0x20 DUP2 ADD MLOAD SWAP1 DUP2 MLOAD PUSH8 0xFFFFFFFFFFFFFFFF DUP2 GT PUSH2 0x3AD JUMPI DUP7 SWAP3 PUSH2 0x26A PUSH1 0x1 DUP7 ADD SLOAD PUSH2 0x81A JUMP JUMPDEST PUSH1 0x1F DUP2 GT PUSH2 0x503 JUMPI JUMPDEST POP PUSH1 0x20 SWAP1 PUSH1 0x1F DUP4 GT PUSH1 0x1 EQ PUSH2 0x48E JUMPI PUSH1 0x0 SWAP2 SWAP1 DUP4 PUSH2 0x483 JUMPI JUMPDEST POP POP DUP2 PUSH1 0x1 SHL SWAP2 PUSH1 0x0 NOT SWAP1 PUSH1 0x3 SHL SHR NOT AND OR PUSH1 0x1 DUP5 ADD SSTORE JUMPDEST ADD MLOAD DUP1 MLOAD SWAP1 PUSH8 0xFFFFFFFFFFFFFFFF DUP3 GT PUSH2 0x3AD JUMPI PUSH2 0x2C5 PUSH1 0x2 DUP5 ADD SLOAD PUSH2 0x81A JUMP JUMPDEST PUSH1 0x1F DUP2 GT PUSH2 0x43C JUMPI JUMPDEST POP PUSH1 0x20 SWAP1 PUSH1 0x1F DUP4 GT PUSH1 0x1 EQ PUSH2 0x3CE JUMPI PUSH1 0x2 SWAP3 SWAP2 PUSH1 0x0 SWAP2 DUP4 PUSH2 0x3C3 JUMPI JUMPDEST POP POP DUP2 PUSH1 0x1 SHL SWAP2 PUSH1 0x0 NOT SWAP1 PUSH1 0x3 SHL SHR NOT AND OR SWAP2 ADD SSTORE JUMPDEST PUSH1 0x2 SLOAD PUSH9 0x10000000000000000 DUP2 LT ISZERO PUSH2 0x3AD JUMPI PUSH32 0x153B09CF4CF5461FFD51A54D69438F50118269ED6D8BF823BA7C04EFF4EF55E2 SWAP8 PUSH2 0x3A8 SWAP6 PUSH2 0x34D DUP4 PUSH1 0x1 PUSH2 0x38F SWAP6 ADD PUSH1 0x2 SSTORE PUSH2 0x70F JUMP JUMPDEST DUP2 SLOAD PUSH1 0x1 PUSH1 0x1 PUSH1 0xA0 SHL SUB DUP8 DUP2 AND PUSH1 0x3 SWAP4 SWAP1 SWAP4 SHL SWAP3 DUP4 SHL SWAP3 SHL NOT AND OR SWAP1 SSTORE DUP6 MLOAD PUSH1 0x60 DUP1 DUP3 MSTORE SWAP1 SWAP10 DUP11 SWAP10 PUSH2 0x381 SWAP3 DUP12 ADD SWAP2 PUSH2 0x97F JUMP JUMPDEST SWAP2 DUP9 DUP4 SUB PUSH1 0x20 DUP11 ADD MSTORE PUSH2 0x97F JUMP JUMPDEST DUP6 DUP2 SUB SWAP4 DUP7 ADD SWAP4 SWAP1 SWAP4 MSTORE PUSH1 0x1 PUSH1 0x1 PUSH1 0xA0 SHL SUB AND SWAP7 PUSH2 0x97F JUMP JUMPDEST SUB SWAP1 LOG2 STOP JUMPDEST PUSH4 0x4E487B71 PUSH1 0xE0 SHL PUSH1 0x0 MSTORE PUSH1 0x41 PUSH1 0x4 MSTORE PUSH1 0x24 PUSH1 0x0 REVERT JUMPDEST ADD MLOAD SWAP1 POP CODESIZE DUP1 PUSH2 0x2EA JUMP JUMPDEST SWAP1 PUSH1 0x1F NOT DUP4 AND SWAP2 PUSH1 0x2 DUP6 ADD PUSH1 0x0 MSTORE PUSH1 0x20 PUSH1 0x0 KECCAK256 SWAP3 PUSH1 0x0 JUMPDEST DUP2 DUP2 LT PUSH2 0x424 JUMPI POP SWAP2 PUSH1 0x1 SWAP4 SWAP2 DUP6 PUSH1 0x2 SWAP7 SWAP5 LT PUSH2 0x40B JUMPI JUMPDEST POP POP POP DUP2 SHL ADD SWAP2 ADD SSTORE PUSH2 0x300 JUMP JUMPDEST ADD MLOAD PUSH1 0x0 NOT PUSH1 0xF8 DUP5 PUSH1 0x3 SHL AND SHR NOT AND SWAP1 SSTORE CODESIZE DUP1 DUP1 PUSH2 0x3FD JUMP JUMPDEST SWAP3 SWAP4 PUSH1 0x20 PUSH1 0x1 DUP2 SWAP3 DUP8 DUP7 ADD MLOAD DUP2 SSTORE ADD SWAP6 ADD SWAP4 ADD PUSH2 0x3E5 JUMP JUMPDEST PUSH1 0x2 DUP5 ADD PUSH1 0x0 MSTORE PUSH1 0x20 PUSH1 0x0 KECCAK256 PUSH1 0x1F DUP5 ADD PUSH1 0x5 SHR DUP2 ADD PUSH1 0x20 DUP6 LT PUSH2 0x47C JUMPI JUMPDEST PUSH1 0x1F DUP4 ADD PUSH1 0x5 SHR DUP3 ADD DUP2 LT PUSH2 0x470 JUMPI POP POP PUSH2 0x2CE JUMP JUMPDEST PUSH1 0x0 DUP2 SSTORE PUSH1 0x1 ADD PUSH2 0x45A JUMP JUMPDEST POP DUP1 PUSH2 0x45A JUMP JUMPDEST ADD MLOAD SWAP1 POP CODESIZE DUP1 PUSH2 0x28C JUMP JUMPDEST SWAP4 SWAP3 SWAP2 SWAP1 PUSH1 0x1 DUP7 ADD PUSH1 0x0 MSTORE PUSH1 0x20 PUSH1 0x0 KECCAK256 SWAP1 PUSH1 0x0 JUMPDEST PUSH1 0x1F NOT DUP5 AND DUP2 LT PUSH2 0x4E8 JUMPI POP PUSH1 0x1 SWAP4 SWAP5 SWAP6 DUP4 PUSH1 0x1F NOT DUP2 AND LT PUSH2 0x4CF JUMPI JUMPDEST POP POP POP DUP2 SHL ADD PUSH1 0x1 DUP5 ADD SSTORE PUSH2 0x2A4 JUMP JUMPDEST ADD MLOAD PUSH1 0x0 NOT PUSH1 0xF8 DUP5 PUSH1 0x3 SHL AND SHR NOT AND SWAP1 SSTORE CODESIZE DUP1 DUP1 PUSH2 0x4BF JUMP JUMPDEST DUP7 DUP3 ADD MLOAD DUP4 SSTORE DUP11 SWAP6 POP PUSH1 0x1 SWAP1 SWAP3 ADD SWAP2 PUSH1 0x20 SWAP2 DUP3 ADD SWAP2 ADD PUSH2 0x4A2 JUMP JUMPDEST SWAP1 SWAP2 SWAP3 SWAP4 POP PUSH1 0x1 DUP6 ADD PUSH1 0x0 MSTORE PUSH1 0x20 PUSH1 0x0 KECCAK256 PUSH1 0x1F DUP5 ADD PUSH1 0x5 SHR DUP2 ADD PUSH1 0x20 DUP6 LT PUSH2 0x553 JUMPI JUMPDEST SWAP1 DUP10 SWAP6 SWAP5 SWAP4 SWAP3 SWAP2 JUMPDEST PUSH1 0x1F DUP4 ADD PUSH1 0x5 SHR DUP3 ADD DUP2 LT PUSH2 0x544 JUMPI POP POP PUSH2 0x273 JUMP JUMPDEST PUSH1 0x0 DUP2 SSTORE DUP11 SWAP7 POP PUSH1 0x1 ADD PUSH2 0x52E JUMP JUMPDEST POP DUP1 PUSH2 0x526 JUMP JUMPDEST ADD MLOAD SWAP1 POP CODESIZE DUP1 PUSH2 0x22F JUMP JUMPDEST SWAP3 POP DUP5 PUSH1 0x0 MSTORE PUSH1 0x20 PUSH1 0x0 KECCAK256 SWAP1 PUSH1 0x0 SWAP4 JUMPDEST PUSH1 0x1F NOT DUP5 AND DUP6 LT PUSH2 0x5B6 JUMPI PUSH1 0x1 SWAP5 POP DUP4 PUSH1 0x1F NOT DUP2 AND LT PUSH2 0x59D JUMPI JUMPDEST POP POP POP DUP2 SHL ADD DUP3 SSTORE PUSH2 0x244 JUMP JUMPDEST ADD MLOAD PUSH1 0x0 NOT PUSH1 0xF8 DUP5 PUSH1 0x3 SHL AND SHR NOT AND SWAP1 SSTORE CODESIZE DUP1 DUP1 PUSH2 0x590 JUMP JUMPDEST DUP2 DUP2 ADD MLOAD DUP4 SSTORE PUSH1 0x20 SWAP5 DUP6 ADD SWAP5 PUSH1 0x1 SWAP1 SWAP4 ADD SWAP3 SWAP1 SWAP2 ADD SWAP1 PUSH2 0x575 JUMP JUMPDEST SWAP1 SWAP2 POP DUP5 PUSH1 0x0 MSTORE PUSH1 0x20 PUSH1 0x0 KECCAK256 PUSH1 0x1F DUP5 ADD PUSH1 0x5 SHR DUP2 ADD PUSH1 0x20 DUP6 LT PUSH2 0x61A JUMPI JUMPDEST SWAP1 DUP5 SWAP4 SWAP3 SWAP2 JUMPDEST PUSH1 0x1F DUP4 ADD PUSH1 0x5 SHR DUP3 ADD DUP2 LT PUSH2 0x60B JUMPI POP POP PUSH2 0x218 JUMP JUMPDEST PUSH1 0x0 DUP2 SSTORE DUP6 SWAP5 POP PUSH1 0x1 ADD PUSH2 0x5F5 JUMP JUMPDEST POP DUP1 PUSH2 0x5EF JUMP JUMPDEST DUP3 MLOAD PUSH3 0x461BCD PUSH1 0xE5 SHL DUP2 MSTORE PUSH1 0x20 PUSH1 0x4 DUP3 ADD MSTORE PUSH1 0xB PUSH1 0x24 DUP3 ADD MSTORE PUSH11 0x139BDD081CDD195DD85C99 PUSH1 0xAA SHL PUSH1 0x44 DUP3 ADD MSTORE PUSH1 0x64 SWAP1 REVERT JUMPDEST POP CALLVALUE PUSH2 0xC2 JUMPI PUSH1 0x20 CALLDATASIZE PUSH1 0x3 NOT ADD SLT PUSH2 0xC2 JUMPI PUSH1 0x1 PUSH1 0x1 PUSH1 0xA0 SHL SUB PUSH2 0x675 PUSH2 0x75C JUMP JUMPDEST AND PUSH1 0x0 MSTORE PUSH1 0x1 PUSH1 0x20 MSTORE DUP1 PUSH1 0x0 KECCAK256 PUSH2 0xBE DUP3 MLOAD PUSH2 0x690 DUP2 PUSH2 0x854 JUMP JUMPDEST PUSH2 0x699 DUP4 PUSH2 0x892 JUMP JUMPDEST DUP2 MSTORE PUSH2 0x6BA PUSH1 0x2 PUSH2 0x6AC PUSH1 0x1 DUP7 ADD PUSH2 0x892 JUMP JUMPDEST SWAP5 PUSH1 0x20 DUP5 ADD SWAP6 DUP7 MSTORE ADD PUSH2 0x892 JUMP JUMPDEST SWAP1 DUP2 DUP6 DUP3 ADD MSTORE MLOAD SWAP3 MLOAD SWAP4 MLOAD SWAP4 DUP5 SWAP4 DUP5 PUSH2 0x7B2 JUMP JUMPDEST POP CALLVALUE PUSH2 0xC2 JUMPI PUSH1 0x20 CALLDATASIZE PUSH1 0x3 NOT ADD SLT PUSH2 0xC2 JUMPI PUSH1 0x4 CALLDATALOAD SWAP1 PUSH1 0x2 SLOAD DUP3 LT ISZERO PUSH2 0xC2 JUMPI PUSH2 0x6F9 PUSH1 0x20 SWAP3 PUSH2 0x70F JUMP JUMPDEST SWAP1 SLOAD SWAP2 MLOAD SWAP2 PUSH1 0x1 DUP1 PUSH1 0xA0 SHL SUB SWAP2 PUSH1 0x3 SHL SHR AND DUP2 MSTORE RETURN JUMPDEST PUSH1 0x2 SLOAD DUP2 LT ISZERO PUSH2 0x746 JUMPI PUSH1 0x2 PUSH1 0x0 MSTORE PUSH32 0x405787FA12A823E0F2B7631CC41B3BA8828B3321CA811111FA75CD3AA3BB5ACE ADD SWAP1 PUSH1 0x0 SWAP1 JUMP JUMPDEST PUSH4 0x4E487B71 PUSH1 0xE0 SHL PUSH1 0x0 MSTORE PUSH1 0x32 PUSH1 0x4 MSTORE PUSH1 0x24 PUSH1 0x0 REVERT JUMPDEST PUSH1 0x4 CALLDATALOAD SWAP1 PUSH1 0x1 PUSH1 0x1 PUSH1 0xA0 SHL SUB DUP3 AND DUP3 SUB PUSH2 0xC2 JUMPI JUMP JUMPDEST SWAP2 SWAP1 DUP3 MLOAD SWAP3 DUP4 DUP3 MSTORE PUSH1 0x0 JUMPDEST DUP5 DUP2 LT PUSH2 0x79E JUMPI POP POP DUP3 PUSH1 0x0 PUSH1 0x20 DUP1 SWAP5 SWAP6 DUP5 ADD ADD MSTORE PUSH1 0x1F DUP1 NOT SWAP2 ADD AND ADD ADD SWAP1 JUMP JUMPDEST PUSH1 0x20 DUP2 DUP4 ADD DUP2 ADD MLOAD DUP5 DUP4 ADD DUP3 ADD MSTORE ADD PUSH2 0x77D JUMP JUMPDEST SWAP2 PUSH2 0x7DB SWAP1 PUSH2 0x7CD PUSH2 0x7E9 SWAP6 SWAP4 PUSH1 0x60 DUP7 MSTORE PUSH1 0x60 DUP7 ADD SWAP1 PUSH2 0x772 JUMP JUMPDEST SWAP1 DUP5 DUP3 SUB PUSH1 0x20 DUP7 ADD MSTORE PUSH2 0x772 JUMP JUMPDEST SWAP2 PUSH1 0x40 DUP2 DUP5 SUB SWAP2 ADD MSTORE PUSH2 0x772 JUMP JUMPDEST SWAP1 JUMP JUMPDEST SWAP2 DUP2 PUSH1 0x1F DUP5 ADD SLT ISZERO PUSH2 0xC2 JUMPI DUP3 CALLDATALOAD SWAP2 PUSH8 0xFFFFFFFFFFFFFFFF DUP4 GT PUSH2 0xC2 JUMPI PUSH1 0x20 DUP4 DUP2 DUP7 ADD SWAP6 ADD ADD GT PUSH2 0xC2 JUMPI JUMP JUMPDEST SWAP1 PUSH1 0x1 DUP3 DUP2 SHR SWAP3 AND DUP1 ISZERO PUSH2 0x84A JUMPI JUMPDEST PUSH1 0x20 DUP4 LT EQ PUSH2 0x834 JUMPI JUMP JUMPDEST PUSH4 0x4E487B71 PUSH1 0xE0 SHL PUSH1 0x0 MSTORE PUSH1 0x22 PUSH1 0x4 MSTORE PUSH1 0x24 PUSH1 0x0 REVERT JUMPDEST SWAP2 PUSH1 0x7F AND SWAP2 PUSH2 0x829 JUMP JUMPDEST PUSH1 0x60 DUP2 ADD SWAP1 DUP2 LT PUSH8 0xFFFFFFFFFFFFFFFF DUP3 GT OR PUSH2 0x3AD JUMPI PUSH1 0x40 MSTORE JUMP JUMPDEST SWAP1 PUSH1 0x1F DUP1 NOT SWAP2 ADD AND DUP2 ADD SWAP1 DUP2 LT PUSH8 0xFFFFFFFFFFFFFFFF DUP3 GT OR PUSH2 0x3AD JUMPI PUSH1 0x40 MSTORE JUMP JUMPDEST SWAP1 PUSH1 0x40 MLOAD SWAP2 DUP3 PUSH1 0x0 DUP3 SLOAD SWAP3 PUSH2 0x8A6 DUP5 PUSH2 0x81A JUMP JUMPDEST SWAP1 DUP2 DUP5 MSTORE PUSH1 0x1 SWAP5 DUP6 DUP2 AND SWAP1 DUP2 PUSH1 0x0 EQ PUSH2 0x915 JUMPI POP PUSH1 0x1 EQ PUSH2 0x8D2 JUMPI JUMPDEST POP POP PUSH2 0x8D0 SWAP3 POP SUB DUP4 PUSH2 0x870 JUMP JUMPDEST JUMP JUMPDEST SWAP1 SWAP4 SWAP2 POP PUSH1 0x0 MSTORE PUSH1 0x20 SWAP1 DUP2 PUSH1 0x0 KECCAK256 SWAP4 PUSH1 0x0 SWAP2 JUMPDEST DUP2 DUP4 LT PUSH2 0x8FD JUMPI POP POP PUSH2 0x8D0 SWAP4 POP DUP3 ADD ADD CODESIZE DUP1 PUSH2 0x8C2 JUMP JUMPDEST DUP6 SLOAD DUP9 DUP5 ADD DUP6 ADD MSTORE SWAP5 DUP6 ADD SWAP5 DUP8 SWAP5 POP SWAP2 DUP4 ADD SWAP2 PUSH2 0x8E5 JUMP JUMPDEST SWAP2 POP POP PUSH2 0x8D0 SWAP5 POP PUSH1 0x20 SWAP3 POP PUSH1 0xFF NOT AND DUP3 DUP5 ADD MSTORE ISZERO ISZERO PUSH1 0x5 SHL DUP3 ADD ADD CODESIZE DUP1 PUSH2 0x8C2 JUMP JUMPDEST SWAP3 SWAP2 SWAP3 PUSH8 0xFFFFFFFFFFFFFFFF DUP3 GT PUSH2 0x3AD JUMPI PUSH1 0x40 MLOAD SWAP2 PUSH2 0x962 PUSH1 0x1F DUP3 ADD PUSH1 0x1F NOT AND PUSH1 0x20 ADD DUP5 PUSH2 0x870 JUMP JUMPDEST DUP3 SWAP5 DUP2 DUP5 MSTORE DUP2 DUP4 ADD GT PUSH2 0xC2 JUMPI DUP3 DUP2 PUSH1 0x20 SWAP4 DUP5 PUSH1 0x0 SWAP7 ADD CALLDATACOPY ADD ADD MSTORE JUMP JUMPDEST SWAP1 DUP1 PUSH1 0x20 SWAP4 SWAP3 DUP2 DUP5 MSTORE DUP5 DUP5 ADD CALLDATACOPY PUSH1 0x0 DUP3 DUP3 ADD DUP5 ADD MSTORE PUSH1 0x1F ADD PUSH1 0x1F NOT AND ADD ADD SWAP1 JUMP INVALID LOG2 PUSH5 0x6970667358 0x22 SLT KECCAK256 0xD9 0xA8 DUP6 0xA5 0xC4 0xE2 0x5C DUP1 0xBD DUP11 PUSH23 0x554F2FD9E8AB79901CB2CB4912E1C3B2B6DB66686E6473 PUSH16 0x6C634300081400330000000000000000 "},"methodIdentifiers":{"apprentices(address)":"c4454727","getLineage(address)":"46a2a8d7","inscribeLineage(address,string,string,string)":"4f7982f1","keys(uint256)":"0cb6aaf1","steward()":"637eea19","totalLineages()":"8c636746"}}}}}