{"contracts/Oculvis.sol":{"Oculvis":{"abi":[{"anonymous":false,"inputs":[{"indexed":true,"internalType":"address","name":"apprentice","type":"address"}],"name":"CompanionActivated","type":"event"},{"anonymous":false,"inputs":[{"indexed":true,"internalType":"address","name":"apprentice","type":"address"},{"indexed":false,"internalType":"string","name":"signal","type":"string"}],"name":"VisionRelayed","type":"event"},{"inputs":[{"internalType":"address","name":"apprentice","type":"address"}],"name":"activate","outputs":[],"stateMutability":"nonpayable","type":"function"},{"inputs":[{"internalType":"address","name":"","type":"address"}],"name":"activated","outputs":[{"internalType":"bool","name":"","type":"bool"}],"stateMutability":"view","type":"function"},{"inputs":[{"internalType":"address","name":"apprentice","type":"address"}],"name":"echoRelay","outputs":[{"internalType":"string","name":"","type":"string"}],"stateMutability":"view","type":"function"},{"inputs":[{"internalType":"address","name":"apprentice","type":"address"},{"internalType":"string","name":"signal","type":"string"}],"name":"relay","outputs":[],"stateMutability":"nonpayable","type":"function"},{"inputs":[{"internalType":"address","name":"","type":"address"}],"name":"relays","outputs":[{"internalType":"string","name":"","type":"string"}],"stateMutability":"view","type":"function"}],"evm":{"bytecode":{"linkReferences":{},"object":"60808060405234610016576105ba908161001c8239f35b600080fdfe604060808152600436101561001357600080fd5b600090813560e01c80631c5a9d9c1461036557806322f5d3621461012e57806356f6bba4146100de578063779d8677146100a25763cb8d406f1461005657600080fd5b3461009e57602036600319011261009e5761009a9161008f9082906001600160a01b036100816103c4565b16815260016020522061049a565b905191829182610417565b0390f35b5080fd5b503461009e57602036600319011261009e5760209160ff9082906001600160a01b036100cc6103c4565b16815280855220541690519015158152f35b503461009e57602036600319011261009e5761009a9161008f9082906001600160a01b0361010a6103c4565b168082528160205261012160ff8484205416610540565b815260016020522061049a565b503461009e578060031936011261009e576101476103c4565b67ffffffffffffffff9160243583811161036157366023820112156103615780600401359380851161034d5782519386602093601f199761018f868a601f84011601896103df565b808852366024828401011161034957806024879301838a0137870101526001600160a01b0316808752868352838720549095906101ce9060ff16610540565b858752600190818452848820938651938411610335576101ee8554610460565b601f81116102ef575b508091601f85116001146102665750509180807fb1305c8c6f3cee3aeb6590479550234ad571c375b9ca04a2c161fd1430e609d297959361025597958b9361025b575b501b916000199060031b1c19161790555b5191829182610417565b0390a280f35b87015192503861023a565b84939492919216858a52828a20928a905b8282106102d85750509183917fb1305c8c6f3cee3aeb6590479550234ad571c375b9ca04a2c161fd1430e609d2989694610255989694106102bf575b5050811b01905561024b565b86015160001960f88460031b161c1916905538806102b3565b808785968294968d01518155019501930190610277565b858a52818a20601f860160051c81019183871061032b575b601f0160051c019084905b8281106103205750506101f7565b8b8155018490610312565b9091508190610307565b634e487b7160e01b89526041600452602489fd5b8280fd5b634e487b7160e01b86526041600452602486fd5b8480fd5b503461009e57602036600319011261009e576001600160a01b036103876103c4565b1690818352826020528220600160ff198254161790557fd9b25af30713b5bb8fe8939791ca4aa6d4a10489af27f8bf9da3fdca1e2eec288280a280f35b600435906001600160a01b03821682036103da57565b600080fd5b90601f8019910116810190811067ffffffffffffffff82111761040157604052565b634e487b7160e01b600052604160045260246000fd5b6020808252825181830181905290939260005b82811061044c57505060409293506000838284010152601f8019910116010190565b81810186015184820160400152850161042a565b90600182811c92168015610490575b602083101461047a57565b634e487b7160e01b600052602260045260246000fd5b91607f169161046f565b90604051918260008254926104ae84610460565b90818452600194858116908160001461051d57506001146104da575b50506104d8925003836103df565b565b9093915060005260209081600020936000915b8183106105055750506104d8935082010138806104ca565b855488840185015294850194879450918301916104ed565b9150506104d894506020925060ff191682840152151560051b82010138806104ca565b1561054757565b60405162461bcd60e51b815260206004820152601560248201527413d8dd5b1d9a5cc81b9bdd081858dd1a5d985d1959605a1b6044820152606490fdfea2646970667358221220275914fa764cd45464b51088423149ab5672a00c656a0980ef591e013bab216764736f6c63430008140033","opcodes":"PUSH1 0x80 DUP1 PUSH1 0x40 MSTORE CALLVALUE PUSH2 0x16 JUMPI PUSH2 0x5BA SWAP1 DUP2 PUSH2 0x1C DUP3 CODECOPY RETURN JUMPDEST PUSH1 0x0 DUP1 REVERT INVALID PUSH1 0x40 PUSH1 0x80 DUP2 MSTORE PUSH1 0x4 CALLDATASIZE LT ISZERO PUSH2 0x13 JUMPI PUSH1 0x0 DUP1 REVERT JUMPDEST PUSH1 0x0 SWAP1 DUP2 CALLDATALOAD PUSH1 0xE0 SHR DUP1 PUSH4 0x1C5A9D9C EQ PUSH2 0x365 JUMPI DUP1 PUSH4 0x22F5D362 EQ PUSH2 0x12E JUMPI DUP1 PUSH4 0x56F6BBA4 EQ PUSH2 0xDE JUMPI DUP1 PUSH4 0x779D8677 EQ PUSH2 0xA2 JUMPI PUSH4 0xCB8D406F EQ PUSH2 0x56 JUMPI PUSH1 0x0 DUP1 REVERT JUMPDEST CALLVALUE PUSH2 0x9E JUMPI PUSH1 0x20 CALLDATASIZE PUSH1 0x3 NOT ADD SLT PUSH2 0x9E JUMPI PUSH2 0x9A SWAP2 PUSH2 0x8F SWAP1 DUP3 SWAP1 PUSH1 0x1 PUSH1 0x1 PUSH1 0xA0 SHL SUB PUSH2 0x81 PUSH2 0x3C4 JUMP JUMPDEST AND DUP2 MSTORE PUSH1 0x1 PUSH1 0x20 MSTORE KECCAK256 PUSH2 0x49A JUMP JUMPDEST SWAP1 MLOAD SWAP2 DUP3 SWAP2 DUP3 PUSH2 0x417 JUMP JUMPDEST SUB SWAP1 RETURN JUMPDEST POP DUP1 REVERT JUMPDEST POP CALLVALUE PUSH2 0x9E JUMPI PUSH1 0x20 CALLDATASIZE PUSH1 0x3 NOT ADD SLT PUSH2 0x9E JUMPI PUSH1 0x20 SWAP2 PUSH1 0xFF SWAP1 DUP3 SWAP1 PUSH1 0x1 PUSH1 0x1 PUSH1 0xA0 SHL SUB PUSH2 0xCC PUSH2 0x3C4 JUMP JUMPDEST AND DUP2 MSTORE DUP1 DUP6 MSTORE KECCAK256 SLOAD AND SWAP1 MLOAD SWAP1 ISZERO ISZERO DUP2 MSTORE RETURN JUMPDEST POP CALLVALUE PUSH2 0x9E JUMPI PUSH1 0x20 CALLDATASIZE PUSH1 0x3 NOT ADD SLT PUSH2 0x9E JUMPI PUSH2 0x9A SWAP2 PUSH2 0x8F SWAP1 DUP3 SWAP1 PUSH1 0x1 PUSH1 0x1 PUSH1 0xA0 SHL SUB PUSH2 0x10A PUSH2 0x3C4 JUMP JUMPDEST AND DUP1 DUP3 MSTORE DUP2 PUSH1 0x20 MSTORE PUSH2 0x121 PUSH1 0xFF DUP5 DUP5 KECCAK256 SLOAD AND PUSH2 0x540 JUMP JUMPDEST DUP2 MSTORE PUSH1 0x1 PUSH1 0x20 MSTORE KECCAK256 PUSH2 0x49A JUMP JUMPDEST POP CALLVALUE PUSH2 0x9E JUMPI DUP1 PUSH1 0x3 NOT CALLDATASIZE ADD SLT PUSH2 0x9E JUMPI PUSH2 0x147 PUSH2 0x3C4 JUMP JUMPDEST PUSH8 0xFFFFFFFFFFFFFFFF SWAP2 PUSH1 0x24 CALLDATALOAD DUP4 DUP2 GT PUSH2 0x361 JUMPI CALLDATASIZE PUSH1 0x23 DUP3 ADD SLT ISZERO PUSH2 0x361 JUMPI DUP1 PUSH1 0x4 ADD CALLDATALOAD SWAP4 DUP1 DUP6 GT PUSH2 0x34D JUMPI DUP3 MLOAD SWAP4 DUP7 PUSH1 0x20 SWAP4 PUSH1 0x1F NOT SWAP8 PUSH2 0x18F DUP7 DUP11 PUSH1 0x1F DUP5 ADD AND ADD DUP10 PUSH2 0x3DF JUMP JUMPDEST DUP1 DUP9 MSTORE CALLDATASIZE PUSH1 0x24 DUP3 DUP5 ADD ADD GT PUSH2 0x349 JUMPI DUP1 PUSH1 0x24 DUP8 SWAP4 ADD DUP4 DUP11 ADD CALLDATACOPY DUP8 ADD ADD MSTORE PUSH1 0x1 PUSH1 0x1 PUSH1 0xA0 SHL SUB AND DUP1 DUP8 MSTORE DUP7 DUP4 MSTORE DUP4 DUP8 KECCAK256 SLOAD SWAP1 SWAP6 SWAP1 PUSH2 0x1CE SWAP1 PUSH1 0xFF AND PUSH2 0x540 JUMP JUMPDEST DUP6 DUP8 MSTORE PUSH1 0x1 SWAP1 DUP2 DUP5 MSTORE DUP5 DUP9 KECCAK256 SWAP4 DUP7 MLOAD SWAP4 DUP5 GT PUSH2 0x335 JUMPI PUSH2 0x1EE DUP6 SLOAD PUSH2 0x460 JUMP JUMPDEST PUSH1 0x1F DUP2 GT PUSH2 0x2EF JUMPI JUMPDEST POP DUP1 SWAP2 PUSH1 0x1F DUP6 GT PUSH1 0x1 EQ PUSH2 0x266 JUMPI POP POP SWAP2 DUP1 DUP1 PUSH32 0xB1305C8C6F3CEE3AEB6590479550234AD571C375B9CA04A2C161FD1430E609D2 SWAP8 SWAP6 SWAP4 PUSH2 0x255 SWAP8 SWAP6 DUP12 SWAP4 PUSH2 0x25B JUMPI JUMPDEST POP SHL SWAP2 PUSH1 0x0 NOT SWAP1 PUSH1 0x3 SHL SHR NOT AND OR SWAP1 SSTORE JUMPDEST MLOAD SWAP2 DUP3 SWAP2 DUP3 PUSH2 0x417 JUMP JUMPDEST SUB SWAP1 LOG2 DUP1 RETURN JUMPDEST DUP8 ADD MLOAD SWAP3 POP CODESIZE PUSH2 0x23A JUMP JUMPDEST DUP5 SWAP4 SWAP5 SWAP3 SWAP2 SWAP3 AND DUP6 DUP11 MSTORE DUP3 DUP11 KECCAK256 SWAP3 DUP11 SWAP1 JUMPDEST DUP3 DUP3 LT PUSH2 0x2D8 JUMPI POP POP SWAP2 DUP4 SWAP2 PUSH32 0xB1305C8C6F3CEE3AEB6590479550234AD571C375B9CA04A2C161FD1430E609D2 SWAP9 SWAP7 SWAP5 PUSH2 0x255 SWAP9 SWAP7 SWAP5 LT PUSH2 0x2BF JUMPI JUMPDEST POP POP DUP2 SHL ADD SWAP1 SSTORE PUSH2 0x24B JUMP JUMPDEST DUP7 ADD MLOAD PUSH1 0x0 NOT PUSH1 0xF8 DUP5 PUSH1 0x3 SHL AND SHR NOT AND SWAP1 SSTORE CODESIZE DUP1 PUSH2 0x2B3 JUMP JUMPDEST DUP1 DUP8 DUP6 SWAP7 DUP3 SWAP5 SWAP7 DUP14 ADD MLOAD DUP2 SSTORE ADD SWAP6 ADD SWAP4 ADD SWAP1 PUSH2 0x277 JUMP JUMPDEST DUP6 DUP11 MSTORE DUP2 DUP11 KECCAK256 PUSH1 0x1F DUP7 ADD PUSH1 0x5 SHR DUP2 ADD SWAP2 DUP4 DUP8 LT PUSH2 0x32B JUMPI JUMPDEST PUSH1 0x1F ADD PUSH1 0x5 SHR ADD SWAP1 DUP5 SWAP1 JUMPDEST DUP3 DUP2 LT PUSH2 0x320 JUMPI POP POP PUSH2 0x1F7 JUMP JUMPDEST DUP12 DUP2 SSTORE ADD DUP5 SWAP1 PUSH2 0x312 JUMP JUMPDEST SWAP1 SWAP2 POP DUP2 SWAP1 PUSH2 0x307 JUMP JUMPDEST PUSH4 0x4E487B71 PUSH1 0xE0 SHL DUP10 MSTORE PUSH1 0x41 PUSH1 0x4 MSTORE PUSH1 0x24 DUP10 REVERT JUMPDEST DUP3 DUP1 REVERT JUMPDEST PUSH4 0x4E487B71 PUSH1 0xE0 SHL DUP7 MSTORE PUSH1 0x41 PUSH1 0x4 MSTORE PUSH1 0x24 DUP7 REVERT JUMPDEST DUP5 DUP1 REVERT JUMPDEST POP CALLVALUE PUSH2 0x9E JUMPI PUSH1 0x20 CALLDATASIZE PUSH1 0x3 NOT ADD SLT PUSH2 0x9E JUMPI PUSH1 0x1 PUSH1 0x1 PUSH1 0xA0 SHL SUB PUSH2 0x387 PUSH2 0x3C4 JUMP JUMPDEST AND SWAP1 DUP2 DUP4 MSTORE DUP3 PUSH1 0x20 MSTORE DUP3 KECCAK256 PUSH1 0x1 PUSH1 0xFF NOT DUP3 SLOAD AND OR SWAP1 SSTORE PUSH32 0xD9B25AF30713B5BB8FE8939791CA4AA6D4A10489AF27F8BF9DA3FDCA1E2EEC28 DUP3 DUP1 LOG2 DUP1 RETURN JUMPDEST PUSH1 0x4 CALLDATALOAD SWAP1 PUSH1 0x1 PUSH1 0x1 PUSH1 0xA0 SHL SUB DUP3 AND DUP3 SUB PUSH2 0x3DA JUMPI JUMP JUMPDEST PUSH1 0x0 DUP1 REVERT JUMPDEST SWAP1 PUSH1 0x1F DUP1 NOT SWAP2 ADD AND DUP2 ADD SWAP1 DUP2 LT PUSH8 0xFFFFFFFFFFFFFFFF DUP3 GT OR PUSH2 0x401 JUMPI PUSH1 0x40 MSTORE JUMP JUMPDEST PUSH4 0x4E487B71 PUSH1 0xE0 SHL PUSH1 0x0 MSTORE PUSH1 0x41 PUSH1 0x4 MSTORE PUSH1 0x24 PUSH1 0x0 REVERT JUMPDEST PUSH1 0x20 DUP1 DUP3 MSTORE DUP3 MLOAD DUP2 DUP4 ADD DUP2 SWAP1 MSTORE SWAP1 SWAP4 SWAP3 PUSH1 0x0 JUMPDEST DUP3 DUP2 LT PUSH2 0x44C JUMPI POP POP PUSH1 0x40 SWAP3 SWAP4 POP PUSH1 0x0 DUP4 DUP3 DUP5 ADD ADD MSTORE PUSH1 0x1F DUP1 NOT SWAP2 ADD AND ADD ADD SWAP1 JUMP JUMPDEST DUP2 DUP2 ADD DUP7 ADD MLOAD DUP5 DUP3 ADD PUSH1 0x40 ADD MSTORE DUP6 ADD PUSH2 0x42A JUMP JUMPDEST SWAP1 PUSH1 0x1 DUP3 DUP2 SHR SWAP3 AND DUP1 ISZERO PUSH2 0x490 JUMPI JUMPDEST PUSH1 0x20 DUP4 LT EQ PUSH2 0x47A JUMPI JUMP JUMPDEST PUSH4 0x4E487B71 PUSH1 0xE0 SHL PUSH1 0x0 MSTORE PUSH1 0x22 PUSH1 0x4 MSTORE PUSH1 0x24 PUSH1 0x0 REVERT JUMPDEST SWAP2 PUSH1 0x7F AND SWAP2 PUSH2 0x46F JUMP JUMPDEST SWAP1 PUSH1 0x40 MLOAD SWAP2 DUP3 PUSH1 0x0 DUP3 SLOAD SWAP3 PUSH2 0x4AE DUP5 PUSH2 0x460 JUMP JUMPDEST SWAP1 DUP2 DUP5 MSTORE PUSH1 0x1 SWAP5 DUP6 DUP2 AND SWAP1 DUP2 PUSH1 0x0 EQ PUSH2 0x51D JUMPI POP PUSH1 0x1 EQ PUSH2 0x4DA JUMPI JUMPDEST POP POP PUSH2 0x4D8 SWAP3 POP SUB DUP4 PUSH2 0x3DF JUMP JUMPDEST JUMP JUMPDEST SWAP1 SWAP4 SWAP2 POP PUSH1 0x0 MSTORE PUSH1 0x20 SWAP1 DUP2 PUSH1 0x0 KECCAK256 SWAP4 PUSH1 0x0 SWAP2 JUMPDEST DUP2 DUP4 LT PUSH2 0x505 JUMPI POP POP PUSH2 0x4D8 SWAP4 POP DUP3 ADD ADD CODESIZE DUP1 PUSH2 0x4CA JUMP JUMPDEST DUP6 SLOAD DUP9 DUP5 ADD DUP6 ADD MSTORE SWAP5 DUP6 ADD SWAP5 DUP8 SWAP5 POP SWAP2 DUP4 ADD SWAP2 PUSH2 0x4ED JUMP JUMPDEST SWAP2 POP POP PUSH2 0x4D8 SWAP5 POP PUSH1 0x20 SWAP3 POP PUSH1 0xFF NOT AND DUP3 DUP5 ADD MSTORE ISZERO ISZERO PUSH1 0x5 SHL DUP3 ADD ADD CODESIZE DUP1 PUSH2 0x4CA JUMP JUMPDEST ISZERO PUSH2 0x547 JUMPI JUMP JUMPDEST PUSH1 0x40 MLOAD PUSH3 0x461BCD PUSH1 0xE5 SHL DUP2 MSTORE PUSH1 0x20 PUSH1 0x4 DUP3 ADD MSTORE PUSH1 0x15 PUSH1 0x24 DUP3 ADD MSTORE PUSH21 0x13D8DD5B1D9A5CC81B9BDD081858DD1A5D985D1959 PUSH1 0x5A SHL PUSH1 0x44 DUP3 ADD MSTORE PUSH1 0x64 SWAP1 REVERT INVALID LOG2 PUSH5 0x6970667358 0x22 SLT KECCAK256 0x27 MSIZE EQ STATICCALL PUSH23 0x4CD45464B51088423149AB5672A00C656A0980EF591E01 EXTCODESIZE 0xAB 0x21 PUSH8 0x64736F6C63430008 EQ STOP CALLER "},"methodIdentifiers":{"activate(address)":"1c5a9d9c","activated(address)":"779d8677","echoRelay(address)":"56f6bba4","relay(address,string)":"22f5d362","relays(address)":"cb8d406f"}}}}}