{"contracts/empac/EMPACPhase.sol":{"EMPACPhase":{"abi":[{"inputs":[],"stateMutability":"nonpayable","type":"constructor"},{"anonymous":false,"inputs":[{"indexed":false,"internalType":"string","name":"name","type":"string"},{"indexed":false,"internalType":"string","name":"note","type":"string"}],"name":"BreachChoreographed","type":"event"},{"anonymous":false,"inputs":[{"indexed":false,"internalType":"string","name":"name","type":"string"}],"name":"PhaseCleared","type":"event"},{"anonymous":false,"inputs":[{"indexed":false,"internalType":"string","name":"name","type":"string"}],"name":"PhaseDeclared","type":"event"},{"inputs":[{"internalType":"string","name":"name","type":"string"},{"internalType":"string","name":"note","type":"string"}],"name":"choreographBreach","outputs":[],"stateMutability":"nonpayable","type":"function"},{"inputs":[{"internalType":"string","name":"name","type":"string"}],"name":"clearPhase","outputs":[],"stateMutability":"nonpayable","type":"function"},{"inputs":[{"internalType":"string","name":"name","type":"string"}],"name":"declarePhase","outputs":[],"stateMutability":"nonpayable","type":"function"},{"inputs":[{"internalType":"string","name":"name","type":"string"}],"name":"getPhase","outputs":[{"internalType":"string","name":"","type":"string"},{"internalType":"bool","name":"","type":"bool"},{"internalType":"string","name":"","type":"string"}],"stateMutability":"view","type":"function"},{"inputs":[{"internalType":"uint256","name":"","type":"uint256"}],"name":"phaseKeys","outputs":[{"internalType":"string","name":"","type":"string"}],"stateMutability":"view","type":"function"},{"inputs":[{"internalType":"string","name":"","type":"string"}],"name":"phases","outputs":[{"internalType":"string","name":"name","type":"string"},{"internalType":"bool","name":"cleared","type":"bool"},{"internalType":"string","name":"breachNote","type":"string"}],"stateMutability":"view","type":"function"},{"inputs":[],"name":"steward","outputs":[{"internalType":"address","name":"","type":"address"}],"stateMutability":"view","type":"function"},{"inputs":[],"name":"totalPhases","outputs":[{"internalType":"uint256","name":"","type":"uint256"}],"stateMutability":"view","type":"function"}],"evm":{"bytecode":{"linkReferences":{},"object":"6080806040523461002857600080546001600160a01b03191633179055610ace908161002e8239f35b600080fdfe60806040908082526004908136101561001757600080fd5b600090813560e01c9081633c5d18121461069857508063637eea1914610670578063687decb7146105cc5780639577b6b714610538578063b3a12de51461046c578063c517ec941461040a578063d07f56d1146101145763e35326f01461007d57600080fd5b346101115760203660031901126101115781359067ffffffffffffffff8211610111573660238301121561011157506100c46100d6928260246020943693013591016108de565b818451938285809451938492016106e7565b810160018152030190209061010d6100ed83610838565b91610102600260ff6001870154169501610838565b90519384938461072f565b0390f35b80fd5b508234610406576020806003193601126104025767ffffffffffffffff84358181116103fe5761014790369087016106b4565b93909161015e60018060a01b038754163314610925565b81519061016a826107e4565b6101753687866108de565b825284820190878252835191868301838110838211176103eb578552888352848401928352845193888786378885019488816001978881520301902090519182518481116103d8576101d1816101cb85546107aa565b8561095f565b898c601f831160011461037557906002958361036a575b5050600019600383901b1c191690871b1782555b8582019051151560ff8019835416911617905501915180519182116103575781906102318261022b86546107aa565b8661095f565b8790601f83116001146102f8578a926102ed575b5050600019600383901b1c191690831b1790555b60025490680100000000000000008210156102da57810160025561027c9061075d565b6102c857916102c2916102b386837f770fa13a3eea3d18bcc44d6581d74e72d136b7e85ffd56a04f559002e837313e9897966109b3565b51938385948552840191610a77565b0390a180f35b634e487b7160e01b8652858752602486fd5b634e487b7160e01b875260418852602487fd5b015190508a80610245565b848b52888b208694509190601f1984168c5b8b8282106103415750508411610328575b505050811b019055610259565b015160001960f88460031b161c191690558a808061031b565b838501518655899790950194938401930161030a565b634e487b7160e01b895260418a52602489fd5b015190508e806101e8565b889291601f1983168683528d80842093905b8282106103c15750509683600298106103a8575b505050811b0182556101fc565b015160001960f88460031b161c191690558e808061039b565b838a015185558c969094019392830192018e610387565b634e487b7160e01b8c5260418d5260248cfd5b634e487b7160e01b8a5260418b5260248afd5b8480fd5b8280fd5b5080fd5b50829034610111576020366003190112610111578235600254811015610406576104339061075d565b93909361045a5761010d8361044786610838565b905191829160208352602083019061070a565b634e487b7160e01b8252819052602490fd5b50913461040257806003193601126104025767ffffffffffffffff9082358281116103fe5761049e90369085016106b4565b9290602435918211610534576105266104de7fee175ded9acde88a51db308f626b89ea6a6a0753c90105321410187c80e1e42d966102c2943691016106b4565b9190926104f560018060a01b038a54163314610925565b6105168385600289518b8682376020818d81016001815203019020016109b3565b8551968688978852870191610a77565b918483036020860152610a77565b8580fd5b50346101115760203660031901126101115781359067ffffffffffffffff8211610111575060209161056c913691016106b4565b919082845193849283378101600181520301902061010d825161058e816107e4565b61059783610838565b81526105b6600260ff6001860154169460208401951515865201610838565b908185820152519251151593519384938461072f565b5091346104025760203660031901126104025781359167ffffffffffffffff831161066c576106226102c2917fe2d43c6b9d87534baddfc6d7414e1e7c790fb8bf03669af6d9fc5351e09c6bc5943691016106b4565b91909261063960018060a01b038754163314610925565b60018151848682376020818681018481520301902001600160ff1982541617905551928392602084526020840191610a77565b8380fd5b508234610406578160031936011261040657905490516001600160a01b039091168152602090f35b9050346104065781600319360112610406576020906002548152f35b9181601f840112156106e25782359167ffffffffffffffff83116106e257602083818601950101116106e257565b600080fd5b60005b8381106106fa5750506000910152565b81810151838201526020016106ea565b90602091610723815180928185528580860191016106e7565b601f01601f1916010190565b61074561075a949260608352606083019061070a565b9215156020820152604081840391015261070a565b90565b6002548110156107945760026000527f405787fa12a823e0f2b7631cc41b3ba8828b3321ca811111fa75cd3aa3bb5ace0190600090565b634e487b7160e01b600052603260045260246000fd5b90600182811c921680156107da575b60208310146107c457565b634e487b7160e01b600052602260045260246000fd5b91607f16916107b9565b6060810190811067ffffffffffffffff82111761080057604052565b634e487b7160e01b600052604160045260246000fd5b90601f8019910116810190811067ffffffffffffffff82111761080057604052565b906040519182600082549261084c846107aa565b9081845260019485811690816000146108bb5750600114610878575b505061087692500383610816565b565b9093915060005260209081600020936000915b8183106108a357505061087693508201013880610868565b8554888401850152948501948794509183019161088b565b91505061087694506020925060ff191682840152151560051b8201013880610868565b92919267ffffffffffffffff82116108005760405191610908601f8201601f191660200184610816565b8294818452818301116106e2578281602093846000960137010152565b1561092c57565b60405162461bcd60e51b815260206004820152600b60248201526a139bdd081cdd195dd85c9960aa1b6044820152606490fd5b90601f811161096d57505050565b600091825260208220906020601f850160051c830194106109a9575b601f0160051c01915b82811061099e57505050565b818155600101610992565b9092508290610989565b90929167ffffffffffffffff8111610800576109d9816109d384546107aa565b8461095f565b6000601f8211600114610a135781929394600092610a08575b50508160011b916000199060031b1c1916179055565b0135905038806109f2565b601f198216948382526020918281209281905b888210610a5f57505083600195969710610a45575b505050811b019055565b0135600019600384901b60f8161c19169055388080610a3b565b80600184968294958701358155019501920190610a26565b908060209392818452848401376000828201840152601f01601f191601019056fea26469706673582212206d195e145a166a62c6d6b2cdab97239389cf6e44a7f4e3a5c273e92d1dc9192a64736f6c63430008140033","opcodes":"PUSH1 0x80 DUP1 PUSH1 0x40 MSTORE CALLVALUE PUSH2 0x28 JUMPI PUSH1 0x0 DUP1 SLOAD PUSH1 0x1 PUSH1 0x1 PUSH1 0xA0 SHL SUB NOT AND CALLER OR SWAP1 SSTORE PUSH2 0xACE SWAP1 DUP2 PUSH2 0x2E DUP3 CODECOPY RETURN JUMPDEST PUSH1 0x0 DUP1 REVERT INVALID PUSH1 0x80 PUSH1 0x40 SWAP1 DUP1 DUP3 MSTORE PUSH1 0x4 SWAP1 DUP2 CALLDATASIZE LT ISZERO PUSH2 0x17 JUMPI PUSH1 0x0 DUP1 REVERT JUMPDEST PUSH1 0x0 SWAP1 DUP2 CALLDATALOAD PUSH1 0xE0 SHR SWAP1 DUP2 PUSH4 0x3C5D1812 EQ PUSH2 0x698 JUMPI POP DUP1 PUSH4 0x637EEA19 EQ PUSH2 0x670 JUMPI DUP1 PUSH4 0x687DECB7 EQ PUSH2 0x5CC JUMPI DUP1 PUSH4 0x9577B6B7 EQ PUSH2 0x538 JUMPI DUP1 PUSH4 0xB3A12DE5 EQ PUSH2 0x46C JUMPI DUP1 PUSH4 0xC517EC94 EQ PUSH2 0x40A JUMPI DUP1 PUSH4 0xD07F56D1 EQ PUSH2 0x114 JUMPI PUSH4 0xE35326F0 EQ PUSH2 0x7D JUMPI PUSH1 0x0 DUP1 REVERT JUMPDEST CALLVALUE PUSH2 0x111 JUMPI PUSH1 0x20 CALLDATASIZE PUSH1 0x3 NOT ADD SLT PUSH2 0x111 JUMPI DUP2 CALLDATALOAD SWAP1 PUSH8 0xFFFFFFFFFFFFFFFF DUP3 GT PUSH2 0x111 JUMPI CALLDATASIZE PUSH1 0x23 DUP4 ADD SLT ISZERO PUSH2 0x111 JUMPI POP PUSH2 0xC4 PUSH2 0xD6 SWAP3 DUP3 PUSH1 0x24 PUSH1 0x20 SWAP5 CALLDATASIZE SWAP4 ADD CALLDATALOAD SWAP2 ADD PUSH2 0x8DE JUMP JUMPDEST DUP2 DUP5 MLOAD SWAP4 DUP3 DUP6 DUP1 SWAP5 MLOAD SWAP4 DUP5 SWAP3 ADD PUSH2 0x6E7 JUMP JUMPDEST DUP2 ADD PUSH1 0x1 DUP2 MSTORE SUB ADD SWAP1 KECCAK256 SWAP1 PUSH2 0x10D PUSH2 0xED DUP4 PUSH2 0x838 JUMP JUMPDEST SWAP2 PUSH2 0x102 PUSH1 0x2 PUSH1 0xFF PUSH1 0x1 DUP8 ADD SLOAD AND SWAP6 ADD PUSH2 0x838 JUMP JUMPDEST SWAP1 MLOAD SWAP4 DUP5 SWAP4 DUP5 PUSH2 0x72F JUMP JUMPDEST SUB SWAP1 RETURN JUMPDEST DUP1 REVERT JUMPDEST POP DUP3 CALLVALUE PUSH2 0x406 JUMPI PUSH1 0x20 DUP1 PUSH1 0x3 NOT CALLDATASIZE ADD SLT PUSH2 0x402 JUMPI PUSH8 0xFFFFFFFFFFFFFFFF DUP5 CALLDATALOAD DUP2 DUP2 GT PUSH2 0x3FE JUMPI PUSH2 0x147 SWAP1 CALLDATASIZE SWAP1 DUP8 ADD PUSH2 0x6B4 JUMP JUMPDEST SWAP4 SWAP1 SWAP2 PUSH2 0x15E PUSH1 0x1 DUP1 PUSH1 0xA0 SHL SUB DUP8 SLOAD AND CALLER EQ PUSH2 0x925 JUMP JUMPDEST DUP2 MLOAD SWAP1 PUSH2 0x16A DUP3 PUSH2 0x7E4 JUMP JUMPDEST PUSH2 0x175 CALLDATASIZE DUP8 DUP7 PUSH2 0x8DE JUMP JUMPDEST DUP3 MSTORE DUP5 DUP3 ADD SWAP1 DUP8 DUP3 MSTORE DUP4 MLOAD SWAP2 DUP7 DUP4 ADD DUP4 DUP2 LT DUP4 DUP3 GT OR PUSH2 0x3EB JUMPI DUP6 MSTORE DUP9 DUP4 MSTORE DUP5 DUP5 ADD SWAP3 DUP4 MSTORE DUP5 MLOAD SWAP4 DUP9 DUP8 DUP7 CALLDATACOPY DUP9 DUP6 ADD SWAP5 DUP9 DUP2 PUSH1 0x1 SWAP8 DUP9 DUP2 MSTORE SUB ADD SWAP1 KECCAK256 SWAP1 MLOAD SWAP2 DUP3 MLOAD DUP5 DUP2 GT PUSH2 0x3D8 JUMPI PUSH2 0x1D1 DUP2 PUSH2 0x1CB DUP6 SLOAD PUSH2 0x7AA JUMP JUMPDEST DUP6 PUSH2 0x95F JUMP JUMPDEST DUP10 DUP13 PUSH1 0x1F DUP4 GT PUSH1 0x1 EQ PUSH2 0x375 JUMPI SWAP1 PUSH1 0x2 SWAP6 DUP4 PUSH2 0x36A JUMPI JUMPDEST POP POP PUSH1 0x0 NOT PUSH1 0x3 DUP4 SWAP1 SHL SHR NOT AND SWAP1 DUP8 SHL OR DUP3 SSTORE JUMPDEST DUP6 DUP3 ADD SWAP1 MLOAD ISZERO ISZERO PUSH1 0xFF DUP1 NOT DUP4 SLOAD AND SWAP2 AND OR SWAP1 SSTORE ADD SWAP2 MLOAD DUP1 MLOAD SWAP2 DUP3 GT PUSH2 0x357 JUMPI DUP2 SWAP1 PUSH2 0x231 DUP3 PUSH2 0x22B DUP7 SLOAD PUSH2 0x7AA JUMP JUMPDEST DUP7 PUSH2 0x95F JUMP JUMPDEST DUP8 SWAP1 PUSH1 0x1F DUP4 GT PUSH1 0x1 EQ PUSH2 0x2F8 JUMPI DUP11 SWAP3 PUSH2 0x2ED JUMPI JUMPDEST POP POP PUSH1 0x0 NOT PUSH1 0x3 DUP4 SWAP1 SHL SHR NOT AND SWAP1 DUP4 SHL OR SWAP1 SSTORE JUMPDEST PUSH1 0x2 SLOAD SWAP1 PUSH9 0x10000000000000000 DUP3 LT ISZERO PUSH2 0x2DA JUMPI DUP2 ADD PUSH1 0x2 SSTORE PUSH2 0x27C SWAP1 PUSH2 0x75D JUMP JUMPDEST PUSH2 0x2C8 JUMPI SWAP2 PUSH2 0x2C2 SWAP2 PUSH2 0x2B3 DUP7 DUP4 PUSH32 0x770FA13A3EEA3D18BCC44D6581D74E72D136B7E85FFD56A04F559002E837313E SWAP9 SWAP8 SWAP7 PUSH2 0x9B3 JUMP JUMPDEST MLOAD SWAP4 DUP4 DUP6 SWAP5 DUP6 MSTORE DUP5 ADD SWAP2 PUSH2 0xA77 JUMP JUMPDEST SUB SWAP1 LOG1 DUP1 RETURN JUMPDEST PUSH4 0x4E487B71 PUSH1 0xE0 SHL DUP7 MSTORE DUP6 DUP8 MSTORE PUSH1 0x24 DUP7 REVERT JUMPDEST PUSH4 0x4E487B71 PUSH1 0xE0 SHL DUP8 MSTORE PUSH1 0x41 DUP9 MSTORE PUSH1 0x24 DUP8 REVERT JUMPDEST ADD MLOAD SWAP1 POP DUP11 DUP1 PUSH2 0x245 JUMP JUMPDEST DUP5 DUP12 MSTORE DUP9 DUP12 KECCAK256 DUP7 SWAP5 POP SWAP2 SWAP1 PUSH1 0x1F NOT DUP5 AND DUP13 JUMPDEST DUP12 DUP3 DUP3 LT PUSH2 0x341 JUMPI POP POP DUP5 GT PUSH2 0x328 JUMPI JUMPDEST POP POP POP DUP2 SHL ADD SWAP1 SSTORE PUSH2 0x259 JUMP JUMPDEST ADD MLOAD PUSH1 0x0 NOT PUSH1 0xF8 DUP5 PUSH1 0x3 SHL AND SHR NOT AND SWAP1 SSTORE DUP11 DUP1 DUP1 PUSH2 0x31B JUMP JUMPDEST DUP4 DUP6 ADD MLOAD DUP7 SSTORE DUP10 SWAP8 SWAP1 SWAP6 ADD SWAP5 SWAP4 DUP5 ADD SWAP4 ADD PUSH2 0x30A JUMP JUMPDEST PUSH4 0x4E487B71 PUSH1 0xE0 SHL DUP10 MSTORE PUSH1 0x41 DUP11 MSTORE PUSH1 0x24 DUP10 REVERT JUMPDEST ADD MLOAD SWAP1 POP DUP15 DUP1 PUSH2 0x1E8 JUMP JUMPDEST DUP9 SWAP3 SWAP2 PUSH1 0x1F NOT DUP4 AND DUP7 DUP4 MSTORE DUP14 DUP1 DUP5 KECCAK256 SWAP4 SWAP1 JUMPDEST DUP3 DUP3 LT PUSH2 0x3C1 JUMPI POP POP SWAP7 DUP4 PUSH1 0x2 SWAP9 LT PUSH2 0x3A8 JUMPI JUMPDEST POP POP POP DUP2 SHL ADD DUP3 SSTORE PUSH2 0x1FC JUMP JUMPDEST ADD MLOAD PUSH1 0x0 NOT PUSH1 0xF8 DUP5 PUSH1 0x3 SHL AND SHR NOT AND SWAP1 SSTORE DUP15 DUP1 DUP1 PUSH2 0x39B JUMP JUMPDEST DUP4 DUP11 ADD MLOAD DUP6 SSTORE DUP13 SWAP7 SWAP1 SWAP5 ADD SWAP4 SWAP3 DUP4 ADD SWAP3 ADD DUP15 PUSH2 0x387 JUMP JUMPDEST PUSH4 0x4E487B71 PUSH1 0xE0 SHL DUP13 MSTORE PUSH1 0x41 DUP14 MSTORE PUSH1 0x24 DUP13 REVERT JUMPDEST PUSH4 0x4E487B71 PUSH1 0xE0 SHL DUP11 MSTORE PUSH1 0x41 DUP12 MSTORE PUSH1 0x24 DUP11 REVERT JUMPDEST DUP5 DUP1 REVERT JUMPDEST DUP3 DUP1 REVERT JUMPDEST POP DUP1 REVERT JUMPDEST POP DUP3 SWAP1 CALLVALUE PUSH2 0x111 JUMPI PUSH1 0x20 CALLDATASIZE PUSH1 0x3 NOT ADD SLT PUSH2 0x111 JUMPI DUP3 CALLDATALOAD PUSH1 0x2 SLOAD DUP2 LT ISZERO PUSH2 0x406 JUMPI PUSH2 0x433 SWAP1 PUSH2 0x75D JUMP JUMPDEST SWAP4 SWAP1 SWAP4 PUSH2 0x45A JUMPI PUSH2 0x10D DUP4 PUSH2 0x447 DUP7 PUSH2 0x838 JUMP JUMPDEST SWAP1 MLOAD SWAP2 DUP3 SWAP2 PUSH1 0x20 DUP4 MSTORE PUSH1 0x20 DUP4 ADD SWAP1 PUSH2 0x70A JUMP JUMPDEST PUSH4 0x4E487B71 PUSH1 0xE0 SHL DUP3 MSTORE DUP2 SWAP1 MSTORE PUSH1 0x24 SWAP1 REVERT JUMPDEST POP SWAP2 CALLVALUE PUSH2 0x402 JUMPI DUP1 PUSH1 0x3 NOT CALLDATASIZE ADD SLT PUSH2 0x402 JUMPI PUSH8 0xFFFFFFFFFFFFFFFF SWAP1 DUP3 CALLDATALOAD DUP3 DUP2 GT PUSH2 0x3FE JUMPI PUSH2 0x49E SWAP1 CALLDATASIZE SWAP1 DUP6 ADD PUSH2 0x6B4 JUMP JUMPDEST SWAP3 SWAP1 PUSH1 0x24 CALLDATALOAD SWAP2 DUP3 GT PUSH2 0x534 JUMPI PUSH2 0x526 PUSH2 0x4DE PUSH32 0xEE175DED9ACDE88A51DB308F626B89EA6A6A0753C90105321410187C80E1E42D SWAP7 PUSH2 0x2C2 SWAP5 CALLDATASIZE SWAP2 ADD PUSH2 0x6B4 JUMP JUMPDEST SWAP2 SWAP1 SWAP3 PUSH2 0x4F5 PUSH1 0x1 DUP1 PUSH1 0xA0 SHL SUB DUP11 SLOAD AND CALLER EQ PUSH2 0x925 JUMP JUMPDEST PUSH2 0x516 DUP4 DUP6 PUSH1 0x2 DUP10 MLOAD DUP12 DUP7 DUP3 CALLDATACOPY PUSH1 0x20 DUP2 DUP14 DUP2 ADD PUSH1 0x1 DUP2 MSTORE SUB ADD SWAP1 KECCAK256 ADD PUSH2 0x9B3 JUMP JUMPDEST DUP6 MLOAD SWAP7 DUP7 DUP9 SWAP8 DUP9 MSTORE DUP8 ADD SWAP2 PUSH2 0xA77 JUMP JUMPDEST SWAP2 DUP5 DUP4 SUB PUSH1 0x20 DUP7 ADD MSTORE PUSH2 0xA77 JUMP JUMPDEST DUP6 DUP1 REVERT JUMPDEST POP CALLVALUE PUSH2 0x111 JUMPI PUSH1 0x20 CALLDATASIZE PUSH1 0x3 NOT ADD SLT PUSH2 0x111 JUMPI DUP2 CALLDATALOAD SWAP1 PUSH8 0xFFFFFFFFFFFFFFFF DUP3 GT PUSH2 0x111 JUMPI POP PUSH1 0x20 SWAP2 PUSH2 0x56C SWAP2 CALLDATASIZE SWAP2 ADD PUSH2 0x6B4 JUMP JUMPDEST SWAP2 SWAP1 DUP3 DUP5 MLOAD SWAP4 DUP5 SWAP3 DUP4 CALLDATACOPY DUP2 ADD PUSH1 0x1 DUP2 MSTORE SUB ADD SWAP1 KECCAK256 PUSH2 0x10D DUP3 MLOAD PUSH2 0x58E DUP2 PUSH2 0x7E4 JUMP JUMPDEST PUSH2 0x597 DUP4 PUSH2 0x838 JUMP JUMPDEST DUP2 MSTORE PUSH2 0x5B6 PUSH1 0x2 PUSH1 0xFF PUSH1 0x1 DUP7 ADD SLOAD AND SWAP5 PUSH1 0x20 DUP5 ADD SWAP6 ISZERO ISZERO DUP7 MSTORE ADD PUSH2 0x838 JUMP JUMPDEST SWAP1 DUP2 DUP6 DUP3 ADD MSTORE MLOAD SWAP3 MLOAD ISZERO ISZERO SWAP4 MLOAD SWAP4 DUP5 SWAP4 DUP5 PUSH2 0x72F JUMP JUMPDEST POP SWAP2 CALLVALUE PUSH2 0x402 JUMPI PUSH1 0x20 CALLDATASIZE PUSH1 0x3 NOT ADD SLT PUSH2 0x402 JUMPI DUP2 CALLDATALOAD SWAP2 PUSH8 0xFFFFFFFFFFFFFFFF DUP4 GT PUSH2 0x66C JUMPI PUSH2 0x622 PUSH2 0x2C2 SWAP2 PUSH32 0xE2D43C6B9D87534BADDFC6D7414E1E7C790FB8BF03669AF6D9FC5351E09C6BC5 SWAP5 CALLDATASIZE SWAP2 ADD PUSH2 0x6B4 JUMP JUMPDEST SWAP2 SWAP1 SWAP3 PUSH2 0x639 PUSH1 0x1 DUP1 PUSH1 0xA0 SHL SUB DUP8 SLOAD AND CALLER EQ PUSH2 0x925 JUMP JUMPDEST PUSH1 0x1 DUP2 MLOAD DUP5 DUP7 DUP3 CALLDATACOPY PUSH1 0x20 DUP2 DUP7 DUP2 ADD DUP5 DUP2 MSTORE SUB ADD SWAP1 KECCAK256 ADD PUSH1 0x1 PUSH1 0xFF NOT DUP3 SLOAD AND OR SWAP1 SSTORE MLOAD SWAP3 DUP4 SWAP3 PUSH1 0x20 DUP5 MSTORE PUSH1 0x20 DUP5 ADD SWAP2 PUSH2 0xA77 JUMP JUMPDEST DUP4 DUP1 REVERT JUMPDEST POP DUP3 CALLVALUE PUSH2 0x406 JUMPI DUP2 PUSH1 0x3 NOT CALLDATASIZE ADD SLT PUSH2 0x406 JUMPI SWAP1 SLOAD SWAP1 MLOAD PUSH1 0x1 PUSH1 0x1 PUSH1 0xA0 SHL SUB SWAP1 SWAP2 AND DUP2 MSTORE PUSH1 0x20 SWAP1 RETURN JUMPDEST SWAP1 POP CALLVALUE PUSH2 0x406 JUMPI DUP2 PUSH1 0x3 NOT CALLDATASIZE ADD SLT PUSH2 0x406 JUMPI PUSH1 0x20 SWAP1 PUSH1 0x2 SLOAD DUP2 MSTORE RETURN JUMPDEST SWAP2 DUP2 PUSH1 0x1F DUP5 ADD SLT ISZERO PUSH2 0x6E2 JUMPI DUP3 CALLDATALOAD SWAP2 PUSH8 0xFFFFFFFFFFFFFFFF DUP4 GT PUSH2 0x6E2 JUMPI PUSH1 0x20 DUP4 DUP2 DUP7 ADD SWAP6 ADD ADD GT PUSH2 0x6E2 JUMPI JUMP JUMPDEST PUSH1 0x0 DUP1 REVERT JUMPDEST PUSH1 0x0 JUMPDEST DUP4 DUP2 LT PUSH2 0x6FA JUMPI POP POP PUSH1 0x0 SWAP2 ADD MSTORE JUMP JUMPDEST DUP2 DUP2 ADD MLOAD DUP4 DUP3 ADD MSTORE PUSH1 0x20 ADD PUSH2 0x6EA JUMP JUMPDEST SWAP1 PUSH1 0x20 SWAP2 PUSH2 0x723 DUP2 MLOAD DUP1 SWAP3 DUP2 DUP6 MSTORE DUP6 DUP1 DUP7 ADD SWAP2 ADD PUSH2 0x6E7 JUMP JUMPDEST PUSH1 0x1F ADD PUSH1 0x1F NOT AND ADD ADD SWAP1 JUMP JUMPDEST PUSH2 0x745 PUSH2 0x75A SWAP5 SWAP3 PUSH1 0x60 DUP4 MSTORE PUSH1 0x60 DUP4 ADD SWAP1 PUSH2 0x70A JUMP JUMPDEST SWAP3 ISZERO ISZERO PUSH1 0x20 DUP3 ADD MSTORE PUSH1 0x40 DUP2 DUP5 SUB SWAP2 ADD MSTORE PUSH2 0x70A JUMP JUMPDEST SWAP1 JUMP JUMPDEST PUSH1 0x2 SLOAD DUP2 LT ISZERO PUSH2 0x794 JUMPI PUSH1 0x2 PUSH1 0x0 MSTORE PUSH32 0x405787FA12A823E0F2B7631CC41B3BA8828B3321CA811111FA75CD3AA3BB5ACE ADD SWAP1 PUSH1 0x0 SWAP1 JUMP JUMPDEST PUSH4 0x4E487B71 PUSH1 0xE0 SHL PUSH1 0x0 MSTORE PUSH1 0x32 PUSH1 0x4 MSTORE PUSH1 0x24 PUSH1 0x0 REVERT JUMPDEST SWAP1 PUSH1 0x1 DUP3 DUP2 SHR SWAP3 AND DUP1 ISZERO PUSH2 0x7DA JUMPI JUMPDEST PUSH1 0x20 DUP4 LT EQ PUSH2 0x7C4 JUMPI JUMP JUMPDEST PUSH4 0x4E487B71 PUSH1 0xE0 SHL PUSH1 0x0 MSTORE PUSH1 0x22 PUSH1 0x4 MSTORE PUSH1 0x24 PUSH1 0x0 REVERT JUMPDEST SWAP2 PUSH1 0x7F AND SWAP2 PUSH2 0x7B9 JUMP JUMPDEST PUSH1 0x60 DUP2 ADD SWAP1 DUP2 LT PUSH8 0xFFFFFFFFFFFFFFFF DUP3 GT OR PUSH2 0x800 JUMPI PUSH1 0x40 MSTORE JUMP JUMPDEST PUSH4 0x4E487B71 PUSH1 0xE0 SHL PUSH1 0x0 MSTORE PUSH1 0x41 PUSH1 0x4 MSTORE PUSH1 0x24 PUSH1 0x0 REVERT JUMPDEST SWAP1 PUSH1 0x1F DUP1 NOT SWAP2 ADD AND DUP2 ADD SWAP1 DUP2 LT PUSH8 0xFFFFFFFFFFFFFFFF DUP3 GT OR PUSH2 0x800 JUMPI PUSH1 0x40 MSTORE JUMP JUMPDEST SWAP1 PUSH1 0x40 MLOAD SWAP2 DUP3 PUSH1 0x0 DUP3 SLOAD SWAP3 PUSH2 0x84C DUP5 PUSH2 0x7AA JUMP JUMPDEST SWAP1 DUP2 DUP5 MSTORE PUSH1 0x1 SWAP5 DUP6 DUP2 AND SWAP1 DUP2 PUSH1 0x0 EQ PUSH2 0x8BB JUMPI POP PUSH1 0x1 EQ PUSH2 0x878 JUMPI JUMPDEST POP POP PUSH2 0x876 SWAP3 POP SUB DUP4 PUSH2 0x816 JUMP JUMPDEST JUMP JUMPDEST SWAP1 SWAP4 SWAP2 POP PUSH1 0x0 MSTORE PUSH1 0x20 SWAP1 DUP2 PUSH1 0x0 KECCAK256 SWAP4 PUSH1 0x0 SWAP2 JUMPDEST DUP2 DUP4 LT PUSH2 0x8A3 JUMPI POP POP PUSH2 0x876 SWAP4 POP DUP3 ADD ADD CODESIZE DUP1 PUSH2 0x868 JUMP JUMPDEST DUP6 SLOAD DUP9 DUP5 ADD DUP6 ADD MSTORE SWAP5 DUP6 ADD SWAP5 DUP8 SWAP5 POP SWAP2 DUP4 ADD SWAP2 PUSH2 0x88B JUMP JUMPDEST SWAP2 POP POP PUSH2 0x876 SWAP5 POP PUSH1 0x20 SWAP3 POP PUSH1 0xFF NOT AND DUP3 DUP5 ADD MSTORE ISZERO ISZERO PUSH1 0x5 SHL DUP3 ADD ADD CODESIZE DUP1 PUSH2 0x868 JUMP JUMPDEST SWAP3 SWAP2 SWAP3 PUSH8 0xFFFFFFFFFFFFFFFF DUP3 GT PUSH2 0x800 JUMPI PUSH1 0x40 MLOAD SWAP2 PUSH2 0x908 PUSH1 0x1F DUP3 ADD PUSH1 0x1F NOT AND PUSH1 0x20 ADD DUP5 PUSH2 0x816 JUMP JUMPDEST DUP3 SWAP5 DUP2 DUP5 MSTORE DUP2 DUP4 ADD GT PUSH2 0x6E2 JUMPI DUP3 DUP2 PUSH1 0x20 SWAP4 DUP5 PUSH1 0x0 SWAP7 ADD CALLDATACOPY ADD ADD MSTORE JUMP JUMPDEST ISZERO PUSH2 0x92C JUMPI JUMP JUMPDEST PUSH1 0x40 MLOAD PUSH3 0x461BCD PUSH1 0xE5 SHL DUP2 MSTORE PUSH1 0x20 PUSH1 0x4 DUP3 ADD MSTORE PUSH1 0xB PUSH1 0x24 DUP3 ADD MSTORE PUSH11 0x139BDD081CDD195DD85C99 PUSH1 0xAA SHL PUSH1 0x44 DUP3 ADD MSTORE PUSH1 0x64 SWAP1 REVERT JUMPDEST SWAP1 PUSH1 0x1F DUP2 GT PUSH2 0x96D JUMPI POP POP POP JUMP JUMPDEST PUSH1 0x0 SWAP2 DUP3 MSTORE PUSH1 0x20 DUP3 KECCAK256 SWAP1 PUSH1 0x20 PUSH1 0x1F DUP6 ADD PUSH1 0x5 SHR DUP4 ADD SWAP5 LT PUSH2 0x9A9 JUMPI JUMPDEST PUSH1 0x1F ADD PUSH1 0x5 SHR ADD SWAP2 JUMPDEST DUP3 DUP2 LT PUSH2 0x99E JUMPI POP POP POP JUMP JUMPDEST DUP2 DUP2 SSTORE PUSH1 0x1 ADD PUSH2 0x992 JUMP JUMPDEST SWAP1 SWAP3 POP DUP3 SWAP1 PUSH2 0x989 JUMP JUMPDEST SWAP1 SWAP3 SWAP2 PUSH8 0xFFFFFFFFFFFFFFFF DUP2 GT PUSH2 0x800 JUMPI PUSH2 0x9D9 DUP2 PUSH2 0x9D3 DUP5 SLOAD PUSH2 0x7AA JUMP JUMPDEST DUP5 PUSH2 0x95F JUMP JUMPDEST PUSH1 0x0 PUSH1 0x1F DUP3 GT PUSH1 0x1 EQ PUSH2 0xA13 JUMPI DUP2 SWAP3 SWAP4 SWAP5 PUSH1 0x0 SWAP3 PUSH2 0xA08 JUMPI JUMPDEST POP POP DUP2 PUSH1 0x1 SHL SWAP2 PUSH1 0x0 NOT SWAP1 PUSH1 0x3 SHL SHR NOT AND OR SWAP1 SSTORE JUMP JUMPDEST ADD CALLDATALOAD SWAP1 POP CODESIZE DUP1 PUSH2 0x9F2 JUMP JUMPDEST PUSH1 0x1F NOT DUP3 AND SWAP5 DUP4 DUP3 MSTORE PUSH1 0x20 SWAP2 DUP3 DUP2 KECCAK256 SWAP3 DUP2 SWAP1 JUMPDEST DUP9 DUP3 LT PUSH2 0xA5F JUMPI POP POP DUP4 PUSH1 0x1 SWAP6 SWAP7 SWAP8 LT PUSH2 0xA45 JUMPI JUMPDEST POP POP POP DUP2 SHL ADD SWAP1 SSTORE JUMP JUMPDEST ADD CALLDATALOAD PUSH1 0x0 NOT PUSH1 0x3 DUP5 SWAP1 SHL PUSH1 0xF8 AND SHR NOT AND SWAP1 SSTORE CODESIZE DUP1 DUP1 PUSH2 0xA3B JUMP JUMPDEST DUP1 PUSH1 0x1 DUP5 SWAP7 DUP3 SWAP5 SWAP6 DUP8 ADD CALLDATALOAD DUP2 SSTORE ADD SWAP6 ADD SWAP3 ADD SWAP1 PUSH2 0xA26 JUMP JUMPDEST SWAP1 DUP1 PUSH1 0x20 SWAP4 SWAP3 DUP2 DUP5 MSTORE DUP5 DUP5 ADD CALLDATACOPY PUSH1 0x0 DUP3 DUP3 ADD DUP5 ADD MSTORE PUSH1 0x1F ADD PUSH1 0x1F NOT AND ADD ADD SWAP1 JUMP INVALID LOG2 PUSH5 0x6970667358 0x22 SLT KECCAK256 PUSH14 0x195E145A166A62C6D6B2CDAB9723 SWAP4 DUP10 0xCF PUSH15 0x44A7F4E3A5C273E92D1DC9192A6473 PUSH16 0x6C634300081400330000000000000000 "},"methodIdentifiers":{"choreographBreach(string,string)":"b3a12de5","clearPhase(string)":"687decb7","declarePhase(string)":"d07f56d1","getPhase(string)":"9577b6b7","phaseKeys(uint256)":"c517ec94","phases(string)":"e35326f0","steward()":"637eea19","totalPhases()":"3c5d1812"}}}}}