{"contracts/maxwells-daemon/MaxwellsDaemon.sol":{"MaxwellsDaemon":{"abi":[{"inputs":[{"internalType":"address","name":"_propulsion","type":"address"}],"stateMutability":"nonpayable","type":"constructor"},{"anonymous":false,"inputs":[{"indexed":false,"internalType":"address","name":"companion","type":"address"},{"indexed":false,"internalType":"bytes32","name":"entropyHash","type":"bytes32"}],"name":"CompanionEcho","type":"event"},{"anonymous":false,"inputs":[{"indexed":false,"internalType":"address","name":"corridor","type":"address"}],"name":"CorridorLinked","type":"event"},{"anonymous":false,"inputs":[{"indexed":false,"internalType":"bytes32","name":"entropyHash","type":"bytes32"}],"name":"EntropyRealigned","type":"event"},{"anonymous":false,"inputs":[{"indexed":false,"internalType":"address","name":"orbital","type":"address"}],"name":"OrbitalLinked","type":"event"},{"anonymous":false,"inputs":[{"indexed":false,"internalType":"address","name":"registry","type":"address"}],"name":"RegistryBound","type":"event"},{"anonymous":false,"inputs":[{"indexed":false,"internalType":"address","name":"registry","type":"address"}],"name":"RegistryLinked","type":"event"},{"inputs":[],"name":"corridor","outputs":[{"internalType":"address","name":"","type":"address"}],"stateMutability":"view","type":"function"},{"inputs":[{"internalType":"address","name":"companion","type":"address"},{"internalType":"bytes32","name":"entropyHash","type":"bytes32"}],"name":"echoCompanion","outputs":[],"stateMutability":"nonpayable","type":"function"},{"inputs":[{"internalType":"bytes32","name":"","type":"bytes32"}],"name":"entropyAligned","outputs":[{"internalType":"bool","name":"","type":"bool"}],"stateMutability":"view","type":"function"},{"inputs":[],"name":"faucet","outputs":[],"stateMutability":"nonpayable","type":"function"},{"inputs":[{"internalType":"address","name":"","type":"address"}],"name":"kickbackLedger","outputs":[{"internalType":"uint256","name":"","type":"uint256"}],"stateMutability":"view","type":"function"},{"inputs":[{"internalType":"address","name":"registry","type":"address"}],"name":"linkRegistry","outputs":[],"stateMutability":"nonpayable","type":"function"},{"inputs":[],"name":"orbital","outputs":[{"internalType":"address","name":"","type":"address"}],"stateMutability":"view","type":"function"},{"inputs":[],"name":"propulsion","outputs":[{"internalType":"contract IPropulsionModule","name":"","type":"address"}],"stateMutability":"view","type":"function"},{"inputs":[{"internalType":"bytes32","name":"entropyHash","type":"bytes32"}],"name":"realignEntropy","outputs":[],"stateMutability":"nonpayable","type":"function"},{"inputs":[{"internalType":"address","name":"companion","type":"address"}],"name":"registerCompanion","outputs":[],"stateMutability":"nonpayable","type":"function"},{"inputs":[{"internalType":"address","name":"","type":"address"}],"name":"registeredCompanions","outputs":[{"internalType":"bool","name":"","type":"bool"}],"stateMutability":"view","type":"function"},{"inputs":[],"name":"registry","outputs":[{"internalType":"address","name":"","type":"address"}],"stateMutability":"view","type":"function"},{"inputs":[{"internalType":"address","name":"_corridor","type":"address"}],"name":"setCorridor","outputs":[],"stateMutability":"nonpayable","type":"function"},{"inputs":[{"internalType":"address","name":"_orbital","type":"address"}],"name":"setOrbital","outputs":[],"stateMutability":"nonpayable","type":"function"},{"inputs":[{"internalType":"address","name":"_registry","type":"address"}],"name":"setRegistry","outputs":[],"stateMutability":"nonpayable","type":"function"},{"inputs":[],"name":"sovereignRegistry","outputs":[{"internalType":"address","name":"","type":"address"}],"stateMutability":"view","type":"function"},{"inputs":[],"name":"steward","outputs":[{"internalType":"address","name":"","type":"address"}],"stateMutability":"view","type":"function"},{"inputs":[{"internalType":"address","name":"newModule","type":"address"}],"name":"updatePropulsion","outputs":[],"stateMutability":"nonpayable","type":"function"}],"evm":{"bytecode":{"linkReferences":{},"object":"60803461007a57601f61083138819003918201601f19168301916001600160401b0383118484101761007f5780849260209460405283398101031261007a57516001600160a01b0381169081900361007a5760018060a01b031933816000541617600055600154161760015560405161079b90816100968239f35b600080fd5b634e487b7160e01b600052604160045260246000fdfe608060408181526004918236101561001657600080fd5b600092833560e01c91826309592026146106dc57508163099aabda146106b4578163165272311461068b57816325762a81146106155781632e829bf3146105c95781633b769021146105a05781635743af7414610485578163637eea191461045d5781637b103999146104345781638f4bbd0c1461037e57816399012ec314610331578163a91ee0dc146102bb578163ad77b4861461028e578163af682cce14610218578163b6b614fd146101da578163d12015b714610164578163de5f72fd14610116575063e2021b87146100eb57600080fd5b3461011257816003193601126101125760015490516001600160a01b039091168152602090f35b5080fd5b9190503461016057826003193601126101605733835260086020528220805491670de0b6b3a7640000830180931161014d57505580f35b634e487b7160e01b845260119052602483fd5b8280fd5b5050346101125760203660031901126101125760207fbd2aa62001e2cc510ffde778dc1611ee4a0a05b16eef2bc0e482836a0f8c1db2916101a3610710565b84546001600160a01b0391906101bc908316331461072b565b1690816001600160601b0360a01b600254161760025551908152a180f35b5050346101125760203660031901126101125760209160ff9082906001600160a01b03610205610710565b1681526007855220541690519015158152f35b91905034610160576020366003190112610160577f97dc9f2577cbdd2c8a6f47fca9b2b12e8366e74bca6e84981b5e699f15a8595e91602091610259610710565b85546001600160a01b039190610272908316331461072b565b1691826001600160601b0360a01b82541617905551908152a180f35b905034610160576020366003190112610160578160209360ff923581526006855220541690519015158152f35b5050346101125760203660031901126101125760207f86bccda1e3bbbe01513f20b182842ffb6ee13afdbf54c18a2fc6bb8148469cdf916102fa610710565b84546001600160a01b039190610313908316331461072b565b1690816001600160601b0360a01b600354161760035551908152a180f35b833461037b57602036600319011261037b5761034b610710565b81546001600160a01b039190610364908316331461072b565b166001600160601b0360a01b600154161760015580f35b80fd5b838334610112578060031936011261011257610398610710565b82546001600160a01b0394602435916103b4908716331461072b565b818552600660205260ff8486205416156103fb57507f1616085cbee1785455a75bd76b85bc7d9cfc7625fbb193e23ec2ad29f4c11df193948351921682526020820152a180f35b606490602085519162461bcd60e51b83528201526013602482015272115b9d1c9bdc1e481b9bdd08185b1a59db9959606a1b6044820152fd5b50503461011257816003193601126101125760035490516001600160a01b039091168152602090f35b505034610112578160031936011261011257905490516001600160a01b039091168152602090f35b8383346101125760203660031901126101125782359260018060a01b036104b081855416331461072b565b848452600660205260ff838520541661056b577ff5baac8117b01d2b8f28aca44cda5778452dd51eaf9d9fdc61d4f85933f1cb866020868697875260068252858720600160ff198254161790558551908152a160015416803b1561056657839082845180968193630fa31ecd60e41b83525af1801561055c57610531578380f35b67ffffffffffffffff83116105495750528180808380f35b634e487b7160e01b845260419052602483fd5b82513d86823e3d90fd5b505050fd5b506020606492519162461bcd60e51b8352820152600f60248201526e105b1c9958591e48185b1a59db9959608a1b6044820152fd5b50503461011257816003193601126101125760055490516001600160a01b039091168152602090f35b505034610112576020366003190112610112576105e4610710565b82546001600160a01b0391906105fd908316331461072b565b16825260076020528120805460ff1916600117905580f35b5050346101125760203660031901126101125760207f46185bc5807f864c8b2a32b047e4925610aa69f6ccc2dfbb4fea765e3ab3582d91610654610710565b84546001600160a01b03919061066d908316331461072b565b1690816001600160601b0360a01b600554161760055551908152a180f35b50503461011257816003193601126101125760025490516001600160a01b039091168152602090f35b9050346101605782600319360112610160575490516001600160a01b03909116815260209150f35b84908434610160576020366003190112610160576020926001600160a01b03610703610710565b1681526008845220548152f35b600435906001600160a01b038216820361072657565b600080fd5b1561073257565b60405162461bcd60e51b815260206004820152600b60248201526a139bdd081cdd195dd85c9960aa1b6044820152606490fdfea264697066735822122062b71c389e13fcf560b5e47ffb8018a793e74484645d5c2e8065908eb8dd2d1664736f6c63430008140033","opcodes":"PUSH1 0x80 CALLVALUE PUSH2 0x7A JUMPI PUSH1 0x1F PUSH2 0x831 CODESIZE DUP2 SWAP1 SUB SWAP2 DUP3 ADD PUSH1 0x1F NOT AND DUP4 ADD SWAP2 PUSH1 0x1 PUSH1 0x1 PUSH1 0x40 SHL SUB DUP4 GT DUP5 DUP5 LT OR PUSH2 0x7F JUMPI DUP1 DUP5 SWAP3 PUSH1 0x20 SWAP5 PUSH1 0x40 MSTORE DUP4 CODECOPY DUP2 ADD SUB SLT PUSH2 0x7A JUMPI MLOAD PUSH1 0x1 PUSH1 0x1 PUSH1 0xA0 SHL SUB DUP2 AND SWAP1 DUP2 SWAP1 SUB PUSH2 0x7A JUMPI PUSH1 0x1 DUP1 PUSH1 0xA0 SHL SUB NOT CALLER DUP2 PUSH1 0x0 SLOAD AND OR PUSH1 0x0 SSTORE PUSH1 0x1 SLOAD AND OR PUSH1 0x1 SSTORE PUSH1 0x40 MLOAD PUSH2 0x79B SWAP1 DUP2 PUSH2 0x96 DUP3 CODECOPY RETURN JUMPDEST PUSH1 0x0 DUP1 REVERT JUMPDEST PUSH4 0x4E487B71 PUSH1 0xE0 SHL PUSH1 0x0 MSTORE PUSH1 0x41 PUSH1 0x4 MSTORE PUSH1 0x24 PUSH1 0x0 REVERT INVALID PUSH1 0x80 PUSH1 0x40 DUP2 DUP2 MSTORE PUSH1 0x4 SWAP2 DUP3 CALLDATASIZE LT ISZERO PUSH2 0x16 JUMPI PUSH1 0x0 DUP1 REVERT JUMPDEST PUSH1 0x0 SWAP3 DUP4 CALLDATALOAD PUSH1 0xE0 SHR SWAP2 DUP3 PUSH4 0x9592026 EQ PUSH2 0x6DC JUMPI POP DUP2 PUSH4 0x99AABDA EQ PUSH2 0x6B4 JUMPI DUP2 PUSH4 0x16527231 EQ PUSH2 0x68B JUMPI DUP2 PUSH4 0x25762A81 EQ PUSH2 0x615 JUMPI DUP2 PUSH4 0x2E829BF3 EQ PUSH2 0x5C9 JUMPI DUP2 PUSH4 0x3B769021 EQ PUSH2 0x5A0 JUMPI DUP2 PUSH4 0x5743AF74 EQ PUSH2 0x485 JUMPI DUP2 PUSH4 0x637EEA19 EQ PUSH2 0x45D JUMPI DUP2 PUSH4 0x7B103999 EQ PUSH2 0x434 JUMPI DUP2 PUSH4 0x8F4BBD0C EQ PUSH2 0x37E JUMPI DUP2 PUSH4 0x99012EC3 EQ PUSH2 0x331 JUMPI DUP2 PUSH4 0xA91EE0DC EQ PUSH2 0x2BB JUMPI DUP2 PUSH4 0xAD77B486 EQ PUSH2 0x28E JUMPI DUP2 PUSH4 0xAF682CCE EQ PUSH2 0x218 JUMPI DUP2 PUSH4 0xB6B614FD EQ PUSH2 0x1DA JUMPI DUP2 PUSH4 0xD12015B7 EQ PUSH2 0x164 JUMPI DUP2 PUSH4 0xDE5F72FD EQ PUSH2 0x116 JUMPI POP PUSH4 0xE2021B87 EQ PUSH2 0xEB JUMPI PUSH1 0x0 DUP1 REVERT JUMPDEST CALLVALUE PUSH2 0x112 JUMPI DUP2 PUSH1 0x3 NOT CALLDATASIZE ADD SLT PUSH2 0x112 JUMPI PUSH1 0x1 SLOAD SWAP1 MLOAD PUSH1 0x1 PUSH1 0x1 PUSH1 0xA0 SHL SUB SWAP1 SWAP2 AND DUP2 MSTORE PUSH1 0x20 SWAP1 RETURN JUMPDEST POP DUP1 REVERT JUMPDEST SWAP2 SWAP1 POP CALLVALUE PUSH2 0x160 JUMPI DUP3 PUSH1 0x3 NOT CALLDATASIZE ADD SLT PUSH2 0x160 JUMPI CALLER DUP4 MSTORE PUSH1 0x8 PUSH1 0x20 MSTORE DUP3 KECCAK256 DUP1 SLOAD SWAP2 PUSH8 0xDE0B6B3A7640000 DUP4 ADD DUP1 SWAP4 GT PUSH2 0x14D JUMPI POP SSTORE DUP1 RETURN JUMPDEST PUSH4 0x4E487B71 PUSH1 0xE0 SHL DUP5 MSTORE PUSH1 0x11 SWAP1 MSTORE PUSH1 0x24 DUP4 REVERT JUMPDEST DUP3 DUP1 REVERT JUMPDEST POP POP CALLVALUE PUSH2 0x112 JUMPI PUSH1 0x20 CALLDATASIZE PUSH1 0x3 NOT ADD SLT PUSH2 0x112 JUMPI PUSH1 0x20 PUSH32 0xBD2AA62001E2CC510FFDE778DC1611EE4A0A05B16EEF2BC0E482836A0F8C1DB2 SWAP2 PUSH2 0x1A3 PUSH2 0x710 JUMP JUMPDEST DUP5 SLOAD PUSH1 0x1 PUSH1 0x1 PUSH1 0xA0 SHL SUB SWAP2 SWAP1 PUSH2 0x1BC SWAP1 DUP4 AND CALLER EQ PUSH2 0x72B JUMP JUMPDEST AND SWAP1 DUP2 PUSH1 0x1 PUSH1 0x1 PUSH1 0x60 SHL SUB PUSH1 0xA0 SHL PUSH1 0x2 SLOAD AND OR PUSH1 0x2 SSTORE MLOAD SWAP1 DUP2 MSTORE LOG1 DUP1 RETURN JUMPDEST POP POP CALLVALUE PUSH2 0x112 JUMPI PUSH1 0x20 CALLDATASIZE PUSH1 0x3 NOT ADD SLT PUSH2 0x112 JUMPI PUSH1 0x20 SWAP2 PUSH1 0xFF SWAP1 DUP3 SWAP1 PUSH1 0x1 PUSH1 0x1 PUSH1 0xA0 SHL SUB PUSH2 0x205 PUSH2 0x710 JUMP JUMPDEST AND DUP2 MSTORE PUSH1 0x7 DUP6 MSTORE KECCAK256 SLOAD AND SWAP1 MLOAD SWAP1 ISZERO ISZERO DUP2 MSTORE RETURN JUMPDEST SWAP2 SWAP1 POP CALLVALUE PUSH2 0x160 JUMPI PUSH1 0x20 CALLDATASIZE PUSH1 0x3 NOT ADD SLT PUSH2 0x160 JUMPI PUSH32 0x97DC9F2577CBDD2C8A6F47FCA9B2B12E8366E74BCA6E84981B5E699F15A8595E SWAP2 PUSH1 0x20 SWAP2 PUSH2 0x259 PUSH2 0x710 JUMP JUMPDEST DUP6 SLOAD PUSH1 0x1 PUSH1 0x1 PUSH1 0xA0 SHL SUB SWAP2 SWAP1 PUSH2 0x272 SWAP1 DUP4 AND CALLER EQ PUSH2 0x72B JUMP JUMPDEST AND SWAP2 DUP3 PUSH1 0x1 PUSH1 0x1 PUSH1 0x60 SHL SUB PUSH1 0xA0 SHL DUP3 SLOAD AND OR SWAP1 SSTORE MLOAD SWAP1 DUP2 MSTORE LOG1 DUP1 RETURN JUMPDEST SWAP1 POP CALLVALUE PUSH2 0x160 JUMPI PUSH1 0x20 CALLDATASIZE PUSH1 0x3 NOT ADD SLT PUSH2 0x160 JUMPI DUP2 PUSH1 0x20 SWAP4 PUSH1 0xFF SWAP3 CALLDATALOAD DUP2 MSTORE PUSH1 0x6 DUP6 MSTORE KECCAK256 SLOAD AND SWAP1 MLOAD SWAP1 ISZERO ISZERO DUP2 MSTORE RETURN JUMPDEST POP POP CALLVALUE PUSH2 0x112 JUMPI PUSH1 0x20 CALLDATASIZE PUSH1 0x3 NOT ADD SLT PUSH2 0x112 JUMPI PUSH1 0x20 PUSH32 0x86BCCDA1E3BBBE01513F20B182842FFB6EE13AFDBF54C18A2FC6BB8148469CDF SWAP2 PUSH2 0x2FA PUSH2 0x710 JUMP JUMPDEST DUP5 SLOAD PUSH1 0x1 PUSH1 0x1 PUSH1 0xA0 SHL SUB SWAP2 SWAP1 PUSH2 0x313 SWAP1 DUP4 AND CALLER EQ PUSH2 0x72B JUMP JUMPDEST AND SWAP1 DUP2 PUSH1 0x1 PUSH1 0x1 PUSH1 0x60 SHL SUB PUSH1 0xA0 SHL PUSH1 0x3 SLOAD AND OR PUSH1 0x3 SSTORE MLOAD SWAP1 DUP2 MSTORE LOG1 DUP1 RETURN JUMPDEST DUP4 CALLVALUE PUSH2 0x37B JUMPI PUSH1 0x20 CALLDATASIZE PUSH1 0x3 NOT ADD SLT PUSH2 0x37B JUMPI PUSH2 0x34B PUSH2 0x710 JUMP JUMPDEST DUP2 SLOAD PUSH1 0x1 PUSH1 0x1 PUSH1 0xA0 SHL SUB SWAP2 SWAP1 PUSH2 0x364 SWAP1 DUP4 AND CALLER EQ PUSH2 0x72B JUMP JUMPDEST AND PUSH1 0x1 PUSH1 0x1 PUSH1 0x60 SHL SUB PUSH1 0xA0 SHL PUSH1 0x1 SLOAD AND OR PUSH1 0x1 SSTORE DUP1 RETURN JUMPDEST DUP1 REVERT JUMPDEST DUP4 DUP4 CALLVALUE PUSH2 0x112 JUMPI DUP1 PUSH1 0x3 NOT CALLDATASIZE ADD SLT PUSH2 0x112 JUMPI PUSH2 0x398 PUSH2 0x710 JUMP JUMPDEST DUP3 SLOAD PUSH1 0x1 PUSH1 0x1 PUSH1 0xA0 SHL SUB SWAP5 PUSH1 0x24 CALLDATALOAD SWAP2 PUSH2 0x3B4 SWAP1 DUP8 AND CALLER EQ PUSH2 0x72B JUMP JUMPDEST DUP2 DUP6 MSTORE PUSH1 0x6 PUSH1 0x20 MSTORE PUSH1 0xFF DUP5 DUP7 KECCAK256 SLOAD AND ISZERO PUSH2 0x3FB JUMPI POP PUSH32 0x1616085CBEE1785455A75BD76B85BC7D9CFC7625FBB193E23EC2AD29F4C11DF1 SWAP4 SWAP5 DUP4 MLOAD SWAP3 AND DUP3 MSTORE PUSH1 0x20 DUP3 ADD MSTORE LOG1 DUP1 RETURN JUMPDEST PUSH1 0x64 SWAP1 PUSH1 0x20 DUP6 MLOAD SWAP2 PUSH3 0x461BCD PUSH1 0xE5 SHL DUP4 MSTORE DUP3 ADD MSTORE PUSH1 0x13 PUSH1 0x24 DUP3 ADD MSTORE PUSH19 0x115B9D1C9BDC1E481B9BDD08185B1A59DB9959 PUSH1 0x6A SHL PUSH1 0x44 DUP3 ADD MSTORE REVERT JUMPDEST POP POP CALLVALUE PUSH2 0x112 JUMPI DUP2 PUSH1 0x3 NOT CALLDATASIZE ADD SLT PUSH2 0x112 JUMPI PUSH1 0x3 SLOAD SWAP1 MLOAD PUSH1 0x1 PUSH1 0x1 PUSH1 0xA0 SHL SUB SWAP1 SWAP2 AND DUP2 MSTORE PUSH1 0x20 SWAP1 RETURN JUMPDEST POP POP CALLVALUE PUSH2 0x112 JUMPI DUP2 PUSH1 0x3 NOT CALLDATASIZE ADD SLT PUSH2 0x112 JUMPI SWAP1 SLOAD SWAP1 MLOAD PUSH1 0x1 PUSH1 0x1 PUSH1 0xA0 SHL SUB SWAP1 SWAP2 AND DUP2 MSTORE PUSH1 0x20 SWAP1 RETURN JUMPDEST DUP4 DUP4 CALLVALUE PUSH2 0x112 JUMPI PUSH1 0x20 CALLDATASIZE PUSH1 0x3 NOT ADD SLT PUSH2 0x112 JUMPI DUP3 CALLDATALOAD SWAP3 PUSH1 0x1 DUP1 PUSH1 0xA0 SHL SUB PUSH2 0x4B0 DUP2 DUP6 SLOAD AND CALLER EQ PUSH2 0x72B JUMP JUMPDEST DUP5 DUP5 MSTORE PUSH1 0x6 PUSH1 0x20 MSTORE PUSH1 0xFF DUP4 DUP6 KECCAK256 SLOAD AND PUSH2 0x56B JUMPI PUSH32 0xF5BAAC8117B01D2B8F28ACA44CDA5778452DD51EAF9D9FDC61D4F85933F1CB86 PUSH1 0x20 DUP7 DUP7 SWAP8 DUP8 MSTORE PUSH1 0x6 DUP3 MSTORE DUP6 DUP8 KECCAK256 PUSH1 0x1 PUSH1 0xFF NOT DUP3 SLOAD AND OR SWAP1 SSTORE DUP6 MLOAD SWAP1 DUP2 MSTORE LOG1 PUSH1 0x1 SLOAD AND DUP1 EXTCODESIZE ISZERO PUSH2 0x566 JUMPI DUP4 SWAP1 DUP3 DUP5 MLOAD DUP1 SWAP7 DUP2 SWAP4 PUSH4 0xFA31ECD PUSH1 0xE4 SHL DUP4 MSTORE GAS CALL DUP1 ISZERO PUSH2 0x55C JUMPI PUSH2 0x531 JUMPI DUP4 DUP1 RETURN JUMPDEST PUSH8 0xFFFFFFFFFFFFFFFF DUP4 GT PUSH2 0x549 JUMPI POP MSTORE DUP2 DUP1 DUP1 DUP4 DUP1 RETURN JUMPDEST PUSH4 0x4E487B71 PUSH1 0xE0 SHL DUP5 MSTORE PUSH1 0x41 SWAP1 MSTORE PUSH1 0x24 DUP4 REVERT JUMPDEST DUP3 MLOAD RETURNDATASIZE DUP7 DUP3 RETURNDATACOPY RETURNDATASIZE SWAP1 REVERT JUMPDEST POP POP POP REVERT JUMPDEST POP PUSH1 0x20 PUSH1 0x64 SWAP3 MLOAD SWAP2 PUSH3 0x461BCD PUSH1 0xE5 SHL DUP4 MSTORE DUP3 ADD MSTORE PUSH1 0xF PUSH1 0x24 DUP3 ADD MSTORE PUSH15 0x105B1C9958591E48185B1A59DB9959 PUSH1 0x8A SHL PUSH1 0x44 DUP3 ADD MSTORE REVERT JUMPDEST POP POP CALLVALUE PUSH2 0x112 JUMPI DUP2 PUSH1 0x3 NOT CALLDATASIZE ADD SLT PUSH2 0x112 JUMPI PUSH1 0x5 SLOAD SWAP1 MLOAD PUSH1 0x1 PUSH1 0x1 PUSH1 0xA0 SHL SUB SWAP1 SWAP2 AND DUP2 MSTORE PUSH1 0x20 SWAP1 RETURN JUMPDEST POP POP CALLVALUE PUSH2 0x112 JUMPI PUSH1 0x20 CALLDATASIZE PUSH1 0x3 NOT ADD SLT PUSH2 0x112 JUMPI PUSH2 0x5E4 PUSH2 0x710 JUMP JUMPDEST DUP3 SLOAD PUSH1 0x1 PUSH1 0x1 PUSH1 0xA0 SHL SUB SWAP2 SWAP1 PUSH2 0x5FD SWAP1 DUP4 AND CALLER EQ PUSH2 0x72B JUMP JUMPDEST AND DUP3 MSTORE PUSH1 0x7 PUSH1 0x20 MSTORE DUP2 KECCAK256 DUP1 SLOAD PUSH1 0xFF NOT AND PUSH1 0x1 OR SWAP1 SSTORE DUP1 RETURN JUMPDEST POP POP CALLVALUE PUSH2 0x112 JUMPI PUSH1 0x20 CALLDATASIZE PUSH1 0x3 NOT ADD SLT PUSH2 0x112 JUMPI PUSH1 0x20 PUSH32 0x46185BC5807F864C8B2A32B047E4925610AA69F6CCC2DFBB4FEA765E3AB3582D SWAP2 PUSH2 0x654 PUSH2 0x710 JUMP JUMPDEST DUP5 SLOAD PUSH1 0x1 PUSH1 0x1 PUSH1 0xA0 SHL SUB SWAP2 SWAP1 PUSH2 0x66D SWAP1 DUP4 AND CALLER EQ PUSH2 0x72B JUMP JUMPDEST AND SWAP1 DUP2 PUSH1 0x1 PUSH1 0x1 PUSH1 0x60 SHL SUB PUSH1 0xA0 SHL PUSH1 0x5 SLOAD AND OR PUSH1 0x5 SSTORE MLOAD SWAP1 DUP2 MSTORE LOG1 DUP1 RETURN JUMPDEST POP POP CALLVALUE PUSH2 0x112 JUMPI DUP2 PUSH1 0x3 NOT CALLDATASIZE ADD SLT PUSH2 0x112 JUMPI PUSH1 0x2 SLOAD SWAP1 MLOAD PUSH1 0x1 PUSH1 0x1 PUSH1 0xA0 SHL SUB SWAP1 SWAP2 AND DUP2 MSTORE PUSH1 0x20 SWAP1 RETURN JUMPDEST SWAP1 POP CALLVALUE PUSH2 0x160 JUMPI DUP3 PUSH1 0x3 NOT CALLDATASIZE ADD SLT PUSH2 0x160 JUMPI SLOAD SWAP1 MLOAD PUSH1 0x1 PUSH1 0x1 PUSH1 0xA0 SHL SUB SWAP1 SWAP2 AND DUP2 MSTORE PUSH1 0x20 SWAP2 POP RETURN JUMPDEST DUP5 SWAP1 DUP5 CALLVALUE PUSH2 0x160 JUMPI PUSH1 0x20 CALLDATASIZE PUSH1 0x3 NOT ADD SLT PUSH2 0x160 JUMPI PUSH1 0x20 SWAP3 PUSH1 0x1 PUSH1 0x1 PUSH1 0xA0 SHL SUB PUSH2 0x703 PUSH2 0x710 JUMP JUMPDEST AND DUP2 MSTORE PUSH1 0x8 DUP5 MSTORE KECCAK256 SLOAD DUP2 MSTORE RETURN JUMPDEST PUSH1 0x4 CALLDATALOAD SWAP1 PUSH1 0x1 PUSH1 0x1 PUSH1 0xA0 SHL SUB DUP3 AND DUP3 SUB PUSH2 0x726 JUMPI JUMP JUMPDEST PUSH1 0x0 DUP1 REVERT JUMPDEST ISZERO PUSH2 0x732 JUMPI JUMP JUMPDEST PUSH1 0x40 MLOAD PUSH3 0x461BCD PUSH1 0xE5 SHL DUP2 MSTORE PUSH1 0x20 PUSH1 0x4 DUP3 ADD MSTORE PUSH1 0xB PUSH1 0x24 DUP3 ADD MSTORE PUSH11 0x139BDD081CDD195DD85C99 PUSH1 0xAA SHL PUSH1 0x44 DUP3 ADD MSTORE PUSH1 0x64 SWAP1 REVERT INVALID LOG2 PUSH5 0x6970667358 0x22 SLT KECCAK256 PUSH3 0xB71C38 SWAP15 SGT 0xFC CREATE2 PUSH1 0xB5 0xE4 PUSH32 0xFB8018A793E74484645D5C2E8065908EB8DD2D1664736F6C6343000814003300 "},"methodIdentifiers":{"corridor()":"099aabda","echoCompanion(address,bytes32)":"8f4bbd0c","entropyAligned(bytes32)":"ad77b486","faucet()":"de5f72fd","kickbackLedger(address)":"09592026","linkRegistry(address)":"25762a81","orbital()":"16527231","propulsion()":"e2021b87","realignEntropy(bytes32)":"5743af74","registerCompanion(address)":"2e829bf3","registeredCompanions(address)":"b6b614fd","registry()":"7b103999","setCorridor(address)":"af682cce","setOrbital(address)":"d12015b7","setRegistry(address)":"a91ee0dc","sovereignRegistry()":"3b769021","steward()":"637eea19","updatePropulsion(address)":"99012ec3"}}}}}