{"contracts/manifest/TerrainChoreographyV2.sol":{"TerrainChoreographyV2":{"abi":[{"inputs":[],"stateMutability":"nonpayable","type":"constructor"},{"anonymous":false,"inputs":[{"indexed":false,"internalType":"string","name":"chant","type":"string"},{"indexed":false,"internalType":"string","name":"glyph","type":"string"},{"indexed":false,"internalType":"string","name":"sanctum","type":"string"},{"indexed":false,"internalType":"string","name":"pulse","type":"string"},{"indexed":false,"internalType":"string","name":"choreography","type":"string"}],"name":"InvocationOrchestrated","type":"event"},{"inputs":[{"internalType":"string","name":"chant","type":"string"}],"name":"getInvocation","outputs":[{"internalType":"string","name":"","type":"string"},{"internalType":"string","name":"","type":"string"},{"internalType":"string","name":"","type":"string"},{"internalType":"string","name":"","type":"string"}],"stateMutability":"view","type":"function"},{"inputs":[{"internalType":"string","name":"","type":"string"}],"name":"invocations","outputs":[{"internalType":"string","name":"chant","type":"string"},{"internalType":"string","name":"glyph","type":"string"},{"internalType":"string","name":"sanctum","type":"string"},{"internalType":"string","name":"pulse","type":"string"},{"internalType":"string","name":"choreography","type":"string"}],"stateMutability":"view","type":"function"},{"inputs":[{"internalType":"uint256","name":"","type":"uint256"}],"name":"keys","outputs":[{"internalType":"string","name":"","type":"string"}],"stateMutability":"view","type":"function"},{"inputs":[{"internalType":"string","name":"chant","type":"string"},{"internalType":"string","name":"glyph","type":"string"},{"internalType":"string","name":"sanctum","type":"string"},{"internalType":"string","name":"pulse","type":"string"},{"internalType":"string","name":"choreography","type":"string"}],"name":"orchestrate","outputs":[],"stateMutability":"nonpayable","type":"function"},{"inputs":[],"name":"steward","outputs":[{"internalType":"address","name":"","type":"address"}],"stateMutability":"view","type":"function"},{"inputs":[],"name":"totalInvocations","outputs":[{"internalType":"uint256","name":"","type":"uint256"}],"stateMutability":"view","type":"function"}],"evm":{"bytecode":{"linkReferences":{},"object":"6080806040523461002857600080546001600160a01b03191633179055610cf1908161002e8239f35b600080fdfe6080604052600436101561001257600080fd5b60003560e01c80630cb6aaf1146109d75780632bb3dcc8146109b95780632ee5c65b146108bf57806355a01e2a1461018c578063637eea19146101635763875621051461005e57600080fd5b3461015e57602036600319011261015e576004356001600160401b03811161015e576020610093610130923690600401610c19565b91908260405193849283378101600181520301902061015a608061014c604051936100bd85610aa9565b6100c681610ae5565b855261013e6100d760018301610ae5565b602087019081526100ea60028401610ae5565b9660408101978852610111600461010360038701610ae5565b956060840196875201610ae5565b9586910152519551915191604051978897608089526080890190610bae565b908782036020890152610bae565b908582036040870152610bae565b908382036060850152610bae565b0390f35b600080fd5b3461015e57600036600319011261015e576000546040516001600160a01b039091168152602090f35b3461015e5760a036600319011261015e576004356001600160401b03811161015e576101bc903690600401610c19565b6024356001600160401b03811161015e576101db903690600401610c19565b906044356001600160401b03811161015e576101fb903690600401610c19565b906064356001600160401b03811161015e5761021b903690600401610c19565b9190926084356001600160401b03811161015e5761023d903690600401610c19565b60005491979096916001600160a01b0316330361088c5760405161026081610aa9565b61026b368b8d610bd3565b8152610278368385610bd3565b6020820152610288368587610bd3565b6040820152610298368789610bd3565b60608201526102a836898b610bd3565b60808201526040518a8c82376020818c810160018152030190209080518051906001600160401b0382116106005781906102ec826102e68754610a6f565b87610c46565b602090601f831160011461082057600092610815575b50508160011b916000199060031b1c19161782555b60208101518051906001600160401b038211610600578190610349826103406001880154610a6f565b60018801610c46565b602090601f83116001146107a357600092610798575b50508160011b916000199060031b1c19161760018301555b60408101518051906001600160401b0382116106005781906103a9826103a06002880154610a6f565b60028801610c46565b602090601f83116001146107265760009261071b575b50508160011b916000199060031b1c19161760028301555b60608101518051906001600160401b03821161060057610407826103fe6003870154610a6f565b60038701610c46565b602090601f83116001146106a85760809392916000918361069d575b50508160011b916000199060031b1c19161760038401555b0151908151906001600160401b03821161060057600482910192610469826104638654610a6f565b86610c46565b602090601f83116001146106375760009261062c575b50508160011b916000199060031b1c19161790555b60025468010000000000000000811015610600578060016104b89201600255610a22565b610616576001600160401b038a11610600576104de8a6104d88354610a6f565b83610c46565b896000601f82116001146105995760009161058e575b508a60011b906000198c60031b1c19161790555b604051998a9960a08b5260a08b019061052092610c9a565b9089820360208b015261053292610c9a565b90878203604089015261054492610c9a565b90858203606087015261055692610c9a565b90838203608085015261056892610c9a565b037fc21f2dab60dd26e7d01b1dcac4a9fab19b4d3cb7f7df67e9930c1e18afd040d891a1005b90508b01358c6104f4565b60008381526020812092505b8d601f198e1682106105e85750508b601f198116106105ce575b505060018a811b019055610508565b8c013560001960038d901b60f8161c191690558b806105bf565b600183946020939484930135815501930191016105a5565b634e487b7160e01b600052604160045260246000fd5b634e487b7160e01b600052600060045260246000fd5b015190508d8061047f565b6000858152602081209350601f198516905b818110610685575090846001959493921061066c575b505050811b019055610494565b015160001960f88460031b161c191690558d808061065f565b92936020600181928786015181550195019301610649565b015190508f80610423565b906003850160005260206000209160005b601f1985168110610703575091839160019360809695601f198116106106ea575b505050811b01600384015561043b565b015160001960f88460031b161c191690558f80806106da565b919260206001819286850151815501940192016106b9565b015190508e806103bf565b9250600285016000526020600020906000935b601f198416851061077d576001945083601f19811610610764575b505050811b0160028301556103d7565b015160001960f88460031b161c191690558e8080610754565b81810151835560209485019460019093019290910190610739565b015190508e8061035f565b9250600185016000526020600020906000935b601f19841685106107fa576001945083601f198116106107e1575b505050811b016001830155610377565b015160001960f88460031b161c191690558e80806107d1565b818101518355602094850194600190930192909101906107b6565b015190508e80610302565b9250846000526020600020906000935b601f1984168510610871576001945083601f19811610610858575b505050811b018255610317565b015160001960f88460031b161c191690558e808061084b565b81810151835560209485019460019093019290910190610830565b60405162461bcd60e51b815260206004820152600b60248201526a139bdd081cdd195dd85c9960aa1b6044820152606490fd5b3461015e57602036600319011261015e576004356001600160401b03811161015e573660238201121561015e5761091b6020610908610981933690602481600401359101610bd3565b8160405193828580945193849201610b8b565b8101600181520301902061015a61093182610ae5565b916109ab61094160018301610ae5565b9161099d61095160028301610ae5565b61098f61096c600461096560038701610ae5565b9501610ae5565b95604051998a9960a08b5260a08b0190610bae565b9089820360208b0152610bae565b908782036040890152610bae565b908582036060870152610bae565b908382036080850152610bae565b3461015e57600036600319011261015e576020600254604051908152f35b3461015e57602036600319011261015e5760043560025481101561015e576109fe90610a22565b61061657610a0e61015a91610ae5565b604051918291602083526020830190610bae565b600254811015610a595760026000527f405787fa12a823e0f2b7631cc41b3ba8828b3321ca811111fa75cd3aa3bb5ace0190600090565b634e487b7160e01b600052603260045260246000fd5b90600182811c92168015610a9f575b6020831014610a8957565b634e487b7160e01b600052602260045260246000fd5b91607f1691610a7e565b60a081019081106001600160401b0382111761060057604052565b90601f801991011681019081106001600160401b0382111761060057604052565b9060405191826000825492610af984610a6f565b908184526001948581169081600014610b685750600114610b25575b5050610b2392500383610ac4565b565b9093915060005260209081600020936000915b818310610b50575050610b2393508201013880610b15565b85548884018501529485019487945091830191610b38565b915050610b2394506020925060ff191682840152151560051b8201013880610b15565b60005b838110610b9e5750506000910152565b8181015183820152602001610b8e565b90602091610bc781518092818552858086019101610b8b565b601f01601f1916010190565b9291926001600160401b0382116106005760405191610bfc601f8201601f191660200184610ac4565b82948184528183011161015e578281602093846000960137010152565b9181601f8401121561015e578235916001600160401b03831161015e576020838186019501011161015e57565b90601f8111610c5457505050565b600091825260208220906020601f850160051c83019410610c90575b601f0160051c01915b828110610c8557505050565b818155600101610c79565b9092508290610c70565b908060209392818452848401376000828201840152601f01601f191601019056fea2646970667358221220a91f180e981de2953274e0fd51cc556c12a499635d7881b1888c2e46c7d1ef3e64736f6c63430008140033","opcodes":"PUSH1 0x80 DUP1 PUSH1 0x40 MSTORE CALLVALUE PUSH2 0x28 JUMPI PUSH1 0x0 DUP1 SLOAD PUSH1 0x1 PUSH1 0x1 PUSH1 0xA0 SHL SUB NOT AND CALLER OR SWAP1 SSTORE PUSH2 0xCF1 SWAP1 DUP2 PUSH2 0x2E DUP3 CODECOPY RETURN JUMPDEST PUSH1 0x0 DUP1 REVERT INVALID PUSH1 0x80 PUSH1 0x40 MSTORE PUSH1 0x4 CALLDATASIZE LT ISZERO PUSH2 0x12 JUMPI PUSH1 0x0 DUP1 REVERT JUMPDEST PUSH1 0x0 CALLDATALOAD PUSH1 0xE0 SHR DUP1 PUSH4 0xCB6AAF1 EQ PUSH2 0x9D7 JUMPI DUP1 PUSH4 0x2BB3DCC8 EQ PUSH2 0x9B9 JUMPI DUP1 PUSH4 0x2EE5C65B EQ PUSH2 0x8BF JUMPI DUP1 PUSH4 0x55A01E2A EQ PUSH2 0x18C JUMPI DUP1 PUSH4 0x637EEA19 EQ PUSH2 0x163 JUMPI PUSH4 0x87562105 EQ PUSH2 0x5E JUMPI PUSH1 0x0 DUP1 REVERT JUMPDEST CALLVALUE PUSH2 0x15E JUMPI PUSH1 0x20 CALLDATASIZE PUSH1 0x3 NOT ADD SLT PUSH2 0x15E JUMPI PUSH1 0x4 CALLDATALOAD PUSH1 0x1 PUSH1 0x1 PUSH1 0x40 SHL SUB DUP2 GT PUSH2 0x15E JUMPI PUSH1 0x20 PUSH2 0x93 PUSH2 0x130 SWAP3 CALLDATASIZE SWAP1 PUSH1 0x4 ADD PUSH2 0xC19 JUMP JUMPDEST SWAP2 SWAP1 DUP3 PUSH1 0x40 MLOAD SWAP4 DUP5 SWAP3 DUP4 CALLDATACOPY DUP2 ADD PUSH1 0x1 DUP2 MSTORE SUB ADD SWAP1 KECCAK256 PUSH2 0x15A PUSH1 0x80 PUSH2 0x14C PUSH1 0x40 MLOAD SWAP4 PUSH2 0xBD DUP6 PUSH2 0xAA9 JUMP JUMPDEST PUSH2 0xC6 DUP2 PUSH2 0xAE5 JUMP JUMPDEST DUP6 MSTORE PUSH2 0x13E PUSH2 0xD7 PUSH1 0x1 DUP4 ADD PUSH2 0xAE5 JUMP JUMPDEST PUSH1 0x20 DUP8 ADD SWAP1 DUP2 MSTORE PUSH2 0xEA PUSH1 0x2 DUP5 ADD PUSH2 0xAE5 JUMP JUMPDEST SWAP7 PUSH1 0x40 DUP2 ADD SWAP8 DUP9 MSTORE PUSH2 0x111 PUSH1 0x4 PUSH2 0x103 PUSH1 0x3 DUP8 ADD PUSH2 0xAE5 JUMP JUMPDEST SWAP6 PUSH1 0x60 DUP5 ADD SWAP7 DUP8 MSTORE ADD PUSH2 0xAE5 JUMP JUMPDEST SWAP6 DUP7 SWAP2 ADD MSTORE MLOAD SWAP6 MLOAD SWAP2 MLOAD SWAP2 PUSH1 0x40 MLOAD SWAP8 DUP9 SWAP8 PUSH1 0x80 DUP10 MSTORE PUSH1 0x80 DUP10 ADD SWAP1 PUSH2 0xBAE JUMP JUMPDEST SWAP1 DUP8 DUP3 SUB PUSH1 0x20 DUP10 ADD MSTORE PUSH2 0xBAE JUMP JUMPDEST SWAP1 DUP6 DUP3 SUB PUSH1 0x40 DUP8 ADD MSTORE PUSH2 0xBAE JUMP JUMPDEST SWAP1 DUP4 DUP3 SUB PUSH1 0x60 DUP6 ADD MSTORE PUSH2 0xBAE JUMP JUMPDEST SUB SWAP1 RETURN JUMPDEST PUSH1 0x0 DUP1 REVERT JUMPDEST CALLVALUE PUSH2 0x15E JUMPI PUSH1 0x0 CALLDATASIZE PUSH1 0x3 NOT ADD SLT PUSH2 0x15E JUMPI PUSH1 0x0 SLOAD PUSH1 0x40 MLOAD PUSH1 0x1 PUSH1 0x1 PUSH1 0xA0 SHL SUB SWAP1 SWAP2 AND DUP2 MSTORE PUSH1 0x20 SWAP1 RETURN JUMPDEST CALLVALUE PUSH2 0x15E JUMPI PUSH1 0xA0 CALLDATASIZE PUSH1 0x3 NOT ADD SLT PUSH2 0x15E JUMPI PUSH1 0x4 CALLDATALOAD PUSH1 0x1 PUSH1 0x1 PUSH1 0x40 SHL SUB DUP2 GT PUSH2 0x15E JUMPI PUSH2 0x1BC SWAP1 CALLDATASIZE SWAP1 PUSH1 0x4 ADD PUSH2 0xC19 JUMP JUMPDEST PUSH1 0x24 CALLDATALOAD PUSH1 0x1 PUSH1 0x1 PUSH1 0x40 SHL SUB DUP2 GT PUSH2 0x15E JUMPI PUSH2 0x1DB SWAP1 CALLDATASIZE SWAP1 PUSH1 0x4 ADD PUSH2 0xC19 JUMP JUMPDEST SWAP1 PUSH1 0x44 CALLDATALOAD PUSH1 0x1 PUSH1 0x1 PUSH1 0x40 SHL SUB DUP2 GT PUSH2 0x15E JUMPI PUSH2 0x1FB SWAP1 CALLDATASIZE SWAP1 PUSH1 0x4 ADD PUSH2 0xC19 JUMP JUMPDEST SWAP1 PUSH1 0x64 CALLDATALOAD PUSH1 0x1 PUSH1 0x1 PUSH1 0x40 SHL SUB DUP2 GT PUSH2 0x15E JUMPI PUSH2 0x21B SWAP1 CALLDATASIZE SWAP1 PUSH1 0x4 ADD PUSH2 0xC19 JUMP JUMPDEST SWAP2 SWAP1 SWAP3 PUSH1 0x84 CALLDATALOAD PUSH1 0x1 PUSH1 0x1 PUSH1 0x40 SHL SUB DUP2 GT PUSH2 0x15E JUMPI PUSH2 0x23D SWAP1 CALLDATASIZE SWAP1 PUSH1 0x4 ADD PUSH2 0xC19 JUMP JUMPDEST PUSH1 0x0 SLOAD SWAP2 SWAP8 SWAP1 SWAP7 SWAP2 PUSH1 0x1 PUSH1 0x1 PUSH1 0xA0 SHL SUB AND CALLER SUB PUSH2 0x88C JUMPI PUSH1 0x40 MLOAD PUSH2 0x260 DUP2 PUSH2 0xAA9 JUMP JUMPDEST PUSH2 0x26B CALLDATASIZE DUP12 DUP14 PUSH2 0xBD3 JUMP JUMPDEST DUP2 MSTORE PUSH2 0x278 CALLDATASIZE DUP4 DUP6 PUSH2 0xBD3 JUMP JUMPDEST PUSH1 0x20 DUP3 ADD MSTORE PUSH2 0x288 CALLDATASIZE DUP6 DUP8 PUSH2 0xBD3 JUMP JUMPDEST PUSH1 0x40 DUP3 ADD MSTORE PUSH2 0x298 CALLDATASIZE DUP8 DUP10 PUSH2 0xBD3 JUMP JUMPDEST PUSH1 0x60 DUP3 ADD MSTORE PUSH2 0x2A8 CALLDATASIZE DUP10 DUP12 PUSH2 0xBD3 JUMP JUMPDEST PUSH1 0x80 DUP3 ADD MSTORE PUSH1 0x40 MLOAD DUP11 DUP13 DUP3 CALLDATACOPY PUSH1 0x20 DUP2 DUP13 DUP2 ADD PUSH1 0x1 DUP2 MSTORE SUB ADD SWAP1 KECCAK256 SWAP1 DUP1 MLOAD DUP1 MLOAD SWAP1 PUSH1 0x1 PUSH1 0x1 PUSH1 0x40 SHL SUB DUP3 GT PUSH2 0x600 JUMPI DUP2 SWAP1 PUSH2 0x2EC DUP3 PUSH2 0x2E6 DUP8 SLOAD PUSH2 0xA6F JUMP JUMPDEST DUP8 PUSH2 0xC46 JUMP JUMPDEST PUSH1 0x20 SWAP1 PUSH1 0x1F DUP4 GT PUSH1 0x1 EQ PUSH2 0x820 JUMPI PUSH1 0x0 SWAP3 PUSH2 0x815 JUMPI JUMPDEST POP POP DUP2 PUSH1 0x1 SHL SWAP2 PUSH1 0x0 NOT SWAP1 PUSH1 0x3 SHL SHR NOT AND OR DUP3 SSTORE JUMPDEST PUSH1 0x20 DUP2 ADD MLOAD DUP1 MLOAD SWAP1 PUSH1 0x1 PUSH1 0x1 PUSH1 0x40 SHL SUB DUP3 GT PUSH2 0x600 JUMPI DUP2 SWAP1 PUSH2 0x349 DUP3 PUSH2 0x340 PUSH1 0x1 DUP9 ADD SLOAD PUSH2 0xA6F JUMP JUMPDEST PUSH1 0x1 DUP9 ADD PUSH2 0xC46 JUMP JUMPDEST PUSH1 0x20 SWAP1 PUSH1 0x1F DUP4 GT PUSH1 0x1 EQ PUSH2 0x7A3 JUMPI PUSH1 0x0 SWAP3 PUSH2 0x798 JUMPI JUMPDEST POP POP DUP2 PUSH1 0x1 SHL SWAP2 PUSH1 0x0 NOT SWAP1 PUSH1 0x3 SHL SHR NOT AND OR PUSH1 0x1 DUP4 ADD SSTORE JUMPDEST PUSH1 0x40 DUP2 ADD MLOAD DUP1 MLOAD SWAP1 PUSH1 0x1 PUSH1 0x1 PUSH1 0x40 SHL SUB DUP3 GT PUSH2 0x600 JUMPI DUP2 SWAP1 PUSH2 0x3A9 DUP3 PUSH2 0x3A0 PUSH1 0x2 DUP9 ADD SLOAD PUSH2 0xA6F JUMP JUMPDEST PUSH1 0x2 DUP9 ADD PUSH2 0xC46 JUMP JUMPDEST PUSH1 0x20 SWAP1 PUSH1 0x1F DUP4 GT PUSH1 0x1 EQ PUSH2 0x726 JUMPI PUSH1 0x0 SWAP3 PUSH2 0x71B JUMPI JUMPDEST POP POP DUP2 PUSH1 0x1 SHL SWAP2 PUSH1 0x0 NOT SWAP1 PUSH1 0x3 SHL SHR NOT AND OR PUSH1 0x2 DUP4 ADD SSTORE JUMPDEST PUSH1 0x60 DUP2 ADD MLOAD DUP1 MLOAD SWAP1 PUSH1 0x1 PUSH1 0x1 PUSH1 0x40 SHL SUB DUP3 GT PUSH2 0x600 JUMPI PUSH2 0x407 DUP3 PUSH2 0x3FE PUSH1 0x3 DUP8 ADD SLOAD PUSH2 0xA6F JUMP JUMPDEST PUSH1 0x3 DUP8 ADD PUSH2 0xC46 JUMP JUMPDEST PUSH1 0x20 SWAP1 PUSH1 0x1F DUP4 GT PUSH1 0x1 EQ PUSH2 0x6A8 JUMPI PUSH1 0x80 SWAP4 SWAP3 SWAP2 PUSH1 0x0 SWAP2 DUP4 PUSH2 0x69D JUMPI JUMPDEST POP POP DUP2 PUSH1 0x1 SHL SWAP2 PUSH1 0x0 NOT SWAP1 PUSH1 0x3 SHL SHR NOT AND OR PUSH1 0x3 DUP5 ADD SSTORE JUMPDEST ADD MLOAD SWAP1 DUP2 MLOAD SWAP1 PUSH1 0x1 PUSH1 0x1 PUSH1 0x40 SHL SUB DUP3 GT PUSH2 0x600 JUMPI PUSH1 0x4 DUP3 SWAP2 ADD SWAP3 PUSH2 0x469 DUP3 PUSH2 0x463 DUP7 SLOAD PUSH2 0xA6F JUMP JUMPDEST DUP7 PUSH2 0xC46 JUMP JUMPDEST PUSH1 0x20 SWAP1 PUSH1 0x1F DUP4 GT PUSH1 0x1 EQ PUSH2 0x637 JUMPI PUSH1 0x0 SWAP3 PUSH2 0x62C JUMPI JUMPDEST POP POP DUP2 PUSH1 0x1 SHL SWAP2 PUSH1 0x0 NOT SWAP1 PUSH1 0x3 SHL SHR NOT AND OR SWAP1 SSTORE JUMPDEST PUSH1 0x2 SLOAD PUSH9 0x10000000000000000 DUP2 LT ISZERO PUSH2 0x600 JUMPI DUP1 PUSH1 0x1 PUSH2 0x4B8 SWAP3 ADD PUSH1 0x2 SSTORE PUSH2 0xA22 JUMP JUMPDEST PUSH2 0x616 JUMPI PUSH1 0x1 PUSH1 0x1 PUSH1 0x40 SHL SUB DUP11 GT PUSH2 0x600 JUMPI PUSH2 0x4DE DUP11 PUSH2 0x4D8 DUP4 SLOAD PUSH2 0xA6F JUMP JUMPDEST DUP4 PUSH2 0xC46 JUMP JUMPDEST DUP10 PUSH1 0x0 PUSH1 0x1F DUP3 GT PUSH1 0x1 EQ PUSH2 0x599 JUMPI PUSH1 0x0 SWAP2 PUSH2 0x58E JUMPI JUMPDEST POP DUP11 PUSH1 0x1 SHL SWAP1 PUSH1 0x0 NOT DUP13 PUSH1 0x3 SHL SHR NOT AND OR SWAP1 SSTORE JUMPDEST PUSH1 0x40 MLOAD SWAP10 DUP11 SWAP10 PUSH1 0xA0 DUP12 MSTORE PUSH1 0xA0 DUP12 ADD SWAP1 PUSH2 0x520 SWAP3 PUSH2 0xC9A JUMP JUMPDEST SWAP1 DUP10 DUP3 SUB PUSH1 0x20 DUP12 ADD MSTORE PUSH2 0x532 SWAP3 PUSH2 0xC9A JUMP JUMPDEST SWAP1 DUP8 DUP3 SUB PUSH1 0x40 DUP10 ADD MSTORE PUSH2 0x544 SWAP3 PUSH2 0xC9A JUMP JUMPDEST SWAP1 DUP6 DUP3 SUB PUSH1 0x60 DUP8 ADD MSTORE PUSH2 0x556 SWAP3 PUSH2 0xC9A JUMP JUMPDEST SWAP1 DUP4 DUP3 SUB PUSH1 0x80 DUP6 ADD MSTORE PUSH2 0x568 SWAP3 PUSH2 0xC9A JUMP JUMPDEST SUB PUSH32 0xC21F2DAB60DD26E7D01B1DCAC4A9FAB19B4D3CB7F7DF67E9930C1E18AFD040D8 SWAP2 LOG1 STOP JUMPDEST SWAP1 POP DUP12 ADD CALLDATALOAD DUP13 PUSH2 0x4F4 JUMP JUMPDEST PUSH1 0x0 DUP4 DUP2 MSTORE PUSH1 0x20 DUP2 KECCAK256 SWAP3 POP JUMPDEST DUP14 PUSH1 0x1F NOT DUP15 AND DUP3 LT PUSH2 0x5E8 JUMPI POP POP DUP12 PUSH1 0x1F NOT DUP2 AND LT PUSH2 0x5CE JUMPI JUMPDEST POP POP PUSH1 0x1 DUP11 DUP2 SHL ADD SWAP1 SSTORE PUSH2 0x508 JUMP JUMPDEST DUP13 ADD CALLDATALOAD PUSH1 0x0 NOT PUSH1 0x3 DUP14 SWAP1 SHL PUSH1 0xF8 AND SHR NOT AND SWAP1 SSTORE DUP12 DUP1 PUSH2 0x5BF JUMP JUMPDEST PUSH1 0x1 DUP4 SWAP5 PUSH1 0x20 SWAP4 SWAP5 DUP5 SWAP4 ADD CALLDATALOAD DUP2 SSTORE ADD SWAP4 ADD SWAP2 ADD PUSH2 0x5A5 JUMP JUMPDEST PUSH4 0x4E487B71 PUSH1 0xE0 SHL PUSH1 0x0 MSTORE PUSH1 0x41 PUSH1 0x4 MSTORE PUSH1 0x24 PUSH1 0x0 REVERT JUMPDEST PUSH4 0x4E487B71 PUSH1 0xE0 SHL PUSH1 0x0 MSTORE PUSH1 0x0 PUSH1 0x4 MSTORE PUSH1 0x24 PUSH1 0x0 REVERT JUMPDEST ADD MLOAD SWAP1 POP DUP14 DUP1 PUSH2 0x47F JUMP JUMPDEST PUSH1 0x0 DUP6 DUP2 MSTORE PUSH1 0x20 DUP2 KECCAK256 SWAP4 POP PUSH1 0x1F NOT DUP6 AND SWAP1 JUMPDEST DUP2 DUP2 LT PUSH2 0x685 JUMPI POP SWAP1 DUP5 PUSH1 0x1 SWAP6 SWAP5 SWAP4 SWAP3 LT PUSH2 0x66C JUMPI JUMPDEST POP POP POP DUP2 SHL ADD SWAP1 SSTORE PUSH2 0x494 JUMP JUMPDEST ADD MLOAD PUSH1 0x0 NOT PUSH1 0xF8 DUP5 PUSH1 0x3 SHL AND SHR NOT AND SWAP1 SSTORE DUP14 DUP1 DUP1 PUSH2 0x65F JUMP JUMPDEST SWAP3 SWAP4 PUSH1 0x20 PUSH1 0x1 DUP2 SWAP3 DUP8 DUP7 ADD MLOAD DUP2 SSTORE ADD SWAP6 ADD SWAP4 ADD PUSH2 0x649 JUMP JUMPDEST ADD MLOAD SWAP1 POP DUP16 DUP1 PUSH2 0x423 JUMP JUMPDEST SWAP1 PUSH1 0x3 DUP6 ADD PUSH1 0x0 MSTORE PUSH1 0x20 PUSH1 0x0 KECCAK256 SWAP2 PUSH1 0x0 JUMPDEST PUSH1 0x1F NOT DUP6 AND DUP2 LT PUSH2 0x703 JUMPI POP SWAP2 DUP4 SWAP2 PUSH1 0x1 SWAP4 PUSH1 0x80 SWAP7 SWAP6 PUSH1 0x1F NOT DUP2 AND LT PUSH2 0x6EA JUMPI JUMPDEST POP POP POP DUP2 SHL ADD PUSH1 0x3 DUP5 ADD SSTORE PUSH2 0x43B JUMP JUMPDEST ADD MLOAD PUSH1 0x0 NOT PUSH1 0xF8 DUP5 PUSH1 0x3 SHL AND SHR NOT AND SWAP1 SSTORE DUP16 DUP1 DUP1 PUSH2 0x6DA JUMP JUMPDEST SWAP2 SWAP3 PUSH1 0x20 PUSH1 0x1 DUP2 SWAP3 DUP7 DUP6 ADD MLOAD DUP2 SSTORE ADD SWAP5 ADD SWAP3 ADD PUSH2 0x6B9 JUMP JUMPDEST ADD MLOAD SWAP1 POP DUP15 DUP1 PUSH2 0x3BF JUMP JUMPDEST SWAP3 POP PUSH1 0x2 DUP6 ADD PUSH1 0x0 MSTORE PUSH1 0x20 PUSH1 0x0 KECCAK256 SWAP1 PUSH1 0x0 SWAP4 JUMPDEST PUSH1 0x1F NOT DUP5 AND DUP6 LT PUSH2 0x77D JUMPI PUSH1 0x1 SWAP5 POP DUP4 PUSH1 0x1F NOT DUP2 AND LT PUSH2 0x764 JUMPI JUMPDEST POP POP POP DUP2 SHL ADD PUSH1 0x2 DUP4 ADD SSTORE PUSH2 0x3D7 JUMP JUMPDEST ADD MLOAD PUSH1 0x0 NOT PUSH1 0xF8 DUP5 PUSH1 0x3 SHL AND SHR NOT AND SWAP1 SSTORE DUP15 DUP1 DUP1 PUSH2 0x754 JUMP JUMPDEST DUP2 DUP2 ADD MLOAD DUP4 SSTORE PUSH1 0x20 SWAP5 DUP6 ADD SWAP5 PUSH1 0x1 SWAP1 SWAP4 ADD SWAP3 SWAP1 SWAP2 ADD SWAP1 PUSH2 0x739 JUMP JUMPDEST ADD MLOAD SWAP1 POP DUP15 DUP1 PUSH2 0x35F JUMP JUMPDEST SWAP3 POP PUSH1 0x1 DUP6 ADD PUSH1 0x0 MSTORE PUSH1 0x20 PUSH1 0x0 KECCAK256 SWAP1 PUSH1 0x0 SWAP4 JUMPDEST PUSH1 0x1F NOT DUP5 AND DUP6 LT PUSH2 0x7FA JUMPI PUSH1 0x1 SWAP5 POP DUP4 PUSH1 0x1F NOT DUP2 AND LT PUSH2 0x7E1 JUMPI JUMPDEST POP POP POP DUP2 SHL ADD PUSH1 0x1 DUP4 ADD SSTORE PUSH2 0x377 JUMP JUMPDEST ADD MLOAD PUSH1 0x0 NOT PUSH1 0xF8 DUP5 PUSH1 0x3 SHL AND SHR NOT AND SWAP1 SSTORE DUP15 DUP1 DUP1 PUSH2 0x7D1 JUMP JUMPDEST DUP2 DUP2 ADD MLOAD DUP4 SSTORE PUSH1 0x20 SWAP5 DUP6 ADD SWAP5 PUSH1 0x1 SWAP1 SWAP4 ADD SWAP3 SWAP1 SWAP2 ADD SWAP1 PUSH2 0x7B6 JUMP JUMPDEST ADD MLOAD SWAP1 POP DUP15 DUP1 PUSH2 0x302 JUMP JUMPDEST SWAP3 POP DUP5 PUSH1 0x0 MSTORE PUSH1 0x20 PUSH1 0x0 KECCAK256 SWAP1 PUSH1 0x0 SWAP4 JUMPDEST PUSH1 0x1F NOT DUP5 AND DUP6 LT PUSH2 0x871 JUMPI PUSH1 0x1 SWAP5 POP DUP4 PUSH1 0x1F NOT DUP2 AND LT PUSH2 0x858 JUMPI JUMPDEST POP POP POP DUP2 SHL ADD DUP3 SSTORE PUSH2 0x317 JUMP JUMPDEST ADD MLOAD PUSH1 0x0 NOT PUSH1 0xF8 DUP5 PUSH1 0x3 SHL AND SHR NOT AND SWAP1 SSTORE DUP15 DUP1 DUP1 PUSH2 0x84B JUMP JUMPDEST DUP2 DUP2 ADD MLOAD DUP4 SSTORE PUSH1 0x20 SWAP5 DUP6 ADD SWAP5 PUSH1 0x1 SWAP1 SWAP4 ADD SWAP3 SWAP1 SWAP2 ADD SWAP1 PUSH2 0x830 JUMP JUMPDEST PUSH1 0x40 MLOAD PUSH3 0x461BCD PUSH1 0xE5 SHL DUP2 MSTORE PUSH1 0x20 PUSH1 0x4 DUP3 ADD MSTORE PUSH1 0xB PUSH1 0x24 DUP3 ADD MSTORE PUSH11 0x139BDD081CDD195DD85C99 PUSH1 0xAA SHL PUSH1 0x44 DUP3 ADD MSTORE PUSH1 0x64 SWAP1 REVERT JUMPDEST CALLVALUE PUSH2 0x15E JUMPI PUSH1 0x20 CALLDATASIZE PUSH1 0x3 NOT ADD SLT PUSH2 0x15E JUMPI PUSH1 0x4 CALLDATALOAD PUSH1 0x1 PUSH1 0x1 PUSH1 0x40 SHL SUB DUP2 GT PUSH2 0x15E JUMPI CALLDATASIZE PUSH1 0x23 DUP3 ADD SLT ISZERO PUSH2 0x15E JUMPI PUSH2 0x91B PUSH1 0x20 PUSH2 0x908 PUSH2 0x981 SWAP4 CALLDATASIZE SWAP1 PUSH1 0x24 DUP2 PUSH1 0x4 ADD CALLDATALOAD SWAP2 ADD PUSH2 0xBD3 JUMP JUMPDEST DUP2 PUSH1 0x40 MLOAD SWAP4 DUP3 DUP6 DUP1 SWAP5 MLOAD SWAP4 DUP5 SWAP3 ADD PUSH2 0xB8B JUMP JUMPDEST DUP2 ADD PUSH1 0x1 DUP2 MSTORE SUB ADD SWAP1 KECCAK256 PUSH2 0x15A PUSH2 0x931 DUP3 PUSH2 0xAE5 JUMP JUMPDEST SWAP2 PUSH2 0x9AB PUSH2 0x941 PUSH1 0x1 DUP4 ADD PUSH2 0xAE5 JUMP JUMPDEST SWAP2 PUSH2 0x99D PUSH2 0x951 PUSH1 0x2 DUP4 ADD PUSH2 0xAE5 JUMP JUMPDEST PUSH2 0x98F PUSH2 0x96C PUSH1 0x4 PUSH2 0x965 PUSH1 0x3 DUP8 ADD PUSH2 0xAE5 JUMP JUMPDEST SWAP6 ADD PUSH2 0xAE5 JUMP JUMPDEST SWAP6 PUSH1 0x40 MLOAD SWAP10 DUP11 SWAP10 PUSH1 0xA0 DUP12 MSTORE PUSH1 0xA0 DUP12 ADD SWAP1 PUSH2 0xBAE JUMP JUMPDEST SWAP1 DUP10 DUP3 SUB PUSH1 0x20 DUP12 ADD MSTORE PUSH2 0xBAE JUMP JUMPDEST SWAP1 DUP8 DUP3 SUB PUSH1 0x40 DUP10 ADD MSTORE PUSH2 0xBAE JUMP JUMPDEST SWAP1 DUP6 DUP3 SUB PUSH1 0x60 DUP8 ADD MSTORE PUSH2 0xBAE JUMP JUMPDEST SWAP1 DUP4 DUP3 SUB PUSH1 0x80 DUP6 ADD MSTORE PUSH2 0xBAE JUMP JUMPDEST CALLVALUE PUSH2 0x15E JUMPI PUSH1 0x0 CALLDATASIZE PUSH1 0x3 NOT ADD SLT PUSH2 0x15E JUMPI PUSH1 0x20 PUSH1 0x2 SLOAD PUSH1 0x40 MLOAD SWAP1 DUP2 MSTORE RETURN JUMPDEST CALLVALUE PUSH2 0x15E JUMPI PUSH1 0x20 CALLDATASIZE PUSH1 0x3 NOT ADD SLT PUSH2 0x15E JUMPI PUSH1 0x4 CALLDATALOAD PUSH1 0x2 SLOAD DUP2 LT ISZERO PUSH2 0x15E JUMPI PUSH2 0x9FE SWAP1 PUSH2 0xA22 JUMP JUMPDEST PUSH2 0x616 JUMPI PUSH2 0xA0E PUSH2 0x15A SWAP2 PUSH2 0xAE5 JUMP JUMPDEST PUSH1 0x40 MLOAD SWAP2 DUP3 SWAP2 PUSH1 0x20 DUP4 MSTORE PUSH1 0x20 DUP4 ADD SWAP1 PUSH2 0xBAE JUMP JUMPDEST PUSH1 0x2 SLOAD DUP2 LT ISZERO PUSH2 0xA59 JUMPI PUSH1 0x2 PUSH1 0x0 MSTORE PUSH32 0x405787FA12A823E0F2B7631CC41B3BA8828B3321CA811111FA75CD3AA3BB5ACE ADD SWAP1 PUSH1 0x0 SWAP1 JUMP JUMPDEST PUSH4 0x4E487B71 PUSH1 0xE0 SHL PUSH1 0x0 MSTORE PUSH1 0x32 PUSH1 0x4 MSTORE PUSH1 0x24 PUSH1 0x0 REVERT JUMPDEST SWAP1 PUSH1 0x1 DUP3 DUP2 SHR SWAP3 AND DUP1 ISZERO PUSH2 0xA9F JUMPI JUMPDEST PUSH1 0x20 DUP4 LT EQ PUSH2 0xA89 JUMPI JUMP JUMPDEST PUSH4 0x4E487B71 PUSH1 0xE0 SHL PUSH1 0x0 MSTORE PUSH1 0x22 PUSH1 0x4 MSTORE PUSH1 0x24 PUSH1 0x0 REVERT JUMPDEST SWAP2 PUSH1 0x7F AND SWAP2 PUSH2 0xA7E JUMP JUMPDEST PUSH1 0xA0 DUP2 ADD SWAP1 DUP2 LT PUSH1 0x1 PUSH1 0x1 PUSH1 0x40 SHL SUB DUP3 GT OR PUSH2 0x600 JUMPI PUSH1 0x40 MSTORE JUMP JUMPDEST SWAP1 PUSH1 0x1F DUP1 NOT SWAP2 ADD AND DUP2 ADD SWAP1 DUP2 LT PUSH1 0x1 PUSH1 0x1 PUSH1 0x40 SHL SUB DUP3 GT OR PUSH2 0x600 JUMPI PUSH1 0x40 MSTORE JUMP JUMPDEST SWAP1 PUSH1 0x40 MLOAD SWAP2 DUP3 PUSH1 0x0 DUP3 SLOAD SWAP3 PUSH2 0xAF9 DUP5 PUSH2 0xA6F JUMP JUMPDEST SWAP1 DUP2 DUP5 MSTORE PUSH1 0x1 SWAP5 DUP6 DUP2 AND SWAP1 DUP2 PUSH1 0x0 EQ PUSH2 0xB68 JUMPI POP PUSH1 0x1 EQ PUSH2 0xB25 JUMPI JUMPDEST POP POP PUSH2 0xB23 SWAP3 POP SUB DUP4 PUSH2 0xAC4 JUMP JUMPDEST JUMP JUMPDEST SWAP1 SWAP4 SWAP2 POP PUSH1 0x0 MSTORE PUSH1 0x20 SWAP1 DUP2 PUSH1 0x0 KECCAK256 SWAP4 PUSH1 0x0 SWAP2 JUMPDEST DUP2 DUP4 LT PUSH2 0xB50 JUMPI POP POP PUSH2 0xB23 SWAP4 POP DUP3 ADD ADD CODESIZE DUP1 PUSH2 0xB15 JUMP JUMPDEST DUP6 SLOAD DUP9 DUP5 ADD DUP6 ADD MSTORE SWAP5 DUP6 ADD SWAP5 DUP8 SWAP5 POP SWAP2 DUP4 ADD SWAP2 PUSH2 0xB38 JUMP JUMPDEST SWAP2 POP POP PUSH2 0xB23 SWAP5 POP PUSH1 0x20 SWAP3 POP PUSH1 0xFF NOT AND DUP3 DUP5 ADD MSTORE ISZERO ISZERO PUSH1 0x5 SHL DUP3 ADD ADD CODESIZE DUP1 PUSH2 0xB15 JUMP JUMPDEST PUSH1 0x0 JUMPDEST DUP4 DUP2 LT PUSH2 0xB9E JUMPI POP POP PUSH1 0x0 SWAP2 ADD MSTORE JUMP JUMPDEST DUP2 DUP2 ADD MLOAD DUP4 DUP3 ADD MSTORE PUSH1 0x20 ADD PUSH2 0xB8E JUMP JUMPDEST SWAP1 PUSH1 0x20 SWAP2 PUSH2 0xBC7 DUP2 MLOAD DUP1 SWAP3 DUP2 DUP6 MSTORE DUP6 DUP1 DUP7 ADD SWAP2 ADD PUSH2 0xB8B JUMP JUMPDEST PUSH1 0x1F ADD PUSH1 0x1F NOT AND ADD ADD SWAP1 JUMP JUMPDEST SWAP3 SWAP2 SWAP3 PUSH1 0x1 PUSH1 0x1 PUSH1 0x40 SHL SUB DUP3 GT PUSH2 0x600 JUMPI PUSH1 0x40 MLOAD SWAP2 PUSH2 0xBFC PUSH1 0x1F DUP3 ADD PUSH1 0x1F NOT AND PUSH1 0x20 ADD DUP5 PUSH2 0xAC4 JUMP JUMPDEST DUP3 SWAP5 DUP2 DUP5 MSTORE DUP2 DUP4 ADD GT PUSH2 0x15E JUMPI DUP3 DUP2 PUSH1 0x20 SWAP4 DUP5 PUSH1 0x0 SWAP7 ADD CALLDATACOPY ADD ADD MSTORE JUMP JUMPDEST SWAP2 DUP2 PUSH1 0x1F DUP5 ADD SLT ISZERO PUSH2 0x15E JUMPI DUP3 CALLDATALOAD SWAP2 PUSH1 0x1 PUSH1 0x1 PUSH1 0x40 SHL SUB DUP4 GT PUSH2 0x15E JUMPI PUSH1 0x20 DUP4 DUP2 DUP7 ADD SWAP6 ADD ADD GT PUSH2 0x15E JUMPI JUMP JUMPDEST SWAP1 PUSH1 0x1F DUP2 GT PUSH2 0xC54 JUMPI POP POP POP JUMP JUMPDEST PUSH1 0x0 SWAP2 DUP3 MSTORE PUSH1 0x20 DUP3 KECCAK256 SWAP1 PUSH1 0x20 PUSH1 0x1F DUP6 ADD PUSH1 0x5 SHR DUP4 ADD SWAP5 LT PUSH2 0xC90 JUMPI JUMPDEST PUSH1 0x1F ADD PUSH1 0x5 SHR ADD SWAP2 JUMPDEST DUP3 DUP2 LT PUSH2 0xC85 JUMPI POP POP POP JUMP JUMPDEST DUP2 DUP2 SSTORE PUSH1 0x1 ADD PUSH2 0xC79 JUMP JUMPDEST SWAP1 SWAP3 POP DUP3 SWAP1 PUSH2 0xC70 JUMP JUMPDEST SWAP1 DUP1 PUSH1 0x20 SWAP4 SWAP3 DUP2 DUP5 MSTORE DUP5 DUP5 ADD CALLDATACOPY PUSH1 0x0 DUP3 DUP3 ADD DUP5 ADD MSTORE PUSH1 0x1F ADD PUSH1 0x1F NOT AND ADD ADD SWAP1 JUMP INVALID LOG2 PUSH5 0x6970667358 0x22 SLT KECCAK256 0xA9 0x1F XOR 0xE SWAP9 SAR 0xE2 SWAP6 ORIGIN PUSH21 0xE0FD51CC556C12A499635D7881B1888C2E46C7D1EF RETURNDATACOPY PUSH5 0x736F6C6343 STOP ADDMOD EQ STOP CALLER "},"methodIdentifiers":{"getInvocation(string)":"87562105","invocations(string)":"2ee5c65b","keys(uint256)":"0cb6aaf1","orchestrate(string,string,string,string,string)":"55a01e2a","steward()":"637eea19","totalInvocations()":"2bb3dcc8"}}}}}