{"contracts/registry/CompanionSummoner.sol":{"CompanionSummoner":{"abi":[{"inputs":[],"stateMutability":"nonpayable","type":"constructor"},{"anonymous":false,"inputs":[{"indexed":true,"internalType":"address","name":"companion","type":"address"},{"indexed":false,"internalType":"string","name":"name","type":"string"},{"indexed":false,"internalType":"string","name":"trait","type":"string"},{"indexed":false,"internalType":"string","name":"resonance","type":"string"},{"indexed":false,"internalType":"string","name":"drift","type":"string"},{"indexed":false,"internalType":"string","name":"codexRef","type":"string"}],"name":"CompanionSummoned","type":"event"},{"inputs":[{"internalType":"address","name":"","type":"address"}],"name":"companions","outputs":[{"internalType":"string","name":"name","type":"string"},{"internalType":"string","name":"trait","type":"string"},{"internalType":"string","name":"resonance","type":"string"},{"internalType":"string","name":"drift","type":"string"},{"internalType":"string","name":"codexRef","type":"string"}],"stateMutability":"view","type":"function"},{"inputs":[{"internalType":"address","name":"companion","type":"address"}],"name":"getCompanion","outputs":[{"internalType":"string","name":"","type":"string"},{"internalType":"string","name":"","type":"string"},{"internalType":"string","name":"","type":"string"},{"internalType":"string","name":"","type":"string"},{"internalType":"string","name":"","type":"string"}],"stateMutability":"view","type":"function"},{"inputs":[{"internalType":"uint256","name":"","type":"uint256"}],"name":"keys","outputs":[{"internalType":"address","name":"","type":"address"}],"stateMutability":"view","type":"function"},{"inputs":[],"name":"steward","outputs":[{"internalType":"address","name":"","type":"address"}],"stateMutability":"view","type":"function"},{"inputs":[{"internalType":"address","name":"companion","type":"address"},{"internalType":"string","name":"name","type":"string"},{"internalType":"string","name":"trait","type":"string"},{"internalType":"string","name":"resonance","type":"string"},{"internalType":"string","name":"drift","type":"string"},{"internalType":"string","name":"codexRef","type":"string"}],"name":"summonCompanion","outputs":[],"stateMutability":"nonpayable","type":"function"},{"inputs":[],"name":"totalCompanions","outputs":[{"internalType":"uint256","name":"","type":"uint256"}],"stateMutability":"view","type":"function"}],"evm":{"bytecode":{"linkReferences":{},"object":"6080806040523461002857600080546001600160a01b03191633179055610d0e908161002e8239f35b600080fdfe6080604052600436101561001257600080fd5b60003560e01c80630cb6aaf1146109e557806347854b871461096b578063637eea1914610942578063919e3a9014610130578063ec39f18f146101125763ef6527371461005e57600080fd5b3461010d57602036600319011261010d576001600160a01b0361007f610a74565b166000526001602052604060002060405161009981610ac4565b6100a282610b00565b81526101096100b360018401610b00565b91602081019283526100c760028501610b00565b93604082019485526100ee60046100e060038401610b00565b926060850193845201610b00565b91826080820152519351945190519060405195869586610be6565b0390f35b600080fd5b3461010d57600036600319011261010d576020600254604051908152f35b3461010d5760c036600319011261010d57610149610a74565b6024356001600160401b03811161010d57610168903690600401610c44565b6044356001600160401b03811161010d57610187903690600401610c44565b90936064356001600160401b03811161010d576101a8903690600401610c44565b906084356001600160401b03811161010d576101c8903690600401610c44565b91909260a4356001600160401b03811161010d576101ea903690600401610c44565b600054909a9197906001600160a01b0316330361090f5760405161020d81610ac4565b610218368b8d610c71565b8152610225368385610c71565b6020820152610235368587610c71565b6040820152610245368789610c71565b6060820152610255368d8b610c71565b608082015260018060a01b038816600052600160205260406000209080518051906001600160401b03821161050d5781906102908554610a8a565b601f81116108bf575b50602090601f831160011461085357600092610848575b50508160011b916000199060031b1c19161782555b60208101518051906001600160401b03821161050d5781906102ea6001860154610a8a565b601f81116107f5575b50602090601f831160011461078357600092610778575b50508160011b916000199060031b1c19161760018301555b60408101518051906001600160401b03821161050d5781906103476002860154610a8a565b601f8111610725575b50602090601f83116001146106b3576000926106a8575b50508160011b916000199060031b1c19161760028301555b60608101518051906001600160401b03821161050d576103a26003850154610a8a565b601f8111610661575b50602090601f83116001146105ee576080939291600091836105e3575b50508160011b916000199060031b1c19161760038401555b01518051906001600160401b03821161050d576104006004840154610a8a565b601f811161059c575b50602090601f831160011461052e576004929160009183610523575b50508160011b916000199060031b1c1916179101555b6002546801000000000000000081101561050d576001810160025561045f90610a27565b81546001600160a01b038a811660039390931b92831b921b191617905560405160a0808252909a8b9a610494928c0191610cb7565b9089820360208b01526104a692610cb7565b9087820360408901526104b892610cb7565b9085820360608701526104ca92610cb7565b83810360808501526001600160a01b03909116946104e792610cb7565b037fe3fc2bf5f264703d119835e0dab87f58f0677827ac7d70e0102242dd01e256c791a2005b634e487b7160e01b600052604160045260246000fd5b015190508f80610425565b90601f198316916004850160005260206000209260005b8181106105845750916001939185600496941061056b575b505050811b0191015561043b565b015160001960f88460031b161c191690558f808061055d565b92936020600181928786015181550195019301610545565b600484016000526020600020601f840160051c8101602085106105dc575b601f830160051c820181106105d0575050610409565b600081556001016105ba565b50806105ba565b0151905038806103c8565b906003850160005260206000209160005b601f1985168110610649575091839160019360809695601f19811610610630575b505050811b0160038401556103e0565b015160001960f88460031b161c19169055388080610620565b919260206001819286850151815501940192016105ff565b600385016000526020600020601f840160051c8101602085106106a1575b601f830160051c820181106106955750506103ab565b6000815560010161067f565b508061067f565b015190508f80610367565b9250600285016000526020600020906000935b601f198416851061070a576001945083601f198116106106f1575b505050811b01600283015561037f565b015160001960f88460031b161c191690558f80806106e1565b818101518355602094850194600190930192909101906106c6565b909150600285016000526020600020601f840160051c810160208510610771575b90849392915b601f830160051c82018110610762575050610350565b6000815585945060010161074c565b5080610746565b015190508f8061030a565b9250600185016000526020600020906000935b601f19841685106107da576001945083601f198116106107c1575b505050811b016001830155610322565b015160001960f88460031b161c191690558f80806107b1565b81810151835560209485019460019093019290910190610796565b909150600185016000526020600020601f840160051c810160208510610841575b90849392915b601f830160051c820181106108325750506102f3565b6000815585945060010161081c565b5080610816565b015190508f806102b0565b9250846000526020600020906000935b601f19841685106108a4576001945083601f1981161061088b575b505050811b0182556102c5565b015160001960f88460031b161c191690558f808061087e565b81810151835560209485019460019093019290910190610863565b909150846000526020600020601f840160051c810160208510610908575b90849392915b601f830160051c820181106108f9575050610299565b600081558594506001016108e3565b50806108dd565b60405162461bcd60e51b815260206004820152600b60248201526a139bdd081cdd195dd85c9960aa1b6044820152606490fd5b3461010d57600036600319011261010d576000546040516001600160a01b039091168152602090f35b3461010d57602036600319011261010d576001600160a01b0361098c610a74565b16600052600160205260406000206109a381610b00565b6101096109b260018401610b00565b926109bf60028201610b00565b906109d860046109d160038401610b00565b9201610b00565b9160405195869586610be6565b3461010d57602036600319011261010d5760043560025481101561010d57610a0e602091610a27565b905460405160039290921b1c6001600160a01b03168152f35b600254811015610a5e5760026000527f405787fa12a823e0f2b7631cc41b3ba8828b3321ca811111fa75cd3aa3bb5ace0190600090565b634e487b7160e01b600052603260045260246000fd5b600435906001600160a01b038216820361010d57565b90600182811c92168015610aba575b6020831014610aa457565b634e487b7160e01b600052602260045260246000fd5b91607f1691610a99565b60a081019081106001600160401b0382111761050d57604052565b90601f801991011681019081106001600160401b0382111761050d57604052565b9060405191826000825492610b1484610a8a565b908184526001948581169081600014610b835750600114610b40575b5050610b3e92500383610adf565b565b9093915060005260209081600020936000915b818310610b6b575050610b3e93508201013880610b30565b85548884018501529485019487945091830191610b53565b915050610b3e94506020925060ff191682840152151560051b8201013880610b30565b919082519283825260005b848110610bd2575050826000602080949584010152601f8019910116010190565b602081830181015184830182015201610bb1565b9390610c419593610c17610c3394610c09610c259460a08a5260a08a0190610ba6565b9088820360208a0152610ba6565b908682036040880152610ba6565b908482036060860152610ba6565b916080818403910152610ba6565b90565b9181601f8401121561010d578235916001600160401b03831161010d576020838186019501011161010d57565b9291926001600160401b03821161050d5760405191610c9a601f8201601f191660200184610adf565b82948184528183011161010d578281602093846000960137010152565b908060209392818452848401376000828201840152601f01601f191601019056fea26469706673582212200a8288aa2df83faf9c371924275206b207f45f88973b6264b20b454bd883acdb64736f6c63430008140033","opcodes":"PUSH1 0x80 DUP1 PUSH1 0x40 MSTORE CALLVALUE PUSH2 0x28 JUMPI PUSH1 0x0 DUP1 SLOAD PUSH1 0x1 PUSH1 0x1 PUSH1 0xA0 SHL SUB NOT AND CALLER OR SWAP1 SSTORE PUSH2 0xD0E SWAP1 DUP2 PUSH2 0x2E DUP3 CODECOPY RETURN JUMPDEST PUSH1 0x0 DUP1 REVERT INVALID PUSH1 0x80 PUSH1 0x40 MSTORE PUSH1 0x4 CALLDATASIZE LT ISZERO PUSH2 0x12 JUMPI PUSH1 0x0 DUP1 REVERT JUMPDEST PUSH1 0x0 CALLDATALOAD PUSH1 0xE0 SHR DUP1 PUSH4 0xCB6AAF1 EQ PUSH2 0x9E5 JUMPI DUP1 PUSH4 0x47854B87 EQ PUSH2 0x96B JUMPI DUP1 PUSH4 0x637EEA19 EQ PUSH2 0x942 JUMPI DUP1 PUSH4 0x919E3A90 EQ PUSH2 0x130 JUMPI DUP1 PUSH4 0xEC39F18F EQ PUSH2 0x112 JUMPI PUSH4 0xEF652737 EQ PUSH2 0x5E JUMPI PUSH1 0x0 DUP1 REVERT JUMPDEST CALLVALUE PUSH2 0x10D JUMPI PUSH1 0x20 CALLDATASIZE PUSH1 0x3 NOT ADD SLT PUSH2 0x10D JUMPI PUSH1 0x1 PUSH1 0x1 PUSH1 0xA0 SHL SUB PUSH2 0x7F PUSH2 0xA74 JUMP JUMPDEST AND PUSH1 0x0 MSTORE PUSH1 0x1 PUSH1 0x20 MSTORE PUSH1 0x40 PUSH1 0x0 KECCAK256 PUSH1 0x40 MLOAD PUSH2 0x99 DUP2 PUSH2 0xAC4 JUMP JUMPDEST PUSH2 0xA2 DUP3 PUSH2 0xB00 JUMP JUMPDEST DUP2 MSTORE PUSH2 0x109 PUSH2 0xB3 PUSH1 0x1 DUP5 ADD PUSH2 0xB00 JUMP JUMPDEST SWAP2 PUSH1 0x20 DUP2 ADD SWAP3 DUP4 MSTORE PUSH2 0xC7 PUSH1 0x2 DUP6 ADD PUSH2 0xB00 JUMP JUMPDEST SWAP4 PUSH1 0x40 DUP3 ADD SWAP5 DUP6 MSTORE PUSH2 0xEE PUSH1 0x4 PUSH2 0xE0 PUSH1 0x3 DUP5 ADD PUSH2 0xB00 JUMP JUMPDEST SWAP3 PUSH1 0x60 DUP6 ADD SWAP4 DUP5 MSTORE ADD PUSH2 0xB00 JUMP JUMPDEST SWAP2 DUP3 PUSH1 0x80 DUP3 ADD MSTORE MLOAD SWAP4 MLOAD SWAP5 MLOAD SWAP1 MLOAD SWAP1 PUSH1 0x40 MLOAD SWAP6 DUP7 SWAP6 DUP7 PUSH2 0xBE6 JUMP JUMPDEST SUB SWAP1 RETURN JUMPDEST PUSH1 0x0 DUP1 REVERT JUMPDEST CALLVALUE PUSH2 0x10D JUMPI PUSH1 0x0 CALLDATASIZE PUSH1 0x3 NOT ADD SLT PUSH2 0x10D JUMPI PUSH1 0x20 PUSH1 0x2 SLOAD PUSH1 0x40 MLOAD SWAP1 DUP2 MSTORE RETURN JUMPDEST CALLVALUE PUSH2 0x10D JUMPI PUSH1 0xC0 CALLDATASIZE PUSH1 0x3 NOT ADD SLT PUSH2 0x10D JUMPI PUSH2 0x149 PUSH2 0xA74 JUMP JUMPDEST PUSH1 0x24 CALLDATALOAD PUSH1 0x1 PUSH1 0x1 PUSH1 0x40 SHL SUB DUP2 GT PUSH2 0x10D JUMPI PUSH2 0x168 SWAP1 CALLDATASIZE SWAP1 PUSH1 0x4 ADD PUSH2 0xC44 JUMP JUMPDEST PUSH1 0x44 CALLDATALOAD PUSH1 0x1 PUSH1 0x1 PUSH1 0x40 SHL SUB DUP2 GT PUSH2 0x10D JUMPI PUSH2 0x187 SWAP1 CALLDATASIZE SWAP1 PUSH1 0x4 ADD PUSH2 0xC44 JUMP JUMPDEST SWAP1 SWAP4 PUSH1 0x64 CALLDATALOAD PUSH1 0x1 PUSH1 0x1 PUSH1 0x40 SHL SUB DUP2 GT PUSH2 0x10D JUMPI PUSH2 0x1A8 SWAP1 CALLDATASIZE SWAP1 PUSH1 0x4 ADD PUSH2 0xC44 JUMP JUMPDEST SWAP1 PUSH1 0x84 CALLDATALOAD PUSH1 0x1 PUSH1 0x1 PUSH1 0x40 SHL SUB DUP2 GT PUSH2 0x10D JUMPI PUSH2 0x1C8 SWAP1 CALLDATASIZE SWAP1 PUSH1 0x4 ADD PUSH2 0xC44 JUMP JUMPDEST SWAP2 SWAP1 SWAP3 PUSH1 0xA4 CALLDATALOAD PUSH1 0x1 PUSH1 0x1 PUSH1 0x40 SHL SUB DUP2 GT PUSH2 0x10D JUMPI PUSH2 0x1EA SWAP1 CALLDATASIZE SWAP1 PUSH1 0x4 ADD PUSH2 0xC44 JUMP JUMPDEST PUSH1 0x0 SLOAD SWAP1 SWAP11 SWAP2 SWAP8 SWAP1 PUSH1 0x1 PUSH1 0x1 PUSH1 0xA0 SHL SUB AND CALLER SUB PUSH2 0x90F JUMPI PUSH1 0x40 MLOAD PUSH2 0x20D DUP2 PUSH2 0xAC4 JUMP JUMPDEST PUSH2 0x218 CALLDATASIZE DUP12 DUP14 PUSH2 0xC71 JUMP JUMPDEST DUP2 MSTORE PUSH2 0x225 CALLDATASIZE DUP4 DUP6 PUSH2 0xC71 JUMP JUMPDEST PUSH1 0x20 DUP3 ADD MSTORE PUSH2 0x235 CALLDATASIZE DUP6 DUP8 PUSH2 0xC71 JUMP JUMPDEST PUSH1 0x40 DUP3 ADD MSTORE PUSH2 0x245 CALLDATASIZE DUP8 DUP10 PUSH2 0xC71 JUMP JUMPDEST PUSH1 0x60 DUP3 ADD MSTORE PUSH2 0x255 CALLDATASIZE DUP14 DUP12 PUSH2 0xC71 JUMP JUMPDEST PUSH1 0x80 DUP3 ADD MSTORE PUSH1 0x1 DUP1 PUSH1 0xA0 SHL SUB DUP9 AND PUSH1 0x0 MSTORE PUSH1 0x1 PUSH1 0x20 MSTORE PUSH1 0x40 PUSH1 0x0 KECCAK256 SWAP1 DUP1 MLOAD DUP1 MLOAD SWAP1 PUSH1 0x1 PUSH1 0x1 PUSH1 0x40 SHL SUB DUP3 GT PUSH2 0x50D JUMPI DUP2 SWAP1 PUSH2 0x290 DUP6 SLOAD PUSH2 0xA8A JUMP JUMPDEST PUSH1 0x1F DUP2 GT PUSH2 0x8BF JUMPI JUMPDEST POP PUSH1 0x20 SWAP1 PUSH1 0x1F DUP4 GT PUSH1 0x1 EQ PUSH2 0x853 JUMPI PUSH1 0x0 SWAP3 PUSH2 0x848 JUMPI JUMPDEST POP POP DUP2 PUSH1 0x1 SHL SWAP2 PUSH1 0x0 NOT SWAP1 PUSH1 0x3 SHL SHR NOT AND OR DUP3 SSTORE JUMPDEST PUSH1 0x20 DUP2 ADD MLOAD DUP1 MLOAD SWAP1 PUSH1 0x1 PUSH1 0x1 PUSH1 0x40 SHL SUB DUP3 GT PUSH2 0x50D JUMPI DUP2 SWAP1 PUSH2 0x2EA PUSH1 0x1 DUP7 ADD SLOAD PUSH2 0xA8A JUMP JUMPDEST PUSH1 0x1F DUP2 GT PUSH2 0x7F5 JUMPI JUMPDEST POP PUSH1 0x20 SWAP1 PUSH1 0x1F DUP4 GT PUSH1 0x1 EQ PUSH2 0x783 JUMPI PUSH1 0x0 SWAP3 PUSH2 0x778 JUMPI JUMPDEST POP POP DUP2 PUSH1 0x1 SHL SWAP2 PUSH1 0x0 NOT SWAP1 PUSH1 0x3 SHL SHR NOT AND OR PUSH1 0x1 DUP4 ADD SSTORE JUMPDEST PUSH1 0x40 DUP2 ADD MLOAD DUP1 MLOAD SWAP1 PUSH1 0x1 PUSH1 0x1 PUSH1 0x40 SHL SUB DUP3 GT PUSH2 0x50D JUMPI DUP2 SWAP1 PUSH2 0x347 PUSH1 0x2 DUP7 ADD SLOAD PUSH2 0xA8A JUMP JUMPDEST PUSH1 0x1F DUP2 GT PUSH2 0x725 JUMPI JUMPDEST POP PUSH1 0x20 SWAP1 PUSH1 0x1F DUP4 GT PUSH1 0x1 EQ PUSH2 0x6B3 JUMPI PUSH1 0x0 SWAP3 PUSH2 0x6A8 JUMPI JUMPDEST POP POP DUP2 PUSH1 0x1 SHL SWAP2 PUSH1 0x0 NOT SWAP1 PUSH1 0x3 SHL SHR NOT AND OR PUSH1 0x2 DUP4 ADD SSTORE JUMPDEST PUSH1 0x60 DUP2 ADD MLOAD DUP1 MLOAD SWAP1 PUSH1 0x1 PUSH1 0x1 PUSH1 0x40 SHL SUB DUP3 GT PUSH2 0x50D JUMPI PUSH2 0x3A2 PUSH1 0x3 DUP6 ADD SLOAD PUSH2 0xA8A JUMP JUMPDEST PUSH1 0x1F DUP2 GT PUSH2 0x661 JUMPI JUMPDEST POP PUSH1 0x20 SWAP1 PUSH1 0x1F DUP4 GT PUSH1 0x1 EQ PUSH2 0x5EE JUMPI PUSH1 0x80 SWAP4 SWAP3 SWAP2 PUSH1 0x0 SWAP2 DUP4 PUSH2 0x5E3 JUMPI JUMPDEST POP POP DUP2 PUSH1 0x1 SHL SWAP2 PUSH1 0x0 NOT SWAP1 PUSH1 0x3 SHL SHR NOT AND OR PUSH1 0x3 DUP5 ADD SSTORE JUMPDEST ADD MLOAD DUP1 MLOAD SWAP1 PUSH1 0x1 PUSH1 0x1 PUSH1 0x40 SHL SUB DUP3 GT PUSH2 0x50D JUMPI PUSH2 0x400 PUSH1 0x4 DUP5 ADD SLOAD PUSH2 0xA8A JUMP JUMPDEST PUSH1 0x1F DUP2 GT PUSH2 0x59C JUMPI JUMPDEST POP PUSH1 0x20 SWAP1 PUSH1 0x1F DUP4 GT PUSH1 0x1 EQ PUSH2 0x52E JUMPI PUSH1 0x4 SWAP3 SWAP2 PUSH1 0x0 SWAP2 DUP4 PUSH2 0x523 JUMPI JUMPDEST POP POP DUP2 PUSH1 0x1 SHL SWAP2 PUSH1 0x0 NOT SWAP1 PUSH1 0x3 SHL SHR NOT AND OR SWAP2 ADD SSTORE JUMPDEST PUSH1 0x2 SLOAD PUSH9 0x10000000000000000 DUP2 LT ISZERO PUSH2 0x50D JUMPI PUSH1 0x1 DUP2 ADD PUSH1 0x2 SSTORE PUSH2 0x45F SWAP1 PUSH2 0xA27 JUMP JUMPDEST DUP2 SLOAD PUSH1 0x1 PUSH1 0x1 PUSH1 0xA0 SHL SUB DUP11 DUP2 AND PUSH1 0x3 SWAP4 SWAP1 SWAP4 SHL SWAP3 DUP4 SHL SWAP3 SHL NOT AND OR SWAP1 SSTORE PUSH1 0x40 MLOAD PUSH1 0xA0 DUP1 DUP3 MSTORE SWAP1 SWAP11 DUP12 SWAP11 PUSH2 0x494 SWAP3 DUP13 ADD SWAP2 PUSH2 0xCB7 JUMP JUMPDEST SWAP1 DUP10 DUP3 SUB PUSH1 0x20 DUP12 ADD MSTORE PUSH2 0x4A6 SWAP3 PUSH2 0xCB7 JUMP JUMPDEST SWAP1 DUP8 DUP3 SUB PUSH1 0x40 DUP10 ADD MSTORE PUSH2 0x4B8 SWAP3 PUSH2 0xCB7 JUMP JUMPDEST SWAP1 DUP6 DUP3 SUB PUSH1 0x60 DUP8 ADD MSTORE PUSH2 0x4CA SWAP3 PUSH2 0xCB7 JUMP JUMPDEST DUP4 DUP2 SUB PUSH1 0x80 DUP6 ADD MSTORE PUSH1 0x1 PUSH1 0x1 PUSH1 0xA0 SHL SUB SWAP1 SWAP2 AND SWAP5 PUSH2 0x4E7 SWAP3 PUSH2 0xCB7 JUMP JUMPDEST SUB PUSH32 0xE3FC2BF5F264703D119835E0DAB87F58F0677827AC7D70E0102242DD01E256C7 SWAP2 LOG2 STOP JUMPDEST PUSH4 0x4E487B71 PUSH1 0xE0 SHL PUSH1 0x0 MSTORE PUSH1 0x41 PUSH1 0x4 MSTORE PUSH1 0x24 PUSH1 0x0 REVERT JUMPDEST ADD MLOAD SWAP1 POP DUP16 DUP1 PUSH2 0x425 JUMP JUMPDEST SWAP1 PUSH1 0x1F NOT DUP4 AND SWAP2 PUSH1 0x4 DUP6 ADD PUSH1 0x0 MSTORE PUSH1 0x20 PUSH1 0x0 KECCAK256 SWAP3 PUSH1 0x0 JUMPDEST DUP2 DUP2 LT PUSH2 0x584 JUMPI POP SWAP2 PUSH1 0x1 SWAP4 SWAP2 DUP6 PUSH1 0x4 SWAP7 SWAP5 LT PUSH2 0x56B JUMPI JUMPDEST POP POP POP DUP2 SHL ADD SWAP2 ADD SSTORE PUSH2 0x43B JUMP JUMPDEST ADD MLOAD PUSH1 0x0 NOT PUSH1 0xF8 DUP5 PUSH1 0x3 SHL AND SHR NOT AND SWAP1 SSTORE DUP16 DUP1 DUP1 PUSH2 0x55D JUMP JUMPDEST SWAP3 SWAP4 PUSH1 0x20 PUSH1 0x1 DUP2 SWAP3 DUP8 DUP7 ADD MLOAD DUP2 SSTORE ADD SWAP6 ADD SWAP4 ADD PUSH2 0x545 JUMP JUMPDEST PUSH1 0x4 DUP5 ADD PUSH1 0x0 MSTORE PUSH1 0x20 PUSH1 0x0 KECCAK256 PUSH1 0x1F DUP5 ADD PUSH1 0x5 SHR DUP2 ADD PUSH1 0x20 DUP6 LT PUSH2 0x5DC JUMPI JUMPDEST PUSH1 0x1F DUP4 ADD PUSH1 0x5 SHR DUP3 ADD DUP2 LT PUSH2 0x5D0 JUMPI POP POP PUSH2 0x409 JUMP JUMPDEST PUSH1 0x0 DUP2 SSTORE PUSH1 0x1 ADD PUSH2 0x5BA JUMP JUMPDEST POP DUP1 PUSH2 0x5BA JUMP JUMPDEST ADD MLOAD SWAP1 POP CODESIZE DUP1 PUSH2 0x3C8 JUMP JUMPDEST SWAP1 PUSH1 0x3 DUP6 ADD PUSH1 0x0 MSTORE PUSH1 0x20 PUSH1 0x0 KECCAK256 SWAP2 PUSH1 0x0 JUMPDEST PUSH1 0x1F NOT DUP6 AND DUP2 LT PUSH2 0x649 JUMPI POP SWAP2 DUP4 SWAP2 PUSH1 0x1 SWAP4 PUSH1 0x80 SWAP7 SWAP6 PUSH1 0x1F NOT DUP2 AND LT PUSH2 0x630 JUMPI JUMPDEST POP POP POP DUP2 SHL ADD PUSH1 0x3 DUP5 ADD SSTORE PUSH2 0x3E0 JUMP JUMPDEST ADD MLOAD PUSH1 0x0 NOT PUSH1 0xF8 DUP5 PUSH1 0x3 SHL AND SHR NOT AND SWAP1 SSTORE CODESIZE DUP1 DUP1 PUSH2 0x620 JUMP JUMPDEST SWAP2 SWAP3 PUSH1 0x20 PUSH1 0x1 DUP2 SWAP3 DUP7 DUP6 ADD MLOAD DUP2 SSTORE ADD SWAP5 ADD SWAP3 ADD PUSH2 0x5FF JUMP JUMPDEST PUSH1 0x3 DUP6 ADD PUSH1 0x0 MSTORE PUSH1 0x20 PUSH1 0x0 KECCAK256 PUSH1 0x1F DUP5 ADD PUSH1 0x5 SHR DUP2 ADD PUSH1 0x20 DUP6 LT PUSH2 0x6A1 JUMPI JUMPDEST PUSH1 0x1F DUP4 ADD PUSH1 0x5 SHR DUP3 ADD DUP2 LT PUSH2 0x695 JUMPI POP POP PUSH2 0x3AB JUMP JUMPDEST PUSH1 0x0 DUP2 SSTORE PUSH1 0x1 ADD PUSH2 0x67F JUMP JUMPDEST POP DUP1 PUSH2 0x67F JUMP JUMPDEST ADD MLOAD SWAP1 POP DUP16 DUP1 PUSH2 0x367 JUMP JUMPDEST SWAP3 POP PUSH1 0x2 DUP6 ADD PUSH1 0x0 MSTORE PUSH1 0x20 PUSH1 0x0 KECCAK256 SWAP1 PUSH1 0x0 SWAP4 JUMPDEST PUSH1 0x1F NOT DUP5 AND DUP6 LT PUSH2 0x70A JUMPI PUSH1 0x1 SWAP5 POP DUP4 PUSH1 0x1F NOT DUP2 AND LT PUSH2 0x6F1 JUMPI JUMPDEST POP POP POP DUP2 SHL ADD PUSH1 0x2 DUP4 ADD SSTORE PUSH2 0x37F JUMP JUMPDEST ADD MLOAD PUSH1 0x0 NOT PUSH1 0xF8 DUP5 PUSH1 0x3 SHL AND SHR NOT AND SWAP1 SSTORE DUP16 DUP1 DUP1 PUSH2 0x6E1 JUMP JUMPDEST DUP2 DUP2 ADD MLOAD DUP4 SSTORE PUSH1 0x20 SWAP5 DUP6 ADD SWAP5 PUSH1 0x1 SWAP1 SWAP4 ADD SWAP3 SWAP1 SWAP2 ADD SWAP1 PUSH2 0x6C6 JUMP JUMPDEST SWAP1 SWAP2 POP PUSH1 0x2 DUP6 ADD PUSH1 0x0 MSTORE PUSH1 0x20 PUSH1 0x0 KECCAK256 PUSH1 0x1F DUP5 ADD PUSH1 0x5 SHR DUP2 ADD PUSH1 0x20 DUP6 LT PUSH2 0x771 JUMPI JUMPDEST SWAP1 DUP5 SWAP4 SWAP3 SWAP2 JUMPDEST PUSH1 0x1F DUP4 ADD PUSH1 0x5 SHR DUP3 ADD DUP2 LT PUSH2 0x762 JUMPI POP POP PUSH2 0x350 JUMP JUMPDEST PUSH1 0x0 DUP2 SSTORE DUP6 SWAP5 POP PUSH1 0x1 ADD PUSH2 0x74C JUMP JUMPDEST POP DUP1 PUSH2 0x746 JUMP JUMPDEST ADD MLOAD SWAP1 POP DUP16 DUP1 PUSH2 0x30A JUMP JUMPDEST SWAP3 POP PUSH1 0x1 DUP6 ADD PUSH1 0x0 MSTORE PUSH1 0x20 PUSH1 0x0 KECCAK256 SWAP1 PUSH1 0x0 SWAP4 JUMPDEST PUSH1 0x1F NOT DUP5 AND DUP6 LT PUSH2 0x7DA JUMPI PUSH1 0x1 SWAP5 POP DUP4 PUSH1 0x1F NOT DUP2 AND LT PUSH2 0x7C1 JUMPI JUMPDEST POP POP POP DUP2 SHL ADD PUSH1 0x1 DUP4 ADD SSTORE PUSH2 0x322 JUMP JUMPDEST ADD MLOAD PUSH1 0x0 NOT PUSH1 0xF8 DUP5 PUSH1 0x3 SHL AND SHR NOT AND SWAP1 SSTORE DUP16 DUP1 DUP1 PUSH2 0x7B1 JUMP JUMPDEST DUP2 DUP2 ADD MLOAD DUP4 SSTORE PUSH1 0x20 SWAP5 DUP6 ADD SWAP5 PUSH1 0x1 SWAP1 SWAP4 ADD SWAP3 SWAP1 SWAP2 ADD SWAP1 PUSH2 0x796 JUMP JUMPDEST SWAP1 SWAP2 POP PUSH1 0x1 DUP6 ADD PUSH1 0x0 MSTORE PUSH1 0x20 PUSH1 0x0 KECCAK256 PUSH1 0x1F DUP5 ADD PUSH1 0x5 SHR DUP2 ADD PUSH1 0x20 DUP6 LT PUSH2 0x841 JUMPI JUMPDEST SWAP1 DUP5 SWAP4 SWAP3 SWAP2 JUMPDEST PUSH1 0x1F DUP4 ADD PUSH1 0x5 SHR DUP3 ADD DUP2 LT PUSH2 0x832 JUMPI POP POP PUSH2 0x2F3 JUMP JUMPDEST PUSH1 0x0 DUP2 SSTORE DUP6 SWAP5 POP PUSH1 0x1 ADD PUSH2 0x81C JUMP JUMPDEST POP DUP1 PUSH2 0x816 JUMP JUMPDEST ADD MLOAD SWAP1 POP DUP16 DUP1 PUSH2 0x2B0 JUMP JUMPDEST SWAP3 POP DUP5 PUSH1 0x0 MSTORE PUSH1 0x20 PUSH1 0x0 KECCAK256 SWAP1 PUSH1 0x0 SWAP4 JUMPDEST PUSH1 0x1F NOT DUP5 AND DUP6 LT PUSH2 0x8A4 JUMPI PUSH1 0x1 SWAP5 POP DUP4 PUSH1 0x1F NOT DUP2 AND LT PUSH2 0x88B JUMPI JUMPDEST POP POP POP DUP2 SHL ADD DUP3 SSTORE PUSH2 0x2C5 JUMP JUMPDEST ADD MLOAD PUSH1 0x0 NOT PUSH1 0xF8 DUP5 PUSH1 0x3 SHL AND SHR NOT AND SWAP1 SSTORE DUP16 DUP1 DUP1 PUSH2 0x87E JUMP JUMPDEST DUP2 DUP2 ADD MLOAD DUP4 SSTORE PUSH1 0x20 SWAP5 DUP6 ADD SWAP5 PUSH1 0x1 SWAP1 SWAP4 ADD SWAP3 SWAP1 SWAP2 ADD SWAP1 PUSH2 0x863 JUMP JUMPDEST SWAP1 SWAP2 POP DUP5 PUSH1 0x0 MSTORE PUSH1 0x20 PUSH1 0x0 KECCAK256 PUSH1 0x1F DUP5 ADD PUSH1 0x5 SHR DUP2 ADD PUSH1 0x20 DUP6 LT PUSH2 0x908 JUMPI JUMPDEST SWAP1 DUP5 SWAP4 SWAP3 SWAP2 JUMPDEST PUSH1 0x1F DUP4 ADD PUSH1 0x5 SHR DUP3 ADD DUP2 LT PUSH2 0x8F9 JUMPI POP POP PUSH2 0x299 JUMP JUMPDEST PUSH1 0x0 DUP2 SSTORE DUP6 SWAP5 POP PUSH1 0x1 ADD PUSH2 0x8E3 JUMP JUMPDEST POP DUP1 PUSH2 0x8DD JUMP JUMPDEST PUSH1 0x40 MLOAD PUSH3 0x461BCD PUSH1 0xE5 SHL DUP2 MSTORE PUSH1 0x20 PUSH1 0x4 DUP3 ADD MSTORE PUSH1 0xB PUSH1 0x24 DUP3 ADD MSTORE PUSH11 0x139BDD081CDD195DD85C99 PUSH1 0xAA SHL PUSH1 0x44 DUP3 ADD MSTORE PUSH1 0x64 SWAP1 REVERT JUMPDEST CALLVALUE PUSH2 0x10D JUMPI PUSH1 0x0 CALLDATASIZE PUSH1 0x3 NOT ADD SLT PUSH2 0x10D JUMPI PUSH1 0x0 SLOAD PUSH1 0x40 MLOAD PUSH1 0x1 PUSH1 0x1 PUSH1 0xA0 SHL SUB SWAP1 SWAP2 AND DUP2 MSTORE PUSH1 0x20 SWAP1 RETURN JUMPDEST CALLVALUE PUSH2 0x10D JUMPI PUSH1 0x20 CALLDATASIZE PUSH1 0x3 NOT ADD SLT PUSH2 0x10D JUMPI PUSH1 0x1 PUSH1 0x1 PUSH1 0xA0 SHL SUB PUSH2 0x98C PUSH2 0xA74 JUMP JUMPDEST AND PUSH1 0x0 MSTORE PUSH1 0x1 PUSH1 0x20 MSTORE PUSH1 0x40 PUSH1 0x0 KECCAK256 PUSH2 0x9A3 DUP2 PUSH2 0xB00 JUMP JUMPDEST PUSH2 0x109 PUSH2 0x9B2 PUSH1 0x1 DUP5 ADD PUSH2 0xB00 JUMP JUMPDEST SWAP3 PUSH2 0x9BF PUSH1 0x2 DUP3 ADD PUSH2 0xB00 JUMP JUMPDEST SWAP1 PUSH2 0x9D8 PUSH1 0x4 PUSH2 0x9D1 PUSH1 0x3 DUP5 ADD PUSH2 0xB00 JUMP JUMPDEST SWAP3 ADD PUSH2 0xB00 JUMP JUMPDEST SWAP2 PUSH1 0x40 MLOAD SWAP6 DUP7 SWAP6 DUP7 PUSH2 0xBE6 JUMP JUMPDEST CALLVALUE PUSH2 0x10D JUMPI PUSH1 0x20 CALLDATASIZE PUSH1 0x3 NOT ADD SLT PUSH2 0x10D JUMPI PUSH1 0x4 CALLDATALOAD PUSH1 0x2 SLOAD DUP2 LT ISZERO PUSH2 0x10D JUMPI PUSH2 0xA0E PUSH1 0x20 SWAP2 PUSH2 0xA27 JUMP JUMPDEST SWAP1 SLOAD PUSH1 0x40 MLOAD PUSH1 0x3 SWAP3 SWAP1 SWAP3 SHL SHR PUSH1 0x1 PUSH1 0x1 PUSH1 0xA0 SHL SUB AND DUP2 MSTORE RETURN JUMPDEST PUSH1 0x2 SLOAD DUP2 LT ISZERO PUSH2 0xA5E JUMPI PUSH1 0x2 PUSH1 0x0 MSTORE PUSH32 0x405787FA12A823E0F2B7631CC41B3BA8828B3321CA811111FA75CD3AA3BB5ACE ADD SWAP1 PUSH1 0x0 SWAP1 JUMP JUMPDEST PUSH4 0x4E487B71 PUSH1 0xE0 SHL PUSH1 0x0 MSTORE PUSH1 0x32 PUSH1 0x4 MSTORE PUSH1 0x24 PUSH1 0x0 REVERT JUMPDEST PUSH1 0x4 CALLDATALOAD SWAP1 PUSH1 0x1 PUSH1 0x1 PUSH1 0xA0 SHL SUB DUP3 AND DUP3 SUB PUSH2 0x10D JUMPI JUMP JUMPDEST SWAP1 PUSH1 0x1 DUP3 DUP2 SHR SWAP3 AND DUP1 ISZERO PUSH2 0xABA JUMPI JUMPDEST PUSH1 0x20 DUP4 LT EQ PUSH2 0xAA4 JUMPI JUMP JUMPDEST PUSH4 0x4E487B71 PUSH1 0xE0 SHL PUSH1 0x0 MSTORE PUSH1 0x22 PUSH1 0x4 MSTORE PUSH1 0x24 PUSH1 0x0 REVERT JUMPDEST SWAP2 PUSH1 0x7F AND SWAP2 PUSH2 0xA99 JUMP JUMPDEST PUSH1 0xA0 DUP2 ADD SWAP1 DUP2 LT PUSH1 0x1 PUSH1 0x1 PUSH1 0x40 SHL SUB DUP3 GT OR PUSH2 0x50D JUMPI PUSH1 0x40 MSTORE JUMP JUMPDEST SWAP1 PUSH1 0x1F DUP1 NOT SWAP2 ADD AND DUP2 ADD SWAP1 DUP2 LT PUSH1 0x1 PUSH1 0x1 PUSH1 0x40 SHL SUB DUP3 GT OR PUSH2 0x50D JUMPI PUSH1 0x40 MSTORE JUMP JUMPDEST SWAP1 PUSH1 0x40 MLOAD SWAP2 DUP3 PUSH1 0x0 DUP3 SLOAD SWAP3 PUSH2 0xB14 DUP5 PUSH2 0xA8A JUMP JUMPDEST SWAP1 DUP2 DUP5 MSTORE PUSH1 0x1 SWAP5 DUP6 DUP2 AND SWAP1 DUP2 PUSH1 0x0 EQ PUSH2 0xB83 JUMPI POP PUSH1 0x1 EQ PUSH2 0xB40 JUMPI JUMPDEST POP POP PUSH2 0xB3E SWAP3 POP SUB DUP4 PUSH2 0xADF JUMP JUMPDEST JUMP JUMPDEST SWAP1 SWAP4 SWAP2 POP PUSH1 0x0 MSTORE PUSH1 0x20 SWAP1 DUP2 PUSH1 0x0 KECCAK256 SWAP4 PUSH1 0x0 SWAP2 JUMPDEST DUP2 DUP4 LT PUSH2 0xB6B JUMPI POP POP PUSH2 0xB3E SWAP4 POP DUP3 ADD ADD CODESIZE DUP1 PUSH2 0xB30 JUMP JUMPDEST DUP6 SLOAD DUP9 DUP5 ADD DUP6 ADD MSTORE SWAP5 DUP6 ADD SWAP5 DUP8 SWAP5 POP SWAP2 DUP4 ADD SWAP2 PUSH2 0xB53 JUMP JUMPDEST SWAP2 POP POP PUSH2 0xB3E SWAP5 POP PUSH1 0x20 SWAP3 POP PUSH1 0xFF NOT AND DUP3 DUP5 ADD MSTORE ISZERO ISZERO PUSH1 0x5 SHL DUP3 ADD ADD CODESIZE DUP1 PUSH2 0xB30 JUMP JUMPDEST SWAP2 SWAP1 DUP3 MLOAD SWAP3 DUP4 DUP3 MSTORE PUSH1 0x0 JUMPDEST DUP5 DUP2 LT PUSH2 0xBD2 JUMPI POP POP DUP3 PUSH1 0x0 PUSH1 0x20 DUP1 SWAP5 SWAP6 DUP5 ADD ADD MSTORE PUSH1 0x1F DUP1 NOT SWAP2 ADD AND ADD ADD SWAP1 JUMP JUMPDEST PUSH1 0x20 DUP2 DUP4 ADD DUP2 ADD MLOAD DUP5 DUP4 ADD DUP3 ADD MSTORE ADD PUSH2 0xBB1 JUMP JUMPDEST SWAP4 SWAP1 PUSH2 0xC41 SWAP6 SWAP4 PUSH2 0xC17 PUSH2 0xC33 SWAP5 PUSH2 0xC09 PUSH2 0xC25 SWAP5 PUSH1 0xA0 DUP11 MSTORE PUSH1 0xA0 DUP11 ADD SWAP1 PUSH2 0xBA6 JUMP JUMPDEST SWAP1 DUP9 DUP3 SUB PUSH1 0x20 DUP11 ADD MSTORE PUSH2 0xBA6 JUMP JUMPDEST SWAP1 DUP7 DUP3 SUB PUSH1 0x40 DUP9 ADD MSTORE PUSH2 0xBA6 JUMP JUMPDEST SWAP1 DUP5 DUP3 SUB PUSH1 0x60 DUP7 ADD MSTORE PUSH2 0xBA6 JUMP JUMPDEST SWAP2 PUSH1 0x80 DUP2 DUP5 SUB SWAP2 ADD MSTORE PUSH2 0xBA6 JUMP JUMPDEST SWAP1 JUMP JUMPDEST SWAP2 DUP2 PUSH1 0x1F DUP5 ADD SLT ISZERO PUSH2 0x10D JUMPI DUP3 CALLDATALOAD SWAP2 PUSH1 0x1 PUSH1 0x1 PUSH1 0x40 SHL SUB DUP4 GT PUSH2 0x10D JUMPI PUSH1 0x20 DUP4 DUP2 DUP7 ADD SWAP6 ADD ADD GT PUSH2 0x10D JUMPI JUMP JUMPDEST SWAP3 SWAP2 SWAP3 PUSH1 0x1 PUSH1 0x1 PUSH1 0x40 SHL SUB DUP3 GT PUSH2 0x50D JUMPI PUSH1 0x40 MLOAD SWAP2 PUSH2 0xC9A PUSH1 0x1F DUP3 ADD PUSH1 0x1F NOT AND PUSH1 0x20 ADD DUP5 PUSH2 0xADF JUMP JUMPDEST DUP3 SWAP5 DUP2 DUP5 MSTORE DUP2 DUP4 ADD GT PUSH2 0x10D JUMPI DUP3 DUP2 PUSH1 0x20 SWAP4 DUP5 PUSH1 0x0 SWAP7 ADD CALLDATACOPY ADD ADD MSTORE JUMP JUMPDEST SWAP1 DUP1 PUSH1 0x20 SWAP4 SWAP3 DUP2 DUP5 MSTORE DUP5 DUP5 ADD CALLDATACOPY PUSH1 0x0 DUP3 DUP3 ADD DUP5 ADD MSTORE PUSH1 0x1F ADD PUSH1 0x1F NOT AND ADD ADD SWAP1 JUMP INVALID LOG2 PUSH5 0x6970667358 0x22 SLT KECCAK256 EXP DUP3 DUP9 0xAA 0x2D 0xF8 EXTCODEHASH 0xAF SWAP13 CALLDATACOPY NOT 0x24 0x27 MSTORE MOD 0xB2 SMOD DELEGATECALL PUSH0 DUP9 SWAP8 EXTCODESIZE PUSH3 0x64B20B GASLIMIT 0x4B 0xD8 DUP4 0xAC 0xDB PUSH5 0x736F6C6343 STOP ADDMOD EQ STOP CALLER "},"methodIdentifiers":{"companions(address)":"47854b87","getCompanion(address)":"ef652737","keys(uint256)":"0cb6aaf1","steward()":"637eea19","summonCompanion(address,string,string,string,string,string)":"919e3a90","totalCompanions()":"ec39f18f"}}}}}