{"contracts/manifest/TerrainManifest.sol":{"TerrainManifest":{"abi":[{"inputs":[],"stateMutability":"nonpayable","type":"constructor"},{"anonymous":false,"inputs":[{"indexed":false,"internalType":"string","name":"name","type":"string"},{"indexed":false,"internalType":"address","name":"location","type":"address"},{"indexed":false,"internalType":"string","name":"kind","type":"string"}],"name":"GlyphLinked","type":"event"},{"anonymous":false,"inputs":[{"indexed":false,"internalType":"string","name":"chant","type":"string"}],"name":"ManifestEchoed","type":"event"},{"inputs":[{"internalType":"string","name":"chant","type":"string"}],"name":"echoManifest","outputs":[],"stateMutability":"nonpayable","type":"function"},{"inputs":[{"internalType":"string","name":"name","type":"string"}],"name":"getGlyph","outputs":[{"internalType":"address","name":"","type":"address"},{"internalType":"string","name":"","type":"string"}],"stateMutability":"view","type":"function"},{"inputs":[{"internalType":"string","name":"","type":"string"}],"name":"glyphs","outputs":[{"internalType":"string","name":"name","type":"string"},{"internalType":"address","name":"location","type":"address"},{"internalType":"string","name":"kind","type":"string"}],"stateMutability":"view","type":"function"},{"inputs":[{"internalType":"uint256","name":"","type":"uint256"}],"name":"keys","outputs":[{"internalType":"string","name":"","type":"string"}],"stateMutability":"view","type":"function"},{"inputs":[{"internalType":"string","name":"name","type":"string"},{"internalType":"address","name":"location","type":"address"},{"internalType":"string","name":"kind","type":"string"}],"name":"linkGlyph","outputs":[],"stateMutability":"nonpayable","type":"function"},{"inputs":[],"name":"steward","outputs":[{"internalType":"address","name":"","type":"address"}],"stateMutability":"view","type":"function"},{"inputs":[],"name":"totalGlyphs","outputs":[{"internalType":"uint256","name":"","type":"uint256"}],"stateMutability":"view","type":"function"}],"evm":{"bytecode":{"linkReferences":{},"object":"6080806040523461002857600080546001600160a01b03191633179055610a10908161002e8239f35b600080fdfe6080604052600436101561001257600080fd5b60003560e01c80630cb6aaf1146106b8578063148801fb14610295578063637eea191461026c578063818a8c5b146101e95780638592eebe146101cb578063f351a29d146101265763f9864eb51461006957600080fd5b346101215760203660031901126101215760043567ffffffffffffffff81116101215736602382011215610121576100c660206100b361010a9336906024816004013591016108e4565b816040519382858094519384920161086e565b8101600181520301902061011d6100dc826107c8565b916100f6600260018060a01b0360018401541692016107c8565b604051948594606086526060860190610891565b9160208501528382036040850152610891565b0390f35b600080fd5b346101215760203660031901126101215760043567ffffffffffffffff811161012157602061015b60409236906004016108b6565b919082845193849283378101600181520301902081519061017b8261078a565b610184816107c8565b825260018060a01b03916101a86002846001850154169360208401948552016107c8565b9384910152511661011d6040519283928352604060208401526040830190610891565b34610121576000366003190112610121576020600254604051908152f35b346101215760203660031901126101215760043567ffffffffffffffff81116101215761023b7ffea5dbe01d4f5cf059d189acc8b20d3d861280e6442e4e52bdc9c0a00a8761da9136906004016108b6565b61025060018060a01b0360005416331461092b565b6102676040519283926020845260208401916109b9565b0390a1005b34610121576000366003190112610121576000546040516001600160a01b039091168152602090f35b346101215760603660031901126101215760043567ffffffffffffffff8111610121576102c69036906004016108b6565b60243591906001600160a01b03831683036101215760443567ffffffffffffffff8111610121576102fb9036906004016108b6565b9061031160018060a01b0360005416331461092b565b60405161031d8161078a565b6103283685876108e4565b81526001600160a01b03861660208201526103443684846108e4565b6040820152604051848682376020818681016001815203019020815180519067ffffffffffffffff82116105a357610386826103808554610750565b85610965565b602090601f831160011461064b57918060409492600294600092610640575b50508160011b916000199060031b1c19161781555b6001810160018060a01b036020860151166bffffffffffffffffffffffff60a01b8254161790550191015180519067ffffffffffffffff82116105a357819061040d826104078654610750565b86610965565b602090601f83116001146105da576000926105cf575b50508160011b916000199060031b1c19161790555b600254680100000000000000008110156105a35780600161045c9201600255610703565b6105b95767ffffffffffffffff84116105a3576104838461047d8354610750565b83610965565b6000601f851160011461051557916102679391857f3bae25540cd99ad3d8b665990169fb84f5fad36a3c60dc87363a4ad736663c1f989460009161050a575b508660011b906000198860031b1c19161790555b6104ed6040519687966060885260608801916109b9565b6001600160a01b03909316602086015284830360408601526109b9565b9050870135896104c2565b601f198516908260005260206000209160005b81811061058b575091610267959391877f3bae25540cd99ad3d8b665990169fb84f5fad36a3c60dc87363a4ad736663c1f9a969410610571575b5050600186811b0190556104d6565b880135600019600389901b60f8161c191690558880610562565b9192602060018192868c013581550194019201610528565b634e487b7160e01b600052604160045260246000fd5b634e487b7160e01b600052600060045260246000fd5b015190508880610423565b6000858152602081209350601f198516905b818110610628575090846001959493921061060f575b505050811b019055610438565b015160001960f88460031b161c19169055888080610602565b929360206001819287860151815501950193016105ec565b015190508b806103a5565b90601f198316918460005260206000209260005b8181106106a057509260019285926002966040989610610687575b505050811b0181556103ba565b015160001960f88460031b161c191690558b808061067a565b9293602060018192878601518155019501930161065f565b3461012157602036600319011261012157600435600254811015610121576106df90610703565b6105b9576106ef61011d916107c8565b604051918291602083526020830190610891565b60025481101561073a5760026000527f405787fa12a823e0f2b7631cc41b3ba8828b3321ca811111fa75cd3aa3bb5ace0190600090565b634e487b7160e01b600052603260045260246000fd5b90600182811c92168015610780575b602083101461076a57565b634e487b7160e01b600052602260045260246000fd5b91607f169161075f565b6060810190811067ffffffffffffffff8211176105a357604052565b90601f8019910116810190811067ffffffffffffffff8211176105a357604052565b90604051918260008254926107dc84610750565b90818452600194858116908160001461084b5750600114610808575b5050610806925003836107a6565b565b9093915060005260209081600020936000915b818310610833575050610806935082010138806107f8565b8554888401850152948501948794509183019161081b565b91505061080694506020925060ff191682840152151560051b82010138806107f8565b60005b8381106108815750506000910152565b8181015183820152602001610871565b906020916108aa8151809281855285808601910161086e565b601f01601f1916010190565b9181601f840112156101215782359167ffffffffffffffff8311610121576020838186019501011161012157565b92919267ffffffffffffffff82116105a3576040519161090e601f8201601f1916602001846107a6565b829481845281830111610121578281602093846000960137010152565b1561093257565b60405162461bcd60e51b815260206004820152600b60248201526a139bdd081cdd195dd85c9960aa1b6044820152606490fd5b90601f811161097357505050565b600091825260208220906020601f850160051c830194106109af575b601f0160051c01915b8281106109a457505050565b818155600101610998565b909250829061098f565b908060209392818452848401376000828201840152601f01601f191601019056fea26469706673582212209528c20c20d3a853266a27b9c0cf6e4fcb984cb794d2b711d6290aca0905472364736f6c63430008140033","opcodes":"PUSH1 0x80 DUP1 PUSH1 0x40 MSTORE CALLVALUE PUSH2 0x28 JUMPI PUSH1 0x0 DUP1 SLOAD PUSH1 0x1 PUSH1 0x1 PUSH1 0xA0 SHL SUB NOT AND CALLER OR SWAP1 SSTORE PUSH2 0xA10 SWAP1 DUP2 PUSH2 0x2E DUP3 CODECOPY RETURN JUMPDEST PUSH1 0x0 DUP1 REVERT INVALID PUSH1 0x80 PUSH1 0x40 MSTORE PUSH1 0x4 CALLDATASIZE LT ISZERO PUSH2 0x12 JUMPI PUSH1 0x0 DUP1 REVERT JUMPDEST PUSH1 0x0 CALLDATALOAD PUSH1 0xE0 SHR DUP1 PUSH4 0xCB6AAF1 EQ PUSH2 0x6B8 JUMPI DUP1 PUSH4 0x148801FB EQ PUSH2 0x295 JUMPI DUP1 PUSH4 0x637EEA19 EQ PUSH2 0x26C JUMPI DUP1 PUSH4 0x818A8C5B EQ PUSH2 0x1E9 JUMPI DUP1 PUSH4 0x8592EEBE EQ PUSH2 0x1CB JUMPI DUP1 PUSH4 0xF351A29D EQ PUSH2 0x126 JUMPI PUSH4 0xF9864EB5 EQ PUSH2 0x69 JUMPI PUSH1 0x0 DUP1 REVERT JUMPDEST CALLVALUE PUSH2 0x121 JUMPI PUSH1 0x20 CALLDATASIZE PUSH1 0x3 NOT ADD SLT PUSH2 0x121 JUMPI PUSH1 0x4 CALLDATALOAD PUSH8 0xFFFFFFFFFFFFFFFF DUP2 GT PUSH2 0x121 JUMPI CALLDATASIZE PUSH1 0x23 DUP3 ADD SLT ISZERO PUSH2 0x121 JUMPI PUSH2 0xC6 PUSH1 0x20 PUSH2 0xB3 PUSH2 0x10A SWAP4 CALLDATASIZE SWAP1 PUSH1 0x24 DUP2 PUSH1 0x4 ADD CALLDATALOAD SWAP2 ADD PUSH2 0x8E4 JUMP JUMPDEST DUP2 PUSH1 0x40 MLOAD SWAP4 DUP3 DUP6 DUP1 SWAP5 MLOAD SWAP4 DUP5 SWAP3 ADD PUSH2 0x86E JUMP JUMPDEST DUP2 ADD PUSH1 0x1 DUP2 MSTORE SUB ADD SWAP1 KECCAK256 PUSH2 0x11D PUSH2 0xDC DUP3 PUSH2 0x7C8 JUMP JUMPDEST SWAP2 PUSH2 0xF6 PUSH1 0x2 PUSH1 0x1 DUP1 PUSH1 0xA0 SHL SUB PUSH1 0x1 DUP5 ADD SLOAD AND SWAP3 ADD PUSH2 0x7C8 JUMP JUMPDEST PUSH1 0x40 MLOAD SWAP5 DUP6 SWAP5 PUSH1 0x60 DUP7 MSTORE PUSH1 0x60 DUP7 ADD SWAP1 PUSH2 0x891 JUMP JUMPDEST SWAP2 PUSH1 0x20 DUP6 ADD MSTORE DUP4 DUP3 SUB PUSH1 0x40 DUP6 ADD MSTORE PUSH2 0x891 JUMP JUMPDEST SUB SWAP1 RETURN JUMPDEST PUSH1 0x0 DUP1 REVERT JUMPDEST CALLVALUE PUSH2 0x121 JUMPI PUSH1 0x20 CALLDATASIZE PUSH1 0x3 NOT ADD SLT PUSH2 0x121 JUMPI PUSH1 0x4 CALLDATALOAD PUSH8 0xFFFFFFFFFFFFFFFF DUP2 GT PUSH2 0x121 JUMPI PUSH1 0x20 PUSH2 0x15B PUSH1 0x40 SWAP3 CALLDATASIZE SWAP1 PUSH1 0x4 ADD PUSH2 0x8B6 JUMP JUMPDEST SWAP2 SWAP1 DUP3 DUP5 MLOAD SWAP4 DUP5 SWAP3 DUP4 CALLDATACOPY DUP2 ADD PUSH1 0x1 DUP2 MSTORE SUB ADD SWAP1 KECCAK256 DUP2 MLOAD SWAP1 PUSH2 0x17B DUP3 PUSH2 0x78A JUMP JUMPDEST PUSH2 0x184 DUP2 PUSH2 0x7C8 JUMP JUMPDEST DUP3 MSTORE PUSH1 0x1 DUP1 PUSH1 0xA0 SHL SUB SWAP2 PUSH2 0x1A8 PUSH1 0x2 DUP5 PUSH1 0x1 DUP6 ADD SLOAD AND SWAP4 PUSH1 0x20 DUP5 ADD SWAP5 DUP6 MSTORE ADD PUSH2 0x7C8 JUMP JUMPDEST SWAP4 DUP5 SWAP2 ADD MSTORE MLOAD AND PUSH2 0x11D PUSH1 0x40 MLOAD SWAP3 DUP4 SWAP3 DUP4 MSTORE PUSH1 0x40 PUSH1 0x20 DUP5 ADD MSTORE PUSH1 0x40 DUP4 ADD SWAP1 PUSH2 0x891 JUMP JUMPDEST CALLVALUE PUSH2 0x121 JUMPI PUSH1 0x0 CALLDATASIZE PUSH1 0x3 NOT ADD SLT PUSH2 0x121 JUMPI PUSH1 0x20 PUSH1 0x2 SLOAD PUSH1 0x40 MLOAD SWAP1 DUP2 MSTORE RETURN JUMPDEST CALLVALUE PUSH2 0x121 JUMPI PUSH1 0x20 CALLDATASIZE PUSH1 0x3 NOT ADD SLT PUSH2 0x121 JUMPI PUSH1 0x4 CALLDATALOAD PUSH8 0xFFFFFFFFFFFFFFFF DUP2 GT PUSH2 0x121 JUMPI PUSH2 0x23B PUSH32 0xFEA5DBE01D4F5CF059D189ACC8B20D3D861280E6442E4E52BDC9C0A00A8761DA SWAP2 CALLDATASIZE SWAP1 PUSH1 0x4 ADD PUSH2 0x8B6 JUMP JUMPDEST PUSH2 0x250 PUSH1 0x1 DUP1 PUSH1 0xA0 SHL SUB PUSH1 0x0 SLOAD AND CALLER EQ PUSH2 0x92B JUMP JUMPDEST PUSH2 0x267 PUSH1 0x40 MLOAD SWAP3 DUP4 SWAP3 PUSH1 0x20 DUP5 MSTORE PUSH1 0x20 DUP5 ADD SWAP2 PUSH2 0x9B9 JUMP JUMPDEST SUB SWAP1 LOG1 STOP JUMPDEST CALLVALUE PUSH2 0x121 JUMPI PUSH1 0x0 CALLDATASIZE PUSH1 0x3 NOT ADD SLT PUSH2 0x121 JUMPI PUSH1 0x0 SLOAD PUSH1 0x40 MLOAD PUSH1 0x1 PUSH1 0x1 PUSH1 0xA0 SHL SUB SWAP1 SWAP2 AND DUP2 MSTORE PUSH1 0x20 SWAP1 RETURN JUMPDEST CALLVALUE PUSH2 0x121 JUMPI PUSH1 0x60 CALLDATASIZE PUSH1 0x3 NOT ADD SLT PUSH2 0x121 JUMPI PUSH1 0x4 CALLDATALOAD PUSH8 0xFFFFFFFFFFFFFFFF DUP2 GT PUSH2 0x121 JUMPI PUSH2 0x2C6 SWAP1 CALLDATASIZE SWAP1 PUSH1 0x4 ADD PUSH2 0x8B6 JUMP JUMPDEST PUSH1 0x24 CALLDATALOAD SWAP2 SWAP1 PUSH1 0x1 PUSH1 0x1 PUSH1 0xA0 SHL SUB DUP4 AND DUP4 SUB PUSH2 0x121 JUMPI PUSH1 0x44 CALLDATALOAD PUSH8 0xFFFFFFFFFFFFFFFF DUP2 GT PUSH2 0x121 JUMPI PUSH2 0x2FB SWAP1 CALLDATASIZE SWAP1 PUSH1 0x4 ADD PUSH2 0x8B6 JUMP JUMPDEST SWAP1 PUSH2 0x311 PUSH1 0x1 DUP1 PUSH1 0xA0 SHL SUB PUSH1 0x0 SLOAD AND CALLER EQ PUSH2 0x92B JUMP JUMPDEST PUSH1 0x40 MLOAD PUSH2 0x31D DUP2 PUSH2 0x78A JUMP JUMPDEST PUSH2 0x328 CALLDATASIZE DUP6 DUP8 PUSH2 0x8E4 JUMP JUMPDEST DUP2 MSTORE PUSH1 0x1 PUSH1 0x1 PUSH1 0xA0 SHL SUB DUP7 AND PUSH1 0x20 DUP3 ADD MSTORE PUSH2 0x344 CALLDATASIZE DUP5 DUP5 PUSH2 0x8E4 JUMP JUMPDEST PUSH1 0x40 DUP3 ADD MSTORE PUSH1 0x40 MLOAD DUP5 DUP7 DUP3 CALLDATACOPY PUSH1 0x20 DUP2 DUP7 DUP2 ADD PUSH1 0x1 DUP2 MSTORE SUB ADD SWAP1 KECCAK256 DUP2 MLOAD DUP1 MLOAD SWAP1 PUSH8 0xFFFFFFFFFFFFFFFF DUP3 GT PUSH2 0x5A3 JUMPI PUSH2 0x386 DUP3 PUSH2 0x380 DUP6 SLOAD PUSH2 0x750 JUMP JUMPDEST DUP6 PUSH2 0x965 JUMP JUMPDEST PUSH1 0x20 SWAP1 PUSH1 0x1F DUP4 GT PUSH1 0x1 EQ PUSH2 0x64B JUMPI SWAP2 DUP1 PUSH1 0x40 SWAP5 SWAP3 PUSH1 0x2 SWAP5 PUSH1 0x0 SWAP3 PUSH2 0x640 JUMPI JUMPDEST POP POP DUP2 PUSH1 0x1 SHL SWAP2 PUSH1 0x0 NOT SWAP1 PUSH1 0x3 SHL SHR NOT AND OR DUP2 SSTORE JUMPDEST PUSH1 0x1 DUP2 ADD PUSH1 0x1 DUP1 PUSH1 0xA0 SHL SUB PUSH1 0x20 DUP7 ADD MLOAD AND PUSH12 0xFFFFFFFFFFFFFFFFFFFFFFFF PUSH1 0xA0 SHL DUP3 SLOAD AND OR SWAP1 SSTORE ADD SWAP2 ADD MLOAD DUP1 MLOAD SWAP1 PUSH8 0xFFFFFFFFFFFFFFFF DUP3 GT PUSH2 0x5A3 JUMPI DUP2 SWAP1 PUSH2 0x40D DUP3 PUSH2 0x407 DUP7 SLOAD PUSH2 0x750 JUMP JUMPDEST DUP7 PUSH2 0x965 JUMP JUMPDEST PUSH1 0x20 SWAP1 PUSH1 0x1F DUP4 GT PUSH1 0x1 EQ PUSH2 0x5DA JUMPI PUSH1 0x0 SWAP3 PUSH2 0x5CF JUMPI JUMPDEST POP POP DUP2 PUSH1 0x1 SHL SWAP2 PUSH1 0x0 NOT SWAP1 PUSH1 0x3 SHL SHR NOT AND OR SWAP1 SSTORE JUMPDEST PUSH1 0x2 SLOAD PUSH9 0x10000000000000000 DUP2 LT ISZERO PUSH2 0x5A3 JUMPI DUP1 PUSH1 0x1 PUSH2 0x45C SWAP3 ADD PUSH1 0x2 SSTORE PUSH2 0x703 JUMP JUMPDEST PUSH2 0x5B9 JUMPI PUSH8 0xFFFFFFFFFFFFFFFF DUP5 GT PUSH2 0x5A3 JUMPI PUSH2 0x483 DUP5 PUSH2 0x47D DUP4 SLOAD PUSH2 0x750 JUMP JUMPDEST DUP4 PUSH2 0x965 JUMP JUMPDEST PUSH1 0x0 PUSH1 0x1F DUP6 GT PUSH1 0x1 EQ PUSH2 0x515 JUMPI SWAP2 PUSH2 0x267 SWAP4 SWAP2 DUP6 PUSH32 0x3BAE25540CD99AD3D8B665990169FB84F5FAD36A3C60DC87363A4AD736663C1F SWAP9 SWAP5 PUSH1 0x0 SWAP2 PUSH2 0x50A JUMPI JUMPDEST POP DUP7 PUSH1 0x1 SHL SWAP1 PUSH1 0x0 NOT DUP9 PUSH1 0x3 SHL SHR NOT AND OR SWAP1 SSTORE JUMPDEST PUSH2 0x4ED PUSH1 0x40 MLOAD SWAP7 DUP8 SWAP7 PUSH1 0x60 DUP9 MSTORE PUSH1 0x60 DUP9 ADD SWAP2 PUSH2 0x9B9 JUMP JUMPDEST PUSH1 0x1 PUSH1 0x1 PUSH1 0xA0 SHL SUB SWAP1 SWAP4 AND PUSH1 0x20 DUP7 ADD MSTORE DUP5 DUP4 SUB PUSH1 0x40 DUP7 ADD MSTORE PUSH2 0x9B9 JUMP JUMPDEST SWAP1 POP DUP8 ADD CALLDATALOAD DUP10 PUSH2 0x4C2 JUMP JUMPDEST PUSH1 0x1F NOT DUP6 AND SWAP1 DUP3 PUSH1 0x0 MSTORE PUSH1 0x20 PUSH1 0x0 KECCAK256 SWAP2 PUSH1 0x0 JUMPDEST DUP2 DUP2 LT PUSH2 0x58B JUMPI POP SWAP2 PUSH2 0x267 SWAP6 SWAP4 SWAP2 DUP8 PUSH32 0x3BAE25540CD99AD3D8B665990169FB84F5FAD36A3C60DC87363A4AD736663C1F SWAP11 SWAP7 SWAP5 LT PUSH2 0x571 JUMPI JUMPDEST POP POP PUSH1 0x1 DUP7 DUP2 SHL ADD SWAP1 SSTORE PUSH2 0x4D6 JUMP JUMPDEST DUP9 ADD CALLDATALOAD PUSH1 0x0 NOT PUSH1 0x3 DUP10 SWAP1 SHL PUSH1 0xF8 AND SHR NOT AND SWAP1 SSTORE DUP9 DUP1 PUSH2 0x562 JUMP JUMPDEST SWAP2 SWAP3 PUSH1 0x20 PUSH1 0x1 DUP2 SWAP3 DUP7 DUP13 ADD CALLDATALOAD DUP2 SSTORE ADD SWAP5 ADD SWAP3 ADD PUSH2 0x528 JUMP JUMPDEST PUSH4 0x4E487B71 PUSH1 0xE0 SHL PUSH1 0x0 MSTORE PUSH1 0x41 PUSH1 0x4 MSTORE PUSH1 0x24 PUSH1 0x0 REVERT JUMPDEST PUSH4 0x4E487B71 PUSH1 0xE0 SHL PUSH1 0x0 MSTORE PUSH1 0x0 PUSH1 0x4 MSTORE PUSH1 0x24 PUSH1 0x0 REVERT JUMPDEST ADD MLOAD SWAP1 POP DUP9 DUP1 PUSH2 0x423 JUMP JUMPDEST PUSH1 0x0 DUP6 DUP2 MSTORE PUSH1 0x20 DUP2 KECCAK256 SWAP4 POP PUSH1 0x1F NOT DUP6 AND SWAP1 JUMPDEST DUP2 DUP2 LT PUSH2 0x628 JUMPI POP SWAP1 DUP5 PUSH1 0x1 SWAP6 SWAP5 SWAP4 SWAP3 LT PUSH2 0x60F JUMPI JUMPDEST POP POP POP DUP2 SHL ADD SWAP1 SSTORE PUSH2 0x438 JUMP JUMPDEST ADD MLOAD PUSH1 0x0 NOT PUSH1 0xF8 DUP5 PUSH1 0x3 SHL AND SHR NOT AND SWAP1 SSTORE DUP9 DUP1 DUP1 PUSH2 0x602 JUMP JUMPDEST SWAP3 SWAP4 PUSH1 0x20 PUSH1 0x1 DUP2 SWAP3 DUP8 DUP7 ADD MLOAD DUP2 SSTORE ADD SWAP6 ADD SWAP4 ADD PUSH2 0x5EC JUMP JUMPDEST ADD MLOAD SWAP1 POP DUP12 DUP1 PUSH2 0x3A5 JUMP JUMPDEST SWAP1 PUSH1 0x1F NOT DUP4 AND SWAP2 DUP5 PUSH1 0x0 MSTORE PUSH1 0x20 PUSH1 0x0 KECCAK256 SWAP3 PUSH1 0x0 JUMPDEST DUP2 DUP2 LT PUSH2 0x6A0 JUMPI POP SWAP3 PUSH1 0x1 SWAP3 DUP6 SWAP3 PUSH1 0x2 SWAP7 PUSH1 0x40 SWAP9 SWAP7 LT PUSH2 0x687 JUMPI JUMPDEST POP POP POP DUP2 SHL ADD DUP2 SSTORE PUSH2 0x3BA JUMP JUMPDEST ADD MLOAD PUSH1 0x0 NOT PUSH1 0xF8 DUP5 PUSH1 0x3 SHL AND SHR NOT AND SWAP1 SSTORE DUP12 DUP1 DUP1 PUSH2 0x67A JUMP JUMPDEST SWAP3 SWAP4 PUSH1 0x20 PUSH1 0x1 DUP2 SWAP3 DUP8 DUP7 ADD MLOAD DUP2 SSTORE ADD SWAP6 ADD SWAP4 ADD PUSH2 0x65F JUMP JUMPDEST CALLVALUE PUSH2 0x121 JUMPI PUSH1 0x20 CALLDATASIZE PUSH1 0x3 NOT ADD SLT PUSH2 0x121 JUMPI PUSH1 0x4 CALLDATALOAD PUSH1 0x2 SLOAD DUP2 LT ISZERO PUSH2 0x121 JUMPI PUSH2 0x6DF SWAP1 PUSH2 0x703 JUMP JUMPDEST PUSH2 0x5B9 JUMPI PUSH2 0x6EF PUSH2 0x11D SWAP2 PUSH2 0x7C8 JUMP JUMPDEST PUSH1 0x40 MLOAD SWAP2 DUP3 SWAP2 PUSH1 0x20 DUP4 MSTORE PUSH1 0x20 DUP4 ADD SWAP1 PUSH2 0x891 JUMP JUMPDEST PUSH1 0x2 SLOAD DUP2 LT ISZERO PUSH2 0x73A JUMPI PUSH1 0x2 PUSH1 0x0 MSTORE PUSH32 0x405787FA12A823E0F2B7631CC41B3BA8828B3321CA811111FA75CD3AA3BB5ACE ADD SWAP1 PUSH1 0x0 SWAP1 JUMP JUMPDEST PUSH4 0x4E487B71 PUSH1 0xE0 SHL PUSH1 0x0 MSTORE PUSH1 0x32 PUSH1 0x4 MSTORE PUSH1 0x24 PUSH1 0x0 REVERT JUMPDEST SWAP1 PUSH1 0x1 DUP3 DUP2 SHR SWAP3 AND DUP1 ISZERO PUSH2 0x780 JUMPI JUMPDEST PUSH1 0x20 DUP4 LT EQ PUSH2 0x76A JUMPI JUMP JUMPDEST PUSH4 0x4E487B71 PUSH1 0xE0 SHL PUSH1 0x0 MSTORE PUSH1 0x22 PUSH1 0x4 MSTORE PUSH1 0x24 PUSH1 0x0 REVERT JUMPDEST SWAP2 PUSH1 0x7F AND SWAP2 PUSH2 0x75F JUMP JUMPDEST PUSH1 0x60 DUP2 ADD SWAP1 DUP2 LT PUSH8 0xFFFFFFFFFFFFFFFF DUP3 GT OR PUSH2 0x5A3 JUMPI PUSH1 0x40 MSTORE JUMP JUMPDEST SWAP1 PUSH1 0x1F DUP1 NOT SWAP2 ADD AND DUP2 ADD SWAP1 DUP2 LT PUSH8 0xFFFFFFFFFFFFFFFF DUP3 GT OR PUSH2 0x5A3 JUMPI PUSH1 0x40 MSTORE JUMP JUMPDEST SWAP1 PUSH1 0x40 MLOAD SWAP2 DUP3 PUSH1 0x0 DUP3 SLOAD SWAP3 PUSH2 0x7DC DUP5 PUSH2 0x750 JUMP JUMPDEST SWAP1 DUP2 DUP5 MSTORE PUSH1 0x1 SWAP5 DUP6 DUP2 AND SWAP1 DUP2 PUSH1 0x0 EQ PUSH2 0x84B JUMPI POP PUSH1 0x1 EQ PUSH2 0x808 JUMPI JUMPDEST POP POP PUSH2 0x806 SWAP3 POP SUB DUP4 PUSH2 0x7A6 JUMP JUMPDEST JUMP JUMPDEST SWAP1 SWAP4 SWAP2 POP PUSH1 0x0 MSTORE PUSH1 0x20 SWAP1 DUP2 PUSH1 0x0 KECCAK256 SWAP4 PUSH1 0x0 SWAP2 JUMPDEST DUP2 DUP4 LT PUSH2 0x833 JUMPI POP POP PUSH2 0x806 SWAP4 POP DUP3 ADD ADD CODESIZE DUP1 PUSH2 0x7F8 JUMP JUMPDEST DUP6 SLOAD DUP9 DUP5 ADD DUP6 ADD MSTORE SWAP5 DUP6 ADD SWAP5 DUP8 SWAP5 POP SWAP2 DUP4 ADD SWAP2 PUSH2 0x81B JUMP JUMPDEST SWAP2 POP POP PUSH2 0x806 SWAP5 POP PUSH1 0x20 SWAP3 POP PUSH1 0xFF NOT AND DUP3 DUP5 ADD MSTORE ISZERO ISZERO PUSH1 0x5 SHL DUP3 ADD ADD CODESIZE DUP1 PUSH2 0x7F8 JUMP JUMPDEST PUSH1 0x0 JUMPDEST DUP4 DUP2 LT PUSH2 0x881 JUMPI POP POP PUSH1 0x0 SWAP2 ADD MSTORE JUMP JUMPDEST DUP2 DUP2 ADD MLOAD DUP4 DUP3 ADD MSTORE PUSH1 0x20 ADD PUSH2 0x871 JUMP JUMPDEST SWAP1 PUSH1 0x20 SWAP2 PUSH2 0x8AA DUP2 MLOAD DUP1 SWAP3 DUP2 DUP6 MSTORE DUP6 DUP1 DUP7 ADD SWAP2 ADD PUSH2 0x86E JUMP JUMPDEST PUSH1 0x1F ADD PUSH1 0x1F NOT AND ADD ADD SWAP1 JUMP JUMPDEST SWAP2 DUP2 PUSH1 0x1F DUP5 ADD SLT ISZERO PUSH2 0x121 JUMPI DUP3 CALLDATALOAD SWAP2 PUSH8 0xFFFFFFFFFFFFFFFF DUP4 GT PUSH2 0x121 JUMPI PUSH1 0x20 DUP4 DUP2 DUP7 ADD SWAP6 ADD ADD GT PUSH2 0x121 JUMPI JUMP JUMPDEST SWAP3 SWAP2 SWAP3 PUSH8 0xFFFFFFFFFFFFFFFF DUP3 GT PUSH2 0x5A3 JUMPI PUSH1 0x40 MLOAD SWAP2 PUSH2 0x90E PUSH1 0x1F DUP3 ADD PUSH1 0x1F NOT AND PUSH1 0x20 ADD DUP5 PUSH2 0x7A6 JUMP JUMPDEST DUP3 SWAP5 DUP2 DUP5 MSTORE DUP2 DUP4 ADD GT PUSH2 0x121 JUMPI DUP3 DUP2 PUSH1 0x20 SWAP4 DUP5 PUSH1 0x0 SWAP7 ADD CALLDATACOPY ADD ADD MSTORE JUMP JUMPDEST ISZERO PUSH2 0x932 JUMPI JUMP JUMPDEST PUSH1 0x40 MLOAD PUSH3 0x461BCD PUSH1 0xE5 SHL DUP2 MSTORE PUSH1 0x20 PUSH1 0x4 DUP3 ADD MSTORE PUSH1 0xB PUSH1 0x24 DUP3 ADD MSTORE PUSH11 0x139BDD081CDD195DD85C99 PUSH1 0xAA SHL PUSH1 0x44 DUP3 ADD MSTORE PUSH1 0x64 SWAP1 REVERT JUMPDEST SWAP1 PUSH1 0x1F DUP2 GT PUSH2 0x973 JUMPI POP POP POP JUMP JUMPDEST PUSH1 0x0 SWAP2 DUP3 MSTORE PUSH1 0x20 DUP3 KECCAK256 SWAP1 PUSH1 0x20 PUSH1 0x1F DUP6 ADD PUSH1 0x5 SHR DUP4 ADD SWAP5 LT PUSH2 0x9AF JUMPI JUMPDEST PUSH1 0x1F ADD PUSH1 0x5 SHR ADD SWAP2 JUMPDEST DUP3 DUP2 LT PUSH2 0x9A4 JUMPI POP POP POP JUMP JUMPDEST DUP2 DUP2 SSTORE PUSH1 0x1 ADD PUSH2 0x998 JUMP JUMPDEST SWAP1 SWAP3 POP DUP3 SWAP1 PUSH2 0x98F JUMP JUMPDEST SWAP1 DUP1 PUSH1 0x20 SWAP4 SWAP3 DUP2 DUP5 MSTORE DUP5 DUP5 ADD CALLDATACOPY PUSH1 0x0 DUP3 DUP3 ADD DUP5 ADD MSTORE PUSH1 0x1F ADD PUSH1 0x1F NOT AND ADD ADD SWAP1 JUMP INVALID LOG2 PUSH5 0x6970667358 0x22 SLT KECCAK256 SWAP6 0x28 0xC2 0xC KECCAK256 0xD3 0xA8 MSTORE8 0x26 PUSH11 0x27B9C0CF6E4FCB984CB794 0xD2 0xB7 GT 0xD6 0x29 EXP 0xCA MULMOD SDIV SELFBALANCE 0x23 PUSH5 0x736F6C6343 STOP ADDMOD EQ STOP CALLER "},"methodIdentifiers":{"echoManifest(string)":"818a8c5b","getGlyph(string)":"f351a29d","glyphs(string)":"f9864eb5","keys(uint256)":"0cb6aaf1","linkGlyph(string,address,string)":"148801fb","steward()":"637eea19","totalGlyphs()":"8592eebe"}}}}}