{"contracts/Leyon.sol":{"Leyon":{"abi":[{"anonymous":false,"inputs":[{"indexed":true,"internalType":"address","name":"apprentice","type":"address"},{"indexed":false,"internalType":"string","name":"signal","type":"string"}],"name":"DriftAnchored","type":"event"},{"anonymous":false,"inputs":[{"indexed":true,"internalType":"address","name":"apprentice","type":"address"}],"name":"LeyonCrowned","type":"event"},{"inputs":[{"internalType":"address","name":"apprentice","type":"address"},{"internalType":"string","name":"signal","type":"string"}],"name":"anchor","outputs":[],"stateMutability":"nonpayable","type":"function"},{"inputs":[{"internalType":"address","name":"","type":"address"}],"name":"anchors","outputs":[{"internalType":"string","name":"","type":"string"}],"stateMutability":"view","type":"function"},{"inputs":[{"internalType":"address","name":"apprentice","type":"address"}],"name":"crown","outputs":[],"stateMutability":"nonpayable","type":"function"},{"inputs":[{"internalType":"address","name":"","type":"address"}],"name":"crowned","outputs":[{"internalType":"bool","name":"","type":"bool"}],"stateMutability":"view","type":"function"},{"inputs":[{"internalType":"address","name":"apprentice","type":"address"}],"name":"echoAnchor","outputs":[{"internalType":"string","name":"","type":"string"}],"stateMutability":"view","type":"function"}],"evm":{"bytecode":{"linkReferences":{},"object":"60808060405234610016576105b7908161001c8239f35b600080fdfe60806040818152600436101561001457600080fd5b600091823560e01c90816308c67ce114610190575080635dca160714610131578063692374e3146100f75780638f9ac7b2146100985763996947ce1461005957600080fd5b346100945760203660031901126100945760209160ff9082906001600160a01b036100826103c5565b16815280855220541690519015158152f35b5080fd5b5034610094576020366003190112610094576100f3916100e89082906001600160a01b036100c46103c5565b16808252816020526100db60ff8484205416610541565b8152600160205220610452565b9051918291826104f8565b0390f35b5034610094576020366003190112610094576100f3916100e89082906001600160a01b036101236103c5565b168152600160205220610452565b5034610094576020366003190112610094576001600160a01b036101536103c5565b1690818352826020528220600160ff198254161790557f94a2464c9dbd57b383aebf3c07e46be1da06921e8c32ffbb33332d825d9c3c528280a280f35b9050346103a957816003193601126103a9576101aa6103c5565b9160243567ffffffffffffffff8082116103c157366023830112156103c1578160040135948186116103ad5786602093601f19976101ef868a601f84011601896103e0565b80885236602482840101116103a957806024879301838a0137870101526001600160a01b03168087528683528387205490959061022e9060ff16610541565b8587526001908184528488209386519384116103955761024e8554610418565b601f811161034f575b508091601f85116001146102c65750509180807f0c85dd6f394c817498e3e3b68cb7547ad501b187a3525281486546cb8eae1de99795936102b597958b936102bb575b501b916000199060031b1c19161790555b51918291826104f8565b0390a280f35b87015192503861029a565b84939492919216858a52828a20928a905b8282106103385750509183917f0c85dd6f394c817498e3e3b68cb7547ad501b187a3525281486546cb8eae1de99896946102b59896941061031f575b5050811b0190556102ab565b86015160001960f88460031b161c191690553880610313565b808785968294968d015181550195019301906102d7565b858a52818a20601f860160051c81019183871061038b575b601f0160051c019084905b828110610380575050610257565b8b8155018490610372565b9091508190610367565b634e487b7160e01b89526041600452602489fd5b8280fd5b634e487b7160e01b87526041600452602487fd5b8580fd5b600435906001600160a01b03821682036103db57565b600080fd5b90601f8019910116810190811067ffffffffffffffff82111761040257604052565b634e487b7160e01b600052604160045260246000fd5b90600182811c92168015610448575b602083101461043257565b634e487b7160e01b600052602260045260246000fd5b91607f1691610427565b906040519182600082549261046684610418565b9081845260019485811690816000146104d55750600114610492575b5050610490925003836103e0565b565b9093915060005260209081600020936000915b8183106104bd57505061049093508201013880610482565b855488840185015294850194879450918301916104a5565b91505061049094506020925060ff191682840152151560051b8201013880610482565b6020808252825181830181905290939260005b82811061052d57505060409293506000838284010152601f8019910116010190565b81810186015184820160400152850161050b565b1561054857565b60405162461bcd60e51b815260206004820152601160248201527013195e5bdb881b9bdd0818dc9bdddb9959607a1b6044820152606490fdfea26469706673582212205bbd1b83bbbeef27de145e4b0d1a33121a008d1580ce5fbd83e54e8bd244562f64736f6c63430008140033","opcodes":"PUSH1 0x80 DUP1 PUSH1 0x40 MSTORE CALLVALUE PUSH2 0x16 JUMPI PUSH2 0x5B7 SWAP1 DUP2 PUSH2 0x1C DUP3 CODECOPY RETURN JUMPDEST PUSH1 0x0 DUP1 REVERT INVALID PUSH1 0x80 PUSH1 0x40 DUP2 DUP2 MSTORE PUSH1 0x4 CALLDATASIZE LT ISZERO PUSH2 0x14 JUMPI PUSH1 0x0 DUP1 REVERT JUMPDEST PUSH1 0x0 SWAP2 DUP3 CALLDATALOAD PUSH1 0xE0 SHR SWAP1 DUP2 PUSH4 0x8C67CE1 EQ PUSH2 0x190 JUMPI POP DUP1 PUSH4 0x5DCA1607 EQ PUSH2 0x131 JUMPI DUP1 PUSH4 0x692374E3 EQ PUSH2 0xF7 JUMPI DUP1 PUSH4 0x8F9AC7B2 EQ PUSH2 0x98 JUMPI PUSH4 0x996947CE EQ PUSH2 0x59 JUMPI PUSH1 0x0 DUP1 REVERT JUMPDEST CALLVALUE PUSH2 0x94 JUMPI PUSH1 0x20 CALLDATASIZE PUSH1 0x3 NOT ADD SLT PUSH2 0x94 JUMPI PUSH1 0x20 SWAP2 PUSH1 0xFF SWAP1 DUP3 SWAP1 PUSH1 0x1 PUSH1 0x1 PUSH1 0xA0 SHL SUB PUSH2 0x82 PUSH2 0x3C5 JUMP JUMPDEST AND DUP2 MSTORE DUP1 DUP6 MSTORE KECCAK256 SLOAD AND SWAP1 MLOAD SWAP1 ISZERO ISZERO DUP2 MSTORE RETURN JUMPDEST POP DUP1 REVERT JUMPDEST POP CALLVALUE PUSH2 0x94 JUMPI PUSH1 0x20 CALLDATASIZE PUSH1 0x3 NOT ADD SLT PUSH2 0x94 JUMPI PUSH2 0xF3 SWAP2 PUSH2 0xE8 SWAP1 DUP3 SWAP1 PUSH1 0x1 PUSH1 0x1 PUSH1 0xA0 SHL SUB PUSH2 0xC4 PUSH2 0x3C5 JUMP JUMPDEST AND DUP1 DUP3 MSTORE DUP2 PUSH1 0x20 MSTORE PUSH2 0xDB PUSH1 0xFF DUP5 DUP5 KECCAK256 SLOAD AND PUSH2 0x541 JUMP JUMPDEST DUP2 MSTORE PUSH1 0x1 PUSH1 0x20 MSTORE KECCAK256 PUSH2 0x452 JUMP JUMPDEST SWAP1 MLOAD SWAP2 DUP3 SWAP2 DUP3 PUSH2 0x4F8 JUMP JUMPDEST SUB SWAP1 RETURN JUMPDEST POP CALLVALUE PUSH2 0x94 JUMPI PUSH1 0x20 CALLDATASIZE PUSH1 0x3 NOT ADD SLT PUSH2 0x94 JUMPI PUSH2 0xF3 SWAP2 PUSH2 0xE8 SWAP1 DUP3 SWAP1 PUSH1 0x1 PUSH1 0x1 PUSH1 0xA0 SHL SUB PUSH2 0x123 PUSH2 0x3C5 JUMP JUMPDEST AND DUP2 MSTORE PUSH1 0x1 PUSH1 0x20 MSTORE KECCAK256 PUSH2 0x452 JUMP JUMPDEST POP CALLVALUE PUSH2 0x94 JUMPI PUSH1 0x20 CALLDATASIZE PUSH1 0x3 NOT ADD SLT PUSH2 0x94 JUMPI PUSH1 0x1 PUSH1 0x1 PUSH1 0xA0 SHL SUB PUSH2 0x153 PUSH2 0x3C5 JUMP JUMPDEST AND SWAP1 DUP2 DUP4 MSTORE DUP3 PUSH1 0x20 MSTORE DUP3 KECCAK256 PUSH1 0x1 PUSH1 0xFF NOT DUP3 SLOAD AND OR SWAP1 SSTORE PUSH32 0x94A2464C9DBD57B383AEBF3C07E46BE1DA06921E8C32FFBB33332D825D9C3C52 DUP3 DUP1 LOG2 DUP1 RETURN JUMPDEST SWAP1 POP CALLVALUE PUSH2 0x3A9 JUMPI DUP2 PUSH1 0x3 NOT CALLDATASIZE ADD SLT PUSH2 0x3A9 JUMPI PUSH2 0x1AA PUSH2 0x3C5 JUMP JUMPDEST SWAP2 PUSH1 0x24 CALLDATALOAD PUSH8 0xFFFFFFFFFFFFFFFF DUP1 DUP3 GT PUSH2 0x3C1 JUMPI CALLDATASIZE PUSH1 0x23 DUP4 ADD SLT ISZERO PUSH2 0x3C1 JUMPI DUP2 PUSH1 0x4 ADD CALLDATALOAD SWAP5 DUP2 DUP7 GT PUSH2 0x3AD JUMPI DUP7 PUSH1 0x20 SWAP4 PUSH1 0x1F NOT SWAP8 PUSH2 0x1EF DUP7 DUP11 PUSH1 0x1F DUP5 ADD AND ADD DUP10 PUSH2 0x3E0 JUMP JUMPDEST DUP1 DUP9 MSTORE CALLDATASIZE PUSH1 0x24 DUP3 DUP5 ADD ADD GT PUSH2 0x3A9 JUMPI DUP1 PUSH1 0x24 DUP8 SWAP4 ADD DUP4 DUP11 ADD CALLDATACOPY DUP8 ADD ADD MSTORE PUSH1 0x1 PUSH1 0x1 PUSH1 0xA0 SHL SUB AND DUP1 DUP8 MSTORE DUP7 DUP4 MSTORE DUP4 DUP8 KECCAK256 SLOAD SWAP1 SWAP6 SWAP1 PUSH2 0x22E SWAP1 PUSH1 0xFF AND PUSH2 0x541 JUMP JUMPDEST DUP6 DUP8 MSTORE PUSH1 0x1 SWAP1 DUP2 DUP5 MSTORE DUP5 DUP9 KECCAK256 SWAP4 DUP7 MLOAD SWAP4 DUP5 GT PUSH2 0x395 JUMPI PUSH2 0x24E DUP6 SLOAD PUSH2 0x418 JUMP JUMPDEST PUSH1 0x1F DUP2 GT PUSH2 0x34F JUMPI JUMPDEST POP DUP1 SWAP2 PUSH1 0x1F DUP6 GT PUSH1 0x1 EQ PUSH2 0x2C6 JUMPI POP POP SWAP2 DUP1 DUP1 PUSH32 0xC85DD6F394C817498E3E3B68CB7547AD501B187A3525281486546CB8EAE1DE9 SWAP8 SWAP6 SWAP4 PUSH2 0x2B5 SWAP8 SWAP6 DUP12 SWAP4 PUSH2 0x2BB JUMPI JUMPDEST POP SHL SWAP2 PUSH1 0x0 NOT SWAP1 PUSH1 0x3 SHL SHR NOT AND OR SWAP1 SSTORE JUMPDEST MLOAD SWAP2 DUP3 SWAP2 DUP3 PUSH2 0x4F8 JUMP JUMPDEST SUB SWAP1 LOG2 DUP1 RETURN JUMPDEST DUP8 ADD MLOAD SWAP3 POP CODESIZE PUSH2 0x29A JUMP JUMPDEST DUP5 SWAP4 SWAP5 SWAP3 SWAP2 SWAP3 AND DUP6 DUP11 MSTORE DUP3 DUP11 KECCAK256 SWAP3 DUP11 SWAP1 JUMPDEST DUP3 DUP3 LT PUSH2 0x338 JUMPI POP POP SWAP2 DUP4 SWAP2 PUSH32 0xC85DD6F394C817498E3E3B68CB7547AD501B187A3525281486546CB8EAE1DE9 SWAP9 SWAP7 SWAP5 PUSH2 0x2B5 SWAP9 SWAP7 SWAP5 LT PUSH2 0x31F JUMPI JUMPDEST POP POP DUP2 SHL ADD SWAP1 SSTORE PUSH2 0x2AB JUMP JUMPDEST DUP7 ADD MLOAD PUSH1 0x0 NOT PUSH1 0xF8 DUP5 PUSH1 0x3 SHL AND SHR NOT AND SWAP1 SSTORE CODESIZE DUP1 PUSH2 0x313 JUMP JUMPDEST DUP1 DUP8 DUP6 SWAP7 DUP3 SWAP5 SWAP7 DUP14 ADD MLOAD DUP2 SSTORE ADD SWAP6 ADD SWAP4 ADD SWAP1 PUSH2 0x2D7 JUMP JUMPDEST DUP6 DUP11 MSTORE DUP2 DUP11 KECCAK256 PUSH1 0x1F DUP7 ADD PUSH1 0x5 SHR DUP2 ADD SWAP2 DUP4 DUP8 LT PUSH2 0x38B JUMPI JUMPDEST PUSH1 0x1F ADD PUSH1 0x5 SHR ADD SWAP1 DUP5 SWAP1 JUMPDEST DUP3 DUP2 LT PUSH2 0x380 JUMPI POP POP PUSH2 0x257 JUMP JUMPDEST DUP12 DUP2 SSTORE ADD DUP5 SWAP1 PUSH2 0x372 JUMP JUMPDEST SWAP1 SWAP2 POP DUP2 SWAP1 PUSH2 0x367 JUMP JUMPDEST PUSH4 0x4E487B71 PUSH1 0xE0 SHL DUP10 MSTORE PUSH1 0x41 PUSH1 0x4 MSTORE PUSH1 0x24 DUP10 REVERT JUMPDEST DUP3 DUP1 REVERT JUMPDEST PUSH4 0x4E487B71 PUSH1 0xE0 SHL DUP8 MSTORE PUSH1 0x41 PUSH1 0x4 MSTORE PUSH1 0x24 DUP8 REVERT JUMPDEST DUP6 DUP1 REVERT JUMPDEST PUSH1 0x4 CALLDATALOAD SWAP1 PUSH1 0x1 PUSH1 0x1 PUSH1 0xA0 SHL SUB DUP3 AND DUP3 SUB PUSH2 0x3DB JUMPI JUMP JUMPDEST PUSH1 0x0 DUP1 REVERT JUMPDEST SWAP1 PUSH1 0x1F DUP1 NOT SWAP2 ADD AND DUP2 ADD SWAP1 DUP2 LT PUSH8 0xFFFFFFFFFFFFFFFF DUP3 GT OR PUSH2 0x402 JUMPI PUSH1 0x40 MSTORE JUMP JUMPDEST PUSH4 0x4E487B71 PUSH1 0xE0 SHL PUSH1 0x0 MSTORE PUSH1 0x41 PUSH1 0x4 MSTORE PUSH1 0x24 PUSH1 0x0 REVERT JUMPDEST SWAP1 PUSH1 0x1 DUP3 DUP2 SHR SWAP3 AND DUP1 ISZERO PUSH2 0x448 JUMPI JUMPDEST PUSH1 0x20 DUP4 LT EQ PUSH2 0x432 JUMPI JUMP JUMPDEST PUSH4 0x4E487B71 PUSH1 0xE0 SHL PUSH1 0x0 MSTORE PUSH1 0x22 PUSH1 0x4 MSTORE PUSH1 0x24 PUSH1 0x0 REVERT JUMPDEST SWAP2 PUSH1 0x7F AND SWAP2 PUSH2 0x427 JUMP JUMPDEST SWAP1 PUSH1 0x40 MLOAD SWAP2 DUP3 PUSH1 0x0 DUP3 SLOAD SWAP3 PUSH2 0x466 DUP5 PUSH2 0x418 JUMP JUMPDEST SWAP1 DUP2 DUP5 MSTORE PUSH1 0x1 SWAP5 DUP6 DUP2 AND SWAP1 DUP2 PUSH1 0x0 EQ PUSH2 0x4D5 JUMPI POP PUSH1 0x1 EQ PUSH2 0x492 JUMPI JUMPDEST POP POP PUSH2 0x490 SWAP3 POP SUB DUP4 PUSH2 0x3E0 JUMP JUMPDEST JUMP JUMPDEST SWAP1 SWAP4 SWAP2 POP PUSH1 0x0 MSTORE PUSH1 0x20 SWAP1 DUP2 PUSH1 0x0 KECCAK256 SWAP4 PUSH1 0x0 SWAP2 JUMPDEST DUP2 DUP4 LT PUSH2 0x4BD JUMPI POP POP PUSH2 0x490 SWAP4 POP DUP3 ADD ADD CODESIZE DUP1 PUSH2 0x482 JUMP JUMPDEST DUP6 SLOAD DUP9 DUP5 ADD DUP6 ADD MSTORE SWAP5 DUP6 ADD SWAP5 DUP8 SWAP5 POP SWAP2 DUP4 ADD SWAP2 PUSH2 0x4A5 JUMP JUMPDEST SWAP2 POP POP PUSH2 0x490 SWAP5 POP PUSH1 0x20 SWAP3 POP PUSH1 0xFF NOT AND DUP3 DUP5 ADD MSTORE ISZERO ISZERO PUSH1 0x5 SHL DUP3 ADD ADD CODESIZE DUP1 PUSH2 0x482 JUMP JUMPDEST PUSH1 0x20 DUP1 DUP3 MSTORE DUP3 MLOAD DUP2 DUP4 ADD DUP2 SWAP1 MSTORE SWAP1 SWAP4 SWAP3 PUSH1 0x0 JUMPDEST DUP3 DUP2 LT PUSH2 0x52D JUMPI POP POP PUSH1 0x40 SWAP3 SWAP4 POP PUSH1 0x0 DUP4 DUP3 DUP5 ADD ADD MSTORE PUSH1 0x1F DUP1 NOT SWAP2 ADD AND ADD ADD SWAP1 JUMP JUMPDEST DUP2 DUP2 ADD DUP7 ADD MLOAD DUP5 DUP3 ADD PUSH1 0x40 ADD MSTORE DUP6 ADD PUSH2 0x50B JUMP JUMPDEST ISZERO PUSH2 0x548 JUMPI JUMP JUMPDEST PUSH1 0x40 MLOAD PUSH3 0x461BCD PUSH1 0xE5 SHL DUP2 MSTORE PUSH1 0x20 PUSH1 0x4 DUP3 ADD MSTORE PUSH1 0x11 PUSH1 0x24 DUP3 ADD MSTORE PUSH17 0x13195E5BDB881B9BDD0818DC9BDDDB9959 PUSH1 0x7A SHL PUSH1 0x44 DUP3 ADD MSTORE PUSH1 0x64 SWAP1 REVERT INVALID LOG2 PUSH5 0x6970667358 0x22 SLT KECCAK256 JUMPDEST 0xBD SHL DUP4 0xBB 0xBE 0xEF 0x27 0xDE EQ 0x5E 0x4B 0xD BYTE CALLER SLT BYTE STOP DUP14 ISZERO DUP1 0xCE PUSH0 0xBD DUP4 0xE5 0x4E DUP12 0xD2 PREVRANDAO JUMP 0x2F PUSH5 0x736F6C6343 STOP ADDMOD EQ STOP CALLER "},"methodIdentifiers":{"anchor(address,string)":"08c67ce1","anchors(address)":"692374e3","crown(address)":"5dca1607","crowned(address)":"996947ce","echoAnchor(address)":"8f9ac7b2"}}}}}