{"contracts/Bootbark.sol":{"Bootbark":{"abi":[{"inputs":[],"name":"getWisdom","outputs":[{"internalType":"string","name":"","type":"string"}],"stateMutability":"view","type":"function"}],"evm":{"bytecode":{"linkReferences":{},"object":"608080604052346100165761010a908161001c8239f35b600080fdfe60806004361015600e57600080fd5b600090813560e01c6320f138ba14602457600080fd5b3460d0578160031936011260d05760409081810181811067ffffffffffffffff82111760bc578252601981526020907f426f6f746261726b20686f776c7320696e2073696c656e6365000000000000008282015282519382859384528251928382860152825b84811060a757505050828201840152601f01601f19168101030190f35b8181018301518882018801528795508201608a565b634e487b7160e01b84526041600452602484fd5b5080fdfea26469706673582212207732a345e4f2bcf121b27095c9009c6066e69bffe1270b4767727f7f2c23cc7564736f6c63430008140033","opcodes":"PUSH1 0x80 DUP1 PUSH1 0x40 MSTORE CALLVALUE PUSH2 0x16 JUMPI PUSH2 0x10A SWAP1 DUP2 PUSH2 0x1C DUP3 CODECOPY RETURN JUMPDEST PUSH1 0x0 DUP1 REVERT INVALID PUSH1 0x80 PUSH1 0x4 CALLDATASIZE LT ISZERO PUSH1 0xE JUMPI PUSH1 0x0 DUP1 REVERT JUMPDEST PUSH1 0x0 SWAP1 DUP2 CALLDATALOAD PUSH1 0xE0 SHR PUSH4 0x20F138BA EQ PUSH1 0x24 JUMPI PUSH1 0x0 DUP1 REVERT JUMPDEST CALLVALUE PUSH1 0xD0 JUMPI DUP2 PUSH1 0x3 NOT CALLDATASIZE ADD SLT PUSH1 0xD0 JUMPI PUSH1 0x40 SWAP1 DUP2 DUP2 ADD DUP2 DUP2 LT PUSH8 0xFFFFFFFFFFFFFFFF DUP3 GT OR PUSH1 0xBC JUMPI DUP3 MSTORE PUSH1 0x19 DUP2 MSTORE PUSH1 0x20 SWAP1 PUSH32 0x426F6F746261726B20686F776C7320696E2073696C656E636500000000000000 DUP3 DUP3 ADD MSTORE DUP3 MLOAD SWAP4 DUP3 DUP6 SWAP4 DUP5 MSTORE DUP3 MLOAD SWAP3 DUP4 DUP3 DUP7 ADD MSTORE DUP3 JUMPDEST DUP5 DUP2 LT PUSH1 0xA7 JUMPI POP POP POP DUP3 DUP3 ADD DUP5 ADD MSTORE PUSH1 0x1F ADD PUSH1 0x1F NOT AND DUP2 ADD SUB ADD SWAP1 RETURN JUMPDEST DUP2 DUP2 ADD DUP4 ADD MLOAD DUP9 DUP3 ADD DUP9 ADD MSTORE DUP8 SWAP6 POP DUP3 ADD PUSH1 0x8A JUMP JUMPDEST PUSH4 0x4E487B71 PUSH1 0xE0 SHL DUP5 MSTORE PUSH1 0x41 PUSH1 0x4 MSTORE PUSH1 0x24 DUP5 REVERT JUMPDEST POP DUP1 REVERT INVALID LOG2 PUSH5 0x6970667358 0x22 SLT KECCAK256 PUSH24 0x32A345E4F2BCF121B27095C9009C6066E69BFFE1270B4767 PUSH19 0x7F7F2C23CC7564736F6C634300081400330000 "},"methodIdentifiers":{"getWisdom()":"20f138ba"}}}}}