{"contracts/OrbitalSanctum.sol":{"OrbitalSanctum":{"abi":[{"anonymous":false,"inputs":[{"indexed":false,"internalType":"string","name":"nodeName","type":"string"},{"indexed":false,"internalType":"string","name":"genesisMessage","type":"string"}],"name":"SanctumActivated","type":"event"},{"inputs":[{"internalType":"string","name":"_nodeName","type":"string"},{"internalType":"string","name":"_genesisMessage","type":"string"}],"name":"activate","outputs":[],"stateMutability":"nonpayable","type":"function"},{"inputs":[],"name":"activated","outputs":[{"internalType":"bool","name":"","type":"bool"}],"stateMutability":"view","type":"function"},{"inputs":[],"name":"echoSanctum","outputs":[{"internalType":"string","name":"","type":"string"}],"stateMutability":"view","type":"function"},{"inputs":[],"name":"genesisMessage","outputs":[{"internalType":"string","name":"","type":"string"}],"stateMutability":"view","type":"function"},{"inputs":[],"name":"nodeName","outputs":[{"internalType":"string","name":"","type":"string"}],"stateMutability":"view","type":"function"}],"evm":{"bytecode":{"linkReferences":{},"object":"608080604052346100165761082e908161001c8239f35b600080fdfe608060409080825260048036101561001657600080fd5b600091823560e01c908163186601ca146106895750806375aee6df146104c9578063a6edb34214610433578063bba80ad31461035e5763bf0058d01461005b57600080fd5b3461035a578260031936011261035a5767ffffffffffffffff9281358481116103565761008b903690840161075c565b91602435858111610352576100a3903690830161075c565b9483519181831161027a576100b886546106ea565b92601f93848111610305575b5080602085821160011461029857889161028d575b508160011b916000199060031b1c19161786555b865191821161027a575060019161010483546106ea565b81811161022a575b50602090821160011461019a579181869792610189947fd61adb4239b22b0e8a943edc3eac708e5e4b05c646f89b5659ed235c1f8bc4ea989161018f575b50600019600383901b1c191690821b1781555b60ff19600254161760025561017b83519484869586528501906106aa565b9083820360208501526106aa565b0390a180f35b90508301513861014a565b8286526000805160206107d983398151915290601f198316875b81811061021457509284926101899592827fd61adb4239b22b0e8a943edc3eac708e5e4b05c646f89b5659ed235c1f8bc4ea9a9b96106101fb575b5050811b01815561015d565b85015160001960f88460031b161c1916905538806101ef565b89830151845592850192602092830192016101b4565b8387526000805160206107d98339815191528280850160051c82019260208610610271575b0160051c019084905b82811061026657505061010c565b888155018490610258565b9250819261024f565b634e487b7160e01b865260419052602485fd5b9050860151386100d9565b8880526000805160206107b98339815191529150601f198316895b8181106102ed575090836001949392106102d4575b5050811b0186556100ed565b88015160001960f88460031b161c1916905538806102c8565b9192602060018192868d0151815501940192016102b3565b8780526000805160206107b98339815191528580840160051c82019260208510610349575b0160051c01905b81811061033e57506100c4565b888155600101610331565b9250819261032a565b8480fd5b8380fd5b5080fd5b82843461035a578160031936011261035a57805190826001805491610382836106ea565b8086529282811690811561040b57506001146103c1575b5050506103ab826103bd940383610724565b519182916020835260208301906106aa565b0390f35b94508085526000805160206107d98339815191525b8286106103f3575050506103ab8260206103bd9582010194610399565b805460208787018101919091529095019481016103d6565b6103bd9750869350602092506103ab94915060ff191682840152151560051b82010194610399565b82843461035a578160031936011261035a57805190828054610454816106ea565b8085529160019180831690811561040b575060011461047f575050506103ab826103bd940383610724565b80809650526000805160206107b98339815191525b8286106104b1575050506103ab8260206103bd9582010194610399565b80546020878701810191909152909501948101610494565b503461035a578160031936011261035a5760ff600254161561064e5750815191826020926502737b2329d160d51b8483015280815490610508826106ea565b60019280841690811561063357506001146105ef575b506201016960ed1b815282825492610535846106ea565b938181169081156105c35750600114610571575b85886103bd89610562848a03601f198101865285610724565b519282849384528301906106aa565b8082526000805160206107d9833981519152969594505b878483106105aa5750949550929350016003019050816105626103bd38610549565b8754600384860101529681019689955090910190610588565b9050610562955060039392506103bd979694915060ff1916838301528015150201019181939438610549565b838052905082866000805160206107b98339815191525b83831061061b5750505083016026013861051e565b80548a84016026015289965091019087908401610606565b90506026925060ff191682860152801515028401013861051e565b606490602084519162461bcd60e51b8352820152601560248201527414d85b98dd1d5b481b9bdd081858dd1a5d985d1959605a1b6044820152fd5b83903461035a578160031936011261035a5760209060ff6002541615158152f35b919082519283825260005b8481106106d6575050826000602080949584010152601f8019910116010190565b6020818301810151848301820152016106b5565b90600182811c9216801561071a575b602083101461070457565b634e487b7160e01b600052602260045260246000fd5b91607f16916106f9565b90601f8019910116810190811067ffffffffffffffff82111761074657604052565b634e487b7160e01b600052604160045260246000fd5b81601f820112156107b35780359067ffffffffffffffff82116107465760405192610791601f8401601f191660200185610724565b828452602083830101116107b357816000926020809301838601378301015290565b600080fdfe290decd9548b62a8d60345a988386fc84ba6bc95484008f6362f93160ef3e563b10e2d527612073b26eecdfd717e6a320cf44b4afac2b0732d9fcbe2b7fa0cf6a2646970667358221220701e0716dece89be5b178c82e95c86bd85230b0331c92b74a99700b1c21154c964736f6c63430008140033","opcodes":"PUSH1 0x80 DUP1 PUSH1 0x40 MSTORE CALLVALUE PUSH2 0x16 JUMPI PUSH2 0x82E SWAP1 DUP2 PUSH2 0x1C DUP3 CODECOPY RETURN JUMPDEST PUSH1 0x0 DUP1 REVERT INVALID PUSH1 0x80 PUSH1 0x40 SWAP1 DUP1 DUP3 MSTORE PUSH1 0x4 DUP1 CALLDATASIZE LT ISZERO PUSH2 0x16 JUMPI PUSH1 0x0 DUP1 REVERT JUMPDEST PUSH1 0x0 SWAP2 DUP3 CALLDATALOAD PUSH1 0xE0 SHR SWAP1 DUP2 PUSH4 0x186601CA EQ PUSH2 0x689 JUMPI POP DUP1 PUSH4 0x75AEE6DF EQ PUSH2 0x4C9 JUMPI DUP1 PUSH4 0xA6EDB342 EQ PUSH2 0x433 JUMPI DUP1 PUSH4 0xBBA80AD3 EQ PUSH2 0x35E JUMPI PUSH4 0xBF0058D0 EQ PUSH2 0x5B JUMPI PUSH1 0x0 DUP1 REVERT JUMPDEST CALLVALUE PUSH2 0x35A JUMPI DUP3 PUSH1 0x3 NOT CALLDATASIZE ADD SLT PUSH2 0x35A JUMPI PUSH8 0xFFFFFFFFFFFFFFFF SWAP3 DUP2 CALLDATALOAD DUP5 DUP2 GT PUSH2 0x356 JUMPI PUSH2 0x8B SWAP1 CALLDATASIZE SWAP1 DUP5 ADD PUSH2 0x75C JUMP JUMPDEST SWAP2 PUSH1 0x24 CALLDATALOAD DUP6 DUP2 GT PUSH2 0x352 JUMPI PUSH2 0xA3 SWAP1 CALLDATASIZE SWAP1 DUP4 ADD PUSH2 0x75C JUMP JUMPDEST SWAP5 DUP4 MLOAD SWAP2 DUP2 DUP4 GT PUSH2 0x27A JUMPI PUSH2 0xB8 DUP7 SLOAD PUSH2 0x6EA JUMP JUMPDEST SWAP3 PUSH1 0x1F SWAP4 DUP5 DUP2 GT PUSH2 0x305 JUMPI JUMPDEST POP DUP1 PUSH1 0x20 DUP6 DUP3 GT PUSH1 0x1 EQ PUSH2 0x298 JUMPI DUP9 SWAP2 PUSH2 0x28D JUMPI JUMPDEST POP DUP2 PUSH1 0x1 SHL SWAP2 PUSH1 0x0 NOT SWAP1 PUSH1 0x3 SHL SHR NOT AND OR DUP7 SSTORE JUMPDEST DUP7 MLOAD SWAP2 DUP3 GT PUSH2 0x27A JUMPI POP PUSH1 0x1 SWAP2 PUSH2 0x104 DUP4 SLOAD PUSH2 0x6EA JUMP JUMPDEST DUP2 DUP2 GT PUSH2 0x22A JUMPI JUMPDEST POP PUSH1 0x20 SWAP1 DUP3 GT PUSH1 0x1 EQ PUSH2 0x19A JUMPI SWAP2 DUP2 DUP7 SWAP8 SWAP3 PUSH2 0x189 SWAP5 PUSH32 0xD61ADB4239B22B0E8A943EDC3EAC708E5E4B05C646F89B5659ED235C1F8BC4EA SWAP9 SWAP2 PUSH2 0x18F JUMPI JUMPDEST POP PUSH1 0x0 NOT PUSH1 0x3 DUP4 SWAP1 SHL SHR NOT AND SWAP1 DUP3 SHL OR DUP2 SSTORE JUMPDEST PUSH1 0xFF NOT PUSH1 0x2 SLOAD AND OR PUSH1 0x2 SSTORE PUSH2 0x17B DUP4 MLOAD SWAP5 DUP5 DUP7 SWAP6 DUP7 MSTORE DUP6 ADD SWAP1 PUSH2 0x6AA JUMP JUMPDEST SWAP1 DUP4 DUP3 SUB PUSH1 0x20 DUP6 ADD MSTORE PUSH2 0x6AA JUMP JUMPDEST SUB SWAP1 LOG1 DUP1 RETURN JUMPDEST SWAP1 POP DUP4 ADD MLOAD CODESIZE PUSH2 0x14A JUMP JUMPDEST DUP3 DUP7 MSTORE PUSH1 0x0 DUP1 MLOAD PUSH1 0x20 PUSH2 0x7D9 DUP4 CODECOPY DUP2 MLOAD SWAP2 MSTORE SWAP1 PUSH1 0x1F NOT DUP4 AND DUP8 JUMPDEST DUP2 DUP2 LT PUSH2 0x214 JUMPI POP SWAP3 DUP5 SWAP3 PUSH2 0x189 SWAP6 SWAP3 DUP3 PUSH32 0xD61ADB4239B22B0E8A943EDC3EAC708E5E4B05C646F89B5659ED235C1F8BC4EA SWAP11 SWAP12 SWAP7 LT PUSH2 0x1FB JUMPI JUMPDEST POP POP DUP2 SHL ADD DUP2 SSTORE PUSH2 0x15D JUMP JUMPDEST DUP6 ADD MLOAD PUSH1 0x0 NOT PUSH1 0xF8 DUP5 PUSH1 0x3 SHL AND SHR NOT AND SWAP1 SSTORE CODESIZE DUP1 PUSH2 0x1EF JUMP JUMPDEST DUP10 DUP4 ADD MLOAD DUP5 SSTORE SWAP3 DUP6 ADD SWAP3 PUSH1 0x20 SWAP3 DUP4 ADD SWAP3 ADD PUSH2 0x1B4 JUMP JUMPDEST DUP4 DUP8 MSTORE PUSH1 0x0 DUP1 MLOAD PUSH1 0x20 PUSH2 0x7D9 DUP4 CODECOPY DUP2 MLOAD SWAP2 MSTORE DUP3 DUP1 DUP6 ADD PUSH1 0x5 SHR DUP3 ADD SWAP3 PUSH1 0x20 DUP7 LT PUSH2 0x271 JUMPI JUMPDEST ADD PUSH1 0x5 SHR ADD SWAP1 DUP5 SWAP1 JUMPDEST DUP3 DUP2 LT PUSH2 0x266 JUMPI POP POP PUSH2 0x10C JUMP JUMPDEST DUP9 DUP2 SSTORE ADD DUP5 SWAP1 PUSH2 0x258 JUMP JUMPDEST SWAP3 POP DUP2 SWAP3 PUSH2 0x24F JUMP JUMPDEST PUSH4 0x4E487B71 PUSH1 0xE0 SHL DUP7 MSTORE PUSH1 0x41 SWAP1 MSTORE PUSH1 0x24 DUP6 REVERT JUMPDEST SWAP1 POP DUP7 ADD MLOAD CODESIZE PUSH2 0xD9 JUMP JUMPDEST DUP9 DUP1 MSTORE PUSH1 0x0 DUP1 MLOAD PUSH1 0x20 PUSH2 0x7B9 DUP4 CODECOPY DUP2 MLOAD SWAP2 MSTORE SWAP2 POP PUSH1 0x1F NOT DUP4 AND DUP10 JUMPDEST DUP2 DUP2 LT PUSH2 0x2ED JUMPI POP SWAP1 DUP4 PUSH1 0x1 SWAP5 SWAP4 SWAP3 LT PUSH2 0x2D4 JUMPI JUMPDEST POP POP DUP2 SHL ADD DUP7 SSTORE PUSH2 0xED JUMP JUMPDEST DUP9 ADD MLOAD PUSH1 0x0 NOT PUSH1 0xF8 DUP5 PUSH1 0x3 SHL AND SHR NOT AND SWAP1 SSTORE CODESIZE DUP1 PUSH2 0x2C8 JUMP JUMPDEST SWAP2 SWAP3 PUSH1 0x20 PUSH1 0x1 DUP2 SWAP3 DUP7 DUP14 ADD MLOAD DUP2 SSTORE ADD SWAP5 ADD SWAP3 ADD PUSH2 0x2B3 JUMP JUMPDEST DUP8 DUP1 MSTORE PUSH1 0x0 DUP1 MLOAD PUSH1 0x20 PUSH2 0x7B9 DUP4 CODECOPY DUP2 MLOAD SWAP2 MSTORE DUP6 DUP1 DUP5 ADD PUSH1 0x5 SHR DUP3 ADD SWAP3 PUSH1 0x20 DUP6 LT PUSH2 0x349 JUMPI JUMPDEST ADD PUSH1 0x5 SHR ADD SWAP1 JUMPDEST DUP2 DUP2 LT PUSH2 0x33E JUMPI POP PUSH2 0xC4 JUMP JUMPDEST DUP9 DUP2 SSTORE PUSH1 0x1 ADD PUSH2 0x331 JUMP JUMPDEST SWAP3 POP DUP2 SWAP3 PUSH2 0x32A JUMP JUMPDEST DUP5 DUP1 REVERT JUMPDEST DUP4 DUP1 REVERT JUMPDEST POP DUP1 REVERT JUMPDEST DUP3 DUP5 CALLVALUE PUSH2 0x35A JUMPI DUP2 PUSH1 0x3 NOT CALLDATASIZE ADD SLT PUSH2 0x35A JUMPI DUP1 MLOAD SWAP1 DUP3 PUSH1 0x1 DUP1 SLOAD SWAP2 PUSH2 0x382 DUP4 PUSH2 0x6EA JUMP JUMPDEST DUP1 DUP7 MSTORE SWAP3 DUP3 DUP2 AND SWAP1 DUP2 ISZERO PUSH2 0x40B JUMPI POP PUSH1 0x1 EQ PUSH2 0x3C1 JUMPI JUMPDEST POP POP POP PUSH2 0x3AB DUP3 PUSH2 0x3BD SWAP5 SUB DUP4 PUSH2 0x724 JUMP JUMPDEST MLOAD SWAP2 DUP3 SWAP2 PUSH1 0x20 DUP4 MSTORE PUSH1 0x20 DUP4 ADD SWAP1 PUSH2 0x6AA JUMP JUMPDEST SUB SWAP1 RETURN JUMPDEST SWAP5 POP DUP1 DUP6 MSTORE PUSH1 0x0 DUP1 MLOAD PUSH1 0x20 PUSH2 0x7D9 DUP4 CODECOPY DUP2 MLOAD SWAP2 MSTORE JUMPDEST DUP3 DUP7 LT PUSH2 0x3F3 JUMPI POP POP POP PUSH2 0x3AB DUP3 PUSH1 0x20 PUSH2 0x3BD SWAP6 DUP3 ADD ADD SWAP5 PUSH2 0x399 JUMP JUMPDEST DUP1 SLOAD PUSH1 0x20 DUP8 DUP8 ADD DUP2 ADD SWAP2 SWAP1 SWAP2 MSTORE SWAP1 SWAP6 ADD SWAP5 DUP2 ADD PUSH2 0x3D6 JUMP JUMPDEST PUSH2 0x3BD SWAP8 POP DUP7 SWAP4 POP PUSH1 0x20 SWAP3 POP PUSH2 0x3AB SWAP5 SWAP2 POP PUSH1 0xFF NOT AND DUP3 DUP5 ADD MSTORE ISZERO ISZERO PUSH1 0x5 SHL DUP3 ADD ADD SWAP5 PUSH2 0x399 JUMP JUMPDEST DUP3 DUP5 CALLVALUE PUSH2 0x35A JUMPI DUP2 PUSH1 0x3 NOT CALLDATASIZE ADD SLT PUSH2 0x35A JUMPI DUP1 MLOAD SWAP1 DUP3 DUP1 SLOAD PUSH2 0x454 DUP2 PUSH2 0x6EA JUMP JUMPDEST DUP1 DUP6 MSTORE SWAP2 PUSH1 0x1 SWAP2 DUP1 DUP4 AND SWAP1 DUP2 ISZERO PUSH2 0x40B JUMPI POP PUSH1 0x1 EQ PUSH2 0x47F JUMPI POP POP POP PUSH2 0x3AB DUP3 PUSH2 0x3BD SWAP5 SUB DUP4 PUSH2 0x724 JUMP JUMPDEST DUP1 DUP1 SWAP7 POP MSTORE PUSH1 0x0 DUP1 MLOAD PUSH1 0x20 PUSH2 0x7B9 DUP4 CODECOPY DUP2 MLOAD SWAP2 MSTORE JUMPDEST DUP3 DUP7 LT PUSH2 0x4B1 JUMPI POP POP POP PUSH2 0x3AB DUP3 PUSH1 0x20 PUSH2 0x3BD SWAP6 DUP3 ADD ADD SWAP5 PUSH2 0x399 JUMP JUMPDEST DUP1 SLOAD PUSH1 0x20 DUP8 DUP8 ADD DUP2 ADD SWAP2 SWAP1 SWAP2 MSTORE SWAP1 SWAP6 ADD SWAP5 DUP2 ADD PUSH2 0x494 JUMP JUMPDEST POP CALLVALUE PUSH2 0x35A JUMPI DUP2 PUSH1 0x3 NOT CALLDATASIZE ADD SLT PUSH2 0x35A JUMPI PUSH1 0xFF PUSH1 0x2 SLOAD AND ISZERO PUSH2 0x64E JUMPI POP DUP2 MLOAD SWAP2 DUP3 PUSH1 0x20 SWAP3 PUSH6 0x2737B2329D1 PUSH1 0xD5 SHL DUP5 DUP4 ADD MSTORE DUP1 DUP2 SLOAD SWAP1 PUSH2 0x508 DUP3 PUSH2 0x6EA JUMP JUMPDEST PUSH1 0x1 SWAP3 DUP1 DUP5 AND SWAP1 DUP2 ISZERO PUSH2 0x633 JUMPI POP PUSH1 0x1 EQ PUSH2 0x5EF JUMPI JUMPDEST POP PUSH3 0x10169 PUSH1 0xED SHL DUP2 MSTORE DUP3 DUP3 SLOAD SWAP3 PUSH2 0x535 DUP5 PUSH2 0x6EA JUMP JUMPDEST SWAP4 DUP2 DUP2 AND SWAP1 DUP2 ISZERO PUSH2 0x5C3 JUMPI POP PUSH1 0x1 EQ PUSH2 0x571 JUMPI JUMPDEST DUP6 DUP9 PUSH2 0x3BD DUP10 PUSH2 0x562 DUP5 DUP11 SUB PUSH1 0x1F NOT DUP2 ADD DUP7 MSTORE DUP6 PUSH2 0x724 JUMP JUMPDEST MLOAD SWAP3 DUP3 DUP5 SWAP4 DUP5 MSTORE DUP4 ADD SWAP1 PUSH2 0x6AA JUMP JUMPDEST DUP1 DUP3 MSTORE PUSH1 0x0 DUP1 MLOAD PUSH1 0x20 PUSH2 0x7D9 DUP4 CODECOPY DUP2 MLOAD SWAP2 MSTORE SWAP7 SWAP6 SWAP5 POP JUMPDEST DUP8 DUP5 DUP4 LT PUSH2 0x5AA JUMPI POP SWAP5 SWAP6 POP SWAP3 SWAP4 POP ADD PUSH1 0x3 ADD SWAP1 POP DUP2 PUSH2 0x562 PUSH2 0x3BD CODESIZE PUSH2 0x549 JUMP JUMPDEST DUP8 SLOAD PUSH1 0x3 DUP5 DUP7 ADD ADD MSTORE SWAP7 DUP2 ADD SWAP7 DUP10 SWAP6 POP SWAP1 SWAP2 ADD SWAP1 PUSH2 0x588 JUMP JUMPDEST SWAP1 POP PUSH2 0x562 SWAP6 POP PUSH1 0x3 SWAP4 SWAP3 POP PUSH2 0x3BD SWAP8 SWAP7 SWAP5 SWAP2 POP PUSH1 0xFF NOT AND DUP4 DUP4 ADD MSTORE DUP1 ISZERO ISZERO MUL ADD ADD SWAP2 DUP2 SWAP4 SWAP5 CODESIZE PUSH2 0x549 JUMP JUMPDEST DUP4 DUP1 MSTORE SWAP1 POP DUP3 DUP7 PUSH1 0x0 DUP1 MLOAD PUSH1 0x20 PUSH2 0x7B9 DUP4 CODECOPY DUP2 MLOAD SWAP2 MSTORE JUMPDEST DUP4 DUP4 LT PUSH2 0x61B JUMPI POP POP POP DUP4 ADD PUSH1 0x26 ADD CODESIZE PUSH2 0x51E JUMP JUMPDEST DUP1 SLOAD DUP11 DUP5 ADD PUSH1 0x26 ADD MSTORE DUP10 SWAP7 POP SWAP2 ADD SWAP1 DUP8 SWAP1 DUP5 ADD PUSH2 0x606 JUMP JUMPDEST SWAP1 POP PUSH1 0x26 SWAP3 POP PUSH1 0xFF NOT AND DUP3 DUP7 ADD MSTORE DUP1 ISZERO ISZERO MUL DUP5 ADD ADD CODESIZE PUSH2 0x51E JUMP JUMPDEST PUSH1 0x64 SWAP1 PUSH1 0x20 DUP5 MLOAD SWAP2 PUSH3 0x461BCD PUSH1 0xE5 SHL DUP4 MSTORE DUP3 ADD MSTORE PUSH1 0x15 PUSH1 0x24 DUP3 ADD MSTORE PUSH21 0x14D85B98DD1D5B481B9BDD081858DD1A5D985D1959 PUSH1 0x5A SHL PUSH1 0x44 DUP3 ADD MSTORE REVERT JUMPDEST DUP4 SWAP1 CALLVALUE PUSH2 0x35A JUMPI DUP2 PUSH1 0x3 NOT CALLDATASIZE ADD SLT PUSH2 0x35A JUMPI PUSH1 0x20 SWAP1 PUSH1 0xFF PUSH1 0x2 SLOAD AND ISZERO ISZERO DUP2 MSTORE RETURN JUMPDEST SWAP2 SWAP1 DUP3 MLOAD SWAP3 DUP4 DUP3 MSTORE PUSH1 0x0 JUMPDEST DUP5 DUP2 LT PUSH2 0x6D6 JUMPI POP POP DUP3 PUSH1 0x0 PUSH1 0x20 DUP1 SWAP5 SWAP6 DUP5 ADD ADD MSTORE PUSH1 0x1F DUP1 NOT SWAP2 ADD AND ADD ADD SWAP1 JUMP JUMPDEST PUSH1 0x20 DUP2 DUP4 ADD DUP2 ADD MLOAD DUP5 DUP4 ADD DUP3 ADD MSTORE ADD PUSH2 0x6B5 JUMP JUMPDEST SWAP1 PUSH1 0x1 DUP3 DUP2 SHR SWAP3 AND DUP1 ISZERO PUSH2 0x71A JUMPI JUMPDEST PUSH1 0x20 DUP4 LT EQ PUSH2 0x704 JUMPI JUMP JUMPDEST PUSH4 0x4E487B71 PUSH1 0xE0 SHL PUSH1 0x0 MSTORE PUSH1 0x22 PUSH1 0x4 MSTORE PUSH1 0x24 PUSH1 0x0 REVERT JUMPDEST SWAP2 PUSH1 0x7F AND SWAP2 PUSH2 0x6F9 JUMP JUMPDEST SWAP1 PUSH1 0x1F DUP1 NOT SWAP2 ADD AND DUP2 ADD SWAP1 DUP2 LT PUSH8 0xFFFFFFFFFFFFFFFF DUP3 GT OR PUSH2 0x746 JUMPI PUSH1 0x40 MSTORE JUMP JUMPDEST PUSH4 0x4E487B71 PUSH1 0xE0 SHL PUSH1 0x0 MSTORE PUSH1 0x41 PUSH1 0x4 MSTORE PUSH1 0x24 PUSH1 0x0 REVERT JUMPDEST DUP2 PUSH1 0x1F DUP3 ADD SLT ISZERO PUSH2 0x7B3 JUMPI DUP1 CALLDATALOAD SWAP1 PUSH8 0xFFFFFFFFFFFFFFFF DUP3 GT PUSH2 0x746 JUMPI PUSH1 0x40 MLOAD SWAP3 PUSH2 0x791 PUSH1 0x1F DUP5 ADD PUSH1 0x1F NOT AND PUSH1 0x20 ADD DUP6 PUSH2 0x724 JUMP JUMPDEST DUP3 DUP5 MSTORE PUSH1 0x20 DUP4 DUP4 ADD ADD GT PUSH2 0x7B3 JUMPI DUP2 PUSH1 0x0 SWAP3 PUSH1 0x20 DUP1 SWAP4 ADD DUP4 DUP7 ADD CALLDATACOPY DUP4 ADD ADD MSTORE SWAP1 JUMP JUMPDEST PUSH1 0x0 DUP1 REVERT INVALID 0x29 0xD 0xEC 0xD9 SLOAD DUP12 PUSH3 0xA8D603 GASLIMIT 0xA9 DUP9 CODESIZE PUSH16 0xC84BA6BC95484008F6362F93160EF3E5 PUSH4 0xB10E2D52 PUSH23 0x12073B26EECDFD717E6A320CF44B4AFAC2B0732D9FCBE2 0xB7 STATICCALL 0xC 0xF6 LOG2 PUSH5 0x6970667358 0x22 SLT KECCAK256 PUSH17 0x1E0716DECE89BE5B178C82E95C86BD8523 SIGNEXTEND SUB BALANCE 0xC9 0x2B PUSH21 0xA99700B1C21154C964736F6C634300081400330000 "},"methodIdentifiers":{"activate(string,string)":"bf0058d0","activated()":"186601ca","echoSanctum()":"75aee6df","genesisMessage()":"bba80ad3","nodeName()":"a6edb342"}}}}}