{"contracts/mocks/MockPropulsion.sol":{"MockPropulsion":{"abi":[{"inputs":[],"name":"called","outputs":[{"internalType":"bool","name":"","type":"bool"}],"stateMutability":"view","type":"function"},{"inputs":[],"name":"recalibrate","outputs":[],"stateMutability":"nonpayable","type":"function"}],"evm":{"bytecode":{"linkReferences":{},"object":"6080806040523460145760aa908161001a8239f35b600080fdfe6080806040526004361015601257600080fd5b600090813560e01c90816350f9b6cd146053575063fa31ecd014603457600080fd5b3460505780600319360112605057805460ff1916600117815580f35b80fd5b9050346070578160031936011260705760ff602092541615158152f35b5080fdfea2646970667358221220adb8e312319687599fb1ac8c0027805cf675cf85d7fe67cac297cc829b17349164736f6c63430008140033","opcodes":"PUSH1 0x80 DUP1 PUSH1 0x40 MSTORE CALLVALUE PUSH1 0x14 JUMPI PUSH1 0xAA SWAP1 DUP2 PUSH2 0x1A DUP3 CODECOPY RETURN JUMPDEST PUSH1 0x0 DUP1 REVERT INVALID PUSH1 0x80 DUP1 PUSH1 0x40 MSTORE PUSH1 0x4 CALLDATASIZE LT ISZERO PUSH1 0x12 JUMPI PUSH1 0x0 DUP1 REVERT JUMPDEST PUSH1 0x0 SWAP1 DUP2 CALLDATALOAD PUSH1 0xE0 SHR SWAP1 DUP2 PUSH4 0x50F9B6CD EQ PUSH1 0x53 JUMPI POP PUSH4 0xFA31ECD0 EQ PUSH1 0x34 JUMPI PUSH1 0x0 DUP1 REVERT JUMPDEST CALLVALUE PUSH1 0x50 JUMPI DUP1 PUSH1 0x3 NOT CALLDATASIZE ADD SLT PUSH1 0x50 JUMPI DUP1 SLOAD PUSH1 0xFF NOT AND PUSH1 0x1 OR DUP2 SSTORE DUP1 RETURN JUMPDEST DUP1 REVERT JUMPDEST SWAP1 POP CALLVALUE PUSH1 0x70 JUMPI DUP2 PUSH1 0x3 NOT CALLDATASIZE ADD SLT PUSH1 0x70 JUMPI PUSH1 0xFF PUSH1 0x20 SWAP3 SLOAD AND ISZERO ISZERO DUP2 MSTORE RETURN JUMPDEST POP DUP1 REVERT INVALID LOG2 PUSH5 0x6970667358 0x22 SLT KECCAK256 0xAD 0xB8 0xE3 SLT BALANCE SWAP7 DUP8 MSIZE SWAP16 0xB1 0xAC DUP13 STOP 0x27 DUP1 0x5C 0xF6 PUSH22 0xCF85D7FE67CAC297CC829B17349164736F6C63430008 EQ STOP CALLER "},"methodIdentifiers":{"called()":"50f9b6cd","recalibrate()":"fa31ecd0"}}}}}