{"contracts/skycity/SkyPulse.sol":{"SkyPulse":{"abi":[{"inputs":[],"stateMutability":"nonpayable","type":"constructor"},{"anonymous":false,"inputs":[{"indexed":false,"internalType":"string","name":"city","type":"string"},{"indexed":false,"internalType":"uint256","name":"altitude","type":"uint256"},{"indexed":false,"internalType":"uint256","name":"frequency","type":"uint256"}],"name":"PulseBound","type":"event"},{"inputs":[{"internalType":"string","name":"city","type":"string"},{"internalType":"uint256","name":"altitude","type":"uint256"},{"internalType":"uint256","name":"frequency","type":"uint256"}],"name":"bindPulse","outputs":[],"stateMutability":"nonpayable","type":"function"},{"inputs":[{"internalType":"uint256","name":"","type":"uint256"}],"name":"cityKeys","outputs":[{"internalType":"string","name":"","type":"string"}],"stateMutability":"view","type":"function"},{"inputs":[{"internalType":"string","name":"city","type":"string"}],"name":"getPulse","outputs":[{"internalType":"uint256","name":"","type":"uint256"},{"internalType":"uint256","name":"","type":"uint256"}],"stateMutability":"view","type":"function"},{"inputs":[{"internalType":"string","name":"","type":"string"}],"name":"pulses","outputs":[{"internalType":"string","name":"city","type":"string"},{"internalType":"uint256","name":"altitude","type":"uint256"},{"internalType":"uint256","name":"frequency","type":"uint256"}],"stateMutability":"view","type":"function"},{"inputs":[],"name":"steward","outputs":[{"internalType":"address","name":"","type":"address"}],"stateMutability":"view","type":"function"},{"inputs":[],"name":"totalPulses","outputs":[{"internalType":"uint256","name":"","type":"uint256"}],"stateMutability":"view","type":"function"}],"evm":{"bytecode":{"linkReferences":{},"object":"6080806040523461002857600080546001600160a01b03191633179055610835908161002e8239f35b600080fdfe608060408181526004918236101561001657600080fd5b600090813560e01c908163637eea191461054457508063662c1fc61461020d578063873767a4146101a957806393e56b0914610127578063db443ff4146101045763f0d4966c1461006657600080fd5b346101015760203660031901126101015782359067ffffffffffffffff82116101015736602383011215610101575060206100b06100f4948360246100c295369301359101610764565b8184519382858094519384920161071c565b810160018152030190206100d581610676565b916002600183015492015490805194859460608652606086019061073f565b9260208501528301520390f35b80fd5b5090346101235781600319360112610123576020906002549051908152f35b5080fd5b508290346101015760203660031901126101015781359067ffffffffffffffff8211610101575060209161015d91369101610568565b919082845193849283378101600181520301902081805161017d81610622565b61018683610676565b815260026001840154938460208401520154918291015282519182526020820152f35b5034610101576020366003190112610101578235600254811015610123576101d09061059b565b9390936101fb576101f7836101e486610676565b905191829160208352602083019061073f565b0390f35b634e487b7160e01b8252819052602490fd5b5091346105405760603660031901126105405767ffffffffffffffff90803582811161053c576102409036908301610568565b8554909491936044359360248035939192916001600160a01b0316330361050c5784519061026d82610622565b610278368a8a610764565b825260209384830192868452878101938985528851948c8c87378c86019588816001988981520301902092519182518881116104f9578f6102c3826102bd88546105e8565b886107ab565b8a90601f831160011461049657906002958361048b575b5050600019600383901b1c191690881b1784555b5186840155519101556002546801000000000000000081101561047957808461031a920160025561059b565b949094610468578a1161045757505061033d8861033784546105e8565b846107ab565b8889601f8a116001146103ce57928980809a98959460809a97947f0c75fbb0c83807bfa87cd1a1737f2b2d7e2416c65347755ba2db8021ef828a869d9996936103c3575b501b906000198860031b1c19161790555b8251978896606088528160608901528888013785850187018a9052850152830152601f01601f19168101030190a180f35b8a0135925038610381565b50828a52838a2090601f198a168b5b81811061044257509260809895928b9a9895928b7f0c75fbb0c83807bfa87cd1a1737f2b2d7e2416c65347755ba2db8021ef828a869d999610610428575b505086811b019055610392565b89013560001960038a901b60f8161c19169055388061041b565b8a8301358455928401929186019186016103dd565b634e487b7160e01b8b526041905289fd5b50634e487b7160e01b8b528a905289fd5b50634e487b7160e01b8b526041905289fd5b0151905038806102da565b899291601f1983168883528d80842093905b8282106104e25750509683600298106104c9575b505050811b0184556102ee565b015160001960f88460031b161c191690553880806104bc565b838a015185558d969094019392830192018e6104a8565b50634e487b7160e01b8f5260418552858ffd5b82600b606492602088519362461bcd60e51b85528401528201526a139bdd081cdd195dd85c9960aa1b6044820152fd5b8480fd5b8280fd5b90503461012357816003193601126101235790546001600160a01b03168152602090f35b9181601f840112156105965782359167ffffffffffffffff8311610596576020838186019501011161059657565b600080fd5b6002548110156105d25760026000527f405787fa12a823e0f2b7631cc41b3ba8828b3321ca811111fa75cd3aa3bb5ace0190600090565b634e487b7160e01b600052603260045260246000fd5b90600182811c92168015610618575b602083101461060257565b634e487b7160e01b600052602260045260246000fd5b91607f16916105f7565b6060810190811067ffffffffffffffff82111761063e57604052565b634e487b7160e01b600052604160045260246000fd5b90601f8019910116810190811067ffffffffffffffff82111761063e57604052565b906040519182600082549261068a846105e8565b9081845260019485811690816000146106f957506001146106b6575b50506106b492500383610654565b565b9093915060005260209081600020936000915b8183106106e15750506106b4935082010138806106a6565b855488840185015294850194879450918301916106c9565b9150506106b494506020925060ff191682840152151560051b82010138806106a6565b60005b83811061072f5750506000910152565b818101518382015260200161071f565b906020916107588151809281855285808601910161071c565b601f01601f1916010190565b92919267ffffffffffffffff821161063e576040519161078e601f8201601f191660200184610654565b829481845281830111610596578281602093846000960137010152565b90601f81116107b957505050565b600091825260208220906020601f850160051c830194106107f5575b601f0160051c01915b8281106107ea57505050565b8181556001016107de565b90925082906107d556fea26469706673582212200404e05a178a7fdba777f1db6d3e04b577cb2e83413ab45c781b0843d3f4331c64736f6c63430008140033","opcodes":"PUSH1 0x80 DUP1 PUSH1 0x40 MSTORE CALLVALUE PUSH2 0x28 JUMPI PUSH1 0x0 DUP1 SLOAD PUSH1 0x1 PUSH1 0x1 PUSH1 0xA0 SHL SUB NOT AND CALLER OR SWAP1 SSTORE PUSH2 0x835 SWAP1 DUP2 PUSH2 0x2E DUP3 CODECOPY RETURN JUMPDEST PUSH1 0x0 DUP1 REVERT INVALID PUSH1 0x80 PUSH1 0x40 DUP2 DUP2 MSTORE PUSH1 0x4 SWAP2 DUP3 CALLDATASIZE LT ISZERO PUSH2 0x16 JUMPI PUSH1 0x0 DUP1 REVERT JUMPDEST PUSH1 0x0 SWAP1 DUP2 CALLDATALOAD PUSH1 0xE0 SHR SWAP1 DUP2 PUSH4 0x637EEA19 EQ PUSH2 0x544 JUMPI POP DUP1 PUSH4 0x662C1FC6 EQ PUSH2 0x20D JUMPI DUP1 PUSH4 0x873767A4 EQ PUSH2 0x1A9 JUMPI DUP1 PUSH4 0x93E56B09 EQ PUSH2 0x127 JUMPI DUP1 PUSH4 0xDB443FF4 EQ PUSH2 0x104 JUMPI PUSH4 0xF0D4966C EQ PUSH2 0x66 JUMPI PUSH1 0x0 DUP1 REVERT JUMPDEST CALLVALUE PUSH2 0x101 JUMPI PUSH1 0x20 CALLDATASIZE PUSH1 0x3 NOT ADD SLT PUSH2 0x101 JUMPI DUP3 CALLDATALOAD SWAP1 PUSH8 0xFFFFFFFFFFFFFFFF DUP3 GT PUSH2 0x101 JUMPI CALLDATASIZE PUSH1 0x23 DUP4 ADD SLT ISZERO PUSH2 0x101 JUMPI POP PUSH1 0x20 PUSH2 0xB0 PUSH2 0xF4 SWAP5 DUP4 PUSH1 0x24 PUSH2 0xC2 SWAP6 CALLDATASIZE SWAP4 ADD CALLDATALOAD SWAP2 ADD PUSH2 0x764 JUMP JUMPDEST DUP2 DUP5 MLOAD SWAP4 DUP3 DUP6 DUP1 SWAP5 MLOAD SWAP4 DUP5 SWAP3 ADD PUSH2 0x71C JUMP JUMPDEST DUP2 ADD PUSH1 0x1 DUP2 MSTORE SUB ADD SWAP1 KECCAK256 PUSH2 0xD5 DUP2 PUSH2 0x676 JUMP JUMPDEST SWAP2 PUSH1 0x2 PUSH1 0x1 DUP4 ADD SLOAD SWAP3 ADD SLOAD SWAP1 DUP1 MLOAD SWAP5 DUP6 SWAP5 PUSH1 0x60 DUP7 MSTORE PUSH1 0x60 DUP7 ADD SWAP1 PUSH2 0x73F JUMP JUMPDEST SWAP3 PUSH1 0x20 DUP6 ADD MSTORE DUP4 ADD MSTORE SUB SWAP1 RETURN JUMPDEST DUP1 REVERT JUMPDEST POP SWAP1 CALLVALUE PUSH2 0x123 JUMPI DUP2 PUSH1 0x3 NOT CALLDATASIZE ADD SLT PUSH2 0x123 JUMPI PUSH1 0x20 SWAP1 PUSH1 0x2 SLOAD SWAP1 MLOAD SWAP1 DUP2 MSTORE RETURN JUMPDEST POP DUP1 REVERT JUMPDEST POP DUP3 SWAP1 CALLVALUE PUSH2 0x101 JUMPI PUSH1 0x20 CALLDATASIZE PUSH1 0x3 NOT ADD SLT PUSH2 0x101 JUMPI DUP2 CALLDATALOAD SWAP1 PUSH8 0xFFFFFFFFFFFFFFFF DUP3 GT PUSH2 0x101 JUMPI POP PUSH1 0x20 SWAP2 PUSH2 0x15D SWAP2 CALLDATASIZE SWAP2 ADD PUSH2 0x568 JUMP JUMPDEST SWAP2 SWAP1 DUP3 DUP5 MLOAD SWAP4 DUP5 SWAP3 DUP4 CALLDATACOPY DUP2 ADD PUSH1 0x1 DUP2 MSTORE SUB ADD SWAP1 KECCAK256 DUP2 DUP1 MLOAD PUSH2 0x17D DUP2 PUSH2 0x622 JUMP JUMPDEST PUSH2 0x186 DUP4 PUSH2 0x676 JUMP JUMPDEST DUP2 MSTORE PUSH1 0x2 PUSH1 0x1 DUP5 ADD SLOAD SWAP4 DUP5 PUSH1 0x20 DUP5 ADD MSTORE ADD SLOAD SWAP2 DUP3 SWAP2 ADD MSTORE DUP3 MLOAD SWAP2 DUP3 MSTORE PUSH1 0x20 DUP3 ADD MSTORE RETURN JUMPDEST POP CALLVALUE PUSH2 0x101 JUMPI PUSH1 0x20 CALLDATASIZE PUSH1 0x3 NOT ADD SLT PUSH2 0x101 JUMPI DUP3 CALLDATALOAD PUSH1 0x2 SLOAD DUP2 LT ISZERO PUSH2 0x123 JUMPI PUSH2 0x1D0 SWAP1 PUSH2 0x59B JUMP JUMPDEST SWAP4 SWAP1 SWAP4 PUSH2 0x1FB JUMPI PUSH2 0x1F7 DUP4 PUSH2 0x1E4 DUP7 PUSH2 0x676 JUMP JUMPDEST SWAP1 MLOAD SWAP2 DUP3 SWAP2 PUSH1 0x20 DUP4 MSTORE PUSH1 0x20 DUP4 ADD SWAP1 PUSH2 0x73F JUMP JUMPDEST SUB SWAP1 RETURN JUMPDEST PUSH4 0x4E487B71 PUSH1 0xE0 SHL DUP3 MSTORE DUP2 SWAP1 MSTORE PUSH1 0x24 SWAP1 REVERT JUMPDEST POP SWAP2 CALLVALUE PUSH2 0x540 JUMPI PUSH1 0x60 CALLDATASIZE PUSH1 0x3 NOT ADD SLT PUSH2 0x540 JUMPI PUSH8 0xFFFFFFFFFFFFFFFF SWAP1 DUP1 CALLDATALOAD DUP3 DUP2 GT PUSH2 0x53C JUMPI PUSH2 0x240 SWAP1 CALLDATASIZE SWAP1 DUP4 ADD PUSH2 0x568 JUMP JUMPDEST DUP6 SLOAD SWAP1 SWAP5 SWAP2 SWAP4 PUSH1 0x44 CALLDATALOAD SWAP4 PUSH1 0x24 DUP1 CALLDATALOAD SWAP4 SWAP2 SWAP3 SWAP2 PUSH1 0x1 PUSH1 0x1 PUSH1 0xA0 SHL SUB AND CALLER SUB PUSH2 0x50C JUMPI DUP5 MLOAD SWAP1 PUSH2 0x26D DUP3 PUSH2 0x622 JUMP JUMPDEST PUSH2 0x278 CALLDATASIZE DUP11 DUP11 PUSH2 0x764 JUMP JUMPDEST DUP3 MSTORE PUSH1 0x20 SWAP4 DUP5 DUP4 ADD SWAP3 DUP7 DUP5 MSTORE DUP8 DUP2 ADD SWAP4 DUP10 DUP6 MSTORE DUP9 MLOAD SWAP5 DUP13 DUP13 DUP8 CALLDATACOPY DUP13 DUP7 ADD SWAP6 DUP9 DUP2 PUSH1 0x1 SWAP9 DUP10 DUP2 MSTORE SUB ADD SWAP1 KECCAK256 SWAP3 MLOAD SWAP2 DUP3 MLOAD DUP9 DUP2 GT PUSH2 0x4F9 JUMPI DUP16 PUSH2 0x2C3 DUP3 PUSH2 0x2BD DUP9 SLOAD PUSH2 0x5E8 JUMP JUMPDEST DUP9 PUSH2 0x7AB JUMP JUMPDEST DUP11 SWAP1 PUSH1 0x1F DUP4 GT PUSH1 0x1 EQ PUSH2 0x496 JUMPI SWAP1 PUSH1 0x2 SWAP6 DUP4 PUSH2 0x48B JUMPI JUMPDEST POP POP PUSH1 0x0 NOT PUSH1 0x3 DUP4 SWAP1 SHL SHR NOT AND SWAP1 DUP9 SHL OR DUP5 SSTORE JUMPDEST MLOAD DUP7 DUP5 ADD SSTORE MLOAD SWAP2 ADD SSTORE PUSH1 0x2 SLOAD PUSH9 0x10000000000000000 DUP2 LT ISZERO PUSH2 0x479 JUMPI DUP1 DUP5 PUSH2 0x31A SWAP3 ADD PUSH1 0x2 SSTORE PUSH2 0x59B JUMP JUMPDEST SWAP5 SWAP1 SWAP5 PUSH2 0x468 JUMPI DUP11 GT PUSH2 0x457 JUMPI POP POP PUSH2 0x33D DUP9 PUSH2 0x337 DUP5 SLOAD PUSH2 0x5E8 JUMP JUMPDEST DUP5 PUSH2 0x7AB JUMP JUMPDEST DUP9 DUP10 PUSH1 0x1F DUP11 GT PUSH1 0x1 EQ PUSH2 0x3CE JUMPI SWAP3 DUP10 DUP1 DUP1 SWAP11 SWAP9 SWAP6 SWAP5 PUSH1 0x80 SWAP11 SWAP8 SWAP5 PUSH32 0xC75FBB0C83807BFA87CD1A1737F2B2D7E2416C65347755BA2DB8021EF828A86 SWAP14 SWAP10 SWAP7 SWAP4 PUSH2 0x3C3 JUMPI JUMPDEST POP SHL SWAP1 PUSH1 0x0 NOT DUP9 PUSH1 0x3 SHL SHR NOT AND OR SWAP1 SSTORE JUMPDEST DUP3 MLOAD SWAP8 DUP9 SWAP7 PUSH1 0x60 DUP9 MSTORE DUP2 PUSH1 0x60 DUP10 ADD MSTORE DUP9 DUP9 ADD CALLDATACOPY DUP6 DUP6 ADD DUP8 ADD DUP11 SWAP1 MSTORE DUP6 ADD MSTORE DUP4 ADD MSTORE PUSH1 0x1F ADD PUSH1 0x1F NOT AND DUP2 ADD SUB ADD SWAP1 LOG1 DUP1 RETURN JUMPDEST DUP11 ADD CALLDATALOAD SWAP3 POP CODESIZE PUSH2 0x381 JUMP JUMPDEST POP DUP3 DUP11 MSTORE DUP4 DUP11 KECCAK256 SWAP1 PUSH1 0x1F NOT DUP11 AND DUP12 JUMPDEST DUP2 DUP2 LT PUSH2 0x442 JUMPI POP SWAP3 PUSH1 0x80 SWAP9 SWAP6 SWAP3 DUP12 SWAP11 SWAP9 SWAP6 SWAP3 DUP12 PUSH32 0xC75FBB0C83807BFA87CD1A1737F2B2D7E2416C65347755BA2DB8021EF828A86 SWAP14 SWAP10 SWAP7 LT PUSH2 0x428 JUMPI JUMPDEST POP POP DUP7 DUP2 SHL ADD SWAP1 SSTORE PUSH2 0x392 JUMP JUMPDEST DUP10 ADD CALLDATALOAD PUSH1 0x0 NOT PUSH1 0x3 DUP11 SWAP1 SHL PUSH1 0xF8 AND SHR NOT AND SWAP1 SSTORE CODESIZE DUP1 PUSH2 0x41B JUMP JUMPDEST DUP11 DUP4 ADD CALLDATALOAD DUP5 SSTORE SWAP3 DUP5 ADD SWAP3 SWAP2 DUP7 ADD SWAP2 DUP7 ADD PUSH2 0x3DD JUMP JUMPDEST PUSH4 0x4E487B71 PUSH1 0xE0 SHL DUP12 MSTORE PUSH1 0x41 SWAP1 MSTORE DUP10 REVERT JUMPDEST POP PUSH4 0x4E487B71 PUSH1 0xE0 SHL DUP12 MSTORE DUP11 SWAP1 MSTORE DUP10 REVERT JUMPDEST POP PUSH4 0x4E487B71 PUSH1 0xE0 SHL DUP12 MSTORE PUSH1 0x41 SWAP1 MSTORE DUP10 REVERT JUMPDEST ADD MLOAD SWAP1 POP CODESIZE DUP1 PUSH2 0x2DA JUMP JUMPDEST DUP10 SWAP3 SWAP2 PUSH1 0x1F NOT DUP4 AND DUP9 DUP4 MSTORE DUP14 DUP1 DUP5 KECCAK256 SWAP4 SWAP1 JUMPDEST DUP3 DUP3 LT PUSH2 0x4E2 JUMPI POP POP SWAP7 DUP4 PUSH1 0x2 SWAP9 LT PUSH2 0x4C9 JUMPI JUMPDEST POP POP POP DUP2 SHL ADD DUP5 SSTORE PUSH2 0x2EE JUMP JUMPDEST ADD MLOAD PUSH1 0x0 NOT PUSH1 0xF8 DUP5 PUSH1 0x3 SHL AND SHR NOT AND SWAP1 SSTORE CODESIZE DUP1 DUP1 PUSH2 0x4BC JUMP JUMPDEST DUP4 DUP11 ADD MLOAD DUP6 SSTORE DUP14 SWAP7 SWAP1 SWAP5 ADD SWAP4 SWAP3 DUP4 ADD SWAP3 ADD DUP15 PUSH2 0x4A8 JUMP JUMPDEST POP PUSH4 0x4E487B71 PUSH1 0xE0 SHL DUP16 MSTORE PUSH1 0x41 DUP6 MSTORE DUP6 DUP16 REVERT JUMPDEST DUP3 PUSH1 0xB PUSH1 0x64 SWAP3 PUSH1 0x20 DUP9 MLOAD SWAP4 PUSH3 0x461BCD PUSH1 0xE5 SHL DUP6 MSTORE DUP5 ADD MSTORE DUP3 ADD MSTORE PUSH11 0x139BDD081CDD195DD85C99 PUSH1 0xAA SHL PUSH1 0x44 DUP3 ADD MSTORE REVERT JUMPDEST DUP5 DUP1 REVERT JUMPDEST DUP3 DUP1 REVERT JUMPDEST SWAP1 POP CALLVALUE PUSH2 0x123 JUMPI DUP2 PUSH1 0x3 NOT CALLDATASIZE ADD SLT PUSH2 0x123 JUMPI SWAP1 SLOAD PUSH1 0x1 PUSH1 0x1 PUSH1 0xA0 SHL SUB AND DUP2 MSTORE PUSH1 0x20 SWAP1 RETURN JUMPDEST SWAP2 DUP2 PUSH1 0x1F DUP5 ADD SLT ISZERO PUSH2 0x596 JUMPI DUP3 CALLDATALOAD SWAP2 PUSH8 0xFFFFFFFFFFFFFFFF DUP4 GT PUSH2 0x596 JUMPI PUSH1 0x20 DUP4 DUP2 DUP7 ADD SWAP6 ADD ADD GT PUSH2 0x596 JUMPI JUMP JUMPDEST PUSH1 0x0 DUP1 REVERT JUMPDEST PUSH1 0x2 SLOAD DUP2 LT ISZERO PUSH2 0x5D2 JUMPI PUSH1 0x2 PUSH1 0x0 MSTORE PUSH32 0x405787FA12A823E0F2B7631CC41B3BA8828B3321CA811111FA75CD3AA3BB5ACE ADD SWAP1 PUSH1 0x0 SWAP1 JUMP JUMPDEST PUSH4 0x4E487B71 PUSH1 0xE0 SHL PUSH1 0x0 MSTORE PUSH1 0x32 PUSH1 0x4 MSTORE PUSH1 0x24 PUSH1 0x0 REVERT JUMPDEST SWAP1 PUSH1 0x1 DUP3 DUP2 SHR SWAP3 AND DUP1 ISZERO PUSH2 0x618 JUMPI JUMPDEST PUSH1 0x20 DUP4 LT EQ PUSH2 0x602 JUMPI JUMP JUMPDEST PUSH4 0x4E487B71 PUSH1 0xE0 SHL PUSH1 0x0 MSTORE PUSH1 0x22 PUSH1 0x4 MSTORE PUSH1 0x24 PUSH1 0x0 REVERT JUMPDEST SWAP2 PUSH1 0x7F AND SWAP2 PUSH2 0x5F7 JUMP JUMPDEST PUSH1 0x60 DUP2 ADD SWAP1 DUP2 LT PUSH8 0xFFFFFFFFFFFFFFFF DUP3 GT OR PUSH2 0x63E JUMPI PUSH1 0x40 MSTORE JUMP JUMPDEST PUSH4 0x4E487B71 PUSH1 0xE0 SHL PUSH1 0x0 MSTORE PUSH1 0x41 PUSH1 0x4 MSTORE PUSH1 0x24 PUSH1 0x0 REVERT JUMPDEST SWAP1 PUSH1 0x1F DUP1 NOT SWAP2 ADD AND DUP2 ADD SWAP1 DUP2 LT PUSH8 0xFFFFFFFFFFFFFFFF DUP3 GT OR PUSH2 0x63E JUMPI PUSH1 0x40 MSTORE JUMP JUMPDEST SWAP1 PUSH1 0x40 MLOAD SWAP2 DUP3 PUSH1 0x0 DUP3 SLOAD SWAP3 PUSH2 0x68A DUP5 PUSH2 0x5E8 JUMP JUMPDEST SWAP1 DUP2 DUP5 MSTORE PUSH1 0x1 SWAP5 DUP6 DUP2 AND SWAP1 DUP2 PUSH1 0x0 EQ PUSH2 0x6F9 JUMPI POP PUSH1 0x1 EQ PUSH2 0x6B6 JUMPI JUMPDEST POP POP PUSH2 0x6B4 SWAP3 POP SUB DUP4 PUSH2 0x654 JUMP JUMPDEST JUMP JUMPDEST SWAP1 SWAP4 SWAP2 POP PUSH1 0x0 MSTORE PUSH1 0x20 SWAP1 DUP2 PUSH1 0x0 KECCAK256 SWAP4 PUSH1 0x0 SWAP2 JUMPDEST DUP2 DUP4 LT PUSH2 0x6E1 JUMPI POP POP PUSH2 0x6B4 SWAP4 POP DUP3 ADD ADD CODESIZE DUP1 PUSH2 0x6A6 JUMP JUMPDEST DUP6 SLOAD DUP9 DUP5 ADD DUP6 ADD MSTORE SWAP5 DUP6 ADD SWAP5 DUP8 SWAP5 POP SWAP2 DUP4 ADD SWAP2 PUSH2 0x6C9 JUMP JUMPDEST SWAP2 POP POP PUSH2 0x6B4 SWAP5 POP PUSH1 0x20 SWAP3 POP PUSH1 0xFF NOT AND DUP3 DUP5 ADD MSTORE ISZERO ISZERO PUSH1 0x5 SHL DUP3 ADD ADD CODESIZE DUP1 PUSH2 0x6A6 JUMP JUMPDEST PUSH1 0x0 JUMPDEST DUP4 DUP2 LT PUSH2 0x72F JUMPI POP POP PUSH1 0x0 SWAP2 ADD MSTORE JUMP JUMPDEST DUP2 DUP2 ADD MLOAD DUP4 DUP3 ADD MSTORE PUSH1 0x20 ADD PUSH2 0x71F JUMP JUMPDEST SWAP1 PUSH1 0x20 SWAP2 PUSH2 0x758 DUP2 MLOAD DUP1 SWAP3 DUP2 DUP6 MSTORE DUP6 DUP1 DUP7 ADD SWAP2 ADD PUSH2 0x71C JUMP JUMPDEST PUSH1 0x1F ADD PUSH1 0x1F NOT AND ADD ADD SWAP1 JUMP JUMPDEST SWAP3 SWAP2 SWAP3 PUSH8 0xFFFFFFFFFFFFFFFF DUP3 GT PUSH2 0x63E JUMPI PUSH1 0x40 MLOAD SWAP2 PUSH2 0x78E PUSH1 0x1F DUP3 ADD PUSH1 0x1F NOT AND PUSH1 0x20 ADD DUP5 PUSH2 0x654 JUMP JUMPDEST DUP3 SWAP5 DUP2 DUP5 MSTORE DUP2 DUP4 ADD GT PUSH2 0x596 JUMPI DUP3 DUP2 PUSH1 0x20 SWAP4 DUP5 PUSH1 0x0 SWAP7 ADD CALLDATACOPY ADD ADD MSTORE JUMP JUMPDEST SWAP1 PUSH1 0x1F DUP2 GT PUSH2 0x7B9 JUMPI POP POP POP JUMP JUMPDEST PUSH1 0x0 SWAP2 DUP3 MSTORE PUSH1 0x20 DUP3 KECCAK256 SWAP1 PUSH1 0x20 PUSH1 0x1F DUP6 ADD PUSH1 0x5 SHR DUP4 ADD SWAP5 LT PUSH2 0x7F5 JUMPI JUMPDEST PUSH1 0x1F ADD PUSH1 0x5 SHR ADD SWAP2 JUMPDEST DUP3 DUP2 LT PUSH2 0x7EA JUMPI POP POP POP JUMP JUMPDEST DUP2 DUP2 SSTORE PUSH1 0x1 ADD PUSH2 0x7DE JUMP JUMPDEST SWAP1 SWAP3 POP DUP3 SWAP1 PUSH2 0x7D5 JUMP INVALID LOG2 PUSH5 0x6970667358 0x22 SLT KECCAK256 DIV DIV 0xE0 GAS OR DUP11 PUSH32 0xDBA777F1DB6D3E04B577CB2E83413AB45C781B0843D3F4331C64736F6C634300 ADDMOD EQ STOP CALLER "},"methodIdentifiers":{"bindPulse(string,uint256,uint256)":"662c1fc6","cityKeys(uint256)":"873767a4","getPulse(string)":"93e56b09","pulses(string)":"f0d4966c","steward()":"637eea19","totalPulses()":"db443ff4"}}}}}