{"contracts/orbital/OrbitalSanctum.sol":{"OrbitalSanctum":{"abi":[{"inputs":[{"internalType":"address","name":"_daemon","type":"address"}],"stateMutability":"nonpayable","type":"constructor"},{"anonymous":false,"inputs":[{"indexed":true,"internalType":"address","name":"from","type":"address"},{"indexed":true,"internalType":"address","name":"daemon","type":"address"}],"name":"OrbitalPing","type":"event"},{"inputs":[],"name":"daemon","outputs":[{"internalType":"address","name":"","type":"address"}],"stateMutability":"view","type":"function"},{"inputs":[],"name":"ping","outputs":[],"stateMutability":"nonpayable","type":"function"}],"evm":{"bytecode":{"linkReferences":{},"object":"60803461007357601f61016338819003918201601f19168301916001600160401b038311848410176100785780849260209460405283398101031261007357516001600160a01b0381169081900361007357600080546001600160a01b03191691909117905560405160d4908161008f8239f35b600080fd5b634e487b7160e01b600052604160045260246000fdfe6080806040526004361015601257600080fd5b600090813560e01c908163268519c01460785750635c36b18614603457600080fd5b346075578060031936011260755780546001600160a01b0316337fd62b80f4d36c24c4c254d29f09e912b538d0a891f74d19d911ed32e6c2938b4d8380a380f35b80fd5b905034609a5781600319360112609a5790546001600160a01b03168152602090f35b5080fdfea26469706673582212206e2201ad3507dde0e2f3de6fbaaf18fe667185903206233168e82474463a52ab64736f6c63430008140033","opcodes":"PUSH1 0x80 CALLVALUE PUSH2 0x73 JUMPI PUSH1 0x1F PUSH2 0x163 CODESIZE DUP2 SWAP1 SUB SWAP2 DUP3 ADD PUSH1 0x1F NOT AND DUP4 ADD SWAP2 PUSH1 0x1 PUSH1 0x1 PUSH1 0x40 SHL SUB DUP4 GT DUP5 DUP5 LT OR PUSH2 0x78 JUMPI DUP1 DUP5 SWAP3 PUSH1 0x20 SWAP5 PUSH1 0x40 MSTORE DUP4 CODECOPY DUP2 ADD SUB SLT PUSH2 0x73 JUMPI MLOAD PUSH1 0x1 PUSH1 0x1 PUSH1 0xA0 SHL SUB DUP2 AND SWAP1 DUP2 SWAP1 SUB PUSH2 0x73 JUMPI PUSH1 0x0 DUP1 SLOAD PUSH1 0x1 PUSH1 0x1 PUSH1 0xA0 SHL SUB NOT AND SWAP2 SWAP1 SWAP2 OR SWAP1 SSTORE PUSH1 0x40 MLOAD PUSH1 0xD4 SWAP1 DUP2 PUSH2 0x8F DUP3 CODECOPY RETURN JUMPDEST PUSH1 0x0 DUP1 REVERT JUMPDEST PUSH4 0x4E487B71 PUSH1 0xE0 SHL PUSH1 0x0 MSTORE PUSH1 0x41 PUSH1 0x4 MSTORE PUSH1 0x24 PUSH1 0x0 REVERT INVALID PUSH1 0x80 DUP1 PUSH1 0x40 MSTORE PUSH1 0x4 CALLDATASIZE LT ISZERO PUSH1 0x12 JUMPI PUSH1 0x0 DUP1 REVERT JUMPDEST PUSH1 0x0 SWAP1 DUP2 CALLDATALOAD PUSH1 0xE0 SHR SWAP1 DUP2 PUSH4 0x268519C0 EQ PUSH1 0x78 JUMPI POP PUSH4 0x5C36B186 EQ PUSH1 0x34 JUMPI PUSH1 0x0 DUP1 REVERT JUMPDEST CALLVALUE PUSH1 0x75 JUMPI DUP1 PUSH1 0x3 NOT CALLDATASIZE ADD SLT PUSH1 0x75 JUMPI DUP1 SLOAD PUSH1 0x1 PUSH1 0x1 PUSH1 0xA0 SHL SUB AND CALLER PUSH32 0xD62B80F4D36C24C4C254D29F09E912B538D0A891F74D19D911ED32E6C2938B4D DUP4 DUP1 LOG3 DUP1 RETURN JUMPDEST DUP1 REVERT JUMPDEST SWAP1 POP CALLVALUE PUSH1 0x9A JUMPI DUP2 PUSH1 0x3 NOT CALLDATASIZE ADD SLT PUSH1 0x9A JUMPI SWAP1 SLOAD PUSH1 0x1 PUSH1 0x1 PUSH1 0xA0 SHL SUB AND DUP2 MSTORE PUSH1 0x20 SWAP1 RETURN JUMPDEST POP DUP1 REVERT INVALID LOG2 PUSH5 0x6970667358 0x22 SLT KECCAK256 PUSH15 0x2201AD3507DDE0E2F3DE6FBAAF18FE PUSH7 0x71859032062331 PUSH9 0xE82474463A52AB6473 PUSH16 0x6C634300081400330000000000000000 "},"methodIdentifiers":{"daemon()":"268519c0","ping()":"5c36b186"}}}}}