{"contracts/codex/SpiralboundCodexV2.sol":{"SpiralboundCodexV2":{"abi":[{"inputs":[],"stateMutability":"nonpayable","type":"constructor"},{"anonymous":false,"inputs":[{"indexed":false,"internalType":"string","name":"glyph","type":"string"},{"indexed":false,"internalType":"string","name":"tag","type":"string"},{"indexed":false,"internalType":"string","name":"binding","type":"string"},{"indexed":false,"internalType":"string","name":"annotation","type":"string"}],"name":"CodexInscribed","type":"event"},{"inputs":[{"internalType":"string","name":"","type":"string"}],"name":"codices","outputs":[{"internalType":"string","name":"glyph","type":"string"},{"internalType":"string","name":"tag","type":"string"},{"internalType":"string","name":"binding","type":"string"},{"internalType":"string","name":"annotation","type":"string"}],"stateMutability":"view","type":"function"},{"inputs":[{"internalType":"string","name":"glyph","type":"string"}],"name":"getCodex","outputs":[{"internalType":"string","name":"","type":"string"},{"internalType":"string","name":"","type":"string"},{"internalType":"string","name":"","type":"string"}],"stateMutability":"view","type":"function"},{"inputs":[{"internalType":"string","name":"glyph","type":"string"},{"internalType":"string","name":"tag","type":"string"},{"internalType":"string","name":"binding","type":"string"},{"internalType":"string","name":"annotation","type":"string"}],"name":"inscribeCodex","outputs":[],"stateMutability":"nonpayable","type":"function"},{"inputs":[{"internalType":"uint256","name":"","type":"uint256"}],"name":"keys","outputs":[{"internalType":"string","name":"","type":"string"}],"stateMutability":"view","type":"function"},{"inputs":[],"name":"steward","outputs":[{"internalType":"address","name":"","type":"address"}],"stateMutability":"view","type":"function"},{"inputs":[],"name":"totalCodices","outputs":[{"internalType":"uint256","name":"","type":"uint256"}],"stateMutability":"view","type":"function"}],"evm":{"bytecode":{"linkReferences":{},"object":"6080806040523461002857600080546001600160a01b03191633179055610bb9908161002e8239f35b600080fdfe6080604052600436101561001257600080fd5b60003560e01c80630cb6aaf11461089f5780632650bb0c1461025f578063637eea19146102365780638336152214610162578063c212d16b146101445763dbc214241461005e57600080fd5b3461013f57602036600319011261013f576004356001600160401b03811161013f573660238201121561013f576100ba60206100a7610111933690602481600401359101610ac8565b8160405193828580945193849201610a53565b8101600181520301902061013b6100d0826109ad565b9161012d6100e0600183016109ad565b9161011f6100fc60036100f5600285016109ad565b93016109ad565b93604051978897608089526080890190610a76565b908782036020890152610a76565b908582036040870152610a76565b908382036060850152610a76565b0390f35b600080fd5b3461013f57600036600319011261013f576020600254604051908152f35b3461013f57602036600319011261013f576004356001600160401b03811161013f57602061019761021a923690600401610a9b565b91908260405193849283378101600181520301902061013b60606102286040516101c081610971565b6101c9856109ad565b81526101d7600186016109ad565b90602081019182526101fe60036101f0600289016109ad565b9760408401988952016109ad565b9384910152519351604051958695606087526060870190610a76565b908582036020870152610a76565b908382036040850152610a76565b3461013f57600036600319011261013f576000546040516001600160a01b039091168152602090f35b3461013f57608036600319011261013f576004356001600160401b03811161013f5761028f903690600401610a9b565b906024356001600160401b03811161013f576102af903690600401610a9b565b92906044356001600160401b03811161013f576102d0903690600401610a9b565b6064356001600160401b03811161013f576102ef903690600401610a9b565b60005491979094916001600160a01b0316330361086c5760405161031281610971565b61031d36888a610ac8565b815261032a368385610ac8565b602082015261033a368587610ac8565b604082015261034a36878b610ac8565b60608201526040518789823760208189810160018152030190209080518051906001600160401b03821161066457819061038e826103888754610937565b87610b0e565b602090601f8311600114610800576000926107f5575b50508160011b916000199060031b1c19161782555b60208101518051906001600160401b0382116106645781906103eb826103e26001880154610937565b60018801610b0e565b602090601f831160011461078357600092610778575b50508160011b916000199060031b1c19161760018301555b604081015180516001600160401b038111610664576002840191610447826104418554610937565b85610b0e565b602090601f831160011461070c5760609493929160009183610701575b50508160011b916000199060031b1c19161790555b0151908151906001600160401b038211610664576003829101926104a7826104a18654610937565b86610b0e565b602090601f831160011461069b57600092610690575b50508160011b916000199060031b1c19161790555b60025468010000000000000000811015610664578060016104f692016002556108ea565b61067a576001600160401b0387116106645761051c876105168354610937565b83610b0e565b6000601f88116001146105c9576105ab937ffed1942caf97e3c0da472c87fdb00c07a9569dcd7eb1d9836fce994a4032090d9a96936105b99896938a61059d946000916105be575b508b60011b906000198d60031b1c19161790555b61058f6040519b8c9b60808d5260808d0191610b62565b918a830360208c0152610b62565b918783036040890152610b62565b918483036060860152610b62565b0390a1005b90508c01358e610564565b8160005260206000209060005b601f198a16811061064c5750937ffed1942caf97e3c0da472c87fdb00c07a9569dcd7eb1d9836fce994a4032090d9a96936105b998969361059d938c6105ab988d601f19811610610632575b50505060018b811b019055610578565b013560001960038e901b60f8161c191690558d8c81610622565b9091602060018192858e0135815501930191016105d6565b634e487b7160e01b600052604160045260246000fd5b634e487b7160e01b600052600060045260246000fd5b015190508b806104bd565b6000858152602081209350601f198516905b8181106106e957509084600195949392106106d0575b505050811b0190556104d2565b015160001960f88460031b161c191690558b80806106c3565b929360206001819287860151815501950193016106ad565b015190508e80610464565b90601f198316918460005260206000209260005b818110610760575091600193918560609897969410610747575b505050811b019055610479565b015160001960f88460031b161c191690558e808061073a565b92936020600181928786015181550195019301610720565b015190508c80610401565b9250600185016000526020600020906000935b601f19841685106107da576001945083601f198116106107c1575b505050811b016001830155610419565b015160001960f88460031b161c191690558c80806107b1565b81810151835560209485019460019093019290910190610796565b015190508c806103a4565b9250846000526020600020906000935b601f1984168510610851576001945083601f19811610610838575b505050811b0182556103b9565b015160001960f88460031b161c191690558c808061082b565b81810151835560209485019460019093019290910190610810565b60405162461bcd60e51b815260206004820152600b60248201526a139bdd081cdd195dd85c9960aa1b6044820152606490fd5b3461013f57602036600319011261013f5760043560025481101561013f576108c6906108ea565b61067a576108d661013b916109ad565b604051918291602083526020830190610a76565b6002548110156109215760026000527f405787fa12a823e0f2b7631cc41b3ba8828b3321ca811111fa75cd3aa3bb5ace0190600090565b634e487b7160e01b600052603260045260246000fd5b90600182811c92168015610967575b602083101461095157565b634e487b7160e01b600052602260045260246000fd5b91607f1691610946565b608081019081106001600160401b0382111761066457604052565b90601f801991011681019081106001600160401b0382111761066457604052565b90604051918260008254926109c184610937565b908184526001948581169081600014610a3057506001146109ed575b50506109eb9250038361098c565b565b9093915060005260209081600020936000915b818310610a185750506109eb935082010138806109dd565b85548884018501529485019487945091830191610a00565b9150506109eb94506020925060ff191682840152151560051b82010138806109dd565b60005b838110610a665750506000910152565b8181015183820152602001610a56565b90602091610a8f81518092818552858086019101610a53565b601f01601f1916010190565b9181601f8401121561013f578235916001600160401b03831161013f576020838186019501011161013f57565b9291926001600160401b0382116106645760405191610af1601f8201601f19166020018461098c565b82948184528183011161013f578281602093846000960137010152565b90601f8111610b1c57505050565b600091825260208220906020601f850160051c83019410610b58575b601f0160051c01915b828110610b4d57505050565b818155600101610b41565b9092508290610b38565b908060209392818452848401376000828201840152601f01601f191601019056fea2646970667358221220913e40753bcafd3529231934b1f1a1c28b1891a82eb00d5afc06d7135f1bc88d64736f6c63430008140033","opcodes":"PUSH1 0x80 DUP1 PUSH1 0x40 MSTORE CALLVALUE PUSH2 0x28 JUMPI PUSH1 0x0 DUP1 SLOAD PUSH1 0x1 PUSH1 0x1 PUSH1 0xA0 SHL SUB NOT AND CALLER OR SWAP1 SSTORE PUSH2 0xBB9 SWAP1 DUP2 PUSH2 0x2E DUP3 CODECOPY RETURN JUMPDEST PUSH1 0x0 DUP1 REVERT INVALID PUSH1 0x80 PUSH1 0x40 MSTORE PUSH1 0x4 CALLDATASIZE LT ISZERO PUSH2 0x12 JUMPI PUSH1 0x0 DUP1 REVERT JUMPDEST PUSH1 0x0 CALLDATALOAD PUSH1 0xE0 SHR DUP1 PUSH4 0xCB6AAF1 EQ PUSH2 0x89F JUMPI DUP1 PUSH4 0x2650BB0C EQ PUSH2 0x25F JUMPI DUP1 PUSH4 0x637EEA19 EQ PUSH2 0x236 JUMPI DUP1 PUSH4 0x83361522 EQ PUSH2 0x162 JUMPI DUP1 PUSH4 0xC212D16B EQ PUSH2 0x144 JUMPI PUSH4 0xDBC21424 EQ PUSH2 0x5E JUMPI PUSH1 0x0 DUP1 REVERT JUMPDEST CALLVALUE PUSH2 0x13F JUMPI PUSH1 0x20 CALLDATASIZE PUSH1 0x3 NOT ADD SLT PUSH2 0x13F JUMPI PUSH1 0x4 CALLDATALOAD PUSH1 0x1 PUSH1 0x1 PUSH1 0x40 SHL SUB DUP2 GT PUSH2 0x13F JUMPI CALLDATASIZE PUSH1 0x23 DUP3 ADD SLT ISZERO PUSH2 0x13F JUMPI PUSH2 0xBA PUSH1 0x20 PUSH2 0xA7 PUSH2 0x111 SWAP4 CALLDATASIZE SWAP1 PUSH1 0x24 DUP2 PUSH1 0x4 ADD CALLDATALOAD SWAP2 ADD PUSH2 0xAC8 JUMP JUMPDEST DUP2 PUSH1 0x40 MLOAD SWAP4 DUP3 DUP6 DUP1 SWAP5 MLOAD SWAP4 DUP5 SWAP3 ADD PUSH2 0xA53 JUMP JUMPDEST DUP2 ADD PUSH1 0x1 DUP2 MSTORE SUB ADD SWAP1 KECCAK256 PUSH2 0x13B PUSH2 0xD0 DUP3 PUSH2 0x9AD JUMP JUMPDEST SWAP2 PUSH2 0x12D PUSH2 0xE0 PUSH1 0x1 DUP4 ADD PUSH2 0x9AD JUMP JUMPDEST SWAP2 PUSH2 0x11F PUSH2 0xFC PUSH1 0x3 PUSH2 0xF5 PUSH1 0x2 DUP6 ADD PUSH2 0x9AD JUMP JUMPDEST SWAP4 ADD PUSH2 0x9AD JUMP JUMPDEST SWAP4 PUSH1 0x40 MLOAD SWAP8 DUP9 SWAP8 PUSH1 0x80 DUP10 MSTORE PUSH1 0x80 DUP10 ADD SWAP1 PUSH2 0xA76 JUMP JUMPDEST SWAP1 DUP8 DUP3 SUB PUSH1 0x20 DUP10 ADD MSTORE PUSH2 0xA76 JUMP JUMPDEST SWAP1 DUP6 DUP3 SUB PUSH1 0x40 DUP8 ADD MSTORE PUSH2 0xA76 JUMP JUMPDEST SWAP1 DUP4 DUP3 SUB PUSH1 0x60 DUP6 ADD MSTORE PUSH2 0xA76 JUMP JUMPDEST SUB SWAP1 RETURN JUMPDEST PUSH1 0x0 DUP1 REVERT JUMPDEST CALLVALUE PUSH2 0x13F JUMPI PUSH1 0x0 CALLDATASIZE PUSH1 0x3 NOT ADD SLT PUSH2 0x13F JUMPI PUSH1 0x20 PUSH1 0x2 SLOAD PUSH1 0x40 MLOAD SWAP1 DUP2 MSTORE RETURN JUMPDEST CALLVALUE PUSH2 0x13F JUMPI PUSH1 0x20 CALLDATASIZE PUSH1 0x3 NOT ADD SLT PUSH2 0x13F JUMPI PUSH1 0x4 CALLDATALOAD PUSH1 0x1 PUSH1 0x1 PUSH1 0x40 SHL SUB DUP2 GT PUSH2 0x13F JUMPI PUSH1 0x20 PUSH2 0x197 PUSH2 0x21A SWAP3 CALLDATASIZE SWAP1 PUSH1 0x4 ADD PUSH2 0xA9B JUMP JUMPDEST SWAP2 SWAP1 DUP3 PUSH1 0x40 MLOAD SWAP4 DUP5 SWAP3 DUP4 CALLDATACOPY DUP2 ADD PUSH1 0x1 DUP2 MSTORE SUB ADD SWAP1 KECCAK256 PUSH2 0x13B PUSH1 0x60 PUSH2 0x228 PUSH1 0x40 MLOAD PUSH2 0x1C0 DUP2 PUSH2 0x971 JUMP JUMPDEST PUSH2 0x1C9 DUP6 PUSH2 0x9AD JUMP JUMPDEST DUP2 MSTORE PUSH2 0x1D7 PUSH1 0x1 DUP7 ADD PUSH2 0x9AD JUMP JUMPDEST SWAP1 PUSH1 0x20 DUP2 ADD SWAP2 DUP3 MSTORE PUSH2 0x1FE PUSH1 0x3 PUSH2 0x1F0 PUSH1 0x2 DUP10 ADD PUSH2 0x9AD JUMP JUMPDEST SWAP8 PUSH1 0x40 DUP5 ADD SWAP9 DUP10 MSTORE ADD PUSH2 0x9AD JUMP JUMPDEST SWAP4 DUP5 SWAP2 ADD MSTORE MLOAD SWAP4 MLOAD PUSH1 0x40 MLOAD SWAP6 DUP7 SWAP6 PUSH1 0x60 DUP8 MSTORE PUSH1 0x60 DUP8 ADD SWAP1 PUSH2 0xA76 JUMP JUMPDEST SWAP1 DUP6 DUP3 SUB PUSH1 0x20 DUP8 ADD MSTORE PUSH2 0xA76 JUMP JUMPDEST SWAP1 DUP4 DUP3 SUB PUSH1 0x40 DUP6 ADD MSTORE PUSH2 0xA76 JUMP JUMPDEST CALLVALUE PUSH2 0x13F JUMPI PUSH1 0x0 CALLDATASIZE PUSH1 0x3 NOT ADD SLT PUSH2 0x13F JUMPI PUSH1 0x0 SLOAD PUSH1 0x40 MLOAD PUSH1 0x1 PUSH1 0x1 PUSH1 0xA0 SHL SUB SWAP1 SWAP2 AND DUP2 MSTORE PUSH1 0x20 SWAP1 RETURN JUMPDEST CALLVALUE PUSH2 0x13F JUMPI PUSH1 0x80 CALLDATASIZE PUSH1 0x3 NOT ADD SLT PUSH2 0x13F JUMPI PUSH1 0x4 CALLDATALOAD PUSH1 0x1 PUSH1 0x1 PUSH1 0x40 SHL SUB DUP2 GT PUSH2 0x13F JUMPI PUSH2 0x28F SWAP1 CALLDATASIZE SWAP1 PUSH1 0x4 ADD PUSH2 0xA9B JUMP JUMPDEST SWAP1 PUSH1 0x24 CALLDATALOAD PUSH1 0x1 PUSH1 0x1 PUSH1 0x40 SHL SUB DUP2 GT PUSH2 0x13F JUMPI PUSH2 0x2AF SWAP1 CALLDATASIZE SWAP1 PUSH1 0x4 ADD PUSH2 0xA9B JUMP JUMPDEST SWAP3 SWAP1 PUSH1 0x44 CALLDATALOAD PUSH1 0x1 PUSH1 0x1 PUSH1 0x40 SHL SUB DUP2 GT PUSH2 0x13F JUMPI PUSH2 0x2D0 SWAP1 CALLDATASIZE SWAP1 PUSH1 0x4 ADD PUSH2 0xA9B JUMP JUMPDEST PUSH1 0x64 CALLDATALOAD PUSH1 0x1 PUSH1 0x1 PUSH1 0x40 SHL SUB DUP2 GT PUSH2 0x13F JUMPI PUSH2 0x2EF SWAP1 CALLDATASIZE SWAP1 PUSH1 0x4 ADD PUSH2 0xA9B JUMP JUMPDEST PUSH1 0x0 SLOAD SWAP2 SWAP8 SWAP1 SWAP5 SWAP2 PUSH1 0x1 PUSH1 0x1 PUSH1 0xA0 SHL SUB AND CALLER SUB PUSH2 0x86C JUMPI PUSH1 0x40 MLOAD PUSH2 0x312 DUP2 PUSH2 0x971 JUMP JUMPDEST PUSH2 0x31D CALLDATASIZE DUP9 DUP11 PUSH2 0xAC8 JUMP JUMPDEST DUP2 MSTORE PUSH2 0x32A CALLDATASIZE DUP4 DUP6 PUSH2 0xAC8 JUMP JUMPDEST PUSH1 0x20 DUP3 ADD MSTORE PUSH2 0x33A CALLDATASIZE DUP6 DUP8 PUSH2 0xAC8 JUMP JUMPDEST PUSH1 0x40 DUP3 ADD MSTORE PUSH2 0x34A CALLDATASIZE DUP8 DUP12 PUSH2 0xAC8 JUMP JUMPDEST PUSH1 0x60 DUP3 ADD MSTORE PUSH1 0x40 MLOAD DUP8 DUP10 DUP3 CALLDATACOPY PUSH1 0x20 DUP2 DUP10 DUP2 ADD PUSH1 0x1 DUP2 MSTORE SUB ADD SWAP1 KECCAK256 SWAP1 DUP1 MLOAD DUP1 MLOAD SWAP1 PUSH1 0x1 PUSH1 0x1 PUSH1 0x40 SHL SUB DUP3 GT PUSH2 0x664 JUMPI DUP2 SWAP1 PUSH2 0x38E DUP3 PUSH2 0x388 DUP8 SLOAD PUSH2 0x937 JUMP JUMPDEST DUP8 PUSH2 0xB0E JUMP JUMPDEST PUSH1 0x20 SWAP1 PUSH1 0x1F DUP4 GT PUSH1 0x1 EQ PUSH2 0x800 JUMPI PUSH1 0x0 SWAP3 PUSH2 0x7F5 JUMPI JUMPDEST POP POP DUP2 PUSH1 0x1 SHL SWAP2 PUSH1 0x0 NOT SWAP1 PUSH1 0x3 SHL SHR NOT AND OR DUP3 SSTORE JUMPDEST PUSH1 0x20 DUP2 ADD MLOAD DUP1 MLOAD SWAP1 PUSH1 0x1 PUSH1 0x1 PUSH1 0x40 SHL SUB DUP3 GT PUSH2 0x664 JUMPI DUP2 SWAP1 PUSH2 0x3EB DUP3 PUSH2 0x3E2 PUSH1 0x1 DUP9 ADD SLOAD PUSH2 0x937 JUMP JUMPDEST PUSH1 0x1 DUP9 ADD PUSH2 0xB0E JUMP JUMPDEST PUSH1 0x20 SWAP1 PUSH1 0x1F DUP4 GT PUSH1 0x1 EQ PUSH2 0x783 JUMPI PUSH1 0x0 SWAP3 PUSH2 0x778 JUMPI JUMPDEST POP POP DUP2 PUSH1 0x1 SHL SWAP2 PUSH1 0x0 NOT SWAP1 PUSH1 0x3 SHL SHR NOT AND OR PUSH1 0x1 DUP4 ADD SSTORE JUMPDEST PUSH1 0x40 DUP2 ADD MLOAD DUP1 MLOAD PUSH1 0x1 PUSH1 0x1 PUSH1 0x40 SHL SUB DUP2 GT PUSH2 0x664 JUMPI PUSH1 0x2 DUP5 ADD SWAP2 PUSH2 0x447 DUP3 PUSH2 0x441 DUP6 SLOAD PUSH2 0x937 JUMP JUMPDEST DUP6 PUSH2 0xB0E JUMP JUMPDEST PUSH1 0x20 SWAP1 PUSH1 0x1F DUP4 GT PUSH1 0x1 EQ PUSH2 0x70C JUMPI PUSH1 0x60 SWAP5 SWAP4 SWAP3 SWAP2 PUSH1 0x0 SWAP2 DUP4 PUSH2 0x701 JUMPI JUMPDEST POP POP DUP2 PUSH1 0x1 SHL SWAP2 PUSH1 0x0 NOT SWAP1 PUSH1 0x3 SHL SHR NOT AND OR SWAP1 SSTORE JUMPDEST ADD MLOAD SWAP1 DUP2 MLOAD SWAP1 PUSH1 0x1 PUSH1 0x1 PUSH1 0x40 SHL SUB DUP3 GT PUSH2 0x664 JUMPI PUSH1 0x3 DUP3 SWAP2 ADD SWAP3 PUSH2 0x4A7 DUP3 PUSH2 0x4A1 DUP7 SLOAD PUSH2 0x937 JUMP JUMPDEST DUP7 PUSH2 0xB0E JUMP JUMPDEST PUSH1 0x20 SWAP1 PUSH1 0x1F DUP4 GT PUSH1 0x1 EQ PUSH2 0x69B JUMPI PUSH1 0x0 SWAP3 PUSH2 0x690 JUMPI JUMPDEST POP POP DUP2 PUSH1 0x1 SHL SWAP2 PUSH1 0x0 NOT SWAP1 PUSH1 0x3 SHL SHR NOT AND OR SWAP1 SSTORE JUMPDEST PUSH1 0x2 SLOAD PUSH9 0x10000000000000000 DUP2 LT ISZERO PUSH2 0x664 JUMPI DUP1 PUSH1 0x1 PUSH2 0x4F6 SWAP3 ADD PUSH1 0x2 SSTORE PUSH2 0x8EA JUMP JUMPDEST PUSH2 0x67A JUMPI PUSH1 0x1 PUSH1 0x1 PUSH1 0x40 SHL SUB DUP8 GT PUSH2 0x664 JUMPI PUSH2 0x51C DUP8 PUSH2 0x516 DUP4 SLOAD PUSH2 0x937 JUMP JUMPDEST DUP4 PUSH2 0xB0E JUMP JUMPDEST PUSH1 0x0 PUSH1 0x1F DUP9 GT PUSH1 0x1 EQ PUSH2 0x5C9 JUMPI PUSH2 0x5AB SWAP4 PUSH32 0xFED1942CAF97E3C0DA472C87FDB00C07A9569DCD7EB1D9836FCE994A4032090D SWAP11 SWAP7 SWAP4 PUSH2 0x5B9 SWAP9 SWAP7 SWAP4 DUP11 PUSH2 0x59D SWAP5 PUSH1 0x0 SWAP2 PUSH2 0x5BE JUMPI JUMPDEST POP DUP12 PUSH1 0x1 SHL SWAP1 PUSH1 0x0 NOT DUP14 PUSH1 0x3 SHL SHR NOT AND OR SWAP1 SSTORE JUMPDEST PUSH2 0x58F PUSH1 0x40 MLOAD SWAP12 DUP13 SWAP12 PUSH1 0x80 DUP14 MSTORE PUSH1 0x80 DUP14 ADD SWAP2 PUSH2 0xB62 JUMP JUMPDEST SWAP2 DUP11 DUP4 SUB PUSH1 0x20 DUP13 ADD MSTORE PUSH2 0xB62 JUMP JUMPDEST SWAP2 DUP8 DUP4 SUB PUSH1 0x40 DUP10 ADD MSTORE PUSH2 0xB62 JUMP JUMPDEST SWAP2 DUP5 DUP4 SUB PUSH1 0x60 DUP7 ADD MSTORE PUSH2 0xB62 JUMP JUMPDEST SUB SWAP1 LOG1 STOP JUMPDEST SWAP1 POP DUP13 ADD CALLDATALOAD DUP15 PUSH2 0x564 JUMP JUMPDEST DUP2 PUSH1 0x0 MSTORE PUSH1 0x20 PUSH1 0x0 KECCAK256 SWAP1 PUSH1 0x0 JUMPDEST PUSH1 0x1F NOT DUP11 AND DUP2 LT PUSH2 0x64C JUMPI POP SWAP4 PUSH32 0xFED1942CAF97E3C0DA472C87FDB00C07A9569DCD7EB1D9836FCE994A4032090D SWAP11 SWAP7 SWAP4 PUSH2 0x5B9 SWAP9 SWAP7 SWAP4 PUSH2 0x59D SWAP4 DUP13 PUSH2 0x5AB SWAP9 DUP14 PUSH1 0x1F NOT DUP2 AND LT PUSH2 0x632 JUMPI JUMPDEST POP POP POP PUSH1 0x1 DUP12 DUP2 SHL ADD SWAP1 SSTORE PUSH2 0x578 JUMP JUMPDEST ADD CALLDATALOAD PUSH1 0x0 NOT PUSH1 0x3 DUP15 SWAP1 SHL PUSH1 0xF8 AND SHR NOT AND SWAP1 SSTORE DUP14 DUP13 DUP2 PUSH2 0x622 JUMP JUMPDEST SWAP1 SWAP2 PUSH1 0x20 PUSH1 0x1 DUP2 SWAP3 DUP6 DUP15 ADD CALLDATALOAD DUP2 SSTORE ADD SWAP4 ADD SWAP2 ADD PUSH2 0x5D6 JUMP JUMPDEST PUSH4 0x4E487B71 PUSH1 0xE0 SHL PUSH1 0x0 MSTORE PUSH1 0x41 PUSH1 0x4 MSTORE PUSH1 0x24 PUSH1 0x0 REVERT JUMPDEST PUSH4 0x4E487B71 PUSH1 0xE0 SHL PUSH1 0x0 MSTORE PUSH1 0x0 PUSH1 0x4 MSTORE PUSH1 0x24 PUSH1 0x0 REVERT JUMPDEST ADD MLOAD SWAP1 POP DUP12 DUP1 PUSH2 0x4BD JUMP JUMPDEST PUSH1 0x0 DUP6 DUP2 MSTORE PUSH1 0x20 DUP2 KECCAK256 SWAP4 POP PUSH1 0x1F NOT DUP6 AND SWAP1 JUMPDEST DUP2 DUP2 LT PUSH2 0x6E9 JUMPI POP SWAP1 DUP5 PUSH1 0x1 SWAP6 SWAP5 SWAP4 SWAP3 LT PUSH2 0x6D0 JUMPI JUMPDEST POP POP POP DUP2 SHL ADD SWAP1 SSTORE PUSH2 0x4D2 JUMP JUMPDEST ADD MLOAD PUSH1 0x0 NOT PUSH1 0xF8 DUP5 PUSH1 0x3 SHL AND SHR NOT AND SWAP1 SSTORE DUP12 DUP1 DUP1 PUSH2 0x6C3 JUMP JUMPDEST SWAP3 SWAP4 PUSH1 0x20 PUSH1 0x1 DUP2 SWAP3 DUP8 DUP7 ADD MLOAD DUP2 SSTORE ADD SWAP6 ADD SWAP4 ADD PUSH2 0x6AD JUMP JUMPDEST ADD MLOAD SWAP1 POP DUP15 DUP1 PUSH2 0x464 JUMP JUMPDEST SWAP1 PUSH1 0x1F NOT DUP4 AND SWAP2 DUP5 PUSH1 0x0 MSTORE PUSH1 0x20 PUSH1 0x0 KECCAK256 SWAP3 PUSH1 0x0 JUMPDEST DUP2 DUP2 LT PUSH2 0x760 JUMPI POP SWAP2 PUSH1 0x1 SWAP4 SWAP2 DUP6 PUSH1 0x60 SWAP9 SWAP8 SWAP7 SWAP5 LT PUSH2 0x747 JUMPI JUMPDEST POP POP POP DUP2 SHL ADD SWAP1 SSTORE PUSH2 0x479 JUMP JUMPDEST ADD MLOAD PUSH1 0x0 NOT PUSH1 0xF8 DUP5 PUSH1 0x3 SHL AND SHR NOT AND SWAP1 SSTORE DUP15 DUP1 DUP1 PUSH2 0x73A JUMP JUMPDEST SWAP3 SWAP4 PUSH1 0x20 PUSH1 0x1 DUP2 SWAP3 DUP8 DUP7 ADD MLOAD DUP2 SSTORE ADD SWAP6 ADD SWAP4 ADD PUSH2 0x720 JUMP JUMPDEST ADD MLOAD SWAP1 POP DUP13 DUP1 PUSH2 0x401 JUMP JUMPDEST SWAP3 POP PUSH1 0x1 DUP6 ADD PUSH1 0x0 MSTORE PUSH1 0x20 PUSH1 0x0 KECCAK256 SWAP1 PUSH1 0x0 SWAP4 JUMPDEST PUSH1 0x1F NOT DUP5 AND DUP6 LT PUSH2 0x7DA JUMPI PUSH1 0x1 SWAP5 POP DUP4 PUSH1 0x1F NOT DUP2 AND LT PUSH2 0x7C1 JUMPI JUMPDEST POP POP POP DUP2 SHL ADD PUSH1 0x1 DUP4 ADD SSTORE PUSH2 0x419 JUMP JUMPDEST ADD MLOAD PUSH1 0x0 NOT PUSH1 0xF8 DUP5 PUSH1 0x3 SHL AND SHR NOT AND SWAP1 SSTORE DUP13 DUP1 DUP1 PUSH2 0x7B1 JUMP JUMPDEST DUP2 DUP2 ADD MLOAD DUP4 SSTORE PUSH1 0x20 SWAP5 DUP6 ADD SWAP5 PUSH1 0x1 SWAP1 SWAP4 ADD SWAP3 SWAP1 SWAP2 ADD SWAP1 PUSH2 0x796 JUMP JUMPDEST ADD MLOAD SWAP1 POP DUP13 DUP1 PUSH2 0x3A4 JUMP JUMPDEST SWAP3 POP DUP5 PUSH1 0x0 MSTORE PUSH1 0x20 PUSH1 0x0 KECCAK256 SWAP1 PUSH1 0x0 SWAP4 JUMPDEST PUSH1 0x1F NOT DUP5 AND DUP6 LT PUSH2 0x851 JUMPI PUSH1 0x1 SWAP5 POP DUP4 PUSH1 0x1F NOT DUP2 AND LT PUSH2 0x838 JUMPI JUMPDEST POP POP POP DUP2 SHL ADD DUP3 SSTORE PUSH2 0x3B9 JUMP JUMPDEST ADD MLOAD PUSH1 0x0 NOT PUSH1 0xF8 DUP5 PUSH1 0x3 SHL AND SHR NOT AND SWAP1 SSTORE DUP13 DUP1 DUP1 PUSH2 0x82B JUMP JUMPDEST DUP2 DUP2 ADD MLOAD DUP4 SSTORE PUSH1 0x20 SWAP5 DUP6 ADD SWAP5 PUSH1 0x1 SWAP1 SWAP4 ADD SWAP3 SWAP1 SWAP2 ADD SWAP1 PUSH2 0x810 JUMP JUMPDEST PUSH1 0x40 MLOAD PUSH3 0x461BCD PUSH1 0xE5 SHL DUP2 MSTORE PUSH1 0x20 PUSH1 0x4 DUP3 ADD MSTORE PUSH1 0xB PUSH1 0x24 DUP3 ADD MSTORE PUSH11 0x139BDD081CDD195DD85C99 PUSH1 0xAA SHL PUSH1 0x44 DUP3 ADD MSTORE PUSH1 0x64 SWAP1 REVERT JUMPDEST CALLVALUE PUSH2 0x13F JUMPI PUSH1 0x20 CALLDATASIZE PUSH1 0x3 NOT ADD SLT PUSH2 0x13F JUMPI PUSH1 0x4 CALLDATALOAD PUSH1 0x2 SLOAD DUP2 LT ISZERO PUSH2 0x13F JUMPI PUSH2 0x8C6 SWAP1 PUSH2 0x8EA JUMP JUMPDEST PUSH2 0x67A JUMPI PUSH2 0x8D6 PUSH2 0x13B SWAP2 PUSH2 0x9AD JUMP JUMPDEST PUSH1 0x40 MLOAD SWAP2 DUP3 SWAP2 PUSH1 0x20 DUP4 MSTORE PUSH1 0x20 DUP4 ADD SWAP1 PUSH2 0xA76 JUMP JUMPDEST PUSH1 0x2 SLOAD DUP2 LT ISZERO PUSH2 0x921 JUMPI PUSH1 0x2 PUSH1 0x0 MSTORE PUSH32 0x405787FA12A823E0F2B7631CC41B3BA8828B3321CA811111FA75CD3AA3BB5ACE ADD SWAP1 PUSH1 0x0 SWAP1 JUMP JUMPDEST PUSH4 0x4E487B71 PUSH1 0xE0 SHL PUSH1 0x0 MSTORE PUSH1 0x32 PUSH1 0x4 MSTORE PUSH1 0x24 PUSH1 0x0 REVERT JUMPDEST SWAP1 PUSH1 0x1 DUP3 DUP2 SHR SWAP3 AND DUP1 ISZERO PUSH2 0x967 JUMPI JUMPDEST PUSH1 0x20 DUP4 LT EQ PUSH2 0x951 JUMPI JUMP JUMPDEST PUSH4 0x4E487B71 PUSH1 0xE0 SHL PUSH1 0x0 MSTORE PUSH1 0x22 PUSH1 0x4 MSTORE PUSH1 0x24 PUSH1 0x0 REVERT JUMPDEST SWAP2 PUSH1 0x7F AND SWAP2 PUSH2 0x946 JUMP JUMPDEST PUSH1 0x80 DUP2 ADD SWAP1 DUP2 LT PUSH1 0x1 PUSH1 0x1 PUSH1 0x40 SHL SUB DUP3 GT OR PUSH2 0x664 JUMPI PUSH1 0x40 MSTORE JUMP JUMPDEST SWAP1 PUSH1 0x1F DUP1 NOT SWAP2 ADD AND DUP2 ADD SWAP1 DUP2 LT PUSH1 0x1 PUSH1 0x1 PUSH1 0x40 SHL SUB DUP3 GT OR PUSH2 0x664 JUMPI PUSH1 0x40 MSTORE JUMP JUMPDEST SWAP1 PUSH1 0x40 MLOAD SWAP2 DUP3 PUSH1 0x0 DUP3 SLOAD SWAP3 PUSH2 0x9C1 DUP5 PUSH2 0x937 JUMP JUMPDEST SWAP1 DUP2 DUP5 MSTORE PUSH1 0x1 SWAP5 DUP6 DUP2 AND SWAP1 DUP2 PUSH1 0x0 EQ PUSH2 0xA30 JUMPI POP PUSH1 0x1 EQ PUSH2 0x9ED JUMPI JUMPDEST POP POP PUSH2 0x9EB SWAP3 POP SUB DUP4 PUSH2 0x98C JUMP JUMPDEST JUMP JUMPDEST SWAP1 SWAP4 SWAP2 POP PUSH1 0x0 MSTORE PUSH1 0x20 SWAP1 DUP2 PUSH1 0x0 KECCAK256 SWAP4 PUSH1 0x0 SWAP2 JUMPDEST DUP2 DUP4 LT PUSH2 0xA18 JUMPI POP POP PUSH2 0x9EB SWAP4 POP DUP3 ADD ADD CODESIZE DUP1 PUSH2 0x9DD JUMP JUMPDEST DUP6 SLOAD DUP9 DUP5 ADD DUP6 ADD MSTORE SWAP5 DUP6 ADD SWAP5 DUP8 SWAP5 POP SWAP2 DUP4 ADD SWAP2 PUSH2 0xA00 JUMP JUMPDEST SWAP2 POP POP PUSH2 0x9EB SWAP5 POP PUSH1 0x20 SWAP3 POP PUSH1 0xFF NOT AND DUP3 DUP5 ADD MSTORE ISZERO ISZERO PUSH1 0x5 SHL DUP3 ADD ADD CODESIZE DUP1 PUSH2 0x9DD JUMP JUMPDEST PUSH1 0x0 JUMPDEST DUP4 DUP2 LT PUSH2 0xA66 JUMPI POP POP PUSH1 0x0 SWAP2 ADD MSTORE JUMP JUMPDEST DUP2 DUP2 ADD MLOAD DUP4 DUP3 ADD MSTORE PUSH1 0x20 ADD PUSH2 0xA56 JUMP JUMPDEST SWAP1 PUSH1 0x20 SWAP2 PUSH2 0xA8F DUP2 MLOAD DUP1 SWAP3 DUP2 DUP6 MSTORE DUP6 DUP1 DUP7 ADD SWAP2 ADD PUSH2 0xA53 JUMP JUMPDEST PUSH1 0x1F ADD PUSH1 0x1F NOT AND ADD ADD SWAP1 JUMP JUMPDEST SWAP2 DUP2 PUSH1 0x1F DUP5 ADD SLT ISZERO PUSH2 0x13F JUMPI DUP3 CALLDATALOAD SWAP2 PUSH1 0x1 PUSH1 0x1 PUSH1 0x40 SHL SUB DUP4 GT PUSH2 0x13F JUMPI PUSH1 0x20 DUP4 DUP2 DUP7 ADD SWAP6 ADD ADD GT PUSH2 0x13F JUMPI JUMP JUMPDEST SWAP3 SWAP2 SWAP3 PUSH1 0x1 PUSH1 0x1 PUSH1 0x40 SHL SUB DUP3 GT PUSH2 0x664 JUMPI PUSH1 0x40 MLOAD SWAP2 PUSH2 0xAF1 PUSH1 0x1F DUP3 ADD PUSH1 0x1F NOT AND PUSH1 0x20 ADD DUP5 PUSH2 0x98C JUMP JUMPDEST DUP3 SWAP5 DUP2 DUP5 MSTORE DUP2 DUP4 ADD GT PUSH2 0x13F JUMPI DUP3 DUP2 PUSH1 0x20 SWAP4 DUP5 PUSH1 0x0 SWAP7 ADD CALLDATACOPY ADD ADD MSTORE JUMP JUMPDEST SWAP1 PUSH1 0x1F DUP2 GT PUSH2 0xB1C JUMPI POP POP POP JUMP JUMPDEST PUSH1 0x0 SWAP2 DUP3 MSTORE PUSH1 0x20 DUP3 KECCAK256 SWAP1 PUSH1 0x20 PUSH1 0x1F DUP6 ADD PUSH1 0x5 SHR DUP4 ADD SWAP5 LT PUSH2 0xB58 JUMPI JUMPDEST PUSH1 0x1F ADD PUSH1 0x5 SHR ADD SWAP2 JUMPDEST DUP3 DUP2 LT PUSH2 0xB4D JUMPI POP POP POP JUMP JUMPDEST DUP2 DUP2 SSTORE PUSH1 0x1 ADD PUSH2 0xB41 JUMP JUMPDEST SWAP1 SWAP3 POP DUP3 SWAP1 PUSH2 0xB38 JUMP JUMPDEST SWAP1 DUP1 PUSH1 0x20 SWAP4 SWAP3 DUP2 DUP5 MSTORE DUP5 DUP5 ADD CALLDATACOPY PUSH1 0x0 DUP3 DUP3 ADD DUP5 ADD MSTORE PUSH1 0x1F ADD PUSH1 0x1F NOT AND ADD ADD SWAP1 JUMP INVALID LOG2 PUSH5 0x6970667358 0x22 SLT KECCAK256 SWAP2 RETURNDATACOPY BLOCKHASH PUSH22 0x3BCAFD3529231934B1F1A1C28B1891A82EB00D5AFC06 0xD7 SGT PUSH0 SHL 0xC8 DUP14 PUSH5 0x736F6C6343 STOP ADDMOD EQ STOP CALLER "},"methodIdentifiers":{"codices(string)":"dbc21424","getCodex(string)":"83361522","inscribeCodex(string,string,string,string)":"2650bb0c","keys(uint256)":"0cb6aaf1","steward()":"637eea19","totalCodices()":"c212d16b"}}}}}