{"contracts/codex/SpiralboundCodexV4.sol":{"SpiralboundCodexV4":{"abi":[{"inputs":[],"stateMutability":"nonpayable","type":"constructor"},{"anonymous":false,"inputs":[{"indexed":false,"internalType":"string","name":"glyph","type":"string"},{"indexed":false,"internalType":"string","name":"tag","type":"string"},{"indexed":false,"internalType":"string","name":"binding","type":"string"},{"indexed":false,"internalType":"string","name":"annotation","type":"string"},{"indexed":false,"internalType":"string","name":"lineage","type":"string"},{"indexed":false,"internalType":"string","name":"resonance","type":"string"}],"name":"CodexInscribed","type":"event"},{"inputs":[{"internalType":"string","name":"","type":"string"}],"name":"core","outputs":[{"internalType":"string","name":"tag","type":"string"},{"internalType":"string","name":"binding","type":"string"},{"internalType":"string","name":"annotation","type":"string"},{"internalType":"string","name":"lineage","type":"string"}],"stateMutability":"view","type":"function"},{"inputs":[{"internalType":"string","name":"glyph","type":"string"}],"name":"getCore","outputs":[{"internalType":"string","name":"","type":"string"},{"internalType":"string","name":"","type":"string"},{"internalType":"string","name":"","type":"string"},{"internalType":"string","name":"","type":"string"}],"stateMutability":"view","type":"function"},{"inputs":[{"internalType":"string","name":"glyph","type":"string"}],"name":"getResonance","outputs":[{"internalType":"string","name":"","type":"string"}],"stateMutability":"view","type":"function"},{"inputs":[{"internalType":"string","name":"glyph","type":"string"},{"internalType":"string","name":"tag","type":"string"},{"internalType":"string","name":"binding","type":"string"},{"internalType":"string","name":"annotation","type":"string"},{"internalType":"string","name":"lineage","type":"string"},{"internalType":"string","name":"res","type":"string"}],"name":"inscribeCodex","outputs":[],"stateMutability":"nonpayable","type":"function"},{"inputs":[{"internalType":"uint256","name":"","type":"uint256"}],"name":"keys","outputs":[{"internalType":"string","name":"","type":"string"}],"stateMutability":"view","type":"function"},{"inputs":[{"internalType":"string","name":"","type":"string"}],"name":"resonance","outputs":[{"internalType":"string","name":"","type":"string"}],"stateMutability":"view","type":"function"},{"inputs":[],"name":"steward","outputs":[{"internalType":"address","name":"","type":"address"}],"stateMutability":"view","type":"function"},{"inputs":[],"name":"totalCodices","outputs":[{"internalType":"uint256","name":"","type":"uint256"}],"stateMutability":"view","type":"function"}],"evm":{"bytecode":{"linkReferences":{},"object":"6080806040523461002857600080546001600160a01b03191633179055610cbf908161002e8239f35b600080fdfe610120604052600436101561001357600080fd5b60003560e01c80630cb6aaf1146108705780631324da831461081557806346b41068146107c3578063609c544b14610717578063637eea19146106ee57806371a5d4bd1461069b57806394c58908146100985763c212d16b1461007557600080fd5b34610093576000366003190112610093576020600354604051908152f35b600080fd5b346100935760c0366003190112610093576004356001600160401b038111610093576100c8903690600401610b24565b608052610100526024356001600160401b038111610093576100ee903690600401610b24565b6044356001600160401b0381116100935761010d903690600401610b24565b6064356001600160401b0381116100935761012c903690600401610b24565b946084356001600160401b0381116100935761014c903690600401610b24565b919060a05260a4356001600160401b03811161009357610170903690600401610b24565b60c05260e0526000546001600160a01b03163303610668576040516101948161092e565b61019f368884610a58565b81526101ac368688610a58565b60208201526101bc368986610a58565b60408201526101ce368460a051610a58565b6060820152604051608051610100518237602081608051810160018152030190209080518051906001600160401b03821161047f5781906102198261021387546108f4565b87610b51565b602090601f8311600114610602576000926105f7575b50508160011b916000199060031b1c19161782555b602081015180516001600160401b03811161047f578060018501926102738261026d86546108f4565b86610b51565b602090601f831160011461059157600092610586575b50508160011b916000199060031b1c19161790555b604081015180516001600160401b03811161047f5760028401916102cc826102c685546108f4565b85610b51565b602090601f831160011461051a576060949392916000918361050f575b50508160011b916000199060031b1c19161790555b01518051906001600160401b03821161047f5761032b8261032260038601546108f4565b60038601610b51565b602090601f83116001146104a0576003929160009183610495575b50508160011b9160001990841b1c1916179101555b61038760405160805161010051823760805181016002815260c0519160208160e0519303019020610ba5565b6003546801000000000000000081101561047f578060016103ab92016003556108a7565b939093610469577fdad42c690e525354e4c6f4b2da217be79db3be68dc5c6c649cf8d3e1e4e495319761043260c09761046497610424610440966104169c6103fe6104519b608051906101005190610ba5565b6040519d8d8f9e8f9081520160805161010051610c68565b8d810360208f015291610c68565b918a830360408c0152610c68565b918783036060890152610c68565b90848203608086015260a051610c68565b82810360a084015260c05160e051610c68565b0390a1005b634e487b7160e01b600052600060045260246000fd5b634e487b7160e01b600052604160045260246000fd5b015190508b80610346565b906003840160005260206000209160005b601f19851681106104f75750918391600193600395601f198116106104df575b505050811b0191015561035b565b015160001983861b60f8161c191690558b80806104d1565b919260206001819286850151815501940192016104b1565b015190508d806102e9565b90601f198316918460005260206000209260005b81811061056e575091600193918560609897969410610555575b505050811b0190556102fe565b015160001960f88460031b161c191690558d8080610548565b9293602060018192878601518155019501930161052e565b015190508c80610289565b6000858152602081209350601f198516905b8181106105df57509084600195949392106105c6575b505050811b01905561029e565b015160001960f88460031b161c191690558c80806105b9565b929360206001819287860151815501950193016105a3565b015190508b8061022f565b6000868152602081209350601f198516905b8181106106505750908460019594939210610637575b505050811b018255610244565b015160001960f88460031b161c191690558b808061062a565b92936020600181928786015181550195019301610614565b60405162461bcd60e51b815260206004820152600b60248201526a139bdd081cdd195dd85c9960aa1b6044820152606490fd5b34610093576106ea6106d66106c760206106b436610a9e565b8160405193828580945193849201610a10565b8101600281520301902061096a565b604051918291602083526020830190610a33565b0390f35b34610093576000366003190112610093576000546040516001600160a01b039091168152602090f35b34610093576020366003190112610093576004356001600160401b038111610093576107496020913690600401610b24565b91908260405193849283378101600181520301902060405161076a8161092e565b6107738261096a565b81526106ea6107846001840161096a565b91602081019283526107ab600361079d6002870161096a565b95604084019687520161096a565b90816060820152519251935160405194859485610adc565b34610093576020366003190112610093576004356001600160401b038111610093576106d660206107fb6106ea933690600401610b24565b91908260405193849283378101600281520301902061096a565b346100935761082860206106b436610a9e565b8101600181520301902061083b8161096a565b6106ea61084a6001840161096a565b92610863600361085c6002840161096a565b920161096a565b9060405194859485610adc565b346100935760203660031901126100935760043560035481101561009357610897906108a7565b610469576106d66106ea9161096a565b6003548110156108de5760036000527fc2575a0e9e593c00f959f8c92f12db2869c3395a3b0502d05e2516446f71f85b0190600090565b634e487b7160e01b600052603260045260246000fd5b90600182811c92168015610924575b602083101461090e57565b634e487b7160e01b600052602260045260246000fd5b91607f1691610903565b608081019081106001600160401b0382111761047f57604052565b90601f801991011681019081106001600160401b0382111761047f57604052565b906040519182600082549261097e846108f4565b9081845260019485811690816000146109ed57506001146109aa575b50506109a892500383610949565b565b9093915060005260209081600020936000915b8183106109d55750506109a89350820101388061099a565b855488840185015294850194879450918301916109bd565b9150506109a894506020925060ff191682840152151560051b820101388061099a565b60005b838110610a235750506000910152565b8181015183820152602001610a13565b90602091610a4c81518092818552858086019101610a10565b601f01601f1916010190565b9291926001600160401b03821161047f5760405191610a81601f8201601f191660200184610949565b829481845281830111610093578281602093846000960137010152565b602060031982011261009357600435906001600160401b038211610093578060238301121561009357816024610ad993600401359101610a58565b90565b92610b08610ad99593610afa610b1694608088526080880190610a33565b908682036020880152610a33565b908482036040860152610a33565b916060818403910152610a33565b9181601f84011215610093578235916001600160401b038311610093576020838186019501011161009357565b90601f8111610b5f57505050565b600091825260208220906020601f850160051c83019410610b9b575b601f0160051c01915b828110610b9057505050565b818155600101610b84565b9092508290610b7b565b9092916001600160401b03811161047f57610bca81610bc484546108f4565b84610b51565b6000601f8211600114610c045781929394600092610bf9575b50508160011b916000199060031b1c1916179055565b013590503880610be3565b601f198216948382526020918281209281905b888210610c5057505083600195969710610c36575b505050811b019055565b0135600019600384901b60f8161c19169055388080610c2c565b80600184968294958701358155019501920190610c17565b908060209392818452848401376000828201840152601f01601f191601019056fea2646970667358221220db8eeb64220026e4bb9449febc0214cca3df3d0360ea962b21f8d5ef8f3af58064736f6c63430008140033","opcodes":"PUSH1 0x80 DUP1 PUSH1 0x40 MSTORE CALLVALUE PUSH2 0x28 JUMPI PUSH1 0x0 DUP1 SLOAD PUSH1 0x1 PUSH1 0x1 PUSH1 0xA0 SHL SUB NOT AND CALLER OR SWAP1 SSTORE PUSH2 0xCBF SWAP1 DUP2 PUSH2 0x2E DUP3 CODECOPY RETURN JUMPDEST PUSH1 0x0 DUP1 REVERT INVALID PUSH2 0x120 PUSH1 0x40 MSTORE PUSH1 0x4 CALLDATASIZE LT ISZERO PUSH2 0x13 JUMPI PUSH1 0x0 DUP1 REVERT JUMPDEST PUSH1 0x0 CALLDATALOAD PUSH1 0xE0 SHR DUP1 PUSH4 0xCB6AAF1 EQ PUSH2 0x870 JUMPI DUP1 PUSH4 0x1324DA83 EQ PUSH2 0x815 JUMPI DUP1 PUSH4 0x46B41068 EQ PUSH2 0x7C3 JUMPI DUP1 PUSH4 0x609C544B EQ PUSH2 0x717 JUMPI DUP1 PUSH4 0x637EEA19 EQ PUSH2 0x6EE JUMPI DUP1 PUSH4 0x71A5D4BD EQ PUSH2 0x69B JUMPI DUP1 PUSH4 0x94C58908 EQ PUSH2 0x98 JUMPI PUSH4 0xC212D16B EQ PUSH2 0x75 JUMPI PUSH1 0x0 DUP1 REVERT JUMPDEST CALLVALUE PUSH2 0x93 JUMPI PUSH1 0x0 CALLDATASIZE PUSH1 0x3 NOT ADD SLT PUSH2 0x93 JUMPI PUSH1 0x20 PUSH1 0x3 SLOAD PUSH1 0x40 MLOAD SWAP1 DUP2 MSTORE RETURN JUMPDEST PUSH1 0x0 DUP1 REVERT JUMPDEST CALLVALUE PUSH2 0x93 JUMPI PUSH1 0xC0 CALLDATASIZE PUSH1 0x3 NOT ADD SLT PUSH2 0x93 JUMPI PUSH1 0x4 CALLDATALOAD PUSH1 0x1 PUSH1 0x1 PUSH1 0x40 SHL SUB DUP2 GT PUSH2 0x93 JUMPI PUSH2 0xC8 SWAP1 CALLDATASIZE SWAP1 PUSH1 0x4 ADD PUSH2 0xB24 JUMP JUMPDEST PUSH1 0x80 MSTORE PUSH2 0x100 MSTORE PUSH1 0x24 CALLDATALOAD PUSH1 0x1 PUSH1 0x1 PUSH1 0x40 SHL SUB DUP2 GT PUSH2 0x93 JUMPI PUSH2 0xEE SWAP1 CALLDATASIZE SWAP1 PUSH1 0x4 ADD PUSH2 0xB24 JUMP JUMPDEST PUSH1 0x44 CALLDATALOAD PUSH1 0x1 PUSH1 0x1 PUSH1 0x40 SHL SUB DUP2 GT PUSH2 0x93 JUMPI PUSH2 0x10D SWAP1 CALLDATASIZE SWAP1 PUSH1 0x4 ADD PUSH2 0xB24 JUMP JUMPDEST PUSH1 0x64 CALLDATALOAD PUSH1 0x1 PUSH1 0x1 PUSH1 0x40 SHL SUB DUP2 GT PUSH2 0x93 JUMPI PUSH2 0x12C SWAP1 CALLDATASIZE SWAP1 PUSH1 0x4 ADD PUSH2 0xB24 JUMP JUMPDEST SWAP5 PUSH1 0x84 CALLDATALOAD PUSH1 0x1 PUSH1 0x1 PUSH1 0x40 SHL SUB DUP2 GT PUSH2 0x93 JUMPI PUSH2 0x14C SWAP1 CALLDATASIZE SWAP1 PUSH1 0x4 ADD PUSH2 0xB24 JUMP JUMPDEST SWAP2 SWAP1 PUSH1 0xA0 MSTORE PUSH1 0xA4 CALLDATALOAD PUSH1 0x1 PUSH1 0x1 PUSH1 0x40 SHL SUB DUP2 GT PUSH2 0x93 JUMPI PUSH2 0x170 SWAP1 CALLDATASIZE SWAP1 PUSH1 0x4 ADD PUSH2 0xB24 JUMP JUMPDEST PUSH1 0xC0 MSTORE PUSH1 0xE0 MSTORE PUSH1 0x0 SLOAD PUSH1 0x1 PUSH1 0x1 PUSH1 0xA0 SHL SUB AND CALLER SUB PUSH2 0x668 JUMPI PUSH1 0x40 MLOAD PUSH2 0x194 DUP2 PUSH2 0x92E JUMP JUMPDEST PUSH2 0x19F CALLDATASIZE DUP9 DUP5 PUSH2 0xA58 JUMP JUMPDEST DUP2 MSTORE PUSH2 0x1AC CALLDATASIZE DUP7 DUP9 PUSH2 0xA58 JUMP JUMPDEST PUSH1 0x20 DUP3 ADD MSTORE PUSH2 0x1BC CALLDATASIZE DUP10 DUP7 PUSH2 0xA58 JUMP JUMPDEST PUSH1 0x40 DUP3 ADD MSTORE PUSH2 0x1CE CALLDATASIZE DUP5 PUSH1 0xA0 MLOAD PUSH2 0xA58 JUMP JUMPDEST PUSH1 0x60 DUP3 ADD MSTORE PUSH1 0x40 MLOAD PUSH1 0x80 MLOAD PUSH2 0x100 MLOAD DUP3 CALLDATACOPY PUSH1 0x20 DUP2 PUSH1 0x80 MLOAD DUP2 ADD PUSH1 0x1 DUP2 MSTORE SUB ADD SWAP1 KECCAK256 SWAP1 DUP1 MLOAD DUP1 MLOAD SWAP1 PUSH1 0x1 PUSH1 0x1 PUSH1 0x40 SHL SUB DUP3 GT PUSH2 0x47F JUMPI DUP2 SWAP1 PUSH2 0x219 DUP3 PUSH2 0x213 DUP8 SLOAD PUSH2 0x8F4 JUMP JUMPDEST DUP8 PUSH2 0xB51 JUMP JUMPDEST PUSH1 0x20 SWAP1 PUSH1 0x1F DUP4 GT PUSH1 0x1 EQ PUSH2 0x602 JUMPI PUSH1 0x0 SWAP3 PUSH2 0x5F7 JUMPI JUMPDEST POP POP DUP2 PUSH1 0x1 SHL SWAP2 PUSH1 0x0 NOT SWAP1 PUSH1 0x3 SHL SHR NOT AND OR DUP3 SSTORE JUMPDEST PUSH1 0x20 DUP2 ADD MLOAD DUP1 MLOAD PUSH1 0x1 PUSH1 0x1 PUSH1 0x40 SHL SUB DUP2 GT PUSH2 0x47F JUMPI DUP1 PUSH1 0x1 DUP6 ADD SWAP3 PUSH2 0x273 DUP3 PUSH2 0x26D DUP7 SLOAD PUSH2 0x8F4 JUMP JUMPDEST DUP7 PUSH2 0xB51 JUMP JUMPDEST PUSH1 0x20 SWAP1 PUSH1 0x1F DUP4 GT PUSH1 0x1 EQ PUSH2 0x591 JUMPI PUSH1 0x0 SWAP3 PUSH2 0x586 JUMPI JUMPDEST POP POP DUP2 PUSH1 0x1 SHL SWAP2 PUSH1 0x0 NOT SWAP1 PUSH1 0x3 SHL SHR NOT AND OR SWAP1 SSTORE JUMPDEST PUSH1 0x40 DUP2 ADD MLOAD DUP1 MLOAD PUSH1 0x1 PUSH1 0x1 PUSH1 0x40 SHL SUB DUP2 GT PUSH2 0x47F JUMPI PUSH1 0x2 DUP5 ADD SWAP2 PUSH2 0x2CC DUP3 PUSH2 0x2C6 DUP6 SLOAD PUSH2 0x8F4 JUMP JUMPDEST DUP6 PUSH2 0xB51 JUMP JUMPDEST PUSH1 0x20 SWAP1 PUSH1 0x1F DUP4 GT PUSH1 0x1 EQ PUSH2 0x51A JUMPI PUSH1 0x60 SWAP5 SWAP4 SWAP3 SWAP2 PUSH1 0x0 SWAP2 DUP4 PUSH2 0x50F JUMPI JUMPDEST POP POP DUP2 PUSH1 0x1 SHL SWAP2 PUSH1 0x0 NOT SWAP1 PUSH1 0x3 SHL SHR NOT AND OR SWAP1 SSTORE JUMPDEST ADD MLOAD DUP1 MLOAD SWAP1 PUSH1 0x1 PUSH1 0x1 PUSH1 0x40 SHL SUB DUP3 GT PUSH2 0x47F JUMPI PUSH2 0x32B DUP3 PUSH2 0x322 PUSH1 0x3 DUP7 ADD SLOAD PUSH2 0x8F4 JUMP JUMPDEST PUSH1 0x3 DUP7 ADD PUSH2 0xB51 JUMP JUMPDEST PUSH1 0x20 SWAP1 PUSH1 0x1F DUP4 GT PUSH1 0x1 EQ PUSH2 0x4A0 JUMPI PUSH1 0x3 SWAP3 SWAP2 PUSH1 0x0 SWAP2 DUP4 PUSH2 0x495 JUMPI JUMPDEST POP POP DUP2 PUSH1 0x1 SHL SWAP2 PUSH1 0x0 NOT SWAP1 DUP5 SHL SHR NOT AND OR SWAP2 ADD SSTORE JUMPDEST PUSH2 0x387 PUSH1 0x40 MLOAD PUSH1 0x80 MLOAD PUSH2 0x100 MLOAD DUP3 CALLDATACOPY PUSH1 0x80 MLOAD DUP2 ADD PUSH1 0x2 DUP2 MSTORE PUSH1 0xC0 MLOAD SWAP2 PUSH1 0x20 DUP2 PUSH1 0xE0 MLOAD SWAP4 SUB ADD SWAP1 KECCAK256 PUSH2 0xBA5 JUMP JUMPDEST PUSH1 0x3 SLOAD PUSH9 0x10000000000000000 DUP2 LT ISZERO PUSH2 0x47F JUMPI DUP1 PUSH1 0x1 PUSH2 0x3AB SWAP3 ADD PUSH1 0x3 SSTORE PUSH2 0x8A7 JUMP JUMPDEST SWAP4 SWAP1 SWAP4 PUSH2 0x469 JUMPI PUSH32 0xDAD42C690E525354E4C6F4B2DA217BE79DB3BE68DC5C6C649CF8D3E1E4E49531 SWAP8 PUSH2 0x432 PUSH1 0xC0 SWAP8 PUSH2 0x464 SWAP8 PUSH2 0x424 PUSH2 0x440 SWAP7 PUSH2 0x416 SWAP13 PUSH2 0x3FE PUSH2 0x451 SWAP12 PUSH1 0x80 MLOAD SWAP1 PUSH2 0x100 MLOAD SWAP1 PUSH2 0xBA5 JUMP JUMPDEST PUSH1 0x40 MLOAD SWAP14 DUP14 DUP16 SWAP15 DUP16 SWAP1 DUP2 MSTORE ADD PUSH1 0x80 MLOAD PUSH2 0x100 MLOAD PUSH2 0xC68 JUMP JUMPDEST DUP14 DUP2 SUB PUSH1 0x20 DUP16 ADD MSTORE SWAP2 PUSH2 0xC68 JUMP JUMPDEST SWAP2 DUP11 DUP4 SUB PUSH1 0x40 DUP13 ADD MSTORE PUSH2 0xC68 JUMP JUMPDEST SWAP2 DUP8 DUP4 SUB PUSH1 0x60 DUP10 ADD MSTORE PUSH2 0xC68 JUMP JUMPDEST SWAP1 DUP5 DUP3 SUB PUSH1 0x80 DUP7 ADD MSTORE PUSH1 0xA0 MLOAD PUSH2 0xC68 JUMP JUMPDEST DUP3 DUP2 SUB PUSH1 0xA0 DUP5 ADD MSTORE PUSH1 0xC0 MLOAD PUSH1 0xE0 MLOAD PUSH2 0xC68 JUMP JUMPDEST SUB SWAP1 LOG1 STOP JUMPDEST PUSH4 0x4E487B71 PUSH1 0xE0 SHL PUSH1 0x0 MSTORE PUSH1 0x0 PUSH1 0x4 MSTORE PUSH1 0x24 PUSH1 0x0 REVERT JUMPDEST PUSH4 0x4E487B71 PUSH1 0xE0 SHL PUSH1 0x0 MSTORE PUSH1 0x41 PUSH1 0x4 MSTORE PUSH1 0x24 PUSH1 0x0 REVERT JUMPDEST ADD MLOAD SWAP1 POP DUP12 DUP1 PUSH2 0x346 JUMP JUMPDEST SWAP1 PUSH1 0x3 DUP5 ADD PUSH1 0x0 MSTORE PUSH1 0x20 PUSH1 0x0 KECCAK256 SWAP2 PUSH1 0x0 JUMPDEST PUSH1 0x1F NOT DUP6 AND DUP2 LT PUSH2 0x4F7 JUMPI POP SWAP2 DUP4 SWAP2 PUSH1 0x1 SWAP4 PUSH1 0x3 SWAP6 PUSH1 0x1F NOT DUP2 AND LT PUSH2 0x4DF JUMPI JUMPDEST POP POP POP DUP2 SHL ADD SWAP2 ADD SSTORE PUSH2 0x35B JUMP JUMPDEST ADD MLOAD PUSH1 0x0 NOT DUP4 DUP7 SHL PUSH1 0xF8 AND SHR NOT AND SWAP1 SSTORE DUP12 DUP1 DUP1 PUSH2 0x4D1 JUMP JUMPDEST SWAP2 SWAP3 PUSH1 0x20 PUSH1 0x1 DUP2 SWAP3 DUP7 DUP6 ADD MLOAD DUP2 SSTORE ADD SWAP5 ADD SWAP3 ADD PUSH2 0x4B1 JUMP JUMPDEST ADD MLOAD SWAP1 POP DUP14 DUP1 PUSH2 0x2E9 JUMP JUMPDEST SWAP1 PUSH1 0x1F NOT DUP4 AND SWAP2 DUP5 PUSH1 0x0 MSTORE PUSH1 0x20 PUSH1 0x0 KECCAK256 SWAP3 PUSH1 0x0 JUMPDEST DUP2 DUP2 LT PUSH2 0x56E JUMPI POP SWAP2 PUSH1 0x1 SWAP4 SWAP2 DUP6 PUSH1 0x60 SWAP9 SWAP8 SWAP7 SWAP5 LT PUSH2 0x555 JUMPI JUMPDEST POP POP POP DUP2 SHL ADD SWAP1 SSTORE PUSH2 0x2FE JUMP JUMPDEST ADD MLOAD PUSH1 0x0 NOT PUSH1 0xF8 DUP5 PUSH1 0x3 SHL AND SHR NOT AND SWAP1 SSTORE DUP14 DUP1 DUP1 PUSH2 0x548 JUMP JUMPDEST SWAP3 SWAP4 PUSH1 0x20 PUSH1 0x1 DUP2 SWAP3 DUP8 DUP7 ADD MLOAD DUP2 SSTORE ADD SWAP6 ADD SWAP4 ADD PUSH2 0x52E JUMP JUMPDEST ADD MLOAD SWAP1 POP DUP13 DUP1 PUSH2 0x289 JUMP JUMPDEST PUSH1 0x0 DUP6 DUP2 MSTORE PUSH1 0x20 DUP2 KECCAK256 SWAP4 POP PUSH1 0x1F NOT DUP6 AND SWAP1 JUMPDEST DUP2 DUP2 LT PUSH2 0x5DF JUMPI POP SWAP1 DUP5 PUSH1 0x1 SWAP6 SWAP5 SWAP4 SWAP3 LT PUSH2 0x5C6 JUMPI JUMPDEST POP POP POP DUP2 SHL ADD SWAP1 SSTORE PUSH2 0x29E JUMP JUMPDEST ADD MLOAD PUSH1 0x0 NOT PUSH1 0xF8 DUP5 PUSH1 0x3 SHL AND SHR NOT AND SWAP1 SSTORE DUP13 DUP1 DUP1 PUSH2 0x5B9 JUMP JUMPDEST SWAP3 SWAP4 PUSH1 0x20 PUSH1 0x1 DUP2 SWAP3 DUP8 DUP7 ADD MLOAD DUP2 SSTORE ADD SWAP6 ADD SWAP4 ADD PUSH2 0x5A3 JUMP JUMPDEST ADD MLOAD SWAP1 POP DUP12 DUP1 PUSH2 0x22F JUMP JUMPDEST PUSH1 0x0 DUP7 DUP2 MSTORE PUSH1 0x20 DUP2 KECCAK256 SWAP4 POP PUSH1 0x1F NOT DUP6 AND SWAP1 JUMPDEST DUP2 DUP2 LT PUSH2 0x650 JUMPI POP SWAP1 DUP5 PUSH1 0x1 SWAP6 SWAP5 SWAP4 SWAP3 LT PUSH2 0x637 JUMPI JUMPDEST POP POP POP DUP2 SHL ADD DUP3 SSTORE PUSH2 0x244 JUMP JUMPDEST ADD MLOAD PUSH1 0x0 NOT PUSH1 0xF8 DUP5 PUSH1 0x3 SHL AND SHR NOT AND SWAP1 SSTORE DUP12 DUP1 DUP1 PUSH2 0x62A JUMP JUMPDEST SWAP3 SWAP4 PUSH1 0x20 PUSH1 0x1 DUP2 SWAP3 DUP8 DUP7 ADD MLOAD DUP2 SSTORE ADD SWAP6 ADD SWAP4 ADD PUSH2 0x614 JUMP JUMPDEST PUSH1 0x40 MLOAD PUSH3 0x461BCD PUSH1 0xE5 SHL DUP2 MSTORE PUSH1 0x20 PUSH1 0x4 DUP3 ADD MSTORE PUSH1 0xB PUSH1 0x24 DUP3 ADD MSTORE PUSH11 0x139BDD081CDD195DD85C99 PUSH1 0xAA SHL PUSH1 0x44 DUP3 ADD MSTORE PUSH1 0x64 SWAP1 REVERT JUMPDEST CALLVALUE PUSH2 0x93 JUMPI PUSH2 0x6EA PUSH2 0x6D6 PUSH2 0x6C7 PUSH1 0x20 PUSH2 0x6B4 CALLDATASIZE PUSH2 0xA9E JUMP JUMPDEST DUP2 PUSH1 0x40 MLOAD SWAP4 DUP3 DUP6 DUP1 SWAP5 MLOAD SWAP4 DUP5 SWAP3 ADD PUSH2 0xA10 JUMP JUMPDEST DUP2 ADD PUSH1 0x2 DUP2 MSTORE SUB ADD SWAP1 KECCAK256 PUSH2 0x96A JUMP JUMPDEST PUSH1 0x40 MLOAD SWAP2 DUP3 SWAP2 PUSH1 0x20 DUP4 MSTORE PUSH1 0x20 DUP4 ADD SWAP1 PUSH2 0xA33 JUMP JUMPDEST SUB SWAP1 RETURN JUMPDEST CALLVALUE PUSH2 0x93 JUMPI PUSH1 0x0 CALLDATASIZE PUSH1 0x3 NOT ADD SLT PUSH2 0x93 JUMPI PUSH1 0x0 SLOAD PUSH1 0x40 MLOAD PUSH1 0x1 PUSH1 0x1 PUSH1 0xA0 SHL SUB SWAP1 SWAP2 AND DUP2 MSTORE PUSH1 0x20 SWAP1 RETURN JUMPDEST CALLVALUE PUSH2 0x93 JUMPI PUSH1 0x20 CALLDATASIZE PUSH1 0x3 NOT ADD SLT PUSH2 0x93 JUMPI PUSH1 0x4 CALLDATALOAD PUSH1 0x1 PUSH1 0x1 PUSH1 0x40 SHL SUB DUP2 GT PUSH2 0x93 JUMPI PUSH2 0x749 PUSH1 0x20 SWAP2 CALLDATASIZE SWAP1 PUSH1 0x4 ADD PUSH2 0xB24 JUMP JUMPDEST SWAP2 SWAP1 DUP3 PUSH1 0x40 MLOAD SWAP4 DUP5 SWAP3 DUP4 CALLDATACOPY DUP2 ADD PUSH1 0x1 DUP2 MSTORE SUB ADD SWAP1 KECCAK256 PUSH1 0x40 MLOAD PUSH2 0x76A DUP2 PUSH2 0x92E JUMP JUMPDEST PUSH2 0x773 DUP3 PUSH2 0x96A JUMP JUMPDEST DUP2 MSTORE PUSH2 0x6EA PUSH2 0x784 PUSH1 0x1 DUP5 ADD PUSH2 0x96A JUMP JUMPDEST SWAP2 PUSH1 0x20 DUP2 ADD SWAP3 DUP4 MSTORE PUSH2 0x7AB PUSH1 0x3 PUSH2 0x79D PUSH1 0x2 DUP8 ADD PUSH2 0x96A JUMP JUMPDEST SWAP6 PUSH1 0x40 DUP5 ADD SWAP7 DUP8 MSTORE ADD PUSH2 0x96A JUMP JUMPDEST SWAP1 DUP2 PUSH1 0x60 DUP3 ADD MSTORE MLOAD SWAP3 MLOAD SWAP4 MLOAD PUSH1 0x40 MLOAD SWAP5 DUP6 SWAP5 DUP6 PUSH2 0xADC JUMP JUMPDEST CALLVALUE PUSH2 0x93 JUMPI PUSH1 0x20 CALLDATASIZE PUSH1 0x3 NOT ADD SLT PUSH2 0x93 JUMPI PUSH1 0x4 CALLDATALOAD PUSH1 0x1 PUSH1 0x1 PUSH1 0x40 SHL SUB DUP2 GT PUSH2 0x93 JUMPI PUSH2 0x6D6 PUSH1 0x20 PUSH2 0x7FB PUSH2 0x6EA SWAP4 CALLDATASIZE SWAP1 PUSH1 0x4 ADD PUSH2 0xB24 JUMP JUMPDEST SWAP2 SWAP1 DUP3 PUSH1 0x40 MLOAD SWAP4 DUP5 SWAP3 DUP4 CALLDATACOPY DUP2 ADD PUSH1 0x2 DUP2 MSTORE SUB ADD SWAP1 KECCAK256 PUSH2 0x96A JUMP JUMPDEST CALLVALUE PUSH2 0x93 JUMPI PUSH2 0x828 PUSH1 0x20 PUSH2 0x6B4 CALLDATASIZE PUSH2 0xA9E JUMP JUMPDEST DUP2 ADD PUSH1 0x1 DUP2 MSTORE SUB ADD SWAP1 KECCAK256 PUSH2 0x83B DUP2 PUSH2 0x96A JUMP JUMPDEST PUSH2 0x6EA PUSH2 0x84A PUSH1 0x1 DUP5 ADD PUSH2 0x96A JUMP JUMPDEST SWAP3 PUSH2 0x863 PUSH1 0x3 PUSH2 0x85C PUSH1 0x2 DUP5 ADD PUSH2 0x96A JUMP JUMPDEST SWAP3 ADD PUSH2 0x96A JUMP JUMPDEST SWAP1 PUSH1 0x40 MLOAD SWAP5 DUP6 SWAP5 DUP6 PUSH2 0xADC JUMP JUMPDEST CALLVALUE PUSH2 0x93 JUMPI PUSH1 0x20 CALLDATASIZE PUSH1 0x3 NOT ADD SLT PUSH2 0x93 JUMPI PUSH1 0x4 CALLDATALOAD PUSH1 0x3 SLOAD DUP2 LT ISZERO PUSH2 0x93 JUMPI PUSH2 0x897 SWAP1 PUSH2 0x8A7 JUMP JUMPDEST PUSH2 0x469 JUMPI PUSH2 0x6D6 PUSH2 0x6EA SWAP2 PUSH2 0x96A JUMP JUMPDEST PUSH1 0x3 SLOAD DUP2 LT ISZERO PUSH2 0x8DE JUMPI PUSH1 0x3 PUSH1 0x0 MSTORE PUSH32 0xC2575A0E9E593C00F959F8C92F12DB2869C3395A3B0502D05E2516446F71F85B ADD SWAP1 PUSH1 0x0 SWAP1 JUMP JUMPDEST PUSH4 0x4E487B71 PUSH1 0xE0 SHL PUSH1 0x0 MSTORE PUSH1 0x32 PUSH1 0x4 MSTORE PUSH1 0x24 PUSH1 0x0 REVERT JUMPDEST SWAP1 PUSH1 0x1 DUP3 DUP2 SHR SWAP3 AND DUP1 ISZERO PUSH2 0x924 JUMPI JUMPDEST PUSH1 0x20 DUP4 LT EQ PUSH2 0x90E JUMPI JUMP JUMPDEST PUSH4 0x4E487B71 PUSH1 0xE0 SHL PUSH1 0x0 MSTORE PUSH1 0x22 PUSH1 0x4 MSTORE PUSH1 0x24 PUSH1 0x0 REVERT JUMPDEST SWAP2 PUSH1 0x7F AND SWAP2 PUSH2 0x903 JUMP JUMPDEST PUSH1 0x80 DUP2 ADD SWAP1 DUP2 LT PUSH1 0x1 PUSH1 0x1 PUSH1 0x40 SHL SUB DUP3 GT OR PUSH2 0x47F JUMPI PUSH1 0x40 MSTORE JUMP JUMPDEST SWAP1 PUSH1 0x1F DUP1 NOT SWAP2 ADD AND DUP2 ADD SWAP1 DUP2 LT PUSH1 0x1 PUSH1 0x1 PUSH1 0x40 SHL SUB DUP3 GT OR PUSH2 0x47F JUMPI PUSH1 0x40 MSTORE JUMP JUMPDEST SWAP1 PUSH1 0x40 MLOAD SWAP2 DUP3 PUSH1 0x0 DUP3 SLOAD SWAP3 PUSH2 0x97E DUP5 PUSH2 0x8F4 JUMP JUMPDEST SWAP1 DUP2 DUP5 MSTORE PUSH1 0x1 SWAP5 DUP6 DUP2 AND SWAP1 DUP2 PUSH1 0x0 EQ PUSH2 0x9ED JUMPI POP PUSH1 0x1 EQ PUSH2 0x9AA JUMPI JUMPDEST POP POP PUSH2 0x9A8 SWAP3 POP SUB DUP4 PUSH2 0x949 JUMP JUMPDEST JUMP JUMPDEST SWAP1 SWAP4 SWAP2 POP PUSH1 0x0 MSTORE PUSH1 0x20 SWAP1 DUP2 PUSH1 0x0 KECCAK256 SWAP4 PUSH1 0x0 SWAP2 JUMPDEST DUP2 DUP4 LT PUSH2 0x9D5 JUMPI POP POP PUSH2 0x9A8 SWAP4 POP DUP3 ADD ADD CODESIZE DUP1 PUSH2 0x99A JUMP JUMPDEST DUP6 SLOAD DUP9 DUP5 ADD DUP6 ADD MSTORE SWAP5 DUP6 ADD SWAP5 DUP8 SWAP5 POP SWAP2 DUP4 ADD SWAP2 PUSH2 0x9BD JUMP JUMPDEST SWAP2 POP POP PUSH2 0x9A8 SWAP5 POP PUSH1 0x20 SWAP3 POP PUSH1 0xFF NOT AND DUP3 DUP5 ADD MSTORE ISZERO ISZERO PUSH1 0x5 SHL DUP3 ADD ADD CODESIZE DUP1 PUSH2 0x99A JUMP JUMPDEST PUSH1 0x0 JUMPDEST DUP4 DUP2 LT PUSH2 0xA23 JUMPI POP POP PUSH1 0x0 SWAP2 ADD MSTORE JUMP JUMPDEST DUP2 DUP2 ADD MLOAD DUP4 DUP3 ADD MSTORE PUSH1 0x20 ADD PUSH2 0xA13 JUMP JUMPDEST SWAP1 PUSH1 0x20 SWAP2 PUSH2 0xA4C DUP2 MLOAD DUP1 SWAP3 DUP2 DUP6 MSTORE DUP6 DUP1 DUP7 ADD SWAP2 ADD PUSH2 0xA10 JUMP JUMPDEST PUSH1 0x1F ADD PUSH1 0x1F NOT AND ADD ADD SWAP1 JUMP JUMPDEST SWAP3 SWAP2 SWAP3 PUSH1 0x1 PUSH1 0x1 PUSH1 0x40 SHL SUB DUP3 GT PUSH2 0x47F JUMPI PUSH1 0x40 MLOAD SWAP2 PUSH2 0xA81 PUSH1 0x1F DUP3 ADD PUSH1 0x1F NOT AND PUSH1 0x20 ADD DUP5 PUSH2 0x949 JUMP JUMPDEST DUP3 SWAP5 DUP2 DUP5 MSTORE DUP2 DUP4 ADD GT PUSH2 0x93 JUMPI DUP3 DUP2 PUSH1 0x20 SWAP4 DUP5 PUSH1 0x0 SWAP7 ADD CALLDATACOPY ADD ADD MSTORE JUMP JUMPDEST PUSH1 0x20 PUSH1 0x3 NOT DUP3 ADD SLT PUSH2 0x93 JUMPI PUSH1 0x4 CALLDATALOAD SWAP1 PUSH1 0x1 PUSH1 0x1 PUSH1 0x40 SHL SUB DUP3 GT PUSH2 0x93 JUMPI DUP1 PUSH1 0x23 DUP4 ADD SLT ISZERO PUSH2 0x93 JUMPI DUP2 PUSH1 0x24 PUSH2 0xAD9 SWAP4 PUSH1 0x4 ADD CALLDATALOAD SWAP2 ADD PUSH2 0xA58 JUMP JUMPDEST SWAP1 JUMP JUMPDEST SWAP3 PUSH2 0xB08 PUSH2 0xAD9 SWAP6 SWAP4 PUSH2 0xAFA PUSH2 0xB16 SWAP5 PUSH1 0x80 DUP9 MSTORE PUSH1 0x80 DUP9 ADD SWAP1 PUSH2 0xA33 JUMP JUMPDEST SWAP1 DUP7 DUP3 SUB PUSH1 0x20 DUP9 ADD MSTORE PUSH2 0xA33 JUMP JUMPDEST SWAP1 DUP5 DUP3 SUB PUSH1 0x40 DUP7 ADD MSTORE PUSH2 0xA33 JUMP JUMPDEST SWAP2 PUSH1 0x60 DUP2 DUP5 SUB SWAP2 ADD MSTORE PUSH2 0xA33 JUMP JUMPDEST SWAP2 DUP2 PUSH1 0x1F DUP5 ADD SLT ISZERO PUSH2 0x93 JUMPI DUP3 CALLDATALOAD SWAP2 PUSH1 0x1 PUSH1 0x1 PUSH1 0x40 SHL SUB DUP4 GT PUSH2 0x93 JUMPI PUSH1 0x20 DUP4 DUP2 DUP7 ADD SWAP6 ADD ADD GT PUSH2 0x93 JUMPI JUMP JUMPDEST SWAP1 PUSH1 0x1F DUP2 GT PUSH2 0xB5F JUMPI POP POP POP JUMP JUMPDEST PUSH1 0x0 SWAP2 DUP3 MSTORE PUSH1 0x20 DUP3 KECCAK256 SWAP1 PUSH1 0x20 PUSH1 0x1F DUP6 ADD PUSH1 0x5 SHR DUP4 ADD SWAP5 LT PUSH2 0xB9B JUMPI JUMPDEST PUSH1 0x1F ADD PUSH1 0x5 SHR ADD SWAP2 JUMPDEST DUP3 DUP2 LT PUSH2 0xB90 JUMPI POP POP POP JUMP JUMPDEST DUP2 DUP2 SSTORE PUSH1 0x1 ADD PUSH2 0xB84 JUMP JUMPDEST SWAP1 SWAP3 POP DUP3 SWAP1 PUSH2 0xB7B JUMP JUMPDEST SWAP1 SWAP3 SWAP2 PUSH1 0x1 PUSH1 0x1 PUSH1 0x40 SHL SUB DUP2 GT PUSH2 0x47F JUMPI PUSH2 0xBCA DUP2 PUSH2 0xBC4 DUP5 SLOAD PUSH2 0x8F4 JUMP JUMPDEST DUP5 PUSH2 0xB51 JUMP JUMPDEST PUSH1 0x0 PUSH1 0x1F DUP3 GT PUSH1 0x1 EQ PUSH2 0xC04 JUMPI DUP2 SWAP3 SWAP4 SWAP5 PUSH1 0x0 SWAP3 PUSH2 0xBF9 JUMPI JUMPDEST POP POP DUP2 PUSH1 0x1 SHL SWAP2 PUSH1 0x0 NOT SWAP1 PUSH1 0x3 SHL SHR NOT AND OR SWAP1 SSTORE JUMP JUMPDEST ADD CALLDATALOAD SWAP1 POP CODESIZE DUP1 PUSH2 0xBE3 JUMP JUMPDEST PUSH1 0x1F NOT DUP3 AND SWAP5 DUP4 DUP3 MSTORE PUSH1 0x20 SWAP2 DUP3 DUP2 KECCAK256 SWAP3 DUP2 SWAP1 JUMPDEST DUP9 DUP3 LT PUSH2 0xC50 JUMPI POP POP DUP4 PUSH1 0x1 SWAP6 SWAP7 SWAP8 LT PUSH2 0xC36 JUMPI JUMPDEST POP POP POP DUP2 SHL ADD SWAP1 SSTORE JUMP JUMPDEST ADD CALLDATALOAD PUSH1 0x0 NOT PUSH1 0x3 DUP5 SWAP1 SHL PUSH1 0xF8 AND SHR NOT AND SWAP1 SSTORE CODESIZE DUP1 DUP1 PUSH2 0xC2C JUMP JUMPDEST DUP1 PUSH1 0x1 DUP5 SWAP7 DUP3 SWAP5 SWAP6 DUP8 ADD CALLDATALOAD DUP2 SSTORE ADD SWAP6 ADD SWAP3 ADD SWAP1 PUSH2 0xC17 JUMP JUMPDEST SWAP1 DUP1 PUSH1 0x20 SWAP4 SWAP3 DUP2 DUP5 MSTORE DUP5 DUP5 ADD CALLDATACOPY PUSH1 0x0 DUP3 DUP3 ADD DUP5 ADD MSTORE PUSH1 0x1F ADD PUSH1 0x1F NOT AND ADD ADD SWAP1 JUMP INVALID LOG2 PUSH5 0x6970667358 0x22 SLT KECCAK256 0xDB DUP15 0xEB PUSH5 0x220026E4BB SWAP5 0x49 INVALID 0xBC MUL EQ 0xCC LOG3 0xDF RETURNDATASIZE SUB PUSH1 0xEA SWAP7 0x2B 0x21 0xF8 0xD5 0xEF DUP16 GASPRICE CREATE2 DUP1 PUSH5 0x736F6C6343 STOP ADDMOD EQ STOP CALLER "},"methodIdentifiers":{"core(string)":"1324da83","getCore(string)":"609c544b","getResonance(string)":"46b41068","inscribeCodex(string,string,string,string,string,string)":"94c58908","keys(uint256)":"0cb6aaf1","resonance(string)":"71a5d4bd","steward()":"637eea19","totalCodices()":"c212d16b"}}}}}