{"contracts/registry/ApprenticeSummonerV3.sol":{"ApprenticeSummonerV3":{"abi":[{"inputs":[],"stateMutability":"nonpayable","type":"constructor"},{"anonymous":false,"inputs":[{"indexed":true,"internalType":"address","name":"apprentice","type":"address"},{"indexed":false,"internalType":"string","name":"name","type":"string"},{"indexed":false,"internalType":"string","name":"signal","type":"string"},{"indexed":false,"internalType":"string","name":"drift","type":"string"},{"indexed":false,"internalType":"string","name":"pulse","type":"string"},{"indexed":false,"internalType":"string","name":"codexRef","type":"string"},{"indexed":false,"internalType":"string","name":"resonance","type":"string"}],"name":"ApprenticeSummoned","type":"event"},{"inputs":[{"internalType":"uint256","name":"","type":"uint256"}],"name":"apprentices","outputs":[{"internalType":"address","name":"","type":"address"}],"stateMutability":"view","type":"function"},{"inputs":[{"internalType":"address","name":"apprentice","type":"address"}],"name":"getSummons","outputs":[{"internalType":"string","name":"","type":"string"},{"internalType":"string","name":"","type":"string"},{"internalType":"string","name":"","type":"string"},{"internalType":"string","name":"","type":"string"},{"internalType":"string","name":"","type":"string"},{"internalType":"string","name":"","type":"string"}],"stateMutability":"view","type":"function"},{"inputs":[],"name":"steward","outputs":[{"internalType":"address","name":"","type":"address"}],"stateMutability":"view","type":"function"},{"inputs":[{"internalType":"address","name":"apprentice","type":"address"},{"internalType":"string","name":"name","type":"string"},{"internalType":"string","name":"signal","type":"string"},{"internalType":"string","name":"drift","type":"string"},{"internalType":"string","name":"pulse","type":"string"},{"internalType":"string","name":"codexRef","type":"string"},{"internalType":"string","name":"resonance","type":"string"}],"name":"summonApprentice","outputs":[],"stateMutability":"nonpayable","type":"function"},{"inputs":[{"internalType":"address","name":"","type":"address"}],"name":"summons","outputs":[{"internalType":"string","name":"name","type":"string"},{"internalType":"string","name":"signal","type":"string"},{"internalType":"string","name":"drift","type":"string"},{"internalType":"string","name":"pulse","type":"string"},{"internalType":"string","name":"codexRef","type":"string"},{"internalType":"string","name":"resonance","type":"string"}],"stateMutability":"view","type":"function"},{"inputs":[],"name":"totalSummons","outputs":[{"internalType":"uint256","name":"","type":"uint256"}],"stateMutability":"view","type":"function"}],"evm":{"bytecode":{"linkReferences":{},"object":"6080806040523461002857600080546001600160a01b03191633179055610ebc908161002e8239f35b600080fdfe608080604052600436101561001357600080fd5b60003560e01c908163270c8c541461023a575080632a17d4cd1461021c5780635a2ed66214610196578063637eea191461016d578063cf84c603146100a85763f31bee3e1461006157600080fd5b346100a35760203660031901126100a3576004356002548110156100a35761008a602091610dd2565b905460405160039290921b1c6001600160a01b03168152f35b600080fd5b346100a35760203660031901126100a3576001600160a01b036100c9610bc3565b16600052600160205260406000206040516100e381610c40565b6100ec82610c7c565b81526101696100fd60018401610c7c565b916020810192835261011160028501610c7c565b936040820194855261012560038201610c7c565b906060830191825261014c600561013e60048401610c7c565b926080860193845201610c7c565b928360a08201525194519551915190519160405196879687610d62565b0390f35b346100a35760003660031901126100a3576000546040516001600160a01b039091168152602090f35b346100a35760203660031901126100a3576001600160a01b036101b7610bc3565b16600052600160205260406000206101ce81610c7c565b6101696101dd60018401610c7c565b926101ea60028201610c7c565b906101f760038201610c7c565b61020f600561020860048501610c7c565b9301610c7c565b9260405196879687610d62565b346100a35760003660031901126100a3576020600254604051908152f35b346100a35760e03660031901126100a357610253610bc3565b906024356001600160401b0381116100a357610273903690600401610bd9565b90916044356001600160401b0381116100a357610294903690600401610bd9565b94906064356001600160401b0381116100a3576102b5903690600401610bd9565b906084356001600160401b0381116100a3576102d5903690600401610bd9565b909160a4356001600160401b0381116100a3576102f6903690600401610bd9565b9490956001600160401b0360c435116100a3576103183660c435600401610bd9565b600054909d919a906001600160a01b03163303610b9357506040516103968e61034c8f8f61034586610c40565b3691610e1f565b8352610359368587610e1f565b6020840152610369368789610e1f565b604084015261037936898b610e1f565b6060840152610389368b8d610e1f565b608084015236908d610e1f565b60a082015260018060a01b038a16600052600160205260406000209080518051906001600160401b0382116106bd5781906103d18554610c06565b601f8111610b43575b50602090601f8311600114610ad757600092610acc575b50508160011b916000199060031b1c19161782555b60208101518051906001600160401b0382116106bd57819061042b6001860154610c06565b601f8111610a79575b50602090601f8311600114610a07576000926109fc575b50508160011b916000199060031b1c19161760018301555b60408101518051906001600160401b0382116106bd5781906104886002860154610c06565b601f81116109a9575b50602090601f83116001146109375760009261092c575b50508160011b916000199060031b1c19161760028301555b60608101518051906001600160401b0382116106bd5781906104e56003860154610c06565b601f81116108d9575b50602090601f83116001146108675760009261085c575b50508160011b916000199060031b1c19161760038301555b60808101518051906001600160401b0382116106bd576105406004850154610c06565b601f8111610815575b50602090601f83116001146107a25760a093929160009183610797575b50508160011b916000199060031b1c19161760048401555b01518051906001600160401b0382116106bd5761059e6005840154610c06565b601f811161074c575b50602090601f83116001146106de5760059291600091836106d3575b50508160011b916000199060031b1c1916179101555b600254680100000000000000008110156106bd57600181016002556105fd90610dd2565b81546001600160a01b038c811660039390931b92831b921b191617905560405160c0808252909c8d9c610632928e0191610e65565b908b820360208d015261064492610e65565b9089820360408b015261065692610e65565b90878203606089015261066892610e65565b90858203608087015261067a92610e65565b83810360a08501526001600160a01b039091169461069792610e65565b037f8018fda5955c72b8d0b6b1459307ad3d73e7282f26e3ae1bf1388a2e7f3b982391a2005b634e487b7160e01b600052604160045260246000fd5b0151905038806105c3565b90601f198316916005850160005260206000209260005b8181106107345750916001939185600596941061071b575b505050811b019101556105d9565b015160001960f88460031b161c1916905538808061070d565b929360206001819287860151815501950193016106f5565b600584016000526020600020601f840160051c8101916020851061078d575b601f0160051c01905b81811061078157506105a7565b60008155600101610774565b909150819061076b565b015190503880610566565b906004850160005260206000209160005b601f19851681106107fd575091839160019360a09695601f198116106107e4575b505050811b01600484015561057e565b015160001960f88460031b161c191690553880806107d4565b919260206001819286850151815501940192016107b3565b600485016000526020600020601f840160051c810160208510610855575b601f830160051c82018110610849575050610549565b60008155600101610833565b5080610833565b015190503880610505565b9250600385016000526020600020906000935b601f19841685106108be576001945083601f198116106108a5575b505050811b01600383015561051d565b015160001960f88460031b161c19169055388080610895565b8181015183556020948501946001909301929091019061087a565b909150600385016000526020600020601f840160051c810160208510610925575b90849392915b601f830160051c820181106109165750506104ee565b60008155859450600101610900565b50806108fa565b0151905038806104a8565b9250600285016000526020600020906000935b601f198416851061098e576001945083601f19811610610975575b505050811b0160028301556104c0565b015160001960f88460031b161c19169055388080610965565b8181015183556020948501946001909301929091019061094a565b909150600285016000526020600020601f840160051c8101602085106109f5575b90849392915b601f830160051c820181106109e6575050610491565b600081558594506001016109d0565b50806109ca565b01519050388061044b565b9250600185016000526020600020906000935b601f1984168510610a5e576001945083601f19811610610a45575b505050811b016001830155610463565b015160001960f88460031b161c19169055388080610a35565b81810151835560209485019460019093019290910190610a1a565b909150600185016000526020600020601f840160051c810160208510610ac5575b90849392915b601f830160051c82018110610ab6575050610434565b60008155859450600101610aa0565b5080610a9a565b0151905038806103f1565b9250846000526020600020906000935b601f1984168510610b28576001945083601f19811610610b0f575b505050811b018255610406565b015160001960f88460031b161c19169055388080610b02565b81810151835560209485019460019093019290910190610ae7565b909150846000526020600020601f840160051c810160208510610b8c575b90849392915b601f830160051c82018110610b7d5750506103da565b60008155859450600101610b67565b5080610b61565b62461bcd60e51b815260206004820152600b60248201526a139bdd081cdd195dd85c9960aa1b6044820152606490fd5b600435906001600160a01b03821682036100a357565b9181601f840112156100a3578235916001600160401b0383116100a357602083818601950101116100a357565b90600182811c92168015610c36575b6020831014610c2057565b634e487b7160e01b600052602260045260246000fd5b91607f1691610c15565b60c081019081106001600160401b038211176106bd57604052565b90601f801991011681019081106001600160401b038211176106bd57604052565b9060405191826000825492610c9084610c06565b908184526001948581169081600014610cff5750600114610cbc575b5050610cba92500383610c5b565b565b9093915060005260209081600020936000915b818310610ce7575050610cba93508201013880610cac565b85548884018501529485019487945091830191610ccf565b915050610cba94506020925060ff191682840152151560051b8201013880610cac565b919082519283825260005b848110610d4e575050826000602080949584010152601f8019910116010190565b602081830181015184830182015201610d2d565b949193610da5610dc194610d97610dcf9997610d89610db39660c08c5260c08c0190610d22565b908a820360208c0152610d22565b9088820360408a0152610d22565b908682036060880152610d22565b908482036080860152610d22565b9160a0818403910152610d22565b90565b600254811015610e095760026000527f405787fa12a823e0f2b7631cc41b3ba8828b3321ca811111fa75cd3aa3bb5ace0190600090565b634e487b7160e01b600052603260045260246000fd5b9291926001600160401b0382116106bd5760405191610e48601f8201601f191660200184610c5b565b8294818452818301116100a3578281602093846000960137010152565b908060209392818452848401376000828201840152601f01601f191601019056fea2646970667358221220cadba8e0916b4c03c201a664e94eb2319232789818a0846ae79b8d93176d2f0464736f6c63430008140033","opcodes":"PUSH1 0x80 DUP1 PUSH1 0x40 MSTORE CALLVALUE PUSH2 0x28 JUMPI PUSH1 0x0 DUP1 SLOAD PUSH1 0x1 PUSH1 0x1 PUSH1 0xA0 SHL SUB NOT AND CALLER OR SWAP1 SSTORE PUSH2 0xEBC SWAP1 DUP2 PUSH2 0x2E DUP3 CODECOPY RETURN JUMPDEST PUSH1 0x0 DUP1 REVERT INVALID PUSH1 0x80 DUP1 PUSH1 0x40 MSTORE PUSH1 0x4 CALLDATASIZE LT ISZERO PUSH2 0x13 JUMPI PUSH1 0x0 DUP1 REVERT JUMPDEST PUSH1 0x0 CALLDATALOAD PUSH1 0xE0 SHR SWAP1 DUP2 PUSH4 0x270C8C54 EQ PUSH2 0x23A JUMPI POP DUP1 PUSH4 0x2A17D4CD EQ PUSH2 0x21C JUMPI DUP1 PUSH4 0x5A2ED662 EQ PUSH2 0x196 JUMPI DUP1 PUSH4 0x637EEA19 EQ PUSH2 0x16D JUMPI DUP1 PUSH4 0xCF84C603 EQ PUSH2 0xA8 JUMPI PUSH4 0xF31BEE3E EQ PUSH2 0x61 JUMPI PUSH1 0x0 DUP1 REVERT JUMPDEST CALLVALUE PUSH2 0xA3 JUMPI PUSH1 0x20 CALLDATASIZE PUSH1 0x3 NOT ADD SLT PUSH2 0xA3 JUMPI PUSH1 0x4 CALLDATALOAD PUSH1 0x2 SLOAD DUP2 LT ISZERO PUSH2 0xA3 JUMPI PUSH2 0x8A PUSH1 0x20 SWAP2 PUSH2 0xDD2 JUMP JUMPDEST SWAP1 SLOAD PUSH1 0x40 MLOAD PUSH1 0x3 SWAP3 SWAP1 SWAP3 SHL SHR PUSH1 0x1 PUSH1 0x1 PUSH1 0xA0 SHL SUB AND DUP2 MSTORE RETURN JUMPDEST PUSH1 0x0 DUP1 REVERT JUMPDEST CALLVALUE PUSH2 0xA3 JUMPI PUSH1 0x20 CALLDATASIZE PUSH1 0x3 NOT ADD SLT PUSH2 0xA3 JUMPI PUSH1 0x1 PUSH1 0x1 PUSH1 0xA0 SHL SUB PUSH2 0xC9 PUSH2 0xBC3 JUMP JUMPDEST AND PUSH1 0x0 MSTORE PUSH1 0x1 PUSH1 0x20 MSTORE PUSH1 0x40 PUSH1 0x0 KECCAK256 PUSH1 0x40 MLOAD PUSH2 0xE3 DUP2 PUSH2 0xC40 JUMP JUMPDEST PUSH2 0xEC DUP3 PUSH2 0xC7C JUMP JUMPDEST DUP2 MSTORE PUSH2 0x169 PUSH2 0xFD PUSH1 0x1 DUP5 ADD PUSH2 0xC7C JUMP JUMPDEST SWAP2 PUSH1 0x20 DUP2 ADD SWAP3 DUP4 MSTORE PUSH2 0x111 PUSH1 0x2 DUP6 ADD PUSH2 0xC7C JUMP JUMPDEST SWAP4 PUSH1 0x40 DUP3 ADD SWAP5 DUP6 MSTORE PUSH2 0x125 PUSH1 0x3 DUP3 ADD PUSH2 0xC7C JUMP JUMPDEST SWAP1 PUSH1 0x60 DUP4 ADD SWAP2 DUP3 MSTORE PUSH2 0x14C PUSH1 0x5 PUSH2 0x13E PUSH1 0x4 DUP5 ADD PUSH2 0xC7C JUMP JUMPDEST SWAP3 PUSH1 0x80 DUP7 ADD SWAP4 DUP5 MSTORE ADD PUSH2 0xC7C JUMP JUMPDEST SWAP3 DUP4 PUSH1 0xA0 DUP3 ADD MSTORE MLOAD SWAP5 MLOAD SWAP6 MLOAD SWAP2 MLOAD SWAP1 MLOAD SWAP2 PUSH1 0x40 MLOAD SWAP7 DUP8 SWAP7 DUP8 PUSH2 0xD62 JUMP JUMPDEST SUB SWAP1 RETURN JUMPDEST CALLVALUE PUSH2 0xA3 JUMPI PUSH1 0x0 CALLDATASIZE PUSH1 0x3 NOT ADD SLT PUSH2 0xA3 JUMPI PUSH1 0x0 SLOAD PUSH1 0x40 MLOAD PUSH1 0x1 PUSH1 0x1 PUSH1 0xA0 SHL SUB SWAP1 SWAP2 AND DUP2 MSTORE PUSH1 0x20 SWAP1 RETURN JUMPDEST CALLVALUE PUSH2 0xA3 JUMPI PUSH1 0x20 CALLDATASIZE PUSH1 0x3 NOT ADD SLT PUSH2 0xA3 JUMPI PUSH1 0x1 PUSH1 0x1 PUSH1 0xA0 SHL SUB PUSH2 0x1B7 PUSH2 0xBC3 JUMP JUMPDEST AND PUSH1 0x0 MSTORE PUSH1 0x1 PUSH1 0x20 MSTORE PUSH1 0x40 PUSH1 0x0 KECCAK256 PUSH2 0x1CE DUP2 PUSH2 0xC7C JUMP JUMPDEST PUSH2 0x169 PUSH2 0x1DD PUSH1 0x1 DUP5 ADD PUSH2 0xC7C JUMP JUMPDEST SWAP3 PUSH2 0x1EA PUSH1 0x2 DUP3 ADD PUSH2 0xC7C JUMP JUMPDEST SWAP1 PUSH2 0x1F7 PUSH1 0x3 DUP3 ADD PUSH2 0xC7C JUMP JUMPDEST PUSH2 0x20F PUSH1 0x5 PUSH2 0x208 PUSH1 0x4 DUP6 ADD PUSH2 0xC7C JUMP JUMPDEST SWAP4 ADD PUSH2 0xC7C JUMP JUMPDEST SWAP3 PUSH1 0x40 MLOAD SWAP7 DUP8 SWAP7 DUP8 PUSH2 0xD62 JUMP JUMPDEST CALLVALUE PUSH2 0xA3 JUMPI PUSH1 0x0 CALLDATASIZE PUSH1 0x3 NOT ADD SLT PUSH2 0xA3 JUMPI PUSH1 0x20 PUSH1 0x2 SLOAD PUSH1 0x40 MLOAD SWAP1 DUP2 MSTORE RETURN JUMPDEST CALLVALUE PUSH2 0xA3 JUMPI PUSH1 0xE0 CALLDATASIZE PUSH1 0x3 NOT ADD SLT PUSH2 0xA3 JUMPI PUSH2 0x253 PUSH2 0xBC3 JUMP JUMPDEST SWAP1 PUSH1 0x24 CALLDATALOAD PUSH1 0x1 PUSH1 0x1 PUSH1 0x40 SHL SUB DUP2 GT PUSH2 0xA3 JUMPI PUSH2 0x273 SWAP1 CALLDATASIZE SWAP1 PUSH1 0x4 ADD PUSH2 0xBD9 JUMP JUMPDEST SWAP1 SWAP2 PUSH1 0x44 CALLDATALOAD PUSH1 0x1 PUSH1 0x1 PUSH1 0x40 SHL SUB DUP2 GT PUSH2 0xA3 JUMPI PUSH2 0x294 SWAP1 CALLDATASIZE SWAP1 PUSH1 0x4 ADD PUSH2 0xBD9 JUMP JUMPDEST SWAP5 SWAP1 PUSH1 0x64 CALLDATALOAD PUSH1 0x1 PUSH1 0x1 PUSH1 0x40 SHL SUB DUP2 GT PUSH2 0xA3 JUMPI PUSH2 0x2B5 SWAP1 CALLDATASIZE SWAP1 PUSH1 0x4 ADD PUSH2 0xBD9 JUMP JUMPDEST SWAP1 PUSH1 0x84 CALLDATALOAD PUSH1 0x1 PUSH1 0x1 PUSH1 0x40 SHL SUB DUP2 GT PUSH2 0xA3 JUMPI PUSH2 0x2D5 SWAP1 CALLDATASIZE SWAP1 PUSH1 0x4 ADD PUSH2 0xBD9 JUMP JUMPDEST SWAP1 SWAP2 PUSH1 0xA4 CALLDATALOAD PUSH1 0x1 PUSH1 0x1 PUSH1 0x40 SHL SUB DUP2 GT PUSH2 0xA3 JUMPI PUSH2 0x2F6 SWAP1 CALLDATASIZE SWAP1 PUSH1 0x4 ADD PUSH2 0xBD9 JUMP JUMPDEST SWAP5 SWAP1 SWAP6 PUSH1 0x1 PUSH1 0x1 PUSH1 0x40 SHL SUB PUSH1 0xC4 CALLDATALOAD GT PUSH2 0xA3 JUMPI PUSH2 0x318 CALLDATASIZE PUSH1 0xC4 CALLDATALOAD PUSH1 0x4 ADD PUSH2 0xBD9 JUMP JUMPDEST PUSH1 0x0 SLOAD SWAP1 SWAP14 SWAP2 SWAP11 SWAP1 PUSH1 0x1 PUSH1 0x1 PUSH1 0xA0 SHL SUB AND CALLER SUB PUSH2 0xB93 JUMPI POP PUSH1 0x40 MLOAD PUSH2 0x396 DUP15 PUSH2 0x34C DUP16 DUP16 PUSH2 0x345 DUP7 PUSH2 0xC40 JUMP JUMPDEST CALLDATASIZE SWAP2 PUSH2 0xE1F JUMP JUMPDEST DUP4 MSTORE PUSH2 0x359 CALLDATASIZE DUP6 DUP8 PUSH2 0xE1F JUMP JUMPDEST PUSH1 0x20 DUP5 ADD MSTORE PUSH2 0x369 CALLDATASIZE DUP8 DUP10 PUSH2 0xE1F JUMP JUMPDEST PUSH1 0x40 DUP5 ADD MSTORE PUSH2 0x379 CALLDATASIZE DUP10 DUP12 PUSH2 0xE1F JUMP JUMPDEST PUSH1 0x60 DUP5 ADD MSTORE PUSH2 0x389 CALLDATASIZE DUP12 DUP14 PUSH2 0xE1F JUMP JUMPDEST PUSH1 0x80 DUP5 ADD MSTORE CALLDATASIZE SWAP1 DUP14 PUSH2 0xE1F JUMP JUMPDEST PUSH1 0xA0 DUP3 ADD MSTORE PUSH1 0x1 DUP1 PUSH1 0xA0 SHL SUB DUP11 AND PUSH1 0x0 MSTORE PUSH1 0x1 PUSH1 0x20 MSTORE PUSH1 0x40 PUSH1 0x0 KECCAK256 SWAP1 DUP1 MLOAD DUP1 MLOAD SWAP1 PUSH1 0x1 PUSH1 0x1 PUSH1 0x40 SHL SUB DUP3 GT PUSH2 0x6BD JUMPI DUP2 SWAP1 PUSH2 0x3D1 DUP6 SLOAD PUSH2 0xC06 JUMP JUMPDEST PUSH1 0x1F DUP2 GT PUSH2 0xB43 JUMPI JUMPDEST POP PUSH1 0x20 SWAP1 PUSH1 0x1F DUP4 GT PUSH1 0x1 EQ PUSH2 0xAD7 JUMPI PUSH1 0x0 SWAP3 PUSH2 0xACC JUMPI JUMPDEST POP POP DUP2 PUSH1 0x1 SHL SWAP2 PUSH1 0x0 NOT SWAP1 PUSH1 0x3 SHL SHR NOT AND OR DUP3 SSTORE JUMPDEST PUSH1 0x20 DUP2 ADD MLOAD DUP1 MLOAD SWAP1 PUSH1 0x1 PUSH1 0x1 PUSH1 0x40 SHL SUB DUP3 GT PUSH2 0x6BD JUMPI DUP2 SWAP1 PUSH2 0x42B PUSH1 0x1 DUP7 ADD SLOAD PUSH2 0xC06 JUMP JUMPDEST PUSH1 0x1F DUP2 GT PUSH2 0xA79 JUMPI JUMPDEST POP PUSH1 0x20 SWAP1 PUSH1 0x1F DUP4 GT PUSH1 0x1 EQ PUSH2 0xA07 JUMPI PUSH1 0x0 SWAP3 PUSH2 0x9FC JUMPI JUMPDEST POP POP DUP2 PUSH1 0x1 SHL SWAP2 PUSH1 0x0 NOT SWAP1 PUSH1 0x3 SHL SHR NOT AND OR PUSH1 0x1 DUP4 ADD SSTORE JUMPDEST PUSH1 0x40 DUP2 ADD MLOAD DUP1 MLOAD SWAP1 PUSH1 0x1 PUSH1 0x1 PUSH1 0x40 SHL SUB DUP3 GT PUSH2 0x6BD JUMPI DUP2 SWAP1 PUSH2 0x488 PUSH1 0x2 DUP7 ADD SLOAD PUSH2 0xC06 JUMP JUMPDEST PUSH1 0x1F DUP2 GT PUSH2 0x9A9 JUMPI JUMPDEST POP PUSH1 0x20 SWAP1 PUSH1 0x1F DUP4 GT PUSH1 0x1 EQ PUSH2 0x937 JUMPI PUSH1 0x0 SWAP3 PUSH2 0x92C JUMPI JUMPDEST POP POP DUP2 PUSH1 0x1 SHL SWAP2 PUSH1 0x0 NOT SWAP1 PUSH1 0x3 SHL SHR NOT AND OR PUSH1 0x2 DUP4 ADD SSTORE JUMPDEST PUSH1 0x60 DUP2 ADD MLOAD DUP1 MLOAD SWAP1 PUSH1 0x1 PUSH1 0x1 PUSH1 0x40 SHL SUB DUP3 GT PUSH2 0x6BD JUMPI DUP2 SWAP1 PUSH2 0x4E5 PUSH1 0x3 DUP7 ADD SLOAD PUSH2 0xC06 JUMP JUMPDEST PUSH1 0x1F DUP2 GT PUSH2 0x8D9 JUMPI JUMPDEST POP PUSH1 0x20 SWAP1 PUSH1 0x1F DUP4 GT PUSH1 0x1 EQ PUSH2 0x867 JUMPI PUSH1 0x0 SWAP3 PUSH2 0x85C JUMPI JUMPDEST POP POP DUP2 PUSH1 0x1 SHL SWAP2 PUSH1 0x0 NOT SWAP1 PUSH1 0x3 SHL SHR NOT AND OR PUSH1 0x3 DUP4 ADD SSTORE JUMPDEST PUSH1 0x80 DUP2 ADD MLOAD DUP1 MLOAD SWAP1 PUSH1 0x1 PUSH1 0x1 PUSH1 0x40 SHL SUB DUP3 GT PUSH2 0x6BD JUMPI PUSH2 0x540 PUSH1 0x4 DUP6 ADD SLOAD PUSH2 0xC06 JUMP JUMPDEST PUSH1 0x1F DUP2 GT PUSH2 0x815 JUMPI JUMPDEST POP PUSH1 0x20 SWAP1 PUSH1 0x1F DUP4 GT PUSH1 0x1 EQ PUSH2 0x7A2 JUMPI PUSH1 0xA0 SWAP4 SWAP3 SWAP2 PUSH1 0x0 SWAP2 DUP4 PUSH2 0x797 JUMPI JUMPDEST POP POP DUP2 PUSH1 0x1 SHL SWAP2 PUSH1 0x0 NOT SWAP1 PUSH1 0x3 SHL SHR NOT AND OR PUSH1 0x4 DUP5 ADD SSTORE JUMPDEST ADD MLOAD DUP1 MLOAD SWAP1 PUSH1 0x1 PUSH1 0x1 PUSH1 0x40 SHL SUB DUP3 GT PUSH2 0x6BD JUMPI PUSH2 0x59E PUSH1 0x5 DUP5 ADD SLOAD PUSH2 0xC06 JUMP JUMPDEST PUSH1 0x1F DUP2 GT PUSH2 0x74C JUMPI JUMPDEST POP PUSH1 0x20 SWAP1 PUSH1 0x1F DUP4 GT PUSH1 0x1 EQ PUSH2 0x6DE JUMPI PUSH1 0x5 SWAP3 SWAP2 PUSH1 0x0 SWAP2 DUP4 PUSH2 0x6D3 JUMPI JUMPDEST POP POP DUP2 PUSH1 0x1 SHL SWAP2 PUSH1 0x0 NOT SWAP1 PUSH1 0x3 SHL SHR NOT AND OR SWAP2 ADD SSTORE JUMPDEST PUSH1 0x2 SLOAD PUSH9 0x10000000000000000 DUP2 LT ISZERO PUSH2 0x6BD JUMPI PUSH1 0x1 DUP2 ADD PUSH1 0x2 SSTORE PUSH2 0x5FD SWAP1 PUSH2 0xDD2 JUMP JUMPDEST DUP2 SLOAD PUSH1 0x1 PUSH1 0x1 PUSH1 0xA0 SHL SUB DUP13 DUP2 AND PUSH1 0x3 SWAP4 SWAP1 SWAP4 SHL SWAP3 DUP4 SHL SWAP3 SHL NOT AND OR SWAP1 SSTORE PUSH1 0x40 MLOAD PUSH1 0xC0 DUP1 DUP3 MSTORE SWAP1 SWAP13 DUP14 SWAP13 PUSH2 0x632 SWAP3 DUP15 ADD SWAP2 PUSH2 0xE65 JUMP JUMPDEST SWAP1 DUP12 DUP3 SUB PUSH1 0x20 DUP14 ADD MSTORE PUSH2 0x644 SWAP3 PUSH2 0xE65 JUMP JUMPDEST SWAP1 DUP10 DUP3 SUB PUSH1 0x40 DUP12 ADD MSTORE PUSH2 0x656 SWAP3 PUSH2 0xE65 JUMP JUMPDEST SWAP1 DUP8 DUP3 SUB PUSH1 0x60 DUP10 ADD MSTORE PUSH2 0x668 SWAP3 PUSH2 0xE65 JUMP JUMPDEST SWAP1 DUP6 DUP3 SUB PUSH1 0x80 DUP8 ADD MSTORE PUSH2 0x67A SWAP3 PUSH2 0xE65 JUMP JUMPDEST DUP4 DUP2 SUB PUSH1 0xA0 DUP6 ADD MSTORE PUSH1 0x1 PUSH1 0x1 PUSH1 0xA0 SHL SUB SWAP1 SWAP2 AND SWAP5 PUSH2 0x697 SWAP3 PUSH2 0xE65 JUMP JUMPDEST SUB PUSH32 0x8018FDA5955C72B8D0B6B1459307AD3D73E7282F26E3AE1BF1388A2E7F3B9823 SWAP2 LOG2 STOP JUMPDEST PUSH4 0x4E487B71 PUSH1 0xE0 SHL PUSH1 0x0 MSTORE PUSH1 0x41 PUSH1 0x4 MSTORE PUSH1 0x24 PUSH1 0x0 REVERT JUMPDEST ADD MLOAD SWAP1 POP CODESIZE DUP1 PUSH2 0x5C3 JUMP JUMPDEST SWAP1 PUSH1 0x1F NOT DUP4 AND SWAP2 PUSH1 0x5 DUP6 ADD PUSH1 0x0 MSTORE PUSH1 0x20 PUSH1 0x0 KECCAK256 SWAP3 PUSH1 0x0 JUMPDEST DUP2 DUP2 LT PUSH2 0x734 JUMPI POP SWAP2 PUSH1 0x1 SWAP4 SWAP2 DUP6 PUSH1 0x5 SWAP7 SWAP5 LT PUSH2 0x71B JUMPI JUMPDEST POP POP POP DUP2 SHL ADD SWAP2 ADD SSTORE PUSH2 0x5D9 JUMP JUMPDEST ADD MLOAD PUSH1 0x0 NOT PUSH1 0xF8 DUP5 PUSH1 0x3 SHL AND SHR NOT AND SWAP1 SSTORE CODESIZE DUP1 DUP1 PUSH2 0x70D JUMP JUMPDEST SWAP3 SWAP4 PUSH1 0x20 PUSH1 0x1 DUP2 SWAP3 DUP8 DUP7 ADD MLOAD DUP2 SSTORE ADD SWAP6 ADD SWAP4 ADD PUSH2 0x6F5 JUMP JUMPDEST PUSH1 0x5 DUP5 ADD PUSH1 0x0 MSTORE PUSH1 0x20 PUSH1 0x0 KECCAK256 PUSH1 0x1F DUP5 ADD PUSH1 0x5 SHR DUP2 ADD SWAP2 PUSH1 0x20 DUP6 LT PUSH2 0x78D JUMPI JUMPDEST PUSH1 0x1F ADD PUSH1 0x5 SHR ADD SWAP1 JUMPDEST DUP2 DUP2 LT PUSH2 0x781 JUMPI POP PUSH2 0x5A7 JUMP JUMPDEST PUSH1 0x0 DUP2 SSTORE PUSH1 0x1 ADD PUSH2 0x774 JUMP JUMPDEST SWAP1 SWAP2 POP DUP2 SWAP1 PUSH2 0x76B JUMP JUMPDEST ADD MLOAD SWAP1 POP CODESIZE DUP1 PUSH2 0x566 JUMP JUMPDEST SWAP1 PUSH1 0x4 DUP6 ADD PUSH1 0x0 MSTORE PUSH1 0x20 PUSH1 0x0 KECCAK256 SWAP2 PUSH1 0x0 JUMPDEST PUSH1 0x1F NOT DUP6 AND DUP2 LT PUSH2 0x7FD JUMPI POP SWAP2 DUP4 SWAP2 PUSH1 0x1 SWAP4 PUSH1 0xA0 SWAP7 SWAP6 PUSH1 0x1F NOT DUP2 AND LT PUSH2 0x7E4 JUMPI JUMPDEST POP POP POP DUP2 SHL ADD PUSH1 0x4 DUP5 ADD SSTORE PUSH2 0x57E JUMP JUMPDEST ADD MLOAD PUSH1 0x0 NOT PUSH1 0xF8 DUP5 PUSH1 0x3 SHL AND SHR NOT AND SWAP1 SSTORE CODESIZE DUP1 DUP1 PUSH2 0x7D4 JUMP JUMPDEST SWAP2 SWAP3 PUSH1 0x20 PUSH1 0x1 DUP2 SWAP3 DUP7 DUP6 ADD MLOAD DUP2 SSTORE ADD SWAP5 ADD SWAP3 ADD PUSH2 0x7B3 JUMP JUMPDEST PUSH1 0x4 DUP6 ADD PUSH1 0x0 MSTORE PUSH1 0x20 PUSH1 0x0 KECCAK256 PUSH1 0x1F DUP5 ADD PUSH1 0x5 SHR DUP2 ADD PUSH1 0x20 DUP6 LT PUSH2 0x855 JUMPI JUMPDEST PUSH1 0x1F DUP4 ADD PUSH1 0x5 SHR DUP3 ADD DUP2 LT PUSH2 0x849 JUMPI POP POP PUSH2 0x549 JUMP JUMPDEST PUSH1 0x0 DUP2 SSTORE PUSH1 0x1 ADD PUSH2 0x833 JUMP JUMPDEST POP DUP1 PUSH2 0x833 JUMP JUMPDEST ADD MLOAD SWAP1 POP CODESIZE DUP1 PUSH2 0x505 JUMP JUMPDEST SWAP3 POP PUSH1 0x3 DUP6 ADD PUSH1 0x0 MSTORE PUSH1 0x20 PUSH1 0x0 KECCAK256 SWAP1 PUSH1 0x0 SWAP4 JUMPDEST PUSH1 0x1F NOT DUP5 AND DUP6 LT PUSH2 0x8BE JUMPI PUSH1 0x1 SWAP5 POP DUP4 PUSH1 0x1F NOT DUP2 AND LT PUSH2 0x8A5 JUMPI JUMPDEST POP POP POP DUP2 SHL ADD PUSH1 0x3 DUP4 ADD SSTORE PUSH2 0x51D JUMP JUMPDEST ADD MLOAD PUSH1 0x0 NOT PUSH1 0xF8 DUP5 PUSH1 0x3 SHL AND SHR NOT AND SWAP1 SSTORE CODESIZE DUP1 DUP1 PUSH2 0x895 JUMP JUMPDEST DUP2 DUP2 ADD MLOAD DUP4 SSTORE PUSH1 0x20 SWAP5 DUP6 ADD SWAP5 PUSH1 0x1 SWAP1 SWAP4 ADD SWAP3 SWAP1 SWAP2 ADD SWAP1 PUSH2 0x87A JUMP JUMPDEST SWAP1 SWAP2 POP PUSH1 0x3 DUP6 ADD PUSH1 0x0 MSTORE PUSH1 0x20 PUSH1 0x0 KECCAK256 PUSH1 0x1F DUP5 ADD PUSH1 0x5 SHR DUP2 ADD PUSH1 0x20 DUP6 LT PUSH2 0x925 JUMPI JUMPDEST SWAP1 DUP5 SWAP4 SWAP3 SWAP2 JUMPDEST PUSH1 0x1F DUP4 ADD PUSH1 0x5 SHR DUP3 ADD DUP2 LT PUSH2 0x916 JUMPI POP POP PUSH2 0x4EE JUMP JUMPDEST PUSH1 0x0 DUP2 SSTORE DUP6 SWAP5 POP PUSH1 0x1 ADD PUSH2 0x900 JUMP JUMPDEST POP DUP1 PUSH2 0x8FA JUMP JUMPDEST ADD MLOAD SWAP1 POP CODESIZE DUP1 PUSH2 0x4A8 JUMP JUMPDEST SWAP3 POP PUSH1 0x2 DUP6 ADD PUSH1 0x0 MSTORE PUSH1 0x20 PUSH1 0x0 KECCAK256 SWAP1 PUSH1 0x0 SWAP4 JUMPDEST PUSH1 0x1F NOT DUP5 AND DUP6 LT PUSH2 0x98E JUMPI PUSH1 0x1 SWAP5 POP DUP4 PUSH1 0x1F NOT DUP2 AND LT PUSH2 0x975 JUMPI JUMPDEST POP POP POP DUP2 SHL ADD PUSH1 0x2 DUP4 ADD SSTORE PUSH2 0x4C0 JUMP JUMPDEST ADD MLOAD PUSH1 0x0 NOT PUSH1 0xF8 DUP5 PUSH1 0x3 SHL AND SHR NOT AND SWAP1 SSTORE CODESIZE DUP1 DUP1 PUSH2 0x965 JUMP JUMPDEST DUP2 DUP2 ADD MLOAD DUP4 SSTORE PUSH1 0x20 SWAP5 DUP6 ADD SWAP5 PUSH1 0x1 SWAP1 SWAP4 ADD SWAP3 SWAP1 SWAP2 ADD SWAP1 PUSH2 0x94A JUMP JUMPDEST SWAP1 SWAP2 POP PUSH1 0x2 DUP6 ADD PUSH1 0x0 MSTORE PUSH1 0x20 PUSH1 0x0 KECCAK256 PUSH1 0x1F DUP5 ADD PUSH1 0x5 SHR DUP2 ADD PUSH1 0x20 DUP6 LT PUSH2 0x9F5 JUMPI JUMPDEST SWAP1 DUP5 SWAP4 SWAP3 SWAP2 JUMPDEST PUSH1 0x1F DUP4 ADD PUSH1 0x5 SHR DUP3 ADD DUP2 LT PUSH2 0x9E6 JUMPI POP POP PUSH2 0x491 JUMP JUMPDEST PUSH1 0x0 DUP2 SSTORE DUP6 SWAP5 POP PUSH1 0x1 ADD PUSH2 0x9D0 JUMP JUMPDEST POP DUP1 PUSH2 0x9CA JUMP JUMPDEST ADD MLOAD SWAP1 POP CODESIZE DUP1 PUSH2 0x44B JUMP JUMPDEST SWAP3 POP PUSH1 0x1 DUP6 ADD PUSH1 0x0 MSTORE PUSH1 0x20 PUSH1 0x0 KECCAK256 SWAP1 PUSH1 0x0 SWAP4 JUMPDEST PUSH1 0x1F NOT DUP5 AND DUP6 LT PUSH2 0xA5E JUMPI PUSH1 0x1 SWAP5 POP DUP4 PUSH1 0x1F NOT DUP2 AND LT PUSH2 0xA45 JUMPI JUMPDEST POP POP POP DUP2 SHL ADD PUSH1 0x1 DUP4 ADD SSTORE PUSH2 0x463 JUMP JUMPDEST ADD MLOAD PUSH1 0x0 NOT PUSH1 0xF8 DUP5 PUSH1 0x3 SHL AND SHR NOT AND SWAP1 SSTORE CODESIZE DUP1 DUP1 PUSH2 0xA35 JUMP JUMPDEST DUP2 DUP2 ADD MLOAD DUP4 SSTORE PUSH1 0x20 SWAP5 DUP6 ADD SWAP5 PUSH1 0x1 SWAP1 SWAP4 ADD SWAP3 SWAP1 SWAP2 ADD SWAP1 PUSH2 0xA1A JUMP JUMPDEST SWAP1 SWAP2 POP PUSH1 0x1 DUP6 ADD PUSH1 0x0 MSTORE PUSH1 0x20 PUSH1 0x0 KECCAK256 PUSH1 0x1F DUP5 ADD PUSH1 0x5 SHR DUP2 ADD PUSH1 0x20 DUP6 LT PUSH2 0xAC5 JUMPI JUMPDEST SWAP1 DUP5 SWAP4 SWAP3 SWAP2 JUMPDEST PUSH1 0x1F DUP4 ADD PUSH1 0x5 SHR DUP3 ADD DUP2 LT PUSH2 0xAB6 JUMPI POP POP PUSH2 0x434 JUMP JUMPDEST PUSH1 0x0 DUP2 SSTORE DUP6 SWAP5 POP PUSH1 0x1 ADD PUSH2 0xAA0 JUMP JUMPDEST POP DUP1 PUSH2 0xA9A JUMP JUMPDEST ADD MLOAD SWAP1 POP CODESIZE DUP1 PUSH2 0x3F1 JUMP JUMPDEST SWAP3 POP DUP5 PUSH1 0x0 MSTORE PUSH1 0x20 PUSH1 0x0 KECCAK256 SWAP1 PUSH1 0x0 SWAP4 JUMPDEST PUSH1 0x1F NOT DUP5 AND DUP6 LT PUSH2 0xB28 JUMPI PUSH1 0x1 SWAP5 POP DUP4 PUSH1 0x1F NOT DUP2 AND LT PUSH2 0xB0F JUMPI JUMPDEST POP POP POP DUP2 SHL ADD DUP3 SSTORE PUSH2 0x406 JUMP JUMPDEST ADD MLOAD PUSH1 0x0 NOT PUSH1 0xF8 DUP5 PUSH1 0x3 SHL AND SHR NOT AND SWAP1 SSTORE CODESIZE DUP1 DUP1 PUSH2 0xB02 JUMP JUMPDEST DUP2 DUP2 ADD MLOAD DUP4 SSTORE PUSH1 0x20 SWAP5 DUP6 ADD SWAP5 PUSH1 0x1 SWAP1 SWAP4 ADD SWAP3 SWAP1 SWAP2 ADD SWAP1 PUSH2 0xAE7 JUMP JUMPDEST SWAP1 SWAP2 POP DUP5 PUSH1 0x0 MSTORE PUSH1 0x20 PUSH1 0x0 KECCAK256 PUSH1 0x1F DUP5 ADD PUSH1 0x5 SHR DUP2 ADD PUSH1 0x20 DUP6 LT PUSH2 0xB8C JUMPI JUMPDEST SWAP1 DUP5 SWAP4 SWAP3 SWAP2 JUMPDEST PUSH1 0x1F DUP4 ADD PUSH1 0x5 SHR DUP3 ADD DUP2 LT PUSH2 0xB7D JUMPI POP POP PUSH2 0x3DA JUMP JUMPDEST PUSH1 0x0 DUP2 SSTORE DUP6 SWAP5 POP PUSH1 0x1 ADD PUSH2 0xB67 JUMP JUMPDEST POP DUP1 PUSH2 0xB61 JUMP JUMPDEST PUSH3 0x461BCD PUSH1 0xE5 SHL DUP2 MSTORE PUSH1 0x20 PUSH1 0x4 DUP3 ADD MSTORE PUSH1 0xB PUSH1 0x24 DUP3 ADD MSTORE PUSH11 0x139BDD081CDD195DD85C99 PUSH1 0xAA SHL PUSH1 0x44 DUP3 ADD MSTORE PUSH1 0x64 SWAP1 REVERT JUMPDEST PUSH1 0x4 CALLDATALOAD SWAP1 PUSH1 0x1 PUSH1 0x1 PUSH1 0xA0 SHL SUB DUP3 AND DUP3 SUB PUSH2 0xA3 JUMPI JUMP JUMPDEST SWAP2 DUP2 PUSH1 0x1F DUP5 ADD SLT ISZERO PUSH2 0xA3 JUMPI DUP3 CALLDATALOAD SWAP2 PUSH1 0x1 PUSH1 0x1 PUSH1 0x40 SHL SUB DUP4 GT PUSH2 0xA3 JUMPI PUSH1 0x20 DUP4 DUP2 DUP7 ADD SWAP6 ADD ADD GT PUSH2 0xA3 JUMPI JUMP JUMPDEST SWAP1 PUSH1 0x1 DUP3 DUP2 SHR SWAP3 AND DUP1 ISZERO PUSH2 0xC36 JUMPI JUMPDEST PUSH1 0x20 DUP4 LT EQ PUSH2 0xC20 JUMPI JUMP JUMPDEST PUSH4 0x4E487B71 PUSH1 0xE0 SHL PUSH1 0x0 MSTORE PUSH1 0x22 PUSH1 0x4 MSTORE PUSH1 0x24 PUSH1 0x0 REVERT JUMPDEST SWAP2 PUSH1 0x7F AND SWAP2 PUSH2 0xC15 JUMP JUMPDEST PUSH1 0xC0 DUP2 ADD SWAP1 DUP2 LT PUSH1 0x1 PUSH1 0x1 PUSH1 0x40 SHL SUB DUP3 GT OR PUSH2 0x6BD JUMPI PUSH1 0x40 MSTORE JUMP JUMPDEST SWAP1 PUSH1 0x1F DUP1 NOT SWAP2 ADD AND DUP2 ADD SWAP1 DUP2 LT PUSH1 0x1 PUSH1 0x1 PUSH1 0x40 SHL SUB DUP3 GT OR PUSH2 0x6BD JUMPI PUSH1 0x40 MSTORE JUMP JUMPDEST SWAP1 PUSH1 0x40 MLOAD SWAP2 DUP3 PUSH1 0x0 DUP3 SLOAD SWAP3 PUSH2 0xC90 DUP5 PUSH2 0xC06 JUMP JUMPDEST SWAP1 DUP2 DUP5 MSTORE PUSH1 0x1 SWAP5 DUP6 DUP2 AND SWAP1 DUP2 PUSH1 0x0 EQ PUSH2 0xCFF JUMPI POP PUSH1 0x1 EQ PUSH2 0xCBC JUMPI JUMPDEST POP POP PUSH2 0xCBA SWAP3 POP SUB DUP4 PUSH2 0xC5B JUMP JUMPDEST JUMP JUMPDEST SWAP1 SWAP4 SWAP2 POP PUSH1 0x0 MSTORE PUSH1 0x20 SWAP1 DUP2 PUSH1 0x0 KECCAK256 SWAP4 PUSH1 0x0 SWAP2 JUMPDEST DUP2 DUP4 LT PUSH2 0xCE7 JUMPI POP POP PUSH2 0xCBA SWAP4 POP DUP3 ADD ADD CODESIZE DUP1 PUSH2 0xCAC JUMP JUMPDEST DUP6 SLOAD DUP9 DUP5 ADD DUP6 ADD MSTORE SWAP5 DUP6 ADD SWAP5 DUP8 SWAP5 POP SWAP2 DUP4 ADD SWAP2 PUSH2 0xCCF JUMP JUMPDEST SWAP2 POP POP PUSH2 0xCBA SWAP5 POP PUSH1 0x20 SWAP3 POP PUSH1 0xFF NOT AND DUP3 DUP5 ADD MSTORE ISZERO ISZERO PUSH1 0x5 SHL DUP3 ADD ADD CODESIZE DUP1 PUSH2 0xCAC JUMP JUMPDEST SWAP2 SWAP1 DUP3 MLOAD SWAP3 DUP4 DUP3 MSTORE PUSH1 0x0 JUMPDEST DUP5 DUP2 LT PUSH2 0xD4E JUMPI POP POP DUP3 PUSH1 0x0 PUSH1 0x20 DUP1 SWAP5 SWAP6 DUP5 ADD ADD MSTORE PUSH1 0x1F DUP1 NOT SWAP2 ADD AND ADD ADD SWAP1 JUMP JUMPDEST PUSH1 0x20 DUP2 DUP4 ADD DUP2 ADD MLOAD DUP5 DUP4 ADD DUP3 ADD MSTORE ADD PUSH2 0xD2D JUMP JUMPDEST SWAP5 SWAP2 SWAP4 PUSH2 0xDA5 PUSH2 0xDC1 SWAP5 PUSH2 0xD97 PUSH2 0xDCF SWAP10 SWAP8 PUSH2 0xD89 PUSH2 0xDB3 SWAP7 PUSH1 0xC0 DUP13 MSTORE PUSH1 0xC0 DUP13 ADD SWAP1 PUSH2 0xD22 JUMP JUMPDEST SWAP1 DUP11 DUP3 SUB PUSH1 0x20 DUP13 ADD MSTORE PUSH2 0xD22 JUMP JUMPDEST SWAP1 DUP9 DUP3 SUB PUSH1 0x40 DUP11 ADD MSTORE PUSH2 0xD22 JUMP JUMPDEST SWAP1 DUP7 DUP3 SUB PUSH1 0x60 DUP9 ADD MSTORE PUSH2 0xD22 JUMP JUMPDEST SWAP1 DUP5 DUP3 SUB PUSH1 0x80 DUP7 ADD MSTORE PUSH2 0xD22 JUMP JUMPDEST SWAP2 PUSH1 0xA0 DUP2 DUP5 SUB SWAP2 ADD MSTORE PUSH2 0xD22 JUMP JUMPDEST SWAP1 JUMP JUMPDEST PUSH1 0x2 SLOAD DUP2 LT ISZERO PUSH2 0xE09 JUMPI PUSH1 0x2 PUSH1 0x0 MSTORE PUSH32 0x405787FA12A823E0F2B7631CC41B3BA8828B3321CA811111FA75CD3AA3BB5ACE ADD SWAP1 PUSH1 0x0 SWAP1 JUMP JUMPDEST PUSH4 0x4E487B71 PUSH1 0xE0 SHL PUSH1 0x0 MSTORE PUSH1 0x32 PUSH1 0x4 MSTORE PUSH1 0x24 PUSH1 0x0 REVERT JUMPDEST SWAP3 SWAP2 SWAP3 PUSH1 0x1 PUSH1 0x1 PUSH1 0x40 SHL SUB DUP3 GT PUSH2 0x6BD JUMPI PUSH1 0x40 MLOAD SWAP2 PUSH2 0xE48 PUSH1 0x1F DUP3 ADD PUSH1 0x1F NOT AND PUSH1 0x20 ADD DUP5 PUSH2 0xC5B JUMP JUMPDEST DUP3 SWAP5 DUP2 DUP5 MSTORE DUP2 DUP4 ADD GT PUSH2 0xA3 JUMPI DUP3 DUP2 PUSH1 0x20 SWAP4 DUP5 PUSH1 0x0 SWAP7 ADD CALLDATACOPY ADD ADD MSTORE JUMP JUMPDEST SWAP1 DUP1 PUSH1 0x20 SWAP4 SWAP3 DUP2 DUP5 MSTORE DUP5 DUP5 ADD CALLDATACOPY PUSH1 0x0 DUP3 DUP3 ADD DUP5 ADD MSTORE PUSH1 0x1F ADD PUSH1 0x1F NOT AND ADD ADD SWAP1 JUMP INVALID LOG2 PUSH5 0x6970667358 0x22 SLT KECCAK256 0xCA 0xDB 0xA8 0xE0 SWAP2 PUSH12 0x4C03C201A664E94EB2319232 PUSH25 0x9818A0846AE79B8D93176D2F0464736F6C6343000814003300 "},"methodIdentifiers":{"apprentices(uint256)":"f31bee3e","getSummons(address)":"cf84c603","steward()":"637eea19","summonApprentice(address,string,string,string,string,string,string)":"270c8c54","summons(address)":"5a2ed662","totalSummons()":"2a17d4cd"}}}}}