{"contracts/sovereigns/SpiralboundSovereigns.sol":{"SpiralboundSovereigns":{"abi":[{"inputs":[],"stateMutability":"nonpayable","type":"constructor"},{"anonymous":false,"inputs":[{"indexed":true,"internalType":"address","name":"sovereign","type":"address"},{"indexed":false,"internalType":"string","name":"name","type":"string"},{"indexed":false,"internalType":"enum SpiralboundSovereigns.SovereignType","name":"kind","type":"uint8"},{"indexed":false,"internalType":"string","name":"drift","type":"string"}],"name":"SovereignCrowned","type":"event"},{"inputs":[{"internalType":"address","name":"sovereign","type":"address"},{"internalType":"string","name":"name","type":"string"},{"internalType":"enum SpiralboundSovereigns.SovereignType","name":"kind","type":"uint8"},{"internalType":"string","name":"drift","type":"string"}],"name":"crownSovereign","outputs":[],"stateMutability":"nonpayable","type":"function"},{"inputs":[{"internalType":"address","name":"addr","type":"address"}],"name":"getSovereign","outputs":[{"internalType":"string","name":"","type":"string"},{"internalType":"enum SpiralboundSovereigns.SovereignType","name":"","type":"uint8"},{"internalType":"string","name":"","type":"string"},{"internalType":"bool","name":"","type":"bool"}],"stateMutability":"view","type":"function"},{"inputs":[{"internalType":"address","name":"","type":"address"}],"name":"registry","outputs":[{"internalType":"string","name":"name","type":"string"},{"internalType":"enum SpiralboundSovereigns.SovereignType","name":"kind","type":"uint8"},{"internalType":"string","name":"drift","type":"string"},{"internalType":"bool","name":"crowned","type":"bool"}],"stateMutability":"view","type":"function"},{"inputs":[{"internalType":"uint256","name":"","type":"uint256"}],"name":"sovereigns","outputs":[{"internalType":"address","name":"","type":"address"}],"stateMutability":"view","type":"function"},{"inputs":[],"name":"steward","outputs":[{"internalType":"address","name":"","type":"address"}],"stateMutability":"view","type":"function"},{"inputs":[],"name":"totalSovereigns","outputs":[{"internalType":"uint256","name":"","type":"uint256"}],"stateMutability":"view","type":"function"}],"evm":{"bytecode":{"linkReferences":{},"object":"6080806040523461002857600080546001600160a01b0319163317905561092a908161002e8239f35b600080fdfe6080604052600436101561001257600080fd5b60003560e01c8063038defd7146105df5780632b74df3c146101ac5780632f8caeb1146100ec5780633e34f773146100ce578063637eea19146100a5576366d1b2931461005e57600080fd5b346100a05760203660031901126100a0576004356002548110156100a057610087602091610833565b905460405160039290921b1c6001600160a01b03168152f35b600080fd5b346100a05760003660031901126100a0576000546040516001600160a01b039091168152602090f35b346100a05760003660031901126100a0576020600254604051908152f35b346100a05760203660031901126100a0576001600160a01b0361010d610644565b16600052600160205260406000206040519061012882610694565b610131816106d2565b825260ff6001820154169061014a6020840192836108c7565b60ff600361015a600284016106d2565b9260408601938452015416926060810193151584525191519260038410156101965761019291519051151590604051948594856107c5565b0390f35b634e487b7160e01b600052602160045260246000fd5b346100a05760803660031901126100a0576101c5610644565b60243567ffffffffffffffff81116100a0576101e5903690600401610805565b90600360443510156100a05760643567ffffffffffffffff81116100a057610211903690600401610805565b60005491949093916001600160a01b031633036105ac5760405161023481610694565b61023f368486610880565b8152610250604435602083016108c7565b61025b368688610880565b60408201526001606082015260018060a01b03821660005260016020526040600020815180519067ffffffffffffffff821161041157819061029d845461065a565b601f811161055c575b50602090601f83116001146104f6576000926104eb575b50508160011b916000199060031b1c19161781555b60018101602083015160038110156101965760ff80198354169116179055604082015180519067ffffffffffffffff821161041157610314600284015461065a565b601f81116104a4575b50602090601f831160011461043257918060609492600394600092610427575b50508160011b9160001990851b1c19161760028201555b01910151151560ff801983541691161790556002549068010000000000000000821015610411577f859c352f2c3938a843b4de04ebc7511f5e68eb92e940567d19e093b2811f4aea946103b083600161040c9501600255610833565b81546001600160a01b0385811660039390931b92831b921b19161790556040516060808252909586956103e5928701916108d3565b916103f5602086016044356107b8565b84830360408601526001600160a01b0316966108d3565b0390a2005b634e487b7160e01b600052604160045260246000fd5b015190508b8061033d565b90601f198316916002850160005260206000209260005b81811061048c57509260019285926003966060989610610474575b505050811b016002820155610354565b015160001983871b60f8161c191690558b8080610464565b92936020600181928786015181550195019301610449565b600284016000526020600020601f840160051c8101602085106104e4575b601f830160051c820181106104d857505061031d565b600081556001016104c2565b50806104c2565b0151905089806102bd565b6000858152602081209350601f198516905b818110610544575090846001959493921061052b575b505050811b0181556102d2565b015160001960f88460031b161c1916905589808061051e565b92936020600181928786015181550195019301610508565b909150836000526020600020601f840160051c8101602085106105a5575b90849392915b601f830160051c820181106105965750506102a6565b60008155859450600101610580565b508061057a565b60405162461bcd60e51b815260206004820152600b60248201526a139bdd081cdd195dd85c9960aa1b6044820152606490fd5b346100a05760203660031901126100a0576001600160a01b03610600610644565b1660005260016020526040600020610617816106d2565b61019260ff6001840154169260ff6003610633600284016106d2565b9201541690604051948594856107c5565b600435906001600160a01b03821682036100a057565b90600182811c9216801561068a575b602083101461067457565b634e487b7160e01b600052602260045260246000fd5b91607f1691610669565b6080810190811067ffffffffffffffff82111761041157604052565b90601f8019910116810190811067ffffffffffffffff82111761041157604052565b90604051918260008254926106e68461065a565b9081845260019485811690816000146107555750600114610712575b5050610710925003836106b0565b565b9093915060005260209081600020936000915b81831061073d57505061071093508201013880610702565b85548884018501529485019487945091830191610725565b91505061071094506020925060ff191682840152151560051b8201013880610702565b919082519283825260005b8481106107a4575050826000602080949584010152601f8019910116010190565b602081830181015184830182015201610783565b9060038210156101965752565b92916060926107f06107e56107fd94989798608088526080880190610778565b9260208701906107b8565b8482036040860152610778565b931515910152565b9181601f840112156100a05782359167ffffffffffffffff83116100a057602083818601950101116100a057565b60025481101561086a5760026000527f405787fa12a823e0f2b7631cc41b3ba8828b3321ca811111fa75cd3aa3bb5ace0190600090565b634e487b7160e01b600052603260045260246000fd5b92919267ffffffffffffffff821161041157604051916108aa601f8201601f1916602001846106b0565b8294818452818301116100a0578281602093846000960137010152565b60038210156101965752565b908060209392818452848401376000828201840152601f01601f191601019056fea2646970667358221220c52d3b1da806c3f21c8de4c74d08a7ce455289e39c7f9b8cc7eb3b6410628d0964736f6c63430008140033","opcodes":"PUSH1 0x80 DUP1 PUSH1 0x40 MSTORE CALLVALUE PUSH2 0x28 JUMPI PUSH1 0x0 DUP1 SLOAD PUSH1 0x1 PUSH1 0x1 PUSH1 0xA0 SHL SUB NOT AND CALLER OR SWAP1 SSTORE PUSH2 0x92A SWAP1 DUP2 PUSH2 0x2E DUP3 CODECOPY RETURN JUMPDEST PUSH1 0x0 DUP1 REVERT INVALID PUSH1 0x80 PUSH1 0x40 MSTORE PUSH1 0x4 CALLDATASIZE LT ISZERO PUSH2 0x12 JUMPI PUSH1 0x0 DUP1 REVERT JUMPDEST PUSH1 0x0 CALLDATALOAD PUSH1 0xE0 SHR DUP1 PUSH4 0x38DEFD7 EQ PUSH2 0x5DF JUMPI DUP1 PUSH4 0x2B74DF3C EQ PUSH2 0x1AC JUMPI DUP1 PUSH4 0x2F8CAEB1 EQ PUSH2 0xEC JUMPI DUP1 PUSH4 0x3E34F773 EQ PUSH2 0xCE JUMPI DUP1 PUSH4 0x637EEA19 EQ PUSH2 0xA5 JUMPI PUSH4 0x66D1B293 EQ PUSH2 0x5E JUMPI PUSH1 0x0 DUP1 REVERT JUMPDEST CALLVALUE PUSH2 0xA0 JUMPI PUSH1 0x20 CALLDATASIZE PUSH1 0x3 NOT ADD SLT PUSH2 0xA0 JUMPI PUSH1 0x4 CALLDATALOAD PUSH1 0x2 SLOAD DUP2 LT ISZERO PUSH2 0xA0 JUMPI PUSH2 0x87 PUSH1 0x20 SWAP2 PUSH2 0x833 JUMP JUMPDEST SWAP1 SLOAD PUSH1 0x40 MLOAD PUSH1 0x3 SWAP3 SWAP1 SWAP3 SHL SHR PUSH1 0x1 PUSH1 0x1 PUSH1 0xA0 SHL SUB AND DUP2 MSTORE RETURN JUMPDEST PUSH1 0x0 DUP1 REVERT JUMPDEST CALLVALUE PUSH2 0xA0 JUMPI PUSH1 0x0 CALLDATASIZE PUSH1 0x3 NOT ADD SLT PUSH2 0xA0 JUMPI PUSH1 0x0 SLOAD PUSH1 0x40 MLOAD PUSH1 0x1 PUSH1 0x1 PUSH1 0xA0 SHL SUB SWAP1 SWAP2 AND DUP2 MSTORE PUSH1 0x20 SWAP1 RETURN JUMPDEST CALLVALUE PUSH2 0xA0 JUMPI PUSH1 0x0 CALLDATASIZE PUSH1 0x3 NOT ADD SLT PUSH2 0xA0 JUMPI PUSH1 0x20 PUSH1 0x2 SLOAD PUSH1 0x40 MLOAD SWAP1 DUP2 MSTORE RETURN JUMPDEST CALLVALUE PUSH2 0xA0 JUMPI PUSH1 0x20 CALLDATASIZE PUSH1 0x3 NOT ADD SLT PUSH2 0xA0 JUMPI PUSH1 0x1 PUSH1 0x1 PUSH1 0xA0 SHL SUB PUSH2 0x10D PUSH2 0x644 JUMP JUMPDEST AND PUSH1 0x0 MSTORE PUSH1 0x1 PUSH1 0x20 MSTORE PUSH1 0x40 PUSH1 0x0 KECCAK256 PUSH1 0x40 MLOAD SWAP1 PUSH2 0x128 DUP3 PUSH2 0x694 JUMP JUMPDEST PUSH2 0x131 DUP2 PUSH2 0x6D2 JUMP JUMPDEST DUP3 MSTORE PUSH1 0xFF PUSH1 0x1 DUP3 ADD SLOAD AND SWAP1 PUSH2 0x14A PUSH1 0x20 DUP5 ADD SWAP3 DUP4 PUSH2 0x8C7 JUMP JUMPDEST PUSH1 0xFF PUSH1 0x3 PUSH2 0x15A PUSH1 0x2 DUP5 ADD PUSH2 0x6D2 JUMP JUMPDEST SWAP3 PUSH1 0x40 DUP7 ADD SWAP4 DUP5 MSTORE ADD SLOAD AND SWAP3 PUSH1 0x60 DUP2 ADD SWAP4 ISZERO ISZERO DUP5 MSTORE MLOAD SWAP2 MLOAD SWAP3 PUSH1 0x3 DUP5 LT ISZERO PUSH2 0x196 JUMPI PUSH2 0x192 SWAP2 MLOAD SWAP1 MLOAD ISZERO ISZERO SWAP1 PUSH1 0x40 MLOAD SWAP5 DUP6 SWAP5 DUP6 PUSH2 0x7C5 JUMP JUMPDEST SUB SWAP1 RETURN JUMPDEST PUSH4 0x4E487B71 PUSH1 0xE0 SHL PUSH1 0x0 MSTORE PUSH1 0x21 PUSH1 0x4 MSTORE PUSH1 0x24 PUSH1 0x0 REVERT JUMPDEST CALLVALUE PUSH2 0xA0 JUMPI PUSH1 0x80 CALLDATASIZE PUSH1 0x3 NOT ADD SLT PUSH2 0xA0 JUMPI PUSH2 0x1C5 PUSH2 0x644 JUMP JUMPDEST PUSH1 0x24 CALLDATALOAD PUSH8 0xFFFFFFFFFFFFFFFF DUP2 GT PUSH2 0xA0 JUMPI PUSH2 0x1E5 SWAP1 CALLDATASIZE SWAP1 PUSH1 0x4 ADD PUSH2 0x805 JUMP JUMPDEST SWAP1 PUSH1 0x3 PUSH1 0x44 CALLDATALOAD LT ISZERO PUSH2 0xA0 JUMPI PUSH1 0x64 CALLDATALOAD PUSH8 0xFFFFFFFFFFFFFFFF DUP2 GT PUSH2 0xA0 JUMPI PUSH2 0x211 SWAP1 CALLDATASIZE SWAP1 PUSH1 0x4 ADD PUSH2 0x805 JUMP JUMPDEST PUSH1 0x0 SLOAD SWAP2 SWAP5 SWAP1 SWAP4 SWAP2 PUSH1 0x1 PUSH1 0x1 PUSH1 0xA0 SHL SUB AND CALLER SUB PUSH2 0x5AC JUMPI PUSH1 0x40 MLOAD PUSH2 0x234 DUP2 PUSH2 0x694 JUMP JUMPDEST PUSH2 0x23F CALLDATASIZE DUP5 DUP7 PUSH2 0x880 JUMP JUMPDEST DUP2 MSTORE PUSH2 0x250 PUSH1 0x44 CALLDATALOAD PUSH1 0x20 DUP4 ADD PUSH2 0x8C7 JUMP JUMPDEST PUSH2 0x25B CALLDATASIZE DUP7 DUP9 PUSH2 0x880 JUMP JUMPDEST PUSH1 0x40 DUP3 ADD MSTORE PUSH1 0x1 PUSH1 0x60 DUP3 ADD MSTORE PUSH1 0x1 DUP1 PUSH1 0xA0 SHL SUB DUP3 AND PUSH1 0x0 MSTORE PUSH1 0x1 PUSH1 0x20 MSTORE PUSH1 0x40 PUSH1 0x0 KECCAK256 DUP2 MLOAD DUP1 MLOAD SWAP1 PUSH8 0xFFFFFFFFFFFFFFFF DUP3 GT PUSH2 0x411 JUMPI DUP2 SWAP1 PUSH2 0x29D DUP5 SLOAD PUSH2 0x65A JUMP JUMPDEST PUSH1 0x1F DUP2 GT PUSH2 0x55C JUMPI JUMPDEST POP PUSH1 0x20 SWAP1 PUSH1 0x1F DUP4 GT PUSH1 0x1 EQ PUSH2 0x4F6 JUMPI PUSH1 0x0 SWAP3 PUSH2 0x4EB JUMPI JUMPDEST POP POP DUP2 PUSH1 0x1 SHL SWAP2 PUSH1 0x0 NOT SWAP1 PUSH1 0x3 SHL SHR NOT AND OR DUP2 SSTORE JUMPDEST PUSH1 0x1 DUP2 ADD PUSH1 0x20 DUP4 ADD MLOAD PUSH1 0x3 DUP2 LT ISZERO PUSH2 0x196 JUMPI PUSH1 0xFF DUP1 NOT DUP4 SLOAD AND SWAP2 AND OR SWAP1 SSTORE PUSH1 0x40 DUP3 ADD MLOAD DUP1 MLOAD SWAP1 PUSH8 0xFFFFFFFFFFFFFFFF DUP3 GT PUSH2 0x411 JUMPI PUSH2 0x314 PUSH1 0x2 DUP5 ADD SLOAD PUSH2 0x65A JUMP JUMPDEST PUSH1 0x1F DUP2 GT PUSH2 0x4A4 JUMPI JUMPDEST POP PUSH1 0x20 SWAP1 PUSH1 0x1F DUP4 GT PUSH1 0x1 EQ PUSH2 0x432 JUMPI SWAP2 DUP1 PUSH1 0x60 SWAP5 SWAP3 PUSH1 0x3 SWAP5 PUSH1 0x0 SWAP3 PUSH2 0x427 JUMPI JUMPDEST POP POP DUP2 PUSH1 0x1 SHL SWAP2 PUSH1 0x0 NOT SWAP1 DUP6 SHL SHR NOT AND OR PUSH1 0x2 DUP3 ADD SSTORE JUMPDEST ADD SWAP2 ADD MLOAD ISZERO ISZERO PUSH1 0xFF DUP1 NOT DUP4 SLOAD AND SWAP2 AND OR SWAP1 SSTORE PUSH1 0x2 SLOAD SWAP1 PUSH9 0x10000000000000000 DUP3 LT ISZERO PUSH2 0x411 JUMPI PUSH32 0x859C352F2C3938A843B4DE04EBC7511F5E68EB92E940567D19E093B2811F4AEA SWAP5 PUSH2 0x3B0 DUP4 PUSH1 0x1 PUSH2 0x40C SWAP6 ADD PUSH1 0x2 SSTORE PUSH2 0x833 JUMP JUMPDEST DUP2 SLOAD PUSH1 0x1 PUSH1 0x1 PUSH1 0xA0 SHL SUB DUP6 DUP2 AND PUSH1 0x3 SWAP4 SWAP1 SWAP4 SHL SWAP3 DUP4 SHL SWAP3 SHL NOT AND OR SWAP1 SSTORE PUSH1 0x40 MLOAD PUSH1 0x60 DUP1 DUP3 MSTORE SWAP1 SWAP6 DUP7 SWAP6 PUSH2 0x3E5 SWAP3 DUP8 ADD SWAP2 PUSH2 0x8D3 JUMP JUMPDEST SWAP2 PUSH2 0x3F5 PUSH1 0x20 DUP7 ADD PUSH1 0x44 CALLDATALOAD PUSH2 0x7B8 JUMP JUMPDEST DUP5 DUP4 SUB PUSH1 0x40 DUP7 ADD MSTORE PUSH1 0x1 PUSH1 0x1 PUSH1 0xA0 SHL SUB AND SWAP7 PUSH2 0x8D3 JUMP JUMPDEST SUB SWAP1 LOG2 STOP JUMPDEST PUSH4 0x4E487B71 PUSH1 0xE0 SHL PUSH1 0x0 MSTORE PUSH1 0x41 PUSH1 0x4 MSTORE PUSH1 0x24 PUSH1 0x0 REVERT JUMPDEST ADD MLOAD SWAP1 POP DUP12 DUP1 PUSH2 0x33D JUMP JUMPDEST SWAP1 PUSH1 0x1F NOT DUP4 AND SWAP2 PUSH1 0x2 DUP6 ADD PUSH1 0x0 MSTORE PUSH1 0x20 PUSH1 0x0 KECCAK256 SWAP3 PUSH1 0x0 JUMPDEST DUP2 DUP2 LT PUSH2 0x48C JUMPI POP SWAP3 PUSH1 0x1 SWAP3 DUP6 SWAP3 PUSH1 0x3 SWAP7 PUSH1 0x60 SWAP9 SWAP7 LT PUSH2 0x474 JUMPI JUMPDEST POP POP POP DUP2 SHL ADD PUSH1 0x2 DUP3 ADD SSTORE PUSH2 0x354 JUMP JUMPDEST ADD MLOAD PUSH1 0x0 NOT DUP4 DUP8 SHL PUSH1 0xF8 AND SHR NOT AND SWAP1 SSTORE DUP12 DUP1 DUP1 PUSH2 0x464 JUMP JUMPDEST SWAP3 SWAP4 PUSH1 0x20 PUSH1 0x1 DUP2 SWAP3 DUP8 DUP7 ADD MLOAD DUP2 SSTORE ADD SWAP6 ADD SWAP4 ADD PUSH2 0x449 JUMP JUMPDEST PUSH1 0x2 DUP5 ADD PUSH1 0x0 MSTORE PUSH1 0x20 PUSH1 0x0 KECCAK256 PUSH1 0x1F DUP5 ADD PUSH1 0x5 SHR DUP2 ADD PUSH1 0x20 DUP6 LT PUSH2 0x4E4 JUMPI JUMPDEST PUSH1 0x1F DUP4 ADD PUSH1 0x5 SHR DUP3 ADD DUP2 LT PUSH2 0x4D8 JUMPI POP POP PUSH2 0x31D JUMP JUMPDEST PUSH1 0x0 DUP2 SSTORE PUSH1 0x1 ADD PUSH2 0x4C2 JUMP JUMPDEST POP DUP1 PUSH2 0x4C2 JUMP JUMPDEST ADD MLOAD SWAP1 POP DUP10 DUP1 PUSH2 0x2BD JUMP JUMPDEST PUSH1 0x0 DUP6 DUP2 MSTORE PUSH1 0x20 DUP2 KECCAK256 SWAP4 POP PUSH1 0x1F NOT DUP6 AND SWAP1 JUMPDEST DUP2 DUP2 LT PUSH2 0x544 JUMPI POP SWAP1 DUP5 PUSH1 0x1 SWAP6 SWAP5 SWAP4 SWAP3 LT PUSH2 0x52B JUMPI JUMPDEST POP POP POP DUP2 SHL ADD DUP2 SSTORE PUSH2 0x2D2 JUMP JUMPDEST ADD MLOAD PUSH1 0x0 NOT PUSH1 0xF8 DUP5 PUSH1 0x3 SHL AND SHR NOT AND SWAP1 SSTORE DUP10 DUP1 DUP1 PUSH2 0x51E JUMP JUMPDEST SWAP3 SWAP4 PUSH1 0x20 PUSH1 0x1 DUP2 SWAP3 DUP8 DUP7 ADD MLOAD DUP2 SSTORE ADD SWAP6 ADD SWAP4 ADD PUSH2 0x508 JUMP JUMPDEST SWAP1 SWAP2 POP DUP4 PUSH1 0x0 MSTORE PUSH1 0x20 PUSH1 0x0 KECCAK256 PUSH1 0x1F DUP5 ADD PUSH1 0x5 SHR DUP2 ADD PUSH1 0x20 DUP6 LT PUSH2 0x5A5 JUMPI JUMPDEST SWAP1 DUP5 SWAP4 SWAP3 SWAP2 JUMPDEST PUSH1 0x1F DUP4 ADD PUSH1 0x5 SHR DUP3 ADD DUP2 LT PUSH2 0x596 JUMPI POP POP PUSH2 0x2A6 JUMP JUMPDEST PUSH1 0x0 DUP2 SSTORE DUP6 SWAP5 POP PUSH1 0x1 ADD PUSH2 0x580 JUMP JUMPDEST POP DUP1 PUSH2 0x57A JUMP JUMPDEST PUSH1 0x40 MLOAD PUSH3 0x461BCD PUSH1 0xE5 SHL DUP2 MSTORE PUSH1 0x20 PUSH1 0x4 DUP3 ADD MSTORE PUSH1 0xB PUSH1 0x24 DUP3 ADD MSTORE PUSH11 0x139BDD081CDD195DD85C99 PUSH1 0xAA SHL PUSH1 0x44 DUP3 ADD MSTORE PUSH1 0x64 SWAP1 REVERT JUMPDEST CALLVALUE PUSH2 0xA0 JUMPI PUSH1 0x20 CALLDATASIZE PUSH1 0x3 NOT ADD SLT PUSH2 0xA0 JUMPI PUSH1 0x1 PUSH1 0x1 PUSH1 0xA0 SHL SUB PUSH2 0x600 PUSH2 0x644 JUMP JUMPDEST AND PUSH1 0x0 MSTORE PUSH1 0x1 PUSH1 0x20 MSTORE PUSH1 0x40 PUSH1 0x0 KECCAK256 PUSH2 0x617 DUP2 PUSH2 0x6D2 JUMP JUMPDEST PUSH2 0x192 PUSH1 0xFF PUSH1 0x1 DUP5 ADD SLOAD AND SWAP3 PUSH1 0xFF PUSH1 0x3 PUSH2 0x633 PUSH1 0x2 DUP5 ADD PUSH2 0x6D2 JUMP JUMPDEST SWAP3 ADD SLOAD AND SWAP1 PUSH1 0x40 MLOAD SWAP5 DUP6 SWAP5 DUP6 PUSH2 0x7C5 JUMP JUMPDEST PUSH1 0x4 CALLDATALOAD SWAP1 PUSH1 0x1 PUSH1 0x1 PUSH1 0xA0 SHL SUB DUP3 AND DUP3 SUB PUSH2 0xA0 JUMPI JUMP JUMPDEST SWAP1 PUSH1 0x1 DUP3 DUP2 SHR SWAP3 AND DUP1 ISZERO PUSH2 0x68A JUMPI JUMPDEST PUSH1 0x20 DUP4 LT EQ PUSH2 0x674 JUMPI JUMP JUMPDEST PUSH4 0x4E487B71 PUSH1 0xE0 SHL PUSH1 0x0 MSTORE PUSH1 0x22 PUSH1 0x4 MSTORE PUSH1 0x24 PUSH1 0x0 REVERT JUMPDEST SWAP2 PUSH1 0x7F AND SWAP2 PUSH2 0x669 JUMP JUMPDEST PUSH1 0x80 DUP2 ADD SWAP1 DUP2 LT PUSH8 0xFFFFFFFFFFFFFFFF DUP3 GT OR PUSH2 0x411 JUMPI PUSH1 0x40 MSTORE JUMP JUMPDEST SWAP1 PUSH1 0x1F DUP1 NOT SWAP2 ADD AND DUP2 ADD SWAP1 DUP2 LT PUSH8 0xFFFFFFFFFFFFFFFF DUP3 GT OR PUSH2 0x411 JUMPI PUSH1 0x40 MSTORE JUMP JUMPDEST SWAP1 PUSH1 0x40 MLOAD SWAP2 DUP3 PUSH1 0x0 DUP3 SLOAD SWAP3 PUSH2 0x6E6 DUP5 PUSH2 0x65A JUMP JUMPDEST SWAP1 DUP2 DUP5 MSTORE PUSH1 0x1 SWAP5 DUP6 DUP2 AND SWAP1 DUP2 PUSH1 0x0 EQ PUSH2 0x755 JUMPI POP PUSH1 0x1 EQ PUSH2 0x712 JUMPI JUMPDEST POP POP PUSH2 0x710 SWAP3 POP SUB DUP4 PUSH2 0x6B0 JUMP JUMPDEST JUMP JUMPDEST SWAP1 SWAP4 SWAP2 POP PUSH1 0x0 MSTORE PUSH1 0x20 SWAP1 DUP2 PUSH1 0x0 KECCAK256 SWAP4 PUSH1 0x0 SWAP2 JUMPDEST DUP2 DUP4 LT PUSH2 0x73D JUMPI POP POP PUSH2 0x710 SWAP4 POP DUP3 ADD ADD CODESIZE DUP1 PUSH2 0x702 JUMP JUMPDEST DUP6 SLOAD DUP9 DUP5 ADD DUP6 ADD MSTORE SWAP5 DUP6 ADD SWAP5 DUP8 SWAP5 POP SWAP2 DUP4 ADD SWAP2 PUSH2 0x725 JUMP JUMPDEST SWAP2 POP POP PUSH2 0x710 SWAP5 POP PUSH1 0x20 SWAP3 POP PUSH1 0xFF NOT AND DUP3 DUP5 ADD MSTORE ISZERO ISZERO PUSH1 0x5 SHL DUP3 ADD ADD CODESIZE DUP1 PUSH2 0x702 JUMP JUMPDEST SWAP2 SWAP1 DUP3 MLOAD SWAP3 DUP4 DUP3 MSTORE PUSH1 0x0 JUMPDEST DUP5 DUP2 LT PUSH2 0x7A4 JUMPI POP POP DUP3 PUSH1 0x0 PUSH1 0x20 DUP1 SWAP5 SWAP6 DUP5 ADD ADD MSTORE PUSH1 0x1F DUP1 NOT SWAP2 ADD AND ADD ADD SWAP1 JUMP JUMPDEST PUSH1 0x20 DUP2 DUP4 ADD DUP2 ADD MLOAD DUP5 DUP4 ADD DUP3 ADD MSTORE ADD PUSH2 0x783 JUMP JUMPDEST SWAP1 PUSH1 0x3 DUP3 LT ISZERO PUSH2 0x196 JUMPI MSTORE JUMP JUMPDEST SWAP3 SWAP2 PUSH1 0x60 SWAP3 PUSH2 0x7F0 PUSH2 0x7E5 PUSH2 0x7FD SWAP5 SWAP9 SWAP8 SWAP9 PUSH1 0x80 DUP9 MSTORE PUSH1 0x80 DUP9 ADD SWAP1 PUSH2 0x778 JUMP JUMPDEST SWAP3 PUSH1 0x20 DUP8 ADD SWAP1 PUSH2 0x7B8 JUMP JUMPDEST DUP5 DUP3 SUB PUSH1 0x40 DUP7 ADD MSTORE PUSH2 0x778 JUMP JUMPDEST SWAP4 ISZERO ISZERO SWAP2 ADD MSTORE JUMP JUMPDEST SWAP2 DUP2 PUSH1 0x1F DUP5 ADD SLT ISZERO PUSH2 0xA0 JUMPI DUP3 CALLDATALOAD SWAP2 PUSH8 0xFFFFFFFFFFFFFFFF DUP4 GT PUSH2 0xA0 JUMPI PUSH1 0x20 DUP4 DUP2 DUP7 ADD SWAP6 ADD ADD GT PUSH2 0xA0 JUMPI JUMP JUMPDEST PUSH1 0x2 SLOAD DUP2 LT ISZERO PUSH2 0x86A JUMPI PUSH1 0x2 PUSH1 0x0 MSTORE PUSH32 0x405787FA12A823E0F2B7631CC41B3BA8828B3321CA811111FA75CD3AA3BB5ACE ADD SWAP1 PUSH1 0x0 SWAP1 JUMP JUMPDEST PUSH4 0x4E487B71 PUSH1 0xE0 SHL PUSH1 0x0 MSTORE PUSH1 0x32 PUSH1 0x4 MSTORE PUSH1 0x24 PUSH1 0x0 REVERT JUMPDEST SWAP3 SWAP2 SWAP3 PUSH8 0xFFFFFFFFFFFFFFFF DUP3 GT PUSH2 0x411 JUMPI PUSH1 0x40 MLOAD SWAP2 PUSH2 0x8AA PUSH1 0x1F DUP3 ADD PUSH1 0x1F NOT AND PUSH1 0x20 ADD DUP5 PUSH2 0x6B0 JUMP JUMPDEST DUP3 SWAP5 DUP2 DUP5 MSTORE DUP2 DUP4 ADD GT PUSH2 0xA0 JUMPI DUP3 DUP2 PUSH1 0x20 SWAP4 DUP5 PUSH1 0x0 SWAP7 ADD CALLDATACOPY ADD ADD MSTORE JUMP JUMPDEST PUSH1 0x3 DUP3 LT ISZERO PUSH2 0x196 JUMPI MSTORE JUMP JUMPDEST SWAP1 DUP1 PUSH1 0x20 SWAP4 SWAP3 DUP2 DUP5 MSTORE DUP5 DUP5 ADD CALLDATACOPY PUSH1 0x0 DUP3 DUP3 ADD DUP5 ADD MSTORE PUSH1 0x1F ADD PUSH1 0x1F NOT AND ADD ADD SWAP1 JUMP INVALID LOG2 PUSH5 0x6970667358 0x22 SLT KECCAK256 0xC5 0x2D EXTCODESIZE SAR 0xA8 MOD 0xC3 CALLCODE SHR DUP14 0xE4 0xC7 0x4D ADDMOD 0xA7 0xCE GASLIMIT MSTORE DUP10 0xE3 SWAP13 PUSH32 0x9B8CC7EB3B6410628D0964736F6C634300081400330000000000000000000000 "},"methodIdentifiers":{"crownSovereign(address,string,uint8,string)":"2b74df3c","getSovereign(address)":"2f8caeb1","registry(address)":"038defd7","sovereigns(uint256)":"66d1b293","steward()":"637eea19","totalSovereigns()":"3e34f773"}}}}}