{"contracts/manifest/TerrainPulse.sol":{"TerrainPulse":{"abi":[{"inputs":[],"stateMutability":"nonpayable","type":"constructor"},{"anonymous":false,"inputs":[{"indexed":false,"internalType":"string","name":"chant","type":"string"},{"indexed":false,"internalType":"uint256","name":"frequency","type":"uint256"},{"indexed":false,"internalType":"string","name":"signature","type":"string"}],"name":"PulseEchoed","type":"event"},{"inputs":[{"internalType":"string","name":"chant","type":"string"},{"internalType":"uint256","name":"frequency","type":"uint256"},{"internalType":"string","name":"signature","type":"string"}],"name":"echoPulse","outputs":[],"stateMutability":"nonpayable","type":"function"},{"inputs":[{"internalType":"string","name":"chant","type":"string"}],"name":"getPulse","outputs":[{"internalType":"uint256","name":"","type":"uint256"},{"internalType":"string","name":"","type":"string"}],"stateMutability":"view","type":"function"},{"inputs":[{"internalType":"uint256","name":"","type":"uint256"}],"name":"keys","outputs":[{"internalType":"string","name":"","type":"string"}],"stateMutability":"view","type":"function"},{"inputs":[{"internalType":"string","name":"","type":"string"}],"name":"pulses","outputs":[{"internalType":"string","name":"chant","type":"string"},{"internalType":"uint256","name":"frequency","type":"uint256"},{"internalType":"string","name":"signature","type":"string"}],"stateMutability":"view","type":"function"},{"inputs":[],"name":"steward","outputs":[{"internalType":"address","name":"","type":"address"}],"stateMutability":"view","type":"function"},{"inputs":[],"name":"totalPulses","outputs":[{"internalType":"uint256","name":"","type":"uint256"}],"stateMutability":"view","type":"function"}],"evm":{"bytecode":{"linkReferences":{},"object":"6080806040523461002857600080546001600160a01b0319163317905561092a908161002e8239f35b600080fdfe6080604052600436101561001257600080fd5b60003560e01c80630cb6aaf11461060c578063637eea19146105e357806393e56b091461054a578063db443ff41461052c578063f0d4966c1461047c5763f285e3d11461005e57600080fd5b346104775760603660031901126104775760043567ffffffffffffffff81116104775761008f90369060040161080a565b9060443567ffffffffffffffff8111610477576100b090369060040161080a565b6000549193916001600160a01b03163303610444576040516100d1816106de565b6100dc368486610838565b815260243560208201526100f1368387610838565b6040820152604051838582376020818581016001815203019020815180519067ffffffffffffffff821161032f576101338261012d85546106a4565b8561087f565b602090601f83116001146103d7579180604094926002946000926103cc575b50508160011b916000199060031b1c19161781555b602084015160018201550191015180519067ffffffffffffffff821161032f57819061019d8261019786546106a4565b8661087f565b602090601f83116001146103665760009261035b575b50508160011b916000199060031b1c19161790555b6002546801000000000000000081101561032f578060016101ec9201600255610657565b6103455767ffffffffffffffff831161032f576102138361020d83546106a4565b8361087f565b6000601f84116001146102a257917fde1cf7cb6eff70b09bc65784a3148db08ec1d3ed8013dcd1f3a3f8dbd390095995918461029294600091610297575b508560011b906000198760031b1c19161790555b61027c6040519586956060875260608701916108d3565b91602435602086015284830360408601526108d3565b0390a1005b905086013538610251565b601f198416908260005260206000209160005b8181106103175750917fde1cf7cb6eff70b09bc65784a3148db08ec1d3ed8013dcd1f3a3f8dbd3900959979391866102929694106102fd575b5050600185811b019055610265565b870135600019600388901b60f8161c1916905538806102ee565b9192602060018192868b0135815501940192016102b5565b634e487b7160e01b600052604160045260246000fd5b634e487b7160e01b600052600060045260246000fd5b0151905038806101b3565b6000858152602081209350601f198516905b8181106103b4575090846001959493921061039b575b505050811b0190556101c8565b015160001960f88460031b161c1916905538808061038e565b92936020600181928786015181550195019301610378565b015190503880610152565b90601f198316918460005260206000209260005b81811061042c57509260019285926002966040989610610413575b505050811b018155610167565b015160001960f88460031b161c19169055388080610406565b929360206001819287860151815501950193016103eb565b60405162461bcd60e51b815260206004820152600b60248201526a139bdd081cdd195dd85c9960aa1b6044820152606490fd5b600080fd5b346104775760203660031901126104775760043567ffffffffffffffff81116104775736602382011215610477576104d960206104c6610515933690602481600401359101610838565b81604051938285809451938492016107c2565b810160018152030190206105286104ef8261071c565b9161050160026001830154920161071c565b6040519485946060865260608601906107e5565b91602085015283820360408501526107e5565b0390f35b34610477576000366003190112610477576020600254604051908152f35b346104775760203660031901126104775760043567ffffffffffffffff811161047757602061057f604092369060040161080a565b9190828451938492833781016001815203019020815161059e816106de565b6105a78261071c565b81526105c16002600184015493602084019485520161071c565b92839101525161052860405192839283526040602084015260408301906107e5565b34610477576000366003190112610477576000546040516001600160a01b039091168152602090f35b34610477576020366003190112610477576004356002548110156104775761063390610657565b610345576106436105289161071c565b6040519182916020835260208301906107e5565b60025481101561068e5760026000527f405787fa12a823e0f2b7631cc41b3ba8828b3321ca811111fa75cd3aa3bb5ace0190600090565b634e487b7160e01b600052603260045260246000fd5b90600182811c921680156106d4575b60208310146106be57565b634e487b7160e01b600052602260045260246000fd5b91607f16916106b3565b6060810190811067ffffffffffffffff82111761032f57604052565b90601f8019910116810190811067ffffffffffffffff82111761032f57604052565b9060405191826000825492610730846106a4565b90818452600194858116908160001461079f575060011461075c575b505061075a925003836106fa565b565b9093915060005260209081600020936000915b81831061078757505061075a9350820101388061074c565b8554888401850152948501948794509183019161076f565b91505061075a94506020925060ff191682840152151560051b820101388061074c565b60005b8381106107d55750506000910152565b81810151838201526020016107c5565b906020916107fe815180928185528580860191016107c2565b601f01601f1916010190565b9181601f840112156104775782359167ffffffffffffffff8311610477576020838186019501011161047757565b92919267ffffffffffffffff821161032f5760405191610862601f8201601f1916602001846106fa565b829481845281830111610477578281602093846000960137010152565b90601f811161088d57505050565b600091825260208220906020601f850160051c830194106108c9575b601f0160051c01915b8281106108be57505050565b8181556001016108b2565b90925082906108a9565b908060209392818452848401376000828201840152601f01601f191601019056fea2646970667358221220be548b7d0afa2f15f0c5162d3edbe1c57b3e8ad4d4a2e916db829c14e316790e64736f6c63430008140033","opcodes":"PUSH1 0x80 DUP1 PUSH1 0x40 MSTORE CALLVALUE PUSH2 0x28 JUMPI PUSH1 0x0 DUP1 SLOAD PUSH1 0x1 PUSH1 0x1 PUSH1 0xA0 SHL SUB NOT AND CALLER OR SWAP1 SSTORE PUSH2 0x92A SWAP1 DUP2 PUSH2 0x2E DUP3 CODECOPY RETURN JUMPDEST PUSH1 0x0 DUP1 REVERT INVALID PUSH1 0x80 PUSH1 0x40 MSTORE PUSH1 0x4 CALLDATASIZE LT ISZERO PUSH2 0x12 JUMPI PUSH1 0x0 DUP1 REVERT JUMPDEST PUSH1 0x0 CALLDATALOAD PUSH1 0xE0 SHR DUP1 PUSH4 0xCB6AAF1 EQ PUSH2 0x60C JUMPI DUP1 PUSH4 0x637EEA19 EQ PUSH2 0x5E3 JUMPI DUP1 PUSH4 0x93E56B09 EQ PUSH2 0x54A JUMPI DUP1 PUSH4 0xDB443FF4 EQ PUSH2 0x52C JUMPI DUP1 PUSH4 0xF0D4966C EQ PUSH2 0x47C JUMPI PUSH4 0xF285E3D1 EQ PUSH2 0x5E JUMPI PUSH1 0x0 DUP1 REVERT JUMPDEST CALLVALUE PUSH2 0x477 JUMPI PUSH1 0x60 CALLDATASIZE PUSH1 0x3 NOT ADD SLT PUSH2 0x477 JUMPI PUSH1 0x4 CALLDATALOAD PUSH8 0xFFFFFFFFFFFFFFFF DUP2 GT PUSH2 0x477 JUMPI PUSH2 0x8F SWAP1 CALLDATASIZE SWAP1 PUSH1 0x4 ADD PUSH2 0x80A JUMP JUMPDEST SWAP1 PUSH1 0x44 CALLDATALOAD PUSH8 0xFFFFFFFFFFFFFFFF DUP2 GT PUSH2 0x477 JUMPI PUSH2 0xB0 SWAP1 CALLDATASIZE SWAP1 PUSH1 0x4 ADD PUSH2 0x80A JUMP JUMPDEST PUSH1 0x0 SLOAD SWAP2 SWAP4 SWAP2 PUSH1 0x1 PUSH1 0x1 PUSH1 0xA0 SHL SUB AND CALLER SUB PUSH2 0x444 JUMPI PUSH1 0x40 MLOAD PUSH2 0xD1 DUP2 PUSH2 0x6DE JUMP JUMPDEST PUSH2 0xDC CALLDATASIZE DUP5 DUP7 PUSH2 0x838 JUMP JUMPDEST DUP2 MSTORE PUSH1 0x24 CALLDATALOAD PUSH1 0x20 DUP3 ADD MSTORE PUSH2 0xF1 CALLDATASIZE DUP4 DUP8 PUSH2 0x838 JUMP JUMPDEST PUSH1 0x40 DUP3 ADD MSTORE PUSH1 0x40 MLOAD DUP4 DUP6 DUP3 CALLDATACOPY PUSH1 0x20 DUP2 DUP6 DUP2 ADD PUSH1 0x1 DUP2 MSTORE SUB ADD SWAP1 KECCAK256 DUP2 MLOAD DUP1 MLOAD SWAP1 PUSH8 0xFFFFFFFFFFFFFFFF DUP3 GT PUSH2 0x32F JUMPI PUSH2 0x133 DUP3 PUSH2 0x12D DUP6 SLOAD PUSH2 0x6A4 JUMP JUMPDEST DUP6 PUSH2 0x87F JUMP JUMPDEST PUSH1 0x20 SWAP1 PUSH1 0x1F DUP4 GT PUSH1 0x1 EQ PUSH2 0x3D7 JUMPI SWAP2 DUP1 PUSH1 0x40 SWAP5 SWAP3 PUSH1 0x2 SWAP5 PUSH1 0x0 SWAP3 PUSH2 0x3CC JUMPI JUMPDEST POP POP DUP2 PUSH1 0x1 SHL SWAP2 PUSH1 0x0 NOT SWAP1 PUSH1 0x3 SHL SHR NOT AND OR DUP2 SSTORE JUMPDEST PUSH1 0x20 DUP5 ADD MLOAD PUSH1 0x1 DUP3 ADD SSTORE ADD SWAP2 ADD MLOAD DUP1 MLOAD SWAP1 PUSH8 0xFFFFFFFFFFFFFFFF DUP3 GT PUSH2 0x32F JUMPI DUP2 SWAP1 PUSH2 0x19D DUP3 PUSH2 0x197 DUP7 SLOAD PUSH2 0x6A4 JUMP JUMPDEST DUP7 PUSH2 0x87F JUMP JUMPDEST PUSH1 0x20 SWAP1 PUSH1 0x1F DUP4 GT PUSH1 0x1 EQ PUSH2 0x366 JUMPI PUSH1 0x0 SWAP3 PUSH2 0x35B JUMPI JUMPDEST POP POP DUP2 PUSH1 0x1 SHL SWAP2 PUSH1 0x0 NOT SWAP1 PUSH1 0x3 SHL SHR NOT AND OR SWAP1 SSTORE JUMPDEST PUSH1 0x2 SLOAD PUSH9 0x10000000000000000 DUP2 LT ISZERO PUSH2 0x32F JUMPI DUP1 PUSH1 0x1 PUSH2 0x1EC SWAP3 ADD PUSH1 0x2 SSTORE PUSH2 0x657 JUMP JUMPDEST PUSH2 0x345 JUMPI PUSH8 0xFFFFFFFFFFFFFFFF DUP4 GT PUSH2 0x32F JUMPI PUSH2 0x213 DUP4 PUSH2 0x20D DUP4 SLOAD PUSH2 0x6A4 JUMP JUMPDEST DUP4 PUSH2 0x87F JUMP JUMPDEST PUSH1 0x0 PUSH1 0x1F DUP5 GT PUSH1 0x1 EQ PUSH2 0x2A2 JUMPI SWAP2 PUSH32 0xDE1CF7CB6EFF70B09BC65784A3148DB08EC1D3ED8013DCD1F3A3F8DBD3900959 SWAP6 SWAP2 DUP5 PUSH2 0x292 SWAP5 PUSH1 0x0 SWAP2 PUSH2 0x297 JUMPI JUMPDEST POP DUP6 PUSH1 0x1 SHL SWAP1 PUSH1 0x0 NOT DUP8 PUSH1 0x3 SHL SHR NOT AND OR SWAP1 SSTORE JUMPDEST PUSH2 0x27C PUSH1 0x40 MLOAD SWAP6 DUP7 SWAP6 PUSH1 0x60 DUP8 MSTORE PUSH1 0x60 DUP8 ADD SWAP2 PUSH2 0x8D3 JUMP JUMPDEST SWAP2 PUSH1 0x24 CALLDATALOAD PUSH1 0x20 DUP7 ADD MSTORE DUP5 DUP4 SUB PUSH1 0x40 DUP7 ADD MSTORE PUSH2 0x8D3 JUMP JUMPDEST SUB SWAP1 LOG1 STOP JUMPDEST SWAP1 POP DUP7 ADD CALLDATALOAD CODESIZE PUSH2 0x251 JUMP JUMPDEST PUSH1 0x1F NOT DUP5 AND SWAP1 DUP3 PUSH1 0x0 MSTORE PUSH1 0x20 PUSH1 0x0 KECCAK256 SWAP2 PUSH1 0x0 JUMPDEST DUP2 DUP2 LT PUSH2 0x317 JUMPI POP SWAP2 PUSH32 0xDE1CF7CB6EFF70B09BC65784A3148DB08EC1D3ED8013DCD1F3A3F8DBD3900959 SWAP8 SWAP4 SWAP2 DUP7 PUSH2 0x292 SWAP7 SWAP5 LT PUSH2 0x2FD JUMPI JUMPDEST POP POP PUSH1 0x1 DUP6 DUP2 SHL ADD SWAP1 SSTORE PUSH2 0x265 JUMP JUMPDEST DUP8 ADD CALLDATALOAD PUSH1 0x0 NOT PUSH1 0x3 DUP9 SWAP1 SHL PUSH1 0xF8 AND SHR NOT AND SWAP1 SSTORE CODESIZE DUP1 PUSH2 0x2EE JUMP JUMPDEST SWAP2 SWAP3 PUSH1 0x20 PUSH1 0x1 DUP2 SWAP3 DUP7 DUP12 ADD CALLDATALOAD DUP2 SSTORE ADD SWAP5 ADD SWAP3 ADD PUSH2 0x2B5 JUMP JUMPDEST PUSH4 0x4E487B71 PUSH1 0xE0 SHL PUSH1 0x0 MSTORE PUSH1 0x41 PUSH1 0x4 MSTORE PUSH1 0x24 PUSH1 0x0 REVERT JUMPDEST PUSH4 0x4E487B71 PUSH1 0xE0 SHL PUSH1 0x0 MSTORE PUSH1 0x0 PUSH1 0x4 MSTORE PUSH1 0x24 PUSH1 0x0 REVERT JUMPDEST ADD MLOAD SWAP1 POP CODESIZE DUP1 PUSH2 0x1B3 JUMP JUMPDEST PUSH1 0x0 DUP6 DUP2 MSTORE PUSH1 0x20 DUP2 KECCAK256 SWAP4 POP PUSH1 0x1F NOT DUP6 AND SWAP1 JUMPDEST DUP2 DUP2 LT PUSH2 0x3B4 JUMPI POP SWAP1 DUP5 PUSH1 0x1 SWAP6 SWAP5 SWAP4 SWAP3 LT PUSH2 0x39B JUMPI JUMPDEST POP POP POP DUP2 SHL ADD SWAP1 SSTORE PUSH2 0x1C8 JUMP JUMPDEST ADD MLOAD PUSH1 0x0 NOT PUSH1 0xF8 DUP5 PUSH1 0x3 SHL AND SHR NOT AND SWAP1 SSTORE CODESIZE DUP1 DUP1 PUSH2 0x38E JUMP JUMPDEST SWAP3 SWAP4 PUSH1 0x20 PUSH1 0x1 DUP2 SWAP3 DUP8 DUP7 ADD MLOAD DUP2 SSTORE ADD SWAP6 ADD SWAP4 ADD PUSH2 0x378 JUMP JUMPDEST ADD MLOAD SWAP1 POP CODESIZE DUP1 PUSH2 0x152 JUMP JUMPDEST SWAP1 PUSH1 0x1F NOT DUP4 AND SWAP2 DUP5 PUSH1 0x0 MSTORE PUSH1 0x20 PUSH1 0x0 KECCAK256 SWAP3 PUSH1 0x0 JUMPDEST DUP2 DUP2 LT PUSH2 0x42C JUMPI POP SWAP3 PUSH1 0x1 SWAP3 DUP6 SWAP3 PUSH1 0x2 SWAP7 PUSH1 0x40 SWAP9 SWAP7 LT PUSH2 0x413 JUMPI JUMPDEST POP POP POP DUP2 SHL ADD DUP2 SSTORE PUSH2 0x167 JUMP JUMPDEST ADD MLOAD PUSH1 0x0 NOT PUSH1 0xF8 DUP5 PUSH1 0x3 SHL AND SHR NOT AND SWAP1 SSTORE CODESIZE DUP1 DUP1 PUSH2 0x406 JUMP JUMPDEST SWAP3 SWAP4 PUSH1 0x20 PUSH1 0x1 DUP2 SWAP3 DUP8 DUP7 ADD MLOAD DUP2 SSTORE ADD SWAP6 ADD SWAP4 ADD PUSH2 0x3EB JUMP JUMPDEST PUSH1 0x40 MLOAD PUSH3 0x461BCD PUSH1 0xE5 SHL DUP2 MSTORE PUSH1 0x20 PUSH1 0x4 DUP3 ADD MSTORE PUSH1 0xB PUSH1 0x24 DUP3 ADD MSTORE PUSH11 0x139BDD081CDD195DD85C99 PUSH1 0xAA SHL PUSH1 0x44 DUP3 ADD MSTORE PUSH1 0x64 SWAP1 REVERT JUMPDEST PUSH1 0x0 DUP1 REVERT JUMPDEST CALLVALUE PUSH2 0x477 JUMPI PUSH1 0x20 CALLDATASIZE PUSH1 0x3 NOT ADD SLT PUSH2 0x477 JUMPI PUSH1 0x4 CALLDATALOAD PUSH8 0xFFFFFFFFFFFFFFFF DUP2 GT PUSH2 0x477 JUMPI CALLDATASIZE PUSH1 0x23 DUP3 ADD SLT ISZERO PUSH2 0x477 JUMPI PUSH2 0x4D9 PUSH1 0x20 PUSH2 0x4C6 PUSH2 0x515 SWAP4 CALLDATASIZE SWAP1 PUSH1 0x24 DUP2 PUSH1 0x4 ADD CALLDATALOAD SWAP2 ADD PUSH2 0x838 JUMP JUMPDEST DUP2 PUSH1 0x40 MLOAD SWAP4 DUP3 DUP6 DUP1 SWAP5 MLOAD SWAP4 DUP5 SWAP3 ADD PUSH2 0x7C2 JUMP JUMPDEST DUP2 ADD PUSH1 0x1 DUP2 MSTORE SUB ADD SWAP1 KECCAK256 PUSH2 0x528 PUSH2 0x4EF DUP3 PUSH2 0x71C JUMP JUMPDEST SWAP2 PUSH2 0x501 PUSH1 0x2 PUSH1 0x1 DUP4 ADD SLOAD SWAP3 ADD PUSH2 0x71C JUMP JUMPDEST PUSH1 0x40 MLOAD SWAP5 DUP6 SWAP5 PUSH1 0x60 DUP7 MSTORE PUSH1 0x60 DUP7 ADD SWAP1 PUSH2 0x7E5 JUMP JUMPDEST SWAP2 PUSH1 0x20 DUP6 ADD MSTORE DUP4 DUP3 SUB PUSH1 0x40 DUP6 ADD MSTORE PUSH2 0x7E5 JUMP JUMPDEST SUB SWAP1 RETURN JUMPDEST CALLVALUE PUSH2 0x477 JUMPI PUSH1 0x0 CALLDATASIZE PUSH1 0x3 NOT ADD SLT PUSH2 0x477 JUMPI PUSH1 0x20 PUSH1 0x2 SLOAD PUSH1 0x40 MLOAD SWAP1 DUP2 MSTORE RETURN JUMPDEST CALLVALUE PUSH2 0x477 JUMPI PUSH1 0x20 CALLDATASIZE PUSH1 0x3 NOT ADD SLT PUSH2 0x477 JUMPI PUSH1 0x4 CALLDATALOAD PUSH8 0xFFFFFFFFFFFFFFFF DUP2 GT PUSH2 0x477 JUMPI PUSH1 0x20 PUSH2 0x57F PUSH1 0x40 SWAP3 CALLDATASIZE SWAP1 PUSH1 0x4 ADD PUSH2 0x80A JUMP JUMPDEST SWAP2 SWAP1 DUP3 DUP5 MLOAD SWAP4 DUP5 SWAP3 DUP4 CALLDATACOPY DUP2 ADD PUSH1 0x1 DUP2 MSTORE SUB ADD SWAP1 KECCAK256 DUP2 MLOAD PUSH2 0x59E DUP2 PUSH2 0x6DE JUMP JUMPDEST PUSH2 0x5A7 DUP3 PUSH2 0x71C JUMP JUMPDEST DUP2 MSTORE PUSH2 0x5C1 PUSH1 0x2 PUSH1 0x1 DUP5 ADD SLOAD SWAP4 PUSH1 0x20 DUP5 ADD SWAP5 DUP6 MSTORE ADD PUSH2 0x71C JUMP JUMPDEST SWAP3 DUP4 SWAP2 ADD MSTORE MLOAD PUSH2 0x528 PUSH1 0x40 MLOAD SWAP3 DUP4 SWAP3 DUP4 MSTORE PUSH1 0x40 PUSH1 0x20 DUP5 ADD MSTORE PUSH1 0x40 DUP4 ADD SWAP1 PUSH2 0x7E5 JUMP JUMPDEST CALLVALUE PUSH2 0x477 JUMPI PUSH1 0x0 CALLDATASIZE PUSH1 0x3 NOT ADD SLT PUSH2 0x477 JUMPI PUSH1 0x0 SLOAD PUSH1 0x40 MLOAD PUSH1 0x1 PUSH1 0x1 PUSH1 0xA0 SHL SUB SWAP1 SWAP2 AND DUP2 MSTORE PUSH1 0x20 SWAP1 RETURN JUMPDEST CALLVALUE PUSH2 0x477 JUMPI PUSH1 0x20 CALLDATASIZE PUSH1 0x3 NOT ADD SLT PUSH2 0x477 JUMPI PUSH1 0x4 CALLDATALOAD PUSH1 0x2 SLOAD DUP2 LT ISZERO PUSH2 0x477 JUMPI PUSH2 0x633 SWAP1 PUSH2 0x657 JUMP JUMPDEST PUSH2 0x345 JUMPI PUSH2 0x643 PUSH2 0x528 SWAP2 PUSH2 0x71C JUMP JUMPDEST PUSH1 0x40 MLOAD SWAP2 DUP3 SWAP2 PUSH1 0x20 DUP4 MSTORE PUSH1 0x20 DUP4 ADD SWAP1 PUSH2 0x7E5 JUMP JUMPDEST PUSH1 0x2 SLOAD DUP2 LT ISZERO PUSH2 0x68E JUMPI PUSH1 0x2 PUSH1 0x0 MSTORE PUSH32 0x405787FA12A823E0F2B7631CC41B3BA8828B3321CA811111FA75CD3AA3BB5ACE ADD SWAP1 PUSH1 0x0 SWAP1 JUMP JUMPDEST PUSH4 0x4E487B71 PUSH1 0xE0 SHL PUSH1 0x0 MSTORE PUSH1 0x32 PUSH1 0x4 MSTORE PUSH1 0x24 PUSH1 0x0 REVERT JUMPDEST SWAP1 PUSH1 0x1 DUP3 DUP2 SHR SWAP3 AND DUP1 ISZERO PUSH2 0x6D4 JUMPI JUMPDEST PUSH1 0x20 DUP4 LT EQ PUSH2 0x6BE JUMPI JUMP JUMPDEST PUSH4 0x4E487B71 PUSH1 0xE0 SHL PUSH1 0x0 MSTORE PUSH1 0x22 PUSH1 0x4 MSTORE PUSH1 0x24 PUSH1 0x0 REVERT JUMPDEST SWAP2 PUSH1 0x7F AND SWAP2 PUSH2 0x6B3 JUMP JUMPDEST PUSH1 0x60 DUP2 ADD SWAP1 DUP2 LT PUSH8 0xFFFFFFFFFFFFFFFF DUP3 GT OR PUSH2 0x32F JUMPI PUSH1 0x40 MSTORE JUMP JUMPDEST SWAP1 PUSH1 0x1F DUP1 NOT SWAP2 ADD AND DUP2 ADD SWAP1 DUP2 LT PUSH8 0xFFFFFFFFFFFFFFFF DUP3 GT OR PUSH2 0x32F JUMPI PUSH1 0x40 MSTORE JUMP JUMPDEST SWAP1 PUSH1 0x40 MLOAD SWAP2 DUP3 PUSH1 0x0 DUP3 SLOAD SWAP3 PUSH2 0x730 DUP5 PUSH2 0x6A4 JUMP JUMPDEST SWAP1 DUP2 DUP5 MSTORE PUSH1 0x1 SWAP5 DUP6 DUP2 AND SWAP1 DUP2 PUSH1 0x0 EQ PUSH2 0x79F JUMPI POP PUSH1 0x1 EQ PUSH2 0x75C JUMPI JUMPDEST POP POP PUSH2 0x75A SWAP3 POP SUB DUP4 PUSH2 0x6FA JUMP JUMPDEST JUMP JUMPDEST SWAP1 SWAP4 SWAP2 POP PUSH1 0x0 MSTORE PUSH1 0x20 SWAP1 DUP2 PUSH1 0x0 KECCAK256 SWAP4 PUSH1 0x0 SWAP2 JUMPDEST DUP2 DUP4 LT PUSH2 0x787 JUMPI POP POP PUSH2 0x75A SWAP4 POP DUP3 ADD ADD CODESIZE DUP1 PUSH2 0x74C JUMP JUMPDEST DUP6 SLOAD DUP9 DUP5 ADD DUP6 ADD MSTORE SWAP5 DUP6 ADD SWAP5 DUP8 SWAP5 POP SWAP2 DUP4 ADD SWAP2 PUSH2 0x76F JUMP JUMPDEST SWAP2 POP POP PUSH2 0x75A SWAP5 POP PUSH1 0x20 SWAP3 POP PUSH1 0xFF NOT AND DUP3 DUP5 ADD MSTORE ISZERO ISZERO PUSH1 0x5 SHL DUP3 ADD ADD CODESIZE DUP1 PUSH2 0x74C JUMP JUMPDEST PUSH1 0x0 JUMPDEST DUP4 DUP2 LT PUSH2 0x7D5 JUMPI POP POP PUSH1 0x0 SWAP2 ADD MSTORE JUMP JUMPDEST DUP2 DUP2 ADD MLOAD DUP4 DUP3 ADD MSTORE PUSH1 0x20 ADD PUSH2 0x7C5 JUMP JUMPDEST SWAP1 PUSH1 0x20 SWAP2 PUSH2 0x7FE DUP2 MLOAD DUP1 SWAP3 DUP2 DUP6 MSTORE DUP6 DUP1 DUP7 ADD SWAP2 ADD PUSH2 0x7C2 JUMP JUMPDEST PUSH1 0x1F ADD PUSH1 0x1F NOT AND ADD ADD SWAP1 JUMP JUMPDEST SWAP2 DUP2 PUSH1 0x1F DUP5 ADD SLT ISZERO PUSH2 0x477 JUMPI DUP3 CALLDATALOAD SWAP2 PUSH8 0xFFFFFFFFFFFFFFFF DUP4 GT PUSH2 0x477 JUMPI PUSH1 0x20 DUP4 DUP2 DUP7 ADD SWAP6 ADD ADD GT PUSH2 0x477 JUMPI JUMP JUMPDEST SWAP3 SWAP2 SWAP3 PUSH8 0xFFFFFFFFFFFFFFFF DUP3 GT PUSH2 0x32F JUMPI PUSH1 0x40 MLOAD SWAP2 PUSH2 0x862 PUSH1 0x1F DUP3 ADD PUSH1 0x1F NOT AND PUSH1 0x20 ADD DUP5 PUSH2 0x6FA JUMP JUMPDEST DUP3 SWAP5 DUP2 DUP5 MSTORE DUP2 DUP4 ADD GT PUSH2 0x477 JUMPI DUP3 DUP2 PUSH1 0x20 SWAP4 DUP5 PUSH1 0x0 SWAP7 ADD CALLDATACOPY ADD ADD MSTORE JUMP JUMPDEST SWAP1 PUSH1 0x1F DUP2 GT PUSH2 0x88D JUMPI POP POP POP JUMP JUMPDEST PUSH1 0x0 SWAP2 DUP3 MSTORE PUSH1 0x20 DUP3 KECCAK256 SWAP1 PUSH1 0x20 PUSH1 0x1F DUP6 ADD PUSH1 0x5 SHR DUP4 ADD SWAP5 LT PUSH2 0x8C9 JUMPI JUMPDEST PUSH1 0x1F ADD PUSH1 0x5 SHR ADD SWAP2 JUMPDEST DUP3 DUP2 LT PUSH2 0x8BE JUMPI POP POP POP JUMP JUMPDEST DUP2 DUP2 SSTORE PUSH1 0x1 ADD PUSH2 0x8B2 JUMP JUMPDEST SWAP1 SWAP3 POP DUP3 SWAP1 PUSH2 0x8A9 JUMP JUMPDEST SWAP1 DUP1 PUSH1 0x20 SWAP4 SWAP3 DUP2 DUP5 MSTORE DUP5 DUP5 ADD CALLDATACOPY PUSH1 0x0 DUP3 DUP3 ADD DUP5 ADD MSTORE PUSH1 0x1F ADD PUSH1 0x1F NOT AND ADD ADD SWAP1 JUMP INVALID LOG2 PUSH5 0x6970667358 0x22 SLT KECCAK256 0xBE SLOAD DUP12 PUSH30 0xAFA2F15F0C5162D3EDBE1C57B3E8AD4D4A2E916DB829C14E316790E6473 PUSH16 0x6C634300081400330000000000000000 "},"methodIdentifiers":{"echoPulse(string,uint256,string)":"f285e3d1","getPulse(string)":"93e56b09","keys(uint256)":"0cb6aaf1","pulses(string)":"f0d4966c","steward()":"637eea19","totalPulses()":"db443ff4"}}}}}