{"contracts/Tin.sol":{"Tin":{"abi":[{"anonymous":false,"inputs":[{"indexed":true,"internalType":"address","name":"apprentice","type":"address"},{"indexed":false,"internalType":"string","name":"signal","type":"string"}],"name":"HumEchoed","type":"event"},{"anonymous":false,"inputs":[{"indexed":true,"internalType":"address","name":"apprentice","type":"address"}],"name":"TinCrowned","type":"event"},{"inputs":[{"internalType":"address","name":"","type":"address"}],"name":"activated","outputs":[{"internalType":"bool","name":"","type":"bool"}],"stateMutability":"view","type":"function"},{"inputs":[{"internalType":"address","name":"apprentice","type":"address"},{"internalType":"string","name":"signal","type":"string"}],"name":"conduct","outputs":[],"stateMutability":"nonpayable","type":"function"},{"inputs":[{"internalType":"address","name":"apprentice","type":"address"}],"name":"crown","outputs":[],"stateMutability":"nonpayable","type":"function"},{"inputs":[{"internalType":"address","name":"apprentice","type":"address"}],"name":"echoHum","outputs":[{"internalType":"string","name":"","type":"string"}],"stateMutability":"view","type":"function"},{"inputs":[{"internalType":"address","name":"","type":"address"}],"name":"hums","outputs":[{"internalType":"string","name":"","type":"string"}],"stateMutability":"view","type":"function"}],"evm":{"bytecode":{"linkReferences":{},"object":"60808060405234610016576105b4908161001c8239f35b600080fdfe604060808152600436101561001357600080fd5b600090813560e01c80635dca160714610365578063779d8677146103295780639c9c77ba146100f2578063ac29fb07146100b85763f47939e71461005657600080fd5b346100b45760203660031901126100b4576100b0916100a59082906001600160a01b036100816103c4565b168082528160205261009860ff8484205416610540565b8152600160205220610451565b9051918291826104f7565b0390f35b5080fd5b50346100b45760203660031901126100b4576100b0916100a59082906001600160a01b036100e46103c4565b168152600160205220610451565b50346100b457806003193601126100b45761010b6103c4565b67ffffffffffffffff916024358381116103255736602382011215610325578060040135938085116103115782519386602093601f1997610153868a601f84011601896103df565b808852366024828401011161030d57806024879301838a0137870101526001600160a01b0316808752868352838720549095906101929060ff16610540565b8587526001908184528488209386519384116102f9576101b28554610417565b601f81116102b3575b508091601f851160011461022a5750509180807fdaeb0bd831d8af2beb23e5d2d2344e086debbea3d3aa2cf4ff546a53ba14a7e397959361021997958b9361021f575b501b916000199060031b1c19161790555b51918291826104f7565b0390a280f35b8701519250386101fe565b84939492919216858a52828a20928a905b82821061029c5750509183917fdaeb0bd831d8af2beb23e5d2d2344e086debbea3d3aa2cf4ff546a53ba14a7e398969461021998969410610283575b5050811b01905561020f565b86015160001960f88460031b161c191690553880610277565b808785968294968d0151815501950193019061023b565b858a52818a20601f860160051c8101918387106102ef575b601f0160051c019084905b8281106102e45750506101bb565b8b81550184906102d6565b90915081906102cb565b634e487b7160e01b89526041600452602489fd5b8280fd5b634e487b7160e01b86526041600452602486fd5b8480fd5b50346100b45760203660031901126100b45760209160ff9082906001600160a01b036103536103c4565b16815280855220541690519015158152f35b50346100b45760203660031901126100b4576001600160a01b036103876103c4565b1690818352826020528220600160ff198254161790557f1f9df55eaa11a749187cf7bd5bafaba8ac04b9a07a62072885b1d53f71376f968280a280f35b600435906001600160a01b03821682036103da57565b600080fd5b90601f8019910116810190811067ffffffffffffffff82111761040157604052565b634e487b7160e01b600052604160045260246000fd5b90600182811c92168015610447575b602083101461043157565b634e487b7160e01b600052602260045260246000fd5b91607f1691610426565b906040519182600082549261046584610417565b9081845260019485811690816000146104d45750600114610491575b505061048f925003836103df565b565b9093915060005260209081600020936000915b8183106104bc57505061048f93508201013880610481565b855488840185015294850194879450918301916104a4565b91505061048f94506020925060ff191682840152151560051b8201013880610481565b6020808252825181830181905290939260005b82811061052c57505060409293506000838284010152601f8019910116010190565b81810186015184820160400152850161050a565b1561054757565b60405162461bcd60e51b815260206004820152600f60248201526e151a5b881b9bdd0818dc9bdddb9959608a1b6044820152606490fdfea264697066735822122053b2af70941b326dac18e7246c45731716158b1566e1bd66e158f2ac65aa4d9c64736f6c63430008140033","opcodes":"PUSH1 0x80 DUP1 PUSH1 0x40 MSTORE CALLVALUE PUSH2 0x16 JUMPI PUSH2 0x5B4 SWAP1 DUP2 PUSH2 0x1C DUP3 CODECOPY RETURN JUMPDEST PUSH1 0x0 DUP1 REVERT INVALID PUSH1 0x40 PUSH1 0x80 DUP2 MSTORE PUSH1 0x4 CALLDATASIZE LT ISZERO PUSH2 0x13 JUMPI PUSH1 0x0 DUP1 REVERT JUMPDEST PUSH1 0x0 SWAP1 DUP2 CALLDATALOAD PUSH1 0xE0 SHR DUP1 PUSH4 0x5DCA1607 EQ PUSH2 0x365 JUMPI DUP1 PUSH4 0x779D8677 EQ PUSH2 0x329 JUMPI DUP1 PUSH4 0x9C9C77BA EQ PUSH2 0xF2 JUMPI DUP1 PUSH4 0xAC29FB07 EQ PUSH2 0xB8 JUMPI PUSH4 0xF47939E7 EQ PUSH2 0x56 JUMPI PUSH1 0x0 DUP1 REVERT JUMPDEST CALLVALUE PUSH2 0xB4 JUMPI PUSH1 0x20 CALLDATASIZE PUSH1 0x3 NOT ADD SLT PUSH2 0xB4 JUMPI PUSH2 0xB0 SWAP2 PUSH2 0xA5 SWAP1 DUP3 SWAP1 PUSH1 0x1 PUSH1 0x1 PUSH1 0xA0 SHL SUB PUSH2 0x81 PUSH2 0x3C4 JUMP JUMPDEST AND DUP1 DUP3 MSTORE DUP2 PUSH1 0x20 MSTORE PUSH2 0x98 PUSH1 0xFF DUP5 DUP5 KECCAK256 SLOAD AND PUSH2 0x540 JUMP JUMPDEST DUP2 MSTORE PUSH1 0x1 PUSH1 0x20 MSTORE KECCAK256 PUSH2 0x451 JUMP JUMPDEST SWAP1 MLOAD SWAP2 DUP3 SWAP2 DUP3 PUSH2 0x4F7 JUMP JUMPDEST SUB SWAP1 RETURN JUMPDEST POP DUP1 REVERT JUMPDEST POP CALLVALUE PUSH2 0xB4 JUMPI PUSH1 0x20 CALLDATASIZE PUSH1 0x3 NOT ADD SLT PUSH2 0xB4 JUMPI PUSH2 0xB0 SWAP2 PUSH2 0xA5 SWAP1 DUP3 SWAP1 PUSH1 0x1 PUSH1 0x1 PUSH1 0xA0 SHL SUB PUSH2 0xE4 PUSH2 0x3C4 JUMP JUMPDEST AND DUP2 MSTORE PUSH1 0x1 PUSH1 0x20 MSTORE KECCAK256 PUSH2 0x451 JUMP JUMPDEST POP CALLVALUE PUSH2 0xB4 JUMPI DUP1 PUSH1 0x3 NOT CALLDATASIZE ADD SLT PUSH2 0xB4 JUMPI PUSH2 0x10B PUSH2 0x3C4 JUMP JUMPDEST PUSH8 0xFFFFFFFFFFFFFFFF SWAP2 PUSH1 0x24 CALLDATALOAD DUP4 DUP2 GT PUSH2 0x325 JUMPI CALLDATASIZE PUSH1 0x23 DUP3 ADD SLT ISZERO PUSH2 0x325 JUMPI DUP1 PUSH1 0x4 ADD CALLDATALOAD SWAP4 DUP1 DUP6 GT PUSH2 0x311 JUMPI DUP3 MLOAD SWAP4 DUP7 PUSH1 0x20 SWAP4 PUSH1 0x1F NOT SWAP8 PUSH2 0x153 DUP7 DUP11 PUSH1 0x1F DUP5 ADD AND ADD DUP10 PUSH2 0x3DF JUMP JUMPDEST DUP1 DUP9 MSTORE CALLDATASIZE PUSH1 0x24 DUP3 DUP5 ADD ADD GT PUSH2 0x30D JUMPI DUP1 PUSH1 0x24 DUP8 SWAP4 ADD DUP4 DUP11 ADD CALLDATACOPY DUP8 ADD ADD MSTORE PUSH1 0x1 PUSH1 0x1 PUSH1 0xA0 SHL SUB AND DUP1 DUP8 MSTORE DUP7 DUP4 MSTORE DUP4 DUP8 KECCAK256 SLOAD SWAP1 SWAP6 SWAP1 PUSH2 0x192 SWAP1 PUSH1 0xFF AND PUSH2 0x540 JUMP JUMPDEST DUP6 DUP8 MSTORE PUSH1 0x1 SWAP1 DUP2 DUP5 MSTORE DUP5 DUP9 KECCAK256 SWAP4 DUP7 MLOAD SWAP4 DUP5 GT PUSH2 0x2F9 JUMPI PUSH2 0x1B2 DUP6 SLOAD PUSH2 0x417 JUMP JUMPDEST PUSH1 0x1F DUP2 GT PUSH2 0x2B3 JUMPI JUMPDEST POP DUP1 SWAP2 PUSH1 0x1F DUP6 GT PUSH1 0x1 EQ PUSH2 0x22A JUMPI POP POP SWAP2 DUP1 DUP1 PUSH32 0xDAEB0BD831D8AF2BEB23E5D2D2344E086DEBBEA3D3AA2CF4FF546A53BA14A7E3 SWAP8 SWAP6 SWAP4 PUSH2 0x219 SWAP8 SWAP6 DUP12 SWAP4 PUSH2 0x21F JUMPI JUMPDEST POP SHL SWAP2 PUSH1 0x0 NOT SWAP1 PUSH1 0x3 SHL SHR NOT AND OR SWAP1 SSTORE JUMPDEST MLOAD SWAP2 DUP3 SWAP2 DUP3 PUSH2 0x4F7 JUMP JUMPDEST SUB SWAP1 LOG2 DUP1 RETURN JUMPDEST DUP8 ADD MLOAD SWAP3 POP CODESIZE PUSH2 0x1FE JUMP JUMPDEST DUP5 SWAP4 SWAP5 SWAP3 SWAP2 SWAP3 AND DUP6 DUP11 MSTORE DUP3 DUP11 KECCAK256 SWAP3 DUP11 SWAP1 JUMPDEST DUP3 DUP3 LT PUSH2 0x29C JUMPI POP POP SWAP2 DUP4 SWAP2 PUSH32 0xDAEB0BD831D8AF2BEB23E5D2D2344E086DEBBEA3D3AA2CF4FF546A53BA14A7E3 SWAP9 SWAP7 SWAP5 PUSH2 0x219 SWAP9 SWAP7 SWAP5 LT PUSH2 0x283 JUMPI JUMPDEST POP POP DUP2 SHL ADD SWAP1 SSTORE PUSH2 0x20F JUMP JUMPDEST DUP7 ADD MLOAD PUSH1 0x0 NOT PUSH1 0xF8 DUP5 PUSH1 0x3 SHL AND SHR NOT AND SWAP1 SSTORE CODESIZE DUP1 PUSH2 0x277 JUMP JUMPDEST DUP1 DUP8 DUP6 SWAP7 DUP3 SWAP5 SWAP7 DUP14 ADD MLOAD DUP2 SSTORE ADD SWAP6 ADD SWAP4 ADD SWAP1 PUSH2 0x23B JUMP JUMPDEST DUP6 DUP11 MSTORE DUP2 DUP11 KECCAK256 PUSH1 0x1F DUP7 ADD PUSH1 0x5 SHR DUP2 ADD SWAP2 DUP4 DUP8 LT PUSH2 0x2EF JUMPI JUMPDEST PUSH1 0x1F ADD PUSH1 0x5 SHR ADD SWAP1 DUP5 SWAP1 JUMPDEST DUP3 DUP2 LT PUSH2 0x2E4 JUMPI POP POP PUSH2 0x1BB JUMP JUMPDEST DUP12 DUP2 SSTORE ADD DUP5 SWAP1 PUSH2 0x2D6 JUMP JUMPDEST SWAP1 SWAP2 POP DUP2 SWAP1 PUSH2 0x2CB JUMP JUMPDEST PUSH4 0x4E487B71 PUSH1 0xE0 SHL DUP10 MSTORE PUSH1 0x41 PUSH1 0x4 MSTORE PUSH1 0x24 DUP10 REVERT JUMPDEST DUP3 DUP1 REVERT JUMPDEST PUSH4 0x4E487B71 PUSH1 0xE0 SHL DUP7 MSTORE PUSH1 0x41 PUSH1 0x4 MSTORE PUSH1 0x24 DUP7 REVERT JUMPDEST DUP5 DUP1 REVERT JUMPDEST POP CALLVALUE PUSH2 0xB4 JUMPI PUSH1 0x20 CALLDATASIZE PUSH1 0x3 NOT ADD SLT PUSH2 0xB4 JUMPI PUSH1 0x20 SWAP2 PUSH1 0xFF SWAP1 DUP3 SWAP1 PUSH1 0x1 PUSH1 0x1 PUSH1 0xA0 SHL SUB PUSH2 0x353 PUSH2 0x3C4 JUMP JUMPDEST AND DUP2 MSTORE DUP1 DUP6 MSTORE KECCAK256 SLOAD AND SWAP1 MLOAD SWAP1 ISZERO ISZERO DUP2 MSTORE RETURN JUMPDEST POP CALLVALUE PUSH2 0xB4 JUMPI PUSH1 0x20 CALLDATASIZE PUSH1 0x3 NOT ADD SLT PUSH2 0xB4 JUMPI PUSH1 0x1 PUSH1 0x1 PUSH1 0xA0 SHL SUB PUSH2 0x387 PUSH2 0x3C4 JUMP JUMPDEST AND SWAP1 DUP2 DUP4 MSTORE DUP3 PUSH1 0x20 MSTORE DUP3 KECCAK256 PUSH1 0x1 PUSH1 0xFF NOT DUP3 SLOAD AND OR SWAP1 SSTORE PUSH32 0x1F9DF55EAA11A749187CF7BD5BAFABA8AC04B9A07A62072885B1D53F71376F96 DUP3 DUP1 LOG2 DUP1 RETURN JUMPDEST PUSH1 0x4 CALLDATALOAD SWAP1 PUSH1 0x1 PUSH1 0x1 PUSH1 0xA0 SHL SUB DUP3 AND DUP3 SUB PUSH2 0x3DA JUMPI JUMP JUMPDEST PUSH1 0x0 DUP1 REVERT JUMPDEST SWAP1 PUSH1 0x1F DUP1 NOT SWAP2 ADD AND DUP2 ADD SWAP1 DUP2 LT PUSH8 0xFFFFFFFFFFFFFFFF DUP3 GT OR PUSH2 0x401 JUMPI PUSH1 0x40 MSTORE JUMP JUMPDEST PUSH4 0x4E487B71 PUSH1 0xE0 SHL PUSH1 0x0 MSTORE PUSH1 0x41 PUSH1 0x4 MSTORE PUSH1 0x24 PUSH1 0x0 REVERT JUMPDEST SWAP1 PUSH1 0x1 DUP3 DUP2 SHR SWAP3 AND DUP1 ISZERO PUSH2 0x447 JUMPI JUMPDEST PUSH1 0x20 DUP4 LT EQ PUSH2 0x431 JUMPI JUMP JUMPDEST PUSH4 0x4E487B71 PUSH1 0xE0 SHL PUSH1 0x0 MSTORE PUSH1 0x22 PUSH1 0x4 MSTORE PUSH1 0x24 PUSH1 0x0 REVERT JUMPDEST SWAP2 PUSH1 0x7F AND SWAP2 PUSH2 0x426 JUMP JUMPDEST SWAP1 PUSH1 0x40 MLOAD SWAP2 DUP3 PUSH1 0x0 DUP3 SLOAD SWAP3 PUSH2 0x465 DUP5 PUSH2 0x417 JUMP JUMPDEST SWAP1 DUP2 DUP5 MSTORE PUSH1 0x1 SWAP5 DUP6 DUP2 AND SWAP1 DUP2 PUSH1 0x0 EQ PUSH2 0x4D4 JUMPI POP PUSH1 0x1 EQ PUSH2 0x491 JUMPI JUMPDEST POP POP PUSH2 0x48F SWAP3 POP SUB DUP4 PUSH2 0x3DF JUMP JUMPDEST JUMP JUMPDEST SWAP1 SWAP4 SWAP2 POP PUSH1 0x0 MSTORE PUSH1 0x20 SWAP1 DUP2 PUSH1 0x0 KECCAK256 SWAP4 PUSH1 0x0 SWAP2 JUMPDEST DUP2 DUP4 LT PUSH2 0x4BC JUMPI POP POP PUSH2 0x48F SWAP4 POP DUP3 ADD ADD CODESIZE DUP1 PUSH2 0x481 JUMP JUMPDEST DUP6 SLOAD DUP9 DUP5 ADD DUP6 ADD MSTORE SWAP5 DUP6 ADD SWAP5 DUP8 SWAP5 POP SWAP2 DUP4 ADD SWAP2 PUSH2 0x4A4 JUMP JUMPDEST SWAP2 POP POP PUSH2 0x48F SWAP5 POP PUSH1 0x20 SWAP3 POP PUSH1 0xFF NOT AND DUP3 DUP5 ADD MSTORE ISZERO ISZERO PUSH1 0x5 SHL DUP3 ADD ADD CODESIZE DUP1 PUSH2 0x481 JUMP JUMPDEST PUSH1 0x20 DUP1 DUP3 MSTORE DUP3 MLOAD DUP2 DUP4 ADD DUP2 SWAP1 MSTORE SWAP1 SWAP4 SWAP3 PUSH1 0x0 JUMPDEST DUP3 DUP2 LT PUSH2 0x52C JUMPI POP POP PUSH1 0x40 SWAP3 SWAP4 POP PUSH1 0x0 DUP4 DUP3 DUP5 ADD ADD MSTORE PUSH1 0x1F DUP1 NOT SWAP2 ADD AND ADD ADD SWAP1 JUMP JUMPDEST DUP2 DUP2 ADD DUP7 ADD MLOAD DUP5 DUP3 ADD PUSH1 0x40 ADD MSTORE DUP6 ADD PUSH2 0x50A JUMP JUMPDEST ISZERO PUSH2 0x547 JUMPI JUMP JUMPDEST PUSH1 0x40 MLOAD PUSH3 0x461BCD PUSH1 0xE5 SHL DUP2 MSTORE PUSH1 0x20 PUSH1 0x4 DUP3 ADD MSTORE PUSH1 0xF PUSH1 0x24 DUP3 ADD MSTORE PUSH15 0x151A5B881B9BDD0818DC9BDDDB9959 PUSH1 0x8A SHL PUSH1 0x44 DUP3 ADD MSTORE PUSH1 0x64 SWAP1 REVERT INVALID LOG2 PUSH5 0x6970667358 0x22 SLT KECCAK256 MSTORE8 0xB2 0xAF PUSH17 0x941B326DAC18E7246C45731716158B1566 0xE1 0xBD PUSH7 0xE158F2AC65AA4D SWAP13 PUSH5 0x736F6C6343 STOP ADDMOD EQ STOP CALLER "},"methodIdentifiers":{"activated(address)":"779d8677","conduct(address,string)":"9c9c77ba","crown(address)":"5dca1607","echoHum(address)":"f47939e7","hums(address)":"ac29fb07"}}}}}