{"contracts/sovereigns/SovereignPulse.sol":{"SovereignPulse":{"abi":[{"inputs":[],"stateMutability":"nonpayable","type":"constructor"},{"anonymous":false,"inputs":[{"indexed":true,"internalType":"address","name":"sovereign","type":"address"},{"indexed":false,"internalType":"string","name":"name","type":"string"},{"indexed":false,"internalType":"string","name":"kind","type":"string"},{"indexed":false,"internalType":"uint256","name":"frequency","type":"uint256"}],"name":"PulseEchoed","type":"event"},{"inputs":[{"internalType":"address","name":"sovereign","type":"address"},{"internalType":"string","name":"name","type":"string"},{"internalType":"string","name":"kind","type":"string"},{"internalType":"uint256","name":"frequency","type":"uint256"}],"name":"echoPulse","outputs":[],"stateMutability":"nonpayable","type":"function"},{"inputs":[{"internalType":"address","name":"sovereign","type":"address"}],"name":"getPulse","outputs":[{"internalType":"string","name":"","type":"string"},{"internalType":"string","name":"","type":"string"},{"internalType":"uint256","name":"","type":"uint256"}],"stateMutability":"view","type":"function"},{"inputs":[{"internalType":"address","name":"","type":"address"}],"name":"pulses","outputs":[{"internalType":"string","name":"name","type":"string"},{"internalType":"string","name":"kind","type":"string"},{"internalType":"uint256","name":"frequency","type":"uint256"}],"stateMutability":"view","type":"function"},{"inputs":[{"internalType":"uint256","name":"","type":"uint256"}],"name":"sovereigns","outputs":[{"internalType":"address","name":"","type":"address"}],"stateMutability":"view","type":"function"},{"inputs":[],"name":"steward","outputs":[{"internalType":"address","name":"","type":"address"}],"stateMutability":"view","type":"function"},{"inputs":[],"name":"totalPulses","outputs":[{"internalType":"uint256","name":"","type":"uint256"}],"stateMutability":"view","type":"function"}],"evm":{"bytecode":{"linkReferences":{},"object":"6080806040523461002857600080546001600160a01b03191633179055610892908161002e8239f35b600080fdfe60808060405260048036101561001457600080fd5b60003560e01c91826336d3f6f8146101c0575081635b075e5a14610168578163637eea191461013f57816366d1b293146100ff57508063db443ff4146100e15763fd0e96861461006357600080fd5b346100dc5760203660031901126100dc576001600160a01b036100846105c1565b166000526001602052604060002060405161009e8161063f565b6100a782610693565b81526100d860026100ba60018501610693565b93846020850152015491826040820152519160405193849384610779565b0390f35b600080fd5b346100dc5760003660031901126100dc576020600254604051908152f35b346100dc5760203660031901126100dc57356002548110156100dc576101266020916107a7565b905460405160039290921b1c6001600160a01b03168152f35b346100dc5760003660031901126100dc576000546040516001600160a01b039091168152602090f35b346100dc5760203660031901126100dc576001600160a01b036101896105c1565b16600052600160205260406000206101a081610693565b6100d860026101b160018501610693565b93015460405193849384610779565b90346100dc5760803660031901126100dc576101da6105c1565b9060243567ffffffffffffffff81116100dc576101fa90369083016105d7565b909160443567ffffffffffffffff81116100dc5761021b90369083016105d7565b60005491969092916001600160a01b03163303610593575060405161023f8161063f565b61024a3685876107f4565b81526102573684896107f4565b6020820152606435604082015260018060a01b0386166000526001602052604060002090805180519067ffffffffffffffff82116104bd57819061029b8554610605565b601f8111610543575b50602090601f83116001146104dd576000926104d2575b50508160011b916000199060031b1c19161782555b602081015180519067ffffffffffffffff82116104bd576102f46001850154610605565b601f8111610476575b50602090601f8311600114610403579180600294926040946000926103f8575b50508160011b916000199060031b1c19161760018501555b015191015560025490680100000000000000008210156103e35750946103ca916103878760017fbae6224f18f85ffa729b9ea746a45eed6b27d7ab04faf740af2ca582d64affe79899016002556107a7565b81546001600160a01b038a811660039390931b92831b921b19161790556040516060808252909586956103bc9287019161083b565b91848303602086015261083b565b60643560408301526001600160a01b03909416930390a2005b604190634e487b7160e01b6000525260246000fd5b015190508c8061031d565b90601f198316916001860160005260206000209260005b81811061045e57509260019285926040966002989610610445575b505050811b016001850155610335565b015160001960f88460031b161c191690558c8080610435565b9293602060018192878601518155019501930161041a565b600185016000526020600020601f840160051c8101602085106104b6575b601f830160051c820181106104aa5750506102fd565b60008155600101610494565b5080610494565b604185634e487b7160e01b6000525260246000fd5b015190508a806102bb565b6000868152602081209350601f198516905b81811061052b5750908460019594939210610512575b505050811b0182556102d0565b015160001960f88460031b161c191690558a8080610505565b929360206001819287860151815501950193016104ef565b909150846000526020600020601f840160051c81016020851061058c575b90849392915b601f830160051c8201811061057d5750506102a4565b60008155859450600101610567565b5080610561565b602060649262461bcd60e51b8352820152600b60248201526a139bdd081cdd195dd85c9960aa1b6044820152fd5b600435906001600160a01b03821682036100dc57565b9181601f840112156100dc5782359167ffffffffffffffff83116100dc57602083818601950101116100dc57565b90600182811c92168015610635575b602083101461061f57565b634e487b7160e01b600052602260045260246000fd5b91607f1691610614565b6060810190811067ffffffffffffffff82111761065b57604052565b634e487b7160e01b600052604160045260246000fd5b90601f8019910116810190811067ffffffffffffffff82111761065b57604052565b90604051918260008254926106a784610605565b90818452600194858116908160001461071657506001146106d3575b50506106d192500383610671565b565b9093915060005260209081600020936000915b8183106106fe5750506106d1935082010138806106c3565b855488840185015294850194879450918301916106e6565b9150506106d194506020925060ff191682840152151560051b82010138806106c3565b919082519283825260005b848110610765575050826000602080949584010152601f8019910116010190565b602081830181015184830182015201610744565b9392916107a290610794604093606088526060880190610739565b908682036020880152610739565b930152565b6002548110156107de5760026000527f405787fa12a823e0f2b7631cc41b3ba8828b3321ca811111fa75cd3aa3bb5ace0190600090565b634e487b7160e01b600052603260045260246000fd5b92919267ffffffffffffffff821161065b576040519161081e601f8201601f191660200184610671565b8294818452818301116100dc578281602093846000960137010152565b908060209392818452848401376000828201840152601f01601f191601019056fea2646970667358221220b761da1f223e2a02dedd11d9b10140fe150c0f3c0cb7734ba59f0c817b79399b64736f6c63430008140033","opcodes":"PUSH1 0x80 DUP1 PUSH1 0x40 MSTORE CALLVALUE PUSH2 0x28 JUMPI PUSH1 0x0 DUP1 SLOAD PUSH1 0x1 PUSH1 0x1 PUSH1 0xA0 SHL SUB NOT AND CALLER OR SWAP1 SSTORE PUSH2 0x892 SWAP1 DUP2 PUSH2 0x2E DUP3 CODECOPY RETURN JUMPDEST PUSH1 0x0 DUP1 REVERT INVALID PUSH1 0x80 DUP1 PUSH1 0x40 MSTORE PUSH1 0x4 DUP1 CALLDATASIZE LT ISZERO PUSH2 0x14 JUMPI PUSH1 0x0 DUP1 REVERT JUMPDEST PUSH1 0x0 CALLDATALOAD PUSH1 0xE0 SHR SWAP2 DUP3 PUSH4 0x36D3F6F8 EQ PUSH2 0x1C0 JUMPI POP DUP2 PUSH4 0x5B075E5A EQ PUSH2 0x168 JUMPI DUP2 PUSH4 0x637EEA19 EQ PUSH2 0x13F JUMPI DUP2 PUSH4 0x66D1B293 EQ PUSH2 0xFF JUMPI POP DUP1 PUSH4 0xDB443FF4 EQ PUSH2 0xE1 JUMPI PUSH4 0xFD0E9686 EQ PUSH2 0x63 JUMPI PUSH1 0x0 DUP1 REVERT JUMPDEST CALLVALUE PUSH2 0xDC JUMPI PUSH1 0x20 CALLDATASIZE PUSH1 0x3 NOT ADD SLT PUSH2 0xDC JUMPI PUSH1 0x1 PUSH1 0x1 PUSH1 0xA0 SHL SUB PUSH2 0x84 PUSH2 0x5C1 JUMP JUMPDEST AND PUSH1 0x0 MSTORE PUSH1 0x1 PUSH1 0x20 MSTORE PUSH1 0x40 PUSH1 0x0 KECCAK256 PUSH1 0x40 MLOAD PUSH2 0x9E DUP2 PUSH2 0x63F JUMP JUMPDEST PUSH2 0xA7 DUP3 PUSH2 0x693 JUMP JUMPDEST DUP2 MSTORE PUSH2 0xD8 PUSH1 0x2 PUSH2 0xBA PUSH1 0x1 DUP6 ADD PUSH2 0x693 JUMP JUMPDEST SWAP4 DUP5 PUSH1 0x20 DUP6 ADD MSTORE ADD SLOAD SWAP2 DUP3 PUSH1 0x40 DUP3 ADD MSTORE MLOAD SWAP2 PUSH1 0x40 MLOAD SWAP4 DUP5 SWAP4 DUP5 PUSH2 0x779 JUMP JUMPDEST SUB SWAP1 RETURN JUMPDEST PUSH1 0x0 DUP1 REVERT JUMPDEST CALLVALUE PUSH2 0xDC JUMPI PUSH1 0x0 CALLDATASIZE PUSH1 0x3 NOT ADD SLT PUSH2 0xDC JUMPI PUSH1 0x20 PUSH1 0x2 SLOAD PUSH1 0x40 MLOAD SWAP1 DUP2 MSTORE RETURN JUMPDEST CALLVALUE PUSH2 0xDC JUMPI PUSH1 0x20 CALLDATASIZE PUSH1 0x3 NOT ADD SLT PUSH2 0xDC JUMPI CALLDATALOAD PUSH1 0x2 SLOAD DUP2 LT ISZERO PUSH2 0xDC JUMPI PUSH2 0x126 PUSH1 0x20 SWAP2 PUSH2 0x7A7 JUMP JUMPDEST SWAP1 SLOAD PUSH1 0x40 MLOAD PUSH1 0x3 SWAP3 SWAP1 SWAP3 SHL SHR PUSH1 0x1 PUSH1 0x1 PUSH1 0xA0 SHL SUB AND DUP2 MSTORE RETURN JUMPDEST CALLVALUE PUSH2 0xDC JUMPI PUSH1 0x0 CALLDATASIZE PUSH1 0x3 NOT ADD SLT PUSH2 0xDC JUMPI PUSH1 0x0 SLOAD PUSH1 0x40 MLOAD PUSH1 0x1 PUSH1 0x1 PUSH1 0xA0 SHL SUB SWAP1 SWAP2 AND DUP2 MSTORE PUSH1 0x20 SWAP1 RETURN JUMPDEST CALLVALUE PUSH2 0xDC JUMPI PUSH1 0x20 CALLDATASIZE PUSH1 0x3 NOT ADD SLT PUSH2 0xDC JUMPI PUSH1 0x1 PUSH1 0x1 PUSH1 0xA0 SHL SUB PUSH2 0x189 PUSH2 0x5C1 JUMP JUMPDEST AND PUSH1 0x0 MSTORE PUSH1 0x1 PUSH1 0x20 MSTORE PUSH1 0x40 PUSH1 0x0 KECCAK256 PUSH2 0x1A0 DUP2 PUSH2 0x693 JUMP JUMPDEST PUSH2 0xD8 PUSH1 0x2 PUSH2 0x1B1 PUSH1 0x1 DUP6 ADD PUSH2 0x693 JUMP JUMPDEST SWAP4 ADD SLOAD PUSH1 0x40 MLOAD SWAP4 DUP5 SWAP4 DUP5 PUSH2 0x779 JUMP JUMPDEST SWAP1 CALLVALUE PUSH2 0xDC JUMPI PUSH1 0x80 CALLDATASIZE PUSH1 0x3 NOT ADD SLT PUSH2 0xDC JUMPI PUSH2 0x1DA PUSH2 0x5C1 JUMP JUMPDEST SWAP1 PUSH1 0x24 CALLDATALOAD PUSH8 0xFFFFFFFFFFFFFFFF DUP2 GT PUSH2 0xDC JUMPI PUSH2 0x1FA SWAP1 CALLDATASIZE SWAP1 DUP4 ADD PUSH2 0x5D7 JUMP JUMPDEST SWAP1 SWAP2 PUSH1 0x44 CALLDATALOAD PUSH8 0xFFFFFFFFFFFFFFFF DUP2 GT PUSH2 0xDC JUMPI PUSH2 0x21B SWAP1 CALLDATASIZE SWAP1 DUP4 ADD PUSH2 0x5D7 JUMP JUMPDEST PUSH1 0x0 SLOAD SWAP2 SWAP7 SWAP1 SWAP3 SWAP2 PUSH1 0x1 PUSH1 0x1 PUSH1 0xA0 SHL SUB AND CALLER SUB PUSH2 0x593 JUMPI POP PUSH1 0x40 MLOAD PUSH2 0x23F DUP2 PUSH2 0x63F JUMP JUMPDEST PUSH2 0x24A CALLDATASIZE DUP6 DUP8 PUSH2 0x7F4 JUMP JUMPDEST DUP2 MSTORE PUSH2 0x257 CALLDATASIZE DUP5 DUP10 PUSH2 0x7F4 JUMP JUMPDEST PUSH1 0x20 DUP3 ADD MSTORE PUSH1 0x64 CALLDATALOAD PUSH1 0x40 DUP3 ADD MSTORE PUSH1 0x1 DUP1 PUSH1 0xA0 SHL SUB DUP7 AND PUSH1 0x0 MSTORE PUSH1 0x1 PUSH1 0x20 MSTORE PUSH1 0x40 PUSH1 0x0 KECCAK256 SWAP1 DUP1 MLOAD DUP1 MLOAD SWAP1 PUSH8 0xFFFFFFFFFFFFFFFF DUP3 GT PUSH2 0x4BD JUMPI DUP2 SWAP1 PUSH2 0x29B DUP6 SLOAD PUSH2 0x605 JUMP JUMPDEST PUSH1 0x1F DUP2 GT PUSH2 0x543 JUMPI JUMPDEST POP PUSH1 0x20 SWAP1 PUSH1 0x1F DUP4 GT PUSH1 0x1 EQ PUSH2 0x4DD JUMPI PUSH1 0x0 SWAP3 PUSH2 0x4D2 JUMPI JUMPDEST POP POP DUP2 PUSH1 0x1 SHL SWAP2 PUSH1 0x0 NOT SWAP1 PUSH1 0x3 SHL SHR NOT AND OR DUP3 SSTORE JUMPDEST PUSH1 0x20 DUP2 ADD MLOAD DUP1 MLOAD SWAP1 PUSH8 0xFFFFFFFFFFFFFFFF DUP3 GT PUSH2 0x4BD JUMPI PUSH2 0x2F4 PUSH1 0x1 DUP6 ADD SLOAD PUSH2 0x605 JUMP JUMPDEST PUSH1 0x1F DUP2 GT PUSH2 0x476 JUMPI JUMPDEST POP PUSH1 0x20 SWAP1 PUSH1 0x1F DUP4 GT PUSH1 0x1 EQ PUSH2 0x403 JUMPI SWAP2 DUP1 PUSH1 0x2 SWAP5 SWAP3 PUSH1 0x40 SWAP5 PUSH1 0x0 SWAP3 PUSH2 0x3F8 JUMPI JUMPDEST POP POP DUP2 PUSH1 0x1 SHL SWAP2 PUSH1 0x0 NOT SWAP1 PUSH1 0x3 SHL SHR NOT AND OR PUSH1 0x1 DUP6 ADD SSTORE JUMPDEST ADD MLOAD SWAP2 ADD SSTORE PUSH1 0x2 SLOAD SWAP1 PUSH9 0x10000000000000000 DUP3 LT ISZERO PUSH2 0x3E3 JUMPI POP SWAP5 PUSH2 0x3CA SWAP2 PUSH2 0x387 DUP8 PUSH1 0x1 PUSH32 0xBAE6224F18F85FFA729B9EA746A45EED6B27D7AB04FAF740AF2CA582D64AFFE7 SWAP9 SWAP10 ADD PUSH1 0x2 SSTORE PUSH2 0x7A7 JUMP JUMPDEST DUP2 SLOAD PUSH1 0x1 PUSH1 0x1 PUSH1 0xA0 SHL SUB DUP11 DUP2 AND PUSH1 0x3 SWAP4 SWAP1 SWAP4 SHL SWAP3 DUP4 SHL SWAP3 SHL NOT AND OR SWAP1 SSTORE PUSH1 0x40 MLOAD PUSH1 0x60 DUP1 DUP3 MSTORE SWAP1 SWAP6 DUP7 SWAP6 PUSH2 0x3BC SWAP3 DUP8 ADD SWAP2 PUSH2 0x83B JUMP JUMPDEST SWAP2 DUP5 DUP4 SUB PUSH1 0x20 DUP7 ADD MSTORE PUSH2 0x83B JUMP JUMPDEST PUSH1 0x64 CALLDATALOAD PUSH1 0x40 DUP4 ADD MSTORE PUSH1 0x1 PUSH1 0x1 PUSH1 0xA0 SHL SUB SWAP1 SWAP5 AND SWAP4 SUB SWAP1 LOG2 STOP JUMPDEST PUSH1 0x41 SWAP1 PUSH4 0x4E487B71 PUSH1 0xE0 SHL PUSH1 0x0 MSTORE MSTORE PUSH1 0x24 PUSH1 0x0 REVERT JUMPDEST ADD MLOAD SWAP1 POP DUP13 DUP1 PUSH2 0x31D JUMP JUMPDEST SWAP1 PUSH1 0x1F NOT DUP4 AND SWAP2 PUSH1 0x1 DUP7 ADD PUSH1 0x0 MSTORE PUSH1 0x20 PUSH1 0x0 KECCAK256 SWAP3 PUSH1 0x0 JUMPDEST DUP2 DUP2 LT PUSH2 0x45E JUMPI POP SWAP3 PUSH1 0x1 SWAP3 DUP6 SWAP3 PUSH1 0x40 SWAP7 PUSH1 0x2 SWAP9 SWAP7 LT PUSH2 0x445 JUMPI JUMPDEST POP POP POP DUP2 SHL ADD PUSH1 0x1 DUP6 ADD SSTORE PUSH2 0x335 JUMP JUMPDEST ADD MLOAD PUSH1 0x0 NOT PUSH1 0xF8 DUP5 PUSH1 0x3 SHL AND SHR NOT AND SWAP1 SSTORE DUP13 DUP1 DUP1 PUSH2 0x435 JUMP JUMPDEST SWAP3 SWAP4 PUSH1 0x20 PUSH1 0x1 DUP2 SWAP3 DUP8 DUP7 ADD MLOAD DUP2 SSTORE ADD SWAP6 ADD SWAP4 ADD PUSH2 0x41A JUMP JUMPDEST PUSH1 0x1 DUP6 ADD PUSH1 0x0 MSTORE PUSH1 0x20 PUSH1 0x0 KECCAK256 PUSH1 0x1F DUP5 ADD PUSH1 0x5 SHR DUP2 ADD PUSH1 0x20 DUP6 LT PUSH2 0x4B6 JUMPI JUMPDEST PUSH1 0x1F DUP4 ADD PUSH1 0x5 SHR DUP3 ADD DUP2 LT PUSH2 0x4AA JUMPI POP POP PUSH2 0x2FD JUMP JUMPDEST PUSH1 0x0 DUP2 SSTORE PUSH1 0x1 ADD PUSH2 0x494 JUMP JUMPDEST POP DUP1 PUSH2 0x494 JUMP JUMPDEST PUSH1 0x41 DUP6 PUSH4 0x4E487B71 PUSH1 0xE0 SHL PUSH1 0x0 MSTORE MSTORE PUSH1 0x24 PUSH1 0x0 REVERT JUMPDEST ADD MLOAD SWAP1 POP DUP11 DUP1 PUSH2 0x2BB JUMP JUMPDEST PUSH1 0x0 DUP7 DUP2 MSTORE PUSH1 0x20 DUP2 KECCAK256 SWAP4 POP PUSH1 0x1F NOT DUP6 AND SWAP1 JUMPDEST DUP2 DUP2 LT PUSH2 0x52B JUMPI POP SWAP1 DUP5 PUSH1 0x1 SWAP6 SWAP5 SWAP4 SWAP3 LT PUSH2 0x512 JUMPI JUMPDEST POP POP POP DUP2 SHL ADD DUP3 SSTORE PUSH2 0x2D0 JUMP JUMPDEST ADD MLOAD PUSH1 0x0 NOT PUSH1 0xF8 DUP5 PUSH1 0x3 SHL AND SHR NOT AND SWAP1 SSTORE DUP11 DUP1 DUP1 PUSH2 0x505 JUMP JUMPDEST SWAP3 SWAP4 PUSH1 0x20 PUSH1 0x1 DUP2 SWAP3 DUP8 DUP7 ADD MLOAD DUP2 SSTORE ADD SWAP6 ADD SWAP4 ADD PUSH2 0x4EF JUMP JUMPDEST SWAP1 SWAP2 POP DUP5 PUSH1 0x0 MSTORE PUSH1 0x20 PUSH1 0x0 KECCAK256 PUSH1 0x1F DUP5 ADD PUSH1 0x5 SHR DUP2 ADD PUSH1 0x20 DUP6 LT PUSH2 0x58C JUMPI JUMPDEST SWAP1 DUP5 SWAP4 SWAP3 SWAP2 JUMPDEST PUSH1 0x1F DUP4 ADD PUSH1 0x5 SHR DUP3 ADD DUP2 LT PUSH2 0x57D JUMPI POP POP PUSH2 0x2A4 JUMP JUMPDEST PUSH1 0x0 DUP2 SSTORE DUP6 SWAP5 POP PUSH1 0x1 ADD PUSH2 0x567 JUMP JUMPDEST POP DUP1 PUSH2 0x561 JUMP JUMPDEST PUSH1 0x20 PUSH1 0x64 SWAP3 PUSH3 0x461BCD PUSH1 0xE5 SHL DUP4 MSTORE DUP3 ADD MSTORE PUSH1 0xB PUSH1 0x24 DUP3 ADD MSTORE PUSH11 0x139BDD081CDD195DD85C99 PUSH1 0xAA SHL PUSH1 0x44 DUP3 ADD MSTORE REVERT JUMPDEST PUSH1 0x4 CALLDATALOAD SWAP1 PUSH1 0x1 PUSH1 0x1 PUSH1 0xA0 SHL SUB DUP3 AND DUP3 SUB PUSH2 0xDC JUMPI JUMP JUMPDEST SWAP2 DUP2 PUSH1 0x1F DUP5 ADD SLT ISZERO PUSH2 0xDC JUMPI DUP3 CALLDATALOAD SWAP2 PUSH8 0xFFFFFFFFFFFFFFFF DUP4 GT PUSH2 0xDC JUMPI PUSH1 0x20 DUP4 DUP2 DUP7 ADD SWAP6 ADD ADD GT PUSH2 0xDC JUMPI JUMP JUMPDEST SWAP1 PUSH1 0x1 DUP3 DUP2 SHR SWAP3 AND DUP1 ISZERO PUSH2 0x635 JUMPI JUMPDEST PUSH1 0x20 DUP4 LT EQ PUSH2 0x61F JUMPI JUMP JUMPDEST PUSH4 0x4E487B71 PUSH1 0xE0 SHL PUSH1 0x0 MSTORE PUSH1 0x22 PUSH1 0x4 MSTORE PUSH1 0x24 PUSH1 0x0 REVERT JUMPDEST SWAP2 PUSH1 0x7F AND SWAP2 PUSH2 0x614 JUMP JUMPDEST PUSH1 0x60 DUP2 ADD SWAP1 DUP2 LT PUSH8 0xFFFFFFFFFFFFFFFF DUP3 GT OR PUSH2 0x65B JUMPI PUSH1 0x40 MSTORE JUMP JUMPDEST PUSH4 0x4E487B71 PUSH1 0xE0 SHL PUSH1 0x0 MSTORE PUSH1 0x41 PUSH1 0x4 MSTORE PUSH1 0x24 PUSH1 0x0 REVERT JUMPDEST SWAP1 PUSH1 0x1F DUP1 NOT SWAP2 ADD AND DUP2 ADD SWAP1 DUP2 LT PUSH8 0xFFFFFFFFFFFFFFFF DUP3 GT OR PUSH2 0x65B JUMPI PUSH1 0x40 MSTORE JUMP JUMPDEST SWAP1 PUSH1 0x40 MLOAD SWAP2 DUP3 PUSH1 0x0 DUP3 SLOAD SWAP3 PUSH2 0x6A7 DUP5 PUSH2 0x605 JUMP JUMPDEST SWAP1 DUP2 DUP5 MSTORE PUSH1 0x1 SWAP5 DUP6 DUP2 AND SWAP1 DUP2 PUSH1 0x0 EQ PUSH2 0x716 JUMPI POP PUSH1 0x1 EQ PUSH2 0x6D3 JUMPI JUMPDEST POP POP PUSH2 0x6D1 SWAP3 POP SUB DUP4 PUSH2 0x671 JUMP JUMPDEST JUMP JUMPDEST SWAP1 SWAP4 SWAP2 POP PUSH1 0x0 MSTORE PUSH1 0x20 SWAP1 DUP2 PUSH1 0x0 KECCAK256 SWAP4 PUSH1 0x0 SWAP2 JUMPDEST DUP2 DUP4 LT PUSH2 0x6FE JUMPI POP POP PUSH2 0x6D1 SWAP4 POP DUP3 ADD ADD CODESIZE DUP1 PUSH2 0x6C3 JUMP JUMPDEST DUP6 SLOAD DUP9 DUP5 ADD DUP6 ADD MSTORE SWAP5 DUP6 ADD SWAP5 DUP8 SWAP5 POP SWAP2 DUP4 ADD SWAP2 PUSH2 0x6E6 JUMP JUMPDEST SWAP2 POP POP PUSH2 0x6D1 SWAP5 POP PUSH1 0x20 SWAP3 POP PUSH1 0xFF NOT AND DUP3 DUP5 ADD MSTORE ISZERO ISZERO PUSH1 0x5 SHL DUP3 ADD ADD CODESIZE DUP1 PUSH2 0x6C3 JUMP JUMPDEST SWAP2 SWAP1 DUP3 MLOAD SWAP3 DUP4 DUP3 MSTORE PUSH1 0x0 JUMPDEST DUP5 DUP2 LT PUSH2 0x765 JUMPI POP POP DUP3 PUSH1 0x0 PUSH1 0x20 DUP1 SWAP5 SWAP6 DUP5 ADD ADD MSTORE PUSH1 0x1F DUP1 NOT SWAP2 ADD AND ADD ADD SWAP1 JUMP JUMPDEST PUSH1 0x20 DUP2 DUP4 ADD DUP2 ADD MLOAD DUP5 DUP4 ADD DUP3 ADD MSTORE ADD PUSH2 0x744 JUMP JUMPDEST SWAP4 SWAP3 SWAP2 PUSH2 0x7A2 SWAP1 PUSH2 0x794 PUSH1 0x40 SWAP4 PUSH1 0x60 DUP9 MSTORE PUSH1 0x60 DUP9 ADD SWAP1 PUSH2 0x739 JUMP JUMPDEST SWAP1 DUP7 DUP3 SUB PUSH1 0x20 DUP9 ADD MSTORE PUSH2 0x739 JUMP JUMPDEST SWAP4 ADD MSTORE JUMP JUMPDEST PUSH1 0x2 SLOAD DUP2 LT ISZERO PUSH2 0x7DE JUMPI PUSH1 0x2 PUSH1 0x0 MSTORE PUSH32 0x405787FA12A823E0F2B7631CC41B3BA8828B3321CA811111FA75CD3AA3BB5ACE ADD SWAP1 PUSH1 0x0 SWAP1 JUMP JUMPDEST PUSH4 0x4E487B71 PUSH1 0xE0 SHL PUSH1 0x0 MSTORE PUSH1 0x32 PUSH1 0x4 MSTORE PUSH1 0x24 PUSH1 0x0 REVERT JUMPDEST SWAP3 SWAP2 SWAP3 PUSH8 0xFFFFFFFFFFFFFFFF DUP3 GT PUSH2 0x65B JUMPI PUSH1 0x40 MLOAD SWAP2 PUSH2 0x81E PUSH1 0x1F DUP3 ADD PUSH1 0x1F NOT AND PUSH1 0x20 ADD DUP5 PUSH2 0x671 JUMP JUMPDEST DUP3 SWAP5 DUP2 DUP5 MSTORE DUP2 DUP4 ADD GT PUSH2 0xDC JUMPI DUP3 DUP2 PUSH1 0x20 SWAP4 DUP5 PUSH1 0x0 SWAP7 ADD CALLDATACOPY ADD ADD MSTORE JUMP JUMPDEST SWAP1 DUP1 PUSH1 0x20 SWAP4 SWAP3 DUP2 DUP5 MSTORE DUP5 DUP5 ADD CALLDATACOPY PUSH1 0x0 DUP3 DUP3 ADD DUP5 ADD MSTORE PUSH1 0x1F ADD PUSH1 0x1F NOT AND ADD ADD SWAP1 JUMP INVALID LOG2 PUSH5 0x6970667358 0x22 SLT KECCAK256 0xB7 PUSH2 0xDA1F 0x22 RETURNDATACOPY 0x2A MUL 0xDE 0xDD GT 0xD9 0xB1 ADD BLOCKHASH INVALID ISZERO 0xC 0xF EXTCODECOPY 0xC 0xB7 PUSH20 0x4BA59F0C817B79399B64736F6C63430008140033 "},"methodIdentifiers":{"echoPulse(address,string,string,uint256)":"36d3f6f8","getPulse(address)":"fd0e9686","pulses(address)":"5b075e5a","sovereigns(uint256)":"66d1b293","steward()":"637eea19","totalPulses()":"db443ff4"}}}}}