{"contracts/manifest/TerrainChoreographyRouter.sol":{"TerrainChoreographyRouter":{"abi":[{"inputs":[],"stateMutability":"nonpayable","type":"constructor"},{"anonymous":false,"inputs":[{"indexed":false,"internalType":"string","name":"chant","type":"string"},{"indexed":false,"internalType":"string","name":"glyph","type":"string"},{"indexed":false,"internalType":"string","name":"pulse","type":"string"},{"indexed":false,"internalType":"string","name":"choreography","type":"string"}],"name":"ChoreographyRouted","type":"event"},{"inputs":[{"internalType":"string","name":"chant","type":"string"}],"name":"getRoute","outputs":[{"internalType":"string","name":"","type":"string"},{"internalType":"string","name":"","type":"string"},{"internalType":"string","name":"","type":"string"}],"stateMutability":"view","type":"function"},{"inputs":[{"internalType":"uint256","name":"","type":"uint256"}],"name":"keys","outputs":[{"internalType":"string","name":"","type":"string"}],"stateMutability":"view","type":"function"},{"inputs":[{"internalType":"string","name":"chant","type":"string"},{"internalType":"string","name":"glyph","type":"string"},{"internalType":"string","name":"pulse","type":"string"},{"internalType":"string","name":"choreography","type":"string"}],"name":"routeChoreography","outputs":[],"stateMutability":"nonpayable","type":"function"},{"inputs":[{"internalType":"string","name":"","type":"string"}],"name":"routes","outputs":[{"internalType":"string","name":"chant","type":"string"},{"internalType":"string","name":"glyph","type":"string"},{"internalType":"string","name":"pulse","type":"string"},{"internalType":"string","name":"choreography","type":"string"}],"stateMutability":"view","type":"function"},{"inputs":[],"name":"steward","outputs":[{"internalType":"address","name":"","type":"address"}],"stateMutability":"view","type":"function"},{"inputs":[],"name":"totalRoutes","outputs":[{"internalType":"uint256","name":"","type":"uint256"}],"stateMutability":"view","type":"function"}],"evm":{"bytecode":{"linkReferences":{},"object":"6080806040523461002857600080546001600160a01b03191633179055610bb9908161002e8239f35b600080fdfe608080604052600436101561001357600080fd5b60003560e01c90816305a2d3ac146108cf575080630cb6aaf1146108845780631b5f03a6146107b05780633790ff6314610170578063637eea19146101475763cffbffb51461006157600080fd5b34610142576020366003190112610142576004356001600160401b0381116101425736602382011215610142576100bd60206100aa610114933690602481600401359101610ac8565b8160405193828580945193849201610a53565b8101600181520301902061013e6100d3826109ad565b916101306100e3600183016109ad565b916101226100ff60036100f8600285016109ad565b93016109ad565b93604051978897608089526080890190610a76565b908782036020890152610a76565b908582036040870152610a76565b908382036060850152610a76565b0390f35b600080fd5b34610142576000366003190112610142576000546040516001600160a01b039091168152602090f35b34610142576080366003190112610142576004356001600160401b038111610142576101a0903690600401610a9b565b906024356001600160401b038111610142576101c0903690600401610a9b565b92906044356001600160401b038111610142576101e1903690600401610a9b565b6064356001600160401b03811161014257610200903690600401610a9b565b60005491979094916001600160a01b0316330361077d5760405161022381610971565b61022e36888a610ac8565b815261023b368385610ac8565b602082015261024b368587610ac8565b604082015261025b36878b610ac8565b60608201526040518789823760208189810160018152030190209080518051906001600160401b03821161057557819061029f826102998754610937565b87610b0e565b602090601f831160011461071157600092610706575b50508160011b916000199060031b1c19161782555b60208101518051906001600160401b0382116105755781906102fc826102f36001880154610937565b60018801610b0e565b602090601f831160011461069457600092610689575b50508160011b916000199060031b1c19161760018301555b604081015180516001600160401b038111610575576002840191610358826103528554610937565b85610b0e565b602090601f831160011461061d5760609493929160009183610612575b50508160011b916000199060031b1c19161790555b0151908151906001600160401b038211610575576003829101926103b8826103b28654610937565b86610b0e565b602090601f83116001146105ac576000926105a1575b50508160011b916000199060031b1c19161790555b600254680100000000000000008110156105755780600161040792016002556108ea565b61058b576001600160401b0387116105755761042d876104278354610937565b83610b0e565b6000601f88116001146104da576104bc937f59421d84174a8c6ae38543e6523d685223edabfd8e241df34b5d6752daba940b9a96936104ca9896938a6104ae946000916104cf575b508b60011b906000198d60031b1c19161790555b6104a06040519b8c9b60808d5260808d0191610b62565b918a830360208c0152610b62565b918783036040890152610b62565b918483036060860152610b62565b0390a1005b90508c01358e610475565b8160005260206000209060005b601f198a16811061055d5750937f59421d84174a8c6ae38543e6523d685223edabfd8e241df34b5d6752daba940b9a96936104ca9896936104ae938c6104bc988d601f19811610610543575b50505060018b811b019055610489565b013560001960038e901b60f8161c191690558d8c81610533565b9091602060018192858e0135815501930191016104e7565b634e487b7160e01b600052604160045260246000fd5b634e487b7160e01b600052600060045260246000fd5b015190508b806103ce565b6000858152602081209350601f198516905b8181106105fa57509084600195949392106105e1575b505050811b0190556103e3565b015160001960f88460031b161c191690558b80806105d4565b929360206001819287860151815501950193016105be565b015190508e80610375565b90601f198316918460005260206000209260005b818110610671575091600193918560609897969410610658575b505050811b01905561038a565b015160001960f88460031b161c191690558e808061064b565b92936020600181928786015181550195019301610631565b015190508c80610312565b9250600185016000526020600020906000935b601f19841685106106eb576001945083601f198116106106d2575b505050811b01600183015561032a565b015160001960f88460031b161c191690558c80806106c2565b818101518355602094850194600190930192909101906106a7565b015190508c806102b5565b9250846000526020600020906000935b601f1984168510610762576001945083601f19811610610749575b505050811b0182556102ca565b015160001960f88460031b161c191690558c808061073c565b81810151835560209485019460019093019290910190610721565b60405162461bcd60e51b815260206004820152600b60248201526a139bdd081cdd195dd85c9960aa1b6044820152606490fd5b34610142576020366003190112610142576004356001600160401b0381116101425760206107e5610868923690600401610a9b565b91908260405193849283378101600181520301902061013e606061087660405161080e81610971565b610817856109ad565b8152610825600186016109ad565b906020810191825261084c600361083e600289016109ad565b9760408401988952016109ad565b9384910152519351604051958695606087526060870190610a76565b908582036020870152610a76565b908382036040850152610a76565b3461014257602036600319011261014257600435600254811015610142576108ab906108ea565b61058b576108bb61013e916109ad565b604051918291602083526020830190610a76565b34610142576000366003190112610142576020906002548152f35b6002548110156109215760026000527f405787fa12a823e0f2b7631cc41b3ba8828b3321ca811111fa75cd3aa3bb5ace0190600090565b634e487b7160e01b600052603260045260246000fd5b90600182811c92168015610967575b602083101461095157565b634e487b7160e01b600052602260045260246000fd5b91607f1691610946565b608081019081106001600160401b0382111761057557604052565b90601f801991011681019081106001600160401b0382111761057557604052565b90604051918260008254926109c184610937565b908184526001948581169081600014610a3057506001146109ed575b50506109eb9250038361098c565b565b9093915060005260209081600020936000915b818310610a185750506109eb935082010138806109dd565b85548884018501529485019487945091830191610a00565b9150506109eb94506020925060ff191682840152151560051b82010138806109dd565b60005b838110610a665750506000910152565b8181015183820152602001610a56565b90602091610a8f81518092818552858086019101610a53565b601f01601f1916010190565b9181601f84011215610142578235916001600160401b038311610142576020838186019501011161014257565b9291926001600160401b0382116105755760405191610af1601f8201601f19166020018461098c565b829481845281830111610142578281602093846000960137010152565b90601f8111610b1c57505050565b600091825260208220906020601f850160051c83019410610b58575b601f0160051c01915b828110610b4d57505050565b818155600101610b41565b9092508290610b38565b908060209392818452848401376000828201840152601f01601f191601019056fea26469706673582212202af9add10285e3101c5385e0b37c939b4ce7241db659232fccc306e7f4bd9a0a64736f6c63430008140033","opcodes":"PUSH1 0x80 DUP1 PUSH1 0x40 MSTORE CALLVALUE PUSH2 0x28 JUMPI PUSH1 0x0 DUP1 SLOAD PUSH1 0x1 PUSH1 0x1 PUSH1 0xA0 SHL SUB NOT AND CALLER OR SWAP1 SSTORE PUSH2 0xBB9 SWAP1 DUP2 PUSH2 0x2E DUP3 CODECOPY RETURN JUMPDEST PUSH1 0x0 DUP1 REVERT INVALID PUSH1 0x80 DUP1 PUSH1 0x40 MSTORE PUSH1 0x4 CALLDATASIZE LT ISZERO PUSH2 0x13 JUMPI PUSH1 0x0 DUP1 REVERT JUMPDEST PUSH1 0x0 CALLDATALOAD PUSH1 0xE0 SHR SWAP1 DUP2 PUSH4 0x5A2D3AC EQ PUSH2 0x8CF JUMPI POP DUP1 PUSH4 0xCB6AAF1 EQ PUSH2 0x884 JUMPI DUP1 PUSH4 0x1B5F03A6 EQ PUSH2 0x7B0 JUMPI DUP1 PUSH4 0x3790FF63 EQ PUSH2 0x170 JUMPI DUP1 PUSH4 0x637EEA19 EQ PUSH2 0x147 JUMPI PUSH4 0xCFFBFFB5 EQ PUSH2 0x61 JUMPI PUSH1 0x0 DUP1 REVERT JUMPDEST CALLVALUE PUSH2 0x142 JUMPI PUSH1 0x20 CALLDATASIZE PUSH1 0x3 NOT ADD SLT PUSH2 0x142 JUMPI PUSH1 0x4 CALLDATALOAD PUSH1 0x1 PUSH1 0x1 PUSH1 0x40 SHL SUB DUP2 GT PUSH2 0x142 JUMPI CALLDATASIZE PUSH1 0x23 DUP3 ADD SLT ISZERO PUSH2 0x142 JUMPI PUSH2 0xBD PUSH1 0x20 PUSH2 0xAA PUSH2 0x114 SWAP4 CALLDATASIZE SWAP1 PUSH1 0x24 DUP2 PUSH1 0x4 ADD CALLDATALOAD SWAP2 ADD PUSH2 0xAC8 JUMP JUMPDEST DUP2 PUSH1 0x40 MLOAD SWAP4 DUP3 DUP6 DUP1 SWAP5 MLOAD SWAP4 DUP5 SWAP3 ADD PUSH2 0xA53 JUMP JUMPDEST DUP2 ADD PUSH1 0x1 DUP2 MSTORE SUB ADD SWAP1 KECCAK256 PUSH2 0x13E PUSH2 0xD3 DUP3 PUSH2 0x9AD JUMP JUMPDEST SWAP2 PUSH2 0x130 PUSH2 0xE3 PUSH1 0x1 DUP4 ADD PUSH2 0x9AD JUMP JUMPDEST SWAP2 PUSH2 0x122 PUSH2 0xFF PUSH1 0x3 PUSH2 0xF8 PUSH1 0x2 DUP6 ADD PUSH2 0x9AD JUMP JUMPDEST SWAP4 ADD PUSH2 0x9AD JUMP JUMPDEST SWAP4 PUSH1 0x40 MLOAD SWAP8 DUP9 SWAP8 PUSH1 0x80 DUP10 MSTORE PUSH1 0x80 DUP10 ADD SWAP1 PUSH2 0xA76 JUMP JUMPDEST SWAP1 DUP8 DUP3 SUB PUSH1 0x20 DUP10 ADD MSTORE PUSH2 0xA76 JUMP JUMPDEST SWAP1 DUP6 DUP3 SUB PUSH1 0x40 DUP8 ADD MSTORE PUSH2 0xA76 JUMP JUMPDEST SWAP1 DUP4 DUP3 SUB PUSH1 0x60 DUP6 ADD MSTORE PUSH2 0xA76 JUMP JUMPDEST SUB SWAP1 RETURN JUMPDEST PUSH1 0x0 DUP1 REVERT JUMPDEST CALLVALUE PUSH2 0x142 JUMPI PUSH1 0x0 CALLDATASIZE PUSH1 0x3 NOT ADD SLT PUSH2 0x142 JUMPI PUSH1 0x0 SLOAD PUSH1 0x40 MLOAD PUSH1 0x1 PUSH1 0x1 PUSH1 0xA0 SHL SUB SWAP1 SWAP2 AND DUP2 MSTORE PUSH1 0x20 SWAP1 RETURN JUMPDEST CALLVALUE PUSH2 0x142 JUMPI PUSH1 0x80 CALLDATASIZE PUSH1 0x3 NOT ADD SLT PUSH2 0x142 JUMPI PUSH1 0x4 CALLDATALOAD PUSH1 0x1 PUSH1 0x1 PUSH1 0x40 SHL SUB DUP2 GT PUSH2 0x142 JUMPI PUSH2 0x1A0 SWAP1 CALLDATASIZE SWAP1 PUSH1 0x4 ADD PUSH2 0xA9B JUMP JUMPDEST SWAP1 PUSH1 0x24 CALLDATALOAD PUSH1 0x1 PUSH1 0x1 PUSH1 0x40 SHL SUB DUP2 GT PUSH2 0x142 JUMPI PUSH2 0x1C0 SWAP1 CALLDATASIZE SWAP1 PUSH1 0x4 ADD PUSH2 0xA9B JUMP JUMPDEST SWAP3 SWAP1 PUSH1 0x44 CALLDATALOAD PUSH1 0x1 PUSH1 0x1 PUSH1 0x40 SHL SUB DUP2 GT PUSH2 0x142 JUMPI PUSH2 0x1E1 SWAP1 CALLDATASIZE SWAP1 PUSH1 0x4 ADD PUSH2 0xA9B JUMP JUMPDEST PUSH1 0x64 CALLDATALOAD PUSH1 0x1 PUSH1 0x1 PUSH1 0x40 SHL SUB DUP2 GT PUSH2 0x142 JUMPI PUSH2 0x200 SWAP1 CALLDATASIZE SWAP1 PUSH1 0x4 ADD PUSH2 0xA9B JUMP JUMPDEST PUSH1 0x0 SLOAD SWAP2 SWAP8 SWAP1 SWAP5 SWAP2 PUSH1 0x1 PUSH1 0x1 PUSH1 0xA0 SHL SUB AND CALLER SUB PUSH2 0x77D JUMPI PUSH1 0x40 MLOAD PUSH2 0x223 DUP2 PUSH2 0x971 JUMP JUMPDEST PUSH2 0x22E CALLDATASIZE DUP9 DUP11 PUSH2 0xAC8 JUMP JUMPDEST DUP2 MSTORE PUSH2 0x23B CALLDATASIZE DUP4 DUP6 PUSH2 0xAC8 JUMP JUMPDEST PUSH1 0x20 DUP3 ADD MSTORE PUSH2 0x24B CALLDATASIZE DUP6 DUP8 PUSH2 0xAC8 JUMP JUMPDEST PUSH1 0x40 DUP3 ADD MSTORE PUSH2 0x25B CALLDATASIZE DUP8 DUP12 PUSH2 0xAC8 JUMP JUMPDEST PUSH1 0x60 DUP3 ADD MSTORE PUSH1 0x40 MLOAD DUP8 DUP10 DUP3 CALLDATACOPY PUSH1 0x20 DUP2 DUP10 DUP2 ADD PUSH1 0x1 DUP2 MSTORE SUB ADD SWAP1 KECCAK256 SWAP1 DUP1 MLOAD DUP1 MLOAD SWAP1 PUSH1 0x1 PUSH1 0x1 PUSH1 0x40 SHL SUB DUP3 GT PUSH2 0x575 JUMPI DUP2 SWAP1 PUSH2 0x29F DUP3 PUSH2 0x299 DUP8 SLOAD PUSH2 0x937 JUMP JUMPDEST DUP8 PUSH2 0xB0E JUMP JUMPDEST PUSH1 0x20 SWAP1 PUSH1 0x1F DUP4 GT PUSH1 0x1 EQ PUSH2 0x711 JUMPI PUSH1 0x0 SWAP3 PUSH2 0x706 JUMPI JUMPDEST POP POP DUP2 PUSH1 0x1 SHL SWAP2 PUSH1 0x0 NOT SWAP1 PUSH1 0x3 SHL SHR NOT AND OR DUP3 SSTORE JUMPDEST PUSH1 0x20 DUP2 ADD MLOAD DUP1 MLOAD SWAP1 PUSH1 0x1 PUSH1 0x1 PUSH1 0x40 SHL SUB DUP3 GT PUSH2 0x575 JUMPI DUP2 SWAP1 PUSH2 0x2FC DUP3 PUSH2 0x2F3 PUSH1 0x1 DUP9 ADD SLOAD PUSH2 0x937 JUMP JUMPDEST PUSH1 0x1 DUP9 ADD PUSH2 0xB0E JUMP JUMPDEST PUSH1 0x20 SWAP1 PUSH1 0x1F DUP4 GT PUSH1 0x1 EQ PUSH2 0x694 JUMPI PUSH1 0x0 SWAP3 PUSH2 0x689 JUMPI JUMPDEST POP POP DUP2 PUSH1 0x1 SHL SWAP2 PUSH1 0x0 NOT SWAP1 PUSH1 0x3 SHL SHR NOT AND OR PUSH1 0x1 DUP4 ADD SSTORE JUMPDEST PUSH1 0x40 DUP2 ADD MLOAD DUP1 MLOAD PUSH1 0x1 PUSH1 0x1 PUSH1 0x40 SHL SUB DUP2 GT PUSH2 0x575 JUMPI PUSH1 0x2 DUP5 ADD SWAP2 PUSH2 0x358 DUP3 PUSH2 0x352 DUP6 SLOAD PUSH2 0x937 JUMP JUMPDEST DUP6 PUSH2 0xB0E JUMP JUMPDEST PUSH1 0x20 SWAP1 PUSH1 0x1F DUP4 GT PUSH1 0x1 EQ PUSH2 0x61D JUMPI PUSH1 0x60 SWAP5 SWAP4 SWAP3 SWAP2 PUSH1 0x0 SWAP2 DUP4 PUSH2 0x612 JUMPI JUMPDEST POP POP DUP2 PUSH1 0x1 SHL SWAP2 PUSH1 0x0 NOT SWAP1 PUSH1 0x3 SHL SHR NOT AND OR SWAP1 SSTORE JUMPDEST ADD MLOAD SWAP1 DUP2 MLOAD SWAP1 PUSH1 0x1 PUSH1 0x1 PUSH1 0x40 SHL SUB DUP3 GT PUSH2 0x575 JUMPI PUSH1 0x3 DUP3 SWAP2 ADD SWAP3 PUSH2 0x3B8 DUP3 PUSH2 0x3B2 DUP7 SLOAD PUSH2 0x937 JUMP JUMPDEST DUP7 PUSH2 0xB0E JUMP JUMPDEST PUSH1 0x20 SWAP1 PUSH1 0x1F DUP4 GT PUSH1 0x1 EQ PUSH2 0x5AC JUMPI PUSH1 0x0 SWAP3 PUSH2 0x5A1 JUMPI JUMPDEST POP POP DUP2 PUSH1 0x1 SHL SWAP2 PUSH1 0x0 NOT SWAP1 PUSH1 0x3 SHL SHR NOT AND OR SWAP1 SSTORE JUMPDEST PUSH1 0x2 SLOAD PUSH9 0x10000000000000000 DUP2 LT ISZERO PUSH2 0x575 JUMPI DUP1 PUSH1 0x1 PUSH2 0x407 SWAP3 ADD PUSH1 0x2 SSTORE PUSH2 0x8EA JUMP JUMPDEST PUSH2 0x58B JUMPI PUSH1 0x1 PUSH1 0x1 PUSH1 0x40 SHL SUB DUP8 GT PUSH2 0x575 JUMPI PUSH2 0x42D DUP8 PUSH2 0x427 DUP4 SLOAD PUSH2 0x937 JUMP JUMPDEST DUP4 PUSH2 0xB0E JUMP JUMPDEST PUSH1 0x0 PUSH1 0x1F DUP9 GT PUSH1 0x1 EQ PUSH2 0x4DA JUMPI PUSH2 0x4BC SWAP4 PUSH32 0x59421D84174A8C6AE38543E6523D685223EDABFD8E241DF34B5D6752DABA940B SWAP11 SWAP7 SWAP4 PUSH2 0x4CA SWAP9 SWAP7 SWAP4 DUP11 PUSH2 0x4AE SWAP5 PUSH1 0x0 SWAP2 PUSH2 0x4CF JUMPI JUMPDEST POP DUP12 PUSH1 0x1 SHL SWAP1 PUSH1 0x0 NOT DUP14 PUSH1 0x3 SHL SHR NOT AND OR SWAP1 SSTORE JUMPDEST PUSH2 0x4A0 PUSH1 0x40 MLOAD SWAP12 DUP13 SWAP12 PUSH1 0x80 DUP14 MSTORE PUSH1 0x80 DUP14 ADD SWAP2 PUSH2 0xB62 JUMP JUMPDEST SWAP2 DUP11 DUP4 SUB PUSH1 0x20 DUP13 ADD MSTORE PUSH2 0xB62 JUMP JUMPDEST SWAP2 DUP8 DUP4 SUB PUSH1 0x40 DUP10 ADD MSTORE PUSH2 0xB62 JUMP JUMPDEST SWAP2 DUP5 DUP4 SUB PUSH1 0x60 DUP7 ADD MSTORE PUSH2 0xB62 JUMP JUMPDEST SUB SWAP1 LOG1 STOP JUMPDEST SWAP1 POP DUP13 ADD CALLDATALOAD DUP15 PUSH2 0x475 JUMP JUMPDEST DUP2 PUSH1 0x0 MSTORE PUSH1 0x20 PUSH1 0x0 KECCAK256 SWAP1 PUSH1 0x0 JUMPDEST PUSH1 0x1F NOT DUP11 AND DUP2 LT PUSH2 0x55D JUMPI POP SWAP4 PUSH32 0x59421D84174A8C6AE38543E6523D685223EDABFD8E241DF34B5D6752DABA940B SWAP11 SWAP7 SWAP4 PUSH2 0x4CA SWAP9 SWAP7 SWAP4 PUSH2 0x4AE SWAP4 DUP13 PUSH2 0x4BC SWAP9 DUP14 PUSH1 0x1F NOT DUP2 AND LT PUSH2 0x543 JUMPI JUMPDEST POP POP POP PUSH1 0x1 DUP12 DUP2 SHL ADD SWAP1 SSTORE PUSH2 0x489 JUMP JUMPDEST ADD CALLDATALOAD PUSH1 0x0 NOT PUSH1 0x3 DUP15 SWAP1 SHL PUSH1 0xF8 AND SHR NOT AND SWAP1 SSTORE DUP14 DUP13 DUP2 PUSH2 0x533 JUMP JUMPDEST SWAP1 SWAP2 PUSH1 0x20 PUSH1 0x1 DUP2 SWAP3 DUP6 DUP15 ADD CALLDATALOAD DUP2 SSTORE ADD SWAP4 ADD SWAP2 ADD PUSH2 0x4E7 JUMP JUMPDEST PUSH4 0x4E487B71 PUSH1 0xE0 SHL PUSH1 0x0 MSTORE PUSH1 0x41 PUSH1 0x4 MSTORE PUSH1 0x24 PUSH1 0x0 REVERT JUMPDEST PUSH4 0x4E487B71 PUSH1 0xE0 SHL PUSH1 0x0 MSTORE PUSH1 0x0 PUSH1 0x4 MSTORE PUSH1 0x24 PUSH1 0x0 REVERT JUMPDEST ADD MLOAD SWAP1 POP DUP12 DUP1 PUSH2 0x3CE JUMP JUMPDEST PUSH1 0x0 DUP6 DUP2 MSTORE PUSH1 0x20 DUP2 KECCAK256 SWAP4 POP PUSH1 0x1F NOT DUP6 AND SWAP1 JUMPDEST DUP2 DUP2 LT PUSH2 0x5FA JUMPI POP SWAP1 DUP5 PUSH1 0x1 SWAP6 SWAP5 SWAP4 SWAP3 LT PUSH2 0x5E1 JUMPI JUMPDEST POP POP POP DUP2 SHL ADD SWAP1 SSTORE PUSH2 0x3E3 JUMP JUMPDEST ADD MLOAD PUSH1 0x0 NOT PUSH1 0xF8 DUP5 PUSH1 0x3 SHL AND SHR NOT AND SWAP1 SSTORE DUP12 DUP1 DUP1 PUSH2 0x5D4 JUMP JUMPDEST SWAP3 SWAP4 PUSH1 0x20 PUSH1 0x1 DUP2 SWAP3 DUP8 DUP7 ADD MLOAD DUP2 SSTORE ADD SWAP6 ADD SWAP4 ADD PUSH2 0x5BE JUMP JUMPDEST ADD MLOAD SWAP1 POP DUP15 DUP1 PUSH2 0x375 JUMP JUMPDEST SWAP1 PUSH1 0x1F NOT DUP4 AND SWAP2 DUP5 PUSH1 0x0 MSTORE PUSH1 0x20 PUSH1 0x0 KECCAK256 SWAP3 PUSH1 0x0 JUMPDEST DUP2 DUP2 LT PUSH2 0x671 JUMPI POP SWAP2 PUSH1 0x1 SWAP4 SWAP2 DUP6 PUSH1 0x60 SWAP9 SWAP8 SWAP7 SWAP5 LT PUSH2 0x658 JUMPI JUMPDEST POP POP POP DUP2 SHL ADD SWAP1 SSTORE PUSH2 0x38A JUMP JUMPDEST ADD MLOAD PUSH1 0x0 NOT PUSH1 0xF8 DUP5 PUSH1 0x3 SHL AND SHR NOT AND SWAP1 SSTORE DUP15 DUP1 DUP1 PUSH2 0x64B JUMP JUMPDEST SWAP3 SWAP4 PUSH1 0x20 PUSH1 0x1 DUP2 SWAP3 DUP8 DUP7 ADD MLOAD DUP2 SSTORE ADD SWAP6 ADD SWAP4 ADD PUSH2 0x631 JUMP JUMPDEST ADD MLOAD SWAP1 POP DUP13 DUP1 PUSH2 0x312 JUMP JUMPDEST SWAP3 POP PUSH1 0x1 DUP6 ADD PUSH1 0x0 MSTORE PUSH1 0x20 PUSH1 0x0 KECCAK256 SWAP1 PUSH1 0x0 SWAP4 JUMPDEST PUSH1 0x1F NOT DUP5 AND DUP6 LT PUSH2 0x6EB JUMPI PUSH1 0x1 SWAP5 POP DUP4 PUSH1 0x1F NOT DUP2 AND LT PUSH2 0x6D2 JUMPI JUMPDEST POP POP POP DUP2 SHL ADD PUSH1 0x1 DUP4 ADD SSTORE PUSH2 0x32A JUMP JUMPDEST ADD MLOAD PUSH1 0x0 NOT PUSH1 0xF8 DUP5 PUSH1 0x3 SHL AND SHR NOT AND SWAP1 SSTORE DUP13 DUP1 DUP1 PUSH2 0x6C2 JUMP JUMPDEST DUP2 DUP2 ADD MLOAD DUP4 SSTORE PUSH1 0x20 SWAP5 DUP6 ADD SWAP5 PUSH1 0x1 SWAP1 SWAP4 ADD SWAP3 SWAP1 SWAP2 ADD SWAP1 PUSH2 0x6A7 JUMP JUMPDEST ADD MLOAD SWAP1 POP DUP13 DUP1 PUSH2 0x2B5 JUMP JUMPDEST SWAP3 POP DUP5 PUSH1 0x0 MSTORE PUSH1 0x20 PUSH1 0x0 KECCAK256 SWAP1 PUSH1 0x0 SWAP4 JUMPDEST PUSH1 0x1F NOT DUP5 AND DUP6 LT PUSH2 0x762 JUMPI PUSH1 0x1 SWAP5 POP DUP4 PUSH1 0x1F NOT DUP2 AND LT PUSH2 0x749 JUMPI JUMPDEST POP POP POP DUP2 SHL ADD DUP3 SSTORE PUSH2 0x2CA JUMP JUMPDEST ADD MLOAD PUSH1 0x0 NOT PUSH1 0xF8 DUP5 PUSH1 0x3 SHL AND SHR NOT AND SWAP1 SSTORE DUP13 DUP1 DUP1 PUSH2 0x73C JUMP JUMPDEST DUP2 DUP2 ADD MLOAD DUP4 SSTORE PUSH1 0x20 SWAP5 DUP6 ADD SWAP5 PUSH1 0x1 SWAP1 SWAP4 ADD SWAP3 SWAP1 SWAP2 ADD SWAP1 PUSH2 0x721 JUMP JUMPDEST PUSH1 0x40 MLOAD PUSH3 0x461BCD PUSH1 0xE5 SHL DUP2 MSTORE PUSH1 0x20 PUSH1 0x4 DUP3 ADD MSTORE PUSH1 0xB PUSH1 0x24 DUP3 ADD MSTORE PUSH11 0x139BDD081CDD195DD85C99 PUSH1 0xAA SHL PUSH1 0x44 DUP3 ADD MSTORE PUSH1 0x64 SWAP1 REVERT JUMPDEST CALLVALUE PUSH2 0x142 JUMPI PUSH1 0x20 CALLDATASIZE PUSH1 0x3 NOT ADD SLT PUSH2 0x142 JUMPI PUSH1 0x4 CALLDATALOAD PUSH1 0x1 PUSH1 0x1 PUSH1 0x40 SHL SUB DUP2 GT PUSH2 0x142 JUMPI PUSH1 0x20 PUSH2 0x7E5 PUSH2 0x868 SWAP3 CALLDATASIZE SWAP1 PUSH1 0x4 ADD PUSH2 0xA9B JUMP JUMPDEST SWAP2 SWAP1 DUP3 PUSH1 0x40 MLOAD SWAP4 DUP5 SWAP3 DUP4 CALLDATACOPY DUP2 ADD PUSH1 0x1 DUP2 MSTORE SUB ADD SWAP1 KECCAK256 PUSH2 0x13E PUSH1 0x60 PUSH2 0x876 PUSH1 0x40 MLOAD PUSH2 0x80E DUP2 PUSH2 0x971 JUMP JUMPDEST PUSH2 0x817 DUP6 PUSH2 0x9AD JUMP JUMPDEST DUP2 MSTORE PUSH2 0x825 PUSH1 0x1 DUP7 ADD PUSH2 0x9AD JUMP JUMPDEST SWAP1 PUSH1 0x20 DUP2 ADD SWAP2 DUP3 MSTORE PUSH2 0x84C PUSH1 0x3 PUSH2 0x83E PUSH1 0x2 DUP10 ADD PUSH2 0x9AD JUMP JUMPDEST SWAP8 PUSH1 0x40 DUP5 ADD SWAP9 DUP10 MSTORE ADD PUSH2 0x9AD JUMP JUMPDEST SWAP4 DUP5 SWAP2 ADD MSTORE MLOAD SWAP4 MLOAD PUSH1 0x40 MLOAD SWAP6 DUP7 SWAP6 PUSH1 0x60 DUP8 MSTORE PUSH1 0x60 DUP8 ADD SWAP1 PUSH2 0xA76 JUMP JUMPDEST SWAP1 DUP6 DUP3 SUB PUSH1 0x20 DUP8 ADD MSTORE PUSH2 0xA76 JUMP JUMPDEST SWAP1 DUP4 DUP3 SUB PUSH1 0x40 DUP6 ADD MSTORE PUSH2 0xA76 JUMP JUMPDEST CALLVALUE PUSH2 0x142 JUMPI PUSH1 0x20 CALLDATASIZE PUSH1 0x3 NOT ADD SLT PUSH2 0x142 JUMPI PUSH1 0x4 CALLDATALOAD PUSH1 0x2 SLOAD DUP2 LT ISZERO PUSH2 0x142 JUMPI PUSH2 0x8AB SWAP1 PUSH2 0x8EA JUMP JUMPDEST PUSH2 0x58B JUMPI PUSH2 0x8BB PUSH2 0x13E SWAP2 PUSH2 0x9AD JUMP JUMPDEST PUSH1 0x40 MLOAD SWAP2 DUP3 SWAP2 PUSH1 0x20 DUP4 MSTORE PUSH1 0x20 DUP4 ADD SWAP1 PUSH2 0xA76 JUMP JUMPDEST CALLVALUE PUSH2 0x142 JUMPI PUSH1 0x0 CALLDATASIZE PUSH1 0x3 NOT ADD SLT PUSH2 0x142 JUMPI PUSH1 0x20 SWAP1 PUSH1 0x2 SLOAD DUP2 MSTORE RETURN JUMPDEST PUSH1 0x2 SLOAD DUP2 LT ISZERO PUSH2 0x921 JUMPI PUSH1 0x2 PUSH1 0x0 MSTORE PUSH32 0x405787FA12A823E0F2B7631CC41B3BA8828B3321CA811111FA75CD3AA3BB5ACE ADD SWAP1 PUSH1 0x0 SWAP1 JUMP JUMPDEST PUSH4 0x4E487B71 PUSH1 0xE0 SHL PUSH1 0x0 MSTORE PUSH1 0x32 PUSH1 0x4 MSTORE PUSH1 0x24 PUSH1 0x0 REVERT JUMPDEST SWAP1 PUSH1 0x1 DUP3 DUP2 SHR SWAP3 AND DUP1 ISZERO PUSH2 0x967 JUMPI JUMPDEST PUSH1 0x20 DUP4 LT EQ PUSH2 0x951 JUMPI JUMP JUMPDEST PUSH4 0x4E487B71 PUSH1 0xE0 SHL PUSH1 0x0 MSTORE PUSH1 0x22 PUSH1 0x4 MSTORE PUSH1 0x24 PUSH1 0x0 REVERT JUMPDEST SWAP2 PUSH1 0x7F AND SWAP2 PUSH2 0x946 JUMP JUMPDEST PUSH1 0x80 DUP2 ADD SWAP1 DUP2 LT PUSH1 0x1 PUSH1 0x1 PUSH1 0x40 SHL SUB DUP3 GT OR PUSH2 0x575 JUMPI PUSH1 0x40 MSTORE JUMP JUMPDEST SWAP1 PUSH1 0x1F DUP1 NOT SWAP2 ADD AND DUP2 ADD SWAP1 DUP2 LT PUSH1 0x1 PUSH1 0x1 PUSH1 0x40 SHL SUB DUP3 GT OR PUSH2 0x575 JUMPI PUSH1 0x40 MSTORE JUMP JUMPDEST SWAP1 PUSH1 0x40 MLOAD SWAP2 DUP3 PUSH1 0x0 DUP3 SLOAD SWAP3 PUSH2 0x9C1 DUP5 PUSH2 0x937 JUMP JUMPDEST SWAP1 DUP2 DUP5 MSTORE PUSH1 0x1 SWAP5 DUP6 DUP2 AND SWAP1 DUP2 PUSH1 0x0 EQ PUSH2 0xA30 JUMPI POP PUSH1 0x1 EQ PUSH2 0x9ED JUMPI JUMPDEST POP POP PUSH2 0x9EB SWAP3 POP SUB DUP4 PUSH2 0x98C JUMP JUMPDEST JUMP JUMPDEST SWAP1 SWAP4 SWAP2 POP PUSH1 0x0 MSTORE PUSH1 0x20 SWAP1 DUP2 PUSH1 0x0 KECCAK256 SWAP4 PUSH1 0x0 SWAP2 JUMPDEST DUP2 DUP4 LT PUSH2 0xA18 JUMPI POP POP PUSH2 0x9EB SWAP4 POP DUP3 ADD ADD CODESIZE DUP1 PUSH2 0x9DD JUMP JUMPDEST DUP6 SLOAD DUP9 DUP5 ADD DUP6 ADD MSTORE SWAP5 DUP6 ADD SWAP5 DUP8 SWAP5 POP SWAP2 DUP4 ADD SWAP2 PUSH2 0xA00 JUMP JUMPDEST SWAP2 POP POP PUSH2 0x9EB SWAP5 POP PUSH1 0x20 SWAP3 POP PUSH1 0xFF NOT AND DUP3 DUP5 ADD MSTORE ISZERO ISZERO PUSH1 0x5 SHL DUP3 ADD ADD CODESIZE DUP1 PUSH2 0x9DD JUMP JUMPDEST PUSH1 0x0 JUMPDEST DUP4 DUP2 LT PUSH2 0xA66 JUMPI POP POP PUSH1 0x0 SWAP2 ADD MSTORE JUMP JUMPDEST DUP2 DUP2 ADD MLOAD DUP4 DUP3 ADD MSTORE PUSH1 0x20 ADD PUSH2 0xA56 JUMP JUMPDEST SWAP1 PUSH1 0x20 SWAP2 PUSH2 0xA8F DUP2 MLOAD DUP1 SWAP3 DUP2 DUP6 MSTORE DUP6 DUP1 DUP7 ADD SWAP2 ADD PUSH2 0xA53 JUMP JUMPDEST PUSH1 0x1F ADD PUSH1 0x1F NOT AND ADD ADD SWAP1 JUMP JUMPDEST SWAP2 DUP2 PUSH1 0x1F DUP5 ADD SLT ISZERO PUSH2 0x142 JUMPI DUP3 CALLDATALOAD SWAP2 PUSH1 0x1 PUSH1 0x1 PUSH1 0x40 SHL SUB DUP4 GT PUSH2 0x142 JUMPI PUSH1 0x20 DUP4 DUP2 DUP7 ADD SWAP6 ADD ADD GT PUSH2 0x142 JUMPI JUMP JUMPDEST SWAP3 SWAP2 SWAP3 PUSH1 0x1 PUSH1 0x1 PUSH1 0x40 SHL SUB DUP3 GT PUSH2 0x575 JUMPI PUSH1 0x40 MLOAD SWAP2 PUSH2 0xAF1 PUSH1 0x1F DUP3 ADD PUSH1 0x1F NOT AND PUSH1 0x20 ADD DUP5 PUSH2 0x98C JUMP JUMPDEST DUP3 SWAP5 DUP2 DUP5 MSTORE DUP2 DUP4 ADD GT PUSH2 0x142 JUMPI DUP3 DUP2 PUSH1 0x20 SWAP4 DUP5 PUSH1 0x0 SWAP7 ADD CALLDATACOPY ADD ADD MSTORE JUMP JUMPDEST SWAP1 PUSH1 0x1F DUP2 GT PUSH2 0xB1C JUMPI POP POP POP JUMP JUMPDEST PUSH1 0x0 SWAP2 DUP3 MSTORE PUSH1 0x20 DUP3 KECCAK256 SWAP1 PUSH1 0x20 PUSH1 0x1F DUP6 ADD PUSH1 0x5 SHR DUP4 ADD SWAP5 LT PUSH2 0xB58 JUMPI JUMPDEST PUSH1 0x1F ADD PUSH1 0x5 SHR ADD SWAP2 JUMPDEST DUP3 DUP2 LT PUSH2 0xB4D JUMPI POP POP POP JUMP JUMPDEST DUP2 DUP2 SSTORE PUSH1 0x1 ADD PUSH2 0xB41 JUMP JUMPDEST SWAP1 SWAP3 POP DUP3 SWAP1 PUSH2 0xB38 JUMP JUMPDEST SWAP1 DUP1 PUSH1 0x20 SWAP4 SWAP3 DUP2 DUP5 MSTORE DUP5 DUP5 ADD CALLDATACOPY PUSH1 0x0 DUP3 DUP3 ADD DUP5 ADD MSTORE PUSH1 0x1F ADD PUSH1 0x1F NOT AND ADD ADD SWAP1 JUMP INVALID LOG2 PUSH5 0x6970667358 0x22 SLT KECCAK256 0x2A 0xF9 0xAD 0xD1 MUL DUP6 0xE3 LT SHR MSTORE8 DUP6 0xE0 0xB3 PUSH29 0x939B4CE7241DB659232FCCC306E7F4BD9A0A64736F6C63430008140033 "},"methodIdentifiers":{"getRoute(string)":"1b5f03a6","keys(uint256)":"0cb6aaf1","routeChoreography(string,string,string,string)":"3790ff63","routes(string)":"cffbffb5","steward()":"637eea19","totalRoutes()":"05a2d3ac"}}}}}