{"contracts/codex/SpiralboundCodexV6.sol":{"SpiralboundCodexV6":{"abi":[{"inputs":[],"stateMutability":"nonpayable","type":"constructor"},{"anonymous":false,"inputs":[{"indexed":false,"internalType":"string","name":"glyph","type":"string"},{"indexed":false,"internalType":"string","name":"tag","type":"string"},{"indexed":false,"internalType":"string","name":"binding","type":"string"},{"indexed":false,"internalType":"string","name":"annotation","type":"string"},{"indexed":false,"internalType":"string","name":"lineage","type":"string"},{"indexed":false,"internalType":"string","name":"resonance","type":"string"},{"indexed":false,"internalType":"string","name":"protocol","type":"string"}],"name":"CodexInscribed","type":"event"},{"inputs":[{"internalType":"string","name":"","type":"string"}],"name":"codices","outputs":[{"internalType":"string","name":"tag","type":"string"},{"internalType":"string","name":"binding","type":"string"},{"internalType":"string","name":"annotation","type":"string"},{"internalType":"string","name":"lineage","type":"string"},{"internalType":"string","name":"resonance","type":"string"},{"internalType":"string","name":"protocol","type":"string"}],"stateMutability":"view","type":"function"},{"inputs":[{"internalType":"string","name":"glyph","type":"string"}],"name":"getCodex","outputs":[{"internalType":"string","name":"","type":"string"},{"internalType":"string","name":"","type":"string"},{"internalType":"string","name":"","type":"string"}],"stateMutability":"view","type":"function"},{"inputs":[{"internalType":"string","name":"glyph","type":"string"}],"name":"getLineage","outputs":[{"internalType":"string","name":"","type":"string"}],"stateMutability":"view","type":"function"},{"inputs":[{"internalType":"string","name":"glyph","type":"string"}],"name":"getProtocol","outputs":[{"internalType":"string","name":"","type":"string"}],"stateMutability":"view","type":"function"},{"inputs":[{"internalType":"string","name":"glyph","type":"string"}],"name":"getResonance","outputs":[{"internalType":"string","name":"","type":"string"}],"stateMutability":"view","type":"function"},{"inputs":[{"internalType":"string","name":"glyph","type":"string"},{"internalType":"string","name":"tag","type":"string"},{"internalType":"string","name":"binding","type":"string"},{"internalType":"string","name":"annotation","type":"string"},{"internalType":"string","name":"lineage","type":"string"},{"internalType":"string","name":"resonance","type":"string"},{"internalType":"string","name":"protocol","type":"string"}],"name":"inscribeCodex","outputs":[],"stateMutability":"nonpayable","type":"function"},{"inputs":[{"internalType":"uint256","name":"","type":"uint256"}],"name":"keys","outputs":[{"internalType":"string","name":"","type":"string"}],"stateMutability":"view","type":"function"},{"inputs":[],"name":"steward","outputs":[{"internalType":"address","name":"","type":"address"}],"stateMutability":"view","type":"function"},{"inputs":[],"name":"totalCodices","outputs":[{"internalType":"uint256","name":"","type":"uint256"}],"stateMutability":"view","type":"function"}],"evm":{"bytecode":{"linkReferences":{},"object":"6080806040523461002857600080546001600160a01b03191633179055610f84908161002e8239f35b600080fdfe60e080604052600436101561001357600080fd5b60003560e01c9081630c41547a146103ff575080630cb6aaf1146103b257806346b4106814610378578063637eea191461034f5780637beb410714610314578063833615221461021c578063c212d16b146101fe578063dbc21424146100e65763f44571f91461008257600080fd5b346100e15760203660031901126100e1576004356001600160401b0381116100e1576100c960036100c36100bd6100dd943690600401610c9c565b90610ec0565b01610d8c565b604051918291602083526020830190610e55565b0390f35b600080fd5b346100e15760203660031901126100e1576004356001600160401b0381116100e157366023820112156100e157610142602061012f6101b8933690602481600401359101610e7a565b8160405193828580945193849201610e32565b810160018152030190206100dd61015882610d8c565b916101f061016860018301610d8c565b916101e261017860028301610d8c565b6101d461018760038501610d8c565b916101c66101a3600561019c60048901610d8c565b9701610d8c565b976040519b8c9b60c08d5260c08d0190610e55565b908b820360208d0152610e55565b9089820360408b0152610e55565b908782036060890152610e55565b908582036080870152610e55565b9083820360a0850152610e55565b346100e15760003660031901126100e1576020600254604051908152f35b346100e15760203660031901126100e1576004356001600160401b0381116100e15760206102516102f8923690600401610c9c565b9190826040519384928337810160018152030190206100dd6040519161027683610d50565b61027f81610d8c565b835261030661029060018301610d8c565b93602081019485526102d960056102a960028601610d8c565b94604084019586526102bd60038201610d8c565b60608501526102ce60048201610d8c565b608085015201610d8c565b60a0820152519351915191604051958695606087526060870190610e55565b908582036020870152610e55565b908382036040850152610e55565b346100e15760203660031901126100e1576004356001600160401b0381116100e1576100c960056100c36100bd6100dd943690600401610c9c565b346100e15760003660031901126100e1576000546040516001600160a01b039091168152602090f35b346100e15760203660031901126100e1576004356001600160401b0381116100e1576100c960046100c36100bd6100dd9436908401610c9c565b346100e15760203660031901126100e1576004356002548110156100e1576103d990610cc9565b6103e9576100c96100dd91610d8c565b634e487b7160e01b600052600060045260246000fd5b346100e15760e03660031901126100e1576004356001600160401b0381116100e15761042f903690600401610c9c565b60a0526080526024356001600160401b0381116100e157610454903690600401610c9c565b90916044356001600160401b0381116100e157610475903690600401610c9c565b906064356001600160401b0381116100e157610495903690600401610c9c565b906084356001600160401b0381116100e1576104b5903690600401610c9c565b91909260a4356001600160401b0381116100e1576104d7903690600401610c9c565b95909660c4356001600160401b0381116100e1576104f9903690600401610c9c565b999060c05260018060a01b03600054163303610c6c575060405161051c81610d50565b610527368c8e610e7a565b8152610534368385610e7a565b6020820152610544368587610e7a565b6040820152610554368789610e7a565b606082015261056436898b610e7a565b6080820152610576368b60c051610e7a565b60a082015260405160a051608051823760208160a051810160018152030190209080518051906001600160401b0382116109735781906105c0826105ba8754610d16565b87610ed9565b602090601f8311600114610c0057600092610bf5575b50508160011b916000199060031b1c19161782555b60208101518051906001600160401b03821161097357819061061d826106146001880154610d16565b60018801610ed9565b602090601f8311600114610b8357600092610b78575b50508160011b916000199060031b1c19161760018301555b60408101518051906001600160401b03821161097357819061067d826106746002880154610d16565b60028801610ed9565b602090601f8311600114610b0657600092610afb575b50508160011b916000199060031b1c19161760028301555b60608101518051906001600160401b0382116109735781906106dd826106d46003880154610d16565b60038801610ed9565b602090601f8311600114610a8957600092610a7e575b50508160011b916000199060031b1c19161760038301555b60808101518051906001600160401b0382116109735761073b826107326004870154610d16565b60048701610ed9565b602090601f8311600114610a0b5760a093929160009183610a00575b50508160011b916000199060031b1c19161760048401555b0151908151906001600160401b0382116109735760058291019261079d826107978654610d16565b86610ed9565b602090601f831160011461099457600092610989575b50508160011b916000199060031b1c19161790555b60025468010000000000000000811015610973578060016107ec9201600255610cc9565b6103e95760a0516001600160401b038111610973576108159061080f8354610d16565b83610ed9565b600060a051601f81116001146109085750600060a05191826108fb575b508160011b916000199060031b1c19161790555b6040519a8b9a60e08c5260e08c0160a051906080519161086592610f2d565b908c808303906020015261087892610f2d565b908a820360408c015261088a92610f2d565b9088820360608a015261089c92610f2d565b9086820360808801526108ae92610f2d565b9084820360a08601526108c092610f2d565b82810360c084015260c051916108d592610f2d565b037f09c366a982359867400fda3ce7e1e8ee7700a45f551374bb36692c1f8cc3ea7891a1005b905060805101358e610832565b826000526020600020600092608051905b601f198416851061095b576001945083601f19811610610941575b505050811b019055610846565b0135600019600384901b60f8161c191690558e8080610934565b81810135835560209485019460019093019201610919565b634e487b7160e01b600052604160045260246000fd5b015190508e806107b3565b9250836000526020600020906000935b601f19841685106109e5576001945083601f198116106109cc575b505050811b0190556107c8565b015160001960f88460031b161c191690558e80806109bf565b818101518355602094850194600190930192909101906109a4565b015190503880610757565b906004850160005260206000209160005b601f1985168110610a66575091839160019360a09695601f19811610610a4d575b505050811b01600484015561076f565b015160001960f88460031b161c19169055388080610a3d565b91926020600181928685015181550194019201610a1c565b015190508f806106f3565b9250600385016000526020600020906000935b601f1984168510610ae0576001945083601f19811610610ac7575b505050811b01600383015561070b565b015160001960f88460031b161c191690558f8080610ab7565b81810151835560209485019460019093019290910190610a9c565b015190508f80610693565b9250600285016000526020600020906000935b601f1984168510610b5d576001945083601f19811610610b44575b505050811b0160028301556106ab565b015160001960f88460031b161c191690558f8080610b34565b81810151835560209485019460019093019290910190610b19565b015190508f80610633565b9250600185016000526020600020906000935b601f1984168510610bda576001945083601f19811610610bc1575b505050811b01600183015561064b565b015160001960f88460031b161c191690558f8080610bb1565b81810151835560209485019460019093019290910190610b96565b015190508f806105d6565b9250846000526020600020906000935b601f1984168510610c51576001945083601f19811610610c38575b505050811b0182556105eb565b015160001960f88460031b161c191690558f8080610c2b565b81810151835560209485019460019093019290910190610c10565b62461bcd60e51b815260206004820152600b60248201526a139bdd081cdd195dd85c9960aa1b6044820152606490fd5b9181601f840112156100e1578235916001600160401b0383116100e157602083818601950101116100e157565b600254811015610d005760026000527f405787fa12a823e0f2b7631cc41b3ba8828b3321ca811111fa75cd3aa3bb5ace0190600090565b634e487b7160e01b600052603260045260246000fd5b90600182811c92168015610d46575b6020831014610d3057565b634e487b7160e01b600052602260045260246000fd5b91607f1691610d25565b60c081019081106001600160401b0382111761097357604052565b90601f801991011681019081106001600160401b0382111761097357604052565b9060405191826000825492610da084610d16565b908184526001948581169081600014610e0f5750600114610dcc575b5050610dca92500383610d6b565b565b9093915060005260209081600020936000915b818310610df7575050610dca93508201013880610dbc565b85548884018501529485019487945091830191610ddf565b915050610dca94506020925060ff191682840152151560051b8201013880610dbc565b60005b838110610e455750506000910152565b8181015183820152602001610e35565b90602091610e6e81518092818552858086019101610e32565b601f01601f1916010190565b9291926001600160401b0382116109735760405191610ea3601f8201601f191660200184610d6b565b8294818452818301116100e1578281602093846000960137010152565b6020908260405193849283378101600181520301902090565b90601f8111610ee757505050565b600091825260208220906020601f850160051c83019410610f23575b601f0160051c01915b828110610f1857505050565b818155600101610f0c565b9092508290610f03565b908060209392818452848401376000828201840152601f01601f191601019056fea2646970667358221220ea4000e57fcbdf478c03629877694d3f5b4d76b68c027de81b415e1b611a729164736f6c63430008140033","opcodes":"PUSH1 0x80 DUP1 PUSH1 0x40 MSTORE CALLVALUE PUSH2 0x28 JUMPI PUSH1 0x0 DUP1 SLOAD PUSH1 0x1 PUSH1 0x1 PUSH1 0xA0 SHL SUB NOT AND CALLER OR SWAP1 SSTORE PUSH2 0xF84 SWAP1 DUP2 PUSH2 0x2E DUP3 CODECOPY RETURN JUMPDEST PUSH1 0x0 DUP1 REVERT INVALID PUSH1 0xE0 DUP1 PUSH1 0x40 MSTORE PUSH1 0x4 CALLDATASIZE LT ISZERO PUSH2 0x13 JUMPI PUSH1 0x0 DUP1 REVERT JUMPDEST PUSH1 0x0 CALLDATALOAD PUSH1 0xE0 SHR SWAP1 DUP2 PUSH4 0xC41547A EQ PUSH2 0x3FF JUMPI POP DUP1 PUSH4 0xCB6AAF1 EQ PUSH2 0x3B2 JUMPI DUP1 PUSH4 0x46B41068 EQ PUSH2 0x378 JUMPI DUP1 PUSH4 0x637EEA19 EQ PUSH2 0x34F JUMPI DUP1 PUSH4 0x7BEB4107 EQ PUSH2 0x314 JUMPI DUP1 PUSH4 0x83361522 EQ PUSH2 0x21C JUMPI DUP1 PUSH4 0xC212D16B EQ PUSH2 0x1FE JUMPI DUP1 PUSH4 0xDBC21424 EQ PUSH2 0xE6 JUMPI PUSH4 0xF44571F9 EQ PUSH2 0x82 JUMPI PUSH1 0x0 DUP1 REVERT JUMPDEST CALLVALUE PUSH2 0xE1 JUMPI PUSH1 0x20 CALLDATASIZE PUSH1 0x3 NOT ADD SLT PUSH2 0xE1 JUMPI PUSH1 0x4 CALLDATALOAD PUSH1 0x1 PUSH1 0x1 PUSH1 0x40 SHL SUB DUP2 GT PUSH2 0xE1 JUMPI PUSH2 0xC9 PUSH1 0x3 PUSH2 0xC3 PUSH2 0xBD PUSH2 0xDD SWAP5 CALLDATASIZE SWAP1 PUSH1 0x4 ADD PUSH2 0xC9C JUMP JUMPDEST SWAP1 PUSH2 0xEC0 JUMP JUMPDEST ADD PUSH2 0xD8C JUMP JUMPDEST PUSH1 0x40 MLOAD SWAP2 DUP3 SWAP2 PUSH1 0x20 DUP4 MSTORE PUSH1 0x20 DUP4 ADD SWAP1 PUSH2 0xE55 JUMP JUMPDEST SUB SWAP1 RETURN JUMPDEST PUSH1 0x0 DUP1 REVERT JUMPDEST CALLVALUE PUSH2 0xE1 JUMPI PUSH1 0x20 CALLDATASIZE PUSH1 0x3 NOT ADD SLT PUSH2 0xE1 JUMPI PUSH1 0x4 CALLDATALOAD PUSH1 0x1 PUSH1 0x1 PUSH1 0x40 SHL SUB DUP2 GT PUSH2 0xE1 JUMPI CALLDATASIZE PUSH1 0x23 DUP3 ADD SLT ISZERO PUSH2 0xE1 JUMPI PUSH2 0x142 PUSH1 0x20 PUSH2 0x12F PUSH2 0x1B8 SWAP4 CALLDATASIZE SWAP1 PUSH1 0x24 DUP2 PUSH1 0x4 ADD CALLDATALOAD SWAP2 ADD PUSH2 0xE7A JUMP JUMPDEST DUP2 PUSH1 0x40 MLOAD SWAP4 DUP3 DUP6 DUP1 SWAP5 MLOAD SWAP4 DUP5 SWAP3 ADD PUSH2 0xE32 JUMP JUMPDEST DUP2 ADD PUSH1 0x1 DUP2 MSTORE SUB ADD SWAP1 KECCAK256 PUSH2 0xDD PUSH2 0x158 DUP3 PUSH2 0xD8C JUMP JUMPDEST SWAP2 PUSH2 0x1F0 PUSH2 0x168 PUSH1 0x1 DUP4 ADD PUSH2 0xD8C JUMP JUMPDEST SWAP2 PUSH2 0x1E2 PUSH2 0x178 PUSH1 0x2 DUP4 ADD PUSH2 0xD8C JUMP JUMPDEST PUSH2 0x1D4 PUSH2 0x187 PUSH1 0x3 DUP6 ADD PUSH2 0xD8C JUMP JUMPDEST SWAP2 PUSH2 0x1C6 PUSH2 0x1A3 PUSH1 0x5 PUSH2 0x19C PUSH1 0x4 DUP10 ADD PUSH2 0xD8C JUMP JUMPDEST SWAP8 ADD PUSH2 0xD8C JUMP JUMPDEST SWAP8 PUSH1 0x40 MLOAD SWAP12 DUP13 SWAP12 PUSH1 0xC0 DUP14 MSTORE PUSH1 0xC0 DUP14 ADD SWAP1 PUSH2 0xE55 JUMP JUMPDEST SWAP1 DUP12 DUP3 SUB PUSH1 0x20 DUP14 ADD MSTORE PUSH2 0xE55 JUMP JUMPDEST SWAP1 DUP10 DUP3 SUB PUSH1 0x40 DUP12 ADD MSTORE PUSH2 0xE55 JUMP JUMPDEST SWAP1 DUP8 DUP3 SUB PUSH1 0x60 DUP10 ADD MSTORE PUSH2 0xE55 JUMP JUMPDEST SWAP1 DUP6 DUP3 SUB PUSH1 0x80 DUP8 ADD MSTORE PUSH2 0xE55 JUMP JUMPDEST SWAP1 DUP4 DUP3 SUB PUSH1 0xA0 DUP6 ADD MSTORE PUSH2 0xE55 JUMP JUMPDEST CALLVALUE PUSH2 0xE1 JUMPI PUSH1 0x0 CALLDATASIZE PUSH1 0x3 NOT ADD SLT PUSH2 0xE1 JUMPI PUSH1 0x20 PUSH1 0x2 SLOAD PUSH1 0x40 MLOAD SWAP1 DUP2 MSTORE RETURN JUMPDEST CALLVALUE PUSH2 0xE1 JUMPI PUSH1 0x20 CALLDATASIZE PUSH1 0x3 NOT ADD SLT PUSH2 0xE1 JUMPI PUSH1 0x4 CALLDATALOAD PUSH1 0x1 PUSH1 0x1 PUSH1 0x40 SHL SUB DUP2 GT PUSH2 0xE1 JUMPI PUSH1 0x20 PUSH2 0x251 PUSH2 0x2F8 SWAP3 CALLDATASIZE SWAP1 PUSH1 0x4 ADD PUSH2 0xC9C JUMP JUMPDEST SWAP2 SWAP1 DUP3 PUSH1 0x40 MLOAD SWAP4 DUP5 SWAP3 DUP4 CALLDATACOPY DUP2 ADD PUSH1 0x1 DUP2 MSTORE SUB ADD SWAP1 KECCAK256 PUSH2 0xDD PUSH1 0x40 MLOAD SWAP2 PUSH2 0x276 DUP4 PUSH2 0xD50 JUMP JUMPDEST PUSH2 0x27F DUP2 PUSH2 0xD8C JUMP JUMPDEST DUP4 MSTORE PUSH2 0x306 PUSH2 0x290 PUSH1 0x1 DUP4 ADD PUSH2 0xD8C JUMP JUMPDEST SWAP4 PUSH1 0x20 DUP2 ADD SWAP5 DUP6 MSTORE PUSH2 0x2D9 PUSH1 0x5 PUSH2 0x2A9 PUSH1 0x2 DUP7 ADD PUSH2 0xD8C JUMP JUMPDEST SWAP5 PUSH1 0x40 DUP5 ADD SWAP6 DUP7 MSTORE PUSH2 0x2BD PUSH1 0x3 DUP3 ADD PUSH2 0xD8C JUMP JUMPDEST PUSH1 0x60 DUP6 ADD MSTORE PUSH2 0x2CE PUSH1 0x4 DUP3 ADD PUSH2 0xD8C JUMP JUMPDEST PUSH1 0x80 DUP6 ADD MSTORE ADD PUSH2 0xD8C JUMP JUMPDEST PUSH1 0xA0 DUP3 ADD MSTORE MLOAD SWAP4 MLOAD SWAP2 MLOAD SWAP2 PUSH1 0x40 MLOAD SWAP6 DUP7 SWAP6 PUSH1 0x60 DUP8 MSTORE PUSH1 0x60 DUP8 ADD SWAP1 PUSH2 0xE55 JUMP JUMPDEST SWAP1 DUP6 DUP3 SUB PUSH1 0x20 DUP8 ADD MSTORE PUSH2 0xE55 JUMP JUMPDEST SWAP1 DUP4 DUP3 SUB PUSH1 0x40 DUP6 ADD MSTORE PUSH2 0xE55 JUMP JUMPDEST CALLVALUE PUSH2 0xE1 JUMPI PUSH1 0x20 CALLDATASIZE PUSH1 0x3 NOT ADD SLT PUSH2 0xE1 JUMPI PUSH1 0x4 CALLDATALOAD PUSH1 0x1 PUSH1 0x1 PUSH1 0x40 SHL SUB DUP2 GT PUSH2 0xE1 JUMPI PUSH2 0xC9 PUSH1 0x5 PUSH2 0xC3 PUSH2 0xBD PUSH2 0xDD SWAP5 CALLDATASIZE SWAP1 PUSH1 0x4 ADD PUSH2 0xC9C JUMP JUMPDEST CALLVALUE PUSH2 0xE1 JUMPI PUSH1 0x0 CALLDATASIZE PUSH1 0x3 NOT ADD SLT PUSH2 0xE1 JUMPI PUSH1 0x0 SLOAD PUSH1 0x40 MLOAD PUSH1 0x1 PUSH1 0x1 PUSH1 0xA0 SHL SUB SWAP1 SWAP2 AND DUP2 MSTORE PUSH1 0x20 SWAP1 RETURN JUMPDEST CALLVALUE PUSH2 0xE1 JUMPI PUSH1 0x20 CALLDATASIZE PUSH1 0x3 NOT ADD SLT PUSH2 0xE1 JUMPI PUSH1 0x4 CALLDATALOAD PUSH1 0x1 PUSH1 0x1 PUSH1 0x40 SHL SUB DUP2 GT PUSH2 0xE1 JUMPI PUSH2 0xC9 PUSH1 0x4 PUSH2 0xC3 PUSH2 0xBD PUSH2 0xDD SWAP5 CALLDATASIZE SWAP1 DUP5 ADD PUSH2 0xC9C JUMP JUMPDEST CALLVALUE PUSH2 0xE1 JUMPI PUSH1 0x20 CALLDATASIZE PUSH1 0x3 NOT ADD SLT PUSH2 0xE1 JUMPI PUSH1 0x4 CALLDATALOAD PUSH1 0x2 SLOAD DUP2 LT ISZERO PUSH2 0xE1 JUMPI PUSH2 0x3D9 SWAP1 PUSH2 0xCC9 JUMP JUMPDEST PUSH2 0x3E9 JUMPI PUSH2 0xC9 PUSH2 0xDD SWAP2 PUSH2 0xD8C JUMP JUMPDEST PUSH4 0x4E487B71 PUSH1 0xE0 SHL PUSH1 0x0 MSTORE PUSH1 0x0 PUSH1 0x4 MSTORE PUSH1 0x24 PUSH1 0x0 REVERT JUMPDEST CALLVALUE PUSH2 0xE1 JUMPI PUSH1 0xE0 CALLDATASIZE PUSH1 0x3 NOT ADD SLT PUSH2 0xE1 JUMPI PUSH1 0x4 CALLDATALOAD PUSH1 0x1 PUSH1 0x1 PUSH1 0x40 SHL SUB DUP2 GT PUSH2 0xE1 JUMPI PUSH2 0x42F SWAP1 CALLDATASIZE SWAP1 PUSH1 0x4 ADD PUSH2 0xC9C JUMP JUMPDEST PUSH1 0xA0 MSTORE PUSH1 0x80 MSTORE PUSH1 0x24 CALLDATALOAD PUSH1 0x1 PUSH1 0x1 PUSH1 0x40 SHL SUB DUP2 GT PUSH2 0xE1 JUMPI PUSH2 0x454 SWAP1 CALLDATASIZE SWAP1 PUSH1 0x4 ADD PUSH2 0xC9C JUMP JUMPDEST SWAP1 SWAP2 PUSH1 0x44 CALLDATALOAD PUSH1 0x1 PUSH1 0x1 PUSH1 0x40 SHL SUB DUP2 GT PUSH2 0xE1 JUMPI PUSH2 0x475 SWAP1 CALLDATASIZE SWAP1 PUSH1 0x4 ADD PUSH2 0xC9C JUMP JUMPDEST SWAP1 PUSH1 0x64 CALLDATALOAD PUSH1 0x1 PUSH1 0x1 PUSH1 0x40 SHL SUB DUP2 GT PUSH2 0xE1 JUMPI PUSH2 0x495 SWAP1 CALLDATASIZE SWAP1 PUSH1 0x4 ADD PUSH2 0xC9C JUMP JUMPDEST SWAP1 PUSH1 0x84 CALLDATALOAD PUSH1 0x1 PUSH1 0x1 PUSH1 0x40 SHL SUB DUP2 GT PUSH2 0xE1 JUMPI PUSH2 0x4B5 SWAP1 CALLDATASIZE SWAP1 PUSH1 0x4 ADD PUSH2 0xC9C JUMP JUMPDEST SWAP2 SWAP1 SWAP3 PUSH1 0xA4 CALLDATALOAD PUSH1 0x1 PUSH1 0x1 PUSH1 0x40 SHL SUB DUP2 GT PUSH2 0xE1 JUMPI PUSH2 0x4D7 SWAP1 CALLDATASIZE SWAP1 PUSH1 0x4 ADD PUSH2 0xC9C JUMP JUMPDEST SWAP6 SWAP1 SWAP7 PUSH1 0xC4 CALLDATALOAD PUSH1 0x1 PUSH1 0x1 PUSH1 0x40 SHL SUB DUP2 GT PUSH2 0xE1 JUMPI PUSH2 0x4F9 SWAP1 CALLDATASIZE SWAP1 PUSH1 0x4 ADD PUSH2 0xC9C JUMP JUMPDEST SWAP10 SWAP1 PUSH1 0xC0 MSTORE PUSH1 0x1 DUP1 PUSH1 0xA0 SHL SUB PUSH1 0x0 SLOAD AND CALLER SUB PUSH2 0xC6C JUMPI POP PUSH1 0x40 MLOAD PUSH2 0x51C DUP2 PUSH2 0xD50 JUMP JUMPDEST PUSH2 0x527 CALLDATASIZE DUP13 DUP15 PUSH2 0xE7A JUMP JUMPDEST DUP2 MSTORE PUSH2 0x534 CALLDATASIZE DUP4 DUP6 PUSH2 0xE7A JUMP JUMPDEST PUSH1 0x20 DUP3 ADD MSTORE PUSH2 0x544 CALLDATASIZE DUP6 DUP8 PUSH2 0xE7A JUMP JUMPDEST PUSH1 0x40 DUP3 ADD MSTORE PUSH2 0x554 CALLDATASIZE DUP8 DUP10 PUSH2 0xE7A JUMP JUMPDEST PUSH1 0x60 DUP3 ADD MSTORE PUSH2 0x564 CALLDATASIZE DUP10 DUP12 PUSH2 0xE7A JUMP JUMPDEST PUSH1 0x80 DUP3 ADD MSTORE PUSH2 0x576 CALLDATASIZE DUP12 PUSH1 0xC0 MLOAD PUSH2 0xE7A JUMP JUMPDEST PUSH1 0xA0 DUP3 ADD MSTORE PUSH1 0x40 MLOAD PUSH1 0xA0 MLOAD PUSH1 0x80 MLOAD DUP3 CALLDATACOPY PUSH1 0x20 DUP2 PUSH1 0xA0 MLOAD DUP2 ADD PUSH1 0x1 DUP2 MSTORE SUB ADD SWAP1 KECCAK256 SWAP1 DUP1 MLOAD DUP1 MLOAD SWAP1 PUSH1 0x1 PUSH1 0x1 PUSH1 0x40 SHL SUB DUP3 GT PUSH2 0x973 JUMPI DUP2 SWAP1 PUSH2 0x5C0 DUP3 PUSH2 0x5BA DUP8 SLOAD PUSH2 0xD16 JUMP JUMPDEST DUP8 PUSH2 0xED9 JUMP JUMPDEST PUSH1 0x20 SWAP1 PUSH1 0x1F DUP4 GT PUSH1 0x1 EQ PUSH2 0xC00 JUMPI PUSH1 0x0 SWAP3 PUSH2 0xBF5 JUMPI JUMPDEST POP POP DUP2 PUSH1 0x1 SHL SWAP2 PUSH1 0x0 NOT SWAP1 PUSH1 0x3 SHL SHR NOT AND OR DUP3 SSTORE JUMPDEST PUSH1 0x20 DUP2 ADD MLOAD DUP1 MLOAD SWAP1 PUSH1 0x1 PUSH1 0x1 PUSH1 0x40 SHL SUB DUP3 GT PUSH2 0x973 JUMPI DUP2 SWAP1 PUSH2 0x61D DUP3 PUSH2 0x614 PUSH1 0x1 DUP9 ADD SLOAD PUSH2 0xD16 JUMP JUMPDEST PUSH1 0x1 DUP9 ADD PUSH2 0xED9 JUMP JUMPDEST PUSH1 0x20 SWAP1 PUSH1 0x1F DUP4 GT PUSH1 0x1 EQ PUSH2 0xB83 JUMPI PUSH1 0x0 SWAP3 PUSH2 0xB78 JUMPI JUMPDEST POP POP DUP2 PUSH1 0x1 SHL SWAP2 PUSH1 0x0 NOT SWAP1 PUSH1 0x3 SHL SHR NOT AND OR PUSH1 0x1 DUP4 ADD SSTORE JUMPDEST PUSH1 0x40 DUP2 ADD MLOAD DUP1 MLOAD SWAP1 PUSH1 0x1 PUSH1 0x1 PUSH1 0x40 SHL SUB DUP3 GT PUSH2 0x973 JUMPI DUP2 SWAP1 PUSH2 0x67D DUP3 PUSH2 0x674 PUSH1 0x2 DUP9 ADD SLOAD PUSH2 0xD16 JUMP JUMPDEST PUSH1 0x2 DUP9 ADD PUSH2 0xED9 JUMP JUMPDEST PUSH1 0x20 SWAP1 PUSH1 0x1F DUP4 GT PUSH1 0x1 EQ PUSH2 0xB06 JUMPI PUSH1 0x0 SWAP3 PUSH2 0xAFB JUMPI JUMPDEST POP POP DUP2 PUSH1 0x1 SHL SWAP2 PUSH1 0x0 NOT SWAP1 PUSH1 0x3 SHL SHR NOT AND OR PUSH1 0x2 DUP4 ADD SSTORE JUMPDEST PUSH1 0x60 DUP2 ADD MLOAD DUP1 MLOAD SWAP1 PUSH1 0x1 PUSH1 0x1 PUSH1 0x40 SHL SUB DUP3 GT PUSH2 0x973 JUMPI DUP2 SWAP1 PUSH2 0x6DD DUP3 PUSH2 0x6D4 PUSH1 0x3 DUP9 ADD SLOAD PUSH2 0xD16 JUMP JUMPDEST PUSH1 0x3 DUP9 ADD PUSH2 0xED9 JUMP JUMPDEST PUSH1 0x20 SWAP1 PUSH1 0x1F DUP4 GT PUSH1 0x1 EQ PUSH2 0xA89 JUMPI PUSH1 0x0 SWAP3 PUSH2 0xA7E JUMPI JUMPDEST POP POP DUP2 PUSH1 0x1 SHL SWAP2 PUSH1 0x0 NOT SWAP1 PUSH1 0x3 SHL SHR NOT AND OR PUSH1 0x3 DUP4 ADD SSTORE JUMPDEST PUSH1 0x80 DUP2 ADD MLOAD DUP1 MLOAD SWAP1 PUSH1 0x1 PUSH1 0x1 PUSH1 0x40 SHL SUB DUP3 GT PUSH2 0x973 JUMPI PUSH2 0x73B DUP3 PUSH2 0x732 PUSH1 0x4 DUP8 ADD SLOAD PUSH2 0xD16 JUMP JUMPDEST PUSH1 0x4 DUP8 ADD PUSH2 0xED9 JUMP JUMPDEST PUSH1 0x20 SWAP1 PUSH1 0x1F DUP4 GT PUSH1 0x1 EQ PUSH2 0xA0B JUMPI PUSH1 0xA0 SWAP4 SWAP3 SWAP2 PUSH1 0x0 SWAP2 DUP4 PUSH2 0xA00 JUMPI JUMPDEST POP POP DUP2 PUSH1 0x1 SHL SWAP2 PUSH1 0x0 NOT SWAP1 PUSH1 0x3 SHL SHR NOT AND OR PUSH1 0x4 DUP5 ADD SSTORE JUMPDEST ADD MLOAD SWAP1 DUP2 MLOAD SWAP1 PUSH1 0x1 PUSH1 0x1 PUSH1 0x40 SHL SUB DUP3 GT PUSH2 0x973 JUMPI PUSH1 0x5 DUP3 SWAP2 ADD SWAP3 PUSH2 0x79D DUP3 PUSH2 0x797 DUP7 SLOAD PUSH2 0xD16 JUMP JUMPDEST DUP7 PUSH2 0xED9 JUMP JUMPDEST PUSH1 0x20 SWAP1 PUSH1 0x1F DUP4 GT PUSH1 0x1 EQ PUSH2 0x994 JUMPI PUSH1 0x0 SWAP3 PUSH2 0x989 JUMPI JUMPDEST POP POP DUP2 PUSH1 0x1 SHL SWAP2 PUSH1 0x0 NOT SWAP1 PUSH1 0x3 SHL SHR NOT AND OR SWAP1 SSTORE JUMPDEST PUSH1 0x2 SLOAD PUSH9 0x10000000000000000 DUP2 LT ISZERO PUSH2 0x973 JUMPI DUP1 PUSH1 0x1 PUSH2 0x7EC SWAP3 ADD PUSH1 0x2 SSTORE PUSH2 0xCC9 JUMP JUMPDEST PUSH2 0x3E9 JUMPI PUSH1 0xA0 MLOAD PUSH1 0x1 PUSH1 0x1 PUSH1 0x40 SHL SUB DUP2 GT PUSH2 0x973 JUMPI PUSH2 0x815 SWAP1 PUSH2 0x80F DUP4 SLOAD PUSH2 0xD16 JUMP JUMPDEST DUP4 PUSH2 0xED9 JUMP JUMPDEST PUSH1 0x0 PUSH1 0xA0 MLOAD PUSH1 0x1F DUP2 GT PUSH1 0x1 EQ PUSH2 0x908 JUMPI POP PUSH1 0x0 PUSH1 0xA0 MLOAD SWAP2 DUP3 PUSH2 0x8FB JUMPI JUMPDEST POP DUP2 PUSH1 0x1 SHL SWAP2 PUSH1 0x0 NOT SWAP1 PUSH1 0x3 SHL SHR NOT AND OR SWAP1 SSTORE JUMPDEST PUSH1 0x40 MLOAD SWAP11 DUP12 SWAP11 PUSH1 0xE0 DUP13 MSTORE PUSH1 0xE0 DUP13 ADD PUSH1 0xA0 MLOAD SWAP1 PUSH1 0x80 MLOAD SWAP2 PUSH2 0x865 SWAP3 PUSH2 0xF2D JUMP JUMPDEST SWAP1 DUP13 DUP1 DUP4 SUB SWAP1 PUSH1 0x20 ADD MSTORE PUSH2 0x878 SWAP3 PUSH2 0xF2D JUMP JUMPDEST SWAP1 DUP11 DUP3 SUB PUSH1 0x40 DUP13 ADD MSTORE PUSH2 0x88A SWAP3 PUSH2 0xF2D JUMP JUMPDEST SWAP1 DUP9 DUP3 SUB PUSH1 0x60 DUP11 ADD MSTORE PUSH2 0x89C SWAP3 PUSH2 0xF2D JUMP JUMPDEST SWAP1 DUP7 DUP3 SUB PUSH1 0x80 DUP9 ADD MSTORE PUSH2 0x8AE SWAP3 PUSH2 0xF2D JUMP JUMPDEST SWAP1 DUP5 DUP3 SUB PUSH1 0xA0 DUP7 ADD MSTORE PUSH2 0x8C0 SWAP3 PUSH2 0xF2D JUMP JUMPDEST DUP3 DUP2 SUB PUSH1 0xC0 DUP5 ADD MSTORE PUSH1 0xC0 MLOAD SWAP2 PUSH2 0x8D5 SWAP3 PUSH2 0xF2D JUMP JUMPDEST SUB PUSH32 0x9C366A982359867400FDA3CE7E1E8EE7700A45F551374BB36692C1F8CC3EA78 SWAP2 LOG1 STOP JUMPDEST SWAP1 POP PUSH1 0x80 MLOAD ADD CALLDATALOAD DUP15 PUSH2 0x832 JUMP JUMPDEST DUP3 PUSH1 0x0 MSTORE PUSH1 0x20 PUSH1 0x0 KECCAK256 PUSH1 0x0 SWAP3 PUSH1 0x80 MLOAD SWAP1 JUMPDEST PUSH1 0x1F NOT DUP5 AND DUP6 LT PUSH2 0x95B JUMPI PUSH1 0x1 SWAP5 POP DUP4 PUSH1 0x1F NOT DUP2 AND LT PUSH2 0x941 JUMPI JUMPDEST POP POP POP DUP2 SHL ADD SWAP1 SSTORE PUSH2 0x846 JUMP JUMPDEST ADD CALLDATALOAD PUSH1 0x0 NOT PUSH1 0x3 DUP5 SWAP1 SHL PUSH1 0xF8 AND SHR NOT AND SWAP1 SSTORE DUP15 DUP1 DUP1 PUSH2 0x934 JUMP JUMPDEST DUP2 DUP2 ADD CALLDATALOAD DUP4 SSTORE PUSH1 0x20 SWAP5 DUP6 ADD SWAP5 PUSH1 0x1 SWAP1 SWAP4 ADD SWAP3 ADD PUSH2 0x919 JUMP JUMPDEST PUSH4 0x4E487B71 PUSH1 0xE0 SHL PUSH1 0x0 MSTORE PUSH1 0x41 PUSH1 0x4 MSTORE PUSH1 0x24 PUSH1 0x0 REVERT JUMPDEST ADD MLOAD SWAP1 POP DUP15 DUP1 PUSH2 0x7B3 JUMP JUMPDEST SWAP3 POP DUP4 PUSH1 0x0 MSTORE PUSH1 0x20 PUSH1 0x0 KECCAK256 SWAP1 PUSH1 0x0 SWAP4 JUMPDEST PUSH1 0x1F NOT DUP5 AND DUP6 LT PUSH2 0x9E5 JUMPI PUSH1 0x1 SWAP5 POP DUP4 PUSH1 0x1F NOT DUP2 AND LT PUSH2 0x9CC JUMPI JUMPDEST POP POP POP DUP2 SHL ADD SWAP1 SSTORE PUSH2 0x7C8 JUMP JUMPDEST ADD MLOAD PUSH1 0x0 NOT PUSH1 0xF8 DUP5 PUSH1 0x3 SHL AND SHR NOT AND SWAP1 SSTORE DUP15 DUP1 DUP1 PUSH2 0x9BF JUMP JUMPDEST DUP2 DUP2 ADD MLOAD DUP4 SSTORE PUSH1 0x20 SWAP5 DUP6 ADD SWAP5 PUSH1 0x1 SWAP1 SWAP4 ADD SWAP3 SWAP1 SWAP2 ADD SWAP1 PUSH2 0x9A4 JUMP JUMPDEST ADD MLOAD SWAP1 POP CODESIZE DUP1 PUSH2 0x757 JUMP JUMPDEST SWAP1 PUSH1 0x4 DUP6 ADD PUSH1 0x0 MSTORE PUSH1 0x20 PUSH1 0x0 KECCAK256 SWAP2 PUSH1 0x0 JUMPDEST PUSH1 0x1F NOT DUP6 AND DUP2 LT PUSH2 0xA66 JUMPI POP SWAP2 DUP4 SWAP2 PUSH1 0x1 SWAP4 PUSH1 0xA0 SWAP7 SWAP6 PUSH1 0x1F NOT DUP2 AND LT PUSH2 0xA4D JUMPI JUMPDEST POP POP POP DUP2 SHL ADD PUSH1 0x4 DUP5 ADD SSTORE PUSH2 0x76F JUMP JUMPDEST ADD MLOAD PUSH1 0x0 NOT PUSH1 0xF8 DUP5 PUSH1 0x3 SHL AND SHR NOT AND SWAP1 SSTORE CODESIZE DUP1 DUP1 PUSH2 0xA3D JUMP JUMPDEST SWAP2 SWAP3 PUSH1 0x20 PUSH1 0x1 DUP2 SWAP3 DUP7 DUP6 ADD MLOAD DUP2 SSTORE ADD SWAP5 ADD SWAP3 ADD PUSH2 0xA1C JUMP JUMPDEST ADD MLOAD SWAP1 POP DUP16 DUP1 PUSH2 0x6F3 JUMP JUMPDEST SWAP3 POP PUSH1 0x3 DUP6 ADD PUSH1 0x0 MSTORE PUSH1 0x20 PUSH1 0x0 KECCAK256 SWAP1 PUSH1 0x0 SWAP4 JUMPDEST PUSH1 0x1F NOT DUP5 AND DUP6 LT PUSH2 0xAE0 JUMPI PUSH1 0x1 SWAP5 POP DUP4 PUSH1 0x1F NOT DUP2 AND LT PUSH2 0xAC7 JUMPI JUMPDEST POP POP POP DUP2 SHL ADD PUSH1 0x3 DUP4 ADD SSTORE PUSH2 0x70B JUMP JUMPDEST ADD MLOAD PUSH1 0x0 NOT PUSH1 0xF8 DUP5 PUSH1 0x3 SHL AND SHR NOT AND SWAP1 SSTORE DUP16 DUP1 DUP1 PUSH2 0xAB7 JUMP JUMPDEST DUP2 DUP2 ADD MLOAD DUP4 SSTORE PUSH1 0x20 SWAP5 DUP6 ADD SWAP5 PUSH1 0x1 SWAP1 SWAP4 ADD SWAP3 SWAP1 SWAP2 ADD SWAP1 PUSH2 0xA9C JUMP JUMPDEST ADD MLOAD SWAP1 POP DUP16 DUP1 PUSH2 0x693 JUMP JUMPDEST SWAP3 POP PUSH1 0x2 DUP6 ADD PUSH1 0x0 MSTORE PUSH1 0x20 PUSH1 0x0 KECCAK256 SWAP1 PUSH1 0x0 SWAP4 JUMPDEST PUSH1 0x1F NOT DUP5 AND DUP6 LT PUSH2 0xB5D JUMPI PUSH1 0x1 SWAP5 POP DUP4 PUSH1 0x1F NOT DUP2 AND LT PUSH2 0xB44 JUMPI JUMPDEST POP POP POP DUP2 SHL ADD PUSH1 0x2 DUP4 ADD SSTORE PUSH2 0x6AB JUMP JUMPDEST ADD MLOAD PUSH1 0x0 NOT PUSH1 0xF8 DUP5 PUSH1 0x3 SHL AND SHR NOT AND SWAP1 SSTORE DUP16 DUP1 DUP1 PUSH2 0xB34 JUMP JUMPDEST DUP2 DUP2 ADD MLOAD DUP4 SSTORE PUSH1 0x20 SWAP5 DUP6 ADD SWAP5 PUSH1 0x1 SWAP1 SWAP4 ADD SWAP3 SWAP1 SWAP2 ADD SWAP1 PUSH2 0xB19 JUMP JUMPDEST ADD MLOAD SWAP1 POP DUP16 DUP1 PUSH2 0x633 JUMP JUMPDEST SWAP3 POP PUSH1 0x1 DUP6 ADD PUSH1 0x0 MSTORE PUSH1 0x20 PUSH1 0x0 KECCAK256 SWAP1 PUSH1 0x0 SWAP4 JUMPDEST PUSH1 0x1F NOT DUP5 AND DUP6 LT PUSH2 0xBDA JUMPI PUSH1 0x1 SWAP5 POP DUP4 PUSH1 0x1F NOT DUP2 AND LT PUSH2 0xBC1 JUMPI JUMPDEST POP POP POP DUP2 SHL ADD PUSH1 0x1 DUP4 ADD SSTORE PUSH2 0x64B JUMP JUMPDEST ADD MLOAD PUSH1 0x0 NOT PUSH1 0xF8 DUP5 PUSH1 0x3 SHL AND SHR NOT AND SWAP1 SSTORE DUP16 DUP1 DUP1 PUSH2 0xBB1 JUMP JUMPDEST DUP2 DUP2 ADD MLOAD DUP4 SSTORE PUSH1 0x20 SWAP5 DUP6 ADD SWAP5 PUSH1 0x1 SWAP1 SWAP4 ADD SWAP3 SWAP1 SWAP2 ADD SWAP1 PUSH2 0xB96 JUMP JUMPDEST ADD MLOAD SWAP1 POP DUP16 DUP1 PUSH2 0x5D6 JUMP JUMPDEST SWAP3 POP DUP5 PUSH1 0x0 MSTORE PUSH1 0x20 PUSH1 0x0 KECCAK256 SWAP1 PUSH1 0x0 SWAP4 JUMPDEST PUSH1 0x1F NOT DUP5 AND DUP6 LT PUSH2 0xC51 JUMPI PUSH1 0x1 SWAP5 POP DUP4 PUSH1 0x1F NOT DUP2 AND LT PUSH2 0xC38 JUMPI JUMPDEST POP POP POP DUP2 SHL ADD DUP3 SSTORE PUSH2 0x5EB JUMP JUMPDEST ADD MLOAD PUSH1 0x0 NOT PUSH1 0xF8 DUP5 PUSH1 0x3 SHL AND SHR NOT AND SWAP1 SSTORE DUP16 DUP1 DUP1 PUSH2 0xC2B JUMP JUMPDEST DUP2 DUP2 ADD MLOAD DUP4 SSTORE PUSH1 0x20 SWAP5 DUP6 ADD SWAP5 PUSH1 0x1 SWAP1 SWAP4 ADD SWAP3 SWAP1 SWAP2 ADD SWAP1 PUSH2 0xC10 JUMP JUMPDEST PUSH3 0x461BCD PUSH1 0xE5 SHL DUP2 MSTORE PUSH1 0x20 PUSH1 0x4 DUP3 ADD MSTORE PUSH1 0xB PUSH1 0x24 DUP3 ADD MSTORE PUSH11 0x139BDD081CDD195DD85C99 PUSH1 0xAA SHL PUSH1 0x44 DUP3 ADD MSTORE PUSH1 0x64 SWAP1 REVERT JUMPDEST SWAP2 DUP2 PUSH1 0x1F DUP5 ADD SLT ISZERO PUSH2 0xE1 JUMPI DUP3 CALLDATALOAD SWAP2 PUSH1 0x1 PUSH1 0x1 PUSH1 0x40 SHL SUB DUP4 GT PUSH2 0xE1 JUMPI PUSH1 0x20 DUP4 DUP2 DUP7 ADD SWAP6 ADD ADD GT PUSH2 0xE1 JUMPI JUMP JUMPDEST PUSH1 0x2 SLOAD DUP2 LT ISZERO PUSH2 0xD00 JUMPI PUSH1 0x2 PUSH1 0x0 MSTORE PUSH32 0x405787FA12A823E0F2B7631CC41B3BA8828B3321CA811111FA75CD3AA3BB5ACE ADD SWAP1 PUSH1 0x0 SWAP1 JUMP JUMPDEST PUSH4 0x4E487B71 PUSH1 0xE0 SHL PUSH1 0x0 MSTORE PUSH1 0x32 PUSH1 0x4 MSTORE PUSH1 0x24 PUSH1 0x0 REVERT JUMPDEST SWAP1 PUSH1 0x1 DUP3 DUP2 SHR SWAP3 AND DUP1 ISZERO PUSH2 0xD46 JUMPI JUMPDEST PUSH1 0x20 DUP4 LT EQ PUSH2 0xD30 JUMPI JUMP JUMPDEST PUSH4 0x4E487B71 PUSH1 0xE0 SHL PUSH1 0x0 MSTORE PUSH1 0x22 PUSH1 0x4 MSTORE PUSH1 0x24 PUSH1 0x0 REVERT JUMPDEST SWAP2 PUSH1 0x7F AND SWAP2 PUSH2 0xD25 JUMP JUMPDEST PUSH1 0xC0 DUP2 ADD SWAP1 DUP2 LT PUSH1 0x1 PUSH1 0x1 PUSH1 0x40 SHL SUB DUP3 GT OR PUSH2 0x973 JUMPI PUSH1 0x40 MSTORE JUMP JUMPDEST SWAP1 PUSH1 0x1F DUP1 NOT SWAP2 ADD AND DUP2 ADD SWAP1 DUP2 LT PUSH1 0x1 PUSH1 0x1 PUSH1 0x40 SHL SUB DUP3 GT OR PUSH2 0x973 JUMPI PUSH1 0x40 MSTORE JUMP JUMPDEST SWAP1 PUSH1 0x40 MLOAD SWAP2 DUP3 PUSH1 0x0 DUP3 SLOAD SWAP3 PUSH2 0xDA0 DUP5 PUSH2 0xD16 JUMP JUMPDEST SWAP1 DUP2 DUP5 MSTORE PUSH1 0x1 SWAP5 DUP6 DUP2 AND SWAP1 DUP2 PUSH1 0x0 EQ PUSH2 0xE0F JUMPI POP PUSH1 0x1 EQ PUSH2 0xDCC JUMPI JUMPDEST POP POP PUSH2 0xDCA SWAP3 POP SUB DUP4 PUSH2 0xD6B JUMP JUMPDEST JUMP JUMPDEST SWAP1 SWAP4 SWAP2 POP PUSH1 0x0 MSTORE PUSH1 0x20 SWAP1 DUP2 PUSH1 0x0 KECCAK256 SWAP4 PUSH1 0x0 SWAP2 JUMPDEST DUP2 DUP4 LT PUSH2 0xDF7 JUMPI POP POP PUSH2 0xDCA SWAP4 POP DUP3 ADD ADD CODESIZE DUP1 PUSH2 0xDBC JUMP JUMPDEST DUP6 SLOAD DUP9 DUP5 ADD DUP6 ADD MSTORE SWAP5 DUP6 ADD SWAP5 DUP8 SWAP5 POP SWAP2 DUP4 ADD SWAP2 PUSH2 0xDDF JUMP JUMPDEST SWAP2 POP POP PUSH2 0xDCA SWAP5 POP PUSH1 0x20 SWAP3 POP PUSH1 0xFF NOT AND DUP3 DUP5 ADD MSTORE ISZERO ISZERO PUSH1 0x5 SHL DUP3 ADD ADD CODESIZE DUP1 PUSH2 0xDBC JUMP JUMPDEST PUSH1 0x0 JUMPDEST DUP4 DUP2 LT PUSH2 0xE45 JUMPI POP POP PUSH1 0x0 SWAP2 ADD MSTORE JUMP JUMPDEST DUP2 DUP2 ADD MLOAD DUP4 DUP3 ADD MSTORE PUSH1 0x20 ADD PUSH2 0xE35 JUMP JUMPDEST SWAP1 PUSH1 0x20 SWAP2 PUSH2 0xE6E DUP2 MLOAD DUP1 SWAP3 DUP2 DUP6 MSTORE DUP6 DUP1 DUP7 ADD SWAP2 ADD PUSH2 0xE32 JUMP JUMPDEST PUSH1 0x1F ADD PUSH1 0x1F NOT AND ADD ADD SWAP1 JUMP JUMPDEST SWAP3 SWAP2 SWAP3 PUSH1 0x1 PUSH1 0x1 PUSH1 0x40 SHL SUB DUP3 GT PUSH2 0x973 JUMPI PUSH1 0x40 MLOAD SWAP2 PUSH2 0xEA3 PUSH1 0x1F DUP3 ADD PUSH1 0x1F NOT AND PUSH1 0x20 ADD DUP5 PUSH2 0xD6B JUMP JUMPDEST DUP3 SWAP5 DUP2 DUP5 MSTORE DUP2 DUP4 ADD GT PUSH2 0xE1 JUMPI DUP3 DUP2 PUSH1 0x20 SWAP4 DUP5 PUSH1 0x0 SWAP7 ADD CALLDATACOPY ADD ADD MSTORE JUMP JUMPDEST PUSH1 0x20 SWAP1 DUP3 PUSH1 0x40 MLOAD SWAP4 DUP5 SWAP3 DUP4 CALLDATACOPY DUP2 ADD PUSH1 0x1 DUP2 MSTORE SUB ADD SWAP1 KECCAK256 SWAP1 JUMP JUMPDEST SWAP1 PUSH1 0x1F DUP2 GT PUSH2 0xEE7 JUMPI POP POP POP JUMP JUMPDEST PUSH1 0x0 SWAP2 DUP3 MSTORE PUSH1 0x20 DUP3 KECCAK256 SWAP1 PUSH1 0x20 PUSH1 0x1F DUP6 ADD PUSH1 0x5 SHR DUP4 ADD SWAP5 LT PUSH2 0xF23 JUMPI JUMPDEST PUSH1 0x1F ADD PUSH1 0x5 SHR ADD SWAP2 JUMPDEST DUP3 DUP2 LT PUSH2 0xF18 JUMPI POP POP POP JUMP JUMPDEST DUP2 DUP2 SSTORE PUSH1 0x1 ADD PUSH2 0xF0C JUMP JUMPDEST SWAP1 SWAP3 POP DUP3 SWAP1 PUSH2 0xF03 JUMP JUMPDEST SWAP1 DUP1 PUSH1 0x20 SWAP4 SWAP3 DUP2 DUP5 MSTORE DUP5 DUP5 ADD CALLDATACOPY PUSH1 0x0 DUP3 DUP3 ADD DUP5 ADD MSTORE PUSH1 0x1F ADD PUSH1 0x1F NOT AND ADD ADD SWAP1 JUMP INVALID LOG2 PUSH5 0x6970667358 0x22 SLT KECCAK256 0xEA BLOCKHASH STOP 0xE5 PUSH32 0xCBDF478C03629877694D3F5B4D76B68C027DE81B415E1B611A729164736F6C63 NUMBER STOP ADDMOD EQ STOP CALLER "},"methodIdentifiers":{"codices(string)":"dbc21424","getCodex(string)":"83361522","getLineage(string)":"f44571f9","getProtocol(string)":"7beb4107","getResonance(string)":"46b41068","inscribeCodex(string,string,string,string,string,string,string)":"0c41547a","keys(uint256)":"0cb6aaf1","steward()":"637eea19","totalCodices()":"c212d16b"}}}}}