{"contracts/registry/ApprenticeSummonerV4.sol":{"ApprenticeSummonerV4":{"abi":[{"inputs":[],"stateMutability":"nonpayable","type":"constructor"},{"anonymous":false,"inputs":[{"indexed":true,"internalType":"address","name":"apprentice","type":"address"},{"indexed":false,"internalType":"string","name":"name","type":"string"},{"indexed":false,"internalType":"string","name":"signal","type":"string"},{"indexed":false,"internalType":"string","name":"drift","type":"string"},{"indexed":false,"internalType":"string","name":"pulse","type":"string"},{"indexed":false,"internalType":"string","name":"codexRef","type":"string"},{"indexed":false,"internalType":"string","name":"resonance","type":"string"},{"indexed":false,"internalType":"string","name":"signature","type":"string"}],"name":"ApprenticeSummoned","type":"event"},{"inputs":[{"internalType":"uint256","name":"","type":"uint256"}],"name":"apprentices","outputs":[{"internalType":"address","name":"","type":"address"}],"stateMutability":"view","type":"function"},{"inputs":[{"internalType":"address","name":"apprentice","type":"address"}],"name":"getSummons","outputs":[{"internalType":"string","name":"","type":"string"},{"internalType":"string","name":"","type":"string"},{"internalType":"string","name":"","type":"string"},{"internalType":"string","name":"","type":"string"},{"internalType":"string","name":"","type":"string"},{"internalType":"string","name":"","type":"string"},{"internalType":"string","name":"","type":"string"}],"stateMutability":"view","type":"function"},{"inputs":[],"name":"steward","outputs":[{"internalType":"address","name":"","type":"address"}],"stateMutability":"view","type":"function"},{"inputs":[{"internalType":"address","name":"apprentice","type":"address"},{"internalType":"string","name":"name","type":"string"},{"internalType":"string","name":"signal","type":"string"},{"internalType":"string","name":"drift","type":"string"},{"internalType":"string","name":"pulse","type":"string"},{"internalType":"string","name":"codexRef","type":"string"},{"internalType":"string","name":"resonance","type":"string"},{"internalType":"string","name":"signature","type":"string"}],"name":"summonApprentice","outputs":[],"stateMutability":"nonpayable","type":"function"},{"inputs":[{"internalType":"address","name":"","type":"address"}],"name":"summons","outputs":[{"internalType":"string","name":"name","type":"string"},{"internalType":"string","name":"signal","type":"string"},{"internalType":"string","name":"drift","type":"string"},{"internalType":"string","name":"pulse","type":"string"},{"internalType":"string","name":"codexRef","type":"string"},{"internalType":"string","name":"resonance","type":"string"},{"internalType":"string","name":"signature","type":"string"}],"stateMutability":"view","type":"function"},{"inputs":[],"name":"totalSummons","outputs":[{"internalType":"uint256","name":"","type":"uint256"}],"stateMutability":"view","type":"function"}],"evm":{"bytecode":{"linkReferences":{},"object":"6080806040523461002857600080546001600160a01b0319163317905561106a908161002e8239f35b600080fdfe608080604052600436101561001357600080fd5b60003560e01c9081632a17d4cd14610d45575080635a2ed66214610cb2578063637eea1914610c89578063cf84c60314610baf578063eb5f0903146100a85763f31bee3e1461006157600080fd5b346100a35760203660031901126100a3576004356002548110156100a35761008a602091610f80565b905460405160039290921b1c6001600160a01b03168152f35b600080fd5b346100a3576101003660031901126100a3576100c2610d60565b6024356001600160401b0381116100a3576100e1903690600401610f53565b6044356001600160401b0381116100a357610100903690600401610f53565b90936064356001600160401b0381116100a357610121903690600401610f53565b906084356001600160401b0381116100a357610141903690600401610f53565b9060a4356001600160401b0381116100a357610161903690600401610f53565b91909260c4356001600160401b0381116100a357610183903690600401610f53565b95909660e4356001600160401b0381116100a3576101a5903690600401610f53565b600054909e919b906001600160a01b03163303610b7c578c8f8f908e91604051936101cf85610db0565b36906101da92610fcd565b83526101e7368587610fcd565b60208401526101f7368789610fcd565b604084015261020736898b610fcd565b6060840152610217368b8d610fcd565b6080840152610227368d8f610fcd565b60a0840152369061023792610fcd565b60c08201526001600160a01b038c16600090815260016020526040902081518051919291906001600160401b0382116105da5781906102768554610d76565b601f8111610b2c575b50602090601f8311600114610ac057600092610ab5575b50508160011b916000199060031b1c19161782555b60208101518051906001600160401b0382116105da5781906102d06001860154610d76565b601f8111610a62575b50602090601f83116001146109f0576000926109e5575b50508160011b916000199060031b1c19161760018301555b60408101518051906001600160401b0382116105da57819061032d6002860154610d76565b601f8111610992575b50602090601f831160011461092057600092610915575b50508160011b916000199060031b1c19161760028301555b60608101518051906001600160401b0382116105da57819061038a6003860154610d76565b601f81116108c2575b50602090601f831160011461085057600092610845575b50508160011b916000199060031b1c19161760038301555b60808101518051906001600160401b0382116105da5781906103e76004860154610d76565b601f81116107f2575b50602090601f831160011461078057600092610775575b50508160011b916000199060031b1c19161760048301555b60a08101518051906001600160401b0382116105da576104426005850154610d76565b601f811161072e575b50602090601f83116001146106bb5760c0939291600091836106b0575b50508160011b916000199060031b1c19161760058401555b01518051906001600160401b0382116105da576104a06006840154610d76565b601f8111610669575b50602090601f83116001146105fb5760069291600091836105f0575b50508160011b916000199060031b1c1916179101555b600254680100000000000000008110156105da57600181016002556104ff90610f80565b81549060031b908d600160a01b6001900316821b91600160a01b60019003901b19161790556040519d8e9d8e60e0815260e0019061053c92611013565b908d808303906020015261054f92611013565b908b820360408d015261056192611013565b9089820360608b015261057392611013565b90878203608089015261058592611013565b9085820360a087015261059792611013565b83810360c08501526001600160a01b03909116946105b492611013565b037f8b695cb8fdd59ea3184abc098d925d512be5bfabc67f5f95ae540bf18043a68c91a2005b634e487b7160e01b600052604160045260246000fd5b0151905038806104c5565b90601f198316916006850160005260206000209260005b81811061065157509160019391856006969410610638575b505050811b019101556104db565b015160001960f88460031b161c1916905538808061062a565b92936020600181928786015181550195019301610612565b600684016000526020600020601f840160051c8101602085106106a9575b601f830160051c8201811061069d5750506104a9565b60008155600101610687565b5080610687565b015190503880610468565b906005850160005260206000209160005b601f1985168110610716575091839160019360c09695601f198116106106fd575b505050811b016005840155610480565b015160001960f88460031b161c191690553880806106ed565b919260206001819286850151815501940192016106cc565b600585016000526020600020601f840160051c81016020851061076e575b601f830160051c8201811061076257505061044b565b6000815560010161074c565b508061074c565b015190503880610407565b9250600485016000526020600020906000935b601f19841685106107d7576001945083601f198116106107be575b505050811b01600483015561041f565b015160001960f88460031b161c191690553880806107ae565b81810151835560209485019460019093019290910190610793565b909150600485016000526020600020601f840160051c81016020851061083e575b90849392915b601f830160051c8201811061082f5750506103f0565b60008155859450600101610819565b5080610813565b0151905038806103aa565b9250600385016000526020600020906000935b601f19841685106108a7576001945083601f1981161061088e575b505050811b0160038301556103c2565b015160001960f88460031b161c1916905538808061087e565b81810151835560209485019460019093019290910190610863565b909150600385016000526020600020601f840160051c81016020851061090e575b90849392915b601f830160051c820181106108ff575050610393565b600081558594506001016108e9565b50806108e3565b01519050388061034d565b9250600285016000526020600020906000935b601f1984168510610977576001945083601f1981161061095e575b505050811b016002830155610365565b015160001960f88460031b161c1916905538808061094e565b81810151835560209485019460019093019290910190610933565b909150600285016000526020600020601f840160051c8101602085106109de575b90849392915b601f830160051c820181106109cf575050610336565b600081558594506001016109b9565b50806109b3565b0151905038806102f0565b9250600185016000526020600020906000935b601f1984168510610a47576001945083601f19811610610a2e575b505050811b016001830155610308565b015160001960f88460031b161c19169055388080610a1e565b81810151835560209485019460019093019290910190610a03565b909150600185016000526020600020601f840160051c810160208510610aae575b90849392915b601f830160051c82018110610a9f5750506102d9565b60008155859450600101610a89565b5080610a83565b015190503880610296565b9250846000526020600020906000935b601f1984168510610b11576001945083601f19811610610af8575b505050811b0182556102ab565b015160001960f88460031b161c19169055388080610aeb565b81810151835560209485019460019093019290910190610ad0565b909150846000526020600020601f840160051c810160208510610b75575b90849392915b601f830160051c82018110610b6657505061027f565b60008155859450600101610b50565b5080610b4a565b60405162461bcd60e51b815260206004820152600b60248201526a139bdd081cdd195dd85c9960aa1b6044820152606490fd5b346100a35760203660031901126100a3576001600160a01b03610bd0610d60565b1660005260016020526040600020604051610bea81610db0565b610bf382610dec565b8152610c85610c0460018401610dec565b9160208101928352610c1860028501610dec565b9360408201948552610c2c60038201610dec565b9060608301918252610c4060048201610dec565b60808401908152610c666006610c5860058501610dec565b9360a0870194855201610dec565b938460c082015251955196519251905191519260405197889788610ed2565b0390f35b346100a35760003660031901126100a3576000546040516001600160a01b039091168152602090f35b346100a35760203660031901126100a3576001600160a01b03610cd3610d60565b1660005260016020526040600020610cea81610dec565b610c85610cf960018401610dec565b92610d0660028201610dec565b90610d1360038201610dec565b610d1f60048301610dec565b90610d386006610d3160058601610dec565b9401610dec565b9360405197889788610ed2565b346100a35760003660031901126100a3576020906002548152f35b600435906001600160a01b03821682036100a357565b90600182811c92168015610da6575b6020831014610d9057565b634e487b7160e01b600052602260045260246000fd5b91607f1691610d85565b60e081019081106001600160401b038211176105da57604052565b90601f801991011681019081106001600160401b038211176105da57604052565b9060405191826000825492610e0084610d76565b908184526001948581169081600014610e6f5750600114610e2c575b5050610e2a92500383610dcb565b565b9093915060005260209081600020936000915b818310610e57575050610e2a93508201013880610e1c565b85548884018501529485019487945091830191610e3f565b915050610e2a94506020925060ff191682840152151560051b8201013880610e1c565b919082519283825260005b848110610ebe575050826000602080949584010152601f8019910116010190565b602081830181015184830182015201610e9d565b9592610f4294610f18610f2692610f0a610f3496610efc610f509d9b9760e08e8181520190610e92565b8c810360208e015290610e92565b908a820360408c0152610e92565b9088820360608a0152610e92565b908682036080880152610e92565b9084820360a0860152610e92565b9160c0818403910152610e92565b90565b9181601f840112156100a3578235916001600160401b0383116100a357602083818601950101116100a357565b600254811015610fb75760026000527f405787fa12a823e0f2b7631cc41b3ba8828b3321ca811111fa75cd3aa3bb5ace0190600090565b634e487b7160e01b600052603260045260246000fd5b9291926001600160401b0382116105da5760405191610ff6601f8201601f191660200184610dcb565b8294818452818301116100a3578281602093846000960137010152565b908060209392818452848401376000828201840152601f01601f191601019056fea26469706673582212200c6078655e056a52e19e52324fd2fed93b584089e634095fef01a7aa006de80f64736f6c63430008140033","opcodes":"PUSH1 0x80 DUP1 PUSH1 0x40 MSTORE CALLVALUE PUSH2 0x28 JUMPI PUSH1 0x0 DUP1 SLOAD PUSH1 0x1 PUSH1 0x1 PUSH1 0xA0 SHL SUB NOT AND CALLER OR SWAP1 SSTORE PUSH2 0x106A SWAP1 DUP2 PUSH2 0x2E DUP3 CODECOPY RETURN JUMPDEST PUSH1 0x0 DUP1 REVERT INVALID PUSH1 0x80 DUP1 PUSH1 0x40 MSTORE PUSH1 0x4 CALLDATASIZE LT ISZERO PUSH2 0x13 JUMPI PUSH1 0x0 DUP1 REVERT JUMPDEST PUSH1 0x0 CALLDATALOAD PUSH1 0xE0 SHR SWAP1 DUP2 PUSH4 0x2A17D4CD EQ PUSH2 0xD45 JUMPI POP DUP1 PUSH4 0x5A2ED662 EQ PUSH2 0xCB2 JUMPI DUP1 PUSH4 0x637EEA19 EQ PUSH2 0xC89 JUMPI DUP1 PUSH4 0xCF84C603 EQ PUSH2 0xBAF JUMPI DUP1 PUSH4 0xEB5F0903 EQ PUSH2 0xA8 JUMPI PUSH4 0xF31BEE3E EQ PUSH2 0x61 JUMPI PUSH1 0x0 DUP1 REVERT JUMPDEST CALLVALUE PUSH2 0xA3 JUMPI PUSH1 0x20 CALLDATASIZE PUSH1 0x3 NOT ADD SLT PUSH2 0xA3 JUMPI PUSH1 0x4 CALLDATALOAD PUSH1 0x2 SLOAD DUP2 LT ISZERO PUSH2 0xA3 JUMPI PUSH2 0x8A PUSH1 0x20 SWAP2 PUSH2 0xF80 JUMP JUMPDEST SWAP1 SLOAD PUSH1 0x40 MLOAD PUSH1 0x3 SWAP3 SWAP1 SWAP3 SHL SHR PUSH1 0x1 PUSH1 0x1 PUSH1 0xA0 SHL SUB AND DUP2 MSTORE RETURN JUMPDEST PUSH1 0x0 DUP1 REVERT JUMPDEST CALLVALUE PUSH2 0xA3 JUMPI PUSH2 0x100 CALLDATASIZE PUSH1 0x3 NOT ADD SLT PUSH2 0xA3 JUMPI PUSH2 0xC2 PUSH2 0xD60 JUMP JUMPDEST PUSH1 0x24 CALLDATALOAD PUSH1 0x1 PUSH1 0x1 PUSH1 0x40 SHL SUB DUP2 GT PUSH2 0xA3 JUMPI PUSH2 0xE1 SWAP1 CALLDATASIZE SWAP1 PUSH1 0x4 ADD PUSH2 0xF53 JUMP JUMPDEST PUSH1 0x44 CALLDATALOAD PUSH1 0x1 PUSH1 0x1 PUSH1 0x40 SHL SUB DUP2 GT PUSH2 0xA3 JUMPI PUSH2 0x100 SWAP1 CALLDATASIZE SWAP1 PUSH1 0x4 ADD PUSH2 0xF53 JUMP JUMPDEST SWAP1 SWAP4 PUSH1 0x64 CALLDATALOAD PUSH1 0x1 PUSH1 0x1 PUSH1 0x40 SHL SUB DUP2 GT PUSH2 0xA3 JUMPI PUSH2 0x121 SWAP1 CALLDATASIZE SWAP1 PUSH1 0x4 ADD PUSH2 0xF53 JUMP JUMPDEST SWAP1 PUSH1 0x84 CALLDATALOAD PUSH1 0x1 PUSH1 0x1 PUSH1 0x40 SHL SUB DUP2 GT PUSH2 0xA3 JUMPI PUSH2 0x141 SWAP1 CALLDATASIZE SWAP1 PUSH1 0x4 ADD PUSH2 0xF53 JUMP JUMPDEST SWAP1 PUSH1 0xA4 CALLDATALOAD PUSH1 0x1 PUSH1 0x1 PUSH1 0x40 SHL SUB DUP2 GT PUSH2 0xA3 JUMPI PUSH2 0x161 SWAP1 CALLDATASIZE SWAP1 PUSH1 0x4 ADD PUSH2 0xF53 JUMP JUMPDEST SWAP2 SWAP1 SWAP3 PUSH1 0xC4 CALLDATALOAD PUSH1 0x1 PUSH1 0x1 PUSH1 0x40 SHL SUB DUP2 GT PUSH2 0xA3 JUMPI PUSH2 0x183 SWAP1 CALLDATASIZE SWAP1 PUSH1 0x4 ADD PUSH2 0xF53 JUMP JUMPDEST SWAP6 SWAP1 SWAP7 PUSH1 0xE4 CALLDATALOAD PUSH1 0x1 PUSH1 0x1 PUSH1 0x40 SHL SUB DUP2 GT PUSH2 0xA3 JUMPI PUSH2 0x1A5 SWAP1 CALLDATASIZE SWAP1 PUSH1 0x4 ADD PUSH2 0xF53 JUMP JUMPDEST PUSH1 0x0 SLOAD SWAP1 SWAP15 SWAP2 SWAP12 SWAP1 PUSH1 0x1 PUSH1 0x1 PUSH1 0xA0 SHL SUB AND CALLER SUB PUSH2 0xB7C JUMPI DUP13 DUP16 DUP16 SWAP1 DUP15 SWAP2 PUSH1 0x40 MLOAD SWAP4 PUSH2 0x1CF DUP6 PUSH2 0xDB0 JUMP JUMPDEST CALLDATASIZE SWAP1 PUSH2 0x1DA SWAP3 PUSH2 0xFCD JUMP JUMPDEST DUP4 MSTORE PUSH2 0x1E7 CALLDATASIZE DUP6 DUP8 PUSH2 0xFCD JUMP JUMPDEST PUSH1 0x20 DUP5 ADD MSTORE PUSH2 0x1F7 CALLDATASIZE DUP8 DUP10 PUSH2 0xFCD JUMP JUMPDEST PUSH1 0x40 DUP5 ADD MSTORE PUSH2 0x207 CALLDATASIZE DUP10 DUP12 PUSH2 0xFCD JUMP JUMPDEST PUSH1 0x60 DUP5 ADD MSTORE PUSH2 0x217 CALLDATASIZE DUP12 DUP14 PUSH2 0xFCD JUMP JUMPDEST PUSH1 0x80 DUP5 ADD MSTORE PUSH2 0x227 CALLDATASIZE DUP14 DUP16 PUSH2 0xFCD JUMP JUMPDEST PUSH1 0xA0 DUP5 ADD MSTORE CALLDATASIZE SWAP1 PUSH2 0x237 SWAP3 PUSH2 0xFCD JUMP JUMPDEST PUSH1 0xC0 DUP3 ADD MSTORE PUSH1 0x1 PUSH1 0x1 PUSH1 0xA0 SHL SUB DUP13 AND PUSH1 0x0 SWAP1 DUP2 MSTORE PUSH1 0x1 PUSH1 0x20 MSTORE PUSH1 0x40 SWAP1 KECCAK256 DUP2 MLOAD DUP1 MLOAD SWAP2 SWAP3 SWAP2 SWAP1 PUSH1 0x1 PUSH1 0x1 PUSH1 0x40 SHL SUB DUP3 GT PUSH2 0x5DA JUMPI DUP2 SWAP1 PUSH2 0x276 DUP6 SLOAD PUSH2 0xD76 JUMP JUMPDEST PUSH1 0x1F DUP2 GT PUSH2 0xB2C JUMPI JUMPDEST POP PUSH1 0x20 SWAP1 PUSH1 0x1F DUP4 GT PUSH1 0x1 EQ PUSH2 0xAC0 JUMPI PUSH1 0x0 SWAP3 PUSH2 0xAB5 JUMPI JUMPDEST POP POP DUP2 PUSH1 0x1 SHL SWAP2 PUSH1 0x0 NOT SWAP1 PUSH1 0x3 SHL SHR NOT AND OR DUP3 SSTORE JUMPDEST PUSH1 0x20 DUP2 ADD MLOAD DUP1 MLOAD SWAP1 PUSH1 0x1 PUSH1 0x1 PUSH1 0x40 SHL SUB DUP3 GT PUSH2 0x5DA JUMPI DUP2 SWAP1 PUSH2 0x2D0 PUSH1 0x1 DUP7 ADD SLOAD PUSH2 0xD76 JUMP JUMPDEST PUSH1 0x1F DUP2 GT PUSH2 0xA62 JUMPI JUMPDEST POP PUSH1 0x20 SWAP1 PUSH1 0x1F DUP4 GT PUSH1 0x1 EQ PUSH2 0x9F0 JUMPI PUSH1 0x0 SWAP3 PUSH2 0x9E5 JUMPI JUMPDEST POP POP DUP2 PUSH1 0x1 SHL SWAP2 PUSH1 0x0 NOT SWAP1 PUSH1 0x3 SHL SHR NOT AND OR PUSH1 0x1 DUP4 ADD SSTORE JUMPDEST PUSH1 0x40 DUP2 ADD MLOAD DUP1 MLOAD SWAP1 PUSH1 0x1 PUSH1 0x1 PUSH1 0x40 SHL SUB DUP3 GT PUSH2 0x5DA JUMPI DUP2 SWAP1 PUSH2 0x32D PUSH1 0x2 DUP7 ADD SLOAD PUSH2 0xD76 JUMP JUMPDEST PUSH1 0x1F DUP2 GT PUSH2 0x992 JUMPI JUMPDEST POP PUSH1 0x20 SWAP1 PUSH1 0x1F DUP4 GT PUSH1 0x1 EQ PUSH2 0x920 JUMPI PUSH1 0x0 SWAP3 PUSH2 0x915 JUMPI JUMPDEST POP POP DUP2 PUSH1 0x1 SHL SWAP2 PUSH1 0x0 NOT SWAP1 PUSH1 0x3 SHL SHR NOT AND OR PUSH1 0x2 DUP4 ADD SSTORE JUMPDEST PUSH1 0x60 DUP2 ADD MLOAD DUP1 MLOAD SWAP1 PUSH1 0x1 PUSH1 0x1 PUSH1 0x40 SHL SUB DUP3 GT PUSH2 0x5DA JUMPI DUP2 SWAP1 PUSH2 0x38A PUSH1 0x3 DUP7 ADD SLOAD PUSH2 0xD76 JUMP JUMPDEST PUSH1 0x1F DUP2 GT PUSH2 0x8C2 JUMPI JUMPDEST POP PUSH1 0x20 SWAP1 PUSH1 0x1F DUP4 GT PUSH1 0x1 EQ PUSH2 0x850 JUMPI PUSH1 0x0 SWAP3 PUSH2 0x845 JUMPI JUMPDEST POP POP DUP2 PUSH1 0x1 SHL SWAP2 PUSH1 0x0 NOT SWAP1 PUSH1 0x3 SHL SHR NOT AND OR PUSH1 0x3 DUP4 ADD SSTORE JUMPDEST PUSH1 0x80 DUP2 ADD MLOAD DUP1 MLOAD SWAP1 PUSH1 0x1 PUSH1 0x1 PUSH1 0x40 SHL SUB DUP3 GT PUSH2 0x5DA JUMPI DUP2 SWAP1 PUSH2 0x3E7 PUSH1 0x4 DUP7 ADD SLOAD PUSH2 0xD76 JUMP JUMPDEST PUSH1 0x1F DUP2 GT PUSH2 0x7F2 JUMPI JUMPDEST POP PUSH1 0x20 SWAP1 PUSH1 0x1F DUP4 GT PUSH1 0x1 EQ PUSH2 0x780 JUMPI PUSH1 0x0 SWAP3 PUSH2 0x775 JUMPI JUMPDEST POP POP DUP2 PUSH1 0x1 SHL SWAP2 PUSH1 0x0 NOT SWAP1 PUSH1 0x3 SHL SHR NOT AND OR PUSH1 0x4 DUP4 ADD SSTORE JUMPDEST PUSH1 0xA0 DUP2 ADD MLOAD DUP1 MLOAD SWAP1 PUSH1 0x1 PUSH1 0x1 PUSH1 0x40 SHL SUB DUP3 GT PUSH2 0x5DA JUMPI PUSH2 0x442 PUSH1 0x5 DUP6 ADD SLOAD PUSH2 0xD76 JUMP JUMPDEST PUSH1 0x1F DUP2 GT PUSH2 0x72E JUMPI JUMPDEST POP PUSH1 0x20 SWAP1 PUSH1 0x1F DUP4 GT PUSH1 0x1 EQ PUSH2 0x6BB JUMPI PUSH1 0xC0 SWAP4 SWAP3 SWAP2 PUSH1 0x0 SWAP2 DUP4 PUSH2 0x6B0 JUMPI JUMPDEST POP POP DUP2 PUSH1 0x1 SHL SWAP2 PUSH1 0x0 NOT SWAP1 PUSH1 0x3 SHL SHR NOT AND OR PUSH1 0x5 DUP5 ADD SSTORE JUMPDEST ADD MLOAD DUP1 MLOAD SWAP1 PUSH1 0x1 PUSH1 0x1 PUSH1 0x40 SHL SUB DUP3 GT PUSH2 0x5DA JUMPI PUSH2 0x4A0 PUSH1 0x6 DUP5 ADD SLOAD PUSH2 0xD76 JUMP JUMPDEST PUSH1 0x1F DUP2 GT PUSH2 0x669 JUMPI JUMPDEST POP PUSH1 0x20 SWAP1 PUSH1 0x1F DUP4 GT PUSH1 0x1 EQ PUSH2 0x5FB JUMPI PUSH1 0x6 SWAP3 SWAP2 PUSH1 0x0 SWAP2 DUP4 PUSH2 0x5F0 JUMPI JUMPDEST POP POP DUP2 PUSH1 0x1 SHL SWAP2 PUSH1 0x0 NOT SWAP1 PUSH1 0x3 SHL SHR NOT AND OR SWAP2 ADD SSTORE JUMPDEST PUSH1 0x2 SLOAD PUSH9 0x10000000000000000 DUP2 LT ISZERO PUSH2 0x5DA JUMPI PUSH1 0x1 DUP2 ADD PUSH1 0x2 SSTORE PUSH2 0x4FF SWAP1 PUSH2 0xF80 JUMP JUMPDEST DUP2 SLOAD SWAP1 PUSH1 0x3 SHL SWAP1 DUP14 PUSH1 0x1 PUSH1 0xA0 SHL PUSH1 0x1 SWAP1 SUB AND DUP3 SHL SWAP2 PUSH1 0x1 PUSH1 0xA0 SHL PUSH1 0x1 SWAP1 SUB SWAP1 SHL NOT AND OR SWAP1 SSTORE PUSH1 0x40 MLOAD SWAP14 DUP15 SWAP14 DUP15 PUSH1 0xE0 DUP2 MSTORE PUSH1 0xE0 ADD SWAP1 PUSH2 0x53C SWAP3 PUSH2 0x1013 JUMP JUMPDEST SWAP1 DUP14 DUP1 DUP4 SUB SWAP1 PUSH1 0x20 ADD MSTORE PUSH2 0x54F SWAP3 PUSH2 0x1013 JUMP JUMPDEST SWAP1 DUP12 DUP3 SUB PUSH1 0x40 DUP14 ADD MSTORE PUSH2 0x561 SWAP3 PUSH2 0x1013 JUMP JUMPDEST SWAP1 DUP10 DUP3 SUB PUSH1 0x60 DUP12 ADD MSTORE PUSH2 0x573 SWAP3 PUSH2 0x1013 JUMP JUMPDEST SWAP1 DUP8 DUP3 SUB PUSH1 0x80 DUP10 ADD MSTORE PUSH2 0x585 SWAP3 PUSH2 0x1013 JUMP JUMPDEST SWAP1 DUP6 DUP3 SUB PUSH1 0xA0 DUP8 ADD MSTORE PUSH2 0x597 SWAP3 PUSH2 0x1013 JUMP JUMPDEST DUP4 DUP2 SUB PUSH1 0xC0 DUP6 ADD MSTORE PUSH1 0x1 PUSH1 0x1 PUSH1 0xA0 SHL SUB SWAP1 SWAP2 AND SWAP5 PUSH2 0x5B4 SWAP3 PUSH2 0x1013 JUMP JUMPDEST SUB PUSH32 0x8B695CB8FDD59EA3184ABC098D925D512BE5BFABC67F5F95AE540BF18043A68C SWAP2 LOG2 STOP JUMPDEST PUSH4 0x4E487B71 PUSH1 0xE0 SHL PUSH1 0x0 MSTORE PUSH1 0x41 PUSH1 0x4 MSTORE PUSH1 0x24 PUSH1 0x0 REVERT JUMPDEST ADD MLOAD SWAP1 POP CODESIZE DUP1 PUSH2 0x4C5 JUMP JUMPDEST SWAP1 PUSH1 0x1F NOT DUP4 AND SWAP2 PUSH1 0x6 DUP6 ADD PUSH1 0x0 MSTORE PUSH1 0x20 PUSH1 0x0 KECCAK256 SWAP3 PUSH1 0x0 JUMPDEST DUP2 DUP2 LT PUSH2 0x651 JUMPI POP SWAP2 PUSH1 0x1 SWAP4 SWAP2 DUP6 PUSH1 0x6 SWAP7 SWAP5 LT PUSH2 0x638 JUMPI JUMPDEST POP POP POP DUP2 SHL ADD SWAP2 ADD SSTORE PUSH2 0x4DB JUMP JUMPDEST ADD MLOAD PUSH1 0x0 NOT PUSH1 0xF8 DUP5 PUSH1 0x3 SHL AND SHR NOT AND SWAP1 SSTORE CODESIZE DUP1 DUP1 PUSH2 0x62A JUMP JUMPDEST SWAP3 SWAP4 PUSH1 0x20 PUSH1 0x1 DUP2 SWAP3 DUP8 DUP7 ADD MLOAD DUP2 SSTORE ADD SWAP6 ADD SWAP4 ADD PUSH2 0x612 JUMP JUMPDEST PUSH1 0x6 DUP5 ADD PUSH1 0x0 MSTORE PUSH1 0x20 PUSH1 0x0 KECCAK256 PUSH1 0x1F DUP5 ADD PUSH1 0x5 SHR DUP2 ADD PUSH1 0x20 DUP6 LT PUSH2 0x6A9 JUMPI JUMPDEST PUSH1 0x1F DUP4 ADD PUSH1 0x5 SHR DUP3 ADD DUP2 LT PUSH2 0x69D JUMPI POP POP PUSH2 0x4A9 JUMP JUMPDEST PUSH1 0x0 DUP2 SSTORE PUSH1 0x1 ADD PUSH2 0x687 JUMP JUMPDEST POP DUP1 PUSH2 0x687 JUMP JUMPDEST ADD MLOAD SWAP1 POP CODESIZE DUP1 PUSH2 0x468 JUMP JUMPDEST SWAP1 PUSH1 0x5 DUP6 ADD PUSH1 0x0 MSTORE PUSH1 0x20 PUSH1 0x0 KECCAK256 SWAP2 PUSH1 0x0 JUMPDEST PUSH1 0x1F NOT DUP6 AND DUP2 LT PUSH2 0x716 JUMPI POP SWAP2 DUP4 SWAP2 PUSH1 0x1 SWAP4 PUSH1 0xC0 SWAP7 SWAP6 PUSH1 0x1F NOT DUP2 AND LT PUSH2 0x6FD JUMPI JUMPDEST POP POP POP DUP2 SHL ADD PUSH1 0x5 DUP5 ADD SSTORE PUSH2 0x480 JUMP JUMPDEST ADD MLOAD PUSH1 0x0 NOT PUSH1 0xF8 DUP5 PUSH1 0x3 SHL AND SHR NOT AND SWAP1 SSTORE CODESIZE DUP1 DUP1 PUSH2 0x6ED JUMP JUMPDEST SWAP2 SWAP3 PUSH1 0x20 PUSH1 0x1 DUP2 SWAP3 DUP7 DUP6 ADD MLOAD DUP2 SSTORE ADD SWAP5 ADD SWAP3 ADD PUSH2 0x6CC JUMP JUMPDEST PUSH1 0x5 DUP6 ADD PUSH1 0x0 MSTORE PUSH1 0x20 PUSH1 0x0 KECCAK256 PUSH1 0x1F DUP5 ADD PUSH1 0x5 SHR DUP2 ADD PUSH1 0x20 DUP6 LT PUSH2 0x76E JUMPI JUMPDEST PUSH1 0x1F DUP4 ADD PUSH1 0x5 SHR DUP3 ADD DUP2 LT PUSH2 0x762 JUMPI POP POP PUSH2 0x44B JUMP JUMPDEST PUSH1 0x0 DUP2 SSTORE PUSH1 0x1 ADD PUSH2 0x74C JUMP JUMPDEST POP DUP1 PUSH2 0x74C JUMP JUMPDEST ADD MLOAD SWAP1 POP CODESIZE DUP1 PUSH2 0x407 JUMP JUMPDEST SWAP3 POP PUSH1 0x4 DUP6 ADD PUSH1 0x0 MSTORE PUSH1 0x20 PUSH1 0x0 KECCAK256 SWAP1 PUSH1 0x0 SWAP4 JUMPDEST PUSH1 0x1F NOT DUP5 AND DUP6 LT PUSH2 0x7D7 JUMPI PUSH1 0x1 SWAP5 POP DUP4 PUSH1 0x1F NOT DUP2 AND LT PUSH2 0x7BE JUMPI JUMPDEST POP POP POP DUP2 SHL ADD PUSH1 0x4 DUP4 ADD SSTORE PUSH2 0x41F JUMP JUMPDEST ADD MLOAD PUSH1 0x0 NOT PUSH1 0xF8 DUP5 PUSH1 0x3 SHL AND SHR NOT AND SWAP1 SSTORE CODESIZE DUP1 DUP1 PUSH2 0x7AE JUMP JUMPDEST DUP2 DUP2 ADD MLOAD DUP4 SSTORE PUSH1 0x20 SWAP5 DUP6 ADD SWAP5 PUSH1 0x1 SWAP1 SWAP4 ADD SWAP3 SWAP1 SWAP2 ADD SWAP1 PUSH2 0x793 JUMP JUMPDEST SWAP1 SWAP2 POP PUSH1 0x4 DUP6 ADD PUSH1 0x0 MSTORE PUSH1 0x20 PUSH1 0x0 KECCAK256 PUSH1 0x1F DUP5 ADD PUSH1 0x5 SHR DUP2 ADD PUSH1 0x20 DUP6 LT PUSH2 0x83E JUMPI JUMPDEST SWAP1 DUP5 SWAP4 SWAP3 SWAP2 JUMPDEST PUSH1 0x1F DUP4 ADD PUSH1 0x5 SHR DUP3 ADD DUP2 LT PUSH2 0x82F JUMPI POP POP PUSH2 0x3F0 JUMP JUMPDEST PUSH1 0x0 DUP2 SSTORE DUP6 SWAP5 POP PUSH1 0x1 ADD PUSH2 0x819 JUMP JUMPDEST POP DUP1 PUSH2 0x813 JUMP JUMPDEST ADD MLOAD SWAP1 POP CODESIZE DUP1 PUSH2 0x3AA JUMP JUMPDEST SWAP3 POP PUSH1 0x3 DUP6 ADD PUSH1 0x0 MSTORE PUSH1 0x20 PUSH1 0x0 KECCAK256 SWAP1 PUSH1 0x0 SWAP4 JUMPDEST PUSH1 0x1F NOT DUP5 AND DUP6 LT PUSH2 0x8A7 JUMPI PUSH1 0x1 SWAP5 POP DUP4 PUSH1 0x1F NOT DUP2 AND LT PUSH2 0x88E JUMPI JUMPDEST POP POP POP DUP2 SHL ADD PUSH1 0x3 DUP4 ADD SSTORE PUSH2 0x3C2 JUMP JUMPDEST ADD MLOAD PUSH1 0x0 NOT PUSH1 0xF8 DUP5 PUSH1 0x3 SHL AND SHR NOT AND SWAP1 SSTORE CODESIZE DUP1 DUP1 PUSH2 0x87E JUMP JUMPDEST DUP2 DUP2 ADD MLOAD DUP4 SSTORE PUSH1 0x20 SWAP5 DUP6 ADD SWAP5 PUSH1 0x1 SWAP1 SWAP4 ADD SWAP3 SWAP1 SWAP2 ADD SWAP1 PUSH2 0x863 JUMP JUMPDEST SWAP1 SWAP2 POP PUSH1 0x3 DUP6 ADD PUSH1 0x0 MSTORE PUSH1 0x20 PUSH1 0x0 KECCAK256 PUSH1 0x1F DUP5 ADD PUSH1 0x5 SHR DUP2 ADD PUSH1 0x20 DUP6 LT PUSH2 0x90E JUMPI JUMPDEST SWAP1 DUP5 SWAP4 SWAP3 SWAP2 JUMPDEST PUSH1 0x1F DUP4 ADD PUSH1 0x5 SHR DUP3 ADD DUP2 LT PUSH2 0x8FF JUMPI POP POP PUSH2 0x393 JUMP JUMPDEST PUSH1 0x0 DUP2 SSTORE DUP6 SWAP5 POP PUSH1 0x1 ADD PUSH2 0x8E9 JUMP JUMPDEST POP DUP1 PUSH2 0x8E3 JUMP JUMPDEST ADD MLOAD SWAP1 POP CODESIZE DUP1 PUSH2 0x34D JUMP JUMPDEST SWAP3 POP PUSH1 0x2 DUP6 ADD PUSH1 0x0 MSTORE PUSH1 0x20 PUSH1 0x0 KECCAK256 SWAP1 PUSH1 0x0 SWAP4 JUMPDEST PUSH1 0x1F NOT DUP5 AND DUP6 LT PUSH2 0x977 JUMPI PUSH1 0x1 SWAP5 POP DUP4 PUSH1 0x1F NOT DUP2 AND LT PUSH2 0x95E JUMPI JUMPDEST POP POP POP DUP2 SHL ADD PUSH1 0x2 DUP4 ADD SSTORE PUSH2 0x365 JUMP JUMPDEST ADD MLOAD PUSH1 0x0 NOT PUSH1 0xF8 DUP5 PUSH1 0x3 SHL AND SHR NOT AND SWAP1 SSTORE CODESIZE DUP1 DUP1 PUSH2 0x94E JUMP JUMPDEST DUP2 DUP2 ADD MLOAD DUP4 SSTORE PUSH1 0x20 SWAP5 DUP6 ADD SWAP5 PUSH1 0x1 SWAP1 SWAP4 ADD SWAP3 SWAP1 SWAP2 ADD SWAP1 PUSH2 0x933 JUMP JUMPDEST SWAP1 SWAP2 POP PUSH1 0x2 DUP6 ADD PUSH1 0x0 MSTORE PUSH1 0x20 PUSH1 0x0 KECCAK256 PUSH1 0x1F DUP5 ADD PUSH1 0x5 SHR DUP2 ADD PUSH1 0x20 DUP6 LT PUSH2 0x9DE JUMPI JUMPDEST SWAP1 DUP5 SWAP4 SWAP3 SWAP2 JUMPDEST PUSH1 0x1F DUP4 ADD PUSH1 0x5 SHR DUP3 ADD DUP2 LT PUSH2 0x9CF JUMPI POP POP PUSH2 0x336 JUMP JUMPDEST PUSH1 0x0 DUP2 SSTORE DUP6 SWAP5 POP PUSH1 0x1 ADD PUSH2 0x9B9 JUMP JUMPDEST POP DUP1 PUSH2 0x9B3 JUMP JUMPDEST ADD MLOAD SWAP1 POP CODESIZE DUP1 PUSH2 0x2F0 JUMP JUMPDEST SWAP3 POP PUSH1 0x1 DUP6 ADD PUSH1 0x0 MSTORE PUSH1 0x20 PUSH1 0x0 KECCAK256 SWAP1 PUSH1 0x0 SWAP4 JUMPDEST PUSH1 0x1F NOT DUP5 AND DUP6 LT PUSH2 0xA47 JUMPI PUSH1 0x1 SWAP5 POP DUP4 PUSH1 0x1F NOT DUP2 AND LT PUSH2 0xA2E JUMPI JUMPDEST POP POP POP DUP2 SHL ADD PUSH1 0x1 DUP4 ADD SSTORE PUSH2 0x308 JUMP JUMPDEST ADD MLOAD PUSH1 0x0 NOT PUSH1 0xF8 DUP5 PUSH1 0x3 SHL AND SHR NOT AND SWAP1 SSTORE CODESIZE DUP1 DUP1 PUSH2 0xA1E JUMP JUMPDEST DUP2 DUP2 ADD MLOAD DUP4 SSTORE PUSH1 0x20 SWAP5 DUP6 ADD SWAP5 PUSH1 0x1 SWAP1 SWAP4 ADD SWAP3 SWAP1 SWAP2 ADD SWAP1 PUSH2 0xA03 JUMP JUMPDEST SWAP1 SWAP2 POP PUSH1 0x1 DUP6 ADD PUSH1 0x0 MSTORE PUSH1 0x20 PUSH1 0x0 KECCAK256 PUSH1 0x1F DUP5 ADD PUSH1 0x5 SHR DUP2 ADD PUSH1 0x20 DUP6 LT PUSH2 0xAAE JUMPI JUMPDEST SWAP1 DUP5 SWAP4 SWAP3 SWAP2 JUMPDEST PUSH1 0x1F DUP4 ADD PUSH1 0x5 SHR DUP3 ADD DUP2 LT PUSH2 0xA9F JUMPI POP POP PUSH2 0x2D9 JUMP JUMPDEST PUSH1 0x0 DUP2 SSTORE DUP6 SWAP5 POP PUSH1 0x1 ADD PUSH2 0xA89 JUMP JUMPDEST POP DUP1 PUSH2 0xA83 JUMP JUMPDEST ADD MLOAD SWAP1 POP CODESIZE DUP1 PUSH2 0x296 JUMP JUMPDEST SWAP3 POP DUP5 PUSH1 0x0 MSTORE PUSH1 0x20 PUSH1 0x0 KECCAK256 SWAP1 PUSH1 0x0 SWAP4 JUMPDEST PUSH1 0x1F NOT DUP5 AND DUP6 LT PUSH2 0xB11 JUMPI PUSH1 0x1 SWAP5 POP DUP4 PUSH1 0x1F NOT DUP2 AND LT PUSH2 0xAF8 JUMPI JUMPDEST POP POP POP DUP2 SHL ADD DUP3 SSTORE PUSH2 0x2AB JUMP JUMPDEST ADD MLOAD PUSH1 0x0 NOT PUSH1 0xF8 DUP5 PUSH1 0x3 SHL AND SHR NOT AND SWAP1 SSTORE CODESIZE DUP1 DUP1 PUSH2 0xAEB JUMP JUMPDEST DUP2 DUP2 ADD MLOAD DUP4 SSTORE PUSH1 0x20 SWAP5 DUP6 ADD SWAP5 PUSH1 0x1 SWAP1 SWAP4 ADD SWAP3 SWAP1 SWAP2 ADD SWAP1 PUSH2 0xAD0 JUMP JUMPDEST SWAP1 SWAP2 POP DUP5 PUSH1 0x0 MSTORE PUSH1 0x20 PUSH1 0x0 KECCAK256 PUSH1 0x1F DUP5 ADD PUSH1 0x5 SHR DUP2 ADD PUSH1 0x20 DUP6 LT PUSH2 0xB75 JUMPI JUMPDEST SWAP1 DUP5 SWAP4 SWAP3 SWAP2 JUMPDEST PUSH1 0x1F DUP4 ADD PUSH1 0x5 SHR DUP3 ADD DUP2 LT PUSH2 0xB66 JUMPI POP POP PUSH2 0x27F JUMP JUMPDEST PUSH1 0x0 DUP2 SSTORE DUP6 SWAP5 POP PUSH1 0x1 ADD PUSH2 0xB50 JUMP JUMPDEST POP DUP1 PUSH2 0xB4A JUMP JUMPDEST PUSH1 0x40 MLOAD PUSH3 0x461BCD PUSH1 0xE5 SHL DUP2 MSTORE PUSH1 0x20 PUSH1 0x4 DUP3 ADD MSTORE PUSH1 0xB PUSH1 0x24 DUP3 ADD MSTORE PUSH11 0x139BDD081CDD195DD85C99 PUSH1 0xAA SHL PUSH1 0x44 DUP3 ADD MSTORE PUSH1 0x64 SWAP1 REVERT JUMPDEST CALLVALUE PUSH2 0xA3 JUMPI PUSH1 0x20 CALLDATASIZE PUSH1 0x3 NOT ADD SLT PUSH2 0xA3 JUMPI PUSH1 0x1 PUSH1 0x1 PUSH1 0xA0 SHL SUB PUSH2 0xBD0 PUSH2 0xD60 JUMP JUMPDEST AND PUSH1 0x0 MSTORE PUSH1 0x1 PUSH1 0x20 MSTORE PUSH1 0x40 PUSH1 0x0 KECCAK256 PUSH1 0x40 MLOAD PUSH2 0xBEA DUP2 PUSH2 0xDB0 JUMP JUMPDEST PUSH2 0xBF3 DUP3 PUSH2 0xDEC JUMP JUMPDEST DUP2 MSTORE PUSH2 0xC85 PUSH2 0xC04 PUSH1 0x1 DUP5 ADD PUSH2 0xDEC JUMP JUMPDEST SWAP2 PUSH1 0x20 DUP2 ADD SWAP3 DUP4 MSTORE PUSH2 0xC18 PUSH1 0x2 DUP6 ADD PUSH2 0xDEC JUMP JUMPDEST SWAP4 PUSH1 0x40 DUP3 ADD SWAP5 DUP6 MSTORE PUSH2 0xC2C PUSH1 0x3 DUP3 ADD PUSH2 0xDEC JUMP JUMPDEST SWAP1 PUSH1 0x60 DUP4 ADD SWAP2 DUP3 MSTORE PUSH2 0xC40 PUSH1 0x4 DUP3 ADD PUSH2 0xDEC JUMP JUMPDEST PUSH1 0x80 DUP5 ADD SWAP1 DUP2 MSTORE PUSH2 0xC66 PUSH1 0x6 PUSH2 0xC58 PUSH1 0x5 DUP6 ADD PUSH2 0xDEC JUMP JUMPDEST SWAP4 PUSH1 0xA0 DUP8 ADD SWAP5 DUP6 MSTORE ADD PUSH2 0xDEC JUMP JUMPDEST SWAP4 DUP5 PUSH1 0xC0 DUP3 ADD MSTORE MLOAD SWAP6 MLOAD SWAP7 MLOAD SWAP3 MLOAD SWAP1 MLOAD SWAP2 MLOAD SWAP3 PUSH1 0x40 MLOAD SWAP8 DUP9 SWAP8 DUP9 PUSH2 0xED2 JUMP JUMPDEST SUB SWAP1 RETURN JUMPDEST CALLVALUE PUSH2 0xA3 JUMPI PUSH1 0x0 CALLDATASIZE PUSH1 0x3 NOT ADD SLT PUSH2 0xA3 JUMPI PUSH1 0x0 SLOAD PUSH1 0x40 MLOAD PUSH1 0x1 PUSH1 0x1 PUSH1 0xA0 SHL SUB SWAP1 SWAP2 AND DUP2 MSTORE PUSH1 0x20 SWAP1 RETURN JUMPDEST CALLVALUE PUSH2 0xA3 JUMPI PUSH1 0x20 CALLDATASIZE PUSH1 0x3 NOT ADD SLT PUSH2 0xA3 JUMPI PUSH1 0x1 PUSH1 0x1 PUSH1 0xA0 SHL SUB PUSH2 0xCD3 PUSH2 0xD60 JUMP JUMPDEST AND PUSH1 0x0 MSTORE PUSH1 0x1 PUSH1 0x20 MSTORE PUSH1 0x40 PUSH1 0x0 KECCAK256 PUSH2 0xCEA DUP2 PUSH2 0xDEC JUMP JUMPDEST PUSH2 0xC85 PUSH2 0xCF9 PUSH1 0x1 DUP5 ADD PUSH2 0xDEC JUMP JUMPDEST SWAP3 PUSH2 0xD06 PUSH1 0x2 DUP3 ADD PUSH2 0xDEC JUMP JUMPDEST SWAP1 PUSH2 0xD13 PUSH1 0x3 DUP3 ADD PUSH2 0xDEC JUMP JUMPDEST PUSH2 0xD1F PUSH1 0x4 DUP4 ADD PUSH2 0xDEC JUMP JUMPDEST SWAP1 PUSH2 0xD38 PUSH1 0x6 PUSH2 0xD31 PUSH1 0x5 DUP7 ADD PUSH2 0xDEC JUMP JUMPDEST SWAP5 ADD PUSH2 0xDEC JUMP JUMPDEST SWAP4 PUSH1 0x40 MLOAD SWAP8 DUP9 SWAP8 DUP9 PUSH2 0xED2 JUMP JUMPDEST CALLVALUE PUSH2 0xA3 JUMPI PUSH1 0x0 CALLDATASIZE PUSH1 0x3 NOT ADD SLT PUSH2 0xA3 JUMPI PUSH1 0x20 SWAP1 PUSH1 0x2 SLOAD DUP2 MSTORE RETURN JUMPDEST PUSH1 0x4 CALLDATALOAD SWAP1 PUSH1 0x1 PUSH1 0x1 PUSH1 0xA0 SHL SUB DUP3 AND DUP3 SUB PUSH2 0xA3 JUMPI JUMP JUMPDEST SWAP1 PUSH1 0x1 DUP3 DUP2 SHR SWAP3 AND DUP1 ISZERO PUSH2 0xDA6 JUMPI JUMPDEST PUSH1 0x20 DUP4 LT EQ PUSH2 0xD90 JUMPI JUMP JUMPDEST PUSH4 0x4E487B71 PUSH1 0xE0 SHL PUSH1 0x0 MSTORE PUSH1 0x22 PUSH1 0x4 MSTORE PUSH1 0x24 PUSH1 0x0 REVERT JUMPDEST SWAP2 PUSH1 0x7F AND SWAP2 PUSH2 0xD85 JUMP JUMPDEST PUSH1 0xE0 DUP2 ADD SWAP1 DUP2 LT PUSH1 0x1 PUSH1 0x1 PUSH1 0x40 SHL SUB DUP3 GT OR PUSH2 0x5DA JUMPI PUSH1 0x40 MSTORE JUMP JUMPDEST SWAP1 PUSH1 0x1F DUP1 NOT SWAP2 ADD AND DUP2 ADD SWAP1 DUP2 LT PUSH1 0x1 PUSH1 0x1 PUSH1 0x40 SHL SUB DUP3 GT OR PUSH2 0x5DA JUMPI PUSH1 0x40 MSTORE JUMP JUMPDEST SWAP1 PUSH1 0x40 MLOAD SWAP2 DUP3 PUSH1 0x0 DUP3 SLOAD SWAP3 PUSH2 0xE00 DUP5 PUSH2 0xD76 JUMP JUMPDEST SWAP1 DUP2 DUP5 MSTORE PUSH1 0x1 SWAP5 DUP6 DUP2 AND SWAP1 DUP2 PUSH1 0x0 EQ PUSH2 0xE6F JUMPI POP PUSH1 0x1 EQ PUSH2 0xE2C JUMPI JUMPDEST POP POP PUSH2 0xE2A SWAP3 POP SUB DUP4 PUSH2 0xDCB JUMP JUMPDEST JUMP JUMPDEST SWAP1 SWAP4 SWAP2 POP PUSH1 0x0 MSTORE PUSH1 0x20 SWAP1 DUP2 PUSH1 0x0 KECCAK256 SWAP4 PUSH1 0x0 SWAP2 JUMPDEST DUP2 DUP4 LT PUSH2 0xE57 JUMPI POP POP PUSH2 0xE2A SWAP4 POP DUP3 ADD ADD CODESIZE DUP1 PUSH2 0xE1C JUMP JUMPDEST DUP6 SLOAD DUP9 DUP5 ADD DUP6 ADD MSTORE SWAP5 DUP6 ADD SWAP5 DUP8 SWAP5 POP SWAP2 DUP4 ADD SWAP2 PUSH2 0xE3F JUMP JUMPDEST SWAP2 POP POP PUSH2 0xE2A SWAP5 POP PUSH1 0x20 SWAP3 POP PUSH1 0xFF NOT AND DUP3 DUP5 ADD MSTORE ISZERO ISZERO PUSH1 0x5 SHL DUP3 ADD ADD CODESIZE DUP1 PUSH2 0xE1C JUMP JUMPDEST SWAP2 SWAP1 DUP3 MLOAD SWAP3 DUP4 DUP3 MSTORE PUSH1 0x0 JUMPDEST DUP5 DUP2 LT PUSH2 0xEBE JUMPI POP POP DUP3 PUSH1 0x0 PUSH1 0x20 DUP1 SWAP5 SWAP6 DUP5 ADD ADD MSTORE PUSH1 0x1F DUP1 NOT SWAP2 ADD AND ADD ADD SWAP1 JUMP JUMPDEST PUSH1 0x20 DUP2 DUP4 ADD DUP2 ADD MLOAD DUP5 DUP4 ADD DUP3 ADD MSTORE ADD PUSH2 0xE9D JUMP JUMPDEST SWAP6 SWAP3 PUSH2 0xF42 SWAP5 PUSH2 0xF18 PUSH2 0xF26 SWAP3 PUSH2 0xF0A PUSH2 0xF34 SWAP7 PUSH2 0xEFC PUSH2 0xF50 SWAP14 SWAP12 SWAP8 PUSH1 0xE0 DUP15 DUP2 DUP2 MSTORE ADD SWAP1 PUSH2 0xE92 JUMP JUMPDEST DUP13 DUP2 SUB PUSH1 0x20 DUP15 ADD MSTORE SWAP1 PUSH2 0xE92 JUMP JUMPDEST SWAP1 DUP11 DUP3 SUB PUSH1 0x40 DUP13 ADD MSTORE PUSH2 0xE92 JUMP JUMPDEST SWAP1 DUP9 DUP3 SUB PUSH1 0x60 DUP11 ADD MSTORE PUSH2 0xE92 JUMP JUMPDEST SWAP1 DUP7 DUP3 SUB PUSH1 0x80 DUP9 ADD MSTORE PUSH2 0xE92 JUMP JUMPDEST SWAP1 DUP5 DUP3 SUB PUSH1 0xA0 DUP7 ADD MSTORE PUSH2 0xE92 JUMP JUMPDEST SWAP2 PUSH1 0xC0 DUP2 DUP5 SUB SWAP2 ADD MSTORE PUSH2 0xE92 JUMP JUMPDEST SWAP1 JUMP JUMPDEST SWAP2 DUP2 PUSH1 0x1F DUP5 ADD SLT ISZERO PUSH2 0xA3 JUMPI DUP3 CALLDATALOAD SWAP2 PUSH1 0x1 PUSH1 0x1 PUSH1 0x40 SHL SUB DUP4 GT PUSH2 0xA3 JUMPI PUSH1 0x20 DUP4 DUP2 DUP7 ADD SWAP6 ADD ADD GT PUSH2 0xA3 JUMPI JUMP JUMPDEST PUSH1 0x2 SLOAD DUP2 LT ISZERO PUSH2 0xFB7 JUMPI PUSH1 0x2 PUSH1 0x0 MSTORE PUSH32 0x405787FA12A823E0F2B7631CC41B3BA8828B3321CA811111FA75CD3AA3BB5ACE ADD SWAP1 PUSH1 0x0 SWAP1 JUMP JUMPDEST PUSH4 0x4E487B71 PUSH1 0xE0 SHL PUSH1 0x0 MSTORE PUSH1 0x32 PUSH1 0x4 MSTORE PUSH1 0x24 PUSH1 0x0 REVERT JUMPDEST SWAP3 SWAP2 SWAP3 PUSH1 0x1 PUSH1 0x1 PUSH1 0x40 SHL SUB DUP3 GT PUSH2 0x5DA JUMPI PUSH1 0x40 MLOAD SWAP2 PUSH2 0xFF6 PUSH1 0x1F DUP3 ADD PUSH1 0x1F NOT AND PUSH1 0x20 ADD DUP5 PUSH2 0xDCB JUMP JUMPDEST DUP3 SWAP5 DUP2 DUP5 MSTORE DUP2 DUP4 ADD GT PUSH2 0xA3 JUMPI DUP3 DUP2 PUSH1 0x20 SWAP4 DUP5 PUSH1 0x0 SWAP7 ADD CALLDATACOPY ADD ADD MSTORE JUMP JUMPDEST SWAP1 DUP1 PUSH1 0x20 SWAP4 SWAP3 DUP2 DUP5 MSTORE DUP5 DUP5 ADD CALLDATACOPY PUSH1 0x0 DUP3 DUP3 ADD DUP5 ADD MSTORE PUSH1 0x1F ADD PUSH1 0x1F NOT AND ADD ADD SWAP1 JUMP INVALID LOG2 PUSH5 0x6970667358 0x22 SLT KECCAK256 0xC PUSH1 0x78 PUSH6 0x5E056A52E19E MSTORE ORIGIN 0x4F 0xD2 INVALID 0xD9 EXTCODESIZE PC BLOCKHASH DUP10 0xE6 CALLVALUE MULMOD PUSH0 0xEF ADD 0xA7 0xAA STOP PUSH14 0xE80F64736F6C6343000814003300 "},"methodIdentifiers":{"apprentices(uint256)":"f31bee3e","getSummons(address)":"cf84c603","steward()":"637eea19","summonApprentice(address,string,string,string,string,string,string,string)":"eb5f0903","summons(address)":"5a2ed662","totalSummons()":"2a17d4cd"}}}}}