{"contracts/registry/ApprenticeSummonerXVIII.sol":{"ApprenticeSummonerXVIII":{"abi":[{"inputs":[],"stateMutability":"nonpayable","type":"constructor"},{"anonymous":false,"inputs":[{"indexed":true,"internalType":"address","name":"apprentice","type":"address"},{"indexed":false,"internalType":"string","name":"name","type":"string"},{"indexed":false,"internalType":"string","name":"signal","type":"string"},{"indexed":false,"internalType":"string","name":"drift","type":"string"},{"indexed":false,"internalType":"string","name":"pulse","type":"string"},{"indexed":false,"internalType":"string","name":"codexRef","type":"string"},{"indexed":false,"internalType":"string","name":"resonance","type":"string"},{"indexed":false,"internalType":"string","name":"signature","type":"string"},{"indexed":false,"internalType":"string","name":"sanctum","type":"string"},{"indexed":false,"internalType":"string","name":"chant","type":"string"},{"indexed":false,"internalType":"string","name":"choreography","type":"string"},{"indexed":false,"internalType":"string","name":"stewardName","type":"string"},{"indexed":false,"internalType":"string","name":"echo","type":"string"},{"indexed":false,"internalType":"string","name":"choreographyType","type":"string"},{"indexed":false,"internalType":"string","name":"signalType","type":"string"},{"indexed":false,"internalType":"string","name":"stewardSignal","type":"string"}],"name":"ApprenticeSummoned","type":"event"},{"inputs":[{"internalType":"uint256","name":"","type":"uint256"}],"name":"apprentices","outputs":[{"internalType":"address","name":"","type":"address"}],"stateMutability":"view","type":"function"},{"inputs":[{"internalType":"address","name":"apprentice","type":"address"}],"name":"getSummons","outputs":[{"components":[{"internalType":"string","name":"name","type":"string"},{"internalType":"string","name":"signal","type":"string"},{"internalType":"string","name":"drift","type":"string"},{"internalType":"string","name":"pulse","type":"string"},{"internalType":"string","name":"codexRef","type":"string"},{"internalType":"string","name":"resonance","type":"string"},{"internalType":"string","name":"signature","type":"string"},{"internalType":"string","name":"sanctum","type":"string"},{"internalType":"string","name":"chant","type":"string"},{"internalType":"string","name":"choreography","type":"string"},{"internalType":"string","name":"stewardName","type":"string"},{"internalType":"string","name":"echo","type":"string"},{"internalType":"string","name":"choreographyType","type":"string"},{"internalType":"string","name":"signalType","type":"string"},{"internalType":"string","name":"stewardSignal","type":"string"}],"internalType":"struct ApprenticeSummonerXVIII.Summons","name":"","type":"tuple"}],"stateMutability":"view","type":"function"},{"inputs":[],"name":"steward","outputs":[{"internalType":"address","name":"","type":"address"}],"stateMutability":"view","type":"function"},{"inputs":[{"internalType":"address","name":"apprentice","type":"address"},{"internalType":"string","name":"name","type":"string"},{"internalType":"string","name":"signal","type":"string"},{"internalType":"string","name":"drift","type":"string"},{"internalType":"string","name":"pulse","type":"string"},{"internalType":"string","name":"codexRef","type":"string"},{"internalType":"string","name":"resonance","type":"string"},{"internalType":"string","name":"signature","type":"string"},{"internalType":"string","name":"sanctum","type":"string"},{"internalType":"string","name":"chant","type":"string"},{"internalType":"string","name":"choreography","type":"string"},{"internalType":"string","name":"stewardName","type":"string"},{"internalType":"string","name":"echo","type":"string"},{"internalType":"string","name":"choreographyType","type":"string"},{"internalType":"string","name":"signalType","type":"string"},{"internalType":"string","name":"stewardSignal","type":"string"}],"name":"summonApprentice","outputs":[],"stateMutability":"nonpayable","type":"function"},{"inputs":[{"internalType":"address","name":"","type":"address"}],"name":"summons","outputs":[{"internalType":"string","name":"name","type":"string"},{"internalType":"string","name":"signal","type":"string"},{"internalType":"string","name":"drift","type":"string"},{"internalType":"string","name":"pulse","type":"string"},{"internalType":"string","name":"codexRef","type":"string"},{"internalType":"string","name":"resonance","type":"string"},{"internalType":"string","name":"signature","type":"string"},{"internalType":"string","name":"sanctum","type":"string"},{"internalType":"string","name":"chant","type":"string"},{"internalType":"string","name":"choreography","type":"string"},{"internalType":"string","name":"stewardName","type":"string"},{"internalType":"string","name":"echo","type":"string"},{"internalType":"string","name":"choreographyType","type":"string"},{"internalType":"string","name":"signalType","type":"string"},{"internalType":"string","name":"stewardSignal","type":"string"}],"stateMutability":"view","type":"function"},{"inputs":[],"name":"totalSummons","outputs":[{"internalType":"uint256","name":"","type":"uint256"}],"stateMutability":"view","type":"function"}],"evm":{"bytecode":{"linkReferences":{},"object":"6080806040523461002857600080546001600160a01b031916331790556120d8908161002e8239f35b600080fdfe6104a080604052600436101561001457600080fd5b60003560e01c9081632a17d4cd14611e33575080635a2ed66214611c3a578063637eea1914611c11578063745ff840146103e1578063cf84c603146100a95763f31bee3e1461006257600080fd5b346100a45760203660031901126100a4576004356002548110156100a45761008b602091611fee565b905460405160039290921b1c6001600160a01b03168152f35b600080fd5b346100a45760203660031901126100a4576100c2611e4e565b60606101c06040516100d381611e9e565b82815282602082015282604082015282808201528260808201528260a08201528260c08201528260e08201528261010082015282610120820152826101408201528261016082015282610180820152826101a0820152015260018060a01b031660005260016020526102f56040600020610249600e6040519261015584611e9e565b61015e81611edb565b845261016c60018201611edb565b602085015261017d60028201611edb565b604085015261018e60038201611edb565b606085015261019f60048201611edb565b60808501526101b060058201611edb565b60a08501526101c160068201611edb565b60c08501526101d260078201611edb565b60e08501526101e360088201611edb565b6101008501526101f560098201611edb565b610120850152610207600a8201611edb565b610140850152610219600b8201611edb565b61016085015261022b600c8201611edb565b61018085015261023d600d8201611edb565b6101a085015201611edb565b6101c08201526103dd816101c06103c86103b261039a61038261036a61035261033a61032361030d6040519d8e9d8e6020815260806102e06102cb6102b561029f86516101e06020880152610200870190611f81565b6020870151868203601f19016040880152611f81565b6040860151858203601f19016060870152611f81565b6060850151848203601f190184860152611f81565b9201519060a0601f1982850301910152611f81565b8d60a08d01519060c0601f1982850301910152611f81565b60c08b01518d8203601f190160e08f0152611f81565b60e08a01518c8203601f19016101008e0152611f81565b6101008901518b8203601f19016101208d0152611f81565b6101208801518a8203601f19016101408c0152611f81565b610140870151898203601f19016101608b0152611f81565b610160860151888203601f19016101808a0152611f81565b610180850151878203601f19016101a0890152611f81565b6101a0840151868203601f190184880152611f81565b910151838203601f19016101e0850152611f81565b0390f35b346100a4576102003660031901126100a4576103fb611e4e565b610140526024356001600160401b0381116100a45761041e903690600401611fc1565b60a052610200526044356001600160401b0381116100a457610444903690600401611fc1565b610340526103a0526064356001600160401b0381116100a45761046b903690600401611fc1565b6102805260e0526084356001600160401b0381116100a457610491903690600401611fc1565b610160526104405260a4356001600160401b0381116100a4576104b8903690600401611fc1565b61048052610220526001600160401b0360c435116100a4576104df3660c435600401611fc1565b610120526101c0526001600160401b0360e435116100a4576105063660e435600401611fc1565b610180526103c0526001600160401b0361010435116100a45761052f3661010435600401611fc1565b6102c0526102e0526001600160401b0361012435116100a4576105583661012435600401611fc1565b608052610380526001600160401b0361014435116100a4576105803661014435600401611fc1565b61036052610300526001600160401b0361016435116100a4576105a93661016435600401611fc1565b61026052610100526001600160401b0361018435116100a4576105d23661018435600401611fc1565b6102a0526101a0526001600160401b036101a435116100a4576105fb366101a435600401611fc1565b60c052610400526001600160401b036101c435116100a457610623366101c435600401611fc1565b610460526101e0526001600160401b036101e435116100a45761064c366101e435600401611fc1565b61024052610420526000546001600160a01b03163303611bde576106766040518061032052611e9e565b6106863660a0516102005161203b565b610320515261069c36610340516103a05161203b565b60206103205101526106b4366102805160e05161203b565b60406103205101526106cd36610160516104405161203b565b60606103205101526106e636610480516102205161203b565b60806103205101526106ff36610120516101c05161203b565b60a061032051015261071836610180516103c05161203b565b60c0610320510152610731366102c0516102e05161203b565b60e0610320510152610749366080516103805161203b565b61010061032051015261076336610360516103005161203b565b61012061032051015261077d36610260516101005161203b565b610140610320510152610797366102a0516101a05161203b565b6101606103205101526107b03660c0516104005161203b565b6101806103205101526107ca36610460516101e05161203b565b6101a06103205101526107e436610240516104205161203b565b6101c061032051015260018060a01b0361014051166000526001602052604060002061032051519081516001600160401b038111610fd7576108268254611e64565b601f8111611b9a575b506020601f8211600114611b3557819293600092611b2a575b50508160011b916000199060031b1c19161781555b60206103205101518051906001600160401b038211610fd75781906108856001850154611e64565b601f8111611ad7575b50602090601f8311600114611a6557600092611a5a575b50508160011b916000199060031b1c19161760018201555b60406103205101519081516001600160401b038111610fd7576108e36002830154611e64565b601f8111611a13575b506020601f82116001146119a85781929360009261199d575b50508160011b916000199060031b1c19161760028201555b60606103205101518051906001600160401b038211610fd75781906109456003850154611e64565b601f811161194a575b50602090601f83116001146118d8576000926118cd575b50508160011b916000199060031b1c19161760038201555b60806103205101518051906001600160401b038211610fd75781906109a56004850154611e64565b601f811161187a575b50602090601f8311600114611808576000926117fd575b50508160011b916000199060031b1c19161760048201555b60a06103205101518051906001600160401b038211610fd7578190610a056005850154611e64565b601f81116117aa575b50602090601f83116001146117385760009261172d575b50508160011b916000199060031b1c19161760058201555b60c06103205101518051906001600160401b038211610fd7578190610a656006850154611e64565b601f81116116da575b50602090601f83116001146116685760009261165d575b50508160011b916000199060031b1c19161760068201555b60e06103205101518051906001600160401b038211610fd7578190610ac56007850154611e64565b601f811161160a575b50602090601f83116001146115985760009261158d575b50508160011b916000199060031b1c19161760078201555b6101006103205101518051906001600160401b038211610fd7578190610b266008850154611e64565b601f811161153a575b50602090601f83116001146114c8576000926114bd575b50508160011b916000199060031b1c19161760088201555b6101206103205101518051906001600160401b038211610fd7578190610b876009850154611e64565b601f811161146a575b50602090601f83116001146113f8576000926113ed575b50508160011b916000199060031b1c19161760098201555b6101406103205101518051906001600160401b038211610fd7578190610be8600a850154611e64565b601f811161139a575b50602090601f83116001146113285760009261131d575b50508160011b916000199060031b1c191617600a8201555b6101606103205101518051906001600160401b038211610fd7578190610c49600b850154611e64565b601f81116112ca575b50602090601f83116001146112585760009261124d575b50508160011b916000199060031b1c191617600b8201555b6101806103205101518051906001600160401b038211610fd7578190610caa600c850154611e64565b601f81116111fa575b50602090601f83116001146111885760009261117d575b50508160011b916000199060031b1c191617600c8201555b6101a06103205101518051906001600160401b038211610fd7578190610d0b600d850154611e64565b601f811161112a575b50602090601f83116001146110b8576000926110ad575b50508160011b916000199060031b1c191617600d8201555b6101c06103205101518051906001600160401b038211610fd757610d6a600e840154611e64565b601f8111611066575b50602090601f8311600114610ff857600e929160009183610fed575b50508160011b916000199060031b1c1916179101555b60025468010000000000000000811015610fd757806001610dc99201600255611fee565b81549060031b9060018060a01b036101405116821b9160018060a01b03901b19161790556101e0604051806103e05252610f7f610f65610f4c610f32610f18610efe610ee5610ecc610eb3610e9a610e81610e68610e50610e376101e06103e0510160a05161020051612081565b6103e0516020818303910152610340516103a051612081565b6103e05160408183039101526102805160e051612081565b6103e05160608183039101526101605161044051612081565b6103e05160808183039101526104805161022051612081565b6103e05160a0818303910152610120516101c051612081565b6103e05160c0818303910152610180516103c051612081565b6103e05160e08183039101526102c0516102e051612081565b6103e05161010081830391015260805161038051612081565b6103e0516101208183039101526103605161030051612081565b6103e0516101408183039101526102605161010051612081565b6103e0516101608183039101526102a0516101a051612081565b6103e05161018081830391015260c05161040051612081565b6103e0516101a0818303910152610460516101e051612081565b6103e0516101c08183039101527f3287e78ece9fb279a346f796022c145352828976b64140e7ae43a9f7182c535e60018060a01b03610140511691610fcf6103e051916102405161042051612081565b036103e051a2005b634e487b7160e01b600052604160045260246000fd5b015190508480610d8f565b90600e84016000526020600020916000601f198516905b81811061104e5750916001939185600e969410611035575b505050811b01910155610da5565b015160001960f88460031b161c19169055848080611027565b9293602060018192878601518155019501930161100f565b600e84016000526020600020601f840160051c8101602085106110a6575b601f830160051c8201811061109a575050610d73565b60008155600101611084565b5080611084565b015190508380610d2b565b9250600d84016000526020600020906000935b601f198416851061110f576001945083601f198116106110f6575b505050811b01600d820155610d43565b015160001960f88460031b161c191690558380806110e6565b818101518355602094850194600190930192909101906110cb565b909150600d84016000526020600020601f840160051c810160208510611176575b90849392915b601f830160051c82018110611167575050610d14565b60008155859450600101611151565b508061114b565b015190508380610cca565b9250600c84016000526020600020906000935b601f19841685106111df576001945083601f198116106111c6575b505050811b01600c820155610ce2565b015160001960f88460031b161c191690558380806111b6565b8181015183556020948501946001909301929091019061119b565b909150600c84016000526020600020601f840160051c810160208510611246575b90849392915b601f830160051c82018110611237575050610cb3565b60008155859450600101611221565b508061121b565b015190508380610c69565b9250600b84016000526020600020906000935b601f19841685106112af576001945083601f19811610611296575b505050811b01600b820155610c81565b015160001960f88460031b161c19169055838080611286565b8181015183556020948501946001909301929091019061126b565b909150600b84016000526020600020601f840160051c810160208510611316575b90849392915b601f830160051c82018110611307575050610c52565b600081558594506001016112f1565b50806112eb565b015190508380610c08565b9250600a84016000526020600020906000935b601f198416851061137f576001945083601f19811610611366575b505050811b01600a820155610c20565b015160001960f88460031b161c19169055838080611356565b8181015183556020948501946001909301929091019061133b565b909150600a84016000526020600020601f840160051c8101602085106113e6575b90849392915b601f830160051c820181106113d7575050610bf1565b600081558594506001016113c1565b50806113bb565b015190508380610ba7565b9250600984016000526020600020906000935b601f198416851061144f576001945083601f19811610611436575b505050811b016009820155610bbf565b015160001960f88460031b161c19169055838080611426565b8181015183556020948501946001909301929091019061140b565b909150600984016000526020600020601f840160051c8101602085106114b6575b90849392915b601f830160051c820181106114a7575050610b90565b60008155859450600101611491565b508061148b565b015190508380610b46565b9250600884016000526020600020906000935b601f198416851061151f576001945083601f19811610611506575b505050811b016008820155610b5e565b015160001960f88460031b161c191690558380806114f6565b818101518355602094850194600190930192909101906114db565b909150600884016000526020600020601f840160051c810160208510611586575b90849392915b601f830160051c82018110611577575050610b2f565b60008155859450600101611561565b508061155b565b015190508380610ae5565b9250600784016000526020600020906000935b601f19841685106115ef576001945083601f198116106115d6575b505050811b016007820155610afd565b015160001960f88460031b161c191690558380806115c6565b818101518355602094850194600190930192909101906115ab565b909150600784016000526020600020601f840160051c810160208510611656575b90849392915b601f830160051c82018110611647575050610ace565b60008155859450600101611631565b508061162b565b015190508380610a85565b9250600684016000526020600020906000935b601f19841685106116bf576001945083601f198116106116a6575b505050811b016006820155610a9d565b015160001960f88460031b161c19169055838080611696565b8181015183556020948501946001909301929091019061167b565b909150600684016000526020600020601f840160051c810160208510611726575b90849392915b601f830160051c82018110611717575050610a6e565b60008155859450600101611701565b50806116fb565b015190508380610a25565b9250600584016000526020600020906000935b601f198416851061178f576001945083601f19811610611776575b505050811b016005820155610a3d565b015160001960f88460031b161c19169055838080611766565b8181015183556020948501946001909301929091019061174b565b909150600584016000526020600020601f840160051c8101602085106117f6575b90849392915b601f830160051c820181106117e7575050610a0e565b600081558594506001016117d1565b50806117cb565b0151905083806109c5565b9250600484016000526020600020906000935b601f198416851061185f576001945083601f19811610611846575b505050811b0160048201556109dd565b015160001960f88460031b161c19169055838080611836565b8181015183556020948501946001909301929091019061181b565b909150600484016000526020600020601f840160051c8101602085106118c6575b90849392915b601f830160051c820181106118b75750506109ae565b600081558594506001016118a1565b508061189b565b015190508380610965565b9250600384016000526020600020906000935b601f198416851061192f576001945083601f19811610611916575b505050811b01600382015561097d565b015160001960f88460031b161c19169055838080611906565b818101518355602094850194600190930192909101906118eb565b909150600384016000526020600020601f840160051c810160208510611996575b90849392915b601f830160051c8201811061198757505061094e565b60008155859450600101611971565b508061196b565b015190508380610905565b60028301600052602060002090600094601f198416955b8681106119fb57508360019596106119e2575b505050811b01600282015561091d565b015160001960f88460031b161c191690558380806119d2565b919260206001819286850151815501940192016119bf565b600283016000526020600020601f830160051c810160208410611a53575b601f830160051c82018110611a475750506108ec565b60008155600101611a31565b5080611a31565b0151905083806108a5565b9250600184016000526020600020906000935b601f1984168510611abc576001945083601f19811610611aa3575b505050811b0160018201556108bd565b015160001960f88460031b161c19169055838080611a93565b81810151835560209485019460019093019290910190611a78565b909150600184016000526020600020601f840160051c810160208510611b23575b90849392915b601f830160051c82018110611b1457505061088e565b60008155859450600101611afe565b5080611af8565b015190508380610848565b82600052602060002090600094601f198416955b868110611b825750836001959610611b69575b505050811b01815561085d565b015160001960f88460031b161c19169055838080611b5c565b91926020600181928685015181550194019201611b49565b826000526020600020601f830160051c810160208410611bd7575b601f830160051c82018110611bcb57505061082f565b60008155600101611bb5565b5080611bb5565b60405162461bcd60e51b815260206004820152600b60248201526a139bdd081cdd195dd85c9960aa1b6044820152606490fd5b346100a45760003660031901126100a4576000546040516001600160a01b039091168152602090f35b346100a45760203660031901126100a4576001600160a01b03611c5b611e4e565b1660005260016020526040600020611c7281611edb565b90611c7f60018201611edb565b90611c8c60028201611edb565b90611c9960038201611edb565b611ca560048301611edb565b611cb160058401611edb565b611cbd60068501611edb565b611cc960078601611edb565b611cd560088701611edb565b90611ce260098801611edb565b92611cef600a8901611edb565b94611cfc600b8a01611edb565b96611d09600c8b01611edb565b98611d16600d8c01611edb565b9a600e01611d2390611edb565b9b6040519e8f9e8f916101e08084528301611d3d91611f81565b8281036020840152611d4e91611f81565b908082039060400152611d6091611f81565b8d810360608f0152611d7191611f81565b8c810360808e0152611d8291611f81565b8b810360a08d0152611d9391611f81565b8a810360c08c0152611da491611f81565b89810360e08b0152611db591611f81565b8881036101008a0152611dc791611f81565b878103610120890152611dd991611f81565b868103610140880152611deb91611f81565b858103610160870152611dfd91611f81565b848103610180860152611e0f91611f81565b8381036101a0850152611e2191611f81565b8281036101c08401526103dd91611f81565b346100a45760003660031901126100a4576020906002548152f35b600435906001600160a01b03821682036100a457565b90600182811c92168015611e94575b6020831014611e7e57565b634e487b7160e01b600052602260045260246000fd5b91607f1691611e73565b6101e081019081106001600160401b03821117610fd757604052565b90601f801991011681019081106001600160401b03821117610fd757604052565b9060405191826000825492611eef84611e64565b908184526001948581169081600014611f5e5750600114611f1b575b5050611f1992500383611eba565b565b9093915060005260209081600020936000915b818310611f46575050611f1993508201013880611f0b565b85548884018501529485019487945091830191611f2e565b915050611f1994506020925060ff191682840152151560051b8201013880611f0b565b919082519283825260005b848110611fad575050826000602080949584010152601f8019910116010190565b602081830181015184830182015201611f8c565b9181601f840112156100a4578235916001600160401b0383116100a457602083818601950101116100a457565b6002548110156120255760026000527f405787fa12a823e0f2b7631cc41b3ba8828b3321ca811111fa75cd3aa3bb5ace0190600090565b634e487b7160e01b600052603260045260246000fd5b9291926001600160401b038211610fd75760405191612064601f8201601f191660200184611eba565b8294818452818301116100a4578281602093846000960137010152565b908060209392818452848401376000828201840152601f01601f191601019056fea26469706673582212201102ff80109f7859bcfea6e39cd74c185e082c68460b6aa24615e61784ecd97364736f6c63430008140033","opcodes":"PUSH1 0x80 DUP1 PUSH1 0x40 MSTORE CALLVALUE PUSH2 0x28 JUMPI PUSH1 0x0 DUP1 SLOAD PUSH1 0x1 PUSH1 0x1 PUSH1 0xA0 SHL SUB NOT AND CALLER OR SWAP1 SSTORE PUSH2 0x20D8 SWAP1 DUP2 PUSH2 0x2E DUP3 CODECOPY RETURN JUMPDEST PUSH1 0x0 DUP1 REVERT INVALID PUSH2 0x4A0 DUP1 PUSH1 0x40 MSTORE PUSH1 0x4 CALLDATASIZE LT ISZERO PUSH2 0x14 JUMPI PUSH1 0x0 DUP1 REVERT JUMPDEST PUSH1 0x0 CALLDATALOAD PUSH1 0xE0 SHR SWAP1 DUP2 PUSH4 0x2A17D4CD EQ PUSH2 0x1E33 JUMPI POP DUP1 PUSH4 0x5A2ED662 EQ PUSH2 0x1C3A JUMPI DUP1 PUSH4 0x637EEA19 EQ PUSH2 0x1C11 JUMPI DUP1 PUSH4 0x745FF840 EQ PUSH2 0x3E1 JUMPI DUP1 PUSH4 0xCF84C603 EQ PUSH2 0xA9 JUMPI PUSH4 0xF31BEE3E EQ PUSH2 0x62 JUMPI PUSH1 0x0 DUP1 REVERT JUMPDEST CALLVALUE PUSH2 0xA4 JUMPI PUSH1 0x20 CALLDATASIZE PUSH1 0x3 NOT ADD SLT PUSH2 0xA4 JUMPI PUSH1 0x4 CALLDATALOAD PUSH1 0x2 SLOAD DUP2 LT ISZERO PUSH2 0xA4 JUMPI PUSH2 0x8B PUSH1 0x20 SWAP2 PUSH2 0x1FEE JUMP JUMPDEST SWAP1 SLOAD PUSH1 0x40 MLOAD PUSH1 0x3 SWAP3 SWAP1 SWAP3 SHL SHR PUSH1 0x1 PUSH1 0x1 PUSH1 0xA0 SHL SUB AND DUP2 MSTORE RETURN JUMPDEST PUSH1 0x0 DUP1 REVERT JUMPDEST CALLVALUE PUSH2 0xA4 JUMPI PUSH1 0x20 CALLDATASIZE PUSH1 0x3 NOT ADD SLT PUSH2 0xA4 JUMPI PUSH2 0xC2 PUSH2 0x1E4E JUMP JUMPDEST PUSH1 0x60 PUSH2 0x1C0 PUSH1 0x40 MLOAD PUSH2 0xD3 DUP2 PUSH2 0x1E9E JUMP JUMPDEST DUP3 DUP2 MSTORE DUP3 PUSH1 0x20 DUP3 ADD MSTORE DUP3 PUSH1 0x40 DUP3 ADD MSTORE DUP3 DUP1 DUP3 ADD MSTORE DUP3 PUSH1 0x80 DUP3 ADD MSTORE DUP3 PUSH1 0xA0 DUP3 ADD MSTORE DUP3 PUSH1 0xC0 DUP3 ADD MSTORE DUP3 PUSH1 0xE0 DUP3 ADD MSTORE DUP3 PUSH2 0x100 DUP3 ADD MSTORE DUP3 PUSH2 0x120 DUP3 ADD MSTORE DUP3 PUSH2 0x140 DUP3 ADD MSTORE DUP3 PUSH2 0x160 DUP3 ADD MSTORE DUP3 PUSH2 0x180 DUP3 ADD MSTORE DUP3 PUSH2 0x1A0 DUP3 ADD MSTORE ADD MSTORE PUSH1 0x1 DUP1 PUSH1 0xA0 SHL SUB AND PUSH1 0x0 MSTORE PUSH1 0x1 PUSH1 0x20 MSTORE PUSH2 0x2F5 PUSH1 0x40 PUSH1 0x0 KECCAK256 PUSH2 0x249 PUSH1 0xE PUSH1 0x40 MLOAD SWAP3 PUSH2 0x155 DUP5 PUSH2 0x1E9E JUMP JUMPDEST PUSH2 0x15E DUP2 PUSH2 0x1EDB JUMP JUMPDEST DUP5 MSTORE PUSH2 0x16C PUSH1 0x1 DUP3 ADD PUSH2 0x1EDB JUMP JUMPDEST PUSH1 0x20 DUP6 ADD MSTORE PUSH2 0x17D PUSH1 0x2 DUP3 ADD PUSH2 0x1EDB JUMP JUMPDEST PUSH1 0x40 DUP6 ADD MSTORE PUSH2 0x18E PUSH1 0x3 DUP3 ADD PUSH2 0x1EDB JUMP JUMPDEST PUSH1 0x60 DUP6 ADD MSTORE PUSH2 0x19F PUSH1 0x4 DUP3 ADD PUSH2 0x1EDB JUMP JUMPDEST PUSH1 0x80 DUP6 ADD MSTORE PUSH2 0x1B0 PUSH1 0x5 DUP3 ADD PUSH2 0x1EDB JUMP JUMPDEST PUSH1 0xA0 DUP6 ADD MSTORE PUSH2 0x1C1 PUSH1 0x6 DUP3 ADD PUSH2 0x1EDB JUMP JUMPDEST PUSH1 0xC0 DUP6 ADD MSTORE PUSH2 0x1D2 PUSH1 0x7 DUP3 ADD PUSH2 0x1EDB JUMP JUMPDEST PUSH1 0xE0 DUP6 ADD MSTORE PUSH2 0x1E3 PUSH1 0x8 DUP3 ADD PUSH2 0x1EDB JUMP JUMPDEST PUSH2 0x100 DUP6 ADD MSTORE PUSH2 0x1F5 PUSH1 0x9 DUP3 ADD PUSH2 0x1EDB JUMP JUMPDEST PUSH2 0x120 DUP6 ADD MSTORE PUSH2 0x207 PUSH1 0xA DUP3 ADD PUSH2 0x1EDB JUMP JUMPDEST PUSH2 0x140 DUP6 ADD MSTORE PUSH2 0x219 PUSH1 0xB DUP3 ADD PUSH2 0x1EDB JUMP JUMPDEST PUSH2 0x160 DUP6 ADD MSTORE PUSH2 0x22B PUSH1 0xC DUP3 ADD PUSH2 0x1EDB JUMP JUMPDEST PUSH2 0x180 DUP6 ADD MSTORE PUSH2 0x23D PUSH1 0xD DUP3 ADD PUSH2 0x1EDB JUMP JUMPDEST PUSH2 0x1A0 DUP6 ADD MSTORE ADD PUSH2 0x1EDB JUMP JUMPDEST PUSH2 0x1C0 DUP3 ADD MSTORE PUSH2 0x3DD DUP2 PUSH2 0x1C0 PUSH2 0x3C8 PUSH2 0x3B2 PUSH2 0x39A PUSH2 0x382 PUSH2 0x36A PUSH2 0x352 PUSH2 0x33A PUSH2 0x323 PUSH2 0x30D PUSH1 0x40 MLOAD SWAP14 DUP15 SWAP14 DUP15 PUSH1 0x20 DUP2 MSTORE PUSH1 0x80 PUSH2 0x2E0 PUSH2 0x2CB PUSH2 0x2B5 PUSH2 0x29F DUP7 MLOAD PUSH2 0x1E0 PUSH1 0x20 DUP9 ADD MSTORE PUSH2 0x200 DUP8 ADD SWAP1 PUSH2 0x1F81 JUMP JUMPDEST PUSH1 0x20 DUP8 ADD MLOAD DUP7 DUP3 SUB PUSH1 0x1F NOT ADD PUSH1 0x40 DUP9 ADD MSTORE PUSH2 0x1F81 JUMP JUMPDEST PUSH1 0x40 DUP7 ADD MLOAD DUP6 DUP3 SUB PUSH1 0x1F NOT ADD PUSH1 0x60 DUP8 ADD MSTORE PUSH2 0x1F81 JUMP JUMPDEST PUSH1 0x60 DUP6 ADD MLOAD DUP5 DUP3 SUB PUSH1 0x1F NOT ADD DUP5 DUP7 ADD MSTORE PUSH2 0x1F81 JUMP JUMPDEST SWAP3 ADD MLOAD SWAP1 PUSH1 0xA0 PUSH1 0x1F NOT DUP3 DUP6 SUB ADD SWAP2 ADD MSTORE PUSH2 0x1F81 JUMP JUMPDEST DUP14 PUSH1 0xA0 DUP14 ADD MLOAD SWAP1 PUSH1 0xC0 PUSH1 0x1F NOT DUP3 DUP6 SUB ADD SWAP2 ADD MSTORE PUSH2 0x1F81 JUMP JUMPDEST PUSH1 0xC0 DUP12 ADD MLOAD DUP14 DUP3 SUB PUSH1 0x1F NOT ADD PUSH1 0xE0 DUP16 ADD MSTORE PUSH2 0x1F81 JUMP JUMPDEST PUSH1 0xE0 DUP11 ADD MLOAD DUP13 DUP3 SUB PUSH1 0x1F NOT ADD PUSH2 0x100 DUP15 ADD MSTORE PUSH2 0x1F81 JUMP JUMPDEST PUSH2 0x100 DUP10 ADD MLOAD DUP12 DUP3 SUB PUSH1 0x1F NOT ADD PUSH2 0x120 DUP14 ADD MSTORE PUSH2 0x1F81 JUMP JUMPDEST PUSH2 0x120 DUP9 ADD MLOAD DUP11 DUP3 SUB PUSH1 0x1F NOT ADD PUSH2 0x140 DUP13 ADD MSTORE PUSH2 0x1F81 JUMP JUMPDEST PUSH2 0x140 DUP8 ADD MLOAD DUP10 DUP3 SUB PUSH1 0x1F NOT ADD PUSH2 0x160 DUP12 ADD MSTORE PUSH2 0x1F81 JUMP JUMPDEST PUSH2 0x160 DUP7 ADD MLOAD DUP9 DUP3 SUB PUSH1 0x1F NOT ADD PUSH2 0x180 DUP11 ADD MSTORE PUSH2 0x1F81 JUMP JUMPDEST PUSH2 0x180 DUP6 ADD MLOAD DUP8 DUP3 SUB PUSH1 0x1F NOT ADD PUSH2 0x1A0 DUP10 ADD MSTORE PUSH2 0x1F81 JUMP JUMPDEST PUSH2 0x1A0 DUP5 ADD MLOAD DUP7 DUP3 SUB PUSH1 0x1F NOT ADD DUP5 DUP9 ADD MSTORE PUSH2 0x1F81 JUMP JUMPDEST SWAP2 ADD MLOAD DUP4 DUP3 SUB PUSH1 0x1F NOT ADD PUSH2 0x1E0 DUP6 ADD MSTORE PUSH2 0x1F81 JUMP JUMPDEST SUB SWAP1 RETURN JUMPDEST CALLVALUE PUSH2 0xA4 JUMPI PUSH2 0x200 CALLDATASIZE PUSH1 0x3 NOT ADD SLT PUSH2 0xA4 JUMPI PUSH2 0x3FB PUSH2 0x1E4E JUMP JUMPDEST PUSH2 0x140 MSTORE PUSH1 0x24 CALLDATALOAD PUSH1 0x1 PUSH1 0x1 PUSH1 0x40 SHL SUB DUP2 GT PUSH2 0xA4 JUMPI PUSH2 0x41E SWAP1 CALLDATASIZE SWAP1 PUSH1 0x4 ADD PUSH2 0x1FC1 JUMP JUMPDEST PUSH1 0xA0 MSTORE PUSH2 0x200 MSTORE PUSH1 0x44 CALLDATALOAD PUSH1 0x1 PUSH1 0x1 PUSH1 0x40 SHL SUB DUP2 GT PUSH2 0xA4 JUMPI PUSH2 0x444 SWAP1 CALLDATASIZE SWAP1 PUSH1 0x4 ADD PUSH2 0x1FC1 JUMP JUMPDEST PUSH2 0x340 MSTORE PUSH2 0x3A0 MSTORE PUSH1 0x64 CALLDATALOAD PUSH1 0x1 PUSH1 0x1 PUSH1 0x40 SHL SUB DUP2 GT PUSH2 0xA4 JUMPI PUSH2 0x46B SWAP1 CALLDATASIZE SWAP1 PUSH1 0x4 ADD PUSH2 0x1FC1 JUMP JUMPDEST PUSH2 0x280 MSTORE PUSH1 0xE0 MSTORE PUSH1 0x84 CALLDATALOAD PUSH1 0x1 PUSH1 0x1 PUSH1 0x40 SHL SUB DUP2 GT PUSH2 0xA4 JUMPI PUSH2 0x491 SWAP1 CALLDATASIZE SWAP1 PUSH1 0x4 ADD PUSH2 0x1FC1 JUMP JUMPDEST PUSH2 0x160 MSTORE PUSH2 0x440 MSTORE PUSH1 0xA4 CALLDATALOAD PUSH1 0x1 PUSH1 0x1 PUSH1 0x40 SHL SUB DUP2 GT PUSH2 0xA4 JUMPI PUSH2 0x4B8 SWAP1 CALLDATASIZE SWAP1 PUSH1 0x4 ADD PUSH2 0x1FC1 JUMP JUMPDEST PUSH2 0x480 MSTORE PUSH2 0x220 MSTORE PUSH1 0x1 PUSH1 0x1 PUSH1 0x40 SHL SUB PUSH1 0xC4 CALLDATALOAD GT PUSH2 0xA4 JUMPI PUSH2 0x4DF CALLDATASIZE PUSH1 0xC4 CALLDATALOAD PUSH1 0x4 ADD PUSH2 0x1FC1 JUMP JUMPDEST PUSH2 0x120 MSTORE PUSH2 0x1C0 MSTORE PUSH1 0x1 PUSH1 0x1 PUSH1 0x40 SHL SUB PUSH1 0xE4 CALLDATALOAD GT PUSH2 0xA4 JUMPI PUSH2 0x506 CALLDATASIZE PUSH1 0xE4 CALLDATALOAD PUSH1 0x4 ADD PUSH2 0x1FC1 JUMP JUMPDEST PUSH2 0x180 MSTORE PUSH2 0x3C0 MSTORE PUSH1 0x1 PUSH1 0x1 PUSH1 0x40 SHL SUB PUSH2 0x104 CALLDATALOAD GT PUSH2 0xA4 JUMPI PUSH2 0x52F CALLDATASIZE PUSH2 0x104 CALLDATALOAD PUSH1 0x4 ADD PUSH2 0x1FC1 JUMP JUMPDEST PUSH2 0x2C0 MSTORE PUSH2 0x2E0 MSTORE PUSH1 0x1 PUSH1 0x1 PUSH1 0x40 SHL SUB PUSH2 0x124 CALLDATALOAD GT PUSH2 0xA4 JUMPI PUSH2 0x558 CALLDATASIZE PUSH2 0x124 CALLDATALOAD PUSH1 0x4 ADD PUSH2 0x1FC1 JUMP JUMPDEST PUSH1 0x80 MSTORE PUSH2 0x380 MSTORE PUSH1 0x1 PUSH1 0x1 PUSH1 0x40 SHL SUB PUSH2 0x144 CALLDATALOAD GT PUSH2 0xA4 JUMPI PUSH2 0x580 CALLDATASIZE PUSH2 0x144 CALLDATALOAD PUSH1 0x4 ADD PUSH2 0x1FC1 JUMP JUMPDEST PUSH2 0x360 MSTORE PUSH2 0x300 MSTORE PUSH1 0x1 PUSH1 0x1 PUSH1 0x40 SHL SUB PUSH2 0x164 CALLDATALOAD GT PUSH2 0xA4 JUMPI PUSH2 0x5A9 CALLDATASIZE PUSH2 0x164 CALLDATALOAD PUSH1 0x4 ADD PUSH2 0x1FC1 JUMP JUMPDEST PUSH2 0x260 MSTORE PUSH2 0x100 MSTORE PUSH1 0x1 PUSH1 0x1 PUSH1 0x40 SHL SUB PUSH2 0x184 CALLDATALOAD GT PUSH2 0xA4 JUMPI PUSH2 0x5D2 CALLDATASIZE PUSH2 0x184 CALLDATALOAD PUSH1 0x4 ADD PUSH2 0x1FC1 JUMP JUMPDEST PUSH2 0x2A0 MSTORE PUSH2 0x1A0 MSTORE PUSH1 0x1 PUSH1 0x1 PUSH1 0x40 SHL SUB PUSH2 0x1A4 CALLDATALOAD GT PUSH2 0xA4 JUMPI PUSH2 0x5FB CALLDATASIZE PUSH2 0x1A4 CALLDATALOAD PUSH1 0x4 ADD PUSH2 0x1FC1 JUMP JUMPDEST PUSH1 0xC0 MSTORE PUSH2 0x400 MSTORE PUSH1 0x1 PUSH1 0x1 PUSH1 0x40 SHL SUB PUSH2 0x1C4 CALLDATALOAD GT PUSH2 0xA4 JUMPI PUSH2 0x623 CALLDATASIZE PUSH2 0x1C4 CALLDATALOAD PUSH1 0x4 ADD PUSH2 0x1FC1 JUMP JUMPDEST PUSH2 0x460 MSTORE PUSH2 0x1E0 MSTORE PUSH1 0x1 PUSH1 0x1 PUSH1 0x40 SHL SUB PUSH2 0x1E4 CALLDATALOAD GT PUSH2 0xA4 JUMPI PUSH2 0x64C CALLDATASIZE PUSH2 0x1E4 CALLDATALOAD PUSH1 0x4 ADD PUSH2 0x1FC1 JUMP JUMPDEST PUSH2 0x240 MSTORE PUSH2 0x420 MSTORE PUSH1 0x0 SLOAD PUSH1 0x1 PUSH1 0x1 PUSH1 0xA0 SHL SUB AND CALLER SUB PUSH2 0x1BDE JUMPI PUSH2 0x676 PUSH1 0x40 MLOAD DUP1 PUSH2 0x320 MSTORE PUSH2 0x1E9E JUMP JUMPDEST PUSH2 0x686 CALLDATASIZE PUSH1 0xA0 MLOAD PUSH2 0x200 MLOAD PUSH2 0x203B JUMP JUMPDEST PUSH2 0x320 MLOAD MSTORE PUSH2 0x69C CALLDATASIZE PUSH2 0x340 MLOAD PUSH2 0x3A0 MLOAD PUSH2 0x203B JUMP JUMPDEST PUSH1 0x20 PUSH2 0x320 MLOAD ADD MSTORE PUSH2 0x6B4 CALLDATASIZE PUSH2 0x280 MLOAD PUSH1 0xE0 MLOAD PUSH2 0x203B JUMP JUMPDEST PUSH1 0x40 PUSH2 0x320 MLOAD ADD MSTORE PUSH2 0x6CD CALLDATASIZE PUSH2 0x160 MLOAD PUSH2 0x440 MLOAD PUSH2 0x203B JUMP JUMPDEST PUSH1 0x60 PUSH2 0x320 MLOAD ADD MSTORE PUSH2 0x6E6 CALLDATASIZE PUSH2 0x480 MLOAD PUSH2 0x220 MLOAD PUSH2 0x203B JUMP JUMPDEST PUSH1 0x80 PUSH2 0x320 MLOAD ADD MSTORE PUSH2 0x6FF CALLDATASIZE PUSH2 0x120 MLOAD PUSH2 0x1C0 MLOAD PUSH2 0x203B JUMP JUMPDEST PUSH1 0xA0 PUSH2 0x320 MLOAD ADD MSTORE PUSH2 0x718 CALLDATASIZE PUSH2 0x180 MLOAD PUSH2 0x3C0 MLOAD PUSH2 0x203B JUMP JUMPDEST PUSH1 0xC0 PUSH2 0x320 MLOAD ADD MSTORE PUSH2 0x731 CALLDATASIZE PUSH2 0x2C0 MLOAD PUSH2 0x2E0 MLOAD PUSH2 0x203B JUMP JUMPDEST PUSH1 0xE0 PUSH2 0x320 MLOAD ADD MSTORE PUSH2 0x749 CALLDATASIZE PUSH1 0x80 MLOAD PUSH2 0x380 MLOAD PUSH2 0x203B JUMP JUMPDEST PUSH2 0x100 PUSH2 0x320 MLOAD ADD MSTORE PUSH2 0x763 CALLDATASIZE PUSH2 0x360 MLOAD PUSH2 0x300 MLOAD PUSH2 0x203B JUMP JUMPDEST PUSH2 0x120 PUSH2 0x320 MLOAD ADD MSTORE PUSH2 0x77D CALLDATASIZE PUSH2 0x260 MLOAD PUSH2 0x100 MLOAD PUSH2 0x203B JUMP JUMPDEST PUSH2 0x140 PUSH2 0x320 MLOAD ADD MSTORE PUSH2 0x797 CALLDATASIZE PUSH2 0x2A0 MLOAD PUSH2 0x1A0 MLOAD PUSH2 0x203B JUMP JUMPDEST PUSH2 0x160 PUSH2 0x320 MLOAD ADD MSTORE PUSH2 0x7B0 CALLDATASIZE PUSH1 0xC0 MLOAD PUSH2 0x400 MLOAD PUSH2 0x203B JUMP JUMPDEST PUSH2 0x180 PUSH2 0x320 MLOAD ADD MSTORE PUSH2 0x7CA CALLDATASIZE PUSH2 0x460 MLOAD PUSH2 0x1E0 MLOAD PUSH2 0x203B JUMP JUMPDEST PUSH2 0x1A0 PUSH2 0x320 MLOAD ADD MSTORE PUSH2 0x7E4 CALLDATASIZE PUSH2 0x240 MLOAD PUSH2 0x420 MLOAD PUSH2 0x203B JUMP JUMPDEST PUSH2 0x1C0 PUSH2 0x320 MLOAD ADD MSTORE PUSH1 0x1 DUP1 PUSH1 0xA0 SHL SUB PUSH2 0x140 MLOAD AND PUSH1 0x0 MSTORE PUSH1 0x1 PUSH1 0x20 MSTORE PUSH1 0x40 PUSH1 0x0 KECCAK256 PUSH2 0x320 MLOAD MLOAD SWAP1 DUP2 MLOAD PUSH1 0x1 PUSH1 0x1 PUSH1 0x40 SHL SUB DUP2 GT PUSH2 0xFD7 JUMPI PUSH2 0x826 DUP3 SLOAD PUSH2 0x1E64 JUMP JUMPDEST PUSH1 0x1F DUP2 GT PUSH2 0x1B9A JUMPI JUMPDEST POP PUSH1 0x20 PUSH1 0x1F DUP3 GT PUSH1 0x1 EQ PUSH2 0x1B35 JUMPI DUP2 SWAP3 SWAP4 PUSH1 0x0 SWAP3 PUSH2 0x1B2A JUMPI JUMPDEST POP POP DUP2 PUSH1 0x1 SHL SWAP2 PUSH1 0x0 NOT SWAP1 PUSH1 0x3 SHL SHR NOT AND OR DUP2 SSTORE JUMPDEST PUSH1 0x20 PUSH2 0x320 MLOAD ADD MLOAD DUP1 MLOAD SWAP1 PUSH1 0x1 PUSH1 0x1 PUSH1 0x40 SHL SUB DUP3 GT PUSH2 0xFD7 JUMPI DUP2 SWAP1 PUSH2 0x885 PUSH1 0x1 DUP6 ADD SLOAD PUSH2 0x1E64 JUMP JUMPDEST PUSH1 0x1F DUP2 GT PUSH2 0x1AD7 JUMPI JUMPDEST POP PUSH1 0x20 SWAP1 PUSH1 0x1F DUP4 GT PUSH1 0x1 EQ PUSH2 0x1A65 JUMPI PUSH1 0x0 SWAP3 PUSH2 0x1A5A JUMPI JUMPDEST POP POP DUP2 PUSH1 0x1 SHL SWAP2 PUSH1 0x0 NOT SWAP1 PUSH1 0x3 SHL SHR NOT AND OR PUSH1 0x1 DUP3 ADD SSTORE JUMPDEST PUSH1 0x40 PUSH2 0x320 MLOAD ADD MLOAD SWAP1 DUP2 MLOAD PUSH1 0x1 PUSH1 0x1 PUSH1 0x40 SHL SUB DUP2 GT PUSH2 0xFD7 JUMPI PUSH2 0x8E3 PUSH1 0x2 DUP4 ADD SLOAD PUSH2 0x1E64 JUMP JUMPDEST PUSH1 0x1F DUP2 GT PUSH2 0x1A13 JUMPI JUMPDEST POP PUSH1 0x20 PUSH1 0x1F DUP3 GT PUSH1 0x1 EQ PUSH2 0x19A8 JUMPI DUP2 SWAP3 SWAP4 PUSH1 0x0 SWAP3 PUSH2 0x199D JUMPI JUMPDEST POP POP DUP2 PUSH1 0x1 SHL SWAP2 PUSH1 0x0 NOT SWAP1 PUSH1 0x3 SHL SHR NOT AND OR PUSH1 0x2 DUP3 ADD SSTORE JUMPDEST PUSH1 0x60 PUSH2 0x320 MLOAD ADD MLOAD DUP1 MLOAD SWAP1 PUSH1 0x1 PUSH1 0x1 PUSH1 0x40 SHL SUB DUP3 GT PUSH2 0xFD7 JUMPI DUP2 SWAP1 PUSH2 0x945 PUSH1 0x3 DUP6 ADD SLOAD PUSH2 0x1E64 JUMP JUMPDEST PUSH1 0x1F DUP2 GT PUSH2 0x194A JUMPI JUMPDEST POP PUSH1 0x20 SWAP1 PUSH1 0x1F DUP4 GT PUSH1 0x1 EQ PUSH2 0x18D8 JUMPI PUSH1 0x0 SWAP3 PUSH2 0x18CD JUMPI JUMPDEST POP POP DUP2 PUSH1 0x1 SHL SWAP2 PUSH1 0x0 NOT SWAP1 PUSH1 0x3 SHL SHR NOT AND OR PUSH1 0x3 DUP3 ADD SSTORE JUMPDEST PUSH1 0x80 PUSH2 0x320 MLOAD ADD MLOAD DUP1 MLOAD SWAP1 PUSH1 0x1 PUSH1 0x1 PUSH1 0x40 SHL SUB DUP3 GT PUSH2 0xFD7 JUMPI DUP2 SWAP1 PUSH2 0x9A5 PUSH1 0x4 DUP6 ADD SLOAD PUSH2 0x1E64 JUMP JUMPDEST PUSH1 0x1F DUP2 GT PUSH2 0x187A JUMPI JUMPDEST POP PUSH1 0x20 SWAP1 PUSH1 0x1F DUP4 GT PUSH1 0x1 EQ PUSH2 0x1808 JUMPI PUSH1 0x0 SWAP3 PUSH2 0x17FD JUMPI JUMPDEST POP POP DUP2 PUSH1 0x1 SHL SWAP2 PUSH1 0x0 NOT SWAP1 PUSH1 0x3 SHL SHR NOT AND OR PUSH1 0x4 DUP3 ADD SSTORE JUMPDEST PUSH1 0xA0 PUSH2 0x320 MLOAD ADD MLOAD DUP1 MLOAD SWAP1 PUSH1 0x1 PUSH1 0x1 PUSH1 0x40 SHL SUB DUP3 GT PUSH2 0xFD7 JUMPI DUP2 SWAP1 PUSH2 0xA05 PUSH1 0x5 DUP6 ADD SLOAD PUSH2 0x1E64 JUMP JUMPDEST PUSH1 0x1F DUP2 GT PUSH2 0x17AA JUMPI JUMPDEST POP PUSH1 0x20 SWAP1 PUSH1 0x1F DUP4 GT PUSH1 0x1 EQ PUSH2 0x1738 JUMPI PUSH1 0x0 SWAP3 PUSH2 0x172D JUMPI JUMPDEST POP POP DUP2 PUSH1 0x1 SHL SWAP2 PUSH1 0x0 NOT SWAP1 PUSH1 0x3 SHL SHR NOT AND OR PUSH1 0x5 DUP3 ADD SSTORE JUMPDEST PUSH1 0xC0 PUSH2 0x320 MLOAD ADD MLOAD DUP1 MLOAD SWAP1 PUSH1 0x1 PUSH1 0x1 PUSH1 0x40 SHL SUB DUP3 GT PUSH2 0xFD7 JUMPI DUP2 SWAP1 PUSH2 0xA65 PUSH1 0x6 DUP6 ADD SLOAD PUSH2 0x1E64 JUMP JUMPDEST PUSH1 0x1F DUP2 GT PUSH2 0x16DA JUMPI JUMPDEST POP PUSH1 0x20 SWAP1 PUSH1 0x1F DUP4 GT PUSH1 0x1 EQ PUSH2 0x1668 JUMPI PUSH1 0x0 SWAP3 PUSH2 0x165D JUMPI JUMPDEST POP POP DUP2 PUSH1 0x1 SHL SWAP2 PUSH1 0x0 NOT SWAP1 PUSH1 0x3 SHL SHR NOT AND OR PUSH1 0x6 DUP3 ADD SSTORE JUMPDEST PUSH1 0xE0 PUSH2 0x320 MLOAD ADD MLOAD DUP1 MLOAD SWAP1 PUSH1 0x1 PUSH1 0x1 PUSH1 0x40 SHL SUB DUP3 GT PUSH2 0xFD7 JUMPI DUP2 SWAP1 PUSH2 0xAC5 PUSH1 0x7 DUP6 ADD SLOAD PUSH2 0x1E64 JUMP JUMPDEST PUSH1 0x1F DUP2 GT PUSH2 0x160A JUMPI JUMPDEST POP PUSH1 0x20 SWAP1 PUSH1 0x1F DUP4 GT PUSH1 0x1 EQ PUSH2 0x1598 JUMPI PUSH1 0x0 SWAP3 PUSH2 0x158D JUMPI JUMPDEST POP POP DUP2 PUSH1 0x1 SHL SWAP2 PUSH1 0x0 NOT SWAP1 PUSH1 0x3 SHL SHR NOT AND OR PUSH1 0x7 DUP3 ADD SSTORE JUMPDEST PUSH2 0x100 PUSH2 0x320 MLOAD ADD MLOAD DUP1 MLOAD SWAP1 PUSH1 0x1 PUSH1 0x1 PUSH1 0x40 SHL SUB DUP3 GT PUSH2 0xFD7 JUMPI DUP2 SWAP1 PUSH2 0xB26 PUSH1 0x8 DUP6 ADD SLOAD PUSH2 0x1E64 JUMP JUMPDEST PUSH1 0x1F DUP2 GT PUSH2 0x153A JUMPI JUMPDEST POP PUSH1 0x20 SWAP1 PUSH1 0x1F DUP4 GT PUSH1 0x1 EQ PUSH2 0x14C8 JUMPI PUSH1 0x0 SWAP3 PUSH2 0x14BD JUMPI JUMPDEST POP POP DUP2 PUSH1 0x1 SHL SWAP2 PUSH1 0x0 NOT SWAP1 PUSH1 0x3 SHL SHR NOT AND OR PUSH1 0x8 DUP3 ADD SSTORE JUMPDEST PUSH2 0x120 PUSH2 0x320 MLOAD ADD MLOAD DUP1 MLOAD SWAP1 PUSH1 0x1 PUSH1 0x1 PUSH1 0x40 SHL SUB DUP3 GT PUSH2 0xFD7 JUMPI DUP2 SWAP1 PUSH2 0xB87 PUSH1 0x9 DUP6 ADD SLOAD PUSH2 0x1E64 JUMP JUMPDEST PUSH1 0x1F DUP2 GT PUSH2 0x146A JUMPI JUMPDEST POP PUSH1 0x20 SWAP1 PUSH1 0x1F DUP4 GT PUSH1 0x1 EQ PUSH2 0x13F8 JUMPI PUSH1 0x0 SWAP3 PUSH2 0x13ED JUMPI JUMPDEST POP POP DUP2 PUSH1 0x1 SHL SWAP2 PUSH1 0x0 NOT SWAP1 PUSH1 0x3 SHL SHR NOT AND OR PUSH1 0x9 DUP3 ADD SSTORE JUMPDEST PUSH2 0x140 PUSH2 0x320 MLOAD ADD MLOAD DUP1 MLOAD SWAP1 PUSH1 0x1 PUSH1 0x1 PUSH1 0x40 SHL SUB DUP3 GT PUSH2 0xFD7 JUMPI DUP2 SWAP1 PUSH2 0xBE8 PUSH1 0xA DUP6 ADD SLOAD PUSH2 0x1E64 JUMP JUMPDEST PUSH1 0x1F DUP2 GT PUSH2 0x139A JUMPI JUMPDEST POP PUSH1 0x20 SWAP1 PUSH1 0x1F DUP4 GT PUSH1 0x1 EQ PUSH2 0x1328 JUMPI PUSH1 0x0 SWAP3 PUSH2 0x131D JUMPI JUMPDEST POP POP DUP2 PUSH1 0x1 SHL SWAP2 PUSH1 0x0 NOT SWAP1 PUSH1 0x3 SHL SHR NOT AND OR PUSH1 0xA DUP3 ADD SSTORE JUMPDEST PUSH2 0x160 PUSH2 0x320 MLOAD ADD MLOAD DUP1 MLOAD SWAP1 PUSH1 0x1 PUSH1 0x1 PUSH1 0x40 SHL SUB DUP3 GT PUSH2 0xFD7 JUMPI DUP2 SWAP1 PUSH2 0xC49 PUSH1 0xB DUP6 ADD SLOAD PUSH2 0x1E64 JUMP JUMPDEST PUSH1 0x1F DUP2 GT PUSH2 0x12CA JUMPI JUMPDEST POP PUSH1 0x20 SWAP1 PUSH1 0x1F DUP4 GT PUSH1 0x1 EQ PUSH2 0x1258 JUMPI PUSH1 0x0 SWAP3 PUSH2 0x124D JUMPI JUMPDEST POP POP DUP2 PUSH1 0x1 SHL SWAP2 PUSH1 0x0 NOT SWAP1 PUSH1 0x3 SHL SHR NOT AND OR PUSH1 0xB DUP3 ADD SSTORE JUMPDEST PUSH2 0x180 PUSH2 0x320 MLOAD ADD MLOAD DUP1 MLOAD SWAP1 PUSH1 0x1 PUSH1 0x1 PUSH1 0x40 SHL SUB DUP3 GT PUSH2 0xFD7 JUMPI DUP2 SWAP1 PUSH2 0xCAA PUSH1 0xC DUP6 ADD SLOAD PUSH2 0x1E64 JUMP JUMPDEST PUSH1 0x1F DUP2 GT PUSH2 0x11FA JUMPI JUMPDEST POP PUSH1 0x20 SWAP1 PUSH1 0x1F DUP4 GT PUSH1 0x1 EQ PUSH2 0x1188 JUMPI PUSH1 0x0 SWAP3 PUSH2 0x117D JUMPI JUMPDEST POP POP DUP2 PUSH1 0x1 SHL SWAP2 PUSH1 0x0 NOT SWAP1 PUSH1 0x3 SHL SHR NOT AND OR PUSH1 0xC DUP3 ADD SSTORE JUMPDEST PUSH2 0x1A0 PUSH2 0x320 MLOAD ADD MLOAD DUP1 MLOAD SWAP1 PUSH1 0x1 PUSH1 0x1 PUSH1 0x40 SHL SUB DUP3 GT PUSH2 0xFD7 JUMPI DUP2 SWAP1 PUSH2 0xD0B PUSH1 0xD DUP6 ADD SLOAD PUSH2 0x1E64 JUMP JUMPDEST PUSH1 0x1F DUP2 GT PUSH2 0x112A JUMPI JUMPDEST POP PUSH1 0x20 SWAP1 PUSH1 0x1F DUP4 GT PUSH1 0x1 EQ PUSH2 0x10B8 JUMPI PUSH1 0x0 SWAP3 PUSH2 0x10AD JUMPI JUMPDEST POP POP DUP2 PUSH1 0x1 SHL SWAP2 PUSH1 0x0 NOT SWAP1 PUSH1 0x3 SHL SHR NOT AND OR PUSH1 0xD DUP3 ADD SSTORE JUMPDEST PUSH2 0x1C0 PUSH2 0x320 MLOAD ADD MLOAD DUP1 MLOAD SWAP1 PUSH1 0x1 PUSH1 0x1 PUSH1 0x40 SHL SUB DUP3 GT PUSH2 0xFD7 JUMPI PUSH2 0xD6A PUSH1 0xE DUP5 ADD SLOAD PUSH2 0x1E64 JUMP JUMPDEST PUSH1 0x1F DUP2 GT PUSH2 0x1066 JUMPI JUMPDEST POP PUSH1 0x20 SWAP1 PUSH1 0x1F DUP4 GT PUSH1 0x1 EQ PUSH2 0xFF8 JUMPI PUSH1 0xE SWAP3 SWAP2 PUSH1 0x0 SWAP2 DUP4 PUSH2 0xFED JUMPI JUMPDEST POP POP DUP2 PUSH1 0x1 SHL SWAP2 PUSH1 0x0 NOT SWAP1 PUSH1 0x3 SHL SHR NOT AND OR SWAP2 ADD SSTORE JUMPDEST PUSH1 0x2 SLOAD PUSH9 0x10000000000000000 DUP2 LT ISZERO PUSH2 0xFD7 JUMPI DUP1 PUSH1 0x1 PUSH2 0xDC9 SWAP3 ADD PUSH1 0x2 SSTORE PUSH2 0x1FEE JUMP JUMPDEST DUP2 SLOAD SWAP1 PUSH1 0x3 SHL SWAP1 PUSH1 0x1 DUP1 PUSH1 0xA0 SHL SUB PUSH2 0x140 MLOAD AND DUP3 SHL SWAP2 PUSH1 0x1 DUP1 PUSH1 0xA0 SHL SUB SWAP1 SHL NOT AND OR SWAP1 SSTORE PUSH2 0x1E0 PUSH1 0x40 MLOAD DUP1 PUSH2 0x3E0 MSTORE MSTORE PUSH2 0xF7F PUSH2 0xF65 PUSH2 0xF4C PUSH2 0xF32 PUSH2 0xF18 PUSH2 0xEFE PUSH2 0xEE5 PUSH2 0xECC PUSH2 0xEB3 PUSH2 0xE9A PUSH2 0xE81 PUSH2 0xE68 PUSH2 0xE50 PUSH2 0xE37 PUSH2 0x1E0 PUSH2 0x3E0 MLOAD ADD PUSH1 0xA0 MLOAD PUSH2 0x200 MLOAD PUSH2 0x2081 JUMP JUMPDEST PUSH2 0x3E0 MLOAD PUSH1 0x20 DUP2 DUP4 SUB SWAP2 ADD MSTORE PUSH2 0x340 MLOAD PUSH2 0x3A0 MLOAD PUSH2 0x2081 JUMP JUMPDEST PUSH2 0x3E0 MLOAD PUSH1 0x40 DUP2 DUP4 SUB SWAP2 ADD MSTORE PUSH2 0x280 MLOAD PUSH1 0xE0 MLOAD PUSH2 0x2081 JUMP JUMPDEST PUSH2 0x3E0 MLOAD PUSH1 0x60 DUP2 DUP4 SUB SWAP2 ADD MSTORE PUSH2 0x160 MLOAD PUSH2 0x440 MLOAD PUSH2 0x2081 JUMP JUMPDEST PUSH2 0x3E0 MLOAD PUSH1 0x80 DUP2 DUP4 SUB SWAP2 ADD MSTORE PUSH2 0x480 MLOAD PUSH2 0x220 MLOAD PUSH2 0x2081 JUMP JUMPDEST PUSH2 0x3E0 MLOAD PUSH1 0xA0 DUP2 DUP4 SUB SWAP2 ADD MSTORE PUSH2 0x120 MLOAD PUSH2 0x1C0 MLOAD PUSH2 0x2081 JUMP JUMPDEST PUSH2 0x3E0 MLOAD PUSH1 0xC0 DUP2 DUP4 SUB SWAP2 ADD MSTORE PUSH2 0x180 MLOAD PUSH2 0x3C0 MLOAD PUSH2 0x2081 JUMP JUMPDEST PUSH2 0x3E0 MLOAD PUSH1 0xE0 DUP2 DUP4 SUB SWAP2 ADD MSTORE PUSH2 0x2C0 MLOAD PUSH2 0x2E0 MLOAD PUSH2 0x2081 JUMP JUMPDEST PUSH2 0x3E0 MLOAD PUSH2 0x100 DUP2 DUP4 SUB SWAP2 ADD MSTORE PUSH1 0x80 MLOAD PUSH2 0x380 MLOAD PUSH2 0x2081 JUMP JUMPDEST PUSH2 0x3E0 MLOAD PUSH2 0x120 DUP2 DUP4 SUB SWAP2 ADD MSTORE PUSH2 0x360 MLOAD PUSH2 0x300 MLOAD PUSH2 0x2081 JUMP JUMPDEST PUSH2 0x3E0 MLOAD PUSH2 0x140 DUP2 DUP4 SUB SWAP2 ADD MSTORE PUSH2 0x260 MLOAD PUSH2 0x100 MLOAD PUSH2 0x2081 JUMP JUMPDEST PUSH2 0x3E0 MLOAD PUSH2 0x160 DUP2 DUP4 SUB SWAP2 ADD MSTORE PUSH2 0x2A0 MLOAD PUSH2 0x1A0 MLOAD PUSH2 0x2081 JUMP JUMPDEST PUSH2 0x3E0 MLOAD PUSH2 0x180 DUP2 DUP4 SUB SWAP2 ADD MSTORE PUSH1 0xC0 MLOAD PUSH2 0x400 MLOAD PUSH2 0x2081 JUMP JUMPDEST PUSH2 0x3E0 MLOAD PUSH2 0x1A0 DUP2 DUP4 SUB SWAP2 ADD MSTORE PUSH2 0x460 MLOAD PUSH2 0x1E0 MLOAD PUSH2 0x2081 JUMP JUMPDEST PUSH2 0x3E0 MLOAD PUSH2 0x1C0 DUP2 DUP4 SUB SWAP2 ADD MSTORE PUSH32 0x3287E78ECE9FB279A346F796022C145352828976B64140E7AE43A9F7182C535E PUSH1 0x1 DUP1 PUSH1 0xA0 SHL SUB PUSH2 0x140 MLOAD AND SWAP2 PUSH2 0xFCF PUSH2 0x3E0 MLOAD SWAP2 PUSH2 0x240 MLOAD PUSH2 0x420 MLOAD PUSH2 0x2081 JUMP JUMPDEST SUB PUSH2 0x3E0 MLOAD LOG2 STOP JUMPDEST PUSH4 0x4E487B71 PUSH1 0xE0 SHL PUSH1 0x0 MSTORE PUSH1 0x41 PUSH1 0x4 MSTORE PUSH1 0x24 PUSH1 0x0 REVERT JUMPDEST ADD MLOAD SWAP1 POP DUP5 DUP1 PUSH2 0xD8F JUMP JUMPDEST SWAP1 PUSH1 0xE DUP5 ADD PUSH1 0x0 MSTORE PUSH1 0x20 PUSH1 0x0 KECCAK256 SWAP2 PUSH1 0x0 PUSH1 0x1F NOT DUP6 AND SWAP1 JUMPDEST DUP2 DUP2 LT PUSH2 0x104E JUMPI POP SWAP2 PUSH1 0x1 SWAP4 SWAP2 DUP6 PUSH1 0xE SWAP7 SWAP5 LT PUSH2 0x1035 JUMPI JUMPDEST POP POP POP DUP2 SHL ADD SWAP2 ADD SSTORE PUSH2 0xDA5 JUMP JUMPDEST ADD MLOAD PUSH1 0x0 NOT PUSH1 0xF8 DUP5 PUSH1 0x3 SHL AND SHR NOT AND SWAP1 SSTORE DUP5 DUP1 DUP1 PUSH2 0x1027 JUMP JUMPDEST SWAP3 SWAP4 PUSH1 0x20 PUSH1 0x1 DUP2 SWAP3 DUP8 DUP7 ADD MLOAD DUP2 SSTORE ADD SWAP6 ADD SWAP4 ADD PUSH2 0x100F JUMP JUMPDEST PUSH1 0xE DUP5 ADD PUSH1 0x0 MSTORE PUSH1 0x20 PUSH1 0x0 KECCAK256 PUSH1 0x1F DUP5 ADD PUSH1 0x5 SHR DUP2 ADD PUSH1 0x20 DUP6 LT PUSH2 0x10A6 JUMPI JUMPDEST PUSH1 0x1F DUP4 ADD PUSH1 0x5 SHR DUP3 ADD DUP2 LT PUSH2 0x109A JUMPI POP POP PUSH2 0xD73 JUMP JUMPDEST PUSH1 0x0 DUP2 SSTORE PUSH1 0x1 ADD PUSH2 0x1084 JUMP JUMPDEST POP DUP1 PUSH2 0x1084 JUMP JUMPDEST ADD MLOAD SWAP1 POP DUP4 DUP1 PUSH2 0xD2B JUMP JUMPDEST SWAP3 POP PUSH1 0xD DUP5 ADD PUSH1 0x0 MSTORE PUSH1 0x20 PUSH1 0x0 KECCAK256 SWAP1 PUSH1 0x0 SWAP4 JUMPDEST PUSH1 0x1F NOT DUP5 AND DUP6 LT PUSH2 0x110F JUMPI PUSH1 0x1 SWAP5 POP DUP4 PUSH1 0x1F NOT DUP2 AND LT PUSH2 0x10F6 JUMPI JUMPDEST POP POP POP DUP2 SHL ADD PUSH1 0xD DUP3 ADD SSTORE PUSH2 0xD43 JUMP JUMPDEST ADD MLOAD PUSH1 0x0 NOT PUSH1 0xF8 DUP5 PUSH1 0x3 SHL AND SHR NOT AND SWAP1 SSTORE DUP4 DUP1 DUP1 PUSH2 0x10E6 JUMP JUMPDEST DUP2 DUP2 ADD MLOAD DUP4 SSTORE PUSH1 0x20 SWAP5 DUP6 ADD SWAP5 PUSH1 0x1 SWAP1 SWAP4 ADD SWAP3 SWAP1 SWAP2 ADD SWAP1 PUSH2 0x10CB JUMP JUMPDEST SWAP1 SWAP2 POP PUSH1 0xD DUP5 ADD PUSH1 0x0 MSTORE PUSH1 0x20 PUSH1 0x0 KECCAK256 PUSH1 0x1F DUP5 ADD PUSH1 0x5 SHR DUP2 ADD PUSH1 0x20 DUP6 LT PUSH2 0x1176 JUMPI JUMPDEST SWAP1 DUP5 SWAP4 SWAP3 SWAP2 JUMPDEST PUSH1 0x1F DUP4 ADD PUSH1 0x5 SHR DUP3 ADD DUP2 LT PUSH2 0x1167 JUMPI POP POP PUSH2 0xD14 JUMP JUMPDEST PUSH1 0x0 DUP2 SSTORE DUP6 SWAP5 POP PUSH1 0x1 ADD PUSH2 0x1151 JUMP JUMPDEST POP DUP1 PUSH2 0x114B JUMP JUMPDEST ADD MLOAD SWAP1 POP DUP4 DUP1 PUSH2 0xCCA JUMP JUMPDEST SWAP3 POP PUSH1 0xC DUP5 ADD PUSH1 0x0 MSTORE PUSH1 0x20 PUSH1 0x0 KECCAK256 SWAP1 PUSH1 0x0 SWAP4 JUMPDEST PUSH1 0x1F NOT DUP5 AND DUP6 LT PUSH2 0x11DF JUMPI PUSH1 0x1 SWAP5 POP DUP4 PUSH1 0x1F NOT DUP2 AND LT PUSH2 0x11C6 JUMPI JUMPDEST POP POP POP DUP2 SHL ADD PUSH1 0xC DUP3 ADD SSTORE PUSH2 0xCE2 JUMP JUMPDEST ADD MLOAD PUSH1 0x0 NOT PUSH1 0xF8 DUP5 PUSH1 0x3 SHL AND SHR NOT AND SWAP1 SSTORE DUP4 DUP1 DUP1 PUSH2 0x11B6 JUMP JUMPDEST DUP2 DUP2 ADD MLOAD DUP4 SSTORE PUSH1 0x20 SWAP5 DUP6 ADD SWAP5 PUSH1 0x1 SWAP1 SWAP4 ADD SWAP3 SWAP1 SWAP2 ADD SWAP1 PUSH2 0x119B JUMP JUMPDEST SWAP1 SWAP2 POP PUSH1 0xC DUP5 ADD PUSH1 0x0 MSTORE PUSH1 0x20 PUSH1 0x0 KECCAK256 PUSH1 0x1F DUP5 ADD PUSH1 0x5 SHR DUP2 ADD PUSH1 0x20 DUP6 LT PUSH2 0x1246 JUMPI JUMPDEST SWAP1 DUP5 SWAP4 SWAP3 SWAP2 JUMPDEST PUSH1 0x1F DUP4 ADD PUSH1 0x5 SHR DUP3 ADD DUP2 LT PUSH2 0x1237 JUMPI POP POP PUSH2 0xCB3 JUMP JUMPDEST PUSH1 0x0 DUP2 SSTORE DUP6 SWAP5 POP PUSH1 0x1 ADD PUSH2 0x1221 JUMP JUMPDEST POP DUP1 PUSH2 0x121B JUMP JUMPDEST ADD MLOAD SWAP1 POP DUP4 DUP1 PUSH2 0xC69 JUMP JUMPDEST SWAP3 POP PUSH1 0xB DUP5 ADD PUSH1 0x0 MSTORE PUSH1 0x20 PUSH1 0x0 KECCAK256 SWAP1 PUSH1 0x0 SWAP4 JUMPDEST PUSH1 0x1F NOT DUP5 AND DUP6 LT PUSH2 0x12AF JUMPI PUSH1 0x1 SWAP5 POP DUP4 PUSH1 0x1F NOT DUP2 AND LT PUSH2 0x1296 JUMPI JUMPDEST POP POP POP DUP2 SHL ADD PUSH1 0xB DUP3 ADD SSTORE PUSH2 0xC81 JUMP JUMPDEST ADD MLOAD PUSH1 0x0 NOT PUSH1 0xF8 DUP5 PUSH1 0x3 SHL AND SHR NOT AND SWAP1 SSTORE DUP4 DUP1 DUP1 PUSH2 0x1286 JUMP JUMPDEST DUP2 DUP2 ADD MLOAD DUP4 SSTORE PUSH1 0x20 SWAP5 DUP6 ADD SWAP5 PUSH1 0x1 SWAP1 SWAP4 ADD SWAP3 SWAP1 SWAP2 ADD SWAP1 PUSH2 0x126B JUMP JUMPDEST SWAP1 SWAP2 POP PUSH1 0xB DUP5 ADD PUSH1 0x0 MSTORE PUSH1 0x20 PUSH1 0x0 KECCAK256 PUSH1 0x1F DUP5 ADD PUSH1 0x5 SHR DUP2 ADD PUSH1 0x20 DUP6 LT PUSH2 0x1316 JUMPI JUMPDEST SWAP1 DUP5 SWAP4 SWAP3 SWAP2 JUMPDEST PUSH1 0x1F DUP4 ADD PUSH1 0x5 SHR DUP3 ADD DUP2 LT PUSH2 0x1307 JUMPI POP POP PUSH2 0xC52 JUMP JUMPDEST PUSH1 0x0 DUP2 SSTORE DUP6 SWAP5 POP PUSH1 0x1 ADD PUSH2 0x12F1 JUMP JUMPDEST POP DUP1 PUSH2 0x12EB JUMP JUMPDEST ADD MLOAD SWAP1 POP DUP4 DUP1 PUSH2 0xC08 JUMP JUMPDEST SWAP3 POP PUSH1 0xA DUP5 ADD PUSH1 0x0 MSTORE PUSH1 0x20 PUSH1 0x0 KECCAK256 SWAP1 PUSH1 0x0 SWAP4 JUMPDEST PUSH1 0x1F NOT DUP5 AND DUP6 LT PUSH2 0x137F JUMPI PUSH1 0x1 SWAP5 POP DUP4 PUSH1 0x1F NOT DUP2 AND LT PUSH2 0x1366 JUMPI JUMPDEST POP POP POP DUP2 SHL ADD PUSH1 0xA DUP3 ADD SSTORE PUSH2 0xC20 JUMP JUMPDEST ADD MLOAD PUSH1 0x0 NOT PUSH1 0xF8 DUP5 PUSH1 0x3 SHL AND SHR NOT AND SWAP1 SSTORE DUP4 DUP1 DUP1 PUSH2 0x1356 JUMP JUMPDEST DUP2 DUP2 ADD MLOAD DUP4 SSTORE PUSH1 0x20 SWAP5 DUP6 ADD SWAP5 PUSH1 0x1 SWAP1 SWAP4 ADD SWAP3 SWAP1 SWAP2 ADD SWAP1 PUSH2 0x133B JUMP JUMPDEST SWAP1 SWAP2 POP PUSH1 0xA DUP5 ADD PUSH1 0x0 MSTORE PUSH1 0x20 PUSH1 0x0 KECCAK256 PUSH1 0x1F DUP5 ADD PUSH1 0x5 SHR DUP2 ADD PUSH1 0x20 DUP6 LT PUSH2 0x13E6 JUMPI JUMPDEST SWAP1 DUP5 SWAP4 SWAP3 SWAP2 JUMPDEST PUSH1 0x1F DUP4 ADD PUSH1 0x5 SHR DUP3 ADD DUP2 LT PUSH2 0x13D7 JUMPI POP POP PUSH2 0xBF1 JUMP JUMPDEST PUSH1 0x0 DUP2 SSTORE DUP6 SWAP5 POP PUSH1 0x1 ADD PUSH2 0x13C1 JUMP JUMPDEST POP DUP1 PUSH2 0x13BB JUMP JUMPDEST ADD MLOAD SWAP1 POP DUP4 DUP1 PUSH2 0xBA7 JUMP JUMPDEST SWAP3 POP PUSH1 0x9 DUP5 ADD PUSH1 0x0 MSTORE PUSH1 0x20 PUSH1 0x0 KECCAK256 SWAP1 PUSH1 0x0 SWAP4 JUMPDEST PUSH1 0x1F NOT DUP5 AND DUP6 LT PUSH2 0x144F JUMPI PUSH1 0x1 SWAP5 POP DUP4 PUSH1 0x1F NOT DUP2 AND LT PUSH2 0x1436 JUMPI JUMPDEST POP POP POP DUP2 SHL ADD PUSH1 0x9 DUP3 ADD SSTORE PUSH2 0xBBF JUMP JUMPDEST ADD MLOAD PUSH1 0x0 NOT PUSH1 0xF8 DUP5 PUSH1 0x3 SHL AND SHR NOT AND SWAP1 SSTORE DUP4 DUP1 DUP1 PUSH2 0x1426 JUMP JUMPDEST DUP2 DUP2 ADD MLOAD DUP4 SSTORE PUSH1 0x20 SWAP5 DUP6 ADD SWAP5 PUSH1 0x1 SWAP1 SWAP4 ADD SWAP3 SWAP1 SWAP2 ADD SWAP1 PUSH2 0x140B JUMP JUMPDEST SWAP1 SWAP2 POP PUSH1 0x9 DUP5 ADD PUSH1 0x0 MSTORE PUSH1 0x20 PUSH1 0x0 KECCAK256 PUSH1 0x1F DUP5 ADD PUSH1 0x5 SHR DUP2 ADD PUSH1 0x20 DUP6 LT PUSH2 0x14B6 JUMPI JUMPDEST SWAP1 DUP5 SWAP4 SWAP3 SWAP2 JUMPDEST PUSH1 0x1F DUP4 ADD PUSH1 0x5 SHR DUP3 ADD DUP2 LT PUSH2 0x14A7 JUMPI POP POP PUSH2 0xB90 JUMP JUMPDEST PUSH1 0x0 DUP2 SSTORE DUP6 SWAP5 POP PUSH1 0x1 ADD PUSH2 0x1491 JUMP JUMPDEST POP DUP1 PUSH2 0x148B JUMP JUMPDEST ADD MLOAD SWAP1 POP DUP4 DUP1 PUSH2 0xB46 JUMP JUMPDEST SWAP3 POP PUSH1 0x8 DUP5 ADD PUSH1 0x0 MSTORE PUSH1 0x20 PUSH1 0x0 KECCAK256 SWAP1 PUSH1 0x0 SWAP4 JUMPDEST PUSH1 0x1F NOT DUP5 AND DUP6 LT PUSH2 0x151F JUMPI PUSH1 0x1 SWAP5 POP DUP4 PUSH1 0x1F NOT DUP2 AND LT PUSH2 0x1506 JUMPI JUMPDEST POP POP POP DUP2 SHL ADD PUSH1 0x8 DUP3 ADD SSTORE PUSH2 0xB5E JUMP JUMPDEST ADD MLOAD PUSH1 0x0 NOT PUSH1 0xF8 DUP5 PUSH1 0x3 SHL AND SHR NOT AND SWAP1 SSTORE DUP4 DUP1 DUP1 PUSH2 0x14F6 JUMP JUMPDEST DUP2 DUP2 ADD MLOAD DUP4 SSTORE PUSH1 0x20 SWAP5 DUP6 ADD SWAP5 PUSH1 0x1 SWAP1 SWAP4 ADD SWAP3 SWAP1 SWAP2 ADD SWAP1 PUSH2 0x14DB JUMP JUMPDEST SWAP1 SWAP2 POP PUSH1 0x8 DUP5 ADD PUSH1 0x0 MSTORE PUSH1 0x20 PUSH1 0x0 KECCAK256 PUSH1 0x1F DUP5 ADD PUSH1 0x5 SHR DUP2 ADD PUSH1 0x20 DUP6 LT PUSH2 0x1586 JUMPI JUMPDEST SWAP1 DUP5 SWAP4 SWAP3 SWAP2 JUMPDEST PUSH1 0x1F DUP4 ADD PUSH1 0x5 SHR DUP3 ADD DUP2 LT PUSH2 0x1577 JUMPI POP POP PUSH2 0xB2F JUMP JUMPDEST PUSH1 0x0 DUP2 SSTORE DUP6 SWAP5 POP PUSH1 0x1 ADD PUSH2 0x1561 JUMP JUMPDEST POP DUP1 PUSH2 0x155B JUMP JUMPDEST ADD MLOAD SWAP1 POP DUP4 DUP1 PUSH2 0xAE5 JUMP JUMPDEST SWAP3 POP PUSH1 0x7 DUP5 ADD PUSH1 0x0 MSTORE PUSH1 0x20 PUSH1 0x0 KECCAK256 SWAP1 PUSH1 0x0 SWAP4 JUMPDEST PUSH1 0x1F NOT DUP5 AND DUP6 LT PUSH2 0x15EF JUMPI PUSH1 0x1 SWAP5 POP DUP4 PUSH1 0x1F NOT DUP2 AND LT PUSH2 0x15D6 JUMPI JUMPDEST POP POP POP DUP2 SHL ADD PUSH1 0x7 DUP3 ADD SSTORE PUSH2 0xAFD JUMP JUMPDEST ADD MLOAD PUSH1 0x0 NOT PUSH1 0xF8 DUP5 PUSH1 0x3 SHL AND SHR NOT AND SWAP1 SSTORE DUP4 DUP1 DUP1 PUSH2 0x15C6 JUMP JUMPDEST DUP2 DUP2 ADD MLOAD DUP4 SSTORE PUSH1 0x20 SWAP5 DUP6 ADD SWAP5 PUSH1 0x1 SWAP1 SWAP4 ADD SWAP3 SWAP1 SWAP2 ADD SWAP1 PUSH2 0x15AB JUMP JUMPDEST SWAP1 SWAP2 POP PUSH1 0x7 DUP5 ADD PUSH1 0x0 MSTORE PUSH1 0x20 PUSH1 0x0 KECCAK256 PUSH1 0x1F DUP5 ADD PUSH1 0x5 SHR DUP2 ADD PUSH1 0x20 DUP6 LT PUSH2 0x1656 JUMPI JUMPDEST SWAP1 DUP5 SWAP4 SWAP3 SWAP2 JUMPDEST PUSH1 0x1F DUP4 ADD PUSH1 0x5 SHR DUP3 ADD DUP2 LT PUSH2 0x1647 JUMPI POP POP PUSH2 0xACE JUMP JUMPDEST PUSH1 0x0 DUP2 SSTORE DUP6 SWAP5 POP PUSH1 0x1 ADD PUSH2 0x1631 JUMP JUMPDEST POP DUP1 PUSH2 0x162B JUMP JUMPDEST ADD MLOAD SWAP1 POP DUP4 DUP1 PUSH2 0xA85 JUMP JUMPDEST SWAP3 POP PUSH1 0x6 DUP5 ADD PUSH1 0x0 MSTORE PUSH1 0x20 PUSH1 0x0 KECCAK256 SWAP1 PUSH1 0x0 SWAP4 JUMPDEST PUSH1 0x1F NOT DUP5 AND DUP6 LT PUSH2 0x16BF JUMPI PUSH1 0x1 SWAP5 POP DUP4 PUSH1 0x1F NOT DUP2 AND LT PUSH2 0x16A6 JUMPI JUMPDEST POP POP POP DUP2 SHL ADD PUSH1 0x6 DUP3 ADD SSTORE PUSH2 0xA9D JUMP JUMPDEST ADD MLOAD PUSH1 0x0 NOT PUSH1 0xF8 DUP5 PUSH1 0x3 SHL AND SHR NOT AND SWAP1 SSTORE DUP4 DUP1 DUP1 PUSH2 0x1696 JUMP JUMPDEST DUP2 DUP2 ADD MLOAD DUP4 SSTORE PUSH1 0x20 SWAP5 DUP6 ADD SWAP5 PUSH1 0x1 SWAP1 SWAP4 ADD SWAP3 SWAP1 SWAP2 ADD SWAP1 PUSH2 0x167B JUMP JUMPDEST SWAP1 SWAP2 POP PUSH1 0x6 DUP5 ADD PUSH1 0x0 MSTORE PUSH1 0x20 PUSH1 0x0 KECCAK256 PUSH1 0x1F DUP5 ADD PUSH1 0x5 SHR DUP2 ADD PUSH1 0x20 DUP6 LT PUSH2 0x1726 JUMPI JUMPDEST SWAP1 DUP5 SWAP4 SWAP3 SWAP2 JUMPDEST PUSH1 0x1F DUP4 ADD PUSH1 0x5 SHR DUP3 ADD DUP2 LT PUSH2 0x1717 JUMPI POP POP PUSH2 0xA6E JUMP JUMPDEST PUSH1 0x0 DUP2 SSTORE DUP6 SWAP5 POP PUSH1 0x1 ADD PUSH2 0x1701 JUMP JUMPDEST POP DUP1 PUSH2 0x16FB JUMP JUMPDEST ADD MLOAD SWAP1 POP DUP4 DUP1 PUSH2 0xA25 JUMP JUMPDEST SWAP3 POP PUSH1 0x5 DUP5 ADD PUSH1 0x0 MSTORE PUSH1 0x20 PUSH1 0x0 KECCAK256 SWAP1 PUSH1 0x0 SWAP4 JUMPDEST PUSH1 0x1F NOT DUP5 AND DUP6 LT PUSH2 0x178F JUMPI PUSH1 0x1 SWAP5 POP DUP4 PUSH1 0x1F NOT DUP2 AND LT PUSH2 0x1776 JUMPI JUMPDEST POP POP POP DUP2 SHL ADD PUSH1 0x5 DUP3 ADD SSTORE PUSH2 0xA3D JUMP JUMPDEST ADD MLOAD PUSH1 0x0 NOT PUSH1 0xF8 DUP5 PUSH1 0x3 SHL AND SHR NOT AND SWAP1 SSTORE DUP4 DUP1 DUP1 PUSH2 0x1766 JUMP JUMPDEST DUP2 DUP2 ADD MLOAD DUP4 SSTORE PUSH1 0x20 SWAP5 DUP6 ADD SWAP5 PUSH1 0x1 SWAP1 SWAP4 ADD SWAP3 SWAP1 SWAP2 ADD SWAP1 PUSH2 0x174B JUMP JUMPDEST SWAP1 SWAP2 POP PUSH1 0x5 DUP5 ADD PUSH1 0x0 MSTORE PUSH1 0x20 PUSH1 0x0 KECCAK256 PUSH1 0x1F DUP5 ADD PUSH1 0x5 SHR DUP2 ADD PUSH1 0x20 DUP6 LT PUSH2 0x17F6 JUMPI JUMPDEST SWAP1 DUP5 SWAP4 SWAP3 SWAP2 JUMPDEST PUSH1 0x1F DUP4 ADD PUSH1 0x5 SHR DUP3 ADD DUP2 LT PUSH2 0x17E7 JUMPI POP POP PUSH2 0xA0E JUMP JUMPDEST PUSH1 0x0 DUP2 SSTORE DUP6 SWAP5 POP PUSH1 0x1 ADD PUSH2 0x17D1 JUMP JUMPDEST POP DUP1 PUSH2 0x17CB JUMP JUMPDEST ADD MLOAD SWAP1 POP DUP4 DUP1 PUSH2 0x9C5 JUMP JUMPDEST SWAP3 POP PUSH1 0x4 DUP5 ADD PUSH1 0x0 MSTORE PUSH1 0x20 PUSH1 0x0 KECCAK256 SWAP1 PUSH1 0x0 SWAP4 JUMPDEST PUSH1 0x1F NOT DUP5 AND DUP6 LT PUSH2 0x185F JUMPI PUSH1 0x1 SWAP5 POP DUP4 PUSH1 0x1F NOT DUP2 AND LT PUSH2 0x1846 JUMPI JUMPDEST POP POP POP DUP2 SHL ADD PUSH1 0x4 DUP3 ADD SSTORE PUSH2 0x9DD JUMP JUMPDEST ADD MLOAD PUSH1 0x0 NOT PUSH1 0xF8 DUP5 PUSH1 0x3 SHL AND SHR NOT AND SWAP1 SSTORE DUP4 DUP1 DUP1 PUSH2 0x1836 JUMP JUMPDEST DUP2 DUP2 ADD MLOAD DUP4 SSTORE PUSH1 0x20 SWAP5 DUP6 ADD SWAP5 PUSH1 0x1 SWAP1 SWAP4 ADD SWAP3 SWAP1 SWAP2 ADD SWAP1 PUSH2 0x181B JUMP JUMPDEST SWAP1 SWAP2 POP PUSH1 0x4 DUP5 ADD PUSH1 0x0 MSTORE PUSH1 0x20 PUSH1 0x0 KECCAK256 PUSH1 0x1F DUP5 ADD PUSH1 0x5 SHR DUP2 ADD PUSH1 0x20 DUP6 LT PUSH2 0x18C6 JUMPI JUMPDEST SWAP1 DUP5 SWAP4 SWAP3 SWAP2 JUMPDEST PUSH1 0x1F DUP4 ADD PUSH1 0x5 SHR DUP3 ADD DUP2 LT PUSH2 0x18B7 JUMPI POP POP PUSH2 0x9AE JUMP JUMPDEST PUSH1 0x0 DUP2 SSTORE DUP6 SWAP5 POP PUSH1 0x1 ADD PUSH2 0x18A1 JUMP JUMPDEST POP DUP1 PUSH2 0x189B JUMP JUMPDEST ADD MLOAD SWAP1 POP DUP4 DUP1 PUSH2 0x965 JUMP JUMPDEST SWAP3 POP PUSH1 0x3 DUP5 ADD PUSH1 0x0 MSTORE PUSH1 0x20 PUSH1 0x0 KECCAK256 SWAP1 PUSH1 0x0 SWAP4 JUMPDEST PUSH1 0x1F NOT DUP5 AND DUP6 LT PUSH2 0x192F JUMPI PUSH1 0x1 SWAP5 POP DUP4 PUSH1 0x1F NOT DUP2 AND LT PUSH2 0x1916 JUMPI JUMPDEST POP POP POP DUP2 SHL ADD PUSH1 0x3 DUP3 ADD SSTORE PUSH2 0x97D JUMP JUMPDEST ADD MLOAD PUSH1 0x0 NOT PUSH1 0xF8 DUP5 PUSH1 0x3 SHL AND SHR NOT AND SWAP1 SSTORE DUP4 DUP1 DUP1 PUSH2 0x1906 JUMP JUMPDEST DUP2 DUP2 ADD MLOAD DUP4 SSTORE PUSH1 0x20 SWAP5 DUP6 ADD SWAP5 PUSH1 0x1 SWAP1 SWAP4 ADD SWAP3 SWAP1 SWAP2 ADD SWAP1 PUSH2 0x18EB JUMP JUMPDEST SWAP1 SWAP2 POP PUSH1 0x3 DUP5 ADD PUSH1 0x0 MSTORE PUSH1 0x20 PUSH1 0x0 KECCAK256 PUSH1 0x1F DUP5 ADD PUSH1 0x5 SHR DUP2 ADD PUSH1 0x20 DUP6 LT PUSH2 0x1996 JUMPI JUMPDEST SWAP1 DUP5 SWAP4 SWAP3 SWAP2 JUMPDEST PUSH1 0x1F DUP4 ADD PUSH1 0x5 SHR DUP3 ADD DUP2 LT PUSH2 0x1987 JUMPI POP POP PUSH2 0x94E JUMP JUMPDEST PUSH1 0x0 DUP2 SSTORE DUP6 SWAP5 POP PUSH1 0x1 ADD PUSH2 0x1971 JUMP JUMPDEST POP DUP1 PUSH2 0x196B JUMP JUMPDEST ADD MLOAD SWAP1 POP DUP4 DUP1 PUSH2 0x905 JUMP JUMPDEST PUSH1 0x2 DUP4 ADD PUSH1 0x0 MSTORE PUSH1 0x20 PUSH1 0x0 KECCAK256 SWAP1 PUSH1 0x0 SWAP5 PUSH1 0x1F NOT DUP5 AND SWAP6 JUMPDEST DUP7 DUP2 LT PUSH2 0x19FB JUMPI POP DUP4 PUSH1 0x1 SWAP6 SWAP7 LT PUSH2 0x19E2 JUMPI JUMPDEST POP POP POP DUP2 SHL ADD PUSH1 0x2 DUP3 ADD SSTORE PUSH2 0x91D JUMP JUMPDEST ADD MLOAD PUSH1 0x0 NOT PUSH1 0xF8 DUP5 PUSH1 0x3 SHL AND SHR NOT AND SWAP1 SSTORE DUP4 DUP1 DUP1 PUSH2 0x19D2 JUMP JUMPDEST SWAP2 SWAP3 PUSH1 0x20 PUSH1 0x1 DUP2 SWAP3 DUP7 DUP6 ADD MLOAD DUP2 SSTORE ADD SWAP5 ADD SWAP3 ADD PUSH2 0x19BF JUMP JUMPDEST PUSH1 0x2 DUP4 ADD PUSH1 0x0 MSTORE PUSH1 0x20 PUSH1 0x0 KECCAK256 PUSH1 0x1F DUP4 ADD PUSH1 0x5 SHR DUP2 ADD PUSH1 0x20 DUP5 LT PUSH2 0x1A53 JUMPI JUMPDEST PUSH1 0x1F DUP4 ADD PUSH1 0x5 SHR DUP3 ADD DUP2 LT PUSH2 0x1A47 JUMPI POP POP PUSH2 0x8EC JUMP JUMPDEST PUSH1 0x0 DUP2 SSTORE PUSH1 0x1 ADD PUSH2 0x1A31 JUMP JUMPDEST POP DUP1 PUSH2 0x1A31 JUMP JUMPDEST ADD MLOAD SWAP1 POP DUP4 DUP1 PUSH2 0x8A5 JUMP JUMPDEST SWAP3 POP PUSH1 0x1 DUP5 ADD PUSH1 0x0 MSTORE PUSH1 0x20 PUSH1 0x0 KECCAK256 SWAP1 PUSH1 0x0 SWAP4 JUMPDEST PUSH1 0x1F NOT DUP5 AND DUP6 LT PUSH2 0x1ABC JUMPI PUSH1 0x1 SWAP5 POP DUP4 PUSH1 0x1F NOT DUP2 AND LT PUSH2 0x1AA3 JUMPI JUMPDEST POP POP POP DUP2 SHL ADD PUSH1 0x1 DUP3 ADD SSTORE PUSH2 0x8BD JUMP JUMPDEST ADD MLOAD PUSH1 0x0 NOT PUSH1 0xF8 DUP5 PUSH1 0x3 SHL AND SHR NOT AND SWAP1 SSTORE DUP4 DUP1 DUP1 PUSH2 0x1A93 JUMP JUMPDEST DUP2 DUP2 ADD MLOAD DUP4 SSTORE PUSH1 0x20 SWAP5 DUP6 ADD SWAP5 PUSH1 0x1 SWAP1 SWAP4 ADD SWAP3 SWAP1 SWAP2 ADD SWAP1 PUSH2 0x1A78 JUMP JUMPDEST SWAP1 SWAP2 POP PUSH1 0x1 DUP5 ADD PUSH1 0x0 MSTORE PUSH1 0x20 PUSH1 0x0 KECCAK256 PUSH1 0x1F DUP5 ADD PUSH1 0x5 SHR DUP2 ADD PUSH1 0x20 DUP6 LT PUSH2 0x1B23 JUMPI JUMPDEST SWAP1 DUP5 SWAP4 SWAP3 SWAP2 JUMPDEST PUSH1 0x1F DUP4 ADD PUSH1 0x5 SHR DUP3 ADD DUP2 LT PUSH2 0x1B14 JUMPI POP POP PUSH2 0x88E JUMP JUMPDEST PUSH1 0x0 DUP2 SSTORE DUP6 SWAP5 POP PUSH1 0x1 ADD PUSH2 0x1AFE JUMP JUMPDEST POP DUP1 PUSH2 0x1AF8 JUMP JUMPDEST ADD MLOAD SWAP1 POP DUP4 DUP1 PUSH2 0x848 JUMP JUMPDEST DUP3 PUSH1 0x0 MSTORE PUSH1 0x20 PUSH1 0x0 KECCAK256 SWAP1 PUSH1 0x0 SWAP5 PUSH1 0x1F NOT DUP5 AND SWAP6 JUMPDEST DUP7 DUP2 LT PUSH2 0x1B82 JUMPI POP DUP4 PUSH1 0x1 SWAP6 SWAP7 LT PUSH2 0x1B69 JUMPI JUMPDEST POP POP POP DUP2 SHL ADD DUP2 SSTORE PUSH2 0x85D JUMP JUMPDEST ADD MLOAD PUSH1 0x0 NOT PUSH1 0xF8 DUP5 PUSH1 0x3 SHL AND SHR NOT AND SWAP1 SSTORE DUP4 DUP1 DUP1 PUSH2 0x1B5C JUMP JUMPDEST SWAP2 SWAP3 PUSH1 0x20 PUSH1 0x1 DUP2 SWAP3 DUP7 DUP6 ADD MLOAD DUP2 SSTORE ADD SWAP5 ADD SWAP3 ADD PUSH2 0x1B49 JUMP JUMPDEST DUP3 PUSH1 0x0 MSTORE PUSH1 0x20 PUSH1 0x0 KECCAK256 PUSH1 0x1F DUP4 ADD PUSH1 0x5 SHR DUP2 ADD PUSH1 0x20 DUP5 LT PUSH2 0x1BD7 JUMPI JUMPDEST PUSH1 0x1F DUP4 ADD PUSH1 0x5 SHR DUP3 ADD DUP2 LT PUSH2 0x1BCB JUMPI POP POP PUSH2 0x82F JUMP JUMPDEST PUSH1 0x0 DUP2 SSTORE PUSH1 0x1 ADD PUSH2 0x1BB5 JUMP JUMPDEST POP DUP1 PUSH2 0x1BB5 JUMP JUMPDEST PUSH1 0x40 MLOAD PUSH3 0x461BCD PUSH1 0xE5 SHL DUP2 MSTORE PUSH1 0x20 PUSH1 0x4 DUP3 ADD MSTORE PUSH1 0xB PUSH1 0x24 DUP3 ADD MSTORE PUSH11 0x139BDD081CDD195DD85C99 PUSH1 0xAA SHL PUSH1 0x44 DUP3 ADD MSTORE PUSH1 0x64 SWAP1 REVERT JUMPDEST CALLVALUE PUSH2 0xA4 JUMPI PUSH1 0x0 CALLDATASIZE PUSH1 0x3 NOT ADD SLT PUSH2 0xA4 JUMPI PUSH1 0x0 SLOAD PUSH1 0x40 MLOAD PUSH1 0x1 PUSH1 0x1 PUSH1 0xA0 SHL SUB SWAP1 SWAP2 AND DUP2 MSTORE PUSH1 0x20 SWAP1 RETURN JUMPDEST CALLVALUE PUSH2 0xA4 JUMPI PUSH1 0x20 CALLDATASIZE PUSH1 0x3 NOT ADD SLT PUSH2 0xA4 JUMPI PUSH1 0x1 PUSH1 0x1 PUSH1 0xA0 SHL SUB PUSH2 0x1C5B PUSH2 0x1E4E JUMP JUMPDEST AND PUSH1 0x0 MSTORE PUSH1 0x1 PUSH1 0x20 MSTORE PUSH1 0x40 PUSH1 0x0 KECCAK256 PUSH2 0x1C72 DUP2 PUSH2 0x1EDB JUMP JUMPDEST SWAP1 PUSH2 0x1C7F PUSH1 0x1 DUP3 ADD PUSH2 0x1EDB JUMP JUMPDEST SWAP1 PUSH2 0x1C8C PUSH1 0x2 DUP3 ADD PUSH2 0x1EDB JUMP JUMPDEST SWAP1 PUSH2 0x1C99 PUSH1 0x3 DUP3 ADD PUSH2 0x1EDB JUMP JUMPDEST PUSH2 0x1CA5 PUSH1 0x4 DUP4 ADD PUSH2 0x1EDB JUMP JUMPDEST PUSH2 0x1CB1 PUSH1 0x5 DUP5 ADD PUSH2 0x1EDB JUMP JUMPDEST PUSH2 0x1CBD PUSH1 0x6 DUP6 ADD PUSH2 0x1EDB JUMP JUMPDEST PUSH2 0x1CC9 PUSH1 0x7 DUP7 ADD PUSH2 0x1EDB JUMP JUMPDEST PUSH2 0x1CD5 PUSH1 0x8 DUP8 ADD PUSH2 0x1EDB JUMP JUMPDEST SWAP1 PUSH2 0x1CE2 PUSH1 0x9 DUP9 ADD PUSH2 0x1EDB JUMP JUMPDEST SWAP3 PUSH2 0x1CEF PUSH1 0xA DUP10 ADD PUSH2 0x1EDB JUMP JUMPDEST SWAP5 PUSH2 0x1CFC PUSH1 0xB DUP11 ADD PUSH2 0x1EDB JUMP JUMPDEST SWAP7 PUSH2 0x1D09 PUSH1 0xC DUP12 ADD PUSH2 0x1EDB JUMP JUMPDEST SWAP9 PUSH2 0x1D16 PUSH1 0xD DUP13 ADD PUSH2 0x1EDB JUMP JUMPDEST SWAP11 PUSH1 0xE ADD PUSH2 0x1D23 SWAP1 PUSH2 0x1EDB JUMP JUMPDEST SWAP12 PUSH1 0x40 MLOAD SWAP15 DUP16 SWAP15 DUP16 SWAP2 PUSH2 0x1E0 DUP1 DUP5 MSTORE DUP4 ADD PUSH2 0x1D3D SWAP2 PUSH2 0x1F81 JUMP JUMPDEST DUP3 DUP2 SUB PUSH1 0x20 DUP5 ADD MSTORE PUSH2 0x1D4E SWAP2 PUSH2 0x1F81 JUMP JUMPDEST SWAP1 DUP1 DUP3 SUB SWAP1 PUSH1 0x40 ADD MSTORE PUSH2 0x1D60 SWAP2 PUSH2 0x1F81 JUMP JUMPDEST DUP14 DUP2 SUB PUSH1 0x60 DUP16 ADD MSTORE PUSH2 0x1D71 SWAP2 PUSH2 0x1F81 JUMP JUMPDEST DUP13 DUP2 SUB PUSH1 0x80 DUP15 ADD MSTORE PUSH2 0x1D82 SWAP2 PUSH2 0x1F81 JUMP JUMPDEST DUP12 DUP2 SUB PUSH1 0xA0 DUP14 ADD MSTORE PUSH2 0x1D93 SWAP2 PUSH2 0x1F81 JUMP JUMPDEST DUP11 DUP2 SUB PUSH1 0xC0 DUP13 ADD MSTORE PUSH2 0x1DA4 SWAP2 PUSH2 0x1F81 JUMP JUMPDEST DUP10 DUP2 SUB PUSH1 0xE0 DUP12 ADD MSTORE PUSH2 0x1DB5 SWAP2 PUSH2 0x1F81 JUMP JUMPDEST DUP9 DUP2 SUB PUSH2 0x100 DUP11 ADD MSTORE PUSH2 0x1DC7 SWAP2 PUSH2 0x1F81 JUMP JUMPDEST DUP8 DUP2 SUB PUSH2 0x120 DUP10 ADD MSTORE PUSH2 0x1DD9 SWAP2 PUSH2 0x1F81 JUMP JUMPDEST DUP7 DUP2 SUB PUSH2 0x140 DUP9 ADD MSTORE PUSH2 0x1DEB SWAP2 PUSH2 0x1F81 JUMP JUMPDEST DUP6 DUP2 SUB PUSH2 0x160 DUP8 ADD MSTORE PUSH2 0x1DFD SWAP2 PUSH2 0x1F81 JUMP JUMPDEST DUP5 DUP2 SUB PUSH2 0x180 DUP7 ADD MSTORE PUSH2 0x1E0F SWAP2 PUSH2 0x1F81 JUMP JUMPDEST DUP4 DUP2 SUB PUSH2 0x1A0 DUP6 ADD MSTORE PUSH2 0x1E21 SWAP2 PUSH2 0x1F81 JUMP JUMPDEST DUP3 DUP2 SUB PUSH2 0x1C0 DUP5 ADD MSTORE PUSH2 0x3DD SWAP2 PUSH2 0x1F81 JUMP JUMPDEST CALLVALUE PUSH2 0xA4 JUMPI PUSH1 0x0 CALLDATASIZE PUSH1 0x3 NOT ADD SLT PUSH2 0xA4 JUMPI PUSH1 0x20 SWAP1 PUSH1 0x2 SLOAD DUP2 MSTORE RETURN JUMPDEST PUSH1 0x4 CALLDATALOAD SWAP1 PUSH1 0x1 PUSH1 0x1 PUSH1 0xA0 SHL SUB DUP3 AND DUP3 SUB PUSH2 0xA4 JUMPI JUMP JUMPDEST SWAP1 PUSH1 0x1 DUP3 DUP2 SHR SWAP3 AND DUP1 ISZERO PUSH2 0x1E94 JUMPI JUMPDEST PUSH1 0x20 DUP4 LT EQ PUSH2 0x1E7E JUMPI JUMP JUMPDEST PUSH4 0x4E487B71 PUSH1 0xE0 SHL PUSH1 0x0 MSTORE PUSH1 0x22 PUSH1 0x4 MSTORE PUSH1 0x24 PUSH1 0x0 REVERT JUMPDEST SWAP2 PUSH1 0x7F AND SWAP2 PUSH2 0x1E73 JUMP JUMPDEST PUSH2 0x1E0 DUP2 ADD SWAP1 DUP2 LT PUSH1 0x1 PUSH1 0x1 PUSH1 0x40 SHL SUB DUP3 GT OR PUSH2 0xFD7 JUMPI PUSH1 0x40 MSTORE JUMP JUMPDEST SWAP1 PUSH1 0x1F DUP1 NOT SWAP2 ADD AND DUP2 ADD SWAP1 DUP2 LT PUSH1 0x1 PUSH1 0x1 PUSH1 0x40 SHL SUB DUP3 GT OR PUSH2 0xFD7 JUMPI PUSH1 0x40 MSTORE JUMP JUMPDEST SWAP1 PUSH1 0x40 MLOAD SWAP2 DUP3 PUSH1 0x0 DUP3 SLOAD SWAP3 PUSH2 0x1EEF DUP5 PUSH2 0x1E64 JUMP JUMPDEST SWAP1 DUP2 DUP5 MSTORE PUSH1 0x1 SWAP5 DUP6 DUP2 AND SWAP1 DUP2 PUSH1 0x0 EQ PUSH2 0x1F5E JUMPI POP PUSH1 0x1 EQ PUSH2 0x1F1B JUMPI JUMPDEST POP POP PUSH2 0x1F19 SWAP3 POP SUB DUP4 PUSH2 0x1EBA JUMP JUMPDEST JUMP JUMPDEST SWAP1 SWAP4 SWAP2 POP PUSH1 0x0 MSTORE PUSH1 0x20 SWAP1 DUP2 PUSH1 0x0 KECCAK256 SWAP4 PUSH1 0x0 SWAP2 JUMPDEST DUP2 DUP4 LT PUSH2 0x1F46 JUMPI POP POP PUSH2 0x1F19 SWAP4 POP DUP3 ADD ADD CODESIZE DUP1 PUSH2 0x1F0B JUMP JUMPDEST DUP6 SLOAD DUP9 DUP5 ADD DUP6 ADD MSTORE SWAP5 DUP6 ADD SWAP5 DUP8 SWAP5 POP SWAP2 DUP4 ADD SWAP2 PUSH2 0x1F2E JUMP JUMPDEST SWAP2 POP POP PUSH2 0x1F19 SWAP5 POP PUSH1 0x20 SWAP3 POP PUSH1 0xFF NOT AND DUP3 DUP5 ADD MSTORE ISZERO ISZERO PUSH1 0x5 SHL DUP3 ADD ADD CODESIZE DUP1 PUSH2 0x1F0B JUMP JUMPDEST SWAP2 SWAP1 DUP3 MLOAD SWAP3 DUP4 DUP3 MSTORE PUSH1 0x0 JUMPDEST DUP5 DUP2 LT PUSH2 0x1FAD JUMPI POP POP DUP3 PUSH1 0x0 PUSH1 0x20 DUP1 SWAP5 SWAP6 DUP5 ADD ADD MSTORE PUSH1 0x1F DUP1 NOT SWAP2 ADD AND ADD ADD SWAP1 JUMP JUMPDEST PUSH1 0x20 DUP2 DUP4 ADD DUP2 ADD MLOAD DUP5 DUP4 ADD DUP3 ADD MSTORE ADD PUSH2 0x1F8C JUMP JUMPDEST SWAP2 DUP2 PUSH1 0x1F DUP5 ADD SLT ISZERO PUSH2 0xA4 JUMPI DUP3 CALLDATALOAD SWAP2 PUSH1 0x1 PUSH1 0x1 PUSH1 0x40 SHL SUB DUP4 GT PUSH2 0xA4 JUMPI PUSH1 0x20 DUP4 DUP2 DUP7 ADD SWAP6 ADD ADD GT PUSH2 0xA4 JUMPI JUMP JUMPDEST PUSH1 0x2 SLOAD DUP2 LT ISZERO PUSH2 0x2025 JUMPI PUSH1 0x2 PUSH1 0x0 MSTORE PUSH32 0x405787FA12A823E0F2B7631CC41B3BA8828B3321CA811111FA75CD3AA3BB5ACE ADD SWAP1 PUSH1 0x0 SWAP1 JUMP JUMPDEST PUSH4 0x4E487B71 PUSH1 0xE0 SHL PUSH1 0x0 MSTORE PUSH1 0x32 PUSH1 0x4 MSTORE PUSH1 0x24 PUSH1 0x0 REVERT JUMPDEST SWAP3 SWAP2 SWAP3 PUSH1 0x1 PUSH1 0x1 PUSH1 0x40 SHL SUB DUP3 GT PUSH2 0xFD7 JUMPI PUSH1 0x40 MLOAD SWAP2 PUSH2 0x2064 PUSH1 0x1F DUP3 ADD PUSH1 0x1F NOT AND PUSH1 0x20 ADD DUP5 PUSH2 0x1EBA JUMP JUMPDEST DUP3 SWAP5 DUP2 DUP5 MSTORE DUP2 DUP4 ADD GT PUSH2 0xA4 JUMPI DUP3 DUP2 PUSH1 0x20 SWAP4 DUP5 PUSH1 0x0 SWAP7 ADD CALLDATACOPY ADD ADD MSTORE JUMP JUMPDEST SWAP1 DUP1 PUSH1 0x20 SWAP4 SWAP3 DUP2 DUP5 MSTORE DUP5 DUP5 ADD CALLDATACOPY PUSH1 0x0 DUP3 DUP3 ADD DUP5 ADD MSTORE PUSH1 0x1F ADD PUSH1 0x1F NOT AND ADD ADD SWAP1 JUMP INVALID LOG2 PUSH5 0x6970667358 0x22 SLT KECCAK256 GT MUL SELFDESTRUCT DUP1 LT SWAP16 PUSH25 0x59BCFEA6E39CD74C185E082C68460B6AA24615E61784ECD973 PUSH5 0x736F6C6343 STOP ADDMOD EQ STOP CALLER "},"methodIdentifiers":{"apprentices(uint256)":"f31bee3e","getSummons(address)":"cf84c603","steward()":"637eea19","summonApprentice(address,string,string,string,string,string,string,string,string,string,string,string,string,string,string,string)":"745ff840","summons(address)":"5a2ed662","totalSummons()":"2a17d4cd"}}}}}