{"contracts/codex/SpiralboundCodexXXIV.sol":{"SpiralboundCodexXXIV":{"abi":[{"inputs":[],"stateMutability":"nonpayable","type":"constructor"},{"anonymous":false,"inputs":[{"indexed":false,"internalType":"string","name":"glyph","type":"string"},{"indexed":false,"internalType":"string","name":"tag","type":"string"},{"indexed":false,"internalType":"string","name":"binding","type":"string"},{"indexed":false,"internalType":"string","name":"annotation","type":"string"},{"indexed":false,"internalType":"string","name":"lineage","type":"string"},{"indexed":false,"internalType":"string","name":"resonance","type":"string"},{"indexed":false,"internalType":"string","name":"protocol","type":"string"},{"indexed":false,"internalType":"string","name":"sanctum","type":"string"},{"indexed":false,"internalType":"string","name":"pulse","type":"string"},{"indexed":false,"internalType":"string","name":"chant","type":"string"},{"indexed":false,"internalType":"string","name":"choreography","type":"string"},{"indexed":false,"internalType":"string","name":"drift","type":"string"},{"indexed":false,"internalType":"string","name":"signature","type":"string"},{"indexed":false,"internalType":"string","name":"signal","type":"string"},{"indexed":false,"internalType":"string","name":"companion","type":"string"},{"indexed":false,"internalType":"string","name":"stewardName","type":"string"},{"indexed":false,"internalType":"string","name":"registry","type":"string"},{"indexed":false,"internalType":"string","name":"echo","type":"string"},{"indexed":false,"internalType":"string","name":"hum","type":"string"},{"indexed":false,"internalType":"string","name":"terrain","type":"string"},{"indexed":false,"internalType":"string","name":"choreographyType","type":"string"},{"indexed":false,"internalType":"string","name":"driftType","type":"string"},{"indexed":false,"internalType":"string","name":"signalType","type":"string"},{"indexed":false,"internalType":"string","name":"companionType","type":"string"},{"indexed":false,"internalType":"string","name":"stewardSignal","type":"string"}],"name":"CodexInscribed","type":"event"},{"inputs":[{"internalType":"string","name":"","type":"string"}],"name":"codices","outputs":[{"internalType":"string","name":"tag","type":"string"},{"internalType":"string","name":"binding","type":"string"},{"internalType":"string","name":"annotation","type":"string"},{"internalType":"string","name":"lineage","type":"string"},{"internalType":"string","name":"resonance","type":"string"},{"internalType":"string","name":"protocol","type":"string"},{"internalType":"string","name":"sanctum","type":"string"},{"internalType":"string","name":"pulse","type":"string"},{"internalType":"string","name":"chant","type":"string"},{"internalType":"string","name":"choreography","type":"string"},{"internalType":"string","name":"drift","type":"string"},{"internalType":"string","name":"signature","type":"string"},{"internalType":"string","name":"signal","type":"string"},{"internalType":"string","name":"companion","type":"string"},{"internalType":"string","name":"stewardName","type":"string"},{"internalType":"string","name":"registry","type":"string"},{"internalType":"string","name":"echo","type":"string"},{"internalType":"string","name":"hum","type":"string"},{"internalType":"string","name":"terrain","type":"string"},{"internalType":"string","name":"choreographyType","type":"string"},{"internalType":"string","name":"driftType","type":"string"},{"internalType":"string","name":"signalType","type":"string"},{"internalType":"string","name":"companionType","type":"string"},{"internalType":"string","name":"stewardSignal","type":"string"}],"stateMutability":"view","type":"function"},{"inputs":[{"internalType":"string","name":"glyph","type":"string"}],"name":"getCodex","outputs":[{"components":[{"internalType":"string","name":"tag","type":"string"},{"internalType":"string","name":"binding","type":"string"},{"internalType":"string","name":"annotation","type":"string"},{"internalType":"string","name":"lineage","type":"string"},{"internalType":"string","name":"resonance","type":"string"},{"internalType":"string","name":"protocol","type":"string"},{"internalType":"string","name":"sanctum","type":"string"},{"internalType":"string","name":"pulse","type":"string"},{"internalType":"string","name":"chant","type":"string"},{"internalType":"string","name":"choreography","type":"string"},{"internalType":"string","name":"drift","type":"string"},{"internalType":"string","name":"signature","type":"string"},{"internalType":"string","name":"signal","type":"string"},{"internalType":"string","name":"companion","type":"string"},{"internalType":"string","name":"stewardName","type":"string"},{"internalType":"string","name":"registry","type":"string"},{"internalType":"string","name":"echo","type":"string"},{"internalType":"string","name":"hum","type":"string"},{"internalType":"string","name":"terrain","type":"string"},{"internalType":"string","name":"choreographyType","type":"string"},{"internalType":"string","name":"driftType","type":"string"},{"internalType":"string","name":"signalType","type":"string"},{"internalType":"string","name":"companionType","type":"string"},{"internalType":"string","name":"stewardSignal","type":"string"}],"internalType":"struct SpiralboundCodexXXIV.Codex","name":"","type":"tuple"}],"stateMutability":"view","type":"function"},{"inputs":[{"internalType":"string","name":"glyph","type":"string"},{"internalType":"string","name":"tag","type":"string"},{"internalType":"string","name":"binding","type":"string"},{"internalType":"string","name":"annotation","type":"string"},{"internalType":"string","name":"lineage","type":"string"},{"internalType":"string","name":"resonance","type":"string"},{"internalType":"string","name":"protocol","type":"string"},{"internalType":"string","name":"sanctum","type":"string"},{"internalType":"string","name":"pulse","type":"string"},{"internalType":"string","name":"chant","type":"string"},{"internalType":"string","name":"choreography","type":"string"},{"internalType":"string","name":"drift","type":"string"},{"internalType":"string","name":"signature","type":"string"},{"internalType":"string","name":"signal","type":"string"},{"internalType":"string","name":"companion","type":"string"},{"internalType":"string","name":"stewardName","type":"string"},{"internalType":"string","name":"registry","type":"string"},{"internalType":"string","name":"echo","type":"string"},{"internalType":"string","name":"hum","type":"string"},{"internalType":"string","name":"terrain","type":"string"},{"internalType":"string","name":"choreographyType","type":"string"},{"internalType":"string","name":"driftType","type":"string"},{"internalType":"string","name":"signalType","type":"string"},{"internalType":"string","name":"companionType","type":"string"},{"internalType":"string","name":"stewardSignal","type":"string"}],"name":"inscribeCodex","outputs":[],"stateMutability":"nonpayable","type":"function"},{"inputs":[{"internalType":"uint256","name":"","type":"uint256"}],"name":"keys","outputs":[{"internalType":"string","name":"","type":"string"}],"stateMutability":"view","type":"function"},{"inputs":[],"name":"steward","outputs":[{"internalType":"address","name":"","type":"address"}],"stateMutability":"view","type":"function"},{"inputs":[],"name":"totalCodices","outputs":[{"internalType":"uint256","name":"","type":"uint256"}],"stateMutability":"view","type":"function"}],"evm":{"bytecode":{"linkReferences":{},"object":"6080806040523461002857600080546001600160a01b03191633179055612dab908161002e8239f35b600080fdfe6108a0604052600436101561001357600080fd5b60003560e01c80630cb6aaf114612a90578063637eea1914612a6757806383361522146124e757806389b6fbc7146104e2578063c212d16b146104c45763dbc214241461005f57600080fd5b346104bf5760203660031901126104bf576004356001600160401b0381116104bf57366023820112156104bf5736816004013591602401916100a092612cba565b60405181818093516020819301916100b792612c45565b81016001815203602001902080610800526100d190612b9f565b610800516001016100e190612b9f565b61072052610800516002016100f590612b9f565b60e0526108005160030161010890612b9f565b6106e0526108005160040161011c90612b9f565b6108005160050161012c90612b9f565b6108005160060161013c90612b9f565b6108005160070161014c90612b9f565b6108005160080161015c90612b9f565b6108005160090161016c90612b9f565b61080051600a0161017c90612b9f565b9161080051600b0161018d90612b9f565b9361080051600c0161019e90612b9f565b9561080051600d016101af90612b9f565b9761080051600e016101c090612b9f565b9961080051600f016101d190612b9f565b9b610800516010016101e290612b9f565b61026052610800516011016101f690612b9f565b60c0526108005160120161020990612b9f565b6107a0526108005160130161021d90612b9f565b610540526108005160140161023190612b9f565b60a0526108005160150161024490612b9f565b610820526108005160160161025890612b9f565b6101e0526108005160170161026c90612b9f565b6107e0526040518061052052610300809152610520510161028c91612c68565b61052051808203906020015261072051906102a691612c68565b61052051808203906040015260e051906102bf91612c68565b6105205180820390606001526106e051906102d991612c68565b6105205180820390608001526102ee91612c68565b610520518082039060a0015261030391612c68565b610520518082039060c0015261031891612c68565b610520518082039060e0015261032d91612c68565b6105205180820390610100015261034391612c68565b6105205180820390610120015261035991612c68565b6105205180820390610140015261036f91612c68565b6105205180820390610160015261038591612c68565b6105205180820390610180015261039b91612c68565b61052051808203906101a001526103b191612c68565b61052051808203906101c001526103c791612c68565b61052051808203906101e001526103dd91612c68565b6105205180820390610200015261026051906103f891612c68565b6105205180820390610220015260c0519061041291612c68565b610520518082039061024001526107a0519061042d91612c68565b61052051808203906102600152610540519061044891612c68565b6105205180820390610280015260a0519061046291612c68565b61052051808203906102a00152610820519061047d91612c68565b61052051808203906102c001526101e0519061049891612c68565b61052051808203906102e0015261052051906107e051906104b891612c68565b0361052051f35b600080fd5b346104bf5760003660031901126104bf576020600254604051908152f35b346104bf576103203660031901126104bf576004356001600160401b0381116104bf57610513903690600401612c8d565b610660526080526024356001600160401b0381116104bf57610539903690600401612c8d565b61086052610880526044356001600160401b0381116104bf57610560903690600401612c8d565b610460526104e0526064356001600160401b0381116104bf57610587903690600401612c8d565b61048052610180526001600160401b03608435116104bf576105ae36608435600401612c8d565b6104a052610360526001600160401b0360a435116104bf576105d53660a435600401612c8d565b6105a0526105e0526001600160401b0360c435116104bf576105fc3660c435600401612c8d565b6102e0526102c0526001600160401b0360e435116104bf576106233660e435600401612c8d565b6103a052610440526001600160401b0361010435116104bf5761064c3661010435600401612c8d565b61064052610240526001600160401b0361012435116104bf576106753661012435600401612c8d565b61020052610760526001600160401b0361014435116104bf5761069e3661014435600401612c8d565b6104c052610620526001600160401b0361016435116104bf576106c73661016435600401612c8d565b61012052610580526001600160401b0361018435116104bf576106f03661018435600401612c8d565b6107c052610500526001600160401b036101a435116104bf57610719366101a435600401612c8d565b6105c052610280526001600160401b036101c435116104bf57610742366101c435600401612c8d565b61060052610560526001600160401b036101e435116104bf5761076b366101e435600401612c8d565b61034052610840526001600160401b0361020435116104bf576107943661020435600401612c8d565b61022052610380526001600160401b0361022435116104bf576107bd3661022435600401612c8d565b6106c052610300526001600160401b0361024435116104bf576107e63661024435600401612c8d565b6101a0526102a0526001600160401b0361026435116104bf5761080f3661026435600401612c8d565b61070052610400526001600160401b0361028435116104bf576108383661028435600401612c8d565b61014052610780526001600160401b036102a435116104bf57610861366102a435600401612c8d565b610100526106a0526001600160401b036102c435116104bf5761088a366102c435600401612c8d565b6103c052610160526001600160401b036102e435116104bf576108b3366102e435600401612c8d565b610320526103e0526001600160401b0361030435116104bf576108dc3661030435600401612c8d565b610420526101c0526000546001600160a01b031633036124b4576109066040518061068052612b62565b610917366108605161088051612cba565b610680515261092d36610460516104e051612cba565b6020610680510152610946366104805161018051612cba565b604061068051015261095f366104a05161036051612cba565b6060610680510152610978366105a0516105e051612cba565b6080610680510152610991366102e0516102c051612cba565b60a06106805101526109aa366103a05161044051612cba565b60c06106805101526109c3366106405161024051612cba565b60e06106805101526109dc366102005161076051612cba565b6101006106805101526109f6366104c05161062051612cba565b610120610680510152610a10366101205161058051612cba565b610140610680510152610a2a366107c05161050051612cba565b610160610680510152610a44366105c05161028051612cba565b610180610680510152610a5e366106005161056051612cba565b6101a0610680510152610a78366103405161084051612cba565b6101c0610680510152610a92366102205161038051612cba565b6101e0610680510152610aac366106c05161030051612cba565b610200610680510152610ac6366101a0516102a051612cba565b610220610680510152610ae0366107005161040051612cba565b610240610680510152610afa366101405161078051612cba565b610260610680510152610b1436610100516106a051612cba565b610280610680510152610b2e366103c05161016051612cba565b6102a0610680510152610b4836610320516103e051612cba565b6102c0610680510152610b6236610420516101c051612cba565b6102e06106805101526040516106605160805182376001610660518201526020816106605181010301902061068051518051906001600160401b0382116118d8578190610bb982610bb38654612b28565b86612d00565b602090601f83116001146124485760009261243d575b50508160011b916000199060031b1c19161781555b60206106805101518051906001600160401b0382116118d8578190610c1982610c106001870154612b28565b60018701612d00565b602090601f83116001146123cb576000926123c0575b50508160011b916000199060031b1c19161760018201555b60406106805101518051906001600160401b0382116118d8578190610c7c82610c736002870154612b28565b60028701612d00565b602090601f831160011461234e57600092612343575b50508160011b916000199060031b1c19161760028201555b60606106805101518051906001600160401b0382116118d8578190610cdf82610cd66003870154612b28565b60038701612d00565b602090601f83116001146122d1576000926122c6575b50508160011b916000199060031b1c19161760038201555b60806106805101518051906001600160401b0382116118d8578190610d4282610d396004870154612b28565b60048701612d00565b602090601f831160011461225457600092612249575b50508160011b916000199060031b1c19161760048201555b60a06106805101518051906001600160401b0382116118d8578190610da582610d9c6005870154612b28565b60058701612d00565b602090601f83116001146121d7576000926121cc575b50508160011b916000199060031b1c19161760058201555b60c06106805101518051906001600160401b0382116118d8578190610e0882610dff6006870154612b28565b60068701612d00565b602090601f831160011461215a5760009261214f575b50508160011b916000199060031b1c19161760068201555b60e06106805101518051906001600160401b0382116118d8578190610e6b82610e626007870154612b28565b60078701612d00565b602090601f83116001146120dd576000926120d2575b50508160011b916000199060031b1c19161760078201555b6101006106805101518051906001600160401b0382116118d8578190610ecf82610ec66008870154612b28565b60088701612d00565b602090601f831160011461206057600092612055575b50508160011b916000199060031b1c19161760088201555b6101206106805101518051906001600160401b0382116118d8578190610f3382610f2a6009870154612b28565b60098701612d00565b602090601f8311600114611fe357600092611fd8575b50508160011b916000199060031b1c19161760098201555b6101406106805101518051906001600160401b0382116118d8578190610f9782610f8e600a870154612b28565b600a8701612d00565b602090601f8311600114611f6657600092611f5b575b50508160011b916000199060031b1c191617600a8201555b6101606106805101518051906001600160401b0382116118d8578190610ffb82610ff2600b870154612b28565b600b8701612d00565b602090601f8311600114611ee957600092611ede575b50508160011b916000199060031b1c191617600b8201555b6101806106805101518051906001600160401b0382116118d857819061105f82611056600c870154612b28565b600c8701612d00565b602090601f8311600114611e6c57600092611e61575b50508160011b916000199060031b1c191617600c8201555b6101a06106805101518051906001600160401b0382116118d85781906110c3826110ba600d870154612b28565b600d8701612d00565b602090601f8311600114611def57600092611de4575b50508160011b916000199060031b1c191617600d8201555b6101c06106805101518051906001600160401b0382116118d85781906111278261111e600e870154612b28565b600e8701612d00565b602090601f8311600114611d7257600092611d67575b50508160011b916000199060031b1c191617600e8201555b6101e06106805101518051906001600160401b0382116118d857819061118b82611182600f870154612b28565b600f8701612d00565b602090601f8311600114611cf557600092611cea575b50508160011b916000199060031b1c191617600f8201555b6102006106805101518051906001600160401b0382116118d85781906111ef826111e66010870154612b28565b60108701612d00565b602090601f8311600114611c7857600092611c6d575b50508160011b916000199060031b1c19161760108201555b6102206106805101518051906001600160401b0382116118d85781906112538261124a6011870154612b28565b60118701612d00565b602090601f8311600114611bfb57600092611bf0575b50508160011b916000199060031b1c19161760118201555b6102406106805101518051906001600160401b0382116118d85781906112b7826112ae6012870154612b28565b60128701612d00565b602090601f8311600114611b7e57600092611b73575b50508160011b916000199060031b1c19161760128201555b6102606106805101518051906001600160401b0382116118d857819061131b826113126013870154612b28565b60138701612d00565b602090601f8311600114611b0157600092611af6575b50508160011b916000199060031b1c19161760138201555b6102806106805101518051906001600160401b0382116118d857819061137f826113766014870154612b28565b60148701612d00565b602090601f8311600114611a8457600092611a79575b50508160011b916000199060031b1c19161760148201555b6102a06106805101518051906001600160401b0382116118d85781906113e3826113da6015870154612b28565b60158701612d00565b602090601f8311600114611a07576000926119fc575b50508160011b916000199060031b1c19161760158201555b6102c06106805101518051906001600160401b0382116118d85781906114478261143e6016870154612b28565b60168701612d00565b602090601f831160011461198a5760009261197f575b50508160011b916000199060031b1c19161760168201555b6102e06106805101518051906001600160401b0382116118d8576114a9826114a06017860154612b28565b60178601612d00565b602090601f831160011461190f576017929160009183611904575b50508160011b916000199060031b1c1916179101555b600254680100000000000000008110156118d8578060016114fe9201600255612adb565b6118ee57610660516001600160401b0381116118d857611528906115228354612b28565b83612d00565b60009061066051601f811160011461186c575090600061066051918261185f575b508160011b916000199060031b1c19161790555b6103206040518061074052527feb80ac06c78797fa4a3c4725d90b280bb3340a453e771eeee48ac90dd7e112cb61183561181b6118016117e76117cd6117b361179961177f61176561174b6117316117176116fd6116e36116c96116af61169561167c61166361164a6116316116186115ff6115e6610320610740510161066051608051612d54565b6107405160208183039101526108605161088051612d54565b610740516040818303910152610460516104e051612d54565b6107405160608183039101526104805161018051612d54565b6107405160808183039101526104a05161036051612d54565b6107405160a08183039101526105a0516105e051612d54565b6107405160c08183039101526102e0516102c051612d54565b6107405160e08183039101526103a05161044051612d54565b610740516101008183039101526106405161024051612d54565b610740516101208183039101526102005161076051612d54565b610740516101408183039101526104c05161062051612d54565b610740516101608183039101526101205161058051612d54565b610740516101808183039101526107c05161050051612d54565b610740516101a08183039101526105c05161028051612d54565b610740516101c08183039101526106005161056051612d54565b610740516101e08183039101526103405161084051612d54565b610740516102008183039101526102205161038051612d54565b610740516102208183039101526106c05161030051612d54565b610740516102408183039101526101a0516102a051612d54565b610740516102608183039101526107005161040051612d54565b610740516102808183039101526101405161078051612d54565b610740516102a0818303910152610100516106a051612d54565b610740516102c08183039101526103c05161016051612d54565b610740516102e0818303910152610320516103e051612d54565b610740516103008183039101526118576107405191610420516101c051612d54565b0361074051a1005b9050608051013583611549565b816000526020600020600093608051905b601f19841686106118c057600194955083601f198116106118a6575b505050811b01905561155d565b0135600019600384901b60f8161c19169055838080611899565b9160206001819285850135815501930195019461187d565b634e487b7160e01b600052604160045260246000fd5b634e487b7160e01b600052600060045260246000fd5b0151905084806114c4565b906017840160005260206000209160005b601f19851681106119675750918391600193601795601f1981161061194e575b505050811b019101556114da565b015160001960f88460031b161c19169055848080611940565b91926020600181928685015181550194019201611920565b01519050838061145d565b9250601684016000526020600020906000935b601f19841685106119e1576001945083601f198116106119c8575b505050811b016016820155611475565b015160001960f88460031b161c191690558380806119b8565b8181015183556020948501946001909301929091019061199d565b0151905083806113f9565b9250601584016000526020600020906000935b601f1984168510611a5e576001945083601f19811610611a45575b505050811b016015820155611411565b015160001960f88460031b161c19169055838080611a35565b81810151835560209485019460019093019290910190611a1a565b015190508380611395565b9250601484016000526020600020906000935b601f1984168510611adb576001945083601f19811610611ac2575b505050811b0160148201556113ad565b015160001960f88460031b161c19169055838080611ab2565b81810151835560209485019460019093019290910190611a97565b015190508380611331565b9250601384016000526020600020906000935b601f1984168510611b58576001945083601f19811610611b3f575b505050811b016013820155611349565b015160001960f88460031b161c19169055838080611b2f565b81810151835560209485019460019093019290910190611b14565b0151905083806112cd565b9250601284016000526020600020906000935b601f1984168510611bd5576001945083601f19811610611bbc575b505050811b0160128201556112e5565b015160001960f88460031b161c19169055838080611bac565b81810151835560209485019460019093019290910190611b91565b015190508380611269565b9250601184016000526020600020906000935b601f1984168510611c52576001945083601f19811610611c39575b505050811b016011820155611281565b015160001960f88460031b161c19169055838080611c29565b81810151835560209485019460019093019290910190611c0e565b015190508380611205565b9250601084016000526020600020906000935b601f1984168510611ccf576001945083601f19811610611cb6575b505050811b01601082015561121d565b015160001960f88460031b161c19169055838080611ca6565b81810151835560209485019460019093019290910190611c8b565b0151905083806111a1565b9250600f84016000526020600020906000935b601f1984168510611d4c576001945083601f19811610611d33575b505050811b01600f8201556111b9565b015160001960f88460031b161c19169055838080611d23565b81810151835560209485019460019093019290910190611d08565b01519050838061113d565b9250600e84016000526020600020906000935b601f1984168510611dc9576001945083601f19811610611db0575b505050811b01600e820155611155565b015160001960f88460031b161c19169055838080611da0565b81810151835560209485019460019093019290910190611d85565b0151905083806110d9565b9250600d84016000526020600020906000935b601f1984168510611e46576001945083601f19811610611e2d575b505050811b01600d8201556110f1565b015160001960f88460031b161c19169055838080611e1d565b81810151835560209485019460019093019290910190611e02565b015190508380611075565b9250600c84016000526020600020906000935b601f1984168510611ec3576001945083601f19811610611eaa575b505050811b01600c82015561108d565b015160001960f88460031b161c19169055838080611e9a565b81810151835560209485019460019093019290910190611e7f565b015190508380611011565b9250600b84016000526020600020906000935b601f1984168510611f40576001945083601f19811610611f27575b505050811b01600b820155611029565b015160001960f88460031b161c19169055838080611f17565b81810151835560209485019460019093019290910190611efc565b015190508380610fad565b9250600a84016000526020600020906000935b601f1984168510611fbd576001945083601f19811610611fa4575b505050811b01600a820155610fc5565b015160001960f88460031b161c19169055838080611f94565b81810151835560209485019460019093019290910190611f79565b015190508380610f49565b9250600984016000526020600020906000935b601f198416851061203a576001945083601f19811610612021575b505050811b016009820155610f61565b015160001960f88460031b161c19169055838080612011565b81810151835560209485019460019093019290910190611ff6565b015190508380610ee5565b9250600884016000526020600020906000935b601f19841685106120b7576001945083601f1981161061209e575b505050811b016008820155610efd565b015160001960f88460031b161c1916905583808061208e565b81810151835560209485019460019093019290910190612073565b015190508380610e81565b9250600784016000526020600020906000935b601f1984168510612134576001945083601f1981161061211b575b505050811b016007820155610e99565b015160001960f88460031b161c1916905583808061210b565b818101518355602094850194600190930192909101906120f0565b015190508380610e1e565b9250600684016000526020600020906000935b601f19841685106121b1576001945083601f19811610612198575b505050811b016006820155610e36565b015160001960f88460031b161c19169055838080612188565b8181015183556020948501946001909301929091019061216d565b015190508380610dbb565b9250600584016000526020600020906000935b601f198416851061222e576001945083601f19811610612215575b505050811b016005820155610dd3565b015160001960f88460031b161c19169055838080612205565b818101518355602094850194600190930192909101906121ea565b015190508380610d58565b9250600484016000526020600020906000935b601f19841685106122ab576001945083601f19811610612292575b505050811b016004820155610d70565b015160001960f88460031b161c19169055838080612282565b81810151835560209485019460019093019290910190612267565b015190508380610cf5565b9250600384016000526020600020906000935b601f1984168510612328576001945083601f1981161061230f575b505050811b016003820155610d0d565b015160001960f88460031b161c191690558380806122ff565b818101518355602094850194600190930192909101906122e4565b015190508380610c92565b9250600284016000526020600020906000935b601f19841685106123a5576001945083601f1981161061238c575b505050811b016002820155610caa565b015160001960f88460031b161c1916905583808061237c565b81810151835560209485019460019093019290910190612361565b015190508380610c2f565b9250600184016000526020600020906000935b601f1984168510612422576001945083601f19811610612409575b505050811b016001820155610c47565b015160001960f88460031b161c191690558380806123f9565b818101518355602094850194600190930192909101906123de565b015190508380610bcf565b9250836000526020600020906000935b601f1984168510612499576001945083601f19811610612480575b505050811b018155610be4565b015160001960f88460031b161c19169055838080612473565b81810151835560209485019460019093019290910190612458565b60405162461bcd60e51b815260206004820152600b60248201526a139bdd081cdd195dd85c9960aa1b6044820152606490fd5b346104bf5760203660031901126104bf576004356001600160401b0381116104bf57612517903690600401612c8d565b9060405161252481612b62565b60608152602081016060905260408101606090526060810160609052608081016060905260a081016060905260c081016060905260e08101606090526101008101606090526101208101606090526101408101606090526101608101606090526101808101606090526101a08101606090526101c08101606090526101e08101606090526102008101606090526102208101606090526102408101606090526102608101606090526102808101606090526102a08101606090526102c08101606090526102e001606090528160405192839283378101600181520360200190206040519061261182612b62565b61261a81612b9f565b825261262860018201612b9f565b602083015261263960028201612b9f565b604083015261264a60038201612b9f565b606083015261265b60048201612b9f565b608083015261266c60058201612b9f565b60a083015261267d60068201612b9f565b60c083015261268e60078201612b9f565b60e083015261269f60088201612b9f565b6101008301526126b160098201612b9f565b6101208301526126c3600a8201612b9f565b6101408301526126d5600b8201612b9f565b6101608301526126e7600c8201612b9f565b6101808301526126f9600d8201612b9f565b6101a083015261270b600e8201612b9f565b6101c083015261271d600f8201612b9f565b6101e083015261272f60108201612b9f565b61020083015261274160118201612b9f565b61022083015261275360128201612b9f565b61024083015261276560138201612b9f565b61026083015261277760148201612b9f565b61028083015261278960158201612b9f565b6102a083015261279b60168201612b9f565b6102c08301526017016127ad90612b9f565b6102e0820152604051809160208252805160208301610300905261032083016127d591612c68565b6020820151838203601f190160408501526127f09190612c68565b6040820151838203601f1901606085015261280b9190612c68565b6060820151838203601f190160808501526128269190612c68565b6080820151838203601f190160a08501526128419190612c68565b60a0820151838203601f190160c085015261285c9190612c68565b60c0820151838203601f190160e08501526128779190612c68565b60e0820151838203601f19016101008501526128939190612c68565b610100820151838203601f19016101208501526128b09190612c68565b610120820151838203601f19016101408501526128cd9190612c68565b610140820151838203601f19016101608501526128ea9190612c68565b610160820151838203601f19016101808501526129079190612c68565b610180820151838203601f19016101a08501526129249190612c68565b6101a0820151838203601f19016101c08501526129419190612c68565b6101c0820151838203601f19016101e085015261295e9190612c68565b6101e0820151838203601f190161020085015261297b9190612c68565b610200820151838203601f19016102208501526129989190612c68565b610220820151838203601f19016102408501526129b59190612c68565b610240820151838203601f19016102608501526129d29190612c68565b610260820151838203601f19016102808501526129ef9190612c68565b610280820151838203601f19016102a0850152612a0c9190612c68565b6102a0820151838203601f19016102c0850152612a299190612c68565b6102c0820151838203601f19016102e0850152612a469190612c68565b906102e0015190601f1983820301610300840152612a6391612c68565b0390f35b346104bf5760003660031901126104bf576000546040516001600160a01b039091168152602090f35b346104bf5760203660031901126104bf576004356002548110156104bf57612ab790612adb565b6118ee57612ac7612a6391612b9f565b604051918291602083526020830190612c68565b600254811015612b125760026000527f405787fa12a823e0f2b7631cc41b3ba8828b3321ca811111fa75cd3aa3bb5ace0190600090565b634e487b7160e01b600052603260045260246000fd5b90600182811c92168015612b58575b6020831014612b4257565b634e487b7160e01b600052602260045260246000fd5b91607f1691612b37565b61030081019081106001600160401b038211176118d857604052565b90601f801991011681019081106001600160401b038211176118d857604052565b9060405191826000825492612bb384612b28565b908184526001948581169081600014612c225750600114612bdf575b5050612bdd92500383612b7e565b565b9093915060005260209081600020936000915b818310612c0a575050612bdd93508201013880612bcf565b85548884018501529485019487945091830191612bf2565b915050612bdd94506020925060ff191682840152151560051b8201013880612bcf565b60005b838110612c585750506000910152565b8181015183820152602001612c48565b90602091612c8181518092818552858086019101612c45565b601f01601f1916010190565b9181601f840112156104bf578235916001600160401b0383116104bf57602083818601950101116104bf57565b9291926001600160401b0382116118d85760405191612ce3601f8201601f191660200184612b7e565b8294818452818301116104bf578281602093846000960137010152565b90601f8111612d0e57505050565b600091825260208220906020601f850160051c83019410612d4a575b601f0160051c01915b828110612d3f57505050565b818155600101612d33565b9092508290612d2a565b908060209392818452848401376000828201840152601f01601f191601019056fea26469706673582212209ea23cb0dcba77e931d07de0a7636b69cfaf9162bd244265612c77a2be446b6664736f6c63430008140033","opcodes":"PUSH1 0x80 DUP1 PUSH1 0x40 MSTORE CALLVALUE PUSH2 0x28 JUMPI PUSH1 0x0 DUP1 SLOAD PUSH1 0x1 PUSH1 0x1 PUSH1 0xA0 SHL SUB NOT AND CALLER OR SWAP1 SSTORE PUSH2 0x2DAB SWAP1 DUP2 PUSH2 0x2E DUP3 CODECOPY RETURN JUMPDEST PUSH1 0x0 DUP1 REVERT INVALID PUSH2 0x8A0 PUSH1 0x40 MSTORE PUSH1 0x4 CALLDATASIZE LT ISZERO PUSH2 0x13 JUMPI PUSH1 0x0 DUP1 REVERT JUMPDEST PUSH1 0x0 CALLDATALOAD PUSH1 0xE0 SHR DUP1 PUSH4 0xCB6AAF1 EQ PUSH2 0x2A90 JUMPI DUP1 PUSH4 0x637EEA19 EQ PUSH2 0x2A67 JUMPI DUP1 PUSH4 0x83361522 EQ PUSH2 0x24E7 JUMPI DUP1 PUSH4 0x89B6FBC7 EQ PUSH2 0x4E2 JUMPI DUP1 PUSH4 0xC212D16B EQ PUSH2 0x4C4 JUMPI PUSH4 0xDBC21424 EQ PUSH2 0x5F JUMPI PUSH1 0x0 DUP1 REVERT JUMPDEST CALLVALUE PUSH2 0x4BF JUMPI PUSH1 0x20 CALLDATASIZE PUSH1 0x3 NOT ADD SLT PUSH2 0x4BF JUMPI PUSH1 0x4 CALLDATALOAD PUSH1 0x1 PUSH1 0x1 PUSH1 0x40 SHL SUB DUP2 GT PUSH2 0x4BF JUMPI CALLDATASIZE PUSH1 0x23 DUP3 ADD SLT ISZERO PUSH2 0x4BF JUMPI CALLDATASIZE DUP2 PUSH1 0x4 ADD CALLDATALOAD SWAP2 PUSH1 0x24 ADD SWAP2 PUSH2 0xA0 SWAP3 PUSH2 0x2CBA JUMP JUMPDEST PUSH1 0x40 MLOAD DUP2 DUP2 DUP1 SWAP4 MLOAD PUSH1 0x20 DUP2 SWAP4 ADD SWAP2 PUSH2 0xB7 SWAP3 PUSH2 0x2C45 JUMP JUMPDEST DUP2 ADD PUSH1 0x1 DUP2 MSTORE SUB PUSH1 0x20 ADD SWAP1 KECCAK256 DUP1 PUSH2 0x800 MSTORE PUSH2 0xD1 SWAP1 PUSH2 0x2B9F JUMP JUMPDEST PUSH2 0x800 MLOAD PUSH1 0x1 ADD PUSH2 0xE1 SWAP1 PUSH2 0x2B9F JUMP JUMPDEST PUSH2 0x720 MSTORE PUSH2 0x800 MLOAD PUSH1 0x2 ADD PUSH2 0xF5 SWAP1 PUSH2 0x2B9F JUMP JUMPDEST PUSH1 0xE0 MSTORE PUSH2 0x800 MLOAD PUSH1 0x3 ADD PUSH2 0x108 SWAP1 PUSH2 0x2B9F JUMP JUMPDEST PUSH2 0x6E0 MSTORE PUSH2 0x800 MLOAD PUSH1 0x4 ADD PUSH2 0x11C SWAP1 PUSH2 0x2B9F JUMP JUMPDEST PUSH2 0x800 MLOAD PUSH1 0x5 ADD PUSH2 0x12C SWAP1 PUSH2 0x2B9F JUMP JUMPDEST PUSH2 0x800 MLOAD PUSH1 0x6 ADD PUSH2 0x13C SWAP1 PUSH2 0x2B9F JUMP JUMPDEST PUSH2 0x800 MLOAD PUSH1 0x7 ADD PUSH2 0x14C SWAP1 PUSH2 0x2B9F JUMP JUMPDEST PUSH2 0x800 MLOAD PUSH1 0x8 ADD PUSH2 0x15C SWAP1 PUSH2 0x2B9F JUMP JUMPDEST PUSH2 0x800 MLOAD PUSH1 0x9 ADD PUSH2 0x16C SWAP1 PUSH2 0x2B9F JUMP JUMPDEST PUSH2 0x800 MLOAD PUSH1 0xA ADD PUSH2 0x17C SWAP1 PUSH2 0x2B9F JUMP JUMPDEST SWAP2 PUSH2 0x800 MLOAD PUSH1 0xB ADD PUSH2 0x18D SWAP1 PUSH2 0x2B9F JUMP JUMPDEST SWAP4 PUSH2 0x800 MLOAD PUSH1 0xC ADD PUSH2 0x19E SWAP1 PUSH2 0x2B9F JUMP JUMPDEST SWAP6 PUSH2 0x800 MLOAD PUSH1 0xD ADD PUSH2 0x1AF SWAP1 PUSH2 0x2B9F JUMP JUMPDEST SWAP8 PUSH2 0x800 MLOAD PUSH1 0xE ADD PUSH2 0x1C0 SWAP1 PUSH2 0x2B9F JUMP JUMPDEST SWAP10 PUSH2 0x800 MLOAD PUSH1 0xF ADD PUSH2 0x1D1 SWAP1 PUSH2 0x2B9F JUMP JUMPDEST SWAP12 PUSH2 0x800 MLOAD PUSH1 0x10 ADD PUSH2 0x1E2 SWAP1 PUSH2 0x2B9F JUMP JUMPDEST PUSH2 0x260 MSTORE PUSH2 0x800 MLOAD PUSH1 0x11 ADD PUSH2 0x1F6 SWAP1 PUSH2 0x2B9F JUMP JUMPDEST PUSH1 0xC0 MSTORE PUSH2 0x800 MLOAD PUSH1 0x12 ADD PUSH2 0x209 SWAP1 PUSH2 0x2B9F JUMP JUMPDEST PUSH2 0x7A0 MSTORE PUSH2 0x800 MLOAD PUSH1 0x13 ADD PUSH2 0x21D SWAP1 PUSH2 0x2B9F JUMP JUMPDEST PUSH2 0x540 MSTORE PUSH2 0x800 MLOAD PUSH1 0x14 ADD PUSH2 0x231 SWAP1 PUSH2 0x2B9F JUMP JUMPDEST PUSH1 0xA0 MSTORE PUSH2 0x800 MLOAD PUSH1 0x15 ADD PUSH2 0x244 SWAP1 PUSH2 0x2B9F JUMP JUMPDEST PUSH2 0x820 MSTORE PUSH2 0x800 MLOAD PUSH1 0x16 ADD PUSH2 0x258 SWAP1 PUSH2 0x2B9F JUMP JUMPDEST PUSH2 0x1E0 MSTORE PUSH2 0x800 MLOAD PUSH1 0x17 ADD PUSH2 0x26C SWAP1 PUSH2 0x2B9F JUMP JUMPDEST PUSH2 0x7E0 MSTORE PUSH1 0x40 MLOAD DUP1 PUSH2 0x520 MSTORE PUSH2 0x300 DUP1 SWAP2 MSTORE PUSH2 0x520 MLOAD ADD PUSH2 0x28C SWAP2 PUSH2 0x2C68 JUMP JUMPDEST PUSH2 0x520 MLOAD DUP1 DUP3 SUB SWAP1 PUSH1 0x20 ADD MSTORE PUSH2 0x720 MLOAD SWAP1 PUSH2 0x2A6 SWAP2 PUSH2 0x2C68 JUMP JUMPDEST PUSH2 0x520 MLOAD DUP1 DUP3 SUB SWAP1 PUSH1 0x40 ADD MSTORE PUSH1 0xE0 MLOAD SWAP1 PUSH2 0x2BF SWAP2 PUSH2 0x2C68 JUMP JUMPDEST PUSH2 0x520 MLOAD DUP1 DUP3 SUB SWAP1 PUSH1 0x60 ADD MSTORE PUSH2 0x6E0 MLOAD SWAP1 PUSH2 0x2D9 SWAP2 PUSH2 0x2C68 JUMP JUMPDEST PUSH2 0x520 MLOAD DUP1 DUP3 SUB SWAP1 PUSH1 0x80 ADD MSTORE PUSH2 0x2EE SWAP2 PUSH2 0x2C68 JUMP JUMPDEST PUSH2 0x520 MLOAD DUP1 DUP3 SUB SWAP1 PUSH1 0xA0 ADD MSTORE PUSH2 0x303 SWAP2 PUSH2 0x2C68 JUMP JUMPDEST PUSH2 0x520 MLOAD DUP1 DUP3 SUB SWAP1 PUSH1 0xC0 ADD MSTORE PUSH2 0x318 SWAP2 PUSH2 0x2C68 JUMP JUMPDEST PUSH2 0x520 MLOAD DUP1 DUP3 SUB SWAP1 PUSH1 0xE0 ADD MSTORE PUSH2 0x32D SWAP2 PUSH2 0x2C68 JUMP JUMPDEST PUSH2 0x520 MLOAD DUP1 DUP3 SUB SWAP1 PUSH2 0x100 ADD MSTORE PUSH2 0x343 SWAP2 PUSH2 0x2C68 JUMP JUMPDEST PUSH2 0x520 MLOAD DUP1 DUP3 SUB SWAP1 PUSH2 0x120 ADD MSTORE PUSH2 0x359 SWAP2 PUSH2 0x2C68 JUMP JUMPDEST PUSH2 0x520 MLOAD DUP1 DUP3 SUB SWAP1 PUSH2 0x140 ADD MSTORE PUSH2 0x36F SWAP2 PUSH2 0x2C68 JUMP JUMPDEST PUSH2 0x520 MLOAD DUP1 DUP3 SUB SWAP1 PUSH2 0x160 ADD MSTORE PUSH2 0x385 SWAP2 PUSH2 0x2C68 JUMP JUMPDEST PUSH2 0x520 MLOAD DUP1 DUP3 SUB SWAP1 PUSH2 0x180 ADD MSTORE PUSH2 0x39B SWAP2 PUSH2 0x2C68 JUMP JUMPDEST PUSH2 0x520 MLOAD DUP1 DUP3 SUB SWAP1 PUSH2 0x1A0 ADD MSTORE PUSH2 0x3B1 SWAP2 PUSH2 0x2C68 JUMP JUMPDEST PUSH2 0x520 MLOAD DUP1 DUP3 SUB SWAP1 PUSH2 0x1C0 ADD MSTORE PUSH2 0x3C7 SWAP2 PUSH2 0x2C68 JUMP JUMPDEST PUSH2 0x520 MLOAD DUP1 DUP3 SUB SWAP1 PUSH2 0x1E0 ADD MSTORE PUSH2 0x3DD SWAP2 PUSH2 0x2C68 JUMP JUMPDEST PUSH2 0x520 MLOAD DUP1 DUP3 SUB SWAP1 PUSH2 0x200 ADD MSTORE PUSH2 0x260 MLOAD SWAP1 PUSH2 0x3F8 SWAP2 PUSH2 0x2C68 JUMP JUMPDEST PUSH2 0x520 MLOAD DUP1 DUP3 SUB SWAP1 PUSH2 0x220 ADD MSTORE PUSH1 0xC0 MLOAD SWAP1 PUSH2 0x412 SWAP2 PUSH2 0x2C68 JUMP JUMPDEST PUSH2 0x520 MLOAD DUP1 DUP3 SUB SWAP1 PUSH2 0x240 ADD MSTORE PUSH2 0x7A0 MLOAD SWAP1 PUSH2 0x42D SWAP2 PUSH2 0x2C68 JUMP JUMPDEST PUSH2 0x520 MLOAD DUP1 DUP3 SUB SWAP1 PUSH2 0x260 ADD MSTORE PUSH2 0x540 MLOAD SWAP1 PUSH2 0x448 SWAP2 PUSH2 0x2C68 JUMP JUMPDEST PUSH2 0x520 MLOAD DUP1 DUP3 SUB SWAP1 PUSH2 0x280 ADD MSTORE PUSH1 0xA0 MLOAD SWAP1 PUSH2 0x462 SWAP2 PUSH2 0x2C68 JUMP JUMPDEST PUSH2 0x520 MLOAD DUP1 DUP3 SUB SWAP1 PUSH2 0x2A0 ADD MSTORE PUSH2 0x820 MLOAD SWAP1 PUSH2 0x47D SWAP2 PUSH2 0x2C68 JUMP JUMPDEST PUSH2 0x520 MLOAD DUP1 DUP3 SUB SWAP1 PUSH2 0x2C0 ADD MSTORE PUSH2 0x1E0 MLOAD SWAP1 PUSH2 0x498 SWAP2 PUSH2 0x2C68 JUMP JUMPDEST PUSH2 0x520 MLOAD DUP1 DUP3 SUB SWAP1 PUSH2 0x2E0 ADD MSTORE PUSH2 0x520 MLOAD SWAP1 PUSH2 0x7E0 MLOAD SWAP1 PUSH2 0x4B8 SWAP2 PUSH2 0x2C68 JUMP JUMPDEST SUB PUSH2 0x520 MLOAD RETURN JUMPDEST PUSH1 0x0 DUP1 REVERT JUMPDEST CALLVALUE PUSH2 0x4BF JUMPI PUSH1 0x0 CALLDATASIZE PUSH1 0x3 NOT ADD SLT PUSH2 0x4BF JUMPI PUSH1 0x20 PUSH1 0x2 SLOAD PUSH1 0x40 MLOAD SWAP1 DUP2 MSTORE RETURN JUMPDEST CALLVALUE PUSH2 0x4BF JUMPI PUSH2 0x320 CALLDATASIZE PUSH1 0x3 NOT ADD SLT PUSH2 0x4BF JUMPI PUSH1 0x4 CALLDATALOAD PUSH1 0x1 PUSH1 0x1 PUSH1 0x40 SHL SUB DUP2 GT PUSH2 0x4BF JUMPI PUSH2 0x513 SWAP1 CALLDATASIZE SWAP1 PUSH1 0x4 ADD PUSH2 0x2C8D JUMP JUMPDEST PUSH2 0x660 MSTORE PUSH1 0x80 MSTORE PUSH1 0x24 CALLDATALOAD PUSH1 0x1 PUSH1 0x1 PUSH1 0x40 SHL SUB DUP2 GT PUSH2 0x4BF JUMPI PUSH2 0x539 SWAP1 CALLDATASIZE SWAP1 PUSH1 0x4 ADD PUSH2 0x2C8D JUMP JUMPDEST PUSH2 0x860 MSTORE PUSH2 0x880 MSTORE PUSH1 0x44 CALLDATALOAD PUSH1 0x1 PUSH1 0x1 PUSH1 0x40 SHL SUB DUP2 GT PUSH2 0x4BF JUMPI PUSH2 0x560 SWAP1 CALLDATASIZE SWAP1 PUSH1 0x4 ADD PUSH2 0x2C8D JUMP JUMPDEST PUSH2 0x460 MSTORE PUSH2 0x4E0 MSTORE PUSH1 0x64 CALLDATALOAD PUSH1 0x1 PUSH1 0x1 PUSH1 0x40 SHL SUB DUP2 GT PUSH2 0x4BF JUMPI PUSH2 0x587 SWAP1 CALLDATASIZE SWAP1 PUSH1 0x4 ADD PUSH2 0x2C8D JUMP JUMPDEST PUSH2 0x480 MSTORE PUSH2 0x180 MSTORE PUSH1 0x1 PUSH1 0x1 PUSH1 0x40 SHL SUB PUSH1 0x84 CALLDATALOAD GT PUSH2 0x4BF JUMPI PUSH2 0x5AE CALLDATASIZE PUSH1 0x84 CALLDATALOAD PUSH1 0x4 ADD PUSH2 0x2C8D JUMP JUMPDEST PUSH2 0x4A0 MSTORE PUSH2 0x360 MSTORE PUSH1 0x1 PUSH1 0x1 PUSH1 0x40 SHL SUB PUSH1 0xA4 CALLDATALOAD GT PUSH2 0x4BF JUMPI PUSH2 0x5D5 CALLDATASIZE PUSH1 0xA4 CALLDATALOAD PUSH1 0x4 ADD PUSH2 0x2C8D JUMP JUMPDEST PUSH2 0x5A0 MSTORE PUSH2 0x5E0 MSTORE PUSH1 0x1 PUSH1 0x1 PUSH1 0x40 SHL SUB PUSH1 0xC4 CALLDATALOAD GT PUSH2 0x4BF JUMPI PUSH2 0x5FC CALLDATASIZE PUSH1 0xC4 CALLDATALOAD PUSH1 0x4 ADD PUSH2 0x2C8D JUMP JUMPDEST PUSH2 0x2E0 MSTORE PUSH2 0x2C0 MSTORE PUSH1 0x1 PUSH1 0x1 PUSH1 0x40 SHL SUB PUSH1 0xE4 CALLDATALOAD GT PUSH2 0x4BF JUMPI PUSH2 0x623 CALLDATASIZE PUSH1 0xE4 CALLDATALOAD PUSH1 0x4 ADD PUSH2 0x2C8D JUMP JUMPDEST PUSH2 0x3A0 MSTORE PUSH2 0x440 MSTORE PUSH1 0x1 PUSH1 0x1 PUSH1 0x40 SHL SUB PUSH2 0x104 CALLDATALOAD GT PUSH2 0x4BF JUMPI PUSH2 0x64C CALLDATASIZE PUSH2 0x104 CALLDATALOAD PUSH1 0x4 ADD PUSH2 0x2C8D JUMP JUMPDEST PUSH2 0x640 MSTORE PUSH2 0x240 MSTORE PUSH1 0x1 PUSH1 0x1 PUSH1 0x40 SHL SUB PUSH2 0x124 CALLDATALOAD GT PUSH2 0x4BF JUMPI PUSH2 0x675 CALLDATASIZE PUSH2 0x124 CALLDATALOAD PUSH1 0x4 ADD PUSH2 0x2C8D JUMP JUMPDEST PUSH2 0x200 MSTORE PUSH2 0x760 MSTORE PUSH1 0x1 PUSH1 0x1 PUSH1 0x40 SHL SUB PUSH2 0x144 CALLDATALOAD GT PUSH2 0x4BF JUMPI PUSH2 0x69E CALLDATASIZE PUSH2 0x144 CALLDATALOAD PUSH1 0x4 ADD PUSH2 0x2C8D JUMP JUMPDEST PUSH2 0x4C0 MSTORE PUSH2 0x620 MSTORE PUSH1 0x1 PUSH1 0x1 PUSH1 0x40 SHL SUB PUSH2 0x164 CALLDATALOAD GT PUSH2 0x4BF JUMPI PUSH2 0x6C7 CALLDATASIZE PUSH2 0x164 CALLDATALOAD PUSH1 0x4 ADD PUSH2 0x2C8D JUMP JUMPDEST PUSH2 0x120 MSTORE PUSH2 0x580 MSTORE PUSH1 0x1 PUSH1 0x1 PUSH1 0x40 SHL SUB PUSH2 0x184 CALLDATALOAD GT PUSH2 0x4BF JUMPI PUSH2 0x6F0 CALLDATASIZE PUSH2 0x184 CALLDATALOAD PUSH1 0x4 ADD PUSH2 0x2C8D JUMP JUMPDEST PUSH2 0x7C0 MSTORE PUSH2 0x500 MSTORE PUSH1 0x1 PUSH1 0x1 PUSH1 0x40 SHL SUB PUSH2 0x1A4 CALLDATALOAD GT PUSH2 0x4BF JUMPI PUSH2 0x719 CALLDATASIZE PUSH2 0x1A4 CALLDATALOAD PUSH1 0x4 ADD PUSH2 0x2C8D JUMP JUMPDEST PUSH2 0x5C0 MSTORE PUSH2 0x280 MSTORE PUSH1 0x1 PUSH1 0x1 PUSH1 0x40 SHL SUB PUSH2 0x1C4 CALLDATALOAD GT PUSH2 0x4BF JUMPI PUSH2 0x742 CALLDATASIZE PUSH2 0x1C4 CALLDATALOAD PUSH1 0x4 ADD PUSH2 0x2C8D JUMP JUMPDEST PUSH2 0x600 MSTORE PUSH2 0x560 MSTORE PUSH1 0x1 PUSH1 0x1 PUSH1 0x40 SHL SUB PUSH2 0x1E4 CALLDATALOAD GT PUSH2 0x4BF JUMPI PUSH2 0x76B CALLDATASIZE PUSH2 0x1E4 CALLDATALOAD PUSH1 0x4 ADD PUSH2 0x2C8D JUMP JUMPDEST PUSH2 0x340 MSTORE PUSH2 0x840 MSTORE PUSH1 0x1 PUSH1 0x1 PUSH1 0x40 SHL SUB PUSH2 0x204 CALLDATALOAD GT PUSH2 0x4BF JUMPI PUSH2 0x794 CALLDATASIZE PUSH2 0x204 CALLDATALOAD PUSH1 0x4 ADD PUSH2 0x2C8D JUMP JUMPDEST PUSH2 0x220 MSTORE PUSH2 0x380 MSTORE PUSH1 0x1 PUSH1 0x1 PUSH1 0x40 SHL SUB PUSH2 0x224 CALLDATALOAD GT PUSH2 0x4BF JUMPI PUSH2 0x7BD CALLDATASIZE PUSH2 0x224 CALLDATALOAD PUSH1 0x4 ADD PUSH2 0x2C8D JUMP JUMPDEST PUSH2 0x6C0 MSTORE PUSH2 0x300 MSTORE PUSH1 0x1 PUSH1 0x1 PUSH1 0x40 SHL SUB PUSH2 0x244 CALLDATALOAD GT PUSH2 0x4BF JUMPI PUSH2 0x7E6 CALLDATASIZE PUSH2 0x244 CALLDATALOAD PUSH1 0x4 ADD PUSH2 0x2C8D JUMP JUMPDEST PUSH2 0x1A0 MSTORE PUSH2 0x2A0 MSTORE PUSH1 0x1 PUSH1 0x1 PUSH1 0x40 SHL SUB PUSH2 0x264 CALLDATALOAD GT PUSH2 0x4BF JUMPI PUSH2 0x80F CALLDATASIZE PUSH2 0x264 CALLDATALOAD PUSH1 0x4 ADD PUSH2 0x2C8D JUMP JUMPDEST PUSH2 0x700 MSTORE PUSH2 0x400 MSTORE PUSH1 0x1 PUSH1 0x1 PUSH1 0x40 SHL SUB PUSH2 0x284 CALLDATALOAD GT PUSH2 0x4BF JUMPI PUSH2 0x838 CALLDATASIZE PUSH2 0x284 CALLDATALOAD PUSH1 0x4 ADD PUSH2 0x2C8D JUMP JUMPDEST PUSH2 0x140 MSTORE PUSH2 0x780 MSTORE PUSH1 0x1 PUSH1 0x1 PUSH1 0x40 SHL SUB PUSH2 0x2A4 CALLDATALOAD GT PUSH2 0x4BF JUMPI PUSH2 0x861 CALLDATASIZE PUSH2 0x2A4 CALLDATALOAD PUSH1 0x4 ADD PUSH2 0x2C8D JUMP JUMPDEST PUSH2 0x100 MSTORE PUSH2 0x6A0 MSTORE PUSH1 0x1 PUSH1 0x1 PUSH1 0x40 SHL SUB PUSH2 0x2C4 CALLDATALOAD GT PUSH2 0x4BF JUMPI PUSH2 0x88A CALLDATASIZE PUSH2 0x2C4 CALLDATALOAD PUSH1 0x4 ADD PUSH2 0x2C8D JUMP JUMPDEST PUSH2 0x3C0 MSTORE PUSH2 0x160 MSTORE PUSH1 0x1 PUSH1 0x1 PUSH1 0x40 SHL SUB PUSH2 0x2E4 CALLDATALOAD GT PUSH2 0x4BF JUMPI PUSH2 0x8B3 CALLDATASIZE PUSH2 0x2E4 CALLDATALOAD PUSH1 0x4 ADD PUSH2 0x2C8D JUMP JUMPDEST PUSH2 0x320 MSTORE PUSH2 0x3E0 MSTORE PUSH1 0x1 PUSH1 0x1 PUSH1 0x40 SHL SUB PUSH2 0x304 CALLDATALOAD GT PUSH2 0x4BF JUMPI PUSH2 0x8DC CALLDATASIZE PUSH2 0x304 CALLDATALOAD PUSH1 0x4 ADD PUSH2 0x2C8D JUMP JUMPDEST PUSH2 0x420 MSTORE PUSH2 0x1C0 MSTORE PUSH1 0x0 SLOAD PUSH1 0x1 PUSH1 0x1 PUSH1 0xA0 SHL SUB AND CALLER SUB PUSH2 0x24B4 JUMPI PUSH2 0x906 PUSH1 0x40 MLOAD DUP1 PUSH2 0x680 MSTORE PUSH2 0x2B62 JUMP JUMPDEST PUSH2 0x917 CALLDATASIZE PUSH2 0x860 MLOAD PUSH2 0x880 MLOAD PUSH2 0x2CBA JUMP JUMPDEST PUSH2 0x680 MLOAD MSTORE PUSH2 0x92D CALLDATASIZE PUSH2 0x460 MLOAD PUSH2 0x4E0 MLOAD PUSH2 0x2CBA JUMP JUMPDEST PUSH1 0x20 PUSH2 0x680 MLOAD ADD MSTORE PUSH2 0x946 CALLDATASIZE PUSH2 0x480 MLOAD PUSH2 0x180 MLOAD PUSH2 0x2CBA JUMP JUMPDEST PUSH1 0x40 PUSH2 0x680 MLOAD ADD MSTORE PUSH2 0x95F CALLDATASIZE PUSH2 0x4A0 MLOAD PUSH2 0x360 MLOAD PUSH2 0x2CBA JUMP JUMPDEST PUSH1 0x60 PUSH2 0x680 MLOAD ADD MSTORE PUSH2 0x978 CALLDATASIZE PUSH2 0x5A0 MLOAD PUSH2 0x5E0 MLOAD PUSH2 0x2CBA JUMP JUMPDEST PUSH1 0x80 PUSH2 0x680 MLOAD ADD MSTORE PUSH2 0x991 CALLDATASIZE PUSH2 0x2E0 MLOAD PUSH2 0x2C0 MLOAD PUSH2 0x2CBA JUMP JUMPDEST PUSH1 0xA0 PUSH2 0x680 MLOAD ADD MSTORE PUSH2 0x9AA CALLDATASIZE PUSH2 0x3A0 MLOAD PUSH2 0x440 MLOAD PUSH2 0x2CBA JUMP JUMPDEST PUSH1 0xC0 PUSH2 0x680 MLOAD ADD MSTORE PUSH2 0x9C3 CALLDATASIZE PUSH2 0x640 MLOAD PUSH2 0x240 MLOAD PUSH2 0x2CBA JUMP JUMPDEST PUSH1 0xE0 PUSH2 0x680 MLOAD ADD MSTORE PUSH2 0x9DC CALLDATASIZE PUSH2 0x200 MLOAD PUSH2 0x760 MLOAD PUSH2 0x2CBA JUMP JUMPDEST PUSH2 0x100 PUSH2 0x680 MLOAD ADD MSTORE PUSH2 0x9F6 CALLDATASIZE PUSH2 0x4C0 MLOAD PUSH2 0x620 MLOAD PUSH2 0x2CBA JUMP JUMPDEST PUSH2 0x120 PUSH2 0x680 MLOAD ADD MSTORE PUSH2 0xA10 CALLDATASIZE PUSH2 0x120 MLOAD PUSH2 0x580 MLOAD PUSH2 0x2CBA JUMP JUMPDEST PUSH2 0x140 PUSH2 0x680 MLOAD ADD MSTORE PUSH2 0xA2A CALLDATASIZE PUSH2 0x7C0 MLOAD PUSH2 0x500 MLOAD PUSH2 0x2CBA JUMP JUMPDEST PUSH2 0x160 PUSH2 0x680 MLOAD ADD MSTORE PUSH2 0xA44 CALLDATASIZE PUSH2 0x5C0 MLOAD PUSH2 0x280 MLOAD PUSH2 0x2CBA JUMP JUMPDEST PUSH2 0x180 PUSH2 0x680 MLOAD ADD MSTORE PUSH2 0xA5E CALLDATASIZE PUSH2 0x600 MLOAD PUSH2 0x560 MLOAD PUSH2 0x2CBA JUMP JUMPDEST PUSH2 0x1A0 PUSH2 0x680 MLOAD ADD MSTORE PUSH2 0xA78 CALLDATASIZE PUSH2 0x340 MLOAD PUSH2 0x840 MLOAD PUSH2 0x2CBA JUMP JUMPDEST PUSH2 0x1C0 PUSH2 0x680 MLOAD ADD MSTORE PUSH2 0xA92 CALLDATASIZE PUSH2 0x220 MLOAD PUSH2 0x380 MLOAD PUSH2 0x2CBA JUMP JUMPDEST PUSH2 0x1E0 PUSH2 0x680 MLOAD ADD MSTORE PUSH2 0xAAC CALLDATASIZE PUSH2 0x6C0 MLOAD PUSH2 0x300 MLOAD PUSH2 0x2CBA JUMP JUMPDEST PUSH2 0x200 PUSH2 0x680 MLOAD ADD MSTORE PUSH2 0xAC6 CALLDATASIZE PUSH2 0x1A0 MLOAD PUSH2 0x2A0 MLOAD PUSH2 0x2CBA JUMP JUMPDEST PUSH2 0x220 PUSH2 0x680 MLOAD ADD MSTORE PUSH2 0xAE0 CALLDATASIZE PUSH2 0x700 MLOAD PUSH2 0x400 MLOAD PUSH2 0x2CBA JUMP JUMPDEST PUSH2 0x240 PUSH2 0x680 MLOAD ADD MSTORE PUSH2 0xAFA CALLDATASIZE PUSH2 0x140 MLOAD PUSH2 0x780 MLOAD PUSH2 0x2CBA JUMP JUMPDEST PUSH2 0x260 PUSH2 0x680 MLOAD ADD MSTORE PUSH2 0xB14 CALLDATASIZE PUSH2 0x100 MLOAD PUSH2 0x6A0 MLOAD PUSH2 0x2CBA JUMP JUMPDEST PUSH2 0x280 PUSH2 0x680 MLOAD ADD MSTORE PUSH2 0xB2E CALLDATASIZE PUSH2 0x3C0 MLOAD PUSH2 0x160 MLOAD PUSH2 0x2CBA JUMP JUMPDEST PUSH2 0x2A0 PUSH2 0x680 MLOAD ADD MSTORE PUSH2 0xB48 CALLDATASIZE PUSH2 0x320 MLOAD PUSH2 0x3E0 MLOAD PUSH2 0x2CBA JUMP JUMPDEST PUSH2 0x2C0 PUSH2 0x680 MLOAD ADD MSTORE PUSH2 0xB62 CALLDATASIZE PUSH2 0x420 MLOAD PUSH2 0x1C0 MLOAD PUSH2 0x2CBA JUMP JUMPDEST PUSH2 0x2E0 PUSH2 0x680 MLOAD ADD MSTORE PUSH1 0x40 MLOAD PUSH2 0x660 MLOAD PUSH1 0x80 MLOAD DUP3 CALLDATACOPY PUSH1 0x1 PUSH2 0x660 MLOAD DUP3 ADD MSTORE PUSH1 0x20 DUP2 PUSH2 0x660 MLOAD DUP2 ADD SUB ADD SWAP1 KECCAK256 PUSH2 0x680 MLOAD MLOAD DUP1 MLOAD SWAP1 PUSH1 0x1 PUSH1 0x1 PUSH1 0x40 SHL SUB DUP3 GT PUSH2 0x18D8 JUMPI DUP2 SWAP1 PUSH2 0xBB9 DUP3 PUSH2 0xBB3 DUP7 SLOAD PUSH2 0x2B28 JUMP JUMPDEST DUP7 PUSH2 0x2D00 JUMP JUMPDEST PUSH1 0x20 SWAP1 PUSH1 0x1F DUP4 GT PUSH1 0x1 EQ PUSH2 0x2448 JUMPI PUSH1 0x0 SWAP3 PUSH2 0x243D JUMPI JUMPDEST POP POP DUP2 PUSH1 0x1 SHL SWAP2 PUSH1 0x0 NOT SWAP1 PUSH1 0x3 SHL SHR NOT AND OR DUP2 SSTORE JUMPDEST PUSH1 0x20 PUSH2 0x680 MLOAD ADD MLOAD DUP1 MLOAD SWAP1 PUSH1 0x1 PUSH1 0x1 PUSH1 0x40 SHL SUB DUP3 GT PUSH2 0x18D8 JUMPI DUP2 SWAP1 PUSH2 0xC19 DUP3 PUSH2 0xC10 PUSH1 0x1 DUP8 ADD SLOAD PUSH2 0x2B28 JUMP JUMPDEST PUSH1 0x1 DUP8 ADD PUSH2 0x2D00 JUMP JUMPDEST PUSH1 0x20 SWAP1 PUSH1 0x1F DUP4 GT PUSH1 0x1 EQ PUSH2 0x23CB JUMPI PUSH1 0x0 SWAP3 PUSH2 0x23C0 JUMPI JUMPDEST POP POP DUP2 PUSH1 0x1 SHL SWAP2 PUSH1 0x0 NOT SWAP1 PUSH1 0x3 SHL SHR NOT AND OR PUSH1 0x1 DUP3 ADD SSTORE JUMPDEST PUSH1 0x40 PUSH2 0x680 MLOAD ADD MLOAD DUP1 MLOAD SWAP1 PUSH1 0x1 PUSH1 0x1 PUSH1 0x40 SHL SUB DUP3 GT PUSH2 0x18D8 JUMPI DUP2 SWAP1 PUSH2 0xC7C DUP3 PUSH2 0xC73 PUSH1 0x2 DUP8 ADD SLOAD PUSH2 0x2B28 JUMP JUMPDEST PUSH1 0x2 DUP8 ADD PUSH2 0x2D00 JUMP JUMPDEST PUSH1 0x20 SWAP1 PUSH1 0x1F DUP4 GT PUSH1 0x1 EQ PUSH2 0x234E JUMPI PUSH1 0x0 SWAP3 PUSH2 0x2343 JUMPI JUMPDEST POP POP DUP2 PUSH1 0x1 SHL SWAP2 PUSH1 0x0 NOT SWAP1 PUSH1 0x3 SHL SHR NOT AND OR PUSH1 0x2 DUP3 ADD SSTORE JUMPDEST PUSH1 0x60 PUSH2 0x680 MLOAD ADD MLOAD DUP1 MLOAD SWAP1 PUSH1 0x1 PUSH1 0x1 PUSH1 0x40 SHL SUB DUP3 GT PUSH2 0x18D8 JUMPI DUP2 SWAP1 PUSH2 0xCDF DUP3 PUSH2 0xCD6 PUSH1 0x3 DUP8 ADD SLOAD PUSH2 0x2B28 JUMP JUMPDEST PUSH1 0x3 DUP8 ADD PUSH2 0x2D00 JUMP JUMPDEST PUSH1 0x20 SWAP1 PUSH1 0x1F DUP4 GT PUSH1 0x1 EQ PUSH2 0x22D1 JUMPI PUSH1 0x0 SWAP3 PUSH2 0x22C6 JUMPI JUMPDEST POP POP DUP2 PUSH1 0x1 SHL SWAP2 PUSH1 0x0 NOT SWAP1 PUSH1 0x3 SHL SHR NOT AND OR PUSH1 0x3 DUP3 ADD SSTORE JUMPDEST PUSH1 0x80 PUSH2 0x680 MLOAD ADD MLOAD DUP1 MLOAD SWAP1 PUSH1 0x1 PUSH1 0x1 PUSH1 0x40 SHL SUB DUP3 GT PUSH2 0x18D8 JUMPI DUP2 SWAP1 PUSH2 0xD42 DUP3 PUSH2 0xD39 PUSH1 0x4 DUP8 ADD SLOAD PUSH2 0x2B28 JUMP JUMPDEST PUSH1 0x4 DUP8 ADD PUSH2 0x2D00 JUMP JUMPDEST PUSH1 0x20 SWAP1 PUSH1 0x1F DUP4 GT PUSH1 0x1 EQ PUSH2 0x2254 JUMPI PUSH1 0x0 SWAP3 PUSH2 0x2249 JUMPI JUMPDEST POP POP DUP2 PUSH1 0x1 SHL SWAP2 PUSH1 0x0 NOT SWAP1 PUSH1 0x3 SHL SHR NOT AND OR PUSH1 0x4 DUP3 ADD SSTORE JUMPDEST PUSH1 0xA0 PUSH2 0x680 MLOAD ADD MLOAD DUP1 MLOAD SWAP1 PUSH1 0x1 PUSH1 0x1 PUSH1 0x40 SHL SUB DUP3 GT PUSH2 0x18D8 JUMPI DUP2 SWAP1 PUSH2 0xDA5 DUP3 PUSH2 0xD9C PUSH1 0x5 DUP8 ADD SLOAD PUSH2 0x2B28 JUMP JUMPDEST PUSH1 0x5 DUP8 ADD PUSH2 0x2D00 JUMP JUMPDEST PUSH1 0x20 SWAP1 PUSH1 0x1F DUP4 GT PUSH1 0x1 EQ PUSH2 0x21D7 JUMPI PUSH1 0x0 SWAP3 PUSH2 0x21CC JUMPI JUMPDEST POP POP DUP2 PUSH1 0x1 SHL SWAP2 PUSH1 0x0 NOT SWAP1 PUSH1 0x3 SHL SHR NOT AND OR PUSH1 0x5 DUP3 ADD SSTORE JUMPDEST PUSH1 0xC0 PUSH2 0x680 MLOAD ADD MLOAD DUP1 MLOAD SWAP1 PUSH1 0x1 PUSH1 0x1 PUSH1 0x40 SHL SUB DUP3 GT PUSH2 0x18D8 JUMPI DUP2 SWAP1 PUSH2 0xE08 DUP3 PUSH2 0xDFF PUSH1 0x6 DUP8 ADD SLOAD PUSH2 0x2B28 JUMP JUMPDEST PUSH1 0x6 DUP8 ADD PUSH2 0x2D00 JUMP JUMPDEST PUSH1 0x20 SWAP1 PUSH1 0x1F DUP4 GT PUSH1 0x1 EQ PUSH2 0x215A JUMPI PUSH1 0x0 SWAP3 PUSH2 0x214F JUMPI JUMPDEST POP POP DUP2 PUSH1 0x1 SHL SWAP2 PUSH1 0x0 NOT SWAP1 PUSH1 0x3 SHL SHR NOT AND OR PUSH1 0x6 DUP3 ADD SSTORE JUMPDEST PUSH1 0xE0 PUSH2 0x680 MLOAD ADD MLOAD DUP1 MLOAD SWAP1 PUSH1 0x1 PUSH1 0x1 PUSH1 0x40 SHL SUB DUP3 GT PUSH2 0x18D8 JUMPI DUP2 SWAP1 PUSH2 0xE6B DUP3 PUSH2 0xE62 PUSH1 0x7 DUP8 ADD SLOAD PUSH2 0x2B28 JUMP JUMPDEST PUSH1 0x7 DUP8 ADD PUSH2 0x2D00 JUMP JUMPDEST PUSH1 0x20 SWAP1 PUSH1 0x1F DUP4 GT PUSH1 0x1 EQ PUSH2 0x20DD JUMPI PUSH1 0x0 SWAP3 PUSH2 0x20D2 JUMPI JUMPDEST POP POP DUP2 PUSH1 0x1 SHL SWAP2 PUSH1 0x0 NOT SWAP1 PUSH1 0x3 SHL SHR NOT AND OR PUSH1 0x7 DUP3 ADD SSTORE JUMPDEST PUSH2 0x100 PUSH2 0x680 MLOAD ADD MLOAD DUP1 MLOAD SWAP1 PUSH1 0x1 PUSH1 0x1 PUSH1 0x40 SHL SUB DUP3 GT PUSH2 0x18D8 JUMPI DUP2 SWAP1 PUSH2 0xECF DUP3 PUSH2 0xEC6 PUSH1 0x8 DUP8 ADD SLOAD PUSH2 0x2B28 JUMP JUMPDEST PUSH1 0x8 DUP8 ADD PUSH2 0x2D00 JUMP JUMPDEST PUSH1 0x20 SWAP1 PUSH1 0x1F DUP4 GT PUSH1 0x1 EQ PUSH2 0x2060 JUMPI PUSH1 0x0 SWAP3 PUSH2 0x2055 JUMPI JUMPDEST POP POP DUP2 PUSH1 0x1 SHL SWAP2 PUSH1 0x0 NOT SWAP1 PUSH1 0x3 SHL SHR NOT AND OR PUSH1 0x8 DUP3 ADD SSTORE JUMPDEST PUSH2 0x120 PUSH2 0x680 MLOAD ADD MLOAD DUP1 MLOAD SWAP1 PUSH1 0x1 PUSH1 0x1 PUSH1 0x40 SHL SUB DUP3 GT PUSH2 0x18D8 JUMPI DUP2 SWAP1 PUSH2 0xF33 DUP3 PUSH2 0xF2A PUSH1 0x9 DUP8 ADD SLOAD PUSH2 0x2B28 JUMP JUMPDEST PUSH1 0x9 DUP8 ADD PUSH2 0x2D00 JUMP JUMPDEST PUSH1 0x20 SWAP1 PUSH1 0x1F DUP4 GT PUSH1 0x1 EQ PUSH2 0x1FE3 JUMPI PUSH1 0x0 SWAP3 PUSH2 0x1FD8 JUMPI JUMPDEST POP POP DUP2 PUSH1 0x1 SHL SWAP2 PUSH1 0x0 NOT SWAP1 PUSH1 0x3 SHL SHR NOT AND OR PUSH1 0x9 DUP3 ADD SSTORE JUMPDEST PUSH2 0x140 PUSH2 0x680 MLOAD ADD MLOAD DUP1 MLOAD SWAP1 PUSH1 0x1 PUSH1 0x1 PUSH1 0x40 SHL SUB DUP3 GT PUSH2 0x18D8 JUMPI DUP2 SWAP1 PUSH2 0xF97 DUP3 PUSH2 0xF8E PUSH1 0xA DUP8 ADD SLOAD PUSH2 0x2B28 JUMP JUMPDEST PUSH1 0xA DUP8 ADD PUSH2 0x2D00 JUMP JUMPDEST PUSH1 0x20 SWAP1 PUSH1 0x1F DUP4 GT PUSH1 0x1 EQ PUSH2 0x1F66 JUMPI PUSH1 0x0 SWAP3 PUSH2 0x1F5B JUMPI JUMPDEST POP POP DUP2 PUSH1 0x1 SHL SWAP2 PUSH1 0x0 NOT SWAP1 PUSH1 0x3 SHL SHR NOT AND OR PUSH1 0xA DUP3 ADD SSTORE JUMPDEST PUSH2 0x160 PUSH2 0x680 MLOAD ADD MLOAD DUP1 MLOAD SWAP1 PUSH1 0x1 PUSH1 0x1 PUSH1 0x40 SHL SUB DUP3 GT PUSH2 0x18D8 JUMPI DUP2 SWAP1 PUSH2 0xFFB DUP3 PUSH2 0xFF2 PUSH1 0xB DUP8 ADD SLOAD PUSH2 0x2B28 JUMP JUMPDEST PUSH1 0xB DUP8 ADD PUSH2 0x2D00 JUMP JUMPDEST PUSH1 0x20 SWAP1 PUSH1 0x1F DUP4 GT PUSH1 0x1 EQ PUSH2 0x1EE9 JUMPI PUSH1 0x0 SWAP3 PUSH2 0x1EDE JUMPI JUMPDEST POP POP DUP2 PUSH1 0x1 SHL SWAP2 PUSH1 0x0 NOT SWAP1 PUSH1 0x3 SHL SHR NOT AND OR PUSH1 0xB DUP3 ADD SSTORE JUMPDEST PUSH2 0x180 PUSH2 0x680 MLOAD ADD MLOAD DUP1 MLOAD SWAP1 PUSH1 0x1 PUSH1 0x1 PUSH1 0x40 SHL SUB DUP3 GT PUSH2 0x18D8 JUMPI DUP2 SWAP1 PUSH2 0x105F DUP3 PUSH2 0x1056 PUSH1 0xC DUP8 ADD SLOAD PUSH2 0x2B28 JUMP JUMPDEST PUSH1 0xC DUP8 ADD PUSH2 0x2D00 JUMP JUMPDEST PUSH1 0x20 SWAP1 PUSH1 0x1F DUP4 GT PUSH1 0x1 EQ PUSH2 0x1E6C JUMPI PUSH1 0x0 SWAP3 PUSH2 0x1E61 JUMPI JUMPDEST POP POP DUP2 PUSH1 0x1 SHL SWAP2 PUSH1 0x0 NOT SWAP1 PUSH1 0x3 SHL SHR NOT AND OR PUSH1 0xC DUP3 ADD SSTORE JUMPDEST PUSH2 0x1A0 PUSH2 0x680 MLOAD ADD MLOAD DUP1 MLOAD SWAP1 PUSH1 0x1 PUSH1 0x1 PUSH1 0x40 SHL SUB DUP3 GT PUSH2 0x18D8 JUMPI DUP2 SWAP1 PUSH2 0x10C3 DUP3 PUSH2 0x10BA PUSH1 0xD DUP8 ADD SLOAD PUSH2 0x2B28 JUMP JUMPDEST PUSH1 0xD DUP8 ADD PUSH2 0x2D00 JUMP JUMPDEST PUSH1 0x20 SWAP1 PUSH1 0x1F DUP4 GT PUSH1 0x1 EQ PUSH2 0x1DEF JUMPI PUSH1 0x0 SWAP3 PUSH2 0x1DE4 JUMPI JUMPDEST POP POP DUP2 PUSH1 0x1 SHL SWAP2 PUSH1 0x0 NOT SWAP1 PUSH1 0x3 SHL SHR NOT AND OR PUSH1 0xD DUP3 ADD SSTORE JUMPDEST PUSH2 0x1C0 PUSH2 0x680 MLOAD ADD MLOAD DUP1 MLOAD SWAP1 PUSH1 0x1 PUSH1 0x1 PUSH1 0x40 SHL SUB DUP3 GT PUSH2 0x18D8 JUMPI DUP2 SWAP1 PUSH2 0x1127 DUP3 PUSH2 0x111E PUSH1 0xE DUP8 ADD SLOAD PUSH2 0x2B28 JUMP JUMPDEST PUSH1 0xE DUP8 ADD PUSH2 0x2D00 JUMP JUMPDEST PUSH1 0x20 SWAP1 PUSH1 0x1F DUP4 GT PUSH1 0x1 EQ PUSH2 0x1D72 JUMPI PUSH1 0x0 SWAP3 PUSH2 0x1D67 JUMPI JUMPDEST POP POP DUP2 PUSH1 0x1 SHL SWAP2 PUSH1 0x0 NOT SWAP1 PUSH1 0x3 SHL SHR NOT AND OR PUSH1 0xE DUP3 ADD SSTORE JUMPDEST PUSH2 0x1E0 PUSH2 0x680 MLOAD ADD MLOAD DUP1 MLOAD SWAP1 PUSH1 0x1 PUSH1 0x1 PUSH1 0x40 SHL SUB DUP3 GT PUSH2 0x18D8 JUMPI DUP2 SWAP1 PUSH2 0x118B DUP3 PUSH2 0x1182 PUSH1 0xF DUP8 ADD SLOAD PUSH2 0x2B28 JUMP JUMPDEST PUSH1 0xF DUP8 ADD PUSH2 0x2D00 JUMP JUMPDEST PUSH1 0x20 SWAP1 PUSH1 0x1F DUP4 GT PUSH1 0x1 EQ PUSH2 0x1CF5 JUMPI PUSH1 0x0 SWAP3 PUSH2 0x1CEA JUMPI JUMPDEST POP POP DUP2 PUSH1 0x1 SHL SWAP2 PUSH1 0x0 NOT SWAP1 PUSH1 0x3 SHL SHR NOT AND OR PUSH1 0xF DUP3 ADD SSTORE JUMPDEST PUSH2 0x200 PUSH2 0x680 MLOAD ADD MLOAD DUP1 MLOAD SWAP1 PUSH1 0x1 PUSH1 0x1 PUSH1 0x40 SHL SUB DUP3 GT PUSH2 0x18D8 JUMPI DUP2 SWAP1 PUSH2 0x11EF DUP3 PUSH2 0x11E6 PUSH1 0x10 DUP8 ADD SLOAD PUSH2 0x2B28 JUMP JUMPDEST PUSH1 0x10 DUP8 ADD PUSH2 0x2D00 JUMP JUMPDEST PUSH1 0x20 SWAP1 PUSH1 0x1F DUP4 GT PUSH1 0x1 EQ PUSH2 0x1C78 JUMPI PUSH1 0x0 SWAP3 PUSH2 0x1C6D JUMPI JUMPDEST POP POP DUP2 PUSH1 0x1 SHL SWAP2 PUSH1 0x0 NOT SWAP1 PUSH1 0x3 SHL SHR NOT AND OR PUSH1 0x10 DUP3 ADD SSTORE JUMPDEST PUSH2 0x220 PUSH2 0x680 MLOAD ADD MLOAD DUP1 MLOAD SWAP1 PUSH1 0x1 PUSH1 0x1 PUSH1 0x40 SHL SUB DUP3 GT PUSH2 0x18D8 JUMPI DUP2 SWAP1 PUSH2 0x1253 DUP3 PUSH2 0x124A PUSH1 0x11 DUP8 ADD SLOAD PUSH2 0x2B28 JUMP JUMPDEST PUSH1 0x11 DUP8 ADD PUSH2 0x2D00 JUMP JUMPDEST PUSH1 0x20 SWAP1 PUSH1 0x1F DUP4 GT PUSH1 0x1 EQ PUSH2 0x1BFB JUMPI PUSH1 0x0 SWAP3 PUSH2 0x1BF0 JUMPI JUMPDEST POP POP DUP2 PUSH1 0x1 SHL SWAP2 PUSH1 0x0 NOT SWAP1 PUSH1 0x3 SHL SHR NOT AND OR PUSH1 0x11 DUP3 ADD SSTORE JUMPDEST PUSH2 0x240 PUSH2 0x680 MLOAD ADD MLOAD DUP1 MLOAD SWAP1 PUSH1 0x1 PUSH1 0x1 PUSH1 0x40 SHL SUB DUP3 GT PUSH2 0x18D8 JUMPI DUP2 SWAP1 PUSH2 0x12B7 DUP3 PUSH2 0x12AE PUSH1 0x12 DUP8 ADD SLOAD PUSH2 0x2B28 JUMP JUMPDEST PUSH1 0x12 DUP8 ADD PUSH2 0x2D00 JUMP JUMPDEST PUSH1 0x20 SWAP1 PUSH1 0x1F DUP4 GT PUSH1 0x1 EQ PUSH2 0x1B7E JUMPI PUSH1 0x0 SWAP3 PUSH2 0x1B73 JUMPI JUMPDEST POP POP DUP2 PUSH1 0x1 SHL SWAP2 PUSH1 0x0 NOT SWAP1 PUSH1 0x3 SHL SHR NOT AND OR PUSH1 0x12 DUP3 ADD SSTORE JUMPDEST PUSH2 0x260 PUSH2 0x680 MLOAD ADD MLOAD DUP1 MLOAD SWAP1 PUSH1 0x1 PUSH1 0x1 PUSH1 0x40 SHL SUB DUP3 GT PUSH2 0x18D8 JUMPI DUP2 SWAP1 PUSH2 0x131B DUP3 PUSH2 0x1312 PUSH1 0x13 DUP8 ADD SLOAD PUSH2 0x2B28 JUMP JUMPDEST PUSH1 0x13 DUP8 ADD PUSH2 0x2D00 JUMP JUMPDEST PUSH1 0x20 SWAP1 PUSH1 0x1F DUP4 GT PUSH1 0x1 EQ PUSH2 0x1B01 JUMPI PUSH1 0x0 SWAP3 PUSH2 0x1AF6 JUMPI JUMPDEST POP POP DUP2 PUSH1 0x1 SHL SWAP2 PUSH1 0x0 NOT SWAP1 PUSH1 0x3 SHL SHR NOT AND OR PUSH1 0x13 DUP3 ADD SSTORE JUMPDEST PUSH2 0x280 PUSH2 0x680 MLOAD ADD MLOAD DUP1 MLOAD SWAP1 PUSH1 0x1 PUSH1 0x1 PUSH1 0x40 SHL SUB DUP3 GT PUSH2 0x18D8 JUMPI DUP2 SWAP1 PUSH2 0x137F DUP3 PUSH2 0x1376 PUSH1 0x14 DUP8 ADD SLOAD PUSH2 0x2B28 JUMP JUMPDEST PUSH1 0x14 DUP8 ADD PUSH2 0x2D00 JUMP JUMPDEST PUSH1 0x20 SWAP1 PUSH1 0x1F DUP4 GT PUSH1 0x1 EQ PUSH2 0x1A84 JUMPI PUSH1 0x0 SWAP3 PUSH2 0x1A79 JUMPI JUMPDEST POP POP DUP2 PUSH1 0x1 SHL SWAP2 PUSH1 0x0 NOT SWAP1 PUSH1 0x3 SHL SHR NOT AND OR PUSH1 0x14 DUP3 ADD SSTORE JUMPDEST PUSH2 0x2A0 PUSH2 0x680 MLOAD ADD MLOAD DUP1 MLOAD SWAP1 PUSH1 0x1 PUSH1 0x1 PUSH1 0x40 SHL SUB DUP3 GT PUSH2 0x18D8 JUMPI DUP2 SWAP1 PUSH2 0x13E3 DUP3 PUSH2 0x13DA PUSH1 0x15 DUP8 ADD SLOAD PUSH2 0x2B28 JUMP JUMPDEST PUSH1 0x15 DUP8 ADD PUSH2 0x2D00 JUMP JUMPDEST PUSH1 0x20 SWAP1 PUSH1 0x1F DUP4 GT PUSH1 0x1 EQ PUSH2 0x1A07 JUMPI PUSH1 0x0 SWAP3 PUSH2 0x19FC JUMPI JUMPDEST POP POP DUP2 PUSH1 0x1 SHL SWAP2 PUSH1 0x0 NOT SWAP1 PUSH1 0x3 SHL SHR NOT AND OR PUSH1 0x15 DUP3 ADD SSTORE JUMPDEST PUSH2 0x2C0 PUSH2 0x680 MLOAD ADD MLOAD DUP1 MLOAD SWAP1 PUSH1 0x1 PUSH1 0x1 PUSH1 0x40 SHL SUB DUP3 GT PUSH2 0x18D8 JUMPI DUP2 SWAP1 PUSH2 0x1447 DUP3 PUSH2 0x143E PUSH1 0x16 DUP8 ADD SLOAD PUSH2 0x2B28 JUMP JUMPDEST PUSH1 0x16 DUP8 ADD PUSH2 0x2D00 JUMP JUMPDEST PUSH1 0x20 SWAP1 PUSH1 0x1F DUP4 GT PUSH1 0x1 EQ PUSH2 0x198A JUMPI PUSH1 0x0 SWAP3 PUSH2 0x197F JUMPI JUMPDEST POP POP DUP2 PUSH1 0x1 SHL SWAP2 PUSH1 0x0 NOT SWAP1 PUSH1 0x3 SHL SHR NOT AND OR PUSH1 0x16 DUP3 ADD SSTORE JUMPDEST PUSH2 0x2E0 PUSH2 0x680 MLOAD ADD MLOAD DUP1 MLOAD SWAP1 PUSH1 0x1 PUSH1 0x1 PUSH1 0x40 SHL SUB DUP3 GT PUSH2 0x18D8 JUMPI PUSH2 0x14A9 DUP3 PUSH2 0x14A0 PUSH1 0x17 DUP7 ADD SLOAD PUSH2 0x2B28 JUMP JUMPDEST PUSH1 0x17 DUP7 ADD PUSH2 0x2D00 JUMP JUMPDEST PUSH1 0x20 SWAP1 PUSH1 0x1F DUP4 GT PUSH1 0x1 EQ PUSH2 0x190F JUMPI PUSH1 0x17 SWAP3 SWAP2 PUSH1 0x0 SWAP2 DUP4 PUSH2 0x1904 JUMPI JUMPDEST POP POP DUP2 PUSH1 0x1 SHL SWAP2 PUSH1 0x0 NOT SWAP1 PUSH1 0x3 SHL SHR NOT AND OR SWAP2 ADD SSTORE JUMPDEST PUSH1 0x2 SLOAD PUSH9 0x10000000000000000 DUP2 LT ISZERO PUSH2 0x18D8 JUMPI DUP1 PUSH1 0x1 PUSH2 0x14FE SWAP3 ADD PUSH1 0x2 SSTORE PUSH2 0x2ADB JUMP JUMPDEST PUSH2 0x18EE JUMPI PUSH2 0x660 MLOAD PUSH1 0x1 PUSH1 0x1 PUSH1 0x40 SHL SUB DUP2 GT PUSH2 0x18D8 JUMPI PUSH2 0x1528 SWAP1 PUSH2 0x1522 DUP4 SLOAD PUSH2 0x2B28 JUMP JUMPDEST DUP4 PUSH2 0x2D00 JUMP JUMPDEST PUSH1 0x0 SWAP1 PUSH2 0x660 MLOAD PUSH1 0x1F DUP2 GT PUSH1 0x1 EQ PUSH2 0x186C JUMPI POP SWAP1 PUSH1 0x0 PUSH2 0x660 MLOAD SWAP2 DUP3 PUSH2 0x185F JUMPI JUMPDEST POP DUP2 PUSH1 0x1 SHL SWAP2 PUSH1 0x0 NOT SWAP1 PUSH1 0x3 SHL SHR NOT AND OR SWAP1 SSTORE JUMPDEST PUSH2 0x320 PUSH1 0x40 MLOAD DUP1 PUSH2 0x740 MSTORE MSTORE PUSH32 0xEB80AC06C78797FA4A3C4725D90B280BB3340A453E771EEEE48AC90DD7E112CB PUSH2 0x1835 PUSH2 0x181B PUSH2 0x1801 PUSH2 0x17E7 PUSH2 0x17CD PUSH2 0x17B3 PUSH2 0x1799 PUSH2 0x177F PUSH2 0x1765 PUSH2 0x174B PUSH2 0x1731 PUSH2 0x1717 PUSH2 0x16FD PUSH2 0x16E3 PUSH2 0x16C9 PUSH2 0x16AF PUSH2 0x1695 PUSH2 0x167C PUSH2 0x1663 PUSH2 0x164A PUSH2 0x1631 PUSH2 0x1618 PUSH2 0x15FF PUSH2 0x15E6 PUSH2 0x320 PUSH2 0x740 MLOAD ADD PUSH2 0x660 MLOAD PUSH1 0x80 MLOAD PUSH2 0x2D54 JUMP JUMPDEST PUSH2 0x740 MLOAD PUSH1 0x20 DUP2 DUP4 SUB SWAP2 ADD MSTORE PUSH2 0x860 MLOAD PUSH2 0x880 MLOAD PUSH2 0x2D54 JUMP JUMPDEST PUSH2 0x740 MLOAD PUSH1 0x40 DUP2 DUP4 SUB SWAP2 ADD MSTORE PUSH2 0x460 MLOAD PUSH2 0x4E0 MLOAD PUSH2 0x2D54 JUMP JUMPDEST PUSH2 0x740 MLOAD PUSH1 0x60 DUP2 DUP4 SUB SWAP2 ADD MSTORE PUSH2 0x480 MLOAD PUSH2 0x180 MLOAD PUSH2 0x2D54 JUMP JUMPDEST PUSH2 0x740 MLOAD PUSH1 0x80 DUP2 DUP4 SUB SWAP2 ADD MSTORE PUSH2 0x4A0 MLOAD PUSH2 0x360 MLOAD PUSH2 0x2D54 JUMP JUMPDEST PUSH2 0x740 MLOAD PUSH1 0xA0 DUP2 DUP4 SUB SWAP2 ADD MSTORE PUSH2 0x5A0 MLOAD PUSH2 0x5E0 MLOAD PUSH2 0x2D54 JUMP JUMPDEST PUSH2 0x740 MLOAD PUSH1 0xC0 DUP2 DUP4 SUB SWAP2 ADD MSTORE PUSH2 0x2E0 MLOAD PUSH2 0x2C0 MLOAD PUSH2 0x2D54 JUMP JUMPDEST PUSH2 0x740 MLOAD PUSH1 0xE0 DUP2 DUP4 SUB SWAP2 ADD MSTORE PUSH2 0x3A0 MLOAD PUSH2 0x440 MLOAD PUSH2 0x2D54 JUMP JUMPDEST PUSH2 0x740 MLOAD PUSH2 0x100 DUP2 DUP4 SUB SWAP2 ADD MSTORE PUSH2 0x640 MLOAD PUSH2 0x240 MLOAD PUSH2 0x2D54 JUMP JUMPDEST PUSH2 0x740 MLOAD PUSH2 0x120 DUP2 DUP4 SUB SWAP2 ADD MSTORE PUSH2 0x200 MLOAD PUSH2 0x760 MLOAD PUSH2 0x2D54 JUMP JUMPDEST PUSH2 0x740 MLOAD PUSH2 0x140 DUP2 DUP4 SUB SWAP2 ADD MSTORE PUSH2 0x4C0 MLOAD PUSH2 0x620 MLOAD PUSH2 0x2D54 JUMP JUMPDEST PUSH2 0x740 MLOAD PUSH2 0x160 DUP2 DUP4 SUB SWAP2 ADD MSTORE PUSH2 0x120 MLOAD PUSH2 0x580 MLOAD PUSH2 0x2D54 JUMP JUMPDEST PUSH2 0x740 MLOAD PUSH2 0x180 DUP2 DUP4 SUB SWAP2 ADD MSTORE PUSH2 0x7C0 MLOAD PUSH2 0x500 MLOAD PUSH2 0x2D54 JUMP JUMPDEST PUSH2 0x740 MLOAD PUSH2 0x1A0 DUP2 DUP4 SUB SWAP2 ADD MSTORE PUSH2 0x5C0 MLOAD PUSH2 0x280 MLOAD PUSH2 0x2D54 JUMP JUMPDEST PUSH2 0x740 MLOAD PUSH2 0x1C0 DUP2 DUP4 SUB SWAP2 ADD MSTORE PUSH2 0x600 MLOAD PUSH2 0x560 MLOAD PUSH2 0x2D54 JUMP JUMPDEST PUSH2 0x740 MLOAD PUSH2 0x1E0 DUP2 DUP4 SUB SWAP2 ADD MSTORE PUSH2 0x340 MLOAD PUSH2 0x840 MLOAD PUSH2 0x2D54 JUMP JUMPDEST PUSH2 0x740 MLOAD PUSH2 0x200 DUP2 DUP4 SUB SWAP2 ADD MSTORE PUSH2 0x220 MLOAD PUSH2 0x380 MLOAD PUSH2 0x2D54 JUMP JUMPDEST PUSH2 0x740 MLOAD PUSH2 0x220 DUP2 DUP4 SUB SWAP2 ADD MSTORE PUSH2 0x6C0 MLOAD PUSH2 0x300 MLOAD PUSH2 0x2D54 JUMP JUMPDEST PUSH2 0x740 MLOAD PUSH2 0x240 DUP2 DUP4 SUB SWAP2 ADD MSTORE PUSH2 0x1A0 MLOAD PUSH2 0x2A0 MLOAD PUSH2 0x2D54 JUMP JUMPDEST PUSH2 0x740 MLOAD PUSH2 0x260 DUP2 DUP4 SUB SWAP2 ADD MSTORE PUSH2 0x700 MLOAD PUSH2 0x400 MLOAD PUSH2 0x2D54 JUMP JUMPDEST PUSH2 0x740 MLOAD PUSH2 0x280 DUP2 DUP4 SUB SWAP2 ADD MSTORE PUSH2 0x140 MLOAD PUSH2 0x780 MLOAD PUSH2 0x2D54 JUMP JUMPDEST PUSH2 0x740 MLOAD PUSH2 0x2A0 DUP2 DUP4 SUB SWAP2 ADD MSTORE PUSH2 0x100 MLOAD PUSH2 0x6A0 MLOAD PUSH2 0x2D54 JUMP JUMPDEST PUSH2 0x740 MLOAD PUSH2 0x2C0 DUP2 DUP4 SUB SWAP2 ADD MSTORE PUSH2 0x3C0 MLOAD PUSH2 0x160 MLOAD PUSH2 0x2D54 JUMP JUMPDEST PUSH2 0x740 MLOAD PUSH2 0x2E0 DUP2 DUP4 SUB SWAP2 ADD MSTORE PUSH2 0x320 MLOAD PUSH2 0x3E0 MLOAD PUSH2 0x2D54 JUMP JUMPDEST PUSH2 0x740 MLOAD PUSH2 0x300 DUP2 DUP4 SUB SWAP2 ADD MSTORE PUSH2 0x1857 PUSH2 0x740 MLOAD SWAP2 PUSH2 0x420 MLOAD PUSH2 0x1C0 MLOAD PUSH2 0x2D54 JUMP JUMPDEST SUB PUSH2 0x740 MLOAD LOG1 STOP JUMPDEST SWAP1 POP PUSH1 0x80 MLOAD ADD CALLDATALOAD DUP4 PUSH2 0x1549 JUMP JUMPDEST DUP2 PUSH1 0x0 MSTORE PUSH1 0x20 PUSH1 0x0 KECCAK256 PUSH1 0x0 SWAP4 PUSH1 0x80 MLOAD SWAP1 JUMPDEST PUSH1 0x1F NOT DUP5 AND DUP7 LT PUSH2 0x18C0 JUMPI PUSH1 0x1 SWAP5 SWAP6 POP DUP4 PUSH1 0x1F NOT DUP2 AND LT PUSH2 0x18A6 JUMPI JUMPDEST POP POP POP DUP2 SHL ADD SWAP1 SSTORE PUSH2 0x155D JUMP JUMPDEST ADD CALLDATALOAD PUSH1 0x0 NOT PUSH1 0x3 DUP5 SWAP1 SHL PUSH1 0xF8 AND SHR NOT AND SWAP1 SSTORE DUP4 DUP1 DUP1 PUSH2 0x1899 JUMP JUMPDEST SWAP2 PUSH1 0x20 PUSH1 0x1 DUP2 SWAP3 DUP6 DUP6 ADD CALLDATALOAD DUP2 SSTORE ADD SWAP4 ADD SWAP6 ADD SWAP5 PUSH2 0x187D JUMP JUMPDEST PUSH4 0x4E487B71 PUSH1 0xE0 SHL PUSH1 0x0 MSTORE PUSH1 0x41 PUSH1 0x4 MSTORE PUSH1 0x24 PUSH1 0x0 REVERT JUMPDEST PUSH4 0x4E487B71 PUSH1 0xE0 SHL PUSH1 0x0 MSTORE PUSH1 0x0 PUSH1 0x4 MSTORE PUSH1 0x24 PUSH1 0x0 REVERT JUMPDEST ADD MLOAD SWAP1 POP DUP5 DUP1 PUSH2 0x14C4 JUMP JUMPDEST SWAP1 PUSH1 0x17 DUP5 ADD PUSH1 0x0 MSTORE PUSH1 0x20 PUSH1 0x0 KECCAK256 SWAP2 PUSH1 0x0 JUMPDEST PUSH1 0x1F NOT DUP6 AND DUP2 LT PUSH2 0x1967 JUMPI POP SWAP2 DUP4 SWAP2 PUSH1 0x1 SWAP4 PUSH1 0x17 SWAP6 PUSH1 0x1F NOT DUP2 AND LT PUSH2 0x194E JUMPI JUMPDEST POP POP POP DUP2 SHL ADD SWAP2 ADD SSTORE PUSH2 0x14DA JUMP JUMPDEST ADD MLOAD PUSH1 0x0 NOT PUSH1 0xF8 DUP5 PUSH1 0x3 SHL AND SHR NOT AND SWAP1 SSTORE DUP5 DUP1 DUP1 PUSH2 0x1940 JUMP JUMPDEST SWAP2 SWAP3 PUSH1 0x20 PUSH1 0x1 DUP2 SWAP3 DUP7 DUP6 ADD MLOAD DUP2 SSTORE ADD SWAP5 ADD SWAP3 ADD PUSH2 0x1920 JUMP JUMPDEST ADD MLOAD SWAP1 POP DUP4 DUP1 PUSH2 0x145D JUMP JUMPDEST SWAP3 POP PUSH1 0x16 DUP5 ADD PUSH1 0x0 MSTORE PUSH1 0x20 PUSH1 0x0 KECCAK256 SWAP1 PUSH1 0x0 SWAP4 JUMPDEST PUSH1 0x1F NOT DUP5 AND DUP6 LT PUSH2 0x19E1 JUMPI PUSH1 0x1 SWAP5 POP DUP4 PUSH1 0x1F NOT DUP2 AND LT PUSH2 0x19C8 JUMPI JUMPDEST POP POP POP DUP2 SHL ADD PUSH1 0x16 DUP3 ADD SSTORE PUSH2 0x1475 JUMP JUMPDEST ADD MLOAD PUSH1 0x0 NOT PUSH1 0xF8 DUP5 PUSH1 0x3 SHL AND SHR NOT AND SWAP1 SSTORE DUP4 DUP1 DUP1 PUSH2 0x19B8 JUMP JUMPDEST DUP2 DUP2 ADD MLOAD DUP4 SSTORE PUSH1 0x20 SWAP5 DUP6 ADD SWAP5 PUSH1 0x1 SWAP1 SWAP4 ADD SWAP3 SWAP1 SWAP2 ADD SWAP1 PUSH2 0x199D JUMP JUMPDEST ADD MLOAD SWAP1 POP DUP4 DUP1 PUSH2 0x13F9 JUMP JUMPDEST SWAP3 POP PUSH1 0x15 DUP5 ADD PUSH1 0x0 MSTORE PUSH1 0x20 PUSH1 0x0 KECCAK256 SWAP1 PUSH1 0x0 SWAP4 JUMPDEST PUSH1 0x1F NOT DUP5 AND DUP6 LT PUSH2 0x1A5E JUMPI PUSH1 0x1 SWAP5 POP DUP4 PUSH1 0x1F NOT DUP2 AND LT PUSH2 0x1A45 JUMPI JUMPDEST POP POP POP DUP2 SHL ADD PUSH1 0x15 DUP3 ADD SSTORE PUSH2 0x1411 JUMP JUMPDEST ADD MLOAD PUSH1 0x0 NOT PUSH1 0xF8 DUP5 PUSH1 0x3 SHL AND SHR NOT AND SWAP1 SSTORE DUP4 DUP1 DUP1 PUSH2 0x1A35 JUMP JUMPDEST DUP2 DUP2 ADD MLOAD DUP4 SSTORE PUSH1 0x20 SWAP5 DUP6 ADD SWAP5 PUSH1 0x1 SWAP1 SWAP4 ADD SWAP3 SWAP1 SWAP2 ADD SWAP1 PUSH2 0x1A1A JUMP JUMPDEST ADD MLOAD SWAP1 POP DUP4 DUP1 PUSH2 0x1395 JUMP JUMPDEST SWAP3 POP PUSH1 0x14 DUP5 ADD PUSH1 0x0 MSTORE PUSH1 0x20 PUSH1 0x0 KECCAK256 SWAP1 PUSH1 0x0 SWAP4 JUMPDEST PUSH1 0x1F NOT DUP5 AND DUP6 LT PUSH2 0x1ADB JUMPI PUSH1 0x1 SWAP5 POP DUP4 PUSH1 0x1F NOT DUP2 AND LT PUSH2 0x1AC2 JUMPI JUMPDEST POP POP POP DUP2 SHL ADD PUSH1 0x14 DUP3 ADD SSTORE PUSH2 0x13AD JUMP JUMPDEST ADD MLOAD PUSH1 0x0 NOT PUSH1 0xF8 DUP5 PUSH1 0x3 SHL AND SHR NOT AND SWAP1 SSTORE DUP4 DUP1 DUP1 PUSH2 0x1AB2 JUMP JUMPDEST DUP2 DUP2 ADD MLOAD DUP4 SSTORE PUSH1 0x20 SWAP5 DUP6 ADD SWAP5 PUSH1 0x1 SWAP1 SWAP4 ADD SWAP3 SWAP1 SWAP2 ADD SWAP1 PUSH2 0x1A97 JUMP JUMPDEST ADD MLOAD SWAP1 POP DUP4 DUP1 PUSH2 0x1331 JUMP JUMPDEST SWAP3 POP PUSH1 0x13 DUP5 ADD PUSH1 0x0 MSTORE PUSH1 0x20 PUSH1 0x0 KECCAK256 SWAP1 PUSH1 0x0 SWAP4 JUMPDEST PUSH1 0x1F NOT DUP5 AND DUP6 LT PUSH2 0x1B58 JUMPI PUSH1 0x1 SWAP5 POP DUP4 PUSH1 0x1F NOT DUP2 AND LT PUSH2 0x1B3F JUMPI JUMPDEST POP POP POP DUP2 SHL ADD PUSH1 0x13 DUP3 ADD SSTORE PUSH2 0x1349 JUMP JUMPDEST ADD MLOAD PUSH1 0x0 NOT PUSH1 0xF8 DUP5 PUSH1 0x3 SHL AND SHR NOT AND SWAP1 SSTORE DUP4 DUP1 DUP1 PUSH2 0x1B2F JUMP JUMPDEST DUP2 DUP2 ADD MLOAD DUP4 SSTORE PUSH1 0x20 SWAP5 DUP6 ADD SWAP5 PUSH1 0x1 SWAP1 SWAP4 ADD SWAP3 SWAP1 SWAP2 ADD SWAP1 PUSH2 0x1B14 JUMP JUMPDEST ADD MLOAD SWAP1 POP DUP4 DUP1 PUSH2 0x12CD JUMP JUMPDEST SWAP3 POP PUSH1 0x12 DUP5 ADD PUSH1 0x0 MSTORE PUSH1 0x20 PUSH1 0x0 KECCAK256 SWAP1 PUSH1 0x0 SWAP4 JUMPDEST PUSH1 0x1F NOT DUP5 AND DUP6 LT PUSH2 0x1BD5 JUMPI PUSH1 0x1 SWAP5 POP DUP4 PUSH1 0x1F NOT DUP2 AND LT PUSH2 0x1BBC JUMPI JUMPDEST POP POP POP DUP2 SHL ADD PUSH1 0x12 DUP3 ADD SSTORE PUSH2 0x12E5 JUMP JUMPDEST ADD MLOAD PUSH1 0x0 NOT PUSH1 0xF8 DUP5 PUSH1 0x3 SHL AND SHR NOT AND SWAP1 SSTORE DUP4 DUP1 DUP1 PUSH2 0x1BAC JUMP JUMPDEST DUP2 DUP2 ADD MLOAD DUP4 SSTORE PUSH1 0x20 SWAP5 DUP6 ADD SWAP5 PUSH1 0x1 SWAP1 SWAP4 ADD SWAP3 SWAP1 SWAP2 ADD SWAP1 PUSH2 0x1B91 JUMP JUMPDEST ADD MLOAD SWAP1 POP DUP4 DUP1 PUSH2 0x1269 JUMP JUMPDEST SWAP3 POP PUSH1 0x11 DUP5 ADD PUSH1 0x0 MSTORE PUSH1 0x20 PUSH1 0x0 KECCAK256 SWAP1 PUSH1 0x0 SWAP4 JUMPDEST PUSH1 0x1F NOT DUP5 AND DUP6 LT PUSH2 0x1C52 JUMPI PUSH1 0x1 SWAP5 POP DUP4 PUSH1 0x1F NOT DUP2 AND LT PUSH2 0x1C39 JUMPI JUMPDEST POP POP POP DUP2 SHL ADD PUSH1 0x11 DUP3 ADD SSTORE PUSH2 0x1281 JUMP JUMPDEST ADD MLOAD PUSH1 0x0 NOT PUSH1 0xF8 DUP5 PUSH1 0x3 SHL AND SHR NOT AND SWAP1 SSTORE DUP4 DUP1 DUP1 PUSH2 0x1C29 JUMP JUMPDEST DUP2 DUP2 ADD MLOAD DUP4 SSTORE PUSH1 0x20 SWAP5 DUP6 ADD SWAP5 PUSH1 0x1 SWAP1 SWAP4 ADD SWAP3 SWAP1 SWAP2 ADD SWAP1 PUSH2 0x1C0E JUMP JUMPDEST ADD MLOAD SWAP1 POP DUP4 DUP1 PUSH2 0x1205 JUMP JUMPDEST SWAP3 POP PUSH1 0x10 DUP5 ADD PUSH1 0x0 MSTORE PUSH1 0x20 PUSH1 0x0 KECCAK256 SWAP1 PUSH1 0x0 SWAP4 JUMPDEST PUSH1 0x1F NOT DUP5 AND DUP6 LT PUSH2 0x1CCF JUMPI PUSH1 0x1 SWAP5 POP DUP4 PUSH1 0x1F NOT DUP2 AND LT PUSH2 0x1CB6 JUMPI JUMPDEST POP POP POP DUP2 SHL ADD PUSH1 0x10 DUP3 ADD SSTORE PUSH2 0x121D JUMP JUMPDEST ADD MLOAD PUSH1 0x0 NOT PUSH1 0xF8 DUP5 PUSH1 0x3 SHL AND SHR NOT AND SWAP1 SSTORE DUP4 DUP1 DUP1 PUSH2 0x1CA6 JUMP JUMPDEST DUP2 DUP2 ADD MLOAD DUP4 SSTORE PUSH1 0x20 SWAP5 DUP6 ADD SWAP5 PUSH1 0x1 SWAP1 SWAP4 ADD SWAP3 SWAP1 SWAP2 ADD SWAP1 PUSH2 0x1C8B JUMP JUMPDEST ADD MLOAD SWAP1 POP DUP4 DUP1 PUSH2 0x11A1 JUMP JUMPDEST SWAP3 POP PUSH1 0xF DUP5 ADD PUSH1 0x0 MSTORE PUSH1 0x20 PUSH1 0x0 KECCAK256 SWAP1 PUSH1 0x0 SWAP4 JUMPDEST PUSH1 0x1F NOT DUP5 AND DUP6 LT PUSH2 0x1D4C JUMPI PUSH1 0x1 SWAP5 POP DUP4 PUSH1 0x1F NOT DUP2 AND LT PUSH2 0x1D33 JUMPI JUMPDEST POP POP POP DUP2 SHL ADD PUSH1 0xF DUP3 ADD SSTORE PUSH2 0x11B9 JUMP JUMPDEST ADD MLOAD PUSH1 0x0 NOT PUSH1 0xF8 DUP5 PUSH1 0x3 SHL AND SHR NOT AND SWAP1 SSTORE DUP4 DUP1 DUP1 PUSH2 0x1D23 JUMP JUMPDEST DUP2 DUP2 ADD MLOAD DUP4 SSTORE PUSH1 0x20 SWAP5 DUP6 ADD SWAP5 PUSH1 0x1 SWAP1 SWAP4 ADD SWAP3 SWAP1 SWAP2 ADD SWAP1 PUSH2 0x1D08 JUMP JUMPDEST ADD MLOAD SWAP1 POP DUP4 DUP1 PUSH2 0x113D JUMP JUMPDEST SWAP3 POP PUSH1 0xE DUP5 ADD PUSH1 0x0 MSTORE PUSH1 0x20 PUSH1 0x0 KECCAK256 SWAP1 PUSH1 0x0 SWAP4 JUMPDEST PUSH1 0x1F NOT DUP5 AND DUP6 LT PUSH2 0x1DC9 JUMPI PUSH1 0x1 SWAP5 POP DUP4 PUSH1 0x1F NOT DUP2 AND LT PUSH2 0x1DB0 JUMPI JUMPDEST POP POP POP DUP2 SHL ADD PUSH1 0xE DUP3 ADD SSTORE PUSH2 0x1155 JUMP JUMPDEST ADD MLOAD PUSH1 0x0 NOT PUSH1 0xF8 DUP5 PUSH1 0x3 SHL AND SHR NOT AND SWAP1 SSTORE DUP4 DUP1 DUP1 PUSH2 0x1DA0 JUMP JUMPDEST DUP2 DUP2 ADD MLOAD DUP4 SSTORE PUSH1 0x20 SWAP5 DUP6 ADD SWAP5 PUSH1 0x1 SWAP1 SWAP4 ADD SWAP3 SWAP1 SWAP2 ADD SWAP1 PUSH2 0x1D85 JUMP JUMPDEST ADD MLOAD SWAP1 POP DUP4 DUP1 PUSH2 0x10D9 JUMP JUMPDEST SWAP3 POP PUSH1 0xD DUP5 ADD PUSH1 0x0 MSTORE PUSH1 0x20 PUSH1 0x0 KECCAK256 SWAP1 PUSH1 0x0 SWAP4 JUMPDEST PUSH1 0x1F NOT DUP5 AND DUP6 LT PUSH2 0x1E46 JUMPI PUSH1 0x1 SWAP5 POP DUP4 PUSH1 0x1F NOT DUP2 AND LT PUSH2 0x1E2D JUMPI JUMPDEST POP POP POP DUP2 SHL ADD PUSH1 0xD DUP3 ADD SSTORE PUSH2 0x10F1 JUMP JUMPDEST ADD MLOAD PUSH1 0x0 NOT PUSH1 0xF8 DUP5 PUSH1 0x3 SHL AND SHR NOT AND SWAP1 SSTORE DUP4 DUP1 DUP1 PUSH2 0x1E1D JUMP JUMPDEST DUP2 DUP2 ADD MLOAD DUP4 SSTORE PUSH1 0x20 SWAP5 DUP6 ADD SWAP5 PUSH1 0x1 SWAP1 SWAP4 ADD SWAP3 SWAP1 SWAP2 ADD SWAP1 PUSH2 0x1E02 JUMP JUMPDEST ADD MLOAD SWAP1 POP DUP4 DUP1 PUSH2 0x1075 JUMP JUMPDEST SWAP3 POP PUSH1 0xC DUP5 ADD PUSH1 0x0 MSTORE PUSH1 0x20 PUSH1 0x0 KECCAK256 SWAP1 PUSH1 0x0 SWAP4 JUMPDEST PUSH1 0x1F NOT DUP5 AND DUP6 LT PUSH2 0x1EC3 JUMPI PUSH1 0x1 SWAP5 POP DUP4 PUSH1 0x1F NOT DUP2 AND LT PUSH2 0x1EAA JUMPI JUMPDEST POP POP POP DUP2 SHL ADD PUSH1 0xC DUP3 ADD SSTORE PUSH2 0x108D JUMP JUMPDEST ADD MLOAD PUSH1 0x0 NOT PUSH1 0xF8 DUP5 PUSH1 0x3 SHL AND SHR NOT AND SWAP1 SSTORE DUP4 DUP1 DUP1 PUSH2 0x1E9A JUMP JUMPDEST DUP2 DUP2 ADD MLOAD DUP4 SSTORE PUSH1 0x20 SWAP5 DUP6 ADD SWAP5 PUSH1 0x1 SWAP1 SWAP4 ADD SWAP3 SWAP1 SWAP2 ADD SWAP1 PUSH2 0x1E7F JUMP JUMPDEST ADD MLOAD SWAP1 POP DUP4 DUP1 PUSH2 0x1011 JUMP JUMPDEST SWAP3 POP PUSH1 0xB DUP5 ADD PUSH1 0x0 MSTORE PUSH1 0x20 PUSH1 0x0 KECCAK256 SWAP1 PUSH1 0x0 SWAP4 JUMPDEST PUSH1 0x1F NOT DUP5 AND DUP6 LT PUSH2 0x1F40 JUMPI PUSH1 0x1 SWAP5 POP DUP4 PUSH1 0x1F NOT DUP2 AND LT PUSH2 0x1F27 JUMPI JUMPDEST POP POP POP DUP2 SHL ADD PUSH1 0xB DUP3 ADD SSTORE PUSH2 0x1029 JUMP JUMPDEST ADD MLOAD PUSH1 0x0 NOT PUSH1 0xF8 DUP5 PUSH1 0x3 SHL AND SHR NOT AND SWAP1 SSTORE DUP4 DUP1 DUP1 PUSH2 0x1F17 JUMP JUMPDEST DUP2 DUP2 ADD MLOAD DUP4 SSTORE PUSH1 0x20 SWAP5 DUP6 ADD SWAP5 PUSH1 0x1 SWAP1 SWAP4 ADD SWAP3 SWAP1 SWAP2 ADD SWAP1 PUSH2 0x1EFC JUMP JUMPDEST ADD MLOAD SWAP1 POP DUP4 DUP1 PUSH2 0xFAD JUMP JUMPDEST SWAP3 POP PUSH1 0xA DUP5 ADD PUSH1 0x0 MSTORE PUSH1 0x20 PUSH1 0x0 KECCAK256 SWAP1 PUSH1 0x0 SWAP4 JUMPDEST PUSH1 0x1F NOT DUP5 AND DUP6 LT PUSH2 0x1FBD JUMPI PUSH1 0x1 SWAP5 POP DUP4 PUSH1 0x1F NOT DUP2 AND LT PUSH2 0x1FA4 JUMPI JUMPDEST POP POP POP DUP2 SHL ADD PUSH1 0xA DUP3 ADD SSTORE PUSH2 0xFC5 JUMP JUMPDEST ADD MLOAD PUSH1 0x0 NOT PUSH1 0xF8 DUP5 PUSH1 0x3 SHL AND SHR NOT AND SWAP1 SSTORE DUP4 DUP1 DUP1 PUSH2 0x1F94 JUMP JUMPDEST DUP2 DUP2 ADD MLOAD DUP4 SSTORE PUSH1 0x20 SWAP5 DUP6 ADD SWAP5 PUSH1 0x1 SWAP1 SWAP4 ADD SWAP3 SWAP1 SWAP2 ADD SWAP1 PUSH2 0x1F79 JUMP JUMPDEST ADD MLOAD SWAP1 POP DUP4 DUP1 PUSH2 0xF49 JUMP JUMPDEST SWAP3 POP PUSH1 0x9 DUP5 ADD PUSH1 0x0 MSTORE PUSH1 0x20 PUSH1 0x0 KECCAK256 SWAP1 PUSH1 0x0 SWAP4 JUMPDEST PUSH1 0x1F NOT DUP5 AND DUP6 LT PUSH2 0x203A JUMPI PUSH1 0x1 SWAP5 POP DUP4 PUSH1 0x1F NOT DUP2 AND LT PUSH2 0x2021 JUMPI JUMPDEST POP POP POP DUP2 SHL ADD PUSH1 0x9 DUP3 ADD SSTORE PUSH2 0xF61 JUMP JUMPDEST ADD MLOAD PUSH1 0x0 NOT PUSH1 0xF8 DUP5 PUSH1 0x3 SHL AND SHR NOT AND SWAP1 SSTORE DUP4 DUP1 DUP1 PUSH2 0x2011 JUMP JUMPDEST DUP2 DUP2 ADD MLOAD DUP4 SSTORE PUSH1 0x20 SWAP5 DUP6 ADD SWAP5 PUSH1 0x1 SWAP1 SWAP4 ADD SWAP3 SWAP1 SWAP2 ADD SWAP1 PUSH2 0x1FF6 JUMP JUMPDEST ADD MLOAD SWAP1 POP DUP4 DUP1 PUSH2 0xEE5 JUMP JUMPDEST SWAP3 POP PUSH1 0x8 DUP5 ADD PUSH1 0x0 MSTORE PUSH1 0x20 PUSH1 0x0 KECCAK256 SWAP1 PUSH1 0x0 SWAP4 JUMPDEST PUSH1 0x1F NOT DUP5 AND DUP6 LT PUSH2 0x20B7 JUMPI PUSH1 0x1 SWAP5 POP DUP4 PUSH1 0x1F NOT DUP2 AND LT PUSH2 0x209E JUMPI JUMPDEST POP POP POP DUP2 SHL ADD PUSH1 0x8 DUP3 ADD SSTORE PUSH2 0xEFD JUMP JUMPDEST ADD MLOAD PUSH1 0x0 NOT PUSH1 0xF8 DUP5 PUSH1 0x3 SHL AND SHR NOT AND SWAP1 SSTORE DUP4 DUP1 DUP1 PUSH2 0x208E JUMP JUMPDEST DUP2 DUP2 ADD MLOAD DUP4 SSTORE PUSH1 0x20 SWAP5 DUP6 ADD SWAP5 PUSH1 0x1 SWAP1 SWAP4 ADD SWAP3 SWAP1 SWAP2 ADD SWAP1 PUSH2 0x2073 JUMP JUMPDEST ADD MLOAD SWAP1 POP DUP4 DUP1 PUSH2 0xE81 JUMP JUMPDEST SWAP3 POP PUSH1 0x7 DUP5 ADD PUSH1 0x0 MSTORE PUSH1 0x20 PUSH1 0x0 KECCAK256 SWAP1 PUSH1 0x0 SWAP4 JUMPDEST PUSH1 0x1F NOT DUP5 AND DUP6 LT PUSH2 0x2134 JUMPI PUSH1 0x1 SWAP5 POP DUP4 PUSH1 0x1F NOT DUP2 AND LT PUSH2 0x211B JUMPI JUMPDEST POP POP POP DUP2 SHL ADD PUSH1 0x7 DUP3 ADD SSTORE PUSH2 0xE99 JUMP JUMPDEST ADD MLOAD PUSH1 0x0 NOT PUSH1 0xF8 DUP5 PUSH1 0x3 SHL AND SHR NOT AND SWAP1 SSTORE DUP4 DUP1 DUP1 PUSH2 0x210B JUMP JUMPDEST DUP2 DUP2 ADD MLOAD DUP4 SSTORE PUSH1 0x20 SWAP5 DUP6 ADD SWAP5 PUSH1 0x1 SWAP1 SWAP4 ADD SWAP3 SWAP1 SWAP2 ADD SWAP1 PUSH2 0x20F0 JUMP JUMPDEST ADD MLOAD SWAP1 POP DUP4 DUP1 PUSH2 0xE1E JUMP JUMPDEST SWAP3 POP PUSH1 0x6 DUP5 ADD PUSH1 0x0 MSTORE PUSH1 0x20 PUSH1 0x0 KECCAK256 SWAP1 PUSH1 0x0 SWAP4 JUMPDEST PUSH1 0x1F NOT DUP5 AND DUP6 LT PUSH2 0x21B1 JUMPI PUSH1 0x1 SWAP5 POP DUP4 PUSH1 0x1F NOT DUP2 AND LT PUSH2 0x2198 JUMPI JUMPDEST POP POP POP DUP2 SHL ADD PUSH1 0x6 DUP3 ADD SSTORE PUSH2 0xE36 JUMP JUMPDEST ADD MLOAD PUSH1 0x0 NOT PUSH1 0xF8 DUP5 PUSH1 0x3 SHL AND SHR NOT AND SWAP1 SSTORE DUP4 DUP1 DUP1 PUSH2 0x2188 JUMP JUMPDEST DUP2 DUP2 ADD MLOAD DUP4 SSTORE PUSH1 0x20 SWAP5 DUP6 ADD SWAP5 PUSH1 0x1 SWAP1 SWAP4 ADD SWAP3 SWAP1 SWAP2 ADD SWAP1 PUSH2 0x216D JUMP JUMPDEST ADD MLOAD SWAP1 POP DUP4 DUP1 PUSH2 0xDBB JUMP JUMPDEST SWAP3 POP PUSH1 0x5 DUP5 ADD PUSH1 0x0 MSTORE PUSH1 0x20 PUSH1 0x0 KECCAK256 SWAP1 PUSH1 0x0 SWAP4 JUMPDEST PUSH1 0x1F NOT DUP5 AND DUP6 LT PUSH2 0x222E JUMPI PUSH1 0x1 SWAP5 POP DUP4 PUSH1 0x1F NOT DUP2 AND LT PUSH2 0x2215 JUMPI JUMPDEST POP POP POP DUP2 SHL ADD PUSH1 0x5 DUP3 ADD SSTORE PUSH2 0xDD3 JUMP JUMPDEST ADD MLOAD PUSH1 0x0 NOT PUSH1 0xF8 DUP5 PUSH1 0x3 SHL AND SHR NOT AND SWAP1 SSTORE DUP4 DUP1 DUP1 PUSH2 0x2205 JUMP JUMPDEST DUP2 DUP2 ADD MLOAD DUP4 SSTORE PUSH1 0x20 SWAP5 DUP6 ADD SWAP5 PUSH1 0x1 SWAP1 SWAP4 ADD SWAP3 SWAP1 SWAP2 ADD SWAP1 PUSH2 0x21EA JUMP JUMPDEST ADD MLOAD SWAP1 POP DUP4 DUP1 PUSH2 0xD58 JUMP JUMPDEST SWAP3 POP PUSH1 0x4 DUP5 ADD PUSH1 0x0 MSTORE PUSH1 0x20 PUSH1 0x0 KECCAK256 SWAP1 PUSH1 0x0 SWAP4 JUMPDEST PUSH1 0x1F NOT DUP5 AND DUP6 LT PUSH2 0x22AB JUMPI PUSH1 0x1 SWAP5 POP DUP4 PUSH1 0x1F NOT DUP2 AND LT PUSH2 0x2292 JUMPI JUMPDEST POP POP POP DUP2 SHL ADD PUSH1 0x4 DUP3 ADD SSTORE PUSH2 0xD70 JUMP JUMPDEST ADD MLOAD PUSH1 0x0 NOT PUSH1 0xF8 DUP5 PUSH1 0x3 SHL AND SHR NOT AND SWAP1 SSTORE DUP4 DUP1 DUP1 PUSH2 0x2282 JUMP JUMPDEST DUP2 DUP2 ADD MLOAD DUP4 SSTORE PUSH1 0x20 SWAP5 DUP6 ADD SWAP5 PUSH1 0x1 SWAP1 SWAP4 ADD SWAP3 SWAP1 SWAP2 ADD SWAP1 PUSH2 0x2267 JUMP JUMPDEST ADD MLOAD SWAP1 POP DUP4 DUP1 PUSH2 0xCF5 JUMP JUMPDEST SWAP3 POP PUSH1 0x3 DUP5 ADD PUSH1 0x0 MSTORE PUSH1 0x20 PUSH1 0x0 KECCAK256 SWAP1 PUSH1 0x0 SWAP4 JUMPDEST PUSH1 0x1F NOT DUP5 AND DUP6 LT PUSH2 0x2328 JUMPI PUSH1 0x1 SWAP5 POP DUP4 PUSH1 0x1F NOT DUP2 AND LT PUSH2 0x230F JUMPI JUMPDEST POP POP POP DUP2 SHL ADD PUSH1 0x3 DUP3 ADD SSTORE PUSH2 0xD0D JUMP JUMPDEST ADD MLOAD PUSH1 0x0 NOT PUSH1 0xF8 DUP5 PUSH1 0x3 SHL AND SHR NOT AND SWAP1 SSTORE DUP4 DUP1 DUP1 PUSH2 0x22FF JUMP JUMPDEST DUP2 DUP2 ADD MLOAD DUP4 SSTORE PUSH1 0x20 SWAP5 DUP6 ADD SWAP5 PUSH1 0x1 SWAP1 SWAP4 ADD SWAP3 SWAP1 SWAP2 ADD SWAP1 PUSH2 0x22E4 JUMP JUMPDEST ADD MLOAD SWAP1 POP DUP4 DUP1 PUSH2 0xC92 JUMP JUMPDEST SWAP3 POP PUSH1 0x2 DUP5 ADD PUSH1 0x0 MSTORE PUSH1 0x20 PUSH1 0x0 KECCAK256 SWAP1 PUSH1 0x0 SWAP4 JUMPDEST PUSH1 0x1F NOT DUP5 AND DUP6 LT PUSH2 0x23A5 JUMPI PUSH1 0x1 SWAP5 POP DUP4 PUSH1 0x1F NOT DUP2 AND LT PUSH2 0x238C JUMPI JUMPDEST POP POP POP DUP2 SHL ADD PUSH1 0x2 DUP3 ADD SSTORE PUSH2 0xCAA JUMP JUMPDEST ADD MLOAD PUSH1 0x0 NOT PUSH1 0xF8 DUP5 PUSH1 0x3 SHL AND SHR NOT AND SWAP1 SSTORE DUP4 DUP1 DUP1 PUSH2 0x237C JUMP JUMPDEST DUP2 DUP2 ADD MLOAD DUP4 SSTORE PUSH1 0x20 SWAP5 DUP6 ADD SWAP5 PUSH1 0x1 SWAP1 SWAP4 ADD SWAP3 SWAP1 SWAP2 ADD SWAP1 PUSH2 0x2361 JUMP JUMPDEST ADD MLOAD SWAP1 POP DUP4 DUP1 PUSH2 0xC2F JUMP JUMPDEST SWAP3 POP PUSH1 0x1 DUP5 ADD PUSH1 0x0 MSTORE PUSH1 0x20 PUSH1 0x0 KECCAK256 SWAP1 PUSH1 0x0 SWAP4 JUMPDEST PUSH1 0x1F NOT DUP5 AND DUP6 LT PUSH2 0x2422 JUMPI PUSH1 0x1 SWAP5 POP DUP4 PUSH1 0x1F NOT DUP2 AND LT PUSH2 0x2409 JUMPI JUMPDEST POP POP POP DUP2 SHL ADD PUSH1 0x1 DUP3 ADD SSTORE PUSH2 0xC47 JUMP JUMPDEST ADD MLOAD PUSH1 0x0 NOT PUSH1 0xF8 DUP5 PUSH1 0x3 SHL AND SHR NOT AND SWAP1 SSTORE DUP4 DUP1 DUP1 PUSH2 0x23F9 JUMP JUMPDEST DUP2 DUP2 ADD MLOAD DUP4 SSTORE PUSH1 0x20 SWAP5 DUP6 ADD SWAP5 PUSH1 0x1 SWAP1 SWAP4 ADD SWAP3 SWAP1 SWAP2 ADD SWAP1 PUSH2 0x23DE JUMP JUMPDEST ADD MLOAD SWAP1 POP DUP4 DUP1 PUSH2 0xBCF JUMP JUMPDEST SWAP3 POP DUP4 PUSH1 0x0 MSTORE PUSH1 0x20 PUSH1 0x0 KECCAK256 SWAP1 PUSH1 0x0 SWAP4 JUMPDEST PUSH1 0x1F NOT DUP5 AND DUP6 LT PUSH2 0x2499 JUMPI PUSH1 0x1 SWAP5 POP DUP4 PUSH1 0x1F NOT DUP2 AND LT PUSH2 0x2480 JUMPI JUMPDEST POP POP POP DUP2 SHL ADD DUP2 SSTORE PUSH2 0xBE4 JUMP JUMPDEST ADD MLOAD PUSH1 0x0 NOT PUSH1 0xF8 DUP5 PUSH1 0x3 SHL AND SHR NOT AND SWAP1 SSTORE DUP4 DUP1 DUP1 PUSH2 0x2473 JUMP JUMPDEST DUP2 DUP2 ADD MLOAD DUP4 SSTORE PUSH1 0x20 SWAP5 DUP6 ADD SWAP5 PUSH1 0x1 SWAP1 SWAP4 ADD SWAP3 SWAP1 SWAP2 ADD SWAP1 PUSH2 0x2458 JUMP JUMPDEST PUSH1 0x40 MLOAD PUSH3 0x461BCD PUSH1 0xE5 SHL DUP2 MSTORE PUSH1 0x20 PUSH1 0x4 DUP3 ADD MSTORE PUSH1 0xB PUSH1 0x24 DUP3 ADD MSTORE PUSH11 0x139BDD081CDD195DD85C99 PUSH1 0xAA SHL PUSH1 0x44 DUP3 ADD MSTORE PUSH1 0x64 SWAP1 REVERT JUMPDEST CALLVALUE PUSH2 0x4BF JUMPI PUSH1 0x20 CALLDATASIZE PUSH1 0x3 NOT ADD SLT PUSH2 0x4BF JUMPI PUSH1 0x4 CALLDATALOAD PUSH1 0x1 PUSH1 0x1 PUSH1 0x40 SHL SUB DUP2 GT PUSH2 0x4BF JUMPI PUSH2 0x2517 SWAP1 CALLDATASIZE SWAP1 PUSH1 0x4 ADD PUSH2 0x2C8D JUMP JUMPDEST SWAP1 PUSH1 0x40 MLOAD PUSH2 0x2524 DUP2 PUSH2 0x2B62 JUMP JUMPDEST PUSH1 0x60 DUP2 MSTORE PUSH1 0x20 DUP2 ADD PUSH1 0x60 SWAP1 MSTORE PUSH1 0x40 DUP2 ADD PUSH1 0x60 SWAP1 MSTORE PUSH1 0x60 DUP2 ADD PUSH1 0x60 SWAP1 MSTORE PUSH1 0x80 DUP2 ADD PUSH1 0x60 SWAP1 MSTORE PUSH1 0xA0 DUP2 ADD PUSH1 0x60 SWAP1 MSTORE PUSH1 0xC0 DUP2 ADD PUSH1 0x60 SWAP1 MSTORE PUSH1 0xE0 DUP2 ADD PUSH1 0x60 SWAP1 MSTORE PUSH2 0x100 DUP2 ADD PUSH1 0x60 SWAP1 MSTORE PUSH2 0x120 DUP2 ADD PUSH1 0x60 SWAP1 MSTORE PUSH2 0x140 DUP2 ADD PUSH1 0x60 SWAP1 MSTORE PUSH2 0x160 DUP2 ADD PUSH1 0x60 SWAP1 MSTORE PUSH2 0x180 DUP2 ADD PUSH1 0x60 SWAP1 MSTORE PUSH2 0x1A0 DUP2 ADD PUSH1 0x60 SWAP1 MSTORE PUSH2 0x1C0 DUP2 ADD PUSH1 0x60 SWAP1 MSTORE PUSH2 0x1E0 DUP2 ADD PUSH1 0x60 SWAP1 MSTORE PUSH2 0x200 DUP2 ADD PUSH1 0x60 SWAP1 MSTORE PUSH2 0x220 DUP2 ADD PUSH1 0x60 SWAP1 MSTORE PUSH2 0x240 DUP2 ADD PUSH1 0x60 SWAP1 MSTORE PUSH2 0x260 DUP2 ADD PUSH1 0x60 SWAP1 MSTORE PUSH2 0x280 DUP2 ADD PUSH1 0x60 SWAP1 MSTORE PUSH2 0x2A0 DUP2 ADD PUSH1 0x60 SWAP1 MSTORE PUSH2 0x2C0 DUP2 ADD PUSH1 0x60 SWAP1 MSTORE PUSH2 0x2E0 ADD PUSH1 0x60 SWAP1 MSTORE DUP2 PUSH1 0x40 MLOAD SWAP3 DUP4 SWAP3 DUP4 CALLDATACOPY DUP2 ADD PUSH1 0x1 DUP2 MSTORE SUB PUSH1 0x20 ADD SWAP1 KECCAK256 PUSH1 0x40 MLOAD SWAP1 PUSH2 0x2611 DUP3 PUSH2 0x2B62 JUMP JUMPDEST PUSH2 0x261A DUP2 PUSH2 0x2B9F JUMP JUMPDEST DUP3 MSTORE PUSH2 0x2628 PUSH1 0x1 DUP3 ADD PUSH2 0x2B9F JUMP JUMPDEST PUSH1 0x20 DUP4 ADD MSTORE PUSH2 0x2639 PUSH1 0x2 DUP3 ADD PUSH2 0x2B9F JUMP JUMPDEST PUSH1 0x40 DUP4 ADD MSTORE PUSH2 0x264A PUSH1 0x3 DUP3 ADD PUSH2 0x2B9F JUMP JUMPDEST PUSH1 0x60 DUP4 ADD MSTORE PUSH2 0x265B PUSH1 0x4 DUP3 ADD PUSH2 0x2B9F JUMP JUMPDEST PUSH1 0x80 DUP4 ADD MSTORE PUSH2 0x266C PUSH1 0x5 DUP3 ADD PUSH2 0x2B9F JUMP JUMPDEST PUSH1 0xA0 DUP4 ADD MSTORE PUSH2 0x267D PUSH1 0x6 DUP3 ADD PUSH2 0x2B9F JUMP JUMPDEST PUSH1 0xC0 DUP4 ADD MSTORE PUSH2 0x268E PUSH1 0x7 DUP3 ADD PUSH2 0x2B9F JUMP JUMPDEST PUSH1 0xE0 DUP4 ADD MSTORE PUSH2 0x269F PUSH1 0x8 DUP3 ADD PUSH2 0x2B9F JUMP JUMPDEST PUSH2 0x100 DUP4 ADD MSTORE PUSH2 0x26B1 PUSH1 0x9 DUP3 ADD PUSH2 0x2B9F JUMP JUMPDEST PUSH2 0x120 DUP4 ADD MSTORE PUSH2 0x26C3 PUSH1 0xA DUP3 ADD PUSH2 0x2B9F JUMP JUMPDEST PUSH2 0x140 DUP4 ADD MSTORE PUSH2 0x26D5 PUSH1 0xB DUP3 ADD PUSH2 0x2B9F JUMP JUMPDEST PUSH2 0x160 DUP4 ADD MSTORE PUSH2 0x26E7 PUSH1 0xC DUP3 ADD PUSH2 0x2B9F JUMP JUMPDEST PUSH2 0x180 DUP4 ADD MSTORE PUSH2 0x26F9 PUSH1 0xD DUP3 ADD PUSH2 0x2B9F JUMP JUMPDEST PUSH2 0x1A0 DUP4 ADD MSTORE PUSH2 0x270B PUSH1 0xE DUP3 ADD PUSH2 0x2B9F JUMP JUMPDEST PUSH2 0x1C0 DUP4 ADD MSTORE PUSH2 0x271D PUSH1 0xF DUP3 ADD PUSH2 0x2B9F JUMP JUMPDEST PUSH2 0x1E0 DUP4 ADD MSTORE PUSH2 0x272F PUSH1 0x10 DUP3 ADD PUSH2 0x2B9F JUMP JUMPDEST PUSH2 0x200 DUP4 ADD MSTORE PUSH2 0x2741 PUSH1 0x11 DUP3 ADD PUSH2 0x2B9F JUMP JUMPDEST PUSH2 0x220 DUP4 ADD MSTORE PUSH2 0x2753 PUSH1 0x12 DUP3 ADD PUSH2 0x2B9F JUMP JUMPDEST PUSH2 0x240 DUP4 ADD MSTORE PUSH2 0x2765 PUSH1 0x13 DUP3 ADD PUSH2 0x2B9F JUMP JUMPDEST PUSH2 0x260 DUP4 ADD MSTORE PUSH2 0x2777 PUSH1 0x14 DUP3 ADD PUSH2 0x2B9F JUMP JUMPDEST PUSH2 0x280 DUP4 ADD MSTORE PUSH2 0x2789 PUSH1 0x15 DUP3 ADD PUSH2 0x2B9F JUMP JUMPDEST PUSH2 0x2A0 DUP4 ADD MSTORE PUSH2 0x279B PUSH1 0x16 DUP3 ADD PUSH2 0x2B9F JUMP JUMPDEST PUSH2 0x2C0 DUP4 ADD MSTORE PUSH1 0x17 ADD PUSH2 0x27AD SWAP1 PUSH2 0x2B9F JUMP JUMPDEST PUSH2 0x2E0 DUP3 ADD MSTORE PUSH1 0x40 MLOAD DUP1 SWAP2 PUSH1 0x20 DUP3 MSTORE DUP1 MLOAD PUSH1 0x20 DUP4 ADD PUSH2 0x300 SWAP1 MSTORE PUSH2 0x320 DUP4 ADD PUSH2 0x27D5 SWAP2 PUSH2 0x2C68 JUMP JUMPDEST PUSH1 0x20 DUP3 ADD MLOAD DUP4 DUP3 SUB PUSH1 0x1F NOT ADD PUSH1 0x40 DUP6 ADD MSTORE PUSH2 0x27F0 SWAP2 SWAP1 PUSH2 0x2C68 JUMP JUMPDEST PUSH1 0x40 DUP3 ADD MLOAD DUP4 DUP3 SUB PUSH1 0x1F NOT ADD PUSH1 0x60 DUP6 ADD MSTORE PUSH2 0x280B SWAP2 SWAP1 PUSH2 0x2C68 JUMP JUMPDEST PUSH1 0x60 DUP3 ADD MLOAD DUP4 DUP3 SUB PUSH1 0x1F NOT ADD PUSH1 0x80 DUP6 ADD MSTORE PUSH2 0x2826 SWAP2 SWAP1 PUSH2 0x2C68 JUMP JUMPDEST PUSH1 0x80 DUP3 ADD MLOAD DUP4 DUP3 SUB PUSH1 0x1F NOT ADD PUSH1 0xA0 DUP6 ADD MSTORE PUSH2 0x2841 SWAP2 SWAP1 PUSH2 0x2C68 JUMP JUMPDEST PUSH1 0xA0 DUP3 ADD MLOAD DUP4 DUP3 SUB PUSH1 0x1F NOT ADD PUSH1 0xC0 DUP6 ADD MSTORE PUSH2 0x285C SWAP2 SWAP1 PUSH2 0x2C68 JUMP JUMPDEST PUSH1 0xC0 DUP3 ADD MLOAD DUP4 DUP3 SUB PUSH1 0x1F NOT ADD PUSH1 0xE0 DUP6 ADD MSTORE PUSH2 0x2877 SWAP2 SWAP1 PUSH2 0x2C68 JUMP JUMPDEST PUSH1 0xE0 DUP3 ADD MLOAD DUP4 DUP3 SUB PUSH1 0x1F NOT ADD PUSH2 0x100 DUP6 ADD MSTORE PUSH2 0x2893 SWAP2 SWAP1 PUSH2 0x2C68 JUMP JUMPDEST PUSH2 0x100 DUP3 ADD MLOAD DUP4 DUP3 SUB PUSH1 0x1F NOT ADD PUSH2 0x120 DUP6 ADD MSTORE PUSH2 0x28B0 SWAP2 SWAP1 PUSH2 0x2C68 JUMP JUMPDEST PUSH2 0x120 DUP3 ADD MLOAD DUP4 DUP3 SUB PUSH1 0x1F NOT ADD PUSH2 0x140 DUP6 ADD MSTORE PUSH2 0x28CD SWAP2 SWAP1 PUSH2 0x2C68 JUMP JUMPDEST PUSH2 0x140 DUP3 ADD MLOAD DUP4 DUP3 SUB PUSH1 0x1F NOT ADD PUSH2 0x160 DUP6 ADD MSTORE PUSH2 0x28EA SWAP2 SWAP1 PUSH2 0x2C68 JUMP JUMPDEST PUSH2 0x160 DUP3 ADD MLOAD DUP4 DUP3 SUB PUSH1 0x1F NOT ADD PUSH2 0x180 DUP6 ADD MSTORE PUSH2 0x2907 SWAP2 SWAP1 PUSH2 0x2C68 JUMP JUMPDEST PUSH2 0x180 DUP3 ADD MLOAD DUP4 DUP3 SUB PUSH1 0x1F NOT ADD PUSH2 0x1A0 DUP6 ADD MSTORE PUSH2 0x2924 SWAP2 SWAP1 PUSH2 0x2C68 JUMP JUMPDEST PUSH2 0x1A0 DUP3 ADD MLOAD DUP4 DUP3 SUB PUSH1 0x1F NOT ADD PUSH2 0x1C0 DUP6 ADD MSTORE PUSH2 0x2941 SWAP2 SWAP1 PUSH2 0x2C68 JUMP JUMPDEST PUSH2 0x1C0 DUP3 ADD MLOAD DUP4 DUP3 SUB PUSH1 0x1F NOT ADD PUSH2 0x1E0 DUP6 ADD MSTORE PUSH2 0x295E SWAP2 SWAP1 PUSH2 0x2C68 JUMP JUMPDEST PUSH2 0x1E0 DUP3 ADD MLOAD DUP4 DUP3 SUB PUSH1 0x1F NOT ADD PUSH2 0x200 DUP6 ADD MSTORE PUSH2 0x297B SWAP2 SWAP1 PUSH2 0x2C68 JUMP JUMPDEST PUSH2 0x200 DUP3 ADD MLOAD DUP4 DUP3 SUB PUSH1 0x1F NOT ADD PUSH2 0x220 DUP6 ADD MSTORE PUSH2 0x2998 SWAP2 SWAP1 PUSH2 0x2C68 JUMP JUMPDEST PUSH2 0x220 DUP3 ADD MLOAD DUP4 DUP3 SUB PUSH1 0x1F NOT ADD PUSH2 0x240 DUP6 ADD MSTORE PUSH2 0x29B5 SWAP2 SWAP1 PUSH2 0x2C68 JUMP JUMPDEST PUSH2 0x240 DUP3 ADD MLOAD DUP4 DUP3 SUB PUSH1 0x1F NOT ADD PUSH2 0x260 DUP6 ADD MSTORE PUSH2 0x29D2 SWAP2 SWAP1 PUSH2 0x2C68 JUMP JUMPDEST PUSH2 0x260 DUP3 ADD MLOAD DUP4 DUP3 SUB PUSH1 0x1F NOT ADD PUSH2 0x280 DUP6 ADD MSTORE PUSH2 0x29EF SWAP2 SWAP1 PUSH2 0x2C68 JUMP JUMPDEST PUSH2 0x280 DUP3 ADD MLOAD DUP4 DUP3 SUB PUSH1 0x1F NOT ADD PUSH2 0x2A0 DUP6 ADD MSTORE PUSH2 0x2A0C SWAP2 SWAP1 PUSH2 0x2C68 JUMP JUMPDEST PUSH2 0x2A0 DUP3 ADD MLOAD DUP4 DUP3 SUB PUSH1 0x1F NOT ADD PUSH2 0x2C0 DUP6 ADD MSTORE PUSH2 0x2A29 SWAP2 SWAP1 PUSH2 0x2C68 JUMP JUMPDEST PUSH2 0x2C0 DUP3 ADD MLOAD DUP4 DUP3 SUB PUSH1 0x1F NOT ADD PUSH2 0x2E0 DUP6 ADD MSTORE PUSH2 0x2A46 SWAP2 SWAP1 PUSH2 0x2C68 JUMP JUMPDEST SWAP1 PUSH2 0x2E0 ADD MLOAD SWAP1 PUSH1 0x1F NOT DUP4 DUP3 SUB ADD PUSH2 0x300 DUP5 ADD MSTORE PUSH2 0x2A63 SWAP2 PUSH2 0x2C68 JUMP JUMPDEST SUB SWAP1 RETURN JUMPDEST CALLVALUE PUSH2 0x4BF JUMPI PUSH1 0x0 CALLDATASIZE PUSH1 0x3 NOT ADD SLT PUSH2 0x4BF JUMPI PUSH1 0x0 SLOAD PUSH1 0x40 MLOAD PUSH1 0x1 PUSH1 0x1 PUSH1 0xA0 SHL SUB SWAP1 SWAP2 AND DUP2 MSTORE PUSH1 0x20 SWAP1 RETURN JUMPDEST CALLVALUE PUSH2 0x4BF JUMPI PUSH1 0x20 CALLDATASIZE PUSH1 0x3 NOT ADD SLT PUSH2 0x4BF JUMPI PUSH1 0x4 CALLDATALOAD PUSH1 0x2 SLOAD DUP2 LT ISZERO PUSH2 0x4BF JUMPI PUSH2 0x2AB7 SWAP1 PUSH2 0x2ADB JUMP JUMPDEST PUSH2 0x18EE JUMPI PUSH2 0x2AC7 PUSH2 0x2A63 SWAP2 PUSH2 0x2B9F JUMP JUMPDEST PUSH1 0x40 MLOAD SWAP2 DUP3 SWAP2 PUSH1 0x20 DUP4 MSTORE PUSH1 0x20 DUP4 ADD SWAP1 PUSH2 0x2C68 JUMP JUMPDEST PUSH1 0x2 SLOAD DUP2 LT ISZERO PUSH2 0x2B12 JUMPI PUSH1 0x2 PUSH1 0x0 MSTORE PUSH32 0x405787FA12A823E0F2B7631CC41B3BA8828B3321CA811111FA75CD3AA3BB5ACE ADD SWAP1 PUSH1 0x0 SWAP1 JUMP JUMPDEST PUSH4 0x4E487B71 PUSH1 0xE0 SHL PUSH1 0x0 MSTORE PUSH1 0x32 PUSH1 0x4 MSTORE PUSH1 0x24 PUSH1 0x0 REVERT JUMPDEST SWAP1 PUSH1 0x1 DUP3 DUP2 SHR SWAP3 AND DUP1 ISZERO PUSH2 0x2B58 JUMPI JUMPDEST PUSH1 0x20 DUP4 LT EQ PUSH2 0x2B42 JUMPI JUMP JUMPDEST PUSH4 0x4E487B71 PUSH1 0xE0 SHL PUSH1 0x0 MSTORE PUSH1 0x22 PUSH1 0x4 MSTORE PUSH1 0x24 PUSH1 0x0 REVERT JUMPDEST SWAP2 PUSH1 0x7F AND SWAP2 PUSH2 0x2B37 JUMP JUMPDEST PUSH2 0x300 DUP2 ADD SWAP1 DUP2 LT PUSH1 0x1 PUSH1 0x1 PUSH1 0x40 SHL SUB DUP3 GT OR PUSH2 0x18D8 JUMPI PUSH1 0x40 MSTORE JUMP JUMPDEST SWAP1 PUSH1 0x1F DUP1 NOT SWAP2 ADD AND DUP2 ADD SWAP1 DUP2 LT PUSH1 0x1 PUSH1 0x1 PUSH1 0x40 SHL SUB DUP3 GT OR PUSH2 0x18D8 JUMPI PUSH1 0x40 MSTORE JUMP JUMPDEST SWAP1 PUSH1 0x40 MLOAD SWAP2 DUP3 PUSH1 0x0 DUP3 SLOAD SWAP3 PUSH2 0x2BB3 DUP5 PUSH2 0x2B28 JUMP JUMPDEST SWAP1 DUP2 DUP5 MSTORE PUSH1 0x1 SWAP5 DUP6 DUP2 AND SWAP1 DUP2 PUSH1 0x0 EQ PUSH2 0x2C22 JUMPI POP PUSH1 0x1 EQ PUSH2 0x2BDF JUMPI JUMPDEST POP POP PUSH2 0x2BDD SWAP3 POP SUB DUP4 PUSH2 0x2B7E JUMP JUMPDEST JUMP JUMPDEST SWAP1 SWAP4 SWAP2 POP PUSH1 0x0 MSTORE PUSH1 0x20 SWAP1 DUP2 PUSH1 0x0 KECCAK256 SWAP4 PUSH1 0x0 SWAP2 JUMPDEST DUP2 DUP4 LT PUSH2 0x2C0A JUMPI POP POP PUSH2 0x2BDD SWAP4 POP DUP3 ADD ADD CODESIZE DUP1 PUSH2 0x2BCF JUMP JUMPDEST DUP6 SLOAD DUP9 DUP5 ADD DUP6 ADD MSTORE SWAP5 DUP6 ADD SWAP5 DUP8 SWAP5 POP SWAP2 DUP4 ADD SWAP2 PUSH2 0x2BF2 JUMP JUMPDEST SWAP2 POP POP PUSH2 0x2BDD SWAP5 POP PUSH1 0x20 SWAP3 POP PUSH1 0xFF NOT AND DUP3 DUP5 ADD MSTORE ISZERO ISZERO PUSH1 0x5 SHL DUP3 ADD ADD CODESIZE DUP1 PUSH2 0x2BCF JUMP JUMPDEST PUSH1 0x0 JUMPDEST DUP4 DUP2 LT PUSH2 0x2C58 JUMPI POP POP PUSH1 0x0 SWAP2 ADD MSTORE JUMP JUMPDEST DUP2 DUP2 ADD MLOAD DUP4 DUP3 ADD MSTORE PUSH1 0x20 ADD PUSH2 0x2C48 JUMP JUMPDEST SWAP1 PUSH1 0x20 SWAP2 PUSH2 0x2C81 DUP2 MLOAD DUP1 SWAP3 DUP2 DUP6 MSTORE DUP6 DUP1 DUP7 ADD SWAP2 ADD PUSH2 0x2C45 JUMP JUMPDEST PUSH1 0x1F ADD PUSH1 0x1F NOT AND ADD ADD SWAP1 JUMP JUMPDEST SWAP2 DUP2 PUSH1 0x1F DUP5 ADD SLT ISZERO PUSH2 0x4BF JUMPI DUP3 CALLDATALOAD SWAP2 PUSH1 0x1 PUSH1 0x1 PUSH1 0x40 SHL SUB DUP4 GT PUSH2 0x4BF JUMPI PUSH1 0x20 DUP4 DUP2 DUP7 ADD SWAP6 ADD ADD GT PUSH2 0x4BF JUMPI JUMP JUMPDEST SWAP3 SWAP2 SWAP3 PUSH1 0x1 PUSH1 0x1 PUSH1 0x40 SHL SUB DUP3 GT PUSH2 0x18D8 JUMPI PUSH1 0x40 MLOAD SWAP2 PUSH2 0x2CE3 PUSH1 0x1F DUP3 ADD PUSH1 0x1F NOT AND PUSH1 0x20 ADD DUP5 PUSH2 0x2B7E JUMP JUMPDEST DUP3 SWAP5 DUP2 DUP5 MSTORE DUP2 DUP4 ADD GT PUSH2 0x4BF JUMPI DUP3 DUP2 PUSH1 0x20 SWAP4 DUP5 PUSH1 0x0 SWAP7 ADD CALLDATACOPY ADD ADD MSTORE JUMP JUMPDEST SWAP1 PUSH1 0x1F DUP2 GT PUSH2 0x2D0E JUMPI POP POP POP JUMP JUMPDEST PUSH1 0x0 SWAP2 DUP3 MSTORE PUSH1 0x20 DUP3 KECCAK256 SWAP1 PUSH1 0x20 PUSH1 0x1F DUP6 ADD PUSH1 0x5 SHR DUP4 ADD SWAP5 LT PUSH2 0x2D4A JUMPI JUMPDEST PUSH1 0x1F ADD PUSH1 0x5 SHR ADD SWAP2 JUMPDEST DUP3 DUP2 LT PUSH2 0x2D3F JUMPI POP POP POP JUMP JUMPDEST DUP2 DUP2 SSTORE PUSH1 0x1 ADD PUSH2 0x2D33 JUMP JUMPDEST SWAP1 SWAP3 POP DUP3 SWAP1 PUSH2 0x2D2A JUMP JUMPDEST SWAP1 DUP1 PUSH1 0x20 SWAP4 SWAP3 DUP2 DUP5 MSTORE DUP5 DUP5 ADD CALLDATACOPY PUSH1 0x0 DUP3 DUP3 ADD DUP5 ADD MSTORE PUSH1 0x1F ADD PUSH1 0x1F NOT AND ADD ADD SWAP1 JUMP INVALID LOG2 PUSH5 0x6970667358 0x22 SLT KECCAK256 SWAP15 LOG2 EXTCODECOPY 0xB0 0xDC 0xBA PUSH24 0xE931D07DE0A7636B69CFAF9162BD244265612C77A2BE446B PUSH7 0x64736F6C634300 ADDMOD EQ STOP CALLER "},"methodIdentifiers":{"codices(string)":"dbc21424","getCodex(string)":"83361522","inscribeCodex(string,string,string,string,string,string,string,string,string,string,string,string,string,string,string,string,string,string,string,string,string,string,string,string,string)":"89b6fbc7","keys(uint256)":"0cb6aaf1","steward()":"637eea19","totalCodices()":"c212d16b"}}}}}