{"contracts/codex/SpiralboundCodexXX.sol":{"SpiralboundCodexXX":{"abi":[{"inputs":[],"stateMutability":"nonpayable","type":"constructor"},{"anonymous":false,"inputs":[{"indexed":false,"internalType":"string","name":"glyph","type":"string"},{"indexed":false,"internalType":"string","name":"tag","type":"string"},{"indexed":false,"internalType":"string","name":"binding","type":"string"},{"indexed":false,"internalType":"string","name":"annotation","type":"string"},{"indexed":false,"internalType":"string","name":"lineage","type":"string"},{"indexed":false,"internalType":"string","name":"resonance","type":"string"},{"indexed":false,"internalType":"string","name":"protocol","type":"string"},{"indexed":false,"internalType":"string","name":"sanctum","type":"string"},{"indexed":false,"internalType":"string","name":"pulse","type":"string"},{"indexed":false,"internalType":"string","name":"chant","type":"string"},{"indexed":false,"internalType":"string","name":"choreography","type":"string"},{"indexed":false,"internalType":"string","name":"drift","type":"string"},{"indexed":false,"internalType":"string","name":"signature","type":"string"},{"indexed":false,"internalType":"string","name":"signal","type":"string"},{"indexed":false,"internalType":"string","name":"companion","type":"string"},{"indexed":false,"internalType":"string","name":"stewardName","type":"string"},{"indexed":false,"internalType":"string","name":"registry","type":"string"},{"indexed":false,"internalType":"string","name":"echo","type":"string"},{"indexed":false,"internalType":"string","name":"hum","type":"string"},{"indexed":false,"internalType":"string","name":"terrain","type":"string"},{"indexed":false,"internalType":"string","name":"choreographyType","type":"string"}],"name":"CodexInscribed","type":"event"},{"inputs":[{"internalType":"string","name":"","type":"string"}],"name":"codices","outputs":[{"internalType":"string","name":"tag","type":"string"},{"internalType":"string","name":"binding","type":"string"},{"internalType":"string","name":"annotation","type":"string"},{"internalType":"string","name":"lineage","type":"string"},{"internalType":"string","name":"resonance","type":"string"},{"internalType":"string","name":"protocol","type":"string"},{"internalType":"string","name":"sanctum","type":"string"},{"internalType":"string","name":"pulse","type":"string"},{"internalType":"string","name":"chant","type":"string"},{"internalType":"string","name":"choreography","type":"string"},{"internalType":"string","name":"drift","type":"string"},{"internalType":"string","name":"signature","type":"string"},{"internalType":"string","name":"signal","type":"string"},{"internalType":"string","name":"companion","type":"string"},{"internalType":"string","name":"stewardName","type":"string"},{"internalType":"string","name":"registry","type":"string"},{"internalType":"string","name":"echo","type":"string"},{"internalType":"string","name":"hum","type":"string"},{"internalType":"string","name":"terrain","type":"string"},{"internalType":"string","name":"choreographyType","type":"string"}],"stateMutability":"view","type":"function"},{"inputs":[{"internalType":"string","name":"glyph","type":"string"}],"name":"getCodex","outputs":[{"components":[{"internalType":"string","name":"tag","type":"string"},{"internalType":"string","name":"binding","type":"string"},{"internalType":"string","name":"annotation","type":"string"},{"internalType":"string","name":"lineage","type":"string"},{"internalType":"string","name":"resonance","type":"string"},{"internalType":"string","name":"protocol","type":"string"},{"internalType":"string","name":"sanctum","type":"string"},{"internalType":"string","name":"pulse","type":"string"},{"internalType":"string","name":"chant","type":"string"},{"internalType":"string","name":"choreography","type":"string"},{"internalType":"string","name":"drift","type":"string"},{"internalType":"string","name":"signature","type":"string"},{"internalType":"string","name":"signal","type":"string"},{"internalType":"string","name":"companion","type":"string"},{"internalType":"string","name":"stewardName","type":"string"},{"internalType":"string","name":"registry","type":"string"},{"internalType":"string","name":"echo","type":"string"},{"internalType":"string","name":"hum","type":"string"},{"internalType":"string","name":"terrain","type":"string"},{"internalType":"string","name":"choreographyType","type":"string"}],"internalType":"struct SpiralboundCodexXX.Codex","name":"","type":"tuple"}],"stateMutability":"view","type":"function"},{"inputs":[{"internalType":"string","name":"glyph","type":"string"},{"internalType":"string","name":"tag","type":"string"},{"internalType":"string","name":"binding","type":"string"},{"internalType":"string","name":"annotation","type":"string"},{"internalType":"string","name":"lineage","type":"string"},{"internalType":"string","name":"resonance","type":"string"},{"internalType":"string","name":"protocol","type":"string"},{"internalType":"string","name":"sanctum","type":"string"},{"internalType":"string","name":"pulse","type":"string"},{"internalType":"string","name":"chant","type":"string"},{"internalType":"string","name":"choreography","type":"string"},{"internalType":"string","name":"drift","type":"string"},{"internalType":"string","name":"signature","type":"string"},{"internalType":"string","name":"signal","type":"string"},{"internalType":"string","name":"companion","type":"string"},{"internalType":"string","name":"stewardName","type":"string"},{"internalType":"string","name":"registry","type":"string"},{"internalType":"string","name":"echo","type":"string"},{"internalType":"string","name":"hum","type":"string"},{"internalType":"string","name":"terrain","type":"string"},{"internalType":"string","name":"choreographyType","type":"string"}],"name":"inscribeCodex","outputs":[],"stateMutability":"nonpayable","type":"function"},{"inputs":[{"internalType":"uint256","name":"","type":"uint256"}],"name":"keys","outputs":[{"internalType":"string","name":"","type":"string"}],"stateMutability":"view","type":"function"},{"inputs":[],"name":"steward","outputs":[{"internalType":"address","name":"","type":"address"}],"stateMutability":"view","type":"function"},{"inputs":[],"name":"totalCodices","outputs":[{"internalType":"uint256","name":"","type":"uint256"}],"stateMutability":"view","type":"function"}],"evm":{"bytecode":{"linkReferences":{},"object":"6080806040523461002857600080546001600160a01b0319163317905561266d908161002e8239f35b600080fdfe610700604052600436101561001357600080fd5b60003560e01c80630cb6aaf114612352578063637eea19146123295780638336152214611ed65780639cf76134146103dc578063c212d16b146103be5763dbc214241461005f57600080fd5b346103b95760203660031901126103b9576004356001600160401b0381116103b957366023820112156103b95736816004013591602401916100a09261257c565b60405181818093516020819301916100b792612507565b8101600181520360200190206100cc81612461565b6100d860018301612461565b610460526100e860028301612461565b610440526100f860038301612461565b6102a05261010860048301612461565b61011460058401612461565b61012060068501612461565b61012c60078601612461565b61013860088701612461565b61014460098801612461565b90610151600a8901612461565b9261015e600b8a01612461565b9461016b600c8b01612461565b96610178600d8c01612461565b98610185600e8d01612461565b9a610192600f8e01612461565b9c61019f60108201612461565b610220526101af60118201612461565b610120526101bf60128201612461565b610480526013016101cf90612461565b61060052604051806104c0526102808091526104c051016101ef9161252a565b6104c051808203906020015261046051906102099161252a565b6104c051808203906040015261044051906102239161252a565b6104c05180820390606001526102a0519061023d9161252a565b6104c05180820390608001526102529161252a565b6104c0518082039060a001526102679161252a565b6104c0518082039060c0015261027c9161252a565b6104c0518082039060e001526102919161252a565b6104c0518082039061010001526102a79161252a565b6104c0518082039061012001526102bd9161252a565b6104c0518082039061014001526102d39161252a565b6104c0518082039061016001526102e99161252a565b6104c0518082039061018001526102ff9161252a565b6104c051808203906101a001526103159161252a565b6104c051808203906101c0015261032b9161252a565b6104c051808203906101e001526103419161252a565b6104c051808203906102000152610220519061035c9161252a565b6104c05180820390610220015261012051906103779161252a565b6104c05180820390610240015261048051906103929161252a565b6104c0518082039061026001526104c0519061060051906103b29161252a565b036104c051f35b600080fd5b346103b95760003660031901126103b9576020600254604051908152f35b346103b9576102a03660031901126103b9576004356001600160401b0381116103b95761040d90369060040161254f565b6105e052610280526024356001600160401b0381116103b95761043490369060040161254f565b60c052610320526044356001600160401b0381116103b95761045a90369060040161254f565b6105a052610340526064356001600160401b0381116103b95761048190369060040161254f565b6101c052610400526084356001600160401b0381116103b9576104a890369060040161254f565b61036052610200526001600160401b0360a435116103b9576104cf3660a43560040161254f565b610520526102c0526001600160401b0360c435116103b9576104f63660c43560040161254f565b60e052610640526001600160401b0360e435116103b95761051c3660e43560040161254f565b610540526103e0526001600160401b0361010435116103b957610545366101043560040161254f565b610260526102e0526001600160401b0361012435116103b95761056e366101243560040161254f565b6106205260a0526001600160401b0361014435116103b957610596366101443560040161254f565b608052610680526001600160401b0361016435116103b9576105be366101643560040161254f565b610560526105c0526001600160401b0361018435116103b9576105e7366101843560040161254f565b6103c0526106a0526001600160401b036101a435116103b957610610366101a43560040161254f565b61010052610180526001600160401b036101c435116103b957610639366101c43560040161254f565b610500526103a0526001600160401b036101e435116103b957610662366101e43560040161254f565b6104a052610300526001600160401b0361020435116103b95761068b366102043560040161254f565b610140526104e0526001600160401b0361022435116103b9576106b4366102243560040161254f565b6101a0526101e0526001600160401b0361024435116103b9576106dd366102443560040161254f565b6106e052610380526001600160401b0361026435116103b957610706366102643560040161254f565b61024052610420526001600160401b0361028435116103b95761072f366102843560040161254f565b6106c052610580526000546001600160a01b03163303611ea3576107596040518061066052612424565b6107693660c0516103205161257c565b610660515261077f366105a0516103405161257c565b6020610660510152610798366101c0516104005161257c565b60406106605101526107b136610360516102005161257c565b60606106605101526107ca36610520516102c05161257c565b60806106605101526107e23660e0516106405161257c565b60a06106605101526107fb36610540516103e05161257c565b60c061066051015261081436610260516102e05161257c565b60e061066051015261082c366106205160a05161257c565b610100610660510152610845366080516106805161257c565b61012061066051015261085f36610560516105c05161257c565b610140610660510152610879366103c0516106a05161257c565b61016061066051015261089336610100516101805161257c565b6101806106605101526108ad36610500516103a05161257c565b6101a06106605101526108c7366104a0516103005161257c565b6101c06106605101526108e136610140516104e05161257c565b6101e06106605101526108fb366101a0516101e05161257c565b610200610660510152610915366106e0516103805161257c565b61022061066051015261092f36610240516104205161257c565b610240610660510152610949366106c0516105805161257c565b6102606106605101526040516105e05161028051823760016105e0518201526020816105e05181010301902061066051518051906001600160401b0382116114bb5781906109a18261099b86546123ea565b866125c2565b602090601f8311600114611e3757600092611e2c575b50508160011b916000199060031b1c19161781555b60206106605101518051906001600160401b0382116114bb578190610a01826109f860018701546123ea565b600187016125c2565b602090601f8311600114611dba57600092611daf575b50508160011b916000199060031b1c19161760018201555b60406106605101518051906001600160401b0382116114bb578190610a6482610a5b60028701546123ea565b600287016125c2565b602090601f8311600114611d3d57600092611d32575b50508160011b916000199060031b1c19161760028201555b60606106605101518051906001600160401b0382116114bb578190610ac782610abe60038701546123ea565b600387016125c2565b602090601f8311600114611cc057600092611cb5575b50508160011b916000199060031b1c19161760038201555b60806106605101518051906001600160401b0382116114bb578190610b2a82610b2160048701546123ea565b600487016125c2565b602090601f8311600114611c4357600092611c38575b50508160011b916000199060031b1c19161760048201555b60a06106605101518051906001600160401b0382116114bb578190610b8d82610b8460058701546123ea565b600587016125c2565b602090601f8311600114611bc657600092611bbb575b50508160011b916000199060031b1c19161760058201555b60c06106605101518051906001600160401b0382116114bb578190610bf082610be760068701546123ea565b600687016125c2565b602090601f8311600114611b4957600092611b3e575b50508160011b916000199060031b1c19161760068201555b60e06106605101518051906001600160401b0382116114bb578190610c5382610c4a60078701546123ea565b600787016125c2565b602090601f8311600114611acc57600092611ac1575b50508160011b916000199060031b1c19161760078201555b6101006106605101518051906001600160401b0382116114bb578190610cb782610cae60088701546123ea565b600887016125c2565b602090601f8311600114611a4f57600092611a44575b50508160011b916000199060031b1c19161760088201555b6101206106605101518051906001600160401b0382116114bb578190610d1b82610d1260098701546123ea565b600987016125c2565b602090601f83116001146119d2576000926119c7575b50508160011b916000199060031b1c19161760098201555b6101406106605101518051906001600160401b0382116114bb578190610d7f82610d76600a8701546123ea565b600a87016125c2565b602090601f83116001146119555760009261194a575b50508160011b916000199060031b1c191617600a8201555b6101606106605101518051906001600160401b0382116114bb578190610de382610dda600b8701546123ea565b600b87016125c2565b602090601f83116001146118d8576000926118cd575b50508160011b916000199060031b1c191617600b8201555b6101806106605101518051906001600160401b0382116114bb578190610e4782610e3e600c8701546123ea565b600c87016125c2565b602090601f831160011461185b57600092611850575b50508160011b916000199060031b1c191617600c8201555b6101a06106605101518051906001600160401b0382116114bb578190610eab82610ea2600d8701546123ea565b600d87016125c2565b602090601f83116001146117de576000926117d3575b50508160011b916000199060031b1c191617600d8201555b6101c06106605101518051906001600160401b0382116114bb578190610f0f82610f06600e8701546123ea565b600e87016125c2565b602090601f831160011461176157600092611756575b50508160011b916000199060031b1c191617600e8201555b6101e06106605101518051906001600160401b0382116114bb578190610f7382610f6a600f8701546123ea565b600f87016125c2565b602090601f83116001146116e4576000926116d9575b50508160011b916000199060031b1c191617600f8201555b6102006106605101518051906001600160401b0382116114bb578190610fd782610fce60108701546123ea565b601087016125c2565b602090601f83116001146116675760009261165c575b50508160011b916000199060031b1c19161760108201555b6102206106605101518051906001600160401b0382116114bb57819061103b8261103260118701546123ea565b601187016125c2565b602090601f83116001146115ea576000926115df575b50508160011b916000199060031b1c19161760118201555b6102406106605101518051906001600160401b0382116114bb57819061109f8261109660128701546123ea565b601287016125c2565b602090601f831160011461156d57600092611562575b50508160011b916000199060031b1c19161760128201555b6102606106605101518051906001600160401b0382116114bb57611101826110f860138601546123ea565b601386016125c2565b602090601f83116001146114f25760139291600091836114e7575b50508160011b916000199060031b1c1916179101555b600254680100000000000000008110156114bb57806001611156920160025561239d565b6114d1576105e0516001600160401b0381116114bb576111809061117a83546123ea565b836125c2565b6000906105e051601f811160011461144e57509060006105e0519182611440575b508160011b916000199060031b1c19161790555b6102a06040518061016052527f61e64be8185c09ac4f74df87e4934d5c02dfe12375e260d8f4d0c8660dfb17b66114166113fc6113e26113c86113ae61139461137a61136061134661132c6113136112fa6112e06112c76112af61129661127d61126461124b6112336102a061016051016105e05161028051612616565b61016051602081830391015260c05161032051612616565b6101605160408183039101526105a05161034051612616565b6101605160608183039101526101c05161040051612616565b6101605160808183039101526103605161020051612616565b6101605160a0818303910152610520516102c051612616565b6101605160c081830391015260e05161064051612616565b6101605160e0818303910152610540516103e051612616565b61016051610100818303910152610260516102e051612616565b610160516101208183039101526106205160a051612616565b6101605161014081830391015260805161068051612616565b61016051610160818303910152610560516105c051612616565b610160516101808183039101526103c0516106a051612616565b610160516101a08183039101526101005161018051612616565b610160516101c0818303910152610500516103a051612616565b610160516101e08183039101526104a05161030051612616565b61016051610200818303910152610140516104e051612616565b610160516102208183039101526101a0516101e051612616565b610160516102408183039101526106e05161038051612616565b610160516102608183039101526102405161042051612616565b6101605161028081830391015261143861016051916106c05161058051612616565b0361016051a1005b9050610280510135836111a1565b81600052602060002060009361028051905b601f19841686106114a357600194955083601f19811610611489575b505050811b0190556111b5565b0135600019600384901b60f8161c1916905583808061147c565b91602060018192858501358155019301950194611460565b634e487b7160e01b600052604160045260246000fd5b634e487b7160e01b600052600060045260246000fd5b01519050848061111c565b906013840160005260206000209160005b601f198516811061154a5750918391600193601395601f19811610611531575b505050811b01910155611132565b015160001960f88460031b161c19169055848080611523565b91926020600181928685015181550194019201611503565b0151905083806110b5565b9250601284016000526020600020906000935b601f19841685106115c4576001945083601f198116106115ab575b505050811b0160128201556110cd565b015160001960f88460031b161c1916905583808061159b565b81810151835560209485019460019093019290910190611580565b015190508380611051565b9250601184016000526020600020906000935b601f1984168510611641576001945083601f19811610611628575b505050811b016011820155611069565b015160001960f88460031b161c19169055838080611618565b818101518355602094850194600190930192909101906115fd565b015190508380610fed565b9250601084016000526020600020906000935b601f19841685106116be576001945083601f198116106116a5575b505050811b016010820155611005565b015160001960f88460031b161c19169055838080611695565b8181015183556020948501946001909301929091019061167a565b015190508380610f89565b9250600f84016000526020600020906000935b601f198416851061173b576001945083601f19811610611722575b505050811b01600f820155610fa1565b015160001960f88460031b161c19169055838080611712565b818101518355602094850194600190930192909101906116f7565b015190508380610f25565b9250600e84016000526020600020906000935b601f19841685106117b8576001945083601f1981161061179f575b505050811b01600e820155610f3d565b015160001960f88460031b161c1916905583808061178f565b81810151835560209485019460019093019290910190611774565b015190508380610ec1565b9250600d84016000526020600020906000935b601f1984168510611835576001945083601f1981161061181c575b505050811b01600d820155610ed9565b015160001960f88460031b161c1916905583808061180c565b818101518355602094850194600190930192909101906117f1565b015190508380610e5d565b9250600c84016000526020600020906000935b601f19841685106118b2576001945083601f19811610611899575b505050811b01600c820155610e75565b015160001960f88460031b161c19169055838080611889565b8181015183556020948501946001909301929091019061186e565b015190508380610df9565b9250600b84016000526020600020906000935b601f198416851061192f576001945083601f19811610611916575b505050811b01600b820155610e11565b015160001960f88460031b161c19169055838080611906565b818101518355602094850194600190930192909101906118eb565b015190508380610d95565b9250600a84016000526020600020906000935b601f19841685106119ac576001945083601f19811610611993575b505050811b01600a820155610dad565b015160001960f88460031b161c19169055838080611983565b81810151835560209485019460019093019290910190611968565b015190508380610d31565b9250600984016000526020600020906000935b601f1984168510611a29576001945083601f19811610611a10575b505050811b016009820155610d49565b015160001960f88460031b161c19169055838080611a00565b818101518355602094850194600190930192909101906119e5565b015190508380610ccd565b9250600884016000526020600020906000935b601f1984168510611aa6576001945083601f19811610611a8d575b505050811b016008820155610ce5565b015160001960f88460031b161c19169055838080611a7d565b81810151835560209485019460019093019290910190611a62565b015190508380610c69565b9250600784016000526020600020906000935b601f1984168510611b23576001945083601f19811610611b0a575b505050811b016007820155610c81565b015160001960f88460031b161c19169055838080611afa565b81810151835560209485019460019093019290910190611adf565b015190508380610c06565b9250600684016000526020600020906000935b601f1984168510611ba0576001945083601f19811610611b87575b505050811b016006820155610c1e565b015160001960f88460031b161c19169055838080611b77565b81810151835560209485019460019093019290910190611b5c565b015190508380610ba3565b9250600584016000526020600020906000935b601f1984168510611c1d576001945083601f19811610611c04575b505050811b016005820155610bbb565b015160001960f88460031b161c19169055838080611bf4565b81810151835560209485019460019093019290910190611bd9565b015190508380610b40565b9250600484016000526020600020906000935b601f1984168510611c9a576001945083601f19811610611c81575b505050811b016004820155610b58565b015160001960f88460031b161c19169055838080611c71565b81810151835560209485019460019093019290910190611c56565b015190508380610add565b9250600384016000526020600020906000935b601f1984168510611d17576001945083601f19811610611cfe575b505050811b016003820155610af5565b015160001960f88460031b161c19169055838080611cee565b81810151835560209485019460019093019290910190611cd3565b015190508380610a7a565b9250600284016000526020600020906000935b601f1984168510611d94576001945083601f19811610611d7b575b505050811b016002820155610a92565b015160001960f88460031b161c19169055838080611d6b565b81810151835560209485019460019093019290910190611d50565b015190508380610a17565b9250600184016000526020600020906000935b601f1984168510611e11576001945083601f19811610611df8575b505050811b016001820155610a2f565b015160001960f88460031b161c19169055838080611de8565b81810151835560209485019460019093019290910190611dcd565b0151905083806109b7565b9250836000526020600020906000935b601f1984168510611e88576001945083601f19811610611e6f575b505050811b0181556109cc565b015160001960f88460031b161c19169055838080611e62565b81810151835560209485019460019093019290910190611e47565b60405162461bcd60e51b815260206004820152600b60248201526a139bdd081cdd195dd85c9960aa1b6044820152606490fd5b346103b95760203660031901126103b9576004356001600160401b0381116103b9576020611f0b61223892369060040161254f565b91906060610260604051611f1e81612424565b828152828582015282604082015282808201528260808201528260a08201528260c08201528260e08201528261010082015282610120820152826101408201528261016082015282610180820152826101a0820152826101c0820152826101e082015282610200820152826102208201528261024082015201528260405193849283378101600181520301902061210b601360405192611fbd84612424565b611fc681612461565b8452611fd460018201612461565b6020850152611fe560028201612461565b6040850152611ff660038201612461565b606085015261200760048201612461565b608085015261201860058201612461565b60a085015261202960068201612461565b60c085015261203a60078201612461565b60e085015261204b60088201612461565b61010085015261205d60098201612461565b61012085015261206f600a8201612461565b610140850152612081600b8201612461565b610160850152612093600c8201612461565b6101808501526120a5600d8201612461565b6101a08501526120b7600e8201612461565b6101c08501526120c9600f8201612461565b6101e08501526120db60108201612461565b6102008501526120ed60118201612461565b6102208501526120ff60128201612461565b61024085015201612461565b610260820152612325816102606123106122fa6122e26122ca6122b261229a61228261226a6122526040519d8e9d8e6020815261012061222261220c6121f56121df6121c96121b361219d6121876121718b5161028060208d01526102a08c019061252a565b60208c01518b8203601f190160408d015261252a565b60408b01518a8203601f190160608c015261252a565b60608a0151898203601f190160808b015261252a565b6080890151888203601f190160a08a015261252a565b60a0880151878203601f190160c089015261252a565b60c0870151868203601f190160e088015261252a565b60e0860151858203601f190161010087015261252a565b610100850151848203601f19018486015261252a565b92015190610140601f198285030191015261252a565b8d6101408d015190610160601f198285030191015261252a565b6101608b01518d8203601f19016101808f015261252a565b6101808a01518c8203601f19016101a08e015261252a565b6101a08901518b8203601f19016101c08d015261252a565b6101c08801518a8203601f19016101e08c015261252a565b6101e0870151898203601f19016102008b015261252a565b610200860151888203601f19016102208a015261252a565b610220850151878203601f190161024089015261252a565b610240840151868203601f19018488015261252a565b910151838203601f190161028085015261252a565b0390f35b346103b95760003660031901126103b9576000546040516001600160a01b039091168152602090f35b346103b95760203660031901126103b9576004356002548110156103b9576123799061239d565b6114d15761238961232591612461565b60405191829160208352602083019061252a565b6002548110156123d45760026000527f405787fa12a823e0f2b7631cc41b3ba8828b3321ca811111fa75cd3aa3bb5ace0190600090565b634e487b7160e01b600052603260045260246000fd5b90600182811c9216801561241a575b602083101461240457565b634e487b7160e01b600052602260045260246000fd5b91607f16916123f9565b61028081019081106001600160401b038211176114bb57604052565b90601f801991011681019081106001600160401b038211176114bb57604052565b9060405191826000825492612475846123ea565b9081845260019485811690816000146124e457506001146124a1575b505061249f92500383612440565b565b9093915060005260209081600020936000915b8183106124cc57505061249f93508201013880612491565b855488840185015294850194879450918301916124b4565b91505061249f94506020925060ff191682840152151560051b8201013880612491565b60005b83811061251a5750506000910152565b818101518382015260200161250a565b9060209161254381518092818552858086019101612507565b601f01601f1916010190565b9181601f840112156103b9578235916001600160401b0383116103b957602083818601950101116103b957565b9291926001600160401b0382116114bb57604051916125a5601f8201601f191660200184612440565b8294818452818301116103b9578281602093846000960137010152565b90601f81116125d057505050565b600091825260208220906020601f850160051c8301941061260c575b601f0160051c01915b82811061260157505050565b8181556001016125f5565b90925082906125ec565b908060209392818452848401376000828201840152601f01601f191601019056fea26469706673582212209c4883b04ad0edd159430e4b69cbc877c07b53e60170580d4c5a57b60140501964736f6c63430008140033","opcodes":"PUSH1 0x80 DUP1 PUSH1 0x40 MSTORE CALLVALUE PUSH2 0x28 JUMPI PUSH1 0x0 DUP1 SLOAD PUSH1 0x1 PUSH1 0x1 PUSH1 0xA0 SHL SUB NOT AND CALLER OR SWAP1 SSTORE PUSH2 0x266D SWAP1 DUP2 PUSH2 0x2E DUP3 CODECOPY RETURN JUMPDEST PUSH1 0x0 DUP1 REVERT INVALID PUSH2 0x700 PUSH1 0x40 MSTORE PUSH1 0x4 CALLDATASIZE LT ISZERO PUSH2 0x13 JUMPI PUSH1 0x0 DUP1 REVERT JUMPDEST PUSH1 0x0 CALLDATALOAD PUSH1 0xE0 SHR DUP1 PUSH4 0xCB6AAF1 EQ PUSH2 0x2352 JUMPI DUP1 PUSH4 0x637EEA19 EQ PUSH2 0x2329 JUMPI DUP1 PUSH4 0x83361522 EQ PUSH2 0x1ED6 JUMPI DUP1 PUSH4 0x9CF76134 EQ PUSH2 0x3DC JUMPI DUP1 PUSH4 0xC212D16B EQ PUSH2 0x3BE JUMPI PUSH4 0xDBC21424 EQ PUSH2 0x5F JUMPI PUSH1 0x0 DUP1 REVERT JUMPDEST CALLVALUE PUSH2 0x3B9 JUMPI PUSH1 0x20 CALLDATASIZE PUSH1 0x3 NOT ADD SLT PUSH2 0x3B9 JUMPI PUSH1 0x4 CALLDATALOAD PUSH1 0x1 PUSH1 0x1 PUSH1 0x40 SHL SUB DUP2 GT PUSH2 0x3B9 JUMPI CALLDATASIZE PUSH1 0x23 DUP3 ADD SLT ISZERO PUSH2 0x3B9 JUMPI CALLDATASIZE DUP2 PUSH1 0x4 ADD CALLDATALOAD SWAP2 PUSH1 0x24 ADD SWAP2 PUSH2 0xA0 SWAP3 PUSH2 0x257C JUMP JUMPDEST PUSH1 0x40 MLOAD DUP2 DUP2 DUP1 SWAP4 MLOAD PUSH1 0x20 DUP2 SWAP4 ADD SWAP2 PUSH2 0xB7 SWAP3 PUSH2 0x2507 JUMP JUMPDEST DUP2 ADD PUSH1 0x1 DUP2 MSTORE SUB PUSH1 0x20 ADD SWAP1 KECCAK256 PUSH2 0xCC DUP2 PUSH2 0x2461 JUMP JUMPDEST PUSH2 0xD8 PUSH1 0x1 DUP4 ADD PUSH2 0x2461 JUMP JUMPDEST PUSH2 0x460 MSTORE PUSH2 0xE8 PUSH1 0x2 DUP4 ADD PUSH2 0x2461 JUMP JUMPDEST PUSH2 0x440 MSTORE PUSH2 0xF8 PUSH1 0x3 DUP4 ADD PUSH2 0x2461 JUMP JUMPDEST PUSH2 0x2A0 MSTORE PUSH2 0x108 PUSH1 0x4 DUP4 ADD PUSH2 0x2461 JUMP JUMPDEST PUSH2 0x114 PUSH1 0x5 DUP5 ADD PUSH2 0x2461 JUMP JUMPDEST PUSH2 0x120 PUSH1 0x6 DUP6 ADD PUSH2 0x2461 JUMP JUMPDEST PUSH2 0x12C PUSH1 0x7 DUP7 ADD PUSH2 0x2461 JUMP JUMPDEST PUSH2 0x138 PUSH1 0x8 DUP8 ADD PUSH2 0x2461 JUMP JUMPDEST PUSH2 0x144 PUSH1 0x9 DUP9 ADD PUSH2 0x2461 JUMP JUMPDEST SWAP1 PUSH2 0x151 PUSH1 0xA DUP10 ADD PUSH2 0x2461 JUMP JUMPDEST SWAP3 PUSH2 0x15E PUSH1 0xB DUP11 ADD PUSH2 0x2461 JUMP JUMPDEST SWAP5 PUSH2 0x16B PUSH1 0xC DUP12 ADD PUSH2 0x2461 JUMP JUMPDEST SWAP7 PUSH2 0x178 PUSH1 0xD DUP13 ADD PUSH2 0x2461 JUMP JUMPDEST SWAP9 PUSH2 0x185 PUSH1 0xE DUP14 ADD PUSH2 0x2461 JUMP JUMPDEST SWAP11 PUSH2 0x192 PUSH1 0xF DUP15 ADD PUSH2 0x2461 JUMP JUMPDEST SWAP13 PUSH2 0x19F PUSH1 0x10 DUP3 ADD PUSH2 0x2461 JUMP JUMPDEST PUSH2 0x220 MSTORE PUSH2 0x1AF PUSH1 0x11 DUP3 ADD PUSH2 0x2461 JUMP JUMPDEST PUSH2 0x120 MSTORE PUSH2 0x1BF PUSH1 0x12 DUP3 ADD PUSH2 0x2461 JUMP JUMPDEST PUSH2 0x480 MSTORE PUSH1 0x13 ADD PUSH2 0x1CF SWAP1 PUSH2 0x2461 JUMP JUMPDEST PUSH2 0x600 MSTORE PUSH1 0x40 MLOAD DUP1 PUSH2 0x4C0 MSTORE PUSH2 0x280 DUP1 SWAP2 MSTORE PUSH2 0x4C0 MLOAD ADD PUSH2 0x1EF SWAP2 PUSH2 0x252A JUMP JUMPDEST PUSH2 0x4C0 MLOAD DUP1 DUP3 SUB SWAP1 PUSH1 0x20 ADD MSTORE PUSH2 0x460 MLOAD SWAP1 PUSH2 0x209 SWAP2 PUSH2 0x252A JUMP JUMPDEST PUSH2 0x4C0 MLOAD DUP1 DUP3 SUB SWAP1 PUSH1 0x40 ADD MSTORE PUSH2 0x440 MLOAD SWAP1 PUSH2 0x223 SWAP2 PUSH2 0x252A JUMP JUMPDEST PUSH2 0x4C0 MLOAD DUP1 DUP3 SUB SWAP1 PUSH1 0x60 ADD MSTORE PUSH2 0x2A0 MLOAD SWAP1 PUSH2 0x23D SWAP2 PUSH2 0x252A JUMP JUMPDEST PUSH2 0x4C0 MLOAD DUP1 DUP3 SUB SWAP1 PUSH1 0x80 ADD MSTORE PUSH2 0x252 SWAP2 PUSH2 0x252A JUMP JUMPDEST PUSH2 0x4C0 MLOAD DUP1 DUP3 SUB SWAP1 PUSH1 0xA0 ADD MSTORE PUSH2 0x267 SWAP2 PUSH2 0x252A JUMP JUMPDEST PUSH2 0x4C0 MLOAD DUP1 DUP3 SUB SWAP1 PUSH1 0xC0 ADD MSTORE PUSH2 0x27C SWAP2 PUSH2 0x252A JUMP JUMPDEST PUSH2 0x4C0 MLOAD DUP1 DUP3 SUB SWAP1 PUSH1 0xE0 ADD MSTORE PUSH2 0x291 SWAP2 PUSH2 0x252A JUMP JUMPDEST PUSH2 0x4C0 MLOAD DUP1 DUP3 SUB SWAP1 PUSH2 0x100 ADD MSTORE PUSH2 0x2A7 SWAP2 PUSH2 0x252A JUMP JUMPDEST PUSH2 0x4C0 MLOAD DUP1 DUP3 SUB SWAP1 PUSH2 0x120 ADD MSTORE PUSH2 0x2BD SWAP2 PUSH2 0x252A JUMP JUMPDEST PUSH2 0x4C0 MLOAD DUP1 DUP3 SUB SWAP1 PUSH2 0x140 ADD MSTORE PUSH2 0x2D3 SWAP2 PUSH2 0x252A JUMP JUMPDEST PUSH2 0x4C0 MLOAD DUP1 DUP3 SUB SWAP1 PUSH2 0x160 ADD MSTORE PUSH2 0x2E9 SWAP2 PUSH2 0x252A JUMP JUMPDEST PUSH2 0x4C0 MLOAD DUP1 DUP3 SUB SWAP1 PUSH2 0x180 ADD MSTORE PUSH2 0x2FF SWAP2 PUSH2 0x252A JUMP JUMPDEST PUSH2 0x4C0 MLOAD DUP1 DUP3 SUB SWAP1 PUSH2 0x1A0 ADD MSTORE PUSH2 0x315 SWAP2 PUSH2 0x252A JUMP JUMPDEST PUSH2 0x4C0 MLOAD DUP1 DUP3 SUB SWAP1 PUSH2 0x1C0 ADD MSTORE PUSH2 0x32B SWAP2 PUSH2 0x252A JUMP JUMPDEST PUSH2 0x4C0 MLOAD DUP1 DUP3 SUB SWAP1 PUSH2 0x1E0 ADD MSTORE PUSH2 0x341 SWAP2 PUSH2 0x252A JUMP JUMPDEST PUSH2 0x4C0 MLOAD DUP1 DUP3 SUB SWAP1 PUSH2 0x200 ADD MSTORE PUSH2 0x220 MLOAD SWAP1 PUSH2 0x35C SWAP2 PUSH2 0x252A JUMP JUMPDEST PUSH2 0x4C0 MLOAD DUP1 DUP3 SUB SWAP1 PUSH2 0x220 ADD MSTORE PUSH2 0x120 MLOAD SWAP1 PUSH2 0x377 SWAP2 PUSH2 0x252A JUMP JUMPDEST PUSH2 0x4C0 MLOAD DUP1 DUP3 SUB SWAP1 PUSH2 0x240 ADD MSTORE PUSH2 0x480 MLOAD SWAP1 PUSH2 0x392 SWAP2 PUSH2 0x252A JUMP JUMPDEST PUSH2 0x4C0 MLOAD DUP1 DUP3 SUB SWAP1 PUSH2 0x260 ADD MSTORE PUSH2 0x4C0 MLOAD SWAP1 PUSH2 0x600 MLOAD SWAP1 PUSH2 0x3B2 SWAP2 PUSH2 0x252A JUMP JUMPDEST SUB PUSH2 0x4C0 MLOAD RETURN JUMPDEST PUSH1 0x0 DUP1 REVERT JUMPDEST CALLVALUE PUSH2 0x3B9 JUMPI PUSH1 0x0 CALLDATASIZE PUSH1 0x3 NOT ADD SLT PUSH2 0x3B9 JUMPI PUSH1 0x20 PUSH1 0x2 SLOAD PUSH1 0x40 MLOAD SWAP1 DUP2 MSTORE RETURN JUMPDEST CALLVALUE PUSH2 0x3B9 JUMPI PUSH2 0x2A0 CALLDATASIZE PUSH1 0x3 NOT ADD SLT PUSH2 0x3B9 JUMPI PUSH1 0x4 CALLDATALOAD PUSH1 0x1 PUSH1 0x1 PUSH1 0x40 SHL SUB DUP2 GT PUSH2 0x3B9 JUMPI PUSH2 0x40D SWAP1 CALLDATASIZE SWAP1 PUSH1 0x4 ADD PUSH2 0x254F JUMP JUMPDEST PUSH2 0x5E0 MSTORE PUSH2 0x280 MSTORE PUSH1 0x24 CALLDATALOAD PUSH1 0x1 PUSH1 0x1 PUSH1 0x40 SHL SUB DUP2 GT PUSH2 0x3B9 JUMPI PUSH2 0x434 SWAP1 CALLDATASIZE SWAP1 PUSH1 0x4 ADD PUSH2 0x254F JUMP JUMPDEST PUSH1 0xC0 MSTORE PUSH2 0x320 MSTORE PUSH1 0x44 CALLDATALOAD PUSH1 0x1 PUSH1 0x1 PUSH1 0x40 SHL SUB DUP2 GT PUSH2 0x3B9 JUMPI PUSH2 0x45A SWAP1 CALLDATASIZE SWAP1 PUSH1 0x4 ADD PUSH2 0x254F JUMP JUMPDEST PUSH2 0x5A0 MSTORE PUSH2 0x340 MSTORE PUSH1 0x64 CALLDATALOAD PUSH1 0x1 PUSH1 0x1 PUSH1 0x40 SHL SUB DUP2 GT PUSH2 0x3B9 JUMPI PUSH2 0x481 SWAP1 CALLDATASIZE SWAP1 PUSH1 0x4 ADD PUSH2 0x254F JUMP JUMPDEST PUSH2 0x1C0 MSTORE PUSH2 0x400 MSTORE PUSH1 0x84 CALLDATALOAD PUSH1 0x1 PUSH1 0x1 PUSH1 0x40 SHL SUB DUP2 GT PUSH2 0x3B9 JUMPI PUSH2 0x4A8 SWAP1 CALLDATASIZE SWAP1 PUSH1 0x4 ADD PUSH2 0x254F JUMP JUMPDEST PUSH2 0x360 MSTORE PUSH2 0x200 MSTORE PUSH1 0x1 PUSH1 0x1 PUSH1 0x40 SHL SUB PUSH1 0xA4 CALLDATALOAD GT PUSH2 0x3B9 JUMPI PUSH2 0x4CF CALLDATASIZE PUSH1 0xA4 CALLDATALOAD PUSH1 0x4 ADD PUSH2 0x254F JUMP JUMPDEST PUSH2 0x520 MSTORE PUSH2 0x2C0 MSTORE PUSH1 0x1 PUSH1 0x1 PUSH1 0x40 SHL SUB PUSH1 0xC4 CALLDATALOAD GT PUSH2 0x3B9 JUMPI PUSH2 0x4F6 CALLDATASIZE PUSH1 0xC4 CALLDATALOAD PUSH1 0x4 ADD PUSH2 0x254F JUMP JUMPDEST PUSH1 0xE0 MSTORE PUSH2 0x640 MSTORE PUSH1 0x1 PUSH1 0x1 PUSH1 0x40 SHL SUB PUSH1 0xE4 CALLDATALOAD GT PUSH2 0x3B9 JUMPI PUSH2 0x51C CALLDATASIZE PUSH1 0xE4 CALLDATALOAD PUSH1 0x4 ADD PUSH2 0x254F JUMP JUMPDEST PUSH2 0x540 MSTORE PUSH2 0x3E0 MSTORE PUSH1 0x1 PUSH1 0x1 PUSH1 0x40 SHL SUB PUSH2 0x104 CALLDATALOAD GT PUSH2 0x3B9 JUMPI PUSH2 0x545 CALLDATASIZE PUSH2 0x104 CALLDATALOAD PUSH1 0x4 ADD PUSH2 0x254F JUMP JUMPDEST PUSH2 0x260 MSTORE PUSH2 0x2E0 MSTORE PUSH1 0x1 PUSH1 0x1 PUSH1 0x40 SHL SUB PUSH2 0x124 CALLDATALOAD GT PUSH2 0x3B9 JUMPI PUSH2 0x56E CALLDATASIZE PUSH2 0x124 CALLDATALOAD PUSH1 0x4 ADD PUSH2 0x254F JUMP JUMPDEST PUSH2 0x620 MSTORE PUSH1 0xA0 MSTORE PUSH1 0x1 PUSH1 0x1 PUSH1 0x40 SHL SUB PUSH2 0x144 CALLDATALOAD GT PUSH2 0x3B9 JUMPI PUSH2 0x596 CALLDATASIZE PUSH2 0x144 CALLDATALOAD PUSH1 0x4 ADD PUSH2 0x254F JUMP JUMPDEST PUSH1 0x80 MSTORE PUSH2 0x680 MSTORE PUSH1 0x1 PUSH1 0x1 PUSH1 0x40 SHL SUB PUSH2 0x164 CALLDATALOAD GT PUSH2 0x3B9 JUMPI PUSH2 0x5BE CALLDATASIZE PUSH2 0x164 CALLDATALOAD PUSH1 0x4 ADD PUSH2 0x254F JUMP JUMPDEST PUSH2 0x560 MSTORE PUSH2 0x5C0 MSTORE PUSH1 0x1 PUSH1 0x1 PUSH1 0x40 SHL SUB PUSH2 0x184 CALLDATALOAD GT PUSH2 0x3B9 JUMPI PUSH2 0x5E7 CALLDATASIZE PUSH2 0x184 CALLDATALOAD PUSH1 0x4 ADD PUSH2 0x254F JUMP JUMPDEST PUSH2 0x3C0 MSTORE PUSH2 0x6A0 MSTORE PUSH1 0x1 PUSH1 0x1 PUSH1 0x40 SHL SUB PUSH2 0x1A4 CALLDATALOAD GT PUSH2 0x3B9 JUMPI PUSH2 0x610 CALLDATASIZE PUSH2 0x1A4 CALLDATALOAD PUSH1 0x4 ADD PUSH2 0x254F JUMP JUMPDEST PUSH2 0x100 MSTORE PUSH2 0x180 MSTORE PUSH1 0x1 PUSH1 0x1 PUSH1 0x40 SHL SUB PUSH2 0x1C4 CALLDATALOAD GT PUSH2 0x3B9 JUMPI PUSH2 0x639 CALLDATASIZE PUSH2 0x1C4 CALLDATALOAD PUSH1 0x4 ADD PUSH2 0x254F JUMP JUMPDEST PUSH2 0x500 MSTORE PUSH2 0x3A0 MSTORE PUSH1 0x1 PUSH1 0x1 PUSH1 0x40 SHL SUB PUSH2 0x1E4 CALLDATALOAD GT PUSH2 0x3B9 JUMPI PUSH2 0x662 CALLDATASIZE PUSH2 0x1E4 CALLDATALOAD PUSH1 0x4 ADD PUSH2 0x254F JUMP JUMPDEST PUSH2 0x4A0 MSTORE PUSH2 0x300 MSTORE PUSH1 0x1 PUSH1 0x1 PUSH1 0x40 SHL SUB PUSH2 0x204 CALLDATALOAD GT PUSH2 0x3B9 JUMPI PUSH2 0x68B CALLDATASIZE PUSH2 0x204 CALLDATALOAD PUSH1 0x4 ADD PUSH2 0x254F JUMP JUMPDEST PUSH2 0x140 MSTORE PUSH2 0x4E0 MSTORE PUSH1 0x1 PUSH1 0x1 PUSH1 0x40 SHL SUB PUSH2 0x224 CALLDATALOAD GT PUSH2 0x3B9 JUMPI PUSH2 0x6B4 CALLDATASIZE PUSH2 0x224 CALLDATALOAD PUSH1 0x4 ADD PUSH2 0x254F JUMP JUMPDEST PUSH2 0x1A0 MSTORE PUSH2 0x1E0 MSTORE PUSH1 0x1 PUSH1 0x1 PUSH1 0x40 SHL SUB PUSH2 0x244 CALLDATALOAD GT PUSH2 0x3B9 JUMPI PUSH2 0x6DD CALLDATASIZE PUSH2 0x244 CALLDATALOAD PUSH1 0x4 ADD PUSH2 0x254F JUMP JUMPDEST PUSH2 0x6E0 MSTORE PUSH2 0x380 MSTORE PUSH1 0x1 PUSH1 0x1 PUSH1 0x40 SHL SUB PUSH2 0x264 CALLDATALOAD GT PUSH2 0x3B9 JUMPI PUSH2 0x706 CALLDATASIZE PUSH2 0x264 CALLDATALOAD PUSH1 0x4 ADD PUSH2 0x254F JUMP JUMPDEST PUSH2 0x240 MSTORE PUSH2 0x420 MSTORE PUSH1 0x1 PUSH1 0x1 PUSH1 0x40 SHL SUB PUSH2 0x284 CALLDATALOAD GT PUSH2 0x3B9 JUMPI PUSH2 0x72F CALLDATASIZE PUSH2 0x284 CALLDATALOAD PUSH1 0x4 ADD PUSH2 0x254F JUMP JUMPDEST PUSH2 0x6C0 MSTORE PUSH2 0x580 MSTORE PUSH1 0x0 SLOAD PUSH1 0x1 PUSH1 0x1 PUSH1 0xA0 SHL SUB AND CALLER SUB PUSH2 0x1EA3 JUMPI PUSH2 0x759 PUSH1 0x40 MLOAD DUP1 PUSH2 0x660 MSTORE PUSH2 0x2424 JUMP JUMPDEST PUSH2 0x769 CALLDATASIZE PUSH1 0xC0 MLOAD PUSH2 0x320 MLOAD PUSH2 0x257C JUMP JUMPDEST PUSH2 0x660 MLOAD MSTORE PUSH2 0x77F CALLDATASIZE PUSH2 0x5A0 MLOAD PUSH2 0x340 MLOAD PUSH2 0x257C JUMP JUMPDEST PUSH1 0x20 PUSH2 0x660 MLOAD ADD MSTORE PUSH2 0x798 CALLDATASIZE PUSH2 0x1C0 MLOAD PUSH2 0x400 MLOAD PUSH2 0x257C JUMP JUMPDEST PUSH1 0x40 PUSH2 0x660 MLOAD ADD MSTORE PUSH2 0x7B1 CALLDATASIZE PUSH2 0x360 MLOAD PUSH2 0x200 MLOAD PUSH2 0x257C JUMP JUMPDEST PUSH1 0x60 PUSH2 0x660 MLOAD ADD MSTORE PUSH2 0x7CA CALLDATASIZE PUSH2 0x520 MLOAD PUSH2 0x2C0 MLOAD PUSH2 0x257C JUMP JUMPDEST PUSH1 0x80 PUSH2 0x660 MLOAD ADD MSTORE PUSH2 0x7E2 CALLDATASIZE PUSH1 0xE0 MLOAD PUSH2 0x640 MLOAD PUSH2 0x257C JUMP JUMPDEST PUSH1 0xA0 PUSH2 0x660 MLOAD ADD MSTORE PUSH2 0x7FB CALLDATASIZE PUSH2 0x540 MLOAD PUSH2 0x3E0 MLOAD PUSH2 0x257C JUMP JUMPDEST PUSH1 0xC0 PUSH2 0x660 MLOAD ADD MSTORE PUSH2 0x814 CALLDATASIZE PUSH2 0x260 MLOAD PUSH2 0x2E0 MLOAD PUSH2 0x257C JUMP JUMPDEST PUSH1 0xE0 PUSH2 0x660 MLOAD ADD MSTORE PUSH2 0x82C CALLDATASIZE PUSH2 0x620 MLOAD PUSH1 0xA0 MLOAD PUSH2 0x257C JUMP JUMPDEST PUSH2 0x100 PUSH2 0x660 MLOAD ADD MSTORE PUSH2 0x845 CALLDATASIZE PUSH1 0x80 MLOAD PUSH2 0x680 MLOAD PUSH2 0x257C JUMP JUMPDEST PUSH2 0x120 PUSH2 0x660 MLOAD ADD MSTORE PUSH2 0x85F CALLDATASIZE PUSH2 0x560 MLOAD PUSH2 0x5C0 MLOAD PUSH2 0x257C JUMP JUMPDEST PUSH2 0x140 PUSH2 0x660 MLOAD ADD MSTORE PUSH2 0x879 CALLDATASIZE PUSH2 0x3C0 MLOAD PUSH2 0x6A0 MLOAD PUSH2 0x257C JUMP JUMPDEST PUSH2 0x160 PUSH2 0x660 MLOAD ADD MSTORE PUSH2 0x893 CALLDATASIZE PUSH2 0x100 MLOAD PUSH2 0x180 MLOAD PUSH2 0x257C JUMP JUMPDEST PUSH2 0x180 PUSH2 0x660 MLOAD ADD MSTORE PUSH2 0x8AD CALLDATASIZE PUSH2 0x500 MLOAD PUSH2 0x3A0 MLOAD PUSH2 0x257C JUMP JUMPDEST PUSH2 0x1A0 PUSH2 0x660 MLOAD ADD MSTORE PUSH2 0x8C7 CALLDATASIZE PUSH2 0x4A0 MLOAD PUSH2 0x300 MLOAD PUSH2 0x257C JUMP JUMPDEST PUSH2 0x1C0 PUSH2 0x660 MLOAD ADD MSTORE PUSH2 0x8E1 CALLDATASIZE PUSH2 0x140 MLOAD PUSH2 0x4E0 MLOAD PUSH2 0x257C JUMP JUMPDEST PUSH2 0x1E0 PUSH2 0x660 MLOAD ADD MSTORE PUSH2 0x8FB CALLDATASIZE PUSH2 0x1A0 MLOAD PUSH2 0x1E0 MLOAD PUSH2 0x257C JUMP JUMPDEST PUSH2 0x200 PUSH2 0x660 MLOAD ADD MSTORE PUSH2 0x915 CALLDATASIZE PUSH2 0x6E0 MLOAD PUSH2 0x380 MLOAD PUSH2 0x257C JUMP JUMPDEST PUSH2 0x220 PUSH2 0x660 MLOAD ADD MSTORE PUSH2 0x92F CALLDATASIZE PUSH2 0x240 MLOAD PUSH2 0x420 MLOAD PUSH2 0x257C JUMP JUMPDEST PUSH2 0x240 PUSH2 0x660 MLOAD ADD MSTORE PUSH2 0x949 CALLDATASIZE PUSH2 0x6C0 MLOAD PUSH2 0x580 MLOAD PUSH2 0x257C JUMP JUMPDEST PUSH2 0x260 PUSH2 0x660 MLOAD ADD MSTORE PUSH1 0x40 MLOAD PUSH2 0x5E0 MLOAD PUSH2 0x280 MLOAD DUP3 CALLDATACOPY PUSH1 0x1 PUSH2 0x5E0 MLOAD DUP3 ADD MSTORE PUSH1 0x20 DUP2 PUSH2 0x5E0 MLOAD DUP2 ADD SUB ADD SWAP1 KECCAK256 PUSH2 0x660 MLOAD MLOAD DUP1 MLOAD SWAP1 PUSH1 0x1 PUSH1 0x1 PUSH1 0x40 SHL SUB DUP3 GT PUSH2 0x14BB JUMPI DUP2 SWAP1 PUSH2 0x9A1 DUP3 PUSH2 0x99B DUP7 SLOAD PUSH2 0x23EA JUMP JUMPDEST DUP7 PUSH2 0x25C2 JUMP JUMPDEST PUSH1 0x20 SWAP1 PUSH1 0x1F DUP4 GT PUSH1 0x1 EQ PUSH2 0x1E37 JUMPI PUSH1 0x0 SWAP3 PUSH2 0x1E2C JUMPI JUMPDEST POP POP DUP2 PUSH1 0x1 SHL SWAP2 PUSH1 0x0 NOT SWAP1 PUSH1 0x3 SHL SHR NOT AND OR DUP2 SSTORE JUMPDEST PUSH1 0x20 PUSH2 0x660 MLOAD ADD MLOAD DUP1 MLOAD SWAP1 PUSH1 0x1 PUSH1 0x1 PUSH1 0x40 SHL SUB DUP3 GT PUSH2 0x14BB JUMPI DUP2 SWAP1 PUSH2 0xA01 DUP3 PUSH2 0x9F8 PUSH1 0x1 DUP8 ADD SLOAD PUSH2 0x23EA JUMP JUMPDEST PUSH1 0x1 DUP8 ADD PUSH2 0x25C2 JUMP JUMPDEST PUSH1 0x20 SWAP1 PUSH1 0x1F DUP4 GT PUSH1 0x1 EQ PUSH2 0x1DBA JUMPI PUSH1 0x0 SWAP3 PUSH2 0x1DAF JUMPI JUMPDEST POP POP DUP2 PUSH1 0x1 SHL SWAP2 PUSH1 0x0 NOT SWAP1 PUSH1 0x3 SHL SHR NOT AND OR PUSH1 0x1 DUP3 ADD SSTORE JUMPDEST PUSH1 0x40 PUSH2 0x660 MLOAD ADD MLOAD DUP1 MLOAD SWAP1 PUSH1 0x1 PUSH1 0x1 PUSH1 0x40 SHL SUB DUP3 GT PUSH2 0x14BB JUMPI DUP2 SWAP1 PUSH2 0xA64 DUP3 PUSH2 0xA5B PUSH1 0x2 DUP8 ADD SLOAD PUSH2 0x23EA JUMP JUMPDEST PUSH1 0x2 DUP8 ADD PUSH2 0x25C2 JUMP JUMPDEST PUSH1 0x20 SWAP1 PUSH1 0x1F DUP4 GT PUSH1 0x1 EQ PUSH2 0x1D3D JUMPI PUSH1 0x0 SWAP3 PUSH2 0x1D32 JUMPI JUMPDEST POP POP DUP2 PUSH1 0x1 SHL SWAP2 PUSH1 0x0 NOT SWAP1 PUSH1 0x3 SHL SHR NOT AND OR PUSH1 0x2 DUP3 ADD SSTORE JUMPDEST PUSH1 0x60 PUSH2 0x660 MLOAD ADD MLOAD DUP1 MLOAD SWAP1 PUSH1 0x1 PUSH1 0x1 PUSH1 0x40 SHL SUB DUP3 GT PUSH2 0x14BB JUMPI DUP2 SWAP1 PUSH2 0xAC7 DUP3 PUSH2 0xABE PUSH1 0x3 DUP8 ADD SLOAD PUSH2 0x23EA JUMP JUMPDEST PUSH1 0x3 DUP8 ADD PUSH2 0x25C2 JUMP JUMPDEST PUSH1 0x20 SWAP1 PUSH1 0x1F DUP4 GT PUSH1 0x1 EQ PUSH2 0x1CC0 JUMPI PUSH1 0x0 SWAP3 PUSH2 0x1CB5 JUMPI JUMPDEST POP POP DUP2 PUSH1 0x1 SHL SWAP2 PUSH1 0x0 NOT SWAP1 PUSH1 0x3 SHL SHR NOT AND OR PUSH1 0x3 DUP3 ADD SSTORE JUMPDEST PUSH1 0x80 PUSH2 0x660 MLOAD ADD MLOAD DUP1 MLOAD SWAP1 PUSH1 0x1 PUSH1 0x1 PUSH1 0x40 SHL SUB DUP3 GT PUSH2 0x14BB JUMPI DUP2 SWAP1 PUSH2 0xB2A DUP3 PUSH2 0xB21 PUSH1 0x4 DUP8 ADD SLOAD PUSH2 0x23EA JUMP JUMPDEST PUSH1 0x4 DUP8 ADD PUSH2 0x25C2 JUMP JUMPDEST PUSH1 0x20 SWAP1 PUSH1 0x1F DUP4 GT PUSH1 0x1 EQ PUSH2 0x1C43 JUMPI PUSH1 0x0 SWAP3 PUSH2 0x1C38 JUMPI JUMPDEST POP POP DUP2 PUSH1 0x1 SHL SWAP2 PUSH1 0x0 NOT SWAP1 PUSH1 0x3 SHL SHR NOT AND OR PUSH1 0x4 DUP3 ADD SSTORE JUMPDEST PUSH1 0xA0 PUSH2 0x660 MLOAD ADD MLOAD DUP1 MLOAD SWAP1 PUSH1 0x1 PUSH1 0x1 PUSH1 0x40 SHL SUB DUP3 GT PUSH2 0x14BB JUMPI DUP2 SWAP1 PUSH2 0xB8D DUP3 PUSH2 0xB84 PUSH1 0x5 DUP8 ADD SLOAD PUSH2 0x23EA JUMP JUMPDEST PUSH1 0x5 DUP8 ADD PUSH2 0x25C2 JUMP JUMPDEST PUSH1 0x20 SWAP1 PUSH1 0x1F DUP4 GT PUSH1 0x1 EQ PUSH2 0x1BC6 JUMPI PUSH1 0x0 SWAP3 PUSH2 0x1BBB JUMPI JUMPDEST POP POP DUP2 PUSH1 0x1 SHL SWAP2 PUSH1 0x0 NOT SWAP1 PUSH1 0x3 SHL SHR NOT AND OR PUSH1 0x5 DUP3 ADD SSTORE JUMPDEST PUSH1 0xC0 PUSH2 0x660 MLOAD ADD MLOAD DUP1 MLOAD SWAP1 PUSH1 0x1 PUSH1 0x1 PUSH1 0x40 SHL SUB DUP3 GT PUSH2 0x14BB JUMPI DUP2 SWAP1 PUSH2 0xBF0 DUP3 PUSH2 0xBE7 PUSH1 0x6 DUP8 ADD SLOAD PUSH2 0x23EA JUMP JUMPDEST PUSH1 0x6 DUP8 ADD PUSH2 0x25C2 JUMP JUMPDEST PUSH1 0x20 SWAP1 PUSH1 0x1F DUP4 GT PUSH1 0x1 EQ PUSH2 0x1B49 JUMPI PUSH1 0x0 SWAP3 PUSH2 0x1B3E JUMPI JUMPDEST POP POP DUP2 PUSH1 0x1 SHL SWAP2 PUSH1 0x0 NOT SWAP1 PUSH1 0x3 SHL SHR NOT AND OR PUSH1 0x6 DUP3 ADD SSTORE JUMPDEST PUSH1 0xE0 PUSH2 0x660 MLOAD ADD MLOAD DUP1 MLOAD SWAP1 PUSH1 0x1 PUSH1 0x1 PUSH1 0x40 SHL SUB DUP3 GT PUSH2 0x14BB JUMPI DUP2 SWAP1 PUSH2 0xC53 DUP3 PUSH2 0xC4A PUSH1 0x7 DUP8 ADD SLOAD PUSH2 0x23EA JUMP JUMPDEST PUSH1 0x7 DUP8 ADD PUSH2 0x25C2 JUMP JUMPDEST PUSH1 0x20 SWAP1 PUSH1 0x1F DUP4 GT PUSH1 0x1 EQ PUSH2 0x1ACC JUMPI PUSH1 0x0 SWAP3 PUSH2 0x1AC1 JUMPI JUMPDEST POP POP DUP2 PUSH1 0x1 SHL SWAP2 PUSH1 0x0 NOT SWAP1 PUSH1 0x3 SHL SHR NOT AND OR PUSH1 0x7 DUP3 ADD SSTORE JUMPDEST PUSH2 0x100 PUSH2 0x660 MLOAD ADD MLOAD DUP1 MLOAD SWAP1 PUSH1 0x1 PUSH1 0x1 PUSH1 0x40 SHL SUB DUP3 GT PUSH2 0x14BB JUMPI DUP2 SWAP1 PUSH2 0xCB7 DUP3 PUSH2 0xCAE PUSH1 0x8 DUP8 ADD SLOAD PUSH2 0x23EA JUMP JUMPDEST PUSH1 0x8 DUP8 ADD PUSH2 0x25C2 JUMP JUMPDEST PUSH1 0x20 SWAP1 PUSH1 0x1F DUP4 GT PUSH1 0x1 EQ PUSH2 0x1A4F JUMPI PUSH1 0x0 SWAP3 PUSH2 0x1A44 JUMPI JUMPDEST POP POP DUP2 PUSH1 0x1 SHL SWAP2 PUSH1 0x0 NOT SWAP1 PUSH1 0x3 SHL SHR NOT AND OR PUSH1 0x8 DUP3 ADD SSTORE JUMPDEST PUSH2 0x120 PUSH2 0x660 MLOAD ADD MLOAD DUP1 MLOAD SWAP1 PUSH1 0x1 PUSH1 0x1 PUSH1 0x40 SHL SUB DUP3 GT PUSH2 0x14BB JUMPI DUP2 SWAP1 PUSH2 0xD1B DUP3 PUSH2 0xD12 PUSH1 0x9 DUP8 ADD SLOAD PUSH2 0x23EA JUMP JUMPDEST PUSH1 0x9 DUP8 ADD PUSH2 0x25C2 JUMP JUMPDEST PUSH1 0x20 SWAP1 PUSH1 0x1F DUP4 GT PUSH1 0x1 EQ PUSH2 0x19D2 JUMPI PUSH1 0x0 SWAP3 PUSH2 0x19C7 JUMPI JUMPDEST POP POP DUP2 PUSH1 0x1 SHL SWAP2 PUSH1 0x0 NOT SWAP1 PUSH1 0x3 SHL SHR NOT AND OR PUSH1 0x9 DUP3 ADD SSTORE JUMPDEST PUSH2 0x140 PUSH2 0x660 MLOAD ADD MLOAD DUP1 MLOAD SWAP1 PUSH1 0x1 PUSH1 0x1 PUSH1 0x40 SHL SUB DUP3 GT PUSH2 0x14BB JUMPI DUP2 SWAP1 PUSH2 0xD7F DUP3 PUSH2 0xD76 PUSH1 0xA DUP8 ADD SLOAD PUSH2 0x23EA JUMP JUMPDEST PUSH1 0xA DUP8 ADD PUSH2 0x25C2 JUMP JUMPDEST PUSH1 0x20 SWAP1 PUSH1 0x1F DUP4 GT PUSH1 0x1 EQ PUSH2 0x1955 JUMPI PUSH1 0x0 SWAP3 PUSH2 0x194A JUMPI JUMPDEST POP POP DUP2 PUSH1 0x1 SHL SWAP2 PUSH1 0x0 NOT SWAP1 PUSH1 0x3 SHL SHR NOT AND OR PUSH1 0xA DUP3 ADD SSTORE JUMPDEST PUSH2 0x160 PUSH2 0x660 MLOAD ADD MLOAD DUP1 MLOAD SWAP1 PUSH1 0x1 PUSH1 0x1 PUSH1 0x40 SHL SUB DUP3 GT PUSH2 0x14BB JUMPI DUP2 SWAP1 PUSH2 0xDE3 DUP3 PUSH2 0xDDA PUSH1 0xB DUP8 ADD SLOAD PUSH2 0x23EA JUMP JUMPDEST PUSH1 0xB DUP8 ADD PUSH2 0x25C2 JUMP JUMPDEST PUSH1 0x20 SWAP1 PUSH1 0x1F DUP4 GT PUSH1 0x1 EQ PUSH2 0x18D8 JUMPI PUSH1 0x0 SWAP3 PUSH2 0x18CD JUMPI JUMPDEST POP POP DUP2 PUSH1 0x1 SHL SWAP2 PUSH1 0x0 NOT SWAP1 PUSH1 0x3 SHL SHR NOT AND OR PUSH1 0xB DUP3 ADD SSTORE JUMPDEST PUSH2 0x180 PUSH2 0x660 MLOAD ADD MLOAD DUP1 MLOAD SWAP1 PUSH1 0x1 PUSH1 0x1 PUSH1 0x40 SHL SUB DUP3 GT PUSH2 0x14BB JUMPI DUP2 SWAP1 PUSH2 0xE47 DUP3 PUSH2 0xE3E PUSH1 0xC DUP8 ADD SLOAD PUSH2 0x23EA JUMP JUMPDEST PUSH1 0xC DUP8 ADD PUSH2 0x25C2 JUMP JUMPDEST PUSH1 0x20 SWAP1 PUSH1 0x1F DUP4 GT PUSH1 0x1 EQ PUSH2 0x185B JUMPI PUSH1 0x0 SWAP3 PUSH2 0x1850 JUMPI JUMPDEST POP POP DUP2 PUSH1 0x1 SHL SWAP2 PUSH1 0x0 NOT SWAP1 PUSH1 0x3 SHL SHR NOT AND OR PUSH1 0xC DUP3 ADD SSTORE JUMPDEST PUSH2 0x1A0 PUSH2 0x660 MLOAD ADD MLOAD DUP1 MLOAD SWAP1 PUSH1 0x1 PUSH1 0x1 PUSH1 0x40 SHL SUB DUP3 GT PUSH2 0x14BB JUMPI DUP2 SWAP1 PUSH2 0xEAB DUP3 PUSH2 0xEA2 PUSH1 0xD DUP8 ADD SLOAD PUSH2 0x23EA JUMP JUMPDEST PUSH1 0xD DUP8 ADD PUSH2 0x25C2 JUMP JUMPDEST PUSH1 0x20 SWAP1 PUSH1 0x1F DUP4 GT PUSH1 0x1 EQ PUSH2 0x17DE JUMPI PUSH1 0x0 SWAP3 PUSH2 0x17D3 JUMPI JUMPDEST POP POP DUP2 PUSH1 0x1 SHL SWAP2 PUSH1 0x0 NOT SWAP1 PUSH1 0x3 SHL SHR NOT AND OR PUSH1 0xD DUP3 ADD SSTORE JUMPDEST PUSH2 0x1C0 PUSH2 0x660 MLOAD ADD MLOAD DUP1 MLOAD SWAP1 PUSH1 0x1 PUSH1 0x1 PUSH1 0x40 SHL SUB DUP3 GT PUSH2 0x14BB JUMPI DUP2 SWAP1 PUSH2 0xF0F DUP3 PUSH2 0xF06 PUSH1 0xE DUP8 ADD SLOAD PUSH2 0x23EA JUMP JUMPDEST PUSH1 0xE DUP8 ADD PUSH2 0x25C2 JUMP JUMPDEST PUSH1 0x20 SWAP1 PUSH1 0x1F DUP4 GT PUSH1 0x1 EQ PUSH2 0x1761 JUMPI PUSH1 0x0 SWAP3 PUSH2 0x1756 JUMPI JUMPDEST POP POP DUP2 PUSH1 0x1 SHL SWAP2 PUSH1 0x0 NOT SWAP1 PUSH1 0x3 SHL SHR NOT AND OR PUSH1 0xE DUP3 ADD SSTORE JUMPDEST PUSH2 0x1E0 PUSH2 0x660 MLOAD ADD MLOAD DUP1 MLOAD SWAP1 PUSH1 0x1 PUSH1 0x1 PUSH1 0x40 SHL SUB DUP3 GT PUSH2 0x14BB JUMPI DUP2 SWAP1 PUSH2 0xF73 DUP3 PUSH2 0xF6A PUSH1 0xF DUP8 ADD SLOAD PUSH2 0x23EA JUMP JUMPDEST PUSH1 0xF DUP8 ADD PUSH2 0x25C2 JUMP JUMPDEST PUSH1 0x20 SWAP1 PUSH1 0x1F DUP4 GT PUSH1 0x1 EQ PUSH2 0x16E4 JUMPI PUSH1 0x0 SWAP3 PUSH2 0x16D9 JUMPI JUMPDEST POP POP DUP2 PUSH1 0x1 SHL SWAP2 PUSH1 0x0 NOT SWAP1 PUSH1 0x3 SHL SHR NOT AND OR PUSH1 0xF DUP3 ADD SSTORE JUMPDEST PUSH2 0x200 PUSH2 0x660 MLOAD ADD MLOAD DUP1 MLOAD SWAP1 PUSH1 0x1 PUSH1 0x1 PUSH1 0x40 SHL SUB DUP3 GT PUSH2 0x14BB JUMPI DUP2 SWAP1 PUSH2 0xFD7 DUP3 PUSH2 0xFCE PUSH1 0x10 DUP8 ADD SLOAD PUSH2 0x23EA JUMP JUMPDEST PUSH1 0x10 DUP8 ADD PUSH2 0x25C2 JUMP JUMPDEST PUSH1 0x20 SWAP1 PUSH1 0x1F DUP4 GT PUSH1 0x1 EQ PUSH2 0x1667 JUMPI PUSH1 0x0 SWAP3 PUSH2 0x165C JUMPI JUMPDEST POP POP DUP2 PUSH1 0x1 SHL SWAP2 PUSH1 0x0 NOT SWAP1 PUSH1 0x3 SHL SHR NOT AND OR PUSH1 0x10 DUP3 ADD SSTORE JUMPDEST PUSH2 0x220 PUSH2 0x660 MLOAD ADD MLOAD DUP1 MLOAD SWAP1 PUSH1 0x1 PUSH1 0x1 PUSH1 0x40 SHL SUB DUP3 GT PUSH2 0x14BB JUMPI DUP2 SWAP1 PUSH2 0x103B DUP3 PUSH2 0x1032 PUSH1 0x11 DUP8 ADD SLOAD PUSH2 0x23EA JUMP JUMPDEST PUSH1 0x11 DUP8 ADD PUSH2 0x25C2 JUMP JUMPDEST PUSH1 0x20 SWAP1 PUSH1 0x1F DUP4 GT PUSH1 0x1 EQ PUSH2 0x15EA JUMPI PUSH1 0x0 SWAP3 PUSH2 0x15DF JUMPI JUMPDEST POP POP DUP2 PUSH1 0x1 SHL SWAP2 PUSH1 0x0 NOT SWAP1 PUSH1 0x3 SHL SHR NOT AND OR PUSH1 0x11 DUP3 ADD SSTORE JUMPDEST PUSH2 0x240 PUSH2 0x660 MLOAD ADD MLOAD DUP1 MLOAD SWAP1 PUSH1 0x1 PUSH1 0x1 PUSH1 0x40 SHL SUB DUP3 GT PUSH2 0x14BB JUMPI DUP2 SWAP1 PUSH2 0x109F DUP3 PUSH2 0x1096 PUSH1 0x12 DUP8 ADD SLOAD PUSH2 0x23EA JUMP JUMPDEST PUSH1 0x12 DUP8 ADD PUSH2 0x25C2 JUMP JUMPDEST PUSH1 0x20 SWAP1 PUSH1 0x1F DUP4 GT PUSH1 0x1 EQ PUSH2 0x156D JUMPI PUSH1 0x0 SWAP3 PUSH2 0x1562 JUMPI JUMPDEST POP POP DUP2 PUSH1 0x1 SHL SWAP2 PUSH1 0x0 NOT SWAP1 PUSH1 0x3 SHL SHR NOT AND OR PUSH1 0x12 DUP3 ADD SSTORE JUMPDEST PUSH2 0x260 PUSH2 0x660 MLOAD ADD MLOAD DUP1 MLOAD SWAP1 PUSH1 0x1 PUSH1 0x1 PUSH1 0x40 SHL SUB DUP3 GT PUSH2 0x14BB JUMPI PUSH2 0x1101 DUP3 PUSH2 0x10F8 PUSH1 0x13 DUP7 ADD SLOAD PUSH2 0x23EA JUMP JUMPDEST PUSH1 0x13 DUP7 ADD PUSH2 0x25C2 JUMP JUMPDEST PUSH1 0x20 SWAP1 PUSH1 0x1F DUP4 GT PUSH1 0x1 EQ PUSH2 0x14F2 JUMPI PUSH1 0x13 SWAP3 SWAP2 PUSH1 0x0 SWAP2 DUP4 PUSH2 0x14E7 JUMPI JUMPDEST POP POP DUP2 PUSH1 0x1 SHL SWAP2 PUSH1 0x0 NOT SWAP1 PUSH1 0x3 SHL SHR NOT AND OR SWAP2 ADD SSTORE JUMPDEST PUSH1 0x2 SLOAD PUSH9 0x10000000000000000 DUP2 LT ISZERO PUSH2 0x14BB JUMPI DUP1 PUSH1 0x1 PUSH2 0x1156 SWAP3 ADD PUSH1 0x2 SSTORE PUSH2 0x239D JUMP JUMPDEST PUSH2 0x14D1 JUMPI PUSH2 0x5E0 MLOAD PUSH1 0x1 PUSH1 0x1 PUSH1 0x40 SHL SUB DUP2 GT PUSH2 0x14BB JUMPI PUSH2 0x1180 SWAP1 PUSH2 0x117A DUP4 SLOAD PUSH2 0x23EA JUMP JUMPDEST DUP4 PUSH2 0x25C2 JUMP JUMPDEST PUSH1 0x0 SWAP1 PUSH2 0x5E0 MLOAD PUSH1 0x1F DUP2 GT PUSH1 0x1 EQ PUSH2 0x144E JUMPI POP SWAP1 PUSH1 0x0 PUSH2 0x5E0 MLOAD SWAP2 DUP3 PUSH2 0x1440 JUMPI JUMPDEST POP DUP2 PUSH1 0x1 SHL SWAP2 PUSH1 0x0 NOT SWAP1 PUSH1 0x3 SHL SHR NOT AND OR SWAP1 SSTORE JUMPDEST PUSH2 0x2A0 PUSH1 0x40 MLOAD DUP1 PUSH2 0x160 MSTORE MSTORE PUSH32 0x61E64BE8185C09AC4F74DF87E4934D5C02DFE12375E260D8F4D0C8660DFB17B6 PUSH2 0x1416 PUSH2 0x13FC PUSH2 0x13E2 PUSH2 0x13C8 PUSH2 0x13AE PUSH2 0x1394 PUSH2 0x137A PUSH2 0x1360 PUSH2 0x1346 PUSH2 0x132C PUSH2 0x1313 PUSH2 0x12FA PUSH2 0x12E0 PUSH2 0x12C7 PUSH2 0x12AF PUSH2 0x1296 PUSH2 0x127D PUSH2 0x1264 PUSH2 0x124B PUSH2 0x1233 PUSH2 0x2A0 PUSH2 0x160 MLOAD ADD PUSH2 0x5E0 MLOAD PUSH2 0x280 MLOAD PUSH2 0x2616 JUMP JUMPDEST PUSH2 0x160 MLOAD PUSH1 0x20 DUP2 DUP4 SUB SWAP2 ADD MSTORE PUSH1 0xC0 MLOAD PUSH2 0x320 MLOAD PUSH2 0x2616 JUMP JUMPDEST PUSH2 0x160 MLOAD PUSH1 0x40 DUP2 DUP4 SUB SWAP2 ADD MSTORE PUSH2 0x5A0 MLOAD PUSH2 0x340 MLOAD PUSH2 0x2616 JUMP JUMPDEST PUSH2 0x160 MLOAD PUSH1 0x60 DUP2 DUP4 SUB SWAP2 ADD MSTORE PUSH2 0x1C0 MLOAD PUSH2 0x400 MLOAD PUSH2 0x2616 JUMP JUMPDEST PUSH2 0x160 MLOAD PUSH1 0x80 DUP2 DUP4 SUB SWAP2 ADD MSTORE PUSH2 0x360 MLOAD PUSH2 0x200 MLOAD PUSH2 0x2616 JUMP JUMPDEST PUSH2 0x160 MLOAD PUSH1 0xA0 DUP2 DUP4 SUB SWAP2 ADD MSTORE PUSH2 0x520 MLOAD PUSH2 0x2C0 MLOAD PUSH2 0x2616 JUMP JUMPDEST PUSH2 0x160 MLOAD PUSH1 0xC0 DUP2 DUP4 SUB SWAP2 ADD MSTORE PUSH1 0xE0 MLOAD PUSH2 0x640 MLOAD PUSH2 0x2616 JUMP JUMPDEST PUSH2 0x160 MLOAD PUSH1 0xE0 DUP2 DUP4 SUB SWAP2 ADD MSTORE PUSH2 0x540 MLOAD PUSH2 0x3E0 MLOAD PUSH2 0x2616 JUMP JUMPDEST PUSH2 0x160 MLOAD PUSH2 0x100 DUP2 DUP4 SUB SWAP2 ADD MSTORE PUSH2 0x260 MLOAD PUSH2 0x2E0 MLOAD PUSH2 0x2616 JUMP JUMPDEST PUSH2 0x160 MLOAD PUSH2 0x120 DUP2 DUP4 SUB SWAP2 ADD MSTORE PUSH2 0x620 MLOAD PUSH1 0xA0 MLOAD PUSH2 0x2616 JUMP JUMPDEST PUSH2 0x160 MLOAD PUSH2 0x140 DUP2 DUP4 SUB SWAP2 ADD MSTORE PUSH1 0x80 MLOAD PUSH2 0x680 MLOAD PUSH2 0x2616 JUMP JUMPDEST PUSH2 0x160 MLOAD PUSH2 0x160 DUP2 DUP4 SUB SWAP2 ADD MSTORE PUSH2 0x560 MLOAD PUSH2 0x5C0 MLOAD PUSH2 0x2616 JUMP JUMPDEST PUSH2 0x160 MLOAD PUSH2 0x180 DUP2 DUP4 SUB SWAP2 ADD MSTORE PUSH2 0x3C0 MLOAD PUSH2 0x6A0 MLOAD PUSH2 0x2616 JUMP JUMPDEST PUSH2 0x160 MLOAD PUSH2 0x1A0 DUP2 DUP4 SUB SWAP2 ADD MSTORE PUSH2 0x100 MLOAD PUSH2 0x180 MLOAD PUSH2 0x2616 JUMP JUMPDEST PUSH2 0x160 MLOAD PUSH2 0x1C0 DUP2 DUP4 SUB SWAP2 ADD MSTORE PUSH2 0x500 MLOAD PUSH2 0x3A0 MLOAD PUSH2 0x2616 JUMP JUMPDEST PUSH2 0x160 MLOAD PUSH2 0x1E0 DUP2 DUP4 SUB SWAP2 ADD MSTORE PUSH2 0x4A0 MLOAD PUSH2 0x300 MLOAD PUSH2 0x2616 JUMP JUMPDEST PUSH2 0x160 MLOAD PUSH2 0x200 DUP2 DUP4 SUB SWAP2 ADD MSTORE PUSH2 0x140 MLOAD PUSH2 0x4E0 MLOAD PUSH2 0x2616 JUMP JUMPDEST PUSH2 0x160 MLOAD PUSH2 0x220 DUP2 DUP4 SUB SWAP2 ADD MSTORE PUSH2 0x1A0 MLOAD PUSH2 0x1E0 MLOAD PUSH2 0x2616 JUMP JUMPDEST PUSH2 0x160 MLOAD PUSH2 0x240 DUP2 DUP4 SUB SWAP2 ADD MSTORE PUSH2 0x6E0 MLOAD PUSH2 0x380 MLOAD PUSH2 0x2616 JUMP JUMPDEST PUSH2 0x160 MLOAD PUSH2 0x260 DUP2 DUP4 SUB SWAP2 ADD MSTORE PUSH2 0x240 MLOAD PUSH2 0x420 MLOAD PUSH2 0x2616 JUMP JUMPDEST PUSH2 0x160 MLOAD PUSH2 0x280 DUP2 DUP4 SUB SWAP2 ADD MSTORE PUSH2 0x1438 PUSH2 0x160 MLOAD SWAP2 PUSH2 0x6C0 MLOAD PUSH2 0x580 MLOAD PUSH2 0x2616 JUMP JUMPDEST SUB PUSH2 0x160 MLOAD LOG1 STOP JUMPDEST SWAP1 POP PUSH2 0x280 MLOAD ADD CALLDATALOAD DUP4 PUSH2 0x11A1 JUMP JUMPDEST DUP2 PUSH1 0x0 MSTORE PUSH1 0x20 PUSH1 0x0 KECCAK256 PUSH1 0x0 SWAP4 PUSH2 0x280 MLOAD SWAP1 JUMPDEST PUSH1 0x1F NOT DUP5 AND DUP7 LT PUSH2 0x14A3 JUMPI PUSH1 0x1 SWAP5 SWAP6 POP DUP4 PUSH1 0x1F NOT DUP2 AND LT PUSH2 0x1489 JUMPI JUMPDEST POP POP POP DUP2 SHL ADD SWAP1 SSTORE PUSH2 0x11B5 JUMP JUMPDEST ADD CALLDATALOAD PUSH1 0x0 NOT PUSH1 0x3 DUP5 SWAP1 SHL PUSH1 0xF8 AND SHR NOT AND SWAP1 SSTORE DUP4 DUP1 DUP1 PUSH2 0x147C JUMP JUMPDEST SWAP2 PUSH1 0x20 PUSH1 0x1 DUP2 SWAP3 DUP6 DUP6 ADD CALLDATALOAD DUP2 SSTORE ADD SWAP4 ADD SWAP6 ADD SWAP5 PUSH2 0x1460 JUMP JUMPDEST PUSH4 0x4E487B71 PUSH1 0xE0 SHL PUSH1 0x0 MSTORE PUSH1 0x41 PUSH1 0x4 MSTORE PUSH1 0x24 PUSH1 0x0 REVERT JUMPDEST PUSH4 0x4E487B71 PUSH1 0xE0 SHL PUSH1 0x0 MSTORE PUSH1 0x0 PUSH1 0x4 MSTORE PUSH1 0x24 PUSH1 0x0 REVERT JUMPDEST ADD MLOAD SWAP1 POP DUP5 DUP1 PUSH2 0x111C JUMP JUMPDEST SWAP1 PUSH1 0x13 DUP5 ADD PUSH1 0x0 MSTORE PUSH1 0x20 PUSH1 0x0 KECCAK256 SWAP2 PUSH1 0x0 JUMPDEST PUSH1 0x1F NOT DUP6 AND DUP2 LT PUSH2 0x154A JUMPI POP SWAP2 DUP4 SWAP2 PUSH1 0x1 SWAP4 PUSH1 0x13 SWAP6 PUSH1 0x1F NOT DUP2 AND LT PUSH2 0x1531 JUMPI JUMPDEST POP POP POP DUP2 SHL ADD SWAP2 ADD SSTORE PUSH2 0x1132 JUMP JUMPDEST ADD MLOAD PUSH1 0x0 NOT PUSH1 0xF8 DUP5 PUSH1 0x3 SHL AND SHR NOT AND SWAP1 SSTORE DUP5 DUP1 DUP1 PUSH2 0x1523 JUMP JUMPDEST SWAP2 SWAP3 PUSH1 0x20 PUSH1 0x1 DUP2 SWAP3 DUP7 DUP6 ADD MLOAD DUP2 SSTORE ADD SWAP5 ADD SWAP3 ADD PUSH2 0x1503 JUMP JUMPDEST ADD MLOAD SWAP1 POP DUP4 DUP1 PUSH2 0x10B5 JUMP JUMPDEST SWAP3 POP PUSH1 0x12 DUP5 ADD PUSH1 0x0 MSTORE PUSH1 0x20 PUSH1 0x0 KECCAK256 SWAP1 PUSH1 0x0 SWAP4 JUMPDEST PUSH1 0x1F NOT DUP5 AND DUP6 LT PUSH2 0x15C4 JUMPI PUSH1 0x1 SWAP5 POP DUP4 PUSH1 0x1F NOT DUP2 AND LT PUSH2 0x15AB JUMPI JUMPDEST POP POP POP DUP2 SHL ADD PUSH1 0x12 DUP3 ADD SSTORE PUSH2 0x10CD JUMP JUMPDEST ADD MLOAD PUSH1 0x0 NOT PUSH1 0xF8 DUP5 PUSH1 0x3 SHL AND SHR NOT AND SWAP1 SSTORE DUP4 DUP1 DUP1 PUSH2 0x159B JUMP JUMPDEST DUP2 DUP2 ADD MLOAD DUP4 SSTORE PUSH1 0x20 SWAP5 DUP6 ADD SWAP5 PUSH1 0x1 SWAP1 SWAP4 ADD SWAP3 SWAP1 SWAP2 ADD SWAP1 PUSH2 0x1580 JUMP JUMPDEST ADD MLOAD SWAP1 POP DUP4 DUP1 PUSH2 0x1051 JUMP JUMPDEST SWAP3 POP PUSH1 0x11 DUP5 ADD PUSH1 0x0 MSTORE PUSH1 0x20 PUSH1 0x0 KECCAK256 SWAP1 PUSH1 0x0 SWAP4 JUMPDEST PUSH1 0x1F NOT DUP5 AND DUP6 LT PUSH2 0x1641 JUMPI PUSH1 0x1 SWAP5 POP DUP4 PUSH1 0x1F NOT DUP2 AND LT PUSH2 0x1628 JUMPI JUMPDEST POP POP POP DUP2 SHL ADD PUSH1 0x11 DUP3 ADD SSTORE PUSH2 0x1069 JUMP JUMPDEST ADD MLOAD PUSH1 0x0 NOT PUSH1 0xF8 DUP5 PUSH1 0x3 SHL AND SHR NOT AND SWAP1 SSTORE DUP4 DUP1 DUP1 PUSH2 0x1618 JUMP JUMPDEST DUP2 DUP2 ADD MLOAD DUP4 SSTORE PUSH1 0x20 SWAP5 DUP6 ADD SWAP5 PUSH1 0x1 SWAP1 SWAP4 ADD SWAP3 SWAP1 SWAP2 ADD SWAP1 PUSH2 0x15FD JUMP JUMPDEST ADD MLOAD SWAP1 POP DUP4 DUP1 PUSH2 0xFED JUMP JUMPDEST SWAP3 POP PUSH1 0x10 DUP5 ADD PUSH1 0x0 MSTORE PUSH1 0x20 PUSH1 0x0 KECCAK256 SWAP1 PUSH1 0x0 SWAP4 JUMPDEST PUSH1 0x1F NOT DUP5 AND DUP6 LT PUSH2 0x16BE JUMPI PUSH1 0x1 SWAP5 POP DUP4 PUSH1 0x1F NOT DUP2 AND LT PUSH2 0x16A5 JUMPI JUMPDEST POP POP POP DUP2 SHL ADD PUSH1 0x10 DUP3 ADD SSTORE PUSH2 0x1005 JUMP JUMPDEST ADD MLOAD PUSH1 0x0 NOT PUSH1 0xF8 DUP5 PUSH1 0x3 SHL AND SHR NOT AND SWAP1 SSTORE DUP4 DUP1 DUP1 PUSH2 0x1695 JUMP JUMPDEST DUP2 DUP2 ADD MLOAD DUP4 SSTORE PUSH1 0x20 SWAP5 DUP6 ADD SWAP5 PUSH1 0x1 SWAP1 SWAP4 ADD SWAP3 SWAP1 SWAP2 ADD SWAP1 PUSH2 0x167A JUMP JUMPDEST ADD MLOAD SWAP1 POP DUP4 DUP1 PUSH2 0xF89 JUMP JUMPDEST SWAP3 POP PUSH1 0xF DUP5 ADD PUSH1 0x0 MSTORE PUSH1 0x20 PUSH1 0x0 KECCAK256 SWAP1 PUSH1 0x0 SWAP4 JUMPDEST PUSH1 0x1F NOT DUP5 AND DUP6 LT PUSH2 0x173B JUMPI PUSH1 0x1 SWAP5 POP DUP4 PUSH1 0x1F NOT DUP2 AND LT PUSH2 0x1722 JUMPI JUMPDEST POP POP POP DUP2 SHL ADD PUSH1 0xF DUP3 ADD SSTORE PUSH2 0xFA1 JUMP JUMPDEST ADD MLOAD PUSH1 0x0 NOT PUSH1 0xF8 DUP5 PUSH1 0x3 SHL AND SHR NOT AND SWAP1 SSTORE DUP4 DUP1 DUP1 PUSH2 0x1712 JUMP JUMPDEST DUP2 DUP2 ADD MLOAD DUP4 SSTORE PUSH1 0x20 SWAP5 DUP6 ADD SWAP5 PUSH1 0x1 SWAP1 SWAP4 ADD SWAP3 SWAP1 SWAP2 ADD SWAP1 PUSH2 0x16F7 JUMP JUMPDEST ADD MLOAD SWAP1 POP DUP4 DUP1 PUSH2 0xF25 JUMP JUMPDEST SWAP3 POP PUSH1 0xE DUP5 ADD PUSH1 0x0 MSTORE PUSH1 0x20 PUSH1 0x0 KECCAK256 SWAP1 PUSH1 0x0 SWAP4 JUMPDEST PUSH1 0x1F NOT DUP5 AND DUP6 LT PUSH2 0x17B8 JUMPI PUSH1 0x1 SWAP5 POP DUP4 PUSH1 0x1F NOT DUP2 AND LT PUSH2 0x179F JUMPI JUMPDEST POP POP POP DUP2 SHL ADD PUSH1 0xE DUP3 ADD SSTORE PUSH2 0xF3D JUMP JUMPDEST ADD MLOAD PUSH1 0x0 NOT PUSH1 0xF8 DUP5 PUSH1 0x3 SHL AND SHR NOT AND SWAP1 SSTORE DUP4 DUP1 DUP1 PUSH2 0x178F JUMP JUMPDEST DUP2 DUP2 ADD MLOAD DUP4 SSTORE PUSH1 0x20 SWAP5 DUP6 ADD SWAP5 PUSH1 0x1 SWAP1 SWAP4 ADD SWAP3 SWAP1 SWAP2 ADD SWAP1 PUSH2 0x1774 JUMP JUMPDEST ADD MLOAD SWAP1 POP DUP4 DUP1 PUSH2 0xEC1 JUMP JUMPDEST SWAP3 POP PUSH1 0xD DUP5 ADD PUSH1 0x0 MSTORE PUSH1 0x20 PUSH1 0x0 KECCAK256 SWAP1 PUSH1 0x0 SWAP4 JUMPDEST PUSH1 0x1F NOT DUP5 AND DUP6 LT PUSH2 0x1835 JUMPI PUSH1 0x1 SWAP5 POP DUP4 PUSH1 0x1F NOT DUP2 AND LT PUSH2 0x181C JUMPI JUMPDEST POP POP POP DUP2 SHL ADD PUSH1 0xD DUP3 ADD SSTORE PUSH2 0xED9 JUMP JUMPDEST ADD MLOAD PUSH1 0x0 NOT PUSH1 0xF8 DUP5 PUSH1 0x3 SHL AND SHR NOT AND SWAP1 SSTORE DUP4 DUP1 DUP1 PUSH2 0x180C JUMP JUMPDEST DUP2 DUP2 ADD MLOAD DUP4 SSTORE PUSH1 0x20 SWAP5 DUP6 ADD SWAP5 PUSH1 0x1 SWAP1 SWAP4 ADD SWAP3 SWAP1 SWAP2 ADD SWAP1 PUSH2 0x17F1 JUMP JUMPDEST ADD MLOAD SWAP1 POP DUP4 DUP1 PUSH2 0xE5D JUMP JUMPDEST SWAP3 POP PUSH1 0xC DUP5 ADD PUSH1 0x0 MSTORE PUSH1 0x20 PUSH1 0x0 KECCAK256 SWAP1 PUSH1 0x0 SWAP4 JUMPDEST PUSH1 0x1F NOT DUP5 AND DUP6 LT PUSH2 0x18B2 JUMPI PUSH1 0x1 SWAP5 POP DUP4 PUSH1 0x1F NOT DUP2 AND LT PUSH2 0x1899 JUMPI JUMPDEST POP POP POP DUP2 SHL ADD PUSH1 0xC DUP3 ADD SSTORE PUSH2 0xE75 JUMP JUMPDEST ADD MLOAD PUSH1 0x0 NOT PUSH1 0xF8 DUP5 PUSH1 0x3 SHL AND SHR NOT AND SWAP1 SSTORE DUP4 DUP1 DUP1 PUSH2 0x1889 JUMP JUMPDEST DUP2 DUP2 ADD MLOAD DUP4 SSTORE PUSH1 0x20 SWAP5 DUP6 ADD SWAP5 PUSH1 0x1 SWAP1 SWAP4 ADD SWAP3 SWAP1 SWAP2 ADD SWAP1 PUSH2 0x186E JUMP JUMPDEST ADD MLOAD SWAP1 POP DUP4 DUP1 PUSH2 0xDF9 JUMP JUMPDEST SWAP3 POP PUSH1 0xB DUP5 ADD PUSH1 0x0 MSTORE PUSH1 0x20 PUSH1 0x0 KECCAK256 SWAP1 PUSH1 0x0 SWAP4 JUMPDEST PUSH1 0x1F NOT DUP5 AND DUP6 LT PUSH2 0x192F JUMPI PUSH1 0x1 SWAP5 POP DUP4 PUSH1 0x1F NOT DUP2 AND LT PUSH2 0x1916 JUMPI JUMPDEST POP POP POP DUP2 SHL ADD PUSH1 0xB DUP3 ADD SSTORE PUSH2 0xE11 JUMP JUMPDEST ADD MLOAD PUSH1 0x0 NOT PUSH1 0xF8 DUP5 PUSH1 0x3 SHL AND SHR NOT AND SWAP1 SSTORE DUP4 DUP1 DUP1 PUSH2 0x1906 JUMP JUMPDEST DUP2 DUP2 ADD MLOAD DUP4 SSTORE PUSH1 0x20 SWAP5 DUP6 ADD SWAP5 PUSH1 0x1 SWAP1 SWAP4 ADD SWAP3 SWAP1 SWAP2 ADD SWAP1 PUSH2 0x18EB JUMP JUMPDEST ADD MLOAD SWAP1 POP DUP4 DUP1 PUSH2 0xD95 JUMP JUMPDEST SWAP3 POP PUSH1 0xA DUP5 ADD PUSH1 0x0 MSTORE PUSH1 0x20 PUSH1 0x0 KECCAK256 SWAP1 PUSH1 0x0 SWAP4 JUMPDEST PUSH1 0x1F NOT DUP5 AND DUP6 LT PUSH2 0x19AC JUMPI PUSH1 0x1 SWAP5 POP DUP4 PUSH1 0x1F NOT DUP2 AND LT PUSH2 0x1993 JUMPI JUMPDEST POP POP POP DUP2 SHL ADD PUSH1 0xA DUP3 ADD SSTORE PUSH2 0xDAD JUMP JUMPDEST ADD MLOAD PUSH1 0x0 NOT PUSH1 0xF8 DUP5 PUSH1 0x3 SHL AND SHR NOT AND SWAP1 SSTORE DUP4 DUP1 DUP1 PUSH2 0x1983 JUMP JUMPDEST DUP2 DUP2 ADD MLOAD DUP4 SSTORE PUSH1 0x20 SWAP5 DUP6 ADD SWAP5 PUSH1 0x1 SWAP1 SWAP4 ADD SWAP3 SWAP1 SWAP2 ADD SWAP1 PUSH2 0x1968 JUMP JUMPDEST ADD MLOAD SWAP1 POP DUP4 DUP1 PUSH2 0xD31 JUMP JUMPDEST SWAP3 POP PUSH1 0x9 DUP5 ADD PUSH1 0x0 MSTORE PUSH1 0x20 PUSH1 0x0 KECCAK256 SWAP1 PUSH1 0x0 SWAP4 JUMPDEST PUSH1 0x1F NOT DUP5 AND DUP6 LT PUSH2 0x1A29 JUMPI PUSH1 0x1 SWAP5 POP DUP4 PUSH1 0x1F NOT DUP2 AND LT PUSH2 0x1A10 JUMPI JUMPDEST POP POP POP DUP2 SHL ADD PUSH1 0x9 DUP3 ADD SSTORE PUSH2 0xD49 JUMP JUMPDEST ADD MLOAD PUSH1 0x0 NOT PUSH1 0xF8 DUP5 PUSH1 0x3 SHL AND SHR NOT AND SWAP1 SSTORE DUP4 DUP1 DUP1 PUSH2 0x1A00 JUMP JUMPDEST DUP2 DUP2 ADD MLOAD DUP4 SSTORE PUSH1 0x20 SWAP5 DUP6 ADD SWAP5 PUSH1 0x1 SWAP1 SWAP4 ADD SWAP3 SWAP1 SWAP2 ADD SWAP1 PUSH2 0x19E5 JUMP JUMPDEST ADD MLOAD SWAP1 POP DUP4 DUP1 PUSH2 0xCCD JUMP JUMPDEST SWAP3 POP PUSH1 0x8 DUP5 ADD PUSH1 0x0 MSTORE PUSH1 0x20 PUSH1 0x0 KECCAK256 SWAP1 PUSH1 0x0 SWAP4 JUMPDEST PUSH1 0x1F NOT DUP5 AND DUP6 LT PUSH2 0x1AA6 JUMPI PUSH1 0x1 SWAP5 POP DUP4 PUSH1 0x1F NOT DUP2 AND LT PUSH2 0x1A8D JUMPI JUMPDEST POP POP POP DUP2 SHL ADD PUSH1 0x8 DUP3 ADD SSTORE PUSH2 0xCE5 JUMP JUMPDEST ADD MLOAD PUSH1 0x0 NOT PUSH1 0xF8 DUP5 PUSH1 0x3 SHL AND SHR NOT AND SWAP1 SSTORE DUP4 DUP1 DUP1 PUSH2 0x1A7D JUMP JUMPDEST DUP2 DUP2 ADD MLOAD DUP4 SSTORE PUSH1 0x20 SWAP5 DUP6 ADD SWAP5 PUSH1 0x1 SWAP1 SWAP4 ADD SWAP3 SWAP1 SWAP2 ADD SWAP1 PUSH2 0x1A62 JUMP JUMPDEST ADD MLOAD SWAP1 POP DUP4 DUP1 PUSH2 0xC69 JUMP JUMPDEST SWAP3 POP PUSH1 0x7 DUP5 ADD PUSH1 0x0 MSTORE PUSH1 0x20 PUSH1 0x0 KECCAK256 SWAP1 PUSH1 0x0 SWAP4 JUMPDEST PUSH1 0x1F NOT DUP5 AND DUP6 LT PUSH2 0x1B23 JUMPI PUSH1 0x1 SWAP5 POP DUP4 PUSH1 0x1F NOT DUP2 AND LT PUSH2 0x1B0A JUMPI JUMPDEST POP POP POP DUP2 SHL ADD PUSH1 0x7 DUP3 ADD SSTORE PUSH2 0xC81 JUMP JUMPDEST ADD MLOAD PUSH1 0x0 NOT PUSH1 0xF8 DUP5 PUSH1 0x3 SHL AND SHR NOT AND SWAP1 SSTORE DUP4 DUP1 DUP1 PUSH2 0x1AFA JUMP JUMPDEST DUP2 DUP2 ADD MLOAD DUP4 SSTORE PUSH1 0x20 SWAP5 DUP6 ADD SWAP5 PUSH1 0x1 SWAP1 SWAP4 ADD SWAP3 SWAP1 SWAP2 ADD SWAP1 PUSH2 0x1ADF JUMP JUMPDEST ADD MLOAD SWAP1 POP DUP4 DUP1 PUSH2 0xC06 JUMP JUMPDEST SWAP3 POP PUSH1 0x6 DUP5 ADD PUSH1 0x0 MSTORE PUSH1 0x20 PUSH1 0x0 KECCAK256 SWAP1 PUSH1 0x0 SWAP4 JUMPDEST PUSH1 0x1F NOT DUP5 AND DUP6 LT PUSH2 0x1BA0 JUMPI PUSH1 0x1 SWAP5 POP DUP4 PUSH1 0x1F NOT DUP2 AND LT PUSH2 0x1B87 JUMPI JUMPDEST POP POP POP DUP2 SHL ADD PUSH1 0x6 DUP3 ADD SSTORE PUSH2 0xC1E JUMP JUMPDEST ADD MLOAD PUSH1 0x0 NOT PUSH1 0xF8 DUP5 PUSH1 0x3 SHL AND SHR NOT AND SWAP1 SSTORE DUP4 DUP1 DUP1 PUSH2 0x1B77 JUMP JUMPDEST DUP2 DUP2 ADD MLOAD DUP4 SSTORE PUSH1 0x20 SWAP5 DUP6 ADD SWAP5 PUSH1 0x1 SWAP1 SWAP4 ADD SWAP3 SWAP1 SWAP2 ADD SWAP1 PUSH2 0x1B5C JUMP JUMPDEST ADD MLOAD SWAP1 POP DUP4 DUP1 PUSH2 0xBA3 JUMP JUMPDEST SWAP3 POP PUSH1 0x5 DUP5 ADD PUSH1 0x0 MSTORE PUSH1 0x20 PUSH1 0x0 KECCAK256 SWAP1 PUSH1 0x0 SWAP4 JUMPDEST PUSH1 0x1F NOT DUP5 AND DUP6 LT PUSH2 0x1C1D JUMPI PUSH1 0x1 SWAP5 POP DUP4 PUSH1 0x1F NOT DUP2 AND LT PUSH2 0x1C04 JUMPI JUMPDEST POP POP POP DUP2 SHL ADD PUSH1 0x5 DUP3 ADD SSTORE PUSH2 0xBBB JUMP JUMPDEST ADD MLOAD PUSH1 0x0 NOT PUSH1 0xF8 DUP5 PUSH1 0x3 SHL AND SHR NOT AND SWAP1 SSTORE DUP4 DUP1 DUP1 PUSH2 0x1BF4 JUMP JUMPDEST DUP2 DUP2 ADD MLOAD DUP4 SSTORE PUSH1 0x20 SWAP5 DUP6 ADD SWAP5 PUSH1 0x1 SWAP1 SWAP4 ADD SWAP3 SWAP1 SWAP2 ADD SWAP1 PUSH2 0x1BD9 JUMP JUMPDEST ADD MLOAD SWAP1 POP DUP4 DUP1 PUSH2 0xB40 JUMP JUMPDEST SWAP3 POP PUSH1 0x4 DUP5 ADD PUSH1 0x0 MSTORE PUSH1 0x20 PUSH1 0x0 KECCAK256 SWAP1 PUSH1 0x0 SWAP4 JUMPDEST PUSH1 0x1F NOT DUP5 AND DUP6 LT PUSH2 0x1C9A JUMPI PUSH1 0x1 SWAP5 POP DUP4 PUSH1 0x1F NOT DUP2 AND LT PUSH2 0x1C81 JUMPI JUMPDEST POP POP POP DUP2 SHL ADD PUSH1 0x4 DUP3 ADD SSTORE PUSH2 0xB58 JUMP JUMPDEST ADD MLOAD PUSH1 0x0 NOT PUSH1 0xF8 DUP5 PUSH1 0x3 SHL AND SHR NOT AND SWAP1 SSTORE DUP4 DUP1 DUP1 PUSH2 0x1C71 JUMP JUMPDEST DUP2 DUP2 ADD MLOAD DUP4 SSTORE PUSH1 0x20 SWAP5 DUP6 ADD SWAP5 PUSH1 0x1 SWAP1 SWAP4 ADD SWAP3 SWAP1 SWAP2 ADD SWAP1 PUSH2 0x1C56 JUMP JUMPDEST ADD MLOAD SWAP1 POP DUP4 DUP1 PUSH2 0xADD JUMP JUMPDEST SWAP3 POP PUSH1 0x3 DUP5 ADD PUSH1 0x0 MSTORE PUSH1 0x20 PUSH1 0x0 KECCAK256 SWAP1 PUSH1 0x0 SWAP4 JUMPDEST PUSH1 0x1F NOT DUP5 AND DUP6 LT PUSH2 0x1D17 JUMPI PUSH1 0x1 SWAP5 POP DUP4 PUSH1 0x1F NOT DUP2 AND LT PUSH2 0x1CFE JUMPI JUMPDEST POP POP POP DUP2 SHL ADD PUSH1 0x3 DUP3 ADD SSTORE PUSH2 0xAF5 JUMP JUMPDEST ADD MLOAD PUSH1 0x0 NOT PUSH1 0xF8 DUP5 PUSH1 0x3 SHL AND SHR NOT AND SWAP1 SSTORE DUP4 DUP1 DUP1 PUSH2 0x1CEE JUMP JUMPDEST DUP2 DUP2 ADD MLOAD DUP4 SSTORE PUSH1 0x20 SWAP5 DUP6 ADD SWAP5 PUSH1 0x1 SWAP1 SWAP4 ADD SWAP3 SWAP1 SWAP2 ADD SWAP1 PUSH2 0x1CD3 JUMP JUMPDEST ADD MLOAD SWAP1 POP DUP4 DUP1 PUSH2 0xA7A JUMP JUMPDEST SWAP3 POP PUSH1 0x2 DUP5 ADD PUSH1 0x0 MSTORE PUSH1 0x20 PUSH1 0x0 KECCAK256 SWAP1 PUSH1 0x0 SWAP4 JUMPDEST PUSH1 0x1F NOT DUP5 AND DUP6 LT PUSH2 0x1D94 JUMPI PUSH1 0x1 SWAP5 POP DUP4 PUSH1 0x1F NOT DUP2 AND LT PUSH2 0x1D7B JUMPI JUMPDEST POP POP POP DUP2 SHL ADD PUSH1 0x2 DUP3 ADD SSTORE PUSH2 0xA92 JUMP JUMPDEST ADD MLOAD PUSH1 0x0 NOT PUSH1 0xF8 DUP5 PUSH1 0x3 SHL AND SHR NOT AND SWAP1 SSTORE DUP4 DUP1 DUP1 PUSH2 0x1D6B JUMP JUMPDEST DUP2 DUP2 ADD MLOAD DUP4 SSTORE PUSH1 0x20 SWAP5 DUP6 ADD SWAP5 PUSH1 0x1 SWAP1 SWAP4 ADD SWAP3 SWAP1 SWAP2 ADD SWAP1 PUSH2 0x1D50 JUMP JUMPDEST ADD MLOAD SWAP1 POP DUP4 DUP1 PUSH2 0xA17 JUMP JUMPDEST SWAP3 POP PUSH1 0x1 DUP5 ADD PUSH1 0x0 MSTORE PUSH1 0x20 PUSH1 0x0 KECCAK256 SWAP1 PUSH1 0x0 SWAP4 JUMPDEST PUSH1 0x1F NOT DUP5 AND DUP6 LT PUSH2 0x1E11 JUMPI PUSH1 0x1 SWAP5 POP DUP4 PUSH1 0x1F NOT DUP2 AND LT PUSH2 0x1DF8 JUMPI JUMPDEST POP POP POP DUP2 SHL ADD PUSH1 0x1 DUP3 ADD SSTORE PUSH2 0xA2F JUMP JUMPDEST ADD MLOAD PUSH1 0x0 NOT PUSH1 0xF8 DUP5 PUSH1 0x3 SHL AND SHR NOT AND SWAP1 SSTORE DUP4 DUP1 DUP1 PUSH2 0x1DE8 JUMP JUMPDEST DUP2 DUP2 ADD MLOAD DUP4 SSTORE PUSH1 0x20 SWAP5 DUP6 ADD SWAP5 PUSH1 0x1 SWAP1 SWAP4 ADD SWAP3 SWAP1 SWAP2 ADD SWAP1 PUSH2 0x1DCD JUMP JUMPDEST ADD MLOAD SWAP1 POP DUP4 DUP1 PUSH2 0x9B7 JUMP JUMPDEST SWAP3 POP DUP4 PUSH1 0x0 MSTORE PUSH1 0x20 PUSH1 0x0 KECCAK256 SWAP1 PUSH1 0x0 SWAP4 JUMPDEST PUSH1 0x1F NOT DUP5 AND DUP6 LT PUSH2 0x1E88 JUMPI PUSH1 0x1 SWAP5 POP DUP4 PUSH1 0x1F NOT DUP2 AND LT PUSH2 0x1E6F JUMPI JUMPDEST POP POP POP DUP2 SHL ADD DUP2 SSTORE PUSH2 0x9CC JUMP JUMPDEST ADD MLOAD PUSH1 0x0 NOT PUSH1 0xF8 DUP5 PUSH1 0x3 SHL AND SHR NOT AND SWAP1 SSTORE DUP4 DUP1 DUP1 PUSH2 0x1E62 JUMP JUMPDEST DUP2 DUP2 ADD MLOAD DUP4 SSTORE PUSH1 0x20 SWAP5 DUP6 ADD SWAP5 PUSH1 0x1 SWAP1 SWAP4 ADD SWAP3 SWAP1 SWAP2 ADD SWAP1 PUSH2 0x1E47 JUMP JUMPDEST PUSH1 0x40 MLOAD PUSH3 0x461BCD PUSH1 0xE5 SHL DUP2 MSTORE PUSH1 0x20 PUSH1 0x4 DUP3 ADD MSTORE PUSH1 0xB PUSH1 0x24 DUP3 ADD MSTORE PUSH11 0x139BDD081CDD195DD85C99 PUSH1 0xAA SHL PUSH1 0x44 DUP3 ADD MSTORE PUSH1 0x64 SWAP1 REVERT JUMPDEST CALLVALUE PUSH2 0x3B9 JUMPI PUSH1 0x20 CALLDATASIZE PUSH1 0x3 NOT ADD SLT PUSH2 0x3B9 JUMPI PUSH1 0x4 CALLDATALOAD PUSH1 0x1 PUSH1 0x1 PUSH1 0x40 SHL SUB DUP2 GT PUSH2 0x3B9 JUMPI PUSH1 0x20 PUSH2 0x1F0B PUSH2 0x2238 SWAP3 CALLDATASIZE SWAP1 PUSH1 0x4 ADD PUSH2 0x254F JUMP JUMPDEST SWAP2 SWAP1 PUSH1 0x60 PUSH2 0x260 PUSH1 0x40 MLOAD PUSH2 0x1F1E DUP2 PUSH2 0x2424 JUMP JUMPDEST DUP3 DUP2 MSTORE DUP3 DUP6 DUP3 ADD MSTORE DUP3 PUSH1 0x40 DUP3 ADD MSTORE DUP3 DUP1 DUP3 ADD MSTORE DUP3 PUSH1 0x80 DUP3 ADD MSTORE DUP3 PUSH1 0xA0 DUP3 ADD MSTORE DUP3 PUSH1 0xC0 DUP3 ADD MSTORE DUP3 PUSH1 0xE0 DUP3 ADD MSTORE DUP3 PUSH2 0x100 DUP3 ADD MSTORE DUP3 PUSH2 0x120 DUP3 ADD MSTORE DUP3 PUSH2 0x140 DUP3 ADD MSTORE DUP3 PUSH2 0x160 DUP3 ADD MSTORE DUP3 PUSH2 0x180 DUP3 ADD MSTORE DUP3 PUSH2 0x1A0 DUP3 ADD MSTORE DUP3 PUSH2 0x1C0 DUP3 ADD MSTORE DUP3 PUSH2 0x1E0 DUP3 ADD MSTORE DUP3 PUSH2 0x200 DUP3 ADD MSTORE DUP3 PUSH2 0x220 DUP3 ADD MSTORE DUP3 PUSH2 0x240 DUP3 ADD MSTORE ADD MSTORE DUP3 PUSH1 0x40 MLOAD SWAP4 DUP5 SWAP3 DUP4 CALLDATACOPY DUP2 ADD PUSH1 0x1 DUP2 MSTORE SUB ADD SWAP1 KECCAK256 PUSH2 0x210B PUSH1 0x13 PUSH1 0x40 MLOAD SWAP3 PUSH2 0x1FBD DUP5 PUSH2 0x2424 JUMP JUMPDEST PUSH2 0x1FC6 DUP2 PUSH2 0x2461 JUMP JUMPDEST DUP5 MSTORE PUSH2 0x1FD4 PUSH1 0x1 DUP3 ADD PUSH2 0x2461 JUMP JUMPDEST PUSH1 0x20 DUP6 ADD MSTORE PUSH2 0x1FE5 PUSH1 0x2 DUP3 ADD PUSH2 0x2461 JUMP JUMPDEST PUSH1 0x40 DUP6 ADD MSTORE PUSH2 0x1FF6 PUSH1 0x3 DUP3 ADD PUSH2 0x2461 JUMP JUMPDEST PUSH1 0x60 DUP6 ADD MSTORE PUSH2 0x2007 PUSH1 0x4 DUP3 ADD PUSH2 0x2461 JUMP JUMPDEST PUSH1 0x80 DUP6 ADD MSTORE PUSH2 0x2018 PUSH1 0x5 DUP3 ADD PUSH2 0x2461 JUMP JUMPDEST PUSH1 0xA0 DUP6 ADD MSTORE PUSH2 0x2029 PUSH1 0x6 DUP3 ADD PUSH2 0x2461 JUMP JUMPDEST PUSH1 0xC0 DUP6 ADD MSTORE PUSH2 0x203A PUSH1 0x7 DUP3 ADD PUSH2 0x2461 JUMP JUMPDEST PUSH1 0xE0 DUP6 ADD MSTORE PUSH2 0x204B PUSH1 0x8 DUP3 ADD PUSH2 0x2461 JUMP JUMPDEST PUSH2 0x100 DUP6 ADD MSTORE PUSH2 0x205D PUSH1 0x9 DUP3 ADD PUSH2 0x2461 JUMP JUMPDEST PUSH2 0x120 DUP6 ADD MSTORE PUSH2 0x206F PUSH1 0xA DUP3 ADD PUSH2 0x2461 JUMP JUMPDEST PUSH2 0x140 DUP6 ADD MSTORE PUSH2 0x2081 PUSH1 0xB DUP3 ADD PUSH2 0x2461 JUMP JUMPDEST PUSH2 0x160 DUP6 ADD MSTORE PUSH2 0x2093 PUSH1 0xC DUP3 ADD PUSH2 0x2461 JUMP JUMPDEST PUSH2 0x180 DUP6 ADD MSTORE PUSH2 0x20A5 PUSH1 0xD DUP3 ADD PUSH2 0x2461 JUMP JUMPDEST PUSH2 0x1A0 DUP6 ADD MSTORE PUSH2 0x20B7 PUSH1 0xE DUP3 ADD PUSH2 0x2461 JUMP JUMPDEST PUSH2 0x1C0 DUP6 ADD MSTORE PUSH2 0x20C9 PUSH1 0xF DUP3 ADD PUSH2 0x2461 JUMP JUMPDEST PUSH2 0x1E0 DUP6 ADD MSTORE PUSH2 0x20DB PUSH1 0x10 DUP3 ADD PUSH2 0x2461 JUMP JUMPDEST PUSH2 0x200 DUP6 ADD MSTORE PUSH2 0x20ED PUSH1 0x11 DUP3 ADD PUSH2 0x2461 JUMP JUMPDEST PUSH2 0x220 DUP6 ADD MSTORE PUSH2 0x20FF PUSH1 0x12 DUP3 ADD PUSH2 0x2461 JUMP JUMPDEST PUSH2 0x240 DUP6 ADD MSTORE ADD PUSH2 0x2461 JUMP JUMPDEST PUSH2 0x260 DUP3 ADD MSTORE PUSH2 0x2325 DUP2 PUSH2 0x260 PUSH2 0x2310 PUSH2 0x22FA PUSH2 0x22E2 PUSH2 0x22CA PUSH2 0x22B2 PUSH2 0x229A PUSH2 0x2282 PUSH2 0x226A PUSH2 0x2252 PUSH1 0x40 MLOAD SWAP14 DUP15 SWAP14 DUP15 PUSH1 0x20 DUP2 MSTORE PUSH2 0x120 PUSH2 0x2222 PUSH2 0x220C PUSH2 0x21F5 PUSH2 0x21DF PUSH2 0x21C9 PUSH2 0x21B3 PUSH2 0x219D PUSH2 0x2187 PUSH2 0x2171 DUP12 MLOAD PUSH2 0x280 PUSH1 0x20 DUP14 ADD MSTORE PUSH2 0x2A0 DUP13 ADD SWAP1 PUSH2 0x252A JUMP JUMPDEST PUSH1 0x20 DUP13 ADD MLOAD DUP12 DUP3 SUB PUSH1 0x1F NOT ADD PUSH1 0x40 DUP14 ADD MSTORE PUSH2 0x252A JUMP JUMPDEST PUSH1 0x40 DUP12 ADD MLOAD DUP11 DUP3 SUB PUSH1 0x1F NOT ADD PUSH1 0x60 DUP13 ADD MSTORE PUSH2 0x252A JUMP JUMPDEST PUSH1 0x60 DUP11 ADD MLOAD DUP10 DUP3 SUB PUSH1 0x1F NOT ADD PUSH1 0x80 DUP12 ADD MSTORE PUSH2 0x252A JUMP JUMPDEST PUSH1 0x80 DUP10 ADD MLOAD DUP9 DUP3 SUB PUSH1 0x1F NOT ADD PUSH1 0xA0 DUP11 ADD MSTORE PUSH2 0x252A JUMP JUMPDEST PUSH1 0xA0 DUP9 ADD MLOAD DUP8 DUP3 SUB PUSH1 0x1F NOT ADD PUSH1 0xC0 DUP10 ADD MSTORE PUSH2 0x252A JUMP JUMPDEST PUSH1 0xC0 DUP8 ADD MLOAD DUP7 DUP3 SUB PUSH1 0x1F NOT ADD PUSH1 0xE0 DUP9 ADD MSTORE PUSH2 0x252A JUMP JUMPDEST PUSH1 0xE0 DUP7 ADD MLOAD DUP6 DUP3 SUB PUSH1 0x1F NOT ADD PUSH2 0x100 DUP8 ADD MSTORE PUSH2 0x252A JUMP JUMPDEST PUSH2 0x100 DUP6 ADD MLOAD DUP5 DUP3 SUB PUSH1 0x1F NOT ADD DUP5 DUP7 ADD MSTORE PUSH2 0x252A JUMP JUMPDEST SWAP3 ADD MLOAD SWAP1 PUSH2 0x140 PUSH1 0x1F NOT DUP3 DUP6 SUB ADD SWAP2 ADD MSTORE PUSH2 0x252A JUMP JUMPDEST DUP14 PUSH2 0x140 DUP14 ADD MLOAD SWAP1 PUSH2 0x160 PUSH1 0x1F NOT DUP3 DUP6 SUB ADD SWAP2 ADD MSTORE PUSH2 0x252A JUMP JUMPDEST PUSH2 0x160 DUP12 ADD MLOAD DUP14 DUP3 SUB PUSH1 0x1F NOT ADD PUSH2 0x180 DUP16 ADD MSTORE PUSH2 0x252A JUMP JUMPDEST PUSH2 0x180 DUP11 ADD MLOAD DUP13 DUP3 SUB PUSH1 0x1F NOT ADD PUSH2 0x1A0 DUP15 ADD MSTORE PUSH2 0x252A JUMP JUMPDEST PUSH2 0x1A0 DUP10 ADD MLOAD DUP12 DUP3 SUB PUSH1 0x1F NOT ADD PUSH2 0x1C0 DUP14 ADD MSTORE PUSH2 0x252A JUMP JUMPDEST PUSH2 0x1C0 DUP9 ADD MLOAD DUP11 DUP3 SUB PUSH1 0x1F NOT ADD PUSH2 0x1E0 DUP13 ADD MSTORE PUSH2 0x252A JUMP JUMPDEST PUSH2 0x1E0 DUP8 ADD MLOAD DUP10 DUP3 SUB PUSH1 0x1F NOT ADD PUSH2 0x200 DUP12 ADD MSTORE PUSH2 0x252A JUMP JUMPDEST PUSH2 0x200 DUP7 ADD MLOAD DUP9 DUP3 SUB PUSH1 0x1F NOT ADD PUSH2 0x220 DUP11 ADD MSTORE PUSH2 0x252A JUMP JUMPDEST PUSH2 0x220 DUP6 ADD MLOAD DUP8 DUP3 SUB PUSH1 0x1F NOT ADD PUSH2 0x240 DUP10 ADD MSTORE PUSH2 0x252A JUMP JUMPDEST PUSH2 0x240 DUP5 ADD MLOAD DUP7 DUP3 SUB PUSH1 0x1F NOT ADD DUP5 DUP9 ADD MSTORE PUSH2 0x252A JUMP JUMPDEST SWAP2 ADD MLOAD DUP4 DUP3 SUB PUSH1 0x1F NOT ADD PUSH2 0x280 DUP6 ADD MSTORE PUSH2 0x252A JUMP JUMPDEST SUB SWAP1 RETURN JUMPDEST CALLVALUE PUSH2 0x3B9 JUMPI PUSH1 0x0 CALLDATASIZE PUSH1 0x3 NOT ADD SLT PUSH2 0x3B9 JUMPI PUSH1 0x0 SLOAD PUSH1 0x40 MLOAD PUSH1 0x1 PUSH1 0x1 PUSH1 0xA0 SHL SUB SWAP1 SWAP2 AND DUP2 MSTORE PUSH1 0x20 SWAP1 RETURN JUMPDEST CALLVALUE PUSH2 0x3B9 JUMPI PUSH1 0x20 CALLDATASIZE PUSH1 0x3 NOT ADD SLT PUSH2 0x3B9 JUMPI PUSH1 0x4 CALLDATALOAD PUSH1 0x2 SLOAD DUP2 LT ISZERO PUSH2 0x3B9 JUMPI PUSH2 0x2379 SWAP1 PUSH2 0x239D JUMP JUMPDEST PUSH2 0x14D1 JUMPI PUSH2 0x2389 PUSH2 0x2325 SWAP2 PUSH2 0x2461 JUMP JUMPDEST PUSH1 0x40 MLOAD SWAP2 DUP3 SWAP2 PUSH1 0x20 DUP4 MSTORE PUSH1 0x20 DUP4 ADD SWAP1 PUSH2 0x252A JUMP JUMPDEST PUSH1 0x2 SLOAD DUP2 LT ISZERO PUSH2 0x23D4 JUMPI PUSH1 0x2 PUSH1 0x0 MSTORE PUSH32 0x405787FA12A823E0F2B7631CC41B3BA8828B3321CA811111FA75CD3AA3BB5ACE ADD SWAP1 PUSH1 0x0 SWAP1 JUMP JUMPDEST PUSH4 0x4E487B71 PUSH1 0xE0 SHL PUSH1 0x0 MSTORE PUSH1 0x32 PUSH1 0x4 MSTORE PUSH1 0x24 PUSH1 0x0 REVERT JUMPDEST SWAP1 PUSH1 0x1 DUP3 DUP2 SHR SWAP3 AND DUP1 ISZERO PUSH2 0x241A JUMPI JUMPDEST PUSH1 0x20 DUP4 LT EQ PUSH2 0x2404 JUMPI JUMP JUMPDEST PUSH4 0x4E487B71 PUSH1 0xE0 SHL PUSH1 0x0 MSTORE PUSH1 0x22 PUSH1 0x4 MSTORE PUSH1 0x24 PUSH1 0x0 REVERT JUMPDEST SWAP2 PUSH1 0x7F AND SWAP2 PUSH2 0x23F9 JUMP JUMPDEST PUSH2 0x280 DUP2 ADD SWAP1 DUP2 LT PUSH1 0x1 PUSH1 0x1 PUSH1 0x40 SHL SUB DUP3 GT OR PUSH2 0x14BB JUMPI PUSH1 0x40 MSTORE JUMP JUMPDEST SWAP1 PUSH1 0x1F DUP1 NOT SWAP2 ADD AND DUP2 ADD SWAP1 DUP2 LT PUSH1 0x1 PUSH1 0x1 PUSH1 0x40 SHL SUB DUP3 GT OR PUSH2 0x14BB JUMPI PUSH1 0x40 MSTORE JUMP JUMPDEST SWAP1 PUSH1 0x40 MLOAD SWAP2 DUP3 PUSH1 0x0 DUP3 SLOAD SWAP3 PUSH2 0x2475 DUP5 PUSH2 0x23EA JUMP JUMPDEST SWAP1 DUP2 DUP5 MSTORE PUSH1 0x1 SWAP5 DUP6 DUP2 AND SWAP1 DUP2 PUSH1 0x0 EQ PUSH2 0x24E4 JUMPI POP PUSH1 0x1 EQ PUSH2 0x24A1 JUMPI JUMPDEST POP POP PUSH2 0x249F SWAP3 POP SUB DUP4 PUSH2 0x2440 JUMP JUMPDEST JUMP JUMPDEST SWAP1 SWAP4 SWAP2 POP PUSH1 0x0 MSTORE PUSH1 0x20 SWAP1 DUP2 PUSH1 0x0 KECCAK256 SWAP4 PUSH1 0x0 SWAP2 JUMPDEST DUP2 DUP4 LT PUSH2 0x24CC JUMPI POP POP PUSH2 0x249F SWAP4 POP DUP3 ADD ADD CODESIZE DUP1 PUSH2 0x2491 JUMP JUMPDEST DUP6 SLOAD DUP9 DUP5 ADD DUP6 ADD MSTORE SWAP5 DUP6 ADD SWAP5 DUP8 SWAP5 POP SWAP2 DUP4 ADD SWAP2 PUSH2 0x24B4 JUMP JUMPDEST SWAP2 POP POP PUSH2 0x249F SWAP5 POP PUSH1 0x20 SWAP3 POP PUSH1 0xFF NOT AND DUP3 DUP5 ADD MSTORE ISZERO ISZERO PUSH1 0x5 SHL DUP3 ADD ADD CODESIZE DUP1 PUSH2 0x2491 JUMP JUMPDEST PUSH1 0x0 JUMPDEST DUP4 DUP2 LT PUSH2 0x251A JUMPI POP POP PUSH1 0x0 SWAP2 ADD MSTORE JUMP JUMPDEST DUP2 DUP2 ADD MLOAD DUP4 DUP3 ADD MSTORE PUSH1 0x20 ADD PUSH2 0x250A JUMP JUMPDEST SWAP1 PUSH1 0x20 SWAP2 PUSH2 0x2543 DUP2 MLOAD DUP1 SWAP3 DUP2 DUP6 MSTORE DUP6 DUP1 DUP7 ADD SWAP2 ADD PUSH2 0x2507 JUMP JUMPDEST PUSH1 0x1F ADD PUSH1 0x1F NOT AND ADD ADD SWAP1 JUMP JUMPDEST SWAP2 DUP2 PUSH1 0x1F DUP5 ADD SLT ISZERO PUSH2 0x3B9 JUMPI DUP3 CALLDATALOAD SWAP2 PUSH1 0x1 PUSH1 0x1 PUSH1 0x40 SHL SUB DUP4 GT PUSH2 0x3B9 JUMPI PUSH1 0x20 DUP4 DUP2 DUP7 ADD SWAP6 ADD ADD GT PUSH2 0x3B9 JUMPI JUMP JUMPDEST SWAP3 SWAP2 SWAP3 PUSH1 0x1 PUSH1 0x1 PUSH1 0x40 SHL SUB DUP3 GT PUSH2 0x14BB JUMPI PUSH1 0x40 MLOAD SWAP2 PUSH2 0x25A5 PUSH1 0x1F DUP3 ADD PUSH1 0x1F NOT AND PUSH1 0x20 ADD DUP5 PUSH2 0x2440 JUMP JUMPDEST DUP3 SWAP5 DUP2 DUP5 MSTORE DUP2 DUP4 ADD GT PUSH2 0x3B9 JUMPI DUP3 DUP2 PUSH1 0x20 SWAP4 DUP5 PUSH1 0x0 SWAP7 ADD CALLDATACOPY ADD ADD MSTORE JUMP JUMPDEST SWAP1 PUSH1 0x1F DUP2 GT PUSH2 0x25D0 JUMPI POP POP POP JUMP JUMPDEST PUSH1 0x0 SWAP2 DUP3 MSTORE PUSH1 0x20 DUP3 KECCAK256 SWAP1 PUSH1 0x20 PUSH1 0x1F DUP6 ADD PUSH1 0x5 SHR DUP4 ADD SWAP5 LT PUSH2 0x260C JUMPI JUMPDEST PUSH1 0x1F ADD PUSH1 0x5 SHR ADD SWAP2 JUMPDEST DUP3 DUP2 LT PUSH2 0x2601 JUMPI POP POP POP JUMP JUMPDEST DUP2 DUP2 SSTORE PUSH1 0x1 ADD PUSH2 0x25F5 JUMP JUMPDEST SWAP1 SWAP3 POP DUP3 SWAP1 PUSH2 0x25EC JUMP JUMPDEST SWAP1 DUP1 PUSH1 0x20 SWAP4 SWAP3 DUP2 DUP5 MSTORE DUP5 DUP5 ADD CALLDATACOPY PUSH1 0x0 DUP3 DUP3 ADD DUP5 ADD MSTORE PUSH1 0x1F ADD PUSH1 0x1F NOT AND ADD ADD SWAP1 JUMP INVALID LOG2 PUSH5 0x6970667358 0x22 SLT KECCAK256 SWAP13 BASEFEE DUP4 0xB0 0x4A 0xD0 0xED 0xD1 MSIZE NUMBER 0xE 0x4B PUSH10 0xCBC877C07B53E6017058 0xD 0x4C GAS JUMPI 0xB6 ADD BLOCKHASH POP NOT PUSH5 0x736F6C6343 STOP ADDMOD EQ STOP CALLER "},"methodIdentifiers":{"codices(string)":"dbc21424","getCodex(string)":"83361522","inscribeCodex(string,string,string,string,string,string,string,string,string,string,string,string,string,string,string,string,string,string,string,string,string)":"9cf76134","keys(uint256)":"0cb6aaf1","steward()":"637eea19","totalCodices()":"c212d16b"}}}}}