{"contracts/registry/ApprenticeSummonerXVI.sol":{"ApprenticeSummonerXVI":{"abi":[{"inputs":[],"stateMutability":"nonpayable","type":"constructor"},{"anonymous":false,"inputs":[{"indexed":true,"internalType":"address","name":"apprentice","type":"address"},{"indexed":false,"internalType":"string","name":"name","type":"string"},{"indexed":false,"internalType":"string","name":"signal","type":"string"},{"indexed":false,"internalType":"string","name":"drift","type":"string"},{"indexed":false,"internalType":"string","name":"pulse","type":"string"},{"indexed":false,"internalType":"string","name":"codexRef","type":"string"},{"indexed":false,"internalType":"string","name":"resonance","type":"string"},{"indexed":false,"internalType":"string","name":"signature","type":"string"},{"indexed":false,"internalType":"string","name":"sanctum","type":"string"},{"indexed":false,"internalType":"string","name":"chant","type":"string"},{"indexed":false,"internalType":"string","name":"choreography","type":"string"},{"indexed":false,"internalType":"string","name":"stewardName","type":"string"},{"indexed":false,"internalType":"string","name":"echo","type":"string"},{"indexed":false,"internalType":"string","name":"choreographyType","type":"string"}],"name":"ApprenticeSummoned","type":"event"},{"inputs":[{"internalType":"uint256","name":"","type":"uint256"}],"name":"apprentices","outputs":[{"internalType":"address","name":"","type":"address"}],"stateMutability":"view","type":"function"},{"inputs":[{"internalType":"address","name":"apprentice","type":"address"}],"name":"getSummons","outputs":[{"components":[{"internalType":"string","name":"name","type":"string"},{"internalType":"string","name":"signal","type":"string"},{"internalType":"string","name":"drift","type":"string"},{"internalType":"string","name":"pulse","type":"string"},{"internalType":"string","name":"codexRef","type":"string"},{"internalType":"string","name":"resonance","type":"string"},{"internalType":"string","name":"signature","type":"string"},{"internalType":"string","name":"sanctum","type":"string"},{"internalType":"string","name":"chant","type":"string"},{"internalType":"string","name":"choreography","type":"string"},{"internalType":"string","name":"stewardName","type":"string"},{"internalType":"string","name":"echo","type":"string"},{"internalType":"string","name":"choreographyType","type":"string"}],"internalType":"struct ApprenticeSummonerXVI.Summons","name":"","type":"tuple"}],"stateMutability":"view","type":"function"},{"inputs":[],"name":"steward","outputs":[{"internalType":"address","name":"","type":"address"}],"stateMutability":"view","type":"function"},{"inputs":[{"internalType":"address","name":"apprentice","type":"address"},{"internalType":"string","name":"name","type":"string"},{"internalType":"string","name":"signal","type":"string"},{"internalType":"string","name":"drift","type":"string"},{"internalType":"string","name":"pulse","type":"string"},{"internalType":"string","name":"codexRef","type":"string"},{"internalType":"string","name":"resonance","type":"string"},{"internalType":"string","name":"signature","type":"string"},{"internalType":"string","name":"sanctum","type":"string"},{"internalType":"string","name":"chant","type":"string"},{"internalType":"string","name":"choreography","type":"string"},{"internalType":"string","name":"stewardName","type":"string"},{"internalType":"string","name":"echo","type":"string"},{"internalType":"string","name":"choreographyType","type":"string"}],"name":"summonApprentice","outputs":[],"stateMutability":"nonpayable","type":"function"},{"inputs":[{"internalType":"address","name":"","type":"address"}],"name":"summons","outputs":[{"internalType":"string","name":"name","type":"string"},{"internalType":"string","name":"signal","type":"string"},{"internalType":"string","name":"drift","type":"string"},{"internalType":"string","name":"pulse","type":"string"},{"internalType":"string","name":"codexRef","type":"string"},{"internalType":"string","name":"resonance","type":"string"},{"internalType":"string","name":"signature","type":"string"},{"internalType":"string","name":"sanctum","type":"string"},{"internalType":"string","name":"chant","type":"string"},{"internalType":"string","name":"choreography","type":"string"},{"internalType":"string","name":"stewardName","type":"string"},{"internalType":"string","name":"echo","type":"string"},{"internalType":"string","name":"choreographyType","type":"string"}],"stateMutability":"view","type":"function"},{"inputs":[],"name":"totalSummons","outputs":[{"internalType":"uint256","name":"","type":"uint256"}],"stateMutability":"view","type":"function"}],"evm":{"bytecode":{"linkReferences":{},"object":"6080806040523461002857600080546001600160a01b03191633179055611d16908161002e8239f35b600080fdfe61042080604052600436101561001457600080fd5b60003560e01c9081632a17d4cd14611a71575080635a2ed662146118b8578063637eea191461188f578063ba238d6a14610379578063cf84c603146100a95763f31bee3e1461006257600080fd5b346100a45760203660031901126100a4576004356002548110156100a45761008b602091611c2c565b905460405160039290921b1c6001600160a01b03168152f35b600080fd5b346100a45760203660031901126100a4576100c2611a8c565b60606101806040516100d381611adc565b82815282602082015282604082015282808201528260808201528260a08201528260c08201528260e082015282610100820152826101208201528261014082015282610160820152015260018060a01b031660005260016020526102916040600020610217600c6040519261014784611adc565b61015081611b19565b845261015e60018201611b19565b602085015261016f60028201611b19565b604085015261018060038201611b19565b606085015261019160048201611b19565b60808501526101a260058201611b19565b60a08501526101b360068201611b19565b60c08501526101c460078201611b19565b60e08501526101d560088201611b19565b6101008501526101e760098201611b19565b6101208501526101f9600a8201611b19565b61014085015261020b600b8201611b19565b61016085015201611b19565b6101808201526103758161018061036061034a61033261031a6103026102eb6102d56102bf6102a96040519d8e9d8e60208152604061027c61026784516101a060208601526101c0850190611bbf565b6020850151848203601f190184860152611bbf565b920151906060601f1982850301910152611bbf565b8d60608d0151906080601f1982850301910152611bbf565b60808b01518d8203601f190160a08f0152611bbf565b60a08a01518c8203601f190160c08e0152611bbf565b60c08901518b8203601f190160e08d0152611bbf565b60e08801518a8203601f19016101008c0152611bbf565b610100870151898203601f19016101208b0152611bbf565b610120860151888203601f19016101408a0152611bbf565b610140850151878203601f1901610160890152611bbf565b610160840151868203601f190184880152611bbf565b910151838203601f19016101a0850152611bbf565b0390f35b346100a4576101c03660031901126100a457610393611a8c565b610100526024356001600160401b0381116100a4576103b6903690600401611bff565b61026052610400526044356001600160401b0381116100a4576103dd903690600401611bff565b6101405260a0526064356001600160401b0381116100a457610403903690600401611bff565b6101e052610200526084356001600160401b0381116100a45761042a903690600401611bff565b610220526103e05260a4356001600160401b0381116100a457610451903690600401611bff565b6101a0526101805260c4356001600160401b0381116100a457610478903690600401611bff565b6103c0526101605260e4356001600160401b0381116100a45761049f903690600401611bff565b6102e05260c0526001600160401b0361010435116100a4576104c73661010435600401611bff565b60e05261038052610124356001600160401b0381116100a4576104ee903690600401611bff565b61030052610240526001600160401b0361014435116100a4576105173661014435600401611bff565b6102c05261036052610164356001600160401b0381116100a45761053f903690600401611bff565b6101c05261034052610184356001600160401b0381116100a457610567903690600401611bff565b6102a0526103a0526101a4356001600160401b0381116100a45761058f903690600401611bff565b61012052610320526000546001600160a01b0316330361185c576105b860405180608052611adc565b6105c9366102605161040051611c79565b608051526105dd366101405160a051611c79565b602060805101526105f5366101e05161020051611c79565b6040608051015261060d36610220516103e051611c79565b60606080510152610625366101a05161018051611c79565b60808051015261063c366103c05161016051611c79565b60a06080510152610653366102e05160c051611c79565b60c0608051015261066a3660e05161038051611c79565b60e06080510152610682366103005161024051611c79565b610100608051015261069b366102c05161036051611c79565b61012060805101526106b4366101c05161034051611c79565b61014060805101526106cd366102a0516103a051611c79565b61016060805101526106e6366101205161032051611c79565b610180608051015260018060a01b03610100511660005260016020526040600020608051518051906001600160401b038211610dcf5781906107288454611aa2565b601f811161180c575b50602090601f83116001146117a057600092611795575b50508160011b916000199060031b1c19161781555b602060805101518051906001600160401b038211610dcf5781906107846001850154611aa2565b601f8111611742575b50602090601f83116001146116d0576000926116c5575b50508160011b916000199060031b1c19161760018201555b604060805101518051906001600160401b038211610dcf5781906107e36002850154611aa2565b601f8111611672575b50602090601f8311600114611600576000926115f5575b50508160011b916000199060031b1c19161760028201555b606060805101518051906001600160401b038211610dcf5781906108426003850154611aa2565b601f81116115a2575b50602090601f831160011461153057600092611525575b50508160011b916000199060031b1c19161760038201555b6080805101518051906001600160401b038211610dcf5781906108a06004850154611aa2565b601f81116114d2575b50602090601f831160011461146057600092611455575b50508160011b916000199060031b1c19161760048201555b60a060805101518051906001600160401b038211610dcf5781906108ff6005850154611aa2565b601f8111611402575b50602090601f831160011461139057600092611385575b50508160011b916000199060031b1c19161760058201555b60c060805101518051906001600160401b038211610dcf57819061095e6006850154611aa2565b601f8111611332575b50602090601f83116001146112c0576000926112b5575b50508160011b916000199060031b1c19161760068201555b60e060805101518051906001600160401b038211610dcf5781906109bd6007850154611aa2565b601f8111611262575b50602090601f83116001146111f0576000926111e5575b50508160011b916000199060031b1c19161760078201555b61010060805101518051906001600160401b038211610dcf578190610a1d6008850154611aa2565b601f8111611192575b50602090601f831160011461112057600092611115575b50508160011b916000199060031b1c19161760088201555b61012060805101518051906001600160401b038211610dcf578190610a7d6009850154611aa2565b601f81116110c2575b50602090601f831160011461105057600092611045575b50508160011b916000199060031b1c19161760098201555b61014060805101518051906001600160401b038211610dcf578190610add600a850154611aa2565b601f8111610ff2575b50602090601f8311600114610f8057600092610f75575b50508160011b916000199060031b1c191617600a8201555b61016060805101518051906001600160401b038211610dcf578190610b3d600b850154611aa2565b601f8111610f22575b50602090601f8311600114610eb057600092610ea5575b50508160011b916000199060031b1c191617600b8201555b61018060805101518051906001600160401b038211610dcf57610b9b600c840154611aa2565b601f8111610e5e575b50602090601f8311600114610df057600c929160009183610de5575b50508160011b916000199060031b1c1916179101555b60025468010000000000000000811015610dcf57806001610bfa9201600255611c2c565b81549060031b9060018060a01b036101005116821b9160018060a01b03901b19161790556101a0604051806102805252610d77610d5d610d43610d29610d0f610cf7610cdf610cc6610cad610c94610c7b610c636101a061028051016102605161040051611cbf565b6102805160208183039101526101405160a051611cbf565b6102805160408183039101526101e05161020051611cbf565b610280516060818303910152610220516103e051611cbf565b6102805160808183039101526101a05161018051611cbf565b6102805160a08183039101526103c05161016051611cbf565b6102805160c08183039101526102e05160c051611cbf565b6102805160e081830391015260e05161038051611cbf565b610280516101008183039101526103005161024051611cbf565b610280516101208183039101526102c05161036051611cbf565b610280516101408183039101526101c05161034051611cbf565b610280516101608183039101526102a0516103a051611cbf565b610280516101808183039101527f560a7e4f22676731cb7c61dd8623db54e954396c0ff6233059df102e82cebe2260018060a01b03610100511691610dc761028051916101205161032051611cbf565b0361028051a2005b634e487b7160e01b600052604160045260246000fd5b015190508480610bc0565b90600c84016000526020600020916000601f198516905b818110610e465750916001939185600c969410610e2d575b505050811b01910155610bd6565b015160001960f88460031b161c19169055848080610e1f565b92936020600181928786015181550195019301610e07565b600c84016000526020600020601f840160051c810160208510610e9e575b601f830160051c82018110610e92575050610ba4565b60008155600101610e7c565b5080610e7c565b015190508380610b5d565b9250600b84016000526020600020906000935b601f1984168510610f07576001945083601f19811610610eee575b505050811b01600b820155610b75565b015160001960f88460031b161c19169055838080610ede565b81810151835560209485019460019093019290910190610ec3565b909150600b84016000526020600020601f840160051c810160208510610f6e575b90849392915b601f830160051c82018110610f5f575050610b46565b60008155859450600101610f49565b5080610f43565b015190508380610afd565b9250600a84016000526020600020906000935b601f1984168510610fd7576001945083601f19811610610fbe575b505050811b01600a820155610b15565b015160001960f88460031b161c19169055838080610fae565b81810151835560209485019460019093019290910190610f93565b909150600a84016000526020600020601f840160051c81016020851061103e575b90849392915b601f830160051c8201811061102f575050610ae6565b60008155859450600101611019565b5080611013565b015190508380610a9d565b9250600984016000526020600020906000935b601f19841685106110a7576001945083601f1981161061108e575b505050811b016009820155610ab5565b015160001960f88460031b161c1916905583808061107e565b81810151835560209485019460019093019290910190611063565b909150600984016000526020600020601f840160051c81016020851061110e575b90849392915b601f830160051c820181106110ff575050610a86565b600081558594506001016110e9565b50806110e3565b015190508380610a3d565b9250600884016000526020600020906000935b601f1984168510611177576001945083601f1981161061115e575b505050811b016008820155610a55565b015160001960f88460031b161c1916905583808061114e565b81810151835560209485019460019093019290910190611133565b909150600884016000526020600020601f840160051c8101602085106111de575b90849392915b601f830160051c820181106111cf575050610a26565b600081558594506001016111b9565b50806111b3565b0151905083806109dd565b9250600784016000526020600020906000935b601f1984168510611247576001945083601f1981161061122e575b505050811b0160078201556109f5565b015160001960f88460031b161c1916905583808061121e565b81810151835560209485019460019093019290910190611203565b909150600784016000526020600020601f840160051c8101602085106112ae575b90849392915b601f830160051c8201811061129f5750506109c6565b60008155859450600101611289565b5080611283565b01519050838061097e565b9250600684016000526020600020906000935b601f1984168510611317576001945083601f198116106112fe575b505050811b016006820155610996565b015160001960f88460031b161c191690558380806112ee565b818101518355602094850194600190930192909101906112d3565b909150600684016000526020600020601f840160051c81016020851061137e575b90849392915b601f830160051c8201811061136f575050610967565b60008155859450600101611359565b5080611353565b01519050838061091f565b9250600584016000526020600020906000935b601f19841685106113e7576001945083601f198116106113ce575b505050811b016005820155610937565b015160001960f88460031b161c191690558380806113be565b818101518355602094850194600190930192909101906113a3565b909150600584016000526020600020601f840160051c81016020851061144e575b90849392915b601f830160051c8201811061143f575050610908565b60008155859450600101611429565b5080611423565b0151905083806108c0565b9250600484016000526020600020906000935b601f19841685106114b7576001945083601f1981161061149e575b505050811b0160048201556108d8565b015160001960f88460031b161c1916905583808061148e565b81810151835560209485019460019093019290910190611473565b909150600484016000526020600020601f840160051c81016020851061151e575b90849392915b601f830160051c8201811061150f5750506108a9565b600081558594506001016114f9565b50806114f3565b015190508380610862565b9250600384016000526020600020906000935b601f1984168510611587576001945083601f1981161061156e575b505050811b01600382015561087a565b015160001960f88460031b161c1916905583808061155e565b81810151835560209485019460019093019290910190611543565b909150600384016000526020600020601f840160051c8101602085106115ee575b90849392915b601f830160051c820181106115df57505061084b565b600081558594506001016115c9565b50806115c3565b015190508380610803565b9250600284016000526020600020906000935b601f1984168510611657576001945083601f1981161061163e575b505050811b01600282015561081b565b015160001960f88460031b161c1916905583808061162e565b81810151835560209485019460019093019290910190611613565b909150600284016000526020600020601f840160051c8101602085106116be575b90849392915b601f830160051c820181106116af5750506107ec565b60008155859450600101611699565b5080611693565b0151905083806107a4565b9250600184016000526020600020906000935b601f1984168510611727576001945083601f1981161061170e575b505050811b0160018201556107bc565b015160001960f88460031b161c191690558380806116fe565b818101518355602094850194600190930192909101906116e3565b909150600184016000526020600020601f840160051c81016020851061178e575b90849392915b601f830160051c8201811061177f57505061078d565b60008155859450600101611769565b5080611763565b015190508380610748565b9250836000526020600020906000935b601f19841685106117f1576001945083601f198116106117d8575b505050811b01815561075d565b015160001960f88460031b161c191690558380806117cb565b818101518355602094850194600190930192909101906117b0565b909150836000526020600020601f840160051c810160208510611855575b90849392915b601f830160051c82018110611846575050610731565b60008155859450600101611830565b508061182a565b60405162461bcd60e51b815260206004820152600b60248201526a139bdd081cdd195dd85c9960aa1b6044820152606490fd5b346100a45760003660031901126100a4576000546040516001600160a01b039091168152602090f35b346100a45760203660031901126100a4576001600160a01b036118d9611a8c565b16600052600160205260406000206118f081611b19565b6118fc60018301611b19565b9161190960028201611b19565b9061191660038201611b19565b61192260048301611b19565b61192e60058401611b19565b61193a60068501611b19565b61194660078601611b19565b9061195360088701611b19565b9261196060098801611b19565b9461196d600a8901611b19565b9661197a600b8a01611b19565b98600c0161198790611b19565b996040519c8d9c8d6101a090818152016119a091611bbf565b8d810360208f01526119b191611bbf565b8c810360408e01526119c291611bbf565b8b810360608d01526119d391611bbf565b8a810360808c01526119e491611bbf565b89810360a08b01526119f591611bbf565b88810360c08a0152611a0691611bbf565b87810360e0890152611a1791611bbf565b868103610100880152611a2991611bbf565b858103610120870152611a3b91611bbf565b848103610140860152611a4d91611bbf565b838103610160850152611a5f91611bbf565b82810361018084015261037591611bbf565b346100a45760003660031901126100a4576020906002548152f35b600435906001600160a01b03821682036100a457565b90600182811c92168015611ad2575b6020831014611abc57565b634e487b7160e01b600052602260045260246000fd5b91607f1691611ab1565b6101a081019081106001600160401b03821117610dcf57604052565b90601f801991011681019081106001600160401b03821117610dcf57604052565b9060405191826000825492611b2d84611aa2565b908184526001948581169081600014611b9c5750600114611b59575b5050611b5792500383611af8565b565b9093915060005260209081600020936000915b818310611b84575050611b5793508201013880611b49565b85548884018501529485019487945091830191611b6c565b915050611b5794506020925060ff191682840152151560051b8201013880611b49565b919082519283825260005b848110611beb575050826000602080949584010152601f8019910116010190565b602081830181015184830182015201611bca565b9181601f840112156100a4578235916001600160401b0383116100a457602083818601950101116100a457565b600254811015611c635760026000527f405787fa12a823e0f2b7631cc41b3ba8828b3321ca811111fa75cd3aa3bb5ace0190600090565b634e487b7160e01b600052603260045260246000fd5b9291926001600160401b038211610dcf5760405191611ca2601f8201601f191660200184611af8565b8294818452818301116100a4578281602093846000960137010152565b908060209392818452848401376000828201840152601f01601f191601019056fea2646970667358221220b1d2a779f8cf9f7519ac588895ddc37d9661674bc2754659b32cd39a8322f18164736f6c63430008140033","opcodes":"PUSH1 0x80 DUP1 PUSH1 0x40 MSTORE CALLVALUE PUSH2 0x28 JUMPI PUSH1 0x0 DUP1 SLOAD PUSH1 0x1 PUSH1 0x1 PUSH1 0xA0 SHL SUB NOT AND CALLER OR SWAP1 SSTORE PUSH2 0x1D16 SWAP1 DUP2 PUSH2 0x2E DUP3 CODECOPY RETURN JUMPDEST PUSH1 0x0 DUP1 REVERT INVALID PUSH2 0x420 DUP1 PUSH1 0x40 MSTORE PUSH1 0x4 CALLDATASIZE LT ISZERO PUSH2 0x14 JUMPI PUSH1 0x0 DUP1 REVERT JUMPDEST PUSH1 0x0 CALLDATALOAD PUSH1 0xE0 SHR SWAP1 DUP2 PUSH4 0x2A17D4CD EQ PUSH2 0x1A71 JUMPI POP DUP1 PUSH4 0x5A2ED662 EQ PUSH2 0x18B8 JUMPI DUP1 PUSH4 0x637EEA19 EQ PUSH2 0x188F JUMPI DUP1 PUSH4 0xBA238D6A EQ PUSH2 0x379 JUMPI DUP1 PUSH4 0xCF84C603 EQ PUSH2 0xA9 JUMPI PUSH4 0xF31BEE3E EQ PUSH2 0x62 JUMPI PUSH1 0x0 DUP1 REVERT JUMPDEST CALLVALUE PUSH2 0xA4 JUMPI PUSH1 0x20 CALLDATASIZE PUSH1 0x3 NOT ADD SLT PUSH2 0xA4 JUMPI PUSH1 0x4 CALLDATALOAD PUSH1 0x2 SLOAD DUP2 LT ISZERO PUSH2 0xA4 JUMPI PUSH2 0x8B PUSH1 0x20 SWAP2 PUSH2 0x1C2C JUMP JUMPDEST SWAP1 SLOAD PUSH1 0x40 MLOAD PUSH1 0x3 SWAP3 SWAP1 SWAP3 SHL SHR PUSH1 0x1 PUSH1 0x1 PUSH1 0xA0 SHL SUB AND DUP2 MSTORE RETURN JUMPDEST PUSH1 0x0 DUP1 REVERT JUMPDEST CALLVALUE PUSH2 0xA4 JUMPI PUSH1 0x20 CALLDATASIZE PUSH1 0x3 NOT ADD SLT PUSH2 0xA4 JUMPI PUSH2 0xC2 PUSH2 0x1A8C JUMP JUMPDEST PUSH1 0x60 PUSH2 0x180 PUSH1 0x40 MLOAD PUSH2 0xD3 DUP2 PUSH2 0x1ADC JUMP JUMPDEST DUP3 DUP2 MSTORE DUP3 PUSH1 0x20 DUP3 ADD MSTORE DUP3 PUSH1 0x40 DUP3 ADD MSTORE DUP3 DUP1 DUP3 ADD MSTORE DUP3 PUSH1 0x80 DUP3 ADD MSTORE DUP3 PUSH1 0xA0 DUP3 ADD MSTORE DUP3 PUSH1 0xC0 DUP3 ADD MSTORE DUP3 PUSH1 0xE0 DUP3 ADD MSTORE DUP3 PUSH2 0x100 DUP3 ADD MSTORE DUP3 PUSH2 0x120 DUP3 ADD MSTORE DUP3 PUSH2 0x140 DUP3 ADD MSTORE DUP3 PUSH2 0x160 DUP3 ADD MSTORE ADD MSTORE PUSH1 0x1 DUP1 PUSH1 0xA0 SHL SUB AND PUSH1 0x0 MSTORE PUSH1 0x1 PUSH1 0x20 MSTORE PUSH2 0x291 PUSH1 0x40 PUSH1 0x0 KECCAK256 PUSH2 0x217 PUSH1 0xC PUSH1 0x40 MLOAD SWAP3 PUSH2 0x147 DUP5 PUSH2 0x1ADC JUMP JUMPDEST PUSH2 0x150 DUP2 PUSH2 0x1B19 JUMP JUMPDEST DUP5 MSTORE PUSH2 0x15E PUSH1 0x1 DUP3 ADD PUSH2 0x1B19 JUMP JUMPDEST PUSH1 0x20 DUP6 ADD MSTORE PUSH2 0x16F PUSH1 0x2 DUP3 ADD PUSH2 0x1B19 JUMP JUMPDEST PUSH1 0x40 DUP6 ADD MSTORE PUSH2 0x180 PUSH1 0x3 DUP3 ADD PUSH2 0x1B19 JUMP JUMPDEST PUSH1 0x60 DUP6 ADD MSTORE PUSH2 0x191 PUSH1 0x4 DUP3 ADD PUSH2 0x1B19 JUMP JUMPDEST PUSH1 0x80 DUP6 ADD MSTORE PUSH2 0x1A2 PUSH1 0x5 DUP3 ADD PUSH2 0x1B19 JUMP JUMPDEST PUSH1 0xA0 DUP6 ADD MSTORE PUSH2 0x1B3 PUSH1 0x6 DUP3 ADD PUSH2 0x1B19 JUMP JUMPDEST PUSH1 0xC0 DUP6 ADD MSTORE PUSH2 0x1C4 PUSH1 0x7 DUP3 ADD PUSH2 0x1B19 JUMP JUMPDEST PUSH1 0xE0 DUP6 ADD MSTORE PUSH2 0x1D5 PUSH1 0x8 DUP3 ADD PUSH2 0x1B19 JUMP JUMPDEST PUSH2 0x100 DUP6 ADD MSTORE PUSH2 0x1E7 PUSH1 0x9 DUP3 ADD PUSH2 0x1B19 JUMP JUMPDEST PUSH2 0x120 DUP6 ADD MSTORE PUSH2 0x1F9 PUSH1 0xA DUP3 ADD PUSH2 0x1B19 JUMP JUMPDEST PUSH2 0x140 DUP6 ADD MSTORE PUSH2 0x20B PUSH1 0xB DUP3 ADD PUSH2 0x1B19 JUMP JUMPDEST PUSH2 0x160 DUP6 ADD MSTORE ADD PUSH2 0x1B19 JUMP JUMPDEST PUSH2 0x180 DUP3 ADD MSTORE PUSH2 0x375 DUP2 PUSH2 0x180 PUSH2 0x360 PUSH2 0x34A PUSH2 0x332 PUSH2 0x31A PUSH2 0x302 PUSH2 0x2EB PUSH2 0x2D5 PUSH2 0x2BF PUSH2 0x2A9 PUSH1 0x40 MLOAD SWAP14 DUP15 SWAP14 DUP15 PUSH1 0x20 DUP2 MSTORE PUSH1 0x40 PUSH2 0x27C PUSH2 0x267 DUP5 MLOAD PUSH2 0x1A0 PUSH1 0x20 DUP7 ADD MSTORE PUSH2 0x1C0 DUP6 ADD SWAP1 PUSH2 0x1BBF JUMP JUMPDEST PUSH1 0x20 DUP6 ADD MLOAD DUP5 DUP3 SUB PUSH1 0x1F NOT ADD DUP5 DUP7 ADD MSTORE PUSH2 0x1BBF JUMP JUMPDEST SWAP3 ADD MLOAD SWAP1 PUSH1 0x60 PUSH1 0x1F NOT DUP3 DUP6 SUB ADD SWAP2 ADD MSTORE PUSH2 0x1BBF JUMP JUMPDEST DUP14 PUSH1 0x60 DUP14 ADD MLOAD SWAP1 PUSH1 0x80 PUSH1 0x1F NOT DUP3 DUP6 SUB ADD SWAP2 ADD MSTORE PUSH2 0x1BBF JUMP JUMPDEST PUSH1 0x80 DUP12 ADD MLOAD DUP14 DUP3 SUB PUSH1 0x1F NOT ADD PUSH1 0xA0 DUP16 ADD MSTORE PUSH2 0x1BBF JUMP JUMPDEST PUSH1 0xA0 DUP11 ADD MLOAD DUP13 DUP3 SUB PUSH1 0x1F NOT ADD PUSH1 0xC0 DUP15 ADD MSTORE PUSH2 0x1BBF JUMP JUMPDEST PUSH1 0xC0 DUP10 ADD MLOAD DUP12 DUP3 SUB PUSH1 0x1F NOT ADD PUSH1 0xE0 DUP14 ADD MSTORE PUSH2 0x1BBF JUMP JUMPDEST PUSH1 0xE0 DUP9 ADD MLOAD DUP11 DUP3 SUB PUSH1 0x1F NOT ADD PUSH2 0x100 DUP13 ADD MSTORE PUSH2 0x1BBF JUMP JUMPDEST PUSH2 0x100 DUP8 ADD MLOAD DUP10 DUP3 SUB PUSH1 0x1F NOT ADD PUSH2 0x120 DUP12 ADD MSTORE PUSH2 0x1BBF JUMP JUMPDEST PUSH2 0x120 DUP7 ADD MLOAD DUP9 DUP3 SUB PUSH1 0x1F NOT ADD PUSH2 0x140 DUP11 ADD MSTORE PUSH2 0x1BBF JUMP JUMPDEST PUSH2 0x140 DUP6 ADD MLOAD DUP8 DUP3 SUB PUSH1 0x1F NOT ADD PUSH2 0x160 DUP10 ADD MSTORE PUSH2 0x1BBF JUMP JUMPDEST PUSH2 0x160 DUP5 ADD MLOAD DUP7 DUP3 SUB PUSH1 0x1F NOT ADD DUP5 DUP9 ADD MSTORE PUSH2 0x1BBF JUMP JUMPDEST SWAP2 ADD MLOAD DUP4 DUP3 SUB PUSH1 0x1F NOT ADD PUSH2 0x1A0 DUP6 ADD MSTORE PUSH2 0x1BBF JUMP JUMPDEST SUB SWAP1 RETURN JUMPDEST CALLVALUE PUSH2 0xA4 JUMPI PUSH2 0x1C0 CALLDATASIZE PUSH1 0x3 NOT ADD SLT PUSH2 0xA4 JUMPI PUSH2 0x393 PUSH2 0x1A8C JUMP JUMPDEST PUSH2 0x100 MSTORE PUSH1 0x24 CALLDATALOAD PUSH1 0x1 PUSH1 0x1 PUSH1 0x40 SHL SUB DUP2 GT PUSH2 0xA4 JUMPI PUSH2 0x3B6 SWAP1 CALLDATASIZE SWAP1 PUSH1 0x4 ADD PUSH2 0x1BFF JUMP JUMPDEST PUSH2 0x260 MSTORE PUSH2 0x400 MSTORE PUSH1 0x44 CALLDATALOAD PUSH1 0x1 PUSH1 0x1 PUSH1 0x40 SHL SUB DUP2 GT PUSH2 0xA4 JUMPI PUSH2 0x3DD SWAP1 CALLDATASIZE SWAP1 PUSH1 0x4 ADD PUSH2 0x1BFF JUMP JUMPDEST PUSH2 0x140 MSTORE PUSH1 0xA0 MSTORE PUSH1 0x64 CALLDATALOAD PUSH1 0x1 PUSH1 0x1 PUSH1 0x40 SHL SUB DUP2 GT PUSH2 0xA4 JUMPI PUSH2 0x403 SWAP1 CALLDATASIZE SWAP1 PUSH1 0x4 ADD PUSH2 0x1BFF JUMP JUMPDEST PUSH2 0x1E0 MSTORE PUSH2 0x200 MSTORE PUSH1 0x84 CALLDATALOAD PUSH1 0x1 PUSH1 0x1 PUSH1 0x40 SHL SUB DUP2 GT PUSH2 0xA4 JUMPI PUSH2 0x42A SWAP1 CALLDATASIZE SWAP1 PUSH1 0x4 ADD PUSH2 0x1BFF JUMP JUMPDEST PUSH2 0x220 MSTORE PUSH2 0x3E0 MSTORE PUSH1 0xA4 CALLDATALOAD PUSH1 0x1 PUSH1 0x1 PUSH1 0x40 SHL SUB DUP2 GT PUSH2 0xA4 JUMPI PUSH2 0x451 SWAP1 CALLDATASIZE SWAP1 PUSH1 0x4 ADD PUSH2 0x1BFF JUMP JUMPDEST PUSH2 0x1A0 MSTORE PUSH2 0x180 MSTORE PUSH1 0xC4 CALLDATALOAD PUSH1 0x1 PUSH1 0x1 PUSH1 0x40 SHL SUB DUP2 GT PUSH2 0xA4 JUMPI PUSH2 0x478 SWAP1 CALLDATASIZE SWAP1 PUSH1 0x4 ADD PUSH2 0x1BFF JUMP JUMPDEST PUSH2 0x3C0 MSTORE PUSH2 0x160 MSTORE PUSH1 0xE4 CALLDATALOAD PUSH1 0x1 PUSH1 0x1 PUSH1 0x40 SHL SUB DUP2 GT PUSH2 0xA4 JUMPI PUSH2 0x49F SWAP1 CALLDATASIZE SWAP1 PUSH1 0x4 ADD PUSH2 0x1BFF JUMP JUMPDEST PUSH2 0x2E0 MSTORE PUSH1 0xC0 MSTORE PUSH1 0x1 PUSH1 0x1 PUSH1 0x40 SHL SUB PUSH2 0x104 CALLDATALOAD GT PUSH2 0xA4 JUMPI PUSH2 0x4C7 CALLDATASIZE PUSH2 0x104 CALLDATALOAD PUSH1 0x4 ADD PUSH2 0x1BFF JUMP JUMPDEST PUSH1 0xE0 MSTORE PUSH2 0x380 MSTORE PUSH2 0x124 CALLDATALOAD PUSH1 0x1 PUSH1 0x1 PUSH1 0x40 SHL SUB DUP2 GT PUSH2 0xA4 JUMPI PUSH2 0x4EE SWAP1 CALLDATASIZE SWAP1 PUSH1 0x4 ADD PUSH2 0x1BFF JUMP JUMPDEST PUSH2 0x300 MSTORE PUSH2 0x240 MSTORE PUSH1 0x1 PUSH1 0x1 PUSH1 0x40 SHL SUB PUSH2 0x144 CALLDATALOAD GT PUSH2 0xA4 JUMPI PUSH2 0x517 CALLDATASIZE PUSH2 0x144 CALLDATALOAD PUSH1 0x4 ADD PUSH2 0x1BFF JUMP JUMPDEST PUSH2 0x2C0 MSTORE PUSH2 0x360 MSTORE PUSH2 0x164 CALLDATALOAD PUSH1 0x1 PUSH1 0x1 PUSH1 0x40 SHL SUB DUP2 GT PUSH2 0xA4 JUMPI PUSH2 0x53F SWAP1 CALLDATASIZE SWAP1 PUSH1 0x4 ADD PUSH2 0x1BFF JUMP JUMPDEST PUSH2 0x1C0 MSTORE PUSH2 0x340 MSTORE PUSH2 0x184 CALLDATALOAD PUSH1 0x1 PUSH1 0x1 PUSH1 0x40 SHL SUB DUP2 GT PUSH2 0xA4 JUMPI PUSH2 0x567 SWAP1 CALLDATASIZE SWAP1 PUSH1 0x4 ADD PUSH2 0x1BFF JUMP JUMPDEST PUSH2 0x2A0 MSTORE PUSH2 0x3A0 MSTORE PUSH2 0x1A4 CALLDATALOAD PUSH1 0x1 PUSH1 0x1 PUSH1 0x40 SHL SUB DUP2 GT PUSH2 0xA4 JUMPI PUSH2 0x58F SWAP1 CALLDATASIZE SWAP1 PUSH1 0x4 ADD PUSH2 0x1BFF JUMP JUMPDEST PUSH2 0x120 MSTORE PUSH2 0x320 MSTORE PUSH1 0x0 SLOAD PUSH1 0x1 PUSH1 0x1 PUSH1 0xA0 SHL SUB AND CALLER SUB PUSH2 0x185C JUMPI PUSH2 0x5B8 PUSH1 0x40 MLOAD DUP1 PUSH1 0x80 MSTORE PUSH2 0x1ADC JUMP JUMPDEST PUSH2 0x5C9 CALLDATASIZE PUSH2 0x260 MLOAD PUSH2 0x400 MLOAD PUSH2 0x1C79 JUMP JUMPDEST PUSH1 0x80 MLOAD MSTORE PUSH2 0x5DD CALLDATASIZE PUSH2 0x140 MLOAD PUSH1 0xA0 MLOAD PUSH2 0x1C79 JUMP JUMPDEST PUSH1 0x20 PUSH1 0x80 MLOAD ADD MSTORE PUSH2 0x5F5 CALLDATASIZE PUSH2 0x1E0 MLOAD PUSH2 0x200 MLOAD PUSH2 0x1C79 JUMP JUMPDEST PUSH1 0x40 PUSH1 0x80 MLOAD ADD MSTORE PUSH2 0x60D CALLDATASIZE PUSH2 0x220 MLOAD PUSH2 0x3E0 MLOAD PUSH2 0x1C79 JUMP JUMPDEST PUSH1 0x60 PUSH1 0x80 MLOAD ADD MSTORE PUSH2 0x625 CALLDATASIZE PUSH2 0x1A0 MLOAD PUSH2 0x180 MLOAD PUSH2 0x1C79 JUMP JUMPDEST PUSH1 0x80 DUP1 MLOAD ADD MSTORE PUSH2 0x63C CALLDATASIZE PUSH2 0x3C0 MLOAD PUSH2 0x160 MLOAD PUSH2 0x1C79 JUMP JUMPDEST PUSH1 0xA0 PUSH1 0x80 MLOAD ADD MSTORE PUSH2 0x653 CALLDATASIZE PUSH2 0x2E0 MLOAD PUSH1 0xC0 MLOAD PUSH2 0x1C79 JUMP JUMPDEST PUSH1 0xC0 PUSH1 0x80 MLOAD ADD MSTORE PUSH2 0x66A CALLDATASIZE PUSH1 0xE0 MLOAD PUSH2 0x380 MLOAD PUSH2 0x1C79 JUMP JUMPDEST PUSH1 0xE0 PUSH1 0x80 MLOAD ADD MSTORE PUSH2 0x682 CALLDATASIZE PUSH2 0x300 MLOAD PUSH2 0x240 MLOAD PUSH2 0x1C79 JUMP JUMPDEST PUSH2 0x100 PUSH1 0x80 MLOAD ADD MSTORE PUSH2 0x69B CALLDATASIZE PUSH2 0x2C0 MLOAD PUSH2 0x360 MLOAD PUSH2 0x1C79 JUMP JUMPDEST PUSH2 0x120 PUSH1 0x80 MLOAD ADD MSTORE PUSH2 0x6B4 CALLDATASIZE PUSH2 0x1C0 MLOAD PUSH2 0x340 MLOAD PUSH2 0x1C79 JUMP JUMPDEST PUSH2 0x140 PUSH1 0x80 MLOAD ADD MSTORE PUSH2 0x6CD CALLDATASIZE PUSH2 0x2A0 MLOAD PUSH2 0x3A0 MLOAD PUSH2 0x1C79 JUMP JUMPDEST PUSH2 0x160 PUSH1 0x80 MLOAD ADD MSTORE PUSH2 0x6E6 CALLDATASIZE PUSH2 0x120 MLOAD PUSH2 0x320 MLOAD PUSH2 0x1C79 JUMP JUMPDEST PUSH2 0x180 PUSH1 0x80 MLOAD ADD MSTORE PUSH1 0x1 DUP1 PUSH1 0xA0 SHL SUB PUSH2 0x100 MLOAD AND PUSH1 0x0 MSTORE PUSH1 0x1 PUSH1 0x20 MSTORE PUSH1 0x40 PUSH1 0x0 KECCAK256 PUSH1 0x80 MLOAD MLOAD DUP1 MLOAD SWAP1 PUSH1 0x1 PUSH1 0x1 PUSH1 0x40 SHL SUB DUP3 GT PUSH2 0xDCF JUMPI DUP2 SWAP1 PUSH2 0x728 DUP5 SLOAD PUSH2 0x1AA2 JUMP JUMPDEST PUSH1 0x1F DUP2 GT PUSH2 0x180C JUMPI JUMPDEST POP PUSH1 0x20 SWAP1 PUSH1 0x1F DUP4 GT PUSH1 0x1 EQ PUSH2 0x17A0 JUMPI PUSH1 0x0 SWAP3 PUSH2 0x1795 JUMPI JUMPDEST POP POP DUP2 PUSH1 0x1 SHL SWAP2 PUSH1 0x0 NOT SWAP1 PUSH1 0x3 SHL SHR NOT AND OR DUP2 SSTORE JUMPDEST PUSH1 0x20 PUSH1 0x80 MLOAD ADD MLOAD DUP1 MLOAD SWAP1 PUSH1 0x1 PUSH1 0x1 PUSH1 0x40 SHL SUB DUP3 GT PUSH2 0xDCF JUMPI DUP2 SWAP1 PUSH2 0x784 PUSH1 0x1 DUP6 ADD SLOAD PUSH2 0x1AA2 JUMP JUMPDEST PUSH1 0x1F DUP2 GT PUSH2 0x1742 JUMPI JUMPDEST POP PUSH1 0x20 SWAP1 PUSH1 0x1F DUP4 GT PUSH1 0x1 EQ PUSH2 0x16D0 JUMPI PUSH1 0x0 SWAP3 PUSH2 0x16C5 JUMPI JUMPDEST POP POP DUP2 PUSH1 0x1 SHL SWAP2 PUSH1 0x0 NOT SWAP1 PUSH1 0x3 SHL SHR NOT AND OR PUSH1 0x1 DUP3 ADD SSTORE JUMPDEST PUSH1 0x40 PUSH1 0x80 MLOAD ADD MLOAD DUP1 MLOAD SWAP1 PUSH1 0x1 PUSH1 0x1 PUSH1 0x40 SHL SUB DUP3 GT PUSH2 0xDCF JUMPI DUP2 SWAP1 PUSH2 0x7E3 PUSH1 0x2 DUP6 ADD SLOAD PUSH2 0x1AA2 JUMP JUMPDEST PUSH1 0x1F DUP2 GT PUSH2 0x1672 JUMPI JUMPDEST POP PUSH1 0x20 SWAP1 PUSH1 0x1F DUP4 GT PUSH1 0x1 EQ PUSH2 0x1600 JUMPI PUSH1 0x0 SWAP3 PUSH2 0x15F5 JUMPI JUMPDEST POP POP DUP2 PUSH1 0x1 SHL SWAP2 PUSH1 0x0 NOT SWAP1 PUSH1 0x3 SHL SHR NOT AND OR PUSH1 0x2 DUP3 ADD SSTORE JUMPDEST PUSH1 0x60 PUSH1 0x80 MLOAD ADD MLOAD DUP1 MLOAD SWAP1 PUSH1 0x1 PUSH1 0x1 PUSH1 0x40 SHL SUB DUP3 GT PUSH2 0xDCF JUMPI DUP2 SWAP1 PUSH2 0x842 PUSH1 0x3 DUP6 ADD SLOAD PUSH2 0x1AA2 JUMP JUMPDEST PUSH1 0x1F DUP2 GT PUSH2 0x15A2 JUMPI JUMPDEST POP PUSH1 0x20 SWAP1 PUSH1 0x1F DUP4 GT PUSH1 0x1 EQ PUSH2 0x1530 JUMPI PUSH1 0x0 SWAP3 PUSH2 0x1525 JUMPI JUMPDEST POP POP DUP2 PUSH1 0x1 SHL SWAP2 PUSH1 0x0 NOT SWAP1 PUSH1 0x3 SHL SHR NOT AND OR PUSH1 0x3 DUP3 ADD SSTORE JUMPDEST PUSH1 0x80 DUP1 MLOAD ADD MLOAD DUP1 MLOAD SWAP1 PUSH1 0x1 PUSH1 0x1 PUSH1 0x40 SHL SUB DUP3 GT PUSH2 0xDCF JUMPI DUP2 SWAP1 PUSH2 0x8A0 PUSH1 0x4 DUP6 ADD SLOAD PUSH2 0x1AA2 JUMP JUMPDEST PUSH1 0x1F DUP2 GT PUSH2 0x14D2 JUMPI JUMPDEST POP PUSH1 0x20 SWAP1 PUSH1 0x1F DUP4 GT PUSH1 0x1 EQ PUSH2 0x1460 JUMPI PUSH1 0x0 SWAP3 PUSH2 0x1455 JUMPI JUMPDEST POP POP DUP2 PUSH1 0x1 SHL SWAP2 PUSH1 0x0 NOT SWAP1 PUSH1 0x3 SHL SHR NOT AND OR PUSH1 0x4 DUP3 ADD SSTORE JUMPDEST PUSH1 0xA0 PUSH1 0x80 MLOAD ADD MLOAD DUP1 MLOAD SWAP1 PUSH1 0x1 PUSH1 0x1 PUSH1 0x40 SHL SUB DUP3 GT PUSH2 0xDCF JUMPI DUP2 SWAP1 PUSH2 0x8FF PUSH1 0x5 DUP6 ADD SLOAD PUSH2 0x1AA2 JUMP JUMPDEST PUSH1 0x1F DUP2 GT PUSH2 0x1402 JUMPI JUMPDEST POP PUSH1 0x20 SWAP1 PUSH1 0x1F DUP4 GT PUSH1 0x1 EQ PUSH2 0x1390 JUMPI PUSH1 0x0 SWAP3 PUSH2 0x1385 JUMPI JUMPDEST POP POP DUP2 PUSH1 0x1 SHL SWAP2 PUSH1 0x0 NOT SWAP1 PUSH1 0x3 SHL SHR NOT AND OR PUSH1 0x5 DUP3 ADD SSTORE JUMPDEST PUSH1 0xC0 PUSH1 0x80 MLOAD ADD MLOAD DUP1 MLOAD SWAP1 PUSH1 0x1 PUSH1 0x1 PUSH1 0x40 SHL SUB DUP3 GT PUSH2 0xDCF JUMPI DUP2 SWAP1 PUSH2 0x95E PUSH1 0x6 DUP6 ADD SLOAD PUSH2 0x1AA2 JUMP JUMPDEST PUSH1 0x1F DUP2 GT PUSH2 0x1332 JUMPI JUMPDEST POP PUSH1 0x20 SWAP1 PUSH1 0x1F DUP4 GT PUSH1 0x1 EQ PUSH2 0x12C0 JUMPI PUSH1 0x0 SWAP3 PUSH2 0x12B5 JUMPI JUMPDEST POP POP DUP2 PUSH1 0x1 SHL SWAP2 PUSH1 0x0 NOT SWAP1 PUSH1 0x3 SHL SHR NOT AND OR PUSH1 0x6 DUP3 ADD SSTORE JUMPDEST PUSH1 0xE0 PUSH1 0x80 MLOAD ADD MLOAD DUP1 MLOAD SWAP1 PUSH1 0x1 PUSH1 0x1 PUSH1 0x40 SHL SUB DUP3 GT PUSH2 0xDCF JUMPI DUP2 SWAP1 PUSH2 0x9BD PUSH1 0x7 DUP6 ADD SLOAD PUSH2 0x1AA2 JUMP JUMPDEST PUSH1 0x1F DUP2 GT PUSH2 0x1262 JUMPI JUMPDEST POP PUSH1 0x20 SWAP1 PUSH1 0x1F DUP4 GT PUSH1 0x1 EQ PUSH2 0x11F0 JUMPI PUSH1 0x0 SWAP3 PUSH2 0x11E5 JUMPI JUMPDEST POP POP DUP2 PUSH1 0x1 SHL SWAP2 PUSH1 0x0 NOT SWAP1 PUSH1 0x3 SHL SHR NOT AND OR PUSH1 0x7 DUP3 ADD SSTORE JUMPDEST PUSH2 0x100 PUSH1 0x80 MLOAD ADD MLOAD DUP1 MLOAD SWAP1 PUSH1 0x1 PUSH1 0x1 PUSH1 0x40 SHL SUB DUP3 GT PUSH2 0xDCF JUMPI DUP2 SWAP1 PUSH2 0xA1D PUSH1 0x8 DUP6 ADD SLOAD PUSH2 0x1AA2 JUMP JUMPDEST PUSH1 0x1F DUP2 GT PUSH2 0x1192 JUMPI JUMPDEST POP PUSH1 0x20 SWAP1 PUSH1 0x1F DUP4 GT PUSH1 0x1 EQ PUSH2 0x1120 JUMPI PUSH1 0x0 SWAP3 PUSH2 0x1115 JUMPI JUMPDEST POP POP DUP2 PUSH1 0x1 SHL SWAP2 PUSH1 0x0 NOT SWAP1 PUSH1 0x3 SHL SHR NOT AND OR PUSH1 0x8 DUP3 ADD SSTORE JUMPDEST PUSH2 0x120 PUSH1 0x80 MLOAD ADD MLOAD DUP1 MLOAD SWAP1 PUSH1 0x1 PUSH1 0x1 PUSH1 0x40 SHL SUB DUP3 GT PUSH2 0xDCF JUMPI DUP2 SWAP1 PUSH2 0xA7D PUSH1 0x9 DUP6 ADD SLOAD PUSH2 0x1AA2 JUMP JUMPDEST PUSH1 0x1F DUP2 GT PUSH2 0x10C2 JUMPI JUMPDEST POP PUSH1 0x20 SWAP1 PUSH1 0x1F DUP4 GT PUSH1 0x1 EQ PUSH2 0x1050 JUMPI PUSH1 0x0 SWAP3 PUSH2 0x1045 JUMPI JUMPDEST POP POP DUP2 PUSH1 0x1 SHL SWAP2 PUSH1 0x0 NOT SWAP1 PUSH1 0x3 SHL SHR NOT AND OR PUSH1 0x9 DUP3 ADD SSTORE JUMPDEST PUSH2 0x140 PUSH1 0x80 MLOAD ADD MLOAD DUP1 MLOAD SWAP1 PUSH1 0x1 PUSH1 0x1 PUSH1 0x40 SHL SUB DUP3 GT PUSH2 0xDCF JUMPI DUP2 SWAP1 PUSH2 0xADD PUSH1 0xA DUP6 ADD SLOAD PUSH2 0x1AA2 JUMP JUMPDEST PUSH1 0x1F DUP2 GT PUSH2 0xFF2 JUMPI JUMPDEST POP PUSH1 0x20 SWAP1 PUSH1 0x1F DUP4 GT PUSH1 0x1 EQ PUSH2 0xF80 JUMPI PUSH1 0x0 SWAP3 PUSH2 0xF75 JUMPI JUMPDEST POP POP DUP2 PUSH1 0x1 SHL SWAP2 PUSH1 0x0 NOT SWAP1 PUSH1 0x3 SHL SHR NOT AND OR PUSH1 0xA DUP3 ADD SSTORE JUMPDEST PUSH2 0x160 PUSH1 0x80 MLOAD ADD MLOAD DUP1 MLOAD SWAP1 PUSH1 0x1 PUSH1 0x1 PUSH1 0x40 SHL SUB DUP3 GT PUSH2 0xDCF JUMPI DUP2 SWAP1 PUSH2 0xB3D PUSH1 0xB DUP6 ADD SLOAD PUSH2 0x1AA2 JUMP JUMPDEST PUSH1 0x1F DUP2 GT PUSH2 0xF22 JUMPI JUMPDEST POP PUSH1 0x20 SWAP1 PUSH1 0x1F DUP4 GT PUSH1 0x1 EQ PUSH2 0xEB0 JUMPI PUSH1 0x0 SWAP3 PUSH2 0xEA5 JUMPI JUMPDEST POP POP DUP2 PUSH1 0x1 SHL SWAP2 PUSH1 0x0 NOT SWAP1 PUSH1 0x3 SHL SHR NOT AND OR PUSH1 0xB DUP3 ADD SSTORE JUMPDEST PUSH2 0x180 PUSH1 0x80 MLOAD ADD MLOAD DUP1 MLOAD SWAP1 PUSH1 0x1 PUSH1 0x1 PUSH1 0x40 SHL SUB DUP3 GT PUSH2 0xDCF JUMPI PUSH2 0xB9B PUSH1 0xC DUP5 ADD SLOAD PUSH2 0x1AA2 JUMP JUMPDEST PUSH1 0x1F DUP2 GT PUSH2 0xE5E JUMPI JUMPDEST POP PUSH1 0x20 SWAP1 PUSH1 0x1F DUP4 GT PUSH1 0x1 EQ PUSH2 0xDF0 JUMPI PUSH1 0xC SWAP3 SWAP2 PUSH1 0x0 SWAP2 DUP4 PUSH2 0xDE5 JUMPI JUMPDEST POP POP DUP2 PUSH1 0x1 SHL SWAP2 PUSH1 0x0 NOT SWAP1 PUSH1 0x3 SHL SHR NOT AND OR SWAP2 ADD SSTORE JUMPDEST PUSH1 0x2 SLOAD PUSH9 0x10000000000000000 DUP2 LT ISZERO PUSH2 0xDCF JUMPI DUP1 PUSH1 0x1 PUSH2 0xBFA SWAP3 ADD PUSH1 0x2 SSTORE PUSH2 0x1C2C JUMP JUMPDEST DUP2 SLOAD SWAP1 PUSH1 0x3 SHL SWAP1 PUSH1 0x1 DUP1 PUSH1 0xA0 SHL SUB PUSH2 0x100 MLOAD AND DUP3 SHL SWAP2 PUSH1 0x1 DUP1 PUSH1 0xA0 SHL SUB SWAP1 SHL NOT AND OR SWAP1 SSTORE PUSH2 0x1A0 PUSH1 0x40 MLOAD DUP1 PUSH2 0x280 MSTORE MSTORE PUSH2 0xD77 PUSH2 0xD5D PUSH2 0xD43 PUSH2 0xD29 PUSH2 0xD0F PUSH2 0xCF7 PUSH2 0xCDF PUSH2 0xCC6 PUSH2 0xCAD PUSH2 0xC94 PUSH2 0xC7B PUSH2 0xC63 PUSH2 0x1A0 PUSH2 0x280 MLOAD ADD PUSH2 0x260 MLOAD PUSH2 0x400 MLOAD PUSH2 0x1CBF JUMP JUMPDEST PUSH2 0x280 MLOAD PUSH1 0x20 DUP2 DUP4 SUB SWAP2 ADD MSTORE PUSH2 0x140 MLOAD PUSH1 0xA0 MLOAD PUSH2 0x1CBF JUMP JUMPDEST PUSH2 0x280 MLOAD PUSH1 0x40 DUP2 DUP4 SUB SWAP2 ADD MSTORE PUSH2 0x1E0 MLOAD PUSH2 0x200 MLOAD PUSH2 0x1CBF JUMP JUMPDEST PUSH2 0x280 MLOAD PUSH1 0x60 DUP2 DUP4 SUB SWAP2 ADD MSTORE PUSH2 0x220 MLOAD PUSH2 0x3E0 MLOAD PUSH2 0x1CBF JUMP JUMPDEST PUSH2 0x280 MLOAD PUSH1 0x80 DUP2 DUP4 SUB SWAP2 ADD MSTORE PUSH2 0x1A0 MLOAD PUSH2 0x180 MLOAD PUSH2 0x1CBF JUMP JUMPDEST PUSH2 0x280 MLOAD PUSH1 0xA0 DUP2 DUP4 SUB SWAP2 ADD MSTORE PUSH2 0x3C0 MLOAD PUSH2 0x160 MLOAD PUSH2 0x1CBF JUMP JUMPDEST PUSH2 0x280 MLOAD PUSH1 0xC0 DUP2 DUP4 SUB SWAP2 ADD MSTORE PUSH2 0x2E0 MLOAD PUSH1 0xC0 MLOAD PUSH2 0x1CBF JUMP JUMPDEST PUSH2 0x280 MLOAD PUSH1 0xE0 DUP2 DUP4 SUB SWAP2 ADD MSTORE PUSH1 0xE0 MLOAD PUSH2 0x380 MLOAD PUSH2 0x1CBF JUMP JUMPDEST PUSH2 0x280 MLOAD PUSH2 0x100 DUP2 DUP4 SUB SWAP2 ADD MSTORE PUSH2 0x300 MLOAD PUSH2 0x240 MLOAD PUSH2 0x1CBF JUMP JUMPDEST PUSH2 0x280 MLOAD PUSH2 0x120 DUP2 DUP4 SUB SWAP2 ADD MSTORE PUSH2 0x2C0 MLOAD PUSH2 0x360 MLOAD PUSH2 0x1CBF JUMP JUMPDEST PUSH2 0x280 MLOAD PUSH2 0x140 DUP2 DUP4 SUB SWAP2 ADD MSTORE PUSH2 0x1C0 MLOAD PUSH2 0x340 MLOAD PUSH2 0x1CBF JUMP JUMPDEST PUSH2 0x280 MLOAD PUSH2 0x160 DUP2 DUP4 SUB SWAP2 ADD MSTORE PUSH2 0x2A0 MLOAD PUSH2 0x3A0 MLOAD PUSH2 0x1CBF JUMP JUMPDEST PUSH2 0x280 MLOAD PUSH2 0x180 DUP2 DUP4 SUB SWAP2 ADD MSTORE PUSH32 0x560A7E4F22676731CB7C61DD8623DB54E954396C0FF6233059DF102E82CEBE22 PUSH1 0x1 DUP1 PUSH1 0xA0 SHL SUB PUSH2 0x100 MLOAD AND SWAP2 PUSH2 0xDC7 PUSH2 0x280 MLOAD SWAP2 PUSH2 0x120 MLOAD PUSH2 0x320 MLOAD PUSH2 0x1CBF JUMP JUMPDEST SUB PUSH2 0x280 MLOAD LOG2 STOP JUMPDEST PUSH4 0x4E487B71 PUSH1 0xE0 SHL PUSH1 0x0 MSTORE PUSH1 0x41 PUSH1 0x4 MSTORE PUSH1 0x24 PUSH1 0x0 REVERT JUMPDEST ADD MLOAD SWAP1 POP DUP5 DUP1 PUSH2 0xBC0 JUMP JUMPDEST SWAP1 PUSH1 0xC DUP5 ADD PUSH1 0x0 MSTORE PUSH1 0x20 PUSH1 0x0 KECCAK256 SWAP2 PUSH1 0x0 PUSH1 0x1F NOT DUP6 AND SWAP1 JUMPDEST DUP2 DUP2 LT PUSH2 0xE46 JUMPI POP SWAP2 PUSH1 0x1 SWAP4 SWAP2 DUP6 PUSH1 0xC SWAP7 SWAP5 LT PUSH2 0xE2D JUMPI JUMPDEST POP POP POP DUP2 SHL ADD SWAP2 ADD SSTORE PUSH2 0xBD6 JUMP JUMPDEST ADD MLOAD PUSH1 0x0 NOT PUSH1 0xF8 DUP5 PUSH1 0x3 SHL AND SHR NOT AND SWAP1 SSTORE DUP5 DUP1 DUP1 PUSH2 0xE1F JUMP JUMPDEST SWAP3 SWAP4 PUSH1 0x20 PUSH1 0x1 DUP2 SWAP3 DUP8 DUP7 ADD MLOAD DUP2 SSTORE ADD SWAP6 ADD SWAP4 ADD PUSH2 0xE07 JUMP JUMPDEST PUSH1 0xC DUP5 ADD PUSH1 0x0 MSTORE PUSH1 0x20 PUSH1 0x0 KECCAK256 PUSH1 0x1F DUP5 ADD PUSH1 0x5 SHR DUP2 ADD PUSH1 0x20 DUP6 LT PUSH2 0xE9E JUMPI JUMPDEST PUSH1 0x1F DUP4 ADD PUSH1 0x5 SHR DUP3 ADD DUP2 LT PUSH2 0xE92 JUMPI POP POP PUSH2 0xBA4 JUMP JUMPDEST PUSH1 0x0 DUP2 SSTORE PUSH1 0x1 ADD PUSH2 0xE7C JUMP JUMPDEST POP DUP1 PUSH2 0xE7C JUMP JUMPDEST ADD MLOAD SWAP1 POP DUP4 DUP1 PUSH2 0xB5D JUMP JUMPDEST SWAP3 POP PUSH1 0xB DUP5 ADD PUSH1 0x0 MSTORE PUSH1 0x20 PUSH1 0x0 KECCAK256 SWAP1 PUSH1 0x0 SWAP4 JUMPDEST PUSH1 0x1F NOT DUP5 AND DUP6 LT PUSH2 0xF07 JUMPI PUSH1 0x1 SWAP5 POP DUP4 PUSH1 0x1F NOT DUP2 AND LT PUSH2 0xEEE JUMPI JUMPDEST POP POP POP DUP2 SHL ADD PUSH1 0xB DUP3 ADD SSTORE PUSH2 0xB75 JUMP JUMPDEST ADD MLOAD PUSH1 0x0 NOT PUSH1 0xF8 DUP5 PUSH1 0x3 SHL AND SHR NOT AND SWAP1 SSTORE DUP4 DUP1 DUP1 PUSH2 0xEDE JUMP JUMPDEST DUP2 DUP2 ADD MLOAD DUP4 SSTORE PUSH1 0x20 SWAP5 DUP6 ADD SWAP5 PUSH1 0x1 SWAP1 SWAP4 ADD SWAP3 SWAP1 SWAP2 ADD SWAP1 PUSH2 0xEC3 JUMP JUMPDEST SWAP1 SWAP2 POP PUSH1 0xB DUP5 ADD PUSH1 0x0 MSTORE PUSH1 0x20 PUSH1 0x0 KECCAK256 PUSH1 0x1F DUP5 ADD PUSH1 0x5 SHR DUP2 ADD PUSH1 0x20 DUP6 LT PUSH2 0xF6E JUMPI JUMPDEST SWAP1 DUP5 SWAP4 SWAP3 SWAP2 JUMPDEST PUSH1 0x1F DUP4 ADD PUSH1 0x5 SHR DUP3 ADD DUP2 LT PUSH2 0xF5F JUMPI POP POP PUSH2 0xB46 JUMP JUMPDEST PUSH1 0x0 DUP2 SSTORE DUP6 SWAP5 POP PUSH1 0x1 ADD PUSH2 0xF49 JUMP JUMPDEST POP DUP1 PUSH2 0xF43 JUMP JUMPDEST ADD MLOAD SWAP1 POP DUP4 DUP1 PUSH2 0xAFD JUMP JUMPDEST SWAP3 POP PUSH1 0xA DUP5 ADD PUSH1 0x0 MSTORE PUSH1 0x20 PUSH1 0x0 KECCAK256 SWAP1 PUSH1 0x0 SWAP4 JUMPDEST PUSH1 0x1F NOT DUP5 AND DUP6 LT PUSH2 0xFD7 JUMPI PUSH1 0x1 SWAP5 POP DUP4 PUSH1 0x1F NOT DUP2 AND LT PUSH2 0xFBE JUMPI JUMPDEST POP POP POP DUP2 SHL ADD PUSH1 0xA DUP3 ADD SSTORE PUSH2 0xB15 JUMP JUMPDEST ADD MLOAD PUSH1 0x0 NOT PUSH1 0xF8 DUP5 PUSH1 0x3 SHL AND SHR NOT AND SWAP1 SSTORE DUP4 DUP1 DUP1 PUSH2 0xFAE JUMP JUMPDEST DUP2 DUP2 ADD MLOAD DUP4 SSTORE PUSH1 0x20 SWAP5 DUP6 ADD SWAP5 PUSH1 0x1 SWAP1 SWAP4 ADD SWAP3 SWAP1 SWAP2 ADD SWAP1 PUSH2 0xF93 JUMP JUMPDEST SWAP1 SWAP2 POP PUSH1 0xA DUP5 ADD PUSH1 0x0 MSTORE PUSH1 0x20 PUSH1 0x0 KECCAK256 PUSH1 0x1F DUP5 ADD PUSH1 0x5 SHR DUP2 ADD PUSH1 0x20 DUP6 LT PUSH2 0x103E JUMPI JUMPDEST SWAP1 DUP5 SWAP4 SWAP3 SWAP2 JUMPDEST PUSH1 0x1F DUP4 ADD PUSH1 0x5 SHR DUP3 ADD DUP2 LT PUSH2 0x102F JUMPI POP POP PUSH2 0xAE6 JUMP JUMPDEST PUSH1 0x0 DUP2 SSTORE DUP6 SWAP5 POP PUSH1 0x1 ADD PUSH2 0x1019 JUMP JUMPDEST POP DUP1 PUSH2 0x1013 JUMP JUMPDEST ADD MLOAD SWAP1 POP DUP4 DUP1 PUSH2 0xA9D JUMP JUMPDEST SWAP3 POP PUSH1 0x9 DUP5 ADD PUSH1 0x0 MSTORE PUSH1 0x20 PUSH1 0x0 KECCAK256 SWAP1 PUSH1 0x0 SWAP4 JUMPDEST PUSH1 0x1F NOT DUP5 AND DUP6 LT PUSH2 0x10A7 JUMPI PUSH1 0x1 SWAP5 POP DUP4 PUSH1 0x1F NOT DUP2 AND LT PUSH2 0x108E JUMPI JUMPDEST POP POP POP DUP2 SHL ADD PUSH1 0x9 DUP3 ADD SSTORE PUSH2 0xAB5 JUMP JUMPDEST ADD MLOAD PUSH1 0x0 NOT PUSH1 0xF8 DUP5 PUSH1 0x3 SHL AND SHR NOT AND SWAP1 SSTORE DUP4 DUP1 DUP1 PUSH2 0x107E JUMP JUMPDEST DUP2 DUP2 ADD MLOAD DUP4 SSTORE PUSH1 0x20 SWAP5 DUP6 ADD SWAP5 PUSH1 0x1 SWAP1 SWAP4 ADD SWAP3 SWAP1 SWAP2 ADD SWAP1 PUSH2 0x1063 JUMP JUMPDEST SWAP1 SWAP2 POP PUSH1 0x9 DUP5 ADD PUSH1 0x0 MSTORE PUSH1 0x20 PUSH1 0x0 KECCAK256 PUSH1 0x1F DUP5 ADD PUSH1 0x5 SHR DUP2 ADD PUSH1 0x20 DUP6 LT PUSH2 0x110E JUMPI JUMPDEST SWAP1 DUP5 SWAP4 SWAP3 SWAP2 JUMPDEST PUSH1 0x1F DUP4 ADD PUSH1 0x5 SHR DUP3 ADD DUP2 LT PUSH2 0x10FF JUMPI POP POP PUSH2 0xA86 JUMP JUMPDEST PUSH1 0x0 DUP2 SSTORE DUP6 SWAP5 POP PUSH1 0x1 ADD PUSH2 0x10E9 JUMP JUMPDEST POP DUP1 PUSH2 0x10E3 JUMP JUMPDEST ADD MLOAD SWAP1 POP DUP4 DUP1 PUSH2 0xA3D JUMP JUMPDEST SWAP3 POP PUSH1 0x8 DUP5 ADD PUSH1 0x0 MSTORE PUSH1 0x20 PUSH1 0x0 KECCAK256 SWAP1 PUSH1 0x0 SWAP4 JUMPDEST PUSH1 0x1F NOT DUP5 AND DUP6 LT PUSH2 0x1177 JUMPI PUSH1 0x1 SWAP5 POP DUP4 PUSH1 0x1F NOT DUP2 AND LT PUSH2 0x115E JUMPI JUMPDEST POP POP POP DUP2 SHL ADD PUSH1 0x8 DUP3 ADD SSTORE PUSH2 0xA55 JUMP JUMPDEST ADD MLOAD PUSH1 0x0 NOT PUSH1 0xF8 DUP5 PUSH1 0x3 SHL AND SHR NOT AND SWAP1 SSTORE DUP4 DUP1 DUP1 PUSH2 0x114E JUMP JUMPDEST DUP2 DUP2 ADD MLOAD DUP4 SSTORE PUSH1 0x20 SWAP5 DUP6 ADD SWAP5 PUSH1 0x1 SWAP1 SWAP4 ADD SWAP3 SWAP1 SWAP2 ADD SWAP1 PUSH2 0x1133 JUMP JUMPDEST SWAP1 SWAP2 POP PUSH1 0x8 DUP5 ADD PUSH1 0x0 MSTORE PUSH1 0x20 PUSH1 0x0 KECCAK256 PUSH1 0x1F DUP5 ADD PUSH1 0x5 SHR DUP2 ADD PUSH1 0x20 DUP6 LT PUSH2 0x11DE JUMPI JUMPDEST SWAP1 DUP5 SWAP4 SWAP3 SWAP2 JUMPDEST PUSH1 0x1F DUP4 ADD PUSH1 0x5 SHR DUP3 ADD DUP2 LT PUSH2 0x11CF JUMPI POP POP PUSH2 0xA26 JUMP JUMPDEST PUSH1 0x0 DUP2 SSTORE DUP6 SWAP5 POP PUSH1 0x1 ADD PUSH2 0x11B9 JUMP JUMPDEST POP DUP1 PUSH2 0x11B3 JUMP JUMPDEST ADD MLOAD SWAP1 POP DUP4 DUP1 PUSH2 0x9DD JUMP JUMPDEST SWAP3 POP PUSH1 0x7 DUP5 ADD PUSH1 0x0 MSTORE PUSH1 0x20 PUSH1 0x0 KECCAK256 SWAP1 PUSH1 0x0 SWAP4 JUMPDEST PUSH1 0x1F NOT DUP5 AND DUP6 LT PUSH2 0x1247 JUMPI PUSH1 0x1 SWAP5 POP DUP4 PUSH1 0x1F NOT DUP2 AND LT PUSH2 0x122E JUMPI JUMPDEST POP POP POP DUP2 SHL ADD PUSH1 0x7 DUP3 ADD SSTORE PUSH2 0x9F5 JUMP JUMPDEST ADD MLOAD PUSH1 0x0 NOT PUSH1 0xF8 DUP5 PUSH1 0x3 SHL AND SHR NOT AND SWAP1 SSTORE DUP4 DUP1 DUP1 PUSH2 0x121E JUMP JUMPDEST DUP2 DUP2 ADD MLOAD DUP4 SSTORE PUSH1 0x20 SWAP5 DUP6 ADD SWAP5 PUSH1 0x1 SWAP1 SWAP4 ADD SWAP3 SWAP1 SWAP2 ADD SWAP1 PUSH2 0x1203 JUMP JUMPDEST SWAP1 SWAP2 POP PUSH1 0x7 DUP5 ADD PUSH1 0x0 MSTORE PUSH1 0x20 PUSH1 0x0 KECCAK256 PUSH1 0x1F DUP5 ADD PUSH1 0x5 SHR DUP2 ADD PUSH1 0x20 DUP6 LT PUSH2 0x12AE JUMPI JUMPDEST SWAP1 DUP5 SWAP4 SWAP3 SWAP2 JUMPDEST PUSH1 0x1F DUP4 ADD PUSH1 0x5 SHR DUP3 ADD DUP2 LT PUSH2 0x129F JUMPI POP POP PUSH2 0x9C6 JUMP JUMPDEST PUSH1 0x0 DUP2 SSTORE DUP6 SWAP5 POP PUSH1 0x1 ADD PUSH2 0x1289 JUMP JUMPDEST POP DUP1 PUSH2 0x1283 JUMP JUMPDEST ADD MLOAD SWAP1 POP DUP4 DUP1 PUSH2 0x97E JUMP JUMPDEST SWAP3 POP PUSH1 0x6 DUP5 ADD PUSH1 0x0 MSTORE PUSH1 0x20 PUSH1 0x0 KECCAK256 SWAP1 PUSH1 0x0 SWAP4 JUMPDEST PUSH1 0x1F NOT DUP5 AND DUP6 LT PUSH2 0x1317 JUMPI PUSH1 0x1 SWAP5 POP DUP4 PUSH1 0x1F NOT DUP2 AND LT PUSH2 0x12FE JUMPI JUMPDEST POP POP POP DUP2 SHL ADD PUSH1 0x6 DUP3 ADD SSTORE PUSH2 0x996 JUMP JUMPDEST ADD MLOAD PUSH1 0x0 NOT PUSH1 0xF8 DUP5 PUSH1 0x3 SHL AND SHR NOT AND SWAP1 SSTORE DUP4 DUP1 DUP1 PUSH2 0x12EE JUMP JUMPDEST DUP2 DUP2 ADD MLOAD DUP4 SSTORE PUSH1 0x20 SWAP5 DUP6 ADD SWAP5 PUSH1 0x1 SWAP1 SWAP4 ADD SWAP3 SWAP1 SWAP2 ADD SWAP1 PUSH2 0x12D3 JUMP JUMPDEST SWAP1 SWAP2 POP PUSH1 0x6 DUP5 ADD PUSH1 0x0 MSTORE PUSH1 0x20 PUSH1 0x0 KECCAK256 PUSH1 0x1F DUP5 ADD PUSH1 0x5 SHR DUP2 ADD PUSH1 0x20 DUP6 LT PUSH2 0x137E JUMPI JUMPDEST SWAP1 DUP5 SWAP4 SWAP3 SWAP2 JUMPDEST PUSH1 0x1F DUP4 ADD PUSH1 0x5 SHR DUP3 ADD DUP2 LT PUSH2 0x136F JUMPI POP POP PUSH2 0x967 JUMP JUMPDEST PUSH1 0x0 DUP2 SSTORE DUP6 SWAP5 POP PUSH1 0x1 ADD PUSH2 0x1359 JUMP JUMPDEST POP DUP1 PUSH2 0x1353 JUMP JUMPDEST ADD MLOAD SWAP1 POP DUP4 DUP1 PUSH2 0x91F JUMP JUMPDEST SWAP3 POP PUSH1 0x5 DUP5 ADD PUSH1 0x0 MSTORE PUSH1 0x20 PUSH1 0x0 KECCAK256 SWAP1 PUSH1 0x0 SWAP4 JUMPDEST PUSH1 0x1F NOT DUP5 AND DUP6 LT PUSH2 0x13E7 JUMPI PUSH1 0x1 SWAP5 POP DUP4 PUSH1 0x1F NOT DUP2 AND LT PUSH2 0x13CE JUMPI JUMPDEST POP POP POP DUP2 SHL ADD PUSH1 0x5 DUP3 ADD SSTORE PUSH2 0x937 JUMP JUMPDEST ADD MLOAD PUSH1 0x0 NOT PUSH1 0xF8 DUP5 PUSH1 0x3 SHL AND SHR NOT AND SWAP1 SSTORE DUP4 DUP1 DUP1 PUSH2 0x13BE JUMP JUMPDEST DUP2 DUP2 ADD MLOAD DUP4 SSTORE PUSH1 0x20 SWAP5 DUP6 ADD SWAP5 PUSH1 0x1 SWAP1 SWAP4 ADD SWAP3 SWAP1 SWAP2 ADD SWAP1 PUSH2 0x13A3 JUMP JUMPDEST SWAP1 SWAP2 POP PUSH1 0x5 DUP5 ADD PUSH1 0x0 MSTORE PUSH1 0x20 PUSH1 0x0 KECCAK256 PUSH1 0x1F DUP5 ADD PUSH1 0x5 SHR DUP2 ADD PUSH1 0x20 DUP6 LT PUSH2 0x144E JUMPI JUMPDEST SWAP1 DUP5 SWAP4 SWAP3 SWAP2 JUMPDEST PUSH1 0x1F DUP4 ADD PUSH1 0x5 SHR DUP3 ADD DUP2 LT PUSH2 0x143F JUMPI POP POP PUSH2 0x908 JUMP JUMPDEST PUSH1 0x0 DUP2 SSTORE DUP6 SWAP5 POP PUSH1 0x1 ADD PUSH2 0x1429 JUMP JUMPDEST POP DUP1 PUSH2 0x1423 JUMP JUMPDEST ADD MLOAD SWAP1 POP DUP4 DUP1 PUSH2 0x8C0 JUMP JUMPDEST SWAP3 POP PUSH1 0x4 DUP5 ADD PUSH1 0x0 MSTORE PUSH1 0x20 PUSH1 0x0 KECCAK256 SWAP1 PUSH1 0x0 SWAP4 JUMPDEST PUSH1 0x1F NOT DUP5 AND DUP6 LT PUSH2 0x14B7 JUMPI PUSH1 0x1 SWAP5 POP DUP4 PUSH1 0x1F NOT DUP2 AND LT PUSH2 0x149E JUMPI JUMPDEST POP POP POP DUP2 SHL ADD PUSH1 0x4 DUP3 ADD SSTORE PUSH2 0x8D8 JUMP JUMPDEST ADD MLOAD PUSH1 0x0 NOT PUSH1 0xF8 DUP5 PUSH1 0x3 SHL AND SHR NOT AND SWAP1 SSTORE DUP4 DUP1 DUP1 PUSH2 0x148E JUMP JUMPDEST DUP2 DUP2 ADD MLOAD DUP4 SSTORE PUSH1 0x20 SWAP5 DUP6 ADD SWAP5 PUSH1 0x1 SWAP1 SWAP4 ADD SWAP3 SWAP1 SWAP2 ADD SWAP1 PUSH2 0x1473 JUMP JUMPDEST SWAP1 SWAP2 POP PUSH1 0x4 DUP5 ADD PUSH1 0x0 MSTORE PUSH1 0x20 PUSH1 0x0 KECCAK256 PUSH1 0x1F DUP5 ADD PUSH1 0x5 SHR DUP2 ADD PUSH1 0x20 DUP6 LT PUSH2 0x151E JUMPI JUMPDEST SWAP1 DUP5 SWAP4 SWAP3 SWAP2 JUMPDEST PUSH1 0x1F DUP4 ADD PUSH1 0x5 SHR DUP3 ADD DUP2 LT PUSH2 0x150F JUMPI POP POP PUSH2 0x8A9 JUMP JUMPDEST PUSH1 0x0 DUP2 SSTORE DUP6 SWAP5 POP PUSH1 0x1 ADD PUSH2 0x14F9 JUMP JUMPDEST POP DUP1 PUSH2 0x14F3 JUMP JUMPDEST ADD MLOAD SWAP1 POP DUP4 DUP1 PUSH2 0x862 JUMP JUMPDEST SWAP3 POP PUSH1 0x3 DUP5 ADD PUSH1 0x0 MSTORE PUSH1 0x20 PUSH1 0x0 KECCAK256 SWAP1 PUSH1 0x0 SWAP4 JUMPDEST PUSH1 0x1F NOT DUP5 AND DUP6 LT PUSH2 0x1587 JUMPI PUSH1 0x1 SWAP5 POP DUP4 PUSH1 0x1F NOT DUP2 AND LT PUSH2 0x156E JUMPI JUMPDEST POP POP POP DUP2 SHL ADD PUSH1 0x3 DUP3 ADD SSTORE PUSH2 0x87A JUMP JUMPDEST ADD MLOAD PUSH1 0x0 NOT PUSH1 0xF8 DUP5 PUSH1 0x3 SHL AND SHR NOT AND SWAP1 SSTORE DUP4 DUP1 DUP1 PUSH2 0x155E JUMP JUMPDEST DUP2 DUP2 ADD MLOAD DUP4 SSTORE PUSH1 0x20 SWAP5 DUP6 ADD SWAP5 PUSH1 0x1 SWAP1 SWAP4 ADD SWAP3 SWAP1 SWAP2 ADD SWAP1 PUSH2 0x1543 JUMP JUMPDEST SWAP1 SWAP2 POP PUSH1 0x3 DUP5 ADD PUSH1 0x0 MSTORE PUSH1 0x20 PUSH1 0x0 KECCAK256 PUSH1 0x1F DUP5 ADD PUSH1 0x5 SHR DUP2 ADD PUSH1 0x20 DUP6 LT PUSH2 0x15EE JUMPI JUMPDEST SWAP1 DUP5 SWAP4 SWAP3 SWAP2 JUMPDEST PUSH1 0x1F DUP4 ADD PUSH1 0x5 SHR DUP3 ADD DUP2 LT PUSH2 0x15DF JUMPI POP POP PUSH2 0x84B JUMP JUMPDEST PUSH1 0x0 DUP2 SSTORE DUP6 SWAP5 POP PUSH1 0x1 ADD PUSH2 0x15C9 JUMP JUMPDEST POP DUP1 PUSH2 0x15C3 JUMP JUMPDEST ADD MLOAD SWAP1 POP DUP4 DUP1 PUSH2 0x803 JUMP JUMPDEST SWAP3 POP PUSH1 0x2 DUP5 ADD PUSH1 0x0 MSTORE PUSH1 0x20 PUSH1 0x0 KECCAK256 SWAP1 PUSH1 0x0 SWAP4 JUMPDEST PUSH1 0x1F NOT DUP5 AND DUP6 LT PUSH2 0x1657 JUMPI PUSH1 0x1 SWAP5 POP DUP4 PUSH1 0x1F NOT DUP2 AND LT PUSH2 0x163E JUMPI JUMPDEST POP POP POP DUP2 SHL ADD PUSH1 0x2 DUP3 ADD SSTORE PUSH2 0x81B JUMP JUMPDEST ADD MLOAD PUSH1 0x0 NOT PUSH1 0xF8 DUP5 PUSH1 0x3 SHL AND SHR NOT AND SWAP1 SSTORE DUP4 DUP1 DUP1 PUSH2 0x162E JUMP JUMPDEST DUP2 DUP2 ADD MLOAD DUP4 SSTORE PUSH1 0x20 SWAP5 DUP6 ADD SWAP5 PUSH1 0x1 SWAP1 SWAP4 ADD SWAP3 SWAP1 SWAP2 ADD SWAP1 PUSH2 0x1613 JUMP JUMPDEST SWAP1 SWAP2 POP PUSH1 0x2 DUP5 ADD PUSH1 0x0 MSTORE PUSH1 0x20 PUSH1 0x0 KECCAK256 PUSH1 0x1F DUP5 ADD PUSH1 0x5 SHR DUP2 ADD PUSH1 0x20 DUP6 LT PUSH2 0x16BE JUMPI JUMPDEST SWAP1 DUP5 SWAP4 SWAP3 SWAP2 JUMPDEST PUSH1 0x1F DUP4 ADD PUSH1 0x5 SHR DUP3 ADD DUP2 LT PUSH2 0x16AF JUMPI POP POP PUSH2 0x7EC JUMP JUMPDEST PUSH1 0x0 DUP2 SSTORE DUP6 SWAP5 POP PUSH1 0x1 ADD PUSH2 0x1699 JUMP JUMPDEST POP DUP1 PUSH2 0x1693 JUMP JUMPDEST ADD MLOAD SWAP1 POP DUP4 DUP1 PUSH2 0x7A4 JUMP JUMPDEST SWAP3 POP PUSH1 0x1 DUP5 ADD PUSH1 0x0 MSTORE PUSH1 0x20 PUSH1 0x0 KECCAK256 SWAP1 PUSH1 0x0 SWAP4 JUMPDEST PUSH1 0x1F NOT DUP5 AND DUP6 LT PUSH2 0x1727 JUMPI PUSH1 0x1 SWAP5 POP DUP4 PUSH1 0x1F NOT DUP2 AND LT PUSH2 0x170E JUMPI JUMPDEST POP POP POP DUP2 SHL ADD PUSH1 0x1 DUP3 ADD SSTORE PUSH2 0x7BC JUMP JUMPDEST ADD MLOAD PUSH1 0x0 NOT PUSH1 0xF8 DUP5 PUSH1 0x3 SHL AND SHR NOT AND SWAP1 SSTORE DUP4 DUP1 DUP1 PUSH2 0x16FE JUMP JUMPDEST DUP2 DUP2 ADD MLOAD DUP4 SSTORE PUSH1 0x20 SWAP5 DUP6 ADD SWAP5 PUSH1 0x1 SWAP1 SWAP4 ADD SWAP3 SWAP1 SWAP2 ADD SWAP1 PUSH2 0x16E3 JUMP JUMPDEST SWAP1 SWAP2 POP PUSH1 0x1 DUP5 ADD PUSH1 0x0 MSTORE PUSH1 0x20 PUSH1 0x0 KECCAK256 PUSH1 0x1F DUP5 ADD PUSH1 0x5 SHR DUP2 ADD PUSH1 0x20 DUP6 LT PUSH2 0x178E JUMPI JUMPDEST SWAP1 DUP5 SWAP4 SWAP3 SWAP2 JUMPDEST PUSH1 0x1F DUP4 ADD PUSH1 0x5 SHR DUP3 ADD DUP2 LT PUSH2 0x177F JUMPI POP POP PUSH2 0x78D JUMP JUMPDEST PUSH1 0x0 DUP2 SSTORE DUP6 SWAP5 POP PUSH1 0x1 ADD PUSH2 0x1769 JUMP JUMPDEST POP DUP1 PUSH2 0x1763 JUMP JUMPDEST ADD MLOAD SWAP1 POP DUP4 DUP1 PUSH2 0x748 JUMP JUMPDEST SWAP3 POP DUP4 PUSH1 0x0 MSTORE PUSH1 0x20 PUSH1 0x0 KECCAK256 SWAP1 PUSH1 0x0 SWAP4 JUMPDEST PUSH1 0x1F NOT DUP5 AND DUP6 LT PUSH2 0x17F1 JUMPI PUSH1 0x1 SWAP5 POP DUP4 PUSH1 0x1F NOT DUP2 AND LT PUSH2 0x17D8 JUMPI JUMPDEST POP POP POP DUP2 SHL ADD DUP2 SSTORE PUSH2 0x75D JUMP JUMPDEST ADD MLOAD PUSH1 0x0 NOT PUSH1 0xF8 DUP5 PUSH1 0x3 SHL AND SHR NOT AND SWAP1 SSTORE DUP4 DUP1 DUP1 PUSH2 0x17CB JUMP JUMPDEST DUP2 DUP2 ADD MLOAD DUP4 SSTORE PUSH1 0x20 SWAP5 DUP6 ADD SWAP5 PUSH1 0x1 SWAP1 SWAP4 ADD SWAP3 SWAP1 SWAP2 ADD SWAP1 PUSH2 0x17B0 JUMP JUMPDEST SWAP1 SWAP2 POP DUP4 PUSH1 0x0 MSTORE PUSH1 0x20 PUSH1 0x0 KECCAK256 PUSH1 0x1F DUP5 ADD PUSH1 0x5 SHR DUP2 ADD PUSH1 0x20 DUP6 LT PUSH2 0x1855 JUMPI JUMPDEST SWAP1 DUP5 SWAP4 SWAP3 SWAP2 JUMPDEST PUSH1 0x1F DUP4 ADD PUSH1 0x5 SHR DUP3 ADD DUP2 LT PUSH2 0x1846 JUMPI POP POP PUSH2 0x731 JUMP JUMPDEST PUSH1 0x0 DUP2 SSTORE DUP6 SWAP5 POP PUSH1 0x1 ADD PUSH2 0x1830 JUMP JUMPDEST POP DUP1 PUSH2 0x182A JUMP JUMPDEST PUSH1 0x40 MLOAD PUSH3 0x461BCD PUSH1 0xE5 SHL DUP2 MSTORE PUSH1 0x20 PUSH1 0x4 DUP3 ADD MSTORE PUSH1 0xB PUSH1 0x24 DUP3 ADD MSTORE PUSH11 0x139BDD081CDD195DD85C99 PUSH1 0xAA SHL PUSH1 0x44 DUP3 ADD MSTORE PUSH1 0x64 SWAP1 REVERT JUMPDEST CALLVALUE PUSH2 0xA4 JUMPI PUSH1 0x0 CALLDATASIZE PUSH1 0x3 NOT ADD SLT PUSH2 0xA4 JUMPI PUSH1 0x0 SLOAD PUSH1 0x40 MLOAD PUSH1 0x1 PUSH1 0x1 PUSH1 0xA0 SHL SUB SWAP1 SWAP2 AND DUP2 MSTORE PUSH1 0x20 SWAP1 RETURN JUMPDEST CALLVALUE PUSH2 0xA4 JUMPI PUSH1 0x20 CALLDATASIZE PUSH1 0x3 NOT ADD SLT PUSH2 0xA4 JUMPI PUSH1 0x1 PUSH1 0x1 PUSH1 0xA0 SHL SUB PUSH2 0x18D9 PUSH2 0x1A8C JUMP JUMPDEST AND PUSH1 0x0 MSTORE PUSH1 0x1 PUSH1 0x20 MSTORE PUSH1 0x40 PUSH1 0x0 KECCAK256 PUSH2 0x18F0 DUP2 PUSH2 0x1B19 JUMP JUMPDEST PUSH2 0x18FC PUSH1 0x1 DUP4 ADD PUSH2 0x1B19 JUMP JUMPDEST SWAP2 PUSH2 0x1909 PUSH1 0x2 DUP3 ADD PUSH2 0x1B19 JUMP JUMPDEST SWAP1 PUSH2 0x1916 PUSH1 0x3 DUP3 ADD PUSH2 0x1B19 JUMP JUMPDEST PUSH2 0x1922 PUSH1 0x4 DUP4 ADD PUSH2 0x1B19 JUMP JUMPDEST PUSH2 0x192E PUSH1 0x5 DUP5 ADD PUSH2 0x1B19 JUMP JUMPDEST PUSH2 0x193A PUSH1 0x6 DUP6 ADD PUSH2 0x1B19 JUMP JUMPDEST PUSH2 0x1946 PUSH1 0x7 DUP7 ADD PUSH2 0x1B19 JUMP JUMPDEST SWAP1 PUSH2 0x1953 PUSH1 0x8 DUP8 ADD PUSH2 0x1B19 JUMP JUMPDEST SWAP3 PUSH2 0x1960 PUSH1 0x9 DUP9 ADD PUSH2 0x1B19 JUMP JUMPDEST SWAP5 PUSH2 0x196D PUSH1 0xA DUP10 ADD PUSH2 0x1B19 JUMP JUMPDEST SWAP7 PUSH2 0x197A PUSH1 0xB DUP11 ADD PUSH2 0x1B19 JUMP JUMPDEST SWAP9 PUSH1 0xC ADD PUSH2 0x1987 SWAP1 PUSH2 0x1B19 JUMP JUMPDEST SWAP10 PUSH1 0x40 MLOAD SWAP13 DUP14 SWAP13 DUP14 PUSH2 0x1A0 SWAP1 DUP2 DUP2 MSTORE ADD PUSH2 0x19A0 SWAP2 PUSH2 0x1BBF JUMP JUMPDEST DUP14 DUP2 SUB PUSH1 0x20 DUP16 ADD MSTORE PUSH2 0x19B1 SWAP2 PUSH2 0x1BBF JUMP JUMPDEST DUP13 DUP2 SUB PUSH1 0x40 DUP15 ADD MSTORE PUSH2 0x19C2 SWAP2 PUSH2 0x1BBF JUMP JUMPDEST DUP12 DUP2 SUB PUSH1 0x60 DUP14 ADD MSTORE PUSH2 0x19D3 SWAP2 PUSH2 0x1BBF JUMP JUMPDEST DUP11 DUP2 SUB PUSH1 0x80 DUP13 ADD MSTORE PUSH2 0x19E4 SWAP2 PUSH2 0x1BBF JUMP JUMPDEST DUP10 DUP2 SUB PUSH1 0xA0 DUP12 ADD MSTORE PUSH2 0x19F5 SWAP2 PUSH2 0x1BBF JUMP JUMPDEST DUP9 DUP2 SUB PUSH1 0xC0 DUP11 ADD MSTORE PUSH2 0x1A06 SWAP2 PUSH2 0x1BBF JUMP JUMPDEST DUP8 DUP2 SUB PUSH1 0xE0 DUP10 ADD MSTORE PUSH2 0x1A17 SWAP2 PUSH2 0x1BBF JUMP JUMPDEST DUP7 DUP2 SUB PUSH2 0x100 DUP9 ADD MSTORE PUSH2 0x1A29 SWAP2 PUSH2 0x1BBF JUMP JUMPDEST DUP6 DUP2 SUB PUSH2 0x120 DUP8 ADD MSTORE PUSH2 0x1A3B SWAP2 PUSH2 0x1BBF JUMP JUMPDEST DUP5 DUP2 SUB PUSH2 0x140 DUP7 ADD MSTORE PUSH2 0x1A4D SWAP2 PUSH2 0x1BBF JUMP JUMPDEST DUP4 DUP2 SUB PUSH2 0x160 DUP6 ADD MSTORE PUSH2 0x1A5F SWAP2 PUSH2 0x1BBF JUMP JUMPDEST DUP3 DUP2 SUB PUSH2 0x180 DUP5 ADD MSTORE PUSH2 0x375 SWAP2 PUSH2 0x1BBF JUMP JUMPDEST CALLVALUE PUSH2 0xA4 JUMPI PUSH1 0x0 CALLDATASIZE PUSH1 0x3 NOT ADD SLT PUSH2 0xA4 JUMPI PUSH1 0x20 SWAP1 PUSH1 0x2 SLOAD DUP2 MSTORE RETURN JUMPDEST PUSH1 0x4 CALLDATALOAD SWAP1 PUSH1 0x1 PUSH1 0x1 PUSH1 0xA0 SHL SUB DUP3 AND DUP3 SUB PUSH2 0xA4 JUMPI JUMP JUMPDEST SWAP1 PUSH1 0x1 DUP3 DUP2 SHR SWAP3 AND DUP1 ISZERO PUSH2 0x1AD2 JUMPI JUMPDEST PUSH1 0x20 DUP4 LT EQ PUSH2 0x1ABC JUMPI JUMP JUMPDEST PUSH4 0x4E487B71 PUSH1 0xE0 SHL PUSH1 0x0 MSTORE PUSH1 0x22 PUSH1 0x4 MSTORE PUSH1 0x24 PUSH1 0x0 REVERT JUMPDEST SWAP2 PUSH1 0x7F AND SWAP2 PUSH2 0x1AB1 JUMP JUMPDEST PUSH2 0x1A0 DUP2 ADD SWAP1 DUP2 LT PUSH1 0x1 PUSH1 0x1 PUSH1 0x40 SHL SUB DUP3 GT OR PUSH2 0xDCF JUMPI PUSH1 0x40 MSTORE JUMP JUMPDEST SWAP1 PUSH1 0x1F DUP1 NOT SWAP2 ADD AND DUP2 ADD SWAP1 DUP2 LT PUSH1 0x1 PUSH1 0x1 PUSH1 0x40 SHL SUB DUP3 GT OR PUSH2 0xDCF JUMPI PUSH1 0x40 MSTORE JUMP JUMPDEST SWAP1 PUSH1 0x40 MLOAD SWAP2 DUP3 PUSH1 0x0 DUP3 SLOAD SWAP3 PUSH2 0x1B2D DUP5 PUSH2 0x1AA2 JUMP JUMPDEST SWAP1 DUP2 DUP5 MSTORE PUSH1 0x1 SWAP5 DUP6 DUP2 AND SWAP1 DUP2 PUSH1 0x0 EQ PUSH2 0x1B9C JUMPI POP PUSH1 0x1 EQ PUSH2 0x1B59 JUMPI JUMPDEST POP POP PUSH2 0x1B57 SWAP3 POP SUB DUP4 PUSH2 0x1AF8 JUMP JUMPDEST JUMP JUMPDEST SWAP1 SWAP4 SWAP2 POP PUSH1 0x0 MSTORE PUSH1 0x20 SWAP1 DUP2 PUSH1 0x0 KECCAK256 SWAP4 PUSH1 0x0 SWAP2 JUMPDEST DUP2 DUP4 LT PUSH2 0x1B84 JUMPI POP POP PUSH2 0x1B57 SWAP4 POP DUP3 ADD ADD CODESIZE DUP1 PUSH2 0x1B49 JUMP JUMPDEST DUP6 SLOAD DUP9 DUP5 ADD DUP6 ADD MSTORE SWAP5 DUP6 ADD SWAP5 DUP8 SWAP5 POP SWAP2 DUP4 ADD SWAP2 PUSH2 0x1B6C JUMP JUMPDEST SWAP2 POP POP PUSH2 0x1B57 SWAP5 POP PUSH1 0x20 SWAP3 POP PUSH1 0xFF NOT AND DUP3 DUP5 ADD MSTORE ISZERO ISZERO PUSH1 0x5 SHL DUP3 ADD ADD CODESIZE DUP1 PUSH2 0x1B49 JUMP JUMPDEST SWAP2 SWAP1 DUP3 MLOAD SWAP3 DUP4 DUP3 MSTORE PUSH1 0x0 JUMPDEST DUP5 DUP2 LT PUSH2 0x1BEB JUMPI POP POP DUP3 PUSH1 0x0 PUSH1 0x20 DUP1 SWAP5 SWAP6 DUP5 ADD ADD MSTORE PUSH1 0x1F DUP1 NOT SWAP2 ADD AND ADD ADD SWAP1 JUMP JUMPDEST PUSH1 0x20 DUP2 DUP4 ADD DUP2 ADD MLOAD DUP5 DUP4 ADD DUP3 ADD MSTORE ADD PUSH2 0x1BCA JUMP JUMPDEST SWAP2 DUP2 PUSH1 0x1F DUP5 ADD SLT ISZERO PUSH2 0xA4 JUMPI DUP3 CALLDATALOAD SWAP2 PUSH1 0x1 PUSH1 0x1 PUSH1 0x40 SHL SUB DUP4 GT PUSH2 0xA4 JUMPI PUSH1 0x20 DUP4 DUP2 DUP7 ADD SWAP6 ADD ADD GT PUSH2 0xA4 JUMPI JUMP JUMPDEST PUSH1 0x2 SLOAD DUP2 LT ISZERO PUSH2 0x1C63 JUMPI PUSH1 0x2 PUSH1 0x0 MSTORE PUSH32 0x405787FA12A823E0F2B7631CC41B3BA8828B3321CA811111FA75CD3AA3BB5ACE ADD SWAP1 PUSH1 0x0 SWAP1 JUMP JUMPDEST PUSH4 0x4E487B71 PUSH1 0xE0 SHL PUSH1 0x0 MSTORE PUSH1 0x32 PUSH1 0x4 MSTORE PUSH1 0x24 PUSH1 0x0 REVERT JUMPDEST SWAP3 SWAP2 SWAP3 PUSH1 0x1 PUSH1 0x1 PUSH1 0x40 SHL SUB DUP3 GT PUSH2 0xDCF JUMPI PUSH1 0x40 MLOAD SWAP2 PUSH2 0x1CA2 PUSH1 0x1F DUP3 ADD PUSH1 0x1F NOT AND PUSH1 0x20 ADD DUP5 PUSH2 0x1AF8 JUMP JUMPDEST DUP3 SWAP5 DUP2 DUP5 MSTORE DUP2 DUP4 ADD GT PUSH2 0xA4 JUMPI DUP3 DUP2 PUSH1 0x20 SWAP4 DUP5 PUSH1 0x0 SWAP7 ADD CALLDATACOPY ADD ADD MSTORE JUMP JUMPDEST SWAP1 DUP1 PUSH1 0x20 SWAP4 SWAP3 DUP2 DUP5 MSTORE DUP5 DUP5 ADD CALLDATACOPY PUSH1 0x0 DUP3 DUP3 ADD DUP5 ADD MSTORE PUSH1 0x1F ADD PUSH1 0x1F NOT AND ADD ADD SWAP1 JUMP INVALID LOG2 PUSH5 0x6970667358 0x22 SLT KECCAK256 0xB1 0xD2 0xA7 PUSH26 0xF8CF9F7519AC588895DDC37D9661674BC2754659B32CD39A8322 CALL DUP2 PUSH5 0x736F6C6343 STOP ADDMOD EQ STOP CALLER "},"methodIdentifiers":{"apprentices(uint256)":"f31bee3e","getSummons(address)":"cf84c603","steward()":"637eea19","summonApprentice(address,string,string,string,string,string,string,string,string,string,string,string,string,string)":"ba238d6a","summons(address)":"5a2ed662","totalSummons()":"2a17d4cd"}}}}}