{"contracts/codex/SpiralboundCodexXVII.sol":{"SpiralboundCodexXVII":{"abi":[{"inputs":[],"stateMutability":"nonpayable","type":"constructor"},{"anonymous":false,"inputs":[{"indexed":false,"internalType":"string","name":"glyph","type":"string"},{"indexed":false,"internalType":"string","name":"tag","type":"string"},{"indexed":false,"internalType":"string","name":"binding","type":"string"},{"indexed":false,"internalType":"string","name":"annotation","type":"string"},{"indexed":false,"internalType":"string","name":"lineage","type":"string"},{"indexed":false,"internalType":"string","name":"resonance","type":"string"},{"indexed":false,"internalType":"string","name":"protocol","type":"string"},{"indexed":false,"internalType":"string","name":"sanctum","type":"string"},{"indexed":false,"internalType":"string","name":"pulse","type":"string"},{"indexed":false,"internalType":"string","name":"chant","type":"string"},{"indexed":false,"internalType":"string","name":"choreography","type":"string"},{"indexed":false,"internalType":"string","name":"drift","type":"string"},{"indexed":false,"internalType":"string","name":"signature","type":"string"},{"indexed":false,"internalType":"string","name":"signal","type":"string"},{"indexed":false,"internalType":"string","name":"companion","type":"string"},{"indexed":false,"internalType":"string","name":"stewardName","type":"string"},{"indexed":false,"internalType":"string","name":"registry","type":"string"},{"indexed":false,"internalType":"string","name":"echo","type":"string"}],"name":"CodexInscribed","type":"event"},{"inputs":[{"internalType":"string","name":"","type":"string"}],"name":"codices","outputs":[{"internalType":"string","name":"tag","type":"string"},{"internalType":"string","name":"binding","type":"string"},{"internalType":"string","name":"annotation","type":"string"},{"internalType":"string","name":"lineage","type":"string"},{"internalType":"string","name":"resonance","type":"string"},{"internalType":"string","name":"protocol","type":"string"},{"internalType":"string","name":"sanctum","type":"string"},{"internalType":"string","name":"pulse","type":"string"},{"internalType":"string","name":"chant","type":"string"},{"internalType":"string","name":"choreography","type":"string"},{"internalType":"string","name":"drift","type":"string"},{"internalType":"string","name":"signature","type":"string"},{"internalType":"string","name":"signal","type":"string"},{"internalType":"string","name":"companion","type":"string"},{"internalType":"string","name":"stewardName","type":"string"},{"internalType":"string","name":"registry","type":"string"},{"internalType":"string","name":"echo","type":"string"}],"stateMutability":"view","type":"function"},{"inputs":[{"internalType":"string","name":"glyph","type":"string"}],"name":"getCodex","outputs":[{"components":[{"internalType":"string","name":"tag","type":"string"},{"internalType":"string","name":"binding","type":"string"},{"internalType":"string","name":"annotation","type":"string"},{"internalType":"string","name":"lineage","type":"string"},{"internalType":"string","name":"resonance","type":"string"},{"internalType":"string","name":"protocol","type":"string"},{"internalType":"string","name":"sanctum","type":"string"},{"internalType":"string","name":"pulse","type":"string"},{"internalType":"string","name":"chant","type":"string"},{"internalType":"string","name":"choreography","type":"string"},{"internalType":"string","name":"drift","type":"string"},{"internalType":"string","name":"signature","type":"string"},{"internalType":"string","name":"signal","type":"string"},{"internalType":"string","name":"companion","type":"string"},{"internalType":"string","name":"stewardName","type":"string"},{"internalType":"string","name":"registry","type":"string"},{"internalType":"string","name":"echo","type":"string"}],"internalType":"struct SpiralboundCodexXVII.Codex","name":"","type":"tuple"}],"stateMutability":"view","type":"function"},{"inputs":[{"internalType":"string","name":"glyph","type":"string"},{"internalType":"string","name":"tag","type":"string"},{"internalType":"string","name":"binding","type":"string"},{"internalType":"string","name":"annotation","type":"string"},{"internalType":"string","name":"lineage","type":"string"},{"internalType":"string","name":"resonance","type":"string"},{"internalType":"string","name":"protocol","type":"string"},{"internalType":"string","name":"sanctum","type":"string"},{"internalType":"string","name":"pulse","type":"string"},{"internalType":"string","name":"chant","type":"string"},{"internalType":"string","name":"choreography","type":"string"},{"internalType":"string","name":"drift","type":"string"},{"internalType":"string","name":"signature","type":"string"},{"internalType":"string","name":"signal","type":"string"},{"internalType":"string","name":"companion","type":"string"},{"internalType":"string","name":"stewardName","type":"string"},{"internalType":"string","name":"registry","type":"string"},{"internalType":"string","name":"echo","type":"string"}],"name":"inscribeCodex","outputs":[],"stateMutability":"nonpayable","type":"function"},{"inputs":[{"internalType":"uint256","name":"","type":"uint256"}],"name":"keys","outputs":[{"internalType":"string","name":"","type":"string"}],"stateMutability":"view","type":"function"},{"inputs":[],"name":"steward","outputs":[{"internalType":"address","name":"","type":"address"}],"stateMutability":"view","type":"function"},{"inputs":[],"name":"totalCodices","outputs":[{"internalType":"uint256","name":"","type":"uint256"}],"stateMutability":"view","type":"function"}],"evm":{"bytecode":{"linkReferences":{},"object":"6080806040523461002857600080546001600160a01b03191633179055612160908161002e8239f35b600080fdfe6105c0604052600436101561001357600080fd5b60003560e01c80630cb6aaf114611e4557806335e2d84014610735578063637eea191461070c5780638336152214610354578063c212d16b146103365763dbc214241461005f57600080fd5b34610331576020366003190112610331576004356001600160401b03811161033157366023820112156103315736816004013591602401916100a09261206f565b60405181818093516020819301916100b792611ffa565b810160018152036020019020806100cd81611f54565b6100d960018301611f54565b610480526100e960028301611f54565b6104a0526100f960038301611f54565b61010560048401611f54565b61011160058501611f54565b61011d60068601611f54565b61012960078701611f54565b61013560088801611f54565b9061014260098901611f54565b9261014f600a8a01611f54565b9461015c600b8b01611f54565b96610169600c8c01611f54565b98610176600d8d01611f54565b9a610183600e8e01611f54565b9c600f0161019090611f54565b9d60100161019d90611f54565b61018052604051806104c0526102208091526104c051016101bd9161201d565b6104c051808203906020015261048051906101d79161201d565b6104c05180820390604001526104a051906101f19161201d565b6104c05180820390606001526102069161201d565b6104c051808203906080015261021b9161201d565b6104c0518082039060a001526102309161201d565b6104c0518082039060c001526102459161201d565b6104c0518082039060e0015261025a9161201d565b6104c0518082039061010001526102709161201d565b6104c0518082039061012001526102869161201d565b6104c05180820390610140015261029c9161201d565b6104c0518082039061016001526102b29161201d565b6104c0518082039061018001526102c89161201d565b6104c051808203906101a001526102de9161201d565b6104c051808203906101c001526102f49161201d565b6104c051808203906101e0015261030a9161201d565b6104c0518082039061020001526104c05190610180519061032a9161201d565b036104c051f35b600080fd5b34610331576000366003190112610331576020600254604051908152f35b34610331576020366003190112610331576004356001600160401b03811161033157602061038961061c923690600401612042565b9190606061020060405161039c81611f17565b828152828582015282604082015282808201528260808201528260a08201528260c08201528260e08201528261010082015282610120820152826101408201528261016082015282610180820152826101a0820152826101c0820152826101e082015201528260405193849283378101600181520301902061053e60106040519261042684611f17565b61042f81611f54565b845261043d60018201611f54565b602085015261044e60028201611f54565b604085015261045f60038201611f54565b606085015261047060048201611f54565b608085015261048160058201611f54565b60a085015261049260068201611f54565b60c08501526104a360078201611f54565b60e08501526104b460088201611f54565b6101008501526104c660098201611f54565b6101208501526104d8600a8201611f54565b6101408501526104ea600b8201611f54565b6101608501526104fc600c8201611f54565b61018085015261050e600d8201611f54565b6101a0850152610520600e8201611f54565b6101c0850152610532600f8201611f54565b6101e085015201611f54565b610200820152610708816102006106f36106dd6106c56106ad61069561067d61066561064d6106356040519d8e9d8e6020815260c06106076105f26105dc6105c66105b061059a885161022060208a015261024089019061201d565b6020890151888203601f190160408a015261201d565b6040880151878203601f1901606089015261201d565b6060870151868203601f1901608088015261201d565b6080860151858203601f190160a087015261201d565b60a0850151848203601f19018486015261201d565b9201519060e0601f198285030191015261201d565b8d60e08d015190610100601f198285030191015261201d565b6101008b01518d8203601f19016101208f015261201d565b6101208a01518c8203601f19016101408e015261201d565b6101408901518b8203601f19016101608d015261201d565b6101608801518a8203601f19016101808c015261201d565b610180870151898203601f19016101a08b015261201d565b6101a0860151888203601f19016101c08a015261201d565b6101c0850151878203601f19016101e089015261201d565b6101e0840151868203601f19018488015261201d565b910151838203601f190161022085015261201d565b0390f35b34610331576000366003190112610331576000546040516001600160a01b039091168152602090f35b3461033157610240366003190112610331576004356001600160401b03811161033157610766903690600401612042565b608052610460526024356001600160401b0381116103315761078c903690600401612042565b610520526104e0526044356001600160401b038111610331576107b3903690600401612042565b610120526102a0526064356001600160401b038111610331576107da903690600401612042565b61030052610540526084356001600160401b03811161033157610801903690600401612042565b6105a052610400526001600160401b0360a43511610331576108283660a435600401612042565b61024052610200526001600160401b0360c435116103315761084f3660c435600401612042565b6101c052610100526001600160401b0360e43511610331576108763660e435600401612042565b61032052610260526001600160401b0361010435116103315761089f3661010435600401612042565b61034052610160526001600160401b036101243511610331576108c83661012435600401612042565b61042052610220526001600160401b036101443511610331576108f13661014435600401612042565b6103e0526103a0526001600160401b0361016435116103315761091a3661016435600401612042565b610280526101e0526001600160401b036101843511610331576109433661018435600401612042565b6103805260e0526001600160401b036101a435116103315761096b366101a435600401612042565b6101a052610360526001600160401b036101c4351161033157610994366101c435600401612042565b61058052610500526001600160401b036101e43511610331576109bd366101e435600401612042565b6102c05260c0526001600160401b036102043511610331576109e53661020435600401612042565b6102e052610140526001600160401b03610224351161033157610a0e3661022435600401612042565b610560526103c0526000546001600160a01b03163303611e1257610a376040518060a052611f17565b610a4836610520516104e05161206f565b60a05152610a5d36610120516102a05161206f565b602060a0510152610a7536610300516105405161206f565b604060a0510152610a8d366105a0516104005161206f565b606060a0510152610aa536610240516102005161206f565b608060a0510152610abd366101c0516101005161206f565b60a080510152610ad436610320516102605161206f565b60c060a0510152610aec36610340516101605161206f565b60e060a0510152610b0436610420516102205161206f565b61010060a0510152610b1d366103e0516103a05161206f565b61012060a0510152610b3636610280516101e05161206f565b61014060a0510152610b4e366103805160e05161206f565b61016060a0510152610b67366101a0516103605161206f565b61018060a0510152610b8036610580516105005161206f565b6101a060a0510152610b98366102c05160c05161206f565b6101c060a0510152610bb1366102e0516101405161206f565b6101e060a0510152610bca36610560516103c05161206f565b61020060a0510152604051608051610460518237600160805182015260208160805181010301902060a051518051906001600160401b0382116115a1578190610c1d82610c178654611edd565b866120b5565b602090601f8311600114611da657600092611d9b575b50508160011b916000199060031b1c19161781555b602060a05101518051906001600160401b0382116115a1578190610c7c82610c736001870154611edd565b600187016120b5565b602090601f8311600114611d2957600092611d1e575b50508160011b916000199060031b1c19161760018201555b604060a05101518051906001600160401b0382116115a1578190610cde82610cd56002870154611edd565b600287016120b5565b602090601f8311600114611cac57600092611ca1575b50508160011b916000199060031b1c19161760028201555b606060a05101518051906001600160401b0382116115a1578190610d4082610d376003870154611edd565b600387016120b5565b602090601f8311600114611c2f57600092611c24575b50508160011b916000199060031b1c19161760038201555b608060a05101518051906001600160401b0382116115a1578190610da282610d996004870154611edd565b600487016120b5565b602090601f8311600114611bb257600092611ba7575b50508160011b916000199060031b1c19161760048201555b60a0805101518051906001600160401b0382116115a1578190610e0382610dfa6005870154611edd565b600587016120b5565b602090601f8311600114611b3557600092611b2a575b50508160011b916000199060031b1c19161760058201555b60c060a05101518051906001600160401b0382116115a1578190610e6582610e5c6006870154611edd565b600687016120b5565b602090601f8311600114611ab857600092611aad575b50508160011b916000199060031b1c19161760068201555b60e060a05101518051906001600160401b0382116115a1578190610ec782610ebe6007870154611edd565b600787016120b5565b602090601f8311600114611a3b57600092611a30575b50508160011b916000199060031b1c19161760078201555b61010060a05101518051906001600160401b0382116115a1578190610f2a82610f216008870154611edd565b600887016120b5565b602090601f83116001146119be576000926119b3575b50508160011b916000199060031b1c19161760088201555b61012060a05101518051906001600160401b0382116115a1578190610f8d82610f846009870154611edd565b600987016120b5565b602090601f831160011461194157600092611936575b50508160011b916000199060031b1c19161760098201555b61014060a05101518051906001600160401b0382116115a1578190610ff082610fe7600a870154611edd565b600a87016120b5565b602090601f83116001146118c4576000926118b9575b50508160011b916000199060031b1c191617600a8201555b61016060a05101518051906001600160401b0382116115a15781906110538261104a600b870154611edd565b600b87016120b5565b602090601f83116001146118475760009261183c575b50508160011b916000199060031b1c191617600b8201555b61018060a05101518051906001600160401b0382116115a15781906110b6826110ad600c870154611edd565b600c87016120b5565b602090601f83116001146117ca576000926117bf575b50508160011b916000199060031b1c191617600c8201555b6101a060a05101518051906001600160401b0382116115a157819061111982611110600d870154611edd565b600d87016120b5565b602090601f831160011461174d57600092611742575b50508160011b916000199060031b1c191617600d8201555b6101c060a05101518051906001600160401b0382116115a157819061117c82611173600e870154611edd565b600e87016120b5565b602090601f83116001146116d0576000926116c5575b50508160011b916000199060031b1c191617600e8201555b6101e060a05101518051906001600160401b0382116115a15781906111df826111d6600f870154611edd565b600f87016120b5565b602090601f831160011461165357600092611648575b50508160011b916000199060031b1c191617600f8201555b61020060a05101518051906001600160401b0382116115a157611240826112376010860154611edd565b601086016120b5565b602090601f83116001146115d85760109291600091836115cd575b50508160011b916000199060031b1c1916179101555b600254680100000000000000008110156115a1578060016112959201600255611e90565b6115b7576080516001600160401b0381116115a1576112be906112b88354611edd565b836120b5565b600090608051601f811160011461153457509060006080519182611526575b508160011b916000199060031b1c19161790555b6102406040518061044052527fa2616e193b3cdc6e2596d1b0aece7882d9162126efd0456b354e131228eab71f6114fc6114e26114c96114af61149561147c61146261144861142e6114146113fb6113e26113c96113b061139761137e611365610240610440510160805161046051612109565b610440516020818303910152610520516104e051612109565b610440516040818303910152610120516102a051612109565b6104405160608183039101526103005161054051612109565b6104405160808183039101526105a05161040051612109565b6104405160a08183039101526102405161020051612109565b6104405160c08183039101526101c05161010051612109565b6104405160e08183039101526103205161026051612109565b610440516101008183039101526103405161016051612109565b610440516101208183039101526104205161022051612109565b610440516101408183039101526103e0516103a051612109565b61044051610160818303910152610280516101e051612109565b610440516101808183039101526103805160e051612109565b610440516101a08183039101526101a05161036051612109565b610440516101c08183039101526105805161050051612109565b610440516101e08183039101526102c05160c051612109565b610440516102008183039101526102e05161014051612109565b6104405161022081830391015261151e6104405191610560516103c051612109565b0361044051a1005b9050610460510135836112dd565b81600052602060002060009361046051905b601f198416861061158957600194955083601f1981161061156f575b505050811b0190556112f1565b0135600019600384901b60f8161c19169055838080611562565b91602060018192858501358155019301950194611546565b634e487b7160e01b600052604160045260246000fd5b634e487b7160e01b600052600060045260246000fd5b01519050848061125b565b906010840160005260206000209160005b601f19851681106116305750918391600193601095601f19811610611617575b505050811b01910155611271565b015160001960f88460031b161c19169055848080611609565b919260206001819286850151815501940192016115e9565b0151905083806111f5565b9250600f84016000526020600020906000935b601f19841685106116aa576001945083601f19811610611691575b505050811b01600f82015561120d565b015160001960f88460031b161c19169055838080611681565b81810151835560209485019460019093019290910190611666565b015190508380611192565b9250600e84016000526020600020906000935b601f1984168510611727576001945083601f1981161061170e575b505050811b01600e8201556111aa565b015160001960f88460031b161c191690558380806116fe565b818101518355602094850194600190930192909101906116e3565b01519050838061112f565b9250600d84016000526020600020906000935b601f19841685106117a4576001945083601f1981161061178b575b505050811b01600d820155611147565b015160001960f88460031b161c1916905583808061177b565b81810151835560209485019460019093019290910190611760565b0151905083806110cc565b9250600c84016000526020600020906000935b601f1984168510611821576001945083601f19811610611808575b505050811b01600c8201556110e4565b015160001960f88460031b161c191690558380806117f8565b818101518355602094850194600190930192909101906117dd565b015190508380611069565b9250600b84016000526020600020906000935b601f198416851061189e576001945083601f19811610611885575b505050811b01600b820155611081565b015160001960f88460031b161c19169055838080611875565b8181015183556020948501946001909301929091019061185a565b015190508380611006565b9250600a84016000526020600020906000935b601f198416851061191b576001945083601f19811610611902575b505050811b01600a82015561101e565b015160001960f88460031b161c191690558380806118f2565b818101518355602094850194600190930192909101906118d7565b015190508380610fa3565b9250600984016000526020600020906000935b601f1984168510611998576001945083601f1981161061197f575b505050811b016009820155610fbb565b015160001960f88460031b161c1916905583808061196f565b81810151835560209485019460019093019290910190611954565b015190508380610f40565b9250600884016000526020600020906000935b601f1984168510611a15576001945083601f198116106119fc575b505050811b016008820155610f58565b015160001960f88460031b161c191690558380806119ec565b818101518355602094850194600190930192909101906119d1565b015190508380610edd565b9250600784016000526020600020906000935b601f1984168510611a92576001945083601f19811610611a79575b505050811b016007820155610ef5565b015160001960f88460031b161c19169055838080611a69565b81810151835560209485019460019093019290910190611a4e565b015190508380610e7b565b9250600684016000526020600020906000935b601f1984168510611b0f576001945083601f19811610611af6575b505050811b016006820155610e93565b015160001960f88460031b161c19169055838080611ae6565b81810151835560209485019460019093019290910190611acb565b015190508380610e19565b9250600584016000526020600020906000935b601f1984168510611b8c576001945083601f19811610611b73575b505050811b016005820155610e31565b015160001960f88460031b161c19169055838080611b63565b81810151835560209485019460019093019290910190611b48565b015190508380610db8565b9250600484016000526020600020906000935b601f1984168510611c09576001945083601f19811610611bf0575b505050811b016004820155610dd0565b015160001960f88460031b161c19169055838080611be0565b81810151835560209485019460019093019290910190611bc5565b015190508380610d56565b9250600384016000526020600020906000935b601f1984168510611c86576001945083601f19811610611c6d575b505050811b016003820155610d6e565b015160001960f88460031b161c19169055838080611c5d565b81810151835560209485019460019093019290910190611c42565b015190508380610cf4565b9250600284016000526020600020906000935b601f1984168510611d03576001945083601f19811610611cea575b505050811b016002820155610d0c565b015160001960f88460031b161c19169055838080611cda565b81810151835560209485019460019093019290910190611cbf565b015190508380610c92565b9250600184016000526020600020906000935b601f1984168510611d80576001945083601f19811610611d67575b505050811b016001820155610caa565b015160001960f88460031b161c19169055838080611d57565b81810151835560209485019460019093019290910190611d3c565b015190508380610c33565b9250836000526020600020906000935b601f1984168510611df7576001945083601f19811610611dde575b505050811b018155610c48565b015160001960f88460031b161c19169055838080611dd1565b81810151835560209485019460019093019290910190611db6565b60405162461bcd60e51b815260206004820152600b60248201526a139bdd081cdd195dd85c9960aa1b6044820152606490fd5b346103315760203660031901126103315760043560025481101561033157611e6c90611e90565b6115b757611e7c61070891611f54565b60405191829160208352602083019061201d565b600254811015611ec75760026000527f405787fa12a823e0f2b7631cc41b3ba8828b3321ca811111fa75cd3aa3bb5ace0190600090565b634e487b7160e01b600052603260045260246000fd5b90600182811c92168015611f0d575b6020831014611ef757565b634e487b7160e01b600052602260045260246000fd5b91607f1691611eec565b61022081019081106001600160401b038211176115a157604052565b90601f801991011681019081106001600160401b038211176115a157604052565b9060405191826000825492611f6884611edd565b908184526001948581169081600014611fd75750600114611f94575b5050611f9292500383611f33565b565b9093915060005260209081600020936000915b818310611fbf575050611f9293508201013880611f84565b85548884018501529485019487945091830191611fa7565b915050611f9294506020925060ff191682840152151560051b8201013880611f84565b60005b83811061200d5750506000910152565b8181015183820152602001611ffd565b9060209161203681518092818552858086019101611ffa565b601f01601f1916010190565b9181601f84011215610331578235916001600160401b038311610331576020838186019501011161033157565b9291926001600160401b0382116115a15760405191612098601f8201601f191660200184611f33565b829481845281830111610331578281602093846000960137010152565b90601f81116120c357505050565b600091825260208220906020601f850160051c830194106120ff575b601f0160051c01915b8281106120f457505050565b8181556001016120e8565b90925082906120df565b908060209392818452848401376000828201840152601f01601f191601019056fea2646970667358221220ca52e3e4c86778b451e2e4b4a2ffdd9b868aa7a8e7bfcea6ed9aa936dd0843fd64736f6c63430008140033","opcodes":"PUSH1 0x80 DUP1 PUSH1 0x40 MSTORE CALLVALUE PUSH2 0x28 JUMPI PUSH1 0x0 DUP1 SLOAD PUSH1 0x1 PUSH1 0x1 PUSH1 0xA0 SHL SUB NOT AND CALLER OR SWAP1 SSTORE PUSH2 0x2160 SWAP1 DUP2 PUSH2 0x2E DUP3 CODECOPY RETURN JUMPDEST PUSH1 0x0 DUP1 REVERT INVALID PUSH2 0x5C0 PUSH1 0x40 MSTORE PUSH1 0x4 CALLDATASIZE LT ISZERO PUSH2 0x13 JUMPI PUSH1 0x0 DUP1 REVERT JUMPDEST PUSH1 0x0 CALLDATALOAD PUSH1 0xE0 SHR DUP1 PUSH4 0xCB6AAF1 EQ PUSH2 0x1E45 JUMPI DUP1 PUSH4 0x35E2D840 EQ PUSH2 0x735 JUMPI DUP1 PUSH4 0x637EEA19 EQ PUSH2 0x70C JUMPI DUP1 PUSH4 0x83361522 EQ PUSH2 0x354 JUMPI DUP1 PUSH4 0xC212D16B EQ PUSH2 0x336 JUMPI PUSH4 0xDBC21424 EQ PUSH2 0x5F JUMPI PUSH1 0x0 DUP1 REVERT JUMPDEST CALLVALUE PUSH2 0x331 JUMPI PUSH1 0x20 CALLDATASIZE PUSH1 0x3 NOT ADD SLT PUSH2 0x331 JUMPI PUSH1 0x4 CALLDATALOAD PUSH1 0x1 PUSH1 0x1 PUSH1 0x40 SHL SUB DUP2 GT PUSH2 0x331 JUMPI CALLDATASIZE PUSH1 0x23 DUP3 ADD SLT ISZERO PUSH2 0x331 JUMPI CALLDATASIZE DUP2 PUSH1 0x4 ADD CALLDATALOAD SWAP2 PUSH1 0x24 ADD SWAP2 PUSH2 0xA0 SWAP3 PUSH2 0x206F JUMP JUMPDEST PUSH1 0x40 MLOAD DUP2 DUP2 DUP1 SWAP4 MLOAD PUSH1 0x20 DUP2 SWAP4 ADD SWAP2 PUSH2 0xB7 SWAP3 PUSH2 0x1FFA JUMP JUMPDEST DUP2 ADD PUSH1 0x1 DUP2 MSTORE SUB PUSH1 0x20 ADD SWAP1 KECCAK256 DUP1 PUSH2 0xCD DUP2 PUSH2 0x1F54 JUMP JUMPDEST PUSH2 0xD9 PUSH1 0x1 DUP4 ADD PUSH2 0x1F54 JUMP JUMPDEST PUSH2 0x480 MSTORE PUSH2 0xE9 PUSH1 0x2 DUP4 ADD PUSH2 0x1F54 JUMP JUMPDEST PUSH2 0x4A0 MSTORE PUSH2 0xF9 PUSH1 0x3 DUP4 ADD PUSH2 0x1F54 JUMP JUMPDEST PUSH2 0x105 PUSH1 0x4 DUP5 ADD PUSH2 0x1F54 JUMP JUMPDEST PUSH2 0x111 PUSH1 0x5 DUP6 ADD PUSH2 0x1F54 JUMP JUMPDEST PUSH2 0x11D PUSH1 0x6 DUP7 ADD PUSH2 0x1F54 JUMP JUMPDEST PUSH2 0x129 PUSH1 0x7 DUP8 ADD PUSH2 0x1F54 JUMP JUMPDEST PUSH2 0x135 PUSH1 0x8 DUP9 ADD PUSH2 0x1F54 JUMP JUMPDEST SWAP1 PUSH2 0x142 PUSH1 0x9 DUP10 ADD PUSH2 0x1F54 JUMP JUMPDEST SWAP3 PUSH2 0x14F PUSH1 0xA DUP11 ADD PUSH2 0x1F54 JUMP JUMPDEST SWAP5 PUSH2 0x15C PUSH1 0xB DUP12 ADD PUSH2 0x1F54 JUMP JUMPDEST SWAP7 PUSH2 0x169 PUSH1 0xC DUP13 ADD PUSH2 0x1F54 JUMP JUMPDEST SWAP9 PUSH2 0x176 PUSH1 0xD DUP14 ADD PUSH2 0x1F54 JUMP JUMPDEST SWAP11 PUSH2 0x183 PUSH1 0xE DUP15 ADD PUSH2 0x1F54 JUMP JUMPDEST SWAP13 PUSH1 0xF ADD PUSH2 0x190 SWAP1 PUSH2 0x1F54 JUMP JUMPDEST SWAP14 PUSH1 0x10 ADD PUSH2 0x19D SWAP1 PUSH2 0x1F54 JUMP JUMPDEST PUSH2 0x180 MSTORE PUSH1 0x40 MLOAD DUP1 PUSH2 0x4C0 MSTORE PUSH2 0x220 DUP1 SWAP2 MSTORE PUSH2 0x4C0 MLOAD ADD PUSH2 0x1BD SWAP2 PUSH2 0x201D JUMP JUMPDEST PUSH2 0x4C0 MLOAD DUP1 DUP3 SUB SWAP1 PUSH1 0x20 ADD MSTORE PUSH2 0x480 MLOAD SWAP1 PUSH2 0x1D7 SWAP2 PUSH2 0x201D JUMP JUMPDEST PUSH2 0x4C0 MLOAD DUP1 DUP3 SUB SWAP1 PUSH1 0x40 ADD MSTORE PUSH2 0x4A0 MLOAD SWAP1 PUSH2 0x1F1 SWAP2 PUSH2 0x201D JUMP JUMPDEST PUSH2 0x4C0 MLOAD DUP1 DUP3 SUB SWAP1 PUSH1 0x60 ADD MSTORE PUSH2 0x206 SWAP2 PUSH2 0x201D JUMP JUMPDEST PUSH2 0x4C0 MLOAD DUP1 DUP3 SUB SWAP1 PUSH1 0x80 ADD MSTORE PUSH2 0x21B SWAP2 PUSH2 0x201D JUMP JUMPDEST PUSH2 0x4C0 MLOAD DUP1 DUP3 SUB SWAP1 PUSH1 0xA0 ADD MSTORE PUSH2 0x230 SWAP2 PUSH2 0x201D JUMP JUMPDEST PUSH2 0x4C0 MLOAD DUP1 DUP3 SUB SWAP1 PUSH1 0xC0 ADD MSTORE PUSH2 0x245 SWAP2 PUSH2 0x201D JUMP JUMPDEST PUSH2 0x4C0 MLOAD DUP1 DUP3 SUB SWAP1 PUSH1 0xE0 ADD MSTORE PUSH2 0x25A SWAP2 PUSH2 0x201D JUMP JUMPDEST PUSH2 0x4C0 MLOAD DUP1 DUP3 SUB SWAP1 PUSH2 0x100 ADD MSTORE PUSH2 0x270 SWAP2 PUSH2 0x201D JUMP JUMPDEST PUSH2 0x4C0 MLOAD DUP1 DUP3 SUB SWAP1 PUSH2 0x120 ADD MSTORE PUSH2 0x286 SWAP2 PUSH2 0x201D JUMP JUMPDEST PUSH2 0x4C0 MLOAD DUP1 DUP3 SUB SWAP1 PUSH2 0x140 ADD MSTORE PUSH2 0x29C SWAP2 PUSH2 0x201D JUMP JUMPDEST PUSH2 0x4C0 MLOAD DUP1 DUP3 SUB SWAP1 PUSH2 0x160 ADD MSTORE PUSH2 0x2B2 SWAP2 PUSH2 0x201D JUMP JUMPDEST PUSH2 0x4C0 MLOAD DUP1 DUP3 SUB SWAP1 PUSH2 0x180 ADD MSTORE PUSH2 0x2C8 SWAP2 PUSH2 0x201D JUMP JUMPDEST PUSH2 0x4C0 MLOAD DUP1 DUP3 SUB SWAP1 PUSH2 0x1A0 ADD MSTORE PUSH2 0x2DE SWAP2 PUSH2 0x201D JUMP JUMPDEST PUSH2 0x4C0 MLOAD DUP1 DUP3 SUB SWAP1 PUSH2 0x1C0 ADD MSTORE PUSH2 0x2F4 SWAP2 PUSH2 0x201D JUMP JUMPDEST PUSH2 0x4C0 MLOAD DUP1 DUP3 SUB SWAP1 PUSH2 0x1E0 ADD MSTORE PUSH2 0x30A SWAP2 PUSH2 0x201D JUMP JUMPDEST PUSH2 0x4C0 MLOAD DUP1 DUP3 SUB SWAP1 PUSH2 0x200 ADD MSTORE PUSH2 0x4C0 MLOAD SWAP1 PUSH2 0x180 MLOAD SWAP1 PUSH2 0x32A SWAP2 PUSH2 0x201D JUMP JUMPDEST SUB PUSH2 0x4C0 MLOAD RETURN JUMPDEST PUSH1 0x0 DUP1 REVERT JUMPDEST CALLVALUE PUSH2 0x331 JUMPI PUSH1 0x0 CALLDATASIZE PUSH1 0x3 NOT ADD SLT PUSH2 0x331 JUMPI PUSH1 0x20 PUSH1 0x2 SLOAD PUSH1 0x40 MLOAD SWAP1 DUP2 MSTORE RETURN JUMPDEST CALLVALUE PUSH2 0x331 JUMPI PUSH1 0x20 CALLDATASIZE PUSH1 0x3 NOT ADD SLT PUSH2 0x331 JUMPI PUSH1 0x4 CALLDATALOAD PUSH1 0x1 PUSH1 0x1 PUSH1 0x40 SHL SUB DUP2 GT PUSH2 0x331 JUMPI PUSH1 0x20 PUSH2 0x389 PUSH2 0x61C SWAP3 CALLDATASIZE SWAP1 PUSH1 0x4 ADD PUSH2 0x2042 JUMP JUMPDEST SWAP2 SWAP1 PUSH1 0x60 PUSH2 0x200 PUSH1 0x40 MLOAD PUSH2 0x39C DUP2 PUSH2 0x1F17 JUMP JUMPDEST DUP3 DUP2 MSTORE DUP3 DUP6 DUP3 ADD MSTORE DUP3 PUSH1 0x40 DUP3 ADD MSTORE DUP3 DUP1 DUP3 ADD MSTORE DUP3 PUSH1 0x80 DUP3 ADD MSTORE DUP3 PUSH1 0xA0 DUP3 ADD MSTORE DUP3 PUSH1 0xC0 DUP3 ADD MSTORE DUP3 PUSH1 0xE0 DUP3 ADD MSTORE DUP3 PUSH2 0x100 DUP3 ADD MSTORE DUP3 PUSH2 0x120 DUP3 ADD MSTORE DUP3 PUSH2 0x140 DUP3 ADD MSTORE DUP3 PUSH2 0x160 DUP3 ADD MSTORE DUP3 PUSH2 0x180 DUP3 ADD MSTORE DUP3 PUSH2 0x1A0 DUP3 ADD MSTORE DUP3 PUSH2 0x1C0 DUP3 ADD MSTORE DUP3 PUSH2 0x1E0 DUP3 ADD MSTORE ADD MSTORE DUP3 PUSH1 0x40 MLOAD SWAP4 DUP5 SWAP3 DUP4 CALLDATACOPY DUP2 ADD PUSH1 0x1 DUP2 MSTORE SUB ADD SWAP1 KECCAK256 PUSH2 0x53E PUSH1 0x10 PUSH1 0x40 MLOAD SWAP3 PUSH2 0x426 DUP5 PUSH2 0x1F17 JUMP JUMPDEST PUSH2 0x42F DUP2 PUSH2 0x1F54 JUMP JUMPDEST DUP5 MSTORE PUSH2 0x43D PUSH1 0x1 DUP3 ADD PUSH2 0x1F54 JUMP JUMPDEST PUSH1 0x20 DUP6 ADD MSTORE PUSH2 0x44E PUSH1 0x2 DUP3 ADD PUSH2 0x1F54 JUMP JUMPDEST PUSH1 0x40 DUP6 ADD MSTORE PUSH2 0x45F PUSH1 0x3 DUP3 ADD PUSH2 0x1F54 JUMP JUMPDEST PUSH1 0x60 DUP6 ADD MSTORE PUSH2 0x470 PUSH1 0x4 DUP3 ADD PUSH2 0x1F54 JUMP JUMPDEST PUSH1 0x80 DUP6 ADD MSTORE PUSH2 0x481 PUSH1 0x5 DUP3 ADD PUSH2 0x1F54 JUMP JUMPDEST PUSH1 0xA0 DUP6 ADD MSTORE PUSH2 0x492 PUSH1 0x6 DUP3 ADD PUSH2 0x1F54 JUMP JUMPDEST PUSH1 0xC0 DUP6 ADD MSTORE PUSH2 0x4A3 PUSH1 0x7 DUP3 ADD PUSH2 0x1F54 JUMP JUMPDEST PUSH1 0xE0 DUP6 ADD MSTORE PUSH2 0x4B4 PUSH1 0x8 DUP3 ADD PUSH2 0x1F54 JUMP JUMPDEST PUSH2 0x100 DUP6 ADD MSTORE PUSH2 0x4C6 PUSH1 0x9 DUP3 ADD PUSH2 0x1F54 JUMP JUMPDEST PUSH2 0x120 DUP6 ADD MSTORE PUSH2 0x4D8 PUSH1 0xA DUP3 ADD PUSH2 0x1F54 JUMP JUMPDEST PUSH2 0x140 DUP6 ADD MSTORE PUSH2 0x4EA PUSH1 0xB DUP3 ADD PUSH2 0x1F54 JUMP JUMPDEST PUSH2 0x160 DUP6 ADD MSTORE PUSH2 0x4FC PUSH1 0xC DUP3 ADD PUSH2 0x1F54 JUMP JUMPDEST PUSH2 0x180 DUP6 ADD MSTORE PUSH2 0x50E PUSH1 0xD DUP3 ADD PUSH2 0x1F54 JUMP JUMPDEST PUSH2 0x1A0 DUP6 ADD MSTORE PUSH2 0x520 PUSH1 0xE DUP3 ADD PUSH2 0x1F54 JUMP JUMPDEST PUSH2 0x1C0 DUP6 ADD MSTORE PUSH2 0x532 PUSH1 0xF DUP3 ADD PUSH2 0x1F54 JUMP JUMPDEST PUSH2 0x1E0 DUP6 ADD MSTORE ADD PUSH2 0x1F54 JUMP JUMPDEST PUSH2 0x200 DUP3 ADD MSTORE PUSH2 0x708 DUP2 PUSH2 0x200 PUSH2 0x6F3 PUSH2 0x6DD PUSH2 0x6C5 PUSH2 0x6AD PUSH2 0x695 PUSH2 0x67D PUSH2 0x665 PUSH2 0x64D PUSH2 0x635 PUSH1 0x40 MLOAD SWAP14 DUP15 SWAP14 DUP15 PUSH1 0x20 DUP2 MSTORE PUSH1 0xC0 PUSH2 0x607 PUSH2 0x5F2 PUSH2 0x5DC PUSH2 0x5C6 PUSH2 0x5B0 PUSH2 0x59A DUP9 MLOAD PUSH2 0x220 PUSH1 0x20 DUP11 ADD MSTORE PUSH2 0x240 DUP10 ADD SWAP1 PUSH2 0x201D JUMP JUMPDEST PUSH1 0x20 DUP10 ADD MLOAD DUP9 DUP3 SUB PUSH1 0x1F NOT ADD PUSH1 0x40 DUP11 ADD MSTORE PUSH2 0x201D JUMP JUMPDEST PUSH1 0x40 DUP9 ADD MLOAD DUP8 DUP3 SUB PUSH1 0x1F NOT ADD PUSH1 0x60 DUP10 ADD MSTORE PUSH2 0x201D JUMP JUMPDEST PUSH1 0x60 DUP8 ADD MLOAD DUP7 DUP3 SUB PUSH1 0x1F NOT ADD PUSH1 0x80 DUP9 ADD MSTORE PUSH2 0x201D JUMP JUMPDEST PUSH1 0x80 DUP7 ADD MLOAD DUP6 DUP3 SUB PUSH1 0x1F NOT ADD PUSH1 0xA0 DUP8 ADD MSTORE PUSH2 0x201D JUMP JUMPDEST PUSH1 0xA0 DUP6 ADD MLOAD DUP5 DUP3 SUB PUSH1 0x1F NOT ADD DUP5 DUP7 ADD MSTORE PUSH2 0x201D JUMP JUMPDEST SWAP3 ADD MLOAD SWAP1 PUSH1 0xE0 PUSH1 0x1F NOT DUP3 DUP6 SUB ADD SWAP2 ADD MSTORE PUSH2 0x201D JUMP JUMPDEST DUP14 PUSH1 0xE0 DUP14 ADD MLOAD SWAP1 PUSH2 0x100 PUSH1 0x1F NOT DUP3 DUP6 SUB ADD SWAP2 ADD MSTORE PUSH2 0x201D JUMP JUMPDEST PUSH2 0x100 DUP12 ADD MLOAD DUP14 DUP3 SUB PUSH1 0x1F NOT ADD PUSH2 0x120 DUP16 ADD MSTORE PUSH2 0x201D JUMP JUMPDEST PUSH2 0x120 DUP11 ADD MLOAD DUP13 DUP3 SUB PUSH1 0x1F NOT ADD PUSH2 0x140 DUP15 ADD MSTORE PUSH2 0x201D JUMP JUMPDEST PUSH2 0x140 DUP10 ADD MLOAD DUP12 DUP3 SUB PUSH1 0x1F NOT ADD PUSH2 0x160 DUP14 ADD MSTORE PUSH2 0x201D JUMP JUMPDEST PUSH2 0x160 DUP9 ADD MLOAD DUP11 DUP3 SUB PUSH1 0x1F NOT ADD PUSH2 0x180 DUP13 ADD MSTORE PUSH2 0x201D JUMP JUMPDEST PUSH2 0x180 DUP8 ADD MLOAD DUP10 DUP3 SUB PUSH1 0x1F NOT ADD PUSH2 0x1A0 DUP12 ADD MSTORE PUSH2 0x201D JUMP JUMPDEST PUSH2 0x1A0 DUP7 ADD MLOAD DUP9 DUP3 SUB PUSH1 0x1F NOT ADD PUSH2 0x1C0 DUP11 ADD MSTORE PUSH2 0x201D JUMP JUMPDEST PUSH2 0x1C0 DUP6 ADD MLOAD DUP8 DUP3 SUB PUSH1 0x1F NOT ADD PUSH2 0x1E0 DUP10 ADD MSTORE PUSH2 0x201D JUMP JUMPDEST PUSH2 0x1E0 DUP5 ADD MLOAD DUP7 DUP3 SUB PUSH1 0x1F NOT ADD DUP5 DUP9 ADD MSTORE PUSH2 0x201D JUMP JUMPDEST SWAP2 ADD MLOAD DUP4 DUP3 SUB PUSH1 0x1F NOT ADD PUSH2 0x220 DUP6 ADD MSTORE PUSH2 0x201D JUMP JUMPDEST SUB SWAP1 RETURN JUMPDEST CALLVALUE PUSH2 0x331 JUMPI PUSH1 0x0 CALLDATASIZE PUSH1 0x3 NOT ADD SLT PUSH2 0x331 JUMPI PUSH1 0x0 SLOAD PUSH1 0x40 MLOAD PUSH1 0x1 PUSH1 0x1 PUSH1 0xA0 SHL SUB SWAP1 SWAP2 AND DUP2 MSTORE PUSH1 0x20 SWAP1 RETURN JUMPDEST CALLVALUE PUSH2 0x331 JUMPI PUSH2 0x240 CALLDATASIZE PUSH1 0x3 NOT ADD SLT PUSH2 0x331 JUMPI PUSH1 0x4 CALLDATALOAD PUSH1 0x1 PUSH1 0x1 PUSH1 0x40 SHL SUB DUP2 GT PUSH2 0x331 JUMPI PUSH2 0x766 SWAP1 CALLDATASIZE SWAP1 PUSH1 0x4 ADD PUSH2 0x2042 JUMP JUMPDEST PUSH1 0x80 MSTORE PUSH2 0x460 MSTORE PUSH1 0x24 CALLDATALOAD PUSH1 0x1 PUSH1 0x1 PUSH1 0x40 SHL SUB DUP2 GT PUSH2 0x331 JUMPI PUSH2 0x78C SWAP1 CALLDATASIZE SWAP1 PUSH1 0x4 ADD PUSH2 0x2042 JUMP JUMPDEST PUSH2 0x520 MSTORE PUSH2 0x4E0 MSTORE PUSH1 0x44 CALLDATALOAD PUSH1 0x1 PUSH1 0x1 PUSH1 0x40 SHL SUB DUP2 GT PUSH2 0x331 JUMPI PUSH2 0x7B3 SWAP1 CALLDATASIZE SWAP1 PUSH1 0x4 ADD PUSH2 0x2042 JUMP JUMPDEST PUSH2 0x120 MSTORE PUSH2 0x2A0 MSTORE PUSH1 0x64 CALLDATALOAD PUSH1 0x1 PUSH1 0x1 PUSH1 0x40 SHL SUB DUP2 GT PUSH2 0x331 JUMPI PUSH2 0x7DA SWAP1 CALLDATASIZE SWAP1 PUSH1 0x4 ADD PUSH2 0x2042 JUMP JUMPDEST PUSH2 0x300 MSTORE PUSH2 0x540 MSTORE PUSH1 0x84 CALLDATALOAD PUSH1 0x1 PUSH1 0x1 PUSH1 0x40 SHL SUB DUP2 GT PUSH2 0x331 JUMPI PUSH2 0x801 SWAP1 CALLDATASIZE SWAP1 PUSH1 0x4 ADD PUSH2 0x2042 JUMP JUMPDEST PUSH2 0x5A0 MSTORE PUSH2 0x400 MSTORE PUSH1 0x1 PUSH1 0x1 PUSH1 0x40 SHL SUB PUSH1 0xA4 CALLDATALOAD GT PUSH2 0x331 JUMPI PUSH2 0x828 CALLDATASIZE PUSH1 0xA4 CALLDATALOAD PUSH1 0x4 ADD PUSH2 0x2042 JUMP JUMPDEST PUSH2 0x240 MSTORE PUSH2 0x200 MSTORE PUSH1 0x1 PUSH1 0x1 PUSH1 0x40 SHL SUB PUSH1 0xC4 CALLDATALOAD GT PUSH2 0x331 JUMPI PUSH2 0x84F CALLDATASIZE PUSH1 0xC4 CALLDATALOAD PUSH1 0x4 ADD PUSH2 0x2042 JUMP JUMPDEST PUSH2 0x1C0 MSTORE PUSH2 0x100 MSTORE PUSH1 0x1 PUSH1 0x1 PUSH1 0x40 SHL SUB PUSH1 0xE4 CALLDATALOAD GT PUSH2 0x331 JUMPI PUSH2 0x876 CALLDATASIZE PUSH1 0xE4 CALLDATALOAD PUSH1 0x4 ADD PUSH2 0x2042 JUMP JUMPDEST PUSH2 0x320 MSTORE PUSH2 0x260 MSTORE PUSH1 0x1 PUSH1 0x1 PUSH1 0x40 SHL SUB PUSH2 0x104 CALLDATALOAD GT PUSH2 0x331 JUMPI PUSH2 0x89F CALLDATASIZE PUSH2 0x104 CALLDATALOAD PUSH1 0x4 ADD PUSH2 0x2042 JUMP JUMPDEST PUSH2 0x340 MSTORE PUSH2 0x160 MSTORE PUSH1 0x1 PUSH1 0x1 PUSH1 0x40 SHL SUB PUSH2 0x124 CALLDATALOAD GT PUSH2 0x331 JUMPI PUSH2 0x8C8 CALLDATASIZE PUSH2 0x124 CALLDATALOAD PUSH1 0x4 ADD PUSH2 0x2042 JUMP JUMPDEST PUSH2 0x420 MSTORE PUSH2 0x220 MSTORE PUSH1 0x1 PUSH1 0x1 PUSH1 0x40 SHL SUB PUSH2 0x144 CALLDATALOAD GT PUSH2 0x331 JUMPI PUSH2 0x8F1 CALLDATASIZE PUSH2 0x144 CALLDATALOAD PUSH1 0x4 ADD PUSH2 0x2042 JUMP JUMPDEST PUSH2 0x3E0 MSTORE PUSH2 0x3A0 MSTORE PUSH1 0x1 PUSH1 0x1 PUSH1 0x40 SHL SUB PUSH2 0x164 CALLDATALOAD GT PUSH2 0x331 JUMPI PUSH2 0x91A CALLDATASIZE PUSH2 0x164 CALLDATALOAD PUSH1 0x4 ADD PUSH2 0x2042 JUMP JUMPDEST PUSH2 0x280 MSTORE PUSH2 0x1E0 MSTORE PUSH1 0x1 PUSH1 0x1 PUSH1 0x40 SHL SUB PUSH2 0x184 CALLDATALOAD GT PUSH2 0x331 JUMPI PUSH2 0x943 CALLDATASIZE PUSH2 0x184 CALLDATALOAD PUSH1 0x4 ADD PUSH2 0x2042 JUMP JUMPDEST PUSH2 0x380 MSTORE PUSH1 0xE0 MSTORE PUSH1 0x1 PUSH1 0x1 PUSH1 0x40 SHL SUB PUSH2 0x1A4 CALLDATALOAD GT PUSH2 0x331 JUMPI PUSH2 0x96B CALLDATASIZE PUSH2 0x1A4 CALLDATALOAD PUSH1 0x4 ADD PUSH2 0x2042 JUMP JUMPDEST PUSH2 0x1A0 MSTORE PUSH2 0x360 MSTORE PUSH1 0x1 PUSH1 0x1 PUSH1 0x40 SHL SUB PUSH2 0x1C4 CALLDATALOAD GT PUSH2 0x331 JUMPI PUSH2 0x994 CALLDATASIZE PUSH2 0x1C4 CALLDATALOAD PUSH1 0x4 ADD PUSH2 0x2042 JUMP JUMPDEST PUSH2 0x580 MSTORE PUSH2 0x500 MSTORE PUSH1 0x1 PUSH1 0x1 PUSH1 0x40 SHL SUB PUSH2 0x1E4 CALLDATALOAD GT PUSH2 0x331 JUMPI PUSH2 0x9BD CALLDATASIZE PUSH2 0x1E4 CALLDATALOAD PUSH1 0x4 ADD PUSH2 0x2042 JUMP JUMPDEST PUSH2 0x2C0 MSTORE PUSH1 0xC0 MSTORE PUSH1 0x1 PUSH1 0x1 PUSH1 0x40 SHL SUB PUSH2 0x204 CALLDATALOAD GT PUSH2 0x331 JUMPI PUSH2 0x9E5 CALLDATASIZE PUSH2 0x204 CALLDATALOAD PUSH1 0x4 ADD PUSH2 0x2042 JUMP JUMPDEST PUSH2 0x2E0 MSTORE PUSH2 0x140 MSTORE PUSH1 0x1 PUSH1 0x1 PUSH1 0x40 SHL SUB PUSH2 0x224 CALLDATALOAD GT PUSH2 0x331 JUMPI PUSH2 0xA0E CALLDATASIZE PUSH2 0x224 CALLDATALOAD PUSH1 0x4 ADD PUSH2 0x2042 JUMP JUMPDEST PUSH2 0x560 MSTORE PUSH2 0x3C0 MSTORE PUSH1 0x0 SLOAD PUSH1 0x1 PUSH1 0x1 PUSH1 0xA0 SHL SUB AND CALLER SUB PUSH2 0x1E12 JUMPI PUSH2 0xA37 PUSH1 0x40 MLOAD DUP1 PUSH1 0xA0 MSTORE PUSH2 0x1F17 JUMP JUMPDEST PUSH2 0xA48 CALLDATASIZE PUSH2 0x520 MLOAD PUSH2 0x4E0 MLOAD PUSH2 0x206F JUMP JUMPDEST PUSH1 0xA0 MLOAD MSTORE PUSH2 0xA5D CALLDATASIZE PUSH2 0x120 MLOAD PUSH2 0x2A0 MLOAD PUSH2 0x206F JUMP JUMPDEST PUSH1 0x20 PUSH1 0xA0 MLOAD ADD MSTORE PUSH2 0xA75 CALLDATASIZE PUSH2 0x300 MLOAD PUSH2 0x540 MLOAD PUSH2 0x206F JUMP JUMPDEST PUSH1 0x40 PUSH1 0xA0 MLOAD ADD MSTORE PUSH2 0xA8D CALLDATASIZE PUSH2 0x5A0 MLOAD PUSH2 0x400 MLOAD PUSH2 0x206F JUMP JUMPDEST PUSH1 0x60 PUSH1 0xA0 MLOAD ADD MSTORE PUSH2 0xAA5 CALLDATASIZE PUSH2 0x240 MLOAD PUSH2 0x200 MLOAD PUSH2 0x206F JUMP JUMPDEST PUSH1 0x80 PUSH1 0xA0 MLOAD ADD MSTORE PUSH2 0xABD CALLDATASIZE PUSH2 0x1C0 MLOAD PUSH2 0x100 MLOAD PUSH2 0x206F JUMP JUMPDEST PUSH1 0xA0 DUP1 MLOAD ADD MSTORE PUSH2 0xAD4 CALLDATASIZE PUSH2 0x320 MLOAD PUSH2 0x260 MLOAD PUSH2 0x206F JUMP JUMPDEST PUSH1 0xC0 PUSH1 0xA0 MLOAD ADD MSTORE PUSH2 0xAEC CALLDATASIZE PUSH2 0x340 MLOAD PUSH2 0x160 MLOAD PUSH2 0x206F JUMP JUMPDEST PUSH1 0xE0 PUSH1 0xA0 MLOAD ADD MSTORE PUSH2 0xB04 CALLDATASIZE PUSH2 0x420 MLOAD PUSH2 0x220 MLOAD PUSH2 0x206F JUMP JUMPDEST PUSH2 0x100 PUSH1 0xA0 MLOAD ADD MSTORE PUSH2 0xB1D CALLDATASIZE PUSH2 0x3E0 MLOAD PUSH2 0x3A0 MLOAD PUSH2 0x206F JUMP JUMPDEST PUSH2 0x120 PUSH1 0xA0 MLOAD ADD MSTORE PUSH2 0xB36 CALLDATASIZE PUSH2 0x280 MLOAD PUSH2 0x1E0 MLOAD PUSH2 0x206F JUMP JUMPDEST PUSH2 0x140 PUSH1 0xA0 MLOAD ADD MSTORE PUSH2 0xB4E CALLDATASIZE PUSH2 0x380 MLOAD PUSH1 0xE0 MLOAD PUSH2 0x206F JUMP JUMPDEST PUSH2 0x160 PUSH1 0xA0 MLOAD ADD MSTORE PUSH2 0xB67 CALLDATASIZE PUSH2 0x1A0 MLOAD PUSH2 0x360 MLOAD PUSH2 0x206F JUMP JUMPDEST PUSH2 0x180 PUSH1 0xA0 MLOAD ADD MSTORE PUSH2 0xB80 CALLDATASIZE PUSH2 0x580 MLOAD PUSH2 0x500 MLOAD PUSH2 0x206F JUMP JUMPDEST PUSH2 0x1A0 PUSH1 0xA0 MLOAD ADD MSTORE PUSH2 0xB98 CALLDATASIZE PUSH2 0x2C0 MLOAD PUSH1 0xC0 MLOAD PUSH2 0x206F JUMP JUMPDEST PUSH2 0x1C0 PUSH1 0xA0 MLOAD ADD MSTORE PUSH2 0xBB1 CALLDATASIZE PUSH2 0x2E0 MLOAD PUSH2 0x140 MLOAD PUSH2 0x206F JUMP JUMPDEST PUSH2 0x1E0 PUSH1 0xA0 MLOAD ADD MSTORE PUSH2 0xBCA CALLDATASIZE PUSH2 0x560 MLOAD PUSH2 0x3C0 MLOAD PUSH2 0x206F JUMP JUMPDEST PUSH2 0x200 PUSH1 0xA0 MLOAD ADD MSTORE PUSH1 0x40 MLOAD PUSH1 0x80 MLOAD PUSH2 0x460 MLOAD DUP3 CALLDATACOPY PUSH1 0x1 PUSH1 0x80 MLOAD DUP3 ADD MSTORE PUSH1 0x20 DUP2 PUSH1 0x80 MLOAD DUP2 ADD SUB ADD SWAP1 KECCAK256 PUSH1 0xA0 MLOAD MLOAD DUP1 MLOAD SWAP1 PUSH1 0x1 PUSH1 0x1 PUSH1 0x40 SHL SUB DUP3 GT PUSH2 0x15A1 JUMPI DUP2 SWAP1 PUSH2 0xC1D DUP3 PUSH2 0xC17 DUP7 SLOAD PUSH2 0x1EDD JUMP JUMPDEST DUP7 PUSH2 0x20B5 JUMP JUMPDEST PUSH1 0x20 SWAP1 PUSH1 0x1F DUP4 GT PUSH1 0x1 EQ PUSH2 0x1DA6 JUMPI PUSH1 0x0 SWAP3 PUSH2 0x1D9B JUMPI JUMPDEST POP POP DUP2 PUSH1 0x1 SHL SWAP2 PUSH1 0x0 NOT SWAP1 PUSH1 0x3 SHL SHR NOT AND OR DUP2 SSTORE JUMPDEST PUSH1 0x20 PUSH1 0xA0 MLOAD ADD MLOAD DUP1 MLOAD SWAP1 PUSH1 0x1 PUSH1 0x1 PUSH1 0x40 SHL SUB DUP3 GT PUSH2 0x15A1 JUMPI DUP2 SWAP1 PUSH2 0xC7C DUP3 PUSH2 0xC73 PUSH1 0x1 DUP8 ADD SLOAD PUSH2 0x1EDD JUMP JUMPDEST PUSH1 0x1 DUP8 ADD PUSH2 0x20B5 JUMP JUMPDEST PUSH1 0x20 SWAP1 PUSH1 0x1F DUP4 GT PUSH1 0x1 EQ PUSH2 0x1D29 JUMPI PUSH1 0x0 SWAP3 PUSH2 0x1D1E JUMPI JUMPDEST POP POP DUP2 PUSH1 0x1 SHL SWAP2 PUSH1 0x0 NOT SWAP1 PUSH1 0x3 SHL SHR NOT AND OR PUSH1 0x1 DUP3 ADD SSTORE JUMPDEST PUSH1 0x40 PUSH1 0xA0 MLOAD ADD MLOAD DUP1 MLOAD SWAP1 PUSH1 0x1 PUSH1 0x1 PUSH1 0x40 SHL SUB DUP3 GT PUSH2 0x15A1 JUMPI DUP2 SWAP1 PUSH2 0xCDE DUP3 PUSH2 0xCD5 PUSH1 0x2 DUP8 ADD SLOAD PUSH2 0x1EDD JUMP JUMPDEST PUSH1 0x2 DUP8 ADD PUSH2 0x20B5 JUMP JUMPDEST PUSH1 0x20 SWAP1 PUSH1 0x1F DUP4 GT PUSH1 0x1 EQ PUSH2 0x1CAC JUMPI PUSH1 0x0 SWAP3 PUSH2 0x1CA1 JUMPI JUMPDEST POP POP DUP2 PUSH1 0x1 SHL SWAP2 PUSH1 0x0 NOT SWAP1 PUSH1 0x3 SHL SHR NOT AND OR PUSH1 0x2 DUP3 ADD SSTORE JUMPDEST PUSH1 0x60 PUSH1 0xA0 MLOAD ADD MLOAD DUP1 MLOAD SWAP1 PUSH1 0x1 PUSH1 0x1 PUSH1 0x40 SHL SUB DUP3 GT PUSH2 0x15A1 JUMPI DUP2 SWAP1 PUSH2 0xD40 DUP3 PUSH2 0xD37 PUSH1 0x3 DUP8 ADD SLOAD PUSH2 0x1EDD JUMP JUMPDEST PUSH1 0x3 DUP8 ADD PUSH2 0x20B5 JUMP JUMPDEST PUSH1 0x20 SWAP1 PUSH1 0x1F DUP4 GT PUSH1 0x1 EQ PUSH2 0x1C2F JUMPI PUSH1 0x0 SWAP3 PUSH2 0x1C24 JUMPI JUMPDEST POP POP DUP2 PUSH1 0x1 SHL SWAP2 PUSH1 0x0 NOT SWAP1 PUSH1 0x3 SHL SHR NOT AND OR PUSH1 0x3 DUP3 ADD SSTORE JUMPDEST PUSH1 0x80 PUSH1 0xA0 MLOAD ADD MLOAD DUP1 MLOAD SWAP1 PUSH1 0x1 PUSH1 0x1 PUSH1 0x40 SHL SUB DUP3 GT PUSH2 0x15A1 JUMPI DUP2 SWAP1 PUSH2 0xDA2 DUP3 PUSH2 0xD99 PUSH1 0x4 DUP8 ADD SLOAD PUSH2 0x1EDD JUMP JUMPDEST PUSH1 0x4 DUP8 ADD PUSH2 0x20B5 JUMP JUMPDEST PUSH1 0x20 SWAP1 PUSH1 0x1F DUP4 GT PUSH1 0x1 EQ PUSH2 0x1BB2 JUMPI PUSH1 0x0 SWAP3 PUSH2 0x1BA7 JUMPI JUMPDEST POP POP DUP2 PUSH1 0x1 SHL SWAP2 PUSH1 0x0 NOT SWAP1 PUSH1 0x3 SHL SHR NOT AND OR PUSH1 0x4 DUP3 ADD SSTORE JUMPDEST PUSH1 0xA0 DUP1 MLOAD ADD MLOAD DUP1 MLOAD SWAP1 PUSH1 0x1 PUSH1 0x1 PUSH1 0x40 SHL SUB DUP3 GT PUSH2 0x15A1 JUMPI DUP2 SWAP1 PUSH2 0xE03 DUP3 PUSH2 0xDFA PUSH1 0x5 DUP8 ADD SLOAD PUSH2 0x1EDD JUMP JUMPDEST PUSH1 0x5 DUP8 ADD PUSH2 0x20B5 JUMP JUMPDEST PUSH1 0x20 SWAP1 PUSH1 0x1F DUP4 GT PUSH1 0x1 EQ PUSH2 0x1B35 JUMPI PUSH1 0x0 SWAP3 PUSH2 0x1B2A JUMPI JUMPDEST POP POP DUP2 PUSH1 0x1 SHL SWAP2 PUSH1 0x0 NOT SWAP1 PUSH1 0x3 SHL SHR NOT AND OR PUSH1 0x5 DUP3 ADD SSTORE JUMPDEST PUSH1 0xC0 PUSH1 0xA0 MLOAD ADD MLOAD DUP1 MLOAD SWAP1 PUSH1 0x1 PUSH1 0x1 PUSH1 0x40 SHL SUB DUP3 GT PUSH2 0x15A1 JUMPI DUP2 SWAP1 PUSH2 0xE65 DUP3 PUSH2 0xE5C PUSH1 0x6 DUP8 ADD SLOAD PUSH2 0x1EDD JUMP JUMPDEST PUSH1 0x6 DUP8 ADD PUSH2 0x20B5 JUMP JUMPDEST PUSH1 0x20 SWAP1 PUSH1 0x1F DUP4 GT PUSH1 0x1 EQ PUSH2 0x1AB8 JUMPI PUSH1 0x0 SWAP3 PUSH2 0x1AAD JUMPI JUMPDEST POP POP DUP2 PUSH1 0x1 SHL SWAP2 PUSH1 0x0 NOT SWAP1 PUSH1 0x3 SHL SHR NOT AND OR PUSH1 0x6 DUP3 ADD SSTORE JUMPDEST PUSH1 0xE0 PUSH1 0xA0 MLOAD ADD MLOAD DUP1 MLOAD SWAP1 PUSH1 0x1 PUSH1 0x1 PUSH1 0x40 SHL SUB DUP3 GT PUSH2 0x15A1 JUMPI DUP2 SWAP1 PUSH2 0xEC7 DUP3 PUSH2 0xEBE PUSH1 0x7 DUP8 ADD SLOAD PUSH2 0x1EDD JUMP JUMPDEST PUSH1 0x7 DUP8 ADD PUSH2 0x20B5 JUMP JUMPDEST PUSH1 0x20 SWAP1 PUSH1 0x1F DUP4 GT PUSH1 0x1 EQ PUSH2 0x1A3B JUMPI PUSH1 0x0 SWAP3 PUSH2 0x1A30 JUMPI JUMPDEST POP POP DUP2 PUSH1 0x1 SHL SWAP2 PUSH1 0x0 NOT SWAP1 PUSH1 0x3 SHL SHR NOT AND OR PUSH1 0x7 DUP3 ADD SSTORE JUMPDEST PUSH2 0x100 PUSH1 0xA0 MLOAD ADD MLOAD DUP1 MLOAD SWAP1 PUSH1 0x1 PUSH1 0x1 PUSH1 0x40 SHL SUB DUP3 GT PUSH2 0x15A1 JUMPI DUP2 SWAP1 PUSH2 0xF2A DUP3 PUSH2 0xF21 PUSH1 0x8 DUP8 ADD SLOAD PUSH2 0x1EDD JUMP JUMPDEST PUSH1 0x8 DUP8 ADD PUSH2 0x20B5 JUMP JUMPDEST PUSH1 0x20 SWAP1 PUSH1 0x1F DUP4 GT PUSH1 0x1 EQ PUSH2 0x19BE JUMPI PUSH1 0x0 SWAP3 PUSH2 0x19B3 JUMPI JUMPDEST POP POP DUP2 PUSH1 0x1 SHL SWAP2 PUSH1 0x0 NOT SWAP1 PUSH1 0x3 SHL SHR NOT AND OR PUSH1 0x8 DUP3 ADD SSTORE JUMPDEST PUSH2 0x120 PUSH1 0xA0 MLOAD ADD MLOAD DUP1 MLOAD SWAP1 PUSH1 0x1 PUSH1 0x1 PUSH1 0x40 SHL SUB DUP3 GT PUSH2 0x15A1 JUMPI DUP2 SWAP1 PUSH2 0xF8D DUP3 PUSH2 0xF84 PUSH1 0x9 DUP8 ADD SLOAD PUSH2 0x1EDD JUMP JUMPDEST PUSH1 0x9 DUP8 ADD PUSH2 0x20B5 JUMP JUMPDEST PUSH1 0x20 SWAP1 PUSH1 0x1F DUP4 GT PUSH1 0x1 EQ PUSH2 0x1941 JUMPI PUSH1 0x0 SWAP3 PUSH2 0x1936 JUMPI JUMPDEST POP POP DUP2 PUSH1 0x1 SHL SWAP2 PUSH1 0x0 NOT SWAP1 PUSH1 0x3 SHL SHR NOT AND OR PUSH1 0x9 DUP3 ADD SSTORE JUMPDEST PUSH2 0x140 PUSH1 0xA0 MLOAD ADD MLOAD DUP1 MLOAD SWAP1 PUSH1 0x1 PUSH1 0x1 PUSH1 0x40 SHL SUB DUP3 GT PUSH2 0x15A1 JUMPI DUP2 SWAP1 PUSH2 0xFF0 DUP3 PUSH2 0xFE7 PUSH1 0xA DUP8 ADD SLOAD PUSH2 0x1EDD JUMP JUMPDEST PUSH1 0xA DUP8 ADD PUSH2 0x20B5 JUMP JUMPDEST PUSH1 0x20 SWAP1 PUSH1 0x1F DUP4 GT PUSH1 0x1 EQ PUSH2 0x18C4 JUMPI PUSH1 0x0 SWAP3 PUSH2 0x18B9 JUMPI JUMPDEST POP POP DUP2 PUSH1 0x1 SHL SWAP2 PUSH1 0x0 NOT SWAP1 PUSH1 0x3 SHL SHR NOT AND OR PUSH1 0xA DUP3 ADD SSTORE JUMPDEST PUSH2 0x160 PUSH1 0xA0 MLOAD ADD MLOAD DUP1 MLOAD SWAP1 PUSH1 0x1 PUSH1 0x1 PUSH1 0x40 SHL SUB DUP3 GT PUSH2 0x15A1 JUMPI DUP2 SWAP1 PUSH2 0x1053 DUP3 PUSH2 0x104A PUSH1 0xB DUP8 ADD SLOAD PUSH2 0x1EDD JUMP JUMPDEST PUSH1 0xB DUP8 ADD PUSH2 0x20B5 JUMP JUMPDEST PUSH1 0x20 SWAP1 PUSH1 0x1F DUP4 GT PUSH1 0x1 EQ PUSH2 0x1847 JUMPI PUSH1 0x0 SWAP3 PUSH2 0x183C JUMPI JUMPDEST POP POP DUP2 PUSH1 0x1 SHL SWAP2 PUSH1 0x0 NOT SWAP1 PUSH1 0x3 SHL SHR NOT AND OR PUSH1 0xB DUP3 ADD SSTORE JUMPDEST PUSH2 0x180 PUSH1 0xA0 MLOAD ADD MLOAD DUP1 MLOAD SWAP1 PUSH1 0x1 PUSH1 0x1 PUSH1 0x40 SHL SUB DUP3 GT PUSH2 0x15A1 JUMPI DUP2 SWAP1 PUSH2 0x10B6 DUP3 PUSH2 0x10AD PUSH1 0xC DUP8 ADD SLOAD PUSH2 0x1EDD JUMP JUMPDEST PUSH1 0xC DUP8 ADD PUSH2 0x20B5 JUMP JUMPDEST PUSH1 0x20 SWAP1 PUSH1 0x1F DUP4 GT PUSH1 0x1 EQ PUSH2 0x17CA JUMPI PUSH1 0x0 SWAP3 PUSH2 0x17BF JUMPI JUMPDEST POP POP DUP2 PUSH1 0x1 SHL SWAP2 PUSH1 0x0 NOT SWAP1 PUSH1 0x3 SHL SHR NOT AND OR PUSH1 0xC DUP3 ADD SSTORE JUMPDEST PUSH2 0x1A0 PUSH1 0xA0 MLOAD ADD MLOAD DUP1 MLOAD SWAP1 PUSH1 0x1 PUSH1 0x1 PUSH1 0x40 SHL SUB DUP3 GT PUSH2 0x15A1 JUMPI DUP2 SWAP1 PUSH2 0x1119 DUP3 PUSH2 0x1110 PUSH1 0xD DUP8 ADD SLOAD PUSH2 0x1EDD JUMP JUMPDEST PUSH1 0xD DUP8 ADD PUSH2 0x20B5 JUMP JUMPDEST PUSH1 0x20 SWAP1 PUSH1 0x1F DUP4 GT PUSH1 0x1 EQ PUSH2 0x174D JUMPI PUSH1 0x0 SWAP3 PUSH2 0x1742 JUMPI JUMPDEST POP POP DUP2 PUSH1 0x1 SHL SWAP2 PUSH1 0x0 NOT SWAP1 PUSH1 0x3 SHL SHR NOT AND OR PUSH1 0xD DUP3 ADD SSTORE JUMPDEST PUSH2 0x1C0 PUSH1 0xA0 MLOAD ADD MLOAD DUP1 MLOAD SWAP1 PUSH1 0x1 PUSH1 0x1 PUSH1 0x40 SHL SUB DUP3 GT PUSH2 0x15A1 JUMPI DUP2 SWAP1 PUSH2 0x117C DUP3 PUSH2 0x1173 PUSH1 0xE DUP8 ADD SLOAD PUSH2 0x1EDD JUMP JUMPDEST PUSH1 0xE DUP8 ADD PUSH2 0x20B5 JUMP JUMPDEST PUSH1 0x20 SWAP1 PUSH1 0x1F DUP4 GT PUSH1 0x1 EQ PUSH2 0x16D0 JUMPI PUSH1 0x0 SWAP3 PUSH2 0x16C5 JUMPI JUMPDEST POP POP DUP2 PUSH1 0x1 SHL SWAP2 PUSH1 0x0 NOT SWAP1 PUSH1 0x3 SHL SHR NOT AND OR PUSH1 0xE DUP3 ADD SSTORE JUMPDEST PUSH2 0x1E0 PUSH1 0xA0 MLOAD ADD MLOAD DUP1 MLOAD SWAP1 PUSH1 0x1 PUSH1 0x1 PUSH1 0x40 SHL SUB DUP3 GT PUSH2 0x15A1 JUMPI DUP2 SWAP1 PUSH2 0x11DF DUP3 PUSH2 0x11D6 PUSH1 0xF DUP8 ADD SLOAD PUSH2 0x1EDD JUMP JUMPDEST PUSH1 0xF DUP8 ADD PUSH2 0x20B5 JUMP JUMPDEST PUSH1 0x20 SWAP1 PUSH1 0x1F DUP4 GT PUSH1 0x1 EQ PUSH2 0x1653 JUMPI PUSH1 0x0 SWAP3 PUSH2 0x1648 JUMPI JUMPDEST POP POP DUP2 PUSH1 0x1 SHL SWAP2 PUSH1 0x0 NOT SWAP1 PUSH1 0x3 SHL SHR NOT AND OR PUSH1 0xF DUP3 ADD SSTORE JUMPDEST PUSH2 0x200 PUSH1 0xA0 MLOAD ADD MLOAD DUP1 MLOAD SWAP1 PUSH1 0x1 PUSH1 0x1 PUSH1 0x40 SHL SUB DUP3 GT PUSH2 0x15A1 JUMPI PUSH2 0x1240 DUP3 PUSH2 0x1237 PUSH1 0x10 DUP7 ADD SLOAD PUSH2 0x1EDD JUMP JUMPDEST PUSH1 0x10 DUP7 ADD PUSH2 0x20B5 JUMP JUMPDEST PUSH1 0x20 SWAP1 PUSH1 0x1F DUP4 GT PUSH1 0x1 EQ PUSH2 0x15D8 JUMPI PUSH1 0x10 SWAP3 SWAP2 PUSH1 0x0 SWAP2 DUP4 PUSH2 0x15CD JUMPI JUMPDEST POP POP DUP2 PUSH1 0x1 SHL SWAP2 PUSH1 0x0 NOT SWAP1 PUSH1 0x3 SHL SHR NOT AND OR SWAP2 ADD SSTORE JUMPDEST PUSH1 0x2 SLOAD PUSH9 0x10000000000000000 DUP2 LT ISZERO PUSH2 0x15A1 JUMPI DUP1 PUSH1 0x1 PUSH2 0x1295 SWAP3 ADD PUSH1 0x2 SSTORE PUSH2 0x1E90 JUMP JUMPDEST PUSH2 0x15B7 JUMPI PUSH1 0x80 MLOAD PUSH1 0x1 PUSH1 0x1 PUSH1 0x40 SHL SUB DUP2 GT PUSH2 0x15A1 JUMPI PUSH2 0x12BE SWAP1 PUSH2 0x12B8 DUP4 SLOAD PUSH2 0x1EDD JUMP JUMPDEST DUP4 PUSH2 0x20B5 JUMP JUMPDEST PUSH1 0x0 SWAP1 PUSH1 0x80 MLOAD PUSH1 0x1F DUP2 GT PUSH1 0x1 EQ PUSH2 0x1534 JUMPI POP SWAP1 PUSH1 0x0 PUSH1 0x80 MLOAD SWAP2 DUP3 PUSH2 0x1526 JUMPI JUMPDEST POP DUP2 PUSH1 0x1 SHL SWAP2 PUSH1 0x0 NOT SWAP1 PUSH1 0x3 SHL SHR NOT AND OR SWAP1 SSTORE JUMPDEST PUSH2 0x240 PUSH1 0x40 MLOAD DUP1 PUSH2 0x440 MSTORE MSTORE PUSH32 0xA2616E193B3CDC6E2596D1B0AECE7882D9162126EFD0456B354E131228EAB71F PUSH2 0x14FC PUSH2 0x14E2 PUSH2 0x14C9 PUSH2 0x14AF PUSH2 0x1495 PUSH2 0x147C PUSH2 0x1462 PUSH2 0x1448 PUSH2 0x142E PUSH2 0x1414 PUSH2 0x13FB PUSH2 0x13E2 PUSH2 0x13C9 PUSH2 0x13B0 PUSH2 0x1397 PUSH2 0x137E PUSH2 0x1365 PUSH2 0x240 PUSH2 0x440 MLOAD ADD PUSH1 0x80 MLOAD PUSH2 0x460 MLOAD PUSH2 0x2109 JUMP JUMPDEST PUSH2 0x440 MLOAD PUSH1 0x20 DUP2 DUP4 SUB SWAP2 ADD MSTORE PUSH2 0x520 MLOAD PUSH2 0x4E0 MLOAD PUSH2 0x2109 JUMP JUMPDEST PUSH2 0x440 MLOAD PUSH1 0x40 DUP2 DUP4 SUB SWAP2 ADD MSTORE PUSH2 0x120 MLOAD PUSH2 0x2A0 MLOAD PUSH2 0x2109 JUMP JUMPDEST PUSH2 0x440 MLOAD PUSH1 0x60 DUP2 DUP4 SUB SWAP2 ADD MSTORE PUSH2 0x300 MLOAD PUSH2 0x540 MLOAD PUSH2 0x2109 JUMP JUMPDEST PUSH2 0x440 MLOAD PUSH1 0x80 DUP2 DUP4 SUB SWAP2 ADD MSTORE PUSH2 0x5A0 MLOAD PUSH2 0x400 MLOAD PUSH2 0x2109 JUMP JUMPDEST PUSH2 0x440 MLOAD PUSH1 0xA0 DUP2 DUP4 SUB SWAP2 ADD MSTORE PUSH2 0x240 MLOAD PUSH2 0x200 MLOAD PUSH2 0x2109 JUMP JUMPDEST PUSH2 0x440 MLOAD PUSH1 0xC0 DUP2 DUP4 SUB SWAP2 ADD MSTORE PUSH2 0x1C0 MLOAD PUSH2 0x100 MLOAD PUSH2 0x2109 JUMP JUMPDEST PUSH2 0x440 MLOAD PUSH1 0xE0 DUP2 DUP4 SUB SWAP2 ADD MSTORE PUSH2 0x320 MLOAD PUSH2 0x260 MLOAD PUSH2 0x2109 JUMP JUMPDEST PUSH2 0x440 MLOAD PUSH2 0x100 DUP2 DUP4 SUB SWAP2 ADD MSTORE PUSH2 0x340 MLOAD PUSH2 0x160 MLOAD PUSH2 0x2109 JUMP JUMPDEST PUSH2 0x440 MLOAD PUSH2 0x120 DUP2 DUP4 SUB SWAP2 ADD MSTORE PUSH2 0x420 MLOAD PUSH2 0x220 MLOAD PUSH2 0x2109 JUMP JUMPDEST PUSH2 0x440 MLOAD PUSH2 0x140 DUP2 DUP4 SUB SWAP2 ADD MSTORE PUSH2 0x3E0 MLOAD PUSH2 0x3A0 MLOAD PUSH2 0x2109 JUMP JUMPDEST PUSH2 0x440 MLOAD PUSH2 0x160 DUP2 DUP4 SUB SWAP2 ADD MSTORE PUSH2 0x280 MLOAD PUSH2 0x1E0 MLOAD PUSH2 0x2109 JUMP JUMPDEST PUSH2 0x440 MLOAD PUSH2 0x180 DUP2 DUP4 SUB SWAP2 ADD MSTORE PUSH2 0x380 MLOAD PUSH1 0xE0 MLOAD PUSH2 0x2109 JUMP JUMPDEST PUSH2 0x440 MLOAD PUSH2 0x1A0 DUP2 DUP4 SUB SWAP2 ADD MSTORE PUSH2 0x1A0 MLOAD PUSH2 0x360 MLOAD PUSH2 0x2109 JUMP JUMPDEST PUSH2 0x440 MLOAD PUSH2 0x1C0 DUP2 DUP4 SUB SWAP2 ADD MSTORE PUSH2 0x580 MLOAD PUSH2 0x500 MLOAD PUSH2 0x2109 JUMP JUMPDEST PUSH2 0x440 MLOAD PUSH2 0x1E0 DUP2 DUP4 SUB SWAP2 ADD MSTORE PUSH2 0x2C0 MLOAD PUSH1 0xC0 MLOAD PUSH2 0x2109 JUMP JUMPDEST PUSH2 0x440 MLOAD PUSH2 0x200 DUP2 DUP4 SUB SWAP2 ADD MSTORE PUSH2 0x2E0 MLOAD PUSH2 0x140 MLOAD PUSH2 0x2109 JUMP JUMPDEST PUSH2 0x440 MLOAD PUSH2 0x220 DUP2 DUP4 SUB SWAP2 ADD MSTORE PUSH2 0x151E PUSH2 0x440 MLOAD SWAP2 PUSH2 0x560 MLOAD PUSH2 0x3C0 MLOAD PUSH2 0x2109 JUMP JUMPDEST SUB PUSH2 0x440 MLOAD LOG1 STOP JUMPDEST SWAP1 POP PUSH2 0x460 MLOAD ADD CALLDATALOAD DUP4 PUSH2 0x12DD JUMP JUMPDEST DUP2 PUSH1 0x0 MSTORE PUSH1 0x20 PUSH1 0x0 KECCAK256 PUSH1 0x0 SWAP4 PUSH2 0x460 MLOAD SWAP1 JUMPDEST PUSH1 0x1F NOT DUP5 AND DUP7 LT PUSH2 0x1589 JUMPI PUSH1 0x1 SWAP5 SWAP6 POP DUP4 PUSH1 0x1F NOT DUP2 AND LT PUSH2 0x156F JUMPI JUMPDEST POP POP POP DUP2 SHL ADD SWAP1 SSTORE PUSH2 0x12F1 JUMP JUMPDEST ADD CALLDATALOAD PUSH1 0x0 NOT PUSH1 0x3 DUP5 SWAP1 SHL PUSH1 0xF8 AND SHR NOT AND SWAP1 SSTORE DUP4 DUP1 DUP1 PUSH2 0x1562 JUMP JUMPDEST SWAP2 PUSH1 0x20 PUSH1 0x1 DUP2 SWAP3 DUP6 DUP6 ADD CALLDATALOAD DUP2 SSTORE ADD SWAP4 ADD SWAP6 ADD SWAP5 PUSH2 0x1546 JUMP JUMPDEST PUSH4 0x4E487B71 PUSH1 0xE0 SHL PUSH1 0x0 MSTORE PUSH1 0x41 PUSH1 0x4 MSTORE PUSH1 0x24 PUSH1 0x0 REVERT JUMPDEST PUSH4 0x4E487B71 PUSH1 0xE0 SHL PUSH1 0x0 MSTORE PUSH1 0x0 PUSH1 0x4 MSTORE PUSH1 0x24 PUSH1 0x0 REVERT JUMPDEST ADD MLOAD SWAP1 POP DUP5 DUP1 PUSH2 0x125B JUMP JUMPDEST SWAP1 PUSH1 0x10 DUP5 ADD PUSH1 0x0 MSTORE PUSH1 0x20 PUSH1 0x0 KECCAK256 SWAP2 PUSH1 0x0 JUMPDEST PUSH1 0x1F NOT DUP6 AND DUP2 LT PUSH2 0x1630 JUMPI POP SWAP2 DUP4 SWAP2 PUSH1 0x1 SWAP4 PUSH1 0x10 SWAP6 PUSH1 0x1F NOT DUP2 AND LT PUSH2 0x1617 JUMPI JUMPDEST POP POP POP DUP2 SHL ADD SWAP2 ADD SSTORE PUSH2 0x1271 JUMP JUMPDEST ADD MLOAD PUSH1 0x0 NOT PUSH1 0xF8 DUP5 PUSH1 0x3 SHL AND SHR NOT AND SWAP1 SSTORE DUP5 DUP1 DUP1 PUSH2 0x1609 JUMP JUMPDEST SWAP2 SWAP3 PUSH1 0x20 PUSH1 0x1 DUP2 SWAP3 DUP7 DUP6 ADD MLOAD DUP2 SSTORE ADD SWAP5 ADD SWAP3 ADD PUSH2 0x15E9 JUMP JUMPDEST ADD MLOAD SWAP1 POP DUP4 DUP1 PUSH2 0x11F5 JUMP JUMPDEST SWAP3 POP PUSH1 0xF DUP5 ADD PUSH1 0x0 MSTORE PUSH1 0x20 PUSH1 0x0 KECCAK256 SWAP1 PUSH1 0x0 SWAP4 JUMPDEST PUSH1 0x1F NOT DUP5 AND DUP6 LT PUSH2 0x16AA JUMPI PUSH1 0x1 SWAP5 POP DUP4 PUSH1 0x1F NOT DUP2 AND LT PUSH2 0x1691 JUMPI JUMPDEST POP POP POP DUP2 SHL ADD PUSH1 0xF DUP3 ADD SSTORE PUSH2 0x120D JUMP JUMPDEST ADD MLOAD PUSH1 0x0 NOT PUSH1 0xF8 DUP5 PUSH1 0x3 SHL AND SHR NOT AND SWAP1 SSTORE DUP4 DUP1 DUP1 PUSH2 0x1681 JUMP JUMPDEST DUP2 DUP2 ADD MLOAD DUP4 SSTORE PUSH1 0x20 SWAP5 DUP6 ADD SWAP5 PUSH1 0x1 SWAP1 SWAP4 ADD SWAP3 SWAP1 SWAP2 ADD SWAP1 PUSH2 0x1666 JUMP JUMPDEST ADD MLOAD SWAP1 POP DUP4 DUP1 PUSH2 0x1192 JUMP JUMPDEST SWAP3 POP PUSH1 0xE DUP5 ADD PUSH1 0x0 MSTORE PUSH1 0x20 PUSH1 0x0 KECCAK256 SWAP1 PUSH1 0x0 SWAP4 JUMPDEST PUSH1 0x1F NOT DUP5 AND DUP6 LT PUSH2 0x1727 JUMPI PUSH1 0x1 SWAP5 POP DUP4 PUSH1 0x1F NOT DUP2 AND LT PUSH2 0x170E JUMPI JUMPDEST POP POP POP DUP2 SHL ADD PUSH1 0xE DUP3 ADD SSTORE PUSH2 0x11AA JUMP JUMPDEST ADD MLOAD PUSH1 0x0 NOT PUSH1 0xF8 DUP5 PUSH1 0x3 SHL AND SHR NOT AND SWAP1 SSTORE DUP4 DUP1 DUP1 PUSH2 0x16FE JUMP JUMPDEST DUP2 DUP2 ADD MLOAD DUP4 SSTORE PUSH1 0x20 SWAP5 DUP6 ADD SWAP5 PUSH1 0x1 SWAP1 SWAP4 ADD SWAP3 SWAP1 SWAP2 ADD SWAP1 PUSH2 0x16E3 JUMP JUMPDEST ADD MLOAD SWAP1 POP DUP4 DUP1 PUSH2 0x112F JUMP JUMPDEST SWAP3 POP PUSH1 0xD DUP5 ADD PUSH1 0x0 MSTORE PUSH1 0x20 PUSH1 0x0 KECCAK256 SWAP1 PUSH1 0x0 SWAP4 JUMPDEST PUSH1 0x1F NOT DUP5 AND DUP6 LT PUSH2 0x17A4 JUMPI PUSH1 0x1 SWAP5 POP DUP4 PUSH1 0x1F NOT DUP2 AND LT PUSH2 0x178B JUMPI JUMPDEST POP POP POP DUP2 SHL ADD PUSH1 0xD DUP3 ADD SSTORE PUSH2 0x1147 JUMP JUMPDEST ADD MLOAD PUSH1 0x0 NOT PUSH1 0xF8 DUP5 PUSH1 0x3 SHL AND SHR NOT AND SWAP1 SSTORE DUP4 DUP1 DUP1 PUSH2 0x177B JUMP JUMPDEST DUP2 DUP2 ADD MLOAD DUP4 SSTORE PUSH1 0x20 SWAP5 DUP6 ADD SWAP5 PUSH1 0x1 SWAP1 SWAP4 ADD SWAP3 SWAP1 SWAP2 ADD SWAP1 PUSH2 0x1760 JUMP JUMPDEST ADD MLOAD SWAP1 POP DUP4 DUP1 PUSH2 0x10CC JUMP JUMPDEST SWAP3 POP PUSH1 0xC DUP5 ADD PUSH1 0x0 MSTORE PUSH1 0x20 PUSH1 0x0 KECCAK256 SWAP1 PUSH1 0x0 SWAP4 JUMPDEST PUSH1 0x1F NOT DUP5 AND DUP6 LT PUSH2 0x1821 JUMPI PUSH1 0x1 SWAP5 POP DUP4 PUSH1 0x1F NOT DUP2 AND LT PUSH2 0x1808 JUMPI JUMPDEST POP POP POP DUP2 SHL ADD PUSH1 0xC DUP3 ADD SSTORE PUSH2 0x10E4 JUMP JUMPDEST ADD MLOAD PUSH1 0x0 NOT PUSH1 0xF8 DUP5 PUSH1 0x3 SHL AND SHR NOT AND SWAP1 SSTORE DUP4 DUP1 DUP1 PUSH2 0x17F8 JUMP JUMPDEST DUP2 DUP2 ADD MLOAD DUP4 SSTORE PUSH1 0x20 SWAP5 DUP6 ADD SWAP5 PUSH1 0x1 SWAP1 SWAP4 ADD SWAP3 SWAP1 SWAP2 ADD SWAP1 PUSH2 0x17DD JUMP JUMPDEST ADD MLOAD SWAP1 POP DUP4 DUP1 PUSH2 0x1069 JUMP JUMPDEST SWAP3 POP PUSH1 0xB DUP5 ADD PUSH1 0x0 MSTORE PUSH1 0x20 PUSH1 0x0 KECCAK256 SWAP1 PUSH1 0x0 SWAP4 JUMPDEST PUSH1 0x1F NOT DUP5 AND DUP6 LT PUSH2 0x189E JUMPI PUSH1 0x1 SWAP5 POP DUP4 PUSH1 0x1F NOT DUP2 AND LT PUSH2 0x1885 JUMPI JUMPDEST POP POP POP DUP2 SHL ADD PUSH1 0xB DUP3 ADD SSTORE PUSH2 0x1081 JUMP JUMPDEST ADD MLOAD PUSH1 0x0 NOT PUSH1 0xF8 DUP5 PUSH1 0x3 SHL AND SHR NOT AND SWAP1 SSTORE DUP4 DUP1 DUP1 PUSH2 0x1875 JUMP JUMPDEST DUP2 DUP2 ADD MLOAD DUP4 SSTORE PUSH1 0x20 SWAP5 DUP6 ADD SWAP5 PUSH1 0x1 SWAP1 SWAP4 ADD SWAP3 SWAP1 SWAP2 ADD SWAP1 PUSH2 0x185A JUMP JUMPDEST ADD MLOAD SWAP1 POP DUP4 DUP1 PUSH2 0x1006 JUMP JUMPDEST SWAP3 POP PUSH1 0xA DUP5 ADD PUSH1 0x0 MSTORE PUSH1 0x20 PUSH1 0x0 KECCAK256 SWAP1 PUSH1 0x0 SWAP4 JUMPDEST PUSH1 0x1F NOT DUP5 AND DUP6 LT PUSH2 0x191B JUMPI PUSH1 0x1 SWAP5 POP DUP4 PUSH1 0x1F NOT DUP2 AND LT PUSH2 0x1902 JUMPI JUMPDEST POP POP POP DUP2 SHL ADD PUSH1 0xA DUP3 ADD SSTORE PUSH2 0x101E JUMP JUMPDEST ADD MLOAD PUSH1 0x0 NOT PUSH1 0xF8 DUP5 PUSH1 0x3 SHL AND SHR NOT AND SWAP1 SSTORE DUP4 DUP1 DUP1 PUSH2 0x18F2 JUMP JUMPDEST DUP2 DUP2 ADD MLOAD DUP4 SSTORE PUSH1 0x20 SWAP5 DUP6 ADD SWAP5 PUSH1 0x1 SWAP1 SWAP4 ADD SWAP3 SWAP1 SWAP2 ADD SWAP1 PUSH2 0x18D7 JUMP JUMPDEST ADD MLOAD SWAP1 POP DUP4 DUP1 PUSH2 0xFA3 JUMP JUMPDEST SWAP3 POP PUSH1 0x9 DUP5 ADD PUSH1 0x0 MSTORE PUSH1 0x20 PUSH1 0x0 KECCAK256 SWAP1 PUSH1 0x0 SWAP4 JUMPDEST PUSH1 0x1F NOT DUP5 AND DUP6 LT PUSH2 0x1998 JUMPI PUSH1 0x1 SWAP5 POP DUP4 PUSH1 0x1F NOT DUP2 AND LT PUSH2 0x197F JUMPI JUMPDEST POP POP POP DUP2 SHL ADD PUSH1 0x9 DUP3 ADD SSTORE PUSH2 0xFBB JUMP JUMPDEST ADD MLOAD PUSH1 0x0 NOT PUSH1 0xF8 DUP5 PUSH1 0x3 SHL AND SHR NOT AND SWAP1 SSTORE DUP4 DUP1 DUP1 PUSH2 0x196F JUMP JUMPDEST DUP2 DUP2 ADD MLOAD DUP4 SSTORE PUSH1 0x20 SWAP5 DUP6 ADD SWAP5 PUSH1 0x1 SWAP1 SWAP4 ADD SWAP3 SWAP1 SWAP2 ADD SWAP1 PUSH2 0x1954 JUMP JUMPDEST ADD MLOAD SWAP1 POP DUP4 DUP1 PUSH2 0xF40 JUMP JUMPDEST SWAP3 POP PUSH1 0x8 DUP5 ADD PUSH1 0x0 MSTORE PUSH1 0x20 PUSH1 0x0 KECCAK256 SWAP1 PUSH1 0x0 SWAP4 JUMPDEST PUSH1 0x1F NOT DUP5 AND DUP6 LT PUSH2 0x1A15 JUMPI PUSH1 0x1 SWAP5 POP DUP4 PUSH1 0x1F NOT DUP2 AND LT PUSH2 0x19FC JUMPI JUMPDEST POP POP POP DUP2 SHL ADD PUSH1 0x8 DUP3 ADD SSTORE PUSH2 0xF58 JUMP JUMPDEST ADD MLOAD PUSH1 0x0 NOT PUSH1 0xF8 DUP5 PUSH1 0x3 SHL AND SHR NOT AND SWAP1 SSTORE DUP4 DUP1 DUP1 PUSH2 0x19EC JUMP JUMPDEST DUP2 DUP2 ADD MLOAD DUP4 SSTORE PUSH1 0x20 SWAP5 DUP6 ADD SWAP5 PUSH1 0x1 SWAP1 SWAP4 ADD SWAP3 SWAP1 SWAP2 ADD SWAP1 PUSH2 0x19D1 JUMP JUMPDEST ADD MLOAD SWAP1 POP DUP4 DUP1 PUSH2 0xEDD JUMP JUMPDEST SWAP3 POP PUSH1 0x7 DUP5 ADD PUSH1 0x0 MSTORE PUSH1 0x20 PUSH1 0x0 KECCAK256 SWAP1 PUSH1 0x0 SWAP4 JUMPDEST PUSH1 0x1F NOT DUP5 AND DUP6 LT PUSH2 0x1A92 JUMPI PUSH1 0x1 SWAP5 POP DUP4 PUSH1 0x1F NOT DUP2 AND LT PUSH2 0x1A79 JUMPI JUMPDEST POP POP POP DUP2 SHL ADD PUSH1 0x7 DUP3 ADD SSTORE PUSH2 0xEF5 JUMP JUMPDEST ADD MLOAD PUSH1 0x0 NOT PUSH1 0xF8 DUP5 PUSH1 0x3 SHL AND SHR NOT AND SWAP1 SSTORE DUP4 DUP1 DUP1 PUSH2 0x1A69 JUMP JUMPDEST DUP2 DUP2 ADD MLOAD DUP4 SSTORE PUSH1 0x20 SWAP5 DUP6 ADD SWAP5 PUSH1 0x1 SWAP1 SWAP4 ADD SWAP3 SWAP1 SWAP2 ADD SWAP1 PUSH2 0x1A4E JUMP JUMPDEST ADD MLOAD SWAP1 POP DUP4 DUP1 PUSH2 0xE7B JUMP JUMPDEST SWAP3 POP PUSH1 0x6 DUP5 ADD PUSH1 0x0 MSTORE PUSH1 0x20 PUSH1 0x0 KECCAK256 SWAP1 PUSH1 0x0 SWAP4 JUMPDEST PUSH1 0x1F NOT DUP5 AND DUP6 LT PUSH2 0x1B0F JUMPI PUSH1 0x1 SWAP5 POP DUP4 PUSH1 0x1F NOT DUP2 AND LT PUSH2 0x1AF6 JUMPI JUMPDEST POP POP POP DUP2 SHL ADD PUSH1 0x6 DUP3 ADD SSTORE PUSH2 0xE93 JUMP JUMPDEST ADD MLOAD PUSH1 0x0 NOT PUSH1 0xF8 DUP5 PUSH1 0x3 SHL AND SHR NOT AND SWAP1 SSTORE DUP4 DUP1 DUP1 PUSH2 0x1AE6 JUMP JUMPDEST DUP2 DUP2 ADD MLOAD DUP4 SSTORE PUSH1 0x20 SWAP5 DUP6 ADD SWAP5 PUSH1 0x1 SWAP1 SWAP4 ADD SWAP3 SWAP1 SWAP2 ADD SWAP1 PUSH2 0x1ACB JUMP JUMPDEST ADD MLOAD SWAP1 POP DUP4 DUP1 PUSH2 0xE19 JUMP JUMPDEST SWAP3 POP PUSH1 0x5 DUP5 ADD PUSH1 0x0 MSTORE PUSH1 0x20 PUSH1 0x0 KECCAK256 SWAP1 PUSH1 0x0 SWAP4 JUMPDEST PUSH1 0x1F NOT DUP5 AND DUP6 LT PUSH2 0x1B8C JUMPI PUSH1 0x1 SWAP5 POP DUP4 PUSH1 0x1F NOT DUP2 AND LT PUSH2 0x1B73 JUMPI JUMPDEST POP POP POP DUP2 SHL ADD PUSH1 0x5 DUP3 ADD SSTORE PUSH2 0xE31 JUMP JUMPDEST ADD MLOAD PUSH1 0x0 NOT PUSH1 0xF8 DUP5 PUSH1 0x3 SHL AND SHR NOT AND SWAP1 SSTORE DUP4 DUP1 DUP1 PUSH2 0x1B63 JUMP JUMPDEST DUP2 DUP2 ADD MLOAD DUP4 SSTORE PUSH1 0x20 SWAP5 DUP6 ADD SWAP5 PUSH1 0x1 SWAP1 SWAP4 ADD SWAP3 SWAP1 SWAP2 ADD SWAP1 PUSH2 0x1B48 JUMP JUMPDEST ADD MLOAD SWAP1 POP DUP4 DUP1 PUSH2 0xDB8 JUMP JUMPDEST SWAP3 POP PUSH1 0x4 DUP5 ADD PUSH1 0x0 MSTORE PUSH1 0x20 PUSH1 0x0 KECCAK256 SWAP1 PUSH1 0x0 SWAP4 JUMPDEST PUSH1 0x1F NOT DUP5 AND DUP6 LT PUSH2 0x1C09 JUMPI PUSH1 0x1 SWAP5 POP DUP4 PUSH1 0x1F NOT DUP2 AND LT PUSH2 0x1BF0 JUMPI JUMPDEST POP POP POP DUP2 SHL ADD PUSH1 0x4 DUP3 ADD SSTORE PUSH2 0xDD0 JUMP JUMPDEST ADD MLOAD PUSH1 0x0 NOT PUSH1 0xF8 DUP5 PUSH1 0x3 SHL AND SHR NOT AND SWAP1 SSTORE DUP4 DUP1 DUP1 PUSH2 0x1BE0 JUMP JUMPDEST DUP2 DUP2 ADD MLOAD DUP4 SSTORE PUSH1 0x20 SWAP5 DUP6 ADD SWAP5 PUSH1 0x1 SWAP1 SWAP4 ADD SWAP3 SWAP1 SWAP2 ADD SWAP1 PUSH2 0x1BC5 JUMP JUMPDEST ADD MLOAD SWAP1 POP DUP4 DUP1 PUSH2 0xD56 JUMP JUMPDEST SWAP3 POP PUSH1 0x3 DUP5 ADD PUSH1 0x0 MSTORE PUSH1 0x20 PUSH1 0x0 KECCAK256 SWAP1 PUSH1 0x0 SWAP4 JUMPDEST PUSH1 0x1F NOT DUP5 AND DUP6 LT PUSH2 0x1C86 JUMPI PUSH1 0x1 SWAP5 POP DUP4 PUSH1 0x1F NOT DUP2 AND LT PUSH2 0x1C6D JUMPI JUMPDEST POP POP POP DUP2 SHL ADD PUSH1 0x3 DUP3 ADD SSTORE PUSH2 0xD6E JUMP JUMPDEST ADD MLOAD PUSH1 0x0 NOT PUSH1 0xF8 DUP5 PUSH1 0x3 SHL AND SHR NOT AND SWAP1 SSTORE DUP4 DUP1 DUP1 PUSH2 0x1C5D JUMP JUMPDEST DUP2 DUP2 ADD MLOAD DUP4 SSTORE PUSH1 0x20 SWAP5 DUP6 ADD SWAP5 PUSH1 0x1 SWAP1 SWAP4 ADD SWAP3 SWAP1 SWAP2 ADD SWAP1 PUSH2 0x1C42 JUMP JUMPDEST ADD MLOAD SWAP1 POP DUP4 DUP1 PUSH2 0xCF4 JUMP JUMPDEST SWAP3 POP PUSH1 0x2 DUP5 ADD PUSH1 0x0 MSTORE PUSH1 0x20 PUSH1 0x0 KECCAK256 SWAP1 PUSH1 0x0 SWAP4 JUMPDEST PUSH1 0x1F NOT DUP5 AND DUP6 LT PUSH2 0x1D03 JUMPI PUSH1 0x1 SWAP5 POP DUP4 PUSH1 0x1F NOT DUP2 AND LT PUSH2 0x1CEA JUMPI JUMPDEST POP POP POP DUP2 SHL ADD PUSH1 0x2 DUP3 ADD SSTORE PUSH2 0xD0C JUMP JUMPDEST ADD MLOAD PUSH1 0x0 NOT PUSH1 0xF8 DUP5 PUSH1 0x3 SHL AND SHR NOT AND SWAP1 SSTORE DUP4 DUP1 DUP1 PUSH2 0x1CDA JUMP JUMPDEST DUP2 DUP2 ADD MLOAD DUP4 SSTORE PUSH1 0x20 SWAP5 DUP6 ADD SWAP5 PUSH1 0x1 SWAP1 SWAP4 ADD SWAP3 SWAP1 SWAP2 ADD SWAP1 PUSH2 0x1CBF JUMP JUMPDEST ADD MLOAD SWAP1 POP DUP4 DUP1 PUSH2 0xC92 JUMP JUMPDEST SWAP3 POP PUSH1 0x1 DUP5 ADD PUSH1 0x0 MSTORE PUSH1 0x20 PUSH1 0x0 KECCAK256 SWAP1 PUSH1 0x0 SWAP4 JUMPDEST PUSH1 0x1F NOT DUP5 AND DUP6 LT PUSH2 0x1D80 JUMPI PUSH1 0x1 SWAP5 POP DUP4 PUSH1 0x1F NOT DUP2 AND LT PUSH2 0x1D67 JUMPI JUMPDEST POP POP POP DUP2 SHL ADD PUSH1 0x1 DUP3 ADD SSTORE PUSH2 0xCAA JUMP JUMPDEST ADD MLOAD PUSH1 0x0 NOT PUSH1 0xF8 DUP5 PUSH1 0x3 SHL AND SHR NOT AND SWAP1 SSTORE DUP4 DUP1 DUP1 PUSH2 0x1D57 JUMP JUMPDEST DUP2 DUP2 ADD MLOAD DUP4 SSTORE PUSH1 0x20 SWAP5 DUP6 ADD SWAP5 PUSH1 0x1 SWAP1 SWAP4 ADD SWAP3 SWAP1 SWAP2 ADD SWAP1 PUSH2 0x1D3C JUMP JUMPDEST ADD MLOAD SWAP1 POP DUP4 DUP1 PUSH2 0xC33 JUMP JUMPDEST SWAP3 POP DUP4 PUSH1 0x0 MSTORE PUSH1 0x20 PUSH1 0x0 KECCAK256 SWAP1 PUSH1 0x0 SWAP4 JUMPDEST PUSH1 0x1F NOT DUP5 AND DUP6 LT PUSH2 0x1DF7 JUMPI PUSH1 0x1 SWAP5 POP DUP4 PUSH1 0x1F NOT DUP2 AND LT PUSH2 0x1DDE JUMPI JUMPDEST POP POP POP DUP2 SHL ADD DUP2 SSTORE PUSH2 0xC48 JUMP JUMPDEST ADD MLOAD PUSH1 0x0 NOT PUSH1 0xF8 DUP5 PUSH1 0x3 SHL AND SHR NOT AND SWAP1 SSTORE DUP4 DUP1 DUP1 PUSH2 0x1DD1 JUMP JUMPDEST DUP2 DUP2 ADD MLOAD DUP4 SSTORE PUSH1 0x20 SWAP5 DUP6 ADD SWAP5 PUSH1 0x1 SWAP1 SWAP4 ADD SWAP3 SWAP1 SWAP2 ADD SWAP1 PUSH2 0x1DB6 JUMP JUMPDEST PUSH1 0x40 MLOAD PUSH3 0x461BCD PUSH1 0xE5 SHL DUP2 MSTORE PUSH1 0x20 PUSH1 0x4 DUP3 ADD MSTORE PUSH1 0xB PUSH1 0x24 DUP3 ADD MSTORE PUSH11 0x139BDD081CDD195DD85C99 PUSH1 0xAA SHL PUSH1 0x44 DUP3 ADD MSTORE PUSH1 0x64 SWAP1 REVERT JUMPDEST CALLVALUE PUSH2 0x331 JUMPI PUSH1 0x20 CALLDATASIZE PUSH1 0x3 NOT ADD SLT PUSH2 0x331 JUMPI PUSH1 0x4 CALLDATALOAD PUSH1 0x2 SLOAD DUP2 LT ISZERO PUSH2 0x331 JUMPI PUSH2 0x1E6C SWAP1 PUSH2 0x1E90 JUMP JUMPDEST PUSH2 0x15B7 JUMPI PUSH2 0x1E7C PUSH2 0x708 SWAP2 PUSH2 0x1F54 JUMP JUMPDEST PUSH1 0x40 MLOAD SWAP2 DUP3 SWAP2 PUSH1 0x20 DUP4 MSTORE PUSH1 0x20 DUP4 ADD SWAP1 PUSH2 0x201D JUMP JUMPDEST PUSH1 0x2 SLOAD DUP2 LT ISZERO PUSH2 0x1EC7 JUMPI PUSH1 0x2 PUSH1 0x0 MSTORE PUSH32 0x405787FA12A823E0F2B7631CC41B3BA8828B3321CA811111FA75CD3AA3BB5ACE ADD SWAP1 PUSH1 0x0 SWAP1 JUMP JUMPDEST PUSH4 0x4E487B71 PUSH1 0xE0 SHL PUSH1 0x0 MSTORE PUSH1 0x32 PUSH1 0x4 MSTORE PUSH1 0x24 PUSH1 0x0 REVERT JUMPDEST SWAP1 PUSH1 0x1 DUP3 DUP2 SHR SWAP3 AND DUP1 ISZERO PUSH2 0x1F0D JUMPI JUMPDEST PUSH1 0x20 DUP4 LT EQ PUSH2 0x1EF7 JUMPI JUMP JUMPDEST PUSH4 0x4E487B71 PUSH1 0xE0 SHL PUSH1 0x0 MSTORE PUSH1 0x22 PUSH1 0x4 MSTORE PUSH1 0x24 PUSH1 0x0 REVERT JUMPDEST SWAP2 PUSH1 0x7F AND SWAP2 PUSH2 0x1EEC JUMP JUMPDEST PUSH2 0x220 DUP2 ADD SWAP1 DUP2 LT PUSH1 0x1 PUSH1 0x1 PUSH1 0x40 SHL SUB DUP3 GT OR PUSH2 0x15A1 JUMPI PUSH1 0x40 MSTORE JUMP JUMPDEST SWAP1 PUSH1 0x1F DUP1 NOT SWAP2 ADD AND DUP2 ADD SWAP1 DUP2 LT PUSH1 0x1 PUSH1 0x1 PUSH1 0x40 SHL SUB DUP3 GT OR PUSH2 0x15A1 JUMPI PUSH1 0x40 MSTORE JUMP JUMPDEST SWAP1 PUSH1 0x40 MLOAD SWAP2 DUP3 PUSH1 0x0 DUP3 SLOAD SWAP3 PUSH2 0x1F68 DUP5 PUSH2 0x1EDD JUMP JUMPDEST SWAP1 DUP2 DUP5 MSTORE PUSH1 0x1 SWAP5 DUP6 DUP2 AND SWAP1 DUP2 PUSH1 0x0 EQ PUSH2 0x1FD7 JUMPI POP PUSH1 0x1 EQ PUSH2 0x1F94 JUMPI JUMPDEST POP POP PUSH2 0x1F92 SWAP3 POP SUB DUP4 PUSH2 0x1F33 JUMP JUMPDEST JUMP JUMPDEST SWAP1 SWAP4 SWAP2 POP PUSH1 0x0 MSTORE PUSH1 0x20 SWAP1 DUP2 PUSH1 0x0 KECCAK256 SWAP4 PUSH1 0x0 SWAP2 JUMPDEST DUP2 DUP4 LT PUSH2 0x1FBF JUMPI POP POP PUSH2 0x1F92 SWAP4 POP DUP3 ADD ADD CODESIZE DUP1 PUSH2 0x1F84 JUMP JUMPDEST DUP6 SLOAD DUP9 DUP5 ADD DUP6 ADD MSTORE SWAP5 DUP6 ADD SWAP5 DUP8 SWAP5 POP SWAP2 DUP4 ADD SWAP2 PUSH2 0x1FA7 JUMP JUMPDEST SWAP2 POP POP PUSH2 0x1F92 SWAP5 POP PUSH1 0x20 SWAP3 POP PUSH1 0xFF NOT AND DUP3 DUP5 ADD MSTORE ISZERO ISZERO PUSH1 0x5 SHL DUP3 ADD ADD CODESIZE DUP1 PUSH2 0x1F84 JUMP JUMPDEST PUSH1 0x0 JUMPDEST DUP4 DUP2 LT PUSH2 0x200D JUMPI POP POP PUSH1 0x0 SWAP2 ADD MSTORE JUMP JUMPDEST DUP2 DUP2 ADD MLOAD DUP4 DUP3 ADD MSTORE PUSH1 0x20 ADD PUSH2 0x1FFD JUMP JUMPDEST SWAP1 PUSH1 0x20 SWAP2 PUSH2 0x2036 DUP2 MLOAD DUP1 SWAP3 DUP2 DUP6 MSTORE DUP6 DUP1 DUP7 ADD SWAP2 ADD PUSH2 0x1FFA JUMP JUMPDEST PUSH1 0x1F ADD PUSH1 0x1F NOT AND ADD ADD SWAP1 JUMP JUMPDEST SWAP2 DUP2 PUSH1 0x1F DUP5 ADD SLT ISZERO PUSH2 0x331 JUMPI DUP3 CALLDATALOAD SWAP2 PUSH1 0x1 PUSH1 0x1 PUSH1 0x40 SHL SUB DUP4 GT PUSH2 0x331 JUMPI PUSH1 0x20 DUP4 DUP2 DUP7 ADD SWAP6 ADD ADD GT PUSH2 0x331 JUMPI JUMP JUMPDEST SWAP3 SWAP2 SWAP3 PUSH1 0x1 PUSH1 0x1 PUSH1 0x40 SHL SUB DUP3 GT PUSH2 0x15A1 JUMPI PUSH1 0x40 MLOAD SWAP2 PUSH2 0x2098 PUSH1 0x1F DUP3 ADD PUSH1 0x1F NOT AND PUSH1 0x20 ADD DUP5 PUSH2 0x1F33 JUMP JUMPDEST DUP3 SWAP5 DUP2 DUP5 MSTORE DUP2 DUP4 ADD GT PUSH2 0x331 JUMPI DUP3 DUP2 PUSH1 0x20 SWAP4 DUP5 PUSH1 0x0 SWAP7 ADD CALLDATACOPY ADD ADD MSTORE JUMP JUMPDEST SWAP1 PUSH1 0x1F DUP2 GT PUSH2 0x20C3 JUMPI POP POP POP JUMP JUMPDEST PUSH1 0x0 SWAP2 DUP3 MSTORE PUSH1 0x20 DUP3 KECCAK256 SWAP1 PUSH1 0x20 PUSH1 0x1F DUP6 ADD PUSH1 0x5 SHR DUP4 ADD SWAP5 LT PUSH2 0x20FF JUMPI JUMPDEST PUSH1 0x1F ADD PUSH1 0x5 SHR ADD SWAP2 JUMPDEST DUP3 DUP2 LT PUSH2 0x20F4 JUMPI POP POP POP JUMP JUMPDEST DUP2 DUP2 SSTORE PUSH1 0x1 ADD PUSH2 0x20E8 JUMP JUMPDEST SWAP1 SWAP3 POP DUP3 SWAP1 PUSH2 0x20DF JUMP JUMPDEST SWAP1 DUP1 PUSH1 0x20 SWAP4 SWAP3 DUP2 DUP5 MSTORE DUP5 DUP5 ADD CALLDATACOPY PUSH1 0x0 DUP3 DUP3 ADD DUP5 ADD MSTORE PUSH1 0x1F ADD PUSH1 0x1F NOT AND ADD ADD SWAP1 JUMP INVALID LOG2 PUSH5 0x6970667358 0x22 SLT KECCAK256 0xCA MSTORE 0xE3 0xE4 0xC8 PUSH8 0x78B451E2E4B4A2FF 0xDD SWAP12 DUP7 DUP11 0xA7 0xA8 0xE7 0xBF 0xCE 0xA6 0xED SWAP11 0xA9 CALLDATASIZE 0xDD ADDMOD NUMBER REVERT PUSH5 0x736F6C6343 STOP ADDMOD EQ STOP CALLER "},"methodIdentifiers":{"codices(string)":"dbc21424","getCodex(string)":"83361522","inscribeCodex(string,string,string,string,string,string,string,string,string,string,string,string,string,string,string,string,string,string)":"35e2d840","keys(uint256)":"0cb6aaf1","steward()":"637eea19","totalCodices()":"c212d16b"}}}}}