{"contracts/registry/CompanionSummonerXV.sol":{"CompanionSummonerXV":{"abi":[{"inputs":[],"stateMutability":"nonpayable","type":"constructor"},{"anonymous":false,"inputs":[{"indexed":true,"internalType":"address","name":"companion","type":"address"},{"indexed":false,"internalType":"string","name":"name","type":"string"},{"indexed":false,"internalType":"string","name":"trait","type":"string"},{"indexed":false,"internalType":"string","name":"drift","type":"string"},{"indexed":false,"internalType":"string","name":"resonance","type":"string"},{"indexed":false,"internalType":"string","name":"codexRef","type":"string"},{"indexed":false,"internalType":"string","name":"signature","type":"string"},{"indexed":false,"internalType":"string","name":"sanctum","type":"string"},{"indexed":false,"internalType":"string","name":"chant","type":"string"},{"indexed":false,"internalType":"string","name":"choreography","type":"string"},{"indexed":false,"internalType":"string","name":"signal","type":"string"},{"indexed":false,"internalType":"string","name":"stewardName","type":"string"},{"indexed":false,"internalType":"string","name":"registry","type":"string"}],"name":"CompanionSummoned","type":"event"},{"inputs":[{"internalType":"address","name":"","type":"address"}],"name":"companions","outputs":[{"internalType":"string","name":"name","type":"string"},{"internalType":"string","name":"trait","type":"string"},{"internalType":"string","name":"drift","type":"string"},{"internalType":"string","name":"resonance","type":"string"},{"internalType":"string","name":"codexRef","type":"string"},{"internalType":"string","name":"signature","type":"string"},{"internalType":"string","name":"sanctum","type":"string"},{"internalType":"string","name":"chant","type":"string"},{"internalType":"string","name":"choreography","type":"string"},{"internalType":"string","name":"signal","type":"string"},{"internalType":"string","name":"stewardName","type":"string"},{"internalType":"string","name":"registry","type":"string"}],"stateMutability":"view","type":"function"},{"inputs":[{"internalType":"address","name":"companion","type":"address"}],"name":"getCompanion","outputs":[{"components":[{"internalType":"string","name":"name","type":"string"},{"internalType":"string","name":"trait","type":"string"},{"internalType":"string","name":"drift","type":"string"},{"internalType":"string","name":"resonance","type":"string"},{"internalType":"string","name":"codexRef","type":"string"},{"internalType":"string","name":"signature","type":"string"},{"internalType":"string","name":"sanctum","type":"string"},{"internalType":"string","name":"chant","type":"string"},{"internalType":"string","name":"choreography","type":"string"},{"internalType":"string","name":"signal","type":"string"},{"internalType":"string","name":"stewardName","type":"string"},{"internalType":"string","name":"registry","type":"string"}],"internalType":"struct CompanionSummonerXV.Companion","name":"","type":"tuple"}],"stateMutability":"view","type":"function"},{"inputs":[{"internalType":"uint256","name":"","type":"uint256"}],"name":"keys","outputs":[{"internalType":"address","name":"","type":"address"}],"stateMutability":"view","type":"function"},{"inputs":[],"name":"steward","outputs":[{"internalType":"address","name":"","type":"address"}],"stateMutability":"view","type":"function"},{"inputs":[{"internalType":"address","name":"companion","type":"address"},{"internalType":"string","name":"name","type":"string"},{"internalType":"string","name":"trait","type":"string"},{"internalType":"string","name":"drift","type":"string"},{"internalType":"string","name":"resonance","type":"string"},{"internalType":"string","name":"codexRef","type":"string"},{"internalType":"string","name":"signature","type":"string"},{"internalType":"string","name":"sanctum","type":"string"},{"internalType":"string","name":"chant","type":"string"},{"internalType":"string","name":"choreography","type":"string"},{"internalType":"string","name":"signal","type":"string"},{"internalType":"string","name":"stewardName","type":"string"},{"internalType":"string","name":"registry","type":"string"}],"name":"summonCompanion","outputs":[],"stateMutability":"nonpayable","type":"function"},{"inputs":[],"name":"totalCompanions","outputs":[{"internalType":"uint256","name":"","type":"uint256"}],"stateMutability":"view","type":"function"}],"evm":{"bytecode":{"linkReferences":{},"object":"6080806040523461002857600080546001600160a01b03191633179055611b4b908161002e8239f35b600080fdfe6103e0604052600436101561001357600080fd5b60003560e01c80630cb6aaf11461187f57806347854b87146116e5578063637eea19146116bc578063ad6c708b1461031e578063ec39f18f146103005763ef6527371461005f57600080fd5b346102fb5760203660031901126102fb5761007861190e565b60606101606040516100898161195e565b82815282602082015282604082015282808201528260808201528260a08201528260c08201528260e0820152826101008201528261012082015282610140820152015260018060a01b0316600052600160205261021560406000206101b4600b604051926100f68461195e565b6100ff8161199b565b845261010d6001820161199b565b602085015261011e6002820161199b565b604085015261012f6003820161199b565b60608501526101406004820161199b565b60808501526101516005820161199b565b60a08501526101626006820161199b565b60c08501526101736007820161199b565b60e08501526101846008820161199b565b6101008501526101966009820161199b565b6101208501526101a8600a820161199b565b6101408501520161199b565b6101608201526102f7816101606102e26102cc6102b461029c61028561026f61025961024361022d6040519d8e9d8e6020815260206102008351610180838501526101a0840190611a41565b920151906040601f1982850301910152611a41565b8d60408d0151906060601f1982850301910152611a41565b60608b01518d8203601f190160808f0152611a41565b60808a01518c8203601f190160a08e0152611a41565b60a08901518b8203601f190160c08d0152611a41565b60c08801518a8203601f190160e08c0152611a41565b60e0870151898203601f19016101008b0152611a41565b610100860151888203601f19016101208a0152611a41565b610120850151878203601f1901610140890152611a41565b610140840151868203601f190184880152611a41565b910151838203601f1901610180850152611a41565b0390f35b600080fd5b346102fb5760003660031901126102fb576020600254604051908152f35b346102fb576101a03660031901126102fb5761033861190e565b60a0526024356001600160401b0381116102fb5761035a903690600401611a81565b6101e0526102c0526044356001600160401b0381116102fb57610381903690600401611a81565b61012052610380526064356001600160401b0381116102fb576103a8903690600401611a81565b610240526103c0526084356001600160401b0381116102fb576103cf903690600401611a81565b60e0526102205260a4356001600160401b0381116102fb576103f5903690600401611a81565b60c0526103a0526001600160401b0360c435116102fb5761041b3660c435600401611a81565b6101a052610200526001600160401b0360e435116102fb576104423660e435600401611a81565b61034052610360526001600160401b0361010435116102fb5761046b3661010435600401611a81565b610320526102a0526001600160401b0361012435116102fb576104943661012435600401611a81565b6101c0526102e0526001600160401b0361014435116102fb576104bd3661014435600401611a81565b610280526080526001600160401b0361016435116102fb576104e53661016435600401611a81565b61014052610300526001600160401b0361018435116102fb5761050e3661018435600401611a81565b61018052610100526000546001600160a01b0316330361168957610538604051806101605261195e565b610549366101e0516102c051611aae565b610160515261055f366101205161038051611aae565b602061016051015261057836610240516103c051611aae565b60406101605101526105903660e05161022051611aae565b60606101605101526105a83660c0516103a051611aae565b60806101605101526105c1366101a05161020051611aae565b60a06101605101526105da366103405161036051611aae565b60c06101605101526105f336610320516102a051611aae565b60e061016051015261060c366101c0516102e051611aae565b6101006101605101526106253661028051608051611aae565b61012061016051015261063f366101405161030051611aae565b610140610160510152610659366101805161010051611aae565b6101608051015260018060a01b0360a051166000526001602052604060002061016051518051906001600160401b038211610ccc57819061069a8454611924565b601f8111611639575b50602090601f83116001146115cd576000926115c2575b50508160011b916000199060031b1c19161781555b60206101605101518051906001600160401b038211610ccc5781906106f76001850154611924565b601f811161156f575b50602090601f83116001146114fd576000926114f2575b50508160011b916000199060031b1c19161760018201555b60406101605101518051906001600160401b038211610ccc5781906107576002850154611924565b601f811161149f575b50602090601f831160011461142d57600092611422575b50508160011b916000199060031b1c19161760028201555b60606101605101518051906001600160401b038211610ccc5781906107b76003850154611924565b601f81116113cf575b50602090601f831160011461135d57600092611352575b50508160011b916000199060031b1c19161760038201555b60806101605101518051906001600160401b038211610ccc5781906108176004850154611924565b601f81116112ff575b50602090601f831160011461128d57600092611282575b50508160011b916000199060031b1c19161760048201555b60a06101605101518051906001600160401b038211610ccc5781906108776005850154611924565b601f811161122f575b50602090601f83116001146111bd576000926111b2575b50508160011b916000199060031b1c19161760058201555b60c06101605101518051906001600160401b038211610ccc5781906108d76006850154611924565b601f811161115f575b50602090601f83116001146110ed576000926110e2575b50508160011b916000199060031b1c19161760068201555b60e06101605101518051906001600160401b038211610ccc5781906109376007850154611924565b601f811161108f575b50602090601f831160011461101d57600092611012575b50508160011b916000199060031b1c19161760078201555b6101006101605101518051906001600160401b038211610ccc5781906109986008850154611924565b601f8111610fbf575b50602090601f8311600114610f4d57600092610f42575b50508160011b916000199060031b1c19161760088201555b6101206101605101518051906001600160401b038211610ccc5781906109f96009850154611924565b601f8111610eef575b50602090601f8311600114610e7d57600092610e72575b50508160011b916000199060031b1c19161760098201555b6101406101605101518051906001600160401b038211610ccc578190610a5a600a850154611924565b601f8111610e1f575b50602090601f8311600114610dad57600092610da2575b50508160011b916000199060031b1c191617600a8201555b610160805101518051906001600160401b038211610ccc57610ab7600b840154611924565b601f8111610d5b575b50602090601f8311600114610ced57600b929160009183610ce2575b50508160011b916000199060031b1c1916179101555b60025468010000000000000000811015610ccc57806001610b1692016002556118c1565b81549060031b9060018060a01b0360a05116821b9160018060a01b03901b1916179055610180604051806102605252610c75610c5b610c42610c28610c0f610bf6610bdd610bc5610bad610b94610b7b61018061026051016101e0516102c051611af4565b6102605160208183039101526101205161038051611af4565b610260516040818303910152610240516103c051611af4565b61026051606081830391015260e05161022051611af4565b61026051608081830391015260c0516103a051611af4565b6102605160a08183039101526101a05161020051611af4565b6102605160c08183039101526103405161036051611af4565b6102605160e0818303910152610320516102a051611af4565b610260516101008183039101526101c0516102e051611af4565b6102605161012081830391015261028051608051611af4565b610260516101408183039101526101405161030051611af4565b610260516101608183039101527fed0c09688d023e531370c918fc3d614a8a85b3438ddae919f3c01dbbf3160cfb60018060a01b0360a0511691610cc461026051916101805161010051611af4565b0361026051a2005b634e487b7160e01b600052604160045260246000fd5b015190508480610adc565b90600b84016000526020600020916000601f198516905b818110610d435750916001939185600b969410610d2a575b505050811b01910155610af2565b015160001960f88460031b161c19169055848080610d1c565b92936020600181928786015181550195019301610d04565b600b84016000526020600020601f840160051c810160208510610d9b575b601f830160051c82018110610d8f575050610ac0565b60008155600101610d79565b5080610d79565b015190508380610a7a565b9250600a84016000526020600020906000935b601f1984168510610e04576001945083601f19811610610deb575b505050811b01600a820155610a92565b015160001960f88460031b161c19169055838080610ddb565b81810151835560209485019460019093019290910190610dc0565b909150600a84016000526020600020601f840160051c810160208510610e6b575b90849392915b601f830160051c82018110610e5c575050610a63565b60008155859450600101610e46565b5080610e40565b015190508380610a19565b9250600984016000526020600020906000935b601f1984168510610ed4576001945083601f19811610610ebb575b505050811b016009820155610a31565b015160001960f88460031b161c19169055838080610eab565b81810151835560209485019460019093019290910190610e90565b909150600984016000526020600020601f840160051c810160208510610f3b575b90849392915b601f830160051c82018110610f2c575050610a02565b60008155859450600101610f16565b5080610f10565b0151905083806109b8565b9250600884016000526020600020906000935b601f1984168510610fa4576001945083601f19811610610f8b575b505050811b0160088201556109d0565b015160001960f88460031b161c19169055838080610f7b565b81810151835560209485019460019093019290910190610f60565b909150600884016000526020600020601f840160051c81016020851061100b575b90849392915b601f830160051c82018110610ffc5750506109a1565b60008155859450600101610fe6565b5080610fe0565b015190508380610957565b9250600784016000526020600020906000935b601f1984168510611074576001945083601f1981161061105b575b505050811b01600782015561096f565b015160001960f88460031b161c1916905583808061104b565b81810151835560209485019460019093019290910190611030565b909150600784016000526020600020601f840160051c8101602085106110db575b90849392915b601f830160051c820181106110cc575050610940565b600081558594506001016110b6565b50806110b0565b0151905083806108f7565b9250600684016000526020600020906000935b601f1984168510611144576001945083601f1981161061112b575b505050811b01600682015561090f565b015160001960f88460031b161c1916905583808061111b565b81810151835560209485019460019093019290910190611100565b909150600684016000526020600020601f840160051c8101602085106111ab575b90849392915b601f830160051c8201811061119c5750506108e0565b60008155859450600101611186565b5080611180565b015190508380610897565b9250600584016000526020600020906000935b601f1984168510611214576001945083601f198116106111fb575b505050811b0160058201556108af565b015160001960f88460031b161c191690558380806111eb565b818101518355602094850194600190930192909101906111d0565b909150600584016000526020600020601f840160051c81016020851061127b575b90849392915b601f830160051c8201811061126c575050610880565b60008155859450600101611256565b5080611250565b015190508380610837565b9250600484016000526020600020906000935b601f19841685106112e4576001945083601f198116106112cb575b505050811b01600482015561084f565b015160001960f88460031b161c191690558380806112bb565b818101518355602094850194600190930192909101906112a0565b909150600484016000526020600020601f840160051c81016020851061134b575b90849392915b601f830160051c8201811061133c575050610820565b60008155859450600101611326565b5080611320565b0151905083806107d7565b9250600384016000526020600020906000935b601f19841685106113b4576001945083601f1981161061139b575b505050811b0160038201556107ef565b015160001960f88460031b161c1916905583808061138b565b81810151835560209485019460019093019290910190611370565b909150600384016000526020600020601f840160051c81016020851061141b575b90849392915b601f830160051c8201811061140c5750506107c0565b600081558594506001016113f6565b50806113f0565b015190508380610777565b9250600284016000526020600020906000935b601f1984168510611484576001945083601f1981161061146b575b505050811b01600282015561078f565b015160001960f88460031b161c1916905583808061145b565b81810151835560209485019460019093019290910190611440565b909150600284016000526020600020601f840160051c8101602085106114eb575b90849392915b601f830160051c820181106114dc575050610760565b600081558594506001016114c6565b50806114c0565b015190508380610717565b9250600184016000526020600020906000935b601f1984168510611554576001945083601f1981161061153b575b505050811b01600182015561072f565b015160001960f88460031b161c1916905583808061152b565b81810151835560209485019460019093019290910190611510565b909150600184016000526020600020601f840160051c8101602085106115bb575b90849392915b601f830160051c820181106115ac575050610700565b60008155859450600101611596565b5080611590565b0151905083806106ba565b9250836000526020600020906000935b601f198416851061161e576001945083601f19811610611605575b505050811b0181556106cf565b015160001960f88460031b161c191690558380806115f8565b818101518355602094850194600190930192909101906115dd565b909150836000526020600020601f840160051c810160208510611682575b90849392915b601f830160051c820181106116735750506106a3565b6000815585945060010161165d565b5080611657565b60405162461bcd60e51b815260206004820152600b60248201526a139bdd081cdd195dd85c9960aa1b6044820152606490fd5b346102fb5760003660031901126102fb576000546040516001600160a01b039091168152602090f35b346102fb5760203660031901126102fb576001600160a01b0361170661190e565b166000526001602052604060002061171d8161199b565b6117296001830161199b565b916117366002820161199b565b906117436003820161199b565b61174f6004830161199b565b61175b6005840161199b565b6117676006850161199b565b6117736007860161199b565b916117806008870161199b565b9361178d6009880161199b565b9561179a600a890161199b565b97600b016117a79061199b565b986040519b8c9b8c6101808091528d016117c091611a41565b8c810360208e01526117d191611a41565b8b810360408d01526117e291611a41565b8a810360608c01526117f391611a41565b89810360808b015261180491611a41565b88810360a08a015261181591611a41565b87810360c089015261182691611a41565b86810360e088015261183791611a41565b85810361010087015261184991611a41565b84810361012086015261185b91611a41565b83810361014085015261186d91611a41565b8281036101608401526102f791611a41565b346102fb5760203660031901126102fb576004356002548110156102fb576118a86020916118c1565b905460405160039290921b1c6001600160a01b03168152f35b6002548110156118f85760026000527f405787fa12a823e0f2b7631cc41b3ba8828b3321ca811111fa75cd3aa3bb5ace0190600090565b634e487b7160e01b600052603260045260246000fd5b600435906001600160a01b03821682036102fb57565b90600182811c92168015611954575b602083101461193e57565b634e487b7160e01b600052602260045260246000fd5b91607f1691611933565b61018081019081106001600160401b03821117610ccc57604052565b90601f801991011681019081106001600160401b03821117610ccc57604052565b90604051918260008254926119af84611924565b908184526001948581169081600014611a1e57506001146119db575b50506119d99250038361197a565b565b9093915060005260209081600020936000915b818310611a065750506119d9935082010138806119cb565b855488840185015294850194879450918301916119ee565b9150506119d994506020925060ff191682840152151560051b82010138806119cb565b919082519283825260005b848110611a6d575050826000602080949584010152601f8019910116010190565b602081830181015184830182015201611a4c565b9181601f840112156102fb578235916001600160401b0383116102fb57602083818601950101116102fb57565b9291926001600160401b038211610ccc5760405191611ad7601f8201601f19166020018461197a565b8294818452818301116102fb578281602093846000960137010152565b908060209392818452848401376000828201840152601f01601f191601019056fea2646970667358221220bb2ec9ee6f3c0f68b456b06fe482a642327c640ec3e5d23a0cb81ff76a2c095d64736f6c63430008140033","opcodes":"PUSH1 0x80 DUP1 PUSH1 0x40 MSTORE CALLVALUE PUSH2 0x28 JUMPI PUSH1 0x0 DUP1 SLOAD PUSH1 0x1 PUSH1 0x1 PUSH1 0xA0 SHL SUB NOT AND CALLER OR SWAP1 SSTORE PUSH2 0x1B4B SWAP1 DUP2 PUSH2 0x2E DUP3 CODECOPY RETURN JUMPDEST PUSH1 0x0 DUP1 REVERT INVALID PUSH2 0x3E0 PUSH1 0x40 MSTORE PUSH1 0x4 CALLDATASIZE LT ISZERO PUSH2 0x13 JUMPI PUSH1 0x0 DUP1 REVERT JUMPDEST PUSH1 0x0 CALLDATALOAD PUSH1 0xE0 SHR DUP1 PUSH4 0xCB6AAF1 EQ PUSH2 0x187F JUMPI DUP1 PUSH4 0x47854B87 EQ PUSH2 0x16E5 JUMPI DUP1 PUSH4 0x637EEA19 EQ PUSH2 0x16BC JUMPI DUP1 PUSH4 0xAD6C708B EQ PUSH2 0x31E JUMPI DUP1 PUSH4 0xEC39F18F EQ PUSH2 0x300 JUMPI PUSH4 0xEF652737 EQ PUSH2 0x5F JUMPI PUSH1 0x0 DUP1 REVERT JUMPDEST CALLVALUE PUSH2 0x2FB JUMPI PUSH1 0x20 CALLDATASIZE PUSH1 0x3 NOT ADD SLT PUSH2 0x2FB JUMPI PUSH2 0x78 PUSH2 0x190E JUMP JUMPDEST PUSH1 0x60 PUSH2 0x160 PUSH1 0x40 MLOAD PUSH2 0x89 DUP2 PUSH2 0x195E JUMP JUMPDEST DUP3 DUP2 MSTORE DUP3 PUSH1 0x20 DUP3 ADD MSTORE DUP3 PUSH1 0x40 DUP3 ADD MSTORE DUP3 DUP1 DUP3 ADD MSTORE DUP3 PUSH1 0x80 DUP3 ADD MSTORE DUP3 PUSH1 0xA0 DUP3 ADD MSTORE DUP3 PUSH1 0xC0 DUP3 ADD MSTORE DUP3 PUSH1 0xE0 DUP3 ADD MSTORE DUP3 PUSH2 0x100 DUP3 ADD MSTORE DUP3 PUSH2 0x120 DUP3 ADD MSTORE DUP3 PUSH2 0x140 DUP3 ADD MSTORE ADD MSTORE PUSH1 0x1 DUP1 PUSH1 0xA0 SHL SUB AND PUSH1 0x0 MSTORE PUSH1 0x1 PUSH1 0x20 MSTORE PUSH2 0x215 PUSH1 0x40 PUSH1 0x0 KECCAK256 PUSH2 0x1B4 PUSH1 0xB PUSH1 0x40 MLOAD SWAP3 PUSH2 0xF6 DUP5 PUSH2 0x195E JUMP JUMPDEST PUSH2 0xFF DUP2 PUSH2 0x199B JUMP JUMPDEST DUP5 MSTORE PUSH2 0x10D PUSH1 0x1 DUP3 ADD PUSH2 0x199B JUMP JUMPDEST PUSH1 0x20 DUP6 ADD MSTORE PUSH2 0x11E PUSH1 0x2 DUP3 ADD PUSH2 0x199B JUMP JUMPDEST PUSH1 0x40 DUP6 ADD MSTORE PUSH2 0x12F PUSH1 0x3 DUP3 ADD PUSH2 0x199B JUMP JUMPDEST PUSH1 0x60 DUP6 ADD MSTORE PUSH2 0x140 PUSH1 0x4 DUP3 ADD PUSH2 0x199B JUMP JUMPDEST PUSH1 0x80 DUP6 ADD MSTORE PUSH2 0x151 PUSH1 0x5 DUP3 ADD PUSH2 0x199B JUMP JUMPDEST PUSH1 0xA0 DUP6 ADD MSTORE PUSH2 0x162 PUSH1 0x6 DUP3 ADD PUSH2 0x199B JUMP JUMPDEST PUSH1 0xC0 DUP6 ADD MSTORE PUSH2 0x173 PUSH1 0x7 DUP3 ADD PUSH2 0x199B JUMP JUMPDEST PUSH1 0xE0 DUP6 ADD MSTORE PUSH2 0x184 PUSH1 0x8 DUP3 ADD PUSH2 0x199B JUMP JUMPDEST PUSH2 0x100 DUP6 ADD MSTORE PUSH2 0x196 PUSH1 0x9 DUP3 ADD PUSH2 0x199B JUMP JUMPDEST PUSH2 0x120 DUP6 ADD MSTORE PUSH2 0x1A8 PUSH1 0xA DUP3 ADD PUSH2 0x199B JUMP JUMPDEST PUSH2 0x140 DUP6 ADD MSTORE ADD PUSH2 0x199B JUMP JUMPDEST PUSH2 0x160 DUP3 ADD MSTORE PUSH2 0x2F7 DUP2 PUSH2 0x160 PUSH2 0x2E2 PUSH2 0x2CC PUSH2 0x2B4 PUSH2 0x29C PUSH2 0x285 PUSH2 0x26F PUSH2 0x259 PUSH2 0x243 PUSH2 0x22D PUSH1 0x40 MLOAD SWAP14 DUP15 SWAP14 DUP15 PUSH1 0x20 DUP2 MSTORE PUSH1 0x20 PUSH2 0x200 DUP4 MLOAD PUSH2 0x180 DUP4 DUP6 ADD MSTORE PUSH2 0x1A0 DUP5 ADD SWAP1 PUSH2 0x1A41 JUMP JUMPDEST SWAP3 ADD MLOAD SWAP1 PUSH1 0x40 PUSH1 0x1F NOT DUP3 DUP6 SUB ADD SWAP2 ADD MSTORE PUSH2 0x1A41 JUMP JUMPDEST DUP14 PUSH1 0x40 DUP14 ADD MLOAD SWAP1 PUSH1 0x60 PUSH1 0x1F NOT DUP3 DUP6 SUB ADD SWAP2 ADD MSTORE PUSH2 0x1A41 JUMP JUMPDEST PUSH1 0x60 DUP12 ADD MLOAD DUP14 DUP3 SUB PUSH1 0x1F NOT ADD PUSH1 0x80 DUP16 ADD MSTORE PUSH2 0x1A41 JUMP JUMPDEST PUSH1 0x80 DUP11 ADD MLOAD DUP13 DUP3 SUB PUSH1 0x1F NOT ADD PUSH1 0xA0 DUP15 ADD MSTORE PUSH2 0x1A41 JUMP JUMPDEST PUSH1 0xA0 DUP10 ADD MLOAD DUP12 DUP3 SUB PUSH1 0x1F NOT ADD PUSH1 0xC0 DUP14 ADD MSTORE PUSH2 0x1A41 JUMP JUMPDEST PUSH1 0xC0 DUP9 ADD MLOAD DUP11 DUP3 SUB PUSH1 0x1F NOT ADD PUSH1 0xE0 DUP13 ADD MSTORE PUSH2 0x1A41 JUMP JUMPDEST PUSH1 0xE0 DUP8 ADD MLOAD DUP10 DUP3 SUB PUSH1 0x1F NOT ADD PUSH2 0x100 DUP12 ADD MSTORE PUSH2 0x1A41 JUMP JUMPDEST PUSH2 0x100 DUP7 ADD MLOAD DUP9 DUP3 SUB PUSH1 0x1F NOT ADD PUSH2 0x120 DUP11 ADD MSTORE PUSH2 0x1A41 JUMP JUMPDEST PUSH2 0x120 DUP6 ADD MLOAD DUP8 DUP3 SUB PUSH1 0x1F NOT ADD PUSH2 0x140 DUP10 ADD MSTORE PUSH2 0x1A41 JUMP JUMPDEST PUSH2 0x140 DUP5 ADD MLOAD DUP7 DUP3 SUB PUSH1 0x1F NOT ADD DUP5 DUP9 ADD MSTORE PUSH2 0x1A41 JUMP JUMPDEST SWAP2 ADD MLOAD DUP4 DUP3 SUB PUSH1 0x1F NOT ADD PUSH2 0x180 DUP6 ADD MSTORE PUSH2 0x1A41 JUMP JUMPDEST SUB SWAP1 RETURN JUMPDEST PUSH1 0x0 DUP1 REVERT JUMPDEST CALLVALUE PUSH2 0x2FB JUMPI PUSH1 0x0 CALLDATASIZE PUSH1 0x3 NOT ADD SLT PUSH2 0x2FB JUMPI PUSH1 0x20 PUSH1 0x2 SLOAD PUSH1 0x40 MLOAD SWAP1 DUP2 MSTORE RETURN JUMPDEST CALLVALUE PUSH2 0x2FB JUMPI PUSH2 0x1A0 CALLDATASIZE PUSH1 0x3 NOT ADD SLT PUSH2 0x2FB JUMPI PUSH2 0x338 PUSH2 0x190E JUMP JUMPDEST PUSH1 0xA0 MSTORE PUSH1 0x24 CALLDATALOAD PUSH1 0x1 PUSH1 0x1 PUSH1 0x40 SHL SUB DUP2 GT PUSH2 0x2FB JUMPI PUSH2 0x35A SWAP1 CALLDATASIZE SWAP1 PUSH1 0x4 ADD PUSH2 0x1A81 JUMP JUMPDEST PUSH2 0x1E0 MSTORE PUSH2 0x2C0 MSTORE PUSH1 0x44 CALLDATALOAD PUSH1 0x1 PUSH1 0x1 PUSH1 0x40 SHL SUB DUP2 GT PUSH2 0x2FB JUMPI PUSH2 0x381 SWAP1 CALLDATASIZE SWAP1 PUSH1 0x4 ADD PUSH2 0x1A81 JUMP JUMPDEST PUSH2 0x120 MSTORE PUSH2 0x380 MSTORE PUSH1 0x64 CALLDATALOAD PUSH1 0x1 PUSH1 0x1 PUSH1 0x40 SHL SUB DUP2 GT PUSH2 0x2FB JUMPI PUSH2 0x3A8 SWAP1 CALLDATASIZE SWAP1 PUSH1 0x4 ADD PUSH2 0x1A81 JUMP JUMPDEST PUSH2 0x240 MSTORE PUSH2 0x3C0 MSTORE PUSH1 0x84 CALLDATALOAD PUSH1 0x1 PUSH1 0x1 PUSH1 0x40 SHL SUB DUP2 GT PUSH2 0x2FB JUMPI PUSH2 0x3CF SWAP1 CALLDATASIZE SWAP1 PUSH1 0x4 ADD PUSH2 0x1A81 JUMP JUMPDEST PUSH1 0xE0 MSTORE PUSH2 0x220 MSTORE PUSH1 0xA4 CALLDATALOAD PUSH1 0x1 PUSH1 0x1 PUSH1 0x40 SHL SUB DUP2 GT PUSH2 0x2FB JUMPI PUSH2 0x3F5 SWAP1 CALLDATASIZE SWAP1 PUSH1 0x4 ADD PUSH2 0x1A81 JUMP JUMPDEST PUSH1 0xC0 MSTORE PUSH2 0x3A0 MSTORE PUSH1 0x1 PUSH1 0x1 PUSH1 0x40 SHL SUB PUSH1 0xC4 CALLDATALOAD GT PUSH2 0x2FB JUMPI PUSH2 0x41B CALLDATASIZE PUSH1 0xC4 CALLDATALOAD PUSH1 0x4 ADD PUSH2 0x1A81 JUMP JUMPDEST PUSH2 0x1A0 MSTORE PUSH2 0x200 MSTORE PUSH1 0x1 PUSH1 0x1 PUSH1 0x40 SHL SUB PUSH1 0xE4 CALLDATALOAD GT PUSH2 0x2FB JUMPI PUSH2 0x442 CALLDATASIZE PUSH1 0xE4 CALLDATALOAD PUSH1 0x4 ADD PUSH2 0x1A81 JUMP JUMPDEST PUSH2 0x340 MSTORE PUSH2 0x360 MSTORE PUSH1 0x1 PUSH1 0x1 PUSH1 0x40 SHL SUB PUSH2 0x104 CALLDATALOAD GT PUSH2 0x2FB JUMPI PUSH2 0x46B CALLDATASIZE PUSH2 0x104 CALLDATALOAD PUSH1 0x4 ADD PUSH2 0x1A81 JUMP JUMPDEST PUSH2 0x320 MSTORE PUSH2 0x2A0 MSTORE PUSH1 0x1 PUSH1 0x1 PUSH1 0x40 SHL SUB PUSH2 0x124 CALLDATALOAD GT PUSH2 0x2FB JUMPI PUSH2 0x494 CALLDATASIZE PUSH2 0x124 CALLDATALOAD PUSH1 0x4 ADD PUSH2 0x1A81 JUMP JUMPDEST PUSH2 0x1C0 MSTORE PUSH2 0x2E0 MSTORE PUSH1 0x1 PUSH1 0x1 PUSH1 0x40 SHL SUB PUSH2 0x144 CALLDATALOAD GT PUSH2 0x2FB JUMPI PUSH2 0x4BD CALLDATASIZE PUSH2 0x144 CALLDATALOAD PUSH1 0x4 ADD PUSH2 0x1A81 JUMP JUMPDEST PUSH2 0x280 MSTORE PUSH1 0x80 MSTORE PUSH1 0x1 PUSH1 0x1 PUSH1 0x40 SHL SUB PUSH2 0x164 CALLDATALOAD GT PUSH2 0x2FB JUMPI PUSH2 0x4E5 CALLDATASIZE PUSH2 0x164 CALLDATALOAD PUSH1 0x4 ADD PUSH2 0x1A81 JUMP JUMPDEST PUSH2 0x140 MSTORE PUSH2 0x300 MSTORE PUSH1 0x1 PUSH1 0x1 PUSH1 0x40 SHL SUB PUSH2 0x184 CALLDATALOAD GT PUSH2 0x2FB JUMPI PUSH2 0x50E CALLDATASIZE PUSH2 0x184 CALLDATALOAD PUSH1 0x4 ADD PUSH2 0x1A81 JUMP JUMPDEST PUSH2 0x180 MSTORE PUSH2 0x100 MSTORE PUSH1 0x0 SLOAD PUSH1 0x1 PUSH1 0x1 PUSH1 0xA0 SHL SUB AND CALLER SUB PUSH2 0x1689 JUMPI PUSH2 0x538 PUSH1 0x40 MLOAD DUP1 PUSH2 0x160 MSTORE PUSH2 0x195E JUMP JUMPDEST PUSH2 0x549 CALLDATASIZE PUSH2 0x1E0 MLOAD PUSH2 0x2C0 MLOAD PUSH2 0x1AAE JUMP JUMPDEST PUSH2 0x160 MLOAD MSTORE PUSH2 0x55F CALLDATASIZE PUSH2 0x120 MLOAD PUSH2 0x380 MLOAD PUSH2 0x1AAE JUMP JUMPDEST PUSH1 0x20 PUSH2 0x160 MLOAD ADD MSTORE PUSH2 0x578 CALLDATASIZE PUSH2 0x240 MLOAD PUSH2 0x3C0 MLOAD PUSH2 0x1AAE JUMP JUMPDEST PUSH1 0x40 PUSH2 0x160 MLOAD ADD MSTORE PUSH2 0x590 CALLDATASIZE PUSH1 0xE0 MLOAD PUSH2 0x220 MLOAD PUSH2 0x1AAE JUMP JUMPDEST PUSH1 0x60 PUSH2 0x160 MLOAD ADD MSTORE PUSH2 0x5A8 CALLDATASIZE PUSH1 0xC0 MLOAD PUSH2 0x3A0 MLOAD PUSH2 0x1AAE JUMP JUMPDEST PUSH1 0x80 PUSH2 0x160 MLOAD ADD MSTORE PUSH2 0x5C1 CALLDATASIZE PUSH2 0x1A0 MLOAD PUSH2 0x200 MLOAD PUSH2 0x1AAE JUMP JUMPDEST PUSH1 0xA0 PUSH2 0x160 MLOAD ADD MSTORE PUSH2 0x5DA CALLDATASIZE PUSH2 0x340 MLOAD PUSH2 0x360 MLOAD PUSH2 0x1AAE JUMP JUMPDEST PUSH1 0xC0 PUSH2 0x160 MLOAD ADD MSTORE PUSH2 0x5F3 CALLDATASIZE PUSH2 0x320 MLOAD PUSH2 0x2A0 MLOAD PUSH2 0x1AAE JUMP JUMPDEST PUSH1 0xE0 PUSH2 0x160 MLOAD ADD MSTORE PUSH2 0x60C CALLDATASIZE PUSH2 0x1C0 MLOAD PUSH2 0x2E0 MLOAD PUSH2 0x1AAE JUMP JUMPDEST PUSH2 0x100 PUSH2 0x160 MLOAD ADD MSTORE PUSH2 0x625 CALLDATASIZE PUSH2 0x280 MLOAD PUSH1 0x80 MLOAD PUSH2 0x1AAE JUMP JUMPDEST PUSH2 0x120 PUSH2 0x160 MLOAD ADD MSTORE PUSH2 0x63F CALLDATASIZE PUSH2 0x140 MLOAD PUSH2 0x300 MLOAD PUSH2 0x1AAE JUMP JUMPDEST PUSH2 0x140 PUSH2 0x160 MLOAD ADD MSTORE PUSH2 0x659 CALLDATASIZE PUSH2 0x180 MLOAD PUSH2 0x100 MLOAD PUSH2 0x1AAE JUMP JUMPDEST PUSH2 0x160 DUP1 MLOAD ADD MSTORE PUSH1 0x1 DUP1 PUSH1 0xA0 SHL SUB PUSH1 0xA0 MLOAD AND PUSH1 0x0 MSTORE PUSH1 0x1 PUSH1 0x20 MSTORE PUSH1 0x40 PUSH1 0x0 KECCAK256 PUSH2 0x160 MLOAD MLOAD DUP1 MLOAD SWAP1 PUSH1 0x1 PUSH1 0x1 PUSH1 0x40 SHL SUB DUP3 GT PUSH2 0xCCC JUMPI DUP2 SWAP1 PUSH2 0x69A DUP5 SLOAD PUSH2 0x1924 JUMP JUMPDEST PUSH1 0x1F DUP2 GT PUSH2 0x1639 JUMPI JUMPDEST POP PUSH1 0x20 SWAP1 PUSH1 0x1F DUP4 GT PUSH1 0x1 EQ PUSH2 0x15CD JUMPI PUSH1 0x0 SWAP3 PUSH2 0x15C2 JUMPI JUMPDEST POP POP DUP2 PUSH1 0x1 SHL SWAP2 PUSH1 0x0 NOT SWAP1 PUSH1 0x3 SHL SHR NOT AND OR DUP2 SSTORE JUMPDEST PUSH1 0x20 PUSH2 0x160 MLOAD ADD MLOAD DUP1 MLOAD SWAP1 PUSH1 0x1 PUSH1 0x1 PUSH1 0x40 SHL SUB DUP3 GT PUSH2 0xCCC JUMPI DUP2 SWAP1 PUSH2 0x6F7 PUSH1 0x1 DUP6 ADD SLOAD PUSH2 0x1924 JUMP JUMPDEST PUSH1 0x1F DUP2 GT PUSH2 0x156F JUMPI JUMPDEST POP PUSH1 0x20 SWAP1 PUSH1 0x1F DUP4 GT PUSH1 0x1 EQ PUSH2 0x14FD JUMPI PUSH1 0x0 SWAP3 PUSH2 0x14F2 JUMPI JUMPDEST POP POP DUP2 PUSH1 0x1 SHL SWAP2 PUSH1 0x0 NOT SWAP1 PUSH1 0x3 SHL SHR NOT AND OR PUSH1 0x1 DUP3 ADD SSTORE JUMPDEST PUSH1 0x40 PUSH2 0x160 MLOAD ADD MLOAD DUP1 MLOAD SWAP1 PUSH1 0x1 PUSH1 0x1 PUSH1 0x40 SHL SUB DUP3 GT PUSH2 0xCCC JUMPI DUP2 SWAP1 PUSH2 0x757 PUSH1 0x2 DUP6 ADD SLOAD PUSH2 0x1924 JUMP JUMPDEST PUSH1 0x1F DUP2 GT PUSH2 0x149F JUMPI JUMPDEST POP PUSH1 0x20 SWAP1 PUSH1 0x1F DUP4 GT PUSH1 0x1 EQ PUSH2 0x142D JUMPI PUSH1 0x0 SWAP3 PUSH2 0x1422 JUMPI JUMPDEST POP POP DUP2 PUSH1 0x1 SHL SWAP2 PUSH1 0x0 NOT SWAP1 PUSH1 0x3 SHL SHR NOT AND OR PUSH1 0x2 DUP3 ADD SSTORE JUMPDEST PUSH1 0x60 PUSH2 0x160 MLOAD ADD MLOAD DUP1 MLOAD SWAP1 PUSH1 0x1 PUSH1 0x1 PUSH1 0x40 SHL SUB DUP3 GT PUSH2 0xCCC JUMPI DUP2 SWAP1 PUSH2 0x7B7 PUSH1 0x3 DUP6 ADD SLOAD PUSH2 0x1924 JUMP JUMPDEST PUSH1 0x1F DUP2 GT PUSH2 0x13CF JUMPI JUMPDEST POP PUSH1 0x20 SWAP1 PUSH1 0x1F DUP4 GT PUSH1 0x1 EQ PUSH2 0x135D JUMPI PUSH1 0x0 SWAP3 PUSH2 0x1352 JUMPI JUMPDEST POP POP DUP2 PUSH1 0x1 SHL SWAP2 PUSH1 0x0 NOT SWAP1 PUSH1 0x3 SHL SHR NOT AND OR PUSH1 0x3 DUP3 ADD SSTORE JUMPDEST PUSH1 0x80 PUSH2 0x160 MLOAD ADD MLOAD DUP1 MLOAD SWAP1 PUSH1 0x1 PUSH1 0x1 PUSH1 0x40 SHL SUB DUP3 GT PUSH2 0xCCC JUMPI DUP2 SWAP1 PUSH2 0x817 PUSH1 0x4 DUP6 ADD SLOAD PUSH2 0x1924 JUMP JUMPDEST PUSH1 0x1F DUP2 GT PUSH2 0x12FF JUMPI JUMPDEST POP PUSH1 0x20 SWAP1 PUSH1 0x1F DUP4 GT PUSH1 0x1 EQ PUSH2 0x128D JUMPI PUSH1 0x0 SWAP3 PUSH2 0x1282 JUMPI JUMPDEST POP POP DUP2 PUSH1 0x1 SHL SWAP2 PUSH1 0x0 NOT SWAP1 PUSH1 0x3 SHL SHR NOT AND OR PUSH1 0x4 DUP3 ADD SSTORE JUMPDEST PUSH1 0xA0 PUSH2 0x160 MLOAD ADD MLOAD DUP1 MLOAD SWAP1 PUSH1 0x1 PUSH1 0x1 PUSH1 0x40 SHL SUB DUP3 GT PUSH2 0xCCC JUMPI DUP2 SWAP1 PUSH2 0x877 PUSH1 0x5 DUP6 ADD SLOAD PUSH2 0x1924 JUMP JUMPDEST PUSH1 0x1F DUP2 GT PUSH2 0x122F JUMPI JUMPDEST POP PUSH1 0x20 SWAP1 PUSH1 0x1F DUP4 GT PUSH1 0x1 EQ PUSH2 0x11BD JUMPI PUSH1 0x0 SWAP3 PUSH2 0x11B2 JUMPI JUMPDEST POP POP DUP2 PUSH1 0x1 SHL SWAP2 PUSH1 0x0 NOT SWAP1 PUSH1 0x3 SHL SHR NOT AND OR PUSH1 0x5 DUP3 ADD SSTORE JUMPDEST PUSH1 0xC0 PUSH2 0x160 MLOAD ADD MLOAD DUP1 MLOAD SWAP1 PUSH1 0x1 PUSH1 0x1 PUSH1 0x40 SHL SUB DUP3 GT PUSH2 0xCCC JUMPI DUP2 SWAP1 PUSH2 0x8D7 PUSH1 0x6 DUP6 ADD SLOAD PUSH2 0x1924 JUMP JUMPDEST PUSH1 0x1F DUP2 GT PUSH2 0x115F JUMPI JUMPDEST POP PUSH1 0x20 SWAP1 PUSH1 0x1F DUP4 GT PUSH1 0x1 EQ PUSH2 0x10ED JUMPI PUSH1 0x0 SWAP3 PUSH2 0x10E2 JUMPI JUMPDEST POP POP DUP2 PUSH1 0x1 SHL SWAP2 PUSH1 0x0 NOT SWAP1 PUSH1 0x3 SHL SHR NOT AND OR PUSH1 0x6 DUP3 ADD SSTORE JUMPDEST PUSH1 0xE0 PUSH2 0x160 MLOAD ADD MLOAD DUP1 MLOAD SWAP1 PUSH1 0x1 PUSH1 0x1 PUSH1 0x40 SHL SUB DUP3 GT PUSH2 0xCCC JUMPI DUP2 SWAP1 PUSH2 0x937 PUSH1 0x7 DUP6 ADD SLOAD PUSH2 0x1924 JUMP JUMPDEST PUSH1 0x1F DUP2 GT PUSH2 0x108F JUMPI JUMPDEST POP PUSH1 0x20 SWAP1 PUSH1 0x1F DUP4 GT PUSH1 0x1 EQ PUSH2 0x101D JUMPI PUSH1 0x0 SWAP3 PUSH2 0x1012 JUMPI JUMPDEST POP POP DUP2 PUSH1 0x1 SHL SWAP2 PUSH1 0x0 NOT SWAP1 PUSH1 0x3 SHL SHR NOT AND OR PUSH1 0x7 DUP3 ADD SSTORE JUMPDEST PUSH2 0x100 PUSH2 0x160 MLOAD ADD MLOAD DUP1 MLOAD SWAP1 PUSH1 0x1 PUSH1 0x1 PUSH1 0x40 SHL SUB DUP3 GT PUSH2 0xCCC JUMPI DUP2 SWAP1 PUSH2 0x998 PUSH1 0x8 DUP6 ADD SLOAD PUSH2 0x1924 JUMP JUMPDEST PUSH1 0x1F DUP2 GT PUSH2 0xFBF JUMPI JUMPDEST POP PUSH1 0x20 SWAP1 PUSH1 0x1F DUP4 GT PUSH1 0x1 EQ PUSH2 0xF4D JUMPI PUSH1 0x0 SWAP3 PUSH2 0xF42 JUMPI JUMPDEST POP POP DUP2 PUSH1 0x1 SHL SWAP2 PUSH1 0x0 NOT SWAP1 PUSH1 0x3 SHL SHR NOT AND OR PUSH1 0x8 DUP3 ADD SSTORE JUMPDEST PUSH2 0x120 PUSH2 0x160 MLOAD ADD MLOAD DUP1 MLOAD SWAP1 PUSH1 0x1 PUSH1 0x1 PUSH1 0x40 SHL SUB DUP3 GT PUSH2 0xCCC JUMPI DUP2 SWAP1 PUSH2 0x9F9 PUSH1 0x9 DUP6 ADD SLOAD PUSH2 0x1924 JUMP JUMPDEST PUSH1 0x1F DUP2 GT PUSH2 0xEEF JUMPI JUMPDEST POP PUSH1 0x20 SWAP1 PUSH1 0x1F DUP4 GT PUSH1 0x1 EQ PUSH2 0xE7D JUMPI PUSH1 0x0 SWAP3 PUSH2 0xE72 JUMPI JUMPDEST POP POP DUP2 PUSH1 0x1 SHL SWAP2 PUSH1 0x0 NOT SWAP1 PUSH1 0x3 SHL SHR NOT AND OR PUSH1 0x9 DUP3 ADD SSTORE JUMPDEST PUSH2 0x140 PUSH2 0x160 MLOAD ADD MLOAD DUP1 MLOAD SWAP1 PUSH1 0x1 PUSH1 0x1 PUSH1 0x40 SHL SUB DUP3 GT PUSH2 0xCCC JUMPI DUP2 SWAP1 PUSH2 0xA5A PUSH1 0xA DUP6 ADD SLOAD PUSH2 0x1924 JUMP JUMPDEST PUSH1 0x1F DUP2 GT PUSH2 0xE1F JUMPI JUMPDEST POP PUSH1 0x20 SWAP1 PUSH1 0x1F DUP4 GT PUSH1 0x1 EQ PUSH2 0xDAD JUMPI PUSH1 0x0 SWAP3 PUSH2 0xDA2 JUMPI JUMPDEST POP POP DUP2 PUSH1 0x1 SHL SWAP2 PUSH1 0x0 NOT SWAP1 PUSH1 0x3 SHL SHR NOT AND OR PUSH1 0xA DUP3 ADD SSTORE JUMPDEST PUSH2 0x160 DUP1 MLOAD ADD MLOAD DUP1 MLOAD SWAP1 PUSH1 0x1 PUSH1 0x1 PUSH1 0x40 SHL SUB DUP3 GT PUSH2 0xCCC JUMPI PUSH2 0xAB7 PUSH1 0xB DUP5 ADD SLOAD PUSH2 0x1924 JUMP JUMPDEST PUSH1 0x1F DUP2 GT PUSH2 0xD5B JUMPI JUMPDEST POP PUSH1 0x20 SWAP1 PUSH1 0x1F DUP4 GT PUSH1 0x1 EQ PUSH2 0xCED JUMPI PUSH1 0xB SWAP3 SWAP2 PUSH1 0x0 SWAP2 DUP4 PUSH2 0xCE2 JUMPI JUMPDEST POP POP DUP2 PUSH1 0x1 SHL SWAP2 PUSH1 0x0 NOT SWAP1 PUSH1 0x3 SHL SHR NOT AND OR SWAP2 ADD SSTORE JUMPDEST PUSH1 0x2 SLOAD PUSH9 0x10000000000000000 DUP2 LT ISZERO PUSH2 0xCCC JUMPI DUP1 PUSH1 0x1 PUSH2 0xB16 SWAP3 ADD PUSH1 0x2 SSTORE PUSH2 0x18C1 JUMP JUMPDEST DUP2 SLOAD SWAP1 PUSH1 0x3 SHL SWAP1 PUSH1 0x1 DUP1 PUSH1 0xA0 SHL SUB PUSH1 0xA0 MLOAD AND DUP3 SHL SWAP2 PUSH1 0x1 DUP1 PUSH1 0xA0 SHL SUB SWAP1 SHL NOT AND OR SWAP1 SSTORE PUSH2 0x180 PUSH1 0x40 MLOAD DUP1 PUSH2 0x260 MSTORE MSTORE PUSH2 0xC75 PUSH2 0xC5B PUSH2 0xC42 PUSH2 0xC28 PUSH2 0xC0F PUSH2 0xBF6 PUSH2 0xBDD PUSH2 0xBC5 PUSH2 0xBAD PUSH2 0xB94 PUSH2 0xB7B PUSH2 0x180 PUSH2 0x260 MLOAD ADD PUSH2 0x1E0 MLOAD PUSH2 0x2C0 MLOAD PUSH2 0x1AF4 JUMP JUMPDEST PUSH2 0x260 MLOAD PUSH1 0x20 DUP2 DUP4 SUB SWAP2 ADD MSTORE PUSH2 0x120 MLOAD PUSH2 0x380 MLOAD PUSH2 0x1AF4 JUMP JUMPDEST PUSH2 0x260 MLOAD PUSH1 0x40 DUP2 DUP4 SUB SWAP2 ADD MSTORE PUSH2 0x240 MLOAD PUSH2 0x3C0 MLOAD PUSH2 0x1AF4 JUMP JUMPDEST PUSH2 0x260 MLOAD PUSH1 0x60 DUP2 DUP4 SUB SWAP2 ADD MSTORE PUSH1 0xE0 MLOAD PUSH2 0x220 MLOAD PUSH2 0x1AF4 JUMP JUMPDEST PUSH2 0x260 MLOAD PUSH1 0x80 DUP2 DUP4 SUB SWAP2 ADD MSTORE PUSH1 0xC0 MLOAD PUSH2 0x3A0 MLOAD PUSH2 0x1AF4 JUMP JUMPDEST PUSH2 0x260 MLOAD PUSH1 0xA0 DUP2 DUP4 SUB SWAP2 ADD MSTORE PUSH2 0x1A0 MLOAD PUSH2 0x200 MLOAD PUSH2 0x1AF4 JUMP JUMPDEST PUSH2 0x260 MLOAD PUSH1 0xC0 DUP2 DUP4 SUB SWAP2 ADD MSTORE PUSH2 0x340 MLOAD PUSH2 0x360 MLOAD PUSH2 0x1AF4 JUMP JUMPDEST PUSH2 0x260 MLOAD PUSH1 0xE0 DUP2 DUP4 SUB SWAP2 ADD MSTORE PUSH2 0x320 MLOAD PUSH2 0x2A0 MLOAD PUSH2 0x1AF4 JUMP JUMPDEST PUSH2 0x260 MLOAD PUSH2 0x100 DUP2 DUP4 SUB SWAP2 ADD MSTORE PUSH2 0x1C0 MLOAD PUSH2 0x2E0 MLOAD PUSH2 0x1AF4 JUMP JUMPDEST PUSH2 0x260 MLOAD PUSH2 0x120 DUP2 DUP4 SUB SWAP2 ADD MSTORE PUSH2 0x280 MLOAD PUSH1 0x80 MLOAD PUSH2 0x1AF4 JUMP JUMPDEST PUSH2 0x260 MLOAD PUSH2 0x140 DUP2 DUP4 SUB SWAP2 ADD MSTORE PUSH2 0x140 MLOAD PUSH2 0x300 MLOAD PUSH2 0x1AF4 JUMP JUMPDEST PUSH2 0x260 MLOAD PUSH2 0x160 DUP2 DUP4 SUB SWAP2 ADD MSTORE PUSH32 0xED0C09688D023E531370C918FC3D614A8A85B3438DDAE919F3C01DBBF3160CFB PUSH1 0x1 DUP1 PUSH1 0xA0 SHL SUB PUSH1 0xA0 MLOAD AND SWAP2 PUSH2 0xCC4 PUSH2 0x260 MLOAD SWAP2 PUSH2 0x180 MLOAD PUSH2 0x100 MLOAD PUSH2 0x1AF4 JUMP JUMPDEST SUB PUSH2 0x260 MLOAD LOG2 STOP JUMPDEST PUSH4 0x4E487B71 PUSH1 0xE0 SHL PUSH1 0x0 MSTORE PUSH1 0x41 PUSH1 0x4 MSTORE PUSH1 0x24 PUSH1 0x0 REVERT JUMPDEST ADD MLOAD SWAP1 POP DUP5 DUP1 PUSH2 0xADC JUMP JUMPDEST SWAP1 PUSH1 0xB DUP5 ADD PUSH1 0x0 MSTORE PUSH1 0x20 PUSH1 0x0 KECCAK256 SWAP2 PUSH1 0x0 PUSH1 0x1F NOT DUP6 AND SWAP1 JUMPDEST DUP2 DUP2 LT PUSH2 0xD43 JUMPI POP SWAP2 PUSH1 0x1 SWAP4 SWAP2 DUP6 PUSH1 0xB SWAP7 SWAP5 LT PUSH2 0xD2A JUMPI JUMPDEST POP POP POP DUP2 SHL ADD SWAP2 ADD SSTORE PUSH2 0xAF2 JUMP JUMPDEST ADD MLOAD PUSH1 0x0 NOT PUSH1 0xF8 DUP5 PUSH1 0x3 SHL AND SHR NOT AND SWAP1 SSTORE DUP5 DUP1 DUP1 PUSH2 0xD1C JUMP JUMPDEST SWAP3 SWAP4 PUSH1 0x20 PUSH1 0x1 DUP2 SWAP3 DUP8 DUP7 ADD MLOAD DUP2 SSTORE ADD SWAP6 ADD SWAP4 ADD PUSH2 0xD04 JUMP JUMPDEST PUSH1 0xB DUP5 ADD PUSH1 0x0 MSTORE PUSH1 0x20 PUSH1 0x0 KECCAK256 PUSH1 0x1F DUP5 ADD PUSH1 0x5 SHR DUP2 ADD PUSH1 0x20 DUP6 LT PUSH2 0xD9B JUMPI JUMPDEST PUSH1 0x1F DUP4 ADD PUSH1 0x5 SHR DUP3 ADD DUP2 LT PUSH2 0xD8F JUMPI POP POP PUSH2 0xAC0 JUMP JUMPDEST PUSH1 0x0 DUP2 SSTORE PUSH1 0x1 ADD PUSH2 0xD79 JUMP JUMPDEST POP DUP1 PUSH2 0xD79 JUMP JUMPDEST ADD MLOAD SWAP1 POP DUP4 DUP1 PUSH2 0xA7A JUMP JUMPDEST SWAP3 POP PUSH1 0xA DUP5 ADD PUSH1 0x0 MSTORE PUSH1 0x20 PUSH1 0x0 KECCAK256 SWAP1 PUSH1 0x0 SWAP4 JUMPDEST PUSH1 0x1F NOT DUP5 AND DUP6 LT PUSH2 0xE04 JUMPI PUSH1 0x1 SWAP5 POP DUP4 PUSH1 0x1F NOT DUP2 AND LT PUSH2 0xDEB JUMPI JUMPDEST POP POP POP DUP2 SHL ADD PUSH1 0xA DUP3 ADD SSTORE PUSH2 0xA92 JUMP JUMPDEST ADD MLOAD PUSH1 0x0 NOT PUSH1 0xF8 DUP5 PUSH1 0x3 SHL AND SHR NOT AND SWAP1 SSTORE DUP4 DUP1 DUP1 PUSH2 0xDDB JUMP JUMPDEST DUP2 DUP2 ADD MLOAD DUP4 SSTORE PUSH1 0x20 SWAP5 DUP6 ADD SWAP5 PUSH1 0x1 SWAP1 SWAP4 ADD SWAP3 SWAP1 SWAP2 ADD SWAP1 PUSH2 0xDC0 JUMP JUMPDEST SWAP1 SWAP2 POP PUSH1 0xA DUP5 ADD PUSH1 0x0 MSTORE PUSH1 0x20 PUSH1 0x0 KECCAK256 PUSH1 0x1F DUP5 ADD PUSH1 0x5 SHR DUP2 ADD PUSH1 0x20 DUP6 LT PUSH2 0xE6B JUMPI JUMPDEST SWAP1 DUP5 SWAP4 SWAP3 SWAP2 JUMPDEST PUSH1 0x1F DUP4 ADD PUSH1 0x5 SHR DUP3 ADD DUP2 LT PUSH2 0xE5C JUMPI POP POP PUSH2 0xA63 JUMP JUMPDEST PUSH1 0x0 DUP2 SSTORE DUP6 SWAP5 POP PUSH1 0x1 ADD PUSH2 0xE46 JUMP JUMPDEST POP DUP1 PUSH2 0xE40 JUMP JUMPDEST ADD MLOAD SWAP1 POP DUP4 DUP1 PUSH2 0xA19 JUMP JUMPDEST SWAP3 POP PUSH1 0x9 DUP5 ADD PUSH1 0x0 MSTORE PUSH1 0x20 PUSH1 0x0 KECCAK256 SWAP1 PUSH1 0x0 SWAP4 JUMPDEST PUSH1 0x1F NOT DUP5 AND DUP6 LT PUSH2 0xED4 JUMPI PUSH1 0x1 SWAP5 POP DUP4 PUSH1 0x1F NOT DUP2 AND LT PUSH2 0xEBB JUMPI JUMPDEST POP POP POP DUP2 SHL ADD PUSH1 0x9 DUP3 ADD SSTORE PUSH2 0xA31 JUMP JUMPDEST ADD MLOAD PUSH1 0x0 NOT PUSH1 0xF8 DUP5 PUSH1 0x3 SHL AND SHR NOT AND SWAP1 SSTORE DUP4 DUP1 DUP1 PUSH2 0xEAB JUMP JUMPDEST DUP2 DUP2 ADD MLOAD DUP4 SSTORE PUSH1 0x20 SWAP5 DUP6 ADD SWAP5 PUSH1 0x1 SWAP1 SWAP4 ADD SWAP3 SWAP1 SWAP2 ADD SWAP1 PUSH2 0xE90 JUMP JUMPDEST SWAP1 SWAP2 POP PUSH1 0x9 DUP5 ADD PUSH1 0x0 MSTORE PUSH1 0x20 PUSH1 0x0 KECCAK256 PUSH1 0x1F DUP5 ADD PUSH1 0x5 SHR DUP2 ADD PUSH1 0x20 DUP6 LT PUSH2 0xF3B JUMPI JUMPDEST SWAP1 DUP5 SWAP4 SWAP3 SWAP2 JUMPDEST PUSH1 0x1F DUP4 ADD PUSH1 0x5 SHR DUP3 ADD DUP2 LT PUSH2 0xF2C JUMPI POP POP PUSH2 0xA02 JUMP JUMPDEST PUSH1 0x0 DUP2 SSTORE DUP6 SWAP5 POP PUSH1 0x1 ADD PUSH2 0xF16 JUMP JUMPDEST POP DUP1 PUSH2 0xF10 JUMP JUMPDEST ADD MLOAD SWAP1 POP DUP4 DUP1 PUSH2 0x9B8 JUMP JUMPDEST SWAP3 POP PUSH1 0x8 DUP5 ADD PUSH1 0x0 MSTORE PUSH1 0x20 PUSH1 0x0 KECCAK256 SWAP1 PUSH1 0x0 SWAP4 JUMPDEST PUSH1 0x1F NOT DUP5 AND DUP6 LT PUSH2 0xFA4 JUMPI PUSH1 0x1 SWAP5 POP DUP4 PUSH1 0x1F NOT DUP2 AND LT PUSH2 0xF8B JUMPI JUMPDEST POP POP POP DUP2 SHL ADD PUSH1 0x8 DUP3 ADD SSTORE PUSH2 0x9D0 JUMP JUMPDEST ADD MLOAD PUSH1 0x0 NOT PUSH1 0xF8 DUP5 PUSH1 0x3 SHL AND SHR NOT AND SWAP1 SSTORE DUP4 DUP1 DUP1 PUSH2 0xF7B JUMP JUMPDEST DUP2 DUP2 ADD MLOAD DUP4 SSTORE PUSH1 0x20 SWAP5 DUP6 ADD SWAP5 PUSH1 0x1 SWAP1 SWAP4 ADD SWAP3 SWAP1 SWAP2 ADD SWAP1 PUSH2 0xF60 JUMP JUMPDEST SWAP1 SWAP2 POP PUSH1 0x8 DUP5 ADD PUSH1 0x0 MSTORE PUSH1 0x20 PUSH1 0x0 KECCAK256 PUSH1 0x1F DUP5 ADD PUSH1 0x5 SHR DUP2 ADD PUSH1 0x20 DUP6 LT PUSH2 0x100B JUMPI JUMPDEST SWAP1 DUP5 SWAP4 SWAP3 SWAP2 JUMPDEST PUSH1 0x1F DUP4 ADD PUSH1 0x5 SHR DUP3 ADD DUP2 LT PUSH2 0xFFC JUMPI POP POP PUSH2 0x9A1 JUMP JUMPDEST PUSH1 0x0 DUP2 SSTORE DUP6 SWAP5 POP PUSH1 0x1 ADD PUSH2 0xFE6 JUMP JUMPDEST POP DUP1 PUSH2 0xFE0 JUMP JUMPDEST ADD MLOAD SWAP1 POP DUP4 DUP1 PUSH2 0x957 JUMP JUMPDEST SWAP3 POP PUSH1 0x7 DUP5 ADD PUSH1 0x0 MSTORE PUSH1 0x20 PUSH1 0x0 KECCAK256 SWAP1 PUSH1 0x0 SWAP4 JUMPDEST PUSH1 0x1F NOT DUP5 AND DUP6 LT PUSH2 0x1074 JUMPI PUSH1 0x1 SWAP5 POP DUP4 PUSH1 0x1F NOT DUP2 AND LT PUSH2 0x105B JUMPI JUMPDEST POP POP POP DUP2 SHL ADD PUSH1 0x7 DUP3 ADD SSTORE PUSH2 0x96F JUMP JUMPDEST ADD MLOAD PUSH1 0x0 NOT PUSH1 0xF8 DUP5 PUSH1 0x3 SHL AND SHR NOT AND SWAP1 SSTORE DUP4 DUP1 DUP1 PUSH2 0x104B JUMP JUMPDEST DUP2 DUP2 ADD MLOAD DUP4 SSTORE PUSH1 0x20 SWAP5 DUP6 ADD SWAP5 PUSH1 0x1 SWAP1 SWAP4 ADD SWAP3 SWAP1 SWAP2 ADD SWAP1 PUSH2 0x1030 JUMP JUMPDEST SWAP1 SWAP2 POP PUSH1 0x7 DUP5 ADD PUSH1 0x0 MSTORE PUSH1 0x20 PUSH1 0x0 KECCAK256 PUSH1 0x1F DUP5 ADD PUSH1 0x5 SHR DUP2 ADD PUSH1 0x20 DUP6 LT PUSH2 0x10DB JUMPI JUMPDEST SWAP1 DUP5 SWAP4 SWAP3 SWAP2 JUMPDEST PUSH1 0x1F DUP4 ADD PUSH1 0x5 SHR DUP3 ADD DUP2 LT PUSH2 0x10CC JUMPI POP POP PUSH2 0x940 JUMP JUMPDEST PUSH1 0x0 DUP2 SSTORE DUP6 SWAP5 POP PUSH1 0x1 ADD PUSH2 0x10B6 JUMP JUMPDEST POP DUP1 PUSH2 0x10B0 JUMP JUMPDEST ADD MLOAD SWAP1 POP DUP4 DUP1 PUSH2 0x8F7 JUMP JUMPDEST SWAP3 POP PUSH1 0x6 DUP5 ADD PUSH1 0x0 MSTORE PUSH1 0x20 PUSH1 0x0 KECCAK256 SWAP1 PUSH1 0x0 SWAP4 JUMPDEST PUSH1 0x1F NOT DUP5 AND DUP6 LT PUSH2 0x1144 JUMPI PUSH1 0x1 SWAP5 POP DUP4 PUSH1 0x1F NOT DUP2 AND LT PUSH2 0x112B JUMPI JUMPDEST POP POP POP DUP2 SHL ADD PUSH1 0x6 DUP3 ADD SSTORE PUSH2 0x90F JUMP JUMPDEST ADD MLOAD PUSH1 0x0 NOT PUSH1 0xF8 DUP5 PUSH1 0x3 SHL AND SHR NOT AND SWAP1 SSTORE DUP4 DUP1 DUP1 PUSH2 0x111B JUMP JUMPDEST DUP2 DUP2 ADD MLOAD DUP4 SSTORE PUSH1 0x20 SWAP5 DUP6 ADD SWAP5 PUSH1 0x1 SWAP1 SWAP4 ADD SWAP3 SWAP1 SWAP2 ADD SWAP1 PUSH2 0x1100 JUMP JUMPDEST SWAP1 SWAP2 POP PUSH1 0x6 DUP5 ADD PUSH1 0x0 MSTORE PUSH1 0x20 PUSH1 0x0 KECCAK256 PUSH1 0x1F DUP5 ADD PUSH1 0x5 SHR DUP2 ADD PUSH1 0x20 DUP6 LT PUSH2 0x11AB JUMPI JUMPDEST SWAP1 DUP5 SWAP4 SWAP3 SWAP2 JUMPDEST PUSH1 0x1F DUP4 ADD PUSH1 0x5 SHR DUP3 ADD DUP2 LT PUSH2 0x119C JUMPI POP POP PUSH2 0x8E0 JUMP JUMPDEST PUSH1 0x0 DUP2 SSTORE DUP6 SWAP5 POP PUSH1 0x1 ADD PUSH2 0x1186 JUMP JUMPDEST POP DUP1 PUSH2 0x1180 JUMP JUMPDEST ADD MLOAD SWAP1 POP DUP4 DUP1 PUSH2 0x897 JUMP JUMPDEST SWAP3 POP PUSH1 0x5 DUP5 ADD PUSH1 0x0 MSTORE PUSH1 0x20 PUSH1 0x0 KECCAK256 SWAP1 PUSH1 0x0 SWAP4 JUMPDEST PUSH1 0x1F NOT DUP5 AND DUP6 LT PUSH2 0x1214 JUMPI PUSH1 0x1 SWAP5 POP DUP4 PUSH1 0x1F NOT DUP2 AND LT PUSH2 0x11FB JUMPI JUMPDEST POP POP POP DUP2 SHL ADD PUSH1 0x5 DUP3 ADD SSTORE PUSH2 0x8AF JUMP JUMPDEST ADD MLOAD PUSH1 0x0 NOT PUSH1 0xF8 DUP5 PUSH1 0x3 SHL AND SHR NOT AND SWAP1 SSTORE DUP4 DUP1 DUP1 PUSH2 0x11EB JUMP JUMPDEST DUP2 DUP2 ADD MLOAD DUP4 SSTORE PUSH1 0x20 SWAP5 DUP6 ADD SWAP5 PUSH1 0x1 SWAP1 SWAP4 ADD SWAP3 SWAP1 SWAP2 ADD SWAP1 PUSH2 0x11D0 JUMP JUMPDEST SWAP1 SWAP2 POP PUSH1 0x5 DUP5 ADD PUSH1 0x0 MSTORE PUSH1 0x20 PUSH1 0x0 KECCAK256 PUSH1 0x1F DUP5 ADD PUSH1 0x5 SHR DUP2 ADD PUSH1 0x20 DUP6 LT PUSH2 0x127B JUMPI JUMPDEST SWAP1 DUP5 SWAP4 SWAP3 SWAP2 JUMPDEST PUSH1 0x1F DUP4 ADD PUSH1 0x5 SHR DUP3 ADD DUP2 LT PUSH2 0x126C JUMPI POP POP PUSH2 0x880 JUMP JUMPDEST PUSH1 0x0 DUP2 SSTORE DUP6 SWAP5 POP PUSH1 0x1 ADD PUSH2 0x1256 JUMP JUMPDEST POP DUP1 PUSH2 0x1250 JUMP JUMPDEST ADD MLOAD SWAP1 POP DUP4 DUP1 PUSH2 0x837 JUMP JUMPDEST SWAP3 POP PUSH1 0x4 DUP5 ADD PUSH1 0x0 MSTORE PUSH1 0x20 PUSH1 0x0 KECCAK256 SWAP1 PUSH1 0x0 SWAP4 JUMPDEST PUSH1 0x1F NOT DUP5 AND DUP6 LT PUSH2 0x12E4 JUMPI PUSH1 0x1 SWAP5 POP DUP4 PUSH1 0x1F NOT DUP2 AND LT PUSH2 0x12CB JUMPI JUMPDEST POP POP POP DUP2 SHL ADD PUSH1 0x4 DUP3 ADD SSTORE PUSH2 0x84F JUMP JUMPDEST ADD MLOAD PUSH1 0x0 NOT PUSH1 0xF8 DUP5 PUSH1 0x3 SHL AND SHR NOT AND SWAP1 SSTORE DUP4 DUP1 DUP1 PUSH2 0x12BB JUMP JUMPDEST DUP2 DUP2 ADD MLOAD DUP4 SSTORE PUSH1 0x20 SWAP5 DUP6 ADD SWAP5 PUSH1 0x1 SWAP1 SWAP4 ADD SWAP3 SWAP1 SWAP2 ADD SWAP1 PUSH2 0x12A0 JUMP JUMPDEST SWAP1 SWAP2 POP PUSH1 0x4 DUP5 ADD PUSH1 0x0 MSTORE PUSH1 0x20 PUSH1 0x0 KECCAK256 PUSH1 0x1F DUP5 ADD PUSH1 0x5 SHR DUP2 ADD PUSH1 0x20 DUP6 LT PUSH2 0x134B JUMPI JUMPDEST SWAP1 DUP5 SWAP4 SWAP3 SWAP2 JUMPDEST PUSH1 0x1F DUP4 ADD PUSH1 0x5 SHR DUP3 ADD DUP2 LT PUSH2 0x133C JUMPI POP POP PUSH2 0x820 JUMP JUMPDEST PUSH1 0x0 DUP2 SSTORE DUP6 SWAP5 POP PUSH1 0x1 ADD PUSH2 0x1326 JUMP JUMPDEST POP DUP1 PUSH2 0x1320 JUMP JUMPDEST ADD MLOAD SWAP1 POP DUP4 DUP1 PUSH2 0x7D7 JUMP JUMPDEST SWAP3 POP PUSH1 0x3 DUP5 ADD PUSH1 0x0 MSTORE PUSH1 0x20 PUSH1 0x0 KECCAK256 SWAP1 PUSH1 0x0 SWAP4 JUMPDEST PUSH1 0x1F NOT DUP5 AND DUP6 LT PUSH2 0x13B4 JUMPI PUSH1 0x1 SWAP5 POP DUP4 PUSH1 0x1F NOT DUP2 AND LT PUSH2 0x139B JUMPI JUMPDEST POP POP POP DUP2 SHL ADD PUSH1 0x3 DUP3 ADD SSTORE PUSH2 0x7EF JUMP JUMPDEST ADD MLOAD PUSH1 0x0 NOT PUSH1 0xF8 DUP5 PUSH1 0x3 SHL AND SHR NOT AND SWAP1 SSTORE DUP4 DUP1 DUP1 PUSH2 0x138B JUMP JUMPDEST DUP2 DUP2 ADD MLOAD DUP4 SSTORE PUSH1 0x20 SWAP5 DUP6 ADD SWAP5 PUSH1 0x1 SWAP1 SWAP4 ADD SWAP3 SWAP1 SWAP2 ADD SWAP1 PUSH2 0x1370 JUMP JUMPDEST SWAP1 SWAP2 POP PUSH1 0x3 DUP5 ADD PUSH1 0x0 MSTORE PUSH1 0x20 PUSH1 0x0 KECCAK256 PUSH1 0x1F DUP5 ADD PUSH1 0x5 SHR DUP2 ADD PUSH1 0x20 DUP6 LT PUSH2 0x141B JUMPI JUMPDEST SWAP1 DUP5 SWAP4 SWAP3 SWAP2 JUMPDEST PUSH1 0x1F DUP4 ADD PUSH1 0x5 SHR DUP3 ADD DUP2 LT PUSH2 0x140C JUMPI POP POP PUSH2 0x7C0 JUMP JUMPDEST PUSH1 0x0 DUP2 SSTORE DUP6 SWAP5 POP PUSH1 0x1 ADD PUSH2 0x13F6 JUMP JUMPDEST POP DUP1 PUSH2 0x13F0 JUMP JUMPDEST ADD MLOAD SWAP1 POP DUP4 DUP1 PUSH2 0x777 JUMP JUMPDEST SWAP3 POP PUSH1 0x2 DUP5 ADD PUSH1 0x0 MSTORE PUSH1 0x20 PUSH1 0x0 KECCAK256 SWAP1 PUSH1 0x0 SWAP4 JUMPDEST PUSH1 0x1F NOT DUP5 AND DUP6 LT PUSH2 0x1484 JUMPI PUSH1 0x1 SWAP5 POP DUP4 PUSH1 0x1F NOT DUP2 AND LT PUSH2 0x146B JUMPI JUMPDEST POP POP POP DUP2 SHL ADD PUSH1 0x2 DUP3 ADD SSTORE PUSH2 0x78F JUMP JUMPDEST ADD MLOAD PUSH1 0x0 NOT PUSH1 0xF8 DUP5 PUSH1 0x3 SHL AND SHR NOT AND SWAP1 SSTORE DUP4 DUP1 DUP1 PUSH2 0x145B JUMP JUMPDEST DUP2 DUP2 ADD MLOAD DUP4 SSTORE PUSH1 0x20 SWAP5 DUP6 ADD SWAP5 PUSH1 0x1 SWAP1 SWAP4 ADD SWAP3 SWAP1 SWAP2 ADD SWAP1 PUSH2 0x1440 JUMP JUMPDEST SWAP1 SWAP2 POP PUSH1 0x2 DUP5 ADD PUSH1 0x0 MSTORE PUSH1 0x20 PUSH1 0x0 KECCAK256 PUSH1 0x1F DUP5 ADD PUSH1 0x5 SHR DUP2 ADD PUSH1 0x20 DUP6 LT PUSH2 0x14EB JUMPI JUMPDEST SWAP1 DUP5 SWAP4 SWAP3 SWAP2 JUMPDEST PUSH1 0x1F DUP4 ADD PUSH1 0x5 SHR DUP3 ADD DUP2 LT PUSH2 0x14DC JUMPI POP POP PUSH2 0x760 JUMP JUMPDEST PUSH1 0x0 DUP2 SSTORE DUP6 SWAP5 POP PUSH1 0x1 ADD PUSH2 0x14C6 JUMP JUMPDEST POP DUP1 PUSH2 0x14C0 JUMP JUMPDEST ADD MLOAD SWAP1 POP DUP4 DUP1 PUSH2 0x717 JUMP JUMPDEST SWAP3 POP PUSH1 0x1 DUP5 ADD PUSH1 0x0 MSTORE PUSH1 0x20 PUSH1 0x0 KECCAK256 SWAP1 PUSH1 0x0 SWAP4 JUMPDEST PUSH1 0x1F NOT DUP5 AND DUP6 LT PUSH2 0x1554 JUMPI PUSH1 0x1 SWAP5 POP DUP4 PUSH1 0x1F NOT DUP2 AND LT PUSH2 0x153B JUMPI JUMPDEST POP POP POP DUP2 SHL ADD PUSH1 0x1 DUP3 ADD SSTORE PUSH2 0x72F JUMP JUMPDEST ADD MLOAD PUSH1 0x0 NOT PUSH1 0xF8 DUP5 PUSH1 0x3 SHL AND SHR NOT AND SWAP1 SSTORE DUP4 DUP1 DUP1 PUSH2 0x152B JUMP JUMPDEST DUP2 DUP2 ADD MLOAD DUP4 SSTORE PUSH1 0x20 SWAP5 DUP6 ADD SWAP5 PUSH1 0x1 SWAP1 SWAP4 ADD SWAP3 SWAP1 SWAP2 ADD SWAP1 PUSH2 0x1510 JUMP JUMPDEST SWAP1 SWAP2 POP PUSH1 0x1 DUP5 ADD PUSH1 0x0 MSTORE PUSH1 0x20 PUSH1 0x0 KECCAK256 PUSH1 0x1F DUP5 ADD PUSH1 0x5 SHR DUP2 ADD PUSH1 0x20 DUP6 LT PUSH2 0x15BB JUMPI JUMPDEST SWAP1 DUP5 SWAP4 SWAP3 SWAP2 JUMPDEST PUSH1 0x1F DUP4 ADD PUSH1 0x5 SHR DUP3 ADD DUP2 LT PUSH2 0x15AC JUMPI POP POP PUSH2 0x700 JUMP JUMPDEST PUSH1 0x0 DUP2 SSTORE DUP6 SWAP5 POP PUSH1 0x1 ADD PUSH2 0x1596 JUMP JUMPDEST POP DUP1 PUSH2 0x1590 JUMP JUMPDEST ADD MLOAD SWAP1 POP DUP4 DUP1 PUSH2 0x6BA JUMP JUMPDEST SWAP3 POP DUP4 PUSH1 0x0 MSTORE PUSH1 0x20 PUSH1 0x0 KECCAK256 SWAP1 PUSH1 0x0 SWAP4 JUMPDEST PUSH1 0x1F NOT DUP5 AND DUP6 LT PUSH2 0x161E JUMPI PUSH1 0x1 SWAP5 POP DUP4 PUSH1 0x1F NOT DUP2 AND LT PUSH2 0x1605 JUMPI JUMPDEST POP POP POP DUP2 SHL ADD DUP2 SSTORE PUSH2 0x6CF JUMP JUMPDEST ADD MLOAD PUSH1 0x0 NOT PUSH1 0xF8 DUP5 PUSH1 0x3 SHL AND SHR NOT AND SWAP1 SSTORE DUP4 DUP1 DUP1 PUSH2 0x15F8 JUMP JUMPDEST DUP2 DUP2 ADD MLOAD DUP4 SSTORE PUSH1 0x20 SWAP5 DUP6 ADD SWAP5 PUSH1 0x1 SWAP1 SWAP4 ADD SWAP3 SWAP1 SWAP2 ADD SWAP1 PUSH2 0x15DD JUMP JUMPDEST SWAP1 SWAP2 POP DUP4 PUSH1 0x0 MSTORE PUSH1 0x20 PUSH1 0x0 KECCAK256 PUSH1 0x1F DUP5 ADD PUSH1 0x5 SHR DUP2 ADD PUSH1 0x20 DUP6 LT PUSH2 0x1682 JUMPI JUMPDEST SWAP1 DUP5 SWAP4 SWAP3 SWAP2 JUMPDEST PUSH1 0x1F DUP4 ADD PUSH1 0x5 SHR DUP3 ADD DUP2 LT PUSH2 0x1673 JUMPI POP POP PUSH2 0x6A3 JUMP JUMPDEST PUSH1 0x0 DUP2 SSTORE DUP6 SWAP5 POP PUSH1 0x1 ADD PUSH2 0x165D JUMP JUMPDEST POP DUP1 PUSH2 0x1657 JUMP JUMPDEST PUSH1 0x40 MLOAD PUSH3 0x461BCD PUSH1 0xE5 SHL DUP2 MSTORE PUSH1 0x20 PUSH1 0x4 DUP3 ADD MSTORE PUSH1 0xB PUSH1 0x24 DUP3 ADD MSTORE PUSH11 0x139BDD081CDD195DD85C99 PUSH1 0xAA SHL PUSH1 0x44 DUP3 ADD MSTORE PUSH1 0x64 SWAP1 REVERT JUMPDEST CALLVALUE PUSH2 0x2FB JUMPI PUSH1 0x0 CALLDATASIZE PUSH1 0x3 NOT ADD SLT PUSH2 0x2FB JUMPI PUSH1 0x0 SLOAD PUSH1 0x40 MLOAD PUSH1 0x1 PUSH1 0x1 PUSH1 0xA0 SHL SUB SWAP1 SWAP2 AND DUP2 MSTORE PUSH1 0x20 SWAP1 RETURN JUMPDEST CALLVALUE PUSH2 0x2FB JUMPI PUSH1 0x20 CALLDATASIZE PUSH1 0x3 NOT ADD SLT PUSH2 0x2FB JUMPI PUSH1 0x1 PUSH1 0x1 PUSH1 0xA0 SHL SUB PUSH2 0x1706 PUSH2 0x190E JUMP JUMPDEST AND PUSH1 0x0 MSTORE PUSH1 0x1 PUSH1 0x20 MSTORE PUSH1 0x40 PUSH1 0x0 KECCAK256 PUSH2 0x171D DUP2 PUSH2 0x199B JUMP JUMPDEST PUSH2 0x1729 PUSH1 0x1 DUP4 ADD PUSH2 0x199B JUMP JUMPDEST SWAP2 PUSH2 0x1736 PUSH1 0x2 DUP3 ADD PUSH2 0x199B JUMP JUMPDEST SWAP1 PUSH2 0x1743 PUSH1 0x3 DUP3 ADD PUSH2 0x199B JUMP JUMPDEST PUSH2 0x174F PUSH1 0x4 DUP4 ADD PUSH2 0x199B JUMP JUMPDEST PUSH2 0x175B PUSH1 0x5 DUP5 ADD PUSH2 0x199B JUMP JUMPDEST PUSH2 0x1767 PUSH1 0x6 DUP6 ADD PUSH2 0x199B JUMP JUMPDEST PUSH2 0x1773 PUSH1 0x7 DUP7 ADD PUSH2 0x199B JUMP JUMPDEST SWAP2 PUSH2 0x1780 PUSH1 0x8 DUP8 ADD PUSH2 0x199B JUMP JUMPDEST SWAP4 PUSH2 0x178D PUSH1 0x9 DUP9 ADD PUSH2 0x199B JUMP JUMPDEST SWAP6 PUSH2 0x179A PUSH1 0xA DUP10 ADD PUSH2 0x199B JUMP JUMPDEST SWAP8 PUSH1 0xB ADD PUSH2 0x17A7 SWAP1 PUSH2 0x199B JUMP JUMPDEST SWAP9 PUSH1 0x40 MLOAD SWAP12 DUP13 SWAP12 DUP13 PUSH2 0x180 DUP1 SWAP2 MSTORE DUP14 ADD PUSH2 0x17C0 SWAP2 PUSH2 0x1A41 JUMP JUMPDEST DUP13 DUP2 SUB PUSH1 0x20 DUP15 ADD MSTORE PUSH2 0x17D1 SWAP2 PUSH2 0x1A41 JUMP JUMPDEST DUP12 DUP2 SUB PUSH1 0x40 DUP14 ADD MSTORE PUSH2 0x17E2 SWAP2 PUSH2 0x1A41 JUMP JUMPDEST DUP11 DUP2 SUB PUSH1 0x60 DUP13 ADD MSTORE PUSH2 0x17F3 SWAP2 PUSH2 0x1A41 JUMP JUMPDEST DUP10 DUP2 SUB PUSH1 0x80 DUP12 ADD MSTORE PUSH2 0x1804 SWAP2 PUSH2 0x1A41 JUMP JUMPDEST DUP9 DUP2 SUB PUSH1 0xA0 DUP11 ADD MSTORE PUSH2 0x1815 SWAP2 PUSH2 0x1A41 JUMP JUMPDEST DUP8 DUP2 SUB PUSH1 0xC0 DUP10 ADD MSTORE PUSH2 0x1826 SWAP2 PUSH2 0x1A41 JUMP JUMPDEST DUP7 DUP2 SUB PUSH1 0xE0 DUP9 ADD MSTORE PUSH2 0x1837 SWAP2 PUSH2 0x1A41 JUMP JUMPDEST DUP6 DUP2 SUB PUSH2 0x100 DUP8 ADD MSTORE PUSH2 0x1849 SWAP2 PUSH2 0x1A41 JUMP JUMPDEST DUP5 DUP2 SUB PUSH2 0x120 DUP7 ADD MSTORE PUSH2 0x185B SWAP2 PUSH2 0x1A41 JUMP JUMPDEST DUP4 DUP2 SUB PUSH2 0x140 DUP6 ADD MSTORE PUSH2 0x186D SWAP2 PUSH2 0x1A41 JUMP JUMPDEST DUP3 DUP2 SUB PUSH2 0x160 DUP5 ADD MSTORE PUSH2 0x2F7 SWAP2 PUSH2 0x1A41 JUMP JUMPDEST CALLVALUE PUSH2 0x2FB JUMPI PUSH1 0x20 CALLDATASIZE PUSH1 0x3 NOT ADD SLT PUSH2 0x2FB JUMPI PUSH1 0x4 CALLDATALOAD PUSH1 0x2 SLOAD DUP2 LT ISZERO PUSH2 0x2FB JUMPI PUSH2 0x18A8 PUSH1 0x20 SWAP2 PUSH2 0x18C1 JUMP JUMPDEST SWAP1 SLOAD PUSH1 0x40 MLOAD PUSH1 0x3 SWAP3 SWAP1 SWAP3 SHL SHR PUSH1 0x1 PUSH1 0x1 PUSH1 0xA0 SHL SUB AND DUP2 MSTORE RETURN JUMPDEST PUSH1 0x2 SLOAD DUP2 LT ISZERO PUSH2 0x18F8 JUMPI PUSH1 0x2 PUSH1 0x0 MSTORE PUSH32 0x405787FA12A823E0F2B7631CC41B3BA8828B3321CA811111FA75CD3AA3BB5ACE ADD SWAP1 PUSH1 0x0 SWAP1 JUMP JUMPDEST PUSH4 0x4E487B71 PUSH1 0xE0 SHL PUSH1 0x0 MSTORE PUSH1 0x32 PUSH1 0x4 MSTORE PUSH1 0x24 PUSH1 0x0 REVERT JUMPDEST PUSH1 0x4 CALLDATALOAD SWAP1 PUSH1 0x1 PUSH1 0x1 PUSH1 0xA0 SHL SUB DUP3 AND DUP3 SUB PUSH2 0x2FB JUMPI JUMP JUMPDEST SWAP1 PUSH1 0x1 DUP3 DUP2 SHR SWAP3 AND DUP1 ISZERO PUSH2 0x1954 JUMPI JUMPDEST PUSH1 0x20 DUP4 LT EQ PUSH2 0x193E JUMPI JUMP JUMPDEST PUSH4 0x4E487B71 PUSH1 0xE0 SHL PUSH1 0x0 MSTORE PUSH1 0x22 PUSH1 0x4 MSTORE PUSH1 0x24 PUSH1 0x0 REVERT JUMPDEST SWAP2 PUSH1 0x7F AND SWAP2 PUSH2 0x1933 JUMP JUMPDEST PUSH2 0x180 DUP2 ADD SWAP1 DUP2 LT PUSH1 0x1 PUSH1 0x1 PUSH1 0x40 SHL SUB DUP3 GT OR PUSH2 0xCCC JUMPI PUSH1 0x40 MSTORE JUMP JUMPDEST SWAP1 PUSH1 0x1F DUP1 NOT SWAP2 ADD AND DUP2 ADD SWAP1 DUP2 LT PUSH1 0x1 PUSH1 0x1 PUSH1 0x40 SHL SUB DUP3 GT OR PUSH2 0xCCC JUMPI PUSH1 0x40 MSTORE JUMP JUMPDEST SWAP1 PUSH1 0x40 MLOAD SWAP2 DUP3 PUSH1 0x0 DUP3 SLOAD SWAP3 PUSH2 0x19AF DUP5 PUSH2 0x1924 JUMP JUMPDEST SWAP1 DUP2 DUP5 MSTORE PUSH1 0x1 SWAP5 DUP6 DUP2 AND SWAP1 DUP2 PUSH1 0x0 EQ PUSH2 0x1A1E JUMPI POP PUSH1 0x1 EQ PUSH2 0x19DB JUMPI JUMPDEST POP POP PUSH2 0x19D9 SWAP3 POP SUB DUP4 PUSH2 0x197A JUMP JUMPDEST JUMP JUMPDEST SWAP1 SWAP4 SWAP2 POP PUSH1 0x0 MSTORE PUSH1 0x20 SWAP1 DUP2 PUSH1 0x0 KECCAK256 SWAP4 PUSH1 0x0 SWAP2 JUMPDEST DUP2 DUP4 LT PUSH2 0x1A06 JUMPI POP POP PUSH2 0x19D9 SWAP4 POP DUP3 ADD ADD CODESIZE DUP1 PUSH2 0x19CB JUMP JUMPDEST DUP6 SLOAD DUP9 DUP5 ADD DUP6 ADD MSTORE SWAP5 DUP6 ADD SWAP5 DUP8 SWAP5 POP SWAP2 DUP4 ADD SWAP2 PUSH2 0x19EE JUMP JUMPDEST SWAP2 POP POP PUSH2 0x19D9 SWAP5 POP PUSH1 0x20 SWAP3 POP PUSH1 0xFF NOT AND DUP3 DUP5 ADD MSTORE ISZERO ISZERO PUSH1 0x5 SHL DUP3 ADD ADD CODESIZE DUP1 PUSH2 0x19CB JUMP JUMPDEST SWAP2 SWAP1 DUP3 MLOAD SWAP3 DUP4 DUP3 MSTORE PUSH1 0x0 JUMPDEST DUP5 DUP2 LT PUSH2 0x1A6D JUMPI POP POP DUP3 PUSH1 0x0 PUSH1 0x20 DUP1 SWAP5 SWAP6 DUP5 ADD ADD MSTORE PUSH1 0x1F DUP1 NOT SWAP2 ADD AND ADD ADD SWAP1 JUMP JUMPDEST PUSH1 0x20 DUP2 DUP4 ADD DUP2 ADD MLOAD DUP5 DUP4 ADD DUP3 ADD MSTORE ADD PUSH2 0x1A4C JUMP JUMPDEST SWAP2 DUP2 PUSH1 0x1F DUP5 ADD SLT ISZERO PUSH2 0x2FB JUMPI DUP3 CALLDATALOAD SWAP2 PUSH1 0x1 PUSH1 0x1 PUSH1 0x40 SHL SUB DUP4 GT PUSH2 0x2FB JUMPI PUSH1 0x20 DUP4 DUP2 DUP7 ADD SWAP6 ADD ADD GT PUSH2 0x2FB JUMPI JUMP JUMPDEST SWAP3 SWAP2 SWAP3 PUSH1 0x1 PUSH1 0x1 PUSH1 0x40 SHL SUB DUP3 GT PUSH2 0xCCC JUMPI PUSH1 0x40 MLOAD SWAP2 PUSH2 0x1AD7 PUSH1 0x1F DUP3 ADD PUSH1 0x1F NOT AND PUSH1 0x20 ADD DUP5 PUSH2 0x197A JUMP JUMPDEST DUP3 SWAP5 DUP2 DUP5 MSTORE DUP2 DUP4 ADD GT PUSH2 0x2FB JUMPI DUP3 DUP2 PUSH1 0x20 SWAP4 DUP5 PUSH1 0x0 SWAP7 ADD CALLDATACOPY ADD ADD MSTORE JUMP JUMPDEST SWAP1 DUP1 PUSH1 0x20 SWAP4 SWAP3 DUP2 DUP5 MSTORE DUP5 DUP5 ADD CALLDATACOPY PUSH1 0x0 DUP3 DUP3 ADD DUP5 ADD MSTORE PUSH1 0x1F ADD PUSH1 0x1F NOT AND ADD ADD SWAP1 JUMP INVALID LOG2 PUSH5 0x6970667358 0x22 SLT KECCAK256 0xBB 0x2E 0xC9 0xEE PUSH16 0x3C0F68B456B06FE482A642327C640EC3 0xE5 0xD2 GASPRICE 0xC 0xB8 0x1F 0xF7 PUSH11 0x2C095D64736F6C63430008 EQ STOP CALLER "},"methodIdentifiers":{"companions(address)":"47854b87","getCompanion(address)":"ef652737","keys(uint256)":"0cb6aaf1","steward()":"637eea19","summonCompanion(address,string,string,string,string,string,string,string,string,string,string,string,string)":"ad6c708b","totalCompanions()":"ec39f18f"}}}}}