{"contracts/codex/SpiralboundCodexXIV.sol":{"SpiralboundCodexXIV":{"abi":[{"inputs":[],"stateMutability":"nonpayable","type":"constructor"},{"anonymous":false,"inputs":[{"indexed":false,"internalType":"string","name":"glyph","type":"string"},{"indexed":false,"internalType":"string","name":"tag","type":"string"},{"indexed":false,"internalType":"string","name":"binding","type":"string"},{"indexed":false,"internalType":"string","name":"annotation","type":"string"},{"indexed":false,"internalType":"string","name":"lineage","type":"string"},{"indexed":false,"internalType":"string","name":"resonance","type":"string"},{"indexed":false,"internalType":"string","name":"protocol","type":"string"},{"indexed":false,"internalType":"string","name":"sanctum","type":"string"},{"indexed":false,"internalType":"string","name":"pulse","type":"string"},{"indexed":false,"internalType":"string","name":"chant","type":"string"},{"indexed":false,"internalType":"string","name":"choreography","type":"string"},{"indexed":false,"internalType":"string","name":"drift","type":"string"},{"indexed":false,"internalType":"string","name":"signature","type":"string"},{"indexed":false,"internalType":"string","name":"signal","type":"string"},{"indexed":false,"internalType":"string","name":"companion","type":"string"}],"name":"CodexInscribed","type":"event"},{"inputs":[{"internalType":"string","name":"","type":"string"}],"name":"codices","outputs":[{"internalType":"string","name":"tag","type":"string"},{"internalType":"string","name":"binding","type":"string"},{"internalType":"string","name":"annotation","type":"string"},{"internalType":"string","name":"lineage","type":"string"},{"internalType":"string","name":"resonance","type":"string"},{"internalType":"string","name":"protocol","type":"string"},{"internalType":"string","name":"sanctum","type":"string"},{"internalType":"string","name":"pulse","type":"string"},{"internalType":"string","name":"chant","type":"string"},{"internalType":"string","name":"choreography","type":"string"},{"internalType":"string","name":"drift","type":"string"},{"internalType":"string","name":"signature","type":"string"},{"internalType":"string","name":"signal","type":"string"},{"internalType":"string","name":"companion","type":"string"}],"stateMutability":"view","type":"function"},{"inputs":[{"internalType":"string","name":"glyph","type":"string"}],"name":"getCodex","outputs":[{"components":[{"internalType":"string","name":"tag","type":"string"},{"internalType":"string","name":"binding","type":"string"},{"internalType":"string","name":"annotation","type":"string"},{"internalType":"string","name":"lineage","type":"string"},{"internalType":"string","name":"resonance","type":"string"},{"internalType":"string","name":"protocol","type":"string"},{"internalType":"string","name":"sanctum","type":"string"},{"internalType":"string","name":"pulse","type":"string"},{"internalType":"string","name":"chant","type":"string"},{"internalType":"string","name":"choreography","type":"string"},{"internalType":"string","name":"drift","type":"string"},{"internalType":"string","name":"signature","type":"string"},{"internalType":"string","name":"signal","type":"string"},{"internalType":"string","name":"companion","type":"string"}],"internalType":"struct SpiralboundCodexXIV.Codex","name":"","type":"tuple"}],"stateMutability":"view","type":"function"},{"inputs":[{"internalType":"string","name":"glyph","type":"string"},{"internalType":"string","name":"tag","type":"string"},{"internalType":"string","name":"binding","type":"string"},{"internalType":"string","name":"annotation","type":"string"},{"internalType":"string","name":"lineage","type":"string"},{"internalType":"string","name":"resonance","type":"string"},{"internalType":"string","name":"protocol","type":"string"},{"internalType":"string","name":"sanctum","type":"string"},{"internalType":"string","name":"pulse","type":"string"},{"internalType":"string","name":"chant","type":"string"},{"internalType":"string","name":"choreography","type":"string"},{"internalType":"string","name":"drift","type":"string"},{"internalType":"string","name":"signature","type":"string"},{"internalType":"string","name":"signal","type":"string"},{"internalType":"string","name":"companion","type":"string"}],"name":"inscribeCodex","outputs":[],"stateMutability":"nonpayable","type":"function"},{"inputs":[{"internalType":"uint256","name":"","type":"uint256"}],"name":"keys","outputs":[{"internalType":"string","name":"","type":"string"}],"stateMutability":"view","type":"function"},{"inputs":[],"name":"steward","outputs":[{"internalType":"address","name":"","type":"address"}],"stateMutability":"view","type":"function"},{"inputs":[],"name":"totalCodices","outputs":[{"internalType":"uint256","name":"","type":"uint256"}],"stateMutability":"view","type":"function"}],"evm":{"bytecode":{"linkReferences":{},"object":"6080806040523461002857600080546001600160a01b03191633179055611bfe908161002e8239f35b600080fdfe610480604052600436101561001357600080fd5b60003560e01c80630cb6aaf1146118e35780633291db1b146105d4578063637eea19146105ab5780638336152214610293578063c212d16b146102755763dbc214241461005f57600080fd5b34610270576020366003190112610270576004356001600160401b03811161027057366023820112156102705736816004013591602401916100a092611b0d565b60405181818093516020819301916100b792611a98565b8101600181520360200190206100cc816119f2565b6100d8600183016119f2565b916100e5600282016119f2565b906100f2600382016119f2565b6100fe600483016119f2565b61010a600584016119f2565b610116600685016119f2565b610122600786016119f2565b61012e600887016119f2565b9161013b600988016119f2565b93610148600a89016119f2565b95610155600b8a016119f2565b97610162600c8b016119f2565b99600d0161016f906119f2565b9a6040519d8e809e6101c0808352820161018891611abb565b90808203906020015261019a91611abb565b8d810360408f01526101ab91611abb565b8c810360608e01526101bc91611abb565b8b810360808d01526101cd91611abb565b8a810360a08c01526101de91611abb565b89810360c08b01526101ef91611abb565b88810360e08a015261020091611abb565b87810361010089015261021291611abb565b86810361012088015261022491611abb565b85810361014087015261023691611abb565b84810361016086015261024891611abb565b83810361018085015261025a91611abb565b8281036101a084015261026c91611abb565b0390f35b600080fd5b34610270576000366003190112610270576020600254604051908152f35b34610270576020366003190112610270576004356001600160401b0381116102705760206102c86104c5923690600401611ae0565b919060606101a06040516102db816119b5565b828152828582015282604082015282808201528260808201528260a08201528260c08201528260e08201528261010082015282610120820152826101408201528261016082015282610180820152015282604051938492833781016001815203019020610432600d60405192610350846119b5565b610359816119f2565b8452610367600182016119f2565b6020850152610378600282016119f2565b6040850152610389600382016119f2565b606085015261039a600482016119f2565b60808501526103ab600582016119f2565b60a08501526103bc600682016119f2565b60c08501526103cd600782016119f2565b60e08501526103de600882016119f2565b6101008501526103f0600982016119f2565b610120850152610402600a82016119f2565b610140850152610414600b82016119f2565b610160850152610426600c82016119f2565b610180850152016119f2565b6101a082015261026c816101a06105966105806105686105506105386105206105096104f36104dd6040519d8e9d8e6020815260606104b061049b61048585516101c060208701526101e0860190611abb565b6020860151858203601f19016040870152611abb565b6040850151848203601f190184860152611abb565b920151906080601f1982850301910152611abb565b8d60808d01519060a0601f1982850301910152611abb565b60a08b01518d8203601f190160c08f0152611abb565b60c08a01518c8203601f190160e08e0152611abb565b60e08901518b8203601f19016101008d0152611abb565b6101008801518a8203601f19016101208c0152611abb565b610120870151898203601f19016101408b0152611abb565b610140860151888203601f19016101608a0152611abb565b610160850151878203601f1901610180890152611abb565b610180840151868203601f190184880152611abb565b910151838203601f19016101c0850152611abb565b34610270576000366003190112610270576000546040516001600160a01b039091168152602090f35b34610270576101e0366003190112610270576004356001600160401b03811161027057610605903690600401611ae0565b608052610320526024356001600160401b0381116102705761062b903690600401611ae0565b610440526101e0526044356001600160401b03811161027057610652903690600401611ae0565b61016052610340526064356001600160401b03811161027057610679903690600401611ae0565b610360526103a0526084356001600160401b038111610270576106a0903690600401611ae0565b6101805260a05260a4356001600160401b038111610270576106c6903690600401611ae0565b610460526102605260c4356001600160401b038111610270576106ed903690600401611ae0565b6102a052610380526001600160401b0360e43511610270576107143660e435600401611ae0565b610120526103c0526001600160401b0361010435116102705761073d3661010435600401611ae0565b61040052610280526001600160401b036101243511610270576107663661012435600401611ae0565b610240526101c052610144356001600160401b0381116102705761078e903690600401611ae0565b6103e05261020052610164356001600160401b038111610270576107b6903690600401611ae0565b60e0526102c052610184356001600160401b038111610270576107dd903690600401611ae0565b61042052610100526101a4356001600160401b03811161027057610805903690600401611ae0565b61030052610140526101c4356001600160401b0381116102705761082d903690600401611ae0565b6101a05260c0526000546001600160a01b031633036118b057610856604051806102e0526119b5565b61086736610440516101e051611b0d565b6102e0515261087d366101605161034051611b0d565b60206102e051015261089636610360516103a051611b0d565b60406102e05101526108ae366101805160a051611b0d565b60606102e05101526108c7366104605161026051611b0d565b60806102e05101526108e0366102a05161038051611b0d565b60a06102e05101526108f936610120516103c051611b0d565b60c06102e0510152610912366104005161028051611b0d565b60e06102e051015261092b36610240516101c051611b0d565b6101006102e0510152610945366103e05161020051611b0d565b6101206102e051015261095e3660e0516102c051611b0d565b6101406102e0510152610978366104205161010051611b0d565b6101606102e0510152610992366103005161014051611b0d565b6101806102e05101526109ab366101a05160c051611b0d565b6101a06102e051015260405160805161032051823760016080518201526020816080518101030190206102e051519081516001600160401b0381116111ed576109fe816109f8845461197b565b84611b53565b6020601f821160011461184b57819293600092611840575b50508160011b916000199060031b1c19161781555b60206102e05101519081516001600160401b0381116111ed576001820190610a57816109f8845461197b565b6020601f82116001146117da57819293946000926117cf575b50508160011b916000199060031b1c19161790555b60406102e05101519081516001600160401b0381116111ed576002820190610ab1816109f8845461197b565b6020601f8211600114611769578192939460009261175e575b50508160011b916000199060031b1c19161790555b60606102e05101519081516001600160401b0381116111ed576003820190610b0b816109f8845461197b565b6020601f82116001146116f857819293946000926116ed575b50508160011b916000199060031b1c19161790555b60806102e05101518051906001600160401b0382116111ed578190610b6e82610b65600487015461197b565b60048701611b53565b602090601f831160011461167b57600092611670575b50508160011b916000199060031b1c19161760048201555b60a06102e05101518051906001600160401b0382116111ed578190610bd182610bc8600587015461197b565b60058701611b53565b602090601f83116001146115fe576000926115f3575b50508160011b916000199060031b1c19161760058201555b60c06102e05101518051906001600160401b0382116111ed578190610c3482610c2b600687015461197b565b60068701611b53565b602090601f831160011461158157600092611576575b50508160011b916000199060031b1c19161760068201555b60e06102e05101518051906001600160401b0382116111ed578190610c9782610c8e600787015461197b565b60078701611b53565b602090601f8311600114611504576000926114f9575b50508160011b916000199060031b1c19161760078201555b6101006102e05101518051906001600160401b0382116111ed578190610cfb82610cf2600887015461197b565b60088701611b53565b602090601f83116001146114875760009261147c575b50508160011b916000199060031b1c19161760088201555b6101206102e05101518051906001600160401b0382116111ed578190610d5f82610d56600987015461197b565b60098701611b53565b602090601f831160011461140a576000926113ff575b50508160011b916000199060031b1c19161760098201555b6101406102e05101518051906001600160401b0382116111ed578190610dc382610dba600a87015461197b565b600a8701611b53565b602090601f831160011461138d57600092611382575b50508160011b916000199060031b1c191617600a8201555b6101606102e05101518051906001600160401b0382116111ed578190610e2782610e1e600b87015461197b565b600b8701611b53565b602090601f831160011461131057600092611305575b50508160011b916000199060031b1c191617600b8201555b6101806102e05101518051906001600160401b0382116111ed578190610e8b82610e82600c87015461197b565b600c8701611b53565b602090601f831160011461129357600092611288575b50508160011b916000199060031b1c191617600c8201555b6101a06102e0510151908151906001600160401b0382116111ed57600d0190610ee6816109f8845461197b565b602092601f82116001146112245792819293600092611219575b50508160011b916000199060031b1c19161790555b600254680100000000000000008110156111ed57806001610f39920160025561192e565b611203576080516001600160401b0381116111ed57610f6290610f5c835461197b565b83611b53565b600090608051601f811160011461118057509060006080519182611172575b508160011b916000199060031b1c19161790555b6101e06040518061022052527f24c111856998bf8fb2ddddc120e99ab6b1420678a44c79b60f1143a9bdc17dc061114961112f6111156110fc6110e26110c86110ae61109561107c61106361104b6110326110196110006101e0610220510160805161032051611ba7565b610220516020818303910152610440516101e051611ba7565b6102205160408183039101526101605161034051611ba7565b610220516060818303910152610360516103a051611ba7565b6102205160808183039101526101805160a051611ba7565b6102205160a08183039101526104605161026051611ba7565b6102205160c08183039101526102a05161038051611ba7565b6102205160e0818303910152610120516103c051611ba7565b610220516101008183039101526104005161028051611ba7565b61022051610120818303910152610240516101c051611ba7565b610220516101408183039101526103e05161020051611ba7565b6102205161016081830391015260e0516102c051611ba7565b610220516101808183039101526104205161010051611ba7565b610220516101a08183039101526103005161014051611ba7565b610220516101c081830391015261116a61022051916101a05160c051611ba7565b0361022051a1005b905061032051013583610f81565b81600052602060002060009361032051905b601f19841686106111d557600194955083601f198116106111bb575b505050811b019055610f95565b0135600019600384901b60f8161c191690558380806111ae565b91602060018192858501358155019301950194611192565b634e487b7160e01b600052604160045260246000fd5b634e487b7160e01b600052600060045260246000fd5b015190508380610f00565b601f198216938360005260206000209160005b8681106112705750836001959610611257575b505050811b019055610f15565b015160001960f88460031b161c1916905583808061124a565b91926020600181928685015181550194019201611237565b015190508380610ea1565b9250600c84016000526020600020906000935b601f19841685106112ea576001945083601f198116106112d1575b505050811b01600c820155610eb9565b015160001960f88460031b161c191690558380806112c1565b818101518355602094850194600190930192909101906112a6565b015190508380610e3d565b9250600b84016000526020600020906000935b601f1984168510611367576001945083601f1981161061134e575b505050811b01600b820155610e55565b015160001960f88460031b161c1916905583808061133e565b81810151835560209485019460019093019290910190611323565b015190508380610dd9565b9250600a84016000526020600020906000935b601f19841685106113e4576001945083601f198116106113cb575b505050811b01600a820155610df1565b015160001960f88460031b161c191690558380806113bb565b818101518355602094850194600190930192909101906113a0565b015190508380610d75565b9250600984016000526020600020906000935b601f1984168510611461576001945083601f19811610611448575b505050811b016009820155610d8d565b015160001960f88460031b161c19169055838080611438565b8181015183556020948501946001909301929091019061141d565b015190508380610d11565b9250600884016000526020600020906000935b601f19841685106114de576001945083601f198116106114c5575b505050811b016008820155610d29565b015160001960f88460031b161c191690558380806114b5565b8181015183556020948501946001909301929091019061149a565b015190508380610cad565b9250600784016000526020600020906000935b601f198416851061155b576001945083601f19811610611542575b505050811b016007820155610cc5565b015160001960f88460031b161c19169055838080611532565b81810151835560209485019460019093019290910190611517565b015190508380610c4a565b9250600684016000526020600020906000935b601f19841685106115d8576001945083601f198116106115bf575b505050811b016006820155610c62565b015160001960f88460031b161c191690558380806115af565b81810151835560209485019460019093019290910190611594565b015190508380610be7565b9250600584016000526020600020906000935b601f1984168510611655576001945083601f1981161061163c575b505050811b016005820155610bff565b015160001960f88460031b161c1916905583808061162c565b81810151835560209485019460019093019290910190611611565b015190508380610b84565b9250600484016000526020600020906000935b601f19841685106116d2576001945083601f198116106116b9575b505050811b016004820155610b9c565b015160001960f88460031b161c191690558380806116a9565b8181015183556020948501946001909301929091019061168e565b015190508480610b24565b826000526020600020906000601f198416905b8181106117465750958360019596971061172d575b505050811b019055610b39565b015160001960f88460031b161c19169055848080611720565b9192602060018192868b01518155019401920161170b565b015190508480610aca565b826000526020600020906000601f198416905b8181106117b75750958360019596971061179e575b505050811b019055610adf565b015160001960f88460031b161c19169055848080611791565b9192602060018192868b01518155019401920161177c565b015190508480610a70565b826000526020600020906000601f198416905b8181106118285750958360019596971061180f575b505050811b019055610a85565b015160001960f88460031b161c19169055848080611802565b9192602060018192868b0151815501940192016117ed565b015190508380610a16565b82600052602060002090600094601f198416955b868110611898575083600195961061187f575b505050811b018155610a2b565b015160001960f88460031b161c19169055838080611872565b9192602060018192868501518155019401920161185f565b60405162461bcd60e51b815260206004820152600b60248201526a139bdd081cdd195dd85c9960aa1b6044820152606490fd5b34610270576020366003190112610270576004356002548110156102705761190a9061192e565b6112035761191a61026c916119f2565b604051918291602083526020830190611abb565b6002548110156119655760026000527f405787fa12a823e0f2b7631cc41b3ba8828b3321ca811111fa75cd3aa3bb5ace0190600090565b634e487b7160e01b600052603260045260246000fd5b90600182811c921680156119ab575b602083101461199557565b634e487b7160e01b600052602260045260246000fd5b91607f169161198a565b6101c081019081106001600160401b038211176111ed57604052565b90601f801991011681019081106001600160401b038211176111ed57604052565b9060405191826000825492611a068461197b565b908184526001948581169081600014611a755750600114611a32575b5050611a30925003836119d1565b565b9093915060005260209081600020936000915b818310611a5d575050611a3093508201013880611a22565b85548884018501529485019487945091830191611a45565b915050611a3094506020925060ff191682840152151560051b8201013880611a22565b60005b838110611aab5750506000910152565b8181015183820152602001611a9b565b90602091611ad481518092818552858086019101611a98565b601f01601f1916010190565b9181601f84011215610270578235916001600160401b038311610270576020838186019501011161027057565b9291926001600160401b0382116111ed5760405191611b36601f8201601f1916602001846119d1565b829481845281830111610270578281602093846000960137010152565b90601f8111611b6157505050565b600091825260208220906020601f850160051c83019410611b9d575b601f0160051c01915b828110611b9257505050565b818155600101611b86565b9092508290611b7d565b908060209392818452848401376000828201840152601f01601f191601019056fea2646970667358221220d24f775be2dd55b1ba1db52d021a89a0e2ee23df20da8f91403c4215d04dfa8364736f6c63430008140033","opcodes":"PUSH1 0x80 DUP1 PUSH1 0x40 MSTORE CALLVALUE PUSH2 0x28 JUMPI PUSH1 0x0 DUP1 SLOAD PUSH1 0x1 PUSH1 0x1 PUSH1 0xA0 SHL SUB NOT AND CALLER OR SWAP1 SSTORE PUSH2 0x1BFE SWAP1 DUP2 PUSH2 0x2E DUP3 CODECOPY RETURN JUMPDEST PUSH1 0x0 DUP1 REVERT INVALID PUSH2 0x480 PUSH1 0x40 MSTORE PUSH1 0x4 CALLDATASIZE LT ISZERO PUSH2 0x13 JUMPI PUSH1 0x0 DUP1 REVERT JUMPDEST PUSH1 0x0 CALLDATALOAD PUSH1 0xE0 SHR DUP1 PUSH4 0xCB6AAF1 EQ PUSH2 0x18E3 JUMPI DUP1 PUSH4 0x3291DB1B EQ PUSH2 0x5D4 JUMPI DUP1 PUSH4 0x637EEA19 EQ PUSH2 0x5AB JUMPI DUP1 PUSH4 0x83361522 EQ PUSH2 0x293 JUMPI DUP1 PUSH4 0xC212D16B EQ PUSH2 0x275 JUMPI PUSH4 0xDBC21424 EQ PUSH2 0x5F JUMPI PUSH1 0x0 DUP1 REVERT JUMPDEST CALLVALUE PUSH2 0x270 JUMPI PUSH1 0x20 CALLDATASIZE PUSH1 0x3 NOT ADD SLT PUSH2 0x270 JUMPI PUSH1 0x4 CALLDATALOAD PUSH1 0x1 PUSH1 0x1 PUSH1 0x40 SHL SUB DUP2 GT PUSH2 0x270 JUMPI CALLDATASIZE PUSH1 0x23 DUP3 ADD SLT ISZERO PUSH2 0x270 JUMPI CALLDATASIZE DUP2 PUSH1 0x4 ADD CALLDATALOAD SWAP2 PUSH1 0x24 ADD SWAP2 PUSH2 0xA0 SWAP3 PUSH2 0x1B0D JUMP JUMPDEST PUSH1 0x40 MLOAD DUP2 DUP2 DUP1 SWAP4 MLOAD PUSH1 0x20 DUP2 SWAP4 ADD SWAP2 PUSH2 0xB7 SWAP3 PUSH2 0x1A98 JUMP JUMPDEST DUP2 ADD PUSH1 0x1 DUP2 MSTORE SUB PUSH1 0x20 ADD SWAP1 KECCAK256 PUSH2 0xCC DUP2 PUSH2 0x19F2 JUMP JUMPDEST PUSH2 0xD8 PUSH1 0x1 DUP4 ADD PUSH2 0x19F2 JUMP JUMPDEST SWAP2 PUSH2 0xE5 PUSH1 0x2 DUP3 ADD PUSH2 0x19F2 JUMP JUMPDEST SWAP1 PUSH2 0xF2 PUSH1 0x3 DUP3 ADD PUSH2 0x19F2 JUMP JUMPDEST PUSH2 0xFE PUSH1 0x4 DUP4 ADD PUSH2 0x19F2 JUMP JUMPDEST PUSH2 0x10A PUSH1 0x5 DUP5 ADD PUSH2 0x19F2 JUMP JUMPDEST PUSH2 0x116 PUSH1 0x6 DUP6 ADD PUSH2 0x19F2 JUMP JUMPDEST PUSH2 0x122 PUSH1 0x7 DUP7 ADD PUSH2 0x19F2 JUMP JUMPDEST PUSH2 0x12E PUSH1 0x8 DUP8 ADD PUSH2 0x19F2 JUMP JUMPDEST SWAP2 PUSH2 0x13B PUSH1 0x9 DUP9 ADD PUSH2 0x19F2 JUMP JUMPDEST SWAP4 PUSH2 0x148 PUSH1 0xA DUP10 ADD PUSH2 0x19F2 JUMP JUMPDEST SWAP6 PUSH2 0x155 PUSH1 0xB DUP11 ADD PUSH2 0x19F2 JUMP JUMPDEST SWAP8 PUSH2 0x162 PUSH1 0xC DUP12 ADD PUSH2 0x19F2 JUMP JUMPDEST SWAP10 PUSH1 0xD ADD PUSH2 0x16F SWAP1 PUSH2 0x19F2 JUMP JUMPDEST SWAP11 PUSH1 0x40 MLOAD SWAP14 DUP15 DUP1 SWAP15 PUSH2 0x1C0 DUP1 DUP4 MSTORE DUP3 ADD PUSH2 0x188 SWAP2 PUSH2 0x1ABB JUMP JUMPDEST SWAP1 DUP1 DUP3 SUB SWAP1 PUSH1 0x20 ADD MSTORE PUSH2 0x19A SWAP2 PUSH2 0x1ABB JUMP JUMPDEST DUP14 DUP2 SUB PUSH1 0x40 DUP16 ADD MSTORE PUSH2 0x1AB SWAP2 PUSH2 0x1ABB JUMP JUMPDEST DUP13 DUP2 SUB PUSH1 0x60 DUP15 ADD MSTORE PUSH2 0x1BC SWAP2 PUSH2 0x1ABB JUMP JUMPDEST DUP12 DUP2 SUB PUSH1 0x80 DUP14 ADD MSTORE PUSH2 0x1CD SWAP2 PUSH2 0x1ABB JUMP JUMPDEST DUP11 DUP2 SUB PUSH1 0xA0 DUP13 ADD MSTORE PUSH2 0x1DE SWAP2 PUSH2 0x1ABB JUMP JUMPDEST DUP10 DUP2 SUB PUSH1 0xC0 DUP12 ADD MSTORE PUSH2 0x1EF SWAP2 PUSH2 0x1ABB JUMP JUMPDEST DUP9 DUP2 SUB PUSH1 0xE0 DUP11 ADD MSTORE PUSH2 0x200 SWAP2 PUSH2 0x1ABB JUMP JUMPDEST DUP8 DUP2 SUB PUSH2 0x100 DUP10 ADD MSTORE PUSH2 0x212 SWAP2 PUSH2 0x1ABB JUMP JUMPDEST DUP7 DUP2 SUB PUSH2 0x120 DUP9 ADD MSTORE PUSH2 0x224 SWAP2 PUSH2 0x1ABB JUMP JUMPDEST DUP6 DUP2 SUB PUSH2 0x140 DUP8 ADD MSTORE PUSH2 0x236 SWAP2 PUSH2 0x1ABB JUMP JUMPDEST DUP5 DUP2 SUB PUSH2 0x160 DUP7 ADD MSTORE PUSH2 0x248 SWAP2 PUSH2 0x1ABB JUMP JUMPDEST DUP4 DUP2 SUB PUSH2 0x180 DUP6 ADD MSTORE PUSH2 0x25A SWAP2 PUSH2 0x1ABB JUMP JUMPDEST DUP3 DUP2 SUB PUSH2 0x1A0 DUP5 ADD MSTORE PUSH2 0x26C SWAP2 PUSH2 0x1ABB JUMP JUMPDEST SUB SWAP1 RETURN JUMPDEST PUSH1 0x0 DUP1 REVERT JUMPDEST CALLVALUE PUSH2 0x270 JUMPI PUSH1 0x0 CALLDATASIZE PUSH1 0x3 NOT ADD SLT PUSH2 0x270 JUMPI PUSH1 0x20 PUSH1 0x2 SLOAD PUSH1 0x40 MLOAD SWAP1 DUP2 MSTORE RETURN JUMPDEST CALLVALUE PUSH2 0x270 JUMPI PUSH1 0x20 CALLDATASIZE PUSH1 0x3 NOT ADD SLT PUSH2 0x270 JUMPI PUSH1 0x4 CALLDATALOAD PUSH1 0x1 PUSH1 0x1 PUSH1 0x40 SHL SUB DUP2 GT PUSH2 0x270 JUMPI PUSH1 0x20 PUSH2 0x2C8 PUSH2 0x4C5 SWAP3 CALLDATASIZE SWAP1 PUSH1 0x4 ADD PUSH2 0x1AE0 JUMP JUMPDEST SWAP2 SWAP1 PUSH1 0x60 PUSH2 0x1A0 PUSH1 0x40 MLOAD PUSH2 0x2DB DUP2 PUSH2 0x19B5 JUMP JUMPDEST DUP3 DUP2 MSTORE DUP3 DUP6 DUP3 ADD MSTORE DUP3 PUSH1 0x40 DUP3 ADD MSTORE DUP3 DUP1 DUP3 ADD MSTORE DUP3 PUSH1 0x80 DUP3 ADD MSTORE DUP3 PUSH1 0xA0 DUP3 ADD MSTORE DUP3 PUSH1 0xC0 DUP3 ADD MSTORE DUP3 PUSH1 0xE0 DUP3 ADD MSTORE DUP3 PUSH2 0x100 DUP3 ADD MSTORE DUP3 PUSH2 0x120 DUP3 ADD MSTORE DUP3 PUSH2 0x140 DUP3 ADD MSTORE DUP3 PUSH2 0x160 DUP3 ADD MSTORE DUP3 PUSH2 0x180 DUP3 ADD MSTORE ADD MSTORE DUP3 PUSH1 0x40 MLOAD SWAP4 DUP5 SWAP3 DUP4 CALLDATACOPY DUP2 ADD PUSH1 0x1 DUP2 MSTORE SUB ADD SWAP1 KECCAK256 PUSH2 0x432 PUSH1 0xD PUSH1 0x40 MLOAD SWAP3 PUSH2 0x350 DUP5 PUSH2 0x19B5 JUMP JUMPDEST PUSH2 0x359 DUP2 PUSH2 0x19F2 JUMP JUMPDEST DUP5 MSTORE PUSH2 0x367 PUSH1 0x1 DUP3 ADD PUSH2 0x19F2 JUMP JUMPDEST PUSH1 0x20 DUP6 ADD MSTORE PUSH2 0x378 PUSH1 0x2 DUP3 ADD PUSH2 0x19F2 JUMP JUMPDEST PUSH1 0x40 DUP6 ADD MSTORE PUSH2 0x389 PUSH1 0x3 DUP3 ADD PUSH2 0x19F2 JUMP JUMPDEST PUSH1 0x60 DUP6 ADD MSTORE PUSH2 0x39A PUSH1 0x4 DUP3 ADD PUSH2 0x19F2 JUMP JUMPDEST PUSH1 0x80 DUP6 ADD MSTORE PUSH2 0x3AB PUSH1 0x5 DUP3 ADD PUSH2 0x19F2 JUMP JUMPDEST PUSH1 0xA0 DUP6 ADD MSTORE PUSH2 0x3BC PUSH1 0x6 DUP3 ADD PUSH2 0x19F2 JUMP JUMPDEST PUSH1 0xC0 DUP6 ADD MSTORE PUSH2 0x3CD PUSH1 0x7 DUP3 ADD PUSH2 0x19F2 JUMP JUMPDEST PUSH1 0xE0 DUP6 ADD MSTORE PUSH2 0x3DE PUSH1 0x8 DUP3 ADD PUSH2 0x19F2 JUMP JUMPDEST PUSH2 0x100 DUP6 ADD MSTORE PUSH2 0x3F0 PUSH1 0x9 DUP3 ADD PUSH2 0x19F2 JUMP JUMPDEST PUSH2 0x120 DUP6 ADD MSTORE PUSH2 0x402 PUSH1 0xA DUP3 ADD PUSH2 0x19F2 JUMP JUMPDEST PUSH2 0x140 DUP6 ADD MSTORE PUSH2 0x414 PUSH1 0xB DUP3 ADD PUSH2 0x19F2 JUMP JUMPDEST PUSH2 0x160 DUP6 ADD MSTORE PUSH2 0x426 PUSH1 0xC DUP3 ADD PUSH2 0x19F2 JUMP JUMPDEST PUSH2 0x180 DUP6 ADD MSTORE ADD PUSH2 0x19F2 JUMP JUMPDEST PUSH2 0x1A0 DUP3 ADD MSTORE PUSH2 0x26C DUP2 PUSH2 0x1A0 PUSH2 0x596 PUSH2 0x580 PUSH2 0x568 PUSH2 0x550 PUSH2 0x538 PUSH2 0x520 PUSH2 0x509 PUSH2 0x4F3 PUSH2 0x4DD PUSH1 0x40 MLOAD SWAP14 DUP15 SWAP14 DUP15 PUSH1 0x20 DUP2 MSTORE PUSH1 0x60 PUSH2 0x4B0 PUSH2 0x49B PUSH2 0x485 DUP6 MLOAD PUSH2 0x1C0 PUSH1 0x20 DUP8 ADD MSTORE PUSH2 0x1E0 DUP7 ADD SWAP1 PUSH2 0x1ABB JUMP JUMPDEST PUSH1 0x20 DUP7 ADD MLOAD DUP6 DUP3 SUB PUSH1 0x1F NOT ADD PUSH1 0x40 DUP8 ADD MSTORE PUSH2 0x1ABB JUMP JUMPDEST PUSH1 0x40 DUP6 ADD MLOAD DUP5 DUP3 SUB PUSH1 0x1F NOT ADD DUP5 DUP7 ADD MSTORE PUSH2 0x1ABB JUMP JUMPDEST SWAP3 ADD MLOAD SWAP1 PUSH1 0x80 PUSH1 0x1F NOT DUP3 DUP6 SUB ADD SWAP2 ADD MSTORE PUSH2 0x1ABB JUMP JUMPDEST DUP14 PUSH1 0x80 DUP14 ADD MLOAD SWAP1 PUSH1 0xA0 PUSH1 0x1F NOT DUP3 DUP6 SUB ADD SWAP2 ADD MSTORE PUSH2 0x1ABB JUMP JUMPDEST PUSH1 0xA0 DUP12 ADD MLOAD DUP14 DUP3 SUB PUSH1 0x1F NOT ADD PUSH1 0xC0 DUP16 ADD MSTORE PUSH2 0x1ABB JUMP JUMPDEST PUSH1 0xC0 DUP11 ADD MLOAD DUP13 DUP3 SUB PUSH1 0x1F NOT ADD PUSH1 0xE0 DUP15 ADD MSTORE PUSH2 0x1ABB JUMP JUMPDEST PUSH1 0xE0 DUP10 ADD MLOAD DUP12 DUP3 SUB PUSH1 0x1F NOT ADD PUSH2 0x100 DUP14 ADD MSTORE PUSH2 0x1ABB JUMP JUMPDEST PUSH2 0x100 DUP9 ADD MLOAD DUP11 DUP3 SUB PUSH1 0x1F NOT ADD PUSH2 0x120 DUP13 ADD MSTORE PUSH2 0x1ABB JUMP JUMPDEST PUSH2 0x120 DUP8 ADD MLOAD DUP10 DUP3 SUB PUSH1 0x1F NOT ADD PUSH2 0x140 DUP12 ADD MSTORE PUSH2 0x1ABB JUMP JUMPDEST PUSH2 0x140 DUP7 ADD MLOAD DUP9 DUP3 SUB PUSH1 0x1F NOT ADD PUSH2 0x160 DUP11 ADD MSTORE PUSH2 0x1ABB JUMP JUMPDEST PUSH2 0x160 DUP6 ADD MLOAD DUP8 DUP3 SUB PUSH1 0x1F NOT ADD PUSH2 0x180 DUP10 ADD MSTORE PUSH2 0x1ABB JUMP JUMPDEST PUSH2 0x180 DUP5 ADD MLOAD DUP7 DUP3 SUB PUSH1 0x1F NOT ADD DUP5 DUP9 ADD MSTORE PUSH2 0x1ABB JUMP JUMPDEST SWAP2 ADD MLOAD DUP4 DUP3 SUB PUSH1 0x1F NOT ADD PUSH2 0x1C0 DUP6 ADD MSTORE PUSH2 0x1ABB JUMP JUMPDEST CALLVALUE PUSH2 0x270 JUMPI PUSH1 0x0 CALLDATASIZE PUSH1 0x3 NOT ADD SLT PUSH2 0x270 JUMPI PUSH1 0x0 SLOAD PUSH1 0x40 MLOAD PUSH1 0x1 PUSH1 0x1 PUSH1 0xA0 SHL SUB SWAP1 SWAP2 AND DUP2 MSTORE PUSH1 0x20 SWAP1 RETURN JUMPDEST CALLVALUE PUSH2 0x270 JUMPI PUSH2 0x1E0 CALLDATASIZE PUSH1 0x3 NOT ADD SLT PUSH2 0x270 JUMPI PUSH1 0x4 CALLDATALOAD PUSH1 0x1 PUSH1 0x1 PUSH1 0x40 SHL SUB DUP2 GT PUSH2 0x270 JUMPI PUSH2 0x605 SWAP1 CALLDATASIZE SWAP1 PUSH1 0x4 ADD PUSH2 0x1AE0 JUMP JUMPDEST PUSH1 0x80 MSTORE PUSH2 0x320 MSTORE PUSH1 0x24 CALLDATALOAD PUSH1 0x1 PUSH1 0x1 PUSH1 0x40 SHL SUB DUP2 GT PUSH2 0x270 JUMPI PUSH2 0x62B SWAP1 CALLDATASIZE SWAP1 PUSH1 0x4 ADD PUSH2 0x1AE0 JUMP JUMPDEST PUSH2 0x440 MSTORE PUSH2 0x1E0 MSTORE PUSH1 0x44 CALLDATALOAD PUSH1 0x1 PUSH1 0x1 PUSH1 0x40 SHL SUB DUP2 GT PUSH2 0x270 JUMPI PUSH2 0x652 SWAP1 CALLDATASIZE SWAP1 PUSH1 0x4 ADD PUSH2 0x1AE0 JUMP JUMPDEST PUSH2 0x160 MSTORE PUSH2 0x340 MSTORE PUSH1 0x64 CALLDATALOAD PUSH1 0x1 PUSH1 0x1 PUSH1 0x40 SHL SUB DUP2 GT PUSH2 0x270 JUMPI PUSH2 0x679 SWAP1 CALLDATASIZE SWAP1 PUSH1 0x4 ADD PUSH2 0x1AE0 JUMP JUMPDEST PUSH2 0x360 MSTORE PUSH2 0x3A0 MSTORE PUSH1 0x84 CALLDATALOAD PUSH1 0x1 PUSH1 0x1 PUSH1 0x40 SHL SUB DUP2 GT PUSH2 0x270 JUMPI PUSH2 0x6A0 SWAP1 CALLDATASIZE SWAP1 PUSH1 0x4 ADD PUSH2 0x1AE0 JUMP JUMPDEST PUSH2 0x180 MSTORE PUSH1 0xA0 MSTORE PUSH1 0xA4 CALLDATALOAD PUSH1 0x1 PUSH1 0x1 PUSH1 0x40 SHL SUB DUP2 GT PUSH2 0x270 JUMPI PUSH2 0x6C6 SWAP1 CALLDATASIZE SWAP1 PUSH1 0x4 ADD PUSH2 0x1AE0 JUMP JUMPDEST PUSH2 0x460 MSTORE PUSH2 0x260 MSTORE PUSH1 0xC4 CALLDATALOAD PUSH1 0x1 PUSH1 0x1 PUSH1 0x40 SHL SUB DUP2 GT PUSH2 0x270 JUMPI PUSH2 0x6ED SWAP1 CALLDATASIZE SWAP1 PUSH1 0x4 ADD PUSH2 0x1AE0 JUMP JUMPDEST PUSH2 0x2A0 MSTORE PUSH2 0x380 MSTORE PUSH1 0x1 PUSH1 0x1 PUSH1 0x40 SHL SUB PUSH1 0xE4 CALLDATALOAD GT PUSH2 0x270 JUMPI PUSH2 0x714 CALLDATASIZE PUSH1 0xE4 CALLDATALOAD PUSH1 0x4 ADD PUSH2 0x1AE0 JUMP JUMPDEST PUSH2 0x120 MSTORE PUSH2 0x3C0 MSTORE PUSH1 0x1 PUSH1 0x1 PUSH1 0x40 SHL SUB PUSH2 0x104 CALLDATALOAD GT PUSH2 0x270 JUMPI PUSH2 0x73D CALLDATASIZE PUSH2 0x104 CALLDATALOAD PUSH1 0x4 ADD PUSH2 0x1AE0 JUMP JUMPDEST PUSH2 0x400 MSTORE PUSH2 0x280 MSTORE PUSH1 0x1 PUSH1 0x1 PUSH1 0x40 SHL SUB PUSH2 0x124 CALLDATALOAD GT PUSH2 0x270 JUMPI PUSH2 0x766 CALLDATASIZE PUSH2 0x124 CALLDATALOAD PUSH1 0x4 ADD PUSH2 0x1AE0 JUMP JUMPDEST PUSH2 0x240 MSTORE PUSH2 0x1C0 MSTORE PUSH2 0x144 CALLDATALOAD PUSH1 0x1 PUSH1 0x1 PUSH1 0x40 SHL SUB DUP2 GT PUSH2 0x270 JUMPI PUSH2 0x78E SWAP1 CALLDATASIZE SWAP1 PUSH1 0x4 ADD PUSH2 0x1AE0 JUMP JUMPDEST PUSH2 0x3E0 MSTORE PUSH2 0x200 MSTORE PUSH2 0x164 CALLDATALOAD PUSH1 0x1 PUSH1 0x1 PUSH1 0x40 SHL SUB DUP2 GT PUSH2 0x270 JUMPI PUSH2 0x7B6 SWAP1 CALLDATASIZE SWAP1 PUSH1 0x4 ADD PUSH2 0x1AE0 JUMP JUMPDEST PUSH1 0xE0 MSTORE PUSH2 0x2C0 MSTORE PUSH2 0x184 CALLDATALOAD PUSH1 0x1 PUSH1 0x1 PUSH1 0x40 SHL SUB DUP2 GT PUSH2 0x270 JUMPI PUSH2 0x7DD SWAP1 CALLDATASIZE SWAP1 PUSH1 0x4 ADD PUSH2 0x1AE0 JUMP JUMPDEST PUSH2 0x420 MSTORE PUSH2 0x100 MSTORE PUSH2 0x1A4 CALLDATALOAD PUSH1 0x1 PUSH1 0x1 PUSH1 0x40 SHL SUB DUP2 GT PUSH2 0x270 JUMPI PUSH2 0x805 SWAP1 CALLDATASIZE SWAP1 PUSH1 0x4 ADD PUSH2 0x1AE0 JUMP JUMPDEST PUSH2 0x300 MSTORE PUSH2 0x140 MSTORE PUSH2 0x1C4 CALLDATALOAD PUSH1 0x1 PUSH1 0x1 PUSH1 0x40 SHL SUB DUP2 GT PUSH2 0x270 JUMPI PUSH2 0x82D SWAP1 CALLDATASIZE SWAP1 PUSH1 0x4 ADD PUSH2 0x1AE0 JUMP JUMPDEST PUSH2 0x1A0 MSTORE PUSH1 0xC0 MSTORE PUSH1 0x0 SLOAD PUSH1 0x1 PUSH1 0x1 PUSH1 0xA0 SHL SUB AND CALLER SUB PUSH2 0x18B0 JUMPI PUSH2 0x856 PUSH1 0x40 MLOAD DUP1 PUSH2 0x2E0 MSTORE PUSH2 0x19B5 JUMP JUMPDEST PUSH2 0x867 CALLDATASIZE PUSH2 0x440 MLOAD PUSH2 0x1E0 MLOAD PUSH2 0x1B0D JUMP JUMPDEST PUSH2 0x2E0 MLOAD MSTORE PUSH2 0x87D CALLDATASIZE PUSH2 0x160 MLOAD PUSH2 0x340 MLOAD PUSH2 0x1B0D JUMP JUMPDEST PUSH1 0x20 PUSH2 0x2E0 MLOAD ADD MSTORE PUSH2 0x896 CALLDATASIZE PUSH2 0x360 MLOAD PUSH2 0x3A0 MLOAD PUSH2 0x1B0D JUMP JUMPDEST PUSH1 0x40 PUSH2 0x2E0 MLOAD ADD MSTORE PUSH2 0x8AE CALLDATASIZE PUSH2 0x180 MLOAD PUSH1 0xA0 MLOAD PUSH2 0x1B0D JUMP JUMPDEST PUSH1 0x60 PUSH2 0x2E0 MLOAD ADD MSTORE PUSH2 0x8C7 CALLDATASIZE PUSH2 0x460 MLOAD PUSH2 0x260 MLOAD PUSH2 0x1B0D JUMP JUMPDEST PUSH1 0x80 PUSH2 0x2E0 MLOAD ADD MSTORE PUSH2 0x8E0 CALLDATASIZE PUSH2 0x2A0 MLOAD PUSH2 0x380 MLOAD PUSH2 0x1B0D JUMP JUMPDEST PUSH1 0xA0 PUSH2 0x2E0 MLOAD ADD MSTORE PUSH2 0x8F9 CALLDATASIZE PUSH2 0x120 MLOAD PUSH2 0x3C0 MLOAD PUSH2 0x1B0D JUMP JUMPDEST PUSH1 0xC0 PUSH2 0x2E0 MLOAD ADD MSTORE PUSH2 0x912 CALLDATASIZE PUSH2 0x400 MLOAD PUSH2 0x280 MLOAD PUSH2 0x1B0D JUMP JUMPDEST PUSH1 0xE0 PUSH2 0x2E0 MLOAD ADD MSTORE PUSH2 0x92B CALLDATASIZE PUSH2 0x240 MLOAD PUSH2 0x1C0 MLOAD PUSH2 0x1B0D JUMP JUMPDEST PUSH2 0x100 PUSH2 0x2E0 MLOAD ADD MSTORE PUSH2 0x945 CALLDATASIZE PUSH2 0x3E0 MLOAD PUSH2 0x200 MLOAD PUSH2 0x1B0D JUMP JUMPDEST PUSH2 0x120 PUSH2 0x2E0 MLOAD ADD MSTORE PUSH2 0x95E CALLDATASIZE PUSH1 0xE0 MLOAD PUSH2 0x2C0 MLOAD PUSH2 0x1B0D JUMP JUMPDEST PUSH2 0x140 PUSH2 0x2E0 MLOAD ADD MSTORE PUSH2 0x978 CALLDATASIZE PUSH2 0x420 MLOAD PUSH2 0x100 MLOAD PUSH2 0x1B0D JUMP JUMPDEST PUSH2 0x160 PUSH2 0x2E0 MLOAD ADD MSTORE PUSH2 0x992 CALLDATASIZE PUSH2 0x300 MLOAD PUSH2 0x140 MLOAD PUSH2 0x1B0D JUMP JUMPDEST PUSH2 0x180 PUSH2 0x2E0 MLOAD ADD MSTORE PUSH2 0x9AB CALLDATASIZE PUSH2 0x1A0 MLOAD PUSH1 0xC0 MLOAD PUSH2 0x1B0D JUMP JUMPDEST PUSH2 0x1A0 PUSH2 0x2E0 MLOAD ADD MSTORE PUSH1 0x40 MLOAD PUSH1 0x80 MLOAD PUSH2 0x320 MLOAD DUP3 CALLDATACOPY PUSH1 0x1 PUSH1 0x80 MLOAD DUP3 ADD MSTORE PUSH1 0x20 DUP2 PUSH1 0x80 MLOAD DUP2 ADD SUB ADD SWAP1 KECCAK256 PUSH2 0x2E0 MLOAD MLOAD SWAP1 DUP2 MLOAD PUSH1 0x1 PUSH1 0x1 PUSH1 0x40 SHL SUB DUP2 GT PUSH2 0x11ED JUMPI PUSH2 0x9FE DUP2 PUSH2 0x9F8 DUP5 SLOAD PUSH2 0x197B JUMP JUMPDEST DUP5 PUSH2 0x1B53 JUMP JUMPDEST PUSH1 0x20 PUSH1 0x1F DUP3 GT PUSH1 0x1 EQ PUSH2 0x184B JUMPI DUP2 SWAP3 SWAP4 PUSH1 0x0 SWAP3 PUSH2 0x1840 JUMPI JUMPDEST POP POP DUP2 PUSH1 0x1 SHL SWAP2 PUSH1 0x0 NOT SWAP1 PUSH1 0x3 SHL SHR NOT AND OR DUP2 SSTORE JUMPDEST PUSH1 0x20 PUSH2 0x2E0 MLOAD ADD MLOAD SWAP1 DUP2 MLOAD PUSH1 0x1 PUSH1 0x1 PUSH1 0x40 SHL SUB DUP2 GT PUSH2 0x11ED JUMPI PUSH1 0x1 DUP3 ADD SWAP1 PUSH2 0xA57 DUP2 PUSH2 0x9F8 DUP5 SLOAD PUSH2 0x197B JUMP JUMPDEST PUSH1 0x20 PUSH1 0x1F DUP3 GT PUSH1 0x1 EQ PUSH2 0x17DA JUMPI DUP2 SWAP3 SWAP4 SWAP5 PUSH1 0x0 SWAP3 PUSH2 0x17CF JUMPI JUMPDEST POP POP DUP2 PUSH1 0x1 SHL SWAP2 PUSH1 0x0 NOT SWAP1 PUSH1 0x3 SHL SHR NOT AND OR SWAP1 SSTORE JUMPDEST PUSH1 0x40 PUSH2 0x2E0 MLOAD ADD MLOAD SWAP1 DUP2 MLOAD PUSH1 0x1 PUSH1 0x1 PUSH1 0x40 SHL SUB DUP2 GT PUSH2 0x11ED JUMPI PUSH1 0x2 DUP3 ADD SWAP1 PUSH2 0xAB1 DUP2 PUSH2 0x9F8 DUP5 SLOAD PUSH2 0x197B JUMP JUMPDEST PUSH1 0x20 PUSH1 0x1F DUP3 GT PUSH1 0x1 EQ PUSH2 0x1769 JUMPI DUP2 SWAP3 SWAP4 SWAP5 PUSH1 0x0 SWAP3 PUSH2 0x175E JUMPI JUMPDEST POP POP DUP2 PUSH1 0x1 SHL SWAP2 PUSH1 0x0 NOT SWAP1 PUSH1 0x3 SHL SHR NOT AND OR SWAP1 SSTORE JUMPDEST PUSH1 0x60 PUSH2 0x2E0 MLOAD ADD MLOAD SWAP1 DUP2 MLOAD PUSH1 0x1 PUSH1 0x1 PUSH1 0x40 SHL SUB DUP2 GT PUSH2 0x11ED JUMPI PUSH1 0x3 DUP3 ADD SWAP1 PUSH2 0xB0B DUP2 PUSH2 0x9F8 DUP5 SLOAD PUSH2 0x197B JUMP JUMPDEST PUSH1 0x20 PUSH1 0x1F DUP3 GT PUSH1 0x1 EQ PUSH2 0x16F8 JUMPI DUP2 SWAP3 SWAP4 SWAP5 PUSH1 0x0 SWAP3 PUSH2 0x16ED JUMPI JUMPDEST POP POP DUP2 PUSH1 0x1 SHL SWAP2 PUSH1 0x0 NOT SWAP1 PUSH1 0x3 SHL SHR NOT AND OR SWAP1 SSTORE JUMPDEST PUSH1 0x80 PUSH2 0x2E0 MLOAD ADD MLOAD DUP1 MLOAD SWAP1 PUSH1 0x1 PUSH1 0x1 PUSH1 0x40 SHL SUB DUP3 GT PUSH2 0x11ED JUMPI DUP2 SWAP1 PUSH2 0xB6E DUP3 PUSH2 0xB65 PUSH1 0x4 DUP8 ADD SLOAD PUSH2 0x197B JUMP JUMPDEST PUSH1 0x4 DUP8 ADD PUSH2 0x1B53 JUMP JUMPDEST PUSH1 0x20 SWAP1 PUSH1 0x1F DUP4 GT PUSH1 0x1 EQ PUSH2 0x167B JUMPI PUSH1 0x0 SWAP3 PUSH2 0x1670 JUMPI JUMPDEST POP POP DUP2 PUSH1 0x1 SHL SWAP2 PUSH1 0x0 NOT SWAP1 PUSH1 0x3 SHL SHR NOT AND OR PUSH1 0x4 DUP3 ADD SSTORE JUMPDEST PUSH1 0xA0 PUSH2 0x2E0 MLOAD ADD MLOAD DUP1 MLOAD SWAP1 PUSH1 0x1 PUSH1 0x1 PUSH1 0x40 SHL SUB DUP3 GT PUSH2 0x11ED JUMPI DUP2 SWAP1 PUSH2 0xBD1 DUP3 PUSH2 0xBC8 PUSH1 0x5 DUP8 ADD SLOAD PUSH2 0x197B JUMP JUMPDEST PUSH1 0x5 DUP8 ADD PUSH2 0x1B53 JUMP JUMPDEST PUSH1 0x20 SWAP1 PUSH1 0x1F DUP4 GT PUSH1 0x1 EQ PUSH2 0x15FE JUMPI PUSH1 0x0 SWAP3 PUSH2 0x15F3 JUMPI JUMPDEST POP POP DUP2 PUSH1 0x1 SHL SWAP2 PUSH1 0x0 NOT SWAP1 PUSH1 0x3 SHL SHR NOT AND OR PUSH1 0x5 DUP3 ADD SSTORE JUMPDEST PUSH1 0xC0 PUSH2 0x2E0 MLOAD ADD MLOAD DUP1 MLOAD SWAP1 PUSH1 0x1 PUSH1 0x1 PUSH1 0x40 SHL SUB DUP3 GT PUSH2 0x11ED JUMPI DUP2 SWAP1 PUSH2 0xC34 DUP3 PUSH2 0xC2B PUSH1 0x6 DUP8 ADD SLOAD PUSH2 0x197B JUMP JUMPDEST PUSH1 0x6 DUP8 ADD PUSH2 0x1B53 JUMP JUMPDEST PUSH1 0x20 SWAP1 PUSH1 0x1F DUP4 GT PUSH1 0x1 EQ PUSH2 0x1581 JUMPI PUSH1 0x0 SWAP3 PUSH2 0x1576 JUMPI JUMPDEST POP POP DUP2 PUSH1 0x1 SHL SWAP2 PUSH1 0x0 NOT SWAP1 PUSH1 0x3 SHL SHR NOT AND OR PUSH1 0x6 DUP3 ADD SSTORE JUMPDEST PUSH1 0xE0 PUSH2 0x2E0 MLOAD ADD MLOAD DUP1 MLOAD SWAP1 PUSH1 0x1 PUSH1 0x1 PUSH1 0x40 SHL SUB DUP3 GT PUSH2 0x11ED JUMPI DUP2 SWAP1 PUSH2 0xC97 DUP3 PUSH2 0xC8E PUSH1 0x7 DUP8 ADD SLOAD PUSH2 0x197B JUMP JUMPDEST PUSH1 0x7 DUP8 ADD PUSH2 0x1B53 JUMP JUMPDEST PUSH1 0x20 SWAP1 PUSH1 0x1F DUP4 GT PUSH1 0x1 EQ PUSH2 0x1504 JUMPI PUSH1 0x0 SWAP3 PUSH2 0x14F9 JUMPI JUMPDEST POP POP DUP2 PUSH1 0x1 SHL SWAP2 PUSH1 0x0 NOT SWAP1 PUSH1 0x3 SHL SHR NOT AND OR PUSH1 0x7 DUP3 ADD SSTORE JUMPDEST PUSH2 0x100 PUSH2 0x2E0 MLOAD ADD MLOAD DUP1 MLOAD SWAP1 PUSH1 0x1 PUSH1 0x1 PUSH1 0x40 SHL SUB DUP3 GT PUSH2 0x11ED JUMPI DUP2 SWAP1 PUSH2 0xCFB DUP3 PUSH2 0xCF2 PUSH1 0x8 DUP8 ADD SLOAD PUSH2 0x197B JUMP JUMPDEST PUSH1 0x8 DUP8 ADD PUSH2 0x1B53 JUMP JUMPDEST PUSH1 0x20 SWAP1 PUSH1 0x1F DUP4 GT PUSH1 0x1 EQ PUSH2 0x1487 JUMPI PUSH1 0x0 SWAP3 PUSH2 0x147C JUMPI JUMPDEST POP POP DUP2 PUSH1 0x1 SHL SWAP2 PUSH1 0x0 NOT SWAP1 PUSH1 0x3 SHL SHR NOT AND OR PUSH1 0x8 DUP3 ADD SSTORE JUMPDEST PUSH2 0x120 PUSH2 0x2E0 MLOAD ADD MLOAD DUP1 MLOAD SWAP1 PUSH1 0x1 PUSH1 0x1 PUSH1 0x40 SHL SUB DUP3 GT PUSH2 0x11ED JUMPI DUP2 SWAP1 PUSH2 0xD5F DUP3 PUSH2 0xD56 PUSH1 0x9 DUP8 ADD SLOAD PUSH2 0x197B JUMP JUMPDEST PUSH1 0x9 DUP8 ADD PUSH2 0x1B53 JUMP JUMPDEST PUSH1 0x20 SWAP1 PUSH1 0x1F DUP4 GT PUSH1 0x1 EQ PUSH2 0x140A JUMPI PUSH1 0x0 SWAP3 PUSH2 0x13FF JUMPI JUMPDEST POP POP DUP2 PUSH1 0x1 SHL SWAP2 PUSH1 0x0 NOT SWAP1 PUSH1 0x3 SHL SHR NOT AND OR PUSH1 0x9 DUP3 ADD SSTORE JUMPDEST PUSH2 0x140 PUSH2 0x2E0 MLOAD ADD MLOAD DUP1 MLOAD SWAP1 PUSH1 0x1 PUSH1 0x1 PUSH1 0x40 SHL SUB DUP3 GT PUSH2 0x11ED JUMPI DUP2 SWAP1 PUSH2 0xDC3 DUP3 PUSH2 0xDBA PUSH1 0xA DUP8 ADD SLOAD PUSH2 0x197B JUMP JUMPDEST PUSH1 0xA DUP8 ADD PUSH2 0x1B53 JUMP JUMPDEST PUSH1 0x20 SWAP1 PUSH1 0x1F DUP4 GT PUSH1 0x1 EQ PUSH2 0x138D JUMPI PUSH1 0x0 SWAP3 PUSH2 0x1382 JUMPI JUMPDEST POP POP DUP2 PUSH1 0x1 SHL SWAP2 PUSH1 0x0 NOT SWAP1 PUSH1 0x3 SHL SHR NOT AND OR PUSH1 0xA DUP3 ADD SSTORE JUMPDEST PUSH2 0x160 PUSH2 0x2E0 MLOAD ADD MLOAD DUP1 MLOAD SWAP1 PUSH1 0x1 PUSH1 0x1 PUSH1 0x40 SHL SUB DUP3 GT PUSH2 0x11ED JUMPI DUP2 SWAP1 PUSH2 0xE27 DUP3 PUSH2 0xE1E PUSH1 0xB DUP8 ADD SLOAD PUSH2 0x197B JUMP JUMPDEST PUSH1 0xB DUP8 ADD PUSH2 0x1B53 JUMP JUMPDEST PUSH1 0x20 SWAP1 PUSH1 0x1F DUP4 GT PUSH1 0x1 EQ PUSH2 0x1310 JUMPI PUSH1 0x0 SWAP3 PUSH2 0x1305 JUMPI JUMPDEST POP POP DUP2 PUSH1 0x1 SHL SWAP2 PUSH1 0x0 NOT SWAP1 PUSH1 0x3 SHL SHR NOT AND OR PUSH1 0xB DUP3 ADD SSTORE JUMPDEST PUSH2 0x180 PUSH2 0x2E0 MLOAD ADD MLOAD DUP1 MLOAD SWAP1 PUSH1 0x1 PUSH1 0x1 PUSH1 0x40 SHL SUB DUP3 GT PUSH2 0x11ED JUMPI DUP2 SWAP1 PUSH2 0xE8B DUP3 PUSH2 0xE82 PUSH1 0xC DUP8 ADD SLOAD PUSH2 0x197B JUMP JUMPDEST PUSH1 0xC DUP8 ADD PUSH2 0x1B53 JUMP JUMPDEST PUSH1 0x20 SWAP1 PUSH1 0x1F DUP4 GT PUSH1 0x1 EQ PUSH2 0x1293 JUMPI PUSH1 0x0 SWAP3 PUSH2 0x1288 JUMPI JUMPDEST POP POP DUP2 PUSH1 0x1 SHL SWAP2 PUSH1 0x0 NOT SWAP1 PUSH1 0x3 SHL SHR NOT AND OR PUSH1 0xC DUP3 ADD SSTORE JUMPDEST PUSH2 0x1A0 PUSH2 0x2E0 MLOAD ADD MLOAD SWAP1 DUP2 MLOAD SWAP1 PUSH1 0x1 PUSH1 0x1 PUSH1 0x40 SHL SUB DUP3 GT PUSH2 0x11ED JUMPI PUSH1 0xD ADD SWAP1 PUSH2 0xEE6 DUP2 PUSH2 0x9F8 DUP5 SLOAD PUSH2 0x197B JUMP JUMPDEST PUSH1 0x20 SWAP3 PUSH1 0x1F DUP3 GT PUSH1 0x1 EQ PUSH2 0x1224 JUMPI SWAP3 DUP2 SWAP3 SWAP4 PUSH1 0x0 SWAP3 PUSH2 0x1219 JUMPI JUMPDEST POP POP DUP2 PUSH1 0x1 SHL SWAP2 PUSH1 0x0 NOT SWAP1 PUSH1 0x3 SHL SHR NOT AND OR SWAP1 SSTORE JUMPDEST PUSH1 0x2 SLOAD PUSH9 0x10000000000000000 DUP2 LT ISZERO PUSH2 0x11ED JUMPI DUP1 PUSH1 0x1 PUSH2 0xF39 SWAP3 ADD PUSH1 0x2 SSTORE PUSH2 0x192E JUMP JUMPDEST PUSH2 0x1203 JUMPI PUSH1 0x80 MLOAD PUSH1 0x1 PUSH1 0x1 PUSH1 0x40 SHL SUB DUP2 GT PUSH2 0x11ED JUMPI PUSH2 0xF62 SWAP1 PUSH2 0xF5C DUP4 SLOAD PUSH2 0x197B JUMP JUMPDEST DUP4 PUSH2 0x1B53 JUMP JUMPDEST PUSH1 0x0 SWAP1 PUSH1 0x80 MLOAD PUSH1 0x1F DUP2 GT PUSH1 0x1 EQ PUSH2 0x1180 JUMPI POP SWAP1 PUSH1 0x0 PUSH1 0x80 MLOAD SWAP2 DUP3 PUSH2 0x1172 JUMPI JUMPDEST POP DUP2 PUSH1 0x1 SHL SWAP2 PUSH1 0x0 NOT SWAP1 PUSH1 0x3 SHL SHR NOT AND OR SWAP1 SSTORE JUMPDEST PUSH2 0x1E0 PUSH1 0x40 MLOAD DUP1 PUSH2 0x220 MSTORE MSTORE PUSH32 0x24C111856998BF8FB2DDDDC120E99AB6B1420678A44C79B60F1143A9BDC17DC0 PUSH2 0x1149 PUSH2 0x112F PUSH2 0x1115 PUSH2 0x10FC PUSH2 0x10E2 PUSH2 0x10C8 PUSH2 0x10AE PUSH2 0x1095 PUSH2 0x107C PUSH2 0x1063 PUSH2 0x104B PUSH2 0x1032 PUSH2 0x1019 PUSH2 0x1000 PUSH2 0x1E0 PUSH2 0x220 MLOAD ADD PUSH1 0x80 MLOAD PUSH2 0x320 MLOAD PUSH2 0x1BA7 JUMP JUMPDEST PUSH2 0x220 MLOAD PUSH1 0x20 DUP2 DUP4 SUB SWAP2 ADD MSTORE PUSH2 0x440 MLOAD PUSH2 0x1E0 MLOAD PUSH2 0x1BA7 JUMP JUMPDEST PUSH2 0x220 MLOAD PUSH1 0x40 DUP2 DUP4 SUB SWAP2 ADD MSTORE PUSH2 0x160 MLOAD PUSH2 0x340 MLOAD PUSH2 0x1BA7 JUMP JUMPDEST PUSH2 0x220 MLOAD PUSH1 0x60 DUP2 DUP4 SUB SWAP2 ADD MSTORE PUSH2 0x360 MLOAD PUSH2 0x3A0 MLOAD PUSH2 0x1BA7 JUMP JUMPDEST PUSH2 0x220 MLOAD PUSH1 0x80 DUP2 DUP4 SUB SWAP2 ADD MSTORE PUSH2 0x180 MLOAD PUSH1 0xA0 MLOAD PUSH2 0x1BA7 JUMP JUMPDEST PUSH2 0x220 MLOAD PUSH1 0xA0 DUP2 DUP4 SUB SWAP2 ADD MSTORE PUSH2 0x460 MLOAD PUSH2 0x260 MLOAD PUSH2 0x1BA7 JUMP JUMPDEST PUSH2 0x220 MLOAD PUSH1 0xC0 DUP2 DUP4 SUB SWAP2 ADD MSTORE PUSH2 0x2A0 MLOAD PUSH2 0x380 MLOAD PUSH2 0x1BA7 JUMP JUMPDEST PUSH2 0x220 MLOAD PUSH1 0xE0 DUP2 DUP4 SUB SWAP2 ADD MSTORE PUSH2 0x120 MLOAD PUSH2 0x3C0 MLOAD PUSH2 0x1BA7 JUMP JUMPDEST PUSH2 0x220 MLOAD PUSH2 0x100 DUP2 DUP4 SUB SWAP2 ADD MSTORE PUSH2 0x400 MLOAD PUSH2 0x280 MLOAD PUSH2 0x1BA7 JUMP JUMPDEST PUSH2 0x220 MLOAD PUSH2 0x120 DUP2 DUP4 SUB SWAP2 ADD MSTORE PUSH2 0x240 MLOAD PUSH2 0x1C0 MLOAD PUSH2 0x1BA7 JUMP JUMPDEST PUSH2 0x220 MLOAD PUSH2 0x140 DUP2 DUP4 SUB SWAP2 ADD MSTORE PUSH2 0x3E0 MLOAD PUSH2 0x200 MLOAD PUSH2 0x1BA7 JUMP JUMPDEST PUSH2 0x220 MLOAD PUSH2 0x160 DUP2 DUP4 SUB SWAP2 ADD MSTORE PUSH1 0xE0 MLOAD PUSH2 0x2C0 MLOAD PUSH2 0x1BA7 JUMP JUMPDEST PUSH2 0x220 MLOAD PUSH2 0x180 DUP2 DUP4 SUB SWAP2 ADD MSTORE PUSH2 0x420 MLOAD PUSH2 0x100 MLOAD PUSH2 0x1BA7 JUMP JUMPDEST PUSH2 0x220 MLOAD PUSH2 0x1A0 DUP2 DUP4 SUB SWAP2 ADD MSTORE PUSH2 0x300 MLOAD PUSH2 0x140 MLOAD PUSH2 0x1BA7 JUMP JUMPDEST PUSH2 0x220 MLOAD PUSH2 0x1C0 DUP2 DUP4 SUB SWAP2 ADD MSTORE PUSH2 0x116A PUSH2 0x220 MLOAD SWAP2 PUSH2 0x1A0 MLOAD PUSH1 0xC0 MLOAD PUSH2 0x1BA7 JUMP JUMPDEST SUB PUSH2 0x220 MLOAD LOG1 STOP JUMPDEST SWAP1 POP PUSH2 0x320 MLOAD ADD CALLDATALOAD DUP4 PUSH2 0xF81 JUMP JUMPDEST DUP2 PUSH1 0x0 MSTORE PUSH1 0x20 PUSH1 0x0 KECCAK256 PUSH1 0x0 SWAP4 PUSH2 0x320 MLOAD SWAP1 JUMPDEST PUSH1 0x1F NOT DUP5 AND DUP7 LT PUSH2 0x11D5 JUMPI PUSH1 0x1 SWAP5 SWAP6 POP DUP4 PUSH1 0x1F NOT DUP2 AND LT PUSH2 0x11BB JUMPI JUMPDEST POP POP POP DUP2 SHL ADD SWAP1 SSTORE PUSH2 0xF95 JUMP JUMPDEST ADD CALLDATALOAD PUSH1 0x0 NOT PUSH1 0x3 DUP5 SWAP1 SHL PUSH1 0xF8 AND SHR NOT AND SWAP1 SSTORE DUP4 DUP1 DUP1 PUSH2 0x11AE JUMP JUMPDEST SWAP2 PUSH1 0x20 PUSH1 0x1 DUP2 SWAP3 DUP6 DUP6 ADD CALLDATALOAD DUP2 SSTORE ADD SWAP4 ADD SWAP6 ADD SWAP5 PUSH2 0x1192 JUMP JUMPDEST PUSH4 0x4E487B71 PUSH1 0xE0 SHL PUSH1 0x0 MSTORE PUSH1 0x41 PUSH1 0x4 MSTORE PUSH1 0x24 PUSH1 0x0 REVERT JUMPDEST PUSH4 0x4E487B71 PUSH1 0xE0 SHL PUSH1 0x0 MSTORE PUSH1 0x0 PUSH1 0x4 MSTORE PUSH1 0x24 PUSH1 0x0 REVERT JUMPDEST ADD MLOAD SWAP1 POP DUP4 DUP1 PUSH2 0xF00 JUMP JUMPDEST PUSH1 0x1F NOT DUP3 AND SWAP4 DUP4 PUSH1 0x0 MSTORE PUSH1 0x20 PUSH1 0x0 KECCAK256 SWAP2 PUSH1 0x0 JUMPDEST DUP7 DUP2 LT PUSH2 0x1270 JUMPI POP DUP4 PUSH1 0x1 SWAP6 SWAP7 LT PUSH2 0x1257 JUMPI JUMPDEST POP POP POP DUP2 SHL ADD SWAP1 SSTORE PUSH2 0xF15 JUMP JUMPDEST ADD MLOAD PUSH1 0x0 NOT PUSH1 0xF8 DUP5 PUSH1 0x3 SHL AND SHR NOT AND SWAP1 SSTORE DUP4 DUP1 DUP1 PUSH2 0x124A JUMP JUMPDEST SWAP2 SWAP3 PUSH1 0x20 PUSH1 0x1 DUP2 SWAP3 DUP7 DUP6 ADD MLOAD DUP2 SSTORE ADD SWAP5 ADD SWAP3 ADD PUSH2 0x1237 JUMP JUMPDEST ADD MLOAD SWAP1 POP DUP4 DUP1 PUSH2 0xEA1 JUMP JUMPDEST SWAP3 POP PUSH1 0xC DUP5 ADD PUSH1 0x0 MSTORE PUSH1 0x20 PUSH1 0x0 KECCAK256 SWAP1 PUSH1 0x0 SWAP4 JUMPDEST PUSH1 0x1F NOT DUP5 AND DUP6 LT PUSH2 0x12EA JUMPI PUSH1 0x1 SWAP5 POP DUP4 PUSH1 0x1F NOT DUP2 AND LT PUSH2 0x12D1 JUMPI JUMPDEST POP POP POP DUP2 SHL ADD PUSH1 0xC DUP3 ADD SSTORE PUSH2 0xEB9 JUMP JUMPDEST ADD MLOAD PUSH1 0x0 NOT PUSH1 0xF8 DUP5 PUSH1 0x3 SHL AND SHR NOT AND SWAP1 SSTORE DUP4 DUP1 DUP1 PUSH2 0x12C1 JUMP JUMPDEST DUP2 DUP2 ADD MLOAD DUP4 SSTORE PUSH1 0x20 SWAP5 DUP6 ADD SWAP5 PUSH1 0x1 SWAP1 SWAP4 ADD SWAP3 SWAP1 SWAP2 ADD SWAP1 PUSH2 0x12A6 JUMP JUMPDEST ADD MLOAD SWAP1 POP DUP4 DUP1 PUSH2 0xE3D JUMP JUMPDEST SWAP3 POP PUSH1 0xB DUP5 ADD PUSH1 0x0 MSTORE PUSH1 0x20 PUSH1 0x0 KECCAK256 SWAP1 PUSH1 0x0 SWAP4 JUMPDEST PUSH1 0x1F NOT DUP5 AND DUP6 LT PUSH2 0x1367 JUMPI PUSH1 0x1 SWAP5 POP DUP4 PUSH1 0x1F NOT DUP2 AND LT PUSH2 0x134E JUMPI JUMPDEST POP POP POP DUP2 SHL ADD PUSH1 0xB DUP3 ADD SSTORE PUSH2 0xE55 JUMP JUMPDEST ADD MLOAD PUSH1 0x0 NOT PUSH1 0xF8 DUP5 PUSH1 0x3 SHL AND SHR NOT AND SWAP1 SSTORE DUP4 DUP1 DUP1 PUSH2 0x133E JUMP JUMPDEST DUP2 DUP2 ADD MLOAD DUP4 SSTORE PUSH1 0x20 SWAP5 DUP6 ADD SWAP5 PUSH1 0x1 SWAP1 SWAP4 ADD SWAP3 SWAP1 SWAP2 ADD SWAP1 PUSH2 0x1323 JUMP JUMPDEST ADD MLOAD SWAP1 POP DUP4 DUP1 PUSH2 0xDD9 JUMP JUMPDEST SWAP3 POP PUSH1 0xA DUP5 ADD PUSH1 0x0 MSTORE PUSH1 0x20 PUSH1 0x0 KECCAK256 SWAP1 PUSH1 0x0 SWAP4 JUMPDEST PUSH1 0x1F NOT DUP5 AND DUP6 LT PUSH2 0x13E4 JUMPI PUSH1 0x1 SWAP5 POP DUP4 PUSH1 0x1F NOT DUP2 AND LT PUSH2 0x13CB JUMPI JUMPDEST POP POP POP DUP2 SHL ADD PUSH1 0xA DUP3 ADD SSTORE PUSH2 0xDF1 JUMP JUMPDEST ADD MLOAD PUSH1 0x0 NOT PUSH1 0xF8 DUP5 PUSH1 0x3 SHL AND SHR NOT AND SWAP1 SSTORE DUP4 DUP1 DUP1 PUSH2 0x13BB JUMP JUMPDEST DUP2 DUP2 ADD MLOAD DUP4 SSTORE PUSH1 0x20 SWAP5 DUP6 ADD SWAP5 PUSH1 0x1 SWAP1 SWAP4 ADD SWAP3 SWAP1 SWAP2 ADD SWAP1 PUSH2 0x13A0 JUMP JUMPDEST ADD MLOAD SWAP1 POP DUP4 DUP1 PUSH2 0xD75 JUMP JUMPDEST SWAP3 POP PUSH1 0x9 DUP5 ADD PUSH1 0x0 MSTORE PUSH1 0x20 PUSH1 0x0 KECCAK256 SWAP1 PUSH1 0x0 SWAP4 JUMPDEST PUSH1 0x1F NOT DUP5 AND DUP6 LT PUSH2 0x1461 JUMPI PUSH1 0x1 SWAP5 POP DUP4 PUSH1 0x1F NOT DUP2 AND LT PUSH2 0x1448 JUMPI JUMPDEST POP POP POP DUP2 SHL ADD PUSH1 0x9 DUP3 ADD SSTORE PUSH2 0xD8D JUMP JUMPDEST ADD MLOAD PUSH1 0x0 NOT PUSH1 0xF8 DUP5 PUSH1 0x3 SHL AND SHR NOT AND SWAP1 SSTORE DUP4 DUP1 DUP1 PUSH2 0x1438 JUMP JUMPDEST DUP2 DUP2 ADD MLOAD DUP4 SSTORE PUSH1 0x20 SWAP5 DUP6 ADD SWAP5 PUSH1 0x1 SWAP1 SWAP4 ADD SWAP3 SWAP1 SWAP2 ADD SWAP1 PUSH2 0x141D JUMP JUMPDEST ADD MLOAD SWAP1 POP DUP4 DUP1 PUSH2 0xD11 JUMP JUMPDEST SWAP3 POP PUSH1 0x8 DUP5 ADD PUSH1 0x0 MSTORE PUSH1 0x20 PUSH1 0x0 KECCAK256 SWAP1 PUSH1 0x0 SWAP4 JUMPDEST PUSH1 0x1F NOT DUP5 AND DUP6 LT PUSH2 0x14DE JUMPI PUSH1 0x1 SWAP5 POP DUP4 PUSH1 0x1F NOT DUP2 AND LT PUSH2 0x14C5 JUMPI JUMPDEST POP POP POP DUP2 SHL ADD PUSH1 0x8 DUP3 ADD SSTORE PUSH2 0xD29 JUMP JUMPDEST ADD MLOAD PUSH1 0x0 NOT PUSH1 0xF8 DUP5 PUSH1 0x3 SHL AND SHR NOT AND SWAP1 SSTORE DUP4 DUP1 DUP1 PUSH2 0x14B5 JUMP JUMPDEST DUP2 DUP2 ADD MLOAD DUP4 SSTORE PUSH1 0x20 SWAP5 DUP6 ADD SWAP5 PUSH1 0x1 SWAP1 SWAP4 ADD SWAP3 SWAP1 SWAP2 ADD SWAP1 PUSH2 0x149A JUMP JUMPDEST ADD MLOAD SWAP1 POP DUP4 DUP1 PUSH2 0xCAD JUMP JUMPDEST SWAP3 POP PUSH1 0x7 DUP5 ADD PUSH1 0x0 MSTORE PUSH1 0x20 PUSH1 0x0 KECCAK256 SWAP1 PUSH1 0x0 SWAP4 JUMPDEST PUSH1 0x1F NOT DUP5 AND DUP6 LT PUSH2 0x155B JUMPI PUSH1 0x1 SWAP5 POP DUP4 PUSH1 0x1F NOT DUP2 AND LT PUSH2 0x1542 JUMPI JUMPDEST POP POP POP DUP2 SHL ADD PUSH1 0x7 DUP3 ADD SSTORE PUSH2 0xCC5 JUMP JUMPDEST ADD MLOAD PUSH1 0x0 NOT PUSH1 0xF8 DUP5 PUSH1 0x3 SHL AND SHR NOT AND SWAP1 SSTORE DUP4 DUP1 DUP1 PUSH2 0x1532 JUMP JUMPDEST DUP2 DUP2 ADD MLOAD DUP4 SSTORE PUSH1 0x20 SWAP5 DUP6 ADD SWAP5 PUSH1 0x1 SWAP1 SWAP4 ADD SWAP3 SWAP1 SWAP2 ADD SWAP1 PUSH2 0x1517 JUMP JUMPDEST ADD MLOAD SWAP1 POP DUP4 DUP1 PUSH2 0xC4A JUMP JUMPDEST SWAP3 POP PUSH1 0x6 DUP5 ADD PUSH1 0x0 MSTORE PUSH1 0x20 PUSH1 0x0 KECCAK256 SWAP1 PUSH1 0x0 SWAP4 JUMPDEST PUSH1 0x1F NOT DUP5 AND DUP6 LT PUSH2 0x15D8 JUMPI PUSH1 0x1 SWAP5 POP DUP4 PUSH1 0x1F NOT DUP2 AND LT PUSH2 0x15BF JUMPI JUMPDEST POP POP POP DUP2 SHL ADD PUSH1 0x6 DUP3 ADD SSTORE PUSH2 0xC62 JUMP JUMPDEST ADD MLOAD PUSH1 0x0 NOT PUSH1 0xF8 DUP5 PUSH1 0x3 SHL AND SHR NOT AND SWAP1 SSTORE DUP4 DUP1 DUP1 PUSH2 0x15AF JUMP JUMPDEST DUP2 DUP2 ADD MLOAD DUP4 SSTORE PUSH1 0x20 SWAP5 DUP6 ADD SWAP5 PUSH1 0x1 SWAP1 SWAP4 ADD SWAP3 SWAP1 SWAP2 ADD SWAP1 PUSH2 0x1594 JUMP JUMPDEST ADD MLOAD SWAP1 POP DUP4 DUP1 PUSH2 0xBE7 JUMP JUMPDEST SWAP3 POP PUSH1 0x5 DUP5 ADD PUSH1 0x0 MSTORE PUSH1 0x20 PUSH1 0x0 KECCAK256 SWAP1 PUSH1 0x0 SWAP4 JUMPDEST PUSH1 0x1F NOT DUP5 AND DUP6 LT PUSH2 0x1655 JUMPI PUSH1 0x1 SWAP5 POP DUP4 PUSH1 0x1F NOT DUP2 AND LT PUSH2 0x163C JUMPI JUMPDEST POP POP POP DUP2 SHL ADD PUSH1 0x5 DUP3 ADD SSTORE PUSH2 0xBFF JUMP JUMPDEST ADD MLOAD PUSH1 0x0 NOT PUSH1 0xF8 DUP5 PUSH1 0x3 SHL AND SHR NOT AND SWAP1 SSTORE DUP4 DUP1 DUP1 PUSH2 0x162C JUMP JUMPDEST DUP2 DUP2 ADD MLOAD DUP4 SSTORE PUSH1 0x20 SWAP5 DUP6 ADD SWAP5 PUSH1 0x1 SWAP1 SWAP4 ADD SWAP3 SWAP1 SWAP2 ADD SWAP1 PUSH2 0x1611 JUMP JUMPDEST ADD MLOAD SWAP1 POP DUP4 DUP1 PUSH2 0xB84 JUMP JUMPDEST SWAP3 POP PUSH1 0x4 DUP5 ADD PUSH1 0x0 MSTORE PUSH1 0x20 PUSH1 0x0 KECCAK256 SWAP1 PUSH1 0x0 SWAP4 JUMPDEST PUSH1 0x1F NOT DUP5 AND DUP6 LT PUSH2 0x16D2 JUMPI PUSH1 0x1 SWAP5 POP DUP4 PUSH1 0x1F NOT DUP2 AND LT PUSH2 0x16B9 JUMPI JUMPDEST POP POP POP DUP2 SHL ADD PUSH1 0x4 DUP3 ADD SSTORE PUSH2 0xB9C JUMP JUMPDEST ADD MLOAD PUSH1 0x0 NOT PUSH1 0xF8 DUP5 PUSH1 0x3 SHL AND SHR NOT AND SWAP1 SSTORE DUP4 DUP1 DUP1 PUSH2 0x16A9 JUMP JUMPDEST DUP2 DUP2 ADD MLOAD DUP4 SSTORE PUSH1 0x20 SWAP5 DUP6 ADD SWAP5 PUSH1 0x1 SWAP1 SWAP4 ADD SWAP3 SWAP1 SWAP2 ADD SWAP1 PUSH2 0x168E JUMP JUMPDEST ADD MLOAD SWAP1 POP DUP5 DUP1 PUSH2 0xB24 JUMP JUMPDEST DUP3 PUSH1 0x0 MSTORE PUSH1 0x20 PUSH1 0x0 KECCAK256 SWAP1 PUSH1 0x0 PUSH1 0x1F NOT DUP5 AND SWAP1 JUMPDEST DUP2 DUP2 LT PUSH2 0x1746 JUMPI POP SWAP6 DUP4 PUSH1 0x1 SWAP6 SWAP7 SWAP8 LT PUSH2 0x172D JUMPI JUMPDEST POP POP POP DUP2 SHL ADD SWAP1 SSTORE PUSH2 0xB39 JUMP JUMPDEST ADD MLOAD PUSH1 0x0 NOT PUSH1 0xF8 DUP5 PUSH1 0x3 SHL AND SHR NOT AND SWAP1 SSTORE DUP5 DUP1 DUP1 PUSH2 0x1720 JUMP JUMPDEST SWAP2 SWAP3 PUSH1 0x20 PUSH1 0x1 DUP2 SWAP3 DUP7 DUP12 ADD MLOAD DUP2 SSTORE ADD SWAP5 ADD SWAP3 ADD PUSH2 0x170B JUMP JUMPDEST ADD MLOAD SWAP1 POP DUP5 DUP1 PUSH2 0xACA JUMP JUMPDEST DUP3 PUSH1 0x0 MSTORE PUSH1 0x20 PUSH1 0x0 KECCAK256 SWAP1 PUSH1 0x0 PUSH1 0x1F NOT DUP5 AND SWAP1 JUMPDEST DUP2 DUP2 LT PUSH2 0x17B7 JUMPI POP SWAP6 DUP4 PUSH1 0x1 SWAP6 SWAP7 SWAP8 LT PUSH2 0x179E JUMPI JUMPDEST POP POP POP DUP2 SHL ADD SWAP1 SSTORE PUSH2 0xADF JUMP JUMPDEST ADD MLOAD PUSH1 0x0 NOT PUSH1 0xF8 DUP5 PUSH1 0x3 SHL AND SHR NOT AND SWAP1 SSTORE DUP5 DUP1 DUP1 PUSH2 0x1791 JUMP JUMPDEST SWAP2 SWAP3 PUSH1 0x20 PUSH1 0x1 DUP2 SWAP3 DUP7 DUP12 ADD MLOAD DUP2 SSTORE ADD SWAP5 ADD SWAP3 ADD PUSH2 0x177C JUMP JUMPDEST ADD MLOAD SWAP1 POP DUP5 DUP1 PUSH2 0xA70 JUMP JUMPDEST DUP3 PUSH1 0x0 MSTORE PUSH1 0x20 PUSH1 0x0 KECCAK256 SWAP1 PUSH1 0x0 PUSH1 0x1F NOT DUP5 AND SWAP1 JUMPDEST DUP2 DUP2 LT PUSH2 0x1828 JUMPI POP SWAP6 DUP4 PUSH1 0x1 SWAP6 SWAP7 SWAP8 LT PUSH2 0x180F JUMPI JUMPDEST POP POP POP DUP2 SHL ADD SWAP1 SSTORE PUSH2 0xA85 JUMP JUMPDEST ADD MLOAD PUSH1 0x0 NOT PUSH1 0xF8 DUP5 PUSH1 0x3 SHL AND SHR NOT AND SWAP1 SSTORE DUP5 DUP1 DUP1 PUSH2 0x1802 JUMP JUMPDEST SWAP2 SWAP3 PUSH1 0x20 PUSH1 0x1 DUP2 SWAP3 DUP7 DUP12 ADD MLOAD DUP2 SSTORE ADD SWAP5 ADD SWAP3 ADD PUSH2 0x17ED JUMP JUMPDEST ADD MLOAD SWAP1 POP DUP4 DUP1 PUSH2 0xA16 JUMP JUMPDEST DUP3 PUSH1 0x0 MSTORE PUSH1 0x20 PUSH1 0x0 KECCAK256 SWAP1 PUSH1 0x0 SWAP5 PUSH1 0x1F NOT DUP5 AND SWAP6 JUMPDEST DUP7 DUP2 LT PUSH2 0x1898 JUMPI POP DUP4 PUSH1 0x1 SWAP6 SWAP7 LT PUSH2 0x187F JUMPI JUMPDEST POP POP POP DUP2 SHL ADD DUP2 SSTORE PUSH2 0xA2B JUMP JUMPDEST ADD MLOAD PUSH1 0x0 NOT PUSH1 0xF8 DUP5 PUSH1 0x3 SHL AND SHR NOT AND SWAP1 SSTORE DUP4 DUP1 DUP1 PUSH2 0x1872 JUMP JUMPDEST SWAP2 SWAP3 PUSH1 0x20 PUSH1 0x1 DUP2 SWAP3 DUP7 DUP6 ADD MLOAD DUP2 SSTORE ADD SWAP5 ADD SWAP3 ADD PUSH2 0x185F JUMP JUMPDEST PUSH1 0x40 MLOAD PUSH3 0x461BCD PUSH1 0xE5 SHL DUP2 MSTORE PUSH1 0x20 PUSH1 0x4 DUP3 ADD MSTORE PUSH1 0xB PUSH1 0x24 DUP3 ADD MSTORE PUSH11 0x139BDD081CDD195DD85C99 PUSH1 0xAA SHL PUSH1 0x44 DUP3 ADD MSTORE PUSH1 0x64 SWAP1 REVERT JUMPDEST CALLVALUE PUSH2 0x270 JUMPI PUSH1 0x20 CALLDATASIZE PUSH1 0x3 NOT ADD SLT PUSH2 0x270 JUMPI PUSH1 0x4 CALLDATALOAD PUSH1 0x2 SLOAD DUP2 LT ISZERO PUSH2 0x270 JUMPI PUSH2 0x190A SWAP1 PUSH2 0x192E JUMP JUMPDEST PUSH2 0x1203 JUMPI PUSH2 0x191A PUSH2 0x26C SWAP2 PUSH2 0x19F2 JUMP JUMPDEST PUSH1 0x40 MLOAD SWAP2 DUP3 SWAP2 PUSH1 0x20 DUP4 MSTORE PUSH1 0x20 DUP4 ADD SWAP1 PUSH2 0x1ABB JUMP JUMPDEST PUSH1 0x2 SLOAD DUP2 LT ISZERO PUSH2 0x1965 JUMPI PUSH1 0x2 PUSH1 0x0 MSTORE PUSH32 0x405787FA12A823E0F2B7631CC41B3BA8828B3321CA811111FA75CD3AA3BB5ACE ADD SWAP1 PUSH1 0x0 SWAP1 JUMP JUMPDEST PUSH4 0x4E487B71 PUSH1 0xE0 SHL PUSH1 0x0 MSTORE PUSH1 0x32 PUSH1 0x4 MSTORE PUSH1 0x24 PUSH1 0x0 REVERT JUMPDEST SWAP1 PUSH1 0x1 DUP3 DUP2 SHR SWAP3 AND DUP1 ISZERO PUSH2 0x19AB JUMPI JUMPDEST PUSH1 0x20 DUP4 LT EQ PUSH2 0x1995 JUMPI JUMP JUMPDEST PUSH4 0x4E487B71 PUSH1 0xE0 SHL PUSH1 0x0 MSTORE PUSH1 0x22 PUSH1 0x4 MSTORE PUSH1 0x24 PUSH1 0x0 REVERT JUMPDEST SWAP2 PUSH1 0x7F AND SWAP2 PUSH2 0x198A JUMP JUMPDEST PUSH2 0x1C0 DUP2 ADD SWAP1 DUP2 LT PUSH1 0x1 PUSH1 0x1 PUSH1 0x40 SHL SUB DUP3 GT OR PUSH2 0x11ED JUMPI PUSH1 0x40 MSTORE JUMP JUMPDEST SWAP1 PUSH1 0x1F DUP1 NOT SWAP2 ADD AND DUP2 ADD SWAP1 DUP2 LT PUSH1 0x1 PUSH1 0x1 PUSH1 0x40 SHL SUB DUP3 GT OR PUSH2 0x11ED JUMPI PUSH1 0x40 MSTORE JUMP JUMPDEST SWAP1 PUSH1 0x40 MLOAD SWAP2 DUP3 PUSH1 0x0 DUP3 SLOAD SWAP3 PUSH2 0x1A06 DUP5 PUSH2 0x197B JUMP JUMPDEST SWAP1 DUP2 DUP5 MSTORE PUSH1 0x1 SWAP5 DUP6 DUP2 AND SWAP1 DUP2 PUSH1 0x0 EQ PUSH2 0x1A75 JUMPI POP PUSH1 0x1 EQ PUSH2 0x1A32 JUMPI JUMPDEST POP POP PUSH2 0x1A30 SWAP3 POP SUB DUP4 PUSH2 0x19D1 JUMP JUMPDEST JUMP JUMPDEST SWAP1 SWAP4 SWAP2 POP PUSH1 0x0 MSTORE PUSH1 0x20 SWAP1 DUP2 PUSH1 0x0 KECCAK256 SWAP4 PUSH1 0x0 SWAP2 JUMPDEST DUP2 DUP4 LT PUSH2 0x1A5D JUMPI POP POP PUSH2 0x1A30 SWAP4 POP DUP3 ADD ADD CODESIZE DUP1 PUSH2 0x1A22 JUMP JUMPDEST DUP6 SLOAD DUP9 DUP5 ADD DUP6 ADD MSTORE SWAP5 DUP6 ADD SWAP5 DUP8 SWAP5 POP SWAP2 DUP4 ADD SWAP2 PUSH2 0x1A45 JUMP JUMPDEST SWAP2 POP POP PUSH2 0x1A30 SWAP5 POP PUSH1 0x20 SWAP3 POP PUSH1 0xFF NOT AND DUP3 DUP5 ADD MSTORE ISZERO ISZERO PUSH1 0x5 SHL DUP3 ADD ADD CODESIZE DUP1 PUSH2 0x1A22 JUMP JUMPDEST PUSH1 0x0 JUMPDEST DUP4 DUP2 LT PUSH2 0x1AAB JUMPI POP POP PUSH1 0x0 SWAP2 ADD MSTORE JUMP JUMPDEST DUP2 DUP2 ADD MLOAD DUP4 DUP3 ADD MSTORE PUSH1 0x20 ADD PUSH2 0x1A9B JUMP JUMPDEST SWAP1 PUSH1 0x20 SWAP2 PUSH2 0x1AD4 DUP2 MLOAD DUP1 SWAP3 DUP2 DUP6 MSTORE DUP6 DUP1 DUP7 ADD SWAP2 ADD PUSH2 0x1A98 JUMP JUMPDEST PUSH1 0x1F ADD PUSH1 0x1F NOT AND ADD ADD SWAP1 JUMP JUMPDEST SWAP2 DUP2 PUSH1 0x1F DUP5 ADD SLT ISZERO PUSH2 0x270 JUMPI DUP3 CALLDATALOAD SWAP2 PUSH1 0x1 PUSH1 0x1 PUSH1 0x40 SHL SUB DUP4 GT PUSH2 0x270 JUMPI PUSH1 0x20 DUP4 DUP2 DUP7 ADD SWAP6 ADD ADD GT PUSH2 0x270 JUMPI JUMP JUMPDEST SWAP3 SWAP2 SWAP3 PUSH1 0x1 PUSH1 0x1 PUSH1 0x40 SHL SUB DUP3 GT PUSH2 0x11ED JUMPI PUSH1 0x40 MLOAD SWAP2 PUSH2 0x1B36 PUSH1 0x1F DUP3 ADD PUSH1 0x1F NOT AND PUSH1 0x20 ADD DUP5 PUSH2 0x19D1 JUMP JUMPDEST DUP3 SWAP5 DUP2 DUP5 MSTORE DUP2 DUP4 ADD GT PUSH2 0x270 JUMPI DUP3 DUP2 PUSH1 0x20 SWAP4 DUP5 PUSH1 0x0 SWAP7 ADD CALLDATACOPY ADD ADD MSTORE JUMP JUMPDEST SWAP1 PUSH1 0x1F DUP2 GT PUSH2 0x1B61 JUMPI POP POP POP JUMP JUMPDEST PUSH1 0x0 SWAP2 DUP3 MSTORE PUSH1 0x20 DUP3 KECCAK256 SWAP1 PUSH1 0x20 PUSH1 0x1F DUP6 ADD PUSH1 0x5 SHR DUP4 ADD SWAP5 LT PUSH2 0x1B9D JUMPI JUMPDEST PUSH1 0x1F ADD PUSH1 0x5 SHR ADD SWAP2 JUMPDEST DUP3 DUP2 LT PUSH2 0x1B92 JUMPI POP POP POP JUMP JUMPDEST DUP2 DUP2 SSTORE PUSH1 0x1 ADD PUSH2 0x1B86 JUMP JUMPDEST SWAP1 SWAP3 POP DUP3 SWAP1 PUSH2 0x1B7D JUMP JUMPDEST SWAP1 DUP1 PUSH1 0x20 SWAP4 SWAP3 DUP2 DUP5 MSTORE DUP5 DUP5 ADD CALLDATACOPY PUSH1 0x0 DUP3 DUP3 ADD DUP5 ADD MSTORE PUSH1 0x1F ADD PUSH1 0x1F NOT AND ADD ADD SWAP1 JUMP INVALID LOG2 PUSH5 0x6970667358 0x22 SLT KECCAK256 0xD2 0x4F PUSH24 0x5BE2DD55B1BA1DB52D021A89A0E2EE23DF20DA8F91403C42 ISZERO 0xD0 0x4D STATICCALL DUP4 PUSH5 0x736F6C6343 STOP ADDMOD EQ STOP CALLER "},"methodIdentifiers":{"codices(string)":"dbc21424","getCodex(string)":"83361522","inscribeCodex(string,string,string,string,string,string,string,string,string,string,string,string,string,string,string)":"3291db1b","keys(uint256)":"0cb6aaf1","steward()":"637eea19","totalCodices()":"c212d16b"}}}}}