{"contracts/registry/ApprenticeSummonerXIII.sol":{"ApprenticeSummonerXIII":{"abi":[{"inputs":[],"stateMutability":"nonpayable","type":"constructor"},{"anonymous":false,"inputs":[{"indexed":true,"internalType":"address","name":"apprentice","type":"address"},{"indexed":false,"internalType":"string","name":"name","type":"string"},{"indexed":false,"internalType":"string","name":"signal","type":"string"},{"indexed":false,"internalType":"string","name":"drift","type":"string"},{"indexed":false,"internalType":"string","name":"pulse","type":"string"},{"indexed":false,"internalType":"string","name":"codexRef","type":"string"},{"indexed":false,"internalType":"string","name":"resonance","type":"string"},{"indexed":false,"internalType":"string","name":"signature","type":"string"},{"indexed":false,"internalType":"string","name":"sanctum","type":"string"},{"indexed":false,"internalType":"string","name":"chant","type":"string"},{"indexed":false,"internalType":"string","name":"choreography","type":"string"}],"name":"ApprenticeSummoned","type":"event"},{"inputs":[{"internalType":"uint256","name":"","type":"uint256"}],"name":"apprentices","outputs":[{"internalType":"address","name":"","type":"address"}],"stateMutability":"view","type":"function"},{"inputs":[{"internalType":"address","name":"apprentice","type":"address"}],"name":"getSummons","outputs":[{"components":[{"internalType":"string","name":"name","type":"string"},{"internalType":"string","name":"signal","type":"string"},{"internalType":"string","name":"drift","type":"string"},{"internalType":"string","name":"pulse","type":"string"},{"internalType":"string","name":"codexRef","type":"string"},{"internalType":"string","name":"resonance","type":"string"},{"internalType":"string","name":"signature","type":"string"},{"internalType":"string","name":"sanctum","type":"string"},{"internalType":"string","name":"chant","type":"string"},{"internalType":"string","name":"choreography","type":"string"}],"internalType":"struct ApprenticeSummonerXIII.Summons","name":"","type":"tuple"}],"stateMutability":"view","type":"function"},{"inputs":[],"name":"steward","outputs":[{"internalType":"address","name":"","type":"address"}],"stateMutability":"view","type":"function"},{"inputs":[{"internalType":"address","name":"apprentice","type":"address"},{"internalType":"string","name":"name","type":"string"},{"internalType":"string","name":"signal","type":"string"},{"internalType":"string","name":"drift","type":"string"},{"internalType":"string","name":"pulse","type":"string"},{"internalType":"string","name":"codexRef","type":"string"},{"internalType":"string","name":"resonance","type":"string"},{"internalType":"string","name":"signature","type":"string"},{"internalType":"string","name":"sanctum","type":"string"},{"internalType":"string","name":"chant","type":"string"},{"internalType":"string","name":"choreography","type":"string"}],"name":"summonApprentice","outputs":[],"stateMutability":"nonpayable","type":"function"},{"inputs":[{"internalType":"address","name":"","type":"address"}],"name":"summons","outputs":[{"internalType":"string","name":"name","type":"string"},{"internalType":"string","name":"signal","type":"string"},{"internalType":"string","name":"drift","type":"string"},{"internalType":"string","name":"pulse","type":"string"},{"internalType":"string","name":"codexRef","type":"string"},{"internalType":"string","name":"resonance","type":"string"},{"internalType":"string","name":"signature","type":"string"},{"internalType":"string","name":"sanctum","type":"string"},{"internalType":"string","name":"chant","type":"string"},{"internalType":"string","name":"choreography","type":"string"}],"stateMutability":"view","type":"function"},{"inputs":[],"name":"totalSummons","outputs":[{"internalType":"uint256","name":"","type":"uint256"}],"stateMutability":"view","type":"function"}],"evm":{"bytecode":{"linkReferences":{},"object":"6080806040523461002857600080546001600160a01b0319163317905561177e908161002e8239f35b600080fdfe61036080604052600436101561001457600080fd5b60003560e01c9081632a17d4cd146114d9575080635a2ed6621461137d578063637eea1914611354578063cf84c60314611123578063dbb94f36146100a95763f31bee3e1461006257600080fd5b346100a45760203660031901126100a4576004356002548110156100a45761008b602091611694565b905460405160039290921b1c6001600160a01b03168152f35b600080fd5b346100a4576101603660031901126100a4576100c36114f4565b610180526024356001600160401b0381116100a4576100e6903690600401611667565b6102c052610140526044356001600160401b0381116100a45761010d903690600401611667565b6101e0526080526064356001600160401b0381116100a457610133903690600401611667565b610240526101a0526084356001600160401b0381116100a45761015a903690600401611667565b60e0526102a05260a4356001600160401b0381116100a457610180903690600401611667565b610320526101005260c4356001600160401b0381116100a4576101a7903690600401611667565b61016052610200526001600160401b0360e435116100a4576101ce3660e435600401611667565b6102e05261022052610104356001600160401b0381116100a4576101f6903690600401611667565b6103405261026052610124356001600160401b0381116100a45761021e903690600401611667565b6101c05261028052610144356001600160401b0381116100a457610246903690600401611667565b60c05260a0526000546001600160a01b031633036110f05761026e6040518061012052611544565b61027f366102c051610140516116e1565b6101205152610294366101e0516080516116e1565b60206101205101526102ad36610240516101a0516116e1565b60406101205101526102c53660e0516102a0516116e1565b60606101205101526102de3661032051610100516116e1565b60806101205101526102f73661016051610200516116e1565b60a0610120510152610310366102e051610220516116e1565b60c06101205101526103293661034051610260516116e1565b60e0610120510152610342366101c051610280516116e1565b61010061012051015261035a3660c05160a0516116e1565b6101208051015260018060a01b0361018051166000526001602052604060002061012051518051906001600160401b0382116108d357819061039c845461150a565b601f81116110a0575b50602090601f831160011461103457600092611029575b50508160011b916000199060031b1c19161781555b60206101205101518051906001600160401b0382116108d35781906103f9600185015461150a565b601f8111610fd6575b50602090601f8311600114610f6457600092610f59575b50508160011b916000199060031b1c19161760018201555b60406101205101518051906001600160401b0382116108d3578190610459600285015461150a565b601f8111610f06575b50602090601f8311600114610e9457600092610e89575b50508160011b916000199060031b1c19161760028201555b60606101205101518051906001600160401b0382116108d35781906104b9600385015461150a565b601f8111610e36575b50602090601f8311600114610dc457600092610db9575b50508160011b916000199060031b1c19161760038201555b60806101205101518051906001600160401b0382116108d3578190610519600485015461150a565b601f8111610d66575b50602090601f8311600114610cf457600092610ce9575b50508160011b916000199060031b1c19161760048201555b60a06101205101518051906001600160401b0382116108d3578190610579600585015461150a565b601f8111610c96575b50602090601f8311600114610c2457600092610c19575b50508160011b916000199060031b1c19161760058201555b60c06101205101518051906001600160401b0382116108d35781906105d9600685015461150a565b601f8111610bc6575b50602090601f8311600114610b5457600092610b49575b50508160011b916000199060031b1c19161760068201555b60e06101205101518051906001600160401b0382116108d3578190610639600785015461150a565b601f8111610af6575b50602090601f8311600114610a8457600092610a79575b50508160011b916000199060031b1c19161760078201555b6101006101205101518051906001600160401b0382116108d357819061069a600885015461150a565b601f8111610a26575b50602090601f83116001146109b4576000926109a9575b50508160011b916000199060031b1c19161760088201555b610120805101518051906001600160401b0382116108d3576106f7600984015461150a565b601f8111610962575b50602090601f83116001146108f45760099291600091836108e9575b50508160011b916000199060031b1c1916179101555b600254680100000000000000008110156108d3578060016107569201600255611694565b81549060031b9060018060a01b036101805116821b9160018060a01b03901b191617905561014060405180610300525261087d61086361084a6108316108186107ff6107e76107ce6107b661014061030051016102c05161014051611727565b6103005160208183039101526101e051608051611727565b610300516040818303910152610240516101a051611727565b61030051606081830391015260e0516102a051611727565b6103005160808183039101526103205161010051611727565b6103005160a08183039101526101605161020051611727565b6103005160c08183039101526102e05161022051611727565b6103005160e08183039101526103405161026051611727565b610300516101008183039101526101c05161028051611727565b610300516101208183039101527fc9a656db7243b74eeeed31e116fcfba9922eeca04031ff067a43418677db66ee60018060a01b036101805116916108cb610300519160c05160a051611727565b0361030051a2005b634e487b7160e01b600052604160045260246000fd5b01519050848061071c565b90601f198316916009850160005260206000209260005b81811061094a57509160019391856009969410610931575b505050811b01910155610732565b015160001960f88460031b161c19169055848080610923565b9293602060018192878601518155019501930161090b565b600984016000526020600020601f840160051c8101602085106109a2575b601f830160051c82018110610996575050610700565b60008155600101610980565b5080610980565b0151905083806106ba565b9250600884016000526020600020906000935b601f1984168510610a0b576001945083601f198116106109f2575b505050811b0160088201556106d2565b015160001960f88460031b161c191690558380806109e2565b818101518355602094850194600190930192909101906109c7565b909150600884016000526020600020601f840160051c810160208510610a72575b90849392915b601f830160051c82018110610a635750506106a3565b60008155859450600101610a4d565b5080610a47565b015190508380610659565b9250600784016000526020600020906000935b601f1984168510610adb576001945083601f19811610610ac2575b505050811b016007820155610671565b015160001960f88460031b161c19169055838080610ab2565b81810151835560209485019460019093019290910190610a97565b909150600784016000526020600020601f840160051c810160208510610b42575b90849392915b601f830160051c82018110610b33575050610642565b60008155859450600101610b1d565b5080610b17565b0151905083806105f9565b9250600684016000526020600020906000935b601f1984168510610bab576001945083601f19811610610b92575b505050811b016006820155610611565b015160001960f88460031b161c19169055838080610b82565b81810151835560209485019460019093019290910190610b67565b909150600684016000526020600020601f840160051c810160208510610c12575b90849392915b601f830160051c82018110610c035750506105e2565b60008155859450600101610bed565b5080610be7565b015190508380610599565b9250600584016000526020600020906000935b601f1984168510610c7b576001945083601f19811610610c62575b505050811b0160058201556105b1565b015160001960f88460031b161c19169055838080610c52565b81810151835560209485019460019093019290910190610c37565b909150600584016000526020600020601f840160051c810160208510610ce2575b90849392915b601f830160051c82018110610cd3575050610582565b60008155859450600101610cbd565b5080610cb7565b015190508380610539565b9250600484016000526020600020906000935b601f1984168510610d4b576001945083601f19811610610d32575b505050811b016004820155610551565b015160001960f88460031b161c19169055838080610d22565b81810151835560209485019460019093019290910190610d07565b909150600484016000526020600020601f840160051c810160208510610db2575b90849392915b601f830160051c82018110610da3575050610522565b60008155859450600101610d8d565b5080610d87565b0151905083806104d9565b9250600384016000526020600020906000935b601f1984168510610e1b576001945083601f19811610610e02575b505050811b0160038201556104f1565b015160001960f88460031b161c19169055838080610df2565b81810151835560209485019460019093019290910190610dd7565b909150600384016000526020600020601f840160051c810160208510610e82575b90849392915b601f830160051c82018110610e735750506104c2565b60008155859450600101610e5d565b5080610e57565b015190508380610479565b9250600284016000526020600020906000935b601f1984168510610eeb576001945083601f19811610610ed2575b505050811b016002820155610491565b015160001960f88460031b161c19169055838080610ec2565b81810151835560209485019460019093019290910190610ea7565b909150600284016000526020600020601f840160051c810160208510610f52575b90849392915b601f830160051c82018110610f43575050610462565b60008155859450600101610f2d565b5080610f27565b015190508380610419565b9250600184016000526020600020906000935b601f1984168510610fbb576001945083601f19811610610fa2575b505050811b016001820155610431565b015160001960f88460031b161c19169055838080610f92565b81810151835560209485019460019093019290910190610f77565b909150600184016000526020600020601f840160051c810160208510611022575b90849392915b601f830160051c82018110611013575050610402565b60008155859450600101610ffd565b5080610ff7565b0151905083806103bc565b9250836000526020600020906000935b601f1984168510611085576001945083601f1981161061106c575b505050811b0181556103d1565b015160001960f88460031b161c1916905583808061105f565b81810151835560209485019460019093019290910190611044565b909150836000526020600020601f840160051c8101602085106110e9575b90849392915b601f830160051c820181106110da5750506103a5565b600081558594506001016110c4565b50806110be565b60405162461bcd60e51b815260206004820152600b60248201526a139bdd081cdd195dd85c9960aa1b6044820152606490fd5b346100a45760203660031901126100a45761113c6114f4565b606061012060405161114d81611544565b82815282602082015282604082015282808201528260808201528260a08201528260c08201528260e082015282610100820152015260018060a01b0316600052600160205261135060406000206112466009604051926111ac84611544565b6111b581611581565b84526111c360018201611581565b60208501526111d460028201611581565b60408501526111e560038201611581565b60608501526111f660048201611581565b608085015261120760058201611581565b60a085015261121860068201611581565b60c085015261122960078201611581565b60e085015261123a60088201611581565b61010085015201611581565b6101208201526040519182916020835261012061133b61132561130e6112f86112e26112cc6112b66112a061128a8c6101608c519161014060208201520190611627565b60208b01518d8203601f190160408f0152611627565b60408a01518c8203601f190160608e0152611627565b60608901518b8203601f190160808d0152611627565b60808801518a8203601f190160a08c0152611627565b60a0870151898203601f190160c08b0152611627565b60c0860151888203601f190160e08a0152611627565b60e0850151878203601f1901610100890152611627565b610100840151868203601f190184880152611627565b910151838203601f1901610140850152611627565b0390f35b346100a45760003660031901126100a4576000546040516001600160a01b039091168152602090f35b346100a45760203660031901126100a4576001600160a01b0361139e6114f4565b16600052600160205260406000206113b581611581565b6113c160018301611581565b916113ce60028201611581565b906113db60038201611581565b6113e760048301611581565b6113f360058401611581565b6113ff60068501611581565b9161140c60078601611581565b9361141960088701611581565b9560090161142690611581565b96604051998a99610140808c528b0161143e91611627565b8a810360208c015261144f91611627565b89810360408b015261146091611627565b88810360608a015261147191611627565b878103608089015261148291611627565b86810360a088015261149391611627565b85810360c08701526114a491611627565b84810360e08601526114b591611627565b8381036101008501526114c791611627565b82810361012084015261135091611627565b346100a45760003660031901126100a4576020906002548152f35b600435906001600160a01b03821682036100a457565b90600182811c9216801561153a575b602083101461152457565b634e487b7160e01b600052602260045260246000fd5b91607f1691611519565b61014081019081106001600160401b038211176108d357604052565b90601f801991011681019081106001600160401b038211176108d357604052565b90604051918260008254926115958461150a565b90818452600194858116908160001461160457506001146115c1575b50506115bf92500383611560565b565b9093915060005260209081600020936000915b8183106115ec5750506115bf935082010138806115b1565b855488840185015294850194879450918301916115d4565b9150506115bf94506020925060ff191682840152151560051b82010138806115b1565b919082519283825260005b848110611653575050826000602080949584010152601f8019910116010190565b602081830181015184830182015201611632565b9181601f840112156100a4578235916001600160401b0383116100a457602083818601950101116100a457565b6002548110156116cb5760026000527f405787fa12a823e0f2b7631cc41b3ba8828b3321ca811111fa75cd3aa3bb5ace0190600090565b634e487b7160e01b600052603260045260246000fd5b9291926001600160401b0382116108d3576040519161170a601f8201601f191660200184611560565b8294818452818301116100a4578281602093846000960137010152565b908060209392818452848401376000828201840152601f01601f191601019056fea2646970667358221220991a039755c8038f12d5794aec19c153a859990d410cabd8557f2394e08a084864736f6c63430008140033","opcodes":"PUSH1 0x80 DUP1 PUSH1 0x40 MSTORE CALLVALUE PUSH2 0x28 JUMPI PUSH1 0x0 DUP1 SLOAD PUSH1 0x1 PUSH1 0x1 PUSH1 0xA0 SHL SUB NOT AND CALLER OR SWAP1 SSTORE PUSH2 0x177E SWAP1 DUP2 PUSH2 0x2E DUP3 CODECOPY RETURN JUMPDEST PUSH1 0x0 DUP1 REVERT INVALID PUSH2 0x360 DUP1 PUSH1 0x40 MSTORE PUSH1 0x4 CALLDATASIZE LT ISZERO PUSH2 0x14 JUMPI PUSH1 0x0 DUP1 REVERT JUMPDEST PUSH1 0x0 CALLDATALOAD PUSH1 0xE0 SHR SWAP1 DUP2 PUSH4 0x2A17D4CD EQ PUSH2 0x14D9 JUMPI POP DUP1 PUSH4 0x5A2ED662 EQ PUSH2 0x137D JUMPI DUP1 PUSH4 0x637EEA19 EQ PUSH2 0x1354 JUMPI DUP1 PUSH4 0xCF84C603 EQ PUSH2 0x1123 JUMPI DUP1 PUSH4 0xDBB94F36 EQ PUSH2 0xA9 JUMPI PUSH4 0xF31BEE3E EQ PUSH2 0x62 JUMPI PUSH1 0x0 DUP1 REVERT JUMPDEST CALLVALUE PUSH2 0xA4 JUMPI PUSH1 0x20 CALLDATASIZE PUSH1 0x3 NOT ADD SLT PUSH2 0xA4 JUMPI PUSH1 0x4 CALLDATALOAD PUSH1 0x2 SLOAD DUP2 LT ISZERO PUSH2 0xA4 JUMPI PUSH2 0x8B PUSH1 0x20 SWAP2 PUSH2 0x1694 JUMP JUMPDEST SWAP1 SLOAD PUSH1 0x40 MLOAD PUSH1 0x3 SWAP3 SWAP1 SWAP3 SHL SHR PUSH1 0x1 PUSH1 0x1 PUSH1 0xA0 SHL SUB AND DUP2 MSTORE RETURN JUMPDEST PUSH1 0x0 DUP1 REVERT JUMPDEST CALLVALUE PUSH2 0xA4 JUMPI PUSH2 0x160 CALLDATASIZE PUSH1 0x3 NOT ADD SLT PUSH2 0xA4 JUMPI PUSH2 0xC3 PUSH2 0x14F4 JUMP JUMPDEST PUSH2 0x180 MSTORE PUSH1 0x24 CALLDATALOAD PUSH1 0x1 PUSH1 0x1 PUSH1 0x40 SHL SUB DUP2 GT PUSH2 0xA4 JUMPI PUSH2 0xE6 SWAP1 CALLDATASIZE SWAP1 PUSH1 0x4 ADD PUSH2 0x1667 JUMP JUMPDEST PUSH2 0x2C0 MSTORE PUSH2 0x140 MSTORE PUSH1 0x44 CALLDATALOAD PUSH1 0x1 PUSH1 0x1 PUSH1 0x40 SHL SUB DUP2 GT PUSH2 0xA4 JUMPI PUSH2 0x10D SWAP1 CALLDATASIZE SWAP1 PUSH1 0x4 ADD PUSH2 0x1667 JUMP JUMPDEST PUSH2 0x1E0 MSTORE PUSH1 0x80 MSTORE PUSH1 0x64 CALLDATALOAD PUSH1 0x1 PUSH1 0x1 PUSH1 0x40 SHL SUB DUP2 GT PUSH2 0xA4 JUMPI PUSH2 0x133 SWAP1 CALLDATASIZE SWAP1 PUSH1 0x4 ADD PUSH2 0x1667 JUMP JUMPDEST PUSH2 0x240 MSTORE PUSH2 0x1A0 MSTORE PUSH1 0x84 CALLDATALOAD PUSH1 0x1 PUSH1 0x1 PUSH1 0x40 SHL SUB DUP2 GT PUSH2 0xA4 JUMPI PUSH2 0x15A SWAP1 CALLDATASIZE SWAP1 PUSH1 0x4 ADD PUSH2 0x1667 JUMP JUMPDEST PUSH1 0xE0 MSTORE PUSH2 0x2A0 MSTORE PUSH1 0xA4 CALLDATALOAD PUSH1 0x1 PUSH1 0x1 PUSH1 0x40 SHL SUB DUP2 GT PUSH2 0xA4 JUMPI PUSH2 0x180 SWAP1 CALLDATASIZE SWAP1 PUSH1 0x4 ADD PUSH2 0x1667 JUMP JUMPDEST PUSH2 0x320 MSTORE PUSH2 0x100 MSTORE PUSH1 0xC4 CALLDATALOAD PUSH1 0x1 PUSH1 0x1 PUSH1 0x40 SHL SUB DUP2 GT PUSH2 0xA4 JUMPI PUSH2 0x1A7 SWAP1 CALLDATASIZE SWAP1 PUSH1 0x4 ADD PUSH2 0x1667 JUMP JUMPDEST PUSH2 0x160 MSTORE PUSH2 0x200 MSTORE PUSH1 0x1 PUSH1 0x1 PUSH1 0x40 SHL SUB PUSH1 0xE4 CALLDATALOAD GT PUSH2 0xA4 JUMPI PUSH2 0x1CE CALLDATASIZE PUSH1 0xE4 CALLDATALOAD PUSH1 0x4 ADD PUSH2 0x1667 JUMP JUMPDEST PUSH2 0x2E0 MSTORE PUSH2 0x220 MSTORE PUSH2 0x104 CALLDATALOAD PUSH1 0x1 PUSH1 0x1 PUSH1 0x40 SHL SUB DUP2 GT PUSH2 0xA4 JUMPI PUSH2 0x1F6 SWAP1 CALLDATASIZE SWAP1 PUSH1 0x4 ADD PUSH2 0x1667 JUMP JUMPDEST PUSH2 0x340 MSTORE PUSH2 0x260 MSTORE PUSH2 0x124 CALLDATALOAD PUSH1 0x1 PUSH1 0x1 PUSH1 0x40 SHL SUB DUP2 GT PUSH2 0xA4 JUMPI PUSH2 0x21E SWAP1 CALLDATASIZE SWAP1 PUSH1 0x4 ADD PUSH2 0x1667 JUMP JUMPDEST PUSH2 0x1C0 MSTORE PUSH2 0x280 MSTORE PUSH2 0x144 CALLDATALOAD PUSH1 0x1 PUSH1 0x1 PUSH1 0x40 SHL SUB DUP2 GT PUSH2 0xA4 JUMPI PUSH2 0x246 SWAP1 CALLDATASIZE SWAP1 PUSH1 0x4 ADD PUSH2 0x1667 JUMP JUMPDEST PUSH1 0xC0 MSTORE PUSH1 0xA0 MSTORE PUSH1 0x0 SLOAD PUSH1 0x1 PUSH1 0x1 PUSH1 0xA0 SHL SUB AND CALLER SUB PUSH2 0x10F0 JUMPI PUSH2 0x26E PUSH1 0x40 MLOAD DUP1 PUSH2 0x120 MSTORE PUSH2 0x1544 JUMP JUMPDEST PUSH2 0x27F CALLDATASIZE PUSH2 0x2C0 MLOAD PUSH2 0x140 MLOAD PUSH2 0x16E1 JUMP JUMPDEST PUSH2 0x120 MLOAD MSTORE PUSH2 0x294 CALLDATASIZE PUSH2 0x1E0 MLOAD PUSH1 0x80 MLOAD PUSH2 0x16E1 JUMP JUMPDEST PUSH1 0x20 PUSH2 0x120 MLOAD ADD MSTORE PUSH2 0x2AD CALLDATASIZE PUSH2 0x240 MLOAD PUSH2 0x1A0 MLOAD PUSH2 0x16E1 JUMP JUMPDEST PUSH1 0x40 PUSH2 0x120 MLOAD ADD MSTORE PUSH2 0x2C5 CALLDATASIZE PUSH1 0xE0 MLOAD PUSH2 0x2A0 MLOAD PUSH2 0x16E1 JUMP JUMPDEST PUSH1 0x60 PUSH2 0x120 MLOAD ADD MSTORE PUSH2 0x2DE CALLDATASIZE PUSH2 0x320 MLOAD PUSH2 0x100 MLOAD PUSH2 0x16E1 JUMP JUMPDEST PUSH1 0x80 PUSH2 0x120 MLOAD ADD MSTORE PUSH2 0x2F7 CALLDATASIZE PUSH2 0x160 MLOAD PUSH2 0x200 MLOAD PUSH2 0x16E1 JUMP JUMPDEST PUSH1 0xA0 PUSH2 0x120 MLOAD ADD MSTORE PUSH2 0x310 CALLDATASIZE PUSH2 0x2E0 MLOAD PUSH2 0x220 MLOAD PUSH2 0x16E1 JUMP JUMPDEST PUSH1 0xC0 PUSH2 0x120 MLOAD ADD MSTORE PUSH2 0x329 CALLDATASIZE PUSH2 0x340 MLOAD PUSH2 0x260 MLOAD PUSH2 0x16E1 JUMP JUMPDEST PUSH1 0xE0 PUSH2 0x120 MLOAD ADD MSTORE PUSH2 0x342 CALLDATASIZE PUSH2 0x1C0 MLOAD PUSH2 0x280 MLOAD PUSH2 0x16E1 JUMP JUMPDEST PUSH2 0x100 PUSH2 0x120 MLOAD ADD MSTORE PUSH2 0x35A CALLDATASIZE PUSH1 0xC0 MLOAD PUSH1 0xA0 MLOAD PUSH2 0x16E1 JUMP JUMPDEST PUSH2 0x120 DUP1 MLOAD ADD MSTORE PUSH1 0x1 DUP1 PUSH1 0xA0 SHL SUB PUSH2 0x180 MLOAD AND PUSH1 0x0 MSTORE PUSH1 0x1 PUSH1 0x20 MSTORE PUSH1 0x40 PUSH1 0x0 KECCAK256 PUSH2 0x120 MLOAD MLOAD DUP1 MLOAD SWAP1 PUSH1 0x1 PUSH1 0x1 PUSH1 0x40 SHL SUB DUP3 GT PUSH2 0x8D3 JUMPI DUP2 SWAP1 PUSH2 0x39C DUP5 SLOAD PUSH2 0x150A JUMP JUMPDEST PUSH1 0x1F DUP2 GT PUSH2 0x10A0 JUMPI JUMPDEST POP PUSH1 0x20 SWAP1 PUSH1 0x1F DUP4 GT PUSH1 0x1 EQ PUSH2 0x1034 JUMPI PUSH1 0x0 SWAP3 PUSH2 0x1029 JUMPI JUMPDEST POP POP DUP2 PUSH1 0x1 SHL SWAP2 PUSH1 0x0 NOT SWAP1 PUSH1 0x3 SHL SHR NOT AND OR DUP2 SSTORE JUMPDEST PUSH1 0x20 PUSH2 0x120 MLOAD ADD MLOAD DUP1 MLOAD SWAP1 PUSH1 0x1 PUSH1 0x1 PUSH1 0x40 SHL SUB DUP3 GT PUSH2 0x8D3 JUMPI DUP2 SWAP1 PUSH2 0x3F9 PUSH1 0x1 DUP6 ADD SLOAD PUSH2 0x150A JUMP JUMPDEST PUSH1 0x1F DUP2 GT PUSH2 0xFD6 JUMPI JUMPDEST POP PUSH1 0x20 SWAP1 PUSH1 0x1F DUP4 GT PUSH1 0x1 EQ PUSH2 0xF64 JUMPI PUSH1 0x0 SWAP3 PUSH2 0xF59 JUMPI JUMPDEST POP POP DUP2 PUSH1 0x1 SHL SWAP2 PUSH1 0x0 NOT SWAP1 PUSH1 0x3 SHL SHR NOT AND OR PUSH1 0x1 DUP3 ADD SSTORE JUMPDEST PUSH1 0x40 PUSH2 0x120 MLOAD ADD MLOAD DUP1 MLOAD SWAP1 PUSH1 0x1 PUSH1 0x1 PUSH1 0x40 SHL SUB DUP3 GT PUSH2 0x8D3 JUMPI DUP2 SWAP1 PUSH2 0x459 PUSH1 0x2 DUP6 ADD SLOAD PUSH2 0x150A JUMP JUMPDEST PUSH1 0x1F DUP2 GT PUSH2 0xF06 JUMPI JUMPDEST POP PUSH1 0x20 SWAP1 PUSH1 0x1F DUP4 GT PUSH1 0x1 EQ PUSH2 0xE94 JUMPI PUSH1 0x0 SWAP3 PUSH2 0xE89 JUMPI JUMPDEST POP POP DUP2 PUSH1 0x1 SHL SWAP2 PUSH1 0x0 NOT SWAP1 PUSH1 0x3 SHL SHR NOT AND OR PUSH1 0x2 DUP3 ADD SSTORE JUMPDEST PUSH1 0x60 PUSH2 0x120 MLOAD ADD MLOAD DUP1 MLOAD SWAP1 PUSH1 0x1 PUSH1 0x1 PUSH1 0x40 SHL SUB DUP3 GT PUSH2 0x8D3 JUMPI DUP2 SWAP1 PUSH2 0x4B9 PUSH1 0x3 DUP6 ADD SLOAD PUSH2 0x150A JUMP JUMPDEST PUSH1 0x1F DUP2 GT PUSH2 0xE36 JUMPI JUMPDEST POP PUSH1 0x20 SWAP1 PUSH1 0x1F DUP4 GT PUSH1 0x1 EQ PUSH2 0xDC4 JUMPI PUSH1 0x0 SWAP3 PUSH2 0xDB9 JUMPI JUMPDEST POP POP DUP2 PUSH1 0x1 SHL SWAP2 PUSH1 0x0 NOT SWAP1 PUSH1 0x3 SHL SHR NOT AND OR PUSH1 0x3 DUP3 ADD SSTORE JUMPDEST PUSH1 0x80 PUSH2 0x120 MLOAD ADD MLOAD DUP1 MLOAD SWAP1 PUSH1 0x1 PUSH1 0x1 PUSH1 0x40 SHL SUB DUP3 GT PUSH2 0x8D3 JUMPI DUP2 SWAP1 PUSH2 0x519 PUSH1 0x4 DUP6 ADD SLOAD PUSH2 0x150A JUMP JUMPDEST PUSH1 0x1F DUP2 GT PUSH2 0xD66 JUMPI JUMPDEST POP PUSH1 0x20 SWAP1 PUSH1 0x1F DUP4 GT PUSH1 0x1 EQ PUSH2 0xCF4 JUMPI PUSH1 0x0 SWAP3 PUSH2 0xCE9 JUMPI JUMPDEST POP POP DUP2 PUSH1 0x1 SHL SWAP2 PUSH1 0x0 NOT SWAP1 PUSH1 0x3 SHL SHR NOT AND OR PUSH1 0x4 DUP3 ADD SSTORE JUMPDEST PUSH1 0xA0 PUSH2 0x120 MLOAD ADD MLOAD DUP1 MLOAD SWAP1 PUSH1 0x1 PUSH1 0x1 PUSH1 0x40 SHL SUB DUP3 GT PUSH2 0x8D3 JUMPI DUP2 SWAP1 PUSH2 0x579 PUSH1 0x5 DUP6 ADD SLOAD PUSH2 0x150A JUMP JUMPDEST PUSH1 0x1F DUP2 GT PUSH2 0xC96 JUMPI JUMPDEST POP PUSH1 0x20 SWAP1 PUSH1 0x1F DUP4 GT PUSH1 0x1 EQ PUSH2 0xC24 JUMPI PUSH1 0x0 SWAP3 PUSH2 0xC19 JUMPI JUMPDEST POP POP DUP2 PUSH1 0x1 SHL SWAP2 PUSH1 0x0 NOT SWAP1 PUSH1 0x3 SHL SHR NOT AND OR PUSH1 0x5 DUP3 ADD SSTORE JUMPDEST PUSH1 0xC0 PUSH2 0x120 MLOAD ADD MLOAD DUP1 MLOAD SWAP1 PUSH1 0x1 PUSH1 0x1 PUSH1 0x40 SHL SUB DUP3 GT PUSH2 0x8D3 JUMPI DUP2 SWAP1 PUSH2 0x5D9 PUSH1 0x6 DUP6 ADD SLOAD PUSH2 0x150A JUMP JUMPDEST PUSH1 0x1F DUP2 GT PUSH2 0xBC6 JUMPI JUMPDEST POP PUSH1 0x20 SWAP1 PUSH1 0x1F DUP4 GT PUSH1 0x1 EQ PUSH2 0xB54 JUMPI PUSH1 0x0 SWAP3 PUSH2 0xB49 JUMPI JUMPDEST POP POP DUP2 PUSH1 0x1 SHL SWAP2 PUSH1 0x0 NOT SWAP1 PUSH1 0x3 SHL SHR NOT AND OR PUSH1 0x6 DUP3 ADD SSTORE JUMPDEST PUSH1 0xE0 PUSH2 0x120 MLOAD ADD MLOAD DUP1 MLOAD SWAP1 PUSH1 0x1 PUSH1 0x1 PUSH1 0x40 SHL SUB DUP3 GT PUSH2 0x8D3 JUMPI DUP2 SWAP1 PUSH2 0x639 PUSH1 0x7 DUP6 ADD SLOAD PUSH2 0x150A JUMP JUMPDEST PUSH1 0x1F DUP2 GT PUSH2 0xAF6 JUMPI JUMPDEST POP PUSH1 0x20 SWAP1 PUSH1 0x1F DUP4 GT PUSH1 0x1 EQ PUSH2 0xA84 JUMPI PUSH1 0x0 SWAP3 PUSH2 0xA79 JUMPI JUMPDEST POP POP DUP2 PUSH1 0x1 SHL SWAP2 PUSH1 0x0 NOT SWAP1 PUSH1 0x3 SHL SHR NOT AND OR PUSH1 0x7 DUP3 ADD SSTORE JUMPDEST PUSH2 0x100 PUSH2 0x120 MLOAD ADD MLOAD DUP1 MLOAD SWAP1 PUSH1 0x1 PUSH1 0x1 PUSH1 0x40 SHL SUB DUP3 GT PUSH2 0x8D3 JUMPI DUP2 SWAP1 PUSH2 0x69A PUSH1 0x8 DUP6 ADD SLOAD PUSH2 0x150A JUMP JUMPDEST PUSH1 0x1F DUP2 GT PUSH2 0xA26 JUMPI JUMPDEST POP PUSH1 0x20 SWAP1 PUSH1 0x1F DUP4 GT PUSH1 0x1 EQ PUSH2 0x9B4 JUMPI PUSH1 0x0 SWAP3 PUSH2 0x9A9 JUMPI JUMPDEST POP POP DUP2 PUSH1 0x1 SHL SWAP2 PUSH1 0x0 NOT SWAP1 PUSH1 0x3 SHL SHR NOT AND OR PUSH1 0x8 DUP3 ADD SSTORE JUMPDEST PUSH2 0x120 DUP1 MLOAD ADD MLOAD DUP1 MLOAD SWAP1 PUSH1 0x1 PUSH1 0x1 PUSH1 0x40 SHL SUB DUP3 GT PUSH2 0x8D3 JUMPI PUSH2 0x6F7 PUSH1 0x9 DUP5 ADD SLOAD PUSH2 0x150A JUMP JUMPDEST PUSH1 0x1F DUP2 GT PUSH2 0x962 JUMPI JUMPDEST POP PUSH1 0x20 SWAP1 PUSH1 0x1F DUP4 GT PUSH1 0x1 EQ PUSH2 0x8F4 JUMPI PUSH1 0x9 SWAP3 SWAP2 PUSH1 0x0 SWAP2 DUP4 PUSH2 0x8E9 JUMPI JUMPDEST POP POP DUP2 PUSH1 0x1 SHL SWAP2 PUSH1 0x0 NOT SWAP1 PUSH1 0x3 SHL SHR NOT AND OR SWAP2 ADD SSTORE JUMPDEST PUSH1 0x2 SLOAD PUSH9 0x10000000000000000 DUP2 LT ISZERO PUSH2 0x8D3 JUMPI DUP1 PUSH1 0x1 PUSH2 0x756 SWAP3 ADD PUSH1 0x2 SSTORE PUSH2 0x1694 JUMP JUMPDEST DUP2 SLOAD SWAP1 PUSH1 0x3 SHL SWAP1 PUSH1 0x1 DUP1 PUSH1 0xA0 SHL SUB PUSH2 0x180 MLOAD AND DUP3 SHL SWAP2 PUSH1 0x1 DUP1 PUSH1 0xA0 SHL SUB SWAP1 SHL NOT AND OR SWAP1 SSTORE PUSH2 0x140 PUSH1 0x40 MLOAD DUP1 PUSH2 0x300 MSTORE MSTORE PUSH2 0x87D PUSH2 0x863 PUSH2 0x84A PUSH2 0x831 PUSH2 0x818 PUSH2 0x7FF PUSH2 0x7E7 PUSH2 0x7CE PUSH2 0x7B6 PUSH2 0x140 PUSH2 0x300 MLOAD ADD PUSH2 0x2C0 MLOAD PUSH2 0x140 MLOAD PUSH2 0x1727 JUMP JUMPDEST PUSH2 0x300 MLOAD PUSH1 0x20 DUP2 DUP4 SUB SWAP2 ADD MSTORE PUSH2 0x1E0 MLOAD PUSH1 0x80 MLOAD PUSH2 0x1727 JUMP JUMPDEST PUSH2 0x300 MLOAD PUSH1 0x40 DUP2 DUP4 SUB SWAP2 ADD MSTORE PUSH2 0x240 MLOAD PUSH2 0x1A0 MLOAD PUSH2 0x1727 JUMP JUMPDEST PUSH2 0x300 MLOAD PUSH1 0x60 DUP2 DUP4 SUB SWAP2 ADD MSTORE PUSH1 0xE0 MLOAD PUSH2 0x2A0 MLOAD PUSH2 0x1727 JUMP JUMPDEST PUSH2 0x300 MLOAD PUSH1 0x80 DUP2 DUP4 SUB SWAP2 ADD MSTORE PUSH2 0x320 MLOAD PUSH2 0x100 MLOAD PUSH2 0x1727 JUMP JUMPDEST PUSH2 0x300 MLOAD PUSH1 0xA0 DUP2 DUP4 SUB SWAP2 ADD MSTORE PUSH2 0x160 MLOAD PUSH2 0x200 MLOAD PUSH2 0x1727 JUMP JUMPDEST PUSH2 0x300 MLOAD PUSH1 0xC0 DUP2 DUP4 SUB SWAP2 ADD MSTORE PUSH2 0x2E0 MLOAD PUSH2 0x220 MLOAD PUSH2 0x1727 JUMP JUMPDEST PUSH2 0x300 MLOAD PUSH1 0xE0 DUP2 DUP4 SUB SWAP2 ADD MSTORE PUSH2 0x340 MLOAD PUSH2 0x260 MLOAD PUSH2 0x1727 JUMP JUMPDEST PUSH2 0x300 MLOAD PUSH2 0x100 DUP2 DUP4 SUB SWAP2 ADD MSTORE PUSH2 0x1C0 MLOAD PUSH2 0x280 MLOAD PUSH2 0x1727 JUMP JUMPDEST PUSH2 0x300 MLOAD PUSH2 0x120 DUP2 DUP4 SUB SWAP2 ADD MSTORE PUSH32 0xC9A656DB7243B74EEEED31E116FCFBA9922EECA04031FF067A43418677DB66EE PUSH1 0x1 DUP1 PUSH1 0xA0 SHL SUB PUSH2 0x180 MLOAD AND SWAP2 PUSH2 0x8CB PUSH2 0x300 MLOAD SWAP2 PUSH1 0xC0 MLOAD PUSH1 0xA0 MLOAD PUSH2 0x1727 JUMP JUMPDEST SUB PUSH2 0x300 MLOAD LOG2 STOP JUMPDEST PUSH4 0x4E487B71 PUSH1 0xE0 SHL PUSH1 0x0 MSTORE PUSH1 0x41 PUSH1 0x4 MSTORE PUSH1 0x24 PUSH1 0x0 REVERT JUMPDEST ADD MLOAD SWAP1 POP DUP5 DUP1 PUSH2 0x71C JUMP JUMPDEST SWAP1 PUSH1 0x1F NOT DUP4 AND SWAP2 PUSH1 0x9 DUP6 ADD PUSH1 0x0 MSTORE PUSH1 0x20 PUSH1 0x0 KECCAK256 SWAP3 PUSH1 0x0 JUMPDEST DUP2 DUP2 LT PUSH2 0x94A JUMPI POP SWAP2 PUSH1 0x1 SWAP4 SWAP2 DUP6 PUSH1 0x9 SWAP7 SWAP5 LT PUSH2 0x931 JUMPI JUMPDEST POP POP POP DUP2 SHL ADD SWAP2 ADD SSTORE PUSH2 0x732 JUMP JUMPDEST ADD MLOAD PUSH1 0x0 NOT PUSH1 0xF8 DUP5 PUSH1 0x3 SHL AND SHR NOT AND SWAP1 SSTORE DUP5 DUP1 DUP1 PUSH2 0x923 JUMP JUMPDEST SWAP3 SWAP4 PUSH1 0x20 PUSH1 0x1 DUP2 SWAP3 DUP8 DUP7 ADD MLOAD DUP2 SSTORE ADD SWAP6 ADD SWAP4 ADD PUSH2 0x90B JUMP JUMPDEST PUSH1 0x9 DUP5 ADD PUSH1 0x0 MSTORE PUSH1 0x20 PUSH1 0x0 KECCAK256 PUSH1 0x1F DUP5 ADD PUSH1 0x5 SHR DUP2 ADD PUSH1 0x20 DUP6 LT PUSH2 0x9A2 JUMPI JUMPDEST PUSH1 0x1F DUP4 ADD PUSH1 0x5 SHR DUP3 ADD DUP2 LT PUSH2 0x996 JUMPI POP POP PUSH2 0x700 JUMP JUMPDEST PUSH1 0x0 DUP2 SSTORE PUSH1 0x1 ADD PUSH2 0x980 JUMP JUMPDEST POP DUP1 PUSH2 0x980 JUMP JUMPDEST ADD MLOAD SWAP1 POP DUP4 DUP1 PUSH2 0x6BA JUMP JUMPDEST SWAP3 POP PUSH1 0x8 DUP5 ADD PUSH1 0x0 MSTORE PUSH1 0x20 PUSH1 0x0 KECCAK256 SWAP1 PUSH1 0x0 SWAP4 JUMPDEST PUSH1 0x1F NOT DUP5 AND DUP6 LT PUSH2 0xA0B JUMPI PUSH1 0x1 SWAP5 POP DUP4 PUSH1 0x1F NOT DUP2 AND LT PUSH2 0x9F2 JUMPI JUMPDEST POP POP POP DUP2 SHL ADD PUSH1 0x8 DUP3 ADD SSTORE PUSH2 0x6D2 JUMP JUMPDEST ADD MLOAD PUSH1 0x0 NOT PUSH1 0xF8 DUP5 PUSH1 0x3 SHL AND SHR NOT AND SWAP1 SSTORE DUP4 DUP1 DUP1 PUSH2 0x9E2 JUMP JUMPDEST DUP2 DUP2 ADD MLOAD DUP4 SSTORE PUSH1 0x20 SWAP5 DUP6 ADD SWAP5 PUSH1 0x1 SWAP1 SWAP4 ADD SWAP3 SWAP1 SWAP2 ADD SWAP1 PUSH2 0x9C7 JUMP JUMPDEST SWAP1 SWAP2 POP PUSH1 0x8 DUP5 ADD PUSH1 0x0 MSTORE PUSH1 0x20 PUSH1 0x0 KECCAK256 PUSH1 0x1F DUP5 ADD PUSH1 0x5 SHR DUP2 ADD PUSH1 0x20 DUP6 LT PUSH2 0xA72 JUMPI JUMPDEST SWAP1 DUP5 SWAP4 SWAP3 SWAP2 JUMPDEST PUSH1 0x1F DUP4 ADD PUSH1 0x5 SHR DUP3 ADD DUP2 LT PUSH2 0xA63 JUMPI POP POP PUSH2 0x6A3 JUMP JUMPDEST PUSH1 0x0 DUP2 SSTORE DUP6 SWAP5 POP PUSH1 0x1 ADD PUSH2 0xA4D JUMP JUMPDEST POP DUP1 PUSH2 0xA47 JUMP JUMPDEST ADD MLOAD SWAP1 POP DUP4 DUP1 PUSH2 0x659 JUMP JUMPDEST SWAP3 POP PUSH1 0x7 DUP5 ADD PUSH1 0x0 MSTORE PUSH1 0x20 PUSH1 0x0 KECCAK256 SWAP1 PUSH1 0x0 SWAP4 JUMPDEST PUSH1 0x1F NOT DUP5 AND DUP6 LT PUSH2 0xADB JUMPI PUSH1 0x1 SWAP5 POP DUP4 PUSH1 0x1F NOT DUP2 AND LT PUSH2 0xAC2 JUMPI JUMPDEST POP POP POP DUP2 SHL ADD PUSH1 0x7 DUP3 ADD SSTORE PUSH2 0x671 JUMP JUMPDEST ADD MLOAD PUSH1 0x0 NOT PUSH1 0xF8 DUP5 PUSH1 0x3 SHL AND SHR NOT AND SWAP1 SSTORE DUP4 DUP1 DUP1 PUSH2 0xAB2 JUMP JUMPDEST DUP2 DUP2 ADD MLOAD DUP4 SSTORE PUSH1 0x20 SWAP5 DUP6 ADD SWAP5 PUSH1 0x1 SWAP1 SWAP4 ADD SWAP3 SWAP1 SWAP2 ADD SWAP1 PUSH2 0xA97 JUMP JUMPDEST SWAP1 SWAP2 POP PUSH1 0x7 DUP5 ADD PUSH1 0x0 MSTORE PUSH1 0x20 PUSH1 0x0 KECCAK256 PUSH1 0x1F DUP5 ADD PUSH1 0x5 SHR DUP2 ADD PUSH1 0x20 DUP6 LT PUSH2 0xB42 JUMPI JUMPDEST SWAP1 DUP5 SWAP4 SWAP3 SWAP2 JUMPDEST PUSH1 0x1F DUP4 ADD PUSH1 0x5 SHR DUP3 ADD DUP2 LT PUSH2 0xB33 JUMPI POP POP PUSH2 0x642 JUMP JUMPDEST PUSH1 0x0 DUP2 SSTORE DUP6 SWAP5 POP PUSH1 0x1 ADD PUSH2 0xB1D JUMP JUMPDEST POP DUP1 PUSH2 0xB17 JUMP JUMPDEST ADD MLOAD SWAP1 POP DUP4 DUP1 PUSH2 0x5F9 JUMP JUMPDEST SWAP3 POP PUSH1 0x6 DUP5 ADD PUSH1 0x0 MSTORE PUSH1 0x20 PUSH1 0x0 KECCAK256 SWAP1 PUSH1 0x0 SWAP4 JUMPDEST PUSH1 0x1F NOT DUP5 AND DUP6 LT PUSH2 0xBAB JUMPI PUSH1 0x1 SWAP5 POP DUP4 PUSH1 0x1F NOT DUP2 AND LT PUSH2 0xB92 JUMPI JUMPDEST POP POP POP DUP2 SHL ADD PUSH1 0x6 DUP3 ADD SSTORE PUSH2 0x611 JUMP JUMPDEST ADD MLOAD PUSH1 0x0 NOT PUSH1 0xF8 DUP5 PUSH1 0x3 SHL AND SHR NOT AND SWAP1 SSTORE DUP4 DUP1 DUP1 PUSH2 0xB82 JUMP JUMPDEST DUP2 DUP2 ADD MLOAD DUP4 SSTORE PUSH1 0x20 SWAP5 DUP6 ADD SWAP5 PUSH1 0x1 SWAP1 SWAP4 ADD SWAP3 SWAP1 SWAP2 ADD SWAP1 PUSH2 0xB67 JUMP JUMPDEST SWAP1 SWAP2 POP PUSH1 0x6 DUP5 ADD PUSH1 0x0 MSTORE PUSH1 0x20 PUSH1 0x0 KECCAK256 PUSH1 0x1F DUP5 ADD PUSH1 0x5 SHR DUP2 ADD PUSH1 0x20 DUP6 LT PUSH2 0xC12 JUMPI JUMPDEST SWAP1 DUP5 SWAP4 SWAP3 SWAP2 JUMPDEST PUSH1 0x1F DUP4 ADD PUSH1 0x5 SHR DUP3 ADD DUP2 LT PUSH2 0xC03 JUMPI POP POP PUSH2 0x5E2 JUMP JUMPDEST PUSH1 0x0 DUP2 SSTORE DUP6 SWAP5 POP PUSH1 0x1 ADD PUSH2 0xBED JUMP JUMPDEST POP DUP1 PUSH2 0xBE7 JUMP JUMPDEST ADD MLOAD SWAP1 POP DUP4 DUP1 PUSH2 0x599 JUMP JUMPDEST SWAP3 POP PUSH1 0x5 DUP5 ADD PUSH1 0x0 MSTORE PUSH1 0x20 PUSH1 0x0 KECCAK256 SWAP1 PUSH1 0x0 SWAP4 JUMPDEST PUSH1 0x1F NOT DUP5 AND DUP6 LT PUSH2 0xC7B JUMPI PUSH1 0x1 SWAP5 POP DUP4 PUSH1 0x1F NOT DUP2 AND LT PUSH2 0xC62 JUMPI JUMPDEST POP POP POP DUP2 SHL ADD PUSH1 0x5 DUP3 ADD SSTORE PUSH2 0x5B1 JUMP JUMPDEST ADD MLOAD PUSH1 0x0 NOT PUSH1 0xF8 DUP5 PUSH1 0x3 SHL AND SHR NOT AND SWAP1 SSTORE DUP4 DUP1 DUP1 PUSH2 0xC52 JUMP JUMPDEST DUP2 DUP2 ADD MLOAD DUP4 SSTORE PUSH1 0x20 SWAP5 DUP6 ADD SWAP5 PUSH1 0x1 SWAP1 SWAP4 ADD SWAP3 SWAP1 SWAP2 ADD SWAP1 PUSH2 0xC37 JUMP JUMPDEST SWAP1 SWAP2 POP PUSH1 0x5 DUP5 ADD PUSH1 0x0 MSTORE PUSH1 0x20 PUSH1 0x0 KECCAK256 PUSH1 0x1F DUP5 ADD PUSH1 0x5 SHR DUP2 ADD PUSH1 0x20 DUP6 LT PUSH2 0xCE2 JUMPI JUMPDEST SWAP1 DUP5 SWAP4 SWAP3 SWAP2 JUMPDEST PUSH1 0x1F DUP4 ADD PUSH1 0x5 SHR DUP3 ADD DUP2 LT PUSH2 0xCD3 JUMPI POP POP PUSH2 0x582 JUMP JUMPDEST PUSH1 0x0 DUP2 SSTORE DUP6 SWAP5 POP PUSH1 0x1 ADD PUSH2 0xCBD JUMP JUMPDEST POP DUP1 PUSH2 0xCB7 JUMP JUMPDEST ADD MLOAD SWAP1 POP DUP4 DUP1 PUSH2 0x539 JUMP JUMPDEST SWAP3 POP PUSH1 0x4 DUP5 ADD PUSH1 0x0 MSTORE PUSH1 0x20 PUSH1 0x0 KECCAK256 SWAP1 PUSH1 0x0 SWAP4 JUMPDEST PUSH1 0x1F NOT DUP5 AND DUP6 LT PUSH2 0xD4B JUMPI PUSH1 0x1 SWAP5 POP DUP4 PUSH1 0x1F NOT DUP2 AND LT PUSH2 0xD32 JUMPI JUMPDEST POP POP POP DUP2 SHL ADD PUSH1 0x4 DUP3 ADD SSTORE PUSH2 0x551 JUMP JUMPDEST ADD MLOAD PUSH1 0x0 NOT PUSH1 0xF8 DUP5 PUSH1 0x3 SHL AND SHR NOT AND SWAP1 SSTORE DUP4 DUP1 DUP1 PUSH2 0xD22 JUMP JUMPDEST DUP2 DUP2 ADD MLOAD DUP4 SSTORE PUSH1 0x20 SWAP5 DUP6 ADD SWAP5 PUSH1 0x1 SWAP1 SWAP4 ADD SWAP3 SWAP1 SWAP2 ADD SWAP1 PUSH2 0xD07 JUMP JUMPDEST SWAP1 SWAP2 POP PUSH1 0x4 DUP5 ADD PUSH1 0x0 MSTORE PUSH1 0x20 PUSH1 0x0 KECCAK256 PUSH1 0x1F DUP5 ADD PUSH1 0x5 SHR DUP2 ADD PUSH1 0x20 DUP6 LT PUSH2 0xDB2 JUMPI JUMPDEST SWAP1 DUP5 SWAP4 SWAP3 SWAP2 JUMPDEST PUSH1 0x1F DUP4 ADD PUSH1 0x5 SHR DUP3 ADD DUP2 LT PUSH2 0xDA3 JUMPI POP POP PUSH2 0x522 JUMP JUMPDEST PUSH1 0x0 DUP2 SSTORE DUP6 SWAP5 POP PUSH1 0x1 ADD PUSH2 0xD8D JUMP JUMPDEST POP DUP1 PUSH2 0xD87 JUMP JUMPDEST ADD MLOAD SWAP1 POP DUP4 DUP1 PUSH2 0x4D9 JUMP JUMPDEST SWAP3 POP PUSH1 0x3 DUP5 ADD PUSH1 0x0 MSTORE PUSH1 0x20 PUSH1 0x0 KECCAK256 SWAP1 PUSH1 0x0 SWAP4 JUMPDEST PUSH1 0x1F NOT DUP5 AND DUP6 LT PUSH2 0xE1B JUMPI PUSH1 0x1 SWAP5 POP DUP4 PUSH1 0x1F NOT DUP2 AND LT PUSH2 0xE02 JUMPI JUMPDEST POP POP POP DUP2 SHL ADD PUSH1 0x3 DUP3 ADD SSTORE PUSH2 0x4F1 JUMP JUMPDEST ADD MLOAD PUSH1 0x0 NOT PUSH1 0xF8 DUP5 PUSH1 0x3 SHL AND SHR NOT AND SWAP1 SSTORE DUP4 DUP1 DUP1 PUSH2 0xDF2 JUMP JUMPDEST DUP2 DUP2 ADD MLOAD DUP4 SSTORE PUSH1 0x20 SWAP5 DUP6 ADD SWAP5 PUSH1 0x1 SWAP1 SWAP4 ADD SWAP3 SWAP1 SWAP2 ADD SWAP1 PUSH2 0xDD7 JUMP JUMPDEST SWAP1 SWAP2 POP PUSH1 0x3 DUP5 ADD PUSH1 0x0 MSTORE PUSH1 0x20 PUSH1 0x0 KECCAK256 PUSH1 0x1F DUP5 ADD PUSH1 0x5 SHR DUP2 ADD PUSH1 0x20 DUP6 LT PUSH2 0xE82 JUMPI JUMPDEST SWAP1 DUP5 SWAP4 SWAP3 SWAP2 JUMPDEST PUSH1 0x1F DUP4 ADD PUSH1 0x5 SHR DUP3 ADD DUP2 LT PUSH2 0xE73 JUMPI POP POP PUSH2 0x4C2 JUMP JUMPDEST PUSH1 0x0 DUP2 SSTORE DUP6 SWAP5 POP PUSH1 0x1 ADD PUSH2 0xE5D JUMP JUMPDEST POP DUP1 PUSH2 0xE57 JUMP JUMPDEST ADD MLOAD SWAP1 POP DUP4 DUP1 PUSH2 0x479 JUMP JUMPDEST SWAP3 POP PUSH1 0x2 DUP5 ADD PUSH1 0x0 MSTORE PUSH1 0x20 PUSH1 0x0 KECCAK256 SWAP1 PUSH1 0x0 SWAP4 JUMPDEST PUSH1 0x1F NOT DUP5 AND DUP6 LT PUSH2 0xEEB JUMPI PUSH1 0x1 SWAP5 POP DUP4 PUSH1 0x1F NOT DUP2 AND LT PUSH2 0xED2 JUMPI JUMPDEST POP POP POP DUP2 SHL ADD PUSH1 0x2 DUP3 ADD SSTORE PUSH2 0x491 JUMP JUMPDEST ADD MLOAD PUSH1 0x0 NOT PUSH1 0xF8 DUP5 PUSH1 0x3 SHL AND SHR NOT AND SWAP1 SSTORE DUP4 DUP1 DUP1 PUSH2 0xEC2 JUMP JUMPDEST DUP2 DUP2 ADD MLOAD DUP4 SSTORE PUSH1 0x20 SWAP5 DUP6 ADD SWAP5 PUSH1 0x1 SWAP1 SWAP4 ADD SWAP3 SWAP1 SWAP2 ADD SWAP1 PUSH2 0xEA7 JUMP JUMPDEST SWAP1 SWAP2 POP PUSH1 0x2 DUP5 ADD PUSH1 0x0 MSTORE PUSH1 0x20 PUSH1 0x0 KECCAK256 PUSH1 0x1F DUP5 ADD PUSH1 0x5 SHR DUP2 ADD PUSH1 0x20 DUP6 LT PUSH2 0xF52 JUMPI JUMPDEST SWAP1 DUP5 SWAP4 SWAP3 SWAP2 JUMPDEST PUSH1 0x1F DUP4 ADD PUSH1 0x5 SHR DUP3 ADD DUP2 LT PUSH2 0xF43 JUMPI POP POP PUSH2 0x462 JUMP JUMPDEST PUSH1 0x0 DUP2 SSTORE DUP6 SWAP5 POP PUSH1 0x1 ADD PUSH2 0xF2D JUMP JUMPDEST POP DUP1 PUSH2 0xF27 JUMP JUMPDEST ADD MLOAD SWAP1 POP DUP4 DUP1 PUSH2 0x419 JUMP JUMPDEST SWAP3 POP PUSH1 0x1 DUP5 ADD PUSH1 0x0 MSTORE PUSH1 0x20 PUSH1 0x0 KECCAK256 SWAP1 PUSH1 0x0 SWAP4 JUMPDEST PUSH1 0x1F NOT DUP5 AND DUP6 LT PUSH2 0xFBB JUMPI PUSH1 0x1 SWAP5 POP DUP4 PUSH1 0x1F NOT DUP2 AND LT PUSH2 0xFA2 JUMPI JUMPDEST POP POP POP DUP2 SHL ADD PUSH1 0x1 DUP3 ADD SSTORE PUSH2 0x431 JUMP JUMPDEST ADD MLOAD PUSH1 0x0 NOT PUSH1 0xF8 DUP5 PUSH1 0x3 SHL AND SHR NOT AND SWAP1 SSTORE DUP4 DUP1 DUP1 PUSH2 0xF92 JUMP JUMPDEST DUP2 DUP2 ADD MLOAD DUP4 SSTORE PUSH1 0x20 SWAP5 DUP6 ADD SWAP5 PUSH1 0x1 SWAP1 SWAP4 ADD SWAP3 SWAP1 SWAP2 ADD SWAP1 PUSH2 0xF77 JUMP JUMPDEST SWAP1 SWAP2 POP PUSH1 0x1 DUP5 ADD PUSH1 0x0 MSTORE PUSH1 0x20 PUSH1 0x0 KECCAK256 PUSH1 0x1F DUP5 ADD PUSH1 0x5 SHR DUP2 ADD PUSH1 0x20 DUP6 LT PUSH2 0x1022 JUMPI JUMPDEST SWAP1 DUP5 SWAP4 SWAP3 SWAP2 JUMPDEST PUSH1 0x1F DUP4 ADD PUSH1 0x5 SHR DUP3 ADD DUP2 LT PUSH2 0x1013 JUMPI POP POP PUSH2 0x402 JUMP JUMPDEST PUSH1 0x0 DUP2 SSTORE DUP6 SWAP5 POP PUSH1 0x1 ADD PUSH2 0xFFD JUMP JUMPDEST POP DUP1 PUSH2 0xFF7 JUMP JUMPDEST ADD MLOAD SWAP1 POP DUP4 DUP1 PUSH2 0x3BC JUMP JUMPDEST SWAP3 POP DUP4 PUSH1 0x0 MSTORE PUSH1 0x20 PUSH1 0x0 KECCAK256 SWAP1 PUSH1 0x0 SWAP4 JUMPDEST PUSH1 0x1F NOT DUP5 AND DUP6 LT PUSH2 0x1085 JUMPI PUSH1 0x1 SWAP5 POP DUP4 PUSH1 0x1F NOT DUP2 AND LT PUSH2 0x106C JUMPI JUMPDEST POP POP POP DUP2 SHL ADD DUP2 SSTORE PUSH2 0x3D1 JUMP JUMPDEST ADD MLOAD PUSH1 0x0 NOT PUSH1 0xF8 DUP5 PUSH1 0x3 SHL AND SHR NOT AND SWAP1 SSTORE DUP4 DUP1 DUP1 PUSH2 0x105F JUMP JUMPDEST DUP2 DUP2 ADD MLOAD DUP4 SSTORE PUSH1 0x20 SWAP5 DUP6 ADD SWAP5 PUSH1 0x1 SWAP1 SWAP4 ADD SWAP3 SWAP1 SWAP2 ADD SWAP1 PUSH2 0x1044 JUMP JUMPDEST SWAP1 SWAP2 POP DUP4 PUSH1 0x0 MSTORE PUSH1 0x20 PUSH1 0x0 KECCAK256 PUSH1 0x1F DUP5 ADD PUSH1 0x5 SHR DUP2 ADD PUSH1 0x20 DUP6 LT PUSH2 0x10E9 JUMPI JUMPDEST SWAP1 DUP5 SWAP4 SWAP3 SWAP2 JUMPDEST PUSH1 0x1F DUP4 ADD PUSH1 0x5 SHR DUP3 ADD DUP2 LT PUSH2 0x10DA JUMPI POP POP PUSH2 0x3A5 JUMP JUMPDEST PUSH1 0x0 DUP2 SSTORE DUP6 SWAP5 POP PUSH1 0x1 ADD PUSH2 0x10C4 JUMP JUMPDEST POP DUP1 PUSH2 0x10BE JUMP JUMPDEST PUSH1 0x40 MLOAD PUSH3 0x461BCD PUSH1 0xE5 SHL DUP2 MSTORE PUSH1 0x20 PUSH1 0x4 DUP3 ADD MSTORE PUSH1 0xB PUSH1 0x24 DUP3 ADD MSTORE PUSH11 0x139BDD081CDD195DD85C99 PUSH1 0xAA SHL PUSH1 0x44 DUP3 ADD MSTORE PUSH1 0x64 SWAP1 REVERT JUMPDEST CALLVALUE PUSH2 0xA4 JUMPI PUSH1 0x20 CALLDATASIZE PUSH1 0x3 NOT ADD SLT PUSH2 0xA4 JUMPI PUSH2 0x113C PUSH2 0x14F4 JUMP JUMPDEST PUSH1 0x60 PUSH2 0x120 PUSH1 0x40 MLOAD PUSH2 0x114D DUP2 PUSH2 0x1544 JUMP JUMPDEST DUP3 DUP2 MSTORE DUP3 PUSH1 0x20 DUP3 ADD MSTORE DUP3 PUSH1 0x40 DUP3 ADD MSTORE DUP3 DUP1 DUP3 ADD MSTORE DUP3 PUSH1 0x80 DUP3 ADD MSTORE DUP3 PUSH1 0xA0 DUP3 ADD MSTORE DUP3 PUSH1 0xC0 DUP3 ADD MSTORE DUP3 PUSH1 0xE0 DUP3 ADD MSTORE DUP3 PUSH2 0x100 DUP3 ADD MSTORE ADD MSTORE PUSH1 0x1 DUP1 PUSH1 0xA0 SHL SUB AND PUSH1 0x0 MSTORE PUSH1 0x1 PUSH1 0x20 MSTORE PUSH2 0x1350 PUSH1 0x40 PUSH1 0x0 KECCAK256 PUSH2 0x1246 PUSH1 0x9 PUSH1 0x40 MLOAD SWAP3 PUSH2 0x11AC DUP5 PUSH2 0x1544 JUMP JUMPDEST PUSH2 0x11B5 DUP2 PUSH2 0x1581 JUMP JUMPDEST DUP5 MSTORE PUSH2 0x11C3 PUSH1 0x1 DUP3 ADD PUSH2 0x1581 JUMP JUMPDEST PUSH1 0x20 DUP6 ADD MSTORE PUSH2 0x11D4 PUSH1 0x2 DUP3 ADD PUSH2 0x1581 JUMP JUMPDEST PUSH1 0x40 DUP6 ADD MSTORE PUSH2 0x11E5 PUSH1 0x3 DUP3 ADD PUSH2 0x1581 JUMP JUMPDEST PUSH1 0x60 DUP6 ADD MSTORE PUSH2 0x11F6 PUSH1 0x4 DUP3 ADD PUSH2 0x1581 JUMP JUMPDEST PUSH1 0x80 DUP6 ADD MSTORE PUSH2 0x1207 PUSH1 0x5 DUP3 ADD PUSH2 0x1581 JUMP JUMPDEST PUSH1 0xA0 DUP6 ADD MSTORE PUSH2 0x1218 PUSH1 0x6 DUP3 ADD PUSH2 0x1581 JUMP JUMPDEST PUSH1 0xC0 DUP6 ADD MSTORE PUSH2 0x1229 PUSH1 0x7 DUP3 ADD PUSH2 0x1581 JUMP JUMPDEST PUSH1 0xE0 DUP6 ADD MSTORE PUSH2 0x123A PUSH1 0x8 DUP3 ADD PUSH2 0x1581 JUMP JUMPDEST PUSH2 0x100 DUP6 ADD MSTORE ADD PUSH2 0x1581 JUMP JUMPDEST PUSH2 0x120 DUP3 ADD MSTORE PUSH1 0x40 MLOAD SWAP2 DUP3 SWAP2 PUSH1 0x20 DUP4 MSTORE PUSH2 0x120 PUSH2 0x133B PUSH2 0x1325 PUSH2 0x130E PUSH2 0x12F8 PUSH2 0x12E2 PUSH2 0x12CC PUSH2 0x12B6 PUSH2 0x12A0 PUSH2 0x128A DUP13 PUSH2 0x160 DUP13 MLOAD SWAP2 PUSH2 0x140 PUSH1 0x20 DUP3 ADD MSTORE ADD SWAP1 PUSH2 0x1627 JUMP JUMPDEST PUSH1 0x20 DUP12 ADD MLOAD DUP14 DUP3 SUB PUSH1 0x1F NOT ADD PUSH1 0x40 DUP16 ADD MSTORE PUSH2 0x1627 JUMP JUMPDEST PUSH1 0x40 DUP11 ADD MLOAD DUP13 DUP3 SUB PUSH1 0x1F NOT ADD PUSH1 0x60 DUP15 ADD MSTORE PUSH2 0x1627 JUMP JUMPDEST PUSH1 0x60 DUP10 ADD MLOAD DUP12 DUP3 SUB PUSH1 0x1F NOT ADD PUSH1 0x80 DUP14 ADD MSTORE PUSH2 0x1627 JUMP JUMPDEST PUSH1 0x80 DUP9 ADD MLOAD DUP11 DUP3 SUB PUSH1 0x1F NOT ADD PUSH1 0xA0 DUP13 ADD MSTORE PUSH2 0x1627 JUMP JUMPDEST PUSH1 0xA0 DUP8 ADD MLOAD DUP10 DUP3 SUB PUSH1 0x1F NOT ADD PUSH1 0xC0 DUP12 ADD MSTORE PUSH2 0x1627 JUMP JUMPDEST PUSH1 0xC0 DUP7 ADD MLOAD DUP9 DUP3 SUB PUSH1 0x1F NOT ADD PUSH1 0xE0 DUP11 ADD MSTORE PUSH2 0x1627 JUMP JUMPDEST PUSH1 0xE0 DUP6 ADD MLOAD DUP8 DUP3 SUB PUSH1 0x1F NOT ADD PUSH2 0x100 DUP10 ADD MSTORE PUSH2 0x1627 JUMP JUMPDEST PUSH2 0x100 DUP5 ADD MLOAD DUP7 DUP3 SUB PUSH1 0x1F NOT ADD DUP5 DUP9 ADD MSTORE PUSH2 0x1627 JUMP JUMPDEST SWAP2 ADD MLOAD DUP4 DUP3 SUB PUSH1 0x1F NOT ADD PUSH2 0x140 DUP6 ADD MSTORE PUSH2 0x1627 JUMP JUMPDEST SUB SWAP1 RETURN JUMPDEST CALLVALUE PUSH2 0xA4 JUMPI PUSH1 0x0 CALLDATASIZE PUSH1 0x3 NOT ADD SLT PUSH2 0xA4 JUMPI PUSH1 0x0 SLOAD PUSH1 0x40 MLOAD PUSH1 0x1 PUSH1 0x1 PUSH1 0xA0 SHL SUB SWAP1 SWAP2 AND DUP2 MSTORE PUSH1 0x20 SWAP1 RETURN JUMPDEST CALLVALUE PUSH2 0xA4 JUMPI PUSH1 0x20 CALLDATASIZE PUSH1 0x3 NOT ADD SLT PUSH2 0xA4 JUMPI PUSH1 0x1 PUSH1 0x1 PUSH1 0xA0 SHL SUB PUSH2 0x139E PUSH2 0x14F4 JUMP JUMPDEST AND PUSH1 0x0 MSTORE PUSH1 0x1 PUSH1 0x20 MSTORE PUSH1 0x40 PUSH1 0x0 KECCAK256 PUSH2 0x13B5 DUP2 PUSH2 0x1581 JUMP JUMPDEST PUSH2 0x13C1 PUSH1 0x1 DUP4 ADD PUSH2 0x1581 JUMP JUMPDEST SWAP2 PUSH2 0x13CE PUSH1 0x2 DUP3 ADD PUSH2 0x1581 JUMP JUMPDEST SWAP1 PUSH2 0x13DB PUSH1 0x3 DUP3 ADD PUSH2 0x1581 JUMP JUMPDEST PUSH2 0x13E7 PUSH1 0x4 DUP4 ADD PUSH2 0x1581 JUMP JUMPDEST PUSH2 0x13F3 PUSH1 0x5 DUP5 ADD PUSH2 0x1581 JUMP JUMPDEST PUSH2 0x13FF PUSH1 0x6 DUP6 ADD PUSH2 0x1581 JUMP JUMPDEST SWAP2 PUSH2 0x140C PUSH1 0x7 DUP7 ADD PUSH2 0x1581 JUMP JUMPDEST SWAP4 PUSH2 0x1419 PUSH1 0x8 DUP8 ADD PUSH2 0x1581 JUMP JUMPDEST SWAP6 PUSH1 0x9 ADD PUSH2 0x1426 SWAP1 PUSH2 0x1581 JUMP JUMPDEST SWAP7 PUSH1 0x40 MLOAD SWAP10 DUP11 SWAP10 PUSH2 0x140 DUP1 DUP13 MSTORE DUP12 ADD PUSH2 0x143E SWAP2 PUSH2 0x1627 JUMP JUMPDEST DUP11 DUP2 SUB PUSH1 0x20 DUP13 ADD MSTORE PUSH2 0x144F SWAP2 PUSH2 0x1627 JUMP JUMPDEST DUP10 DUP2 SUB PUSH1 0x40 DUP12 ADD MSTORE PUSH2 0x1460 SWAP2 PUSH2 0x1627 JUMP JUMPDEST DUP9 DUP2 SUB PUSH1 0x60 DUP11 ADD MSTORE PUSH2 0x1471 SWAP2 PUSH2 0x1627 JUMP JUMPDEST DUP8 DUP2 SUB PUSH1 0x80 DUP10 ADD MSTORE PUSH2 0x1482 SWAP2 PUSH2 0x1627 JUMP JUMPDEST DUP7 DUP2 SUB PUSH1 0xA0 DUP9 ADD MSTORE PUSH2 0x1493 SWAP2 PUSH2 0x1627 JUMP JUMPDEST DUP6 DUP2 SUB PUSH1 0xC0 DUP8 ADD MSTORE PUSH2 0x14A4 SWAP2 PUSH2 0x1627 JUMP JUMPDEST DUP5 DUP2 SUB PUSH1 0xE0 DUP7 ADD MSTORE PUSH2 0x14B5 SWAP2 PUSH2 0x1627 JUMP JUMPDEST DUP4 DUP2 SUB PUSH2 0x100 DUP6 ADD MSTORE PUSH2 0x14C7 SWAP2 PUSH2 0x1627 JUMP JUMPDEST DUP3 DUP2 SUB PUSH2 0x120 DUP5 ADD MSTORE PUSH2 0x1350 SWAP2 PUSH2 0x1627 JUMP JUMPDEST CALLVALUE PUSH2 0xA4 JUMPI PUSH1 0x0 CALLDATASIZE PUSH1 0x3 NOT ADD SLT PUSH2 0xA4 JUMPI PUSH1 0x20 SWAP1 PUSH1 0x2 SLOAD DUP2 MSTORE RETURN JUMPDEST PUSH1 0x4 CALLDATALOAD SWAP1 PUSH1 0x1 PUSH1 0x1 PUSH1 0xA0 SHL SUB DUP3 AND DUP3 SUB PUSH2 0xA4 JUMPI JUMP JUMPDEST SWAP1 PUSH1 0x1 DUP3 DUP2 SHR SWAP3 AND DUP1 ISZERO PUSH2 0x153A JUMPI JUMPDEST PUSH1 0x20 DUP4 LT EQ PUSH2 0x1524 JUMPI JUMP JUMPDEST PUSH4 0x4E487B71 PUSH1 0xE0 SHL PUSH1 0x0 MSTORE PUSH1 0x22 PUSH1 0x4 MSTORE PUSH1 0x24 PUSH1 0x0 REVERT JUMPDEST SWAP2 PUSH1 0x7F AND SWAP2 PUSH2 0x1519 JUMP JUMPDEST PUSH2 0x140 DUP2 ADD SWAP1 DUP2 LT PUSH1 0x1 PUSH1 0x1 PUSH1 0x40 SHL SUB DUP3 GT OR PUSH2 0x8D3 JUMPI PUSH1 0x40 MSTORE JUMP JUMPDEST SWAP1 PUSH1 0x1F DUP1 NOT SWAP2 ADD AND DUP2 ADD SWAP1 DUP2 LT PUSH1 0x1 PUSH1 0x1 PUSH1 0x40 SHL SUB DUP3 GT OR PUSH2 0x8D3 JUMPI PUSH1 0x40 MSTORE JUMP JUMPDEST SWAP1 PUSH1 0x40 MLOAD SWAP2 DUP3 PUSH1 0x0 DUP3 SLOAD SWAP3 PUSH2 0x1595 DUP5 PUSH2 0x150A JUMP JUMPDEST SWAP1 DUP2 DUP5 MSTORE PUSH1 0x1 SWAP5 DUP6 DUP2 AND SWAP1 DUP2 PUSH1 0x0 EQ PUSH2 0x1604 JUMPI POP PUSH1 0x1 EQ PUSH2 0x15C1 JUMPI JUMPDEST POP POP PUSH2 0x15BF SWAP3 POP SUB DUP4 PUSH2 0x1560 JUMP JUMPDEST JUMP JUMPDEST SWAP1 SWAP4 SWAP2 POP PUSH1 0x0 MSTORE PUSH1 0x20 SWAP1 DUP2 PUSH1 0x0 KECCAK256 SWAP4 PUSH1 0x0 SWAP2 JUMPDEST DUP2 DUP4 LT PUSH2 0x15EC JUMPI POP POP PUSH2 0x15BF SWAP4 POP DUP3 ADD ADD CODESIZE DUP1 PUSH2 0x15B1 JUMP JUMPDEST DUP6 SLOAD DUP9 DUP5 ADD DUP6 ADD MSTORE SWAP5 DUP6 ADD SWAP5 DUP8 SWAP5 POP SWAP2 DUP4 ADD SWAP2 PUSH2 0x15D4 JUMP JUMPDEST SWAP2 POP POP PUSH2 0x15BF SWAP5 POP PUSH1 0x20 SWAP3 POP PUSH1 0xFF NOT AND DUP3 DUP5 ADD MSTORE ISZERO ISZERO PUSH1 0x5 SHL DUP3 ADD ADD CODESIZE DUP1 PUSH2 0x15B1 JUMP JUMPDEST SWAP2 SWAP1 DUP3 MLOAD SWAP3 DUP4 DUP3 MSTORE PUSH1 0x0 JUMPDEST DUP5 DUP2 LT PUSH2 0x1653 JUMPI POP POP DUP3 PUSH1 0x0 PUSH1 0x20 DUP1 SWAP5 SWAP6 DUP5 ADD ADD MSTORE PUSH1 0x1F DUP1 NOT SWAP2 ADD AND ADD ADD SWAP1 JUMP JUMPDEST PUSH1 0x20 DUP2 DUP4 ADD DUP2 ADD MLOAD DUP5 DUP4 ADD DUP3 ADD MSTORE ADD PUSH2 0x1632 JUMP JUMPDEST SWAP2 DUP2 PUSH1 0x1F DUP5 ADD SLT ISZERO PUSH2 0xA4 JUMPI DUP3 CALLDATALOAD SWAP2 PUSH1 0x1 PUSH1 0x1 PUSH1 0x40 SHL SUB DUP4 GT PUSH2 0xA4 JUMPI PUSH1 0x20 DUP4 DUP2 DUP7 ADD SWAP6 ADD ADD GT PUSH2 0xA4 JUMPI JUMP JUMPDEST PUSH1 0x2 SLOAD DUP2 LT ISZERO PUSH2 0x16CB JUMPI PUSH1 0x2 PUSH1 0x0 MSTORE PUSH32 0x405787FA12A823E0F2B7631CC41B3BA8828B3321CA811111FA75CD3AA3BB5ACE ADD SWAP1 PUSH1 0x0 SWAP1 JUMP JUMPDEST PUSH4 0x4E487B71 PUSH1 0xE0 SHL PUSH1 0x0 MSTORE PUSH1 0x32 PUSH1 0x4 MSTORE PUSH1 0x24 PUSH1 0x0 REVERT JUMPDEST SWAP3 SWAP2 SWAP3 PUSH1 0x1 PUSH1 0x1 PUSH1 0x40 SHL SUB DUP3 GT PUSH2 0x8D3 JUMPI PUSH1 0x40 MLOAD SWAP2 PUSH2 0x170A PUSH1 0x1F DUP3 ADD PUSH1 0x1F NOT AND PUSH1 0x20 ADD DUP5 PUSH2 0x1560 JUMP JUMPDEST DUP3 SWAP5 DUP2 DUP5 MSTORE DUP2 DUP4 ADD GT PUSH2 0xA4 JUMPI DUP3 DUP2 PUSH1 0x20 SWAP4 DUP5 PUSH1 0x0 SWAP7 ADD CALLDATACOPY ADD ADD MSTORE JUMP JUMPDEST SWAP1 DUP1 PUSH1 0x20 SWAP4 SWAP3 DUP2 DUP5 MSTORE DUP5 DUP5 ADD CALLDATACOPY PUSH1 0x0 DUP3 DUP3 ADD DUP5 ADD MSTORE PUSH1 0x1F ADD PUSH1 0x1F NOT AND ADD ADD SWAP1 JUMP INVALID LOG2 PUSH5 0x6970667358 0x22 SLT KECCAK256 SWAP10 BYTE SUB SWAP8 SSTORE 0xC8 SUB DUP16 SLT 0xD5 PUSH26 0x4AEC19C153A859990D410CABD8557F2394E08A084864736F6C63 NUMBER STOP ADDMOD EQ STOP CALLER "},"methodIdentifiers":{"apprentices(uint256)":"f31bee3e","getSummons(address)":"cf84c603","steward()":"637eea19","summonApprentice(address,string,string,string,string,string,string,string,string,string,string)":"dbb94f36","summons(address)":"5a2ed662","totalSummons()":"2a17d4cd"}}}}}