{"contracts/registry/CompanionSummonerXI.sol":{"CompanionSummonerXI":{"abi":[{"inputs":[],"stateMutability":"nonpayable","type":"constructor"},{"anonymous":false,"inputs":[{"indexed":true,"internalType":"address","name":"companion","type":"address"},{"indexed":false,"internalType":"string","name":"name","type":"string"},{"indexed":false,"internalType":"string","name":"trait","type":"string"},{"indexed":false,"internalType":"string","name":"drift","type":"string"},{"indexed":false,"internalType":"string","name":"resonance","type":"string"},{"indexed":false,"internalType":"string","name":"codexRef","type":"string"},{"indexed":false,"internalType":"string","name":"signature","type":"string"},{"indexed":false,"internalType":"string","name":"sanctum","type":"string"},{"indexed":false,"internalType":"string","name":"chant","type":"string"},{"indexed":false,"internalType":"string","name":"choreography","type":"string"}],"name":"CompanionSummoned","type":"event"},{"inputs":[{"internalType":"address","name":"","type":"address"}],"name":"companions","outputs":[{"internalType":"string","name":"name","type":"string"},{"internalType":"string","name":"trait","type":"string"},{"internalType":"string","name":"drift","type":"string"},{"internalType":"string","name":"resonance","type":"string"},{"internalType":"string","name":"codexRef","type":"string"},{"internalType":"string","name":"signature","type":"string"},{"internalType":"string","name":"sanctum","type":"string"},{"internalType":"string","name":"chant","type":"string"},{"internalType":"string","name":"choreography","type":"string"}],"stateMutability":"view","type":"function"},{"inputs":[{"internalType":"address","name":"companion","type":"address"}],"name":"getCompanion","outputs":[{"components":[{"internalType":"string","name":"name","type":"string"},{"internalType":"string","name":"trait","type":"string"},{"internalType":"string","name":"drift","type":"string"},{"internalType":"string","name":"resonance","type":"string"},{"internalType":"string","name":"codexRef","type":"string"},{"internalType":"string","name":"signature","type":"string"},{"internalType":"string","name":"sanctum","type":"string"},{"internalType":"string","name":"chant","type":"string"},{"internalType":"string","name":"choreography","type":"string"}],"internalType":"struct CompanionSummonerXI.Companion","name":"","type":"tuple"}],"stateMutability":"view","type":"function"},{"inputs":[{"internalType":"uint256","name":"","type":"uint256"}],"name":"keys","outputs":[{"internalType":"address","name":"","type":"address"}],"stateMutability":"view","type":"function"},{"inputs":[],"name":"steward","outputs":[{"internalType":"address","name":"","type":"address"}],"stateMutability":"view","type":"function"},{"inputs":[{"internalType":"address","name":"companion","type":"address"},{"internalType":"string","name":"name","type":"string"},{"internalType":"string","name":"trait","type":"string"},{"internalType":"string","name":"drift","type":"string"},{"internalType":"string","name":"resonance","type":"string"},{"internalType":"string","name":"codexRef","type":"string"},{"internalType":"string","name":"signature","type":"string"},{"internalType":"string","name":"sanctum","type":"string"},{"internalType":"string","name":"chant","type":"string"},{"internalType":"string","name":"choreography","type":"string"}],"name":"summonCompanion","outputs":[],"stateMutability":"nonpayable","type":"function"},{"inputs":[],"name":"totalCompanions","outputs":[{"internalType":"uint256","name":"","type":"uint256"}],"stateMutability":"view","type":"function"}],"evm":{"bytecode":{"linkReferences":{},"object":"6080806040523461002857600080546001600160a01b0319163317905561158d908161002e8239f35b600080fdfe610320604052600436101561001357600080fd5b60003560e01c80630cb6aaf1146112c157806347854b8714611183578063637eea191461115a578063ec39f18f1461113c578063ecefe5381461025f5763ef6527371461005f57600080fd5b3461025a5760208060031936011261025a57610079611350565b90604051610086816113a0565b606092838252838383015283604083015283808301528360808301528360a08301528360c08301528360e08301528361010080930152600160a01b600190031660005260018252604060002092604051926100e0846113a0565b6100e9856113dd565b84526100f7600186016113dd565b8482019081529261010a600287016113dd565b604086019081529561011e600382016113dd565b868501908152610130600483016113dd565b60808801908152610143600584016113dd565b60a0890190815290610157600685016113dd565b60c08a019081529261016b600786016113dd565b9460e08b0195865260080161017f906113dd565b97868b019889526040519b8c9b898d52518c6101209a8b9101526101408d016101a791611483565b9a51601f198d8d03810160408f01529b6101c091611483565b9051918b8d830301908d01526101d591611483565b905190898b82030160808c01526101eb91611483565b905190888a82030160a08b015261020191611483565b905190878982030160c08a015261021791611483565b905190868882030160e089015261022d91611483565b90519185878303019087015261024291611483565b915192848303019084015261025691611483565b0390f35b600080fd5b3461025a5761014036600319011261025a57610279611350565b6101e0526024356001600160401b03811161025a5761029c9036906004016114c3565b6103005260a0526044356001600160401b03811161025a576102c29036906004016114c3565b60c052610180526064356001600160401b03811161025a576102e89036906004016114c3565b610100526102a0526084356001600160401b03811161025a5761030f9036906004016114c3565b610120526102005260a4356001600160401b03811161025a576103369036906004016114c3565b60805260e05260c4356001600160401b03811161025a5761035b9036906004016114c3565b610220526101a05260e4356001600160401b03811161025a576103829036906004016114c3565b61024052610260526001600160401b03610104351161025a576103ab36610104356004016114c3565b610160526102e0526001600160401b03610124351161025a576103d436610124356004016114c3565b6101c052610280526000546001600160a01b03163303611109576103fe604051806102c0526113a0565b61040e366103005160a0516114f0565b6102c051526104233660c051610180516114f0565b60206102c051015261043c36610100516102a0516114f0565b60406102c05101526104553661012051610200516114f0565b60606102c051015261046c3660805160e0516114f0565b60806102c051015261048536610220516101a0516114f0565b60a06102c051015261049e3661024051610260516114f0565b60c06102c05101526104b736610160516102e0516114f0565b60e06102c05101526104d0366101c051610280516114f0565b6101006102c051015260018060a01b036101e05116600052600160205260406000206102c051519081516001600160401b0381116109cf576105128254611366565b601f81116110c5575b506020601f821160011461106057819293600092611055575b50508160011b916000199060031b1c19161781555b60206102c05101518051906001600160401b0382116109cf5781906105716001850154611366565b601f8111611002575b50602090601f8311600114610f9057600092610f85575b50508160011b916000199060031b1c19161760018201555b60406102c05101518051906001600160401b0382116109cf5781906105d16002850154611366565b601f8111610f32575b50602090601f8311600114610ec057600092610eb5575b50508160011b916000199060031b1c19161760028201555b60606102c05101518051906001600160401b0382116109cf5781906106316003850154611366565b601f8111610e62575b50602090601f8311600114610df057600092610de5575b50508160011b916000199060031b1c19161760038201555b60806102c05101518051906001600160401b0382116109cf5781906106916004850154611366565b601f8111610d92575b50602090601f8311600114610d2057600092610d15575b50508160011b916000199060031b1c19161760048201555b60a06102c05101518051906001600160401b0382116109cf5781906106f16005850154611366565b601f8111610cc2575b50602090601f8311600114610c5057600092610c45575b50508160011b916000199060031b1c19161760058201555b60c06102c05101518051906001600160401b0382116109cf5781906107516006850154611366565b601f8111610bf2575b50602090601f8311600114610b8057600092610b75575b50508160011b916000199060031b1c19161760068201555b60e06102c05101518051906001600160401b0382116109cf5781906107b16007850154611366565b601f8111610b22575b50602090601f8311600114610ab057600092610aa5575b50508160011b916000199060031b1c19161760078201555b6101006102c05101518051906001600160401b0382116109cf576108106008840154611366565b601f8111610a5e575b50602090601f83116001146109f05760089291600091836109e5575b50508160011b916000199060031b1c1916179101555b600254680100000000000000008110156109cf5780600161086f9201600255611303565b81549060031b9060018060a01b036101e05116821b9160018060a01b03901b191617905561012060405180610140525261097761095e61094561092c6109156108fc6108e36108cb61012061014051016103005160a051611536565b61014051602081830391015260c05161018051611536565b610140516040818303910152610100516102a051611536565b6101405160608183039101526101205161020051611536565b61014051608081830391015260805160e051611536565b6101405160a0818303910152610220516101a051611536565b6101405160c08183039101526102405161026051611536565b6101405160e0818303910152610160516102e051611536565b610140516101008183039101527fef488ea6a5f1deb172a481865df47bc2bb09bae6f941a13118d6c6b7d1a19e4460018060a01b036101e05116916109c761014051916101c05161028051611536565b0361014051a2005b634e487b7160e01b600052604160045260246000fd5b015190508480610835565b90601f198316916008850160005260206000209260005b818110610a4657509160019391856008969410610a2d575b505050811b0191015561084b565b015160001960f88460031b161c19169055848080610a1f565b92936020600181928786015181550195019301610a07565b600884016000526020600020601f840160051c810160208510610a9e575b601f830160051c82018110610a92575050610819565b60008155600101610a7c565b5080610a7c565b0151905083806107d1565b9250600784016000526020600020906000935b601f1984168510610b07576001945083601f19811610610aee575b505050811b0160078201556107e9565b015160001960f88460031b161c19169055838080610ade565b81810151835560209485019460019093019290910190610ac3565b909150600784016000526020600020601f840160051c810160208510610b6e575b90849392915b601f830160051c82018110610b5f5750506107ba565b60008155859450600101610b49565b5080610b43565b015190508380610771565b9250600684016000526020600020906000935b601f1984168510610bd7576001945083601f19811610610bbe575b505050811b016006820155610789565b015160001960f88460031b161c19169055838080610bae565b81810151835560209485019460019093019290910190610b93565b909150600684016000526020600020601f840160051c810160208510610c3e575b90849392915b601f830160051c82018110610c2f57505061075a565b60008155859450600101610c19565b5080610c13565b015190508380610711565b9250600584016000526020600020906000935b601f1984168510610ca7576001945083601f19811610610c8e575b505050811b016005820155610729565b015160001960f88460031b161c19169055838080610c7e565b81810151835560209485019460019093019290910190610c63565b909150600584016000526020600020601f840160051c810160208510610d0e575b90849392915b601f830160051c82018110610cff5750506106fa565b60008155859450600101610ce9565b5080610ce3565b0151905083806106b1565b9250600484016000526020600020906000935b601f1984168510610d77576001945083601f19811610610d5e575b505050811b0160048201556106c9565b015160001960f88460031b161c19169055838080610d4e565b81810151835560209485019460019093019290910190610d33565b909150600484016000526020600020601f840160051c810160208510610dde575b90849392915b601f830160051c82018110610dcf57505061069a565b60008155859450600101610db9565b5080610db3565b015190508380610651565b9250600384016000526020600020906000935b601f1984168510610e47576001945083601f19811610610e2e575b505050811b016003820155610669565b015160001960f88460031b161c19169055838080610e1e565b81810151835560209485019460019093019290910190610e03565b909150600384016000526020600020601f840160051c810160208510610eae575b90849392915b601f830160051c82018110610e9f57505061063a565b60008155859450600101610e89565b5080610e83565b0151905083806105f1565b9250600284016000526020600020906000935b601f1984168510610f17576001945083601f19811610610efe575b505050811b016002820155610609565b015160001960f88460031b161c19169055838080610eee565b81810151835560209485019460019093019290910190610ed3565b909150600284016000526020600020601f840160051c810160208510610f7e575b90849392915b601f830160051c82018110610f6f5750506105da565b60008155859450600101610f59565b5080610f53565b015190508380610591565b9250600184016000526020600020906000935b601f1984168510610fe7576001945083601f19811610610fce575b505050811b0160018201556105a9565b015160001960f88460031b161c19169055838080610fbe565b81810151835560209485019460019093019290910190610fa3565b909150600184016000526020600020601f840160051c81016020851061104e575b90849392915b601f830160051c8201811061103f57505061057a565b60008155859450600101611029565b5080611023565b015190508380610534565b82600052602060002090600094601f198416955b8681106110ad5750836001959610611094575b505050811b018155610549565b015160001960f88460031b161c19169055838080611087565b91926020600181928685015181550194019201611074565b826000526020600020601f830160051c810160208410611102575b601f830160051c820181106110f657505061051b565b600081556001016110e0565b50806110e0565b60405162461bcd60e51b815260206004820152600b60248201526a139bdd081cdd195dd85c9960aa1b6044820152606490fd5b3461025a57600036600319011261025a576020600254604051908152f35b3461025a57600036600319011261025a576000546040516001600160a01b039091168152602090f35b3461025a57602036600319011261025a576001600160a01b036111a4611350565b16600052600160205260406000206111bb816113dd565b6111c7600183016113dd565b916111d4600282016113dd565b906111e1600382016113dd565b6111ed600483016113dd565b6111f9600584016113dd565b90611206600685016113dd565b92611213600786016113dd565b94600801611220906113dd565b95604051988998610120808b528a0161123891611483565b89810360208b015261124991611483565b88810360408a015261125a91611483565b878103606089015261126b91611483565b868103608088015261127c91611483565b85810360a087015261128d91611483565b84810360c086015261129e91611483565b83810360e08501526112af91611483565b82810361010084015261025691611483565b3461025a57602036600319011261025a5760043560025481101561025a576112ea602091611303565b905460405160039290921b1c6001600160a01b03168152f35b60025481101561133a5760026000527f405787fa12a823e0f2b7631cc41b3ba8828b3321ca811111fa75cd3aa3bb5ace0190600090565b634e487b7160e01b600052603260045260246000fd5b600435906001600160a01b038216820361025a57565b90600182811c92168015611396575b602083101461138057565b634e487b7160e01b600052602260045260246000fd5b91607f1691611375565b61012081019081106001600160401b038211176109cf57604052565b90601f801991011681019081106001600160401b038211176109cf57604052565b90604051918260008254926113f184611366565b908184526001948581169081600014611460575060011461141d575b505061141b925003836113bc565b565b9093915060005260209081600020936000915b81831061144857505061141b9350820101388061140d565b85548884018501529485019487945091830191611430565b91505061141b94506020925060ff191682840152151560051b820101388061140d565b919082519283825260005b8481106114af575050826000602080949584010152601f8019910116010190565b60208183018101518483018201520161148e565b9181601f8401121561025a578235916001600160401b03831161025a576020838186019501011161025a57565b9291926001600160401b0382116109cf5760405191611519601f8201601f1916602001846113bc565b82948184528183011161025a578281602093846000960137010152565b908060209392818452848401376000828201840152601f01601f191601019056fea2646970667358221220c1e12bdfc8213d643bece55728dae21b729bf00299bba3ee13b3309e1be84fab64736f6c63430008140033","opcodes":"PUSH1 0x80 DUP1 PUSH1 0x40 MSTORE CALLVALUE PUSH2 0x28 JUMPI PUSH1 0x0 DUP1 SLOAD PUSH1 0x1 PUSH1 0x1 PUSH1 0xA0 SHL SUB NOT AND CALLER OR SWAP1 SSTORE PUSH2 0x158D SWAP1 DUP2 PUSH2 0x2E DUP3 CODECOPY RETURN JUMPDEST PUSH1 0x0 DUP1 REVERT INVALID PUSH2 0x320 PUSH1 0x40 MSTORE PUSH1 0x4 CALLDATASIZE LT ISZERO PUSH2 0x13 JUMPI PUSH1 0x0 DUP1 REVERT JUMPDEST PUSH1 0x0 CALLDATALOAD PUSH1 0xE0 SHR DUP1 PUSH4 0xCB6AAF1 EQ PUSH2 0x12C1 JUMPI DUP1 PUSH4 0x47854B87 EQ PUSH2 0x1183 JUMPI DUP1 PUSH4 0x637EEA19 EQ PUSH2 0x115A JUMPI DUP1 PUSH4 0xEC39F18F EQ PUSH2 0x113C JUMPI DUP1 PUSH4 0xECEFE538 EQ PUSH2 0x25F JUMPI PUSH4 0xEF652737 EQ PUSH2 0x5F JUMPI PUSH1 0x0 DUP1 REVERT JUMPDEST CALLVALUE PUSH2 0x25A JUMPI PUSH1 0x20 DUP1 PUSH1 0x3 NOT CALLDATASIZE ADD SLT PUSH2 0x25A JUMPI PUSH2 0x79 PUSH2 0x1350 JUMP JUMPDEST SWAP1 PUSH1 0x40 MLOAD PUSH2 0x86 DUP2 PUSH2 0x13A0 JUMP JUMPDEST PUSH1 0x60 SWAP3 DUP4 DUP3 MSTORE DUP4 DUP4 DUP4 ADD MSTORE DUP4 PUSH1 0x40 DUP4 ADD MSTORE DUP4 DUP1 DUP4 ADD MSTORE DUP4 PUSH1 0x80 DUP4 ADD MSTORE DUP4 PUSH1 0xA0 DUP4 ADD MSTORE DUP4 PUSH1 0xC0 DUP4 ADD MSTORE DUP4 PUSH1 0xE0 DUP4 ADD MSTORE DUP4 PUSH2 0x100 DUP1 SWAP4 ADD MSTORE PUSH1 0x1 PUSH1 0xA0 SHL PUSH1 0x1 SWAP1 SUB AND PUSH1 0x0 MSTORE PUSH1 0x1 DUP3 MSTORE PUSH1 0x40 PUSH1 0x0 KECCAK256 SWAP3 PUSH1 0x40 MLOAD SWAP3 PUSH2 0xE0 DUP5 PUSH2 0x13A0 JUMP JUMPDEST PUSH2 0xE9 DUP6 PUSH2 0x13DD JUMP JUMPDEST DUP5 MSTORE PUSH2 0xF7 PUSH1 0x1 DUP7 ADD PUSH2 0x13DD JUMP JUMPDEST DUP5 DUP3 ADD SWAP1 DUP2 MSTORE SWAP3 PUSH2 0x10A PUSH1 0x2 DUP8 ADD PUSH2 0x13DD JUMP JUMPDEST PUSH1 0x40 DUP7 ADD SWAP1 DUP2 MSTORE SWAP6 PUSH2 0x11E PUSH1 0x3 DUP3 ADD PUSH2 0x13DD JUMP JUMPDEST DUP7 DUP6 ADD SWAP1 DUP2 MSTORE PUSH2 0x130 PUSH1 0x4 DUP4 ADD PUSH2 0x13DD JUMP JUMPDEST PUSH1 0x80 DUP9 ADD SWAP1 DUP2 MSTORE PUSH2 0x143 PUSH1 0x5 DUP5 ADD PUSH2 0x13DD JUMP JUMPDEST PUSH1 0xA0 DUP10 ADD SWAP1 DUP2 MSTORE SWAP1 PUSH2 0x157 PUSH1 0x6 DUP6 ADD PUSH2 0x13DD JUMP JUMPDEST PUSH1 0xC0 DUP11 ADD SWAP1 DUP2 MSTORE SWAP3 PUSH2 0x16B PUSH1 0x7 DUP7 ADD PUSH2 0x13DD JUMP JUMPDEST SWAP5 PUSH1 0xE0 DUP12 ADD SWAP6 DUP7 MSTORE PUSH1 0x8 ADD PUSH2 0x17F SWAP1 PUSH2 0x13DD JUMP JUMPDEST SWAP8 DUP7 DUP12 ADD SWAP9 DUP10 MSTORE PUSH1 0x40 MLOAD SWAP12 DUP13 SWAP12 DUP10 DUP14 MSTORE MLOAD DUP13 PUSH2 0x120 SWAP11 DUP12 SWAP2 ADD MSTORE PUSH2 0x140 DUP14 ADD PUSH2 0x1A7 SWAP2 PUSH2 0x1483 JUMP JUMPDEST SWAP11 MLOAD PUSH1 0x1F NOT DUP14 DUP14 SUB DUP2 ADD PUSH1 0x40 DUP16 ADD MSTORE SWAP12 PUSH2 0x1C0 SWAP2 PUSH2 0x1483 JUMP JUMPDEST SWAP1 MLOAD SWAP2 DUP12 DUP14 DUP4 SUB ADD SWAP1 DUP14 ADD MSTORE PUSH2 0x1D5 SWAP2 PUSH2 0x1483 JUMP JUMPDEST SWAP1 MLOAD SWAP1 DUP10 DUP12 DUP3 SUB ADD PUSH1 0x80 DUP13 ADD MSTORE PUSH2 0x1EB SWAP2 PUSH2 0x1483 JUMP JUMPDEST SWAP1 MLOAD SWAP1 DUP9 DUP11 DUP3 SUB ADD PUSH1 0xA0 DUP12 ADD MSTORE PUSH2 0x201 SWAP2 PUSH2 0x1483 JUMP JUMPDEST SWAP1 MLOAD SWAP1 DUP8 DUP10 DUP3 SUB ADD PUSH1 0xC0 DUP11 ADD MSTORE PUSH2 0x217 SWAP2 PUSH2 0x1483 JUMP JUMPDEST SWAP1 MLOAD SWAP1 DUP7 DUP9 DUP3 SUB ADD PUSH1 0xE0 DUP10 ADD MSTORE PUSH2 0x22D SWAP2 PUSH2 0x1483 JUMP JUMPDEST SWAP1 MLOAD SWAP2 DUP6 DUP8 DUP4 SUB ADD SWAP1 DUP8 ADD MSTORE PUSH2 0x242 SWAP2 PUSH2 0x1483 JUMP JUMPDEST SWAP2 MLOAD SWAP3 DUP5 DUP4 SUB ADD SWAP1 DUP5 ADD MSTORE PUSH2 0x256 SWAP2 PUSH2 0x1483 JUMP JUMPDEST SUB SWAP1 RETURN JUMPDEST PUSH1 0x0 DUP1 REVERT JUMPDEST CALLVALUE PUSH2 0x25A JUMPI PUSH2 0x140 CALLDATASIZE PUSH1 0x3 NOT ADD SLT PUSH2 0x25A JUMPI PUSH2 0x279 PUSH2 0x1350 JUMP JUMPDEST PUSH2 0x1E0 MSTORE PUSH1 0x24 CALLDATALOAD PUSH1 0x1 PUSH1 0x1 PUSH1 0x40 SHL SUB DUP2 GT PUSH2 0x25A JUMPI PUSH2 0x29C SWAP1 CALLDATASIZE SWAP1 PUSH1 0x4 ADD PUSH2 0x14C3 JUMP JUMPDEST PUSH2 0x300 MSTORE PUSH1 0xA0 MSTORE PUSH1 0x44 CALLDATALOAD PUSH1 0x1 PUSH1 0x1 PUSH1 0x40 SHL SUB DUP2 GT PUSH2 0x25A JUMPI PUSH2 0x2C2 SWAP1 CALLDATASIZE SWAP1 PUSH1 0x4 ADD PUSH2 0x14C3 JUMP JUMPDEST PUSH1 0xC0 MSTORE PUSH2 0x180 MSTORE PUSH1 0x64 CALLDATALOAD PUSH1 0x1 PUSH1 0x1 PUSH1 0x40 SHL SUB DUP2 GT PUSH2 0x25A JUMPI PUSH2 0x2E8 SWAP1 CALLDATASIZE SWAP1 PUSH1 0x4 ADD PUSH2 0x14C3 JUMP JUMPDEST PUSH2 0x100 MSTORE PUSH2 0x2A0 MSTORE PUSH1 0x84 CALLDATALOAD PUSH1 0x1 PUSH1 0x1 PUSH1 0x40 SHL SUB DUP2 GT PUSH2 0x25A JUMPI PUSH2 0x30F SWAP1 CALLDATASIZE SWAP1 PUSH1 0x4 ADD PUSH2 0x14C3 JUMP JUMPDEST PUSH2 0x120 MSTORE PUSH2 0x200 MSTORE PUSH1 0xA4 CALLDATALOAD PUSH1 0x1 PUSH1 0x1 PUSH1 0x40 SHL SUB DUP2 GT PUSH2 0x25A JUMPI PUSH2 0x336 SWAP1 CALLDATASIZE SWAP1 PUSH1 0x4 ADD PUSH2 0x14C3 JUMP JUMPDEST PUSH1 0x80 MSTORE PUSH1 0xE0 MSTORE PUSH1 0xC4 CALLDATALOAD PUSH1 0x1 PUSH1 0x1 PUSH1 0x40 SHL SUB DUP2 GT PUSH2 0x25A JUMPI PUSH2 0x35B SWAP1 CALLDATASIZE SWAP1 PUSH1 0x4 ADD PUSH2 0x14C3 JUMP JUMPDEST PUSH2 0x220 MSTORE PUSH2 0x1A0 MSTORE PUSH1 0xE4 CALLDATALOAD PUSH1 0x1 PUSH1 0x1 PUSH1 0x40 SHL SUB DUP2 GT PUSH2 0x25A JUMPI PUSH2 0x382 SWAP1 CALLDATASIZE SWAP1 PUSH1 0x4 ADD PUSH2 0x14C3 JUMP JUMPDEST PUSH2 0x240 MSTORE PUSH2 0x260 MSTORE PUSH1 0x1 PUSH1 0x1 PUSH1 0x40 SHL SUB PUSH2 0x104 CALLDATALOAD GT PUSH2 0x25A JUMPI PUSH2 0x3AB CALLDATASIZE PUSH2 0x104 CALLDATALOAD PUSH1 0x4 ADD PUSH2 0x14C3 JUMP JUMPDEST PUSH2 0x160 MSTORE PUSH2 0x2E0 MSTORE PUSH1 0x1 PUSH1 0x1 PUSH1 0x40 SHL SUB PUSH2 0x124 CALLDATALOAD GT PUSH2 0x25A JUMPI PUSH2 0x3D4 CALLDATASIZE PUSH2 0x124 CALLDATALOAD PUSH1 0x4 ADD PUSH2 0x14C3 JUMP JUMPDEST PUSH2 0x1C0 MSTORE PUSH2 0x280 MSTORE PUSH1 0x0 SLOAD PUSH1 0x1 PUSH1 0x1 PUSH1 0xA0 SHL SUB AND CALLER SUB PUSH2 0x1109 JUMPI PUSH2 0x3FE PUSH1 0x40 MLOAD DUP1 PUSH2 0x2C0 MSTORE PUSH2 0x13A0 JUMP JUMPDEST PUSH2 0x40E CALLDATASIZE PUSH2 0x300 MLOAD PUSH1 0xA0 MLOAD PUSH2 0x14F0 JUMP JUMPDEST PUSH2 0x2C0 MLOAD MSTORE PUSH2 0x423 CALLDATASIZE PUSH1 0xC0 MLOAD PUSH2 0x180 MLOAD PUSH2 0x14F0 JUMP JUMPDEST PUSH1 0x20 PUSH2 0x2C0 MLOAD ADD MSTORE PUSH2 0x43C CALLDATASIZE PUSH2 0x100 MLOAD PUSH2 0x2A0 MLOAD PUSH2 0x14F0 JUMP JUMPDEST PUSH1 0x40 PUSH2 0x2C0 MLOAD ADD MSTORE PUSH2 0x455 CALLDATASIZE PUSH2 0x120 MLOAD PUSH2 0x200 MLOAD PUSH2 0x14F0 JUMP JUMPDEST PUSH1 0x60 PUSH2 0x2C0 MLOAD ADD MSTORE PUSH2 0x46C CALLDATASIZE PUSH1 0x80 MLOAD PUSH1 0xE0 MLOAD PUSH2 0x14F0 JUMP JUMPDEST PUSH1 0x80 PUSH2 0x2C0 MLOAD ADD MSTORE PUSH2 0x485 CALLDATASIZE PUSH2 0x220 MLOAD PUSH2 0x1A0 MLOAD PUSH2 0x14F0 JUMP JUMPDEST PUSH1 0xA0 PUSH2 0x2C0 MLOAD ADD MSTORE PUSH2 0x49E CALLDATASIZE PUSH2 0x240 MLOAD PUSH2 0x260 MLOAD PUSH2 0x14F0 JUMP JUMPDEST PUSH1 0xC0 PUSH2 0x2C0 MLOAD ADD MSTORE PUSH2 0x4B7 CALLDATASIZE PUSH2 0x160 MLOAD PUSH2 0x2E0 MLOAD PUSH2 0x14F0 JUMP JUMPDEST PUSH1 0xE0 PUSH2 0x2C0 MLOAD ADD MSTORE PUSH2 0x4D0 CALLDATASIZE PUSH2 0x1C0 MLOAD PUSH2 0x280 MLOAD PUSH2 0x14F0 JUMP JUMPDEST PUSH2 0x100 PUSH2 0x2C0 MLOAD ADD MSTORE PUSH1 0x1 DUP1 PUSH1 0xA0 SHL SUB PUSH2 0x1E0 MLOAD AND PUSH1 0x0 MSTORE PUSH1 0x1 PUSH1 0x20 MSTORE PUSH1 0x40 PUSH1 0x0 KECCAK256 PUSH2 0x2C0 MLOAD MLOAD SWAP1 DUP2 MLOAD PUSH1 0x1 PUSH1 0x1 PUSH1 0x40 SHL SUB DUP2 GT PUSH2 0x9CF JUMPI PUSH2 0x512 DUP3 SLOAD PUSH2 0x1366 JUMP JUMPDEST PUSH1 0x1F DUP2 GT PUSH2 0x10C5 JUMPI JUMPDEST POP PUSH1 0x20 PUSH1 0x1F DUP3 GT PUSH1 0x1 EQ PUSH2 0x1060 JUMPI DUP2 SWAP3 SWAP4 PUSH1 0x0 SWAP3 PUSH2 0x1055 JUMPI JUMPDEST POP POP DUP2 PUSH1 0x1 SHL SWAP2 PUSH1 0x0 NOT SWAP1 PUSH1 0x3 SHL SHR NOT AND OR DUP2 SSTORE JUMPDEST PUSH1 0x20 PUSH2 0x2C0 MLOAD ADD MLOAD DUP1 MLOAD SWAP1 PUSH1 0x1 PUSH1 0x1 PUSH1 0x40 SHL SUB DUP3 GT PUSH2 0x9CF JUMPI DUP2 SWAP1 PUSH2 0x571 PUSH1 0x1 DUP6 ADD SLOAD PUSH2 0x1366 JUMP JUMPDEST PUSH1 0x1F DUP2 GT PUSH2 0x1002 JUMPI JUMPDEST POP PUSH1 0x20 SWAP1 PUSH1 0x1F DUP4 GT PUSH1 0x1 EQ PUSH2 0xF90 JUMPI PUSH1 0x0 SWAP3 PUSH2 0xF85 JUMPI JUMPDEST POP POP DUP2 PUSH1 0x1 SHL SWAP2 PUSH1 0x0 NOT SWAP1 PUSH1 0x3 SHL SHR NOT AND OR PUSH1 0x1 DUP3 ADD SSTORE JUMPDEST PUSH1 0x40 PUSH2 0x2C0 MLOAD ADD MLOAD DUP1 MLOAD SWAP1 PUSH1 0x1 PUSH1 0x1 PUSH1 0x40 SHL SUB DUP3 GT PUSH2 0x9CF JUMPI DUP2 SWAP1 PUSH2 0x5D1 PUSH1 0x2 DUP6 ADD SLOAD PUSH2 0x1366 JUMP JUMPDEST PUSH1 0x1F DUP2 GT PUSH2 0xF32 JUMPI JUMPDEST POP PUSH1 0x20 SWAP1 PUSH1 0x1F DUP4 GT PUSH1 0x1 EQ PUSH2 0xEC0 JUMPI PUSH1 0x0 SWAP3 PUSH2 0xEB5 JUMPI JUMPDEST POP POP DUP2 PUSH1 0x1 SHL SWAP2 PUSH1 0x0 NOT SWAP1 PUSH1 0x3 SHL SHR NOT AND OR PUSH1 0x2 DUP3 ADD SSTORE JUMPDEST PUSH1 0x60 PUSH2 0x2C0 MLOAD ADD MLOAD DUP1 MLOAD SWAP1 PUSH1 0x1 PUSH1 0x1 PUSH1 0x40 SHL SUB DUP3 GT PUSH2 0x9CF JUMPI DUP2 SWAP1 PUSH2 0x631 PUSH1 0x3 DUP6 ADD SLOAD PUSH2 0x1366 JUMP JUMPDEST PUSH1 0x1F DUP2 GT PUSH2 0xE62 JUMPI JUMPDEST POP PUSH1 0x20 SWAP1 PUSH1 0x1F DUP4 GT PUSH1 0x1 EQ PUSH2 0xDF0 JUMPI PUSH1 0x0 SWAP3 PUSH2 0xDE5 JUMPI JUMPDEST POP POP DUP2 PUSH1 0x1 SHL SWAP2 PUSH1 0x0 NOT SWAP1 PUSH1 0x3 SHL SHR NOT AND OR PUSH1 0x3 DUP3 ADD SSTORE JUMPDEST PUSH1 0x80 PUSH2 0x2C0 MLOAD ADD MLOAD DUP1 MLOAD SWAP1 PUSH1 0x1 PUSH1 0x1 PUSH1 0x40 SHL SUB DUP3 GT PUSH2 0x9CF JUMPI DUP2 SWAP1 PUSH2 0x691 PUSH1 0x4 DUP6 ADD SLOAD PUSH2 0x1366 JUMP JUMPDEST PUSH1 0x1F DUP2 GT PUSH2 0xD92 JUMPI JUMPDEST POP PUSH1 0x20 SWAP1 PUSH1 0x1F DUP4 GT PUSH1 0x1 EQ PUSH2 0xD20 JUMPI PUSH1 0x0 SWAP3 PUSH2 0xD15 JUMPI JUMPDEST POP POP DUP2 PUSH1 0x1 SHL SWAP2 PUSH1 0x0 NOT SWAP1 PUSH1 0x3 SHL SHR NOT AND OR PUSH1 0x4 DUP3 ADD SSTORE JUMPDEST PUSH1 0xA0 PUSH2 0x2C0 MLOAD ADD MLOAD DUP1 MLOAD SWAP1 PUSH1 0x1 PUSH1 0x1 PUSH1 0x40 SHL SUB DUP3 GT PUSH2 0x9CF JUMPI DUP2 SWAP1 PUSH2 0x6F1 PUSH1 0x5 DUP6 ADD SLOAD PUSH2 0x1366 JUMP JUMPDEST PUSH1 0x1F DUP2 GT PUSH2 0xCC2 JUMPI JUMPDEST POP PUSH1 0x20 SWAP1 PUSH1 0x1F DUP4 GT PUSH1 0x1 EQ PUSH2 0xC50 JUMPI PUSH1 0x0 SWAP3 PUSH2 0xC45 JUMPI JUMPDEST POP POP DUP2 PUSH1 0x1 SHL SWAP2 PUSH1 0x0 NOT SWAP1 PUSH1 0x3 SHL SHR NOT AND OR PUSH1 0x5 DUP3 ADD SSTORE JUMPDEST PUSH1 0xC0 PUSH2 0x2C0 MLOAD ADD MLOAD DUP1 MLOAD SWAP1 PUSH1 0x1 PUSH1 0x1 PUSH1 0x40 SHL SUB DUP3 GT PUSH2 0x9CF JUMPI DUP2 SWAP1 PUSH2 0x751 PUSH1 0x6 DUP6 ADD SLOAD PUSH2 0x1366 JUMP JUMPDEST PUSH1 0x1F DUP2 GT PUSH2 0xBF2 JUMPI JUMPDEST POP PUSH1 0x20 SWAP1 PUSH1 0x1F DUP4 GT PUSH1 0x1 EQ PUSH2 0xB80 JUMPI PUSH1 0x0 SWAP3 PUSH2 0xB75 JUMPI JUMPDEST POP POP DUP2 PUSH1 0x1 SHL SWAP2 PUSH1 0x0 NOT SWAP1 PUSH1 0x3 SHL SHR NOT AND OR PUSH1 0x6 DUP3 ADD SSTORE JUMPDEST PUSH1 0xE0 PUSH2 0x2C0 MLOAD ADD MLOAD DUP1 MLOAD SWAP1 PUSH1 0x1 PUSH1 0x1 PUSH1 0x40 SHL SUB DUP3 GT PUSH2 0x9CF JUMPI DUP2 SWAP1 PUSH2 0x7B1 PUSH1 0x7 DUP6 ADD SLOAD PUSH2 0x1366 JUMP JUMPDEST PUSH1 0x1F DUP2 GT PUSH2 0xB22 JUMPI JUMPDEST POP PUSH1 0x20 SWAP1 PUSH1 0x1F DUP4 GT PUSH1 0x1 EQ PUSH2 0xAB0 JUMPI PUSH1 0x0 SWAP3 PUSH2 0xAA5 JUMPI JUMPDEST POP POP DUP2 PUSH1 0x1 SHL SWAP2 PUSH1 0x0 NOT SWAP1 PUSH1 0x3 SHL SHR NOT AND OR PUSH1 0x7 DUP3 ADD SSTORE JUMPDEST PUSH2 0x100 PUSH2 0x2C0 MLOAD ADD MLOAD DUP1 MLOAD SWAP1 PUSH1 0x1 PUSH1 0x1 PUSH1 0x40 SHL SUB DUP3 GT PUSH2 0x9CF JUMPI PUSH2 0x810 PUSH1 0x8 DUP5 ADD SLOAD PUSH2 0x1366 JUMP JUMPDEST PUSH1 0x1F DUP2 GT PUSH2 0xA5E JUMPI JUMPDEST POP PUSH1 0x20 SWAP1 PUSH1 0x1F DUP4 GT PUSH1 0x1 EQ PUSH2 0x9F0 JUMPI PUSH1 0x8 SWAP3 SWAP2 PUSH1 0x0 SWAP2 DUP4 PUSH2 0x9E5 JUMPI JUMPDEST POP POP DUP2 PUSH1 0x1 SHL SWAP2 PUSH1 0x0 NOT SWAP1 PUSH1 0x3 SHL SHR NOT AND OR SWAP2 ADD SSTORE JUMPDEST PUSH1 0x2 SLOAD PUSH9 0x10000000000000000 DUP2 LT ISZERO PUSH2 0x9CF JUMPI DUP1 PUSH1 0x1 PUSH2 0x86F SWAP3 ADD PUSH1 0x2 SSTORE PUSH2 0x1303 JUMP JUMPDEST DUP2 SLOAD SWAP1 PUSH1 0x3 SHL SWAP1 PUSH1 0x1 DUP1 PUSH1 0xA0 SHL SUB PUSH2 0x1E0 MLOAD AND DUP3 SHL SWAP2 PUSH1 0x1 DUP1 PUSH1 0xA0 SHL SUB SWAP1 SHL NOT AND OR SWAP1 SSTORE PUSH2 0x120 PUSH1 0x40 MLOAD DUP1 PUSH2 0x140 MSTORE MSTORE PUSH2 0x977 PUSH2 0x95E PUSH2 0x945 PUSH2 0x92C PUSH2 0x915 PUSH2 0x8FC PUSH2 0x8E3 PUSH2 0x8CB PUSH2 0x120 PUSH2 0x140 MLOAD ADD PUSH2 0x300 MLOAD PUSH1 0xA0 MLOAD PUSH2 0x1536 JUMP JUMPDEST PUSH2 0x140 MLOAD PUSH1 0x20 DUP2 DUP4 SUB SWAP2 ADD MSTORE PUSH1 0xC0 MLOAD PUSH2 0x180 MLOAD PUSH2 0x1536 JUMP JUMPDEST PUSH2 0x140 MLOAD PUSH1 0x40 DUP2 DUP4 SUB SWAP2 ADD MSTORE PUSH2 0x100 MLOAD PUSH2 0x2A0 MLOAD PUSH2 0x1536 JUMP JUMPDEST PUSH2 0x140 MLOAD PUSH1 0x60 DUP2 DUP4 SUB SWAP2 ADD MSTORE PUSH2 0x120 MLOAD PUSH2 0x200 MLOAD PUSH2 0x1536 JUMP JUMPDEST PUSH2 0x140 MLOAD PUSH1 0x80 DUP2 DUP4 SUB SWAP2 ADD MSTORE PUSH1 0x80 MLOAD PUSH1 0xE0 MLOAD PUSH2 0x1536 JUMP JUMPDEST PUSH2 0x140 MLOAD PUSH1 0xA0 DUP2 DUP4 SUB SWAP2 ADD MSTORE PUSH2 0x220 MLOAD PUSH2 0x1A0 MLOAD PUSH2 0x1536 JUMP JUMPDEST PUSH2 0x140 MLOAD PUSH1 0xC0 DUP2 DUP4 SUB SWAP2 ADD MSTORE PUSH2 0x240 MLOAD PUSH2 0x260 MLOAD PUSH2 0x1536 JUMP JUMPDEST PUSH2 0x140 MLOAD PUSH1 0xE0 DUP2 DUP4 SUB SWAP2 ADD MSTORE PUSH2 0x160 MLOAD PUSH2 0x2E0 MLOAD PUSH2 0x1536 JUMP JUMPDEST PUSH2 0x140 MLOAD PUSH2 0x100 DUP2 DUP4 SUB SWAP2 ADD MSTORE PUSH32 0xEF488EA6A5F1DEB172A481865DF47BC2BB09BAE6F941A13118D6C6B7D1A19E44 PUSH1 0x1 DUP1 PUSH1 0xA0 SHL SUB PUSH2 0x1E0 MLOAD AND SWAP2 PUSH2 0x9C7 PUSH2 0x140 MLOAD SWAP2 PUSH2 0x1C0 MLOAD PUSH2 0x280 MLOAD PUSH2 0x1536 JUMP JUMPDEST SUB PUSH2 0x140 MLOAD LOG2 STOP JUMPDEST PUSH4 0x4E487B71 PUSH1 0xE0 SHL PUSH1 0x0 MSTORE PUSH1 0x41 PUSH1 0x4 MSTORE PUSH1 0x24 PUSH1 0x0 REVERT JUMPDEST ADD MLOAD SWAP1 POP DUP5 DUP1 PUSH2 0x835 JUMP JUMPDEST SWAP1 PUSH1 0x1F NOT DUP4 AND SWAP2 PUSH1 0x8 DUP6 ADD PUSH1 0x0 MSTORE PUSH1 0x20 PUSH1 0x0 KECCAK256 SWAP3 PUSH1 0x0 JUMPDEST DUP2 DUP2 LT PUSH2 0xA46 JUMPI POP SWAP2 PUSH1 0x1 SWAP4 SWAP2 DUP6 PUSH1 0x8 SWAP7 SWAP5 LT PUSH2 0xA2D JUMPI JUMPDEST POP POP POP DUP2 SHL ADD SWAP2 ADD SSTORE PUSH2 0x84B JUMP JUMPDEST ADD MLOAD PUSH1 0x0 NOT PUSH1 0xF8 DUP5 PUSH1 0x3 SHL AND SHR NOT AND SWAP1 SSTORE DUP5 DUP1 DUP1 PUSH2 0xA1F JUMP JUMPDEST SWAP3 SWAP4 PUSH1 0x20 PUSH1 0x1 DUP2 SWAP3 DUP8 DUP7 ADD MLOAD DUP2 SSTORE ADD SWAP6 ADD SWAP4 ADD PUSH2 0xA07 JUMP JUMPDEST PUSH1 0x8 DUP5 ADD PUSH1 0x0 MSTORE PUSH1 0x20 PUSH1 0x0 KECCAK256 PUSH1 0x1F DUP5 ADD PUSH1 0x5 SHR DUP2 ADD PUSH1 0x20 DUP6 LT PUSH2 0xA9E JUMPI JUMPDEST PUSH1 0x1F DUP4 ADD PUSH1 0x5 SHR DUP3 ADD DUP2 LT PUSH2 0xA92 JUMPI POP POP PUSH2 0x819 JUMP JUMPDEST PUSH1 0x0 DUP2 SSTORE PUSH1 0x1 ADD PUSH2 0xA7C JUMP JUMPDEST POP DUP1 PUSH2 0xA7C JUMP JUMPDEST ADD MLOAD SWAP1 POP DUP4 DUP1 PUSH2 0x7D1 JUMP JUMPDEST SWAP3 POP PUSH1 0x7 DUP5 ADD PUSH1 0x0 MSTORE PUSH1 0x20 PUSH1 0x0 KECCAK256 SWAP1 PUSH1 0x0 SWAP4 JUMPDEST PUSH1 0x1F NOT DUP5 AND DUP6 LT PUSH2 0xB07 JUMPI PUSH1 0x1 SWAP5 POP DUP4 PUSH1 0x1F NOT DUP2 AND LT PUSH2 0xAEE JUMPI JUMPDEST POP POP POP DUP2 SHL ADD PUSH1 0x7 DUP3 ADD SSTORE PUSH2 0x7E9 JUMP JUMPDEST ADD MLOAD PUSH1 0x0 NOT PUSH1 0xF8 DUP5 PUSH1 0x3 SHL AND SHR NOT AND SWAP1 SSTORE DUP4 DUP1 DUP1 PUSH2 0xADE JUMP JUMPDEST DUP2 DUP2 ADD MLOAD DUP4 SSTORE PUSH1 0x20 SWAP5 DUP6 ADD SWAP5 PUSH1 0x1 SWAP1 SWAP4 ADD SWAP3 SWAP1 SWAP2 ADD SWAP1 PUSH2 0xAC3 JUMP JUMPDEST SWAP1 SWAP2 POP PUSH1 0x7 DUP5 ADD PUSH1 0x0 MSTORE PUSH1 0x20 PUSH1 0x0 KECCAK256 PUSH1 0x1F DUP5 ADD PUSH1 0x5 SHR DUP2 ADD PUSH1 0x20 DUP6 LT PUSH2 0xB6E JUMPI JUMPDEST SWAP1 DUP5 SWAP4 SWAP3 SWAP2 JUMPDEST PUSH1 0x1F DUP4 ADD PUSH1 0x5 SHR DUP3 ADD DUP2 LT PUSH2 0xB5F JUMPI POP POP PUSH2 0x7BA JUMP JUMPDEST PUSH1 0x0 DUP2 SSTORE DUP6 SWAP5 POP PUSH1 0x1 ADD PUSH2 0xB49 JUMP JUMPDEST POP DUP1 PUSH2 0xB43 JUMP JUMPDEST ADD MLOAD SWAP1 POP DUP4 DUP1 PUSH2 0x771 JUMP JUMPDEST SWAP3 POP PUSH1 0x6 DUP5 ADD PUSH1 0x0 MSTORE PUSH1 0x20 PUSH1 0x0 KECCAK256 SWAP1 PUSH1 0x0 SWAP4 JUMPDEST PUSH1 0x1F NOT DUP5 AND DUP6 LT PUSH2 0xBD7 JUMPI PUSH1 0x1 SWAP5 POP DUP4 PUSH1 0x1F NOT DUP2 AND LT PUSH2 0xBBE JUMPI JUMPDEST POP POP POP DUP2 SHL ADD PUSH1 0x6 DUP3 ADD SSTORE PUSH2 0x789 JUMP JUMPDEST ADD MLOAD PUSH1 0x0 NOT PUSH1 0xF8 DUP5 PUSH1 0x3 SHL AND SHR NOT AND SWAP1 SSTORE DUP4 DUP1 DUP1 PUSH2 0xBAE JUMP JUMPDEST DUP2 DUP2 ADD MLOAD DUP4 SSTORE PUSH1 0x20 SWAP5 DUP6 ADD SWAP5 PUSH1 0x1 SWAP1 SWAP4 ADD SWAP3 SWAP1 SWAP2 ADD SWAP1 PUSH2 0xB93 JUMP JUMPDEST SWAP1 SWAP2 POP PUSH1 0x6 DUP5 ADD PUSH1 0x0 MSTORE PUSH1 0x20 PUSH1 0x0 KECCAK256 PUSH1 0x1F DUP5 ADD PUSH1 0x5 SHR DUP2 ADD PUSH1 0x20 DUP6 LT PUSH2 0xC3E JUMPI JUMPDEST SWAP1 DUP5 SWAP4 SWAP3 SWAP2 JUMPDEST PUSH1 0x1F DUP4 ADD PUSH1 0x5 SHR DUP3 ADD DUP2 LT PUSH2 0xC2F JUMPI POP POP PUSH2 0x75A JUMP JUMPDEST PUSH1 0x0 DUP2 SSTORE DUP6 SWAP5 POP PUSH1 0x1 ADD PUSH2 0xC19 JUMP JUMPDEST POP DUP1 PUSH2 0xC13 JUMP JUMPDEST ADD MLOAD SWAP1 POP DUP4 DUP1 PUSH2 0x711 JUMP JUMPDEST SWAP3 POP PUSH1 0x5 DUP5 ADD PUSH1 0x0 MSTORE PUSH1 0x20 PUSH1 0x0 KECCAK256 SWAP1 PUSH1 0x0 SWAP4 JUMPDEST PUSH1 0x1F NOT DUP5 AND DUP6 LT PUSH2 0xCA7 JUMPI PUSH1 0x1 SWAP5 POP DUP4 PUSH1 0x1F NOT DUP2 AND LT PUSH2 0xC8E JUMPI JUMPDEST POP POP POP DUP2 SHL ADD PUSH1 0x5 DUP3 ADD SSTORE PUSH2 0x729 JUMP JUMPDEST ADD MLOAD PUSH1 0x0 NOT PUSH1 0xF8 DUP5 PUSH1 0x3 SHL AND SHR NOT AND SWAP1 SSTORE DUP4 DUP1 DUP1 PUSH2 0xC7E JUMP JUMPDEST DUP2 DUP2 ADD MLOAD DUP4 SSTORE PUSH1 0x20 SWAP5 DUP6 ADD SWAP5 PUSH1 0x1 SWAP1 SWAP4 ADD SWAP3 SWAP1 SWAP2 ADD SWAP1 PUSH2 0xC63 JUMP JUMPDEST SWAP1 SWAP2 POP PUSH1 0x5 DUP5 ADD PUSH1 0x0 MSTORE PUSH1 0x20 PUSH1 0x0 KECCAK256 PUSH1 0x1F DUP5 ADD PUSH1 0x5 SHR DUP2 ADD PUSH1 0x20 DUP6 LT PUSH2 0xD0E JUMPI JUMPDEST SWAP1 DUP5 SWAP4 SWAP3 SWAP2 JUMPDEST PUSH1 0x1F DUP4 ADD PUSH1 0x5 SHR DUP3 ADD DUP2 LT PUSH2 0xCFF JUMPI POP POP PUSH2 0x6FA JUMP JUMPDEST PUSH1 0x0 DUP2 SSTORE DUP6 SWAP5 POP PUSH1 0x1 ADD PUSH2 0xCE9 JUMP JUMPDEST POP DUP1 PUSH2 0xCE3 JUMP JUMPDEST ADD MLOAD SWAP1 POP DUP4 DUP1 PUSH2 0x6B1 JUMP JUMPDEST SWAP3 POP PUSH1 0x4 DUP5 ADD PUSH1 0x0 MSTORE PUSH1 0x20 PUSH1 0x0 KECCAK256 SWAP1 PUSH1 0x0 SWAP4 JUMPDEST PUSH1 0x1F NOT DUP5 AND DUP6 LT PUSH2 0xD77 JUMPI PUSH1 0x1 SWAP5 POP DUP4 PUSH1 0x1F NOT DUP2 AND LT PUSH2 0xD5E JUMPI JUMPDEST POP POP POP DUP2 SHL ADD PUSH1 0x4 DUP3 ADD SSTORE PUSH2 0x6C9 JUMP JUMPDEST ADD MLOAD PUSH1 0x0 NOT PUSH1 0xF8 DUP5 PUSH1 0x3 SHL AND SHR NOT AND SWAP1 SSTORE DUP4 DUP1 DUP1 PUSH2 0xD4E JUMP JUMPDEST DUP2 DUP2 ADD MLOAD DUP4 SSTORE PUSH1 0x20 SWAP5 DUP6 ADD SWAP5 PUSH1 0x1 SWAP1 SWAP4 ADD SWAP3 SWAP1 SWAP2 ADD SWAP1 PUSH2 0xD33 JUMP JUMPDEST SWAP1 SWAP2 POP PUSH1 0x4 DUP5 ADD PUSH1 0x0 MSTORE PUSH1 0x20 PUSH1 0x0 KECCAK256 PUSH1 0x1F DUP5 ADD PUSH1 0x5 SHR DUP2 ADD PUSH1 0x20 DUP6 LT PUSH2 0xDDE JUMPI JUMPDEST SWAP1 DUP5 SWAP4 SWAP3 SWAP2 JUMPDEST PUSH1 0x1F DUP4 ADD PUSH1 0x5 SHR DUP3 ADD DUP2 LT PUSH2 0xDCF JUMPI POP POP PUSH2 0x69A JUMP JUMPDEST PUSH1 0x0 DUP2 SSTORE DUP6 SWAP5 POP PUSH1 0x1 ADD PUSH2 0xDB9 JUMP JUMPDEST POP DUP1 PUSH2 0xDB3 JUMP JUMPDEST ADD MLOAD SWAP1 POP DUP4 DUP1 PUSH2 0x651 JUMP JUMPDEST SWAP3 POP PUSH1 0x3 DUP5 ADD PUSH1 0x0 MSTORE PUSH1 0x20 PUSH1 0x0 KECCAK256 SWAP1 PUSH1 0x0 SWAP4 JUMPDEST PUSH1 0x1F NOT DUP5 AND DUP6 LT PUSH2 0xE47 JUMPI PUSH1 0x1 SWAP5 POP DUP4 PUSH1 0x1F NOT DUP2 AND LT PUSH2 0xE2E JUMPI JUMPDEST POP POP POP DUP2 SHL ADD PUSH1 0x3 DUP3 ADD SSTORE PUSH2 0x669 JUMP JUMPDEST ADD MLOAD PUSH1 0x0 NOT PUSH1 0xF8 DUP5 PUSH1 0x3 SHL AND SHR NOT AND SWAP1 SSTORE DUP4 DUP1 DUP1 PUSH2 0xE1E JUMP JUMPDEST DUP2 DUP2 ADD MLOAD DUP4 SSTORE PUSH1 0x20 SWAP5 DUP6 ADD SWAP5 PUSH1 0x1 SWAP1 SWAP4 ADD SWAP3 SWAP1 SWAP2 ADD SWAP1 PUSH2 0xE03 JUMP JUMPDEST SWAP1 SWAP2 POP PUSH1 0x3 DUP5 ADD PUSH1 0x0 MSTORE PUSH1 0x20 PUSH1 0x0 KECCAK256 PUSH1 0x1F DUP5 ADD PUSH1 0x5 SHR DUP2 ADD PUSH1 0x20 DUP6 LT PUSH2 0xEAE JUMPI JUMPDEST SWAP1 DUP5 SWAP4 SWAP3 SWAP2 JUMPDEST PUSH1 0x1F DUP4 ADD PUSH1 0x5 SHR DUP3 ADD DUP2 LT PUSH2 0xE9F JUMPI POP POP PUSH2 0x63A JUMP JUMPDEST PUSH1 0x0 DUP2 SSTORE DUP6 SWAP5 POP PUSH1 0x1 ADD PUSH2 0xE89 JUMP JUMPDEST POP DUP1 PUSH2 0xE83 JUMP JUMPDEST ADD MLOAD SWAP1 POP DUP4 DUP1 PUSH2 0x5F1 JUMP JUMPDEST SWAP3 POP PUSH1 0x2 DUP5 ADD PUSH1 0x0 MSTORE PUSH1 0x20 PUSH1 0x0 KECCAK256 SWAP1 PUSH1 0x0 SWAP4 JUMPDEST PUSH1 0x1F NOT DUP5 AND DUP6 LT PUSH2 0xF17 JUMPI PUSH1 0x1 SWAP5 POP DUP4 PUSH1 0x1F NOT DUP2 AND LT PUSH2 0xEFE JUMPI JUMPDEST POP POP POP DUP2 SHL ADD PUSH1 0x2 DUP3 ADD SSTORE PUSH2 0x609 JUMP JUMPDEST ADD MLOAD PUSH1 0x0 NOT PUSH1 0xF8 DUP5 PUSH1 0x3 SHL AND SHR NOT AND SWAP1 SSTORE DUP4 DUP1 DUP1 PUSH2 0xEEE JUMP JUMPDEST DUP2 DUP2 ADD MLOAD DUP4 SSTORE PUSH1 0x20 SWAP5 DUP6 ADD SWAP5 PUSH1 0x1 SWAP1 SWAP4 ADD SWAP3 SWAP1 SWAP2 ADD SWAP1 PUSH2 0xED3 JUMP JUMPDEST SWAP1 SWAP2 POP PUSH1 0x2 DUP5 ADD PUSH1 0x0 MSTORE PUSH1 0x20 PUSH1 0x0 KECCAK256 PUSH1 0x1F DUP5 ADD PUSH1 0x5 SHR DUP2 ADD PUSH1 0x20 DUP6 LT PUSH2 0xF7E JUMPI JUMPDEST SWAP1 DUP5 SWAP4 SWAP3 SWAP2 JUMPDEST PUSH1 0x1F DUP4 ADD PUSH1 0x5 SHR DUP3 ADD DUP2 LT PUSH2 0xF6F JUMPI POP POP PUSH2 0x5DA JUMP JUMPDEST PUSH1 0x0 DUP2 SSTORE DUP6 SWAP5 POP PUSH1 0x1 ADD PUSH2 0xF59 JUMP JUMPDEST POP DUP1 PUSH2 0xF53 JUMP JUMPDEST ADD MLOAD SWAP1 POP DUP4 DUP1 PUSH2 0x591 JUMP JUMPDEST SWAP3 POP PUSH1 0x1 DUP5 ADD PUSH1 0x0 MSTORE PUSH1 0x20 PUSH1 0x0 KECCAK256 SWAP1 PUSH1 0x0 SWAP4 JUMPDEST PUSH1 0x1F NOT DUP5 AND DUP6 LT PUSH2 0xFE7 JUMPI PUSH1 0x1 SWAP5 POP DUP4 PUSH1 0x1F NOT DUP2 AND LT PUSH2 0xFCE JUMPI JUMPDEST POP POP POP DUP2 SHL ADD PUSH1 0x1 DUP3 ADD SSTORE PUSH2 0x5A9 JUMP JUMPDEST ADD MLOAD PUSH1 0x0 NOT PUSH1 0xF8 DUP5 PUSH1 0x3 SHL AND SHR NOT AND SWAP1 SSTORE DUP4 DUP1 DUP1 PUSH2 0xFBE JUMP JUMPDEST DUP2 DUP2 ADD MLOAD DUP4 SSTORE PUSH1 0x20 SWAP5 DUP6 ADD SWAP5 PUSH1 0x1 SWAP1 SWAP4 ADD SWAP3 SWAP1 SWAP2 ADD SWAP1 PUSH2 0xFA3 JUMP JUMPDEST SWAP1 SWAP2 POP PUSH1 0x1 DUP5 ADD PUSH1 0x0 MSTORE PUSH1 0x20 PUSH1 0x0 KECCAK256 PUSH1 0x1F DUP5 ADD PUSH1 0x5 SHR DUP2 ADD PUSH1 0x20 DUP6 LT PUSH2 0x104E JUMPI JUMPDEST SWAP1 DUP5 SWAP4 SWAP3 SWAP2 JUMPDEST PUSH1 0x1F DUP4 ADD PUSH1 0x5 SHR DUP3 ADD DUP2 LT PUSH2 0x103F JUMPI POP POP PUSH2 0x57A JUMP JUMPDEST PUSH1 0x0 DUP2 SSTORE DUP6 SWAP5 POP PUSH1 0x1 ADD PUSH2 0x1029 JUMP JUMPDEST POP DUP1 PUSH2 0x1023 JUMP JUMPDEST ADD MLOAD SWAP1 POP DUP4 DUP1 PUSH2 0x534 JUMP JUMPDEST DUP3 PUSH1 0x0 MSTORE PUSH1 0x20 PUSH1 0x0 KECCAK256 SWAP1 PUSH1 0x0 SWAP5 PUSH1 0x1F NOT DUP5 AND SWAP6 JUMPDEST DUP7 DUP2 LT PUSH2 0x10AD JUMPI POP DUP4 PUSH1 0x1 SWAP6 SWAP7 LT PUSH2 0x1094 JUMPI JUMPDEST POP POP POP DUP2 SHL ADD DUP2 SSTORE PUSH2 0x549 JUMP JUMPDEST ADD MLOAD PUSH1 0x0 NOT PUSH1 0xF8 DUP5 PUSH1 0x3 SHL AND SHR NOT AND SWAP1 SSTORE DUP4 DUP1 DUP1 PUSH2 0x1087 JUMP JUMPDEST SWAP2 SWAP3 PUSH1 0x20 PUSH1 0x1 DUP2 SWAP3 DUP7 DUP6 ADD MLOAD DUP2 SSTORE ADD SWAP5 ADD SWAP3 ADD PUSH2 0x1074 JUMP JUMPDEST DUP3 PUSH1 0x0 MSTORE PUSH1 0x20 PUSH1 0x0 KECCAK256 PUSH1 0x1F DUP4 ADD PUSH1 0x5 SHR DUP2 ADD PUSH1 0x20 DUP5 LT PUSH2 0x1102 JUMPI JUMPDEST PUSH1 0x1F DUP4 ADD PUSH1 0x5 SHR DUP3 ADD DUP2 LT PUSH2 0x10F6 JUMPI POP POP PUSH2 0x51B JUMP JUMPDEST PUSH1 0x0 DUP2 SSTORE PUSH1 0x1 ADD PUSH2 0x10E0 JUMP JUMPDEST POP DUP1 PUSH2 0x10E0 JUMP JUMPDEST PUSH1 0x40 MLOAD PUSH3 0x461BCD PUSH1 0xE5 SHL DUP2 MSTORE PUSH1 0x20 PUSH1 0x4 DUP3 ADD MSTORE PUSH1 0xB PUSH1 0x24 DUP3 ADD MSTORE PUSH11 0x139BDD081CDD195DD85C99 PUSH1 0xAA SHL PUSH1 0x44 DUP3 ADD MSTORE PUSH1 0x64 SWAP1 REVERT JUMPDEST CALLVALUE PUSH2 0x25A JUMPI PUSH1 0x0 CALLDATASIZE PUSH1 0x3 NOT ADD SLT PUSH2 0x25A JUMPI PUSH1 0x20 PUSH1 0x2 SLOAD PUSH1 0x40 MLOAD SWAP1 DUP2 MSTORE RETURN JUMPDEST CALLVALUE PUSH2 0x25A JUMPI PUSH1 0x0 CALLDATASIZE PUSH1 0x3 NOT ADD SLT PUSH2 0x25A JUMPI PUSH1 0x0 SLOAD PUSH1 0x40 MLOAD PUSH1 0x1 PUSH1 0x1 PUSH1 0xA0 SHL SUB SWAP1 SWAP2 AND DUP2 MSTORE PUSH1 0x20 SWAP1 RETURN JUMPDEST CALLVALUE PUSH2 0x25A JUMPI PUSH1 0x20 CALLDATASIZE PUSH1 0x3 NOT ADD SLT PUSH2 0x25A JUMPI PUSH1 0x1 PUSH1 0x1 PUSH1 0xA0 SHL SUB PUSH2 0x11A4 PUSH2 0x1350 JUMP JUMPDEST AND PUSH1 0x0 MSTORE PUSH1 0x1 PUSH1 0x20 MSTORE PUSH1 0x40 PUSH1 0x0 KECCAK256 PUSH2 0x11BB DUP2 PUSH2 0x13DD JUMP JUMPDEST PUSH2 0x11C7 PUSH1 0x1 DUP4 ADD PUSH2 0x13DD JUMP JUMPDEST SWAP2 PUSH2 0x11D4 PUSH1 0x2 DUP3 ADD PUSH2 0x13DD JUMP JUMPDEST SWAP1 PUSH2 0x11E1 PUSH1 0x3 DUP3 ADD PUSH2 0x13DD JUMP JUMPDEST PUSH2 0x11ED PUSH1 0x4 DUP4 ADD PUSH2 0x13DD JUMP JUMPDEST PUSH2 0x11F9 PUSH1 0x5 DUP5 ADD PUSH2 0x13DD JUMP JUMPDEST SWAP1 PUSH2 0x1206 PUSH1 0x6 DUP6 ADD PUSH2 0x13DD JUMP JUMPDEST SWAP3 PUSH2 0x1213 PUSH1 0x7 DUP7 ADD PUSH2 0x13DD JUMP JUMPDEST SWAP5 PUSH1 0x8 ADD PUSH2 0x1220 SWAP1 PUSH2 0x13DD JUMP JUMPDEST SWAP6 PUSH1 0x40 MLOAD SWAP9 DUP10 SWAP9 PUSH2 0x120 DUP1 DUP12 MSTORE DUP11 ADD PUSH2 0x1238 SWAP2 PUSH2 0x1483 JUMP JUMPDEST DUP10 DUP2 SUB PUSH1 0x20 DUP12 ADD MSTORE PUSH2 0x1249 SWAP2 PUSH2 0x1483 JUMP JUMPDEST DUP9 DUP2 SUB PUSH1 0x40 DUP11 ADD MSTORE PUSH2 0x125A SWAP2 PUSH2 0x1483 JUMP JUMPDEST DUP8 DUP2 SUB PUSH1 0x60 DUP10 ADD MSTORE PUSH2 0x126B SWAP2 PUSH2 0x1483 JUMP JUMPDEST DUP7 DUP2 SUB PUSH1 0x80 DUP9 ADD MSTORE PUSH2 0x127C SWAP2 PUSH2 0x1483 JUMP JUMPDEST DUP6 DUP2 SUB PUSH1 0xA0 DUP8 ADD MSTORE PUSH2 0x128D SWAP2 PUSH2 0x1483 JUMP JUMPDEST DUP5 DUP2 SUB PUSH1 0xC0 DUP7 ADD MSTORE PUSH2 0x129E SWAP2 PUSH2 0x1483 JUMP JUMPDEST DUP4 DUP2 SUB PUSH1 0xE0 DUP6 ADD MSTORE PUSH2 0x12AF SWAP2 PUSH2 0x1483 JUMP JUMPDEST DUP3 DUP2 SUB PUSH2 0x100 DUP5 ADD MSTORE PUSH2 0x256 SWAP2 PUSH2 0x1483 JUMP JUMPDEST CALLVALUE PUSH2 0x25A JUMPI PUSH1 0x20 CALLDATASIZE PUSH1 0x3 NOT ADD SLT PUSH2 0x25A JUMPI PUSH1 0x4 CALLDATALOAD PUSH1 0x2 SLOAD DUP2 LT ISZERO PUSH2 0x25A JUMPI PUSH2 0x12EA PUSH1 0x20 SWAP2 PUSH2 0x1303 JUMP JUMPDEST SWAP1 SLOAD PUSH1 0x40 MLOAD PUSH1 0x3 SWAP3 SWAP1 SWAP3 SHL SHR PUSH1 0x1 PUSH1 0x1 PUSH1 0xA0 SHL SUB AND DUP2 MSTORE RETURN JUMPDEST PUSH1 0x2 SLOAD DUP2 LT ISZERO PUSH2 0x133A JUMPI PUSH1 0x2 PUSH1 0x0 MSTORE PUSH32 0x405787FA12A823E0F2B7631CC41B3BA8828B3321CA811111FA75CD3AA3BB5ACE ADD SWAP1 PUSH1 0x0 SWAP1 JUMP JUMPDEST PUSH4 0x4E487B71 PUSH1 0xE0 SHL PUSH1 0x0 MSTORE PUSH1 0x32 PUSH1 0x4 MSTORE PUSH1 0x24 PUSH1 0x0 REVERT JUMPDEST PUSH1 0x4 CALLDATALOAD SWAP1 PUSH1 0x1 PUSH1 0x1 PUSH1 0xA0 SHL SUB DUP3 AND DUP3 SUB PUSH2 0x25A JUMPI JUMP JUMPDEST SWAP1 PUSH1 0x1 DUP3 DUP2 SHR SWAP3 AND DUP1 ISZERO PUSH2 0x1396 JUMPI JUMPDEST PUSH1 0x20 DUP4 LT EQ PUSH2 0x1380 JUMPI JUMP JUMPDEST PUSH4 0x4E487B71 PUSH1 0xE0 SHL PUSH1 0x0 MSTORE PUSH1 0x22 PUSH1 0x4 MSTORE PUSH1 0x24 PUSH1 0x0 REVERT JUMPDEST SWAP2 PUSH1 0x7F AND SWAP2 PUSH2 0x1375 JUMP JUMPDEST PUSH2 0x120 DUP2 ADD SWAP1 DUP2 LT PUSH1 0x1 PUSH1 0x1 PUSH1 0x40 SHL SUB DUP3 GT OR PUSH2 0x9CF JUMPI PUSH1 0x40 MSTORE JUMP JUMPDEST SWAP1 PUSH1 0x1F DUP1 NOT SWAP2 ADD AND DUP2 ADD SWAP1 DUP2 LT PUSH1 0x1 PUSH1 0x1 PUSH1 0x40 SHL SUB DUP3 GT OR PUSH2 0x9CF JUMPI PUSH1 0x40 MSTORE JUMP JUMPDEST SWAP1 PUSH1 0x40 MLOAD SWAP2 DUP3 PUSH1 0x0 DUP3 SLOAD SWAP3 PUSH2 0x13F1 DUP5 PUSH2 0x1366 JUMP JUMPDEST SWAP1 DUP2 DUP5 MSTORE PUSH1 0x1 SWAP5 DUP6 DUP2 AND SWAP1 DUP2 PUSH1 0x0 EQ PUSH2 0x1460 JUMPI POP PUSH1 0x1 EQ PUSH2 0x141D JUMPI JUMPDEST POP POP PUSH2 0x141B SWAP3 POP SUB DUP4 PUSH2 0x13BC JUMP JUMPDEST JUMP JUMPDEST SWAP1 SWAP4 SWAP2 POP PUSH1 0x0 MSTORE PUSH1 0x20 SWAP1 DUP2 PUSH1 0x0 KECCAK256 SWAP4 PUSH1 0x0 SWAP2 JUMPDEST DUP2 DUP4 LT PUSH2 0x1448 JUMPI POP POP PUSH2 0x141B SWAP4 POP DUP3 ADD ADD CODESIZE DUP1 PUSH2 0x140D JUMP JUMPDEST DUP6 SLOAD DUP9 DUP5 ADD DUP6 ADD MSTORE SWAP5 DUP6 ADD SWAP5 DUP8 SWAP5 POP SWAP2 DUP4 ADD SWAP2 PUSH2 0x1430 JUMP JUMPDEST SWAP2 POP POP PUSH2 0x141B SWAP5 POP PUSH1 0x20 SWAP3 POP PUSH1 0xFF NOT AND DUP3 DUP5 ADD MSTORE ISZERO ISZERO PUSH1 0x5 SHL DUP3 ADD ADD CODESIZE DUP1 PUSH2 0x140D JUMP JUMPDEST SWAP2 SWAP1 DUP3 MLOAD SWAP3 DUP4 DUP3 MSTORE PUSH1 0x0 JUMPDEST DUP5 DUP2 LT PUSH2 0x14AF JUMPI POP POP DUP3 PUSH1 0x0 PUSH1 0x20 DUP1 SWAP5 SWAP6 DUP5 ADD ADD MSTORE PUSH1 0x1F DUP1 NOT SWAP2 ADD AND ADD ADD SWAP1 JUMP JUMPDEST PUSH1 0x20 DUP2 DUP4 ADD DUP2 ADD MLOAD DUP5 DUP4 ADD DUP3 ADD MSTORE ADD PUSH2 0x148E JUMP JUMPDEST SWAP2 DUP2 PUSH1 0x1F DUP5 ADD SLT ISZERO PUSH2 0x25A JUMPI DUP3 CALLDATALOAD SWAP2 PUSH1 0x1 PUSH1 0x1 PUSH1 0x40 SHL SUB DUP4 GT PUSH2 0x25A JUMPI PUSH1 0x20 DUP4 DUP2 DUP7 ADD SWAP6 ADD ADD GT PUSH2 0x25A JUMPI JUMP JUMPDEST SWAP3 SWAP2 SWAP3 PUSH1 0x1 PUSH1 0x1 PUSH1 0x40 SHL SUB DUP3 GT PUSH2 0x9CF JUMPI PUSH1 0x40 MLOAD SWAP2 PUSH2 0x1519 PUSH1 0x1F DUP3 ADD PUSH1 0x1F NOT AND PUSH1 0x20 ADD DUP5 PUSH2 0x13BC JUMP JUMPDEST DUP3 SWAP5 DUP2 DUP5 MSTORE DUP2 DUP4 ADD GT PUSH2 0x25A JUMPI DUP3 DUP2 PUSH1 0x20 SWAP4 DUP5 PUSH1 0x0 SWAP7 ADD CALLDATACOPY ADD ADD MSTORE JUMP JUMPDEST SWAP1 DUP1 PUSH1 0x20 SWAP4 SWAP3 DUP2 DUP5 MSTORE DUP5 DUP5 ADD CALLDATACOPY PUSH1 0x0 DUP3 DUP3 ADD DUP5 ADD MSTORE PUSH1 0x1F ADD PUSH1 0x1F NOT AND ADD ADD SWAP1 JUMP INVALID LOG2 PUSH5 0x6970667358 0x22 SLT KECCAK256 0xC1 0xE1 0x2B 0xDF 0xC8 0x21 RETURNDATASIZE PUSH5 0x3BECE55728 0xDA 0xE2 SHL PUSH19 0x9BF00299BBA3EE13B3309E1BE84FAB64736F6C PUSH4 0x43000814 STOP CALLER "},"methodIdentifiers":{"companions(address)":"47854b87","getCompanion(address)":"ef652737","keys(uint256)":"0cb6aaf1","steward()":"637eea19","summonCompanion(address,string,string,string,string,string,string,string,string,string)":"ecefe538","totalCompanions()":"ec39f18f"}}}}}