{"contracts/codex/SpiralboundCodexXI.sol":{"SpiralboundCodexXI":{"abi":[{"inputs":[],"stateMutability":"nonpayable","type":"constructor"},{"anonymous":false,"inputs":[{"indexed":false,"internalType":"string","name":"glyph","type":"string"},{"indexed":false,"internalType":"string","name":"tag","type":"string"},{"indexed":false,"internalType":"string","name":"binding","type":"string"},{"indexed":false,"internalType":"string","name":"annotation","type":"string"},{"indexed":false,"internalType":"string","name":"lineage","type":"string"},{"indexed":false,"internalType":"string","name":"resonance","type":"string"},{"indexed":false,"internalType":"string","name":"protocol","type":"string"},{"indexed":false,"internalType":"string","name":"sanctum","type":"string"},{"indexed":false,"internalType":"string","name":"pulse","type":"string"},{"indexed":false,"internalType":"string","name":"chant","type":"string"},{"indexed":false,"internalType":"string","name":"choreography","type":"string"},{"indexed":false,"internalType":"string","name":"drift","type":"string"}],"name":"CodexInscribed","type":"event"},{"inputs":[{"internalType":"string","name":"","type":"string"}],"name":"codices","outputs":[{"internalType":"string","name":"tag","type":"string"},{"internalType":"string","name":"binding","type":"string"},{"internalType":"string","name":"annotation","type":"string"},{"internalType":"string","name":"lineage","type":"string"},{"internalType":"string","name":"resonance","type":"string"},{"internalType":"string","name":"protocol","type":"string"},{"internalType":"string","name":"sanctum","type":"string"},{"internalType":"string","name":"pulse","type":"string"},{"internalType":"string","name":"chant","type":"string"},{"internalType":"string","name":"choreography","type":"string"},{"internalType":"string","name":"drift","type":"string"}],"stateMutability":"view","type":"function"},{"inputs":[{"internalType":"string","name":"glyph","type":"string"}],"name":"getCodex","outputs":[{"components":[{"internalType":"string","name":"tag","type":"string"},{"internalType":"string","name":"binding","type":"string"},{"internalType":"string","name":"annotation","type":"string"},{"internalType":"string","name":"lineage","type":"string"},{"internalType":"string","name":"resonance","type":"string"},{"internalType":"string","name":"protocol","type":"string"},{"internalType":"string","name":"sanctum","type":"string"},{"internalType":"string","name":"pulse","type":"string"},{"internalType":"string","name":"chant","type":"string"},{"internalType":"string","name":"choreography","type":"string"},{"internalType":"string","name":"drift","type":"string"}],"internalType":"struct SpiralboundCodexXI.Codex","name":"","type":"tuple"}],"stateMutability":"view","type":"function"},{"inputs":[{"internalType":"string","name":"glyph","type":"string"},{"internalType":"string","name":"tag","type":"string"},{"internalType":"string","name":"binding","type":"string"},{"internalType":"string","name":"annotation","type":"string"},{"internalType":"string","name":"lineage","type":"string"},{"internalType":"string","name":"resonance","type":"string"},{"internalType":"string","name":"protocol","type":"string"},{"internalType":"string","name":"sanctum","type":"string"},{"internalType":"string","name":"pulse","type":"string"},{"internalType":"string","name":"chant","type":"string"},{"internalType":"string","name":"choreography","type":"string"},{"internalType":"string","name":"drift","type":"string"}],"name":"inscribeCodex","outputs":[],"stateMutability":"nonpayable","type":"function"},{"inputs":[{"internalType":"uint256","name":"","type":"uint256"}],"name":"keys","outputs":[{"internalType":"string","name":"","type":"string"}],"stateMutability":"view","type":"function"},{"inputs":[],"name":"steward","outputs":[{"internalType":"address","name":"","type":"address"}],"stateMutability":"view","type":"function"},{"inputs":[],"name":"totalCodices","outputs":[{"internalType":"uint256","name":"","type":"uint256"}],"stateMutability":"view","type":"function"}],"evm":{"bytecode":{"linkReferences":{},"object":"6080806040523461002857600080546001600160a01b0319163317905561175c908161002e8239f35b600080fdfe6103c0604052600436101561001357600080fd5b60003560e01c80630cb6aaf114611441578063637eea191461141857806370aefafa146104b15780638336152214610236578063c212d16b146102185763dbc214241461005f57600080fd5b34610213576020366003190112610213576004356001600160401b03811161021357366023820112156102135736816004013591602401916100a09261166b565b60405181818093516020819301916100b7926115f6565b8101600181520360200190206100cc81611550565b6100d860018301611550565b916100e560028201611550565b906100f260038201611550565b6100fe60048301611550565b61010a60058401611550565b61011660068501611550565b9061012360078601611550565b9261013060088701611550565b9461013d60098801611550565b96600a0161014a90611550565b976040519a8b9a610160808d528c0161016291611619565b8b810360208d015261017391611619565b8a810360408c015261018491611619565b89810360608b015261019591611619565b88810360808a01526101a691611619565b87810360a08901526101b791611619565b86810360c08801526101c891611619565b85810360e08701526101d991611619565b8481036101008601526101eb91611619565b8381036101208501526101fd91611619565b82810361014084015261020f91611619565b0390f35b600080fd5b34610213576000366003190112610213576020600254604051908152f35b34610213576020366003190112610213576004356001600160401b03811161021357602061026b61020f92369060040161163e565b9190606061014060405161027e81611513565b828152828582015282604082015282808201528260808201528260a08201528260c08201528260e0820152826101008201528261012082015201528260405193849283378101600181520301902061038a600a604051926102de84611513565b6102e781611550565b84526102f560018201611550565b602085015261030660028201611550565b604085015261031760038201611550565b606085015261032860048201611550565b608085015261033960058201611550565b60a085015261034a60068201611550565b60c085015261035b60078201611550565b60e085015261036c60088201611550565b61010085015261037e60098201611550565b61012085015201611550565b6101408201526040519182916020835261014061049c61048661046e61045761044161042b6104156103ff6103e96103d18d6101808d519161016060208201520190611619565b8d60208d0151906040601f1982850301910152611619565b60408b01518d8203601f190160608f0152611619565b60608a01518c8203601f190160808e0152611619565b60808901518b8203601f190160a08d0152611619565b60a08801518a8203601f190160c08c0152611619565b60c0870151898203601f190160e08b0152611619565b60e0860151888203601f19016101008a0152611619565b610100850151878203601f1901610120890152611619565b610120840151868203601f190184880152611619565b910151838203601f1901610160850152611619565b3461021357610180366003190112610213576004356001600160401b038111610213576104e290369060040161163e565b6101c05260a0526024356001600160401b0381116102135761050890369060040161163e565b61016052610180526044356001600160401b0381116102135761052f90369060040161163e565b61026052610220526064356001600160401b0381116102135761055690369060040161163e565b61012052610360526084356001600160401b0381116102135761057d90369060040161163e565b6102c0526101405260a4356001600160401b038111610213576105a490369060040161163e565b6080526102e05260c4356001600160401b038111610213576105ca90369060040161163e565b6102a052610340526001600160401b0360e43511610213576105f13660e43560040161163e565b6103205260c0526001600160401b03610104351161021357610619366101043560040161163e565b60e052610280526001600160401b03610124351161021357610641366101243560040161163e565b610100526103a052610144356001600160401b0381116102135761066990369060040161163e565b6101e05261030052610164356001600160401b0381116102135761069190369060040161163e565b61024052610200526000546001600160a01b031633036113e5576106bb6040518061038052611513565b6106cc36610160516101805161166b565b61038051526106e236610260516102205161166b565b60206103805101526106fb36610120516103605161166b565b6040610380510152610714366102c0516101405161166b565b606061038051015261072c366080516102e05161166b565b6080610380510152610745366102a0516103405161166b565b60a061038051015261075d366103205160c05161166b565b60c06103805101526107753660e0516102805161166b565b60e061038051015261078e36610100516103a05161166b565b6101006103805101526107a8366101e0516103005161166b565b6101206103805101526107c236610240516102005161166b565b6101406103805101526040516101c05160a051823760016101c0518201526020816101c05181010301902061038051519081516001600160401b038111610e8d576108178161081184546114d9565b846116b1565b6020601f821160011461138057819293600092611375575b50508160011b916000199060031b1c19161781555b60206103805101519081516001600160401b038111610e8d5760018201906108708161081184546114d9565b6020601f821160011461130f5781929394600092611304575b50508160011b916000199060031b1c19161790555b60406103805101519081516001600160401b038111610e8d5760028201906108ca8161081184546114d9565b6020601f821160011461129e5781929394600092611293575b50508160011b916000199060031b1c19161790555b60606103805101518051906001600160401b038211610e8d57819061092d8261092460038701546114d9565b600387016116b1565b602090601f831160011461122157600092611216575b50508160011b916000199060031b1c19161760038201555b60806103805101518051906001600160401b038211610e8d5781906109908261098760048701546114d9565b600487016116b1565b602090601f83116001146111a457600092611199575b50508160011b916000199060031b1c19161760048201555b60a06103805101518051906001600160401b038211610e8d5781906109f3826109ea60058701546114d9565b600587016116b1565b602090601f83116001146111275760009261111c575b50508160011b916000199060031b1c19161760058201555b60c06103805101518051906001600160401b038211610e8d578190610a5682610a4d60068701546114d9565b600687016116b1565b602090601f83116001146110aa5760009261109f575b50508160011b916000199060031b1c19161760068201555b60e06103805101518051906001600160401b038211610e8d578190610ab982610ab060078701546114d9565b600787016116b1565b602090601f831160011461102d57600092611022575b50508160011b916000199060031b1c19161760078201555b6101006103805101518051906001600160401b038211610e8d578190610b1d82610b1460088701546114d9565b600887016116b1565b602090601f8311600114610fb057600092610fa5575b50508160011b916000199060031b1c19161760088201555b6101206103805101518051906001600160401b038211610e8d578190610b8182610b7860098701546114d9565b600987016116b1565b602090601f8311600114610f3357600092610f28575b50508160011b916000199060031b1c19161760098201555b610140610380510151908151906001600160401b038211610e8d57600a0190610bdc8161081184546114d9565b602092601f8211600114610ec45792819293600092610eb9575b50508160011b916000199060031b1c19161790555b60025468010000000000000000811015610e8d57806001610c2f920160025561148c565b610ea3576101c0516001600160401b038111610e8d57610c5990610c5383546114d9565b836116b1565b6000906101c051601f8111600114610e2157509060006101c0519182610e14575b508160011b916000199060031b1c19161790555b610180604051806101a052527fec5bd274385cbd9b06183314a5ab8a6c769b115e795a4f455cf9cf103b914c00610dea610dd0610db6610d9d610d85610d6c610d54610d3b610d22610d09610cf06101806101a051016101c05160a051611705565b6101a05160208183039101526101605161018051611705565b6101a05160408183039101526102605161022051611705565b6101a05160608183039101526101205161036051611705565b6101a05160808183039101526102c05161014051611705565b6101a05160a08183039101526080516102e051611705565b6101a05160c08183039101526102a05161034051611705565b6101a05160e08183039101526103205160c051611705565b6101a05161010081830391015260e05161028051611705565b6101a051610120818303910152610100516103a051611705565b6101a0516101408183039101526101e05161030051611705565b6101a051610160818303910152610e0c6101a051916102405161020051611705565b036101a051a1005b905060a051013583610c7a565b81600052602060002060009360a051905b601f1984168610610e7557600194955083601f19811610610e5b575b505050811b019055610c8e565b0135600019600384901b60f8161c19169055838080610e4e565b91602060018192858501358155019301950194610e32565b634e487b7160e01b600052604160045260246000fd5b634e487b7160e01b600052600060045260246000fd5b015190508380610bf6565b601f198216938360005260206000209160005b868110610f105750836001959610610ef7575b505050811b019055610c0b565b015160001960f88460031b161c19169055838080610eea565b91926020600181928685015181550194019201610ed7565b015190508380610b97565b9250600984016000526020600020906000935b601f1984168510610f8a576001945083601f19811610610f71575b505050811b016009820155610baf565b015160001960f88460031b161c19169055838080610f61565b81810151835560209485019460019093019290910190610f46565b015190508380610b33565b9250600884016000526020600020906000935b601f1984168510611007576001945083601f19811610610fee575b505050811b016008820155610b4b565b015160001960f88460031b161c19169055838080610fde565b81810151835560209485019460019093019290910190610fc3565b015190508380610acf565b9250600784016000526020600020906000935b601f1984168510611084576001945083601f1981161061106b575b505050811b016007820155610ae7565b015160001960f88460031b161c1916905583808061105b565b81810151835560209485019460019093019290910190611040565b015190508380610a6c565b9250600684016000526020600020906000935b601f1984168510611101576001945083601f198116106110e8575b505050811b016006820155610a84565b015160001960f88460031b161c191690558380806110d8565b818101518355602094850194600190930192909101906110bd565b015190508380610a09565b9250600584016000526020600020906000935b601f198416851061117e576001945083601f19811610611165575b505050811b016005820155610a21565b015160001960f88460031b161c19169055838080611155565b8181015183556020948501946001909301929091019061113a565b0151905083806109a6565b9250600484016000526020600020906000935b601f19841685106111fb576001945083601f198116106111e2575b505050811b0160048201556109be565b015160001960f88460031b161c191690558380806111d2565b818101518355602094850194600190930192909101906111b7565b015190508380610943565b9250600384016000526020600020906000935b601f1984168510611278576001945083601f1981161061125f575b505050811b01600382015561095b565b015160001960f88460031b161c1916905583808061124f565b81810151835560209485019460019093019290910190611234565b0151905084806108e3565b826000526020600020906000601f198416905b8181106112ec575095836001959697106112d3575b505050811b0190556108f8565b015160001960f88460031b161c191690558480806112c6565b9192602060018192868b0151815501940192016112b1565b015190508480610889565b826000526020600020906000601f198416905b81811061135d57509583600195969710611344575b505050811b01905561089e565b015160001960f88460031b161c19169055848080611337565b9192602060018192868b015181550194019201611322565b01519050838061082f565b82600052602060002090600094601f198416955b8681106113cd57508360019596106113b4575b505050811b018155610844565b015160001960f88460031b161c191690558380806113a7565b91926020600181928685015181550194019201611394565b60405162461bcd60e51b815260206004820152600b60248201526a139bdd081cdd195dd85c9960aa1b6044820152606490fd5b34610213576000366003190112610213576000546040516001600160a01b039091168152602090f35b3461021357602036600319011261021357600435600254811015610213576114689061148c565b610ea35761147861020f91611550565b604051918291602083526020830190611619565b6002548110156114c35760026000527f405787fa12a823e0f2b7631cc41b3ba8828b3321ca811111fa75cd3aa3bb5ace0190600090565b634e487b7160e01b600052603260045260246000fd5b90600182811c92168015611509575b60208310146114f357565b634e487b7160e01b600052602260045260246000fd5b91607f16916114e8565b61016081019081106001600160401b03821117610e8d57604052565b90601f801991011681019081106001600160401b03821117610e8d57604052565b9060405191826000825492611564846114d9565b9081845260019485811690816000146115d35750600114611590575b505061158e9250038361152f565b565b9093915060005260209081600020936000915b8183106115bb57505061158e93508201013880611580565b855488840185015294850194879450918301916115a3565b91505061158e94506020925060ff191682840152151560051b8201013880611580565b60005b8381106116095750506000910152565b81810151838201526020016115f9565b90602091611632815180928185528580860191016115f6565b601f01601f1916010190565b9181601f84011215610213578235916001600160401b038311610213576020838186019501011161021357565b9291926001600160401b038211610e8d5760405191611694601f8201601f19166020018461152f565b829481845281830111610213578281602093846000960137010152565b90601f81116116bf57505050565b600091825260208220906020601f850160051c830194106116fb575b601f0160051c01915b8281106116f057505050565b8181556001016116e4565b90925082906116db565b908060209392818452848401376000828201840152601f01601f191601019056fea26469706673582212208a111fb6f7eb0e36182ed6852356f13ad944c0eb336751319cab1265bf29e6f264736f6c63430008140033","opcodes":"PUSH1 0x80 DUP1 PUSH1 0x40 MSTORE CALLVALUE PUSH2 0x28 JUMPI PUSH1 0x0 DUP1 SLOAD PUSH1 0x1 PUSH1 0x1 PUSH1 0xA0 SHL SUB NOT AND CALLER OR SWAP1 SSTORE PUSH2 0x175C SWAP1 DUP2 PUSH2 0x2E DUP3 CODECOPY RETURN JUMPDEST PUSH1 0x0 DUP1 REVERT INVALID PUSH2 0x3C0 PUSH1 0x40 MSTORE PUSH1 0x4 CALLDATASIZE LT ISZERO PUSH2 0x13 JUMPI PUSH1 0x0 DUP1 REVERT JUMPDEST PUSH1 0x0 CALLDATALOAD PUSH1 0xE0 SHR DUP1 PUSH4 0xCB6AAF1 EQ PUSH2 0x1441 JUMPI DUP1 PUSH4 0x637EEA19 EQ PUSH2 0x1418 JUMPI DUP1 PUSH4 0x70AEFAFA EQ PUSH2 0x4B1 JUMPI DUP1 PUSH4 0x83361522 EQ PUSH2 0x236 JUMPI DUP1 PUSH4 0xC212D16B EQ PUSH2 0x218 JUMPI PUSH4 0xDBC21424 EQ PUSH2 0x5F JUMPI PUSH1 0x0 DUP1 REVERT JUMPDEST CALLVALUE PUSH2 0x213 JUMPI PUSH1 0x20 CALLDATASIZE PUSH1 0x3 NOT ADD SLT PUSH2 0x213 JUMPI PUSH1 0x4 CALLDATALOAD PUSH1 0x1 PUSH1 0x1 PUSH1 0x40 SHL SUB DUP2 GT PUSH2 0x213 JUMPI CALLDATASIZE PUSH1 0x23 DUP3 ADD SLT ISZERO PUSH2 0x213 JUMPI CALLDATASIZE DUP2 PUSH1 0x4 ADD CALLDATALOAD SWAP2 PUSH1 0x24 ADD SWAP2 PUSH2 0xA0 SWAP3 PUSH2 0x166B JUMP JUMPDEST PUSH1 0x40 MLOAD DUP2 DUP2 DUP1 SWAP4 MLOAD PUSH1 0x20 DUP2 SWAP4 ADD SWAP2 PUSH2 0xB7 SWAP3 PUSH2 0x15F6 JUMP JUMPDEST DUP2 ADD PUSH1 0x1 DUP2 MSTORE SUB PUSH1 0x20 ADD SWAP1 KECCAK256 PUSH2 0xCC DUP2 PUSH2 0x1550 JUMP JUMPDEST PUSH2 0xD8 PUSH1 0x1 DUP4 ADD PUSH2 0x1550 JUMP JUMPDEST SWAP2 PUSH2 0xE5 PUSH1 0x2 DUP3 ADD PUSH2 0x1550 JUMP JUMPDEST SWAP1 PUSH2 0xF2 PUSH1 0x3 DUP3 ADD PUSH2 0x1550 JUMP JUMPDEST PUSH2 0xFE PUSH1 0x4 DUP4 ADD PUSH2 0x1550 JUMP JUMPDEST PUSH2 0x10A PUSH1 0x5 DUP5 ADD PUSH2 0x1550 JUMP JUMPDEST PUSH2 0x116 PUSH1 0x6 DUP6 ADD PUSH2 0x1550 JUMP JUMPDEST SWAP1 PUSH2 0x123 PUSH1 0x7 DUP7 ADD PUSH2 0x1550 JUMP JUMPDEST SWAP3 PUSH2 0x130 PUSH1 0x8 DUP8 ADD PUSH2 0x1550 JUMP JUMPDEST SWAP5 PUSH2 0x13D PUSH1 0x9 DUP9 ADD PUSH2 0x1550 JUMP JUMPDEST SWAP7 PUSH1 0xA ADD PUSH2 0x14A SWAP1 PUSH2 0x1550 JUMP JUMPDEST SWAP8 PUSH1 0x40 MLOAD SWAP11 DUP12 SWAP11 PUSH2 0x160 DUP1 DUP14 MSTORE DUP13 ADD PUSH2 0x162 SWAP2 PUSH2 0x1619 JUMP JUMPDEST DUP12 DUP2 SUB PUSH1 0x20 DUP14 ADD MSTORE PUSH2 0x173 SWAP2 PUSH2 0x1619 JUMP JUMPDEST DUP11 DUP2 SUB PUSH1 0x40 DUP13 ADD MSTORE PUSH2 0x184 SWAP2 PUSH2 0x1619 JUMP JUMPDEST DUP10 DUP2 SUB PUSH1 0x60 DUP12 ADD MSTORE PUSH2 0x195 SWAP2 PUSH2 0x1619 JUMP JUMPDEST DUP9 DUP2 SUB PUSH1 0x80 DUP11 ADD MSTORE PUSH2 0x1A6 SWAP2 PUSH2 0x1619 JUMP JUMPDEST DUP8 DUP2 SUB PUSH1 0xA0 DUP10 ADD MSTORE PUSH2 0x1B7 SWAP2 PUSH2 0x1619 JUMP JUMPDEST DUP7 DUP2 SUB PUSH1 0xC0 DUP9 ADD MSTORE PUSH2 0x1C8 SWAP2 PUSH2 0x1619 JUMP JUMPDEST DUP6 DUP2 SUB PUSH1 0xE0 DUP8 ADD MSTORE PUSH2 0x1D9 SWAP2 PUSH2 0x1619 JUMP JUMPDEST DUP5 DUP2 SUB PUSH2 0x100 DUP7 ADD MSTORE PUSH2 0x1EB SWAP2 PUSH2 0x1619 JUMP JUMPDEST DUP4 DUP2 SUB PUSH2 0x120 DUP6 ADD MSTORE PUSH2 0x1FD SWAP2 PUSH2 0x1619 JUMP JUMPDEST DUP3 DUP2 SUB PUSH2 0x140 DUP5 ADD MSTORE PUSH2 0x20F SWAP2 PUSH2 0x1619 JUMP JUMPDEST SUB SWAP1 RETURN JUMPDEST PUSH1 0x0 DUP1 REVERT JUMPDEST CALLVALUE PUSH2 0x213 JUMPI PUSH1 0x0 CALLDATASIZE PUSH1 0x3 NOT ADD SLT PUSH2 0x213 JUMPI PUSH1 0x20 PUSH1 0x2 SLOAD PUSH1 0x40 MLOAD SWAP1 DUP2 MSTORE RETURN JUMPDEST CALLVALUE PUSH2 0x213 JUMPI PUSH1 0x20 CALLDATASIZE PUSH1 0x3 NOT ADD SLT PUSH2 0x213 JUMPI PUSH1 0x4 CALLDATALOAD PUSH1 0x1 PUSH1 0x1 PUSH1 0x40 SHL SUB DUP2 GT PUSH2 0x213 JUMPI PUSH1 0x20 PUSH2 0x26B PUSH2 0x20F SWAP3 CALLDATASIZE SWAP1 PUSH1 0x4 ADD PUSH2 0x163E JUMP JUMPDEST SWAP2 SWAP1 PUSH1 0x60 PUSH2 0x140 PUSH1 0x40 MLOAD PUSH2 0x27E DUP2 PUSH2 0x1513 JUMP JUMPDEST DUP3 DUP2 MSTORE DUP3 DUP6 DUP3 ADD MSTORE DUP3 PUSH1 0x40 DUP3 ADD MSTORE DUP3 DUP1 DUP3 ADD MSTORE DUP3 PUSH1 0x80 DUP3 ADD MSTORE DUP3 PUSH1 0xA0 DUP3 ADD MSTORE DUP3 PUSH1 0xC0 DUP3 ADD MSTORE DUP3 PUSH1 0xE0 DUP3 ADD MSTORE DUP3 PUSH2 0x100 DUP3 ADD MSTORE DUP3 PUSH2 0x120 DUP3 ADD MSTORE ADD MSTORE DUP3 PUSH1 0x40 MLOAD SWAP4 DUP5 SWAP3 DUP4 CALLDATACOPY DUP2 ADD PUSH1 0x1 DUP2 MSTORE SUB ADD SWAP1 KECCAK256 PUSH2 0x38A PUSH1 0xA PUSH1 0x40 MLOAD SWAP3 PUSH2 0x2DE DUP5 PUSH2 0x1513 JUMP JUMPDEST PUSH2 0x2E7 DUP2 PUSH2 0x1550 JUMP JUMPDEST DUP5 MSTORE PUSH2 0x2F5 PUSH1 0x1 DUP3 ADD PUSH2 0x1550 JUMP JUMPDEST PUSH1 0x20 DUP6 ADD MSTORE PUSH2 0x306 PUSH1 0x2 DUP3 ADD PUSH2 0x1550 JUMP JUMPDEST PUSH1 0x40 DUP6 ADD MSTORE PUSH2 0x317 PUSH1 0x3 DUP3 ADD PUSH2 0x1550 JUMP JUMPDEST PUSH1 0x60 DUP6 ADD MSTORE PUSH2 0x328 PUSH1 0x4 DUP3 ADD PUSH2 0x1550 JUMP JUMPDEST PUSH1 0x80 DUP6 ADD MSTORE PUSH2 0x339 PUSH1 0x5 DUP3 ADD PUSH2 0x1550 JUMP JUMPDEST PUSH1 0xA0 DUP6 ADD MSTORE PUSH2 0x34A PUSH1 0x6 DUP3 ADD PUSH2 0x1550 JUMP JUMPDEST PUSH1 0xC0 DUP6 ADD MSTORE PUSH2 0x35B PUSH1 0x7 DUP3 ADD PUSH2 0x1550 JUMP JUMPDEST PUSH1 0xE0 DUP6 ADD MSTORE PUSH2 0x36C PUSH1 0x8 DUP3 ADD PUSH2 0x1550 JUMP JUMPDEST PUSH2 0x100 DUP6 ADD MSTORE PUSH2 0x37E PUSH1 0x9 DUP3 ADD PUSH2 0x1550 JUMP JUMPDEST PUSH2 0x120 DUP6 ADD MSTORE ADD PUSH2 0x1550 JUMP JUMPDEST PUSH2 0x140 DUP3 ADD MSTORE PUSH1 0x40 MLOAD SWAP2 DUP3 SWAP2 PUSH1 0x20 DUP4 MSTORE PUSH2 0x140 PUSH2 0x49C PUSH2 0x486 PUSH2 0x46E PUSH2 0x457 PUSH2 0x441 PUSH2 0x42B PUSH2 0x415 PUSH2 0x3FF PUSH2 0x3E9 PUSH2 0x3D1 DUP14 PUSH2 0x180 DUP14 MLOAD SWAP2 PUSH2 0x160 PUSH1 0x20 DUP3 ADD MSTORE ADD SWAP1 PUSH2 0x1619 JUMP JUMPDEST DUP14 PUSH1 0x20 DUP14 ADD MLOAD SWAP1 PUSH1 0x40 PUSH1 0x1F NOT DUP3 DUP6 SUB ADD SWAP2 ADD MSTORE PUSH2 0x1619 JUMP JUMPDEST PUSH1 0x40 DUP12 ADD MLOAD DUP14 DUP3 SUB PUSH1 0x1F NOT ADD PUSH1 0x60 DUP16 ADD MSTORE PUSH2 0x1619 JUMP JUMPDEST PUSH1 0x60 DUP11 ADD MLOAD DUP13 DUP3 SUB PUSH1 0x1F NOT ADD PUSH1 0x80 DUP15 ADD MSTORE PUSH2 0x1619 JUMP JUMPDEST PUSH1 0x80 DUP10 ADD MLOAD DUP12 DUP3 SUB PUSH1 0x1F NOT ADD PUSH1 0xA0 DUP14 ADD MSTORE PUSH2 0x1619 JUMP JUMPDEST PUSH1 0xA0 DUP9 ADD MLOAD DUP11 DUP3 SUB PUSH1 0x1F NOT ADD PUSH1 0xC0 DUP13 ADD MSTORE PUSH2 0x1619 JUMP JUMPDEST PUSH1 0xC0 DUP8 ADD MLOAD DUP10 DUP3 SUB PUSH1 0x1F NOT ADD PUSH1 0xE0 DUP12 ADD MSTORE PUSH2 0x1619 JUMP JUMPDEST PUSH1 0xE0 DUP7 ADD MLOAD DUP9 DUP3 SUB PUSH1 0x1F NOT ADD PUSH2 0x100 DUP11 ADD MSTORE PUSH2 0x1619 JUMP JUMPDEST PUSH2 0x100 DUP6 ADD MLOAD DUP8 DUP3 SUB PUSH1 0x1F NOT ADD PUSH2 0x120 DUP10 ADD MSTORE PUSH2 0x1619 JUMP JUMPDEST PUSH2 0x120 DUP5 ADD MLOAD DUP7 DUP3 SUB PUSH1 0x1F NOT ADD DUP5 DUP9 ADD MSTORE PUSH2 0x1619 JUMP JUMPDEST SWAP2 ADD MLOAD DUP4 DUP3 SUB PUSH1 0x1F NOT ADD PUSH2 0x160 DUP6 ADD MSTORE PUSH2 0x1619 JUMP JUMPDEST CALLVALUE PUSH2 0x213 JUMPI PUSH2 0x180 CALLDATASIZE PUSH1 0x3 NOT ADD SLT PUSH2 0x213 JUMPI PUSH1 0x4 CALLDATALOAD PUSH1 0x1 PUSH1 0x1 PUSH1 0x40 SHL SUB DUP2 GT PUSH2 0x213 JUMPI PUSH2 0x4E2 SWAP1 CALLDATASIZE SWAP1 PUSH1 0x4 ADD PUSH2 0x163E JUMP JUMPDEST PUSH2 0x1C0 MSTORE PUSH1 0xA0 MSTORE PUSH1 0x24 CALLDATALOAD PUSH1 0x1 PUSH1 0x1 PUSH1 0x40 SHL SUB DUP2 GT PUSH2 0x213 JUMPI PUSH2 0x508 SWAP1 CALLDATASIZE SWAP1 PUSH1 0x4 ADD PUSH2 0x163E JUMP JUMPDEST PUSH2 0x160 MSTORE PUSH2 0x180 MSTORE PUSH1 0x44 CALLDATALOAD PUSH1 0x1 PUSH1 0x1 PUSH1 0x40 SHL SUB DUP2 GT PUSH2 0x213 JUMPI PUSH2 0x52F SWAP1 CALLDATASIZE SWAP1 PUSH1 0x4 ADD PUSH2 0x163E JUMP JUMPDEST PUSH2 0x260 MSTORE PUSH2 0x220 MSTORE PUSH1 0x64 CALLDATALOAD PUSH1 0x1 PUSH1 0x1 PUSH1 0x40 SHL SUB DUP2 GT PUSH2 0x213 JUMPI PUSH2 0x556 SWAP1 CALLDATASIZE SWAP1 PUSH1 0x4 ADD PUSH2 0x163E JUMP JUMPDEST PUSH2 0x120 MSTORE PUSH2 0x360 MSTORE PUSH1 0x84 CALLDATALOAD PUSH1 0x1 PUSH1 0x1 PUSH1 0x40 SHL SUB DUP2 GT PUSH2 0x213 JUMPI PUSH2 0x57D SWAP1 CALLDATASIZE SWAP1 PUSH1 0x4 ADD PUSH2 0x163E JUMP JUMPDEST PUSH2 0x2C0 MSTORE PUSH2 0x140 MSTORE PUSH1 0xA4 CALLDATALOAD PUSH1 0x1 PUSH1 0x1 PUSH1 0x40 SHL SUB DUP2 GT PUSH2 0x213 JUMPI PUSH2 0x5A4 SWAP1 CALLDATASIZE SWAP1 PUSH1 0x4 ADD PUSH2 0x163E JUMP JUMPDEST PUSH1 0x80 MSTORE PUSH2 0x2E0 MSTORE PUSH1 0xC4 CALLDATALOAD PUSH1 0x1 PUSH1 0x1 PUSH1 0x40 SHL SUB DUP2 GT PUSH2 0x213 JUMPI PUSH2 0x5CA SWAP1 CALLDATASIZE SWAP1 PUSH1 0x4 ADD PUSH2 0x163E JUMP JUMPDEST PUSH2 0x2A0 MSTORE PUSH2 0x340 MSTORE PUSH1 0x1 PUSH1 0x1 PUSH1 0x40 SHL SUB PUSH1 0xE4 CALLDATALOAD GT PUSH2 0x213 JUMPI PUSH2 0x5F1 CALLDATASIZE PUSH1 0xE4 CALLDATALOAD PUSH1 0x4 ADD PUSH2 0x163E JUMP JUMPDEST PUSH2 0x320 MSTORE PUSH1 0xC0 MSTORE PUSH1 0x1 PUSH1 0x1 PUSH1 0x40 SHL SUB PUSH2 0x104 CALLDATALOAD GT PUSH2 0x213 JUMPI PUSH2 0x619 CALLDATASIZE PUSH2 0x104 CALLDATALOAD PUSH1 0x4 ADD PUSH2 0x163E JUMP JUMPDEST PUSH1 0xE0 MSTORE PUSH2 0x280 MSTORE PUSH1 0x1 PUSH1 0x1 PUSH1 0x40 SHL SUB PUSH2 0x124 CALLDATALOAD GT PUSH2 0x213 JUMPI PUSH2 0x641 CALLDATASIZE PUSH2 0x124 CALLDATALOAD PUSH1 0x4 ADD PUSH2 0x163E JUMP JUMPDEST PUSH2 0x100 MSTORE PUSH2 0x3A0 MSTORE PUSH2 0x144 CALLDATALOAD PUSH1 0x1 PUSH1 0x1 PUSH1 0x40 SHL SUB DUP2 GT PUSH2 0x213 JUMPI PUSH2 0x669 SWAP1 CALLDATASIZE SWAP1 PUSH1 0x4 ADD PUSH2 0x163E JUMP JUMPDEST PUSH2 0x1E0 MSTORE PUSH2 0x300 MSTORE PUSH2 0x164 CALLDATALOAD PUSH1 0x1 PUSH1 0x1 PUSH1 0x40 SHL SUB DUP2 GT PUSH2 0x213 JUMPI PUSH2 0x691 SWAP1 CALLDATASIZE SWAP1 PUSH1 0x4 ADD PUSH2 0x163E JUMP JUMPDEST PUSH2 0x240 MSTORE PUSH2 0x200 MSTORE PUSH1 0x0 SLOAD PUSH1 0x1 PUSH1 0x1 PUSH1 0xA0 SHL SUB AND CALLER SUB PUSH2 0x13E5 JUMPI PUSH2 0x6BB PUSH1 0x40 MLOAD DUP1 PUSH2 0x380 MSTORE PUSH2 0x1513 JUMP JUMPDEST PUSH2 0x6CC CALLDATASIZE PUSH2 0x160 MLOAD PUSH2 0x180 MLOAD PUSH2 0x166B JUMP JUMPDEST PUSH2 0x380 MLOAD MSTORE PUSH2 0x6E2 CALLDATASIZE PUSH2 0x260 MLOAD PUSH2 0x220 MLOAD PUSH2 0x166B JUMP JUMPDEST PUSH1 0x20 PUSH2 0x380 MLOAD ADD MSTORE PUSH2 0x6FB CALLDATASIZE PUSH2 0x120 MLOAD PUSH2 0x360 MLOAD PUSH2 0x166B JUMP JUMPDEST PUSH1 0x40 PUSH2 0x380 MLOAD ADD MSTORE PUSH2 0x714 CALLDATASIZE PUSH2 0x2C0 MLOAD PUSH2 0x140 MLOAD PUSH2 0x166B JUMP JUMPDEST PUSH1 0x60 PUSH2 0x380 MLOAD ADD MSTORE PUSH2 0x72C CALLDATASIZE PUSH1 0x80 MLOAD PUSH2 0x2E0 MLOAD PUSH2 0x166B JUMP JUMPDEST PUSH1 0x80 PUSH2 0x380 MLOAD ADD MSTORE PUSH2 0x745 CALLDATASIZE PUSH2 0x2A0 MLOAD PUSH2 0x340 MLOAD PUSH2 0x166B JUMP JUMPDEST PUSH1 0xA0 PUSH2 0x380 MLOAD ADD MSTORE PUSH2 0x75D CALLDATASIZE PUSH2 0x320 MLOAD PUSH1 0xC0 MLOAD PUSH2 0x166B JUMP JUMPDEST PUSH1 0xC0 PUSH2 0x380 MLOAD ADD MSTORE PUSH2 0x775 CALLDATASIZE PUSH1 0xE0 MLOAD PUSH2 0x280 MLOAD PUSH2 0x166B JUMP JUMPDEST PUSH1 0xE0 PUSH2 0x380 MLOAD ADD MSTORE PUSH2 0x78E CALLDATASIZE PUSH2 0x100 MLOAD PUSH2 0x3A0 MLOAD PUSH2 0x166B JUMP JUMPDEST PUSH2 0x100 PUSH2 0x380 MLOAD ADD MSTORE PUSH2 0x7A8 CALLDATASIZE PUSH2 0x1E0 MLOAD PUSH2 0x300 MLOAD PUSH2 0x166B JUMP JUMPDEST PUSH2 0x120 PUSH2 0x380 MLOAD ADD MSTORE PUSH2 0x7C2 CALLDATASIZE PUSH2 0x240 MLOAD PUSH2 0x200 MLOAD PUSH2 0x166B JUMP JUMPDEST PUSH2 0x140 PUSH2 0x380 MLOAD ADD MSTORE PUSH1 0x40 MLOAD PUSH2 0x1C0 MLOAD PUSH1 0xA0 MLOAD DUP3 CALLDATACOPY PUSH1 0x1 PUSH2 0x1C0 MLOAD DUP3 ADD MSTORE PUSH1 0x20 DUP2 PUSH2 0x1C0 MLOAD DUP2 ADD SUB ADD SWAP1 KECCAK256 PUSH2 0x380 MLOAD MLOAD SWAP1 DUP2 MLOAD PUSH1 0x1 PUSH1 0x1 PUSH1 0x40 SHL SUB DUP2 GT PUSH2 0xE8D JUMPI PUSH2 0x817 DUP2 PUSH2 0x811 DUP5 SLOAD PUSH2 0x14D9 JUMP JUMPDEST DUP5 PUSH2 0x16B1 JUMP JUMPDEST PUSH1 0x20 PUSH1 0x1F DUP3 GT PUSH1 0x1 EQ PUSH2 0x1380 JUMPI DUP2 SWAP3 SWAP4 PUSH1 0x0 SWAP3 PUSH2 0x1375 JUMPI JUMPDEST POP POP DUP2 PUSH1 0x1 SHL SWAP2 PUSH1 0x0 NOT SWAP1 PUSH1 0x3 SHL SHR NOT AND OR DUP2 SSTORE JUMPDEST PUSH1 0x20 PUSH2 0x380 MLOAD ADD MLOAD SWAP1 DUP2 MLOAD PUSH1 0x1 PUSH1 0x1 PUSH1 0x40 SHL SUB DUP2 GT PUSH2 0xE8D JUMPI PUSH1 0x1 DUP3 ADD SWAP1 PUSH2 0x870 DUP2 PUSH2 0x811 DUP5 SLOAD PUSH2 0x14D9 JUMP JUMPDEST PUSH1 0x20 PUSH1 0x1F DUP3 GT PUSH1 0x1 EQ PUSH2 0x130F JUMPI DUP2 SWAP3 SWAP4 SWAP5 PUSH1 0x0 SWAP3 PUSH2 0x1304 JUMPI JUMPDEST POP POP DUP2 PUSH1 0x1 SHL SWAP2 PUSH1 0x0 NOT SWAP1 PUSH1 0x3 SHL SHR NOT AND OR SWAP1 SSTORE JUMPDEST PUSH1 0x40 PUSH2 0x380 MLOAD ADD MLOAD SWAP1 DUP2 MLOAD PUSH1 0x1 PUSH1 0x1 PUSH1 0x40 SHL SUB DUP2 GT PUSH2 0xE8D JUMPI PUSH1 0x2 DUP3 ADD SWAP1 PUSH2 0x8CA DUP2 PUSH2 0x811 DUP5 SLOAD PUSH2 0x14D9 JUMP JUMPDEST PUSH1 0x20 PUSH1 0x1F DUP3 GT PUSH1 0x1 EQ PUSH2 0x129E JUMPI DUP2 SWAP3 SWAP4 SWAP5 PUSH1 0x0 SWAP3 PUSH2 0x1293 JUMPI JUMPDEST POP POP DUP2 PUSH1 0x1 SHL SWAP2 PUSH1 0x0 NOT SWAP1 PUSH1 0x3 SHL SHR NOT AND OR SWAP1 SSTORE JUMPDEST PUSH1 0x60 PUSH2 0x380 MLOAD ADD MLOAD DUP1 MLOAD SWAP1 PUSH1 0x1 PUSH1 0x1 PUSH1 0x40 SHL SUB DUP3 GT PUSH2 0xE8D JUMPI DUP2 SWAP1 PUSH2 0x92D DUP3 PUSH2 0x924 PUSH1 0x3 DUP8 ADD SLOAD PUSH2 0x14D9 JUMP JUMPDEST PUSH1 0x3 DUP8 ADD PUSH2 0x16B1 JUMP JUMPDEST PUSH1 0x20 SWAP1 PUSH1 0x1F DUP4 GT PUSH1 0x1 EQ PUSH2 0x1221 JUMPI PUSH1 0x0 SWAP3 PUSH2 0x1216 JUMPI JUMPDEST POP POP DUP2 PUSH1 0x1 SHL SWAP2 PUSH1 0x0 NOT SWAP1 PUSH1 0x3 SHL SHR NOT AND OR PUSH1 0x3 DUP3 ADD SSTORE JUMPDEST PUSH1 0x80 PUSH2 0x380 MLOAD ADD MLOAD DUP1 MLOAD SWAP1 PUSH1 0x1 PUSH1 0x1 PUSH1 0x40 SHL SUB DUP3 GT PUSH2 0xE8D JUMPI DUP2 SWAP1 PUSH2 0x990 DUP3 PUSH2 0x987 PUSH1 0x4 DUP8 ADD SLOAD PUSH2 0x14D9 JUMP JUMPDEST PUSH1 0x4 DUP8 ADD PUSH2 0x16B1 JUMP JUMPDEST PUSH1 0x20 SWAP1 PUSH1 0x1F DUP4 GT PUSH1 0x1 EQ PUSH2 0x11A4 JUMPI PUSH1 0x0 SWAP3 PUSH2 0x1199 JUMPI JUMPDEST POP POP DUP2 PUSH1 0x1 SHL SWAP2 PUSH1 0x0 NOT SWAP1 PUSH1 0x3 SHL SHR NOT AND OR PUSH1 0x4 DUP3 ADD SSTORE JUMPDEST PUSH1 0xA0 PUSH2 0x380 MLOAD ADD MLOAD DUP1 MLOAD SWAP1 PUSH1 0x1 PUSH1 0x1 PUSH1 0x40 SHL SUB DUP3 GT PUSH2 0xE8D JUMPI DUP2 SWAP1 PUSH2 0x9F3 DUP3 PUSH2 0x9EA PUSH1 0x5 DUP8 ADD SLOAD PUSH2 0x14D9 JUMP JUMPDEST PUSH1 0x5 DUP8 ADD PUSH2 0x16B1 JUMP JUMPDEST PUSH1 0x20 SWAP1 PUSH1 0x1F DUP4 GT PUSH1 0x1 EQ PUSH2 0x1127 JUMPI PUSH1 0x0 SWAP3 PUSH2 0x111C JUMPI JUMPDEST POP POP DUP2 PUSH1 0x1 SHL SWAP2 PUSH1 0x0 NOT SWAP1 PUSH1 0x3 SHL SHR NOT AND OR PUSH1 0x5 DUP3 ADD SSTORE JUMPDEST PUSH1 0xC0 PUSH2 0x380 MLOAD ADD MLOAD DUP1 MLOAD SWAP1 PUSH1 0x1 PUSH1 0x1 PUSH1 0x40 SHL SUB DUP3 GT PUSH2 0xE8D JUMPI DUP2 SWAP1 PUSH2 0xA56 DUP3 PUSH2 0xA4D PUSH1 0x6 DUP8 ADD SLOAD PUSH2 0x14D9 JUMP JUMPDEST PUSH1 0x6 DUP8 ADD PUSH2 0x16B1 JUMP JUMPDEST PUSH1 0x20 SWAP1 PUSH1 0x1F DUP4 GT PUSH1 0x1 EQ PUSH2 0x10AA JUMPI PUSH1 0x0 SWAP3 PUSH2 0x109F JUMPI JUMPDEST POP POP DUP2 PUSH1 0x1 SHL SWAP2 PUSH1 0x0 NOT SWAP1 PUSH1 0x3 SHL SHR NOT AND OR PUSH1 0x6 DUP3 ADD SSTORE JUMPDEST PUSH1 0xE0 PUSH2 0x380 MLOAD ADD MLOAD DUP1 MLOAD SWAP1 PUSH1 0x1 PUSH1 0x1 PUSH1 0x40 SHL SUB DUP3 GT PUSH2 0xE8D JUMPI DUP2 SWAP1 PUSH2 0xAB9 DUP3 PUSH2 0xAB0 PUSH1 0x7 DUP8 ADD SLOAD PUSH2 0x14D9 JUMP JUMPDEST PUSH1 0x7 DUP8 ADD PUSH2 0x16B1 JUMP JUMPDEST PUSH1 0x20 SWAP1 PUSH1 0x1F DUP4 GT PUSH1 0x1 EQ PUSH2 0x102D JUMPI PUSH1 0x0 SWAP3 PUSH2 0x1022 JUMPI JUMPDEST POP POP DUP2 PUSH1 0x1 SHL SWAP2 PUSH1 0x0 NOT SWAP1 PUSH1 0x3 SHL SHR NOT AND OR PUSH1 0x7 DUP3 ADD SSTORE JUMPDEST PUSH2 0x100 PUSH2 0x380 MLOAD ADD MLOAD DUP1 MLOAD SWAP1 PUSH1 0x1 PUSH1 0x1 PUSH1 0x40 SHL SUB DUP3 GT PUSH2 0xE8D JUMPI DUP2 SWAP1 PUSH2 0xB1D DUP3 PUSH2 0xB14 PUSH1 0x8 DUP8 ADD SLOAD PUSH2 0x14D9 JUMP JUMPDEST PUSH1 0x8 DUP8 ADD PUSH2 0x16B1 JUMP JUMPDEST PUSH1 0x20 SWAP1 PUSH1 0x1F DUP4 GT PUSH1 0x1 EQ PUSH2 0xFB0 JUMPI PUSH1 0x0 SWAP3 PUSH2 0xFA5 JUMPI JUMPDEST POP POP DUP2 PUSH1 0x1 SHL SWAP2 PUSH1 0x0 NOT SWAP1 PUSH1 0x3 SHL SHR NOT AND OR PUSH1 0x8 DUP3 ADD SSTORE JUMPDEST PUSH2 0x120 PUSH2 0x380 MLOAD ADD MLOAD DUP1 MLOAD SWAP1 PUSH1 0x1 PUSH1 0x1 PUSH1 0x40 SHL SUB DUP3 GT PUSH2 0xE8D JUMPI DUP2 SWAP1 PUSH2 0xB81 DUP3 PUSH2 0xB78 PUSH1 0x9 DUP8 ADD SLOAD PUSH2 0x14D9 JUMP JUMPDEST PUSH1 0x9 DUP8 ADD PUSH2 0x16B1 JUMP JUMPDEST PUSH1 0x20 SWAP1 PUSH1 0x1F DUP4 GT PUSH1 0x1 EQ PUSH2 0xF33 JUMPI PUSH1 0x0 SWAP3 PUSH2 0xF28 JUMPI JUMPDEST POP POP DUP2 PUSH1 0x1 SHL SWAP2 PUSH1 0x0 NOT SWAP1 PUSH1 0x3 SHL SHR NOT AND OR PUSH1 0x9 DUP3 ADD SSTORE JUMPDEST PUSH2 0x140 PUSH2 0x380 MLOAD ADD MLOAD SWAP1 DUP2 MLOAD SWAP1 PUSH1 0x1 PUSH1 0x1 PUSH1 0x40 SHL SUB DUP3 GT PUSH2 0xE8D JUMPI PUSH1 0xA ADD SWAP1 PUSH2 0xBDC DUP2 PUSH2 0x811 DUP5 SLOAD PUSH2 0x14D9 JUMP JUMPDEST PUSH1 0x20 SWAP3 PUSH1 0x1F DUP3 GT PUSH1 0x1 EQ PUSH2 0xEC4 JUMPI SWAP3 DUP2 SWAP3 SWAP4 PUSH1 0x0 SWAP3 PUSH2 0xEB9 JUMPI JUMPDEST POP POP DUP2 PUSH1 0x1 SHL SWAP2 PUSH1 0x0 NOT SWAP1 PUSH1 0x3 SHL SHR NOT AND OR SWAP1 SSTORE JUMPDEST PUSH1 0x2 SLOAD PUSH9 0x10000000000000000 DUP2 LT ISZERO PUSH2 0xE8D JUMPI DUP1 PUSH1 0x1 PUSH2 0xC2F SWAP3 ADD PUSH1 0x2 SSTORE PUSH2 0x148C JUMP JUMPDEST PUSH2 0xEA3 JUMPI PUSH2 0x1C0 MLOAD PUSH1 0x1 PUSH1 0x1 PUSH1 0x40 SHL SUB DUP2 GT PUSH2 0xE8D JUMPI PUSH2 0xC59 SWAP1 PUSH2 0xC53 DUP4 SLOAD PUSH2 0x14D9 JUMP JUMPDEST DUP4 PUSH2 0x16B1 JUMP JUMPDEST PUSH1 0x0 SWAP1 PUSH2 0x1C0 MLOAD PUSH1 0x1F DUP2 GT PUSH1 0x1 EQ PUSH2 0xE21 JUMPI POP SWAP1 PUSH1 0x0 PUSH2 0x1C0 MLOAD SWAP2 DUP3 PUSH2 0xE14 JUMPI JUMPDEST POP DUP2 PUSH1 0x1 SHL SWAP2 PUSH1 0x0 NOT SWAP1 PUSH1 0x3 SHL SHR NOT AND OR SWAP1 SSTORE JUMPDEST PUSH2 0x180 PUSH1 0x40 MLOAD DUP1 PUSH2 0x1A0 MSTORE MSTORE PUSH32 0xEC5BD274385CBD9B06183314A5AB8A6C769B115E795A4F455CF9CF103B914C00 PUSH2 0xDEA PUSH2 0xDD0 PUSH2 0xDB6 PUSH2 0xD9D PUSH2 0xD85 PUSH2 0xD6C PUSH2 0xD54 PUSH2 0xD3B PUSH2 0xD22 PUSH2 0xD09 PUSH2 0xCF0 PUSH2 0x180 PUSH2 0x1A0 MLOAD ADD PUSH2 0x1C0 MLOAD PUSH1 0xA0 MLOAD PUSH2 0x1705 JUMP JUMPDEST PUSH2 0x1A0 MLOAD PUSH1 0x20 DUP2 DUP4 SUB SWAP2 ADD MSTORE PUSH2 0x160 MLOAD PUSH2 0x180 MLOAD PUSH2 0x1705 JUMP JUMPDEST PUSH2 0x1A0 MLOAD PUSH1 0x40 DUP2 DUP4 SUB SWAP2 ADD MSTORE PUSH2 0x260 MLOAD PUSH2 0x220 MLOAD PUSH2 0x1705 JUMP JUMPDEST PUSH2 0x1A0 MLOAD PUSH1 0x60 DUP2 DUP4 SUB SWAP2 ADD MSTORE PUSH2 0x120 MLOAD PUSH2 0x360 MLOAD PUSH2 0x1705 JUMP JUMPDEST PUSH2 0x1A0 MLOAD PUSH1 0x80 DUP2 DUP4 SUB SWAP2 ADD MSTORE PUSH2 0x2C0 MLOAD PUSH2 0x140 MLOAD PUSH2 0x1705 JUMP JUMPDEST PUSH2 0x1A0 MLOAD PUSH1 0xA0 DUP2 DUP4 SUB SWAP2 ADD MSTORE PUSH1 0x80 MLOAD PUSH2 0x2E0 MLOAD PUSH2 0x1705 JUMP JUMPDEST PUSH2 0x1A0 MLOAD PUSH1 0xC0 DUP2 DUP4 SUB SWAP2 ADD MSTORE PUSH2 0x2A0 MLOAD PUSH2 0x340 MLOAD PUSH2 0x1705 JUMP JUMPDEST PUSH2 0x1A0 MLOAD PUSH1 0xE0 DUP2 DUP4 SUB SWAP2 ADD MSTORE PUSH2 0x320 MLOAD PUSH1 0xC0 MLOAD PUSH2 0x1705 JUMP JUMPDEST PUSH2 0x1A0 MLOAD PUSH2 0x100 DUP2 DUP4 SUB SWAP2 ADD MSTORE PUSH1 0xE0 MLOAD PUSH2 0x280 MLOAD PUSH2 0x1705 JUMP JUMPDEST PUSH2 0x1A0 MLOAD PUSH2 0x120 DUP2 DUP4 SUB SWAP2 ADD MSTORE PUSH2 0x100 MLOAD PUSH2 0x3A0 MLOAD PUSH2 0x1705 JUMP JUMPDEST PUSH2 0x1A0 MLOAD PUSH2 0x140 DUP2 DUP4 SUB SWAP2 ADD MSTORE PUSH2 0x1E0 MLOAD PUSH2 0x300 MLOAD PUSH2 0x1705 JUMP JUMPDEST PUSH2 0x1A0 MLOAD PUSH2 0x160 DUP2 DUP4 SUB SWAP2 ADD MSTORE PUSH2 0xE0C PUSH2 0x1A0 MLOAD SWAP2 PUSH2 0x240 MLOAD PUSH2 0x200 MLOAD PUSH2 0x1705 JUMP JUMPDEST SUB PUSH2 0x1A0 MLOAD LOG1 STOP JUMPDEST SWAP1 POP PUSH1 0xA0 MLOAD ADD CALLDATALOAD DUP4 PUSH2 0xC7A JUMP JUMPDEST DUP2 PUSH1 0x0 MSTORE PUSH1 0x20 PUSH1 0x0 KECCAK256 PUSH1 0x0 SWAP4 PUSH1 0xA0 MLOAD SWAP1 JUMPDEST PUSH1 0x1F NOT DUP5 AND DUP7 LT PUSH2 0xE75 JUMPI PUSH1 0x1 SWAP5 SWAP6 POP DUP4 PUSH1 0x1F NOT DUP2 AND LT PUSH2 0xE5B JUMPI JUMPDEST POP POP POP DUP2 SHL ADD SWAP1 SSTORE PUSH2 0xC8E JUMP JUMPDEST ADD CALLDATALOAD PUSH1 0x0 NOT PUSH1 0x3 DUP5 SWAP1 SHL PUSH1 0xF8 AND SHR NOT AND SWAP1 SSTORE DUP4 DUP1 DUP1 PUSH2 0xE4E JUMP JUMPDEST SWAP2 PUSH1 0x20 PUSH1 0x1 DUP2 SWAP3 DUP6 DUP6 ADD CALLDATALOAD DUP2 SSTORE ADD SWAP4 ADD SWAP6 ADD SWAP5 PUSH2 0xE32 JUMP JUMPDEST PUSH4 0x4E487B71 PUSH1 0xE0 SHL PUSH1 0x0 MSTORE PUSH1 0x41 PUSH1 0x4 MSTORE PUSH1 0x24 PUSH1 0x0 REVERT JUMPDEST PUSH4 0x4E487B71 PUSH1 0xE0 SHL PUSH1 0x0 MSTORE PUSH1 0x0 PUSH1 0x4 MSTORE PUSH1 0x24 PUSH1 0x0 REVERT JUMPDEST ADD MLOAD SWAP1 POP DUP4 DUP1 PUSH2 0xBF6 JUMP JUMPDEST PUSH1 0x1F NOT DUP3 AND SWAP4 DUP4 PUSH1 0x0 MSTORE PUSH1 0x20 PUSH1 0x0 KECCAK256 SWAP2 PUSH1 0x0 JUMPDEST DUP7 DUP2 LT PUSH2 0xF10 JUMPI POP DUP4 PUSH1 0x1 SWAP6 SWAP7 LT PUSH2 0xEF7 JUMPI JUMPDEST POP POP POP DUP2 SHL ADD SWAP1 SSTORE PUSH2 0xC0B JUMP JUMPDEST ADD MLOAD PUSH1 0x0 NOT PUSH1 0xF8 DUP5 PUSH1 0x3 SHL AND SHR NOT AND SWAP1 SSTORE DUP4 DUP1 DUP1 PUSH2 0xEEA JUMP JUMPDEST SWAP2 SWAP3 PUSH1 0x20 PUSH1 0x1 DUP2 SWAP3 DUP7 DUP6 ADD MLOAD DUP2 SSTORE ADD SWAP5 ADD SWAP3 ADD PUSH2 0xED7 JUMP JUMPDEST ADD MLOAD SWAP1 POP DUP4 DUP1 PUSH2 0xB97 JUMP JUMPDEST SWAP3 POP PUSH1 0x9 DUP5 ADD PUSH1 0x0 MSTORE PUSH1 0x20 PUSH1 0x0 KECCAK256 SWAP1 PUSH1 0x0 SWAP4 JUMPDEST PUSH1 0x1F NOT DUP5 AND DUP6 LT PUSH2 0xF8A JUMPI PUSH1 0x1 SWAP5 POP DUP4 PUSH1 0x1F NOT DUP2 AND LT PUSH2 0xF71 JUMPI JUMPDEST POP POP POP DUP2 SHL ADD PUSH1 0x9 DUP3 ADD SSTORE PUSH2 0xBAF JUMP JUMPDEST ADD MLOAD PUSH1 0x0 NOT PUSH1 0xF8 DUP5 PUSH1 0x3 SHL AND SHR NOT AND SWAP1 SSTORE DUP4 DUP1 DUP1 PUSH2 0xF61 JUMP JUMPDEST DUP2 DUP2 ADD MLOAD DUP4 SSTORE PUSH1 0x20 SWAP5 DUP6 ADD SWAP5 PUSH1 0x1 SWAP1 SWAP4 ADD SWAP3 SWAP1 SWAP2 ADD SWAP1 PUSH2 0xF46 JUMP JUMPDEST ADD MLOAD SWAP1 POP DUP4 DUP1 PUSH2 0xB33 JUMP JUMPDEST SWAP3 POP PUSH1 0x8 DUP5 ADD PUSH1 0x0 MSTORE PUSH1 0x20 PUSH1 0x0 KECCAK256 SWAP1 PUSH1 0x0 SWAP4 JUMPDEST PUSH1 0x1F NOT DUP5 AND DUP6 LT PUSH2 0x1007 JUMPI PUSH1 0x1 SWAP5 POP DUP4 PUSH1 0x1F NOT DUP2 AND LT PUSH2 0xFEE JUMPI JUMPDEST POP POP POP DUP2 SHL ADD PUSH1 0x8 DUP3 ADD SSTORE PUSH2 0xB4B JUMP JUMPDEST ADD MLOAD PUSH1 0x0 NOT PUSH1 0xF8 DUP5 PUSH1 0x3 SHL AND SHR NOT AND SWAP1 SSTORE DUP4 DUP1 DUP1 PUSH2 0xFDE JUMP JUMPDEST DUP2 DUP2 ADD MLOAD DUP4 SSTORE PUSH1 0x20 SWAP5 DUP6 ADD SWAP5 PUSH1 0x1 SWAP1 SWAP4 ADD SWAP3 SWAP1 SWAP2 ADD SWAP1 PUSH2 0xFC3 JUMP JUMPDEST ADD MLOAD SWAP1 POP DUP4 DUP1 PUSH2 0xACF JUMP JUMPDEST SWAP3 POP PUSH1 0x7 DUP5 ADD PUSH1 0x0 MSTORE PUSH1 0x20 PUSH1 0x0 KECCAK256 SWAP1 PUSH1 0x0 SWAP4 JUMPDEST PUSH1 0x1F NOT DUP5 AND DUP6 LT PUSH2 0x1084 JUMPI PUSH1 0x1 SWAP5 POP DUP4 PUSH1 0x1F NOT DUP2 AND LT PUSH2 0x106B JUMPI JUMPDEST POP POP POP DUP2 SHL ADD PUSH1 0x7 DUP3 ADD SSTORE PUSH2 0xAE7 JUMP JUMPDEST ADD MLOAD PUSH1 0x0 NOT PUSH1 0xF8 DUP5 PUSH1 0x3 SHL AND SHR NOT AND SWAP1 SSTORE DUP4 DUP1 DUP1 PUSH2 0x105B JUMP JUMPDEST DUP2 DUP2 ADD MLOAD DUP4 SSTORE PUSH1 0x20 SWAP5 DUP6 ADD SWAP5 PUSH1 0x1 SWAP1 SWAP4 ADD SWAP3 SWAP1 SWAP2 ADD SWAP1 PUSH2 0x1040 JUMP JUMPDEST ADD MLOAD SWAP1 POP DUP4 DUP1 PUSH2 0xA6C JUMP JUMPDEST SWAP3 POP PUSH1 0x6 DUP5 ADD PUSH1 0x0 MSTORE PUSH1 0x20 PUSH1 0x0 KECCAK256 SWAP1 PUSH1 0x0 SWAP4 JUMPDEST PUSH1 0x1F NOT DUP5 AND DUP6 LT PUSH2 0x1101 JUMPI PUSH1 0x1 SWAP5 POP DUP4 PUSH1 0x1F NOT DUP2 AND LT PUSH2 0x10E8 JUMPI JUMPDEST POP POP POP DUP2 SHL ADD PUSH1 0x6 DUP3 ADD SSTORE PUSH2 0xA84 JUMP JUMPDEST ADD MLOAD PUSH1 0x0 NOT PUSH1 0xF8 DUP5 PUSH1 0x3 SHL AND SHR NOT AND SWAP1 SSTORE DUP4 DUP1 DUP1 PUSH2 0x10D8 JUMP JUMPDEST DUP2 DUP2 ADD MLOAD DUP4 SSTORE PUSH1 0x20 SWAP5 DUP6 ADD SWAP5 PUSH1 0x1 SWAP1 SWAP4 ADD SWAP3 SWAP1 SWAP2 ADD SWAP1 PUSH2 0x10BD JUMP JUMPDEST ADD MLOAD SWAP1 POP DUP4 DUP1 PUSH2 0xA09 JUMP JUMPDEST SWAP3 POP PUSH1 0x5 DUP5 ADD PUSH1 0x0 MSTORE PUSH1 0x20 PUSH1 0x0 KECCAK256 SWAP1 PUSH1 0x0 SWAP4 JUMPDEST PUSH1 0x1F NOT DUP5 AND DUP6 LT PUSH2 0x117E JUMPI PUSH1 0x1 SWAP5 POP DUP4 PUSH1 0x1F NOT DUP2 AND LT PUSH2 0x1165 JUMPI JUMPDEST POP POP POP DUP2 SHL ADD PUSH1 0x5 DUP3 ADD SSTORE PUSH2 0xA21 JUMP JUMPDEST ADD MLOAD PUSH1 0x0 NOT PUSH1 0xF8 DUP5 PUSH1 0x3 SHL AND SHR NOT AND SWAP1 SSTORE DUP4 DUP1 DUP1 PUSH2 0x1155 JUMP JUMPDEST DUP2 DUP2 ADD MLOAD DUP4 SSTORE PUSH1 0x20 SWAP5 DUP6 ADD SWAP5 PUSH1 0x1 SWAP1 SWAP4 ADD SWAP3 SWAP1 SWAP2 ADD SWAP1 PUSH2 0x113A JUMP JUMPDEST ADD MLOAD SWAP1 POP DUP4 DUP1 PUSH2 0x9A6 JUMP JUMPDEST SWAP3 POP PUSH1 0x4 DUP5 ADD PUSH1 0x0 MSTORE PUSH1 0x20 PUSH1 0x0 KECCAK256 SWAP1 PUSH1 0x0 SWAP4 JUMPDEST PUSH1 0x1F NOT DUP5 AND DUP6 LT PUSH2 0x11FB JUMPI PUSH1 0x1 SWAP5 POP DUP4 PUSH1 0x1F NOT DUP2 AND LT PUSH2 0x11E2 JUMPI JUMPDEST POP POP POP DUP2 SHL ADD PUSH1 0x4 DUP3 ADD SSTORE PUSH2 0x9BE JUMP JUMPDEST ADD MLOAD PUSH1 0x0 NOT PUSH1 0xF8 DUP5 PUSH1 0x3 SHL AND SHR NOT AND SWAP1 SSTORE DUP4 DUP1 DUP1 PUSH2 0x11D2 JUMP JUMPDEST DUP2 DUP2 ADD MLOAD DUP4 SSTORE PUSH1 0x20 SWAP5 DUP6 ADD SWAP5 PUSH1 0x1 SWAP1 SWAP4 ADD SWAP3 SWAP1 SWAP2 ADD SWAP1 PUSH2 0x11B7 JUMP JUMPDEST ADD MLOAD SWAP1 POP DUP4 DUP1 PUSH2 0x943 JUMP JUMPDEST SWAP3 POP PUSH1 0x3 DUP5 ADD PUSH1 0x0 MSTORE PUSH1 0x20 PUSH1 0x0 KECCAK256 SWAP1 PUSH1 0x0 SWAP4 JUMPDEST PUSH1 0x1F NOT DUP5 AND DUP6 LT PUSH2 0x1278 JUMPI PUSH1 0x1 SWAP5 POP DUP4 PUSH1 0x1F NOT DUP2 AND LT PUSH2 0x125F JUMPI JUMPDEST POP POP POP DUP2 SHL ADD PUSH1 0x3 DUP3 ADD SSTORE PUSH2 0x95B JUMP JUMPDEST ADD MLOAD PUSH1 0x0 NOT PUSH1 0xF8 DUP5 PUSH1 0x3 SHL AND SHR NOT AND SWAP1 SSTORE DUP4 DUP1 DUP1 PUSH2 0x124F JUMP JUMPDEST DUP2 DUP2 ADD MLOAD DUP4 SSTORE PUSH1 0x20 SWAP5 DUP6 ADD SWAP5 PUSH1 0x1 SWAP1 SWAP4 ADD SWAP3 SWAP1 SWAP2 ADD SWAP1 PUSH2 0x1234 JUMP JUMPDEST ADD MLOAD SWAP1 POP DUP5 DUP1 PUSH2 0x8E3 JUMP JUMPDEST DUP3 PUSH1 0x0 MSTORE PUSH1 0x20 PUSH1 0x0 KECCAK256 SWAP1 PUSH1 0x0 PUSH1 0x1F NOT DUP5 AND SWAP1 JUMPDEST DUP2 DUP2 LT PUSH2 0x12EC JUMPI POP SWAP6 DUP4 PUSH1 0x1 SWAP6 SWAP7 SWAP8 LT PUSH2 0x12D3 JUMPI JUMPDEST POP POP POP DUP2 SHL ADD SWAP1 SSTORE PUSH2 0x8F8 JUMP JUMPDEST ADD MLOAD PUSH1 0x0 NOT PUSH1 0xF8 DUP5 PUSH1 0x3 SHL AND SHR NOT AND SWAP1 SSTORE DUP5 DUP1 DUP1 PUSH2 0x12C6 JUMP JUMPDEST SWAP2 SWAP3 PUSH1 0x20 PUSH1 0x1 DUP2 SWAP3 DUP7 DUP12 ADD MLOAD DUP2 SSTORE ADD SWAP5 ADD SWAP3 ADD PUSH2 0x12B1 JUMP JUMPDEST ADD MLOAD SWAP1 POP DUP5 DUP1 PUSH2 0x889 JUMP JUMPDEST DUP3 PUSH1 0x0 MSTORE PUSH1 0x20 PUSH1 0x0 KECCAK256 SWAP1 PUSH1 0x0 PUSH1 0x1F NOT DUP5 AND SWAP1 JUMPDEST DUP2 DUP2 LT PUSH2 0x135D JUMPI POP SWAP6 DUP4 PUSH1 0x1 SWAP6 SWAP7 SWAP8 LT PUSH2 0x1344 JUMPI JUMPDEST POP POP POP DUP2 SHL ADD SWAP1 SSTORE PUSH2 0x89E JUMP JUMPDEST ADD MLOAD PUSH1 0x0 NOT PUSH1 0xF8 DUP5 PUSH1 0x3 SHL AND SHR NOT AND SWAP1 SSTORE DUP5 DUP1 DUP1 PUSH2 0x1337 JUMP JUMPDEST SWAP2 SWAP3 PUSH1 0x20 PUSH1 0x1 DUP2 SWAP3 DUP7 DUP12 ADD MLOAD DUP2 SSTORE ADD SWAP5 ADD SWAP3 ADD PUSH2 0x1322 JUMP JUMPDEST ADD MLOAD SWAP1 POP DUP4 DUP1 PUSH2 0x82F JUMP JUMPDEST DUP3 PUSH1 0x0 MSTORE PUSH1 0x20 PUSH1 0x0 KECCAK256 SWAP1 PUSH1 0x0 SWAP5 PUSH1 0x1F NOT DUP5 AND SWAP6 JUMPDEST DUP7 DUP2 LT PUSH2 0x13CD JUMPI POP DUP4 PUSH1 0x1 SWAP6 SWAP7 LT PUSH2 0x13B4 JUMPI JUMPDEST POP POP POP DUP2 SHL ADD DUP2 SSTORE PUSH2 0x844 JUMP JUMPDEST ADD MLOAD PUSH1 0x0 NOT PUSH1 0xF8 DUP5 PUSH1 0x3 SHL AND SHR NOT AND SWAP1 SSTORE DUP4 DUP1 DUP1 PUSH2 0x13A7 JUMP JUMPDEST SWAP2 SWAP3 PUSH1 0x20 PUSH1 0x1 DUP2 SWAP3 DUP7 DUP6 ADD MLOAD DUP2 SSTORE ADD SWAP5 ADD SWAP3 ADD PUSH2 0x1394 JUMP JUMPDEST PUSH1 0x40 MLOAD PUSH3 0x461BCD PUSH1 0xE5 SHL DUP2 MSTORE PUSH1 0x20 PUSH1 0x4 DUP3 ADD MSTORE PUSH1 0xB PUSH1 0x24 DUP3 ADD MSTORE PUSH11 0x139BDD081CDD195DD85C99 PUSH1 0xAA SHL PUSH1 0x44 DUP3 ADD MSTORE PUSH1 0x64 SWAP1 REVERT JUMPDEST CALLVALUE PUSH2 0x213 JUMPI PUSH1 0x0 CALLDATASIZE PUSH1 0x3 NOT ADD SLT PUSH2 0x213 JUMPI PUSH1 0x0 SLOAD PUSH1 0x40 MLOAD PUSH1 0x1 PUSH1 0x1 PUSH1 0xA0 SHL SUB SWAP1 SWAP2 AND DUP2 MSTORE PUSH1 0x20 SWAP1 RETURN JUMPDEST CALLVALUE PUSH2 0x213 JUMPI PUSH1 0x20 CALLDATASIZE PUSH1 0x3 NOT ADD SLT PUSH2 0x213 JUMPI PUSH1 0x4 CALLDATALOAD PUSH1 0x2 SLOAD DUP2 LT ISZERO PUSH2 0x213 JUMPI PUSH2 0x1468 SWAP1 PUSH2 0x148C JUMP JUMPDEST PUSH2 0xEA3 JUMPI PUSH2 0x1478 PUSH2 0x20F SWAP2 PUSH2 0x1550 JUMP JUMPDEST PUSH1 0x40 MLOAD SWAP2 DUP3 SWAP2 PUSH1 0x20 DUP4 MSTORE PUSH1 0x20 DUP4 ADD SWAP1 PUSH2 0x1619 JUMP JUMPDEST PUSH1 0x2 SLOAD DUP2 LT ISZERO PUSH2 0x14C3 JUMPI PUSH1 0x2 PUSH1 0x0 MSTORE PUSH32 0x405787FA12A823E0F2B7631CC41B3BA8828B3321CA811111FA75CD3AA3BB5ACE ADD SWAP1 PUSH1 0x0 SWAP1 JUMP JUMPDEST PUSH4 0x4E487B71 PUSH1 0xE0 SHL PUSH1 0x0 MSTORE PUSH1 0x32 PUSH1 0x4 MSTORE PUSH1 0x24 PUSH1 0x0 REVERT JUMPDEST SWAP1 PUSH1 0x1 DUP3 DUP2 SHR SWAP3 AND DUP1 ISZERO PUSH2 0x1509 JUMPI JUMPDEST PUSH1 0x20 DUP4 LT EQ PUSH2 0x14F3 JUMPI JUMP JUMPDEST PUSH4 0x4E487B71 PUSH1 0xE0 SHL PUSH1 0x0 MSTORE PUSH1 0x22 PUSH1 0x4 MSTORE PUSH1 0x24 PUSH1 0x0 REVERT JUMPDEST SWAP2 PUSH1 0x7F AND SWAP2 PUSH2 0x14E8 JUMP JUMPDEST PUSH2 0x160 DUP2 ADD SWAP1 DUP2 LT PUSH1 0x1 PUSH1 0x1 PUSH1 0x40 SHL SUB DUP3 GT OR PUSH2 0xE8D JUMPI PUSH1 0x40 MSTORE JUMP JUMPDEST SWAP1 PUSH1 0x1F DUP1 NOT SWAP2 ADD AND DUP2 ADD SWAP1 DUP2 LT PUSH1 0x1 PUSH1 0x1 PUSH1 0x40 SHL SUB DUP3 GT OR PUSH2 0xE8D JUMPI PUSH1 0x40 MSTORE JUMP JUMPDEST SWAP1 PUSH1 0x40 MLOAD SWAP2 DUP3 PUSH1 0x0 DUP3 SLOAD SWAP3 PUSH2 0x1564 DUP5 PUSH2 0x14D9 JUMP JUMPDEST SWAP1 DUP2 DUP5 MSTORE PUSH1 0x1 SWAP5 DUP6 DUP2 AND SWAP1 DUP2 PUSH1 0x0 EQ PUSH2 0x15D3 JUMPI POP PUSH1 0x1 EQ PUSH2 0x1590 JUMPI JUMPDEST POP POP PUSH2 0x158E SWAP3 POP SUB DUP4 PUSH2 0x152F JUMP JUMPDEST JUMP JUMPDEST SWAP1 SWAP4 SWAP2 POP PUSH1 0x0 MSTORE PUSH1 0x20 SWAP1 DUP2 PUSH1 0x0 KECCAK256 SWAP4 PUSH1 0x0 SWAP2 JUMPDEST DUP2 DUP4 LT PUSH2 0x15BB JUMPI POP POP PUSH2 0x158E SWAP4 POP DUP3 ADD ADD CODESIZE DUP1 PUSH2 0x1580 JUMP JUMPDEST DUP6 SLOAD DUP9 DUP5 ADD DUP6 ADD MSTORE SWAP5 DUP6 ADD SWAP5 DUP8 SWAP5 POP SWAP2 DUP4 ADD SWAP2 PUSH2 0x15A3 JUMP JUMPDEST SWAP2 POP POP PUSH2 0x158E SWAP5 POP PUSH1 0x20 SWAP3 POP PUSH1 0xFF NOT AND DUP3 DUP5 ADD MSTORE ISZERO ISZERO PUSH1 0x5 SHL DUP3 ADD ADD CODESIZE DUP1 PUSH2 0x1580 JUMP JUMPDEST PUSH1 0x0 JUMPDEST DUP4 DUP2 LT PUSH2 0x1609 JUMPI POP POP PUSH1 0x0 SWAP2 ADD MSTORE JUMP JUMPDEST DUP2 DUP2 ADD MLOAD DUP4 DUP3 ADD MSTORE PUSH1 0x20 ADD PUSH2 0x15F9 JUMP JUMPDEST SWAP1 PUSH1 0x20 SWAP2 PUSH2 0x1632 DUP2 MLOAD DUP1 SWAP3 DUP2 DUP6 MSTORE DUP6 DUP1 DUP7 ADD SWAP2 ADD PUSH2 0x15F6 JUMP JUMPDEST PUSH1 0x1F ADD PUSH1 0x1F NOT AND ADD ADD SWAP1 JUMP JUMPDEST SWAP2 DUP2 PUSH1 0x1F DUP5 ADD SLT ISZERO PUSH2 0x213 JUMPI DUP3 CALLDATALOAD SWAP2 PUSH1 0x1 PUSH1 0x1 PUSH1 0x40 SHL SUB DUP4 GT PUSH2 0x213 JUMPI PUSH1 0x20 DUP4 DUP2 DUP7 ADD SWAP6 ADD ADD GT PUSH2 0x213 JUMPI JUMP JUMPDEST SWAP3 SWAP2 SWAP3 PUSH1 0x1 PUSH1 0x1 PUSH1 0x40 SHL SUB DUP3 GT PUSH2 0xE8D JUMPI PUSH1 0x40 MLOAD SWAP2 PUSH2 0x1694 PUSH1 0x1F DUP3 ADD PUSH1 0x1F NOT AND PUSH1 0x20 ADD DUP5 PUSH2 0x152F JUMP JUMPDEST DUP3 SWAP5 DUP2 DUP5 MSTORE DUP2 DUP4 ADD GT PUSH2 0x213 JUMPI DUP3 DUP2 PUSH1 0x20 SWAP4 DUP5 PUSH1 0x0 SWAP7 ADD CALLDATACOPY ADD ADD MSTORE JUMP JUMPDEST SWAP1 PUSH1 0x1F DUP2 GT PUSH2 0x16BF JUMPI POP POP POP JUMP JUMPDEST PUSH1 0x0 SWAP2 DUP3 MSTORE PUSH1 0x20 DUP3 KECCAK256 SWAP1 PUSH1 0x20 PUSH1 0x1F DUP6 ADD PUSH1 0x5 SHR DUP4 ADD SWAP5 LT PUSH2 0x16FB JUMPI JUMPDEST PUSH1 0x1F ADD PUSH1 0x5 SHR ADD SWAP2 JUMPDEST DUP3 DUP2 LT PUSH2 0x16F0 JUMPI POP POP POP JUMP JUMPDEST DUP2 DUP2 SSTORE PUSH1 0x1 ADD PUSH2 0x16E4 JUMP JUMPDEST SWAP1 SWAP3 POP DUP3 SWAP1 PUSH2 0x16DB JUMP JUMPDEST SWAP1 DUP1 PUSH1 0x20 SWAP4 SWAP3 DUP2 DUP5 MSTORE DUP5 DUP5 ADD CALLDATACOPY PUSH1 0x0 DUP3 DUP3 ADD DUP5 ADD MSTORE PUSH1 0x1F ADD PUSH1 0x1F NOT AND ADD ADD SWAP1 JUMP INVALID LOG2 PUSH5 0x6970667358 0x22 SLT KECCAK256 DUP11 GT 0x1F 0xB6 0xF7 0xEB 0xE CALLDATASIZE XOR 0x2E 0xD6 DUP6 0x23 JUMP CALL GASPRICE 0xD9 PREVRANDAO 0xC0 0xEB CALLER PUSH8 0x51319CAB1265BF29 0xE6 CALLCODE PUSH5 0x736F6C6343 STOP ADDMOD EQ STOP CALLER "},"methodIdentifiers":{"codices(string)":"dbc21424","getCodex(string)":"83361522","inscribeCodex(string,string,string,string,string,string,string,string,string,string,string,string)":"70aefafa","keys(uint256)":"0cb6aaf1","steward()":"637eea19","totalCodices()":"c212d16b"}}}}}