{
  "_format": "hh-sol-artifact-1",
  "contractName": "ApprenticeSummonerV5",
  "sourceName": "contracts/registry/ApprenticeSummonerV5.sol",
  "abi": [
    {
      "inputs": [],
      "stateMutability": "nonpayable",
      "type": "constructor"
    },
    {
      "anonymous": false,
      "inputs": [
        {
          "indexed": true,
          "internalType": "address",
          "name": "apprentice",
          "type": "address"
        },
        {
          "indexed": false,
          "internalType": "string",
          "name": "name",
          "type": "string"
        },
        {
          "indexed": false,
          "internalType": "string",
          "name": "signal",
          "type": "string"
        },
        {
          "indexed": false,
          "internalType": "string",
          "name": "drift",
          "type": "string"
        },
        {
          "indexed": false,
          "internalType": "string",
          "name": "pulse",
          "type": "string"
        },
        {
          "indexed": false,
          "internalType": "string",
          "name": "codexRef",
          "type": "string"
        },
        {
          "indexed": false,
          "internalType": "string",
          "name": "resonance",
          "type": "string"
        },
        {
          "indexed": false,
          "internalType": "string",
          "name": "signature",
          "type": "string"
        },
        {
          "indexed": false,
          "internalType": "string",
          "name": "sanctum",
          "type": "string"
        }
      ],
      "name": "ApprenticeSummoned",
      "type": "event"
    },
    {
      "inputs": [
        {
          "internalType": "uint256",
          "name": "",
          "type": "uint256"
        }
      ],
      "name": "apprentices",
      "outputs": [
        {
          "internalType": "address",
          "name": "",
          "type": "address"
        }
      ],
      "stateMutability": "view",
      "type": "function"
    },
    {
      "inputs": [
        {
          "internalType": "address",
          "name": "apprentice",
          "type": "address"
        }
      ],
      "name": "getSummons",
      "outputs": [
        {
          "internalType": "string",
          "name": "",
          "type": "string"
        },
        {
          "internalType": "string",
          "name": "",
          "type": "string"
        },
        {
          "internalType": "string",
          "name": "",
          "type": "string"
        },
        {
          "internalType": "string",
          "name": "",
          "type": "string"
        },
        {
          "internalType": "string",
          "name": "",
          "type": "string"
        },
        {
          "internalType": "string",
          "name": "",
          "type": "string"
        },
        {
          "internalType": "string",
          "name": "",
          "type": "string"
        },
        {
          "internalType": "string",
          "name": "",
          "type": "string"
        }
      ],
      "stateMutability": "view",
      "type": "function"
    },
    {
      "inputs": [],
      "name": "steward",
      "outputs": [
        {
          "internalType": "address",
          "name": "",
          "type": "address"
        }
      ],
      "stateMutability": "view",
      "type": "function"
    },
    {
      "inputs": [
        {
          "internalType": "address",
          "name": "apprentice",
          "type": "address"
        },
        {
          "internalType": "string",
          "name": "name",
          "type": "string"
        },
        {
          "internalType": "string",
          "name": "signal",
          "type": "string"
        },
        {
          "internalType": "string",
          "name": "drift",
          "type": "string"
        },
        {
          "internalType": "string",
          "name": "pulse",
          "type": "string"
        },
        {
          "internalType": "string",
          "name": "codexRef",
          "type": "string"
        },
        {
          "internalType": "string",
          "name": "resonance",
          "type": "string"
        },
        {
          "internalType": "string",
          "name": "signature",
          "type": "string"
        },
        {
          "internalType": "string",
          "name": "sanctum",
          "type": "string"
        }
      ],
      "name": "summonApprentice",
      "outputs": [],
      "stateMutability": "nonpayable",
      "type": "function"
    },
    {
      "inputs": [
        {
          "internalType": "address",
          "name": "",
          "type": "address"
        }
      ],
      "name": "summons",
      "outputs": [
        {
          "internalType": "string",
          "name": "name",
          "type": "string"
        },
        {
          "internalType": "string",
          "name": "signal",
          "type": "string"
        },
        {
          "internalType": "string",
          "name": "drift",
          "type": "string"
        },
        {
          "internalType": "string",
          "name": "pulse",
          "type": "string"
        },
        {
          "internalType": "string",
          "name": "codexRef",
          "type": "string"
        },
        {
          "internalType": "string",
          "name": "resonance",
          "type": "string"
        },
        {
          "internalType": "string",
          "name": "signature",
          "type": "string"
        },
        {
          "internalType": "string",
          "name": "sanctum",
          "type": "string"
        }
      ],
      "stateMutability": "view",
      "type": "function"
    },
    {
      "inputs": [],
      "name": "totalSummons",
      "outputs": [
        {
          "internalType": "uint256",
          "name": "",
          "type": "uint256"
        }
      ],
      "stateMutability": "view",
      "type": "function"
    }
  ],
  "bytecode": "0x6080806040523461002857600080546001600160a01b03191633179055611270908161002e8239f35b600080fdfe61014080604052600436101561001457600080fd5b60003560e01c9081632a17d4cd14610f36575080635a2ed66214610e97578063637eea1914610e6e578063836b221414610199578063cf84c603146100a95763f31bee3e1461006257600080fd5b346100a45760203660031901126100a4576004356002548110156100a45761008b602091611186565b905460405160039290921b1c6001600160a01b03168152f35b600080fd5b346100a45760203660031901126100a4576001600160a01b036100ca610f51565b16600052600160205260406000206040516100e481610fa1565b6100ed82610fde565b81526101956100fe60018401610fde565b916020810192835261011260028501610fde565b936040820194855261012660038201610fde565b906060830191825261013a60048201610fde565b6080840190815261014d60058301610fde565b9060a08501918252610174600761016660068601610fde565b9460c0880195865201610fde565b948560e08201525196519751935190519151925193604051988998896110c4565b0390f35b346100a4576101203660031901126100a4576101b3610f51565b6024356001600160401b0381116100a4576101d2903690600401611159565b9060a0526044356001600160401b0381116100a4576101f5903690600401611159565b610100526064356001600160401b0381116100a457610218903690600401611159565b6084929192356001600160401b0381116100a45761023a903690600401611159565b91909260a4356001600160401b0381116100a45761025c903690600401611159565b9160c4356001600160401b0381116100a45761027c903690600401611159565b92909360e4356001600160401b0381116100a45761029e903690600401611159565b9790986001600160401b0361010435116100a4576102c23661010435600401611159565b60e052610120526000546001600160a01b03163303610e3b576102ea60405180608052610fa1565b6102f7368d60a0516111d3565b608051526103093661010051876111d3565b6020608051015261031b36898d6111d3565b6040608051015261032d3683836111d3565b6060608051015261033f3684866111d3565b6080805101526103503687896111d3565b60a06080510152610362368a8c6111d3565b60c060805101526103793660e051610120516111d3565b60e0608051015260018060a01b038d1660005260016020526040600020608051518051906001600160401b0382116107be5781906103b78454610f67565b601f8111610deb575b50602090601f8311600114610d7f57600092610d74575b50508160011b916000199060031b1c19161781555b602060805101518051906001600160401b0382116107be5781906104136001850154610f67565b601f8111610d21575b50602090601f8311600114610caf57600092610ca4575b50508160011b916000199060031b1c19161760018201555b604060805101518051906001600160401b0382116107be5781906104726002850154610f67565b601f8111610c51575b50602090601f8311600114610bdf57600092610bd4575b50508160011b916000199060031b1c19161760028201555b606060805101518051906001600160401b0382116107be5781906104d16003850154610f67565b601f8111610b81575b50602090601f8311600114610b0f57600092610b04575b50508160011b916000199060031b1c19161760038201555b6080805101518051906001600160401b0382116107be57819061052f6004850154610f67565b601f8111610ab1575b50602090601f8311600114610a3f57600092610a34575b50508160011b916000199060031b1c19161760048201555b60a060805101518051906001600160401b0382116107be57819061058e6005850154610f67565b601f81116109e1575b50602090601f831160011461096f57600092610964575b50508160011b916000199060031b1c19161760058201555b60c060805101518051906001600160401b0382116107be5781906105ed6006850154610f67565b601f8111610911575b50602090601f831160011461089f57600092610894575b50508160011b916000199060031b1c19161760068201555b60e060805101518051906001600160401b0382116107be5761064a6007840154610f67565b601f811161084d575b50602090601f83116001146107df5760079291600091836107d4575b50508160011b916000199060031b1c1916179101555b60025491680100000000000000008310156107be5761074b61078f9c8f9a7f49831efd510efa68de02294a5f78a0edb986f55373a944748a0bdb6eafba54e39f61076d9961072461073a9261077e9f6106e78b600161075c9d01600255611186565b819291549060031b9160018060a01b0316821b9160018060a01b03901b19161790556101006040518060c0525261010060c051019060a051611219565b9060c05160208184039101526101005190611219565b9160c0516040818503910152611219565b9160c0516060818503910152611219565b9160c0516080818503910152611219565b9160c05160a0818503910152611219565b9160c05160c0818503910152611219565b9160c05160e081850391015260018060a01b0316916107b760c0519160e05161012051611219565b0360c051a2005b634e487b7160e01b600052604160045260246000fd5b01519050388061066f565b90601f198316916007850160005260206000209260005b8181106108355750916001939185600796941061081c575b505050811b01910155610685565b015160001960f88460031b161c1916905538808061080e565b929360206001819287860151815501950193016107f6565b600784016000526020600020601f840160051c81016020851061088d575b601f830160051c82018110610881575050610653565b6000815560010161086b565b508061086b565b01519050388061060d565b9250600684016000526020600020906000935b601f19841685106108f6576001945083601f198116106108dd575b505050811b016006820155610625565b015160001960f88460031b161c191690553880806108cd565b818101518355602094850194600190930192909101906108b2565b909150600684016000526020600020601f840160051c81016020851061095d575b90849392915b601f830160051c8201811061094e5750506105f6565b60008155859450600101610938565b5080610932565b0151905038806105ae565b9250600584016000526020600020906000935b601f19841685106109c6576001945083601f198116106109ad575b505050811b0160058201556105c6565b015160001960f88460031b161c1916905538808061099d565b81810151835560209485019460019093019290910190610982565b909150600584016000526020600020601f840160051c810160208510610a2d575b90849392915b601f830160051c82018110610a1e575050610597565b60008155859450600101610a08565b5080610a02565b01519050388061054f565b9250600484016000526020600020906000935b601f1984168510610a96576001945083601f19811610610a7d575b505050811b016004820155610567565b015160001960f88460031b161c19169055388080610a6d565b81810151835560209485019460019093019290910190610a52565b909150600484016000526020600020601f840160051c810160208510610afd575b90849392915b601f830160051c82018110610aee575050610538565b60008155859450600101610ad8565b5080610ad2565b0151905038806104f1565b9250600384016000526020600020906000935b601f1984168510610b66576001945083601f19811610610b4d575b505050811b016003820155610509565b015160001960f88460031b161c19169055388080610b3d565b81810151835560209485019460019093019290910190610b22565b909150600384016000526020600020601f840160051c810160208510610bcd575b90849392915b601f830160051c82018110610bbe5750506104da565b60008155859450600101610ba8565b5080610ba2565b015190503880610492565b9250600284016000526020600020906000935b601f1984168510610c36576001945083601f19811610610c1d575b505050811b0160028201556104aa565b015160001960f88460031b161c19169055388080610c0d565b81810151835560209485019460019093019290910190610bf2565b909150600284016000526020600020601f840160051c810160208510610c9d575b90849392915b601f830160051c82018110610c8e57505061047b565b60008155859450600101610c78565b5080610c72565b015190503880610433565b9250600184016000526020600020906000935b601f1984168510610d06576001945083601f19811610610ced575b505050811b01600182015561044b565b015160001960f88460031b161c19169055388080610cdd565b81810151835560209485019460019093019290910190610cc2565b909150600184016000526020600020601f840160051c810160208510610d6d575b90849392915b601f830160051c82018110610d5e57505061041c565b60008155859450600101610d48565b5080610d42565b0151905038806103d7565b9250836000526020600020906000935b601f1984168510610dd0576001945083601f19811610610db7575b505050811b0181556103ec565b015160001960f88460031b161c19169055388080610daa565b81810151835560209485019460019093019290910190610d8f565b909150836000526020600020601f840160051c810160208510610e34575b90849392915b601f830160051c82018110610e255750506103c0565b60008155859450600101610e0f565b5080610e09565b60405162461bcd60e51b815260206004820152600b60248201526a139bdd081cdd195dd85c9960aa1b6044820152606490fd5b346100a45760003660031901126100a4576000546040516001600160a01b039091168152602090f35b346100a45760203660031901126100a4576001600160a01b03610eb8610f51565b1660005260016020526040600020610ecf81610fde565b610195610ede60018401610fde565b92610eeb60028201610fde565b90610ef860038201610fde565b610f0460048301610fde565b610f1060058401610fde565b91610f296007610f2260068701610fde565b9501610fde565b94604051988998896110c4565b346100a45760003660031901126100a4576020906002548152f35b600435906001600160a01b03821682036100a457565b90600182811c92168015610f97575b6020831014610f8157565b634e487b7160e01b600052602260045260246000fd5b91607f1691610f76565b61010081019081106001600160401b038211176107be57604052565b90601f801991011681019081106001600160401b038211176107be57604052565b9060405191826000825492610ff284610f67565b908184526001948581169081600014611061575060011461101e575b505061101c92500383610fbd565b565b9093915060005260209081600020936000915b81831061104957505061101c9350820101388061100e565b85548884018501529485019487945091830191611031565b91505061101c94506020925060ff191682840152151560051b820101388061100e565b919082519283825260005b8481106110b0575050826000602080949584010152601f8019910116010190565b60208183018101518483018201520161108f565b96939461111e6111489661111061113a966111028c6111569e9c986110f461112c99610100808552840190611084565b916020818403910152611084565b8c810360408e015290611084565b908a820360608c0152611084565b9088820360808a0152611084565b9086820360a0880152611084565b9084820360c0860152611084565b9160e0818403910152611084565b90565b9181601f840112156100a4578235916001600160401b0383116100a457602083818601950101116100a457565b6002548110156111bd5760026000527f405787fa12a823e0f2b7631cc41b3ba8828b3321ca811111fa75cd3aa3bb5ace0190600090565b634e487b7160e01b600052603260045260246000fd5b9291926001600160401b0382116107be57604051916111fc601f8201601f191660200184610fbd565b8294818452818301116100a4578281602093846000960137010152565b908060209392818452848401376000828201840152601f01601f191601019056fea2646970667358221220b9f1f158a3f3a8e258e59e3e27c8080b6ea6969aaa9c20efc2ae954552c1888864736f6c63430008140033",
  "linkReferences": {},
  "deployedLinkReferences": {}
}