{
  "_format": "hh-sol-artifact-1",
  "contractName": "ApprenticeSummons",
  "sourceName": "contracts/registry/ApprenticeSummons.sol",
  "abi": [
    {
      "inputs": [],
      "stateMutability": "nonpayable",
      "type": "constructor"
    },
    {
      "anonymous": false,
      "inputs": [
        {
          "indexed": true,
          "internalType": "address",
          "name": "apprentice",
          "type": "address"
        },
        {
          "indexed": false,
          "internalType": "string",
          "name": "name",
          "type": "string"
        },
        {
          "indexed": false,
          "internalType": "string",
          "name": "signal",
          "type": "string"
        },
        {
          "indexed": false,
          "internalType": "string",
          "name": "lineage",
          "type": "string"
        }
      ],
      "name": "ApprenticeSummoned",
      "type": "event"
    },
    {
      "inputs": [
        {
          "internalType": "uint256",
          "name": "",
          "type": "uint256"
        }
      ],
      "name": "apprentices",
      "outputs": [
        {
          "internalType": "address",
          "name": "",
          "type": "address"
        }
      ],
      "stateMutability": "view",
      "type": "function"
    },
    {
      "inputs": [
        {
          "internalType": "address",
          "name": "apprentice",
          "type": "address"
        }
      ],
      "name": "getSummons",
      "outputs": [
        {
          "internalType": "string",
          "name": "",
          "type": "string"
        },
        {
          "internalType": "string",
          "name": "",
          "type": "string"
        },
        {
          "internalType": "string",
          "name": "",
          "type": "string"
        }
      ],
      "stateMutability": "view",
      "type": "function"
    },
    {
      "inputs": [],
      "name": "steward",
      "outputs": [
        {
          "internalType": "address",
          "name": "",
          "type": "address"
        }
      ],
      "stateMutability": "view",
      "type": "function"
    },
    {
      "inputs": [
        {
          "internalType": "address",
          "name": "apprentice",
          "type": "address"
        },
        {
          "internalType": "string",
          "name": "name",
          "type": "string"
        },
        {
          "internalType": "string",
          "name": "signal",
          "type": "string"
        },
        {
          "internalType": "string",
          "name": "lineage",
          "type": "string"
        }
      ],
      "name": "summonApprentice",
      "outputs": [],
      "stateMutability": "nonpayable",
      "type": "function"
    },
    {
      "inputs": [
        {
          "internalType": "address",
          "name": "",
          "type": "address"
        }
      ],
      "name": "summons",
      "outputs": [
        {
          "internalType": "string",
          "name": "name",
          "type": "string"
        },
        {
          "internalType": "string",
          "name": "signal",
          "type": "string"
        },
        {
          "internalType": "string",
          "name": "lineage",
          "type": "string"
        }
      ],
      "stateMutability": "view",
      "type": "function"
    },
    {
      "inputs": [],
      "name": "totalSummons",
      "outputs": [
        {
          "internalType": "uint256",
          "name": "",
          "type": "uint256"
        }
      ],
      "stateMutability": "view",
      "type": "function"
    }
  ],
  "bytecode": "0x6080806040523461002857600080546001600160a01b031916331790556109d6908161002e8239f35b600080fdfe6080604090808252600436101561001557600080fd5b60003560e01c9081632a17d4cd146106f45750806339456427146101b05780635a2ed66214610150578063637eea1914610127578063cf84c603146100a85763f31bee3e1461006357600080fd5b346100a35760203660031901126100a357600435906002548210156100a35761008d6020926108eb565b905491519160018060a01b039160031b1c168152f35b600080fd5b50346100a35760203660031901126100a3576001600160a01b036100ca61070f565b1660005260016020528060002061012382516100e58161078d565b6100ee836107cb565b815261010f6002610101600186016107cb565b9460208401958652016107cb565b9081858201525192519351938493846108b1565b0390f35b50346100a35760003660031901126100a35760005490516001600160a01b039091168152602090f35b50346100a35760203660031901126100a3576001600160a01b0361017261070f565b166000526001602052806000209061012361018c836107cb565b916101a5600261019e600187016107cb565b95016107cb565b9051938493846108b1565b50346100a35760803660031901126100a3576101ca61070f565b9060243567ffffffffffffffff81116100a3576101eb903690600401610725565b60443567ffffffffffffffff81116100a35761020b903690600401610725565b909360643567ffffffffffffffff81116100a35761022d903690600401610725565b600054919790916001600160a01b031633036106c257825161024e8161078d565b610259368789610938565b815261026636868a610938565b602082015261027636848b610938565b8482015260018060a01b03821660005260016020528360002090805180519067ffffffffffffffff821161044e5781906102b08554610753565b601f8111610672575b50602090601f8311600114610606576000926105fb575b50508160011b916000199060031b1c19161782555b602081015190815167ffffffffffffffff811161044e57869261030b6001860154610753565b601f81116105a4575b50602090601f831160011461052f576000919083610524575b50508160011b916000199060031b1c19161760018401555b015180519067ffffffffffffffff821161044e576103666002840154610753565b601f81116104dd575b50602090601f831160011461046f576002929160009183610464575b50508160011b916000199060031b1c1916179101555b6002546801000000000000000081101561044e577f2e74bc6612814eaed1c3e0132de9cc8dcc86ab1599abbc9eb754ae888f24cb1997610449956103ee83600161043095016002556108eb565b81546001600160a01b0387811660039390931b92831b921b19161790558551606080825290998a99610422928b019161097f565b9188830360208a015261097f565b858103938601939093526001600160a01b03169661097f565b0390a2005b634e487b7160e01b600052604160045260246000fd5b01519050388061038b565b90601f198316916002850160005260206000209260005b8181106104c5575091600193918560029694106104ac575b505050811b019101556103a1565b015160001960f88460031b161c1916905538808061049e565b92936020600181928786015181550195019301610486565b600284016000526020600020601f840160051c81016020851061051d575b601f830160051c8201811061051157505061036f565b600081556001016104fb565b50806104fb565b01519050388061032d565b939291906001860160005260206000209060005b601f19841681106105895750600193949583601f19811610610570575b505050811b016001840155610345565b015160001960f88460031b161c19169055388080610560565b8682015183558a955060019092019160209182019101610543565b9091929350600185016000526020600020601f840160051c8101602085106105f4575b908995949392915b601f830160051c820181106105e5575050610314565b600081558a96506001016105cf565b50806105c7565b0151905038806102d0565b9250846000526020600020906000935b601f1984168510610657576001945083601f1981161061063e575b505050811b0182556102e5565b015160001960f88460031b161c19169055388080610631565b81810151835560209485019460019093019290910190610616565b909150846000526020600020601f840160051c8101602085106106bb575b90849392915b601f830160051c820181106106ac5750506102b9565b60008155859450600101610696565b5080610690565b825162461bcd60e51b815260206004820152600b60248201526a139bdd081cdd195dd85c9960aa1b6044820152606490fd5b346100a35760003660031901126100a3576020906002548152f35b600435906001600160a01b03821682036100a357565b9181601f840112156100a35782359167ffffffffffffffff83116100a357602083818601950101116100a357565b90600182811c92168015610783575b602083101461076d57565b634e487b7160e01b600052602260045260246000fd5b91607f1691610762565b6060810190811067ffffffffffffffff82111761044e57604052565b90601f8019910116810190811067ffffffffffffffff82111761044e57604052565b90604051918260008254926107df84610753565b90818452600194858116908160001461084e575060011461080b575b5050610809925003836107a9565b565b9093915060005260209081600020936000915b818310610836575050610809935082010138806107fb565b8554888401850152948501948794509183019161081e565b91505061080994506020925060ff191682840152151560051b82010138806107fb565b919082519283825260005b84811061089d575050826000602080949584010152601f8019910116010190565b60208183018101518483018201520161087c565b916108da906108cc6108e89593606086526060860190610871565b908482036020860152610871565b916040818403910152610871565b90565b6002548110156109225760026000527f405787fa12a823e0f2b7631cc41b3ba8828b3321ca811111fa75cd3aa3bb5ace0190600090565b634e487b7160e01b600052603260045260246000fd5b92919267ffffffffffffffff821161044e5760405191610962601f8201601f1916602001846107a9565b8294818452818301116100a3578281602093846000960137010152565b908060209392818452848401376000828201840152601f01601f191601019056fea26469706673582212200b58f6565ee2a243d9bb8f81d0d594e401bab3d0fdf73037500d750d21b33a5d64736f6c63430008140033",
  "linkReferences": {},
  "deployedLinkReferences": {}
}