{
  "_format": "hh-sol-artifact-1",
  "contractName": "ApprenticeSummonerXIX",
  "sourceName": "contracts/registry/ApprenticeSummonerXIX.sol",
  "abi": [
    {
      "inputs": [],
      "stateMutability": "nonpayable",
      "type": "constructor"
    },
    {
      "anonymous": false,
      "inputs": [
        {
          "indexed": true,
          "internalType": "address",
          "name": "apprentice",
          "type": "address"
        },
        {
          "indexed": false,
          "internalType": "string",
          "name": "name",
          "type": "string"
        },
        {
          "indexed": false,
          "internalType": "string",
          "name": "signal",
          "type": "string"
        },
        {
          "indexed": false,
          "internalType": "string",
          "name": "drift",
          "type": "string"
        },
        {
          "indexed": false,
          "internalType": "string",
          "name": "pulse",
          "type": "string"
        },
        {
          "indexed": false,
          "internalType": "string",
          "name": "codexRef",
          "type": "string"
        },
        {
          "indexed": false,
          "internalType": "string",
          "name": "resonance",
          "type": "string"
        },
        {
          "indexed": false,
          "internalType": "string",
          "name": "signature",
          "type": "string"
        },
        {
          "indexed": false,
          "internalType": "string",
          "name": "sanctum",
          "type": "string"
        },
        {
          "indexed": false,
          "internalType": "string",
          "name": "chant",
          "type": "string"
        },
        {
          "indexed": false,
          "internalType": "string",
          "name": "choreography",
          "type": "string"
        },
        {
          "indexed": false,
          "internalType": "string",
          "name": "stewardName",
          "type": "string"
        },
        {
          "indexed": false,
          "internalType": "string",
          "name": "echo",
          "type": "string"
        },
        {
          "indexed": false,
          "internalType": "string",
          "name": "choreographyType",
          "type": "string"
        },
        {
          "indexed": false,
          "internalType": "string",
          "name": "signalType",
          "type": "string"
        },
        {
          "indexed": false,
          "internalType": "string",
          "name": "stewardSignal",
          "type": "string"
        },
        {
          "indexed": false,
          "internalType": "string",
          "name": "signalChoreography",
          "type": "string"
        }
      ],
      "name": "ApprenticeSummoned",
      "type": "event"
    },
    {
      "inputs": [
        {
          "internalType": "uint256",
          "name": "",
          "type": "uint256"
        }
      ],
      "name": "apprentices",
      "outputs": [
        {
          "internalType": "address",
          "name": "",
          "type": "address"
        }
      ],
      "stateMutability": "view",
      "type": "function"
    },
    {
      "inputs": [
        {
          "internalType": "address",
          "name": "apprentice",
          "type": "address"
        }
      ],
      "name": "getSummons",
      "outputs": [
        {
          "components": [
            {
              "internalType": "string",
              "name": "name",
              "type": "string"
            },
            {
              "internalType": "string",
              "name": "signal",
              "type": "string"
            },
            {
              "internalType": "string",
              "name": "drift",
              "type": "string"
            },
            {
              "internalType": "string",
              "name": "pulse",
              "type": "string"
            },
            {
              "internalType": "string",
              "name": "codexRef",
              "type": "string"
            },
            {
              "internalType": "string",
              "name": "resonance",
              "type": "string"
            },
            {
              "internalType": "string",
              "name": "signature",
              "type": "string"
            },
            {
              "internalType": "string",
              "name": "sanctum",
              "type": "string"
            },
            {
              "internalType": "string",
              "name": "chant",
              "type": "string"
            },
            {
              "internalType": "string",
              "name": "choreography",
              "type": "string"
            },
            {
              "internalType": "string",
              "name": "stewardName",
              "type": "string"
            },
            {
              "internalType": "string",
              "name": "echo",
              "type": "string"
            },
            {
              "internalType": "string",
              "name": "choreographyType",
              "type": "string"
            },
            {
              "internalType": "string",
              "name": "signalType",
              "type": "string"
            },
            {
              "internalType": "string",
              "name": "stewardSignal",
              "type": "string"
            },
            {
              "internalType": "string",
              "name": "signalChoreography",
              "type": "string"
            }
          ],
          "internalType": "struct ApprenticeSummonerXIX.Summons",
          "name": "",
          "type": "tuple"
        }
      ],
      "stateMutability": "view",
      "type": "function"
    },
    {
      "inputs": [],
      "name": "steward",
      "outputs": [
        {
          "internalType": "address",
          "name": "",
          "type": "address"
        }
      ],
      "stateMutability": "view",
      "type": "function"
    },
    {
      "inputs": [
        {
          "internalType": "address",
          "name": "apprentice",
          "type": "address"
        },
        {
          "internalType": "string",
          "name": "name",
          "type": "string"
        },
        {
          "internalType": "string",
          "name": "signal",
          "type": "string"
        },
        {
          "internalType": "string",
          "name": "drift",
          "type": "string"
        },
        {
          "internalType": "string",
          "name": "pulse",
          "type": "string"
        },
        {
          "internalType": "string",
          "name": "codexRef",
          "type": "string"
        },
        {
          "internalType": "string",
          "name": "resonance",
          "type": "string"
        },
        {
          "internalType": "string",
          "name": "signature",
          "type": "string"
        },
        {
          "internalType": "string",
          "name": "sanctum",
          "type": "string"
        },
        {
          "internalType": "string",
          "name": "chant",
          "type": "string"
        },
        {
          "internalType": "string",
          "name": "choreography",
          "type": "string"
        },
        {
          "internalType": "string",
          "name": "stewardName",
          "type": "string"
        },
        {
          "internalType": "string",
          "name": "echo",
          "type": "string"
        },
        {
          "internalType": "string",
          "name": "choreographyType",
          "type": "string"
        },
        {
          "internalType": "string",
          "name": "signalType",
          "type": "string"
        },
        {
          "internalType": "string",
          "name": "stewardSignal",
          "type": "string"
        },
        {
          "internalType": "string",
          "name": "signalChoreography",
          "type": "string"
        }
      ],
      "name": "summonApprentice",
      "outputs": [],
      "stateMutability": "nonpayable",
      "type": "function"
    },
    {
      "inputs": [
        {
          "internalType": "address",
          "name": "",
          "type": "address"
        }
      ],
      "name": "summons",
      "outputs": [
        {
          "internalType": "string",
          "name": "name",
          "type": "string"
        },
        {
          "internalType": "string",
          "name": "signal",
          "type": "string"
        },
        {
          "internalType": "string",
          "name": "drift",
          "type": "string"
        },
        {
          "internalType": "string",
          "name": "pulse",
          "type": "string"
        },
        {
          "internalType": "string",
          "name": "codexRef",
          "type": "string"
        },
        {
          "internalType": "string",
          "name": "resonance",
          "type": "string"
        },
        {
          "internalType": "string",
          "name": "signature",
          "type": "string"
        },
        {
          "internalType": "string",
          "name": "sanctum",
          "type": "string"
        },
        {
          "internalType": "string",
          "name": "chant",
          "type": "string"
        },
        {
          "internalType": "string",
          "name": "choreography",
          "type": "string"
        },
        {
          "internalType": "string",
          "name": "stewardName",
          "type": "string"
        },
        {
          "internalType": "string",
          "name": "echo",
          "type": "string"
        },
        {
          "internalType": "string",
          "name": "choreographyType",
          "type": "string"
        },
        {
          "internalType": "string",
          "name": "signalType",
          "type": "string"
        },
        {
          "internalType": "string",
          "name": "stewardSignal",
          "type": "string"
        },
        {
          "internalType": "string",
          "name": "signalChoreography",
          "type": "string"
        }
      ],
      "stateMutability": "view",
      "type": "function"
    },
    {
      "inputs": [],
      "name": "totalSummons",
      "outputs": [
        {
          "internalType": "uint256",
          "name": "",
          "type": "uint256"
        }
      ],
      "stateMutability": "view",
      "type": "function"
    }
  ],
  "bytecode": "0x6080806040523461002857600080546001600160a01b031916331790556122f6908161002e8239f35b600080fdfe61050080604052600436101561001457600080fd5b60003560e01c9081632a17d4cd14612051575080635a2ed66214611e01578063637eea1914611dd8578063cf84c60314611a6c578063f013488c146100a95763f31bee3e1461006257600080fd5b346100a45760203660031901126100a4576004356002548110156100a45761008b60209161220c565b905460405160039290921b1c6001600160a01b03168152f35b600080fd5b346100a4576102203660031901126100a4576100c361206c565b6101a0526024356001600160401b0381116100a4576100e69036906004016121df565b61022052610380526044356001600160401b0381116100a45761010d9036906004016121df565b61010052610340526064356001600160401b0381116100a4576101349036906004016121df565b61048052610300526084356001600160401b0381116100a45761015b9036906004016121df565b610440526102405260a4356001600160401b0381116100a4576101829036906004016121df565b6102c0526101405260c4356001600160401b0381116100a4576101a99036906004016121df565b6103c0526104005260e4356001600160401b0381116100a4576101d09036906004016121df565b61028052610120526001600160401b0361010435116100a4576101f936610104356004016121df565b610320526104c0526001600160401b0361012435116100a45761022236610124356004016121df565b6103e05261046052610144356001600160401b0381116100a45761024a9036906004016121df565b61026052608052610164356001600160401b0381116100a4576102719036906004016121df565b610180526101e052610184356001600160401b0381116100a4576102999036906004016121df565b6103a0526102e0526101a4356001600160401b0381116100a4576102c19036906004016121df565b6104a052610160526101c4356001600160401b0381116100a4576102e99036906004016121df565b6104e052610360526101e4356001600160401b0381116100a4576103119036906004016121df565b6101c05260e052610204356001600160401b0381116100a4576103389036906004016121df565b61042052610200526000546001600160a01b03163303611a39576103616040518060a0526120bc565b610372366102205161038051612259565b60a05152610387366101005161034051612259565b602060a051015261039f366104805161030051612259565b604060a05101526103b7366104405161024051612259565b606060a05101526103cf366102c05161014051612259565b608060a05101526103e7366103c05161040051612259565b60a0805101526103fe366102805161012051612259565b60c060a051015261041636610320516104c051612259565b60e060a051015261042e366103e05161046051612259565b61010060a05101526104463661026051608051612259565b61012060a051015261045f36610180516101e051612259565b61014060a0510152610478366103a0516102e051612259565b61016060a0510152610491366104a05161016051612259565b61018060a05101526104aa366104e05161036051612259565b6101a060a05101526104c2366101c05160e051612259565b6101c060a05101526104db366104205161020051612259565b6101e060a051015260018060a01b036101a051166000526001602052604060002060a051518051906001600160401b038211610d3c57819061051d8454612082565b601f81116119e9575b50602090601f831160011461197d57600092611972575b50508160011b916000199060031b1c19161781555b602060a05101518051906001600160401b038211610d3c5781906105796001850154612082565b601f811161191f575b50602090601f83116001146118ad576000926118a2575b50508160011b916000199060031b1c19161760018201555b604060a05101518051906001600160401b038211610d3c5781906105d86002850154612082565b601f811161184f575b50602090601f83116001146117dd576000926117d2575b50508160011b916000199060031b1c19161760028201555b606060a05101518051906001600160401b038211610d3c5781906106376003850154612082565b601f811161177f575b50602090601f831160011461170d57600092611702575b50508160011b916000199060031b1c19161760038201555b608060a05101518051906001600160401b038211610d3c5781906106966004850154612082565b601f81116116af575b50602090601f831160011461163d57600092611632575b50508160011b916000199060031b1c19161760048201555b60a0805101518051906001600160401b038211610d3c5781906106f46005850154612082565b601f81116115df575b50602090601f831160011461156d57600092611562575b50508160011b916000199060031b1c19161760058201555b60c060a05101518051906001600160401b038211610d3c5781906107536006850154612082565b601f811161150f575b50602090601f831160011461149d57600092611492575b50508160011b916000199060031b1c19161760068201555b60e060a05101518051906001600160401b038211610d3c5781906107b26007850154612082565b601f811161143f575b50602090601f83116001146113cd576000926113c2575b50508160011b916000199060031b1c19161760078201555b61010060a05101518051906001600160401b038211610d3c5781906108126008850154612082565b601f811161136f575b50602090601f83116001146112fd576000926112f2575b50508160011b916000199060031b1c19161760088201555b61012060a05101518051906001600160401b038211610d3c5781906108726009850154612082565b601f811161129f575b50602090601f831160011461122d57600092611222575b50508160011b916000199060031b1c19161760098201555b61014060a05101518051906001600160401b038211610d3c5781906108d2600a850154612082565b601f81116111cf575b50602090601f831160011461115d57600092611152575b50508160011b916000199060031b1c191617600a8201555b61016060a05101518051906001600160401b038211610d3c578190610932600b850154612082565b601f81116110ff575b50602090601f831160011461108d57600092611082575b50508160011b916000199060031b1c191617600b8201555b61018060a05101518051906001600160401b038211610d3c578190610992600c850154612082565b601f811161102f575b50602090601f8311600114610fbd57600092610fb2575b50508160011b916000199060031b1c191617600c8201555b6101a060a05101518051906001600160401b038211610d3c5781906109f2600d850154612082565b601f8111610f5f575b50602090601f8311600114610eed57600092610ee2575b50508160011b916000199060031b1c191617600d8201555b6101c060a05101518051906001600160401b038211610d3c578190610a52600e850154612082565b601f8111610e8f575b50602090601f8311600114610e1d57600092610e12575b50508160011b916000199060031b1c191617600e8201555b6101e060a05101518051906001600160401b038211610d3c57610ab0600f840154612082565b601f8111610dcb575b50602090601f8311600114610d5d57600f929160009183610d52575b50508160011b916000199060031b1c1916179101555b60025468010000000000000000811015610d3c57806001610b0f920160025561220c565b81549060031b9060018060a01b036101a05116821b9160018060a01b03901b1916179055610200604051806102a05252610ce4610ccb610cb1610c97610c7d610c63610c4a610c30610c17610bfe610be5610bcc610bb3610b9a610b816102006102a05101610220516103805161229f565b6102a0516020818303910152610100516103405161229f565b6102a0516040818303910152610480516103005161229f565b6102a0516060818303910152610440516102405161229f565b6102a05160808183039101526102c0516101405161229f565b6102a05160a08183039101526103c0516104005161229f565b6102a05160c0818303910152610280516101205161229f565b6102a05160e0818303910152610320516104c05161229f565b6102a0516101008183039101526103e0516104605161229f565b6102a0516101208183039101526102605160805161229f565b6102a051610140818303910152610180516101e05161229f565b6102a0516101608183039101526103a0516102e05161229f565b6102a0516101808183039101526104a0516101605161229f565b6102a0516101a08183039101526104e0516103605161229f565b6102a0516101c08183039101526101c05160e05161229f565b6102a0516101e08183039101527f1f6b933dccf663361e591c2cb3596c35c2a3b4297a5d0236670ce24c91918af460018060a01b036101a0511691610d346102a05191610420516102005161229f565b036102a051a2005b634e487b7160e01b600052604160045260246000fd5b015190508480610ad5565b90600f84016000526020600020916000601f198516905b818110610db35750916001939185600f969410610d9a575b505050811b01910155610aeb565b015160001960f88460031b161c19169055848080610d8c565b92936020600181928786015181550195019301610d74565b600f84016000526020600020601f840160051c810160208510610e0b575b601f830160051c82018110610dff575050610ab9565b60008155600101610de9565b5080610de9565b015190508380610a72565b9250600e84016000526020600020906000935b601f1984168510610e74576001945083601f19811610610e5b575b505050811b01600e820155610a8a565b015160001960f88460031b161c19169055838080610e4b565b81810151835560209485019460019093019290910190610e30565b909150600e84016000526020600020601f840160051c810160208510610edb575b90849392915b601f830160051c82018110610ecc575050610a5b565b60008155859450600101610eb6565b5080610eb0565b015190508380610a12565b9250600d84016000526020600020906000935b601f1984168510610f44576001945083601f19811610610f2b575b505050811b01600d820155610a2a565b015160001960f88460031b161c19169055838080610f1b565b81810151835560209485019460019093019290910190610f00565b909150600d84016000526020600020601f840160051c810160208510610fab575b90849392915b601f830160051c82018110610f9c5750506109fb565b60008155859450600101610f86565b5080610f80565b0151905083806109b2565b9250600c84016000526020600020906000935b601f1984168510611014576001945083601f19811610610ffb575b505050811b01600c8201556109ca565b015160001960f88460031b161c19169055838080610feb565b81810151835560209485019460019093019290910190610fd0565b909150600c84016000526020600020601f840160051c81016020851061107b575b90849392915b601f830160051c8201811061106c57505061099b565b60008155859450600101611056565b5080611050565b015190508380610952565b9250600b84016000526020600020906000935b601f19841685106110e4576001945083601f198116106110cb575b505050811b01600b82015561096a565b015160001960f88460031b161c191690558380806110bb565b818101518355602094850194600190930192909101906110a0565b909150600b84016000526020600020601f840160051c81016020851061114b575b90849392915b601f830160051c8201811061113c57505061093b565b60008155859450600101611126565b5080611120565b0151905083806108f2565b9250600a84016000526020600020906000935b601f19841685106111b4576001945083601f1981161061119b575b505050811b01600a82015561090a565b015160001960f88460031b161c1916905583808061118b565b81810151835560209485019460019093019290910190611170565b909150600a84016000526020600020601f840160051c81016020851061121b575b90849392915b601f830160051c8201811061120c5750506108db565b600081558594506001016111f6565b50806111f0565b015190508380610892565b9250600984016000526020600020906000935b601f1984168510611284576001945083601f1981161061126b575b505050811b0160098201556108aa565b015160001960f88460031b161c1916905583808061125b565b81810151835560209485019460019093019290910190611240565b909150600984016000526020600020601f840160051c8101602085106112eb575b90849392915b601f830160051c820181106112dc57505061087b565b600081558594506001016112c6565b50806112c0565b015190508380610832565b9250600884016000526020600020906000935b601f1984168510611354576001945083601f1981161061133b575b505050811b01600882015561084a565b015160001960f88460031b161c1916905583808061132b565b81810151835560209485019460019093019290910190611310565b909150600884016000526020600020601f840160051c8101602085106113bb575b90849392915b601f830160051c820181106113ac57505061081b565b60008155859450600101611396565b5080611390565b0151905083806107d2565b9250600784016000526020600020906000935b601f1984168510611424576001945083601f1981161061140b575b505050811b0160078201556107ea565b015160001960f88460031b161c191690558380806113fb565b818101518355602094850194600190930192909101906113e0565b909150600784016000526020600020601f840160051c81016020851061148b575b90849392915b601f830160051c8201811061147c5750506107bb565b60008155859450600101611466565b5080611460565b015190508380610773565b9250600684016000526020600020906000935b601f19841685106114f4576001945083601f198116106114db575b505050811b01600682015561078b565b015160001960f88460031b161c191690558380806114cb565b818101518355602094850194600190930192909101906114b0565b909150600684016000526020600020601f840160051c81016020851061155b575b90849392915b601f830160051c8201811061154c57505061075c565b60008155859450600101611536565b5080611530565b015190508380610714565b9250600584016000526020600020906000935b601f19841685106115c4576001945083601f198116106115ab575b505050811b01600582015561072c565b015160001960f88460031b161c1916905583808061159b565b81810151835560209485019460019093019290910190611580565b909150600584016000526020600020601f840160051c81016020851061162b575b90849392915b601f830160051c8201811061161c5750506106fd565b60008155859450600101611606565b5080611600565b0151905083806106b6565b9250600484016000526020600020906000935b601f1984168510611694576001945083601f1981161061167b575b505050811b0160048201556106ce565b015160001960f88460031b161c1916905583808061166b565b81810151835560209485019460019093019290910190611650565b909150600484016000526020600020601f840160051c8101602085106116fb575b90849392915b601f830160051c820181106116ec57505061069f565b600081558594506001016116d6565b50806116d0565b015190508380610657565b9250600384016000526020600020906000935b601f1984168510611764576001945083601f1981161061174b575b505050811b01600382015561066f565b015160001960f88460031b161c1916905583808061173b565b81810151835560209485019460019093019290910190611720565b909150600384016000526020600020601f840160051c8101602085106117cb575b90849392915b601f830160051c820181106117bc575050610640565b600081558594506001016117a6565b50806117a0565b0151905083806105f8565b9250600284016000526020600020906000935b601f1984168510611834576001945083601f1981161061181b575b505050811b016002820155610610565b015160001960f88460031b161c1916905583808061180b565b818101518355602094850194600190930192909101906117f0565b909150600284016000526020600020601f840160051c81016020851061189b575b90849392915b601f830160051c8201811061188c5750506105e1565b60008155859450600101611876565b5080611870565b015190508380610599565b9250600184016000526020600020906000935b601f1984168510611904576001945083601f198116106118eb575b505050811b0160018201556105b1565b015160001960f88460031b161c191690558380806118db565b818101518355602094850194600190930192909101906118c0565b909150600184016000526020600020601f840160051c81016020851061196b575b90849392915b601f830160051c8201811061195c575050610582565b60008155859450600101611946565b5080611940565b01519050838061053d565b9250836000526020600020906000935b601f19841685106119ce576001945083601f198116106119b5575b505050811b018155610552565b015160001960f88460031b161c191690558380806119a8565b8181015183556020948501946001909301929091019061198d565b909150836000526020600020601f840160051c810160208510611a32575b90849392915b601f830160051c82018110611a23575050610526565b60008155859450600101611a0d565b5080611a07565b60405162461bcd60e51b815260206004820152600b60248201526a139bdd081cdd195dd85c9960aa1b6044820152606490fd5b346100a45760203660031901126100a457611a8561206c565b60606101e0604051611a96816120bc565b82815282602082015282604082015282808201528260808201528260a08201528260c08201528260e08201528261010082015282610120820152826101408201528261016082015282610180820152826101a0820152826101c0820152015260018060a01b03166000526001602052611cea6040600020611c25600f60405192611b1f846120bc565b611b28816120f9565b8452611b36600182016120f9565b6020850152611b47600282016120f9565b6040850152611b58600382016120f9565b6060850152611b69600482016120f9565b6080850152611b7a600582016120f9565b60a0850152611b8b600682016120f9565b60c0850152611b9c600782016120f9565b60e0850152611bad600882016120f9565b610100850152611bbf600982016120f9565b610120850152611bd1600a82016120f9565b610140850152611be3600b82016120f9565b610160850152611bf5600c82016120f9565b610180850152611c07600d82016120f9565b6101a0850152611c19600e82016120f9565b6101c0850152016120f9565b6101e0820152611dd4816101e0611dbf611da9611d91611d79611d61611d49611d31611d19611d026040519d8e9d8e6020815260a0611cd5611cc0611caa611c94611c7e8751610200602089015261022088019061219f565b6020880151878203601f1901604089015261219f565b6040870151868203601f1901606088015261219f565b6060860151858203601f1901608087015261219f565b6080850151848203601f19018486015261219f565b9201519060c0601f198285030191015261219f565b8d60c08d01519060e0601f198285030191015261219f565b60e08b01518d8203601f19016101008f015261219f565b6101008a01518c8203601f19016101208e015261219f565b6101208901518b8203601f19016101408d015261219f565b6101408801518a8203601f19016101608c015261219f565b610160870151898203601f19016101808b015261219f565b610180860151888203601f19016101a08a015261219f565b6101a0850151878203601f19016101c089015261219f565b6101c0840151868203601f19018488015261219f565b910151838203601f190161020085015261219f565b0390f35b346100a45760003660031901126100a4576000546040516001600160a01b039091168152602090f35b346100a45760203660031901126100a4576001600160a01b03611e2261206c565b1660005260016020526040600020611e39816120f9565b9080611e47600182016120f9565b611e53600283016120f9565b611e5f600384016120f9565b611e6b600485016120f9565b611e77600586016120f9565b611e83600687016120f9565b611e8f600788016120f9565b90611e9c600889016120f9565b92611ea960098a016120f9565b94611eb6600a8b016120f9565b96611ec3600b8c016120f9565b98611ed0600c8d016120f9565b9a611edd600d8e016120f9565b9c600e01611eea906120f9565b9d600f01611ef7906120f9565b9e6040518060c05261020080915260c05101611f129161219f565b60c0518082039060200152611f269161219f565b60c0518082039060400152611f3a9161219f565b60c0518082039060600152611f4e9161219f565b60c0518082039060800152611f629161219f565b60c0518082039060a00152611f769161219f565b60c0518082039060c00152611f8a9161219f565b60c0518082039060e00152611f9e9161219f565b60c051808203906101000152611fb39161219f565b60c051808203906101200152611fc89161219f565b60c051808203906101400152611fdd9161219f565b60c051808203906101600152611ff29161219f565b60c0518082039061018001526120079161219f565b60c051808203906101a0015261201c9161219f565b60c051808203906101c001526120319161219f565b9060c051808303906101e0015260c0519161204b9161219f565b0360c051f35b346100a45760003660031901126100a4576020906002548152f35b600435906001600160a01b03821682036100a457565b90600182811c921680156120b2575b602083101461209c57565b634e487b7160e01b600052602260045260246000fd5b91607f1691612091565b61020081019081106001600160401b03821117610d3c57604052565b90601f801991011681019081106001600160401b03821117610d3c57604052565b906040519182600082549261210d84612082565b90818452600194858116908160001461217c5750600114612139575b5050612137925003836120d8565b565b9093915060005260209081600020936000915b81831061216457505061213793508201013880612129565b8554888401850152948501948794509183019161214c565b91505061213794506020925060ff191682840152151560051b8201013880612129565b919082519283825260005b8481106121cb575050826000602080949584010152601f8019910116010190565b6020818301810151848301820152016121aa565b9181601f840112156100a4578235916001600160401b0383116100a457602083818601950101116100a457565b6002548110156122435760026000527f405787fa12a823e0f2b7631cc41b3ba8828b3321ca811111fa75cd3aa3bb5ace0190600090565b634e487b7160e01b600052603260045260246000fd5b9291926001600160401b038211610d3c5760405191612282601f8201601f1916602001846120d8565b8294818452818301116100a4578281602093846000960137010152565b908060209392818452848401376000828201840152601f01601f191601019056fea264697066735822122070374cf5e041dcb1e2839e135496e084a9439211b7f486471ff867e807020c5664736f6c63430008140033",
  "linkReferences": {},
  "deployedLinkReferences": {}
}