{
  "_format": "hh-sol-artifact-1",
  "contractName": "Oculvis",
  "sourceName": "contracts/Oculvis.sol",
  "abi": [
    {
      "anonymous": false,
      "inputs": [
        {
          "indexed": true,
          "internalType": "address",
          "name": "apprentice",
          "type": "address"
        }
      ],
      "name": "CompanionActivated",
      "type": "event"
    },
    {
      "anonymous": false,
      "inputs": [
        {
          "indexed": true,
          "internalType": "address",
          "name": "apprentice",
          "type": "address"
        },
        {
          "indexed": false,
          "internalType": "string",
          "name": "signal",
          "type": "string"
        }
      ],
      "name": "VisionRelayed",
      "type": "event"
    },
    {
      "inputs": [
        {
          "internalType": "address",
          "name": "apprentice",
          "type": "address"
        }
      ],
      "name": "activate",
      "outputs": [],
      "stateMutability": "nonpayable",
      "type": "function"
    },
    {
      "inputs": [
        {
          "internalType": "address",
          "name": "",
          "type": "address"
        }
      ],
      "name": "activated",
      "outputs": [
        {
          "internalType": "bool",
          "name": "",
          "type": "bool"
        }
      ],
      "stateMutability": "view",
      "type": "function"
    },
    {
      "inputs": [
        {
          "internalType": "address",
          "name": "apprentice",
          "type": "address"
        }
      ],
      "name": "echoRelay",
      "outputs": [
        {
          "internalType": "string",
          "name": "",
          "type": "string"
        }
      ],
      "stateMutability": "view",
      "type": "function"
    },
    {
      "inputs": [
        {
          "internalType": "address",
          "name": "apprentice",
          "type": "address"
        },
        {
          "internalType": "string",
          "name": "signal",
          "type": "string"
        }
      ],
      "name": "relay",
      "outputs": [],
      "stateMutability": "nonpayable",
      "type": "function"
    },
    {
      "inputs": [
        {
          "internalType": "address",
          "name": "",
          "type": "address"
        }
      ],
      "name": "relays",
      "outputs": [
        {
          "internalType": "string",
          "name": "",
          "type": "string"
        }
      ],
      "stateMutability": "view",
      "type": "function"
    }
  ],
  "bytecode": "0x60808060405234610016576105ba908161001c8239f35b600080fdfe604060808152600436101561001357600080fd5b600090813560e01c80631c5a9d9c1461036557806322f5d3621461012e57806356f6bba4146100de578063779d8677146100a25763cb8d406f1461005657600080fd5b3461009e57602036600319011261009e5761009a9161008f9082906001600160a01b036100816103c4565b16815260016020522061049a565b905191829182610417565b0390f35b5080fd5b503461009e57602036600319011261009e5760209160ff9082906001600160a01b036100cc6103c4565b16815280855220541690519015158152f35b503461009e57602036600319011261009e5761009a9161008f9082906001600160a01b0361010a6103c4565b168082528160205261012160ff8484205416610540565b815260016020522061049a565b503461009e578060031936011261009e576101476103c4565b67ffffffffffffffff9160243583811161036157366023820112156103615780600401359380851161034d5782519386602093601f199761018f868a601f84011601896103df565b808852366024828401011161034957806024879301838a0137870101526001600160a01b0316808752868352838720549095906101ce9060ff16610540565b858752600190818452848820938651938411610335576101ee8554610460565b601f81116102ef575b508091601f85116001146102665750509180807fb1305c8c6f3cee3aeb6590479550234ad571c375b9ca04a2c161fd1430e609d297959361025597958b9361025b575b501b916000199060031b1c19161790555b5191829182610417565b0390a280f35b87015192503861023a565b84939492919216858a52828a20928a905b8282106102d85750509183917fb1305c8c6f3cee3aeb6590479550234ad571c375b9ca04a2c161fd1430e609d2989694610255989694106102bf575b5050811b01905561024b565b86015160001960f88460031b161c1916905538806102b3565b808785968294968d01518155019501930190610277565b858a52818a20601f860160051c81019183871061032b575b601f0160051c019084905b8281106103205750506101f7565b8b8155018490610312565b9091508190610307565b634e487b7160e01b89526041600452602489fd5b8280fd5b634e487b7160e01b86526041600452602486fd5b8480fd5b503461009e57602036600319011261009e576001600160a01b036103876103c4565b1690818352826020528220600160ff198254161790557fd9b25af30713b5bb8fe8939791ca4aa6d4a10489af27f8bf9da3fdca1e2eec288280a280f35b600435906001600160a01b03821682036103da57565b600080fd5b90601f8019910116810190811067ffffffffffffffff82111761040157604052565b634e487b7160e01b600052604160045260246000fd5b6020808252825181830181905290939260005b82811061044c57505060409293506000838284010152601f8019910116010190565b81810186015184820160400152850161042a565b90600182811c92168015610490575b602083101461047a57565b634e487b7160e01b600052602260045260246000fd5b91607f169161046f565b90604051918260008254926104ae84610460565b90818452600194858116908160001461051d57506001146104da575b50506104d8925003836103df565b565b9093915060005260209081600020936000915b8183106105055750506104d8935082010138806104ca565b855488840185015294850194879450918301916104ed565b9150506104d894506020925060ff191682840152151560051b82010138806104ca565b1561054757565b60405162461bcd60e51b815260206004820152601560248201527413d8dd5b1d9a5cc81b9bdd081858dd1a5d985d1959605a1b6044820152606490fdfea2646970667358221220275914fa764cd45464b51088423149ab5672a00c656a0980ef591e013bab216764736f6c63430008140033",
  "linkReferences": {},
  "deployedLinkReferences": {}
}