{
  "_format": "hh-sol-artifact-1",
  "contractName": "MythlineSummoner",
  "sourceName": "contracts/registry/MythlineSummoner.sol",
  "abi": [
    {
      "inputs": [],
      "stateMutability": "nonpayable",
      "type": "constructor"
    },
    {
      "anonymous": false,
      "inputs": [
        {
          "indexed": true,
          "internalType": "address",
          "name": "entity",
          "type": "address"
        },
        {
          "indexed": false,
          "internalType": "string",
          "name": "name",
          "type": "string"
        },
        {
          "indexed": false,
          "internalType": "string",
          "name": "drift",
          "type": "string"
        },
        {
          "indexed": false,
          "internalType": "string",
          "name": "pulse",
          "type": "string"
        },
        {
          "indexed": false,
          "internalType": "string",
          "name": "codexRef",
          "type": "string"
        }
      ],
      "name": "EntitySummoned",
      "type": "event"
    },
    {
      "inputs": [
        {
          "internalType": "address",
          "name": "",
          "type": "address"
        }
      ],
      "name": "entities",
      "outputs": [
        {
          "internalType": "string",
          "name": "name",
          "type": "string"
        },
        {
          "internalType": "string",
          "name": "drift",
          "type": "string"
        },
        {
          "internalType": "string",
          "name": "pulse",
          "type": "string"
        },
        {
          "internalType": "string",
          "name": "codexRef",
          "type": "string"
        }
      ],
      "stateMutability": "view",
      "type": "function"
    },
    {
      "inputs": [
        {
          "internalType": "address",
          "name": "entity",
          "type": "address"
        }
      ],
      "name": "getEntity",
      "outputs": [
        {
          "internalType": "string",
          "name": "",
          "type": "string"
        },
        {
          "internalType": "string",
          "name": "",
          "type": "string"
        },
        {
          "internalType": "string",
          "name": "",
          "type": "string"
        },
        {
          "internalType": "string",
          "name": "",
          "type": "string"
        }
      ],
      "stateMutability": "view",
      "type": "function"
    },
    {
      "inputs": [
        {
          "internalType": "uint256",
          "name": "",
          "type": "uint256"
        }
      ],
      "name": "keys",
      "outputs": [
        {
          "internalType": "address",
          "name": "",
          "type": "address"
        }
      ],
      "stateMutability": "view",
      "type": "function"
    },
    {
      "inputs": [],
      "name": "steward",
      "outputs": [
        {
          "internalType": "address",
          "name": "",
          "type": "address"
        }
      ],
      "stateMutability": "view",
      "type": "function"
    },
    {
      "inputs": [
        {
          "internalType": "address",
          "name": "entity",
          "type": "address"
        },
        {
          "internalType": "string",
          "name": "name",
          "type": "string"
        },
        {
          "internalType": "string",
          "name": "drift",
          "type": "string"
        },
        {
          "internalType": "string",
          "name": "pulse",
          "type": "string"
        },
        {
          "internalType": "string",
          "name": "codexRef",
          "type": "string"
        }
      ],
      "name": "summonEntity",
      "outputs": [],
      "stateMutability": "nonpayable",
      "type": "function"
    },
    {
      "inputs": [],
      "name": "totalEntities",
      "outputs": [
        {
          "internalType": "uint256",
          "name": "",
          "type": "uint256"
        }
      ],
      "stateMutability": "view",
      "type": "function"
    }
  ],
  "bytecode": "0x6080806040523461002857600080546001600160a01b03191633179055610bb4908161002e8239f35b600080fdfe6080604052600436101561001257600080fd5b60003560e01c80630cb6aaf1146108845780631d8ee48a146108175780635cd8b15e146107f9578063637eea19146107d057806375894e8c146107385763db0fdc051461005e57600080fd5b346107335760a036600319011261073357610077610913565b6024803567ffffffffffffffff811161073357610098903690600401610ae8565b60443567ffffffffffffffff8111610733576100b8903690600401610ae8565b9060643567ffffffffffffffff8111610733576100d9903690600401610ae8565b909160843567ffffffffffffffff8111610733576100fb903690600401610ae8565b60005491989095916001600160a01b031633036107015760405161011e81610963565b61012936898b610b16565b8152610136368486610b16565b6020820152610146368688610b16565b604082015261015636888c610b16565b606082015260018060a01b038b166000526001602052604060002090805180519067ffffffffffffffff82116105555781906101928554610929565b601f81116106b1575b50602090601f83116001146106455760009261063a575b50508160011b916000199060031b1c19161782555b602081015180519067ffffffffffffffff82116105555781906101ed6001860154610929565b601f81116105e7575b50602090601f83116001146105755760009261056a575b50508160011b916000199060031b1c19161760018301555b604081015180519067ffffffffffffffff8211610555576102496002850154610929565b601f811161050e575b50602090601f831160011461049b57606093929160009183610490575b50508160011b916000199060031b1c19161760028401555b015180519067ffffffffffffffff821161047b576102a86003840154610929565b601f8111610434575b50602090601f83116001146103c75760039291600091836103bc575b50508160011b9160001990841b1c1916179101555b60025490680100000000000000008210156103a857509261037c61038a937faa109915a315eda571654aaa143e6d629921a6f1bbc6b23ecbad157e2d558ca79a9b96936103398760016103a39b99016002556108c6565b81546001600160a01b038b811660039390931b92831b921b19161790556040516080808252909b8c9b61036e928d0191610b5d565b918a830360208c0152610b5d565b918783036040890152610b5d565b84810360608601526001600160a01b0390921696610b5d565b0390a2005b634e487b7160e01b60009081526041600452fd5b0151905038806102cd565b90601f198316916003850160005260206000209260005b81811061041c57509160019391856003969410610404575b505050811b019101556102e2565b015160001983861b60f8161c191690553880806103f6565b929360206001819287860151815501950193016103de565b600384016000526020600020601f840160051c810160208510610474575b601f830160051c820181106104685750506102b1565b60008155600101610452565b5080610452565b83634e487b7160e01b60005260416004526000fd5b01519050388061026f565b906002850160005260206000209160005b601f19851681106104f6575091839160019360609695601f198116106104dd575b505050811b016002840155610287565b015160001960f88460031b161c191690553880806104cd565b919260206001819286850151815501940192016104ac565b600285016000526020600020601f840160051c81016020851061054e575b601f830160051c82018110610542575050610252565b6000815560010161052c565b508061052c565b84634e487b7160e01b60005260416004526000fd5b01519050388061020d565b9250600185016000526020600020906000935b601f19841685106105cc576001945083601f198116106105b3575b505050811b016001830155610225565b015160001960f88460031b161c191690553880806105a3565b81810151835560209485019460019093019290910190610588565b909150600185016000526020600020601f840160051c810160208510610633575b90849392915b601f830160051c820181106106245750506101f6565b6000815585945060010161060e565b5080610608565b0151905038806101b2565b9250846000526020600020906000935b601f1984168510610696576001945083601f1981161061067d575b505050811b0182556101c7565b015160001960f88460031b161c19169055388080610670565b81810151835560209485019460019093019290910190610655565b909150846000526020600020601f840160051c8101602085106106fa575b90849392915b601f830160051c820181106106eb57505061019b565b600081558594506001016106d5565b50806106cf565b606490600b6040519162461bcd60e51b8352602060048401528201526a139bdd081cdd195dd85c9960aa1b6044820152fd5b600080fd5b34610733576020366003190112610733576001600160a01b03610759610913565b166000526001602052604060002060405161077381610963565b61077c826109b7565b81526107cc61078d600184016109b7565b91602081019283526107b460036107a6600287016109b7565b9560408401968752016109b7565b90816060820152519251935160405194859485610a9d565b0390f35b34610733576000366003190112610733576000546040516001600160a01b039091168152602090f35b34610733576000366003190112610733576020600254604051908152f35b34610733576020366003190112610733576001600160a01b03610838610913565b166000526001602052604060002061084f816109b7565b6107cc61085e600184016109b7565b926108776003610870600284016109b7565b92016109b7565b9060405194859485610a9d565b3461073357602036600319011261073357600435600254811015610733576108ad6020916108c6565b905460405160039290921b1c6001600160a01b03168152f35b6002548110156108fd5760026000527f405787fa12a823e0f2b7631cc41b3ba8828b3321ca811111fa75cd3aa3bb5ace0190600090565b634e487b7160e01b600052603260045260246000fd5b600435906001600160a01b038216820361073357565b90600182811c92168015610959575b602083101461094357565b634e487b7160e01b600052602260045260246000fd5b91607f1691610938565b6080810190811067ffffffffffffffff82111761097f57604052565b634e487b7160e01b600052604160045260246000fd5b90601f8019910116810190811067ffffffffffffffff82111761097f57604052565b90604051918260008254926109cb84610929565b908184526001948581169081600014610a3a57506001146109f7575b50506109f592500383610995565b565b9093915060005260209081600020936000915b818310610a225750506109f5935082010138806109e7565b85548884018501529485019487945091830191610a0a565b9150506109f594506020925060ff191682840152151560051b82010138806109e7565b919082519283825260005b848110610a89575050826000602080949584010152601f8019910116010190565b602081830181015184830182015201610a68565b92610ac9610ae59593610abb610ad794608088526080880190610a5d565b908682036020880152610a5d565b908482036040860152610a5d565b916060818403910152610a5d565b90565b9181601f840112156107335782359167ffffffffffffffff8311610733576020838186019501011161073357565b92919267ffffffffffffffff821161097f5760405191610b40601f8201601f191660200184610995565b829481845281830111610733578281602093846000960137010152565b908060209392818452848401376000828201840152601f01601f191601019056fea2646970667358221220fa1c22795add834d022ab3e9b336cb7f6bc3d328a3338957040af3357c84495c64736f6c63430008140033",
  "linkReferences": {},
  "deployedLinkReferences": {}
}