{
  "_format": "hh-sol-artifact-1",
  "contractName": "CompanionSummonerXIV",
  "sourceName": "contracts/registry/CompanionSummonerXIV.sol",
  "abi": [
    {
      "inputs": [],
      "stateMutability": "nonpayable",
      "type": "constructor"
    },
    {
      "anonymous": false,
      "inputs": [
        {
          "indexed": true,
          "internalType": "address",
          "name": "companion",
          "type": "address"
        },
        {
          "indexed": false,
          "internalType": "string",
          "name": "name",
          "type": "string"
        },
        {
          "indexed": false,
          "internalType": "string",
          "name": "trait",
          "type": "string"
        },
        {
          "indexed": false,
          "internalType": "string",
          "name": "drift",
          "type": "string"
        },
        {
          "indexed": false,
          "internalType": "string",
          "name": "resonance",
          "type": "string"
        },
        {
          "indexed": false,
          "internalType": "string",
          "name": "codexRef",
          "type": "string"
        },
        {
          "indexed": false,
          "internalType": "string",
          "name": "signature",
          "type": "string"
        },
        {
          "indexed": false,
          "internalType": "string",
          "name": "sanctum",
          "type": "string"
        },
        {
          "indexed": false,
          "internalType": "string",
          "name": "chant",
          "type": "string"
        },
        {
          "indexed": false,
          "internalType": "string",
          "name": "choreography",
          "type": "string"
        },
        {
          "indexed": false,
          "internalType": "string",
          "name": "signal",
          "type": "string"
        },
        {
          "indexed": false,
          "internalType": "string",
          "name": "stewardName",
          "type": "string"
        }
      ],
      "name": "CompanionSummoned",
      "type": "event"
    },
    {
      "inputs": [
        {
          "internalType": "address",
          "name": "",
          "type": "address"
        }
      ],
      "name": "companions",
      "outputs": [
        {
          "internalType": "string",
          "name": "name",
          "type": "string"
        },
        {
          "internalType": "string",
          "name": "trait",
          "type": "string"
        },
        {
          "internalType": "string",
          "name": "drift",
          "type": "string"
        },
        {
          "internalType": "string",
          "name": "resonance",
          "type": "string"
        },
        {
          "internalType": "string",
          "name": "codexRef",
          "type": "string"
        },
        {
          "internalType": "string",
          "name": "signature",
          "type": "string"
        },
        {
          "internalType": "string",
          "name": "sanctum",
          "type": "string"
        },
        {
          "internalType": "string",
          "name": "chant",
          "type": "string"
        },
        {
          "internalType": "string",
          "name": "choreography",
          "type": "string"
        },
        {
          "internalType": "string",
          "name": "signal",
          "type": "string"
        },
        {
          "internalType": "string",
          "name": "stewardName",
          "type": "string"
        }
      ],
      "stateMutability": "view",
      "type": "function"
    },
    {
      "inputs": [
        {
          "internalType": "address",
          "name": "companion",
          "type": "address"
        }
      ],
      "name": "getCompanion",
      "outputs": [
        {
          "components": [
            {
              "internalType": "string",
              "name": "name",
              "type": "string"
            },
            {
              "internalType": "string",
              "name": "trait",
              "type": "string"
            },
            {
              "internalType": "string",
              "name": "drift",
              "type": "string"
            },
            {
              "internalType": "string",
              "name": "resonance",
              "type": "string"
            },
            {
              "internalType": "string",
              "name": "codexRef",
              "type": "string"
            },
            {
              "internalType": "string",
              "name": "signature",
              "type": "string"
            },
            {
              "internalType": "string",
              "name": "sanctum",
              "type": "string"
            },
            {
              "internalType": "string",
              "name": "chant",
              "type": "string"
            },
            {
              "internalType": "string",
              "name": "choreography",
              "type": "string"
            },
            {
              "internalType": "string",
              "name": "signal",
              "type": "string"
            },
            {
              "internalType": "string",
              "name": "stewardName",
              "type": "string"
            }
          ],
          "internalType": "struct CompanionSummonerXIV.Companion",
          "name": "",
          "type": "tuple"
        }
      ],
      "stateMutability": "view",
      "type": "function"
    },
    {
      "inputs": [
        {
          "internalType": "uint256",
          "name": "",
          "type": "uint256"
        }
      ],
      "name": "keys",
      "outputs": [
        {
          "internalType": "address",
          "name": "",
          "type": "address"
        }
      ],
      "stateMutability": "view",
      "type": "function"
    },
    {
      "inputs": [],
      "name": "steward",
      "outputs": [
        {
          "internalType": "address",
          "name": "",
          "type": "address"
        }
      ],
      "stateMutability": "view",
      "type": "function"
    },
    {
      "inputs": [
        {
          "internalType": "address",
          "name": "companion",
          "type": "address"
        },
        {
          "internalType": "string",
          "name": "name",
          "type": "string"
        },
        {
          "internalType": "string",
          "name": "trait",
          "type": "string"
        },
        {
          "internalType": "string",
          "name": "drift",
          "type": "string"
        },
        {
          "internalType": "string",
          "name": "resonance",
          "type": "string"
        },
        {
          "internalType": "string",
          "name": "codexRef",
          "type": "string"
        },
        {
          "internalType": "string",
          "name": "signature",
          "type": "string"
        },
        {
          "internalType": "string",
          "name": "sanctum",
          "type": "string"
        },
        {
          "internalType": "string",
          "name": "chant",
          "type": "string"
        },
        {
          "internalType": "string",
          "name": "choreography",
          "type": "string"
        },
        {
          "internalType": "string",
          "name": "signal",
          "type": "string"
        },
        {
          "internalType": "string",
          "name": "stewardName",
          "type": "string"
        }
      ],
      "name": "summonCompanion",
      "outputs": [],
      "stateMutability": "nonpayable",
      "type": "function"
    },
    {
      "inputs": [],
      "name": "totalCompanions",
      "outputs": [
        {
          "internalType": "uint256",
          "name": "",
          "type": "uint256"
        }
      ],
      "stateMutability": "view",
      "type": "function"
    }
  ],
  "bytecode": "0x6080806040523461002857600080546001600160a01b03191633179055611963908161002e8239f35b600080fdfe6103a0604052600436101561001357600080fd5b60003560e01c80630cb6aaf11461169757806347854b871461151c578063637eea19146114f3578063ec39f18f146114d5578063ef6527371461126e5763fbef7c581461005f57600080fd5b346112695761018036600319011261126957610079611726565b610180526024356001600160401b0381116112695761009c903690600401611899565b61028052610380526044356001600160401b038111611269576100c3903690600401611899565b61012052610200526064356001600160401b038111611269576100ea903690600401611899565b60e052610100526084356001600160401b03811161126957610110903690600401611899565b60c05260805260a4356001600160401b03811161126957610135903690600401611899565b6101c0526102205260c4356001600160401b0381116112695761015c903690600401611899565b610320526102a0526001600160401b0360e43511611269576101833660e435600401611899565b6101a05261024052610104356001600160401b038111611269576101ab903690600401611899565b6101605261036052610124356001600160401b038111611269576101d3903690600401611899565b610340526102e052610144356001600160401b038111611269576101fb903690600401611899565b6102c05261026052610164356001600160401b03811161126957610223903690600401611899565b60a0526101e0526000546001600160a01b031633036112365761024c6040518061014052611776565b61025d3661028051610380516118c6565b61014051526102733661012051610200516118c6565b602061014051015261028b3660e051610100516118c6565b60406101405101526102a23660c0516080516118c6565b60606101405101526102bb366101c051610220516118c6565b60806101405101526102d436610320516102a0516118c6565b60a06101405101526102ed366101a051610240516118c6565b60c06101405101526103063661016051610360516118c6565b60e061014051015261031f36610340516102e0516118c6565b610100610140510152610339366102c051610260516118c6565b6101206101405101526103523660a0516101e0516118c6565b6101408051015260018060a01b0361018051166000526001602052604060002061014051518051906001600160401b038211610949578190610394845461173c565b601f81116111e6575b50602090601f831160011461117a5760009261116f575b50508160011b916000199060031b1c19161781555b60206101405101518051906001600160401b0382116109495781906103f1600185015461173c565b601f811161111c575b50602090601f83116001146110aa5760009261109f575b50508160011b916000199060031b1c19161760018201555b60406101405101518051906001600160401b038211610949578190610451600285015461173c565b601f811161104c575b50602090601f8311600114610fda57600092610fcf575b50508160011b916000199060031b1c19161760028201555b60606101405101518051906001600160401b0382116109495781906104b1600385015461173c565b601f8111610f7c575b50602090601f8311600114610f0a57600092610eff575b50508160011b916000199060031b1c19161760038201555b60806101405101518051906001600160401b038211610949578190610511600485015461173c565b601f8111610eac575b50602090601f8311600114610e3a57600092610e2f575b50508160011b916000199060031b1c19161760048201555b60a06101405101518051906001600160401b038211610949578190610571600585015461173c565b601f8111610ddc575b50602090601f8311600114610d6a57600092610d5f575b50508160011b916000199060031b1c19161760058201555b60c06101405101518051906001600160401b0382116109495781906105d1600685015461173c565b601f8111610d0c575b50602090601f8311600114610c9a57600092610c8f575b50508160011b916000199060031b1c19161760068201555b60e06101405101518051906001600160401b038211610949578190610631600785015461173c565b601f8111610c3c575b50602090601f8311600114610bca57600092610bbf575b50508160011b916000199060031b1c19161760078201555b6101006101405101518051906001600160401b038211610949578190610692600885015461173c565b601f8111610b6c575b50602090601f8311600114610afa57600092610aef575b50508160011b916000199060031b1c19161760088201555b6101206101405101518051906001600160401b0382116109495781906106f3600985015461173c565b601f8111610a9c575b50602090601f8311600114610a2a57600092610a1f575b50508160011b916000199060031b1c19161760098201555b610140805101518051906001600160401b03821161094957610750600a84015461173c565b601f81116109d8575b50602090601f831160011461096a57600a92916000918361095f575b50508160011b916000199060031b1c1916179101555b60025468010000000000000000811015610949578060016107af92016002556116d9565b81549060031b9060018060a01b036101805116821b9160018060a01b03901b19161790556101606040518061030052526108f26108d86108be6108a561088c61087361085a61084361082b6108126101606103005101610280516103805161190c565b610300516020818303910152610120516102005161190c565b61030051604081830391015260e0516101005161190c565b61030051606081830391015260c05160805161190c565b6103005160808183039101526101c0516102205161190c565b6103005160a0818303910152610320516102a05161190c565b6103005160c08183039101526101a0516102405161190c565b6103005160e0818303910152610160516103605161190c565b61030051610100818303910152610340516102e05161190c565b610300516101208183039101526102c0516102605161190c565b610300516101408183039101527fa16f643b732c4f04fa8392ff451cd7f6850bd2acf5dbfb98b3dff98221e8da4e60018060a01b03610180511691610941610300519160a0516101e05161190c565b0361030051a2005b634e487b7160e01b600052604160045260246000fd5b015190503880610775565b90601f19831691600a850160005260206000209260005b8181106109c05750916001939185600a9694106109a7575b505050811b0191015561078b565b015160001960f88460031b161c19169055388080610999565b92936020600181928786015181550195019301610981565b600a84016000526020600020601f840160051c810160208510610a18575b601f830160051c82018110610a0c575050610759565b600081556001016109f6565b50806109f6565b015190503880610713565b9250600984016000526020600020906000935b601f1984168510610a81576001945083601f19811610610a68575b505050811b01600982015561072b565b015160001960f88460031b161c19169055388080610a58565b81810151835560209485019460019093019290910190610a3d565b909150600984016000526020600020601f840160051c810160208510610ae8575b90849392915b601f830160051c82018110610ad95750506106fc565b60008155859450600101610ac3565b5080610abd565b0151905038806106b2565b9250600884016000526020600020906000935b601f1984168510610b51576001945083601f19811610610b38575b505050811b0160088201556106ca565b015160001960f88460031b161c19169055388080610b28565b81810151835560209485019460019093019290910190610b0d565b909150600884016000526020600020601f840160051c810160208510610bb8575b90849392915b601f830160051c82018110610ba957505061069b565b60008155859450600101610b93565b5080610b8d565b015190503880610651565b9250600784016000526020600020906000935b601f1984168510610c21576001945083601f19811610610c08575b505050811b016007820155610669565b015160001960f88460031b161c19169055388080610bf8565b81810151835560209485019460019093019290910190610bdd565b909150600784016000526020600020601f840160051c810160208510610c88575b90849392915b601f830160051c82018110610c7957505061063a565b60008155859450600101610c63565b5080610c5d565b0151905038806105f1565b9250600684016000526020600020906000935b601f1984168510610cf1576001945083601f19811610610cd8575b505050811b016006820155610609565b015160001960f88460031b161c19169055388080610cc8565b81810151835560209485019460019093019290910190610cad565b909150600684016000526020600020601f840160051c810160208510610d58575b90849392915b601f830160051c82018110610d495750506105da565b60008155859450600101610d33565b5080610d2d565b015190503880610591565b9250600584016000526020600020906000935b601f1984168510610dc1576001945083601f19811610610da8575b505050811b0160058201556105a9565b015160001960f88460031b161c19169055388080610d98565b81810151835560209485019460019093019290910190610d7d565b909150600584016000526020600020601f840160051c810160208510610e28575b90849392915b601f830160051c82018110610e1957505061057a565b60008155859450600101610e03565b5080610dfd565b015190503880610531565b9250600484016000526020600020906000935b601f1984168510610e91576001945083601f19811610610e78575b505050811b016004820155610549565b015160001960f88460031b161c19169055388080610e68565b81810151835560209485019460019093019290910190610e4d565b909150600484016000526020600020601f840160051c810160208510610ef8575b90849392915b601f830160051c82018110610ee957505061051a565b60008155859450600101610ed3565b5080610ecd565b0151905038806104d1565b9250600384016000526020600020906000935b601f1984168510610f61576001945083601f19811610610f48575b505050811b0160038201556104e9565b015160001960f88460031b161c19169055388080610f38565b81810151835560209485019460019093019290910190610f1d565b909150600384016000526020600020601f840160051c810160208510610fc8575b90849392915b601f830160051c82018110610fb95750506104ba565b60008155859450600101610fa3565b5080610f9d565b015190503880610471565b9250600284016000526020600020906000935b601f1984168510611031576001945083601f19811610611018575b505050811b016002820155610489565b015160001960f88460031b161c19169055388080611008565b81810151835560209485019460019093019290910190610fed565b909150600284016000526020600020601f840160051c810160208510611098575b90849392915b601f830160051c8201811061108957505061045a565b60008155859450600101611073565b508061106d565b015190503880610411565b9250600184016000526020600020906000935b601f1984168510611101576001945083601f198116106110e8575b505050811b016001820155610429565b015160001960f88460031b161c191690553880806110d8565b818101518355602094850194600190930192909101906110bd565b909150600184016000526020600020601f840160051c810160208510611168575b90849392915b601f830160051c820181106111595750506103fa565b60008155859450600101611143565b508061113d565b0151905038806103b4565b9250836000526020600020906000935b601f19841685106111cb576001945083601f198116106111b2575b505050811b0181556103c9565b015160001960f88460031b161c191690553880806111a5565b8181015183556020948501946001909301929091019061118a565b909150836000526020600020601f840160051c81016020851061122f575b90849392915b601f830160051c8201811061122057505061039d565b6000815585945060010161120a565b5080611204565b60405162461bcd60e51b815260206004820152600b60248201526a139bdd081cdd195dd85c9960aa1b6044820152606490fd5b600080fd5b3461126957602036600319011261126957611287611726565b606061014060405161129881611776565b82815282602082015282604082015282808201528260808201528260a08201528260c08201528260e08201528261010082015282610120820152015260018060a01b031660005260016020526114d160406000206113aa600a604051926112fe84611776565b611307816117b3565b8452611315600182016117b3565b6020850152611326600282016117b3565b6040850152611337600382016117b3565b6060850152611348600482016117b3565b6080850152611359600582016117b3565b60a085015261136a600682016117b3565b60c085015261137b600782016117b3565b60e085015261138c600882016117b3565b61010085015261139e600982016117b3565b610120850152016117b3565b610140820152604051918291602083526101406114bc6114a661148e61147761146161144b61143561141f6114096113f18d6101808d519161016060208201520190611859565b8d60208d0151906040601f1982850301910152611859565b60408b01518d8203601f190160608f0152611859565b60608a01518c8203601f190160808e0152611859565b60808901518b8203601f190160a08d0152611859565b60a08801518a8203601f190160c08c0152611859565b60c0870151898203601f190160e08b0152611859565b60e0860151888203601f19016101008a0152611859565b610100850151878203601f1901610120890152611859565b610120840151868203601f190184880152611859565b910151838203601f1901610160850152611859565b0390f35b34611269576000366003190112611269576020600254604051908152f35b34611269576000366003190112611269576000546040516001600160a01b039091168152602090f35b34611269576020366003190112611269576001600160a01b0361153d611726565b1660005260016020526040600020611554816117b3565b611560600183016117b3565b9161156d600282016117b3565b9061157a600382016117b3565b611586600483016117b3565b611592600584016117b3565b61159e600685016117b3565b906115ab600786016117b3565b926115b8600887016117b3565b946115c5600988016117b3565b96600a016115d2906117b3565b976040519a8b9a610160808d528c016115ea91611859565b8b810360208d01526115fb91611859565b8a810360408c015261160c91611859565b89810360608b015261161d91611859565b88810360808a015261162e91611859565b87810360a089015261163f91611859565b86810360c088015261165091611859565b85810360e087015261166191611859565b84810361010086015261167391611859565b83810361012085015261168591611859565b8281036101408401526114d191611859565b3461126957602036600319011261126957600435600254811015611269576116c06020916116d9565b905460405160039290921b1c6001600160a01b03168152f35b6002548110156117105760026000527f405787fa12a823e0f2b7631cc41b3ba8828b3321ca811111fa75cd3aa3bb5ace0190600090565b634e487b7160e01b600052603260045260246000fd5b600435906001600160a01b038216820361126957565b90600182811c9216801561176c575b602083101461175657565b634e487b7160e01b600052602260045260246000fd5b91607f169161174b565b61016081019081106001600160401b0382111761094957604052565b90601f801991011681019081106001600160401b0382111761094957604052565b90604051918260008254926117c78461173c565b90818452600194858116908160001461183657506001146117f3575b50506117f192500383611792565b565b9093915060005260209081600020936000915b81831061181e5750506117f1935082010138806117e3565b85548884018501529485019487945091830191611806565b9150506117f194506020925060ff191682840152151560051b82010138806117e3565b919082519283825260005b848110611885575050826000602080949584010152601f8019910116010190565b602081830181015184830182015201611864565b9181601f84011215611269578235916001600160401b038311611269576020838186019501011161126957565b9291926001600160401b03821161094957604051916118ef601f8201601f191660200184611792565b829481845281830111611269578281602093846000960137010152565b908060209392818452848401376000828201840152601f01601f191601019056fea2646970667358221220f65198a45d291bc0e792769b035de1fadf4327e0fbe42ee6c103e25d90e582fd64736f6c63430008140033",
  "linkReferences": {},
  "deployedLinkReferences": {}
}