{
  "_format": "hh-sol-artifact-1",
  "contractName": "Tessalyre",
  "sourceName": "contracts/Tessalyre.sol",
  "abi": [
    {
      "anonymous": false,
      "inputs": [
        {
          "indexed": true,
          "internalType": "address",
          "name": "apprentice",
          "type": "address"
        },
        {
          "indexed": false,
          "internalType": "string",
          "name": "memorySignal",
          "type": "string"
        }
      ],
      "name": "LineageEchoed",
      "type": "event"
    },
    {
      "anonymous": false,
      "inputs": [
        {
          "indexed": true,
          "internalType": "address",
          "name": "apprentice",
          "type": "address"
        }
      ],
      "name": "TessalyreCrowned",
      "type": "event"
    },
    {
      "inputs": [
        {
          "internalType": "address",
          "name": "apprentice",
          "type": "address"
        }
      ],
      "name": "crown",
      "outputs": [],
      "stateMutability": "nonpayable",
      "type": "function"
    },
    {
      "inputs": [
        {
          "internalType": "address",
          "name": "",
          "type": "address"
        }
      ],
      "name": "crowned",
      "outputs": [
        {
          "internalType": "bool",
          "name": "",
          "type": "bool"
        }
      ],
      "stateMutability": "view",
      "type": "function"
    },
    {
      "inputs": [
        {
          "internalType": "address",
          "name": "apprentice",
          "type": "address"
        }
      ],
      "name": "echoLineage",
      "outputs": [
        {
          "internalType": "string",
          "name": "",
          "type": "string"
        }
      ],
      "stateMutability": "view",
      "type": "function"
    },
    {
      "inputs": [
        {
          "internalType": "address",
          "name": "",
          "type": "address"
        }
      ],
      "name": "echoes",
      "outputs": [
        {
          "internalType": "string",
          "name": "",
          "type": "string"
        }
      ],
      "stateMutability": "view",
      "type": "function"
    },
    {
      "inputs": [
        {
          "internalType": "address",
          "name": "apprentice",
          "type": "address"
        },
        {
          "internalType": "string",
          "name": "memorySignal",
          "type": "string"
        }
      ],
      "name": "sing",
      "outputs": [],
      "stateMutability": "nonpayable",
      "type": "function"
    }
  ],
  "bytecode": "0x60808060405234610016576105bb908161001c8239f35b600080fdfe60806040818152600436101561001457600080fd5b600091823560e01c90816339aef80414610190575080635dca16071461013157806386ae9b2a146100e1578063996947ce146100a55763ad1400231461005957600080fd5b346100a15760203660031901126100a15761009d916100929082906001600160a01b036100846103c5565b16815260016020522061049b565b905191829182610418565b0390f35b5080fd5b50346100a15760203660031901126100a15760209160ff9082906001600160a01b036100cf6103c5565b16815280855220541690519015158152f35b50346100a15760203660031901126100a15761009d916100929082906001600160a01b0361010d6103c5565b168082528160205261012460ff8484205416610541565b815260016020522061049b565b50346100a15760203660031901126100a1576001600160a01b036101536103c5565b1690818352826020528220600160ff198254161790557fcf8526c5f20b011a7e1c0a12fb983fcf9cf2659e1ca67521539300de10ed7ff28280a280f35b9050346103a957816003193601126103a9576101aa6103c5565b9160243567ffffffffffffffff8082116103c157366023830112156103c1578160040135948186116103ad5786602093601f19976101ef868a601f84011601896103e0565b80885236602482840101116103a957806024879301838a0137870101526001600160a01b03168087528683528387205490959061022e9060ff16610541565b8587526001908184528488209386519384116103955761024e8554610461565b601f811161034f575b508091601f85116001146102c65750509180807fce486f6dada709b561ff9f37acb7cadbe135784a7b2143a4e320111bfc3697329795936102b597958b936102bb575b501b916000199060031b1c19161790555b5191829182610418565b0390a280f35b87015192503861029a565b84939492919216858a52828a20928a905b8282106103385750509183917fce486f6dada709b561ff9f37acb7cadbe135784a7b2143a4e320111bfc3697329896946102b59896941061031f575b5050811b0190556102ab565b86015160001960f88460031b161c191690553880610313565b808785968294968d015181550195019301906102d7565b858a52818a20601f860160051c81019183871061038b575b601f0160051c019084905b828110610380575050610257565b8b8155018490610372565b9091508190610367565b634e487b7160e01b89526041600452602489fd5b8280fd5b634e487b7160e01b87526041600452602487fd5b8580fd5b600435906001600160a01b03821682036103db57565b600080fd5b90601f8019910116810190811067ffffffffffffffff82111761040257604052565b634e487b7160e01b600052604160045260246000fd5b6020808252825181830181905290939260005b82811061044d57505060409293506000838284010152601f8019910116010190565b81810186015184820160400152850161042b565b90600182811c92168015610491575b602083101461047b57565b634e487b7160e01b600052602260045260246000fd5b91607f1691610470565b90604051918260008254926104af84610461565b90818452600194858116908160001461051e57506001146104db575b50506104d9925003836103e0565b565b9093915060005260209081600020936000915b8183106105065750506104d9935082010138806104cb565b855488840185015294850194879450918301916104ee565b9150506104d994506020925060ff191682840152151560051b82010138806104cb565b1561054857565b60405162461bcd60e51b815260206004820152601560248201527415195cdcd85b1e5c99481b9bdd0818dc9bdddb9959605a1b6044820152606490fdfea264697066735822122047cab6155a4b73ea9a4cf53a64fac8709fcaca92aeaf8653bcbd7f9f47dfa92964736f6c63430008140033",
  "linkReferences": {},
  "deployedLinkReferences": {}
}