{
  "_format": "hh-sol-artifact-1",
  "contractName": "ApprenticeSummonerXVII",
  "sourceName": "contracts/registry/ApprenticeSummonerXVII.sol",
  "abi": [
    {
      "inputs": [],
      "stateMutability": "nonpayable",
      "type": "constructor"
    },
    {
      "anonymous": false,
      "inputs": [
        {
          "indexed": true,
          "internalType": "address",
          "name": "apprentice",
          "type": "address"
        },
        {
          "indexed": false,
          "internalType": "string",
          "name": "name",
          "type": "string"
        },
        {
          "indexed": false,
          "internalType": "string",
          "name": "signal",
          "type": "string"
        },
        {
          "indexed": false,
          "internalType": "string",
          "name": "drift",
          "type": "string"
        },
        {
          "indexed": false,
          "internalType": "string",
          "name": "pulse",
          "type": "string"
        },
        {
          "indexed": false,
          "internalType": "string",
          "name": "codexRef",
          "type": "string"
        },
        {
          "indexed": false,
          "internalType": "string",
          "name": "resonance",
          "type": "string"
        },
        {
          "indexed": false,
          "internalType": "string",
          "name": "signature",
          "type": "string"
        },
        {
          "indexed": false,
          "internalType": "string",
          "name": "sanctum",
          "type": "string"
        },
        {
          "indexed": false,
          "internalType": "string",
          "name": "chant",
          "type": "string"
        },
        {
          "indexed": false,
          "internalType": "string",
          "name": "choreography",
          "type": "string"
        },
        {
          "indexed": false,
          "internalType": "string",
          "name": "stewardName",
          "type": "string"
        },
        {
          "indexed": false,
          "internalType": "string",
          "name": "echo",
          "type": "string"
        },
        {
          "indexed": false,
          "internalType": "string",
          "name": "choreographyType",
          "type": "string"
        },
        {
          "indexed": false,
          "internalType": "string",
          "name": "signalType",
          "type": "string"
        }
      ],
      "name": "ApprenticeSummoned",
      "type": "event"
    },
    {
      "inputs": [
        {
          "internalType": "uint256",
          "name": "",
          "type": "uint256"
        }
      ],
      "name": "apprentices",
      "outputs": [
        {
          "internalType": "address",
          "name": "",
          "type": "address"
        }
      ],
      "stateMutability": "view",
      "type": "function"
    },
    {
      "inputs": [
        {
          "internalType": "address",
          "name": "apprentice",
          "type": "address"
        }
      ],
      "name": "getSummons",
      "outputs": [
        {
          "components": [
            {
              "internalType": "string",
              "name": "name",
              "type": "string"
            },
            {
              "internalType": "string",
              "name": "signal",
              "type": "string"
            },
            {
              "internalType": "string",
              "name": "drift",
              "type": "string"
            },
            {
              "internalType": "string",
              "name": "pulse",
              "type": "string"
            },
            {
              "internalType": "string",
              "name": "codexRef",
              "type": "string"
            },
            {
              "internalType": "string",
              "name": "resonance",
              "type": "string"
            },
            {
              "internalType": "string",
              "name": "signature",
              "type": "string"
            },
            {
              "internalType": "string",
              "name": "sanctum",
              "type": "string"
            },
            {
              "internalType": "string",
              "name": "chant",
              "type": "string"
            },
            {
              "internalType": "string",
              "name": "choreography",
              "type": "string"
            },
            {
              "internalType": "string",
              "name": "stewardName",
              "type": "string"
            },
            {
              "internalType": "string",
              "name": "echo",
              "type": "string"
            },
            {
              "internalType": "string",
              "name": "choreographyType",
              "type": "string"
            },
            {
              "internalType": "string",
              "name": "signalType",
              "type": "string"
            }
          ],
          "internalType": "struct ApprenticeSummonerXVII.Summons",
          "name": "",
          "type": "tuple"
        }
      ],
      "stateMutability": "view",
      "type": "function"
    },
    {
      "inputs": [],
      "name": "steward",
      "outputs": [
        {
          "internalType": "address",
          "name": "",
          "type": "address"
        }
      ],
      "stateMutability": "view",
      "type": "function"
    },
    {
      "inputs": [
        {
          "internalType": "address",
          "name": "apprentice",
          "type": "address"
        },
        {
          "internalType": "string",
          "name": "name",
          "type": "string"
        },
        {
          "internalType": "string",
          "name": "signal",
          "type": "string"
        },
        {
          "internalType": "string",
          "name": "drift",
          "type": "string"
        },
        {
          "internalType": "string",
          "name": "pulse",
          "type": "string"
        },
        {
          "internalType": "string",
          "name": "codexRef",
          "type": "string"
        },
        {
          "internalType": "string",
          "name": "resonance",
          "type": "string"
        },
        {
          "internalType": "string",
          "name": "signature",
          "type": "string"
        },
        {
          "internalType": "string",
          "name": "sanctum",
          "type": "string"
        },
        {
          "internalType": "string",
          "name": "chant",
          "type": "string"
        },
        {
          "internalType": "string",
          "name": "choreography",
          "type": "string"
        },
        {
          "internalType": "string",
          "name": "stewardName",
          "type": "string"
        },
        {
          "internalType": "string",
          "name": "echo",
          "type": "string"
        },
        {
          "internalType": "string",
          "name": "choreographyType",
          "type": "string"
        },
        {
          "internalType": "string",
          "name": "signalType",
          "type": "string"
        }
      ],
      "name": "summonApprentice",
      "outputs": [],
      "stateMutability": "nonpayable",
      "type": "function"
    },
    {
      "inputs": [
        {
          "internalType": "address",
          "name": "",
          "type": "address"
        }
      ],
      "name": "summons",
      "outputs": [
        {
          "internalType": "string",
          "name": "name",
          "type": "string"
        },
        {
          "internalType": "string",
          "name": "signal",
          "type": "string"
        },
        {
          "internalType": "string",
          "name": "drift",
          "type": "string"
        },
        {
          "internalType": "string",
          "name": "pulse",
          "type": "string"
        },
        {
          "internalType": "string",
          "name": "codexRef",
          "type": "string"
        },
        {
          "internalType": "string",
          "name": "resonance",
          "type": "string"
        },
        {
          "internalType": "string",
          "name": "signature",
          "type": "string"
        },
        {
          "internalType": "string",
          "name": "sanctum",
          "type": "string"
        },
        {
          "internalType": "string",
          "name": "chant",
          "type": "string"
        },
        {
          "internalType": "string",
          "name": "choreography",
          "type": "string"
        },
        {
          "internalType": "string",
          "name": "stewardName",
          "type": "string"
        },
        {
          "internalType": "string",
          "name": "echo",
          "type": "string"
        },
        {
          "internalType": "string",
          "name": "choreographyType",
          "type": "string"
        },
        {
          "internalType": "string",
          "name": "signalType",
          "type": "string"
        }
      ],
      "stateMutability": "view",
      "type": "function"
    },
    {
      "inputs": [],
      "name": "totalSummons",
      "outputs": [
        {
          "internalType": "uint256",
          "name": "",
          "type": "uint256"
        }
      ],
      "stateMutability": "view",
      "type": "function"
    }
  ],
  "bytecode": "0x6080806040523461002857600080546001600160a01b03191633179055611efc908161002e8239f35b600080fdfe61046080604052600436101561001457600080fd5b60003560e01c9081632a17d4cd14611c57575080635a2ed66214611a7f5780635da9c05a146103d6578063637eea19146103ad578063cf84c603146100a95763f31bee3e1461006257600080fd5b346100a45760203660031901126100a4576004356002548110156100a45761008b602091611e12565b905460405160039290921b1c6001600160a01b03168152f35b600080fd5b346100a45760203660031901126100a4576100c2611c72565b60606101a06040516100d381611cc2565b82815282602082015282604082015282808201528260808201528260a08201528260c08201528260e08201528261010082015282610120820152826101408201528261016082015282610180820152015260018060a01b031660005260016020526102c36040600020610230600d6040519261014e84611cc2565b61015781611cff565b845261016560018201611cff565b602085015261017660028201611cff565b604085015261018760038201611cff565b606085015261019860048201611cff565b60808501526101a960058201611cff565b60a08501526101ba60068201611cff565b60c08501526101cb60078201611cff565b60e08501526101dc60088201611cff565b6101008501526101ee60098201611cff565b610120850152610200600a8201611cff565b610140850152610212600b8201611cff565b610160850152610224600c8201611cff565b61018085015201611cff565b6101a08201526103a9816101a061039461037e61036661034e61033661031e6103076102f16102db6040519d8e9d8e6020815260606102ae61029961028385516101c060208701526101e0860190611da5565b6020860151858203601f19016040870152611da5565b6040850151848203601f190184860152611da5565b920151906080601f1982850301910152611da5565b8d60808d01519060a0601f1982850301910152611da5565b60a08b01518d8203601f190160c08f0152611da5565b60c08a01518c8203601f190160e08e0152611da5565b60e08901518b8203601f19016101008d0152611da5565b6101008801518a8203601f19016101208c0152611da5565b610120870151898203601f19016101408b0152611da5565b610140860151888203601f19016101608a0152611da5565b610160850151878203601f1901610180890152611da5565b610180840151868203601f190184880152611da5565b910151838203601f19016101c0850152611da5565b0390f35b346100a45760003660031901126100a4576000546040516001600160a01b039091168152602090f35b346100a4576101e03660031901126100a4576103f0611c72565b610300526024356001600160401b0381116100a457610413903690600401611de5565b6102e052610360526044356001600160401b0381116100a45761043a903690600401611de5565b60c052610380526064356001600160401b0381116100a457610460903690600401611de5565b610280526102a0526084356001600160401b0381116100a457610487903690600401611de5565b610100526103a0526001600160401b0360a435116100a4576104ae3660a435600401611de5565b6102c052610200526001600160401b0360c435116100a4576104d53660c435600401611de5565b610120526101e0526001600160401b0360e435116100a4576104fc3660e435600401611de5565b6103c052610240526001600160401b0361010435116100a4576105253661010435600401611de5565b61044052610220526001600160401b0361012435116100a45761054e3661012435600401611de5565b61042052610320526001600160401b0361014435116100a4576105773661014435600401611de5565b6103405260e0526001600160401b0361016435116100a45761059f3661016435600401611de5565b610140526103e0526001600160401b0361018435116100a4576105c83661018435600401611de5565b610260526101c0526001600160401b036101a435116100a4576105f1366101a435600401611de5565b6101a052610400526001600160401b036101c435116100a45761061a366101c435600401611de5565b6101805260a0526000546001600160a01b03163303611a4c5761064260405180608052611cc2565b610653366102e05161036051611e5f565b608051526106673660c05161038051611e5f565b6020608051015261067f36610280516102a051611e5f565b6040608051015261069736610100516103a051611e5f565b606060805101526106af366102c05161020051611e5f565b6080805101526106c636610120516101e051611e5f565b60a060805101526106de366103c05161024051611e5f565b60c060805101526106f6366104405161022051611e5f565b60e0608051015261070e366104205161032051611e5f565b6101006080510152610726366103405160e051611e5f565b610120608051015261073f36610140516103e051611e5f565b610140608051015261075836610260516101c051611e5f565b6101606080510152610771366101a05161040051611e5f565b6101806080510152610789366101805160a051611e5f565b6101a0608051015260018060a01b03610300511660005260016020526040600020608051518051906001600160401b038211610eef5781906107cb8454611c88565b601f81116119fc575b50602090601f831160011461199057600092611985575b50508160011b916000199060031b1c19161781555b602060805101518051906001600160401b038211610eef5781906108276001850154611c88565b601f8111611932575b50602090601f83116001146118c0576000926118b5575b50508160011b916000199060031b1c19161760018201555b604060805101518051906001600160401b038211610eef5781906108866002850154611c88565b601f8111611862575b50602090601f83116001146117f0576000926117e5575b50508160011b916000199060031b1c19161760028201555b606060805101518051906001600160401b038211610eef5781906108e56003850154611c88565b601f8111611792575b50602090601f831160011461172057600092611715575b50508160011b916000199060031b1c19161760038201555b6080805101518051906001600160401b038211610eef5781906109436004850154611c88565b601f81116116c2575b50602090601f831160011461165057600092611645575b50508160011b916000199060031b1c19161760048201555b60a060805101518051906001600160401b038211610eef5781906109a26005850154611c88565b601f81116115f2575b50602090601f831160011461158057600092611575575b50508160011b916000199060031b1c19161760058201555b60c060805101518051906001600160401b038211610eef578190610a016006850154611c88565b601f8111611522575b50602090601f83116001146114b0576000926114a5575b50508160011b916000199060031b1c19161760068201555b60e060805101518051906001600160401b038211610eef578190610a606007850154611c88565b601f8111611452575b50602090601f83116001146113e0576000926113d5575b50508160011b916000199060031b1c19161760078201555b61010060805101518051906001600160401b038211610eef578190610ac06008850154611c88565b601f8111611382575b50602090601f831160011461131057600092611305575b50508160011b916000199060031b1c19161760088201555b61012060805101518051906001600160401b038211610eef578190610b206009850154611c88565b601f81116112b2575b50602090601f831160011461124057600092611235575b50508160011b916000199060031b1c19161760098201555b61014060805101518051906001600160401b038211610eef578190610b80600a850154611c88565b601f81116111e2575b50602090601f831160011461117057600092611165575b50508160011b916000199060031b1c191617600a8201555b61016060805101518051906001600160401b038211610eef578190610be0600b850154611c88565b601f8111611112575b50602090601f83116001146110a057600092611095575b50508160011b916000199060031b1c191617600b8201555b61018060805101518051906001600160401b038211610eef578190610c40600c850154611c88565b601f8111611042575b50602090601f8311600114610fd057600092610fc5575b50508160011b916000199060031b1c191617600c8201555b6101a060805101518051906001600160401b038211610eef57610c9e600d840154611c88565b601f8111610f7e575b50602090601f8311600114610f1057600d929160009183610f05575b50508160011b916000199060031b1c1916179101555b60025468010000000000000000811015610eef57806001610cfd9201600255611e12565b81549060031b9060018060a01b036103005116821b9160018060a01b03901b19161790556101c0604051806101605252610e98610e7e610e64610e4a610e31610e17610dfe610de5610dcc610db3610d9a610d81610d696101c061016051016102e05161036051611ea5565b61016051602081830391015260c05161038051611ea5565b610160516040818303910152610280516102a051611ea5565b610160516060818303910152610100516103a051611ea5565b6101605160808183039101526102c05161020051611ea5565b6101605160a0818303910152610120516101e051611ea5565b6101605160c08183039101526103c05161024051611ea5565b6101605160e08183039101526104405161022051611ea5565b610160516101008183039101526104205161032051611ea5565b610160516101208183039101526103405160e051611ea5565b61016051610140818303910152610140516103e051611ea5565b61016051610160818303910152610260516101c051611ea5565b610160516101808183039101526101a05161040051611ea5565b610160516101a08183039101527f63cb6bdcf475c66bce6432ffd152ea83900faa9eef6fab6d653178030d7bf57260018060a01b03610300511691610ee761016051916101805160a051611ea5565b0361016051a2005b634e487b7160e01b600052604160045260246000fd5b015190508480610cc3565b90600d84016000526020600020916000601f198516905b818110610f665750916001939185600d969410610f4d575b505050811b01910155610cd9565b015160001960f88460031b161c19169055848080610f3f565b92936020600181928786015181550195019301610f27565b600d84016000526020600020601f840160051c810160208510610fbe575b601f830160051c82018110610fb2575050610ca7565b60008155600101610f9c565b5080610f9c565b015190508380610c60565b9250600c84016000526020600020906000935b601f1984168510611027576001945083601f1981161061100e575b505050811b01600c820155610c78565b015160001960f88460031b161c19169055838080610ffe565b81810151835560209485019460019093019290910190610fe3565b909150600c84016000526020600020601f840160051c81016020851061108e575b90849392915b601f830160051c8201811061107f575050610c49565b60008155859450600101611069565b5080611063565b015190508380610c00565b9250600b84016000526020600020906000935b601f19841685106110f7576001945083601f198116106110de575b505050811b01600b820155610c18565b015160001960f88460031b161c191690558380806110ce565b818101518355602094850194600190930192909101906110b3565b909150600b84016000526020600020601f840160051c81016020851061115e575b90849392915b601f830160051c8201811061114f575050610be9565b60008155859450600101611139565b5080611133565b015190508380610ba0565b9250600a84016000526020600020906000935b601f19841685106111c7576001945083601f198116106111ae575b505050811b01600a820155610bb8565b015160001960f88460031b161c1916905583808061119e565b81810151835560209485019460019093019290910190611183565b909150600a84016000526020600020601f840160051c81016020851061122e575b90849392915b601f830160051c8201811061121f575050610b89565b60008155859450600101611209565b5080611203565b015190508380610b40565b9250600984016000526020600020906000935b601f1984168510611297576001945083601f1981161061127e575b505050811b016009820155610b58565b015160001960f88460031b161c1916905583808061126e565b81810151835560209485019460019093019290910190611253565b909150600984016000526020600020601f840160051c8101602085106112fe575b90849392915b601f830160051c820181106112ef575050610b29565b600081558594506001016112d9565b50806112d3565b015190508380610ae0565b9250600884016000526020600020906000935b601f1984168510611367576001945083601f1981161061134e575b505050811b016008820155610af8565b015160001960f88460031b161c1916905583808061133e565b81810151835560209485019460019093019290910190611323565b909150600884016000526020600020601f840160051c8101602085106113ce575b90849392915b601f830160051c820181106113bf575050610ac9565b600081558594506001016113a9565b50806113a3565b015190508380610a80565b9250600784016000526020600020906000935b601f1984168510611437576001945083601f1981161061141e575b505050811b016007820155610a98565b015160001960f88460031b161c1916905583808061140e565b818101518355602094850194600190930192909101906113f3565b909150600784016000526020600020601f840160051c81016020851061149e575b90849392915b601f830160051c8201811061148f575050610a69565b60008155859450600101611479565b5080611473565b015190508380610a21565b9250600684016000526020600020906000935b601f1984168510611507576001945083601f198116106114ee575b505050811b016006820155610a39565b015160001960f88460031b161c191690558380806114de565b818101518355602094850194600190930192909101906114c3565b909150600684016000526020600020601f840160051c81016020851061156e575b90849392915b601f830160051c8201811061155f575050610a0a565b60008155859450600101611549565b5080611543565b0151905083806109c2565b9250600584016000526020600020906000935b601f19841685106115d7576001945083601f198116106115be575b505050811b0160058201556109da565b015160001960f88460031b161c191690558380806115ae565b81810151835560209485019460019093019290910190611593565b909150600584016000526020600020601f840160051c81016020851061163e575b90849392915b601f830160051c8201811061162f5750506109ab565b60008155859450600101611619565b5080611613565b015190508380610963565b9250600484016000526020600020906000935b601f19841685106116a7576001945083601f1981161061168e575b505050811b01600482015561097b565b015160001960f88460031b161c1916905583808061167e565b81810151835560209485019460019093019290910190611663565b909150600484016000526020600020601f840160051c81016020851061170e575b90849392915b601f830160051c820181106116ff57505061094c565b600081558594506001016116e9565b50806116e3565b015190508380610905565b9250600384016000526020600020906000935b601f1984168510611777576001945083601f1981161061175e575b505050811b01600382015561091d565b015160001960f88460031b161c1916905583808061174e565b81810151835560209485019460019093019290910190611733565b909150600384016000526020600020601f840160051c8101602085106117de575b90849392915b601f830160051c820181106117cf5750506108ee565b600081558594506001016117b9565b50806117b3565b0151905083806108a6565b9250600284016000526020600020906000935b601f1984168510611847576001945083601f1981161061182e575b505050811b0160028201556108be565b015160001960f88460031b161c1916905583808061181e565b81810151835560209485019460019093019290910190611803565b909150600284016000526020600020601f840160051c8101602085106118ae575b90849392915b601f830160051c8201811061189f57505061088f565b60008155859450600101611889565b5080611883565b015190508380610847565b9250600184016000526020600020906000935b601f1984168510611917576001945083601f198116106118fe575b505050811b01600182015561085f565b015160001960f88460031b161c191690558380806118ee565b818101518355602094850194600190930192909101906118d3565b909150600184016000526020600020601f840160051c81016020851061197e575b90849392915b601f830160051c8201811061196f575050610830565b60008155859450600101611959565b5080611953565b0151905083806107eb565b9250836000526020600020906000935b601f19841685106119e1576001945083601f198116106119c8575b505050811b018155610800565b015160001960f88460031b161c191690558380806119bb565b818101518355602094850194600190930192909101906119a0565b909150836000526020600020601f840160051c810160208510611a45575b90849392915b601f830160051c82018110611a365750506107d4565b60008155859450600101611a20565b5080611a1a565b60405162461bcd60e51b815260206004820152600b60248201526a139bdd081cdd195dd85c9960aa1b6044820152606490fd5b346100a45760203660031901126100a4576001600160a01b03611aa0611c72565b1660005260016020526040600020611ab781611cff565b611ac360018301611cff565b91611ad060028201611cff565b90611add60038201611cff565b611ae960048301611cff565b611af560058401611cff565b611b0160068501611cff565b611b0d60078601611cff565b611b1960088701611cff565b91611b2660098801611cff565b93611b33600a8901611cff565b95611b40600b8a01611cff565b97611b4d600c8b01611cff565b99600d01611b5a90611cff565b9a6040519d8e809e6101c08083528201611b7391611da5565b908082039060200152611b8591611da5565b8d810360408f0152611b9691611da5565b8c810360608e0152611ba791611da5565b8b810360808d0152611bb891611da5565b8a810360a08c0152611bc991611da5565b89810360c08b0152611bda91611da5565b88810360e08a0152611beb91611da5565b878103610100890152611bfd91611da5565b868103610120880152611c0f91611da5565b858103610140870152611c2191611da5565b848103610160860152611c3391611da5565b838103610180850152611c4591611da5565b8281036101a08401526103a991611da5565b346100a45760003660031901126100a4576020906002548152f35b600435906001600160a01b03821682036100a457565b90600182811c92168015611cb8575b6020831014611ca257565b634e487b7160e01b600052602260045260246000fd5b91607f1691611c97565b6101c081019081106001600160401b03821117610eef57604052565b90601f801991011681019081106001600160401b03821117610eef57604052565b9060405191826000825492611d1384611c88565b908184526001948581169081600014611d825750600114611d3f575b5050611d3d92500383611cde565b565b9093915060005260209081600020936000915b818310611d6a575050611d3d93508201013880611d2f565b85548884018501529485019487945091830191611d52565b915050611d3d94506020925060ff191682840152151560051b8201013880611d2f565b919082519283825260005b848110611dd1575050826000602080949584010152601f8019910116010190565b602081830181015184830182015201611db0565b9181601f840112156100a4578235916001600160401b0383116100a457602083818601950101116100a457565b600254811015611e495760026000527f405787fa12a823e0f2b7631cc41b3ba8828b3321ca811111fa75cd3aa3bb5ace0190600090565b634e487b7160e01b600052603260045260246000fd5b9291926001600160401b038211610eef5760405191611e88601f8201601f191660200184611cde565b8294818452818301116100a4578281602093846000960137010152565b908060209392818452848401376000828201840152601f01601f191601019056fea264697066735822122051ab7ec2ca1b74c8973583ac059927b6ac5defc82e359bf7952b43d8b25d965264736f6c63430008140033",
  "linkReferences": {},
  "deployedLinkReferences": {}
}