{
  "_format": "hh-sol-artifact-1",
  "contractName": "TerrainPulseChant",
  "sourceName": "contracts/manifest/TerrainPulseChant.sol",
  "abi": [
    {
      "inputs": [],
      "stateMutability": "nonpayable",
      "type": "constructor"
    },
    {
      "anonymous": false,
      "inputs": [
        {
          "indexed": false,
          "internalType": "string",
          "name": "chant",
          "type": "string"
        },
        {
          "indexed": false,
          "internalType": "string",
          "name": "glyph",
          "type": "string"
        },
        {
          "indexed": false,
          "internalType": "string",
          "name": "sanctum",
          "type": "string"
        },
        {
          "indexed": false,
          "internalType": "string",
          "name": "pulse",
          "type": "string"
        },
        {
          "indexed": false,
          "internalType": "string",
          "name": "choreography",
          "type": "string"
        }
      ],
      "name": "PulseChantRouted",
      "type": "event"
    },
    {
      "inputs": [
        {
          "internalType": "string",
          "name": "chant",
          "type": "string"
        }
      ],
      "name": "getRoute",
      "outputs": [
        {
          "internalType": "string",
          "name": "",
          "type": "string"
        },
        {
          "internalType": "string",
          "name": "",
          "type": "string"
        },
        {
          "internalType": "string",
          "name": "",
          "type": "string"
        },
        {
          "internalType": "string",
          "name": "",
          "type": "string"
        }
      ],
      "stateMutability": "view",
      "type": "function"
    },
    {
      "inputs": [
        {
          "internalType": "uint256",
          "name": "",
          "type": "uint256"
        }
      ],
      "name": "keys",
      "outputs": [
        {
          "internalType": "string",
          "name": "",
          "type": "string"
        }
      ],
      "stateMutability": "view",
      "type": "function"
    },
    {
      "inputs": [
        {
          "internalType": "string",
          "name": "chant",
          "type": "string"
        },
        {
          "internalType": "string",
          "name": "glyph",
          "type": "string"
        },
        {
          "internalType": "string",
          "name": "sanctum",
          "type": "string"
        },
        {
          "internalType": "string",
          "name": "pulse",
          "type": "string"
        },
        {
          "internalType": "string",
          "name": "choreography",
          "type": "string"
        }
      ],
      "name": "routeChant",
      "outputs": [],
      "stateMutability": "nonpayable",
      "type": "function"
    },
    {
      "inputs": [
        {
          "internalType": "string",
          "name": "",
          "type": "string"
        }
      ],
      "name": "routes",
      "outputs": [
        {
          "internalType": "string",
          "name": "chant",
          "type": "string"
        },
        {
          "internalType": "string",
          "name": "glyph",
          "type": "string"
        },
        {
          "internalType": "string",
          "name": "sanctum",
          "type": "string"
        },
        {
          "internalType": "string",
          "name": "pulse",
          "type": "string"
        },
        {
          "internalType": "string",
          "name": "choreography",
          "type": "string"
        }
      ],
      "stateMutability": "view",
      "type": "function"
    },
    {
      "inputs": [],
      "name": "steward",
      "outputs": [
        {
          "internalType": "address",
          "name": "",
          "type": "address"
        }
      ],
      "stateMutability": "view",
      "type": "function"
    },
    {
      "inputs": [],
      "name": "totalRoutes",
      "outputs": [
        {
          "internalType": "uint256",
          "name": "",
          "type": "uint256"
        }
      ],
      "stateMutability": "view",
      "type": "function"
    }
  ],
  "bytecode": "0x6080806040523461002857600080546001600160a01b03191633179055610cf1908161002e8239f35b600080fdfe608080604052600436101561001357600080fd5b60003560e01c90816305a2d3ac14610a07575080630cb6aaf1146109bc5780631b5f03a6146108c0578063300e4c991461018d578063637eea19146101645763cffbffb51461006157600080fd5b3461015f57602036600319011261015f576004356001600160401b03811161015f573660238201121561015f576100bd60206100aa610123933690602481600401359101610c00565b8160405193828580945193849201610b8b565b8101600181520301902061015b6100d382610ae5565b9161014d6100e360018301610ae5565b9161013f6100f360028301610ae5565b61013161010e600461010760038701610ae5565b9501610ae5565b95604051998a9960a08b5260a08b0190610bae565b9089820360208b0152610bae565b908782036040890152610bae565b908582036060870152610bae565b908382036080850152610bae565b0390f35b600080fd5b3461015f57600036600319011261015f576000546040516001600160a01b039091168152602090f35b3461015f5760a036600319011261015f576004356001600160401b03811161015f576101bd903690600401610bd3565b6024356001600160401b03811161015f576101dc903690600401610bd3565b906044356001600160401b03811161015f576101fc903690600401610bd3565b906064356001600160401b03811161015f5761021c903690600401610bd3565b9190926084356001600160401b03811161015f5761023e903690600401610bd3565b60005491979096916001600160a01b0316330361088d5760405161026181610aa9565b61026c368b8d610c00565b8152610279368385610c00565b6020820152610289368587610c00565b6040820152610299368789610c00565b60608201526102a936898b610c00565b60808201526040518a8c82376020818c810160018152030190209080518051906001600160401b0382116106015781906102ed826102e78754610a6f565b87610c46565b602090601f831160011461082157600092610816575b50508160011b916000199060031b1c19161782555b60208101518051906001600160401b03821161060157819061034a826103416001880154610a6f565b60018801610c46565b602090601f83116001146107a457600092610799575b50508160011b916000199060031b1c19161760018301555b60408101518051906001600160401b0382116106015781906103aa826103a16002880154610a6f565b60028801610c46565b602090601f83116001146107275760009261071c575b50508160011b916000199060031b1c19161760028301555b60608101518051906001600160401b03821161060157610408826103ff6003870154610a6f565b60038701610c46565b602090601f83116001146106a95760809392916000918361069e575b50508160011b916000199060031b1c19161760038401555b0151908151906001600160401b0382116106015760048291019261046a826104648654610a6f565b86610c46565b602090601f83116001146106385760009261062d575b50508160011b916000199060031b1c19161790555b60025468010000000000000000811015610601578060016104b99201600255610a22565b610617576001600160401b038a11610601576104df8a6104d98354610a6f565b83610c46565b896000601f821160011461059a5760009161058f575b508a60011b906000198c60031b1c19161790555b604051998a9960a08b5260a08b019061052192610c9a565b9089820360208b015261053392610c9a565b90878203604089015261054592610c9a565b90858203606087015261055792610c9a565b90838203608085015261056992610c9a565b037f486067dc51bb81f1852d215c14c5c26405f0f552fed824c78ae1c19dd74a0af491a1005b90508b01358c6104f5565b60008381526020812092505b8d601f198e1682106105e95750508b601f198116106105cf575b505060018a811b019055610509565b8c013560001960038d901b60f8161c191690558b806105c0565b600183946020939484930135815501930191016105a6565b634e487b7160e01b600052604160045260246000fd5b634e487b7160e01b600052600060045260246000fd5b015190508d80610480565b6000858152602081209350601f198516905b818110610686575090846001959493921061066d575b505050811b019055610495565b015160001960f88460031b161c191690558d8080610660565b9293602060018192878601518155019501930161064a565b015190508f80610424565b906003850160005260206000209160005b601f1985168110610704575091839160019360809695601f198116106106eb575b505050811b01600384015561043c565b015160001960f88460031b161c191690558f80806106db565b919260206001819286850151815501940192016106ba565b015190508e806103c0565b9250600285016000526020600020906000935b601f198416851061077e576001945083601f19811610610765575b505050811b0160028301556103d8565b015160001960f88460031b161c191690558e8080610755565b8181015183556020948501946001909301929091019061073a565b015190508e80610360565b9250600185016000526020600020906000935b601f19841685106107fb576001945083601f198116106107e2575b505050811b016001830155610378565b015160001960f88460031b161c191690558e80806107d2565b818101518355602094850194600190930192909101906107b7565b015190508e80610303565b9250846000526020600020906000935b601f1984168510610872576001945083601f19811610610859575b505050811b018255610318565b015160001960f88460031b161c191690558e808061084c565b81810151835560209485019460019093019290910190610831565b60405162461bcd60e51b815260206004820152600b60248201526a139bdd081cdd195dd85c9960aa1b6044820152606490fd5b3461015f57602036600319011261015f576004356001600160401b03811161015f5760206108f5610992923690600401610bd3565b91908260405193849283378101600181520301902061015b60806109ae6040519361091f85610aa9565b61092881610ae5565b85526109a061093960018301610ae5565b6020870190815261094c60028401610ae5565b9660408101978852610973600461096560038701610ae5565b956060840196875201610ae5565b9586910152519551915191604051978897608089526080890190610bae565b908782036020890152610bae565b908582036040870152610bae565b908382036060850152610bae565b3461015f57602036600319011261015f5760043560025481101561015f576109e390610a22565b610617576109f361015b91610ae5565b604051918291602083526020830190610bae565b3461015f57600036600319011261015f576020906002548152f35b600254811015610a595760026000527f405787fa12a823e0f2b7631cc41b3ba8828b3321ca811111fa75cd3aa3bb5ace0190600090565b634e487b7160e01b600052603260045260246000fd5b90600182811c92168015610a9f575b6020831014610a8957565b634e487b7160e01b600052602260045260246000fd5b91607f1691610a7e565b60a081019081106001600160401b0382111761060157604052565b90601f801991011681019081106001600160401b0382111761060157604052565b9060405191826000825492610af984610a6f565b908184526001948581169081600014610b685750600114610b25575b5050610b2392500383610ac4565b565b9093915060005260209081600020936000915b818310610b50575050610b2393508201013880610b15565b85548884018501529485019487945091830191610b38565b915050610b2394506020925060ff191682840152151560051b8201013880610b15565b60005b838110610b9e5750506000910152565b8181015183820152602001610b8e565b90602091610bc781518092818552858086019101610b8b565b601f01601f1916010190565b9181601f8401121561015f578235916001600160401b03831161015f576020838186019501011161015f57565b9291926001600160401b0382116106015760405191610c29601f8201601f191660200184610ac4565b82948184528183011161015f578281602093846000960137010152565b90601f8111610c5457505050565b600091825260208220906020601f850160051c83019410610c90575b601f0160051c01915b828110610c8557505050565b818155600101610c79565b9092508290610c70565b908060209392818452848401376000828201840152601f01601f191601019056fea2646970667358221220f5c4e0f33787466618554f6a440dcdcec3a3d6b1f6f334d42bdfd9557a805b7d64736f6c63430008140033",
  "linkReferences": {},
  "deployedLinkReferences": {}
}