{
  "_format": "hh-sol-artifact-1",
  "contractName": "CompanionSummonerV4",
  "sourceName": "contracts/registry/CompanionSummonerV4.sol",
  "abi": [
    {
      "inputs": [],
      "stateMutability": "nonpayable",
      "type": "constructor"
    },
    {
      "anonymous": false,
      "inputs": [
        {
          "indexed": true,
          "internalType": "address",
          "name": "companion",
          "type": "address"
        },
        {
          "indexed": false,
          "internalType": "string",
          "name": "name",
          "type": "string"
        },
        {
          "indexed": false,
          "internalType": "string",
          "name": "trait",
          "type": "string"
        },
        {
          "indexed": false,
          "internalType": "string",
          "name": "drift",
          "type": "string"
        },
        {
          "indexed": false,
          "internalType": "string",
          "name": "resonance",
          "type": "string"
        },
        {
          "indexed": false,
          "internalType": "string",
          "name": "codexRef",
          "type": "string"
        },
        {
          "indexed": false,
          "internalType": "string",
          "name": "signature",
          "type": "string"
        },
        {
          "indexed": false,
          "internalType": "string",
          "name": "sanctum",
          "type": "string"
        },
        {
          "indexed": false,
          "internalType": "string",
          "name": "chant",
          "type": "string"
        }
      ],
      "name": "CompanionSummoned",
      "type": "event"
    },
    {
      "inputs": [
        {
          "internalType": "address",
          "name": "",
          "type": "address"
        }
      ],
      "name": "companions",
      "outputs": [
        {
          "internalType": "string",
          "name": "name",
          "type": "string"
        },
        {
          "internalType": "string",
          "name": "trait",
          "type": "string"
        },
        {
          "internalType": "string",
          "name": "drift",
          "type": "string"
        },
        {
          "internalType": "string",
          "name": "resonance",
          "type": "string"
        },
        {
          "internalType": "string",
          "name": "codexRef",
          "type": "string"
        },
        {
          "internalType": "string",
          "name": "signature",
          "type": "string"
        },
        {
          "internalType": "string",
          "name": "sanctum",
          "type": "string"
        },
        {
          "internalType": "string",
          "name": "chant",
          "type": "string"
        }
      ],
      "stateMutability": "view",
      "type": "function"
    },
    {
      "inputs": [
        {
          "internalType": "address",
          "name": "companion",
          "type": "address"
        }
      ],
      "name": "getCompanion",
      "outputs": [
        {
          "components": [
            {
              "internalType": "string",
              "name": "name",
              "type": "string"
            },
            {
              "internalType": "string",
              "name": "trait",
              "type": "string"
            },
            {
              "internalType": "string",
              "name": "drift",
              "type": "string"
            },
            {
              "internalType": "string",
              "name": "resonance",
              "type": "string"
            },
            {
              "internalType": "string",
              "name": "codexRef",
              "type": "string"
            },
            {
              "internalType": "string",
              "name": "signature",
              "type": "string"
            },
            {
              "internalType": "string",
              "name": "sanctum",
              "type": "string"
            },
            {
              "internalType": "string",
              "name": "chant",
              "type": "string"
            }
          ],
          "internalType": "struct CompanionSummonerV4.Companion",
          "name": "",
          "type": "tuple"
        }
      ],
      "stateMutability": "view",
      "type": "function"
    },
    {
      "inputs": [
        {
          "internalType": "uint256",
          "name": "",
          "type": "uint256"
        }
      ],
      "name": "keys",
      "outputs": [
        {
          "internalType": "address",
          "name": "",
          "type": "address"
        }
      ],
      "stateMutability": "view",
      "type": "function"
    },
    {
      "inputs": [],
      "name": "steward",
      "outputs": [
        {
          "internalType": "address",
          "name": "",
          "type": "address"
        }
      ],
      "stateMutability": "view",
      "type": "function"
    },
    {
      "inputs": [
        {
          "internalType": "address",
          "name": "companion",
          "type": "address"
        },
        {
          "internalType": "string",
          "name": "name",
          "type": "string"
        },
        {
          "internalType": "string",
          "name": "trait",
          "type": "string"
        },
        {
          "internalType": "string",
          "name": "drift",
          "type": "string"
        },
        {
          "internalType": "string",
          "name": "resonance",
          "type": "string"
        },
        {
          "internalType": "string",
          "name": "codexRef",
          "type": "string"
        },
        {
          "internalType": "string",
          "name": "signature",
          "type": "string"
        },
        {
          "internalType": "string",
          "name": "sanctum",
          "type": "string"
        },
        {
          "internalType": "string",
          "name": "chant",
          "type": "string"
        }
      ],
      "name": "summonCompanion",
      "outputs": [],
      "stateMutability": "nonpayable",
      "type": "function"
    },
    {
      "inputs": [],
      "name": "totalCompanions",
      "outputs": [
        {
          "internalType": "uint256",
          "name": "",
          "type": "uint256"
        }
      ],
      "stateMutability": "view",
      "type": "function"
    }
  ],
  "bytecode": "0x6080806040523461002857600080546001600160a01b03191633179055611330908161002e8239f35b600080fdfe610140604052600436101561001357600080fd5b60003560e01c80630cb6aaf1146110645780631f9892bf1461039357806347854b8714610274578063637eea191461024b578063ec39f18f1461022d5763ef6527371461005f57600080fd5b3461022857602080600319360112610228576100796110f3565b6040519061008682611170565b60608281809452818582015281604082015281808201528160808201528160a08201528160c082015260e00152600160a01b600190031660005260018252604060002091604051916100d783611170565b6100e0846111ad565b83526100ee600185016111ad565b83830190815291610101600286016111ad565b6040850190815294610115600382016111ad565b858401908152610127600483016111ad565b6080870190815261013a600584016111ad565b60a088019081529161014e600685016111ad565b9360c08901948552600701610162906111ad565b9560e08901968752604051998a99878b525161010080988c01526101208b0161018a91611253565b9851601f19998a8c82030160408d01526101a391611253565b905191898b830301908b01526101b891611253565b905190878982030160808a01526101ce91611253565b905190868882030160a08901526101e491611253565b905190858782030160c08801526101fa91611253565b905190848682030160e087015261021091611253565b915192848303019084015261022491611253565b0390f35b600080fd5b34610228576000366003190112610228576020600254604051908152f35b34610228576000366003190112610228576000546040516001600160a01b039091168152602090f35b34610228576020366003190112610228576001600160a01b036102956110f3565b16600052600160205260406000206102ac816111ad565b6102b8600183016111ad565b916102c5600282016111ad565b906102d2600382016111ad565b6102de600483016111ad565b6102ea600584016111ad565b916102f7600685016111ad565b93600701610304906111ad565b94604051978897610100808a52890161031c91611253565b88810360208a015261032d91611253565b878103604089015261033e91611253565b868103606088015261034f91611253565b858103608087015261036091611253565b84810360a086015261037191611253565b83810360c085015261038291611253565b82810360e084015261022491611253565b3461022857610120366003190112610228576103ad6110f3565b6024356001600160401b038111610228576103cc903690600401611109565b906080526044356001600160401b038111610228576103ef903690600401611109565b60a0526064356001600160401b03811161022857610411903690600401611109565b6084929192356001600160401b03811161022857610433903690600401611109565b9190926001600160401b0360a43511610228576104553660a435600401611109565b916001600160401b0360c43511610228576104753660c435600401611109565b9290936001600160401b0360e43511610228576104973660e435600401611109565b9790986001600160401b036101043511610228576104bb3661010435600401611109565b61010052610120526000546001600160a01b03163303611031576104e46040518060e052611170565b6104f1368d608051611293565b60e051526105023660a05187611293565b602060e051015261051436898d611293565b604060e0510152610526368383611293565b606060e0510152610538368486611293565b608060e051015261054a368789611293565b60a060e051015261055c368a8c611293565b60c060e0510152610574366101005161012051611293565b60e08051015260018060a01b038d166000526001602052604060002060e051518051906001600160401b0382116109b85781906105b18454611136565b601f8111610fe3575b50602090601f8311600114610f7757600092610f6c575b50508160011b916000199060031b1c19161781555b602060e05101518051906001600160401b0382116109b857819061060d6001850154611136565b601f8111610f19575b50602090601f8311600114610ea757600092610e9c575b50508160011b916000199060031b1c19161760018201555b604060e05101518051906001600160401b0382116109b857819061066c6002850154611136565b601f8111610e4b575b50602090601f8311600114610dd957600092610dce575b50508160011b916000199060031b1c19161760028201555b606060e05101518051906001600160401b0382116109b85781906106cb6003850154611136565b601f8111610d7b575b50602090601f8311600114610d0957600092610cfe575b50508160011b916000199060031b1c19161760038201555b608060e05101518051906001600160401b0382116109b857819061072a6004850154611136565b601f8111610cab575b50602090601f8311600114610c3957600092610c2e575b50508160011b916000199060031b1c19161760048201555b60a060e05101518051906001600160401b0382116109b85781906107896005850154611136565b601f8111610bdb575b50602090601f8311600114610b6957600092610b5e575b50508160011b916000199060031b1c19161760058201555b60c060e05101518051906001600160401b0382116109b85781906107e86006850154611136565b601f8111610b0b575b50602090601f8311600114610a9957600092610a8e575b50508160011b916000199060031b1c19161760068201555b60e0805101518051906001600160401b0382116109b8576108446007840154611136565b601f8111610a47575b50602090601f83116001146109d95760079291600091836109ce575b50508160011b916000199060031b1c1916179101555b60025491680100000000000000008310156109b8576109446109889c8f9a7fe54c62c0bf784726164a5ba361ab5653bd710fb7d8ffc0feee0f7c903244458a9f6109669961091e610933926109779f6108e18b60016109559d016002556110a6565b819291549060031b9160018060a01b0316821b9160018060a01b03901b19161790556101006040518060c0525261010060c05101906080516112d9565b9060c051602081840391015260a051906112d9565b9160c05160408185039101526112d9565b9160c05160608185039101526112d9565b9160c05160808185039101526112d9565b9160c05160a08185039101526112d9565b9160c05160c08185039101526112d9565b9160c05160e081850391015260018060a01b0316916109b160c0519161010051610120516112d9565b0360c051a2005b634e487b7160e01b600052604160045260246000fd5b015190503880610869565b90601f198316916007850160005260206000209260005b818110610a2f57509160019391856007969410610a16575b505050811b0191015561087f565b015160001960f88460031b161c19169055388080610a08565b929360206001819287860151815501950193016109f0565b600784016000526020600020601f840160051c810160208510610a87575b601f830160051c82018110610a7b57505061084d565b60008155600101610a65565b5080610a65565b015190503880610808565b9250600684016000526020600020906000935b601f1984168510610af0576001945083601f19811610610ad7575b505050811b016006820155610820565b015160001960f88460031b161c19169055388080610ac7565b81810151835560209485019460019093019290910190610aac565b909150600684016000526020600020601f840160051c810160208510610b57575b90849392915b601f830160051c82018110610b485750506107f1565b60008155859450600101610b32565b5080610b2c565b0151905038806107a9565b9250600584016000526020600020906000935b601f1984168510610bc0576001945083601f19811610610ba7575b505050811b0160058201556107c1565b015160001960f88460031b161c19169055388080610b97565b81810151835560209485019460019093019290910190610b7c565b909150600584016000526020600020601f840160051c810160208510610c27575b90849392915b601f830160051c82018110610c18575050610792565b60008155859450600101610c02565b5080610bfc565b01519050388061074a565b9250600484016000526020600020906000935b601f1984168510610c90576001945083601f19811610610c77575b505050811b016004820155610762565b015160001960f88460031b161c19169055388080610c67565b81810151835560209485019460019093019290910190610c4c565b909150600484016000526020600020601f840160051c810160208510610cf7575b90849392915b601f830160051c82018110610ce8575050610733565b60008155859450600101610cd2565b5080610ccc565b0151905038806106eb565b9250600384016000526020600020906000935b601f1984168510610d60576001945083601f19811610610d47575b505050811b016003820155610703565b015160001960f88460031b161c19169055388080610d37565b81810151835560209485019460019093019290910190610d1c565b909150600384016000526020600020601f840160051c810160208510610dc7575b90849392915b601f830160051c82018110610db85750506106d4565b60008155859450600101610da2565b5080610d9c565b01519050388061068c565b9250600284016000526020600020906000935b601f1984168510610e30576001945083601f19811610610e17575b505050811b0160028201556106a4565b015160001960f88460031b161c19169055388080610e07565b81810151835560209485019460019093019290910190610dec565b909150600284016000526020600020601f840160051c810160208510610e95575b90601f8594930160051c01905b818110610e865750610675565b60008155849350600101610e79565b5080610e6c565b01519050388061062d565b9250600184016000526020600020906000935b601f1984168510610efe576001945083601f19811610610ee5575b505050811b016001820155610645565b015160001960f88460031b161c19169055388080610ed5565b81810151835560209485019460019093019290910190610eba565b909150600184016000526020600020601f840160051c810160208510610f65575b90849392915b601f830160051c82018110610f56575050610616565b60008155859450600101610f40565b5080610f3a565b0151905038806105d1565b9250836000526020600020906000935b601f1984168510610fc8576001945083601f19811610610faf575b505050811b0181556105e6565b015160001960f88460031b161c19169055388080610fa2565b81810151835560209485019460019093019290910190610f87565b909150836000526020600020601f840160051c81016020851061102a575b90601f8594930160051c01905b81811061101b57506105ba565b6000815584935060010161100e565b5080611001565b60405162461bcd60e51b815260206004820152600b60248201526a139bdd081cdd195dd85c9960aa1b6044820152606490fd5b34610228576020366003190112610228576004356002548110156102285761108d6020916110a6565b905460405160039290921b1c6001600160a01b03168152f35b6002548110156110dd5760026000527f405787fa12a823e0f2b7631cc41b3ba8828b3321ca811111fa75cd3aa3bb5ace0190600090565b634e487b7160e01b600052603260045260246000fd5b600435906001600160a01b038216820361022857565b9181601f84011215610228578235916001600160401b038311610228576020838186019501011161022857565b90600182811c92168015611166575b602083101461115057565b634e487b7160e01b600052602260045260246000fd5b91607f1691611145565b61010081019081106001600160401b038211176109b857604052565b90601f801991011681019081106001600160401b038211176109b857604052565b90604051918260008254926111c184611136565b90818452600194858116908160001461123057506001146111ed575b50506111eb9250038361118c565b565b9093915060005260209081600020936000915b8183106112185750506111eb935082010138806111dd565b85548884018501529485019487945091830191611200565b9150506111eb94506020925060ff191682840152151560051b82010138806111dd565b919082519283825260005b84811061127f575050826000602080949584010152601f8019910116010190565b60208183018101518483018201520161125e565b9291926001600160401b0382116109b857604051916112bc601f8201601f19166020018461118c565b829481845281830111610228578281602093846000960137010152565b908060209392818452848401376000828201840152601f01601f191601019056fea2646970667358221220ca4b6abf4e29c047688188862966ca63fd8fd0a640cd67597ce0474b00a5385d64736f6c63430008140033",
  "linkReferences": {},
  "deployedLinkReferences": {}
}