{
  "_format": "hh-sol-artifact-1",
  "contractName": "CompanionSummonerV3",
  "sourceName": "contracts/registry/CompanionSummonerV3.sol",
  "abi": [
    {
      "inputs": [],
      "stateMutability": "nonpayable",
      "type": "constructor"
    },
    {
      "anonymous": false,
      "inputs": [
        {
          "indexed": true,
          "internalType": "address",
          "name": "companion",
          "type": "address"
        },
        {
          "indexed": false,
          "internalType": "string",
          "name": "name",
          "type": "string"
        },
        {
          "indexed": false,
          "internalType": "string",
          "name": "trait",
          "type": "string"
        },
        {
          "indexed": false,
          "internalType": "string",
          "name": "drift",
          "type": "string"
        },
        {
          "indexed": false,
          "internalType": "string",
          "name": "resonance",
          "type": "string"
        },
        {
          "indexed": false,
          "internalType": "string",
          "name": "codexRef",
          "type": "string"
        },
        {
          "indexed": false,
          "internalType": "string",
          "name": "signature",
          "type": "string"
        },
        {
          "indexed": false,
          "internalType": "string",
          "name": "sanctum",
          "type": "string"
        }
      ],
      "name": "CompanionSummoned",
      "type": "event"
    },
    {
      "inputs": [
        {
          "internalType": "address",
          "name": "",
          "type": "address"
        }
      ],
      "name": "companions",
      "outputs": [
        {
          "internalType": "string",
          "name": "name",
          "type": "string"
        },
        {
          "internalType": "string",
          "name": "trait",
          "type": "string"
        },
        {
          "internalType": "string",
          "name": "drift",
          "type": "string"
        },
        {
          "internalType": "string",
          "name": "resonance",
          "type": "string"
        },
        {
          "internalType": "string",
          "name": "codexRef",
          "type": "string"
        },
        {
          "internalType": "string",
          "name": "signature",
          "type": "string"
        },
        {
          "internalType": "string",
          "name": "sanctum",
          "type": "string"
        }
      ],
      "stateMutability": "view",
      "type": "function"
    },
    {
      "inputs": [
        {
          "internalType": "address",
          "name": "companion",
          "type": "address"
        }
      ],
      "name": "getCompanion",
      "outputs": [
        {
          "internalType": "string",
          "name": "",
          "type": "string"
        },
        {
          "internalType": "string",
          "name": "",
          "type": "string"
        },
        {
          "internalType": "string",
          "name": "",
          "type": "string"
        },
        {
          "internalType": "string",
          "name": "",
          "type": "string"
        },
        {
          "internalType": "string",
          "name": "",
          "type": "string"
        },
        {
          "internalType": "string",
          "name": "",
          "type": "string"
        },
        {
          "internalType": "string",
          "name": "",
          "type": "string"
        }
      ],
      "stateMutability": "view",
      "type": "function"
    },
    {
      "inputs": [
        {
          "internalType": "uint256",
          "name": "",
          "type": "uint256"
        }
      ],
      "name": "keys",
      "outputs": [
        {
          "internalType": "address",
          "name": "",
          "type": "address"
        }
      ],
      "stateMutability": "view",
      "type": "function"
    },
    {
      "inputs": [],
      "name": "steward",
      "outputs": [
        {
          "internalType": "address",
          "name": "",
          "type": "address"
        }
      ],
      "stateMutability": "view",
      "type": "function"
    },
    {
      "inputs": [
        {
          "internalType": "address",
          "name": "companion",
          "type": "address"
        },
        {
          "internalType": "string",
          "name": "name",
          "type": "string"
        },
        {
          "internalType": "string",
          "name": "trait",
          "type": "string"
        },
        {
          "internalType": "string",
          "name": "drift",
          "type": "string"
        },
        {
          "internalType": "string",
          "name": "resonance",
          "type": "string"
        },
        {
          "internalType": "string",
          "name": "codexRef",
          "type": "string"
        },
        {
          "internalType": "string",
          "name": "signature",
          "type": "string"
        },
        {
          "internalType": "string",
          "name": "sanctum",
          "type": "string"
        }
      ],
      "name": "summonCompanion",
      "outputs": [],
      "stateMutability": "nonpayable",
      "type": "function"
    },
    {
      "inputs": [],
      "name": "totalCompanions",
      "outputs": [
        {
          "internalType": "uint256",
          "name": "",
          "type": "uint256"
        }
      ],
      "stateMutability": "view",
      "type": "function"
    }
  ],
  "bytecode": "0x6080806040523461002857600080546001600160a01b0319163317905561106a908161002e8239f35b600080fdfe6080604052600436101561001257600080fd5b60003560e01c80630cb6aaf114610d1e57806347854b8714610c8b578063637eea1914610c62578063699fc0501461015b578063ec39f18f1461013d5763ef6527371461005e57600080fd5b34610138576020366003190112610138576001600160a01b0361007f610dad565b166000526001602052604060002060405161009981610dfd565b6100a282610e39565b81526101346100b360018401610e39565b91602081019283526100c760028501610e39565b93604082019485526100db60038201610e39565b90606083019182526100ef60048201610e39565b60808401908152610115600661010760058501610e39565b9360a0870194855201610e39565b938460c082015251955196519251905191519260405197889788610f1f565b0390f35b600080fd5b34610138576000366003190112610138576020600254604051908152f35b346101385761010036600319011261013857610175610dad565b6024356001600160401b03811161013857610194903690600401610fa0565b6044356001600160401b038111610138576101b3903690600401610fa0565b90936064356001600160401b038111610138576101d4903690600401610fa0565b906084356001600160401b038111610138576101f4903690600401610fa0565b9060a4356001600160401b03811161013857610214903690600401610fa0565b91909260c4356001600160401b03811161013857610236903690600401610fa0565b95909660e4356001600160401b03811161013857610258903690600401610fa0565b600054909e919b906001600160a01b03163303610c2f578c8f8f908e916040519361028285610dfd565b369061028d92610fcd565b835261029a368587610fcd565b60208401526102aa368789610fcd565b60408401526102ba36898b610fcd565b60608401526102ca368b8d610fcd565b60808401526102da368d8f610fcd565b60a084015236906102ea92610fcd565b60c08201526001600160a01b038c16600090815260016020526040902081518051919291906001600160401b03821161068d5781906103298554610dc3565b601f8111610bdf575b50602090601f8311600114610b7357600092610b68575b50508160011b916000199060031b1c19161782555b60208101518051906001600160401b03821161068d5781906103836001860154610dc3565b601f8111610b15575b50602090601f8311600114610aa357600092610a98575b50508160011b916000199060031b1c19161760018301555b60408101518051906001600160401b03821161068d5781906103e06002860154610dc3565b601f8111610a45575b50602090601f83116001146109d3576000926109c8575b50508160011b916000199060031b1c19161760028301555b60608101518051906001600160401b03821161068d57819061043d6003860154610dc3565b601f8111610975575b50602090601f8311600114610903576000926108f8575b50508160011b916000199060031b1c19161760038301555b60808101518051906001600160401b03821161068d57819061049a6004860154610dc3565b601f81116108a5575b50602090601f831160011461083357600092610828575b50508160011b916000199060031b1c19161760048301555b60a08101518051906001600160401b03821161068d576104f56005850154610dc3565b601f81116107e1575b50602090601f831160011461076e5760c093929160009183610763575b50508160011b916000199060031b1c19161760058401555b01518051906001600160401b03821161068d576105536006840154610dc3565b601f811161071c575b50602090601f83116001146106ae5760069291600091836106a3575b50508160011b916000199060031b1c1916179101555b6002546801000000000000000081101561068d57600181016002556105b290610d60565b81549060031b908d600160a01b6001900316821b91600160a01b60019003901b19161790556040519d8e9d8e60e0815260e001906105ef92611013565b908d808303906020015261060292611013565b908b820360408d015261061492611013565b9089820360608b015261062692611013565b90878203608089015261063892611013565b9085820360a087015261064a92611013565b83810360c08501526001600160a01b039091169461066792611013565b037ff0ea8ba8691f81805ff47e02158e13ef55804b501e7f30f55e3f768fff8e498c91a2005b634e487b7160e01b600052604160045260246000fd5b015190503880610578565b90601f198316916006850160005260206000209260005b818110610704575091600193918560069694106106eb575b505050811b0191015561058e565b015160001960f88460031b161c191690553880806106dd565b929360206001819287860151815501950193016106c5565b600684016000526020600020601f840160051c81016020851061075c575b601f830160051c8201811061075057505061055c565b6000815560010161073a565b508061073a565b01519050388061051b565b906005850160005260206000209160005b601f19851681106107c9575091839160019360c09695601f198116106107b0575b505050811b016005840155610533565b015160001960f88460031b161c191690553880806107a0565b9192602060018192868501518155019401920161077f565b600585016000526020600020601f840160051c810160208510610821575b601f830160051c820181106108155750506104fe565b600081556001016107ff565b50806107ff565b0151905038806104ba565b9250600485016000526020600020906000935b601f198416851061088a576001945083601f19811610610871575b505050811b0160048301556104d2565b015160001960f88460031b161c19169055388080610861565b81810151835560209485019460019093019290910190610846565b909150600485016000526020600020601f840160051c8101602085106108f1575b90849392915b601f830160051c820181106108e25750506104a3565b600081558594506001016108cc565b50806108c6565b01519050388061045d565b9250600385016000526020600020906000935b601f198416851061095a576001945083601f19811610610941575b505050811b016003830155610475565b015160001960f88460031b161c19169055388080610931565b81810151835560209485019460019093019290910190610916565b909150600385016000526020600020601f840160051c8101602085106109c1575b90849392915b601f830160051c820181106109b2575050610446565b6000815585945060010161099c565b5080610996565b015190503880610400565b9250600285016000526020600020906000935b601f1984168510610a2a576001945083601f19811610610a11575b505050811b016002830155610418565b015160001960f88460031b161c19169055388080610a01565b818101518355602094850194600190930192909101906109e6565b909150600285016000526020600020601f840160051c810160208510610a91575b90849392915b601f830160051c82018110610a825750506103e9565b60008155859450600101610a6c565b5080610a66565b0151905038806103a3565b9250600185016000526020600020906000935b601f1984168510610afa576001945083601f19811610610ae1575b505050811b0160018301556103bb565b015160001960f88460031b161c19169055388080610ad1565b81810151835560209485019460019093019290910190610ab6565b909150600185016000526020600020601f840160051c810160208510610b61575b90849392915b601f830160051c82018110610b5257505061038c565b60008155859450600101610b3c565b5080610b36565b015190503880610349565b9250846000526020600020906000935b601f1984168510610bc4576001945083601f19811610610bab575b505050811b01825561035e565b015160001960f88460031b161c19169055388080610b9e565b81810151835560209485019460019093019290910190610b83565b909150846000526020600020601f840160051c810160208510610c28575b90849392915b601f830160051c82018110610c19575050610332565b60008155859450600101610c03565b5080610bfd565b60405162461bcd60e51b815260206004820152600b60248201526a139bdd081cdd195dd85c9960aa1b6044820152606490fd5b34610138576000366003190112610138576000546040516001600160a01b039091168152602090f35b34610138576020366003190112610138576001600160a01b03610cac610dad565b1660005260016020526040600020610cc381610e39565b610134610cd260018401610e39565b92610cdf60028201610e39565b90610cec60038201610e39565b610cf860048301610e39565b90610d116006610d0a60058601610e39565b9401610e39565b9360405197889788610f1f565b346101385760203660031901126101385760043560025481101561013857610d47602091610d60565b905460405160039290921b1c6001600160a01b03168152f35b600254811015610d975760026000527f405787fa12a823e0f2b7631cc41b3ba8828b3321ca811111fa75cd3aa3bb5ace0190600090565b634e487b7160e01b600052603260045260246000fd5b600435906001600160a01b038216820361013857565b90600182811c92168015610df3575b6020831014610ddd57565b634e487b7160e01b600052602260045260246000fd5b91607f1691610dd2565b60e081019081106001600160401b0382111761068d57604052565b90601f801991011681019081106001600160401b0382111761068d57604052565b9060405191826000825492610e4d84610dc3565b908184526001948581169081600014610ebc5750600114610e79575b5050610e7792500383610e18565b565b9093915060005260209081600020936000915b818310610ea4575050610e7793508201013880610e69565b85548884018501529485019487945091830191610e8c565b915050610e7794506020925060ff191682840152151560051b8201013880610e69565b919082519283825260005b848110610f0b575050826000602080949584010152601f8019910116010190565b602081830181015184830182015201610eea565b9592610f8f94610f65610f7392610f57610f8196610f49610f9d9d9b9760e08e8181520190610edf565b8c810360208e015290610edf565b908a820360408c0152610edf565b9088820360608a0152610edf565b908682036080880152610edf565b9084820360a0860152610edf565b9160c0818403910152610edf565b90565b9181601f84011215610138578235916001600160401b038311610138576020838186019501011161013857565b9291926001600160401b03821161068d5760405191610ff6601f8201601f191660200184610e18565b829481845281830111610138578281602093846000960137010152565b908060209392818452848401376000828201840152601f01601f191601019056fea26469706673582212201fac62429e5fe32359f0bc027c423dfa5cd0cbc9dbbf61b2396d149acc91e15364736f6c63430008140033",
  "linkReferences": {},
  "deployedLinkReferences": {}
}