{
  "_format": "hh-sol-artifact-1",
  "contractName": "DaemonEcho",
  "sourceName": "contracts/maxwells-daemon/DaemonEcho.sol",
  "abi": [
    {
      "inputs": [],
      "stateMutability": "nonpayable",
      "type": "constructor"
    },
    {
      "anonymous": false,
      "inputs": [
        {
          "indexed": true,
          "internalType": "address",
          "name": "sanctum",
          "type": "address"
        },
        {
          "indexed": false,
          "internalType": "string",
          "name": "state",
          "type": "string"
        },
        {
          "indexed": false,
          "internalType": "uint256",
          "name": "timestamp",
          "type": "uint256"
        }
      ],
      "name": "SanctumEchoed",
      "type": "event"
    },
    {
      "inputs": [
        {
          "internalType": "address",
          "name": "sanctum",
          "type": "address"
        },
        {
          "internalType": "string",
          "name": "state",
          "type": "string"
        }
      ],
      "name": "echoSanctum",
      "outputs": [],
      "stateMutability": "nonpayable",
      "type": "function"
    },
    {
      "inputs": [
        {
          "internalType": "address",
          "name": "",
          "type": "address"
        }
      ],
      "name": "echoes",
      "outputs": [
        {
          "internalType": "address",
          "name": "sanctum",
          "type": "address"
        },
        {
          "internalType": "string",
          "name": "state",
          "type": "string"
        },
        {
          "internalType": "uint256",
          "name": "timestamp",
          "type": "uint256"
        }
      ],
      "stateMutability": "view",
      "type": "function"
    },
    {
      "inputs": [
        {
          "internalType": "address",
          "name": "sanctum",
          "type": "address"
        }
      ],
      "name": "getEcho",
      "outputs": [
        {
          "internalType": "string",
          "name": "",
          "type": "string"
        },
        {
          "internalType": "uint256",
          "name": "",
          "type": "uint256"
        }
      ],
      "stateMutability": "view",
      "type": "function"
    },
    {
      "inputs": [
        {
          "internalType": "uint256",
          "name": "",
          "type": "uint256"
        }
      ],
      "name": "sanctums",
      "outputs": [
        {
          "internalType": "address",
          "name": "",
          "type": "address"
        }
      ],
      "stateMutability": "view",
      "type": "function"
    },
    {
      "inputs": [],
      "name": "steward",
      "outputs": [
        {
          "internalType": "address",
          "name": "",
          "type": "address"
        }
      ],
      "stateMutability": "view",
      "type": "function"
    },
    {
      "inputs": [],
      "name": "totalSanctums",
      "outputs": [
        {
          "internalType": "uint256",
          "name": "",
          "type": "uint256"
        }
      ],
      "stateMutability": "view",
      "type": "function"
    }
  ],
  "bytecode": "0x6080806040523461002857600080546001600160a01b0319163317905561070c908161002e8239f35b600080fdfe608080604052600436101561001357600080fd5b60003560e01c908163270da011146101da575080632d70c89d146101bc57806359070fc41461017a578063637eea19146101515780636552bc7e146100d15763ad1400231461006157600080fd5b346100cc5760203660031901126100cc576001600160a01b0380610083610515565b16600052600160205260406000209081541660026100a360018401610630565b9201546100c26040519384938452606060208501526060840190610578565b9060408301520390f35b600080fd5b346100cc5760203660031901126100cc576101476001600160a01b03806100f6610515565b16600052600160205260408060002091815190610112826105f2565b8354168152600261012560018501610630565b9384602084015201549182910152604051928392604084526040840190610578565b9060208301520390f35b346100cc5760003660031901126100cc576000546040516001600160a01b039091168152602090f35b346100cc5760203660031901126100cc576004356002548110156100cc576101a360209161052b565b905460405160039290921b1c6001600160a01b03168152f35b346100cc5760003660031901126100cc576020600254604051908152f35b346100cc5760403660031901126100cc576101f3610515565b9067ffffffffffffffff602435116100cc573660236024350112156100cc5767ffffffffffffffff60243560040135116100cc5736602480356004013581350101116100cc576000546001600160a01b031633036104e55750604051610258816105f2565b6001600160a01b03821681526040519061028260046024350135601f01601f19166020018361060e565b602480356004810135808552910160208401376000602060243560040135840101526020810191825242604082015260018060a01b038316600052600160205260406000209160018060a01b038251166bffffffffffffffffffffffff60a01b8454161783555180519067ffffffffffffffff821161040a5761030860018501546105b8565b601f811161049e575b50602090601f831160011461042b57918060029492604094600092610420575b50508160011b916000199060031b1c19161760018501555b01519101556002546801000000000000000081101561040a57806001610372920160025561052b565b81546001600160a01b0384811660039390931b92831b921b19161790556040805181815260248035600481013593830184905291937fa6b710da019e991a8e137518ad383192c9107a3b01a8fb05a96e1e23bc620816939092909101606085013760006060602435600401358501015242602084015260018060a01b031691606081601f19601f6024356004013501168101030190a2005b634e487b7160e01b600052604160045260246000fd5b015190508780610331565b90601f198316916001860160005260206000209260005b8181106104865750926001928592604096600298961061046d575b505050811b016001850155610349565b015160001960f88460031b161c1916905587808061045d565b92936020600181928786015181550195019301610442565b600185016000526020600020601f840160051c8101602085106104de575b601f830160051c820181106104d2575050610311565b600081556001016104bc565b50806104bc565b62461bcd60e51b815260206004820152600b60248201526a139bdd081cdd195dd85c9960aa1b6044820152606490fd5b600435906001600160a01b03821682036100cc57565b6002548110156105625760026000527f405787fa12a823e0f2b7631cc41b3ba8828b3321ca811111fa75cd3aa3bb5ace0190600090565b634e487b7160e01b600052603260045260246000fd5b919082519283825260005b8481106105a4575050826000602080949584010152601f8019910116010190565b602081830181015184830182015201610583565b90600182811c921680156105e8575b60208310146105d257565b634e487b7160e01b600052602260045260246000fd5b91607f16916105c7565b6060810190811067ffffffffffffffff82111761040a57604052565b90601f8019910116810190811067ffffffffffffffff82111761040a57604052565b9060405191826000825492610644846105b8565b9081845260019485811690816000146106b35750600114610670575b505061066e9250038361060e565b565b9093915060005260209081600020936000915b81831061069b57505061066e93508201013880610660565b85548884018501529485019487945091830191610683565b91505061066e94506020925060ff191682840152151560051b820101388061066056fea264697066735822122094dc3fa4e251d225f83e3308127257854bce4d6f9b6b885fd5a2ae1a70703e9a64736f6c63430008140033",
  "linkReferences": {},
  "deployedLinkReferences": {}
}