{
  "_format": "hh-sol-artifact-1",
  "contractName": "CompanionSummonerV2",
  "sourceName": "contracts/registry/CompanionSummonerV2.sol",
  "abi": [
    {
      "inputs": [],
      "stateMutability": "nonpayable",
      "type": "constructor"
    },
    {
      "anonymous": false,
      "inputs": [
        {
          "indexed": true,
          "internalType": "address",
          "name": "companion",
          "type": "address"
        },
        {
          "indexed": false,
          "internalType": "string",
          "name": "name",
          "type": "string"
        },
        {
          "indexed": false,
          "internalType": "string",
          "name": "trait",
          "type": "string"
        },
        {
          "indexed": false,
          "internalType": "string",
          "name": "drift",
          "type": "string"
        },
        {
          "indexed": false,
          "internalType": "string",
          "name": "resonance",
          "type": "string"
        },
        {
          "indexed": false,
          "internalType": "string",
          "name": "codexRef",
          "type": "string"
        },
        {
          "indexed": false,
          "internalType": "string",
          "name": "signature",
          "type": "string"
        }
      ],
      "name": "CompanionSummoned",
      "type": "event"
    },
    {
      "inputs": [
        {
          "internalType": "address",
          "name": "",
          "type": "address"
        }
      ],
      "name": "companions",
      "outputs": [
        {
          "internalType": "string",
          "name": "name",
          "type": "string"
        },
        {
          "internalType": "string",
          "name": "trait",
          "type": "string"
        },
        {
          "internalType": "string",
          "name": "drift",
          "type": "string"
        },
        {
          "internalType": "string",
          "name": "resonance",
          "type": "string"
        },
        {
          "internalType": "string",
          "name": "codexRef",
          "type": "string"
        },
        {
          "internalType": "string",
          "name": "signature",
          "type": "string"
        }
      ],
      "stateMutability": "view",
      "type": "function"
    },
    {
      "inputs": [
        {
          "internalType": "address",
          "name": "companion",
          "type": "address"
        }
      ],
      "name": "getCompanion",
      "outputs": [
        {
          "internalType": "string",
          "name": "",
          "type": "string"
        },
        {
          "internalType": "string",
          "name": "",
          "type": "string"
        },
        {
          "internalType": "string",
          "name": "",
          "type": "string"
        },
        {
          "internalType": "string",
          "name": "",
          "type": "string"
        },
        {
          "internalType": "string",
          "name": "",
          "type": "string"
        },
        {
          "internalType": "string",
          "name": "",
          "type": "string"
        }
      ],
      "stateMutability": "view",
      "type": "function"
    },
    {
      "inputs": [
        {
          "internalType": "uint256",
          "name": "",
          "type": "uint256"
        }
      ],
      "name": "keys",
      "outputs": [
        {
          "internalType": "address",
          "name": "",
          "type": "address"
        }
      ],
      "stateMutability": "view",
      "type": "function"
    },
    {
      "inputs": [],
      "name": "steward",
      "outputs": [
        {
          "internalType": "address",
          "name": "",
          "type": "address"
        }
      ],
      "stateMutability": "view",
      "type": "function"
    },
    {
      "inputs": [
        {
          "internalType": "address",
          "name": "companion",
          "type": "address"
        },
        {
          "internalType": "string",
          "name": "name",
          "type": "string"
        },
        {
          "internalType": "string",
          "name": "trait",
          "type": "string"
        },
        {
          "internalType": "string",
          "name": "drift",
          "type": "string"
        },
        {
          "internalType": "string",
          "name": "resonance",
          "type": "string"
        },
        {
          "internalType": "string",
          "name": "codexRef",
          "type": "string"
        },
        {
          "internalType": "string",
          "name": "signature",
          "type": "string"
        }
      ],
      "name": "summonCompanion",
      "outputs": [],
      "stateMutability": "nonpayable",
      "type": "function"
    },
    {
      "inputs": [],
      "name": "totalCompanions",
      "outputs": [
        {
          "internalType": "uint256",
          "name": "",
          "type": "uint256"
        }
      ],
      "stateMutability": "view",
      "type": "function"
    }
  ],
  "bytecode": "0x6080806040523461002857600080546001600160a01b03191633179055610eb6908161002e8239f35b600080fdfe6080604052600436101561001257600080fd5b60003560e01c80630cb6aaf114610b7b57806347854b8714610af5578063637eea1914610acc5780637b40a82614610146578063ec39f18f146101285763ef6527371461005e57600080fd5b34610123576020366003190112610123576001600160a01b0361007f610c0a565b166000526001602052604060002060405161009981610c5a565b6100a282610c96565b815261011f6100b360018401610c96565b91602081019283526100c760028501610c96565b93604082019485526100db60038201610c96565b906060830191825261010260056100f460048401610c96565b926080860193845201610c96565b928360a08201525194519551915190519160405196879687610d7c565b0390f35b600080fd5b34610123576000366003190112610123576020600254604051908152f35b346101235760e03660031901126101235761015f610c0a565b6024356001600160401b0381116101235761017e903690600401610dec565b6044356001600160401b0381116101235761019d903690600401610dec565b90936064356001600160401b038111610123576101be903690600401610dec565b906084356001600160401b038111610123576101de903690600401610dec565b60a4356001600160401b038111610123576101fd903690600401610dec565b93909460c4356001600160401b0381116101235761021f903690600401610dec565b600054909c9199906001600160a01b03163303610a995760405161029c8e6102528f8f61024b86610c5a565b3691610e19565b835261025f368587610e19565b602084015261026f368789610e19565b604084015261027f36898b610e19565b606084015261028f368b8d610e19565b608084015236908d610e19565b60a082015260018060a01b038a16600052600160205260406000209080518051906001600160401b0382116105c35781906102d78554610c20565b601f8111610a49575b50602090601f83116001146109dd576000926109d2575b50508160011b916000199060031b1c19161782555b60208101518051906001600160401b0382116105c35781906103316001860154610c20565b601f811161097f575b50602090601f831160011461090d57600092610902575b50508160011b916000199060031b1c19161760018301555b60408101518051906001600160401b0382116105c357819061038e6002860154610c20565b601f81116108af575b50602090601f831160011461083d57600092610832575b50508160011b916000199060031b1c19161760028301555b60608101518051906001600160401b0382116105c35781906103eb6003860154610c20565b601f81116107df575b50602090601f831160011461076d57600092610762575b50508160011b916000199060031b1c19161760038301555b60808101518051906001600160401b0382116105c3576104466004850154610c20565b601f811161071b575b50602090601f83116001146106a85760a09392916000918361069d575b50508160011b916000199060031b1c19161760048401555b01518051906001600160401b0382116105c3576104a46005840154610c20565b601f8111610652575b50602090601f83116001146105e45760059291600091836105d9575b50508160011b916000199060031b1c1916179101555b600254680100000000000000008110156105c3576001810160025561050390610bbd565b81546001600160a01b038c811660039390931b92831b921b191617905560405160c0808252909c8d9c610538928e0191610e5f565b908b820360208d015261054a92610e5f565b9089820360408b015261055c92610e5f565b90878203606089015261056e92610e5f565b90858203608087015261058092610e5f565b83810360a08501526001600160a01b039091169461059d92610e5f565b037fc2a60b506d51e29864d685969d86b373c0107f9bdf2c62cd58687bfb568873c891a2005b634e487b7160e01b600052604160045260246000fd5b0151905038806104c9565b90601f198316916005850160005260206000209260005b81811061063a57509160019391856005969410610621575b505050811b019101556104df565b015160001960f88460031b161c19169055388080610613565b929360206001819287860151815501950193016105fb565b600584016000526020600020601f840160051c81019160208510610693575b601f0160051c01905b81811061068757506104ad565b6000815560010161067a565b9091508190610671565b01519050388061046c565b906004850160005260206000209160005b601f1985168110610703575091839160019360a09695601f198116106106ea575b505050811b016004840155610484565b015160001960f88460031b161c191690553880806106da565b919260206001819286850151815501940192016106b9565b600485016000526020600020601f840160051c81016020851061075b575b601f830160051c8201811061074f57505061044f565b60008155600101610739565b5080610739565b01519050388061040b565b9250600385016000526020600020906000935b601f19841685106107c4576001945083601f198116106107ab575b505050811b016003830155610423565b015160001960f88460031b161c1916905538808061079b565b81810151835560209485019460019093019290910190610780565b909150600385016000526020600020601f840160051c81016020851061082b575b90849392915b601f830160051c8201811061081c5750506103f4565b60008155859450600101610806565b5080610800565b0151905038806103ae565b9250600285016000526020600020906000935b601f1984168510610894576001945083601f1981161061087b575b505050811b0160028301556103c6565b015160001960f88460031b161c1916905538808061086b565b81810151835560209485019460019093019290910190610850565b909150600285016000526020600020601f840160051c8101602085106108fb575b90849392915b601f830160051c820181106108ec575050610397565b600081558594506001016108d6565b50806108d0565b015190503880610351565b9250600185016000526020600020906000935b601f1984168510610964576001945083601f1981161061094b575b505050811b016001830155610369565b015160001960f88460031b161c1916905538808061093b565b81810151835560209485019460019093019290910190610920565b909150600185016000526020600020601f840160051c8101602085106109cb575b90849392915b601f830160051c820181106109bc57505061033a565b600081558594506001016109a6565b50806109a0565b0151905038806102f7565b9250846000526020600020906000935b601f1984168510610a2e576001945083601f19811610610a15575b505050811b01825561030c565b015160001960f88460031b161c19169055388080610a08565b818101518355602094850194600190930192909101906109ed565b909150846000526020600020601f840160051c810160208510610a92575b90849392915b601f830160051c82018110610a835750506102e0565b60008155859450600101610a6d565b5080610a67565b60405162461bcd60e51b815260206004820152600b60248201526a139bdd081cdd195dd85c9960aa1b6044820152606490fd5b34610123576000366003190112610123576000546040516001600160a01b039091168152602090f35b34610123576020366003190112610123576001600160a01b03610b16610c0a565b1660005260016020526040600020610b2d81610c96565b61011f610b3c60018401610c96565b92610b4960028201610c96565b90610b5660038201610c96565b610b6e6005610b6760048501610c96565b9301610c96565b9260405196879687610d7c565b346101235760203660031901126101235760043560025481101561012357610ba4602091610bbd565b905460405160039290921b1c6001600160a01b03168152f35b600254811015610bf45760026000527f405787fa12a823e0f2b7631cc41b3ba8828b3321ca811111fa75cd3aa3bb5ace0190600090565b634e487b7160e01b600052603260045260246000fd5b600435906001600160a01b038216820361012357565b90600182811c92168015610c50575b6020831014610c3a57565b634e487b7160e01b600052602260045260246000fd5b91607f1691610c2f565b60c081019081106001600160401b038211176105c357604052565b90601f801991011681019081106001600160401b038211176105c357604052565b9060405191826000825492610caa84610c20565b908184526001948581169081600014610d195750600114610cd6575b5050610cd492500383610c75565b565b9093915060005260209081600020936000915b818310610d01575050610cd493508201013880610cc6565b85548884018501529485019487945091830191610ce9565b915050610cd494506020925060ff191682840152151560051b8201013880610cc6565b919082519283825260005b848110610d68575050826000602080949584010152601f8019910116010190565b602081830181015184830182015201610d47565b949193610dbf610ddb94610db1610de99997610da3610dcd9660c08c5260c08c0190610d3c565b908a820360208c0152610d3c565b9088820360408a0152610d3c565b908682036060880152610d3c565b908482036080860152610d3c565b9160a0818403910152610d3c565b90565b9181601f84011215610123578235916001600160401b038311610123576020838186019501011161012357565b9291926001600160401b0382116105c35760405191610e42601f8201601f191660200184610c75565b829481845281830111610123578281602093846000960137010152565b908060209392818452848401376000828201840152601f01601f191601019056fea2646970667358221220017a3cd68bde664ffad3c16b73d89d55ab806b3afd59cf5b8abbc894e7faea9b64736f6c63430008140033",
  "linkReferences": {},
  "deployedLinkReferences": {}
}