{
  "_format": "hh-sol-artifact-1",
  "contractName": "ApprenticeSummonerX",
  "sourceName": "contracts/registry/ApprenticeSummonerX.sol",
  "abi": [
    {
      "inputs": [],
      "stateMutability": "nonpayable",
      "type": "constructor"
    },
    {
      "anonymous": false,
      "inputs": [
        {
          "indexed": true,
          "internalType": "address",
          "name": "apprentice",
          "type": "address"
        },
        {
          "indexed": false,
          "internalType": "string",
          "name": "name",
          "type": "string"
        },
        {
          "indexed": false,
          "internalType": "string",
          "name": "signal",
          "type": "string"
        },
        {
          "indexed": false,
          "internalType": "string",
          "name": "drift",
          "type": "string"
        },
        {
          "indexed": false,
          "internalType": "string",
          "name": "pulse",
          "type": "string"
        },
        {
          "indexed": false,
          "internalType": "string",
          "name": "codexRef",
          "type": "string"
        },
        {
          "indexed": false,
          "internalType": "string",
          "name": "resonance",
          "type": "string"
        },
        {
          "indexed": false,
          "internalType": "string",
          "name": "signature",
          "type": "string"
        },
        {
          "indexed": false,
          "internalType": "string",
          "name": "sanctum",
          "type": "string"
        },
        {
          "indexed": false,
          "internalType": "string",
          "name": "choreography",
          "type": "string"
        }
      ],
      "name": "ApprenticeSummoned",
      "type": "event"
    },
    {
      "inputs": [
        {
          "internalType": "uint256",
          "name": "",
          "type": "uint256"
        }
      ],
      "name": "apprentices",
      "outputs": [
        {
          "internalType": "address",
          "name": "",
          "type": "address"
        }
      ],
      "stateMutability": "view",
      "type": "function"
    },
    {
      "inputs": [
        {
          "internalType": "address",
          "name": "apprentice",
          "type": "address"
        }
      ],
      "name": "getSummons",
      "outputs": [
        {
          "components": [
            {
              "internalType": "string",
              "name": "name",
              "type": "string"
            },
            {
              "internalType": "string",
              "name": "signal",
              "type": "string"
            },
            {
              "internalType": "string",
              "name": "drift",
              "type": "string"
            },
            {
              "internalType": "string",
              "name": "pulse",
              "type": "string"
            },
            {
              "internalType": "string",
              "name": "codexRef",
              "type": "string"
            },
            {
              "internalType": "string",
              "name": "resonance",
              "type": "string"
            },
            {
              "internalType": "string",
              "name": "signature",
              "type": "string"
            },
            {
              "internalType": "string",
              "name": "sanctum",
              "type": "string"
            },
            {
              "internalType": "string",
              "name": "choreography",
              "type": "string"
            }
          ],
          "internalType": "struct ApprenticeSummonerX.Summons",
          "name": "",
          "type": "tuple"
        }
      ],
      "stateMutability": "view",
      "type": "function"
    },
    {
      "inputs": [],
      "name": "steward",
      "outputs": [
        {
          "internalType": "address",
          "name": "",
          "type": "address"
        }
      ],
      "stateMutability": "view",
      "type": "function"
    },
    {
      "inputs": [
        {
          "internalType": "address",
          "name": "apprentice",
          "type": "address"
        },
        {
          "internalType": "string",
          "name": "name",
          "type": "string"
        },
        {
          "internalType": "string",
          "name": "signal",
          "type": "string"
        },
        {
          "internalType": "string",
          "name": "drift",
          "type": "string"
        },
        {
          "internalType": "string",
          "name": "pulse",
          "type": "string"
        },
        {
          "internalType": "string",
          "name": "codexRef",
          "type": "string"
        },
        {
          "internalType": "string",
          "name": "resonance",
          "type": "string"
        },
        {
          "internalType": "string",
          "name": "signature",
          "type": "string"
        },
        {
          "internalType": "string",
          "name": "sanctum",
          "type": "string"
        },
        {
          "internalType": "string",
          "name": "choreography",
          "type": "string"
        }
      ],
      "name": "summonApprentice",
      "outputs": [],
      "stateMutability": "nonpayable",
      "type": "function"
    },
    {
      "inputs": [
        {
          "internalType": "address",
          "name": "",
          "type": "address"
        }
      ],
      "name": "summons",
      "outputs": [
        {
          "internalType": "string",
          "name": "name",
          "type": "string"
        },
        {
          "internalType": "string",
          "name": "signal",
          "type": "string"
        },
        {
          "internalType": "string",
          "name": "drift",
          "type": "string"
        },
        {
          "internalType": "string",
          "name": "pulse",
          "type": "string"
        },
        {
          "internalType": "string",
          "name": "codexRef",
          "type": "string"
        },
        {
          "internalType": "string",
          "name": "resonance",
          "type": "string"
        },
        {
          "internalType": "string",
          "name": "signature",
          "type": "string"
        },
        {
          "internalType": "string",
          "name": "sanctum",
          "type": "string"
        },
        {
          "internalType": "string",
          "name": "choreography",
          "type": "string"
        }
      ],
      "stateMutability": "view",
      "type": "function"
    },
    {
      "inputs": [],
      "name": "totalSummons",
      "outputs": [
        {
          "internalType": "uint256",
          "name": "",
          "type": "uint256"
        }
      ],
      "stateMutability": "view",
      "type": "function"
    }
  ],
  "bytecode": "0x6080806040523461002857600080546001600160a01b0319163317905561158b908161002e8239f35b600080fdfe61032080604052600436101561001457600080fd5b60003560e01c9081632a17d4cd146112e6575080635a2ed662146111a8578063637eea191461117f578063c91f2b33146102a4578063cf84c603146100a95763f31bee3e1461006257600080fd5b346100a45760203660031901126100a4576004356002548110156100a45761008b6020916114a1565b905460405160039290921b1c6001600160a01b03168152f35b600080fd5b346100a4576020806003193601126100a4576100c3611301565b906040516100d081611351565b606092838252838383015283604083015283808301528360808301528360a08301528360c08301528360e08301528361010080930152600160a01b6001900316600052600182526040600020926040519261012a84611351565b6101338561138e565b84526101416001860161138e565b848201908152926101546002870161138e565b60408601908152956101686003820161138e565b86850190815261017a6004830161138e565b6080880190815261018d6005840161138e565b60a08901908152906101a16006850161138e565b60c08a01908152926101b56007860161138e565b9460e08b019586526008016101c99061138e565b97868b019889526040519b8c9b898d52518c6101209a8b9101526101408d016101f191611434565b9a51601f198d8d03810160408f01529b61020a91611434565b9051918b8d830301908d015261021f91611434565b905190898b82030160808c015261023591611434565b905190888a82030160a08b015261024b91611434565b905190878982030160c08a015261026191611434565b905190868882030160e089015261027791611434565b90519185878303019087015261028c91611434565b91519284830301908401526102a091611434565b0390f35b346100a4576101403660031901126100a4576102be611301565b60c0526024356001600160401b0381116100a4576102e0903690600401611474565b61010052610240526044356001600160401b0381116100a457610307903690600401611474565b6101a0526102a0526064356001600160401b0381116100a45761032e903690600401611474565b61020052610300526084356001600160401b0381116100a457610355903690600401611474565b6102c0526101e05260a4356001600160401b0381116100a45761037c903690600401611474565b60a0526101c05260c4356001600160401b0381116100a4576103a2903690600401611474565b610140526102805260e4356001600160401b0381116100a4576103c9903690600401611474565b61012052610260526001600160401b0361010435116100a4576103f23661010435600401611474565b60e05261018052610124356001600160401b0381116100a457610419903690600401611474565b608052610220526000546001600160a01b0316330361114c57610442604051806102e052611351565b6104533661010051610240516114ee565b6102e05152610469366101a0516102a0516114ee565b60206102e05101526104823661020051610300516114ee565b60406102e051015261049b366102c0516101e0516114ee565b60606102e05101526104b33660a0516101c0516114ee565b60806102e05101526104cc3661014051610280516114ee565b60a06102e05101526104e53661012051610260516114ee565b60c06102e05101526104fd3660e051610180516114ee565b60e06102e051015261051536608051610220516114ee565b6101006102e051015260018060a01b0360c05116600052600160205260406000206102e051519081516001600160401b038111610a12576105568254611317565b601f8111611108575b506020601f82116001146110a357819293600092611098575b50508160011b916000199060031b1c19161781555b60206102e05101518051906001600160401b038211610a125781906105b56001850154611317565b601f8111611045575b50602090601f8311600114610fd357600092610fc8575b50508160011b916000199060031b1c19161760018201555b60406102e05101518051906001600160401b038211610a125781906106156002850154611317565b601f8111610f75575b50602090601f8311600114610f0357600092610ef8575b50508160011b916000199060031b1c19161760028201555b60606102e05101518051906001600160401b038211610a125781906106756003850154611317565b601f8111610ea5575b50602090601f8311600114610e3357600092610e28575b50508160011b916000199060031b1c19161760038201555b60806102e05101518051906001600160401b038211610a125781906106d56004850154611317565b601f8111610dd5575b50602090601f8311600114610d6357600092610d58575b50508160011b916000199060031b1c19161760048201555b60a06102e05101518051906001600160401b038211610a125781906107356005850154611317565b601f8111610d05575b50602090601f8311600114610c9357600092610c88575b50508160011b916000199060031b1c19161760058201555b60c06102e05101518051906001600160401b038211610a125781906107956006850154611317565b601f8111610c35575b50602090601f8311600114610bc357600092610bb8575b50508160011b916000199060031b1c19161760068201555b60e06102e05101518051906001600160401b038211610a125781906107f56007850154611317565b601f8111610b65575b50602090601f8311600114610af357600092610ae8575b50508160011b916000199060031b1c19161760078201555b6101006102e05101518051906001600160401b038211610a12576108546008840154611317565b601f8111610aa1575b50602090601f8311600114610a33576008929160009183610a28575b50508160011b916000199060031b1c1916179101555b60025468010000000000000000811015610a12578060016108b392016002556114a1565b81549060031b9060018060a01b0360c05116821b9160018060a01b03901b19161790556101206040518061016052526109bc6109a461098b61097261095a61094161092861090f61012061016051016101005161024051611534565b6101605160208183039101526101a0516102a051611534565b6101605160408183039101526102005161030051611534565b6101605160608183039101526102c0516101e051611534565b61016051608081830391015260a0516101c051611534565b6101605160a08183039101526101405161028051611534565b6101605160c08183039101526101205161026051611534565b6101605160e081830391015260e05161018051611534565b610160516101008183039101527f35e2d56d6eac535901538b699d3477f791896e2466cbfc9f5d01349d2dcc4fb460018060a01b0360c0511691610a0a610160519160805161022051611534565b0361016051a2005b634e487b7160e01b600052604160045260246000fd5b015190508480610879565b90601f198316916008850160005260206000209260005b818110610a8957509160019391856008969410610a70575b505050811b0191015561088f565b015160001960f88460031b161c19169055848080610a62565b92936020600181928786015181550195019301610a4a565b600884016000526020600020601f840160051c810160208510610ae1575b601f830160051c82018110610ad557505061085d565b60008155600101610abf565b5080610abf565b015190508380610815565b9250600784016000526020600020906000935b601f1984168510610b4a576001945083601f19811610610b31575b505050811b01600782015561082d565b015160001960f88460031b161c19169055838080610b21565b81810151835560209485019460019093019290910190610b06565b909150600784016000526020600020601f840160051c810160208510610bb1575b90849392915b601f830160051c82018110610ba25750506107fe565b60008155859450600101610b8c565b5080610b86565b0151905083806107b5565b9250600684016000526020600020906000935b601f1984168510610c1a576001945083601f19811610610c01575b505050811b0160068201556107cd565b015160001960f88460031b161c19169055838080610bf1565b81810151835560209485019460019093019290910190610bd6565b909150600684016000526020600020601f840160051c810160208510610c81575b90849392915b601f830160051c82018110610c7257505061079e565b60008155859450600101610c5c565b5080610c56565b015190508380610755565b9250600584016000526020600020906000935b601f1984168510610cea576001945083601f19811610610cd1575b505050811b01600582015561076d565b015160001960f88460031b161c19169055838080610cc1565b81810151835560209485019460019093019290910190610ca6565b909150600584016000526020600020601f840160051c810160208510610d51575b90849392915b601f830160051c82018110610d4257505061073e565b60008155859450600101610d2c565b5080610d26565b0151905083806106f5565b9250600484016000526020600020906000935b601f1984168510610dba576001945083601f19811610610da1575b505050811b01600482015561070d565b015160001960f88460031b161c19169055838080610d91565b81810151835560209485019460019093019290910190610d76565b909150600484016000526020600020601f840160051c810160208510610e21575b90849392915b601f830160051c82018110610e125750506106de565b60008155859450600101610dfc565b5080610df6565b015190508380610695565b9250600384016000526020600020906000935b601f1984168510610e8a576001945083601f19811610610e71575b505050811b0160038201556106ad565b015160001960f88460031b161c19169055838080610e61565b81810151835560209485019460019093019290910190610e46565b909150600384016000526020600020601f840160051c810160208510610ef1575b90849392915b601f830160051c82018110610ee257505061067e565b60008155859450600101610ecc565b5080610ec6565b015190508380610635565b9250600284016000526020600020906000935b601f1984168510610f5a576001945083601f19811610610f41575b505050811b01600282015561064d565b015160001960f88460031b161c19169055838080610f31565b81810151835560209485019460019093019290910190610f16565b909150600284016000526020600020601f840160051c810160208510610fc1575b90849392915b601f830160051c82018110610fb257505061061e565b60008155859450600101610f9c565b5080610f96565b0151905083806105d5565b9250600184016000526020600020906000935b601f198416851061102a576001945083601f19811610611011575b505050811b0160018201556105ed565b015160001960f88460031b161c19169055838080611001565b81810151835560209485019460019093019290910190610fe6565b909150600184016000526020600020601f840160051c810160208510611091575b90849392915b601f830160051c820181106110825750506105be565b6000815585945060010161106c565b5080611066565b015190508380610578565b82600052602060002090600094601f198416955b8681106110f057508360019596106110d7575b505050811b01815561058d565b015160001960f88460031b161c191690558380806110ca565b919260206001819286850151815501940192016110b7565b826000526020600020601f830160051c810160208410611145575b601f830160051c8201811061113957505061055f565b60008155600101611123565b5080611123565b60405162461bcd60e51b815260206004820152600b60248201526a139bdd081cdd195dd85c9960aa1b6044820152606490fd5b346100a45760003660031901126100a4576000546040516001600160a01b039091168152602090f35b346100a45760203660031901126100a4576001600160a01b036111c9611301565b16600052600160205260406000206111e08161138e565b6111ec6001830161138e565b916111f96002820161138e565b906112066003820161138e565b6112126004830161138e565b61121e6005840161138e565b9061122b6006850161138e565b926112386007860161138e565b946008016112459061138e565b95604051988998610120808b528a0161125d91611434565b89810360208b015261126e91611434565b88810360408a015261127f91611434565b878103606089015261129091611434565b86810360808801526112a191611434565b85810360a08701526112b291611434565b84810360c08601526112c391611434565b83810360e08501526112d491611434565b8281036101008401526102a091611434565b346100a45760003660031901126100a4576020906002548152f35b600435906001600160a01b03821682036100a457565b90600182811c92168015611347575b602083101461133157565b634e487b7160e01b600052602260045260246000fd5b91607f1691611326565b61012081019081106001600160401b03821117610a1257604052565b90601f801991011681019081106001600160401b03821117610a1257604052565b90604051918260008254926113a284611317565b90818452600194858116908160001461141157506001146113ce575b50506113cc9250038361136d565b565b9093915060005260209081600020936000915b8183106113f95750506113cc935082010138806113be565b855488840185015294850194879450918301916113e1565b9150506113cc94506020925060ff191682840152151560051b82010138806113be565b919082519283825260005b848110611460575050826000602080949584010152601f8019910116010190565b60208183018101518483018201520161143f565b9181601f840112156100a4578235916001600160401b0383116100a457602083818601950101116100a457565b6002548110156114d85760026000527f405787fa12a823e0f2b7631cc41b3ba8828b3321ca811111fa75cd3aa3bb5ace0190600090565b634e487b7160e01b600052603260045260246000fd5b9291926001600160401b038211610a125760405191611517601f8201601f19166020018461136d565b8294818452818301116100a4578281602093846000960137010152565b908060209392818452848401376000828201840152601f01601f191601019056fea2646970667358221220523b679b418abcabf987deb5b2bc326fb706b30c15724a458db1034f1beb352064736f6c63430008140033",
  "linkReferences": {},
  "deployedLinkReferences": {}
}