{
  "_format": "hh-sol-artifact-1",
  "contractName": "ApprenticeLineage",
  "sourceName": "contracts/registry/ApprenticeLineage.sol",
  "abi": [
    {
      "inputs": [],
      "stateMutability": "nonpayable",
      "type": "constructor"
    },
    {
      "anonymous": false,
      "inputs": [
        {
          "indexed": true,
          "internalType": "address",
          "name": "apprentice",
          "type": "address"
        },
        {
          "indexed": false,
          "internalType": "string",
          "name": "name",
          "type": "string"
        },
        {
          "indexed": false,
          "internalType": "string",
          "name": "drift",
          "type": "string"
        },
        {
          "indexed": false,
          "internalType": "string",
          "name": "resonance",
          "type": "string"
        }
      ],
      "name": "LineageInscribed",
      "type": "event"
    },
    {
      "inputs": [
        {
          "internalType": "address",
          "name": "",
          "type": "address"
        }
      ],
      "name": "apprentices",
      "outputs": [
        {
          "internalType": "string",
          "name": "name",
          "type": "string"
        },
        {
          "internalType": "string",
          "name": "drift",
          "type": "string"
        },
        {
          "internalType": "string",
          "name": "resonance",
          "type": "string"
        }
      ],
      "stateMutability": "view",
      "type": "function"
    },
    {
      "inputs": [
        {
          "internalType": "address",
          "name": "apprentice",
          "type": "address"
        }
      ],
      "name": "getLineage",
      "outputs": [
        {
          "internalType": "string",
          "name": "",
          "type": "string"
        },
        {
          "internalType": "string",
          "name": "",
          "type": "string"
        },
        {
          "internalType": "string",
          "name": "",
          "type": "string"
        }
      ],
      "stateMutability": "view",
      "type": "function"
    },
    {
      "inputs": [
        {
          "internalType": "address",
          "name": "apprentice",
          "type": "address"
        },
        {
          "internalType": "string",
          "name": "name",
          "type": "string"
        },
        {
          "internalType": "string",
          "name": "drift",
          "type": "string"
        },
        {
          "internalType": "string",
          "name": "resonance",
          "type": "string"
        }
      ],
      "name": "inscribeLineage",
      "outputs": [],
      "stateMutability": "nonpayable",
      "type": "function"
    },
    {
      "inputs": [
        {
          "internalType": "uint256",
          "name": "",
          "type": "uint256"
        }
      ],
      "name": "keys",
      "outputs": [
        {
          "internalType": "address",
          "name": "",
          "type": "address"
        }
      ],
      "stateMutability": "view",
      "type": "function"
    },
    {
      "inputs": [],
      "name": "steward",
      "outputs": [
        {
          "internalType": "address",
          "name": "",
          "type": "address"
        }
      ],
      "stateMutability": "view",
      "type": "function"
    },
    {
      "inputs": [],
      "name": "totalLineages",
      "outputs": [
        {
          "internalType": "uint256",
          "name": "",
          "type": "uint256"
        }
      ],
      "stateMutability": "view",
      "type": "function"
    }
  ],
  "bytecode": "0x6080806040523461002857600080546001600160a01b031916331790556109d6908161002e8239f35b600080fdfe604060808152600436101561001357600080fd5b60003560e01c80630cb6aaf1146106ce57806346a2a8d7146106535780634f7982f11461010f578063637eea19146100e65780638c636746146100c75763c44547271461005f57600080fd5b346100c25760203660031901126100c2576001600160a01b0361008061075c565b16600052600160205280600020906100be61009a83610892565b916100b360026100ac60018701610892565b9501610892565b9051938493846107b2565b0390f35b600080fd5b50346100c25760003660031901126100c2576020906002549051908152f35b50346100c25760003660031901126100c25760005490516001600160a01b039091168152602090f35b50346100c25760803660031901126100c25761012961075c565b9060243567ffffffffffffffff81116100c25761014a9036906004016107ec565b60443567ffffffffffffffff81116100c25761016a9036906004016107ec565b909360643567ffffffffffffffff81116100c25761018c9036906004016107ec565b600054919790916001600160a01b031633036106215782516101ad81610854565b6101b8368789610938565b81526101c536868a610938565b60208201526101d536848b610938565b8482015260018060a01b03821660005260016020528360002090805180519067ffffffffffffffff82116103ad57819061020f855461081a565b601f81116105d1575b50602090601f83116001146105655760009261055a575b50508160011b916000199060031b1c19161782555b602081015190815167ffffffffffffffff81116103ad57869261026a600186015461081a565b601f8111610503575b50602090601f831160011461048e576000919083610483575b50508160011b916000199060031b1c19161760018401555b015180519067ffffffffffffffff82116103ad576102c5600284015461081a565b601f811161043c575b50602090601f83116001146103ce5760029291600091836103c3575b50508160011b916000199060031b1c1916179101555b600254680100000000000000008110156103ad577f153b09cf4cf5461ffd51a54d69438f50118269ed6d8bf823ba7c04eff4ef55e2976103a89561034d83600161038f950160025561070f565b81546001600160a01b0387811660039390931b92831b921b19161790558551606080825290998a99610381928b019161097f565b9188830360208a015261097f565b858103938601939093526001600160a01b03169661097f565b0390a2005b634e487b7160e01b600052604160045260246000fd5b0151905038806102ea565b90601f198316916002850160005260206000209260005b8181106104245750916001939185600296941061040b575b505050811b01910155610300565b015160001960f88460031b161c191690553880806103fd565b929360206001819287860151815501950193016103e5565b600284016000526020600020601f840160051c81016020851061047c575b601f830160051c820181106104705750506102ce565b6000815560010161045a565b508061045a565b01519050388061028c565b939291906001860160005260206000209060005b601f19841681106104e85750600193949583601f198116106104cf575b505050811b0160018401556102a4565b015160001960f88460031b161c191690553880806104bf565b8682015183558a9550600190920191602091820191016104a2565b9091929350600185016000526020600020601f840160051c810160208510610553575b908995949392915b601f830160051c82018110610544575050610273565b600081558a965060010161052e565b5080610526565b01519050388061022f565b9250846000526020600020906000935b601f19841685106105b6576001945083601f1981161061059d575b505050811b018255610244565b015160001960f88460031b161c19169055388080610590565b81810151835560209485019460019093019290910190610575565b909150846000526020600020601f840160051c81016020851061061a575b90849392915b601f830160051c8201811061060b575050610218565b600081558594506001016105f5565b50806105ef565b825162461bcd60e51b815260206004820152600b60248201526a139bdd081cdd195dd85c9960aa1b6044820152606490fd5b50346100c25760203660031901126100c2576001600160a01b0361067561075c565b166000526001602052806000206100be825161069081610854565b61069983610892565b81526106ba60026106ac60018601610892565b946020840195865201610892565b9081858201525192519351938493846107b2565b50346100c25760203660031901126100c257600435906002548210156100c2576106f960209261070f565b905491519160018060a01b039160031b1c168152f35b6002548110156107465760026000527f405787fa12a823e0f2b7631cc41b3ba8828b3321ca811111fa75cd3aa3bb5ace0190600090565b634e487b7160e01b600052603260045260246000fd5b600435906001600160a01b03821682036100c257565b919082519283825260005b84811061079e575050826000602080949584010152601f8019910116010190565b60208183018101518483018201520161077d565b916107db906107cd6107e99593606086526060860190610772565b908482036020860152610772565b916040818403910152610772565b90565b9181601f840112156100c25782359167ffffffffffffffff83116100c257602083818601950101116100c257565b90600182811c9216801561084a575b602083101461083457565b634e487b7160e01b600052602260045260246000fd5b91607f1691610829565b6060810190811067ffffffffffffffff8211176103ad57604052565b90601f8019910116810190811067ffffffffffffffff8211176103ad57604052565b90604051918260008254926108a68461081a565b90818452600194858116908160001461091557506001146108d2575b50506108d092500383610870565b565b9093915060005260209081600020936000915b8183106108fd5750506108d0935082010138806108c2565b855488840185015294850194879450918301916108e5565b9150506108d094506020925060ff191682840152151560051b82010138806108c2565b92919267ffffffffffffffff82116103ad5760405191610962601f8201601f191660200184610870565b8294818452818301116100c2578281602093846000960137010152565b908060209392818452848401376000828201840152601f01601f191601019056fea2646970667358221220d9a885a5c4e25c80bd8a76554f2fd9e8ab79901cb2cb4912e1c3b2b6db66686e64736f6c63430008140033",
  "linkReferences": {},
  "deployedLinkReferences": {}
}