{
  "_format": "hh-sol-artifact-1",
  "contractName": "Lunethrae",
  "sourceName": "contracts/Lunethrae.sol",
  "abi": [
    {
      "anonymous": false,
      "inputs": [
        {
          "indexed": true,
          "internalType": "address",
          "name": "apprentice",
          "type": "address"
        }
      ],
      "name": "CompanionActivated",
      "type": "event"
    },
    {
      "anonymous": false,
      "inputs": [
        {
          "indexed": true,
          "internalType": "address",
          "name": "apprentice",
          "type": "address"
        },
        {
          "indexed": false,
          "internalType": "string",
          "name": "edit",
          "type": "string"
        }
      ],
      "name": "ConfigEdited",
      "type": "event"
    },
    {
      "inputs": [
        {
          "internalType": "address",
          "name": "apprentice",
          "type": "address"
        }
      ],
      "name": "activate",
      "outputs": [],
      "stateMutability": "nonpayable",
      "type": "function"
    },
    {
      "inputs": [
        {
          "internalType": "address",
          "name": "",
          "type": "address"
        }
      ],
      "name": "activated",
      "outputs": [
        {
          "internalType": "bool",
          "name": "",
          "type": "bool"
        }
      ],
      "stateMutability": "view",
      "type": "function"
    },
    {
      "inputs": [
        {
          "internalType": "address",
          "name": "apprentice",
          "type": "address"
        }
      ],
      "name": "echoEdit",
      "outputs": [
        {
          "internalType": "string",
          "name": "",
          "type": "string"
        }
      ],
      "stateMutability": "view",
      "type": "function"
    },
    {
      "inputs": [
        {
          "internalType": "address",
          "name": "",
          "type": "address"
        }
      ],
      "name": "edits",
      "outputs": [
        {
          "internalType": "string",
          "name": "",
          "type": "string"
        }
      ],
      "stateMutability": "view",
      "type": "function"
    },
    {
      "inputs": [
        {
          "internalType": "address",
          "name": "apprentice",
          "type": "address"
        },
        {
          "internalType": "string",
          "name": "edit",
          "type": "string"
        }
      ],
      "name": "submitEdit",
      "outputs": [],
      "stateMutability": "nonpayable",
      "type": "function"
    }
  ],
  "bytecode": "0x60808060405234610016576105c2908161001c8239f35b600080fdfe604060808152600436101561001357600080fd5b600090813560e01c80630956ec21146103745780631c5a9d9c146103155780635cd0bad9146100de578063779d8677146100a25763fe39457f1461005657600080fd5b3461009e57602036600319011261009e5761009a9161008f9082906001600160a01b036100816103c4565b16815260016020522061049a565b9051918291826103df565b0390f35b5080fd5b503461009e57602036600319011261009e5760209160ff9082906001600160a01b036100cc6103c4565b16815280855220541690519015158152f35b503461009e578060031936011261009e576100f76103c4565b67ffffffffffffffff916024358381116103115736602382011215610311578060040135938085116102fd5782519386602093601f199761013f868a601f8401160189610428565b80885236602482840101116102f957806024879301838a0137870101526001600160a01b03168087528683528387205490959061017e9060ff16610540565b8587526001908184528488209386519384116102e55761019e8554610460565b601f811161029f575b508091601f85116001146102165750509180807fcae8c2c522ef07f052fa7d38e402f916862e2109715efe7c7d499d16b772cf5097959361020597958b9361020b575b501b916000199060031b1c19161790555b51918291826103df565b0390a280f35b8701519250386101ea565b84939492919216858a52828a20928a905b8282106102885750509183917fcae8c2c522ef07f052fa7d38e402f916862e2109715efe7c7d499d16b772cf509896946102059896941061026f575b5050811b0190556101fb565b86015160001960f88460031b161c191690553880610263565b808785968294968d01518155019501930190610227565b858a52818a20601f860160051c8101918387106102db575b601f0160051c019084905b8281106102d05750506101a7565b8b81550184906102c2565b90915081906102b7565b634e487b7160e01b89526041600452602489fd5b8280fd5b634e487b7160e01b86526041600452602486fd5b8480fd5b503461009e57602036600319011261009e576001600160a01b036103376103c4565b1690818352826020528220600160ff198254161790557fd9b25af30713b5bb8fe8939791ca4aa6d4a10489af27f8bf9da3fdca1e2eec288280a280f35b503461009e57602036600319011261009e5761009a9161008f9082906001600160a01b036103a06103c4565b16808252816020526103b760ff8484205416610540565b815260016020522061049a565b600435906001600160a01b03821682036103da57565b600080fd5b6020808252825181830181905290939260005b82811061041457505060409293506000838284010152601f8019910116010190565b8181018601518482016040015285016103f2565b90601f8019910116810190811067ffffffffffffffff82111761044a57604052565b634e487b7160e01b600052604160045260246000fd5b90600182811c92168015610490575b602083101461047a57565b634e487b7160e01b600052602260045260246000fd5b91607f169161046f565b90604051918260008254926104ae84610460565b90818452600194858116908160001461051d57506001146104da575b50506104d892500383610428565b565b9093915060005260209081600020936000915b8183106105055750506104d8935082010138806104ca565b855488840185015294850194879450918301916104ed565b9150506104d894506020925060ff191682840152151560051b82010138806104ca565b1561054757565b60405162461bcd60e51b815260206004820152601760248201527f4c756e657468726165206e6f74206163746976617465640000000000000000006044820152606490fdfea2646970667358221220dd516c36cd61bea039a4dd98342aaa2efc6dcfedb10b1b9de69806a1b739232664736f6c63430008140033",
  "linkReferences": {},
  "deployedLinkReferences": {}
}