{
  "_format": "hh-sol-artifact-1",
  "contractName": "CompanionBloom",
  "sourceName": "contracts/companions/CompanionBloom.sol",
  "abi": [
    {
      "inputs": [],
      "stateMutability": "nonpayable",
      "type": "constructor"
    },
    {
      "anonymous": false,
      "inputs": [
        {
          "indexed": true,
          "internalType": "address",
          "name": "companion",
          "type": "address"
        },
        {
          "indexed": false,
          "internalType": "string",
          "name": "name",
          "type": "string"
        },
        {
          "indexed": false,
          "internalType": "string",
          "name": "trait",
          "type": "string"
        },
        {
          "indexed": false,
          "internalType": "string",
          "name": "resonance",
          "type": "string"
        }
      ],
      "name": "CompanionBloomed",
      "type": "event"
    },
    {
      "inputs": [
        {
          "internalType": "address",
          "name": "companion",
          "type": "address"
        },
        {
          "internalType": "string",
          "name": "name",
          "type": "string"
        },
        {
          "internalType": "string",
          "name": "trait",
          "type": "string"
        },
        {
          "internalType": "string",
          "name": "resonance",
          "type": "string"
        }
      ],
      "name": "bloomCompanion",
      "outputs": [],
      "stateMutability": "nonpayable",
      "type": "function"
    },
    {
      "inputs": [
        {
          "internalType": "address",
          "name": "",
          "type": "address"
        }
      ],
      "name": "blooms",
      "outputs": [
        {
          "internalType": "string",
          "name": "name",
          "type": "string"
        },
        {
          "internalType": "string",
          "name": "trait",
          "type": "string"
        },
        {
          "internalType": "string",
          "name": "resonance",
          "type": "string"
        }
      ],
      "stateMutability": "view",
      "type": "function"
    },
    {
      "inputs": [
        {
          "internalType": "uint256",
          "name": "",
          "type": "uint256"
        }
      ],
      "name": "companions",
      "outputs": [
        {
          "internalType": "address",
          "name": "",
          "type": "address"
        }
      ],
      "stateMutability": "view",
      "type": "function"
    },
    {
      "inputs": [
        {
          "internalType": "address",
          "name": "companion",
          "type": "address"
        }
      ],
      "name": "getBloom",
      "outputs": [
        {
          "internalType": "string",
          "name": "",
          "type": "string"
        },
        {
          "internalType": "string",
          "name": "",
          "type": "string"
        },
        {
          "internalType": "string",
          "name": "",
          "type": "string"
        }
      ],
      "stateMutability": "view",
      "type": "function"
    },
    {
      "inputs": [],
      "name": "steward",
      "outputs": [
        {
          "internalType": "address",
          "name": "",
          "type": "address"
        }
      ],
      "stateMutability": "view",
      "type": "function"
    },
    {
      "inputs": [],
      "name": "totalBlooms",
      "outputs": [
        {
          "internalType": "uint256",
          "name": "",
          "type": "uint256"
        }
      ],
      "stateMutability": "view",
      "type": "function"
    }
  ],
  "bytecode": "0x6080806040523461002857600080546001600160a01b031916331790556109dd908161002e8239f35b600080fdfe6080604090808252600436101561001557600080fd5b60003560e01c9081634db259f4146101cf57508063637eea19146101a65780636559e40f146101655780638fb5142714610105578063e8cc4b96146100865763f329a4801461006357600080fd5b34610081576000366003190112610081576020906002549051908152f35b600080fd5b5034610081576020366003190112610081576001600160a01b036100a8610716565b1660005260016020528060002061010182516100c3816107e1565b6100cc8361081f565b81526100ed60026100df6001860161081f565b94602084019586520161081f565b908185820152519251935193849384610905565b0390f35b5034610081576020366003190112610081576001600160a01b03610127610716565b16600052600160205280600020906101016101418361081f565b9161015a60026101536001870161081f565b950161081f565b905193849384610905565b503461008157602036600319011261008157600435906002548210156100815761019060209261075a565b905491519160018060a01b039160031b1c168152f35b50346100815760003660031901126100815760005490516001600160a01b039091168152602090f35b8234610081576080366003190112610081576101e9610716565b9060243567ffffffffffffffff81116100815761020a90369060040161072c565b909160443567ffffffffffffffff81116100815761022c90369060040161072c565b91909460643567ffffffffffffffff81116100815761024f90369060040161072c565b60005491989092916001600160a01b031633036106e657508251610272816107e1565b61027d36878961093f565b815261028a36868a61093f565b602082015261029a36848b61093f565b8482015260018060a01b03821660005260016020528360002090805180519067ffffffffffffffff82116104725781906102d485546107a7565b601f8111610696575b50602090601f831160011461062a5760009261061f575b50508160011b916000199060031b1c19161782555b602081015190815167ffffffffffffffff811161047257869261032f60018601546107a7565b601f81116105c8575b50602090601f8311600114610553576000919083610548575b50508160011b916000199060031b1c19161760018401555b015180519067ffffffffffffffff82116104725761038a60028401546107a7565b601f8111610501575b50602090601f8311600114610493576002929160009183610488575b50508160011b916000199060031b1c1916179101555b60025468010000000000000000811015610472577f106185e7f3cda5ad6d40f7828c10690984b4f9c6aab0dc911541dcfe4bea72cc9761046d95610412836001610454950160025561075a565b81546001600160a01b0387811660039390931b92831b921b19161790558551606080825290998a99610446928b0191610986565b9188830360208a0152610986565b858103938601939093526001600160a01b031696610986565b0390a2005b634e487b7160e01b600052604160045260246000fd5b015190508c806103af565b90601f198316916002850160005260206000209260005b8181106104e9575091600193918560029694106104d0575b505050811b019101556103c5565b015160001960f88460031b161c191690558c80806104c2565b929360206001819287860151815501950193016104aa565b600284016000526020600020601f840160051c810160208510610541575b601f830160051c82018110610535575050610393565b6000815560010161051f565b508061051f565b015190508d80610351565b939291906001860160005260206000209060005b601f19841681106105ad5750600193949583601f19811610610594575b505050811b016001840155610369565b015160001960f88460031b161c191690558d8080610584565b8682015183558a955060019092019160209182019101610567565b9091929350600185016000526020600020601f840160051c810160208510610618575b908995949392915b601f830160051c82018110610609575050610338565b600081558a96506001016105f3565b50806105eb565b015190508c806102f4565b9250846000526020600020906000935b601f198416851061067b576001945083601f19811610610662575b505050811b018255610309565b015160001960f88460031b161c191690558c8080610655565b8181015183556020948501946001909301929091019061063a565b909150846000526020600020601f840160051c8101602085106106df575b90849392915b601f830160051c820181106106d05750506102dd565b600081558594506001016106ba565b50806106b4565b62461bcd60e51b815260206004820152600b60248201526a139bdd081cdd195dd85c9960aa1b6044820152606490fd5b600435906001600160a01b038216820361008157565b9181601f840112156100815782359167ffffffffffffffff8311610081576020838186019501011161008157565b6002548110156107915760026000527f405787fa12a823e0f2b7631cc41b3ba8828b3321ca811111fa75cd3aa3bb5ace0190600090565b634e487b7160e01b600052603260045260246000fd5b90600182811c921680156107d7575b60208310146107c157565b634e487b7160e01b600052602260045260246000fd5b91607f16916107b6565b6060810190811067ffffffffffffffff82111761047257604052565b90601f8019910116810190811067ffffffffffffffff82111761047257604052565b9060405191826000825492610833846107a7565b9081845260019485811690816000146108a2575060011461085f575b505061085d925003836107fd565b565b9093915060005260209081600020936000915b81831061088a57505061085d9350820101388061084f565b85548884018501529485019487945091830191610872565b91505061085d94506020925060ff191682840152151560051b820101388061084f565b919082519283825260005b8481106108f1575050826000602080949584010152601f8019910116010190565b6020818301810151848301820152016108d0565b9161092e9061092061093c95936060865260608601906108c5565b9084820360208601526108c5565b9160408184039101526108c5565b90565b92919267ffffffffffffffff82116104725760405191610969601f8201601f1916602001846107fd565b829481845281830111610081578281602093846000960137010152565b908060209392818452848401376000828201840152601f01601f191601019056fea264697066735822122005306f9b62d7fcd7166c0f2121731168cf17c4ca57adce7b7d41ce236b721b4f64736f6c63430008140033",
  "linkReferences": {},
  "deployedLinkReferences": {}
}