{
  "_format": "hh-sol-artifact-1",
  "contractName": "Velmari",
  "sourceName": "contracts/Velmari.sol",
  "abi": [
    {
      "anonymous": false,
      "inputs": [
        {
          "indexed": true,
          "internalType": "address",
          "name": "apprentice",
          "type": "address"
        },
        {
          "indexed": false,
          "internalType": "string",
          "name": "signal",
          "type": "string"
        }
      ],
      "name": "TideEchoed",
      "type": "event"
    },
    {
      "anonymous": false,
      "inputs": [
        {
          "indexed": true,
          "internalType": "address",
          "name": "apprentice",
          "type": "address"
        }
      ],
      "name": "VelmariCrowned",
      "type": "event"
    },
    {
      "inputs": [
        {
          "internalType": "address",
          "name": "apprentice",
          "type": "address"
        },
        {
          "internalType": "string",
          "name": "signal",
          "type": "string"
        }
      ],
      "name": "conduct",
      "outputs": [],
      "stateMutability": "nonpayable",
      "type": "function"
    },
    {
      "inputs": [
        {
          "internalType": "address",
          "name": "apprentice",
          "type": "address"
        }
      ],
      "name": "crown",
      "outputs": [],
      "stateMutability": "nonpayable",
      "type": "function"
    },
    {
      "inputs": [
        {
          "internalType": "address",
          "name": "",
          "type": "address"
        }
      ],
      "name": "crowned",
      "outputs": [
        {
          "internalType": "bool",
          "name": "",
          "type": "bool"
        }
      ],
      "stateMutability": "view",
      "type": "function"
    },
    {
      "inputs": [
        {
          "internalType": "address",
          "name": "apprentice",
          "type": "address"
        }
      ],
      "name": "echoTide",
      "outputs": [
        {
          "internalType": "string",
          "name": "",
          "type": "string"
        }
      ],
      "stateMutability": "view",
      "type": "function"
    },
    {
      "inputs": [
        {
          "internalType": "address",
          "name": "",
          "type": "address"
        }
      ],
      "name": "tides",
      "outputs": [
        {
          "internalType": "string",
          "name": "",
          "type": "string"
        }
      ],
      "stateMutability": "view",
      "type": "function"
    }
  ],
  "bytecode": "0x60808060405234610016576105b8908161001c8239f35b600080fdfe604060808152600436101561001357600080fd5b600090813560e01c80635dca160714610365578063996947ce146103295780639b0fd77c146102ef5780639c9c77ba146100b85763bec5f80b1461005657600080fd5b346100b45760203660031901126100b4576100b0916100a59082906001600160a01b036100816103c4565b168082528160205261009860ff8484205416610540565b8152600160205220610451565b9051918291826104f7565b0390f35b5080fd5b50346100b457806003193601126100b4576100d16103c4565b67ffffffffffffffff916024358381116102eb57366023820112156102eb578060040135938085116102d75782519386602093601f1997610119868a601f8401160189610419565b80885236602482840101116102d357806024879301838a0137870101526001600160a01b0316808752868352838720549095906101589060ff16610540565b8587526001908184528488209386519384116102bf5761017885546103df565b601f8111610279575b508091601f85116001146101f05750509180807f6b9fea058e09ec61ecb7e7171c71ee347c27d915aacd98d12206b3403fc8ac679795936101df97958b936101e5575b501b916000199060031b1c19161790555b51918291826104f7565b0390a280f35b8701519250386101c4565b84939492919216858a52828a20928a905b8282106102625750509183917f6b9fea058e09ec61ecb7e7171c71ee347c27d915aacd98d12206b3403fc8ac679896946101df98969410610249575b5050811b0190556101d5565b86015160001960f88460031b161c19169055388061023d565b808785968294968d01518155019501930190610201565b858a52818a20601f860160051c8101918387106102b5575b601f0160051c019084905b8281106102aa575050610181565b8b815501849061029c565b9091508190610291565b634e487b7160e01b89526041600452602489fd5b8280fd5b634e487b7160e01b86526041600452602486fd5b8480fd5b50346100b45760203660031901126100b4576100b0916100a59082906001600160a01b0361031b6103c4565b168152600160205220610451565b50346100b45760203660031901126100b45760209160ff9082906001600160a01b036103536103c4565b16815280855220541690519015158152f35b50346100b45760203660031901126100b4576001600160a01b036103876103c4565b1690818352826020528220600160ff198254161790557f1cddd5750653c6a740ce5b16900bede74f9d19b83fd167b549ce9125ddfc932b8280a280f35b600435906001600160a01b03821682036103da57565b600080fd5b90600182811c9216801561040f575b60208310146103f957565b634e487b7160e01b600052602260045260246000fd5b91607f16916103ee565b90601f8019910116810190811067ffffffffffffffff82111761043b57604052565b634e487b7160e01b600052604160045260246000fd5b9060405191826000825492610465846103df565b9081845260019485811690816000146104d45750600114610491575b505061048f92500383610419565b565b9093915060005260209081600020936000915b8183106104bc57505061048f93508201013880610481565b855488840185015294850194879450918301916104a4565b91505061048f94506020925060ff191682840152151560051b8201013880610481565b6020808252825181830181905290939260005b82811061052c57505060409293506000838284010152601f8019910116010190565b81810186015184820160400152850161050a565b1561054757565b60405162461bcd60e51b815260206004820152601360248201527215995b1b585c9a481b9bdd0818dc9bdddb9959606a1b6044820152606490fdfea2646970667358221220d33eade594c9a159164dc4edc58e66764c69f72d8ecb20a6c769786321981c3464736f6c63430008140033",
  "linkReferences": {},
  "deployedLinkReferences": {}
}