{
  "_format": "hh-sol-artifact-1",
  "contractName": "SkyCity",
  "sourceName": "contracts/skycity/SkyCity.sol",
  "abi": [
    {
      "inputs": [
        {
          "internalType": "string",
          "name": "_name",
          "type": "string"
        },
        {
          "internalType": "uint256",
          "name": "_altitude",
          "type": "uint256"
        }
      ],
      "stateMutability": "nonpayable",
      "type": "constructor"
    },
    {
      "anonymous": false,
      "inputs": [
        {
          "indexed": false,
          "internalType": "string",
          "name": "name",
          "type": "string"
        },
        {
          "indexed": false,
          "internalType": "uint256",
          "name": "altitude",
          "type": "uint256"
        }
      ],
      "name": "CityCrowned",
      "type": "event"
    },
    {
      "inputs": [],
      "name": "altitude",
      "outputs": [
        {
          "internalType": "uint256",
          "name": "",
          "type": "uint256"
        }
      ],
      "stateMutability": "view",
      "type": "function"
    },
    {
      "inputs": [],
      "name": "cityName",
      "outputs": [
        {
          "internalType": "string",
          "name": "",
          "type": "string"
        }
      ],
      "stateMutability": "view",
      "type": "function"
    },
    {
      "inputs": [],
      "name": "steward",
      "outputs": [
        {
          "internalType": "address",
          "name": "",
          "type": "address"
        }
      ],
      "stateMutability": "view",
      "type": "function"
    },
    {
      "inputs": [
        {
          "internalType": "uint256",
          "name": "newAltitude",
          "type": "uint256"
        }
      ],
      "name": "updateAltitude",
      "outputs": [],
      "stateMutability": "nonpayable",
      "type": "function"
    }
  ],
  "bytecode": "0x6040608081523461024057610554908138038061001b8161025b565b938439820181838203126102405782516001600160401b03939084811161024057810191601f908082850112156102405783519580871161024557602096601f199461006c85830187168a0161025b565b96828852898801948a8483010111610240578992858461008c9301610280565b0151600080546001600160a01b0319163317815586519192909190811161022c5760019182548381811c91168015610222575b8b82101461020e578681116101cb575b508990868311600114610155579282610132999795936000805160206105348339815191529b9c9360609a98969161014a575b50600019600383901b1c191690821b1790555b8160025589519788968b8852518094818d8a015289890190610280565b85015201168101030190a15161029090816102a48239f35b905088015138610102565b908783168483528b8320925b8181106101b6575093836000805160206105348339815191529b9c9382936101329c9a989660609c9a981061019d575b5050811b019055610115565b8a015160001960f88460031b161c191690553880610191565b8a830151845592850192918c01918c01610161565b8382528a82208780850160051c8201928d8610610205575b0160051c019084905b8281106101fa5750506100cf565b8381550184906101ec565b925081926101e3565b634e487b7160e01b82526022600452602482fd5b90607f16906100bf565b634e487b7160e01b82526041600452602482fd5b600080fd5b634e487b7160e01b600052604160045260246000fd5b6040519190601f01601f191682016001600160401b0381118382101761024557604052565b60005b8381106102935750506000910152565b818101518382015260200161028356fe6080604090808252600436101561001557600080fd5b600090813560e01c908163637eea191461023657508063859073bb146101d7578063d906896a146101b45763e004ccdc1461004f57600080fd5b346101b157806003193601126101b157815191819260019283549485851c948087169687156101a7575b6020978888108114610193578786528892918115610174575060011461011f575b505082939450601f801994859203011682019482861067ffffffffffffffff87111761010b5785929391838652818452845191828186015281955b8387106100f35750508394508582601f949501015201168101030190f35b868101820151898801890152958101958895506100d5565b634e487b7160e01b82526041600452602482fd5b80845290915082907fb10e2d527612073b26eecdfd717e6a320cf44b4afac2b0732d9fcbe2b7fa0cf65b8783106101615750949550859450830101853861009a565b8054868401850152918301918101610149565b60ff191683870152509495869550151560051b8401019050853861009a565b634e487b7160e01b85526022600452602485fd5b95607f1695610079565b80fd5b5090346101d357816003193601126101d3576020906002549051908152f35b5080fd5b5090346101d35760203660031901126101d35781546001600160a01b03163303610205575060043560025580f35b5162461bcd60e51b815260206004820152600b60248201526a139bdd081cdd195dd85c9960aa1b6044820152606490fd5b9050346101d357816003193601126101d35790546001600160a01b03168152602090f3fea26469706673582212202b1e3784d0b6654301a31339c33c33bfb029772d2f27c6d2cec20554f053d3cd64736f6c634300081400331e0e08dff3ac26c0ecc15c0bc7ef64a3a1e434734333b829fe8f1e61c2a5186a",
  "linkReferences": {},
  "deployedLinkReferences": {}
}