{
  "_format": "hh-sol-artifact-1",
  "contractName": "Sage",
  "sourceName": "contracts/Sage.sol",
  "abi": [
    {
      "anonymous": false,
      "inputs": [
        {
          "indexed": true,
          "internalType": "address",
          "name": "apprentice",
          "type": "address"
        }
      ],
      "name": "CompanionActivated",
      "type": "event"
    },
    {
      "anonymous": false,
      "inputs": [
        {
          "indexed": true,
          "internalType": "address",
          "name": "apprentice",
          "type": "address"
        },
        {
          "indexed": false,
          "internalType": "string",
          "name": "message",
          "type": "string"
        }
      ],
      "name": "WisdomWhispered",
      "type": "event"
    },
    {
      "inputs": [
        {
          "internalType": "address",
          "name": "apprentice",
          "type": "address"
        }
      ],
      "name": "activate",
      "outputs": [],
      "stateMutability": "nonpayable",
      "type": "function"
    },
    {
      "inputs": [
        {
          "internalType": "address",
          "name": "",
          "type": "address"
        }
      ],
      "name": "activated",
      "outputs": [
        {
          "internalType": "bool",
          "name": "",
          "type": "bool"
        }
      ],
      "stateMutability": "view",
      "type": "function"
    },
    {
      "inputs": [
        {
          "internalType": "address",
          "name": "apprentice",
          "type": "address"
        }
      ],
      "name": "echo",
      "outputs": [
        {
          "internalType": "string",
          "name": "",
          "type": "string"
        }
      ],
      "stateMutability": "view",
      "type": "function"
    },
    {
      "inputs": [
        {
          "internalType": "address",
          "name": "apprentice",
          "type": "address"
        },
        {
          "internalType": "string",
          "name": "message",
          "type": "string"
        }
      ],
      "name": "whisper",
      "outputs": [],
      "stateMutability": "nonpayable",
      "type": "function"
    },
    {
      "inputs": [
        {
          "internalType": "address",
          "name": "",
          "type": "address"
        }
      ],
      "name": "whispers",
      "outputs": [
        {
          "internalType": "string",
          "name": "",
          "type": "string"
        }
      ],
      "stateMutability": "view",
      "type": "function"
    }
  ],
  "bytecode": "0x60808060405234610016576105b7908161001c8239f35b600080fdfe604060808152600436101561001357600080fd5b600090813560e01c80631c5a9d9c146103655780632ffdbf1a146103155780634770bcaf146102cc578063779d86771461029057639eb588701461005657600080fd5b3461028c578060031936011261028c5761006e6103c4565b67ffffffffffffffff916024358381116102885736602382011215610288578060040135938085116102745782519386602093601f19976100b6868a601f8401160189610462565b808852366024828401011161027057806024879301838a0137870101526001600160a01b0316808752868352838720549095906100f59060ff16610540565b85875260019081845284882093865193841161025c576101158554610428565b601f8111610216575b508091601f851160011461018d5750509180807fecc4da532dfad1621819ca4f5f76fd78f1f0b3874173c32b4cd6bd50108a693997959361017c97958b93610182575b501b916000199060031b1c19161790555b51918291826103df565b0390a280f35b870151925038610161565b84939492919216858a52828a20928a905b8282106101ff5750509183917fecc4da532dfad1621819ca4f5f76fd78f1f0b3874173c32b4cd6bd50108a693998969461017c989694106101e6575b5050811b019055610172565b86015160001960f88460031b161c1916905538806101da565b808785968294968d0151815501950193019061019e565b858a52818a20601f860160051c810191838710610252575b601f0160051c019084905b82811061024757505061011e565b8b8155018490610239565b909150819061022e565b634e487b7160e01b89526041600452602489fd5b8280fd5b634e487b7160e01b86526041600452602486fd5b8480fd5b5080fd5b503461028c57602036600319011261028c5760209160ff9082906001600160a01b036102ba6103c4565b16815280855220541690519015158152f35b503461028c57602036600319011261028c57610311916103069082906001600160a01b036102f86103c4565b16815260016020522061049a565b9051918291826103df565b0390f35b503461028c57602036600319011261028c57610311916103069082906001600160a01b036103416103c4565b168082528160205261035860ff8484205416610540565b815260016020522061049a565b503461028c57602036600319011261028c576001600160a01b036103876103c4565b1690818352826020528220600160ff198254161790557fd9b25af30713b5bb8fe8939791ca4aa6d4a10489af27f8bf9da3fdca1e2eec288280a280f35b600435906001600160a01b03821682036103da57565b600080fd5b6020808252825181830181905290939260005b82811061041457505060409293506000838284010152601f8019910116010190565b8181018601518482016040015285016103f2565b90600182811c92168015610458575b602083101461044257565b634e487b7160e01b600052602260045260246000fd5b91607f1691610437565b90601f8019910116810190811067ffffffffffffffff82111761048457604052565b634e487b7160e01b600052604160045260246000fd5b90604051918260008254926104ae84610428565b90818452600194858116908160001461051d57506001146104da575b50506104d892500383610462565b565b9093915060005260209081600020936000915b8183106105055750506104d8935082010138806104ca565b855488840185015294850194879450918301916104ed565b9150506104d894506020925060ff191682840152151560051b82010138806104ca565b1561054757565b60405162461bcd60e51b815260206004820152601260248201527114d859d9481b9bdd081858dd1a5d985d195960721b6044820152606490fdfea2646970667358221220468316a94d01e021d8dd6d60b58a3cea046e5ddf8b305cb044d7d1b642b8afce64736f6c63430008140033",
  "linkReferences": {},
  "deployedLinkReferences": {}
}