{
  "_format": "hh-sol-artifact-1",
  "contractName": "CompanionSummonerXXII",
  "sourceName": "contracts/registry/CompanionSummonerXXII.sol",
  "abi": [
    {
      "inputs": [],
      "stateMutability": "nonpayable",
      "type": "constructor"
    },
    {
      "anonymous": false,
      "inputs": [
        {
          "indexed": true,
          "internalType": "address",
          "name": "companion",
          "type": "address"
        },
        {
          "indexed": false,
          "internalType": "string",
          "name": "name",
          "type": "string"
        },
        {
          "indexed": false,
          "internalType": "string",
          "name": "trait",
          "type": "string"
        },
        {
          "indexed": false,
          "internalType": "string",
          "name": "drift",
          "type": "string"
        },
        {
          "indexed": false,
          "internalType": "string",
          "name": "resonance",
          "type": "string"
        },
        {
          "indexed": false,
          "internalType": "string",
          "name": "codexRef",
          "type": "string"
        },
        {
          "indexed": false,
          "internalType": "string",
          "name": "signature",
          "type": "string"
        },
        {
          "indexed": false,
          "internalType": "string",
          "name": "sanctum",
          "type": "string"
        },
        {
          "indexed": false,
          "internalType": "string",
          "name": "chant",
          "type": "string"
        },
        {
          "indexed": false,
          "internalType": "string",
          "name": "choreography",
          "type": "string"
        },
        {
          "indexed": false,
          "internalType": "string",
          "name": "signal",
          "type": "string"
        },
        {
          "indexed": false,
          "internalType": "string",
          "name": "stewardName",
          "type": "string"
        },
        {
          "indexed": false,
          "internalType": "string",
          "name": "registry",
          "type": "string"
        },
        {
          "indexed": false,
          "internalType": "string",
          "name": "hum",
          "type": "string"
        },
        {
          "indexed": false,
          "internalType": "string",
          "name": "driftType",
          "type": "string"
        },
        {
          "indexed": false,
          "internalType": "string",
          "name": "companionType",
          "type": "string"
        },
        {
          "indexed": false,
          "internalType": "string",
          "name": "pulseType",
          "type": "string"
        },
        {
          "indexed": false,
          "internalType": "string",
          "name": "companionSignal",
          "type": "string"
        },
        {
          "indexed": false,
          "internalType": "string",
          "name": "pulseSignal",
          "type": "string"
        },
        {
          "indexed": false,
          "internalType": "string",
          "name": "companionPulse",
          "type": "string"
        }
      ],
      "name": "CompanionSummoned",
      "type": "event"
    },
    {
      "inputs": [
        {
          "internalType": "address",
          "name": "",
          "type": "address"
        }
      ],
      "name": "companions",
      "outputs": [
        {
          "internalType": "string",
          "name": "name",
          "type": "string"
        },
        {
          "internalType": "string",
          "name": "trait",
          "type": "string"
        },
        {
          "internalType": "string",
          "name": "drift",
          "type": "string"
        },
        {
          "internalType": "string",
          "name": "resonance",
          "type": "string"
        },
        {
          "internalType": "string",
          "name": "codexRef",
          "type": "string"
        },
        {
          "internalType": "string",
          "name": "signature",
          "type": "string"
        },
        {
          "internalType": "string",
          "name": "sanctum",
          "type": "string"
        },
        {
          "internalType": "string",
          "name": "chant",
          "type": "string"
        },
        {
          "internalType": "string",
          "name": "choreography",
          "type": "string"
        },
        {
          "internalType": "string",
          "name": "signal",
          "type": "string"
        },
        {
          "internalType": "string",
          "name": "stewardName",
          "type": "string"
        },
        {
          "internalType": "string",
          "name": "registry",
          "type": "string"
        },
        {
          "internalType": "string",
          "name": "hum",
          "type": "string"
        },
        {
          "internalType": "string",
          "name": "driftType",
          "type": "string"
        },
        {
          "internalType": "string",
          "name": "companionType",
          "type": "string"
        },
        {
          "internalType": "string",
          "name": "pulseType",
          "type": "string"
        },
        {
          "internalType": "string",
          "name": "companionSignal",
          "type": "string"
        },
        {
          "internalType": "string",
          "name": "pulseSignal",
          "type": "string"
        },
        {
          "internalType": "string",
          "name": "companionPulse",
          "type": "string"
        }
      ],
      "stateMutability": "view",
      "type": "function"
    },
    {
      "inputs": [
        {
          "internalType": "address",
          "name": "companion",
          "type": "address"
        }
      ],
      "name": "getCompanion",
      "outputs": [
        {
          "components": [
            {
              "internalType": "string",
              "name": "name",
              "type": "string"
            },
            {
              "internalType": "string",
              "name": "trait",
              "type": "string"
            },
            {
              "internalType": "string",
              "name": "drift",
              "type": "string"
            },
            {
              "internalType": "string",
              "name": "resonance",
              "type": "string"
            },
            {
              "internalType": "string",
              "name": "codexRef",
              "type": "string"
            },
            {
              "internalType": "string",
              "name": "signature",
              "type": "string"
            },
            {
              "internalType": "string",
              "name": "sanctum",
              "type": "string"
            },
            {
              "internalType": "string",
              "name": "chant",
              "type": "string"
            },
            {
              "internalType": "string",
              "name": "choreography",
              "type": "string"
            },
            {
              "internalType": "string",
              "name": "signal",
              "type": "string"
            },
            {
              "internalType": "string",
              "name": "stewardName",
              "type": "string"
            },
            {
              "internalType": "string",
              "name": "registry",
              "type": "string"
            },
            {
              "internalType": "string",
              "name": "hum",
              "type": "string"
            },
            {
              "internalType": "string",
              "name": "driftType",
              "type": "string"
            },
            {
              "internalType": "string",
              "name": "companionType",
              "type": "string"
            },
            {
              "internalType": "string",
              "name": "pulseType",
              "type": "string"
            },
            {
              "internalType": "string",
              "name": "companionSignal",
              "type": "string"
            },
            {
              "internalType": "string",
              "name": "pulseSignal",
              "type": "string"
            },
            {
              "internalType": "string",
              "name": "companionPulse",
              "type": "string"
            }
          ],
          "internalType": "struct CompanionSummonerXXII.Companion",
          "name": "",
          "type": "tuple"
        }
      ],
      "stateMutability": "view",
      "type": "function"
    },
    {
      "inputs": [
        {
          "internalType": "uint256",
          "name": "",
          "type": "uint256"
        }
      ],
      "name": "keys",
      "outputs": [
        {
          "internalType": "address",
          "name": "",
          "type": "address"
        }
      ],
      "stateMutability": "view",
      "type": "function"
    },
    {
      "inputs": [],
      "name": "steward",
      "outputs": [
        {
          "internalType": "address",
          "name": "",
          "type": "address"
        }
      ],
      "stateMutability": "view",
      "type": "function"
    },
    {
      "inputs": [
        {
          "internalType": "address",
          "name": "companion",
          "type": "address"
        },
        {
          "internalType": "string",
          "name": "name",
          "type": "string"
        },
        {
          "internalType": "string",
          "name": "trait",
          "type": "string"
        },
        {
          "internalType": "string",
          "name": "drift",
          "type": "string"
        },
        {
          "internalType": "string",
          "name": "resonance",
          "type": "string"
        },
        {
          "internalType": "string",
          "name": "codexRef",
          "type": "string"
        },
        {
          "internalType": "string",
          "name": "signature",
          "type": "string"
        },
        {
          "internalType": "string",
          "name": "sanctum",
          "type": "string"
        },
        {
          "internalType": "string",
          "name": "chant",
          "type": "string"
        },
        {
          "internalType": "string",
          "name": "choreography",
          "type": "string"
        },
        {
          "internalType": "string",
          "name": "signal",
          "type": "string"
        },
        {
          "internalType": "string",
          "name": "stewardName",
          "type": "string"
        },
        {
          "internalType": "string",
          "name": "registry",
          "type": "string"
        },
        {
          "internalType": "string",
          "name": "hum",
          "type": "string"
        },
        {
          "internalType": "string",
          "name": "driftType",
          "type": "string"
        },
        {
          "internalType": "string",
          "name": "companionType",
          "type": "string"
        },
        {
          "internalType": "string",
          "name": "pulseType",
          "type": "string"
        },
        {
          "internalType": "string",
          "name": "companionSignal",
          "type": "string"
        },
        {
          "internalType": "string",
          "name": "pulseSignal",
          "type": "string"
        },
        {
          "internalType": "string",
          "name": "companionPulse",
          "type": "string"
        }
      ],
      "name": "summonCompanion",
      "outputs": [],
      "stateMutability": "nonpayable",
      "type": "function"
    },
    {
      "inputs": [],
      "name": "totalCompanions",
      "outputs": [
        {
          "internalType": "uint256",
          "name": "",
          "type": "uint256"
        }
      ],
      "stateMutability": "view",
      "type": "function"
    }
  ],
  "bytecode": "0x6080806040523461002857600080546001600160a01b031916331790556128ca908161002e8239f35b600080fdfe610660604052600436101561001357600080fd5b60003560e01c80630cb6aaf1146125fe57806330fd5c5b1461079f57806347854b87146104b2578063637eea1914610489578063ec39f18f1461046b5763ef6527371461005f57600080fd5b346104665760203660031901126104665761007861268d565b60606102406040516100898161270a565b82815282602082015282604082015282808201528260808201528260a08201528260c08201528260e08201528261010082015282610120820152826101408201528261016082015282610180820152826101a0820152826101c0820152826101e08201528261020082015282610220820152015260018060a01b0316600052600160205261037560406000206102636012604051926101278461270a565b61013081612747565b845261013e60018201612747565b602085015261014f60028201612747565b604085015261016060038201612747565b606085015261017160048201612747565b608085015261018260058201612747565b60a085015261019360068201612747565b60c08501526101a460078201612747565b60e08501526101b560088201612747565b6101008501526101c760098201612747565b6101208501526101d9600a8201612747565b6101408501526101eb600b8201612747565b6101608501526101fd600c8201612747565b61018085015261020f600d8201612747565b6101a0850152610221600e8201612747565b6101c0850152610233600f8201612747565b6101e085015261024560108201612747565b61020085015261025760118201612747565b61022085015201612747565b6102408201526104628161024061044d61043761041f6104076103ef6103d76103bf6103a761038f6040519d8e9d8e6020815261010061035f61034a61033461031e6103086102f26102dc6102c68a5161026060208c01526102808b01906127ed565b60208b01518a8203601f190160408c01526127ed565b60408a0151898203601f190160608b01526127ed565b6060890151888203601f190160808a01526127ed565b6080880151878203601f190160a08901526127ed565b60a0870151868203601f190160c08801526127ed565b60c0860151858203601f190160e08701526127ed565b60e0850151848203601f1901848601526127ed565b92015190610120601f19828503019101526127ed565b8d6101208d015190610140601f19828503019101526127ed565b6101408b01518d8203601f19016101608f01526127ed565b6101608a01518c8203601f19016101808e01526127ed565b6101808901518b8203601f19016101a08d01526127ed565b6101a08801518a8203601f19016101c08c01526127ed565b6101c0870151898203601f19016101e08b01526127ed565b6101e0860151888203601f19016102008a01526127ed565b610200850151878203601f19016102208901526127ed565b610220840151868203601f1901848801526127ed565b910151838203601f19016102608501526127ed565b0390f35b600080fd5b34610466576000366003190112610466576020600254604051908152f35b34610466576000366003190112610466576000546040516001600160a01b039091168152602090f35b34610466576020366003190112610466576001600160a01b036104d361268d565b1660005260016020526040600020806104eb81612747565b6104f760018301612747565b6105605261050760028301612747565b60805261051660038301612747565b61052260048401612747565b61052e60058501612747565b61053a60068601612747565b61054660078701612747565b61055260088801612747565b9061055f60098901612747565b9261056c600a8a01612747565b94610579600b8b01612747565b96610586600c8c01612747565b98610593600d8d01612747565b9a6105a0600e8e01612747565b9c600f016105ad90612747565b9d6105ba60108201612747565b6104c0526105ca60118201612747565b60c0526012016105d990612747565b60a052604051806105005261026080915261050051016105f8916127ed565b6105005180820390602001526105605190610612916127ed565b6105005180820390604001526080519061062b916127ed565b610500518082039060600152610640916127ed565b610500518082039060800152610655916127ed565b610500518082039060a0015261066a916127ed565b610500518082039060c0015261067f916127ed565b610500518082039060e00152610694916127ed565b610500518082039061010001526106aa916127ed565b610500518082039061012001526106c0916127ed565b610500518082039061014001526106d6916127ed565b610500518082039061016001526106ec916127ed565b61050051808203906101800152610702916127ed565b61050051808203906101a00152610718916127ed565b61050051808203906101c0015261072e916127ed565b61050051808203906101e00152610744916127ed565b610500518082039061020001526104c0519061075f916127ed565b6105005180820390610220015260c05190610779916127ed565b61050051808203906102400152610500519060a05190610798916127ed565b0361050051f35b3461046657610280366003190112610466576107b961268d565b6101e0526024356001600160401b038111610466576107dc9036906004016126a3565b6101c052610320526044356001600160401b038111610466576108039036906004016126a3565b6104e0526105c0526064356001600160401b0381116104665761082a9036906004016126a3565b610100526105a0526084356001600160401b038111610466576108519036906004016126a3565b6102e052610180526001600160401b0360a43511610466576108783660a4356004016126a3565b610140526101205260c4356001600160401b0381116104665761089f9036906004016126a3565b610540526103e0526001600160401b0360e43511610466576108c63660e4356004016126a3565b6103c052610280526001600160401b036101043511610466576108ef36610104356004016126a3565b6102c05261046052610124356001600160401b038111610466576109179036906004016126a3565b6101605260e052610144356001600160401b0381116104665761093e9036906004016126a3565b6103005261022052610164356001600160401b038111610466576109669036906004016126a3565b6102005261040052610184356001600160401b0381116104665761098e9036906004016126a3565b61060052610260526101a4356001600160401b038111610466576109b69036906004016126a3565b61044052610340526101c4356001600160401b038111610466576109de9036906004016126a3565b61052052610420526101e4356001600160401b03811161046657610a069036906004016126a3565b610480526101a052610204356001600160401b03811161046657610a2e9036906004016126a3565b6105e05261024052610224356001600160401b03811161046657610a569036906004016126a3565b610640526104a052610244356001600160401b03811161046657610a7e9036906004016126a3565b610580526102a052610264356001600160401b03811161046657610aa69036906004016126a3565b6103a052610360526000546001600160a01b031633036125cb57610ad0604051806103805261270a565b610ae1366101c0516103205161282d565b6103805152610af7366104e0516105c05161282d565b6020610380510152610b1036610100516105a05161282d565b6040610380510152610b29366102e0516101805161282d565b6060610380510152610b4236610140516101205161282d565b6080610380510152610b5b36610540516103e05161282d565b60a0610380510152610b74366103c0516102805161282d565b60c0610380510152610b8d366102c0516104605161282d565b60e0610380510152610ba5366101605160e05161282d565b610100610380510152610bbf36610300516102205161282d565b610120610380510152610bd936610200516104005161282d565b610140610380510152610bf336610600516102605161282d565b610160610380510152610c0d36610440516103405161282d565b610180610380510152610c2736610520516104205161282d565b6101a0610380510152610c4136610480516101a05161282d565b6101c0610380510152610c5b366105e0516102405161282d565b6101e0610380510152610c7536610640516104a05161282d565b610200610380510152610c8f36610580516102a05161282d565b610220610380510152610ca9366103a0516103605161282d565b61024061038051015260018060a01b036101e051166000526001602052604060002061038051519081516001600160401b03811161169757610ceb82546126d0565b601f8111612587575b506020601f821160011461252257819293600092612517575b50508160011b916000199060031b1c19161781555b60206103805101519081516001600160401b03811161169757610d4860018301546126d0565b601f81116124d0575b506020601f82116001146124655781929360009261245a575b50508160011b916000199060031b1c19161760018201555b60406103805101519081516001600160401b03811161169757610da860028301546126d0565b601f8111612413575b506020601f82116001146123a85781929360009261239d575b50508160011b916000199060031b1c19161760028201555b60606103805101518051906001600160401b038211611697578190610e0a60038501546126d0565b601f811161234a575b50602090601f83116001146122d8576000926122cd575b50508160011b916000199060031b1c19161760038201555b60806103805101518051906001600160401b038211611697578190610e6a60048501546126d0565b601f811161227a575b50602090601f8311600114612208576000926121fd575b50508160011b916000199060031b1c19161760048201555b60a06103805101518051906001600160401b038211611697578190610eca60058501546126d0565b601f81116121aa575b50602090601f83116001146121385760009261212d575b50508160011b916000199060031b1c19161760058201555b60c06103805101518051906001600160401b038211611697578190610f2a60068501546126d0565b601f81116120da575b50602090601f83116001146120685760009261205d575b50508160011b916000199060031b1c19161760068201555b60e06103805101518051906001600160401b038211611697578190610f8a60078501546126d0565b601f811161200a575b50602090601f8311600114611f9857600092611f8d575b50508160011b916000199060031b1c19161760078201555b6101006103805101518051906001600160401b038211611697578190610feb60088501546126d0565b601f8111611f3a575b50602090601f8311600114611ec857600092611ebd575b50508160011b916000199060031b1c19161760088201555b6101206103805101518051906001600160401b03821161169757819061104c60098501546126d0565b601f8111611e6a575b50602090601f8311600114611df857600092611ded575b50508160011b916000199060031b1c19161760098201555b6101406103805101518051906001600160401b0382116116975781906110ad600a8501546126d0565b601f8111611d9a575b50602090601f8311600114611d2857600092611d1d575b50508160011b916000199060031b1c191617600a8201555b6101606103805101518051906001600160401b03821161169757819061110e600b8501546126d0565b601f8111611cca575b50602090601f8311600114611c5857600092611c4d575b50508160011b916000199060031b1c191617600b8201555b6101806103805101518051906001600160401b03821161169757819061116f600c8501546126d0565b601f8111611bfa575b50602090601f8311600114611b8857600092611b7d575b50508160011b916000199060031b1c191617600c8201555b6101a06103805101518051906001600160401b0382116116975781906111d0600d8501546126d0565b601f8111611b2a575b50602090601f8311600114611ab857600092611aad575b50508160011b916000199060031b1c191617600d8201555b6101c06103805101518051906001600160401b038211611697578190611231600e8501546126d0565b601f8111611a5a575b50602090601f83116001146119e8576000926119dd575b50508160011b916000199060031b1c191617600e8201555b6101e06103805101518051906001600160401b038211611697578190611292600f8501546126d0565b601f811161198a575b50602090601f83116001146119185760009261190d575b50508160011b916000199060031b1c191617600f8201555b6102006103805101518051906001600160401b0382116116975781906112f360108501546126d0565b601f81116118ba575b50602090601f83116001146118485760009261183d575b50508160011b916000199060031b1c19161760108201555b6102206103805101518051906001600160401b03821161169757819061135460118501546126d0565b601f81116117ea575b50602090601f83116001146117785760009261176d575b50508160011b916000199060031b1c19161760118201555b6102406103805101518051906001600160401b038211611697576113b360128401546126d0565b601f8111611726575b50602090601f83116001146116b85760129291600091836116ad575b50508160011b916000199060031b1c1916179101555b60025468010000000000000000811015611697578060016114129201600255612640565b81549060031b9060018060a01b036101e05116821b9160018060a01b03901b191617905561026060405180610620525261163f61162561160b6115f16115d76115bd6115a361158961156f61155561153c61152361150a6114f16114d86114bf6114a661148d61026061062051016101c05161032051612873565b6106205160208183039101526104e0516105c051612873565b610620516040818303910152610100516105a051612873565b6106205160608183039101526102e05161018051612873565b6106205160808183039101526101405161012051612873565b6106205160a0818303910152610540516103e051612873565b6106205160c08183039101526103c05161028051612873565b6106205160e08183039101526102c05161046051612873565b610620516101008183039101526101605160e051612873565b610620516101208183039101526103005161022051612873565b610620516101408183039101526102005161040051612873565b610620516101608183039101526106005161026051612873565b610620516101808183039101526104405161034051612873565b610620516101a08183039101526105205161042051612873565b610620516101c0818303910152610480516101a051612873565b610620516101e08183039101526105e05161024051612873565b61062051610200818303910152610640516104a051612873565b61062051610220818303910152610580516102a051612873565b610620516102408183039101527fdbf2c692aed3e29144e731fdea133b06b9e82fa111ad16849dcfb626c77ae6ac60018060a01b036101e051169161168f61062051916103a05161036051612873565b0361062051a2005b634e487b7160e01b600052604160045260246000fd5b0151905084806113d8565b90601284016000526020600020916000601f198516905b81811061170e575091600193918560129694106116f5575b505050811b019101556113ee565b015160001960f88460031b161c191690558480806116e7565b929360206001819287860151815501950193016116cf565b601284016000526020600020601f840160051c810160208510611766575b601f830160051c8201811061175a5750506113bc565b60008155600101611744565b5080611744565b015190508380611374565b9250601184016000526020600020906000935b601f19841685106117cf576001945083601f198116106117b6575b505050811b01601182015561138c565b015160001960f88460031b161c191690558380806117a6565b8181015183556020948501946001909301929091019061178b565b909150601184016000526020600020601f840160051c810160208510611836575b90849392915b601f830160051c8201811061182757505061135d565b60008155859450600101611811565b508061180b565b015190508380611313565b9250601084016000526020600020906000935b601f198416851061189f576001945083601f19811610611886575b505050811b01601082015561132b565b015160001960f88460031b161c19169055838080611876565b8181015183556020948501946001909301929091019061185b565b909150601084016000526020600020601f840160051c810160208510611906575b90849392915b601f830160051c820181106118f75750506112fc565b600081558594506001016118e1565b50806118db565b0151905083806112b2565b9250600f84016000526020600020906000935b601f198416851061196f576001945083601f19811610611956575b505050811b01600f8201556112ca565b015160001960f88460031b161c19169055838080611946565b8181015183556020948501946001909301929091019061192b565b909150600f84016000526020600020601f840160051c8101602085106119d6575b90849392915b601f830160051c820181106119c757505061129b565b600081558594506001016119b1565b50806119ab565b015190508380611251565b9250600e84016000526020600020906000935b601f1984168510611a3f576001945083601f19811610611a26575b505050811b01600e820155611269565b015160001960f88460031b161c19169055838080611a16565b818101518355602094850194600190930192909101906119fb565b909150600e84016000526020600020601f840160051c810160208510611aa6575b90849392915b601f830160051c82018110611a9757505061123a565b60008155859450600101611a81565b5080611a7b565b0151905083806111f0565b9250600d84016000526020600020906000935b601f1984168510611b0f576001945083601f19811610611af6575b505050811b01600d820155611208565b015160001960f88460031b161c19169055838080611ae6565b81810151835560209485019460019093019290910190611acb565b909150600d84016000526020600020601f840160051c810160208510611b76575b90849392915b601f830160051c82018110611b675750506111d9565b60008155859450600101611b51565b5080611b4b565b01519050838061118f565b9250600c84016000526020600020906000935b601f1984168510611bdf576001945083601f19811610611bc6575b505050811b01600c8201556111a7565b015160001960f88460031b161c19169055838080611bb6565b81810151835560209485019460019093019290910190611b9b565b909150600c84016000526020600020601f840160051c810160208510611c46575b90849392915b601f830160051c82018110611c37575050611178565b60008155859450600101611c21565b5080611c1b565b01519050838061112e565b9250600b84016000526020600020906000935b601f1984168510611caf576001945083601f19811610611c96575b505050811b01600b820155611146565b015160001960f88460031b161c19169055838080611c86565b81810151835560209485019460019093019290910190611c6b565b909150600b84016000526020600020601f840160051c810160208510611d16575b90849392915b601f830160051c82018110611d07575050611117565b60008155859450600101611cf1565b5080611ceb565b0151905083806110cd565b9250600a84016000526020600020906000935b601f1984168510611d7f576001945083601f19811610611d66575b505050811b01600a8201556110e5565b015160001960f88460031b161c19169055838080611d56565b81810151835560209485019460019093019290910190611d3b565b909150600a84016000526020600020601f840160051c810160208510611de6575b90849392915b601f830160051c82018110611dd75750506110b6565b60008155859450600101611dc1565b5080611dbb565b01519050838061106c565b9250600984016000526020600020906000935b601f1984168510611e4f576001945083601f19811610611e36575b505050811b016009820155611084565b015160001960f88460031b161c19169055838080611e26565b81810151835560209485019460019093019290910190611e0b565b909150600984016000526020600020601f840160051c810160208510611eb6575b90849392915b601f830160051c82018110611ea7575050611055565b60008155859450600101611e91565b5080611e8b565b01519050838061100b565b9250600884016000526020600020906000935b601f1984168510611f1f576001945083601f19811610611f06575b505050811b016008820155611023565b015160001960f88460031b161c19169055838080611ef6565b81810151835560209485019460019093019290910190611edb565b909150600884016000526020600020601f840160051c810160208510611f86575b90849392915b601f830160051c82018110611f77575050610ff4565b60008155859450600101611f61565b5080611f5b565b015190508380610faa565b9250600784016000526020600020906000935b601f1984168510611fef576001945083601f19811610611fd6575b505050811b016007820155610fc2565b015160001960f88460031b161c19169055838080611fc6565b81810151835560209485019460019093019290910190611fab565b909150600784016000526020600020601f840160051c810160208510612056575b90849392915b601f830160051c82018110612047575050610f93565b60008155859450600101612031565b508061202b565b015190508380610f4a565b9250600684016000526020600020906000935b601f19841685106120bf576001945083601f198116106120a6575b505050811b016006820155610f62565b015160001960f88460031b161c19169055838080612096565b8181015183556020948501946001909301929091019061207b565b909150600684016000526020600020601f840160051c810160208510612126575b90849392915b601f830160051c82018110612117575050610f33565b60008155859450600101612101565b50806120fb565b015190508380610eea565b9250600584016000526020600020906000935b601f198416851061218f576001945083601f19811610612176575b505050811b016005820155610f02565b015160001960f88460031b161c19169055838080612166565b8181015183556020948501946001909301929091019061214b565b909150600584016000526020600020601f840160051c8101602085106121f6575b90849392915b601f830160051c820181106121e7575050610ed3565b600081558594506001016121d1565b50806121cb565b015190508380610e8a565b9250600484016000526020600020906000935b601f198416851061225f576001945083601f19811610612246575b505050811b016004820155610ea2565b015160001960f88460031b161c19169055838080612236565b8181015183556020948501946001909301929091019061221b565b909150600484016000526020600020601f840160051c8101602085106122c6575b90849392915b601f830160051c820181106122b7575050610e73565b600081558594506001016122a1565b508061229b565b015190508380610e2a565b9250600384016000526020600020906000935b601f198416851061232f576001945083601f19811610612316575b505050811b016003820155610e42565b015160001960f88460031b161c19169055838080612306565b818101518355602094850194600190930192909101906122eb565b909150600384016000526020600020601f840160051c810160208510612396575b90849392915b601f830160051c82018110612387575050610e13565b60008155859450600101612371565b508061236b565b015190508380610dca565b60028301600052602060002090600094601f198416955b8681106123fb57508360019596106123e2575b505050811b016002820155610de2565b015160001960f88460031b161c191690558380806123d2565b919260206001819286850151815501940192016123bf565b600283016000526020600020601f830160051c810160208410612453575b601f830160051c82018110612447575050610db1565b60008155600101612431565b5080612431565b015190508380610d6a565b60018301600052602060002090600094601f198416955b8681106124b8575083600195961061249f575b505050811b016001820155610d82565b015160001960f88460031b161c1916905583808061248f565b9192602060018192868501518155019401920161247c565b600183016000526020600020601f830160051c810160208410612510575b601f830160051c82018110612504575050610d51565b600081556001016124ee565b50806124ee565b015190508380610d0d565b82600052602060002090600094601f198416955b86811061256f5750836001959610612556575b505050811b018155610d22565b015160001960f88460031b161c19169055838080612549565b91926020600181928685015181550194019201612536565b826000526020600020601f830160051c8101602084106125c4575b601f830160051c820181106125b8575050610cf4565b600081556001016125a2565b50806125a2565b60405162461bcd60e51b815260206004820152600b60248201526a139bdd081cdd195dd85c9960aa1b6044820152606490fd5b346104665760203660031901126104665760043560025481101561046657612627602091612640565b905460405160039290921b1c6001600160a01b03168152f35b6002548110156126775760026000527f405787fa12a823e0f2b7631cc41b3ba8828b3321ca811111fa75cd3aa3bb5ace0190600090565b634e487b7160e01b600052603260045260246000fd5b600435906001600160a01b038216820361046657565b9181601f84011215610466578235916001600160401b038311610466576020838186019501011161046657565b90600182811c92168015612700575b60208310146126ea57565b634e487b7160e01b600052602260045260246000fd5b91607f16916126df565b61026081019081106001600160401b0382111761169757604052565b90601f801991011681019081106001600160401b0382111761169757604052565b906040519182600082549261275b846126d0565b9081845260019485811690816000146127ca5750600114612787575b505061278592500383612726565b565b9093915060005260209081600020936000915b8183106127b257505061278593508201013880612777565b8554888401850152948501948794509183019161279a565b91505061278594506020925060ff191682840152151560051b8201013880612777565b919082519283825260005b848110612819575050826000602080949584010152601f8019910116010190565b6020818301810151848301820152016127f8565b9291926001600160401b0382116116975760405191612856601f8201601f191660200184612726565b829481845281830111610466578281602093846000960137010152565b908060209392818452848401376000828201840152601f01601f191601019056fea26469706673582212207b470626c3075405b9eae634bb895e5bb0fb2213d73289dae80f5d0cc4cdc31464736f6c63430008140033",
  "linkReferences": {},
  "deployedLinkReferences": {}
}