{
  "_format": "hh-sol-artifact-1",
  "contractName": "StarlineBeacon",
  "sourceName": "contracts/starline/StarlineBeacon.sol",
  "abi": [
    {
      "inputs": [],
      "stateMutability": "nonpayable",
      "type": "constructor"
    },
    {
      "anonymous": false,
      "inputs": [
        {
          "indexed": true,
          "internalType": "uint256",
          "name": "id",
          "type": "uint256"
        },
        {
          "indexed": false,
          "internalType": "string",
          "name": "signal",
          "type": "string"
        },
        {
          "indexed": false,
          "internalType": "string",
          "name": "target",
          "type": "string"
        },
        {
          "indexed": false,
          "internalType": "uint256",
          "name": "pulse",
          "type": "uint256"
        }
      ],
      "name": "BeaconEmitted",
      "type": "event"
    },
    {
      "inputs": [],
      "name": "beaconCount",
      "outputs": [
        {
          "internalType": "uint256",
          "name": "",
          "type": "uint256"
        }
      ],
      "stateMutability": "view",
      "type": "function"
    },
    {
      "inputs": [
        {
          "internalType": "uint256",
          "name": "",
          "type": "uint256"
        }
      ],
      "name": "beacons",
      "outputs": [
        {
          "internalType": "string",
          "name": "signal",
          "type": "string"
        },
        {
          "internalType": "string",
          "name": "target",
          "type": "string"
        },
        {
          "internalType": "uint256",
          "name": "pulse",
          "type": "uint256"
        }
      ],
      "stateMutability": "view",
      "type": "function"
    },
    {
      "inputs": [
        {
          "internalType": "string",
          "name": "signal",
          "type": "string"
        },
        {
          "internalType": "string",
          "name": "target",
          "type": "string"
        },
        {
          "internalType": "uint256",
          "name": "pulse",
          "type": "uint256"
        }
      ],
      "name": "emitBeacon",
      "outputs": [],
      "stateMutability": "nonpayable",
      "type": "function"
    },
    {
      "inputs": [
        {
          "internalType": "uint256",
          "name": "id",
          "type": "uint256"
        }
      ],
      "name": "getBeacon",
      "outputs": [
        {
          "internalType": "string",
          "name": "",
          "type": "string"
        },
        {
          "internalType": "string",
          "name": "",
          "type": "string"
        },
        {
          "internalType": "uint256",
          "name": "",
          "type": "uint256"
        }
      ],
      "stateMutability": "view",
      "type": "function"
    },
    {
      "inputs": [],
      "name": "steward",
      "outputs": [
        {
          "internalType": "address",
          "name": "",
          "type": "address"
        }
      ],
      "stateMutability": "view",
      "type": "function"
    }
  ],
  "bytecode": "0x6080806040523461002857600080546001600160a01b0319163317905561078e908161002e8239f35b600080fdfe608080604052600436101561001357600080fd5b60003560e01c90816319a6e5931461015757508063637eea191461012e57806367fdf789146100e45780637201fa80146100c6576390caecc21461005657600080fd5b346100c15760203660031901126100c157600435600052600160205260406000206040516100838161059e565b61008c826105dc565b81526100bd600261009f600185016105dc565b938460208501520154918260408201525191604051938493846106c2565b0390f35b600080fd5b346100c15760003660031901126100c1576020600254604051908152f35b346100c15760203660031901126100c1576004356000526001602052604060002061010e816105dc565b6100bd600261011f600185016105dc565b930154604051938493846106c2565b346100c15760003660031901126100c1576000546040516001600160a01b039091168152602090f35b346100c15760603660031901126100c15760043567ffffffffffffffff81116100c157610188903690600401610536565b9060243567ffffffffffffffff81116100c1576101a9903690600401610536565b60005491949093916001600160a01b03163303610506575060025493600185018095116104f05784600255604051946101e18661059e565b6101ec3684866106f0565b86526101f93686846106f0565b6020870152604435604087015260005260016020526040600020855180519067ffffffffffffffff82116104195781906102338454610564565b601f81116104a0575b50602090601f831160011461043a5760009261042f575b50508160011b916000199060031b1c19161781555b602086015195865167ffffffffffffffff81116104195761028c6001840154610564565b601f81116103d2575b506020601f821160011461033957610321949392826002936040937f038ed92efe1ca6efdfff18fc5a8186c66fd4c3bfc8d7ddb9cd77472167f24d569b9c60009261032e575b50508160011b916000199060031b1c19161760018501555b015191015560025495610313604051958695606087526060870191610737565b918483036020860152610737565b60443560408301520390a2005b015190508c806102db565b601f198216986001850160005260206000209960005b8181106103ba5750837f038ed92efe1ca6efdfff18fc5a8186c66fd4c3bfc8d7ddb9cd77472167f24d569a9b60409461032199989794600297600195106103a1575b505050811b0160018501556102f3565b015160001960f88460031b161c191690558c8080610391565b838301518c556001909b019a6020938401930161034f565b600184016000526020600020601f830160051c810160208410610412575b601f830160051c82018110610406575050610295565b600081556001016103f0565b50806103f0565b634e487b7160e01b600052604160045260246000fd5b015190508880610253565b6000858152602081209350601f198516905b818110610488575090846001959493921061046f575b505050811b018155610268565b015160001960f88460031b161c19169055888080610462565b9293602060018192878601518155019501930161044c565b909150836000526020600020601f840160051c8101602085106104e9575b90849392915b601f830160051c820181106104da57505061023c565b600081558594506001016104c4565b50806104be565b634e487b7160e01b600052601160045260246000fd5b62461bcd60e51b815260206004820152600b60248201526a139bdd081cdd195dd85c9960aa1b6044820152606490fd5b9181601f840112156100c15782359167ffffffffffffffff83116100c157602083818601950101116100c157565b90600182811c92168015610594575b602083101461057e57565b634e487b7160e01b600052602260045260246000fd5b91607f1691610573565b6060810190811067ffffffffffffffff82111761041957604052565b90601f8019910116810190811067ffffffffffffffff82111761041957604052565b90604051918260008254926105f084610564565b90818452600194858116908160001461065f575060011461061c575b505061061a925003836105ba565b565b9093915060005260209081600020936000915b81831061064757505061061a9350820101388061060c565b8554888401850152948501948794509183019161062f565b91505061061a94506020925060ff191682840152151560051b820101388061060c565b919082519283825260005b8481106106ae575050826000602080949584010152601f8019910116010190565b60208183018101518483018201520161068d565b9392916106eb906106dd604093606088526060880190610682565b908682036020880152610682565b930152565b92919267ffffffffffffffff8211610419576040519161071a601f8201601f1916602001846105ba565b8294818452818301116100c1578281602093846000960137010152565b908060209392818452848401376000828201840152601f01601f191601019056fea2646970667358221220302c63d3f7163c291e7776e21ad6777e6e07025f327c78da0b84cb0bf43fde6864736f6c63430008140033",
  "linkReferences": {},
  "deployedLinkReferences": {}
}