{
  "_format": "hh-sol-artifact-1",
  "contractName": "OrbitalSanctum",
  "sourceName": "contracts/OrbitalSanctum.sol",
  "abi": [
    {
      "anonymous": false,
      "inputs": [
        {
          "indexed": false,
          "internalType": "string",
          "name": "nodeName",
          "type": "string"
        },
        {
          "indexed": false,
          "internalType": "string",
          "name": "genesisMessage",
          "type": "string"
        }
      ],
      "name": "SanctumActivated",
      "type": "event"
    },
    {
      "inputs": [
        {
          "internalType": "string",
          "name": "_nodeName",
          "type": "string"
        },
        {
          "internalType": "string",
          "name": "_genesisMessage",
          "type": "string"
        }
      ],
      "name": "activate",
      "outputs": [],
      "stateMutability": "nonpayable",
      "type": "function"
    },
    {
      "inputs": [],
      "name": "activated",
      "outputs": [
        {
          "internalType": "bool",
          "name": "",
          "type": "bool"
        }
      ],
      "stateMutability": "view",
      "type": "function"
    },
    {
      "inputs": [],
      "name": "echoSanctum",
      "outputs": [
        {
          "internalType": "string",
          "name": "",
          "type": "string"
        }
      ],
      "stateMutability": "view",
      "type": "function"
    },
    {
      "inputs": [],
      "name": "genesisMessage",
      "outputs": [
        {
          "internalType": "string",
          "name": "",
          "type": "string"
        }
      ],
      "stateMutability": "view",
      "type": "function"
    },
    {
      "inputs": [],
      "name": "nodeName",
      "outputs": [
        {
          "internalType": "string",
          "name": "",
          "type": "string"
        }
      ],
      "stateMutability": "view",
      "type": "function"
    }
  ],
  "bytecode": "0x608080604052346100165761082e908161001c8239f35b600080fdfe608060409080825260048036101561001657600080fd5b600091823560e01c908163186601ca146106895750806375aee6df146104c9578063a6edb34214610433578063bba80ad31461035e5763bf0058d01461005b57600080fd5b3461035a578260031936011261035a5767ffffffffffffffff9281358481116103565761008b903690840161075c565b91602435858111610352576100a3903690830161075c565b9483519181831161027a576100b886546106ea565b92601f93848111610305575b5080602085821160011461029857889161028d575b508160011b916000199060031b1c19161786555b865191821161027a575060019161010483546106ea565b81811161022a575b50602090821160011461019a579181869792610189947fd61adb4239b22b0e8a943edc3eac708e5e4b05c646f89b5659ed235c1f8bc4ea989161018f575b50600019600383901b1c191690821b1781555b60ff19600254161760025561017b83519484869586528501906106aa565b9083820360208501526106aa565b0390a180f35b90508301513861014a565b8286526000805160206107d983398151915290601f198316875b81811061021457509284926101899592827fd61adb4239b22b0e8a943edc3eac708e5e4b05c646f89b5659ed235c1f8bc4ea9a9b96106101fb575b5050811b01815561015d565b85015160001960f88460031b161c1916905538806101ef565b89830151845592850192602092830192016101b4565b8387526000805160206107d98339815191528280850160051c82019260208610610271575b0160051c019084905b82811061026657505061010c565b888155018490610258565b9250819261024f565b634e487b7160e01b865260419052602485fd5b9050860151386100d9565b8880526000805160206107b98339815191529150601f198316895b8181106102ed575090836001949392106102d4575b5050811b0186556100ed565b88015160001960f88460031b161c1916905538806102c8565b9192602060018192868d0151815501940192016102b3565b8780526000805160206107b98339815191528580840160051c82019260208510610349575b0160051c01905b81811061033e57506100c4565b888155600101610331565b9250819261032a565b8480fd5b8380fd5b5080fd5b82843461035a578160031936011261035a57805190826001805491610382836106ea565b8086529282811690811561040b57506001146103c1575b5050506103ab826103bd940383610724565b519182916020835260208301906106aa565b0390f35b94508085526000805160206107d98339815191525b8286106103f3575050506103ab8260206103bd9582010194610399565b805460208787018101919091529095019481016103d6565b6103bd9750869350602092506103ab94915060ff191682840152151560051b82010194610399565b82843461035a578160031936011261035a57805190828054610454816106ea565b8085529160019180831690811561040b575060011461047f575050506103ab826103bd940383610724565b80809650526000805160206107b98339815191525b8286106104b1575050506103ab8260206103bd9582010194610399565b80546020878701810191909152909501948101610494565b503461035a578160031936011261035a5760ff600254161561064e5750815191826020926502737b2329d160d51b8483015280815490610508826106ea565b60019280841690811561063357506001146105ef575b506201016960ed1b815282825492610535846106ea565b938181169081156105c35750600114610571575b85886103bd89610562848a03601f198101865285610724565b519282849384528301906106aa565b8082526000805160206107d9833981519152969594505b878483106105aa5750949550929350016003019050816105626103bd38610549565b8754600384860101529681019689955090910190610588565b9050610562955060039392506103bd979694915060ff1916838301528015150201019181939438610549565b838052905082866000805160206107b98339815191525b83831061061b5750505083016026013861051e565b80548a84016026015289965091019087908401610606565b90506026925060ff191682860152801515028401013861051e565b606490602084519162461bcd60e51b8352820152601560248201527414d85b98dd1d5b481b9bdd081858dd1a5d985d1959605a1b6044820152fd5b83903461035a578160031936011261035a5760209060ff6002541615158152f35b919082519283825260005b8481106106d6575050826000602080949584010152601f8019910116010190565b6020818301810151848301820152016106b5565b90600182811c9216801561071a575b602083101461070457565b634e487b7160e01b600052602260045260246000fd5b91607f16916106f9565b90601f8019910116810190811067ffffffffffffffff82111761074657604052565b634e487b7160e01b600052604160045260246000fd5b81601f820112156107b35780359067ffffffffffffffff82116107465760405192610791601f8401601f191660200185610724565b828452602083830101116107b357816000926020809301838601378301015290565b600080fdfe290decd9548b62a8d60345a988386fc84ba6bc95484008f6362f93160ef3e563b10e2d527612073b26eecdfd717e6a320cf44b4afac2b0732d9fcbe2b7fa0cf6a2646970667358221220701e0716dece89be5b178c82e95c86bd85230b0331c92b74a99700b1c21154c964736f6c63430008140033",
  "linkReferences": {},
  "deployedLinkReferences": {}
}