{
  "_format": "hh-sol-artifact-1",
  "contractName": "CompanionSummonerXVIII",
  "sourceName": "contracts/registry/CompanionSummonerXVIII.sol",
  "abi": [
    {
      "inputs": [],
      "stateMutability": "nonpayable",
      "type": "constructor"
    },
    {
      "anonymous": false,
      "inputs": [
        {
          "indexed": true,
          "internalType": "address",
          "name": "companion",
          "type": "address"
        },
        {
          "indexed": false,
          "internalType": "string",
          "name": "name",
          "type": "string"
        },
        {
          "indexed": false,
          "internalType": "string",
          "name": "trait",
          "type": "string"
        },
        {
          "indexed": false,
          "internalType": "string",
          "name": "drift",
          "type": "string"
        },
        {
          "indexed": false,
          "internalType": "string",
          "name": "resonance",
          "type": "string"
        },
        {
          "indexed": false,
          "internalType": "string",
          "name": "codexRef",
          "type": "string"
        },
        {
          "indexed": false,
          "internalType": "string",
          "name": "signature",
          "type": "string"
        },
        {
          "indexed": false,
          "internalType": "string",
          "name": "sanctum",
          "type": "string"
        },
        {
          "indexed": false,
          "internalType": "string",
          "name": "chant",
          "type": "string"
        },
        {
          "indexed": false,
          "internalType": "string",
          "name": "choreography",
          "type": "string"
        },
        {
          "indexed": false,
          "internalType": "string",
          "name": "signal",
          "type": "string"
        },
        {
          "indexed": false,
          "internalType": "string",
          "name": "stewardName",
          "type": "string"
        },
        {
          "indexed": false,
          "internalType": "string",
          "name": "registry",
          "type": "string"
        },
        {
          "indexed": false,
          "internalType": "string",
          "name": "hum",
          "type": "string"
        },
        {
          "indexed": false,
          "internalType": "string",
          "name": "driftType",
          "type": "string"
        },
        {
          "indexed": false,
          "internalType": "string",
          "name": "companionType",
          "type": "string"
        }
      ],
      "name": "CompanionSummoned",
      "type": "event"
    },
    {
      "inputs": [
        {
          "internalType": "address",
          "name": "",
          "type": "address"
        }
      ],
      "name": "companions",
      "outputs": [
        {
          "internalType": "string",
          "name": "name",
          "type": "string"
        },
        {
          "internalType": "string",
          "name": "trait",
          "type": "string"
        },
        {
          "internalType": "string",
          "name": "drift",
          "type": "string"
        },
        {
          "internalType": "string",
          "name": "resonance",
          "type": "string"
        },
        {
          "internalType": "string",
          "name": "codexRef",
          "type": "string"
        },
        {
          "internalType": "string",
          "name": "signature",
          "type": "string"
        },
        {
          "internalType": "string",
          "name": "sanctum",
          "type": "string"
        },
        {
          "internalType": "string",
          "name": "chant",
          "type": "string"
        },
        {
          "internalType": "string",
          "name": "choreography",
          "type": "string"
        },
        {
          "internalType": "string",
          "name": "signal",
          "type": "string"
        },
        {
          "internalType": "string",
          "name": "stewardName",
          "type": "string"
        },
        {
          "internalType": "string",
          "name": "registry",
          "type": "string"
        },
        {
          "internalType": "string",
          "name": "hum",
          "type": "string"
        },
        {
          "internalType": "string",
          "name": "driftType",
          "type": "string"
        },
        {
          "internalType": "string",
          "name": "companionType",
          "type": "string"
        }
      ],
      "stateMutability": "view",
      "type": "function"
    },
    {
      "inputs": [
        {
          "internalType": "address",
          "name": "companion",
          "type": "address"
        }
      ],
      "name": "getCompanion",
      "outputs": [
        {
          "components": [
            {
              "internalType": "string",
              "name": "name",
              "type": "string"
            },
            {
              "internalType": "string",
              "name": "trait",
              "type": "string"
            },
            {
              "internalType": "string",
              "name": "drift",
              "type": "string"
            },
            {
              "internalType": "string",
              "name": "resonance",
              "type": "string"
            },
            {
              "internalType": "string",
              "name": "codexRef",
              "type": "string"
            },
            {
              "internalType": "string",
              "name": "signature",
              "type": "string"
            },
            {
              "internalType": "string",
              "name": "sanctum",
              "type": "string"
            },
            {
              "internalType": "string",
              "name": "chant",
              "type": "string"
            },
            {
              "internalType": "string",
              "name": "choreography",
              "type": "string"
            },
            {
              "internalType": "string",
              "name": "signal",
              "type": "string"
            },
            {
              "internalType": "string",
              "name": "stewardName",
              "type": "string"
            },
            {
              "internalType": "string",
              "name": "registry",
              "type": "string"
            },
            {
              "internalType": "string",
              "name": "hum",
              "type": "string"
            },
            {
              "internalType": "string",
              "name": "driftType",
              "type": "string"
            },
            {
              "internalType": "string",
              "name": "companionType",
              "type": "string"
            }
          ],
          "internalType": "struct CompanionSummonerXVIII.Companion",
          "name": "",
          "type": "tuple"
        }
      ],
      "stateMutability": "view",
      "type": "function"
    },
    {
      "inputs": [
        {
          "internalType": "uint256",
          "name": "",
          "type": "uint256"
        }
      ],
      "name": "keys",
      "outputs": [
        {
          "internalType": "address",
          "name": "",
          "type": "address"
        }
      ],
      "stateMutability": "view",
      "type": "function"
    },
    {
      "inputs": [],
      "name": "steward",
      "outputs": [
        {
          "internalType": "address",
          "name": "",
          "type": "address"
        }
      ],
      "stateMutability": "view",
      "type": "function"
    },
    {
      "inputs": [
        {
          "internalType": "address",
          "name": "companion",
          "type": "address"
        },
        {
          "internalType": "string",
          "name": "name",
          "type": "string"
        },
        {
          "internalType": "string",
          "name": "trait",
          "type": "string"
        },
        {
          "internalType": "string",
          "name": "drift",
          "type": "string"
        },
        {
          "internalType": "string",
          "name": "resonance",
          "type": "string"
        },
        {
          "internalType": "string",
          "name": "codexRef",
          "type": "string"
        },
        {
          "internalType": "string",
          "name": "signature",
          "type": "string"
        },
        {
          "internalType": "string",
          "name": "sanctum",
          "type": "string"
        },
        {
          "internalType": "string",
          "name": "chant",
          "type": "string"
        },
        {
          "internalType": "string",
          "name": "choreography",
          "type": "string"
        },
        {
          "internalType": "string",
          "name": "signal",
          "type": "string"
        },
        {
          "internalType": "string",
          "name": "stewardName",
          "type": "string"
        },
        {
          "internalType": "string",
          "name": "registry",
          "type": "string"
        },
        {
          "internalType": "string",
          "name": "hum",
          "type": "string"
        },
        {
          "internalType": "string",
          "name": "driftType",
          "type": "string"
        },
        {
          "internalType": "string",
          "name": "companionType",
          "type": "string"
        }
      ],
      "name": "summonCompanion",
      "outputs": [],
      "stateMutability": "nonpayable",
      "type": "function"
    },
    {
      "inputs": [],
      "name": "totalCompanions",
      "outputs": [
        {
          "internalType": "uint256",
          "name": "",
          "type": "uint256"
        }
      ],
      "stateMutability": "view",
      "type": "function"
    }
  ],
  "bytecode": "0x6080806040523461002857600080546001600160a01b031916331790556120e4908161002e8239f35b600080fdfe6104a0604052600436101561001357600080fd5b60003560e01c80630cb6aaf114611e1857806345f0e3d2146105dc57806347854b87146103e3578063637eea19146103ba578063ec39f18f1461039c5763ef6527371461005f57600080fd5b3461039757602036600319011261039757610078611ea7565b60606101c060405161008981611f24565b82815282602082015282604082015282808201528260808201528260a08201528260c08201528260e08201528261010082015282610120820152826101408201528261016082015282610180820152826101a0820152015260018060a01b031660005260016020526102ab60406000206101ff600e6040519261010b84611f24565b61011481611f61565b845261012260018201611f61565b602085015261013360028201611f61565b604085015261014460038201611f61565b606085015261015560048201611f61565b608085015261016660058201611f61565b60a085015261017760068201611f61565b60c085015261018860078201611f61565b60e085015261019960088201611f61565b6101008501526101ab60098201611f61565b6101208501526101bd600a8201611f61565b6101408501526101cf600b8201611f61565b6101608501526101e1600c8201611f61565b6101808501526101f3600d8201611f61565b6101a085015201611f61565b6101c0820152610393816101c061037e6103686103506103386103206103086102f06102d96102c36040519d8e9d8e60208152608061029661028161026b61025586516101e06020880152610200870190612007565b6020870151868203601f19016040880152612007565b6040860151858203601f19016060870152612007565b6060850151848203601f190184860152612007565b9201519060a0601f1982850301910152612007565b8d60a08d01519060c0601f1982850301910152612007565b60c08b01518d8203601f190160e08f0152612007565b60e08a01518c8203601f19016101008e0152612007565b6101008901518b8203601f19016101208d0152612007565b6101208801518a8203601f19016101408c0152612007565b610140870151898203601f19016101608b0152612007565b610160860151888203601f19016101808a0152612007565b610180850151878203601f19016101a0890152612007565b6101a0840151868203601f190184880152612007565b910151838203601f19016101e0850152612007565b0390f35b600080fd5b34610397576000366003190112610397576020600254604051908152f35b34610397576000366003190112610397576000546040516001600160a01b039091168152602090f35b34610397576020366003190112610397576001600160a01b03610404611ea7565b166000526001602052604060002061041b81611f61565b9061042860018201611f61565b9061043560028201611f61565b9061044260038201611f61565b61044e60048301611f61565b61045a60058401611f61565b61046660068501611f61565b61047260078601611f61565b61047e60088701611f61565b9061048b60098801611f61565b92610498600a8901611f61565b946104a5600b8a01611f61565b966104b2600c8b01611f61565b986104bf600d8c01611f61565b9a600e016104cc90611f61565b9b6040519e8f9e8f916101e080845283016104e691612007565b82810360208401526104f791612007565b90808203906040015261050991612007565b8d810360608f015261051a91612007565b8c810360808e015261052b91612007565b8b810360a08d015261053c91612007565b8a810360c08c015261054d91612007565b89810360e08b015261055e91612007565b8881036101008a015261057091612007565b87810361012089015261058291612007565b86810361014088015261059491612007565b8581036101608701526105a691612007565b8481036101808601526105b891612007565b8381036101a08501526105ca91612007565b8281036101c084015261039391612007565b3461039757610200366003190112610397576105f6611ea7565b60a0526024356001600160401b03811161039757610618903690600401611ebd565b61038052610400526044356001600160401b0381116103975761063f903690600401611ebd565b61024052610480526064356001600160401b03811161039757610666903690600401611ebd565b6102a052610100526084356001600160401b0381116103975761068d903690600401611ebd565b608052610440526001600160401b0360a43511610397576106b33660a435600401611ebd565b6102c0526104605260c4356001600160401b038111610397576106da903690600401611ebd565b60c052610340526001600160401b0360e43511610397576107003660e435600401611ebd565b60e0526103e0526001600160401b036101043511610397576107283661010435600401611ebd565b6103a052610320526001600160401b036101243511610397576107513661012435600401611ebd565b610220526101a052610144356001600160401b03811161039757610779903690600401611ebd565b6101c05261018052610164356001600160401b038111610397576107a1903690600401611ebd565b6102605261042052610184356001600160401b038111610397576107c9903690600401611ebd565b61014052610280526101a4356001600160401b038111610397576107f1903690600401611ebd565b6101e052610160526101c4356001600160401b03811161039757610819903690600401611ebd565b61030052610360526101e4356001600160401b03811161039757610841903690600401611ebd565b61012052610200526000546001600160a01b03163303611de55761086b604051806102e052611f24565b61087c366103805161040051612047565b6102e05152610892366102405161048051612047565b60206102e05101526108ab366102a05161010051612047565b60406102e05101526108c33660805161044051612047565b60606102e05101526108dc366102c05161046051612047565b60806102e05101526108f43660c05161034051612047565b60a06102e051015261090c3660e0516103e051612047565b60c06102e0510152610925366103a05161032051612047565b60e06102e051015261093e36610220516101a051612047565b6101006102e0510152610958366101c05161018051612047565b6101206102e0510152610972366102605161042051612047565b6101406102e051015261098c366101405161028051612047565b6101606102e05101526109a6366101e05161016051612047565b6101806102e05101526109c0366103005161036051612047565b6101a06102e05101526109da366101205161020051612047565b6101c06102e051015260018060a01b0360a05116600052600160205260406000206102e051519081516001600160401b0381116111cb57610a1b8254611eea565b601f8111611da1575b506020601f8211600114611d3c57819293600092611d31575b50508160011b916000199060031b1c19161781555b60206102e05101518051906001600160401b0382116111cb578190610a7a6001850154611eea565b601f8111611cde575b50602090601f8311600114611c6c57600092611c61575b50508160011b916000199060031b1c19161760018201555b60406102e05101518051906001600160401b0382116111cb578190610ada6002850154611eea565b601f8111611c0e575b50602090601f8311600114611b9c57600092611b91575b50508160011b916000199060031b1c19161760028201555b60606102e05101518051906001600160401b0382116111cb578190610b3a6003850154611eea565b601f8111611b3e575b50602090601f8311600114611acc57600092611ac1575b50508160011b916000199060031b1c19161760038201555b60806102e05101518051906001600160401b0382116111cb578190610b9a6004850154611eea565b601f8111611a6e575b50602090601f83116001146119fc576000926119f1575b50508160011b916000199060031b1c19161760048201555b60a06102e05101518051906001600160401b0382116111cb578190610bfa6005850154611eea565b601f811161199e575b50602090601f831160011461192c57600092611921575b50508160011b916000199060031b1c19161760058201555b60c06102e05101518051906001600160401b0382116111cb578190610c5a6006850154611eea565b601f81116118ce575b50602090601f831160011461185c57600092611851575b50508160011b916000199060031b1c19161760068201555b60e06102e05101518051906001600160401b0382116111cb578190610cba6007850154611eea565b601f81116117fe575b50602090601f831160011461178c57600092611781575b50508160011b916000199060031b1c19161760078201555b6101006102e05101518051906001600160401b0382116111cb578190610d1b6008850154611eea565b601f811161172e575b50602090601f83116001146116bc576000926116b1575b50508160011b916000199060031b1c19161760088201555b6101206102e05101518051906001600160401b0382116111cb578190610d7c6009850154611eea565b601f811161165e575b50602090601f83116001146115ec576000926115e1575b50508160011b916000199060031b1c19161760098201555b6101406102e05101518051906001600160401b0382116111cb578190610ddd600a850154611eea565b601f811161158e575b50602090601f831160011461151c57600092611511575b50508160011b916000199060031b1c191617600a8201555b6101606102e05101518051906001600160401b0382116111cb578190610e3e600b850154611eea565b601f81116114be575b50602090601f831160011461144c57600092611441575b50508160011b916000199060031b1c191617600b8201555b6101806102e05101518051906001600160401b0382116111cb578190610e9f600c850154611eea565b601f81116113ee575b50602090601f831160011461137c57600092611371575b50508160011b916000199060031b1c191617600c8201555b6101a06102e05101518051906001600160401b0382116111cb578190610f00600d850154611eea565b601f811161131e575b50602090601f83116001146112ac576000926112a1575b50508160011b916000199060031b1c191617600d8201555b6101c06102e05101518051906001600160401b0382116111cb57610f5f600e840154611eea565b601f811161125a575b50602090601f83116001146111ec57600e9291600091836111e1575b50508160011b916000199060031b1c1916179101555b600254680100000000000000008110156111cb57806001610fbe9201600255611e5a565b81549060031b9060018060a01b0360a05116821b9160018060a01b03901b19161790556101e0604051806103c0525261117461115a61114061112661110c6110f26110d86110bf6110a761108f61107661105e61104561102c6101e06103c05101610380516104005161208d565b6103c0516020818303910152610240516104805161208d565b6103c05160408183039101526102a0516101005161208d565b6103c05160608183039101526080516104405161208d565b6103c05160808183039101526102c0516104605161208d565b6103c05160a081830391015260c0516103405161208d565b6103c05160c081830391015260e0516103e05161208d565b6103c05160e08183039101526103a0516103205161208d565b6103c051610100818303910152610220516101a05161208d565b6103c0516101208183039101526101c0516101805161208d565b6103c051610140818303910152610260516104205161208d565b6103c051610160818303910152610140516102805161208d565b6103c0516101808183039101526101e0516101605161208d565b6103c0516101a0818303910152610300516103605161208d565b6103c0516101c08183039101527f662fc05ebe5ba4b780fc72b590d59dca821253305bb33ba26a13813d249c522760018060a01b0360a05116916111c36103c05191610120516102005161208d565b036103c051a2005b634e487b7160e01b600052604160045260246000fd5b015190508480610f84565b90600e84016000526020600020916000601f198516905b8181106112425750916001939185600e969410611229575b505050811b01910155610f9a565b015160001960f88460031b161c1916905584808061121b565b92936020600181928786015181550195019301611203565b600e84016000526020600020601f840160051c81016020851061129a575b601f830160051c8201811061128e575050610f68565b60008155600101611278565b5080611278565b015190508380610f20565b9250600d84016000526020600020906000935b601f1984168510611303576001945083601f198116106112ea575b505050811b01600d820155610f38565b015160001960f88460031b161c191690558380806112da565b818101518355602094850194600190930192909101906112bf565b909150600d84016000526020600020601f840160051c81016020851061136a575b90849392915b601f830160051c8201811061135b575050610f09565b60008155859450600101611345565b508061133f565b015190508380610ebf565b9250600c84016000526020600020906000935b601f19841685106113d3576001945083601f198116106113ba575b505050811b01600c820155610ed7565b015160001960f88460031b161c191690558380806113aa565b8181015183556020948501946001909301929091019061138f565b909150600c84016000526020600020601f840160051c81016020851061143a575b90849392915b601f830160051c8201811061142b575050610ea8565b60008155859450600101611415565b508061140f565b015190508380610e5e565b9250600b84016000526020600020906000935b601f19841685106114a3576001945083601f1981161061148a575b505050811b01600b820155610e76565b015160001960f88460031b161c1916905583808061147a565b8181015183556020948501946001909301929091019061145f565b909150600b84016000526020600020601f840160051c81016020851061150a575b90849392915b601f830160051c820181106114fb575050610e47565b600081558594506001016114e5565b50806114df565b015190508380610dfd565b9250600a84016000526020600020906000935b601f1984168510611573576001945083601f1981161061155a575b505050811b01600a820155610e15565b015160001960f88460031b161c1916905583808061154a565b8181015183556020948501946001909301929091019061152f565b909150600a84016000526020600020601f840160051c8101602085106115da575b90849392915b601f830160051c820181106115cb575050610de6565b600081558594506001016115b5565b50806115af565b015190508380610d9c565b9250600984016000526020600020906000935b601f1984168510611643576001945083601f1981161061162a575b505050811b016009820155610db4565b015160001960f88460031b161c1916905583808061161a565b818101518355602094850194600190930192909101906115ff565b909150600984016000526020600020601f840160051c8101602085106116aa575b90849392915b601f830160051c8201811061169b575050610d85565b60008155859450600101611685565b508061167f565b015190508380610d3b565b9250600884016000526020600020906000935b601f1984168510611713576001945083601f198116106116fa575b505050811b016008820155610d53565b015160001960f88460031b161c191690558380806116ea565b818101518355602094850194600190930192909101906116cf565b909150600884016000526020600020601f840160051c81016020851061177a575b90849392915b601f830160051c8201811061176b575050610d24565b60008155859450600101611755565b508061174f565b015190508380610cda565b9250600784016000526020600020906000935b601f19841685106117e3576001945083601f198116106117ca575b505050811b016007820155610cf2565b015160001960f88460031b161c191690558380806117ba565b8181015183556020948501946001909301929091019061179f565b909150600784016000526020600020601f840160051c81016020851061184a575b90849392915b601f830160051c8201811061183b575050610cc3565b60008155859450600101611825565b508061181f565b015190508380610c7a565b9250600684016000526020600020906000935b601f19841685106118b3576001945083601f1981161061189a575b505050811b016006820155610c92565b015160001960f88460031b161c1916905583808061188a565b8181015183556020948501946001909301929091019061186f565b909150600684016000526020600020601f840160051c81016020851061191a575b90849392915b601f830160051c8201811061190b575050610c63565b600081558594506001016118f5565b50806118ef565b015190508380610c1a565b9250600584016000526020600020906000935b601f1984168510611983576001945083601f1981161061196a575b505050811b016005820155610c32565b015160001960f88460031b161c1916905583808061195a565b8181015183556020948501946001909301929091019061193f565b909150600584016000526020600020601f840160051c8101602085106119ea575b90849392915b601f830160051c820181106119db575050610c03565b600081558594506001016119c5565b50806119bf565b015190508380610bba565b9250600484016000526020600020906000935b601f1984168510611a53576001945083601f19811610611a3a575b505050811b016004820155610bd2565b015160001960f88460031b161c19169055838080611a2a565b81810151835560209485019460019093019290910190611a0f565b909150600484016000526020600020601f840160051c810160208510611aba575b90849392915b601f830160051c82018110611aab575050610ba3565b60008155859450600101611a95565b5080611a8f565b015190508380610b5a565b9250600384016000526020600020906000935b601f1984168510611b23576001945083601f19811610611b0a575b505050811b016003820155610b72565b015160001960f88460031b161c19169055838080611afa565b81810151835560209485019460019093019290910190611adf565b909150600384016000526020600020601f840160051c810160208510611b8a575b90849392915b601f830160051c82018110611b7b575050610b43565b60008155859450600101611b65565b5080611b5f565b015190508380610afa565b9250600284016000526020600020906000935b601f1984168510611bf3576001945083601f19811610611bda575b505050811b016002820155610b12565b015160001960f88460031b161c19169055838080611bca565b81810151835560209485019460019093019290910190611baf565b909150600284016000526020600020601f840160051c810160208510611c5a575b90849392915b601f830160051c82018110611c4b575050610ae3565b60008155859450600101611c35565b5080611c2f565b015190508380610a9a565b9250600184016000526020600020906000935b601f1984168510611cc3576001945083601f19811610611caa575b505050811b016001820155610ab2565b015160001960f88460031b161c19169055838080611c9a565b81810151835560209485019460019093019290910190611c7f565b909150600184016000526020600020601f840160051c810160208510611d2a575b90849392915b601f830160051c82018110611d1b575050610a83565b60008155859450600101611d05565b5080611cff565b015190508380610a3d565b82600052602060002090600094601f198416955b868110611d895750836001959610611d70575b505050811b018155610a52565b015160001960f88460031b161c19169055838080611d63565b91926020600181928685015181550194019201611d50565b826000526020600020601f830160051c810160208410611dde575b601f830160051c82018110611dd2575050610a24565b60008155600101611dbc565b5080611dbc565b60405162461bcd60e51b815260206004820152600b60248201526a139bdd081cdd195dd85c9960aa1b6044820152606490fd5b346103975760203660031901126103975760043560025481101561039757611e41602091611e5a565b905460405160039290921b1c6001600160a01b03168152f35b600254811015611e915760026000527f405787fa12a823e0f2b7631cc41b3ba8828b3321ca811111fa75cd3aa3bb5ace0190600090565b634e487b7160e01b600052603260045260246000fd5b600435906001600160a01b038216820361039757565b9181601f84011215610397578235916001600160401b038311610397576020838186019501011161039757565b90600182811c92168015611f1a575b6020831014611f0457565b634e487b7160e01b600052602260045260246000fd5b91607f1691611ef9565b6101e081019081106001600160401b038211176111cb57604052565b90601f801991011681019081106001600160401b038211176111cb57604052565b9060405191826000825492611f7584611eea565b908184526001948581169081600014611fe45750600114611fa1575b5050611f9f92500383611f40565b565b9093915060005260209081600020936000915b818310611fcc575050611f9f93508201013880611f91565b85548884018501529485019487945091830191611fb4565b915050611f9f94506020925060ff191682840152151560051b8201013880611f91565b919082519283825260005b848110612033575050826000602080949584010152601f8019910116010190565b602081830181015184830182015201612012565b9291926001600160401b0382116111cb5760405191612070601f8201601f191660200184611f40565b829481845281830111610397578281602093846000960137010152565b908060209392818452848401376000828201840152601f01601f191601019056fea2646970667358221220e543db84114c3a59679b85a9bf778db5dcecf066f93d9d7c409964698fa36ec664736f6c63430008140033",
  "linkReferences": {},
  "deployedLinkReferences": {}
}