{
  "_format": "hh-sol-artifact-1",
  "contractName": "SkyCorridor",
  "sourceName": "contracts/skycity/SkyCorridor.sol",
  "abi": [
    {
      "inputs": [],
      "stateMutability": "nonpayable",
      "type": "constructor"
    },
    {
      "anonymous": false,
      "inputs": [
        {
          "indexed": false,
          "internalType": "string",
          "name": "city",
          "type": "string"
        },
        {
          "indexed": false,
          "internalType": "string",
          "name": "constellation",
          "type": "string"
        },
        {
          "indexed": false,
          "internalType": "uint256",
          "name": "altitude",
          "type": "uint256"
        }
      ],
      "name": "CorridorBound",
      "type": "event"
    },
    {
      "inputs": [
        {
          "internalType": "string",
          "name": "city",
          "type": "string"
        },
        {
          "internalType": "string",
          "name": "constellation",
          "type": "string"
        },
        {
          "internalType": "uint256",
          "name": "altitude",
          "type": "uint256"
        }
      ],
      "name": "bindCorridor",
      "outputs": [],
      "stateMutability": "nonpayable",
      "type": "function"
    },
    {
      "inputs": [
        {
          "internalType": "uint256",
          "name": "",
          "type": "uint256"
        }
      ],
      "name": "corridorKeys",
      "outputs": [
        {
          "internalType": "string",
          "name": "",
          "type": "string"
        }
      ],
      "stateMutability": "view",
      "type": "function"
    },
    {
      "inputs": [
        {
          "internalType": "string",
          "name": "",
          "type": "string"
        }
      ],
      "name": "corridors",
      "outputs": [
        {
          "internalType": "string",
          "name": "city",
          "type": "string"
        },
        {
          "internalType": "string",
          "name": "constellation",
          "type": "string"
        },
        {
          "internalType": "uint256",
          "name": "altitude",
          "type": "uint256"
        }
      ],
      "stateMutability": "view",
      "type": "function"
    },
    {
      "inputs": [
        {
          "internalType": "string",
          "name": "city",
          "type": "string"
        }
      ],
      "name": "getCorridor",
      "outputs": [
        {
          "internalType": "string",
          "name": "",
          "type": "string"
        },
        {
          "internalType": "string",
          "name": "",
          "type": "string"
        },
        {
          "internalType": "uint256",
          "name": "",
          "type": "uint256"
        }
      ],
      "stateMutability": "view",
      "type": "function"
    },
    {
      "inputs": [],
      "name": "steward",
      "outputs": [
        {
          "internalType": "address",
          "name": "",
          "type": "address"
        }
      ],
      "stateMutability": "view",
      "type": "function"
    },
    {
      "inputs": [],
      "name": "totalCorridors",
      "outputs": [
        {
          "internalType": "uint256",
          "name": "",
          "type": "uint256"
        }
      ],
      "stateMutability": "view",
      "type": "function"
    }
  ],
  "bytecode": "0x6080806040523461002857600080546001600160a01b03191633179055610989908161002e8239f35b600080fdfe6080604052600436101561001257600080fd5b60003560e01c806317687843146105e5578063398a0c87146105845780634f0e6c36146104f2578063637eea19146104c95780636a2f7884146104ab5763b7ffdb1b1461005e57600080fd5b346104a65760603660031901126104a65760043567ffffffffffffffff81116104a65761008f9036906004016108b0565b90602491823567ffffffffffffffff81116104a6576100b29036906004016108b0565b600054919490916001600160a01b03163303610474576040516100d481610672565b6100df3685876106c6565b81526100ec3684886106c6565b6020820152604435604082015260405184868237602081868101600181520301902090805180519067ffffffffffffffff82116103ee578190610139826101338754610730565b876108de565b602090601f831160011461040e57600092610403575b50508160011b916000199060031b1c19161782555b6020810151805167ffffffffffffffff81116103ee5760018401916101938261018d8554610730565b856108de565b602090601f83116001146103805791806040949260029694600092610375575b50508160011b916000199060031b1c19161790555b015191015560025468010000000000000000811015610360578060016101f19201600255610863565b91909161034c5767ffffffffffffffff8411610338575061021c836102168354610730565b836108de565b6000601f84116001146102ab57917f3c08557f1db29acb27d6fea3738d76f1653bd89daceac1efdd78818773066603959184610293946000916102a0575b508560011b906000198760031b1c19161790555b610285604051958695606087526060870191610932565b918483036020860152610932565b60443560408301520390a1005b90508601353861025a565b601f198416908260005260206000209160005b8181106103205750917f3c08557f1db29acb27d6fea3738d76f1653bd89daceac1efdd7881877306660397939186610293969410610306575b5050600185811b01905561026e565b870135600019600388901b60f8161c1916905538806102f7565b9192602060018192868b0135815501940192016102be565b634e487b7160e01b60009081526041600452fd5b634e487b7160e01b60005260006004526000fd5b50634e487b7160e01b60009081526041600452fd5b0151905038806101b3565b90601f198316918460005260206000209260005b8181106103d657509260019285926002989660409896106103bd575b505050811b0190556101c8565b015160001960f88460031b161c191690553880806103b0565b92936020600181928786015181550195019301610394565b84634e487b7160e01b60005260416004526000fd5b01519050388061014f565b6000868152602081209350601f198516905b81811061045c5750908460019594939210610443575b505050811b018255610164565b015160001960f88460031b161c19169055388080610436565b92936020600181928786015181550195019301610420565b606490600b6040519162461bcd60e51b8352602060048401528201526a139bdd081cdd195dd85c9960aa1b6044820152fd5b600080fd5b346104a65760003660031901126104a6576020600254604051908152f35b346104a65760003660031901126104a6576000546040516001600160a01b039091168152602090f35b346104a65760203660031901126104a65760043567ffffffffffffffff81116104a65761052560209136906004016108b0565b91908260405193849283378101600181520301902060405161054681610672565b61054f8261076a565b815261058060026105626001850161076a565b93846020850152015491826040820152519160405193849384610835565b0390f35b346104a65760203660031901126104a6576004356002548110156104a6576105ab90610863565b6105cf576105bb6105809161076a565b604051918291602083526020830190610810565b634e487b7160e01b600052600060045260246000fd5b346104a65760203660031901126104a65760043567ffffffffffffffff81116104a657366023820112156104a657602061062c61063f9236906024816004013591016106c6565b816040519382858094519384920161070d565b810160018152030190206106528161076a565b61058060026106636001850161076a565b93015460405193849384610835565b6060810190811067ffffffffffffffff82111761068e57604052565b634e487b7160e01b600052604160045260246000fd5b90601f8019910116810190811067ffffffffffffffff82111761068e57604052565b92919267ffffffffffffffff821161068e57604051916106f0601f8201601f1916602001846106a4565b8294818452818301116104a6578281602093846000960137010152565b60005b8381106107205750506000910152565b8181015183820152602001610710565b90600182811c92168015610760575b602083101461074a57565b634e487b7160e01b600052602260045260246000fd5b91607f169161073f565b906040519182600082549261077e84610730565b9081845260019485811690816000146107ed57506001146107aa575b50506107a8925003836106a4565b565b9093915060005260209081600020936000915b8183106107d55750506107a89350820101388061079a565b855488840185015294850194879450918301916107bd565b9150506107a894506020925060ff191682840152151560051b820101388061079a565b906020916108298151809281855285808601910161070d565b601f01601f1916010190565b93929161085e90610850604093606088526060880190610810565b908682036020880152610810565b930152565b60025481101561089a5760026000527f405787fa12a823e0f2b7631cc41b3ba8828b3321ca811111fa75cd3aa3bb5ace0190600090565b634e487b7160e01b600052603260045260246000fd5b9181601f840112156104a65782359167ffffffffffffffff83116104a657602083818601950101116104a657565b90601f81116108ec57505050565b600091825260208220906020601f850160051c83019410610928575b601f0160051c01915b82811061091d57505050565b818155600101610911565b9092508290610908565b908060209392818452848401376000828201840152601f01601f191601019056fea264697066735822122097b83eb72c592b813d307b676cbdcbd62d1c8a7a3e6e639b0ec8253dad0e9f7764736f6c63430008140033",
  "linkReferences": {},
  "deployedLinkReferences": {}
}