{
  "_format": "hh-sol-artifact-1",
  "contractName": "ApprenticeSummonerXX",
  "sourceName": "contracts/registry/ApprenticeSummonerXX.sol",
  "abi": [
    {
      "inputs": [],
      "stateMutability": "nonpayable",
      "type": "constructor"
    },
    {
      "anonymous": false,
      "inputs": [
        {
          "indexed": true,
          "internalType": "address",
          "name": "apprentice",
          "type": "address"
        },
        {
          "indexed": false,
          "internalType": "string",
          "name": "name",
          "type": "string"
        },
        {
          "indexed": false,
          "internalType": "string",
          "name": "signal",
          "type": "string"
        },
        {
          "indexed": false,
          "internalType": "string",
          "name": "drift",
          "type": "string"
        },
        {
          "indexed": false,
          "internalType": "string",
          "name": "pulse",
          "type": "string"
        },
        {
          "indexed": false,
          "internalType": "string",
          "name": "codexRef",
          "type": "string"
        },
        {
          "indexed": false,
          "internalType": "string",
          "name": "resonance",
          "type": "string"
        },
        {
          "indexed": false,
          "internalType": "string",
          "name": "signature",
          "type": "string"
        },
        {
          "indexed": false,
          "internalType": "string",
          "name": "sanctum",
          "type": "string"
        },
        {
          "indexed": false,
          "internalType": "string",
          "name": "chant",
          "type": "string"
        },
        {
          "indexed": false,
          "internalType": "string",
          "name": "choreography",
          "type": "string"
        },
        {
          "indexed": false,
          "internalType": "string",
          "name": "stewardName",
          "type": "string"
        },
        {
          "indexed": false,
          "internalType": "string",
          "name": "echo",
          "type": "string"
        },
        {
          "indexed": false,
          "internalType": "string",
          "name": "choreographyType",
          "type": "string"
        },
        {
          "indexed": false,
          "internalType": "string",
          "name": "signalType",
          "type": "string"
        },
        {
          "indexed": false,
          "internalType": "string",
          "name": "stewardSignal",
          "type": "string"
        },
        {
          "indexed": false,
          "internalType": "string",
          "name": "signalChoreography",
          "type": "string"
        },
        {
          "indexed": false,
          "internalType": "string",
          "name": "driftSignal",
          "type": "string"
        }
      ],
      "name": "ApprenticeSummoned",
      "type": "event"
    },
    {
      "inputs": [
        {
          "internalType": "uint256",
          "name": "",
          "type": "uint256"
        }
      ],
      "name": "apprentices",
      "outputs": [
        {
          "internalType": "address",
          "name": "",
          "type": "address"
        }
      ],
      "stateMutability": "view",
      "type": "function"
    },
    {
      "inputs": [
        {
          "internalType": "address",
          "name": "apprentice",
          "type": "address"
        }
      ],
      "name": "getSummons",
      "outputs": [
        {
          "components": [
            {
              "internalType": "string",
              "name": "name",
              "type": "string"
            },
            {
              "internalType": "string",
              "name": "signal",
              "type": "string"
            },
            {
              "internalType": "string",
              "name": "drift",
              "type": "string"
            },
            {
              "internalType": "string",
              "name": "pulse",
              "type": "string"
            },
            {
              "internalType": "string",
              "name": "codexRef",
              "type": "string"
            },
            {
              "internalType": "string",
              "name": "resonance",
              "type": "string"
            },
            {
              "internalType": "string",
              "name": "signature",
              "type": "string"
            },
            {
              "internalType": "string",
              "name": "sanctum",
              "type": "string"
            },
            {
              "internalType": "string",
              "name": "chant",
              "type": "string"
            },
            {
              "internalType": "string",
              "name": "choreography",
              "type": "string"
            },
            {
              "internalType": "string",
              "name": "stewardName",
              "type": "string"
            },
            {
              "internalType": "string",
              "name": "echo",
              "type": "string"
            },
            {
              "internalType": "string",
              "name": "choreographyType",
              "type": "string"
            },
            {
              "internalType": "string",
              "name": "signalType",
              "type": "string"
            },
            {
              "internalType": "string",
              "name": "stewardSignal",
              "type": "string"
            },
            {
              "internalType": "string",
              "name": "signalChoreography",
              "type": "string"
            },
            {
              "internalType": "string",
              "name": "driftSignal",
              "type": "string"
            }
          ],
          "internalType": "struct ApprenticeSummonerXX.Summons",
          "name": "",
          "type": "tuple"
        }
      ],
      "stateMutability": "view",
      "type": "function"
    },
    {
      "inputs": [],
      "name": "steward",
      "outputs": [
        {
          "internalType": "address",
          "name": "",
          "type": "address"
        }
      ],
      "stateMutability": "view",
      "type": "function"
    },
    {
      "inputs": [
        {
          "internalType": "address",
          "name": "apprentice",
          "type": "address"
        },
        {
          "internalType": "string",
          "name": "name",
          "type": "string"
        },
        {
          "internalType": "string",
          "name": "signal",
          "type": "string"
        },
        {
          "internalType": "string",
          "name": "drift",
          "type": "string"
        },
        {
          "internalType": "string",
          "name": "pulse",
          "type": "string"
        },
        {
          "internalType": "string",
          "name": "codexRef",
          "type": "string"
        },
        {
          "internalType": "string",
          "name": "resonance",
          "type": "string"
        },
        {
          "internalType": "string",
          "name": "signature",
          "type": "string"
        },
        {
          "internalType": "string",
          "name": "sanctum",
          "type": "string"
        },
        {
          "internalType": "string",
          "name": "chant",
          "type": "string"
        },
        {
          "internalType": "string",
          "name": "choreography",
          "type": "string"
        },
        {
          "internalType": "string",
          "name": "stewardName",
          "type": "string"
        },
        {
          "internalType": "string",
          "name": "echo",
          "type": "string"
        },
        {
          "internalType": "string",
          "name": "choreographyType",
          "type": "string"
        },
        {
          "internalType": "string",
          "name": "signalType",
          "type": "string"
        },
        {
          "internalType": "string",
          "name": "stewardSignal",
          "type": "string"
        },
        {
          "internalType": "string",
          "name": "signalChoreography",
          "type": "string"
        },
        {
          "internalType": "string",
          "name": "driftSignal",
          "type": "string"
        }
      ],
      "name": "summonApprentice",
      "outputs": [],
      "stateMutability": "nonpayable",
      "type": "function"
    },
    {
      "inputs": [
        {
          "internalType": "address",
          "name": "",
          "type": "address"
        }
      ],
      "name": "summons",
      "outputs": [
        {
          "internalType": "string",
          "name": "name",
          "type": "string"
        },
        {
          "internalType": "string",
          "name": "signal",
          "type": "string"
        },
        {
          "internalType": "string",
          "name": "drift",
          "type": "string"
        },
        {
          "internalType": "string",
          "name": "pulse",
          "type": "string"
        },
        {
          "internalType": "string",
          "name": "codexRef",
          "type": "string"
        },
        {
          "internalType": "string",
          "name": "resonance",
          "type": "string"
        },
        {
          "internalType": "string",
          "name": "signature",
          "type": "string"
        },
        {
          "internalType": "string",
          "name": "sanctum",
          "type": "string"
        },
        {
          "internalType": "string",
          "name": "chant",
          "type": "string"
        },
        {
          "internalType": "string",
          "name": "choreography",
          "type": "string"
        },
        {
          "internalType": "string",
          "name": "stewardName",
          "type": "string"
        },
        {
          "internalType": "string",
          "name": "echo",
          "type": "string"
        },
        {
          "internalType": "string",
          "name": "choreographyType",
          "type": "string"
        },
        {
          "internalType": "string",
          "name": "signalType",
          "type": "string"
        },
        {
          "internalType": "string",
          "name": "stewardSignal",
          "type": "string"
        },
        {
          "internalType": "string",
          "name": "signalChoreography",
          "type": "string"
        },
        {
          "internalType": "string",
          "name": "driftSignal",
          "type": "string"
        }
      ],
      "stateMutability": "view",
      "type": "function"
    },
    {
      "inputs": [],
      "name": "totalSummons",
      "outputs": [
        {
          "internalType": "uint256",
          "name": "",
          "type": "uint256"
        }
      ],
      "stateMutability": "view",
      "type": "function"
    }
  ],
  "bytecode": "0x6080806040523461002857600080546001600160a01b0319163317905561251e908161002e8239f35b600080fdfe6105a0604052600436101561001357600080fd5b60003560e01c80632312fed41461072a5780632a17d4cd1461070c5780635a2ed6621461046f578063637eea1914610446578063cf84c603146100a65763f31bee3e1461005f57600080fd5b346100a15760203660031901126100a1576004356002548110156100a157610088602091612434565b905460405160039290921b1c6001600160a01b03168152f35b600080fd5b346100a15760203660031901126100a1576100bf612294565b60606102006040516100d081612311565b82815282602082015282604082015282808201528260808201528260a08201528260c08201528260e08201528261010082015282610120820152826101408201528261016082015282610180820152826101a0820152826101c0820152826101e0820152015260018060a01b03166000526001602052610356604060002061027860106040519261016084612311565b6101698161234e565b84526101776001820161234e565b60208501526101886002820161234e565b60408501526101996003820161234e565b60608501526101aa6004820161234e565b60808501526101bb6005820161234e565b60a08501526101cc6006820161234e565b60c08501526101dd6007820161234e565b60e08501526101ee6008820161234e565b6101008501526102006009820161234e565b610120850152610212600a820161234e565b610140850152610224600b820161234e565b610160850152610236600c820161234e565b610180850152610248600d820161234e565b6101a085015261025a600e820161234e565b6101c085015261026c600f820161234e565b6101e08501520161234e565b6102008201526104428161020061042d6104176103ff6103e76103cf6103b761039f61038761036f6040519d8e9d8e6020815260c061034161032c6103166103006102ea6102d4885161022060208a01526102408901906123f4565b6020890151888203601f190160408a01526123f4565b6040880151878203601f190160608901526123f4565b6060870151868203601f190160808801526123f4565b6080860151858203601f190160a08701526123f4565b60a0850151848203601f1901848601526123f4565b9201519060e0601f19828503019101526123f4565b8d60e08d015190610100601f19828503019101526123f4565b6101008b01518d8203601f19016101208f01526123f4565b6101208a01518c8203601f19016101408e01526123f4565b6101408901518b8203601f19016101608d01526123f4565b6101608801518a8203601f19016101808c01526123f4565b610180870151898203601f19016101a08b01526123f4565b6101a0860151888203601f19016101c08a01526123f4565b6101c0850151878203601f19016101e08901526123f4565b6101e0840151868203601f1901848801526123f4565b910151838203601f19016102208501526123f4565b0390f35b346100a15760003660031901126100a1576000546040516001600160a01b039091168152602090f35b346100a15760203660031901126100a1576001600160a01b03610490612294565b1660005260016020526040600020806104a88161234e565b6104b46001830161234e565b610480526104c46002830161234e565b6104e0526104d46003830161234e565b6104e06004840161234e565b6104ec6005850161234e565b6104f86006860161234e565b6105046007870161234e565b6105106008880161234e565b9061051d6009890161234e565b9261052a600a8a0161234e565b94610537600b8b0161234e565b96610544600c8c0161234e565b98610551600d8d0161234e565b9a61055e600e8e0161234e565b9c600f0161056b9061234e565b9d6010016105789061234e565b6104605260405180610260526102208091526102605101610598916123f4565b61026051808203906020015261048051906105b2916123f4565b6102605180820390604001526104e051906105cc916123f4565b6102605180820390606001526105e1916123f4565b6102605180820390608001526105f6916123f4565b610260518082039060a0015261060b916123f4565b610260518082039060c00152610620916123f4565b610260518082039060e00152610635916123f4565b6102605180820390610100015261064b916123f4565b61026051808203906101200152610661916123f4565b61026051808203906101400152610677916123f4565b6102605180820390610160015261068d916123f4565b610260518082039061018001526106a3916123f4565b61026051808203906101a001526106b9916123f4565b61026051808203906101c001526106cf916123f4565b61026051808203906101e001526106e5916123f4565b6102605180820390610200015261026051906104605190610705916123f4565b0361026051f35b346100a15760003660031901126100a1576020600254604051908152f35b346100a1576102403660031901126100a157610744612294565b610120526024356001600160401b0381116100a1576107679036906004016122aa565b6103c052610280526044356001600160401b0381116100a15761078e9036906004016122aa565b610320526101e0526064356001600160401b0381116100a1576107b59036906004016122aa565b6105205260e0526084356001600160401b0381116100a1576107db9036906004016122aa565b60a0526102c05260a4356001600160401b0381116100a1576108019036906004016122aa565b610200526101005260c4356001600160401b0381116100a1576108289036906004016122aa565b610420526102405260e4356001600160401b0381116100a15761084f9036906004016122aa565b6103805261058052610104356001600160401b0381116100a1576108779036906004016122aa565b61040052610140526001600160401b0361012435116100a1576108a036610124356004016122aa565b6101a0526102a0526001600160401b0361014435116100a1576108c936610144356004016122aa565b60c05261034052610164356001600160401b0381116100a1576108f09036906004016122aa565b6102e05261018052610184356001600160401b0381116100a1576109189036906004016122aa565b610540526080526101a4356001600160401b0381116100a15761093f9036906004016122aa565b61050052610300526101c4356001600160401b0381116100a1576109679036906004016122aa565b6101c0526103e0526101e4356001600160401b0381116100a15761098f9036906004016122aa565b6102205261036052610204356001600160401b0381116100a1576109b79036906004016122aa565b6104c0526103a052610224356001600160401b0381116100a1576109df9036906004016122aa565b6104a052610560526000546001600160a01b0316330361226357610a096040518061016052612311565b610a1a366103c05161028051612481565b6101605152610a3036610320516101e051612481565b6020610160510152610a48366105205160e051612481565b6040610160510152610a603660a0516102c051612481565b6060610160510152610a79366102005161010051612481565b6080610160510152610a92366104205161024051612481565b60a0610160510152610aab366103805161058051612481565b60c0610160510152610ac4366104005161014051612481565b60e0610160510152610add366101a0516102a051612481565b610100610160510152610af63660c05161034051612481565b610120610160510152610b10366102e05161018051612481565b610140610160510152610b293661054051608051612481565b61016080510152610b41366105005161030051612481565b610180610160510152610b5b366101c0516103e051612481565b6101a0610160510152610b75366102205161036051612481565b6101c0610160510152610b8f366104c0516103a051612481565b6101e0610160510152610ba9366104a05161056051612481565b61020061016051015260018060a01b0361012051166000526001602052604060002061016051518051906001600160401b038211611496578190610bed84546122d7565b601f8111612213575b50602090601f83116001146121a75760009261219c575b50508160011b916000199060031b1c19161781555b60206101605101518051906001600160401b038211611496578190610c4a60018501546122d7565b601f8111612149575b50602090601f83116001146120d7576000926120cc575b50508160011b916000199060031b1c19161760018201555b60406101605101518051906001600160401b038211611496578190610caa60028501546122d7565b601f8111612079575b50602090601f831160011461200757600092611ffc575b50508160011b916000199060031b1c19161760028201555b60606101605101518051906001600160401b038211611496578190610d0a60038501546122d7565b601f8111611fa9575b50602090601f8311600114611f3757600092611f2c575b50508160011b916000199060031b1c19161760038201555b60806101605101518051906001600160401b038211611496578190610d6a60048501546122d7565b601f8111611ed9575b50602090601f8311600114611e6757600092611e5c575b50508160011b916000199060031b1c19161760048201555b60a06101605101518051906001600160401b038211611496578190610dca60058501546122d7565b601f8111611e09575b50602090601f8311600114611d9757600092611d8c575b50508160011b916000199060031b1c19161760058201555b60c06101605101518051906001600160401b038211611496578190610e2a60068501546122d7565b601f8111611d39575b50602090601f8311600114611cc757600092611cbc575b50508160011b916000199060031b1c19161760068201555b60e06101605101518051906001600160401b038211611496578190610e8a60078501546122d7565b601f8111611c69575b50602090601f8311600114611bf757600092611bec575b50508160011b916000199060031b1c19161760078201555b6101006101605101518051906001600160401b038211611496578190610eeb60088501546122d7565b601f8111611b99575b50602090601f8311600114611b2757600092611b1c575b50508160011b916000199060031b1c19161760088201555b6101206101605101518051906001600160401b038211611496578190610f4c60098501546122d7565b601f8111611ac9575b50602090601f8311600114611a5757600092611a4c575b50508160011b916000199060031b1c19161760098201555b6101406101605101518051906001600160401b038211611496578190610fad600a8501546122d7565b601f81116119f9575b50602090601f83116001146119875760009261197c575b50508160011b916000199060031b1c191617600a8201555b610160805101518051906001600160401b03821161149657819061100c600b8501546122d7565b601f8111611929575b50602090601f83116001146118b7576000926118ac575b50508160011b916000199060031b1c191617600b8201555b6101806101605101518051906001600160401b03821161149657819061106d600c8501546122d7565b601f8111611859575b50602090601f83116001146117e7576000926117dc575b50508160011b916000199060031b1c191617600c8201555b6101a06101605101518051906001600160401b0382116114965781906110ce600d8501546122d7565b601f8111611789575b50602090601f83116001146117175760009261170c575b50508160011b916000199060031b1c191617600d8201555b6101c06101605101518051906001600160401b03821161149657819061112f600e8501546122d7565b601f81116116b9575b50602090601f83116001146116475760009261163c575b50508160011b916000199060031b1c191617600e8201555b6101e06101605101518051906001600160401b038211611496578190611190600f8501546122d7565b601f81116115e9575b50602090601f83116001146115775760009261156c575b50508160011b916000199060031b1c191617600f8201555b6102006101605101518051906001600160401b038211611496576111ef60108401546122d7565b601f8111611525575b50602090601f83116001146114b75760109291600091836114ac575b50508160011b916000199060031b1c1916179101555b600254680100000000000000008110156114965780600161124e9201600255612434565b81549060031b9060018060a01b036101205116821b9160018060a01b03901b191617905561022060405180610440525261143e61142461140a6113f06113d66113bd6113a361138a61137061135761133e61132561130c6112f46112dc6112c361022061044051016103c051610280516124c7565b610440516020818303910152610320516101e0516124c7565b6104405160408183039101526105205160e0516124c7565b61044051606081830391015260a0516102c0516124c7565b61044051608081830391015261020051610100516124c7565b6104405160a081830391015261042051610240516124c7565b6104405160c081830391015261038051610580516124c7565b6104405160e081830391015261040051610140516124c7565b610440516101008183039101526101a0516102a0516124c7565b6104405161012081830391015260c051610340516124c7565b610440516101408183039101526102e051610180516124c7565b61044051610160818303910152610540516080516124c7565b6104405161018081830391015261050051610300516124c7565b610440516101a08183039101526101c0516103e0516124c7565b610440516101c081830391015261022051610360516124c7565b610440516101e08183039101526104c0516103a0516124c7565b610440516102008183039101527f91a7e7c9f5d627973b37a642d6679050a41a99a818cddf5f5275ce079ee207ed60018060a01b0361012051169161148e61044051916104a051610560516124c7565b0361044051a2005b634e487b7160e01b600052604160045260246000fd5b015190508480611214565b90601084016000526020600020916000601f198516905b81811061150d575091600193918560109694106114f4575b505050811b0191015561122a565b015160001960f88460031b161c191690558480806114e6565b929360206001819287860151815501950193016114ce565b601084016000526020600020601f840160051c810160208510611565575b601f830160051c820181106115595750506111f8565b60008155600101611543565b5080611543565b0151905083806111b0565b9250600f84016000526020600020906000935b601f19841685106115ce576001945083601f198116106115b5575b505050811b01600f8201556111c8565b015160001960f88460031b161c191690558380806115a5565b8181015183556020948501946001909301929091019061158a565b909150600f84016000526020600020601f840160051c810160208510611635575b90849392915b601f830160051c82018110611626575050611199565b60008155859450600101611610565b508061160a565b01519050838061114f565b9250600e84016000526020600020906000935b601f198416851061169e576001945083601f19811610611685575b505050811b01600e820155611167565b015160001960f88460031b161c19169055838080611675565b8181015183556020948501946001909301929091019061165a565b909150600e84016000526020600020601f840160051c810160208510611705575b90849392915b601f830160051c820181106116f6575050611138565b600081558594506001016116e0565b50806116da565b0151905083806110ee565b9250600d84016000526020600020906000935b601f198416851061176e576001945083601f19811610611755575b505050811b01600d820155611106565b015160001960f88460031b161c19169055838080611745565b8181015183556020948501946001909301929091019061172a565b909150600d84016000526020600020601f840160051c8101602085106117d5575b90849392915b601f830160051c820181106117c65750506110d7565b600081558594506001016117b0565b50806117aa565b01519050838061108d565b9250600c84016000526020600020906000935b601f198416851061183e576001945083601f19811610611825575b505050811b01600c8201556110a5565b015160001960f88460031b161c19169055838080611815565b818101518355602094850194600190930192909101906117fa565b909150600c84016000526020600020601f840160051c8101602085106118a5575b90849392915b601f830160051c82018110611896575050611076565b60008155859450600101611880565b508061187a565b01519050838061102c565b9250600b84016000526020600020906000935b601f198416851061190e576001945083601f198116106118f5575b505050811b01600b820155611044565b015160001960f88460031b161c191690558380806118e5565b818101518355602094850194600190930192909101906118ca565b909150600b84016000526020600020601f840160051c810160208510611975575b90849392915b601f830160051c82018110611966575050611015565b60008155859450600101611950565b508061194a565b015190508380610fcd565b9250600a84016000526020600020906000935b601f19841685106119de576001945083601f198116106119c5575b505050811b01600a820155610fe5565b015160001960f88460031b161c191690558380806119b5565b8181015183556020948501946001909301929091019061199a565b909150600a84016000526020600020601f840160051c810160208510611a45575b90849392915b601f830160051c82018110611a36575050610fb6565b60008155859450600101611a20565b5080611a1a565b015190508380610f6c565b9250600984016000526020600020906000935b601f1984168510611aae576001945083601f19811610611a95575b505050811b016009820155610f84565b015160001960f88460031b161c19169055838080611a85565b81810151835560209485019460019093019290910190611a6a565b909150600984016000526020600020601f840160051c810160208510611b15575b90849392915b601f830160051c82018110611b06575050610f55565b60008155859450600101611af0565b5080611aea565b015190508380610f0b565b9250600884016000526020600020906000935b601f1984168510611b7e576001945083601f19811610611b65575b505050811b016008820155610f23565b015160001960f88460031b161c19169055838080611b55565b81810151835560209485019460019093019290910190611b3a565b909150600884016000526020600020601f840160051c810160208510611be5575b90849392915b601f830160051c82018110611bd6575050610ef4565b60008155859450600101611bc0565b5080611bba565b015190508380610eaa565b9250600784016000526020600020906000935b601f1984168510611c4e576001945083601f19811610611c35575b505050811b016007820155610ec2565b015160001960f88460031b161c19169055838080611c25565b81810151835560209485019460019093019290910190611c0a565b909150600784016000526020600020601f840160051c810160208510611cb5575b90849392915b601f830160051c82018110611ca6575050610e93565b60008155859450600101611c90565b5080611c8a565b015190508380610e4a565b9250600684016000526020600020906000935b601f1984168510611d1e576001945083601f19811610611d05575b505050811b016006820155610e62565b015160001960f88460031b161c19169055838080611cf5565b81810151835560209485019460019093019290910190611cda565b909150600684016000526020600020601f840160051c810160208510611d85575b90849392915b601f830160051c82018110611d76575050610e33565b60008155859450600101611d60565b5080611d5a565b015190508380610dea565b9250600584016000526020600020906000935b601f1984168510611dee576001945083601f19811610611dd5575b505050811b016005820155610e02565b015160001960f88460031b161c19169055838080611dc5565b81810151835560209485019460019093019290910190611daa565b909150600584016000526020600020601f840160051c810160208510611e55575b90849392915b601f830160051c82018110611e46575050610dd3565b60008155859450600101611e30565b5080611e2a565b015190508380610d8a565b9250600484016000526020600020906000935b601f1984168510611ebe576001945083601f19811610611ea5575b505050811b016004820155610da2565b015160001960f88460031b161c19169055838080611e95565b81810151835560209485019460019093019290910190611e7a565b909150600484016000526020600020601f840160051c810160208510611f25575b90849392915b601f830160051c82018110611f16575050610d73565b60008155859450600101611f00565b5080611efa565b015190508380610d2a565b9250600384016000526020600020906000935b601f1984168510611f8e576001945083601f19811610611f75575b505050811b016003820155610d42565b015160001960f88460031b161c19169055838080611f65565b81810151835560209485019460019093019290910190611f4a565b909150600384016000526020600020601f840160051c810160208510611ff5575b90849392915b601f830160051c82018110611fe6575050610d13565b60008155859450600101611fd0565b5080611fca565b015190508380610cca565b9250600284016000526020600020906000935b601f198416851061205e576001945083601f19811610612045575b505050811b016002820155610ce2565b015160001960f88460031b161c19169055838080612035565b8181015183556020948501946001909301929091019061201a565b909150600284016000526020600020601f840160051c8101602085106120c5575b90849392915b601f830160051c820181106120b6575050610cb3565b600081558594506001016120a0565b508061209a565b015190508380610c6a565b9250600184016000526020600020906000935b601f198416851061212e576001945083601f19811610612115575b505050811b016001820155610c82565b015160001960f88460031b161c19169055838080612105565b818101518355602094850194600190930192909101906120ea565b909150600184016000526020600020601f840160051c810160208510612195575b90849392915b601f830160051c82018110612186575050610c53565b60008155859450600101612170565b508061216a565b015190508380610c0d565b9250836000526020600020906000935b601f19841685106121f8576001945083601f198116106121df575b505050811b018155610c22565b015160001960f88460031b161c191690558380806121d2565b818101518355602094850194600190930192909101906121b7565b909150836000526020600020601f840160051c81016020851061225c575b90849392915b601f830160051c8201811061224d575050610bf6565b60008155859450600101612237565b5080612231565b62461bcd60e51b6105a090815260206105a452600b6105c4526a139bdd081cdd195dd85c9960aa1b6105e452606490fd5b600435906001600160a01b03821682036100a157565b9181601f840112156100a1578235916001600160401b0383116100a157602083818601950101116100a157565b90600182811c92168015612307575b60208310146122f157565b634e487b7160e01b600052602260045260246000fd5b91607f16916122e6565b61022081019081106001600160401b0382111761149657604052565b90601f801991011681019081106001600160401b0382111761149657604052565b9060405191826000825492612362846122d7565b9081845260019485811690816000146123d1575060011461238e575b505061238c9250038361232d565b565b9093915060005260209081600020936000915b8183106123b957505061238c9350820101388061237e565b855488840185015294850194879450918301916123a1565b91505061238c94506020925060ff191682840152151560051b820101388061237e565b919082519283825260005b848110612420575050826000602080949584010152601f8019910116010190565b6020818301810151848301820152016123ff565b60025481101561246b5760026000527f405787fa12a823e0f2b7631cc41b3ba8828b3321ca811111fa75cd3aa3bb5ace0190600090565b634e487b7160e01b600052603260045260246000fd5b9291926001600160401b03821161149657604051916124aa601f8201601f19166020018461232d565b8294818452818301116100a1578281602093846000960137010152565b908060209392818452848401376000828201840152601f01601f191601019056fea26469706673582212203fc60acd59da86d8c45543daa9ca3c9c0086b34410e64d67ab9ac14fe4c7fb9664736f6c63430008140033",
  "linkReferences": {},
  "deployedLinkReferences": {}
}