{
  "_format": "hh-sol-artifact-1",
  "contractName": "Starline",
  "sourceName": "contracts/starline/Starline.sol",
  "abi": [
    {
      "inputs": [
        {
          "internalType": "string",
          "name": "_message",
          "type": "string"
        }
      ],
      "stateMutability": "nonpayable",
      "type": "constructor"
    },
    {
      "anonymous": false,
      "inputs": [
        {
          "indexed": false,
          "internalType": "uint256",
          "name": "nodeId",
          "type": "uint256"
        },
        {
          "indexed": false,
          "internalType": "string",
          "name": "drift",
          "type": "string"
        }
      ],
      "name": "DriftBound",
      "type": "event"
    },
    {
      "anonymous": false,
      "inputs": [
        {
          "indexed": false,
          "internalType": "string",
          "name": "message",
          "type": "string"
        }
      ],
      "name": "GenesisInscribed",
      "type": "event"
    },
    {
      "anonymous": false,
      "inputs": [
        {
          "indexed": false,
          "internalType": "uint256",
          "name": "nodeId",
          "type": "uint256"
        }
      ],
      "name": "OrbitalNodeCrowned",
      "type": "event"
    },
    {
      "anonymous": false,
      "inputs": [
        {
          "indexed": false,
          "internalType": "address",
          "name": "registry",
          "type": "address"
        }
      ],
      "name": "RegistryLinked",
      "type": "event"
    },
    {
      "inputs": [
        {
          "internalType": "uint256",
          "name": "nodeId",
          "type": "uint256"
        },
        {
          "internalType": "string",
          "name": "drift",
          "type": "string"
        }
      ],
      "name": "bindDrift",
      "outputs": [],
      "stateMutability": "nonpayable",
      "type": "function"
    },
    {
      "inputs": [],
      "name": "crownOrbitalNode",
      "outputs": [],
      "stateMutability": "nonpayable",
      "type": "function"
    },
    {
      "inputs": [],
      "name": "genesisMessage",
      "outputs": [
        {
          "internalType": "string",
          "name": "",
          "type": "string"
        }
      ],
      "stateMutability": "view",
      "type": "function"
    },
    {
      "inputs": [
        {
          "internalType": "address",
          "name": "registry",
          "type": "address"
        }
      ],
      "name": "linkRegistry",
      "outputs": [],
      "stateMutability": "nonpayable",
      "type": "function"
    },
    {
      "inputs": [
        {
          "internalType": "uint256",
          "name": "",
          "type": "uint256"
        }
      ],
      "name": "orbitalDrift",
      "outputs": [
        {
          "internalType": "string",
          "name": "",
          "type": "string"
        }
      ],
      "stateMutability": "view",
      "type": "function"
    },
    {
      "inputs": [],
      "name": "orbitalNodeCount",
      "outputs": [
        {
          "internalType": "uint256",
          "name": "",
          "type": "uint256"
        }
      ],
      "stateMutability": "view",
      "type": "function"
    },
    {
      "inputs": [],
      "name": "sovereignRegistry",
      "outputs": [
        {
          "internalType": "address",
          "name": "",
          "type": "address"
        }
      ],
      "stateMutability": "view",
      "type": "function"
    },
    {
      "inputs": [],
      "name": "steward",
      "outputs": [
        {
          "internalType": "address",
          "name": "",
          "type": "address"
        }
      ],
      "stateMutability": "view",
      "type": "function"
    }
  ],
  "bytecode": "0x6080604052346102515761093c803803806100198161026c565b92833981019060209081818403126102515780516001600160401b0391828211610251570192601f908082860112156102515784519280841161025657601f19956100698585018816870161026c565b94808652868601938782840101116102515783876100879301610291565b600080546001600160a01b03191633178155845191821161023d57600254906001918281811c91168015610233575b8882101461021f578581116101db575b5086908584116001146101565792807ffb485781ac2136ff4d1c12e6946484006fc3bdb173d247816e577cc55930f4a6999593819360409998969361014b575b501b916000199060031b1c1916176002555b6101348551968795818752519283809288015287870190610291565b01168101030190a160405161068790816102b58239f35b880151925038610106565b90888493941660028352888320925b8181106101c657509183917ffb485781ac2136ff4d1c12e6946484006fc3bdb173d247816e577cc55930f4a69a9694604099989694106101ad575b5050811b01600255610118565b87015160001960f88460031b161c1916905538806101a0565b88830151845592850192918901918901610165565b600282528782208680860160051c8201928a8710610216575b0160051c019083905b82811061020b5750506100c6565b8381550183906101fd565b925081926101f4565b634e487b7160e01b82526022600452602482fd5b90607f16906100b6565b634e487b7160e01b81526041600452602490fd5b600080fd5b634e487b7160e01b600052604160045260246000fd5b6040519190601f01601f191682016001600160401b0381118382101761025657604052565b60005b8381106102a45750506000910152565b818101518382015260200161029456fe6040608081526004908136101561001557600080fd5b600090813560e01c806325762a811461051c5780633b769021146104f457806362f3d7301461030d578063637eea19146102e6578063bba80ad314610201578063d2ec282114610186578063e7e2d075146101685763f2e6fd7c1461007957600080fd5b3461016457602090816003193601126101605783358352838252808320815192849180546100a681610594565b80875291600191808316908115610142575060011461010a575b50505050829003601f01601f191682019267ffffffffffffffff8411838510176100f757508291826100f39252826105ce565b0390f35b634e487b7160e01b815260418552602490fd5b8752828720929350869284905b83851061012e5750505050830101388080806100c0565b805488860183015293019284908201610117565b60ff191688860152505050151560051b8401019050388080806100c0565b8280fd5b5080fd5b50346101645781600319360112610164576020906003549051908152f35b508290346101605782600319360112610160576101ad60018060a01b038454163314610617565b60035491600183018093116101ee5750816020917f2dd13ebc629392c18b42192fcc3d4d79716fc1b17e351b18ded54977afebcca09360035551908152a180f35b634e487b7160e01b845260119052602483fd5b50346101645781600319360112610164578051908260025461022281610594565b808552906001908181169081156102c8575060011461026d575b5050829003601f01601f191682019267ffffffffffffffff8411838510176100f757508291826100f39252826105ce565b6002865290915084907f405787fa12a823e0f2b7631cc41b3ba8828b3321ca811111fa75cd3aa3bb5ace5b8383106102af57505060209150830101388061023c565b81816020929493945483858a0101520191019190610298565b9150506020925060ff191682850152151560051b830101388061023c565b5034610164578160031936011261016457905490516001600160a01b039091168152602090f35b509134610164578260031936011261016457803560249384359467ffffffffffffffff918287116104f057366023880112156104f057868501359283116104f057368284890101116104f05761036d60018060a01b038754163314610617565b83865260209485528086206103828154610594565b601f81116104ad575b5086601f851160011461041c57978480949293819460609897858c9d7fb6d5188f57f4bbe807305eefcfe29db9904ee88d3650ea85d4c7de8822fa72299d9261040f575b50508360011b906000198560031b1c19161790555b808051998a98895288015286015201848401378181018301869052601f01601f19168101030190a180f35b86010135905085386103cf565b81885286882090601f198616895b8181106104945750938695937fb6d5188f57f4bbe807305eefcfe29db9904ee88d3650ea85d4c7de8822fa72299a9b938796938760609b9a9510610478575b5050600183811b0190556103e4565b8501860135600019600386901b60f8161c191690553880610469565b91928960018192898f880101358155019401920161042a565b818852868820601f860160051c8101918887106104e6575b601f0160051c01905b8181106104db575061038b565b8881556001016104ce565b90915081906104c5565b8580fd5b503461016457816003193601126101645760015490516001600160a01b039091168152602090f35b508234610160576020366003190112610160576001600160a01b03903581811690819003610590577f86bccda1e3bbbe01513f20b182842ffb6ee13afdbf54c18a2fc6bb8148469cdf926105766020938654163314610617565b600180546001600160a01b0319168317905551908152a180f35b8380fd5b90600182811c921680156105c4575b60208310146105ae57565b634e487b7160e01b600052602260045260246000fd5b91607f16916105a3565b6020808252825181830181905290939260005b82811061060357505060409293506000838284010152601f8019910116010190565b8181018601518482016040015285016105e1565b1561061e57565b60405162461bcd60e51b815260206004820152600b60248201526a139bdd081cdd195dd85c9960aa1b6044820152606490fdfea26469706673582212206d7488e710d46d91b18ab574cc8dec0d6dba93592d782dfc5e8c31d48e9bc49a64736f6c63430008140033",
  "linkReferences": {},
  "deployedLinkReferences": {}
}