{
  "_format": "hh-sol-artifact-1",
  "contractName": "TerrainManifest",
  "sourceName": "contracts/manifest/TerrainManifest.sol",
  "abi": [
    {
      "inputs": [],
      "stateMutability": "nonpayable",
      "type": "constructor"
    },
    {
      "anonymous": false,
      "inputs": [
        {
          "indexed": false,
          "internalType": "string",
          "name": "name",
          "type": "string"
        },
        {
          "indexed": false,
          "internalType": "address",
          "name": "location",
          "type": "address"
        },
        {
          "indexed": false,
          "internalType": "string",
          "name": "kind",
          "type": "string"
        }
      ],
      "name": "GlyphLinked",
      "type": "event"
    },
    {
      "anonymous": false,
      "inputs": [
        {
          "indexed": false,
          "internalType": "string",
          "name": "chant",
          "type": "string"
        }
      ],
      "name": "ManifestEchoed",
      "type": "event"
    },
    {
      "inputs": [
        {
          "internalType": "string",
          "name": "chant",
          "type": "string"
        }
      ],
      "name": "echoManifest",
      "outputs": [],
      "stateMutability": "nonpayable",
      "type": "function"
    },
    {
      "inputs": [
        {
          "internalType": "string",
          "name": "name",
          "type": "string"
        }
      ],
      "name": "getGlyph",
      "outputs": [
        {
          "internalType": "address",
          "name": "",
          "type": "address"
        },
        {
          "internalType": "string",
          "name": "",
          "type": "string"
        }
      ],
      "stateMutability": "view",
      "type": "function"
    },
    {
      "inputs": [
        {
          "internalType": "string",
          "name": "",
          "type": "string"
        }
      ],
      "name": "glyphs",
      "outputs": [
        {
          "internalType": "string",
          "name": "name",
          "type": "string"
        },
        {
          "internalType": "address",
          "name": "location",
          "type": "address"
        },
        {
          "internalType": "string",
          "name": "kind",
          "type": "string"
        }
      ],
      "stateMutability": "view",
      "type": "function"
    },
    {
      "inputs": [
        {
          "internalType": "uint256",
          "name": "",
          "type": "uint256"
        }
      ],
      "name": "keys",
      "outputs": [
        {
          "internalType": "string",
          "name": "",
          "type": "string"
        }
      ],
      "stateMutability": "view",
      "type": "function"
    },
    {
      "inputs": [
        {
          "internalType": "string",
          "name": "name",
          "type": "string"
        },
        {
          "internalType": "address",
          "name": "location",
          "type": "address"
        },
        {
          "internalType": "string",
          "name": "kind",
          "type": "string"
        }
      ],
      "name": "linkGlyph",
      "outputs": [],
      "stateMutability": "nonpayable",
      "type": "function"
    },
    {
      "inputs": [],
      "name": "steward",
      "outputs": [
        {
          "internalType": "address",
          "name": "",
          "type": "address"
        }
      ],
      "stateMutability": "view",
      "type": "function"
    },
    {
      "inputs": [],
      "name": "totalGlyphs",
      "outputs": [
        {
          "internalType": "uint256",
          "name": "",
          "type": "uint256"
        }
      ],
      "stateMutability": "view",
      "type": "function"
    }
  ],
  "bytecode": "0x6080806040523461002857600080546001600160a01b03191633179055610a10908161002e8239f35b600080fdfe6080604052600436101561001257600080fd5b60003560e01c80630cb6aaf1146106b8578063148801fb14610295578063637eea191461026c578063818a8c5b146101e95780638592eebe146101cb578063f351a29d146101265763f9864eb51461006957600080fd5b346101215760203660031901126101215760043567ffffffffffffffff81116101215736602382011215610121576100c660206100b361010a9336906024816004013591016108e4565b816040519382858094519384920161086e565b8101600181520301902061011d6100dc826107c8565b916100f6600260018060a01b0360018401541692016107c8565b604051948594606086526060860190610891565b9160208501528382036040850152610891565b0390f35b600080fd5b346101215760203660031901126101215760043567ffffffffffffffff811161012157602061015b60409236906004016108b6565b919082845193849283378101600181520301902081519061017b8261078a565b610184816107c8565b825260018060a01b03916101a86002846001850154169360208401948552016107c8565b9384910152511661011d6040519283928352604060208401526040830190610891565b34610121576000366003190112610121576020600254604051908152f35b346101215760203660031901126101215760043567ffffffffffffffff81116101215761023b7ffea5dbe01d4f5cf059d189acc8b20d3d861280e6442e4e52bdc9c0a00a8761da9136906004016108b6565b61025060018060a01b0360005416331461092b565b6102676040519283926020845260208401916109b9565b0390a1005b34610121576000366003190112610121576000546040516001600160a01b039091168152602090f35b346101215760603660031901126101215760043567ffffffffffffffff8111610121576102c69036906004016108b6565b60243591906001600160a01b03831683036101215760443567ffffffffffffffff8111610121576102fb9036906004016108b6565b9061031160018060a01b0360005416331461092b565b60405161031d8161078a565b6103283685876108e4565b81526001600160a01b03861660208201526103443684846108e4565b6040820152604051848682376020818681016001815203019020815180519067ffffffffffffffff82116105a357610386826103808554610750565b85610965565b602090601f831160011461064b57918060409492600294600092610640575b50508160011b916000199060031b1c19161781555b6001810160018060a01b036020860151166bffffffffffffffffffffffff60a01b8254161790550191015180519067ffffffffffffffff82116105a357819061040d826104078654610750565b86610965565b602090601f83116001146105da576000926105cf575b50508160011b916000199060031b1c19161790555b600254680100000000000000008110156105a35780600161045c9201600255610703565b6105b95767ffffffffffffffff84116105a3576104838461047d8354610750565b83610965565b6000601f851160011461051557916102679391857f3bae25540cd99ad3d8b665990169fb84f5fad36a3c60dc87363a4ad736663c1f989460009161050a575b508660011b906000198860031b1c19161790555b6104ed6040519687966060885260608801916109b9565b6001600160a01b03909316602086015284830360408601526109b9565b9050870135896104c2565b601f198516908260005260206000209160005b81811061058b575091610267959391877f3bae25540cd99ad3d8b665990169fb84f5fad36a3c60dc87363a4ad736663c1f9a969410610571575b5050600186811b0190556104d6565b880135600019600389901b60f8161c191690558880610562565b9192602060018192868c013581550194019201610528565b634e487b7160e01b600052604160045260246000fd5b634e487b7160e01b600052600060045260246000fd5b015190508880610423565b6000858152602081209350601f198516905b818110610628575090846001959493921061060f575b505050811b019055610438565b015160001960f88460031b161c19169055888080610602565b929360206001819287860151815501950193016105ec565b015190508b806103a5565b90601f198316918460005260206000209260005b8181106106a057509260019285926002966040989610610687575b505050811b0181556103ba565b015160001960f88460031b161c191690558b808061067a565b9293602060018192878601518155019501930161065f565b3461012157602036600319011261012157600435600254811015610121576106df90610703565b6105b9576106ef61011d916107c8565b604051918291602083526020830190610891565b60025481101561073a5760026000527f405787fa12a823e0f2b7631cc41b3ba8828b3321ca811111fa75cd3aa3bb5ace0190600090565b634e487b7160e01b600052603260045260246000fd5b90600182811c92168015610780575b602083101461076a57565b634e487b7160e01b600052602260045260246000fd5b91607f169161075f565b6060810190811067ffffffffffffffff8211176105a357604052565b90601f8019910116810190811067ffffffffffffffff8211176105a357604052565b90604051918260008254926107dc84610750565b90818452600194858116908160001461084b5750600114610808575b5050610806925003836107a6565b565b9093915060005260209081600020936000915b818310610833575050610806935082010138806107f8565b8554888401850152948501948794509183019161081b565b91505061080694506020925060ff191682840152151560051b82010138806107f8565b60005b8381106108815750506000910152565b8181015183820152602001610871565b906020916108aa8151809281855285808601910161086e565b601f01601f1916010190565b9181601f840112156101215782359167ffffffffffffffff8311610121576020838186019501011161012157565b92919267ffffffffffffffff82116105a3576040519161090e601f8201601f1916602001846107a6565b829481845281830111610121578281602093846000960137010152565b1561093257565b60405162461bcd60e51b815260206004820152600b60248201526a139bdd081cdd195dd85c9960aa1b6044820152606490fd5b90601f811161097357505050565b600091825260208220906020601f850160051c830194106109af575b601f0160051c01915b8281106109a457505050565b818155600101610998565b909250829061098f565b908060209392818452848401376000828201840152601f01601f191601019056fea26469706673582212209528c20c20d3a853266a27b9c0cf6e4fcb984cb794d2b711d6290aca0905472364736f6c63430008140033",
  "linkReferences": {},
  "deployedLinkReferences": {}
}