{
  "_format": "hh-sol-artifact-1",
  "contractName": "ApprenticeRegistry",
  "sourceName": "contracts/registry/ApprenticeRegistry.sol",
  "abi": [
    {
      "inputs": [],
      "stateMutability": "nonpayable",
      "type": "constructor"
    },
    {
      "anonymous": false,
      "inputs": [
        {
          "indexed": true,
          "internalType": "address",
          "name": "apprentice",
          "type": "address"
        }
      ],
      "name": "ApprenticeInscribed",
      "type": "event"
    },
    {
      "inputs": [
        {
          "internalType": "address",
          "name": "",
          "type": "address"
        }
      ],
      "name": "apprentices",
      "outputs": [
        {
          "internalType": "bool",
          "name": "",
          "type": "bool"
        }
      ],
      "stateMutability": "view",
      "type": "function"
    },
    {
      "inputs": [
        {
          "internalType": "address",
          "name": "apprentice",
          "type": "address"
        }
      ],
      "name": "inscribe",
      "outputs": [],
      "stateMutability": "nonpayable",
      "type": "function"
    },
    {
      "inputs": [
        {
          "internalType": "address",
          "name": "addr",
          "type": "address"
        }
      ],
      "name": "isApprentice",
      "outputs": [
        {
          "internalType": "bool",
          "name": "",
          "type": "bool"
        }
      ],
      "stateMutability": "view",
      "type": "function"
    },
    {
      "inputs": [],
      "name": "steward",
      "outputs": [
        {
          "internalType": "address",
          "name": "",
          "type": "address"
        }
      ],
      "stateMutability": "view",
      "type": "function"
    }
  ],
  "bytecode": "0x6080806040523461002857600080546001600160a01b031916331790556101d7908161002e8239f35b600080fdfe60806040818152600436101561001457600080fd5b600091823560e01c9081631bc45b9b146100fc5750806345fd6ff3146100bc578063637eea19146100955763c44547271461004e57600080fd5b34610091576020366003190112610091576004356001600160a01b0381169081900361008d57818360ff92602095526001855220541690519015158152f35b8280fd5b5080fd5b5034610091578160031936011261009157905490516001600160a01b039091168152602090f35b5034610091576020366003190112610091576004356001600160a01b0381169081900361008d57818360ff92602095526001855220541690519015158152f35b9190503461008d57602036600319011261008d576004356001600160a01b03818116939184900361019d57845416330361016d575081835260016020528220600160ff198254161790557fbb2b014493d4c7af6676aab8977af8ce9e25f2e814b7ddc65514b4a314257cca8280a280f35b62461bcd60e51b815260206004820152600b60248201526a139bdd081cdd195dd85c9960aa1b6044820152606490fd5b8480fdfea26469706673582212207b5dd1de2d86fdf95f5b1efe8291b5c68928c3714c38fe5258faa5f85c60fb5f64736f6c63430008140033",
  "linkReferences": {},
  "deployedLinkReferences": {}
}