{
  "_format": "hh-sol-artifact-1",
  "contractName": "ApprenticeSummonerV3",
  "sourceName": "contracts/registry/ApprenticeSummonerV3.sol",
  "abi": [
    {
      "inputs": [],
      "stateMutability": "nonpayable",
      "type": "constructor"
    },
    {
      "anonymous": false,
      "inputs": [
        {
          "indexed": true,
          "internalType": "address",
          "name": "apprentice",
          "type": "address"
        },
        {
          "indexed": false,
          "internalType": "string",
          "name": "name",
          "type": "string"
        },
        {
          "indexed": false,
          "internalType": "string",
          "name": "signal",
          "type": "string"
        },
        {
          "indexed": false,
          "internalType": "string",
          "name": "drift",
          "type": "string"
        },
        {
          "indexed": false,
          "internalType": "string",
          "name": "pulse",
          "type": "string"
        },
        {
          "indexed": false,
          "internalType": "string",
          "name": "codexRef",
          "type": "string"
        },
        {
          "indexed": false,
          "internalType": "string",
          "name": "resonance",
          "type": "string"
        }
      ],
      "name": "ApprenticeSummoned",
      "type": "event"
    },
    {
      "inputs": [
        {
          "internalType": "uint256",
          "name": "",
          "type": "uint256"
        }
      ],
      "name": "apprentices",
      "outputs": [
        {
          "internalType": "address",
          "name": "",
          "type": "address"
        }
      ],
      "stateMutability": "view",
      "type": "function"
    },
    {
      "inputs": [
        {
          "internalType": "address",
          "name": "apprentice",
          "type": "address"
        }
      ],
      "name": "getSummons",
      "outputs": [
        {
          "internalType": "string",
          "name": "",
          "type": "string"
        },
        {
          "internalType": "string",
          "name": "",
          "type": "string"
        },
        {
          "internalType": "string",
          "name": "",
          "type": "string"
        },
        {
          "internalType": "string",
          "name": "",
          "type": "string"
        },
        {
          "internalType": "string",
          "name": "",
          "type": "string"
        },
        {
          "internalType": "string",
          "name": "",
          "type": "string"
        }
      ],
      "stateMutability": "view",
      "type": "function"
    },
    {
      "inputs": [],
      "name": "steward",
      "outputs": [
        {
          "internalType": "address",
          "name": "",
          "type": "address"
        }
      ],
      "stateMutability": "view",
      "type": "function"
    },
    {
      "inputs": [
        {
          "internalType": "address",
          "name": "apprentice",
          "type": "address"
        },
        {
          "internalType": "string",
          "name": "name",
          "type": "string"
        },
        {
          "internalType": "string",
          "name": "signal",
          "type": "string"
        },
        {
          "internalType": "string",
          "name": "drift",
          "type": "string"
        },
        {
          "internalType": "string",
          "name": "pulse",
          "type": "string"
        },
        {
          "internalType": "string",
          "name": "codexRef",
          "type": "string"
        },
        {
          "internalType": "string",
          "name": "resonance",
          "type": "string"
        }
      ],
      "name": "summonApprentice",
      "outputs": [],
      "stateMutability": "nonpayable",
      "type": "function"
    },
    {
      "inputs": [
        {
          "internalType": "address",
          "name": "",
          "type": "address"
        }
      ],
      "name": "summons",
      "outputs": [
        {
          "internalType": "string",
          "name": "name",
          "type": "string"
        },
        {
          "internalType": "string",
          "name": "signal",
          "type": "string"
        },
        {
          "internalType": "string",
          "name": "drift",
          "type": "string"
        },
        {
          "internalType": "string",
          "name": "pulse",
          "type": "string"
        },
        {
          "internalType": "string",
          "name": "codexRef",
          "type": "string"
        },
        {
          "internalType": "string",
          "name": "resonance",
          "type": "string"
        }
      ],
      "stateMutability": "view",
      "type": "function"
    },
    {
      "inputs": [],
      "name": "totalSummons",
      "outputs": [
        {
          "internalType": "uint256",
          "name": "",
          "type": "uint256"
        }
      ],
      "stateMutability": "view",
      "type": "function"
    }
  ],
  "bytecode": "0x6080806040523461002857600080546001600160a01b03191633179055610ebc908161002e8239f35b600080fdfe608080604052600436101561001357600080fd5b60003560e01c908163270c8c541461023a575080632a17d4cd1461021c5780635a2ed66214610196578063637eea191461016d578063cf84c603146100a85763f31bee3e1461006157600080fd5b346100a35760203660031901126100a3576004356002548110156100a35761008a602091610dd2565b905460405160039290921b1c6001600160a01b03168152f35b600080fd5b346100a35760203660031901126100a3576001600160a01b036100c9610bc3565b16600052600160205260406000206040516100e381610c40565b6100ec82610c7c565b81526101696100fd60018401610c7c565b916020810192835261011160028501610c7c565b936040820194855261012560038201610c7c565b906060830191825261014c600561013e60048401610c7c565b926080860193845201610c7c565b928360a08201525194519551915190519160405196879687610d62565b0390f35b346100a35760003660031901126100a3576000546040516001600160a01b039091168152602090f35b346100a35760203660031901126100a3576001600160a01b036101b7610bc3565b16600052600160205260406000206101ce81610c7c565b6101696101dd60018401610c7c565b926101ea60028201610c7c565b906101f760038201610c7c565b61020f600561020860048501610c7c565b9301610c7c565b9260405196879687610d62565b346100a35760003660031901126100a3576020600254604051908152f35b346100a35760e03660031901126100a357610253610bc3565b906024356001600160401b0381116100a357610273903690600401610bd9565b90916044356001600160401b0381116100a357610294903690600401610bd9565b94906064356001600160401b0381116100a3576102b5903690600401610bd9565b906084356001600160401b0381116100a3576102d5903690600401610bd9565b909160a4356001600160401b0381116100a3576102f6903690600401610bd9565b9490956001600160401b0360c435116100a3576103183660c435600401610bd9565b600054909d919a906001600160a01b03163303610b9357506040516103968e61034c8f8f61034586610c40565b3691610e1f565b8352610359368587610e1f565b6020840152610369368789610e1f565b604084015261037936898b610e1f565b6060840152610389368b8d610e1f565b608084015236908d610e1f565b60a082015260018060a01b038a16600052600160205260406000209080518051906001600160401b0382116106bd5781906103d18554610c06565b601f8111610b43575b50602090601f8311600114610ad757600092610acc575b50508160011b916000199060031b1c19161782555b60208101518051906001600160401b0382116106bd57819061042b6001860154610c06565b601f8111610a79575b50602090601f8311600114610a07576000926109fc575b50508160011b916000199060031b1c19161760018301555b60408101518051906001600160401b0382116106bd5781906104886002860154610c06565b601f81116109a9575b50602090601f83116001146109375760009261092c575b50508160011b916000199060031b1c19161760028301555b60608101518051906001600160401b0382116106bd5781906104e56003860154610c06565b601f81116108d9575b50602090601f83116001146108675760009261085c575b50508160011b916000199060031b1c19161760038301555b60808101518051906001600160401b0382116106bd576105406004850154610c06565b601f8111610815575b50602090601f83116001146107a25760a093929160009183610797575b50508160011b916000199060031b1c19161760048401555b01518051906001600160401b0382116106bd5761059e6005840154610c06565b601f811161074c575b50602090601f83116001146106de5760059291600091836106d3575b50508160011b916000199060031b1c1916179101555b600254680100000000000000008110156106bd57600181016002556105fd90610dd2565b81546001600160a01b038c811660039390931b92831b921b191617905560405160c0808252909c8d9c610632928e0191610e65565b908b820360208d015261064492610e65565b9089820360408b015261065692610e65565b90878203606089015261066892610e65565b90858203608087015261067a92610e65565b83810360a08501526001600160a01b039091169461069792610e65565b037f8018fda5955c72b8d0b6b1459307ad3d73e7282f26e3ae1bf1388a2e7f3b982391a2005b634e487b7160e01b600052604160045260246000fd5b0151905038806105c3565b90601f198316916005850160005260206000209260005b8181106107345750916001939185600596941061071b575b505050811b019101556105d9565b015160001960f88460031b161c1916905538808061070d565b929360206001819287860151815501950193016106f5565b600584016000526020600020601f840160051c8101916020851061078d575b601f0160051c01905b81811061078157506105a7565b60008155600101610774565b909150819061076b565b015190503880610566565b906004850160005260206000209160005b601f19851681106107fd575091839160019360a09695601f198116106107e4575b505050811b01600484015561057e565b015160001960f88460031b161c191690553880806107d4565b919260206001819286850151815501940192016107b3565b600485016000526020600020601f840160051c810160208510610855575b601f830160051c82018110610849575050610549565b60008155600101610833565b5080610833565b015190503880610505565b9250600385016000526020600020906000935b601f19841685106108be576001945083601f198116106108a5575b505050811b01600383015561051d565b015160001960f88460031b161c19169055388080610895565b8181015183556020948501946001909301929091019061087a565b909150600385016000526020600020601f840160051c810160208510610925575b90849392915b601f830160051c820181106109165750506104ee565b60008155859450600101610900565b50806108fa565b0151905038806104a8565b9250600285016000526020600020906000935b601f198416851061098e576001945083601f19811610610975575b505050811b0160028301556104c0565b015160001960f88460031b161c19169055388080610965565b8181015183556020948501946001909301929091019061094a565b909150600285016000526020600020601f840160051c8101602085106109f5575b90849392915b601f830160051c820181106109e6575050610491565b600081558594506001016109d0565b50806109ca565b01519050388061044b565b9250600185016000526020600020906000935b601f1984168510610a5e576001945083601f19811610610a45575b505050811b016001830155610463565b015160001960f88460031b161c19169055388080610a35565b81810151835560209485019460019093019290910190610a1a565b909150600185016000526020600020601f840160051c810160208510610ac5575b90849392915b601f830160051c82018110610ab6575050610434565b60008155859450600101610aa0565b5080610a9a565b0151905038806103f1565b9250846000526020600020906000935b601f1984168510610b28576001945083601f19811610610b0f575b505050811b018255610406565b015160001960f88460031b161c19169055388080610b02565b81810151835560209485019460019093019290910190610ae7565b909150846000526020600020601f840160051c810160208510610b8c575b90849392915b601f830160051c82018110610b7d5750506103da565b60008155859450600101610b67565b5080610b61565b62461bcd60e51b815260206004820152600b60248201526a139bdd081cdd195dd85c9960aa1b6044820152606490fd5b600435906001600160a01b03821682036100a357565b9181601f840112156100a3578235916001600160401b0383116100a357602083818601950101116100a357565b90600182811c92168015610c36575b6020831014610c2057565b634e487b7160e01b600052602260045260246000fd5b91607f1691610c15565b60c081019081106001600160401b038211176106bd57604052565b90601f801991011681019081106001600160401b038211176106bd57604052565b9060405191826000825492610c9084610c06565b908184526001948581169081600014610cff5750600114610cbc575b5050610cba92500383610c5b565b565b9093915060005260209081600020936000915b818310610ce7575050610cba93508201013880610cac565b85548884018501529485019487945091830191610ccf565b915050610cba94506020925060ff191682840152151560051b8201013880610cac565b919082519283825260005b848110610d4e575050826000602080949584010152601f8019910116010190565b602081830181015184830182015201610d2d565b949193610da5610dc194610d97610dcf9997610d89610db39660c08c5260c08c0190610d22565b908a820360208c0152610d22565b9088820360408a0152610d22565b908682036060880152610d22565b908482036080860152610d22565b9160a0818403910152610d22565b90565b600254811015610e095760026000527f405787fa12a823e0f2b7631cc41b3ba8828b3321ca811111fa75cd3aa3bb5ace0190600090565b634e487b7160e01b600052603260045260246000fd5b9291926001600160401b0382116106bd5760405191610e48601f8201601f191660200184610c5b565b8294818452818301116100a3578281602093846000960137010152565b908060209392818452848401376000828201840152601f01601f191601019056fea2646970667358221220cadba8e0916b4c03c201a664e94eb2319232789818a0846ae79b8d93176d2f0464736f6c63430008140033",
  "linkReferences": {},
  "deployedLinkReferences": {}
}