{
  "_format": "hh-sol-artifact-1",
  "contractName": "TerrainDriftSignal",
  "sourceName": "contracts/manifest/TerrainDriftSignal.sol",
  "abi": [
    {
      "inputs": [],
      "stateMutability": "nonpayable",
      "type": "constructor"
    },
    {
      "anonymous": false,
      "inputs": [
        {
          "indexed": false,
          "internalType": "string",
          "name": "glyph",
          "type": "string"
        },
        {
          "indexed": false,
          "internalType": "string",
          "name": "driftSignal",
          "type": "string"
        },
        {
          "indexed": false,
          "internalType": "string",
          "name": "sanctum",
          "type": "string"
        },
        {
          "indexed": false,
          "internalType": "string",
          "name": "choreography",
          "type": "string"
        },
        {
          "indexed": false,
          "internalType": "string",
          "name": "chant",
          "type": "string"
        }
      ],
      "name": "DriftSignalRouted",
      "type": "event"
    },
    {
      "inputs": [
        {
          "internalType": "string",
          "name": "glyph",
          "type": "string"
        }
      ],
      "name": "getRoute",
      "outputs": [
        {
          "components": [
            {
              "internalType": "string",
              "name": "glyph",
              "type": "string"
            },
            {
              "internalType": "string",
              "name": "driftSignal",
              "type": "string"
            },
            {
              "internalType": "string",
              "name": "sanctum",
              "type": "string"
            },
            {
              "internalType": "string",
              "name": "choreography",
              "type": "string"
            },
            {
              "internalType": "string",
              "name": "chant",
              "type": "string"
            }
          ],
          "internalType": "struct TerrainDriftSignal.Route",
          "name": "",
          "type": "tuple"
        }
      ],
      "stateMutability": "view",
      "type": "function"
    },
    {
      "inputs": [
        {
          "internalType": "uint256",
          "name": "",
          "type": "uint256"
        }
      ],
      "name": "keys",
      "outputs": [
        {
          "internalType": "string",
          "name": "",
          "type": "string"
        }
      ],
      "stateMutability": "view",
      "type": "function"
    },
    {
      "inputs": [
        {
          "internalType": "string",
          "name": "glyph",
          "type": "string"
        },
        {
          "internalType": "string",
          "name": "driftSignal",
          "type": "string"
        },
        {
          "internalType": "string",
          "name": "sanctum",
          "type": "string"
        },
        {
          "internalType": "string",
          "name": "choreography",
          "type": "string"
        },
        {
          "internalType": "string",
          "name": "chant",
          "type": "string"
        }
      ],
      "name": "routeDriftSignal",
      "outputs": [],
      "stateMutability": "nonpayable",
      "type": "function"
    },
    {
      "inputs": [
        {
          "internalType": "string",
          "name": "",
          "type": "string"
        }
      ],
      "name": "routes",
      "outputs": [
        {
          "internalType": "string",
          "name": "glyph",
          "type": "string"
        },
        {
          "internalType": "string",
          "name": "driftSignal",
          "type": "string"
        },
        {
          "internalType": "string",
          "name": "sanctum",
          "type": "string"
        },
        {
          "internalType": "string",
          "name": "choreography",
          "type": "string"
        },
        {
          "internalType": "string",
          "name": "chant",
          "type": "string"
        }
      ],
      "stateMutability": "view",
      "type": "function"
    },
    {
      "inputs": [],
      "name": "steward",
      "outputs": [
        {
          "internalType": "address",
          "name": "",
          "type": "address"
        }
      ],
      "stateMutability": "view",
      "type": "function"
    },
    {
      "inputs": [],
      "name": "totalRoutes",
      "outputs": [
        {
          "internalType": "uint256",
          "name": "",
          "type": "uint256"
        }
      ],
      "stateMutability": "view",
      "type": "function"
    }
  ],
  "bytecode": "0x6080806040523461002857600080546001600160a01b03191633179055610d3c908161002e8239f35b600080fdfe608080604052600436101561001357600080fd5b60003560e01c90816305a2d3ac14610a52575080630cb6aaf114610a075780631b5f03a6146108c0578063637eea1914610897578063a4761c23146101645763cffbffb51461006157600080fd5b3461015f57602036600319011261015f576004356001600160401b03811161015f573660238201121561015f576100bd60206100aa610123933690602481600401359101610c4b565b8160405193828580945193849201610bd6565b8101600181520301902061015b6100d382610b30565b9161014d6100e360018301610b30565b9161013f6100f360028301610b30565b61013161010e600461010760038701610b30565b9501610b30565b95604051998a9960a08b5260a08b0190610bf9565b9089820360208b0152610bf9565b908782036040890152610bf9565b908582036060870152610bf9565b908382036080850152610bf9565b0390f35b600080fd5b3461015f5760a036600319011261015f576004356001600160401b03811161015f57610194903690600401610c1e565b6024356001600160401b03811161015f576101b3903690600401610c1e565b906044356001600160401b03811161015f576101d3903690600401610c1e565b906064356001600160401b03811161015f576101f3903690600401610c1e565b9190926084356001600160401b03811161015f57610215903690600401610c1e565b60005491979096916001600160a01b031633036108645760405161023881610af4565b610243368b8d610c4b565b8152610250368385610c4b565b6020820152610260368587610c4b565b6040820152610270368789610c4b565b606082015261028036898b610c4b565b60808201526040518a8c82376020818c810160018152030190209080518051906001600160401b0382116105d85781906102c4826102be8754610aba565b87610c91565b602090601f83116001146107f8576000926107ed575b50508160011b916000199060031b1c19161782555b60208101518051906001600160401b0382116105d8578190610321826103186001880154610aba565b60018801610c91565b602090601f831160011461077b57600092610770575b50508160011b916000199060031b1c19161760018301555b60408101518051906001600160401b0382116105d8578190610381826103786002880154610aba565b60028801610c91565b602090601f83116001146106fe576000926106f3575b50508160011b916000199060031b1c19161760028301555b60608101518051906001600160401b0382116105d8576103df826103d66003870154610aba565b60038701610c91565b602090601f831160011461068057608093929160009183610675575b50508160011b916000199060031b1c19161760038401555b0151908151906001600160401b0382116105d8576004829101926104418261043b8654610aba565b86610c91565b602090601f831160011461060f57600092610604575b50508160011b916000199060031b1c19161790555b600254680100000000000000008110156105d8578060016104909201600255610a6d565b6105ee576001600160401b038a116105d8576104b68a6104b08354610aba565b83610c91565b896000601f821160011461057157600091610566575b508a60011b906000198c60031b1c19161790555b604051998a9960a08b5260a08b01906104f892610ce5565b9089820360208b015261050a92610ce5565b90878203604089015261051c92610ce5565b90858203606087015261052e92610ce5565b90838203608085015261054092610ce5565b037fee8e5764673f7446f1463c08f6f03c765c9caa43011c20540ec0a317feecfa4291a1005b90508b01358c6104cc565b60008381526020812092505b8d601f198e1682106105c05750508b601f198116106105a6575b505060018a811b0190556104e0565b8c013560001960038d901b60f8161c191690558b80610597565b6001839460209394849301358155019301910161057d565b634e487b7160e01b600052604160045260246000fd5b634e487b7160e01b600052600060045260246000fd5b015190508d80610457565b6000858152602081209350601f198516905b81811061065d5750908460019594939210610644575b505050811b01905561046c565b015160001960f88460031b161c191690558d8080610637565b92936020600181928786015181550195019301610621565b015190508f806103fb565b906003850160005260206000209160005b601f19851681106106db575091839160019360809695601f198116106106c2575b505050811b016003840155610413565b015160001960f88460031b161c191690558f80806106b2565b91926020600181928685015181550194019201610691565b015190508e80610397565b9250600285016000526020600020906000935b601f1984168510610755576001945083601f1981161061073c575b505050811b0160028301556103af565b015160001960f88460031b161c191690558e808061072c565b81810151835560209485019460019093019290910190610711565b015190508e80610337565b9250600185016000526020600020906000935b601f19841685106107d2576001945083601f198116106107b9575b505050811b01600183015561034f565b015160001960f88460031b161c191690558e80806107a9565b8181015183556020948501946001909301929091019061078e565b015190508e806102da565b9250846000526020600020906000935b601f1984168510610849576001945083601f19811610610830575b505050811b0182556102ef565b015160001960f88460031b161c191690558e8080610823565b81810151835560209485019460019093019290910190610808565b60405162461bcd60e51b815260206004820152600b60248201526a139bdd081cdd195dd85c9960aa1b6044820152606490fd5b3461015f57600036600319011261015f576000546040516001600160a01b039091168152602090f35b3461015f5760208060031936011261015f57600435906001600160401b03821161015f5761015b816108f86080943690600401610c1e565b919060405161090681610af4565b606096818880935282858201528260408201528280820152015282604051938492833781016001815203019020926040519361094185610af4565b61094a81610b30565b85526109f661095b60018301610b30565b918587019283526109e561097160028301610b30565b60408901908152610996600461098960038601610b30565b94888c0195865201610b30565b9560808a019687526109d46109be8a60a06040519d8e9d8e5251918d015260c08c0190610bf9565b965196601f1997888c83030160408d0152610bf9565b915190868a840301908a0152610bf9565b905183878303016080880152610bf9565b9151908483030160a0850152610bf9565b3461015f57602036600319011261015f5760043560025481101561015f57610a2e90610a6d565b6105ee57610a3e61015b91610b30565b604051918291602083526020830190610bf9565b3461015f57600036600319011261015f576020906002548152f35b600254811015610aa45760026000527f405787fa12a823e0f2b7631cc41b3ba8828b3321ca811111fa75cd3aa3bb5ace0190600090565b634e487b7160e01b600052603260045260246000fd5b90600182811c92168015610aea575b6020831014610ad457565b634e487b7160e01b600052602260045260246000fd5b91607f1691610ac9565b60a081019081106001600160401b038211176105d857604052565b90601f801991011681019081106001600160401b038211176105d857604052565b9060405191826000825492610b4484610aba565b908184526001948581169081600014610bb35750600114610b70575b5050610b6e92500383610b0f565b565b9093915060005260209081600020936000915b818310610b9b575050610b6e93508201013880610b60565b85548884018501529485019487945091830191610b83565b915050610b6e94506020925060ff191682840152151560051b8201013880610b60565b60005b838110610be95750506000910152565b8181015183820152602001610bd9565b90602091610c1281518092818552858086019101610bd6565b601f01601f1916010190565b9181601f8401121561015f578235916001600160401b03831161015f576020838186019501011161015f57565b9291926001600160401b0382116105d85760405191610c74601f8201601f191660200184610b0f565b82948184528183011161015f578281602093846000960137010152565b90601f8111610c9f57505050565b600091825260208220906020601f850160051c83019410610cdb575b601f0160051c01915b828110610cd057505050565b818155600101610cc4565b9092508290610cbb565b908060209392818452848401376000828201840152601f01601f191601019056fea26469706673582212204b20a2e7ea5a2b397a0177816881d0649f4b7a119869d5bb98a41d553016af9364736f6c63430008140033",
  "linkReferences": {},
  "deployedLinkReferences": {}
}