{
  "_format": "hh-sol-artifact-1",
  "contractName": "ApprenticeSummonerXXI",
  "sourceName": "contracts/registry/ApprenticeSummonerXXI.sol",
  "abi": [
    {
      "inputs": [],
      "stateMutability": "nonpayable",
      "type": "constructor"
    },
    {
      "anonymous": false,
      "inputs": [
        {
          "indexed": true,
          "internalType": "address",
          "name": "apprentice",
          "type": "address"
        },
        {
          "indexed": false,
          "internalType": "string",
          "name": "name",
          "type": "string"
        },
        {
          "indexed": false,
          "internalType": "string",
          "name": "signal",
          "type": "string"
        },
        {
          "indexed": false,
          "internalType": "string",
          "name": "drift",
          "type": "string"
        },
        {
          "indexed": false,
          "internalType": "string",
          "name": "pulse",
          "type": "string"
        },
        {
          "indexed": false,
          "internalType": "string",
          "name": "codexRef",
          "type": "string"
        },
        {
          "indexed": false,
          "internalType": "string",
          "name": "resonance",
          "type": "string"
        },
        {
          "indexed": false,
          "internalType": "string",
          "name": "signature",
          "type": "string"
        },
        {
          "indexed": false,
          "internalType": "string",
          "name": "sanctum",
          "type": "string"
        },
        {
          "indexed": false,
          "internalType": "string",
          "name": "chant",
          "type": "string"
        },
        {
          "indexed": false,
          "internalType": "string",
          "name": "choreography",
          "type": "string"
        },
        {
          "indexed": false,
          "internalType": "string",
          "name": "stewardName",
          "type": "string"
        },
        {
          "indexed": false,
          "internalType": "string",
          "name": "echo",
          "type": "string"
        },
        {
          "indexed": false,
          "internalType": "string",
          "name": "choreographyType",
          "type": "string"
        },
        {
          "indexed": false,
          "internalType": "string",
          "name": "signalType",
          "type": "string"
        },
        {
          "indexed": false,
          "internalType": "string",
          "name": "stewardSignal",
          "type": "string"
        },
        {
          "indexed": false,
          "internalType": "string",
          "name": "signalChoreography",
          "type": "string"
        },
        {
          "indexed": false,
          "internalType": "string",
          "name": "driftSignal",
          "type": "string"
        },
        {
          "indexed": false,
          "internalType": "string",
          "name": "stewardPulse",
          "type": "string"
        }
      ],
      "name": "ApprenticeSummoned",
      "type": "event"
    },
    {
      "inputs": [
        {
          "internalType": "uint256",
          "name": "",
          "type": "uint256"
        }
      ],
      "name": "apprentices",
      "outputs": [
        {
          "internalType": "address",
          "name": "",
          "type": "address"
        }
      ],
      "stateMutability": "view",
      "type": "function"
    },
    {
      "inputs": [
        {
          "internalType": "address",
          "name": "apprentice",
          "type": "address"
        }
      ],
      "name": "getSummons",
      "outputs": [
        {
          "components": [
            {
              "internalType": "string",
              "name": "name",
              "type": "string"
            },
            {
              "internalType": "string",
              "name": "signal",
              "type": "string"
            },
            {
              "internalType": "string",
              "name": "drift",
              "type": "string"
            },
            {
              "internalType": "string",
              "name": "pulse",
              "type": "string"
            },
            {
              "internalType": "string",
              "name": "codexRef",
              "type": "string"
            },
            {
              "internalType": "string",
              "name": "resonance",
              "type": "string"
            },
            {
              "internalType": "string",
              "name": "signature",
              "type": "string"
            },
            {
              "internalType": "string",
              "name": "sanctum",
              "type": "string"
            },
            {
              "internalType": "string",
              "name": "chant",
              "type": "string"
            },
            {
              "internalType": "string",
              "name": "choreography",
              "type": "string"
            },
            {
              "internalType": "string",
              "name": "stewardName",
              "type": "string"
            },
            {
              "internalType": "string",
              "name": "echo",
              "type": "string"
            },
            {
              "internalType": "string",
              "name": "choreographyType",
              "type": "string"
            },
            {
              "internalType": "string",
              "name": "signalType",
              "type": "string"
            },
            {
              "internalType": "string",
              "name": "stewardSignal",
              "type": "string"
            },
            {
              "internalType": "string",
              "name": "signalChoreography",
              "type": "string"
            },
            {
              "internalType": "string",
              "name": "driftSignal",
              "type": "string"
            },
            {
              "internalType": "string",
              "name": "stewardPulse",
              "type": "string"
            }
          ],
          "internalType": "struct ApprenticeSummonerXXI.Summons",
          "name": "",
          "type": "tuple"
        }
      ],
      "stateMutability": "view",
      "type": "function"
    },
    {
      "inputs": [],
      "name": "steward",
      "outputs": [
        {
          "internalType": "address",
          "name": "",
          "type": "address"
        }
      ],
      "stateMutability": "view",
      "type": "function"
    },
    {
      "inputs": [
        {
          "internalType": "address",
          "name": "apprentice",
          "type": "address"
        },
        {
          "internalType": "string",
          "name": "name",
          "type": "string"
        },
        {
          "internalType": "string",
          "name": "signal",
          "type": "string"
        },
        {
          "internalType": "string",
          "name": "drift",
          "type": "string"
        },
        {
          "internalType": "string",
          "name": "pulse",
          "type": "string"
        },
        {
          "internalType": "string",
          "name": "codexRef",
          "type": "string"
        },
        {
          "internalType": "string",
          "name": "resonance",
          "type": "string"
        },
        {
          "internalType": "string",
          "name": "signature",
          "type": "string"
        },
        {
          "internalType": "string",
          "name": "sanctum",
          "type": "string"
        },
        {
          "internalType": "string",
          "name": "chant",
          "type": "string"
        },
        {
          "internalType": "string",
          "name": "choreography",
          "type": "string"
        },
        {
          "internalType": "string",
          "name": "stewardName",
          "type": "string"
        },
        {
          "internalType": "string",
          "name": "echo",
          "type": "string"
        },
        {
          "internalType": "string",
          "name": "choreographyType",
          "type": "string"
        },
        {
          "internalType": "string",
          "name": "signalType",
          "type": "string"
        },
        {
          "internalType": "string",
          "name": "stewardSignal",
          "type": "string"
        },
        {
          "internalType": "string",
          "name": "signalChoreography",
          "type": "string"
        },
        {
          "internalType": "string",
          "name": "driftSignal",
          "type": "string"
        },
        {
          "internalType": "string",
          "name": "stewardPulse",
          "type": "string"
        }
      ],
      "name": "summonApprentice",
      "outputs": [],
      "stateMutability": "nonpayable",
      "type": "function"
    },
    {
      "inputs": [
        {
          "internalType": "address",
          "name": "",
          "type": "address"
        }
      ],
      "name": "summons",
      "outputs": [
        {
          "internalType": "string",
          "name": "name",
          "type": "string"
        },
        {
          "internalType": "string",
          "name": "signal",
          "type": "string"
        },
        {
          "internalType": "string",
          "name": "drift",
          "type": "string"
        },
        {
          "internalType": "string",
          "name": "pulse",
          "type": "string"
        },
        {
          "internalType": "string",
          "name": "codexRef",
          "type": "string"
        },
        {
          "internalType": "string",
          "name": "resonance",
          "type": "string"
        },
        {
          "internalType": "string",
          "name": "signature",
          "type": "string"
        },
        {
          "internalType": "string",
          "name": "sanctum",
          "type": "string"
        },
        {
          "internalType": "string",
          "name": "chant",
          "type": "string"
        },
        {
          "internalType": "string",
          "name": "choreography",
          "type": "string"
        },
        {
          "internalType": "string",
          "name": "stewardName",
          "type": "string"
        },
        {
          "internalType": "string",
          "name": "echo",
          "type": "string"
        },
        {
          "internalType": "string",
          "name": "choreographyType",
          "type": "string"
        },
        {
          "internalType": "string",
          "name": "signalType",
          "type": "string"
        },
        {
          "internalType": "string",
          "name": "stewardSignal",
          "type": "string"
        },
        {
          "internalType": "string",
          "name": "signalChoreography",
          "type": "string"
        },
        {
          "internalType": "string",
          "name": "driftSignal",
          "type": "string"
        },
        {
          "internalType": "string",
          "name": "stewardPulse",
          "type": "string"
        }
      ],
      "stateMutability": "view",
      "type": "function"
    },
    {
      "inputs": [],
      "name": "totalSummons",
      "outputs": [
        {
          "internalType": "uint256",
          "name": "",
          "type": "uint256"
        }
      ],
      "stateMutability": "view",
      "type": "function"
    }
  ],
  "bytecode": "0x6080806040523461002857600080546001600160a01b031916331790556126dc908161002e8239f35b600080fdfe61060080604052600436101561001457600080fd5b60003560e01c9081632a17d4cd14612437575080635a2ed6621461216f578063637eea1914612146578063cf84c60314611d72578063e865c0d5146100a95763f31bee3e1461006257600080fd5b346100a45760203660031901126100a4576004356002548110156100a45761008b6020916125f2565b905460405160039290921b1c6001600160a01b03168152f35b600080fd5b346100a4576102603660031901126100a4576100c3612452565b610300526024356001600160401b0381116100a4576100e69036906004016125c5565b610400526103a0526044356001600160401b0381116100a45761010d9036906004016125c5565b61018052610200526064356001600160401b0381116100a4576101349036906004016125c5565b61048052610260526084356001600160401b0381116100a45761015b9036906004016125c5565b610100526105e05260a4356001600160401b0381116100a4576101829036906004016125c5565b610360526105005260c4356001600160401b0381116100a4576101a99036906004016125c5565b6104e0526102805260e4356001600160401b0381116100a4576101d09036906004016125c5565b610240526102c0526001600160401b0361010435116100a4576101f936610104356004016125c5565b61046052610160526001600160401b0361012435116100a45761022236610124356004016125c5565b6101e05260a0526001600160401b0361014435116100a45761024a36610144356004016125c5565b6101a052610220526001600160401b0361016435116100a45761027336610164356004016125c5565b6080526101c052610184356001600160401b0381116100a45761029a9036906004016125c5565b61038052610560526101a4356001600160401b0381116100a4576102c29036906004016125c5565b6102e0526102a0526101c4356001600160401b0381116100a4576102ea9036906004016125c5565b610420526104c0526101e4356001600160401b0381116100a4576103129036906004016125c5565b6104405261034052610204356001600160401b0381116100a45761033a9036906004016125c5565b6103e05260c052610224356001600160401b0381116100a4576103619036906004016125c5565b6105405261014052610244356001600160401b0381116100a4576103899036906004016125c5565b60e0526105c0526000546001600160a01b03163303611d3f576103b2604051806103c0526124a2565b6103c336610400516103a05161263f565b6103c051526103d936610180516102005161263f565b60206103c05101526103f236610480516102605161263f565b60406103c051015261040b36610100516105e05161263f565b60606103c051015261042436610360516105005161263f565b60806103c051015261043d366104e0516102805161263f565b60a06103c051015261045636610240516102c05161263f565b60c06103c051015261046f36610460516101605161263f565b60e06103c0510152610487366101e05160a05161263f565b6101006103c05101526104a1366101a0516102205161263f565b6101206103c05101526104ba366080516101c05161263f565b6101406103c05101526104d436610380516105605161263f565b6101606103c05101526104ee366102e0516102a05161263f565b6101806103c051015261050836610420516104c05161263f565b6101a06103c051015261052236610440516103405161263f565b6101c06103c051015261053b366103e05160c05161263f565b6101e06103c051015261055536610540516101405161263f565b6102006103c051015261056e3660e0516105c05161263f565b6102206103c051015260018060a01b036103005116600052600160205260406000206103c051519081516001600160401b038111610edb576105b08254612468565b601f8111611cfb575b506020601f8211600114611c9657819293600092611c8b575b50508160011b916000199060031b1c19161781555b60206103c05101519081516001600160401b038111610edb5761060d6001830154612468565b601f8111611c44575b506020601f8211600114611bd957819293600092611bce575b50508160011b916000199060031b1c19161760018201555b60406103c05101519081516001600160401b038111610edb5761066d6002830154612468565b601f8111611b87575b506020601f8211600114611b1c57819293600092611b11575b50508160011b916000199060031b1c19161760028201555b60606103c05101518051906001600160401b038211610edb5781906106cf6003850154612468565b601f8111611abe575b50602090601f8311600114611a4c57600092611a41575b50508160011b916000199060031b1c19161760038201555b60806103c05101518051906001600160401b038211610edb57819061072f6004850154612468565b601f81116119ee575b50602090601f831160011461197c57600092611971575b50508160011b916000199060031b1c19161760048201555b60a06103c05101518051906001600160401b038211610edb57819061078f6005850154612468565b601f811161191e575b50602090601f83116001146118ac576000926118a1575b50508160011b916000199060031b1c19161760058201555b60c06103c05101518051906001600160401b038211610edb5781906107ef6006850154612468565b601f811161184e575b50602090601f83116001146117dc576000926117d1575b50508160011b916000199060031b1c19161760068201555b60e06103c05101518051906001600160401b038211610edb57819061084f6007850154612468565b601f811161177e575b50602090601f831160011461170c57600092611701575b50508160011b916000199060031b1c19161760078201555b6101006103c05101518051906001600160401b038211610edb5781906108b06008850154612468565b601f81116116ae575b50602090601f831160011461163c57600092611631575b50508160011b916000199060031b1c19161760088201555b6101206103c05101518051906001600160401b038211610edb5781906109116009850154612468565b601f81116115de575b50602090601f831160011461156c57600092611561575b50508160011b916000199060031b1c19161760098201555b6101406103c05101518051906001600160401b038211610edb578190610972600a850154612468565b601f811161150e575b50602090601f831160011461149c57600092611491575b50508160011b916000199060031b1c191617600a8201555b6101606103c05101518051906001600160401b038211610edb5781906109d3600b850154612468565b601f811161143e575b50602090601f83116001146113cc576000926113c1575b50508160011b916000199060031b1c191617600b8201555b6101806103c05101518051906001600160401b038211610edb578190610a34600c850154612468565b601f811161136e575b50602090601f83116001146112fc576000926112f1575b50508160011b916000199060031b1c191617600c8201555b6101a06103c05101518051906001600160401b038211610edb578190610a95600d850154612468565b601f811161129e575b50602090601f831160011461122c57600092611221575b50508160011b916000199060031b1c191617600d8201555b6101c06103c05101518051906001600160401b038211610edb578190610af6600e850154612468565b601f81116111ce575b50602090601f831160011461115c57600092611151575b50508160011b916000199060031b1c191617600e8201555b6101e06103c05101518051906001600160401b038211610edb578190610b57600f850154612468565b601f81116110fe575b50602090601f831160011461108c57600092611081575b50508160011b916000199060031b1c191617600f8201555b6102006103c05101518051906001600160401b038211610edb578190610bb86010850154612468565b601f811161102e575b50602090601f8311600114610fbc57600092610fb1575b50508160011b916000199060031b1c19161760108201555b6102206103c05101518051906001600160401b038211610edb57610c176011840154612468565b601f8111610f6a575b50602090601f8311600114610efc576011929160009183610ef1575b50508160011b916000199060031b1c1916179101555b60025468010000000000000000811015610edb57806001610c7692016002556125f2565b81549060031b9060018060a01b036103005116821b9160018060a01b03901b1916179055610240604051806104a05252610e84610e6a610e51610e37610e1d610e03610de9610dd0610db6610d9d610d84610d6b610d52610d39610d20610d07610cee6102406104a05101610400516103a051612685565b6104a05160208183039101526101805161020051612685565b6104a05160408183039101526104805161026051612685565b6104a0516060818303910152610100516105e051612685565b6104a05160808183039101526103605161050051612685565b6104a05160a08183039101526104e05161028051612685565b6104a05160c0818303910152610240516102c051612685565b6104a05160e08183039101526104605161016051612685565b6104a0516101008183039101526101e05160a051612685565b6104a0516101208183039101526101a05161022051612685565b6104a0516101408183039101526080516101c051612685565b6104a0516101608183039101526103805161056051612685565b6104a0516101808183039101526102e0516102a051612685565b6104a0516101a0818303910152610420516104c051612685565b6104a0516101c08183039101526104405161034051612685565b6104a0516101e08183039101526103e05160c051612685565b6104a0516102008183039101526105405161014051612685565b6104a0516102208183039101527f5781a5dfc0e1304add5d3350b3ff3300721e78cc9181dcc9f54fd7114a3a1aeb60018060a01b03610300511691610ed36104a0519160e0516105c051612685565b036104a051a2005b634e487b7160e01b600052604160045260246000fd5b015190508480610c3c565b90601184016000526020600020916000601f198516905b818110610f5257509160019391856011969410610f39575b505050811b01910155610c52565b015160001960f88460031b161c19169055848080610f2b565b92936020600181928786015181550195019301610f13565b601184016000526020600020601f840160051c810160208510610faa575b601f830160051c82018110610f9e575050610c20565b60008155600101610f88565b5080610f88565b015190508380610bd8565b9250601084016000526020600020906000935b601f1984168510611013576001945083601f19811610610ffa575b505050811b016010820155610bf0565b015160001960f88460031b161c19169055838080610fea565b81810151835560209485019460019093019290910190610fcf565b909150601084016000526020600020601f840160051c81016020851061107a575b90849392915b601f830160051c8201811061106b575050610bc1565b60008155859450600101611055565b508061104f565b015190508380610b77565b9250600f84016000526020600020906000935b601f19841685106110e3576001945083601f198116106110ca575b505050811b01600f820155610b8f565b015160001960f88460031b161c191690558380806110ba565b8181015183556020948501946001909301929091019061109f565b909150600f84016000526020600020601f840160051c81016020851061114a575b90849392915b601f830160051c8201811061113b575050610b60565b60008155859450600101611125565b508061111f565b015190508380610b16565b9250600e84016000526020600020906000935b601f19841685106111b3576001945083601f1981161061119a575b505050811b01600e820155610b2e565b015160001960f88460031b161c1916905583808061118a565b8181015183556020948501946001909301929091019061116f565b909150600e84016000526020600020601f840160051c81016020851061121a575b90849392915b601f830160051c8201811061120b575050610aff565b600081558594506001016111f5565b50806111ef565b015190508380610ab5565b9250600d84016000526020600020906000935b601f1984168510611283576001945083601f1981161061126a575b505050811b01600d820155610acd565b015160001960f88460031b161c1916905583808061125a565b8181015183556020948501946001909301929091019061123f565b909150600d84016000526020600020601f840160051c8101602085106112ea575b90849392915b601f830160051c820181106112db575050610a9e565b600081558594506001016112c5565b50806112bf565b015190508380610a54565b9250600c84016000526020600020906000935b601f1984168510611353576001945083601f1981161061133a575b505050811b01600c820155610a6c565b015160001960f88460031b161c1916905583808061132a565b8181015183556020948501946001909301929091019061130f565b909150600c84016000526020600020601f840160051c8101602085106113ba575b90849392915b601f830160051c820181106113ab575050610a3d565b60008155859450600101611395565b508061138f565b0151905083806109f3565b9250600b84016000526020600020906000935b601f1984168510611423576001945083601f1981161061140a575b505050811b01600b820155610a0b565b015160001960f88460031b161c191690558380806113fa565b818101518355602094850194600190930192909101906113df565b909150600b84016000526020600020601f840160051c81016020851061148a575b90849392915b601f830160051c8201811061147b5750506109dc565b60008155859450600101611465565b508061145f565b015190508380610992565b9250600a84016000526020600020906000935b601f19841685106114f3576001945083601f198116106114da575b505050811b01600a8201556109aa565b015160001960f88460031b161c191690558380806114ca565b818101518355602094850194600190930192909101906114af565b909150600a84016000526020600020601f840160051c81016020851061155a575b90849392915b601f830160051c8201811061154b57505061097b565b60008155859450600101611535565b508061152f565b015190508380610931565b9250600984016000526020600020906000935b601f19841685106115c3576001945083601f198116106115aa575b505050811b016009820155610949565b015160001960f88460031b161c1916905583808061159a565b8181015183556020948501946001909301929091019061157f565b909150600984016000526020600020601f840160051c81016020851061162a575b90849392915b601f830160051c8201811061161b57505061091a565b60008155859450600101611605565b50806115ff565b0151905083806108d0565b9250600884016000526020600020906000935b601f1984168510611693576001945083601f1981161061167a575b505050811b0160088201556108e8565b015160001960f88460031b161c1916905583808061166a565b8181015183556020948501946001909301929091019061164f565b909150600884016000526020600020601f840160051c8101602085106116fa575b90849392915b601f830160051c820181106116eb5750506108b9565b600081558594506001016116d5565b50806116cf565b01519050838061086f565b9250600784016000526020600020906000935b601f1984168510611763576001945083601f1981161061174a575b505050811b016007820155610887565b015160001960f88460031b161c1916905583808061173a565b8181015183556020948501946001909301929091019061171f565b909150600784016000526020600020601f840160051c8101602085106117ca575b90849392915b601f830160051c820181106117bb575050610858565b600081558594506001016117a5565b508061179f565b01519050838061080f565b9250600684016000526020600020906000935b601f1984168510611833576001945083601f1981161061181a575b505050811b016006820155610827565b015160001960f88460031b161c1916905583808061180a565b818101518355602094850194600190930192909101906117ef565b909150600684016000526020600020601f840160051c81016020851061189a575b90849392915b601f830160051c8201811061188b5750506107f8565b60008155859450600101611875565b508061186f565b0151905083806107af565b9250600584016000526020600020906000935b601f1984168510611903576001945083601f198116106118ea575b505050811b0160058201556107c7565b015160001960f88460031b161c191690558380806118da565b818101518355602094850194600190930192909101906118bf565b909150600584016000526020600020601f840160051c81016020851061196a575b90849392915b601f830160051c8201811061195b575050610798565b60008155859450600101611945565b508061193f565b01519050838061074f565b9250600484016000526020600020906000935b601f19841685106119d3576001945083601f198116106119ba575b505050811b016004820155610767565b015160001960f88460031b161c191690558380806119aa565b8181015183556020948501946001909301929091019061198f565b909150600484016000526020600020601f840160051c810160208510611a3a575b90849392915b601f830160051c82018110611a2b575050610738565b60008155859450600101611a15565b5080611a0f565b0151905083806106ef565b9250600384016000526020600020906000935b601f1984168510611aa3576001945083601f19811610611a8a575b505050811b016003820155610707565b015160001960f88460031b161c19169055838080611a7a565b81810151835560209485019460019093019290910190611a5f565b909150600384016000526020600020601f840160051c810160208510611b0a575b90849392915b601f830160051c82018110611afb5750506106d8565b60008155859450600101611ae5565b5080611adf565b01519050838061068f565b60028301600052602060002090600094601f198416955b868110611b6f5750836001959610611b56575b505050811b0160028201556106a7565b015160001960f88460031b161c19169055838080611b46565b91926020600181928685015181550194019201611b33565b600283016000526020600020601f830160051c810160208410611bc7575b601f830160051c82018110611bbb575050610676565b60008155600101611ba5565b5080611ba5565b01519050838061062f565b60018301600052602060002090600094601f198416955b868110611c2c5750836001959610611c13575b505050811b016001820155610647565b015160001960f88460031b161c19169055838080611c03565b91926020600181928685015181550194019201611bf0565b600183016000526020600020601f830160051c810160208410611c84575b601f830160051c82018110611c78575050610616565b60008155600101611c62565b5080611c62565b0151905083806105d2565b82600052602060002090600094601f198416955b868110611ce35750836001959610611cca575b505050811b0181556105e7565b015160001960f88460031b161c19169055838080611cbd565b91926020600181928685015181550194019201611caa565b826000526020600020601f830160051c810160208410611d38575b601f830160051c82018110611d2c5750506105b9565b60008155600101611d16565b5080611d16565b60405162461bcd60e51b815260206004820152600b60248201526a139bdd081cdd195dd85c9960aa1b6044820152606490fd5b346100a45760203660031901126100a457611d8b612452565b6060610220604051611d9c816124a2565b82815282602082015282604082015282808201528260808201528260a08201528260c08201528260e08201528261010082015282610120820152826101408201528261016082015282610180820152826101a0820152826101c0820152826101e082015282610200820152015260018060a01b031660005260016020526120556040600020611f5d601160405192611e33846124a2565b611e3c816124df565b8452611e4a600182016124df565b6020850152611e5b600282016124df565b6040850152611e6c600382016124df565b6060850152611e7d600482016124df565b6080850152611e8e600582016124df565b60a0850152611e9f600682016124df565b60c0850152611eb0600782016124df565b60e0850152611ec1600882016124df565b610100850152611ed3600982016124df565b610120850152611ee5600a82016124df565b610140850152611ef7600b82016124df565b610160850152611f09600c82016124df565b610180850152611f1b600d82016124df565b6101a0850152611f2d600e82016124df565b6101c0850152611f3f600f82016124df565b6101e0850152611f51601082016124df565b610200850152016124df565b6102208201526121428161022061212d6121176120ff6120e76120cf6120b761209f61208761206f6040519d8e9d8e6020815260e061203f61202a612014611ffe611fe8611fd2611fbc895161024060208b01526102608a0190612585565b60208a0151898203601f190160408b0152612585565b6040890151888203601f190160608a0152612585565b6060880151878203601f19016080890152612585565b6080870151868203601f190160a0880152612585565b60a0860151858203601f190160c0870152612585565b60c0850151848203601f190184860152612585565b92015190610100601f1982850301910152612585565b8d6101008d015190610120601f1982850301910152612585565b6101208b01518d8203601f19016101408f0152612585565b6101408a01518c8203601f19016101608e0152612585565b6101608901518b8203601f19016101808d0152612585565b6101808801518a8203601f19016101a08c0152612585565b6101a0870151898203601f19016101c08b0152612585565b6101c0860151888203601f19016101e08a0152612585565b6101e0850151878203601f1901610200890152612585565b610200840151868203601f190184880152612585565b910151838203601f1901610240850152612585565b0390f35b346100a45760003660031901126100a4576000546040516001600160a01b039091168152602090f35b346100a45760203660031901126100a4576001600160a01b03612190612452565b1660005260016020526040600020806121a8816124df565b6121b4600183016124df565b610320526121c4600283016124df565b610520526121d4600383016124df565b6121e0600484016124df565b6121ec600585016124df565b6121f8600686016124df565b612204600787016124df565b612210600888016124df565b9061221d600989016124df565b9261222a600a8a016124df565b94612237600b8b016124df565b96612244600c8c016124df565b98612251600d8d016124df565b9a61225e600e8e016124df565b9c600f0161226b906124df565b9d612278601082016124df565b61058052601101612288906124df565b61012052604051806105a0526102408091526105a051016122a891612585565b6105a051808203906020015261032051906122c291612585565b6105a051808203906040015261052051906122dc91612585565b6105a05180820390606001526122f191612585565b6105a051808203906080015261230691612585565b6105a0518082039060a0015261231b91612585565b6105a0518082039060c0015261233091612585565b6105a0518082039060e0015261234591612585565b6105a05180820390610100015261235b91612585565b6105a05180820390610120015261237191612585565b6105a05180820390610140015261238791612585565b6105a05180820390610160015261239d91612585565b6105a0518082039061018001526123b391612585565b6105a051808203906101a001526123c991612585565b6105a051808203906101c001526123df91612585565b6105a051808203906101e001526123f591612585565b6105a051808203906102000152610580519061241091612585565b6105a0518082039061022001526105a05190610120519061243091612585565b036105a051f35b346100a45760003660031901126100a4576020906002548152f35b600435906001600160a01b03821682036100a457565b90600182811c92168015612498575b602083101461248257565b634e487b7160e01b600052602260045260246000fd5b91607f1691612477565b61024081019081106001600160401b03821117610edb57604052565b90601f801991011681019081106001600160401b03821117610edb57604052565b90604051918260008254926124f384612468565b908184526001948581169081600014612562575060011461251f575b505061251d925003836124be565b565b9093915060005260209081600020936000915b81831061254a57505061251d9350820101388061250f565b85548884018501529485019487945091830191612532565b91505061251d94506020925060ff191682840152151560051b820101388061250f565b919082519283825260005b8481106125b1575050826000602080949584010152601f8019910116010190565b602081830181015184830182015201612590565b9181601f840112156100a4578235916001600160401b0383116100a457602083818601950101116100a457565b6002548110156126295760026000527f405787fa12a823e0f2b7631cc41b3ba8828b3321ca811111fa75cd3aa3bb5ace0190600090565b634e487b7160e01b600052603260045260246000fd5b9291926001600160401b038211610edb5760405191612668601f8201601f1916602001846124be565b8294818452818301116100a4578281602093846000960137010152565b908060209392818452848401376000828201840152601f01601f191601019056fea2646970667358221220a11b842cb4860b6f1e63781695ef64f1cfca535e8c1c4eb82a47f49b9531c4a864736f6c63430008140033",
  "linkReferences": {},
  "deployedLinkReferences": {}
}