{
  "_format": "hh-sol-artifact-1",
  "contractName": "GLYPHToken",
  "sourceName": "contracts/GLYPHToken.sol",
  "abi": [
    {
      "inputs": [
        {
          "internalType": "address",
          "name": "_codexContract",
          "type": "address"
        }
      ],
      "stateMutability": "nonpayable",
      "type": "constructor"
    },
    {
      "inputs": [
        {
          "internalType": "address",
          "name": "spender",
          "type": "address"
        },
        {
          "internalType": "uint256",
          "name": "allowance",
          "type": "uint256"
        },
        {
          "internalType": "uint256",
          "name": "needed",
          "type": "uint256"
        }
      ],
      "name": "ERC20InsufficientAllowance",
      "type": "error"
    },
    {
      "inputs": [
        {
          "internalType": "address",
          "name": "sender",
          "type": "address"
        },
        {
          "internalType": "uint256",
          "name": "balance",
          "type": "uint256"
        },
        {
          "internalType": "uint256",
          "name": "needed",
          "type": "uint256"
        }
      ],
      "name": "ERC20InsufficientBalance",
      "type": "error"
    },
    {
      "inputs": [
        {
          "internalType": "address",
          "name": "approver",
          "type": "address"
        }
      ],
      "name": "ERC20InvalidApprover",
      "type": "error"
    },
    {
      "inputs": [
        {
          "internalType": "address",
          "name": "receiver",
          "type": "address"
        }
      ],
      "name": "ERC20InvalidReceiver",
      "type": "error"
    },
    {
      "inputs": [
        {
          "internalType": "address",
          "name": "sender",
          "type": "address"
        }
      ],
      "name": "ERC20InvalidSender",
      "type": "error"
    },
    {
      "inputs": [
        {
          "internalType": "address",
          "name": "spender",
          "type": "address"
        }
      ],
      "name": "ERC20InvalidSpender",
      "type": "error"
    },
    {
      "anonymous": false,
      "inputs": [
        {
          "indexed": true,
          "internalType": "address",
          "name": "owner",
          "type": "address"
        },
        {
          "indexed": true,
          "internalType": "address",
          "name": "spender",
          "type": "address"
        },
        {
          "indexed": false,
          "internalType": "uint256",
          "name": "value",
          "type": "uint256"
        }
      ],
      "name": "Approval",
      "type": "event"
    },
    {
      "anonymous": false,
      "inputs": [
        {
          "indexed": true,
          "internalType": "address",
          "name": "from",
          "type": "address"
        },
        {
          "indexed": true,
          "internalType": "address",
          "name": "to",
          "type": "address"
        },
        {
          "indexed": false,
          "internalType": "uint256",
          "name": "value",
          "type": "uint256"
        }
      ],
      "name": "Transfer",
      "type": "event"
    },
    {
      "inputs": [
        {
          "internalType": "address",
          "name": "owner",
          "type": "address"
        },
        {
          "internalType": "address",
          "name": "spender",
          "type": "address"
        }
      ],
      "name": "allowance",
      "outputs": [
        {
          "internalType": "uint256",
          "name": "",
          "type": "uint256"
        }
      ],
      "stateMutability": "view",
      "type": "function"
    },
    {
      "inputs": [
        {
          "internalType": "address",
          "name": "spender",
          "type": "address"
        },
        {
          "internalType": "uint256",
          "name": "value",
          "type": "uint256"
        }
      ],
      "name": "approve",
      "outputs": [
        {
          "internalType": "bool",
          "name": "",
          "type": "bool"
        }
      ],
      "stateMutability": "nonpayable",
      "type": "function"
    },
    {
      "inputs": [
        {
          "internalType": "address",
          "name": "account",
          "type": "address"
        }
      ],
      "name": "balanceOf",
      "outputs": [
        {
          "internalType": "uint256",
          "name": "",
          "type": "uint256"
        }
      ],
      "stateMutability": "view",
      "type": "function"
    },
    {
      "inputs": [],
      "name": "codexContract",
      "outputs": [
        {
          "internalType": "address",
          "name": "",
          "type": "address"
        }
      ],
      "stateMutability": "view",
      "type": "function"
    },
    {
      "inputs": [],
      "name": "decimals",
      "outputs": [
        {
          "internalType": "uint8",
          "name": "",
          "type": "uint8"
        }
      ],
      "stateMutability": "view",
      "type": "function"
    },
    {
      "inputs": [
        {
          "internalType": "address",
          "name": "to",
          "type": "address"
        },
        {
          "internalType": "uint256",
          "name": "glyphId",
          "type": "uint256"
        }
      ],
      "name": "mintGlyph",
      "outputs": [],
      "stateMutability": "nonpayable",
      "type": "function"
    },
    {
      "inputs": [],
      "name": "name",
      "outputs": [
        {
          "internalType": "string",
          "name": "",
          "type": "string"
        }
      ],
      "stateMutability": "view",
      "type": "function"
    },
    {
      "inputs": [],
      "name": "symbol",
      "outputs": [
        {
          "internalType": "string",
          "name": "",
          "type": "string"
        }
      ],
      "stateMutability": "view",
      "type": "function"
    },
    {
      "inputs": [],
      "name": "totalSupply",
      "outputs": [
        {
          "internalType": "uint256",
          "name": "",
          "type": "uint256"
        }
      ],
      "stateMutability": "view",
      "type": "function"
    },
    {
      "inputs": [
        {
          "internalType": "address",
          "name": "to",
          "type": "address"
        },
        {
          "internalType": "uint256",
          "name": "value",
          "type": "uint256"
        }
      ],
      "name": "transfer",
      "outputs": [
        {
          "internalType": "bool",
          "name": "",
          "type": "bool"
        }
      ],
      "stateMutability": "nonpayable",
      "type": "function"
    },
    {
      "inputs": [
        {
          "internalType": "address",
          "name": "from",
          "type": "address"
        },
        {
          "internalType": "address",
          "name": "to",
          "type": "address"
        },
        {
          "internalType": "uint256",
          "name": "value",
          "type": "uint256"
        }
      ],
      "name": "transferFrom",
      "outputs": [
        {
          "internalType": "bool",
          "name": "",
          "type": "bool"
        }
      ],
      "stateMutability": "nonpayable",
      "type": "function"
    }
  ],
  "bytecode": "0x6080346200035657601f906001600160401b0390601f1962000b4b3881900385810183168401858111858210176200025a578492829160405283396020938491810103126200035657516001600160a01b03811693908490036200035657620000676200035b565b600e81526d09af2e8d0d8d2dcca408ed8f2e0d60931b848201526200008b6200035b565b906005968783526408e98b2a0960db1b868401528151928484116200025a5760039384546001948582811c921680156200034b575b8a83101462000335578185849311620002df575b5089908583116001146200027c5760009262000270575b505060001982871b1c191690841b1784555b80519485116200025a5760049687548481811c911680156200024f575b828210146200023a57838111620001f1575b50809286116001146200018557508495509084929160009562000179575b50501b92600019911b1c19161790555b81546001600160a01b0319161790556040516107cf90816200037c8239f35b0151935038806200014a565b939295859081168860005285600020956000905b89838310620001d65750505010620001bb575b50505050811b0190556200015a565b01519060f884600019921b161c1916905538808080620001ac565b85870151895590970196948501948893509081019062000199565b8860005281600020848089018d1c820192848a1062000230575b018c1c019085905b828110620002235750506200012c565b6000815501859062000213565b925081926200020b565b602289634e487b7160e01b6000525260246000fd5b90607f16906200011a565b634e487b7160e01b600052604160045260246000fd5b015190503880620000eb565b908987941691886000528b6000209260005b8d828210620002c85750508411620002af575b505050811b018455620000fd565b015160001983891b60f8161c19169055388080620002a1565b8385015186558a979095019493840193016200028e565b9091508660005289600020858d818601901c8201928c86106200032b575b918e89928796959401901c01915b8281106200031b575050620000d4565b600081558594508891016200030b565b92508192620002fd565b634e487b7160e01b600052602260045260246000fd5b91607f1691620000c0565b600080fd5b60408051919082016001600160401b038111838210176200025a5760405256fe608060408181526004918236101561001657600080fd5b600092833560e01c91826306fdde031461056957508163095ea7b3146104bf57816318160ddd146104a057816323b872dd146103a9578163313ce5671461038d57816369e186291461029757816370a082311461026057816395d89b411461014157508063a9059cbb14610111578063dd62ed3e146100c95763fd7324631461009e57600080fd5b346100c557816003193601126100c55760055490516001600160a01b039091168152602090f35b5080fd5b50346100c557806003193601126100c557806020926100e661068a565b6100ee6106a5565b6001600160a01b0391821683526001865283832091168252845220549051908152f35b50346100c557806003193601126100c55760209061013a61013061068a565b60243590336106bb565b5160018152f35b8383346100c557816003193601126100c557805190828454600181811c90808316928315610256575b60209384841081146102435783885290811561022757506001146101d2575b505050829003601f01601f191682019267ffffffffffffffff8411838510176101bf57508291826101bb925282610641565b0390f35b634e487b7160e01b815260418552602490fd5b8787529192508591837f8a35acfbc15ff81a39ae7d344fd709f28e8600b4aa8c65c6b64bfe7fe36bd19b5b8385106102135750505050830101858080610189565b8054888601830152930192849082016101fd565b60ff1916878501525050151560051b8401019050858080610189565b634e487b7160e01b895260228a52602489fd5b91607f169161016a565b5050346100c55760203660031901126100c55760209181906001600160a01b0361028861068a565b16815280845220549051908152f35b9050346103895781600319360112610389576102b161068a565b6005546001600160a01b03919082163303610350571691821561033a57600254670de0b6b3a764000092838201809211610327575084927fddf252ad1be2c89b69c2b068fc378daa952ba7f163c4a11628f55a4df523b3ef9260209260025585855284835280852082815401905551908152a380f35b634e487b7160e01b865260119052602485fd5b5163ec442f0560e01b8152908101839052602490fd5b835162461bcd60e51b8152602081850152601360248201527213db9b1e4810dbd9195e081b585e481b5a5b9d606a1b6044820152606490fd5b8280fd5b5050346100c557816003193601126100c5576020905160128152f35b9050823461049d57606036600319011261049d576103c561068a565b6103cd6106a5565b916044359360018060a01b038316808352600160205286832033845260205286832054916000198310610409575b60208861013a8989896106bb565b86831061047157811561045a5733156104435750825260016020908152868320338452815291869020908590039055829061013a876103fb565b8751634a1406b160e11b8152908101849052602490fd5b875163e602df0560e01b8152908101849052602490fd5b8751637dc7a0d960e11b8152339181019182526020820193909352604081018790528291506060010390fd5b80fd5b5050346100c557816003193601126100c5576020906002549051908152f35b9050346103895781600319360112610389576104d961068a565b602435903315610552576001600160a01b031691821561053b57508083602095338152600187528181208582528752205582519081527f8c5be1e5ebec7d5bd14f71427d1e84f3dd0314c0f7b2291e5b200ac8c7c3b925843392a35160018152f35b8351634a1406b160e11b8152908101859052602490fd5b835163e602df0560e01b8152808401869052602490fd5b8490843461038957826003193601126103895782600354600181811c90808316928315610637575b60209384841081146102435783885290811561022757506001146105e157505050829003601f01601f191682019267ffffffffffffffff8411838510176101bf57508291826101bb925282610641565b600387529192508591837fc2575a0e9e593c00f959f8c92f12db2869c3395a3b0502d05e2516446f71f85b5b8385106106235750505050830101858080610189565b80548886018301529301928490820161060d565b91607f1691610591565b6020808252825181830181905290939260005b82811061067657505060409293506000838284010152601f8019910116010190565b818101860151848201604001528501610654565b600435906001600160a01b03821682036106a057565b600080fd5b602435906001600160a01b03821682036106a057565b916001600160a01b0380841692831561078057169283156107675760009083825281602052604082205490838210610735575091604082827fddf252ad1be2c89b69c2b068fc378daa952ba7f163c4a11628f55a4df523b3ef958760209652828652038282205586815220818154019055604051908152a3565b60405163391434e360e21b81526001600160a01b03919091166004820152602481019190915260448101839052606490fd5b60405163ec442f0560e01b815260006004820152602490fd5b604051634b637e8f60e11b815260006004820152602490fdfea2646970667358221220dc73b3ba892ba8fd46223d5c8334287773859b2b6a0ac0cc0c6831d2a2306d0c64736f6c63430008140033",
  "linkReferences": {},
  "deployedLinkReferences": {}
}