{
  "_format": "hh-sol-artifact-1",
  "contractName": "ApprenticeRegistry",
  "sourceName": "contracts/ApprenticeRegistry.sol",
  "abi": [
    {
      "anonymous": false,
      "inputs": [
        {
          "indexed": true,
          "internalType": "address",
          "name": "apprentice",
          "type": "address"
        },
        {
          "indexed": false,
          "internalType": "string",
          "name": "name",
          "type": "string"
        },
        {
          "indexed": false,
          "internalType": "string",
          "name": "lineage",
          "type": "string"
        }
      ],
      "name": "ApprenticeCrowned",
      "type": "event"
    },
    {
      "inputs": [
        {
          "internalType": "address",
          "name": "",
          "type": "address"
        }
      ],
      "name": "apprentices",
      "outputs": [
        {
          "internalType": "string",
          "name": "name",
          "type": "string"
        },
        {
          "internalType": "string",
          "name": "lineage",
          "type": "string"
        },
        {
          "internalType": "bool",
          "name": "crowned",
          "type": "bool"
        }
      ],
      "stateMutability": "view",
      "type": "function"
    },
    {
      "inputs": [
        {
          "internalType": "string",
          "name": "name",
          "type": "string"
        },
        {
          "internalType": "string",
          "name": "lineage",
          "type": "string"
        }
      ],
      "name": "crown",
      "outputs": [],
      "stateMutability": "nonpayable",
      "type": "function"
    },
    {
      "inputs": [
        {
          "internalType": "address",
          "name": "apprentice",
          "type": "address"
        }
      ],
      "name": "echo",
      "outputs": [
        {
          "internalType": "string",
          "name": "",
          "type": "string"
        }
      ],
      "stateMutability": "view",
      "type": "function"
    }
  ],
  "bytecode": "0x6080806040523461001657610758908161001c8239f35b600080fdfe608080604052600436101561001357600080fd5b60003560e01c9081632ffdbf1a14610435575080639dd62c6e146100cb5763c44547271461004057600080fd5b346100c65760203660031901126100c6576004356001600160a01b038116908190036100c65760005260006020526100ac604060002061007f816105f9565b906100ba60ff6002610093600185016105f9565b9301541691604051948594606086526060860190610506565b908482036020860152610506565b90151560408301520390f35b600080fd5b346100c65760403660031901126100c65760043567ffffffffffffffff81116100c6576100fc903690600401610568565b60243567ffffffffffffffff81116100c65761011c903690600401610568565b906040516060810181811067ffffffffffffffff82111761035b57604052818152826020820152600160408201523360005260006020526040600020815180519067ffffffffffffffff821161035b57819061017884546105bf565b601f81116103e2575b50602090601f831160011461037c57600092610371575b50508160011b916000199060031b1c19161781555b60018101602083015180519067ffffffffffffffff821161035b576101d283546105bf565b601f8111610313575b50602090601f831160011461027f57936102609593836040946002947f7ccf47401161065fc55176b5b489caf48c9ca3b1ac3acfa9fbdf2306eaa9e4399a98600092610274575b50508160011b916000199060031b1c19161790555b01910151151560ff8019835416911617905561026f604051928392604084526040840190610506565b82810360208401523395610506565b0390a2005b015190508b80610222565b90601f198316918460005260206000209260005b8181106102fb5750846002947f7ccf47401161065fc55176b5b489caf48c9ca3b1ac3acfa9fbdf2306eaa9e4399a98946102609a9894604098600195106102e2575b505050811b019055610237565b015160001960f88460031b161c191690558b80806102d5565b92936020600181928786015181550195019301610293565b836000526020600020601f840160051c81019160208510610351575b601f0160051c01905b81811061034557506101db565b60008155600101610338565b909150819061032f565b634e487b7160e01b600052604160045260246000fd5b015190508680610198565b6000858152602081209350601f198516905b8181106103ca57509084600195949392106103b1575b505050811b0181556101ad565b015160001960f88460031b161c191690558680806103a4565b9293602060018192878601518155019501930161038e565b909150836000526020600020601f840160051c8101916020851061042b575b90601f859493920160051c01905b81811061041c5750610181565b6000815584935060010161040f565b9091508190610401565b346100c6576020806003193601126100c6576004356001600160a01b03811692908390036100c657826000526000825260ff60026040600020015416156104d857506104b291600052600081526104c06040600020604051938491600160046104a08786018461069f565b6301037b3160e51b815201910161069f565b03601f198101845283610546565b6104d4604051928284938452830190610506565b0390f35b60649162461bcd60e51b82526004820152600b60248201526a139bdd0818dc9bdddb995960aa1b6044820152fd5b919082519283825260005b848110610532575050826000602080949584010152601f8019910116010190565b602081830181015184830182015201610511565b90601f8019910116810190811067ffffffffffffffff82111761035b57604052565b81601f820112156100c65780359067ffffffffffffffff821161035b576040519261059d601f8401601f191660200185610546565b828452602083830101116100c657816000926020809301838601378301015290565b90600182811c921680156105ef575b60208310146105d957565b634e487b7160e01b600052602260045260246000fd5b91607f16916105ce565b906040519182600082549261060d846105bf565b90818452600194858116908160001461067c5750600114610639575b505061063792500383610546565b565b9093915060005260209081600020936000915b81831061066457505061063793508201013880610629565b8554888401850152948501948794509183019161064c565b91505061063794506020925060ff191682840152151560051b8201013880610629565b6000929181546106ae816105bf565b9260019180831690811561070757506001146106cb575b50505050565b90919293945060005260209081600020906000915b8583106106f657505050500190388080806106c5565b8054858401529183019181016106e0565b60ff19168452505050811515909102019150388080806106c556fea2646970667358221220f1b554cbd74fc0ca23788101787492bb271e568fccc4d509f9121f4413c7e88764736f6c63430008140033",
  "linkReferences": {},
  "deployedLinkReferences": {}
}