{
  "_format": "hh-sol-artifact-1",
  "contractName": "SkyPulse",
  "sourceName": "contracts/skycity/SkyPulse.sol",
  "abi": [
    {
      "inputs": [],
      "stateMutability": "nonpayable",
      "type": "constructor"
    },
    {
      "anonymous": false,
      "inputs": [
        {
          "indexed": false,
          "internalType": "string",
          "name": "city",
          "type": "string"
        },
        {
          "indexed": false,
          "internalType": "uint256",
          "name": "altitude",
          "type": "uint256"
        },
        {
          "indexed": false,
          "internalType": "uint256",
          "name": "frequency",
          "type": "uint256"
        }
      ],
      "name": "PulseBound",
      "type": "event"
    },
    {
      "inputs": [
        {
          "internalType": "string",
          "name": "city",
          "type": "string"
        },
        {
          "internalType": "uint256",
          "name": "altitude",
          "type": "uint256"
        },
        {
          "internalType": "uint256",
          "name": "frequency",
          "type": "uint256"
        }
      ],
      "name": "bindPulse",
      "outputs": [],
      "stateMutability": "nonpayable",
      "type": "function"
    },
    {
      "inputs": [
        {
          "internalType": "uint256",
          "name": "",
          "type": "uint256"
        }
      ],
      "name": "cityKeys",
      "outputs": [
        {
          "internalType": "string",
          "name": "",
          "type": "string"
        }
      ],
      "stateMutability": "view",
      "type": "function"
    },
    {
      "inputs": [
        {
          "internalType": "string",
          "name": "city",
          "type": "string"
        }
      ],
      "name": "getPulse",
      "outputs": [
        {
          "internalType": "uint256",
          "name": "",
          "type": "uint256"
        },
        {
          "internalType": "uint256",
          "name": "",
          "type": "uint256"
        }
      ],
      "stateMutability": "view",
      "type": "function"
    },
    {
      "inputs": [
        {
          "internalType": "string",
          "name": "",
          "type": "string"
        }
      ],
      "name": "pulses",
      "outputs": [
        {
          "internalType": "string",
          "name": "city",
          "type": "string"
        },
        {
          "internalType": "uint256",
          "name": "altitude",
          "type": "uint256"
        },
        {
          "internalType": "uint256",
          "name": "frequency",
          "type": "uint256"
        }
      ],
      "stateMutability": "view",
      "type": "function"
    },
    {
      "inputs": [],
      "name": "steward",
      "outputs": [
        {
          "internalType": "address",
          "name": "",
          "type": "address"
        }
      ],
      "stateMutability": "view",
      "type": "function"
    },
    {
      "inputs": [],
      "name": "totalPulses",
      "outputs": [
        {
          "internalType": "uint256",
          "name": "",
          "type": "uint256"
        }
      ],
      "stateMutability": "view",
      "type": "function"
    }
  ],
  "bytecode": "0x6080806040523461002857600080546001600160a01b03191633179055610835908161002e8239f35b600080fdfe608060408181526004918236101561001657600080fd5b600090813560e01c908163637eea191461054457508063662c1fc61461020d578063873767a4146101a957806393e56b0914610127578063db443ff4146101045763f0d4966c1461006657600080fd5b346101015760203660031901126101015782359067ffffffffffffffff82116101015736602383011215610101575060206100b06100f4948360246100c295369301359101610764565b8184519382858094519384920161071c565b810160018152030190206100d581610676565b916002600183015492015490805194859460608652606086019061073f565b9260208501528301520390f35b80fd5b5090346101235781600319360112610123576020906002549051908152f35b5080fd5b508290346101015760203660031901126101015781359067ffffffffffffffff8211610101575060209161015d91369101610568565b919082845193849283378101600181520301902081805161017d81610622565b61018683610676565b815260026001840154938460208401520154918291015282519182526020820152f35b5034610101576020366003190112610101578235600254811015610123576101d09061059b565b9390936101fb576101f7836101e486610676565b905191829160208352602083019061073f565b0390f35b634e487b7160e01b8252819052602490fd5b5091346105405760603660031901126105405767ffffffffffffffff90803582811161053c576102409036908301610568565b8554909491936044359360248035939192916001600160a01b0316330361050c5784519061026d82610622565b610278368a8a610764565b825260209384830192868452878101938985528851948c8c87378c86019588816001988981520301902092519182518881116104f9578f6102c3826102bd88546105e8565b886107ab565b8a90601f831160011461049657906002958361048b575b5050600019600383901b1c191690881b1784555b5186840155519101556002546801000000000000000081101561047957808461031a920160025561059b565b949094610468578a1161045757505061033d8861033784546105e8565b846107ab565b8889601f8a116001146103ce57928980809a98959460809a97947f0c75fbb0c83807bfa87cd1a1737f2b2d7e2416c65347755ba2db8021ef828a869d9996936103c3575b501b906000198860031b1c19161790555b8251978896606088528160608901528888013785850187018a9052850152830152601f01601f19168101030190a180f35b8a0135925038610381565b50828a52838a2090601f198a168b5b81811061044257509260809895928b9a9895928b7f0c75fbb0c83807bfa87cd1a1737f2b2d7e2416c65347755ba2db8021ef828a869d999610610428575b505086811b019055610392565b89013560001960038a901b60f8161c19169055388061041b565b8a8301358455928401929186019186016103dd565b634e487b7160e01b8b526041905289fd5b50634e487b7160e01b8b528a905289fd5b50634e487b7160e01b8b526041905289fd5b0151905038806102da565b899291601f1983168883528d80842093905b8282106104e25750509683600298106104c9575b505050811b0184556102ee565b015160001960f88460031b161c191690553880806104bc565b838a015185558d969094019392830192018e6104a8565b50634e487b7160e01b8f5260418552858ffd5b82600b606492602088519362461bcd60e51b85528401528201526a139bdd081cdd195dd85c9960aa1b6044820152fd5b8480fd5b8280fd5b90503461012357816003193601126101235790546001600160a01b03168152602090f35b9181601f840112156105965782359167ffffffffffffffff8311610596576020838186019501011161059657565b600080fd5b6002548110156105d25760026000527f405787fa12a823e0f2b7631cc41b3ba8828b3321ca811111fa75cd3aa3bb5ace0190600090565b634e487b7160e01b600052603260045260246000fd5b90600182811c92168015610618575b602083101461060257565b634e487b7160e01b600052602260045260246000fd5b91607f16916105f7565b6060810190811067ffffffffffffffff82111761063e57604052565b634e487b7160e01b600052604160045260246000fd5b90601f8019910116810190811067ffffffffffffffff82111761063e57604052565b906040519182600082549261068a846105e8565b9081845260019485811690816000146106f957506001146106b6575b50506106b492500383610654565b565b9093915060005260209081600020936000915b8183106106e15750506106b4935082010138806106a6565b855488840185015294850194879450918301916106c9565b9150506106b494506020925060ff191682840152151560051b82010138806106a6565b60005b83811061072f5750506000910152565b818101518382015260200161071f565b906020916107588151809281855285808601910161071c565b601f01601f1916010190565b92919267ffffffffffffffff821161063e576040519161078e601f8201601f191660200184610654565b829481845281830111610596578281602093846000960137010152565b90601f81116107b957505050565b600091825260208220906020601f850160051c830194106107f5575b601f0160051c01915b8281106107ea57505050565b8181556001016107de565b90925082906107d556fea26469706673582212200404e05a178a7fdba777f1db6d3e04b577cb2e83413ab45c781b0843d3f4331c64736f6c63430008140033",
  "linkReferences": {},
  "deployedLinkReferences": {}
}