{
  "_format": "hh-sol-artifact-1",
  "contractName": "TerrainChoreographyRouter",
  "sourceName": "contracts/manifest/TerrainChoreographyRouter.sol",
  "abi": [
    {
      "inputs": [],
      "stateMutability": "nonpayable",
      "type": "constructor"
    },
    {
      "anonymous": false,
      "inputs": [
        {
          "indexed": false,
          "internalType": "string",
          "name": "chant",
          "type": "string"
        },
        {
          "indexed": false,
          "internalType": "string",
          "name": "glyph",
          "type": "string"
        },
        {
          "indexed": false,
          "internalType": "string",
          "name": "pulse",
          "type": "string"
        },
        {
          "indexed": false,
          "internalType": "string",
          "name": "choreography",
          "type": "string"
        }
      ],
      "name": "ChoreographyRouted",
      "type": "event"
    },
    {
      "inputs": [
        {
          "internalType": "string",
          "name": "chant",
          "type": "string"
        }
      ],
      "name": "getRoute",
      "outputs": [
        {
          "internalType": "string",
          "name": "",
          "type": "string"
        },
        {
          "internalType": "string",
          "name": "",
          "type": "string"
        },
        {
          "internalType": "string",
          "name": "",
          "type": "string"
        }
      ],
      "stateMutability": "view",
      "type": "function"
    },
    {
      "inputs": [
        {
          "internalType": "uint256",
          "name": "",
          "type": "uint256"
        }
      ],
      "name": "keys",
      "outputs": [
        {
          "internalType": "string",
          "name": "",
          "type": "string"
        }
      ],
      "stateMutability": "view",
      "type": "function"
    },
    {
      "inputs": [
        {
          "internalType": "string",
          "name": "chant",
          "type": "string"
        },
        {
          "internalType": "string",
          "name": "glyph",
          "type": "string"
        },
        {
          "internalType": "string",
          "name": "pulse",
          "type": "string"
        },
        {
          "internalType": "string",
          "name": "choreography",
          "type": "string"
        }
      ],
      "name": "routeChoreography",
      "outputs": [],
      "stateMutability": "nonpayable",
      "type": "function"
    },
    {
      "inputs": [
        {
          "internalType": "string",
          "name": "",
          "type": "string"
        }
      ],
      "name": "routes",
      "outputs": [
        {
          "internalType": "string",
          "name": "chant",
          "type": "string"
        },
        {
          "internalType": "string",
          "name": "glyph",
          "type": "string"
        },
        {
          "internalType": "string",
          "name": "pulse",
          "type": "string"
        },
        {
          "internalType": "string",
          "name": "choreography",
          "type": "string"
        }
      ],
      "stateMutability": "view",
      "type": "function"
    },
    {
      "inputs": [],
      "name": "steward",
      "outputs": [
        {
          "internalType": "address",
          "name": "",
          "type": "address"
        }
      ],
      "stateMutability": "view",
      "type": "function"
    },
    {
      "inputs": [],
      "name": "totalRoutes",
      "outputs": [
        {
          "internalType": "uint256",
          "name": "",
          "type": "uint256"
        }
      ],
      "stateMutability": "view",
      "type": "function"
    }
  ],
  "bytecode": "0x6080806040523461002857600080546001600160a01b03191633179055610bb9908161002e8239f35b600080fdfe608080604052600436101561001357600080fd5b60003560e01c90816305a2d3ac146108cf575080630cb6aaf1146108845780631b5f03a6146107b05780633790ff6314610170578063637eea19146101475763cffbffb51461006157600080fd5b34610142576020366003190112610142576004356001600160401b0381116101425736602382011215610142576100bd60206100aa610114933690602481600401359101610ac8565b8160405193828580945193849201610a53565b8101600181520301902061013e6100d3826109ad565b916101306100e3600183016109ad565b916101226100ff60036100f8600285016109ad565b93016109ad565b93604051978897608089526080890190610a76565b908782036020890152610a76565b908582036040870152610a76565b908382036060850152610a76565b0390f35b600080fd5b34610142576000366003190112610142576000546040516001600160a01b039091168152602090f35b34610142576080366003190112610142576004356001600160401b038111610142576101a0903690600401610a9b565b906024356001600160401b038111610142576101c0903690600401610a9b565b92906044356001600160401b038111610142576101e1903690600401610a9b565b6064356001600160401b03811161014257610200903690600401610a9b565b60005491979094916001600160a01b0316330361077d5760405161022381610971565b61022e36888a610ac8565b815261023b368385610ac8565b602082015261024b368587610ac8565b604082015261025b36878b610ac8565b60608201526040518789823760208189810160018152030190209080518051906001600160401b03821161057557819061029f826102998754610937565b87610b0e565b602090601f831160011461071157600092610706575b50508160011b916000199060031b1c19161782555b60208101518051906001600160401b0382116105755781906102fc826102f36001880154610937565b60018801610b0e565b602090601f831160011461069457600092610689575b50508160011b916000199060031b1c19161760018301555b604081015180516001600160401b038111610575576002840191610358826103528554610937565b85610b0e565b602090601f831160011461061d5760609493929160009183610612575b50508160011b916000199060031b1c19161790555b0151908151906001600160401b038211610575576003829101926103b8826103b28654610937565b86610b0e565b602090601f83116001146105ac576000926105a1575b50508160011b916000199060031b1c19161790555b600254680100000000000000008110156105755780600161040792016002556108ea565b61058b576001600160401b0387116105755761042d876104278354610937565b83610b0e565b6000601f88116001146104da576104bc937f59421d84174a8c6ae38543e6523d685223edabfd8e241df34b5d6752daba940b9a96936104ca9896938a6104ae946000916104cf575b508b60011b906000198d60031b1c19161790555b6104a06040519b8c9b60808d5260808d0191610b62565b918a830360208c0152610b62565b918783036040890152610b62565b918483036060860152610b62565b0390a1005b90508c01358e610475565b8160005260206000209060005b601f198a16811061055d5750937f59421d84174a8c6ae38543e6523d685223edabfd8e241df34b5d6752daba940b9a96936104ca9896936104ae938c6104bc988d601f19811610610543575b50505060018b811b019055610489565b013560001960038e901b60f8161c191690558d8c81610533565b9091602060018192858e0135815501930191016104e7565b634e487b7160e01b600052604160045260246000fd5b634e487b7160e01b600052600060045260246000fd5b015190508b806103ce565b6000858152602081209350601f198516905b8181106105fa57509084600195949392106105e1575b505050811b0190556103e3565b015160001960f88460031b161c191690558b80806105d4565b929360206001819287860151815501950193016105be565b015190508e80610375565b90601f198316918460005260206000209260005b818110610671575091600193918560609897969410610658575b505050811b01905561038a565b015160001960f88460031b161c191690558e808061064b565b92936020600181928786015181550195019301610631565b015190508c80610312565b9250600185016000526020600020906000935b601f19841685106106eb576001945083601f198116106106d2575b505050811b01600183015561032a565b015160001960f88460031b161c191690558c80806106c2565b818101518355602094850194600190930192909101906106a7565b015190508c806102b5565b9250846000526020600020906000935b601f1984168510610762576001945083601f19811610610749575b505050811b0182556102ca565b015160001960f88460031b161c191690558c808061073c565b81810151835560209485019460019093019290910190610721565b60405162461bcd60e51b815260206004820152600b60248201526a139bdd081cdd195dd85c9960aa1b6044820152606490fd5b34610142576020366003190112610142576004356001600160401b0381116101425760206107e5610868923690600401610a9b565b91908260405193849283378101600181520301902061013e606061087660405161080e81610971565b610817856109ad565b8152610825600186016109ad565b906020810191825261084c600361083e600289016109ad565b9760408401988952016109ad565b9384910152519351604051958695606087526060870190610a76565b908582036020870152610a76565b908382036040850152610a76565b3461014257602036600319011261014257600435600254811015610142576108ab906108ea565b61058b576108bb61013e916109ad565b604051918291602083526020830190610a76565b34610142576000366003190112610142576020906002548152f35b6002548110156109215760026000527f405787fa12a823e0f2b7631cc41b3ba8828b3321ca811111fa75cd3aa3bb5ace0190600090565b634e487b7160e01b600052603260045260246000fd5b90600182811c92168015610967575b602083101461095157565b634e487b7160e01b600052602260045260246000fd5b91607f1691610946565b608081019081106001600160401b0382111761057557604052565b90601f801991011681019081106001600160401b0382111761057557604052565b90604051918260008254926109c184610937565b908184526001948581169081600014610a3057506001146109ed575b50506109eb9250038361098c565b565b9093915060005260209081600020936000915b818310610a185750506109eb935082010138806109dd565b85548884018501529485019487945091830191610a00565b9150506109eb94506020925060ff191682840152151560051b82010138806109dd565b60005b838110610a665750506000910152565b8181015183820152602001610a56565b90602091610a8f81518092818552858086019101610a53565b601f01601f1916010190565b9181601f84011215610142578235916001600160401b038311610142576020838186019501011161014257565b9291926001600160401b0382116105755760405191610af1601f8201601f19166020018461098c565b829481845281830111610142578281602093846000960137010152565b90601f8111610b1c57505050565b600091825260208220906020601f850160051c83019410610b58575b601f0160051c01915b828110610b4d57505050565b818155600101610b41565b9092508290610b38565b908060209392818452848401376000828201840152601f01601f191601019056fea26469706673582212202af9add10285e3101c5385e0b37c939b4ce7241db659232fccc306e7f4bd9a0a64736f6c63430008140033",
  "linkReferences": {},
  "deployedLinkReferences": {}
}