{
  "_format": "hh-sol-artifact-1",
  "contractName": "ApprenticeSummonsV2",
  "sourceName": "contracts/registry/ApprenticeSummonsV2.sol",
  "abi": [
    {
      "inputs": [],
      "stateMutability": "nonpayable",
      "type": "constructor"
    },
    {
      "anonymous": false,
      "inputs": [
        {
          "indexed": true,
          "internalType": "address",
          "name": "apprentice",
          "type": "address"
        },
        {
          "indexed": false,
          "internalType": "string",
          "name": "name",
          "type": "string"
        },
        {
          "indexed": false,
          "internalType": "string",
          "name": "signal",
          "type": "string"
        },
        {
          "indexed": false,
          "internalType": "string",
          "name": "drift",
          "type": "string"
        },
        {
          "indexed": false,
          "internalType": "string",
          "name": "pulse",
          "type": "string"
        },
        {
          "indexed": false,
          "internalType": "string",
          "name": "codexRef",
          "type": "string"
        }
      ],
      "name": "ApprenticeSummoned",
      "type": "event"
    },
    {
      "inputs": [
        {
          "internalType": "uint256",
          "name": "",
          "type": "uint256"
        }
      ],
      "name": "apprentices",
      "outputs": [
        {
          "internalType": "address",
          "name": "",
          "type": "address"
        }
      ],
      "stateMutability": "view",
      "type": "function"
    },
    {
      "inputs": [
        {
          "internalType": "address",
          "name": "apprentice",
          "type": "address"
        }
      ],
      "name": "getSummons",
      "outputs": [
        {
          "internalType": "string",
          "name": "",
          "type": "string"
        },
        {
          "internalType": "string",
          "name": "",
          "type": "string"
        },
        {
          "internalType": "string",
          "name": "",
          "type": "string"
        },
        {
          "internalType": "string",
          "name": "",
          "type": "string"
        },
        {
          "internalType": "string",
          "name": "",
          "type": "string"
        }
      ],
      "stateMutability": "view",
      "type": "function"
    },
    {
      "inputs": [],
      "name": "steward",
      "outputs": [
        {
          "internalType": "address",
          "name": "",
          "type": "address"
        }
      ],
      "stateMutability": "view",
      "type": "function"
    },
    {
      "inputs": [
        {
          "internalType": "address",
          "name": "apprentice",
          "type": "address"
        },
        {
          "internalType": "string",
          "name": "name",
          "type": "string"
        },
        {
          "internalType": "string",
          "name": "signal",
          "type": "string"
        },
        {
          "internalType": "string",
          "name": "drift",
          "type": "string"
        },
        {
          "internalType": "string",
          "name": "pulse",
          "type": "string"
        },
        {
          "internalType": "string",
          "name": "codexRef",
          "type": "string"
        }
      ],
      "name": "summonApprentice",
      "outputs": [],
      "stateMutability": "nonpayable",
      "type": "function"
    },
    {
      "inputs": [
        {
          "internalType": "address",
          "name": "",
          "type": "address"
        }
      ],
      "name": "summons",
      "outputs": [
        {
          "internalType": "string",
          "name": "name",
          "type": "string"
        },
        {
          "internalType": "string",
          "name": "signal",
          "type": "string"
        },
        {
          "internalType": "string",
          "name": "drift",
          "type": "string"
        },
        {
          "internalType": "string",
          "name": "pulse",
          "type": "string"
        },
        {
          "internalType": "string",
          "name": "codexRef",
          "type": "string"
        }
      ],
      "stateMutability": "view",
      "type": "function"
    },
    {
      "inputs": [],
      "name": "totalSummons",
      "outputs": [
        {
          "internalType": "uint256",
          "name": "",
          "type": "uint256"
        }
      ],
      "stateMutability": "view",
      "type": "function"
    }
  ],
  "bytecode": "0x6080806040523461002857600080546001600160a01b03191633179055610d0e908161002e8239f35b600080fdfe608080604052600436101561001357600080fd5b60003560e01c9081632a17d4cd14610a0c5750806334ea2527146101fa5780635a2ed66214610180578063637eea1914610157578063cf84c603146100a85763f31bee3e1461006157600080fd5b346100a35760203660031901126100a3576004356002548110156100a35761008a602091610c24565b905460405160039290921b1c6001600160a01b03168152f35b600080fd5b346100a35760203660031901126100a3576001600160a01b036100c9610a27565b16600052600160205260406000206040516100e381610aa4565b6100ec82610ae0565b81526101536100fd60018401610ae0565b916020810192835261011160028501610ae0565b9360408201948552610138600461012a60038401610ae0565b926060850193845201610ae0565b91826080820152519351945190519060405195869586610bc6565b0390f35b346100a35760003660031901126100a3576000546040516001600160a01b039091168152602090f35b346100a35760203660031901126100a3576001600160a01b036101a1610a27565b16600052600160205260406000206101b881610ae0565b6101536101c760018401610ae0565b926101d460028201610ae0565b906101ed60046101e660038401610ae0565b9201610ae0565b9160405195869586610bc6565b346100a35760c03660031901126100a357610213610a27565b6024356001600160401b0381116100a357610232903690600401610a3d565b6044356001600160401b0381116100a357610251903690600401610a3d565b90936064356001600160401b0381116100a357610272903690600401610a3d565b906084356001600160401b0381116100a357610292903690600401610a3d565b91909260a4356001600160401b0381116100a3576102b4903690600401610a3d565b600054909a9197906001600160a01b031633036109d9576040516102d781610aa4565b6102e2368b8d610c71565b81526102ef368385610c71565b60208201526102ff368587610c71565b604082015261030f368789610c71565b606082015261031f368d8b610c71565b608082015260018060a01b038816600052600160205260406000209080518051906001600160401b0382116105d757819061035a8554610a6a565b601f8111610989575b50602090601f831160011461091d57600092610912575b50508160011b916000199060031b1c19161782555b60208101518051906001600160401b0382116105d75781906103b46001860154610a6a565b601f81116108bf575b50602090601f831160011461084d57600092610842575b50508160011b916000199060031b1c19161760018301555b60408101518051906001600160401b0382116105d75781906104116002860154610a6a565b601f81116107ef575b50602090601f831160011461077d57600092610772575b50508160011b916000199060031b1c19161760028301555b60608101518051906001600160401b0382116105d75761046c6003850154610a6a565b601f811161072b575b50602090601f83116001146106b8576080939291600091836106ad575b50508160011b916000199060031b1c19161760038401555b01518051906001600160401b0382116105d7576104ca6004840154610a6a565b601f8111610666575b50602090601f83116001146105f85760049291600091836105ed575b50508160011b916000199060031b1c1916179101555b600254680100000000000000008110156105d7576001810160025561052990610c24565b81546001600160a01b038a811660039390931b92831b921b191617905560405160a0808252909a8b9a61055e928c0191610cb7565b9089820360208b015261057092610cb7565b90878203604089015261058292610cb7565b90858203606087015261059492610cb7565b83810360808501526001600160a01b03909116946105b192610cb7565b037fc696a0f35460b487eeb96792bcde0f7982daac961aa23ef0062126bc432707cc91a2005b634e487b7160e01b600052604160045260246000fd5b015190508f806104ef565b90601f198316916004850160005260206000209260005b81811061064e57509160019391856004969410610635575b505050811b01910155610505565b015160001960f88460031b161c191690558f8080610627565b9293602060018192878601518155019501930161060f565b600484016000526020600020601f840160051c8101602085106106a6575b601f830160051c8201811061069a5750506104d3565b60008155600101610684565b5080610684565b015190503880610492565b906003850160005260206000209160005b601f1985168110610713575091839160019360809695601f198116106106fa575b505050811b0160038401556104aa565b015160001960f88460031b161c191690553880806106ea565b919260206001819286850151815501940192016106c9565b600385016000526020600020601f840160051c81016020851061076b575b601f830160051c8201811061075f575050610475565b60008155600101610749565b5080610749565b015190508f80610431565b9250600285016000526020600020906000935b601f19841685106107d4576001945083601f198116106107bb575b505050811b016002830155610449565b015160001960f88460031b161c191690558f80806107ab565b81810151835560209485019460019093019290910190610790565b909150600285016000526020600020601f840160051c81016020851061083b575b90849392915b601f830160051c8201811061082c57505061041a565b60008155859450600101610816565b5080610810565b015190508f806103d4565b9250600185016000526020600020906000935b601f19841685106108a4576001945083601f1981161061088b575b505050811b0160018301556103ec565b015160001960f88460031b161c191690558f808061087b565b81810151835560209485019460019093019290910190610860565b909150600185016000526020600020601f840160051c81016020851061090b575b90849392915b601f830160051c820181106108fc5750506103bd565b600081558594506001016108e6565b50806108e0565b015190508f8061037a565b9250846000526020600020906000935b601f198416851061096e576001945083601f19811610610955575b505050811b01825561038f565b015160001960f88460031b161c191690558f8080610948565b8181015183556020948501946001909301929091019061092d565b909150846000526020600020601f840160051c8101602085106109d2575b90849392915b601f830160051c820181106109c3575050610363565b600081558594506001016109ad565b50806109a7565b60405162461bcd60e51b815260206004820152600b60248201526a139bdd081cdd195dd85c9960aa1b6044820152606490fd5b346100a35760003660031901126100a3576020906002548152f35b600435906001600160a01b03821682036100a357565b9181601f840112156100a3578235916001600160401b0383116100a357602083818601950101116100a357565b90600182811c92168015610a9a575b6020831014610a8457565b634e487b7160e01b600052602260045260246000fd5b91607f1691610a79565b60a081019081106001600160401b038211176105d757604052565b90601f801991011681019081106001600160401b038211176105d757604052565b9060405191826000825492610af484610a6a565b908184526001948581169081600014610b635750600114610b20575b5050610b1e92500383610abf565b565b9093915060005260209081600020936000915b818310610b4b575050610b1e93508201013880610b10565b85548884018501529485019487945091830191610b33565b915050610b1e94506020925060ff191682840152151560051b8201013880610b10565b919082519283825260005b848110610bb2575050826000602080949584010152601f8019910116010190565b602081830181015184830182015201610b91565b9390610c219593610bf7610c1394610be9610c059460a08a5260a08a0190610b86565b9088820360208a0152610b86565b908682036040880152610b86565b908482036060860152610b86565b916080818403910152610b86565b90565b600254811015610c5b5760026000527f405787fa12a823e0f2b7631cc41b3ba8828b3321ca811111fa75cd3aa3bb5ace0190600090565b634e487b7160e01b600052603260045260246000fd5b9291926001600160401b0382116105d75760405191610c9a601f8201601f191660200184610abf565b8294818452818301116100a3578281602093846000960137010152565b908060209392818452848401376000828201840152601f01601f191601019056fea2646970667358221220790353de6354f08b759605d083143777966921480fe8aa95802e319c7f55628164736f6c63430008140033",
  "linkReferences": {},
  "deployedLinkReferences": {}
}