{
  "_format": "hh-sol-artifact-1",
  "contractName": "TerrainSanctumRouter",
  "sourceName": "contracts/manifest/TerrainSanctumRouter.sol",
  "abi": [
    {
      "inputs": [],
      "stateMutability": "nonpayable",
      "type": "constructor"
    },
    {
      "anonymous": false,
      "inputs": [
        {
          "indexed": false,
          "internalType": "string",
          "name": "glyph",
          "type": "string"
        },
        {
          "indexed": false,
          "internalType": "string",
          "name": "sanctum",
          "type": "string"
        },
        {
          "indexed": false,
          "internalType": "string",
          "name": "pulse",
          "type": "string"
        },
        {
          "indexed": false,
          "internalType": "string",
          "name": "choreography",
          "type": "string"
        }
      ],
      "name": "SanctumRouted",
      "type": "event"
    },
    {
      "inputs": [
        {
          "internalType": "string",
          "name": "glyph",
          "type": "string"
        }
      ],
      "name": "getRoute",
      "outputs": [
        {
          "internalType": "string",
          "name": "",
          "type": "string"
        },
        {
          "internalType": "string",
          "name": "",
          "type": "string"
        },
        {
          "internalType": "string",
          "name": "",
          "type": "string"
        }
      ],
      "stateMutability": "view",
      "type": "function"
    },
    {
      "inputs": [
        {
          "internalType": "uint256",
          "name": "",
          "type": "uint256"
        }
      ],
      "name": "keys",
      "outputs": [
        {
          "internalType": "string",
          "name": "",
          "type": "string"
        }
      ],
      "stateMutability": "view",
      "type": "function"
    },
    {
      "inputs": [
        {
          "internalType": "string",
          "name": "glyph",
          "type": "string"
        },
        {
          "internalType": "string",
          "name": "sanctum",
          "type": "string"
        },
        {
          "internalType": "string",
          "name": "pulse",
          "type": "string"
        },
        {
          "internalType": "string",
          "name": "choreography",
          "type": "string"
        }
      ],
      "name": "routeSanctum",
      "outputs": [],
      "stateMutability": "nonpayable",
      "type": "function"
    },
    {
      "inputs": [
        {
          "internalType": "string",
          "name": "",
          "type": "string"
        }
      ],
      "name": "routes",
      "outputs": [
        {
          "internalType": "string",
          "name": "glyph",
          "type": "string"
        },
        {
          "internalType": "string",
          "name": "sanctum",
          "type": "string"
        },
        {
          "internalType": "string",
          "name": "pulse",
          "type": "string"
        },
        {
          "internalType": "string",
          "name": "choreography",
          "type": "string"
        }
      ],
      "stateMutability": "view",
      "type": "function"
    },
    {
      "inputs": [],
      "name": "steward",
      "outputs": [
        {
          "internalType": "address",
          "name": "",
          "type": "address"
        }
      ],
      "stateMutability": "view",
      "type": "function"
    },
    {
      "inputs": [],
      "name": "totalRoutes",
      "outputs": [
        {
          "internalType": "uint256",
          "name": "",
          "type": "uint256"
        }
      ],
      "stateMutability": "view",
      "type": "function"
    }
  ],
  "bytecode": "0x6080806040523461002857600080546001600160a01b03191633179055610bb9908161002e8239f35b600080fdfe608080604052600436101561001357600080fd5b60003560e01c90816305a2d3ac146108cf575080630cb6aaf1146108845780631b5f03a6146107b0578063637eea1914610787578063cffbffb5146106a65763de138af91461006157600080fd5b346106a15760803660031901126106a1576004356001600160401b0381116106a157610091903690600401610a9b565b906024356001600160401b0381116106a1576100b1903690600401610a9b565b92906044356001600160401b0381116106a1576100d2903690600401610a9b565b6064356001600160401b0381116106a1576100f1903690600401610a9b565b60005491979094916001600160a01b0316330361066e5760405161011481610971565b61011f36888a610ac8565b815261012c368385610ac8565b602082015261013c368587610ac8565b604082015261014c36878b610ac8565b60608201526040518789823760208189810160018152030190209080518051906001600160401b0382116104665781906101908261018a8754610937565b87610b0e565b602090601f8311600114610602576000926105f7575b50508160011b916000199060031b1c19161782555b60208101518051906001600160401b0382116104665781906101ed826101e46001880154610937565b60018801610b0e565b602090601f83116001146105855760009261057a575b50508160011b916000199060031b1c19161760018301555b604081015180516001600160401b038111610466576002840191610249826102438554610937565b85610b0e565b602090601f831160011461050e5760609493929160009183610503575b50508160011b916000199060031b1c19161790555b0151908151906001600160401b038211610466576003829101926102a9826102a38654610937565b86610b0e565b602090601f831160011461049d57600092610492575b50508160011b916000199060031b1c19161790555b60025468010000000000000000811015610466578060016102f892016002556108ea565b61047c576001600160401b0387116104665761031e876103188354610937565b83610b0e565b6000601f88116001146103cb576103ad937ffc820c69d9024570d7f0fda8520f98d9d12302f886da1414660518710ec4f5609a96936103bb9896938a61039f946000916103c0575b508b60011b906000198d60031b1c19161790555b6103916040519b8c9b60808d5260808d0191610b62565b918a830360208c0152610b62565b918783036040890152610b62565b918483036060860152610b62565b0390a1005b90508c013538610366565b8160005260206000209060005b601f198a16811061044e5750937ffc820c69d9024570d7f0fda8520f98d9d12302f886da1414660518710ec4f5609a96936103bb98969361039f938c6103ad988d601f19811610610434575b50505060018b811b01905561037a565b013560001960038e901b60f8161c19169055388c81610424565b9091602060018192858e0135815501930191016103d8565b634e487b7160e01b600052604160045260246000fd5b634e487b7160e01b600052600060045260246000fd5b0151905038806102bf565b6000858152602081209350601f198516905b8181106104eb57509084600195949392106104d2575b505050811b0190556102d4565b015160001960f88460031b161c191690553880806104c5565b929360206001819287860151815501950193016104af565b015190503880610266565b90601f198316918460005260206000209260005b818110610562575091600193918560609897969410610549575b505050811b01905561027b565b015160001960f88460031b161c1916905538808061053c565b92936020600181928786015181550195019301610522565b015190503880610203565b9250600185016000526020600020906000935b601f19841685106105dc576001945083601f198116106105c3575b505050811b01600183015561021b565b015160001960f88460031b161c191690553880806105b3565b81810151835560209485019460019093019290910190610598565b0151905038806101a6565b9250846000526020600020906000935b601f1984168510610653576001945083601f1981161061063a575b505050811b0182556101bb565b015160001960f88460031b161c1916905538808061062d565b81810151835560209485019460019093019290910190610612565b60405162461bcd60e51b815260206004820152600b60248201526a139bdd081cdd195dd85c9960aa1b6044820152606490fd5b600080fd5b346106a15760203660031901126106a1576004356001600160401b0381116106a157366023820112156106a15761070260206106ef610759933690602481600401359101610ac8565b8160405193828580945193849201610a53565b81016001815203019020610783610718826109ad565b91610775610728600183016109ad565b91610767610744600361073d600285016109ad565b93016109ad565b93604051978897608089526080890190610a76565b908782036020890152610a76565b908582036040870152610a76565b908382036060850152610a76565b0390f35b346106a15760003660031901126106a1576000546040516001600160a01b039091168152602090f35b346106a15760203660031901126106a1576004356001600160401b0381116106a15760206107e5610868923690600401610a9b565b919082604051938492833781016001815203019020610783606061087660405161080e81610971565b610817856109ad565b8152610825600186016109ad565b906020810191825261084c600361083e600289016109ad565b9760408401988952016109ad565b9384910152519351604051958695606087526060870190610a76565b908582036020870152610a76565b908382036040850152610a76565b346106a15760203660031901126106a1576004356002548110156106a1576108ab906108ea565b61047c576108bb610783916109ad565b604051918291602083526020830190610a76565b346106a15760003660031901126106a1576020906002548152f35b6002548110156109215760026000527f405787fa12a823e0f2b7631cc41b3ba8828b3321ca811111fa75cd3aa3bb5ace0190600090565b634e487b7160e01b600052603260045260246000fd5b90600182811c92168015610967575b602083101461095157565b634e487b7160e01b600052602260045260246000fd5b91607f1691610946565b608081019081106001600160401b0382111761046657604052565b90601f801991011681019081106001600160401b0382111761046657604052565b90604051918260008254926109c184610937565b908184526001948581169081600014610a3057506001146109ed575b50506109eb9250038361098c565b565b9093915060005260209081600020936000915b818310610a185750506109eb935082010138806109dd565b85548884018501529485019487945091830191610a00565b9150506109eb94506020925060ff191682840152151560051b82010138806109dd565b60005b838110610a665750506000910152565b8181015183820152602001610a56565b90602091610a8f81518092818552858086019101610a53565b601f01601f1916010190565b9181601f840112156106a1578235916001600160401b0383116106a157602083818601950101116106a157565b9291926001600160401b0382116104665760405191610af1601f8201601f19166020018461098c565b8294818452818301116106a1578281602093846000960137010152565b90601f8111610b1c57505050565b600091825260208220906020601f850160051c83019410610b58575b601f0160051c01915b828110610b4d57505050565b818155600101610b41565b9092508290610b38565b908060209392818452848401376000828201840152601f01601f191601019056fea26469706673582212204b5eea88fe6364ff98f933ba0e9cc1d1f2dbe118529e1018a1640693a5fe18e864736f6c63430008140033",
  "linkReferences": {},
  "deployedLinkReferences": {}
}