{
  "_format": "hh-sol-artifact-1",
  "contractName": "SpiralboundSovereigns",
  "sourceName": "contracts/sovereigns/SpiralboundSovereigns.sol",
  "abi": [
    {
      "inputs": [],
      "stateMutability": "nonpayable",
      "type": "constructor"
    },
    {
      "anonymous": false,
      "inputs": [
        {
          "indexed": true,
          "internalType": "address",
          "name": "sovereign",
          "type": "address"
        },
        {
          "indexed": false,
          "internalType": "string",
          "name": "name",
          "type": "string"
        },
        {
          "indexed": false,
          "internalType": "enum SpiralboundSovereigns.SovereignType",
          "name": "kind",
          "type": "uint8"
        },
        {
          "indexed": false,
          "internalType": "string",
          "name": "drift",
          "type": "string"
        }
      ],
      "name": "SovereignCrowned",
      "type": "event"
    },
    {
      "inputs": [
        {
          "internalType": "address",
          "name": "sovereign",
          "type": "address"
        },
        {
          "internalType": "string",
          "name": "name",
          "type": "string"
        },
        {
          "internalType": "enum SpiralboundSovereigns.SovereignType",
          "name": "kind",
          "type": "uint8"
        },
        {
          "internalType": "string",
          "name": "drift",
          "type": "string"
        }
      ],
      "name": "crownSovereign",
      "outputs": [],
      "stateMutability": "nonpayable",
      "type": "function"
    },
    {
      "inputs": [
        {
          "internalType": "address",
          "name": "addr",
          "type": "address"
        }
      ],
      "name": "getSovereign",
      "outputs": [
        {
          "internalType": "string",
          "name": "",
          "type": "string"
        },
        {
          "internalType": "enum SpiralboundSovereigns.SovereignType",
          "name": "",
          "type": "uint8"
        },
        {
          "internalType": "string",
          "name": "",
          "type": "string"
        },
        {
          "internalType": "bool",
          "name": "",
          "type": "bool"
        }
      ],
      "stateMutability": "view",
      "type": "function"
    },
    {
      "inputs": [
        {
          "internalType": "address",
          "name": "",
          "type": "address"
        }
      ],
      "name": "registry",
      "outputs": [
        {
          "internalType": "string",
          "name": "name",
          "type": "string"
        },
        {
          "internalType": "enum SpiralboundSovereigns.SovereignType",
          "name": "kind",
          "type": "uint8"
        },
        {
          "internalType": "string",
          "name": "drift",
          "type": "string"
        },
        {
          "internalType": "bool",
          "name": "crowned",
          "type": "bool"
        }
      ],
      "stateMutability": "view",
      "type": "function"
    },
    {
      "inputs": [
        {
          "internalType": "uint256",
          "name": "",
          "type": "uint256"
        }
      ],
      "name": "sovereigns",
      "outputs": [
        {
          "internalType": "address",
          "name": "",
          "type": "address"
        }
      ],
      "stateMutability": "view",
      "type": "function"
    },
    {
      "inputs": [],
      "name": "steward",
      "outputs": [
        {
          "internalType": "address",
          "name": "",
          "type": "address"
        }
      ],
      "stateMutability": "view",
      "type": "function"
    },
    {
      "inputs": [],
      "name": "totalSovereigns",
      "outputs": [
        {
          "internalType": "uint256",
          "name": "",
          "type": "uint256"
        }
      ],
      "stateMutability": "view",
      "type": "function"
    }
  ],
  "bytecode": "0x6080806040523461002857600080546001600160a01b0319163317905561092a908161002e8239f35b600080fdfe6080604052600436101561001257600080fd5b60003560e01c8063038defd7146105df5780632b74df3c146101ac5780632f8caeb1146100ec5780633e34f773146100ce578063637eea19146100a5576366d1b2931461005e57600080fd5b346100a05760203660031901126100a0576004356002548110156100a057610087602091610833565b905460405160039290921b1c6001600160a01b03168152f35b600080fd5b346100a05760003660031901126100a0576000546040516001600160a01b039091168152602090f35b346100a05760003660031901126100a0576020600254604051908152f35b346100a05760203660031901126100a0576001600160a01b0361010d610644565b16600052600160205260406000206040519061012882610694565b610131816106d2565b825260ff6001820154169061014a6020840192836108c7565b60ff600361015a600284016106d2565b9260408601938452015416926060810193151584525191519260038410156101965761019291519051151590604051948594856107c5565b0390f35b634e487b7160e01b600052602160045260246000fd5b346100a05760803660031901126100a0576101c5610644565b60243567ffffffffffffffff81116100a0576101e5903690600401610805565b90600360443510156100a05760643567ffffffffffffffff81116100a057610211903690600401610805565b60005491949093916001600160a01b031633036105ac5760405161023481610694565b61023f368486610880565b8152610250604435602083016108c7565b61025b368688610880565b60408201526001606082015260018060a01b03821660005260016020526040600020815180519067ffffffffffffffff821161041157819061029d845461065a565b601f811161055c575b50602090601f83116001146104f6576000926104eb575b50508160011b916000199060031b1c19161781555b60018101602083015160038110156101965760ff80198354169116179055604082015180519067ffffffffffffffff821161041157610314600284015461065a565b601f81116104a4575b50602090601f831160011461043257918060609492600394600092610427575b50508160011b9160001990851b1c19161760028201555b01910151151560ff801983541691161790556002549068010000000000000000821015610411577f859c352f2c3938a843b4de04ebc7511f5e68eb92e940567d19e093b2811f4aea946103b083600161040c9501600255610833565b81546001600160a01b0385811660039390931b92831b921b19161790556040516060808252909586956103e5928701916108d3565b916103f5602086016044356107b8565b84830360408601526001600160a01b0316966108d3565b0390a2005b634e487b7160e01b600052604160045260246000fd5b015190508b8061033d565b90601f198316916002850160005260206000209260005b81811061048c57509260019285926003966060989610610474575b505050811b016002820155610354565b015160001983871b60f8161c191690558b8080610464565b92936020600181928786015181550195019301610449565b600284016000526020600020601f840160051c8101602085106104e4575b601f830160051c820181106104d857505061031d565b600081556001016104c2565b50806104c2565b0151905089806102bd565b6000858152602081209350601f198516905b818110610544575090846001959493921061052b575b505050811b0181556102d2565b015160001960f88460031b161c1916905589808061051e565b92936020600181928786015181550195019301610508565b909150836000526020600020601f840160051c8101602085106105a5575b90849392915b601f830160051c820181106105965750506102a6565b60008155859450600101610580565b508061057a565b60405162461bcd60e51b815260206004820152600b60248201526a139bdd081cdd195dd85c9960aa1b6044820152606490fd5b346100a05760203660031901126100a0576001600160a01b03610600610644565b1660005260016020526040600020610617816106d2565b61019260ff6001840154169260ff6003610633600284016106d2565b9201541690604051948594856107c5565b600435906001600160a01b03821682036100a057565b90600182811c9216801561068a575b602083101461067457565b634e487b7160e01b600052602260045260246000fd5b91607f1691610669565b6080810190811067ffffffffffffffff82111761041157604052565b90601f8019910116810190811067ffffffffffffffff82111761041157604052565b90604051918260008254926106e68461065a565b9081845260019485811690816000146107555750600114610712575b5050610710925003836106b0565b565b9093915060005260209081600020936000915b81831061073d57505061071093508201013880610702565b85548884018501529485019487945091830191610725565b91505061071094506020925060ff191682840152151560051b8201013880610702565b919082519283825260005b8481106107a4575050826000602080949584010152601f8019910116010190565b602081830181015184830182015201610783565b9060038210156101965752565b92916060926107f06107e56107fd94989798608088526080880190610778565b9260208701906107b8565b8482036040860152610778565b931515910152565b9181601f840112156100a05782359167ffffffffffffffff83116100a057602083818601950101116100a057565b60025481101561086a5760026000527f405787fa12a823e0f2b7631cc41b3ba8828b3321ca811111fa75cd3aa3bb5ace0190600090565b634e487b7160e01b600052603260045260246000fd5b92919267ffffffffffffffff821161041157604051916108aa601f8201601f1916602001846106b0565b8294818452818301116100a0578281602093846000960137010152565b60038210156101965752565b908060209392818452848401376000828201840152601f01601f191601019056fea2646970667358221220c52d3b1da806c3f21c8de4c74d08a7ce455289e39c7f9b8cc7eb3b6410628d0964736f6c63430008140033",
  "linkReferences": {},
  "deployedLinkReferences": {}
}