{
  "_format": "hh-sol-artifact-1",
  "contractName": "Tin",
  "sourceName": "contracts/Tin.sol",
  "abi": [
    {
      "anonymous": false,
      "inputs": [
        {
          "indexed": true,
          "internalType": "address",
          "name": "apprentice",
          "type": "address"
        },
        {
          "indexed": false,
          "internalType": "string",
          "name": "signal",
          "type": "string"
        }
      ],
      "name": "HumEchoed",
      "type": "event"
    },
    {
      "anonymous": false,
      "inputs": [
        {
          "indexed": true,
          "internalType": "address",
          "name": "apprentice",
          "type": "address"
        }
      ],
      "name": "TinCrowned",
      "type": "event"
    },
    {
      "inputs": [
        {
          "internalType": "address",
          "name": "",
          "type": "address"
        }
      ],
      "name": "activated",
      "outputs": [
        {
          "internalType": "bool",
          "name": "",
          "type": "bool"
        }
      ],
      "stateMutability": "view",
      "type": "function"
    },
    {
      "inputs": [
        {
          "internalType": "address",
          "name": "apprentice",
          "type": "address"
        },
        {
          "internalType": "string",
          "name": "signal",
          "type": "string"
        }
      ],
      "name": "conduct",
      "outputs": [],
      "stateMutability": "nonpayable",
      "type": "function"
    },
    {
      "inputs": [
        {
          "internalType": "address",
          "name": "apprentice",
          "type": "address"
        }
      ],
      "name": "crown",
      "outputs": [],
      "stateMutability": "nonpayable",
      "type": "function"
    },
    {
      "inputs": [
        {
          "internalType": "address",
          "name": "apprentice",
          "type": "address"
        }
      ],
      "name": "echoHum",
      "outputs": [
        {
          "internalType": "string",
          "name": "",
          "type": "string"
        }
      ],
      "stateMutability": "view",
      "type": "function"
    },
    {
      "inputs": [
        {
          "internalType": "address",
          "name": "",
          "type": "address"
        }
      ],
      "name": "hums",
      "outputs": [
        {
          "internalType": "string",
          "name": "",
          "type": "string"
        }
      ],
      "stateMutability": "view",
      "type": "function"
    }
  ],
  "bytecode": "0x60808060405234610016576105b4908161001c8239f35b600080fdfe604060808152600436101561001357600080fd5b600090813560e01c80635dca160714610365578063779d8677146103295780639c9c77ba146100f2578063ac29fb07146100b85763f47939e71461005657600080fd5b346100b45760203660031901126100b4576100b0916100a59082906001600160a01b036100816103c4565b168082528160205261009860ff8484205416610540565b8152600160205220610451565b9051918291826104f7565b0390f35b5080fd5b50346100b45760203660031901126100b4576100b0916100a59082906001600160a01b036100e46103c4565b168152600160205220610451565b50346100b457806003193601126100b45761010b6103c4565b67ffffffffffffffff916024358381116103255736602382011215610325578060040135938085116103115782519386602093601f1997610153868a601f84011601896103df565b808852366024828401011161030d57806024879301838a0137870101526001600160a01b0316808752868352838720549095906101929060ff16610540565b8587526001908184528488209386519384116102f9576101b28554610417565b601f81116102b3575b508091601f851160011461022a5750509180807fdaeb0bd831d8af2beb23e5d2d2344e086debbea3d3aa2cf4ff546a53ba14a7e397959361021997958b9361021f575b501b916000199060031b1c19161790555b51918291826104f7565b0390a280f35b8701519250386101fe565b84939492919216858a52828a20928a905b82821061029c5750509183917fdaeb0bd831d8af2beb23e5d2d2344e086debbea3d3aa2cf4ff546a53ba14a7e398969461021998969410610283575b5050811b01905561020f565b86015160001960f88460031b161c191690553880610277565b808785968294968d0151815501950193019061023b565b858a52818a20601f860160051c8101918387106102ef575b601f0160051c019084905b8281106102e45750506101bb565b8b81550184906102d6565b90915081906102cb565b634e487b7160e01b89526041600452602489fd5b8280fd5b634e487b7160e01b86526041600452602486fd5b8480fd5b50346100b45760203660031901126100b45760209160ff9082906001600160a01b036103536103c4565b16815280855220541690519015158152f35b50346100b45760203660031901126100b4576001600160a01b036103876103c4565b1690818352826020528220600160ff198254161790557f1f9df55eaa11a749187cf7bd5bafaba8ac04b9a07a62072885b1d53f71376f968280a280f35b600435906001600160a01b03821682036103da57565b600080fd5b90601f8019910116810190811067ffffffffffffffff82111761040157604052565b634e487b7160e01b600052604160045260246000fd5b90600182811c92168015610447575b602083101461043157565b634e487b7160e01b600052602260045260246000fd5b91607f1691610426565b906040519182600082549261046584610417565b9081845260019485811690816000146104d45750600114610491575b505061048f925003836103df565b565b9093915060005260209081600020936000915b8183106104bc57505061048f93508201013880610481565b855488840185015294850194879450918301916104a4565b91505061048f94506020925060ff191682840152151560051b8201013880610481565b6020808252825181830181905290939260005b82811061052c57505060409293506000838284010152601f8019910116010190565b81810186015184820160400152850161050a565b1561054757565b60405162461bcd60e51b815260206004820152600f60248201526e151a5b881b9bdd0818dc9bdddb9959608a1b6044820152606490fdfea264697066735822122053b2af70941b326dac18e7246c45731716158b1566e1bd66e158f2ac65aa4d9c64736f6c63430008140033",
  "linkReferences": {},
  "deployedLinkReferences": {}
}