{
  "_format": "hh-sol-artifact-1",
  "contractName": "Leyon",
  "sourceName": "contracts/Leyon.sol",
  "abi": [
    {
      "anonymous": false,
      "inputs": [
        {
          "indexed": true,
          "internalType": "address",
          "name": "apprentice",
          "type": "address"
        },
        {
          "indexed": false,
          "internalType": "string",
          "name": "signal",
          "type": "string"
        }
      ],
      "name": "DriftAnchored",
      "type": "event"
    },
    {
      "anonymous": false,
      "inputs": [
        {
          "indexed": true,
          "internalType": "address",
          "name": "apprentice",
          "type": "address"
        }
      ],
      "name": "LeyonCrowned",
      "type": "event"
    },
    {
      "inputs": [
        {
          "internalType": "address",
          "name": "apprentice",
          "type": "address"
        },
        {
          "internalType": "string",
          "name": "signal",
          "type": "string"
        }
      ],
      "name": "anchor",
      "outputs": [],
      "stateMutability": "nonpayable",
      "type": "function"
    },
    {
      "inputs": [
        {
          "internalType": "address",
          "name": "",
          "type": "address"
        }
      ],
      "name": "anchors",
      "outputs": [
        {
          "internalType": "string",
          "name": "",
          "type": "string"
        }
      ],
      "stateMutability": "view",
      "type": "function"
    },
    {
      "inputs": [
        {
          "internalType": "address",
          "name": "apprentice",
          "type": "address"
        }
      ],
      "name": "crown",
      "outputs": [],
      "stateMutability": "nonpayable",
      "type": "function"
    },
    {
      "inputs": [
        {
          "internalType": "address",
          "name": "",
          "type": "address"
        }
      ],
      "name": "crowned",
      "outputs": [
        {
          "internalType": "bool",
          "name": "",
          "type": "bool"
        }
      ],
      "stateMutability": "view",
      "type": "function"
    },
    {
      "inputs": [
        {
          "internalType": "address",
          "name": "apprentice",
          "type": "address"
        }
      ],
      "name": "echoAnchor",
      "outputs": [
        {
          "internalType": "string",
          "name": "",
          "type": "string"
        }
      ],
      "stateMutability": "view",
      "type": "function"
    }
  ],
  "bytecode": "0x60808060405234610016576105b7908161001c8239f35b600080fdfe60806040818152600436101561001457600080fd5b600091823560e01c90816308c67ce114610190575080635dca160714610131578063692374e3146100f75780638f9ac7b2146100985763996947ce1461005957600080fd5b346100945760203660031901126100945760209160ff9082906001600160a01b036100826103c5565b16815280855220541690519015158152f35b5080fd5b5034610094576020366003190112610094576100f3916100e89082906001600160a01b036100c46103c5565b16808252816020526100db60ff8484205416610541565b8152600160205220610452565b9051918291826104f8565b0390f35b5034610094576020366003190112610094576100f3916100e89082906001600160a01b036101236103c5565b168152600160205220610452565b5034610094576020366003190112610094576001600160a01b036101536103c5565b1690818352826020528220600160ff198254161790557f94a2464c9dbd57b383aebf3c07e46be1da06921e8c32ffbb33332d825d9c3c528280a280f35b9050346103a957816003193601126103a9576101aa6103c5565b9160243567ffffffffffffffff8082116103c157366023830112156103c1578160040135948186116103ad5786602093601f19976101ef868a601f84011601896103e0565b80885236602482840101116103a957806024879301838a0137870101526001600160a01b03168087528683528387205490959061022e9060ff16610541565b8587526001908184528488209386519384116103955761024e8554610418565b601f811161034f575b508091601f85116001146102c65750509180807f0c85dd6f394c817498e3e3b68cb7547ad501b187a3525281486546cb8eae1de99795936102b597958b936102bb575b501b916000199060031b1c19161790555b51918291826104f8565b0390a280f35b87015192503861029a565b84939492919216858a52828a20928a905b8282106103385750509183917f0c85dd6f394c817498e3e3b68cb7547ad501b187a3525281486546cb8eae1de99896946102b59896941061031f575b5050811b0190556102ab565b86015160001960f88460031b161c191690553880610313565b808785968294968d015181550195019301906102d7565b858a52818a20601f860160051c81019183871061038b575b601f0160051c019084905b828110610380575050610257565b8b8155018490610372565b9091508190610367565b634e487b7160e01b89526041600452602489fd5b8280fd5b634e487b7160e01b87526041600452602487fd5b8580fd5b600435906001600160a01b03821682036103db57565b600080fd5b90601f8019910116810190811067ffffffffffffffff82111761040257604052565b634e487b7160e01b600052604160045260246000fd5b90600182811c92168015610448575b602083101461043257565b634e487b7160e01b600052602260045260246000fd5b91607f1691610427565b906040519182600082549261046684610418565b9081845260019485811690816000146104d55750600114610492575b5050610490925003836103e0565b565b9093915060005260209081600020936000915b8183106104bd57505061049093508201013880610482565b855488840185015294850194879450918301916104a5565b91505061049094506020925060ff191682840152151560051b8201013880610482565b6020808252825181830181905290939260005b82811061052d57505060409293506000838284010152601f8019910116010190565b81810186015184820160400152850161050b565b1561054857565b60405162461bcd60e51b815260206004820152601160248201527013195e5bdb881b9bdd0818dc9bdddb9959607a1b6044820152606490fdfea26469706673582212205bbd1b83bbbeef27de145e4b0d1a33121a008d1580ce5fbd83e54e8bd244562f64736f6c63430008140033",
  "linkReferences": {},
  "deployedLinkReferences": {}
}