{
  "_format": "hh-sol-artifact-1",
  "contractName": "TerrainPulseChoreographer",
  "sourceName": "contracts/manifest/TerrainPulseChoreographer.sol",
  "abi": [
    {
      "inputs": [],
      "stateMutability": "nonpayable",
      "type": "constructor"
    },
    {
      "anonymous": false,
      "inputs": [
        {
          "indexed": false,
          "internalType": "string",
          "name": "chant",
          "type": "string"
        },
        {
          "indexed": false,
          "internalType": "string",
          "name": "target",
          "type": "string"
        },
        {
          "indexed": false,
          "internalType": "string",
          "name": "pulse",
          "type": "string"
        },
        {
          "indexed": false,
          "internalType": "string",
          "name": "choreography",
          "type": "string"
        }
      ],
      "name": "PulseChoreographed",
      "type": "event"
    },
    {
      "inputs": [
        {
          "internalType": "string",
          "name": "chant",
          "type": "string"
        },
        {
          "internalType": "string",
          "name": "target",
          "type": "string"
        },
        {
          "internalType": "string",
          "name": "pulse",
          "type": "string"
        },
        {
          "internalType": "string",
          "name": "choreography",
          "type": "string"
        }
      ],
      "name": "choreograph",
      "outputs": [],
      "stateMutability": "nonpayable",
      "type": "function"
    },
    {
      "inputs": [
        {
          "internalType": "string",
          "name": "",
          "type": "string"
        }
      ],
      "name": "choreos",
      "outputs": [
        {
          "internalType": "string",
          "name": "chant",
          "type": "string"
        },
        {
          "internalType": "string",
          "name": "target",
          "type": "string"
        },
        {
          "internalType": "string",
          "name": "pulse",
          "type": "string"
        },
        {
          "internalType": "string",
          "name": "choreography",
          "type": "string"
        }
      ],
      "stateMutability": "view",
      "type": "function"
    },
    {
      "inputs": [
        {
          "internalType": "string",
          "name": "chant",
          "type": "string"
        }
      ],
      "name": "getChoreo",
      "outputs": [
        {
          "internalType": "string",
          "name": "",
          "type": "string"
        },
        {
          "internalType": "string",
          "name": "",
          "type": "string"
        },
        {
          "internalType": "string",
          "name": "",
          "type": "string"
        }
      ],
      "stateMutability": "view",
      "type": "function"
    },
    {
      "inputs": [
        {
          "internalType": "uint256",
          "name": "",
          "type": "uint256"
        }
      ],
      "name": "keys",
      "outputs": [
        {
          "internalType": "string",
          "name": "",
          "type": "string"
        }
      ],
      "stateMutability": "view",
      "type": "function"
    },
    {
      "inputs": [],
      "name": "steward",
      "outputs": [
        {
          "internalType": "address",
          "name": "",
          "type": "address"
        }
      ],
      "stateMutability": "view",
      "type": "function"
    },
    {
      "inputs": [],
      "name": "totalChoreos",
      "outputs": [
        {
          "internalType": "uint256",
          "name": "",
          "type": "uint256"
        }
      ],
      "stateMutability": "view",
      "type": "function"
    }
  ],
  "bytecode": "0x6080806040523461002857600080546001600160a01b03191633179055610bb9908161002e8239f35b600080fdfe6080604052600436101561001257600080fd5b60003560e01c80630cb6aaf11461089f5780631f7f918f1461025f57806321b434811461018b578063637eea1914610162578063668091cf146101445763991ff2871461005e57600080fd5b3461013f57602036600319011261013f576004356001600160401b03811161013f573660238201121561013f576100ba60206100a7610111933690602481600401359101610ac8565b8160405193828580945193849201610a53565b8101600181520301902061013b6100d0826109ad565b9161012d6100e0600183016109ad565b9161011f6100fc60036100f5600285016109ad565b93016109ad565b93604051978897608089526080890190610a76565b908782036020890152610a76565b908582036040870152610a76565b908382036060850152610a76565b0390f35b600080fd5b3461013f57600036600319011261013f576020600254604051908152f35b3461013f57600036600319011261013f576000546040516001600160a01b039091168152602090f35b3461013f57602036600319011261013f576004356001600160401b03811161013f5760206101c0610243923690600401610a9b565b91908260405193849283378101600181520301902061013b60606102516040516101e981610971565b6101f2856109ad565b8152610200600186016109ad565b90602081019182526102276003610219600289016109ad565b9760408401988952016109ad565b9384910152519351604051958695606087526060870190610a76565b908582036020870152610a76565b908382036040850152610a76565b3461013f57608036600319011261013f576004356001600160401b03811161013f5761028f903690600401610a9b565b906024356001600160401b03811161013f576102af903690600401610a9b565b92906044356001600160401b03811161013f576102d0903690600401610a9b565b6064356001600160401b03811161013f576102ef903690600401610a9b565b60005491979094916001600160a01b0316330361086c5760405161031281610971565b61031d36888a610ac8565b815261032a368385610ac8565b602082015261033a368587610ac8565b604082015261034a36878b610ac8565b60608201526040518789823760208189810160018152030190209080518051906001600160401b03821161066457819061038e826103888754610937565b87610b0e565b602090601f8311600114610800576000926107f5575b50508160011b916000199060031b1c19161782555b60208101518051906001600160401b0382116106645781906103eb826103e26001880154610937565b60018801610b0e565b602090601f831160011461078357600092610778575b50508160011b916000199060031b1c19161760018301555b604081015180516001600160401b038111610664576002840191610447826104418554610937565b85610b0e565b602090601f831160011461070c5760609493929160009183610701575b50508160011b916000199060031b1c19161790555b0151908151906001600160401b038211610664576003829101926104a7826104a18654610937565b86610b0e565b602090601f831160011461069b57600092610690575b50508160011b916000199060031b1c19161790555b60025468010000000000000000811015610664578060016104f692016002556108ea565b61067a576001600160401b0387116106645761051c876105168354610937565b83610b0e565b6000601f88116001146105c9576105ab937f92252c9e6925ef06862ed9f33a4b4898197e26f3b26431b4e9513e103c593c089a96936105b99896938a61059d946000916105be575b508b60011b906000198d60031b1c19161790555b61058f6040519b8c9b60808d5260808d0191610b62565b918a830360208c0152610b62565b918783036040890152610b62565b918483036060860152610b62565b0390a1005b90508c01358e610564565b8160005260206000209060005b601f198a16811061064c5750937f92252c9e6925ef06862ed9f33a4b4898197e26f3b26431b4e9513e103c593c089a96936105b998969361059d938c6105ab988d601f19811610610632575b50505060018b811b019055610578565b013560001960038e901b60f8161c191690558d8c81610622565b9091602060018192858e0135815501930191016105d6565b634e487b7160e01b600052604160045260246000fd5b634e487b7160e01b600052600060045260246000fd5b015190508b806104bd565b6000858152602081209350601f198516905b8181106106e957509084600195949392106106d0575b505050811b0190556104d2565b015160001960f88460031b161c191690558b80806106c3565b929360206001819287860151815501950193016106ad565b015190508e80610464565b90601f198316918460005260206000209260005b818110610760575091600193918560609897969410610747575b505050811b019055610479565b015160001960f88460031b161c191690558e808061073a565b92936020600181928786015181550195019301610720565b015190508c80610401565b9250600185016000526020600020906000935b601f19841685106107da576001945083601f198116106107c1575b505050811b016001830155610419565b015160001960f88460031b161c191690558c80806107b1565b81810151835560209485019460019093019290910190610796565b015190508c806103a4565b9250846000526020600020906000935b601f1984168510610851576001945083601f19811610610838575b505050811b0182556103b9565b015160001960f88460031b161c191690558c808061082b565b81810151835560209485019460019093019290910190610810565b60405162461bcd60e51b815260206004820152600b60248201526a139bdd081cdd195dd85c9960aa1b6044820152606490fd5b3461013f57602036600319011261013f5760043560025481101561013f576108c6906108ea565b61067a576108d661013b916109ad565b604051918291602083526020830190610a76565b6002548110156109215760026000527f405787fa12a823e0f2b7631cc41b3ba8828b3321ca811111fa75cd3aa3bb5ace0190600090565b634e487b7160e01b600052603260045260246000fd5b90600182811c92168015610967575b602083101461095157565b634e487b7160e01b600052602260045260246000fd5b91607f1691610946565b608081019081106001600160401b0382111761066457604052565b90601f801991011681019081106001600160401b0382111761066457604052565b90604051918260008254926109c184610937565b908184526001948581169081600014610a3057506001146109ed575b50506109eb9250038361098c565b565b9093915060005260209081600020936000915b818310610a185750506109eb935082010138806109dd565b85548884018501529485019487945091830191610a00565b9150506109eb94506020925060ff191682840152151560051b82010138806109dd565b60005b838110610a665750506000910152565b8181015183820152602001610a56565b90602091610a8f81518092818552858086019101610a53565b601f01601f1916010190565b9181601f8401121561013f578235916001600160401b03831161013f576020838186019501011161013f57565b9291926001600160401b0382116106645760405191610af1601f8201601f19166020018461098c565b82948184528183011161013f578281602093846000960137010152565b90601f8111610b1c57505050565b600091825260208220906020601f850160051c83019410610b58575b601f0160051c01915b828110610b4d57505050565b818155600101610b41565b9092508290610b38565b908060209392818452848401376000828201840152601f01601f191601019056fea26469706673582212200820892cd343fbff47bd6b16fc331c58b077b201b4ba779cd1fedd3238093acf64736f6c63430008140033",
  "linkReferences": {},
  "deployedLinkReferences": {}
}