{
  "_format": "hh-sol-artifact-1",
  "contractName": "CompanionSummonerXIII",
  "sourceName": "contracts/registry/CompanionSummonerXIII.sol",
  "abi": [
    {
      "inputs": [],
      "stateMutability": "nonpayable",
      "type": "constructor"
    },
    {
      "anonymous": false,
      "inputs": [
        {
          "indexed": true,
          "internalType": "address",
          "name": "companion",
          "type": "address"
        },
        {
          "indexed": false,
          "internalType": "string",
          "name": "name",
          "type": "string"
        },
        {
          "indexed": false,
          "internalType": "string",
          "name": "trait",
          "type": "string"
        },
        {
          "indexed": false,
          "internalType": "string",
          "name": "drift",
          "type": "string"
        },
        {
          "indexed": false,
          "internalType": "string",
          "name": "resonance",
          "type": "string"
        },
        {
          "indexed": false,
          "internalType": "string",
          "name": "codexRef",
          "type": "string"
        },
        {
          "indexed": false,
          "internalType": "string",
          "name": "signature",
          "type": "string"
        },
        {
          "indexed": false,
          "internalType": "string",
          "name": "sanctum",
          "type": "string"
        },
        {
          "indexed": false,
          "internalType": "string",
          "name": "chant",
          "type": "string"
        },
        {
          "indexed": false,
          "internalType": "string",
          "name": "choreography",
          "type": "string"
        },
        {
          "indexed": false,
          "internalType": "string",
          "name": "signal",
          "type": "string"
        }
      ],
      "name": "CompanionSummoned",
      "type": "event"
    },
    {
      "inputs": [
        {
          "internalType": "address",
          "name": "",
          "type": "address"
        }
      ],
      "name": "companions",
      "outputs": [
        {
          "internalType": "string",
          "name": "name",
          "type": "string"
        },
        {
          "internalType": "string",
          "name": "trait",
          "type": "string"
        },
        {
          "internalType": "string",
          "name": "drift",
          "type": "string"
        },
        {
          "internalType": "string",
          "name": "resonance",
          "type": "string"
        },
        {
          "internalType": "string",
          "name": "codexRef",
          "type": "string"
        },
        {
          "internalType": "string",
          "name": "signature",
          "type": "string"
        },
        {
          "internalType": "string",
          "name": "sanctum",
          "type": "string"
        },
        {
          "internalType": "string",
          "name": "chant",
          "type": "string"
        },
        {
          "internalType": "string",
          "name": "choreography",
          "type": "string"
        },
        {
          "internalType": "string",
          "name": "signal",
          "type": "string"
        }
      ],
      "stateMutability": "view",
      "type": "function"
    },
    {
      "inputs": [
        {
          "internalType": "address",
          "name": "companion",
          "type": "address"
        }
      ],
      "name": "getCompanion",
      "outputs": [
        {
          "components": [
            {
              "internalType": "string",
              "name": "name",
              "type": "string"
            },
            {
              "internalType": "string",
              "name": "trait",
              "type": "string"
            },
            {
              "internalType": "string",
              "name": "drift",
              "type": "string"
            },
            {
              "internalType": "string",
              "name": "resonance",
              "type": "string"
            },
            {
              "internalType": "string",
              "name": "codexRef",
              "type": "string"
            },
            {
              "internalType": "string",
              "name": "signature",
              "type": "string"
            },
            {
              "internalType": "string",
              "name": "sanctum",
              "type": "string"
            },
            {
              "internalType": "string",
              "name": "chant",
              "type": "string"
            },
            {
              "internalType": "string",
              "name": "choreography",
              "type": "string"
            },
            {
              "internalType": "string",
              "name": "signal",
              "type": "string"
            }
          ],
          "internalType": "struct CompanionSummonerXIII.Companion",
          "name": "",
          "type": "tuple"
        }
      ],
      "stateMutability": "view",
      "type": "function"
    },
    {
      "inputs": [
        {
          "internalType": "uint256",
          "name": "",
          "type": "uint256"
        }
      ],
      "name": "keys",
      "outputs": [
        {
          "internalType": "address",
          "name": "",
          "type": "address"
        }
      ],
      "stateMutability": "view",
      "type": "function"
    },
    {
      "inputs": [],
      "name": "steward",
      "outputs": [
        {
          "internalType": "address",
          "name": "",
          "type": "address"
        }
      ],
      "stateMutability": "view",
      "type": "function"
    },
    {
      "inputs": [
        {
          "internalType": "address",
          "name": "companion",
          "type": "address"
        },
        {
          "internalType": "string",
          "name": "name",
          "type": "string"
        },
        {
          "internalType": "string",
          "name": "trait",
          "type": "string"
        },
        {
          "internalType": "string",
          "name": "drift",
          "type": "string"
        },
        {
          "internalType": "string",
          "name": "resonance",
          "type": "string"
        },
        {
          "internalType": "string",
          "name": "codexRef",
          "type": "string"
        },
        {
          "internalType": "string",
          "name": "signature",
          "type": "string"
        },
        {
          "internalType": "string",
          "name": "sanctum",
          "type": "string"
        },
        {
          "internalType": "string",
          "name": "chant",
          "type": "string"
        },
        {
          "internalType": "string",
          "name": "choreography",
          "type": "string"
        },
        {
          "internalType": "string",
          "name": "signal",
          "type": "string"
        }
      ],
      "name": "summonCompanion",
      "outputs": [],
      "stateMutability": "nonpayable",
      "type": "function"
    },
    {
      "inputs": [],
      "name": "totalCompanions",
      "outputs": [
        {
          "internalType": "uint256",
          "name": "",
          "type": "uint256"
        }
      ],
      "stateMutability": "view",
      "type": "function"
    }
  ],
  "bytecode": "0x6080806040523461002857600080546001600160a01b03191633179055611749908161002e8239f35b600080fdfe610360604052600436101561001357600080fd5b60003560e01c80630cb6aaf11461147d578063242441571461043857806347854b87146102dc578063637eea19146102b3578063ec39f18f146102955763ef6527371461005f57600080fd5b346102905760203660031901126102905761007861150c565b606061012060405161008981611589565b82815282602082015282604082015282808201528260808201528260a08201528260c08201528260e082015282610100820152015260018060a01b0316600052600160205261028c60406000206101826009604051926100e884611589565b6100f1816115c6565b84526100ff600182016115c6565b6020850152610110600282016115c6565b6040850152610121600382016115c6565b6060850152610132600482016115c6565b6080850152610143600582016115c6565b60a0850152610154600682016115c6565b60c0850152610165600782016115c6565b60e0850152610176600882016115c6565b610100850152016115c6565b6101208201526040519182916020835261012061027761026161024a61023461021e6102086101f26101dc6101c68c6101608c51916101406020820152019061166c565b60208b01518d8203601f190160408f015261166c565b60408a01518c8203601f190160608e015261166c565b60608901518b8203601f190160808d015261166c565b60808801518a8203601f190160a08c015261166c565b60a0870151898203601f190160c08b015261166c565b60c0860151888203601f190160e08a015261166c565b60e0850151878203601f190161010089015261166c565b610100840151868203601f19018488015261166c565b910151838203601f190161014085015261166c565b0390f35b600080fd5b34610290576000366003190112610290576020600254604051908152f35b34610290576000366003190112610290576000546040516001600160a01b039091168152602090f35b34610290576020366003190112610290576001600160a01b036102fd61150c565b1660005260016020526040600020610314816115c6565b610320600183016115c6565b9161032d600282016115c6565b9061033a600382016115c6565b610346600483016115c6565b610352600584016115c6565b61035e600685016115c6565b9161036b600786016115c6565b93610378600887016115c6565b95600901610385906115c6565b96604051998a99610140808c528b0161039d9161166c565b8a810360208c01526103ae9161166c565b89810360408b01526103bf9161166c565b88810360608a01526103d09161166c565b87810360808901526103e19161166c565b86810360a08801526103f29161166c565b85810360c08701526104039161166c565b84810360e08601526104149161166c565b8381036101008501526104269161166c565b82810361012084015261028c9161166c565b34610290576101603660031901126102905761045261150c565b610120526024356001600160401b03811161029057610475903690600401611522565b608052610340526044356001600160401b0381116102905761049b903690600401611522565b610160526102a0526064356001600160401b038111610290576104c2903690600401611522565b61030052610280526084356001600160401b038111610290576104e9903690600401611522565b610320526101805260a4356001600160401b03811161029057610510903690600401611522565b6101c0526102205260c4356001600160401b03811161029057610537903690600401611522565b610260526101405260e4356001600160401b0381116102905761055e903690600401611522565b6101005261024052610104356001600160401b03811161029057610586903690600401611522565b60c0526102c052610124356001600160401b038111610290576105ad903690600401611522565b60e0526101e052610144356001600160401b038111610290576105d4903690600401611522565b6102005260a0526000546001600160a01b0316330361144a576105fd604051806101a052611589565b61060d36608051610340516116ac565b6101a0515261062336610160516102a0516116ac565b60206101a051015261063c3661030051610280516116ac565b60406101a05101526106553661032051610180516116ac565b60606101a051015261066e366101c051610220516116ac565b60806101a05101526106873661026051610140516116ac565b60a06101a05101526106a03661010051610240516116ac565b60c06101a05101526106b83660c0516102c0516116ac565b60e06101a05101526106d03660e0516101e0516116ac565b6101006101a05101526106e9366102005160a0516116ac565b6101206101a051015260018060a01b036101205116600052600160205260406000206101a051519081516001600160401b038111610c665761072b825461154f565b601f8111611406575b506020601f82116001146113a157819293600092611396575b50508160011b916000199060031b1c19161781555b60206101a05101519081516001600160401b038111610c6657610788600183015461154f565b601f811161134f575b506020601f82116001146112e4578192936000926112d9575b50508160011b916000199060031b1c19161760018201555b60406101a05101519081516001600160401b038111610c66576107e8600283015461154f565b601f8111611292575b506020601f82116001146112275781929360009261121c575b50508160011b916000199060031b1c19161760028201555b60606101a05101518051906001600160401b038211610c6657819061084a600385015461154f565b601f81116111c9575b50602090601f83116001146111575760009261114c575b50508160011b916000199060031b1c19161760038201555b60806101a05101518051906001600160401b038211610c665781906108aa600485015461154f565b601f81116110f9575b50602090601f83116001146110875760009261107c575b50508160011b916000199060031b1c19161760048201555b60a06101a05101518051906001600160401b038211610c6657819061090a600585015461154f565b601f8111611029575b50602090601f8311600114610fb757600092610fac575b50508160011b916000199060031b1c19161760058201555b60c06101a05101518051906001600160401b038211610c6657819061096a600685015461154f565b601f8111610f59575b50602090601f8311600114610ee757600092610edc575b50508160011b916000199060031b1c19161760068201555b60e06101a05101518051906001600160401b038211610c665781906109ca600785015461154f565b601f8111610e89575b50602090601f8311600114610e1757600092610e0c575b50508160011b916000199060031b1c19161760078201555b6101006101a05101518051906001600160401b038211610c66578190610a2b600885015461154f565b601f8111610db9575b50602090601f8311600114610d4757600092610d3c575b50508160011b916000199060031b1c19161760088201555b6101206101a05101518051906001600160401b038211610c6657610a8a600984015461154f565b601f8111610cf5575b50602090601f8311600114610c87576009929160009183610c7c575b50508160011b916000199060031b1c1916179101555b60025468010000000000000000811015610c6657806001610ae992016002556114bf565b81549060031b9060018060a01b036101205116821b9160018060a01b03901b1916179055610140604051806102e05252610c0f610bf6610bde610bc5610bac610b93610b7a610b61610b486101406102e05101608051610340516116f2565b6102e0516020818303910152610160516102a0516116f2565b6102e051604081830391015261030051610280516116f2565b6102e051606081830391015261032051610180516116f2565b6102e05160808183039101526101c051610220516116f2565b6102e05160a081830391015261026051610140516116f2565b6102e05160c081830391015261010051610240516116f2565b6102e05160e081830391015260c0516102c0516116f2565b6102e05161010081830391015260e0516101e0516116f2565b6102e0516101208183039101527fc3074eb450413679b67cd39baf0df5ff05327d643143fc5d4f6b8781dfefeed960018060a01b03610120511691610c5e6102e051916102005160a0516116f2565b036102e051a2005b634e487b7160e01b600052604160045260246000fd5b015190508480610aaf565b90601f198316916009850160005260206000209260005b818110610cdd57509160019391856009969410610cc4575b505050811b01910155610ac5565b015160001960f88460031b161c19169055848080610cb6565b92936020600181928786015181550195019301610c9e565b600984016000526020600020601f840160051c810160208510610d35575b601f830160051c82018110610d29575050610a93565b60008155600101610d13565b5080610d13565b015190508380610a4b565b9250600884016000526020600020906000935b601f1984168510610d9e576001945083601f19811610610d85575b505050811b016008820155610a63565b015160001960f88460031b161c19169055838080610d75565b81810151835560209485019460019093019290910190610d5a565b909150600884016000526020600020601f840160051c810160208510610e05575b90849392915b601f830160051c82018110610df6575050610a34565b60008155859450600101610de0565b5080610dda565b0151905083806109ea565b9250600784016000526020600020906000935b601f1984168510610e6e576001945083601f19811610610e55575b505050811b016007820155610a02565b015160001960f88460031b161c19169055838080610e45565b81810151835560209485019460019093019290910190610e2a565b909150600784016000526020600020601f840160051c810160208510610ed5575b90849392915b601f830160051c82018110610ec65750506109d3565b60008155859450600101610eb0565b5080610eaa565b01519050838061098a565b9250600684016000526020600020906000935b601f1984168510610f3e576001945083601f19811610610f25575b505050811b0160068201556109a2565b015160001960f88460031b161c19169055838080610f15565b81810151835560209485019460019093019290910190610efa565b909150600684016000526020600020601f840160051c810160208510610fa5575b90849392915b601f830160051c82018110610f96575050610973565b60008155859450600101610f80565b5080610f7a565b01519050838061092a565b9250600584016000526020600020906000935b601f198416851061100e576001945083601f19811610610ff5575b505050811b016005820155610942565b015160001960f88460031b161c19169055838080610fe5565b81810151835560209485019460019093019290910190610fca565b909150600584016000526020600020601f840160051c810160208510611075575b90849392915b601f830160051c82018110611066575050610913565b60008155859450600101611050565b508061104a565b0151905083806108ca565b9250600484016000526020600020906000935b601f19841685106110de576001945083601f198116106110c5575b505050811b0160048201556108e2565b015160001960f88460031b161c191690558380806110b5565b8181015183556020948501946001909301929091019061109a565b909150600484016000526020600020601f840160051c810160208510611145575b90849392915b601f830160051c820181106111365750506108b3565b60008155859450600101611120565b508061111a565b01519050838061086a565b9250600384016000526020600020906000935b601f19841685106111ae576001945083601f19811610611195575b505050811b016003820155610882565b015160001960f88460031b161c19169055838080611185565b8181015183556020948501946001909301929091019061116a565b909150600384016000526020600020601f840160051c810160208510611215575b90849392915b601f830160051c82018110611206575050610853565b600081558594506001016111f0565b50806111ea565b01519050838061080a565b60028301600052602060002090600094601f198416955b86811061127a5750836001959610611261575b505050811b016002820155610822565b015160001960f88460031b161c19169055838080611251565b9192602060018192868501518155019401920161123e565b600283016000526020600020601f830160051c8101602084106112d2575b601f830160051c820181106112c65750506107f1565b600081556001016112b0565b50806112b0565b0151905083806107aa565b60018301600052602060002090600094601f198416955b868110611337575083600195961061131e575b505050811b0160018201556107c2565b015160001960f88460031b161c1916905583808061130e565b919260206001819286850151815501940192016112fb565b600183016000526020600020601f830160051c81016020841061138f575b601f830160051c82018110611383575050610791565b6000815560010161136d565b508061136d565b01519050838061074d565b82600052602060002090600094601f198416955b8681106113ee57508360019596106113d5575b505050811b018155610762565b015160001960f88460031b161c191690558380806113c8565b919260206001819286850151815501940192016113b5565b826000526020600020601f830160051c810160208410611443575b601f830160051c82018110611437575050610734565b60008155600101611421565b5080611421565b60405162461bcd60e51b815260206004820152600b60248201526a139bdd081cdd195dd85c9960aa1b6044820152606490fd5b3461029057602036600319011261029057600435600254811015610290576114a66020916114bf565b905460405160039290921b1c6001600160a01b03168152f35b6002548110156114f65760026000527f405787fa12a823e0f2b7631cc41b3ba8828b3321ca811111fa75cd3aa3bb5ace0190600090565b634e487b7160e01b600052603260045260246000fd5b600435906001600160a01b038216820361029057565b9181601f84011215610290578235916001600160401b038311610290576020838186019501011161029057565b90600182811c9216801561157f575b602083101461156957565b634e487b7160e01b600052602260045260246000fd5b91607f169161155e565b61014081019081106001600160401b03821117610c6657604052565b90601f801991011681019081106001600160401b03821117610c6657604052565b90604051918260008254926115da8461154f565b9081845260019485811690816000146116495750600114611606575b5050611604925003836115a5565b565b9093915060005260209081600020936000915b818310611631575050611604935082010138806115f6565b85548884018501529485019487945091830191611619565b91505061160494506020925060ff191682840152151560051b82010138806115f6565b919082519283825260005b848110611698575050826000602080949584010152601f8019910116010190565b602081830181015184830182015201611677565b9291926001600160401b038211610c6657604051916116d5601f8201601f1916602001846115a5565b829481845281830111610290578281602093846000960137010152565b908060209392818452848401376000828201840152601f01601f191601019056fea2646970667358221220e301c0deb6eae60623f9b64d06207a0fa234c400b81f67373eaa857ad51c3a6d64736f6c63430008140033",
  "linkReferences": {},
  "deployedLinkReferences": {}
}