{
  "_format": "hh-sol-artifact-1",
  "contractName": "TerrainManifestV2",
  "sourceName": "contracts/manifest/TerrainManifestV2.sol",
  "abi": [
    {
      "inputs": [],
      "stateMutability": "nonpayable",
      "type": "constructor"
    },
    {
      "anonymous": false,
      "inputs": [
        {
          "indexed": false,
          "internalType": "string",
          "name": "name",
          "type": "string"
        },
        {
          "indexed": false,
          "internalType": "address",
          "name": "location",
          "type": "address"
        },
        {
          "indexed": false,
          "internalType": "string",
          "name": "kind",
          "type": "string"
        },
        {
          "indexed": false,
          "internalType": "string",
          "name": "pulse",
          "type": "string"
        },
        {
          "indexed": false,
          "internalType": "string",
          "name": "sanctum",
          "type": "string"
        }
      ],
      "name": "GlyphLinked",
      "type": "event"
    },
    {
      "inputs": [
        {
          "internalType": "string",
          "name": "name",
          "type": "string"
        }
      ],
      "name": "getGlyph",
      "outputs": [
        {
          "internalType": "address",
          "name": "",
          "type": "address"
        },
        {
          "internalType": "string",
          "name": "",
          "type": "string"
        },
        {
          "internalType": "string",
          "name": "",
          "type": "string"
        },
        {
          "internalType": "string",
          "name": "",
          "type": "string"
        }
      ],
      "stateMutability": "view",
      "type": "function"
    },
    {
      "inputs": [
        {
          "internalType": "string",
          "name": "",
          "type": "string"
        }
      ],
      "name": "glyphs",
      "outputs": [
        {
          "internalType": "string",
          "name": "name",
          "type": "string"
        },
        {
          "internalType": "address",
          "name": "location",
          "type": "address"
        },
        {
          "internalType": "string",
          "name": "kind",
          "type": "string"
        },
        {
          "internalType": "string",
          "name": "pulse",
          "type": "string"
        },
        {
          "internalType": "string",
          "name": "sanctum",
          "type": "string"
        }
      ],
      "stateMutability": "view",
      "type": "function"
    },
    {
      "inputs": [
        {
          "internalType": "uint256",
          "name": "",
          "type": "uint256"
        }
      ],
      "name": "keys",
      "outputs": [
        {
          "internalType": "string",
          "name": "",
          "type": "string"
        }
      ],
      "stateMutability": "view",
      "type": "function"
    },
    {
      "inputs": [
        {
          "internalType": "string",
          "name": "name",
          "type": "string"
        },
        {
          "internalType": "address",
          "name": "location",
          "type": "address"
        },
        {
          "internalType": "string",
          "name": "kind",
          "type": "string"
        },
        {
          "internalType": "string",
          "name": "pulse",
          "type": "string"
        },
        {
          "internalType": "string",
          "name": "sanctum",
          "type": "string"
        }
      ],
      "name": "linkGlyph",
      "outputs": [],
      "stateMutability": "nonpayable",
      "type": "function"
    },
    {
      "inputs": [],
      "name": "steward",
      "outputs": [
        {
          "internalType": "address",
          "name": "",
          "type": "address"
        }
      ],
      "stateMutability": "view",
      "type": "function"
    },
    {
      "inputs": [],
      "name": "totalGlyphs",
      "outputs": [
        {
          "internalType": "uint256",
          "name": "",
          "type": "uint256"
        }
      ],
      "stateMutability": "view",
      "type": "function"
    }
  ],
  "bytecode": "0x6080806040523461002857600080546001600160a01b03191633179055610c55908161002e8239f35b600080fdfe6080604052600436101561001257600080fd5b60003560e01c80630cb6aaf11461093b57806348f58b7c1461028f578063637eea19146102665780638592eebe14610248578063f351a29d146101575763f9864eb51461005e57600080fd5b34610152576020366003190112610152576004356001600160401b0381116101525736602382011215610152576100ba60206100a761011f933690602481600401359101610b64565b8160405193828580945193849201610aef565b8101600181520301902061014e6100d082610a49565b9161014060018060a01b03600183015416916101326100f160028301610a49565b9361010a600461010360038601610a49565b9401610a49565b9460405198899860a08a5260a08a0190610b12565b9160208901528782036040890152610b12565b908582036060870152610b12565b908382036080850152610b12565b0390f35b600080fd5b34610152576020366003190112610152576004356001600160401b038111610152576101896020913690600401610b37565b9190826040519384928337810160018152030190206040516101aa81610a0d565b6101b382610a49565b815261014e608061023a60018060a01b0380600187015416602086019081526101de60028801610a49565b956040810196875261020560046101f760038b01610a49565b99606084019a8b5201610a49565b948591015251169351945161022c6040519687968752608060208801526080870190610b12565b908582036040870152610b12565b908382036060850152610b12565b34610152576000366003190112610152576020600254604051908152f35b34610152576000366003190112610152576000546040516001600160a01b039091168152602090f35b346101525760a0366003190112610152576004356001600160401b038111610152576102bf903690600401610b37565b6024356001600160a01b0381168103610152576044356001600160401b038111610152576102f1903690600401610b37565b90916064356001600160401b03811161015257610312903690600401610b37565b9190926084356001600160401b03811161015257610334903690600401610b37565b60005491989096916001600160a01b031633036109085760405161035781610a0d565b610362368a84610b64565b81526001600160a01b038516602082015261037e368585610b64565b604082015261038e368789610b64565b606082015261039e36898c610b64565b6080820152604051898382376020818b810160018152030190209080518051906001600160401b0382116106f95781906103e2826103dc87546109d3565b87610baa565b602090601f831160011461089c57600092610891575b50508160011b916000199060031b1c19161782555b6001820160018060a01b036020830151166bffffffffffffffffffffffff60a01b82541617905560408101518051906001600160401b0382116106f95781906104668261045d60028801546109d3565b60028801610baa565b602090601f831160011461081f57600092610814575b50508160011b916000199060031b1c19161760028301555b60608101518051906001600160401b0382116106f9576104c4826104bb60038701546109d3565b60038701610baa565b602090601f83116001146107a157608093929160009183610796575b50508160011b916000199060031b1c19161760038401555b0151908151906001600160401b0382116106f9576004829101926105268261052086546109d3565b86610baa565b602090601f831160011461073057600092610725575b50508160011b916000199060031b1c19161790555b600254680100000000000000008110156106f9578060016105759201600255610986565b61070f576001600160401b0389116106f95761059b8961059583546109d3565b83610baa565b6000601f8a11600114610659579461063b9461064998946106107f9ecd2f571bfa9cd27e9016a035249918ace7a5e286b3d4fb67bed597d74541f19d999561062d958e8060a09f9c60009161064e575b508160011b916000199060031b1c19161790555b6040518d81529d8e9d8e0191610bfe565b6001600160a01b0390931660208c01528a830360408c0152610bfe565b918783036060890152610bfe565b918483036080860152610bfe565b0390a1005b9050830135386105eb565b8160005260206000209060005b601f198c1681106106e157509461064998946106107f9ecd2f571bfa9cd27e9016a035249918ace7a5e286b3d4fb67bed597d74541f19d999561062d9560018f60a09f9c9761063b9c82601f198116106106c7575b5050811b0190556105ff565b850135600019600384901b60f8161c1916905538806106bb565b90916020600181928588013581550193019101610666565b634e487b7160e01b600052604160045260246000fd5b634e487b7160e01b600052600060045260246000fd5b015190508c8061053c565b6000858152602081209350601f198516905b81811061077e5750908460019594939210610765575b505050811b019055610551565b015160001960f88460031b161c191690558c8080610758565b92936020600181928786015181550195019301610742565b015190508e806104e0565b906003850160005260206000209160005b601f19851681106107fc575091839160019360809695601f198116106107e3575b505050811b0160038401556104f8565b015160001960f88460031b161c191690558e80806107d3565b919260206001819286850151815501940192016107b2565b015190508d8061047c565b9250600285016000526020600020906000935b601f1984168510610876576001945083601f1981161061085d575b505050811b016002830155610494565b015160001960f88460031b161c191690558d808061084d565b81810151835560209485019460019093019290910190610832565b015190508d806103f8565b9250846000526020600020906000935b601f19841685106108ed576001945083601f198116106108d4575b505050811b01825561040d565b015160001960f88460031b161c191690558d80806108c7565b818101518355602094850194600190930192909101906108ac565b60405162461bcd60e51b815260206004820152600b60248201526a139bdd081cdd195dd85c9960aa1b6044820152606490fd5b34610152576020366003190112610152576004356002548110156101525761096290610986565b61070f5761097261014e91610a49565b604051918291602083526020830190610b12565b6002548110156109bd5760026000527f405787fa12a823e0f2b7631cc41b3ba8828b3321ca811111fa75cd3aa3bb5ace0190600090565b634e487b7160e01b600052603260045260246000fd5b90600182811c92168015610a03575b60208310146109ed57565b634e487b7160e01b600052602260045260246000fd5b91607f16916109e2565b60a081019081106001600160401b038211176106f957604052565b90601f801991011681019081106001600160401b038211176106f957604052565b9060405191826000825492610a5d846109d3565b908184526001948581169081600014610acc5750600114610a89575b5050610a8792500383610a28565b565b9093915060005260209081600020936000915b818310610ab4575050610a8793508201013880610a79565b85548884018501529485019487945091830191610a9c565b915050610a8794506020925060ff191682840152151560051b8201013880610a79565b60005b838110610b025750506000910152565b8181015183820152602001610af2565b90602091610b2b81518092818552858086019101610aef565b601f01601f1916010190565b9181601f84011215610152578235916001600160401b038311610152576020838186019501011161015257565b9291926001600160401b0382116106f95760405191610b8d601f8201601f191660200184610a28565b829481845281830111610152578281602093846000960137010152565b90601f8111610bb857505050565b600091825260208220906020601f850160051c83019410610bf4575b601f0160051c01915b828110610be957505050565b818155600101610bdd565b9092508290610bd4565b908060209392818452848401376000828201840152601f01601f191601019056fea26469706673582212201242a7cdb2040fbabdebe8127c390ddb9eea2c52b1fda7e9c92be2546a5bae7264736f6c63430008140033",
  "linkReferences": {},
  "deployedLinkReferences": {}
}