{
  "_format": "hh-sol-artifact-1",
  "contractName": "ApprenticeLineage",
  "sourceName": "contracts/ApprenticeLineage.sol",
  "abi": [
    {
      "inputs": [
        {
          "internalType": "uint256",
          "name": "",
          "type": "uint256"
        }
      ],
      "name": "apprenticeList",
      "outputs": [
        {
          "internalType": "address",
          "name": "",
          "type": "address"
        }
      ],
      "stateMutability": "view",
      "type": "function"
    },
    {
      "inputs": [
        {
          "internalType": "address",
          "name": "",
          "type": "address"
        }
      ],
      "name": "apprentices",
      "outputs": [
        {
          "internalType": "string",
          "name": "glyphName",
          "type": "string"
        },
        {
          "internalType": "string",
          "name": "companionName",
          "type": "string"
        },
        {
          "internalType": "string",
          "name": "sanctumName",
          "type": "string"
        },
        {
          "internalType": "string",
          "name": "corridorName",
          "type": "string"
        },
        {
          "internalType": "string",
          "name": "lineageName",
          "type": "string"
        },
        {
          "internalType": "bool",
          "name": "bloomTriggered",
          "type": "bool"
        }
      ],
      "stateMutability": "view",
      "type": "function"
    },
    {
      "inputs": [
        {
          "internalType": "address",
          "name": "",
          "type": "address"
        }
      ],
      "name": "constellations",
      "outputs": [
        {
          "internalType": "string",
          "name": "",
          "type": "string"
        }
      ],
      "stateMutability": "view",
      "type": "function"
    },
    {
      "inputs": [
        {
          "internalType": "address",
          "name": "apprentice",
          "type": "address"
        },
        {
          "internalType": "string",
          "name": "glyphName",
          "type": "string"
        },
        {
          "internalType": "string",
          "name": "companionName",
          "type": "string"
        },
        {
          "internalType": "string",
          "name": "sanctumName",
          "type": "string"
        },
        {
          "internalType": "string",
          "name": "corridorName",
          "type": "string"
        },
        {
          "internalType": "string",
          "name": "lineageName",
          "type": "string"
        }
      ],
      "name": "externalRegister",
      "outputs": [],
      "stateMutability": "nonpayable",
      "type": "function"
    },
    {
      "inputs": [],
      "name": "getAllApprentices",
      "outputs": [
        {
          "internalType": "address[]",
          "name": "",
          "type": "address[]"
        }
      ],
      "stateMutability": "view",
      "type": "function"
    },
    {
      "inputs": [
        {
          "internalType": "address",
          "name": "apprenticeAddress",
          "type": "address"
        }
      ],
      "name": "getApprentice",
      "outputs": [
        {
          "internalType": "string",
          "name": "glyphName",
          "type": "string"
        },
        {
          "internalType": "string",
          "name": "companionName",
          "type": "string"
        },
        {
          "internalType": "string",
          "name": "sanctumName",
          "type": "string"
        },
        {
          "internalType": "string",
          "name": "corridorName",
          "type": "string"
        },
        {
          "internalType": "string",
          "name": "lineageName",
          "type": "string"
        },
        {
          "internalType": "bool",
          "name": "bloomTriggered",
          "type": "bool"
        }
      ],
      "stateMutability": "view",
      "type": "function"
    },
    {
      "inputs": [
        {
          "internalType": "address",
          "name": "apprentice",
          "type": "address"
        }
      ],
      "name": "getConstellation",
      "outputs": [
        {
          "internalType": "string",
          "name": "",
          "type": "string"
        }
      ],
      "stateMutability": "view",
      "type": "function"
    },
    {
      "inputs": [
        {
          "internalType": "address",
          "name": "apprentice",
          "type": "address"
        }
      ],
      "name": "getKickback",
      "outputs": [
        {
          "internalType": "uint256",
          "name": "",
          "type": "uint256"
        }
      ],
      "stateMutability": "view",
      "type": "function"
    },
    {
      "inputs": [
        {
          "internalType": "address",
          "name": "apprentice",
          "type": "address"
        }
      ],
      "name": "getSkyCity",
      "outputs": [
        {
          "internalType": "string",
          "name": "",
          "type": "string"
        }
      ],
      "stateMutability": "view",
      "type": "function"
    },
    {
      "inputs": [
        {
          "internalType": "address",
          "name": "",
          "type": "address"
        }
      ],
      "name": "kickbacks",
      "outputs": [
        {
          "internalType": "uint256",
          "name": "",
          "type": "uint256"
        }
      ],
      "stateMutability": "view",
      "type": "function"
    },
    {
      "inputs": [
        {
          "internalType": "address",
          "name": "apprentice",
          "type": "address"
        },
        {
          "internalType": "uint256",
          "name": "amount",
          "type": "uint256"
        }
      ],
      "name": "recordKickback",
      "outputs": [],
      "stateMutability": "nonpayable",
      "type": "function"
    },
    {
      "inputs": [
        {
          "internalType": "string",
          "name": "glyphName",
          "type": "string"
        },
        {
          "internalType": "string",
          "name": "companionName",
          "type": "string"
        },
        {
          "internalType": "string",
          "name": "sanctumName",
          "type": "string"
        },
        {
          "internalType": "string",
          "name": "corridorName",
          "type": "string"
        },
        {
          "internalType": "string",
          "name": "lineageName",
          "type": "string"
        }
      ],
      "name": "registerApprentice",
      "outputs": [],
      "stateMutability": "nonpayable",
      "type": "function"
    },
    {
      "inputs": [
        {
          "internalType": "address",
          "name": "apprentice",
          "type": "address"
        },
        {
          "internalType": "string",
          "name": "corridorName",
          "type": "string"
        }
      ],
      "name": "setConstellation",
      "outputs": [],
      "stateMutability": "nonpayable",
      "type": "function"
    },
    {
      "inputs": [
        {
          "internalType": "address",
          "name": "apprentice",
          "type": "address"
        },
        {
          "internalType": "string",
          "name": "cityName",
          "type": "string"
        }
      ],
      "name": "setSkyCity",
      "outputs": [],
      "stateMutability": "nonpayable",
      "type": "function"
    },
    {
      "inputs": [
        {
          "internalType": "address",
          "name": "",
          "type": "address"
        }
      ],
      "name": "skyCities",
      "outputs": [
        {
          "internalType": "string",
          "name": "",
          "type": "string"
        }
      ],
      "stateMutability": "view",
      "type": "function"
    },
    {
      "inputs": [],
      "name": "triggerBloom",
      "outputs": [],
      "stateMutability": "nonpayable",
      "type": "function"
    }
  ],
  "bytecode": "0x608080604052346100165761188c908161001c8239f35b600080fdfe604060808152600436101561001357600080fd5b60003560e01c80630c429d90146113b157806318e63122146113055780631e929cf314611340578063251c78e3146113055780633a9c38d114610c735780634262071b14610b2757806357d117da14610aa957806362494868146102bb57806362f8e6621461018c5780636785ff87146109ea578063682fc38d146102f457806381a5e17d146102bb578063c35fe9601461025c578063c4454727146101da578063d4d45f021461018c5763de2dd822146100cd57600080fd5b34610187576020366003190112610187576001600160a01b036100ee6114d7565b166000526000602052806000206101838251610109816114ed565b610112836115fb565b8152610120600184016115fb565b9260208201938452610134600282016115fb565b94808301958652610147600383016115fb565b6060840190815260ff600561015e600486016115fb565b948560808801520154161515938460a0820152519551965190519151968796876116e1565b0390f35b600080fd5b503461018757602036600319011261018757610183906001600160a01b036101b26114d7565b1660005260046020526101c7816000206115fb565b90519182916020835260208301906116a1565b5034610187576020366003190112610187576001600160a01b036101fc6114d7565b1660005260006020528060002090610183610216836115fb565b91610223600185016115fb565b93610230600282016115fb565b61023c600383016115fb565b9060ff600561024d600486016115fb565b940154169351968796876116e1565b503461018757602036600319011261018757600435906001548210156101875760016000527fb10e2d527612073b26eecdfd717e6a320cf44b4afac2b0732d9fcbe2b7fa0cf69091015490516001600160a01b03919091168152602090f35b5034610187576020366003190112610187576020906001600160a01b036102e06114d7565b166000526002825280600020549051908152f35b50346101875760c03660031901126101875761030e6114d7565b906024356001600160401b0381116101875761032e903690600401611529565b906044356001600160401b0381116101875761034e903690600401611529565b906064356001600160401b0381116101875761036e903690600401611529565b6084356001600160401b0381116101875761038d903690600401611529565b60a4356001600160401b038111610187576103ac903690600401611529565b9060018060a01b038716928360005260006020526103d66103d086600020546115c1565b15611749565b8451966103e2886114ed565b8752602087019586528487015260608601526080850152600060a08501526000526000602052806000209183518051906001600160401b0382116106ca57819061042c86546115c1565b601f811161099c575b50602090601f83116001146109365760009261092b575b50508160011b916000199060031b1c19161783555b518051906001600160401b0382116106ca57819061048260018601546115c1565b601f81116108d8575b50602090601f831160011461086b57600092610860575b50508160011b916000199060031b1c19161760018301555b8201519283516001600160401b0381116106ca576104db60028401546115c1565b601f8111610819575b50602094601f82116001146107ad579481929394956000926107a2575b50508160011b916000199060031b1c19161760028301555b60608301519283516001600160401b0381116106ca5761053c60038501546115c1565b601f8111610757575b50602094601f82116001146106eb579481929394956000926106e0575b50508160011b916000199060031b1c19161760038401555b6004830160808201518051906001600160401b0382116106ca5761059e83546115c1565b601f8111610682575b50602090601f831160011461060d579361060096938360059460a0946105fb98600092610602575b50508160011b916000199060031b1c19161790555b0151151591019060ff801983541691151516179055565b61178b565b005b0151905038806105cf565b90601f198316918460005260206000209260005b81811061066a57508460a0946105fb98946106009b989460059860019510610651575b505050811b0190556105e4565b015160001960f88460031b161c19169055388080610644565b92936020600181928786015181550195019301610621565b836000526020600020601f840160051c810191602085106106c0575b601f0160051c01905b8181106106b457506105a7565b600081556001016106a7565b909150819061069e565b634e487b7160e01b600052604160045260246000fd5b015190503880610562565b601f198216956003860160005260206000209160005b88811061073f57508360019596979810610726575b505050811b01600384015561057a565b015160001960f88460031b161c19169055388080610716565b91926020600181928685015181550194019201610701565b600385016000526020600020601f830160051c81019160208410610798575b601f0160051c01905b81811061078c5750610545565b6000815560010161077f565b9091508190610776565b015190503880610501565b601f198216956002850160005260206000209160005b888110610801575083600195969798106107e8575b505050811b016002830155610519565b015160001960f88460031b161c191690553880806107d8565b919260206001819286850151815501940192016107c3565b600284016000526020600020601f830160051c810160208410610859575b601f830160051c8201811061084d5750506104e4565b60008155600101610837565b5080610837565b0151905038806104a2565b600186016000908152602081209350601f198516905b8181106108c057509084600195949392106108a7575b505050811b0160018301556104ba565b015160001960f88460031b161c19169055388080610897565b92936020600181928786015181550195019301610881565b909150600185016000526020600020601f840160051c810160208510610924575b90849392915b601f830160051c8201811061091557505061048b565b600081558594506001016108ff565b50806108f9565b01519050388061044c565b6000878152602081209350601f198516905b818110610984575090846001959493921061096b575b505050811b018355610461565b015160001960f88460031b161c1916905538808061095e565b92936020600181928786015181550195019301610948565b909150856000526020600020601f840160051c8101602085106109e3575b90601f8594930160051c01905b8181106109d45750610435565b600081558493506001016109c7565b50806109ba565b5034610187576000366003190112610187578051908160019081549384825260208092018095846000527fb10e2d527612073b26eecdfd717e6a320cf44b4afac2b0732d9fcbe2b7fa0cf69060005b818110610a8d5750505081610a4f910382611508565b83519382850191838652518092528401949160005b828110610a715785870386f35b83516001600160a01b0316875295810195928101928401610a64565b82546001600160a01b0316845292850192918601918601610a39565b503461018757600036600319011261018757336000526000602052610ad181600020546115c1565b15610af257336000908152602081905220600501805460ff19166001179055005b5162461bcd60e51b815260206004820152600f60248201526e2737ba103932b3b4b9ba32b932b21760891b6044820152606490fd5b503461018757610b363661157f565b919060018060a01b0316908160005260209160008352610b5f60ff60058460002001541661180a565b60005260048252600020908251906001600160401b0382116106ca57610b8583546115c1565b601f8111610c2d575b5080601f8311600114610bca5750819293600092610bbf575b5050600019600383901b1c191660019190911b179055005b015190503880610ba7565b90601f198316948460005282600020926000905b878210610c15575050836001959610610bfc575b505050811b019055005b015160001960f88460031b161c19169055388080610bf2565b80600185968294968601518155019501930190610bde565b8360005281600020601f840160051c810191838510610c69575b601f0160051c01905b818110610c5d5750610b8e565b60008155600101610c50565b9091508190610c47565b50346101875760a0366003190112610187576004356001600160401b03811161018757610ca4903690600401611529565b6024356001600160401b03811161018757610cc3903690600401611529565b6044356001600160401b03811161018757610ce2903690600401611529565b6064356001600160401b03811161018757610d01903690600401611529565b6084356001600160401b03811161018757610d20903690600401611529565b91336000526000602052610d3a6103d087600020546115c1565b855194610d46866114ed565b8552602085019384528585015260608401526080830152600060a0830152336000526000602052826000209082518051906001600160401b0382116106ca578190610d9185546115c1565b601f81116112b2575b50602090601f831160011461124c57600092611241575b50508160011b916000199060031b1c19161782555b519283516001600160401b0381116106ca57610de560018401546115c1565b601f81116111fa575b50602094601f821160011461118e57948192939495600092611183575b50508160011b916000199060031b1c19161760018301555b8201519182516001600160401b0381116106ca57610e4460028401546115c1565b601f8111611138575b506020601f82116001146110cc57819293946000926110c1575b50508160011b916000199060031b1c19161760028301555b60608101519182516001600160401b0381116106ca57610ea260038301546115c1565b601f8111611076575b506020601f821160011461100a5781929394600092610fff575b50508160011b916000199060031b1c19161760038201555b600481019160808101519283516001600160401b0381116106ca57610f0282546115c1565b601f8111610fb7575b506020601f8211600114610f615791816005949260a094610f58986000926106025750508160011b916000199060031b1c19161790550151151591019060ff801983541691151516179055565b6106003361178b565b601f198216958360005260206000209660005b818110610f9f575092610f589760a0959360019383600599971061065157505050811b0190556105e4565b83830151895560019098019760209384019301610f74565b826000526020600020601f830160051c81019160208410610ff5575b601f0160051c01905b818110610fe95750610f0b565b60008155600101610fdc565b9091508190610fd3565b015190503880610ec5565b601f198216906003840160005260206000209160005b81811061105e57509583600195969710611045575b505050811b016003820155610edd565b015160001960f88460031b161c19169055388080611035565b9192602060018192868b015181550194019201611020565b600383016000526020600020601f830160051c810191602084106110b7575b601f0160051c01905b8181106110ab5750610eab565b6000815560010161109e565b9091508190611095565b015190503880610e67565b601f198216906002850160005260206000209160005b81811061112057509583600195969710611107575b505050811b016002830155610e7f565b015160001960f88460031b161c191690553880806110f7565b9192602060018192868b0151815501940192016110e2565b600284016000526020600020601f830160051c81019160208410611179575b601f0160051c01905b81811061116d5750610e4d565b60008155600101611160565b9091508190611157565b015190503880610e0b565b601f198216956001850160005260206000209160005b8881106111e2575083600195969798106111c9575b505050811b016001830155610e23565b015160001960f88460031b161c191690553880806111b9565b919260206001819286850151815501940192016111a4565b600184016000526020600020601f830160051c81016020841061123a575b601f830160051c8201811061122e575050610dee565b60008155600101611218565b5080611218565b015190503880610db1565b6000868152602081209350601f198516905b81811061129a5750908460019594939210611281575b505050811b018255610dc6565b015160001960f88460031b161c19169055388080611274565b9293602060018192878601518155019501930161125e565b909150846000526020600020601f840160051c810191602085106112fb575b90601f859493920160051c01905b8181106112ec5750610d9a565b600081558493506001016112df565b90915081906112d1565b503461018757602036600319011261018757610183906001600160a01b0361132b6114d7565b1660005260036020526101c7816000206115fb565b50346101875780600319360112610187576001600160a01b036113616114d7565b1680600052600060205261137e60ff60058460002001541661180a565b6000526002602052600020805490602435820180921161139b5755005b634e487b7160e01b600052601160045260246000fd5b5034610187576113c03661157f565b919060018060a01b03169081600052602091600083526113e960ff60058460002001541661180a565b60005260038252600020908251906001600160401b0382116106ca5761140f83546115c1565b601f8111611491575b5080601f83116001146114485750819293600092610bbf575050600019600383901b1c191660019190911b179055005b90601f198316948460005282600020926000905b878210611479575050836001959610610bfc57505050811b019055005b8060018596829496860151815501950193019061145c565b8360005281600020601f840160051c8101918385106114cd575b601f0160051c01905b8181106114c15750611418565b600081556001016114b4565b90915081906114ab565b600435906001600160a01b038216820361018757565b60c081019081106001600160401b038211176106ca57604052565b90601f801991011681019081106001600160401b038211176106ca57604052565b81601f82011215610187578035906001600160401b0382116106ca576040519261155d601f8401601f191660200185611508565b8284526020838301011161018757816000926020809301838601378301015290565b906040600319830112610187576004356001600160a01b03811681036101875791602435906001600160401b038211610187576115be91600401611529565b90565b90600182811c921680156115f1575b60208310146115db57565b634e487b7160e01b600052602260045260246000fd5b91607f16916115d0565b906040519182600082549261160f846115c1565b90818452600194858116908160001461167e575060011461163b575b505061163992500383611508565b565b9093915060005260209081600020936000915b8183106116665750506116399350820101388061162b565b8554888401850152948501948794509183019161164e565b91505061163994506020925060ff191682840152151560051b820101388061162b565b919082519283825260005b8481106116cd575050826000602080949584010152601f8019910116010190565b6020818301810151848301820152016116ac565b9491936117256117419461171760a097611709611733969c9b9c60c08c5260c08c01906116a1565b908a820360208c01526116a1565b9088820360408a01526116a1565b9086820360608801526116a1565b9084820360808601526116a1565b931515910152565b1561175057565b60405162461bcd60e51b815260206004820152601360248201527220b63932b0b23c903932b3b4b9ba32b932b21760691b6044820152606490fd5b600154680100000000000000008110156106ca5760018101806001558110156117f45760016000527fb10e2d527612073b26eecdfd717e6a320cf44b4afac2b0732d9fcbe2b7fa0cf60180546001600160a01b0319166001600160a01b03909216919091179055565b634e487b7160e01b600052603260045260246000fd5b1561181157565b60405162461bcd60e51b815260206004820152601760248201527f41707072656e74696365206e6f7420626c6f6f6d65642e0000000000000000006044820152606490fdfea2646970667358221220421bf92b688b65fd2077ab2215b387be304fe2ed7c1f829b166c1d15a8ff328364736f6c63430008140033",
  "linkReferences": {},
  "deployedLinkReferences": {}
}