{
  "_format": "hh-sol-artifact-1",
  "contractName": "TerrainChoreographySanctum",
  "sourceName": "contracts/manifest/TerrainChoreographySanctum.sol",
  "abi": [
    {
      "inputs": [],
      "stateMutability": "nonpayable",
      "type": "constructor"
    },
    {
      "anonymous": false,
      "inputs": [
        {
          "indexed": false,
          "internalType": "string",
          "name": "chant",
          "type": "string"
        },
        {
          "indexed": false,
          "internalType": "string",
          "name": "glyph",
          "type": "string"
        },
        {
          "indexed": false,
          "internalType": "string",
          "name": "pulse",
          "type": "string"
        },
        {
          "indexed": false,
          "internalType": "string",
          "name": "choreography",
          "type": "string"
        },
        {
          "indexed": false,
          "internalType": "string",
          "name": "sanctum",
          "type": "string"
        }
      ],
      "name": "ChoreographySanctumRouted",
      "type": "event"
    },
    {
      "inputs": [
        {
          "internalType": "string",
          "name": "",
          "type": "string"
        }
      ],
      "name": "choreos",
      "outputs": [
        {
          "internalType": "string",
          "name": "chant",
          "type": "string"
        },
        {
          "internalType": "string",
          "name": "glyph",
          "type": "string"
        },
        {
          "internalType": "string",
          "name": "pulse",
          "type": "string"
        },
        {
          "internalType": "string",
          "name": "choreography",
          "type": "string"
        },
        {
          "internalType": "string",
          "name": "sanctum",
          "type": "string"
        }
      ],
      "stateMutability": "view",
      "type": "function"
    },
    {
      "inputs": [
        {
          "internalType": "string",
          "name": "chant",
          "type": "string"
        }
      ],
      "name": "getChoreo",
      "outputs": [
        {
          "components": [
            {
              "internalType": "string",
              "name": "chant",
              "type": "string"
            },
            {
              "internalType": "string",
              "name": "glyph",
              "type": "string"
            },
            {
              "internalType": "string",
              "name": "pulse",
              "type": "string"
            },
            {
              "internalType": "string",
              "name": "choreography",
              "type": "string"
            },
            {
              "internalType": "string",
              "name": "sanctum",
              "type": "string"
            }
          ],
          "internalType": "struct TerrainChoreographySanctum.Choreo",
          "name": "",
          "type": "tuple"
        }
      ],
      "stateMutability": "view",
      "type": "function"
    },
    {
      "inputs": [
        {
          "internalType": "uint256",
          "name": "",
          "type": "uint256"
        }
      ],
      "name": "keys",
      "outputs": [
        {
          "internalType": "string",
          "name": "",
          "type": "string"
        }
      ],
      "stateMutability": "view",
      "type": "function"
    },
    {
      "inputs": [
        {
          "internalType": "string",
          "name": "chant",
          "type": "string"
        },
        {
          "internalType": "string",
          "name": "glyph",
          "type": "string"
        },
        {
          "internalType": "string",
          "name": "pulse",
          "type": "string"
        },
        {
          "internalType": "string",
          "name": "choreography",
          "type": "string"
        },
        {
          "internalType": "string",
          "name": "sanctum",
          "type": "string"
        }
      ],
      "name": "routeChoreography",
      "outputs": [],
      "stateMutability": "nonpayable",
      "type": "function"
    },
    {
      "inputs": [],
      "name": "steward",
      "outputs": [
        {
          "internalType": "address",
          "name": "",
          "type": "address"
        }
      ],
      "stateMutability": "view",
      "type": "function"
    },
    {
      "inputs": [],
      "name": "totalChoreos",
      "outputs": [
        {
          "internalType": "uint256",
          "name": "",
          "type": "uint256"
        }
      ],
      "stateMutability": "view",
      "type": "function"
    }
  ],
  "bytecode": "0x6080806040523461002857600080546001600160a01b03191633179055610d3c908161002e8239f35b600080fdfe6080604052600436101561001257600080fd5b60003560e01c80630cb6aaf114610a2257806321b43481146108db578063637eea19146108b2578063668091cf14610894578063991ff287146107965763d6379ec71461005e57600080fd5b346107915760a0366003190112610791576004356001600160401b0381116107915761008e903690600401610c1e565b6024356001600160401b038111610791576100ad903690600401610c1e565b906044356001600160401b038111610791576100cd903690600401610c1e565b906064356001600160401b038111610791576100ed903690600401610c1e565b9190926084356001600160401b0381116107915761010f903690600401610c1e565b60005491979096916001600160a01b0316330361075e5760405161013281610af4565b61013d368b8d610c4b565b815261014a368385610c4b565b602082015261015a368587610c4b565b604082015261016a368789610c4b565b606082015261017a36898b610c4b565b60808201526040518a8c82376020818c810160018152030190209080518051906001600160401b0382116104d25781906101be826101b88754610aba565b87610c91565b602090601f83116001146106f2576000926106e7575b50508160011b916000199060031b1c19161782555b60208101518051906001600160401b0382116104d257819061021b826102126001880154610aba565b60018801610c91565b602090601f83116001146106755760009261066a575b50508160011b916000199060031b1c19161760018301555b60408101518051906001600160401b0382116104d257819061027b826102726002880154610aba565b60028801610c91565b602090601f83116001146105f8576000926105ed575b50508160011b916000199060031b1c19161760028301555b60608101518051906001600160401b0382116104d2576102d9826102d06003870154610aba565b60038701610c91565b602090601f831160011461057a5760809392916000918361056f575b50508160011b916000199060031b1c19161760038401555b0151908151906001600160401b0382116104d25760048291019261033b826103358654610aba565b86610c91565b602090601f8311600114610509576000926104fe575b50508160011b916000199060031b1c19161790555b600254680100000000000000008110156104d25780600161038a9201600255610a6d565b6104e8576001600160401b038a116104d2576103b08a6103aa8354610aba565b83610c91565b896000601f821160011461046b57600091610460575b508a60011b906000198c60031b1c19161790555b604051998a9960a08b5260a08b01906103f292610ce5565b9089820360208b015261040492610ce5565b90878203604089015261041692610ce5565b90858203606087015261042892610ce5565b90838203608085015261043a92610ce5565b037f3a8d25b225cd56a762b781f19fa0b3b6f9af98f916e6b1498b7626fa30d7ffa591a1005b90508b0135386103c6565b60008381526020812092505b8d601f198e1682106104ba5750508b601f198116106104a0575b505060018a811b0190556103da565b8c013560001960038d901b60f8161c191690553880610491565b60018394602093948493013581550193019101610477565b634e487b7160e01b600052604160045260246000fd5b634e487b7160e01b600052600060045260246000fd5b015190503880610351565b6000858152602081209350601f198516905b818110610557575090846001959493921061053e575b505050811b019055610366565b015160001960f88460031b161c19169055388080610531565b9293602060018192878601518155019501930161051b565b0151905038806102f5565b906003850160005260206000209160005b601f19851681106105d5575091839160019360809695601f198116106105bc575b505050811b01600384015561030d565b015160001960f88460031b161c191690553880806105ac565b9192602060018192868501518155019401920161058b565b015190503880610291565b9250600285016000526020600020906000935b601f198416851061064f576001945083601f19811610610636575b505050811b0160028301556102a9565b015160001960f88460031b161c19169055388080610626565b8181015183556020948501946001909301929091019061060b565b015190503880610231565b9250600185016000526020600020906000935b601f19841685106106cc576001945083601f198116106106b3575b505050811b016001830155610249565b015160001960f88460031b161c191690553880806106a3565b81810151835560209485019460019093019290910190610688565b0151905038806101d4565b9250846000526020600020906000935b601f1984168510610743576001945083601f1981161061072a575b505050811b0182556101e9565b015160001960f88460031b161c1916905538808061071d565b81810151835560209485019460019093019290910190610702565b60405162461bcd60e51b815260206004820152600b60248201526a139bdd081cdd195dd85c9960aa1b6044820152606490fd5b600080fd5b34610791576020366003190112610791576004356001600160401b0381116107915736602382011215610791576107f260206107df610858933690602481600401359101610c4b565b8160405193828580945193849201610bd6565b8101600181520301902061089061080882610b30565b9161088261081860018301610b30565b9161087461082860028301610b30565b610866610843600461083c60038701610b30565b9501610b30565b95604051998a9960a08b5260a08b0190610bf9565b9089820360208b0152610bf9565b908782036040890152610bf9565b908582036060870152610bf9565b908382036080850152610bf9565b0390f35b34610791576000366003190112610791576020600254604051908152f35b34610791576000366003190112610791576000546040516001600160a01b039091168152602090f35b346107915760208060031936011261079157600435906001600160401b03821161079157610890816109136080943690600401610c1e565b919060405161092181610af4565b606096818880935282858201528260408201528280820152015282604051938492833781016001815203019020926040519361095c85610af4565b61096581610b30565b8552610a1161097660018301610b30565b91858701928352610a0061098c60028301610b30565b604089019081526109b160046109a460038601610b30565b94888c0195865201610b30565b9560808a019687526109ef6109d98a60a06040519d8e9d8e5251918d015260c08c0190610bf9565b965196601f1997888c83030160408d0152610bf9565b915190868a840301908a0152610bf9565b905183878303016080880152610bf9565b9151908483030160a0850152610bf9565b346107915760203660031901126107915760043560025481101561079157610a4990610a6d565b6104e857610a5961089091610b30565b604051918291602083526020830190610bf9565b600254811015610aa45760026000527f405787fa12a823e0f2b7631cc41b3ba8828b3321ca811111fa75cd3aa3bb5ace0190600090565b634e487b7160e01b600052603260045260246000fd5b90600182811c92168015610aea575b6020831014610ad457565b634e487b7160e01b600052602260045260246000fd5b91607f1691610ac9565b60a081019081106001600160401b038211176104d257604052565b90601f801991011681019081106001600160401b038211176104d257604052565b9060405191826000825492610b4484610aba565b908184526001948581169081600014610bb35750600114610b70575b5050610b6e92500383610b0f565b565b9093915060005260209081600020936000915b818310610b9b575050610b6e93508201013880610b60565b85548884018501529485019487945091830191610b83565b915050610b6e94506020925060ff191682840152151560051b8201013880610b60565b60005b838110610be95750506000910152565b8181015183820152602001610bd9565b90602091610c1281518092818552858086019101610bd6565b601f01601f1916010190565b9181601f84011215610791578235916001600160401b038311610791576020838186019501011161079157565b9291926001600160401b0382116104d25760405191610c74601f8201601f191660200184610b0f565b829481845281830111610791578281602093846000960137010152565b90601f8111610c9f57505050565b600091825260208220906020601f850160051c83019410610cdb575b601f0160051c01915b828110610cd057505050565b818155600101610cc4565b9092508290610cbb565b908060209392818452848401376000828201840152601f01601f191601019056fea2646970667358221220c2c5c106f208dd0e56bcba527c7203850bd70b4c40d35ceac53fe624b64ebfbf64736f6c63430008140033",
  "linkReferences": {},
  "deployedLinkReferences": {}
}