{
  "_format": "hh-sol-artifact-1",
  "contractName": "TerrainPulse",
  "sourceName": "contracts/manifest/TerrainPulse.sol",
  "abi": [
    {
      "inputs": [],
      "stateMutability": "nonpayable",
      "type": "constructor"
    },
    {
      "anonymous": false,
      "inputs": [
        {
          "indexed": false,
          "internalType": "string",
          "name": "chant",
          "type": "string"
        },
        {
          "indexed": false,
          "internalType": "uint256",
          "name": "frequency",
          "type": "uint256"
        },
        {
          "indexed": false,
          "internalType": "string",
          "name": "signature",
          "type": "string"
        }
      ],
      "name": "PulseEchoed",
      "type": "event"
    },
    {
      "inputs": [
        {
          "internalType": "string",
          "name": "chant",
          "type": "string"
        },
        {
          "internalType": "uint256",
          "name": "frequency",
          "type": "uint256"
        },
        {
          "internalType": "string",
          "name": "signature",
          "type": "string"
        }
      ],
      "name": "echoPulse",
      "outputs": [],
      "stateMutability": "nonpayable",
      "type": "function"
    },
    {
      "inputs": [
        {
          "internalType": "string",
          "name": "chant",
          "type": "string"
        }
      ],
      "name": "getPulse",
      "outputs": [
        {
          "internalType": "uint256",
          "name": "",
          "type": "uint256"
        },
        {
          "internalType": "string",
          "name": "",
          "type": "string"
        }
      ],
      "stateMutability": "view",
      "type": "function"
    },
    {
      "inputs": [
        {
          "internalType": "uint256",
          "name": "",
          "type": "uint256"
        }
      ],
      "name": "keys",
      "outputs": [
        {
          "internalType": "string",
          "name": "",
          "type": "string"
        }
      ],
      "stateMutability": "view",
      "type": "function"
    },
    {
      "inputs": [
        {
          "internalType": "string",
          "name": "",
          "type": "string"
        }
      ],
      "name": "pulses",
      "outputs": [
        {
          "internalType": "string",
          "name": "chant",
          "type": "string"
        },
        {
          "internalType": "uint256",
          "name": "frequency",
          "type": "uint256"
        },
        {
          "internalType": "string",
          "name": "signature",
          "type": "string"
        }
      ],
      "stateMutability": "view",
      "type": "function"
    },
    {
      "inputs": [],
      "name": "steward",
      "outputs": [
        {
          "internalType": "address",
          "name": "",
          "type": "address"
        }
      ],
      "stateMutability": "view",
      "type": "function"
    },
    {
      "inputs": [],
      "name": "totalPulses",
      "outputs": [
        {
          "internalType": "uint256",
          "name": "",
          "type": "uint256"
        }
      ],
      "stateMutability": "view",
      "type": "function"
    }
  ],
  "bytecode": "0x6080806040523461002857600080546001600160a01b0319163317905561092a908161002e8239f35b600080fdfe6080604052600436101561001257600080fd5b60003560e01c80630cb6aaf11461060c578063637eea19146105e357806393e56b091461054a578063db443ff41461052c578063f0d4966c1461047c5763f285e3d11461005e57600080fd5b346104775760603660031901126104775760043567ffffffffffffffff81116104775761008f90369060040161080a565b9060443567ffffffffffffffff8111610477576100b090369060040161080a565b6000549193916001600160a01b03163303610444576040516100d1816106de565b6100dc368486610838565b815260243560208201526100f1368387610838565b6040820152604051838582376020818581016001815203019020815180519067ffffffffffffffff821161032f576101338261012d85546106a4565b8561087f565b602090601f83116001146103d7579180604094926002946000926103cc575b50508160011b916000199060031b1c19161781555b602084015160018201550191015180519067ffffffffffffffff821161032f57819061019d8261019786546106a4565b8661087f565b602090601f83116001146103665760009261035b575b50508160011b916000199060031b1c19161790555b6002546801000000000000000081101561032f578060016101ec9201600255610657565b6103455767ffffffffffffffff831161032f576102138361020d83546106a4565b8361087f565b6000601f84116001146102a257917fde1cf7cb6eff70b09bc65784a3148db08ec1d3ed8013dcd1f3a3f8dbd390095995918461029294600091610297575b508560011b906000198760031b1c19161790555b61027c6040519586956060875260608701916108d3565b91602435602086015284830360408601526108d3565b0390a1005b905086013538610251565b601f198416908260005260206000209160005b8181106103175750917fde1cf7cb6eff70b09bc65784a3148db08ec1d3ed8013dcd1f3a3f8dbd3900959979391866102929694106102fd575b5050600185811b019055610265565b870135600019600388901b60f8161c1916905538806102ee565b9192602060018192868b0135815501940192016102b5565b634e487b7160e01b600052604160045260246000fd5b634e487b7160e01b600052600060045260246000fd5b0151905038806101b3565b6000858152602081209350601f198516905b8181106103b4575090846001959493921061039b575b505050811b0190556101c8565b015160001960f88460031b161c1916905538808061038e565b92936020600181928786015181550195019301610378565b015190503880610152565b90601f198316918460005260206000209260005b81811061042c57509260019285926002966040989610610413575b505050811b018155610167565b015160001960f88460031b161c19169055388080610406565b929360206001819287860151815501950193016103eb565b60405162461bcd60e51b815260206004820152600b60248201526a139bdd081cdd195dd85c9960aa1b6044820152606490fd5b600080fd5b346104775760203660031901126104775760043567ffffffffffffffff81116104775736602382011215610477576104d960206104c6610515933690602481600401359101610838565b81604051938285809451938492016107c2565b810160018152030190206105286104ef8261071c565b9161050160026001830154920161071c565b6040519485946060865260608601906107e5565b91602085015283820360408501526107e5565b0390f35b34610477576000366003190112610477576020600254604051908152f35b346104775760203660031901126104775760043567ffffffffffffffff811161047757602061057f604092369060040161080a565b9190828451938492833781016001815203019020815161059e816106de565b6105a78261071c565b81526105c16002600184015493602084019485520161071c565b92839101525161052860405192839283526040602084015260408301906107e5565b34610477576000366003190112610477576000546040516001600160a01b039091168152602090f35b34610477576020366003190112610477576004356002548110156104775761063390610657565b610345576106436105289161071c565b6040519182916020835260208301906107e5565b60025481101561068e5760026000527f405787fa12a823e0f2b7631cc41b3ba8828b3321ca811111fa75cd3aa3bb5ace0190600090565b634e487b7160e01b600052603260045260246000fd5b90600182811c921680156106d4575b60208310146106be57565b634e487b7160e01b600052602260045260246000fd5b91607f16916106b3565b6060810190811067ffffffffffffffff82111761032f57604052565b90601f8019910116810190811067ffffffffffffffff82111761032f57604052565b9060405191826000825492610730846106a4565b90818452600194858116908160001461079f575060011461075c575b505061075a925003836106fa565b565b9093915060005260209081600020936000915b81831061078757505061075a9350820101388061074c565b8554888401850152948501948794509183019161076f565b91505061075a94506020925060ff191682840152151560051b820101388061074c565b60005b8381106107d55750506000910152565b81810151838201526020016107c5565b906020916107fe815180928185528580860191016107c2565b601f01601f1916010190565b9181601f840112156104775782359167ffffffffffffffff8311610477576020838186019501011161047757565b92919267ffffffffffffffff821161032f5760405191610862601f8201601f1916602001846106fa565b829481845281830111610477578281602093846000960137010152565b90601f811161088d57505050565b600091825260208220906020601f850160051c830194106108c9575b601f0160051c01915b8281106108be57505050565b8181556001016108b2565b90925082906108a9565b908060209392818452848401376000828201840152601f01601f191601019056fea2646970667358221220be548b7d0afa2f15f0c5162d3edbe1c57b3e8ad4d4a2e916db829c14e316790e64736f6c63430008140033",
  "linkReferences": {},
  "deployedLinkReferences": {}
}