{
  "_format": "hh-sol-artifact-1",
  "contractName": "ApprenticeSummonerXVI",
  "sourceName": "contracts/registry/ApprenticeSummonerXVI.sol",
  "abi": [
    {
      "inputs": [],
      "stateMutability": "nonpayable",
      "type": "constructor"
    },
    {
      "anonymous": false,
      "inputs": [
        {
          "indexed": true,
          "internalType": "address",
          "name": "apprentice",
          "type": "address"
        },
        {
          "indexed": false,
          "internalType": "string",
          "name": "name",
          "type": "string"
        },
        {
          "indexed": false,
          "internalType": "string",
          "name": "signal",
          "type": "string"
        },
        {
          "indexed": false,
          "internalType": "string",
          "name": "drift",
          "type": "string"
        },
        {
          "indexed": false,
          "internalType": "string",
          "name": "pulse",
          "type": "string"
        },
        {
          "indexed": false,
          "internalType": "string",
          "name": "codexRef",
          "type": "string"
        },
        {
          "indexed": false,
          "internalType": "string",
          "name": "resonance",
          "type": "string"
        },
        {
          "indexed": false,
          "internalType": "string",
          "name": "signature",
          "type": "string"
        },
        {
          "indexed": false,
          "internalType": "string",
          "name": "sanctum",
          "type": "string"
        },
        {
          "indexed": false,
          "internalType": "string",
          "name": "chant",
          "type": "string"
        },
        {
          "indexed": false,
          "internalType": "string",
          "name": "choreography",
          "type": "string"
        },
        {
          "indexed": false,
          "internalType": "string",
          "name": "stewardName",
          "type": "string"
        },
        {
          "indexed": false,
          "internalType": "string",
          "name": "echo",
          "type": "string"
        },
        {
          "indexed": false,
          "internalType": "string",
          "name": "choreographyType",
          "type": "string"
        }
      ],
      "name": "ApprenticeSummoned",
      "type": "event"
    },
    {
      "inputs": [
        {
          "internalType": "uint256",
          "name": "",
          "type": "uint256"
        }
      ],
      "name": "apprentices",
      "outputs": [
        {
          "internalType": "address",
          "name": "",
          "type": "address"
        }
      ],
      "stateMutability": "view",
      "type": "function"
    },
    {
      "inputs": [
        {
          "internalType": "address",
          "name": "apprentice",
          "type": "address"
        }
      ],
      "name": "getSummons",
      "outputs": [
        {
          "components": [
            {
              "internalType": "string",
              "name": "name",
              "type": "string"
            },
            {
              "internalType": "string",
              "name": "signal",
              "type": "string"
            },
            {
              "internalType": "string",
              "name": "drift",
              "type": "string"
            },
            {
              "internalType": "string",
              "name": "pulse",
              "type": "string"
            },
            {
              "internalType": "string",
              "name": "codexRef",
              "type": "string"
            },
            {
              "internalType": "string",
              "name": "resonance",
              "type": "string"
            },
            {
              "internalType": "string",
              "name": "signature",
              "type": "string"
            },
            {
              "internalType": "string",
              "name": "sanctum",
              "type": "string"
            },
            {
              "internalType": "string",
              "name": "chant",
              "type": "string"
            },
            {
              "internalType": "string",
              "name": "choreography",
              "type": "string"
            },
            {
              "internalType": "string",
              "name": "stewardName",
              "type": "string"
            },
            {
              "internalType": "string",
              "name": "echo",
              "type": "string"
            },
            {
              "internalType": "string",
              "name": "choreographyType",
              "type": "string"
            }
          ],
          "internalType": "struct ApprenticeSummonerXVI.Summons",
          "name": "",
          "type": "tuple"
        }
      ],
      "stateMutability": "view",
      "type": "function"
    },
    {
      "inputs": [],
      "name": "steward",
      "outputs": [
        {
          "internalType": "address",
          "name": "",
          "type": "address"
        }
      ],
      "stateMutability": "view",
      "type": "function"
    },
    {
      "inputs": [
        {
          "internalType": "address",
          "name": "apprentice",
          "type": "address"
        },
        {
          "internalType": "string",
          "name": "name",
          "type": "string"
        },
        {
          "internalType": "string",
          "name": "signal",
          "type": "string"
        },
        {
          "internalType": "string",
          "name": "drift",
          "type": "string"
        },
        {
          "internalType": "string",
          "name": "pulse",
          "type": "string"
        },
        {
          "internalType": "string",
          "name": "codexRef",
          "type": "string"
        },
        {
          "internalType": "string",
          "name": "resonance",
          "type": "string"
        },
        {
          "internalType": "string",
          "name": "signature",
          "type": "string"
        },
        {
          "internalType": "string",
          "name": "sanctum",
          "type": "string"
        },
        {
          "internalType": "string",
          "name": "chant",
          "type": "string"
        },
        {
          "internalType": "string",
          "name": "choreography",
          "type": "string"
        },
        {
          "internalType": "string",
          "name": "stewardName",
          "type": "string"
        },
        {
          "internalType": "string",
          "name": "echo",
          "type": "string"
        },
        {
          "internalType": "string",
          "name": "choreographyType",
          "type": "string"
        }
      ],
      "name": "summonApprentice",
      "outputs": [],
      "stateMutability": "nonpayable",
      "type": "function"
    },
    {
      "inputs": [
        {
          "internalType": "address",
          "name": "",
          "type": "address"
        }
      ],
      "name": "summons",
      "outputs": [
        {
          "internalType": "string",
          "name": "name",
          "type": "string"
        },
        {
          "internalType": "string",
          "name": "signal",
          "type": "string"
        },
        {
          "internalType": "string",
          "name": "drift",
          "type": "string"
        },
        {
          "internalType": "string",
          "name": "pulse",
          "type": "string"
        },
        {
          "internalType": "string",
          "name": "codexRef",
          "type": "string"
        },
        {
          "internalType": "string",
          "name": "resonance",
          "type": "string"
        },
        {
          "internalType": "string",
          "name": "signature",
          "type": "string"
        },
        {
          "internalType": "string",
          "name": "sanctum",
          "type": "string"
        },
        {
          "internalType": "string",
          "name": "chant",
          "type": "string"
        },
        {
          "internalType": "string",
          "name": "choreography",
          "type": "string"
        },
        {
          "internalType": "string",
          "name": "stewardName",
          "type": "string"
        },
        {
          "internalType": "string",
          "name": "echo",
          "type": "string"
        },
        {
          "internalType": "string",
          "name": "choreographyType",
          "type": "string"
        }
      ],
      "stateMutability": "view",
      "type": "function"
    },
    {
      "inputs": [],
      "name": "totalSummons",
      "outputs": [
        {
          "internalType": "uint256",
          "name": "",
          "type": "uint256"
        }
      ],
      "stateMutability": "view",
      "type": "function"
    }
  ],
  "bytecode": "0x6080806040523461002857600080546001600160a01b03191633179055611d16908161002e8239f35b600080fdfe61042080604052600436101561001457600080fd5b60003560e01c9081632a17d4cd14611a71575080635a2ed662146118b8578063637eea191461188f578063ba238d6a14610379578063cf84c603146100a95763f31bee3e1461006257600080fd5b346100a45760203660031901126100a4576004356002548110156100a45761008b602091611c2c565b905460405160039290921b1c6001600160a01b03168152f35b600080fd5b346100a45760203660031901126100a4576100c2611a8c565b60606101806040516100d381611adc565b82815282602082015282604082015282808201528260808201528260a08201528260c08201528260e082015282610100820152826101208201528261014082015282610160820152015260018060a01b031660005260016020526102916040600020610217600c6040519261014784611adc565b61015081611b19565b845261015e60018201611b19565b602085015261016f60028201611b19565b604085015261018060038201611b19565b606085015261019160048201611b19565b60808501526101a260058201611b19565b60a08501526101b360068201611b19565b60c08501526101c460078201611b19565b60e08501526101d560088201611b19565b6101008501526101e760098201611b19565b6101208501526101f9600a8201611b19565b61014085015261020b600b8201611b19565b61016085015201611b19565b6101808201526103758161018061036061034a61033261031a6103026102eb6102d56102bf6102a96040519d8e9d8e60208152604061027c61026784516101a060208601526101c0850190611bbf565b6020850151848203601f190184860152611bbf565b920151906060601f1982850301910152611bbf565b8d60608d0151906080601f1982850301910152611bbf565b60808b01518d8203601f190160a08f0152611bbf565b60a08a01518c8203601f190160c08e0152611bbf565b60c08901518b8203601f190160e08d0152611bbf565b60e08801518a8203601f19016101008c0152611bbf565b610100870151898203601f19016101208b0152611bbf565b610120860151888203601f19016101408a0152611bbf565b610140850151878203601f1901610160890152611bbf565b610160840151868203601f190184880152611bbf565b910151838203601f19016101a0850152611bbf565b0390f35b346100a4576101c03660031901126100a457610393611a8c565b610100526024356001600160401b0381116100a4576103b6903690600401611bff565b61026052610400526044356001600160401b0381116100a4576103dd903690600401611bff565b6101405260a0526064356001600160401b0381116100a457610403903690600401611bff565b6101e052610200526084356001600160401b0381116100a45761042a903690600401611bff565b610220526103e05260a4356001600160401b0381116100a457610451903690600401611bff565b6101a0526101805260c4356001600160401b0381116100a457610478903690600401611bff565b6103c0526101605260e4356001600160401b0381116100a45761049f903690600401611bff565b6102e05260c0526001600160401b0361010435116100a4576104c73661010435600401611bff565b60e05261038052610124356001600160401b0381116100a4576104ee903690600401611bff565b61030052610240526001600160401b0361014435116100a4576105173661014435600401611bff565b6102c05261036052610164356001600160401b0381116100a45761053f903690600401611bff565b6101c05261034052610184356001600160401b0381116100a457610567903690600401611bff565b6102a0526103a0526101a4356001600160401b0381116100a45761058f903690600401611bff565b61012052610320526000546001600160a01b0316330361185c576105b860405180608052611adc565b6105c9366102605161040051611c79565b608051526105dd366101405160a051611c79565b602060805101526105f5366101e05161020051611c79565b6040608051015261060d36610220516103e051611c79565b60606080510152610625366101a05161018051611c79565b60808051015261063c366103c05161016051611c79565b60a06080510152610653366102e05160c051611c79565b60c0608051015261066a3660e05161038051611c79565b60e06080510152610682366103005161024051611c79565b610100608051015261069b366102c05161036051611c79565b61012060805101526106b4366101c05161034051611c79565b61014060805101526106cd366102a0516103a051611c79565b61016060805101526106e6366101205161032051611c79565b610180608051015260018060a01b03610100511660005260016020526040600020608051518051906001600160401b038211610dcf5781906107288454611aa2565b601f811161180c575b50602090601f83116001146117a057600092611795575b50508160011b916000199060031b1c19161781555b602060805101518051906001600160401b038211610dcf5781906107846001850154611aa2565b601f8111611742575b50602090601f83116001146116d0576000926116c5575b50508160011b916000199060031b1c19161760018201555b604060805101518051906001600160401b038211610dcf5781906107e36002850154611aa2565b601f8111611672575b50602090601f8311600114611600576000926115f5575b50508160011b916000199060031b1c19161760028201555b606060805101518051906001600160401b038211610dcf5781906108426003850154611aa2565b601f81116115a2575b50602090601f831160011461153057600092611525575b50508160011b916000199060031b1c19161760038201555b6080805101518051906001600160401b038211610dcf5781906108a06004850154611aa2565b601f81116114d2575b50602090601f831160011461146057600092611455575b50508160011b916000199060031b1c19161760048201555b60a060805101518051906001600160401b038211610dcf5781906108ff6005850154611aa2565b601f8111611402575b50602090601f831160011461139057600092611385575b50508160011b916000199060031b1c19161760058201555b60c060805101518051906001600160401b038211610dcf57819061095e6006850154611aa2565b601f8111611332575b50602090601f83116001146112c0576000926112b5575b50508160011b916000199060031b1c19161760068201555b60e060805101518051906001600160401b038211610dcf5781906109bd6007850154611aa2565b601f8111611262575b50602090601f83116001146111f0576000926111e5575b50508160011b916000199060031b1c19161760078201555b61010060805101518051906001600160401b038211610dcf578190610a1d6008850154611aa2565b601f8111611192575b50602090601f831160011461112057600092611115575b50508160011b916000199060031b1c19161760088201555b61012060805101518051906001600160401b038211610dcf578190610a7d6009850154611aa2565b601f81116110c2575b50602090601f831160011461105057600092611045575b50508160011b916000199060031b1c19161760098201555b61014060805101518051906001600160401b038211610dcf578190610add600a850154611aa2565b601f8111610ff2575b50602090601f8311600114610f8057600092610f75575b50508160011b916000199060031b1c191617600a8201555b61016060805101518051906001600160401b038211610dcf578190610b3d600b850154611aa2565b601f8111610f22575b50602090601f8311600114610eb057600092610ea5575b50508160011b916000199060031b1c191617600b8201555b61018060805101518051906001600160401b038211610dcf57610b9b600c840154611aa2565b601f8111610e5e575b50602090601f8311600114610df057600c929160009183610de5575b50508160011b916000199060031b1c1916179101555b60025468010000000000000000811015610dcf57806001610bfa9201600255611c2c565b81549060031b9060018060a01b036101005116821b9160018060a01b03901b19161790556101a0604051806102805252610d77610d5d610d43610d29610d0f610cf7610cdf610cc6610cad610c94610c7b610c636101a061028051016102605161040051611cbf565b6102805160208183039101526101405160a051611cbf565b6102805160408183039101526101e05161020051611cbf565b610280516060818303910152610220516103e051611cbf565b6102805160808183039101526101a05161018051611cbf565b6102805160a08183039101526103c05161016051611cbf565b6102805160c08183039101526102e05160c051611cbf565b6102805160e081830391015260e05161038051611cbf565b610280516101008183039101526103005161024051611cbf565b610280516101208183039101526102c05161036051611cbf565b610280516101408183039101526101c05161034051611cbf565b610280516101608183039101526102a0516103a051611cbf565b610280516101808183039101527f560a7e4f22676731cb7c61dd8623db54e954396c0ff6233059df102e82cebe2260018060a01b03610100511691610dc761028051916101205161032051611cbf565b0361028051a2005b634e487b7160e01b600052604160045260246000fd5b015190508480610bc0565b90600c84016000526020600020916000601f198516905b818110610e465750916001939185600c969410610e2d575b505050811b01910155610bd6565b015160001960f88460031b161c19169055848080610e1f565b92936020600181928786015181550195019301610e07565b600c84016000526020600020601f840160051c810160208510610e9e575b601f830160051c82018110610e92575050610ba4565b60008155600101610e7c565b5080610e7c565b015190508380610b5d565b9250600b84016000526020600020906000935b601f1984168510610f07576001945083601f19811610610eee575b505050811b01600b820155610b75565b015160001960f88460031b161c19169055838080610ede565b81810151835560209485019460019093019290910190610ec3565b909150600b84016000526020600020601f840160051c810160208510610f6e575b90849392915b601f830160051c82018110610f5f575050610b46565b60008155859450600101610f49565b5080610f43565b015190508380610afd565b9250600a84016000526020600020906000935b601f1984168510610fd7576001945083601f19811610610fbe575b505050811b01600a820155610b15565b015160001960f88460031b161c19169055838080610fae565b81810151835560209485019460019093019290910190610f93565b909150600a84016000526020600020601f840160051c81016020851061103e575b90849392915b601f830160051c8201811061102f575050610ae6565b60008155859450600101611019565b5080611013565b015190508380610a9d565b9250600984016000526020600020906000935b601f19841685106110a7576001945083601f1981161061108e575b505050811b016009820155610ab5565b015160001960f88460031b161c1916905583808061107e565b81810151835560209485019460019093019290910190611063565b909150600984016000526020600020601f840160051c81016020851061110e575b90849392915b601f830160051c820181106110ff575050610a86565b600081558594506001016110e9565b50806110e3565b015190508380610a3d565b9250600884016000526020600020906000935b601f1984168510611177576001945083601f1981161061115e575b505050811b016008820155610a55565b015160001960f88460031b161c1916905583808061114e565b81810151835560209485019460019093019290910190611133565b909150600884016000526020600020601f840160051c8101602085106111de575b90849392915b601f830160051c820181106111cf575050610a26565b600081558594506001016111b9565b50806111b3565b0151905083806109dd565b9250600784016000526020600020906000935b601f1984168510611247576001945083601f1981161061122e575b505050811b0160078201556109f5565b015160001960f88460031b161c1916905583808061121e565b81810151835560209485019460019093019290910190611203565b909150600784016000526020600020601f840160051c8101602085106112ae575b90849392915b601f830160051c8201811061129f5750506109c6565b60008155859450600101611289565b5080611283565b01519050838061097e565b9250600684016000526020600020906000935b601f1984168510611317576001945083601f198116106112fe575b505050811b016006820155610996565b015160001960f88460031b161c191690558380806112ee565b818101518355602094850194600190930192909101906112d3565b909150600684016000526020600020601f840160051c81016020851061137e575b90849392915b601f830160051c8201811061136f575050610967565b60008155859450600101611359565b5080611353565b01519050838061091f565b9250600584016000526020600020906000935b601f19841685106113e7576001945083601f198116106113ce575b505050811b016005820155610937565b015160001960f88460031b161c191690558380806113be565b818101518355602094850194600190930192909101906113a3565b909150600584016000526020600020601f840160051c81016020851061144e575b90849392915b601f830160051c8201811061143f575050610908565b60008155859450600101611429565b5080611423565b0151905083806108c0565b9250600484016000526020600020906000935b601f19841685106114b7576001945083601f1981161061149e575b505050811b0160048201556108d8565b015160001960f88460031b161c1916905583808061148e565b81810151835560209485019460019093019290910190611473565b909150600484016000526020600020601f840160051c81016020851061151e575b90849392915b601f830160051c8201811061150f5750506108a9565b600081558594506001016114f9565b50806114f3565b015190508380610862565b9250600384016000526020600020906000935b601f1984168510611587576001945083601f1981161061156e575b505050811b01600382015561087a565b015160001960f88460031b161c1916905583808061155e565b81810151835560209485019460019093019290910190611543565b909150600384016000526020600020601f840160051c8101602085106115ee575b90849392915b601f830160051c820181106115df57505061084b565b600081558594506001016115c9565b50806115c3565b015190508380610803565b9250600284016000526020600020906000935b601f1984168510611657576001945083601f1981161061163e575b505050811b01600282015561081b565b015160001960f88460031b161c1916905583808061162e565b81810151835560209485019460019093019290910190611613565b909150600284016000526020600020601f840160051c8101602085106116be575b90849392915b601f830160051c820181106116af5750506107ec565b60008155859450600101611699565b5080611693565b0151905083806107a4565b9250600184016000526020600020906000935b601f1984168510611727576001945083601f1981161061170e575b505050811b0160018201556107bc565b015160001960f88460031b161c191690558380806116fe565b818101518355602094850194600190930192909101906116e3565b909150600184016000526020600020601f840160051c81016020851061178e575b90849392915b601f830160051c8201811061177f57505061078d565b60008155859450600101611769565b5080611763565b015190508380610748565b9250836000526020600020906000935b601f19841685106117f1576001945083601f198116106117d8575b505050811b01815561075d565b015160001960f88460031b161c191690558380806117cb565b818101518355602094850194600190930192909101906117b0565b909150836000526020600020601f840160051c810160208510611855575b90849392915b601f830160051c82018110611846575050610731565b60008155859450600101611830565b508061182a565b60405162461bcd60e51b815260206004820152600b60248201526a139bdd081cdd195dd85c9960aa1b6044820152606490fd5b346100a45760003660031901126100a4576000546040516001600160a01b039091168152602090f35b346100a45760203660031901126100a4576001600160a01b036118d9611a8c565b16600052600160205260406000206118f081611b19565b6118fc60018301611b19565b9161190960028201611b19565b9061191660038201611b19565b61192260048301611b19565b61192e60058401611b19565b61193a60068501611b19565b61194660078601611b19565b9061195360088701611b19565b9261196060098801611b19565b9461196d600a8901611b19565b9661197a600b8a01611b19565b98600c0161198790611b19565b996040519c8d9c8d6101a090818152016119a091611bbf565b8d810360208f01526119b191611bbf565b8c810360408e01526119c291611bbf565b8b810360608d01526119d391611bbf565b8a810360808c01526119e491611bbf565b89810360a08b01526119f591611bbf565b88810360c08a0152611a0691611bbf565b87810360e0890152611a1791611bbf565b868103610100880152611a2991611bbf565b858103610120870152611a3b91611bbf565b848103610140860152611a4d91611bbf565b838103610160850152611a5f91611bbf565b82810361018084015261037591611bbf565b346100a45760003660031901126100a4576020906002548152f35b600435906001600160a01b03821682036100a457565b90600182811c92168015611ad2575b6020831014611abc57565b634e487b7160e01b600052602260045260246000fd5b91607f1691611ab1565b6101a081019081106001600160401b03821117610dcf57604052565b90601f801991011681019081106001600160401b03821117610dcf57604052565b9060405191826000825492611b2d84611aa2565b908184526001948581169081600014611b9c5750600114611b59575b5050611b5792500383611af8565b565b9093915060005260209081600020936000915b818310611b84575050611b5793508201013880611b49565b85548884018501529485019487945091830191611b6c565b915050611b5794506020925060ff191682840152151560051b8201013880611b49565b919082519283825260005b848110611beb575050826000602080949584010152601f8019910116010190565b602081830181015184830182015201611bca565b9181601f840112156100a4578235916001600160401b0383116100a457602083818601950101116100a457565b600254811015611c635760026000527f405787fa12a823e0f2b7631cc41b3ba8828b3321ca811111fa75cd3aa3bb5ace0190600090565b634e487b7160e01b600052603260045260246000fd5b9291926001600160401b038211610dcf5760405191611ca2601f8201601f191660200184611af8565b8294818452818301116100a4578281602093846000960137010152565b908060209392818452848401376000828201840152601f01601f191601019056fea2646970667358221220b1d2a779f8cf9f7519ac588895ddc37d9661674bc2754659b32cd39a8322f18164736f6c63430008140033",
  "linkReferences": {},
  "deployedLinkReferences": {}
}