{
  "_format": "hh-sol-artifact-1",
  "contractName": "EMPAC",
  "sourceName": "contracts/empac/EMPAC.sol",
  "abi": [
    {
      "inputs": [],
      "stateMutability": "nonpayable",
      "type": "constructor"
    },
    {
      "anonymous": false,
      "inputs": [
        {
          "indexed": false,
          "internalType": "string",
          "name": "name",
          "type": "string"
        }
      ],
      "name": "LineageEchoed",
      "type": "event"
    },
    {
      "anonymous": false,
      "inputs": [
        {
          "indexed": false,
          "internalType": "string",
          "name": "protocol",
          "type": "string"
        }
      ],
      "name": "MythlineCompliant",
      "type": "event"
    },
    {
      "anonymous": false,
      "inputs": [
        {
          "indexed": false,
          "internalType": "string",
          "name": "phase",
          "type": "string"
        }
      ],
      "name": "PhaseCleared",
      "type": "event"
    },
    {
      "anonymous": false,
      "inputs": [
        {
          "indexed": false,
          "internalType": "address",
          "name": "registry",
          "type": "address"
        }
      ],
      "name": "RegistryLinked",
      "type": "event"
    },
    {
      "inputs": [
        {
          "internalType": "string",
          "name": "protocol",
          "type": "string"
        }
      ],
      "name": "certifyMythline",
      "outputs": [],
      "stateMutability": "nonpayable",
      "type": "function"
    },
    {
      "inputs": [
        {
          "internalType": "string",
          "name": "phase",
          "type": "string"
        }
      ],
      "name": "clearPhase",
      "outputs": [],
      "stateMutability": "nonpayable",
      "type": "function"
    },
    {
      "inputs": [
        {
          "internalType": "string",
          "name": "name",
          "type": "string"
        }
      ],
      "name": "echoLineage",
      "outputs": [],
      "stateMutability": "nonpayable",
      "type": "function"
    },
    {
      "inputs": [
        {
          "internalType": "uint256",
          "name": "index",
          "type": "uint256"
        }
      ],
      "name": "getLineage",
      "outputs": [
        {
          "internalType": "string",
          "name": "",
          "type": "string"
        }
      ],
      "stateMutability": "view",
      "type": "function"
    },
    {
      "inputs": [
        {
          "internalType": "uint256",
          "name": "",
          "type": "uint256"
        }
      ],
      "name": "lineage",
      "outputs": [
        {
          "internalType": "string",
          "name": "",
          "type": "string"
        }
      ],
      "stateMutability": "view",
      "type": "function"
    },
    {
      "inputs": [
        {
          "internalType": "address",
          "name": "registry",
          "type": "address"
        }
      ],
      "name": "linkRegistry",
      "outputs": [],
      "stateMutability": "nonpayable",
      "type": "function"
    },
    {
      "inputs": [
        {
          "internalType": "string",
          "name": "",
          "type": "string"
        }
      ],
      "name": "mythlineCompliant",
      "outputs": [
        {
          "internalType": "bool",
          "name": "",
          "type": "bool"
        }
      ],
      "stateMutability": "view",
      "type": "function"
    },
    {
      "inputs": [
        {
          "internalType": "string",
          "name": "",
          "type": "string"
        }
      ],
      "name": "phaseClear",
      "outputs": [
        {
          "internalType": "bool",
          "name": "",
          "type": "bool"
        }
      ],
      "stateMutability": "view",
      "type": "function"
    },
    {
      "inputs": [],
      "name": "sovereignRegistry",
      "outputs": [
        {
          "internalType": "address",
          "name": "",
          "type": "address"
        }
      ],
      "stateMutability": "view",
      "type": "function"
    },
    {
      "inputs": [],
      "name": "steward",
      "outputs": [
        {
          "internalType": "address",
          "name": "",
          "type": "address"
        }
      ],
      "stateMutability": "view",
      "type": "function"
    }
  ],
  "bytecode": "0x6080806040523461002857600080546001600160a01b03191633179055610837908161002e8239f35b600080fdfe6040608081526004908136101561001557600080fd5b600091823560e01c806325762a81146104b45780633b7690211461048b57806344a15c571461045d5780635022a482146103e857806357c6cc39146103be578063637eea1914610396578063687decb7146103215780639c2d53d7146102e1578063b1ccfb661461027e5763f0ae81781461008f57600080fd5b3461027a5761009d366105fc565b9290916100b460018060a01b03865416331461079f565b805468010000000000000000811015610267576100d76001918281018455610672565b9290926102555767ffffffffffffffff861161024257506100f882546106bf565b601f81116101fa575b5085601f861160011461016d579185807f68d48d77ac9afd1691627c14e54dff1f5bd2e13ecc597bdc4fce2695143b04389796959361015c958a93610162575b501b906000198760031b1c19161790555b51928392836107d9565b0390a180f35b870135925038610141565b82875260208088209190601f1988169089905b8282106101e35750509187969593917f68d48d77ac9afd1691627c14e54dff1f5bd2e13ecc597bdc4fce2695143b04389861015c9694106101c9575b505085811b019055610152565b860135600019600389901b60f8161c1916905538806101bc565b808685968294968c01358155019501930190610180565b82875260208720601f870160051c81019160208810610238575b601f0160051c019082905b82811061022d575050610101565b88815501829061021f565b9091508190610214565b634e487b7160e01b875260419052602486fd5b634e487b7160e01b8752869052602486fd5b634e487b7160e01b865260418252602486fd5b8280fd5b5091346102de5760203660031901126102de57823583548110156102da576102a590610672565b9390936102c8576102c4836102b9866106f9565b905191829182610646565b0390f35b634e487b7160e01b8252819052602490fd5b5080fd5b80fd5b5050346102da5760209060ff61030c836102fa36610563565b818551938285809451938492016105d9565b81016002815203019020541690519015158152f35b5050346102da5761015c7fe2d43c6b9d87534baddfc6d7414e1e7c790fb8bf03669af6d9fc5351e09c6bc591610356366105fc565b92909161036d60018060a01b03875416331461079f565b8051848482376020818681016002815203019020600160ff1982541617905551928392836107d9565b5050346102da57816003193601126102da57905490516001600160a01b039091168152602090f35b5091346102de5760203660031901126102de57506102b96103e26102c49335610672565b506106f9565b5050346102da5761015c7fd54185edd6135b387571508ebbf079fb432c4135ac9470b6153be5d0ff60f3d49161041d366105fc565b92909161043460018060a01b03875416331461079f565b8051848482376020818681016003815203019020600160ff1982541617905551928392836107d9565b5050346102da5760209060ff610476836102fa36610563565b81016003815203019020541690519015158152f35b5050346102da57816003193601126102da5760015490516001600160a01b039091168152602090f35b503461027a57602036600319011261027a576001600160a01b03903581811690819003610527577f86bccda1e3bbbe01513f20b182842ffb6ee13afdbf54c18a2fc6bb8148469cdf9261050d602093865416331461079f565b600180546001600160a01b0319168317905551908152a180f35b8380fd5b90601f8019910116810190811067ffffffffffffffff82111761054d57604052565b634e487b7160e01b600052604160045260246000fd5b60206003198201126105d45767ffffffffffffffff6004358181116105d457826023820112156105d457806004013591821161054d57604051926105b1601f8401601f19166020018561052b565b828452602483830101116105d45781600092602460209301838601378301015290565b600080fd5b60005b8381106105ec5750506000910152565b81810151838201526020016105dc565b9060206003198301126105d45760043567ffffffffffffffff928382116105d457806023830112156105d45781600401359384116105d457602484830101116105d4576024019190565b6040916020825261066681518092816020860152602086860191016105d9565b601f01601f1916010190565b6004548110156106a95760046000527f8a35acfbc15ff81a39ae7d344fd709f28e8600b4aa8c65c6b64bfe7fe36bd19b0190600090565b634e487b7160e01b600052603260045260246000fd5b90600182811c921680156106ef575b60208310146106d957565b634e487b7160e01b600052602260045260246000fd5b91607f16916106ce565b906040519182600082549261070d846106bf565b90818452600194858116908160001461077c5750600114610739575b50506107379250038361052b565b565b9093915060005260209081600020936000915b81831061076457505061073793508201013880610729565b8554888401850152948501948794509183019161074c565b91505061073794506020925060ff191682840152151560051b8201013880610729565b156107a657565b60405162461bcd60e51b815260206004820152600b60248201526a139bdd081cdd195dd85c9960aa1b6044820152606490fd5b90918060409360208452816020850152848401376000828201840152601f01601f191601019056fea2646970667358221220c1ed85688bf1b0913dc63edbffdd83fc2b2563957fc9d2bd989221785a0892b164736f6c63430008140033",
  "linkReferences": {},
  "deployedLinkReferences": {}
}