{
  "_format": "hh-sol-artifact-1",
  "contractName": "EMPACPhase",
  "sourceName": "contracts/empac/EMPACPhase.sol",
  "abi": [
    {
      "inputs": [],
      "stateMutability": "nonpayable",
      "type": "constructor"
    },
    {
      "anonymous": false,
      "inputs": [
        {
          "indexed": false,
          "internalType": "string",
          "name": "name",
          "type": "string"
        },
        {
          "indexed": false,
          "internalType": "string",
          "name": "note",
          "type": "string"
        }
      ],
      "name": "BreachChoreographed",
      "type": "event"
    },
    {
      "anonymous": false,
      "inputs": [
        {
          "indexed": false,
          "internalType": "string",
          "name": "name",
          "type": "string"
        }
      ],
      "name": "PhaseCleared",
      "type": "event"
    },
    {
      "anonymous": false,
      "inputs": [
        {
          "indexed": false,
          "internalType": "string",
          "name": "name",
          "type": "string"
        }
      ],
      "name": "PhaseDeclared",
      "type": "event"
    },
    {
      "inputs": [
        {
          "internalType": "string",
          "name": "name",
          "type": "string"
        },
        {
          "internalType": "string",
          "name": "note",
          "type": "string"
        }
      ],
      "name": "choreographBreach",
      "outputs": [],
      "stateMutability": "nonpayable",
      "type": "function"
    },
    {
      "inputs": [
        {
          "internalType": "string",
          "name": "name",
          "type": "string"
        }
      ],
      "name": "clearPhase",
      "outputs": [],
      "stateMutability": "nonpayable",
      "type": "function"
    },
    {
      "inputs": [
        {
          "internalType": "string",
          "name": "name",
          "type": "string"
        }
      ],
      "name": "declarePhase",
      "outputs": [],
      "stateMutability": "nonpayable",
      "type": "function"
    },
    {
      "inputs": [
        {
          "internalType": "string",
          "name": "name",
          "type": "string"
        }
      ],
      "name": "getPhase",
      "outputs": [
        {
          "internalType": "string",
          "name": "",
          "type": "string"
        },
        {
          "internalType": "bool",
          "name": "",
          "type": "bool"
        },
        {
          "internalType": "string",
          "name": "",
          "type": "string"
        }
      ],
      "stateMutability": "view",
      "type": "function"
    },
    {
      "inputs": [
        {
          "internalType": "uint256",
          "name": "",
          "type": "uint256"
        }
      ],
      "name": "phaseKeys",
      "outputs": [
        {
          "internalType": "string",
          "name": "",
          "type": "string"
        }
      ],
      "stateMutability": "view",
      "type": "function"
    },
    {
      "inputs": [
        {
          "internalType": "string",
          "name": "",
          "type": "string"
        }
      ],
      "name": "phases",
      "outputs": [
        {
          "internalType": "string",
          "name": "name",
          "type": "string"
        },
        {
          "internalType": "bool",
          "name": "cleared",
          "type": "bool"
        },
        {
          "internalType": "string",
          "name": "breachNote",
          "type": "string"
        }
      ],
      "stateMutability": "view",
      "type": "function"
    },
    {
      "inputs": [],
      "name": "steward",
      "outputs": [
        {
          "internalType": "address",
          "name": "",
          "type": "address"
        }
      ],
      "stateMutability": "view",
      "type": "function"
    },
    {
      "inputs": [],
      "name": "totalPhases",
      "outputs": [
        {
          "internalType": "uint256",
          "name": "",
          "type": "uint256"
        }
      ],
      "stateMutability": "view",
      "type": "function"
    }
  ],
  "bytecode": "0x6080806040523461002857600080546001600160a01b03191633179055610ace908161002e8239f35b600080fdfe60806040908082526004908136101561001757600080fd5b600090813560e01c9081633c5d18121461069857508063637eea1914610670578063687decb7146105cc5780639577b6b714610538578063b3a12de51461046c578063c517ec941461040a578063d07f56d1146101145763e35326f01461007d57600080fd5b346101115760203660031901126101115781359067ffffffffffffffff8211610111573660238301121561011157506100c46100d6928260246020943693013591016108de565b818451938285809451938492016106e7565b810160018152030190209061010d6100ed83610838565b91610102600260ff6001870154169501610838565b90519384938461072f565b0390f35b80fd5b508234610406576020806003193601126104025767ffffffffffffffff84358181116103fe5761014790369087016106b4565b93909161015e60018060a01b038754163314610925565b81519061016a826107e4565b6101753687866108de565b825284820190878252835191868301838110838211176103eb578552888352848401928352845193888786378885019488816001978881520301902090519182518481116103d8576101d1816101cb85546107aa565b8561095f565b898c601f831160011461037557906002958361036a575b5050600019600383901b1c191690871b1782555b8582019051151560ff8019835416911617905501915180519182116103575781906102318261022b86546107aa565b8661095f565b8790601f83116001146102f8578a926102ed575b5050600019600383901b1c191690831b1790555b60025490680100000000000000008210156102da57810160025561027c9061075d565b6102c857916102c2916102b386837f770fa13a3eea3d18bcc44d6581d74e72d136b7e85ffd56a04f559002e837313e9897966109b3565b51938385948552840191610a77565b0390a180f35b634e487b7160e01b8652858752602486fd5b634e487b7160e01b875260418852602487fd5b015190508a80610245565b848b52888b208694509190601f1984168c5b8b8282106103415750508411610328575b505050811b019055610259565b015160001960f88460031b161c191690558a808061031b565b838501518655899790950194938401930161030a565b634e487b7160e01b895260418a52602489fd5b015190508e806101e8565b889291601f1983168683528d80842093905b8282106103c15750509683600298106103a8575b505050811b0182556101fc565b015160001960f88460031b161c191690558e808061039b565b838a015185558c969094019392830192018e610387565b634e487b7160e01b8c5260418d5260248cfd5b634e487b7160e01b8a5260418b5260248afd5b8480fd5b8280fd5b5080fd5b50829034610111576020366003190112610111578235600254811015610406576104339061075d565b93909361045a5761010d8361044786610838565b905191829160208352602083019061070a565b634e487b7160e01b8252819052602490fd5b50913461040257806003193601126104025767ffffffffffffffff9082358281116103fe5761049e90369085016106b4565b9290602435918211610534576105266104de7fee175ded9acde88a51db308f626b89ea6a6a0753c90105321410187c80e1e42d966102c2943691016106b4565b9190926104f560018060a01b038a54163314610925565b6105168385600289518b8682376020818d81016001815203019020016109b3565b8551968688978852870191610a77565b918483036020860152610a77565b8580fd5b50346101115760203660031901126101115781359067ffffffffffffffff8211610111575060209161056c913691016106b4565b919082845193849283378101600181520301902061010d825161058e816107e4565b61059783610838565b81526105b6600260ff6001860154169460208401951515865201610838565b908185820152519251151593519384938461072f565b5091346104025760203660031901126104025781359167ffffffffffffffff831161066c576106226102c2917fe2d43c6b9d87534baddfc6d7414e1e7c790fb8bf03669af6d9fc5351e09c6bc5943691016106b4565b91909261063960018060a01b038754163314610925565b60018151848682376020818681018481520301902001600160ff1982541617905551928392602084526020840191610a77565b8380fd5b508234610406578160031936011261040657905490516001600160a01b039091168152602090f35b9050346104065781600319360112610406576020906002548152f35b9181601f840112156106e25782359167ffffffffffffffff83116106e257602083818601950101116106e257565b600080fd5b60005b8381106106fa5750506000910152565b81810151838201526020016106ea565b90602091610723815180928185528580860191016106e7565b601f01601f1916010190565b61074561075a949260608352606083019061070a565b9215156020820152604081840391015261070a565b90565b6002548110156107945760026000527f405787fa12a823e0f2b7631cc41b3ba8828b3321ca811111fa75cd3aa3bb5ace0190600090565b634e487b7160e01b600052603260045260246000fd5b90600182811c921680156107da575b60208310146107c457565b634e487b7160e01b600052602260045260246000fd5b91607f16916107b9565b6060810190811067ffffffffffffffff82111761080057604052565b634e487b7160e01b600052604160045260246000fd5b90601f8019910116810190811067ffffffffffffffff82111761080057604052565b906040519182600082549261084c846107aa565b9081845260019485811690816000146108bb5750600114610878575b505061087692500383610816565b565b9093915060005260209081600020936000915b8183106108a357505061087693508201013880610868565b8554888401850152948501948794509183019161088b565b91505061087694506020925060ff191682840152151560051b8201013880610868565b92919267ffffffffffffffff82116108005760405191610908601f8201601f191660200184610816565b8294818452818301116106e2578281602093846000960137010152565b1561092c57565b60405162461bcd60e51b815260206004820152600b60248201526a139bdd081cdd195dd85c9960aa1b6044820152606490fd5b90601f811161096d57505050565b600091825260208220906020601f850160051c830194106109a9575b601f0160051c01915b82811061099e57505050565b818155600101610992565b9092508290610989565b90929167ffffffffffffffff8111610800576109d9816109d384546107aa565b8461095f565b6000601f8211600114610a135781929394600092610a08575b50508160011b916000199060031b1c1916179055565b0135905038806109f2565b601f198216948382526020918281209281905b888210610a5f57505083600195969710610a45575b505050811b019055565b0135600019600384901b60f8161c19169055388080610a3b565b80600184968294958701358155019501920190610a26565b908060209392818452848401376000828201840152601f01601f191601019056fea26469706673582212206d195e145a166a62c6d6b2cdab97239389cf6e44a7f4e3a5c273e92d1dc9192a64736f6c63430008140033",
  "linkReferences": {},
  "deployedLinkReferences": {}
}