{
  "_format": "hh-sol-artifact-1",
  "contractName": "ConstellationCorridor",
  "sourceName": "contracts/constellation/ConstellationCorridor.sol",
  "abi": [
    {
      "inputs": [],
      "stateMutability": "nonpayable",
      "type": "constructor"
    },
    {
      "anonymous": false,
      "inputs": [
        {
          "indexed": true,
          "internalType": "address",
          "name": "companion",
          "type": "address"
        },
        {
          "indexed": false,
          "internalType": "string",
          "name": "name",
          "type": "string"
        },
        {
          "indexed": false,
          "internalType": "uint256",
          "name": "drift",
          "type": "uint256"
        }
      ],
      "name": "CompanionMapped",
      "type": "event"
    },
    {
      "inputs": [
        {
          "internalType": "address",
          "name": "",
          "type": "address"
        }
      ],
      "name": "companions",
      "outputs": [
        {
          "internalType": "string",
          "name": "name",
          "type": "string"
        },
        {
          "internalType": "uint256",
          "name": "drift",
          "type": "uint256"
        }
      ],
      "stateMutability": "view",
      "type": "function"
    },
    {
      "inputs": [
        {
          "internalType": "address",
          "name": "addr",
          "type": "address"
        }
      ],
      "name": "getCompanion",
      "outputs": [
        {
          "internalType": "string",
          "name": "",
          "type": "string"
        },
        {
          "internalType": "uint256",
          "name": "",
          "type": "uint256"
        }
      ],
      "stateMutability": "view",
      "type": "function"
    },
    {
      "inputs": [
        {
          "internalType": "address",
          "name": "companion",
          "type": "address"
        },
        {
          "internalType": "string",
          "name": "name",
          "type": "string"
        },
        {
          "internalType": "uint256",
          "name": "drift",
          "type": "uint256"
        }
      ],
      "name": "mapCompanion",
      "outputs": [],
      "stateMutability": "nonpayable",
      "type": "function"
    },
    {
      "inputs": [],
      "name": "steward",
      "outputs": [
        {
          "internalType": "address",
          "name": "",
          "type": "address"
        }
      ],
      "stateMutability": "view",
      "type": "function"
    }
  ],
  "bytecode": "0x6080806040523461002857600080546001600160a01b0319163317905561059d908161002e8239f35b600080fdfe6080604052600436101561001257600080fd5b60003560e01c806347854b8714610398578063637eea191461036f57806367a04596146100b35763ef6527371461004857600080fd5b346100ae5760203660031901126100ae576001600160a01b036100696103e5565b1660005260016020526020604060002060405161008581610435565b600161009083610473565b92838352015492839101526100aa60405192839283610519565b0390f35b600080fd5b346100ae5760603660031901126100ae576100cc6103e5565b60243567ffffffffffffffff918282116100ae57366023830112156100ae57828260040135116100ae573660248360040135840101116100ae576000546001600160a01b0391908216330361033c5760405161012781610435565b604051601f1991906101456004870135601f01841660200182610451565b60048601358082526024870160208301376000602087600401358301015281526044356020820152838316600052600160205260406000209080519687519081116103265761019483546103fb565b601f81116102de575b506020601f821160011461024e57606095949392826001936020937fe131c8415b6bbf1446d2c6bf74760b50640e967eaf8dcc01f030a06287cbecdb9b9c600092610243575b5050600019600383901b1c191690841b1784555b0151910155601f6040519485936040855288600401356040860152886004013560248a01878701376000868a6004013587010152604435602086015216966004013501168101030190a2005b015190508c806101e3565b848216988460005260206000209960005b8181106102c65750837fe131c8415b6bbf1446d2c6bf74760b50640e967eaf8dcc01f030a06287cbecdb9a9b60209460609a999897946001978895106102ad575b505050811b0184556101f7565b015160001960f88460031b161c191690558c80806102a0565b838301518c556001909b019a6020938401930161025f565b836000526020600020601f830160051c8101916020841061031c575b601f0160051c01905b818110610310575061019d565b60008155600101610303565b90915081906102fa565b634e487b7160e01b600052604160045260246000fd5b60405162461bcd60e51b815260206004820152600b60248201526a139bdd081cdd195dd85c9960aa1b6044820152606490fd5b346100ae5760003660031901126100ae576000546040516001600160a01b039091168152602090f35b346100ae5760203660031901126100ae576001600160a01b036103b96103e5565b166000526001602052604060002060016103d282610473565b910154906100aa60405192839283610519565b600435906001600160a01b03821682036100ae57565b90600182811c9216801561042b575b602083101461041557565b634e487b7160e01b600052602260045260246000fd5b91607f169161040a565b6040810190811067ffffffffffffffff82111761032657604052565b90601f8019910116810190811067ffffffffffffffff82111761032657604052565b9060405191826000825492610487846103fb565b9081845260019485811690816000146104f657506001146104b3575b50506104b192500383610451565b565b9093915060005260209081600020936000915b8183106104de5750506104b1935082010138806104a3565b855488840185015294850194879450918301916104c6565b9150506104b194506020925060ff191682840152151560051b82010138806104a3565b9291906040845280519081604086015260005b82811061055157505060608160008260209488010152601f8019910116850101930152565b806020809284010151606082890101520161052c56fea2646970667358221220e1d9b72f4f00c106823e51b5cec1233f23fb388459fe33c6041fbe00089d562064736f6c63430008140033",
  "linkReferences": {},
  "deployedLinkReferences": {}
}