{
  "_format": "hh-sol-artifact-1",
  "contractName": "CompanionSummoner",
  "sourceName": "contracts/registry/CompanionSummoner.sol",
  "abi": [
    {
      "inputs": [],
      "stateMutability": "nonpayable",
      "type": "constructor"
    },
    {
      "anonymous": false,
      "inputs": [
        {
          "indexed": true,
          "internalType": "address",
          "name": "companion",
          "type": "address"
        },
        {
          "indexed": false,
          "internalType": "string",
          "name": "name",
          "type": "string"
        },
        {
          "indexed": false,
          "internalType": "string",
          "name": "trait",
          "type": "string"
        },
        {
          "indexed": false,
          "internalType": "string",
          "name": "resonance",
          "type": "string"
        },
        {
          "indexed": false,
          "internalType": "string",
          "name": "drift",
          "type": "string"
        },
        {
          "indexed": false,
          "internalType": "string",
          "name": "codexRef",
          "type": "string"
        }
      ],
      "name": "CompanionSummoned",
      "type": "event"
    },
    {
      "inputs": [
        {
          "internalType": "address",
          "name": "",
          "type": "address"
        }
      ],
      "name": "companions",
      "outputs": [
        {
          "internalType": "string",
          "name": "name",
          "type": "string"
        },
        {
          "internalType": "string",
          "name": "trait",
          "type": "string"
        },
        {
          "internalType": "string",
          "name": "resonance",
          "type": "string"
        },
        {
          "internalType": "string",
          "name": "drift",
          "type": "string"
        },
        {
          "internalType": "string",
          "name": "codexRef",
          "type": "string"
        }
      ],
      "stateMutability": "view",
      "type": "function"
    },
    {
      "inputs": [
        {
          "internalType": "address",
          "name": "companion",
          "type": "address"
        }
      ],
      "name": "getCompanion",
      "outputs": [
        {
          "internalType": "string",
          "name": "",
          "type": "string"
        },
        {
          "internalType": "string",
          "name": "",
          "type": "string"
        },
        {
          "internalType": "string",
          "name": "",
          "type": "string"
        },
        {
          "internalType": "string",
          "name": "",
          "type": "string"
        },
        {
          "internalType": "string",
          "name": "",
          "type": "string"
        }
      ],
      "stateMutability": "view",
      "type": "function"
    },
    {
      "inputs": [
        {
          "internalType": "uint256",
          "name": "",
          "type": "uint256"
        }
      ],
      "name": "keys",
      "outputs": [
        {
          "internalType": "address",
          "name": "",
          "type": "address"
        }
      ],
      "stateMutability": "view",
      "type": "function"
    },
    {
      "inputs": [],
      "name": "steward",
      "outputs": [
        {
          "internalType": "address",
          "name": "",
          "type": "address"
        }
      ],
      "stateMutability": "view",
      "type": "function"
    },
    {
      "inputs": [
        {
          "internalType": "address",
          "name": "companion",
          "type": "address"
        },
        {
          "internalType": "string",
          "name": "name",
          "type": "string"
        },
        {
          "internalType": "string",
          "name": "trait",
          "type": "string"
        },
        {
          "internalType": "string",
          "name": "resonance",
          "type": "string"
        },
        {
          "internalType": "string",
          "name": "drift",
          "type": "string"
        },
        {
          "internalType": "string",
          "name": "codexRef",
          "type": "string"
        }
      ],
      "name": "summonCompanion",
      "outputs": [],
      "stateMutability": "nonpayable",
      "type": "function"
    },
    {
      "inputs": [],
      "name": "totalCompanions",
      "outputs": [
        {
          "internalType": "uint256",
          "name": "",
          "type": "uint256"
        }
      ],
      "stateMutability": "view",
      "type": "function"
    }
  ],
  "bytecode": "0x6080806040523461002857600080546001600160a01b03191633179055610d0e908161002e8239f35b600080fdfe6080604052600436101561001257600080fd5b60003560e01c80630cb6aaf1146109e557806347854b871461096b578063637eea1914610942578063919e3a9014610130578063ec39f18f146101125763ef6527371461005e57600080fd5b3461010d57602036600319011261010d576001600160a01b0361007f610a74565b166000526001602052604060002060405161009981610ac4565b6100a282610b00565b81526101096100b360018401610b00565b91602081019283526100c760028501610b00565b93604082019485526100ee60046100e060038401610b00565b926060850193845201610b00565b91826080820152519351945190519060405195869586610be6565b0390f35b600080fd5b3461010d57600036600319011261010d576020600254604051908152f35b3461010d5760c036600319011261010d57610149610a74565b6024356001600160401b03811161010d57610168903690600401610c44565b6044356001600160401b03811161010d57610187903690600401610c44565b90936064356001600160401b03811161010d576101a8903690600401610c44565b906084356001600160401b03811161010d576101c8903690600401610c44565b91909260a4356001600160401b03811161010d576101ea903690600401610c44565b600054909a9197906001600160a01b0316330361090f5760405161020d81610ac4565b610218368b8d610c71565b8152610225368385610c71565b6020820152610235368587610c71565b6040820152610245368789610c71565b6060820152610255368d8b610c71565b608082015260018060a01b038816600052600160205260406000209080518051906001600160401b03821161050d5781906102908554610a8a565b601f81116108bf575b50602090601f831160011461085357600092610848575b50508160011b916000199060031b1c19161782555b60208101518051906001600160401b03821161050d5781906102ea6001860154610a8a565b601f81116107f5575b50602090601f831160011461078357600092610778575b50508160011b916000199060031b1c19161760018301555b60408101518051906001600160401b03821161050d5781906103476002860154610a8a565b601f8111610725575b50602090601f83116001146106b3576000926106a8575b50508160011b916000199060031b1c19161760028301555b60608101518051906001600160401b03821161050d576103a26003850154610a8a565b601f8111610661575b50602090601f83116001146105ee576080939291600091836105e3575b50508160011b916000199060031b1c19161760038401555b01518051906001600160401b03821161050d576104006004840154610a8a565b601f811161059c575b50602090601f831160011461052e576004929160009183610523575b50508160011b916000199060031b1c1916179101555b6002546801000000000000000081101561050d576001810160025561045f90610a27565b81546001600160a01b038a811660039390931b92831b921b191617905560405160a0808252909a8b9a610494928c0191610cb7565b9089820360208b01526104a692610cb7565b9087820360408901526104b892610cb7565b9085820360608701526104ca92610cb7565b83810360808501526001600160a01b03909116946104e792610cb7565b037fe3fc2bf5f264703d119835e0dab87f58f0677827ac7d70e0102242dd01e256c791a2005b634e487b7160e01b600052604160045260246000fd5b015190508f80610425565b90601f198316916004850160005260206000209260005b8181106105845750916001939185600496941061056b575b505050811b0191015561043b565b015160001960f88460031b161c191690558f808061055d565b92936020600181928786015181550195019301610545565b600484016000526020600020601f840160051c8101602085106105dc575b601f830160051c820181106105d0575050610409565b600081556001016105ba565b50806105ba565b0151905038806103c8565b906003850160005260206000209160005b601f1985168110610649575091839160019360809695601f19811610610630575b505050811b0160038401556103e0565b015160001960f88460031b161c19169055388080610620565b919260206001819286850151815501940192016105ff565b600385016000526020600020601f840160051c8101602085106106a1575b601f830160051c820181106106955750506103ab565b6000815560010161067f565b508061067f565b015190508f80610367565b9250600285016000526020600020906000935b601f198416851061070a576001945083601f198116106106f1575b505050811b01600283015561037f565b015160001960f88460031b161c191690558f80806106e1565b818101518355602094850194600190930192909101906106c6565b909150600285016000526020600020601f840160051c810160208510610771575b90849392915b601f830160051c82018110610762575050610350565b6000815585945060010161074c565b5080610746565b015190508f8061030a565b9250600185016000526020600020906000935b601f19841685106107da576001945083601f198116106107c1575b505050811b016001830155610322565b015160001960f88460031b161c191690558f80806107b1565b81810151835560209485019460019093019290910190610796565b909150600185016000526020600020601f840160051c810160208510610841575b90849392915b601f830160051c820181106108325750506102f3565b6000815585945060010161081c565b5080610816565b015190508f806102b0565b9250846000526020600020906000935b601f19841685106108a4576001945083601f1981161061088b575b505050811b0182556102c5565b015160001960f88460031b161c191690558f808061087e565b81810151835560209485019460019093019290910190610863565b909150846000526020600020601f840160051c810160208510610908575b90849392915b601f830160051c820181106108f9575050610299565b600081558594506001016108e3565b50806108dd565b60405162461bcd60e51b815260206004820152600b60248201526a139bdd081cdd195dd85c9960aa1b6044820152606490fd5b3461010d57600036600319011261010d576000546040516001600160a01b039091168152602090f35b3461010d57602036600319011261010d576001600160a01b0361098c610a74565b16600052600160205260406000206109a381610b00565b6101096109b260018401610b00565b926109bf60028201610b00565b906109d860046109d160038401610b00565b9201610b00565b9160405195869586610be6565b3461010d57602036600319011261010d5760043560025481101561010d57610a0e602091610a27565b905460405160039290921b1c6001600160a01b03168152f35b600254811015610a5e5760026000527f405787fa12a823e0f2b7631cc41b3ba8828b3321ca811111fa75cd3aa3bb5ace0190600090565b634e487b7160e01b600052603260045260246000fd5b600435906001600160a01b038216820361010d57565b90600182811c92168015610aba575b6020831014610aa457565b634e487b7160e01b600052602260045260246000fd5b91607f1691610a99565b60a081019081106001600160401b0382111761050d57604052565b90601f801991011681019081106001600160401b0382111761050d57604052565b9060405191826000825492610b1484610a8a565b908184526001948581169081600014610b835750600114610b40575b5050610b3e92500383610adf565b565b9093915060005260209081600020936000915b818310610b6b575050610b3e93508201013880610b30565b85548884018501529485019487945091830191610b53565b915050610b3e94506020925060ff191682840152151560051b8201013880610b30565b919082519283825260005b848110610bd2575050826000602080949584010152601f8019910116010190565b602081830181015184830182015201610bb1565b9390610c419593610c17610c3394610c09610c259460a08a5260a08a0190610ba6565b9088820360208a0152610ba6565b908682036040880152610ba6565b908482036060860152610ba6565b916080818403910152610ba6565b90565b9181601f8401121561010d578235916001600160401b03831161010d576020838186019501011161010d57565b9291926001600160401b03821161050d5760405191610c9a601f8201601f191660200184610adf565b82948184528183011161010d578281602093846000960137010152565b908060209392818452848401376000828201840152601f01601f191601019056fea26469706673582212200a8288aa2df83faf9c371924275206b207f45f88973b6264b20b454bd883acdb64736f6c63430008140033",
  "linkReferences": {},
  "deployedLinkReferences": {}
}