{
  "_format": "hh-sol-artifact-1",
  "contractName": "MockPropulsion",
  "sourceName": "contracts/mocks/MockPropulsion.sol",
  "abi": [
    {
      "inputs": [],
      "name": "called",
      "outputs": [
        {
          "internalType": "bool",
          "name": "",
          "type": "bool"
        }
      ],
      "stateMutability": "view",
      "type": "function"
    },
    {
      "inputs": [],
      "name": "recalibrate",
      "outputs": [],
      "stateMutability": "nonpayable",
      "type": "function"
    }
  ],
  "bytecode": "0x6080806040523460145760aa908161001a8239f35b600080fdfe6080806040526004361015601257600080fd5b600090813560e01c90816350f9b6cd146053575063fa31ecd014603457600080fd5b3460505780600319360112605057805460ff1916600117815580f35b80fd5b9050346070578160031936011260705760ff602092541615158152f35b5080fdfea2646970667358221220adb8e312319687599fb1ac8c0027805cf675cf85d7fe67cac297cc829b17349164736f6c63430008140033",
  "linkReferences": {},
  "deployedLinkReferences": {}
}