{
  "_format": "hh-sol-artifact-1",
  "contractName": "CompanionSummonerXVII",
  "sourceName": "contracts/registry/CompanionSummonerXVII.sol",
  "abi": [
    {
      "inputs": [],
      "stateMutability": "nonpayable",
      "type": "constructor"
    },
    {
      "anonymous": false,
      "inputs": [
        {
          "indexed": true,
          "internalType": "address",
          "name": "companion",
          "type": "address"
        },
        {
          "indexed": false,
          "internalType": "string",
          "name": "name",
          "type": "string"
        },
        {
          "indexed": false,
          "internalType": "string",
          "name": "trait",
          "type": "string"
        },
        {
          "indexed": false,
          "internalType": "string",
          "name": "drift",
          "type": "string"
        },
        {
          "indexed": false,
          "internalType": "string",
          "name": "resonance",
          "type": "string"
        },
        {
          "indexed": false,
          "internalType": "string",
          "name": "codexRef",
          "type": "string"
        },
        {
          "indexed": false,
          "internalType": "string",
          "name": "signature",
          "type": "string"
        },
        {
          "indexed": false,
          "internalType": "string",
          "name": "sanctum",
          "type": "string"
        },
        {
          "indexed": false,
          "internalType": "string",
          "name": "chant",
          "type": "string"
        },
        {
          "indexed": false,
          "internalType": "string",
          "name": "choreography",
          "type": "string"
        },
        {
          "indexed": false,
          "internalType": "string",
          "name": "signal",
          "type": "string"
        },
        {
          "indexed": false,
          "internalType": "string",
          "name": "stewardName",
          "type": "string"
        },
        {
          "indexed": false,
          "internalType": "string",
          "name": "registry",
          "type": "string"
        },
        {
          "indexed": false,
          "internalType": "string",
          "name": "hum",
          "type": "string"
        },
        {
          "indexed": false,
          "internalType": "string",
          "name": "driftType",
          "type": "string"
        }
      ],
      "name": "CompanionSummoned",
      "type": "event"
    },
    {
      "inputs": [
        {
          "internalType": "address",
          "name": "",
          "type": "address"
        }
      ],
      "name": "companions",
      "outputs": [
        {
          "internalType": "string",
          "name": "name",
          "type": "string"
        },
        {
          "internalType": "string",
          "name": "trait",
          "type": "string"
        },
        {
          "internalType": "string",
          "name": "drift",
          "type": "string"
        },
        {
          "internalType": "string",
          "name": "resonance",
          "type": "string"
        },
        {
          "internalType": "string",
          "name": "codexRef",
          "type": "string"
        },
        {
          "internalType": "string",
          "name": "signature",
          "type": "string"
        },
        {
          "internalType": "string",
          "name": "sanctum",
          "type": "string"
        },
        {
          "internalType": "string",
          "name": "chant",
          "type": "string"
        },
        {
          "internalType": "string",
          "name": "choreography",
          "type": "string"
        },
        {
          "internalType": "string",
          "name": "signal",
          "type": "string"
        },
        {
          "internalType": "string",
          "name": "stewardName",
          "type": "string"
        },
        {
          "internalType": "string",
          "name": "registry",
          "type": "string"
        },
        {
          "internalType": "string",
          "name": "hum",
          "type": "string"
        },
        {
          "internalType": "string",
          "name": "driftType",
          "type": "string"
        }
      ],
      "stateMutability": "view",
      "type": "function"
    },
    {
      "inputs": [
        {
          "internalType": "address",
          "name": "companion",
          "type": "address"
        }
      ],
      "name": "getCompanion",
      "outputs": [
        {
          "components": [
            {
              "internalType": "string",
              "name": "name",
              "type": "string"
            },
            {
              "internalType": "string",
              "name": "trait",
              "type": "string"
            },
            {
              "internalType": "string",
              "name": "drift",
              "type": "string"
            },
            {
              "internalType": "string",
              "name": "resonance",
              "type": "string"
            },
            {
              "internalType": "string",
              "name": "codexRef",
              "type": "string"
            },
            {
              "internalType": "string",
              "name": "signature",
              "type": "string"
            },
            {
              "internalType": "string",
              "name": "sanctum",
              "type": "string"
            },
            {
              "internalType": "string",
              "name": "chant",
              "type": "string"
            },
            {
              "internalType": "string",
              "name": "choreography",
              "type": "string"
            },
            {
              "internalType": "string",
              "name": "signal",
              "type": "string"
            },
            {
              "internalType": "string",
              "name": "stewardName",
              "type": "string"
            },
            {
              "internalType": "string",
              "name": "registry",
              "type": "string"
            },
            {
              "internalType": "string",
              "name": "hum",
              "type": "string"
            },
            {
              "internalType": "string",
              "name": "driftType",
              "type": "string"
            }
          ],
          "internalType": "struct CompanionSummonerXVII.Companion",
          "name": "",
          "type": "tuple"
        }
      ],
      "stateMutability": "view",
      "type": "function"
    },
    {
      "inputs": [
        {
          "internalType": "uint256",
          "name": "",
          "type": "uint256"
        }
      ],
      "name": "keys",
      "outputs": [
        {
          "internalType": "address",
          "name": "",
          "type": "address"
        }
      ],
      "stateMutability": "view",
      "type": "function"
    },
    {
      "inputs": [],
      "name": "steward",
      "outputs": [
        {
          "internalType": "address",
          "name": "",
          "type": "address"
        }
      ],
      "stateMutability": "view",
      "type": "function"
    },
    {
      "inputs": [
        {
          "internalType": "address",
          "name": "companion",
          "type": "address"
        },
        {
          "internalType": "string",
          "name": "name",
          "type": "string"
        },
        {
          "internalType": "string",
          "name": "trait",
          "type": "string"
        },
        {
          "internalType": "string",
          "name": "drift",
          "type": "string"
        },
        {
          "internalType": "string",
          "name": "resonance",
          "type": "string"
        },
        {
          "internalType": "string",
          "name": "codexRef",
          "type": "string"
        },
        {
          "internalType": "string",
          "name": "signature",
          "type": "string"
        },
        {
          "internalType": "string",
          "name": "sanctum",
          "type": "string"
        },
        {
          "internalType": "string",
          "name": "chant",
          "type": "string"
        },
        {
          "internalType": "string",
          "name": "choreography",
          "type": "string"
        },
        {
          "internalType": "string",
          "name": "signal",
          "type": "string"
        },
        {
          "internalType": "string",
          "name": "stewardName",
          "type": "string"
        },
        {
          "internalType": "string",
          "name": "registry",
          "type": "string"
        },
        {
          "internalType": "string",
          "name": "hum",
          "type": "string"
        },
        {
          "internalType": "string",
          "name": "driftType",
          "type": "string"
        }
      ],
      "name": "summonCompanion",
      "outputs": [],
      "stateMutability": "nonpayable",
      "type": "function"
    },
    {
      "inputs": [],
      "name": "totalCompanions",
      "outputs": [
        {
          "internalType": "uint256",
          "name": "",
          "type": "uint256"
        }
      ],
      "stateMutability": "view",
      "type": "function"
    }
  ],
  "bytecode": "0x6080806040523461002857600080546001600160a01b03191633179055611efc908161002e8239f35b600080fdfe610460604052600436101561001357600080fd5b60003560e01c80630cb6aaf114611c3057806347854b8714611a58578063637eea1914611a2f5780638b62cf3214610386578063ec39f18f146103685763ef6527371461005f57600080fd5b3461036357602036600319011261036357610078611cbf565b60606101a060405161008981611d0f565b82815282602082015282604082015282808201528260808201528260a08201528260c08201528260e08201528261010082015282610120820152826101408201528261016082015282610180820152015260018060a01b0316600052600160205261027960406000206101e6600d6040519261010484611d0f565b61010d81611d4c565b845261011b60018201611d4c565b602085015261012c60028201611d4c565b604085015261013d60038201611d4c565b606085015261014e60048201611d4c565b608085015261015f60058201611d4c565b60a085015261017060068201611d4c565b60c085015261018160078201611d4c565b60e085015261019260088201611d4c565b6101008501526101a460098201611d4c565b6101208501526101b6600a8201611d4c565b6101408501526101c8600b8201611d4c565b6101608501526101da600c8201611d4c565b61018085015201611d4c565b6101a082015261035f816101a061034a61033461031c6103046102ec6102d46102bd6102a76102916040519d8e9d8e60208152606061026461024f61023985516101c060208701526101e0860190611df2565b6020860151858203601f19016040870152611df2565b6040850151848203601f190184860152611df2565b920151906080601f1982850301910152611df2565b8d60808d01519060a0601f1982850301910152611df2565b60a08b01518d8203601f190160c08f0152611df2565b60c08a01518c8203601f190160e08e0152611df2565b60e08901518b8203601f19016101008d0152611df2565b6101008801518a8203601f19016101208c0152611df2565b610120870151898203601f19016101408b0152611df2565b610140860151888203601f19016101608a0152611df2565b610160850151878203601f1901610180890152611df2565b610180840151868203601f190184880152611df2565b910151838203601f19016101c0850152611df2565b0390f35b600080fd5b34610363576000366003190112610363576020600254604051908152f35b34610363576101e0366003190112610363576103a0611cbf565b6101e0526024356001600160401b038111610363576103c3903690600401611e32565b6103c05260c0526044356001600160401b038111610363576103e9903690600401611e32565b6101a052610240526064356001600160401b03811161036357610410903690600401611e32565b61014052610320526084356001600160401b03811161036357610437903690600401611e32565b6103a052610400526001600160401b0360a435116103635761045e3660a435600401611e32565b610420526102a0526001600160401b0360c43511610363576104853660c435600401611e32565b61016052610440526001600160401b0360e43511610363576104ac3660e435600401611e32565b6103e052610340526001600160401b036101043511610363576104d53661010435600401611e32565b610100526101c0526001600160401b036101243511610363576104fe3661012435600401611e32565b61036052610380526001600160401b036101443511610363576105273661014435600401611e32565b61022052610280526001600160401b036101643511610363576105503661016435600401611e32565b61026052610200526001600160401b036101843511610363576105793661018435600401611e32565b608052610180526001600160401b036101a43511610363576105a1366101a435600401611e32565b6103005260e0526001600160401b036101c43511610363576105c9366101c435600401611e32565b6102c0526102e0526000546001600160a01b031633036119fc576105f26040518060a052611d0f565b610602366103c05160c051611e5f565b60a05152610617366101a05161024051611e5f565b602060a051015261062f366101405161032051611e5f565b604060a0510152610647366103a05161040051611e5f565b606060a051015261065f36610420516102a051611e5f565b608060a0510152610677366101605161044051611e5f565b60a08051015261068e366103e05161034051611e5f565b60c060a05101526106a636610100516101c051611e5f565b60e060a05101526106be366103605161038051611e5f565b61010060a05101526106d7366102205161028051611e5f565b61012060a05101526106f0366102605161020051611e5f565b61014060a05101526107083660805161018051611e5f565b61016060a0510152610720366103005160e051611e5f565b61018060a0510152610739366102c0516102e051611e5f565b6101a060a051015260018060a01b036101e051166000526001602052604060002060a051518051906001600160401b038211610e9f57819061077b8454611cd5565b601f81116119ac575b50602090601f831160011461194057600092611935575b50508160011b916000199060031b1c19161781555b602060a05101518051906001600160401b038211610e9f5781906107d76001850154611cd5565b601f81116118e2575b50602090601f831160011461187057600092611865575b50508160011b916000199060031b1c19161760018201555b604060a05101518051906001600160401b038211610e9f5781906108366002850154611cd5565b601f8111611812575b50602090601f83116001146117a057600092611795575b50508160011b916000199060031b1c19161760028201555b606060a05101518051906001600160401b038211610e9f5781906108956003850154611cd5565b601f8111611742575b50602090601f83116001146116d0576000926116c5575b50508160011b916000199060031b1c19161760038201555b608060a05101518051906001600160401b038211610e9f5781906108f46004850154611cd5565b601f8111611672575b50602090601f8311600114611600576000926115f5575b50508160011b916000199060031b1c19161760048201555b60a0805101518051906001600160401b038211610e9f5781906109526005850154611cd5565b601f81116115a2575b50602090601f831160011461153057600092611525575b50508160011b916000199060031b1c19161760058201555b60c060a05101518051906001600160401b038211610e9f5781906109b16006850154611cd5565b601f81116114d2575b50602090601f831160011461146057600092611455575b50508160011b916000199060031b1c19161760068201555b60e060a05101518051906001600160401b038211610e9f578190610a106007850154611cd5565b601f8111611402575b50602090601f831160011461139057600092611385575b50508160011b916000199060031b1c19161760078201555b61010060a05101518051906001600160401b038211610e9f578190610a706008850154611cd5565b601f8111611332575b50602090601f83116001146112c0576000926112b5575b50508160011b916000199060031b1c19161760088201555b61012060a05101518051906001600160401b038211610e9f578190610ad06009850154611cd5565b601f8111611262575b50602090601f83116001146111f0576000926111e5575b50508160011b916000199060031b1c19161760098201555b61014060a05101518051906001600160401b038211610e9f578190610b30600a850154611cd5565b601f8111611192575b50602090601f831160011461112057600092611115575b50508160011b916000199060031b1c191617600a8201555b61016060a05101518051906001600160401b038211610e9f578190610b90600b850154611cd5565b601f81116110c2575b50602090601f831160011461105057600092611045575b50508160011b916000199060031b1c191617600b8201555b61018060a05101518051906001600160401b038211610e9f578190610bf0600c850154611cd5565b601f8111610ff2575b50602090601f8311600114610f8057600092610f75575b50508160011b916000199060031b1c191617600c8201555b6101a060a05101518051906001600160401b038211610e9f57610c4e600d840154611cd5565b601f8111610f2e575b50602090601f8311600114610ec057600d929160009183610eb5575b50508160011b916000199060031b1c1916179101555b60025468010000000000000000811015610e9f57806001610cad9201600255611c72565b81549060031b9060018060a01b036101e05116821b9160018060a01b03901b19161790556101c0604051806101205252610e47610e2e610e15610dfb610de1610dc7610dae610d95610d7c610d63610d4a610d31610d186101c061012051016103c05160c051611ea5565b6101205160208183039101526101a05161024051611ea5565b6101205160408183039101526101405161032051611ea5565b6101205160608183039101526103a05161040051611ea5565b610120516080818303910152610420516102a051611ea5565b6101205160a08183039101526101605161044051611ea5565b6101205160c08183039101526103e05161034051611ea5565b6101205160e0818303910152610100516101c051611ea5565b610120516101008183039101526103605161038051611ea5565b610120516101208183039101526102205161028051611ea5565b610120516101408183039101526102605161020051611ea5565b6101205161016081830391015260805161018051611ea5565b610120516101808183039101526103005160e051611ea5565b610120516101a08183039101527f86fae5154041288f6557deea6d9c52338b4ab2ac59d14a9568f540c68505547860018060a01b036101e0511691610e9761012051916102c0516102e051611ea5565b0361012051a2005b634e487b7160e01b600052604160045260246000fd5b015190508480610c73565b90600d84016000526020600020916000601f198516905b818110610f165750916001939185600d969410610efd575b505050811b01910155610c89565b015160001960f88460031b161c19169055848080610eef565b92936020600181928786015181550195019301610ed7565b600d84016000526020600020601f840160051c810160208510610f6e575b601f830160051c82018110610f62575050610c57565b60008155600101610f4c565b5080610f4c565b015190508380610c10565b9250600c84016000526020600020906000935b601f1984168510610fd7576001945083601f19811610610fbe575b505050811b01600c820155610c28565b015160001960f88460031b161c19169055838080610fae565b81810151835560209485019460019093019290910190610f93565b909150600c84016000526020600020601f840160051c81016020851061103e575b90849392915b601f830160051c8201811061102f575050610bf9565b60008155859450600101611019565b5080611013565b015190508380610bb0565b9250600b84016000526020600020906000935b601f19841685106110a7576001945083601f1981161061108e575b505050811b01600b820155610bc8565b015160001960f88460031b161c1916905583808061107e565b81810151835560209485019460019093019290910190611063565b909150600b84016000526020600020601f840160051c81016020851061110e575b90849392915b601f830160051c820181106110ff575050610b99565b600081558594506001016110e9565b50806110e3565b015190508380610b50565b9250600a84016000526020600020906000935b601f1984168510611177576001945083601f1981161061115e575b505050811b01600a820155610b68565b015160001960f88460031b161c1916905583808061114e565b81810151835560209485019460019093019290910190611133565b909150600a84016000526020600020601f840160051c8101602085106111de575b90849392915b601f830160051c820181106111cf575050610b39565b600081558594506001016111b9565b50806111b3565b015190508380610af0565b9250600984016000526020600020906000935b601f1984168510611247576001945083601f1981161061122e575b505050811b016009820155610b08565b015160001960f88460031b161c1916905583808061121e565b81810151835560209485019460019093019290910190611203565b909150600984016000526020600020601f840160051c8101602085106112ae575b90849392915b601f830160051c8201811061129f575050610ad9565b60008155859450600101611289565b5080611283565b015190508380610a90565b9250600884016000526020600020906000935b601f1984168510611317576001945083601f198116106112fe575b505050811b016008820155610aa8565b015160001960f88460031b161c191690558380806112ee565b818101518355602094850194600190930192909101906112d3565b909150600884016000526020600020601f840160051c81016020851061137e575b90849392915b601f830160051c8201811061136f575050610a79565b60008155859450600101611359565b5080611353565b015190508380610a30565b9250600784016000526020600020906000935b601f19841685106113e7576001945083601f198116106113ce575b505050811b016007820155610a48565b015160001960f88460031b161c191690558380806113be565b818101518355602094850194600190930192909101906113a3565b909150600784016000526020600020601f840160051c81016020851061144e575b90849392915b601f830160051c8201811061143f575050610a19565b60008155859450600101611429565b5080611423565b0151905083806109d1565b9250600684016000526020600020906000935b601f19841685106114b7576001945083601f1981161061149e575b505050811b0160068201556109e9565b015160001960f88460031b161c1916905583808061148e565b81810151835560209485019460019093019290910190611473565b909150600684016000526020600020601f840160051c81016020851061151e575b90849392915b601f830160051c8201811061150f5750506109ba565b600081558594506001016114f9565b50806114f3565b015190508380610972565b9250600584016000526020600020906000935b601f1984168510611587576001945083601f1981161061156e575b505050811b01600582015561098a565b015160001960f88460031b161c1916905583808061155e565b81810151835560209485019460019093019290910190611543565b909150600584016000526020600020601f840160051c8101602085106115ee575b90849392915b601f830160051c820181106115df57505061095b565b600081558594506001016115c9565b50806115c3565b015190508380610914565b9250600484016000526020600020906000935b601f1984168510611657576001945083601f1981161061163e575b505050811b01600482015561092c565b015160001960f88460031b161c1916905583808061162e565b81810151835560209485019460019093019290910190611613565b909150600484016000526020600020601f840160051c8101602085106116be575b90849392915b601f830160051c820181106116af5750506108fd565b60008155859450600101611699565b5080611693565b0151905083806108b5565b9250600384016000526020600020906000935b601f1984168510611727576001945083601f1981161061170e575b505050811b0160038201556108cd565b015160001960f88460031b161c191690558380806116fe565b818101518355602094850194600190930192909101906116e3565b909150600384016000526020600020601f840160051c81016020851061178e575b90849392915b601f830160051c8201811061177f57505061089e565b60008155859450600101611769565b5080611763565b015190508380610856565b9250600284016000526020600020906000935b601f19841685106117f7576001945083601f198116106117de575b505050811b01600282015561086e565b015160001960f88460031b161c191690558380806117ce565b818101518355602094850194600190930192909101906117b3565b909150600284016000526020600020601f840160051c81016020851061185e575b90849392915b601f830160051c8201811061184f57505061083f565b60008155859450600101611839565b5080611833565b0151905083806107f7565b9250600184016000526020600020906000935b601f19841685106118c7576001945083601f198116106118ae575b505050811b01600182015561080f565b015160001960f88460031b161c1916905583808061189e565b81810151835560209485019460019093019290910190611883565b909150600184016000526020600020601f840160051c81016020851061192e575b90849392915b601f830160051c8201811061191f5750506107e0565b60008155859450600101611909565b5080611903565b01519050838061079b565b9250836000526020600020906000935b601f1984168510611991576001945083601f19811610611978575b505050811b0181556107b0565b015160001960f88460031b161c1916905583808061196b565b81810151835560209485019460019093019290910190611950565b909150836000526020600020601f840160051c8101602085106119f5575b90849392915b601f830160051c820181106119e6575050610784565b600081558594506001016119d0565b50806119ca565b60405162461bcd60e51b815260206004820152600b60248201526a139bdd081cdd195dd85c9960aa1b6044820152606490fd5b34610363576000366003190112610363576000546040516001600160a01b039091168152602090f35b34610363576020366003190112610363576001600160a01b03611a79611cbf565b1660005260016020526040600020611a9081611d4c565b611a9c60018301611d4c565b91611aa960028201611d4c565b90611ab660038201611d4c565b611ac260048301611d4c565b611ace60058401611d4c565b611ada60068501611d4c565b611ae660078601611d4c565b611af260088701611d4c565b91611aff60098801611d4c565b93611b0c600a8901611d4c565b95611b19600b8a01611d4c565b97611b26600c8b01611d4c565b99600d01611b3390611d4c565b9a6040519d8e809e6101c08083528201611b4c91611df2565b908082039060200152611b5e91611df2565b8d810360408f0152611b6f91611df2565b8c810360608e0152611b8091611df2565b8b810360808d0152611b9191611df2565b8a810360a08c0152611ba291611df2565b89810360c08b0152611bb391611df2565b88810360e08a0152611bc491611df2565b878103610100890152611bd691611df2565b868103610120880152611be891611df2565b858103610140870152611bfa91611df2565b848103610160860152611c0c91611df2565b838103610180850152611c1e91611df2565b8281036101a084015261035f91611df2565b346103635760203660031901126103635760043560025481101561036357611c59602091611c72565b905460405160039290921b1c6001600160a01b03168152f35b600254811015611ca95760026000527f405787fa12a823e0f2b7631cc41b3ba8828b3321ca811111fa75cd3aa3bb5ace0190600090565b634e487b7160e01b600052603260045260246000fd5b600435906001600160a01b038216820361036357565b90600182811c92168015611d05575b6020831014611cef57565b634e487b7160e01b600052602260045260246000fd5b91607f1691611ce4565b6101c081019081106001600160401b03821117610e9f57604052565b90601f801991011681019081106001600160401b03821117610e9f57604052565b9060405191826000825492611d6084611cd5565b908184526001948581169081600014611dcf5750600114611d8c575b5050611d8a92500383611d2b565b565b9093915060005260209081600020936000915b818310611db7575050611d8a93508201013880611d7c565b85548884018501529485019487945091830191611d9f565b915050611d8a94506020925060ff191682840152151560051b8201013880611d7c565b919082519283825260005b848110611e1e575050826000602080949584010152601f8019910116010190565b602081830181015184830182015201611dfd565b9181601f84011215610363578235916001600160401b038311610363576020838186019501011161036357565b9291926001600160401b038211610e9f5760405191611e88601f8201601f191660200184611d2b565b829481845281830111610363578281602093846000960137010152565b908060209392818452848401376000828201840152601f01601f191601019056fea2646970667358221220679e056d07b244a7757ed6706f82691129692bf7ca373e22fd859893efe5749d64736f6c63430008140033",
  "linkReferences": {},
  "deployedLinkReferences": {}
}