{
  "_format": "hh-sol-artifact-1",
  "contractName": "TerrainCompanionDrift",
  "sourceName": "contracts/manifest/TerrainCompanionDrift.sol",
  "abi": [
    {
      "inputs": [],
      "stateMutability": "nonpayable",
      "type": "constructor"
    },
    {
      "anonymous": false,
      "inputs": [
        {
          "indexed": false,
          "internalType": "string",
          "name": "glyph",
          "type": "string"
        },
        {
          "indexed": false,
          "internalType": "string",
          "name": "companionType",
          "type": "string"
        },
        {
          "indexed": false,
          "internalType": "string",
          "name": "driftType",
          "type": "string"
        },
        {
          "indexed": false,
          "internalType": "string",
          "name": "sanctum",
          "type": "string"
        },
        {
          "indexed": false,
          "internalType": "string",
          "name": "choreography",
          "type": "string"
        },
        {
          "indexed": false,
          "internalType": "string",
          "name": "chant",
          "type": "string"
        }
      ],
      "name": "CompanionDriftRouted",
      "type": "event"
    },
    {
      "inputs": [
        {
          "internalType": "string",
          "name": "glyph",
          "type": "string"
        }
      ],
      "name": "getRoute",
      "outputs": [
        {
          "components": [
            {
              "internalType": "string",
              "name": "glyph",
              "type": "string"
            },
            {
              "internalType": "string",
              "name": "companionType",
              "type": "string"
            },
            {
              "internalType": "string",
              "name": "driftType",
              "type": "string"
            },
            {
              "internalType": "string",
              "name": "sanctum",
              "type": "string"
            },
            {
              "internalType": "string",
              "name": "choreography",
              "type": "string"
            },
            {
              "internalType": "string",
              "name": "chant",
              "type": "string"
            }
          ],
          "internalType": "struct TerrainCompanionDrift.Route",
          "name": "",
          "type": "tuple"
        }
      ],
      "stateMutability": "view",
      "type": "function"
    },
    {
      "inputs": [
        {
          "internalType": "uint256",
          "name": "",
          "type": "uint256"
        }
      ],
      "name": "keys",
      "outputs": [
        {
          "internalType": "string",
          "name": "",
          "type": "string"
        }
      ],
      "stateMutability": "view",
      "type": "function"
    },
    {
      "inputs": [
        {
          "internalType": "string",
          "name": "glyph",
          "type": "string"
        },
        {
          "internalType": "string",
          "name": "companionType",
          "type": "string"
        },
        {
          "internalType": "string",
          "name": "driftType",
          "type": "string"
        },
        {
          "internalType": "string",
          "name": "sanctum",
          "type": "string"
        },
        {
          "internalType": "string",
          "name": "choreography",
          "type": "string"
        },
        {
          "internalType": "string",
          "name": "chant",
          "type": "string"
        }
      ],
      "name": "routeCompanionDrift",
      "outputs": [],
      "stateMutability": "nonpayable",
      "type": "function"
    },
    {
      "inputs": [
        {
          "internalType": "string",
          "name": "",
          "type": "string"
        }
      ],
      "name": "routes",
      "outputs": [
        {
          "internalType": "string",
          "name": "glyph",
          "type": "string"
        },
        {
          "internalType": "string",
          "name": "companionType",
          "type": "string"
        },
        {
          "internalType": "string",
          "name": "driftType",
          "type": "string"
        },
        {
          "internalType": "string",
          "name": "sanctum",
          "type": "string"
        },
        {
          "internalType": "string",
          "name": "choreography",
          "type": "string"
        },
        {
          "internalType": "string",
          "name": "chant",
          "type": "string"
        }
      ],
      "stateMutability": "view",
      "type": "function"
    },
    {
      "inputs": [],
      "name": "steward",
      "outputs": [
        {
          "internalType": "address",
          "name": "",
          "type": "address"
        }
      ],
      "stateMutability": "view",
      "type": "function"
    },
    {
      "inputs": [],
      "name": "totalRoutes",
      "outputs": [
        {
          "internalType": "uint256",
          "name": "",
          "type": "uint256"
        }
      ],
      "stateMutability": "view",
      "type": "function"
    }
  ],
  "bytecode": "0x6080806040523461002857600080546001600160a01b03191633179055610ec5908161002e8239f35b600080fdfe60a080604052600436101561001357600080fd5b60003560e01c90816305a2d3ac14610bdb575080630cb6aaf114610b905780631b5f03a614610a16578063637eea19146109ed5780636ccfb1e7146101825763cffbffb51461006157600080fd5b3461017d57602036600319011261017d576004356001600160401b03811161017d573660238201121561017d576100bd60206100aa610133933690602481600401359101610dd4565b8160405193828580945193849201610d5f565b810160018152030190206101796100d382610cb9565b9161016b6100e360018301610cb9565b9161015d6100f360028301610cb9565b61014f61010260038501610cb9565b9161014161011e600561011760048901610cb9565b9701610cb9565b976040519b8c9b60c08d5260c08d0190610d82565b908b820360208d0152610d82565b9089820360408b0152610d82565b908782036060890152610d82565b908582036080870152610d82565b9083820360a0850152610d82565b0390f35b600080fd5b3461017d5760c036600319011261017d576004356001600160401b03811161017d576101b2903690600401610da7565b906080526024356001600160401b03811161017d576101d5903690600401610da7565b91906044356001600160401b03811161017d576101f6903690600401610da7565b906064356001600160401b03811161017d57610216903690600401610da7565b906084356001600160401b03811161017d57610236903690600401610da7565b92909360a4356001600160401b03811161017d57610258903690600401610da7565b60005491989097916001600160a01b031633036109ba5760405161027b81610c7d565b610288368c608051610dd4565b8152610295368d84610dd4565b60208201526102a5368486610dd4565b60408201526102b5368688610dd4565b60608201526102c536888a610dd4565b60808201526102d5368a8c610dd4565b60a08201526040518b60805182376020818d810160018152030190209080518051906001600160401b0382116106b057819061031b826103158754610c43565b87610e1a565b602090601f831160011461094e57600092610943575b50508160011b916000199060031b1c19161782555b60208101518051906001600160401b0382116106b05781906103788261036f6001880154610c43565b60018801610e1a565b602090601f83116001146108d1576000926108c6575b50508160011b916000199060031b1c19161760018301555b60408101518051906001600160401b0382116106b05781906103d8826103cf6002880154610c43565b60028801610e1a565b602090601f831160011461085457600092610849575b50508160011b916000199060031b1c19161760028301555b60608101518051906001600160401b0382116106b05781906104388261042f6003880154610c43565b60038801610e1a565b602090601f83116001146107d7576000926107cc575b50508160011b916000199060031b1c19161760038301555b608081015180516001600160401b0381116106b05760048401916104948261048e8554610c43565b85610e1a565b602090601f83116001146107605760a09493929160009183610755575b50508160011b916000199060031b1c19161790555b01518051906001600160401b0382116106b0576104f3826104ea6005860154610c43565b60058601610e1a565b602090601f83116001146106e75760059291600091836106dc575b50508160011b916000199060031b1c1916179101555b600254680100000000000000008110156106b0578060016105489201600255610bf6565b6106c6576001600160401b038b116106b05761056e8b6105688354610c43565b83610e1a565b8a6000601f821160011461064057600091610633575b508b60011b906000198d60031b1c19161790555b6040519a8b9a60c08c5260c08c01608051916105b392610e6e565b908b820360208d01526105c592610e6e565b9089820360408b01526105d792610e6e565b9087820360608901526105e992610e6e565b9085820360808701526105fb92610e6e565b9083820360a085015261060d92610e6e565b037f5414a46c4ba3f18e14ca3d019c7e76c871eeae3242919c022f52810d9e45a2b091a1005b905060805101358d610584565b9050816000528b6020600020916000608051925b601f198116821061069657601f19811610905061067c575b50505060018b811b019055610598565b013560001960038e901b60f8161c191690558c808061066c565b909193602060018192878701358155019501920190610654565b634e487b7160e01b600052604160045260246000fd5b634e487b7160e01b600052600060045260246000fd5b015190508f8061050e565b90601f198316916005850160005260206000209260005b81811061073d57509160019391856005969410610724575b505050811b01910155610524565b015160001960f88460031b161c191690558f8080610716565b929360206001819287860151815501950193016106fe565b0151905038806104b1565b90601f198316918460005260206000209260005b8181106107b4575091600193918560a0989796941061079b575b505050811b0190556104c6565b015160001960f88460031b161c1916905538808061078e565b92936020600181928786015181550195019301610774565b015190508f8061044e565b9250600385016000526020600020906000935b601f198416851061082e576001945083601f19811610610815575b505050811b016003830155610466565b015160001960f88460031b161c191690558f8080610805565b818101518355602094850194600190930192909101906107ea565b015190508f806103ee565b9250600285016000526020600020906000935b601f19841685106108ab576001945083601f19811610610892575b505050811b016002830155610406565b015160001960f88460031b161c191690558f8080610882565b81810151835560209485019460019093019290910190610867565b015190508f8061038e565b9250600185016000526020600020906000935b601f1984168510610928576001945083601f1981161061090f575b505050811b0160018301556103a6565b015160001960f88460031b161c191690558f80806108ff565b818101518355602094850194600190930192909101906108e4565b015190508f80610331565b9250846000526020600020906000935b601f198416851061099f576001945083601f19811610610986575b505050811b018255610346565b015160001960f88460031b161c191690558f8080610979565b8181015183556020948501946001909301929091019061095e565b60405162461bcd60e51b815260206004820152600b60248201526a139bdd081cdd195dd85c9960aa1b6044820152606490fd5b3461017d57600036600319011261017d576000546040516001600160a01b039091168152602090f35b3461017d5760208060031936011261017d576004356001600160401b03811161017d57610a47903690600401610da7565b8260405192610a5584610c7d565b606084818096528184820152816040820152818082015281608082015260a001528260405193849283378101600181520301902060405191610a9683610c7d565b610a9f82610cb9565b8352610aad60018301610cb9565b83850190815291610ac060028201610cb9565b6040850190815291610ad460038301610cb9565b85820190815290610ae760048401610cb9565b9260808701938452600501610afb90610cb9565b9360a087019485526040519788978189525190880160c0905260e08801610b2191610d82565b9551601f1996878982030160408a0152610b3a91610d82565b905191868883030190880152610b4f91610d82565b90519084868203016080870152610b6591610d82565b905190838582030160a0860152610b7b91610d82565b9051918382030160c084015261017991610d82565b3461017d57602036600319011261017d5760043560025481101561017d57610bb790610bf6565b6106c657610bc761017991610cb9565b604051918291602083526020830190610d82565b3461017d57600036600319011261017d576020906002548152f35b600254811015610c2d5760026000527f405787fa12a823e0f2b7631cc41b3ba8828b3321ca811111fa75cd3aa3bb5ace0190600090565b634e487b7160e01b600052603260045260246000fd5b90600182811c92168015610c73575b6020831014610c5d57565b634e487b7160e01b600052602260045260246000fd5b91607f1691610c52565b60c081019081106001600160401b038211176106b057604052565b90601f801991011681019081106001600160401b038211176106b057604052565b9060405191826000825492610ccd84610c43565b908184526001948581169081600014610d3c5750600114610cf9575b5050610cf792500383610c98565b565b9093915060005260209081600020936000915b818310610d24575050610cf793508201013880610ce9565b85548884018501529485019487945091830191610d0c565b915050610cf794506020925060ff191682840152151560051b8201013880610ce9565b60005b838110610d725750506000910152565b8181015183820152602001610d62565b90602091610d9b81518092818552858086019101610d5f565b601f01601f1916010190565b9181601f8401121561017d578235916001600160401b03831161017d576020838186019501011161017d57565b9291926001600160401b0382116106b05760405191610dfd601f8201601f191660200184610c98565b82948184528183011161017d578281602093846000960137010152565b90601f8111610e2857505050565b600091825260208220906020601f850160051c83019410610e64575b601f0160051c01915b828110610e5957505050565b818155600101610e4d565b9092508290610e44565b908060209392818452848401376000828201840152601f01601f191601019056fea26469706673582212207c23eb0fe5d068a0a2be69148590cdbe3e962a4a2a72e02c7c93d61833f3c62c64736f6c63430008140033",
  "linkReferences": {},
  "deployedLinkReferences": {}
}