{
  "_format": "hh-sol-artifact-1",
  "contractName": "TerrainRegistrySanctum",
  "sourceName": "contracts/manifest/TerrainRegistrySanctum.sol",
  "abi": [
    {
      "inputs": [],
      "stateMutability": "nonpayable",
      "type": "constructor"
    },
    {
      "anonymous": false,
      "inputs": [
        {
          "indexed": false,
          "internalType": "string",
          "name": "glyph",
          "type": "string"
        },
        {
          "indexed": false,
          "internalType": "string",
          "name": "registry",
          "type": "string"
        },
        {
          "indexed": false,
          "internalType": "string",
          "name": "sanctum",
          "type": "string"
        },
        {
          "indexed": false,
          "internalType": "string",
          "name": "choreography",
          "type": "string"
        },
        {
          "indexed": false,
          "internalType": "string",
          "name": "chant",
          "type": "string"
        }
      ],
      "name": "RegistrySanctumRouted",
      "type": "event"
    },
    {
      "inputs": [
        {
          "internalType": "string",
          "name": "glyph",
          "type": "string"
        }
      ],
      "name": "getRoute",
      "outputs": [
        {
          "components": [
            {
              "internalType": "string",
              "name": "glyph",
              "type": "string"
            },
            {
              "internalType": "string",
              "name": "registry",
              "type": "string"
            },
            {
              "internalType": "string",
              "name": "sanctum",
              "type": "string"
            },
            {
              "internalType": "string",
              "name": "choreography",
              "type": "string"
            },
            {
              "internalType": "string",
              "name": "chant",
              "type": "string"
            }
          ],
          "internalType": "struct TerrainRegistrySanctum.Route",
          "name": "",
          "type": "tuple"
        }
      ],
      "stateMutability": "view",
      "type": "function"
    },
    {
      "inputs": [
        {
          "internalType": "uint256",
          "name": "",
          "type": "uint256"
        }
      ],
      "name": "keys",
      "outputs": [
        {
          "internalType": "string",
          "name": "",
          "type": "string"
        }
      ],
      "stateMutability": "view",
      "type": "function"
    },
    {
      "inputs": [
        {
          "internalType": "string",
          "name": "glyph",
          "type": "string"
        },
        {
          "internalType": "string",
          "name": "registry",
          "type": "string"
        },
        {
          "internalType": "string",
          "name": "sanctum",
          "type": "string"
        },
        {
          "internalType": "string",
          "name": "choreography",
          "type": "string"
        },
        {
          "internalType": "string",
          "name": "chant",
          "type": "string"
        }
      ],
      "name": "routeRegistrySanctum",
      "outputs": [],
      "stateMutability": "nonpayable",
      "type": "function"
    },
    {
      "inputs": [
        {
          "internalType": "string",
          "name": "",
          "type": "string"
        }
      ],
      "name": "routes",
      "outputs": [
        {
          "internalType": "string",
          "name": "glyph",
          "type": "string"
        },
        {
          "internalType": "string",
          "name": "registry",
          "type": "string"
        },
        {
          "internalType": "string",
          "name": "sanctum",
          "type": "string"
        },
        {
          "internalType": "string",
          "name": "choreography",
          "type": "string"
        },
        {
          "internalType": "string",
          "name": "chant",
          "type": "string"
        }
      ],
      "stateMutability": "view",
      "type": "function"
    },
    {
      "inputs": [],
      "name": "steward",
      "outputs": [
        {
          "internalType": "address",
          "name": "",
          "type": "address"
        }
      ],
      "stateMutability": "view",
      "type": "function"
    },
    {
      "inputs": [],
      "name": "totalRoutes",
      "outputs": [
        {
          "internalType": "uint256",
          "name": "",
          "type": "uint256"
        }
      ],
      "stateMutability": "view",
      "type": "function"
    }
  ],
  "bytecode": "0x6080806040523461002857600080546001600160a01b03191633179055610d3c908161002e8239f35b600080fdfe608080604052600436101561001357600080fd5b60003560e01c90816305a2d3ac14610a52575080630cb6aaf114610a075780631b5f03a6146108c0578063637eea1914610897578063cffbffb5146107995763e72977b91461006157600080fd5b346107945760a0366003190112610794576004356001600160401b03811161079457610091903690600401610c1e565b6024356001600160401b038111610794576100b0903690600401610c1e565b906044356001600160401b038111610794576100d0903690600401610c1e565b906064356001600160401b038111610794576100f0903690600401610c1e565b9190926084356001600160401b03811161079457610112903690600401610c1e565b60005491979096916001600160a01b031633036107615760405161013581610af4565b610140368b8d610c4b565b815261014d368385610c4b565b602082015261015d368587610c4b565b604082015261016d368789610c4b565b606082015261017d36898b610c4b565b60808201526040518a8c82376020818c810160018152030190209080518051906001600160401b0382116104d55781906101c1826101bb8754610aba565b87610c91565b602090601f83116001146106f5576000926106ea575b50508160011b916000199060031b1c19161782555b60208101518051906001600160401b0382116104d557819061021e826102156001880154610aba565b60018801610c91565b602090601f83116001146106785760009261066d575b50508160011b916000199060031b1c19161760018301555b60408101518051906001600160401b0382116104d557819061027e826102756002880154610aba565b60028801610c91565b602090601f83116001146105fb576000926105f0575b50508160011b916000199060031b1c19161760028301555b60608101518051906001600160401b0382116104d5576102dc826102d36003870154610aba565b60038701610c91565b602090601f831160011461057d57608093929160009183610572575b50508160011b916000199060031b1c19161760038401555b0151908151906001600160401b0382116104d55760048291019261033e826103388654610aba565b86610c91565b602090601f831160011461050c57600092610501575b50508160011b916000199060031b1c19161790555b600254680100000000000000008110156104d55780600161038d9201600255610a6d565b6104eb576001600160401b038a116104d5576103b38a6103ad8354610aba565b83610c91565b896000601f821160011461046e57600091610463575b508a60011b906000198c60031b1c19161790555b604051998a9960a08b5260a08b01906103f592610ce5565b9089820360208b015261040792610ce5565b90878203604089015261041992610ce5565b90858203606087015261042b92610ce5565b90838203608085015261043d92610ce5565b037fecec0e387e8ba13b1570d83affee1a4cf084ed1512d9285b90ef6f5ead782e0b91a1005b90508b0135386103c9565b60008381526020812092505b8d601f198e1682106104bd5750508b601f198116106104a3575b505060018a811b0190556103dd565b8c013560001960038d901b60f8161c191690553880610494565b6001839460209394849301358155019301910161047a565b634e487b7160e01b600052604160045260246000fd5b634e487b7160e01b600052600060045260246000fd5b015190503880610354565b6000858152602081209350601f198516905b81811061055a5750908460019594939210610541575b505050811b019055610369565b015160001960f88460031b161c19169055388080610534565b9293602060018192878601518155019501930161051e565b0151905038806102f8565b906003850160005260206000209160005b601f19851681106105d8575091839160019360809695601f198116106105bf575b505050811b016003840155610310565b015160001960f88460031b161c191690553880806105af565b9192602060018192868501518155019401920161058e565b015190503880610294565b9250600285016000526020600020906000935b601f1984168510610652576001945083601f19811610610639575b505050811b0160028301556102ac565b015160001960f88460031b161c19169055388080610629565b8181015183556020948501946001909301929091019061060e565b015190503880610234565b9250600185016000526020600020906000935b601f19841685106106cf576001945083601f198116106106b6575b505050811b01600183015561024c565b015160001960f88460031b161c191690553880806106a6565b8181015183556020948501946001909301929091019061068b565b0151905038806101d7565b9250846000526020600020906000935b601f1984168510610746576001945083601f1981161061072d575b505050811b0182556101ec565b015160001960f88460031b161c19169055388080610720565b81810151835560209485019460019093019290910190610705565b60405162461bcd60e51b815260206004820152600b60248201526a139bdd081cdd195dd85c9960aa1b6044820152606490fd5b600080fd5b34610794576020366003190112610794576004356001600160401b0381116107945736602382011215610794576107f560206107e261085b933690602481600401359101610c4b565b8160405193828580945193849201610bd6565b8101600181520301902061089361080b82610b30565b9161088561081b60018301610b30565b9161087761082b60028301610b30565b610869610846600461083f60038701610b30565b9501610b30565b95604051998a9960a08b5260a08b0190610bf9565b9089820360208b0152610bf9565b908782036040890152610bf9565b908582036060870152610bf9565b908382036080850152610bf9565b0390f35b34610794576000366003190112610794576000546040516001600160a01b039091168152602090f35b346107945760208060031936011261079457600435906001600160401b03821161079457610893816108f86080943690600401610c1e565b919060405161090681610af4565b606096818880935282858201528260408201528280820152015282604051938492833781016001815203019020926040519361094185610af4565b61094a81610b30565b85526109f661095b60018301610b30565b918587019283526109e561097160028301610b30565b60408901908152610996600461098960038601610b30565b94888c0195865201610b30565b9560808a019687526109d46109be8a60a06040519d8e9d8e5251918d015260c08c0190610bf9565b965196601f1997888c83030160408d0152610bf9565b915190868a840301908a0152610bf9565b905183878303016080880152610bf9565b9151908483030160a0850152610bf9565b346107945760203660031901126107945760043560025481101561079457610a2e90610a6d565b6104eb57610a3e61089391610b30565b604051918291602083526020830190610bf9565b34610794576000366003190112610794576020906002548152f35b600254811015610aa45760026000527f405787fa12a823e0f2b7631cc41b3ba8828b3321ca811111fa75cd3aa3bb5ace0190600090565b634e487b7160e01b600052603260045260246000fd5b90600182811c92168015610aea575b6020831014610ad457565b634e487b7160e01b600052602260045260246000fd5b91607f1691610ac9565b60a081019081106001600160401b038211176104d557604052565b90601f801991011681019081106001600160401b038211176104d557604052565b9060405191826000825492610b4484610aba565b908184526001948581169081600014610bb35750600114610b70575b5050610b6e92500383610b0f565b565b9093915060005260209081600020936000915b818310610b9b575050610b6e93508201013880610b60565b85548884018501529485019487945091830191610b83565b915050610b6e94506020925060ff191682840152151560051b8201013880610b60565b60005b838110610be95750506000910152565b8181015183820152602001610bd9565b90602091610c1281518092818552858086019101610bd6565b601f01601f1916010190565b9181601f84011215610794578235916001600160401b038311610794576020838186019501011161079457565b9291926001600160401b0382116104d55760405191610c74601f8201601f191660200184610b0f565b829481845281830111610794578281602093846000960137010152565b90601f8111610c9f57505050565b600091825260208220906020601f850160051c83019410610cdb575b601f0160051c01915b828110610cd057505050565b818155600101610cc4565b9092508290610cbb565b908060209392818452848401376000828201840152601f01601f191601019056fea26469706673582212203130af586938b25c7812735d5eed077f960a77bc005a7a537b6548781fc6f4da64736f6c63430008140033",
  "linkReferences": {},
  "deployedLinkReferences": {}
}