{
  "_format": "hh-sol-artifact-1",
  "contractName": "ApprenticeSummonerXVIII",
  "sourceName": "contracts/registry/ApprenticeSummonerXVIII.sol",
  "abi": [
    {
      "inputs": [],
      "stateMutability": "nonpayable",
      "type": "constructor"
    },
    {
      "anonymous": false,
      "inputs": [
        {
          "indexed": true,
          "internalType": "address",
          "name": "apprentice",
          "type": "address"
        },
        {
          "indexed": false,
          "internalType": "string",
          "name": "name",
          "type": "string"
        },
        {
          "indexed": false,
          "internalType": "string",
          "name": "signal",
          "type": "string"
        },
        {
          "indexed": false,
          "internalType": "string",
          "name": "drift",
          "type": "string"
        },
        {
          "indexed": false,
          "internalType": "string",
          "name": "pulse",
          "type": "string"
        },
        {
          "indexed": false,
          "internalType": "string",
          "name": "codexRef",
          "type": "string"
        },
        {
          "indexed": false,
          "internalType": "string",
          "name": "resonance",
          "type": "string"
        },
        {
          "indexed": false,
          "internalType": "string",
          "name": "signature",
          "type": "string"
        },
        {
          "indexed": false,
          "internalType": "string",
          "name": "sanctum",
          "type": "string"
        },
        {
          "indexed": false,
          "internalType": "string",
          "name": "chant",
          "type": "string"
        },
        {
          "indexed": false,
          "internalType": "string",
          "name": "choreography",
          "type": "string"
        },
        {
          "indexed": false,
          "internalType": "string",
          "name": "stewardName",
          "type": "string"
        },
        {
          "indexed": false,
          "internalType": "string",
          "name": "echo",
          "type": "string"
        },
        {
          "indexed": false,
          "internalType": "string",
          "name": "choreographyType",
          "type": "string"
        },
        {
          "indexed": false,
          "internalType": "string",
          "name": "signalType",
          "type": "string"
        },
        {
          "indexed": false,
          "internalType": "string",
          "name": "stewardSignal",
          "type": "string"
        }
      ],
      "name": "ApprenticeSummoned",
      "type": "event"
    },
    {
      "inputs": [
        {
          "internalType": "uint256",
          "name": "",
          "type": "uint256"
        }
      ],
      "name": "apprentices",
      "outputs": [
        {
          "internalType": "address",
          "name": "",
          "type": "address"
        }
      ],
      "stateMutability": "view",
      "type": "function"
    },
    {
      "inputs": [
        {
          "internalType": "address",
          "name": "apprentice",
          "type": "address"
        }
      ],
      "name": "getSummons",
      "outputs": [
        {
          "components": [
            {
              "internalType": "string",
              "name": "name",
              "type": "string"
            },
            {
              "internalType": "string",
              "name": "signal",
              "type": "string"
            },
            {
              "internalType": "string",
              "name": "drift",
              "type": "string"
            },
            {
              "internalType": "string",
              "name": "pulse",
              "type": "string"
            },
            {
              "internalType": "string",
              "name": "codexRef",
              "type": "string"
            },
            {
              "internalType": "string",
              "name": "resonance",
              "type": "string"
            },
            {
              "internalType": "string",
              "name": "signature",
              "type": "string"
            },
            {
              "internalType": "string",
              "name": "sanctum",
              "type": "string"
            },
            {
              "internalType": "string",
              "name": "chant",
              "type": "string"
            },
            {
              "internalType": "string",
              "name": "choreography",
              "type": "string"
            },
            {
              "internalType": "string",
              "name": "stewardName",
              "type": "string"
            },
            {
              "internalType": "string",
              "name": "echo",
              "type": "string"
            },
            {
              "internalType": "string",
              "name": "choreographyType",
              "type": "string"
            },
            {
              "internalType": "string",
              "name": "signalType",
              "type": "string"
            },
            {
              "internalType": "string",
              "name": "stewardSignal",
              "type": "string"
            }
          ],
          "internalType": "struct ApprenticeSummonerXVIII.Summons",
          "name": "",
          "type": "tuple"
        }
      ],
      "stateMutability": "view",
      "type": "function"
    },
    {
      "inputs": [],
      "name": "steward",
      "outputs": [
        {
          "internalType": "address",
          "name": "",
          "type": "address"
        }
      ],
      "stateMutability": "view",
      "type": "function"
    },
    {
      "inputs": [
        {
          "internalType": "address",
          "name": "apprentice",
          "type": "address"
        },
        {
          "internalType": "string",
          "name": "name",
          "type": "string"
        },
        {
          "internalType": "string",
          "name": "signal",
          "type": "string"
        },
        {
          "internalType": "string",
          "name": "drift",
          "type": "string"
        },
        {
          "internalType": "string",
          "name": "pulse",
          "type": "string"
        },
        {
          "internalType": "string",
          "name": "codexRef",
          "type": "string"
        },
        {
          "internalType": "string",
          "name": "resonance",
          "type": "string"
        },
        {
          "internalType": "string",
          "name": "signature",
          "type": "string"
        },
        {
          "internalType": "string",
          "name": "sanctum",
          "type": "string"
        },
        {
          "internalType": "string",
          "name": "chant",
          "type": "string"
        },
        {
          "internalType": "string",
          "name": "choreography",
          "type": "string"
        },
        {
          "internalType": "string",
          "name": "stewardName",
          "type": "string"
        },
        {
          "internalType": "string",
          "name": "echo",
          "type": "string"
        },
        {
          "internalType": "string",
          "name": "choreographyType",
          "type": "string"
        },
        {
          "internalType": "string",
          "name": "signalType",
          "type": "string"
        },
        {
          "internalType": "string",
          "name": "stewardSignal",
          "type": "string"
        }
      ],
      "name": "summonApprentice",
      "outputs": [],
      "stateMutability": "nonpayable",
      "type": "function"
    },
    {
      "inputs": [
        {
          "internalType": "address",
          "name": "",
          "type": "address"
        }
      ],
      "name": "summons",
      "outputs": [
        {
          "internalType": "string",
          "name": "name",
          "type": "string"
        },
        {
          "internalType": "string",
          "name": "signal",
          "type": "string"
        },
        {
          "internalType": "string",
          "name": "drift",
          "type": "string"
        },
        {
          "internalType": "string",
          "name": "pulse",
          "type": "string"
        },
        {
          "internalType": "string",
          "name": "codexRef",
          "type": "string"
        },
        {
          "internalType": "string",
          "name": "resonance",
          "type": "string"
        },
        {
          "internalType": "string",
          "name": "signature",
          "type": "string"
        },
        {
          "internalType": "string",
          "name": "sanctum",
          "type": "string"
        },
        {
          "internalType": "string",
          "name": "chant",
          "type": "string"
        },
        {
          "internalType": "string",
          "name": "choreography",
          "type": "string"
        },
        {
          "internalType": "string",
          "name": "stewardName",
          "type": "string"
        },
        {
          "internalType": "string",
          "name": "echo",
          "type": "string"
        },
        {
          "internalType": "string",
          "name": "choreographyType",
          "type": "string"
        },
        {
          "internalType": "string",
          "name": "signalType",
          "type": "string"
        },
        {
          "internalType": "string",
          "name": "stewardSignal",
          "type": "string"
        }
      ],
      "stateMutability": "view",
      "type": "function"
    },
    {
      "inputs": [],
      "name": "totalSummons",
      "outputs": [
        {
          "internalType": "uint256",
          "name": "",
          "type": "uint256"
        }
      ],
      "stateMutability": "view",
      "type": "function"
    }
  ],
  "bytecode": "0x6080806040523461002857600080546001600160a01b031916331790556120d8908161002e8239f35b600080fdfe6104a080604052600436101561001457600080fd5b60003560e01c9081632a17d4cd14611e33575080635a2ed66214611c3a578063637eea1914611c11578063745ff840146103e1578063cf84c603146100a95763f31bee3e1461006257600080fd5b346100a45760203660031901126100a4576004356002548110156100a45761008b602091611fee565b905460405160039290921b1c6001600160a01b03168152f35b600080fd5b346100a45760203660031901126100a4576100c2611e4e565b60606101c06040516100d381611e9e565b82815282602082015282604082015282808201528260808201528260a08201528260c08201528260e08201528261010082015282610120820152826101408201528261016082015282610180820152826101a0820152015260018060a01b031660005260016020526102f56040600020610249600e6040519261015584611e9e565b61015e81611edb565b845261016c60018201611edb565b602085015261017d60028201611edb565b604085015261018e60038201611edb565b606085015261019f60048201611edb565b60808501526101b060058201611edb565b60a08501526101c160068201611edb565b60c08501526101d260078201611edb565b60e08501526101e360088201611edb565b6101008501526101f560098201611edb565b610120850152610207600a8201611edb565b610140850152610219600b8201611edb565b61016085015261022b600c8201611edb565b61018085015261023d600d8201611edb565b6101a085015201611edb565b6101c08201526103dd816101c06103c86103b261039a61038261036a61035261033a61032361030d6040519d8e9d8e6020815260806102e06102cb6102b561029f86516101e06020880152610200870190611f81565b6020870151868203601f19016040880152611f81565b6040860151858203601f19016060870152611f81565b6060850151848203601f190184860152611f81565b9201519060a0601f1982850301910152611f81565b8d60a08d01519060c0601f1982850301910152611f81565b60c08b01518d8203601f190160e08f0152611f81565b60e08a01518c8203601f19016101008e0152611f81565b6101008901518b8203601f19016101208d0152611f81565b6101208801518a8203601f19016101408c0152611f81565b610140870151898203601f19016101608b0152611f81565b610160860151888203601f19016101808a0152611f81565b610180850151878203601f19016101a0890152611f81565b6101a0840151868203601f190184880152611f81565b910151838203601f19016101e0850152611f81565b0390f35b346100a4576102003660031901126100a4576103fb611e4e565b610140526024356001600160401b0381116100a45761041e903690600401611fc1565b60a052610200526044356001600160401b0381116100a457610444903690600401611fc1565b610340526103a0526064356001600160401b0381116100a45761046b903690600401611fc1565b6102805260e0526084356001600160401b0381116100a457610491903690600401611fc1565b610160526104405260a4356001600160401b0381116100a4576104b8903690600401611fc1565b61048052610220526001600160401b0360c435116100a4576104df3660c435600401611fc1565b610120526101c0526001600160401b0360e435116100a4576105063660e435600401611fc1565b610180526103c0526001600160401b0361010435116100a45761052f3661010435600401611fc1565b6102c0526102e0526001600160401b0361012435116100a4576105583661012435600401611fc1565b608052610380526001600160401b0361014435116100a4576105803661014435600401611fc1565b61036052610300526001600160401b0361016435116100a4576105a93661016435600401611fc1565b61026052610100526001600160401b0361018435116100a4576105d23661018435600401611fc1565b6102a0526101a0526001600160401b036101a435116100a4576105fb366101a435600401611fc1565b60c052610400526001600160401b036101c435116100a457610623366101c435600401611fc1565b610460526101e0526001600160401b036101e435116100a45761064c366101e435600401611fc1565b61024052610420526000546001600160a01b03163303611bde576106766040518061032052611e9e565b6106863660a0516102005161203b565b610320515261069c36610340516103a05161203b565b60206103205101526106b4366102805160e05161203b565b60406103205101526106cd36610160516104405161203b565b60606103205101526106e636610480516102205161203b565b60806103205101526106ff36610120516101c05161203b565b60a061032051015261071836610180516103c05161203b565b60c0610320510152610731366102c0516102e05161203b565b60e0610320510152610749366080516103805161203b565b61010061032051015261076336610360516103005161203b565b61012061032051015261077d36610260516101005161203b565b610140610320510152610797366102a0516101a05161203b565b6101606103205101526107b03660c0516104005161203b565b6101806103205101526107ca36610460516101e05161203b565b6101a06103205101526107e436610240516104205161203b565b6101c061032051015260018060a01b0361014051166000526001602052604060002061032051519081516001600160401b038111610fd7576108268254611e64565b601f8111611b9a575b506020601f8211600114611b3557819293600092611b2a575b50508160011b916000199060031b1c19161781555b60206103205101518051906001600160401b038211610fd75781906108856001850154611e64565b601f8111611ad7575b50602090601f8311600114611a6557600092611a5a575b50508160011b916000199060031b1c19161760018201555b60406103205101519081516001600160401b038111610fd7576108e36002830154611e64565b601f8111611a13575b506020601f82116001146119a85781929360009261199d575b50508160011b916000199060031b1c19161760028201555b60606103205101518051906001600160401b038211610fd75781906109456003850154611e64565b601f811161194a575b50602090601f83116001146118d8576000926118cd575b50508160011b916000199060031b1c19161760038201555b60806103205101518051906001600160401b038211610fd75781906109a56004850154611e64565b601f811161187a575b50602090601f8311600114611808576000926117fd575b50508160011b916000199060031b1c19161760048201555b60a06103205101518051906001600160401b038211610fd7578190610a056005850154611e64565b601f81116117aa575b50602090601f83116001146117385760009261172d575b50508160011b916000199060031b1c19161760058201555b60c06103205101518051906001600160401b038211610fd7578190610a656006850154611e64565b601f81116116da575b50602090601f83116001146116685760009261165d575b50508160011b916000199060031b1c19161760068201555b60e06103205101518051906001600160401b038211610fd7578190610ac56007850154611e64565b601f811161160a575b50602090601f83116001146115985760009261158d575b50508160011b916000199060031b1c19161760078201555b6101006103205101518051906001600160401b038211610fd7578190610b266008850154611e64565b601f811161153a575b50602090601f83116001146114c8576000926114bd575b50508160011b916000199060031b1c19161760088201555b6101206103205101518051906001600160401b038211610fd7578190610b876009850154611e64565b601f811161146a575b50602090601f83116001146113f8576000926113ed575b50508160011b916000199060031b1c19161760098201555b6101406103205101518051906001600160401b038211610fd7578190610be8600a850154611e64565b601f811161139a575b50602090601f83116001146113285760009261131d575b50508160011b916000199060031b1c191617600a8201555b6101606103205101518051906001600160401b038211610fd7578190610c49600b850154611e64565b601f81116112ca575b50602090601f83116001146112585760009261124d575b50508160011b916000199060031b1c191617600b8201555b6101806103205101518051906001600160401b038211610fd7578190610caa600c850154611e64565b601f81116111fa575b50602090601f83116001146111885760009261117d575b50508160011b916000199060031b1c191617600c8201555b6101a06103205101518051906001600160401b038211610fd7578190610d0b600d850154611e64565b601f811161112a575b50602090601f83116001146110b8576000926110ad575b50508160011b916000199060031b1c191617600d8201555b6101c06103205101518051906001600160401b038211610fd757610d6a600e840154611e64565b601f8111611066575b50602090601f8311600114610ff857600e929160009183610fed575b50508160011b916000199060031b1c1916179101555b60025468010000000000000000811015610fd757806001610dc99201600255611fee565b81549060031b9060018060a01b036101405116821b9160018060a01b03901b19161790556101e0604051806103e05252610f7f610f65610f4c610f32610f18610efe610ee5610ecc610eb3610e9a610e81610e68610e50610e376101e06103e0510160a05161020051612081565b6103e0516020818303910152610340516103a051612081565b6103e05160408183039101526102805160e051612081565b6103e05160608183039101526101605161044051612081565b6103e05160808183039101526104805161022051612081565b6103e05160a0818303910152610120516101c051612081565b6103e05160c0818303910152610180516103c051612081565b6103e05160e08183039101526102c0516102e051612081565b6103e05161010081830391015260805161038051612081565b6103e0516101208183039101526103605161030051612081565b6103e0516101408183039101526102605161010051612081565b6103e0516101608183039101526102a0516101a051612081565b6103e05161018081830391015260c05161040051612081565b6103e0516101a0818303910152610460516101e051612081565b6103e0516101c08183039101527f3287e78ece9fb279a346f796022c145352828976b64140e7ae43a9f7182c535e60018060a01b03610140511691610fcf6103e051916102405161042051612081565b036103e051a2005b634e487b7160e01b600052604160045260246000fd5b015190508480610d8f565b90600e84016000526020600020916000601f198516905b81811061104e5750916001939185600e969410611035575b505050811b01910155610da5565b015160001960f88460031b161c19169055848080611027565b9293602060018192878601518155019501930161100f565b600e84016000526020600020601f840160051c8101602085106110a6575b601f830160051c8201811061109a575050610d73565b60008155600101611084565b5080611084565b015190508380610d2b565b9250600d84016000526020600020906000935b601f198416851061110f576001945083601f198116106110f6575b505050811b01600d820155610d43565b015160001960f88460031b161c191690558380806110e6565b818101518355602094850194600190930192909101906110cb565b909150600d84016000526020600020601f840160051c810160208510611176575b90849392915b601f830160051c82018110611167575050610d14565b60008155859450600101611151565b508061114b565b015190508380610cca565b9250600c84016000526020600020906000935b601f19841685106111df576001945083601f198116106111c6575b505050811b01600c820155610ce2565b015160001960f88460031b161c191690558380806111b6565b8181015183556020948501946001909301929091019061119b565b909150600c84016000526020600020601f840160051c810160208510611246575b90849392915b601f830160051c82018110611237575050610cb3565b60008155859450600101611221565b508061121b565b015190508380610c69565b9250600b84016000526020600020906000935b601f19841685106112af576001945083601f19811610611296575b505050811b01600b820155610c81565b015160001960f88460031b161c19169055838080611286565b8181015183556020948501946001909301929091019061126b565b909150600b84016000526020600020601f840160051c810160208510611316575b90849392915b601f830160051c82018110611307575050610c52565b600081558594506001016112f1565b50806112eb565b015190508380610c08565b9250600a84016000526020600020906000935b601f198416851061137f576001945083601f19811610611366575b505050811b01600a820155610c20565b015160001960f88460031b161c19169055838080611356565b8181015183556020948501946001909301929091019061133b565b909150600a84016000526020600020601f840160051c8101602085106113e6575b90849392915b601f830160051c820181106113d7575050610bf1565b600081558594506001016113c1565b50806113bb565b015190508380610ba7565b9250600984016000526020600020906000935b601f198416851061144f576001945083601f19811610611436575b505050811b016009820155610bbf565b015160001960f88460031b161c19169055838080611426565b8181015183556020948501946001909301929091019061140b565b909150600984016000526020600020601f840160051c8101602085106114b6575b90849392915b601f830160051c820181106114a7575050610b90565b60008155859450600101611491565b508061148b565b015190508380610b46565b9250600884016000526020600020906000935b601f198416851061151f576001945083601f19811610611506575b505050811b016008820155610b5e565b015160001960f88460031b161c191690558380806114f6565b818101518355602094850194600190930192909101906114db565b909150600884016000526020600020601f840160051c810160208510611586575b90849392915b601f830160051c82018110611577575050610b2f565b60008155859450600101611561565b508061155b565b015190508380610ae5565b9250600784016000526020600020906000935b601f19841685106115ef576001945083601f198116106115d6575b505050811b016007820155610afd565b015160001960f88460031b161c191690558380806115c6565b818101518355602094850194600190930192909101906115ab565b909150600784016000526020600020601f840160051c810160208510611656575b90849392915b601f830160051c82018110611647575050610ace565b60008155859450600101611631565b508061162b565b015190508380610a85565b9250600684016000526020600020906000935b601f19841685106116bf576001945083601f198116106116a6575b505050811b016006820155610a9d565b015160001960f88460031b161c19169055838080611696565b8181015183556020948501946001909301929091019061167b565b909150600684016000526020600020601f840160051c810160208510611726575b90849392915b601f830160051c82018110611717575050610a6e565b60008155859450600101611701565b50806116fb565b015190508380610a25565b9250600584016000526020600020906000935b601f198416851061178f576001945083601f19811610611776575b505050811b016005820155610a3d565b015160001960f88460031b161c19169055838080611766565b8181015183556020948501946001909301929091019061174b565b909150600584016000526020600020601f840160051c8101602085106117f6575b90849392915b601f830160051c820181106117e7575050610a0e565b600081558594506001016117d1565b50806117cb565b0151905083806109c5565b9250600484016000526020600020906000935b601f198416851061185f576001945083601f19811610611846575b505050811b0160048201556109dd565b015160001960f88460031b161c19169055838080611836565b8181015183556020948501946001909301929091019061181b565b909150600484016000526020600020601f840160051c8101602085106118c6575b90849392915b601f830160051c820181106118b75750506109ae565b600081558594506001016118a1565b508061189b565b015190508380610965565b9250600384016000526020600020906000935b601f198416851061192f576001945083601f19811610611916575b505050811b01600382015561097d565b015160001960f88460031b161c19169055838080611906565b818101518355602094850194600190930192909101906118eb565b909150600384016000526020600020601f840160051c810160208510611996575b90849392915b601f830160051c8201811061198757505061094e565b60008155859450600101611971565b508061196b565b015190508380610905565b60028301600052602060002090600094601f198416955b8681106119fb57508360019596106119e2575b505050811b01600282015561091d565b015160001960f88460031b161c191690558380806119d2565b919260206001819286850151815501940192016119bf565b600283016000526020600020601f830160051c810160208410611a53575b601f830160051c82018110611a475750506108ec565b60008155600101611a31565b5080611a31565b0151905083806108a5565b9250600184016000526020600020906000935b601f1984168510611abc576001945083601f19811610611aa3575b505050811b0160018201556108bd565b015160001960f88460031b161c19169055838080611a93565b81810151835560209485019460019093019290910190611a78565b909150600184016000526020600020601f840160051c810160208510611b23575b90849392915b601f830160051c82018110611b1457505061088e565b60008155859450600101611afe565b5080611af8565b015190508380610848565b82600052602060002090600094601f198416955b868110611b825750836001959610611b69575b505050811b01815561085d565b015160001960f88460031b161c19169055838080611b5c565b91926020600181928685015181550194019201611b49565b826000526020600020601f830160051c810160208410611bd7575b601f830160051c82018110611bcb57505061082f565b60008155600101611bb5565b5080611bb5565b60405162461bcd60e51b815260206004820152600b60248201526a139bdd081cdd195dd85c9960aa1b6044820152606490fd5b346100a45760003660031901126100a4576000546040516001600160a01b039091168152602090f35b346100a45760203660031901126100a4576001600160a01b03611c5b611e4e565b1660005260016020526040600020611c7281611edb565b90611c7f60018201611edb565b90611c8c60028201611edb565b90611c9960038201611edb565b611ca560048301611edb565b611cb160058401611edb565b611cbd60068501611edb565b611cc960078601611edb565b611cd560088701611edb565b90611ce260098801611edb565b92611cef600a8901611edb565b94611cfc600b8a01611edb565b96611d09600c8b01611edb565b98611d16600d8c01611edb565b9a600e01611d2390611edb565b9b6040519e8f9e8f916101e08084528301611d3d91611f81565b8281036020840152611d4e91611f81565b908082039060400152611d6091611f81565b8d810360608f0152611d7191611f81565b8c810360808e0152611d8291611f81565b8b810360a08d0152611d9391611f81565b8a810360c08c0152611da491611f81565b89810360e08b0152611db591611f81565b8881036101008a0152611dc791611f81565b878103610120890152611dd991611f81565b868103610140880152611deb91611f81565b858103610160870152611dfd91611f81565b848103610180860152611e0f91611f81565b8381036101a0850152611e2191611f81565b8281036101c08401526103dd91611f81565b346100a45760003660031901126100a4576020906002548152f35b600435906001600160a01b03821682036100a457565b90600182811c92168015611e94575b6020831014611e7e57565b634e487b7160e01b600052602260045260246000fd5b91607f1691611e73565b6101e081019081106001600160401b03821117610fd757604052565b90601f801991011681019081106001600160401b03821117610fd757604052565b9060405191826000825492611eef84611e64565b908184526001948581169081600014611f5e5750600114611f1b575b5050611f1992500383611eba565b565b9093915060005260209081600020936000915b818310611f46575050611f1993508201013880611f0b565b85548884018501529485019487945091830191611f2e565b915050611f1994506020925060ff191682840152151560051b8201013880611f0b565b919082519283825260005b848110611fad575050826000602080949584010152601f8019910116010190565b602081830181015184830182015201611f8c565b9181601f840112156100a4578235916001600160401b0383116100a457602083818601950101116100a457565b6002548110156120255760026000527f405787fa12a823e0f2b7631cc41b3ba8828b3321ca811111fa75cd3aa3bb5ace0190600090565b634e487b7160e01b600052603260045260246000fd5b9291926001600160401b038211610fd75760405191612064601f8201601f191660200184611eba565b8294818452818301116100a4578281602093846000960137010152565b908060209392818452848401376000828201840152601f01601f191601019056fea26469706673582212201102ff80109f7859bcfea6e39cd74c185e082c68460b6aa24615e61784ecd97364736f6c63430008140033",
  "linkReferences": {},
  "deployedLinkReferences": {}
}