{
  "_format": "hh-sol-artifact-1",
  "contractName": "ApprenticeSummonerXII",
  "sourceName": "contracts/registry/ApprenticeSummonerXII.sol",
  "abi": [
    {
      "inputs": [],
      "stateMutability": "nonpayable",
      "type": "constructor"
    },
    {
      "anonymous": false,
      "inputs": [
        {
          "indexed": true,
          "internalType": "address",
          "name": "apprentice",
          "type": "address"
        },
        {
          "indexed": false,
          "internalType": "string",
          "name": "name",
          "type": "string"
        },
        {
          "indexed": false,
          "internalType": "string",
          "name": "signal",
          "type": "string"
        },
        {
          "indexed": false,
          "internalType": "string",
          "name": "drift",
          "type": "string"
        },
        {
          "indexed": false,
          "internalType": "string",
          "name": "pulse",
          "type": "string"
        },
        {
          "indexed": false,
          "internalType": "string",
          "name": "codexRef",
          "type": "string"
        },
        {
          "indexed": false,
          "internalType": "string",
          "name": "resonance",
          "type": "string"
        },
        {
          "indexed": false,
          "internalType": "string",
          "name": "signature",
          "type": "string"
        },
        {
          "indexed": false,
          "internalType": "string",
          "name": "sanctum",
          "type": "string"
        },
        {
          "indexed": false,
          "internalType": "string",
          "name": "chant",
          "type": "string"
        },
        {
          "indexed": false,
          "internalType": "string",
          "name": "choreography",
          "type": "string"
        }
      ],
      "name": "ApprenticeSummoned",
      "type": "event"
    },
    {
      "inputs": [
        {
          "internalType": "uint256",
          "name": "",
          "type": "uint256"
        }
      ],
      "name": "apprentices",
      "outputs": [
        {
          "internalType": "address",
          "name": "",
          "type": "address"
        }
      ],
      "stateMutability": "view",
      "type": "function"
    },
    {
      "inputs": [
        {
          "internalType": "address",
          "name": "apprentice",
          "type": "address"
        }
      ],
      "name": "getSummons",
      "outputs": [
        {
          "components": [
            {
              "internalType": "string",
              "name": "name",
              "type": "string"
            },
            {
              "internalType": "string",
              "name": "signal",
              "type": "string"
            },
            {
              "internalType": "string",
              "name": "drift",
              "type": "string"
            },
            {
              "internalType": "string",
              "name": "pulse",
              "type": "string"
            },
            {
              "internalType": "string",
              "name": "codexRef",
              "type": "string"
            },
            {
              "internalType": "string",
              "name": "resonance",
              "type": "string"
            },
            {
              "internalType": "string",
              "name": "signature",
              "type": "string"
            },
            {
              "internalType": "string",
              "name": "sanctum",
              "type": "string"
            },
            {
              "internalType": "string",
              "name": "chant",
              "type": "string"
            },
            {
              "internalType": "string",
              "name": "choreography",
              "type": "string"
            }
          ],
          "internalType": "struct ApprenticeSummonerXII.Summons",
          "name": "",
          "type": "tuple"
        }
      ],
      "stateMutability": "view",
      "type": "function"
    },
    {
      "inputs": [],
      "name": "steward",
      "outputs": [
        {
          "internalType": "address",
          "name": "",
          "type": "address"
        }
      ],
      "stateMutability": "view",
      "type": "function"
    },
    {
      "inputs": [
        {
          "internalType": "address",
          "name": "apprentice",
          "type": "address"
        },
        {
          "internalType": "string",
          "name": "name",
          "type": "string"
        },
        {
          "internalType": "string",
          "name": "signal",
          "type": "string"
        },
        {
          "internalType": "string",
          "name": "drift",
          "type": "string"
        },
        {
          "internalType": "string",
          "name": "pulse",
          "type": "string"
        },
        {
          "internalType": "string",
          "name": "codexRef",
          "type": "string"
        },
        {
          "internalType": "string",
          "name": "resonance",
          "type": "string"
        },
        {
          "internalType": "string",
          "name": "signature",
          "type": "string"
        },
        {
          "internalType": "string",
          "name": "sanctum",
          "type": "string"
        },
        {
          "internalType": "string",
          "name": "chant",
          "type": "string"
        },
        {
          "internalType": "string",
          "name": "choreography",
          "type": "string"
        }
      ],
      "name": "summonApprentice",
      "outputs": [],
      "stateMutability": "nonpayable",
      "type": "function"
    },
    {
      "inputs": [
        {
          "internalType": "address",
          "name": "",
          "type": "address"
        }
      ],
      "name": "summons",
      "outputs": [
        {
          "internalType": "string",
          "name": "name",
          "type": "string"
        },
        {
          "internalType": "string",
          "name": "signal",
          "type": "string"
        },
        {
          "internalType": "string",
          "name": "drift",
          "type": "string"
        },
        {
          "internalType": "string",
          "name": "pulse",
          "type": "string"
        },
        {
          "internalType": "string",
          "name": "codexRef",
          "type": "string"
        },
        {
          "internalType": "string",
          "name": "resonance",
          "type": "string"
        },
        {
          "internalType": "string",
          "name": "signature",
          "type": "string"
        },
        {
          "internalType": "string",
          "name": "sanctum",
          "type": "string"
        },
        {
          "internalType": "string",
          "name": "chant",
          "type": "string"
        },
        {
          "internalType": "string",
          "name": "choreography",
          "type": "string"
        }
      ],
      "stateMutability": "view",
      "type": "function"
    },
    {
      "inputs": [],
      "name": "totalSummons",
      "outputs": [
        {
          "internalType": "uint256",
          "name": "",
          "type": "uint256"
        }
      ],
      "stateMutability": "view",
      "type": "function"
    }
  ],
  "bytecode": "0x6080806040523461002857600080546001600160a01b0319163317905561177e908161002e8239f35b600080fdfe61036080604052600436101561001457600080fd5b60003560e01c9081632a17d4cd146114d9575080635a2ed6621461137d578063637eea1914611354578063cf84c60314611123578063dbb94f36146100a95763f31bee3e1461006257600080fd5b346100a45760203660031901126100a4576004356002548110156100a45761008b602091611694565b905460405160039290921b1c6001600160a01b03168152f35b600080fd5b346100a4576101603660031901126100a4576100c36114f4565b610180526024356001600160401b0381116100a4576100e6903690600401611667565b6102c052610140526044356001600160401b0381116100a45761010d903690600401611667565b6101e0526080526064356001600160401b0381116100a457610133903690600401611667565b610240526101a0526084356001600160401b0381116100a45761015a903690600401611667565b60e0526102a05260a4356001600160401b0381116100a457610180903690600401611667565b610320526101005260c4356001600160401b0381116100a4576101a7903690600401611667565b61016052610200526001600160401b0360e435116100a4576101ce3660e435600401611667565b6102e05261022052610104356001600160401b0381116100a4576101f6903690600401611667565b6103405261026052610124356001600160401b0381116100a45761021e903690600401611667565b6101c05261028052610144356001600160401b0381116100a457610246903690600401611667565b60c05260a0526000546001600160a01b031633036110f05761026e6040518061012052611544565b61027f366102c051610140516116e1565b6101205152610294366101e0516080516116e1565b60206101205101526102ad36610240516101a0516116e1565b60406101205101526102c53660e0516102a0516116e1565b60606101205101526102de3661032051610100516116e1565b60806101205101526102f73661016051610200516116e1565b60a0610120510152610310366102e051610220516116e1565b60c06101205101526103293661034051610260516116e1565b60e0610120510152610342366101c051610280516116e1565b61010061012051015261035a3660c05160a0516116e1565b6101208051015260018060a01b0361018051166000526001602052604060002061012051518051906001600160401b0382116108d357819061039c845461150a565b601f81116110a0575b50602090601f831160011461103457600092611029575b50508160011b916000199060031b1c19161781555b60206101205101518051906001600160401b0382116108d35781906103f9600185015461150a565b601f8111610fd6575b50602090601f8311600114610f6457600092610f59575b50508160011b916000199060031b1c19161760018201555b60406101205101518051906001600160401b0382116108d3578190610459600285015461150a565b601f8111610f06575b50602090601f8311600114610e9457600092610e89575b50508160011b916000199060031b1c19161760028201555b60606101205101518051906001600160401b0382116108d35781906104b9600385015461150a565b601f8111610e36575b50602090601f8311600114610dc457600092610db9575b50508160011b916000199060031b1c19161760038201555b60806101205101518051906001600160401b0382116108d3578190610519600485015461150a565b601f8111610d66575b50602090601f8311600114610cf457600092610ce9575b50508160011b916000199060031b1c19161760048201555b60a06101205101518051906001600160401b0382116108d3578190610579600585015461150a565b601f8111610c96575b50602090601f8311600114610c2457600092610c19575b50508160011b916000199060031b1c19161760058201555b60c06101205101518051906001600160401b0382116108d35781906105d9600685015461150a565b601f8111610bc6575b50602090601f8311600114610b5457600092610b49575b50508160011b916000199060031b1c19161760068201555b60e06101205101518051906001600160401b0382116108d3578190610639600785015461150a565b601f8111610af6575b50602090601f8311600114610a8457600092610a79575b50508160011b916000199060031b1c19161760078201555b6101006101205101518051906001600160401b0382116108d357819061069a600885015461150a565b601f8111610a26575b50602090601f83116001146109b4576000926109a9575b50508160011b916000199060031b1c19161760088201555b610120805101518051906001600160401b0382116108d3576106f7600984015461150a565b601f8111610962575b50602090601f83116001146108f45760099291600091836108e9575b50508160011b916000199060031b1c1916179101555b600254680100000000000000008110156108d3578060016107569201600255611694565b81549060031b9060018060a01b036101805116821b9160018060a01b03901b191617905561014060405180610300525261087d61086361084a6108316108186107ff6107e76107ce6107b661014061030051016102c05161014051611727565b6103005160208183039101526101e051608051611727565b610300516040818303910152610240516101a051611727565b61030051606081830391015260e0516102a051611727565b6103005160808183039101526103205161010051611727565b6103005160a08183039101526101605161020051611727565b6103005160c08183039101526102e05161022051611727565b6103005160e08183039101526103405161026051611727565b610300516101008183039101526101c05161028051611727565b610300516101208183039101527fc9a656db7243b74eeeed31e116fcfba9922eeca04031ff067a43418677db66ee60018060a01b036101805116916108cb610300519160c05160a051611727565b0361030051a2005b634e487b7160e01b600052604160045260246000fd5b01519050848061071c565b90601f198316916009850160005260206000209260005b81811061094a57509160019391856009969410610931575b505050811b01910155610732565b015160001960f88460031b161c19169055848080610923565b9293602060018192878601518155019501930161090b565b600984016000526020600020601f840160051c8101602085106109a2575b601f830160051c82018110610996575050610700565b60008155600101610980565b5080610980565b0151905083806106ba565b9250600884016000526020600020906000935b601f1984168510610a0b576001945083601f198116106109f2575b505050811b0160088201556106d2565b015160001960f88460031b161c191690558380806109e2565b818101518355602094850194600190930192909101906109c7565b909150600884016000526020600020601f840160051c810160208510610a72575b90849392915b601f830160051c82018110610a635750506106a3565b60008155859450600101610a4d565b5080610a47565b015190508380610659565b9250600784016000526020600020906000935b601f1984168510610adb576001945083601f19811610610ac2575b505050811b016007820155610671565b015160001960f88460031b161c19169055838080610ab2565b81810151835560209485019460019093019290910190610a97565b909150600784016000526020600020601f840160051c810160208510610b42575b90849392915b601f830160051c82018110610b33575050610642565b60008155859450600101610b1d565b5080610b17565b0151905083806105f9565b9250600684016000526020600020906000935b601f1984168510610bab576001945083601f19811610610b92575b505050811b016006820155610611565b015160001960f88460031b161c19169055838080610b82565b81810151835560209485019460019093019290910190610b67565b909150600684016000526020600020601f840160051c810160208510610c12575b90849392915b601f830160051c82018110610c035750506105e2565b60008155859450600101610bed565b5080610be7565b015190508380610599565b9250600584016000526020600020906000935b601f1984168510610c7b576001945083601f19811610610c62575b505050811b0160058201556105b1565b015160001960f88460031b161c19169055838080610c52565b81810151835560209485019460019093019290910190610c37565b909150600584016000526020600020601f840160051c810160208510610ce2575b90849392915b601f830160051c82018110610cd3575050610582565b60008155859450600101610cbd565b5080610cb7565b015190508380610539565b9250600484016000526020600020906000935b601f1984168510610d4b576001945083601f19811610610d32575b505050811b016004820155610551565b015160001960f88460031b161c19169055838080610d22565b81810151835560209485019460019093019290910190610d07565b909150600484016000526020600020601f840160051c810160208510610db2575b90849392915b601f830160051c82018110610da3575050610522565b60008155859450600101610d8d565b5080610d87565b0151905083806104d9565b9250600384016000526020600020906000935b601f1984168510610e1b576001945083601f19811610610e02575b505050811b0160038201556104f1565b015160001960f88460031b161c19169055838080610df2565b81810151835560209485019460019093019290910190610dd7565b909150600384016000526020600020601f840160051c810160208510610e82575b90849392915b601f830160051c82018110610e735750506104c2565b60008155859450600101610e5d565b5080610e57565b015190508380610479565b9250600284016000526020600020906000935b601f1984168510610eeb576001945083601f19811610610ed2575b505050811b016002820155610491565b015160001960f88460031b161c19169055838080610ec2565b81810151835560209485019460019093019290910190610ea7565b909150600284016000526020600020601f840160051c810160208510610f52575b90849392915b601f830160051c82018110610f43575050610462565b60008155859450600101610f2d565b5080610f27565b015190508380610419565b9250600184016000526020600020906000935b601f1984168510610fbb576001945083601f19811610610fa2575b505050811b016001820155610431565b015160001960f88460031b161c19169055838080610f92565b81810151835560209485019460019093019290910190610f77565b909150600184016000526020600020601f840160051c810160208510611022575b90849392915b601f830160051c82018110611013575050610402565b60008155859450600101610ffd565b5080610ff7565b0151905083806103bc565b9250836000526020600020906000935b601f1984168510611085576001945083601f1981161061106c575b505050811b0181556103d1565b015160001960f88460031b161c1916905583808061105f565b81810151835560209485019460019093019290910190611044565b909150836000526020600020601f840160051c8101602085106110e9575b90849392915b601f830160051c820181106110da5750506103a5565b600081558594506001016110c4565b50806110be565b60405162461bcd60e51b815260206004820152600b60248201526a139bdd081cdd195dd85c9960aa1b6044820152606490fd5b346100a45760203660031901126100a45761113c6114f4565b606061012060405161114d81611544565b82815282602082015282604082015282808201528260808201528260a08201528260c08201528260e082015282610100820152015260018060a01b0316600052600160205261135060406000206112466009604051926111ac84611544565b6111b581611581565b84526111c360018201611581565b60208501526111d460028201611581565b60408501526111e560038201611581565b60608501526111f660048201611581565b608085015261120760058201611581565b60a085015261121860068201611581565b60c085015261122960078201611581565b60e085015261123a60088201611581565b61010085015201611581565b6101208201526040519182916020835261012061133b61132561130e6112f86112e26112cc6112b66112a061128a8c6101608c519161014060208201520190611627565b60208b01518d8203601f190160408f0152611627565b60408a01518c8203601f190160608e0152611627565b60608901518b8203601f190160808d0152611627565b60808801518a8203601f190160a08c0152611627565b60a0870151898203601f190160c08b0152611627565b60c0860151888203601f190160e08a0152611627565b60e0850151878203601f1901610100890152611627565b610100840151868203601f190184880152611627565b910151838203601f1901610140850152611627565b0390f35b346100a45760003660031901126100a4576000546040516001600160a01b039091168152602090f35b346100a45760203660031901126100a4576001600160a01b0361139e6114f4565b16600052600160205260406000206113b581611581565b6113c160018301611581565b916113ce60028201611581565b906113db60038201611581565b6113e760048301611581565b6113f360058401611581565b6113ff60068501611581565b9161140c60078601611581565b9361141960088701611581565b9560090161142690611581565b96604051998a99610140808c528b0161143e91611627565b8a810360208c015261144f91611627565b89810360408b015261146091611627565b88810360608a015261147191611627565b878103608089015261148291611627565b86810360a088015261149391611627565b85810360c08701526114a491611627565b84810360e08601526114b591611627565b8381036101008501526114c791611627565b82810361012084015261135091611627565b346100a45760003660031901126100a4576020906002548152f35b600435906001600160a01b03821682036100a457565b90600182811c9216801561153a575b602083101461152457565b634e487b7160e01b600052602260045260246000fd5b91607f1691611519565b61014081019081106001600160401b038211176108d357604052565b90601f801991011681019081106001600160401b038211176108d357604052565b90604051918260008254926115958461150a565b90818452600194858116908160001461160457506001146115c1575b50506115bf92500383611560565b565b9093915060005260209081600020936000915b8183106115ec5750506115bf935082010138806115b1565b855488840185015294850194879450918301916115d4565b9150506115bf94506020925060ff191682840152151560051b82010138806115b1565b919082519283825260005b848110611653575050826000602080949584010152601f8019910116010190565b602081830181015184830182015201611632565b9181601f840112156100a4578235916001600160401b0383116100a457602083818601950101116100a457565b6002548110156116cb5760026000527f405787fa12a823e0f2b7631cc41b3ba8828b3321ca811111fa75cd3aa3bb5ace0190600090565b634e487b7160e01b600052603260045260246000fd5b9291926001600160401b0382116108d3576040519161170a601f8201601f191660200184611560565b8294818452818301116100a4578281602093846000960137010152565b908060209392818452848401376000828201840152601f01601f191601019056fea2646970667358221220e2329c5bed12196378e8b9ff3ebd70de345471d721c3983e27275eb997af7ebd64736f6c63430008140033",
  "linkReferences": {},
  "deployedLinkReferences": {}
}