{
  "_format": "hh-sol-artifact-1",
  "contractName": "TerrainChoreography",
  "sourceName": "contracts/manifest/TerrainChoreography.sol",
  "abi": [
    {
      "inputs": [],
      "stateMutability": "nonpayable",
      "type": "constructor"
    },
    {
      "anonymous": false,
      "inputs": [
        {
          "indexed": false,
          "internalType": "string",
          "name": "chant",
          "type": "string"
        },
        {
          "indexed": false,
          "internalType": "string",
          "name": "glyph",
          "type": "string"
        },
        {
          "indexed": false,
          "internalType": "string",
          "name": "action",
          "type": "string"
        }
      ],
      "name": "InvocationOrchestrated",
      "type": "event"
    },
    {
      "inputs": [
        {
          "internalType": "string",
          "name": "chant",
          "type": "string"
        }
      ],
      "name": "getInvocation",
      "outputs": [
        {
          "internalType": "string",
          "name": "",
          "type": "string"
        },
        {
          "internalType": "string",
          "name": "",
          "type": "string"
        }
      ],
      "stateMutability": "view",
      "type": "function"
    },
    {
      "inputs": [
        {
          "internalType": "string",
          "name": "",
          "type": "string"
        }
      ],
      "name": "invocations",
      "outputs": [
        {
          "internalType": "string",
          "name": "chant",
          "type": "string"
        },
        {
          "internalType": "string",
          "name": "glyph",
          "type": "string"
        },
        {
          "internalType": "string",
          "name": "action",
          "type": "string"
        }
      ],
      "stateMutability": "view",
      "type": "function"
    },
    {
      "inputs": [
        {
          "internalType": "uint256",
          "name": "",
          "type": "uint256"
        }
      ],
      "name": "keys",
      "outputs": [
        {
          "internalType": "string",
          "name": "",
          "type": "string"
        }
      ],
      "stateMutability": "view",
      "type": "function"
    },
    {
      "inputs": [
        {
          "internalType": "string",
          "name": "chant",
          "type": "string"
        },
        {
          "internalType": "string",
          "name": "glyph",
          "type": "string"
        },
        {
          "internalType": "string",
          "name": "action",
          "type": "string"
        }
      ],
      "name": "orchestrate",
      "outputs": [],
      "stateMutability": "nonpayable",
      "type": "function"
    },
    {
      "inputs": [],
      "name": "steward",
      "outputs": [
        {
          "internalType": "address",
          "name": "",
          "type": "address"
        }
      ],
      "stateMutability": "view",
      "type": "function"
    },
    {
      "inputs": [],
      "name": "totalInvocations",
      "outputs": [
        {
          "internalType": "uint256",
          "name": "",
          "type": "uint256"
        }
      ],
      "stateMutability": "view",
      "type": "function"
    }
  ],
  "bytecode": "0x6080806040523461002857600080546001600160a01b03191633179055610a40908161002e8239f35b600080fdfe6080604052600436101561001257600080fd5b60003560e01c80630cb6aaf1146107265780632bb3dcc8146107085780632ee5c65b14610649578063637eea191461062057806363a56470146101135763875621051461005e57600080fd5b3461010e57602036600319011261010e576004356001600160401b03811161010e57604061010a60206100986100fc943690600401610968565b919082855193849283378101600181520301902082516100b7816107f8565b6100c082610834565b81526100e160026100d360018501610834565b936020840194855201610834565b938491015251916040519384936040855260408501906108fd565b9083820360208501526108fd565b0390f35b600080fd5b3461010e57606036600319011261010e576004356001600160401b03811161010e57610143903690600401610968565b906024356001600160401b03811161010e57610163903690600401610968565b92906044356001600160401b03811161010e57610184903690600401610968565b60005491959092916001600160a01b031633036105ed576040516101a7816107f8565b6101b2368688610922565b81526101bf368385610922565b60208201526101cf368589610922565b604082015260405185878237602081878101600181520301902081518051906001600160401b0382116104665781906102128261020c86546107be565b86610995565b602090601f83116001146105875760009261057c575b50508160011b916000199060031b1c19161781555b602082015180516001600160401b03811161046657600183019161026b8261026585546107be565b85610995565b602090601f831160011461050e5791806002949260409694600092610503575b50508160011b916000199060031b1c19161790555b019101518051906001600160401b0382116104665781906102c58261020c86546107be565b602090601f831160011461049d57600092610492575b50508160011b916000199060031b1c19161790555b60025468010000000000000000811015610466578060016103149201600255610771565b61047c576001600160401b0385116104665761033a8561033483546107be565b83610995565b6000601f86116001146103d457926103c494926103b692877fa80bcc30452cc616f89b38aef3d311fb23dd612345f8716522b595d37307c99b9a966000916103c9575b508860011b906000198a60031b1c19161790555b6103a860405198899860608a5260608a01916109e9565b9187830360208901526109e9565b9184830360408601526109e9565b0390a1005b90508901358b61037d565b601f198616908260005260206000209160005b81811061044e5750927fa80bcc30452cc616f89b38aef3d311fb23dd612345f8716522b595d37307c99b9995926103c4979592896103b69610610434575b5050600188811b019055610391565b8a013560001960038b901b60f8161c191690558a80610425565b9192602060018192868d0135815501940192016103e7565b634e487b7160e01b600052604160045260246000fd5b634e487b7160e01b600052600060045260246000fd5b0151905089806102db565b6000858152602081209350601f198516905b8181106104eb57509084600195949392106104d2575b505050811b0190556102f0565b015160001960f88460031b161c191690558980806104c5565b929360206001819287860151815501950193016104af565b015190508d8061028b565b90601f198316918460005260206000209260005b818110610564575092600192859260409896600298961061054b575b505050811b0190556102a0565b015160001960f88460031b161c191690558d808061053e565b92936020600181928786015181550195019301610522565b015190508a80610228565b6000858152602081209350601f198516905b8181106105d557509084600195949392106105bc575b505050811b01815561023d565b015160001960f88460031b161c191690558a80806105af565b92936020600181928786015181550195019301610599565b60405162461bcd60e51b815260206004820152600b60248201526a139bdd081cdd195dd85c9960aa1b6044820152606490fd5b3461010e57600036600319011261010e576000546040516001600160a01b039091168152602090f35b3461010e57602036600319011261010e576004356001600160401b03811161010e573660238201121561010e576106a560206106926106ec933690602481600401359101610922565b81604051938285809451938492016108da565b8101600181520301902061010a6106bb82610834565b916106fa6106d760026106d060018501610834565b9301610834565b916040519586956060875260608701906108fd565b9085820360208701526108fd565b9083820360408501526108fd565b3461010e57600036600319011261010e576020600254604051908152f35b3461010e57602036600319011261010e5760043560025481101561010e5761074d90610771565b61047c5761075d61010a91610834565b6040519182916020835260208301906108fd565b6002548110156107a85760026000527f405787fa12a823e0f2b7631cc41b3ba8828b3321ca811111fa75cd3aa3bb5ace0190600090565b634e487b7160e01b600052603260045260246000fd5b90600182811c921680156107ee575b60208310146107d857565b634e487b7160e01b600052602260045260246000fd5b91607f16916107cd565b606081019081106001600160401b0382111761046657604052565b90601f801991011681019081106001600160401b0382111761046657604052565b9060405191826000825492610848846107be565b9081845260019485811690816000146108b75750600114610874575b505061087292500383610813565b565b9093915060005260209081600020936000915b81831061089f57505061087293508201013880610864565b85548884018501529485019487945091830191610887565b91505061087294506020925060ff191682840152151560051b8201013880610864565b60005b8381106108ed5750506000910152565b81810151838201526020016108dd565b90602091610916815180928185528580860191016108da565b601f01601f1916010190565b9291926001600160401b038211610466576040519161094b601f8201601f191660200184610813565b82948184528183011161010e578281602093846000960137010152565b9181601f8401121561010e578235916001600160401b03831161010e576020838186019501011161010e57565b90601f81116109a357505050565b600091825260208220906020601f850160051c830194106109df575b601f0160051c01915b8281106109d457505050565b8181556001016109c8565b90925082906109bf565b908060209392818452848401376000828201840152601f01601f191601019056fea2646970667358221220c385553ee1eb2cdac4c98fffe68aa455ed8e98ef604bed650f79f538004cb81464736f6c63430008140033",
  "linkReferences": {},
  "deployedLinkReferences": {}
}