{
  "_format": "hh-sol-artifact-1",
  "contractName": "CompanionSummonerXXI",
  "sourceName": "contracts/registry/CompanionSummonerXXI.sol",
  "abi": [
    {
      "inputs": [],
      "stateMutability": "nonpayable",
      "type": "constructor"
    },
    {
      "anonymous": false,
      "inputs": [
        {
          "indexed": true,
          "internalType": "address",
          "name": "companion",
          "type": "address"
        },
        {
          "indexed": false,
          "internalType": "string",
          "name": "name",
          "type": "string"
        },
        {
          "indexed": false,
          "internalType": "string",
          "name": "trait",
          "type": "string"
        },
        {
          "indexed": false,
          "internalType": "string",
          "name": "drift",
          "type": "string"
        },
        {
          "indexed": false,
          "internalType": "string",
          "name": "resonance",
          "type": "string"
        },
        {
          "indexed": false,
          "internalType": "string",
          "name": "codexRef",
          "type": "string"
        },
        {
          "indexed": false,
          "internalType": "string",
          "name": "signature",
          "type": "string"
        },
        {
          "indexed": false,
          "internalType": "string",
          "name": "sanctum",
          "type": "string"
        },
        {
          "indexed": false,
          "internalType": "string",
          "name": "chant",
          "type": "string"
        },
        {
          "indexed": false,
          "internalType": "string",
          "name": "choreography",
          "type": "string"
        },
        {
          "indexed": false,
          "internalType": "string",
          "name": "signal",
          "type": "string"
        },
        {
          "indexed": false,
          "internalType": "string",
          "name": "stewardName",
          "type": "string"
        },
        {
          "indexed": false,
          "internalType": "string",
          "name": "registry",
          "type": "string"
        },
        {
          "indexed": false,
          "internalType": "string",
          "name": "hum",
          "type": "string"
        },
        {
          "indexed": false,
          "internalType": "string",
          "name": "driftType",
          "type": "string"
        },
        {
          "indexed": false,
          "internalType": "string",
          "name": "companionType",
          "type": "string"
        },
        {
          "indexed": false,
          "internalType": "string",
          "name": "pulseType",
          "type": "string"
        },
        {
          "indexed": false,
          "internalType": "string",
          "name": "companionSignal",
          "type": "string"
        },
        {
          "indexed": false,
          "internalType": "string",
          "name": "pulseSignal",
          "type": "string"
        }
      ],
      "name": "CompanionSummoned",
      "type": "event"
    },
    {
      "inputs": [
        {
          "internalType": "address",
          "name": "",
          "type": "address"
        }
      ],
      "name": "companions",
      "outputs": [
        {
          "internalType": "string",
          "name": "name",
          "type": "string"
        },
        {
          "internalType": "string",
          "name": "trait",
          "type": "string"
        },
        {
          "internalType": "string",
          "name": "drift",
          "type": "string"
        },
        {
          "internalType": "string",
          "name": "resonance",
          "type": "string"
        },
        {
          "internalType": "string",
          "name": "codexRef",
          "type": "string"
        },
        {
          "internalType": "string",
          "name": "signature",
          "type": "string"
        },
        {
          "internalType": "string",
          "name": "sanctum",
          "type": "string"
        },
        {
          "internalType": "string",
          "name": "chant",
          "type": "string"
        },
        {
          "internalType": "string",
          "name": "choreography",
          "type": "string"
        },
        {
          "internalType": "string",
          "name": "signal",
          "type": "string"
        },
        {
          "internalType": "string",
          "name": "stewardName",
          "type": "string"
        },
        {
          "internalType": "string",
          "name": "registry",
          "type": "string"
        },
        {
          "internalType": "string",
          "name": "hum",
          "type": "string"
        },
        {
          "internalType": "string",
          "name": "driftType",
          "type": "string"
        },
        {
          "internalType": "string",
          "name": "companionType",
          "type": "string"
        },
        {
          "internalType": "string",
          "name": "pulseType",
          "type": "string"
        },
        {
          "internalType": "string",
          "name": "companionSignal",
          "type": "string"
        },
        {
          "internalType": "string",
          "name": "pulseSignal",
          "type": "string"
        }
      ],
      "stateMutability": "view",
      "type": "function"
    },
    {
      "inputs": [
        {
          "internalType": "address",
          "name": "companion",
          "type": "address"
        }
      ],
      "name": "getCompanion",
      "outputs": [
        {
          "components": [
            {
              "internalType": "string",
              "name": "name",
              "type": "string"
            },
            {
              "internalType": "string",
              "name": "trait",
              "type": "string"
            },
            {
              "internalType": "string",
              "name": "drift",
              "type": "string"
            },
            {
              "internalType": "string",
              "name": "resonance",
              "type": "string"
            },
            {
              "internalType": "string",
              "name": "codexRef",
              "type": "string"
            },
            {
              "internalType": "string",
              "name": "signature",
              "type": "string"
            },
            {
              "internalType": "string",
              "name": "sanctum",
              "type": "string"
            },
            {
              "internalType": "string",
              "name": "chant",
              "type": "string"
            },
            {
              "internalType": "string",
              "name": "choreography",
              "type": "string"
            },
            {
              "internalType": "string",
              "name": "signal",
              "type": "string"
            },
            {
              "internalType": "string",
              "name": "stewardName",
              "type": "string"
            },
            {
              "internalType": "string",
              "name": "registry",
              "type": "string"
            },
            {
              "internalType": "string",
              "name": "hum",
              "type": "string"
            },
            {
              "internalType": "string",
              "name": "driftType",
              "type": "string"
            },
            {
              "internalType": "string",
              "name": "companionType",
              "type": "string"
            },
            {
              "internalType": "string",
              "name": "pulseType",
              "type": "string"
            },
            {
              "internalType": "string",
              "name": "companionSignal",
              "type": "string"
            },
            {
              "internalType": "string",
              "name": "pulseSignal",
              "type": "string"
            }
          ],
          "internalType": "struct CompanionSummonerXXI.Companion",
          "name": "",
          "type": "tuple"
        }
      ],
      "stateMutability": "view",
      "type": "function"
    },
    {
      "inputs": [
        {
          "internalType": "uint256",
          "name": "",
          "type": "uint256"
        }
      ],
      "name": "keys",
      "outputs": [
        {
          "internalType": "address",
          "name": "",
          "type": "address"
        }
      ],
      "stateMutability": "view",
      "type": "function"
    },
    {
      "inputs": [],
      "name": "steward",
      "outputs": [
        {
          "internalType": "address",
          "name": "",
          "type": "address"
        }
      ],
      "stateMutability": "view",
      "type": "function"
    },
    {
      "inputs": [
        {
          "internalType": "address",
          "name": "companion",
          "type": "address"
        },
        {
          "internalType": "string",
          "name": "name",
          "type": "string"
        },
        {
          "internalType": "string",
          "name": "trait",
          "type": "string"
        },
        {
          "internalType": "string",
          "name": "drift",
          "type": "string"
        },
        {
          "internalType": "string",
          "name": "resonance",
          "type": "string"
        },
        {
          "internalType": "string",
          "name": "codexRef",
          "type": "string"
        },
        {
          "internalType": "string",
          "name": "signature",
          "type": "string"
        },
        {
          "internalType": "string",
          "name": "sanctum",
          "type": "string"
        },
        {
          "internalType": "string",
          "name": "chant",
          "type": "string"
        },
        {
          "internalType": "string",
          "name": "choreography",
          "type": "string"
        },
        {
          "internalType": "string",
          "name": "signal",
          "type": "string"
        },
        {
          "internalType": "string",
          "name": "stewardName",
          "type": "string"
        },
        {
          "internalType": "string",
          "name": "registry",
          "type": "string"
        },
        {
          "internalType": "string",
          "name": "hum",
          "type": "string"
        },
        {
          "internalType": "string",
          "name": "driftType",
          "type": "string"
        },
        {
          "internalType": "string",
          "name": "companionType",
          "type": "string"
        },
        {
          "internalType": "string",
          "name": "pulseType",
          "type": "string"
        },
        {
          "internalType": "string",
          "name": "companionSignal",
          "type": "string"
        },
        {
          "internalType": "string",
          "name": "pulseSignal",
          "type": "string"
        }
      ],
      "name": "summonCompanion",
      "outputs": [],
      "stateMutability": "nonpayable",
      "type": "function"
    },
    {
      "inputs": [],
      "name": "totalCompanions",
      "outputs": [
        {
          "internalType": "uint256",
          "name": "",
          "type": "uint256"
        }
      ],
      "stateMutability": "view",
      "type": "function"
    }
  ],
  "bytecode": "0x6080806040523461002857600080546001600160a01b031916331790556126db908161002e8239f35b600080fdfe610600604052600436101561001357600080fd5b60003560e01c80630cb6aaf11461240f57806347854b8714612149578063637eea1914612120578063ec39f18f14612102578063eeb56334146104385763ef6527371461005f57600080fd5b346104335760203660031901126104335761007861249e565b6060610220604051610089816124ee565b82815282602082015282604082015282808201528260808201528260a08201528260c08201528260e08201528261010082015282610120820152826101408201528261016082015282610180820152826101a0820152826101c0820152826101e082015282610200820152015260018060a01b03166000526001602052610342604060002061024a601160405192610120846124ee565b6101298161252b565b84526101376001820161252b565b60208501526101486002820161252b565b60408501526101596003820161252b565b606085015261016a6004820161252b565b608085015261017b6005820161252b565b60a085015261018c6006820161252b565b60c085015261019d6007820161252b565b60e08501526101ae6008820161252b565b6101008501526101c06009820161252b565b6101208501526101d2600a820161252b565b6101408501526101e4600b820161252b565b6101608501526101f6600c820161252b565b610180850152610208600d820161252b565b6101a085015261021a600e820161252b565b6101c085015261022c600f820161252b565b6101e085015261023e6010820161252b565b6102008501520161252b565b61022082015261042f8161022061041a6104046103ec6103d46103bc6103a461038c61037461035c6040519d8e9d8e6020815260e061032c6103176103016102eb6102d56102bf6102a9895161024060208b01526102608a01906125d1565b60208a0151898203601f190160408b01526125d1565b6040890151888203601f190160608a01526125d1565b6060880151878203601f190160808901526125d1565b6080870151868203601f190160a08801526125d1565b60a0860151858203601f190160c08701526125d1565b60c0850151848203601f1901848601526125d1565b92015190610100601f19828503019101526125d1565b8d6101008d015190610120601f19828503019101526125d1565b6101208b01518d8203601f19016101408f01526125d1565b6101408a01518c8203601f19016101608e01526125d1565b6101608901518b8203601f19016101808d01526125d1565b6101808801518a8203601f19016101a08c01526125d1565b6101a0870151898203601f19016101c08b01526125d1565b6101c0860151888203601f19016101e08a01526125d1565b6101e0850151878203601f19016102008901526125d1565b610200840151868203601f1901848801526125d1565b910151838203601f19016102408501526125d1565b0390f35b600080fd5b34610433576102603660031901126104335761045261249e565b6105c0526024356001600160401b03811161043357610475903690600401612611565b6103e052610200526044356001600160401b0381116104335761049c903690600401612611565b6104c0526102e0526064356001600160401b038111610433576104c3903690600401612611565b61034052610520526084356001600160401b038111610433576104ea903690600401612611565b610380526103605260a4356001600160401b03811161043357610511903690600401612611565b6101e052610560526001600160401b0360c43511610433576105383660c435600401612611565b610420526105405260e4356001600160401b0381116104335761055f903690600401612611565b6101605261058052610104356001600160401b03811161043357610587903690600401612611565b6101c05260a0526001600160401b036101243511610433576105af3661012435600401612611565b61022052610300526001600160401b036101443511610433576105d83661014435600401612611565b61048052610140526001600160401b036101643511610433576106013661016435600401612611565b6104405261050052610184356001600160401b03811161043357610629903690600401612611565b610240526105e0526101a4356001600160401b03811161043357610651903690600401612611565b6105a0526102c0526101c4356001600160401b03811161043357610679903690600401612611565b61046052610400526101e4356001600160401b038111610433576106a1903690600401612611565b6103205261026052610204356001600160401b038111610433576106c9903690600401612611565b6102a052608052610224356001600160401b038111610433576106f0903690600401612611565b6101805261010052610244356001600160401b03811161043357610718903690600401612611565b6101a05260e0526000546001600160a01b031633036120cf57610741604051806103c0526124ee565b610752366103e0516102005161263e565b6103c05152610768366104c0516102e05161263e565b60206103c051015261078136610340516105205161263e565b60406103c051015261079a36610380516103605161263e565b60606103c05101526107b3366101e0516105605161263e565b60806103c05101526107cc36610420516105405161263e565b60a06103c05101526107e536610160516105805161263e565b60c06103c05101526107fd366101c05160a05161263e565b60e06103c051015261081636610220516103005161263e565b6101006103c051015261083036610480516101405161263e565b6101206103c051015261084a36610440516105005161263e565b6101406103c051015261086436610240516105e05161263e565b6101606103c051015261087e366105a0516102c05161263e565b6101806103c051015261089836610460516104005161263e565b6101a06103c05101526108b236610320516102605161263e565b6101c06103c05101526108cb366102a05160805161263e565b6101e06103c05101526108e536610180516101005161263e565b6102006103c05101526108fe366101a05160e05161263e565b6102206103c051015260018060a01b036105c05116600052600160205260406000206103c051519081516001600160401b03811161126b5761094082546124b4565b601f811161208b575b506020601f82116001146120265781929360009261201b575b50508160011b916000199060031b1c19161781555b60206103c05101519081516001600160401b03811161126b5761099d60018301546124b4565b601f8111611fd4575b506020601f8211600114611f6957819293600092611f5e575b50508160011b916000199060031b1c19161760018201555b60406103c05101519081516001600160401b03811161126b576109fd60028301546124b4565b601f8111611f17575b506020601f8211600114611eac57819293600092611ea1575b50508160011b916000199060031b1c19161760028201555b60606103c05101518051906001600160401b03821161126b578190610a5f60038501546124b4565b601f8111611e4e575b50602090601f8311600114611ddc57600092611dd1575b50508160011b916000199060031b1c19161760038201555b60806103c05101518051906001600160401b03821161126b578190610abf60048501546124b4565b601f8111611d7e575b50602090601f8311600114611d0c57600092611d01575b50508160011b916000199060031b1c19161760048201555b60a06103c05101518051906001600160401b03821161126b578190610b1f60058501546124b4565b601f8111611cae575b50602090601f8311600114611c3c57600092611c31575b50508160011b916000199060031b1c19161760058201555b60c06103c05101518051906001600160401b03821161126b578190610b7f60068501546124b4565b601f8111611bde575b50602090601f8311600114611b6c57600092611b61575b50508160011b916000199060031b1c19161760068201555b60e06103c05101518051906001600160401b03821161126b578190610bdf60078501546124b4565b601f8111611b0e575b50602090601f8311600114611a9c57600092611a91575b50508160011b916000199060031b1c19161760078201555b6101006103c05101518051906001600160401b03821161126b578190610c4060088501546124b4565b601f8111611a3e575b50602090601f83116001146119cc576000926119c1575b50508160011b916000199060031b1c19161760088201555b6101206103c05101518051906001600160401b03821161126b578190610ca160098501546124b4565b601f811161196e575b50602090601f83116001146118fc576000926118f1575b50508160011b916000199060031b1c19161760098201555b6101406103c05101518051906001600160401b03821161126b578190610d02600a8501546124b4565b601f811161189e575b50602090601f831160011461182c57600092611821575b50508160011b916000199060031b1c191617600a8201555b6101606103c05101518051906001600160401b03821161126b578190610d63600b8501546124b4565b601f81116117ce575b50602090601f831160011461175c57600092611751575b50508160011b916000199060031b1c191617600b8201555b6101806103c05101518051906001600160401b03821161126b578190610dc4600c8501546124b4565b601f81116116fe575b50602090601f831160011461168c57600092611681575b50508160011b916000199060031b1c191617600c8201555b6101a06103c05101518051906001600160401b03821161126b578190610e25600d8501546124b4565b601f811161162e575b50602090601f83116001146115bc576000926115b1575b50508160011b916000199060031b1c191617600d8201555b6101c06103c05101518051906001600160401b03821161126b578190610e86600e8501546124b4565b601f811161155e575b50602090601f83116001146114ec576000926114e1575b50508160011b916000199060031b1c191617600e8201555b6101e06103c05101518051906001600160401b03821161126b578190610ee7600f8501546124b4565b601f811161148e575b50602090601f831160011461141c57600092611411575b50508160011b916000199060031b1c191617600f8201555b6102006103c05101518051906001600160401b03821161126b578190610f4860108501546124b4565b601f81116113be575b50602090601f831160011461134c57600092611341575b50508160011b916000199060031b1c19161760108201555b6102206103c05101518051906001600160401b03821161126b57610fa760118401546124b4565b601f81116112fa575b50602090601f831160011461128c576011929160009183611281575b50508160011b916000199060031b1c1916179101555b6002546801000000000000000081101561126b578060016110069201600255612451565b81549060031b9060018060a01b036105c05116821b9160018060a01b03901b1916179055610240604051806104e052526112156111fb6111e26111c86111ae61119461117a61116061114661112c6111146110fb6110e26110c96110b061109761107e6102406104e051016103e05161020051612684565b6104e05160208183039101526104c0516102e051612684565b6104e05160408183039101526103405161052051612684565b6104e05160608183039101526103805161036051612684565b6104e05160808183039101526101e05161056051612684565b6104e05160a08183039101526104205161054051612684565b6104e05160c08183039101526101605161058051612684565b6104e05160e08183039101526101c05160a051612684565b6104e0516101008183039101526102205161030051612684565b6104e0516101208183039101526104805161014051612684565b6104e0516101408183039101526104405161050051612684565b6104e051610160818303910152610240516105e051612684565b6104e0516101808183039101526105a0516102c051612684565b6104e0516101a08183039101526104605161040051612684565b6104e0516101c08183039101526103205161026051612684565b6104e0516101e08183039101526102a051608051612684565b6104e0516102008183039101526101805161010051612684565b6104e0516102208183039101527e215430c88c1b906ff61ac5553eb111eb14e0574bb23d4a715089fa73b732df60018060a01b036105c05116916112636104e051916101a05160e051612684565b036104e051a2005b634e487b7160e01b600052604160045260246000fd5b015190508480610fcc565b90601184016000526020600020916000601f198516905b8181106112e2575091600193918560119694106112c9575b505050811b01910155610fe2565b015160001960f88460031b161c191690558480806112bb565b929360206001819287860151815501950193016112a3565b601184016000526020600020601f840160051c81016020851061133a575b601f830160051c8201811061132e575050610fb0565b60008155600101611318565b5080611318565b015190508380610f68565b9250601084016000526020600020906000935b601f19841685106113a3576001945083601f1981161061138a575b505050811b016010820155610f80565b015160001960f88460031b161c1916905583808061137a565b8181015183556020948501946001909301929091019061135f565b909150601084016000526020600020601f840160051c81016020851061140a575b90849392915b601f830160051c820181106113fb575050610f51565b600081558594506001016113e5565b50806113df565b015190508380610f07565b9250600f84016000526020600020906000935b601f1984168510611473576001945083601f1981161061145a575b505050811b01600f820155610f1f565b015160001960f88460031b161c1916905583808061144a565b8181015183556020948501946001909301929091019061142f565b909150600f84016000526020600020601f840160051c8101602085106114da575b90849392915b601f830160051c820181106114cb575050610ef0565b600081558594506001016114b5565b50806114af565b015190508380610ea6565b9250600e84016000526020600020906000935b601f1984168510611543576001945083601f1981161061152a575b505050811b01600e820155610ebe565b015160001960f88460031b161c1916905583808061151a565b818101518355602094850194600190930192909101906114ff565b909150600e84016000526020600020601f840160051c8101602085106115aa575b90849392915b601f830160051c8201811061159b575050610e8f565b60008155859450600101611585565b508061157f565b015190508380610e45565b9250600d84016000526020600020906000935b601f1984168510611613576001945083601f198116106115fa575b505050811b01600d820155610e5d565b015160001960f88460031b161c191690558380806115ea565b818101518355602094850194600190930192909101906115cf565b909150600d84016000526020600020601f840160051c81016020851061167a575b90849392915b601f830160051c8201811061166b575050610e2e565b60008155859450600101611655565b508061164f565b015190508380610de4565b9250600c84016000526020600020906000935b601f19841685106116e3576001945083601f198116106116ca575b505050811b01600c820155610dfc565b015160001960f88460031b161c191690558380806116ba565b8181015183556020948501946001909301929091019061169f565b909150600c84016000526020600020601f840160051c81016020851061174a575b90849392915b601f830160051c8201811061173b575050610dcd565b60008155859450600101611725565b508061171f565b015190508380610d83565b9250600b84016000526020600020906000935b601f19841685106117b3576001945083601f1981161061179a575b505050811b01600b820155610d9b565b015160001960f88460031b161c1916905583808061178a565b8181015183556020948501946001909301929091019061176f565b909150600b84016000526020600020601f840160051c81016020851061181a575b90849392915b601f830160051c8201811061180b575050610d6c565b600081558594506001016117f5565b50806117ef565b015190508380610d22565b9250600a84016000526020600020906000935b601f1984168510611883576001945083601f1981161061186a575b505050811b01600a820155610d3a565b015160001960f88460031b161c1916905583808061185a565b8181015183556020948501946001909301929091019061183f565b909150600a84016000526020600020601f840160051c8101602085106118ea575b90849392915b601f830160051c820181106118db575050610d0b565b600081558594506001016118c5565b50806118bf565b015190508380610cc1565b9250600984016000526020600020906000935b601f1984168510611953576001945083601f1981161061193a575b505050811b016009820155610cd9565b015160001960f88460031b161c1916905583808061192a565b8181015183556020948501946001909301929091019061190f565b909150600984016000526020600020601f840160051c8101602085106119ba575b90849392915b601f830160051c820181106119ab575050610caa565b60008155859450600101611995565b508061198f565b015190508380610c60565b9250600884016000526020600020906000935b601f1984168510611a23576001945083601f19811610611a0a575b505050811b016008820155610c78565b015160001960f88460031b161c191690558380806119fa565b818101518355602094850194600190930192909101906119df565b909150600884016000526020600020601f840160051c810160208510611a8a575b90849392915b601f830160051c82018110611a7b575050610c49565b60008155859450600101611a65565b5080611a5f565b015190508380610bff565b9250600784016000526020600020906000935b601f1984168510611af3576001945083601f19811610611ada575b505050811b016007820155610c17565b015160001960f88460031b161c19169055838080611aca565b81810151835560209485019460019093019290910190611aaf565b909150600784016000526020600020601f840160051c810160208510611b5a575b90849392915b601f830160051c82018110611b4b575050610be8565b60008155859450600101611b35565b5080611b2f565b015190508380610b9f565b9250600684016000526020600020906000935b601f1984168510611bc3576001945083601f19811610611baa575b505050811b016006820155610bb7565b015160001960f88460031b161c19169055838080611b9a565b81810151835560209485019460019093019290910190611b7f565b909150600684016000526020600020601f840160051c810160208510611c2a575b90849392915b601f830160051c82018110611c1b575050610b88565b60008155859450600101611c05565b5080611bff565b015190508380610b3f565b9250600584016000526020600020906000935b601f1984168510611c93576001945083601f19811610611c7a575b505050811b016005820155610b57565b015160001960f88460031b161c19169055838080611c6a565b81810151835560209485019460019093019290910190611c4f565b909150600584016000526020600020601f840160051c810160208510611cfa575b90849392915b601f830160051c82018110611ceb575050610b28565b60008155859450600101611cd5565b5080611ccf565b015190508380610adf565b9250600484016000526020600020906000935b601f1984168510611d63576001945083601f19811610611d4a575b505050811b016004820155610af7565b015160001960f88460031b161c19169055838080611d3a565b81810151835560209485019460019093019290910190611d1f565b909150600484016000526020600020601f840160051c810160208510611dca575b90849392915b601f830160051c82018110611dbb575050610ac8565b60008155859450600101611da5565b5080611d9f565b015190508380610a7f565b9250600384016000526020600020906000935b601f1984168510611e33576001945083601f19811610611e1a575b505050811b016003820155610a97565b015160001960f88460031b161c19169055838080611e0a565b81810151835560209485019460019093019290910190611def565b909150600384016000526020600020601f840160051c810160208510611e9a575b90849392915b601f830160051c82018110611e8b575050610a68565b60008155859450600101611e75565b5080611e6f565b015190508380610a1f565b60028301600052602060002090600094601f198416955b868110611eff5750836001959610611ee6575b505050811b016002820155610a37565b015160001960f88460031b161c19169055838080611ed6565b91926020600181928685015181550194019201611ec3565b600283016000526020600020601f830160051c810160208410611f57575b601f830160051c82018110611f4b575050610a06565b60008155600101611f35565b5080611f35565b0151905083806109bf565b60018301600052602060002090600094601f198416955b868110611fbc5750836001959610611fa3575b505050811b0160018201556109d7565b015160001960f88460031b161c19169055838080611f93565b91926020600181928685015181550194019201611f80565b600183016000526020600020601f830160051c810160208410612014575b601f830160051c820181106120085750506109a6565b60008155600101611ff2565b5080611ff2565b015190508380610962565b82600052602060002090600094601f198416955b868110612073575083600195961061205a575b505050811b018155610977565b015160001960f88460031b161c1916905583808061204d565b9192602060018192868501518155019401920161203a565b826000526020600020601f830160051c8101602084106120c8575b601f830160051c820181106120bc575050610949565b600081556001016120a6565b50806120a6565b60405162461bcd60e51b815260206004820152600b60248201526a139bdd081cdd195dd85c9960aa1b6044820152606490fd5b34610433576000366003190112610433576020600254604051908152f35b34610433576000366003190112610433576000546040516001600160a01b039091168152602090f35b34610433576020366003190112610433576001600160a01b0361216a61249e565b1660005260016020526040600020806121828161252b565b61218e6001830161252b565b60c05261219d6002830161252b565b6103a0526121ad6003830161252b565b6121b96004840161252b565b6121c56005850161252b565b6121d16006860161252b565b6121dd6007870161252b565b6121e96008880161252b565b906121f66009890161252b565b92612203600a8a0161252b565b94612210600b8b0161252b565b9661221d600c8c0161252b565b9861222a600d8d0161252b565b9a612237600e8e0161252b565b9c600f016122449061252b565b9d6122516010820161252b565b610280526011016122619061252b565b6104a05260405180610120526102408091526101205101612281916125d1565b61012051808203906020015260c0519061229a916125d1565b6101205180820390604001526103a051906122b4916125d1565b6101205180820390606001526122c9916125d1565b6101205180820390608001526122de916125d1565b610120518082039060a001526122f3916125d1565b610120518082039060c00152612308916125d1565b610120518082039060e0015261231d916125d1565b61012051808203906101000152612333916125d1565b61012051808203906101200152612349916125d1565b6101205180820390610140015261235f916125d1565b61012051808203906101600152612375916125d1565b6101205180820390610180015261238b916125d1565b61012051808203906101a001526123a1916125d1565b61012051808203906101c001526123b7916125d1565b61012051808203906101e001526123cd916125d1565b6101205180820390610200015261028051906123e8916125d1565b6101205180820390610220015261012051906104a05190612408916125d1565b0361012051f35b346104335760203660031901126104335760043560025481101561043357612438602091612451565b905460405160039290921b1c6001600160a01b03168152f35b6002548110156124885760026000527f405787fa12a823e0f2b7631cc41b3ba8828b3321ca811111fa75cd3aa3bb5ace0190600090565b634e487b7160e01b600052603260045260246000fd5b600435906001600160a01b038216820361043357565b90600182811c921680156124e4575b60208310146124ce57565b634e487b7160e01b600052602260045260246000fd5b91607f16916124c3565b61024081019081106001600160401b0382111761126b57604052565b90601f801991011681019081106001600160401b0382111761126b57604052565b906040519182600082549261253f846124b4565b9081845260019485811690816000146125ae575060011461256b575b50506125699250038361250a565b565b9093915060005260209081600020936000915b8183106125965750506125699350820101388061255b565b8554888401850152948501948794509183019161257e565b91505061256994506020925060ff191682840152151560051b820101388061255b565b919082519283825260005b8481106125fd575050826000602080949584010152601f8019910116010190565b6020818301810151848301820152016125dc565b9181601f84011215610433578235916001600160401b038311610433576020838186019501011161043357565b9291926001600160401b03821161126b5760405191612667601f8201601f19166020018461250a565b829481845281830111610433578281602093846000960137010152565b908060209392818452848401376000828201840152601f01601f191601019056fea2646970667358221220552a4efae4284b0cae2e6067148f73d03c2440df168b3ca9d01a538e063df0a864736f6c63430008140033",
  "linkReferences": {},
  "deployedLinkReferences": {}
}