{
  "_format": "hh-sol-artifact-1",
  "contractName": "TerrainChoreographyV2",
  "sourceName": "contracts/manifest/TerrainChoreographyV2.sol",
  "abi": [
    {
      "inputs": [],
      "stateMutability": "nonpayable",
      "type": "constructor"
    },
    {
      "anonymous": false,
      "inputs": [
        {
          "indexed": false,
          "internalType": "string",
          "name": "chant",
          "type": "string"
        },
        {
          "indexed": false,
          "internalType": "string",
          "name": "glyph",
          "type": "string"
        },
        {
          "indexed": false,
          "internalType": "string",
          "name": "sanctum",
          "type": "string"
        },
        {
          "indexed": false,
          "internalType": "string",
          "name": "pulse",
          "type": "string"
        },
        {
          "indexed": false,
          "internalType": "string",
          "name": "choreography",
          "type": "string"
        }
      ],
      "name": "InvocationOrchestrated",
      "type": "event"
    },
    {
      "inputs": [
        {
          "internalType": "string",
          "name": "chant",
          "type": "string"
        }
      ],
      "name": "getInvocation",
      "outputs": [
        {
          "internalType": "string",
          "name": "",
          "type": "string"
        },
        {
          "internalType": "string",
          "name": "",
          "type": "string"
        },
        {
          "internalType": "string",
          "name": "",
          "type": "string"
        },
        {
          "internalType": "string",
          "name": "",
          "type": "string"
        }
      ],
      "stateMutability": "view",
      "type": "function"
    },
    {
      "inputs": [
        {
          "internalType": "string",
          "name": "",
          "type": "string"
        }
      ],
      "name": "invocations",
      "outputs": [
        {
          "internalType": "string",
          "name": "chant",
          "type": "string"
        },
        {
          "internalType": "string",
          "name": "glyph",
          "type": "string"
        },
        {
          "internalType": "string",
          "name": "sanctum",
          "type": "string"
        },
        {
          "internalType": "string",
          "name": "pulse",
          "type": "string"
        },
        {
          "internalType": "string",
          "name": "choreography",
          "type": "string"
        }
      ],
      "stateMutability": "view",
      "type": "function"
    },
    {
      "inputs": [
        {
          "internalType": "uint256",
          "name": "",
          "type": "uint256"
        }
      ],
      "name": "keys",
      "outputs": [
        {
          "internalType": "string",
          "name": "",
          "type": "string"
        }
      ],
      "stateMutability": "view",
      "type": "function"
    },
    {
      "inputs": [
        {
          "internalType": "string",
          "name": "chant",
          "type": "string"
        },
        {
          "internalType": "string",
          "name": "glyph",
          "type": "string"
        },
        {
          "internalType": "string",
          "name": "sanctum",
          "type": "string"
        },
        {
          "internalType": "string",
          "name": "pulse",
          "type": "string"
        },
        {
          "internalType": "string",
          "name": "choreography",
          "type": "string"
        }
      ],
      "name": "orchestrate",
      "outputs": [],
      "stateMutability": "nonpayable",
      "type": "function"
    },
    {
      "inputs": [],
      "name": "steward",
      "outputs": [
        {
          "internalType": "address",
          "name": "",
          "type": "address"
        }
      ],
      "stateMutability": "view",
      "type": "function"
    },
    {
      "inputs": [],
      "name": "totalInvocations",
      "outputs": [
        {
          "internalType": "uint256",
          "name": "",
          "type": "uint256"
        }
      ],
      "stateMutability": "view",
      "type": "function"
    }
  ],
  "bytecode": "0x6080806040523461002857600080546001600160a01b03191633179055610cf1908161002e8239f35b600080fdfe6080604052600436101561001257600080fd5b60003560e01c80630cb6aaf1146109d75780632bb3dcc8146109b95780632ee5c65b146108bf57806355a01e2a1461018c578063637eea19146101635763875621051461005e57600080fd5b3461015e57602036600319011261015e576004356001600160401b03811161015e576020610093610130923690600401610c19565b91908260405193849283378101600181520301902061015a608061014c604051936100bd85610aa9565b6100c681610ae5565b855261013e6100d760018301610ae5565b602087019081526100ea60028401610ae5565b9660408101978852610111600461010360038701610ae5565b956060840196875201610ae5565b9586910152519551915191604051978897608089526080890190610bae565b908782036020890152610bae565b908582036040870152610bae565b908382036060850152610bae565b0390f35b600080fd5b3461015e57600036600319011261015e576000546040516001600160a01b039091168152602090f35b3461015e5760a036600319011261015e576004356001600160401b03811161015e576101bc903690600401610c19565b6024356001600160401b03811161015e576101db903690600401610c19565b906044356001600160401b03811161015e576101fb903690600401610c19565b906064356001600160401b03811161015e5761021b903690600401610c19565b9190926084356001600160401b03811161015e5761023d903690600401610c19565b60005491979096916001600160a01b0316330361088c5760405161026081610aa9565b61026b368b8d610bd3565b8152610278368385610bd3565b6020820152610288368587610bd3565b6040820152610298368789610bd3565b60608201526102a836898b610bd3565b60808201526040518a8c82376020818c810160018152030190209080518051906001600160401b0382116106005781906102ec826102e68754610a6f565b87610c46565b602090601f831160011461082057600092610815575b50508160011b916000199060031b1c19161782555b60208101518051906001600160401b038211610600578190610349826103406001880154610a6f565b60018801610c46565b602090601f83116001146107a357600092610798575b50508160011b916000199060031b1c19161760018301555b60408101518051906001600160401b0382116106005781906103a9826103a06002880154610a6f565b60028801610c46565b602090601f83116001146107265760009261071b575b50508160011b916000199060031b1c19161760028301555b60608101518051906001600160401b03821161060057610407826103fe6003870154610a6f565b60038701610c46565b602090601f83116001146106a85760809392916000918361069d575b50508160011b916000199060031b1c19161760038401555b0151908151906001600160401b03821161060057600482910192610469826104638654610a6f565b86610c46565b602090601f83116001146106375760009261062c575b50508160011b916000199060031b1c19161790555b60025468010000000000000000811015610600578060016104b89201600255610a22565b610616576001600160401b038a11610600576104de8a6104d88354610a6f565b83610c46565b896000601f82116001146105995760009161058e575b508a60011b906000198c60031b1c19161790555b604051998a9960a08b5260a08b019061052092610c9a565b9089820360208b015261053292610c9a565b90878203604089015261054492610c9a565b90858203606087015261055692610c9a565b90838203608085015261056892610c9a565b037fc21f2dab60dd26e7d01b1dcac4a9fab19b4d3cb7f7df67e9930c1e18afd040d891a1005b90508b01358c6104f4565b60008381526020812092505b8d601f198e1682106105e85750508b601f198116106105ce575b505060018a811b019055610508565b8c013560001960038d901b60f8161c191690558b806105bf565b600183946020939484930135815501930191016105a5565b634e487b7160e01b600052604160045260246000fd5b634e487b7160e01b600052600060045260246000fd5b015190508d8061047f565b6000858152602081209350601f198516905b818110610685575090846001959493921061066c575b505050811b019055610494565b015160001960f88460031b161c191690558d808061065f565b92936020600181928786015181550195019301610649565b015190508f80610423565b906003850160005260206000209160005b601f1985168110610703575091839160019360809695601f198116106106ea575b505050811b01600384015561043b565b015160001960f88460031b161c191690558f80806106da565b919260206001819286850151815501940192016106b9565b015190508e806103bf565b9250600285016000526020600020906000935b601f198416851061077d576001945083601f19811610610764575b505050811b0160028301556103d7565b015160001960f88460031b161c191690558e8080610754565b81810151835560209485019460019093019290910190610739565b015190508e8061035f565b9250600185016000526020600020906000935b601f19841685106107fa576001945083601f198116106107e1575b505050811b016001830155610377565b015160001960f88460031b161c191690558e80806107d1565b818101518355602094850194600190930192909101906107b6565b015190508e80610302565b9250846000526020600020906000935b601f1984168510610871576001945083601f19811610610858575b505050811b018255610317565b015160001960f88460031b161c191690558e808061084b565b81810151835560209485019460019093019290910190610830565b60405162461bcd60e51b815260206004820152600b60248201526a139bdd081cdd195dd85c9960aa1b6044820152606490fd5b3461015e57602036600319011261015e576004356001600160401b03811161015e573660238201121561015e5761091b6020610908610981933690602481600401359101610bd3565b8160405193828580945193849201610b8b565b8101600181520301902061015a61093182610ae5565b916109ab61094160018301610ae5565b9161099d61095160028301610ae5565b61098f61096c600461096560038701610ae5565b9501610ae5565b95604051998a9960a08b5260a08b0190610bae565b9089820360208b0152610bae565b908782036040890152610bae565b908582036060870152610bae565b908382036080850152610bae565b3461015e57600036600319011261015e576020600254604051908152f35b3461015e57602036600319011261015e5760043560025481101561015e576109fe90610a22565b61061657610a0e61015a91610ae5565b604051918291602083526020830190610bae565b600254811015610a595760026000527f405787fa12a823e0f2b7631cc41b3ba8828b3321ca811111fa75cd3aa3bb5ace0190600090565b634e487b7160e01b600052603260045260246000fd5b90600182811c92168015610a9f575b6020831014610a8957565b634e487b7160e01b600052602260045260246000fd5b91607f1691610a7e565b60a081019081106001600160401b0382111761060057604052565b90601f801991011681019081106001600160401b0382111761060057604052565b9060405191826000825492610af984610a6f565b908184526001948581169081600014610b685750600114610b25575b5050610b2392500383610ac4565b565b9093915060005260209081600020936000915b818310610b50575050610b2393508201013880610b15565b85548884018501529485019487945091830191610b38565b915050610b2394506020925060ff191682840152151560051b8201013880610b15565b60005b838110610b9e5750506000910152565b8181015183820152602001610b8e565b90602091610bc781518092818552858086019101610b8b565b601f01601f1916010190565b9291926001600160401b0382116106005760405191610bfc601f8201601f191660200184610ac4565b82948184528183011161015e578281602093846000960137010152565b9181601f8401121561015e578235916001600160401b03831161015e576020838186019501011161015e57565b90601f8111610c5457505050565b600091825260208220906020601f850160051c83019410610c90575b601f0160051c01915b828110610c8557505050565b818155600101610c79565b9092508290610c70565b908060209392818452848401376000828201840152601f01601f191601019056fea2646970667358221220a91f180e981de2953274e0fd51cc556c12a499635d7881b1888c2e46c7d1ef3e64736f6c63430008140033",
  "linkReferences": {},
  "deployedLinkReferences": {}
}