{
  "_format": "hh-sol-artifact-1",
  "contractName": "OrbitalSanctumRegistry",
  "sourceName": "contracts/OrbitalSanctumRegistry.sol",
  "abi": [
    {
      "anonymous": false,
      "inputs": [
        {
          "indexed": true,
          "internalType": "address",
          "name": "apprentice",
          "type": "address"
        },
        {
          "indexed": false,
          "internalType": "string",
          "name": "node",
          "type": "string"
        }
      ],
      "name": "InflowRouted",
      "type": "event"
    },
    {
      "anonymous": false,
      "inputs": [
        {
          "indexed": true,
          "internalType": "address",
          "name": "apprentice",
          "type": "address"
        },
        {
          "indexed": false,
          "internalType": "string",
          "name": "node",
          "type": "string"
        }
      ],
      "name": "LineageInscribed",
      "type": "event"
    },
    {
      "anonymous": false,
      "inputs": [
        {
          "indexed": true,
          "internalType": "address",
          "name": "apprentice",
          "type": "address"
        },
        {
          "indexed": false,
          "internalType": "string",
          "name": "city",
          "type": "string"
        },
        {
          "indexed": false,
          "internalType": "string",
          "name": "corridor",
          "type": "string"
        },
        {
          "indexed": false,
          "internalType": "string",
          "name": "node",
          "type": "string"
        }
      ],
      "name": "SanctumMapped",
      "type": "event"
    },
    {
      "inputs": [
        {
          "internalType": "address",
          "name": "apprentice",
          "type": "address"
        }
      ],
      "name": "getOrbitalSanctum",
      "outputs": [
        {
          "components": [
            {
              "internalType": "string",
              "name": "city",
              "type": "string"
            },
            {
              "internalType": "string",
              "name": "corridor",
              "type": "string"
            },
            {
              "internalType": "string",
              "name": "node",
              "type": "string"
            },
            {
              "internalType": "bool",
              "name": "activated",
              "type": "bool"
            }
          ],
          "internalType": "struct OrbitalSanctumRegistry.OrbitalSanctum",
          "name": "",
          "type": "tuple"
        }
      ],
      "stateMutability": "view",
      "type": "function"
    },
    {
      "inputs": [
        {
          "internalType": "address",
          "name": "apprentice",
          "type": "address"
        },
        {
          "internalType": "string",
          "name": "node",
          "type": "string"
        }
      ],
      "name": "inscribeLineage",
      "outputs": [],
      "stateMutability": "nonpayable",
      "type": "function"
    },
    {
      "inputs": [
        {
          "internalType": "address",
          "name": "apprentice",
          "type": "address"
        },
        {
          "internalType": "string",
          "name": "node",
          "type": "string"
        }
      ],
      "name": "routeInflow",
      "outputs": [],
      "stateMutability": "nonpayable",
      "type": "function"
    },
    {
      "inputs": [
        {
          "internalType": "address",
          "name": "",
          "type": "address"
        }
      ],
      "name": "sanctums",
      "outputs": [
        {
          "internalType": "string",
          "name": "city",
          "type": "string"
        },
        {
          "internalType": "string",
          "name": "corridor",
          "type": "string"
        },
        {
          "internalType": "string",
          "name": "node",
          "type": "string"
        },
        {
          "internalType": "bool",
          "name": "activated",
          "type": "bool"
        }
      ],
      "stateMutability": "view",
      "type": "function"
    },
    {
      "inputs": [
        {
          "internalType": "address",
          "name": "apprentice",
          "type": "address"
        },
        {
          "internalType": "string",
          "name": "city",
          "type": "string"
        },
        {
          "internalType": "string",
          "name": "corridor",
          "type": "string"
        },
        {
          "internalType": "string",
          "name": "node",
          "type": "string"
        }
      ],
      "name": "setOrbitalSanctum",
      "outputs": [],
      "stateMutability": "nonpayable",
      "type": "function"
    }
  ],
  "bytecode": "0x6080806040523461001657610a6e908161001c8239f35b600080fdfe6080604052600436101561001257600080fd5b60003560e01c80633d351a27146102cd5780634eb66eeb1461029b57806386157d58146101f05780638f0d367d146100f85763b48146211461005357600080fd5b346100f35760203660031901126100f3576001600160a01b036100746107aa565b1660005260006020526100cb604060002061008e81610912565b906100e761009e60018301610912565b916100d960ff60036100b260028501610912565b9301541693604051968796608088526080880190610898565b908682036020880152610898565b908482036040860152610898565b90151560608301520390f35b600080fd5b346100f3576020806003193601126100f3576080906101156107aa565b9060405191610123836107c0565b6000606084818096528185820152816040820152015260018060a01b0316600052600081526101e360406000206040519361015d856107c0565b61016682610912565b855261017460018301610912565b908486019182526101d36101bd60ff600361019160028801610912565b9660408b01978852015416968389019715158852604051998a99828b5251918a015260a0890190610898565b925192601f1993848983030160408a0152610898565b9251918684030190860152610898565b9051151560808301520390f35b346100f3576102967f90d0d18ea3c3400deb07755e9d922f7fe428c2402fa58bb8bde74fce90818ae861022236610855565b929060018060a01b03169283600052600060205261024a60ff600360406000200154166109b8565b83600052600060205261028261027d8261026a6002604060002001610912565b6020815191012090602081519101201490565b6109fc565b604051918291602083526020830190610898565b0390a2005b346100f3576102967fcdd5a95d40f127ce69b62859cda3cfe9c611c5a4ed1c584728e96a83952970c061022236610855565b346100f35760803660031901126100f3576102e66107aa565b60243567ffffffffffffffff81116100f3576103069036906004016107fe565b60443567ffffffffffffffff81116100f3576103269036906004016107fe565b9160643567ffffffffffffffff81116100f3576103479036906004016107fe565b92604051610354816107c0565b8381528160208201528460408201526001606082015260018060a01b03831660005260006020526040600020815180519067ffffffffffffffff82116106085781906103a084546108d8565b601f811161075a575b50602090601f83116001146106f4576000926106e9575b50508160011b916000199060031b1c19161781555b602082015180519067ffffffffffffffff82116106085781906103fb60018501546108d8565b601f8111610696575b50602090601f83116001146106295760009261061e575b50508160011b916000199060031b1c19161760018201555b604082015180519067ffffffffffffffff82116106085761045760028401546108d8565b601f81116105bd575b50602090601f831160011461051d5793606060036104eb9895856104f9967fe361aeada16075d1956b55327940e426fa805b188576fdbc11bc282ea0f878be9c9a966102969a600092610512575b50508160011b9160001990851b1c19161760028201555b01910151151560ff80198354169116179055604051958695606087526060870190610898565b908582036020870152610898565b83810360408501526001600160a01b0390911695610898565b015190508e806104ae565b90601f198316916002850160005260206000209260005b8181106105a557506104eb98956001867fe361aeada16075d1956b55327940e426fa805b188576fdbc11bc282ea0f878be9c9a966102969a966060966104f99a6003971061058d575b505050811b0160028201556104c5565b015160001983871b60f8161c191690558e808061057d565b92936020600181928786015181550195019301610534565b600284016000526020600020601f840160051c810191602085106105fe575b601f0160051c01905b8181106105f25750610460565b600081556001016105e5565b90915081906105dc565b634e487b7160e01b600052604160045260246000fd5b01519050888061041b565b600185016000908152602081209350601f198516905b81811061067e5750908460019594939210610665575b505050811b016001820155610433565b015160001960f88460031b161c19169055888080610655565b9293602060018192878601518155019501930161063f565b909150600184016000526020600020601f840160051c8101602085106106e2575b90849392915b601f830160051c820181106106d3575050610404565b600081558594506001016106bd565b50806106b7565b0151905088806103c0565b6000858152602081209350601f198516905b8181106107425750908460019594939210610729575b505050811b0181556103d5565b015160001960f88460031b161c1916905588808061071c565b92936020600181928786015181550195019301610706565b909150836000526020600020601f840160051c8101602085106107a3575b90849392915b601f830160051c820181106107945750506103a9565b6000815585945060010161077e565b5080610778565b600435906001600160a01b03821682036100f357565b6080810190811067ffffffffffffffff82111761060857604052565b90601f8019910116810190811067ffffffffffffffff82111761060857604052565b81601f820112156100f35780359067ffffffffffffffff82116106085760405192610833601f8401601f1916602001856107dc565b828452602083830101116100f357816000926020809301838601378301015290565b9060406003198301126100f3576004356001600160a01b03811681036100f357916024359067ffffffffffffffff82116100f357610895916004016107fe565b90565b919082519283825260005b8481106108c4575050826000602080949584010152601f8019910116010190565b6020818301810151848301820152016108a3565b90600182811c92168015610908575b60208310146108f257565b634e487b7160e01b600052602260045260246000fd5b91607f16916108e7565b9060405191826000825492610926846108d8565b9081845260019485811690816000146109955750600114610952575b5050610950925003836107dc565b565b9093915060005260209081600020936000915b81831061097d57505061095093508201013880610942565b85548884018501529485019487945091830191610965565b91505061095094506020925060ff191682840152151560051b8201013880610942565b156109bf57565b60405162461bcd60e51b815260206004820152601560248201527414d85b98dd1d5b481b9bdd081858dd1a5d985d1959605a1b6044820152606490fd5b15610a0357565b60405162461bcd60e51b815260206004820152600d60248201526c09cdec8ca40dad2e6dac2e8c6d609b1b6044820152606490fdfea264697066735822122022dbef46da024bb7105fee82e446bc04181228c0e7306ade9ec33674104137b064736f6c63430008140033",
  "linkReferences": {},
  "deployedLinkReferences": {}
}