{
  "_format": "hh-sol-artifact-1",
  "contractName": "CompanionSummonerXI",
  "sourceName": "contracts/registry/CompanionSummonerXI.sol",
  "abi": [
    {
      "inputs": [],
      "stateMutability": "nonpayable",
      "type": "constructor"
    },
    {
      "anonymous": false,
      "inputs": [
        {
          "indexed": true,
          "internalType": "address",
          "name": "companion",
          "type": "address"
        },
        {
          "indexed": false,
          "internalType": "string",
          "name": "name",
          "type": "string"
        },
        {
          "indexed": false,
          "internalType": "string",
          "name": "trait",
          "type": "string"
        },
        {
          "indexed": false,
          "internalType": "string",
          "name": "drift",
          "type": "string"
        },
        {
          "indexed": false,
          "internalType": "string",
          "name": "resonance",
          "type": "string"
        },
        {
          "indexed": false,
          "internalType": "string",
          "name": "codexRef",
          "type": "string"
        },
        {
          "indexed": false,
          "internalType": "string",
          "name": "signature",
          "type": "string"
        },
        {
          "indexed": false,
          "internalType": "string",
          "name": "sanctum",
          "type": "string"
        },
        {
          "indexed": false,
          "internalType": "string",
          "name": "chant",
          "type": "string"
        },
        {
          "indexed": false,
          "internalType": "string",
          "name": "choreography",
          "type": "string"
        }
      ],
      "name": "CompanionSummoned",
      "type": "event"
    },
    {
      "inputs": [
        {
          "internalType": "address",
          "name": "",
          "type": "address"
        }
      ],
      "name": "companions",
      "outputs": [
        {
          "internalType": "string",
          "name": "name",
          "type": "string"
        },
        {
          "internalType": "string",
          "name": "trait",
          "type": "string"
        },
        {
          "internalType": "string",
          "name": "drift",
          "type": "string"
        },
        {
          "internalType": "string",
          "name": "resonance",
          "type": "string"
        },
        {
          "internalType": "string",
          "name": "codexRef",
          "type": "string"
        },
        {
          "internalType": "string",
          "name": "signature",
          "type": "string"
        },
        {
          "internalType": "string",
          "name": "sanctum",
          "type": "string"
        },
        {
          "internalType": "string",
          "name": "chant",
          "type": "string"
        },
        {
          "internalType": "string",
          "name": "choreography",
          "type": "string"
        }
      ],
      "stateMutability": "view",
      "type": "function"
    },
    {
      "inputs": [
        {
          "internalType": "address",
          "name": "companion",
          "type": "address"
        }
      ],
      "name": "getCompanion",
      "outputs": [
        {
          "components": [
            {
              "internalType": "string",
              "name": "name",
              "type": "string"
            },
            {
              "internalType": "string",
              "name": "trait",
              "type": "string"
            },
            {
              "internalType": "string",
              "name": "drift",
              "type": "string"
            },
            {
              "internalType": "string",
              "name": "resonance",
              "type": "string"
            },
            {
              "internalType": "string",
              "name": "codexRef",
              "type": "string"
            },
            {
              "internalType": "string",
              "name": "signature",
              "type": "string"
            },
            {
              "internalType": "string",
              "name": "sanctum",
              "type": "string"
            },
            {
              "internalType": "string",
              "name": "chant",
              "type": "string"
            },
            {
              "internalType": "string",
              "name": "choreography",
              "type": "string"
            }
          ],
          "internalType": "struct CompanionSummonerXI.Companion",
          "name": "",
          "type": "tuple"
        }
      ],
      "stateMutability": "view",
      "type": "function"
    },
    {
      "inputs": [
        {
          "internalType": "uint256",
          "name": "",
          "type": "uint256"
        }
      ],
      "name": "keys",
      "outputs": [
        {
          "internalType": "address",
          "name": "",
          "type": "address"
        }
      ],
      "stateMutability": "view",
      "type": "function"
    },
    {
      "inputs": [],
      "name": "steward",
      "outputs": [
        {
          "internalType": "address",
          "name": "",
          "type": "address"
        }
      ],
      "stateMutability": "view",
      "type": "function"
    },
    {
      "inputs": [
        {
          "internalType": "address",
          "name": "companion",
          "type": "address"
        },
        {
          "internalType": "string",
          "name": "name",
          "type": "string"
        },
        {
          "internalType": "string",
          "name": "trait",
          "type": "string"
        },
        {
          "internalType": "string",
          "name": "drift",
          "type": "string"
        },
        {
          "internalType": "string",
          "name": "resonance",
          "type": "string"
        },
        {
          "internalType": "string",
          "name": "codexRef",
          "type": "string"
        },
        {
          "internalType": "string",
          "name": "signature",
          "type": "string"
        },
        {
          "internalType": "string",
          "name": "sanctum",
          "type": "string"
        },
        {
          "internalType": "string",
          "name": "chant",
          "type": "string"
        },
        {
          "internalType": "string",
          "name": "choreography",
          "type": "string"
        }
      ],
      "name": "summonCompanion",
      "outputs": [],
      "stateMutability": "nonpayable",
      "type": "function"
    },
    {
      "inputs": [],
      "name": "totalCompanions",
      "outputs": [
        {
          "internalType": "uint256",
          "name": "",
          "type": "uint256"
        }
      ],
      "stateMutability": "view",
      "type": "function"
    }
  ],
  "bytecode": "0x6080806040523461002857600080546001600160a01b0319163317905561158d908161002e8239f35b600080fdfe610320604052600436101561001357600080fd5b60003560e01c80630cb6aaf1146112c157806347854b8714611183578063637eea191461115a578063ec39f18f1461113c578063ecefe5381461025f5763ef6527371461005f57600080fd5b3461025a5760208060031936011261025a57610079611350565b90604051610086816113a0565b606092838252838383015283604083015283808301528360808301528360a08301528360c08301528360e08301528361010080930152600160a01b600190031660005260018252604060002092604051926100e0846113a0565b6100e9856113dd565b84526100f7600186016113dd565b8482019081529261010a600287016113dd565b604086019081529561011e600382016113dd565b868501908152610130600483016113dd565b60808801908152610143600584016113dd565b60a0890190815290610157600685016113dd565b60c08a019081529261016b600786016113dd565b9460e08b0195865260080161017f906113dd565b97868b019889526040519b8c9b898d52518c6101209a8b9101526101408d016101a791611483565b9a51601f198d8d03810160408f01529b6101c091611483565b9051918b8d830301908d01526101d591611483565b905190898b82030160808c01526101eb91611483565b905190888a82030160a08b015261020191611483565b905190878982030160c08a015261021791611483565b905190868882030160e089015261022d91611483565b90519185878303019087015261024291611483565b915192848303019084015261025691611483565b0390f35b600080fd5b3461025a5761014036600319011261025a57610279611350565b6101e0526024356001600160401b03811161025a5761029c9036906004016114c3565b6103005260a0526044356001600160401b03811161025a576102c29036906004016114c3565b60c052610180526064356001600160401b03811161025a576102e89036906004016114c3565b610100526102a0526084356001600160401b03811161025a5761030f9036906004016114c3565b610120526102005260a4356001600160401b03811161025a576103369036906004016114c3565b60805260e05260c4356001600160401b03811161025a5761035b9036906004016114c3565b610220526101a05260e4356001600160401b03811161025a576103829036906004016114c3565b61024052610260526001600160401b03610104351161025a576103ab36610104356004016114c3565b610160526102e0526001600160401b03610124351161025a576103d436610124356004016114c3565b6101c052610280526000546001600160a01b03163303611109576103fe604051806102c0526113a0565b61040e366103005160a0516114f0565b6102c051526104233660c051610180516114f0565b60206102c051015261043c36610100516102a0516114f0565b60406102c05101526104553661012051610200516114f0565b60606102c051015261046c3660805160e0516114f0565b60806102c051015261048536610220516101a0516114f0565b60a06102c051015261049e3661024051610260516114f0565b60c06102c05101526104b736610160516102e0516114f0565b60e06102c05101526104d0366101c051610280516114f0565b6101006102c051015260018060a01b036101e05116600052600160205260406000206102c051519081516001600160401b0381116109cf576105128254611366565b601f81116110c5575b506020601f821160011461106057819293600092611055575b50508160011b916000199060031b1c19161781555b60206102c05101518051906001600160401b0382116109cf5781906105716001850154611366565b601f8111611002575b50602090601f8311600114610f9057600092610f85575b50508160011b916000199060031b1c19161760018201555b60406102c05101518051906001600160401b0382116109cf5781906105d16002850154611366565b601f8111610f32575b50602090601f8311600114610ec057600092610eb5575b50508160011b916000199060031b1c19161760028201555b60606102c05101518051906001600160401b0382116109cf5781906106316003850154611366565b601f8111610e62575b50602090601f8311600114610df057600092610de5575b50508160011b916000199060031b1c19161760038201555b60806102c05101518051906001600160401b0382116109cf5781906106916004850154611366565b601f8111610d92575b50602090601f8311600114610d2057600092610d15575b50508160011b916000199060031b1c19161760048201555b60a06102c05101518051906001600160401b0382116109cf5781906106f16005850154611366565b601f8111610cc2575b50602090601f8311600114610c5057600092610c45575b50508160011b916000199060031b1c19161760058201555b60c06102c05101518051906001600160401b0382116109cf5781906107516006850154611366565b601f8111610bf2575b50602090601f8311600114610b8057600092610b75575b50508160011b916000199060031b1c19161760068201555b60e06102c05101518051906001600160401b0382116109cf5781906107b16007850154611366565b601f8111610b22575b50602090601f8311600114610ab057600092610aa5575b50508160011b916000199060031b1c19161760078201555b6101006102c05101518051906001600160401b0382116109cf576108106008840154611366565b601f8111610a5e575b50602090601f83116001146109f05760089291600091836109e5575b50508160011b916000199060031b1c1916179101555b600254680100000000000000008110156109cf5780600161086f9201600255611303565b81549060031b9060018060a01b036101e05116821b9160018060a01b03901b191617905561012060405180610140525261097761095e61094561092c6109156108fc6108e36108cb61012061014051016103005160a051611536565b61014051602081830391015260c05161018051611536565b610140516040818303910152610100516102a051611536565b6101405160608183039101526101205161020051611536565b61014051608081830391015260805160e051611536565b6101405160a0818303910152610220516101a051611536565b6101405160c08183039101526102405161026051611536565b6101405160e0818303910152610160516102e051611536565b610140516101008183039101527fef488ea6a5f1deb172a481865df47bc2bb09bae6f941a13118d6c6b7d1a19e4460018060a01b036101e05116916109c761014051916101c05161028051611536565b0361014051a2005b634e487b7160e01b600052604160045260246000fd5b015190508480610835565b90601f198316916008850160005260206000209260005b818110610a4657509160019391856008969410610a2d575b505050811b0191015561084b565b015160001960f88460031b161c19169055848080610a1f565b92936020600181928786015181550195019301610a07565b600884016000526020600020601f840160051c810160208510610a9e575b601f830160051c82018110610a92575050610819565b60008155600101610a7c565b5080610a7c565b0151905083806107d1565b9250600784016000526020600020906000935b601f1984168510610b07576001945083601f19811610610aee575b505050811b0160078201556107e9565b015160001960f88460031b161c19169055838080610ade565b81810151835560209485019460019093019290910190610ac3565b909150600784016000526020600020601f840160051c810160208510610b6e575b90849392915b601f830160051c82018110610b5f5750506107ba565b60008155859450600101610b49565b5080610b43565b015190508380610771565b9250600684016000526020600020906000935b601f1984168510610bd7576001945083601f19811610610bbe575b505050811b016006820155610789565b015160001960f88460031b161c19169055838080610bae565b81810151835560209485019460019093019290910190610b93565b909150600684016000526020600020601f840160051c810160208510610c3e575b90849392915b601f830160051c82018110610c2f57505061075a565b60008155859450600101610c19565b5080610c13565b015190508380610711565b9250600584016000526020600020906000935b601f1984168510610ca7576001945083601f19811610610c8e575b505050811b016005820155610729565b015160001960f88460031b161c19169055838080610c7e565b81810151835560209485019460019093019290910190610c63565b909150600584016000526020600020601f840160051c810160208510610d0e575b90849392915b601f830160051c82018110610cff5750506106fa565b60008155859450600101610ce9565b5080610ce3565b0151905083806106b1565b9250600484016000526020600020906000935b601f1984168510610d77576001945083601f19811610610d5e575b505050811b0160048201556106c9565b015160001960f88460031b161c19169055838080610d4e565b81810151835560209485019460019093019290910190610d33565b909150600484016000526020600020601f840160051c810160208510610dde575b90849392915b601f830160051c82018110610dcf57505061069a565b60008155859450600101610db9565b5080610db3565b015190508380610651565b9250600384016000526020600020906000935b601f1984168510610e47576001945083601f19811610610e2e575b505050811b016003820155610669565b015160001960f88460031b161c19169055838080610e1e565b81810151835560209485019460019093019290910190610e03565b909150600384016000526020600020601f840160051c810160208510610eae575b90849392915b601f830160051c82018110610e9f57505061063a565b60008155859450600101610e89565b5080610e83565b0151905083806105f1565b9250600284016000526020600020906000935b601f1984168510610f17576001945083601f19811610610efe575b505050811b016002820155610609565b015160001960f88460031b161c19169055838080610eee565b81810151835560209485019460019093019290910190610ed3565b909150600284016000526020600020601f840160051c810160208510610f7e575b90849392915b601f830160051c82018110610f6f5750506105da565b60008155859450600101610f59565b5080610f53565b015190508380610591565b9250600184016000526020600020906000935b601f1984168510610fe7576001945083601f19811610610fce575b505050811b0160018201556105a9565b015160001960f88460031b161c19169055838080610fbe565b81810151835560209485019460019093019290910190610fa3565b909150600184016000526020600020601f840160051c81016020851061104e575b90849392915b601f830160051c8201811061103f57505061057a565b60008155859450600101611029565b5080611023565b015190508380610534565b82600052602060002090600094601f198416955b8681106110ad5750836001959610611094575b505050811b018155610549565b015160001960f88460031b161c19169055838080611087565b91926020600181928685015181550194019201611074565b826000526020600020601f830160051c810160208410611102575b601f830160051c820181106110f657505061051b565b600081556001016110e0565b50806110e0565b60405162461bcd60e51b815260206004820152600b60248201526a139bdd081cdd195dd85c9960aa1b6044820152606490fd5b3461025a57600036600319011261025a576020600254604051908152f35b3461025a57600036600319011261025a576000546040516001600160a01b039091168152602090f35b3461025a57602036600319011261025a576001600160a01b036111a4611350565b16600052600160205260406000206111bb816113dd565b6111c7600183016113dd565b916111d4600282016113dd565b906111e1600382016113dd565b6111ed600483016113dd565b6111f9600584016113dd565b90611206600685016113dd565b92611213600786016113dd565b94600801611220906113dd565b95604051988998610120808b528a0161123891611483565b89810360208b015261124991611483565b88810360408a015261125a91611483565b878103606089015261126b91611483565b868103608088015261127c91611483565b85810360a087015261128d91611483565b84810360c086015261129e91611483565b83810360e08501526112af91611483565b82810361010084015261025691611483565b3461025a57602036600319011261025a5760043560025481101561025a576112ea602091611303565b905460405160039290921b1c6001600160a01b03168152f35b60025481101561133a5760026000527f405787fa12a823e0f2b7631cc41b3ba8828b3321ca811111fa75cd3aa3bb5ace0190600090565b634e487b7160e01b600052603260045260246000fd5b600435906001600160a01b038216820361025a57565b90600182811c92168015611396575b602083101461138057565b634e487b7160e01b600052602260045260246000fd5b91607f1691611375565b61012081019081106001600160401b038211176109cf57604052565b90601f801991011681019081106001600160401b038211176109cf57604052565b90604051918260008254926113f184611366565b908184526001948581169081600014611460575060011461141d575b505061141b925003836113bc565b565b9093915060005260209081600020936000915b81831061144857505061141b9350820101388061140d565b85548884018501529485019487945091830191611430565b91505061141b94506020925060ff191682840152151560051b820101388061140d565b919082519283825260005b8481106114af575050826000602080949584010152601f8019910116010190565b60208183018101518483018201520161148e565b9181601f8401121561025a578235916001600160401b03831161025a576020838186019501011161025a57565b9291926001600160401b0382116109cf5760405191611519601f8201601f1916602001846113bc565b82948184528183011161025a578281602093846000960137010152565b908060209392818452848401376000828201840152601f01601f191601019056fea2646970667358221220c1e12bdfc8213d643bece55728dae21b729bf00299bba3ee13b3309e1be84fab64736f6c63430008140033",
  "linkReferences": {},
  "deployedLinkReferences": {}
}