{
  "_format": "hh-sol-artifact-1",
  "contractName": "ApprenticeSummonerV4",
  "sourceName": "contracts/registry/ApprenticeSummonerV4.sol",
  "abi": [
    {
      "inputs": [],
      "stateMutability": "nonpayable",
      "type": "constructor"
    },
    {
      "anonymous": false,
      "inputs": [
        {
          "indexed": true,
          "internalType": "address",
          "name": "apprentice",
          "type": "address"
        },
        {
          "indexed": false,
          "internalType": "string",
          "name": "name",
          "type": "string"
        },
        {
          "indexed": false,
          "internalType": "string",
          "name": "signal",
          "type": "string"
        },
        {
          "indexed": false,
          "internalType": "string",
          "name": "drift",
          "type": "string"
        },
        {
          "indexed": false,
          "internalType": "string",
          "name": "pulse",
          "type": "string"
        },
        {
          "indexed": false,
          "internalType": "string",
          "name": "codexRef",
          "type": "string"
        },
        {
          "indexed": false,
          "internalType": "string",
          "name": "resonance",
          "type": "string"
        },
        {
          "indexed": false,
          "internalType": "string",
          "name": "signature",
          "type": "string"
        }
      ],
      "name": "ApprenticeSummoned",
      "type": "event"
    },
    {
      "inputs": [
        {
          "internalType": "uint256",
          "name": "",
          "type": "uint256"
        }
      ],
      "name": "apprentices",
      "outputs": [
        {
          "internalType": "address",
          "name": "",
          "type": "address"
        }
      ],
      "stateMutability": "view",
      "type": "function"
    },
    {
      "inputs": [
        {
          "internalType": "address",
          "name": "apprentice",
          "type": "address"
        }
      ],
      "name": "getSummons",
      "outputs": [
        {
          "internalType": "string",
          "name": "",
          "type": "string"
        },
        {
          "internalType": "string",
          "name": "",
          "type": "string"
        },
        {
          "internalType": "string",
          "name": "",
          "type": "string"
        },
        {
          "internalType": "string",
          "name": "",
          "type": "string"
        },
        {
          "internalType": "string",
          "name": "",
          "type": "string"
        },
        {
          "internalType": "string",
          "name": "",
          "type": "string"
        },
        {
          "internalType": "string",
          "name": "",
          "type": "string"
        }
      ],
      "stateMutability": "view",
      "type": "function"
    },
    {
      "inputs": [],
      "name": "steward",
      "outputs": [
        {
          "internalType": "address",
          "name": "",
          "type": "address"
        }
      ],
      "stateMutability": "view",
      "type": "function"
    },
    {
      "inputs": [
        {
          "internalType": "address",
          "name": "apprentice",
          "type": "address"
        },
        {
          "internalType": "string",
          "name": "name",
          "type": "string"
        },
        {
          "internalType": "string",
          "name": "signal",
          "type": "string"
        },
        {
          "internalType": "string",
          "name": "drift",
          "type": "string"
        },
        {
          "internalType": "string",
          "name": "pulse",
          "type": "string"
        },
        {
          "internalType": "string",
          "name": "codexRef",
          "type": "string"
        },
        {
          "internalType": "string",
          "name": "resonance",
          "type": "string"
        },
        {
          "internalType": "string",
          "name": "signature",
          "type": "string"
        }
      ],
      "name": "summonApprentice",
      "outputs": [],
      "stateMutability": "nonpayable",
      "type": "function"
    },
    {
      "inputs": [
        {
          "internalType": "address",
          "name": "",
          "type": "address"
        }
      ],
      "name": "summons",
      "outputs": [
        {
          "internalType": "string",
          "name": "name",
          "type": "string"
        },
        {
          "internalType": "string",
          "name": "signal",
          "type": "string"
        },
        {
          "internalType": "string",
          "name": "drift",
          "type": "string"
        },
        {
          "internalType": "string",
          "name": "pulse",
          "type": "string"
        },
        {
          "internalType": "string",
          "name": "codexRef",
          "type": "string"
        },
        {
          "internalType": "string",
          "name": "resonance",
          "type": "string"
        },
        {
          "internalType": "string",
          "name": "signature",
          "type": "string"
        }
      ],
      "stateMutability": "view",
      "type": "function"
    },
    {
      "inputs": [],
      "name": "totalSummons",
      "outputs": [
        {
          "internalType": "uint256",
          "name": "",
          "type": "uint256"
        }
      ],
      "stateMutability": "view",
      "type": "function"
    }
  ],
  "bytecode": "0x6080806040523461002857600080546001600160a01b0319163317905561106a908161002e8239f35b600080fdfe608080604052600436101561001357600080fd5b60003560e01c9081632a17d4cd14610d45575080635a2ed66214610cb2578063637eea1914610c89578063cf84c60314610baf578063eb5f0903146100a85763f31bee3e1461006157600080fd5b346100a35760203660031901126100a3576004356002548110156100a35761008a602091610f80565b905460405160039290921b1c6001600160a01b03168152f35b600080fd5b346100a3576101003660031901126100a3576100c2610d60565b6024356001600160401b0381116100a3576100e1903690600401610f53565b6044356001600160401b0381116100a357610100903690600401610f53565b90936064356001600160401b0381116100a357610121903690600401610f53565b906084356001600160401b0381116100a357610141903690600401610f53565b9060a4356001600160401b0381116100a357610161903690600401610f53565b91909260c4356001600160401b0381116100a357610183903690600401610f53565b95909660e4356001600160401b0381116100a3576101a5903690600401610f53565b600054909e919b906001600160a01b03163303610b7c578c8f8f908e91604051936101cf85610db0565b36906101da92610fcd565b83526101e7368587610fcd565b60208401526101f7368789610fcd565b604084015261020736898b610fcd565b6060840152610217368b8d610fcd565b6080840152610227368d8f610fcd565b60a0840152369061023792610fcd565b60c08201526001600160a01b038c16600090815260016020526040902081518051919291906001600160401b0382116105da5781906102768554610d76565b601f8111610b2c575b50602090601f8311600114610ac057600092610ab5575b50508160011b916000199060031b1c19161782555b60208101518051906001600160401b0382116105da5781906102d06001860154610d76565b601f8111610a62575b50602090601f83116001146109f0576000926109e5575b50508160011b916000199060031b1c19161760018301555b60408101518051906001600160401b0382116105da57819061032d6002860154610d76565b601f8111610992575b50602090601f831160011461092057600092610915575b50508160011b916000199060031b1c19161760028301555b60608101518051906001600160401b0382116105da57819061038a6003860154610d76565b601f81116108c2575b50602090601f831160011461085057600092610845575b50508160011b916000199060031b1c19161760038301555b60808101518051906001600160401b0382116105da5781906103e76004860154610d76565b601f81116107f2575b50602090601f831160011461078057600092610775575b50508160011b916000199060031b1c19161760048301555b60a08101518051906001600160401b0382116105da576104426005850154610d76565b601f811161072e575b50602090601f83116001146106bb5760c0939291600091836106b0575b50508160011b916000199060031b1c19161760058401555b01518051906001600160401b0382116105da576104a06006840154610d76565b601f8111610669575b50602090601f83116001146105fb5760069291600091836105f0575b50508160011b916000199060031b1c1916179101555b600254680100000000000000008110156105da57600181016002556104ff90610f80565b81549060031b908d600160a01b6001900316821b91600160a01b60019003901b19161790556040519d8e9d8e60e0815260e0019061053c92611013565b908d808303906020015261054f92611013565b908b820360408d015261056192611013565b9089820360608b015261057392611013565b90878203608089015261058592611013565b9085820360a087015261059792611013565b83810360c08501526001600160a01b03909116946105b492611013565b037f8b695cb8fdd59ea3184abc098d925d512be5bfabc67f5f95ae540bf18043a68c91a2005b634e487b7160e01b600052604160045260246000fd5b0151905038806104c5565b90601f198316916006850160005260206000209260005b81811061065157509160019391856006969410610638575b505050811b019101556104db565b015160001960f88460031b161c1916905538808061062a565b92936020600181928786015181550195019301610612565b600684016000526020600020601f840160051c8101602085106106a9575b601f830160051c8201811061069d5750506104a9565b60008155600101610687565b5080610687565b015190503880610468565b906005850160005260206000209160005b601f1985168110610716575091839160019360c09695601f198116106106fd575b505050811b016005840155610480565b015160001960f88460031b161c191690553880806106ed565b919260206001819286850151815501940192016106cc565b600585016000526020600020601f840160051c81016020851061076e575b601f830160051c8201811061076257505061044b565b6000815560010161074c565b508061074c565b015190503880610407565b9250600485016000526020600020906000935b601f19841685106107d7576001945083601f198116106107be575b505050811b01600483015561041f565b015160001960f88460031b161c191690553880806107ae565b81810151835560209485019460019093019290910190610793565b909150600485016000526020600020601f840160051c81016020851061083e575b90849392915b601f830160051c8201811061082f5750506103f0565b60008155859450600101610819565b5080610813565b0151905038806103aa565b9250600385016000526020600020906000935b601f19841685106108a7576001945083601f1981161061088e575b505050811b0160038301556103c2565b015160001960f88460031b161c1916905538808061087e565b81810151835560209485019460019093019290910190610863565b909150600385016000526020600020601f840160051c81016020851061090e575b90849392915b601f830160051c820181106108ff575050610393565b600081558594506001016108e9565b50806108e3565b01519050388061034d565b9250600285016000526020600020906000935b601f1984168510610977576001945083601f1981161061095e575b505050811b016002830155610365565b015160001960f88460031b161c1916905538808061094e565b81810151835560209485019460019093019290910190610933565b909150600285016000526020600020601f840160051c8101602085106109de575b90849392915b601f830160051c820181106109cf575050610336565b600081558594506001016109b9565b50806109b3565b0151905038806102f0565b9250600185016000526020600020906000935b601f1984168510610a47576001945083601f19811610610a2e575b505050811b016001830155610308565b015160001960f88460031b161c19169055388080610a1e565b81810151835560209485019460019093019290910190610a03565b909150600185016000526020600020601f840160051c810160208510610aae575b90849392915b601f830160051c82018110610a9f5750506102d9565b60008155859450600101610a89565b5080610a83565b015190503880610296565b9250846000526020600020906000935b601f1984168510610b11576001945083601f19811610610af8575b505050811b0182556102ab565b015160001960f88460031b161c19169055388080610aeb565b81810151835560209485019460019093019290910190610ad0565b909150846000526020600020601f840160051c810160208510610b75575b90849392915b601f830160051c82018110610b6657505061027f565b60008155859450600101610b50565b5080610b4a565b60405162461bcd60e51b815260206004820152600b60248201526a139bdd081cdd195dd85c9960aa1b6044820152606490fd5b346100a35760203660031901126100a3576001600160a01b03610bd0610d60565b1660005260016020526040600020604051610bea81610db0565b610bf382610dec565b8152610c85610c0460018401610dec565b9160208101928352610c1860028501610dec565b9360408201948552610c2c60038201610dec565b9060608301918252610c4060048201610dec565b60808401908152610c666006610c5860058501610dec565b9360a0870194855201610dec565b938460c082015251955196519251905191519260405197889788610ed2565b0390f35b346100a35760003660031901126100a3576000546040516001600160a01b039091168152602090f35b346100a35760203660031901126100a3576001600160a01b03610cd3610d60565b1660005260016020526040600020610cea81610dec565b610c85610cf960018401610dec565b92610d0660028201610dec565b90610d1360038201610dec565b610d1f60048301610dec565b90610d386006610d3160058601610dec565b9401610dec565b9360405197889788610ed2565b346100a35760003660031901126100a3576020906002548152f35b600435906001600160a01b03821682036100a357565b90600182811c92168015610da6575b6020831014610d9057565b634e487b7160e01b600052602260045260246000fd5b91607f1691610d85565b60e081019081106001600160401b038211176105da57604052565b90601f801991011681019081106001600160401b038211176105da57604052565b9060405191826000825492610e0084610d76565b908184526001948581169081600014610e6f5750600114610e2c575b5050610e2a92500383610dcb565b565b9093915060005260209081600020936000915b818310610e57575050610e2a93508201013880610e1c565b85548884018501529485019487945091830191610e3f565b915050610e2a94506020925060ff191682840152151560051b8201013880610e1c565b919082519283825260005b848110610ebe575050826000602080949584010152601f8019910116010190565b602081830181015184830182015201610e9d565b9592610f4294610f18610f2692610f0a610f3496610efc610f509d9b9760e08e8181520190610e92565b8c810360208e015290610e92565b908a820360408c0152610e92565b9088820360608a0152610e92565b908682036080880152610e92565b9084820360a0860152610e92565b9160c0818403910152610e92565b90565b9181601f840112156100a3578235916001600160401b0383116100a357602083818601950101116100a357565b600254811015610fb75760026000527f405787fa12a823e0f2b7631cc41b3ba8828b3321ca811111fa75cd3aa3bb5ace0190600090565b634e487b7160e01b600052603260045260246000fd5b9291926001600160401b0382116105da5760405191610ff6601f8201601f191660200184610dcb565b8294818452818301116100a3578281602093846000960137010152565b908060209392818452848401376000828201840152601f01601f191601019056fea26469706673582212200c6078655e056a52e19e52324fd2fed93b584089e634095fef01a7aa006de80f64736f6c63430008140033",
  "linkReferences": {},
  "deployedLinkReferences": {}
}