{
  "_format": "hh-sol-artifact-1",
  "contractName": "SkyCityDrift",
  "sourceName": "contracts/skycity/SkyCityDrift.sol",
  "abi": [
    {
      "inputs": [],
      "stateMutability": "nonpayable",
      "type": "constructor"
    },
    {
      "anonymous": false,
      "inputs": [
        {
          "indexed": false,
          "internalType": "string",
          "name": "city",
          "type": "string"
        },
        {
          "indexed": false,
          "internalType": "string",
          "name": "constellation",
          "type": "string"
        },
        {
          "indexed": false,
          "internalType": "string",
          "name": "pulseSignature",
          "type": "string"
        }
      ],
      "name": "DriftBound",
      "type": "event"
    },
    {
      "inputs": [
        {
          "internalType": "string",
          "name": "city",
          "type": "string"
        },
        {
          "internalType": "string",
          "name": "constellation",
          "type": "string"
        },
        {
          "internalType": "string",
          "name": "pulseSignature",
          "type": "string"
        }
      ],
      "name": "bindDrift",
      "outputs": [],
      "stateMutability": "nonpayable",
      "type": "function"
    },
    {
      "inputs": [
        {
          "internalType": "uint256",
          "name": "",
          "type": "uint256"
        }
      ],
      "name": "cityKeys",
      "outputs": [
        {
          "internalType": "string",
          "name": "",
          "type": "string"
        }
      ],
      "stateMutability": "view",
      "type": "function"
    },
    {
      "inputs": [
        {
          "internalType": "string",
          "name": "",
          "type": "string"
        }
      ],
      "name": "drifts",
      "outputs": [
        {
          "internalType": "string",
          "name": "city",
          "type": "string"
        },
        {
          "internalType": "string",
          "name": "constellation",
          "type": "string"
        },
        {
          "internalType": "string",
          "name": "pulseSignature",
          "type": "string"
        }
      ],
      "stateMutability": "view",
      "type": "function"
    },
    {
      "inputs": [
        {
          "internalType": "string",
          "name": "city",
          "type": "string"
        }
      ],
      "name": "getDrift",
      "outputs": [
        {
          "internalType": "string",
          "name": "",
          "type": "string"
        },
        {
          "internalType": "string",
          "name": "",
          "type": "string"
        },
        {
          "internalType": "string",
          "name": "",
          "type": "string"
        }
      ],
      "stateMutability": "view",
      "type": "function"
    },
    {
      "inputs": [],
      "name": "steward",
      "outputs": [
        {
          "internalType": "address",
          "name": "",
          "type": "address"
        }
      ],
      "stateMutability": "view",
      "type": "function"
    },
    {
      "inputs": [],
      "name": "totalDrifts",
      "outputs": [
        {
          "internalType": "uint256",
          "name": "",
          "type": "uint256"
        }
      ],
      "stateMutability": "view",
      "type": "function"
    }
  ],
  "bytecode": "0x6080806040523461002857600080546001600160a01b03191633179055610a38908161002e8239f35b600080fdfe608080604052600436101561001357600080fd5b60003560e01c908163637eea191461070b5750806370055b881461021457806379e73e10146101f65780637f52ec2114610163578063873767a4146101025763d5194b541461006157600080fd5b346100fd5760203660031901126100fd576004356001600160401b0381116100fd57610093602091369060040161072f565b919082604051938492833781016001815203019020604051906100b58261075c565b6100be8161083b565b82526100f96100e260026100d46001850161083b565b93602086019485520161083b565b928360408201525191519260405193849384610906565b0390f35b600080fd5b346100fd5760203660031901126100fd576004356002548110156100fd5761012990610940565b61014d576101396100f99161083b565b6040519182916020835260208301906108e1565b634e487b7160e01b600052600060045260246000fd5b346100fd5760203660031901126100fd576004356001600160401b0381116100fd57366023820112156100fd5760206101a96101bc923690602481600401359101610798565b81604051938285809451938492016107de565b810160018152030190206101cf8161083b565b6100f96101ea60026101e36001860161083b565b940161083b565b60405193849384610906565b346100fd5760003660031901126100fd576020600254604051908152f35b346100fd5760603660031901126100fd576004356001600160401b0381116100fd5761024490369060040161072f565b906024356001600160401b0381116100fd5761026490369060040161072f565b92906044356001600160401b0381116100fd5761028590369060040161072f565b60005491959092916001600160a01b031633036106d8576040516102a88161075c565b6102b3368688610798565b81526102c0368385610798565b60208201526102d0368589610798565b604082015260405185878237602081878101600181520301902081518051906001600160401b0382116105675781906103138261030d8654610801565b8661098d565b602090601f831160011461067257600092610667575b50508160011b916000199060031b1c19161781555b602082015180516001600160401b03811161056757600183019161036c826103668554610801565b8561098d565b602090601f83116001146105f957918060029492604096946000926105ee575b50508160011b916000199060031b1c19161790555b019101518051906001600160401b0382116105675781906103c68261030d8654610801565b602090601f83116001146105885760009261057d575b50508160011b916000199060031b1c19161790555b60025468010000000000000000811015610567578060016104159201600255610940565b61014d576001600160401b0385116105675761043b856104358354610801565b8361098d565b6000601f86116001146104d557926104c594926104b792877f97f765cf6927f903443b7cf17166d7945ae52a4a03f5fafd01536dab7f32bec89a966000916104ca575b508860011b906000198a60031b1c19161790555b6104a960405198899860608a5260608a01916109e1565b9187830360208901526109e1565b9184830360408601526109e1565b0390a1005b90508901358b61047e565b601f198616908260005260206000209160005b81811061054f5750927f97f765cf6927f903443b7cf17166d7945ae52a4a03f5fafd01536dab7f32bec89995926104c5979592896104b79610610535575b5050600188811b019055610492565b8a013560001960038b901b60f8161c191690558a80610526565b9192602060018192868d0135815501940192016104e8565b634e487b7160e01b600052604160045260246000fd5b0151905089806103dc565b6000858152602081209350601f198516905b8181106105d657509084600195949392106105bd575b505050811b0190556103f1565b015160001960f88460031b161c191690558980806105b0565b9293602060018192878601518155019501930161059a565b015190508d8061038c565b90601f198316918460005260206000209260005b81811061064f5750926001928592604098966002989610610636575b505050811b0190556103a1565b015160001960f88460031b161c191690558d8080610629565b9293602060018192878601518155019501930161060d565b015190508a80610329565b6000858152602081209350601f198516905b8181106106c057509084600195949392106106a7575b505050811b01815561033e565b015160001960f88460031b161c191690558a808061069a565b92936020600181928786015181550195019301610684565b60405162461bcd60e51b815260206004820152600b60248201526a139bdd081cdd195dd85c9960aa1b6044820152606490fd5b346100fd5760003660031901126100fd576000546001600160a01b03168152602090f35b9181601f840112156100fd578235916001600160401b0383116100fd57602083818601950101116100fd57565b606081019081106001600160401b0382111761056757604052565b90601f801991011681019081106001600160401b0382111761056757604052565b9291926001600160401b03821161056757604051916107c1601f8201601f191660200184610777565b8294818452818301116100fd578281602093846000960137010152565b60005b8381106107f15750506000910152565b81810151838201526020016107e1565b90600182811c92168015610831575b602083101461081b57565b634e487b7160e01b600052602260045260246000fd5b91607f1691610810565b906040519182600082549261084f84610801565b9081845260019485811690816000146108be575060011461087b575b505061087992500383610777565b565b9093915060005260209081600020936000915b8183106108a65750506108799350820101388061086b565b8554888401850152948501948794509183019161088e565b91505061087994506020925060ff191682840152151560051b820101388061086b565b906020916108fa815180928185528580860191016107de565b601f01601f1916010190565b9161092f9061092161093d95936060865260608601906108e1565b9084820360208601526108e1565b9160408184039101526108e1565b90565b6002548110156109775760026000527f405787fa12a823e0f2b7631cc41b3ba8828b3321ca811111fa75cd3aa3bb5ace0190600090565b634e487b7160e01b600052603260045260246000fd5b90601f811161099b57505050565b600091825260208220906020601f850160051c830194106109d7575b601f0160051c01915b8281106109cc57505050565b8181556001016109c0565b90925082906109b7565b908060209392818452848401376000828201840152601f01601f191601019056fea26469706673582212203a39a668e19cb49e3a55bf0b7bc810ebec4c78fd615e26e4108d26c7d547e59064736f6c63430008140033",
  "linkReferences": {},
  "deployedLinkReferences": {}
}