{
  "_format": "hh-sol-artifact-1",
  "contractName": "TerrainSignalSanctum",
  "sourceName": "contracts/manifest/TerrainSignalSanctum.sol",
  "abi": [
    {
      "inputs": [],
      "stateMutability": "nonpayable",
      "type": "constructor"
    },
    {
      "anonymous": false,
      "inputs": [
        {
          "indexed": false,
          "internalType": "string",
          "name": "glyph",
          "type": "string"
        },
        {
          "indexed": false,
          "internalType": "string",
          "name": "signalChoreography",
          "type": "string"
        },
        {
          "indexed": false,
          "internalType": "string",
          "name": "sanctum",
          "type": "string"
        },
        {
          "indexed": false,
          "internalType": "string",
          "name": "choreography",
          "type": "string"
        },
        {
          "indexed": false,
          "internalType": "string",
          "name": "chant",
          "type": "string"
        }
      ],
      "name": "SignalSanctumRouted",
      "type": "event"
    },
    {
      "inputs": [
        {
          "internalType": "string",
          "name": "glyph",
          "type": "string"
        }
      ],
      "name": "getRoute",
      "outputs": [
        {
          "components": [
            {
              "internalType": "string",
              "name": "glyph",
              "type": "string"
            },
            {
              "internalType": "string",
              "name": "signalChoreography",
              "type": "string"
            },
            {
              "internalType": "string",
              "name": "sanctum",
              "type": "string"
            },
            {
              "internalType": "string",
              "name": "choreography",
              "type": "string"
            },
            {
              "internalType": "string",
              "name": "chant",
              "type": "string"
            }
          ],
          "internalType": "struct TerrainSignalSanctum.Route",
          "name": "",
          "type": "tuple"
        }
      ],
      "stateMutability": "view",
      "type": "function"
    },
    {
      "inputs": [
        {
          "internalType": "uint256",
          "name": "",
          "type": "uint256"
        }
      ],
      "name": "keys",
      "outputs": [
        {
          "internalType": "string",
          "name": "",
          "type": "string"
        }
      ],
      "stateMutability": "view",
      "type": "function"
    },
    {
      "inputs": [
        {
          "internalType": "string",
          "name": "glyph",
          "type": "string"
        },
        {
          "internalType": "string",
          "name": "signalChoreography",
          "type": "string"
        },
        {
          "internalType": "string",
          "name": "sanctum",
          "type": "string"
        },
        {
          "internalType": "string",
          "name": "choreography",
          "type": "string"
        },
        {
          "internalType": "string",
          "name": "chant",
          "type": "string"
        }
      ],
      "name": "routeSignalSanctum",
      "outputs": [],
      "stateMutability": "nonpayable",
      "type": "function"
    },
    {
      "inputs": [
        {
          "internalType": "string",
          "name": "",
          "type": "string"
        }
      ],
      "name": "routes",
      "outputs": [
        {
          "internalType": "string",
          "name": "glyph",
          "type": "string"
        },
        {
          "internalType": "string",
          "name": "signalChoreography",
          "type": "string"
        },
        {
          "internalType": "string",
          "name": "sanctum",
          "type": "string"
        },
        {
          "internalType": "string",
          "name": "choreography",
          "type": "string"
        },
        {
          "internalType": "string",
          "name": "chant",
          "type": "string"
        }
      ],
      "stateMutability": "view",
      "type": "function"
    },
    {
      "inputs": [],
      "name": "steward",
      "outputs": [
        {
          "internalType": "address",
          "name": "",
          "type": "address"
        }
      ],
      "stateMutability": "view",
      "type": "function"
    },
    {
      "inputs": [],
      "name": "totalRoutes",
      "outputs": [
        {
          "internalType": "uint256",
          "name": "",
          "type": "uint256"
        }
      ],
      "stateMutability": "view",
      "type": "function"
    }
  ],
  "bytecode": "0x6080806040523461002857600080546001600160a01b03191633179055610d3c908161002e8239f35b600080fdfe608080604052600436101561001357600080fd5b60003560e01c90816305a2d3ac14610a52575080630cb6aaf114610a0757806310073aea146102d45780631b5f03a61461018d578063637eea19146101645763cffbffb51461006157600080fd5b3461015f57602036600319011261015f576004356001600160401b03811161015f573660238201121561015f576100bd60206100aa610123933690602481600401359101610c4b565b8160405193828580945193849201610bd6565b8101600181520301902061015b6100d382610b30565b9161014d6100e360018301610b30565b9161013f6100f360028301610b30565b61013161010e600461010760038701610b30565b9501610b30565b95604051998a9960a08b5260a08b0190610bf9565b9089820360208b0152610bf9565b908782036040890152610bf9565b908582036060870152610bf9565b908382036080850152610bf9565b0390f35b600080fd5b3461015f57600036600319011261015f576000546040516001600160a01b039091168152602090f35b3461015f5760208060031936011261015f57600435906001600160401b03821161015f5761015b816101c56080943690600401610c1e565b91906040516101d381610af4565b606096818880935282858201528260408201528280820152015282604051938492833781016001815203019020926040519361020e85610af4565b61021781610b30565b85526102c361022860018301610b30565b918587019283526102b261023e60028301610b30565b60408901908152610263600461025660038601610b30565b94888c0195865201610b30565b9560808a019687526102a161028b8a60a06040519d8e9d8e5251918d015260c08c0190610bf9565b965196601f1997888c83030160408d0152610bf9565b915190868a840301908a0152610bf9565b905183878303016080880152610bf9565b9151908483030160a0850152610bf9565b3461015f5760a036600319011261015f576004356001600160401b03811161015f57610304903690600401610c1e565b6024356001600160401b03811161015f57610323903690600401610c1e565b906044356001600160401b03811161015f57610343903690600401610c1e565b906064356001600160401b03811161015f57610363903690600401610c1e565b9190926084356001600160401b03811161015f57610385903690600401610c1e565b60005491979096916001600160a01b031633036109d4576040516103a881610af4565b6103b3368b8d610c4b565b81526103c0368385610c4b565b60208201526103d0368587610c4b565b60408201526103e0368789610c4b565b60608201526103f036898b610c4b565b60808201526040518a8c82376020818c810160018152030190209080518051906001600160401b0382116107485781906104348261042e8754610aba565b87610c91565b602090601f83116001146109685760009261095d575b50508160011b916000199060031b1c19161782555b60208101518051906001600160401b038211610748578190610491826104886001880154610aba565b60018801610c91565b602090601f83116001146108eb576000926108e0575b50508160011b916000199060031b1c19161760018301555b60408101518051906001600160401b0382116107485781906104f1826104e86002880154610aba565b60028801610c91565b602090601f831160011461086e57600092610863575b50508160011b916000199060031b1c19161760028301555b60608101518051906001600160401b0382116107485761054f826105466003870154610aba565b60038701610c91565b602090601f83116001146107f0576080939291600091836107e5575b50508160011b916000199060031b1c19161760038401555b0151908151906001600160401b038211610748576004829101926105b1826105ab8654610aba565b86610c91565b602090601f831160011461077f57600092610774575b50508160011b916000199060031b1c19161790555b60025468010000000000000000811015610748578060016106009201600255610a6d565b61075e576001600160401b038a11610748576106268a6106208354610aba565b83610c91565b896000601f82116001146106e1576000916106d6575b508a60011b906000198c60031b1c19161790555b604051998a9960a08b5260a08b019061066892610ce5565b9089820360208b015261067a92610ce5565b90878203604089015261068c92610ce5565b90858203606087015261069e92610ce5565b9083820360808501526106b092610ce5565b037fd08ea42c81a64e64bf7f9ccf6721889e2e6cbae3395cf68f0cc6dcf9dba59a1c91a1005b90508b01358c61063c565b60008381526020812092505b8d601f198e1682106107305750508b601f19811610610716575b505060018a811b019055610650565b8c013560001960038d901b60f8161c191690558b80610707565b600183946020939484930135815501930191016106ed565b634e487b7160e01b600052604160045260246000fd5b634e487b7160e01b600052600060045260246000fd5b015190508d806105c7565b6000858152602081209350601f198516905b8181106107cd57509084600195949392106107b4575b505050811b0190556105dc565b015160001960f88460031b161c191690558d80806107a7565b92936020600181928786015181550195019301610791565b015190508f8061056b565b906003850160005260206000209160005b601f198516811061084b575091839160019360809695601f19811610610832575b505050811b016003840155610583565b015160001960f88460031b161c191690558f8080610822565b91926020600181928685015181550194019201610801565b015190508e80610507565b9250600285016000526020600020906000935b601f19841685106108c5576001945083601f198116106108ac575b505050811b01600283015561051f565b015160001960f88460031b161c191690558e808061089c565b81810151835560209485019460019093019290910190610881565b015190508e806104a7565b9250600185016000526020600020906000935b601f1984168510610942576001945083601f19811610610929575b505050811b0160018301556104bf565b015160001960f88460031b161c191690558e8080610919565b818101518355602094850194600190930192909101906108fe565b015190508e8061044a565b9250846000526020600020906000935b601f19841685106109b9576001945083601f198116106109a0575b505050811b01825561045f565b015160001960f88460031b161c191690558e8080610993565b81810151835560209485019460019093019290910190610978565b60405162461bcd60e51b815260206004820152600b60248201526a139bdd081cdd195dd85c9960aa1b6044820152606490fd5b3461015f57602036600319011261015f5760043560025481101561015f57610a2e90610a6d565b61075e57610a3e61015b91610b30565b604051918291602083526020830190610bf9565b3461015f57600036600319011261015f576020906002548152f35b600254811015610aa45760026000527f405787fa12a823e0f2b7631cc41b3ba8828b3321ca811111fa75cd3aa3bb5ace0190600090565b634e487b7160e01b600052603260045260246000fd5b90600182811c92168015610aea575b6020831014610ad457565b634e487b7160e01b600052602260045260246000fd5b91607f1691610ac9565b60a081019081106001600160401b0382111761074857604052565b90601f801991011681019081106001600160401b0382111761074857604052565b9060405191826000825492610b4484610aba565b908184526001948581169081600014610bb35750600114610b70575b5050610b6e92500383610b0f565b565b9093915060005260209081600020936000915b818310610b9b575050610b6e93508201013880610b60565b85548884018501529485019487945091830191610b83565b915050610b6e94506020925060ff191682840152151560051b8201013880610b60565b60005b838110610be95750506000910152565b8181015183820152602001610bd9565b90602091610c1281518092818552858086019101610bd6565b601f01601f1916010190565b9181601f8401121561015f578235916001600160401b03831161015f576020838186019501011161015f57565b9291926001600160401b0382116107485760405191610c74601f8201601f191660200184610b0f565b82948184528183011161015f578281602093846000960137010152565b90601f8111610c9f57505050565b600091825260208220906020601f850160051c83019410610cdb575b601f0160051c01915b828110610cd057505050565b818155600101610cc4565b9092508290610cbb565b908060209392818452848401376000828201840152601f01601f191601019056fea264697066735822122051d542b401186390c59a17d47dc8d132ddc343f9fad975ea5c6c82b22202aa7d64736f6c63430008140033",
  "linkReferences": {},
  "deployedLinkReferences": {}
}