{
  "_format": "hh-sol-artifact-1",
  "contractName": "TerrainPulseRouter",
  "sourceName": "contracts/manifest/TerrainPulseRouter.sol",
  "abi": [
    {
      "inputs": [],
      "stateMutability": "nonpayable",
      "type": "constructor"
    },
    {
      "anonymous": false,
      "inputs": [
        {
          "indexed": false,
          "internalType": "string",
          "name": "chant",
          "type": "string"
        },
        {
          "indexed": false,
          "internalType": "string",
          "name": "target",
          "type": "string"
        },
        {
          "indexed": false,
          "internalType": "string",
          "name": "pulse",
          "type": "string"
        }
      ],
      "name": "PulseRouted",
      "type": "event"
    },
    {
      "inputs": [
        {
          "internalType": "string",
          "name": "chant",
          "type": "string"
        }
      ],
      "name": "getRoute",
      "outputs": [
        {
          "internalType": "string",
          "name": "",
          "type": "string"
        },
        {
          "internalType": "string",
          "name": "",
          "type": "string"
        }
      ],
      "stateMutability": "view",
      "type": "function"
    },
    {
      "inputs": [
        {
          "internalType": "uint256",
          "name": "",
          "type": "uint256"
        }
      ],
      "name": "keys",
      "outputs": [
        {
          "internalType": "string",
          "name": "",
          "type": "string"
        }
      ],
      "stateMutability": "view",
      "type": "function"
    },
    {
      "inputs": [
        {
          "internalType": "string",
          "name": "chant",
          "type": "string"
        },
        {
          "internalType": "string",
          "name": "target",
          "type": "string"
        },
        {
          "internalType": "string",
          "name": "pulse",
          "type": "string"
        }
      ],
      "name": "routePulse",
      "outputs": [],
      "stateMutability": "nonpayable",
      "type": "function"
    },
    {
      "inputs": [
        {
          "internalType": "string",
          "name": "",
          "type": "string"
        }
      ],
      "name": "routes",
      "outputs": [
        {
          "internalType": "string",
          "name": "chant",
          "type": "string"
        },
        {
          "internalType": "string",
          "name": "target",
          "type": "string"
        },
        {
          "internalType": "string",
          "name": "pulse",
          "type": "string"
        }
      ],
      "stateMutability": "view",
      "type": "function"
    },
    {
      "inputs": [],
      "name": "steward",
      "outputs": [
        {
          "internalType": "address",
          "name": "",
          "type": "address"
        }
      ],
      "stateMutability": "view",
      "type": "function"
    },
    {
      "inputs": [],
      "name": "totalRoutes",
      "outputs": [
        {
          "internalType": "uint256",
          "name": "",
          "type": "uint256"
        }
      ],
      "stateMutability": "view",
      "type": "function"
    }
  ],
  "bytecode": "0x6080806040523461002857600080546001600160a01b03191633179055610a40908161002e8239f35b600080fdfe608080604052600436101561001357600080fd5b60003560e01c90816305a2d3ac14610756575080630cb6aaf11461070b5780631b5f03a61461065f5780633fe8421c14610152578063637eea19146101295763cffbffb51461006157600080fd5b34610124576020366003190112610124576004356001600160401b0381116101245736602382011215610124576100bd60206100aa61010493369060248160040135910161094f565b81604051938285809451938492016108da565b810160018152030190206101206100d382610834565b916101126100ef60026100e860018501610834565b9301610834565b916040519586956060875260608701906108fd565b9085820360208701526108fd565b9083820360408501526108fd565b0390f35b600080fd5b34610124576000366003190112610124576000546040516001600160a01b039091168152602090f35b34610124576060366003190112610124576004356001600160401b03811161012457610182903690600401610922565b906024356001600160401b038111610124576101a2903690600401610922565b92906044356001600160401b038111610124576101c3903690600401610922565b60005491959092916001600160a01b0316330361062c576040516101e6816107f8565b6101f136868861094f565b81526101fe36838561094f565b602082015261020e36858961094f565b604082015260405185878237602081878101600181520301902081518051906001600160401b0382116104a55781906102518261024b86546107be565b86610995565b602090601f83116001146105c6576000926105bb575b50508160011b916000199060031b1c19161781555b602082015180516001600160401b0381116104a55760018301916102aa826102a485546107be565b85610995565b602090601f831160011461054d5791806002949260409694600092610542575b50508160011b916000199060031b1c19161790555b019101518051906001600160401b0382116104a55781906103048261024b86546107be565b602090601f83116001146104dc576000926104d1575b50508160011b916000199060031b1c19161790555b600254680100000000000000008110156104a5578060016103539201600255610771565b6104bb576001600160401b0385116104a5576103798561037383546107be565b83610995565b6000601f8611600114610413579261040394926103f592877fbd3b3dbe3a60dd171fdf813a0a48eb1f13e6c79c2c0aee48a9394eaf99de6ae39a96600091610408575b508860011b906000198a60031b1c19161790555b6103e760405198899860608a5260608a01916109e9565b9187830360208901526109e9565b9184830360408601526109e9565b0390a1005b90508901358b6103bc565b601f198616908260005260206000209160005b81811061048d5750927fbd3b3dbe3a60dd171fdf813a0a48eb1f13e6c79c2c0aee48a9394eaf99de6ae3999592610403979592896103f59610610473575b5050600188811b0190556103d0565b8a013560001960038b901b60f8161c191690558a80610464565b9192602060018192868d013581550194019201610426565b634e487b7160e01b600052604160045260246000fd5b634e487b7160e01b600052600060045260246000fd5b01519050898061031a565b6000858152602081209350601f198516905b81811061052a5750908460019594939210610511575b505050811b01905561032f565b015160001960f88460031b161c19169055898080610504565b929360206001819287860151815501950193016104ee565b015190508d806102ca565b90601f198316918460005260206000209260005b8181106105a3575092600192859260409896600298961061058a575b505050811b0190556102df565b015160001960f88460031b161c191690558d808061057d565b92936020600181928786015181550195019301610561565b015190508a80610267565b6000858152602081209350601f198516905b81811061061457509084600195949392106105fb575b505050811b01815561027c565b015160001960f88460031b161c191690558a80806105ee565b929360206001819287860151815501950193016105d8565b60405162461bcd60e51b815260206004820152600b60248201526a139bdd081cdd195dd85c9960aa1b6044820152606490fd5b34610124576020366003190112610124576004356001600160401b03811161012457604061012060206106996106fd943690600401610922565b919082855193849283378101600181520301902082516106b8816107f8565b6106c182610834565b81526106e260026106d460018501610834565b936020840194855201610834565b938491015251916040519384936040855260408501906108fd565b9083820360208501526108fd565b34610124576020366003190112610124576004356002548110156101245761073290610771565b6104bb5761074261012091610834565b6040519182916020835260208301906108fd565b34610124576000366003190112610124576020906002548152f35b6002548110156107a85760026000527f405787fa12a823e0f2b7631cc41b3ba8828b3321ca811111fa75cd3aa3bb5ace0190600090565b634e487b7160e01b600052603260045260246000fd5b90600182811c921680156107ee575b60208310146107d857565b634e487b7160e01b600052602260045260246000fd5b91607f16916107cd565b606081019081106001600160401b038211176104a557604052565b90601f801991011681019081106001600160401b038211176104a557604052565b9060405191826000825492610848846107be565b9081845260019485811690816000146108b75750600114610874575b505061087292500383610813565b565b9093915060005260209081600020936000915b81831061089f57505061087293508201013880610864565b85548884018501529485019487945091830191610887565b91505061087294506020925060ff191682840152151560051b8201013880610864565b60005b8381106108ed5750506000910152565b81810151838201526020016108dd565b90602091610916815180928185528580860191016108da565b601f01601f1916010190565b9181601f84011215610124578235916001600160401b038311610124576020838186019501011161012457565b9291926001600160401b0382116104a55760405191610978601f8201601f191660200184610813565b829481845281830111610124578281602093846000960137010152565b90601f81116109a357505050565b600091825260208220906020601f850160051c830194106109df575b601f0160051c01915b8281106109d457505050565b8181556001016109c8565b90925082906109bf565b908060209392818452848401376000828201840152601f01601f191601019056fea2646970667358221220e4c55dc3385f0718e9c47a172322ea40b514d1a694ffb64b2ec64800ecbe529264736f6c63430008140033",
  "linkReferences": {},
  "deployedLinkReferences": {}
}